01010010001000000          REGISTERED VOTERS - TOTAL                               REGISTERED VOTERS - TOTAL             PRECINCT 101                                           00 
01010010002000000          REGISTERED VOTERS - TOTAL                               REGISTERED VOTERS - TOTAL             PRECINCT 102                                           00 
01010010003000000          REGISTERED VOTERS - TOTAL                               REGISTERED VOTERS - TOTAL             PRECINCT 103                                           00 
01010010004000000          REGISTERED VOTERS - TOTAL                               REGISTERED VOTERS - TOTAL             PRECINCT 201                                           00 
01010010005000000          REGISTERED VOTERS - TOTAL                               REGISTERED VOTERS - TOTAL             PRECINCT 202                                           00 
01010010006000000          REGISTERED VOTERS - TOTAL                               REGISTERED VOTERS - TOTAL             PRECINCT 203                                           00 
01010010007000000          REGISTERED VOTERS - TOTAL                               REGISTERED VOTERS - TOTAL             PRECINCT 301                                           00 
01010010008000000          REGISTERED VOTERS - TOTAL                               REGISTERED VOTERS - TOTAL             PRECINCT 302                                           00 
01010010009000000          REGISTERED VOTERS - TOTAL                               REGISTERED VOTERS - TOTAL             PRECINCT 303                                           00 
01010010010000000          REGISTERED VOTERS - TOTAL                               REGISTERED VOTERS - TOTAL             PRECINCT 401                                           00 
01010010011000000          REGISTERED VOTERS - TOTAL                               REGISTERED VOTERS - TOTAL             PRECINCT 402                                           00 
01020010001000755          BALLOTS CAST - TOTAL                                    BALLOTS CAST - TOTAL                  PRECINCT 101                                           00 
01020010002000142          BALLOTS CAST - TOTAL                                    BALLOTS CAST - TOTAL                  PRECINCT 102                                           00 
01020010003000319          BALLOTS CAST - TOTAL                                    BALLOTS CAST - TOTAL                  PRECINCT 103                                           00 
01020010004000966          BALLOTS CAST - TOTAL                                    BALLOTS CAST - TOTAL                  PRECINCT 201                                           00 
01020010005000184          BALLOTS CAST - TOTAL                                    BALLOTS CAST - TOTAL                  PRECINCT 202                                           00 
01020010006000167          BALLOTS CAST - TOTAL                                    BALLOTS CAST - TOTAL                  PRECINCT 203                                           00 
01020010007000156          BALLOTS CAST - TOTAL                                    BALLOTS CAST - TOTAL                  PRECINCT 301                                           00 
01020010008000637          BALLOTS CAST - TOTAL                                    BALLOTS CAST - TOTAL                  PRECINCT 302                                           00 
01020010009000686          BALLOTS CAST - TOTAL                                    BALLOTS CAST - TOTAL                  PRECINCT 303                                           00 
01020010010000816          BALLOTS CAST - TOTAL                                    BALLOTS CAST - TOTAL                  PRECINCT 401                                           00 
01020010011000791          BALLOTS CAST - TOTAL                                    BALLOTS CAST - TOTAL                  PRECINCT 402                                           00 
01030010001000363REP       STRAIGHT PARTY                                          REPUBLICAN PARTY                      PRECINCT 101                                           01 
01030010002000033REP       STRAIGHT PARTY                                          REPUBLICAN PARTY                      PRECINCT 102                                           01 
01030010003000075REP       STRAIGHT PARTY                                          REPUBLICAN PARTY                      PRECINCT 103                                           01 
01030010004000294REP       STRAIGHT PARTY                                          REPUBLICAN PARTY                      PRECINCT 201                                           01 
01030010005000063REP       STRAIGHT PARTY                                          REPUBLICAN PARTY                      PRECINCT 202                                           01 
01030010006000064REP       STRAIGHT PARTY                                          REPUBLICAN PARTY                      PRECINCT 203                                           01 
01030010007000063REP       STRAIGHT PARTY                                          REPUBLICAN PARTY                      PRECINCT 301                                           01 
01030010008000333REP       STRAIGHT PARTY                                          REPUBLICAN PARTY                      PRECINCT 302                                           01 
01030010009000290REP       STRAIGHT PARTY                                          REPUBLICAN PARTY                      PRECINCT 303                                           01 
01030010010000357REP       STRAIGHT PARTY                                          REPUBLICAN PARTY                      PRECINCT 401                                           01 
01030010011000208REP       STRAIGHT PARTY                                          REPUBLICAN PARTY                      PRECINCT 402                                           01 
01030020001000102DEM       STRAIGHT PARTY                                          DEMOCRATIC PARTY                      PRECINCT 101                                           01 
01030020002000043DEM       STRAIGHT PARTY                                          DEMOCRATIC PARTY                      PRECINCT 102                                           01 
01030020003000066DEM       STRAIGHT PARTY                                          DEMOCRATIC PARTY                      PRECINCT 103                                           01 
01030020004000167DEM       STRAIGHT PARTY                                          DEMOCRATIC PARTY                      PRECINCT 201                                           01 
01030020005000027DEM       STRAIGHT PARTY                                          DEMOCRATIC PARTY                      PRECINCT 202                                           01 
01030020006000018DEM       STRAIGHT PARTY                                          DEMOCRATIC PARTY                      PRECINCT 203                                           01 
01030020007000006DEM       STRAIGHT PARTY                                          DEMOCRATIC PARTY                      PRECINCT 301                                           01 
01030020008000036DEM       STRAIGHT PARTY                                          DEMOCRATIC PARTY                      PRECINCT 302                                           01 
01030020009000053DEM       STRAIGHT PARTY                                          DEMOCRATIC PARTY                      PRECINCT 303                                           01 
01030020010000050DEM       STRAIGHT PARTY                                          DEMOCRATIC PARTY                      PRECINCT 401                                           01 
01030020011000091DEM       STRAIGHT PARTY                                          DEMOCRATIC PARTY                      PRECINCT 402                                           01 
01030030001000000LIB       STRAIGHT PARTY                                          LIBERTARIAN PARTY                     PRECINCT 101                                           01 
01030030002000000LIB       STRAIGHT PARTY                                          LIBERTARIAN PARTY                     PRECINCT 102                                           01 
01030030003000001LIB       STRAIGHT PARTY                                          LIBERTARIAN PARTY                     PRECINCT 103                                           01 
01030030004000002LIB       STRAIGHT PARTY                                          LIBERTARIAN PARTY                     PRECINCT 201                                           01 
01030030005000000LIB       STRAIGHT PARTY                                          LIBERTARIAN PARTY                     PRECINCT 202                                           01 
01030030006000000LIB       STRAIGHT PARTY                                          LIBERTARIAN PARTY                     PRECINCT 203                                           01 
01030030007000000LIB       STRAIGHT PARTY                                          LIBERTARIAN PARTY                     PRECINCT 301                                           01 
01030030008000001LIB       STRAIGHT PARTY                                          LIBERTARIAN PARTY                     PRECINCT 302                                           01 
01030030009000001LIB       STRAIGHT PARTY                                          LIBERTARIAN PARTY                     PRECINCT 303                                           01 
01030030010000003LIB       STRAIGHT PARTY                                          LIBERTARIAN PARTY                     PRECINCT 401                                           01 
01030030011000004LIB       STRAIGHT PARTY                                          LIBERTARIAN PARTY                     PRECINCT 402                                           01 
01030040001000001GRN       STRAIGHT PARTY                                          GREEN PARTY                           PRECINCT 101                                           01 
01030040002000000GRN       STRAIGHT PARTY                                          GREEN PARTY                           PRECINCT 102                                           01 
01030040003000001GRN       STRAIGHT PARTY                                          GREEN PARTY                           PRECINCT 103                                           01 
01030040004000000GRN       STRAIGHT PARTY                                          GREEN PARTY                           PRECINCT 201                                           01 
01030040005000000GRN       STRAIGHT PARTY                                          GREEN PARTY                           PRECINCT 202                                           01 
01030040006000000GRN       STRAIGHT PARTY                                          GREEN PARTY                           PRECINCT 203                                           01 
01030040007000000GRN       STRAIGHT PARTY                                          GREEN PARTY                           PRECINCT 301                                           01 
01030040008000001GRN       STRAIGHT PARTY                                          GREEN PARTY                           PRECINCT 302                                           01 
01030040009000000GRN       STRAIGHT PARTY                                          GREEN PARTY                           PRECINCT 303                                           01 
01030040010000001GRN       STRAIGHT PARTY                                          GREEN PARTY                           PRECINCT 401                                           01 
01030040011000000GRN       STRAIGHT PARTY                                          GREEN PARTY                           PRECINCT 402                                           01 
01030050001000000          STRAIGHT PARTY                                          OVER VOTES                            PRECINCT 101                                           01 
01030050002000000          STRAIGHT PARTY                                          OVER VOTES                            PRECINCT 102                                           01 
01030050003000000          STRAIGHT PARTY                                          OVER VOTES                            PRECINCT 103                                           01 
01030050004000000          STRAIGHT PARTY                                          OVER VOTES                            PRECINCT 201                                           01 
01030050005000000          STRAIGHT PARTY                                          OVER VOTES                            PRECINCT 202                                           01 
01030050006000000          STRAIGHT PARTY                                          OVER VOTES                            PRECINCT 203                                           01 
01030050007000000          STRAIGHT PARTY                                          OVER VOTES                            PRECINCT 301                                           01 
01030050008000000          STRAIGHT PARTY                                          OVER VOTES                            PRECINCT 302                                           01 
01030050009000000          STRAIGHT PARTY                                          OVER VOTES                            PRECINCT 303                                           01 
01030050010000000          STRAIGHT PARTY                                          OVER VOTES                            PRECINCT 401                                           01 
01030050011000000          STRAIGHT PARTY                                          OVER VOTES                            PRECINCT 402                                           01 
01030060001000289          STRAIGHT PARTY                                          UNDER VOTES                           PRECINCT 101                                           01 
01030060002000066          STRAIGHT PARTY                                          UNDER VOTES                           PRECINCT 102                                           01 
01030060003000176          STRAIGHT PARTY                                          UNDER VOTES                           PRECINCT 103                                           01 
01030060004000503          STRAIGHT PARTY                                          UNDER VOTES                           PRECINCT 201                                           01 
01030060005000094          STRAIGHT PARTY                                          UNDER VOTES                           PRECINCT 202                                           01 
01030060006000085          STRAIGHT PARTY                                          UNDER VOTES                           PRECINCT 203                                           01 
01030060007000087          STRAIGHT PARTY                                          UNDER VOTES                           PRECINCT 301                                           01 
01030060008000265          STRAIGHT PARTY                                          UNDER VOTES                           PRECINCT 302                                           01 
01030060009000341          STRAIGHT PARTY                                          UNDER VOTES                           PRECINCT 303                                           01 
01030060010000405          STRAIGHT PARTY                                          UNDER VOTES                           PRECINCT 401                                           01 
01030060011000488          STRAIGHT PARTY                                          UNDER VOTES                           PRECINCT 402                                           01 
01040010001000581REP       President and Vice President JONES COUNTYWIDE           Mitt Romney / Paul Ryan               PRECINCT 101                                           01 
01040010002000072REP       President and Vice President JONES COUNTYWIDE           Mitt Romney / Paul Ryan               PRECINCT 102                                           01 
01040010003000182REP       President and Vice President JONES COUNTYWIDE           Mitt Romney / Paul Ryan               PRECINCT 103                                           01 
01040010004000645REP       President and Vice President JONES COUNTYWIDE           Mitt Romney / Paul Ryan               PRECINCT 201                                           01 
01040010005000126REP       President and Vice President JONES COUNTYWIDE           Mitt Romney / Paul Ryan               PRECINCT 202                                           01 
01040010006000129REP       President and Vice President JONES COUNTYWIDE           Mitt Romney / Paul Ryan               PRECINCT 203                                           01 
01040010007000134REP       President and Vice President JONES COUNTYWIDE           Mitt Romney / Paul Ryan               PRECINCT 301                                           01 
01040010008000547REP       President and Vice President JONES COUNTYWIDE           Mitt Romney / Paul Ryan               PRECINCT 302                                           01 
01040010009000569REP       President and Vice President JONES COUNTYWIDE           Mitt Romney / Paul Ryan               PRECINCT 303                                           01 
01040010010000693REP       President and Vice President JONES COUNTYWIDE           Mitt Romney / Paul Ryan               PRECINCT 401                                           01 
01040010011000584REP       President and Vice President JONES COUNTYWIDE           Mitt Romney / Paul Ryan               PRECINCT 402                                           01 
01040020001000161DEM       President and Vice President JONES COUNTYWIDE           Barack Obama / Joe Biden              PRECINCT 101                                           01 
01040020002000070DEM       President and Vice President JONES COUNTYWIDE           Barack Obama / Joe Biden              PRECINCT 102                                           01 
01040020003000121DEM       President and Vice President JONES COUNTYWIDE           Barack Obama / Joe Biden              PRECINCT 103                                           01 
01040020004000303DEM       President and Vice President JONES COUNTYWIDE           Barack Obama / Joe Biden              PRECINCT 201                                           01 
01040020005000050DEM       President and Vice President JONES COUNTYWIDE           Barack Obama / Joe Biden              PRECINCT 202                                           01 
01040020006000036DEM       President and Vice President JONES COUNTYWIDE           Barack Obama / Joe Biden              PRECINCT 203                                           01 
01040020007000017DEM       President and Vice President JONES COUNTYWIDE           Barack Obama / Joe Biden              PRECINCT 301                                           01 
01040020008000085DEM       President and Vice President JONES COUNTYWIDE           Barack Obama / Joe Biden              PRECINCT 302                                           01 
01040020009000100DEM       President and Vice President JONES COUNTYWIDE           Barack Obama / Joe Biden              PRECINCT 303                                           01 
01040020010000096DEM       President and Vice President JONES COUNTYWIDE           Barack Obama / Joe Biden              PRECINCT 401                                           01 
01040020011000187DEM       President and Vice President JONES COUNTYWIDE           Barack Obama / Joe Biden              PRECINCT 402                                           01 
01040030001000006LIB       President and Vice President JONES COUNTYWIDE           Gary Johnson / Jim Gray               PRECINCT 101                                           01 
01040030002000000LIB       President and Vice President JONES COUNTYWIDE           Gary Johnson / Jim Gray               PRECINCT 102                                           01 
01040030003000005LIB       President and Vice President JONES COUNTYWIDE           Gary Johnson / Jim Gray               PRECINCT 103                                           01 
01040030004000014LIB       President and Vice President JONES COUNTYWIDE           Gary Johnson / Jim Gray               PRECINCT 201                                           01 
01040030005000002LIB       President and Vice President JONES COUNTYWIDE           Gary Johnson / Jim Gray               PRECINCT 202                                           01 
01040030006000000LIB       President and Vice President JONES COUNTYWIDE           Gary Johnson / Jim Gray               PRECINCT 203                                           01 
01040030007000000LIB       President and Vice President JONES COUNTYWIDE           Gary Johnson / Jim Gray               PRECINCT 301                                           01 
01040030008000003LIB       President and Vice President JONES COUNTYWIDE           Gary Johnson / Jim Gray               PRECINCT 302                                           01 
01040030009000007LIB       President and Vice President JONES COUNTYWIDE           Gary Johnson / Jim Gray               PRECINCT 303                                           01 
01040030010000019LIB       President and Vice President JONES COUNTYWIDE           Gary Johnson / Jim Gray               PRECINCT 401                                           01 
01040030011000008LIB       President and Vice President JONES COUNTYWIDE           Gary Johnson / Jim Gray               PRECINCT 402                                           01 
01040040001000001GRN       President and Vice President JONES COUNTYWIDE           Jill Stein / Cheri Honkala            PRECINCT 101                                           01 
01040040002000000GRN       President and Vice President JONES COUNTYWIDE           Jill Stein / Cheri Honkala            PRECINCT 102                                           01 
01040040003000004GRN       President and Vice President JONES COUNTYWIDE           Jill Stein / Cheri Honkala            PRECINCT 103                                           01 
01040040004000000GRN       President and Vice President JONES COUNTYWIDE           Jill Stein / Cheri Honkala            PRECINCT 201                                           01 
01040040005000002GRN       President and Vice President JONES COUNTYWIDE           Jill Stein / Cheri Honkala            PRECINCT 202                                           01 
01040040006000000GRN       President and Vice President JONES COUNTYWIDE           Jill Stein / Cheri Honkala            PRECINCT 203                                           01 
01040040007000002GRN       President and Vice President JONES COUNTYWIDE           Jill Stein / Cheri Honkala            PRECINCT 301                                           01 
01040040008000001GRN       President and Vice President JONES COUNTYWIDE           Jill Stein / Cheri Honkala            PRECINCT 302                                           01 
01040040009000000GRN       President and Vice President JONES COUNTYWIDE           Jill Stein / Cheri Honkala            PRECINCT 303                                           01 
01040040010000003GRN       President and Vice President JONES COUNTYWIDE           Jill Stein / Cheri Honkala            PRECINCT 401                                           01 
01040040011000002GRN       President and Vice President JONES COUNTYWIDE           Jill Stein / Cheri Honkala            PRECINCT 402                                           01 
01040050001000001NON       President and Vice President JONES COUNTYWIDE           WRITE-IN                              PRECINCT 101                                           01 
01040050002000000NON       President and Vice President JONES COUNTYWIDE           WRITE-IN                              PRECINCT 102                                           01 
01040050003000000NON       President and Vice President JONES COUNTYWIDE           WRITE-IN                              PRECINCT 103                                           01 
01040050004000001NON       President and Vice President JONES COUNTYWIDE           WRITE-IN                              PRECINCT 201                                           01 
01040050005000000NON       President and Vice President JONES COUNTYWIDE           WRITE-IN                              PRECINCT 202                                           01 
01040050006000000NON       President and Vice President JONES COUNTYWIDE           WRITE-IN                              PRECINCT 203                                           01 
01040050007000001NON       President and Vice President JONES COUNTYWIDE           WRITE-IN                              PRECINCT 301                                           01 
01040050008000000NON       President and Vice President JONES COUNTYWIDE           WRITE-IN                              PRECINCT 302                                           01 
01040050009000003NON       President and Vice President JONES COUNTYWIDE           WRITE-IN                              PRECINCT 303                                           01 
01040050010000000NON       President and Vice President JONES COUNTYWIDE           WRITE-IN                              PRECINCT 401                                           01 
01040050011000001NON       President and Vice President JONES COUNTYWIDE           WRITE-IN                              PRECINCT 402                                           01 
01040060001000000          President and Vice President JONES COUNTYWIDE           OVER VOTES                            PRECINCT 101                                           01 
01040060002000000          President and Vice President JONES COUNTYWIDE           OVER VOTES                            PRECINCT 102                                           01 
01040060003000000          President and Vice President JONES COUNTYWIDE           OVER VOTES                            PRECINCT 103                                           01 
01040060004000000          President and Vice President JONES COUNTYWIDE           OVER VOTES                            PRECINCT 201                                           01 
01040060005000000          President and Vice President JONES COUNTYWIDE           OVER VOTES                            PRECINCT 202                                           01 
01040060006000000          President and Vice President JONES COUNTYWIDE           OVER VOTES                            PRECINCT 203                                           01 
01040060007000000          President and Vice President JONES COUNTYWIDE           OVER VOTES                            PRECINCT 301                                           01 
01040060008000000          President and Vice President JONES COUNTYWIDE           OVER VOTES                            PRECINCT 302                                           01 
01040060009000000          President and Vice President JONES COUNTYWIDE           OVER VOTES                            PRECINCT 303                                           01 
01040060010000000          President and Vice President JONES COUNTYWIDE           OVER VOTES                            PRECINCT 401                                           01 
01040060011000000          President and Vice President JONES COUNTYWIDE           OVER VOTES                            PRECINCT 402                                           01 
01040070001000005          President and Vice President JONES COUNTYWIDE           UNDER VOTES                           PRECINCT 101                                           01 
01040070002000000          President and Vice President JONES COUNTYWIDE           UNDER VOTES                           PRECINCT 102                                           01 
01040070003000007          President and Vice President JONES COUNTYWIDE           UNDER VOTES                           PRECINCT 103                                           01 
01040070004000003          President and Vice President JONES COUNTYWIDE           UNDER VOTES                           PRECINCT 201                                           01 
01040070005000004          President and Vice President JONES COUNTYWIDE           UNDER VOTES                           PRECINCT 202                                           01 
01040070006000002          President and Vice President JONES COUNTYWIDE           UNDER VOTES                           PRECINCT 203                                           01 
01040070007000002          President and Vice President JONES COUNTYWIDE           UNDER VOTES                           PRECINCT 301                                           01 
01040070008000001          President and Vice President JONES COUNTYWIDE           UNDER VOTES                           PRECINCT 302                                           01 
01040070009000007          President and Vice President JONES COUNTYWIDE           UNDER VOTES                           PRECINCT 303                                           01 
01040070010000005          President and Vice President JONES COUNTYWIDE           UNDER VOTES                           PRECINCT 401                                           01 
01040070011000009          President and Vice President JONES COUNTYWIDE           UNDER VOTES                           PRECINCT 402                                           01 
01050010001000547REP       US Senator JONES COUNTYWIDE                             Ted Cruz                              PRECINCT 101                                           01 
01050010002000067REP       US Senator JONES COUNTYWIDE                             Ted Cruz                              PRECINCT 102                                           01 
01050010003000178REP       US Senator JONES COUNTYWIDE                             Ted Cruz                              PRECINCT 103                                           01 
01050010004000590REP       US Senator JONES COUNTYWIDE                             Ted Cruz                              PRECINCT 201                                           01 
01050010005000110REP       US Senator JONES COUNTYWIDE                             Ted Cruz                              PRECINCT 202                                           01 
01050010006000117REP       US Senator JONES COUNTYWIDE                             Ted Cruz                              PRECINCT 203                                           01 
01050010007000124REP       US Senator JONES COUNTYWIDE                             Ted Cruz                              PRECINCT 301                                           01 
01050010008000525REP       US Senator JONES COUNTYWIDE                             Ted Cruz                              PRECINCT 302                                           01 
01050010009000542REP       US Senator JONES COUNTYWIDE                             Ted Cruz                              PRECINCT 303                                           01 
01050010010000663REP       US Senator JONES COUNTYWIDE                             Ted Cruz                              PRECINCT 401                                           01 
01050010011000520REP       US Senator JONES COUNTYWIDE                             Ted Cruz                              PRECINCT 402                                           01 
01050020001000178DEM       US Senator JONES COUNTYWIDE                             Paul Sadler                           PRECINCT 101                                           01 
01050020002000066DEM       US Senator JONES COUNTYWIDE                             Paul Sadler                           PRECINCT 102                                           01 
01050020003000108DEM       US Senator JONES COUNTYWIDE                             Paul Sadler                           PRECINCT 103                                           01 
01050020004000301DEM       US Senator JONES COUNTYWIDE                             Paul Sadler                           PRECINCT 201                                           01 
01050020005000057DEM       US Senator JONES COUNTYWIDE                             Paul Sadler                           PRECINCT 202                                           01 
01050020006000041DEM       US Senator JONES COUNTYWIDE                             Paul Sadler                           PRECINCT 203                                           01 
01050020007000024DEM       US Senator JONES COUNTYWIDE                             Paul Sadler                           PRECINCT 301                                           01 
01050020008000086DEM       US Senator JONES COUNTYWIDE                             Paul Sadler                           PRECINCT 302                                           01 
01050020009000106DEM       US Senator JONES COUNTYWIDE                             Paul Sadler                           PRECINCT 303                                           01 
01050020010000114DEM       US Senator JONES COUNTYWIDE                             Paul Sadler                           PRECINCT 401                                           01 
01050020011000205DEM       US Senator JONES COUNTYWIDE                             Paul Sadler                           PRECINCT 402                                           01 
01050030001000007LIB       US Senator JONES COUNTYWIDE                             John Jay Myers                        PRECINCT 101                                           01 
01050030002000001LIB       US Senator JONES COUNTYWIDE                             John Jay Myers                        PRECINCT 102                                           01 
01050030003000011LIB       US Senator JONES COUNTYWIDE                             John Jay Myers                        PRECINCT 103                                           01 
01050030004000021LIB       US Senator JONES COUNTYWIDE                             John Jay Myers                        PRECINCT 201                                           01 
01050030005000001LIB       US Senator JONES COUNTYWIDE                             John Jay Myers                        PRECINCT 202                                           01 
01050030006000004LIB       US Senator JONES COUNTYWIDE                             John Jay Myers                        PRECINCT 203                                           01 
01050030007000004LIB       US Senator JONES COUNTYWIDE                             John Jay Myers                        PRECINCT 301                                           01 
01050030008000010LIB       US Senator JONES COUNTYWIDE                             John Jay Myers                        PRECINCT 302                                           01 
01050030009000008LIB       US Senator JONES COUNTYWIDE                             John Jay Myers                        PRECINCT 303                                           01 
01050030010000016LIB       US Senator JONES COUNTYWIDE                             John Jay Myers                        PRECINCT 401                                           01 
01050030011000015LIB       US Senator JONES COUNTYWIDE                             John Jay Myers                        PRECINCT 402                                           01 
01050040001000003GRN       US Senator JONES COUNTYWIDE                             David B. Collins                      PRECINCT 101                                           01 
01050040002000001GRN       US Senator JONES COUNTYWIDE                             David B. Collins                      PRECINCT 102                                           01 
01050040003000005GRN       US Senator JONES COUNTYWIDE                             David B. Collins                      PRECINCT 103                                           01 
01050040004000004GRN       US Senator JONES COUNTYWIDE                             David B. Collins                      PRECINCT 201                                           01 
01050040005000003GRN       US Senator JONES COUNTYWIDE                             David B. Collins                      PRECINCT 202                                           01 
01050040006000002GRN       US Senator JONES COUNTYWIDE                             David B. Collins                      PRECINCT 203                                           01 
01050040007000001GRN       US Senator JONES COUNTYWIDE                             David B. Collins                      PRECINCT 301                                           01 
01050040008000004GRN       US Senator JONES COUNTYWIDE                             David B. Collins                      PRECINCT 302                                           01 
01050040009000004GRN       US Senator JONES COUNTYWIDE                             David B. Collins                      PRECINCT 303                                           01 
01050040010000006GRN       US Senator JONES COUNTYWIDE                             David B. Collins                      PRECINCT 401                                           01 
01050040011000015GRN       US Senator JONES COUNTYWIDE                             David B. Collins                      PRECINCT 402                                           01 
01050050001000000          US Senator JONES COUNTYWIDE                             OVER VOTES                            PRECINCT 101                                           01 
01050050002000000          US Senator JONES COUNTYWIDE                             OVER VOTES                            PRECINCT 102                                           01 
01050050003000000          US Senator JONES COUNTYWIDE                             OVER VOTES                            PRECINCT 103                                           01 
01050050004000000          US Senator JONES COUNTYWIDE                             OVER VOTES                            PRECINCT 201                                           01 
01050050005000000          US Senator JONES COUNTYWIDE                             OVER VOTES                            PRECINCT 202                                           01 
01050050006000000          US Senator JONES COUNTYWIDE                             OVER VOTES                            PRECINCT 203                                           01 
01050050007000000          US Senator JONES COUNTYWIDE                             OVER VOTES                            PRECINCT 301                                           01 
01050050008000000          US Senator JONES COUNTYWIDE                             OVER VOTES                            PRECINCT 302                                           01 
01050050009000000          US Senator JONES COUNTYWIDE                             OVER VOTES                            PRECINCT 303                                           01 
01050050010000000          US Senator JONES COUNTYWIDE                             OVER VOTES                            PRECINCT 401                                           01 
01050050011000000          US Senator JONES COUNTYWIDE                             OVER VOTES                            PRECINCT 402                                           01 
01050060001000020          US Senator JONES COUNTYWIDE                             UNDER VOTES                           PRECINCT 101                                           01 
01050060002000007          US Senator JONES COUNTYWIDE                             UNDER VOTES                           PRECINCT 102                                           01 
01050060003000017          US Senator JONES COUNTYWIDE                             UNDER VOTES                           PRECINCT 103                                           01 
01050060004000050          US Senator JONES COUNTYWIDE                             UNDER VOTES                           PRECINCT 201                                           01 
01050060005000013          US Senator JONES COUNTYWIDE                             UNDER VOTES                           PRECINCT 202                                           01 
01050060006000003          US Senator JONES COUNTYWIDE                             UNDER VOTES                           PRECINCT 203                                           01 
01050060007000003          US Senator JONES COUNTYWIDE                             UNDER VOTES                           PRECINCT 301                                           01 
01050060008000012          US Senator JONES COUNTYWIDE                             UNDER VOTES                           PRECINCT 302                                           01 
01050060009000026          US Senator JONES COUNTYWIDE                             UNDER VOTES                           PRECINCT 303                                           01 
01050060010000017          US Senator JONES COUNTYWIDE                             UNDER VOTES                           PRECINCT 401                                           01 
01050060011000036          US Senator JONES COUNTYWIDE                             UNDER VOTES                           PRECINCT 402                                           01 
01060010001000573REP       US Representative, DIST 19 JONES COUNTYWIDE             Randy Neugebauer                      PRECINCT 101                                           01 
01060010002000066REP       US Representative, DIST 19 JONES COUNTYWIDE             Randy Neugebauer                      PRECINCT 102                                           01 
01060010003000198REP       US Representative, DIST 19 JONES COUNTYWIDE             Randy Neugebauer                      PRECINCT 103                                           01 
01060010004000614REP       US Representative, DIST 19 JONES COUNTYWIDE             Randy Neugebauer                      PRECINCT 201                                           01 
01060010005000126REP       US Representative, DIST 19 JONES COUNTYWIDE             Randy Neugebauer                      PRECINCT 202                                           01 
01060010006000127REP       US Representative, DIST 19 JONES COUNTYWIDE             Randy Neugebauer                      PRECINCT 203                                           01 
01060010007000134REP       US Representative, DIST 19 JONES COUNTYWIDE             Randy Neugebauer                      PRECINCT 301                                           01 
01060010008000533REP       US Representative, DIST 19 JONES COUNTYWIDE             Randy Neugebauer                      PRECINCT 302                                           01 
01060010009000541REP       US Representative, DIST 19 JONES COUNTYWIDE             Randy Neugebauer                      PRECINCT 303                                           01 
01060010010000651REP       US Representative, DIST 19 JONES COUNTYWIDE             Randy Neugebauer                      PRECINCT 401                                           01 
01060010011000572REP       US Representative, DIST 19 JONES COUNTYWIDE             Randy Neugebauer                      PRECINCT 402                                           01 
01060020001000060LIB       US Representative, DIST 19 JONES COUNTYWIDE             Richard (Chip) Peterson               PRECINCT 101                                           01 
01060020002000026LIB       US Representative, DIST 19 JONES COUNTYWIDE             Richard (Chip) Peterson               PRECINCT 102                                           01 
01060020003000052LIB       US Representative, DIST 19 JONES COUNTYWIDE             Richard (Chip) Peterson               PRECINCT 103                                           01 
01060020004000162LIB       US Representative, DIST 19 JONES COUNTYWIDE             Richard (Chip) Peterson               PRECINCT 201                                           01 
01060020005000030LIB       US Representative, DIST 19 JONES COUNTYWIDE             Richard (Chip) Peterson               PRECINCT 202                                           01 
01060020006000021LIB       US Representative, DIST 19 JONES COUNTYWIDE             Richard (Chip) Peterson               PRECINCT 203                                           01 
01060020007000013LIB       US Representative, DIST 19 JONES COUNTYWIDE             Richard (Chip) Peterson               PRECINCT 301                                           01 
01060020008000064LIB       US Representative, DIST 19 JONES COUNTYWIDE             Richard (Chip) Peterson               PRECINCT 302                                           01 
01060020009000087LIB       US Representative, DIST 19 JONES COUNTYWIDE             Richard (Chip) Peterson               PRECINCT 303                                           01 
01060020010000105LIB       US Representative, DIST 19 JONES COUNTYWIDE             Richard (Chip) Peterson               PRECINCT 401                                           01 
01060020011000111LIB       US Representative, DIST 19 JONES COUNTYWIDE             Richard (Chip) Peterson               PRECINCT 402                                           01 
01060030001000000          US Representative, DIST 19 JONES COUNTYWIDE             OVER VOTES                            PRECINCT 101                                           01 
01060030002000000          US Representative, DIST 19 JONES COUNTYWIDE             OVER VOTES                            PRECINCT 102                                           01 
01060030003000000          US Representative, DIST 19 JONES COUNTYWIDE             OVER VOTES                            PRECINCT 103                                           01 
01060030004000000          US Representative, DIST 19 JONES COUNTYWIDE             OVER VOTES                            PRECINCT 201                                           01 
01060030005000000          US Representative, DIST 19 JONES COUNTYWIDE             OVER VOTES                            PRECINCT 202                                           01 
01060030006000000          US Representative, DIST 19 JONES COUNTYWIDE             OVER VOTES                            PRECINCT 203                                           01 
01060030007000000          US Representative, DIST 19 JONES COUNTYWIDE             OVER VOTES                            PRECINCT 301                                           01 
01060030008000000          US Representative, DIST 19 JONES COUNTYWIDE             OVER VOTES                            PRECINCT 302                                           01 
01060030009000000          US Representative, DIST 19 JONES COUNTYWIDE             OVER VOTES                            PRECINCT 303                                           01 
01060030010000000          US Representative, DIST 19 JONES COUNTYWIDE             OVER VOTES                            PRECINCT 401                                           01 
01060030011000000          US Representative, DIST 19 JONES COUNTYWIDE             OVER VOTES                            PRECINCT 402                                           01 
01060040001000121          US Representative, DIST 19 JONES COUNTYWIDE             UNDER VOTES                           PRECINCT 101                                           01 
01060040002000050          US Representative, DIST 19 JONES COUNTYWIDE             UNDER VOTES                           PRECINCT 102                                           01 
01060040003000069          US Representative, DIST 19 JONES COUNTYWIDE             UNDER VOTES                           PRECINCT 103                                           01 
01060040004000190          US Representative, DIST 19 JONES COUNTYWIDE             UNDER VOTES                           PRECINCT 201                                           01 
01060040005000028          US Representative, DIST 19 JONES COUNTYWIDE             UNDER VOTES                           PRECINCT 202                                           01 
01060040006000019          US Representative, DIST 19 JONES COUNTYWIDE             UNDER VOTES                           PRECINCT 203                                           01 
01060040007000009          US Representative, DIST 19 JONES COUNTYWIDE             UNDER VOTES                           PRECINCT 301                                           01 
01060040008000040          US Representative, DIST 19 JONES COUNTYWIDE             UNDER VOTES                           PRECINCT 302                                           01 
01060040009000057          US Representative, DIST 19 JONES COUNTYWIDE             UNDER VOTES                           PRECINCT 303                                           01 
01060040010000060          US Representative, DIST 19 JONES COUNTYWIDE             UNDER VOTES                           PRECINCT 401                                           01 
01060040011000108          US Representative, DIST 19 JONES COUNTYWIDE             UNDER VOTES                           PRECINCT 402                                           01 
01070010001000531REP       Railroad Commissioner JONES COUNTYWIDE                  Christi Craddick                      PRECINCT 101                                           01 
01070010002000060REP       Railroad Commissioner JONES COUNTYWIDE                  Christi Craddick                      PRECINCT 102                                           01 
01070010003000172REP       Railroad Commissioner JONES COUNTYWIDE                  Christi Craddick                      PRECINCT 103                                           01 
01070010004000555REP       Railroad Commissioner JONES COUNTYWIDE                  Christi Craddick                      PRECINCT 201                                           01 
01070010005000105REP       Railroad Commissioner JONES COUNTYWIDE                  Christi Craddick                      PRECINCT 202                                           01 
01070010006000112REP       Railroad Commissioner JONES COUNTYWIDE                  Christi Craddick                      PRECINCT 203                                           01 
01070010007000124REP       Railroad Commissioner JONES COUNTYWIDE                  Christi Craddick                      PRECINCT 301                                           01 
01070010008000510REP       Railroad Commissioner JONES COUNTYWIDE                  Christi Craddick                      PRECINCT 302                                           01 
01070010009000527REP       Railroad Commissioner JONES COUNTYWIDE                  Christi Craddick                      PRECINCT 303                                           01 
01070010010000646REP       Railroad Commissioner JONES COUNTYWIDE                  Christi Craddick                      PRECINCT 401                                           01 
01070010011000500REP       Railroad Commissioner JONES COUNTYWIDE                  Christi Craddick                      PRECINCT 402                                           01 
01070020001000182DEM       Railroad Commissioner JONES COUNTYWIDE                  Dale Henry                            PRECINCT 101                                           01 
01070020002000071DEM       Railroad Commissioner JONES COUNTYWIDE                  Dale Henry                            PRECINCT 102                                           01 
01070020003000116DEM       Railroad Commissioner JONES COUNTYWIDE                  Dale Henry                            PRECINCT 103                                           01 
01070020004000308DEM       Railroad Commissioner JONES COUNTYWIDE                  Dale Henry                            PRECINCT 201                                           01 
01070020005000058DEM       Railroad Commissioner JONES COUNTYWIDE                  Dale Henry                            PRECINCT 202                                           01 
01070020006000043DEM       Railroad Commissioner JONES COUNTYWIDE                  Dale Henry                            PRECINCT 203                                           01 
01070020007000022DEM       Railroad Commissioner JONES COUNTYWIDE                  Dale Henry                            PRECINCT 301                                           01 
01070020008000084DEM       Railroad Commissioner JONES COUNTYWIDE                  Dale Henry                            PRECINCT 302                                           01 
01070020009000100DEM       Railroad Commissioner JONES COUNTYWIDE                  Dale Henry                            PRECINCT 303                                           01 
01070020010000112DEM       Railroad Commissioner JONES COUNTYWIDE                  Dale Henry                            PRECINCT 401                                           01 
01070020011000208DEM       Railroad Commissioner JONES COUNTYWIDE                  Dale Henry                            PRECINCT 402                                           01 
01070030001000006LIB       Railroad Commissioner JONES COUNTYWIDE                  Vivekananda (Vik) Wall                PRECINCT 101                                           01 
01070030002000002LIB       Railroad Commissioner JONES COUNTYWIDE                  Vivekananda (Vik) Wall                PRECINCT 102                                           01 
01070030003000003LIB       Railroad Commissioner JONES COUNTYWIDE                  Vivekananda (Vik) Wall                PRECINCT 103                                           01 
01070030004000022LIB       Railroad Commissioner JONES COUNTYWIDE                  Vivekananda (Vik) Wall                PRECINCT 201                                           01 
01070030005000002LIB       Railroad Commissioner JONES COUNTYWIDE                  Vivekananda (Vik) Wall                PRECINCT 202                                           01 
01070030006000003LIB       Railroad Commissioner JONES COUNTYWIDE                  Vivekananda (Vik) Wall                PRECINCT 203                                           01 
01070030007000003LIB       Railroad Commissioner JONES COUNTYWIDE                  Vivekananda (Vik) Wall                PRECINCT 301                                           01 
01070030008000007LIB       Railroad Commissioner JONES COUNTYWIDE                  Vivekananda (Vik) Wall                PRECINCT 302                                           01 
01070030009000014LIB       Railroad Commissioner JONES COUNTYWIDE                  Vivekananda (Vik) Wall                PRECINCT 303                                           01 
01070030010000020LIB       Railroad Commissioner JONES COUNTYWIDE                  Vivekananda (Vik) Wall                PRECINCT 401                                           01 
01070030011000012LIB       Railroad Commissioner JONES COUNTYWIDE                  Vivekananda (Vik) Wall                PRECINCT 402                                           01 
01070040001000010GRN       Railroad Commissioner JONES COUNTYWIDE                  Chris Kennedy                         PRECINCT 101                                           01 
01070040002000003GRN       Railroad Commissioner JONES COUNTYWIDE                  Chris Kennedy                         PRECINCT 102                                           01 
01070040003000009GRN       Railroad Commissioner JONES COUNTYWIDE                  Chris Kennedy                         PRECINCT 103                                           01 
01070040004000014GRN       Railroad Commissioner JONES COUNTYWIDE                  Chris Kennedy                         PRECINCT 201                                           01 
01070040005000004GRN       Railroad Commissioner JONES COUNTYWIDE                  Chris Kennedy                         PRECINCT 202                                           01 
01070040006000002GRN       Railroad Commissioner JONES COUNTYWIDE                  Chris Kennedy                         PRECINCT 203                                           01 
01070040007000002GRN       Railroad Commissioner JONES COUNTYWIDE                  Chris Kennedy                         PRECINCT 301                                           01 
01070040008000015GRN       Railroad Commissioner JONES COUNTYWIDE                  Chris Kennedy                         PRECINCT 302                                           01 
01070040009000012GRN       Railroad Commissioner JONES COUNTYWIDE                  Chris Kennedy                         PRECINCT 303                                           01 
01070040010000016GRN       Railroad Commissioner JONES COUNTYWIDE                  Chris Kennedy                         PRECINCT 401                                           01 
01070040011000016GRN       Railroad Commissioner JONES COUNTYWIDE                  Chris Kennedy                         PRECINCT 402                                           01 
01070050001000000          Railroad Commissioner JONES COUNTYWIDE                  OVER VOTES                            PRECINCT 101                                           01 
01070050002000000          Railroad Commissioner JONES COUNTYWIDE                  OVER VOTES                            PRECINCT 102                                           01 
01070050003000000          Railroad Commissioner JONES COUNTYWIDE                  OVER VOTES                            PRECINCT 103                                           01 
01070050004000000          Railroad Commissioner JONES COUNTYWIDE                  OVER VOTES                            PRECINCT 201                                           01 
01070050005000000          Railroad Commissioner JONES COUNTYWIDE                  OVER VOTES                            PRECINCT 202                                           01 
01070050006000000          Railroad Commissioner JONES COUNTYWIDE                  OVER VOTES                            PRECINCT 203                                           01 
01070050007000000          Railroad Commissioner JONES COUNTYWIDE                  OVER VOTES                            PRECINCT 301                                           01 
01070050008000000          Railroad Commissioner JONES COUNTYWIDE                  OVER VOTES                            PRECINCT 302                                           01 
01070050009000000          Railroad Commissioner JONES COUNTYWIDE                  OVER VOTES                            PRECINCT 303                                           01 
01070050010000000          Railroad Commissioner JONES COUNTYWIDE                  OVER VOTES                            PRECINCT 401                                           01 
01070050011000000          Railroad Commissioner JONES COUNTYWIDE                  OVER VOTES                            PRECINCT 402                                           01 
01070060001000026          Railroad Commissioner JONES COUNTYWIDE                  UNDER VOTES                           PRECINCT 101                                           01 
01070060002000006          Railroad Commissioner JONES COUNTYWIDE                  UNDER VOTES                           PRECINCT 102                                           01 
01070060003000019          Railroad Commissioner JONES COUNTYWIDE                  UNDER VOTES                           PRECINCT 103                                           01 
01070060004000067          Railroad Commissioner JONES COUNTYWIDE                  UNDER VOTES                           PRECINCT 201                                           01 
01070060005000015          Railroad Commissioner JONES COUNTYWIDE                  UNDER VOTES                           PRECINCT 202                                           01 
01070060006000007          Railroad Commissioner JONES COUNTYWIDE                  UNDER VOTES                           PRECINCT 203                                           01 
01070060007000005          Railroad Commissioner JONES COUNTYWIDE                  UNDER VOTES                           PRECINCT 301                                           01 
01070060008000021          Railroad Commissioner JONES COUNTYWIDE                  UNDER VOTES                           PRECINCT 302                                           01 
01070060009000032          Railroad Commissioner JONES COUNTYWIDE                  UNDER VOTES                           PRECINCT 303                                           01 
01070060010000022          Railroad Commissioner JONES COUNTYWIDE                  UNDER VOTES                           PRECINCT 401                                           01 
01070060011000055          Railroad Commissioner JONES COUNTYWIDE                  UNDER VOTES                           PRECINCT 402                                           01 
01080010001000550REP       Railroad Commissioner, UNEXP JONES COUNTYWIDE           Barry Smitherman                      PRECINCT 101                                           01 
01080010002000067REP       Railroad Commissioner, UNEXP JONES COUNTYWIDE           Barry Smitherman                      PRECINCT 102                                           01 
01080010003000174REP       Railroad Commissioner, UNEXP JONES COUNTYWIDE           Barry Smitherman                      PRECINCT 103                                           01 
01080010004000598REP       Railroad Commissioner, UNEXP JONES COUNTYWIDE           Barry Smitherman                      PRECINCT 201                                           01 
01080010005000118REP       Railroad Commissioner, UNEXP JONES COUNTYWIDE           Barry Smitherman                      PRECINCT 202                                           01 
01080010006000121REP       Railroad Commissioner, UNEXP JONES COUNTYWIDE           Barry Smitherman                      PRECINCT 203                                           01 
01080010007000130REP       Railroad Commissioner, UNEXP JONES COUNTYWIDE           Barry Smitherman                      PRECINCT 301                                           01 
01080010008000520REP       Railroad Commissioner, UNEXP JONES COUNTYWIDE           Barry Smitherman                      PRECINCT 302                                           01 
01080010009000534REP       Railroad Commissioner, UNEXP JONES COUNTYWIDE           Barry Smitherman                      PRECINCT 303                                           01 
01080010010000670REP       Railroad Commissioner, UNEXP JONES COUNTYWIDE           Barry Smitherman                      PRECINCT 401                                           01 
01080010011000543REP       Railroad Commissioner, UNEXP JONES COUNTYWIDE           Barry Smitherman                      PRECINCT 402                                           01 
01080020001000064LIB       Railroad Commissioner, UNEXP JONES COUNTYWIDE           Jaime O. Perez                        PRECINCT 101                                           01 
01080020002000022LIB       Railroad Commissioner, UNEXP JONES COUNTYWIDE           Jaime O. Perez                        PRECINCT 102                                           01 
01080020003000054LIB       Railroad Commissioner, UNEXP JONES COUNTYWIDE           Jaime O. Perez                        PRECINCT 103                                           01 
01080020004000109LIB       Railroad Commissioner, UNEXP JONES COUNTYWIDE           Jaime O. Perez                        PRECINCT 201                                           01 
01080020005000023LIB       Railroad Commissioner, UNEXP JONES COUNTYWIDE           Jaime O. Perez                        PRECINCT 202                                           01 
01080020006000014LIB       Railroad Commissioner, UNEXP JONES COUNTYWIDE           Jaime O. Perez                        PRECINCT 203                                           01 
01080020007000013LIB       Railroad Commissioner, UNEXP JONES COUNTYWIDE           Jaime O. Perez                        PRECINCT 301                                           01 
01080020008000042LIB       Railroad Commissioner, UNEXP JONES COUNTYWIDE           Jaime O. Perez                        PRECINCT 302                                           01 
01080020009000051LIB       Railroad Commissioner, UNEXP JONES COUNTYWIDE           Jaime O. Perez                        PRECINCT 303                                           01 
01080020010000056LIB       Railroad Commissioner, UNEXP JONES COUNTYWIDE           Jaime O. Perez                        PRECINCT 401                                           01 
01080020011000093LIB       Railroad Commissioner, UNEXP JONES COUNTYWIDE           Jaime O. Perez                        PRECINCT 402                                           01 
01080030001000017GRN       Railroad Commissioner, UNEXP JONES COUNTYWIDE           Josh Wendel                           PRECINCT 101                                           01 
01080030002000007GRN       Railroad Commissioner, UNEXP JONES COUNTYWIDE           Josh Wendel                           PRECINCT 102                                           01 
01080030003000015GRN       Railroad Commissioner, UNEXP JONES COUNTYWIDE           Josh Wendel                           PRECINCT 103                                           01 
01080030004000033GRN       Railroad Commissioner, UNEXP JONES COUNTYWIDE           Josh Wendel                           PRECINCT 201                                           01 
01080030005000012GRN       Railroad Commissioner, UNEXP JONES COUNTYWIDE           Josh Wendel                           PRECINCT 202                                           01 
01080030006000009GRN       Railroad Commissioner, UNEXP JONES COUNTYWIDE           Josh Wendel                           PRECINCT 203                                           01 
01080030007000003GRN       Railroad Commissioner, UNEXP JONES COUNTYWIDE           Josh Wendel                           PRECINCT 301                                           01 
01080030008000019GRN       Railroad Commissioner, UNEXP JONES COUNTYWIDE           Josh Wendel                           PRECINCT 302                                           01 
01080030009000028GRN       Railroad Commissioner, UNEXP JONES COUNTYWIDE           Josh Wendel                           PRECINCT 303                                           01 
01080030010000022GRN       Railroad Commissioner, UNEXP JONES COUNTYWIDE           Josh Wendel                           PRECINCT 401                                           01 
01080030011000030GRN       Railroad Commissioner, UNEXP JONES COUNTYWIDE           Josh Wendel                           PRECINCT 402                                           01 
01080040001000000          Railroad Commissioner, UNEXP JONES COUNTYWIDE           OVER VOTES                            PRECINCT 101                                           01 
01080040002000000          Railroad Commissioner, UNEXP JONES COUNTYWIDE           OVER VOTES                            PRECINCT 102                                           01 
01080040003000000          Railroad Commissioner, UNEXP JONES COUNTYWIDE           OVER VOTES                            PRECINCT 103                                           01 
01080040004000000          Railroad Commissioner, UNEXP JONES COUNTYWIDE           OVER VOTES                            PRECINCT 201                                           01 
01080040005000000          Railroad Commissioner, UNEXP JONES COUNTYWIDE           OVER VOTES                            PRECINCT 202                                           01 
01080040006000000          Railroad Commissioner, UNEXP JONES COUNTYWIDE           OVER VOTES                            PRECINCT 203                                           01 
01080040007000000          Railroad Commissioner, UNEXP JONES COUNTYWIDE           OVER VOTES                            PRECINCT 301                                           01 
01080040008000000          Railroad Commissioner, UNEXP JONES COUNTYWIDE           OVER VOTES                            PRECINCT 302                                           01 
01080040009000000          Railroad Commissioner, UNEXP JONES COUNTYWIDE           OVER VOTES                            PRECINCT 303                                           01 
01080040010000000          Railroad Commissioner, UNEXP JONES COUNTYWIDE           OVER VOTES                            PRECINCT 401                                           01 
01080040011000000          Railroad Commissioner, UNEXP JONES COUNTYWIDE           OVER VOTES                            PRECINCT 402                                           01 
01080050001000123          Railroad Commissioner, UNEXP JONES COUNTYWIDE           UNDER VOTES                           PRECINCT 101                                           01 
01080050002000046          Railroad Commissioner, UNEXP JONES COUNTYWIDE           UNDER VOTES                           PRECINCT 102                                           01 
01080050003000076          Railroad Commissioner, UNEXP JONES COUNTYWIDE           UNDER VOTES                           PRECINCT 103                                           01 
01080050004000226          Railroad Commissioner, UNEXP JONES COUNTYWIDE           UNDER VOTES                           PRECINCT 201                                           01 
01080050005000031          Railroad Commissioner, UNEXP JONES COUNTYWIDE           UNDER VOTES                           PRECINCT 202                                           01 
01080050006000023          Railroad Commissioner, UNEXP JONES COUNTYWIDE           UNDER VOTES                           PRECINCT 203                                           01 
01080050007000010          Railroad Commissioner, UNEXP JONES COUNTYWIDE           UNDER VOTES                           PRECINCT 301                                           01 
01080050008000056          Railroad Commissioner, UNEXP JONES COUNTYWIDE           UNDER VOTES                           PRECINCT 302                                           01 
01080050009000072          Railroad Commissioner, UNEXP JONES COUNTYWIDE           UNDER VOTES                           PRECINCT 303                                           01 
01080050010000068          Railroad Commissioner, UNEXP JONES COUNTYWIDE           UNDER VOTES                           PRECINCT 401                                           01 
01080050011000125          Railroad Commissioner, UNEXP JONES COUNTYWIDE           UNDER VOTES                           PRECINCT 402                                           01 
01090010001000567REP       Justice, Supreme Court, Place 2 JONES COUNTYWIDE        Don Willett                           PRECINCT 101                                           01 
01090010002000070REP       Justice, Supreme Court, Place 2 JONES COUNTYWIDE        Don Willett                           PRECINCT 102                                           01 
01090010003000195REP       Justice, Supreme Court, Place 2 JONES COUNTYWIDE        Don Willett                           PRECINCT 103                                           01 
01090010004000628REP       Justice, Supreme Court, Place 2 JONES COUNTYWIDE        Don Willett                           PRECINCT 201                                           01 
01090010005000126REP       Justice, Supreme Court, Place 2 JONES COUNTYWIDE        Don Willett                           PRECINCT 202                                           01 
01090010006000123REP       Justice, Supreme Court, Place 2 JONES COUNTYWIDE        Don Willett                           PRECINCT 203                                           01 
01090010007000134REP       Justice, Supreme Court, Place 2 JONES COUNTYWIDE        Don Willett                           PRECINCT 301                                           01 
01090010008000529REP       Justice, Supreme Court, Place 2 JONES COUNTYWIDE        Don Willett                           PRECINCT 302                                           01 
01090010009000543REP       Justice, Supreme Court, Place 2 JONES COUNTYWIDE        Don Willett                           PRECINCT 303                                           01 
01090010010000682REP       Justice, Supreme Court, Place 2 JONES COUNTYWIDE        Don Willett                           PRECINCT 401                                           01 
01090010011000577REP       Justice, Supreme Court, Place 2 JONES COUNTYWIDE        Don Willett                           PRECINCT 402                                           01 
01090020001000057LIB       Justice, Supreme Court, Place 2 JONES COUNTYWIDE        RS Roberto Koelsch                    PRECINCT 101                                           01 
01090020002000025LIB       Justice, Supreme Court, Place 2 JONES COUNTYWIDE        RS Roberto Koelsch                    PRECINCT 102                                           01 
01090020003000044LIB       Justice, Supreme Court, Place 2 JONES COUNTYWIDE        RS Roberto Koelsch                    PRECINCT 103                                           01 
01090020004000111LIB       Justice, Supreme Court, Place 2 JONES COUNTYWIDE        RS Roberto Koelsch                    PRECINCT 201                                           01 
01090020005000024LIB       Justice, Supreme Court, Place 2 JONES COUNTYWIDE        RS Roberto Koelsch                    PRECINCT 202                                           01 
01090020006000018LIB       Justice, Supreme Court, Place 2 JONES COUNTYWIDE        RS Roberto Koelsch                    PRECINCT 203                                           01 
01090020007000012LIB       Justice, Supreme Court, Place 2 JONES COUNTYWIDE        RS Roberto Koelsch                    PRECINCT 301                                           01 
01090020008000046LIB       Justice, Supreme Court, Place 2 JONES COUNTYWIDE        RS Roberto Koelsch                    PRECINCT 302                                           01 
01090020009000068LIB       Justice, Supreme Court, Place 2 JONES COUNTYWIDE        RS Roberto Koelsch                    PRECINCT 303                                           01 
01090020010000063LIB       Justice, Supreme Court, Place 2 JONES COUNTYWIDE        RS Roberto Koelsch                    PRECINCT 401                                           01 
01090020011000083LIB       Justice, Supreme Court, Place 2 JONES COUNTYWIDE        RS Roberto Koelsch                    PRECINCT 402                                           01 
01090030001000000          Justice, Supreme Court, Place 2 JONES COUNTYWIDE        OVER VOTES                            PRECINCT 101                                           01 
01090030002000000          Justice, Supreme Court, Place 2 JONES COUNTYWIDE        OVER VOTES                            PRECINCT 102                                           01 
01090030003000000          Justice, Supreme Court, Place 2 JONES COUNTYWIDE        OVER VOTES                            PRECINCT 103                                           01 
01090030004000000          Justice, Supreme Court, Place 2 JONES COUNTYWIDE        OVER VOTES                            PRECINCT 201                                           01 
01090030005000000          Justice, Supreme Court, Place 2 JONES COUNTYWIDE        OVER VOTES                            PRECINCT 202                                           01 
01090030006000000          Justice, Supreme Court, Place 2 JONES COUNTYWIDE        OVER VOTES                            PRECINCT 203                                           01 
01090030007000000          Justice, Supreme Court, Place 2 JONES COUNTYWIDE        OVER VOTES                            PRECINCT 301                                           01 
01090030008000000          Justice, Supreme Court, Place 2 JONES COUNTYWIDE        OVER VOTES                            PRECINCT 302                                           01 
01090030009000000          Justice, Supreme Court, Place 2 JONES COUNTYWIDE        OVER VOTES                            PRECINCT 303                                           01 
01090030010000000          Justice, Supreme Court, Place 2 JONES COUNTYWIDE        OVER VOTES                            PRECINCT 401                                           01 
01090030011000000          Justice, Supreme Court, Place 2 JONES COUNTYWIDE        OVER VOTES                            PRECINCT 402                                           01 
01090040001000130          Justice, Supreme Court, Place 2 JONES COUNTYWIDE        UNDER VOTES                           PRECINCT 101                                           01 
01090040002000047          Justice, Supreme Court, Place 2 JONES COUNTYWIDE        UNDER VOTES                           PRECINCT 102                                           01 
01090040003000080          Justice, Supreme Court, Place 2 JONES COUNTYWIDE        UNDER VOTES                           PRECINCT 103                                           01 
01090040004000227          Justice, Supreme Court, Place 2 JONES COUNTYWIDE        UNDER VOTES                           PRECINCT 201                                           01 
01090040005000034          Justice, Supreme Court, Place 2 JONES COUNTYWIDE        UNDER VOTES                           PRECINCT 202                                           01 
01090040006000026          Justice, Supreme Court, Place 2 JONES COUNTYWIDE        UNDER VOTES                           PRECINCT 203                                           01 
01090040007000010          Justice, Supreme Court, Place 2 JONES COUNTYWIDE        UNDER VOTES                           PRECINCT 301                                           01 
01090040008000062          Justice, Supreme Court, Place 2 JONES COUNTYWIDE        UNDER VOTES                           PRECINCT 302                                           01 
01090040009000074          Justice, Supreme Court, Place 2 JONES COUNTYWIDE        UNDER VOTES                           PRECINCT 303                                           01 
01090040010000071          Justice, Supreme Court, Place 2 JONES COUNTYWIDE        UNDER VOTES                           PRECINCT 401                                           01 
01090040011000131          Justice, Supreme Court, Place 2 JONES COUNTYWIDE        UNDER VOTES                           PRECINCT 402                                           01 
01100010001000556REP       Justice, Supreme Court, Place 4 JONES COUNTYWIDE        John Devine                           PRECINCT 101                                           01 
01100010002000066REP       Justice, Supreme Court, Place 4 JONES COUNTYWIDE        John Devine                           PRECINCT 102                                           01 
01100010003000182REP       Justice, Supreme Court, Place 4 JONES COUNTYWIDE        John Devine                           PRECINCT 103                                           01 
01100010004000606REP       Justice, Supreme Court, Place 4 JONES COUNTYWIDE        John Devine                           PRECINCT 201                                           01 
01100010005000117REP       Justice, Supreme Court, Place 4 JONES COUNTYWIDE        John Devine                           PRECINCT 202                                           01 
01100010006000119REP       Justice, Supreme Court, Place 4 JONES COUNTYWIDE        John Devine                           PRECINCT 203                                           01 
01100010007000127REP       Justice, Supreme Court, Place 4 JONES COUNTYWIDE        John Devine                           PRECINCT 301                                           01 
01100010008000520REP       Justice, Supreme Court, Place 4 JONES COUNTYWIDE        John Devine                           PRECINCT 302                                           01 
01100010009000531REP       Justice, Supreme Court, Place 4 JONES COUNTYWIDE        John Devine                           PRECINCT 303                                           01 
01100010010000661REP       Justice, Supreme Court, Place 4 JONES COUNTYWIDE        John Devine                           PRECINCT 401                                           01 
01100010011000549REP       Justice, Supreme Court, Place 4 JONES COUNTYWIDE        John Devine                           PRECINCT 402                                           01 
01100020001000058LIB       Justice, Supreme Court, Place 4 JONES COUNTYWIDE        Tom Oxford                            PRECINCT 101                                           01 
01100020002000020LIB       Justice, Supreme Court, Place 4 JONES COUNTYWIDE        Tom Oxford                            PRECINCT 102                                           01 
01100020003000042LIB       Justice, Supreme Court, Place 4 JONES COUNTYWIDE        Tom Oxford                            PRECINCT 103                                           01 
01100020004000101LIB       Justice, Supreme Court, Place 4 JONES COUNTYWIDE        Tom Oxford                            PRECINCT 201                                           01 
01100020005000026LIB       Justice, Supreme Court, Place 4 JONES COUNTYWIDE        Tom Oxford                            PRECINCT 202                                           01 
01100020006000014LIB       Justice, Supreme Court, Place 4 JONES COUNTYWIDE        Tom Oxford                            PRECINCT 203                                           01 
01100020007000015LIB       Justice, Supreme Court, Place 4 JONES COUNTYWIDE        Tom Oxford                            PRECINCT 301                                           01 
01100020008000040LIB       Justice, Supreme Court, Place 4 JONES COUNTYWIDE        Tom Oxford                            PRECINCT 302                                           01 
01100020009000071LIB       Justice, Supreme Court, Place 4 JONES COUNTYWIDE        Tom Oxford                            PRECINCT 303                                           01 
01100020010000061LIB       Justice, Supreme Court, Place 4 JONES COUNTYWIDE        Tom Oxford                            PRECINCT 401                                           01 
01100020011000079LIB       Justice, Supreme Court, Place 4 JONES COUNTYWIDE        Tom Oxford                            PRECINCT 402                                           01 
01100030001000018GRN       Justice, Supreme Court, Place 4 JONES COUNTYWIDE        Charles E. Waterbury                  PRECINCT 101                                           01 
01100030002000008GRN       Justice, Supreme Court, Place 4 JONES COUNTYWIDE        Charles E. Waterbury                  PRECINCT 102                                           01 
01100030003000019GRN       Justice, Supreme Court, Place 4 JONES COUNTYWIDE        Charles E. Waterbury                  PRECINCT 103                                           01 
01100030004000037GRN       Justice, Supreme Court, Place 4 JONES COUNTYWIDE        Charles E. Waterbury                  PRECINCT 201                                           01 
01100030005000009GRN       Justice, Supreme Court, Place 4 JONES COUNTYWIDE        Charles E. Waterbury                  PRECINCT 202                                           01 
01100030006000009GRN       Justice, Supreme Court, Place 4 JONES COUNTYWIDE        Charles E. Waterbury                  PRECINCT 203                                           01 
01100030007000005GRN       Justice, Supreme Court, Place 4 JONES COUNTYWIDE        Charles E. Waterbury                  PRECINCT 301                                           01 
01100030008000017GRN       Justice, Supreme Court, Place 4 JONES COUNTYWIDE        Charles E. Waterbury                  PRECINCT 302                                           01 
01100030009000018GRN       Justice, Supreme Court, Place 4 JONES COUNTYWIDE        Charles E. Waterbury                  PRECINCT 303                                           01 
01100030010000026GRN       Justice, Supreme Court, Place 4 JONES COUNTYWIDE        Charles E. Waterbury                  PRECINCT 401                                           01 
01100030011000029GRN       Justice, Supreme Court, Place 4 JONES COUNTYWIDE        Charles E. Waterbury                  PRECINCT 402                                           01 
01100040001000000          Justice, Supreme Court, Place 4 JONES COUNTYWIDE        OVER VOTES                            PRECINCT 101                                           01 
01100040002000000          Justice, Supreme Court, Place 4 JONES COUNTYWIDE        OVER VOTES                            PRECINCT 102                                           01 
01100040003000000          Justice, Supreme Court, Place 4 JONES COUNTYWIDE        OVER VOTES                            PRECINCT 103                                           01 
01100040004000000          Justice, Supreme Court, Place 4 JONES COUNTYWIDE        OVER VOTES                            PRECINCT 201                                           01 
01100040005000000          Justice, Supreme Court, Place 4 JONES COUNTYWIDE        OVER VOTES                            PRECINCT 202                                           01 
01100040006000000          Justice, Supreme Court, Place 4 JONES COUNTYWIDE        OVER VOTES                            PRECINCT 203                                           01 
01100040007000000          Justice, Supreme Court, Place 4 JONES COUNTYWIDE        OVER VOTES                            PRECINCT 301                                           01 
01100040008000000          Justice, Supreme Court, Place 4 JONES COUNTYWIDE        OVER VOTES                            PRECINCT 302                                           01 
01100040009000000          Justice, Supreme Court, Place 4 JONES COUNTYWIDE        OVER VOTES                            PRECINCT 303                                           01 
01100040010000000          Justice, Supreme Court, Place 4 JONES COUNTYWIDE        OVER VOTES                            PRECINCT 401                                           01 
01100040011000000          Justice, Supreme Court, Place 4 JONES COUNTYWIDE        OVER VOTES                            PRECINCT 402                                           01 
01100050001000122          Justice, Supreme Court, Place 4 JONES COUNTYWIDE        UNDER VOTES                           PRECINCT 101                                           01 
01100050002000048          Justice, Supreme Court, Place 4 JONES COUNTYWIDE        UNDER VOTES                           PRECINCT 102                                           01 
01100050003000076          Justice, Supreme Court, Place 4 JONES COUNTYWIDE        UNDER VOTES                           PRECINCT 103                                           01 
01100050004000222          Justice, Supreme Court, Place 4 JONES COUNTYWIDE        UNDER VOTES                           PRECINCT 201                                           01 
01100050005000032          Justice, Supreme Court, Place 4 JONES COUNTYWIDE        UNDER VOTES                           PRECINCT 202                                           01 
01100050006000025          Justice, Supreme Court, Place 4 JONES COUNTYWIDE        UNDER VOTES                           PRECINCT 203                                           01 
01100050007000009          Justice, Supreme Court, Place 4 JONES COUNTYWIDE        UNDER VOTES                           PRECINCT 301                                           01 
01100050008000060          Justice, Supreme Court, Place 4 JONES COUNTYWIDE        UNDER VOTES                           PRECINCT 302                                           01 
01100050009000065          Justice, Supreme Court, Place 4 JONES COUNTYWIDE        UNDER VOTES                           PRECINCT 303                                           01 
01100050010000068          Justice, Supreme Court, Place 4 JONES COUNTYWIDE        UNDER VOTES                           PRECINCT 401                                           01 
01100050011000134          Justice, Supreme Court, Place 4 JONES COUNTYWIDE        UNDER VOTES                           PRECINCT 402                                           01 
01110010001000519REP       Justice, Supreme Court, Place 6 JONES COUNTYWIDE        Nathan Hecht                          PRECINCT 101                                           01 
01110010002000057REP       Justice, Supreme Court, Place 6 JONES COUNTYWIDE        Nathan Hecht                          PRECINCT 102                                           01 
01110010003000152REP       Justice, Supreme Court, Place 6 JONES COUNTYWIDE        Nathan Hecht                          PRECINCT 103                                           01 
01110010004000523REP       Justice, Supreme Court, Place 6 JONES COUNTYWIDE        Nathan Hecht                          PRECINCT 201                                           01 
01110010005000100REP       Justice, Supreme Court, Place 6 JONES COUNTYWIDE        Nathan Hecht                          PRECINCT 202                                           01 
01110010006000108REP       Justice, Supreme Court, Place 6 JONES COUNTYWIDE        Nathan Hecht                          PRECINCT 203                                           01 
01110010007000115REP       Justice, Supreme Court, Place 6 JONES COUNTYWIDE        Nathan Hecht                          PRECINCT 301                                           01 
01110010008000492REP       Justice, Supreme Court, Place 6 JONES COUNTYWIDE        Nathan Hecht                          PRECINCT 302                                           01 
01110010009000499REP       Justice, Supreme Court, Place 6 JONES COUNTYWIDE        Nathan Hecht                          PRECINCT 303                                           01 
01110010010000616REP       Justice, Supreme Court, Place 6 JONES COUNTYWIDE        Nathan Hecht                          PRECINCT 401                                           01 
01110010011000473REP       Justice, Supreme Court, Place 6 JONES COUNTYWIDE        Nathan Hecht                          PRECINCT 402                                           01 
01110020001000191DEM       Justice, Supreme Court, Place 6 JONES COUNTYWIDE        Michele Petty                         PRECINCT 101                                           01 
01110020002000074DEM       Justice, Supreme Court, Place 6 JONES COUNTYWIDE        Michele Petty                         PRECINCT 102                                           01 
01110020003000120DEM       Justice, Supreme Court, Place 6 JONES COUNTYWIDE        Michele Petty                         PRECINCT 103                                           01 
01110020004000320DEM       Justice, Supreme Court, Place 6 JONES COUNTYWIDE        Michele Petty                         PRECINCT 201                                           01 
01110020005000056DEM       Justice, Supreme Court, Place 6 JONES COUNTYWIDE        Michele Petty                         PRECINCT 202                                           01 
01110020006000046DEM       Justice, Supreme Court, Place 6 JONES COUNTYWIDE        Michele Petty                         PRECINCT 203                                           01 
01110020007000025DEM       Justice, Supreme Court, Place 6 JONES COUNTYWIDE        Michele Petty                         PRECINCT 301                                           01 
01110020008000092DEM       Justice, Supreme Court, Place 6 JONES COUNTYWIDE        Michele Petty                         PRECINCT 302                                           01 
01110020009000116DEM       Justice, Supreme Court, Place 6 JONES COUNTYWIDE        Michele Petty                         PRECINCT 303                                           01 
01110020010000126DEM       Justice, Supreme Court, Place 6 JONES COUNTYWIDE        Michele Petty                         PRECINCT 401                                           01 
01110020011000215DEM       Justice, Supreme Court, Place 6 JONES COUNTYWIDE        Michele Petty                         PRECINCT 402                                           01 
01110030001000012LIB       Justice, Supreme Court, Place 6 JONES COUNTYWIDE        Mark Ash                              PRECINCT 101                                           01 
01110030002000004LIB       Justice, Supreme Court, Place 6 JONES COUNTYWIDE        Mark Ash                              PRECINCT 102                                           01 
01110030003000011LIB       Justice, Supreme Court, Place 6 JONES COUNTYWIDE        Mark Ash                              PRECINCT 103                                           01 
01110030004000034LIB       Justice, Supreme Court, Place 6 JONES COUNTYWIDE        Mark Ash                              PRECINCT 201                                           01 
01110030005000008LIB       Justice, Supreme Court, Place 6 JONES COUNTYWIDE        Mark Ash                              PRECINCT 202                                           01 
01110030006000003LIB       Justice, Supreme Court, Place 6 JONES COUNTYWIDE        Mark Ash                              PRECINCT 203                                           01 
01110030007000007LIB       Justice, Supreme Court, Place 6 JONES COUNTYWIDE        Mark Ash                              PRECINCT 301                                           01 
01110030008000015LIB       Justice, Supreme Court, Place 6 JONES COUNTYWIDE        Mark Ash                              PRECINCT 302                                           01 
01110030009000021LIB       Justice, Supreme Court, Place 6 JONES COUNTYWIDE        Mark Ash                              PRECINCT 303                                           01 
01110030010000028LIB       Justice, Supreme Court, Place 6 JONES COUNTYWIDE        Mark Ash                              PRECINCT 401                                           01 
01110030011000027LIB       Justice, Supreme Court, Place 6 JONES COUNTYWIDE        Mark Ash                              PRECINCT 402                                           01 
01110040001000006GRN       Justice, Supreme Court, Place 6 JONES COUNTYWIDE        Jim Chisholm                          PRECINCT 101                                           01 
01110040002000000GRN       Justice, Supreme Court, Place 6 JONES COUNTYWIDE        Jim Chisholm                          PRECINCT 102                                           01 
01110040003000008GRN       Justice, Supreme Court, Place 6 JONES COUNTYWIDE        Jim Chisholm                          PRECINCT 103                                           01 
01110040004000011GRN       Justice, Supreme Court, Place 6 JONES COUNTYWIDE        Jim Chisholm                          PRECINCT 201                                           01 
01110040005000003GRN       Justice, Supreme Court, Place 6 JONES COUNTYWIDE        Jim Chisholm                          PRECINCT 202                                           01 
01110040006000002GRN       Justice, Supreme Court, Place 6 JONES COUNTYWIDE        Jim Chisholm                          PRECINCT 203                                           01 
01110040007000002GRN       Justice, Supreme Court, Place 6 JONES COUNTYWIDE        Jim Chisholm                          PRECINCT 301                                           01 
01110040008000010GRN       Justice, Supreme Court, Place 6 JONES COUNTYWIDE        Jim Chisholm                          PRECINCT 302                                           01 
01110040009000012GRN       Justice, Supreme Court, Place 6 JONES COUNTYWIDE        Jim Chisholm                          PRECINCT 303                                           01 
01110040010000018GRN       Justice, Supreme Court, Place 6 JONES COUNTYWIDE        Jim Chisholm                          PRECINCT 401                                           01 
01110040011000019GRN       Justice, Supreme Court, Place 6 JONES COUNTYWIDE        Jim Chisholm                          PRECINCT 402                                           01 
01110050001000000          Justice, Supreme Court, Place 6 JONES COUNTYWIDE        OVER VOTES                            PRECINCT 101                                           01 
01110050002000000          Justice, Supreme Court, Place 6 JONES COUNTYWIDE        OVER VOTES                            PRECINCT 102                                           01 
01110050003000000          Justice, Supreme Court, Place 6 JONES COUNTYWIDE        OVER VOTES                            PRECINCT 103                                           01 
01110050004000000          Justice, Supreme Court, Place 6 JONES COUNTYWIDE        OVER VOTES                            PRECINCT 201                                           01 
01110050005000000          Justice, Supreme Court, Place 6 JONES COUNTYWIDE        OVER VOTES                            PRECINCT 202                                           01 
01110050006000000          Justice, Supreme Court, Place 6 JONES COUNTYWIDE        OVER VOTES                            PRECINCT 203                                           01 
01110050007000000          Justice, Supreme Court, Place 6 JONES COUNTYWIDE        OVER VOTES                            PRECINCT 301                                           01 
01110050008000000          Justice, Supreme Court, Place 6 JONES COUNTYWIDE        OVER VOTES                            PRECINCT 302                                           01 
01110050009000000          Justice, Supreme Court, Place 6 JONES COUNTYWIDE        OVER VOTES                            PRECINCT 303                                           01 
01110050010000000          Justice, Supreme Court, Place 6 JONES COUNTYWIDE        OVER VOTES                            PRECINCT 401                                           01 
01110050011000000          Justice, Supreme Court, Place 6 JONES COUNTYWIDE        OVER VOTES                            PRECINCT 402                                           01 
01110060001000027          Justice, Supreme Court, Place 6 JONES COUNTYWIDE        UNDER VOTES                           PRECINCT 101                                           01 
01110060002000007          Justice, Supreme Court, Place 6 JONES COUNTYWIDE        UNDER VOTES                           PRECINCT 102                                           01 
