01010010001000915000000000000000000000000000000          REGISTERED VOTERS - TOTAL                               REGISTERED VOTERS - TOTAL             PRECINCT 1A3B                                          00 
01010010002001699000000000000000000000000000000          REGISTERED VOTERS - TOTAL                               REGISTERED VOTERS - TOTAL             PRECINCT 1A5A                                          00 
01010010003000176000000000000000000000000000000          REGISTERED VOTERS - TOTAL                               REGISTERED VOTERS - TOTAL             PRECINCT 1B                                            00 
01010010004000252000000000000000000000000000000          REGISTERED VOTERS - TOTAL                               REGISTERED VOTERS - TOTAL             PRECINCT 1C                                            00 
01010010005000602000000000000000000000000000000          REGISTERED VOTERS - TOTAL                               REGISTERED VOTERS - TOTAL             PRECINCT 1D                                            00 
01010010006000618000000000000000000000000000000          REGISTERED VOTERS - TOTAL                               REGISTERED VOTERS - TOTAL             PRECINCT 1E                                            00 
01010010007000950000000000000000000000000000000          REGISTERED VOTERS - TOTAL                               REGISTERED VOTERS - TOTAL             PRECINCT 1E7C                                          00 
01010010008000730000000000000000000000000000000          REGISTERED VOTERS - TOTAL                               REGISTERED VOTERS - TOTAL             PRECINCT 1F                                            00 
01010010009000519000000000000000000000000000000          REGISTERED VOTERS - TOTAL                               REGISTERED VOTERS - TOTAL             PRECINCT 1G                                            00 
01010010010000441000000000000000000000000000000          REGISTERED VOTERS - TOTAL                               REGISTERED VOTERS - TOTAL             PRECINCT 1H                                            00 
01010010011000125000000000000000000000000000000          REGISTERED VOTERS - TOTAL                               REGISTERED VOTERS - TOTAL             PRECINCT 1I                                            00 
01010010012001311000000000000000000000000000000          REGISTERED VOTERS - TOTAL                               REGISTERED VOTERS - TOTAL             PRECINCT 2A1A                                          00 
01010010013001673000000000000000000000000000000          REGISTERED VOTERS - TOTAL                               REGISTERED VOTERS - TOTAL             PRECINCT 2B2A                                          00 
01010010014001547000000000000000000000000000000          REGISTERED VOTERS - TOTAL                               REGISTERED VOTERS - TOTAL             PRECINCT 2C3A                                          00 
01010010015000667000000000000000000000000000000          REGISTERED VOTERS - TOTAL                               REGISTERED VOTERS - TOTAL             PRECINCT 2D                                            00 
01010010016000516000000000000000000000000000000          REGISTERED VOTERS - TOTAL                               REGISTERED VOTERS - TOTAL             PRECINCT 2E                                            00 
01010010017000161000000000000000000000000000000          REGISTERED VOTERS - TOTAL                               REGISTERED VOTERS - TOTAL             PRECINCT 2F                                            00 
01010010018000274000000000000000000000000000000          REGISTERED VOTERS - TOTAL                               REGISTERED VOTERS - TOTAL             PRECINCT 2G                                            00 
01010010019000275000000000000000000000000000000          REGISTERED VOTERS - TOTAL                               REGISTERED VOTERS - TOTAL             PRECINCT 2H                                            00 
01010010020002795000000000000000000000000000000          REGISTERED VOTERS - TOTAL                               REGISTERED VOTERS - TOTAL             PRECINCT 3C7G                                          00 
01010010021000696000000000000000000000000000000          REGISTERED VOTERS - TOTAL                               REGISTERED VOTERS - TOTAL             PRECINCT 3D                                            00 
01010010022001000000000000000000000000000000000          REGISTERED VOTERS - TOTAL                               REGISTERED VOTERS - TOTAL             PRECINCT 3E                                            00 
01010010023000440000000000000000000000000000000          REGISTERED VOTERS - TOTAL                               REGISTERED VOTERS - TOTAL             PRECINCT 3F                                            00 
01010010024000521000000000000000000000000000000          REGISTERED VOTERS - TOTAL                               REGISTERED VOTERS - TOTAL             PRECINCT 3G                                            00 
01010010025000719000000000000000000000000000000          REGISTERED VOTERS - TOTAL                               REGISTERED VOTERS - TOTAL             PRECINCT 3H3C                                          00 
01010010026001073000000000000000000000000000000          REGISTERED VOTERS - TOTAL                               REGISTERED VOTERS - TOTAL             PRECINCT 3I                                            00 
01010010027001330000000000000000000000000000000          REGISTERED VOTERS - TOTAL                               REGISTERED VOTERS - TOTAL             PRECINCT 4A6E                                          00 
01010010028001574000000000000000000000000000000          REGISTERED VOTERS - TOTAL                               REGISTERED VOTERS - TOTAL             PRECINCT 4B                                            00 
01010010029000303000000000000000000000000000000          REGISTERED VOTERS - TOTAL                               REGISTERED VOTERS - TOTAL             PRECINCT 4C                                            00 
01010010030001265000000000000000000000000000000          REGISTERED VOTERS - TOTAL                               REGISTERED VOTERS - TOTAL             PRECINCT 4D                                            00 
01010010031000595000000000000000000000000000000          REGISTERED VOTERS - TOTAL                               REGISTERED VOTERS - TOTAL             PRECINCT 4E                                            00 
01010010032001553000000000000000000000000000000          REGISTERED VOTERS - TOTAL                               REGISTERED VOTERS - TOTAL             PRECINCT 4F                                            00 
01010010033001559000000000000000000000000000000          REGISTERED VOTERS - TOTAL                               REGISTERED VOTERS - TOTAL             PRECINCT 4G                                            00 
01020010001000491000259000033000199000000000000          BALLOTS CAST - TOTAL                                    BALLOTS CAST - TOTAL                  PRECINCT 1A3B                                          00 
01020010002000742000415000046000281000000000000          BALLOTS CAST - TOTAL                                    BALLOTS CAST - TOTAL                  PRECINCT 1A5A                                          00 
01020010003000129000040000009000080000000000000          BALLOTS CAST - TOTAL                                    BALLOTS CAST - TOTAL                  PRECINCT 1B                                            00 
01020010004000177000080000008000089000000000000          BALLOTS CAST - TOTAL                                    BALLOTS CAST - TOTAL                  PRECINCT 1C                                            00 
01020010005000366000198000013000155000000000000          BALLOTS CAST - TOTAL                                    BALLOTS CAST - TOTAL                  PRECINCT 1D                                            00 
01020010006000422000137000014000271000000000000          BALLOTS CAST - TOTAL                                    BALLOTS CAST - TOTAL                  PRECINCT 1E                                            00 
01020010007000688000430000076000182000000000000          BALLOTS CAST - TOTAL                                    BALLOTS CAST - TOTAL                  PRECINCT 1E7C                                          00 
01020010008000499000166000021000312000000000000          BALLOTS CAST - TOTAL                                    BALLOTS CAST - TOTAL                  PRECINCT 1F                                            00 
01020010009000291000069000023000199000000000000          BALLOTS CAST - TOTAL                                    BALLOTS CAST - TOTAL                  PRECINCT 1G                                            00 
01020010010000275000114000007000154000000000000          BALLOTS CAST - TOTAL                                    BALLOTS CAST - TOTAL                  PRECINCT 1H                                            00 
01020010011000073000015000000000058000000000000          BALLOTS CAST - TOTAL                                    BALLOTS CAST - TOTAL                  PRECINCT 1I                                            00 
01020010012000622000340000034000248000000000000          BALLOTS CAST - TOTAL                                    BALLOTS CAST - TOTAL                  PRECINCT 2A1A                                          00 
01020010013000644000343000021000280000000000000          BALLOTS CAST - TOTAL                                    BALLOTS CAST - TOTAL                  PRECINCT 2B2A                                          00 
01020010014000748000376000040000332000000000000          BALLOTS CAST - TOTAL                                    BALLOTS CAST - TOTAL                  PRECINCT 2C3A                                          00 
01020010015000373000073000019000281000000000000          BALLOTS CAST - TOTAL                                    BALLOTS CAST - TOTAL                  PRECINCT 2D                                            00 
01020010016000339000118000020000201000000000000          BALLOTS CAST - TOTAL                                    BALLOTS CAST - TOTAL                  PRECINCT 2E                                            00 
01020010017000090000026000003000061000000000000          BALLOTS CAST - TOTAL                                    BALLOTS CAST - TOTAL                  PRECINCT 2F                                            00 
01020010018000180000062000005000113000000000000          BALLOTS CAST - TOTAL                                    BALLOTS CAST - TOTAL                  PRECINCT 2G                                            00 
01020010019000145000084000008000053000000000000          BALLOTS CAST - TOTAL                                    BALLOTS CAST - TOTAL                  PRECINCT 2H                                            00 
01020010020001708001002000150000556000000000000          BALLOTS CAST - TOTAL                                    BALLOTS CAST - TOTAL                  PRECINCT 3C7G                                          00 
01020010021000451000137000027000287000000000000          BALLOTS CAST - TOTAL                                    BALLOTS CAST - TOTAL                  PRECINCT 3D                                            00 
01020010022000682000290000026000366000000000000          BALLOTS CAST - TOTAL                                    BALLOTS CAST - TOTAL                  PRECINCT 3E                                            00 
01020010023000317000102000012000203000000000000          BALLOTS CAST - TOTAL                                    BALLOTS CAST - TOTAL                  PRECINCT 3F                                            00 
01020010024000368000156000013000199000000000000          BALLOTS CAST - TOTAL                                    BALLOTS CAST - TOTAL                  PRECINCT 3G                                            00 
01020010025000380000217000041000122000000000000          BALLOTS CAST - TOTAL                                    BALLOTS CAST - TOTAL                  PRECINCT 3H3C                                          00 
01020010026000739000453000065000221000000000000          BALLOTS CAST - TOTAL                                    BALLOTS CAST - TOTAL                  PRECINCT 3I                                            00 
01020010027000893000514000078000301000000000000          BALLOTS CAST - TOTAL                                    BALLOTS CAST - TOTAL                  PRECINCT 4A6E                                          00 
01020010028000980000381000050000549000000000000          BALLOTS CAST - TOTAL                                    BALLOTS CAST - TOTAL                  PRECINCT 4B                                            00 
01020010029000189000055000004000130000000000000          BALLOTS CAST - TOTAL                                    BALLOTS CAST - TOTAL                  PRECINCT 4C                                            00 
01020010030000827000276000041000510000000000000          BALLOTS CAST - TOTAL                                    BALLOTS CAST - TOTAL                  PRECINCT 4D                                            00 
01020010031000409000155000017000237000000000000          BALLOTS CAST - TOTAL                                    BALLOTS CAST - TOTAL                  PRECINCT 4E                                            00 
01020010032000965000551000051000363000000000000          BALLOTS CAST - TOTAL                                    BALLOTS CAST - TOTAL                  PRECINCT 4F                                            00 
01020010033001092000659000056000377000000000000          BALLOTS CAST - TOTAL                                    BALLOTS CAST - TOTAL                  PRECINCT 4G                                            00 
01030010001000186000102000020000064000000000000REP       STRAIGHT PARTY                                          REPUBLICAN PARTY                      PRECINCT 1A3B                                          01 
01030010002000232000127000023000082000000000000REP       STRAIGHT PARTY                                          REPUBLICAN PARTY                      PRECINCT 1A5A                                          01 
01030010003000043000013000004000026000000000000REP       STRAIGHT PARTY                                          REPUBLICAN PARTY                      PRECINCT 1B                                            01 
01030010004000082000041000003000038000000000000REP       STRAIGHT PARTY                                          REPUBLICAN PARTY                      PRECINCT 1C                                            01 
01030010005000184000104000008000072000000000000REP       STRAIGHT PARTY                                          REPUBLICAN PARTY                      PRECINCT 1D                                            01 
01030010006000179000064000004000111000000000000REP       STRAIGHT PARTY                                          REPUBLICAN PARTY                      PRECINCT 1E                                            01 
01030010007000303000198000032000073000000000000REP       STRAIGHT PARTY                                          REPUBLICAN PARTY                      PRECINCT 1E7C                                          01 
01030010008000215000089000009000117000000000000REP       STRAIGHT PARTY                                          REPUBLICAN PARTY                      PRECINCT 1F                                            01 
01030010009000123000044000009000070000000000000REP       STRAIGHT PARTY                                          REPUBLICAN PARTY                      PRECINCT 1G                                            01 
01030010010000110000056000001000053000000000000REP       STRAIGHT PARTY                                          REPUBLICAN PARTY                      PRECINCT 1H                                            01 
01030010011000026000008000000000018000000000000REP       STRAIGHT PARTY                                          REPUBLICAN PARTY                      PRECINCT 1I                                            01 
01030010012000094000047000008000039000000000000REP       STRAIGHT PARTY                                          REPUBLICAN PARTY                      PRECINCT 2A1A                                          01 
01030010013000101000057000005000039000000000000REP       STRAIGHT PARTY                                          REPUBLICAN PARTY                      PRECINCT 2B2A                                          01 
01030010014000274000142000020000112000000000000REP       STRAIGHT PARTY                                          REPUBLICAN PARTY                      PRECINCT 2C3A                                          01 
01030010015000122000032000005000085000000000000REP       STRAIGHT PARTY                                          REPUBLICAN PARTY                      PRECINCT 2D                                            01 
01030010016000146000050000010000086000000000000REP       STRAIGHT PARTY                                          REPUBLICAN PARTY                      PRECINCT 2E                                            01 
01030010017000050000016000002000032000000000000REP       STRAIGHT PARTY                                          REPUBLICAN PARTY                      PRECINCT 2F                                            01 
01030010018000072000033000003000036000000000000REP       STRAIGHT PARTY                                          REPUBLICAN PARTY                      PRECINCT 2G                                            01 
01030010019000045000026000005000014000000000000REP       STRAIGHT PARTY                                          REPUBLICAN PARTY                      PRECINCT 2H                                            01 
01030010020000682000400000088000194000000000000REP       STRAIGHT PARTY                                          REPUBLICAN PARTY                      PRECINCT 3C7G                                          01 
01030010021000201000060000018000123000000000000REP       STRAIGHT PARTY                                          REPUBLICAN PARTY                      PRECINCT 3D                                            01 
01030010022000305000136000011000158000000000000REP       STRAIGHT PARTY                                          REPUBLICAN PARTY                      PRECINCT 3E                                            01 
01030010023000154000049000010000095000000000000REP       STRAIGHT PARTY                                          REPUBLICAN PARTY                      PRECINCT 3F                                            01 
01030010024000174000075000006000093000000000000REP       STRAIGHT PARTY                                          REPUBLICAN PARTY                      PRECINCT 3G                                            01 
01030010025000189000115000018000056000000000000REP       STRAIGHT PARTY                                          REPUBLICAN PARTY                      PRECINCT 3H3C                                          01 
01030010026000345000225000031000089000000000000REP       STRAIGHT PARTY                                          REPUBLICAN PARTY                      PRECINCT 3I                                            01 
01030010027000405000222000049000134000000000000REP       STRAIGHT PARTY                                          REPUBLICAN PARTY                      PRECINCT 4A6E                                          01 
01030010028000452000182000026000244000000000000REP       STRAIGHT PARTY                                          REPUBLICAN PARTY                      PRECINCT 4B                                            01 
01030010029000075000024000002000049000000000000REP       STRAIGHT PARTY                                          REPUBLICAN PARTY                      PRECINCT 4C                                            01 
01030010030000419000157000021000241000000000000REP       STRAIGHT PARTY                                          REPUBLICAN PARTY                      PRECINCT 4D                                            01 
01030010031000202000096000010000096000000000000REP       STRAIGHT PARTY                                          REPUBLICAN PARTY                      PRECINCT 4E                                            01 
01030010032000474000277000036000161000000000000REP       STRAIGHT PARTY                                          REPUBLICAN PARTY                      PRECINCT 4F                                            01 
01030010033000530000338000029000163000000000000REP       STRAIGHT PARTY                                          REPUBLICAN PARTY                      PRECINCT 4G                                            01 
01030020001000129000083000000000046000000000000DEM       STRAIGHT PARTY                                          DEMOCRATIC PARTY                      PRECINCT 1A3B                                          01 
01030020002000210000127000008000075000000000000DEM       STRAIGHT PARTY                                          DEMOCRATIC PARTY                      PRECINCT 1A5A                                          01 
01030020003000010000001000000000009000000000000DEM       STRAIGHT PARTY                                          DEMOCRATIC PARTY                      PRECINCT 1B                                            01 
01030020004000007000004000000000003000000000000DEM       STRAIGHT PARTY                                          DEMOCRATIC PARTY                      PRECINCT 1C                                            01 
01030020005000039000017000001000021000000000000DEM       STRAIGHT PARTY                                          DEMOCRATIC PARTY                      PRECINCT 1D                                            01 
01030020006000034000011000000000023000000000000DEM       STRAIGHT PARTY                                          DEMOCRATIC PARTY                      PRECINCT 1E                                            01 
01030020007000066000048000003000015000000000000DEM       STRAIGHT PARTY                                          DEMOCRATIC PARTY                      PRECINCT 1E7C                                          01 
01030020008000026000006000002000018000000000000DEM       STRAIGHT PARTY                                          DEMOCRATIC PARTY                      PRECINCT 1F                                            01 
01030020009000022000002000001000019000000000000DEM       STRAIGHT PARTY                                          DEMOCRATIC PARTY                      PRECINCT 1G                                            01 
01030020010000019000009000000000010000000000000DEM       STRAIGHT PARTY                                          DEMOCRATIC PARTY                      PRECINCT 1H                                            01 
01030020011000004000002000000000002000000000000DEM       STRAIGHT PARTY                                          DEMOCRATIC PARTY                      PRECINCT 1I                                            01 
01030020012000380000220000012000148000000000000DEM       STRAIGHT PARTY                                          DEMOCRATIC PARTY                      PRECINCT 2A1A                                          01 
01030020013000393000214000011000168000000000000DEM       STRAIGHT PARTY                                          DEMOCRATIC PARTY                      PRECINCT 2B2A                                          01 
01030020014000232000131000005000096000000000000DEM       STRAIGHT PARTY                                          DEMOCRATIC PARTY                      PRECINCT 2C3A                                          01 
01030020015000078000015000004000059000000000000DEM       STRAIGHT PARTY                                          DEMOCRATIC PARTY                      PRECINCT 2D                                            01 
01030020016000016000008000001000007000000000000DEM       STRAIGHT PARTY                                          DEMOCRATIC PARTY                      PRECINCT 2E                                            01 
01030020017000008000002000000000006000000000000DEM       STRAIGHT PARTY                                          DEMOCRATIC PARTY                      PRECINCT 2F                                            01 
01030020018000026000002000000000024000000000000DEM       STRAIGHT PARTY                                          DEMOCRATIC PARTY                      PRECINCT 2G                                            01 
01030020019000036000019000000000017000000000000DEM       STRAIGHT PARTY                                          DEMOCRATIC PARTY                      PRECINCT 2H                                            01 
01030020020000288000163000019000106000000000000DEM       STRAIGHT PARTY                                          DEMOCRATIC PARTY                      PRECINCT 3C7G                                          01 
01030020021000041000011000001000029000000000000DEM       STRAIGHT PARTY                                          DEMOCRATIC PARTY                      PRECINCT 3D                                            01 
01030020022000019000007000000000012000000000000DEM       STRAIGHT PARTY                                          DEMOCRATIC PARTY                      PRECINCT 3E                                            01 
01030020023000017000004000000000013000000000000DEM       STRAIGHT PARTY                                          DEMOCRATIC PARTY                      PRECINCT 3F                                            01 
01030020024000037000021000000000016000000000000DEM       STRAIGHT PARTY                                          DEMOCRATIC PARTY                      PRECINCT 3G                                            01 
01030020025000080000051000007000022000000000000DEM       STRAIGHT PARTY                                          DEMOCRATIC PARTY                      PRECINCT 3H3C                                          01 
01030020026000041000024000001000016000000000000DEM       STRAIGHT PARTY                                          DEMOCRATIC PARTY                      PRECINCT 3I                                            01 
01030020027000099000055000005000039000000000000DEM       STRAIGHT PARTY                                          DEMOCRATIC PARTY                      PRECINCT 4A6E                                          01 
01030020028000087000037000002000048000000000000DEM       STRAIGHT PARTY                                          DEMOCRATIC PARTY                      PRECINCT 4B                                            01 
01030020029000033000008000000000025000000000000DEM       STRAIGHT PARTY                                          DEMOCRATIC PARTY                      PRECINCT 4C                                            01 
01030020030000051000017000004000030000000000000DEM       STRAIGHT PARTY                                          DEMOCRATIC PARTY                      PRECINCT 4D                                            01 
01030020031000036000006000000000030000000000000DEM       STRAIGHT PARTY                                          DEMOCRATIC PARTY                      PRECINCT 4E                                            01 
01030020032000091000049000003000039000000000000DEM       STRAIGHT PARTY                                          DEMOCRATIC PARTY                      PRECINCT 4F                                            01 
01030020033000066000042000008000016000000000000DEM       STRAIGHT PARTY                                          DEMOCRATIC PARTY                      PRECINCT 4G                                            01 
01030030001000002000001000000000001000000000000LIB       STRAIGHT PARTY                                          LIBERTARIAN PARTY                     PRECINCT 1A3B                                          01 
01030030002000004000001000000000003000000000000LIB       STRAIGHT PARTY                                          LIBERTARIAN PARTY                     PRECINCT 1A5A                                          01 
01030030003000001000000000000000001000000000000LIB       STRAIGHT PARTY                                          LIBERTARIAN PARTY                     PRECINCT 1B                                            01 
01030030004000000000000000000000000000000000000LIB       STRAIGHT PARTY                                          LIBERTARIAN PARTY                     PRECINCT 1C                                            01 
01030030005000003000001000000000002000000000000LIB       STRAIGHT PARTY                                          LIBERTARIAN PARTY                     PRECINCT 1D                                            01 
01030030006000004000002000000000002000000000000LIB       STRAIGHT PARTY                                          LIBERTARIAN PARTY                     PRECINCT 1E                                            01 
01030030007000002000001000001000000000000000000LIB       STRAIGHT PARTY                                          LIBERTARIAN PARTY                     PRECINCT 1E7C                                          01 
01030030008000001000000000000000001000000000000LIB       STRAIGHT PARTY                                          LIBERTARIAN PARTY                     PRECINCT 1F                                            01 
01030030009000002000000000000000002000000000000LIB       STRAIGHT PARTY                                          LIBERTARIAN PARTY                     PRECINCT 1G                                            01 
01030030010000004000001000000000003000000000000LIB       STRAIGHT PARTY                                          LIBERTARIAN PARTY                     PRECINCT 1H                                            01 
01030030011000000000000000000000000000000000000LIB       STRAIGHT PARTY                                          LIBERTARIAN PARTY                     PRECINCT 1I                                            01 
01030030012000001000000000001000000000000000000LIB       STRAIGHT PARTY                                          LIBERTARIAN PARTY                     PRECINCT 2A1A                                          01 
01030030013000006000001000000000005000000000000LIB       STRAIGHT PARTY                                          LIBERTARIAN PARTY                     PRECINCT 2B2A                                          01 
01030030014000002000001000000000001000000000000LIB       STRAIGHT PARTY                                          LIBERTARIAN PARTY                     PRECINCT 2C3A                                          01 
01030030015000001000000000000000001000000000000LIB       STRAIGHT PARTY                                          LIBERTARIAN PARTY                     PRECINCT 2D                                            01 
01030030016000000000000000000000000000000000000LIB       STRAIGHT PARTY                                          LIBERTARIAN PARTY                     PRECINCT 2E                                            01 
01030030017000001000000000000000001000000000000LIB       STRAIGHT PARTY                                          LIBERTARIAN PARTY                     PRECINCT 2F                                            01 
01030030018000001000000000001000000000000000000LIB       STRAIGHT PARTY                                          LIBERTARIAN PARTY                     PRECINCT 2G                                            01 
01030030019000001000000000000000001000000000000LIB       STRAIGHT PARTY                                          LIBERTARIAN PARTY                     PRECINCT 2H                                            01 
01030030020000002000001000000000001000000000000LIB       STRAIGHT PARTY                                          LIBERTARIAN PARTY                     PRECINCT 3C7G                                          01 
01030030021000000000000000000000000000000000000LIB       STRAIGHT PARTY                                          LIBERTARIAN PARTY                     PRECINCT 3D                                            01 
01030030022000002000000000000000002000000000000LIB       STRAIGHT PARTY                                          LIBERTARIAN PARTY                     PRECINCT 3E                                            01 
01030030023000002000000000000000002000000000000LIB       STRAIGHT PARTY                                          LIBERTARIAN PARTY                     PRECINCT 3F                                            01 
01030030024000000000000000000000000000000000000LIB       STRAIGHT PARTY                                          LIBERTARIAN PARTY                     PRECINCT 3G                                            01 
01030030025000000000000000000000000000000000000LIB       STRAIGHT PARTY                                          LIBERTARIAN PARTY                     PRECINCT 3H3C                                          01 
01030030026000006000003000000000003000000000000LIB       STRAIGHT PARTY                                          LIBERTARIAN PARTY                     PRECINCT 3I                                            01 
01030030027000002000002000000000000000000000000LIB       STRAIGHT PARTY                                          LIBERTARIAN PARTY                     PRECINCT 4A6E                                          01 
01030030028000009000001000001000007000000000000LIB       STRAIGHT PARTY                                          LIBERTARIAN PARTY                     PRECINCT 4B                                            01 
01030030029000000000000000000000000000000000000LIB       STRAIGHT PARTY                                          LIBERTARIAN PARTY                     PRECINCT 4C                                            01 
01030030030000006000002000001000003000000000000LIB       STRAIGHT PARTY                                          LIBERTARIAN PARTY                     PRECINCT 4D                                            01 
01030030031000002000001000000000001000000000000LIB       STRAIGHT PARTY                                          LIBERTARIAN PARTY                     PRECINCT 4E                                            01 
01030030032000004000000000000000004000000000000LIB       STRAIGHT PARTY                                          LIBERTARIAN PARTY                     PRECINCT 4F                                            01 
01030030033000002000000000000000002000000000000LIB       STRAIGHT PARTY                                          LIBERTARIAN PARTY                     PRECINCT 4G                                            01 
01030040001000001000000000000000001000000000000GRN       STRAIGHT PARTY                                          GREEN PARTY                           PRECINCT 1A3B                                          01 
01030040002000001000000000000000001000000000000GRN       STRAIGHT PARTY                                          GREEN PARTY                           PRECINCT 1A5A                                          01 
01030040003000001000001000000000000000000000000GRN       STRAIGHT PARTY                                          GREEN PARTY                           PRECINCT 1B                                            01 
01030040004000000000000000000000000000000000000GRN       STRAIGHT PARTY                                          GREEN PARTY                           PRECINCT 1C                                            01 
01030040005000000000000000000000000000000000000GRN       STRAIGHT PARTY                                          GREEN PARTY                           PRECINCT 1D                                            01 
01030040006000000000000000000000000000000000000GRN       STRAIGHT PARTY                                          GREEN PARTY                           PRECINCT 1E                                            01 
01030040007000000000000000000000000000000000000GRN       STRAIGHT PARTY                                          GREEN PARTY                           PRECINCT 1E7C                                          01 
01030040008000001000000000000000001000000000000GRN       STRAIGHT PARTY                                          GREEN PARTY                           PRECINCT 1F                                            01 
01030040009000000000000000000000000000000000000GRN       STRAIGHT PARTY                                          GREEN PARTY                           PRECINCT 1G                                            01 
01030040010000000000000000000000000000000000000GRN       STRAIGHT PARTY                                          GREEN PARTY                           PRECINCT 1H                                            01 
01030040011000000000000000000000000000000000000GRN       STRAIGHT PARTY                                          GREEN PARTY                           PRECINCT 1I                                            01 
01030040012000002000002000000000000000000000000GRN       STRAIGHT PARTY                                          GREEN PARTY                           PRECINCT 2A1A                                          01 
01030040013000001000000000000000001000000000000GRN       STRAIGHT PARTY                                          GREEN PARTY                           PRECINCT 2B2A                                          01 
01030040014000000000000000000000000000000000000GRN       STRAIGHT PARTY                                          GREEN PARTY                           PRECINCT 2C3A                                          01 
01030040015000001000000000001000000000000000000GRN       STRAIGHT PARTY                                          GREEN PARTY                           PRECINCT 2D                                            01 
01030040016000000000000000000000000000000000000GRN       STRAIGHT PARTY                                          GREEN PARTY                           PRECINCT 2E                                            01 
01030040017000000000000000000000000000000000000GRN       STRAIGHT PARTY                                          GREEN PARTY                           PRECINCT 2F                                            01 
01030040018000000000000000000000000000000000000GRN       STRAIGHT PARTY                                          GREEN PARTY                           PRECINCT 2G                                            01 
01030040019000000000000000000000000000000000000GRN       STRAIGHT PARTY                                          GREEN PARTY                           PRECINCT 2H                                            01 
01030040020000002000001000000000001000000000000GRN       STRAIGHT PARTY                                          GREEN PARTY                           PRECINCT 3C7G                                          01 
01030040021000001000000000000000001000000000000GRN       STRAIGHT PARTY                                          GREEN PARTY                           PRECINCT 3D                                            01 
01030040022000000000000000000000000000000000000GRN       STRAIGHT PARTY                                          GREEN PARTY                           PRECINCT 3E                                            01 
01030040023000000000000000000000000000000000000GRN       STRAIGHT PARTY                                          GREEN PARTY                           PRECINCT 3F                                            01 
01030040024000000000000000000000000000000000000GRN       STRAIGHT PARTY                                          GREEN PARTY                           PRECINCT 3G                                            01 
01030040025000000000000000000000000000000000000GRN       STRAIGHT PARTY                                          GREEN PARTY                           PRECINCT 3H3C                                          01 
01030040026000000000000000000000000000000000000GRN       STRAIGHT PARTY                                          GREEN PARTY                           PRECINCT 3I                                            01 
01030040027000000000000000000000000000000000000GRN       STRAIGHT PARTY                                          GREEN PARTY                           PRECINCT 4A6E                                          01 
01030040028000003000000000000000003000000000000GRN       STRAIGHT PARTY                                          GREEN PARTY                           PRECINCT 4B                                            01 
01030040029000001000001000000000000000000000000GRN       STRAIGHT PARTY                                          GREEN PARTY                           PRECINCT 4C                                            01 
01030040030000000000000000000000000000000000000GRN       STRAIGHT PARTY                                          GREEN PARTY                           PRECINCT 4D                                            01 
01030040031000000000000000000000000000000000000GRN       STRAIGHT PARTY                                          GREEN PARTY                           PRECINCT 4E                                            01 
01030040032000000000000000000000000000000000000GRN       STRAIGHT PARTY                                          GREEN PARTY                           PRECINCT 4F                                            01 
01030040033000000000000000000000000000000000000GRN       STRAIGHT PARTY                                          GREEN PARTY                           PRECINCT 4G                                            01 
01030050001000000000000000000000000000000000000          STRAIGHT PARTY                                          OVER VOTES                            PRECINCT 1A3B                                          01 
01030050002000000000000000000000000000000000000          STRAIGHT PARTY                                          OVER VOTES                            PRECINCT 1A5A                                          01 
01030050003000000000000000000000000000000000000          STRAIGHT PARTY                                          OVER VOTES                            PRECINCT 1B                                            01 
01030050004000000000000000000000000000000000000          STRAIGHT PARTY                                          OVER VOTES                            PRECINCT 1C                                            01 
01030050005000000000000000000000000000000000000          STRAIGHT PARTY                                          OVER VOTES                            PRECINCT 1D                                            01 
01030050006000000000000000000000000000000000000          STRAIGHT PARTY                                          OVER VOTES                            PRECINCT 1E                                            01 
01030050007000000000000000000000000000000000000          STRAIGHT PARTY                                          OVER VOTES                            PRECINCT 1E7C                                          01 
01030050008000000000000000000000000000000000000          STRAIGHT PARTY                                          OVER VOTES                            PRECINCT 1F                                            01 
01030050009000000000000000000000000000000000000          STRAIGHT PARTY                                          OVER VOTES                            PRECINCT 1G                                            01 
01030050010000000000000000000000000000000000000          STRAIGHT PARTY                                          OVER VOTES                            PRECINCT 1H                                            01 
01030050011000000000000000000000000000000000000          STRAIGHT PARTY                                          OVER VOTES                            PRECINCT 1I                                            01 
01030050012000000000000000000000000000000000000          STRAIGHT PARTY                                          OVER VOTES                            PRECINCT 2A1A                                          01 
01030050013000000000000000000000000000000000000          STRAIGHT PARTY                                          OVER VOTES                            PRECINCT 2B2A                                          01 
01030050014000002000000000000000002000000000000          STRAIGHT PARTY                                          OVER VOTES                            PRECINCT 2C3A                                          01 
01030050015000000000000000000000000000000000000          STRAIGHT PARTY                                          OVER VOTES                            PRECINCT 2D                                            01 
01030050016000001000000000001000000000000000000          STRAIGHT PARTY                                          OVER VOTES                            PRECINCT 2E                                            01 
01030050017000000000000000000000000000000000000          STRAIGHT PARTY                                          OVER VOTES                            PRECINCT 2F                                            01 
01030050018000000000000000000000000000000000000          STRAIGHT PARTY                                          OVER VOTES                            PRECINCT 2G                                            01 
01030050019000000000000000000000000000000000000          STRAIGHT PARTY                                          OVER VOTES                            PRECINCT 2H                                            01 
01030050020000000000000000000000000000000000000          STRAIGHT PARTY                                          OVER VOTES                            PRECINCT 3C7G                                          01 
01030050021000000000000000000000000000000000000          STRAIGHT PARTY                                          OVER VOTES                            PRECINCT 3D                                            01 
01030050022000000000000000000000000000000000000          STRAIGHT PARTY                                          OVER VOTES                            PRECINCT 3E                                            01 
01030050023000000000000000000000000000000000000          STRAIGHT PARTY                                          OVER VOTES                            PRECINCT 3F                                            01 
01030050024000000000000000000000000000000000000          STRAIGHT PARTY                                          OVER VOTES                            PRECINCT 3G                                            01 
01030050025000000000000000000000000000000000000          STRAIGHT PARTY                                          OVER VOTES                            PRECINCT 3H3C                                          01 
01030050026000000000000000000000000000000000000          STRAIGHT PARTY                                          OVER VOTES                            PRECINCT 3I                                            01 
01030050027000000000000000000000000000000000000          STRAIGHT PARTY                                          OVER VOTES                            PRECINCT 4A6E                                          01 
01030050028000000000000000000000000000000000000          STRAIGHT PARTY                                          OVER VOTES                            PRECINCT 4B                                            01 
01030050029000000000000000000000000000000000000          STRAIGHT PARTY                                          OVER VOTES                            PRECINCT 4C                                            01 
01030050030000000000000000000000000000000000000          STRAIGHT PARTY                                          OVER VOTES                            PRECINCT 4D                                            01 
01030050031000000000000000000000000000000000000          STRAIGHT PARTY                                          OVER VOTES                            PRECINCT 4E                                            01 
01030050032000000000000000000000000000000000000          STRAIGHT PARTY                                          OVER VOTES                            PRECINCT 4F                                            01 
01030050033000000000000000000000000000000000000          STRAIGHT PARTY                                          OVER VOTES                            PRECINCT 4G                                            01 
01030060001000173000073000013000087000000000000          STRAIGHT PARTY                                          UNDER VOTES                           PRECINCT 1A3B                                          01 
01030060002000295000160000015000120000000000000          STRAIGHT PARTY                                          UNDER VOTES                           PRECINCT 1A5A                                          01 
01030060003000074000025000005000044000000000000          STRAIGHT PARTY                                          UNDER VOTES                           PRECINCT 1B                                            01 
01030060004000088000035000005000048000000000000          STRAIGHT PARTY                                          UNDER VOTES                           PRECINCT 1C                                            01 
01030060005000140000076000004000060000000000000          STRAIGHT PARTY                                          UNDER VOTES                           PRECINCT 1D                                            01 
01030060006000205000060000010000135000000000000          STRAIGHT PARTY                                          UNDER VOTES                           PRECINCT 1E                                            01 
01030060007000317000183000040000094000000000000          STRAIGHT PARTY                                          UNDER VOTES                           PRECINCT 1E7C                                          01 
01030060008000256000071000010000175000000000000          STRAIGHT PARTY                                          UNDER VOTES                           PRECINCT 1F                                            01 
01030060009000144000023000013000108000000000000          STRAIGHT PARTY                                          UNDER VOTES                           PRECINCT 1G                                            01 
01030060010000142000048000006000088000000000000          STRAIGHT PARTY                                          UNDER VOTES                           PRECINCT 1H                                            01 
01030060011000043000005000000000038000000000000          STRAIGHT PARTY                                          UNDER VOTES                           PRECINCT 1I                                            01 
01030060012000145000071000013000061000000000000          STRAIGHT PARTY                                          UNDER VOTES                           PRECINCT 2A1A                                          01 
01030060013000143000071000005000067000000000000          STRAIGHT PARTY                                          UNDER VOTES                           PRECINCT 2B2A                                          01 
01030060014000238000102000015000121000000000000          STRAIGHT PARTY                                          UNDER VOTES                           PRECINCT 2C3A                                          01 
01030060015000171000026000009000136000000000000          STRAIGHT PARTY                                          UNDER VOTES                           PRECINCT 2D                                            01 
01030060016000176000060000008000108000000000000          STRAIGHT PARTY                                          UNDER VOTES                           PRECINCT 2E                                            01 
01030060017000031000008000001000022000000000000          STRAIGHT PARTY                                          UNDER VOTES                           PRECINCT 2F                                            01 
01030060018000081000027000001000053000000000000          STRAIGHT PARTY                                          UNDER VOTES                           PRECINCT 2G                                            01 
01030060019000063000039000003000021000000000000          STRAIGHT PARTY                                          UNDER VOTES                           PRECINCT 2H                                            01 
01030060020000734000437000043000254000000000000          STRAIGHT PARTY                                          UNDER VOTES                           PRECINCT 3C7G                                          01 
01030060021000208000066000008000134000000000000          STRAIGHT PARTY                                          UNDER VOTES                           PRECINCT 3D                                            01 
01030060022000356000147000015000194000000000000          STRAIGHT PARTY                                          UNDER VOTES                           PRECINCT 3E                                            01 
01030060023000144000049000002000093000000000000          STRAIGHT PARTY                                          UNDER VOTES                           PRECINCT 3F                                            01 
01030060024000157000060000007000090000000000000          STRAIGHT PARTY                                          UNDER VOTES                           PRECINCT 3G                                            01 
01030060025000111000051000016000044000000000000          STRAIGHT PARTY                                          UNDER VOTES                           PRECINCT 3H3C                                          01 
01030060026000347000201000033000113000000000000          STRAIGHT PARTY                                          UNDER VOTES                           PRECINCT 3I                                            01 
01030060027000387000235000024000128000000000000          STRAIGHT PARTY                                          UNDER VOTES                           PRECINCT 4A6E                                          01 
01030060028000429000161000021000247000000000000          STRAIGHT PARTY                                          UNDER VOTES                           PRECINCT 4B                                            01 
01030060029000080000022000002000056000000000000          STRAIGHT PARTY                                          UNDER VOTES                           PRECINCT 4C                                            01 
01030060030000351000100000015000236000000000000          STRAIGHT PARTY                                          UNDER VOTES                           PRECINCT 4D                                            01 
01030060031000169000052000007000110000000000000          STRAIGHT PARTY                                          UNDER VOTES                           PRECINCT 4E                                            01 
01030060032000396000225000012000159000000000000          STRAIGHT PARTY                                          UNDER VOTES                           PRECINCT 4F                                            01 
01030060033000494000279000019000196000000000000          STRAIGHT PARTY                                          UNDER VOTES                           PRECINCT 4G                                            01 
01040010001000305000151000030000124000000000000REP       President and Vice-President                            Mitt Romney / Paul Ryan               PRECINCT 1A3B                                          01 
01040010002000420000228000033000159000000000000REP       President and Vice-President                            Mitt Romney / Paul Ryan               PRECINCT 1A5A                                          01 
01040010003000106000033000007000066000000000000REP       President and Vice-President                            Mitt Romney / Paul Ryan               PRECINCT 1B                                            01 
01040010004000157000073000007000077000000000000REP       President and Vice-President                            Mitt Romney / Paul Ryan               PRECINCT 1C                                            01 
01040010005000308000173000011000124000000000000REP       President and Vice-President                            Mitt Romney / Paul Ryan               PRECINCT 1D                                            01 
01040010006000333000116000010000207000000000000REP       President and Vice-President                            Mitt Romney / Paul Ryan               PRECINCT 1E                                            01 
01040010007000554000350000060000144000000000000REP       President and Vice-President                            Mitt Romney / Paul Ryan               PRECINCT 1E7C                                          01 
01040010008000429000149000018000262000000000000REP       President and Vice-President                            Mitt Romney / Paul Ryan               PRECINCT 1F                                            01 
01040010009000231000064000019000148000000000000REP       President and Vice-President                            Mitt Romney / Paul Ryan               PRECINCT 1G                                            01 
01040010010000244000101000006000137000000000000REP       President and Vice-President                            Mitt Romney / Paul Ryan               PRECINCT 1H                                            01 
01040010011000061000012000000000049000000000000REP       President and Vice-President                            Mitt Romney / Paul Ryan               PRECINCT 1I                                            01 
01040010012000162000082000016000064000000000000REP       President and Vice-President                            Mitt Romney / Paul Ryan               PRECINCT 2A1A                                          01 
01040010013000173000096000006000071000000000000REP       President and Vice-President                            Mitt Romney / Paul Ryan               PRECINCT 2B2A                                          01 
01040010014000433000214000033000186000000000000REP       President and Vice-President                            Mitt Romney / Paul Ryan               PRECINCT 2C3A                                          01 
01040010015000243000049000010000184000000000000REP       President and Vice-President                            Mitt Romney / Paul Ryan               PRECINCT 2D                                            01 
01040010016000296000107000017000172000000000000REP       President and Vice-President                            Mitt Romney / Paul Ryan               PRECINCT 2E                                            01 
01040010017000079000022000003000054000000000000REP       President and Vice-President                            Mitt Romney / Paul Ryan               PRECINCT 2F                                            01 
01040010018000144000058000004000082000000000000REP       President and Vice-President                            Mitt Romney / Paul Ryan               PRECINCT 2G                                            01 
01040010019000094000054000007000033000000000000REP       President and Vice-President                            Mitt Romney / Paul Ryan               PRECINCT 2H                                            01 
01040010020001191000721000119000351000000000000REP       President and Vice-President                            Mitt Romney / Paul Ryan               PRECINCT 3C7G                                          01 
01040010021000364000111000024000229000000000000REP       President and Vice-President                            Mitt Romney / Paul Ryan               PRECINCT 3D                                            01 
01040010022000593000258000023000312000000000000REP       President and Vice-President                            Mitt Romney / Paul Ryan               PRECINCT 3E                                            01 
01040010023000257000084000011000162000000000000REP       President and Vice-President                            Mitt Romney / Paul Ryan               PRECINCT 3F                                            01 
01040010024000313000132000010000171000000000000REP       President and Vice-President                            Mitt Romney / Paul Ryan               PRECINCT 3G                                            01 
01040010025000261000150000029000082000000000000REP       President and Vice-President                            Mitt Romney / Paul Ryan               PRECINCT 3H3C                                          01 
01040010026000641000396000060000185000000000000REP       President and Vice-President                            Mitt Romney / Paul Ryan               PRECINCT 3I                                            01 
01040010027000697000406000069000222000000000000REP       President and Vice-President                            Mitt Romney / Paul Ryan               PRECINCT 4A6E                                          01 
01040010028000797000306000040000451000000000000REP       President and Vice-President                            Mitt Romney / Paul Ryan               PRECINCT 4B                                            01 
01040010029000133000045000003000085000000000000REP       President and Vice-President                            Mitt Romney / Paul Ryan               PRECINCT 4C                                            01 
01040010030000715000237000034000444000000000000REP       President and Vice-President                            Mitt Romney / Paul Ryan               PRECINCT 4D                                            01 
01040010031000341000140000017000184000000000000REP       President and Vice-President                            Mitt Romney / Paul Ryan               PRECINCT 4E                                            01 
01040010032000803000470000042000291000000000000REP       President and Vice-President                            Mitt Romney / Paul Ryan               PRECINCT 4F                                            01 
01040010033000948000568000046000334000000000000REP       President and Vice-President                            Mitt Romney / Paul Ryan               PRECINCT 4G                                            01 
01040020001000178000107000001000070000000000000DEM       President and Vice-President                            Barack Obama / Joe Biden              PRECINCT 1A3B                                          01 
01040020002000297000173000012000112000000000000DEM       President and Vice-President                            Barack Obama / Joe Biden              PRECINCT 1A5A                                          01 
01040020003000017000005000000000012000000000000DEM       President and Vice-President                            Barack Obama / Joe Biden              PRECINCT 1B                                            01 
01040020004000016000006000001000009000000000000DEM       President and Vice-President                            Barack Obama / Joe Biden              PRECINCT 1C                                            01 
01040020005000056000024000002000030000000000000DEM       President and Vice-President                            Barack Obama / Joe Biden              PRECINCT 1D                                            01 
01040020006000080000018000004000058000000000000DEM       President and Vice-President                            Barack Obama / Joe Biden              PRECINCT 1E                                            01 
01040020007000126000076000014000036000000000000DEM       President and Vice-President                            Barack Obama / Joe Biden              PRECINCT 1E7C                                          01 
01040020008000060000012000002000046000000000000DEM       President and Vice-President                            Barack Obama / Joe Biden              PRECINCT 1F                                            01 
01040020009000050000004000003000043000000000000DEM       President and Vice-President                            Barack Obama / Joe Biden              PRECINCT 1G                                            01 
01040020010000029000013000001000015000000000000DEM       President and Vice-President                            Barack Obama / Joe Biden              PRECINCT 1H                                            01 
01040020011000011000003000000000008000000000000DEM       President and Vice-President                            Barack Obama / Joe Biden              PRECINCT 1I                                            01 
01040020012000455000256000017000182000000000000DEM       President and Vice-President                            Barack Obama / Joe Biden              PRECINCT 2A1A                                          01 
01040020013000466000244000015000207000000000000DEM       President and Vice-President                            Barack Obama / Joe Biden              PRECINCT 2B2A                                          01 
01040020014000301000159000007000135000000000000DEM       President and Vice-President                            Barack Obama / Joe Biden              PRECINCT 2C3A                                          01 
01040020015000121000024000007000090000000000000DEM       President and Vice-President                            Barack Obama / Joe Biden              PRECINCT 2D                                            01 
01040020016000036000011000003000022000000000000DEM       President and Vice-President                            Barack Obama / Joe Biden              PRECINCT 2E                                            01 
01040020017000011000004000000000007000000000000DEM       President and Vice-President                            Barack Obama / Joe Biden              PRECINCT 2F                                            01 
01040020018000032000003000000000029000000000000DEM       President and Vice-President                            Barack Obama / Joe Biden              PRECINCT 2G                                            01 
01040020019000051000030000001000020000000000000DEM       President and Vice-President                            Barack Obama / Joe Biden              PRECINCT 2H                                            01 
01040020020000495000270000030000195000000000000DEM       President and Vice-President                            Barack Obama / Joe Biden              PRECINCT 3C7G                                          01 
01040020021000075000024000002000049000000000000DEM       President and Vice-President                            Barack Obama / Joe Biden              PRECINCT 3D                                            01 
01040020022000076000031000002000043000000000000DEM       President and Vice-President                            Barack Obama / Joe Biden              PRECINCT 3E                                            01 
01040020023000051000014000001000036000000000000DEM       President and Vice-President                            Barack Obama / Joe Biden              PRECINCT 3F                                            01 
01040020024000052000024000002000026000000000000DEM       President and Vice-President                            Barack Obama / Joe Biden              PRECINCT 3G                                            01 
01040020025000112000065000011000036000000000000DEM       President and Vice-President                            Barack Obama / Joe Biden              PRECINCT 3H3C                                          01 
01040020026000091000053000004000034000000000000DEM       President and Vice-President                            Barack Obama / Joe Biden              PRECINCT 3I                                            01 
01040020027000187000103000009000075000000000000DEM       President and Vice-President                            Barack Obama / Joe Biden              PRECINCT 4A6E                                          01 
01040020028000167000070000009000088000000000000DEM       President and Vice-President                            Barack Obama / Joe Biden              PRECINCT 4B                                            01 
01040020029000052000010000001000041000000000000DEM       President and Vice-President                            Barack Obama / Joe Biden              PRECINCT 4C                                            01 
01040020030000095000036000005000054000000000000DEM       President and Vice-President                            Barack Obama / Joe Biden              PRECINCT 4D                                            01 
01040020031000060000014000000000046000000000000DEM       President and Vice-President                            Barack Obama / Joe Biden              PRECINCT 4E                                            01 
01040020032000145000077000007000061000000000000DEM       President and Vice-President                            Barack Obama / Joe Biden              PRECINCT 4F                                            01 
01040020033000130000086000010000034000000000000DEM       President and Vice-President                            Barack Obama / Joe Biden              PRECINCT 4G                                            01 
01040030001000004000001000001000002000000000000LIB       President and Vice-President                            Gary Johnson / Jim Gray               PRECINCT 1A3B                                          01 
01040030002000012000008000000000004000000000000LIB       President and Vice-President                            Gary Johnson / Jim Gray               PRECINCT 1A5A                                          01 
01040030003000003000001000000000002000000000000LIB       President and Vice-President                            Gary Johnson / Jim Gray               PRECINCT 1B                                            01 
01040030004000000000000000000000000000000000000LIB       President and Vice-President                            Gary Johnson / Jim Gray               PRECINCT 1C                                            01 
01040030005000001000000000000000001000000000000LIB       President and Vice-President                            Gary Johnson / Jim Gray               PRECINCT 1D                                            01 
01040030006000005000002000000000003000000000000LIB       President and Vice-President                            Gary Johnson / Jim Gray               PRECINCT 1E                                            01 
01040030007000006000003000001000002000000000000LIB       President and Vice-President                            Gary Johnson / Jim Gray               PRECINCT 1E7C                                          01 
01040030008000006000004000000000002000000000000LIB       President and Vice-President                            Gary Johnson / Jim Gray               PRECINCT 1F                                            01 
01040030009000004000001000000000003000000000000LIB       President and Vice-President                            Gary Johnson / Jim Gray               PRECINCT 1G                                            01 
01040030010000001000000000000000001000000000000LIB       President and Vice-President                            Gary Johnson / Jim Gray               PRECINCT 1H                                            01 
01040030011000000000000000000000000000000000000LIB       President and Vice-President                            Gary Johnson / Jim Gray               PRECINCT 1I                                            01 
01040030012000001000000000000000001000000000000LIB       President and Vice-President                            Gary Johnson / Jim Gray               PRECINCT 2A1A                                          01 
01040030013000003000001000000000002000000000000LIB       President and Vice-President                            Gary Johnson / Jim Gray               PRECINCT 2B2A                                          01 
01040030014000009000002000000000007000000000000LIB       President and Vice-President                            Gary Johnson / Jim Gray               PRECINCT 2C3A                                          01 
01040030015000004000000000001000003000000000000LIB       President and Vice-President                            Gary Johnson / Jim Gray               PRECINCT 2D                                            01 
01040030016000001000000000000000001000000000000LIB       President and Vice-President                            Gary Johnson / Jim Gray               PRECINCT 2E                                            01 
01040030017000000000000000000000000000000000000LIB       President and Vice-President                            Gary Johnson / Jim Gray               PRECINCT 2F                                            01 
01040030018000002000000000001000001000000000000LIB       President and Vice-President                            Gary Johnson / Jim Gray               PRECINCT 2G                                            01 
01040030019000000000000000000000000000000000000LIB       President and Vice-President                            Gary Johnson / Jim Gray               PRECINCT 2H                                            01 
01040030020000008000003000000000005000000000000LIB       President and Vice-President                            Gary Johnson / Jim Gray               PRECINCT 3C7G                                          01 
01040030021000005000001000001000003000000000000LIB       President and Vice-President                            Gary Johnson / Jim Gray               PRECINCT 3D                                            01 
01040030022000007000000000000000007000000000000LIB       President and Vice-President                            Gary Johnson / Jim Gray               PRECINCT 3E                                            01 
01040030023000003000000000000000003000000000000LIB       President and Vice-President                            Gary Johnson / Jim Gray               PRECINCT 3F                                            01 
01040030024000001000000000000000001000000000000LIB       President and Vice-President                            Gary Johnson / Jim Gray               PRECINCT 3G                                            01 
01040030025000003000001000000000002000000000000LIB       President and Vice-President                            Gary Johnson / Jim Gray               PRECINCT 3H3C                                          01 
01040030026000005000002000001000002000000000000LIB       President and Vice-President                            Gary Johnson / Jim Gray               PRECINCT 3I                                            01 
01040030027000007000003000000000004000000000000LIB       President and Vice-President                            Gary Johnson / Jim Gray               PRECINCT 4A6E                                          01 
01040030028000008000003000001000004000000000000LIB       President and Vice-President                            Gary Johnson / Jim Gray               PRECINCT 4B                                            01 
01040030029000003000000000000000003000000000000LIB       President and Vice-President                            Gary Johnson / Jim Gray               PRECINCT 4C                                            01 
01040030030000010000003000002000005000000000000LIB       President and Vice-President                            Gary Johnson / Jim Gray               PRECINCT 4D                                            01 
01040030031000006000000000000000006000000000000LIB       President and Vice-President                            Gary Johnson / Jim Gray               PRECINCT 4E                                            01 
01040030032000013000001000002000010000000000000LIB       President and Vice-President                            Gary Johnson / Jim Gray               PRECINCT 4F                                            01 
01040030033000008000002000000000006000000000000LIB       President and Vice-President                            Gary Johnson / Jim Gray               PRECINCT 4G                                            01 
01040040001000001000000000000000001000000000000GRN       President and Vice-President                            Jill Stein / Cheri Honkala            PRECINCT 1A3B                                          01 
01040040002000003000000000000000003000000000000GRN       President and Vice-President                            Jill Stein / Cheri Honkala            PRECINCT 1A5A                                          01 
01040040003000000000000000000000000000000000000GRN       President and Vice-President                            Jill Stein / Cheri Honkala            PRECINCT 1B                                            01 
01040040004000001000000000000000001000000000000GRN       President and Vice-President                            Jill Stein / Cheri Honkala            PRECINCT 1C                                            01 
01040040005000000000000000000000000000000000000GRN       President and Vice-President                            Jill Stein / Cheri Honkala            PRECINCT 1D                                            01 
01040040006000001000000000000000001000000000000GRN       President and Vice-President                            Jill Stein / Cheri Honkala            PRECINCT 1E                                            01 
01040040007000001000001000000000000000000000000GRN       President and Vice-President                            Jill Stein / Cheri Honkala            PRECINCT 1E7C                                          01 
01040040008000001000000000000000001000000000000GRN       President and Vice-President                            Jill Stein / Cheri Honkala            PRECINCT 1F                                            01 
01040040009000001000000000000000001000000000000GRN       President and Vice-President                            Jill Stein / Cheri Honkala            PRECINCT 1G                                            01 
01040040010000000000000000000000000000000000000GRN       President and Vice-President                            Jill Stein / Cheri Honkala            PRECINCT 1H                                            01 
01040040011000000000000000000000000000000000000GRN       President and Vice-President                            Jill Stein / Cheri Honkala            PRECINCT 1I                                            01 
01040040012000001000001000000000000000000000000GRN       President and Vice-President                            Jill Stein / Cheri Honkala            PRECINCT 2A1A                                          01 
01040040013000001000001000000000000000000000000GRN       President and Vice-President                            Jill Stein / Cheri Honkala            PRECINCT 2B2A                                          01 
01040040014000001000000000000000001000000000000GRN       President and Vice-President                            Jill Stein / Cheri Honkala            PRECINCT 2C3A                                          01 
01040040015000005000000000001000004000000000000GRN       President and Vice-President                            Jill Stein / Cheri Honkala            PRECINCT 2D                                            01 
01040040016000002000000000000000002000000000000GRN       President and Vice-President                            Jill Stein / Cheri Honkala            PRECINCT 2E                                            01 
01040040017000000000000000000000000000000000000GRN       President and Vice-President                            Jill Stein / Cheri Honkala            PRECINCT 2F                                            01 
01040040018000001000000000000000001000000000000GRN       President and Vice-President                            Jill Stein / Cheri Honkala            PRECINCT 2G                                            01 
01040040019000000000000000000000000000000000000GRN       President and Vice-President                            Jill Stein / Cheri Honkala            PRECINCT 2H                                            01 
01040040020000003000001000000000002000000000000GRN       President and Vice-President                            Jill Stein / Cheri Honkala            PRECINCT 3C7G                                          01 
01040040021000003000000000000000003000000000000GRN       President and Vice-President                            Jill Stein / Cheri Honkala            PRECINCT 3D                                            01 
01040040022000002000000000000000002000000000000GRN       President and Vice-President                            Jill Stein / Cheri Honkala            PRECINCT 3E                                            01 
01040040023000001000000000000000001000000000000GRN       President and Vice-President                            Jill Stein / Cheri Honkala            PRECINCT 3F                                            01 
01040040024000000000000000000000000000000000000GRN       President and Vice-President                            Jill Stein / Cheri Honkala            PRECINCT 3G                                            01 
01040040025000001000000000000000001000000000000GRN       President and Vice-President                            Jill Stein / Cheri Honkala            PRECINCT 3H3C                                          01 
01040040026000000000000000000000000000000000000GRN       President and Vice-President                            Jill Stein / Cheri Honkala            PRECINCT 3I                                            01 
01040040027000001000001000000000000000000000000GRN       President and Vice-President                            Jill Stein / Cheri Honkala            PRECINCT 4A6E                                          01 
01040040028000004000001000000000003000000000000GRN       President and Vice-President                            Jill Stein / Cheri Honkala            PRECINCT 4B                                            01 
01040040029000000000000000000000000000000000000GRN       President and Vice-President                            Jill Stein / Cheri Honkala            PRECINCT 4C                                            01 
01040040030000001000000000000000001000000000000GRN       President and Vice-President                            Jill Stein / Cheri Honkala            PRECINCT 4D                                            01 
01040040031000000000000000000000000000000000000GRN       President and Vice-President                            Jill Stein / Cheri Honkala            PRECINCT 4E                                            01 
01040040032000001000001000000000000000000000000GRN       President and Vice-President                            Jill Stein / Cheri Honkala            PRECINCT 4F                                            01 
01040040033000000000000000000000000000000000000GRN       President and Vice-President                            Jill Stein / Cheri Honkala            PRECINCT 4G                                            01 
01040050001000000000000000000000000000000000000NON       President and Vice-President                            WRITE-IN                              PRECINCT 1A3B                                          01 
01040050002000000000000000000000000000000000000NON       President and Vice-President                            WRITE-IN                              PRECINCT 1A5A                                          01 
01040050003000000000000000000000000000000000000NON       President and Vice-President                            WRITE-IN                              PRECINCT 1B                                            01 
01040050004000000000000000000000000000000000000NON       President and Vice-President                            WRITE-IN                              PRECINCT 1C                                            01 
01040050005000000000000000000000000000000000000NON       President and Vice-President                            WRITE-IN                              PRECINCT 1D                                            01 
01040050006000000000000000000000000000000000000NON       President and Vice-President                            WRITE-IN                              PRECINCT 1E                                            01 
01040050007000000000000000000000000000000000000NON       President and Vice-President                            WRITE-IN                              PRECINCT 1E7C                                          01 
01040050008000000000000000000000000000000000000NON       President and Vice-President                            WRITE-IN                              PRECINCT 1F                                            01 
01040050009000001000000000001000000000000000000NON       President and Vice-President                            WRITE-IN                              PRECINCT 1G                                            01 
01040050010000000000000000000000000000000000000NON       President and Vice-President                            WRITE-IN                              PRECINCT 1H                                            01 
01040050011000000000000000000000000000000000000NON       President and Vice-President                            WRITE-IN                              PRECINCT 1I                                            01 
01040050012000001000000000001000000000000000000NON       President and Vice-President                            WRITE-IN                              PRECINCT 2A1A                                          01 
01040050013000000000000000000000000000000000000NON       President and Vice-President                            WRITE-IN                              PRECINCT 2B2A                                          01 
01040050014000000000000000000000000000000000000NON       President and Vice-President                            WRITE-IN                              PRECINCT 2C3A                                          01 
01040050015000000000000000000000000000000000000NON       President and Vice-President                            WRITE-IN                              PRECINCT 2D                                            01 
01040050016000000000000000000000000000000000000NON       President and Vice-President                            WRITE-IN                              PRECINCT 2E                                            01 
01040050017000000000000000000000000000000000000NON       President and Vice-President                            WRITE-IN                              PRECINCT 2F                                            01 
01040050018000000000000000000000000000000000000NON       President and Vice-President                            WRITE-IN                              PRECINCT 2G                                            01 
01040050019000000000000000000000000000000000000NON       President and Vice-President                            WRITE-IN                              PRECINCT 2H                                            01 
01040050020000000000000000000000000000000000000NON       President and Vice-President                            WRITE-IN                              PRECINCT 3C7G                                          01 
01040050021000000000000000000000000000000000000NON       President and Vice-President                            WRITE-IN                              PRECINCT 3D                                            01 
01040050022000001000000000001000000000000000000NON       President and Vice-President                            WRITE-IN                              PRECINCT 3E                                            01 
01040050023000000000000000000000000000000000000NON       President and Vice-President                            WRITE-IN                              PRECINCT 3F                                            01 
01040050024000001000000000001000000000000000000NON       President and Vice-President                            WRITE-IN                              PRECINCT 3G                                            01 
01040050025000000000000000000000000000000000000NON       President and Vice-President                            WRITE-IN                              PRECINCT 3H3C                                          01 
01040050026000000000000000000000000000000000000NON       President and Vice-President                            WRITE-IN                              PRECINCT 3I                                            01 
01040050027000001000001000000000000000000000000NON       President and Vice-President                            WRITE-IN                              PRECINCT 4A6E                                          01 
01040050028000000000000000000000000000000000000NON       President and Vice-President                            WRITE-IN                              PRECINCT 4B                                            01 
01040050029000000000000000000000000000000000000NON       President and Vice-President                            WRITE-IN                              PRECINCT 4C                                            01 
01040050030000000000000000000000000000000000000NON       President and Vice-President                            WRITE-IN                              PRECINCT 4D                                            01 
01040050031000000000000000000000000000000000000NON       President and Vice-President                            WRITE-IN                              PRECINCT 4E                                            01 
01040050032000001000001000000000000000000000000NON       President and Vice-President                            WRITE-IN                              PRECINCT 4F                                            01 
01040050033000003000002000000000001000000000000NON       President and Vice-President                            WRITE-IN                              PRECINCT 4G                                            01 
01040060001000000000000000000000000000000000000          President and Vice-President                            OVER VOTES                            PRECINCT 1A3B                                          01 
01040060002000000000000000000000000000000000000          President and Vice-President                            OVER VOTES                            PRECINCT 1A5A                                          01 
01040060003000000000000000000000000000000000000          President and Vice-President                            OVER VOTES                            PRECINCT 1B                                            01 
01040060004000000000000000000000000000000000000          President and Vice-President                            OVER VOTES                            PRECINCT 1C                                            01 
01040060005000000000000000000000000000000000000          President and Vice-President                            OVER VOTES                            PRECINCT 1D                                            01 
01040060006000000000000000000000000000000000000          President and Vice-President                            OVER VOTES                            PRECINCT 1E                                            01 
01040060007000000000000000000000000000000000000          President and Vice-President                            OVER VOTES                            PRECINCT 1E7C                                          01 
01040060008000000000000000000000000000000000000          President and Vice-President                            OVER VOTES                            PRECINCT 1F                                            01 
01040060009000000000000000000000000000000000000          President and Vice-President                            OVER VOTES                            PRECINCT 1G                                            01 
01040060010000000000000000000000000000000000000          President and Vice-President                            OVER VOTES                            PRECINCT 1H                                            01 
01040060011000000000000000000000000000000000000          President and Vice-President                            OVER VOTES                            PRECINCT 1I                                            01 
01040060012000000000000000000000000000000000000          President and Vice-President                            OVER VOTES                            PRECINCT 2A1A                                          01 
01040060013000000000000000000000000000000000000          President and Vice-President                            OVER VOTES                            PRECINCT 2B2A                                          01 
01040060014000000000000000000000000000000000000          President and Vice-President                            OVER VOTES                            PRECINCT 2C3A                                          01 
01040060015000000000000000000000000000000000000          President and Vice-President                            OVER VOTES                            PRECINCT 2D                                            01 
01040060016000000000000000000000000000000000000          President and Vice-President                            OVER VOTES                            PRECINCT 2E                                            01 
01040060017000000000000000000000000000000000000          President and Vice-President                            OVER VOTES                            PRECINCT 2F                                            01 
01040060018000000000000000000000000000000000000          President and Vice-President                            OVER VOTES                            PRECINCT 2G                                            01 
01040060019000000000000000000000000000000000000          President and Vice-President                            OVER VOTES                            PRECINCT 2H                                            01 
01040060020000000000000000000000000000000000000          President and Vice-President                            OVER VOTES                            PRECINCT 3C7G                                          01 
01040060021000000000000000000000000000000000000          President and Vice-President                            OVER VOTES                            PRECINCT 3D                                            01 
01040060022000000000000000000000000000000000000          President and Vice-President                            OVER VOTES                            PRECINCT 3E                                            01 
01040060023000000000000000000000000000000000000          President and Vice-President                            OVER VOTES                            PRECINCT 3F                                            01 
01040060024000000000000000000000000000000000000          President and Vice-President                            OVER VOTES                            PRECINCT 3G                                            01 
01040060025000000000000000000000000000000000000          President and Vice-President                            OVER VOTES                            PRECINCT 3H3C                                          01 
01040060026000000000000000000000000000000000000          President and Vice-President                            OVER VOTES                            PRECINCT 3I                                            01 
01040060027000000000000000000000000000000000000          President and Vice-President                            OVER VOTES                            PRECINCT 4A6E                                          01 
01040060028000000000000000000000000000000000000          President and Vice-President                            OVER VOTES                            PRECINCT 4B                                            01 
01040060029000000000000000000000000000000000000          President and Vice-President                            OVER VOTES                            PRECINCT 4C                                            01 
01040060030000000000000000000000000000000000000          President and Vice-President                            OVER VOTES                            PRECINCT 4D                                            01 
01040060031000000000000000000000000000000000000          President and Vice-President                            OVER VOTES                            PRECINCT 4E                                            01 
01040060032000000000000000000000000000000000000          President and Vice-President                            OVER VOTES                            PRECINCT 4F                                            01 
01040060033000000000000000000000000000000000000          President and Vice-President                            OVER VOTES                            PRECINCT 4G                                            01 
01040070001000001000000000001000000000000000000          President and Vice-President                            UNDER VOTES                           PRECINCT 1A3B                                          01 
01040070002000002000000000001000001000000000000          President and Vice-President                            UNDER VOTES                           PRECINCT 1A5A                                          01 
01040070003000002000000000002000000000000000000          President and Vice-President                            UNDER VOTES                           PRECINCT 1B                                            01 
01040070004000001000001000000000000000000000000          President and Vice-President                            UNDER VOTES                           PRECINCT 1C                                            01 
01040070005000001000001000000000000000000000000          President and Vice-President                            UNDER VOTES                           PRECINCT 1D                                            01 
01040070006000001000001000000000000000000000000          President and Vice-President                            UNDER VOTES                           PRECINCT 1E                                            01 
01040070007000001000000000001000000000000000000          President and Vice-President                            UNDER VOTES                           PRECINCT 1E7C                                          01 
01040070008000003000001000001000001000000000000          President and Vice-President                            UNDER VOTES                           PRECINCT 1F                                            01 
01040070009000003000000000000000003000000000000          President and Vice-President                            UNDER VOTES                           PRECINCT 1G                                            01 
01040070010000001000000000000000001000000000000          President and Vice-President                            UNDER VOTES                           PRECINCT 1H                                            01 
01040070011000001000000000000000001000000000000          President and Vice-President                            UNDER VOTES                           PRECINCT 1I                                            01 
