01010010001000000          REGISTERED VOTERS - TOTAL                               REGISTERED VOTERS - TOTAL             Precinct 1A                                            00 
01010010002000000          REGISTERED VOTERS - TOTAL                               REGISTERED VOTERS - TOTAL             Precinct 1B                                            00 
01010010003000000          REGISTERED VOTERS - TOTAL                               REGISTERED VOTERS - TOTAL             Precinct 1C                                            00 
01010010004000000          REGISTERED VOTERS - TOTAL                               REGISTERED VOTERS - TOTAL             Precinct 1D                                            00 
01010010005000000          REGISTERED VOTERS - TOTAL                               REGISTERED VOTERS - TOTAL             Precinct 1E                                            00 
01010010006000000          REGISTERED VOTERS - TOTAL                               REGISTERED VOTERS - TOTAL             Precinct 2A                                            00 
01010010007000000          REGISTERED VOTERS - TOTAL                               REGISTERED VOTERS - TOTAL             Precinct 2B                                            00 
01010010008000000          REGISTERED VOTERS - TOTAL                               REGISTERED VOTERS - TOTAL             Precinct 2C                                            00 
01010010009000000          REGISTERED VOTERS - TOTAL                               REGISTERED VOTERS - TOTAL             Precinct 2D                                            00 
01010010010000000          REGISTERED VOTERS - TOTAL                               REGISTERED VOTERS - TOTAL             Precinct 3A                                            00 
01010010011000000          REGISTERED VOTERS - TOTAL                               REGISTERED VOTERS - TOTAL             Precinct 3B                                            00 
01010010012000000          REGISTERED VOTERS - TOTAL                               REGISTERED VOTERS - TOTAL             Precinct 3C                                            00 
01010010013000000          REGISTERED VOTERS - TOTAL                               REGISTERED VOTERS - TOTAL             Precinct 3D                                            00 
01010010014000000          REGISTERED VOTERS - TOTAL                               REGISTERED VOTERS - TOTAL             Precinct 4A                                            00 
01010010015000000          REGISTERED VOTERS - TOTAL                               REGISTERED VOTERS - TOTAL             Precinct 4B                                            00 
01010010016000000          REGISTERED VOTERS - TOTAL                               REGISTERED VOTERS - TOTAL             Precinct 4C                                            00 
01010010017000000          REGISTERED VOTERS - TOTAL                               REGISTERED VOTERS - TOTAL             Precinct 4D                                            00 
01010010018000000          REGISTERED VOTERS - TOTAL                               REGISTERED VOTERS - TOTAL             Precinct 4E                                            00 
01020010001001015          BALLOTS CAST - TOTAL                                    BALLOTS CAST - TOTAL                  Precinct 1A                                            00 
01020010002001537          BALLOTS CAST - TOTAL                                    BALLOTS CAST - TOTAL                  Precinct 1B                                            00 
01020010003000808          BALLOTS CAST - TOTAL                                    BALLOTS CAST - TOTAL                  Precinct 1C                                            00 
01020010004000736          BALLOTS CAST - TOTAL                                    BALLOTS CAST - TOTAL                  Precinct 1D                                            00 
01020010005000547          BALLOTS CAST - TOTAL                                    BALLOTS CAST - TOTAL                  Precinct 1E                                            00 
01020010006001948          BALLOTS CAST - TOTAL                                    BALLOTS CAST - TOTAL                  Precinct 2A                                            00 
01020010007000862          BALLOTS CAST - TOTAL                                    BALLOTS CAST - TOTAL                  Precinct 2B                                            00 
01020010008001204          BALLOTS CAST - TOTAL                                    BALLOTS CAST - TOTAL                  Precinct 2C                                            00 
01020010009001020          BALLOTS CAST - TOTAL                                    BALLOTS CAST - TOTAL                  Precinct 2D                                            00 
01020010010000584          BALLOTS CAST - TOTAL                                    BALLOTS CAST - TOTAL                  Precinct 3A                                            00 
01020010011000892          BALLOTS CAST - TOTAL                                    BALLOTS CAST - TOTAL                  Precinct 3B                                            00 
01020010012001669          BALLOTS CAST - TOTAL                                    BALLOTS CAST - TOTAL                  Precinct 3C                                            00 
01020010013001449          BALLOTS CAST - TOTAL                                    BALLOTS CAST - TOTAL                  Precinct 3D                                            00 
01020010014000841          BALLOTS CAST - TOTAL                                    BALLOTS CAST - TOTAL                  Precinct 4A                                            00 
01020010015001077          BALLOTS CAST - TOTAL                                    BALLOTS CAST - TOTAL                  Precinct 4B                                            00 
01020010016000911          BALLOTS CAST - TOTAL                                    BALLOTS CAST - TOTAL                  Precinct 4C                                            00 
01020010017001863          BALLOTS CAST - TOTAL                                    BALLOTS CAST - TOTAL                  Precinct 4D                                            00 
01020010018000654          BALLOTS CAST - TOTAL                                    BALLOTS CAST - TOTAL                  Precinct 4E                                            00 
01030010001000383REP       STRAIGHT PARTY                                          REPUBLICAN PARTY                      Precinct 1A                                            01 
01030010002000579REP       STRAIGHT PARTY                                          REPUBLICAN PARTY                      Precinct 1B                                            01 
01030010003000356REP       STRAIGHT PARTY                                          REPUBLICAN PARTY                      Precinct 1C                                            01 
01030010004000252REP       STRAIGHT PARTY                                          REPUBLICAN PARTY                      Precinct 1D                                            01 
01030010005000205REP       STRAIGHT PARTY                                          REPUBLICAN PARTY                      Precinct 1E                                            01 
01030010006000938REP       STRAIGHT PARTY                                          REPUBLICAN PARTY                      Precinct 2A                                            01 
01030010007000437REP       STRAIGHT PARTY                                          REPUBLICAN PARTY                      Precinct 2B                                            01 
01030010008000636REP       STRAIGHT PARTY                                          REPUBLICAN PARTY                      Precinct 2C                                            01 
01030010009000465REP       STRAIGHT PARTY                                          REPUBLICAN PARTY                      Precinct 2D                                            01 
01030010010000208REP       STRAIGHT PARTY                                          REPUBLICAN PARTY                      Precinct 3A                                            01 
01030010011000330REP       STRAIGHT PARTY                                          REPUBLICAN PARTY                      Precinct 3B                                            01 
01030010012000694REP       STRAIGHT PARTY                                          REPUBLICAN PARTY                      Precinct 3C                                            01 
01030010013000652REP       STRAIGHT PARTY                                          REPUBLICAN PARTY                      Precinct 3D                                            01 
01030010014000415REP       STRAIGHT PARTY                                          REPUBLICAN PARTY                      Precinct 4A                                            01 
01030010015000542REP       STRAIGHT PARTY                                          REPUBLICAN PARTY                      Precinct 4B                                            01 
01030010016000449REP       STRAIGHT PARTY                                          REPUBLICAN PARTY                      Precinct 4C                                            01 
01030010017000938REP       STRAIGHT PARTY                                          REPUBLICAN PARTY                      Precinct 4D                                            01 
01030010018000316REP       STRAIGHT PARTY                                          REPUBLICAN PARTY                      Precinct 4E                                            01 
01030020001000064DEM       STRAIGHT PARTY                                          DEMOCRATIC PARTY                      Precinct 1A                                            01 
01030020002000100DEM       STRAIGHT PARTY                                          DEMOCRATIC PARTY                      Precinct 1B                                            01 
01030020003000042DEM       STRAIGHT PARTY                                          DEMOCRATIC PARTY                      Precinct 1C                                            01 
01030020004000053DEM       STRAIGHT PARTY                                          DEMOCRATIC PARTY                      Precinct 1D                                            01 
01030020005000092DEM       STRAIGHT PARTY                                          DEMOCRATIC PARTY                      Precinct 1E                                            01 
01030020006000131DEM       STRAIGHT PARTY                                          DEMOCRATIC PARTY                      Precinct 2A                                            01 
01030020007000054DEM       STRAIGHT PARTY                                          DEMOCRATIC PARTY                      Precinct 2B                                            01 
01030020008000089DEM       STRAIGHT PARTY                                          DEMOCRATIC PARTY                      Precinct 2C                                            01 
01030020009000071DEM       STRAIGHT PARTY                                          DEMOCRATIC PARTY                      Precinct 2D                                            01 
01030020010000059DEM       STRAIGHT PARTY                                          DEMOCRATIC PARTY                      Precinct 3A                                            01 
01030020011000168DEM       STRAIGHT PARTY                                          DEMOCRATIC PARTY                      Precinct 3B                                            01 
01030020012000174DEM       STRAIGHT PARTY                                          DEMOCRATIC PARTY                      Precinct 3C                                            01 
01030020013000093DEM       STRAIGHT PARTY                                          DEMOCRATIC PARTY                      Precinct 3D                                            01 
01030020014000043DEM       STRAIGHT PARTY                                          DEMOCRATIC PARTY                      Precinct 4A                                            01 
01030020015000056DEM       STRAIGHT PARTY                                          DEMOCRATIC PARTY                      Precinct 4B                                            01 
01030020016000069DEM       STRAIGHT PARTY                                          DEMOCRATIC PARTY                      Precinct 4C                                            01 
01030020017000204DEM       STRAIGHT PARTY                                          DEMOCRATIC PARTY                      Precinct 4D                                            01 
01030020018000046DEM       STRAIGHT PARTY                                          DEMOCRATIC PARTY                      Precinct 4E                                            01 
01030030001000000LIB       STRAIGHT PARTY                                          LIBERTARIAN PARTY                     Precinct 1A                                            01 
01030030002000009LIB       STRAIGHT PARTY                                          LIBERTARIAN PARTY                     Precinct 1B                                            01 
01030030003000003LIB       STRAIGHT PARTY                                          LIBERTARIAN PARTY                     Precinct 1C                                            01 
01030030004000002LIB       STRAIGHT PARTY                                          LIBERTARIAN PARTY                     Precinct 1D                                            01 
01030030005000002LIB       STRAIGHT PARTY                                          LIBERTARIAN PARTY                     Precinct 1E                                            01 
01030030006000009LIB       STRAIGHT PARTY                                          LIBERTARIAN PARTY                     Precinct 2A                                            01 
01030030007000003LIB       STRAIGHT PARTY                                          LIBERTARIAN PARTY                     Precinct 2B                                            01 
01030030008000003LIB       STRAIGHT PARTY                                          LIBERTARIAN PARTY                     Precinct 2C                                            01 
01030030009000008LIB       STRAIGHT PARTY                                          LIBERTARIAN PARTY                     Precinct 2D                                            01 
01030030010000003LIB       STRAIGHT PARTY                                          LIBERTARIAN PARTY                     Precinct 3A                                            01 
01030030011000004LIB       STRAIGHT PARTY                                          LIBERTARIAN PARTY                     Precinct 3B                                            01 
01030030012000004LIB       STRAIGHT PARTY                                          LIBERTARIAN PARTY                     Precinct 3C                                            01 
01030030013000003LIB       STRAIGHT PARTY                                          LIBERTARIAN PARTY                     Precinct 3D                                            01 
01030030014000002LIB       STRAIGHT PARTY                                          LIBERTARIAN PARTY                     Precinct 4A                                            01 
01030030015000002LIB       STRAIGHT PARTY                                          LIBERTARIAN PARTY                     Precinct 4B                                            01 
01030030016000005LIB       STRAIGHT PARTY                                          LIBERTARIAN PARTY                     Precinct 4C                                            01 
01030030017000007LIB       STRAIGHT PARTY                                          LIBERTARIAN PARTY                     Precinct 4D                                            01 
01030030018000000LIB       STRAIGHT PARTY                                          LIBERTARIAN PARTY                     Precinct 4E                                            01 
01030040001000000GRN       STRAIGHT PARTY                                          GREEN PARTY                           Precinct 1A                                            01 
01030040002000000GRN       STRAIGHT PARTY                                          GREEN PARTY                           Precinct 1B                                            01 
01030040003000001GRN       STRAIGHT PARTY                                          GREEN PARTY                           Precinct 1C                                            01 
01030040004000001GRN       STRAIGHT PARTY                                          GREEN PARTY                           Precinct 1D                                            01 
01030040005000000GRN       STRAIGHT PARTY                                          GREEN PARTY                           Precinct 1E                                            01 
01030040006000001GRN       STRAIGHT PARTY                                          GREEN PARTY                           Precinct 2A                                            01 
01030040007000000GRN       STRAIGHT PARTY                                          GREEN PARTY                           Precinct 2B                                            01 
01030040008000000GRN       STRAIGHT PARTY                                          GREEN PARTY                           Precinct 2C                                            01 
01030040009000001GRN       STRAIGHT PARTY                                          GREEN PARTY                           Precinct 2D                                            01 
01030040010000000GRN       STRAIGHT PARTY                                          GREEN PARTY                           Precinct 3A                                            01 
01030040011000000GRN       STRAIGHT PARTY                                          GREEN PARTY                           Precinct 3B                                            01 
01030040012000002GRN       STRAIGHT PARTY                                          GREEN PARTY                           Precinct 3C                                            01 
01030040013000004GRN       STRAIGHT PARTY                                          GREEN PARTY                           Precinct 3D                                            01 
01030040014000002GRN       STRAIGHT PARTY                                          GREEN PARTY                           Precinct 4A                                            01 
01030040015000000GRN       STRAIGHT PARTY                                          GREEN PARTY                           Precinct 4B                                            01 
01030040016000001GRN       STRAIGHT PARTY                                          GREEN PARTY                           Precinct 4C                                            01 
01030040017000002GRN       STRAIGHT PARTY                                          GREEN PARTY                           Precinct 4D                                            01 
01030040018000001GRN       STRAIGHT PARTY                                          GREEN PARTY                           Precinct 4E                                            01 
01030050001000000          STRAIGHT PARTY                                          OVER VOTES                            Precinct 1A                                            01 
01030050002000000          STRAIGHT PARTY                                          OVER VOTES                            Precinct 1B                                            01 
01030050003000000          STRAIGHT PARTY                                          OVER VOTES                            Precinct 1C                                            01 
01030050004000000          STRAIGHT PARTY                                          OVER VOTES                            Precinct 1D                                            01 
01030050005000001          STRAIGHT PARTY                                          OVER VOTES                            Precinct 1E                                            01 
01030050006000000          STRAIGHT PARTY                                          OVER VOTES                            Precinct 2A                                            01 
01030050007000001          STRAIGHT PARTY                                          OVER VOTES                            Precinct 2B                                            01 
01030050008000000          STRAIGHT PARTY                                          OVER VOTES                            Precinct 2C                                            01 
01030050009000001          STRAIGHT PARTY                                          OVER VOTES                            Precinct 2D                                            01 
01030050010000000          STRAIGHT PARTY                                          OVER VOTES                            Precinct 3A                                            01 
01030050011000000          STRAIGHT PARTY                                          OVER VOTES                            Precinct 3B                                            01 
01030050012000001          STRAIGHT PARTY                                          OVER VOTES                            Precinct 3C                                            01 
01030050013000001          STRAIGHT PARTY                                          OVER VOTES                            Precinct 3D                                            01 
01030050014000000          STRAIGHT PARTY                                          OVER VOTES                            Precinct 4A                                            01 
01030050015000000          STRAIGHT PARTY                                          OVER VOTES                            Precinct 4B                                            01 
01030050016000000          STRAIGHT PARTY                                          OVER VOTES                            Precinct 4C                                            01 
01030050017000001          STRAIGHT PARTY                                          OVER VOTES                            Precinct 4D                                            01 
01030050018000000          STRAIGHT PARTY                                          OVER VOTES                            Precinct 4E                                            01 
01030060001000441          STRAIGHT PARTY                                          UNDER VOTES                           Precinct 1A                                            01 
01030060002000848          STRAIGHT PARTY                                          UNDER VOTES                           Precinct 1B                                            01 
01030060003000405          STRAIGHT PARTY                                          UNDER VOTES                           Precinct 1C                                            01 
01030060004000426          STRAIGHT PARTY                                          UNDER VOTES                           Precinct 1D                                            01 
01030060005000247          STRAIGHT PARTY                                          UNDER VOTES                           Precinct 1E                                            01 
01030060006000795          STRAIGHT PARTY                                          UNDER VOTES                           Precinct 2A                                            01 
01030060007000356          STRAIGHT PARTY                                          UNDER VOTES                           Precinct 2B                                            01 
01030060008000475          STRAIGHT PARTY                                          UNDER VOTES                           Precinct 2C                                            01 
01030060009000473          STRAIGHT PARTY                                          UNDER VOTES                           Precinct 2D                                            01 
01030060010000219          STRAIGHT PARTY                                          UNDER VOTES                           Precinct 3A                                            01 
01030060011000390          STRAIGHT PARTY                                          UNDER VOTES                           Precinct 3B                                            01 
01030060012000790          STRAIGHT PARTY                                          UNDER VOTES                           Precinct 3C                                            01 
01030060013000694          STRAIGHT PARTY                                          UNDER VOTES                           Precinct 3D                                            01 
01030060014000361          STRAIGHT PARTY                                          UNDER VOTES                           Precinct 4A                                            01 
01030060015000458          STRAIGHT PARTY                                          UNDER VOTES                           Precinct 4B                                            01 
01030060016000359          STRAIGHT PARTY                                          UNDER VOTES                           Precinct 4C                                            01 
01030060017000711          STRAIGHT PARTY                                          UNDER VOTES                           Precinct 4D                                            01 
01030060018000273          STRAIGHT PARTY                                          UNDER VOTES                           Precinct 4E                                            01 
01040010001000725REP       President and Vice-President                            Mitt Romney / Paul Ryan               Precinct 1A                                            01 
01040010002001235REP       President and Vice-President                            Mitt Romney / Paul Ryan               Precinct 1B                                            01 
01040010003000696REP       President and Vice-President                            Mitt Romney / Paul Ryan               Precinct 1C                                            01 
01040010004000583REP       President and Vice-President                            Mitt Romney / Paul Ryan               Precinct 1D                                            01 
01040010005000399REP       President and Vice-President                            Mitt Romney / Paul Ryan               Precinct 1E                                            01 
01040010006001613REP       President and Vice-President                            Mitt Romney / Paul Ryan               Precinct 2A                                            01 
01040010007000735REP       President and Vice-President                            Mitt Romney / Paul Ryan               Precinct 2B                                            01 
01040010008001027REP       President and Vice-President                            Mitt Romney / Paul Ryan               Precinct 2C                                            01 
01040010009000838REP       President and Vice-President                            Mitt Romney / Paul Ryan               Precinct 2D                                            01 
01040010010000384REP       President and Vice-President                            Mitt Romney / Paul Ryan               Precinct 3A                                            01 
01040010011000619REP       President and Vice-President                            Mitt Romney / Paul Ryan               Precinct 3B                                            01 
01040010012001297REP       President and Vice-President                            Mitt Romney / Paul Ryan               Precinct 3C                                            01 
01040010013001220REP       President and Vice-President                            Mitt Romney / Paul Ryan               Precinct 3D                                            01 
01040010014000729REP       President and Vice-President                            Mitt Romney / Paul Ryan               Precinct 4A                                            01 
01040010015000908REP       President and Vice-President                            Mitt Romney / Paul Ryan               Precinct 4B                                            01 
01040010016000730REP       President and Vice-President                            Mitt Romney / Paul Ryan               Precinct 4C                                            01 
01040010017001506REP       President and Vice-President                            Mitt Romney / Paul Ryan               Precinct 4D                                            01 
01040010018000550REP       President and Vice-President                            Mitt Romney / Paul Ryan               Precinct 4E                                            01 
01040020001000153DEM       President and Vice-President                            Barack Obama / Joe Biden              Precinct 1A                                            01 
01040020002000248DEM       President and Vice-President                            Barack Obama / Joe Biden              Precinct 1B                                            01 
01040020003000094DEM       President and Vice-President                            Barack Obama / Joe Biden              Precinct 1C                                            01 
01040020004000125DEM       President and Vice-President                            Barack Obama / Joe Biden              Precinct 1D                                            01 
01040020005000139DEM       President and Vice-President                            Barack Obama / Joe Biden              Precinct 1E                                            01 
01040020006000235DEM       President and Vice-President                            Barack Obama / Joe Biden              Precinct 2A                                            01 
01040020007000108DEM       President and Vice-President                            Barack Obama / Joe Biden              Precinct 2B                                            01 
01040020008000167DEM       President and Vice-President                            Barack Obama / Joe Biden              Precinct 2C                                            01 
01040020009000157DEM       President and Vice-President                            Barack Obama / Joe Biden              Precinct 2D                                            01 
01040020010000092DEM       President and Vice-President                            Barack Obama / Joe Biden              Precinct 3A                                            01 
01040020011000259DEM       President and Vice-President                            Barack Obama / Joe Biden              Precinct 3B                                            01 
01040020012000332DEM       President and Vice-President                            Barack Obama / Joe Biden              Precinct 3C                                            01 
01040020013000201DEM       President and Vice-President                            Barack Obama / Joe Biden              Precinct 3D                                            01 
01040020014000085DEM       President and Vice-President                            Barack Obama / Joe Biden              Precinct 4A                                            01 
01040020015000134DEM       President and Vice-President                            Barack Obama / Joe Biden              Precinct 4B                                            01 
01040020016000136DEM       President and Vice-President                            Barack Obama / Joe Biden              Precinct 4C                                            01 
01040020017000337DEM       President and Vice-President                            Barack Obama / Joe Biden              Precinct 4D                                            01 
01040020018000082DEM       President and Vice-President                            Barack Obama / Joe Biden              Precinct 4E                                            01 
01040030001000004LIB       President and Vice-President                            Gary Johnson / Jim Gray               Precinct 1A                                            01 
01040030002000024LIB       President and Vice-President                            Gary Johnson / Jim Gray               Precinct 1B                                            01 
01040030003000009LIB       President and Vice-President                            Gary Johnson / Jim Gray               Precinct 1C                                            01 
01040030004000011LIB       President and Vice-President                            Gary Johnson / Jim Gray               Precinct 1D                                            01 
01040030005000004LIB       President and Vice-President                            Gary Johnson / Jim Gray               Precinct 1E                                            01 
01040030006000013LIB       President and Vice-President                            Gary Johnson / Jim Gray               Precinct 2A                                            01 
01040030007000004LIB       President and Vice-President                            Gary Johnson / Jim Gray               Precinct 2B                                            01 
01040030008000006LIB       President and Vice-President                            Gary Johnson / Jim Gray               Precinct 2C                                            01 
01040030009000013LIB       President and Vice-President                            Gary Johnson / Jim Gray               Precinct 2D                                            01 
01040030010000010LIB       President and Vice-President                            Gary Johnson / Jim Gray               Precinct 3A                                            01 
01040030011000008LIB       President and Vice-President                            Gary Johnson / Jim Gray               Precinct 3B                                            01 
01040030012000019LIB       President and Vice-President                            Gary Johnson / Jim Gray               Precinct 3C                                            01 
01040030013000013LIB       President and Vice-President                            Gary Johnson / Jim Gray               Precinct 3D                                            01 
01040030014000003LIB       President and Vice-President                            Gary Johnson / Jim Gray               Precinct 4A                                            01 
01040030015000005LIB       President and Vice-President                            Gary Johnson / Jim Gray               Precinct 4B                                            01 
01040030016000009LIB       President and Vice-President                            Gary Johnson / Jim Gray               Precinct 4C                                            01 
01040030017000008LIB       President and Vice-President                            Gary Johnson / Jim Gray               Precinct 4D                                            01 
01040030018000003LIB       President and Vice-President                            Gary Johnson / Jim Gray               Precinct 4E                                            01 
01040040001000001GRN       President and Vice-President                            Jill Stein / Cheri Honkala            Precinct 1A                                            01 
01040040002000004GRN       President and Vice-President                            Jill Stein / Cheri Honkala            Precinct 1B                                            01 
01040040003000002GRN       President and Vice-President                            Jill Stein / Cheri Honkala            Precinct 1C                                            01 
01040040004000003GRN       President and Vice-President                            Jill Stein / Cheri Honkala            Precinct 1D                                            01 
01040040005000000GRN       President and Vice-President                            Jill Stein / Cheri Honkala            Precinct 1E                                            01 
01040040006000003GRN       President and Vice-President                            Jill Stein / Cheri Honkala            Precinct 2A                                            01 
01040040007000001GRN       President and Vice-President                            Jill Stein / Cheri Honkala            Precinct 2B                                            01 
01040040008000001GRN       President and Vice-President                            Jill Stein / Cheri Honkala            Precinct 2C                                            01 
01040040009000001GRN       President and Vice-President                            Jill Stein / Cheri Honkala            Precinct 2D                                            01 
01040040010000000GRN       President and Vice-President                            Jill Stein / Cheri Honkala            Precinct 3A                                            01 
01040040011000002GRN       President and Vice-President                            Jill Stein / Cheri Honkala            Precinct 3B                                            01 
01040040012000004GRN       President and Vice-President                            Jill Stein / Cheri Honkala            Precinct 3C                                            01 
01040040013000006GRN       President and Vice-President                            Jill Stein / Cheri Honkala            Precinct 3D                                            01 
01040040014000001GRN       President and Vice-President                            Jill Stein / Cheri Honkala            Precinct 4A                                            01 
01040040015000007GRN       President and Vice-President                            Jill Stein / Cheri Honkala            Precinct 4B                                            01 
01040040016000002GRN       President and Vice-President                            Jill Stein / Cheri Honkala            Precinct 4C                                            01 
01040040017000003GRN       President and Vice-President                            Jill Stein / Cheri Honkala            Precinct 4D                                            01 
01040040018000001GRN       President and Vice-President                            Jill Stein / Cheri Honkala            Precinct 4E                                            01 
01040050001000004NON       President and Vice-President                            WRITE-IN                              Precinct 1A                                            01 
01040050002000009NON       President and Vice-President                            WRITE-IN                              Precinct 1B                                            01 
01040050003000005NON       President and Vice-President                            WRITE-IN                              Precinct 1C                                            01 
01040050004000006NON       President and Vice-President                            WRITE-IN                              Precinct 1D                                            01 
01040050005000002NON       President and Vice-President                            WRITE-IN                              Precinct 1E                                            01 
01040050006000009NON       President and Vice-President                            WRITE-IN                              Precinct 2A                                            01 
01040050007000003NON       President and Vice-President                            WRITE-IN                              Precinct 2B                                            01 
01040050008000001NON       President and Vice-President                            WRITE-IN                              Precinct 2C                                            01 
01040050009000007NON       President and Vice-President                            WRITE-IN                              Precinct 2D                                            01 
01040050010000004NON       President and Vice-President                            WRITE-IN                              Precinct 3A                                            01 
01040050011000001NON       President and Vice-President                            WRITE-IN                              Precinct 3B                                            01 
01040050012000015NON       President and Vice-President                            WRITE-IN                              Precinct 3C                                            01 
01040050013000004NON       President and Vice-President                            WRITE-IN                              Precinct 3D                                            01 
01040050014000000NON       President and Vice-President                            WRITE-IN                              Precinct 4A                                            01 
01040050015000004NON       President and Vice-President                            WRITE-IN                              Precinct 4B                                            01 
01040050016000003NON       President and Vice-President                            WRITE-IN                              Precinct 4C                                            01 
01040050017000003NON       President and Vice-President                            WRITE-IN                              Precinct 4D                                            01 
01040050018000000NON       President and Vice-President                            WRITE-IN                              Precinct 4E                                            01 
01040060001000000          President and Vice-President                            OVER VOTES                            Precinct 1A                                            01 
01040060002000002          President and Vice-President                            OVER VOTES                            Precinct 1B                                            01 
01040060003000000          President and Vice-President                            OVER VOTES                            Precinct 1C                                            01 
01040060004000000          President and Vice-President                            OVER VOTES                            Precinct 1D                                            01 
01040060005000001          President and Vice-President                            OVER VOTES                            Precinct 1E                                            01 
01040060006000000          President and Vice-President                            OVER VOTES                            Precinct 2A                                            01 
01040060007000000          President and Vice-President                            OVER VOTES                            Precinct 2B                                            01 
01040060008000000          President and Vice-President                            OVER VOTES                            Precinct 2C                                            01 
01040060009000000          President and Vice-President                            OVER VOTES                            Precinct 2D                                            01 
01040060010000000          President and Vice-President                            OVER VOTES                            Precinct 3A                                            01 
01040060011000000          President and Vice-President                            OVER VOTES                            Precinct 3B                                            01 
01040060012000000          President and Vice-President                            OVER VOTES                            Precinct 3C                                            01 
01040060013000000          President and Vice-President                            OVER VOTES                            Precinct 3D                                            01 
01040060014000001          President and Vice-President                            OVER VOTES                            Precinct 4A                                            01 
01040060015000000          President and Vice-President                            OVER VOTES                            Precinct 4B                                            01 
01040060016000000          President and Vice-President                            OVER VOTES                            Precinct 4C                                            01 
01040060017000001          President and Vice-President                            OVER VOTES                            Precinct 4D                                            01 
01040060018000000          President and Vice-President                            OVER VOTES                            Precinct 4E                                            01 
01040070001000005          President and Vice-President                            UNDER VOTES                           Precinct 1A                                            01 
01040070002000014          President and Vice-President                            UNDER VOTES                           Precinct 1B                                            01 
01040070003000002          President and Vice-President                            UNDER VOTES                           Precinct 1C                                            01 
01040070004000008          President and Vice-President                            UNDER VOTES                           Precinct 1D                                            01 
01040070005000002          President and Vice-President                            UNDER VOTES                           Precinct 1E                                            01 
01040070006000001          President and Vice-President                            UNDER VOTES                           Precinct 2A                                            01 
01040070007000002          President and Vice-President                            UNDER VOTES                           Precinct 2B                                            01 
01040070008000002          President and Vice-President                            UNDER VOTES                           Precinct 2C                                            01 
01040070009000004          President and Vice-President                            UNDER VOTES                           Precinct 2D                                            01 
01040070010000000          President and Vice-President                            UNDER VOTES                           Precinct 3A                                            01 
01040070011000003          President and Vice-President                            UNDER VOTES                           Precinct 3B                                            01 
01040070012000002          President and Vice-President                            UNDER VOTES                           Precinct 3C                                            01 
01040070013000005          President and Vice-President                            UNDER VOTES                           Precinct 3D                                            01 
01040070014000000          President and Vice-President                            UNDER VOTES                           Precinct 4A                                            01 
01040070015000002          President and Vice-President                            UNDER VOTES                           Precinct 4B                                            01 
01040070016000001          President and Vice-President                            UNDER VOTES                           Precinct 4C                                            01 
01040070017000003          President and Vice-President                            UNDER VOTES                           Precinct 4D                                            01 
01040070018000001          President and Vice-President                            UNDER VOTES                           Precinct 4E                                            01 
01050010001000675REP       United States Senator                                   Ted Cruz                              Precinct 1A                                            01 
01050010002001152REP       United States Senator                                   Ted Cruz                              Precinct 1B                                            01 
01050010003000642REP       United States Senator                                   Ted Cruz                              Precinct 1C                                            01 
01050010004000525REP       United States Senator                                   Ted Cruz                              Precinct 1D                                            01 
01050010005000364REP       United States Senator                                   Ted Cruz                              Precinct 1E                                            01 
01050010006001496REP       United States Senator                                   Ted Cruz                              Precinct 2A                                            01 
01050010007000692REP       United States Senator                                   Ted Cruz                              Precinct 2B                                            01 
01050010008000964REP       United States Senator                                   Ted Cruz                              Precinct 2C                                            01 
01050010009000789REP       United States Senator                                   Ted Cruz                              Precinct 2D                                            01 
01050010010000366REP       United States Senator                                   Ted Cruz                              Precinct 3A                                            01 
01050010011000570REP       United States Senator                                   Ted Cruz                              Precinct 3B                                            01 
01050010012001219REP       United States Senator                                   Ted Cruz                              Precinct 3C                                            01 
01050010013001151REP       United States Senator                                   Ted Cruz                              Precinct 3D                                            01 
01050010014000676REP       United States Senator                                   Ted Cruz                              Precinct 4A                                            01 
01050010015000858REP       United States Senator                                   Ted Cruz                              Precinct 4B                                            01 
01050010016000674REP       United States Senator                                   Ted Cruz                              Precinct 4C                                            01 
01050010017001431REP       United States Senator                                   Ted Cruz                              Precinct 4D                                            01 
01050010018000518REP       United States Senator                                   Ted Cruz                              Precinct 4E                                            01 
01050020001000179DEM       United States Senator                                   Paul Sadler                           Precinct 1A                                            01 
01050020002000294DEM       United States Senator                                   Paul Sadler                           Precinct 1B                                            01 
01050020003000122DEM       United States Senator                                   Paul Sadler                           Precinct 1C                                            01 
01050020004000171DEM       United States Senator                                   Paul Sadler                           Precinct 1D                                            01 
01050020005000147DEM       United States Senator                                   Paul Sadler                           Precinct 1E                                            01 
01050020006000292DEM       United States Senator                                   Paul Sadler                           Precinct 2A                                            01 
01050020007000125DEM       United States Senator                                   Paul Sadler                           Precinct 2B                                            01 
01050020008000196DEM       United States Senator                                   Paul Sadler                           Precinct 2C                                            01 
01050020009000184DEM       United States Senator                                   Paul Sadler                           Precinct 2D                                            01 
01050020010000102DEM       United States Senator                                   Paul Sadler                           Precinct 3A                                            01 
01050020011000281DEM       United States Senator                                   Paul Sadler                           Precinct 3B                                            01 
01050020012000370DEM       United States Senator                                   Paul Sadler                           Precinct 3C                                            01 
01050020013000233DEM       United States Senator                                   Paul Sadler                           Precinct 3D                                            01 
01050020014000104DEM       United States Senator                                   Paul Sadler                           Precinct 4A                                            01 
01050020015000157DEM       United States Senator                                   Paul Sadler                           Precinct 4B                                            01 
01050020016000170DEM       United States Senator                                   Paul Sadler                           Precinct 4C                                            01 
01050020017000376DEM       United States Senator                                   Paul Sadler                           Precinct 4D                                            01 
01050020018000094DEM       United States Senator                                   Paul Sadler                           Precinct 4E                                            01 
01050030001000009LIB       United States Senator                                   John Jay Myers                        Precinct 1A                                            01 
01050030002000030LIB       United States Senator                                   John Jay Myers                        Precinct 1B                                            01 
01050030003000019LIB       United States Senator                                   John Jay Myers                        Precinct 1C                                            01 
01050030004000007LIB       United States Senator                                   John Jay Myers                        Precinct 1D                                            01 
01050030005000011LIB       United States Senator                                   John Jay Myers                        Precinct 1E                                            01 
01050030006000030LIB       United States Senator                                   John Jay Myers                        Precinct 2A                                            01 
01050030007000015LIB       United States Senator                                   John Jay Myers                        Precinct 2B                                            01 
01050030008000020LIB       United States Senator                                   John Jay Myers                        Precinct 2C                                            01 
01050030009000019LIB       United States Senator                                   John Jay Myers                        Precinct 2D                                            01 
01050030010000009LIB       United States Senator                                   John Jay Myers                        Precinct 3A                                            01 
01050030011000021LIB       United States Senator                                   John Jay Myers                        Precinct 3B                                            01 
01050030012000033LIB       United States Senator                                   John Jay Myers                        Precinct 3C                                            01 
01050030013000022LIB       United States Senator                                   John Jay Myers                        Precinct 3D                                            01 
01050030014000011LIB       United States Senator                                   John Jay Myers                        Precinct 4A                                            01 
01050030015000010LIB       United States Senator                                   John Jay Myers                        Precinct 4B                                            01 
01050030016000022LIB       United States Senator                                   John Jay Myers                        Precinct 4C                                            01 
01050030017000026LIB       United States Senator                                   John Jay Myers                        Precinct 4D                                            01 
01050030018000010LIB       United States Senator                                   John Jay Myers                        Precinct 4E                                            01 
01050040001000007GRN       United States Senator                                   David B. Collins                      Precinct 1A                                            01 
01050040002000008GRN       United States Senator                                   David B. Collins                      Precinct 1B                                            01 
01050040003000004GRN       United States Senator                                   David B. Collins                      Precinct 1C                                            01 
01050040004000007GRN       United States Senator                                   David B. Collins                      Precinct 1D                                            01 
01050040005000005GRN       United States Senator                                   David B. Collins                      Precinct 1E                                            01 
01050040006000014GRN       United States Senator                                   David B. Collins                      Precinct 2A                                            01 
01050040007000002GRN       United States Senator                                   David B. Collins                      Precinct 2B                                            01 
01050040008000011GRN       United States Senator                                   David B. Collins                      Precinct 2C                                            01 
01050040009000006GRN       United States Senator                                   David B. Collins                      Precinct 2D                                            01 
01050040010000004GRN       United States Senator                                   David B. Collins                      Precinct 3A                                            01 
01050040011000007GRN       United States Senator                                   David B. Collins                      Precinct 3B                                            01 
01050040012000018GRN       United States Senator                                   David B. Collins                      Precinct 3C                                            01 
01050040013000013GRN       United States Senator                                   David B. Collins                      Precinct 3D                                            01 
01050040014000005GRN       United States Senator                                   David B. Collins                      Precinct 4A                                            01 
01050040015000010GRN       United States Senator                                   David B. Collins                      Precinct 4B                                            01 
01050040016000007GRN       United States Senator                                   David B. Collins                      Precinct 4C                                            01 
01050040017000006GRN       United States Senator                                   David B. Collins                      Precinct 4D                                            01 
01050040018000001GRN       United States Senator                                   David B. Collins                      Precinct 4E                                            01 
01050050001000000          United States Senator                                   OVER VOTES                            Precinct 1A                                            01 
01050050002000000          United States Senator                                   OVER VOTES                            Precinct 1B                                            01 
01050050003000000          United States Senator                                   OVER VOTES                            Precinct 1C                                            01 
01050050004000000          United States Senator                                   OVER VOTES                            Precinct 1D                                            01 
01050050005000000          United States Senator                                   OVER VOTES                            Precinct 1E                                            01 
01050050006000000          United States Senator                                   OVER VOTES                            Precinct 2A                                            01 
01050050007000000          United States Senator                                   OVER VOTES                            Precinct 2B                                            01 
01050050008000000          United States Senator                                   OVER VOTES                            Precinct 2C                                            01 
01050050009000000          United States Senator                                   OVER VOTES                            Precinct 2D                                            01 
01050050010000000          United States Senator                                   OVER VOTES                            Precinct 3A                                            01 
01050050011000002          United States Senator                                   OVER VOTES                            Precinct 3B                                            01 
01050050012000000          United States Senator                                   OVER VOTES                            Precinct 3C                                            01 
01050050013000000          United States Senator                                   OVER VOTES                            Precinct 3D                                            01 
01050050014000000          United States Senator                                   OVER VOTES                            Precinct 4A                                            01 
01050050015000000          United States Senator                                   OVER VOTES                            Precinct 4B                                            01 
01050050016000000          United States Senator                                   OVER VOTES                            Precinct 4C                                            01 
01050050017000000          United States Senator                                   OVER VOTES                            Precinct 4D                                            01 
01050050018000000          United States Senator                                   OVER VOTES                            Precinct 4E                                            01 
01050060001000019          United States Senator                                   UNDER VOTES                           Precinct 1A                                            01 
01050060002000051          United States Senator                                   UNDER VOTES                           Precinct 1B                                            01 
01050060003000020          United States Senator                                   UNDER VOTES                           Precinct 1C                                            01 
01050060004000024          United States Senator                                   UNDER VOTES                           Precinct 1D                                            01 
01050060005000020          United States Senator                                   UNDER VOTES                           Precinct 1E                                            01 
01050060006000040          United States Senator                                   UNDER VOTES                           Precinct 2A                                            01 
01050060007000018          United States Senator                                   UNDER VOTES                           Precinct 2B                                            01 
01050060008000013          United States Senator                                   UNDER VOTES                           Precinct 2C                                            01 
01050060009000021          United States Senator                                   UNDER VOTES                           Precinct 2D                                            01 
01050060010000009          United States Senator                                   UNDER VOTES                           Precinct 3A                                            01 
01050060011000011          United States Senator                                   UNDER VOTES                           Precinct 3B                                            01 
01050060012000025          United States Senator                                   UNDER VOTES                           Precinct 3C                                            01 
01050060013000029          United States Senator                                   UNDER VOTES                           Precinct 3D                                            01 
01050060014000023          United States Senator                                   UNDER VOTES                           Precinct 4A                                            01 
01050060015000025          United States Senator                                   UNDER VOTES                           Precinct 4B                                            01 
01050060016000008          United States Senator                                   UNDER VOTES                           Precinct 4C                                            01 
01050060017000022          United States Senator                                   UNDER VOTES                           Precinct 4D                                            01 
01050060018000014          United States Senator                                   UNDER VOTES                           Precinct 4E                                            01 
01060010001000695REP       United States Representative, District 5                Jeb Hensarling                        Precinct 1A                                            01 
01060010002001186REP       United States Representative, District 5                Jeb Hensarling                        Precinct 1B                                            01 
01060010003000668REP       United States Representative, District 5                Jeb Hensarling                        Precinct 1C                                            01 
01060010004000538REP       United States Representative, District 5                Jeb Hensarling                        Precinct 1D                                            01 
01060010005000372REP       United States Representative, District 5                Jeb Hensarling                        Precinct 1E                                            01 
01060010006001545REP       United States Representative, District 5                Jeb Hensarling                        Precinct 2A                                            01 
01060010007000692REP       United States Representative, District 5                Jeb Hensarling                        Precinct 2B                                            01 
01060010008000990REP       United States Representative, District 5                Jeb Hensarling                        Precinct 2C                                            01 
01060010009000808REP       United States Representative, District 5                Jeb Hensarling                        Precinct 2D                                            01 
01060010010000376REP       United States Representative, District 5                Jeb Hensarling                        Precinct 3A                                            01 
01060010011000594REP       United States Representative, District 5                Jeb Hensarling                        Precinct 3B                                            01 
01060010012001225REP       United States Representative, District 5                Jeb Hensarling                        Precinct 3C                                            01 
01060010013001154REP       United States Representative, District 5                Jeb Hensarling                        Precinct 3D                                            01 
01060010014000689REP       United States Representative, District 5                Jeb Hensarling                        Precinct 4A                                            01 
01060010015000875REP       United States Representative, District 5                Jeb Hensarling                        Precinct 4B                                            01 
01060010016000695REP       United States Representative, District 5                Jeb Hensarling                        Precinct 4C                                            01 
01060010017001425REP       United States Representative, District 5                Jeb Hensarling                        Precinct 4D                                            01 
01060010018000537REP       United States Representative, District 5                Jeb Hensarling                        Precinct 4E                                            01 
01060020001000141DEM       United States Representative, District 5                Linda S. Mrosko                       Precinct 1A                                            01 
01060020002000231DEM       United States Representative, District 5                Linda S. Mrosko                       Precinct 1B                                            01 
01060020003000088DEM       United States Representative, District 5                Linda S. Mrosko                       Precinct 1C                                            01 
01060020004000145DEM       United States Representative, District 5                Linda S. Mrosko                       Precinct 1D                                            01 
01060020005000130DEM       United States Representative, District 5                Linda S. Mrosko                       Precinct 1E                                            01 
01060020006000225DEM       United States Representative, District 5                Linda S. Mrosko                       Precinct 2A                                            01 
01060020007000109DEM       United States Representative, District 5                Linda S. Mrosko                       Precinct 2B                                            01 
01060020008000161DEM       United States Representative, District 5                Linda S. Mrosko                       Precinct 2C                                            01 
01060020009000157DEM       United States Representative, District 5                Linda S. Mrosko                       Precinct 2D                                            01 
01060020010000087DEM       United States Representative, District 5                Linda S. Mrosko                       Precinct 3A                                            01 
01060020011000260DEM       United States Representative, District 5                Linda S. Mrosko                       Precinct 3B                                            01 
01060020012000337DEM       United States Representative, District 5                Linda S. Mrosko                       Precinct 3C                                            01 
01060020013000207DEM       United States Representative, District 5                Linda S. Mrosko                       Precinct 3D                                            01 
01060020014000089DEM       United States Representative, District 5                Linda S. Mrosko                       Precinct 4A                                            01 
01060020015000126DEM       United States Representative, District 5                Linda S. Mrosko                       Precinct 4B                                            01 
01060020016000144DEM       United States Representative, District 5                Linda S. Mrosko                       Precinct 4C                                            01 
01060020017000342DEM       United States Representative, District 5                Linda S. Mrosko                       Precinct 4D                                            01 
01060020018000077DEM       United States Representative, District 5                Linda S. Mrosko                       Precinct 4E                                            01 
01060030001000023LIB       United States Representative, District 5                Ken Ashby                             Precinct 1A                                            01 
01060030002000042LIB       United States Representative, District 5                Ken Ashby                             Precinct 1B                                            01 
01060030003000023LIB       United States Representative, District 5                Ken Ashby                             Precinct 1C                                            01 
01060030004000020LIB       United States Representative, District 5                Ken Ashby                             Precinct 1D                                            01 
01060030005000013LIB       United States Representative, District 5                Ken Ashby                             Precinct 1E                                            01 
01060030006000050LIB       United States Representative, District 5                Ken Ashby                             Precinct 2A                                            01 
01060030007000021LIB       United States Representative, District 5                Ken Ashby                             Precinct 2B                                            01 
01060030008000030LIB       United States Representative, District 5                Ken Ashby                             Precinct 2C                                            01 
01060030009000019LIB       United States Representative, District 5                Ken Ashby                             Precinct 2D                                            01 
01060030010000015LIB       United States Representative, District 5                Ken Ashby                             Precinct 3A                                            01 
01060030011000021LIB       United States Representative, District 5                Ken Ashby                             Precinct 3B                                            01 
01060030012000050LIB       United States Representative, District 5                Ken Ashby                             Precinct 3C                                            01 
01060030013000031LIB       United States Representative, District 5                Ken Ashby                             Precinct 3D                                            01 
01060030014000012LIB       United States Representative, District 5                Ken Ashby                             Precinct 4A                                            01 
01060030015000027LIB       United States Representative, District 5                Ken Ashby                             Precinct 4B                                            01 
01060030016000030LIB       United States Representative, District 5                Ken Ashby                             Precinct 4C                                            01 
01060030017000047LIB       United States Representative, District 5                Ken Ashby                             Precinct 4D                                            01 
01060030018000008LIB       United States Representative, District 5                Ken Ashby                             Precinct 4E                                            01 
01060040001000000          United States Representative, District 5                OVER VOTES                            Precinct 1A                                            01 
01060040002000001          United States Representative, District 5                OVER VOTES                            Precinct 1B                                            01 
01060040003000000          United States Representative, District 5                OVER VOTES                            Precinct 1C                                            01 
01060040004000000          United States Representative, District 5                OVER VOTES                            Precinct 1D                                            01 
01060040005000000          United States Representative, District 5                OVER VOTES                            Precinct 1E                                            01 
01060040006000000          United States Representative, District 5                OVER VOTES                            Precinct 2A                                            01 
01060040007000000          United States Representative, District 5                OVER VOTES                            Precinct 2B                                            01 
01060040008000001          United States Representative, District 5                OVER VOTES                            Precinct 2C                                            01 
01060040009000000          United States Representative, District 5                OVER VOTES                            Precinct 2D                                            01 
01060040010000000          United States Representative, District 5                OVER VOTES                            Precinct 3A                                            01 
01060040011000000          United States Representative, District 5                OVER VOTES                            Precinct 3B                                            01 
01060040012000001          United States Representative, District 5                OVER VOTES                            Precinct 3C                                            01 
01060040013000000          United States Representative, District 5                OVER VOTES                            Precinct 3D                                            01 
01060040014000002          United States Representative, District 5                OVER VOTES                            Precinct 4A                                            01 
01060040015000000          United States Representative, District 5                OVER VOTES                            Precinct 4B                                            01 
01060040016000000          United States Representative, District 5                OVER VOTES                            Precinct 4C                                            01 
01060040017000001          United States Representative, District 5                OVER VOTES                            Precinct 4D                                            01 
01060040018000000          United States Representative, District 5                OVER VOTES                            Precinct 4E                                            01 
01060050001000030          United States Representative, District 5                UNDER VOTES                           Precinct 1A                                            01 
01060050002000075          United States Representative, District 5                UNDER VOTES                           Precinct 1B                                            01 
01060050003000028          United States Representative, District 5                UNDER VOTES                           Precinct 1C                                            01 
01060050004000031          United States Representative, District 5                UNDER VOTES                           Precinct 1D                                            01 
01060050005000032          United States Representative, District 5                UNDER VOTES                           Precinct 1E                                            01 
01060050006000052          United States Representative, District 5                UNDER VOTES                           Precinct 2A                                            01 
01060050007000030          United States Representative, District 5                UNDER VOTES                           Precinct 2B                                            01 
01060050008000022          United States Representative, District 5                UNDER VOTES                           Precinct 2C                                            01 
01060050009000035          United States Representative, District 5                UNDER VOTES                           Precinct 2D                                            01 
01060050010000012          United States Representative, District 5                UNDER VOTES                           Precinct 3A                                            01 
01060050011000017          United States Representative, District 5                UNDER VOTES                           Precinct 3B                                            01 
01060050012000052          United States Representative, District 5                UNDER VOTES                           Precinct 3C                                            01 
01060050013000056          United States Representative, District 5                UNDER VOTES                           Precinct 3D                                            01 
01060050014000027          United States Representative, District 5                UNDER VOTES                           Precinct 4A                                            01 
01060050015000032          United States Representative, District 5                UNDER VOTES                           Precinct 4B                                            01 
01060050016000012          United States Representative, District 5                UNDER VOTES                           Precinct 4C                                            01 
01060050017000046          United States Representative, District 5                UNDER VOTES                           Precinct 4D                                            01 
01060050018000015          United States Representative, District 5                UNDER VOTES                           Precinct 4E                                            01 
01070010001000657REP       Railroad Commissioner                                   Christi Craddick                      Precinct 1A                                            01 
01070010002001115REP       Railroad Commissioner                                   Christi Craddick                      Precinct 1B                                            01 
01070010003000632REP       Railroad Commissioner                                   Christi Craddick                      Precinct 1C                                            01 
01070010004000524REP       Railroad Commissioner                                   Christi Craddick                      Precinct 1D                                            01 
01070010005000352REP       Railroad Commissioner                                   Christi Craddick                      Precinct 1E                                            01 
01070010006001473REP       Railroad Commissioner                                   Christi Craddick                      Precinct 2A                                            01 
01070010007000661REP       Railroad Commissioner                                   Christi Craddick                      Precinct 2B                                            01 
01070010008000946REP       Railroad Commissioner                                   Christi Craddick                      Precinct 2C                                            01 
01070010009000766REP       Railroad Commissioner                                   Christi Craddick                      Precinct 2D                                            01 
01070010010000364REP       Railroad Commissioner                                   Christi Craddick                      Precinct 3A                                            01 
01070010011000559REP       Railroad Commissioner                                   Christi Craddick                      Precinct 3B                                            01 
01070010012001163REP       Railroad Commissioner                                   Christi Craddick                      Precinct 3C                                            01 
01070010013001110REP       Railroad Commissioner                                   Christi Craddick                      Precinct 3D                                            01 
01070010014000648REP       Railroad Commissioner                                   Christi Craddick                      Precinct 4A                                            01 
01070010015000846REP       Railroad Commissioner                                   Christi Craddick                      Precinct 4B                                            01 
01070010016000683REP       Railroad Commissioner                                   Christi Craddick                      Precinct 4C                                            01 
01070010017001408REP       Railroad Commissioner                                   Christi Craddick                      Precinct 4D                                            01 
01070010018000503REP       Railroad Commissioner                                   Christi Craddick                      Precinct 4E                                            01 
01070020001000160DEM       Railroad Commissioner                                   Dale Henry                            Precinct 1A                                            01 
01070020002000283DEM       Railroad Commissioner                                   Dale Henry                            Precinct 1B                                            01 
01070020003000104DEM       Railroad Commissioner                                   Dale Henry                            Precinct 1C                                            01 
01070020004000148DEM       Railroad Commissioner                                   Dale Henry                            Precinct 1D                                            01 
01070020005000140DEM       Railroad Commissioner                                   Dale Henry                            Precinct 1E                                            01 
01070020006000274DEM       Railroad Commissioner                                   Dale Henry                            Precinct 2A                                            01 
01070020007000124DEM       Railroad Commissioner                                   Dale Henry                            Precinct 2B                                            01 
01070020008000176DEM       Railroad Commissioner                                   Dale Henry                            Precinct 2C                                            01 
01070020009000170DEM       Railroad Commissioner                                   Dale Henry                            Precinct 2D                                            01 
01070020010000093DEM       Railroad Commissioner                                   Dale Henry                            Precinct 3A                                            01 
01070020011000273DEM       Railroad Commissioner                                   Dale Henry                            Precinct 3B                                            01 
01070020012000375DEM       Railroad Commissioner                                   Dale Henry                            Precinct 3C                                            01 
01070020013000218DEM       Railroad Commissioner                                   Dale Henry                            Precinct 3D                                            01 
01070020014000100DEM       Railroad Commissioner                                   Dale Henry                            Precinct 4A                                            01 
01070020015000138DEM       Railroad Commissioner                                   Dale Henry                            Precinct 4B                                            01 
01070020016000145DEM       Railroad Commissioner                                   Dale Henry                            Precinct 4C                                            01 
01070020017000345DEM       Railroad Commissioner                                   Dale Henry                            Precinct 4D                                            01 
01070020018000091DEM       Railroad Commissioner                                   Dale Henry                            Precinct 4E                                            01 
01070030001000018LIB       Railroad Commissioner                                   Vivekananda (Vik) Wall                Precinct 1A                                            01 
01070030002000019LIB       Railroad Commissioner                                   Vivekananda (Vik) Wall                Precinct 1B                                            01 
01070030003000015LIB       Railroad Commissioner                                   Vivekananda (Vik) Wall                Precinct 1C                                            01 
01070030004000011LIB       Railroad Commissioner                                   Vivekananda (Vik) Wall                Precinct 1D                                            01 
01070030005000006LIB       Railroad Commissioner                                   Vivekananda (Vik) Wall                Precinct 1E                                            01 
01070030006000019LIB       Railroad Commissioner                                   Vivekananda (Vik) Wall                Precinct 2A                                            01 
01070030007000017LIB       Railroad Commissioner                                   Vivekananda (Vik) Wall                Precinct 2B                                            01 
01070030008000017LIB       Railroad Commissioner                                   Vivekananda (Vik) Wall                Precinct 2C                                            01 
01070030009000020LIB       Railroad Commissioner                                   Vivekananda (Vik) Wall                Precinct 2D                                            01 
01070030010000007LIB       Railroad Commissioner                                   Vivekananda (Vik) Wall                Precinct 3A                                            01 
01070030011000016LIB       Railroad Commissioner                                   Vivekananda (Vik) Wall                Precinct 3B                                            01 
01070030012000023LIB       Railroad Commissioner                                   Vivekananda (Vik) Wall                Precinct 3C                                            01 
01070030013000021LIB       Railroad Commissioner                                   Vivekananda (Vik) Wall                Precinct 3D                                            01 
01070030014000011LIB       Railroad Commissioner                                   Vivekananda (Vik) Wall                Precinct 4A                                            01 
01070030015000012LIB       Railroad Commissioner                                   Vivekananda (Vik) Wall                Precinct 4B                                            01 
01070030016000017LIB       Railroad Commissioner                                   Vivekananda (Vik) Wall                Precinct 4C                                            01 
01070030017000028LIB       Railroad Commissioner                                   Vivekananda (Vik) Wall                Precinct 4D                                            01 
01070030018000008LIB       Railroad Commissioner                                   Vivekananda (Vik) Wall                Precinct 4E                                            01 
01070040001000010GRN       Railroad Commissioner                                   Chris Kennedy                         Precinct 1A                                            01 
01070040002000024GRN       Railroad Commissioner                                   Chris Kennedy                         Precinct 1B                                            01 
01070040003000011GRN       Railroad Commissioner                                   Chris Kennedy                         Precinct 1C                                            01 
01070040004000015GRN       Railroad Commissioner                                   Chris Kennedy                         Precinct 1D                                            01 
01070040005000008GRN       Railroad Commissioner                                   Chris Kennedy                         Precinct 1E                                            01 
01070040006000025GRN       Railroad Commissioner                                   Chris Kennedy                         Precinct 2A                                            01 
01070040007000012GRN       Railroad Commissioner                                   Chris Kennedy                         Precinct 2B                                            01 
01070040008000018GRN       Railroad Commissioner                                   Chris Kennedy                         Precinct 2C                                            01 
01070040009000014GRN       Railroad Commissioner                                   Chris Kennedy                         Precinct 2D                                            01 
01070040010000009GRN       Railroad Commissioner                                   Chris Kennedy                         Precinct 3A                                            01 
01070040011000015GRN       Railroad Commissioner                                   Chris Kennedy                         Precinct 3B                                            01 
01070040012000048GRN       Railroad Commissioner                                   Chris Kennedy                         Precinct 3C                                            01 
01070040013000023GRN       Railroad Commissioner                                   Chris Kennedy                         Precinct 3D                                            01 
01070040014000010GRN       Railroad Commissioner                                   Chris Kennedy                         Precinct 4A                                            01 
01070040015000021GRN       Railroad Commissioner                                   Chris Kennedy                         Precinct 4B                                            01 
01070040016000017GRN       Railroad Commissioner                                   Chris Kennedy                         Precinct 4C                                            01 
01070040017000022GRN       Railroad Commissioner                                   Chris Kennedy                         Precinct 4D                                            01 
01070040018000007GRN       Railroad Commissioner                                   Chris Kennedy                         Precinct 4E                                            01 
01070050001000000          Railroad Commissioner                                   OVER VOTES                            Precinct 1A                                            01 
01070050002000000          Railroad Commissioner                                   OVER VOTES                            Precinct 1B                                            01 
01070050003000000          Railroad Commissioner                                   OVER VOTES                            Precinct 1C                                            01 
01070050004000000          Railroad Commissioner                                   OVER VOTES                            Precinct 1D                                            01 
01070050005000000          Railroad Commissioner                                   OVER VOTES                            Precinct 1E                                            01 
01070050006000000          Railroad Commissioner                                   OVER VOTES                            Precinct 2A                                            01 
01070050007000000          Railroad Commissioner                                   OVER VOTES                            Precinct 2B                                            01 
01070050008000000          Railroad Commissioner                                   OVER VOTES                            Precinct 2C                                            01 
01070050009000000          Railroad Commissioner                                   OVER VOTES                            Precinct 2D                                            01 
01070050010000000          Railroad Commissioner                                   OVER VOTES                            Precinct 3A                                            01 
01070050011000000          Railroad Commissioner                                   OVER VOTES                            Precinct 3B                                            01 
01070050012000000          Railroad Commissioner                                   OVER VOTES                            Precinct 3C                                            01 
