01030010001000290000190000100000000000000000000REP       STRAIGHT PARTY                                          REPUBLICAN PARTY                      PRECINCT 101                                           01 
01030010002000265000167000098000000000000000000REP       STRAIGHT PARTY                                          REPUBLICAN PARTY                      PRECINCT 202                                           01 
01030010003000106000069000037000000000000000000REP       STRAIGHT PARTY                                          REPUBLICAN PARTY                      PRECINCT 303                                           01 
01030010004000109000072000037000000000000000000REP       STRAIGHT PARTY                                          REPUBLICAN PARTY                      PRECINCT 404                                           01 
01030010005000059000041000018000000000000000000REP       STRAIGHT PARTY                                          REPUBLICAN PARTY                      PRECINCT 305                                           01 
01030010006000103000059000044000000000000000000REP       STRAIGHT PARTY                                          REPUBLICAN PARTY                      PRECINCT 406                                           01 
01030020001000040000017000023000000000000000000DEM       STRAIGHT PARTY                                          DEMOCRATIC PARTY                      PRECINCT 101                                           01 
01030020002000062000025000037000000000000000000DEM       STRAIGHT PARTY                                          DEMOCRATIC PARTY                      PRECINCT 202                                           01 
01030020003000042000017000025000000000000000000DEM       STRAIGHT PARTY                                          DEMOCRATIC PARTY                      PRECINCT 303                                           01 
01030020004000030000016000014000000000000000000DEM       STRAIGHT PARTY                                          DEMOCRATIC PARTY                      PRECINCT 404                                           01 
01030020005000029000019000010000000000000000000DEM       STRAIGHT PARTY                                          DEMOCRATIC PARTY                      PRECINCT 305                                           01 
01030020006000033000014000019000000000000000000DEM       STRAIGHT PARTY                                          DEMOCRATIC PARTY                      PRECINCT 406                                           01 
01030030001000003000001000002000000000000000000LIB       STRAIGHT PARTY                                          LIBERTARIAN PARTY                     PRECINCT 101                                           01 
01030030002000001000001000000000000000000000000LIB       STRAIGHT PARTY                                          LIBERTARIAN PARTY                     PRECINCT 202                                           01 
01030030003000002000001000001000000000000000000LIB       STRAIGHT PARTY                                          LIBERTARIAN PARTY                     PRECINCT 303                                           01 
01030030004000000000000000000000000000000000000LIB       STRAIGHT PARTY                                          LIBERTARIAN PARTY                     PRECINCT 404                                           01 
01030030005000000000000000000000000000000000000LIB       STRAIGHT PARTY                                          LIBERTARIAN PARTY                     PRECINCT 305                                           01 
01030030006000004000002000002000000000000000000LIB       STRAIGHT PARTY                                          LIBERTARIAN PARTY                     PRECINCT 406                                           01 
01030040001000000000000000000000000000000000000GRN       STRAIGHT PARTY                                          GREEN PARTY                           PRECINCT 101                                           01 
01030040002000001000001000000000000000000000000GRN       STRAIGHT PARTY                                          GREEN PARTY                           PRECINCT 202                                           01 
01030040003000001000001000000000000000000000000GRN       STRAIGHT PARTY                                          GREEN PARTY                           PRECINCT 303                                           01 
01030040004000000000000000000000000000000000000GRN       STRAIGHT PARTY                                          GREEN PARTY                           PRECINCT 404                                           01 
01030040005000000000000000000000000000000000000GRN       STRAIGHT PARTY                                          GREEN PARTY                           PRECINCT 305                                           01 
01030040006000000000000000000000000000000000000GRN       STRAIGHT PARTY                                          GREEN PARTY                           PRECINCT 406                                           01 
01030050001000000000000000000000000000000000000          STRAIGHT PARTY                                          OVER VOTES                            PRECINCT 101                                           01 
01030050002000000000000000000000000000000000000          STRAIGHT PARTY                                          OVER VOTES                            PRECINCT 202                                           01 
01030050003000000000000000000000000000000000000          STRAIGHT PARTY                                          OVER VOTES                            PRECINCT 303                                           01 
01030050004000000000000000000000000000000000000          STRAIGHT PARTY                                          OVER VOTES                            PRECINCT 404                                           01 
01030050005000000000000000000000000000000000000          STRAIGHT PARTY                                          OVER VOTES                            PRECINCT 305                                           01 
01030050006000000000000000000000000000000000000          STRAIGHT PARTY                                          OVER VOTES                            PRECINCT 406                                           01 
01030060001000226000137000089000000000000000000          STRAIGHT PARTY                                          UNDER VOTES                           PRECINCT 101                                           01 
01030060002000224000138000086000000000000000000          STRAIGHT PARTY                                          UNDER VOTES                           PRECINCT 202                                           01 
01030060003000160000093000067000000000000000000          STRAIGHT PARTY                                          UNDER VOTES                           PRECINCT 303                                           01 
01030060004000206000135000071000000000000000000          STRAIGHT PARTY                                          UNDER VOTES                           PRECINCT 404                                           01 
01030060005000051000033000018000000000000000000          STRAIGHT PARTY                                          UNDER VOTES                           PRECINCT 305                                           01 
01030060006000087000064000023000000000000000000          STRAIGHT PARTY                                          UNDER VOTES                           PRECINCT 406                                           01 
01040010001000493000314000179000000000000000000REP       President and Vice-President                            Mitt Romney / Paul Ryan               PRECINCT 101                                           01 
01040010002000456000294000162000000000000000000REP       President and Vice-President                            Mitt Romney / Paul Ryan               PRECINCT 202                                           01 
01040010003000217000138000079000000000000000000REP       President and Vice-President                            Mitt Romney / Paul Ryan               PRECINCT 303                                           01 
01040010004000268000184000084000000000000000000REP       President and Vice-President                            Mitt Romney / Paul Ryan               PRECINCT 404                                           01 
01040010005000097000068000029000000000000000000REP       President and Vice-President                            Mitt Romney / Paul Ryan               PRECINCT 305                                           01 
01040010006000167000107000060000000000000000000REP       President and Vice-President                            Mitt Romney / Paul Ryan               PRECINCT 406                                           01 
01040020001000058000025000033000000000000000000DEM       President and Vice-President                            Barack Obama / Joe Biden              PRECINCT 101                                           01 
01040020002000092000036000056000000000000000000DEM       President and Vice-President                            Barack Obama / Joe Biden              PRECINCT 202                                           01 
01040020003000086000039000047000000000000000000DEM       President and Vice-President                            Barack Obama / Joe Biden              PRECINCT 303                                           01 
01040020004000073000037000036000000000000000000DEM       President and Vice-President                            Barack Obama / Joe Biden              PRECINCT 404                                           01 
01040020005000042000025000017000000000000000000DEM       President and Vice-President                            Barack Obama / Joe Biden              PRECINCT 305                                           01 
01040020006000058000030000028000000000000000000DEM       President and Vice-President                            Barack Obama / Joe Biden              PRECINCT 406                                           01 
01040030001000005000004000001000000000000000000LIB       President and Vice-President                            Gary Johnson / Jim Gray               PRECINCT 101                                           01 
01040030002000001000000000001000000000000000000LIB       President and Vice-President                            Gary Johnson / Jim Gray               PRECINCT 202                                           01 
01040030003000006000002000004000000000000000000LIB       President and Vice-President                            Gary Johnson / Jim Gray               PRECINCT 303                                           01 
01040030004000002000000000002000000000000000000LIB       President and Vice-President                            Gary Johnson / Jim Gray               PRECINCT 404                                           01 
01040030005000000000000000000000000000000000000LIB       President and Vice-President                            Gary Johnson / Jim Gray               PRECINCT 305                                           01 
01040030006000004000002000002000000000000000000LIB       President and Vice-President                            Gary Johnson / Jim Gray               PRECINCT 406                                           01 
01040040001000001000000000001000000000000000000GRN       President and Vice-President                            Jill Stein / Cheri Honkala            PRECINCT 101                                           01 
01040040002000001000000000001000000000000000000GRN       President and Vice-President                            Jill Stein / Cheri Honkala            PRECINCT 202                                           01 
01040040003000001000001000000000000000000000000GRN       President and Vice-President                            Jill Stein / Cheri Honkala            PRECINCT 303                                           01 
01040040004000000000000000000000000000000000000GRN       President and Vice-President                            Jill Stein / Cheri Honkala            PRECINCT 404                                           01 
01040040005000000000000000000000000000000000000GRN       President and Vice-President                            Jill Stein / Cheri Honkala            PRECINCT 305                                           01 
01040040006000000000000000000000000000000000000GRN       President and Vice-President                            Jill Stein / Cheri Honkala            PRECINCT 406                                           01 
01040050001000000000000000000000000000000000000NON       President and Vice-President                            WRITE-IN                              PRECINCT 101                                           01 
01040050002000001000001000000000000000000000000NON       President and Vice-President                            WRITE-IN                              PRECINCT 202                                           01 
01040050003000000000000000000000000000000000000NON       President and Vice-President                            WRITE-IN                              PRECINCT 303                                           01 
01040050004000000000000000000000000000000000000NON       President and Vice-President                            WRITE-IN                              PRECINCT 404                                           01 
01040050005000000000000000000000000000000000000NON       President and Vice-President                            WRITE-IN                              PRECINCT 305                                           01 
01040050006000000000000000000000000000000000000NON       President and Vice-President                            WRITE-IN                              PRECINCT 406                                           01 
01040060001000000000000000000000000000000000000          President and Vice-President                            OVER VOTES                            PRECINCT 101                                           01 
01040060002000000000000000000000000000000000000          President and Vice-President                            OVER VOTES                            PRECINCT 202                                           01 
01040060003000001000001000000000000000000000000          President and Vice-President                            OVER VOTES                            PRECINCT 303                                           01 
01040060004000000000000000000000000000000000000          President and Vice-President                            OVER VOTES                            PRECINCT 404                                           01 
01040060005000000000000000000000000000000000000          President and Vice-President                            OVER VOTES                            PRECINCT 305                                           01 
01040060006000000000000000000000000000000000000          President and Vice-President                            OVER VOTES                            PRECINCT 406                                           01 
01040070001000002000002000000000000000000000000          President and Vice-President                            UNDER VOTES                           PRECINCT 101                                           01 
01040070002000002000001000001000000000000000000          President and Vice-President                            UNDER VOTES                           PRECINCT 202                                           01 
01040070003000000000000000000000000000000000000          President and Vice-President                            UNDER VOTES                           PRECINCT 303                                           01 
01040070004000002000002000000000000000000000000          President and Vice-President                            UNDER VOTES                           PRECINCT 404                                           01 
01040070005000000000000000000000000000000000000          President and Vice-President                            UNDER VOTES                           PRECINCT 305                                           01 
01040070006000000000000000000000000000000000000          President and Vice-President                            UNDER VOTES                           PRECINCT 406                                           01 
01050010001000487000309000178000000000000000000REP       United States Senator                                   Ted Cruz                              PRECINCT 101                                           01 
01050010002000451000286000165000000000000000000REP       United States Senator                                   Ted Cruz                              PRECINCT 202                                           01 
01050010003000210000128000082000000000000000000REP       United States Senator                                   Ted Cruz                              PRECINCT 303                                           01 
01050010004000247000158000089000000000000000000REP       United States Senator                                   Ted Cruz                              PRECINCT 404                                           01 
01050010005000095000066000029000000000000000000REP       United States Senator                                   Ted Cruz                              PRECINCT 305                                           01 
01050010006000163000103000060000000000000000000REP       United States Senator                                   Ted Cruz                              PRECINCT 406                                           01 
01050020001000058000029000029000000000000000000DEM       United States Senator                                   Paul Sadler                           PRECINCT 101                                           01 
01050020002000081000034000047000000000000000000DEM       United States Senator                                   Paul Sadler                           PRECINCT 202                                           01 
01050020003000069000032000037000000000000000000DEM       United States Senator                                   Paul Sadler                           PRECINCT 303                                           01 
01050020004000081000052000029000000000000000000DEM       United States Senator                                   Paul Sadler                           PRECINCT 404                                           01 
01050020005000037000023000014000000000000000000DEM       United States Senator                                   Paul Sadler                           PRECINCT 305                                           01 
01050020006000050000027000023000000000000000000DEM       United States Senator                                   Paul Sadler                           PRECINCT 406                                           01 
01050030001000003000002000001000000000000000000LIB       United States Senator                                   John Jay Myers                        PRECINCT 101                                           01 
01050030002000007000003000004000000000000000000LIB       United States Senator                                   John Jay Myers                        PRECINCT 202                                           01 
01050030003000007000004000003000000000000000000LIB       United States Senator                                   John Jay Myers                        PRECINCT 303                                           01 
01050030004000004000003000001000000000000000000LIB       United States Senator                                   John Jay Myers                        PRECINCT 404                                           01 
01050030005000003000002000001000000000000000000LIB       United States Senator                                   John Jay Myers                        PRECINCT 305                                           01 
01050030006000006000004000002000000000000000000LIB       United States Senator                                   John Jay Myers                        PRECINCT 406                                           01 
01050040001000002000002000000000000000000000000GRN       United States Senator                                   David B. Collins                      PRECINCT 101                                           01 
01050040002000003000002000001000000000000000000GRN       United States Senator                                   David B. Collins                      PRECINCT 202                                           01 
01050040003000003000002000001000000000000000000GRN       United States Senator                                   David B. Collins                      PRECINCT 303                                           01 
01050040004000001000001000000000000000000000000GRN       United States Senator                                   David B. Collins                      PRECINCT 404                                           01 
01050040005000001000001000000000000000000000000GRN       United States Senator                                   David B. Collins                      PRECINCT 305                                           01 
01050040006000002000001000001000000000000000000GRN       United States Senator                                   David B. Collins                      PRECINCT 406                                           01 
01050050001000000000000000000000000000000000000          United States Senator                                   OVER VOTES                            PRECINCT 101                                           01 
01050050002000000000000000000000000000000000000          United States Senator                                   OVER VOTES                            PRECINCT 202                                           01 
01050050003000000000000000000000000000000000000          United States Senator                                   OVER VOTES                            PRECINCT 303                                           01 
01050050004000000000000000000000000000000000000          United States Senator                                   OVER VOTES                            PRECINCT 404                                           01 
01050050005000000000000000000000000000000000000          United States Senator                                   OVER VOTES                            PRECINCT 305                                           01 
01050050006000000000000000000000000000000000000          United States Senator                                   OVER VOTES                            PRECINCT 406                                           01 
01050060001000009000003000006000000000000000000          United States Senator                                   UNDER VOTES                           PRECINCT 101                                           01 
01050060002000011000007000004000000000000000000          United States Senator                                   UNDER VOTES                           PRECINCT 202                                           01 
01050060003000022000015000007000000000000000000          United States Senator                                   UNDER VOTES                           PRECINCT 303                                           01 
01050060004000012000009000003000000000000000000          United States Senator                                   UNDER VOTES                           PRECINCT 404                                           01 
01050060005000003000001000002000000000000000000          United States Senator                                   UNDER VOTES                           PRECINCT 305                                           01 
01050060006000008000004000004000000000000000000          United States Senator                                   UNDER VOTES                           PRECINCT 406                                           01 
01060010001000503000320000183000000000000000000REP       United States Representative District 19                Randy Neugebauer                      PRECINCT 101                                           01 
01060010002000469000295000174000000000000000000REP       United States Representative District 19                Randy Neugebauer                      PRECINCT 202                                           01 
01060010003000225000132000093000000000000000000REP       United States Representative District 19                Randy Neugebauer                      PRECINCT 303                                           01 
01060010004000278000176000102000000000000000000REP       United States Representative District 19                Randy Neugebauer                      PRECINCT 404                                           01 
01060010005000102000067000035000000000000000000REP       United States Representative District 19                Randy Neugebauer                      PRECINCT 305                                           01 
01060010006000179000113000066000000000000000000REP       United States Representative District 19                Randy Neugebauer                      PRECINCT 406                                           01 
01060020001000027000012000015000000000000000000LIB       United States Representative District 19                Richard (Chip) Peterson               PRECINCT 101                                           01 
01060020002000043000022000021000000000000000000LIB       United States Representative District 19                Richard (Chip) Peterson               PRECINCT 202                                           01 
01060020003000042000024000018000000000000000000LIB       United States Representative District 19                Richard (Chip) Peterson               PRECINCT 303                                           01 
01060020004000038000025000013000000000000000000LIB       United States Representative District 19                Richard (Chip) Peterson               PRECINCT 404                                           01 
01060020005000013000008000005000000000000000000LIB       United States Representative District 19                Richard (Chip) Peterson               PRECINCT 305                                           01 
01060020006000023000015000008000000000000000000LIB       United States Representative District 19                Richard (Chip) Peterson               PRECINCT 406                                           01 
01060030001000000000000000000000000000000000000          United States Representative District 19                OVER VOTES                            PRECINCT 101                                           01 
01060030002000000000000000000000000000000000000          United States Representative District 19                OVER VOTES                            PRECINCT 202                                           01 
01060030003000000000000000000000000000000000000          United States Representative District 19                OVER VOTES                            PRECINCT 303                                           01 
01060030004000000000000000000000000000000000000          United States Representative District 19                OVER VOTES                            PRECINCT 404                                           01 
01060030005000000000000000000000000000000000000          United States Representative District 19                OVER VOTES                            PRECINCT 305                                           01 
01060030006000000000000000000000000000000000000          United States Representative District 19                OVER VOTES                            PRECINCT 406                                           01 
01060040001000029000013000016000000000000000000          United States Representative District 19                UNDER VOTES                           PRECINCT 101                                           01 
01060040002000041000015000026000000000000000000          United States Representative District 19                UNDER VOTES                           PRECINCT 202                                           01 
01060040003000044000025000019000000000000000000          United States Representative District 19                UNDER VOTES                           PRECINCT 303                                           01 
01060040004000029000022000007000000000000000000          United States Representative District 19                UNDER VOTES                           PRECINCT 404                                           01 
01060040005000024000018000006000000000000000000          United States Representative District 19                UNDER VOTES                           PRECINCT 305                                           01 
01060040006000026000011000015000000000000000000          United States Representative District 19                UNDER VOTES                           PRECINCT 406                                           01 
01070010001000462000300000162000000000000000000REP       Railroad Commissioner                                   Christi Craddick                      PRECINCT 101                                           01 
01070010002000434000277000157000000000000000000REP       Railroad Commissioner                                   Christi Craddick                      PRECINCT 202                                           01 
01070010003000197000118000079000000000000000000REP       Railroad Commissioner                                   Christi Craddick                      PRECINCT 303                                           01 
01070010004000225000151000074000000000000000000REP       Railroad Commissioner                                   Christi Craddick                      PRECINCT 404                                           01 
01070010005000086000062000024000000000000000000REP       Railroad Commissioner                                   Christi Craddick                      PRECINCT 305                                           01 
01070010006000156000103000053000000000000000000REP       Railroad Commissioner                                   Christi Craddick                      PRECINCT 406                                           01 
01070020001000065000034000031000000000000000000DEM       Railroad Commissioner                                   Dale Henry                            PRECINCT 101                                           01 
01070020002000089000036000053000000000000000000DEM       Railroad Commissioner                                   Dale Henry                            PRECINCT 202                                           01 
01070020003000065000027000038000000000000000000DEM       Railroad Commissioner                                   Dale Henry                            PRECINCT 303                                           01 
01070020004000080000045000035000000000000000000DEM       Railroad Commissioner                                   Dale Henry                            PRECINCT 404                                           01 
01070020005000041000024000017000000000000000000DEM       Railroad Commissioner                                   Dale Henry                            PRECINCT 305                                           01 
01070020006000047000025000022000000000000000000DEM       Railroad Commissioner                                   Dale Henry                            PRECINCT 406                                           01 
01070030001000002000001000001000000000000000000LIB       Railroad Commissioner                                   Vivekananda (Vik) Wall                PRECINCT 101                                           01 
01070030002000003000002000001000000000000000000LIB       Railroad Commissioner                                   Vivekananda (Vik) Wall                PRECINCT 202                                           01 
01070030003000007000005000002000000000000000000LIB       Railroad Commissioner                                   Vivekananda (Vik) Wall                PRECINCT 303                                           01 
01070030004000002000000000002000000000000000000LIB       Railroad Commissioner                                   Vivekananda (Vik) Wall                PRECINCT 404                                           01 
01070030005000003000001000002000000000000000000LIB       Railroad Commissioner                                   Vivekananda (Vik) Wall                PRECINCT 305                                           01 
01070030006000004000002000002000000000000000000LIB       Railroad Commissioner                                   Vivekananda (Vik) Wall                PRECINCT 406                                           01 
01070040001000009000004000005000000000000000000GRN       Railroad Commissioner                                   Chris Kennedy                         PRECINCT 101                                           01 
01070040002000009000007000002000000000000000000GRN       Railroad Commissioner                                   Chris Kennedy                         PRECINCT 202                                           01 
01070040003000006000004000002000000000000000000GRN       Railroad Commissioner                                   Chris Kennedy                         PRECINCT 303                                           01 
01070040004000007000003000004000000000000000000GRN       Railroad Commissioner                                   Chris Kennedy                         PRECINCT 404                                           01 
01070040005000003000002000001000000000000000000GRN       Railroad Commissioner                                   Chris Kennedy                         PRECINCT 305                                           01 
01070040006000009000002000007000000000000000000GRN       Railroad Commissioner                                   Chris Kennedy                         PRECINCT 406                                           01 
01070050001000001000000000001000000000000000000          Railroad Commissioner                                   OVER VOTES                            PRECINCT 101                                           01 
01070050002000000000000000000000000000000000000          Railroad Commissioner                                   OVER VOTES                            PRECINCT 202                                           01 
01070050003000000000000000000000000000000000000          Railroad Commissioner                                   OVER VOTES                            PRECINCT 303                                           01 
01070050004000000000000000000000000000000000000          Railroad Commissioner                                   OVER VOTES                            PRECINCT 404                                           01 
01070050005000000000000000000000000000000000000          Railroad Commissioner                                   OVER VOTES                            PRECINCT 305                                           01 
01070050006000000000000000000000000000000000000          Railroad Commissioner                                   OVER VOTES                            PRECINCT 406                                           01 
01070060001000020000006000014000000000000000000          Railroad Commissioner                                   UNDER VOTES                           PRECINCT 101                                           01 
01070060002000018000010000008000000000000000000          Railroad Commissioner                                   UNDER VOTES                           PRECINCT 202                                           01 
01070060003000036000027000009000000000000000000          Railroad Commissioner                                   UNDER VOTES                           PRECINCT 303                                           01 
01070060004000031000024000007000000000000000000          Railroad Commissioner                                   UNDER VOTES                           PRECINCT 404                                           01 
01070060005000006000004000002000000000000000000          Railroad Commissioner                                   UNDER VOTES                           PRECINCT 305                                           01 
01070060006000013000007000006000000000000000000          Railroad Commissioner                                   UNDER VOTES                           PRECINCT 406                                           01 
01080010001000463000303000160000000000000000000REP       Railroad Commissioner, Unexpired Term                   Barry Smitherman                      PRECINCT 101                                           01 
01080010002000436000283000153000000000000000000REP       Railroad Commissioner, Unexpired Term                   Barry Smitherman                      PRECINCT 202                                           01 
01080010003000191000118000073000000000000000000REP       Railroad Commissioner, Unexpired Term                   Barry Smitherman                      PRECINCT 303                                           01 
01080010004000236000157000079000000000000000000REP       Railroad Commissioner, Unexpired Term                   Barry Smitherman                      PRECINCT 404                                           01 
01080010005000090000063000027000000000000000000REP       Railroad Commissioner, Unexpired Term                   Barry Smitherman                      PRECINCT 305                                           01 
01080010006000163000107000056000000000000000000REP       Railroad Commissioner, Unexpired Term                   Barry Smitherman                      PRECINCT 406                                           01 
01080020001000044000017000027000000000000000000LIB       Railroad Commissioner, Unexpired Term                   Jaime O. Perez                        PRECINCT 101                                           01 
01080020002000051000021000030000000000000000000LIB       Railroad Commissioner, Unexpired Term                   Jaime O. Perez                        PRECINCT 202                                           01 
01080020003000045000018000027000000000000000000LIB       Railroad Commissioner, Unexpired Term                   Jaime O. Perez                        PRECINCT 303                                           01 
01080020004000041000014000027000000000000000000LIB       Railroad Commissioner, Unexpired Term                   Jaime O. Perez                        PRECINCT 404                                           01 
01080020005000021000009000012000000000000000000LIB       Railroad Commissioner, Unexpired Term                   Jaime O. Perez                        PRECINCT 305                                           01 
01080020006000032000014000018000000000000000000LIB       Railroad Commissioner, Unexpired Term                   Jaime O. Perez                        PRECINCT 406                                           01 
01080030001000007000004000003000000000000000000GRN       Railroad Commissioner, Unexpired Term                   Josh Wendel                           PRECINCT 101                                           01 
01080030002000009000002000007000000000000000000GRN       Railroad Commissioner, Unexpired Term                   Josh Wendel                           PRECINCT 202                                           01 
01080030003000009000004000005000000000000000000GRN       Railroad Commissioner, Unexpired Term                   Josh Wendel                           PRECINCT 303                                           01 
01080030004000009000006000003000000000000000000GRN       Railroad Commissioner, Unexpired Term                   Josh Wendel                           PRECINCT 404                                           01 
01080030005000004000002000002000000000000000000GRN       Railroad Commissioner, Unexpired Term                   Josh Wendel                           PRECINCT 305                                           01 
01080030006000004000003000001000000000000000000GRN       Railroad Commissioner, Unexpired Term                   Josh Wendel                           PRECINCT 406                                           01 
01080040001000000000000000000000000000000000000          Railroad Commissioner, Unexpired Term                   OVER VOTES                            PRECINCT 101                                           01 
01080040002000000000000000000000000000000000000          Railroad Commissioner, Unexpired Term                   OVER VOTES                            PRECINCT 202                                           01 
01080040003000000000000000000000000000000000000          Railroad Commissioner, Unexpired Term                   OVER VOTES                            PRECINCT 303                                           01 
01080040004000000000000000000000000000000000000          Railroad Commissioner, Unexpired Term                   OVER VOTES                            PRECINCT 404                                           01 
01080040005000000000000000000000000000000000000          Railroad Commissioner, Unexpired Term                   OVER VOTES                            PRECINCT 305                                           01 
01080040006000000000000000000000000000000000000          Railroad Commissioner, Unexpired Term                   OVER VOTES                            PRECINCT 406                                           01 
01080050001000045000021000024000000000000000000          Railroad Commissioner, Unexpired Term                   UNDER VOTES                           PRECINCT 101                                           01 
01080050002000057000026000031000000000000000000          Railroad Commissioner, Unexpired Term                   UNDER VOTES                           PRECINCT 202                                           01 
01080050003000066000041000025000000000000000000          Railroad Commissioner, Unexpired Term                   UNDER VOTES                           PRECINCT 303                                           01 
01080050004000059000046000013000000000000000000          Railroad Commissioner, Unexpired Term                   UNDER VOTES                           PRECINCT 404                                           01 
01080050005000024000019000005000000000000000000          Railroad Commissioner, Unexpired Term                   UNDER VOTES                           PRECINCT 305                                           01 
01080050006000029000015000014000000000000000000          Railroad Commissioner, Unexpired Term                   UNDER VOTES                           PRECINCT 406                                           01 
01090010001000491000314000177000000000000000000REP       Justice, Supreme Court, Place 2                         Don Willett                           PRECINCT 101                                           01 
01090010002000454000285000169000000000000000000REP       Justice, Supreme Court, Place 2                         Don Willett                           PRECINCT 202                                           01 
01090010003000207000124000083000000000000000000REP       Justice, Supreme Court, Place 2                         Don Willett                           PRECINCT 303                                           01 
01090010004000250000157000093000000000000000000REP       Justice, Supreme Court, Place 2                         Don Willett                           PRECINCT 404                                           01 
01090010005000096000065000031000000000000000000REP       Justice, Supreme Court, Place 2                         Don Willett                           PRECINCT 305                                           01 
01090010006000173000112000061000000000000000000REP       Justice, Supreme Court, Place 2                         Don Willett                           PRECINCT 406                                           01 
01090020001000020000009000011000000000000000000LIB       Justice, Supreme Court, Place 2                         RS Roberto Koelsch                    PRECINCT 101                                           01 
01090020002000043000021000022000000000000000000LIB       Justice, Supreme Court, Place 2                         RS Roberto Koelsch                    PRECINCT 202                                           01 
01090020003000037000016000021000000000000000000LIB       Justice, Supreme Court, Place 2                         RS Roberto Koelsch                    PRECINCT 303                                           01 
01090020004000029000012000017000000000000000000LIB       Justice, Supreme Court, Place 2                         RS Roberto Koelsch                    PRECINCT 404                                           01 
01090020005000016000008000008000000000000000000LIB       Justice, Supreme Court, Place 2                         RS Roberto Koelsch                    PRECINCT 305                                           01 
01090020006000023000012000011000000000000000000LIB       Justice, Supreme Court, Place 2                         RS Roberto Koelsch                    PRECINCT 406                                           01 
01090030001000000000000000000000000000000000000          Justice, Supreme Court, Place 2                         OVER VOTES                            PRECINCT 101                                           01 
01090030002000000000000000000000000000000000000          Justice, Supreme Court, Place 2                         OVER VOTES                            PRECINCT 202                                           01 
01090030003000000000000000000000000000000000000          Justice, Supreme Court, Place 2                         OVER VOTES                            PRECINCT 303                                           01 
01090030004000000000000000000000000000000000000          Justice, Supreme Court, Place 2                         OVER VOTES                            PRECINCT 404                                           01 
01090030005000000000000000000000000000000000000          Justice, Supreme Court, Place 2                         OVER VOTES                            PRECINCT 305                                           01 
01090030006000000000000000000000000000000000000          Justice, Supreme Court, Place 2                         OVER VOTES                            PRECINCT 406                                           01 
01090040001000048000022000026000000000000000000          Justice, Supreme Court, Place 2                         UNDER VOTES                           PRECINCT 101                                           01 
01090040002000056000026000030000000000000000000          Justice, Supreme Court, Place 2                         UNDER VOTES                           PRECINCT 202                                           01 
01090040003000067000041000026000000000000000000          Justice, Supreme Court, Place 2                         UNDER VOTES                           PRECINCT 303                                           01 
01090040004000066000054000012000000000000000000          Justice, Supreme Court, Place 2                         UNDER VOTES                           PRECINCT 404                                           01 
01090040005000027000020000007000000000000000000          Justice, Supreme Court, Place 2                         UNDER VOTES                           PRECINCT 305                                           01 
01090040006000032000015000017000000000000000000          Justice, Supreme Court, Place 2                         UNDER VOTES                           PRECINCT 406                                           01 
01100010001000477000307000170000000000000000000REP       Justice, Supreme Court, Place 4                         John Devine                           PRECINCT 101                                           01 
01100010002000444000279000165000000000000000000REP       Justice, Supreme Court, Place 4                         John Devine                           PRECINCT 202                                           01 
01100010003000203000122000081000000000000000000REP       Justice, Supreme Court, Place 4                         John Devine                           PRECINCT 303                                           01 
01100010004000237000150000087000000000000000000REP       Justice, Supreme Court, Place 4                         John Devine                           PRECINCT 404                                           01 
01100010005000094000062000032000000000000000000REP       Justice, Supreme Court, Place 4                         John Devine                           PRECINCT 305                                           01 
01100010006000164000107000057000000000000000000REP       Justice, Supreme Court, Place 4                         John Devine                           PRECINCT 406                                           01 
01100020001000031000014000017000000000000000000LIB       Justice, Supreme Court, Place 4                         Tom Oxford                            PRECINCT 101                                           01 
01100020002000042000019000023000000000000000000LIB       Justice, Supreme Court, Place 4                         Tom Oxford                            PRECINCT 202                                           01 
01100020003000031000012000019000000000000000000LIB       Justice, Supreme Court, Place 4                         Tom Oxford                            PRECINCT 303                                           01 
01100020004000038000019000019000000000000000000LIB       Justice, Supreme Court, Place 4                         Tom Oxford                            PRECINCT 404                                           01 
01100020005000013000007000006000000000000000000LIB       Justice, Supreme Court, Place 4                         Tom Oxford                            PRECINCT 305                                           01 
01100020006000024000012000012000000000000000000LIB       Justice, Supreme Court, Place 4                         Tom Oxford                            PRECINCT 406                                           01 
01100030001000003000003000000000000000000000000GRN       Justice, Supreme Court, Place 4                         Charles E. Waterbury                  PRECINCT 101                                           01 
01100030002000009000006000003000000000000000000GRN       Justice, Supreme Court, Place 4                         Charles E. Waterbury                  PRECINCT 202                                           01 
01100030003000010000005000005000000000000000000GRN       Justice, Supreme Court, Place 4                         Charles E. Waterbury                  PRECINCT 303                                           01 
01100030004000002000000000002000000000000000000GRN       Justice, Supreme Court, Place 4                         Charles E. Waterbury                  PRECINCT 404                                           01 
01100030005000005000003000002000000000000000000GRN       Justice, Supreme Court, Place 4                         Charles E. Waterbury                  PRECINCT 305                                           01 
01100030006000005000002000003000000000000000000GRN       Justice, Supreme Court, Place 4                         Charles E. Waterbury                  PRECINCT 406                                           01 
01100040001000000000000000000000000000000000000          Justice, Supreme Court, Place 4                         OVER VOTES                            PRECINCT 101                                           01 
01100040002000000000000000000000000000000000000          Justice, Supreme Court, Place 4                         OVER VOTES                            PRECINCT 202                                           01 
01100040003000000000000000000000000000000000000          Justice, Supreme Court, Place 4                         OVER VOTES                            PRECINCT 303                                           01 
01100040004000000000000000000000000000000000000          Justice, Supreme Court, Place 4                         OVER VOTES                            PRECINCT 404                                           01 
01100040005000000000000000000000000000000000000          Justice, Supreme Court, Place 4                         OVER VOTES                            PRECINCT 305                                           01 
01100040006000000000000000000000000000000000000          Justice, Supreme Court, Place 4                         OVER VOTES                            PRECINCT 406                                           01 
01100050001000048000021000027000000000000000000          Justice, Supreme Court, Place 4                         UNDER VOTES                           PRECINCT 101                                           01 
01100050002000058000028000030000000000000000000          Justice, Supreme Court, Place 4                         UNDER VOTES                           PRECINCT 202                                           01 
01100050003000067000042000025000000000000000000          Justice, Supreme Court, Place 4                         UNDER VOTES                           PRECINCT 303                                           01 
01100050004000068000054000014000000000000000000          Justice, Supreme Court, Place 4                         UNDER VOTES                           PRECINCT 404                                           01 
01100050005000027000021000006000000000000000000          Justice, Supreme Court, Place 4                         UNDER VOTES                           PRECINCT 305                                           01 
01100050006000035000018000017000000000000000000          Justice, Supreme Court, Place 4                         UNDER VOTES                           PRECINCT 406                                           01 
01110010001000448000299000149000000000000000000REP       Justice, Supreme Court, Place 6                         Nathan Hecht                          PRECINCT 101                                           01 
01110010002000407000257000150000000000000000000REP       Justice, Supreme Court, Place 6                         Nathan Hecht                          PRECINCT 202                                           01 
01110010003000182000116000066000000000000000000REP       Justice, Supreme Court, Place 6                         Nathan Hecht                          PRECINCT 303                                           01 
01110010004000211000137000074000000000000000000REP       Justice, Supreme Court, Place 6                         Nathan Hecht                          PRECINCT 404                                           01 
01110010005000077000056000021000000000000000000REP       Justice, Supreme Court, Place 6                         Nathan Hecht                          PRECINCT 305                                           01 
01110010006000147000097000050000000000000000000REP       Justice, Supreme Court, Place 6                         Nathan Hecht                          PRECINCT 406                                           01 
01110020001000073000033000040000000000000000000DEM       Justice, Supreme Court, Place 6                         Michele Petty                         PRECINCT 101                                           01 
01110020002000098000044000054000000000000000000DEM       Justice, Supreme Court, Place 6                         Michele Petty                         PRECINCT 202                                           01 
01110020003000076000035000041000000000000000000DEM       Justice, Supreme Court, Place 6                         Michele Petty                         PRECINCT 303                                           01 
01110020004000077000044000033000000000000000000DEM       Justice, Supreme Court, Place 6                         Michele Petty                         PRECINCT 404                                           01 
01110020005000048000028000020000000000000000000DEM       Justice, Supreme Court, Place 6                         Michele Petty                         PRECINCT 305                                           01 
01110020006000053000026000027000000000000000000DEM       Justice, Supreme Court, Place 6                         Michele Petty                         PRECINCT 406                                           01 
01110030001000010000004000006000000000000000000LIB       Justice, Supreme Court, Place 6                         Mark Ash                              PRECINCT 101                                           01 
01110030002000013000008000005000000000000000000LIB       Justice, Supreme Court, Place 6                         Mark Ash                              PRECINCT 202                                           01 
01110030003000012000006000006000000000000000000LIB       Justice, Supreme Court, Place 6                         Mark Ash                              PRECINCT 303                                           01 
01110030004000005000001000004000000000000000000LIB       Justice, Supreme Court, Place 6                         Mark Ash                              PRECINCT 404                                           01 
01110030005000005000002000003000000000000000000LIB       Justice, Supreme Court, Place 6                         Mark Ash                              PRECINCT 305                                           01 
01110030006000009000005000004000000000000000000LIB       Justice, Supreme Court, Place 6                         Mark Ash                              PRECINCT 406                                           01 
01110040001000001000000000001000000000000000000GRN       Justice, Supreme Court, Place 6                         Jim Chisholm                          PRECINCT 101                                           01 
01110040002000011000008000003000000000000000000GRN       Justice, Supreme Court, Place 6                         Jim Chisholm                          PRECINCT 202                                           01 
01110040003000006000001000005000000000000000000GRN       Justice, Supreme Court, Place 6                         Jim Chisholm                          PRECINCT 303                                           01 
01110040004000008000005000003000000000000000000GRN       Justice, Supreme Court, Place 6                         Jim Chisholm                          PRECINCT 404                                           01 
01110040005000001000001000000000000000000000000GRN       Justice, Supreme Court, Place 6                         Jim Chisholm                          PRECINCT 305                                           01 
01110040006000005000003000002000000000000000000GRN       Justice, Supreme Court, Place 6                         Jim Chisholm                          PRECINCT 406                                           01 
01110050001000000000000000000000000000000000000          Justice, Supreme Court, Place 6                         OVER VOTES                            PRECINCT 101                                           01 
01110050002000000000000000000000000000000000000          Justice, Supreme Court, Place 6                         OVER VOTES                            PRECINCT 202                                           01 
01110050003000000000000000000000000000000000000          Justice, Supreme Court, Place 6                         OVER VOTES                            PRECINCT 303                                           01 
01110050004000000000000000000000000000000000000          Justice, Supreme Court, Place 6                         OVER VOTES                            PRECINCT 404                                           01 
01110050005000000000000000000000000000000000000          Justice, Supreme Court, Place 6                         OVER VOTES                            PRECINCT 305                                           01 
01110050006000000000000000000000000000000000000          Justice, Supreme Court, Place 6                         OVER VOTES                            PRECINCT 406                                           01 
01110060001000027000009000018000000000000000000          Justice, Supreme Court, Place 6                         UNDER VOTES                           PRECINCT 101                                           01 
01110060002000024000015000009000000000000000000          Justice, Supreme Court, Place 6                         UNDER VOTES                           PRECINCT 202                                           01 
01110060003000035000023000012000000000000000000          Justice, Supreme Court, Place 6                         UNDER VOTES                           PRECINCT 303                                           01 
01110060004000044000036000008000000000000000000          Justice, Supreme Court, Place 6                         UNDER VOTES                           PRECINCT 404                                           01 
01110060005000008000006000002000000000000000000          Justice, Supreme Court, Place 6                         UNDER VOTES                           PRECINCT 305                                           01 
01110060006000015000008000007000000000000000000          Justice, Supreme Court, Place 6                         UNDER VOTES                           PRECINCT 406                                           01 
01120010001000443000291000152000000000000000000REP       Presiding Judge, CT of Criminal Appeals                 Sharon  Keller                        PRECINCT 101                                           01 
01120010002000406000253000153000000000000000000REP       Presiding Judge, CT of Criminal Appeals                 Sharon  Keller                        PRECINCT 202                                           01 
01120010003000187000119000068000000000000000000REP       Presiding Judge, CT of Criminal Appeals                 Sharon  Keller                        PRECINCT 303                                           01 
01120010004000221000141000080000000000000000000REP       Presiding Judge, CT of Criminal Appeals                 Sharon  Keller                        PRECINCT 404                                           01 
01120010005000091000064000027000000000000000000REP       Presiding Judge, CT of Criminal Appeals                 Sharon  Keller                        PRECINCT 305                                           01 
01120010006000155000099000056000000000000000000REP       Presiding Judge, CT of Criminal Appeals                 Sharon  Keller                        PRECINCT 406                                           01 
01120020001000082000043000039000000000000000000DEM       Presiding Judge, CT of Criminal Appeals                 Keith Hampton                         PRECINCT 101                                           01 
01120020002000099000048000051000000000000000000DEM       Presiding Judge, CT of Criminal Appeals                 Keith Hampton                         PRECINCT 202                                           01 
01120020003000070000028000042000000000000000000DEM       Presiding Judge, CT of Criminal Appeals                 Keith Hampton                         PRECINCT 303                                           01 
01120020004000072000042000030000000000000000000DEM       Presiding Judge, CT of Criminal Appeals                 Keith Hampton                         PRECINCT 404                                           01 
01120020005000037000023000014000000000000000000DEM       Presiding Judge, CT of Criminal Appeals                 Keith Hampton                         PRECINCT 305                                           01 
01120020006000051000026000025000000000000000000DEM       Presiding Judge, CT of Criminal Appeals                 Keith Hampton                         PRECINCT 406                                           01 
01120030001000009000003000006000000000000000000LIB       Presiding Judge, CT of Criminal Appeals                 Lance Stott                           PRECINCT 101                                           01 
01120030002000019000013000006000000000000000000LIB       Presiding Judge, CT of Criminal Appeals                 Lance Stott                           PRECINCT 202                                           01 
01120030003000014000007000007000000000000000000LIB       Presiding Judge, CT of Criminal Appeals                 Lance Stott                           PRECINCT 303                                           01 
01120030004000007000004000003000000000000000000LIB       Presiding Judge, CT of Criminal Appeals                 Lance Stott                           PRECINCT 404                                           01 
01120030005000004000001000003000000000000000000LIB       Presiding Judge, CT of Criminal Appeals                 Lance Stott                           PRECINCT 305                                           01 
01120030006000008000006000002000000000000000000LIB       Presiding Judge, CT of Criminal Appeals                 Lance Stott                           PRECINCT 406                                           01 
01120040001000000000000000000000000000000000000          Presiding Judge, CT of Criminal Appeals                 OVER VOTES                            PRECINCT 101                                           01 
01120040002000000000000000000000000000000000000          Presiding Judge, CT of Criminal Appeals                 OVER VOTES                            PRECINCT 202                                           01 
01120040003000000000000000000000000000000000000          Presiding Judge, CT of Criminal Appeals                 OVER VOTES                            PRECINCT 303                                           01 
01120040004000000000000000000000000000000000000          Presiding Judge, CT of Criminal Appeals                 OVER VOTES                            PRECINCT 404                                           01 
01120040005000000000000000000000000000000000000          Presiding Judge, CT of Criminal Appeals                 OVER VOTES                            PRECINCT 305                                           01 
01120040006000000000000000000000000000000000000          Presiding Judge, CT of Criminal Appeals                 OVER VOTES                            PRECINCT 406                                           01 
01120050001000025000008000017000000000000000000          Presiding Judge, CT of Criminal Appeals                 UNDER VOTES                           PRECINCT 101                                           01 
01120050002000029000018000011000000000000000000          Presiding Judge, CT of Criminal Appeals                 UNDER VOTES                           PRECINCT 202                                           01 
01120050003000040000027000013000000000000000000          Presiding Judge, CT of Criminal Appeals                 UNDER VOTES                           PRECINCT 303                                           01 
01120050004000045000036000009000000000000000000          Presiding Judge, CT of Criminal Appeals                 UNDER VOTES                           PRECINCT 404                                           01 
01120050005000007000005000002000000000000000000          Presiding Judge, CT of Criminal Appeals                 UNDER VOTES                           PRECINCT 305                                           01 
01120050006000015000008000007000000000000000000          Presiding Judge, CT of Criminal Appeals                 UNDER VOTES                           PRECINCT 406                                           01 
01130010001000467000307000160000000000000000000REP       Judge, Court of Criminal Appeals, Pl 7                  Barbara Parker Hervey                 PRECINCT 101                                           01 
01130010002000444000282000162000000000000000000REP       Judge, Court of Criminal Appeals, Pl 7                  Barbara Parker Hervey                 PRECINCT 202                                           01 
01130010003000201000122000079000000000000000000REP       Judge, Court of Criminal Appeals, Pl 7                  Barbara Parker Hervey                 PRECINCT 303                                           01 
01130010004000239000149000090000000000000000000REP       Judge, Court of Criminal Appeals, Pl 7                  Barbara Parker Hervey                 PRECINCT 404                                           01 
01130010005000093000060000033000000000000000000REP       Judge, Court of Criminal Appeals, Pl 7                  Barbara Parker Hervey                 PRECINCT 305                                           01 
01130010006000173000112000061000000000000000000REP       Judge, Court of Criminal Appeals, Pl 7                  Barbara Parker Hervey                 PRECINCT 406                                           01 
01130020001000041000016000025000000000000000000LIB       Judge, Court of Criminal Appeals, Pl 7                  Mark W. Bennett                       PRECINCT 101                                           01 
01130020002000051000023000028000000000000000000LIB       Judge, Court of Criminal Appeals, Pl 7                  Mark W. Bennett                       PRECINCT 202                                           01 
01130020003000040000017000023000000000000000000LIB       Judge, Court of Criminal Appeals, Pl 7                  Mark W. Bennett                       PRECINCT 303                                           01 
01130020004000038000019000019000000000000000000LIB       Judge, Court of Criminal Appeals, Pl 7                  Mark W. Bennett                       PRECINCT 404                                           01 
01130020005000018000011000007000000000000000000LIB       Judge, Court of Criminal Appeals, Pl 7                  Mark W. Bennett                       PRECINCT 305                                           01 
01130020006000024000012000012000000000000000000LIB       Judge, Court of Criminal Appeals, Pl 7                  Mark W. Bennett                       PRECINCT 406                                           01 
01130030001000000000000000000000000000000000000          Judge, Court of Criminal Appeals, Pl 7                  OVER VOTES                            PRECINCT 101                                           01 
01130030002000000000000000000000000000000000000          Judge, Court of Criminal Appeals, Pl 7                  OVER VOTES                            PRECINCT 202                                           01 
01130030003000000000000000000000000000000000000          Judge, Court of Criminal Appeals, Pl 7                  OVER VOTES                            PRECINCT 303                                           01 
01130030004000000000000000000000000000000000000          Judge, Court of Criminal Appeals, Pl 7                  OVER VOTES                            PRECINCT 404                                           01 
01130030005000000000000000000000000000000000000          Judge, Court of Criminal Appeals, Pl 7                  OVER VOTES                            PRECINCT 305                                           01 
01130030006000000000000000000000000000000000000          Judge, Court of Criminal Appeals, Pl 7                  OVER VOTES                            PRECINCT 406                                           01 
01130040001000051000022000029000000000000000000          Judge, Court of Criminal Appeals, Pl 7                  UNDER VOTES                           PRECINCT 101                                           01 
01130040002000058000027000031000000000000000000          Judge, Court of Criminal Appeals, Pl 7                  UNDER VOTES                           PRECINCT 202                                           01 
01130040003000070000042000028000000000000000000          Judge, Court of Criminal Appeals, Pl 7                  UNDER VOTES                           PRECINCT 303                                           01 
01130040004000068000055000013000000000000000000          Judge, Court of Criminal Appeals, Pl 7                  UNDER VOTES                           PRECINCT 404                                           01 
01130040005000028000022000006000000000000000000          Judge, Court of Criminal Appeals, Pl 7                  UNDER VOTES                           PRECINCT 305                                           01 
01130040006000031000015000016000000000000000000          Judge, Court of Criminal Appeals, Pl 7                  UNDER VOTES                           PRECINCT 406                                           01 
01140010001000454000298000156000000000000000000REP       Judge, Court of Criminal Appeals, Pl 8                  Elsa Alcala                           PRECINCT 101                                           01 
01140010002000450000278000172000000000000000000REP       Judge, Court of Criminal Appeals, Pl 8                  Elsa Alcala                           PRECINCT 202                                           01 
01140010003000212000121000091000000000000000000REP       Judge, Court of Criminal Appeals, Pl 8                  Elsa Alcala                           PRECINCT 303                                           01 
01140010004000238000145000093000000000000000000REP       Judge, Court of Criminal Appeals, Pl 8                  Elsa Alcala                           PRECINCT 404                                           01 
01140010005000093000059000034000000000000000000REP       Judge, Court of Criminal Appeals, Pl 8                  Elsa Alcala                           PRECINCT 305                                           01 
01140010006000173000106000067000000000000000000REP       Judge, Court of Criminal Appeals, Pl 8                  Elsa Alcala                           PRECINCT 406                                           01 
01140020001000048000022000026000000000000000000LIB       Judge, Court of Criminal Appeals, Pl 8                  William Bryan Strange, III            PRECINCT 101                                           01 
01140020002000046000026000020000000000000000000LIB       Judge, Court of Criminal Appeals, Pl 8                  William Bryan Strange, III            PRECINCT 202                                           01 
01140020003000032000017000015000000000000000000LIB       Judge, Court of Criminal Appeals, Pl 8                  William Bryan Strange, III            PRECINCT 303                                           01 
01140020004000030000020000010000000000000000000LIB       Judge, Court of Criminal Appeals, Pl 8                  William Bryan Strange, III            PRECINCT 404                                           01 
01140020005000018000012000006000000000000000000LIB       Judge, Court of Criminal Appeals, Pl 8                  William Bryan Strange, III            PRECINCT 305                                           01 
01140020006000019000013000006000000000000000000LIB       Judge, Court of Criminal Appeals, Pl 8                  William Bryan Strange, III            PRECINCT 406                                           01 
01140030001000000000000000000000000000000000000          Judge, Court of Criminal Appeals, Pl 8                  OVER VOTES                            PRECINCT 101                                           01 
01140030002000000000000000000000000000000000000          Judge, Court of Criminal Appeals, Pl 8                  OVER VOTES                            PRECINCT 202                                           01 
01140030003000000000000000000000000000000000000          Judge, Court of Criminal Appeals, Pl 8                  OVER VOTES                            PRECINCT 303                                           01 
01140030004000000000000000000000000000000000000          Judge, Court of Criminal Appeals, Pl 8                  OVER VOTES                            PRECINCT 404                                           01 
01140030005000000000000000000000000000000000000          Judge, Court of Criminal Appeals, Pl 8                  OVER VOTES                            PRECINCT 305                                           01 
01140030006000000000000000000000000000000000000          Judge, Court of Criminal Appeals, Pl 8                  OVER VOTES                            PRECINCT 406                                           01 
01140040001000057000025000032000000000000000000          Judge, Court of Criminal Appeals, Pl 8                  UNDER VOTES                           PRECINCT 101                                           01 
01140040002000057000028000029000000000000000000          Judge, Court of Criminal Appeals, Pl 8                  UNDER VOTES                           PRECINCT 202                                           01 
01140040003000067000043000024000000000000000000          Judge, Court of Criminal Appeals, Pl 8                  UNDER VOTES                           PRECINCT 303                                           01 
01140040004000077000058000019000000000000000000          Judge, Court of Criminal Appeals, Pl 8                  UNDER VOTES                           PRECINCT 404                                           01 
01140040005000028000022000006000000000000000000          Judge, Court of Criminal Appeals, Pl 8                  UNDER VOTES                           PRECINCT 305                                           01 
01140040006000036000020000016000000000000000000          Judge, Court of Criminal Appeals, Pl 8                  UNDER VOTES                           PRECINCT 406                                           01 
01150010001000454000300000154000000000000000000REP       Member, State BoE, District 15                          Marty Rowley                          PRECINCT 101                                           01 
01150010002000438000281000157000000000000000000REP       Member, State BoE, District 15                          Marty Rowley                          PRECINCT 202                                           01 
01150010003000196000117000079000000000000000000REP       Member, State BoE, District 15                          Marty Rowley                          PRECINCT 303                                           01 
01150010004000231000149000082000000000000000000REP       Member, State BoE, District 15                          Marty Rowley                          PRECINCT 404                                           01 
01150010005000090000061000029000000000000000000REP       Member, State BoE, District 15                          Marty Rowley                          PRECINCT 305                                           01 
01150010006000161000104000057000000000000000000REP       Member, State BoE, District 15                          Marty Rowley                          PRECINCT 406                                           01 
01150020001000075000035000040000000000000000000DEM       Member, State BoE, District 15                          Steven D. Schafersman                 PRECINCT 101                                           01 
01150020002000089000037000052000000000000000000DEM       Member, State BoE, District 15                          Steven D. Schafersman                 PRECINCT 202                                           01 
01150020003000075000032000043000000000000000000DEM       Member, State BoE, District 15                          Steven D. Schafersman                 PRECINCT 303                                           01 
01150020004000074000046000028000000000000000000DEM       Member, State BoE, District 15                          Steven D. Schafersman                 PRECINCT 404                                           01 
01150020005000041000026000015000000000000000000DEM       Member, State BoE, District 15                          Steven D. Schafersman                 PRECINCT 305                                           01 
01150020006000049000024000025000000000000000000DEM       Member, State BoE, District 15                          Steven D. Schafersman                 PRECINCT 406                                           01 
01150030001000000000000000000000000000000000000          Member, State BoE, District 15                          OVER VOTES                            PRECINCT 101                                           01 
01150030002000000000000000000000000000000000000          Member, State BoE, District 15                          OVER VOTES                            PRECINCT 202                                           01 
01150030003000000000000000000000000000000000000          Member, State BoE, District 15                          OVER VOTES                            PRECINCT 303                                           01 
01150030004000000000000000000000000000000000000          Member, State BoE, District 15                          OVER VOTES                            PRECINCT 404                                           01 
01150030005000000000000000000000000000000000000          Member, State BoE, District 15                          OVER VOTES                            PRECINCT 305                                           01 
01150030006000000000000000000000000000000000000          Member, State BoE, District 15                          OVER VOTES                            PRECINCT 406                                           01 
01150040001000030000010000020000000000000000000          Member, State BoE, District 15                          UNDER VOTES                           PRECINCT 101                                           01 
01150040002000026000014000012000000000000000000          Member, State BoE, District 15                          UNDER VOTES                           PRECINCT 202                                           01 
01150040003000040000032000008000000000000000000          Member, State BoE, District 15                          UNDER VOTES                           PRECINCT 303                                           01 
01150040004000040000028000012000000000000000000          Member, State BoE, District 15                          UNDER VOTES                           PRECINCT 404                                           01 
01150040005000008000006000002000000000000000000          Member, State BoE, District 15                          UNDER VOTES                           PRECINCT 305                                           01 
01150040006000019000011000008000000000000000000          Member, State BoE, District 15                          UNDER VOTES                           PRECINCT 406                                           01 
01160010001000489000313000176000000000000000000REP       State Senator, District 31                              Kel Seliger                           PRECINCT 101                                           01 
01160010002000465000290000175000000000000000000REP       State Senator, District 31                              Kel Seliger                           PRECINCT 202                                           01 
01160010003000220000122000098000000000000000000REP       State Senator, District 31                              Kel Seliger                           PRECINCT 303                                           01 
01160010004000264000166000098000000000000000000REP       State Senator, District 31                              Kel Seliger                           PRECINCT 404                                           01 
01160010005000106000071000035000000000000000000REP       State Senator, District 31                              Kel Seliger                           PRECINCT 305                                           01 
01160010006000178000111000067000000000000000000REP       State Senator, District 31                              Kel Seliger                           PRECINCT 406                                           01 
01160020001000000000000000000000000000000000000          State Senator, District 31                              OVER VOTES                            PRECINCT 101                                           01 
01160020002000000000000000000000000000000000000          State Senator, District 31                              OVER VOTES                            PRECINCT 202                                           01 
01160020003000000000000000000000000000000000000          State Senator, District 31                              OVER VOTES                            PRECINCT 303                                           01 
01160020004000000000000000000000000000000000000          State Senator, District 31                              OVER VOTES                            PRECINCT 404                                           01 
01160020005000000000000000000000000000000000000          State Senator, District 31                              OVER VOTES                            PRECINCT 305                                           01 
01160020006000000000000000000000000000000000000          State Senator, District 31                              OVER VOTES                            PRECINCT 406                                           01 
01160030001000070000032000038000000000000000000          State Senator, District 31                              UNDER VOTES                           PRECINCT 101                                           01 
01160030002000088000042000046000000000000000000          State Senator, District 31                              UNDER VOTES                           PRECINCT 202                                           01 
01160030003000091000059000032000000000000000000          State Senator, District 31                              UNDER VOTES                           PRECINCT 303                                           01 
01160030004000081000057000024000000000000000000          State Senator, District 31                              UNDER VOTES                           PRECINCT 404                                           01 
01160030005000033000022000011000000000000000000          State Senator, District 31                              UNDER VOTES                           PRECINCT 305                                           01 
01160030006000049000028000021000000000000000000          State Senator, District 31                              UNDER VOTES                           PRECINCT 406                                           01 
01170010001000495000315000180000000000000000000REP       State Representative, District 88                       Ken King                              PRECINCT 101                                           01 
01170010002000477000298000179000000000000000000REP       State Representative, District 88                       Ken King                              PRECINCT 202                                           01 
01170010003000236000131000105000000000000000000REP       State Representative, District 88                       Ken King                              PRECINCT 303                                           01 
01170010004000273000172000101000000000000000000REP       State Representative, District 88                       Ken King                              PRECINCT 404                                           01 
01170010005000105000070000035000000000000000000REP       State Representative, District 88                       Ken King                              PRECINCT 305                                           01 
01170010006000184000117000067000000000000000000REP       State Representative, District 88                       Ken King                              PRECINCT 406                                           01 
01170020001000000000000000000000000000000000000          State Representative, District 88                       OVER VOTES                            PRECINCT 101                                           01 
01170020002000000000000000000000000000000000000          State Representative, District 88                       OVER VOTES                            PRECINCT 202                                           01 
01170020003000000000000000000000000000000000000          State Representative, District 88                       OVER VOTES                            PRECINCT 303                                           01 
01170020004000000000000000000000000000000000000          State Representative, District 88                       OVER VOTES                            PRECINCT 404                                           01 
01170020005000000000000000000000000000000000000          State Representative, District 88                       OVER VOTES                            PRECINCT 305                                           01 
01170020006000000000000000000000000000000000000          State Representative, District 88                       OVER VOTES                            PRECINCT 406                                           01 
01170030001000064000030000034000000000000000000          State Representative, District 88                       UNDER VOTES                           PRECINCT 101                                           01 
01170030002000076000034000042000000000000000000          State Representative, District 88                       UNDER VOTES                           PRECINCT 202                                           01 
01170030003000075000050000025000000000000000000          State Representative, District 88                       UNDER VOTES                           PRECINCT 303                                           01 
01170030004000072000051000021000000000000000000          State Representative, District 88                       UNDER VOTES                           PRECINCT 404                                           01 
01170030005000034000023000011000000000000000000          State Representative, District 88                       UNDER VOTES                           PRECINCT 305                                           01 
01170030006000043000022000021000000000000000000          State Representative, District 88                       UNDER VOTES                           PRECINCT 406                                           01 
01180010001000490000312000178000000000000000000REP       7th Court of Appeals District, Place 2                  Mackey K. Hancock                     PRECINCT 101                                           01 
01180010002000460000286000174000000000000000000REP       7th Court of Appeals District, Place 2                  Mackey K. Hancock                     PRECINCT 202                                           01 
01180010003000222000124000098000000000000000000REP       7th Court of Appeals District, Place 2                  Mackey K. Hancock                     PRECINCT 303                                           01 
01180010004000254000158000096000000000000000000REP       7th Court of Appeals District, Place 2                  Mackey K. Hancock                     PRECINCT 404                                           01 
01180010005000104000069000035000000000000000000REP       7th Court of Appeals District, Place 2                  Mackey K. Hancock                     PRECINCT 305                                           01 
01180010006000181000114000067000000000000000000REP       7th Court of Appeals District, Place 2                  Mackey K. Hancock                     PRECINCT 406                                           01 
01180020001000000000000000000000000000000000000          7th Court of Appeals District, Place 2                  OVER VOTES                            PRECINCT 101                                           01 
01180020002000000000000000000000000000000000000          7th Court of Appeals District, Place 2                  OVER VOTES                            PRECINCT 202                                           01 
01180020003000000000000000000000000000000000000          7th Court of Appeals District, Place 2                  OVER VOTES                            PRECINCT 303                                           01 
01180020004000000000000000000000000000000000000          7th Court of Appeals District, Place 2                  OVER VOTES                            PRECINCT 404                                           01 
01180020005000000000000000000000000000000000000          7th Court of Appeals District, Place 2                  OVER VOTES                            PRECINCT 305                                           01 
01180020006000000000000000000000000000000000000          7th Court of Appeals District, Place 2                  OVER VOTES                            PRECINCT 406                                           01 
01180030001000069000033000036000000000000000000          7th Court of Appeals District, Place 2                  UNDER VOTES                           PRECINCT 101                                           01 
01180030002000093000046000047000000000000000000          7th Court of Appeals District, Place 2                  UNDER VOTES                           PRECINCT 202                                           01 
01180030003000089000057000032000000000000000000          7th Court of Appeals District, Place 2                  UNDER VOTES                           PRECINCT 303                                           01 
01180030004000091000065000026000000000000000000          7th Court of Appeals District, Place 2                  UNDER VOTES                           PRECINCT 404                                           01 
01180030005000035000024000011000000000000000000          7th Court of Appeals District, Place 2                  UNDER VOTES                           PRECINCT 305                                           01 
01180030006000046000025000021000000000000000000          7th Court of Appeals District, Place 2                  UNDER VOTES                           PRECINCT 406                                           01 
01190010001000489000311000178000000000000000000REP       7th Court of Appeals District, Place 3                  Pat Pirtle                            PRECINCT 101                                           01 
01190010002000460000286000174000000000000000000REP       7th Court of Appeals District, Place 3                  Pat Pirtle                            PRECINCT 202                                           01 
01190010003000220000122000098000000000000000000REP       7th Court of Appeals District, Place 3                  Pat Pirtle                            PRECINCT 303                                           01 
01190010004000252000155000097000000000000000000REP       7th Court of Appeals District, Place 3                  Pat Pirtle                            PRECINCT 404                                           01 
01190010005000105000072000033000000000000000000REP       7th Court of Appeals District, Place 3                  Pat Pirtle                            PRECINCT 305                                           01 
01190010006000179000112000067000000000000000000REP       7th Court of Appeals District, Place 3                  Pat Pirtle                            PRECINCT 406                                           01 
01190020001000000000000000000000000000000000000          7th Court of Appeals District, Place 3                  OVER VOTES                            PRECINCT 101                                           01 
01190020002000000000000000000000000000000000000          7th Court of Appeals District, Place 3                  OVER VOTES                            PRECINCT 202                                           01 
01190020003000000000000000000000000000000000000          7th Court of Appeals District, Place 3                  OVER VOTES                            PRECINCT 303                                           01 
01190020004000000000000000000000000000000000000          7th Court of Appeals District, Place 3                  OVER VOTES                            PRECINCT 404                                           01 
01190020005000000000000000000000000000000000000          7th Court of Appeals District, Place 3                  OVER VOTES                            PRECINCT 305                                           01 
01190020006000000000000000000000000000000000000          7th Court of Appeals District, Place 3                  OVER VOTES                            PRECINCT 406                                           01 
01190030001000070000034000036000000000000000000          7th Court of Appeals District, Place 3                  UNDER VOTES                           PRECINCT 101                                           01 
01190030002000093000046000047000000000000000000          7th Court of Appeals District, Place 3                  UNDER VOTES                           PRECINCT 202                                           01 
01190030003000091000059000032000000000000000000          7th Court of Appeals District, Place 3                  UNDER VOTES                           PRECINCT 303                                           01 
01190030004000093000068000025000000000000000000          7th Court of Appeals District, Place 3                  UNDER VOTES                           PRECINCT 404                                           01 
01190030005000034000021000013000000000000000000          7th Court of Appeals District, Place 3                  UNDER VOTES                           PRECINCT 305                                           01 
01190030006000048000027000021000000000000000000          7th Court of Appeals District, Place 3                  UNDER VOTES                           PRECINCT 406                                           01 
01200010001000494000314000180000000000000000000REP       District Judge, 121st Judicial District                 Kelly G. Moore                        PRECINCT 101                                           01 
01200010002000479000297000182000000000000000000REP       District Judge, 121st Judicial District                 Kelly G. Moore                        PRECINCT 202                                           01 
01200010003000229000129000100000000000000000000REP       District Judge, 121st Judicial District                 Kelly G. Moore                        PRECINCT 303                                           01 
01200010004000286000183000103000000000000000000REP       District Judge, 121st Judicial District                 Kelly G. Moore                        PRECINCT 404                                           01 
01200010005000104000068000036000000000000000000REP       District Judge, 121st Judicial District                 Kelly G. Moore                        PRECINCT 305                                           01 
