01010010001001264          REGISTERED VOTERS - TOTAL                               REGISTERED VOTERS - TOTAL             PRECINCT 101                                           00 
01010010002001209          REGISTERED VOTERS - TOTAL                               REGISTERED VOTERS - TOTAL             PRECINCT 102                                           00 
01010010003001317          REGISTERED VOTERS - TOTAL                               REGISTERED VOTERS - TOTAL             PRECINCT 103                                           00 
01010010004000701          REGISTERED VOTERS - TOTAL                               REGISTERED VOTERS - TOTAL             PRECINCT 104                                           00 
01010010005001818          REGISTERED VOTERS - TOTAL                               REGISTERED VOTERS - TOTAL             PRECINCT 205                                           00 
01010010006000572          REGISTERED VOTERS - TOTAL                               REGISTERED VOTERS - TOTAL             PRECINCT 206                                           00 
01010010007000356          REGISTERED VOTERS - TOTAL                               REGISTERED VOTERS - TOTAL             PRECINCT 207                                           00 
01010010008000588          REGISTERED VOTERS - TOTAL                               REGISTERED VOTERS - TOTAL             PRECINCT 208                                           00 
01010010009000525          REGISTERED VOTERS - TOTAL                               REGISTERED VOTERS - TOTAL             PRECINCT 209                                           00 
01010010010000665          REGISTERED VOTERS - TOTAL                               REGISTERED VOTERS - TOTAL             PRECINCT 210                                           00 
01010010011000354          REGISTERED VOTERS - TOTAL                               REGISTERED VOTERS - TOTAL             PRECINCT 211                                           00 
01010010012000510          REGISTERED VOTERS - TOTAL                               REGISTERED VOTERS - TOTAL             PRECINCT 312                                           00 
01010010013001071          REGISTERED VOTERS - TOTAL                               REGISTERED VOTERS - TOTAL             PRECINCT 313                                           00 
01010010014002364          REGISTERED VOTERS - TOTAL                               REGISTERED VOTERS - TOTAL             PRECINCT 314                                           00 
01010010015001476          REGISTERED VOTERS - TOTAL                               REGISTERED VOTERS - TOTAL             PRECINCT 415                                           00 
01010010016001217          REGISTERED VOTERS - TOTAL                               REGISTERED VOTERS - TOTAL             PRECINCT 416                                           00 
01010010017000622          REGISTERED VOTERS - TOTAL                               REGISTERED VOTERS - TOTAL             PRECINCT 417                                           00 
01010010018001126          REGISTERED VOTERS - TOTAL                               REGISTERED VOTERS - TOTAL             PRECINCT 418                                           00 
01020010001000000REP       REGISTERED VOTERS - REPUBLICAN PARTY                    REGISTERED VOTERS - REPUBLICAN PARTY  PRECINCT 101                                           00 
01020010002000000REP       REGISTERED VOTERS - REPUBLICAN PARTY                    REGISTERED VOTERS - REPUBLICAN PARTY  PRECINCT 102                                           00 
01020010003000000REP       REGISTERED VOTERS - REPUBLICAN PARTY                    REGISTERED VOTERS - REPUBLICAN PARTY  PRECINCT 103                                           00 
01020010004000000REP       REGISTERED VOTERS - REPUBLICAN PARTY                    REGISTERED VOTERS - REPUBLICAN PARTY  PRECINCT 104                                           00 
01020010005000000REP       REGISTERED VOTERS - REPUBLICAN PARTY                    REGISTERED VOTERS - REPUBLICAN PARTY  PRECINCT 205                                           00 
01020010006000000REP       REGISTERED VOTERS - REPUBLICAN PARTY                    REGISTERED VOTERS - REPUBLICAN PARTY  PRECINCT 206                                           00 
01020010007000000REP       REGISTERED VOTERS - REPUBLICAN PARTY                    REGISTERED VOTERS - REPUBLICAN PARTY  PRECINCT 207                                           00 
01020010008000000REP       REGISTERED VOTERS - REPUBLICAN PARTY                    REGISTERED VOTERS - REPUBLICAN PARTY  PRECINCT 208                                           00 
01020010009000000REP       REGISTERED VOTERS - REPUBLICAN PARTY                    REGISTERED VOTERS - REPUBLICAN PARTY  PRECINCT 209                                           00 
01020010010000000REP       REGISTERED VOTERS - REPUBLICAN PARTY                    REGISTERED VOTERS - REPUBLICAN PARTY  PRECINCT 210                                           00 
01020010011000000REP       REGISTERED VOTERS - REPUBLICAN PARTY                    REGISTERED VOTERS - REPUBLICAN PARTY  PRECINCT 211                                           00 
01020010012000000REP       REGISTERED VOTERS - REPUBLICAN PARTY                    REGISTERED VOTERS - REPUBLICAN PARTY  PRECINCT 312                                           00 
01020010013000000REP       REGISTERED VOTERS - REPUBLICAN PARTY                    REGISTERED VOTERS - REPUBLICAN PARTY  PRECINCT 313                                           00 
01020010014000000REP       REGISTERED VOTERS - REPUBLICAN PARTY                    REGISTERED VOTERS - REPUBLICAN PARTY  PRECINCT 314                                           00 
01020010015000000REP       REGISTERED VOTERS - REPUBLICAN PARTY                    REGISTERED VOTERS - REPUBLICAN PARTY  PRECINCT 415                                           00 
01020010016000000REP       REGISTERED VOTERS - REPUBLICAN PARTY                    REGISTERED VOTERS - REPUBLICAN PARTY  PRECINCT 416                                           00 
01020010017000000REP       REGISTERED VOTERS - REPUBLICAN PARTY                    REGISTERED VOTERS - REPUBLICAN PARTY  PRECINCT 417                                           00 
01020010018000000REP       REGISTERED VOTERS - REPUBLICAN PARTY                    REGISTERED VOTERS - REPUBLICAN PARTY  PRECINCT 418                                           00 
01030010001000000DEM       REGISTERED VOTERS - DEMOCRATIC PARTY                    REGISTERED VOTERS - DEMOCRATIC PARTY  PRECINCT 101                                           00 
01030010002000000DEM       REGISTERED VOTERS - DEMOCRATIC PARTY                    REGISTERED VOTERS - DEMOCRATIC PARTY  PRECINCT 102                                           00 
01030010003000000DEM       REGISTERED VOTERS - DEMOCRATIC PARTY                    REGISTERED VOTERS - DEMOCRATIC PARTY  PRECINCT 103                                           00 
01030010004000000DEM       REGISTERED VOTERS - DEMOCRATIC PARTY                    REGISTERED VOTERS - DEMOCRATIC PARTY  PRECINCT 104                                           00 
01030010005000000DEM       REGISTERED VOTERS - DEMOCRATIC PARTY                    REGISTERED VOTERS - DEMOCRATIC PARTY  PRECINCT 205                                           00 
01030010006000000DEM       REGISTERED VOTERS - DEMOCRATIC PARTY                    REGISTERED VOTERS - DEMOCRATIC PARTY  PRECINCT 206                                           00 
01030010007000000DEM       REGISTERED VOTERS - DEMOCRATIC PARTY                    REGISTERED VOTERS - DEMOCRATIC PARTY  PRECINCT 207                                           00 
01030010008000000DEM       REGISTERED VOTERS - DEMOCRATIC PARTY                    REGISTERED VOTERS - DEMOCRATIC PARTY  PRECINCT 208                                           00 
01030010009000000DEM       REGISTERED VOTERS - DEMOCRATIC PARTY                    REGISTERED VOTERS - DEMOCRATIC PARTY  PRECINCT 209                                           00 
01030010010000000DEM       REGISTERED VOTERS - DEMOCRATIC PARTY                    REGISTERED VOTERS - DEMOCRATIC PARTY  PRECINCT 210                                           00 
01030010011000000DEM       REGISTERED VOTERS - DEMOCRATIC PARTY                    REGISTERED VOTERS - DEMOCRATIC PARTY  PRECINCT 211                                           00 
01030010012000000DEM       REGISTERED VOTERS - DEMOCRATIC PARTY                    REGISTERED VOTERS - DEMOCRATIC PARTY  PRECINCT 312                                           00 
01030010013000000DEM       REGISTERED VOTERS - DEMOCRATIC PARTY                    REGISTERED VOTERS - DEMOCRATIC PARTY  PRECINCT 313                                           00 
01030010014000000DEM       REGISTERED VOTERS - DEMOCRATIC PARTY                    REGISTERED VOTERS - DEMOCRATIC PARTY  PRECINCT 314                                           00 
01030010015000000DEM       REGISTERED VOTERS - DEMOCRATIC PARTY                    REGISTERED VOTERS - DEMOCRATIC PARTY  PRECINCT 415                                           00 
01030010016000000DEM       REGISTERED VOTERS - DEMOCRATIC PARTY                    REGISTERED VOTERS - DEMOCRATIC PARTY  PRECINCT 416                                           00 
01030010017000000DEM       REGISTERED VOTERS - DEMOCRATIC PARTY                    REGISTERED VOTERS - DEMOCRATIC PARTY  PRECINCT 417                                           00 
01030010018000000DEM       REGISTERED VOTERS - DEMOCRATIC PARTY                    REGISTERED VOTERS - DEMOCRATIC PARTY  PRECINCT 418                                           00 
01040010001000365          BALLOTS CAST - TOTAL                                    BALLOTS CAST - TOTAL                  PRECINCT 101                                           00 
01040010002000340          BALLOTS CAST - TOTAL                                    BALLOTS CAST - TOTAL                  PRECINCT 102                                           00 
01040010003000449          BALLOTS CAST - TOTAL                                    BALLOTS CAST - TOTAL                  PRECINCT 103                                           00 
01040010004000252          BALLOTS CAST - TOTAL                                    BALLOTS CAST - TOTAL                  PRECINCT 104                                           00 
01040010005000573          BALLOTS CAST - TOTAL                                    BALLOTS CAST - TOTAL                  PRECINCT 205                                           00 
01040010006000151          BALLOTS CAST - TOTAL                                    BALLOTS CAST - TOTAL                  PRECINCT 206                                           00 
01040010007000122          BALLOTS CAST - TOTAL                                    BALLOTS CAST - TOTAL                  PRECINCT 207                                           00 
01040010008000161          BALLOTS CAST - TOTAL                                    BALLOTS CAST - TOTAL                  PRECINCT 208                                           00 
01040010009000176          BALLOTS CAST - TOTAL                                    BALLOTS CAST - TOTAL                  PRECINCT 209                                           00 
01040010010000232          BALLOTS CAST - TOTAL                                    BALLOTS CAST - TOTAL                  PRECINCT 210                                           00 
01040010011000116          BALLOTS CAST - TOTAL                                    BALLOTS CAST - TOTAL                  PRECINCT 211                                           00 
01040010012000235          BALLOTS CAST - TOTAL                                    BALLOTS CAST - TOTAL                  PRECINCT 312                                           00 
01040010013000154          BALLOTS CAST - TOTAL                                    BALLOTS CAST - TOTAL                  PRECINCT 313                                           00 
01040010014000584          BALLOTS CAST - TOTAL                                    BALLOTS CAST - TOTAL                  PRECINCT 314                                           00 
01040010015000307          BALLOTS CAST - TOTAL                                    BALLOTS CAST - TOTAL                  PRECINCT 415                                           00 
01040010016000290          BALLOTS CAST - TOTAL                                    BALLOTS CAST - TOTAL                  PRECINCT 416                                           00 
01040010017000111          BALLOTS CAST - TOTAL                                    BALLOTS CAST - TOTAL                  PRECINCT 417                                           00 
01040010018000276          BALLOTS CAST - TOTAL                                    BALLOTS CAST - TOTAL                  PRECINCT 418                                           00 
01050010001000342REP       BALLOTS CAST - REPUBLICAN PARTY                         BALLOTS CAST - REPUBLICAN PARTY       PRECINCT 101                                           00 
01050010002000315REP       BALLOTS CAST - REPUBLICAN PARTY                         BALLOTS CAST - REPUBLICAN PARTY       PRECINCT 102                                           00 
01050010003000435REP       BALLOTS CAST - REPUBLICAN PARTY                         BALLOTS CAST - REPUBLICAN PARTY       PRECINCT 103                                           00 
01050010004000242REP       BALLOTS CAST - REPUBLICAN PARTY                         BALLOTS CAST - REPUBLICAN PARTY       PRECINCT 104                                           00 
01050010005000530REP       BALLOTS CAST - REPUBLICAN PARTY                         BALLOTS CAST - REPUBLICAN PARTY       PRECINCT 205                                           00 
01050010006000142REP       BALLOTS CAST - REPUBLICAN PARTY                         BALLOTS CAST - REPUBLICAN PARTY       PRECINCT 206                                           00 
01050010007000119REP       BALLOTS CAST - REPUBLICAN PARTY                         BALLOTS CAST - REPUBLICAN PARTY       PRECINCT 207                                           00 
01050010008000152REP       BALLOTS CAST - REPUBLICAN PARTY                         BALLOTS CAST - REPUBLICAN PARTY       PRECINCT 208                                           00 
01050010009000162REP       BALLOTS CAST - REPUBLICAN PARTY                         BALLOTS CAST - REPUBLICAN PARTY       PRECINCT 209                                           00 
01050010010000227REP       BALLOTS CAST - REPUBLICAN PARTY                         BALLOTS CAST - REPUBLICAN PARTY       PRECINCT 210                                           00 
01050010011000115REP       BALLOTS CAST - REPUBLICAN PARTY                         BALLOTS CAST - REPUBLICAN PARTY       PRECINCT 211                                           00 
01050010012000231REP       BALLOTS CAST - REPUBLICAN PARTY                         BALLOTS CAST - REPUBLICAN PARTY       PRECINCT 312                                           00 
01050010013000136REP       BALLOTS CAST - REPUBLICAN PARTY                         BALLOTS CAST - REPUBLICAN PARTY       PRECINCT 313                                           00 
01050010014000549REP       BALLOTS CAST - REPUBLICAN PARTY                         BALLOTS CAST - REPUBLICAN PARTY       PRECINCT 314                                           00 
01050010015000263REP       BALLOTS CAST - REPUBLICAN PARTY                         BALLOTS CAST - REPUBLICAN PARTY       PRECINCT 415                                           00 
01050010016000277REP       BALLOTS CAST - REPUBLICAN PARTY                         BALLOTS CAST - REPUBLICAN PARTY       PRECINCT 416                                           00 
01050010017000101REP       BALLOTS CAST - REPUBLICAN PARTY                         BALLOTS CAST - REPUBLICAN PARTY       PRECINCT 417                                           00 
01050010018000269REP       BALLOTS CAST - REPUBLICAN PARTY                         BALLOTS CAST - REPUBLICAN PARTY       PRECINCT 418                                           00 
01060010001000023DEM       BALLOTS CAST - DEMOCRATIC PARTY                         BALLOTS CAST - DEMOCRATIC PARTY       PRECINCT 101                                           00 
01060010002000025DEM       BALLOTS CAST - DEMOCRATIC PARTY                         BALLOTS CAST - DEMOCRATIC PARTY       PRECINCT 102                                           00 
01060010003000014DEM       BALLOTS CAST - DEMOCRATIC PARTY                         BALLOTS CAST - DEMOCRATIC PARTY       PRECINCT 103                                           00 
01060010004000010DEM       BALLOTS CAST - DEMOCRATIC PARTY                         BALLOTS CAST - DEMOCRATIC PARTY       PRECINCT 104                                           00 
01060010005000043DEM       BALLOTS CAST - DEMOCRATIC PARTY                         BALLOTS CAST - DEMOCRATIC PARTY       PRECINCT 205                                           00 
01060010006000009DEM       BALLOTS CAST - DEMOCRATIC PARTY                         BALLOTS CAST - DEMOCRATIC PARTY       PRECINCT 206                                           00 
01060010007000003DEM       BALLOTS CAST - DEMOCRATIC PARTY                         BALLOTS CAST - DEMOCRATIC PARTY       PRECINCT 207                                           00 
01060010008000009DEM       BALLOTS CAST - DEMOCRATIC PARTY                         BALLOTS CAST - DEMOCRATIC PARTY       PRECINCT 208                                           00 
01060010009000014DEM       BALLOTS CAST - DEMOCRATIC PARTY                         BALLOTS CAST - DEMOCRATIC PARTY       PRECINCT 209                                           00 
01060010010000005DEM       BALLOTS CAST - DEMOCRATIC PARTY                         BALLOTS CAST - DEMOCRATIC PARTY       PRECINCT 210                                           00 
01060010011000001DEM       BALLOTS CAST - DEMOCRATIC PARTY                         BALLOTS CAST - DEMOCRATIC PARTY       PRECINCT 211                                           00 
01060010012000004DEM       BALLOTS CAST - DEMOCRATIC PARTY                         BALLOTS CAST - DEMOCRATIC PARTY       PRECINCT 312                                           00 
01060010013000018DEM       BALLOTS CAST - DEMOCRATIC PARTY                         BALLOTS CAST - DEMOCRATIC PARTY       PRECINCT 313                                           00 
01060010014000035DEM       BALLOTS CAST - DEMOCRATIC PARTY                         BALLOTS CAST - DEMOCRATIC PARTY       PRECINCT 314                                           00 
01060010015000044DEM       BALLOTS CAST - DEMOCRATIC PARTY                         BALLOTS CAST - DEMOCRATIC PARTY       PRECINCT 415                                           00 
01060010016000013DEM       BALLOTS CAST - DEMOCRATIC PARTY                         BALLOTS CAST - DEMOCRATIC PARTY       PRECINCT 416                                           00 
01060010017000010DEM       BALLOTS CAST - DEMOCRATIC PARTY                         BALLOTS CAST - DEMOCRATIC PARTY       PRECINCT 417                                           00 
01060010018000007DEM       BALLOTS CAST - DEMOCRATIC PARTY                         BALLOTS CAST - DEMOCRATIC PARTY       PRECINCT 418                                           00 
01070010001000015REP       President                                               Newt Gingrich                         PRECINCT 101                                           01 
01070010002000012REP       President                                               Newt Gingrich                         PRECINCT 102                                           01 
01070010003000028REP       President                                               Newt Gingrich                         PRECINCT 103                                           01 
01070010004000017REP       President                                               Newt Gingrich                         PRECINCT 104                                           01 
01070010005000030REP       President                                               Newt Gingrich                         PRECINCT 205                                           01 
01070010006000010REP       President                                               Newt Gingrich                         PRECINCT 206                                           01 
01070010007000009REP       President                                               Newt Gingrich                         PRECINCT 207                                           01 
01070010008000010REP       President                                               Newt Gingrich                         PRECINCT 208                                           01 
01070010009000012REP       President                                               Newt Gingrich                         PRECINCT 209                                           01 
01070010010000010REP       President                                               Newt Gingrich                         PRECINCT 210                                           01 
01070010011000006REP       President                                               Newt Gingrich                         PRECINCT 211                                           01 
01070010012000008REP       President                                               Newt Gingrich                         PRECINCT 312                                           01 
01070010013000010REP       President                                               Newt Gingrich                         PRECINCT 313                                           01 
01070010014000021REP       President                                               Newt Gingrich                         PRECINCT 314                                           01 
01070010015000010REP       President                                               Newt Gingrich                         PRECINCT 415                                           01 
01070010016000014REP       President                                               Newt Gingrich                         PRECINCT 416                                           01 
01070010017000005REP       President                                               Newt Gingrich                         PRECINCT 417                                           01 
01070010018000009REP       President                                               Newt Gingrich                         PRECINCT 418                                           01 
01070020001000001REP       President                                               Jon Huntsman                          PRECINCT 101                                           01 
01070020002000001REP       President                                               Jon Huntsman                          PRECINCT 102                                           01 
01070020003000001REP       President                                               Jon Huntsman                          PRECINCT 103                                           01 
01070020004000001REP       President                                               Jon Huntsman                          PRECINCT 104                                           01 
01070020005000000REP       President                                               Jon Huntsman                          PRECINCT 205                                           01 
01070020006000001REP       President                                               Jon Huntsman                          PRECINCT 206                                           01 
01070020007000000REP       President                                               Jon Huntsman                          PRECINCT 207                                           01 
01070020008000001REP       President                                               Jon Huntsman                          PRECINCT 208                                           01 
01070020009000000REP       President                                               Jon Huntsman                          PRECINCT 209                                           01 
01070020010000001REP       President                                               Jon Huntsman                          PRECINCT 210                                           01 
01070020011000000REP       President                                               Jon Huntsman                          PRECINCT 211                                           01 
01070020012000000REP       President                                               Jon Huntsman                          PRECINCT 312                                           01 
01070020013000002REP       President                                               Jon Huntsman                          PRECINCT 313                                           01 
01070020014000001REP       President                                               Jon Huntsman                          PRECINCT 314                                           01 
01070020015000003REP       President                                               Jon Huntsman                          PRECINCT 415                                           01 
01070020016000002REP       President                                               Jon Huntsman                          PRECINCT 416                                           01 
01070020017000000REP       President                                               Jon Huntsman                          PRECINCT 417                                           01 
01070020018000001REP       President                                               Jon Huntsman                          PRECINCT 418                                           01 
01070030001000000REP       President                                               Michele Bachmann                      PRECINCT 101                                           01 
01070030002000003REP       President                                               Michele Bachmann                      PRECINCT 102                                           01 
01070030003000003REP       President                                               Michele Bachmann                      PRECINCT 103                                           01 
01070030004000001REP       President                                               Michele Bachmann                      PRECINCT 104                                           01 
01070030005000006REP       President                                               Michele Bachmann                      PRECINCT 205                                           01 
01070030006000002REP       President                                               Michele Bachmann                      PRECINCT 206                                           01 
01070030007000002REP       President                                               Michele Bachmann                      PRECINCT 207                                           01 
01070030008000002REP       President                                               Michele Bachmann                      PRECINCT 208                                           01 
01070030009000000REP       President                                               Michele Bachmann                      PRECINCT 209                                           01 
01070030010000001REP       President                                               Michele Bachmann                      PRECINCT 210                                           01 
01070030011000001REP       President                                               Michele Bachmann                      PRECINCT 211                                           01 
01070030012000005REP       President                                               Michele Bachmann                      PRECINCT 312                                           01 
01070030013000004REP       President                                               Michele Bachmann                      PRECINCT 313                                           01 
01070030014000004REP       President                                               Michele Bachmann                      PRECINCT 314                                           01 
01070030015000002REP       President                                               Michele Bachmann                      PRECINCT 415                                           01 
01070030016000003REP       President                                               Michele Bachmann                      PRECINCT 416                                           01 
01070030017000002REP       President                                               Michele Bachmann                      PRECINCT 417                                           01 
01070030018000001REP       President                                               Michele Bachmann                      PRECINCT 418                                           01 
01070040001000026REP       President                                               Rick Santorum                         PRECINCT 101                                           01 
01070040002000022REP       President                                               Rick Santorum                         PRECINCT 102                                           01 
01070040003000034REP       President                                               Rick Santorum                         PRECINCT 103                                           01 
01070040004000013REP       President                                               Rick Santorum                         PRECINCT 104                                           01 
01070040005000045REP       President                                               Rick Santorum                         PRECINCT 205                                           01 
01070040006000002REP       President                                               Rick Santorum                         PRECINCT 206                                           01 
01070040007000010REP       President                                               Rick Santorum                         PRECINCT 207                                           01 
01070040008000015REP       President                                               Rick Santorum                         PRECINCT 208                                           01 
01070040009000003REP       President                                               Rick Santorum                         PRECINCT 209                                           01 
01070040010000017REP       President                                               Rick Santorum                         PRECINCT 210                                           01 
01070040011000010REP       President                                               Rick Santorum                         PRECINCT 211                                           01 
01070040012000012REP       President                                               Rick Santorum                         PRECINCT 312                                           01 
01070040013000006REP       President                                               Rick Santorum                         PRECINCT 313                                           01 
01070040014000032REP       President                                               Rick Santorum                         PRECINCT 314                                           01 
01070040015000025REP       President                                               Rick Santorum                         PRECINCT 415                                           01 
01070040016000015REP       President                                               Rick Santorum                         PRECINCT 416                                           01 
01070040017000012REP       President                                               Rick Santorum                         PRECINCT 417                                           01 
01070040018000021REP       President                                               Rick Santorum                         PRECINCT 418                                           01 
01070050001000002REP       President                                               Charles "Buddy" Roemer                PRECINCT 101                                           01 
01070050002000000REP       President                                               Charles "Buddy" Roemer                PRECINCT 102                                           01 
01070050003000003REP       President                                               Charles "Buddy" Roemer                PRECINCT 103                                           01 
01070050004000000REP       President                                               Charles "Buddy" Roemer                PRECINCT 104                                           01 
01070050005000000REP       President                                               Charles "Buddy" Roemer                PRECINCT 205                                           01 
01070050006000000REP       President                                               Charles "Buddy" Roemer                PRECINCT 206                                           01 
01070050007000000REP       President                                               Charles "Buddy" Roemer                PRECINCT 207                                           01 
01070050008000000REP       President                                               Charles "Buddy" Roemer                PRECINCT 208                                           01 
01070050009000001REP       President                                               Charles "Buddy" Roemer                PRECINCT 209                                           01 
01070050010000000REP       President                                               Charles "Buddy" Roemer                PRECINCT 210                                           01 
01070050011000002REP       President                                               Charles "Buddy" Roemer                PRECINCT 211                                           01 
01070050012000000REP       President                                               Charles "Buddy" Roemer                PRECINCT 312                                           01 
01070050013000000REP       President                                               Charles "Buddy" Roemer                PRECINCT 313                                           01 
01070050014000001REP       President                                               Charles "Buddy" Roemer                PRECINCT 314                                           01 
01070050015000003REP       President                                               Charles "Buddy" Roemer                PRECINCT 415                                           01 
01070050016000001REP       President                                               Charles "Buddy" Roemer                PRECINCT 416                                           01 
01070050017000000REP       President                                               Charles "Buddy" Roemer                PRECINCT 417                                           01 
01070050018000000REP       President                                               Charles "Buddy" Roemer                PRECINCT 418                                           01 
01070060001000199REP       President                                               Mitt Romney                           PRECINCT 101                                           01 
01070060002000188REP       President                                               Mitt Romney                           PRECINCT 102                                           01 
01070060003000266REP       President                                               Mitt Romney                           PRECINCT 103                                           01 
01070060004000171REP       President                                               Mitt Romney                           PRECINCT 104                                           01 
01070060005000339REP       President                                               Mitt Romney                           PRECINCT 205                                           01 
01070060006000099REP       President                                               Mitt Romney                           PRECINCT 206                                           01 
01070060007000073REP       President                                               Mitt Romney                           PRECINCT 207                                           01 
01070060008000087REP       President                                               Mitt Romney                           PRECINCT 208                                           01 
01070060009000108REP       President                                               Mitt Romney                           PRECINCT 209                                           01 
01070060010000131REP       President                                               Mitt Romney                           PRECINCT 210                                           01 
01070060011000070REP       President                                               Mitt Romney                           PRECINCT 211                                           01 
01070060012000137REP       President                                               Mitt Romney                           PRECINCT 312                                           01 
01070060013000067REP       President                                               Mitt Romney                           PRECINCT 313                                           01 
01070060014000338REP       President                                               Mitt Romney                           PRECINCT 314                                           01 
01070060015000149REP       President                                               Mitt Romney                           PRECINCT 415                                           01 
01070060016000167REP       President                                               Mitt Romney                           PRECINCT 416                                           01 
01070060017000043REP       President                                               Mitt Romney                           PRECINCT 417                                           01 
01070060018000161REP       President                                               Mitt Romney                           PRECINCT 418                                           01 
01070070001000002REP       President                                               John Davis                            PRECINCT 101                                           01 
01070070002000000REP       President                                               John Davis                            PRECINCT 102                                           01 
01070070003000002REP       President                                               John Davis                            PRECINCT 103                                           01 
01070070004000000REP       President                                               John Davis                            PRECINCT 104                                           01 
01070070005000001REP       President                                               John Davis                            PRECINCT 205                                           01 
01070070006000000REP       President                                               John Davis                            PRECINCT 206                                           01 
01070070007000000REP       President                                               John Davis                            PRECINCT 207                                           01 
01070070008000001REP       President                                               John Davis                            PRECINCT 208                                           01 
01070070009000000REP       President                                               John Davis                            PRECINCT 209                                           01 
01070070010000000REP       President                                               John Davis                            PRECINCT 210                                           01 
01070070011000000REP       President                                               John Davis                            PRECINCT 211                                           01 
01070070012000001REP       President                                               John Davis                            PRECINCT 312                                           01 
01070070013000001REP       President                                               John Davis                            PRECINCT 313                                           01 
01070070014000002REP       President                                               John Davis                            PRECINCT 314                                           01 
01070070015000003REP       President                                               John Davis                            PRECINCT 415                                           01 
01070070016000002REP       President                                               John Davis                            PRECINCT 416                                           01 
01070070017000003REP       President                                               John Davis                            PRECINCT 417                                           01 
01070070018000000REP       President                                               John Davis                            PRECINCT 418                                           01 
01070080001000062REP       President                                               Ron Paul                              PRECINCT 101                                           01 
01070080002000055REP       President                                               Ron Paul                              PRECINCT 102                                           01 
01070080003000072REP       President                                               Ron Paul                              PRECINCT 103                                           01 
01070080004000029REP       President                                               Ron Paul                              PRECINCT 104                                           01 
01070080005000075REP       President                                               Ron Paul                              PRECINCT 205                                           01 
01070080006000023REP       President                                               Ron Paul                              PRECINCT 206                                           01 
01070080007000020REP       President                                               Ron Paul                              PRECINCT 207                                           01 
01070080008000029REP       President                                               Ron Paul                              PRECINCT 208                                           01 
01070080009000031REP       President                                               Ron Paul                              PRECINCT 209                                           01 
01070080010000054REP       President                                               Ron Paul                              PRECINCT 210                                           01 
01070080011000018REP       President                                               Ron Paul                              PRECINCT 211                                           01 
01070080012000033REP       President                                               Ron Paul                              PRECINCT 312                                           01 
01070080013000022REP       President                                               Ron Paul                              PRECINCT 313                                           01 
01070080014000082REP       President                                               Ron Paul                              PRECINCT 314                                           01 
01070080015000039REP       President                                               Ron Paul                              PRECINCT 415                                           01 
01070080016000049REP       President                                               Ron Paul                              PRECINCT 416                                           01 
01070080017000017REP       President                                               Ron Paul                              PRECINCT 417                                           01 
01070080018000056REP       President                                               Ron Paul                              PRECINCT 418                                           01 
01070090001000013REP       President                                               Uncommitted                           PRECINCT 101                                           01 
01070090002000014REP       President                                               Uncommitted                           PRECINCT 102                                           01 
01070090003000013REP       President                                               Uncommitted                           PRECINCT 103                                           01 
01070090004000002REP       President                                               Uncommitted                           PRECINCT 104                                           01 
01070090005000019REP       President                                               Uncommitted                           PRECINCT 205                                           01 
01070090006000002REP       President                                               Uncommitted                           PRECINCT 206                                           01 
01070090007000000REP       President                                               Uncommitted                           PRECINCT 207                                           01 
01070090008000003REP       President                                               Uncommitted                           PRECINCT 208                                           01 
01070090009000001REP       President                                               Uncommitted                           PRECINCT 209                                           01 
01070090010000005REP       President                                               Uncommitted                           PRECINCT 210                                           01 
01070090011000003REP       President                                               Uncommitted                           PRECINCT 211                                           01 
01070090012000014REP       President                                               Uncommitted                           PRECINCT 312                                           01 
01070090013000004REP       President                                               Uncommitted                           PRECINCT 313                                           01 
01070090014000034REP       President                                               Uncommitted                           PRECINCT 314                                           01 
01070090015000013REP       President                                               Uncommitted                           PRECINCT 415                                           01 
01070090016000009REP       President                                               Uncommitted                           PRECINCT 416                                           01 
01070090017000005REP       President                                               Uncommitted                           PRECINCT 417                                           01 
01070090018000006REP       President                                               Uncommitted                           PRECINCT 418                                           01 
01070100001000000REP       President                                               OVER VOTES                            PRECINCT 101                                           01 
01070100002000000REP       President                                               OVER VOTES                            PRECINCT 102                                           01 
01070100003000000REP       President                                               OVER VOTES                            PRECINCT 103                                           01 
01070100004000000REP       President                                               OVER VOTES                            PRECINCT 104                                           01 
01070100005000000REP       President                                               OVER VOTES                            PRECINCT 205                                           01 
01070100006000000REP       President                                               OVER VOTES                            PRECINCT 206                                           01 
01070100007000000REP       President                                               OVER VOTES                            PRECINCT 207                                           01 
01070100008000000REP       President                                               OVER VOTES                            PRECINCT 208                                           01 
01070100009000000REP       President                                               OVER VOTES                            PRECINCT 209                                           01 
01070100010000000REP       President                                               OVER VOTES                            PRECINCT 210                                           01 
01070100011000000REP       President                                               OVER VOTES                            PRECINCT 211                                           01 
01070100012000000REP       President                                               OVER VOTES                            PRECINCT 312                                           01 
01070100013000000REP       President                                               OVER VOTES                            PRECINCT 313                                           01 
01070100014000000REP       President                                               OVER VOTES                            PRECINCT 314                                           01 
01070100015000000REP       President                                               OVER VOTES                            PRECINCT 415                                           01 
01070100016000000REP       President                                               OVER VOTES                            PRECINCT 416                                           01 
01070100017000000REP       President                                               OVER VOTES                            PRECINCT 417                                           01 
01070100018000000REP       President                                               OVER VOTES                            PRECINCT 418                                           01 
01070110001000022REP       President                                               UNDER VOTES                           PRECINCT 101                                           01 
01070110002000020REP       President                                               UNDER VOTES                           PRECINCT 102                                           01 
01070110003000013REP       President                                               UNDER VOTES                           PRECINCT 103                                           01 
01070110004000008REP       President                                               UNDER VOTES                           PRECINCT 104                                           01 
01070110005000015REP       President                                               UNDER VOTES                           PRECINCT 205                                           01 
01070110006000003REP       President                                               UNDER VOTES                           PRECINCT 206                                           01 
01070110007000005REP       President                                               UNDER VOTES                           PRECINCT 207                                           01 
01070110008000004REP       President                                               UNDER VOTES                           PRECINCT 208                                           01 
01070110009000006REP       President                                               UNDER VOTES                           PRECINCT 209                                           01 
01070110010000008REP       President                                               UNDER VOTES                           PRECINCT 210                                           01 
01070110011000005REP       President                                               UNDER VOTES                           PRECINCT 211                                           01 
01070110012000021REP       President                                               UNDER VOTES                           PRECINCT 312                                           01 
01070110013000020REP       President                                               UNDER VOTES                           PRECINCT 313                                           01 
01070110014000034REP       President                                               UNDER VOTES                           PRECINCT 314                                           01 
01070110015000016REP       President                                               UNDER VOTES                           PRECINCT 415                                           01 
01070110016000015REP       President                                               UNDER VOTES                           PRECINCT 416                                           01 
01070110017000014REP       President                                               UNDER VOTES                           PRECINCT 417                                           01 
01070110018000014REP       President                                               UNDER VOTES                           PRECINCT 418                                           01 
01080010001000089REP       United States Senator                                   Ted Cruz                              PRECINCT 101                                           01 
01080010002000101REP       United States Senator                                   Ted Cruz                              PRECINCT 102                                           01 
01080010003000171REP       United States Senator                                   Ted Cruz                              PRECINCT 103                                           01 
01080010004000088REP       United States Senator                                   Ted Cruz                              PRECINCT 104                                           01 
01080010005000166REP       United States Senator                                   Ted Cruz                              PRECINCT 205                                           01 
01080010006000047REP       United States Senator                                   Ted Cruz                              PRECINCT 206                                           01 
01080010007000041REP       United States Senator                                   Ted Cruz                              PRECINCT 207                                           01 
01080010008000049REP       United States Senator                                   Ted Cruz                              PRECINCT 208                                           01 
01080010009000048REP       United States Senator                                   Ted Cruz                              PRECINCT 209                                           01 
01080010010000055REP       United States Senator                                   Ted Cruz                              PRECINCT 210                                           01 
01080010011000052REP       United States Senator                                   Ted Cruz                              PRECINCT 211                                           01 
01080010012000086REP       United States Senator                                   Ted Cruz                              PRECINCT 312                                           01 
01080010013000043REP       United States Senator                                   Ted Cruz                              PRECINCT 313                                           01 
01080010014000171REP       United States Senator                                   Ted Cruz                              PRECINCT 314                                           01 
01080010015000094REP       United States Senator                                   Ted Cruz                              PRECINCT 415                                           01 
01080010016000094REP       United States Senator                                   Ted Cruz                              PRECINCT 416                                           01 
01080010017000032REP       United States Senator                                   Ted Cruz                              PRECINCT 417                                           01 
01080010018000133REP       United States Senator                                   Ted Cruz                              PRECINCT 418                                           01 
01080020001000010REP       United States Senator                                   Glenn Addison                         PRECINCT 101                                           01 
01080020002000012REP       United States Senator                                   Glenn Addison                         PRECINCT 102                                           01 
01080020003000008REP       United States Senator                                   Glenn Addison                         PRECINCT 103                                           01 
01080020004000007REP       United States Senator                                   Glenn Addison                         PRECINCT 104                                           01 
01080020005000019REP       United States Senator                                   Glenn Addison                         PRECINCT 205                                           01 
01080020006000005REP       United States Senator                                   Glenn Addison                         PRECINCT 206                                           01 
01080020007000003REP       United States Senator                                   Glenn Addison                         PRECINCT 207                                           01 
01080020008000001REP       United States Senator                                   Glenn Addison                         PRECINCT 208                                           01 
01080020009000003REP       United States Senator                                   Glenn Addison                         PRECINCT 209                                           01 
01080020010000002REP       United States Senator                                   Glenn Addison                         PRECINCT 210                                           01 
01080020011000001REP       United States Senator                                   Glenn Addison                         PRECINCT 211                                           01 
01080020012000005REP       United States Senator                                   Glenn Addison                         PRECINCT 312                                           01 
01080020013000001REP       United States Senator                                   Glenn Addison                         PRECINCT 313                                           01 
01080020014000002REP       United States Senator                                   Glenn Addison                         PRECINCT 314                                           01 
01080020015000006REP       United States Senator                                   Glenn Addison                         PRECINCT 415                                           01 
01080020016000007REP       United States Senator                                   Glenn Addison                         PRECINCT 416                                           01 
01080020017000002REP       United States Senator                                   Glenn Addison                         PRECINCT 417                                           01 
01080020018000004REP       United States Senator                                   Glenn Addison                         PRECINCT 418                                           01 
01080030001000002REP       United States Senator                                   Joe Agris                             PRECINCT 101                                           01 
01080030002000002REP       United States Senator                                   Joe Agris                             PRECINCT 102                                           01 
01080030003000002REP       United States Senator                                   Joe Agris                             PRECINCT 103                                           01 
01080030004000001REP       United States Senator                                   Joe Agris                             PRECINCT 104                                           01 
01080030005000002REP       United States Senator                                   Joe Agris                             PRECINCT 205                                           01 
01080030006000000REP       United States Senator                                   Joe Agris                             PRECINCT 206                                           01 
01080030007000000REP       United States Senator                                   Joe Agris                             PRECINCT 207                                           01 
01080030008000000REP       United States Senator                                   Joe Agris                             PRECINCT 208                                           01 
01080030009000001REP       United States Senator                                   Joe Agris                             PRECINCT 209                                           01 
01080030010000000REP       United States Senator                                   Joe Agris                             PRECINCT 210                                           01 
01080030011000000REP       United States Senator                                   Joe Agris                             PRECINCT 211                                           01 
01080030012000000REP       United States Senator                                   Joe Agris                             PRECINCT 312                                           01 
01080030013000000REP       United States Senator                                   Joe Agris                             PRECINCT 313                                           01 
01080030014000000REP       United States Senator                                   Joe Agris                             PRECINCT 314                                           01 
01080030015000000REP       United States Senator                                   Joe Agris                             PRECINCT 415                                           01 
01080030016000002REP       United States Senator                                   Joe Agris                             PRECINCT 416                                           01 
01080030017000000REP       United States Senator                                   Joe Agris                             PRECINCT 417                                           01 
01080030018000001REP       United States Senator                                   Joe Agris                             PRECINCT 418                                           01 
01080040001000006REP       United States Senator                                   Lela Pittenger                        PRECINCT 101                                           01 
01080040002000005REP       United States Senator                                   Lela Pittenger                        PRECINCT 102                                           01 
01080040003000004REP       United States Senator                                   Lela Pittenger                        PRECINCT 103                                           01 
01080040004000003REP       United States Senator                                   Lela Pittenger                        PRECINCT 104                                           01 
01080040005000009REP       United States Senator                                   Lela Pittenger                        PRECINCT 205                                           01 
01080040006000005REP       United States Senator                                   Lela Pittenger                        PRECINCT 206                                           01 
01080040007000001REP       United States Senator                                   Lela Pittenger                        PRECINCT 207                                           01 
01080040008000000REP       United States Senator                                   Lela Pittenger                        PRECINCT 208                                           01 
01080040009000000REP       United States Senator                                   Lela Pittenger                        PRECINCT 209                                           01 
01080040010000003REP       United States Senator                                   Lela Pittenger                        PRECINCT 210                                           01 
01080040011000001REP       United States Senator                                   Lela Pittenger                        PRECINCT 211                                           01 
01080040012000001REP       United States Senator                                   Lela Pittenger                        PRECINCT 312                                           01 
01080040013000002REP       United States Senator                                   Lela Pittenger                        PRECINCT 313                                           01 
01080040014000009REP       United States Senator                                   Lela Pittenger                        PRECINCT 314                                           01 
01080040015000002REP       United States Senator                                   Lela Pittenger                        PRECINCT 415                                           01 
01080040016000002REP       United States Senator                                   Lela Pittenger                        PRECINCT 416                                           01 
01080040017000001REP       United States Senator                                   Lela Pittenger                        PRECINCT 417                                           01 
01080040018000000REP       United States Senator                                   Lela Pittenger                        PRECINCT 418                                           01 
01080050001000018REP       United States Senator                                   Craig James                           PRECINCT 101                                           01 
01080050002000004REP       United States Senator                                   Craig James                           PRECINCT 102                                           01 
01080050003000015REP       United States Senator                                   Craig James                           PRECINCT 103                                           01 
01080050004000009REP       United States Senator                                   Craig James                           PRECINCT 104                                           01 
01080050005000016REP       United States Senator                                   Craig James                           PRECINCT 205                                           01 
01080050006000005REP       United States Senator                                   Craig James                           PRECINCT 206                                           01 
01080050007000007REP       United States Senator                                   Craig James                           PRECINCT 207                                           01 
01080050008000002REP       United States Senator                                   Craig James                           PRECINCT 208                                           01 
01080050009000004REP       United States Senator                                   Craig James                           PRECINCT 209                                           01 
01080050010000008REP       United States Senator                                   Craig James                           PRECINCT 210                                           01 
01080050011000004REP       United States Senator                                   Craig James                           PRECINCT 211                                           01 
01080050012000009REP       United States Senator                                   Craig James                           PRECINCT 312                                           01 
01080050013000007REP       United States Senator                                   Craig James                           PRECINCT 313                                           01 
01080050014000016REP       United States Senator                                   Craig James                           PRECINCT 314                                           01 
01080050015000008REP       United States Senator                                   Craig James                           PRECINCT 415                                           01 
01080050016000011REP       United States Senator                                   Craig James                           PRECINCT 416                                           01 
01080050017000005REP       United States Senator                                   Craig James                           PRECINCT 417                                           01 
01080050018000006REP       United States Senator                                   Craig James                           PRECINCT 418                                           01 
01080060001000000REP       United States Senator                                   Ben Gambini                           PRECINCT 101                                           01 
01080060002000002REP       United States Senator                                   Ben Gambini                           PRECINCT 102                                           01 
01080060003000002REP       United States Senator                                   Ben Gambini                           PRECINCT 103                                           01 
01080060004000001REP       United States Senator                                   Ben Gambini                           PRECINCT 104                                           01 
01080060005000000REP       United States Senator                                   Ben Gambini                           PRECINCT 205                                           01 
01080060006000000REP       United States Senator                                   Ben Gambini                           PRECINCT 206                                           01 
01080060007000000REP       United States Senator                                   Ben Gambini                           PRECINCT 207                                           01 
01080060008000000REP       United States Senator                                   Ben Gambini                           PRECINCT 208                                           01 
01080060009000000REP       United States Senator                                   Ben Gambini                           PRECINCT 209                                           01 
01080060010000002REP       United States Senator                                   Ben Gambini                           PRECINCT 210                                           01 
01080060011000001REP       United States Senator                                   Ben Gambini                           PRECINCT 211                                           01 
01080060012000002REP       United States Senator                                   Ben Gambini                           PRECINCT 312                                           01 
01080060013000000REP       United States Senator                                   Ben Gambini                           PRECINCT 313                                           01 
01080060014000001REP       United States Senator                                   Ben Gambini                           PRECINCT 314                                           01 
01080060015000000REP       United States Senator                                   Ben Gambini                           PRECINCT 415                                           01 
01080060016000002REP       United States Senator                                   Ben Gambini                           PRECINCT 416                                           01 
01080060017000000REP       United States Senator                                   Ben Gambini                           PRECINCT 417                                           01 
01080060018000000REP       United States Senator                                   Ben Gambini                           PRECINCT 418                                           01 
01080070001000001REP       United States Senator                                   Curt Cleaver                          PRECINCT 101                                           01 
01080070002000000REP       United States Senator                                   Curt Cleaver                          PRECINCT 102                                           01 
01080070003000001REP       United States Senator                                   Curt Cleaver                          PRECINCT 103                                           01 
01080070004000001REP       United States Senator                                   Curt Cleaver                          PRECINCT 104                                           01 
01080070005000001REP       United States Senator                                   Curt Cleaver                          PRECINCT 205                                           01 
01080070006000000REP       United States Senator                                   Curt Cleaver                          PRECINCT 206                                           01 
01080070007000001REP       United States Senator                                   Curt Cleaver                          PRECINCT 207                                           01 
01080070008000000REP       United States Senator                                   Curt Cleaver                          PRECINCT 208                                           01 
01080070009000000REP       United States Senator                                   Curt Cleaver                          PRECINCT 209                                           01 
01080070010000001REP       United States Senator                                   Curt Cleaver                          PRECINCT 210                                           01 
01080070011000000REP       United States Senator                                   Curt Cleaver                          PRECINCT 211                                           01 
01080070012000000REP       United States Senator                                   Curt Cleaver                          PRECINCT 312                                           01 
01080070013000000REP       United States Senator                                   Curt Cleaver                          PRECINCT 313                                           01 
01080070014000002REP       United States Senator                                   Curt Cleaver                          PRECINCT 314                                           01 
01080070015000001REP       United States Senator                                   Curt Cleaver                          PRECINCT 415                                           01 
01080070016000000REP       United States Senator                                   Curt Cleaver                          PRECINCT 416                                           01 
01080070017000000REP       United States Senator                                   Curt Cleaver                          PRECINCT 417                                           01 
01080070018000000REP       United States Senator                                   Curt Cleaver                          PRECINCT 418                                           01 
01080080001000032REP       United States Senator                                   Tom Leppert                           PRECINCT 101                                           01 
01080080002000019REP       United States Senator                                   Tom Leppert                           PRECINCT 102                                           01 
01080080003000031REP       United States Senator                                   Tom Leppert                           PRECINCT 103                                           01 
01080080004000014REP       United States Senator                                   Tom Leppert                           PRECINCT 104                                           01 
01080080005000042REP       United States Senator                                   Tom Leppert                           PRECINCT 205                                           01 
01080080006000006REP       United States Senator                                   Tom Leppert                           PRECINCT 206                                           01 
01080080007000011REP       United States Senator                                   Tom Leppert                           PRECINCT 207                                           01 
01080080008000004REP       United States Senator                                   Tom Leppert                           PRECINCT 208                                           01 
01080080009000009REP       United States Senator                                   Tom Leppert                           PRECINCT 209                                           01 
01080080010000014REP       United States Senator                                   Tom Leppert                           PRECINCT 210                                           01 
01080080011000007REP       United States Senator                                   Tom Leppert                           PRECINCT 211                                           01 
01080080012000013REP       United States Senator                                   Tom Leppert                           PRECINCT 312                                           01 
01080080013000012REP       United States Senator                                   Tom Leppert                           PRECINCT 313                                           01 
01080080014000034REP       United States Senator                                   Tom Leppert                           PRECINCT 314                                           01 
01080080015000006REP       United States Senator                                   Tom Leppert                           PRECINCT 415                                           01 
01080080016000016REP       United States Senator                                   Tom Leppert                           PRECINCT 416                                           01 
01080080017000003REP       United States Senator                                   Tom Leppert                           PRECINCT 417                                           01 
01080080018000011REP       United States Senator                                   Tom Leppert                           PRECINCT 418                                           01 
01080090001000152REP       United States Senator                                   David Dewhurst                        PRECINCT 101                                           01 
01080090002000154REP       United States Senator                                   David Dewhurst                        PRECINCT 102                                           01 
01080090003000190REP       United States Senator                                   David Dewhurst                        PRECINCT 103                                           01 
01080090004000106REP       United States Senator                                   David Dewhurst                        PRECINCT 104                                           01 
01080090005000250REP       United States Senator                                   David Dewhurst                        PRECINCT 205                                           01 
01080090006000071REP       United States Senator                                   David Dewhurst                        PRECINCT 206                                           01 
01080090007000051REP       United States Senator                                   David Dewhurst                        PRECINCT 207                                           01 
01080090008000091REP       United States Senator                                   David Dewhurst                        PRECINCT 208                                           01 
01080090009000093REP       United States Senator                                   David Dewhurst                        PRECINCT 209                                           01 
01080090010000130REP       United States Senator                                   David Dewhurst                        PRECINCT 210                                           01 
01080090011000042REP       United States Senator                                   David Dewhurst                        PRECINCT 211                                           01 
01080090012000092REP       United States Senator                                   David Dewhurst                        PRECINCT 312                                           01 
01080090013000057REP       United States Senator                                   David Dewhurst                        PRECINCT 313                                           01 
01080090014000262REP       United States Senator                                   David Dewhurst                        PRECINCT 314                                           01 
01080090015000130REP       United States Senator                                   David Dewhurst                        PRECINCT 415                                           01 
01080090016000122REP       United States Senator                                   David Dewhurst                        PRECINCT 416                                           01 
01080090017000036REP       United States Senator                                   David Dewhurst                        PRECINCT 417                                           01 
01080090018000094REP       United States Senator                                   David Dewhurst                        PRECINCT 418                                           01 
01080100001000000REP       United States Senator                                   OVER VOTES                            PRECINCT 101                                           01 
01080100002000000REP       United States Senator                                   OVER VOTES                            PRECINCT 102                                           01 
01080100003000000REP       United States Senator                                   OVER VOTES                            PRECINCT 103                                           01 
01080100004000000REP       United States Senator                                   OVER VOTES                            PRECINCT 104                                           01 
01080100005000000REP       United States Senator                                   OVER VOTES                            PRECINCT 205                                           01 
01080100006000000REP       United States Senator                                   OVER VOTES                            PRECINCT 206                                           01 
01080100007000000REP       United States Senator                                   OVER VOTES                            PRECINCT 207                                           01 
01080100008000000REP       United States Senator                                   OVER VOTES                            PRECINCT 208                                           01 
01080100009000000REP       United States Senator                                   OVER VOTES                            PRECINCT 209                                           01 
01080100010000000REP       United States Senator                                   OVER VOTES                            PRECINCT 210                                           01 
01080100011000000REP       United States Senator                                   OVER VOTES                            PRECINCT 211                                           01 
01080100012000000REP       United States Senator                                   OVER VOTES                            PRECINCT 312                                           01 
01080100013000000REP       United States Senator                                   OVER VOTES                            PRECINCT 313                                           01 
01080100014000000REP       United States Senator                                   OVER VOTES                            PRECINCT 314                                           01 
01080100015000000REP       United States Senator                                   OVER VOTES                            PRECINCT 415                                           01 
01080100016000000REP       United States Senator                                   OVER VOTES                            PRECINCT 416                                           01 
01080100017000000REP       United States Senator                                   OVER VOTES                            PRECINCT 417                                           01 
01080100018000000REP       United States Senator                                   OVER VOTES                            PRECINCT 418                                           01 
01080110001000032REP       United States Senator                                   UNDER VOTES                           PRECINCT 101                                           01 
01080110002000016REP       United States Senator                                   UNDER VOTES                           PRECINCT 102                                           01 
01080110003000011REP       United States Senator                                   UNDER VOTES                           PRECINCT 103                                           01 
01080110004000012REP       United States Senator                                   UNDER VOTES                           PRECINCT 104                                           01 
01080110005000025REP       United States Senator                                   UNDER VOTES                           PRECINCT 205                                           01 
01080110006000003REP       United States Senator                                   UNDER VOTES                           PRECINCT 206                                           01 
01080110007000004REP       United States Senator                                   UNDER VOTES                           PRECINCT 207                                           01 
01080110008000005REP       United States Senator                                   UNDER VOTES                           PRECINCT 208                                           01 
01080110009000004REP       United States Senator                                   UNDER VOTES                           PRECINCT 209                                           01 
01080110010000012REP       United States Senator                                   UNDER VOTES                           PRECINCT 210                                           01 
01080110011000007REP       United States Senator                                   UNDER VOTES                           PRECINCT 211                                           01 
01080110012000023REP       United States Senator                                   UNDER VOTES                           PRECINCT 312                                           01 
01080110013000014REP       United States Senator                                   UNDER VOTES                           PRECINCT 313                                           01 
01080110014000052REP       United States Senator                                   UNDER VOTES                           PRECINCT 314                                           01 
01080110015000016REP       United States Senator                                   UNDER VOTES                           PRECINCT 415                                           01 
01080110016000021REP       United States Senator                                   UNDER VOTES                           PRECINCT 416                                           01 
01080110017000022REP       United States Senator                                   UNDER VOTES                           PRECINCT 417                                           01 
01080110018000020REP       United States Senator                                   UNDER VOTES                           PRECINCT 418                                           01 
01090010001000245REP       United States Representative, Dist 10                   Michael McCaul                        PRECINCT 101                                           01 
01090010002000237REP       United States Representative, Dist 10                   Michael McCaul                        PRECINCT 102                                           01 
01090010003000339REP       United States Representative, Dist 10                   Michael McCaul                        PRECINCT 103                                           01 
01090010004000198REP       United States Representative, Dist 10                   Michael McCaul                        PRECINCT 104                                           01 
01090010005000409REP       United States Representative, Dist 10                   Michael McCaul                        PRECINCT 205                                           01 
01090010006000120REP       United States Representative, Dist 10                   Michael McCaul                        PRECINCT 206                                           01 
01090010007000095REP       United States Representative, Dist 10                   Michael McCaul                        PRECINCT 207                                           01 
01090010008000130REP       United States Representative, Dist 10                   Michael McCaul                        PRECINCT 208                                           01 
01090010009000132REP       United States Representative, Dist 10                   Michael McCaul                        PRECINCT 209                                           01 
01090010010000181REP       United States Representative, Dist 10                   Michael McCaul                        PRECINCT 210                                           01 
01090010011000090REP       United States Representative, Dist 10                   Michael McCaul                        PRECINCT 211                                           01 
01090010012000182REP       United States Representative, Dist 10                   Michael McCaul                        PRECINCT 312                                           01 
01090010013000093REP       United States Representative, Dist 10                   Michael McCaul                        PRECINCT 313                                           01 
01090010014000423REP       United States Representative, Dist 10                   Michael McCaul                        PRECINCT 314                                           01 
01090010015000193REP       United States Representative, Dist 10                   Michael McCaul                        PRECINCT 415                                           01 
01090010016000220REP       United States Representative, Dist 10                   Michael McCaul                        PRECINCT 416                                           01 
01090010017000063REP       United States Representative, Dist 10                   Michael McCaul                        PRECINCT 417                                           01 
01090010018000203REP       United States Representative, Dist 10                   Michael McCaul                        PRECINCT 418                                           01 
01090020001000046REP       United States Representative, Dist 10                   Eddie Traylor                         PRECINCT 101                                           01 
01090020002000045REP       United States Representative, Dist 10                   Eddie Traylor                         PRECINCT 102                                           01 
01090020003000059REP       United States Representative, Dist 10                   Eddie Traylor                         PRECINCT 103                                           01 
01090020004000024REP       United States Representative, Dist 10                   Eddie Traylor                         PRECINCT 104                                           01 
01090020005000070REP       United States Representative, Dist 10                   Eddie Traylor                         PRECINCT 205                                           01 
01090020006000014REP       United States Representative, Dist 10                   Eddie Traylor                         PRECINCT 206                                           01 
01090020007000016REP       United States Representative, Dist 10                   Eddie Traylor                         PRECINCT 207                                           01 
01090020008000012REP       United States Representative, Dist 10                   Eddie Traylor                         PRECINCT 208                                           01 
01090020009000013REP       United States Representative, Dist 10                   Eddie Traylor                         PRECINCT 209                                           01 
01090020010000024REP       United States Representative, Dist 10                   Eddie Traylor                         PRECINCT 210                                           01 
01090020011000010REP       United States Representative, Dist 10                   Eddie Traylor                         PRECINCT 211                                           01 
01090020012000012REP       United States Representative, Dist 10                   Eddie Traylor                         PRECINCT 312                                           01 
01090020013000021REP       United States Representative, Dist 10                   Eddie Traylor                         PRECINCT 313                                           01 
01090020014000057REP       United States Representative, Dist 10                   Eddie Traylor                         PRECINCT 314                                           01 
01090020015000029REP       United States Representative, Dist 10                   Eddie Traylor                         PRECINCT 415                                           01 
01090020016000027REP       United States Representative, Dist 10                   Eddie Traylor                         PRECINCT 416                                           01 
01090020017000011REP       United States Representative, Dist 10                   Eddie Traylor                         PRECINCT 417                                           01 
01090020018000033REP       United States Representative, Dist 10                   Eddie Traylor                         PRECINCT 418                                           01 
01090030001000000REP       United States Representative, Dist 10                   OVER VOTES                            PRECINCT 101                                           01 
01090030002000000REP       United States Representative, Dist 10                   OVER VOTES                            PRECINCT 102                                           01 
01090030003000000REP       United States Representative, Dist 10                   OVER VOTES                            PRECINCT 103                                           01 
01090030004000000REP       United States Representative, Dist 10                   OVER VOTES                            PRECINCT 104                                           01 
01090030005000000REP       United States Representative, Dist 10                   OVER VOTES                            PRECINCT 205                                           01 
01090030006000000REP       United States Representative, Dist 10                   OVER VOTES                            PRECINCT 206                                           01 
01090030007000000REP       United States Representative, Dist 10                   OVER VOTES                            PRECINCT 207                                           01 
01090030008000000REP       United States Representative, Dist 10                   OVER VOTES                            PRECINCT 208                                           01 
01090030009000000REP       United States Representative, Dist 10                   OVER VOTES                            PRECINCT 209                                           01 
01090030010000000REP       United States Representative, Dist 10                   OVER VOTES                            PRECINCT 210                                           01 
01090030011000000REP       United States Representative, Dist 10                   OVER VOTES                            PRECINCT 211                                           01 
01090030012000000REP       United States Representative, Dist 10                   OVER VOTES                            PRECINCT 312                                           01 
