01070010001000016REP       President                                               Ron Paul                              PCT 1 - SE HENRIETTA                                   01 
01070010002000007REP       President                                               Ron Paul                              PCT 6 - BYERS                                          01 
01070010003000020REP       President                                               Ron Paul                              PCT 8 - NE HENRIETTA                                   01 
01070010004000019REP       President                                               Ron Paul                              PCT 9 - NW HENRIETTA                                   01 
01070010005000005REP       President                                               Ron Paul                              PCT 10 - VASHTI                                        01 
01070010006000006REP       President                                               Ron Paul                              PCT 11 - DEAN                                          01 
01070010007000005REP       President                                               Ron Paul                              PCT 12 - JOLLY                                         01 
01070010008000005REP       President                                               Ron Paul                              PCT 13 - THORNBERRY                                    01 
01070010009000006REP       President                                               Ron Paul                              PCT 14 - CHARLIE                                       01 
01070010010000007REP       President                                               Ron Paul                              PCT 15 - SW HENRIETTA                                  01 
01070010011000012REP       President                                               Ron Paul                              PCT 17 - ARROWHEAD                                     01 
01070010012000014REP       President                                               Ron Paul                              PCT 20 - MIDWAY                                        01 
01070010013000006REP       President                                               Ron Paul                              PCT 24 - BELLEVUE                                      01 
01070010014000004REP       President                                               Ron Paul                              PCT 26 - BUFFALO SPRINGS                               01 
01070010015000010REP       President                                               Ron Paul                              PCT 27 - PETROLIA                                      01 
01070010016000002REP       President                                               Ron Paul                              PCT 32 - WINDTHORST                                    01 
01070020001000000REP       President                                               John Davis                            PCT 1 - SE HENRIETTA                                   01 
01070020002000000REP       President                                               John Davis                            PCT 6 - BYERS                                          01 
01070020003000002REP       President                                               John Davis                            PCT 8 - NE HENRIETTA                                   01 
01070020004000000REP       President                                               John Davis                            PCT 9 - NW HENRIETTA                                   01 
01070020005000000REP       President                                               John Davis                            PCT 10 - VASHTI                                        01 
01070020006000001REP       President                                               John Davis                            PCT 11 - DEAN                                          01 
01070020007000000REP       President                                               John Davis                            PCT 12 - JOLLY                                         01 
01070020008000000REP       President                                               John Davis                            PCT 13 - THORNBERRY                                    01 
01070020009000000REP       President                                               John Davis                            PCT 14 - CHARLIE                                       01 
01070020010000000REP       President                                               John Davis                            PCT 15 - SW HENRIETTA                                  01 
01070020011000001REP       President                                               John Davis                            PCT 17 - ARROWHEAD                                     01 
01070020012000000REP       President                                               John Davis                            PCT 20 - MIDWAY                                        01 
01070020013000000REP       President                                               John Davis                            PCT 24 - BELLEVUE                                      01 
01070020014000001REP       President                                               John Davis                            PCT 26 - BUFFALO SPRINGS                               01 
01070020015000000REP       President                                               John Davis                            PCT 27 - PETROLIA                                      01 
01070020016000000REP       President                                               John Davis                            PCT 32 - WINDTHORST                                    01 
01070030001000025REP       President                                               Rick Santorum                         PCT 1 - SE HENRIETTA                                   01 
01070030002000009REP       President                                               Rick Santorum                         PCT 6 - BYERS                                          01 
01070030003000018REP       President                                               Rick Santorum                         PCT 8 - NE HENRIETTA                                   01 
01070030004000012REP       President                                               Rick Santorum                         PCT 9 - NW HENRIETTA                                   01 
01070030005000007REP       President                                               Rick Santorum                         PCT 10 - VASHTI                                        01 
01070030006000015REP       President                                               Rick Santorum                         PCT 11 - DEAN                                          01 
01070030007000003REP       President                                               Rick Santorum                         PCT 12 - JOLLY                                         01 
01070030008000006REP       President                                               Rick Santorum                         PCT 13 - THORNBERRY                                    01 
01070030009000006REP       President                                               Rick Santorum                         PCT 14 - CHARLIE                                       01 
01070030010000009REP       President                                               Rick Santorum                         PCT 15 - SW HENRIETTA                                  01 
01070030011000011REP       President                                               Rick Santorum                         PCT 17 - ARROWHEAD                                     01 
01070030012000007REP       President                                               Rick Santorum                         PCT 20 - MIDWAY                                        01 
01070030013000006REP       President                                               Rick Santorum                         PCT 24 - BELLEVUE                                      01 
01070030014000002REP       President                                               Rick Santorum                         PCT 26 - BUFFALO SPRINGS                               01 
01070030015000007REP       President                                               Rick Santorum                         PCT 27 - PETROLIA                                      01 
01070030016000005REP       President                                               Rick Santorum                         PCT 32 - WINDTHORST                                    01 
01070040001000011REP       President                                               Newt Gingrich                         PCT 1 - SE HENRIETTA                                   01 
01070040002000000REP       President                                               Newt Gingrich                         PCT 6 - BYERS                                          01 
01070040003000017REP       President                                               Newt Gingrich                         PCT 8 - NE HENRIETTA                                   01 
01070040004000007REP       President                                               Newt Gingrich                         PCT 9 - NW HENRIETTA                                   01 
01070040005000000REP       President                                               Newt Gingrich                         PCT 10 - VASHTI                                        01 
01070040006000014REP       President                                               Newt Gingrich                         PCT 11 - DEAN                                          01 
01070040007000000REP       President                                               Newt Gingrich                         PCT 12 - JOLLY                                         01 
01070040008000002REP       President                                               Newt Gingrich                         PCT 13 - THORNBERRY                                    01 
01070040009000002REP       President                                               Newt Gingrich                         PCT 14 - CHARLIE                                       01 
01070040010000004REP       President                                               Newt Gingrich                         PCT 15 - SW HENRIETTA                                  01 
01070040011000010REP       President                                               Newt Gingrich                         PCT 17 - ARROWHEAD                                     01 
01070040012000005REP       President                                               Newt Gingrich                         PCT 20 - MIDWAY                                        01 
01070040013000006REP       President                                               Newt Gingrich                         PCT 24 - BELLEVUE                                      01 
01070040014000003REP       President                                               Newt Gingrich                         PCT 26 - BUFFALO SPRINGS                               01 
01070040015000004REP       President                                               Newt Gingrich                         PCT 27 - PETROLIA                                      01 
01070040016000000REP       President                                               Newt Gingrich                         PCT 32 - WINDTHORST                                    01 
01070050001000001REP       President                                               Jon Huntsman                          PCT 1 - SE HENRIETTA                                   01 
01070050002000000REP       President                                               Jon Huntsman                          PCT 6 - BYERS                                          01 
01070050003000000REP       President                                               Jon Huntsman                          PCT 8 - NE HENRIETTA                                   01 
01070050004000000REP       President                                               Jon Huntsman                          PCT 9 - NW HENRIETTA                                   01 
01070050005000000REP       President                                               Jon Huntsman                          PCT 10 - VASHTI                                        01 
01070050006000000REP       President                                               Jon Huntsman                          PCT 11 - DEAN                                          01 
01070050007000000REP       President                                               Jon Huntsman                          PCT 12 - JOLLY                                         01 
01070050008000001REP       President                                               Jon Huntsman                          PCT 13 - THORNBERRY                                    01 
01070050009000000REP       President                                               Jon Huntsman                          PCT 14 - CHARLIE                                       01 
01070050010000000REP       President                                               Jon Huntsman                          PCT 15 - SW HENRIETTA                                  01 
01070050011000001REP       President                                               Jon Huntsman                          PCT 17 - ARROWHEAD                                     01 
01070050012000001REP       President                                               Jon Huntsman                          PCT 20 - MIDWAY                                        01 
01070050013000000REP       President                                               Jon Huntsman                          PCT 24 - BELLEVUE                                      01 
01070050014000000REP       President                                               Jon Huntsman                          PCT 26 - BUFFALO SPRINGS                               01 
01070050015000000REP       President                                               Jon Huntsman                          PCT 27 - PETROLIA                                      01 
01070050016000000REP       President                                               Jon Huntsman                          PCT 32 - WINDTHORST                                    01 
01070060001000002REP       President                                               Charles "Buddy" Roemer                PCT 1 - SE HENRIETTA                                   01 
01070060002000000REP       President                                               Charles "Buddy" Roemer                PCT 6 - BYERS                                          01 
01070060003000001REP       President                                               Charles "Buddy" Roemer                PCT 8 - NE HENRIETTA                                   01 
01070060004000001REP       President                                               Charles "Buddy" Roemer                PCT 9 - NW HENRIETTA                                   01 
01070060005000002REP       President                                               Charles "Buddy" Roemer                PCT 10 - VASHTI                                        01 
01070060006000001REP       President                                               Charles "Buddy" Roemer                PCT 11 - DEAN                                          01 
01070060007000000REP       President                                               Charles "Buddy" Roemer                PCT 12 - JOLLY                                         01 
01070060008000000REP       President                                               Charles "Buddy" Roemer                PCT 13 - THORNBERRY                                    01 
01070060009000001REP       President                                               Charles "Buddy" Roemer                PCT 14 - CHARLIE                                       01 
01070060010000000REP       President                                               Charles "Buddy" Roemer                PCT 15 - SW HENRIETTA                                  01 
01070060011000000REP       President                                               Charles "Buddy" Roemer                PCT 17 - ARROWHEAD                                     01 
01070060012000001REP       President                                               Charles "Buddy" Roemer                PCT 20 - MIDWAY                                        01 
01070060013000001REP       President                                               Charles "Buddy" Roemer                PCT 24 - BELLEVUE                                      01 
01070060014000000REP       President                                               Charles "Buddy" Roemer                PCT 26 - BUFFALO SPRINGS                               01 
01070060015000000REP       President                                               Charles "Buddy" Roemer                PCT 27 - PETROLIA                                      01 
01070060016000000REP       President                                               Charles "Buddy" Roemer                PCT 32 - WINDTHORST                                    01 
01070070001000004REP       President                                               Michele Bachmann                      PCT 1 - SE HENRIETTA                                   01 
01070070002000002REP       President                                               Michele Bachmann                      PCT 6 - BYERS                                          01 
01070070003000000REP       President                                               Michele Bachmann                      PCT 8 - NE HENRIETTA                                   01 
01070070004000002REP       President                                               Michele Bachmann                      PCT 9 - NW HENRIETTA                                   01 
01070070005000000REP       President                                               Michele Bachmann                      PCT 10 - VASHTI                                        01 
01070070006000002REP       President                                               Michele Bachmann                      PCT 11 - DEAN                                          01 
01070070007000002REP       President                                               Michele Bachmann                      PCT 12 - JOLLY                                         01 
01070070008000000REP       President                                               Michele Bachmann                      PCT 13 - THORNBERRY                                    01 
01070070009000002REP       President                                               Michele Bachmann                      PCT 14 - CHARLIE                                       01 
01070070010000002REP       President                                               Michele Bachmann                      PCT 15 - SW HENRIETTA                                  01 
01070070011000001REP       President                                               Michele Bachmann                      PCT 17 - ARROWHEAD                                     01 
01070070012000002REP       President                                               Michele Bachmann                      PCT 20 - MIDWAY                                        01 
01070070013000002REP       President                                               Michele Bachmann                      PCT 24 - BELLEVUE                                      01 
01070070014000000REP       President                                               Michele Bachmann                      PCT 26 - BUFFALO SPRINGS                               01 
01070070015000000REP       President                                               Michele Bachmann                      PCT 27 - PETROLIA                                      01 
01070070016000000REP       President                                               Michele Bachmann                      PCT 32 - WINDTHORST                                    01 
01070080001000157REP       President                                               Mitt Romney                           PCT 1 - SE HENRIETTA                                   01 
01070080002000053REP       President                                               Mitt Romney                           PCT 6 - BYERS                                          01 
01070080003000166REP       President                                               Mitt Romney                           PCT 8 - NE HENRIETTA                                   01 
01070080004000091REP       President                                               Mitt Romney                           PCT 9 - NW HENRIETTA                                   01 
01070080005000042REP       President                                               Mitt Romney                           PCT 10 - VASHTI                                        01 
01070080006000141REP       President                                               Mitt Romney                           PCT 11 - DEAN                                          01 
01070080007000049REP       President                                               Mitt Romney                           PCT 12 - JOLLY                                         01 
01070080008000025REP       President                                               Mitt Romney                           PCT 13 - THORNBERRY                                    01 
01070080009000045REP       President                                               Mitt Romney                           PCT 14 - CHARLIE                                       01 
01070080010000073REP       President                                               Mitt Romney                           PCT 15 - SW HENRIETTA                                  01 
01070080011000134REP       President                                               Mitt Romney                           PCT 17 - ARROWHEAD                                     01 
01070080012000093REP       President                                               Mitt Romney                           PCT 20 - MIDWAY                                        01 
01070080013000061REP       President                                               Mitt Romney                           PCT 24 - BELLEVUE                                      01 
01070080014000034REP       President                                               Mitt Romney                           PCT 26 - BUFFALO SPRINGS                               01 
01070080015000073REP       President                                               Mitt Romney                           PCT 27 - PETROLIA                                      01 
01070080016000040REP       President                                               Mitt Romney                           PCT 32 - WINDTHORST                                    01 
01070090001000018REP       President                                               Uncommitted                           PCT 1 - SE HENRIETTA                                   01 
01070090002000007REP       President                                               Uncommitted                           PCT 6 - BYERS                                          01 
01070090003000027REP       President                                               Uncommitted                           PCT 8 - NE HENRIETTA                                   01 
01070090004000009REP       President                                               Uncommitted                           PCT 9 - NW HENRIETTA                                   01 
01070090005000001REP       President                                               Uncommitted                           PCT 10 - VASHTI                                        01 
01070090006000014REP       President                                               Uncommitted                           PCT 11 - DEAN                                          01 
01070090007000005REP       President                                               Uncommitted                           PCT 12 - JOLLY                                         01 
01070090008000002REP       President                                               Uncommitted                           PCT 13 - THORNBERRY                                    01 
01070090009000000REP       President                                               Uncommitted                           PCT 14 - CHARLIE                                       01 
01070090010000003REP       President                                               Uncommitted                           PCT 15 - SW HENRIETTA                                  01 
01070090011000005REP       President                                               Uncommitted                           PCT 17 - ARROWHEAD                                     01 
01070090012000005REP       President                                               Uncommitted                           PCT 20 - MIDWAY                                        01 
01070090013000006REP       President                                               Uncommitted                           PCT 24 - BELLEVUE                                      01 
01070090014000001REP       President                                               Uncommitted                           PCT 26 - BUFFALO SPRINGS                               01 
01070090015000018REP       President                                               Uncommitted                           PCT 27 - PETROLIA                                      01 
01070090016000002REP       President                                               Uncommitted                           PCT 32 - WINDTHORST                                    01 
01070100001000000REP       President                                               OVER VOTES                            PCT 1 - SE HENRIETTA                                   01 
01070100002000000REP       President                                               OVER VOTES                            PCT 6 - BYERS                                          01 
01070100003000000REP       President                                               OVER VOTES                            PCT 8 - NE HENRIETTA                                   01 
01070100004000000REP       President                                               OVER VOTES                            PCT 9 - NW HENRIETTA                                   01 
01070100005000000REP       President                                               OVER VOTES                            PCT 10 - VASHTI                                        01 
01070100006000000REP       President                                               OVER VOTES                            PCT 11 - DEAN                                          01 
01070100007000000REP       President                                               OVER VOTES                            PCT 12 - JOLLY                                         01 
01070100008000000REP       President                                               OVER VOTES                            PCT 13 - THORNBERRY                                    01 
01070100009000000REP       President                                               OVER VOTES                            PCT 14 - CHARLIE                                       01 
01070100010000000REP       President                                               OVER VOTES                            PCT 15 - SW HENRIETTA                                  01 
01070100011000000REP       President                                               OVER VOTES                            PCT 17 - ARROWHEAD                                     01 
01070100012000000REP       President                                               OVER VOTES                            PCT 20 - MIDWAY                                        01 
01070100013000000REP       President                                               OVER VOTES                            PCT 24 - BELLEVUE                                      01 
01070100014000000REP       President                                               OVER VOTES                            PCT 26 - BUFFALO SPRINGS                               01 
01070100015000000REP       President                                               OVER VOTES                            PCT 27 - PETROLIA                                      01 
01070100016000000REP       President                                               OVER VOTES                            PCT 32 - WINDTHORST                                    01 
01070110001000009REP       President                                               UNDER VOTES                           PCT 1 - SE HENRIETTA                                   01 
01070110002000006REP       President                                               UNDER VOTES                           PCT 6 - BYERS                                          01 
01070110003000024REP       President                                               UNDER VOTES                           PCT 8 - NE HENRIETTA                                   01 
01070110004000012REP       President                                               UNDER VOTES                           PCT 9 - NW HENRIETTA                                   01 
01070110005000004REP       President                                               UNDER VOTES                           PCT 10 - VASHTI                                        01 
01070110006000013REP       President                                               UNDER VOTES                           PCT 11 - DEAN                                          01 
01070110007000002REP       President                                               UNDER VOTES                           PCT 12 - JOLLY                                         01 
01070110008000002REP       President                                               UNDER VOTES                           PCT 13 - THORNBERRY                                    01 
01070110009000003REP       President                                               UNDER VOTES                           PCT 14 - CHARLIE                                       01 
01070110010000010REP       President                                               UNDER VOTES                           PCT 15 - SW HENRIETTA                                  01 
01070110011000001REP       President                                               UNDER VOTES                           PCT 17 - ARROWHEAD                                     01 
01070110012000007REP       President                                               UNDER VOTES                           PCT 20 - MIDWAY                                        01 
01070110013000008REP       President                                               UNDER VOTES                           PCT 24 - BELLEVUE                                      01 
01070110014000003REP       President                                               UNDER VOTES                           PCT 26 - BUFFALO SPRINGS                               01 
01070110015000015REP       President                                               UNDER VOTES                           PCT 27 - PETROLIA                                      01 
01070110016000002REP       President                                               UNDER VOTES                           PCT 32 - WINDTHORST                                    01 
01080010001000004REP       United States Senator                                   Ben Gambini                           PCT 1 - SE HENRIETTA                                   01 
01080010002000000REP       United States Senator                                   Ben Gambini                           PCT 6 - BYERS                                          01 
01080010003000004REP       United States Senator                                   Ben Gambini                           PCT 8 - NE HENRIETTA                                   01 
01080010004000002REP       United States Senator                                   Ben Gambini                           PCT 9 - NW HENRIETTA                                   01 
01080010005000001REP       United States Senator                                   Ben Gambini                           PCT 10 - VASHTI                                        01 
01080010006000004REP       United States Senator                                   Ben Gambini                           PCT 11 - DEAN                                          01 
01080010007000001REP       United States Senator                                   Ben Gambini                           PCT 12 - JOLLY                                         01 
01080010008000001REP       United States Senator                                   Ben Gambini                           PCT 13 - THORNBERRY                                    01 
01080010009000001REP       United States Senator                                   Ben Gambini                           PCT 14 - CHARLIE                                       01 
01080010010000001REP       United States Senator                                   Ben Gambini                           PCT 15 - SW HENRIETTA                                  01 
01080010011000001REP       United States Senator                                   Ben Gambini                           PCT 17 - ARROWHEAD                                     01 
01080010012000004REP       United States Senator                                   Ben Gambini                           PCT 20 - MIDWAY                                        01 
01080010013000000REP       United States Senator                                   Ben Gambini                           PCT 24 - BELLEVUE                                      01 
01080010014000000REP       United States Senator                                   Ben Gambini                           PCT 26 - BUFFALO SPRINGS                               01 
01080010015000003REP       United States Senator                                   Ben Gambini                           PCT 27 - PETROLIA                                      01 
01080010016000000REP       United States Senator                                   Ben Gambini                           PCT 32 - WINDTHORST                                    01 
01080020001000004REP       United States Senator                                   Glenn Addison                         PCT 1 - SE HENRIETTA                                   01 
01080020002000003REP       United States Senator                                   Glenn Addison                         PCT 6 - BYERS                                          01 
01080020003000009REP       United States Senator                                   Glenn Addison                         PCT 8 - NE HENRIETTA                                   01 
01080020004000001REP       United States Senator                                   Glenn Addison                         PCT 9 - NW HENRIETTA                                   01 
01080020005000001REP       United States Senator                                   Glenn Addison                         PCT 10 - VASHTI                                        01 
01080020006000007REP       United States Senator                                   Glenn Addison                         PCT 11 - DEAN                                          01 
01080020007000000REP       United States Senator                                   Glenn Addison                         PCT 12 - JOLLY                                         01 
01080020008000002REP       United States Senator                                   Glenn Addison                         PCT 13 - THORNBERRY                                    01 
01080020009000000REP       United States Senator                                   Glenn Addison                         PCT 14 - CHARLIE                                       01 
01080020010000003REP       United States Senator                                   Glenn Addison                         PCT 15 - SW HENRIETTA                                  01 
01080020011000005REP       United States Senator                                   Glenn Addison                         PCT 17 - ARROWHEAD                                     01 
01080020012000001REP       United States Senator                                   Glenn Addison                         PCT 20 - MIDWAY                                        01 
01080020013000001REP       United States Senator                                   Glenn Addison                         PCT 24 - BELLEVUE                                      01 
01080020014000000REP       United States Senator                                   Glenn Addison                         PCT 26 - BUFFALO SPRINGS                               01 
01080020015000003REP       United States Senator                                   Glenn Addison                         PCT 27 - PETROLIA                                      01 
01080020016000001REP       United States Senator                                   Glenn Addison                         PCT 32 - WINDTHORST                                    01 
01080030001000010REP       United States Senator                                   Lela Pittenger                        PCT 1 - SE HENRIETTA                                   01 
01080030002000004REP       United States Senator                                   Lela Pittenger                        PCT 6 - BYERS                                          01 
01080030003000002REP       United States Senator                                   Lela Pittenger                        PCT 8 - NE HENRIETTA                                   01 
01080030004000002REP       United States Senator                                   Lela Pittenger                        PCT 9 - NW HENRIETTA                                   01 
01080030005000001REP       United States Senator                                   Lela Pittenger                        PCT 10 - VASHTI                                        01 
01080030006000003REP       United States Senator                                   Lela Pittenger                        PCT 11 - DEAN                                          01 
01080030007000000REP       United States Senator                                   Lela Pittenger                        PCT 12 - JOLLY                                         01 
01080030008000001REP       United States Senator                                   Lela Pittenger                        PCT 13 - THORNBERRY                                    01 
01080030009000001REP       United States Senator                                   Lela Pittenger                        PCT 14 - CHARLIE                                       01 
01080030010000003REP       United States Senator                                   Lela Pittenger                        PCT 15 - SW HENRIETTA                                  01 
01080030011000005REP       United States Senator                                   Lela Pittenger                        PCT 17 - ARROWHEAD                                     01 
01080030012000001REP       United States Senator                                   Lela Pittenger                        PCT 20 - MIDWAY                                        01 
01080030013000006REP       United States Senator                                   Lela Pittenger                        PCT 24 - BELLEVUE                                      01 
01080030014000000REP       United States Senator                                   Lela Pittenger                        PCT 26 - BUFFALO SPRINGS                               01 
01080030015000004REP       United States Senator                                   Lela Pittenger                        PCT 27 - PETROLIA                                      01 
01080030016000001REP       United States Senator                                   Lela Pittenger                        PCT 32 - WINDTHORST                                    01 
01080040001000003REP       United States Senator                                   Joe Agris                             PCT 1 - SE HENRIETTA                                   01 
01080040002000000REP       United States Senator                                   Joe Agris                             PCT 6 - BYERS                                          01 
01080040003000001REP       United States Senator                                   Joe Agris                             PCT 8 - NE HENRIETTA                                   01 
01080040004000000REP       United States Senator                                   Joe Agris                             PCT 9 - NW HENRIETTA                                   01 
01080040005000000REP       United States Senator                                   Joe Agris                             PCT 10 - VASHTI                                        01 
01080040006000001REP       United States Senator                                   Joe Agris                             PCT 11 - DEAN                                          01 
01080040007000000REP       United States Senator                                   Joe Agris                             PCT 12 - JOLLY                                         01 
01080040008000002REP       United States Senator                                   Joe Agris                             PCT 13 - THORNBERRY                                    01 
01080040009000001REP       United States Senator                                   Joe Agris                             PCT 14 - CHARLIE                                       01 
01080040010000000REP       United States Senator                                   Joe Agris                             PCT 15 - SW HENRIETTA                                  01 
01080040011000000REP       United States Senator                                   Joe Agris                             PCT 17 - ARROWHEAD                                     01 
01080040012000000REP       United States Senator                                   Joe Agris                             PCT 20 - MIDWAY                                        01 
01080040013000000REP       United States Senator                                   Joe Agris                             PCT 24 - BELLEVUE                                      01 
01080040014000000REP       United States Senator                                   Joe Agris                             PCT 26 - BUFFALO SPRINGS                               01 
01080040015000000REP       United States Senator                                   Joe Agris                             PCT 27 - PETROLIA                                      01 
01080040016000000REP       United States Senator                                   Joe Agris                             PCT 32 - WINDTHORST                                    01 
01080050001000050REP       United States Senator                                   Ted Cruz                              PCT 1 - SE HENRIETTA                                   01 
01080050002000019REP       United States Senator                                   Ted Cruz                              PCT 6 - BYERS                                          01 
01080050003000053REP       United States Senator                                   Ted Cruz                              PCT 8 - NE HENRIETTA                                   01 
01080050004000038REP       United States Senator                                   Ted Cruz                              PCT 9 - NW HENRIETTA                                   01 
01080050005000008REP       United States Senator                                   Ted Cruz                              PCT 10 - VASHTI                                        01 
01080050006000051REP       United States Senator                                   Ted Cruz                              PCT 11 - DEAN                                          01 
01080050007000024REP       United States Senator                                   Ted Cruz                              PCT 12 - JOLLY                                         01 
01080050008000015REP       United States Senator                                   Ted Cruz                              PCT 13 - THORNBERRY                                    01 
01080050009000030REP       United States Senator                                   Ted Cruz                              PCT 14 - CHARLIE                                       01 
01080050010000026REP       United States Senator                                   Ted Cruz                              PCT 15 - SW HENRIETTA                                  01 
01080050011000070REP       United States Senator                                   Ted Cruz                              PCT 17 - ARROWHEAD                                     01 
01080050012000033REP       United States Senator                                   Ted Cruz                              PCT 20 - MIDWAY                                        01 
01080050013000019REP       United States Senator                                   Ted Cruz                              PCT 24 - BELLEVUE                                      01 
01080050014000014REP       United States Senator                                   Ted Cruz                              PCT 26 - BUFFALO SPRINGS                               01 
01080050015000024REP       United States Senator                                   Ted Cruz                              PCT 27 - PETROLIA                                      01 
01080050016000010REP       United States Senator                                   Ted Cruz                              PCT 32 - WINDTHORST                                    01 
01080060001000001REP       United States Senator                                   Curt Cleaver                          PCT 1 - SE HENRIETTA                                   01 
01080060002000000REP       United States Senator                                   Curt Cleaver                          PCT 6 - BYERS                                          01 
01080060003000001REP       United States Senator                                   Curt Cleaver                          PCT 8 - NE HENRIETTA                                   01 
01080060004000002REP       United States Senator                                   Curt Cleaver                          PCT 9 - NW HENRIETTA                                   01 
01080060005000001REP       United States Senator                                   Curt Cleaver                          PCT 10 - VASHTI                                        01 
01080060006000000REP       United States Senator                                   Curt Cleaver                          PCT 11 - DEAN                                          01 
01080060007000000REP       United States Senator                                   Curt Cleaver                          PCT 12 - JOLLY                                         01 
01080060008000001REP       United States Senator                                   Curt Cleaver                          PCT 13 - THORNBERRY                                    01 
01080060009000000REP       United States Senator                                   Curt Cleaver                          PCT 14 - CHARLIE                                       01 
01080060010000001REP       United States Senator                                   Curt Cleaver                          PCT 15 - SW HENRIETTA                                  01 
01080060011000001REP       United States Senator                                   Curt Cleaver                          PCT 17 - ARROWHEAD                                     01 
01080060012000000REP       United States Senator                                   Curt Cleaver                          PCT 20 - MIDWAY                                        01 
01080060013000000REP       United States Senator                                   Curt Cleaver                          PCT 24 - BELLEVUE                                      01 
01080060014000000REP       United States Senator                                   Curt Cleaver                          PCT 26 - BUFFALO SPRINGS                               01 
01080060015000003REP       United States Senator                                   Curt Cleaver                          PCT 27 - PETROLIA                                      01 
01080060016000000REP       United States Senator                                   Curt Cleaver                          PCT 32 - WINDTHORST                                    01 
01080070001000099REP       United States Senator                                   David Dewhurst                        PCT 1 - SE HENRIETTA                                   01 
01080070002000035REP       United States Senator                                   David Dewhurst                        PCT 6 - BYERS                                          01 
01080070003000106REP       United States Senator                                   David Dewhurst                        PCT 8 - NE HENRIETTA                                   01 
01080070004000062REP       United States Senator                                   David Dewhurst                        PCT 9 - NW HENRIETTA                                   01 
01080070005000024REP       United States Senator                                   David Dewhurst                        PCT 10 - VASHTI                                        01 
01080070006000088REP       United States Senator                                   David Dewhurst                        PCT 11 - DEAN                                          01 
01080070007000028REP       United States Senator                                   David Dewhurst                        PCT 12 - JOLLY                                         01 
01080070008000012REP       United States Senator                                   David Dewhurst                        PCT 13 - THORNBERRY                                    01 
01080070009000016REP       United States Senator                                   David Dewhurst                        PCT 14 - CHARLIE                                       01 
01080070010000043REP       United States Senator                                   David Dewhurst                        PCT 15 - SW HENRIETTA                                  01 
01080070011000065REP       United States Senator                                   David Dewhurst                        PCT 17 - ARROWHEAD                                     01 
01080070012000069REP       United States Senator                                   David Dewhurst                        PCT 20 - MIDWAY                                        01 
01080070013000044REP       United States Senator                                   David Dewhurst                        PCT 24 - BELLEVUE                                      01 
01080070014000019REP       United States Senator                                   David Dewhurst                        PCT 26 - BUFFALO SPRINGS                               01 
01080070015000047REP       United States Senator                                   David Dewhurst                        PCT 27 - PETROLIA                                      01 
01080070016000029REP       United States Senator                                   David Dewhurst                        PCT 32 - WINDTHORST                                    01 
01080080001000008REP       United States Senator                                   Tom Leppert                           PCT 1 - SE HENRIETTA                                   01 
01080080002000003REP       United States Senator                                   Tom Leppert                           PCT 6 - BYERS                                          01 
01080080003000010REP       United States Senator                                   Tom Leppert                           PCT 8 - NE HENRIETTA                                   01 
01080080004000004REP       United States Senator                                   Tom Leppert                           PCT 9 - NW HENRIETTA                                   01 
01080080005000012REP       United States Senator                                   Tom Leppert                           PCT 10 - VASHTI                                        01 
01080080006000004REP       United States Senator                                   Tom Leppert                           PCT 11 - DEAN                                          01 
01080080007000004REP       United States Senator                                   Tom Leppert                           PCT 12 - JOLLY                                         01 
01080080008000000REP       United States Senator                                   Tom Leppert                           PCT 13 - THORNBERRY                                    01 
01080080009000005REP       United States Senator                                   Tom Leppert                           PCT 14 - CHARLIE                                       01 
01080080010000005REP       United States Senator                                   Tom Leppert                           PCT 15 - SW HENRIETTA                                  01 
01080080011000008REP       United States Senator                                   Tom Leppert                           PCT 17 - ARROWHEAD                                     01 
01080080012000004REP       United States Senator                                   Tom Leppert                           PCT 20 - MIDWAY                                        01 
01080080013000004REP       United States Senator                                   Tom Leppert                           PCT 24 - BELLEVUE                                      01 
01080080014000004REP       United States Senator                                   Tom Leppert                           PCT 26 - BUFFALO SPRINGS                               01 
01080080015000002REP       United States Senator                                   Tom Leppert                           PCT 27 - PETROLIA                                      01 
01080080016000006REP       United States Senator                                   Tom Leppert                           PCT 32 - WINDTHORST                                    01 
01080090001000030REP       United States Senator                                   Craig James                           PCT 1 - SE HENRIETTA                                   01 
01080090002000006REP       United States Senator                                   Craig James                           PCT 6 - BYERS                                          01 
01080090003000036REP       United States Senator                                   Craig James                           PCT 8 - NE HENRIETTA                                   01 
01080090004000010REP       United States Senator                                   Craig James                           PCT 9 - NW HENRIETTA                                   01 
01080090005000003REP       United States Senator                                   Craig James                           PCT 10 - VASHTI                                        01 
01080090006000023REP       United States Senator                                   Craig James                           PCT 11 - DEAN                                          01 
01080090007000005REP       United States Senator                                   Craig James                           PCT 12 - JOLLY                                         01 
01080090008000003REP       United States Senator                                   Craig James                           PCT 13 - THORNBERRY                                    01 
01080090009000001REP       United States Senator                                   Craig James                           PCT 14 - CHARLIE                                       01 
01080090010000009REP       United States Senator                                   Craig James                           PCT 15 - SW HENRIETTA                                  01 
01080090011000010REP       United States Senator                                   Craig James                           PCT 17 - ARROWHEAD                                     01 
01080090012000009REP       United States Senator                                   Craig James                           PCT 20 - MIDWAY                                        01 
01080090013000005REP       United States Senator                                   Craig James                           PCT 24 - BELLEVUE                                      01 
01080090014000003REP       United States Senator                                   Craig James                           PCT 26 - BUFFALO SPRINGS                               01 
01080090015000011REP       United States Senator                                   Craig James                           PCT 27 - PETROLIA                                      01 
01080090016000001REP       United States Senator                                   Craig James                           PCT 32 - WINDTHORST                                    01 
01080100001000000REP       United States Senator                                   OVER VOTES                            PCT 1 - SE HENRIETTA                                   01 
01080100002000000REP       United States Senator                                   OVER VOTES                            PCT 6 - BYERS                                          01 
01080100003000000REP       United States Senator                                   OVER VOTES                            PCT 8 - NE HENRIETTA                                   01 
01080100004000000REP       United States Senator                                   OVER VOTES                            PCT 9 - NW HENRIETTA                                   01 
01080100005000000REP       United States Senator                                   OVER VOTES                            PCT 10 - VASHTI                                        01 
01080100006000000REP       United States Senator                                   OVER VOTES                            PCT 11 - DEAN                                          01 
01080100007000000REP       United States Senator                                   OVER VOTES                            PCT 12 - JOLLY                                         01 
01080100008000000REP       United States Senator                                   OVER VOTES                            PCT 13 - THORNBERRY                                    01 
01080100009000000REP       United States Senator                                   OVER VOTES                            PCT 14 - CHARLIE                                       01 
01080100010000000REP       United States Senator                                   OVER VOTES                            PCT 15 - SW HENRIETTA                                  01 
01080100011000000REP       United States Senator                                   OVER VOTES                            PCT 17 - ARROWHEAD                                     01 
01080100012000000REP       United States Senator                                   OVER VOTES                            PCT 20 - MIDWAY                                        01 
01080100013000000REP       United States Senator                                   OVER VOTES                            PCT 24 - BELLEVUE                                      01 
01080100014000000REP       United States Senator                                   OVER VOTES                            PCT 26 - BUFFALO SPRINGS                               01 
01080100015000000REP       United States Senator                                   OVER VOTES                            PCT 27 - PETROLIA                                      01 
01080100016000000REP       United States Senator                                   OVER VOTES                            PCT 32 - WINDTHORST                                    01 
01080110001000034REP       United States Senator                                   UNDER VOTES                           PCT 1 - SE HENRIETTA                                   01 
01080110002000014REP       United States Senator                                   UNDER VOTES                           PCT 6 - BYERS                                          01 
01080110003000053REP       United States Senator                                   UNDER VOTES                           PCT 8 - NE HENRIETTA                                   01 
01080110004000032REP       United States Senator                                   UNDER VOTES                           PCT 9 - NW HENRIETTA                                   01 
01080110005000010REP       United States Senator                                   UNDER VOTES                           PCT 10 - VASHTI                                        01 
01080110006000026REP       United States Senator                                   UNDER VOTES                           PCT 11 - DEAN                                          01 
01080110007000004REP       United States Senator                                   UNDER VOTES                           PCT 12 - JOLLY                                         01 
01080110008000006REP       United States Senator                                   UNDER VOTES                           PCT 13 - THORNBERRY                                    01 
01080110009000010REP       United States Senator                                   UNDER VOTES                           PCT 14 - CHARLIE                                       01 
01080110010000017REP       United States Senator                                   UNDER VOTES                           PCT 15 - SW HENRIETTA                                  01 
01080110011000011REP       United States Senator                                   UNDER VOTES                           PCT 17 - ARROWHEAD                                     01 
01080110012000014REP       United States Senator                                   UNDER VOTES                           PCT 20 - MIDWAY                                        01 
01080110013000017REP       United States Senator                                   UNDER VOTES                           PCT 24 - BELLEVUE                                      01 
01080110014000008REP       United States Senator                                   UNDER VOTES                           PCT 26 - BUFFALO SPRINGS                               01 
01080110015000030REP       United States Senator                                   UNDER VOTES                           PCT 27 - PETROLIA                                      01 
01080110016000003REP       United States Senator                                   UNDER VOTES                           PCT 32 - WINDTHORST                                    01 
01090010001000060REP       United States Representative, Dist 13                   Pamela Lee Barlow                     PCT 1 - SE HENRIETTA                                   01 
01090010002000018REP       United States Representative, Dist 13                   Pamela Lee Barlow                     PCT 6 - BYERS                                          01 
01090010003000067REP       United States Representative, Dist 13                   Pamela Lee Barlow                     PCT 8 - NE HENRIETTA                                   01 
01090010004000032REP       United States Representative, Dist 13                   Pamela Lee Barlow                     PCT 9 - NW HENRIETTA                                   01 
01090010005000028REP       United States Representative, Dist 13                   Pamela Lee Barlow                     PCT 10 - VASHTI                                        01 
01090010006000045REP       United States Representative, Dist 13                   Pamela Lee Barlow                     PCT 11 - DEAN                                          01 
01090010007000024REP       United States Representative, Dist 13                   Pamela Lee Barlow                     PCT 12 - JOLLY                                         01 
01090010008000021REP       United States Representative, Dist 13                   Pamela Lee Barlow                     PCT 13 - THORNBERRY                                    01 
01090010009000016REP       United States Representative, Dist 13                   Pamela Lee Barlow                     PCT 14 - CHARLIE                                       01 
01090010010000033REP       United States Representative, Dist 13                   Pamela Lee Barlow                     PCT 15 - SW HENRIETTA                                  01 
01090010011000053REP       United States Representative, Dist 13                   Pamela Lee Barlow                     PCT 17 - ARROWHEAD                                     01 
01090010012000043REP       United States Representative, Dist 13                   Pamela Lee Barlow                     PCT 20 - MIDWAY                                        01 
01090010013000016REP       United States Representative, Dist 13                   Pamela Lee Barlow                     PCT 24 - BELLEVUE                                      01 
01090010014000015REP       United States Representative, Dist 13                   Pamela Lee Barlow                     PCT 26 - BUFFALO SPRINGS                               01 
01090010015000018REP       United States Representative, Dist 13                   Pamela Lee Barlow                     PCT 27 - PETROLIA                                      01 
01090010016000009REP       United States Representative, Dist 13                   Pamela Lee Barlow                     PCT 32 - WINDTHORST                                    01 
01090020001000168REP       United States Representative, Dist 13                   Mac Thornberry                        PCT 1 - SE HENRIETTA                                   01 
01090020002000061REP       United States Representative, Dist 13                   Mac Thornberry                        PCT 6 - BYERS                                          01 
01090020003000187REP       United States Representative, Dist 13                   Mac Thornberry                        PCT 8 - NE HENRIETTA                                   01 
01090020004000113REP       United States Representative, Dist 13                   Mac Thornberry                        PCT 9 - NW HENRIETTA                                   01 
01090020005000031REP       United States Representative, Dist 13                   Mac Thornberry                        PCT 10 - VASHTI                                        01 
01090020006000148REP       United States Representative, Dist 13                   Mac Thornberry                        PCT 11 - DEAN                                          01 
01090020007000039REP       United States Representative, Dist 13                   Mac Thornberry                        PCT 12 - JOLLY                                         01 
01090020008000021REP       United States Representative, Dist 13                   Mac Thornberry                        PCT 13 - THORNBERRY                                    01 
01090020009000047REP       United States Representative, Dist 13                   Mac Thornberry                        PCT 14 - CHARLIE                                       01 
01090020010000071REP       United States Representative, Dist 13                   Mac Thornberry                        PCT 15 - SW HENRIETTA                                  01 
01090020011000121REP       United States Representative, Dist 13                   Mac Thornberry                        PCT 17 - ARROWHEAD                                     01 
01090020012000088REP       United States Representative, Dist 13                   Mac Thornberry                        PCT 20 - MIDWAY                                        01 
01090020013000075REP       United States Representative, Dist 13                   Mac Thornberry                        PCT 24 - BELLEVUE                                      01 
01090020014000029REP       United States Representative, Dist 13                   Mac Thornberry                        PCT 26 - BUFFALO SPRINGS                               01 
01090020015000094REP       United States Representative, Dist 13                   Mac Thornberry                        PCT 27 - PETROLIA                                      01 
01090020016000041REP       United States Representative, Dist 13                   Mac Thornberry                        PCT 32 - WINDTHORST                                    01 
01090030001000000REP       United States Representative, Dist 13                   OVER VOTES                            PCT 1 - SE HENRIETTA                                   01 
01090030002000001REP       United States Representative, Dist 13                   OVER VOTES                            PCT 6 - BYERS                                          01 
01090030003000000REP       United States Representative, Dist 13                   OVER VOTES                            PCT 8 - NE HENRIETTA                                   01 
01090030004000000REP       United States Representative, Dist 13                   OVER VOTES                            PCT 9 - NW HENRIETTA                                   01 
01090030005000000REP       United States Representative, Dist 13                   OVER VOTES                            PCT 10 - VASHTI                                        01 
01090030006000000REP       United States Representative, Dist 13                   OVER VOTES                            PCT 11 - DEAN                                          01 
01090030007000000REP       United States Representative, Dist 13                   OVER VOTES                            PCT 12 - JOLLY                                         01 
01090030008000000REP       United States Representative, Dist 13                   OVER VOTES                            PCT 13 - THORNBERRY                                    01 
01090030009000000REP       United States Representative, Dist 13                   OVER VOTES                            PCT 14 - CHARLIE                                       01 
01090030010000000REP       United States Representative, Dist 13                   OVER VOTES                            PCT 15 - SW HENRIETTA                                  01 
01090030011000000REP       United States Representative, Dist 13                   OVER VOTES                            PCT 17 - ARROWHEAD                                     01 
01090030012000000REP       United States Representative, Dist 13                   OVER VOTES                            PCT 20 - MIDWAY                                        01 
01090030013000000REP       United States Representative, Dist 13                   OVER VOTES                            PCT 24 - BELLEVUE                                      01 
01090030014000000REP       United States Representative, Dist 13                   OVER VOTES                            PCT 26 - BUFFALO SPRINGS                               01 
01090030015000000REP       United States Representative, Dist 13                   OVER VOTES                            PCT 27 - PETROLIA                                      01 
01090030016000000REP       United States Representative, Dist 13                   OVER VOTES                            PCT 32 - WINDTHORST                                    01 
01090040001000015REP       United States Representative, Dist 13                   UNDER VOTES                           PCT 1 - SE HENRIETTA                                   01 
01090040002000004REP       United States Representative, Dist 13                   UNDER VOTES                           PCT 6 - BYERS                                          01 
01090040003000021REP       United States Representative, Dist 13                   UNDER VOTES                           PCT 8 - NE HENRIETTA                                   01 
01090040004000008REP       United States Representative, Dist 13                   UNDER VOTES                           PCT 9 - NW HENRIETTA                                   01 
01090040005000002REP       United States Representative, Dist 13                   UNDER VOTES                           PCT 10 - VASHTI                                        01 
01090040006000014REP       United States Representative, Dist 13                   UNDER VOTES                           PCT 11 - DEAN                                          01 
01090040007000003REP       United States Representative, Dist 13                   UNDER VOTES                           PCT 12 - JOLLY                                         01 
01090040008000001REP       United States Representative, Dist 13                   UNDER VOTES                           PCT 13 - THORNBERRY                                    01 
01090040009000002REP       United States Representative, Dist 13                   UNDER VOTES                           PCT 14 - CHARLIE                                       01 
01090040010000004REP       United States Representative, Dist 13                   UNDER VOTES                           PCT 15 - SW HENRIETTA                                  01 
01090040011000002REP       United States Representative, Dist 13                   UNDER VOTES                           PCT 17 - ARROWHEAD                                     01 
01090040012000004REP       United States Representative, Dist 13                   UNDER VOTES                           PCT 20 - MIDWAY                                        01 
01090040013000005REP       United States Representative, Dist 13                   UNDER VOTES                           PCT 24 - BELLEVUE                                      01 
01090040014000004REP       United States Representative, Dist 13                   UNDER VOTES                           PCT 26 - BUFFALO SPRINGS                               01 
01090040015000015REP       United States Representative, Dist 13                   UNDER VOTES                           PCT 27 - PETROLIA                                      01 
01090040016000001REP       United States Representative, Dist 13                   UNDER VOTES                           PCT 32 - WINDTHORST                                    01 
01100010001000055REP       Railroad Commissioner                                   Christi Craddick                      PCT 1 - SE HENRIETTA                                   01 
01100010002000016REP       Railroad Commissioner                                   Christi Craddick                      PCT 6 - BYERS                                          01 
01100010003000044REP       Railroad Commissioner                                   Christi Craddick                      PCT 8 - NE HENRIETTA                                   01 
01100010004000029REP       Railroad Commissioner                                   Christi Craddick                      PCT 9 - NW HENRIETTA                                   01 
01100010005000011REP       Railroad Commissioner                                   Christi Craddick                      PCT 10 - VASHTI                                        01 
01100010006000045REP       Railroad Commissioner                                   Christi Craddick                      PCT 11 - DEAN                                          01 
01100010007000014REP       Railroad Commissioner                                   Christi Craddick                      PCT 12 - JOLLY                                         01 
01100010008000008REP       Railroad Commissioner                                   Christi Craddick                      PCT 13 - THORNBERRY                                    01 
01100010009000011REP       Railroad Commissioner                                   Christi Craddick                      PCT 14 - CHARLIE                                       01 
01100010010000019REP       Railroad Commissioner                                   Christi Craddick                      PCT 15 - SW HENRIETTA                                  01 
01100010011000042REP       Railroad Commissioner                                   Christi Craddick                      PCT 17 - ARROWHEAD                                     01 
01100010012000016REP       Railroad Commissioner                                   Christi Craddick                      PCT 20 - MIDWAY                                        01 
01100010013000015REP       Railroad Commissioner                                   Christi Craddick                      PCT 24 - BELLEVUE                                      01 
01100010014000006REP       Railroad Commissioner                                   Christi Craddick                      PCT 26 - BUFFALO SPRINGS                               01 
01100010015000024REP       Railroad Commissioner                                   Christi Craddick                      PCT 27 - PETROLIA                                      01 
01100010016000011REP       Railroad Commissioner                                   Christi Craddick                      PCT 32 - WINDTHORST                                    01 
01100020001000038REP       Railroad Commissioner                                   Warren Chisum                         PCT 1 - SE HENRIETTA                                   01 
01100020002000010REP       Railroad Commissioner                                   Warren Chisum                         PCT 6 - BYERS                                          01 
01100020003000047REP       Railroad Commissioner                                   Warren Chisum                         PCT 8 - NE HENRIETTA                                   01 
01100020004000018REP       Railroad Commissioner                                   Warren Chisum                         PCT 9 - NW HENRIETTA                                   01 
01100020005000006REP       Railroad Commissioner                                   Warren Chisum                         PCT 10 - VASHTI                                        01 
01100020006000025REP       Railroad Commissioner                                   Warren Chisum                         PCT 11 - DEAN                                          01 
01100020007000010REP       Railroad Commissioner                                   Warren Chisum                         PCT 12 - JOLLY                                         01 
01100020008000008REP       Railroad Commissioner                                   Warren Chisum                         PCT 13 - THORNBERRY                                    01 
01100020009000010REP       Railroad Commissioner                                   Warren Chisum                         PCT 14 - CHARLIE                                       01 
01100020010000016REP       Railroad Commissioner                                   Warren Chisum                         PCT 15 - SW HENRIETTA                                  01 
01100020011000034REP       Railroad Commissioner                                   Warren Chisum                         PCT 17 - ARROWHEAD                                     01 
01100020012000025REP       Railroad Commissioner                                   Warren Chisum                         PCT 20 - MIDWAY                                        01 
01100020013000017REP       Railroad Commissioner                                   Warren Chisum                         PCT 24 - BELLEVUE                                      01 
01100020014000008REP       Railroad Commissioner                                   Warren Chisum                         PCT 26 - BUFFALO SPRINGS                               01 
01100020015000017REP       Railroad Commissioner                                   Warren Chisum                         PCT 27 - PETROLIA                                      01 
01100020016000008REP       Railroad Commissioner                                   Warren Chisum                         PCT 32 - WINDTHORST                                    01 
01100030001000007REP       Railroad Commissioner                                   Beryl Burgess                         PCT 1 - SE HENRIETTA                                   01 
01100030002000001REP       Railroad Commissioner                                   Beryl Burgess                         PCT 6 - BYERS                                          01 
01100030003000015REP       Railroad Commissioner                                   Beryl Burgess                         PCT 8 - NE HENRIETTA                                   01 
01100030004000006REP       Railroad Commissioner                                   Beryl Burgess                         PCT 9 - NW HENRIETTA                                   01 
01100030005000002REP       Railroad Commissioner                                   Beryl Burgess                         PCT 10 - VASHTI                                        01 
01100030006000011REP       Railroad Commissioner                                   Beryl Burgess                         PCT 11 - DEAN                                          01 
01100030007000003REP       Railroad Commissioner                                   Beryl Burgess                         PCT 12 - JOLLY                                         01 
01100030008000001REP       Railroad Commissioner                                   Beryl Burgess                         PCT 13 - THORNBERRY                                    01 
01100030009000000REP       Railroad Commissioner                                   Beryl Burgess                         PCT 14 - CHARLIE                                       01 
01100030010000006REP       Railroad Commissioner                                   Beryl Burgess                         PCT 15 - SW HENRIETTA                                  01 
01100030011000010REP       Railroad Commissioner                                   Beryl Burgess                         PCT 17 - ARROWHEAD                                     01 
01100030012000006REP       Railroad Commissioner                                   Beryl Burgess                         PCT 20 - MIDWAY                                        01 
01100030013000004REP       Railroad Commissioner                                   Beryl Burgess                         PCT 24 - BELLEVUE                                      01 
01100030014000002REP       Railroad Commissioner                                   Beryl Burgess                         PCT 26 - BUFFALO SPRINGS                               01 
01100030015000008REP       Railroad Commissioner                                   Beryl Burgess                         PCT 27 - PETROLIA                                      01 
01100030016000002REP       Railroad Commissioner                                   Beryl Burgess                         PCT 32 - WINDTHORST                                    01 
01100040001000023REP       Railroad Commissioner                                   Roland Sledge                         PCT 1 - SE HENRIETTA                                   01 
01100040002000006REP       Railroad Commissioner                                   Roland Sledge                         PCT 6 - BYERS                                          01 
01100040003000023REP       Railroad Commissioner                                   Roland Sledge                         PCT 8 - NE HENRIETTA                                   01 
01100040004000009REP       Railroad Commissioner                                   Roland Sledge                         PCT 9 - NW HENRIETTA                                   01 
01100040005000014REP       Railroad Commissioner                                   Roland Sledge                         PCT 10 - VASHTI                                        01 
01100040006000032REP       Railroad Commissioner                                   Roland Sledge                         PCT 11 - DEAN                                          01 
01100040007000007REP       Railroad Commissioner                                   Roland Sledge                         PCT 12 - JOLLY                                         01 
01100040008000000REP       Railroad Commissioner                                   Roland Sledge                         PCT 13 - THORNBERRY                                    01 
01100040009000002REP       Railroad Commissioner                                   Roland Sledge                         PCT 14 - CHARLIE                                       01 
01100040010000010REP       Railroad Commissioner                                   Roland Sledge                         PCT 15 - SW HENRIETTA                                  01 
01100040011000018REP       Railroad Commissioner                                   Roland Sledge                         PCT 17 - ARROWHEAD                                     01 
01100040012000020REP       Railroad Commissioner                                   Roland Sledge                         PCT 20 - MIDWAY                                        01 
01100040013000014REP       Railroad Commissioner                                   Roland Sledge                         PCT 24 - BELLEVUE                                      01 
01100040014000003REP       Railroad Commissioner                                   Roland Sledge                         PCT 26 - BUFFALO SPRINGS                               01 
01100040015000010REP       Railroad Commissioner                                   Roland Sledge                         PCT 27 - PETROLIA                                      01 
01100040016000009REP       Railroad Commissioner                                   Roland Sledge                         PCT 32 - WINDTHORST                                    01 
01100050001000021REP       Railroad Commissioner                                   Joe Cotten                            PCT 1 - SE HENRIETTA                                   01 
01100050002000013REP       Railroad Commissioner                                   Joe Cotten                            PCT 6 - BYERS                                          01 
01100050003000026REP       Railroad Commissioner                                   Joe Cotten                            PCT 8 - NE HENRIETTA                                   01 
01100050004000010REP       Railroad Commissioner                                   Joe Cotten                            PCT 9 - NW HENRIETTA                                   01 
01100050005000006REP       Railroad Commissioner                                   Joe Cotten                            PCT 10 - VASHTI                                        01 
01100050006000018REP       Railroad Commissioner                                   Joe Cotten                            PCT 11 - DEAN                                          01 
01100050007000006REP       Railroad Commissioner                                   Joe Cotten                            PCT 12 - JOLLY                                         01 
01100050008000007REP       Railroad Commissioner                                   Joe Cotten                            PCT 13 - THORNBERRY                                    01 
01100050009000003REP       Railroad Commissioner                                   Joe Cotten                            PCT 14 - CHARLIE                                       01 
01100050010000016REP       Railroad Commissioner                                   Joe Cotten                            PCT 15 - SW HENRIETTA                                  01 
01100050011000023REP       Railroad Commissioner                                   Joe Cotten                            PCT 17 - ARROWHEAD                                     01 
01100050012000012REP       Railroad Commissioner                                   Joe Cotten                            PCT 20 - MIDWAY                                        01 
01100050013000007REP       Railroad Commissioner                                   Joe Cotten                            PCT 24 - BELLEVUE                                      01 
01100050014000000REP       Railroad Commissioner                                   Joe Cotten                            PCT 26 - BUFFALO SPRINGS                               01 
01100050015000010REP       Railroad Commissioner                                   Joe Cotten                            PCT 27 - PETROLIA                                      01 
01100050016000005REP       Railroad Commissioner                                   Joe Cotten                            PCT 32 - WINDTHORST                                    01 
01100060001000022REP       Railroad Commissioner                                   Becky Berger                          PCT 1 - SE HENRIETTA                                   01 
01100060002000007REP       Railroad Commissioner                                   Becky Berger                          PCT 6 - BYERS                                          01 
01100060003000029REP       Railroad Commissioner                                   Becky Berger                          PCT 8 - NE HENRIETTA                                   01 
01100060004000014REP       Railroad Commissioner                                   Becky Berger                          PCT 9 - NW HENRIETTA                                   01 
01100060005000006REP       Railroad Commissioner                                   Becky Berger                          PCT 10 - VASHTI                                        01 
01100060006000012REP       Railroad Commissioner                                   Becky Berger                          PCT 11 - DEAN                                          01 
01100060007000008REP       Railroad Commissioner                                   Becky Berger                          PCT 12 - JOLLY                                         01 
01100060008000009REP       Railroad Commissioner                                   Becky Berger                          PCT 13 - THORNBERRY                                    01 
01100060009000010REP       Railroad Commissioner                                   Becky Berger                          PCT 14 - CHARLIE                                       01 
01100060010000008REP       Railroad Commissioner                                   Becky Berger                          PCT 15 - SW HENRIETTA                                  01 
01100060011000020REP       Railroad Commissioner                                   Becky Berger                          PCT 17 - ARROWHEAD                                     01 
01100060012000021REP       Railroad Commissioner                                   Becky Berger                          PCT 20 - MIDWAY                                        01 
01100060013000009REP       Railroad Commissioner                                   Becky Berger                          PCT 24 - BELLEVUE                                      01 
01100060014000006REP       Railroad Commissioner                                   Becky Berger                          PCT 26 - BUFFALO SPRINGS                               01 
01100060015000017REP       Railroad Commissioner                                   Becky Berger                          PCT 27 - PETROLIA                                      01 
01100060016000004REP       Railroad Commissioner                                   Becky Berger                          PCT 32 - WINDTHORST                                    01 
01100070001000000REP       Railroad Commissioner                                   OVER VOTES                            PCT 1 - SE HENRIETTA                                   01 
01100070002000000REP       Railroad Commissioner                                   OVER VOTES                            PCT 6 - BYERS                                          01 
01100070003000000REP       Railroad Commissioner                                   OVER VOTES                            PCT 8 - NE HENRIETTA                                   01 
01100070004000000REP       Railroad Commissioner                                   OVER VOTES                            PCT 9 - NW HENRIETTA                                   01 
01100070005000000REP       Railroad Commissioner                                   OVER VOTES                            PCT 10 - VASHTI                                        01 
01100070006000000REP       Railroad Commissioner                                   OVER VOTES                            PCT 11 - DEAN                                          01 
01100070007000000REP       Railroad Commissioner                                   OVER VOTES                            PCT 12 - JOLLY                                         01 
01100070008000000REP       Railroad Commissioner                                   OVER VOTES                            PCT 13 - THORNBERRY                                    01 
01100070009000000REP       Railroad Commissioner                                   OVER VOTES                            PCT 14 - CHARLIE                                       01 
01100070010000000REP       Railroad Commissioner                                   OVER VOTES                            PCT 15 - SW HENRIETTA                                  01 
01100070011000000REP       Railroad Commissioner                                   OVER VOTES                            PCT 17 - ARROWHEAD                                     01 
01100070012000000REP       Railroad Commissioner                                   OVER VOTES                            PCT 20 - MIDWAY                                        01 
01100070013000000REP       Railroad Commissioner                                   OVER VOTES                            PCT 24 - BELLEVUE                                      01 
01100070014000000REP       Railroad Commissioner                                   OVER VOTES                            PCT 26 - BUFFALO SPRINGS                               01 
01100070015000000REP       Railroad Commissioner                                   OVER VOTES                            PCT 27 - PETROLIA                                      01 
01100070016000000REP       Railroad Commissioner                                   OVER VOTES                            PCT 32 - WINDTHORST                                    01 
01100080001000077REP       Railroad Commissioner                                   UNDER VOTES                           PCT 1 - SE HENRIETTA                                   01 
01100080002000031REP       Railroad Commissioner                                   UNDER VOTES                           PCT 6 - BYERS                                          01 
01100080003000091REP       Railroad Commissioner                                   UNDER VOTES                           PCT 8 - NE HENRIETTA                                   01 
01100080004000067REP       Railroad Commissioner                                   UNDER VOTES                           PCT 9 - NW HENRIETTA                                   01 
01100080005000016REP       Railroad Commissioner                                   UNDER VOTES                           PCT 10 - VASHTI                                        01 
01100080006000064REP       Railroad Commissioner                                   UNDER VOTES                           PCT 11 - DEAN                                          01 
01100080007000018REP       Railroad Commissioner                                   UNDER VOTES                           PCT 12 - JOLLY                                         01 
01100080008000010REP       Railroad Commissioner                                   UNDER VOTES                           PCT 13 - THORNBERRY                                    01 
01100080009000029REP       Railroad Commissioner                                   UNDER VOTES                           PCT 14 - CHARLIE                                       01 
01100080010000033REP       Railroad Commissioner                                   UNDER VOTES                           PCT 15 - SW HENRIETTA                                  01 
01100080011000029REP       Railroad Commissioner                                   UNDER VOTES                           PCT 17 - ARROWHEAD                                     01 
01100080012000035REP       Railroad Commissioner                                   UNDER VOTES                           PCT 20 - MIDWAY                                        01 
01100080013000030REP       Railroad Commissioner                                   UNDER VOTES                           PCT 24 - BELLEVUE                                      01 
01100080014000023REP       Railroad Commissioner                                   UNDER VOTES                           PCT 26 - BUFFALO SPRINGS                               01 
01100080015000041REP       Railroad Commissioner                                   UNDER VOTES                           PCT 27 - PETROLIA                                      01 
01100080016000012REP       Railroad Commissioner                                   UNDER VOTES                           PCT 32 - WINDTHORST                                    01 
01110010001000032REP       Railroad Commissioner, Unexpired Term                   Barry Smitherman                      PCT 1 - SE HENRIETTA                                   01 
01110010002000015REP       Railroad Commissioner, Unexpired Term                   Barry Smitherman                      PCT 6 - BYERS                                          01 
01110010003000042REP       Railroad Commissioner, Unexpired Term                   Barry Smitherman                      PCT 8 - NE HENRIETTA                                   01 
01110010004000025REP       Railroad Commissioner, Unexpired Term                   Barry Smitherman                      PCT 9 - NW HENRIETTA                                   01 
01110010005000009REP       Railroad Commissioner, Unexpired Term                   Barry Smitherman                      PCT 10 - VASHTI                                        01 
01110010006000049REP       Railroad Commissioner, Unexpired Term                   Barry Smitherman                      PCT 11 - DEAN                                          01 
01110010007000006REP       Railroad Commissioner, Unexpired Term                   Barry Smitherman                      PCT 12 - JOLLY                                         01 
01110010008000012REP       Railroad Commissioner, Unexpired Term                   Barry Smitherman                      PCT 13 - THORNBERRY                                    01 
