00100010001003261000000000000000000000000000000          REGISTERED VOTERS - TOTAL                               REGISTERED VOTERS - TOTAL             PRECINCT 101                                           00 
00100010002002940000000000000000000000000000000          REGISTERED VOTERS - TOTAL                               REGISTERED VOTERS - TOTAL             PRECINCT 102                                           00 
00100010003002766000000000000000000000000000000          REGISTERED VOTERS - TOTAL                               REGISTERED VOTERS - TOTAL             PRECINCT 103                                           00 
00100010004001789000000000000000000000000000000          REGISTERED VOTERS - TOTAL                               REGISTERED VOTERS - TOTAL             PRECINCT 104                                           00 
00100010005004718000000000000000000000000000000          REGISTERED VOTERS - TOTAL                               REGISTERED VOTERS - TOTAL             PRECINCT 105                                           00 
00100010006004252000000000000000000000000000000          REGISTERED VOTERS - TOTAL                               REGISTERED VOTERS - TOTAL             PRECINCT 106                                           00 
00100010008003434000000000000000000000000000000          REGISTERED VOTERS - TOTAL                               REGISTERED VOTERS - TOTAL             PRECINCT 201                                           00 
00100010009000702000000000000000000000000000000          REGISTERED VOTERS - TOTAL                               REGISTERED VOTERS - TOTAL             PRECINCT 202                                           00 
00100010010003058000000000000000000000000000000          REGISTERED VOTERS - TOTAL                               REGISTERED VOTERS - TOTAL             PRECINCT 203                                           00 
00100010011004539000000000000000000000000000000          REGISTERED VOTERS - TOTAL                               REGISTERED VOTERS - TOTAL             PRECINCT 204                                           00 
00100010012005026000000000000000000000000000000          REGISTERED VOTERS - TOTAL                               REGISTERED VOTERS - TOTAL             PRECINCT 205                                           00 
00100010013003813000000000000000000000000000000          REGISTERED VOTERS - TOTAL                               REGISTERED VOTERS - TOTAL             PRECINCT 206                                           00 
00100010014003952000000000000000000000000000000          REGISTERED VOTERS - TOTAL                               REGISTERED VOTERS - TOTAL             PRECINCT 301                                           00 
00100010015004691000000000000000000000000000000          REGISTERED VOTERS - TOTAL                               REGISTERED VOTERS - TOTAL             PRECINCT 302                                           00 
00100010016001071000000000000000000000000000000          REGISTERED VOTERS - TOTAL                               REGISTERED VOTERS - TOTAL             PRECINCT 303                                           00 
00100010017003746000000000000000000000000000000          REGISTERED VOTERS - TOTAL                               REGISTERED VOTERS - TOTAL             PRECINCT 304                                           00 
00100010018001244000000000000000000000000000000          REGISTERED VOTERS - TOTAL                               REGISTERED VOTERS - TOTAL             PRECINCT 305                                           00 
00100010019001811000000000000000000000000000000          REGISTERED VOTERS - TOTAL                               REGISTERED VOTERS - TOTAL             PRECINCT 401                                           00 
00100010020003679000000000000000000000000000000          REGISTERED VOTERS - TOTAL                               REGISTERED VOTERS - TOTAL             PRECINCT 402                                           00 
00100010021003253000000000000000000000000000000          REGISTERED VOTERS - TOTAL                               REGISTERED VOTERS - TOTAL             PRECINCT 403                                           00 
00100010022004716000000000000000000000000000000          REGISTERED VOTERS - TOTAL                               REGISTERED VOTERS - TOTAL             PRECINCT 404                                           00 
00100010023003057000000000000000000000000000000          REGISTERED VOTERS - TOTAL                               REGISTERED VOTERS - TOTAL             PRECINCT 405                                           00 
00100010024003068000000000000000000000000000000          REGISTERED VOTERS - TOTAL                               REGISTERED VOTERS - TOTAL             PRECINCT 406                                           00 
00150010001000000000000000000000000000000000000REP       REGISTERED VOTERS - REPUBLICAN PARTY                    REGISTERED VOTERS - REPUBLICAN PARTY  PRECINCT 101                                           00 
00150010002000000000000000000000000000000000000REP       REGISTERED VOTERS - REPUBLICAN PARTY                    REGISTERED VOTERS - REPUBLICAN PARTY  PRECINCT 102                                           00 
00150010003000000000000000000000000000000000000REP       REGISTERED VOTERS - REPUBLICAN PARTY                    REGISTERED VOTERS - REPUBLICAN PARTY  PRECINCT 103                                           00 
00150010004000000000000000000000000000000000000REP       REGISTERED VOTERS - REPUBLICAN PARTY                    REGISTERED VOTERS - REPUBLICAN PARTY  PRECINCT 104                                           00 
00150010005000000000000000000000000000000000000REP       REGISTERED VOTERS - REPUBLICAN PARTY                    REGISTERED VOTERS - REPUBLICAN PARTY  PRECINCT 105                                           00 
00150010006000000000000000000000000000000000000REP       REGISTERED VOTERS - REPUBLICAN PARTY                    REGISTERED VOTERS - REPUBLICAN PARTY  PRECINCT 106                                           00 
00150010008000000000000000000000000000000000000REP       REGISTERED VOTERS - REPUBLICAN PARTY                    REGISTERED VOTERS - REPUBLICAN PARTY  PRECINCT 201                                           00 
00150010009000000000000000000000000000000000000REP       REGISTERED VOTERS - REPUBLICAN PARTY                    REGISTERED VOTERS - REPUBLICAN PARTY  PRECINCT 202                                           00 
00150010010000000000000000000000000000000000000REP       REGISTERED VOTERS - REPUBLICAN PARTY                    REGISTERED VOTERS - REPUBLICAN PARTY  PRECINCT 203                                           00 
00150010011000000000000000000000000000000000000REP       REGISTERED VOTERS - REPUBLICAN PARTY                    REGISTERED VOTERS - REPUBLICAN PARTY  PRECINCT 204                                           00 
00150010012000000000000000000000000000000000000REP       REGISTERED VOTERS - REPUBLICAN PARTY                    REGISTERED VOTERS - REPUBLICAN PARTY  PRECINCT 205                                           00 
00150010013000000000000000000000000000000000000REP       REGISTERED VOTERS - REPUBLICAN PARTY                    REGISTERED VOTERS - REPUBLICAN PARTY  PRECINCT 206                                           00 
00150010014000000000000000000000000000000000000REP       REGISTERED VOTERS - REPUBLICAN PARTY                    REGISTERED VOTERS - REPUBLICAN PARTY  PRECINCT 301                                           00 
00150010015000000000000000000000000000000000000REP       REGISTERED VOTERS - REPUBLICAN PARTY                    REGISTERED VOTERS - REPUBLICAN PARTY  PRECINCT 302                                           00 
00150010016000000000000000000000000000000000000REP       REGISTERED VOTERS - REPUBLICAN PARTY                    REGISTERED VOTERS - REPUBLICAN PARTY  PRECINCT 303                                           00 
00150010017000000000000000000000000000000000000REP       REGISTERED VOTERS - REPUBLICAN PARTY                    REGISTERED VOTERS - REPUBLICAN PARTY  PRECINCT 304                                           00 
00150010018000000000000000000000000000000000000REP       REGISTERED VOTERS - REPUBLICAN PARTY                    REGISTERED VOTERS - REPUBLICAN PARTY  PRECINCT 305                                           00 
00150010019000000000000000000000000000000000000REP       REGISTERED VOTERS - REPUBLICAN PARTY                    REGISTERED VOTERS - REPUBLICAN PARTY  PRECINCT 401                                           00 
00150010020000000000000000000000000000000000000REP       REGISTERED VOTERS - REPUBLICAN PARTY                    REGISTERED VOTERS - REPUBLICAN PARTY  PRECINCT 402                                           00 
00150010021000000000000000000000000000000000000REP       REGISTERED VOTERS - REPUBLICAN PARTY                    REGISTERED VOTERS - REPUBLICAN PARTY  PRECINCT 403                                           00 
00150010022000000000000000000000000000000000000REP       REGISTERED VOTERS - REPUBLICAN PARTY                    REGISTERED VOTERS - REPUBLICAN PARTY  PRECINCT 404                                           00 
00150010023000000000000000000000000000000000000REP       REGISTERED VOTERS - REPUBLICAN PARTY                    REGISTERED VOTERS - REPUBLICAN PARTY  PRECINCT 405                                           00 
00150010024000000000000000000000000000000000000REP       REGISTERED VOTERS - REPUBLICAN PARTY                    REGISTERED VOTERS - REPUBLICAN PARTY  PRECINCT 406                                           00 
00200010001000000000000000000000000000000000000DEM       REGISTERED VOTERS - DEMOCRATIC PARTY                    REGISTERED VOTERS - DEMOCRATIC PARTY  PRECINCT 101                                           00 
00200010002000000000000000000000000000000000000DEM       REGISTERED VOTERS - DEMOCRATIC PARTY                    REGISTERED VOTERS - DEMOCRATIC PARTY  PRECINCT 102                                           00 
00200010003000000000000000000000000000000000000DEM       REGISTERED VOTERS - DEMOCRATIC PARTY                    REGISTERED VOTERS - DEMOCRATIC PARTY  PRECINCT 103                                           00 
00200010004000000000000000000000000000000000000DEM       REGISTERED VOTERS - DEMOCRATIC PARTY                    REGISTERED VOTERS - DEMOCRATIC PARTY  PRECINCT 104                                           00 
00200010005000000000000000000000000000000000000DEM       REGISTERED VOTERS - DEMOCRATIC PARTY                    REGISTERED VOTERS - DEMOCRATIC PARTY  PRECINCT 105                                           00 
00200010006000000000000000000000000000000000000DEM       REGISTERED VOTERS - DEMOCRATIC PARTY                    REGISTERED VOTERS - DEMOCRATIC PARTY  PRECINCT 106                                           00 
00200010008000000000000000000000000000000000000DEM       REGISTERED VOTERS - DEMOCRATIC PARTY                    REGISTERED VOTERS - DEMOCRATIC PARTY  PRECINCT 201                                           00 
00200010009000000000000000000000000000000000000DEM       REGISTERED VOTERS - DEMOCRATIC PARTY                    REGISTERED VOTERS - DEMOCRATIC PARTY  PRECINCT 202                                           00 
00200010010000000000000000000000000000000000000DEM       REGISTERED VOTERS - DEMOCRATIC PARTY                    REGISTERED VOTERS - DEMOCRATIC PARTY  PRECINCT 203                                           00 
00200010011000000000000000000000000000000000000DEM       REGISTERED VOTERS - DEMOCRATIC PARTY                    REGISTERED VOTERS - DEMOCRATIC PARTY  PRECINCT 204                                           00 
00200010012000000000000000000000000000000000000DEM       REGISTERED VOTERS - DEMOCRATIC PARTY                    REGISTERED VOTERS - DEMOCRATIC PARTY  PRECINCT 205                                           00 
00200010013000000000000000000000000000000000000DEM       REGISTERED VOTERS - DEMOCRATIC PARTY                    REGISTERED VOTERS - DEMOCRATIC PARTY  PRECINCT 206                                           00 
00200010014000000000000000000000000000000000000DEM       REGISTERED VOTERS - DEMOCRATIC PARTY                    REGISTERED VOTERS - DEMOCRATIC PARTY  PRECINCT 301                                           00 
00200010015000000000000000000000000000000000000DEM       REGISTERED VOTERS - DEMOCRATIC PARTY                    REGISTERED VOTERS - DEMOCRATIC PARTY  PRECINCT 302                                           00 
00200010016000000000000000000000000000000000000DEM       REGISTERED VOTERS - DEMOCRATIC PARTY                    REGISTERED VOTERS - DEMOCRATIC PARTY  PRECINCT 303                                           00 
00200010017000000000000000000000000000000000000DEM       REGISTERED VOTERS - DEMOCRATIC PARTY                    REGISTERED VOTERS - DEMOCRATIC PARTY  PRECINCT 304                                           00 
00200010018000000000000000000000000000000000000DEM       REGISTERED VOTERS - DEMOCRATIC PARTY                    REGISTERED VOTERS - DEMOCRATIC PARTY  PRECINCT 305                                           00 
00200010019000000000000000000000000000000000000DEM       REGISTERED VOTERS - DEMOCRATIC PARTY                    REGISTERED VOTERS - DEMOCRATIC PARTY  PRECINCT 401                                           00 
00200010020000000000000000000000000000000000000DEM       REGISTERED VOTERS - DEMOCRATIC PARTY                    REGISTERED VOTERS - DEMOCRATIC PARTY  PRECINCT 402                                           00 
00200010021000000000000000000000000000000000000DEM       REGISTERED VOTERS - DEMOCRATIC PARTY                    REGISTERED VOTERS - DEMOCRATIC PARTY  PRECINCT 403                                           00 
00200010022000000000000000000000000000000000000DEM       REGISTERED VOTERS - DEMOCRATIC PARTY                    REGISTERED VOTERS - DEMOCRATIC PARTY  PRECINCT 404                                           00 
00200010023000000000000000000000000000000000000DEM       REGISTERED VOTERS - DEMOCRATIC PARTY                    REGISTERED VOTERS - DEMOCRATIC PARTY  PRECINCT 405                                           00 
00200010024000000000000000000000000000000000000DEM       REGISTERED VOTERS - DEMOCRATIC PARTY                    REGISTERED VOTERS - DEMOCRATIC PARTY  PRECINCT 406                                           00 
00250010001000982000331000588000063000000000000          BALLOTS CAST - TOTAL                                    BALLOTS CAST - TOTAL                  PRECINCT 101                                           00 
00250010002000601000269000291000041000000000000          BALLOTS CAST - TOTAL                                    BALLOTS CAST - TOTAL                  PRECINCT 102                                           00 
00250010003000754000317000393000044000000000000          BALLOTS CAST - TOTAL                                    BALLOTS CAST - TOTAL                  PRECINCT 103                                           00 
00250010004000484000215000242000027000000000000          BALLOTS CAST - TOTAL                                    BALLOTS CAST - TOTAL                  PRECINCT 104                                           00 
00250010005001033000557000385000091000000000000          BALLOTS CAST - TOTAL                                    BALLOTS CAST - TOTAL                  PRECINCT 105                                           00 
00250010006000975000439000484000052000000000000          BALLOTS CAST - TOTAL                                    BALLOTS CAST - TOTAL                  PRECINCT 106                                           00 
00250010008000537000272000237000028000000000000          BALLOTS CAST - TOTAL                                    BALLOTS CAST - TOTAL                  PRECINCT 201                                           00 
00250010009000088000044000030000014000000000000          BALLOTS CAST - TOTAL                                    BALLOTS CAST - TOTAL                  PRECINCT 202                                           00 
00250010010000795000359000391000045000000000000          BALLOTS CAST - TOTAL                                    BALLOTS CAST - TOTAL                  PRECINCT 203                                           00 
00250010011000939000471000405000063000000000000          BALLOTS CAST - TOTAL                                    BALLOTS CAST - TOTAL                  PRECINCT 204                                           00 
00250010012001286000553000665000068000000000000          BALLOTS CAST - TOTAL                                    BALLOTS CAST - TOTAL                  PRECINCT 205                                           00 
00250010013000793000398000346000049000000000000          BALLOTS CAST - TOTAL                                    BALLOTS CAST - TOTAL                  PRECINCT 206                                           00 
00250010014000273000142000120000011000000000000          BALLOTS CAST - TOTAL                                    BALLOTS CAST - TOTAL                  PRECINCT 301                                           00 
00250010015000692000323000340000029000000000000          BALLOTS CAST - TOTAL                                    BALLOTS CAST - TOTAL                  PRECINCT 302                                           00 
00250010016000122000056000063000003000000000000          BALLOTS CAST - TOTAL                                    BALLOTS CAST - TOTAL                  PRECINCT 303                                           00 
00250010017000355000179000158000018000000000000          BALLOTS CAST - TOTAL                                    BALLOTS CAST - TOTAL                  PRECINCT 304                                           00 
00250010018000139000062000064000013000000000000          BALLOTS CAST - TOTAL                                    BALLOTS CAST - TOTAL                  PRECINCT 305                                           00 
00250010019000516000151000325000040000000000000          BALLOTS CAST - TOTAL                                    BALLOTS CAST - TOTAL                  PRECINCT 401                                           00 
00250010020000820000407000349000064000000000000          BALLOTS CAST - TOTAL                                    BALLOTS CAST - TOTAL                  PRECINCT 402                                           00 
00250010021000783000410000303000070000000000000          BALLOTS CAST - TOTAL                                    BALLOTS CAST - TOTAL                  PRECINCT 403                                           00 
00250010022001069000552000447000070000000000000          BALLOTS CAST - TOTAL                                    BALLOTS CAST - TOTAL                  PRECINCT 404                                           00 
00250010023000520000275000212000033000000000000          BALLOTS CAST - TOTAL                                    BALLOTS CAST - TOTAL                  PRECINCT 405                                           00 
00250010024000665000321000291000053000000000000          BALLOTS CAST - TOTAL                                    BALLOTS CAST - TOTAL                  PRECINCT 406                                           00 
00300010001000905000297000550000058000000000000REP       BALLOTS CAST - REPUBLICAN PARTY                         BALLOTS CAST - REPUBLICAN PARTY       PRECINCT 101                                           00 
00300010002000575000257000277000041000000000000REP       BALLOTS CAST - REPUBLICAN PARTY                         BALLOTS CAST - REPUBLICAN PARTY       PRECINCT 102                                           00 
00300010003000711000296000371000044000000000000REP       BALLOTS CAST - REPUBLICAN PARTY                         BALLOTS CAST - REPUBLICAN PARTY       PRECINCT 103                                           00 
00300010004000441000195000219000027000000000000REP       BALLOTS CAST - REPUBLICAN PARTY                         BALLOTS CAST - REPUBLICAN PARTY       PRECINCT 104                                           00 
00300010005000974000513000370000091000000000000REP       BALLOTS CAST - REPUBLICAN PARTY                         BALLOTS CAST - REPUBLICAN PARTY       PRECINCT 105                                           00 
00300010006000933000415000467000051000000000000REP       BALLOTS CAST - REPUBLICAN PARTY                         BALLOTS CAST - REPUBLICAN PARTY       PRECINCT 106                                           00 
00300010008000488000250000210000028000000000000REP       BALLOTS CAST - REPUBLICAN PARTY                         BALLOTS CAST - REPUBLICAN PARTY       PRECINCT 201                                           00 
00300010009000078000037000027000014000000000000REP       BALLOTS CAST - REPUBLICAN PARTY                         BALLOTS CAST - REPUBLICAN PARTY       PRECINCT 202                                           00 
00300010010000765000343000378000044000000000000REP       BALLOTS CAST - REPUBLICAN PARTY                         BALLOTS CAST - REPUBLICAN PARTY       PRECINCT 203                                           00 
00300010011000880000442000375000063000000000000REP       BALLOTS CAST - REPUBLICAN PARTY                         BALLOTS CAST - REPUBLICAN PARTY       PRECINCT 204                                           00 
00300010012001198000511000619000068000000000000REP       BALLOTS CAST - REPUBLICAN PARTY                         BALLOTS CAST - REPUBLICAN PARTY       PRECINCT 205                                           00 
00300010013000768000384000335000049000000000000REP       BALLOTS CAST - REPUBLICAN PARTY                         BALLOTS CAST - REPUBLICAN PARTY       PRECINCT 206                                           00 
00300010014000201000097000095000009000000000000REP       BALLOTS CAST - REPUBLICAN PARTY                         BALLOTS CAST - REPUBLICAN PARTY       PRECINCT 301                                           00 
00300010015000573000265000280000028000000000000REP       BALLOTS CAST - REPUBLICAN PARTY                         BALLOTS CAST - REPUBLICAN PARTY       PRECINCT 302                                           00 
00300010016000088000037000049000002000000000000REP       BALLOTS CAST - REPUBLICAN PARTY                         BALLOTS CAST - REPUBLICAN PARTY       PRECINCT 303                                           00 
00300010017000295000143000136000016000000000000REP       BALLOTS CAST - REPUBLICAN PARTY                         BALLOTS CAST - REPUBLICAN PARTY       PRECINCT 304                                           00 
00300010018000117000047000057000013000000000000REP       BALLOTS CAST - REPUBLICAN PARTY                         BALLOTS CAST - REPUBLICAN PARTY       PRECINCT 305                                           00 
00300010019000476000136000302000038000000000000REP       BALLOTS CAST - REPUBLICAN PARTY                         BALLOTS CAST - REPUBLICAN PARTY       PRECINCT 401                                           00 
00300010020000762000377000323000062000000000000REP       BALLOTS CAST - REPUBLICAN PARTY                         BALLOTS CAST - REPUBLICAN PARTY       PRECINCT 402                                           00 
00300010021000724000378000278000068000000000000REP       BALLOTS CAST - REPUBLICAN PARTY                         BALLOTS CAST - REPUBLICAN PARTY       PRECINCT 403                                           00 
00300010022001017000516000431000070000000000000REP       BALLOTS CAST - REPUBLICAN PARTY                         BALLOTS CAST - REPUBLICAN PARTY       PRECINCT 404                                           00 
00300010023000489000258000200000031000000000000REP       BALLOTS CAST - REPUBLICAN PARTY                         BALLOTS CAST - REPUBLICAN PARTY       PRECINCT 405                                           00 
00300010024000609000293000263000053000000000000REP       BALLOTS CAST - REPUBLICAN PARTY                         BALLOTS CAST - REPUBLICAN PARTY       PRECINCT 406                                           00 
00350010001000077000034000038000005000000000000DEM       BALLOTS CAST - DEMOCRATIC PARTY                         BALLOTS CAST - DEMOCRATIC PARTY       PRECINCT 101                                           00 
00350010002000026000012000014000000000000000000DEM       BALLOTS CAST - DEMOCRATIC PARTY                         BALLOTS CAST - DEMOCRATIC PARTY       PRECINCT 102                                           00 
00350010003000043000021000022000000000000000000DEM       BALLOTS CAST - DEMOCRATIC PARTY                         BALLOTS CAST - DEMOCRATIC PARTY       PRECINCT 103                                           00 
00350010004000043000020000023000000000000000000DEM       BALLOTS CAST - DEMOCRATIC PARTY                         BALLOTS CAST - DEMOCRATIC PARTY       PRECINCT 104                                           00 
00350010005000059000044000015000000000000000000DEM       BALLOTS CAST - DEMOCRATIC PARTY                         BALLOTS CAST - DEMOCRATIC PARTY       PRECINCT 105                                           00 
00350010006000042000024000017000001000000000000DEM       BALLOTS CAST - DEMOCRATIC PARTY                         BALLOTS CAST - DEMOCRATIC PARTY       PRECINCT 106                                           00 
00350010008000049000022000027000000000000000000DEM       BALLOTS CAST - DEMOCRATIC PARTY                         BALLOTS CAST - DEMOCRATIC PARTY       PRECINCT 201                                           00 
00350010009000010000007000003000000000000000000DEM       BALLOTS CAST - DEMOCRATIC PARTY                         BALLOTS CAST - DEMOCRATIC PARTY       PRECINCT 202                                           00 
00350010010000030000016000013000001000000000000DEM       BALLOTS CAST - DEMOCRATIC PARTY                         BALLOTS CAST - DEMOCRATIC PARTY       PRECINCT 203                                           00 
00350010011000059000029000030000000000000000000DEM       BALLOTS CAST - DEMOCRATIC PARTY                         BALLOTS CAST - DEMOCRATIC PARTY       PRECINCT 204                                           00 
00350010012000088000042000046000000000000000000DEM       BALLOTS CAST - DEMOCRATIC PARTY                         BALLOTS CAST - DEMOCRATIC PARTY       PRECINCT 205                                           00 
00350010013000025000014000011000000000000000000DEM       BALLOTS CAST - DEMOCRATIC PARTY                         BALLOTS CAST - DEMOCRATIC PARTY       PRECINCT 206                                           00 
00350010014000072000045000025000002000000000000DEM       BALLOTS CAST - DEMOCRATIC PARTY                         BALLOTS CAST - DEMOCRATIC PARTY       PRECINCT 301                                           00 
00350010015000119000058000060000001000000000000DEM       BALLOTS CAST - DEMOCRATIC PARTY                         BALLOTS CAST - DEMOCRATIC PARTY       PRECINCT 302                                           00 
00350010016000034000019000014000001000000000000DEM       BALLOTS CAST - DEMOCRATIC PARTY                         BALLOTS CAST - DEMOCRATIC PARTY       PRECINCT 303                                           00 
00350010017000060000036000022000002000000000000DEM       BALLOTS CAST - DEMOCRATIC PARTY                         BALLOTS CAST - DEMOCRATIC PARTY       PRECINCT 304                                           00 
00350010018000022000015000007000000000000000000DEM       BALLOTS CAST - DEMOCRATIC PARTY                         BALLOTS CAST - DEMOCRATIC PARTY       PRECINCT 305                                           00 
00350010019000040000015000023000002000000000000DEM       BALLOTS CAST - DEMOCRATIC PARTY                         BALLOTS CAST - DEMOCRATIC PARTY       PRECINCT 401                                           00 
00350010020000058000030000026000002000000000000DEM       BALLOTS CAST - DEMOCRATIC PARTY                         BALLOTS CAST - DEMOCRATIC PARTY       PRECINCT 402                                           00 
00350010021000059000032000025000002000000000000DEM       BALLOTS CAST - DEMOCRATIC PARTY                         BALLOTS CAST - DEMOCRATIC PARTY       PRECINCT 403                                           00 
00350010022000052000036000016000000000000000000DEM       BALLOTS CAST - DEMOCRATIC PARTY                         BALLOTS CAST - DEMOCRATIC PARTY       PRECINCT 404                                           00 
00350010023000031000017000012000002000000000000DEM       BALLOTS CAST - DEMOCRATIC PARTY                         BALLOTS CAST - DEMOCRATIC PARTY       PRECINCT 405                                           00 
00350010024000056000028000028000000000000000000DEM       BALLOTS CAST - DEMOCRATIC PARTY                         BALLOTS CAST - DEMOCRATIC PARTY       PRECINCT 406                                           00 
01000010001000002000001000001000000000000000000REP       President COMAL COUNTYWIDE                              Charles "Buddy" Roemer                PRECINCT 101                                           01 
01000010002000001000001000000000000000000000000REP       President COMAL COUNTYWIDE                              Charles "Buddy" Roemer                PRECINCT 102                                           01 
01000010003000003000000000003000000000000000000REP       President COMAL COUNTYWIDE                              Charles "Buddy" Roemer                PRECINCT 103                                           01 
01000010004000002000001000001000000000000000000REP       President COMAL COUNTYWIDE                              Charles "Buddy" Roemer                PRECINCT 104                                           01 
01000010005000009000007000002000000000000000000REP       President COMAL COUNTYWIDE                              Charles "Buddy" Roemer                PRECINCT 105                                           01 
01000010006000004000003000001000000000000000000REP       President COMAL COUNTYWIDE                              Charles "Buddy" Roemer                PRECINCT 106                                           01 
01000010008000001000001000000000000000000000000REP       President COMAL COUNTYWIDE                              Charles "Buddy" Roemer                PRECINCT 201                                           01 
01000010009000000000000000000000000000000000000REP       President COMAL COUNTYWIDE                              Charles "Buddy" Roemer                PRECINCT 202                                           01 
01000010010000006000002000002000002000000000000REP       President COMAL COUNTYWIDE                              Charles "Buddy" Roemer                PRECINCT 203                                           01 
01000010011000008000004000003000001000000000000REP       President COMAL COUNTYWIDE                              Charles "Buddy" Roemer                PRECINCT 204                                           01 
01000010012000003000003000000000000000000000000REP       President COMAL COUNTYWIDE                              Charles "Buddy" Roemer                PRECINCT 205                                           01 
01000010013000002000001000001000000000000000000REP       President COMAL COUNTYWIDE                              Charles "Buddy" Roemer                PRECINCT 206                                           01 
01000010014000000000000000000000000000000000000REP       President COMAL COUNTYWIDE                              Charles "Buddy" Roemer                PRECINCT 301                                           01 
01000010015000002000002000000000000000000000000REP       President COMAL COUNTYWIDE                              Charles "Buddy" Roemer                PRECINCT 302                                           01 
01000010016000001000001000000000000000000000000REP       President COMAL COUNTYWIDE                              Charles "Buddy" Roemer                PRECINCT 303                                           01 
01000010017000005000002000001000002000000000000REP       President COMAL COUNTYWIDE                              Charles "Buddy" Roemer                PRECINCT 304                                           01 
01000010018000002000001000001000000000000000000REP       President COMAL COUNTYWIDE                              Charles "Buddy" Roemer                PRECINCT 305                                           01 
01000010019000007000002000002000003000000000000REP       President COMAL COUNTYWIDE                              Charles "Buddy" Roemer                PRECINCT 401                                           01 
01000010020000003000002000001000000000000000000REP       President COMAL COUNTYWIDE                              Charles "Buddy" Roemer                PRECINCT 402                                           01 
01000010021000006000001000005000000000000000000REP       President COMAL COUNTYWIDE                              Charles "Buddy" Roemer                PRECINCT 403                                           01 
01000010022000004000001000003000000000000000000REP       President COMAL COUNTYWIDE                              Charles "Buddy" Roemer                PRECINCT 404                                           01 
01000010023000004000003000001000000000000000000REP       President COMAL COUNTYWIDE                              Charles "Buddy" Roemer                PRECINCT 405                                           01 
01000010024000002000000000002000000000000000000REP       President COMAL COUNTYWIDE                              Charles "Buddy" Roemer                PRECINCT 406                                           01 
01000020001000069000035000033000001000000000000REP       President COMAL COUNTYWIDE                              Rick Santorum                         PRECINCT 101                                           01 
01000020002000047000025000021000001000000000000REP       President COMAL COUNTYWIDE                              Rick Santorum                         PRECINCT 102                                           01 
01000020003000060000034000025000001000000000000REP       President COMAL COUNTYWIDE                              Rick Santorum                         PRECINCT 103                                           01 
01000020004000026000016000010000000000000000000REP       President COMAL COUNTYWIDE                              Rick Santorum                         PRECINCT 104                                           01 
01000020005000049000030000016000003000000000000REP       President COMAL COUNTYWIDE                              Rick Santorum                         PRECINCT 105                                           01 
01000020006000065000036000025000004000000000000REP       President COMAL COUNTYWIDE                              Rick Santorum                         PRECINCT 106                                           01 
01000020008000044000026000015000003000000000000REP       President COMAL COUNTYWIDE                              Rick Santorum                         PRECINCT 201                                           01 
01000020009000011000008000003000000000000000000REP       President COMAL COUNTYWIDE                              Rick Santorum                         PRECINCT 202                                           01 
01000020010000066000031000033000002000000000000REP       President COMAL COUNTYWIDE                              Rick Santorum                         PRECINCT 203                                           01 
01000020011000075000039000035000001000000000000REP       President COMAL COUNTYWIDE                              Rick Santorum                         PRECINCT 204                                           01 
01000020012000099000044000051000004000000000000REP       President COMAL COUNTYWIDE                              Rick Santorum                         PRECINCT 205                                           01 
01000020013000062000032000027000003000000000000REP       President COMAL COUNTYWIDE                              Rick Santorum                         PRECINCT 206                                           01 
01000020014000024000012000012000000000000000000REP       President COMAL COUNTYWIDE                              Rick Santorum                         PRECINCT 301                                           01 
01000020015000039000016000022000001000000000000REP       President COMAL COUNTYWIDE                              Rick Santorum                         PRECINCT 302                                           01 
01000020016000010000003000007000000000000000000REP       President COMAL COUNTYWIDE                              Rick Santorum                         PRECINCT 303                                           01 
01000020017000030000015000014000001000000000000REP       President COMAL COUNTYWIDE                              Rick Santorum                         PRECINCT 304                                           01 
01000020018000008000003000002000003000000000000REP       President COMAL COUNTYWIDE                              Rick Santorum                         PRECINCT 305                                           01 
01000020019000046000021000024000001000000000000REP       President COMAL COUNTYWIDE                              Rick Santorum                         PRECINCT 401                                           01 
01000020020000057000033000021000003000000000000REP       President COMAL COUNTYWIDE                              Rick Santorum                         PRECINCT 402                                           01 
01000020021000046000028000018000000000000000000REP       President COMAL COUNTYWIDE                              Rick Santorum                         PRECINCT 403                                           01 
01000020022000075000042000029000004000000000000REP       President COMAL COUNTYWIDE                              Rick Santorum                         PRECINCT 404                                           01 
01000020023000046000027000019000000000000000000REP       President COMAL COUNTYWIDE                              Rick Santorum                         PRECINCT 405                                           01 
01000020024000049000029000020000000000000000000REP       President COMAL COUNTYWIDE                              Rick Santorum                         PRECINCT 406                                           01 
01000030001000007000004000003000000000000000000REP       President COMAL COUNTYWIDE                              Michele Bachmann                      PRECINCT 101                                           01 
01000030002000006000002000003000001000000000000REP       President COMAL COUNTYWIDE                              Michele Bachmann                      PRECINCT 102                                           01 
01000030003000005000002000003000000000000000000REP       President COMAL COUNTYWIDE                              Michele Bachmann                      PRECINCT 103                                           01 
01000030004000003000001000000000002000000000000REP       President COMAL COUNTYWIDE                              Michele Bachmann                      PRECINCT 104                                           01 
01000030005000010000003000005000002000000000000REP       President COMAL COUNTYWIDE                              Michele Bachmann                      PRECINCT 105                                           01 
01000030006000007000003000004000000000000000000REP       President COMAL COUNTYWIDE                              Michele Bachmann                      PRECINCT 106                                           01 
01000030008000004000002000002000000000000000000REP       President COMAL COUNTYWIDE                              Michele Bachmann                      PRECINCT 201                                           01 
01000030009000001000000000001000000000000000000REP       President COMAL COUNTYWIDE                              Michele Bachmann                      PRECINCT 202                                           01 
01000030010000005000003000002000000000000000000REP       President COMAL COUNTYWIDE                              Michele Bachmann                      PRECINCT 203                                           01 
01000030011000013000008000003000002000000000000REP       President COMAL COUNTYWIDE                              Michele Bachmann                      PRECINCT 204                                           01 
01000030012000007000002000005000000000000000000REP       President COMAL COUNTYWIDE                              Michele Bachmann                      PRECINCT 205                                           01 
01000030013000004000004000000000000000000000000REP       President COMAL COUNTYWIDE                              Michele Bachmann                      PRECINCT 206                                           01 
01000030014000001000001000000000000000000000000REP       President COMAL COUNTYWIDE                              Michele Bachmann                      PRECINCT 301                                           01 
01000030015000002000002000000000000000000000000REP       President COMAL COUNTYWIDE                              Michele Bachmann                      PRECINCT 302                                           01 
01000030016000000000000000000000000000000000000REP       President COMAL COUNTYWIDE                              Michele Bachmann                      PRECINCT 303                                           01 
01000030017000002000001000001000000000000000000REP       President COMAL COUNTYWIDE                              Michele Bachmann                      PRECINCT 304                                           01 
01000030018000000000000000000000000000000000000REP       President COMAL COUNTYWIDE                              Michele Bachmann                      PRECINCT 305                                           01 
01000030019000004000002000002000000000000000000REP       President COMAL COUNTYWIDE                              Michele Bachmann                      PRECINCT 401                                           01 
01000030020000010000005000004000001000000000000REP       President COMAL COUNTYWIDE                              Michele Bachmann                      PRECINCT 402                                           01 
01000030021000005000002000003000000000000000000REP       President COMAL COUNTYWIDE                              Michele Bachmann                      PRECINCT 403                                           01 
01000030022000009000006000002000001000000000000REP       President COMAL COUNTYWIDE                              Michele Bachmann                      PRECINCT 404                                           01 
01000030023000001000001000000000000000000000000REP       President COMAL COUNTYWIDE                              Michele Bachmann                      PRECINCT 405                                           01 
01000030024000008000003000004000001000000000000REP       President COMAL COUNTYWIDE                              Michele Bachmann                      PRECINCT 406                                           01 
01000040001000668000196000422000050000000000000REP       President COMAL COUNTYWIDE                              Mitt Romney                           PRECINCT 101                                           01 
01000040002000421000176000218000027000000000000REP       President COMAL COUNTYWIDE                              Mitt Romney                           PRECINCT 102                                           01 
01000040003000487000194000261000032000000000000REP       President COMAL COUNTYWIDE                              Mitt Romney                           PRECINCT 103                                           01 
01000040004000325000131000171000023000000000000REP       President COMAL COUNTYWIDE                              Mitt Romney                           PRECINCT 104                                           01 
01000040005000726000372000280000074000000000000REP       President COMAL COUNTYWIDE                              Mitt Romney                           PRECINCT 105                                           01 
01000040006000716000310000365000041000000000000REP       President COMAL COUNTYWIDE                              Mitt Romney                           PRECINCT 106                                           01 
01000040008000355000173000162000020000000000000REP       President COMAL COUNTYWIDE                              Mitt Romney                           PRECINCT 201                                           01 
01000040009000057000023000021000013000000000000REP       President COMAL COUNTYWIDE                              Mitt Romney                           PRECINCT 202                                           01 
01000040010000574000246000294000034000000000000REP       President COMAL COUNTYWIDE                              Mitt Romney                           PRECINCT 203                                           01 
01000040011000631000297000281000053000000000000REP       President COMAL COUNTYWIDE                              Mitt Romney                           PRECINCT 204                                           01 
01000040012000947000402000494000051000000000000REP       President COMAL COUNTYWIDE                              Mitt Romney                           PRECINCT 205                                           01 
01000040013000587000285000262000040000000000000REP       President COMAL COUNTYWIDE                              Mitt Romney                           PRECINCT 206                                           01 
01000040014000127000059000061000007000000000000REP       President COMAL COUNTYWIDE                              Mitt Romney                           PRECINCT 301                                           01 
01000040015000416000189000205000022000000000000REP       President COMAL COUNTYWIDE                              Mitt Romney                           PRECINCT 302                                           01 
01000040016000061000028000031000002000000000000REP       President COMAL COUNTYWIDE                              Mitt Romney                           PRECINCT 303                                           01 
01000040017000199000089000098000012000000000000REP       President COMAL COUNTYWIDE                              Mitt Romney                           PRECINCT 304                                           01 
01000040018000075000029000037000009000000000000REP       President COMAL COUNTYWIDE                              Mitt Romney                           PRECINCT 305                                           01 
01000040019000340000085000226000029000000000000REP       President COMAL COUNTYWIDE                              Mitt Romney                           PRECINCT 401                                           01 
01000040020000525000234000248000043000000000000REP       President COMAL COUNTYWIDE                              Mitt Romney                           PRECINCT 402                                           01 
01000040021000548000280000207000061000000000000REP       President COMAL COUNTYWIDE                              Mitt Romney                           PRECINCT 403                                           01 
01000040022000766000366000342000058000000000000REP       President COMAL COUNTYWIDE                              Mitt Romney                           PRECINCT 404                                           01 
01000040023000322000164000135000023000000000000REP       President COMAL COUNTYWIDE                              Mitt Romney                           PRECINCT 405                                           01 
01000040024000418000188000185000045000000000000REP       President COMAL COUNTYWIDE                              Mitt Romney                           PRECINCT 406                                           01 
01000050001000032000013000019000000000000000000REP       President COMAL COUNTYWIDE                              Newt Gingrich                         PRECINCT 101                                           01 
01000050002000027000013000011000003000000000000REP       President COMAL COUNTYWIDE                              Newt Gingrich                         PRECINCT 102                                           01 
01000050003000037000015000019000003000000000000REP       President COMAL COUNTYWIDE                              Newt Gingrich                         PRECINCT 103                                           01 
01000050004000016000007000009000000000000000000REP       President COMAL COUNTYWIDE                              Newt Gingrich                         PRECINCT 104                                           01 
01000050005000034000018000014000002000000000000REP       President COMAL COUNTYWIDE                              Newt Gingrich                         PRECINCT 105                                           01 
01000050006000028000011000012000005000000000000REP       President COMAL COUNTYWIDE                              Newt Gingrich                         PRECINCT 106                                           01 
01000050008000020000014000006000000000000000000REP       President COMAL COUNTYWIDE                              Newt Gingrich                         PRECINCT 201                                           01 
01000050009000004000003000000000001000000000000REP       President COMAL COUNTYWIDE                              Newt Gingrich                         PRECINCT 202                                           01 
01000050010000028000010000015000003000000000000REP       President COMAL COUNTYWIDE                              Newt Gingrich                         PRECINCT 203                                           01 
01000050011000051000034000016000001000000000000REP       President COMAL COUNTYWIDE                              Newt Gingrich                         PRECINCT 204                                           01 
01000050012000034000017000014000003000000000000REP       President COMAL COUNTYWIDE                              Newt Gingrich                         PRECINCT 205                                           01 
01000050013000025000011000012000002000000000000REP       President COMAL COUNTYWIDE                              Newt Gingrich                         PRECINCT 206                                           01 
01000050014000009000003000005000001000000000000REP       President COMAL COUNTYWIDE                              Newt Gingrich                         PRECINCT 301                                           01 
01000050015000014000008000006000000000000000000REP       President COMAL COUNTYWIDE                              Newt Gingrich                         PRECINCT 302                                           01 
01000050016000002000001000001000000000000000000REP       President COMAL COUNTYWIDE                              Newt Gingrich                         PRECINCT 303                                           01 
01000050017000013000010000002000001000000000000REP       President COMAL COUNTYWIDE                              Newt Gingrich                         PRECINCT 304                                           01 
01000050018000004000001000003000000000000000000REP       President COMAL COUNTYWIDE                              Newt Gingrich                         PRECINCT 305                                           01 
01000050019000024000005000018000001000000000000REP       President COMAL COUNTYWIDE                              Newt Gingrich                         PRECINCT 401                                           01 
01000050020000039000017000019000003000000000000REP       President COMAL COUNTYWIDE                              Newt Gingrich                         PRECINCT 402                                           01 
01000050021000028000016000010000002000000000000REP       President COMAL COUNTYWIDE                              Newt Gingrich                         PRECINCT 403                                           01 
01000050022000038000021000017000000000000000000REP       President COMAL COUNTYWIDE                              Newt Gingrich                         PRECINCT 404                                           01 
01000050023000020000007000011000002000000000000REP       President COMAL COUNTYWIDE                              Newt Gingrich                         PRECINCT 405                                           01 
01000050024000044000019000019000006000000000000REP       President COMAL COUNTYWIDE                              Newt Gingrich                         PRECINCT 406                                           01 
01000060001000000000000000000000000000000000000REP       President COMAL COUNTYWIDE                              John Davis                            PRECINCT 101                                           01 
01000060002000000000000000000000000000000000000REP       President COMAL COUNTYWIDE                              John Davis                            PRECINCT 102                                           01 
01000060003000001000001000000000000000000000000REP       President COMAL COUNTYWIDE                              John Davis                            PRECINCT 103                                           01 
01000060004000001000001000000000000000000000000REP       President COMAL COUNTYWIDE                              John Davis                            PRECINCT 104                                           01 
01000060005000002000001000001000000000000000000REP       President COMAL COUNTYWIDE                              John Davis                            PRECINCT 105                                           01 
01000060006000002000000000002000000000000000000REP       President COMAL COUNTYWIDE                              John Davis                            PRECINCT 106                                           01 
01000060008000001000001000000000000000000000000REP       President COMAL COUNTYWIDE                              John Davis                            PRECINCT 201                                           01 
01000060009000000000000000000000000000000000000REP       President COMAL COUNTYWIDE                              John Davis                            PRECINCT 202                                           01 
01000060010000001000000000001000000000000000000REP       President COMAL COUNTYWIDE                              John Davis                            PRECINCT 203                                           01 
01000060011000000000000000000000000000000000000REP       President COMAL COUNTYWIDE                              John Davis                            PRECINCT 204                                           01 
01000060012000000000000000000000000000000000000REP       President COMAL COUNTYWIDE                              John Davis                            PRECINCT 205                                           01 
01000060013000002000002000000000000000000000000REP       President COMAL COUNTYWIDE                              John Davis                            PRECINCT 206                                           01 
01000060014000001000000000001000000000000000000REP       President COMAL COUNTYWIDE                              John Davis                            PRECINCT 301                                           01 
01000060015000000000000000000000000000000000000REP       President COMAL COUNTYWIDE                              John Davis                            PRECINCT 302                                           01 
01000060016000000000000000000000000000000000000REP       President COMAL COUNTYWIDE                              John Davis                            PRECINCT 303                                           01 
01000060017000000000000000000000000000000000000REP       President COMAL COUNTYWIDE                              John Davis                            PRECINCT 304                                           01 
01000060018000000000000000000000000000000000000REP       President COMAL COUNTYWIDE                              John Davis                            PRECINCT 305                                           01 
01000060019000001000001000000000000000000000000REP       President COMAL COUNTYWIDE                              John Davis                            PRECINCT 401                                           01 
01000060020000000000000000000000000000000000000REP       President COMAL COUNTYWIDE                              John Davis                            PRECINCT 402                                           01 
01000060021000000000000000000000000000000000000REP       President COMAL COUNTYWIDE                              John Davis                            PRECINCT 403                                           01 
01000060022000001000001000000000000000000000000REP       President COMAL COUNTYWIDE                              John Davis                            PRECINCT 404                                           01 
01000060023000001000001000000000000000000000000REP       President COMAL COUNTYWIDE                              John Davis                            PRECINCT 405                                           01 
01000060024000002000001000001000000000000000000REP       President COMAL COUNTYWIDE                              John Davis                            PRECINCT 406                                           01 
01000070001000092000035000053000004000000000000REP       President COMAL COUNTYWIDE                              Ron Paul                              PRECINCT 101                                           01 
01000070002000047000029000015000003000000000000REP       President COMAL COUNTYWIDE                              Ron Paul                              PRECINCT 102                                           01 
01000070003000087000039000041000007000000000000REP       President COMAL COUNTYWIDE                              Ron Paul                              PRECINCT 103                                           01 
01000070004000047000024000022000001000000000000REP       President COMAL COUNTYWIDE                              Ron Paul                              PRECINCT 104                                           01 
01000070005000101000061000034000006000000000000REP       President COMAL COUNTYWIDE                              Ron Paul                              PRECINCT 105                                           01 
01000070006000089000045000044000000000000000000REP       President COMAL COUNTYWIDE                              Ron Paul                              PRECINCT 106                                           01 
01000070008000044000021000018000005000000000000REP       President COMAL COUNTYWIDE                              Ron Paul                              PRECINCT 201                                           01 
01000070009000005000003000002000000000000000000REP       President COMAL COUNTYWIDE                              Ron Paul                              PRECINCT 202                                           01 
01000070010000060000033000025000002000000000000REP       President COMAL COUNTYWIDE                              Ron Paul                              PRECINCT 203                                           01 
01000070011000077000048000026000003000000000000REP       President COMAL COUNTYWIDE                              Ron Paul                              PRECINCT 204                                           01 
01000070012000080000034000041000005000000000000REP       President COMAL COUNTYWIDE                              Ron Paul                              PRECINCT 205                                           01 
01000070013000062000035000025000002000000000000REP       President COMAL COUNTYWIDE                              Ron Paul                              PRECINCT 206                                           01 
01000070014000031000018000012000001000000000000REP       President COMAL COUNTYWIDE                              Ron Paul                              PRECINCT 301                                           01 
01000070015000074000035000036000003000000000000REP       President COMAL COUNTYWIDE                              Ron Paul                              PRECINCT 302                                           01 
01000070016000010000003000007000000000000000000REP       President COMAL COUNTYWIDE                              Ron Paul                              PRECINCT 303                                           01 
01000070017000037000022000015000000000000000000REP       President COMAL COUNTYWIDE                              Ron Paul                              PRECINCT 304                                           01 
01000070018000027000013000013000001000000000000REP       President COMAL COUNTYWIDE                              Ron Paul                              PRECINCT 305                                           01 
01000070019000038000017000018000003000000000000REP       President COMAL COUNTYWIDE                              Ron Paul                              PRECINCT 401                                           01 
01000070020000090000067000019000004000000000000REP       President COMAL COUNTYWIDE                              Ron Paul                              PRECINCT 402                                           01 
01000070021000066000038000024000004000000000000REP       President COMAL COUNTYWIDE                              Ron Paul                              PRECINCT 403                                           01 
01000070022000092000063000028000001000000000000REP       President COMAL COUNTYWIDE                              Ron Paul                              PRECINCT 404                                           01 
01000070023000082000050000028000004000000000000REP       President COMAL COUNTYWIDE                              Ron Paul                              PRECINCT 405                                           01 
01000070024000064000040000023000001000000000000REP       President COMAL COUNTYWIDE                              Ron Paul                              PRECINCT 406                                           01 
01000080001000003000002000001000000000000000000REP       President COMAL COUNTYWIDE                              Jon Huntsman                          PRECINCT 101                                           01 
01000080002000004000004000000000000000000000000REP       President COMAL COUNTYWIDE                              Jon Huntsman                          PRECINCT 102                                           01 
01000080003000004000002000002000000000000000000REP       President COMAL COUNTYWIDE                              Jon Huntsman                          PRECINCT 103                                           01 
01000080004000002000001000001000000000000000000REP       President COMAL COUNTYWIDE                              Jon Huntsman                          PRECINCT 104                                           01 
01000080005000007000004000002000001000000000000REP       President COMAL COUNTYWIDE                              Jon Huntsman                          PRECINCT 105                                           01 
01000080006000002000000000002000000000000000000REP       President COMAL COUNTYWIDE                              Jon Huntsman                          PRECINCT 106                                           01 
01000080008000000000000000000000000000000000000REP       President COMAL COUNTYWIDE                              Jon Huntsman                          PRECINCT 201                                           01 
01000080009000000000000000000000000000000000000REP       President COMAL COUNTYWIDE                              Jon Huntsman                          PRECINCT 202                                           01 
01000080010000011000009000002000000000000000000REP       President COMAL COUNTYWIDE                              Jon Huntsman                          PRECINCT 203                                           01 
01000080011000006000003000003000000000000000000REP       President COMAL COUNTYWIDE                              Jon Huntsman                          PRECINCT 204                                           01 
01000080012000005000002000003000000000000000000REP       President COMAL COUNTYWIDE                              Jon Huntsman                          PRECINCT 205                                           01 
01000080013000004000003000001000000000000000000REP       President COMAL COUNTYWIDE                              Jon Huntsman                          PRECINCT 206                                           01 
01000080014000001000000000001000000000000000000REP       President COMAL COUNTYWIDE                              Jon Huntsman                          PRECINCT 301                                           01 
01000080015000002000002000000000000000000000000REP       President COMAL COUNTYWIDE                              Jon Huntsman                          PRECINCT 302                                           01 
01000080016000002000000000002000000000000000000REP       President COMAL COUNTYWIDE                              Jon Huntsman                          PRECINCT 303                                           01 
01000080017000002000001000001000000000000000000REP       President COMAL COUNTYWIDE                              Jon Huntsman                          PRECINCT 304                                           01 
01000080018000000000000000000000000000000000000REP       President COMAL COUNTYWIDE                              Jon Huntsman                          PRECINCT 305                                           01 
01000080019000002000000000002000000000000000000REP       President COMAL COUNTYWIDE                              Jon Huntsman                          PRECINCT 401                                           01 
01000080020000010000008000001000001000000000000REP       President COMAL COUNTYWIDE                              Jon Huntsman                          PRECINCT 402                                           01 
01000080021000004000000000004000000000000000000REP       President COMAL COUNTYWIDE                              Jon Huntsman                          PRECINCT 403                                           01 
01000080022000006000004000001000001000000000000REP       President COMAL COUNTYWIDE                              Jon Huntsman                          PRECINCT 404                                           01 
01000080023000001000001000000000000000000000000REP       President COMAL COUNTYWIDE                              Jon Huntsman                          PRECINCT 405                                           01 
01000080024000003000002000001000000000000000000REP       President COMAL COUNTYWIDE                              Jon Huntsman                          PRECINCT 406                                           01 
01000090001000023000008000012000003000000000000REP       President COMAL COUNTYWIDE                              Uncommitted (No Comprometido)         PRECINCT 101                                           01 
01000090002000013000003000006000004000000000000REP       President COMAL COUNTYWIDE                              Uncommitted (No Comprometido)         PRECINCT 102                                           01 
01000090003000016000005000010000001000000000000REP       President COMAL COUNTYWIDE                              Uncommitted (No Comprometido)         PRECINCT 103                                           01 
01000090004000016000010000005000001000000000000REP       President COMAL COUNTYWIDE                              Uncommitted (No Comprometido)         PRECINCT 104                                           01 
01000090005000027000012000012000003000000000000REP       President COMAL COUNTYWIDE                              Uncommitted (No Comprometido)         PRECINCT 105                                           01 
01000090006000016000005000010000001000000000000REP       President COMAL COUNTYWIDE                              Uncommitted (No Comprometido)         PRECINCT 106                                           01 
01000090008000013000008000005000000000000000000REP       President COMAL COUNTYWIDE                              Uncommitted (No Comprometido)         PRECINCT 201                                           01 
01000090009000000000000000000000000000000000000REP       President COMAL COUNTYWIDE                              Uncommitted (No Comprometido)         PRECINCT 202                                           01 
01000090010000011000007000003000001000000000000REP       President COMAL COUNTYWIDE                              Uncommitted (No Comprometido)         PRECINCT 203                                           01 
01000090011000010000003000007000000000000000000REP       President COMAL COUNTYWIDE                              Uncommitted (No Comprometido)         PRECINCT 204                                           01 
01000090012000019000006000010000003000000000000REP       President COMAL COUNTYWIDE                              Uncommitted (No Comprometido)         PRECINCT 205                                           01 
01000090013000011000006000005000000000000000000REP       President COMAL COUNTYWIDE                              Uncommitted (No Comprometido)         PRECINCT 206                                           01 
01000090014000005000004000001000000000000000000REP       President COMAL COUNTYWIDE                              Uncommitted (No Comprometido)         PRECINCT 301                                           01 
01000090015000017000006000010000001000000000000REP       President COMAL COUNTYWIDE                              Uncommitted (No Comprometido)         PRECINCT 302                                           01 
01000090016000001000001000000000000000000000000REP       President COMAL COUNTYWIDE                              Uncommitted (No Comprometido)         PRECINCT 303                                           01 
01000090017000005000003000002000000000000000000REP       President COMAL COUNTYWIDE                              Uncommitted (No Comprometido)         PRECINCT 304                                           01 
01000090018000001000000000001000000000000000000REP       President COMAL COUNTYWIDE                              Uncommitted (No Comprometido)         PRECINCT 305                                           01 
01000090019000010000001000008000001000000000000REP       President COMAL COUNTYWIDE                              Uncommitted (No Comprometido)         PRECINCT 401                                           01 
01000090020000017000006000006000005000000000000REP       President COMAL COUNTYWIDE                              Uncommitted (No Comprometido)         PRECINCT 402                                           01 
01000090021000013000011000002000000000000000000REP       President COMAL COUNTYWIDE                              Uncommitted (No Comprometido)         PRECINCT 403                                           01 
01000090022000013000007000004000002000000000000REP       President COMAL COUNTYWIDE                              Uncommitted (No Comprometido)         PRECINCT 404                                           01 
01000090023000010000004000004000002000000000000REP       President COMAL COUNTYWIDE                              Uncommitted (No Comprometido)         PRECINCT 405                                           01 
01000090024000016000009000007000000000000000000REP       President COMAL COUNTYWIDE                              Uncommitted (No Comprometido)         PRECINCT 406                                           01 
01000100001000000000000000000000000000000000000REP       President COMAL COUNTYWIDE                              OVER VOTES                            PRECINCT 101                                           01 
01000100002000001000000000000000001000000000000REP       President COMAL COUNTYWIDE                              OVER VOTES                            PRECINCT 102                                           01 
01000100003000000000000000000000000000000000000REP       President COMAL COUNTYWIDE                              OVER VOTES                            PRECINCT 103                                           01 
01000100004000000000000000000000000000000000000REP       President COMAL COUNTYWIDE                              OVER VOTES                            PRECINCT 104                                           01 
01000100005000000000000000000000000000000000000REP       President COMAL COUNTYWIDE                              OVER VOTES                            PRECINCT 105                                           01 
01000100006000000000000000000000000000000000000REP       President COMAL COUNTYWIDE                              OVER VOTES                            PRECINCT 106                                           01 
01000100008000000000000000000000000000000000000REP       President COMAL COUNTYWIDE                              OVER VOTES                            PRECINCT 201                                           01 
01000100009000000000000000000000000000000000000REP       President COMAL COUNTYWIDE                              OVER VOTES                            PRECINCT 202                                           01 
01000100010000000000000000000000000000000000000REP       President COMAL COUNTYWIDE                              OVER VOTES                            PRECINCT 203                                           01 
01000100011000002000000000000000002000000000000REP       President COMAL COUNTYWIDE                              OVER VOTES                            PRECINCT 204                                           01 
01000100012000002000000000000000002000000000000REP       President COMAL COUNTYWIDE                              OVER VOTES                            PRECINCT 205                                           01 
01000100013000002000000000000000002000000000000REP       President COMAL COUNTYWIDE                              OVER VOTES                            PRECINCT 206                                           01 
01000100014000000000000000000000000000000000000REP       President COMAL COUNTYWIDE                              OVER VOTES                            PRECINCT 301                                           01 
01000100015000001000000000000000001000000000000REP       President COMAL COUNTYWIDE                              OVER VOTES                            PRECINCT 302                                           01 
01000100016000000000000000000000000000000000000REP       President COMAL COUNTYWIDE                              OVER VOTES                            PRECINCT 303                                           01 
01000100017000000000000000000000000000000000000REP       President COMAL COUNTYWIDE                              OVER VOTES                            PRECINCT 304                                           01 
01000100018000000000000000000000000000000000000REP       President COMAL COUNTYWIDE                              OVER VOTES                            PRECINCT 305                                           01 
01000100019000000000000000000000000000000000000REP       President COMAL COUNTYWIDE                              OVER VOTES                            PRECINCT 401                                           01 
01000100020000000000000000000000000000000000000REP       President COMAL COUNTYWIDE                              OVER VOTES                            PRECINCT 402                                           01 
01000100021000001000000000000000001000000000000REP       President COMAL COUNTYWIDE                              OVER VOTES                            PRECINCT 403                                           01 
01000100022000002000000000000000002000000000000REP       President COMAL COUNTYWIDE                              OVER VOTES                            PRECINCT 404                                           01 
01000100023000000000000000000000000000000000000REP       President COMAL COUNTYWIDE                              OVER VOTES                            PRECINCT 405                                           01 
01000100024000000000000000000000000000000000000REP       President COMAL COUNTYWIDE                              OVER VOTES                            PRECINCT 406                                           01 
01000110001000009000003000006000000000000000000REP       President COMAL COUNTYWIDE                              UNDER VOTES                           PRECINCT 101                                           01 
01000110002000008000004000003000001000000000000REP       President COMAL COUNTYWIDE                              UNDER VOTES                           PRECINCT 102                                           01 
01000110003000011000004000007000000000000000000REP       President COMAL COUNTYWIDE                              UNDER VOTES                           PRECINCT 103                                           01 
01000110004000003000003000000000000000000000000REP       President COMAL COUNTYWIDE                              UNDER VOTES                           PRECINCT 104                                           01 
01000110005000009000005000004000000000000000000REP       President COMAL COUNTYWIDE                              UNDER VOTES                           PRECINCT 105                                           01 
01000110006000004000002000002000000000000000000REP       President COMAL COUNTYWIDE                              UNDER VOTES                           PRECINCT 106                                           01 
01000110008000006000004000002000000000000000000REP       President COMAL COUNTYWIDE                              UNDER VOTES                           PRECINCT 201                                           01 
01000110009000000000000000000000000000000000000REP       President COMAL COUNTYWIDE                              UNDER VOTES                           PRECINCT 202                                           01 
01000110010000003000002000001000000000000000000REP       President COMAL COUNTYWIDE                              UNDER VOTES                           PRECINCT 203                                           01 
01000110011000007000006000001000000000000000000REP       President COMAL COUNTYWIDE                              UNDER VOTES                           PRECINCT 204                                           01 
01000110012000002000001000001000000000000000000REP       President COMAL COUNTYWIDE                              UNDER VOTES                           PRECINCT 205                                           01 
01000110013000007000005000002000000000000000000REP       President COMAL COUNTYWIDE                              UNDER VOTES                           PRECINCT 206                                           01 
01000110014000002000000000002000000000000000000REP       President COMAL COUNTYWIDE                              UNDER VOTES                           PRECINCT 301                                           01 
01000110015000006000005000001000000000000000000REP       President COMAL COUNTYWIDE                              UNDER VOTES                           PRECINCT 302                                           01 
01000110016000001000000000001000000000000000000REP       President COMAL COUNTYWIDE                              UNDER VOTES                           PRECINCT 303                                           01 
01000110017000002000000000002000000000000000000REP       President COMAL COUNTYWIDE                              UNDER VOTES                           PRECINCT 304                                           01 
01000110018000000000000000000000000000000000000REP       President COMAL COUNTYWIDE                              UNDER VOTES                           PRECINCT 305                                           01 
01000110019000004000002000002000000000000000000REP       President COMAL COUNTYWIDE                              UNDER VOTES                           PRECINCT 401                                           01 
01000110020000011000005000004000002000000000000REP       President COMAL COUNTYWIDE                              UNDER VOTES                           PRECINCT 402                                           01 
01000110021000007000002000005000000000000000000REP       President COMAL COUNTYWIDE                              UNDER VOTES                           PRECINCT 403                                           01 
01000110022000011000005000005000001000000000000REP       President COMAL COUNTYWIDE                              UNDER VOTES                           PRECINCT 404                                           01 
01000110023000002000000000002000000000000000000REP       President COMAL COUNTYWIDE                              UNDER VOTES                           PRECINCT 405                                           01 
01000110024000003000002000001000000000000000000REP       President COMAL COUNTYWIDE                              UNDER VOTES                           PRECINCT 406                                           01 
01010010001000420000105000276000039000000000000REP       US Senator COMAL COUNTYWIDE                             David Dewhurst                        PRECINCT 101                                           01 
01010010002000188000076000095000017000000000000REP       US Senator COMAL COUNTYWIDE                             David Dewhurst                        PRECINCT 102                                           01 
01010010003000294000104000163000027000000000000REP       US Senator COMAL COUNTYWIDE                             David Dewhurst                        PRECINCT 103                                           01 
01010010004000202000074000111000017000000000000REP       US Senator COMAL COUNTYWIDE                             David Dewhurst                        PRECINCT 104                                           01 
01010010005000413000212000146000055000000000000REP       US Senator COMAL COUNTYWIDE                             David Dewhurst                        PRECINCT 105                                           01 
01010010006000341000143000167000031000000000000REP       US Senator COMAL COUNTYWIDE                             David Dewhurst                        PRECINCT 106                                           01 
01010010008000203000089000098000016000000000000REP       US Senator COMAL COUNTYWIDE                             David Dewhurst                        PRECINCT 201                                           01 
01010010009000029000017000004000008000000000000REP       US Senator COMAL COUNTYWIDE                             David Dewhurst                        PRECINCT 202                                           01 
01010010010000324000128000175000021000000000000REP       US Senator COMAL COUNTYWIDE                             David Dewhurst                        PRECINCT 203                                           01 
01010010011000330000153000145000032000000000000REP       US Senator COMAL COUNTYWIDE                             David Dewhurst                        PRECINCT 204                                           01 
01010010012000448000177000240000031000000000000REP       US Senator COMAL COUNTYWIDE                             David Dewhurst                        PRECINCT 205                                           01 
01010010013000284000145000113000026000000000000REP       US Senator COMAL COUNTYWIDE                             David Dewhurst                        PRECINCT 206                                           01 
01010010014000084000033000044000007000000000000REP       US Senator COMAL COUNTYWIDE                             David Dewhurst                        PRECINCT 301                                           01 
01010010015000256000107000130000019000000000000REP       US Senator COMAL COUNTYWIDE                             David Dewhurst                        PRECINCT 302                                           01 
01010010016000035000013000022000000000000000000REP       US Senator COMAL COUNTYWIDE                             David Dewhurst                        PRECINCT 303                                           01 
01010010017000139000064000065000010000000000000REP       US Senator COMAL COUNTYWIDE                             David Dewhurst                        PRECINCT 304                                           01 
01010010018000047000018000023000006000000000000REP       US Senator COMAL COUNTYWIDE                             David Dewhurst                        PRECINCT 305                                           01 
01010010019000223000048000158000017000000000000REP       US Senator COMAL COUNTYWIDE                             David Dewhurst                        PRECINCT 401                                           01 
01010010020000308000162000120000026000000000000REP       US Senator COMAL COUNTYWIDE                             David Dewhurst                        PRECINCT 402                                           01 
01010010021000279000149000096000034000000000000REP       US Senator COMAL COUNTYWIDE                             David Dewhurst                        PRECINCT 403                                           01 
01010010022000375000189000154000032000000000000REP       US Senator COMAL COUNTYWIDE                             David Dewhurst                        PRECINCT 404                                           01 
01010010023000155000065000070000020000000000000REP       US Senator COMAL COUNTYWIDE                             David Dewhurst                        PRECINCT 405                                           01 
01010010024000239000098000110000031000000000000REP       US Senator COMAL COUNTYWIDE                             David Dewhurst                        PRECINCT 406                                           01 
01010020001000288000116000166000006000000000000REP       US Senator COMAL COUNTYWIDE                             Ted Cruz                              PRECINCT 101                                           01 
01010020002000265000109000138000018000000000000REP       US Senator COMAL COUNTYWIDE                             Ted Cruz                              PRECINCT 102                                           01 
01010020003000267000136000121000010000000000000REP       US Senator COMAL COUNTYWIDE                             Ted Cruz                              PRECINCT 103                                           01 
01010020004000129000071000054000004000000000000REP       US Senator COMAL COUNTYWIDE                             Ted Cruz                              PRECINCT 104                                           01 
01010020005000338000194000127000017000000000000REP       US Senator COMAL COUNTYWIDE                             Ted Cruz                              PRECINCT 105                                           01 
01010020006000393000196000182000015000000000000REP       US Senator COMAL COUNTYWIDE                             Ted Cruz                              PRECINCT 106                                           01 
01010020008000182000111000066000005000000000000REP       US Senator COMAL COUNTYWIDE                             Ted Cruz                              PRECINCT 201                                           01 
01010020009000036000014000017000005000000000000REP       US Senator COMAL COUNTYWIDE                             Ted Cruz                              PRECINCT 202                                           01 
01010020010000288000131000143000014000000000000REP       US Senator COMAL COUNTYWIDE                             Ted Cruz                              PRECINCT 203                                           01 
01010020011000395000207000165000023000000000000REP       US Senator COMAL COUNTYWIDE                             Ted Cruz                              PRECINCT 204                                           01 
01010020012000512000244000244000024000000000000REP       US Senator COMAL COUNTYWIDE                             Ted Cruz                              PRECINCT 205                                           01 
01010020013000335000163000157000015000000000000REP       US Senator COMAL COUNTYWIDE                             Ted Cruz                              PRECINCT 206                                           01 
01010020014000067000039000027000001000000000000REP       US Senator COMAL COUNTYWIDE                             Ted Cruz                              PRECINCT 301                                           01 
01010020015000172000088000080000004000000000000REP       US Senator COMAL COUNTYWIDE                             Ted Cruz                              PRECINCT 302                                           01 
01010020016000033000018000013000002000000000000REP       US Senator COMAL COUNTYWIDE                             Ted Cruz                              PRECINCT 303                                           01 
01010020017000088000043000043000002000000000000REP       US Senator COMAL COUNTYWIDE                             Ted Cruz                              PRECINCT 304                                           01 
01010020018000044000018000022000004000000000000REP       US Senator COMAL COUNTYWIDE                             Ted Cruz                              PRECINCT 305                                           01 
01010020019000154000048000091000015000000000000REP       US Senator COMAL COUNTYWIDE                             Ted Cruz                              PRECINCT 401                                           01 
01010020020000260000116000128000016000000000000REP       US Senator COMAL COUNTYWIDE                             Ted Cruz                              PRECINCT 402                                           01 
01010020021000315000170000125000020000000000000REP       US Senator COMAL COUNTYWIDE                             Ted Cruz                              PRECINCT 403                                           01 
01010020022000435000215000200000020000000000000REP       US Senator COMAL COUNTYWIDE                             Ted Cruz                              PRECINCT 404                                           01 
01010020023000231000134000086000011000000000000REP       US Senator COMAL COUNTYWIDE                             Ted Cruz                              PRECINCT 405                                           01 
01010020024000218000122000083000013000000000000REP       US Senator COMAL COUNTYWIDE                             Ted Cruz                              PRECINCT 406                                           01 
01010030001000001000001000000000000000000000000REP       US Senator COMAL COUNTYWIDE                             Ben Gambini                           PRECINCT 101                                           01 
01010030002000001000001000000000000000000000000REP       US Senator COMAL COUNTYWIDE                             Ben Gambini                           PRECINCT 102                                           01 
01010030003000003000001000002000000000000000000REP       US Senator COMAL COUNTYWIDE                             Ben Gambini                           PRECINCT 103                                           01 
01010030004000001000001000000000000000000000000REP       US Senator COMAL COUNTYWIDE                             Ben Gambini                           PRECINCT 104                                           01 
01010030005000004000003000000000001000000000000REP       US Senator COMAL COUNTYWIDE                             Ben Gambini                           PRECINCT 105                                           01 
01010030006000005000003000002000000000000000000REP       US Senator COMAL COUNTYWIDE                             Ben Gambini                           PRECINCT 106                                           01 
01010030008000002000001000001000000000000000000REP       US Senator COMAL COUNTYWIDE                             Ben Gambini                           PRECINCT 201                                           01 
01010030009000000000000000000000000000000000000REP       US Senator COMAL COUNTYWIDE                             Ben Gambini                           PRECINCT 202                                           01 
01010030010000003000002000000000001000000000000REP       US Senator COMAL COUNTYWIDE                             Ben Gambini                           PRECINCT 203                                           01 
01010030011000002000001000001000000000000000000REP       US Senator COMAL COUNTYWIDE                             Ben Gambini                           PRECINCT 204                                           01 
01010030012000003000001000002000000000000000000REP       US Senator COMAL COUNTYWIDE                             Ben Gambini                           PRECINCT 205                                           01 
01010030013000004000003000001000000000000000000REP       US Senator COMAL COUNTYWIDE                             Ben Gambini                           PRECINCT 206                                           01 
01010030014000005000003000002000000000000000000REP       US Senator COMAL COUNTYWIDE                             Ben Gambini                           PRECINCT 301                                           01 
01010030015000003000002000001000000000000000000REP       US Senator COMAL COUNTYWIDE                             Ben Gambini                           PRECINCT 302                                           01 
01010030016000000000000000000000000000000000000REP       US Senator COMAL COUNTYWIDE                             Ben Gambini                           PRECINCT 303                                           01 
01010030017000003000001000002000000000000000000REP       US Senator COMAL COUNTYWIDE                             Ben Gambini                           PRECINCT 304                                           01 
01010030018000001000000000001000000000000000000REP       US Senator COMAL COUNTYWIDE                             Ben Gambini                           PRECINCT 305                                           01 
01010030019000001000000000000000001000000000000REP       US Senator COMAL COUNTYWIDE                             Ben Gambini                           PRECINCT 401                                           01 
01010030020000004000001000003000000000000000000REP       US Senator COMAL COUNTYWIDE                             Ben Gambini                           PRECINCT 402                                           01 
01010030021000006000003000002000001000000000000REP       US Senator COMAL COUNTYWIDE                             Ben Gambini                           PRECINCT 403                                           01 
01010030022000006000002000004000000000000000000REP       US Senator COMAL COUNTYWIDE                             Ben Gambini                           PRECINCT 404                                           01 
01010030023000005000002000003000000000000000000REP       US Senator COMAL COUNTYWIDE                             Ben Gambini                           PRECINCT 405                                           01 
01010030024000003000001000002000000000000000000REP       US Senator COMAL COUNTYWIDE                             Ben Gambini                           PRECINCT 406                                           01 
01010040001000004000001000002000001000000000000REP       US Senator COMAL COUNTYWIDE                             Curt Cleaver                          PRECINCT 101                                           01 
01010040002000002000001000000000001000000000000REP       US Senator COMAL COUNTYWIDE                             Curt Cleaver                          PRECINCT 102                                           01 
01010040003000005000002000003000000000000000000REP       US Senator COMAL COUNTYWIDE                             Curt Cleaver                          PRECINCT 103                                           01 
01010040004000000000000000000000000000000000000REP       US Senator COMAL COUNTYWIDE                             Curt Cleaver                          PRECINCT 104                                           01 
01010040005000003000003000000000000000000000000REP       US Senator COMAL COUNTYWIDE                             Curt Cleaver                          PRECINCT 105                                           01 
01010040006000004000002000001000001000000000000REP       US Senator COMAL COUNTYWIDE                             Curt Cleaver                          PRECINCT 106                                           01 
01010040008000000000000000000000000000000000000REP       US Senator COMAL COUNTYWIDE                             Curt Cleaver                          PRECINCT 201                                           01 
01010040009000000000000000000000000000000000000REP       US Senator COMAL COUNTYWIDE                             Curt Cleaver                          PRECINCT 202                                           01 
01010040010000001000000000001000000000000000000REP       US Senator COMAL COUNTYWIDE                             Curt Cleaver                          PRECINCT 203                                           01 
01010040011000005000003000001000001000000000000REP       US Senator COMAL COUNTYWIDE                             Curt Cleaver                          PRECINCT 204                                           01 
01010040012000004000003000001000000000000000000REP       US Senator COMAL COUNTYWIDE                             Curt Cleaver                          PRECINCT 205                                           01 
01010040013000001000000000001000000000000000000REP       US Senator COMAL COUNTYWIDE                             Curt Cleaver                          PRECINCT 206                                           01 
01010040014000003000002000001000000000000000000REP       US Senator COMAL COUNTYWIDE                             Curt Cleaver                          PRECINCT 301                                           01 
