01010010001002723          REGISTERED VOTERS - TOTAL                               REGISTERED VOTERS - TOTAL             #1 FAIRFIELD                                           00 
01010010002001530          REGISTERED VOTERS - TOTAL                               REGISTERED VOTERS - TOTAL             #2 FAIRFIELD                                           00 
01010010003000150          REGISTERED VOTERS - TOTAL                               REGISTERED VOTERS - TOTAL             #3 DONIE                                               00 
01010010004000322          REGISTERED VOTERS - TOTAL                               REGISTERED VOTERS - TOTAL             #4 COTTON GIN                                          00 
01010010005002120          REGISTERED VOTERS - TOTAL                               REGISTERED VOTERS - TOTAL             #5 TEAGUE                                              00 
01010010006000443          REGISTERED VOTERS - TOTAL                               REGISTERED VOTERS - TOTAL             #6 KIRVIN                                              00 
01010010007000794          REGISTERED VOTERS - TOTAL                               REGISTERED VOTERS - TOTAL             #7 WORTHAM                                             00 
01010010008000470          REGISTERED VOTERS - TOTAL                               REGISTERED VOTERS - TOTAL             #8 ST ELMO                                             00 
01010010009000475          REGISTERED VOTERS - TOTAL                               REGISTERED VOTERS - TOTAL             #9 TEAGUE                                              00 
01010010010000295          REGISTERED VOTERS - TOTAL                               REGISTERED VOTERS - TOTAL             #10 FREESTONE                                          00 
01010010011000618          REGISTERED VOTERS - TOTAL                               REGISTERED VOTERS - TOTAL             #11 BUTLER                                             00 
01010010012000149          REGISTERED VOTERS - TOTAL                               REGISTERED VOTERS - TOTAL             #12 LIBERTY                                            00 
01010010013000293          REGISTERED VOTERS - TOTAL                               REGISTERED VOTERS - TOTAL             #13 DEW                                                00 
01010010014000412          REGISTERED VOTERS - TOTAL                               REGISTERED VOTERS - TOTAL             #14 LANELY                                             00 
01010010015000279          REGISTERED VOTERS - TOTAL                               REGISTERED VOTERS - TOTAL             #15 STREETMAN COUNTY                                   00 
01020010001000000REP       REGISTERED VOTERS - REPUBLICAN PARTY                    REGISTERED VOTERS - REPUBLICAN PARTY  #1 FAIRFIELD                                           00 
01020010002000000REP       REGISTERED VOTERS - REPUBLICAN PARTY                    REGISTERED VOTERS - REPUBLICAN PARTY  #2 FAIRFIELD                                           00 
01020010003000000REP       REGISTERED VOTERS - REPUBLICAN PARTY                    REGISTERED VOTERS - REPUBLICAN PARTY  #3 DONIE                                               00 
01020010004000000REP       REGISTERED VOTERS - REPUBLICAN PARTY                    REGISTERED VOTERS - REPUBLICAN PARTY  #4 COTTON GIN                                          00 
01020010005000000REP       REGISTERED VOTERS - REPUBLICAN PARTY                    REGISTERED VOTERS - REPUBLICAN PARTY  #5 TEAGUE                                              00 
01020010006000000REP       REGISTERED VOTERS - REPUBLICAN PARTY                    REGISTERED VOTERS - REPUBLICAN PARTY  #6 KIRVIN                                              00 
01020010007000000REP       REGISTERED VOTERS - REPUBLICAN PARTY                    REGISTERED VOTERS - REPUBLICAN PARTY  #7 WORTHAM                                             00 
01020010008000000REP       REGISTERED VOTERS - REPUBLICAN PARTY                    REGISTERED VOTERS - REPUBLICAN PARTY  #8 ST ELMO                                             00 
01020010009000000REP       REGISTERED VOTERS - REPUBLICAN PARTY                    REGISTERED VOTERS - REPUBLICAN PARTY  #9 TEAGUE                                              00 
01020010010000000REP       REGISTERED VOTERS - REPUBLICAN PARTY                    REGISTERED VOTERS - REPUBLICAN PARTY  #10 FREESTONE                                          00 
01020010011000000REP       REGISTERED VOTERS - REPUBLICAN PARTY                    REGISTERED VOTERS - REPUBLICAN PARTY  #11 BUTLER                                             00 
01020010012000000REP       REGISTERED VOTERS - REPUBLICAN PARTY                    REGISTERED VOTERS - REPUBLICAN PARTY  #12 LIBERTY                                            00 
01020010013000000REP       REGISTERED VOTERS - REPUBLICAN PARTY                    REGISTERED VOTERS - REPUBLICAN PARTY  #13 DEW                                                00 
01020010014000000REP       REGISTERED VOTERS - REPUBLICAN PARTY                    REGISTERED VOTERS - REPUBLICAN PARTY  #14 LANELY                                             00 
01020010015000000REP       REGISTERED VOTERS - REPUBLICAN PARTY                    REGISTERED VOTERS - REPUBLICAN PARTY  #15 STREETMAN COUNTY                                   00 
01030010001000000DEM       REGISTERED VOTERS - DEMOCRATIC PARTY                    REGISTERED VOTERS - DEMOCRATIC PARTY  #1 FAIRFIELD                                           00 
01030010002000000DEM       REGISTERED VOTERS - DEMOCRATIC PARTY                    REGISTERED VOTERS - DEMOCRATIC PARTY  #2 FAIRFIELD                                           00 
01030010003000000DEM       REGISTERED VOTERS - DEMOCRATIC PARTY                    REGISTERED VOTERS - DEMOCRATIC PARTY  #3 DONIE                                               00 
01030010004000000DEM       REGISTERED VOTERS - DEMOCRATIC PARTY                    REGISTERED VOTERS - DEMOCRATIC PARTY  #4 COTTON GIN                                          00 
01030010005000000DEM       REGISTERED VOTERS - DEMOCRATIC PARTY                    REGISTERED VOTERS - DEMOCRATIC PARTY  #5 TEAGUE                                              00 
01030010006000000DEM       REGISTERED VOTERS - DEMOCRATIC PARTY                    REGISTERED VOTERS - DEMOCRATIC PARTY  #6 KIRVIN                                              00 
01030010007000000DEM       REGISTERED VOTERS - DEMOCRATIC PARTY                    REGISTERED VOTERS - DEMOCRATIC PARTY  #7 WORTHAM                                             00 
01030010008000000DEM       REGISTERED VOTERS - DEMOCRATIC PARTY                    REGISTERED VOTERS - DEMOCRATIC PARTY  #8 ST ELMO                                             00 
01030010009000000DEM       REGISTERED VOTERS - DEMOCRATIC PARTY                    REGISTERED VOTERS - DEMOCRATIC PARTY  #9 TEAGUE                                              00 
01030010010000000DEM       REGISTERED VOTERS - DEMOCRATIC PARTY                    REGISTERED VOTERS - DEMOCRATIC PARTY  #10 FREESTONE                                          00 
01030010011000000DEM       REGISTERED VOTERS - DEMOCRATIC PARTY                    REGISTERED VOTERS - DEMOCRATIC PARTY  #11 BUTLER                                             00 
01030010012000000DEM       REGISTERED VOTERS - DEMOCRATIC PARTY                    REGISTERED VOTERS - DEMOCRATIC PARTY  #12 LIBERTY                                            00 
01030010013000000DEM       REGISTERED VOTERS - DEMOCRATIC PARTY                    REGISTERED VOTERS - DEMOCRATIC PARTY  #13 DEW                                                00 
01030010014000000DEM       REGISTERED VOTERS - DEMOCRATIC PARTY                    REGISTERED VOTERS - DEMOCRATIC PARTY  #14 LANELY                                             00 
01030010015000000DEM       REGISTERED VOTERS - DEMOCRATIC PARTY                    REGISTERED VOTERS - DEMOCRATIC PARTY  #15 STREETMAN COUNTY                                   00 
01040010001000813          BALLOTS CAST - TOTAL                                    BALLOTS CAST - TOTAL                  #1 FAIRFIELD                                           00 
01040010002000485          BALLOTS CAST - TOTAL                                    BALLOTS CAST - TOTAL                  #2 FAIRFIELD                                           00 
01040010003000037          BALLOTS CAST - TOTAL                                    BALLOTS CAST - TOTAL                  #3 DONIE                                               00 
01040010004000077          BALLOTS CAST - TOTAL                                    BALLOTS CAST - TOTAL                  #4 COTTON GIN                                          00 
01040010005000389          BALLOTS CAST - TOTAL                                    BALLOTS CAST - TOTAL                  #5 TEAGUE                                              00 
01040010006000149          BALLOTS CAST - TOTAL                                    BALLOTS CAST - TOTAL                  #6 KIRVIN                                              00 
01040010007000176          BALLOTS CAST - TOTAL                                    BALLOTS CAST - TOTAL                  #7 WORTHAM                                             00 
01040010008000133          BALLOTS CAST - TOTAL                                    BALLOTS CAST - TOTAL                  #8 ST ELMO                                             00 
01040010009000121          BALLOTS CAST - TOTAL                                    BALLOTS CAST - TOTAL                  #9 TEAGUE                                              00 
01040010010000102          BALLOTS CAST - TOTAL                                    BALLOTS CAST - TOTAL                  #10 FREESTONE                                          00 
01040010011000228          BALLOTS CAST - TOTAL                                    BALLOTS CAST - TOTAL                  #11 BUTLER                                             00 
01040010012000030          BALLOTS CAST - TOTAL                                    BALLOTS CAST - TOTAL                  #12 LIBERTY                                            00 
01040010013000098          BALLOTS CAST - TOTAL                                    BALLOTS CAST - TOTAL                  #13 DEW                                                00 
01040010014000145          BALLOTS CAST - TOTAL                                    BALLOTS CAST - TOTAL                  #14 LANELY                                             00 
01040010015000066          BALLOTS CAST - TOTAL                                    BALLOTS CAST - TOTAL                  #15 STREETMAN COUNTY                                   00 
01050010001000711REP       BALLOTS CAST - REPUBLICAN PARTY                         BALLOTS CAST - REPUBLICAN PARTY       #1 FAIRFIELD                                           00 
01050010002000271REP       BALLOTS CAST - REPUBLICAN PARTY                         BALLOTS CAST - REPUBLICAN PARTY       #2 FAIRFIELD                                           00 
01050010003000036REP       BALLOTS CAST - REPUBLICAN PARTY                         BALLOTS CAST - REPUBLICAN PARTY       #3 DONIE                                               00 
01050010004000059REP       BALLOTS CAST - REPUBLICAN PARTY                         BALLOTS CAST - REPUBLICAN PARTY       #4 COTTON GIN                                          00 
01050010005000299REP       BALLOTS CAST - REPUBLICAN PARTY                         BALLOTS CAST - REPUBLICAN PARTY       #5 TEAGUE                                              00 
01050010006000118REP       BALLOTS CAST - REPUBLICAN PARTY                         BALLOTS CAST - REPUBLICAN PARTY       #6 KIRVIN                                              00 
01050010007000131REP       BALLOTS CAST - REPUBLICAN PARTY                         BALLOTS CAST - REPUBLICAN PARTY       #7 WORTHAM                                             00 
01050010008000127REP       BALLOTS CAST - REPUBLICAN PARTY                         BALLOTS CAST - REPUBLICAN PARTY       #8 ST ELMO                                             00 
01050010009000105REP       BALLOTS CAST - REPUBLICAN PARTY                         BALLOTS CAST - REPUBLICAN PARTY       #9 TEAGUE                                              00 
01050010010000091REP       BALLOTS CAST - REPUBLICAN PARTY                         BALLOTS CAST - REPUBLICAN PARTY       #10 FREESTONE                                          00 
01050010011000078REP       BALLOTS CAST - REPUBLICAN PARTY                         BALLOTS CAST - REPUBLICAN PARTY       #11 BUTLER                                             00 
01050010012000019REP       BALLOTS CAST - REPUBLICAN PARTY                         BALLOTS CAST - REPUBLICAN PARTY       #12 LIBERTY                                            00 
01050010013000077REP       BALLOTS CAST - REPUBLICAN PARTY                         BALLOTS CAST - REPUBLICAN PARTY       #13 DEW                                                00 
01050010014000103REP       BALLOTS CAST - REPUBLICAN PARTY                         BALLOTS CAST - REPUBLICAN PARTY       #14 LANELY                                             00 
01050010015000051REP       BALLOTS CAST - REPUBLICAN PARTY                         BALLOTS CAST - REPUBLICAN PARTY       #15 STREETMAN COUNTY                                   00 
01060010001000102DEM       BALLOTS CAST - DEMOCRATIC PARTY                         BALLOTS CAST - DEMOCRATIC PARTY       #1 FAIRFIELD                                           00 
01060010002000214DEM       BALLOTS CAST - DEMOCRATIC PARTY                         BALLOTS CAST - DEMOCRATIC PARTY       #2 FAIRFIELD                                           00 
01060010003000005DEM       BALLOTS CAST - DEMOCRATIC PARTY                         BALLOTS CAST - DEMOCRATIC PARTY       #3 DONIE                                               00 
01060010004000016DEM       BALLOTS CAST - DEMOCRATIC PARTY                         BALLOTS CAST - DEMOCRATIC PARTY       #4 COTTON GIN                                          00 
01060010005000090DEM       BALLOTS CAST - DEMOCRATIC PARTY                         BALLOTS CAST - DEMOCRATIC PARTY       #5 TEAGUE                                              00 
01060010006000031DEM       BALLOTS CAST - DEMOCRATIC PARTY                         BALLOTS CAST - DEMOCRATIC PARTY       #6 KIRVIN                                              00 
01060010007000045DEM       BALLOTS CAST - DEMOCRATIC PARTY                         BALLOTS CAST - DEMOCRATIC PARTY       #7 WORTHAM                                             00 
01060010008000006DEM       BALLOTS CAST - DEMOCRATIC PARTY                         BALLOTS CAST - DEMOCRATIC PARTY       #8 ST ELMO                                             00 
01060010009000016DEM       BALLOTS CAST - DEMOCRATIC PARTY                         BALLOTS CAST - DEMOCRATIC PARTY       #9 TEAGUE                                              00 
01060010010000010DEM       BALLOTS CAST - DEMOCRATIC PARTY                         BALLOTS CAST - DEMOCRATIC PARTY       #10 FREESTONE                                          00 
01060010011000150DEM       BALLOTS CAST - DEMOCRATIC PARTY                         BALLOTS CAST - DEMOCRATIC PARTY       #11 BUTLER                                             00 
01060010012000011DEM       BALLOTS CAST - DEMOCRATIC PARTY                         BALLOTS CAST - DEMOCRATIC PARTY       #12 LIBERTY                                            00 
01060010013000021DEM       BALLOTS CAST - DEMOCRATIC PARTY                         BALLOTS CAST - DEMOCRATIC PARTY       #13 DEW                                                00 
01060010014000042DEM       BALLOTS CAST - DEMOCRATIC PARTY                         BALLOTS CAST - DEMOCRATIC PARTY       #14 LANELY                                             00 
01060010015000015DEM       BALLOTS CAST - DEMOCRATIC PARTY                         BALLOTS CAST - DEMOCRATIC PARTY       #15 STREETMAN COUNTY                                   00 
01070010001000532REP       President FREESTONE COUNTYWIDE                          Mitt Romney                           #1 FAIRFIELD                                           01 
01070010002000182REP       President FREESTONE COUNTYWIDE                          Mitt Romney                           #2 FAIRFIELD                                           01 
01070010003000026REP       President FREESTONE COUNTYWIDE                          Mitt Romney                           #3 DONIE                                               01 
01070010004000046REP       President FREESTONE COUNTYWIDE                          Mitt Romney                           #4 COTTON GIN                                          01 
01070010005000209REP       President FREESTONE COUNTYWIDE                          Mitt Romney                           #5 TEAGUE                                              01 
01070010006000077REP       President FREESTONE COUNTYWIDE                          Mitt Romney                           #6 KIRVIN                                              01 
01070010007000097REP       President FREESTONE COUNTYWIDE                          Mitt Romney                           #7 WORTHAM                                             01 
01070010008000103REP       President FREESTONE COUNTYWIDE                          Mitt Romney                           #8 ST ELMO                                             01 
01070010009000078REP       President FREESTONE COUNTYWIDE                          Mitt Romney                           #9 TEAGUE                                              01 
01070010010000067REP       President FREESTONE COUNTYWIDE                          Mitt Romney                           #10 FREESTONE                                          01 
01070010011000054REP       President FREESTONE COUNTYWIDE                          Mitt Romney                           #11 BUTLER                                             01 
01070010012000015REP       President FREESTONE COUNTYWIDE                          Mitt Romney                           #12 LIBERTY                                            01 
01070010013000051REP       President FREESTONE COUNTYWIDE                          Mitt Romney                           #13 DEW                                                01 
01070010014000073REP       President FREESTONE COUNTYWIDE                          Mitt Romney                           #14 LANELY                                             01 
01070010015000040REP       President FREESTONE COUNTYWIDE                          Mitt Romney                           #15 STREETMAN COUNTY                                   01 
01070020001000004REP       President FREESTONE COUNTYWIDE                          Michele Bachmann                      #1 FAIRFIELD                                           01 
01070020002000001REP       President FREESTONE COUNTYWIDE                          Michele Bachmann                      #2 FAIRFIELD                                           01 
01070020003000000REP       President FREESTONE COUNTYWIDE                          Michele Bachmann                      #3 DONIE                                               01 
01070020004000001REP       President FREESTONE COUNTYWIDE                          Michele Bachmann                      #4 COTTON GIN                                          01 
01070020005000002REP       President FREESTONE COUNTYWIDE                          Michele Bachmann                      #5 TEAGUE                                              01 
01070020006000000REP       President FREESTONE COUNTYWIDE                          Michele Bachmann                      #6 KIRVIN                                              01 
01070020007000001REP       President FREESTONE COUNTYWIDE                          Michele Bachmann                      #7 WORTHAM                                             01 
01070020008000002REP       President FREESTONE COUNTYWIDE                          Michele Bachmann                      #8 ST ELMO                                             01 
01070020009000000REP       President FREESTONE COUNTYWIDE                          Michele Bachmann                      #9 TEAGUE                                              01 
01070020010000000REP       President FREESTONE COUNTYWIDE                          Michele Bachmann                      #10 FREESTONE                                          01 
01070020011000001REP       President FREESTONE COUNTYWIDE                          Michele Bachmann                      #11 BUTLER                                             01 
01070020012000000REP       President FREESTONE COUNTYWIDE                          Michele Bachmann                      #12 LIBERTY                                            01 
01070020013000000REP       President FREESTONE COUNTYWIDE                          Michele Bachmann                      #13 DEW                                                01 
01070020014000000REP       President FREESTONE COUNTYWIDE                          Michele Bachmann                      #14 LANELY                                             01 
01070020015000000REP       President FREESTONE COUNTYWIDE                          Michele Bachmann                      #15 STREETMAN COUNTY                                   01 
01070030001000002REP       President FREESTONE COUNTYWIDE                          Charles "Buddy" Roemer                #1 FAIRFIELD                                           01 
01070030002000001REP       President FREESTONE COUNTYWIDE                          Charles "Buddy" Roemer                #2 FAIRFIELD                                           01 
01070030003000000REP       President FREESTONE COUNTYWIDE                          Charles "Buddy" Roemer                #3 DONIE                                               01 
01070030004000000REP       President FREESTONE COUNTYWIDE                          Charles "Buddy" Roemer                #4 COTTON GIN                                          01 
01070030005000001REP       President FREESTONE COUNTYWIDE                          Charles "Buddy" Roemer                #5 TEAGUE                                              01 
01070030006000001REP       President FREESTONE COUNTYWIDE                          Charles "Buddy" Roemer                #6 KIRVIN                                              01 
01070030007000001REP       President FREESTONE COUNTYWIDE                          Charles "Buddy" Roemer                #7 WORTHAM                                             01 
01070030008000000REP       President FREESTONE COUNTYWIDE                          Charles "Buddy" Roemer                #8 ST ELMO                                             01 
01070030009000000REP       President FREESTONE COUNTYWIDE                          Charles "Buddy" Roemer                #9 TEAGUE                                              01 
01070030010000000REP       President FREESTONE COUNTYWIDE                          Charles "Buddy" Roemer                #10 FREESTONE                                          01 
01070030011000000REP       President FREESTONE COUNTYWIDE                          Charles "Buddy" Roemer                #11 BUTLER                                             01 
01070030012000000REP       President FREESTONE COUNTYWIDE                          Charles "Buddy" Roemer                #12 LIBERTY                                            01 
01070030013000000REP       President FREESTONE COUNTYWIDE                          Charles "Buddy" Roemer                #13 DEW                                                01 
01070030014000001REP       President FREESTONE COUNTYWIDE                          Charles "Buddy" Roemer                #14 LANELY                                             01 
01070030015000000REP       President FREESTONE COUNTYWIDE                          Charles "Buddy" Roemer                #15 STREETMAN COUNTY                                   01 
01070040001000001REP       President FREESTONE COUNTYWIDE                          Jon Huntsman                          #1 FAIRFIELD                                           01 
01070040002000001REP       President FREESTONE COUNTYWIDE                          Jon Huntsman                          #2 FAIRFIELD                                           01 
01070040003000000REP       President FREESTONE COUNTYWIDE                          Jon Huntsman                          #3 DONIE                                               01 
01070040004000001REP       President FREESTONE COUNTYWIDE                          Jon Huntsman                          #4 COTTON GIN                                          01 
01070040005000001REP       President FREESTONE COUNTYWIDE                          Jon Huntsman                          #5 TEAGUE                                              01 
01070040006000000REP       President FREESTONE COUNTYWIDE                          Jon Huntsman                          #6 KIRVIN                                              01 
01070040007000000REP       President FREESTONE COUNTYWIDE                          Jon Huntsman                          #7 WORTHAM                                             01 
01070040008000000REP       President FREESTONE COUNTYWIDE                          Jon Huntsman                          #8 ST ELMO                                             01 
01070040009000000REP       President FREESTONE COUNTYWIDE                          Jon Huntsman                          #9 TEAGUE                                              01 
01070040010000001REP       President FREESTONE COUNTYWIDE                          Jon Huntsman                          #10 FREESTONE                                          01 
01070040011000000REP       President FREESTONE COUNTYWIDE                          Jon Huntsman                          #11 BUTLER                                             01 
01070040012000000REP       President FREESTONE COUNTYWIDE                          Jon Huntsman                          #12 LIBERTY                                            01 
01070040013000001REP       President FREESTONE COUNTYWIDE                          Jon Huntsman                          #13 DEW                                                01 
01070040014000000REP       President FREESTONE COUNTYWIDE                          Jon Huntsman                          #14 LANELY                                             01 
01070040015000000REP       President FREESTONE COUNTYWIDE                          Jon Huntsman                          #15 STREETMAN COUNTY                                   01 
01070050001000047REP       President FREESTONE COUNTYWIDE                          Rick Santorum                         #1 FAIRFIELD                                           01 
01070050002000027REP       President FREESTONE COUNTYWIDE                          Rick Santorum                         #2 FAIRFIELD                                           01 
01070050003000003REP       President FREESTONE COUNTYWIDE                          Rick Santorum                         #3 DONIE                                               01 
01070050004000007REP       President FREESTONE COUNTYWIDE                          Rick Santorum                         #4 COTTON GIN                                          01 
01070050005000022REP       President FREESTONE COUNTYWIDE                          Rick Santorum                         #5 TEAGUE                                              01 
01070050006000011REP       President FREESTONE COUNTYWIDE                          Rick Santorum                         #6 KIRVIN                                              01 
01070050007000008REP       President FREESTONE COUNTYWIDE                          Rick Santorum                         #7 WORTHAM                                             01 
01070050008000006REP       President FREESTONE COUNTYWIDE                          Rick Santorum                         #8 ST ELMO                                             01 
01070050009000005REP       President FREESTONE COUNTYWIDE                          Rick Santorum                         #9 TEAGUE                                              01 
01070050010000006REP       President FREESTONE COUNTYWIDE                          Rick Santorum                         #10 FREESTONE                                          01 
01070050011000003REP       President FREESTONE COUNTYWIDE                          Rick Santorum                         #11 BUTLER                                             01 
01070050012000001REP       President FREESTONE COUNTYWIDE                          Rick Santorum                         #12 LIBERTY                                            01 
01070050013000005REP       President FREESTONE COUNTYWIDE                          Rick Santorum                         #13 DEW                                                01 
01070050014000003REP       President FREESTONE COUNTYWIDE                          Rick Santorum                         #14 LANELY                                             01 
01070050015000001REP       President FREESTONE COUNTYWIDE                          Rick Santorum                         #15 STREETMAN COUNTY                                   01 
01070060001000058REP       President FREESTONE COUNTYWIDE                          Ron Paul                              #1 FAIRFIELD                                           01 
01070060002000027REP       President FREESTONE COUNTYWIDE                          Ron Paul                              #2 FAIRFIELD                                           01 
01070060003000005REP       President FREESTONE COUNTYWIDE                          Ron Paul                              #3 DONIE                                               01 
01070060004000004REP       President FREESTONE COUNTYWIDE                          Ron Paul                              #4 COTTON GIN                                          01 
01070060005000031REP       President FREESTONE COUNTYWIDE                          Ron Paul                              #5 TEAGUE                                              01 
01070060006000010REP       President FREESTONE COUNTYWIDE                          Ron Paul                              #6 KIRVIN                                              01 
01070060007000012REP       President FREESTONE COUNTYWIDE                          Ron Paul                              #7 WORTHAM                                             01 
01070060008000008REP       President FREESTONE COUNTYWIDE                          Ron Paul                              #8 ST ELMO                                             01 
01070060009000007REP       President FREESTONE COUNTYWIDE                          Ron Paul                              #9 TEAGUE                                              01 
01070060010000010REP       President FREESTONE COUNTYWIDE                          Ron Paul                              #10 FREESTONE                                          01 
01070060011000007REP       President FREESTONE COUNTYWIDE                          Ron Paul                              #11 BUTLER                                             01 
01070060012000001REP       President FREESTONE COUNTYWIDE                          Ron Paul                              #12 LIBERTY                                            01 
01070060013000014REP       President FREESTONE COUNTYWIDE                          Ron Paul                              #13 DEW                                                01 
01070060014000012REP       President FREESTONE COUNTYWIDE                          Ron Paul                              #14 LANELY                                             01 
01070060015000006REP       President FREESTONE COUNTYWIDE                          Ron Paul                              #15 STREETMAN COUNTY                                   01 
01070070001000003REP       President FREESTONE COUNTYWIDE                          John Davis                            #1 FAIRFIELD                                           01 
01070070002000000REP       President FREESTONE COUNTYWIDE                          John Davis                            #2 FAIRFIELD                                           01 
01070070003000000REP       President FREESTONE COUNTYWIDE                          John Davis                            #3 DONIE                                               01 
01070070004000000REP       President FREESTONE COUNTYWIDE                          John Davis                            #4 COTTON GIN                                          01 
01070070005000000REP       President FREESTONE COUNTYWIDE                          John Davis                            #5 TEAGUE                                              01 
01070070006000001REP       President FREESTONE COUNTYWIDE                          John Davis                            #6 KIRVIN                                              01 
01070070007000002REP       President FREESTONE COUNTYWIDE                          John Davis                            #7 WORTHAM                                             01 
01070070008000000REP       President FREESTONE COUNTYWIDE                          John Davis                            #8 ST ELMO                                             01 
01070070009000001REP       President FREESTONE COUNTYWIDE                          John Davis                            #9 TEAGUE                                              01 
01070070010000000REP       President FREESTONE COUNTYWIDE                          John Davis                            #10 FREESTONE                                          01 
01070070011000000REP       President FREESTONE COUNTYWIDE                          John Davis                            #11 BUTLER                                             01 
01070070012000000REP       President FREESTONE COUNTYWIDE                          John Davis                            #12 LIBERTY                                            01 
01070070013000000REP       President FREESTONE COUNTYWIDE                          John Davis                            #13 DEW                                                01 
01070070014000000REP       President FREESTONE COUNTYWIDE                          John Davis                            #14 LANELY                                             01 
01070070015000000REP       President FREESTONE COUNTYWIDE                          John Davis                            #15 STREETMAN COUNTY                                   01 
01070080001000025REP       President FREESTONE COUNTYWIDE                          Newt Gingrich                         #1 FAIRFIELD                                           01 
01070080002000019REP       President FREESTONE COUNTYWIDE                          Newt Gingrich                         #2 FAIRFIELD                                           01 
01070080003000001REP       President FREESTONE COUNTYWIDE                          Newt Gingrich                         #3 DONIE                                               01 
01070080004000000REP       President FREESTONE COUNTYWIDE                          Newt Gingrich                         #4 COTTON GIN                                          01 
01070080005000012REP       President FREESTONE COUNTYWIDE                          Newt Gingrich                         #5 TEAGUE                                              01 
01070080006000003REP       President FREESTONE COUNTYWIDE                          Newt Gingrich                         #6 KIRVIN                                              01 
01070080007000004REP       President FREESTONE COUNTYWIDE                          Newt Gingrich                         #7 WORTHAM                                             01 
01070080008000007REP       President FREESTONE COUNTYWIDE                          Newt Gingrich                         #8 ST ELMO                                             01 
01070080009000004REP       President FREESTONE COUNTYWIDE                          Newt Gingrich                         #9 TEAGUE                                              01 
01070080010000004REP       President FREESTONE COUNTYWIDE                          Newt Gingrich                         #10 FREESTONE                                          01 
01070080011000003REP       President FREESTONE COUNTYWIDE                          Newt Gingrich                         #11 BUTLER                                             01 
01070080012000000REP       President FREESTONE COUNTYWIDE                          Newt Gingrich                         #12 LIBERTY                                            01 
01070080013000003REP       President FREESTONE COUNTYWIDE                          Newt Gingrich                         #13 DEW                                                01 
01070080014000006REP       President FREESTONE COUNTYWIDE                          Newt Gingrich                         #14 LANELY                                             01 
01070080015000001REP       President FREESTONE COUNTYWIDE                          Newt Gingrich                         #15 STREETMAN COUNTY                                   01 
01070090001000026REP       President FREESTONE COUNTYWIDE                          Uncommitted                           #1 FAIRFIELD                                           01 
01070090002000007REP       President FREESTONE COUNTYWIDE                          Uncommitted                           #2 FAIRFIELD                                           01 
01070090003000001REP       President FREESTONE COUNTYWIDE                          Uncommitted                           #3 DONIE                                               01 
01070090004000001REP       President FREESTONE COUNTYWIDE                          Uncommitted                           #4 COTTON GIN                                          01 
01070090005000010REP       President FREESTONE COUNTYWIDE                          Uncommitted                           #5 TEAGUE                                              01 
01070090006000007REP       President FREESTONE COUNTYWIDE                          Uncommitted                           #6 KIRVIN                                              01 
01070090007000005REP       President FREESTONE COUNTYWIDE                          Uncommitted                           #7 WORTHAM                                             01 
01070090008000001REP       President FREESTONE COUNTYWIDE                          Uncommitted                           #8 ST ELMO                                             01 
01070090009000003REP       President FREESTONE COUNTYWIDE                          Uncommitted                           #9 TEAGUE                                              01 
01070090010000002REP       President FREESTONE COUNTYWIDE                          Uncommitted                           #10 FREESTONE                                          01 
01070090011000007REP       President FREESTONE COUNTYWIDE                          Uncommitted                           #11 BUTLER                                             01 
01070090012000002REP       President FREESTONE COUNTYWIDE                          Uncommitted                           #12 LIBERTY                                            01 
01070090013000001REP       President FREESTONE COUNTYWIDE                          Uncommitted                           #13 DEW                                                01 
01070090014000004REP       President FREESTONE COUNTYWIDE                          Uncommitted                           #14 LANELY                                             01 
01070090015000001REP       President FREESTONE COUNTYWIDE                          Uncommitted                           #15 STREETMAN COUNTY                                   01 
01070100001000000REP       President FREESTONE COUNTYWIDE                          OVER VOTES                            #1 FAIRFIELD                                           01 
01070100002000000REP       President FREESTONE COUNTYWIDE                          OVER VOTES                            #2 FAIRFIELD                                           01 
01070100003000000REP       President FREESTONE COUNTYWIDE                          OVER VOTES                            #3 DONIE                                               01 
01070100004000000REP       President FREESTONE COUNTYWIDE                          OVER VOTES                            #4 COTTON GIN                                          01 
01070100005000000REP       President FREESTONE COUNTYWIDE                          OVER VOTES                            #5 TEAGUE                                              01 
01070100006000000REP       President FREESTONE COUNTYWIDE                          OVER VOTES                            #6 KIRVIN                                              01 
01070100007000000REP       President FREESTONE COUNTYWIDE                          OVER VOTES                            #7 WORTHAM                                             01 
01070100008000000REP       President FREESTONE COUNTYWIDE                          OVER VOTES                            #8 ST ELMO                                             01 
01070100009000000REP       President FREESTONE COUNTYWIDE                          OVER VOTES                            #9 TEAGUE                                              01 
01070100010000000REP       President FREESTONE COUNTYWIDE                          OVER VOTES                            #10 FREESTONE                                          01 
01070100011000000REP       President FREESTONE COUNTYWIDE                          OVER VOTES                            #11 BUTLER                                             01 
01070100012000000REP       President FREESTONE COUNTYWIDE                          OVER VOTES                            #12 LIBERTY                                            01 
01070100013000000REP       President FREESTONE COUNTYWIDE                          OVER VOTES                            #13 DEW                                                01 
01070100014000000REP       President FREESTONE COUNTYWIDE                          OVER VOTES                            #14 LANELY                                             01 
01070100015000000REP       President FREESTONE COUNTYWIDE                          OVER VOTES                            #15 STREETMAN COUNTY                                   01 
01070110001000013REP       President FREESTONE COUNTYWIDE                          UNDER VOTES                           #1 FAIRFIELD                                           01 
01070110002000006REP       President FREESTONE COUNTYWIDE                          UNDER VOTES                           #2 FAIRFIELD                                           01 
01070110003000000REP       President FREESTONE COUNTYWIDE                          UNDER VOTES                           #3 DONIE                                               01 
01070110004000001REP       President FREESTONE COUNTYWIDE                          UNDER VOTES                           #4 COTTON GIN                                          01 
01070110005000011REP       President FREESTONE COUNTYWIDE                          UNDER VOTES                           #5 TEAGUE                                              01 
01070110006000008REP       President FREESTONE COUNTYWIDE                          UNDER VOTES                           #6 KIRVIN                                              01 
01070110007000001REP       President FREESTONE COUNTYWIDE                          UNDER VOTES                           #7 WORTHAM                                             01 
01070110008000000REP       President FREESTONE COUNTYWIDE                          UNDER VOTES                           #8 ST ELMO                                             01 
01070110009000007REP       President FREESTONE COUNTYWIDE                          UNDER VOTES                           #9 TEAGUE                                              01 
01070110010000002REP       President FREESTONE COUNTYWIDE                          UNDER VOTES                           #10 FREESTONE                                          01 
01070110011000003REP       President FREESTONE COUNTYWIDE                          UNDER VOTES                           #11 BUTLER                                             01 
01070110012000000REP       President FREESTONE COUNTYWIDE                          UNDER VOTES                           #12 LIBERTY                                            01 
01070110013000002REP       President FREESTONE COUNTYWIDE                          UNDER VOTES                           #13 DEW                                                01 
01070110014000004REP       President FREESTONE COUNTYWIDE                          UNDER VOTES                           #14 LANELY                                             01 
01070110015000002REP       President FREESTONE COUNTYWIDE                          UNDER VOTES                           #15 STREETMAN COUNTY                                   01 
01080010001000049REP       US Senator FREESTONE COUNTYWIDE                         Lela Pittenger                        #1 FAIRFIELD                                           01 
01080010002000022REP       US Senator FREESTONE COUNTYWIDE                         Lela Pittenger                        #2 FAIRFIELD                                           01 
01080010003000001REP       US Senator FREESTONE COUNTYWIDE                         Lela Pittenger                        #3 DONIE                                               01 
01080010004000002REP       US Senator FREESTONE COUNTYWIDE                         Lela Pittenger                        #4 COTTON GIN                                          01 
01080010005000009REP       US Senator FREESTONE COUNTYWIDE                         Lela Pittenger                        #5 TEAGUE                                              01 
01080010006000008REP       US Senator FREESTONE COUNTYWIDE                         Lela Pittenger                        #6 KIRVIN                                              01 
01080010007000002REP       US Senator FREESTONE COUNTYWIDE                         Lela Pittenger                        #7 WORTHAM                                             01 
01080010008000003REP       US Senator FREESTONE COUNTYWIDE                         Lela Pittenger                        #8 ST ELMO                                             01 
01080010009000003REP       US Senator FREESTONE COUNTYWIDE                         Lela Pittenger                        #9 TEAGUE                                              01 
01080010010000000REP       US Senator FREESTONE COUNTYWIDE                         Lela Pittenger                        #10 FREESTONE                                          01 
01080010011000005REP       US Senator FREESTONE COUNTYWIDE                         Lela Pittenger                        #11 BUTLER                                             01 
01080010012000001REP       US Senator FREESTONE COUNTYWIDE                         Lela Pittenger                        #12 LIBERTY                                            01 
01080010013000005REP       US Senator FREESTONE COUNTYWIDE                         Lela Pittenger                        #13 DEW                                                01 
01080010014000005REP       US Senator FREESTONE COUNTYWIDE                         Lela Pittenger                        #14 LANELY                                             01 
01080010015000003REP       US Senator FREESTONE COUNTYWIDE                         Lela Pittenger                        #15 STREETMAN COUNTY                                   01 
01080020001000002REP       US Senator FREESTONE COUNTYWIDE                         Joe Agris                             #1 FAIRFIELD                                           01 
01080020002000001REP       US Senator FREESTONE COUNTYWIDE                         Joe Agris                             #2 FAIRFIELD                                           01 
01080020003000000REP       US Senator FREESTONE COUNTYWIDE                         Joe Agris                             #3 DONIE                                               01 
01080020004000000REP       US Senator FREESTONE COUNTYWIDE                         Joe Agris                             #4 COTTON GIN                                          01 
01080020005000001REP       US Senator FREESTONE COUNTYWIDE                         Joe Agris                             #5 TEAGUE                                              01 
01080020006000001REP       US Senator FREESTONE COUNTYWIDE                         Joe Agris                             #6 KIRVIN                                              01 
01080020007000003REP       US Senator FREESTONE COUNTYWIDE                         Joe Agris                             #7 WORTHAM                                             01 
01080020008000000REP       US Senator FREESTONE COUNTYWIDE                         Joe Agris                             #8 ST ELMO                                             01 
01080020009000000REP       US Senator FREESTONE COUNTYWIDE                         Joe Agris                             #9 TEAGUE                                              01 
01080020010000000REP       US Senator FREESTONE COUNTYWIDE                         Joe Agris                             #10 FREESTONE                                          01 
01080020011000001REP       US Senator FREESTONE COUNTYWIDE                         Joe Agris                             #11 BUTLER                                             01 
01080020012000000REP       US Senator FREESTONE COUNTYWIDE                         Joe Agris                             #12 LIBERTY                                            01 
01080020013000000REP       US Senator FREESTONE COUNTYWIDE                         Joe Agris                             #13 DEW                                                01 
01080020014000000REP       US Senator FREESTONE COUNTYWIDE                         Joe Agris                             #14 LANELY                                             01 
01080020015000000REP       US Senator FREESTONE COUNTYWIDE                         Joe Agris                             #15 STREETMAN COUNTY                                   01 
01080030001000003REP       US Senator FREESTONE COUNTYWIDE                         Glenn Addison                         #1 FAIRFIELD                                           01 
01080030002000003REP       US Senator FREESTONE COUNTYWIDE                         Glenn Addison                         #2 FAIRFIELD                                           01 
01080030003000001REP       US Senator FREESTONE COUNTYWIDE                         Glenn Addison                         #3 DONIE                                               01 
01080030004000000REP       US Senator FREESTONE COUNTYWIDE                         Glenn Addison                         #4 COTTON GIN                                          01 
01080030005000003REP       US Senator FREESTONE COUNTYWIDE                         Glenn Addison                         #5 TEAGUE                                              01 
01080030006000000REP       US Senator FREESTONE COUNTYWIDE                         Glenn Addison                         #6 KIRVIN                                              01 
01080030007000002REP       US Senator FREESTONE COUNTYWIDE                         Glenn Addison                         #7 WORTHAM                                             01 
01080030008000001REP       US Senator FREESTONE COUNTYWIDE                         Glenn Addison                         #8 ST ELMO                                             01 
01080030009000001REP       US Senator FREESTONE COUNTYWIDE                         Glenn Addison                         #9 TEAGUE                                              01 
01080030010000003REP       US Senator FREESTONE COUNTYWIDE                         Glenn Addison                         #10 FREESTONE                                          01 
01080030011000002REP       US Senator FREESTONE COUNTYWIDE                         Glenn Addison                         #11 BUTLER                                             01 
01080030012000000REP       US Senator FREESTONE COUNTYWIDE                         Glenn Addison                         #12 LIBERTY                                            01 
01080030013000003REP       US Senator FREESTONE COUNTYWIDE                         Glenn Addison                         #13 DEW                                                01 
01080030014000000REP       US Senator FREESTONE COUNTYWIDE                         Glenn Addison                         #14 LANELY                                             01 
01080030015000002REP       US Senator FREESTONE COUNTYWIDE                         Glenn Addison                         #15 STREETMAN COUNTY                                   01 
01080040001000046REP       US Senator FREESTONE COUNTYWIDE                         Craig James                           #1 FAIRFIELD                                           01 
01080040002000011REP       US Senator FREESTONE COUNTYWIDE                         Craig James                           #2 FAIRFIELD                                           01 
01080040003000002REP       US Senator FREESTONE COUNTYWIDE                         Craig James                           #3 DONIE                                               01 
01080040004000002REP       US Senator FREESTONE COUNTYWIDE                         Craig James                           #4 COTTON GIN                                          01 
01080040005000017REP       US Senator FREESTONE COUNTYWIDE                         Craig James                           #5 TEAGUE                                              01 
01080040006000008REP       US Senator FREESTONE COUNTYWIDE                         Craig James                           #6 KIRVIN                                              01 
01080040007000007REP       US Senator FREESTONE COUNTYWIDE                         Craig James                           #7 WORTHAM                                             01 
01080040008000001REP       US Senator FREESTONE COUNTYWIDE                         Craig James                           #8 ST ELMO                                             01 
01080040009000005REP       US Senator FREESTONE COUNTYWIDE                         Craig James                           #9 TEAGUE                                              01 
01080040010000006REP       US Senator FREESTONE COUNTYWIDE                         Craig James                           #10 FREESTONE                                          01 
01080040011000001REP       US Senator FREESTONE COUNTYWIDE                         Craig James                           #11 BUTLER                                             01 
01080040012000000REP       US Senator FREESTONE COUNTYWIDE                         Craig James                           #12 LIBERTY                                            01 
01080040013000003REP       US Senator FREESTONE COUNTYWIDE                         Craig James                           #13 DEW                                                01 
01080040014000005REP       US Senator FREESTONE COUNTYWIDE                         Craig James                           #14 LANELY                                             01 
01080040015000007REP       US Senator FREESTONE COUNTYWIDE                         Craig James                           #15 STREETMAN COUNTY                                   01 
01080050001000101REP       US Senator FREESTONE COUNTYWIDE                         Tom Leppert                           #1 FAIRFIELD                                           01 
01080050002000037REP       US Senator FREESTONE COUNTYWIDE                         Tom Leppert                           #2 FAIRFIELD                                           01 
01080050003000004REP       US Senator FREESTONE COUNTYWIDE                         Tom Leppert                           #3 DONIE                                               01 
01080050004000012REP       US Senator FREESTONE COUNTYWIDE                         Tom Leppert                           #4 COTTON GIN                                          01 
01080050005000043REP       US Senator FREESTONE COUNTYWIDE                         Tom Leppert                           #5 TEAGUE                                              01 
01080050006000013REP       US Senator FREESTONE COUNTYWIDE                         Tom Leppert                           #6 KIRVIN                                              01 
01080050007000019REP       US Senator FREESTONE COUNTYWIDE                         Tom Leppert                           #7 WORTHAM                                             01 
01080050008000026REP       US Senator FREESTONE COUNTYWIDE                         Tom Leppert                           #8 ST ELMO                                             01 
01080050009000012REP       US Senator FREESTONE COUNTYWIDE                         Tom Leppert                           #9 TEAGUE                                              01 
01080050010000015REP       US Senator FREESTONE COUNTYWIDE                         Tom Leppert                           #10 FREESTONE                                          01 
01080050011000012REP       US Senator FREESTONE COUNTYWIDE                         Tom Leppert                           #11 BUTLER                                             01 
01080050012000000REP       US Senator FREESTONE COUNTYWIDE                         Tom Leppert                           #12 LIBERTY                                            01 
01080050013000005REP       US Senator FREESTONE COUNTYWIDE                         Tom Leppert                           #13 DEW                                                01 
01080050014000022REP       US Senator FREESTONE COUNTYWIDE                         Tom Leppert                           #14 LANELY                                             01 
01080050015000008REP       US Senator FREESTONE COUNTYWIDE                         Tom Leppert                           #15 STREETMAN COUNTY                                   01 
01080060001000263REP       US Senator FREESTONE COUNTYWIDE                         David Dewhurst                        #1 FAIRFIELD                                           01 
01080060002000082REP       US Senator FREESTONE COUNTYWIDE                         David Dewhurst                        #2 FAIRFIELD                                           01 
01080060003000012REP       US Senator FREESTONE COUNTYWIDE                         David Dewhurst                        #3 DONIE                                               01 
01080060004000022REP       US Senator FREESTONE COUNTYWIDE                         David Dewhurst                        #4 COTTON GIN                                          01 
01080060005000129REP       US Senator FREESTONE COUNTYWIDE                         David Dewhurst                        #5 TEAGUE                                              01 
01080060006000039REP       US Senator FREESTONE COUNTYWIDE                         David Dewhurst                        #6 KIRVIN                                              01 
01080060007000056REP       US Senator FREESTONE COUNTYWIDE                         David Dewhurst                        #7 WORTHAM                                             01 
01080060008000053REP       US Senator FREESTONE COUNTYWIDE                         David Dewhurst                        #8 ST ELMO                                             01 
01080060009000030REP       US Senator FREESTONE COUNTYWIDE                         David Dewhurst                        #9 TEAGUE                                              01 
01080060010000040REP       US Senator FREESTONE COUNTYWIDE                         David Dewhurst                        #10 FREESTONE                                          01 
01080060011000026REP       US Senator FREESTONE COUNTYWIDE                         David Dewhurst                        #11 BUTLER                                             01 
01080060012000009REP       US Senator FREESTONE COUNTYWIDE                         David Dewhurst                        #12 LIBERTY                                            01 
01080060013000042REP       US Senator FREESTONE COUNTYWIDE                         David Dewhurst                        #13 DEW                                                01 
01080060014000038REP       US Senator FREESTONE COUNTYWIDE                         David Dewhurst                        #14 LANELY                                             01 
01080060015000017REP       US Senator FREESTONE COUNTYWIDE                         David Dewhurst                        #15 STREETMAN COUNTY                                   01 
01080070001000191REP       US Senator FREESTONE COUNTYWIDE                         Ted Cruz                              #1 FAIRFIELD                                           01 
01080070002000096REP       US Senator FREESTONE COUNTYWIDE                         Ted Cruz                              #2 FAIRFIELD                                           01 
01080070003000012REP       US Senator FREESTONE COUNTYWIDE                         Ted Cruz                              #3 DONIE                                               01 
01080070004000020REP       US Senator FREESTONE COUNTYWIDE                         Ted Cruz                              #4 COTTON GIN                                          01 
01080070005000064REP       US Senator FREESTONE COUNTYWIDE                         Ted Cruz                              #5 TEAGUE                                              01 
01080070006000035REP       US Senator FREESTONE COUNTYWIDE                         Ted Cruz                              #6 KIRVIN                                              01 
01080070007000030REP       US Senator FREESTONE COUNTYWIDE                         Ted Cruz                              #7 WORTHAM                                             01 
01080070008000040REP       US Senator FREESTONE COUNTYWIDE                         Ted Cruz                              #8 ST ELMO                                             01 
01080070009000034REP       US Senator FREESTONE COUNTYWIDE                         Ted Cruz                              #9 TEAGUE                                              01 
01080070010000024REP       US Senator FREESTONE COUNTYWIDE                         Ted Cruz                              #10 FREESTONE                                          01 
01080070011000025REP       US Senator FREESTONE COUNTYWIDE                         Ted Cruz                              #11 BUTLER                                             01 
01080070012000009REP       US Senator FREESTONE COUNTYWIDE                         Ted Cruz                              #12 LIBERTY                                            01 
01080070013000013REP       US Senator FREESTONE COUNTYWIDE                         Ted Cruz                              #13 DEW                                                01 
01080070014000022REP       US Senator FREESTONE COUNTYWIDE                         Ted Cruz                              #14 LANELY                                             01 
01080070015000010REP       US Senator FREESTONE COUNTYWIDE                         Ted Cruz                              #15 STREETMAN COUNTY                                   01 
01080080001000004REP       US Senator FREESTONE COUNTYWIDE                         Curt Cleaver                          #1 FAIRFIELD                                           01 
01080080002000001REP       US Senator FREESTONE COUNTYWIDE                         Curt Cleaver                          #2 FAIRFIELD                                           01 
01080080003000000REP       US Senator FREESTONE COUNTYWIDE                         Curt Cleaver                          #3 DONIE                                               01 
01080080004000000REP       US Senator FREESTONE COUNTYWIDE                         Curt Cleaver                          #4 COTTON GIN                                          01 
01080080005000000REP       US Senator FREESTONE COUNTYWIDE                         Curt Cleaver                          #5 TEAGUE                                              01 
01080080006000001REP       US Senator FREESTONE COUNTYWIDE                         Curt Cleaver                          #6 KIRVIN                                              01 
01080080007000000REP       US Senator FREESTONE COUNTYWIDE                         Curt Cleaver                          #7 WORTHAM                                             01 
01080080008000001REP       US Senator FREESTONE COUNTYWIDE                         Curt Cleaver                          #8 ST ELMO                                             01 
01080080009000001REP       US Senator FREESTONE COUNTYWIDE                         Curt Cleaver                          #9 TEAGUE                                              01 
01080080010000000REP       US Senator FREESTONE COUNTYWIDE                         Curt Cleaver                          #10 FREESTONE                                          01 
01080080011000000REP       US Senator FREESTONE COUNTYWIDE                         Curt Cleaver                          #11 BUTLER                                             01 
01080080012000000REP       US Senator FREESTONE COUNTYWIDE                         Curt Cleaver                          #12 LIBERTY                                            01 
01080080013000001REP       US Senator FREESTONE COUNTYWIDE                         Curt Cleaver                          #13 DEW                                                01 
01080080014000001REP       US Senator FREESTONE COUNTYWIDE                         Curt Cleaver                          #14 LANELY                                             01 
01080080015000001REP       US Senator FREESTONE COUNTYWIDE                         Curt Cleaver                          #15 STREETMAN COUNTY                                   01 
01080090001000000REP       US Senator FREESTONE COUNTYWIDE                         Ben Gambini                           #1 FAIRFIELD                                           01 
01080090002000000REP       US Senator FREESTONE COUNTYWIDE                         Ben Gambini                           #2 FAIRFIELD                                           01 
01080090003000001REP       US Senator FREESTONE COUNTYWIDE                         Ben Gambini                           #3 DONIE                                               01 
01080090004000000REP       US Senator FREESTONE COUNTYWIDE                         Ben Gambini                           #4 COTTON GIN                                          01 
01080090005000003REP       US Senator FREESTONE COUNTYWIDE                         Ben Gambini                           #5 TEAGUE                                              01 
01080090006000000REP       US Senator FREESTONE COUNTYWIDE                         Ben Gambini                           #6 KIRVIN                                              01 
01080090007000001REP       US Senator FREESTONE COUNTYWIDE                         Ben Gambini                           #7 WORTHAM                                             01 
01080090008000000REP       US Senator FREESTONE COUNTYWIDE                         Ben Gambini                           #8 ST ELMO                                             01 
01080090009000001REP       US Senator FREESTONE COUNTYWIDE                         Ben Gambini                           #9 TEAGUE                                              01 
01080090010000000REP       US Senator FREESTONE COUNTYWIDE                         Ben Gambini                           #10 FREESTONE                                          01 
01080090011000000REP       US Senator FREESTONE COUNTYWIDE                         Ben Gambini                           #11 BUTLER                                             01 
01080090012000000REP       US Senator FREESTONE COUNTYWIDE                         Ben Gambini                           #12 LIBERTY                                            01 
01080090013000001REP       US Senator FREESTONE COUNTYWIDE                         Ben Gambini                           #13 DEW                                                01 
01080090014000001REP       US Senator FREESTONE COUNTYWIDE                         Ben Gambini                           #14 LANELY                                             01 
01080090015000001REP       US Senator FREESTONE COUNTYWIDE                         Ben Gambini                           #15 STREETMAN COUNTY                                   01 
01080100001000000REP       US Senator FREESTONE COUNTYWIDE                         OVER VOTES                            #1 FAIRFIELD                                           01 
01080100002000000REP       US Senator FREESTONE COUNTYWIDE                         OVER VOTES                            #2 FAIRFIELD                                           01 
01080100003000000REP       US Senator FREESTONE COUNTYWIDE                         OVER VOTES                            #3 DONIE                                               01 
01080100004000000REP       US Senator FREESTONE COUNTYWIDE                         OVER VOTES                            #4 COTTON GIN                                          01 
01080100005000000REP       US Senator FREESTONE COUNTYWIDE                         OVER VOTES                            #5 TEAGUE                                              01 
01080100006000000REP       US Senator FREESTONE COUNTYWIDE                         OVER VOTES                            #6 KIRVIN                                              01 
01080100007000000REP       US Senator FREESTONE COUNTYWIDE                         OVER VOTES                            #7 WORTHAM                                             01 
01080100008000000REP       US Senator FREESTONE COUNTYWIDE                         OVER VOTES                            #8 ST ELMO                                             01 
01080100009000000REP       US Senator FREESTONE COUNTYWIDE                         OVER VOTES                            #9 TEAGUE                                              01 
01080100010000000REP       US Senator FREESTONE COUNTYWIDE                         OVER VOTES                            #10 FREESTONE                                          01 
01080100011000000REP       US Senator FREESTONE COUNTYWIDE                         OVER VOTES                            #11 BUTLER                                             01 
01080100012000000REP       US Senator FREESTONE COUNTYWIDE                         OVER VOTES                            #12 LIBERTY                                            01 
01080100013000000REP       US Senator FREESTONE COUNTYWIDE                         OVER VOTES                            #13 DEW                                                01 
01080100014000000REP       US Senator FREESTONE COUNTYWIDE                         OVER VOTES                            #14 LANELY                                             01 
01080100015000000REP       US Senator FREESTONE COUNTYWIDE                         OVER VOTES                            #15 STREETMAN COUNTY                                   01 
01080110001000052REP       US Senator FREESTONE COUNTYWIDE                         UNDER VOTES                           #1 FAIRFIELD                                           01 
01080110002000018REP       US Senator FREESTONE COUNTYWIDE                         UNDER VOTES                           #2 FAIRFIELD                                           01 
01080110003000003REP       US Senator FREESTONE COUNTYWIDE                         UNDER VOTES                           #3 DONIE                                               01 
01080110004000003REP       US Senator FREESTONE COUNTYWIDE                         UNDER VOTES                           #4 COTTON GIN                                          01 
01080110005000030REP       US Senator FREESTONE COUNTYWIDE                         UNDER VOTES                           #5 TEAGUE                                              01 
01080110006000013REP       US Senator FREESTONE COUNTYWIDE                         UNDER VOTES                           #6 KIRVIN                                              01 
01080110007000011REP       US Senator FREESTONE COUNTYWIDE                         UNDER VOTES                           #7 WORTHAM                                             01 
01080110008000002REP       US Senator FREESTONE COUNTYWIDE                         UNDER VOTES                           #8 ST ELMO                                             01 
01080110009000018REP       US Senator FREESTONE COUNTYWIDE                         UNDER VOTES                           #9 TEAGUE                                              01 
01080110010000004REP       US Senator FREESTONE COUNTYWIDE                         UNDER VOTES                           #10 FREESTONE                                          01 
01080110011000006REP       US Senator FREESTONE COUNTYWIDE                         UNDER VOTES                           #11 BUTLER                                             01 
01080110012000000REP       US Senator FREESTONE COUNTYWIDE                         UNDER VOTES                           #12 LIBERTY                                            01 
01080110013000004REP       US Senator FREESTONE COUNTYWIDE                         UNDER VOTES                           #13 DEW                                                01 
01080110014000009REP       US Senator FREESTONE COUNTYWIDE                         UNDER VOTES                           #14 LANELY                                             01 
01080110015000002REP       US Senator FREESTONE COUNTYWIDE                         UNDER VOTES                           #15 STREETMAN COUNTY                                   01 
01090010001000449REP       US Representative, DIST 17 FREESTONE COUNTYWIDE         Bill Flores                           #1 FAIRFIELD                                           01 
01090010002000167REP       US Representative, DIST 17 FREESTONE COUNTYWIDE         Bill Flores                           #2 FAIRFIELD                                           01 
01090010003000021REP       US Representative, DIST 17 FREESTONE COUNTYWIDE         Bill Flores                           #3 DONIE                                               01 
01090010004000039REP       US Representative, DIST 17 FREESTONE COUNTYWIDE         Bill Flores                           #4 COTTON GIN                                          01 
01090010005000190REP       US Representative, DIST 17 FREESTONE COUNTYWIDE         Bill Flores                           #5 TEAGUE                                              01 
01090010006000066REP       US Representative, DIST 17 FREESTONE COUNTYWIDE         Bill Flores                           #6 KIRVIN                                              01 
01090010007000067REP       US Representative, DIST 17 FREESTONE COUNTYWIDE         Bill Flores                           #7 WORTHAM                                             01 
01090010008000067REP       US Representative, DIST 17 FREESTONE COUNTYWIDE         Bill Flores                           #8 ST ELMO                                             01 
01090010009000065REP       US Representative, DIST 17 FREESTONE COUNTYWIDE         Bill Flores                           #9 TEAGUE                                              01 
01090010010000053REP       US Representative, DIST 17 FREESTONE COUNTYWIDE         Bill Flores                           #10 FREESTONE                                          01 
01090010011000047REP       US Representative, DIST 17 FREESTONE COUNTYWIDE         Bill Flores                           #11 BUTLER                                             01 
01090010012000014REP       US Representative, DIST 17 FREESTONE COUNTYWIDE         Bill Flores                           #12 LIBERTY                                            01 
01090010013000047REP       US Representative, DIST 17 FREESTONE COUNTYWIDE         Bill Flores                           #13 DEW                                                01 
01090010014000057REP       US Representative, DIST 17 FREESTONE COUNTYWIDE         Bill Flores                           #14 LANELY                                             01 
01090010015000029REP       US Representative, DIST 17 FREESTONE COUNTYWIDE         Bill Flores                           #15 STREETMAN COUNTY                                   01 
01090020001000135REP       US Representative, DIST 17 FREESTONE COUNTYWIDE         George W. Hindman                     #1 FAIRFIELD                                           01 
01090020002000056REP       US Representative, DIST 17 FREESTONE COUNTYWIDE         George W. Hindman                     #2 FAIRFIELD                                           01 
01090020003000008REP       US Representative, DIST 17 FREESTONE COUNTYWIDE         George W. Hindman                     #3 DONIE                                               01 
01090020004000016REP       US Representative, DIST 17 FREESTONE COUNTYWIDE         George W. Hindman                     #4 COTTON GIN                                          01 
01090020005000051REP       US Representative, DIST 17 FREESTONE COUNTYWIDE         George W. Hindman                     #5 TEAGUE                                              01 
01090020006000025REP       US Representative, DIST 17 FREESTONE COUNTYWIDE         George W. Hindman                     #6 KIRVIN                                              01 
01090020007000038REP       US Representative, DIST 17 FREESTONE COUNTYWIDE         George W. Hindman                     #7 WORTHAM                                             01 
01090020008000043REP       US Representative, DIST 17 FREESTONE COUNTYWIDE         George W. Hindman                     #8 ST ELMO                                             01 
01090020009000011REP       US Representative, DIST 17 FREESTONE COUNTYWIDE         George W. Hindman                     #9 TEAGUE                                              01 
01090020010000019REP       US Representative, DIST 17 FREESTONE COUNTYWIDE         George W. Hindman                     #10 FREESTONE                                          01 
01090020011000019REP       US Representative, DIST 17 FREESTONE COUNTYWIDE         George W. Hindman                     #11 BUTLER                                             01 
01090020012000002REP       US Representative, DIST 17 FREESTONE COUNTYWIDE         George W. Hindman                     #12 LIBERTY                                            01 
01090020013000016REP       US Representative, DIST 17 FREESTONE COUNTYWIDE         George W. Hindman                     #13 DEW                                                01 
01090020014000027REP       US Representative, DIST 17 FREESTONE COUNTYWIDE         George W. Hindman                     #14 LANELY                                             01 
01090020015000014REP       US Representative, DIST 17 FREESTONE COUNTYWIDE         George W. Hindman                     #15 STREETMAN COUNTY                                   01 
01090030001000000REP       US Representative, DIST 17 FREESTONE COUNTYWIDE         OVER VOTES                            #1 FAIRFIELD                                           01 
01090030002000000REP       US Representative, DIST 17 FREESTONE COUNTYWIDE         OVER VOTES                            #2 FAIRFIELD                                           01 
01090030003000000REP       US Representative, DIST 17 FREESTONE COUNTYWIDE         OVER VOTES                            #3 DONIE                                               01 
01090030004000000REP       US Representative, DIST 17 FREESTONE COUNTYWIDE         OVER VOTES                            #4 COTTON GIN                                          01 
01090030005000000REP       US Representative, DIST 17 FREESTONE COUNTYWIDE         OVER VOTES                            #5 TEAGUE                                              01 
01090030006000000REP       US Representative, DIST 17 FREESTONE COUNTYWIDE         OVER VOTES                            #6 KIRVIN                                              01 
01090030007000000REP       US Representative, DIST 17 FREESTONE COUNTYWIDE         OVER VOTES                            #7 WORTHAM                                             01 
01090030008000000REP       US Representative, DIST 17 FREESTONE COUNTYWIDE         OVER VOTES                            #8 ST ELMO                                             01 
01090030009000000REP       US Representative, DIST 17 FREESTONE COUNTYWIDE         OVER VOTES                            #9 TEAGUE                                              01 
01090030010000000REP       US Representative, DIST 17 FREESTONE COUNTYWIDE         OVER VOTES                            #10 FREESTONE                                          01 
01090030011000000REP       US Representative, DIST 17 FREESTONE COUNTYWIDE         OVER VOTES                            #11 BUTLER                                             01 
01090030012000000REP       US Representative, DIST 17 FREESTONE COUNTYWIDE         OVER VOTES                            #12 LIBERTY                                            01 
01090030013000000REP       US Representative, DIST 17 FREESTONE COUNTYWIDE         OVER VOTES                            #13 DEW                                                01 
01090030014000000REP       US Representative, DIST 17 FREESTONE COUNTYWIDE         OVER VOTES                            #14 LANELY                                             01 
01090030015000000REP       US Representative, DIST 17 FREESTONE COUNTYWIDE         OVER VOTES                            #15 STREETMAN COUNTY                                   01 
01090040001000127REP       US Representative, DIST 17 FREESTONE COUNTYWIDE         UNDER VOTES                           #1 FAIRFIELD                                           01 
01090040002000048REP       US Representative, DIST 17 FREESTONE COUNTYWIDE         UNDER VOTES                           #2 FAIRFIELD                                           01 
01090040003000006REP       US Representative, DIST 17 FREESTONE COUNTYWIDE         UNDER VOTES                           #3 DONIE                                               01 
01090040004000006REP       US Representative, DIST 17 FREESTONE COUNTYWIDE         UNDER VOTES                           #4 COTTON GIN                                          01 
01090040005000058REP       US Representative, DIST 17 FREESTONE COUNTYWIDE         UNDER VOTES                           #5 TEAGUE                                              01 
01090040006000027REP       US Representative, DIST 17 FREESTONE COUNTYWIDE         UNDER VOTES                           #6 KIRVIN                                              01 
01090040007000026REP       US Representative, DIST 17 FREESTONE COUNTYWIDE         UNDER VOTES                           #7 WORTHAM                                             01 
01090040008000017REP       US Representative, DIST 17 FREESTONE COUNTYWIDE         UNDER VOTES                           #8 ST ELMO                                             01 
01090040009000029REP       US Representative, DIST 17 FREESTONE COUNTYWIDE         UNDER VOTES                           #9 TEAGUE                                              01 
01090040010000019REP       US Representative, DIST 17 FREESTONE COUNTYWIDE         UNDER VOTES                           #10 FREESTONE                                          01 
01090040011000012REP       US Representative, DIST 17 FREESTONE COUNTYWIDE         UNDER VOTES                           #11 BUTLER                                             01 
01090040012000003REP       US Representative, DIST 17 FREESTONE COUNTYWIDE         UNDER VOTES                           #12 LIBERTY                                            01 
01090040013000014REP       US Representative, DIST 17 FREESTONE COUNTYWIDE         UNDER VOTES                           #13 DEW                                                01 
01090040014000019REP       US Representative, DIST 17 FREESTONE COUNTYWIDE         UNDER VOTES                           #14 LANELY                                             01 
01090040015000008REP       US Representative, DIST 17 FREESTONE COUNTYWIDE         UNDER VOTES                           #15 STREETMAN COUNTY                                   01 
01100010001000123REP       Railroad Commissioner FREESTONE COUNTYWIDE              Warren Chisum                         #1 FAIRFIELD                                           01 
01100010002000051REP       Railroad Commissioner FREESTONE COUNTYWIDE              Warren Chisum                         #2 FAIRFIELD                                           01 
01100010003000006REP       Railroad Commissioner FREESTONE COUNTYWIDE              Warren Chisum                         #3 DONIE                                               01 
01100010004000011REP       Railroad Commissioner FREESTONE COUNTYWIDE              Warren Chisum                         #4 COTTON GIN                                          01 
01100010005000061REP       Railroad Commissioner FREESTONE COUNTYWIDE              Warren Chisum                         #5 TEAGUE                                              01 
01100010006000032REP       Railroad Commissioner FREESTONE COUNTYWIDE              Warren Chisum                         #6 KIRVIN                                              01 
01100010007000019REP       Railroad Commissioner FREESTONE COUNTYWIDE              Warren Chisum                         #7 WORTHAM                                             01 
01100010008000030REP       Railroad Commissioner FREESTONE COUNTYWIDE              Warren Chisum                         #8 ST ELMO                                             01 
01100010009000018REP       Railroad Commissioner FREESTONE COUNTYWIDE              Warren Chisum                         #9 TEAGUE                                              01 
01100010010000020REP       Railroad Commissioner FREESTONE COUNTYWIDE              Warren Chisum                         #10 FREESTONE                                          01 
01100010011000019REP       Railroad Commissioner FREESTONE COUNTYWIDE              Warren Chisum                         #11 BUTLER                                             01 
01100010012000002REP       Railroad Commissioner FREESTONE COUNTYWIDE              Warren Chisum                         #12 LIBERTY                                            01 
01100010013000022REP       Railroad Commissioner FREESTONE COUNTYWIDE              Warren Chisum                         #13 DEW                                                01 
01100010014000021REP       Railroad Commissioner FREESTONE COUNTYWIDE              Warren Chisum                         #14 LANELY                                             01 
01100010015000010REP       Railroad Commissioner FREESTONE COUNTYWIDE              Warren Chisum                         #15 STREETMAN COUNTY                                   01 
01100020001000169REP       Railroad Commissioner FREESTONE COUNTYWIDE              Christi Craddick                      #1 FAIRFIELD                                           01 
01100020002000070REP       Railroad Commissioner FREESTONE COUNTYWIDE              Christi Craddick                      #2 FAIRFIELD                                           01 
01100020003000009REP       Railroad Commissioner FREESTONE COUNTYWIDE              Christi Craddick                      #3 DONIE                                               01 
01100020004000014REP       Railroad Commissioner FREESTONE COUNTYWIDE              Christi Craddick                      #4 COTTON GIN                                          01 
01100020005000071REP       Railroad Commissioner FREESTONE COUNTYWIDE              Christi Craddick                      #5 TEAGUE                                              01 
01100020006000027REP       Railroad Commissioner FREESTONE COUNTYWIDE              Christi Craddick                      #6 KIRVIN                                              01 
01100020007000032REP       Railroad Commissioner FREESTONE COUNTYWIDE              Christi Craddick                      #7 WORTHAM                                             01 
01100020008000038REP       Railroad Commissioner FREESTONE COUNTYWIDE              Christi Craddick                      #8 ST ELMO                                             01 
01100020009000020REP       Railroad Commissioner FREESTONE COUNTYWIDE              Christi Craddick                      #9 TEAGUE                                              01 
01100020010000020REP       Railroad Commissioner FREESTONE COUNTYWIDE              Christi Craddick                      #10 FREESTONE                                          01 
01100020011000028REP       Railroad Commissioner FREESTONE COUNTYWIDE              Christi Craddick                      #11 BUTLER                                             01 
01100020012000009REP       Railroad Commissioner FREESTONE COUNTYWIDE              Christi Craddick                      #12 LIBERTY                                            01 
01100020013000013REP       Railroad Commissioner FREESTONE COUNTYWIDE              Christi Craddick                      #13 DEW                                                01 
01100020014000020REP       Railroad Commissioner FREESTONE COUNTYWIDE              Christi Craddick                      #14 LANELY                                             01 
01100020015000008REP       Railroad Commissioner FREESTONE COUNTYWIDE              Christi Craddick                      #15 STREETMAN COUNTY                                   01 
01100030001000108REP       Railroad Commissioner FREESTONE COUNTYWIDE              Becky Berger                          #1 FAIRFIELD                                           01 
01100030002000047REP       Railroad Commissioner FREESTONE COUNTYWIDE              Becky Berger                          #2 FAIRFIELD                                           01 
01100030003000003REP       Railroad Commissioner FREESTONE COUNTYWIDE              Becky Berger                          #3 DONIE                                               01 
01100030004000008REP       Railroad Commissioner FREESTONE COUNTYWIDE              Becky Berger                          #4 COTTON GIN                                          01 
01100030005000026REP       Railroad Commissioner FREESTONE COUNTYWIDE              Becky Berger                          #5 TEAGUE                                              01 
01100030006000012REP       Railroad Commissioner FREESTONE COUNTYWIDE              Becky Berger                          #6 KIRVIN                                              01 
01100030007000015REP       Railroad Commissioner FREESTONE COUNTYWIDE              Becky Berger                          #7 WORTHAM                                             01 
01100030008000019REP       Railroad Commissioner FREESTONE COUNTYWIDE              Becky Berger                          #8 ST ELMO                                             01 
01100030009000013REP       Railroad Commissioner FREESTONE COUNTYWIDE              Becky Berger                          #9 TEAGUE                                              01 
01100030010000007REP       Railroad Commissioner FREESTONE COUNTYWIDE              Becky Berger                          #10 FREESTONE                                          01 
01100030011000008REP       Railroad Commissioner FREESTONE COUNTYWIDE              Becky Berger                          #11 BUTLER                                             01 
01100030012000002REP       Railroad Commissioner FREESTONE COUNTYWIDE              Becky Berger                          #12 LIBERTY                                            01 
01100030013000011REP       Railroad Commissioner FREESTONE COUNTYWIDE              Becky Berger                          #13 DEW                                                01 
01100030014000018REP       Railroad Commissioner FREESTONE COUNTYWIDE              Becky Berger                          #14 LANELY                                             01 
01100030015000004REP       Railroad Commissioner FREESTONE COUNTYWIDE              Becky Berger                          #15 STREETMAN COUNTY                                   01 
01100040001000047REP       Railroad Commissioner FREESTONE COUNTYWIDE              Roland Sledge                         #1 FAIRFIELD                                           01 
01100040002000020REP       Railroad Commissioner FREESTONE COUNTYWIDE              Roland Sledge                         #2 FAIRFIELD                                           01 
01100040003000005REP       Railroad Commissioner FREESTONE COUNTYWIDE              Roland Sledge                         #3 DONIE                                               01 
01100040004000004REP       Railroad Commissioner FREESTONE COUNTYWIDE              Roland Sledge                         #4 COTTON GIN                                          01 
01100040005000031REP       Railroad Commissioner FREESTONE COUNTYWIDE              Roland Sledge                         #5 TEAGUE                                              01 
01100040006000007REP       Railroad Commissioner FREESTONE COUNTYWIDE              Roland Sledge                         #6 KIRVIN                                              01 
01100040007000010REP       Railroad Commissioner FREESTONE COUNTYWIDE              Roland Sledge                         #7 WORTHAM                                             01 
01100040008000010REP       Railroad Commissioner FREESTONE COUNTYWIDE              Roland Sledge                         #8 ST ELMO                                             01 
01100040009000004REP       Railroad Commissioner FREESTONE COUNTYWIDE              Roland Sledge                         #9 TEAGUE                                              01 
01100040010000003REP       Railroad Commissioner FREESTONE COUNTYWIDE              Roland Sledge                         #10 FREESTONE                                          01 
01100040011000004REP       Railroad Commissioner FREESTONE COUNTYWIDE              Roland Sledge                         #11 BUTLER                                             01 
01100040012000002REP       Railroad Commissioner FREESTONE COUNTYWIDE              Roland Sledge                         #12 LIBERTY                                            01 
01100040013000005REP       Railroad Commissioner FREESTONE COUNTYWIDE              Roland Sledge                         #13 DEW                                                01 
01100040014000007REP       Railroad Commissioner FREESTONE COUNTYWIDE              Roland Sledge                         #14 LANELY                                             01 
01100040015000005REP       Railroad Commissioner FREESTONE COUNTYWIDE              Roland Sledge                         #15 STREETMAN COUNTY                                   01 
01100050001000016REP       Railroad Commissioner FREESTONE COUNTYWIDE              Beryl Burgess                         #1 FAIRFIELD                                           01 
01100050002000005REP       Railroad Commissioner FREESTONE COUNTYWIDE              Beryl Burgess                         #2 FAIRFIELD                                           01 
01100050003000002REP       Railroad Commissioner FREESTONE COUNTYWIDE              Beryl Burgess                         #3 DONIE                                               01 
01100050004000000REP       Railroad Commissioner FREESTONE COUNTYWIDE              Beryl Burgess                         #4 COTTON GIN                                          01 
01100050005000007REP       Railroad Commissioner FREESTONE COUNTYWIDE              Beryl Burgess                         #5 TEAGUE                                              01 
01100050006000004REP       Railroad Commissioner FREESTONE COUNTYWIDE              Beryl Burgess                         #6 KIRVIN                                              01 
01100050007000009REP       Railroad Commissioner FREESTONE COUNTYWIDE              Beryl Burgess                         #7 WORTHAM                                             01 
01100050008000006REP       Railroad Commissioner FREESTONE COUNTYWIDE              Beryl Burgess                         #8 ST ELMO                                             01 
01100050009000001REP       Railroad Commissioner FREESTONE COUNTYWIDE              Beryl Burgess                         #9 TEAGUE                                              01 
01100050010000003REP       Railroad Commissioner FREESTONE COUNTYWIDE              Beryl Burgess                         #10 FREESTONE                                          01 
01100050011000001REP       Railroad Commissioner FREESTONE COUNTYWIDE              Beryl Burgess                         #11 BUTLER                                             01 
01100050012000000REP       Railroad Commissioner FREESTONE COUNTYWIDE              Beryl Burgess                         #12 LIBERTY                                            01 
