01070010001000001REP       President GRAYSON COUNTYWIDE                            Jon Huntsman                          PRECINCT 101                                           01 
01070010002000001REP       President GRAYSON COUNTYWIDE                            Jon Huntsman                          PRECINCT 102                                           01 
01070010003000000REP       President GRAYSON COUNTYWIDE                            Jon Huntsman                          PRECINCT 103                                           01 
01070010004000002REP       President GRAYSON COUNTYWIDE                            Jon Huntsman                          PRECINCT 104                                           01 
01070010005000002REP       President GRAYSON COUNTYWIDE                            Jon Huntsman                          PRECINCT 105                                           01 
01070010006000001REP       President GRAYSON COUNTYWIDE                            Jon Huntsman                          PRECINCT 106                                           01 
01070010007000001REP       President GRAYSON COUNTYWIDE                            Jon Huntsman                          PRECINCT 107                                           01 
01070010008000001REP       President GRAYSON COUNTYWIDE                            Jon Huntsman                          PRECINCT 108                                           01 
01070010009000001REP       President GRAYSON COUNTYWIDE                            Jon Huntsman                          PRECINCT 201                                           01 
01070010010000002REP       President GRAYSON COUNTYWIDE                            Jon Huntsman                          PRECINCT 202                                           01 
01070010011000000REP       President GRAYSON COUNTYWIDE                            Jon Huntsman                          PRECINCT 203                                           01 
01070010012000002REP       President GRAYSON COUNTYWIDE                            Jon Huntsman                          PRECINCT 204                                           01 
01070010013000002REP       President GRAYSON COUNTYWIDE                            Jon Huntsman                          PRECINCT 205                                           01 
01070010014000004REP       President GRAYSON COUNTYWIDE                            Jon Huntsman                          PRECINCT 206                                           01 
01070010015000002REP       President GRAYSON COUNTYWIDE                            Jon Huntsman                          PRECINCT 207                                           01 
01070010016000002REP       President GRAYSON COUNTYWIDE                            Jon Huntsman                          PRECINCT 208                                           01 
01070010017000000REP       President GRAYSON COUNTYWIDE                            Jon Huntsman                          PRECINCT 209                                           01 
01070010018000000REP       President GRAYSON COUNTYWIDE                            Jon Huntsman                          PRECINCT 210                                           01 
01070010019000004REP       President GRAYSON COUNTYWIDE                            Jon Huntsman                          PRECINCT 301                                           01 
01070010020000004REP       President GRAYSON COUNTYWIDE                            Jon Huntsman                          PRECINCT 302                                           01 
01070010021000000REP       President GRAYSON COUNTYWIDE                            Jon Huntsman                          PRECINCT 303                                           01 
01070010022000004REP       President GRAYSON COUNTYWIDE                            Jon Huntsman                          PRECINCT 304                                           01 
01070010023000002REP       President GRAYSON COUNTYWIDE                            Jon Huntsman                          PRECINCT 305                                           01 
01070010024000003REP       President GRAYSON COUNTYWIDE                            Jon Huntsman                          PRECINCT 306                                           01 
01070010025000002REP       President GRAYSON COUNTYWIDE                            Jon Huntsman                          PRECINCT 307                                           01 
01070010026000000REP       President GRAYSON COUNTYWIDE                            Jon Huntsman                          PRECINCT 308                                           01 
01070010027000001REP       President GRAYSON COUNTYWIDE                            Jon Huntsman                          PRECINCT 309                                           01 
01070010028000000REP       President GRAYSON COUNTYWIDE                            Jon Huntsman                          PRECINCT 401                                           01 
01070010029000001REP       President GRAYSON COUNTYWIDE                            Jon Huntsman                          PRECINCT 402                                           01 
01070010030000001REP       President GRAYSON COUNTYWIDE                            Jon Huntsman                          PRECINCT 403                                           01 
01070010031000003REP       President GRAYSON COUNTYWIDE                            Jon Huntsman                          PRECINCT 404                                           01 
01070010032000000REP       President GRAYSON COUNTYWIDE                            Jon Huntsman                          PRECINCT 405                                           01 
01070010033000001REP       President GRAYSON COUNTYWIDE                            Jon Huntsman                          PRECINCT 406                                           01 
01070010034000001REP       President GRAYSON COUNTYWIDE                            Jon Huntsman                          PRECINCT 407                                           01 
01070010035000001REP       President GRAYSON COUNTYWIDE                            Jon Huntsman                          PRECINCT 408                                           01 
01070010036000004REP       President GRAYSON COUNTYWIDE                            Jon Huntsman                          PRECINCT 409                                           01 
01070020001000043REP       President GRAYSON COUNTYWIDE                            Rick Santorum                         PRECINCT 101                                           01 
01070020002000006REP       President GRAYSON COUNTYWIDE                            Rick Santorum                         PRECINCT 102                                           01 
01070020003000012REP       President GRAYSON COUNTYWIDE                            Rick Santorum                         PRECINCT 103                                           01 
01070020004000028REP       President GRAYSON COUNTYWIDE                            Rick Santorum                         PRECINCT 104                                           01 
01070020005000056REP       President GRAYSON COUNTYWIDE                            Rick Santorum                         PRECINCT 105                                           01 
01070020006000035REP       President GRAYSON COUNTYWIDE                            Rick Santorum                         PRECINCT 106                                           01 
01070020007000035REP       President GRAYSON COUNTYWIDE                            Rick Santorum                         PRECINCT 107                                           01 
01070020008000029REP       President GRAYSON COUNTYWIDE                            Rick Santorum                         PRECINCT 108                                           01 
01070020009000046REP       President GRAYSON COUNTYWIDE                            Rick Santorum                         PRECINCT 201                                           01 
01070020010000028REP       President GRAYSON COUNTYWIDE                            Rick Santorum                         PRECINCT 202                                           01 
01070020011000006REP       President GRAYSON COUNTYWIDE                            Rick Santorum                         PRECINCT 203                                           01 
01070020012000016REP       President GRAYSON COUNTYWIDE                            Rick Santorum                         PRECINCT 204                                           01 
01070020013000058REP       President GRAYSON COUNTYWIDE                            Rick Santorum                         PRECINCT 205                                           01 
01070020014000015REP       President GRAYSON COUNTYWIDE                            Rick Santorum                         PRECINCT 206                                           01 
01070020015000018REP       President GRAYSON COUNTYWIDE                            Rick Santorum                         PRECINCT 207                                           01 
01070020016000009REP       President GRAYSON COUNTYWIDE                            Rick Santorum                         PRECINCT 208                                           01 
01070020017000020REP       President GRAYSON COUNTYWIDE                            Rick Santorum                         PRECINCT 209                                           01 
01070020018000033REP       President GRAYSON COUNTYWIDE                            Rick Santorum                         PRECINCT 210                                           01 
01070020019000013REP       President GRAYSON COUNTYWIDE                            Rick Santorum                         PRECINCT 301                                           01 
01070020020000059REP       President GRAYSON COUNTYWIDE                            Rick Santorum                         PRECINCT 302                                           01 
01070020021000010REP       President GRAYSON COUNTYWIDE                            Rick Santorum                         PRECINCT 303                                           01 
01070020022000041REP       President GRAYSON COUNTYWIDE                            Rick Santorum                         PRECINCT 304                                           01 
01070020023000036REP       President GRAYSON COUNTYWIDE                            Rick Santorum                         PRECINCT 305                                           01 
01070020024000053REP       President GRAYSON COUNTYWIDE                            Rick Santorum                         PRECINCT 306                                           01 
01070020025000024REP       President GRAYSON COUNTYWIDE                            Rick Santorum                         PRECINCT 307                                           01 
01070020026000015REP       President GRAYSON COUNTYWIDE                            Rick Santorum                         PRECINCT 308                                           01 
01070020027000013REP       President GRAYSON COUNTYWIDE                            Rick Santorum                         PRECINCT 309                                           01 
01070020028000012REP       President GRAYSON COUNTYWIDE                            Rick Santorum                         PRECINCT 401                                           01 
01070020029000021REP       President GRAYSON COUNTYWIDE                            Rick Santorum                         PRECINCT 402                                           01 
01070020030000025REP       President GRAYSON COUNTYWIDE                            Rick Santorum                         PRECINCT 403                                           01 
01070020031000049REP       President GRAYSON COUNTYWIDE                            Rick Santorum                         PRECINCT 404                                           01 
01070020032000007REP       President GRAYSON COUNTYWIDE                            Rick Santorum                         PRECINCT 405                                           01 
01070020033000035REP       President GRAYSON COUNTYWIDE                            Rick Santorum                         PRECINCT 406                                           01 
01070020034000002REP       President GRAYSON COUNTYWIDE                            Rick Santorum                         PRECINCT 407                                           01 
01070020035000017REP       President GRAYSON COUNTYWIDE                            Rick Santorum                         PRECINCT 408                                           01 
01070020036000074REP       President GRAYSON COUNTYWIDE                            Rick Santorum                         PRECINCT 409                                           01 
01070030001000229REP       President GRAYSON COUNTYWIDE                            Mitt Romney                           PRECINCT 101                                           01 
01070030002000068REP       President GRAYSON COUNTYWIDE                            Mitt Romney                           PRECINCT 102                                           01 
01070030003000070REP       President GRAYSON COUNTYWIDE                            Mitt Romney                           PRECINCT 103                                           01 
01070030004000126REP       President GRAYSON COUNTYWIDE                            Mitt Romney                           PRECINCT 104                                           01 
01070030005000420REP       President GRAYSON COUNTYWIDE                            Mitt Romney                           PRECINCT 105                                           01 
01070030006000218REP       President GRAYSON COUNTYWIDE                            Mitt Romney                           PRECINCT 106                                           01 
01070030007000222REP       President GRAYSON COUNTYWIDE                            Mitt Romney                           PRECINCT 107                                           01 
01070030008000213REP       President GRAYSON COUNTYWIDE                            Mitt Romney                           PRECINCT 108                                           01 
01070030009000359REP       President GRAYSON COUNTYWIDE                            Mitt Romney                           PRECINCT 201                                           01 
01070030010000310REP       President GRAYSON COUNTYWIDE                            Mitt Romney                           PRECINCT 202                                           01 
01070030011000047REP       President GRAYSON COUNTYWIDE                            Mitt Romney                           PRECINCT 203                                           01 
01070030012000128REP       President GRAYSON COUNTYWIDE                            Mitt Romney                           PRECINCT 204                                           01 
01070030013000502REP       President GRAYSON COUNTYWIDE                            Mitt Romney                           PRECINCT 205                                           01 
01070030014000205REP       President GRAYSON COUNTYWIDE                            Mitt Romney                           PRECINCT 206                                           01 
01070030015000091REP       President GRAYSON COUNTYWIDE                            Mitt Romney                           PRECINCT 207                                           01 
01070030016000131REP       President GRAYSON COUNTYWIDE                            Mitt Romney                           PRECINCT 208                                           01 
01070030017000134REP       President GRAYSON COUNTYWIDE                            Mitt Romney                           PRECINCT 209                                           01 
01070030018000223REP       President GRAYSON COUNTYWIDE                            Mitt Romney                           PRECINCT 210                                           01 
01070030019000135REP       President GRAYSON COUNTYWIDE                            Mitt Romney                           PRECINCT 301                                           01 
01070030020000495REP       President GRAYSON COUNTYWIDE                            Mitt Romney                           PRECINCT 302                                           01 
01070030021000129REP       President GRAYSON COUNTYWIDE                            Mitt Romney                           PRECINCT 303                                           01 
01070030022000428REP       President GRAYSON COUNTYWIDE                            Mitt Romney                           PRECINCT 304                                           01 
01070030023000166REP       President GRAYSON COUNTYWIDE                            Mitt Romney                           PRECINCT 305                                           01 
01070030024000461REP       President GRAYSON COUNTYWIDE                            Mitt Romney                           PRECINCT 306                                           01 
01070030025000251REP       President GRAYSON COUNTYWIDE                            Mitt Romney                           PRECINCT 307                                           01 
01070030026000097REP       President GRAYSON COUNTYWIDE                            Mitt Romney                           PRECINCT 308                                           01 
01070030027000089REP       President GRAYSON COUNTYWIDE                            Mitt Romney                           PRECINCT 309                                           01 
01070030028000092REP       President GRAYSON COUNTYWIDE                            Mitt Romney                           PRECINCT 401                                           01 
01070030029000270REP       President GRAYSON COUNTYWIDE                            Mitt Romney                           PRECINCT 402                                           01 
01070030030000327REP       President GRAYSON COUNTYWIDE                            Mitt Romney                           PRECINCT 403                                           01 
01070030031000394REP       President GRAYSON COUNTYWIDE                            Mitt Romney                           PRECINCT 404                                           01 
01070030032000054REP       President GRAYSON COUNTYWIDE                            Mitt Romney                           PRECINCT 405                                           01 
01070030033000306REP       President GRAYSON COUNTYWIDE                            Mitt Romney                           PRECINCT 406                                           01 
01070030034000012REP       President GRAYSON COUNTYWIDE                            Mitt Romney                           PRECINCT 407                                           01 
01070030035000143REP       President GRAYSON COUNTYWIDE                            Mitt Romney                           PRECINCT 408                                           01 
01070030036000640REP       President GRAYSON COUNTYWIDE                            Mitt Romney                           PRECINCT 409                                           01 
01070040001000002REP       President GRAYSON COUNTYWIDE                            Charles "Buddy" Roemer                PRECINCT 101                                           01 
01070040002000000REP       President GRAYSON COUNTYWIDE                            Charles "Buddy" Roemer                PRECINCT 102                                           01 
01070040003000002REP       President GRAYSON COUNTYWIDE                            Charles "Buddy" Roemer                PRECINCT 103                                           01 
01070040004000001REP       President GRAYSON COUNTYWIDE                            Charles "Buddy" Roemer                PRECINCT 104                                           01 
01070040005000002REP       President GRAYSON COUNTYWIDE                            Charles "Buddy" Roemer                PRECINCT 105                                           01 
01070040006000000REP       President GRAYSON COUNTYWIDE                            Charles "Buddy" Roemer                PRECINCT 106                                           01 
01070040007000000REP       President GRAYSON COUNTYWIDE                            Charles "Buddy" Roemer                PRECINCT 107                                           01 
01070040008000001REP       President GRAYSON COUNTYWIDE                            Charles "Buddy" Roemer                PRECINCT 108                                           01 
01070040009000005REP       President GRAYSON COUNTYWIDE                            Charles "Buddy" Roemer                PRECINCT 201                                           01 
01070040010000003REP       President GRAYSON COUNTYWIDE                            Charles "Buddy" Roemer                PRECINCT 202                                           01 
01070040011000001REP       President GRAYSON COUNTYWIDE                            Charles "Buddy" Roemer                PRECINCT 203                                           01 
01070040012000000REP       President GRAYSON COUNTYWIDE                            Charles "Buddy" Roemer                PRECINCT 204                                           01 
01070040013000002REP       President GRAYSON COUNTYWIDE                            Charles "Buddy" Roemer                PRECINCT 205                                           01 
01070040014000001REP       President GRAYSON COUNTYWIDE                            Charles "Buddy" Roemer                PRECINCT 206                                           01 
01070040015000002REP       President GRAYSON COUNTYWIDE                            Charles "Buddy" Roemer                PRECINCT 207                                           01 
01070040016000001REP       President GRAYSON COUNTYWIDE                            Charles "Buddy" Roemer                PRECINCT 208                                           01 
01070040017000000REP       President GRAYSON COUNTYWIDE                            Charles "Buddy" Roemer                PRECINCT 209                                           01 
01070040018000001REP       President GRAYSON COUNTYWIDE                            Charles "Buddy" Roemer                PRECINCT 210                                           01 
01070040019000000REP       President GRAYSON COUNTYWIDE                            Charles "Buddy" Roemer                PRECINCT 301                                           01 
01070040020000001REP       President GRAYSON COUNTYWIDE                            Charles "Buddy" Roemer                PRECINCT 302                                           01 
01070040021000000REP       President GRAYSON COUNTYWIDE                            Charles "Buddy" Roemer                PRECINCT 303                                           01 
01070040022000004REP       President GRAYSON COUNTYWIDE                            Charles "Buddy" Roemer                PRECINCT 304                                           01 
01070040023000000REP       President GRAYSON COUNTYWIDE                            Charles "Buddy" Roemer                PRECINCT 305                                           01 
01070040024000002REP       President GRAYSON COUNTYWIDE                            Charles "Buddy" Roemer                PRECINCT 306                                           01 
01070040025000000REP       President GRAYSON COUNTYWIDE                            Charles "Buddy" Roemer                PRECINCT 307                                           01 
01070040026000000REP       President GRAYSON COUNTYWIDE                            Charles "Buddy" Roemer                PRECINCT 308                                           01 
01070040027000000REP       President GRAYSON COUNTYWIDE                            Charles "Buddy" Roemer                PRECINCT 309                                           01 
01070040028000000REP       President GRAYSON COUNTYWIDE                            Charles "Buddy" Roemer                PRECINCT 401                                           01 
01070040029000000REP       President GRAYSON COUNTYWIDE                            Charles "Buddy" Roemer                PRECINCT 402                                           01 
01070040030000002REP       President GRAYSON COUNTYWIDE                            Charles "Buddy" Roemer                PRECINCT 403                                           01 
01070040031000003REP       President GRAYSON COUNTYWIDE                            Charles "Buddy" Roemer                PRECINCT 404                                           01 
01070040032000000REP       President GRAYSON COUNTYWIDE                            Charles "Buddy" Roemer                PRECINCT 405                                           01 
01070040033000002REP       President GRAYSON COUNTYWIDE                            Charles "Buddy" Roemer                PRECINCT 406                                           01 
01070040034000000REP       President GRAYSON COUNTYWIDE                            Charles "Buddy" Roemer                PRECINCT 407                                           01 
01070040035000001REP       President GRAYSON COUNTYWIDE                            Charles "Buddy" Roemer                PRECINCT 408                                           01 
01070040036000007REP       President GRAYSON COUNTYWIDE                            Charles "Buddy" Roemer                PRECINCT 409                                           01 
01070050001000004REP       President GRAYSON COUNTYWIDE                            Michele Bachmann                      PRECINCT 101                                           01 
01070050002000001REP       President GRAYSON COUNTYWIDE                            Michele Bachmann                      PRECINCT 102                                           01 
01070050003000000REP       President GRAYSON COUNTYWIDE                            Michele Bachmann                      PRECINCT 103                                           01 
01070050004000000REP       President GRAYSON COUNTYWIDE                            Michele Bachmann                      PRECINCT 104                                           01 
01070050005000005REP       President GRAYSON COUNTYWIDE                            Michele Bachmann                      PRECINCT 105                                           01 
01070050006000004REP       President GRAYSON COUNTYWIDE                            Michele Bachmann                      PRECINCT 106                                           01 
01070050007000003REP       President GRAYSON COUNTYWIDE                            Michele Bachmann                      PRECINCT 107                                           01 
01070050008000002REP       President GRAYSON COUNTYWIDE                            Michele Bachmann                      PRECINCT 108                                           01 
01070050009000004REP       President GRAYSON COUNTYWIDE                            Michele Bachmann                      PRECINCT 201                                           01 
01070050010000003REP       President GRAYSON COUNTYWIDE                            Michele Bachmann                      PRECINCT 202                                           01 
01070050011000001REP       President GRAYSON COUNTYWIDE                            Michele Bachmann                      PRECINCT 203                                           01 
01070050012000000REP       President GRAYSON COUNTYWIDE                            Michele Bachmann                      PRECINCT 204                                           01 
01070050013000003REP       President GRAYSON COUNTYWIDE                            Michele Bachmann                      PRECINCT 205                                           01 
01070050014000003REP       President GRAYSON COUNTYWIDE                            Michele Bachmann                      PRECINCT 206                                           01 
01070050015000000REP       President GRAYSON COUNTYWIDE                            Michele Bachmann                      PRECINCT 207                                           01 
01070050016000000REP       President GRAYSON COUNTYWIDE                            Michele Bachmann                      PRECINCT 208                                           01 
01070050017000000REP       President GRAYSON COUNTYWIDE                            Michele Bachmann                      PRECINCT 209                                           01 
01070050018000003REP       President GRAYSON COUNTYWIDE                            Michele Bachmann                      PRECINCT 210                                           01 
01070050019000000REP       President GRAYSON COUNTYWIDE                            Michele Bachmann                      PRECINCT 301                                           01 
01070050020000006REP       President GRAYSON COUNTYWIDE                            Michele Bachmann                      PRECINCT 302                                           01 
01070050021000000REP       President GRAYSON COUNTYWIDE                            Michele Bachmann                      PRECINCT 303                                           01 
01070050022000003REP       President GRAYSON COUNTYWIDE                            Michele Bachmann                      PRECINCT 304                                           01 
01070050023000001REP       President GRAYSON COUNTYWIDE                            Michele Bachmann                      PRECINCT 305                                           01 
01070050024000006REP       President GRAYSON COUNTYWIDE                            Michele Bachmann                      PRECINCT 306                                           01 
01070050025000003REP       President GRAYSON COUNTYWIDE                            Michele Bachmann                      PRECINCT 307                                           01 
01070050026000001REP       President GRAYSON COUNTYWIDE                            Michele Bachmann                      PRECINCT 308                                           01 
01070050027000000REP       President GRAYSON COUNTYWIDE                            Michele Bachmann                      PRECINCT 309                                           01 
01070050028000000REP       President GRAYSON COUNTYWIDE                            Michele Bachmann                      PRECINCT 401                                           01 
01070050029000006REP       President GRAYSON COUNTYWIDE                            Michele Bachmann                      PRECINCT 402                                           01 
01070050030000001REP       President GRAYSON COUNTYWIDE                            Michele Bachmann                      PRECINCT 403                                           01 
01070050031000006REP       President GRAYSON COUNTYWIDE                            Michele Bachmann                      PRECINCT 404                                           01 
01070050032000000REP       President GRAYSON COUNTYWIDE                            Michele Bachmann                      PRECINCT 405                                           01 
01070050033000002REP       President GRAYSON COUNTYWIDE                            Michele Bachmann                      PRECINCT 406                                           01 
01070050034000000REP       President GRAYSON COUNTYWIDE                            Michele Bachmann                      PRECINCT 407                                           01 
01070050035000003REP       President GRAYSON COUNTYWIDE                            Michele Bachmann                      PRECINCT 408                                           01 
01070050036000007REP       President GRAYSON COUNTYWIDE                            Michele Bachmann                      PRECINCT 409                                           01 
01070060001000039REP       President GRAYSON COUNTYWIDE                            Ron Paul                              PRECINCT 101                                           01 
01070060002000013REP       President GRAYSON COUNTYWIDE                            Ron Paul                              PRECINCT 102                                           01 
01070060003000007REP       President GRAYSON COUNTYWIDE                            Ron Paul                              PRECINCT 103                                           01 
01070060004000021REP       President GRAYSON COUNTYWIDE                            Ron Paul                              PRECINCT 104                                           01 
01070060005000057REP       President GRAYSON COUNTYWIDE                            Ron Paul                              PRECINCT 105                                           01 
01070060006000024REP       President GRAYSON COUNTYWIDE                            Ron Paul                              PRECINCT 106                                           01 
01070060007000030REP       President GRAYSON COUNTYWIDE                            Ron Paul                              PRECINCT 107                                           01 
01070060008000027REP       President GRAYSON COUNTYWIDE                            Ron Paul                              PRECINCT 108                                           01 
01070060009000052REP       President GRAYSON COUNTYWIDE                            Ron Paul                              PRECINCT 201                                           01 
01070060010000044REP       President GRAYSON COUNTYWIDE                            Ron Paul                              PRECINCT 202                                           01 
01070060011000011REP       President GRAYSON COUNTYWIDE                            Ron Paul                              PRECINCT 203                                           01 
01070060012000021REP       President GRAYSON COUNTYWIDE                            Ron Paul                              PRECINCT 204                                           01 
01070060013000056REP       President GRAYSON COUNTYWIDE                            Ron Paul                              PRECINCT 205                                           01 
01070060014000021REP       President GRAYSON COUNTYWIDE                            Ron Paul                              PRECINCT 206                                           01 
01070060015000025REP       President GRAYSON COUNTYWIDE                            Ron Paul                              PRECINCT 207                                           01 
01070060016000019REP       President GRAYSON COUNTYWIDE                            Ron Paul                              PRECINCT 208                                           01 
01070060017000024REP       President GRAYSON COUNTYWIDE                            Ron Paul                              PRECINCT 209                                           01 
01070060018000035REP       President GRAYSON COUNTYWIDE                            Ron Paul                              PRECINCT 210                                           01 
01070060019000020REP       President GRAYSON COUNTYWIDE                            Ron Paul                              PRECINCT 301                                           01 
01070060020000052REP       President GRAYSON COUNTYWIDE                            Ron Paul                              PRECINCT 302                                           01 
01070060021000008REP       President GRAYSON COUNTYWIDE                            Ron Paul                              PRECINCT 303                                           01 
01070060022000062REP       President GRAYSON COUNTYWIDE                            Ron Paul                              PRECINCT 304                                           01 
01070060023000025REP       President GRAYSON COUNTYWIDE                            Ron Paul                              PRECINCT 305                                           01 
01070060024000054REP       President GRAYSON COUNTYWIDE                            Ron Paul                              PRECINCT 306                                           01 
01070060025000023REP       President GRAYSON COUNTYWIDE                            Ron Paul                              PRECINCT 307                                           01 
01070060026000011REP       President GRAYSON COUNTYWIDE                            Ron Paul                              PRECINCT 308                                           01 
01070060027000024REP       President GRAYSON COUNTYWIDE                            Ron Paul                              PRECINCT 309                                           01 
01070060028000021REP       President GRAYSON COUNTYWIDE                            Ron Paul                              PRECINCT 401                                           01 
01070060029000033REP       President GRAYSON COUNTYWIDE                            Ron Paul                              PRECINCT 402                                           01 
01070060030000030REP       President GRAYSON COUNTYWIDE                            Ron Paul                              PRECINCT 403                                           01 
01070060031000046REP       President GRAYSON COUNTYWIDE                            Ron Paul                              PRECINCT 404                                           01 
01070060032000006REP       President GRAYSON COUNTYWIDE                            Ron Paul                              PRECINCT 405                                           01 
01070060033000037REP       President GRAYSON COUNTYWIDE                            Ron Paul                              PRECINCT 406                                           01 
01070060034000001REP       President GRAYSON COUNTYWIDE                            Ron Paul                              PRECINCT 407                                           01 
01070060035000012REP       President GRAYSON COUNTYWIDE                            Ron Paul                              PRECINCT 408                                           01 
01070060036000064REP       President GRAYSON COUNTYWIDE                            Ron Paul                              PRECINCT 409                                           01 
01070070001000019REP       President GRAYSON COUNTYWIDE                            Newt Gingrich                         PRECINCT 101                                           01 
01070070002000002REP       President GRAYSON COUNTYWIDE                            Newt Gingrich                         PRECINCT 102                                           01 
01070070003000007REP       President GRAYSON COUNTYWIDE                            Newt Gingrich                         PRECINCT 103                                           01 
01070070004000002REP       President GRAYSON COUNTYWIDE                            Newt Gingrich                         PRECINCT 104                                           01 
01070070005000028REP       President GRAYSON COUNTYWIDE                            Newt Gingrich                         PRECINCT 105                                           01 
01070070006000016REP       President GRAYSON COUNTYWIDE                            Newt Gingrich                         PRECINCT 106                                           01 
01070070007000020REP       President GRAYSON COUNTYWIDE                            Newt Gingrich                         PRECINCT 107                                           01 
01070070008000006REP       President GRAYSON COUNTYWIDE                            Newt Gingrich                         PRECINCT 108                                           01 
01070070009000025REP       President GRAYSON COUNTYWIDE                            Newt Gingrich                         PRECINCT 201                                           01 
01070070010000017REP       President GRAYSON COUNTYWIDE                            Newt Gingrich                         PRECINCT 202                                           01 
01070070011000002REP       President GRAYSON COUNTYWIDE                            Newt Gingrich                         PRECINCT 203                                           01 
01070070012000012REP       President GRAYSON COUNTYWIDE                            Newt Gingrich                         PRECINCT 204                                           01 
01070070013000025REP       President GRAYSON COUNTYWIDE                            Newt Gingrich                         PRECINCT 205                                           01 
01070070014000010REP       President GRAYSON COUNTYWIDE                            Newt Gingrich                         PRECINCT 206                                           01 
01070070015000008REP       President GRAYSON COUNTYWIDE                            Newt Gingrich                         PRECINCT 207                                           01 
01070070016000008REP       President GRAYSON COUNTYWIDE                            Newt Gingrich                         PRECINCT 208                                           01 
01070070017000009REP       President GRAYSON COUNTYWIDE                            Newt Gingrich                         PRECINCT 209                                           01 
01070070018000028REP       President GRAYSON COUNTYWIDE                            Newt Gingrich                         PRECINCT 210                                           01 
01070070019000007REP       President GRAYSON COUNTYWIDE                            Newt Gingrich                         PRECINCT 301                                           01 
01070070020000037REP       President GRAYSON COUNTYWIDE                            Newt Gingrich                         PRECINCT 302                                           01 
01070070021000010REP       President GRAYSON COUNTYWIDE                            Newt Gingrich                         PRECINCT 303                                           01 
01070070022000024REP       President GRAYSON COUNTYWIDE                            Newt Gingrich                         PRECINCT 304                                           01 
01070070023000017REP       President GRAYSON COUNTYWIDE                            Newt Gingrich                         PRECINCT 305                                           01 
01070070024000042REP       President GRAYSON COUNTYWIDE                            Newt Gingrich                         PRECINCT 306                                           01 
01070070025000018REP       President GRAYSON COUNTYWIDE                            Newt Gingrich                         PRECINCT 307                                           01 
01070070026000006REP       President GRAYSON COUNTYWIDE                            Newt Gingrich                         PRECINCT 308                                           01 
01070070027000010REP       President GRAYSON COUNTYWIDE                            Newt Gingrich                         PRECINCT 309                                           01 
01070070028000004REP       President GRAYSON COUNTYWIDE                            Newt Gingrich                         PRECINCT 401                                           01 
01070070029000019REP       President GRAYSON COUNTYWIDE                            Newt Gingrich                         PRECINCT 402                                           01 
01070070030000025REP       President GRAYSON COUNTYWIDE                            Newt Gingrich                         PRECINCT 403                                           01 
01070070031000026REP       President GRAYSON COUNTYWIDE                            Newt Gingrich                         PRECINCT 404                                           01 
01070070032000003REP       President GRAYSON COUNTYWIDE                            Newt Gingrich                         PRECINCT 405                                           01 
01070070033000012REP       President GRAYSON COUNTYWIDE                            Newt Gingrich                         PRECINCT 406                                           01 
01070070034000000REP       President GRAYSON COUNTYWIDE                            Newt Gingrich                         PRECINCT 407                                           01 
01070070035000008REP       President GRAYSON COUNTYWIDE                            Newt Gingrich                         PRECINCT 408                                           01 
01070070036000047REP       President GRAYSON COUNTYWIDE                            Newt Gingrich                         PRECINCT 409                                           01 
01070080001000001REP       President GRAYSON COUNTYWIDE                            John Davis                            PRECINCT 101                                           01 
01070080002000003REP       President GRAYSON COUNTYWIDE                            John Davis                            PRECINCT 102                                           01 
01070080003000000REP       President GRAYSON COUNTYWIDE                            John Davis                            PRECINCT 103                                           01 
01070080004000000REP       President GRAYSON COUNTYWIDE                            John Davis                            PRECINCT 104                                           01 
01070080005000000REP       President GRAYSON COUNTYWIDE                            John Davis                            PRECINCT 105                                           01 
01070080006000000REP       President GRAYSON COUNTYWIDE                            John Davis                            PRECINCT 106                                           01 
01070080007000001REP       President GRAYSON COUNTYWIDE                            John Davis                            PRECINCT 107                                           01 
01070080008000000REP       President GRAYSON COUNTYWIDE                            John Davis                            PRECINCT 108                                           01 
01070080009000001REP       President GRAYSON COUNTYWIDE                            John Davis                            PRECINCT 201                                           01 
01070080010000000REP       President GRAYSON COUNTYWIDE                            John Davis                            PRECINCT 202                                           01 
01070080011000001REP       President GRAYSON COUNTYWIDE                            John Davis                            PRECINCT 203                                           01 
01070080012000002REP       President GRAYSON COUNTYWIDE                            John Davis                            PRECINCT 204                                           01 
01070080013000000REP       President GRAYSON COUNTYWIDE                            John Davis                            PRECINCT 205                                           01 
01070080014000001REP       President GRAYSON COUNTYWIDE                            John Davis                            PRECINCT 206                                           01 
01070080015000000REP       President GRAYSON COUNTYWIDE                            John Davis                            PRECINCT 207                                           01 
01070080016000000REP       President GRAYSON COUNTYWIDE                            John Davis                            PRECINCT 208                                           01 
01070080017000000REP       President GRAYSON COUNTYWIDE                            John Davis                            PRECINCT 209                                           01 
01070080018000002REP       President GRAYSON COUNTYWIDE                            John Davis                            PRECINCT 210                                           01 
01070080019000000REP       President GRAYSON COUNTYWIDE                            John Davis                            PRECINCT 301                                           01 
01070080020000001REP       President GRAYSON COUNTYWIDE                            John Davis                            PRECINCT 302                                           01 
01070080021000001REP       President GRAYSON COUNTYWIDE                            John Davis                            PRECINCT 303                                           01 
01070080022000001REP       President GRAYSON COUNTYWIDE                            John Davis                            PRECINCT 304                                           01 
01070080023000001REP       President GRAYSON COUNTYWIDE                            John Davis                            PRECINCT 305                                           01 
01070080024000001REP       President GRAYSON COUNTYWIDE                            John Davis                            PRECINCT 306                                           01 
01070080025000001REP       President GRAYSON COUNTYWIDE                            John Davis                            PRECINCT 307                                           01 
01070080026000000REP       President GRAYSON COUNTYWIDE                            John Davis                            PRECINCT 308                                           01 
01070080027000000REP       President GRAYSON COUNTYWIDE                            John Davis                            PRECINCT 309                                           01 
01070080028000000REP       President GRAYSON COUNTYWIDE                            John Davis                            PRECINCT 401                                           01 
01070080029000000REP       President GRAYSON COUNTYWIDE                            John Davis                            PRECINCT 402                                           01 
01070080030000001REP       President GRAYSON COUNTYWIDE                            John Davis                            PRECINCT 403                                           01 
01070080031000001REP       President GRAYSON COUNTYWIDE                            John Davis                            PRECINCT 404                                           01 
01070080032000000REP       President GRAYSON COUNTYWIDE                            John Davis                            PRECINCT 405                                           01 
01070080033000002REP       President GRAYSON COUNTYWIDE                            John Davis                            PRECINCT 406                                           01 
01070080034000000REP       President GRAYSON COUNTYWIDE                            John Davis                            PRECINCT 407                                           01 
01070080035000000REP       President GRAYSON COUNTYWIDE                            John Davis                            PRECINCT 408                                           01 
01070080036000000REP       President GRAYSON COUNTYWIDE                            John Davis                            PRECINCT 409                                           01 
01070090001000039REP       President GRAYSON COUNTYWIDE                            Uncommitted (No Comprometido)         PRECINCT 101                                           01 
01070090002000013REP       President GRAYSON COUNTYWIDE                            Uncommitted (No Comprometido)         PRECINCT 102                                           01 
01070090003000009REP       President GRAYSON COUNTYWIDE                            Uncommitted (No Comprometido)         PRECINCT 103                                           01 
01070090004000012REP       President GRAYSON COUNTYWIDE                            Uncommitted (No Comprometido)         PRECINCT 104                                           01 
01070090005000014REP       President GRAYSON COUNTYWIDE                            Uncommitted (No Comprometido)         PRECINCT 105                                           01 
01070090006000019REP       President GRAYSON COUNTYWIDE                            Uncommitted (No Comprometido)         PRECINCT 106                                           01 
01070090007000024REP       President GRAYSON COUNTYWIDE                            Uncommitted (No Comprometido)         PRECINCT 107                                           01 
01070090008000015REP       President GRAYSON COUNTYWIDE                            Uncommitted (No Comprometido)         PRECINCT 108                                           01 
01070090009000029REP       President GRAYSON COUNTYWIDE                            Uncommitted (No Comprometido)         PRECINCT 201                                           01 
01070090010000016REP       President GRAYSON COUNTYWIDE                            Uncommitted (No Comprometido)         PRECINCT 202                                           01 
01070090011000002REP       President GRAYSON COUNTYWIDE                            Uncommitted (No Comprometido)         PRECINCT 203                                           01 
01070090012000006REP       President GRAYSON COUNTYWIDE                            Uncommitted (No Comprometido)         PRECINCT 204                                           01 
01070090013000034REP       President GRAYSON COUNTYWIDE                            Uncommitted (No Comprometido)         PRECINCT 205                                           01 
01070090014000013REP       President GRAYSON COUNTYWIDE                            Uncommitted (No Comprometido)         PRECINCT 206                                           01 
01070090015000001REP       President GRAYSON COUNTYWIDE                            Uncommitted (No Comprometido)         PRECINCT 207                                           01 
01070090016000013REP       President GRAYSON COUNTYWIDE                            Uncommitted (No Comprometido)         PRECINCT 208                                           01 
01070090017000011REP       President GRAYSON COUNTYWIDE                            Uncommitted (No Comprometido)         PRECINCT 209                                           01 
01070090018000015REP       President GRAYSON COUNTYWIDE                            Uncommitted (No Comprometido)         PRECINCT 210                                           01 
01070090019000017REP       President GRAYSON COUNTYWIDE                            Uncommitted (No Comprometido)         PRECINCT 301                                           01 
01070090020000038REP       President GRAYSON COUNTYWIDE                            Uncommitted (No Comprometido)         PRECINCT 302                                           01 
01070090021000010REP       President GRAYSON COUNTYWIDE                            Uncommitted (No Comprometido)         PRECINCT 303                                           01 
01070090022000028REP       President GRAYSON COUNTYWIDE                            Uncommitted (No Comprometido)         PRECINCT 304                                           01 
01070090023000017REP       President GRAYSON COUNTYWIDE                            Uncommitted (No Comprometido)         PRECINCT 305                                           01 
01070090024000040REP       President GRAYSON COUNTYWIDE                            Uncommitted (No Comprometido)         PRECINCT 306                                           01 
01070090025000021REP       President GRAYSON COUNTYWIDE                            Uncommitted (No Comprometido)         PRECINCT 307                                           01 
01070090026000008REP       President GRAYSON COUNTYWIDE                            Uncommitted (No Comprometido)         PRECINCT 308                                           01 
01070090027000005REP       President GRAYSON COUNTYWIDE                            Uncommitted (No Comprometido)         PRECINCT 309                                           01 
01070090028000008REP       President GRAYSON COUNTYWIDE                            Uncommitted (No Comprometido)         PRECINCT 401                                           01 
01070090029000023REP       President GRAYSON COUNTYWIDE                            Uncommitted (No Comprometido)         PRECINCT 402                                           01 
01070090030000014REP       President GRAYSON COUNTYWIDE                            Uncommitted (No Comprometido)         PRECINCT 403                                           01 
01070090031000020REP       President GRAYSON COUNTYWIDE                            Uncommitted (No Comprometido)         PRECINCT 404                                           01 
01070090032000000REP       President GRAYSON COUNTYWIDE                            Uncommitted (No Comprometido)         PRECINCT 405                                           01 
01070090033000016REP       President GRAYSON COUNTYWIDE                            Uncommitted (No Comprometido)         PRECINCT 406                                           01 
01070090034000001REP       President GRAYSON COUNTYWIDE                            Uncommitted (No Comprometido)         PRECINCT 407                                           01 
01070090035000008REP       President GRAYSON COUNTYWIDE                            Uncommitted (No Comprometido)         PRECINCT 408                                           01 
01070090036000045REP       President GRAYSON COUNTYWIDE                            Uncommitted (No Comprometido)         PRECINCT 409                                           01 
01070100001000000REP       President GRAYSON COUNTYWIDE                            OVER VOTES                            PRECINCT 101                                           01 
01070100002000000REP       President GRAYSON COUNTYWIDE                            OVER VOTES                            PRECINCT 102                                           01 
01070100003000000REP       President GRAYSON COUNTYWIDE                            OVER VOTES                            PRECINCT 103                                           01 
01070100004000000REP       President GRAYSON COUNTYWIDE                            OVER VOTES                            PRECINCT 104                                           01 
01070100005000000REP       President GRAYSON COUNTYWIDE                            OVER VOTES                            PRECINCT 105                                           01 
01070100006000000REP       President GRAYSON COUNTYWIDE                            OVER VOTES                            PRECINCT 106                                           01 
01070100007000000REP       President GRAYSON COUNTYWIDE                            OVER VOTES                            PRECINCT 107                                           01 
01070100008000000REP       President GRAYSON COUNTYWIDE                            OVER VOTES                            PRECINCT 108                                           01 
01070100009000000REP       President GRAYSON COUNTYWIDE                            OVER VOTES                            PRECINCT 201                                           01 
01070100010000000REP       President GRAYSON COUNTYWIDE                            OVER VOTES                            PRECINCT 202                                           01 
01070100011000000REP       President GRAYSON COUNTYWIDE                            OVER VOTES                            PRECINCT 203                                           01 
01070100012000000REP       President GRAYSON COUNTYWIDE                            OVER VOTES                            PRECINCT 204                                           01 
01070100013000000REP       President GRAYSON COUNTYWIDE                            OVER VOTES                            PRECINCT 205                                           01 
01070100014000000REP       President GRAYSON COUNTYWIDE                            OVER VOTES                            PRECINCT 206                                           01 
01070100015000000REP       President GRAYSON COUNTYWIDE                            OVER VOTES                            PRECINCT 207                                           01 
01070100016000000REP       President GRAYSON COUNTYWIDE                            OVER VOTES                            PRECINCT 208                                           01 
01070100017000000REP       President GRAYSON COUNTYWIDE                            OVER VOTES                            PRECINCT 209                                           01 
01070100018000000REP       President GRAYSON COUNTYWIDE                            OVER VOTES                            PRECINCT 210                                           01 
01070100019000000REP       President GRAYSON COUNTYWIDE                            OVER VOTES                            PRECINCT 301                                           01 
01070100020000000REP       President GRAYSON COUNTYWIDE                            OVER VOTES                            PRECINCT 302                                           01 
01070100021000000REP       President GRAYSON COUNTYWIDE                            OVER VOTES                            PRECINCT 303                                           01 
01070100022000000REP       President GRAYSON COUNTYWIDE                            OVER VOTES                            PRECINCT 304                                           01 
01070100023000000REP       President GRAYSON COUNTYWIDE                            OVER VOTES                            PRECINCT 305                                           01 
01070100024000000REP       President GRAYSON COUNTYWIDE                            OVER VOTES                            PRECINCT 306                                           01 
01070100025000000REP       President GRAYSON COUNTYWIDE                            OVER VOTES                            PRECINCT 307                                           01 
01070100026000000REP       President GRAYSON COUNTYWIDE                            OVER VOTES                            PRECINCT 308                                           01 
01070100027000000REP       President GRAYSON COUNTYWIDE                            OVER VOTES                            PRECINCT 309                                           01 
01070100028000000REP       President GRAYSON COUNTYWIDE                            OVER VOTES                            PRECINCT 401                                           01 
01070100029000000REP       President GRAYSON COUNTYWIDE                            OVER VOTES                            PRECINCT 402                                           01 
01070100030000000REP       President GRAYSON COUNTYWIDE                            OVER VOTES                            PRECINCT 403                                           01 
01070100031000000REP       President GRAYSON COUNTYWIDE                            OVER VOTES                            PRECINCT 404                                           01 
01070100032000000REP       President GRAYSON COUNTYWIDE                            OVER VOTES                            PRECINCT 405                                           01 
01070100033000000REP       President GRAYSON COUNTYWIDE                            OVER VOTES                            PRECINCT 406                                           01 
01070100034000000REP       President GRAYSON COUNTYWIDE                            OVER VOTES                            PRECINCT 407                                           01 
01070100035000000REP       President GRAYSON COUNTYWIDE                            OVER VOTES                            PRECINCT 408                                           01 
01070100036000000REP       President GRAYSON COUNTYWIDE                            OVER VOTES                            PRECINCT 409                                           01 
01070110001000012REP       President GRAYSON COUNTYWIDE                            UNDER VOTES                           PRECINCT 101                                           01 
01070110002000006REP       President GRAYSON COUNTYWIDE                            UNDER VOTES                           PRECINCT 102                                           01 
01070110003000001REP       President GRAYSON COUNTYWIDE                            UNDER VOTES                           PRECINCT 103                                           01 
01070110004000004REP       President GRAYSON COUNTYWIDE                            UNDER VOTES                           PRECINCT 104                                           01 
01070110005000012REP       President GRAYSON COUNTYWIDE                            UNDER VOTES                           PRECINCT 105                                           01 
01070110006000010REP       President GRAYSON COUNTYWIDE                            UNDER VOTES                           PRECINCT 106                                           01 
01070110007000010REP       President GRAYSON COUNTYWIDE                            UNDER VOTES                           PRECINCT 107                                           01 
01070110008000008REP       President GRAYSON COUNTYWIDE                            UNDER VOTES                           PRECINCT 108                                           01 
01070110009000017REP       President GRAYSON COUNTYWIDE                            UNDER VOTES                           PRECINCT 201                                           01 
01070110010000010REP       President GRAYSON COUNTYWIDE                            UNDER VOTES                           PRECINCT 202                                           01 
01070110011000003REP       President GRAYSON COUNTYWIDE                            UNDER VOTES                           PRECINCT 203                                           01 
01070110012000001REP       President GRAYSON COUNTYWIDE                            UNDER VOTES                           PRECINCT 204                                           01 
01070110013000019REP       President GRAYSON COUNTYWIDE                            UNDER VOTES                           PRECINCT 205                                           01 
01070110014000004REP       President GRAYSON COUNTYWIDE                            UNDER VOTES                           PRECINCT 206                                           01 
01070110015000000REP       President GRAYSON COUNTYWIDE                            UNDER VOTES                           PRECINCT 207                                           01 
01070110016000007REP       President GRAYSON COUNTYWIDE                            UNDER VOTES                           PRECINCT 208                                           01 
01070110017000001REP       President GRAYSON COUNTYWIDE                            UNDER VOTES                           PRECINCT 209                                           01 
01070110018000024REP       President GRAYSON COUNTYWIDE                            UNDER VOTES                           PRECINCT 210                                           01 
01070110019000008REP       President GRAYSON COUNTYWIDE                            UNDER VOTES                           PRECINCT 301                                           01 
01070110020000015REP       President GRAYSON COUNTYWIDE                            UNDER VOTES                           PRECINCT 302                                           01 
01070110021000004REP       President GRAYSON COUNTYWIDE                            UNDER VOTES                           PRECINCT 303                                           01 
01070110022000020REP       President GRAYSON COUNTYWIDE                            UNDER VOTES                           PRECINCT 304                                           01 
01070110023000014REP       President GRAYSON COUNTYWIDE                            UNDER VOTES                           PRECINCT 305                                           01 
01070110024000027REP       President GRAYSON COUNTYWIDE                            UNDER VOTES                           PRECINCT 306                                           01 
01070110025000017REP       President GRAYSON COUNTYWIDE                            UNDER VOTES                           PRECINCT 307                                           01 
01070110026000001REP       President GRAYSON COUNTYWIDE                            UNDER VOTES                           PRECINCT 308                                           01 
01070110027000004REP       President GRAYSON COUNTYWIDE                            UNDER VOTES                           PRECINCT 309                                           01 
01070110028000012REP       President GRAYSON COUNTYWIDE                            UNDER VOTES                           PRECINCT 401                                           01 
01070110029000016REP       President GRAYSON COUNTYWIDE                            UNDER VOTES                           PRECINCT 402                                           01 
01070110030000009REP       President GRAYSON COUNTYWIDE                            UNDER VOTES                           PRECINCT 403                                           01 
01070110031000011REP       President GRAYSON COUNTYWIDE                            UNDER VOTES                           PRECINCT 404                                           01 
01070110032000000REP       President GRAYSON COUNTYWIDE                            UNDER VOTES                           PRECINCT 405                                           01 
01070110033000008REP       President GRAYSON COUNTYWIDE                            UNDER VOTES                           PRECINCT 406                                           01 
01070110034000000REP       President GRAYSON COUNTYWIDE                            UNDER VOTES                           PRECINCT 407                                           01 
01070110035000000REP       President GRAYSON COUNTYWIDE                            UNDER VOTES                           PRECINCT 408                                           01 
01070110036000018REP       President GRAYSON COUNTYWIDE                            UNDER VOTES                           PRECINCT 409                                           01 
01080010001000004REP       US Senator GRAYSON COUNTYWIDE                           Joe Agris                             PRECINCT 101                                           01 
01080010002000002REP       US Senator GRAYSON COUNTYWIDE                           Joe Agris                             PRECINCT 102                                           01 
01080010003000000REP       US Senator GRAYSON COUNTYWIDE                           Joe Agris                             PRECINCT 103                                           01 
01080010004000000REP       US Senator GRAYSON COUNTYWIDE                           Joe Agris                             PRECINCT 104                                           01 
01080010005000004REP       US Senator GRAYSON COUNTYWIDE                           Joe Agris                             PRECINCT 105                                           01 
01080010006000001REP       US Senator GRAYSON COUNTYWIDE                           Joe Agris                             PRECINCT 106                                           01 
01080010007000001REP       US Senator GRAYSON COUNTYWIDE                           Joe Agris                             PRECINCT 107                                           01 
01080010008000001REP       US Senator GRAYSON COUNTYWIDE                           Joe Agris                             PRECINCT 108                                           01 
01080010009000001REP       US Senator GRAYSON COUNTYWIDE                           Joe Agris                             PRECINCT 201                                           01 
01080010010000004REP       US Senator GRAYSON COUNTYWIDE                           Joe Agris                             PRECINCT 202                                           01 
01080010011000000REP       US Senator GRAYSON COUNTYWIDE                           Joe Agris                             PRECINCT 203                                           01 
01080010012000001REP       US Senator GRAYSON COUNTYWIDE                           Joe Agris                             PRECINCT 204                                           01 
01080010013000006REP       US Senator GRAYSON COUNTYWIDE                           Joe Agris                             PRECINCT 205                                           01 
01080010014000002REP       US Senator GRAYSON COUNTYWIDE                           Joe Agris                             PRECINCT 206                                           01 
01080010015000000REP       US Senator GRAYSON COUNTYWIDE                           Joe Agris                             PRECINCT 207                                           01 
01080010016000000REP       US Senator GRAYSON COUNTYWIDE                           Joe Agris                             PRECINCT 208                                           01 
01080010017000003REP       US Senator GRAYSON COUNTYWIDE                           Joe Agris                             PRECINCT 209                                           01 
01080010018000005REP       US Senator GRAYSON COUNTYWIDE                           Joe Agris                             PRECINCT 210                                           01 
01080010019000001REP       US Senator GRAYSON COUNTYWIDE                           Joe Agris                             PRECINCT 301                                           01 
01080010020000005REP       US Senator GRAYSON COUNTYWIDE                           Joe Agris                             PRECINCT 302                                           01 
01080010021000000REP       US Senator GRAYSON COUNTYWIDE                           Joe Agris                             PRECINCT 303                                           01 
01080010022000001REP       US Senator GRAYSON COUNTYWIDE                           Joe Agris                             PRECINCT 304                                           01 
01080010023000001REP       US Senator GRAYSON COUNTYWIDE                           Joe Agris                             PRECINCT 305                                           01 
01080010024000007REP       US Senator GRAYSON COUNTYWIDE                           Joe Agris                             PRECINCT 306                                           01 
01080010025000001REP       US Senator GRAYSON COUNTYWIDE                           Joe Agris                             PRECINCT 307                                           01 
01080010026000001REP       US Senator GRAYSON COUNTYWIDE                           Joe Agris                             PRECINCT 308                                           01 
01080010027000002REP       US Senator GRAYSON COUNTYWIDE                           Joe Agris                             PRECINCT 309                                           01 
01080010028000000REP       US Senator GRAYSON COUNTYWIDE                           Joe Agris                             PRECINCT 401                                           01 
01080010029000001REP       US Senator GRAYSON COUNTYWIDE                           Joe Agris                             PRECINCT 402                                           01 
01080010030000001REP       US Senator GRAYSON COUNTYWIDE                           Joe Agris                             PRECINCT 403                                           01 
01080010031000004REP       US Senator GRAYSON COUNTYWIDE                           Joe Agris                             PRECINCT 404                                           01 
01080010032000000REP       US Senator GRAYSON COUNTYWIDE                           Joe Agris                             PRECINCT 405                                           01 
01080010033000008REP       US Senator GRAYSON COUNTYWIDE                           Joe Agris                             PRECINCT 406                                           01 
01080010034000000REP       US Senator GRAYSON COUNTYWIDE                           Joe Agris                             PRECINCT 407                                           01 
01080010035000000REP       US Senator GRAYSON COUNTYWIDE                           Joe Agris                             PRECINCT 408                                           01 
01080010036000009REP       US Senator GRAYSON COUNTYWIDE                           Joe Agris                             PRECINCT 409                                           01 
01080020001000035REP       US Senator GRAYSON COUNTYWIDE                           Craig James                           PRECINCT 101                                           01 
01080020002000009REP       US Senator GRAYSON COUNTYWIDE                           Craig James                           PRECINCT 102                                           01 
01080020003000014REP       US Senator GRAYSON COUNTYWIDE                           Craig James                           PRECINCT 103                                           01 
01080020004000019REP       US Senator GRAYSON COUNTYWIDE                           Craig James                           PRECINCT 104                                           01 
01080020005000040REP       US Senator GRAYSON COUNTYWIDE                           Craig James                           PRECINCT 105                                           01 
01080020006000031REP       US Senator GRAYSON COUNTYWIDE                           Craig James                           PRECINCT 106                                           01 
01080020007000037REP       US Senator GRAYSON COUNTYWIDE                           Craig James                           PRECINCT 107                                           01 
01080020008000032REP       US Senator GRAYSON COUNTYWIDE                           Craig James                           PRECINCT 108                                           01 
01080020009000053REP       US Senator GRAYSON COUNTYWIDE                           Craig James                           PRECINCT 201                                           01 
01080020010000061REP       US Senator GRAYSON COUNTYWIDE                           Craig James                           PRECINCT 202                                           01 
01080020011000007REP       US Senator GRAYSON COUNTYWIDE                           Craig James                           PRECINCT 203                                           01 
01080020012000017REP       US Senator GRAYSON COUNTYWIDE                           Craig James                           PRECINCT 204                                           01 
01080020013000088REP       US Senator GRAYSON COUNTYWIDE                           Craig James                           PRECINCT 205                                           01 
01080020014000032REP       US Senator GRAYSON COUNTYWIDE                           Craig James                           PRECINCT 206                                           01 
01080020015000012REP       US Senator GRAYSON COUNTYWIDE                           Craig James                           PRECINCT 207                                           01 
01080020016000014REP       US Senator GRAYSON COUNTYWIDE                           Craig James                           PRECINCT 208                                           01 
01080020017000019REP       US Senator GRAYSON COUNTYWIDE                           Craig James                           PRECINCT 209                                           01 
01080020018000043REP       US Senator GRAYSON COUNTYWIDE                           Craig James                           PRECINCT 210                                           01 
01080020019000019REP       US Senator GRAYSON COUNTYWIDE                           Craig James                           PRECINCT 301                                           01 
01080020020000074REP       US Senator GRAYSON COUNTYWIDE                           Craig James                           PRECINCT 302                                           01 
01080020021000015REP       US Senator GRAYSON COUNTYWIDE                           Craig James                           PRECINCT 303                                           01 
01080020022000054REP       US Senator GRAYSON COUNTYWIDE                           Craig James                           PRECINCT 304                                           01 
01080020023000039REP       US Senator GRAYSON COUNTYWIDE                           Craig James                           PRECINCT 305                                           01 
01080020024000062REP       US Senator GRAYSON COUNTYWIDE                           Craig James                           PRECINCT 306                                           01 
01080020025000049REP       US Senator GRAYSON COUNTYWIDE                           Craig James                           PRECINCT 307                                           01 
01080020026000010REP       US Senator GRAYSON COUNTYWIDE                           Craig James                           PRECINCT 308                                           01 
01080020027000014REP       US Senator GRAYSON COUNTYWIDE                           Craig James                           PRECINCT 309                                           01 
01080020028000008REP       US Senator GRAYSON COUNTYWIDE                           Craig James                           PRECINCT 401                                           01 
01080020029000049REP       US Senator GRAYSON COUNTYWIDE                           Craig James                           PRECINCT 402                                           01 
01080020030000052REP       US Senator GRAYSON COUNTYWIDE                           Craig James                           PRECINCT 403                                           01 
01080020031000054REP       US Senator GRAYSON COUNTYWIDE                           Craig James                           PRECINCT 404                                           01 
01080020032000006REP       US Senator GRAYSON COUNTYWIDE                           Craig James                           PRECINCT 405                                           01 
01080020033000045REP       US Senator GRAYSON COUNTYWIDE                           Craig James                           PRECINCT 406                                           01 
01080020034000004REP       US Senator GRAYSON COUNTYWIDE                           Craig James                           PRECINCT 407                                           01 
01080020035000016REP       US Senator GRAYSON COUNTYWIDE                           Craig James                           PRECINCT 408                                           01 
01080020036000085REP       US Senator GRAYSON COUNTYWIDE                           Craig James                           PRECINCT 409                                           01 
01080030001000087REP       US Senator GRAYSON COUNTYWIDE                           Ted Cruz                              PRECINCT 101                                           01 
01080030002000026REP       US Senator GRAYSON COUNTYWIDE                           Ted Cruz                              PRECINCT 102                                           01 
01080030003000020REP       US Senator GRAYSON COUNTYWIDE                           Ted Cruz                              PRECINCT 103                                           01 
01080030004000047REP       US Senator GRAYSON COUNTYWIDE                           Ted Cruz                              PRECINCT 104                                           01 
01080030005000212REP       US Senator GRAYSON COUNTYWIDE                           Ted Cruz                              PRECINCT 105                                           01 
01080030006000087REP       US Senator GRAYSON COUNTYWIDE                           Ted Cruz                              PRECINCT 106                                           01 
01080030007000100REP       US Senator GRAYSON COUNTYWIDE                           Ted Cruz                              PRECINCT 107                                           01 
01080030008000087REP       US Senator GRAYSON COUNTYWIDE                           Ted Cruz                              PRECINCT 108                                           01 
01080030009000114REP       US Senator GRAYSON COUNTYWIDE                           Ted Cruz                              PRECINCT 201                                           01 
01080030010000114REP       US Senator GRAYSON COUNTYWIDE                           Ted Cruz                              PRECINCT 202                                           01 
01080030011000021REP       US Senator GRAYSON COUNTYWIDE                           Ted Cruz                              PRECINCT 203                                           01 
01080030012000042REP       US Senator GRAYSON COUNTYWIDE                           Ted Cruz                              PRECINCT 204                                           01 
01080030013000164REP       US Senator GRAYSON COUNTYWIDE                           Ted Cruz                              PRECINCT 205                                           01 
01080030014000062REP       US Senator GRAYSON COUNTYWIDE                           Ted Cruz                              PRECINCT 206                                           01 
01080030015000062REP       US Senator GRAYSON COUNTYWIDE                           Ted Cruz                              PRECINCT 207                                           01 
01080030016000043REP       US Senator GRAYSON COUNTYWIDE                           Ted Cruz                              PRECINCT 208                                           01 
01080030017000042REP       US Senator GRAYSON COUNTYWIDE                           Ted Cruz                              PRECINCT 209                                           01 
01080030018000086REP       US Senator GRAYSON COUNTYWIDE                           Ted Cruz                              PRECINCT 210                                           01 
01080030019000031REP       US Senator GRAYSON COUNTYWIDE                           Ted Cruz                              PRECINCT 301                                           01 
01080030020000186REP       US Senator GRAYSON COUNTYWIDE                           Ted Cruz                              PRECINCT 302                                           01 
01080030021000044REP       US Senator GRAYSON COUNTYWIDE                           Ted Cruz                              PRECINCT 303                                           01 
01080030022000132REP       US Senator GRAYSON COUNTYWIDE                           Ted Cruz                              PRECINCT 304                                           01 
01080030023000072REP       US Senator GRAYSON COUNTYWIDE                           Ted Cruz                              PRECINCT 305                                           01 
01080030024000144REP       US Senator GRAYSON COUNTYWIDE                           Ted Cruz                              PRECINCT 306                                           01 
01080030025000080REP       US Senator GRAYSON COUNTYWIDE                           Ted Cruz                              PRECINCT 307                                           01 
01080030026000039REP       US Senator GRAYSON COUNTYWIDE                           Ted Cruz                              PRECINCT 308                                           01 
01080030027000043REP       US Senator GRAYSON COUNTYWIDE                           Ted Cruz                              PRECINCT 309                                           01 
01080030028000039REP       US Senator GRAYSON COUNTYWIDE                           Ted Cruz                              PRECINCT 401                                           01 
01080030029000101REP       US Senator GRAYSON COUNTYWIDE                           Ted Cruz                              PRECINCT 402                                           01 
01080030030000109REP       US Senator GRAYSON COUNTYWIDE                           Ted Cruz                              PRECINCT 403                                           01 
01080030031000178REP       US Senator GRAYSON COUNTYWIDE                           Ted Cruz                              PRECINCT 404                                           01 
01080030032000018REP       US Senator GRAYSON COUNTYWIDE                           Ted Cruz                              PRECINCT 405                                           01 
01080030033000118REP       US Senator GRAYSON COUNTYWIDE                           Ted Cruz                              PRECINCT 406                                           01 
01080030034000002REP       US Senator GRAYSON COUNTYWIDE                           Ted Cruz                              PRECINCT 407                                           01 
01080030035000059REP       US Senator GRAYSON COUNTYWIDE                           Ted Cruz                              PRECINCT 408                                           01 
01080030036000226REP       US Senator GRAYSON COUNTYWIDE                           Ted Cruz                              PRECINCT 409                                           01 
01080040001000042REP       US Senator GRAYSON COUNTYWIDE                           Tom Leppert                           PRECINCT 101                                           01 
01080040002000011REP       US Senator GRAYSON COUNTYWIDE                           Tom Leppert                           PRECINCT 102                                           01 
01080040003000009REP       US Senator GRAYSON COUNTYWIDE                           Tom Leppert                           PRECINCT 103                                           01 
01080040004000025REP       US Senator GRAYSON COUNTYWIDE                           Tom Leppert                           PRECINCT 104                                           01 
01080040005000100REP       US Senator GRAYSON COUNTYWIDE                           Tom Leppert                           PRECINCT 105                                           01 
01080040006000052REP       US Senator GRAYSON COUNTYWIDE                           Tom Leppert                           PRECINCT 106                                           01 
01080040007000035REP       US Senator GRAYSON COUNTYWIDE                           Tom Leppert                           PRECINCT 107                                           01 
01080040008000026REP       US Senator GRAYSON COUNTYWIDE                           Tom Leppert                           PRECINCT 108                                           01 
01080040009000065REP       US Senator GRAYSON COUNTYWIDE                           Tom Leppert                           PRECINCT 201                                           01 
01080040010000037REP       US Senator GRAYSON COUNTYWIDE                           Tom Leppert                           PRECINCT 202                                           01 
01080040011000005REP       US Senator GRAYSON COUNTYWIDE                           Tom Leppert                           PRECINCT 203                                           01 
01080040012000022REP       US Senator GRAYSON COUNTYWIDE                           Tom Leppert                           PRECINCT 204                                           01 
01080040013000057REP       US Senator GRAYSON COUNTYWIDE                           Tom Leppert                           PRECINCT 205                                           01 
01080040014000032REP       US Senator GRAYSON COUNTYWIDE                           Tom Leppert                           PRECINCT 206                                           01 
01080040015000020REP       US Senator GRAYSON COUNTYWIDE                           Tom Leppert                           PRECINCT 207                                           01 
01080040016000029REP       US Senator GRAYSON COUNTYWIDE                           Tom Leppert                           PRECINCT 208                                           01 
01080040017000027REP       US Senator GRAYSON COUNTYWIDE                           Tom Leppert                           PRECINCT 209                                           01 
01080040018000027REP       US Senator GRAYSON COUNTYWIDE                           Tom Leppert                           PRECINCT 210                                           01 
01080040019000027REP       US Senator GRAYSON COUNTYWIDE                           Tom Leppert                           PRECINCT 301                                           01 
01080040020000101REP       US Senator GRAYSON COUNTYWIDE                           Tom Leppert                           PRECINCT 302                                           01 
01080040021000020REP       US Senator GRAYSON COUNTYWIDE                           Tom Leppert                           PRECINCT 303                                           01 
01080040022000101REP       US Senator GRAYSON COUNTYWIDE                           Tom Leppert                           PRECINCT 304                                           01 
01080040023000030REP       US Senator GRAYSON COUNTYWIDE                           Tom Leppert                           PRECINCT 305                                           01 
01080040024000092REP       US Senator GRAYSON COUNTYWIDE                           Tom Leppert                           PRECINCT 306                                           01 
01080040025000045REP       US Senator GRAYSON COUNTYWIDE                           Tom Leppert                           PRECINCT 307                                           01 
01080040026000027REP       US Senator GRAYSON COUNTYWIDE                           Tom Leppert                           PRECINCT 308                                           01 
01080040027000027REP       US Senator GRAYSON COUNTYWIDE                           Tom Leppert                           PRECINCT 309                                           01 
01080040028000017REP       US Senator GRAYSON COUNTYWIDE                           Tom Leppert                           PRECINCT 401                                           01 
01080040029000027REP       US Senator GRAYSON COUNTYWIDE                           Tom Leppert                           PRECINCT 402                                           01 
01080040030000058REP       US Senator GRAYSON COUNTYWIDE                           Tom Leppert                           PRECINCT 403                                           01 
01080040031000051REP       US Senator GRAYSON COUNTYWIDE                           Tom Leppert                           PRECINCT 404                                           01 
01080040032000009REP       US Senator GRAYSON COUNTYWIDE                           Tom Leppert                           PRECINCT 405                                           01 
01080040033000049REP       US Senator GRAYSON COUNTYWIDE                           Tom Leppert                           PRECINCT 406                                           01 
01080040034000003REP       US Senator GRAYSON COUNTYWIDE                           Tom Leppert                           PRECINCT 407                                           01 
01080040035000018REP       US Senator GRAYSON COUNTYWIDE                           Tom Leppert                           PRECINCT 408                                           01 
01080040036000136REP       US Senator GRAYSON COUNTYWIDE                           Tom Leppert                           PRECINCT 409                                           01 
01080050001000167REP       US Senator GRAYSON COUNTYWIDE                           David Dewhurst                        PRECINCT 101                                           01 
01080050002000035REP       US Senator GRAYSON COUNTYWIDE                           David Dewhurst                        PRECINCT 102                                           01 
01080050003000053REP       US Senator GRAYSON COUNTYWIDE                           David Dewhurst                        PRECINCT 103                                           01 
01080050004000074REP       US Senator GRAYSON COUNTYWIDE                           David Dewhurst                        PRECINCT 104                                           01 
01080050005000193REP       US Senator GRAYSON COUNTYWIDE                           David Dewhurst                        PRECINCT 105                                           01 
01080050006000115REP       US Senator GRAYSON COUNTYWIDE                           David Dewhurst                        PRECINCT 106                                           01 
01080050007000117REP       US Senator GRAYSON COUNTYWIDE                           David Dewhurst                        PRECINCT 107                                           01 
01080050008000114REP       US Senator GRAYSON COUNTYWIDE                           David Dewhurst                        PRECINCT 108                                           01 
01080050009000225REP       US Senator GRAYSON COUNTYWIDE                           David Dewhurst                        PRECINCT 201                                           01 
01080050010000167REP       US Senator GRAYSON COUNTYWIDE                           David Dewhurst                        PRECINCT 202                                           01 
01080050011000028REP       US Senator GRAYSON COUNTYWIDE                           David Dewhurst                        PRECINCT 203                                           01 
01080050012000090REP       US Senator GRAYSON COUNTYWIDE                           David Dewhurst                        PRECINCT 204                                           01 
