01040010001000006NON       President                                               John Wolfe                            PCT 001                                                01 
01040010002000027NON       President                                               John Wolfe                            PCT 002                                                01 
01040010003000024NON       President                                               John Wolfe                            PCT 003                                                01 
01040010004000027NON       President                                               John Wolfe                            PCT 004                                                01 
01040010005000011NON       President                                               John Wolfe                            PCT 005                                                01 
01040010006000011NON       President                                               John Wolfe                            PCT 006                                                01 
01040010007000029NON       President                                               John Wolfe                            PCT 007                                                01 
01040010008000008NON       President                                               John Wolfe                            PCT 008                                                01 
01040010009000017NON       President                                               John Wolfe                            PCT 009                                                01 
01040010010000016NON       President                                               John Wolfe                            PCT 010                                                01 
01040010011000026NON       President                                               John Wolfe                            PCT 011                                                01 
01040010012000002NON       President                                               John Wolfe                            PCT 012                                                01 
01040010013000035NON       President                                               John Wolfe                            PCT 013                                                01 
01040010014000026NON       President                                               John Wolfe                            PCT 014                                                01 
01040010015000007NON       President                                               John Wolfe                            PCT 015                                                01 
01040010016000048NON       President                                               John Wolfe                            PCT 016                                                01 
01040010017000035NON       President                                               John Wolfe                            PCT 017                                                01 
01040010018000004NON       President                                               John Wolfe                            PCT 018                                                01 
01040010019000009NON       President                                               John Wolfe                            PCT 019                                                01 
01040010020000001NON       President                                               John Wolfe                            PCT 020                                                01 
01040010021000005NON       President                                               John Wolfe                            PCT 021                                                01 
01040010022000014NON       President                                               John Wolfe                            PCT 022                                                01 
01040010023000024NON       President                                               John Wolfe                            PCT 023                                                01 
01040010024000006NON       President                                               John Wolfe                            PCT 024                                                01 
01040010025000019NON       President                                               John Wolfe                            PCT 025                                                01 
01040010026000005NON       President                                               John Wolfe                            PCT 026                                                01 
01040010027000006NON       President                                               John Wolfe                            PCT 027                                                01 
01040010028000004NON       President                                               John Wolfe                            PCT 028                                                01 
01040010029000000NON       President                                               John Wolfe                            PCT 029                                                01 
01040010030000023NON       President                                               John Wolfe                            PCT 030                                                01 
01040010031000010NON       President                                               John Wolfe                            PCT 031                                                01 
01040010032000024NON       President                                               John Wolfe                            PCT 032                                                01 
01040010033000023NON       President                                               John Wolfe                            PCT 033                                                01 
01040010034000006NON       President                                               John Wolfe                            PCT 034                                                01 
01040010035000025NON       President                                               John Wolfe                            PCT 035                                                01 
01040010036000038NON       President                                               John Wolfe                            PCT 036                                                01 
01040010037000003NON       President                                               John Wolfe                            PCT 037                                                01 
01040010038000009NON       President                                               John Wolfe                            PCT 038                                                01 
01040010039000012NON       President                                               John Wolfe                            PCT 039                                                01 
01040010040000062NON       President                                               John Wolfe                            PCT 040                                                01 
01040010041000039NON       President                                               John Wolfe                            PCT 041                                                01 
01040010042000049NON       President                                               John Wolfe                            PCT 042                                                01 
01040010043000030NON       President                                               John Wolfe                            PCT 043                                                01 
01040010044000009NON       President                                               John Wolfe                            PCT 044                                                01 
01040010045000016NON       President                                               John Wolfe                            PCT 045                                                01 
01040010046000002NON       President                                               John Wolfe                            PCT 046                                                01 
01040010047000018NON       President                                               John Wolfe                            PCT 047                                                01 
01040010048000026NON       President                                               John Wolfe                            PCT 048                                                01 
01040010049000014NON       President                                               John Wolfe                            PCT 049                                                01 
01040010050000022NON       President                                               John Wolfe                            PCT 050                                                01 
01040010051000016NON       President                                               John Wolfe                            PCT 051                                                01 
01040010052000042NON       President                                               John Wolfe                            PCT 052                                                01 
01040010053000047NON       President                                               John Wolfe                            PCT 053                                                01 
01040010054000004NON       President                                               John Wolfe                            PCT 054                                                01 
01040010055000039NON       President                                               John Wolfe                            PCT 055                                                01 
01040010056000043NON       President                                               John Wolfe                            PCT 056                                                01 
01040010057000015NON       President                                               John Wolfe                            PCT 057                                                01 
01040010058000034NON       President                                               John Wolfe                            PCT 058                                                01 
01040010059000013NON       President                                               John Wolfe                            PCT 059                                                01 
01040010060000010NON       President                                               John Wolfe                            PCT 060                                                01 
01040010061000009NON       President                                               John Wolfe                            PCT 061                                                01 
01040010062000034NON       President                                               John Wolfe                            PCT 062                                                01 
01040010063000002NON       President                                               John Wolfe                            PCT 063                                                01 
01040010064000004NON       President                                               John Wolfe                            PCT 064                                                01 
01040010065000004NON       President                                               John Wolfe                            PCT 065                                                01 
01040010066000006NON       President                                               John Wolfe                            PCT 066                                                01 
01040010067000012NON       President                                               John Wolfe                            PCT 067                                                01 
01040010068000028NON       President                                               John Wolfe                            PCT 068                                                01 
01040010069000012NON       President                                               John Wolfe                            PCT 069                                                01 
01040010070000024NON       President                                               John Wolfe                            PCT 070                                                01 
01040010071000054NON       President                                               John Wolfe                            PCT 071                                                01 
01040010072000009NON       President                                               John Wolfe                            PCT 072                                                01 
01040010073000024NON       President                                               John Wolfe                            PCT 073                                                01 
01040010074000004NON       President                                               John Wolfe                            PCT 074                                                01 
01040010075000000NON       President                                               John Wolfe                            PCT 075                                                01 
01040010076000000NON       President                                               John Wolfe                            PCT 076                                                01 
01040010077000017NON       President                                               John Wolfe                            PCT 077                                                01 
01040010078000009NON       President                                               John Wolfe                            PCT 078                                                01 
01040010079000010NON       President                                               John Wolfe                            PCT 079                                                01 
01040010080000005NON       President                                               John Wolfe                            PCT 080                                                01 
01040010081000028NON       President                                               John Wolfe                            PCT 081                                                01 
01040010082000000NON       President                                               John Wolfe                            PCT 082                                                01 
01040010083000016NON       President                                               John Wolfe                            PCT 083                                                01 
01040010084000000NON       President                                               John Wolfe                            PCT 084                                                01 
01040010085000049NON       President                                               John Wolfe                            PCT 085                                                01 
01040010086000008NON       President                                               John Wolfe                            PCT 086                                                01 
01040010087000017NON       President                                               John Wolfe                            PCT 087                                                01 
01040010088000028NON       President                                               John Wolfe                            PCT 088                                                01 
01040010089000000NON       President                                               John Wolfe                            PCT 089                                                01 
01040010090000069NON       President                                               John Wolfe                            PCT 090                                                01 
01040010091000006NON       President                                               John Wolfe                            PCT 091                                                01 
01040010092000003NON       President                                               John Wolfe                            PCT 092                                                01 
01040010093000002NON       President                                               John Wolfe                            PCT 093                                                01 
01040010094000010NON       President                                               John Wolfe                            PCT 094                                                01 
01040010095000031NON       President                                               John Wolfe                            PCT 095                                                01 
01040010096000030NON       President                                               John Wolfe                            PT 096                                                 01 
01040010097000005NON       President                                               John Wolfe                            PCT 097                                                01 
01040010098000010NON       President                                               John Wolfe                            PCT 098                                                01 
01040010099000012NON       President                                               John Wolfe                            PCT 099                                                01 
01040010100000008NON       President                                               John Wolfe                            PCT 100                                                01 
01040010101000011NON       President                                               John Wolfe                            PCT 101                                                01 
01040010102000010NON       President                                               John Wolfe                            PCT 102                                                01 
01040010103000026NON       President                                               John Wolfe                            PCT 103                                                01 
01040010104000021NON       President                                               John Wolfe                            PCT 104                                                01 
01040010105000038NON       President                                               John Wolfe                            PCT 105                                                01 
01040010106000052NON       President                                               John Wolfe                            PCT 106                                                01 
01040010107000043NON       President                                               John Wolfe                            PCT 107                                                01 
01040010108000018NON       President                                               John Wolfe                            PCT 108                                                01 
01040010109000021NON       President                                               John Wolfe                            PCT 109                                                01 
01040010110000009NON       President                                               John Wolfe                            PCT 110                                                01 
01040010111000054NON       President                                               John Wolfe                            PCT 111                                                01 
01040010112000041NON       President                                               John Wolfe                            PCT 112                                                01 
01040010113000028NON       President                                               John Wolfe                            PCT 113                                                01 
01040010114000066NON       President                                               John Wolfe                            PCT 114                                                01 
01040010115000021NON       President                                               John Wolfe                            PCT 115                                                01 
01040010116000007NON       President                                               John Wolfe                            PCT 116                                                01 
01040010117000021NON       President                                               John Wolfe                            PCT 117                                                01 
01040010118000008NON       President                                               John Wolfe                            PCT 118                                                01 
01040010119000011NON       President                                               John Wolfe                            PCT 119                                                01 
01040010120000031NON       President                                               John Wolfe                            PCT 120                                                01 
01040010121000004NON       President                                               John Wolfe                            PCT 121                                                01 
01040010122000013NON       President                                               John Wolfe                            PCT 122                                                01 
01040010123000009NON       President                                               John Wolfe                            PCT 123                                                01 
01040010124000016NON       President                                               John Wolfe                            PCT 124                                                01 
01040010125000010NON       President                                               John Wolfe                            PCT 125                                                01 
01040010126000008NON       President                                               John Wolfe                            PCT 126                                                01 
01040010127000011NON       President                                               John Wolfe                            PCT 127                                                01 
01040010128000006NON       President                                               John Wolfe                            PCT 128                                                01 
01040010129000001NON       President                                               John Wolfe                            PCT 129                                                01 
01040010130000003NON       President                                               John Wolfe                            PCT 130                                                01 
01040010131000000NON       President                                               John Wolfe                            PCT 131                                                01 
01040010132000000NON       President                                               John Wolfe                            PCT 132                                                01 
01040010133000001NON       President                                               John Wolfe                            PCT 133                                                01 
01040010134000032NON       President                                               John Wolfe                            PCT 134                                                01 
01040010135000012NON       President                                               John Wolfe                            PCT 135                                                01 
01040010136000014NON       President                                               John Wolfe                            PCT 136                                                01 
01040010137000000NON       President                                               John Wolfe                            PCT 137                                                01 
01040010138000002NON       President                                               John Wolfe                            PCT 138                                                01 
01040010139000005NON       President                                               John Wolfe                            PCT 139                                                01 
01040010140000000NON       President                                               John Wolfe                            PCT 140                                                01 
01040010141000000NON       President                                               John Wolfe                            PCT 141                                                01 
01040010142000001NON       President                                               John Wolfe                            PCT 142                                                01 
01040010143000000NON       President                                               John Wolfe                            PCT 143                                                01 
01040010144000000NON       President                                               John Wolfe                            PCT 144                                                01 
01040010145000006NON       President                                               John Wolfe                            PCT 145                                                01 
01040010146000017NON       President                                               John Wolfe                            PCT 146                                                01 
01040010147000001NON       President                                               John Wolfe                            PCT 147                                                01 
01040010148000001NON       President                                               John Wolfe                            PCT 148                                                01 
01040010149000001NON       President                                               John Wolfe                            PCT 149                                                01 
01040010150000006NON       President                                               John Wolfe                            PCT 150                                                01 
01040010151000001NON       President                                               John Wolfe                            PCT 151                                                01 
01040010152000026NON       President                                               John Wolfe                            PCT 152                                                01 
01040010153000001NON       President                                               John Wolfe                            PCT 153                                                01 
01040010154000012NON       President                                               John Wolfe                            PCT 154                                                01 
01040010155000003NON       President                                               John Wolfe                            PCT 155                                                01 
01040010156000016NON       President                                               John Wolfe                            PCT 156                                                01 
01040010157000004NON       President                                               John Wolfe                            PCT 157                                                01 
01040010158000018NON       President                                               John Wolfe                            PCT 158                                                01 
01040010159000003NON       President                                               John Wolfe                            PCT 159                                                01 
01040010160000000NON       President                                               John Wolfe                            PCT 160                                                01 
01040010161000006NON       President                                               John Wolfe                            PCT 161                                                01 
01040010162000001NON       President                                               John Wolfe                            PCT 162                                                01 
01040010163000000NON       President                                               John Wolfe                            PCT 163                                                01 
01040010164000007NON       President                                               John Wolfe                            PCT 164                                                01 
01040010165000004NON       President                                               John Wolfe                            PCT 165                                                01 
01040010166000004NON       President                                               John Wolfe                            PCT 166                                                01 
01040010167000007NON       President                                               John Wolfe                            PCT 167                                                01 
01040010168000003NON       President                                               John Wolfe                            PCT 168                                                01 
01040010169000005NON       President                                               John Wolfe                            PCT 169                                                01 
01040010170000004NON       President                                               John Wolfe                            PCT 170                                                01 
01040010171000000NON       President                                               John Wolfe                            PCT 171                                                01 
01040010172000002NON       President                                               John Wolfe                            PCT 172                                                01 
01040010173000018NON       President                                               John Wolfe                            PCT 173                                                01 
01040010174000012NON       President                                               John Wolfe                            PCT 174                                                01 
01040010175000008NON       President                                               John Wolfe                            PCT 175                                                01 
01040010176000008NON       President                                               John Wolfe                            PCT 176                                                01 
01040010177000002NON       President                                               John Wolfe                            PCT 177                                                01 
01040010178000001NON       President                                               John Wolfe                            PCT 178                                                01 
01040010179000003NON       President                                               John Wolfe                            PCT 179                                                01 
01040010180000000NON       President                                               John Wolfe                            PCT 180                                                01 
01040010181000009NON       President                                               John Wolfe                            PCT 181                                                01 
01040010182000001NON       President                                               John Wolfe                            PCT 182                                                01 
01040010183000001NON       President                                               John Wolfe                            PCT 183                                                01 
01040010184000000NON       President                                               John Wolfe                            PCT 184                                                01 
01040010185000000NON       President                                               John Wolfe                            PCT 185                                                01 
01040010186000000NON       President                                               John Wolfe                            PCT 186                                                01 
01040010187000016NON       President                                               John Wolfe                            PCT 187                                                01 
01040010188000008NON       President                                               John Wolfe                            PCT 188                                                01 
01040010189000004NON       President                                               John Wolfe                            PCT 189                                                01 
01040010190000003NON       President                                               John Wolfe                            PCT 190                                                01 
01040010191000002NON       President                                               John Wolfe                            PCT 191                                                01 
01040010192000004NON       President                                               John Wolfe                            PCT 192                                                01 
01040010193000001NON       President                                               John Wolfe                            PCT 193                                                01 
01040010194000006NON       President                                               John Wolfe                            PCT 194                                                01 
01040010195000007NON       President                                               John Wolfe                            PCT 195                                                01 
01040010196000004NON       President                                               John Wolfe                            PCT 196                                                01 
01040010197000002NON       President                                               John Wolfe                            PCT 197                                                01 
01040010198000003NON       President                                               John Wolfe                            PCT 198                                                01 
01040010199000009NON       President                                               John Wolfe                            PCT 199                                                01 
01040010200000009NON       President                                               John Wolfe                            PCT 200                                                01 
01040010201000006NON       President                                               John Wolfe                            PCT 201                                                01 
01040010202000003NON       President                                               John Wolfe                            PCT 202                                                01 
01040010203000012NON       President                                               John Wolfe                            PCT 203                                                01 
01040010204000005NON       President                                               John Wolfe                            PCT 204                                                01 
01040010205000000NON       President                                               John Wolfe                            PCT 205                                                01 
01040010206000003NON       President                                               John Wolfe                            PCT 206                                                01 
01040010207000023NON       President                                               John Wolfe                            PCT 207                                                01 
01040010208000000NON       President                                               John Wolfe                            PCT 208                                                01 
01040010209000002NON       President                                               John Wolfe                            PCT 209                                                01 
01040010210000000NON       President                                               John Wolfe                            PCT 210                                                01 
01040010211000007NON       President                                               John Wolfe                            PCT 211                                                01 
01040010212000002NON       President                                               John Wolfe                            PCT 212                                                01 
01040010213000002NON       President                                               John Wolfe                            PCT 213                                                01 
01040010214000000NON       President                                               John Wolfe                            PCT 214                                                01 
01040010215000000NON       President                                               John Wolfe                            PCT 215                                                01 
01040010216000006NON       President                                               John Wolfe                            PCT 216                                                01 
01040010217000003NON       President                                               John Wolfe                            PCT 217                                                01 
01040010218000001NON       President                                               John Wolfe                            PCT 218                                                01 
01040010219000003NON       President                                               John Wolfe                            PCT 219                                                01 
01040010220000000NON       President                                               John Wolfe                            PCT 220                                                01 
01040010221000009NON       President                                               John Wolfe                            PCT 221                                                01 
01040010222000000NON       President                                               John Wolfe                            PCT 222                                                01 
01040010223000001NON       President                                               John Wolfe                            PCT 223                                                01 
01040010224000010NON       President                                               John Wolfe                            PCT 224                                                01 
01040010225000003NON       President                                               John Wolfe                            PCT 225                                                01 
01040010226000000NON       President                                               John Wolfe                            PCT 226                                                01 
01040010227000025NON       President                                               John Wolfe                            PCT 227                                                01 
01040010228000017NON       President                                               John Wolfe                            PCT 228                                                01 
01040010229000000NON       President                                               John Wolfe                            PCT 229                                                01 
01040010230000005NON       President                                               John Wolfe                            PCT 230                                                01 
01040010231000002NON       President                                               John Wolfe                            PCT 231                                                01 
01040010232000009NON       President                                               John Wolfe                            PCT 232                                                01 
01040010233000000NON       President                                               John Wolfe                            PCT 233                                                01 
01040010234000015NON       President                                               John Wolfe                            PCT 234                                                01 
01040010235000010NON       President                                               John Wolfe                            PCT 235                                                01 
01040010236000010NON       President                                               John Wolfe                            PCT 236                                                01 
01040010237000002NON       President                                               John Wolfe                            PCT 237                                                01 
01040010238000000NON       President                                               John Wolfe                            PCT 238                                                01 
01040010239000024NON       President                                               John Wolfe                            PCT 239                                                01 
01040010240000004NON       President                                               John Wolfe                            PCT 240                                                01 
01040010241000000NON       President                                               John Wolfe                            PCT 241                                                01 
01040010242000000NON       President                                               John Wolfe                            PCT 242                                                01 
01040010243000000NON       President                                               John Wolfe                            PCT 243                                                01 
01040010244000002NON       President                                               John Wolfe                            PCT 244                                                01 
01040010245000000NON       President                                               John Wolfe                            PCT 245                                                01 
01040010246000000NON       President                                               John Wolfe                            PCT 246                                                01 
01040010247000000NON       President                                               John Wolfe                            PCT 247                                                01 
01040010248000001NON       President                                               John Wolfe                            PCT 248                                                01 
01040010249000001NON       President                                               John Wolfe                            PCT 249                                                01 
01040010250000000NON       President                                               John Wolfe                            PCT 250                                                01 
01040010251000000NON       President                                               John Wolfe                            PCT 251                                                01 
01040010252000000NON       President                                               John Wolfe                            PCT 252                                                01 
01040010253000003NON       President                                               John Wolfe                            PCT 253                                                01 
01040010254000000NON       President                                               John Wolfe                            PCT 254                                                01 
01040010255000001NON       President                                               John Wolfe                            PCT 255                                                01 
01040010256000000NON       President                                               John Wolfe                            PCT 256                                                01 
01040010257000001NON       President                                               John Wolfe                            PCT 257                                                01 
01040020001000069NON       President                                               Barack Obama                          PCT 001                                                01 
01040020002000268NON       President                                               Barack Obama                          PCT 002                                                01 
01040020003000399NON       President                                               Barack Obama                          PCT 003                                                01 
01040020004000506NON       President                                               Barack Obama                          PCT 004                                                01 
01040020005000184NON       President                                               Barack Obama                          PCT 005                                                01 
01040020006000111NON       President                                               Barack Obama                          PCT 006                                                01 
01040020007000248NON       President                                               Barack Obama                          PCT 007                                                01 
01040020008000068NON       President                                               Barack Obama                          PCT 008                                                01 
01040020009000193NON       President                                               Barack Obama                          PCT 009                                                01 
01040020010000223NON       President                                               Barack Obama                          PCT 010                                                01 
01040020011000484NON       President                                               Barack Obama                          PCT 011                                                01 
01040020012000066NON       President                                               Barack Obama                          PCT 012                                                01 
01040020013000390NON       President                                               Barack Obama                          PCT 013                                                01 
01040020014000283NON       President                                               Barack Obama                          PCT 014                                                01 
01040020015000059NON       President                                               Barack Obama                          PCT 015                                                01 
01040020016000959NON       President                                               Barack Obama                          PCT 016                                                01 
01040020017000556NON       President                                               Barack Obama                          PCT 017                                                01 
01040020018000070NON       President                                               Barack Obama                          PCT 018                                                01 
01040020019000046NON       President                                               Barack Obama                          PCT 019                                                01 
01040020020000045NON       President                                               Barack Obama                          PCT 020                                                01 
01040020021000068NON       President                                               Barack Obama                          PCT 021                                                01 
01040020022000229NON       President                                               Barack Obama                          PCT 022                                                01 
01040020023000405NON       President                                               Barack Obama                          PCT 023                                                01 
01040020024000018NON       President                                               Barack Obama                          PCT 024                                                01 
01040020025000192NON       President                                               Barack Obama                          PCT 025                                                01 
01040020026000085NON       President                                               Barack Obama                          PCT 026                                                01 
01040020027000079NON       President                                               Barack Obama                          PCT 027                                                01 
01040020028000106NON       President                                               Barack Obama                          PCT 028                                                01 
01040020029000021NON       President                                               Barack Obama                          PCT 029                                                01 
01040020030000312NON       President                                               Barack Obama                          PCT 030                                                01 
01040020031000178NON       President                                               Barack Obama                          PCT 031                                                01 
01040020032000459NON       President                                               Barack Obama                          PCT 032                                                01 
01040020033000270NON       President                                               Barack Obama                          PCT 033                                                01 
01040020034000089NON       President                                               Barack Obama                          PCT 034                                                01 
01040020035000419NON       President                                               Barack Obama                          PCT 035                                                01 
01040020036000519NON       President                                               Barack Obama                          PCT 036                                                01 
01040020037000061NON       President                                               Barack Obama                          PCT 037                                                01 
01040020038000121NON       President                                               Barack Obama                          PCT 038                                                01 
01040020039000186NON       President                                               Barack Obama                          PCT 039                                                01 
01040020040000520NON       President                                               Barack Obama                          PCT 040                                                01 
01040020041000387NON       President                                               Barack Obama                          PCT 041                                                01 
01040020042000600NON       President                                               Barack Obama                          PCT 042                                                01 
01040020043000412NON       President                                               Barack Obama                          PCT 043                                                01 
01040020044000070NON       President                                               Barack Obama                          PCT 044                                                01 
01040020045000275NON       President                                               Barack Obama                          PCT 045                                                01 
01040020046000024NON       President                                               Barack Obama                          PCT 046                                                01 
01040020047000156NON       President                                               Barack Obama                          PCT 047                                                01 
01040020048000278NON       President                                               Barack Obama                          PCT 048                                                01 
01040020049000186NON       President                                               Barack Obama                          PCT 049                                                01 
01040020050000365NON       President                                               Barack Obama                          PCT 050                                                01 
01040020051000426NON       President                                               Barack Obama                          PCT 051                                                01 
01040020052000380NON       President                                               Barack Obama                          PCT 052                                                01 
01040020053000692NON       President                                               Barack Obama                          PCT 053                                                01 
01040020054000049NON       President                                               Barack Obama                          PCT 054                                                01 
01040020055000660NON       President                                               Barack Obama                          PCT 055                                                01 
01040020056000626NON       President                                               Barack Obama                          PCT 056                                                01 
01040020057000228NON       President                                               Barack Obama                          PCT 057                                                01 
01040020058000384NON       President                                               Barack Obama                          PCT 058                                                01 
01040020059000221NON       President                                               Barack Obama                          PCT 059                                                01 
01040020060000160NON       President                                               Barack Obama                          PCT 060                                                01 
01040020061000251NON       President                                               Barack Obama                          PCT 061                                                01 
01040020062000227NON       President                                               Barack Obama                          PCT 062                                                01 
01040020063000033NON       President                                               Barack Obama                          PCT 063                                                01 
01040020064000091NON       President                                               Barack Obama                          PCT 064                                                01 
01040020065000045NON       President                                               Barack Obama                          PCT 065                                                01 
01040020066000097NON       President                                               Barack Obama                          PCT 066                                                01 
01040020067000143NON       President                                               Barack Obama                          PCT 067                                                01 
01040020068000308NON       President                                               Barack Obama                          PCT 068                                                01 
01040020069000257NON       President                                               Barack Obama                          PCT 069                                                01 
01040020070000178NON       President                                               Barack Obama                          PCT 070                                                01 
01040020071000323NON       President                                               Barack Obama                          PCT 071                                                01 
01040020072000084NON       President                                               Barack Obama                          PCT 072                                                01 
01040020073000169NON       President                                               Barack Obama                          PCT 073                                                01 
01040020074000017NON       President                                               Barack Obama                          PCT 074                                                01 
01040020075000006NON       President                                               Barack Obama                          PCT 075                                                01 
01040020076000001NON       President                                               Barack Obama                          PCT 076                                                01 
01040020077000214NON       President                                               Barack Obama                          PCT 077                                                01 
01040020078000125NON       President                                               Barack Obama                          PCT 078                                                01 
01040020079000339NON       President                                               Barack Obama                          PCT 079                                                01 
01040020080000077NON       President                                               Barack Obama                          PCT 080                                                01 
01040020081000280NON       President                                               Barack Obama                          PCT 081                                                01 
01040020082000000NON       President                                               Barack Obama                          PCT 082                                                01 
01040020083000124NON       President                                               Barack Obama                          PCT 083                                                01 
01040020084000030NON       President                                               Barack Obama                          PCT 084                                                01 
01040020085000551NON       President                                               Barack Obama                          PCT 085                                                01 
01040020086000059NON       President                                               Barack Obama                          PCT 086                                                01 
01040020087000194NON       President                                               Barack Obama                          PCT 087                                                01 
01040020088000309NON       President                                               Barack Obama                          PCT 088                                                01 
01040020089000002NON       President                                               Barack Obama                          PCT 089                                                01 
01040020090001842NON       President                                               Barack Obama                          PCT 090                                                01 
01040020091000091NON       President                                               Barack Obama                          PCT 091                                                01 
01040020092000027NON       President                                               Barack Obama                          PCT 092                                                01 
01040020093000008NON       President                                               Barack Obama                          PCT 093                                                01 
01040020094000154NON       President                                               Barack Obama                          PCT 094                                                01 
01040020095000279NON       President                                               Barack Obama                          PCT 095                                                01 
01040020096000194NON       President                                               Barack Obama                          PT 096                                                 01 
01040020097000143NON       President                                               Barack Obama                          PCT 097                                                01 
01040020098000257NON       President                                               Barack Obama                          PCT 098                                                01 
01040020099000228NON       President                                               Barack Obama                          PCT 099                                                01 
01040020100000284NON       President                                               Barack Obama                          PCT 100                                                01 
01040020101000056NON       President                                               Barack Obama                          PCT 101                                                01 
01040020102000026NON       President                                               Barack Obama                          PCT 102                                                01 
01040020103000219NON       President                                               Barack Obama                          PCT 103                                                01 
01040020104000236NON       President                                               Barack Obama                          PCT 104                                                01 
01040020105000259NON       President                                               Barack Obama                          PCT 105                                                01 
01040020106000554NON       President                                               Barack Obama                          PCT 106                                                01 
01040020107000419NON       President                                               Barack Obama                          PCT 107                                                01 
01040020108000433NON       President                                               Barack Obama                          PCT 108                                                01 
01040020109000309NON       President                                               Barack Obama                          PCT 109                                                01 
01040020110000105NON       President                                               Barack Obama                          PCT 110                                                01 
01040020111000461NON       President                                               Barack Obama                          PCT 111                                                01 
01040020112000682NON       President                                               Barack Obama                          PCT 112                                                01 
01040020113000282NON       President                                               Barack Obama                          PCT 113                                                01 
01040020114000465NON       President                                               Barack Obama                          PCT 114                                                01 
01040020115000340NON       President                                               Barack Obama                          PCT 115                                                01 
01040020116000108NON       President                                               Barack Obama                          PCT 116                                                01 
01040020117000361NON       President                                               Barack Obama                          PCT 117                                                01 
01040020118000169NON       President                                               Barack Obama                          PCT 118                                                01 
01040020119000227NON       President                                               Barack Obama                          PCT 119                                                01 
01040020120000453NON       President                                               Barack Obama                          PCT 120                                                01 
01040020121000015NON       President                                               Barack Obama                          PCT 121                                                01 
01040020122000181NON       President                                               Barack Obama                          PCT 122                                                01 
01040020123000164NON       President                                               Barack Obama                          PCT 123                                                01 
01040020124000122NON       President                                               Barack Obama                          PCT 124                                                01 
01040020125000062NON       President                                               Barack Obama                          PCT 125                                                01 
01040020126000185NON       President                                               Barack Obama                          PCT 126                                                01 
01040020127000246NON       President                                               Barack Obama                          PCT 127                                                01 
01040020128000090NON       President                                               Barack Obama                          PCT 128                                                01 
01040020129000012NON       President                                               Barack Obama                          PCT 129                                                01 
01040020130000078NON       President                                               Barack Obama                          PCT 130                                                01 
01040020131000004NON       President                                               Barack Obama                          PCT 131                                                01 
01040020132000000NON       President                                               Barack Obama                          PCT 132                                                01 
01040020133000003NON       President                                               Barack Obama                          PCT 133                                                01 
01040020134000137NON       President                                               Barack Obama                          PCT 134                                                01 
01040020135000098NON       President                                               Barack Obama                          PCT 135                                                01 
01040020136000137NON       President                                               Barack Obama                          PCT 136                                                01 
01040020137000002NON       President                                               Barack Obama                          PCT 137                                                01 
01040020138000040NON       President                                               Barack Obama                          PCT 138                                                01 
01040020139000027NON       President                                               Barack Obama                          PCT 139                                                01 
01040020140000004NON       President                                               Barack Obama                          PCT 140                                                01 
01040020141000004NON       President                                               Barack Obama                          PCT 141                                                01 
01040020142000000NON       President                                               Barack Obama                          PCT 142                                                01 
01040020143000000NON       President                                               Barack Obama                          PCT 143                                                01 
01040020144000007NON       President                                               Barack Obama                          PCT 144                                                01 
01040020145000137NON       President                                               Barack Obama                          PCT 145                                                01 
01040020146000171NON       President                                               Barack Obama                          PCT 146                                                01 
01040020147000007NON       President                                               Barack Obama                          PCT 147                                                01 
01040020148000007NON       President                                               Barack Obama                          PCT 148                                                01 
01040020149000011NON       President                                               Barack Obama                          PCT 149                                                01 
01040020150000044NON       President                                               Barack Obama                          PCT 150                                                01 
01040020151000041NON       President                                               Barack Obama                          PCT 151                                                01 
01040020152000209NON       President                                               Barack Obama                          PCT 152                                                01 
01040020153000033NON       President                                               Barack Obama                          PCT 153                                                01 
01040020154000174NON       President                                               Barack Obama                          PCT 154                                                01 
01040020155000069NON       President                                               Barack Obama                          PCT 155                                                01 
01040020156000310NON       President                                               Barack Obama                          PCT 156                                                01 
01040020157000101NON       President                                               Barack Obama                          PCT 157                                                01 
01040020158000192NON       President                                               Barack Obama                          PCT 158                                                01 
01040020159000039NON       President                                               Barack Obama                          PCT 159                                                01 
01040020160000001NON       President                                               Barack Obama                          PCT 160                                                01 
01040020161000089NON       President                                               Barack Obama                          PCT 161                                                01 
01040020162000001NON       President                                               Barack Obama                          PCT 162                                                01 
01040020163000003NON       President                                               Barack Obama                          PCT 163                                                01 
01040020164000035NON       President                                               Barack Obama                          PCT 164                                                01 
01040020165000038NON       President                                               Barack Obama                          PCT 165                                                01 
01040020166000014NON       President                                               Barack Obama                          PCT 166                                                01 
01040020167000037NON       President                                               Barack Obama                          PCT 167                                                01 
01040020168000026NON       President                                               Barack Obama                          PCT 168                                                01 
01040020169000113NON       President                                               Barack Obama                          PCT 169                                                01 
01040020170000037NON       President                                               Barack Obama                          PCT 170                                                01 
01040020171000000NON       President                                               Barack Obama                          PCT 171                                                01 
01040020172000018NON       President                                               Barack Obama                          PCT 172                                                01 
01040020173000091NON       President                                               Barack Obama                          PCT 173                                                01 
01040020174000180NON       President                                               Barack Obama                          PCT 174                                                01 
01040020175000111NON       President                                               Barack Obama                          PCT 175                                                01 
01040020176000091NON       President                                               Barack Obama                          PCT 176                                                01 
01040020177000045NON       President                                               Barack Obama                          PCT 177                                                01 
01040020178000000NON       President                                               Barack Obama                          PCT 178                                                01 
01040020179000045NON       President                                               Barack Obama                          PCT 179                                                01 
01040020180000002NON       President                                               Barack Obama                          PCT 180                                                01 
01040020181000045NON       President                                               Barack Obama                          PCT 181                                                01 
01040020182000024NON       President                                               Barack Obama                          PCT 182                                                01 
01040020183000031NON       President                                               Barack Obama                          PCT 183                                                01 
01040020184000004NON       President                                               Barack Obama                          PCT 184                                                01 
01040020185000000NON       President                                               Barack Obama                          PCT 185                                                01 
01040020186000000NON       President                                               Barack Obama                          PCT 186                                                01 
01040020187000168NON       President                                               Barack Obama                          PCT 187                                                01 
01040020188000063NON       President                                               Barack Obama                          PCT 188                                                01 
01040020189000063NON       President                                               Barack Obama                          PCT 189                                                01 
01040020190000040NON       President                                               Barack Obama                          PCT 190                                                01 
01040020191000021NON       President                                               Barack Obama                          PCT 191                                                01 
01040020192000029NON       President                                               Barack Obama                          PCT 192                                                01 
01040020193000008NON       President                                               Barack Obama                          PCT 193                                                01 
01040020194000098NON       President                                               Barack Obama                          PCT 194                                                01 
01040020195000044NON       President                                               Barack Obama                          PCT 195                                                01 
01040020196000071NON       President                                               Barack Obama                          PCT 196                                                01 
01040020197000024NON       President                                               Barack Obama                          PCT 197                                                01 
01040020198000103NON       President                                               Barack Obama                          PCT 198                                                01 
01040020199000115NON       President                                               Barack Obama                          PCT 199                                                01 
01040020200000169NON       President                                               Barack Obama                          PCT 200                                                01 
01040020201000075NON       President                                               Barack Obama                          PCT 201                                                01 
01040020202000052NON       President                                               Barack Obama                          PCT 202                                                01 
01040020203000081NON       President                                               Barack Obama                          PCT 203                                                01 
01040020204000023NON       President                                               Barack Obama                          PCT 204                                                01 
01040020205000012NON       President                                               Barack Obama                          PCT 205                                                01 
01040020206000065NON       President                                               Barack Obama                          PCT 206                                                01 
01040020207000148NON       President                                               Barack Obama                          PCT 207                                                01 
01040020208000000NON       President                                               Barack Obama                          PCT 208                                                01 
01040020209000042NON       President                                               Barack Obama                          PCT 209                                                01 
01040020210000004NON       President                                               Barack Obama                          PCT 210                                                01 
01040020211000045NON       President                                               Barack Obama                          PCT 211                                                01 
01040020212000019NON       President                                               Barack Obama                          PCT 212                                                01 
01040020213000024NON       President                                               Barack Obama                          PCT 213                                                01 
01040020214000000NON       President                                               Barack Obama                          PCT 214                                                01 
01040020215000031NON       President                                               Barack Obama                          PCT 215                                                01 
01040020216000119NON       President                                               Barack Obama                          PCT 216                                                01 
01040020217000010NON       President                                               Barack Obama                          PCT 217                                                01 
01040020218000038NON       President                                               Barack Obama                          PCT 218                                                01 
01040020219000036NON       President                                               Barack Obama                          PCT 219                                                01 
01040020220000041NON       President                                               Barack Obama                          PCT 220                                                01 
01040020221000091NON       President                                               Barack Obama                          PCT 221                                                01 
01040020222000000NON       President                                               Barack Obama                          PCT 222                                                01 
01040020223000012NON       President                                               Barack Obama                          PCT 223                                                01 
01040020224000011NON       President                                               Barack Obama                          PCT 224                                                01 
01040020225000051NON       President                                               Barack Obama                          PCT 225                                                01 
01040020226000000NON       President                                               Barack Obama                          PCT 226                                                01 
01040020227000229NON       President                                               Barack Obama                          PCT 227                                                01 
01040020228000224NON       President                                               Barack Obama                          PCT 228                                                01 
01040020229000068NON       President                                               Barack Obama                          PCT 229                                                01 
01040020230000022NON       President                                               Barack Obama                          PCT 230                                                01 
01040020231000012NON       President                                               Barack Obama                          PCT 231                                                01 
01040020232000133NON       President                                               Barack Obama                          PCT 232                                                01 
01040020233000000NON       President                                               Barack Obama                          PCT 233                                                01 
01040020234000209NON       President                                               Barack Obama                          PCT 234                                                01 
01040020235000052NON       President                                               Barack Obama                          PCT 235                                                01 
01040020236000034NON       President                                               Barack Obama                          PCT 236                                                01 
01040020237000023NON       President                                               Barack Obama                          PCT 237                                                01 
01040020238000002NON       President                                               Barack Obama                          PCT 238                                                01 
01040020239000203NON       President                                               Barack Obama                          PCT 239                                                01 
01040020240000056NON       President                                               Barack Obama                          PCT 240                                                01 
01040020241000010NON       President                                               Barack Obama                          PCT 241                                                01 
01040020242000001NON       President                                               Barack Obama                          PCT 242                                                01 
01040020243000003NON       President                                               Barack Obama                          PCT 243                                                01 
01040020244000040NON       President                                               Barack Obama                          PCT 244                                                01 
01040020245000021NON       President                                               Barack Obama                          PCT 245                                                01 
01040020246000000NON       President                                               Barack Obama                          PCT 246                                                01 
01040020247000008NON       President                                               Barack Obama                          PCT 247                                                01 
01040020248000005NON       President                                               Barack Obama                          PCT 248                                                01 
01040020249000024NON       President                                               Barack Obama                          PCT 249                                                01 
01040020250000010NON       President                                               Barack Obama                          PCT 250                                                01 
01040020251000002NON       President                                               Barack Obama                          PCT 251                                                01 
01040020252000000NON       President                                               Barack Obama                          PCT 252                                                01 
01040020253000076NON       President                                               Barack Obama                          PCT 253                                                01 
01040020254000002NON       President                                               Barack Obama                          PCT 254                                                01 
01040020255000029NON       President                                               Barack Obama                          PCT 255                                                01 
01040020256000011NON       President                                               Barack Obama                          PCT 256                                                01 
01040020257000042NON       President                                               Barack Obama                          PCT 257                                                01 
01040030001000002NON       President                                               Bob Ely                               PCT 001                                                01 
01040030002000009NON       President                                               Bob Ely                               PCT 002                                                01 
01040030003000005NON       President                                               Bob Ely                               PCT 003                                                01 
01040030004000014NON       President                                               Bob Ely                               PCT 004                                                01 
01040030005000001NON       President                                               Bob Ely                               PCT 005                                                01 
01040030006000000NON       President                                               Bob Ely                               PCT 006                                                01 
01040030007000009NON       President                                               Bob Ely                               PCT 007                                                01 
01040030008000008NON       President                                               Bob Ely                               PCT 008                                                01 
01040030009000004NON       President                                               Bob Ely                               PCT 009                                                01 
01040030010000007NON       President                                               Bob Ely                               PCT 010                                                01 
01040030011000013NON       President                                               Bob Ely                               PCT 011                                                01 
01040030012000003NON       President                                               Bob Ely                               PCT 012                                                01 
01040030013000011NON       President                                               Bob Ely                               PCT 013                                                01 
01040030014000006NON       President                                               Bob Ely                               PCT 014                                                01 
01040030015000001NON       President                                               Bob Ely                               PCT 015                                                01 
01040030016000009NON       President                                               Bob Ely                               PCT 016                                                01 
01040030017000007NON       President                                               Bob Ely                               PCT 017                                                01 
01040030018000000NON       President                                               Bob Ely                               PCT 018                                                01 
01040030019000001NON       President                                               Bob Ely                               PCT 019                                                01 
01040030020000003NON       President                                               Bob Ely                               PCT 020                                                01 
01040030021000003NON       President                                               Bob Ely                               PCT 021                                                01 
01040030022000007NON       President                                               Bob Ely                               PCT 022                                                01 
01040030023000005NON       President                                               Bob Ely                               PCT 023                                                01 
01040030024000000NON       President                                               Bob Ely                               PCT 024                                                01 
01040030025000008NON       President                                               Bob Ely                               PCT 025                                                01 
01040030026000000NON       President                                               Bob Ely                               PCT 026                                                01 
01040030027000005NON       President                                               Bob Ely                               PCT 027                                                01 
01040030028000004NON       President                                               Bob Ely                               PCT 028                                                01 
01040030029000000NON       President                                               Bob Ely                               PCT 029                                                01 
01040030030000004NON       President                                               Bob Ely                               PCT 030                                                01 
01040030031000003NON       President                                               Bob Ely                               PCT 031                                                01 
01040030032000007NON       President                                               Bob Ely                               PCT 032                                                01 
01040030033000007NON       President                                               Bob Ely                               PCT 033                                                01 
01040030034000002NON       President                                               Bob Ely                               PCT 034                                                01 
01040030035000007NON       President                                               Bob Ely                               PCT 035                                                01 
01040030036000013NON       President                                               Bob Ely                               PCT 036                                                01 
01040030037000002NON       President                                               Bob Ely                               PCT 037                                                01 
01040030038000006NON       President                                               Bob Ely                               PCT 038                                                01 
