01310010001000001DEM       President HOOD COUNTYWIDE                               John Wolfe                            PCT 1 - ANNEX 1                                        01 
01310010002000000DEM       President HOOD COUNTYWIDE                               John Wolfe                            PCT 2 - LUTHERAN                                       01 
01310010003000002DEM       President HOOD COUNTYWIDE                               John Wolfe                            PCT 3 - LAKESIDE                                       01 
01310010004000001DEM       President HOOD COUNTYWIDE                               John Wolfe                            PCT 4 - FIRST BAPTIST                                  01 
01310010005000002DEM       President HOOD COUNTYWIDE                               John Wolfe                            PCT 5 - TOLAR                                          01 
01310010006000001DEM       President HOOD COUNTYWIDE                               John Wolfe                            PCT 7 - LIPAN                                          01 
01310010007000002DEM       President HOOD COUNTYWIDE                               John Wolfe                            PCT 8 - FAIRVIEW                                       01 
01310010008000000DEM       President HOOD COUNTYWIDE                               John Wolfe                            PCT 9 - GATEWAY                                        01 
01310010009000003DEM       President HOOD COUNTYWIDE                               John Wolfe                            PCT 10 - ACTON                                         01 
01310010010000001DEM       President HOOD COUNTYWIDE                               John Wolfe                            PCT 11 - TREATY OAKS                                   01 
01310010011000001DEM       President HOOD COUNTYWIDE                               John Wolfe                            PCT 12 - TRIPLE CROSS                                  01 
01310010012000003DEM       President HOOD COUNTYWIDE                               John Wolfe                            PCT 13 - CATH CH                                       01 
01310010013000001DEM       President HOOD COUNTYWIDE                               John Wolfe                            PCT 14 - LGCT                                          01 
01310010014000001DEM       President HOOD COUNTYWIDE                               John Wolfe                            PCT 15 - CRESSON                                       01 
01310010015000001DEM       President HOOD COUNTYWIDE                               John Wolfe                            PCT 16 - PECAN                                         01 
01310020001000001DEM       President HOOD COUNTYWIDE                               Darcy G. Richardson                   PCT 1 - ANNEX 1                                        01 
01310020002000004DEM       President HOOD COUNTYWIDE                               Darcy G. Richardson                   PCT 2 - LUTHERAN                                       01 
01310020003000002DEM       President HOOD COUNTYWIDE                               Darcy G. Richardson                   PCT 3 - LAKESIDE                                       01 
01310020004000001DEM       President HOOD COUNTYWIDE                               Darcy G. Richardson                   PCT 4 - FIRST BAPTIST                                  01 
01310020005000002DEM       President HOOD COUNTYWIDE                               Darcy G. Richardson                   PCT 5 - TOLAR                                          01 
01310020006000001DEM       President HOOD COUNTYWIDE                               Darcy G. Richardson                   PCT 7 - LIPAN                                          01 
01310020007000000DEM       President HOOD COUNTYWIDE                               Darcy G. Richardson                   PCT 8 - FAIRVIEW                                       01 
01310020008000000DEM       President HOOD COUNTYWIDE                               Darcy G. Richardson                   PCT 9 - GATEWAY                                        01 
01310020009000001DEM       President HOOD COUNTYWIDE                               Darcy G. Richardson                   PCT 10 - ACTON                                         01 
01310020010000000DEM       President HOOD COUNTYWIDE                               Darcy G. Richardson                   PCT 11 - TREATY OAKS                                   01 
01310020011000001DEM       President HOOD COUNTYWIDE                               Darcy G. Richardson                   PCT 12 - TRIPLE CROSS                                  01 
01310020012000002DEM       President HOOD COUNTYWIDE                               Darcy G. Richardson                   PCT 13 - CATH CH                                       01 
01310020013000002DEM       President HOOD COUNTYWIDE                               Darcy G. Richardson                   PCT 14 - LGCT                                          01 
01310020014000000DEM       President HOOD COUNTYWIDE                               Darcy G. Richardson                   PCT 15 - CRESSON                                       01 
01310020015000003DEM       President HOOD COUNTYWIDE                               Darcy G. Richardson                   PCT 16 - PECAN                                         01 
01310030001000021DEM       President HOOD COUNTYWIDE                               Barack Obama                          PCT 1 - ANNEX 1                                        01 
01310030002000043DEM       President HOOD COUNTYWIDE                               Barack Obama                          PCT 2 - LUTHERAN                                       01 
01310030003000040DEM       President HOOD COUNTYWIDE                               Barack Obama                          PCT 3 - LAKESIDE                                       01 
01310030004000015DEM       President HOOD COUNTYWIDE                               Barack Obama                          PCT 4 - FIRST BAPTIST                                  01 
01310030005000020DEM       President HOOD COUNTYWIDE                               Barack Obama                          PCT 5 - TOLAR                                          01 
01310030006000008DEM       President HOOD COUNTYWIDE                               Barack Obama                          PCT 7 - LIPAN                                          01 
01310030007000020DEM       President HOOD COUNTYWIDE                               Barack Obama                          PCT 8 - FAIRVIEW                                       01 
01310030008000026DEM       President HOOD COUNTYWIDE                               Barack Obama                          PCT 9 - GATEWAY                                        01 
01310030009000036DEM       President HOOD COUNTYWIDE                               Barack Obama                          PCT 10 - ACTON                                         01 
01310030010000017DEM       President HOOD COUNTYWIDE                               Barack Obama                          PCT 11 - TREATY OAKS                                   01 
01310030011000017DEM       President HOOD COUNTYWIDE                               Barack Obama                          PCT 12 - TRIPLE CROSS                                  01 
01310030012000022DEM       President HOOD COUNTYWIDE                               Barack Obama                          PCT 13 - CATH CH                                       01 
01310030013000035DEM       President HOOD COUNTYWIDE                               Barack Obama                          PCT 14 - LGCT                                          01 
01310030014000001DEM       President HOOD COUNTYWIDE                               Barack Obama                          PCT 15 - CRESSON                                       01 
01310030015000073DEM       President HOOD COUNTYWIDE                               Barack Obama                          PCT 16 - PECAN                                         01 
01310040001000000DEM       President HOOD COUNTYWIDE                               Bob Ely                               PCT 1 - ANNEX 1                                        01 
01310040002000000DEM       President HOOD COUNTYWIDE                               Bob Ely                               PCT 2 - LUTHERAN                                       01 
01310040003000002DEM       President HOOD COUNTYWIDE                               Bob Ely                               PCT 3 - LAKESIDE                                       01 
01310040004000002DEM       President HOOD COUNTYWIDE                               Bob Ely                               PCT 4 - FIRST BAPTIST                                  01 
01310040005000002DEM       President HOOD COUNTYWIDE                               Bob Ely                               PCT 5 - TOLAR                                          01 
01310040006000000DEM       President HOOD COUNTYWIDE                               Bob Ely                               PCT 7 - LIPAN                                          01 
01310040007000001DEM       President HOOD COUNTYWIDE                               Bob Ely                               PCT 8 - FAIRVIEW                                       01 
01310040008000003DEM       President HOOD COUNTYWIDE                               Bob Ely                               PCT 9 - GATEWAY                                        01 
01310040009000000DEM       President HOOD COUNTYWIDE                               Bob Ely                               PCT 10 - ACTON                                         01 
01310040010000000DEM       President HOOD COUNTYWIDE                               Bob Ely                               PCT 11 - TREATY OAKS                                   01 
01310040011000003DEM       President HOOD COUNTYWIDE                               Bob Ely                               PCT 12 - TRIPLE CROSS                                  01 
01310040012000001DEM       President HOOD COUNTYWIDE                               Bob Ely                               PCT 13 - CATH CH                                       01 
01310040013000001DEM       President HOOD COUNTYWIDE                               Bob Ely                               PCT 14 - LGCT                                          01 
01310040014000000DEM       President HOOD COUNTYWIDE                               Bob Ely                               PCT 15 - CRESSON                                       01 
01310040015000003DEM       President HOOD COUNTYWIDE                               Bob Ely                               PCT 16 - PECAN                                         01 
01310050001000000DEM       President HOOD COUNTYWIDE                               OVER VOTES                            PCT 1 - ANNEX 1                                        01 
01310050002000000DEM       President HOOD COUNTYWIDE                               OVER VOTES                            PCT 2 - LUTHERAN                                       01 
01310050003000000DEM       President HOOD COUNTYWIDE                               OVER VOTES                            PCT 3 - LAKESIDE                                       01 
01310050004000000DEM       President HOOD COUNTYWIDE                               OVER VOTES                            PCT 4 - FIRST BAPTIST                                  01 
01310050005000000DEM       President HOOD COUNTYWIDE                               OVER VOTES                            PCT 5 - TOLAR                                          01 
01310050006000000DEM       President HOOD COUNTYWIDE                               OVER VOTES                            PCT 7 - LIPAN                                          01 
01310050007000000DEM       President HOOD COUNTYWIDE                               OVER VOTES                            PCT 8 - FAIRVIEW                                       01 
01310050008000000DEM       President HOOD COUNTYWIDE                               OVER VOTES                            PCT 9 - GATEWAY                                        01 
01310050009000000DEM       President HOOD COUNTYWIDE                               OVER VOTES                            PCT 10 - ACTON                                         01 
01310050010000000DEM       President HOOD COUNTYWIDE                               OVER VOTES                            PCT 11 - TREATY OAKS                                   01 
01310050011000000DEM       President HOOD COUNTYWIDE                               OVER VOTES                            PCT 12 - TRIPLE CROSS                                  01 
01310050012000000DEM       President HOOD COUNTYWIDE                               OVER VOTES                            PCT 13 - CATH CH                                       01 
01310050013000000DEM       President HOOD COUNTYWIDE                               OVER VOTES                            PCT 14 - LGCT                                          01 
01310050014000000DEM       President HOOD COUNTYWIDE                               OVER VOTES                            PCT 15 - CRESSON                                       01 
01310050015000000DEM       President HOOD COUNTYWIDE                               OVER VOTES                            PCT 16 - PECAN                                         01 
01310060001000001DEM       President HOOD COUNTYWIDE                               UNDER VOTES                           PCT 1 - ANNEX 1                                        01 
01310060002000002DEM       President HOOD COUNTYWIDE                               UNDER VOTES                           PCT 2 - LUTHERAN                                       01 
01310060003000001DEM       President HOOD COUNTYWIDE                               UNDER VOTES                           PCT 3 - LAKESIDE                                       01 
01310060004000000DEM       President HOOD COUNTYWIDE                               UNDER VOTES                           PCT 4 - FIRST BAPTIST                                  01 
01310060005000004DEM       President HOOD COUNTYWIDE                               UNDER VOTES                           PCT 5 - TOLAR                                          01 
01310060006000001DEM       President HOOD COUNTYWIDE                               UNDER VOTES                           PCT 7 - LIPAN                                          01 
01310060007000003DEM       President HOOD COUNTYWIDE                               UNDER VOTES                           PCT 8 - FAIRVIEW                                       01 
01310060008000002DEM       President HOOD COUNTYWIDE                               UNDER VOTES                           PCT 9 - GATEWAY                                        01 
01310060009000000DEM       President HOOD COUNTYWIDE                               UNDER VOTES                           PCT 10 - ACTON                                         01 
01310060010000003DEM       President HOOD COUNTYWIDE                               UNDER VOTES                           PCT 11 - TREATY OAKS                                   01 
01310060011000001DEM       President HOOD COUNTYWIDE                               UNDER VOTES                           PCT 12 - TRIPLE CROSS                                  01 
01310060012000001DEM       President HOOD COUNTYWIDE                               UNDER VOTES                           PCT 13 - CATH CH                                       01 
01310060013000000DEM       President HOOD COUNTYWIDE                               UNDER VOTES                           PCT 14 - LGCT                                          01 
01310060014000002DEM       President HOOD COUNTYWIDE                               UNDER VOTES                           PCT 15 - CRESSON                                       01 
01310060015000004DEM       President HOOD COUNTYWIDE                               UNDER VOTES                           PCT 16 - PECAN                                         01 
01320010001000002DEM       United States Senator HOOD COUNTYWIDE                   Sean Hubbard                          PCT 1 - ANNEX 1                                        01 
01320010002000008DEM       United States Senator HOOD COUNTYWIDE                   Sean Hubbard                          PCT 2 - LUTHERAN                                       01 
01320010003000004DEM       United States Senator HOOD COUNTYWIDE                   Sean Hubbard                          PCT 3 - LAKESIDE                                       01 
01320010004000006DEM       United States Senator HOOD COUNTYWIDE                   Sean Hubbard                          PCT 4 - FIRST BAPTIST                                  01 
01320010005000004DEM       United States Senator HOOD COUNTYWIDE                   Sean Hubbard                          PCT 5 - TOLAR                                          01 
01320010006000000DEM       United States Senator HOOD COUNTYWIDE                   Sean Hubbard                          PCT 7 - LIPAN                                          01 
01320010007000003DEM       United States Senator HOOD COUNTYWIDE                   Sean Hubbard                          PCT 8 - FAIRVIEW                                       01 
01320010008000005DEM       United States Senator HOOD COUNTYWIDE                   Sean Hubbard                          PCT 9 - GATEWAY                                        01 
01320010009000008DEM       United States Senator HOOD COUNTYWIDE                   Sean Hubbard                          PCT 10 - ACTON                                         01 
01320010010000005DEM       United States Senator HOOD COUNTYWIDE                   Sean Hubbard                          PCT 11 - TREATY OAKS                                   01 
01320010011000002DEM       United States Senator HOOD COUNTYWIDE                   Sean Hubbard                          PCT 12 - TRIPLE CROSS                                  01 
01320010012000005DEM       United States Senator HOOD COUNTYWIDE                   Sean Hubbard                          PCT 13 - CATH CH                                       01 
01320010013000004DEM       United States Senator HOOD COUNTYWIDE                   Sean Hubbard                          PCT 14 - LGCT                                          01 
01320010014000001DEM       United States Senator HOOD COUNTYWIDE                   Sean Hubbard                          PCT 15 - CRESSON                                       01 
01320010015000017DEM       United States Senator HOOD COUNTYWIDE                   Sean Hubbard                          PCT 16 - PECAN                                         01 
01320020001000009DEM       United States Senator HOOD COUNTYWIDE                   Grady Yarbrough                       PCT 1 - ANNEX 1                                        01 
01320020002000008DEM       United States Senator HOOD COUNTYWIDE                   Grady Yarbrough                       PCT 2 - LUTHERAN                                       01 
01320020003000009DEM       United States Senator HOOD COUNTYWIDE                   Grady Yarbrough                       PCT 3 - LAKESIDE                                       01 
01320020004000006DEM       United States Senator HOOD COUNTYWIDE                   Grady Yarbrough                       PCT 4 - FIRST BAPTIST                                  01 
01320020005000008DEM       United States Senator HOOD COUNTYWIDE                   Grady Yarbrough                       PCT 5 - TOLAR                                          01 
01320020006000003DEM       United States Senator HOOD COUNTYWIDE                   Grady Yarbrough                       PCT 7 - LIPAN                                          01 
01320020007000007DEM       United States Senator HOOD COUNTYWIDE                   Grady Yarbrough                       PCT 8 - FAIRVIEW                                       01 
01320020008000004DEM       United States Senator HOOD COUNTYWIDE                   Grady Yarbrough                       PCT 9 - GATEWAY                                        01 
01320020009000009DEM       United States Senator HOOD COUNTYWIDE                   Grady Yarbrough                       PCT 10 - ACTON                                         01 
01320020010000005DEM       United States Senator HOOD COUNTYWIDE                   Grady Yarbrough                       PCT 11 - TREATY OAKS                                   01 
01320020011000005DEM       United States Senator HOOD COUNTYWIDE                   Grady Yarbrough                       PCT 12 - TRIPLE CROSS                                  01 
01320020012000008DEM       United States Senator HOOD COUNTYWIDE                   Grady Yarbrough                       PCT 13 - CATH CH                                       01 
01320020013000010DEM       United States Senator HOOD COUNTYWIDE                   Grady Yarbrough                       PCT 14 - LGCT                                          01 
01320020014000000DEM       United States Senator HOOD COUNTYWIDE                   Grady Yarbrough                       PCT 15 - CRESSON                                       01 
01320020015000020DEM       United States Senator HOOD COUNTYWIDE                   Grady Yarbrough                       PCT 16 - PECAN                                         01 
01320030001000005DEM       United States Senator HOOD COUNTYWIDE                   Paul Sadler                           PCT 1 - ANNEX 1                                        01 
01320030002000019DEM       United States Senator HOOD COUNTYWIDE                   Paul Sadler                           PCT 2 - LUTHERAN                                       01 
01320030003000022DEM       United States Senator HOOD COUNTYWIDE                   Paul Sadler                           PCT 3 - LAKESIDE                                       01 
01320030004000004DEM       United States Senator HOOD COUNTYWIDE                   Paul Sadler                           PCT 4 - FIRST BAPTIST                                  01 
01320030005000009DEM       United States Senator HOOD COUNTYWIDE                   Paul Sadler                           PCT 5 - TOLAR                                          01 
01320030006000006DEM       United States Senator HOOD COUNTYWIDE                   Paul Sadler                           PCT 7 - LIPAN                                          01 
01320030007000006DEM       United States Senator HOOD COUNTYWIDE                   Paul Sadler                           PCT 8 - FAIRVIEW                                       01 
01320030008000012DEM       United States Senator HOOD COUNTYWIDE                   Paul Sadler                           PCT 9 - GATEWAY                                        01 
01320030009000012DEM       United States Senator HOOD COUNTYWIDE                   Paul Sadler                           PCT 10 - ACTON                                         01 
01320030010000003DEM       United States Senator HOOD COUNTYWIDE                   Paul Sadler                           PCT 11 - TREATY OAKS                                   01 
01320030011000009DEM       United States Senator HOOD COUNTYWIDE                   Paul Sadler                           PCT 12 - TRIPLE CROSS                                  01 
01320030012000011DEM       United States Senator HOOD COUNTYWIDE                   Paul Sadler                           PCT 13 - CATH CH                                       01 
01320030013000013DEM       United States Senator HOOD COUNTYWIDE                   Paul Sadler                           PCT 14 - LGCT                                          01 
01320030014000002DEM       United States Senator HOOD COUNTYWIDE                   Paul Sadler                           PCT 15 - CRESSON                                       01 
01320030015000024DEM       United States Senator HOOD COUNTYWIDE                   Paul Sadler                           PCT 16 - PECAN                                         01 
01320040001000006DEM       United States Senator HOOD COUNTYWIDE                   Addie Dainell Allen                   PCT 1 - ANNEX 1                                        01 
01320040002000007DEM       United States Senator HOOD COUNTYWIDE                   Addie Dainell Allen                   PCT 2 - LUTHERAN                                       01 
01320040003000010DEM       United States Senator HOOD COUNTYWIDE                   Addie Dainell Allen                   PCT 3 - LAKESIDE                                       01 
01320040004000002DEM       United States Senator HOOD COUNTYWIDE                   Addie Dainell Allen                   PCT 4 - FIRST BAPTIST                                  01 
01320040005000006DEM       United States Senator HOOD COUNTYWIDE                   Addie Dainell Allen                   PCT 5 - TOLAR                                          01 
01320040006000001DEM       United States Senator HOOD COUNTYWIDE                   Addie Dainell Allen                   PCT 7 - LIPAN                                          01 
01320040007000005DEM       United States Senator HOOD COUNTYWIDE                   Addie Dainell Allen                   PCT 8 - FAIRVIEW                                       01 
01320040008000003DEM       United States Senator HOOD COUNTYWIDE                   Addie Dainell Allen                   PCT 9 - GATEWAY                                        01 
01320040009000008DEM       United States Senator HOOD COUNTYWIDE                   Addie Dainell Allen                   PCT 10 - ACTON                                         01 
01320040010000005DEM       United States Senator HOOD COUNTYWIDE                   Addie Dainell Allen                   PCT 11 - TREATY OAKS                                   01 
01320040011000005DEM       United States Senator HOOD COUNTYWIDE                   Addie Dainell Allen                   PCT 12 - TRIPLE CROSS                                  01 
01320040012000001DEM       United States Senator HOOD COUNTYWIDE                   Addie Dainell Allen                   PCT 13 - CATH CH                                       01 
01320040013000007DEM       United States Senator HOOD COUNTYWIDE                   Addie Dainell Allen                   PCT 14 - LGCT                                          01 
01320040014000000DEM       United States Senator HOOD COUNTYWIDE                   Addie Dainell Allen                   PCT 15 - CRESSON                                       01 
01320040015000013DEM       United States Senator HOOD COUNTYWIDE                   Addie Dainell Allen                   PCT 16 - PECAN                                         01 
01320050001000000DEM       United States Senator HOOD COUNTYWIDE                   OVER VOTES                            PCT 1 - ANNEX 1                                        01 
01320050002000000DEM       United States Senator HOOD COUNTYWIDE                   OVER VOTES                            PCT 2 - LUTHERAN                                       01 
01320050003000000DEM       United States Senator HOOD COUNTYWIDE                   OVER VOTES                            PCT 3 - LAKESIDE                                       01 
01320050004000000DEM       United States Senator HOOD COUNTYWIDE                   OVER VOTES                            PCT 4 - FIRST BAPTIST                                  01 
01320050005000000DEM       United States Senator HOOD COUNTYWIDE                   OVER VOTES                            PCT 5 - TOLAR                                          01 
01320050006000000DEM       United States Senator HOOD COUNTYWIDE                   OVER VOTES                            PCT 7 - LIPAN                                          01 
01320050007000000DEM       United States Senator HOOD COUNTYWIDE                   OVER VOTES                            PCT 8 - FAIRVIEW                                       01 
01320050008000000DEM       United States Senator HOOD COUNTYWIDE                   OVER VOTES                            PCT 9 - GATEWAY                                        01 
01320050009000000DEM       United States Senator HOOD COUNTYWIDE                   OVER VOTES                            PCT 10 - ACTON                                         01 
01320050010000000DEM       United States Senator HOOD COUNTYWIDE                   OVER VOTES                            PCT 11 - TREATY OAKS                                   01 
01320050011000000DEM       United States Senator HOOD COUNTYWIDE                   OVER VOTES                            PCT 12 - TRIPLE CROSS                                  01 
01320050012000000DEM       United States Senator HOOD COUNTYWIDE                   OVER VOTES                            PCT 13 - CATH CH                                       01 
01320050013000000DEM       United States Senator HOOD COUNTYWIDE                   OVER VOTES                            PCT 14 - LGCT                                          01 
01320050014000000DEM       United States Senator HOOD COUNTYWIDE                   OVER VOTES                            PCT 15 - CRESSON                                       01 
01320050015000000DEM       United States Senator HOOD COUNTYWIDE                   OVER VOTES                            PCT 16 - PECAN                                         01 
01320060001000002DEM       United States Senator HOOD COUNTYWIDE                   UNDER VOTES                           PCT 1 - ANNEX 1                                        01 
01320060002000006DEM       United States Senator HOOD COUNTYWIDE                   UNDER VOTES                           PCT 2 - LUTHERAN                                       01 
01320060003000002DEM       United States Senator HOOD COUNTYWIDE                   UNDER VOTES                           PCT 3 - LAKESIDE                                       01 
01320060004000001DEM       United States Senator HOOD COUNTYWIDE                   UNDER VOTES                           PCT 4 - FIRST BAPTIST                                  01 
01320060005000003DEM       United States Senator HOOD COUNTYWIDE                   UNDER VOTES                           PCT 5 - TOLAR                                          01 
01320060006000001DEM       United States Senator HOOD COUNTYWIDE                   UNDER VOTES                           PCT 7 - LIPAN                                          01 
01320060007000005DEM       United States Senator HOOD COUNTYWIDE                   UNDER VOTES                           PCT 8 - FAIRVIEW                                       01 
01320060008000007DEM       United States Senator HOOD COUNTYWIDE                   UNDER VOTES                           PCT 9 - GATEWAY                                        01 
01320060009000003DEM       United States Senator HOOD COUNTYWIDE                   UNDER VOTES                           PCT 10 - ACTON                                         01 
01320060010000003DEM       United States Senator HOOD COUNTYWIDE                   UNDER VOTES                           PCT 11 - TREATY OAKS                                   01 
01320060011000002DEM       United States Senator HOOD COUNTYWIDE                   UNDER VOTES                           PCT 12 - TRIPLE CROSS                                  01 
01320060012000004DEM       United States Senator HOOD COUNTYWIDE                   UNDER VOTES                           PCT 13 - CATH CH                                       01 
01320060013000005DEM       United States Senator HOOD COUNTYWIDE                   UNDER VOTES                           PCT 14 - LGCT                                          01 
01320060014000001DEM       United States Senator HOOD COUNTYWIDE                   UNDER VOTES                           PCT 15 - CRESSON                                       01 
01320060015000010DEM       United States Senator HOOD COUNTYWIDE                   UNDER VOTES                           PCT 16 - PECAN                                         01 
01330010001000021DEM       U.S. Rep District 11 HOOD COUNTYWIDE                    Jim Riley                             PCT 1 - ANNEX 1                                        01 
01330010002000039DEM       U.S. Rep District 11 HOOD COUNTYWIDE                    Jim Riley                             PCT 2 - LUTHERAN                                       01 
01330010003000044DEM       U.S. Rep District 11 HOOD COUNTYWIDE                    Jim Riley                             PCT 3 - LAKESIDE                                       01 
01330010004000016DEM       U.S. Rep District 11 HOOD COUNTYWIDE                    Jim Riley                             PCT 4 - FIRST BAPTIST                                  01 
01330010005000023DEM       U.S. Rep District 11 HOOD COUNTYWIDE                    Jim Riley                             PCT 5 - TOLAR                                          01 
01330010006000010DEM       U.S. Rep District 11 HOOD COUNTYWIDE                    Jim Riley                             PCT 7 - LIPAN                                          01 
01330010007000021DEM       U.S. Rep District 11 HOOD COUNTYWIDE                    Jim Riley                             PCT 8 - FAIRVIEW                                       01 
01330010008000025DEM       U.S. Rep District 11 HOOD COUNTYWIDE                    Jim Riley                             PCT 9 - GATEWAY                                        01 
01330010009000036DEM       U.S. Rep District 11 HOOD COUNTYWIDE                    Jim Riley                             PCT 10 - ACTON                                         01 
01330010010000016DEM       U.S. Rep District 11 HOOD COUNTYWIDE                    Jim Riley                             PCT 11 - TREATY OAKS                                   01 
01330010011000020DEM       U.S. Rep District 11 HOOD COUNTYWIDE                    Jim Riley                             PCT 12 - TRIPLE CROSS                                  01 
01330010012000024DEM       U.S. Rep District 11 HOOD COUNTYWIDE                    Jim Riley                             PCT 13 - CATH CH                                       01 
01330010013000033DEM       U.S. Rep District 11 HOOD COUNTYWIDE                    Jim Riley                             PCT 14 - LGCT                                          01 
01330010014000004DEM       U.S. Rep District 11 HOOD COUNTYWIDE                    Jim Riley                             PCT 15 - CRESSON                                       01 
01330010015000072DEM       U.S. Rep District 11 HOOD COUNTYWIDE                    Jim Riley                             PCT 16 - PECAN                                         01 
01330020001000000DEM       U.S. Rep District 11 HOOD COUNTYWIDE                    OVER VOTES                            PCT 1 - ANNEX 1                                        01 
01330020002000000DEM       U.S. Rep District 11 HOOD COUNTYWIDE                    OVER VOTES                            PCT 2 - LUTHERAN                                       01 
01330020003000000DEM       U.S. Rep District 11 HOOD COUNTYWIDE                    OVER VOTES                            PCT 3 - LAKESIDE                                       01 
01330020004000000DEM       U.S. Rep District 11 HOOD COUNTYWIDE                    OVER VOTES                            PCT 4 - FIRST BAPTIST                                  01 
01330020005000000DEM       U.S. Rep District 11 HOOD COUNTYWIDE                    OVER VOTES                            PCT 5 - TOLAR                                          01 
01330020006000000DEM       U.S. Rep District 11 HOOD COUNTYWIDE                    OVER VOTES                            PCT 7 - LIPAN                                          01 
01330020007000000DEM       U.S. Rep District 11 HOOD COUNTYWIDE                    OVER VOTES                            PCT 8 - FAIRVIEW                                       01 
01330020008000000DEM       U.S. Rep District 11 HOOD COUNTYWIDE                    OVER VOTES                            PCT 9 - GATEWAY                                        01 
01330020009000000DEM       U.S. Rep District 11 HOOD COUNTYWIDE                    OVER VOTES                            PCT 10 - ACTON                                         01 
01330020010000000DEM       U.S. Rep District 11 HOOD COUNTYWIDE                    OVER VOTES                            PCT 11 - TREATY OAKS                                   01 
01330020011000000DEM       U.S. Rep District 11 HOOD COUNTYWIDE                    OVER VOTES                            PCT 12 - TRIPLE CROSS                                  01 
01330020012000000DEM       U.S. Rep District 11 HOOD COUNTYWIDE                    OVER VOTES                            PCT 13 - CATH CH                                       01 
01330020013000000DEM       U.S. Rep District 11 HOOD COUNTYWIDE                    OVER VOTES                            PCT 14 - LGCT                                          01 
01330020014000000DEM       U.S. Rep District 11 HOOD COUNTYWIDE                    OVER VOTES                            PCT 15 - CRESSON                                       01 
01330020015000000DEM       U.S. Rep District 11 HOOD COUNTYWIDE                    OVER VOTES                            PCT 16 - PECAN                                         01 
01330030001000003DEM       U.S. Rep District 11 HOOD COUNTYWIDE                    UNDER VOTES                           PCT 1 - ANNEX 1                                        01 
01330030002000008DEM       U.S. Rep District 11 HOOD COUNTYWIDE                    UNDER VOTES                           PCT 2 - LUTHERAN                                       01 
01330030003000003DEM       U.S. Rep District 11 HOOD COUNTYWIDE                    UNDER VOTES                           PCT 3 - LAKESIDE                                       01 
01330030004000002DEM       U.S. Rep District 11 HOOD COUNTYWIDE                    UNDER VOTES                           PCT 4 - FIRST BAPTIST                                  01 
01330030005000007DEM       U.S. Rep District 11 HOOD COUNTYWIDE                    UNDER VOTES                           PCT 5 - TOLAR                                          01 
01330030006000001DEM       U.S. Rep District 11 HOOD COUNTYWIDE                    UNDER VOTES                           PCT 7 - LIPAN                                          01 
01330030007000005DEM       U.S. Rep District 11 HOOD COUNTYWIDE                    UNDER VOTES                           PCT 8 - FAIRVIEW                                       01 
01330030008000006DEM       U.S. Rep District 11 HOOD COUNTYWIDE                    UNDER VOTES                           PCT 9 - GATEWAY                                        01 
01330030009000004DEM       U.S. Rep District 11 HOOD COUNTYWIDE                    UNDER VOTES                           PCT 10 - ACTON                                         01 
01330030010000005DEM       U.S. Rep District 11 HOOD COUNTYWIDE                    UNDER VOTES                           PCT 11 - TREATY OAKS                                   01 
01330030011000003DEM       U.S. Rep District 11 HOOD COUNTYWIDE                    UNDER VOTES                           PCT 12 - TRIPLE CROSS                                  01 
01330030012000005DEM       U.S. Rep District 11 HOOD COUNTYWIDE                    UNDER VOTES                           PCT 13 - CATH CH                                       01 
01330030013000006DEM       U.S. Rep District 11 HOOD COUNTYWIDE                    UNDER VOTES                           PCT 14 - LGCT                                          01 
01330030014000000DEM       U.S. Rep District 11 HOOD COUNTYWIDE                    UNDER VOTES                           PCT 15 - CRESSON                                       01 
01330030015000011DEM       U.S. Rep District 11 HOOD COUNTYWIDE                    UNDER VOTES                           PCT 16 - PECAN                                         01 
01340010001000023DEM       Railroad Commissioner HOOD COUNTYWIDE                   Dale Henry                            PCT 1 - ANNEX 1                                        01 
01340010002000038DEM       Railroad Commissioner HOOD COUNTYWIDE                   Dale Henry                            PCT 2 - LUTHERAN                                       01 
01340010003000044DEM       Railroad Commissioner HOOD COUNTYWIDE                   Dale Henry                            PCT 3 - LAKESIDE                                       01 
01340010004000017DEM       Railroad Commissioner HOOD COUNTYWIDE                   Dale Henry                            PCT 4 - FIRST BAPTIST                                  01 
01340010005000023DEM       Railroad Commissioner HOOD COUNTYWIDE                   Dale Henry                            PCT 5 - TOLAR                                          01 
01340010006000009DEM       Railroad Commissioner HOOD COUNTYWIDE                   Dale Henry                            PCT 7 - LIPAN                                          01 
01340010007000020DEM       Railroad Commissioner HOOD COUNTYWIDE                   Dale Henry                            PCT 8 - FAIRVIEW                                       01 
01340010008000025DEM       Railroad Commissioner HOOD COUNTYWIDE                   Dale Henry                            PCT 9 - GATEWAY                                        01 
01340010009000036DEM       Railroad Commissioner HOOD COUNTYWIDE                   Dale Henry                            PCT 10 - ACTON                                         01 
01340010010000016DEM       Railroad Commissioner HOOD COUNTYWIDE                   Dale Henry                            PCT 11 - TREATY OAKS                                   01 
01340010011000019DEM       Railroad Commissioner HOOD COUNTYWIDE                   Dale Henry                            PCT 12 - TRIPLE CROSS                                  01 
01340010012000026DEM       Railroad Commissioner HOOD COUNTYWIDE                   Dale Henry                            PCT 13 - CATH CH                                       01 
01340010013000034DEM       Railroad Commissioner HOOD COUNTYWIDE                   Dale Henry                            PCT 14 - LGCT                                          01 
01340010014000004DEM       Railroad Commissioner HOOD COUNTYWIDE                   Dale Henry                            PCT 15 - CRESSON                                       01 
01340010015000070DEM       Railroad Commissioner HOOD COUNTYWIDE                   Dale Henry                            PCT 16 - PECAN                                         01 
01340020001000000DEM       Railroad Commissioner HOOD COUNTYWIDE                   OVER VOTES                            PCT 1 - ANNEX 1                                        01 
01340020002000000DEM       Railroad Commissioner HOOD COUNTYWIDE                   OVER VOTES                            PCT 2 - LUTHERAN                                       01 
01340020003000000DEM       Railroad Commissioner HOOD COUNTYWIDE                   OVER VOTES                            PCT 3 - LAKESIDE                                       01 
01340020004000000DEM       Railroad Commissioner HOOD COUNTYWIDE                   OVER VOTES                            PCT 4 - FIRST BAPTIST                                  01 
01340020005000000DEM       Railroad Commissioner HOOD COUNTYWIDE                   OVER VOTES                            PCT 5 - TOLAR                                          01 
01340020006000000DEM       Railroad Commissioner HOOD COUNTYWIDE                   OVER VOTES                            PCT 7 - LIPAN                                          01 
01340020007000000DEM       Railroad Commissioner HOOD COUNTYWIDE                   OVER VOTES                            PCT 8 - FAIRVIEW                                       01 
01340020008000000DEM       Railroad Commissioner HOOD COUNTYWIDE                   OVER VOTES                            PCT 9 - GATEWAY                                        01 
01340020009000000DEM       Railroad Commissioner HOOD COUNTYWIDE                   OVER VOTES                            PCT 10 - ACTON                                         01 
01340020010000000DEM       Railroad Commissioner HOOD COUNTYWIDE                   OVER VOTES                            PCT 11 - TREATY OAKS                                   01 
01340020011000000DEM       Railroad Commissioner HOOD COUNTYWIDE                   OVER VOTES                            PCT 12 - TRIPLE CROSS                                  01 
01340020012000000DEM       Railroad Commissioner HOOD COUNTYWIDE                   OVER VOTES                            PCT 13 - CATH CH                                       01 
01340020013000000DEM       Railroad Commissioner HOOD COUNTYWIDE                   OVER VOTES                            PCT 14 - LGCT                                          01 
01340020014000000DEM       Railroad Commissioner HOOD COUNTYWIDE                   OVER VOTES                            PCT 15 - CRESSON                                       01 
01340020015000000DEM       Railroad Commissioner HOOD COUNTYWIDE                   OVER VOTES                            PCT 16 - PECAN                                         01 
01340030001000001DEM       Railroad Commissioner HOOD COUNTYWIDE                   UNDER VOTES                           PCT 1 - ANNEX 1                                        01 
01340030002000009DEM       Railroad Commissioner HOOD COUNTYWIDE                   UNDER VOTES                           PCT 2 - LUTHERAN                                       01 
01340030003000003DEM       Railroad Commissioner HOOD COUNTYWIDE                   UNDER VOTES                           PCT 3 - LAKESIDE                                       01 
01340030004000002DEM       Railroad Commissioner HOOD COUNTYWIDE                   UNDER VOTES                           PCT 4 - FIRST BAPTIST                                  01 
01340030005000007DEM       Railroad Commissioner HOOD COUNTYWIDE                   UNDER VOTES                           PCT 5 - TOLAR                                          01 
01340030006000002DEM       Railroad Commissioner HOOD COUNTYWIDE                   UNDER VOTES                           PCT 7 - LIPAN                                          01 
01340030007000006DEM       Railroad Commissioner HOOD COUNTYWIDE                   UNDER VOTES                           PCT 8 - FAIRVIEW                                       01 
01340030008000006DEM       Railroad Commissioner HOOD COUNTYWIDE                   UNDER VOTES                           PCT 9 - GATEWAY                                        01 
01340030009000004DEM       Railroad Commissioner HOOD COUNTYWIDE                   UNDER VOTES                           PCT 10 - ACTON                                         01 
01340030010000005DEM       Railroad Commissioner HOOD COUNTYWIDE                   UNDER VOTES                           PCT 11 - TREATY OAKS                                   01 
01340030011000004DEM       Railroad Commissioner HOOD COUNTYWIDE                   UNDER VOTES                           PCT 12 - TRIPLE CROSS                                  01 
01340030012000003DEM       Railroad Commissioner HOOD COUNTYWIDE                   UNDER VOTES                           PCT 13 - CATH CH                                       01 
01340030013000005DEM       Railroad Commissioner HOOD COUNTYWIDE                   UNDER VOTES                           PCT 14 - LGCT                                          01 
01340030014000000DEM       Railroad Commissioner HOOD COUNTYWIDE                   UNDER VOTES                           PCT 15 - CRESSON                                       01 
01340030015000012DEM       Railroad Commissioner HOOD COUNTYWIDE                   UNDER VOTES                           PCT 16 - PECAN                                         01 
01350010001000021DEM       Justice, Supreme Court, Place 6 HOOD COUNTYWIDE         Michele Petty                         PCT 1 - ANNEX 1                                        01 
01350010002000035DEM       Justice, Supreme Court, Place 6 HOOD COUNTYWIDE         Michele Petty                         PCT 2 - LUTHERAN                                       01 
01350010003000042DEM       Justice, Supreme Court, Place 6 HOOD COUNTYWIDE         Michele Petty                         PCT 3 - LAKESIDE                                       01 
01350010004000016DEM       Justice, Supreme Court, Place 6 HOOD COUNTYWIDE         Michele Petty                         PCT 4 - FIRST BAPTIST                                  01 
01350010005000024DEM       Justice, Supreme Court, Place 6 HOOD COUNTYWIDE         Michele Petty                         PCT 5 - TOLAR                                          01 
01350010006000008DEM       Justice, Supreme Court, Place 6 HOOD COUNTYWIDE         Michele Petty                         PCT 7 - LIPAN                                          01 
01350010007000018DEM       Justice, Supreme Court, Place 6 HOOD COUNTYWIDE         Michele Petty                         PCT 8 - FAIRVIEW                                       01 
01350010008000025DEM       Justice, Supreme Court, Place 6 HOOD COUNTYWIDE         Michele Petty                         PCT 9 - GATEWAY                                        01 
01350010009000037DEM       Justice, Supreme Court, Place 6 HOOD COUNTYWIDE         Michele Petty                         PCT 10 - ACTON                                         01 
01350010010000016DEM       Justice, Supreme Court, Place 6 HOOD COUNTYWIDE         Michele Petty                         PCT 11 - TREATY OAKS                                   01 
01350010011000019DEM       Justice, Supreme Court, Place 6 HOOD COUNTYWIDE         Michele Petty                         PCT 12 - TRIPLE CROSS                                  01 
01350010012000025DEM       Justice, Supreme Court, Place 6 HOOD COUNTYWIDE         Michele Petty                         PCT 13 - CATH CH                                       01 
01350010013000029DEM       Justice, Supreme Court, Place 6 HOOD COUNTYWIDE         Michele Petty                         PCT 14 - LGCT                                          01 
01350010014000004DEM       Justice, Supreme Court, Place 6 HOOD COUNTYWIDE         Michele Petty                         PCT 15 - CRESSON                                       01 
01350010015000066DEM       Justice, Supreme Court, Place 6 HOOD COUNTYWIDE         Michele Petty                         PCT 16 - PECAN                                         01 
01350020001000000DEM       Justice, Supreme Court, Place 6 HOOD COUNTYWIDE         OVER VOTES                            PCT 1 - ANNEX 1                                        01 
01350020002000000DEM       Justice, Supreme Court, Place 6 HOOD COUNTYWIDE         OVER VOTES                            PCT 2 - LUTHERAN                                       01 
01350020003000000DEM       Justice, Supreme Court, Place 6 HOOD COUNTYWIDE         OVER VOTES                            PCT 3 - LAKESIDE                                       01 
01350020004000000DEM       Justice, Supreme Court, Place 6 HOOD COUNTYWIDE         OVER VOTES                            PCT 4 - FIRST BAPTIST                                  01 
01350020005000000DEM       Justice, Supreme Court, Place 6 HOOD COUNTYWIDE         OVER VOTES                            PCT 5 - TOLAR                                          01 
01350020006000000DEM       Justice, Supreme Court, Place 6 HOOD COUNTYWIDE         OVER VOTES                            PCT 7 - LIPAN                                          01 
01350020007000000DEM       Justice, Supreme Court, Place 6 HOOD COUNTYWIDE         OVER VOTES                            PCT 8 - FAIRVIEW                                       01 
01350020008000000DEM       Justice, Supreme Court, Place 6 HOOD COUNTYWIDE         OVER VOTES                            PCT 9 - GATEWAY                                        01 
01350020009000000DEM       Justice, Supreme Court, Place 6 HOOD COUNTYWIDE         OVER VOTES                            PCT 10 - ACTON                                         01 
01350020010000000DEM       Justice, Supreme Court, Place 6 HOOD COUNTYWIDE         OVER VOTES                            PCT 11 - TREATY OAKS                                   01 
01350020011000000DEM       Justice, Supreme Court, Place 6 HOOD COUNTYWIDE         OVER VOTES                            PCT 12 - TRIPLE CROSS                                  01 
01350020012000000DEM       Justice, Supreme Court, Place 6 HOOD COUNTYWIDE         OVER VOTES                            PCT 13 - CATH CH                                       01 
01350020013000000DEM       Justice, Supreme Court, Place 6 HOOD COUNTYWIDE         OVER VOTES                            PCT 14 - LGCT                                          01 
01350020014000000DEM       Justice, Supreme Court, Place 6 HOOD COUNTYWIDE         OVER VOTES                            PCT 15 - CRESSON                                       01 
01350020015000000DEM       Justice, Supreme Court, Place 6 HOOD COUNTYWIDE         OVER VOTES                            PCT 16 - PECAN                                         01 
01350030001000003DEM       Justice, Supreme Court, Place 6 HOOD COUNTYWIDE         UNDER VOTES                           PCT 1 - ANNEX 1                                        01 
01350030002000012DEM       Justice, Supreme Court, Place 6 HOOD COUNTYWIDE         UNDER VOTES                           PCT 2 - LUTHERAN                                       01 
01350030003000005DEM       Justice, Supreme Court, Place 6 HOOD COUNTYWIDE         UNDER VOTES                           PCT 3 - LAKESIDE                                       01 
01350030004000003DEM       Justice, Supreme Court, Place 6 HOOD COUNTYWIDE         UNDER VOTES                           PCT 4 - FIRST BAPTIST                                  01 
01350030005000006DEM       Justice, Supreme Court, Place 6 HOOD COUNTYWIDE         UNDER VOTES                           PCT 5 - TOLAR                                          01 
01350030006000003DEM       Justice, Supreme Court, Place 6 HOOD COUNTYWIDE         UNDER VOTES                           PCT 7 - LIPAN                                          01 
01350030007000008DEM       Justice, Supreme Court, Place 6 HOOD COUNTYWIDE         UNDER VOTES                           PCT 8 - FAIRVIEW                                       01 
01350030008000006DEM       Justice, Supreme Court, Place 6 HOOD COUNTYWIDE         UNDER VOTES                           PCT 9 - GATEWAY                                        01 
01350030009000003DEM       Justice, Supreme Court, Place 6 HOOD COUNTYWIDE         UNDER VOTES                           PCT 10 - ACTON                                         01 
01350030010000005DEM       Justice, Supreme Court, Place 6 HOOD COUNTYWIDE         UNDER VOTES                           PCT 11 - TREATY OAKS                                   01 
01350030011000004DEM       Justice, Supreme Court, Place 6 HOOD COUNTYWIDE         UNDER VOTES                           PCT 12 - TRIPLE CROSS                                  01 
01350030012000004DEM       Justice, Supreme Court, Place 6 HOOD COUNTYWIDE         UNDER VOTES                           PCT 13 - CATH CH                                       01 
01350030013000010DEM       Justice, Supreme Court, Place 6 HOOD COUNTYWIDE         UNDER VOTES                           PCT 14 - LGCT                                          01 
01350030014000000DEM       Justice, Supreme Court, Place 6 HOOD COUNTYWIDE         UNDER VOTES                           PCT 15 - CRESSON                                       01 
01350030015000015DEM       Justice, Supreme Court, Place 6 HOOD COUNTYWIDE         UNDER VOTES                           PCT 16 - PECAN                                         01 
01360010001000021DEM       Presiding Judge CT Appeals HOOD COUNTYWIDE              Keith Hampton                         PCT 1 - ANNEX 1                                        01 
01360010002000035DEM       Presiding Judge CT Appeals HOOD COUNTYWIDE              Keith Hampton                         PCT 2 - LUTHERAN                                       01 
01360010003000043DEM       Presiding Judge CT Appeals HOOD COUNTYWIDE              Keith Hampton                         PCT 3 - LAKESIDE                                       01 
01360010004000017DEM       Presiding Judge CT Appeals HOOD COUNTYWIDE              Keith Hampton                         PCT 4 - FIRST BAPTIST                                  01 
01360010005000023DEM       Presiding Judge CT Appeals HOOD COUNTYWIDE              Keith Hampton                         PCT 5 - TOLAR                                          01 
01360010006000008DEM       Presiding Judge CT Appeals HOOD COUNTYWIDE              Keith Hampton                         PCT 7 - LIPAN                                          01 
01360010007000021DEM       Presiding Judge CT Appeals HOOD COUNTYWIDE              Keith Hampton                         PCT 8 - FAIRVIEW                                       01 
01360010008000025DEM       Presiding Judge CT Appeals HOOD COUNTYWIDE              Keith Hampton                         PCT 9 - GATEWAY                                        01 
01360010009000036DEM       Presiding Judge CT Appeals HOOD COUNTYWIDE              Keith Hampton                         PCT 10 - ACTON                                         01 
01360010010000016DEM       Presiding Judge CT Appeals HOOD COUNTYWIDE              Keith Hampton                         PCT 11 - TREATY OAKS                                   01 
01360010011000019DEM       Presiding Judge CT Appeals HOOD COUNTYWIDE              Keith Hampton                         PCT 12 - TRIPLE CROSS                                  01 
01360010012000025DEM       Presiding Judge CT Appeals HOOD COUNTYWIDE              Keith Hampton                         PCT 13 - CATH CH                                       01 
01360010013000031DEM       Presiding Judge CT Appeals HOOD COUNTYWIDE              Keith Hampton                         PCT 14 - LGCT                                          01 
01360010014000004DEM       Presiding Judge CT Appeals HOOD COUNTYWIDE              Keith Hampton                         PCT 15 - CRESSON                                       01 
01360010015000064DEM       Presiding Judge CT Appeals HOOD COUNTYWIDE              Keith Hampton                         PCT 16 - PECAN                                         01 
01360020001000000DEM       Presiding Judge CT Appeals HOOD COUNTYWIDE              OVER VOTES                            PCT 1 - ANNEX 1                                        01 
01360020002000000DEM       Presiding Judge CT Appeals HOOD COUNTYWIDE              OVER VOTES                            PCT 2 - LUTHERAN                                       01 
01360020003000000DEM       Presiding Judge CT Appeals HOOD COUNTYWIDE              OVER VOTES                            PCT 3 - LAKESIDE                                       01 
01360020004000000DEM       Presiding Judge CT Appeals HOOD COUNTYWIDE              OVER VOTES                            PCT 4 - FIRST BAPTIST                                  01 
01360020005000000DEM       Presiding Judge CT Appeals HOOD COUNTYWIDE              OVER VOTES                            PCT 5 - TOLAR                                          01 
01360020006000000DEM       Presiding Judge CT Appeals HOOD COUNTYWIDE              OVER VOTES                            PCT 7 - LIPAN                                          01 
01360020007000000DEM       Presiding Judge CT Appeals HOOD COUNTYWIDE              OVER VOTES                            PCT 8 - FAIRVIEW                                       01 
01360020008000000DEM       Presiding Judge CT Appeals HOOD COUNTYWIDE              OVER VOTES                            PCT 9 - GATEWAY                                        01 
01360020009000000DEM       Presiding Judge CT Appeals HOOD COUNTYWIDE              OVER VOTES                            PCT 10 - ACTON                                         01 
01360020010000000DEM       Presiding Judge CT Appeals HOOD COUNTYWIDE              OVER VOTES                            PCT 11 - TREATY OAKS                                   01 
01360020011000000DEM       Presiding Judge CT Appeals HOOD COUNTYWIDE              OVER VOTES                            PCT 12 - TRIPLE CROSS                                  01 
01360020012000000DEM       Presiding Judge CT Appeals HOOD COUNTYWIDE              OVER VOTES                            PCT 13 - CATH CH                                       01 
01360020013000000DEM       Presiding Judge CT Appeals HOOD COUNTYWIDE              OVER VOTES                            PCT 14 - LGCT                                          01 
01360020014000000DEM       Presiding Judge CT Appeals HOOD COUNTYWIDE              OVER VOTES                            PCT 15 - CRESSON                                       01 
01360020015000000DEM       Presiding Judge CT Appeals HOOD COUNTYWIDE              OVER VOTES                            PCT 16 - PECAN                                         01 
01360030001000003DEM       Presiding Judge CT Appeals HOOD COUNTYWIDE              UNDER VOTES                           PCT 1 - ANNEX 1                                        01 
01360030002000012DEM       Presiding Judge CT Appeals HOOD COUNTYWIDE              UNDER VOTES                           PCT 2 - LUTHERAN                                       01 
01360030003000004DEM       Presiding Judge CT Appeals HOOD COUNTYWIDE              UNDER VOTES                           PCT 3 - LAKESIDE                                       01 
01360030004000002DEM       Presiding Judge CT Appeals HOOD COUNTYWIDE              UNDER VOTES                           PCT 4 - FIRST BAPTIST                                  01 
01360030005000007DEM       Presiding Judge CT Appeals HOOD COUNTYWIDE              UNDER VOTES                           PCT 5 - TOLAR                                          01 
01360030006000003DEM       Presiding Judge CT Appeals HOOD COUNTYWIDE              UNDER VOTES                           PCT 7 - LIPAN                                          01 
01360030007000005DEM       Presiding Judge CT Appeals HOOD COUNTYWIDE              UNDER VOTES                           PCT 8 - FAIRVIEW                                       01 
01360030008000006DEM       Presiding Judge CT Appeals HOOD COUNTYWIDE              UNDER VOTES                           PCT 9 - GATEWAY                                        01 
01360030009000004DEM       Presiding Judge CT Appeals HOOD COUNTYWIDE              UNDER VOTES                           PCT 10 - ACTON                                         01 
01360030010000005DEM       Presiding Judge CT Appeals HOOD COUNTYWIDE              UNDER VOTES                           PCT 11 - TREATY OAKS                                   01 
01360030011000004DEM       Presiding Judge CT Appeals HOOD COUNTYWIDE              UNDER VOTES                           PCT 12 - TRIPLE CROSS                                  01 
01360030012000004DEM       Presiding Judge CT Appeals HOOD COUNTYWIDE              UNDER VOTES                           PCT 13 - CATH CH                                       01 
01360030013000008DEM       Presiding Judge CT Appeals HOOD COUNTYWIDE              UNDER VOTES                           PCT 14 - LGCT                                          01 
01360030014000000DEM       Presiding Judge CT Appeals HOOD COUNTYWIDE              UNDER VOTES                           PCT 15 - CRESSON                                       01 
01360030015000018DEM       Presiding Judge CT Appeals HOOD COUNTYWIDE              UNDER VOTES                           PCT 16 - PECAN                                         01 
01370010001000021DEM       State Senator, District 22 HOOD COUNTYWIDE              Lyndon Laird                          PCT 1 - ANNEX 1                                        01 
01370010002000036DEM       State Senator, District 22 HOOD COUNTYWIDE              Lyndon Laird                          PCT 2 - LUTHERAN                                       01 
01370010003000045DEM       State Senator, District 22 HOOD COUNTYWIDE              Lyndon Laird                          PCT 3 - LAKESIDE                                       01 
01370010004000015DEM       State Senator, District 22 HOOD COUNTYWIDE              Lyndon Laird                          PCT 4 - FIRST BAPTIST                                  01 
01370010005000022DEM       State Senator, District 22 HOOD COUNTYWIDE              Lyndon Laird                          PCT 5 - TOLAR                                          01 
01370010006000008DEM       State Senator, District 22 HOOD COUNTYWIDE              Lyndon Laird                          PCT 7 - LIPAN                                          01 
01370010007000020DEM       State Senator, District 22 HOOD COUNTYWIDE              Lyndon Laird                          PCT 8 - FAIRVIEW                                       01 
01370010008000025DEM       State Senator, District 22 HOOD COUNTYWIDE              Lyndon Laird                          PCT 9 - GATEWAY                                        01 
01370010009000035DEM       State Senator, District 22 HOOD COUNTYWIDE              Lyndon Laird                          PCT 10 - ACTON                                         01 
01370010010000016DEM       State Senator, District 22 HOOD COUNTYWIDE              Lyndon Laird                          PCT 11 - TREATY OAKS                                   01 
01370010011000020DEM       State Senator, District 22 HOOD COUNTYWIDE              Lyndon Laird                          PCT 12 - TRIPLE CROSS                                  01 
01370010012000024DEM       State Senator, District 22 HOOD COUNTYWIDE              Lyndon Laird                          PCT 13 - CATH CH                                       01 
01370010013000030DEM       State Senator, District 22 HOOD COUNTYWIDE              Lyndon Laird                          PCT 14 - LGCT                                          01 
01370010014000004DEM       State Senator, District 22 HOOD COUNTYWIDE              Lyndon Laird                          PCT 15 - CRESSON                                       01 
01370010015000067DEM       State Senator, District 22 HOOD COUNTYWIDE              Lyndon Laird                          PCT 16 - PECAN                                         01 
01370020001000000DEM       State Senator, District 22 HOOD COUNTYWIDE              OVER VOTES                            PCT 1 - ANNEX 1                                        01 
01370020002000000DEM       State Senator, District 22 HOOD COUNTYWIDE              OVER VOTES                            PCT 2 - LUTHERAN                                       01 
01370020003000000DEM       State Senator, District 22 HOOD COUNTYWIDE              OVER VOTES                            PCT 3 - LAKESIDE                                       01 
01370020004000000DEM       State Senator, District 22 HOOD COUNTYWIDE              OVER VOTES                            PCT 4 - FIRST BAPTIST                                  01 
01370020005000000DEM       State Senator, District 22 HOOD COUNTYWIDE              OVER VOTES                            PCT 5 - TOLAR                                          01 
01370020006000000DEM       State Senator, District 22 HOOD COUNTYWIDE              OVER VOTES                            PCT 7 - LIPAN                                          01 
01370020007000000DEM       State Senator, District 22 HOOD COUNTYWIDE              OVER VOTES                            PCT 8 - FAIRVIEW                                       01 
01370020008000000DEM       State Senator, District 22 HOOD COUNTYWIDE              OVER VOTES                            PCT 9 - GATEWAY                                        01 
01370020009000000DEM       State Senator, District 22 HOOD COUNTYWIDE              OVER VOTES                            PCT 10 - ACTON                                         01 
01370020010000000DEM       State Senator, District 22 HOOD COUNTYWIDE              OVER VOTES                            PCT 11 - TREATY OAKS                                   01 
01370020011000000DEM       State Senator, District 22 HOOD COUNTYWIDE              OVER VOTES                            PCT 12 - TRIPLE CROSS                                  01 
01370020012000000DEM       State Senator, District 22 HOOD COUNTYWIDE              OVER VOTES                            PCT 13 - CATH CH                                       01 
01370020013000000DEM       State Senator, District 22 HOOD COUNTYWIDE              OVER VOTES                            PCT 14 - LGCT                                          01 
01370020014000000DEM       State Senator, District 22 HOOD COUNTYWIDE              OVER VOTES                            PCT 15 - CRESSON                                       01 
01370020015000000DEM       State Senator, District 22 HOOD COUNTYWIDE              OVER VOTES                            PCT 16 - PECAN                                         01 
01370030001000002DEM       State Senator, District 22 HOOD COUNTYWIDE              UNDER VOTES                           PCT 1 - ANNEX 1                                        01 
01370030002000011DEM       State Senator, District 22 HOOD COUNTYWIDE              UNDER VOTES                           PCT 2 - LUTHERAN                                       01 
01370030003000002DEM       State Senator, District 22 HOOD COUNTYWIDE              UNDER VOTES                           PCT 3 - LAKESIDE                                       01 
01370030004000003DEM       State Senator, District 22 HOOD COUNTYWIDE              UNDER VOTES                           PCT 4 - FIRST BAPTIST                                  01 
01370030005000008DEM       State Senator, District 22 HOOD COUNTYWIDE              UNDER VOTES                           PCT 5 - TOLAR                                          01 
01370030006000003DEM       State Senator, District 22 HOOD COUNTYWIDE              UNDER VOTES                           PCT 7 - LIPAN                                          01 
01370030007000006DEM       State Senator, District 22 HOOD COUNTYWIDE              UNDER VOTES                           PCT 8 - FAIRVIEW                                       01 
01370030008000006DEM       State Senator, District 22 HOOD COUNTYWIDE              UNDER VOTES                           PCT 9 - GATEWAY                                        01 
01370030009000005DEM       State Senator, District 22 HOOD COUNTYWIDE              UNDER VOTES                           PCT 10 - ACTON                                         01 
01370030010000005DEM       State Senator, District 22 HOOD COUNTYWIDE              UNDER VOTES                           PCT 11 - TREATY OAKS                                   01 
01370030011000003DEM       State Senator, District 22 HOOD COUNTYWIDE              UNDER VOTES                           PCT 12 - TRIPLE CROSS                                  01 
01370030012000005DEM       State Senator, District 22 HOOD COUNTYWIDE              UNDER VOTES                           PCT 13 - CATH CH                                       01 
01370030013000009DEM       State Senator, District 22 HOOD COUNTYWIDE              UNDER VOTES                           PCT 14 - LGCT                                          01 
01370030014000000DEM       State Senator, District 22 HOOD COUNTYWIDE              UNDER VOTES                           PCT 15 - CRESSON                                       01 
01370030015000016DEM       State Senator, District 22 HOOD COUNTYWIDE              UNDER VOTES                           PCT 16 - PECAN                                         01 
01450010001000023DEM       PROPOSITION 1 HOOD COUNTYWIDE                           FOR  (APOYA)                          PCT 1 - ANNEX 1                                        01Y
01450010002000037DEM       PROPOSITION 1 HOOD COUNTYWIDE                           FOR  (APOYA)                          PCT 2 - LUTHERAN                                       01Y
01450010003000039DEM       PROPOSITION 1 HOOD COUNTYWIDE                           FOR  (APOYA)                          PCT 3 - LAKESIDE                                       01Y
01450010004000017DEM       PROPOSITION 1 HOOD COUNTYWIDE                           FOR  (APOYA)                          PCT 4 - FIRST BAPTIST                                  01Y
01450010005000024DEM       PROPOSITION 1 HOOD COUNTYWIDE                           FOR  (APOYA)                          PCT 5 - TOLAR                                          01Y
01450010006000009DEM       PROPOSITION 1 HOOD COUNTYWIDE                           FOR  (APOYA)                          PCT 7 - LIPAN                                          01Y
01450010007000019DEM       PROPOSITION 1 HOOD COUNTYWIDE                           FOR  (APOYA)                          PCT 8 - FAIRVIEW                                       01Y
01450010008000022DEM       PROPOSITION 1 HOOD COUNTYWIDE                           FOR  (APOYA)                          PCT 9 - GATEWAY                                        01Y
01450010009000033DEM       PROPOSITION 1 HOOD COUNTYWIDE                           FOR  (APOYA)                          PCT 10 - ACTON                                         01Y
01450010010000018DEM       PROPOSITION 1 HOOD COUNTYWIDE                           FOR  (APOYA)                          PCT 11 - TREATY OAKS                                   01Y
01450010011000016DEM       PROPOSITION 1 HOOD COUNTYWIDE                           FOR  (APOYA)                          PCT 12 - TRIPLE CROSS                                  01Y
01450010012000024DEM       PROPOSITION 1 HOOD COUNTYWIDE                           FOR  (APOYA)                          PCT 13 - CATH CH                                       01Y
01450010013000031DEM       PROPOSITION 1 HOOD COUNTYWIDE                           FOR  (APOYA)                          PCT 14 - LGCT                                          01Y
01450010014000003DEM       PROPOSITION 1 HOOD COUNTYWIDE                           FOR  (APOYA)                          PCT 15 - CRESSON                                       01Y
01450010015000071DEM       PROPOSITION 1 HOOD COUNTYWIDE                           FOR  (APOYA)                          PCT 16 - PECAN                                         01Y
01450020001000001DEM       PROPOSITION 1 HOOD COUNTYWIDE                           AGAINST  (EN CONTRA)                  PCT 1 - ANNEX 1                                        01Y
01450020002000007DEM       PROPOSITION 1 HOOD COUNTYWIDE                           AGAINST  (EN CONTRA)                  PCT 2 - LUTHERAN                                       01Y
01450020003000007DEM       PROPOSITION 1 HOOD COUNTYWIDE                           AGAINST  (EN CONTRA)                  PCT 3 - LAKESIDE                                       01Y
01450020004000001DEM       PROPOSITION 1 HOOD COUNTYWIDE                           AGAINST  (EN CONTRA)                  PCT 4 - FIRST BAPTIST                                  01Y
01450020005000005DEM       PROPOSITION 1 HOOD COUNTYWIDE                           AGAINST  (EN CONTRA)                  PCT 5 - TOLAR                                          01Y
01450020006000002DEM       PROPOSITION 1 HOOD COUNTYWIDE                           AGAINST  (EN CONTRA)                  PCT 7 - LIPAN                                          01Y
01450020007000004DEM       PROPOSITION 1 HOOD COUNTYWIDE                           AGAINST  (EN CONTRA)                  PCT 8 - FAIRVIEW                                       01Y
01450020008000006DEM       PROPOSITION 1 HOOD COUNTYWIDE                           AGAINST  (EN CONTRA)                  PCT 9 - GATEWAY                                        01Y
01450020009000005DEM       PROPOSITION 1 HOOD COUNTYWIDE                           AGAINST  (EN CONTRA)                  PCT 10 - ACTON                                         01Y
01450020010000002DEM       PROPOSITION 1 HOOD COUNTYWIDE                           AGAINST  (EN CONTRA)                  PCT 11 - TREATY OAKS                                   01Y
01450020011000005DEM       PROPOSITION 1 HOOD COUNTYWIDE                           AGAINST  (EN CONTRA)                  PCT 12 - TRIPLE CROSS                                  01Y
01450020012000004DEM       PROPOSITION 1 HOOD COUNTYWIDE                           AGAINST  (EN CONTRA)                  PCT 13 - CATH CH                                       01Y
01450020013000006DEM       PROPOSITION 1 HOOD COUNTYWIDE                           AGAINST  (EN CONTRA)                  PCT 14 - LGCT                                          01Y
01450020014000001DEM       PROPOSITION 1 HOOD COUNTYWIDE                           AGAINST  (EN CONTRA)                  PCT 15 - CRESSON                                       01Y
01450020015000011DEM       PROPOSITION 1 HOOD COUNTYWIDE                           AGAINST  (EN CONTRA)                  PCT 16 - PECAN                                         01Y
01450030001000000DEM       PROPOSITION 1 HOOD COUNTYWIDE                           OVER VOTES                            PCT 1 - ANNEX 1                                        01Y
01450030002000000DEM       PROPOSITION 1 HOOD COUNTYWIDE                           OVER VOTES                            PCT 2 - LUTHERAN                                       01Y
01450030003000000DEM       PROPOSITION 1 HOOD COUNTYWIDE                           OVER VOTES                            PCT 3 - LAKESIDE                                       01Y
01450030004000000DEM       PROPOSITION 1 HOOD COUNTYWIDE                           OVER VOTES                            PCT 4 - FIRST BAPTIST                                  01Y
01450030005000000DEM       PROPOSITION 1 HOOD COUNTYWIDE                           OVER VOTES                            PCT 5 - TOLAR                                          01Y
01450030006000000DEM       PROPOSITION 1 HOOD COUNTYWIDE                           OVER VOTES                            PCT 7 - LIPAN                                          01Y
01450030007000000DEM       PROPOSITION 1 HOOD COUNTYWIDE                           OVER VOTES                            PCT 8 - FAIRVIEW                                       01Y
01450030008000000DEM       PROPOSITION 1 HOOD COUNTYWIDE                           OVER VOTES                            PCT 9 - GATEWAY                                        01Y
01450030009000000DEM       PROPOSITION 1 HOOD COUNTYWIDE                           OVER VOTES                            PCT 10 - ACTON                                         01Y
01450030010000000DEM       PROPOSITION 1 HOOD COUNTYWIDE                           OVER VOTES                            PCT 11 - TREATY OAKS                                   01Y
01450030011000000DEM       PROPOSITION 1 HOOD COUNTYWIDE                           OVER VOTES                            PCT 12 - TRIPLE CROSS                                  01Y
01450030012000000DEM       PROPOSITION 1 HOOD COUNTYWIDE                           OVER VOTES                            PCT 13 - CATH CH                                       01Y
01450030013000000DEM       PROPOSITION 1 HOOD COUNTYWIDE                           OVER VOTES                            PCT 14 - LGCT                                          01Y
01450030014000000DEM       PROPOSITION 1 HOOD COUNTYWIDE                           OVER VOTES                            PCT 15 - CRESSON                                       01Y
01450030015000000DEM       PROPOSITION 1 HOOD COUNTYWIDE                           OVER VOTES                            PCT 16 - PECAN                                         01Y
01450040001000000DEM       PROPOSITION 1 HOOD COUNTYWIDE                           UNDER VOTES                           PCT 1 - ANNEX 1                                        01Y
01450040002000004DEM       PROPOSITION 1 HOOD COUNTYWIDE                           UNDER VOTES                           PCT 2 - LUTHERAN                                       01Y
01450040003000001DEM       PROPOSITION 1 HOOD COUNTYWIDE                           UNDER VOTES                           PCT 3 - LAKESIDE                                       01Y
01450040004000001DEM       PROPOSITION 1 HOOD COUNTYWIDE                           UNDER VOTES                           PCT 4 - FIRST BAPTIST                                  01Y
01450040005000001DEM       PROPOSITION 1 HOOD COUNTYWIDE                           UNDER VOTES                           PCT 5 - TOLAR                                          01Y
01450040006000000DEM       PROPOSITION 1 HOOD COUNTYWIDE                           UNDER VOTES                           PCT 7 - LIPAN                                          01Y
01450040007000003DEM       PROPOSITION 1 HOOD COUNTYWIDE                           UNDER VOTES                           PCT 8 - FAIRVIEW                                       01Y
01450040008000003DEM       PROPOSITION 1 HOOD COUNTYWIDE                           UNDER VOTES                           PCT 9 - GATEWAY                                        01Y
01450040009000002DEM       PROPOSITION 1 HOOD COUNTYWIDE                           UNDER VOTES                           PCT 10 - ACTON                                         01Y
01450040010000001DEM       PROPOSITION 1 HOOD COUNTYWIDE                           UNDER VOTES                           PCT 11 - TREATY OAKS                                   01Y
01450040011000002DEM       PROPOSITION 1 HOOD COUNTYWIDE                           UNDER VOTES                           PCT 12 - TRIPLE CROSS                                  01Y
01450040012000001DEM       PROPOSITION 1 HOOD COUNTYWIDE                           UNDER VOTES                           PCT 13 - CATH CH                                       01Y
01450040013000002DEM       PROPOSITION 1 HOOD COUNTYWIDE                           UNDER VOTES                           PCT 14 - LGCT                                          01Y
01450040014000000DEM       PROPOSITION 1 HOOD COUNTYWIDE                           UNDER VOTES                           PCT 15 - CRESSON                                       01Y
01450040015000001DEM       PROPOSITION 1 HOOD COUNTYWIDE                           UNDER VOTES                           PCT 16 - PECAN                                         01Y
01460010001000023DEM       PROPOSITION 2 HOOD COUNTYWIDE                           FOR  (APOYA)                          PCT 1 - ANNEX 1                                        01Y
01460010002000043DEM       PROPOSITION 2 HOOD COUNTYWIDE                           FOR  (APOYA)                          PCT 2 - LUTHERAN                                       01Y
01460010003000044DEM       PROPOSITION 2 HOOD COUNTYWIDE                           FOR  (APOYA)                          PCT 3 - LAKESIDE                                       01Y
01460010004000017DEM       PROPOSITION 2 HOOD COUNTYWIDE                           FOR  (APOYA)                          PCT 4 - FIRST BAPTIST                                  01Y
01460010005000025DEM       PROPOSITION 2 HOOD COUNTYWIDE                           FOR  (APOYA)                          PCT 5 - TOLAR                                          01Y
01460010006000009DEM       PROPOSITION 2 HOOD COUNTYWIDE                           FOR  (APOYA)                          PCT 7 - LIPAN                                          01Y
01460010007000025DEM       PROPOSITION 2 HOOD COUNTYWIDE                           FOR  (APOYA)                          PCT 8 - FAIRVIEW                                       01Y
01460010008000026DEM       PROPOSITION 2 HOOD COUNTYWIDE                           FOR  (APOYA)                          PCT 9 - GATEWAY                                        01Y
01460010009000038DEM       PROPOSITION 2 HOOD COUNTYWIDE                           FOR  (APOYA)                          PCT 10 - ACTON                                         01Y
01460010010000020DEM       PROPOSITION 2 HOOD COUNTYWIDE                           FOR  (APOYA)                          PCT 11 - TREATY OAKS                                   01Y
01460010011000019DEM       PROPOSITION 2 HOOD COUNTYWIDE                           FOR  (APOYA)                          PCT 12 - TRIPLE CROSS                                  01Y
01460010012000028DEM       PROPOSITION 2 HOOD COUNTYWIDE                           FOR  (APOYA)                          PCT 13 - CATH CH                                       01Y
01460010013000035DEM       PROPOSITION 2 HOOD COUNTYWIDE                           FOR  (APOYA)                          PCT 14 - LGCT                                          01Y
01460010014000003DEM       PROPOSITION 2 HOOD COUNTYWIDE                           FOR  (APOYA)                          PCT 15 - CRESSON                                       01Y
01460010015000073DEM       PROPOSITION 2 HOOD COUNTYWIDE                           FOR  (APOYA)                          PCT 16 - PECAN                                         01Y
01460020001000001DEM       PROPOSITION 2 HOOD COUNTYWIDE                           AGAINST  (EN CONTRA)                  PCT 1 - ANNEX 1                                        01Y
01460020002000004DEM       PROPOSITION 2 HOOD COUNTYWIDE                           AGAINST  (EN CONTRA)                  PCT 2 - LUTHERAN                                       01Y
01460020003000002DEM       PROPOSITION 2 HOOD COUNTYWIDE                           AGAINST  (EN CONTRA)                  PCT 3 - LAKESIDE                                       01Y
01460020004000002DEM       PROPOSITION 2 HOOD COUNTYWIDE                           AGAINST  (EN CONTRA)                  PCT 4 - FIRST BAPTIST                                  01Y
01460020005000005DEM       PROPOSITION 2 HOOD COUNTYWIDE                           AGAINST  (EN CONTRA)                  PCT 5 - TOLAR                                          01Y
01460020006000002DEM       PROPOSITION 2 HOOD COUNTYWIDE                           AGAINST  (EN CONTRA)                  PCT 7 - LIPAN                                          01Y
01460020007000001DEM       PROPOSITION 2 HOOD COUNTYWIDE                           AGAINST  (EN CONTRA)                  PCT 8 - FAIRVIEW                                       01Y
01460020008000004DEM       PROPOSITION 2 HOOD COUNTYWIDE                           AGAINST  (EN CONTRA)                  PCT 9 - GATEWAY                                        01Y
01460020009000002DEM       PROPOSITION 2 HOOD COUNTYWIDE                           AGAINST  (EN CONTRA)                  PCT 10 - ACTON                                         01Y
01460020010000001DEM       PROPOSITION 2 HOOD COUNTYWIDE                           AGAINST  (EN CONTRA)                  PCT 11 - TREATY OAKS                                   01Y
01460020011000002DEM       PROPOSITION 2 HOOD COUNTYWIDE                           AGAINST  (EN CONTRA)                  PCT 12 - TRIPLE CROSS                                  01Y
01460020012000001DEM       PROPOSITION 2 HOOD COUNTYWIDE                           AGAINST  (EN CONTRA)                  PCT 13 - CATH CH                                       01Y
01460020013000004DEM       PROPOSITION 2 HOOD COUNTYWIDE                           AGAINST  (EN CONTRA)                  PCT 14 - LGCT                                          01Y
01460020014000001DEM       PROPOSITION 2 HOOD COUNTYWIDE                           AGAINST  (EN CONTRA)                  PCT 15 - CRESSON                                       01Y
01460020015000008DEM       PROPOSITION 2 HOOD COUNTYWIDE                           AGAINST  (EN CONTRA)                  PCT 16 - PECAN                                         01Y
01460030001000000DEM       PROPOSITION 2 HOOD COUNTYWIDE                           OVER VOTES                            PCT 1 - ANNEX 1                                        01Y
01460030002000000DEM       PROPOSITION 2 HOOD COUNTYWIDE                           OVER VOTES                            PCT 2 - LUTHERAN                                       01Y
01460030003000000DEM       PROPOSITION 2 HOOD COUNTYWIDE                           OVER VOTES                            PCT 3 - LAKESIDE                                       01Y
01460030004000000DEM       PROPOSITION 2 HOOD COUNTYWIDE                           OVER VOTES                            PCT 4 - FIRST BAPTIST                                  01Y
01460030005000000DEM       PROPOSITION 2 HOOD COUNTYWIDE                           OVER VOTES                            PCT 5 - TOLAR                                          01Y
01460030006000000DEM       PROPOSITION 2 HOOD COUNTYWIDE                           OVER VOTES                            PCT 7 - LIPAN                                          01Y
01460030007000000DEM       PROPOSITION 2 HOOD COUNTYWIDE                           OVER VOTES                            PCT 8 - FAIRVIEW                                       01Y
01460030008000000DEM       PROPOSITION 2 HOOD COUNTYWIDE                           OVER VOTES                            PCT 9 - GATEWAY                                        01Y
01460030009000000DEM       PROPOSITION 2 HOOD COUNTYWIDE                           OVER VOTES                            PCT 10 - ACTON                                         01Y
01460030010000000DEM       PROPOSITION 2 HOOD COUNTYWIDE                           OVER VOTES                            PCT 11 - TREATY OAKS                                   01Y
01460030011000000DEM       PROPOSITION 2 HOOD COUNTYWIDE                           OVER VOTES                            PCT 12 - TRIPLE CROSS                                  01Y
01460030012000000DEM       PROPOSITION 2 HOOD COUNTYWIDE                           OVER VOTES                            PCT 13 - CATH CH                                       01Y
01460030013000000DEM       PROPOSITION 2 HOOD COUNTYWIDE                           OVER VOTES                            PCT 14 - LGCT                                          01Y
01460030014000000DEM       PROPOSITION 2 HOOD COUNTYWIDE                           OVER VOTES                            PCT 15 - CRESSON                                       01Y
01460030015000000DEM       PROPOSITION 2 HOOD COUNTYWIDE                           OVER VOTES                            PCT 16 - PECAN                                         01Y
01460040001000000DEM       PROPOSITION 2 HOOD COUNTYWIDE                           UNDER VOTES                           PCT 1 - ANNEX 1                                        01Y
01460040002000001DEM       PROPOSITION 2 HOOD COUNTYWIDE                           UNDER VOTES                           PCT 2 - LUTHERAN                                       01Y
01460040003000001DEM       PROPOSITION 2 HOOD COUNTYWIDE                           UNDER VOTES                           PCT 3 - LAKESIDE                                       01Y
01460040004000000DEM       PROPOSITION 2 HOOD COUNTYWIDE                           UNDER VOTES                           PCT 4 - FIRST BAPTIST                                  01Y
01460040005000000DEM       PROPOSITION 2 HOOD COUNTYWIDE                           UNDER VOTES                           PCT 5 - TOLAR                                          01Y
01460040006000000DEM       PROPOSITION 2 HOOD COUNTYWIDE                           UNDER VOTES                           PCT 7 - LIPAN                                          01Y
01460040007000000DEM       PROPOSITION 2 HOOD COUNTYWIDE                           UNDER VOTES                           PCT 8 - FAIRVIEW                                       01Y
01460040008000001DEM       PROPOSITION 2 HOOD COUNTYWIDE                           UNDER VOTES                           PCT 9 - GATEWAY                                        01Y
01460040009000000DEM       PROPOSITION 2 HOOD COUNTYWIDE                           UNDER VOTES                           PCT 10 - ACTON                                         01Y
01460040010000000DEM       PROPOSITION 2 HOOD COUNTYWIDE                           UNDER VOTES                           PCT 11 - TREATY OAKS                                   01Y
01460040011000002DEM       PROPOSITION 2 HOOD COUNTYWIDE                           UNDER VOTES                           PCT 12 - TRIPLE CROSS                                  01Y
01460040012000000DEM       PROPOSITION 2 HOOD COUNTYWIDE                           UNDER VOTES                           PCT 13 - CATH CH                                       01Y
01460040013000000DEM       PROPOSITION 2 HOOD COUNTYWIDE                           UNDER VOTES                           PCT 14 - LGCT                                          01Y
01460040014000000DEM       PROPOSITION 2 HOOD COUNTYWIDE                           UNDER VOTES                           PCT 15 - CRESSON                                       01Y
01460040015000002DEM       PROPOSITION 2 HOOD COUNTYWIDE                           UNDER VOTES                           PCT 16 - PECAN                                         01Y
01470010001000019DEM       PROPOSITION 3 HOOD COUNTYWIDE                           FOR  (APOYA)                          PCT 1 - ANNEX 1                                        01Y
01470010002000034DEM       PROPOSITION 3 HOOD COUNTYWIDE                           FOR  (APOYA)                          PCT 2 - LUTHERAN                                       01Y
01470010003000036DEM       PROPOSITION 3 HOOD COUNTYWIDE                           FOR  (APOYA)                          PCT 3 - LAKESIDE                                       01Y
01470010004000017DEM       PROPOSITION 3 HOOD COUNTYWIDE                           FOR  (APOYA)                          PCT 4 - FIRST BAPTIST                                  01Y
01470010005000023DEM       PROPOSITION 3 HOOD COUNTYWIDE                           FOR  (APOYA)                          PCT 5 - TOLAR                                          01Y
01470010006000011DEM       PROPOSITION 3 HOOD COUNTYWIDE                           FOR  (APOYA)                          PCT 7 - LIPAN                                          01Y
01470010007000019DEM       PROPOSITION 3 HOOD COUNTYWIDE                           FOR  (APOYA)                          PCT 8 - FAIRVIEW                                       01Y
01470010008000021DEM       PROPOSITION 3 HOOD COUNTYWIDE                           FOR  (APOYA)                          PCT 9 - GATEWAY                                        01Y
01470010009000036DEM       PROPOSITION 3 HOOD COUNTYWIDE                           FOR  (APOYA)                          PCT 10 - ACTON                                         01Y
01470010010000014DEM       PROPOSITION 3 HOOD COUNTYWIDE                           FOR  (APOYA)                          PCT 11 - TREATY OAKS                                   01Y
01470010011000016DEM       PROPOSITION 3 HOOD COUNTYWIDE                           FOR  (APOYA)                          PCT 12 - TRIPLE CROSS                                  01Y
01470010012000019DEM       PROPOSITION 3 HOOD COUNTYWIDE                           FOR  (APOYA)                          PCT 13 - CATH CH                                       01Y
01470010013000030DEM       PROPOSITION 3 HOOD COUNTYWIDE                           FOR  (APOYA)                          PCT 14 - LGCT                                          01Y
01470010014000004DEM       PROPOSITION 3 HOOD COUNTYWIDE                           FOR  (APOYA)                          PCT 15 - CRESSON                                       01Y
01470010015000060DEM       PROPOSITION 3 HOOD COUNTYWIDE                           FOR  (APOYA)                          PCT 16 - PECAN                                         01Y
01470020001000005DEM       PROPOSITION 3 HOOD COUNTYWIDE                           AGAINST  (EN CONTRA)                  PCT 1 - ANNEX 1                                        01Y
01470020002000013DEM       PROPOSITION 3 HOOD COUNTYWIDE                           AGAINST  (EN CONTRA)                  PCT 2 - LUTHERAN                                       01Y
01470020003000010DEM       PROPOSITION 3 HOOD COUNTYWIDE                           AGAINST  (EN CONTRA)                  PCT 3 - LAKESIDE                                       01Y
01470020004000002DEM       PROPOSITION 3 HOOD COUNTYWIDE                           AGAINST  (EN CONTRA)                  PCT 4 - FIRST BAPTIST                                  01Y
01470020005000006DEM       PROPOSITION 3 HOOD COUNTYWIDE                           AGAINST  (EN CONTRA)                  PCT 5 - TOLAR                                          01Y
01470020006000000DEM       PROPOSITION 3 HOOD COUNTYWIDE                           AGAINST  (EN CONTRA)                  PCT 7 - LIPAN                                          01Y
01470020007000006DEM       PROPOSITION 3 HOOD COUNTYWIDE                           AGAINST  (EN CONTRA)                  PCT 8 - FAIRVIEW                                       01Y
01470020008000010DEM       PROPOSITION 3 HOOD COUNTYWIDE                           AGAINST  (EN CONTRA)                  PCT 9 - GATEWAY                                        01Y
01470020009000004DEM       PROPOSITION 3 HOOD COUNTYWIDE                           AGAINST  (EN CONTRA)                  PCT 10 - ACTON                                         01Y
01470020010000007DEM       PROPOSITION 3 HOOD COUNTYWIDE                           AGAINST  (EN CONTRA)                  PCT 11 - TREATY OAKS                                   01Y
01470020011000005DEM       PROPOSITION 3 HOOD COUNTYWIDE                           AGAINST  (EN CONTRA)                  PCT 12 - TRIPLE CROSS                                  01Y
01470020012000010DEM       PROPOSITION 3 HOOD COUNTYWIDE                           AGAINST  (EN CONTRA)                  PCT 13 - CATH CH                                       01Y
