01070010001000000REP       President KENDALL COUNTYWIDE                            Jon Huntsman                          PRECINCT 1011                                          01 
01070010002000001REP       President KENDALL COUNTYWIDE                            Jon Huntsman                          PRECINCT 1013                                          01 
01070010003000001REP       President KENDALL COUNTYWIDE                            Jon Huntsman                          PRECINCT 1014                                          01 
01070010004000005REP       President KENDALL COUNTYWIDE                            Jon Huntsman                          PRECINCT 1110                                          01 
01070010005000003REP       President KENDALL COUNTYWIDE                            Jon Huntsman                          PRECINCT 1115                                          01 
01070010006000000REP       President KENDALL COUNTYWIDE                            Jon Huntsman                          PRECINCT 1130                                          01 
01070010007000000REP       President KENDALL COUNTYWIDE                            Jon Huntsman                          PRECINCT 1140                                          01 
01070010008000000REP       President KENDALL COUNTYWIDE                            Jon Huntsman                          PRECINCT 1170                                          01 
01070010009000000REP       President KENDALL COUNTYWIDE                            Jon Huntsman                          PRECINCT 1180                                          01 
01070010010000000REP       President KENDALL COUNTYWIDE                            Jon Huntsman                          PRECINCT 1190                                          01 
01070010011000000REP       President KENDALL COUNTYWIDE                            Jon Huntsman                          PRECINCT 1200                                          01 
01070010012000003REP       President KENDALL COUNTYWIDE                            Jon Huntsman                          PRECINCT 2020                                          01 
01070010013000005REP       President KENDALL COUNTYWIDE                            Jon Huntsman                          PRECINCT 2080                                          01 
01070010014000002REP       President KENDALL COUNTYWIDE                            Jon Huntsman                          PRECINCT 2082                                          01 
01070010015000000REP       President KENDALL COUNTYWIDE                            Jon Huntsman                          PRECINCT 2084                                          01 
01070010016000000REP       President KENDALL COUNTYWIDE                            Jon Huntsman                          PRECINCT 2085                                          01 
01070010017000002REP       President KENDALL COUNTYWIDE                            Jon Huntsman                          PRECINCT 2120                                          01 
01070010018000001REP       President KENDALL COUNTYWIDE                            Jon Huntsman                          PRECINCT 2210                                          01 
01070010019000004REP       President KENDALL COUNTYWIDE                            Jon Huntsman                          PRECINCT 3030                                          01 
01070010020000004REP       President KENDALL COUNTYWIDE                            Jon Huntsman                          PRECINCT 3040                                          01 
01070010021000001REP       President KENDALL COUNTYWIDE                            Jon Huntsman                          PRECINCT 3041                                          01 
01070010022000002REP       President KENDALL COUNTYWIDE                            Jon Huntsman                          PRECINCT 3042                                          01 
01070010023000003REP       President KENDALL COUNTYWIDE                            Jon Huntsman                          PRECINCT 3044                                          01 
01070010024000000REP       President KENDALL COUNTYWIDE                            Jon Huntsman                          PRECINCT 3060                                          01 
01070010025000000REP       President KENDALL COUNTYWIDE                            Jon Huntsman                          PRECINCT 3220                                          01 
01070010026000003REP       President KENDALL COUNTYWIDE                            Jon Huntsman                          PRECINCT 4050                                          01 
01070010027000000REP       President KENDALL COUNTYWIDE                            Jon Huntsman                          PRECINCT 4070                                          01 
01070010028000010REP       President KENDALL COUNTYWIDE                            Jon Huntsman                          PRECINCT 4100                                          01 
01070010029000001REP       President KENDALL COUNTYWIDE                            Jon Huntsman                          PRECINCT 4101                                          01 
01070010030000000REP       President KENDALL COUNTYWIDE                            Jon Huntsman                          PRECINCT 4103                                          01 
01070010031000000REP       President KENDALL COUNTYWIDE                            Jon Huntsman                          PRECINCT 4230                                          01 
01070010032000000REP       President KENDALL COUNTYWIDE                            Jon Huntsman                          PRECINCT 4240                                          01 
01070010033000000REP       President KENDALL COUNTYWIDE                            Jon Huntsman                          PRECINCT 4250                                          01 
01070020001000002REP       President KENDALL COUNTYWIDE                            Newt Gingrich                         PRECINCT 1011                                          01 
01070020002000017REP       President KENDALL COUNTYWIDE                            Newt Gingrich                         PRECINCT 1013                                          01 
01070020003000008REP       President KENDALL COUNTYWIDE                            Newt Gingrich                         PRECINCT 1014                                          01 
01070020004000038REP       President KENDALL COUNTYWIDE                            Newt Gingrich                         PRECINCT 1110                                          01 
01070020005000015REP       President KENDALL COUNTYWIDE                            Newt Gingrich                         PRECINCT 1115                                          01 
01070020006000000REP       President KENDALL COUNTYWIDE                            Newt Gingrich                         PRECINCT 1130                                          01 
01070020007000000REP       President KENDALL COUNTYWIDE                            Newt Gingrich                         PRECINCT 1140                                          01 
01070020008000000REP       President KENDALL COUNTYWIDE                            Newt Gingrich                         PRECINCT 1170                                          01 
01070020009000000REP       President KENDALL COUNTYWIDE                            Newt Gingrich                         PRECINCT 1180                                          01 
01070020010000000REP       President KENDALL COUNTYWIDE                            Newt Gingrich                         PRECINCT 1190                                          01 
01070020011000000REP       President KENDALL COUNTYWIDE                            Newt Gingrich                         PRECINCT 1200                                          01 
01070020012000030REP       President KENDALL COUNTYWIDE                            Newt Gingrich                         PRECINCT 2020                                          01 
01070020013000026REP       President KENDALL COUNTYWIDE                            Newt Gingrich                         PRECINCT 2080                                          01 
01070020014000009REP       President KENDALL COUNTYWIDE                            Newt Gingrich                         PRECINCT 2082                                          01 
01070020015000002REP       President KENDALL COUNTYWIDE                            Newt Gingrich                         PRECINCT 2084                                          01 
01070020016000001REP       President KENDALL COUNTYWIDE                            Newt Gingrich                         PRECINCT 2085                                          01 
01070020017000016REP       President KENDALL COUNTYWIDE                            Newt Gingrich                         PRECINCT 2120                                          01 
01070020018000001REP       President KENDALL COUNTYWIDE                            Newt Gingrich                         PRECINCT 2210                                          01 
01070020019000026REP       President KENDALL COUNTYWIDE                            Newt Gingrich                         PRECINCT 3030                                          01 
01070020020000017REP       President KENDALL COUNTYWIDE                            Newt Gingrich                         PRECINCT 3040                                          01 
01070020021000018REP       President KENDALL COUNTYWIDE                            Newt Gingrich                         PRECINCT 3041                                          01 
01070020022000003REP       President KENDALL COUNTYWIDE                            Newt Gingrich                         PRECINCT 3042                                          01 
01070020023000005REP       President KENDALL COUNTYWIDE                            Newt Gingrich                         PRECINCT 3044                                          01 
01070020024000007REP       President KENDALL COUNTYWIDE                            Newt Gingrich                         PRECINCT 3060                                          01 
01070020025000000REP       President KENDALL COUNTYWIDE                            Newt Gingrich                         PRECINCT 3220                                          01 
01070020026000031REP       President KENDALL COUNTYWIDE                            Newt Gingrich                         PRECINCT 4050                                          01 
01070020027000002REP       President KENDALL COUNTYWIDE                            Newt Gingrich                         PRECINCT 4070                                          01 
01070020028000026REP       President KENDALL COUNTYWIDE                            Newt Gingrich                         PRECINCT 4100                                          01 
01070020029000000REP       President KENDALL COUNTYWIDE                            Newt Gingrich                         PRECINCT 4101                                          01 
01070020030000000REP       President KENDALL COUNTYWIDE                            Newt Gingrich                         PRECINCT 4103                                          01 
01070020031000000REP       President KENDALL COUNTYWIDE                            Newt Gingrich                         PRECINCT 4230                                          01 
01070020032000001REP       President KENDALL COUNTYWIDE                            Newt Gingrich                         PRECINCT 4240                                          01 
01070020033000002REP       President KENDALL COUNTYWIDE                            Newt Gingrich                         PRECINCT 4250                                          01 
01070030001000000REP       President KENDALL COUNTYWIDE                            John Davis                            PRECINCT 1011                                          01 
01070030002000001REP       President KENDALL COUNTYWIDE                            John Davis                            PRECINCT 1013                                          01 
01070030003000001REP       President KENDALL COUNTYWIDE                            John Davis                            PRECINCT 1014                                          01 
01070030004000001REP       President KENDALL COUNTYWIDE                            John Davis                            PRECINCT 1110                                          01 
01070030005000000REP       President KENDALL COUNTYWIDE                            John Davis                            PRECINCT 1115                                          01 
01070030006000000REP       President KENDALL COUNTYWIDE                            John Davis                            PRECINCT 1130                                          01 
01070030007000000REP       President KENDALL COUNTYWIDE                            John Davis                            PRECINCT 1140                                          01 
01070030008000000REP       President KENDALL COUNTYWIDE                            John Davis                            PRECINCT 1170                                          01 
01070030009000000REP       President KENDALL COUNTYWIDE                            John Davis                            PRECINCT 1180                                          01 
01070030010000000REP       President KENDALL COUNTYWIDE                            John Davis                            PRECINCT 1190                                          01 
01070030011000000REP       President KENDALL COUNTYWIDE                            John Davis                            PRECINCT 1200                                          01 
01070030012000001REP       President KENDALL COUNTYWIDE                            John Davis                            PRECINCT 2020                                          01 
01070030013000001REP       President KENDALL COUNTYWIDE                            John Davis                            PRECINCT 2080                                          01 
01070030014000000REP       President KENDALL COUNTYWIDE                            John Davis                            PRECINCT 2082                                          01 
01070030015000000REP       President KENDALL COUNTYWIDE                            John Davis                            PRECINCT 2084                                          01 
01070030016000000REP       President KENDALL COUNTYWIDE                            John Davis                            PRECINCT 2085                                          01 
01070030017000000REP       President KENDALL COUNTYWIDE                            John Davis                            PRECINCT 2120                                          01 
01070030018000000REP       President KENDALL COUNTYWIDE                            John Davis                            PRECINCT 2210                                          01 
01070030019000000REP       President KENDALL COUNTYWIDE                            John Davis                            PRECINCT 3030                                          01 
01070030020000001REP       President KENDALL COUNTYWIDE                            John Davis                            PRECINCT 3040                                          01 
01070030021000000REP       President KENDALL COUNTYWIDE                            John Davis                            PRECINCT 3041                                          01 
01070030022000001REP       President KENDALL COUNTYWIDE                            John Davis                            PRECINCT 3042                                          01 
01070030023000001REP       President KENDALL COUNTYWIDE                            John Davis                            PRECINCT 3044                                          01 
01070030024000000REP       President KENDALL COUNTYWIDE                            John Davis                            PRECINCT 3060                                          01 
01070030025000000REP       President KENDALL COUNTYWIDE                            John Davis                            PRECINCT 3220                                          01 
01070030026000000REP       President KENDALL COUNTYWIDE                            John Davis                            PRECINCT 4050                                          01 
01070030027000000REP       President KENDALL COUNTYWIDE                            John Davis                            PRECINCT 4070                                          01 
01070030028000000REP       President KENDALL COUNTYWIDE                            John Davis                            PRECINCT 4100                                          01 
01070030029000000REP       President KENDALL COUNTYWIDE                            John Davis                            PRECINCT 4101                                          01 
01070030030000001REP       President KENDALL COUNTYWIDE                            John Davis                            PRECINCT 4103                                          01 
01070030031000000REP       President KENDALL COUNTYWIDE                            John Davis                            PRECINCT 4230                                          01 
01070030032000000REP       President KENDALL COUNTYWIDE                            John Davis                            PRECINCT 4240                                          01 
01070030033000000REP       President KENDALL COUNTYWIDE                            John Davis                            PRECINCT 4250                                          01 
01070040001000001REP       President KENDALL COUNTYWIDE                            Rick Santorum                         PRECINCT 1011                                          01 
01070040002000015REP       President KENDALL COUNTYWIDE                            Rick Santorum                         PRECINCT 1013                                          01 
01070040003000013REP       President KENDALL COUNTYWIDE                            Rick Santorum                         PRECINCT 1014                                          01 
01070040004000039REP       President KENDALL COUNTYWIDE                            Rick Santorum                         PRECINCT 1110                                          01 
01070040005000015REP       President KENDALL COUNTYWIDE                            Rick Santorum                         PRECINCT 1115                                          01 
01070040006000000REP       President KENDALL COUNTYWIDE                            Rick Santorum                         PRECINCT 1130                                          01 
01070040007000000REP       President KENDALL COUNTYWIDE                            Rick Santorum                         PRECINCT 1140                                          01 
01070040008000000REP       President KENDALL COUNTYWIDE                            Rick Santorum                         PRECINCT 1170                                          01 
01070040009000000REP       President KENDALL COUNTYWIDE                            Rick Santorum                         PRECINCT 1180                                          01 
01070040010000000REP       President KENDALL COUNTYWIDE                            Rick Santorum                         PRECINCT 1190                                          01 
01070040011000000REP       President KENDALL COUNTYWIDE                            Rick Santorum                         PRECINCT 1200                                          01 
01070040012000027REP       President KENDALL COUNTYWIDE                            Rick Santorum                         PRECINCT 2020                                          01 
01070040013000029REP       President KENDALL COUNTYWIDE                            Rick Santorum                         PRECINCT 2080                                          01 
01070040014000026REP       President KENDALL COUNTYWIDE                            Rick Santorum                         PRECINCT 2082                                          01 
01070040015000004REP       President KENDALL COUNTYWIDE                            Rick Santorum                         PRECINCT 2084                                          01 
01070040016000002REP       President KENDALL COUNTYWIDE                            Rick Santorum                         PRECINCT 2085                                          01 
01070040017000025REP       President KENDALL COUNTYWIDE                            Rick Santorum                         PRECINCT 2120                                          01 
01070040018000001REP       President KENDALL COUNTYWIDE                            Rick Santorum                         PRECINCT 2210                                          01 
01070040019000049REP       President KENDALL COUNTYWIDE                            Rick Santorum                         PRECINCT 3030                                          01 
01070040020000019REP       President KENDALL COUNTYWIDE                            Rick Santorum                         PRECINCT 3040                                          01 
01070040021000018REP       President KENDALL COUNTYWIDE                            Rick Santorum                         PRECINCT 3041                                          01 
01070040022000008REP       President KENDALL COUNTYWIDE                            Rick Santorum                         PRECINCT 3042                                          01 
01070040023000007REP       President KENDALL COUNTYWIDE                            Rick Santorum                         PRECINCT 3044                                          01 
01070040024000015REP       President KENDALL COUNTYWIDE                            Rick Santorum                         PRECINCT 3060                                          01 
01070040025000000REP       President KENDALL COUNTYWIDE                            Rick Santorum                         PRECINCT 3220                                          01 
01070040026000044REP       President KENDALL COUNTYWIDE                            Rick Santorum                         PRECINCT 4050                                          01 
01070040027000009REP       President KENDALL COUNTYWIDE                            Rick Santorum                         PRECINCT 4070                                          01 
01070040028000044REP       President KENDALL COUNTYWIDE                            Rick Santorum                         PRECINCT 4100                                          01 
01070040029000005REP       President KENDALL COUNTYWIDE                            Rick Santorum                         PRECINCT 4101                                          01 
01070040030000003REP       President KENDALL COUNTYWIDE                            Rick Santorum                         PRECINCT 4103                                          01 
01070040031000000REP       President KENDALL COUNTYWIDE                            Rick Santorum                         PRECINCT 4230                                          01 
01070040032000000REP       President KENDALL COUNTYWIDE                            Rick Santorum                         PRECINCT 4240                                          01 
01070040033000001REP       President KENDALL COUNTYWIDE                            Rick Santorum                         PRECINCT 4250                                          01 
01070050001000000REP       President KENDALL COUNTYWIDE                            Charles "Buddy" Roemer                PRECINCT 1011                                          01 
01070050002000001REP       President KENDALL COUNTYWIDE                            Charles "Buddy" Roemer                PRECINCT 1013                                          01 
01070050003000002REP       President KENDALL COUNTYWIDE                            Charles "Buddy" Roemer                PRECINCT 1014                                          01 
01070050004000002REP       President KENDALL COUNTYWIDE                            Charles "Buddy" Roemer                PRECINCT 1110                                          01 
01070050005000002REP       President KENDALL COUNTYWIDE                            Charles "Buddy" Roemer                PRECINCT 1115                                          01 
01070050006000000REP       President KENDALL COUNTYWIDE                            Charles "Buddy" Roemer                PRECINCT 1130                                          01 
01070050007000000REP       President KENDALL COUNTYWIDE                            Charles "Buddy" Roemer                PRECINCT 1140                                          01 
01070050008000000REP       President KENDALL COUNTYWIDE                            Charles "Buddy" Roemer                PRECINCT 1170                                          01 
01070050009000000REP       President KENDALL COUNTYWIDE                            Charles "Buddy" Roemer                PRECINCT 1180                                          01 
01070050010000000REP       President KENDALL COUNTYWIDE                            Charles "Buddy" Roemer                PRECINCT 1190                                          01 
01070050011000000REP       President KENDALL COUNTYWIDE                            Charles "Buddy" Roemer                PRECINCT 1200                                          01 
01070050012000000REP       President KENDALL COUNTYWIDE                            Charles "Buddy" Roemer                PRECINCT 2020                                          01 
01070050013000000REP       President KENDALL COUNTYWIDE                            Charles "Buddy" Roemer                PRECINCT 2080                                          01 
01070050014000000REP       President KENDALL COUNTYWIDE                            Charles "Buddy" Roemer                PRECINCT 2082                                          01 
01070050015000001REP       President KENDALL COUNTYWIDE                            Charles "Buddy" Roemer                PRECINCT 2084                                          01 
01070050016000000REP       President KENDALL COUNTYWIDE                            Charles "Buddy" Roemer                PRECINCT 2085                                          01 
01070050017000001REP       President KENDALL COUNTYWIDE                            Charles "Buddy" Roemer                PRECINCT 2120                                          01 
01070050018000000REP       President KENDALL COUNTYWIDE                            Charles "Buddy" Roemer                PRECINCT 2210                                          01 
01070050019000003REP       President KENDALL COUNTYWIDE                            Charles "Buddy" Roemer                PRECINCT 3030                                          01 
01070050020000001REP       President KENDALL COUNTYWIDE                            Charles "Buddy" Roemer                PRECINCT 3040                                          01 
01070050021000002REP       President KENDALL COUNTYWIDE                            Charles "Buddy" Roemer                PRECINCT 3041                                          01 
01070050022000000REP       President KENDALL COUNTYWIDE                            Charles "Buddy" Roemer                PRECINCT 3042                                          01 
01070050023000001REP       President KENDALL COUNTYWIDE                            Charles "Buddy" Roemer                PRECINCT 3044                                          01 
01070050024000000REP       President KENDALL COUNTYWIDE                            Charles "Buddy" Roemer                PRECINCT 3060                                          01 
01070050025000000REP       President KENDALL COUNTYWIDE                            Charles "Buddy" Roemer                PRECINCT 3220                                          01 
01070050026000002REP       President KENDALL COUNTYWIDE                            Charles "Buddy" Roemer                PRECINCT 4050                                          01 
01070050027000000REP       President KENDALL COUNTYWIDE                            Charles "Buddy" Roemer                PRECINCT 4070                                          01 
01070050028000004REP       President KENDALL COUNTYWIDE                            Charles "Buddy" Roemer                PRECINCT 4100                                          01 
01070050029000000REP       President KENDALL COUNTYWIDE                            Charles "Buddy" Roemer                PRECINCT 4101                                          01 
01070050030000000REP       President KENDALL COUNTYWIDE                            Charles "Buddy" Roemer                PRECINCT 4103                                          01 
01070050031000000REP       President KENDALL COUNTYWIDE                            Charles "Buddy" Roemer                PRECINCT 4230                                          01 
01070050032000000REP       President KENDALL COUNTYWIDE                            Charles "Buddy" Roemer                PRECINCT 4240                                          01 
01070050033000000REP       President KENDALL COUNTYWIDE                            Charles "Buddy" Roemer                PRECINCT 4250                                          01 
01070060001000000REP       President KENDALL COUNTYWIDE                            Michele Bachmann                      PRECINCT 1011                                          01 
01070060002000004REP       President KENDALL COUNTYWIDE                            Michele Bachmann                      PRECINCT 1013                                          01 
01070060003000000REP       President KENDALL COUNTYWIDE                            Michele Bachmann                      PRECINCT 1014                                          01 
01070060004000006REP       President KENDALL COUNTYWIDE                            Michele Bachmann                      PRECINCT 1110                                          01 
01070060005000001REP       President KENDALL COUNTYWIDE                            Michele Bachmann                      PRECINCT 1115                                          01 
01070060006000000REP       President KENDALL COUNTYWIDE                            Michele Bachmann                      PRECINCT 1130                                          01 
01070060007000000REP       President KENDALL COUNTYWIDE                            Michele Bachmann                      PRECINCT 1140                                          01 
01070060008000000REP       President KENDALL COUNTYWIDE                            Michele Bachmann                      PRECINCT 1170                                          01 
01070060009000000REP       President KENDALL COUNTYWIDE                            Michele Bachmann                      PRECINCT 1180                                          01 
01070060010000000REP       President KENDALL COUNTYWIDE                            Michele Bachmann                      PRECINCT 1190                                          01 
01070060011000000REP       President KENDALL COUNTYWIDE                            Michele Bachmann                      PRECINCT 1200                                          01 
01070060012000002REP       President KENDALL COUNTYWIDE                            Michele Bachmann                      PRECINCT 2020                                          01 
01070060013000000REP       President KENDALL COUNTYWIDE                            Michele Bachmann                      PRECINCT 2080                                          01 
01070060014000001REP       President KENDALL COUNTYWIDE                            Michele Bachmann                      PRECINCT 2082                                          01 
01070060015000000REP       President KENDALL COUNTYWIDE                            Michele Bachmann                      PRECINCT 2084                                          01 
01070060016000000REP       President KENDALL COUNTYWIDE                            Michele Bachmann                      PRECINCT 2085                                          01 
01070060017000010REP       President KENDALL COUNTYWIDE                            Michele Bachmann                      PRECINCT 2120                                          01 
01070060018000000REP       President KENDALL COUNTYWIDE                            Michele Bachmann                      PRECINCT 2210                                          01 
01070060019000002REP       President KENDALL COUNTYWIDE                            Michele Bachmann                      PRECINCT 3030                                          01 
01070060020000002REP       President KENDALL COUNTYWIDE                            Michele Bachmann                      PRECINCT 3040                                          01 
01070060021000003REP       President KENDALL COUNTYWIDE                            Michele Bachmann                      PRECINCT 3041                                          01 
01070060022000002REP       President KENDALL COUNTYWIDE                            Michele Bachmann                      PRECINCT 3042                                          01 
01070060023000006REP       President KENDALL COUNTYWIDE                            Michele Bachmann                      PRECINCT 3044                                          01 
01070060024000003REP       President KENDALL COUNTYWIDE                            Michele Bachmann                      PRECINCT 3060                                          01 
01070060025000000REP       President KENDALL COUNTYWIDE                            Michele Bachmann                      PRECINCT 3220                                          01 
01070060026000006REP       President KENDALL COUNTYWIDE                            Michele Bachmann                      PRECINCT 4050                                          01 
01070060027000000REP       President KENDALL COUNTYWIDE                            Michele Bachmann                      PRECINCT 4070                                          01 
01070060028000003REP       President KENDALL COUNTYWIDE                            Michele Bachmann                      PRECINCT 4100                                          01 
01070060029000000REP       President KENDALL COUNTYWIDE                            Michele Bachmann                      PRECINCT 4101                                          01 
01070060030000001REP       President KENDALL COUNTYWIDE                            Michele Bachmann                      PRECINCT 4103                                          01 
01070060031000000REP       President KENDALL COUNTYWIDE                            Michele Bachmann                      PRECINCT 4230                                          01 
01070060032000000REP       President KENDALL COUNTYWIDE                            Michele Bachmann                      PRECINCT 4240                                          01 
01070060033000000REP       President KENDALL COUNTYWIDE                            Michele Bachmann                      PRECINCT 4250                                          01 
01070070001000002REP       President KENDALL COUNTYWIDE                            Ron Paul                              PRECINCT 1011                                          01 
01070070002000032REP       President KENDALL COUNTYWIDE                            Ron Paul                              PRECINCT 1013                                          01 
01070070003000020REP       President KENDALL COUNTYWIDE                            Ron Paul                              PRECINCT 1014                                          01 
01070070004000093REP       President KENDALL COUNTYWIDE                            Ron Paul                              PRECINCT 1110                                          01 
01070070005000029REP       President KENDALL COUNTYWIDE                            Ron Paul                              PRECINCT 1115                                          01 
01070070006000000REP       President KENDALL COUNTYWIDE                            Ron Paul                              PRECINCT 1130                                          01 
01070070007000000REP       President KENDALL COUNTYWIDE                            Ron Paul                              PRECINCT 1140                                          01 
01070070008000000REP       President KENDALL COUNTYWIDE                            Ron Paul                              PRECINCT 1170                                          01 
01070070009000000REP       President KENDALL COUNTYWIDE                            Ron Paul                              PRECINCT 1180                                          01 
01070070010000000REP       President KENDALL COUNTYWIDE                            Ron Paul                              PRECINCT 1190                                          01 
01070070011000001REP       President KENDALL COUNTYWIDE                            Ron Paul                              PRECINCT 1200                                          01 
01070070012000050REP       President KENDALL COUNTYWIDE                            Ron Paul                              PRECINCT 2020                                          01 
01070070013000064REP       President KENDALL COUNTYWIDE                            Ron Paul                              PRECINCT 2080                                          01 
01070070014000035REP       President KENDALL COUNTYWIDE                            Ron Paul                              PRECINCT 2082                                          01 
01070070015000005REP       President KENDALL COUNTYWIDE                            Ron Paul                              PRECINCT 2084                                          01 
01070070016000008REP       President KENDALL COUNTYWIDE                            Ron Paul                              PRECINCT 2085                                          01 
01070070017000039REP       President KENDALL COUNTYWIDE                            Ron Paul                              PRECINCT 2120                                          01 
01070070018000003REP       President KENDALL COUNTYWIDE                            Ron Paul                              PRECINCT 2210                                          01 
01070070019000080REP       President KENDALL COUNTYWIDE                            Ron Paul                              PRECINCT 3030                                          01 
01070070020000050REP       President KENDALL COUNTYWIDE                            Ron Paul                              PRECINCT 3040                                          01 
01070070021000049REP       President KENDALL COUNTYWIDE                            Ron Paul                              PRECINCT 3041                                          01 
01070070022000017REP       President KENDALL COUNTYWIDE                            Ron Paul                              PRECINCT 3042                                          01 
01070070023000020REP       President KENDALL COUNTYWIDE                            Ron Paul                              PRECINCT 3044                                          01 
01070070024000019REP       President KENDALL COUNTYWIDE                            Ron Paul                              PRECINCT 3060                                          01 
01070070025000003REP       President KENDALL COUNTYWIDE                            Ron Paul                              PRECINCT 3220                                          01 
01070070026000097REP       President KENDALL COUNTYWIDE                            Ron Paul                              PRECINCT 4050                                          01 
01070070027000022REP       President KENDALL COUNTYWIDE                            Ron Paul                              PRECINCT 4070                                          01 
01070070028000087REP       President KENDALL COUNTYWIDE                            Ron Paul                              PRECINCT 4100                                          01 
01070070029000007REP       President KENDALL COUNTYWIDE                            Ron Paul                              PRECINCT 4101                                          01 
01070070030000004REP       President KENDALL COUNTYWIDE                            Ron Paul                              PRECINCT 4103                                          01 
01070070031000000REP       President KENDALL COUNTYWIDE                            Ron Paul                              PRECINCT 4230                                          01 
01070070032000002REP       President KENDALL COUNTYWIDE                            Ron Paul                              PRECINCT 4240                                          01 
01070070033000001REP       President KENDALL COUNTYWIDE                            Ron Paul                              PRECINCT 4250                                          01 
01070080001000026REP       President KENDALL COUNTYWIDE                            Mitt Romney                           PRECINCT 1011                                          01 
01070080002000183REP       President KENDALL COUNTYWIDE                            Mitt Romney                           PRECINCT 1013                                          01 
01070080003000093REP       President KENDALL COUNTYWIDE                            Mitt Romney                           PRECINCT 1014                                          01 
01070080004000605REP       President KENDALL COUNTYWIDE                            Mitt Romney                           PRECINCT 1110                                          01 
01070080005000224REP       President KENDALL COUNTYWIDE                            Mitt Romney                           PRECINCT 1115                                          01 
01070080006000001REP       President KENDALL COUNTYWIDE                            Mitt Romney                           PRECINCT 1130                                          01 
01070080007000000REP       President KENDALL COUNTYWIDE                            Mitt Romney                           PRECINCT 1140                                          01 
01070080008000000REP       President KENDALL COUNTYWIDE                            Mitt Romney                           PRECINCT 1170                                          01 
01070080009000000REP       President KENDALL COUNTYWIDE                            Mitt Romney                           PRECINCT 1180                                          01 
01070080010000006REP       President KENDALL COUNTYWIDE                            Mitt Romney                           PRECINCT 1190                                          01 
01070080011000000REP       President KENDALL COUNTYWIDE                            Mitt Romney                           PRECINCT 1200                                          01 
01070080012000418REP       President KENDALL COUNTYWIDE                            Mitt Romney                           PRECINCT 2020                                          01 
01070080013000438REP       President KENDALL COUNTYWIDE                            Mitt Romney                           PRECINCT 2080                                          01 
01070080014000188REP       President KENDALL COUNTYWIDE                            Mitt Romney                           PRECINCT 2082                                          01 
01070080015000019REP       President KENDALL COUNTYWIDE                            Mitt Romney                           PRECINCT 2084                                          01 
01070080016000013REP       President KENDALL COUNTYWIDE                            Mitt Romney                           PRECINCT 2085                                          01 
01070080017000254REP       President KENDALL COUNTYWIDE                            Mitt Romney                           PRECINCT 2120                                          01 
01070080018000023REP       President KENDALL COUNTYWIDE                            Mitt Romney                           PRECINCT 2210                                          01 
01070080019000420REP       President KENDALL COUNTYWIDE                            Mitt Romney                           PRECINCT 3030                                          01 
01070080020000247REP       President KENDALL COUNTYWIDE                            Mitt Romney                           PRECINCT 3040                                          01 
01070080021000259REP       President KENDALL COUNTYWIDE                            Mitt Romney                           PRECINCT 3041                                          01 
01070080022000082REP       President KENDALL COUNTYWIDE                            Mitt Romney                           PRECINCT 3042                                          01 
01070080023000092REP       President KENDALL COUNTYWIDE                            Mitt Romney                           PRECINCT 3044                                          01 
01070080024000110REP       President KENDALL COUNTYWIDE                            Mitt Romney                           PRECINCT 3060                                          01 
01070080025000003REP       President KENDALL COUNTYWIDE                            Mitt Romney                           PRECINCT 3220                                          01 
01070080026000429REP       President KENDALL COUNTYWIDE                            Mitt Romney                           PRECINCT 4050                                          01 
01070080027000069REP       President KENDALL COUNTYWIDE                            Mitt Romney                           PRECINCT 4070                                          01 
01070080028000545REP       President KENDALL COUNTYWIDE                            Mitt Romney                           PRECINCT 4100                                          01 
01070080029000042REP       President KENDALL COUNTYWIDE                            Mitt Romney                           PRECINCT 4101                                          01 
01070080030000026REP       President KENDALL COUNTYWIDE                            Mitt Romney                           PRECINCT 4103                                          01 
01070080031000001REP       President KENDALL COUNTYWIDE                            Mitt Romney                           PRECINCT 4230                                          01 
01070080032000002REP       President KENDALL COUNTYWIDE                            Mitt Romney                           PRECINCT 4240                                          01 
01070080033000015REP       President KENDALL COUNTYWIDE                            Mitt Romney                           PRECINCT 4250                                          01 
01070090001000005REP       President KENDALL COUNTYWIDE                            Uncommitted (No Comprometido)         PRECINCT 1011                                          01 
01070090002000019REP       President KENDALL COUNTYWIDE                            Uncommitted (No Comprometido)         PRECINCT 1013                                          01 
01070090003000013REP       President KENDALL COUNTYWIDE                            Uncommitted (No Comprometido)         PRECINCT 1014                                          01 
01070090004000047REP       President KENDALL COUNTYWIDE                            Uncommitted (No Comprometido)         PRECINCT 1110                                          01 
01070090005000022REP       President KENDALL COUNTYWIDE                            Uncommitted (No Comprometido)         PRECINCT 1115                                          01 
01070090006000000REP       President KENDALL COUNTYWIDE                            Uncommitted (No Comprometido)         PRECINCT 1130                                          01 
01070090007000000REP       President KENDALL COUNTYWIDE                            Uncommitted (No Comprometido)         PRECINCT 1140                                          01 
01070090008000001REP       President KENDALL COUNTYWIDE                            Uncommitted (No Comprometido)         PRECINCT 1170                                          01 
01070090009000000REP       President KENDALL COUNTYWIDE                            Uncommitted (No Comprometido)         PRECINCT 1180                                          01 
01070090010000000REP       President KENDALL COUNTYWIDE                            Uncommitted (No Comprometido)         PRECINCT 1190                                          01 
01070090011000000REP       President KENDALL COUNTYWIDE                            Uncommitted (No Comprometido)         PRECINCT 1200                                          01 
01070090012000016REP       President KENDALL COUNTYWIDE                            Uncommitted (No Comprometido)         PRECINCT 2020                                          01 
01070090013000023REP       President KENDALL COUNTYWIDE                            Uncommitted (No Comprometido)         PRECINCT 2080                                          01 
01070090014000009REP       President KENDALL COUNTYWIDE                            Uncommitted (No Comprometido)         PRECINCT 2082                                          01 
01070090015000003REP       President KENDALL COUNTYWIDE                            Uncommitted (No Comprometido)         PRECINCT 2084                                          01 
01070090016000001REP       President KENDALL COUNTYWIDE                            Uncommitted (No Comprometido)         PRECINCT 2085                                          01 
01070090017000018REP       President KENDALL COUNTYWIDE                            Uncommitted (No Comprometido)         PRECINCT 2120                                          01 
01070090018000000REP       President KENDALL COUNTYWIDE                            Uncommitted (No Comprometido)         PRECINCT 2210                                          01 
01070090019000034REP       President KENDALL COUNTYWIDE                            Uncommitted (No Comprometido)         PRECINCT 3030                                          01 
01070090020000014REP       President KENDALL COUNTYWIDE                            Uncommitted (No Comprometido)         PRECINCT 3040                                          01 
01070090021000028REP       President KENDALL COUNTYWIDE                            Uncommitted (No Comprometido)         PRECINCT 3041                                          01 
01070090022000009REP       President KENDALL COUNTYWIDE                            Uncommitted (No Comprometido)         PRECINCT 3042                                          01 
01070090023000009REP       President KENDALL COUNTYWIDE                            Uncommitted (No Comprometido)         PRECINCT 3044                                          01 
01070090024000007REP       President KENDALL COUNTYWIDE                            Uncommitted (No Comprometido)         PRECINCT 3060                                          01 
01070090025000000REP       President KENDALL COUNTYWIDE                            Uncommitted (No Comprometido)         PRECINCT 3220                                          01 
01070090026000029REP       President KENDALL COUNTYWIDE                            Uncommitted (No Comprometido)         PRECINCT 4050                                          01 
01070090027000003REP       President KENDALL COUNTYWIDE                            Uncommitted (No Comprometido)         PRECINCT 4070                                          01 
01070090028000033REP       President KENDALL COUNTYWIDE                            Uncommitted (No Comprometido)         PRECINCT 4100                                          01 
01070090029000002REP       President KENDALL COUNTYWIDE                            Uncommitted (No Comprometido)         PRECINCT 4101                                          01 
01070090030000003REP       President KENDALL COUNTYWIDE                            Uncommitted (No Comprometido)         PRECINCT 4103                                          01 
01070090031000000REP       President KENDALL COUNTYWIDE                            Uncommitted (No Comprometido)         PRECINCT 4230                                          01 
01070090032000000REP       President KENDALL COUNTYWIDE                            Uncommitted (No Comprometido)         PRECINCT 4240                                          01 
01070090033000005REP       President KENDALL COUNTYWIDE                            Uncommitted (No Comprometido)         PRECINCT 4250                                          01 
01070100001000000REP       President KENDALL COUNTYWIDE                            OVER VOTES                            PRECINCT 1011                                          01 
01070100002000000REP       President KENDALL COUNTYWIDE                            OVER VOTES                            PRECINCT 1013                                          01 
01070100003000000REP       President KENDALL COUNTYWIDE                            OVER VOTES                            PRECINCT 1014                                          01 
01070100004000000REP       President KENDALL COUNTYWIDE                            OVER VOTES                            PRECINCT 1110                                          01 
01070100005000000REP       President KENDALL COUNTYWIDE                            OVER VOTES                            PRECINCT 1115                                          01 
01070100006000000REP       President KENDALL COUNTYWIDE                            OVER VOTES                            PRECINCT 1130                                          01 
01070100007000000REP       President KENDALL COUNTYWIDE                            OVER VOTES                            PRECINCT 1140                                          01 
01070100008000000REP       President KENDALL COUNTYWIDE                            OVER VOTES                            PRECINCT 1170                                          01 
01070100009000000REP       President KENDALL COUNTYWIDE                            OVER VOTES                            PRECINCT 1180                                          01 
01070100010000000REP       President KENDALL COUNTYWIDE                            OVER VOTES                            PRECINCT 1190                                          01 
01070100011000000REP       President KENDALL COUNTYWIDE                            OVER VOTES                            PRECINCT 1200                                          01 
01070100012000000REP       President KENDALL COUNTYWIDE                            OVER VOTES                            PRECINCT 2020                                          01 
01070100013000000REP       President KENDALL COUNTYWIDE                            OVER VOTES                            PRECINCT 2080                                          01 
01070100014000000REP       President KENDALL COUNTYWIDE                            OVER VOTES                            PRECINCT 2082                                          01 
01070100015000000REP       President KENDALL COUNTYWIDE                            OVER VOTES                            PRECINCT 2084                                          01 
01070100016000000REP       President KENDALL COUNTYWIDE                            OVER VOTES                            PRECINCT 2085                                          01 
01070100017000000REP       President KENDALL COUNTYWIDE                            OVER VOTES                            PRECINCT 2120                                          01 
01070100018000000REP       President KENDALL COUNTYWIDE                            OVER VOTES                            PRECINCT 2210                                          01 
01070100019000000REP       President KENDALL COUNTYWIDE                            OVER VOTES                            PRECINCT 3030                                          01 
01070100020000000REP       President KENDALL COUNTYWIDE                            OVER VOTES                            PRECINCT 3040                                          01 
01070100021000000REP       President KENDALL COUNTYWIDE                            OVER VOTES                            PRECINCT 3041                                          01 
01070100022000000REP       President KENDALL COUNTYWIDE                            OVER VOTES                            PRECINCT 3042                                          01 
01070100023000000REP       President KENDALL COUNTYWIDE                            OVER VOTES                            PRECINCT 3044                                          01 
01070100024000000REP       President KENDALL COUNTYWIDE                            OVER VOTES                            PRECINCT 3060                                          01 
01070100025000000REP       President KENDALL COUNTYWIDE                            OVER VOTES                            PRECINCT 3220                                          01 
01070100026000001REP       President KENDALL COUNTYWIDE                            OVER VOTES                            PRECINCT 4050                                          01 
01070100027000000REP       President KENDALL COUNTYWIDE                            OVER VOTES                            PRECINCT 4070                                          01 
01070100028000000REP       President KENDALL COUNTYWIDE                            OVER VOTES                            PRECINCT 4100                                          01 
01070100029000000REP       President KENDALL COUNTYWIDE                            OVER VOTES                            PRECINCT 4101                                          01 
01070100030000000REP       President KENDALL COUNTYWIDE                            OVER VOTES                            PRECINCT 4103                                          01 
01070100031000000REP       President KENDALL COUNTYWIDE                            OVER VOTES                            PRECINCT 4230                                          01 
01070100032000000REP       President KENDALL COUNTYWIDE                            OVER VOTES                            PRECINCT 4240                                          01 
01070100033000000REP       President KENDALL COUNTYWIDE                            OVER VOTES                            PRECINCT 4250                                          01 
01070110001000002REP       President KENDALL COUNTYWIDE                            UNDER VOTES                           PRECINCT 1011                                          01 
01070110002000016REP       President KENDALL COUNTYWIDE                            UNDER VOTES                           PRECINCT 1013                                          01 
01070110003000002REP       President KENDALL COUNTYWIDE                            UNDER VOTES                           PRECINCT 1014                                          01 
01070110004000023REP       President KENDALL COUNTYWIDE                            UNDER VOTES                           PRECINCT 1110                                          01 
01070110005000008REP       President KENDALL COUNTYWIDE                            UNDER VOTES                           PRECINCT 1115                                          01 
01070110006000000REP       President KENDALL COUNTYWIDE                            UNDER VOTES                           PRECINCT 1130                                          01 
01070110007000000REP       President KENDALL COUNTYWIDE                            UNDER VOTES                           PRECINCT 1140                                          01 
01070110008000000REP       President KENDALL COUNTYWIDE                            UNDER VOTES                           PRECINCT 1170                                          01 
01070110009000000REP       President KENDALL COUNTYWIDE                            UNDER VOTES                           PRECINCT 1180                                          01 
01070110010000001REP       President KENDALL COUNTYWIDE                            UNDER VOTES                           PRECINCT 1190                                          01 
01070110011000000REP       President KENDALL COUNTYWIDE                            UNDER VOTES                           PRECINCT 1200                                          01 
01070110012000003REP       President KENDALL COUNTYWIDE                            UNDER VOTES                           PRECINCT 2020                                          01 
01070110013000005REP       President KENDALL COUNTYWIDE                            UNDER VOTES                           PRECINCT 2080                                          01 
01070110014000008REP       President KENDALL COUNTYWIDE                            UNDER VOTES                           PRECINCT 2082                                          01 
01070110015000001REP       President KENDALL COUNTYWIDE                            UNDER VOTES                           PRECINCT 2084                                          01 
01070110016000003REP       President KENDALL COUNTYWIDE                            UNDER VOTES                           PRECINCT 2085                                          01 
01070110017000006REP       President KENDALL COUNTYWIDE                            UNDER VOTES                           PRECINCT 2120                                          01 
01070110018000001REP       President KENDALL COUNTYWIDE                            UNDER VOTES                           PRECINCT 2210                                          01 
01070110019000011REP       President KENDALL COUNTYWIDE                            UNDER VOTES                           PRECINCT 3030                                          01 
01070110020000013REP       President KENDALL COUNTYWIDE                            UNDER VOTES                           PRECINCT 3040                                          01 
01070110021000007REP       President KENDALL COUNTYWIDE                            UNDER VOTES                           PRECINCT 3041                                          01 
01070110022000001REP       President KENDALL COUNTYWIDE                            UNDER VOTES                           PRECINCT 3042                                          01 
01070110023000000REP       President KENDALL COUNTYWIDE                            UNDER VOTES                           PRECINCT 3044                                          01 
01070110024000010REP       President KENDALL COUNTYWIDE                            UNDER VOTES                           PRECINCT 3060                                          01 
01070110025000000REP       President KENDALL COUNTYWIDE                            UNDER VOTES                           PRECINCT 3220                                          01 
01070110026000018REP       President KENDALL COUNTYWIDE                            UNDER VOTES                           PRECINCT 4050                                          01 
01070110027000002REP       President KENDALL COUNTYWIDE                            UNDER VOTES                           PRECINCT 4070                                          01 
01070110028000015REP       President KENDALL COUNTYWIDE                            UNDER VOTES                           PRECINCT 4100                                          01 
01070110029000002REP       President KENDALL COUNTYWIDE                            UNDER VOTES                           PRECINCT 4101                                          01 
01070110030000001REP       President KENDALL COUNTYWIDE                            UNDER VOTES                           PRECINCT 4103                                          01 
01070110031000001REP       President KENDALL COUNTYWIDE                            UNDER VOTES                           PRECINCT 4230                                          01 
01070110032000000REP       President KENDALL COUNTYWIDE                            UNDER VOTES                           PRECINCT 4240                                          01 
01070110033000000REP       President KENDALL COUNTYWIDE                            UNDER VOTES                           PRECINCT 4250                                          01 
01080010001000000REP       United States Senator KENDALL COUNTYWIDE                Curt Cleaver                          PRECINCT 1011                                          01 
01080010002000002REP       United States Senator KENDALL COUNTYWIDE                Curt Cleaver                          PRECINCT 1013                                          01 
01080010003000000REP       United States Senator KENDALL COUNTYWIDE                Curt Cleaver                          PRECINCT 1014                                          01 
01080010004000007REP       United States Senator KENDALL COUNTYWIDE                Curt Cleaver                          PRECINCT 1110                                          01 
01080010005000005REP       United States Senator KENDALL COUNTYWIDE                Curt Cleaver                          PRECINCT 1115                                          01 
01080010006000000REP       United States Senator KENDALL COUNTYWIDE                Curt Cleaver                          PRECINCT 1130                                          01 
01080010007000000REP       United States Senator KENDALL COUNTYWIDE                Curt Cleaver                          PRECINCT 1140                                          01 
01080010008000000REP       United States Senator KENDALL COUNTYWIDE                Curt Cleaver                          PRECINCT 1170                                          01 
01080010009000000REP       United States Senator KENDALL COUNTYWIDE                Curt Cleaver                          PRECINCT 1180                                          01 
01080010010000000REP       United States Senator KENDALL COUNTYWIDE                Curt Cleaver                          PRECINCT 1190                                          01 
01080010011000000REP       United States Senator KENDALL COUNTYWIDE                Curt Cleaver                          PRECINCT 1200                                          01 
01080010012000002REP       United States Senator KENDALL COUNTYWIDE                Curt Cleaver                          PRECINCT 2020                                          01 
01080010013000000REP       United States Senator KENDALL COUNTYWIDE                Curt Cleaver                          PRECINCT 2080                                          01 
01080010014000000REP       United States Senator KENDALL COUNTYWIDE                Curt Cleaver                          PRECINCT 2082                                          01 
01080010015000000REP       United States Senator KENDALL COUNTYWIDE                Curt Cleaver                          PRECINCT 2084                                          01 
01080010016000000REP       United States Senator KENDALL COUNTYWIDE                Curt Cleaver                          PRECINCT 2085                                          01 
01080010017000001REP       United States Senator KENDALL COUNTYWIDE                Curt Cleaver                          PRECINCT 2120                                          01 
01080010018000000REP       United States Senator KENDALL COUNTYWIDE                Curt Cleaver                          PRECINCT 2210                                          01 
01080010019000003REP       United States Senator KENDALL COUNTYWIDE                Curt Cleaver                          PRECINCT 3030                                          01 
01080010020000003REP       United States Senator KENDALL COUNTYWIDE                Curt Cleaver                          PRECINCT 3040                                          01 
01080010021000003REP       United States Senator KENDALL COUNTYWIDE                Curt Cleaver                          PRECINCT 3041                                          01 
01080010022000001REP       United States Senator KENDALL COUNTYWIDE                Curt Cleaver                          PRECINCT 3042                                          01 
01080010023000000REP       United States Senator KENDALL COUNTYWIDE                Curt Cleaver                          PRECINCT 3044                                          01 
01080010024000000REP       United States Senator KENDALL COUNTYWIDE                Curt Cleaver                          PRECINCT 3060                                          01 
01080010025000001REP       United States Senator KENDALL COUNTYWIDE                Curt Cleaver                          PRECINCT 3220                                          01 
01080010026000005REP       United States Senator KENDALL COUNTYWIDE                Curt Cleaver                          PRECINCT 4050                                          01 
01080010027000000REP       United States Senator KENDALL COUNTYWIDE                Curt Cleaver                          PRECINCT 4070                                          01 
01080010028000003REP       United States Senator KENDALL COUNTYWIDE                Curt Cleaver                          PRECINCT 4100                                          01 
01080010029000000REP       United States Senator KENDALL COUNTYWIDE                Curt Cleaver                          PRECINCT 4101                                          01 
01080010030000000REP       United States Senator KENDALL COUNTYWIDE                Curt Cleaver                          PRECINCT 4103                                          01 
01080010031000000REP       United States Senator KENDALL COUNTYWIDE                Curt Cleaver                          PRECINCT 4230                                          01 
01080010032000000REP       United States Senator KENDALL COUNTYWIDE                Curt Cleaver                          PRECINCT 4240                                          01 
01080010033000000REP       United States Senator KENDALL COUNTYWIDE                Curt Cleaver                          PRECINCT 4250                                          01 
01080020001000013REP       United States Senator KENDALL COUNTYWIDE                David Dewhurst                        PRECINCT 1011                                          01 
01080020002000121REP       United States Senator KENDALL COUNTYWIDE                David Dewhurst                        PRECINCT 1013                                          01 
01080020003000060REP       United States Senator KENDALL COUNTYWIDE                David Dewhurst                        PRECINCT 1014                                          01 
01080020004000365REP       United States Senator KENDALL COUNTYWIDE                David Dewhurst                        PRECINCT 1110                                          01 
01080020005000135REP       United States Senator KENDALL COUNTYWIDE                David Dewhurst                        PRECINCT 1115                                          01 
01080020006000001REP       United States Senator KENDALL COUNTYWIDE                David Dewhurst                        PRECINCT 1130                                          01 
01080020007000000REP       United States Senator KENDALL COUNTYWIDE                David Dewhurst                        PRECINCT 1140                                          01 
01080020008000001REP       United States Senator KENDALL COUNTYWIDE                David Dewhurst                        PRECINCT 1170                                          01 
01080020009000000REP       United States Senator KENDALL COUNTYWIDE                David Dewhurst                        PRECINCT 1180                                          01 
01080020010000002REP       United States Senator KENDALL COUNTYWIDE                David Dewhurst                        PRECINCT 1190                                          01 
01080020011000000REP       United States Senator KENDALL COUNTYWIDE                David Dewhurst                        PRECINCT 1200                                          01 
01080020012000227REP       United States Senator KENDALL COUNTYWIDE                David Dewhurst                        PRECINCT 2020                                          01 
01080020013000217REP       United States Senator KENDALL COUNTYWIDE                David Dewhurst                        PRECINCT 2080                                          01 
01080020014000117REP       United States Senator KENDALL COUNTYWIDE                David Dewhurst                        PRECINCT 2082                                          01 
01080020015000017REP       United States Senator KENDALL COUNTYWIDE                David Dewhurst                        PRECINCT 2084                                          01 
01080020016000009REP       United States Senator KENDALL COUNTYWIDE                David Dewhurst                        PRECINCT 2085                                          01 
01080020017000146REP       United States Senator KENDALL COUNTYWIDE                David Dewhurst                        PRECINCT 2120                                          01 
01080020018000009REP       United States Senator KENDALL COUNTYWIDE                David Dewhurst                        PRECINCT 2210                                          01 
01080020019000224REP       United States Senator KENDALL COUNTYWIDE                David Dewhurst                        PRECINCT 3030                                          01 
01080020020000141REP       United States Senator KENDALL COUNTYWIDE                David Dewhurst                        PRECINCT 3040                                          01 
01080020021000178REP       United States Senator KENDALL COUNTYWIDE                David Dewhurst                        PRECINCT 3041                                          01 
01080020022000061REP       United States Senator KENDALL COUNTYWIDE                David Dewhurst                        PRECINCT 3042                                          01 
01080020023000069REP       United States Senator KENDALL COUNTYWIDE                David Dewhurst                        PRECINCT 3044                                          01 
01080020024000067REP       United States Senator KENDALL COUNTYWIDE                David Dewhurst                        PRECINCT 3060                                          01 
01080020025000001REP       United States Senator KENDALL COUNTYWIDE                David Dewhurst                        PRECINCT 3220                                          01 
01080020026000271REP       United States Senator KENDALL COUNTYWIDE                David Dewhurst                        PRECINCT 4050                                          01 
01080020027000030REP       United States Senator KENDALL COUNTYWIDE                David Dewhurst                        PRECINCT 4070                                          01 
01080020028000317REP       United States Senator KENDALL COUNTYWIDE                David Dewhurst                        PRECINCT 4100                                          01 
01080020029000016REP       United States Senator KENDALL COUNTYWIDE                David Dewhurst                        PRECINCT 4101                                          01 
01080020030000015REP       United States Senator KENDALL COUNTYWIDE                David Dewhurst                        PRECINCT 4103                                          01 
01080020031000001REP       United States Senator KENDALL COUNTYWIDE                David Dewhurst                        PRECINCT 4230                                          01 
01080020032000000REP       United States Senator KENDALL COUNTYWIDE                David Dewhurst                        PRECINCT 4240                                          01 
01080020033000009REP       United States Senator KENDALL COUNTYWIDE                David Dewhurst                        PRECINCT 4250                                          01 
01080030001000000REP       United States Senator KENDALL COUNTYWIDE                Glenn Addison                         PRECINCT 1011                                          01 
01080030002000003REP       United States Senator KENDALL COUNTYWIDE                Glenn Addison                         PRECINCT 1013                                          01 
01080030003000000REP       United States Senator KENDALL COUNTYWIDE                Glenn Addison                         PRECINCT 1014                                          01 
01080030004000010REP       United States Senator KENDALL COUNTYWIDE                Glenn Addison                         PRECINCT 1110                                          01 
01080030005000008REP       United States Senator KENDALL COUNTYWIDE                Glenn Addison                         PRECINCT 1115                                          01 
01080030006000000REP       United States Senator KENDALL COUNTYWIDE                Glenn Addison                         PRECINCT 1130                                          01 
01080030007000000REP       United States Senator KENDALL COUNTYWIDE                Glenn Addison                         PRECINCT 1140                                          01 
01080030008000000REP       United States Senator KENDALL COUNTYWIDE                Glenn Addison                         PRECINCT 1170                                          01 
01080030009000000REP       United States Senator KENDALL COUNTYWIDE                Glenn Addison                         PRECINCT 1180                                          01 
01080030010000000REP       United States Senator KENDALL COUNTYWIDE                Glenn Addison                         PRECINCT 1190                                          01 
01080030011000000REP       United States Senator KENDALL COUNTYWIDE                Glenn Addison                         PRECINCT 1200                                          01 
01080030012000005REP       United States Senator KENDALL COUNTYWIDE                Glenn Addison                         PRECINCT 2020                                          01 
01080030013000008REP       United States Senator KENDALL COUNTYWIDE                Glenn Addison                         PRECINCT 2080                                          01 
01080030014000005REP       United States Senator KENDALL COUNTYWIDE                Glenn Addison                         PRECINCT 2082                                          01 
01080030015000001REP       United States Senator KENDALL COUNTYWIDE                Glenn Addison                         PRECINCT 2084                                          01 
01080030016000000REP       United States Senator KENDALL COUNTYWIDE                Glenn Addison                         PRECINCT 2085                                          01 
01080030017000006REP       United States Senator KENDALL COUNTYWIDE                Glenn Addison                         PRECINCT 2120                                          01 
01080030018000000REP       United States Senator KENDALL COUNTYWIDE                Glenn Addison                         PRECINCT 2210                                          01 
01080030019000012REP       United States Senator KENDALL COUNTYWIDE                Glenn Addison                         PRECINCT 3030                                          01 
01080030020000005REP       United States Senator KENDALL COUNTYWIDE                Glenn Addison                         PRECINCT 3040                                          01 
01080030021000004REP       United States Senator KENDALL COUNTYWIDE                Glenn Addison                         PRECINCT 3041                                          01 
01080030022000004REP       United States Senator KENDALL COUNTYWIDE                Glenn Addison                         PRECINCT 3042                                          01 
01080030023000004REP       United States Senator KENDALL COUNTYWIDE                Glenn Addison                         PRECINCT 3044                                          01 
01080030024000000REP       United States Senator KENDALL COUNTYWIDE                Glenn Addison                         PRECINCT 3060                                          01 
01080030025000000REP       United States Senator KENDALL COUNTYWIDE                Glenn Addison                         PRECINCT 3220                                          01 
01080030026000005REP       United States Senator KENDALL COUNTYWIDE                Glenn Addison                         PRECINCT 4050                                          01 
01080030027000002REP       United States Senator KENDALL COUNTYWIDE                Glenn Addison                         PRECINCT 4070                                          01 
01080030028000012REP       United States Senator KENDALL COUNTYWIDE                Glenn Addison                         PRECINCT 4100                                          01 
01080030029000000REP       United States Senator KENDALL COUNTYWIDE                Glenn Addison                         PRECINCT 4101                                          01 
01080030030000000REP       United States Senator KENDALL COUNTYWIDE                Glenn Addison                         PRECINCT 4103                                          01 
01080030031000000REP       United States Senator KENDALL COUNTYWIDE                Glenn Addison                         PRECINCT 4230                                          01 
01080030032000000REP       United States Senator KENDALL COUNTYWIDE                Glenn Addison                         PRECINCT 4240                                          01 
01080030033000000REP       United States Senator KENDALL COUNTYWIDE                Glenn Addison                         PRECINCT 4250                                          01 
01080040001000000REP       United States Senator KENDALL COUNTYWIDE                Lela Pittenger                        PRECINCT 1011                                          01 
01080040002000007REP       United States Senator KENDALL COUNTYWIDE                Lela Pittenger                        PRECINCT 1013                                          01 
01080040003000000REP       United States Senator KENDALL COUNTYWIDE                Lela Pittenger                        PRECINCT 1014                                          01 
01080040004000018REP       United States Senator KENDALL COUNTYWIDE                Lela Pittenger                        PRECINCT 1110                                          01 
01080040005000007REP       United States Senator KENDALL COUNTYWIDE                Lela Pittenger                        PRECINCT 1115                                          01 
01080040006000000REP       United States Senator KENDALL COUNTYWIDE                Lela Pittenger                        PRECINCT 1130                                          01 
01080040007000000REP       United States Senator KENDALL COUNTYWIDE                Lela Pittenger                        PRECINCT 1140                                          01 
01080040008000000REP       United States Senator KENDALL COUNTYWIDE                Lela Pittenger                        PRECINCT 1170                                          01 
01080040009000000REP       United States Senator KENDALL COUNTYWIDE                Lela Pittenger                        PRECINCT 1180                                          01 
01080040010000000REP       United States Senator KENDALL COUNTYWIDE                Lela Pittenger                        PRECINCT 1190                                          01 
01080040011000000REP       United States Senator KENDALL COUNTYWIDE                Lela Pittenger                        PRECINCT 1200                                          01 
01080040012000011REP       United States Senator KENDALL COUNTYWIDE                Lela Pittenger                        PRECINCT 2020                                          01 
01080040013000006REP       United States Senator KENDALL COUNTYWIDE                Lela Pittenger                        PRECINCT 2080                                          01 
01080040014000005REP       United States Senator KENDALL COUNTYWIDE                Lela Pittenger                        PRECINCT 2082                                          01 
01080040015000000REP       United States Senator KENDALL COUNTYWIDE                Lela Pittenger                        PRECINCT 2084                                          01 
01080040016000000REP       United States Senator KENDALL COUNTYWIDE                Lela Pittenger                        PRECINCT 2085                                          01 
01080040017000013REP       United States Senator KENDALL COUNTYWIDE                Lela Pittenger                        PRECINCT 2120                                          01 
01080040018000000REP       United States Senator KENDALL COUNTYWIDE                Lela Pittenger                        PRECINCT 2210                                          01 
01080040019000010REP       United States Senator KENDALL COUNTYWIDE                Lela Pittenger                        PRECINCT 3030                                          01 
01080040020000005REP       United States Senator KENDALL COUNTYWIDE                Lela Pittenger                        PRECINCT 3040                                          01 
01080040021000005REP       United States Senator KENDALL COUNTYWIDE                Lela Pittenger                        PRECINCT 3041                                          01 
01080040022000002REP       United States Senator KENDALL COUNTYWIDE                Lela Pittenger                        PRECINCT 3042                                          01 
01080040023000000REP       United States Senator KENDALL COUNTYWIDE                Lela Pittenger                        PRECINCT 3044                                          01 
01080040024000002REP       United States Senator KENDALL COUNTYWIDE                Lela Pittenger                        PRECINCT 3060                                          01 
01080040025000000REP       United States Senator KENDALL COUNTYWIDE                Lela Pittenger                        PRECINCT 3220                                          01 
01080040026000012REP       United States Senator KENDALL COUNTYWIDE                Lela Pittenger                        PRECINCT 4050                                          01 
01080040027000001REP       United States Senator KENDALL COUNTYWIDE                Lela Pittenger                        PRECINCT 4070                                          01 
01080040028000011REP       United States Senator KENDALL COUNTYWIDE                Lela Pittenger                        PRECINCT 4100                                          01 
01080040029000002REP       United States Senator KENDALL COUNTYWIDE                Lela Pittenger                        PRECINCT 4101                                          01 
01080040030000000REP       United States Senator KENDALL COUNTYWIDE                Lela Pittenger                        PRECINCT 4103                                          01 
01080040031000000REP       United States Senator KENDALL COUNTYWIDE                Lela Pittenger                        PRECINCT 4230                                          01 
01080040032000000REP       United States Senator KENDALL COUNTYWIDE                Lela Pittenger                        PRECINCT 4240                                          01 
01080040033000000REP       United States Senator KENDALL COUNTYWIDE                Lela Pittenger                        PRECINCT 4250                                          01 
01080050001000005REP       United States Senator KENDALL COUNTYWIDE                Tom Leppert                           PRECINCT 1011                                          01 
01080050002000039REP       United States Senator KENDALL COUNTYWIDE                Tom Leppert                           PRECINCT 1013                                          01 
01080050003000024REP       United States Senator KENDALL COUNTYWIDE                Tom Leppert                           PRECINCT 1014                                          01 
01080050004000128REP       United States Senator KENDALL COUNTYWIDE                Tom Leppert                           PRECINCT 1110                                          01 
01080050005000043REP       United States Senator KENDALL COUNTYWIDE                Tom Leppert                           PRECINCT 1115                                          01 
01080050006000000REP       United States Senator KENDALL COUNTYWIDE                Tom Leppert                           PRECINCT 1130                                          01 
01080050007000000REP       United States Senator KENDALL COUNTYWIDE                Tom Leppert                           PRECINCT 1140                                          01 
01080050008000000REP       United States Senator KENDALL COUNTYWIDE                Tom Leppert                           PRECINCT 1170                                          01 
01080050009000000REP       United States Senator KENDALL COUNTYWIDE                Tom Leppert                           PRECINCT 1180                                          01 
01080050010000002REP       United States Senator KENDALL COUNTYWIDE                Tom Leppert                           PRECINCT 1190                                          01 
01080050011000000REP       United States Senator KENDALL COUNTYWIDE                Tom Leppert                           PRECINCT 1200                                          01 
01080050012000059REP       United States Senator KENDALL COUNTYWIDE                Tom Leppert                           PRECINCT 2020                                          01 
01080050013000064REP       United States Senator KENDALL COUNTYWIDE                Tom Leppert                           PRECINCT 2080                                          01 
01080050014000024REP       United States Senator KENDALL COUNTYWIDE                Tom Leppert                           PRECINCT 2082                                          01 
01080050015000002REP       United States Senator KENDALL COUNTYWIDE                Tom Leppert                           PRECINCT 2084                                          01 
01080050016000001REP       United States Senator KENDALL COUNTYWIDE                Tom Leppert                           PRECINCT 2085                                          01 
01080050017000043REP       United States Senator KENDALL COUNTYWIDE                Tom Leppert                           PRECINCT 2120                                          01 
01080050018000008REP       United States Senator KENDALL COUNTYWIDE                Tom Leppert                           PRECINCT 2210                                          01 
01080050019000092REP       United States Senator KENDALL COUNTYWIDE                Tom Leppert                           PRECINCT 3030                                          01 
01080050020000054REP       United States Senator KENDALL COUNTYWIDE                Tom Leppert                           PRECINCT 3040                                          01 
01080050021000051REP       United States Senator KENDALL COUNTYWIDE                Tom Leppert                           PRECINCT 3041                                          01 
01080050022000017REP       United States Senator KENDALL COUNTYWIDE                Tom Leppert                           PRECINCT 3042                                          01 
01080050023000019REP       United States Senator KENDALL COUNTYWIDE                Tom Leppert                           PRECINCT 3044                                          01 
01080050024000015REP       United States Senator KENDALL COUNTYWIDE                Tom Leppert                           PRECINCT 3060                                          01 
01080050025000001REP       United States Senator KENDALL COUNTYWIDE                Tom Leppert                           PRECINCT 3220                                          01 
01080050026000080REP       United States Senator KENDALL COUNTYWIDE                Tom Leppert                           PRECINCT 4050                                          01 
01080050027000011REP       United States Senator KENDALL COUNTYWIDE                Tom Leppert                           PRECINCT 4070                                          01 
01080050028000091REP       United States Senator KENDALL COUNTYWIDE                Tom Leppert                           PRECINCT 4100                                          01 
01080050029000012REP       United States Senator KENDALL COUNTYWIDE                Tom Leppert                           PRECINCT 4101                                          01 
01080050030000002REP       United States Senator KENDALL COUNTYWIDE                Tom Leppert                           PRECINCT 4103                                          01 
01080050031000000REP       United States Senator KENDALL COUNTYWIDE                Tom Leppert                           PRECINCT 4230                                          01 
01080050032000002REP       United States Senator KENDALL COUNTYWIDE                Tom Leppert                           PRECINCT 4240                                          01 
01080050033000004REP       United States Senator KENDALL COUNTYWIDE                Tom Leppert                           PRECINCT 4250                                          01 
01080060001000012REP       United States Senator KENDALL COUNTYWIDE                Ted Cruz                              PRECINCT 1011                                          01 
01080060002000072REP       United States Senator KENDALL COUNTYWIDE                Ted Cruz                              PRECINCT 1013                                          01 
01080060003000050REP       United States Senator KENDALL COUNTYWIDE                Ted Cruz                              PRECINCT 1014                                          01 
01080060004000255REP       United States Senator KENDALL COUNTYWIDE                Ted Cruz                              PRECINCT 1110                                          01 
01080060005000089REP       United States Senator KENDALL COUNTYWIDE                Ted Cruz                              PRECINCT 1115                                          01 
01080060006000000REP       United States Senator KENDALL COUNTYWIDE                Ted Cruz                              PRECINCT 1130                                          01 
01080060007000000REP       United States Senator KENDALL COUNTYWIDE                Ted Cruz                              PRECINCT 1140                                          01 
01080060008000000REP       United States Senator KENDALL COUNTYWIDE                Ted Cruz                              PRECINCT 1170                                          01 
01080060009000000REP       United States Senator KENDALL COUNTYWIDE                Ted Cruz                              PRECINCT 1180                                          01 
01080060010000001REP       United States Senator KENDALL COUNTYWIDE                Ted Cruz                              PRECINCT 1190                                          01 
01080060011000001REP       United States Senator KENDALL COUNTYWIDE                Ted Cruz                              PRECINCT 1200                                          01 
01080060012000216REP       United States Senator KENDALL COUNTYWIDE                Ted Cruz                              PRECINCT 2020                                          01 
01080060013000254REP       United States Senator KENDALL COUNTYWIDE                Ted Cruz                              PRECINCT 2080                                          01 
01080060014000088REP       United States Senator KENDALL COUNTYWIDE                Ted Cruz                              PRECINCT 2082                                          01 
01080060015000009REP       United States Senator KENDALL COUNTYWIDE                Ted Cruz                              PRECINCT 2084                                          01 
01080060016000010REP       United States Senator KENDALL COUNTYWIDE                Ted Cruz                              PRECINCT 2085                                          01 
01080060017000125REP       United States Senator KENDALL COUNTYWIDE                Ted Cruz                              PRECINCT 2120                                          01 
01080060018000009REP       United States Senator KENDALL COUNTYWIDE                Ted Cruz                              PRECINCT 2210                                          01 
01080060019000235REP       United States Senator KENDALL COUNTYWIDE                Ted Cruz                              PRECINCT 3030                                          01 
01080060020000122REP       United States Senator KENDALL COUNTYWIDE                Ted Cruz                              PRECINCT 3040                                          01 
01080060021000102REP       United States Senator KENDALL COUNTYWIDE                Ted Cruz                              PRECINCT 3041                                          01 
01080060022000027REP       United States Senator KENDALL COUNTYWIDE                Ted Cruz                              PRECINCT 3042                                          01 
01080060023000033REP       United States Senator KENDALL COUNTYWIDE                Ted Cruz                              PRECINCT 3044                                          01 
01080060024000069REP       United States Senator KENDALL COUNTYWIDE                Ted Cruz                              PRECINCT 3060                                          01 
