01000010001000000000000000000000000000000000000          REGISTERED VOTERS - TOTAL                               REGISTERED VOTERS - TOTAL             PRECINCT 1                                             00 
01000010002000000000000000000000000000000000000          REGISTERED VOTERS - TOTAL                               REGISTERED VOTERS - TOTAL             PRECINCT 1B                                            00 
01000010003000000000000000000000000000000000000          REGISTERED VOTERS - TOTAL                               REGISTERED VOTERS - TOTAL             PRECINCT 1C                                            00 
01000010004000000000000000000000000000000000000          REGISTERED VOTERS - TOTAL                               REGISTERED VOTERS - TOTAL             PRECINCT 1D                                            00 
01000010005000000000000000000000000000000000000          REGISTERED VOTERS - TOTAL                               REGISTERED VOTERS - TOTAL             PRECINCT 1E                                            00 
01000010006000000000000000000000000000000000000          REGISTERED VOTERS - TOTAL                               REGISTERED VOTERS - TOTAL             PRECINCT 1F                                            00 
01000010007000000000000000000000000000000000000          REGISTERED VOTERS - TOTAL                               REGISTERED VOTERS - TOTAL             PRECINCT 2                                             00 
01000010008000000000000000000000000000000000000          REGISTERED VOTERS - TOTAL                               REGISTERED VOTERS - TOTAL             PRECINCT 3                                             00 
01000010009000000000000000000000000000000000000          REGISTERED VOTERS - TOTAL                               REGISTERED VOTERS - TOTAL             PRECINCT 3B                                            00 
01000010010000000000000000000000000000000000000          REGISTERED VOTERS - TOTAL                               REGISTERED VOTERS - TOTAL             PRECINCT 4                                             00 
01000010011000000000000000000000000000000000000          REGISTERED VOTERS - TOTAL                               REGISTERED VOTERS - TOTAL             PRECINCT 5                                             00 
01000010012000000000000000000000000000000000000          REGISTERED VOTERS - TOTAL                               REGISTERED VOTERS - TOTAL             PRECINCT 6                                             00 
01000010013000000000000000000000000000000000000          REGISTERED VOTERS - TOTAL                               REGISTERED VOTERS - TOTAL             PRECINCT 7                                             00 
01000010014000000000000000000000000000000000000          REGISTERED VOTERS - TOTAL                               REGISTERED VOTERS - TOTAL             PRECINCT 8                                             00 
01000010015000000000000000000000000000000000000          REGISTERED VOTERS - TOTAL                               REGISTERED VOTERS - TOTAL             PRECINCT 9                                             00 
01000010016000000000000000000000000000000000000          REGISTERED VOTERS - TOTAL                               REGISTERED VOTERS - TOTAL             PRECINCT 10                                            00 
01000010017000000000000000000000000000000000000          REGISTERED VOTERS - TOTAL                               REGISTERED VOTERS - TOTAL             PRECINCT 12                                            00 
01000010018000000000000000000000000000000000000          REGISTERED VOTERS - TOTAL                               REGISTERED VOTERS - TOTAL             PRECINCT 13                                            00 
01010010001000000000000000000000000000000000000REP       REGISTERED VOTERS - REPUBLICAN PARTY                    REGISTERED VOTERS - REPUBLICAN PARTY  PRECINCT 1                                             00 
01010010002000000000000000000000000000000000000REP       REGISTERED VOTERS - REPUBLICAN PARTY                    REGISTERED VOTERS - REPUBLICAN PARTY  PRECINCT 1B                                            00 
01010010003000000000000000000000000000000000000REP       REGISTERED VOTERS - REPUBLICAN PARTY                    REGISTERED VOTERS - REPUBLICAN PARTY  PRECINCT 1C                                            00 
01010010004000000000000000000000000000000000000REP       REGISTERED VOTERS - REPUBLICAN PARTY                    REGISTERED VOTERS - REPUBLICAN PARTY  PRECINCT 1D                                            00 
01010010005000000000000000000000000000000000000REP       REGISTERED VOTERS - REPUBLICAN PARTY                    REGISTERED VOTERS - REPUBLICAN PARTY  PRECINCT 1E                                            00 
01010010006000000000000000000000000000000000000REP       REGISTERED VOTERS - REPUBLICAN PARTY                    REGISTERED VOTERS - REPUBLICAN PARTY  PRECINCT 1F                                            00 
01010010007000000000000000000000000000000000000REP       REGISTERED VOTERS - REPUBLICAN PARTY                    REGISTERED VOTERS - REPUBLICAN PARTY  PRECINCT 2                                             00 
01010010008000000000000000000000000000000000000REP       REGISTERED VOTERS - REPUBLICAN PARTY                    REGISTERED VOTERS - REPUBLICAN PARTY  PRECINCT 3                                             00 
01010010009000000000000000000000000000000000000REP       REGISTERED VOTERS - REPUBLICAN PARTY                    REGISTERED VOTERS - REPUBLICAN PARTY  PRECINCT 3B                                            00 
01010010010000000000000000000000000000000000000REP       REGISTERED VOTERS - REPUBLICAN PARTY                    REGISTERED VOTERS - REPUBLICAN PARTY  PRECINCT 4                                             00 
01010010011000000000000000000000000000000000000REP       REGISTERED VOTERS - REPUBLICAN PARTY                    REGISTERED VOTERS - REPUBLICAN PARTY  PRECINCT 5                                             00 
01010010012000000000000000000000000000000000000REP       REGISTERED VOTERS - REPUBLICAN PARTY                    REGISTERED VOTERS - REPUBLICAN PARTY  PRECINCT 6                                             00 
01010010013000000000000000000000000000000000000REP       REGISTERED VOTERS - REPUBLICAN PARTY                    REGISTERED VOTERS - REPUBLICAN PARTY  PRECINCT 7                                             00 
01010010014000000000000000000000000000000000000REP       REGISTERED VOTERS - REPUBLICAN PARTY                    REGISTERED VOTERS - REPUBLICAN PARTY  PRECINCT 8                                             00 
01010010015000000000000000000000000000000000000REP       REGISTERED VOTERS - REPUBLICAN PARTY                    REGISTERED VOTERS - REPUBLICAN PARTY  PRECINCT 9                                             00 
01010010016000000000000000000000000000000000000REP       REGISTERED VOTERS - REPUBLICAN PARTY                    REGISTERED VOTERS - REPUBLICAN PARTY  PRECINCT 10                                            00 
01010010017000000000000000000000000000000000000REP       REGISTERED VOTERS - REPUBLICAN PARTY                    REGISTERED VOTERS - REPUBLICAN PARTY  PRECINCT 12                                            00 
01010010018000000000000000000000000000000000000REP       REGISTERED VOTERS - REPUBLICAN PARTY                    REGISTERED VOTERS - REPUBLICAN PARTY  PRECINCT 13                                            00 
01020010001000000000000000000000000000000000000DEM       REGISTERED VOTERS - DEMOCRATIC PARTY                    REGISTERED VOTERS - DEMOCRATIC PARTY  PRECINCT 1                                             00 
01020010002000000000000000000000000000000000000DEM       REGISTERED VOTERS - DEMOCRATIC PARTY                    REGISTERED VOTERS - DEMOCRATIC PARTY  PRECINCT 1B                                            00 
01020010003000000000000000000000000000000000000DEM       REGISTERED VOTERS - DEMOCRATIC PARTY                    REGISTERED VOTERS - DEMOCRATIC PARTY  PRECINCT 1C                                            00 
01020010004000000000000000000000000000000000000DEM       REGISTERED VOTERS - DEMOCRATIC PARTY                    REGISTERED VOTERS - DEMOCRATIC PARTY  PRECINCT 1D                                            00 
01020010005000000000000000000000000000000000000DEM       REGISTERED VOTERS - DEMOCRATIC PARTY                    REGISTERED VOTERS - DEMOCRATIC PARTY  PRECINCT 1E                                            00 
01020010006000000000000000000000000000000000000DEM       REGISTERED VOTERS - DEMOCRATIC PARTY                    REGISTERED VOTERS - DEMOCRATIC PARTY  PRECINCT 1F                                            00 
01020010007000000000000000000000000000000000000DEM       REGISTERED VOTERS - DEMOCRATIC PARTY                    REGISTERED VOTERS - DEMOCRATIC PARTY  PRECINCT 2                                             00 
01020010008000000000000000000000000000000000000DEM       REGISTERED VOTERS - DEMOCRATIC PARTY                    REGISTERED VOTERS - DEMOCRATIC PARTY  PRECINCT 3                                             00 
01020010009000000000000000000000000000000000000DEM       REGISTERED VOTERS - DEMOCRATIC PARTY                    REGISTERED VOTERS - DEMOCRATIC PARTY  PRECINCT 3B                                            00 
01020010010000000000000000000000000000000000000DEM       REGISTERED VOTERS - DEMOCRATIC PARTY                    REGISTERED VOTERS - DEMOCRATIC PARTY  PRECINCT 4                                             00 
01020010011000000000000000000000000000000000000DEM       REGISTERED VOTERS - DEMOCRATIC PARTY                    REGISTERED VOTERS - DEMOCRATIC PARTY  PRECINCT 5                                             00 
01020010012000000000000000000000000000000000000DEM       REGISTERED VOTERS - DEMOCRATIC PARTY                    REGISTERED VOTERS - DEMOCRATIC PARTY  PRECINCT 6                                             00 
01020010013000000000000000000000000000000000000DEM       REGISTERED VOTERS - DEMOCRATIC PARTY                    REGISTERED VOTERS - DEMOCRATIC PARTY  PRECINCT 7                                             00 
01020010014000000000000000000000000000000000000DEM       REGISTERED VOTERS - DEMOCRATIC PARTY                    REGISTERED VOTERS - DEMOCRATIC PARTY  PRECINCT 8                                             00 
01020010015000000000000000000000000000000000000DEM       REGISTERED VOTERS - DEMOCRATIC PARTY                    REGISTERED VOTERS - DEMOCRATIC PARTY  PRECINCT 9                                             00 
01020010016000000000000000000000000000000000000DEM       REGISTERED VOTERS - DEMOCRATIC PARTY                    REGISTERED VOTERS - DEMOCRATIC PARTY  PRECINCT 10                                            00 
01020010017000000000000000000000000000000000000DEM       REGISTERED VOTERS - DEMOCRATIC PARTY                    REGISTERED VOTERS - DEMOCRATIC PARTY  PRECINCT 12                                            00 
01020010018000000000000000000000000000000000000DEM       REGISTERED VOTERS - DEMOCRATIC PARTY                    REGISTERED VOTERS - DEMOCRATIC PARTY  PRECINCT 13                                            00 
01030010001000694000324000370000000000000000000          BALLOTS CAST - TOTAL                                    BALLOTS CAST - TOTAL                  PRECINCT 1                                             00 
01030010002000824000309000515000000000000000000          BALLOTS CAST - TOTAL                                    BALLOTS CAST - TOTAL                  PRECINCT 1B                                            00 
01030010003000355000161000194000000000000000000          BALLOTS CAST - TOTAL                                    BALLOTS CAST - TOTAL                  PRECINCT 1C                                            00 
01030010004000253000110000143000000000000000000          BALLOTS CAST - TOTAL                                    BALLOTS CAST - TOTAL                  PRECINCT 1D                                            00 
01030010005000338000169000169000000000000000000          BALLOTS CAST - TOTAL                                    BALLOTS CAST - TOTAL                  PRECINCT 1E                                            00 
01030010006000147000065000082000000000000000000          BALLOTS CAST - TOTAL                                    BALLOTS CAST - TOTAL                  PRECINCT 1F                                            00 
01030010007000204000160000044000000000000000000          BALLOTS CAST - TOTAL                                    BALLOTS CAST - TOTAL                  PRECINCT 2                                             00 
01030010008000335000193000141000001000000000000          BALLOTS CAST - TOTAL                                    BALLOTS CAST - TOTAL                  PRECINCT 3                                             00 
01030010009000145000096000049000000000000000000          BALLOTS CAST - TOTAL                                    BALLOTS CAST - TOTAL                  PRECINCT 3B                                            00 
01030010010000430000344000086000000000000000000          BALLOTS CAST - TOTAL                                    BALLOTS CAST - TOTAL                  PRECINCT 4                                             00 
01030010011000408000284000124000000000000000000          BALLOTS CAST - TOTAL                                    BALLOTS CAST - TOTAL                  PRECINCT 5                                             00 
01030010012000291000236000055000000000000000000          BALLOTS CAST - TOTAL                                    BALLOTS CAST - TOTAL                  PRECINCT 6                                             00 
01030010013000050000032000018000000000000000000          BALLOTS CAST - TOTAL                                    BALLOTS CAST - TOTAL                  PRECINCT 7                                             00 
01030010014000294000221000073000000000000000000          BALLOTS CAST - TOTAL                                    BALLOTS CAST - TOTAL                  PRECINCT 8                                             00 
01030010015000043000039000004000000000000000000          BALLOTS CAST - TOTAL                                    BALLOTS CAST - TOTAL                  PRECINCT 9                                             00 
01030010016000116000098000018000000000000000000          BALLOTS CAST - TOTAL                                    BALLOTS CAST - TOTAL                  PRECINCT 10                                            00 
01030010017000107000082000025000000000000000000          BALLOTS CAST - TOTAL                                    BALLOTS CAST - TOTAL                  PRECINCT 12                                            00 
01030010018000168000133000035000000000000000000          BALLOTS CAST - TOTAL                                    BALLOTS CAST - TOTAL                  PRECINCT 13                                            00 
01040010001000405000206000199000000000000000000REP       BALLOTS CAST - REPUBLICAN PARTY                         BALLOTS CAST - REPUBLICAN PARTY       PRECINCT 1                                             00 
01040010002000459000160000299000000000000000000REP       BALLOTS CAST - REPUBLICAN PARTY                         BALLOTS CAST - REPUBLICAN PARTY       PRECINCT 1B                                            00 
01040010003000045000017000028000000000000000000REP       BALLOTS CAST - REPUBLICAN PARTY                         BALLOTS CAST - REPUBLICAN PARTY       PRECINCT 1C                                            00 
01040010004000095000038000057000000000000000000REP       BALLOTS CAST - REPUBLICAN PARTY                         BALLOTS CAST - REPUBLICAN PARTY       PRECINCT 1D                                            00 
01040010005000131000059000072000000000000000000REP       BALLOTS CAST - REPUBLICAN PARTY                         BALLOTS CAST - REPUBLICAN PARTY       PRECINCT 1E                                            00 
01040010006000060000030000030000000000000000000REP       BALLOTS CAST - REPUBLICAN PARTY                         BALLOTS CAST - REPUBLICAN PARTY       PRECINCT 1F                                            00 
01040010007000147000117000030000000000000000000REP       BALLOTS CAST - REPUBLICAN PARTY                         BALLOTS CAST - REPUBLICAN PARTY       PRECINCT 2                                             00 
01040010008000146000098000047000001000000000000REP       BALLOTS CAST - REPUBLICAN PARTY                         BALLOTS CAST - REPUBLICAN PARTY       PRECINCT 3                                             00 
01040010009000082000058000024000000000000000000REP       BALLOTS CAST - REPUBLICAN PARTY                         BALLOTS CAST - REPUBLICAN PARTY       PRECINCT 3B                                            00 
01040010010000167000136000031000000000000000000REP       BALLOTS CAST - REPUBLICAN PARTY                         BALLOTS CAST - REPUBLICAN PARTY       PRECINCT 4                                             00 
01040010011000202000138000064000000000000000000REP       BALLOTS CAST - REPUBLICAN PARTY                         BALLOTS CAST - REPUBLICAN PARTY       PRECINCT 5                                             00 
01040010012000178000145000033000000000000000000REP       BALLOTS CAST - REPUBLICAN PARTY                         BALLOTS CAST - REPUBLICAN PARTY       PRECINCT 6                                             00 
01040010013000031000024000007000000000000000000REP       BALLOTS CAST - REPUBLICAN PARTY                         BALLOTS CAST - REPUBLICAN PARTY       PRECINCT 7                                             00 
01040010014000095000075000020000000000000000000REP       BALLOTS CAST - REPUBLICAN PARTY                         BALLOTS CAST - REPUBLICAN PARTY       PRECINCT 8                                             00 
01040010015000018000017000001000000000000000000REP       BALLOTS CAST - REPUBLICAN PARTY                         BALLOTS CAST - REPUBLICAN PARTY       PRECINCT 9                                             00 
01040010016000073000063000010000000000000000000REP       BALLOTS CAST - REPUBLICAN PARTY                         BALLOTS CAST - REPUBLICAN PARTY       PRECINCT 10                                            00 
01040010017000043000030000013000000000000000000REP       BALLOTS CAST - REPUBLICAN PARTY                         BALLOTS CAST - REPUBLICAN PARTY       PRECINCT 12                                            00 
01040010018000064000054000010000000000000000000REP       BALLOTS CAST - REPUBLICAN PARTY                         BALLOTS CAST - REPUBLICAN PARTY       PRECINCT 13                                            00 
01050010001000289000118000171000000000000000000DEM       BALLOTS CAST - DEMOCRATIC PARTY                         BALLOTS CAST - DEMOCRATIC PARTY       PRECINCT 1                                             00 
01050010002000365000149000216000000000000000000DEM       BALLOTS CAST - DEMOCRATIC PARTY                         BALLOTS CAST - DEMOCRATIC PARTY       PRECINCT 1B                                            00 
01050010003000310000144000166000000000000000000DEM       BALLOTS CAST - DEMOCRATIC PARTY                         BALLOTS CAST - DEMOCRATIC PARTY       PRECINCT 1C                                            00 
01050010004000158000072000086000000000000000000DEM       BALLOTS CAST - DEMOCRATIC PARTY                         BALLOTS CAST - DEMOCRATIC PARTY       PRECINCT 1D                                            00 
01050010005000207000110000097000000000000000000DEM       BALLOTS CAST - DEMOCRATIC PARTY                         BALLOTS CAST - DEMOCRATIC PARTY       PRECINCT 1E                                            00 
01050010006000087000035000052000000000000000000DEM       BALLOTS CAST - DEMOCRATIC PARTY                         BALLOTS CAST - DEMOCRATIC PARTY       PRECINCT 1F                                            00 
01050010007000057000043000014000000000000000000DEM       BALLOTS CAST - DEMOCRATIC PARTY                         BALLOTS CAST - DEMOCRATIC PARTY       PRECINCT 2                                             00 
01050010008000189000095000094000000000000000000DEM       BALLOTS CAST - DEMOCRATIC PARTY                         BALLOTS CAST - DEMOCRATIC PARTY       PRECINCT 3                                             00 
01050010009000063000038000025000000000000000000DEM       BALLOTS CAST - DEMOCRATIC PARTY                         BALLOTS CAST - DEMOCRATIC PARTY       PRECINCT 3B                                            00 
01050010010000263000208000055000000000000000000DEM       BALLOTS CAST - DEMOCRATIC PARTY                         BALLOTS CAST - DEMOCRATIC PARTY       PRECINCT 4                                             00 
01050010011000206000146000060000000000000000000DEM       BALLOTS CAST - DEMOCRATIC PARTY                         BALLOTS CAST - DEMOCRATIC PARTY       PRECINCT 5                                             00 
01050010012000113000091000022000000000000000000DEM       BALLOTS CAST - DEMOCRATIC PARTY                         BALLOTS CAST - DEMOCRATIC PARTY       PRECINCT 6                                             00 
01050010013000019000008000011000000000000000000DEM       BALLOTS CAST - DEMOCRATIC PARTY                         BALLOTS CAST - DEMOCRATIC PARTY       PRECINCT 7                                             00 
01050010014000199000146000053000000000000000000DEM       BALLOTS CAST - DEMOCRATIC PARTY                         BALLOTS CAST - DEMOCRATIC PARTY       PRECINCT 8                                             00 
01050010015000025000022000003000000000000000000DEM       BALLOTS CAST - DEMOCRATIC PARTY                         BALLOTS CAST - DEMOCRATIC PARTY       PRECINCT 9                                             00 
01050010016000043000035000008000000000000000000DEM       BALLOTS CAST - DEMOCRATIC PARTY                         BALLOTS CAST - DEMOCRATIC PARTY       PRECINCT 10                                            00 
01050010017000064000052000012000000000000000000DEM       BALLOTS CAST - DEMOCRATIC PARTY                         BALLOTS CAST - DEMOCRATIC PARTY       PRECINCT 12                                            00 
01050010018000104000079000025000000000000000000DEM       BALLOTS CAST - DEMOCRATIC PARTY                         BALLOTS CAST - DEMOCRATIC PARTY       PRECINCT 13                                            00 
01060010001000089000044000045000000000000000000REP       President                                               Ron Paul                              PRECINCT 1                                             01 
01060010002000095000033000062000000000000000000REP       President                                               Ron Paul                              PRECINCT 1B                                            01 
01060010003000010000004000006000000000000000000REP       President                                               Ron Paul                              PRECINCT 1C                                            01 
01060010004000022000009000013000000000000000000REP       President                                               Ron Paul                              PRECINCT 1D                                            01 
01060010005000024000010000014000000000000000000REP       President                                               Ron Paul                              PRECINCT 1E                                            01 
01060010006000015000006000006000003000000000000REP       President                                               Ron Paul                              PRECINCT 1F                                            01 
01060010007000032000027000005000000000000000000REP       President                                               Ron Paul                              PRECINCT 2                                             01 
01060010008000026000016000009000001000000000000REP       President                                               Ron Paul                              PRECINCT 3                                             01 
01060010009000022000014000008000000000000000000REP       President                                               Ron Paul                              PRECINCT 3B                                            01 
01060010010000042000040000002000000000000000000REP       President                                               Ron Paul                              PRECINCT 4                                             01 
01060010011000044000034000010000000000000000000REP       President                                               Ron Paul                              PRECINCT 5                                             01 
01060010012000037000032000005000000000000000000REP       President                                               Ron Paul                              PRECINCT 6                                             01 
01060010013000007000004000003000000000000000000REP       President                                               Ron Paul                              PRECINCT 7                                             01 
01060010014000027000019000008000000000000000000REP       President                                               Ron Paul                              PRECINCT 8                                             01 
01060010015000005000005000000000000000000000000REP       President                                               Ron Paul                              PRECINCT 9                                             01 
01060010016000014000014000000000000000000000000REP       President                                               Ron Paul                              PRECINCT 10                                            01 
01060010017000009000005000004000000000000000000REP       President                                               Ron Paul                              PRECINCT 12                                            01 
01060010018000014000013000001000000000000000000REP       President                                               Ron Paul                              PRECINCT 13                                            01 
01060020001000001000001000000000000000000000000REP       President                                               John Davis                            PRECINCT 1                                             01 
01060020002000002000001000001000000000000000000REP       President                                               John Davis                            PRECINCT 1B                                            01 
01060020003000000000000000000000000000000000000REP       President                                               John Davis                            PRECINCT 1C                                            01 
01060020004000000000000000000000000000000000000REP       President                                               John Davis                            PRECINCT 1D                                            01 
01060020005000001000000000001000000000000000000REP       President                                               John Davis                            PRECINCT 1E                                            01 
01060020006000000000000000000000000000000000000REP       President                                               John Davis                            PRECINCT 1F                                            01 
01060020007000000000000000000000000000000000000REP       President                                               John Davis                            PRECINCT 2                                             01 
01060020008000000000000000000000000000000000000REP       President                                               John Davis                            PRECINCT 3                                             01 
01060020009000000000000000000000000000000000000REP       President                                               John Davis                            PRECINCT 3B                                            01 
01060020010000001000001000000000000000000000000REP       President                                               John Davis                            PRECINCT 4                                             01 
01060020011000000000000000000000000000000000000REP       President                                               John Davis                            PRECINCT 5                                             01 
01060020012000000000000000000000000000000000000REP       President                                               John Davis                            PRECINCT 6                                             01 
01060020013000000000000000000000000000000000000REP       President                                               John Davis                            PRECINCT 7                                             01 
01060020014000000000000000000000000000000000000REP       President                                               John Davis                            PRECINCT 8                                             01 
01060020015000000000000000000000000000000000000REP       President                                               John Davis                            PRECINCT 9                                             01 
01060020016000000000000000000000000000000000000REP       President                                               John Davis                            PRECINCT 10                                            01 
01060020017000000000000000000000000000000000000REP       President                                               John Davis                            PRECINCT 12                                            01 
01060020018000000000000000000000000000000000000REP       President                                               John Davis                            PRECINCT 13                                            01 
01060030001000000000000000000000000000000000000REP       President                                               Jon Huntsman                          PRECINCT 1                                             01 
01060030002000003000001000002000000000000000000REP       President                                               Jon Huntsman                          PRECINCT 1B                                            01 
01060030003000000000000000000000000000000000000REP       President                                               Jon Huntsman                          PRECINCT 1C                                            01 
01060030004000001000001000000000000000000000000REP       President                                               Jon Huntsman                          PRECINCT 1D                                            01 
01060030005000000000000000000000000000000000000REP       President                                               Jon Huntsman                          PRECINCT 1E                                            01 
01060030006000001000001000000000000000000000000REP       President                                               Jon Huntsman                          PRECINCT 1F                                            01 
01060030007000000000000000000000000000000000000REP       President                                               Jon Huntsman                          PRECINCT 2                                             01 
01060030008000000000000000000000000000000000000REP       President                                               Jon Huntsman                          PRECINCT 3                                             01 
01060030009000000000000000000000000000000000000REP       President                                               Jon Huntsman                          PRECINCT 3B                                            01 
01060030010000000000000000000000000000000000000REP       President                                               Jon Huntsman                          PRECINCT 4                                             01 
01060030011000001000000000001000000000000000000REP       President                                               Jon Huntsman                          PRECINCT 5                                             01 
01060030012000000000000000000000000000000000000REP       President                                               Jon Huntsman                          PRECINCT 6                                             01 
01060030013000000000000000000000000000000000000REP       President                                               Jon Huntsman                          PRECINCT 7                                             01 
01060030014000000000000000000000000000000000000REP       President                                               Jon Huntsman                          PRECINCT 8                                             01 
01060030015000000000000000000000000000000000000REP       President                                               Jon Huntsman                          PRECINCT 9                                             01 
01060030016000001000001000000000000000000000000REP       President                                               Jon Huntsman                          PRECINCT 10                                            01 
01060030017000000000000000000000000000000000000REP       President                                               Jon Huntsman                          PRECINCT 12                                            01 
01060030018000000000000000000000000000000000000REP       President                                               Jon Huntsman                          PRECINCT 13                                            01 
01060040001000021000012000009000000000000000000REP       President                                               Newt Gingrich                         PRECINCT 1                                             01 
01060040002000017000007000010000000000000000000REP       President                                               Newt Gingrich                         PRECINCT 1B                                            01 
01060040003000003000001000002000000000000000000REP       President                                               Newt Gingrich                         PRECINCT 1C                                            01 
01060040004000005000003000002000000000000000000REP       President                                               Newt Gingrich                         PRECINCT 1D                                            01 
01060040005000011000004000007000000000000000000REP       President                                               Newt Gingrich                         PRECINCT 1E                                            01 
01060040006000001000000000001000000000000000000REP       President                                               Newt Gingrich                         PRECINCT 1F                                            01 
01060040007000006000003000003000000000000000000REP       President                                               Newt Gingrich                         PRECINCT 2                                             01 
01060040008000004000004000000000000000000000000REP       President                                               Newt Gingrich                         PRECINCT 3                                             01 
01060040009000003000003000000000000000000000000REP       President                                               Newt Gingrich                         PRECINCT 3B                                            01 
01060040010000004000003000001000000000000000000REP       President                                               Newt Gingrich                         PRECINCT 4                                             01 
01060040011000010000009000001000000000000000000REP       President                                               Newt Gingrich                         PRECINCT 5                                             01 
01060040012000010000010000000000000000000000000REP       President                                               Newt Gingrich                         PRECINCT 6                                             01 
01060040013000002000002000000000000000000000000REP       President                                               Newt Gingrich                         PRECINCT 7                                             01 
01060040014000005000005000000000000000000000000REP       President                                               Newt Gingrich                         PRECINCT 8                                             01 
01060040015000001000001000000000000000000000000REP       President                                               Newt Gingrich                         PRECINCT 9                                             01 
01060040016000004000004000000000000000000000000REP       President                                               Newt Gingrich                         PRECINCT 10                                            01 
01060040017000004000004000000000000000000000000REP       President                                               Newt Gingrich                         PRECINCT 12                                            01 
01060040018000004000004000000000000000000000000REP       President                                               Newt Gingrich                         PRECINCT 13                                            01 
01060050001000251000123000128000000000000000000REP       President                                               Mitt Romney                           PRECINCT 1                                             01 
01060050002000280000090000190000000000000000000REP       President                                               Mitt Romney                           PRECINCT 1B                                            01 
01060050003000027000011000016000000000000000000REP       President                                               Mitt Romney                           PRECINCT 1C                                            01 
01060050004000057000021000036000000000000000000REP       President                                               Mitt Romney                           PRECINCT 1D                                            01 
01060050005000071000031000040000000000000000000REP       President                                               Mitt Romney                           PRECINCT 1E                                            01 
01060050006000047000021000021000005000000000000REP       President                                               Mitt Romney                           PRECINCT 1F                                            01 
01060050007000094000074000020000000000000000000REP       President                                               Mitt Romney                           PRECINCT 2                                             01 
01060050008000100000065000035000000000000000000REP       President                                               Mitt Romney                           PRECINCT 3                                             01 
01060050009000049000035000014000000000000000000REP       President                                               Mitt Romney                           PRECINCT 3B                                            01 
01060050010000102000078000024000000000000000000REP       President                                               Mitt Romney                           PRECINCT 4                                             01 
01060050011000125000087000038000000000000000000REP       President                                               Mitt Romney                           PRECINCT 5                                             01 
01060050012000119000094000025000000000000000000REP       President                                               Mitt Romney                           PRECINCT 6                                             01 
01060050013000020000016000004000000000000000000REP       President                                               Mitt Romney                           PRECINCT 7                                             01 
01060050014000060000050000010000000000000000000REP       President                                               Mitt Romney                           PRECINCT 8                                             01 
01060050015000011000010000001000000000000000000REP       President                                               Mitt Romney                           PRECINCT 9                                             01 
01060050016000049000039000010000000000000000000REP       President                                               Mitt Romney                           PRECINCT 10                                            01 
01060050017000026000018000008000000000000000000REP       President                                               Mitt Romney                           PRECINCT 12                                            01 
01060050018000042000033000009000000000000000000REP       President                                               Mitt Romney                           PRECINCT 13                                            01 
01060060001000000000000000000000000000000000000REP       President                                               Charles "Buddy" Roemer                PRECINCT 1                                             01 
01060060002000002000001000001000000000000000000REP       President                                               Charles "Buddy" Roemer                PRECINCT 1B                                            01 
01060060003000001000000000001000000000000000000REP       President                                               Charles "Buddy" Roemer                PRECINCT 1C                                            01 
01060060004000002000001000001000000000000000000REP       President                                               Charles "Buddy" Roemer                PRECINCT 1D                                            01 
01060060005000000000000000000000000000000000000REP       President                                               Charles "Buddy" Roemer                PRECINCT 1E                                            01 
01060060006000000000000000000000000000000000000REP       President                                               Charles "Buddy" Roemer                PRECINCT 1F                                            01 
01060060007000000000000000000000000000000000000REP       President                                               Charles "Buddy" Roemer                PRECINCT 2                                             01 
01060060008000000000000000000000000000000000000REP       President                                               Charles "Buddy" Roemer                PRECINCT 3                                             01 
01060060009000000000000000000000000000000000000REP       President                                               Charles "Buddy" Roemer                PRECINCT 3B                                            01 
01060060010000000000000000000000000000000000000REP       President                                               Charles "Buddy" Roemer                PRECINCT 4                                             01 
01060060011000000000000000000000000000000000000REP       President                                               Charles "Buddy" Roemer                PRECINCT 5                                             01 
01060060012000000000000000000000000000000000000REP       President                                               Charles "Buddy" Roemer                PRECINCT 6                                             01 
01060060013000000000000000000000000000000000000REP       President                                               Charles "Buddy" Roemer                PRECINCT 7                                             01 
01060060014000000000000000000000000000000000000REP       President                                               Charles "Buddy" Roemer                PRECINCT 8                                             01 
01060060015000000000000000000000000000000000000REP       President                                               Charles "Buddy" Roemer                PRECINCT 9                                             01 
01060060016000000000000000000000000000000000000REP       President                                               Charles "Buddy" Roemer                PRECINCT 10                                            01 
01060060017000000000000000000000000000000000000REP       President                                               Charles "Buddy" Roemer                PRECINCT 12                                            01 
01060060018000000000000000000000000000000000000REP       President                                               Charles "Buddy" Roemer                PRECINCT 13                                            01 
01060070001000028000016000012000000000000000000REP       President                                               Rick Santorum                         PRECINCT 1                                             01 
01060070002000028000013000015000000000000000000REP       President                                               Rick Santorum                         PRECINCT 1B                                            01 
01060070003000000000000000000000000000000000000REP       President                                               Rick Santorum                         PRECINCT 1C                                            01 
01060070004000003000002000001000000000000000000REP       President                                               Rick Santorum                         PRECINCT 1D                                            01 
01060070005000014000009000005000000000000000000REP       President                                               Rick Santorum                         PRECINCT 1E                                            01 
01060070006000001000001000000000000000000000000REP       President                                               Rick Santorum                         PRECINCT 1F                                            01 
01060070007000005000005000000000000000000000000REP       President                                               Rick Santorum                         PRECINCT 2                                             01 
01060070008000010000010000000000000000000000000REP       President                                               Rick Santorum                         PRECINCT 3                                             01 
01060070009000005000004000001000000000000000000REP       President                                               Rick Santorum                         PRECINCT 3B                                            01 
01060070010000016000012000004000000000000000000REP       President                                               Rick Santorum                         PRECINCT 4                                             01 
01060070011000011000005000006000000000000000000REP       President                                               Rick Santorum                         PRECINCT 5                                             01 
01060070012000008000006000002000000000000000000REP       President                                               Rick Santorum                         PRECINCT 6                                             01 
01060070013000001000001000000000000000000000000REP       President                                               Rick Santorum                         PRECINCT 7                                             01 
01060070014000002000001000001000000000000000000REP       President                                               Rick Santorum                         PRECINCT 8                                             01 
01060070015000000000000000000000000000000000000REP       President                                               Rick Santorum                         PRECINCT 9                                             01 
01060070016000000000000000000000000000000000000REP       President                                               Rick Santorum                         PRECINCT 10                                            01 
01060070017000002000002000000000000000000000000REP       President                                               Rick Santorum                         PRECINCT 12                                            01 
01060070018000003000003000000000000000000000000REP       President                                               Rick Santorum                         PRECINCT 13                                            01 
01060080001000002000001000001000000000000000000REP       President                                               Michele Bachmann                      PRECINCT 1                                             01 
01060080002000004000001000003000000000000000000REP       President                                               Michele Bachmann                      PRECINCT 1B                                            01 
01060080003000000000000000000000000000000000000REP       President                                               Michele Bachmann                      PRECINCT 1C                                            01 
01060080004000000000000000000000000000000000000REP       President                                               Michele Bachmann                      PRECINCT 1D                                            01 
01060080005000001000001000000000000000000000000REP       President                                               Michele Bachmann                      PRECINCT 1E                                            01 
01060080006000000000000000000000000000000000000REP       President                                               Michele Bachmann                      PRECINCT 1F                                            01 
01060080007000000000000000000000000000000000000REP       President                                               Michele Bachmann                      PRECINCT 2                                             01 
01060080008000002000002000000000000000000000000REP       President                                               Michele Bachmann                      PRECINCT 3                                             01 
01060080009000000000000000000000000000000000000REP       President                                               Michele Bachmann                      PRECINCT 3B                                            01 
01060080010000001000001000000000000000000000000REP       President                                               Michele Bachmann                      PRECINCT 4                                             01 
01060080011000001000000000001000000000000000000REP       President                                               Michele Bachmann                      PRECINCT 5                                             01 
01060080012000001000000000001000000000000000000REP       President                                               Michele Bachmann                      PRECINCT 6                                             01 
01060080013000000000000000000000000000000000000REP       President                                               Michele Bachmann                      PRECINCT 7                                             01 
01060080014000000000000000000000000000000000000REP       President                                               Michele Bachmann                      PRECINCT 8                                             01 
01060080015000000000000000000000000000000000000REP       President                                               Michele Bachmann                      PRECINCT 9                                             01 
01060080016000000000000000000000000000000000000REP       President                                               Michele Bachmann                      PRECINCT 10                                            01 
01060080017000000000000000000000000000000000000REP       President                                               Michele Bachmann                      PRECINCT 12                                            01 
01060080018000000000000000000000000000000000000REP       President                                               Michele Bachmann                      PRECINCT 13                                            01 
01060090001000007000004000003000000000000000000REP       President                                               Uncommitted                           PRECINCT 1                                             01 
01060090002000014000006000008000000000000000000REP       President                                               Uncommitted                           PRECINCT 1B                                            01 
01060090003000000000000000000000000000000000000REP       President                                               Uncommitted                           PRECINCT 1C                                            01 
01060090004000002000001000001000000000000000000REP       President                                               Uncommitted                           PRECINCT 1D                                            01 
01060090005000007000004000003000000000000000000REP       President                                               Uncommitted                           PRECINCT 1E                                            01 
01060090006000001000000000001000000000000000000REP       President                                               Uncommitted                           PRECINCT 1F                                            01 
01060090007000006000004000002000000000000000000REP       President                                               Uncommitted                           PRECINCT 2                                             01 
01060090008000001000001000000000000000000000000REP       President                                               Uncommitted                           PRECINCT 3                                             01 
01060090009000001000001000000000000000000000000REP       President                                               Uncommitted                           PRECINCT 3B                                            01 
01060090010000000000000000000000000000000000000REP       President                                               Uncommitted                           PRECINCT 4                                             01 
01060090011000002000001000001000000000000000000REP       President                                               Uncommitted                           PRECINCT 5                                             01 
01060090012000002000002000000000000000000000000REP       President                                               Uncommitted                           PRECINCT 6                                             01 
01060090013000001000001000000000000000000000000REP       President                                               Uncommitted                           PRECINCT 7                                             01 
01060090014000000000000000000000000000000000000REP       President                                               Uncommitted                           PRECINCT 8                                             01 
01060090015000001000001000000000000000000000000REP       President                                               Uncommitted                           PRECINCT 9                                             01 
01060090016000005000005000000000000000000000000REP       President                                               Uncommitted                           PRECINCT 10                                            01 
01060090017000001000001000000000000000000000000REP       President                                               Uncommitted                           PRECINCT 12                                            01 
01060090018000001000001000000000000000000000000REP       President                                               Uncommitted                           PRECINCT 13                                            01 
01060100001000000000000000000000000000000000000REP       President                                               OVER VOTES                            PRECINCT 1                                             01 
01060100002000000000000000000000000000000000000REP       President                                               OVER VOTES                            PRECINCT 1B                                            01 
01060100003000000000000000000000000000000000000REP       President                                               OVER VOTES                            PRECINCT 1C                                            01 
01060100004000000000000000000000000000000000000REP       President                                               OVER VOTES                            PRECINCT 1D                                            01 
01060100005000000000000000000000000000000000000REP       President                                               OVER VOTES                            PRECINCT 1E                                            01 
01060100006000000000000000000000000000000000000REP       President                                               OVER VOTES                            PRECINCT 1F                                            01 
01060100007000000000000000000000000000000000000REP       President                                               OVER VOTES                            PRECINCT 2                                             01 
01060100008000000000000000000000000000000000000REP       President                                               OVER VOTES                            PRECINCT 3                                             01 
01060100009000000000000000000000000000000000000REP       President                                               OVER VOTES                            PRECINCT 3B                                            01 
01060100010000000000000000000000000000000000000REP       President                                               OVER VOTES                            PRECINCT 4                                             01 
01060100011000000000000000000000000000000000000REP       President                                               OVER VOTES                            PRECINCT 5                                             01 
01060100012000000000000000000000000000000000000REP       President                                               OVER VOTES                            PRECINCT 6                                             01 
01060100013000000000000000000000000000000000000REP       President                                               OVER VOTES                            PRECINCT 7                                             01 
01060100014000000000000000000000000000000000000REP       President                                               OVER VOTES                            PRECINCT 8                                             01 
01060100015000000000000000000000000000000000000REP       President                                               OVER VOTES                            PRECINCT 9                                             01 
01060100016000000000000000000000000000000000000REP       President                                               OVER VOTES                            PRECINCT 10                                            01 
01060100017000000000000000000000000000000000000REP       President                                               OVER VOTES                            PRECINCT 12                                            01 
01060100018000000000000000000000000000000000000REP       President                                               OVER VOTES                            PRECINCT 13                                            01 
01060110001000006000005000001000000000000000000REP       President                                               UNDER VOTES                           PRECINCT 1                                             01 
01060110002000014000007000007000000000000000000REP       President                                               UNDER VOTES                           PRECINCT 1B                                            01 
01060110003000004000001000003000000000000000000REP       President                                               UNDER VOTES                           PRECINCT 1C                                            01 
01060110004000003000000000003000000000000000000REP       President                                               UNDER VOTES                           PRECINCT 1D                                            01 
01060110005000002000000000002000000000000000000REP       President                                               UNDER VOTES                           PRECINCT 1E                                            01 
01060110006000002000001000001000000000000000000REP       President                                               UNDER VOTES                           PRECINCT 1F                                            01 
01060110007000004000004000000000000000000000000REP       President                                               UNDER VOTES                           PRECINCT 2                                             01 
01060110008000003000000000003000000000000000000REP       President                                               UNDER VOTES                           PRECINCT 3                                             01 
01060110009000002000001000001000000000000000000REP       President                                               UNDER VOTES                           PRECINCT 3B                                            01 
01060110010000001000001000000000000000000000000REP       President                                               UNDER VOTES                           PRECINCT 4                                             01 
01060110011000008000002000006000000000000000000REP       President                                               UNDER VOTES                           PRECINCT 5                                             01 
01060110012000001000001000000000000000000000000REP       President                                               UNDER VOTES                           PRECINCT 6                                             01 
01060110013000000000000000000000000000000000000REP       President                                               UNDER VOTES                           PRECINCT 7                                             01 
01060110014000001000000000001000000000000000000REP       President                                               UNDER VOTES                           PRECINCT 8                                             01 
01060110015000000000000000000000000000000000000REP       President                                               UNDER VOTES                           PRECINCT 9                                             01 
01060110016000000000000000000000000000000000000REP       President                                               UNDER VOTES                           PRECINCT 10                                            01 
01060110017000001000000000001000000000000000000REP       President                                               UNDER VOTES                           PRECINCT 12                                            01 
01060110018000000000000000000000000000000000000REP       President                                               UNDER VOTES                           PRECINCT 13                                            01 
01070010001000023000012000011000000000000000000REP       United States Senator                                   Craig James                           PRECINCT 1                                             01 
01070010002000019000005000014000000000000000000REP       United States Senator                                   Craig James                           PRECINCT 1B                                            01 
01070010003000002000001000001000000000000000000REP       United States Senator                                   Craig James                           PRECINCT 1C                                            01 
01070010004000005000004000001000000000000000000REP       United States Senator                                   Craig James                           PRECINCT 1D                                            01 
01070010005000005000002000003000000000000000000REP       United States Senator                                   Craig James                           PRECINCT 1E                                            01 
01070010006000005000003000002000000000000000000REP       United States Senator                                   Craig James                           PRECINCT 1F                                            01 
01070010007000007000006000001000000000000000000REP       United States Senator                                   Craig James                           PRECINCT 2                                             01 
01070010008000011000008000003000000000000000000REP       United States Senator                                   Craig James                           PRECINCT 3                                             01 
01070010009000005000005000000000000000000000000REP       United States Senator                                   Craig James                           PRECINCT 3B                                            01 
01070010010000008000005000003000000000000000000REP       United States Senator                                   Craig James                           PRECINCT 4                                             01 
01070010011000011000006000005000000000000000000REP       United States Senator                                   Craig James                           PRECINCT 5                                             01 
01070010012000007000006000001000000000000000000REP       United States Senator                                   Craig James                           PRECINCT 6                                             01 
01070010013000000000000000000000000000000000000REP       United States Senator                                   Craig James                           PRECINCT 7                                             01 
01070010014000004000003000001000000000000000000REP       United States Senator                                   Craig James                           PRECINCT 8                                             01 
01070010015000000000000000000000000000000000000REP       United States Senator                                   Craig James                           PRECINCT 9                                             01 
01070010016000003000003000000000000000000000000REP       United States Senator                                   Craig James                           PRECINCT 10                                            01 
01070010017000002000001000001000000000000000000REP       United States Senator                                   Craig James                           PRECINCT 12                                            01 
01070010018000002000002000000000000000000000000REP       United States Senator                                   Craig James                           PRECINCT 13                                            01 
01070020001000209000093000116000000000000000000REP       United States Senator                                   David Dewhurst                        PRECINCT 1                                             01 
01070020002000236000071000165000000000000000000REP       United States Senator                                   David Dewhurst                        PRECINCT 1B                                            01 
01070020003000016000007000009000000000000000000REP       United States Senator                                   David Dewhurst                        PRECINCT 1C                                            01 
01070020004000046000014000032000000000000000000REP       United States Senator                                   David Dewhurst                        PRECINCT 1D                                            01 
01070020005000065000029000036000000000000000000REP       United States Senator                                   David Dewhurst                        PRECINCT 1E                                            01 
01070020006000030000012000018000000000000000000REP       United States Senator                                   David Dewhurst                        PRECINCT 1F                                            01 
01070020007000074000054000020000000000000000000REP       United States Senator                                   David Dewhurst                        PRECINCT 2                                             01 
01070020008000076000049000027000000000000000000REP       United States Senator                                   David Dewhurst                        PRECINCT 3                                             01 
01070020009000037000025000012000000000000000000REP       United States Senator                                   David Dewhurst                        PRECINCT 3B                                            01 
01070020010000075000060000015000000000000000000REP       United States Senator                                   David Dewhurst                        PRECINCT 4                                             01 
01070020011000086000058000028000000000000000000REP       United States Senator                                   David Dewhurst                        PRECINCT 5                                             01 
01070020012000051000038000013000000000000000000REP       United States Senator                                   David Dewhurst                        PRECINCT 6                                             01 
01070020013000018000013000005000000000000000000REP       United States Senator                                   David Dewhurst                        PRECINCT 7                                             01 
01070020014000039000032000007000000000000000000REP       United States Senator                                   David Dewhurst                        PRECINCT 8                                             01 
01070020015000008000008000000000000000000000000REP       United States Senator                                   David Dewhurst                        PRECINCT 9                                             01 
01070020016000033000028000005000000000000000000REP       United States Senator                                   David Dewhurst                        PRECINCT 10                                            01 
01070020017000022000016000006000000000000000000REP       United States Senator                                   David Dewhurst                        PRECINCT 12                                            01 
01070020018000030000024000006000000000000000000REP       United States Senator                                   David Dewhurst                        PRECINCT 13                                            01 
01070030001000007000004000003000000000000000000REP       United States Senator                                   Glenn Addison                         PRECINCT 1                                             01 
01070030002000010000003000007000000000000000000REP       United States Senator                                   Glenn Addison                         PRECINCT 1B                                            01 
01070030003000001000001000000000000000000000000REP       United States Senator                                   Glenn Addison                         PRECINCT 1C                                            01 
01070030004000000000000000000000000000000000000REP       United States Senator                                   Glenn Addison                         PRECINCT 1D                                            01 
01070030005000002000000000002000000000000000000REP       United States Senator                                   Glenn Addison                         PRECINCT 1E                                            01 
01070030006000000000000000000000000000000000000REP       United States Senator                                   Glenn Addison                         PRECINCT 1F                                            01 
01070030007000003000003000000000000000000000000REP       United States Senator                                   Glenn Addison                         PRECINCT 2                                             01 
01070030008000000000000000000000000000000000000REP       United States Senator                                   Glenn Addison                         PRECINCT 3                                             01 
01070030009000002000001000001000000000000000000REP       United States Senator                                   Glenn Addison                         PRECINCT 3B                                            01 
01070030010000003000001000002000000000000000000REP       United States Senator                                   Glenn Addison                         PRECINCT 4                                             01 
01070030011000004000004000000000000000000000000REP       United States Senator                                   Glenn Addison                         PRECINCT 5                                             01 
01070030012000008000007000001000000000000000000REP       United States Senator                                   Glenn Addison                         PRECINCT 6                                             01 
01070030013000000000000000000000000000000000000REP       United States Senator                                   Glenn Addison                         PRECINCT 7                                             01 
01070030014000001000001000000000000000000000000REP       United States Senator                                   Glenn Addison                         PRECINCT 8                                             01 
01070030015000000000000000000000000000000000000REP       United States Senator                                   Glenn Addison                         PRECINCT 9                                             01 
01070030016000003000002000001000000000000000000REP       United States Senator                                   Glenn Addison                         PRECINCT 10                                            01 
01070030017000000000000000000000000000000000000REP       United States Senator                                   Glenn Addison                         PRECINCT 12                                            01 
01070030018000000000000000000000000000000000000REP       United States Senator                                   Glenn Addison                         PRECINCT 13                                            01 
01070040001000000000000000000000000000000000000REP       United States Senator                                   Curt Cleaver                          PRECINCT 1                                             01 
01070040002000000000000000000000000000000000000REP       United States Senator                                   Curt Cleaver                          PRECINCT 1B                                            01 
01070040003000001000000000001000000000000000000REP       United States Senator                                   Curt Cleaver                          PRECINCT 1C                                            01 
01070040004000002000001000001000000000000000000REP       United States Senator                                   Curt Cleaver                          PRECINCT 1D                                            01 
01070040005000001000001000000000000000000000000REP       United States Senator                                   Curt Cleaver                          PRECINCT 1E                                            01 
01070040006000000000000000000000000000000000000REP       United States Senator                                   Curt Cleaver                          PRECINCT 1F                                            01 
01070040007000000000000000000000000000000000000REP       United States Senator                                   Curt Cleaver                          PRECINCT 2                                             01 
01070040008000001000001000000000000000000000000REP       United States Senator                                   Curt Cleaver                          PRECINCT 3                                             01 
01070040009000000000000000000000000000000000000REP       United States Senator                                   Curt Cleaver                          PRECINCT 3B                                            01 
01070040010000002000002000000000000000000000000REP       United States Senator                                   Curt Cleaver                          PRECINCT 4                                             01 
01070040011000002000002000000000000000000000000REP       United States Senator                                   Curt Cleaver                          PRECINCT 5                                             01 
01070040012000002000002000000000000000000000000REP       United States Senator                                   Curt Cleaver                          PRECINCT 6                                             01 
01070040013000000000000000000000000000000000000REP       United States Senator                                   Curt Cleaver                          PRECINCT 7                                             01 
01070040014000001000001000000000000000000000000REP       United States Senator                                   Curt Cleaver                          PRECINCT 8                                             01 
01070040015000000000000000000000000000000000000REP       United States Senator                                   Curt Cleaver                          PRECINCT 9                                             01 
01070040016000000000000000000000000000000000000REP       United States Senator                                   Curt Cleaver                          PRECINCT 10                                            01 
01070040017000001000001000000000000000000000000REP       United States Senator                                   Curt Cleaver                          PRECINCT 12                                            01 
01070040018000000000000000000000000000000000000REP       United States Senator                                   Curt Cleaver                          PRECINCT 13                                            01 
01070050001000001000001000000000000000000000000REP       United States Senator                                   Joe Agris                             PRECINCT 1                                             01 
01070050002000001000001000000000000000000000000REP       United States Senator                                   Joe Agris                             PRECINCT 1B                                            01 
01070050003000000000000000000000000000000000000REP       United States Senator                                   Joe Agris                             PRECINCT 1C                                            01 
01070050004000001000001000000000000000000000000REP       United States Senator                                   Joe Agris                             PRECINCT 1D                                            01 
01070050005000000000000000000000000000000000000REP       United States Senator                                   Joe Agris                             PRECINCT 1E                                            01 
01070050006000000000000000000000000000000000000REP       United States Senator                                   Joe Agris                             PRECINCT 1F                                            01 
01070050007000000000000000000000000000000000000REP       United States Senator                                   Joe Agris                             PRECINCT 2                                             01 
01070050008000000000000000000000000000000000000REP       United States Senator                                   Joe Agris                             PRECINCT 3                                             01 
01070050009000000000000000000000000000000000000REP       United States Senator                                   Joe Agris                             PRECINCT 3B                                            01 
01070050010000000000000000000000000000000000000REP       United States Senator                                   Joe Agris                             PRECINCT 4                                             01 
01070050011000001000001000000000000000000000000REP       United States Senator                                   Joe Agris                             PRECINCT 5                                             01 
01070050012000000000000000000000000000000000000REP       United States Senator                                   Joe Agris                             PRECINCT 6                                             01 
01070050013000000000000000000000000000000000000REP       United States Senator                                   Joe Agris                             PRECINCT 7                                             01 
01070050014000000000000000000000000000000000000REP       United States Senator                                   Joe Agris                             PRECINCT 8                                             01 
01070050015000000000000000000000000000000000000REP       United States Senator                                   Joe Agris                             PRECINCT 9                                             01 
01070050016000000000000000000000000000000000000REP       United States Senator                                   Joe Agris                             PRECINCT 10                                            01 
01070050017000000000000000000000000000000000000REP       United States Senator                                   Joe Agris                             PRECINCT 12                                            01 
01070050018000000000000000000000000000000000000REP       United States Senator                                   Joe Agris                             PRECINCT 13                                            01 
01070060001000022000012000010000000000000000000REP       United States Senator                                   Tom Leppert                           PRECINCT 1                                             01 
01070060002000033000012000021000000000000000000REP       United States Senator                                   Tom Leppert                           PRECINCT 1B                                            01 
01070060003000002000000000002000000000000000000REP       United States Senator                                   Tom Leppert                           PRECINCT 1C                                            01 
01070060004000004000003000001000000000000000000REP       United States Senator                                   Tom Leppert                           PRECINCT 1D                                            01 
01070060005000004000003000001000000000000000000REP       United States Senator                                   Tom Leppert                           PRECINCT 1E                                            01 
01070060006000004000002000002000000000000000000REP       United States Senator                                   Tom Leppert                           PRECINCT 1F                                            01 
01070060007000009000007000002000000000000000000REP       United States Senator                                   Tom Leppert                           PRECINCT 2                                             01 
01070060008000009000005000003000001000000000000REP       United States Senator                                   Tom Leppert                           PRECINCT 3                                             01 
01070060009000003000002000001000000000000000000REP       United States Senator                                   Tom Leppert                           PRECINCT 3B                                            01 
01070060010000009000008000001000000000000000000REP       United States Senator                                   Tom Leppert                           PRECINCT 4                                             01 
01070060011000014000009000005000000000000000000REP       United States Senator                                   Tom Leppert                           PRECINCT 5                                             01 
01070060012000016000015000001000000000000000000REP       United States Senator                                   Tom Leppert                           PRECINCT 6                                             01 
01070060013000002000001000001000000000000000000REP       United States Senator                                   Tom Leppert                           PRECINCT 7                                             01 
01070060014000006000006000000000000000000000000REP       United States Senator                                   Tom Leppert                           PRECINCT 8                                             01 
01070060015000001000001000000000000000000000000REP       United States Senator                                   Tom Leppert                           PRECINCT 9                                             01 
01070060016000003000002000001000000000000000000REP       United States Senator                                   Tom Leppert                           PRECINCT 10                                            01 
01070060017000003000002000001000000000000000000REP       United States Senator                                   Tom Leppert                           PRECINCT 12                                            01 
01070060018000007000006000001000000000000000000REP       United States Senator                                   Tom Leppert                           PRECINCT 13                                            01 
01070070001000003000001000002000000000000000000REP       United States Senator                                   Ben Gambini                           PRECINCT 1                                             01 
01070070002000000000000000000000000000000000000REP       United States Senator                                   Ben Gambini                           PRECINCT 1B                                            01 
01070070003000000000000000000000000000000000000REP       United States Senator                                   Ben Gambini                           PRECINCT 1C                                            01 
01070070004000000000000000000000000000000000000REP       United States Senator                                   Ben Gambini                           PRECINCT 1D                                            01 
01070070005000001000001000000000000000000000000REP       United States Senator                                   Ben Gambini                           PRECINCT 1E                                            01 
01070070006000000000000000000000000000000000000REP       United States Senator                                   Ben Gambini                           PRECINCT 1F                                            01 
01070070007000000000000000000000000000000000000REP       United States Senator                                   Ben Gambini                           PRECINCT 2                                             01 
01070070008000000000000000000000000000000000000REP       United States Senator                                   Ben Gambini                           PRECINCT 3                                             01 
01070070009000000000000000000000000000000000000REP       United States Senator                                   Ben Gambini                           PRECINCT 3B                                            01 
01070070010000000000000000000000000000000000000REP       United States Senator                                   Ben Gambini                           PRECINCT 4                                             01 
01070070011000001000000000001000000000000000000REP       United States Senator                                   Ben Gambini                           PRECINCT 5                                             01 
01070070012000000000000000000000000000000000000REP       United States Senator                                   Ben Gambini                           PRECINCT 6                                             01 
01070070013000000000000000000000000000000000000REP       United States Senator                                   Ben Gambini                           PRECINCT 7                                             01 
01070070014000001000001000000000000000000000000REP       United States Senator                                   Ben Gambini                           PRECINCT 8                                             01 
01070070015000000000000000000000000000000000000REP       United States Senator                                   Ben Gambini                           PRECINCT 9                                             01 
01070070016000000000000000000000000000000000000REP       United States Senator                                   Ben Gambini                           PRECINCT 10                                            01 
01070070017000000000000000000000000000000000000REP       United States Senator                                   Ben Gambini                           PRECINCT 12                                            01 
01070070018000000000000000000000000000000000000REP       United States Senator                                   Ben Gambini                           PRECINCT 13                                            01 
01070080001000116000070000046000000000000000000REP       United States Senator                                   Ted Cruz                              PRECINCT 1                                             01 
01070080002000115000055000060000000000000000000REP       United States Senator                                   Ted Cruz                              PRECINCT 1B                                            01 
01070080003000017000008000009000000000000000000REP       United States Senator                                   Ted Cruz                              PRECINCT 1C                                            01 
01070080004000030000014000016000000000000000000REP       United States Senator                                   Ted Cruz                              PRECINCT 1D                                            01 
01070080005000041000020000021000000000000000000REP       United States Senator                                   Ted Cruz                              PRECINCT 1E                                            01 
01070080006000021000010000005000006000000000000REP       United States Senator                                   Ted Cruz                              PRECINCT 1F                                            01 
01070080007000048000042000006000000000000000000REP       United States Senator                                   Ted Cruz                              PRECINCT 2                                             01 
01070080008000040000028000012000000000000000000REP       United States Senator                                   Ted Cruz                              PRECINCT 3                                             01 
01070080009000031000024000007000000000000000000REP       United States Senator                                   Ted Cruz                              PRECINCT 3B                                            01 
01070080010000059000051000008000000000000000000REP       United States Senator                                   Ted Cruz                              PRECINCT 4                                             01 
01070080011000074000053000021000000000000000000REP       United States Senator                                   Ted Cruz                              PRECINCT 5                                             01 
01070080012000087000072000015000000000000000000REP       United States Senator                                   Ted Cruz                              PRECINCT 6                                             01 
01070080013000010000009000001000000000000000000REP       United States Senator                                   Ted Cruz                              PRECINCT 7                                             01 
01070080014000038000027000011000000000000000000REP       United States Senator                                   Ted Cruz                              PRECINCT 8                                             01 
01070080015000008000007000001000000000000000000REP       United States Senator                                   Ted Cruz                              PRECINCT 9                                             01 
01070080016000029000026000003000000000000000000REP       United States Senator                                   Ted Cruz                              PRECINCT 10                                            01 
01070080017000012000008000004000000000000000000REP       United States Senator                                   Ted Cruz                              PRECINCT 12                                            01 
01070080018000024000021000003000000000000000000REP       United States Senator                                   Ted Cruz                              PRECINCT 13                                            01 
01070090001000004000004000000000000000000000000REP       United States Senator                                   Lela Pittenger                        PRECINCT 1                                             01 
01070090002000008000001000007000000000000000000REP       United States Senator                                   Lela Pittenger                        PRECINCT 1B                                            01 
01070090003000000000000000000000000000000000000REP       United States Senator                                   Lela Pittenger                        PRECINCT 1C                                            01 
01070090004000002000001000001000000000000000000REP       United States Senator                                   Lela Pittenger                        PRECINCT 1D                                            01 
01070090005000003000000000003000000000000000000REP       United States Senator                                   Lela Pittenger                        PRECINCT 1E                                            01 
01070090006000004000001000003000000000000000000REP       United States Senator                                   Lela Pittenger                        PRECINCT 1F                                            01 
01070090007000000000000000000000000000000000000REP       United States Senator                                   Lela Pittenger                        PRECINCT 2                                             01 
01070090008000001000001000000000000000000000000REP       United States Senator                                   Lela Pittenger                        PRECINCT 3                                             01 
01070090009000003000001000002000000000000000000REP       United States Senator                                   Lela Pittenger                        PRECINCT 3B                                            01 
01070090010000006000005000001000000000000000000REP       United States Senator                                   Lela Pittenger                        PRECINCT 4                                             01 
01070090011000000000000000000000000000000000000REP       United States Senator                                   Lela Pittenger                        PRECINCT 5                                             01 
01070090012000000000000000000000000000000000000REP       United States Senator                                   Lela Pittenger                        PRECINCT 6                                             01 
01070090013000000000000000000000000000000000000REP       United States Senator                                   Lela Pittenger                        PRECINCT 7                                             01 
01070090014000000000000000000000000000000000000REP       United States Senator                                   Lela Pittenger                        PRECINCT 8                                             01 
01070090015000000000000000000000000000000000000REP       United States Senator                                   Lela Pittenger                        PRECINCT 9                                             01 
01070090016000000000000000000000000000000000000REP       United States Senator                                   Lela Pittenger                        PRECINCT 10                                            01 
01070090017000001000001000000000000000000000000REP       United States Senator                                   Lela Pittenger                        PRECINCT 12                                            01 
01070090018000000000000000000000000000000000000REP       United States Senator                                   Lela Pittenger                        PRECINCT 13                                            01 
01070100001000000000000000000000000000000000000REP       United States Senator                                   OVER VOTES                            PRECINCT 1                                             01 
01070100002000000000000000000000000000000000000REP       United States Senator                                   OVER VOTES                            PRECINCT 1B                                            01 
01070100003000000000000000000000000000000000000REP       United States Senator                                   OVER VOTES                            PRECINCT 1C                                            01 
01070100004000000000000000000000000000000000000REP       United States Senator                                   OVER VOTES                            PRECINCT 1D                                            01 
01070100005000000000000000000000000000000000000REP       United States Senator                                   OVER VOTES                            PRECINCT 1E                                            01 
