01070010001000012REP       President                                               Ron Paul                              PRECINCT 1                                             01 
01070010002000003REP       President                                               Ron Paul                              PRECINCT 2                                             01 
01070010003000008REP       President                                               Ron Paul                              PRECINCT 025                                           01 
01070010004000013REP       President                                               Ron Paul                              PRECINCT 3                                             01 
01070010005000010REP       President                                               Ron Paul                              PRECINCT 4                                             01 
01070010006000008REP       President                                               Ron Paul                              PRECINCT 046                                           01 
01070020001000000REP       President                                               Charles "Buddy" Roemer                PRECINCT 1                                             01 
01070020002000000REP       President                                               Charles "Buddy" Roemer                PRECINCT 2                                             01 
01070020003000000REP       President                                               Charles "Buddy" Roemer                PRECINCT 025                                           01 
01070020004000000REP       President                                               Charles "Buddy" Roemer                PRECINCT 3                                             01 
01070020005000001REP       President                                               Charles "Buddy" Roemer                PRECINCT 4                                             01 
01070020006000000REP       President                                               Charles "Buddy" Roemer                PRECINCT 046                                           01 
01070030001000003REP       President                                               Michele Bachmann                      PRECINCT 1                                             01 
01070030002000000REP       President                                               Michele Bachmann                      PRECINCT 2                                             01 
01070030003000000REP       President                                               Michele Bachmann                      PRECINCT 025                                           01 
01070030004000000REP       President                                               Michele Bachmann                      PRECINCT 3                                             01 
01070030005000000REP       President                                               Michele Bachmann                      PRECINCT 4                                             01 
01070030006000000REP       President                                               Michele Bachmann                      PRECINCT 046                                           01 
01070040001000007REP       President                                               Newt Gingrich                         PRECINCT 1                                             01 
01070040002000002REP       President                                               Newt Gingrich                         PRECINCT 2                                             01 
01070040003000003REP       President                                               Newt Gingrich                         PRECINCT 025                                           01 
01070040004000013REP       President                                               Newt Gingrich                         PRECINCT 3                                             01 
01070040005000001REP       President                                               Newt Gingrich                         PRECINCT 4                                             01 
01070040006000006REP       President                                               Newt Gingrich                         PRECINCT 046                                           01 
01070050001000008REP       President                                               Rick Santorum                         PRECINCT 1                                             01 
01070050002000003REP       President                                               Rick Santorum                         PRECINCT 2                                             01 
01070050003000003REP       President                                               Rick Santorum                         PRECINCT 025                                           01 
01070050004000004REP       President                                               Rick Santorum                         PRECINCT 3                                             01 
01070050005000006REP       President                                               Rick Santorum                         PRECINCT 4                                             01 
01070050006000005REP       President                                               Rick Santorum                         PRECINCT 046                                           01 
01070060001000000REP       President                                               Jon Huntsman                          PRECINCT 1                                             01 
01070060002000000REP       President                                               Jon Huntsman                          PRECINCT 2                                             01 
01070060003000000REP       President                                               Jon Huntsman                          PRECINCT 025                                           01 
01070060004000000REP       President                                               Jon Huntsman                          PRECINCT 3                                             01 
01070060005000000REP       President                                               Jon Huntsman                          PRECINCT 4                                             01 
01070060006000000REP       President                                               Jon Huntsman                          PRECINCT 046                                           01 
01070070001000072REP       President                                               Mitt Romney                           PRECINCT 1                                             01 
01070070002000032REP       President                                               Mitt Romney                           PRECINCT 2                                             01 
01070070003000034REP       President                                               Mitt Romney                           PRECINCT 025                                           01 
01070070004000059REP       President                                               Mitt Romney                           PRECINCT 3                                             01 
01070070005000034REP       President                                               Mitt Romney                           PRECINCT 4                                             01 
01070070006000041REP       President                                               Mitt Romney                           PRECINCT 046                                           01 
01070080001000001REP       President                                               John Davis                            PRECINCT 1                                             01 
01070080002000000REP       President                                               John Davis                            PRECINCT 2                                             01 
01070080003000000REP       President                                               John Davis                            PRECINCT 025                                           01 
01070080004000002REP       President                                               John Davis                            PRECINCT 3                                             01 
01070080005000000REP       President                                               John Davis                            PRECINCT 4                                             01 
01070080006000000REP       President                                               John Davis                            PRECINCT 046                                           01 
01070090001000008REP       President                                               Uncommitted                           PRECINCT 1                                             01 
01070090002000002REP       President                                               Uncommitted                           PRECINCT 2                                             01 
01070090003000001REP       President                                               Uncommitted                           PRECINCT 025                                           01 
01070090004000004REP       President                                               Uncommitted                           PRECINCT 3                                             01 
01070090005000000REP       President                                               Uncommitted                           PRECINCT 4                                             01 
01070090006000002REP       President                                               Uncommitted                           PRECINCT 046                                           01 
01070100001000000REP       President                                               OVER VOTES                            PRECINCT 1                                             01 
01070100002000000REP       President                                               OVER VOTES                            PRECINCT 2                                             01 
01070100003000000REP       President                                               OVER VOTES                            PRECINCT 025                                           01 
01070100004000000REP       President                                               OVER VOTES                            PRECINCT 3                                             01 
01070100005000000REP       President                                               OVER VOTES                            PRECINCT 4                                             01 
01070100006000000REP       President                                               OVER VOTES                            PRECINCT 046                                           01 
01070110001000005REP       President                                               UNDER VOTES                           PRECINCT 1                                             01 
01070110002000004REP       President                                               UNDER VOTES                           PRECINCT 2                                             01 
01070110003000001REP       President                                               UNDER VOTES                           PRECINCT 025                                           01 
01070110004000004REP       President                                               UNDER VOTES                           PRECINCT 3                                             01 
01070110005000000REP       President                                               UNDER VOTES                           PRECINCT 4                                             01 
01070110006000003REP       President                                               UNDER VOTES                           PRECINCT 046                                           01 
01080010001000000REP       United States Senator                                   Joe Agris                             PRECINCT 1                                             01 
01080010002000000REP       United States Senator                                   Joe Agris                             PRECINCT 2                                             01 
01080010003000000REP       United States Senator                                   Joe Agris                             PRECINCT 025                                           01 
01080010004000000REP       United States Senator                                   Joe Agris                             PRECINCT 3                                             01 
01080010005000000REP       United States Senator                                   Joe Agris                             PRECINCT 4                                             01 
01080010006000000REP       United States Senator                                   Joe Agris                             PRECINCT 046                                           01 
01080020001000005REP       United States Senator                                   Tom Leppert                           PRECINCT 1                                             01 
01080020002000000REP       United States Senator                                   Tom Leppert                           PRECINCT 2                                             01 
01080020003000002REP       United States Senator                                   Tom Leppert                           PRECINCT 025                                           01 
01080020004000001REP       United States Senator                                   Tom Leppert                           PRECINCT 3                                             01 
01080020005000000REP       United States Senator                                   Tom Leppert                           PRECINCT 4                                             01 
01080020006000000REP       United States Senator                                   Tom Leppert                           PRECINCT 046                                           01 
01080030001000004REP       United States Senator                                   Lela Pittenger                        PRECINCT 1                                             01 
01080030002000000REP       United States Senator                                   Lela Pittenger                        PRECINCT 2                                             01 
01080030003000000REP       United States Senator                                   Lela Pittenger                        PRECINCT 025                                           01 
01080030004000000REP       United States Senator                                   Lela Pittenger                        PRECINCT 3                                             01 
01080030005000001REP       United States Senator                                   Lela Pittenger                        PRECINCT 4                                             01 
01080030006000001REP       United States Senator                                   Lela Pittenger                        PRECINCT 046                                           01 
01080040001000065REP       United States Senator                                   David Dewhurst                        PRECINCT 1                                             01 
01080040002000026REP       United States Senator                                   David Dewhurst                        PRECINCT 2                                             01 
01080040003000028REP       United States Senator                                   David Dewhurst                        PRECINCT 025                                           01 
01080040004000057REP       United States Senator                                   David Dewhurst                        PRECINCT 3                                             01 
01080040005000029REP       United States Senator                                   David Dewhurst                        PRECINCT 4                                             01 
01080040006000039REP       United States Senator                                   David Dewhurst                        PRECINCT 046                                           01 
01080050001000002REP       United States Senator                                   Glenn Addison                         PRECINCT 1                                             01 
01080050002000000REP       United States Senator                                   Glenn Addison                         PRECINCT 2                                             01 
01080050003000000REP       United States Senator                                   Glenn Addison                         PRECINCT 025                                           01 
01080050004000001REP       United States Senator                                   Glenn Addison                         PRECINCT 3                                             01 
01080050005000000REP       United States Senator                                   Glenn Addison                         PRECINCT 4                                             01 
01080050006000000REP       United States Senator                                   Glenn Addison                         PRECINCT 046                                           01 
01080060001000001REP       United States Senator                                   Ben Gambini                           PRECINCT 1                                             01 
01080060002000000REP       United States Senator                                   Ben Gambini                           PRECINCT 2                                             01 
01080060003000000REP       United States Senator                                   Ben Gambini                           PRECINCT 025                                           01 
01080060004000000REP       United States Senator                                   Ben Gambini                           PRECINCT 3                                             01 
01080060005000000REP       United States Senator                                   Ben Gambini                           PRECINCT 4                                             01 
01080060006000000REP       United States Senator                                   Ben Gambini                           PRECINCT 046                                           01 
01080070001000000REP       United States Senator                                   Curt Cleaver                          PRECINCT 1                                             01 
01080070002000000REP       United States Senator                                   Curt Cleaver                          PRECINCT 2                                             01 
01080070003000000REP       United States Senator                                   Curt Cleaver                          PRECINCT 025                                           01 
01080070004000001REP       United States Senator                                   Curt Cleaver                          PRECINCT 3                                             01 
01080070005000000REP       United States Senator                                   Curt Cleaver                          PRECINCT 4                                             01 
01080070006000000REP       United States Senator                                   Curt Cleaver                          PRECINCT 046                                           01 
01080080001000033REP       United States Senator                                   Ted Cruz                              PRECINCT 1                                             01 
01080080002000015REP       United States Senator                                   Ted Cruz                              PRECINCT 2                                             01 
01080080003000015REP       United States Senator                                   Ted Cruz                              PRECINCT 025                                           01 
01080080004000029REP       United States Senator                                   Ted Cruz                              PRECINCT 3                                             01 
01080080005000020REP       United States Senator                                   Ted Cruz                              PRECINCT 4                                             01 
01080080006000019REP       United States Senator                                   Ted Cruz                              PRECINCT 046                                           01 
01080090001000002REP       United States Senator                                   Craig James                           PRECINCT 1                                             01 
01080090002000000REP       United States Senator                                   Craig James                           PRECINCT 2                                             01 
01080090003000001REP       United States Senator                                   Craig James                           PRECINCT 025                                           01 
01080090004000003REP       United States Senator                                   Craig James                           PRECINCT 3                                             01 
01080090005000001REP       United States Senator                                   Craig James                           PRECINCT 4                                             01 
01080090006000001REP       United States Senator                                   Craig James                           PRECINCT 046                                           01 
01080100001000000REP       United States Senator                                   OVER VOTES                            PRECINCT 1                                             01 
01080100002000000REP       United States Senator                                   OVER VOTES                            PRECINCT 2                                             01 
01080100003000000REP       United States Senator                                   OVER VOTES                            PRECINCT 025                                           01 
01080100004000000REP       United States Senator                                   OVER VOTES                            PRECINCT 3                                             01 
01080100005000000REP       United States Senator                                   OVER VOTES                            PRECINCT 4                                             01 
01080100006000000REP       United States Senator                                   OVER VOTES                            PRECINCT 046                                           01 
01080110001000004REP       United States Senator                                   UNDER VOTES                           PRECINCT 1                                             01 
01080110002000005REP       United States Senator                                   UNDER VOTES                           PRECINCT 2                                             01 
01080110003000004REP       United States Senator                                   UNDER VOTES                           PRECINCT 025                                           01 
01080110004000007REP       United States Senator                                   UNDER VOTES                           PRECINCT 3                                             01 
01080110005000001REP       United States Senator                                   UNDER VOTES                           PRECINCT 4                                             01 
01080110006000005REP       United States Senator                                   UNDER VOTES                           PRECINCT 046                                           01 
01090010001000007REP       United States Representative, Dist 11                   Wade Brown                            PRECINCT 1                                             01 
01090010002000004REP       United States Representative, Dist 11                   Wade Brown                            PRECINCT 2                                             01 
01090010003000004REP       United States Representative, Dist 11                   Wade Brown                            PRECINCT 025                                           01 
01090010004000006REP       United States Representative, Dist 11                   Wade Brown                            PRECINCT 3                                             01 
01090010005000001REP       United States Representative, Dist 11                   Wade Brown                            PRECINCT 4                                             01 
01090010006000003REP       United States Representative, Dist 11                   Wade Brown                            PRECINCT 046                                           01 
01090020001000007REP       United States Representative, Dist 11                   Chris Younts                          PRECINCT 1                                             01 
01090020002000003REP       United States Representative, Dist 11                   Chris Younts                          PRECINCT 2                                             01 
01090020003000006REP       United States Representative, Dist 11                   Chris Younts                          PRECINCT 025                                           01 
01090020004000006REP       United States Representative, Dist 11                   Chris Younts                          PRECINCT 3                                             01 
01090020005000009REP       United States Representative, Dist 11                   Chris Younts                          PRECINCT 4                                             01 
01090020006000009REP       United States Representative, Dist 11                   Chris Younts                          PRECINCT 046                                           01 
01090030001000099REP       United States Representative, Dist 11                   Mike Conaway                          PRECINCT 1                                             01 
01090030002000030REP       United States Representative, Dist 11                   Mike Conaway                          PRECINCT 2                                             01 
01090030003000036REP       United States Representative, Dist 11                   Mike Conaway                          PRECINCT 025                                           01 
01090030004000083REP       United States Representative, Dist 11                   Mike Conaway                          PRECINCT 3                                             01 
01090030005000040REP       United States Representative, Dist 11                   Mike Conaway                          PRECINCT 4                                             01 
01090030006000049REP       United States Representative, Dist 11                   Mike Conaway                          PRECINCT 046                                           01 
01090040001000000REP       United States Representative, Dist 11                   OVER VOTES                            PRECINCT 1                                             01 
01090040002000000REP       United States Representative, Dist 11                   OVER VOTES                            PRECINCT 2                                             01 
01090040003000000REP       United States Representative, Dist 11                   OVER VOTES                            PRECINCT 025                                           01 
01090040004000000REP       United States Representative, Dist 11                   OVER VOTES                            PRECINCT 3                                             01 
01090040005000000REP       United States Representative, Dist 11                   OVER VOTES                            PRECINCT 4                                             01 
01090040006000000REP       United States Representative, Dist 11                   OVER VOTES                            PRECINCT 046                                           01 
01090050001000003REP       United States Representative, Dist 11                   UNDER VOTES                           PRECINCT 1                                             01 
01090050002000009REP       United States Representative, Dist 11                   UNDER VOTES                           PRECINCT 2                                             01 
01090050003000004REP       United States Representative, Dist 11                   UNDER VOTES                           PRECINCT 025                                           01 
01090050004000004REP       United States Representative, Dist 11                   UNDER VOTES                           PRECINCT 3                                             01 
01090050005000002REP       United States Representative, Dist 11                   UNDER VOTES                           PRECINCT 4                                             01 
01090050006000004REP       United States Representative, Dist 11                   UNDER VOTES                           PRECINCT 046                                           01 
01100010001000013REP       Railroad Commissioner                                   Joe Cotten                            PRECINCT 1                                             01 
01100010002000006REP       Railroad Commissioner                                   Joe Cotten                            PRECINCT 2                                             01 
01100010003000007REP       Railroad Commissioner                                   Joe Cotten                            PRECINCT 025                                           01 
01100010004000020REP       Railroad Commissioner                                   Joe Cotten                            PRECINCT 3                                             01 
01100010005000005REP       Railroad Commissioner                                   Joe Cotten                            PRECINCT 4                                             01 
01100010006000003REP       Railroad Commissioner                                   Joe Cotten                            PRECINCT 046                                           01 
01100020001000009REP       Railroad Commissioner                                   Becky Berger                          PRECINCT 1                                             01 
01100020002000003REP       Railroad Commissioner                                   Becky Berger                          PRECINCT 2                                             01 
01100020003000007REP       Railroad Commissioner                                   Becky Berger                          PRECINCT 025                                           01 
01100020004000008REP       Railroad Commissioner                                   Becky Berger                          PRECINCT 3                                             01 
01100020005000003REP       Railroad Commissioner                                   Becky Berger                          PRECINCT 4                                             01 
01100020006000002REP       Railroad Commissioner                                   Becky Berger                          PRECINCT 046                                           01 
01100030001000005REP       Railroad Commissioner                                   Roland Sledge                         PRECINCT 1                                             01 
01100030002000003REP       Railroad Commissioner                                   Roland Sledge                         PRECINCT 2                                             01 
01100030003000003REP       Railroad Commissioner                                   Roland Sledge                         PRECINCT 025                                           01 
01100030004000005REP       Railroad Commissioner                                   Roland Sledge                         PRECINCT 3                                             01 
01100030005000000REP       Railroad Commissioner                                   Roland Sledge                         PRECINCT 4                                             01 
01100030006000005REP       Railroad Commissioner                                   Roland Sledge                         PRECINCT 046                                           01 
01100040001000001REP       Railroad Commissioner                                   Beryl Burgess                         PRECINCT 1                                             01 
01100040002000000REP       Railroad Commissioner                                   Beryl Burgess                         PRECINCT 2                                             01 
01100040003000000REP       Railroad Commissioner                                   Beryl Burgess                         PRECINCT 025                                           01 
01100040004000003REP       Railroad Commissioner                                   Beryl Burgess                         PRECINCT 3                                             01 
01100040005000000REP       Railroad Commissioner                                   Beryl Burgess                         PRECINCT 4                                             01 
01100040006000000REP       Railroad Commissioner                                   Beryl Burgess                         PRECINCT 046                                           01 
01100050001000030REP       Railroad Commissioner                                   Warren Chisum                         PRECINCT 1                                             01 
01100050002000009REP       Railroad Commissioner                                   Warren Chisum                         PRECINCT 2                                             01 
01100050003000007REP       Railroad Commissioner                                   Warren Chisum                         PRECINCT 025                                           01 
01100050004000013REP       Railroad Commissioner                                   Warren Chisum                         PRECINCT 3                                             01 
01100050005000015REP       Railroad Commissioner                                   Warren Chisum                         PRECINCT 4                                             01 
01100050006000014REP       Railroad Commissioner                                   Warren Chisum                         PRECINCT 046                                           01 
01100060001000028REP       Railroad Commissioner                                   Christi Craddick                      PRECINCT 1                                             01 
01100060002000010REP       Railroad Commissioner                                   Christi Craddick                      PRECINCT 2                                             01 
01100060003000012REP       Railroad Commissioner                                   Christi Craddick                      PRECINCT 025                                           01 
01100060004000032REP       Railroad Commissioner                                   Christi Craddick                      PRECINCT 3                                             01 
01100060005000013REP       Railroad Commissioner                                   Christi Craddick                      PRECINCT 4                                             01 
01100060006000016REP       Railroad Commissioner                                   Christi Craddick                      PRECINCT 046                                           01 
01100070001000000REP       Railroad Commissioner                                   OVER VOTES                            PRECINCT 1                                             01 
01100070002000000REP       Railroad Commissioner                                   OVER VOTES                            PRECINCT 2                                             01 
01100070003000000REP       Railroad Commissioner                                   OVER VOTES                            PRECINCT 025                                           01 
01100070004000000REP       Railroad Commissioner                                   OVER VOTES                            PRECINCT 3                                             01 
01100070005000000REP       Railroad Commissioner                                   OVER VOTES                            PRECINCT 4                                             01 
01100070006000000REP       Railroad Commissioner                                   OVER VOTES                            PRECINCT 046                                           01 
01100080001000030REP       Railroad Commissioner                                   UNDER VOTES                           PRECINCT 1                                             01 
01100080002000015REP       Railroad Commissioner                                   UNDER VOTES                           PRECINCT 2                                             01 
01100080003000014REP       Railroad Commissioner                                   UNDER VOTES                           PRECINCT 025                                           01 
01100080004000018REP       Railroad Commissioner                                   UNDER VOTES                           PRECINCT 3                                             01 
01100080005000016REP       Railroad Commissioner                                   UNDER VOTES                           PRECINCT 4                                             01 
01100080006000025REP       Railroad Commissioner                                   UNDER VOTES                           PRECINCT 046                                           01 
01110010001000011REP       Railroad Commissioner, Unexpired Term                   Al Lee                                PRECINCT 1                                             01 
01110010002000002REP       Railroad Commissioner, Unexpired Term                   Al Lee                                PRECINCT 2                                             01 
01110010003000003REP       Railroad Commissioner, Unexpired Term                   Al Lee                                PRECINCT 025                                           01 
01110010004000005REP       Railroad Commissioner, Unexpired Term                   Al Lee                                PRECINCT 3                                             01 
01110010005000002REP       Railroad Commissioner, Unexpired Term                   Al Lee                                PRECINCT 4                                             01 
01110010006000003REP       Railroad Commissioner, Unexpired Term                   Al Lee                                PRECINCT 046                                           01 
01110020001000018REP       Railroad Commissioner, Unexpired Term                   Barry Smitherman                      PRECINCT 1                                             01 
01110020002000009REP       Railroad Commissioner, Unexpired Term                   Barry Smitherman                      PRECINCT 2                                             01 
01110020003000012REP       Railroad Commissioner, Unexpired Term                   Barry Smitherman                      PRECINCT 025                                           01 
01110020004000029REP       Railroad Commissioner, Unexpired Term                   Barry Smitherman                      PRECINCT 3                                             01 
01110020005000010REP       Railroad Commissioner, Unexpired Term                   Barry Smitherman                      PRECINCT 4                                             01 
01110020006000008REP       Railroad Commissioner, Unexpired Term                   Barry Smitherman                      PRECINCT 046                                           01 
01110030001000017REP       Railroad Commissioner, Unexpired Term                   Elizabeth Murray-Kolb                 PRECINCT 1                                             01 
01110030002000006REP       Railroad Commissioner, Unexpired Term                   Elizabeth Murray-Kolb                 PRECINCT 2                                             01 
01110030003000008REP       Railroad Commissioner, Unexpired Term                   Elizabeth Murray-Kolb                 PRECINCT 025                                           01 
01110030004000010REP       Railroad Commissioner, Unexpired Term                   Elizabeth Murray-Kolb                 PRECINCT 3                                             01 
01110030005000009REP       Railroad Commissioner, Unexpired Term                   Elizabeth Murray-Kolb                 PRECINCT 4                                             01 
01110030006000010REP       Railroad Commissioner, Unexpired Term                   Elizabeth Murray-Kolb                 PRECINCT 046                                           01 
01110040001000036REP       Railroad Commissioner, Unexpired Term                   Greg Parker                           PRECINCT 1                                             01 
01110040002000016REP       Railroad Commissioner, Unexpired Term                   Greg Parker                           PRECINCT 2                                             01 
01110040003000016REP       Railroad Commissioner, Unexpired Term                   Greg Parker                           PRECINCT 025                                           01 
01110040004000037REP       Railroad Commissioner, Unexpired Term                   Greg Parker                           PRECINCT 3                                             01 
01110040005000012REP       Railroad Commissioner, Unexpired Term                   Greg Parker                           PRECINCT 4                                             01 
01110040006000022REP       Railroad Commissioner, Unexpired Term                   Greg Parker                           PRECINCT 046                                           01 
01110050001000000REP       Railroad Commissioner, Unexpired Term                   OVER VOTES                            PRECINCT 1                                             01 
01110050002000000REP       Railroad Commissioner, Unexpired Term                   OVER VOTES                            PRECINCT 2                                             01 
01110050003000000REP       Railroad Commissioner, Unexpired Term                   OVER VOTES                            PRECINCT 025                                           01 
01110050004000000REP       Railroad Commissioner, Unexpired Term                   OVER VOTES                            PRECINCT 3                                             01 
01110050005000000REP       Railroad Commissioner, Unexpired Term                   OVER VOTES                            PRECINCT 4                                             01 
01110050006000000REP       Railroad Commissioner, Unexpired Term                   OVER VOTES                            PRECINCT 046                                           01 
01110060001000034REP       Railroad Commissioner, Unexpired Term                   UNDER VOTES                           PRECINCT 1                                             01 
01110060002000013REP       Railroad Commissioner, Unexpired Term                   UNDER VOTES                           PRECINCT 2                                             01 
01110060003000011REP       Railroad Commissioner, Unexpired Term                   UNDER VOTES                           PRECINCT 025                                           01 
01110060004000018REP       Railroad Commissioner, Unexpired Term                   UNDER VOTES                           PRECINCT 3                                             01 
01110060005000019REP       Railroad Commissioner, Unexpired Term                   UNDER VOTES                           PRECINCT 4                                             01 
01110060006000022REP       Railroad Commissioner, Unexpired Term                   UNDER VOTES                           PRECINCT 046                                           01 
01120010001000056REP       Justice, Supreme Court, Place 2                         Steve Smith                           PRECINCT 1                                             01 
01120010002000022REP       Justice, Supreme Court, Place 2                         Steve Smith                           PRECINCT 2                                             01 
01120010003000020REP       Justice, Supreme Court, Place 2                         Steve Smith                           PRECINCT 025                                           01 
01120010004000047REP       Justice, Supreme Court, Place 2                         Steve Smith                           PRECINCT 3                                             01 
01120010005000015REP       Justice, Supreme Court, Place 2                         Steve Smith                           PRECINCT 4                                             01 
01120010006000023REP       Justice, Supreme Court, Place 2                         Steve Smith                           PRECINCT 046                                           01 
01120020001000027REP       Justice, Supreme Court, Place 2                         Don Willett                           PRECINCT 1                                             01 
01120020002000008REP       Justice, Supreme Court, Place 2                         Don Willett                           PRECINCT 2                                             01 
01120020003000019REP       Justice, Supreme Court, Place 2                         Don Willett                           PRECINCT 025                                           01 
01120020004000033REP       Justice, Supreme Court, Place 2                         Don Willett                           PRECINCT 3                                             01 
01120020005000020REP       Justice, Supreme Court, Place 2                         Don Willett                           PRECINCT 4                                             01 
01120020006000017REP       Justice, Supreme Court, Place 2                         Don Willett                           PRECINCT 046                                           01 
01120030001000000REP       Justice, Supreme Court, Place 2                         OVER VOTES                            PRECINCT 1                                             01 
01120030002000000REP       Justice, Supreme Court, Place 2                         OVER VOTES                            PRECINCT 2                                             01 
01120030003000000REP       Justice, Supreme Court, Place 2                         OVER VOTES                            PRECINCT 025                                           01 
01120030004000000REP       Justice, Supreme Court, Place 2                         OVER VOTES                            PRECINCT 3                                             01 
01120030005000000REP       Justice, Supreme Court, Place 2                         OVER VOTES                            PRECINCT 4                                             01 
01120030006000000REP       Justice, Supreme Court, Place 2                         OVER VOTES                            PRECINCT 046                                           01 
01120040001000033REP       Justice, Supreme Court, Place 2                         UNDER VOTES                           PRECINCT 1                                             01 
01120040002000016REP       Justice, Supreme Court, Place 2                         UNDER VOTES                           PRECINCT 2                                             01 
01120040003000011REP       Justice, Supreme Court, Place 2                         UNDER VOTES                           PRECINCT 025                                           01 
01120040004000019REP       Justice, Supreme Court, Place 2                         UNDER VOTES                           PRECINCT 3                                             01 
01120040005000017REP       Justice, Supreme Court, Place 2                         UNDER VOTES                           PRECINCT 4                                             01 
01120040006000025REP       Justice, Supreme Court, Place 2                         UNDER VOTES                           PRECINCT 046                                           01 
01130010001000030REP       Justice, Supreme Court, Place 4                         Joe Pool, Jr.                         PRECINCT 1                                             01 
01130010002000006REP       Justice, Supreme Court, Place 4                         Joe Pool, Jr.                         PRECINCT 2                                             01 
01130010003000014REP       Justice, Supreme Court, Place 4                         Joe Pool, Jr.                         PRECINCT 025                                           01 
01130010004000025REP       Justice, Supreme Court, Place 4                         Joe Pool, Jr.                         PRECINCT 3                                             01 
01130010005000006REP       Justice, Supreme Court, Place 4                         Joe Pool, Jr.                         PRECINCT 4                                             01 
01130010006000012REP       Justice, Supreme Court, Place 4                         Joe Pool, Jr.                         PRECINCT 046                                           01 
01130020001000032REP       Justice, Supreme Court, Place 4                         David Medina                          PRECINCT 1                                             01 
01130020002000011REP       Justice, Supreme Court, Place 4                         David Medina                          PRECINCT 2                                             01 
01130020003000010REP       Justice, Supreme Court, Place 4                         David Medina                          PRECINCT 025                                           01 
01130020004000030REP       Justice, Supreme Court, Place 4                         David Medina                          PRECINCT 3                                             01 
01130020005000019REP       Justice, Supreme Court, Place 4                         David Medina                          PRECINCT 4                                             01 
01130020006000020REP       Justice, Supreme Court, Place 4                         David Medina                          PRECINCT 046                                           01 
01130030001000020REP       Justice, Supreme Court, Place 4                         John Devine                           PRECINCT 1                                             01 
01130030002000015REP       Justice, Supreme Court, Place 4                         John Devine                           PRECINCT 2                                             01 
01130030003000014REP       Justice, Supreme Court, Place 4                         John Devine                           PRECINCT 025                                           01 
01130030004000024REP       Justice, Supreme Court, Place 4                         John Devine                           PRECINCT 3                                             01 
01130030005000008REP       Justice, Supreme Court, Place 4                         John Devine                           PRECINCT 4                                             01 
01130030006000011REP       Justice, Supreme Court, Place 4                         John Devine                           PRECINCT 046                                           01 
01130040001000000REP       Justice, Supreme Court, Place 4                         OVER VOTES                            PRECINCT 1                                             01 
01130040002000000REP       Justice, Supreme Court, Place 4                         OVER VOTES                            PRECINCT 2                                             01 
01130040003000000REP       Justice, Supreme Court, Place 4                         OVER VOTES                            PRECINCT 025                                           01 
01130040004000000REP       Justice, Supreme Court, Place 4                         OVER VOTES                            PRECINCT 3                                             01 
01130040005000000REP       Justice, Supreme Court, Place 4                         OVER VOTES                            PRECINCT 4                                             01 
01130040006000000REP       Justice, Supreme Court, Place 4                         OVER VOTES                            PRECINCT 046                                           01 
01130050001000034REP       Justice, Supreme Court, Place 4                         UNDER VOTES                           PRECINCT 1                                             01 
01130050002000014REP       Justice, Supreme Court, Place 4                         UNDER VOTES                           PRECINCT 2                                             01 
01130050003000012REP       Justice, Supreme Court, Place 4                         UNDER VOTES                           PRECINCT 025                                           01 
01130050004000020REP       Justice, Supreme Court, Place 4                         UNDER VOTES                           PRECINCT 3                                             01 
01130050005000019REP       Justice, Supreme Court, Place 4                         UNDER VOTES                           PRECINCT 4                                             01 
01130050006000022REP       Justice, Supreme Court, Place 4                         UNDER VOTES                           PRECINCT 046                                           01 
01140010001000077REP       Justice, Supreme Court, Place 6                         Nathan Hecht                          PRECINCT 1                                             01 
01140010002000027REP       Justice, Supreme Court, Place 6                         Nathan Hecht                          PRECINCT 2                                             01 
01140010003000030REP       Justice, Supreme Court, Place 6                         Nathan Hecht                          PRECINCT 025                                           01 
01140010004000078REP       Justice, Supreme Court, Place 6                         Nathan Hecht                          PRECINCT 3                                             01 
01140010005000026REP       Justice, Supreme Court, Place 6                         Nathan Hecht                          PRECINCT 4                                             01 
01140010006000040REP       Justice, Supreme Court, Place 6                         Nathan Hecht                          PRECINCT 046                                           01 
01140020001000000REP       Justice, Supreme Court, Place 6                         OVER VOTES                            PRECINCT 1                                             01 
01140020002000000REP       Justice, Supreme Court, Place 6                         OVER VOTES                            PRECINCT 2                                             01 
01140020003000000REP       Justice, Supreme Court, Place 6                         OVER VOTES                            PRECINCT 025                                           01 
01140020004000000REP       Justice, Supreme Court, Place 6                         OVER VOTES                            PRECINCT 3                                             01 
01140020005000000REP       Justice, Supreme Court, Place 6                         OVER VOTES                            PRECINCT 4                                             01 
01140020006000000REP       Justice, Supreme Court, Place 6                         OVER VOTES                            PRECINCT 046                                           01 
01140030001000039REP       Justice, Supreme Court, Place 6                         UNDER VOTES                           PRECINCT 1                                             01 
01140030002000019REP       Justice, Supreme Court, Place 6                         UNDER VOTES                           PRECINCT 2                                             01 
01140030003000020REP       Justice, Supreme Court, Place 6                         UNDER VOTES                           PRECINCT 025                                           01 
01140030004000021REP       Justice, Supreme Court, Place 6                         UNDER VOTES                           PRECINCT 3                                             01 
01140030005000026REP       Justice, Supreme Court, Place 6                         UNDER VOTES                           PRECINCT 4                                             01 
01140030006000025REP       Justice, Supreme Court, Place 6                         UNDER VOTES                           PRECINCT 046                                           01 
01150010001000080REP       Presiding Judge, CT of Criminal Appeals                 Sharon  Keller                        PRECINCT 1                                             01 
01150010002000029REP       Presiding Judge, CT of Criminal Appeals                 Sharon  Keller                        PRECINCT 2                                             01 
01150010003000030REP       Presiding Judge, CT of Criminal Appeals                 Sharon  Keller                        PRECINCT 025                                           01 
01150010004000076REP       Presiding Judge, CT of Criminal Appeals                 Sharon  Keller                        PRECINCT 3                                             01 
01150010005000027REP       Presiding Judge, CT of Criminal Appeals                 Sharon  Keller                        PRECINCT 4                                             01 
01150010006000040REP       Presiding Judge, CT of Criminal Appeals                 Sharon  Keller                        PRECINCT 046                                           01 
01150020001000000REP       Presiding Judge, CT of Criminal Appeals                 OVER VOTES                            PRECINCT 1                                             01 
01150020002000000REP       Presiding Judge, CT of Criminal Appeals                 OVER VOTES                            PRECINCT 2                                             01 
01150020003000000REP       Presiding Judge, CT of Criminal Appeals                 OVER VOTES                            PRECINCT 025                                           01 
01150020004000000REP       Presiding Judge, CT of Criminal Appeals                 OVER VOTES                            PRECINCT 3                                             01 
01150020005000000REP       Presiding Judge, CT of Criminal Appeals                 OVER VOTES                            PRECINCT 4                                             01 
01150020006000000REP       Presiding Judge, CT of Criminal Appeals                 OVER VOTES                            PRECINCT 046                                           01 
01150030001000036REP       Presiding Judge, CT of Criminal Appeals                 UNDER VOTES                           PRECINCT 1                                             01 
01150030002000017REP       Presiding Judge, CT of Criminal Appeals                 UNDER VOTES                           PRECINCT 2                                             01 
01150030003000020REP       Presiding Judge, CT of Criminal Appeals                 UNDER VOTES                           PRECINCT 025                                           01 
01150030004000023REP       Presiding Judge, CT of Criminal Appeals                 UNDER VOTES                           PRECINCT 3                                             01 
01150030005000025REP       Presiding Judge, CT of Criminal Appeals                 UNDER VOTES                           PRECINCT 4                                             01 
01150030006000025REP       Presiding Judge, CT of Criminal Appeals                 UNDER VOTES                           PRECINCT 046                                           01 
01160010001000080REP       Judge, Court of Criminal Appeals, Pl 7                  Barbara Parker Hervey                 PRECINCT 1                                             01 
01160010002000029REP       Judge, Court of Criminal Appeals, Pl 7                  Barbara Parker Hervey                 PRECINCT 2                                             01 
01160010003000031REP       Judge, Court of Criminal Appeals, Pl 7                  Barbara Parker Hervey                 PRECINCT 025                                           01 
01160010004000077REP       Judge, Court of Criminal Appeals, Pl 7                  Barbara Parker Hervey                 PRECINCT 3                                             01 
01160010005000027REP       Judge, Court of Criminal Appeals, Pl 7                  Barbara Parker Hervey                 PRECINCT 4                                             01 
01160010006000038REP       Judge, Court of Criminal Appeals, Pl 7                  Barbara Parker Hervey                 PRECINCT 046                                           01 
01160020001000000REP       Judge, Court of Criminal Appeals, Pl 7                  OVER VOTES                            PRECINCT 1                                             01 
01160020002000000REP       Judge, Court of Criminal Appeals, Pl 7                  OVER VOTES                            PRECINCT 2                                             01 
01160020003000000REP       Judge, Court of Criminal Appeals, Pl 7                  OVER VOTES                            PRECINCT 025                                           01 
01160020004000000REP       Judge, Court of Criminal Appeals, Pl 7                  OVER VOTES                            PRECINCT 3                                             01 
01160020005000000REP       Judge, Court of Criminal Appeals, Pl 7                  OVER VOTES                            PRECINCT 4                                             01 
01160020006000000REP       Judge, Court of Criminal Appeals, Pl 7                  OVER VOTES                            PRECINCT 046                                           01 
01160030001000036REP       Judge, Court of Criminal Appeals, Pl 7                  UNDER VOTES                           PRECINCT 1                                             01 
01160030002000017REP       Judge, Court of Criminal Appeals, Pl 7                  UNDER VOTES                           PRECINCT 2                                             01 
01160030003000019REP       Judge, Court of Criminal Appeals, Pl 7                  UNDER VOTES                           PRECINCT 025                                           01 
01160030004000022REP       Judge, Court of Criminal Appeals, Pl 7                  UNDER VOTES                           PRECINCT 3                                             01 
01160030005000025REP       Judge, Court of Criminal Appeals, Pl 7                  UNDER VOTES                           PRECINCT 4                                             01 
01160030006000027REP       Judge, Court of Criminal Appeals, Pl 7                  UNDER VOTES                           PRECINCT 046                                           01 
01170010001000076REP       Judge, Court of Criminal Appeals, Pl 8                  Elsa Alcala                           PRECINCT 1                                             01 
01170010002000028REP       Judge, Court of Criminal Appeals, Pl 8                  Elsa Alcala                           PRECINCT 2                                             01 
01170010003000028REP       Judge, Court of Criminal Appeals, Pl 8                  Elsa Alcala                           PRECINCT 025                                           01 
01170010004000074REP       Judge, Court of Criminal Appeals, Pl 8                  Elsa Alcala                           PRECINCT 3                                             01 
01170010005000028REP       Judge, Court of Criminal Appeals, Pl 8                  Elsa Alcala                           PRECINCT 4                                             01 
01170010006000035REP       Judge, Court of Criminal Appeals, Pl 8                  Elsa Alcala                           PRECINCT 046                                           01 
01170020001000000REP       Judge, Court of Criminal Appeals, Pl 8                  OVER VOTES                            PRECINCT 1                                             01 
01170020002000000REP       Judge, Court of Criminal Appeals, Pl 8                  OVER VOTES                            PRECINCT 2                                             01 
01170020003000000REP       Judge, Court of Criminal Appeals, Pl 8                  OVER VOTES                            PRECINCT 025                                           01 
01170020004000000REP       Judge, Court of Criminal Appeals, Pl 8                  OVER VOTES                            PRECINCT 3                                             01 
01170020005000000REP       Judge, Court of Criminal Appeals, Pl 8                  OVER VOTES                            PRECINCT 4                                             01 
01170020006000000REP       Judge, Court of Criminal Appeals, Pl 8                  OVER VOTES                            PRECINCT 046                                           01 
01170030001000040REP       Judge, Court of Criminal Appeals, Pl 8                  UNDER VOTES                           PRECINCT 1                                             01 
01170030002000018REP       Judge, Court of Criminal Appeals, Pl 8                  UNDER VOTES                           PRECINCT 2                                             01 
01170030003000022REP       Judge, Court of Criminal Appeals, Pl 8                  UNDER VOTES                           PRECINCT 025                                           01 
01170030004000025REP       Judge, Court of Criminal Appeals, Pl 8                  UNDER VOTES                           PRECINCT 3                                             01 
01170030005000024REP       Judge, Court of Criminal Appeals, Pl 8                  UNDER VOTES                           PRECINCT 4                                             01 
01170030006000030REP       Judge, Court of Criminal Appeals, Pl 8                  UNDER VOTES                           PRECINCT 046                                           01 
01180010001000035REP       Member, State BoE, District 15                          Anette Carlisle                       PRECINCT 1                                             01 
01180010002000011REP       Member, State BoE, District 15                          Anette Carlisle                       PRECINCT 2                                             01 
01180010003000017REP       Member, State BoE, District 15                          Anette Carlisle                       PRECINCT 025                                           01 
01180010004000044REP       Member, State BoE, District 15                          Anette Carlisle                       PRECINCT 3                                             01 
01180010005000014REP       Member, State BoE, District 15                          Anette Carlisle                       PRECINCT 4                                             01 
01180010006000023REP       Member, State BoE, District 15                          Anette Carlisle                       PRECINCT 046                                           01 
01180020001000050REP       Member, State BoE, District 15                          Marty Rowley                          PRECINCT 1                                             01 
01180020002000017REP       Member, State BoE, District 15                          Marty Rowley                          PRECINCT 2                                             01 
01180020003000020REP       Member, State BoE, District 15                          Marty Rowley                          PRECINCT 025                                           01 
01180020004000039REP       Member, State BoE, District 15                          Marty Rowley                          PRECINCT 3                                             01 
01180020005000015REP       Member, State BoE, District 15                          Marty Rowley                          PRECINCT 4                                             01 
01180020006000017REP       Member, State BoE, District 15                          Marty Rowley                          PRECINCT 046                                           01 
01180030001000000REP       Member, State BoE, District 15                          OVER VOTES                            PRECINCT 1                                             01 
01180030002000000REP       Member, State BoE, District 15                          OVER VOTES                            PRECINCT 2                                             01 
01180030003000000REP       Member, State BoE, District 15                          OVER VOTES                            PRECINCT 025                                           01 
01180030004000000REP       Member, State BoE, District 15                          OVER VOTES                            PRECINCT 3                                             01 
01180030005000000REP       Member, State BoE, District 15                          OVER VOTES                            PRECINCT 4                                             01 
01180030006000000REP       Member, State BoE, District 15                          OVER VOTES                            PRECINCT 046                                           01 
01180040001000031REP       Member, State BoE, District 15                          UNDER VOTES                           PRECINCT 1                                             01 
01180040002000018REP       Member, State BoE, District 15                          UNDER VOTES                           PRECINCT 2                                             01 
01180040003000013REP       Member, State BoE, District 15                          UNDER VOTES                           PRECINCT 025                                           01 
01180040004000016REP       Member, State BoE, District 15                          UNDER VOTES                           PRECINCT 3                                             01 
01180040005000023REP       Member, State BoE, District 15                          UNDER VOTES                           PRECINCT 4                                             01 
01180040006000025REP       Member, State BoE, District 15                          UNDER VOTES                           PRECINCT 046                                           01 
01190010001000092REP       State Senator, District 28                              Robert Duncan                         PRECINCT 1                                             01 
01190010002000029REP       State Senator, District 28                              Robert Duncan                         PRECINCT 2                                             01 
01190010003000040REP       State Senator, District 28                              Robert Duncan                         PRECINCT 025                                           01 
01190010004000084REP       State Senator, District 28                              Robert Duncan                         PRECINCT 3                                             01 
01190010005000035REP       State Senator, District 28                              Robert Duncan                         PRECINCT 4                                             01 
01190010006000048REP       State Senator, District 28                              Robert Duncan                         PRECINCT 046                                           01 
01190020001000007REP       State Senator, District 28                              E.M. Garza                            PRECINCT 1                                             01 
01190020002000004REP       State Senator, District 28                              E.M. Garza                            PRECINCT 2                                             01 
01190020003000003REP       State Senator, District 28                              E.M. Garza                            PRECINCT 025                                           01 
01190020004000009REP       State Senator, District 28                              E.M. Garza                            PRECINCT 3                                             01 
01190020005000005REP       State Senator, District 28                              E.M. Garza                            PRECINCT 4                                             01 
01190020006000001REP       State Senator, District 28                              E.M. Garza                            PRECINCT 046                                           01 
01190030001000000REP       State Senator, District 28                              OVER VOTES                            PRECINCT 1                                             01 
01190030002000000REP       State Senator, District 28                              OVER VOTES                            PRECINCT 2                                             01 
01190030003000000REP       State Senator, District 28                              OVER VOTES                            PRECINCT 025                                           01 
01190030004000000REP       State Senator, District 28                              OVER VOTES                            PRECINCT 3                                             01 
01190030005000000REP       State Senator, District 28                              OVER VOTES                            PRECINCT 4                                             01 
01190030006000000REP       State Senator, District 28                              OVER VOTES                            PRECINCT 046                                           01 
01190040001000017REP       State Senator, District 28                              UNDER VOTES                           PRECINCT 1                                             01 
01190040002000013REP       State Senator, District 28                              UNDER VOTES                           PRECINCT 2                                             01 
01190040003000007REP       State Senator, District 28                              UNDER VOTES                           PRECINCT 025                                           01 
01190040004000006REP       State Senator, District 28                              UNDER VOTES                           PRECINCT 3                                             01 
01190040005000012REP       State Senator, District 28                              UNDER VOTES                           PRECINCT 4                                             01 
01190040006000016REP       State Senator, District 28                              UNDER VOTES                           PRECINCT 046                                           01 
01200010001000023REP       State Representative, District 83                       Delwin Jones                          PRECINCT 1                                             01 
01200010002000006REP       State Representative, District 83                       Delwin Jones                          PRECINCT 2                                             01 
01200010003000009REP       State Representative, District 83                       Delwin Jones                          PRECINCT 025                                           01 
01200010004000018REP       State Representative, District 83                       Delwin Jones                          PRECINCT 3                                             01 
01200010005000009REP       State Representative, District 83                       Delwin Jones                          PRECINCT 4                                             01 
01200010006000015REP       State Representative, District 83                       Delwin Jones                          PRECINCT 046                                           01 
01200020001000082REP       State Representative, District 83                       Charles Perry                         PRECINCT 1                                             01 
01200020002000030REP       State Representative, District 83                       Charles Perry                         PRECINCT 2                                             01 
01200020003000036REP       State Representative, District 83                       Charles Perry                         PRECINCT 025                                           01 
01200020004000076REP       State Representative, District 83                       Charles Perry                         PRECINCT 3                                             01 
01200020005000037REP       State Representative, District 83                       Charles Perry                         PRECINCT 4                                             01 
01200020006000044REP       State Representative, District 83                       Charles Perry                         PRECINCT 046                                           01 
01200030001000000REP       State Representative, District 83                       OVER VOTES                            PRECINCT 1                                             01 
01200030002000000REP       State Representative, District 83                       OVER VOTES                            PRECINCT 2                                             01 
01200030003000000REP       State Representative, District 83                       OVER VOTES                            PRECINCT 025                                           01 
01200030004000000REP       State Representative, District 83                       OVER VOTES                            PRECINCT 3                                             01 
01200030005000000REP       State Representative, District 83                       OVER VOTES                            PRECINCT 4                                             01 
01200030006000000REP       State Representative, District 83                       OVER VOTES                            PRECINCT 046                                           01 
01200040001000011REP       State Representative, District 83                       UNDER VOTES                           PRECINCT 1                                             01 
01200040002000010REP       State Representative, District 83                       UNDER VOTES                           PRECINCT 2                                             01 
01200040003000005REP       State Representative, District 83                       UNDER VOTES                           PRECINCT 025                                           01 
01200040004000005REP       State Representative, District 83                       UNDER VOTES                           PRECINCT 3                                             01 
01200040005000006REP       State Representative, District 83                       UNDER VOTES                           PRECINCT 4                                             01 
01200040006000006REP       State Representative, District 83                       UNDER VOTES                           PRECINCT 046                                           01 
01210010001000081REP       Chief Justice, 11th Court of Appeals                    Jim R. Wright                         PRECINCT 1                                             01 
01210010002000028REP       Chief Justice, 11th Court of Appeals                    Jim R. Wright                         PRECINCT 2                                             01 
01210010003000033REP       Chief Justice, 11th Court of Appeals                    Jim R. Wright                         PRECINCT 025                                           01 
01210010004000077REP       Chief Justice, 11th Court of Appeals                    Jim R. Wright                         PRECINCT 3                                             01 
01210010005000027REP       Chief Justice, 11th Court of Appeals                    Jim R. Wright                         PRECINCT 4                                             01 
01210010006000039REP       Chief Justice, 11th Court of Appeals                    Jim R. Wright                         PRECINCT 046                                           01 
01210020001000000REP       Chief Justice, 11th Court of Appeals                    OVER VOTES                            PRECINCT 1                                             01 
01210020002000000REP       Chief Justice, 11th Court of Appeals                    OVER VOTES                            PRECINCT 2                                             01 
01210020003000000REP       Chief Justice, 11th Court of Appeals                    OVER VOTES                            PRECINCT 025                                           01 
01210020004000000REP       Chief Justice, 11th Court of Appeals                    OVER VOTES                            PRECINCT 3                                             01 
01210020005000000REP       Chief Justice, 11th Court of Appeals                    OVER VOTES                            PRECINCT 4                                             01 
01210020006000000REP       Chief Justice, 11th Court of Appeals                    OVER VOTES                            PRECINCT 046                                           01 
01210030001000035REP       Chief Justice, 11th Court of Appeals                    UNDER VOTES                           PRECINCT 1                                             01 
01210030002000018REP       Chief Justice, 11th Court of Appeals                    UNDER VOTES                           PRECINCT 2                                             01 
01210030003000017REP       Chief Justice, 11th Court of Appeals                    UNDER VOTES                           PRECINCT 025                                           01 
01210030004000022REP       Chief Justice, 11th Court of Appeals                    UNDER VOTES                           PRECINCT 3                                             01 
01210030005000025REP       Chief Justice, 11th Court of Appeals                    UNDER VOTES                           PRECINCT 4                                             01 
01210030006000026REP       Chief Justice, 11th Court of Appeals                    UNDER VOTES                           PRECINCT 046                                           01 
01220010001000073REP       Justice, 11th Court of Appeals Dist, P2                 Mike Willson                          PRECINCT 1                                             01 
01220010002000031REP       Justice, 11th Court of Appeals Dist, P2                 Mike Willson                          PRECINCT 2                                             01 
01220010003000028REP       Justice, 11th Court of Appeals Dist, P2                 Mike Willson                          PRECINCT 025                                           01 
01220010004000075REP       Justice, 11th Court of Appeals Dist, P2                 Mike Willson                          PRECINCT 3                                             01 
01220010005000029REP       Justice, 11th Court of Appeals Dist, P2                 Mike Willson                          PRECINCT 4                                             01 
01220010006000037REP       Justice, 11th Court of Appeals Dist, P2                 Mike Willson                          PRECINCT 046                                           01 
01220020001000015REP       Justice, 11th Court of Appeals Dist, P2                 Eric Kalenak                          PRECINCT 1                                             01 
01220020002000002REP       Justice, 11th Court of Appeals Dist, P2                 Eric Kalenak                          PRECINCT 2                                             01 
01220020003000006REP       Justice, 11th Court of Appeals Dist, P2                 Eric Kalenak                          PRECINCT 025                                           01 
01220020004000011REP       Justice, 11th Court of Appeals Dist, P2                 Eric Kalenak                          PRECINCT 3                                             01 
01220020005000003REP       Justice, 11th Court of Appeals Dist, P2                 Eric Kalenak                          PRECINCT 4                                             01 
01220020006000005REP       Justice, 11th Court of Appeals Dist, P2                 Eric Kalenak                          PRECINCT 046                                           01 
01220030001000000REP       Justice, 11th Court of Appeals Dist, P2                 OVER VOTES                            PRECINCT 1                                             01 
01220030002000000REP       Justice, 11th Court of Appeals Dist, P2                 OVER VOTES                            PRECINCT 2                                             01 
01220030003000000REP       Justice, 11th Court of Appeals Dist, P2                 OVER VOTES                            PRECINCT 025                                           01 
01220030004000000REP       Justice, 11th Court of Appeals Dist, P2                 OVER VOTES                            PRECINCT 3                                             01 
01220030005000000REP       Justice, 11th Court of Appeals Dist, P2                 OVER VOTES                            PRECINCT 4                                             01 
01220030006000000REP       Justice, 11th Court of Appeals Dist, P2                 OVER VOTES                            PRECINCT 046                                           01 
01220040001000028REP       Justice, 11th Court of Appeals Dist, P2                 UNDER VOTES                           PRECINCT 1                                             01 
01220040002000013REP       Justice, 11th Court of Appeals Dist, P2                 UNDER VOTES                           PRECINCT 2                                             01 
01220040003000016REP       Justice, 11th Court of Appeals Dist, P2                 UNDER VOTES                           PRECINCT 025                                           01 
01220040004000013REP       Justice, 11th Court of Appeals Dist, P2                 UNDER VOTES                           PRECINCT 3                                             01 
01220040005000020REP       Justice, 11th Court of Appeals Dist, P2                 UNDER VOTES                           PRECINCT 4                                             01 
01220040006000023REP       Justice, 11th Court of Appeals Dist, P2                 UNDER VOTES                           PRECINCT 046                                           01 
01230010001000094REP       District Judge, 32nd Judicial District                  Glen Harrison                         PRECINCT 1                                             01 
01230010002000033REP       District Judge, 32nd Judicial District                  Glen Harrison                         PRECINCT 2                                             01 
01230010003000032REP       District Judge, 32nd Judicial District                  Glen Harrison                         PRECINCT 025                                           01 
01230010004000078REP       District Judge, 32nd Judicial District                  Glen Harrison                         PRECINCT 3                                             01 
01230010005000036REP       District Judge, 32nd Judicial District                  Glen Harrison                         PRECINCT 4                                             01 
01230010006000053REP       District Judge, 32nd Judicial District                  Glen Harrison                         PRECINCT 046                                           01 
01230020001000000REP       District Judge, 32nd Judicial District                  OVER VOTES                            PRECINCT 1                                             01 
01230020002000000REP       District Judge, 32nd Judicial District                  OVER VOTES                            PRECINCT 2                                             01 
01230020003000000REP       District Judge, 32nd Judicial District                  OVER VOTES                            PRECINCT 025                                           01 
01230020004000000REP       District Judge, 32nd Judicial District                  OVER VOTES                            PRECINCT 3                                             01 
01230020005000000REP       District Judge, 32nd Judicial District                  OVER VOTES                            PRECINCT 4                                             01 
01230020006000000REP       District Judge, 32nd Judicial District                  OVER VOTES                            PRECINCT 046                                           01 
01230030001000022REP       District Judge, 32nd Judicial District                  UNDER VOTES                           PRECINCT 1                                             01 
01230030002000013REP       District Judge, 32nd Judicial District                  UNDER VOTES                           PRECINCT 2                                             01 
01230030003000018REP       District Judge, 32nd Judicial District                  UNDER VOTES                           PRECINCT 025                                           01 
01230030004000021REP       District Judge, 32nd Judicial District                  UNDER VOTES                           PRECINCT 3                                             01 
01230030005000016REP       District Judge, 32nd Judicial District                  UNDER VOTES                           PRECINCT 4                                             01 
01230030006000012REP       District Judge, 32nd Judicial District                  UNDER VOTES                           PRECINCT 046                                           01 
01240010001000097REP       District Attorney, 32nd Judicial Dist                   Ann Reed                              PRECINCT 1                                             01 
01240010002000035REP       District Attorney, 32nd Judicial Dist                   Ann Reed                              PRECINCT 2                                             01 
01240010003000035REP       District Attorney, 32nd Judicial Dist                   Ann Reed                              PRECINCT 025                                           01 
01240010004000082REP       District Attorney, 32nd Judicial Dist                   Ann Reed                              PRECINCT 3                                             01 
01240010005000040REP       District Attorney, 32nd Judicial Dist                   Ann Reed                              PRECINCT 4                                             01 
01240010006000054REP       District Attorney, 32nd Judicial Dist                   Ann Reed                              PRECINCT 046                                           01 
01240020001000000REP       District Attorney, 32nd Judicial Dist                   OVER VOTES                            PRECINCT 1                                             01 
01240020002000000REP       District Attorney, 32nd Judicial Dist                   OVER VOTES                            PRECINCT 2                                             01 
01240020003000000REP       District Attorney, 32nd Judicial Dist                   OVER VOTES                            PRECINCT 025                                           01 
01240020004000000REP       District Attorney, 32nd Judicial Dist                   OVER VOTES                            PRECINCT 3                                             01 
01240020005000000REP       District Attorney, 32nd Judicial Dist                   OVER VOTES                            PRECINCT 4                                             01 
01240020006000000REP       District Attorney, 32nd Judicial Dist                   OVER VOTES                            PRECINCT 046                                           01 
01240030001000019REP       District Attorney, 32nd Judicial Dist                   UNDER VOTES                           PRECINCT 1                                             01 
01240030002000011REP       District Attorney, 32nd Judicial Dist                   UNDER VOTES                           PRECINCT 2                                             01 
01240030003000015REP       District Attorney, 32nd Judicial Dist                   UNDER VOTES                           PRECINCT 025                                           01 
01240030004000017REP       District Attorney, 32nd Judicial Dist                   UNDER VOTES                           PRECINCT 3                                             01 
01240030005000012REP       District Attorney, 32nd Judicial Dist                   UNDER VOTES                           PRECINCT 4                                             01 
01240030006000011REP       District Attorney, 32nd Judicial Dist                   UNDER VOTES                           PRECINCT 046                                           01 
01270010001000003DEM       President                                               Darcy G. Richardson                   PRECINCT 1                                             01 
01270010002000000DEM       President                                               Darcy G. Richardson                   PRECINCT 2                                             01 
01270010003000002DEM       President                                               Darcy G. Richardson                   PRECINCT 025                                           01 
01270010004000003DEM       President                                               Darcy G. Richardson                   PRECINCT 3                                             01 
01270010005000003DEM       President                                               Darcy G. Richardson                   PRECINCT 4                                             01 
01270010006000010DEM       President                                               Darcy G. Richardson                   PRECINCT 046                                           01 
01270020001000004DEM       President                                               John Wolfe                            PRECINCT 1                                             01 
01270020002000001DEM       President                                               John Wolfe                            PRECINCT 2                                             01 
01270020003000002DEM       President                                               John Wolfe                            PRECINCT 025                                           01 
01270020004000001DEM       President                                               John Wolfe                            PRECINCT 3                                             01 
01270020005000005DEM       President                                               John Wolfe                            PRECINCT 4                                             01 
01270020006000001DEM       President                                               John Wolfe                            PRECINCT 046                                           01 
01270030001000017DEM       President                                               Barack Obama                          PRECINCT 1                                             01 
01270030002000002DEM       President                                               Barack Obama                          PRECINCT 2                                             01 
01270030003000011DEM       President                                               Barack Obama                          PRECINCT 025                                           01 
01270030004000014DEM       President                                               Barack Obama                          PRECINCT 3                                             01 
01270030005000016DEM       President                                               Barack Obama                          PRECINCT 4                                             01 
01270030006000005DEM       President                                               Barack Obama                          PRECINCT 046                                           01 
01270040001000004DEM       President                                               Bob Ely                               PRECINCT 1                                             01 
01270040002000000DEM       President                                               Bob Ely                               PRECINCT 2                                             01 
01270040003000002DEM       President                                               Bob Ely                               PRECINCT 025                                           01 
01270040004000002DEM       President                                               Bob Ely                               PRECINCT 3                                             01 
01270040005000002DEM       President                                               Bob Ely                               PRECINCT 4                                             01 
01270040006000005DEM       President                                               Bob Ely                               PRECINCT 046                                           01 
01270050001000000DEM       President                                               OVER VOTES                            PRECINCT 1                                             01 
01270050002000000DEM       President                                               OVER VOTES                            PRECINCT 2                                             01 
01270050003000000DEM       President                                               OVER VOTES                            PRECINCT 025                                           01 
01270050004000000DEM       President                                               OVER VOTES                            PRECINCT 3                                             01 
01270050005000000DEM       President                                               OVER VOTES                            PRECINCT 4                                             01 
01270050006000000DEM       President                                               OVER VOTES                            PRECINCT 046                                           01 
