01000010001000002REP       President MONTAGUE COUNTYWIDE                           Jon Huntsman                          PCT 2                                                  01 
01000010002000001REP       President MONTAGUE COUNTYWIDE                           Jon Huntsman                          PCT 3                                                  01 
01000010003000002REP       President MONTAGUE COUNTYWIDE                           Jon Huntsman                          PCT 4                                                  01 
01000010004000000REP       President MONTAGUE COUNTYWIDE                           Jon Huntsman                          PCT 5                                                  01 
01000010005000000REP       President MONTAGUE COUNTYWIDE                           Jon Huntsman                          PCT 6                                                  01 
01000010006000003REP       President MONTAGUE COUNTYWIDE                           Jon Huntsman                          PCT 7                                                  01 
01000010007000002REP       President MONTAGUE COUNTYWIDE                           Jon Huntsman                          PCT 8                                                  01 
01000010008000000REP       President MONTAGUE COUNTYWIDE                           Jon Huntsman                          PCT 9                                                  01 
01000010009000002REP       President MONTAGUE COUNTYWIDE                           Jon Huntsman                          PCT 10                                                 01 
01000010010000003REP       President MONTAGUE COUNTYWIDE                           Jon Huntsman                          PCT 11                                                 01 
01000010011000001REP       President MONTAGUE COUNTYWIDE                           Jon Huntsman                          PCT 12                                                 01 
01000010012000004REP       President MONTAGUE COUNTYWIDE                           Jon Huntsman                          PCT 13                                                 01 
01000010013000000REP       President MONTAGUE COUNTYWIDE                           Jon Huntsman                          PCT 14                                                 01 
01000010014000001REP       President MONTAGUE COUNTYWIDE                           Jon Huntsman                          PCT 15                                                 01 
01000010015000000REP       President MONTAGUE COUNTYWIDE                           Jon Huntsman                          PCT 16                                                 01 
01000020001000001REP       President MONTAGUE COUNTYWIDE                           John Davis                            PCT 2                                                  01 
01000020002000003REP       President MONTAGUE COUNTYWIDE                           John Davis                            PCT 3                                                  01 
01000020003000001REP       President MONTAGUE COUNTYWIDE                           John Davis                            PCT 4                                                  01 
01000020004000001REP       President MONTAGUE COUNTYWIDE                           John Davis                            PCT 5                                                  01 
01000020005000000REP       President MONTAGUE COUNTYWIDE                           John Davis                            PCT 6                                                  01 
01000020006000002REP       President MONTAGUE COUNTYWIDE                           John Davis                            PCT 7                                                  01 
01000020007000000REP       President MONTAGUE COUNTYWIDE                           John Davis                            PCT 8                                                  01 
01000020008000000REP       President MONTAGUE COUNTYWIDE                           John Davis                            PCT 9                                                  01 
01000020009000000REP       President MONTAGUE COUNTYWIDE                           John Davis                            PCT 10                                                 01 
01000020010000004REP       President MONTAGUE COUNTYWIDE                           John Davis                            PCT 11                                                 01 
01000020011000000REP       President MONTAGUE COUNTYWIDE                           John Davis                            PCT 12                                                 01 
01000020012000002REP       President MONTAGUE COUNTYWIDE                           John Davis                            PCT 13                                                 01 
01000020013000000REP       President MONTAGUE COUNTYWIDE                           John Davis                            PCT 14                                                 01 
01000020014000001REP       President MONTAGUE COUNTYWIDE                           John Davis                            PCT 15                                                 01 
01000020015000000REP       President MONTAGUE COUNTYWIDE                           John Davis                            PCT 16                                                 01 
01000030001000067REP       President MONTAGUE COUNTYWIDE                           Ron Paul                              PCT 2                                                  01 
01000030002000043REP       President MONTAGUE COUNTYWIDE                           Ron Paul                              PCT 3                                                  01 
01000030003000012REP       President MONTAGUE COUNTYWIDE                           Ron Paul                              PCT 4                                                  01 
01000030004000019REP       President MONTAGUE COUNTYWIDE                           Ron Paul                              PCT 5                                                  01 
01000030005000033REP       President MONTAGUE COUNTYWIDE                           Ron Paul                              PCT 6                                                  01 
01000030006000038REP       President MONTAGUE COUNTYWIDE                           Ron Paul                              PCT 7                                                  01 
01000030007000015REP       President MONTAGUE COUNTYWIDE                           Ron Paul                              PCT 8                                                  01 
01000030008000022REP       President MONTAGUE COUNTYWIDE                           Ron Paul                              PCT 9                                                  01 
01000030009000031REP       President MONTAGUE COUNTYWIDE                           Ron Paul                              PCT 10                                                 01 
01000030010000035REP       President MONTAGUE COUNTYWIDE                           Ron Paul                              PCT 11                                                 01 
01000030011000002REP       President MONTAGUE COUNTYWIDE                           Ron Paul                              PCT 12                                                 01 
01000030012000028REP       President MONTAGUE COUNTYWIDE                           Ron Paul                              PCT 13                                                 01 
01000030013000002REP       President MONTAGUE COUNTYWIDE                           Ron Paul                              PCT 14                                                 01 
01000030014000016REP       President MONTAGUE COUNTYWIDE                           Ron Paul                              PCT 15                                                 01 
01000030015000013REP       President MONTAGUE COUNTYWIDE                           Ron Paul                              PCT 16                                                 01 
01000040001000004REP       President MONTAGUE COUNTYWIDE                           Michele Bachmann                      PCT 2                                                  01 
01000040002000002REP       President MONTAGUE COUNTYWIDE                           Michele Bachmann                      PCT 3                                                  01 
01000040003000002REP       President MONTAGUE COUNTYWIDE                           Michele Bachmann                      PCT 4                                                  01 
01000040004000004REP       President MONTAGUE COUNTYWIDE                           Michele Bachmann                      PCT 5                                                  01 
01000040005000003REP       President MONTAGUE COUNTYWIDE                           Michele Bachmann                      PCT 6                                                  01 
01000040006000004REP       President MONTAGUE COUNTYWIDE                           Michele Bachmann                      PCT 7                                                  01 
01000040007000001REP       President MONTAGUE COUNTYWIDE                           Michele Bachmann                      PCT 8                                                  01 
01000040008000002REP       President MONTAGUE COUNTYWIDE                           Michele Bachmann                      PCT 9                                                  01 
01000040009000003REP       President MONTAGUE COUNTYWIDE                           Michele Bachmann                      PCT 10                                                 01 
01000040010000002REP       President MONTAGUE COUNTYWIDE                           Michele Bachmann                      PCT 11                                                 01 
01000040011000000REP       President MONTAGUE COUNTYWIDE                           Michele Bachmann                      PCT 12                                                 01 
01000040012000000REP       President MONTAGUE COUNTYWIDE                           Michele Bachmann                      PCT 13                                                 01 
01000040013000002REP       President MONTAGUE COUNTYWIDE                           Michele Bachmann                      PCT 14                                                 01 
01000040014000003REP       President MONTAGUE COUNTYWIDE                           Michele Bachmann                      PCT 15                                                 01 
01000040015000001REP       President MONTAGUE COUNTYWIDE                           Michele Bachmann                      PCT 16                                                 01 
01000050001000037REP       President MONTAGUE COUNTYWIDE                           Rick Santorum                         PCT 2                                                  01 
01000050002000034REP       President MONTAGUE COUNTYWIDE                           Rick Santorum                         PCT 3                                                  01 
01000050003000008REP       President MONTAGUE COUNTYWIDE                           Rick Santorum                         PCT 4                                                  01 
01000050004000021REP       President MONTAGUE COUNTYWIDE                           Rick Santorum                         PCT 5                                                  01 
01000050005000023REP       President MONTAGUE COUNTYWIDE                           Rick Santorum                         PCT 6                                                  01 
01000050006000029REP       President MONTAGUE COUNTYWIDE                           Rick Santorum                         PCT 7                                                  01 
01000050007000006REP       President MONTAGUE COUNTYWIDE                           Rick Santorum                         PCT 8                                                  01 
01000050008000027REP       President MONTAGUE COUNTYWIDE                           Rick Santorum                         PCT 9                                                  01 
01000050009000031REP       President MONTAGUE COUNTYWIDE                           Rick Santorum                         PCT 10                                                 01 
01000050010000031REP       President MONTAGUE COUNTYWIDE                           Rick Santorum                         PCT 11                                                 01 
01000050011000004REP       President MONTAGUE COUNTYWIDE                           Rick Santorum                         PCT 12                                                 01 
01000050012000018REP       President MONTAGUE COUNTYWIDE                           Rick Santorum                         PCT 13                                                 01 
01000050013000003REP       President MONTAGUE COUNTYWIDE                           Rick Santorum                         PCT 14                                                 01 
01000050014000014REP       President MONTAGUE COUNTYWIDE                           Rick Santorum                         PCT 15                                                 01 
01000050015000004REP       President MONTAGUE COUNTYWIDE                           Rick Santorum                         PCT 16                                                 01 
01000060001000390REP       President MONTAGUE COUNTYWIDE                           Mitt Romney                           PCT 2                                                  01 
01000060002000214REP       President MONTAGUE COUNTYWIDE                           Mitt Romney                           PCT 3                                                  01 
01000060003000072REP       President MONTAGUE COUNTYWIDE                           Mitt Romney                           PCT 4                                                  01 
01000060004000153REP       President MONTAGUE COUNTYWIDE                           Mitt Romney                           PCT 5                                                  01 
01000060005000154REP       President MONTAGUE COUNTYWIDE                           Mitt Romney                           PCT 6                                                  01 
01000060006000204REP       President MONTAGUE COUNTYWIDE                           Mitt Romney                           PCT 7                                                  01 
01000060007000115REP       President MONTAGUE COUNTYWIDE                           Mitt Romney                           PCT 8                                                  01 
01000060008000218REP       President MONTAGUE COUNTYWIDE                           Mitt Romney                           PCT 9                                                  01 
01000060009000195REP       President MONTAGUE COUNTYWIDE                           Mitt Romney                           PCT 10                                                 01 
01000060010000241REP       President MONTAGUE COUNTYWIDE                           Mitt Romney                           PCT 11                                                 01 
01000060011000028REP       President MONTAGUE COUNTYWIDE                           Mitt Romney                           PCT 12                                                 01 
01000060012000185REP       President MONTAGUE COUNTYWIDE                           Mitt Romney                           PCT 13                                                 01 
01000060013000040REP       President MONTAGUE COUNTYWIDE                           Mitt Romney                           PCT 14                                                 01 
01000060014000086REP       President MONTAGUE COUNTYWIDE                           Mitt Romney                           PCT 15                                                 01 
01000060015000053REP       President MONTAGUE COUNTYWIDE                           Mitt Romney                           PCT 16                                                 01 
01000070001000001REP       President MONTAGUE COUNTYWIDE                           Charles "Buddy" Roemer                PCT 2                                                  01 
01000070002000002REP       President MONTAGUE COUNTYWIDE                           Charles "Buddy" Roemer                PCT 3                                                  01 
01000070003000000REP       President MONTAGUE COUNTYWIDE                           Charles "Buddy" Roemer                PCT 4                                                  01 
01000070004000001REP       President MONTAGUE COUNTYWIDE                           Charles "Buddy" Roemer                PCT 5                                                  01 
01000070005000001REP       President MONTAGUE COUNTYWIDE                           Charles "Buddy" Roemer                PCT 6                                                  01 
01000070006000001REP       President MONTAGUE COUNTYWIDE                           Charles "Buddy" Roemer                PCT 7                                                  01 
01000070007000001REP       President MONTAGUE COUNTYWIDE                           Charles "Buddy" Roemer                PCT 8                                                  01 
01000070008000000REP       President MONTAGUE COUNTYWIDE                           Charles "Buddy" Roemer                PCT 9                                                  01 
01000070009000001REP       President MONTAGUE COUNTYWIDE                           Charles "Buddy" Roemer                PCT 10                                                 01 
01000070010000002REP       President MONTAGUE COUNTYWIDE                           Charles "Buddy" Roemer                PCT 11                                                 01 
01000070011000002REP       President MONTAGUE COUNTYWIDE                           Charles "Buddy" Roemer                PCT 12                                                 01 
01000070012000002REP       President MONTAGUE COUNTYWIDE                           Charles "Buddy" Roemer                PCT 13                                                 01 
01000070013000000REP       President MONTAGUE COUNTYWIDE                           Charles "Buddy" Roemer                PCT 14                                                 01 
01000070014000000REP       President MONTAGUE COUNTYWIDE                           Charles "Buddy" Roemer                PCT 15                                                 01 
01000070015000000REP       President MONTAGUE COUNTYWIDE                           Charles "Buddy" Roemer                PCT 16                                                 01 
01000080001000034REP       President MONTAGUE COUNTYWIDE                           Newt Gingrich                         PCT 2                                                  01 
01000080002000017REP       President MONTAGUE COUNTYWIDE                           Newt Gingrich                         PCT 3                                                  01 
01000080003000001REP       President MONTAGUE COUNTYWIDE                           Newt Gingrich                         PCT 4                                                  01 
01000080004000020REP       President MONTAGUE COUNTYWIDE                           Newt Gingrich                         PCT 5                                                  01 
01000080005000013REP       President MONTAGUE COUNTYWIDE                           Newt Gingrich                         PCT 6                                                  01 
01000080006000020REP       President MONTAGUE COUNTYWIDE                           Newt Gingrich                         PCT 7                                                  01 
01000080007000009REP       President MONTAGUE COUNTYWIDE                           Newt Gingrich                         PCT 8                                                  01 
01000080008000008REP       President MONTAGUE COUNTYWIDE                           Newt Gingrich                         PCT 9                                                  01 
01000080009000022REP       President MONTAGUE COUNTYWIDE                           Newt Gingrich                         PCT 10                                                 01 
01000080010000016REP       President MONTAGUE COUNTYWIDE                           Newt Gingrich                         PCT 11                                                 01 
01000080011000001REP       President MONTAGUE COUNTYWIDE                           Newt Gingrich                         PCT 12                                                 01 
01000080012000014REP       President MONTAGUE COUNTYWIDE                           Newt Gingrich                         PCT 13                                                 01 
01000080013000002REP       President MONTAGUE COUNTYWIDE                           Newt Gingrich                         PCT 14                                                 01 
01000080014000007REP       President MONTAGUE COUNTYWIDE                           Newt Gingrich                         PCT 15                                                 01 
01000080015000003REP       President MONTAGUE COUNTYWIDE                           Newt Gingrich                         PCT 16                                                 01 
01000090001000033REP       President MONTAGUE COUNTYWIDE                           Uncommitted (No Comprometido)         PCT 2                                                  01 
01000090002000018REP       President MONTAGUE COUNTYWIDE                           Uncommitted (No Comprometido)         PCT 3                                                  01 
01000090003000004REP       President MONTAGUE COUNTYWIDE                           Uncommitted (No Comprometido)         PCT 4                                                  01 
01000090004000022REP       President MONTAGUE COUNTYWIDE                           Uncommitted (No Comprometido)         PCT 5                                                  01 
01000090005000027REP       President MONTAGUE COUNTYWIDE                           Uncommitted (No Comprometido)         PCT 6                                                  01 
01000090006000029REP       President MONTAGUE COUNTYWIDE                           Uncommitted (No Comprometido)         PCT 7                                                  01 
01000090007000008REP       President MONTAGUE COUNTYWIDE                           Uncommitted (No Comprometido)         PCT 8                                                  01 
01000090008000032REP       President MONTAGUE COUNTYWIDE                           Uncommitted (No Comprometido)         PCT 9                                                  01 
01000090009000035REP       President MONTAGUE COUNTYWIDE                           Uncommitted (No Comprometido)         PCT 10                                                 01 
01000090010000040REP       President MONTAGUE COUNTYWIDE                           Uncommitted (No Comprometido)         PCT 11                                                 01 
01000090011000004REP       President MONTAGUE COUNTYWIDE                           Uncommitted (No Comprometido)         PCT 12                                                 01 
01000090012000017REP       President MONTAGUE COUNTYWIDE                           Uncommitted (No Comprometido)         PCT 13                                                 01 
01000090013000001REP       President MONTAGUE COUNTYWIDE                           Uncommitted (No Comprometido)         PCT 14                                                 01 
01000090014000012REP       President MONTAGUE COUNTYWIDE                           Uncommitted (No Comprometido)         PCT 15                                                 01 
01000090015000009REP       President MONTAGUE COUNTYWIDE                           Uncommitted (No Comprometido)         PCT 16                                                 01 
01000100001000000REP       President MONTAGUE COUNTYWIDE                           OVER VOTES                            PCT 2                                                  01 
01000100002000000REP       President MONTAGUE COUNTYWIDE                           OVER VOTES                            PCT 3                                                  01 
01000100003000000REP       President MONTAGUE COUNTYWIDE                           OVER VOTES                            PCT 4                                                  01 
01000100004000000REP       President MONTAGUE COUNTYWIDE                           OVER VOTES                            PCT 5                                                  01 
01000100005000000REP       President MONTAGUE COUNTYWIDE                           OVER VOTES                            PCT 6                                                  01 
01000100006000000REP       President MONTAGUE COUNTYWIDE                           OVER VOTES                            PCT 7                                                  01 
01000100007000000REP       President MONTAGUE COUNTYWIDE                           OVER VOTES                            PCT 8                                                  01 
01000100008000000REP       President MONTAGUE COUNTYWIDE                           OVER VOTES                            PCT 9                                                  01 
01000100009000000REP       President MONTAGUE COUNTYWIDE                           OVER VOTES                            PCT 10                                                 01 
01000100010000000REP       President MONTAGUE COUNTYWIDE                           OVER VOTES                            PCT 11                                                 01 
01000100011000000REP       President MONTAGUE COUNTYWIDE                           OVER VOTES                            PCT 12                                                 01 
01000100012000000REP       President MONTAGUE COUNTYWIDE                           OVER VOTES                            PCT 13                                                 01 
01000100013000000REP       President MONTAGUE COUNTYWIDE                           OVER VOTES                            PCT 14                                                 01 
01000100014000000REP       President MONTAGUE COUNTYWIDE                           OVER VOTES                            PCT 15                                                 01 
01000100015000000REP       President MONTAGUE COUNTYWIDE                           OVER VOTES                            PCT 16                                                 01 
01000110001000015REP       President MONTAGUE COUNTYWIDE                           UNDER VOTES                           PCT 2                                                  01 
01000110002000009REP       President MONTAGUE COUNTYWIDE                           UNDER VOTES                           PCT 3                                                  01 
01000110003000002REP       President MONTAGUE COUNTYWIDE                           UNDER VOTES                           PCT 4                                                  01 
01000110004000014REP       President MONTAGUE COUNTYWIDE                           UNDER VOTES                           PCT 5                                                  01 
01000110005000021REP       President MONTAGUE COUNTYWIDE                           UNDER VOTES                           PCT 6                                                  01 
01000110006000033REP       President MONTAGUE COUNTYWIDE                           UNDER VOTES                           PCT 7                                                  01 
01000110007000006REP       President MONTAGUE COUNTYWIDE                           UNDER VOTES                           PCT 8                                                  01 
01000110008000019REP       President MONTAGUE COUNTYWIDE                           UNDER VOTES                           PCT 9                                                  01 
01000110009000033REP       President MONTAGUE COUNTYWIDE                           UNDER VOTES                           PCT 10                                                 01 
01000110010000045REP       President MONTAGUE COUNTYWIDE                           UNDER VOTES                           PCT 11                                                 01 
01000110011000006REP       President MONTAGUE COUNTYWIDE                           UNDER VOTES                           PCT 12                                                 01 
01000110012000007REP       President MONTAGUE COUNTYWIDE                           UNDER VOTES                           PCT 13                                                 01 
01000110013000002REP       President MONTAGUE COUNTYWIDE                           UNDER VOTES                           PCT 14                                                 01 
01000110014000011REP       President MONTAGUE COUNTYWIDE                           UNDER VOTES                           PCT 15                                                 01 
01000110015000005REP       President MONTAGUE COUNTYWIDE                           UNDER VOTES                           PCT 16                                                 01 
01010010001000036REP       US Senator MONTAGUE COUNTYWIDE                          Craig James                           PCT 2                                                  01 
01010010002000033REP       US Senator MONTAGUE COUNTYWIDE                          Craig James                           PCT 3                                                  01 
01010010003000013REP       US Senator MONTAGUE COUNTYWIDE                          Craig James                           PCT 4                                                  01 
01010010004000027REP       US Senator MONTAGUE COUNTYWIDE                          Craig James                           PCT 5                                                  01 
01010010005000026REP       US Senator MONTAGUE COUNTYWIDE                          Craig James                           PCT 6                                                  01 
01010010006000026REP       US Senator MONTAGUE COUNTYWIDE                          Craig James                           PCT 7                                                  01 
01010010007000011REP       US Senator MONTAGUE COUNTYWIDE                          Craig James                           PCT 8                                                  01 
01010010008000029REP       US Senator MONTAGUE COUNTYWIDE                          Craig James                           PCT 9                                                  01 
01010010009000034REP       US Senator MONTAGUE COUNTYWIDE                          Craig James                           PCT 10                                                 01 
01010010010000040REP       US Senator MONTAGUE COUNTYWIDE                          Craig James                           PCT 11                                                 01 
01010010011000007REP       US Senator MONTAGUE COUNTYWIDE                          Craig James                           PCT 12                                                 01 
01010010012000022REP       US Senator MONTAGUE COUNTYWIDE                          Craig James                           PCT 13                                                 01 
01010010013000005REP       US Senator MONTAGUE COUNTYWIDE                          Craig James                           PCT 14                                                 01 
01010010014000010REP       US Senator MONTAGUE COUNTYWIDE                          Craig James                           PCT 15                                                 01 
01010010015000003REP       US Senator MONTAGUE COUNTYWIDE                          Craig James                           PCT 16                                                 01 
01010020001000010REP       US Senator MONTAGUE COUNTYWIDE                          Glenn Addison                         PCT 2                                                  01 
01010020002000010REP       US Senator MONTAGUE COUNTYWIDE                          Glenn Addison                         PCT 3                                                  01 
01010020003000004REP       US Senator MONTAGUE COUNTYWIDE                          Glenn Addison                         PCT 4                                                  01 
01010020004000005REP       US Senator MONTAGUE COUNTYWIDE                          Glenn Addison                         PCT 5                                                  01 
01010020005000007REP       US Senator MONTAGUE COUNTYWIDE                          Glenn Addison                         PCT 6                                                  01 
01010020006000002REP       US Senator MONTAGUE COUNTYWIDE                          Glenn Addison                         PCT 7                                                  01 
01010020007000000REP       US Senator MONTAGUE COUNTYWIDE                          Glenn Addison                         PCT 8                                                  01 
01010020008000003REP       US Senator MONTAGUE COUNTYWIDE                          Glenn Addison                         PCT 9                                                  01 
01010020009000002REP       US Senator MONTAGUE COUNTYWIDE                          Glenn Addison                         PCT 10                                                 01 
01010020010000005REP       US Senator MONTAGUE COUNTYWIDE                          Glenn Addison                         PCT 11                                                 01 
01010020011000002REP       US Senator MONTAGUE COUNTYWIDE                          Glenn Addison                         PCT 12                                                 01 
01010020012000006REP       US Senator MONTAGUE COUNTYWIDE                          Glenn Addison                         PCT 13                                                 01 
01010020013000000REP       US Senator MONTAGUE COUNTYWIDE                          Glenn Addison                         PCT 14                                                 01 
01010020014000003REP       US Senator MONTAGUE COUNTYWIDE                          Glenn Addison                         PCT 15                                                 01 
01010020015000001REP       US Senator MONTAGUE COUNTYWIDE                          Glenn Addison                         PCT 16                                                 01 
01010030001000075REP       US Senator MONTAGUE COUNTYWIDE                          Tom Leppert                           PCT 2                                                  01 
01010030002000043REP       US Senator MONTAGUE COUNTYWIDE                          Tom Leppert                           PCT 3                                                  01 
01010030003000006REP       US Senator MONTAGUE COUNTYWIDE                          Tom Leppert                           PCT 4                                                  01 
01010030004000034REP       US Senator MONTAGUE COUNTYWIDE                          Tom Leppert                           PCT 5                                                  01 
01010030005000033REP       US Senator MONTAGUE COUNTYWIDE                          Tom Leppert                           PCT 6                                                  01 
01010030006000078REP       US Senator MONTAGUE COUNTYWIDE                          Tom Leppert                           PCT 7                                                  01 
01010030007000019REP       US Senator MONTAGUE COUNTYWIDE                          Tom Leppert                           PCT 8                                                  01 
01010030008000044REP       US Senator MONTAGUE COUNTYWIDE                          Tom Leppert                           PCT 9                                                  01 
01010030009000038REP       US Senator MONTAGUE COUNTYWIDE                          Tom Leppert                           PCT 10                                                 01 
01010030010000067REP       US Senator MONTAGUE COUNTYWIDE                          Tom Leppert                           PCT 11                                                 01 
01010030011000006REP       US Senator MONTAGUE COUNTYWIDE                          Tom Leppert                           PCT 12                                                 01 
01010030012000049REP       US Senator MONTAGUE COUNTYWIDE                          Tom Leppert                           PCT 13                                                 01 
01010030013000003REP       US Senator MONTAGUE COUNTYWIDE                          Tom Leppert                           PCT 14                                                 01 
01010030014000022REP       US Senator MONTAGUE COUNTYWIDE                          Tom Leppert                           PCT 15                                                 01 
01010030015000009REP       US Senator MONTAGUE COUNTYWIDE                          Tom Leppert                           PCT 16                                                 01 
01010040001000143REP       US Senator MONTAGUE COUNTYWIDE                          Ted Cruz                              PCT 2                                                  01 
01010040002000062REP       US Senator MONTAGUE COUNTYWIDE                          Ted Cruz                              PCT 3                                                  01 
01010040003000017REP       US Senator MONTAGUE COUNTYWIDE                          Ted Cruz                              PCT 4                                                  01 
01010040004000051REP       US Senator MONTAGUE COUNTYWIDE                          Ted Cruz                              PCT 5                                                  01 
01010040005000054REP       US Senator MONTAGUE COUNTYWIDE                          Ted Cruz                              PCT 6                                                  01 
01010040006000074REP       US Senator MONTAGUE COUNTYWIDE                          Ted Cruz                              PCT 7                                                  01 
01010040007000043REP       US Senator MONTAGUE COUNTYWIDE                          Ted Cruz                              PCT 8                                                  01 
01010040008000054REP       US Senator MONTAGUE COUNTYWIDE                          Ted Cruz                              PCT 9                                                  01 
01010040009000055REP       US Senator MONTAGUE COUNTYWIDE                          Ted Cruz                              PCT 10                                                 01 
01010040010000039REP       US Senator MONTAGUE COUNTYWIDE                          Ted Cruz                              PCT 11                                                 01 
01010040011000005REP       US Senator MONTAGUE COUNTYWIDE                          Ted Cruz                              PCT 12                                                 01 
01010040012000061REP       US Senator MONTAGUE COUNTYWIDE                          Ted Cruz                              PCT 13                                                 01 
01010040013000010REP       US Senator MONTAGUE COUNTYWIDE                          Ted Cruz                              PCT 14                                                 01 
01010040014000029REP       US Senator MONTAGUE COUNTYWIDE                          Ted Cruz                              PCT 15                                                 01 
01010040015000016REP       US Senator MONTAGUE COUNTYWIDE                          Ted Cruz                              PCT 16                                                 01 
01010050001000005REP       US Senator MONTAGUE COUNTYWIDE                          Ben Gambini                           PCT 2                                                  01 
01010050002000002REP       US Senator MONTAGUE COUNTYWIDE                          Ben Gambini                           PCT 3                                                  01 
01010050003000001REP       US Senator MONTAGUE COUNTYWIDE                          Ben Gambini                           PCT 4                                                  01 
01010050004000003REP       US Senator MONTAGUE COUNTYWIDE                          Ben Gambini                           PCT 5                                                  01 
01010050005000002REP       US Senator MONTAGUE COUNTYWIDE                          Ben Gambini                           PCT 6                                                  01 
01010050006000003REP       US Senator MONTAGUE COUNTYWIDE                          Ben Gambini                           PCT 7                                                  01 
01010050007000000REP       US Senator MONTAGUE COUNTYWIDE                          Ben Gambini                           PCT 8                                                  01 
01010050008000005REP       US Senator MONTAGUE COUNTYWIDE                          Ben Gambini                           PCT 9                                                  01 
01010050009000003REP       US Senator MONTAGUE COUNTYWIDE                          Ben Gambini                           PCT 10                                                 01 
01010050010000006REP       US Senator MONTAGUE COUNTYWIDE                          Ben Gambini                           PCT 11                                                 01 
01010050011000000REP       US Senator MONTAGUE COUNTYWIDE                          Ben Gambini                           PCT 12                                                 01 
01010050012000002REP       US Senator MONTAGUE COUNTYWIDE                          Ben Gambini                           PCT 13                                                 01 
01010050013000000REP       US Senator MONTAGUE COUNTYWIDE                          Ben Gambini                           PCT 14                                                 01 
01010050014000002REP       US Senator MONTAGUE COUNTYWIDE                          Ben Gambini                           PCT 15                                                 01 
01010050015000000REP       US Senator MONTAGUE COUNTYWIDE                          Ben Gambini                           PCT 16                                                 01 
01010060001000239REP       US Senator MONTAGUE COUNTYWIDE                          David Dewhurst                        PCT 2                                                  01 
01010060002000155REP       US Senator MONTAGUE COUNTYWIDE                          David Dewhurst                        PCT 3                                                  01 
01010060003000051REP       US Senator MONTAGUE COUNTYWIDE                          David Dewhurst                        PCT 4                                                  01 
01010060004000100REP       US Senator MONTAGUE COUNTYWIDE                          David Dewhurst                        PCT 5                                                  01 
01010060005000104REP       US Senator MONTAGUE COUNTYWIDE                          David Dewhurst                        PCT 6                                                  01 
01010060006000115REP       US Senator MONTAGUE COUNTYWIDE                          David Dewhurst                        PCT 7                                                  01 
01010060007000069REP       US Senator MONTAGUE COUNTYWIDE                          David Dewhurst                        PCT 8                                                  01 
01010060008000145REP       US Senator MONTAGUE COUNTYWIDE                          David Dewhurst                        PCT 9                                                  01 
01010060009000137REP       US Senator MONTAGUE COUNTYWIDE                          David Dewhurst                        PCT 10                                                 01 
01010060010000173REP       US Senator MONTAGUE COUNTYWIDE                          David Dewhurst                        PCT 11                                                 01 
01010060011000014REP       US Senator MONTAGUE COUNTYWIDE                          David Dewhurst                        PCT 12                                                 01 
01010060012000110REP       US Senator MONTAGUE COUNTYWIDE                          David Dewhurst                        PCT 13                                                 01 
01010060013000027REP       US Senator MONTAGUE COUNTYWIDE                          David Dewhurst                        PCT 14                                                 01 
01010060014000051REP       US Senator MONTAGUE COUNTYWIDE                          David Dewhurst                        PCT 15                                                 01 
01010060015000042REP       US Senator MONTAGUE COUNTYWIDE                          David Dewhurst                        PCT 16                                                 01 
01010070001000003REP       US Senator MONTAGUE COUNTYWIDE                          Curt Cleaver                          PCT 2                                                  01 
01010070002000001REP       US Senator MONTAGUE COUNTYWIDE                          Curt Cleaver                          PCT 3                                                  01 
01010070003000000REP       US Senator MONTAGUE COUNTYWIDE                          Curt Cleaver                          PCT 4                                                  01 
01010070004000000REP       US Senator MONTAGUE COUNTYWIDE                          Curt Cleaver                          PCT 5                                                  01 
01010070005000001REP       US Senator MONTAGUE COUNTYWIDE                          Curt Cleaver                          PCT 6                                                  01 
01010070006000003REP       US Senator MONTAGUE COUNTYWIDE                          Curt Cleaver                          PCT 7                                                  01 
01010070007000002REP       US Senator MONTAGUE COUNTYWIDE                          Curt Cleaver                          PCT 8                                                  01 
01010070008000002REP       US Senator MONTAGUE COUNTYWIDE                          Curt Cleaver                          PCT 9                                                  01 
01010070009000004REP       US Senator MONTAGUE COUNTYWIDE                          Curt Cleaver                          PCT 10                                                 01 
01010070010000000REP       US Senator MONTAGUE COUNTYWIDE                          Curt Cleaver                          PCT 11                                                 01 
01010070011000001REP       US Senator MONTAGUE COUNTYWIDE                          Curt Cleaver                          PCT 12                                                 01 
01010070012000002REP       US Senator MONTAGUE COUNTYWIDE                          Curt Cleaver                          PCT 13                                                 01 
01010070013000000REP       US Senator MONTAGUE COUNTYWIDE                          Curt Cleaver                          PCT 14                                                 01 
01010070014000001REP       US Senator MONTAGUE COUNTYWIDE                          Curt Cleaver                          PCT 15                                                 01 
01010070015000000REP       US Senator MONTAGUE COUNTYWIDE                          Curt Cleaver                          PCT 16                                                 01 
01010080001000002REP       US Senator MONTAGUE COUNTYWIDE                          Joe Agris                             PCT 2                                                  01 
01010080002000000REP       US Senator MONTAGUE COUNTYWIDE                          Joe Agris                             PCT 3                                                  01 
01010080003000000REP       US Senator MONTAGUE COUNTYWIDE                          Joe Agris                             PCT 4                                                  01 
01010080004000001REP       US Senator MONTAGUE COUNTYWIDE                          Joe Agris                             PCT 5                                                  01 
01010080005000000REP       US Senator MONTAGUE COUNTYWIDE                          Joe Agris                             PCT 6                                                  01 
01010080006000001REP       US Senator MONTAGUE COUNTYWIDE                          Joe Agris                             PCT 7                                                  01 
01010080007000000REP       US Senator MONTAGUE COUNTYWIDE                          Joe Agris                             PCT 8                                                  01 
01010080008000001REP       US Senator MONTAGUE COUNTYWIDE                          Joe Agris                             PCT 9                                                  01 
01010080009000002REP       US Senator MONTAGUE COUNTYWIDE                          Joe Agris                             PCT 10                                                 01 
01010080010000001REP       US Senator MONTAGUE COUNTYWIDE                          Joe Agris                             PCT 11                                                 01 
01010080011000000REP       US Senator MONTAGUE COUNTYWIDE                          Joe Agris                             PCT 12                                                 01 
01010080012000001REP       US Senator MONTAGUE COUNTYWIDE                          Joe Agris                             PCT 13                                                 01 
01010080013000000REP       US Senator MONTAGUE COUNTYWIDE                          Joe Agris                             PCT 14                                                 01 
01010080014000001REP       US Senator MONTAGUE COUNTYWIDE                          Joe Agris                             PCT 15                                                 01 
01010080015000000REP       US Senator MONTAGUE COUNTYWIDE                          Joe Agris                             PCT 16                                                 01 
01010090001000010REP       US Senator MONTAGUE COUNTYWIDE                          Lela Pittenger                        PCT 2                                                  01 
01010090002000006REP       US Senator MONTAGUE COUNTYWIDE                          Lela Pittenger                        PCT 3                                                  01 
01010090003000001REP       US Senator MONTAGUE COUNTYWIDE                          Lela Pittenger                        PCT 4                                                  01 
01010090004000003REP       US Senator MONTAGUE COUNTYWIDE                          Lela Pittenger                        PCT 5                                                  01 
01010090005000006REP       US Senator MONTAGUE COUNTYWIDE                          Lela Pittenger                        PCT 6                                                  01 
01010090006000007REP       US Senator MONTAGUE COUNTYWIDE                          Lela Pittenger                        PCT 7                                                  01 
01010090007000000REP       US Senator MONTAGUE COUNTYWIDE                          Lela Pittenger                        PCT 8                                                  01 
01010090008000005REP       US Senator MONTAGUE COUNTYWIDE                          Lela Pittenger                        PCT 9                                                  01 
01010090009000007REP       US Senator MONTAGUE COUNTYWIDE                          Lela Pittenger                        PCT 10                                                 01 
01010090010000006REP       US Senator MONTAGUE COUNTYWIDE                          Lela Pittenger                        PCT 11                                                 01 
01010090011000000REP       US Senator MONTAGUE COUNTYWIDE                          Lela Pittenger                        PCT 12                                                 01 
01010090012000005REP       US Senator MONTAGUE COUNTYWIDE                          Lela Pittenger                        PCT 13                                                 01 
01010090013000002REP       US Senator MONTAGUE COUNTYWIDE                          Lela Pittenger                        PCT 14                                                 01 
01010090014000004REP       US Senator MONTAGUE COUNTYWIDE                          Lela Pittenger                        PCT 15                                                 01 
01010090015000003REP       US Senator MONTAGUE COUNTYWIDE                          Lela Pittenger                        PCT 16                                                 01 
01010100001000000REP       US Senator MONTAGUE COUNTYWIDE                          OVER VOTES                            PCT 2                                                  01 
01010100002000000REP       US Senator MONTAGUE COUNTYWIDE                          OVER VOTES                            PCT 3                                                  01 
01010100003000000REP       US Senator MONTAGUE COUNTYWIDE                          OVER VOTES                            PCT 4                                                  01 
01010100004000000REP       US Senator MONTAGUE COUNTYWIDE                          OVER VOTES                            PCT 5                                                  01 
01010100005000000REP       US Senator MONTAGUE COUNTYWIDE                          OVER VOTES                            PCT 6                                                  01 
01010100006000000REP       US Senator MONTAGUE COUNTYWIDE                          OVER VOTES                            PCT 7                                                  01 
01010100007000000REP       US Senator MONTAGUE COUNTYWIDE                          OVER VOTES                            PCT 8                                                  01 
01010100008000000REP       US Senator MONTAGUE COUNTYWIDE                          OVER VOTES                            PCT 9                                                  01 
01010100009000000REP       US Senator MONTAGUE COUNTYWIDE                          OVER VOTES                            PCT 10                                                 01 
01010100010000000REP       US Senator MONTAGUE COUNTYWIDE                          OVER VOTES                            PCT 11                                                 01 
01010100011000000REP       US Senator MONTAGUE COUNTYWIDE                          OVER VOTES                            PCT 12                                                 01 
01010100012000000REP       US Senator MONTAGUE COUNTYWIDE                          OVER VOTES                            PCT 13                                                 01 
01010100013000000REP       US Senator MONTAGUE COUNTYWIDE                          OVER VOTES                            PCT 14                                                 01 
01010100014000000REP       US Senator MONTAGUE COUNTYWIDE                          OVER VOTES                            PCT 15                                                 01 
01010100015000000REP       US Senator MONTAGUE COUNTYWIDE                          OVER VOTES                            PCT 16                                                 01 
01010110001000061REP       US Senator MONTAGUE COUNTYWIDE                          UNDER VOTES                           PCT 2                                                  01 
01010110002000031REP       US Senator MONTAGUE COUNTYWIDE                          UNDER VOTES                           PCT 3                                                  01 
01010110003000011REP       US Senator MONTAGUE COUNTYWIDE                          UNDER VOTES                           PCT 4                                                  01 
01010110004000031REP       US Senator MONTAGUE COUNTYWIDE                          UNDER VOTES                           PCT 5                                                  01 
01010110005000042REP       US Senator MONTAGUE COUNTYWIDE                          UNDER VOTES                           PCT 6                                                  01 
01010110006000054REP       US Senator MONTAGUE COUNTYWIDE                          UNDER VOTES                           PCT 7                                                  01 
01010110007000019REP       US Senator MONTAGUE COUNTYWIDE                          UNDER VOTES                           PCT 8                                                  01 
01010110008000040REP       US Senator MONTAGUE COUNTYWIDE                          UNDER VOTES                           PCT 9                                                  01 
01010110009000071REP       US Senator MONTAGUE COUNTYWIDE                          UNDER VOTES                           PCT 10                                                 01 
01010110010000082REP       US Senator MONTAGUE COUNTYWIDE                          UNDER VOTES                           PCT 11                                                 01 
01010110011000013REP       US Senator MONTAGUE COUNTYWIDE                          UNDER VOTES                           PCT 12                                                 01 
01010110012000019REP       US Senator MONTAGUE COUNTYWIDE                          UNDER VOTES                           PCT 13                                                 01 
01010110013000005REP       US Senator MONTAGUE COUNTYWIDE                          UNDER VOTES                           PCT 14                                                 01 
01010110014000028REP       US Senator MONTAGUE COUNTYWIDE                          UNDER VOTES                           PCT 15                                                 01 
01010110015000014REP       US Senator MONTAGUE COUNTYWIDE                          UNDER VOTES                           PCT 16                                                 01 
01020010001000208REP       US Representative, DIST 13 MONTAGUE COUNTYWIDE          Pamela Lee Barlow                     PCT 2                                                  01 
01020010002000119REP       US Representative, DIST 13 MONTAGUE COUNTYWIDE          Pamela Lee Barlow                     PCT 3                                                  01 
01020010003000044REP       US Representative, DIST 13 MONTAGUE COUNTYWIDE          Pamela Lee Barlow                     PCT 4                                                  01 
01020010004000088REP       US Representative, DIST 13 MONTAGUE COUNTYWIDE          Pamela Lee Barlow                     PCT 5                                                  01 
01020010005000105REP       US Representative, DIST 13 MONTAGUE COUNTYWIDE          Pamela Lee Barlow                     PCT 6                                                  01 
01020010006000106REP       US Representative, DIST 13 MONTAGUE COUNTYWIDE          Pamela Lee Barlow                     PCT 7                                                  01 
01020010007000074REP       US Representative, DIST 13 MONTAGUE COUNTYWIDE          Pamela Lee Barlow                     PCT 8                                                  01 
01020010008000093REP       US Representative, DIST 13 MONTAGUE COUNTYWIDE          Pamela Lee Barlow                     PCT 9                                                  01 
01020010009000081REP       US Representative, DIST 13 MONTAGUE COUNTYWIDE          Pamela Lee Barlow                     PCT 10                                                 01 
01020010010000087REP       US Representative, DIST 13 MONTAGUE COUNTYWIDE          Pamela Lee Barlow                     PCT 11                                                 01 
01020010011000019REP       US Representative, DIST 13 MONTAGUE COUNTYWIDE          Pamela Lee Barlow                     PCT 12                                                 01 
01020010012000087REP       US Representative, DIST 13 MONTAGUE COUNTYWIDE          Pamela Lee Barlow                     PCT 13                                                 01 
01020010013000013REP       US Representative, DIST 13 MONTAGUE COUNTYWIDE          Pamela Lee Barlow                     PCT 14                                                 01 
01020010014000048REP       US Representative, DIST 13 MONTAGUE COUNTYWIDE          Pamela Lee Barlow                     PCT 15                                                 01 
01020010015000042REP       US Representative, DIST 13 MONTAGUE COUNTYWIDE          Pamela Lee Barlow                     PCT 16                                                 01 
01020020001000332REP       US Representative, DIST 13 MONTAGUE COUNTYWIDE          Mac Thornberry                        PCT 2                                                  01 
01020020002000200REP       US Representative, DIST 13 MONTAGUE COUNTYWIDE          Mac Thornberry                        PCT 3                                                  01 
01020020003000054REP       US Representative, DIST 13 MONTAGUE COUNTYWIDE          Mac Thornberry                        PCT 4                                                  01 
01020020004000146REP       US Representative, DIST 13 MONTAGUE COUNTYWIDE          Mac Thornberry                        PCT 5                                                  01 
01020020005000149REP       US Representative, DIST 13 MONTAGUE COUNTYWIDE          Mac Thornberry                        PCT 6                                                  01 
01020020006000191REP       US Representative, DIST 13 MONTAGUE COUNTYWIDE          Mac Thornberry                        PCT 7                                                  01 
01020020007000072REP       US Representative, DIST 13 MONTAGUE COUNTYWIDE          Mac Thornberry                        PCT 8                                                  01 
01020020008000206REP       US Representative, DIST 13 MONTAGUE COUNTYWIDE          Mac Thornberry                        PCT 9                                                  01 
01020020009000228REP       US Representative, DIST 13 MONTAGUE COUNTYWIDE          Mac Thornberry                        PCT 10                                                 01 
01020020010000283REP       US Representative, DIST 13 MONTAGUE COUNTYWIDE          Mac Thornberry                        PCT 11                                                 01 
01020020011000020REP       US Representative, DIST 13 MONTAGUE COUNTYWIDE          Mac Thornberry                        PCT 12                                                 01 
01020020012000172REP       US Representative, DIST 13 MONTAGUE COUNTYWIDE          Mac Thornberry                        PCT 13                                                 01 
01020020013000038REP       US Representative, DIST 13 MONTAGUE COUNTYWIDE          Mac Thornberry                        PCT 14                                                 01 
01020020014000085REP       US Representative, DIST 13 MONTAGUE COUNTYWIDE          Mac Thornberry                        PCT 15                                                 01 
01020020015000038REP       US Representative, DIST 13 MONTAGUE COUNTYWIDE          Mac Thornberry                        PCT 16                                                 01 
01020030001000000REP       US Representative, DIST 13 MONTAGUE COUNTYWIDE          OVER VOTES                            PCT 2                                                  01 
01020030002000000REP       US Representative, DIST 13 MONTAGUE COUNTYWIDE          OVER VOTES                            PCT 3                                                  01 
01020030003000000REP       US Representative, DIST 13 MONTAGUE COUNTYWIDE          OVER VOTES                            PCT 4                                                  01 
01020030004000000REP       US Representative, DIST 13 MONTAGUE COUNTYWIDE          OVER VOTES                            PCT 5                                                  01 
01020030005000000REP       US Representative, DIST 13 MONTAGUE COUNTYWIDE          OVER VOTES                            PCT 6                                                  01 
01020030006000000REP       US Representative, DIST 13 MONTAGUE COUNTYWIDE          OVER VOTES                            PCT 7                                                  01 
01020030007000000REP       US Representative, DIST 13 MONTAGUE COUNTYWIDE          OVER VOTES                            PCT 8                                                  01 
01020030008000000REP       US Representative, DIST 13 MONTAGUE COUNTYWIDE          OVER VOTES                            PCT 9                                                  01 
01020030009000000REP       US Representative, DIST 13 MONTAGUE COUNTYWIDE          OVER VOTES                            PCT 10                                                 01 
01020030010000000REP       US Representative, DIST 13 MONTAGUE COUNTYWIDE          OVER VOTES                            PCT 11                                                 01 
01020030011000000REP       US Representative, DIST 13 MONTAGUE COUNTYWIDE          OVER VOTES                            PCT 12                                                 01 
01020030012000000REP       US Representative, DIST 13 MONTAGUE COUNTYWIDE          OVER VOTES                            PCT 13                                                 01 
01020030013000000REP       US Representative, DIST 13 MONTAGUE COUNTYWIDE          OVER VOTES                            PCT 14                                                 01 
01020030014000000REP       US Representative, DIST 13 MONTAGUE COUNTYWIDE          OVER VOTES                            PCT 15                                                 01 
01020030015000000REP       US Representative, DIST 13 MONTAGUE COUNTYWIDE          OVER VOTES                            PCT 16                                                 01 
01020040001000044REP       US Representative, DIST 13 MONTAGUE COUNTYWIDE          UNDER VOTES                           PCT 2                                                  01 
01020040002000024REP       US Representative, DIST 13 MONTAGUE COUNTYWIDE          UNDER VOTES                           PCT 3                                                  01 
01020040003000006REP       US Representative, DIST 13 MONTAGUE COUNTYWIDE          UNDER VOTES                           PCT 4                                                  01 
01020040004000021REP       US Representative, DIST 13 MONTAGUE COUNTYWIDE          UNDER VOTES                           PCT 5                                                  01 
01020040005000021REP       US Representative, DIST 13 MONTAGUE COUNTYWIDE          UNDER VOTES                           PCT 6                                                  01 
01020040006000066REP       US Representative, DIST 13 MONTAGUE COUNTYWIDE          UNDER VOTES                           PCT 7                                                  01 
01020040007000017REP       US Representative, DIST 13 MONTAGUE COUNTYWIDE          UNDER VOTES                           PCT 8                                                  01 
01020040008000029REP       US Representative, DIST 13 MONTAGUE COUNTYWIDE          UNDER VOTES                           PCT 9                                                  01 
01020040009000044REP       US Representative, DIST 13 MONTAGUE COUNTYWIDE          UNDER VOTES                           PCT 10                                                 01 
01020040010000049REP       US Representative, DIST 13 MONTAGUE COUNTYWIDE          UNDER VOTES                           PCT 11                                                 01 
01020040011000009REP       US Representative, DIST 13 MONTAGUE COUNTYWIDE          UNDER VOTES                           PCT 12                                                 01 
01020040012000018REP       US Representative, DIST 13 MONTAGUE COUNTYWIDE          UNDER VOTES                           PCT 13                                                 01 
01020040013000001REP       US Representative, DIST 13 MONTAGUE COUNTYWIDE          UNDER VOTES                           PCT 14                                                 01 
01020040014000018REP       US Representative, DIST 13 MONTAGUE COUNTYWIDE          UNDER VOTES                           PCT 15                                                 01 
01020040015000008REP       US Representative, DIST 13 MONTAGUE COUNTYWIDE          UNDER VOTES                           PCT 16                                                 01 
01030010001000089REP       Railroad Commissioner MONTAGUE COUNTYWIDE               Roland Sledge                         PCT 2                                                  01 
01030010002000045REP       Railroad Commissioner MONTAGUE COUNTYWIDE               Roland Sledge                         PCT 3                                                  01 
01030010003000012REP       Railroad Commissioner MONTAGUE COUNTYWIDE               Roland Sledge                         PCT 4                                                  01 
01030010004000038REP       Railroad Commissioner MONTAGUE COUNTYWIDE               Roland Sledge                         PCT 5                                                  01 
01030010005000033REP       Railroad Commissioner MONTAGUE COUNTYWIDE               Roland Sledge                         PCT 6                                                  01 
01030010006000050REP       Railroad Commissioner MONTAGUE COUNTYWIDE               Roland Sledge                         PCT 7                                                  01 
01030010007000024REP       Railroad Commissioner MONTAGUE COUNTYWIDE               Roland Sledge                         PCT 8                                                  01 
01030010008000054REP       Railroad Commissioner MONTAGUE COUNTYWIDE               Roland Sledge                         PCT 9                                                  01 
01030010009000055REP       Railroad Commissioner MONTAGUE COUNTYWIDE               Roland Sledge                         PCT 10                                                 01 
01030010010000049REP       Railroad Commissioner MONTAGUE COUNTYWIDE               Roland Sledge                         PCT 11                                                 01 
01030010011000005REP       Railroad Commissioner MONTAGUE COUNTYWIDE               Roland Sledge                         PCT 12                                                 01 
01030010012000043REP       Railroad Commissioner MONTAGUE COUNTYWIDE               Roland Sledge                         PCT 13                                                 01 
01030010013000009REP       Railroad Commissioner MONTAGUE COUNTYWIDE               Roland Sledge                         PCT 14                                                 01 
01030010014000027REP       Railroad Commissioner MONTAGUE COUNTYWIDE               Roland Sledge                         PCT 15                                                 01 
01030010015000012REP       Railroad Commissioner MONTAGUE COUNTYWIDE               Roland Sledge                         PCT 16                                                 01 
01030020001000041REP       Railroad Commissioner MONTAGUE COUNTYWIDE               Joe Cotten                            PCT 2                                                  01 
01030020002000029REP       Railroad Commissioner MONTAGUE COUNTYWIDE               Joe Cotten                            PCT 3                                                  01 
01030020003000015REP       Railroad Commissioner MONTAGUE COUNTYWIDE               Joe Cotten                            PCT 4                                                  01 
01030020004000024REP       Railroad Commissioner MONTAGUE COUNTYWIDE               Joe Cotten                            PCT 5                                                  01 
01030020005000026REP       Railroad Commissioner MONTAGUE COUNTYWIDE               Joe Cotten                            PCT 6                                                  01 
01030020006000031REP       Railroad Commissioner MONTAGUE COUNTYWIDE               Joe Cotten                            PCT 7                                                  01 
01030020007000014REP       Railroad Commissioner MONTAGUE COUNTYWIDE               Joe Cotten                            PCT 8                                                  01 
01030020008000023REP       Railroad Commissioner MONTAGUE COUNTYWIDE               Joe Cotten                            PCT 9                                                  01 
01030020009000023REP       Railroad Commissioner MONTAGUE COUNTYWIDE               Joe Cotten                            PCT 10                                                 01 
01030020010000044REP       Railroad Commissioner MONTAGUE COUNTYWIDE               Joe Cotten                            PCT 11                                                 01 
01030020011000011REP       Railroad Commissioner MONTAGUE COUNTYWIDE               Joe Cotten                            PCT 12                                                 01 
01030020012000036REP       Railroad Commissioner MONTAGUE COUNTYWIDE               Joe Cotten                            PCT 13                                                 01 
01030020013000005REP       Railroad Commissioner MONTAGUE COUNTYWIDE               Joe Cotten                            PCT 14                                                 01 
01030020014000010REP       Railroad Commissioner MONTAGUE COUNTYWIDE               Joe Cotten                            PCT 15                                                 01 
01030020015000011REP       Railroad Commissioner MONTAGUE COUNTYWIDE               Joe Cotten                            PCT 16                                                 01 
01030030001000110REP       Railroad Commissioner MONTAGUE COUNTYWIDE               Warren Chisum                         PCT 2                                                  01 
01030030002000053REP       Railroad Commissioner MONTAGUE COUNTYWIDE               Warren Chisum                         PCT 3                                                  01 
01030030003000019REP       Railroad Commissioner MONTAGUE COUNTYWIDE               Warren Chisum                         PCT 4                                                  01 
01030030004000041REP       Railroad Commissioner MONTAGUE COUNTYWIDE               Warren Chisum                         PCT 5                                                  01 
01030030005000043REP       Railroad Commissioner MONTAGUE COUNTYWIDE               Warren Chisum                         PCT 6                                                  01 
01030030006000047REP       Railroad Commissioner MONTAGUE COUNTYWIDE               Warren Chisum                         PCT 7                                                  01 
01030030007000016REP       Railroad Commissioner MONTAGUE COUNTYWIDE               Warren Chisum                         PCT 8                                                  01 
01030030008000064REP       Railroad Commissioner MONTAGUE COUNTYWIDE               Warren Chisum                         PCT 9                                                  01 
01030030009000037REP       Railroad Commissioner MONTAGUE COUNTYWIDE               Warren Chisum                         PCT 10                                                 01 
01030030010000062REP       Railroad Commissioner MONTAGUE COUNTYWIDE               Warren Chisum                         PCT 11                                                 01 
01030030011000003REP       Railroad Commissioner MONTAGUE COUNTYWIDE               Warren Chisum                         PCT 12                                                 01 
01030030012000030REP       Railroad Commissioner MONTAGUE COUNTYWIDE               Warren Chisum                         PCT 13                                                 01 
01030030013000010REP       Railroad Commissioner MONTAGUE COUNTYWIDE               Warren Chisum                         PCT 14                                                 01 
01030030014000016REP       Railroad Commissioner MONTAGUE COUNTYWIDE               Warren Chisum                         PCT 15                                                 01 
01030030015000013REP       Railroad Commissioner MONTAGUE COUNTYWIDE               Warren Chisum                         PCT 16                                                 01 
01030040001000116REP       Railroad Commissioner MONTAGUE COUNTYWIDE               Christi Craddick                      PCT 2                                                  01 
01030040002000066REP       Railroad Commissioner MONTAGUE COUNTYWIDE               Christi Craddick                      PCT 3                                                  01 
01030040003000014REP       Railroad Commissioner MONTAGUE COUNTYWIDE               Christi Craddick                      PCT 4                                                  01 
01030040004000044REP       Railroad Commissioner MONTAGUE COUNTYWIDE               Christi Craddick                      PCT 5                                                  01 
01030040005000054REP       Railroad Commissioner MONTAGUE COUNTYWIDE               Christi Craddick                      PCT 6                                                  01 
01030040006000070REP       Railroad Commissioner MONTAGUE COUNTYWIDE               Christi Craddick                      PCT 7                                                  01 
01030040007000047REP       Railroad Commissioner MONTAGUE COUNTYWIDE               Christi Craddick                      PCT 8                                                  01 
01030040008000067REP       Railroad Commissioner MONTAGUE COUNTYWIDE               Christi Craddick                      PCT 9                                                  01 
01030040009000077REP       Railroad Commissioner MONTAGUE COUNTYWIDE               Christi Craddick                      PCT 10                                                 01 
01030040010000059REP       Railroad Commissioner MONTAGUE COUNTYWIDE               Christi Craddick                      PCT 11                                                 01 
01030040011000001REP       Railroad Commissioner MONTAGUE COUNTYWIDE               Christi Craddick                      PCT 12                                                 01 
01030040012000054REP       Railroad Commissioner MONTAGUE COUNTYWIDE               Christi Craddick                      PCT 13                                                 01 
01030040013000009REP       Railroad Commissioner MONTAGUE COUNTYWIDE               Christi Craddick                      PCT 14                                                 01 
01030040014000032REP       Railroad Commissioner MONTAGUE COUNTYWIDE               Christi Craddick                      PCT 15                                                 01 
01030040015000016REP       Railroad Commissioner MONTAGUE COUNTYWIDE               Christi Craddick                      PCT 16                                                 01 
01030050001000057REP       Railroad Commissioner MONTAGUE COUNTYWIDE               Becky Berger                          PCT 2                                                  01 
01030050002000045REP       Railroad Commissioner MONTAGUE COUNTYWIDE               Becky Berger                          PCT 3                                                  01 
01030050003000013REP       Railroad Commissioner MONTAGUE COUNTYWIDE               Becky Berger                          PCT 4                                                  01 
01030050004000026REP       Railroad Commissioner MONTAGUE COUNTYWIDE               Becky Berger                          PCT 5                                                  01 
01030050005000028REP       Railroad Commissioner MONTAGUE COUNTYWIDE               Becky Berger                          PCT 6                                                  01 
01030050006000043REP       Railroad Commissioner MONTAGUE COUNTYWIDE               Becky Berger                          PCT 7                                                  01 
01030050007000016REP       Railroad Commissioner MONTAGUE COUNTYWIDE               Becky Berger                          PCT 8                                                  01 
01030050008000030REP       Railroad Commissioner MONTAGUE COUNTYWIDE               Becky Berger                          PCT 9                                                  01 
01030050009000028REP       Railroad Commissioner MONTAGUE COUNTYWIDE               Becky Berger                          PCT 10                                                 01 
01030050010000040REP       Railroad Commissioner MONTAGUE COUNTYWIDE               Becky Berger                          PCT 11                                                 01 
01030050011000005REP       Railroad Commissioner MONTAGUE COUNTYWIDE               Becky Berger                          PCT 12                                                 01 
01030050012000031REP       Railroad Commissioner MONTAGUE COUNTYWIDE               Becky Berger                          PCT 13                                                 01 
01030050013000004REP       Railroad Commissioner MONTAGUE COUNTYWIDE               Becky Berger                          PCT 14                                                 01 
01030050014000015REP       Railroad Commissioner MONTAGUE COUNTYWIDE               Becky Berger                          PCT 15                                                 01 
01030050015000005REP       Railroad Commissioner MONTAGUE COUNTYWIDE               Becky Berger                          PCT 16                                                 01 
01030060001000021REP       Railroad Commissioner MONTAGUE COUNTYWIDE               Beryl Burgess                         PCT 2                                                  01 
01030060002000013REP       Railroad Commissioner MONTAGUE COUNTYWIDE               Beryl Burgess                         PCT 3                                                  01 
01030060003000001REP       Railroad Commissioner MONTAGUE COUNTYWIDE               Beryl Burgess                         PCT 4                                                  01 
01030060004000010REP       Railroad Commissioner MONTAGUE COUNTYWIDE               Beryl Burgess                         PCT 5                                                  01 
01030060005000007REP       Railroad Commissioner MONTAGUE COUNTYWIDE               Beryl Burgess                         PCT 6                                                  01 
01030060006000015REP       Railroad Commissioner MONTAGUE COUNTYWIDE               Beryl Burgess                         PCT 7                                                  01 
01030060007000005REP       Railroad Commissioner MONTAGUE COUNTYWIDE               Beryl Burgess                         PCT 8                                                  01 
01030060008000006REP       Railroad Commissioner MONTAGUE COUNTYWIDE               Beryl Burgess                         PCT 9                                                  01 
01030060009000006REP       Railroad Commissioner MONTAGUE COUNTYWIDE               Beryl Burgess                         PCT 10                                                 01 
01030060010000013REP       Railroad Commissioner MONTAGUE COUNTYWIDE               Beryl Burgess                         PCT 11                                                 01 
01030060011000001REP       Railroad Commissioner MONTAGUE COUNTYWIDE               Beryl Burgess                         PCT 12                                                 01 
01030060012000009REP       Railroad Commissioner MONTAGUE COUNTYWIDE               Beryl Burgess                         PCT 13                                                 01 
01030060013000000REP       Railroad Commissioner MONTAGUE COUNTYWIDE               Beryl Burgess                         PCT 14                                                 01 
01030060014000008REP       Railroad Commissioner MONTAGUE COUNTYWIDE               Beryl Burgess                         PCT 15                                                 01 
01030060015000002REP       Railroad Commissioner MONTAGUE COUNTYWIDE               Beryl Burgess                         PCT 16                                                 01 
01030070001000000REP       Railroad Commissioner MONTAGUE COUNTYWIDE               OVER VOTES                            PCT 2                                                  01 
01030070002000000REP       Railroad Commissioner MONTAGUE COUNTYWIDE               OVER VOTES                            PCT 3                                                  01 
01030070003000000REP       Railroad Commissioner MONTAGUE COUNTYWIDE               OVER VOTES                            PCT 4                                                  01 
01030070004000000REP       Railroad Commissioner MONTAGUE COUNTYWIDE               OVER VOTES                            PCT 5                                                  01 
01030070005000000REP       Railroad Commissioner MONTAGUE COUNTYWIDE               OVER VOTES                            PCT 6                                                  01 
01030070006000000REP       Railroad Commissioner MONTAGUE COUNTYWIDE               OVER VOTES                            PCT 7                                                  01 
01030070007000000REP       Railroad Commissioner MONTAGUE COUNTYWIDE               OVER VOTES                            PCT 8                                                  01 
01030070008000000REP       Railroad Commissioner MONTAGUE COUNTYWIDE               OVER VOTES                            PCT 9                                                  01 
01030070009000000REP       Railroad Commissioner MONTAGUE COUNTYWIDE               OVER VOTES                            PCT 10                                                 01 
01030070010000000REP       Railroad Commissioner MONTAGUE COUNTYWIDE               OVER VOTES                            PCT 11                                                 01 
01030070011000000REP       Railroad Commissioner MONTAGUE COUNTYWIDE               OVER VOTES                            PCT 12                                                 01 
01030070012000000REP       Railroad Commissioner MONTAGUE COUNTYWIDE               OVER VOTES                            PCT 13                                                 01 
01030070013000000REP       Railroad Commissioner MONTAGUE COUNTYWIDE               OVER VOTES                            PCT 14                                                 01 
01030070014000000REP       Railroad Commissioner MONTAGUE COUNTYWIDE               OVER VOTES                            PCT 15                                                 01 
01030070015000000REP       Railroad Commissioner MONTAGUE COUNTYWIDE               OVER VOTES                            PCT 16                                                 01 
01030080001000150REP       Railroad Commissioner MONTAGUE COUNTYWIDE               UNDER VOTES                           PCT 2                                                  01 
01030080002000092REP       Railroad Commissioner MONTAGUE COUNTYWIDE               UNDER VOTES                           PCT 3                                                  01 
01030080003000030REP       Railroad Commissioner MONTAGUE COUNTYWIDE               UNDER VOTES                           PCT 4                                                  01 
01030080004000072REP       Railroad Commissioner MONTAGUE COUNTYWIDE               UNDER VOTES                           PCT 5                                                  01 
01030080005000084REP       Railroad Commissioner MONTAGUE COUNTYWIDE               UNDER VOTES                           PCT 6                                                  01 
01030080006000107REP       Railroad Commissioner MONTAGUE COUNTYWIDE               UNDER VOTES                           PCT 7                                                  01 
01030080007000041REP       Railroad Commissioner MONTAGUE COUNTYWIDE               UNDER VOTES                           PCT 8                                                  01 
01030080008000084REP       Railroad Commissioner MONTAGUE COUNTYWIDE               UNDER VOTES                           PCT 9                                                  01 
01030080009000127REP       Railroad Commissioner MONTAGUE COUNTYWIDE               UNDER VOTES                           PCT 10                                                 01 
01030080010000152REP       Railroad Commissioner MONTAGUE COUNTYWIDE               UNDER VOTES                           PCT 11                                                 01 
01030080011000022REP       Railroad Commissioner MONTAGUE COUNTYWIDE               UNDER VOTES                           PCT 12                                                 01 
01030080012000074REP       Railroad Commissioner MONTAGUE COUNTYWIDE               UNDER VOTES                           PCT 13                                                 01 
01030080013000015REP       Railroad Commissioner MONTAGUE COUNTYWIDE               UNDER VOTES                           PCT 14                                                 01 
01030080014000043REP       Railroad Commissioner MONTAGUE COUNTYWIDE               UNDER VOTES                           PCT 15                                                 01 
01030080015000029REP       Railroad Commissioner MONTAGUE COUNTYWIDE               UNDER VOTES                           PCT 16                                                 01 
01040010001000187REP       Railroad Commissioner, UNEXP MONTAGUE COUNTYWIDE        Greg Parker                           PCT 2                                                  01 
01040010002000107REP       Railroad Commissioner, UNEXP MONTAGUE COUNTYWIDE        Greg Parker                           PCT 3                                                  01 
01040010003000047REP       Railroad Commissioner, UNEXP MONTAGUE COUNTYWIDE        Greg Parker                           PCT 4                                                  01 
01040010004000090REP       Railroad Commissioner, UNEXP MONTAGUE COUNTYWIDE        Greg Parker                           PCT 5                                                  01 
01040010005000093REP       Railroad Commissioner, UNEXP MONTAGUE COUNTYWIDE        Greg Parker                           PCT 6                                                  01 
01040010006000089REP       Railroad Commissioner, UNEXP MONTAGUE COUNTYWIDE        Greg Parker                           PCT 7                                                  01 
01040010007000045REP       Railroad Commissioner, UNEXP MONTAGUE COUNTYWIDE        Greg Parker                           PCT 8                                                  01 
01040010008000121REP       Railroad Commissioner, UNEXP MONTAGUE COUNTYWIDE        Greg Parker                           PCT 9                                                  01 
01040010009000127REP       Railroad Commissioner, UNEXP MONTAGUE COUNTYWIDE        Greg Parker                           PCT 10                                                 01 
01040010010000143REP       Railroad Commissioner, UNEXP MONTAGUE COUNTYWIDE        Greg Parker                           PCT 11                                                 01 
01040010011000017REP       Railroad Commissioner, UNEXP MONTAGUE COUNTYWIDE        Greg Parker                           PCT 12                                                 01 
01040010012000113REP       Railroad Commissioner, UNEXP MONTAGUE COUNTYWIDE        Greg Parker                           PCT 13                                                 01 
01040010013000020REP       Railroad Commissioner, UNEXP MONTAGUE COUNTYWIDE        Greg Parker                           PCT 14                                                 01 
01040010014000054REP       Railroad Commissioner, UNEXP MONTAGUE COUNTYWIDE        Greg Parker                           PCT 15                                                 01 
01040010015000038REP       Railroad Commissioner, UNEXP MONTAGUE COUNTYWIDE        Greg Parker                           PCT 16                                                 01 
01040020001000086REP       Railroad Commissioner, UNEXP MONTAGUE COUNTYWIDE        Elizabeth Murray-Kolb                 PCT 2                                                  01 
01040020002000047REP       Railroad Commissioner, UNEXP MONTAGUE COUNTYWIDE        Elizabeth Murray-Kolb                 PCT 3                                                  01 
01040020003000014REP       Railroad Commissioner, UNEXP MONTAGUE COUNTYWIDE        Elizabeth Murray-Kolb                 PCT 4                                                  01 
01040020004000041REP       Railroad Commissioner, UNEXP MONTAGUE COUNTYWIDE        Elizabeth Murray-Kolb                 PCT 5                                                  01 
01040020005000042REP       Railroad Commissioner, UNEXP MONTAGUE COUNTYWIDE        Elizabeth Murray-Kolb                 PCT 6                                                  01 
01040020006000057REP       Railroad Commissioner, UNEXP MONTAGUE COUNTYWIDE        Elizabeth Murray-Kolb                 PCT 7                                                  01 
01040020007000017REP       Railroad Commissioner, UNEXP MONTAGUE COUNTYWIDE        Elizabeth Murray-Kolb                 PCT 8                                                  01 
01040020008000047REP       Railroad Commissioner, UNEXP MONTAGUE COUNTYWIDE        Elizabeth Murray-Kolb                 PCT 9                                                  01 
01040020009000035REP       Railroad Commissioner, UNEXP MONTAGUE COUNTYWIDE        Elizabeth Murray-Kolb                 PCT 10                                                 01 
01040020010000035REP       Railroad Commissioner, UNEXP MONTAGUE COUNTYWIDE        Elizabeth Murray-Kolb                 PCT 11                                                 01 
01040020011000003REP       Railroad Commissioner, UNEXP MONTAGUE COUNTYWIDE        Elizabeth Murray-Kolb                 PCT 12                                                 01 
01040020012000030REP       Railroad Commissioner, UNEXP MONTAGUE COUNTYWIDE        Elizabeth Murray-Kolb                 PCT 13                                                 01 
01040020013000006REP       Railroad Commissioner, UNEXP MONTAGUE COUNTYWIDE        Elizabeth Murray-Kolb                 PCT 14                                                 01 
01040020014000025REP       Railroad Commissioner, UNEXP MONTAGUE COUNTYWIDE        Elizabeth Murray-Kolb                 PCT 15                                                 01 
01040020015000009REP       Railroad Commissioner, UNEXP MONTAGUE COUNTYWIDE        Elizabeth Murray-Kolb                 PCT 16                                                 01 
01040030001000044REP       Railroad Commissioner, UNEXP MONTAGUE COUNTYWIDE        Al Lee                                PCT 2                                                  01 
01040030002000036REP       Railroad Commissioner, UNEXP MONTAGUE COUNTYWIDE        Al Lee                                PCT 3                                                  01 
01040030003000008REP       Railroad Commissioner, UNEXP MONTAGUE COUNTYWIDE        Al Lee                                PCT 4                                                  01 
01040030004000014REP       Railroad Commissioner, UNEXP MONTAGUE COUNTYWIDE        Al Lee                                PCT 5                                                  01 
01040030005000022REP       Railroad Commissioner, UNEXP MONTAGUE COUNTYWIDE        Al Lee                                PCT 6                                                  01 
01040030006000032REP       Railroad Commissioner, UNEXP MONTAGUE COUNTYWIDE        Al Lee                                PCT 7                                                  01 
01040030007000007REP       Railroad Commissioner, UNEXP MONTAGUE COUNTYWIDE        Al Lee                                PCT 8                                                  01 
01040030008000013REP       Railroad Commissioner, UNEXP MONTAGUE COUNTYWIDE        Al Lee                                PCT 9                                                  01 
01040030009000019REP       Railroad Commissioner, UNEXP MONTAGUE COUNTYWIDE        Al Lee                                PCT 10                                                 01 
01040030010000022REP       Railroad Commissioner, UNEXP MONTAGUE COUNTYWIDE        Al Lee                                PCT 11                                                 01 
01040030011000001REP       Railroad Commissioner, UNEXP MONTAGUE COUNTYWIDE        Al Lee                                PCT 12                                                 01 
01040030012000009REP       Railroad Commissioner, UNEXP MONTAGUE COUNTYWIDE        Al Lee                                PCT 13                                                 01 
