01010010001001028          REGISTERED VOTERS - TOTAL                               REGISTERED VOTERS - TOTAL             PRECINCTS 1 & 10                                       00 
01010010002001004          REGISTERED VOTERS - TOTAL                               REGISTERED VOTERS - TOTAL             PRECINCT 2                                             00 
01010010003001623          REGISTERED VOTERS - TOTAL                               REGISTERED VOTERS - TOTAL             PRECINCTS 3 & 11                                       00 
01010010004001737          REGISTERED VOTERS - TOTAL                               REGISTERED VOTERS - TOTAL             PRECINCTS 4 & 12                                       00 
01010010005000175          REGISTERED VOTERS - TOTAL                               REGISTERED VOTERS - TOTAL             PRECINCT 5                                             00 
01010010006001044          REGISTERED VOTERS - TOTAL                               REGISTERED VOTERS - TOTAL             PRECINCTS 6 & 13                                       00 
01010010007000259          REGISTERED VOTERS - TOTAL                               REGISTERED VOTERS - TOTAL             PRECINCT 7                                             00 
01010010008000132          REGISTERED VOTERS - TOTAL                               REGISTERED VOTERS - TOTAL             PRECINCT 8                                             00 
01010010009001378          REGISTERED VOTERS - TOTAL                               REGISTERED VOTERS - TOTAL             PRECINCTS 9 & 14                                       00 
01020010001000000REP       REGISTERED VOTERS - REPUBLICAN PARTY                    REGISTERED VOTERS - REPUBLICAN PARTY  PRECINCTS 1 & 10                                       00 
01020010002000000REP       REGISTERED VOTERS - REPUBLICAN PARTY                    REGISTERED VOTERS - REPUBLICAN PARTY  PRECINCT 2                                             00 
01020010003000000REP       REGISTERED VOTERS - REPUBLICAN PARTY                    REGISTERED VOTERS - REPUBLICAN PARTY  PRECINCTS 3 & 11                                       00 
01020010004000000REP       REGISTERED VOTERS - REPUBLICAN PARTY                    REGISTERED VOTERS - REPUBLICAN PARTY  PRECINCTS 4 & 12                                       00 
01020010005000000REP       REGISTERED VOTERS - REPUBLICAN PARTY                    REGISTERED VOTERS - REPUBLICAN PARTY  PRECINCT 5                                             00 
01020010006000000REP       REGISTERED VOTERS - REPUBLICAN PARTY                    REGISTERED VOTERS - REPUBLICAN PARTY  PRECINCTS 6 & 13                                       00 
01020010007000000REP       REGISTERED VOTERS - REPUBLICAN PARTY                    REGISTERED VOTERS - REPUBLICAN PARTY  PRECINCT 7                                             00 
01020010008000000REP       REGISTERED VOTERS - REPUBLICAN PARTY                    REGISTERED VOTERS - REPUBLICAN PARTY  PRECINCT 8                                             00 
01020010009000000REP       REGISTERED VOTERS - REPUBLICAN PARTY                    REGISTERED VOTERS - REPUBLICAN PARTY  PRECINCTS 9 & 14                                       00 
01030010001000000DEM       REGISTERED VOTERS - DEMOCRATIC PARTY                    REGISTERED VOTERS - DEMOCRATIC PARTY  PRECINCTS 1 & 10                                       00 
01030010002000000DEM       REGISTERED VOTERS - DEMOCRATIC PARTY                    REGISTERED VOTERS - DEMOCRATIC PARTY  PRECINCT 2                                             00 
01030010003000000DEM       REGISTERED VOTERS - DEMOCRATIC PARTY                    REGISTERED VOTERS - DEMOCRATIC PARTY  PRECINCTS 3 & 11                                       00 
01030010004000000DEM       REGISTERED VOTERS - DEMOCRATIC PARTY                    REGISTERED VOTERS - DEMOCRATIC PARTY  PRECINCTS 4 & 12                                       00 
01030010005000000DEM       REGISTERED VOTERS - DEMOCRATIC PARTY                    REGISTERED VOTERS - DEMOCRATIC PARTY  PRECINCT 5                                             00 
01030010006000000DEM       REGISTERED VOTERS - DEMOCRATIC PARTY                    REGISTERED VOTERS - DEMOCRATIC PARTY  PRECINCTS 6 & 13                                       00 
01030010007000000DEM       REGISTERED VOTERS - DEMOCRATIC PARTY                    REGISTERED VOTERS - DEMOCRATIC PARTY  PRECINCT 7                                             00 
01030010008000000DEM       REGISTERED VOTERS - DEMOCRATIC PARTY                    REGISTERED VOTERS - DEMOCRATIC PARTY  PRECINCT 8                                             00 
01030010009000000DEM       REGISTERED VOTERS - DEMOCRATIC PARTY                    REGISTERED VOTERS - DEMOCRATIC PARTY  PRECINCTS 9 & 14                                       00 
01040010001000114          BALLOTS CAST - TOTAL                                    BALLOTS CAST - TOTAL                  PRECINCTS 1 & 10                                       00 
01040010002000166          BALLOTS CAST - TOTAL                                    BALLOTS CAST - TOTAL                  PRECINCT 2                                             00 
01040010003000161          BALLOTS CAST - TOTAL                                    BALLOTS CAST - TOTAL                  PRECINCTS 3 & 11                                       00 
01040010004000091          BALLOTS CAST - TOTAL                                    BALLOTS CAST - TOTAL                  PRECINCTS 4 & 12                                       00 
01040010005000037          BALLOTS CAST - TOTAL                                    BALLOTS CAST - TOTAL                  PRECINCT 5                                             00 
01040010006000155          BALLOTS CAST - TOTAL                                    BALLOTS CAST - TOTAL                  PRECINCTS 6 & 13                                       00 
01040010007000063          BALLOTS CAST - TOTAL                                    BALLOTS CAST - TOTAL                  PRECINCT 7                                             00 
01040010008000043          BALLOTS CAST - TOTAL                                    BALLOTS CAST - TOTAL                  PRECINCT 8                                             00 
01040010009000182          BALLOTS CAST - TOTAL                                    BALLOTS CAST - TOTAL                  PRECINCTS 9 & 14                                       00 
01050010001000093REP       BALLOTS CAST - REPUBLICAN PARTY                         BALLOTS CAST - REPUBLICAN PARTY       PRECINCTS 1 & 10                                       00 
01050010002000142REP       BALLOTS CAST - REPUBLICAN PARTY                         BALLOTS CAST - REPUBLICAN PARTY       PRECINCT 2                                             00 
01050010003000127REP       BALLOTS CAST - REPUBLICAN PARTY                         BALLOTS CAST - REPUBLICAN PARTY       PRECINCTS 3 & 11                                       00 
01050010004000068REP       BALLOTS CAST - REPUBLICAN PARTY                         BALLOTS CAST - REPUBLICAN PARTY       PRECINCTS 4 & 12                                       00 
01050010005000024REP       BALLOTS CAST - REPUBLICAN PARTY                         BALLOTS CAST - REPUBLICAN PARTY       PRECINCT 5                                             00 
01050010006000088REP       BALLOTS CAST - REPUBLICAN PARTY                         BALLOTS CAST - REPUBLICAN PARTY       PRECINCTS 6 & 13                                       00 
01050010007000039REP       BALLOTS CAST - REPUBLICAN PARTY                         BALLOTS CAST - REPUBLICAN PARTY       PRECINCT 7                                             00 
01050010008000035REP       BALLOTS CAST - REPUBLICAN PARTY                         BALLOTS CAST - REPUBLICAN PARTY       PRECINCT 8                                             00 
01050010009000134REP       BALLOTS CAST - REPUBLICAN PARTY                         BALLOTS CAST - REPUBLICAN PARTY       PRECINCTS 9 & 14                                       00 
01060010001000021DEM       BALLOTS CAST - DEMOCRATIC PARTY                         BALLOTS CAST - DEMOCRATIC PARTY       PRECINCTS 1 & 10                                       00 
01060010002000024DEM       BALLOTS CAST - DEMOCRATIC PARTY                         BALLOTS CAST - DEMOCRATIC PARTY       PRECINCT 2                                             00 
01060010003000034DEM       BALLOTS CAST - DEMOCRATIC PARTY                         BALLOTS CAST - DEMOCRATIC PARTY       PRECINCTS 3 & 11                                       00 
01060010004000023DEM       BALLOTS CAST - DEMOCRATIC PARTY                         BALLOTS CAST - DEMOCRATIC PARTY       PRECINCTS 4 & 12                                       00 
01060010005000013DEM       BALLOTS CAST - DEMOCRATIC PARTY                         BALLOTS CAST - DEMOCRATIC PARTY       PRECINCT 5                                             00 
01060010006000067DEM       BALLOTS CAST - DEMOCRATIC PARTY                         BALLOTS CAST - DEMOCRATIC PARTY       PRECINCTS 6 & 13                                       00 
01060010007000024DEM       BALLOTS CAST - DEMOCRATIC PARTY                         BALLOTS CAST - DEMOCRATIC PARTY       PRECINCT 7                                             00 
01060010008000008DEM       BALLOTS CAST - DEMOCRATIC PARTY                         BALLOTS CAST - DEMOCRATIC PARTY       PRECINCT 8                                             00 
01060010009000048DEM       BALLOTS CAST - DEMOCRATIC PARTY                         BALLOTS CAST - DEMOCRATIC PARTY       PRECINCTS 9 & 14                                       00 
01070010001000000REP       President                                               John Davis                            PRECINCTS 1 & 10                                       01 
01070010002000000REP       President                                               John Davis                            PRECINCT 2                                             01 
01070010003000000REP       President                                               John Davis                            PRECINCTS 3 & 11                                       01 
01070010004000001REP       President                                               John Davis                            PRECINCTS 4 & 12                                       01 
01070010005000000REP       President                                               John Davis                            PRECINCT 5                                             01 
01070010006000000REP       President                                               John Davis                            PRECINCTS 6 & 13                                       01 
01070010007000000REP       President                                               John Davis                            PRECINCT 7                                             01 
01070010008000000REP       President                                               John Davis                            PRECINCT 8                                             01 
01070010009000001REP       President                                               John Davis                            PRECINCTS 9 & 14                                       01 
01070020001000001REP       President                                               Michele Bachmann                      PRECINCTS 1 & 10                                       01 
01070020002000000REP       President                                               Michele Bachmann                      PRECINCT 2                                             01 
01070020003000001REP       President                                               Michele Bachmann                      PRECINCTS 3 & 11                                       01 
01070020004000000REP       President                                               Michele Bachmann                      PRECINCTS 4 & 12                                       01 
01070020005000000REP       President                                               Michele Bachmann                      PRECINCT 5                                             01 
01070020006000001REP       President                                               Michele Bachmann                      PRECINCTS 6 & 13                                       01 
01070020007000000REP       President                                               Michele Bachmann                      PRECINCT 7                                             01 
01070020008000001REP       President                                               Michele Bachmann                      PRECINCT 8                                             01 
01070020009000000REP       President                                               Michele Bachmann                      PRECINCTS 9 & 14                                       01 
01070030001000010REP       President                                               Ron Paul                              PRECINCTS 1 & 10                                       01 
01070030002000012REP       President                                               Ron Paul                              PRECINCT 2                                             01 
01070030003000005REP       President                                               Ron Paul                              PRECINCTS 3 & 11                                       01 
01070030004000008REP       President                                               Ron Paul                              PRECINCTS 4 & 12                                       01 
01070030005000000REP       President                                               Ron Paul                              PRECINCT 5                                             01 
01070030006000009REP       President                                               Ron Paul                              PRECINCTS 6 & 13                                       01 
01070030007000003REP       President                                               Ron Paul                              PRECINCT 7                                             01 
01070030008000006REP       President                                               Ron Paul                              PRECINCT 8                                             01 
01070030009000009REP       President                                               Ron Paul                              PRECINCTS 9 & 14                                       01 
01070040001000000REP       President                                               Charles "Buddy" Roemer                PRECINCTS 1 & 10                                       01 
01070040002000000REP       President                                               Charles "Buddy" Roemer                PRECINCT 2                                             01 
01070040003000000REP       President                                               Charles "Buddy" Roemer                PRECINCTS 3 & 11                                       01 
01070040004000000REP       President                                               Charles "Buddy" Roemer                PRECINCTS 4 & 12                                       01 
01070040005000000REP       President                                               Charles "Buddy" Roemer                PRECINCT 5                                             01 
01070040006000001REP       President                                               Charles "Buddy" Roemer                PRECINCTS 6 & 13                                       01 
01070040007000000REP       President                                               Charles "Buddy" Roemer                PRECINCT 7                                             01 
01070040008000000REP       President                                               Charles "Buddy" Roemer                PRECINCT 8                                             01 
01070040009000000REP       President                                               Charles "Buddy" Roemer                PRECINCTS 9 & 14                                       01 
01070050001000007REP       President                                               Newt Gingrich                         PRECINCTS 1 & 10                                       01 
01070050002000009REP       President                                               Newt Gingrich                         PRECINCT 2                                             01 
01070050003000007REP       President                                               Newt Gingrich                         PRECINCTS 3 & 11                                       01 
01070050004000004REP       President                                               Newt Gingrich                         PRECINCTS 4 & 12                                       01 
01070050005000000REP       President                                               Newt Gingrich                         PRECINCT 5                                             01 
01070050006000006REP       President                                               Newt Gingrich                         PRECINCTS 6 & 13                                       01 
01070050007000001REP       President                                               Newt Gingrich                         PRECINCT 7                                             01 
01070050008000001REP       President                                               Newt Gingrich                         PRECINCT 8                                             01 
01070050009000010REP       President                                               Newt Gingrich                         PRECINCTS 9 & 14                                       01 
01070060001000065REP       President                                               Mitt Romney                           PRECINCTS 1 & 10                                       01 
01070060002000106REP       President                                               Mitt Romney                           PRECINCT 2                                             01 
01070060003000096REP       President                                               Mitt Romney                           PRECINCTS 3 & 11                                       01 
01070060004000053REP       President                                               Mitt Romney                           PRECINCTS 4 & 12                                       01 
01070060005000021REP       President                                               Mitt Romney                           PRECINCT 5                                             01 
01070060006000055REP       President                                               Mitt Romney                           PRECINCTS 6 & 13                                       01 
01070060007000031REP       President                                               Mitt Romney                           PRECINCT 7                                             01 
01070060008000021REP       President                                               Mitt Romney                           PRECINCT 8                                             01 
01070060009000104REP       President                                               Mitt Romney                           PRECINCTS 9 & 14                                       01 
01070070001000000REP       President                                               Jon Huntsman                          PRECINCTS 1 & 10                                       01 
01070070002000000REP       President                                               Jon Huntsman                          PRECINCT 2                                             01 
01070070003000000REP       President                                               Jon Huntsman                          PRECINCTS 3 & 11                                       01 
01070070004000001REP       President                                               Jon Huntsman                          PRECINCTS 4 & 12                                       01 
01070070005000001REP       President                                               Jon Huntsman                          PRECINCT 5                                             01 
01070070006000000REP       President                                               Jon Huntsman                          PRECINCTS 6 & 13                                       01 
01070070007000000REP       President                                               Jon Huntsman                          PRECINCT 7                                             01 
01070070008000000REP       President                                               Jon Huntsman                          PRECINCT 8                                             01 
01070070009000000REP       President                                               Jon Huntsman                          PRECINCTS 9 & 14                                       01 
01070080001000005REP       President                                               Rick Santorum                         PRECINCTS 1 & 10                                       01 
01070080002000010REP       President                                               Rick Santorum                         PRECINCT 2                                             01 
01070080003000010REP       President                                               Rick Santorum                         PRECINCTS 3 & 11                                       01 
01070080004000001REP       President                                               Rick Santorum                         PRECINCTS 4 & 12                                       01 
01070080005000001REP       President                                               Rick Santorum                         PRECINCT 5                                             01 
01070080006000009REP       President                                               Rick Santorum                         PRECINCTS 6 & 13                                       01 
01070080007000003REP       President                                               Rick Santorum                         PRECINCT 7                                             01 
01070080008000003REP       President                                               Rick Santorum                         PRECINCT 8                                             01 
01070080009000004REP       President                                               Rick Santorum                         PRECINCTS 9 & 14                                       01 
01070090001000003REP       President                                               Uncommitted                           PRECINCTS 1 & 10                                       01 
01070090002000002REP       President                                               Uncommitted                           PRECINCT 2                                             01 
01070090003000004REP       President                                               Uncommitted                           PRECINCTS 3 & 11                                       01 
01070090004000000REP       President                                               Uncommitted                           PRECINCTS 4 & 12                                       01 
01070090005000001REP       President                                               Uncommitted                           PRECINCT 5                                             01 
01070090006000003REP       President                                               Uncommitted                           PRECINCTS 6 & 13                                       01 
01070090007000001REP       President                                               Uncommitted                           PRECINCT 7                                             01 
01070090008000000REP       President                                               Uncommitted                           PRECINCT 8                                             01 
01070090009000005REP       President                                               Uncommitted                           PRECINCTS 9 & 14                                       01 
01070100001000000REP       President                                               OVER VOTES                            PRECINCTS 1 & 10                                       01 
01070100002000000REP       President                                               OVER VOTES                            PRECINCT 2                                             01 
01070100003000000REP       President                                               OVER VOTES                            PRECINCTS 3 & 11                                       01 
01070100004000000REP       President                                               OVER VOTES                            PRECINCTS 4 & 12                                       01 
01070100005000000REP       President                                               OVER VOTES                            PRECINCT 5                                             01 
01070100006000000REP       President                                               OVER VOTES                            PRECINCTS 6 & 13                                       01 
01070100007000000REP       President                                               OVER VOTES                            PRECINCT 7                                             01 
01070100008000000REP       President                                               OVER VOTES                            PRECINCT 8                                             01 
01070100009000000REP       President                                               OVER VOTES                            PRECINCTS 9 & 14                                       01 
01070110001000002REP       President                                               UNDER VOTES                           PRECINCTS 1 & 10                                       01 
01070110002000003REP       President                                               UNDER VOTES                           PRECINCT 2                                             01 
01070110003000004REP       President                                               UNDER VOTES                           PRECINCTS 3 & 11                                       01 
01070110004000000REP       President                                               UNDER VOTES                           PRECINCTS 4 & 12                                       01 
01070110005000000REP       President                                               UNDER VOTES                           PRECINCT 5                                             01 
01070110006000004REP       President                                               UNDER VOTES                           PRECINCTS 6 & 13                                       01 
01070110007000000REP       President                                               UNDER VOTES                           PRECINCT 7                                             01 
01070110008000003REP       President                                               UNDER VOTES                           PRECINCT 8                                             01 
01070110009000001REP       President                                               UNDER VOTES                           PRECINCTS 9 & 14                                       01 
01080010001000000REP       United States Senator                                   Ben Gambini                           PRECINCTS 1 & 10                                       01 
01080010002000000REP       United States Senator                                   Ben Gambini                           PRECINCT 2                                             01 
01080010003000000REP       United States Senator                                   Ben Gambini                           PRECINCTS 3 & 11                                       01 
01080010004000001REP       United States Senator                                   Ben Gambini                           PRECINCTS 4 & 12                                       01 
01080010005000000REP       United States Senator                                   Ben Gambini                           PRECINCT 5                                             01 
01080010006000000REP       United States Senator                                   Ben Gambini                           PRECINCTS 6 & 13                                       01 
01080010007000000REP       United States Senator                                   Ben Gambini                           PRECINCT 7                                             01 
01080010008000000REP       United States Senator                                   Ben Gambini                           PRECINCT 8                                             01 
01080010009000001REP       United States Senator                                   Ben Gambini                           PRECINCTS 9 & 14                                       01 
01080020001000000REP       United States Senator                                   Joe Agris                             PRECINCTS 1 & 10                                       01 
01080020002000000REP       United States Senator                                   Joe Agris                             PRECINCT 2                                             01 
01080020003000001REP       United States Senator                                   Joe Agris                             PRECINCTS 3 & 11                                       01 
01080020004000000REP       United States Senator                                   Joe Agris                             PRECINCTS 4 & 12                                       01 
01080020005000000REP       United States Senator                                   Joe Agris                             PRECINCT 5                                             01 
01080020006000002REP       United States Senator                                   Joe Agris                             PRECINCTS 6 & 13                                       01 
01080020007000000REP       United States Senator                                   Joe Agris                             PRECINCT 7                                             01 
01080020008000000REP       United States Senator                                   Joe Agris                             PRECINCT 8                                             01 
01080020009000001REP       United States Senator                                   Joe Agris                             PRECINCTS 9 & 14                                       01 
01080030001000026REP       United States Senator                                   Ted Cruz                              PRECINCTS 1 & 10                                       01 
01080030002000066REP       United States Senator                                   Ted Cruz                              PRECINCT 2                                             01 
01080030003000055REP       United States Senator                                   Ted Cruz                              PRECINCTS 3 & 11                                       01 
01080030004000020REP       United States Senator                                   Ted Cruz                              PRECINCTS 4 & 12                                       01 
01080030005000008REP       United States Senator                                   Ted Cruz                              PRECINCT 5                                             01 
01080030006000031REP       United States Senator                                   Ted Cruz                              PRECINCTS 6 & 13                                       01 
01080030007000018REP       United States Senator                                   Ted Cruz                              PRECINCT 7                                             01 
01080030008000016REP       United States Senator                                   Ted Cruz                              PRECINCT 8                                             01 
01080030009000041REP       United States Senator                                   Ted Cruz                              PRECINCTS 9 & 14                                       01 
01080040001000049REP       United States Senator                                   David Dewhurst                        PRECINCTS 1 & 10                                       01 
01080040002000063REP       United States Senator                                   David Dewhurst                        PRECINCT 2                                             01 
01080040003000063REP       United States Senator                                   David Dewhurst                        PRECINCTS 3 & 11                                       01 
01080040004000036REP       United States Senator                                   David Dewhurst                        PRECINCTS 4 & 12                                       01 
01080040005000013REP       United States Senator                                   David Dewhurst                        PRECINCT 5                                             01 
01080040006000042REP       United States Senator                                   David Dewhurst                        PRECINCTS 6 & 13                                       01 
01080040007000014REP       United States Senator                                   David Dewhurst                        PRECINCT 7                                             01 
01080040008000011REP       United States Senator                                   David Dewhurst                        PRECINCT 8                                             01 
01080040009000077REP       United States Senator                                   David Dewhurst                        PRECINCTS 9 & 14                                       01 
01080050001000005REP       United States Senator                                   Tom Leppert                           PRECINCTS 1 & 10                                       01 
01080050002000004REP       United States Senator                                   Tom Leppert                           PRECINCT 2                                             01 
01080050003000000REP       United States Senator                                   Tom Leppert                           PRECINCTS 3 & 11                                       01 
01080050004000000REP       United States Senator                                   Tom Leppert                           PRECINCTS 4 & 12                                       01 
01080050005000001REP       United States Senator                                   Tom Leppert                           PRECINCT 5                                             01 
01080050006000001REP       United States Senator                                   Tom Leppert                           PRECINCTS 6 & 13                                       01 
01080050007000001REP       United States Senator                                   Tom Leppert                           PRECINCT 7                                             01 
01080050008000001REP       United States Senator                                   Tom Leppert                           PRECINCT 8                                             01 
01080050009000004REP       United States Senator                                   Tom Leppert                           PRECINCTS 9 & 14                                       01 
01080060001000002REP       United States Senator                                   Curt Cleaver                          PRECINCTS 1 & 10                                       01 
01080060002000000REP       United States Senator                                   Curt Cleaver                          PRECINCT 2                                             01 
01080060003000000REP       United States Senator                                   Curt Cleaver                          PRECINCTS 3 & 11                                       01 
01080060004000000REP       United States Senator                                   Curt Cleaver                          PRECINCTS 4 & 12                                       01 
01080060005000000REP       United States Senator                                   Curt Cleaver                          PRECINCT 5                                             01 
01080060006000000REP       United States Senator                                   Curt Cleaver                          PRECINCTS 6 & 13                                       01 
01080060007000000REP       United States Senator                                   Curt Cleaver                          PRECINCT 7                                             01 
01080060008000000REP       United States Senator                                   Curt Cleaver                          PRECINCT 8                                             01 
01080060009000001REP       United States Senator                                   Curt Cleaver                          PRECINCTS 9 & 14                                       01 
01080070001000001REP       United States Senator                                   Glenn Addison                         PRECINCTS 1 & 10                                       01 
01080070002000000REP       United States Senator                                   Glenn Addison                         PRECINCT 2                                             01 
01080070003000000REP       United States Senator                                   Glenn Addison                         PRECINCTS 3 & 11                                       01 
01080070004000002REP       United States Senator                                   Glenn Addison                         PRECINCTS 4 & 12                                       01 
01080070005000000REP       United States Senator                                   Glenn Addison                         PRECINCT 5                                             01 
01080070006000000REP       United States Senator                                   Glenn Addison                         PRECINCTS 6 & 13                                       01 
01080070007000001REP       United States Senator                                   Glenn Addison                         PRECINCT 7                                             01 
01080070008000000REP       United States Senator                                   Glenn Addison                         PRECINCT 8                                             01 
01080070009000001REP       United States Senator                                   Glenn Addison                         PRECINCTS 9 & 14                                       01 
01080080001000001REP       United States Senator                                   Lela Pittenger                        PRECINCTS 1 & 10                                       01 
01080080002000000REP       United States Senator                                   Lela Pittenger                        PRECINCT 2                                             01 
01080080003000000REP       United States Senator                                   Lela Pittenger                        PRECINCTS 3 & 11                                       01 
01080080004000000REP       United States Senator                                   Lela Pittenger                        PRECINCTS 4 & 12                                       01 
01080080005000000REP       United States Senator                                   Lela Pittenger                        PRECINCT 5                                             01 
01080080006000001REP       United States Senator                                   Lela Pittenger                        PRECINCTS 6 & 13                                       01 
01080080007000001REP       United States Senator                                   Lela Pittenger                        PRECINCT 7                                             01 
01080080008000001REP       United States Senator                                   Lela Pittenger                        PRECINCT 8                                             01 
01080080009000001REP       United States Senator                                   Lela Pittenger                        PRECINCTS 9 & 14                                       01 
01080090001000003REP       United States Senator                                   Craig James                           PRECINCTS 1 & 10                                       01 
01080090002000003REP       United States Senator                                   Craig James                           PRECINCT 2                                             01 
01080090003000000REP       United States Senator                                   Craig James                           PRECINCTS 3 & 11                                       01 
01080090004000003REP       United States Senator                                   Craig James                           PRECINCTS 4 & 12                                       01 
01080090005000001REP       United States Senator                                   Craig James                           PRECINCT 5                                             01 
01080090006000007REP       United States Senator                                   Craig James                           PRECINCTS 6 & 13                                       01 
01080090007000002REP       United States Senator                                   Craig James                           PRECINCT 7                                             01 
01080090008000003REP       United States Senator                                   Craig James                           PRECINCT 8                                             01 
01080090009000003REP       United States Senator                                   Craig James                           PRECINCTS 9 & 14                                       01 
01080100001000000REP       United States Senator                                   OVER VOTES                            PRECINCTS 1 & 10                                       01 
01080100002000000REP       United States Senator                                   OVER VOTES                            PRECINCT 2                                             01 
01080100003000000REP       United States Senator                                   OVER VOTES                            PRECINCTS 3 & 11                                       01 
01080100004000000REP       United States Senator                                   OVER VOTES                            PRECINCTS 4 & 12                                       01 
01080100005000000REP       United States Senator                                   OVER VOTES                            PRECINCT 5                                             01 
01080100006000000REP       United States Senator                                   OVER VOTES                            PRECINCTS 6 & 13                                       01 
01080100007000000REP       United States Senator                                   OVER VOTES                            PRECINCT 7                                             01 
01080100008000000REP       United States Senator                                   OVER VOTES                            PRECINCT 8                                             01 
01080100009000000REP       United States Senator                                   OVER VOTES                            PRECINCTS 9 & 14                                       01 
01080110001000006REP       United States Senator                                   UNDER VOTES                           PRECINCTS 1 & 10                                       01 
01080110002000006REP       United States Senator                                   UNDER VOTES                           PRECINCT 2                                             01 
01080110003000008REP       United States Senator                                   UNDER VOTES                           PRECINCTS 3 & 11                                       01 
01080110004000006REP       United States Senator                                   UNDER VOTES                           PRECINCTS 4 & 12                                       01 
01080110005000001REP       United States Senator                                   UNDER VOTES                           PRECINCT 5                                             01 
01080110006000004REP       United States Senator                                   UNDER VOTES                           PRECINCTS 6 & 13                                       01 
01080110007000002REP       United States Senator                                   UNDER VOTES                           PRECINCT 7                                             01 
01080110008000003REP       United States Senator                                   UNDER VOTES                           PRECINCT 8                                             01 
01080110009000004REP       United States Senator                                   UNDER VOTES                           PRECINCTS 9 & 14                                       01 
01090010001000065REP       United States Representative District 19                Randy Neugebauer                      PRECINCTS 1 & 10                                       01 
01090010002000115REP       United States Representative District 19                Randy Neugebauer                      PRECINCT 2                                             01 
01090010003000109REP       United States Representative District 19                Randy Neugebauer                      PRECINCTS 3 & 11                                       01 
01090010004000048REP       United States Representative District 19                Randy Neugebauer                      PRECINCTS 4 & 12                                       01 
01090010005000019REP       United States Representative District 19                Randy Neugebauer                      PRECINCT 5                                             01 
01090010006000068REP       United States Representative District 19                Randy Neugebauer                      PRECINCTS 6 & 13                                       01 
01090010007000027REP       United States Representative District 19                Randy Neugebauer                      PRECINCT 7                                             01 
01090010008000030REP       United States Representative District 19                Randy Neugebauer                      PRECINCT 8                                             01 
01090010009000100REP       United States Representative District 19                Randy Neugebauer                      PRECINCTS 9 & 14                                       01 
01090020001000020REP       United States Representative District 19                Chris Winn                            PRECINCTS 1 & 10                                       01 
01090020002000020REP       United States Representative District 19                Chris Winn                            PRECINCT 2                                             01 
01090020003000013REP       United States Representative District 19                Chris Winn                            PRECINCTS 3 & 11                                       01 
01090020004000013REP       United States Representative District 19                Chris Winn                            PRECINCTS 4 & 12                                       01 
01090020005000004REP       United States Representative District 19                Chris Winn                            PRECINCT 5                                             01 
01090020006000015REP       United States Representative District 19                Chris Winn                            PRECINCTS 6 & 13                                       01 
01090020007000011REP       United States Representative District 19                Chris Winn                            PRECINCT 7                                             01 
01090020008000003REP       United States Representative District 19                Chris Winn                            PRECINCT 8                                             01 
01090020009000027REP       United States Representative District 19                Chris Winn                            PRECINCTS 9 & 14                                       01 
01090030001000000REP       United States Representative District 19                OVER VOTES                            PRECINCTS 1 & 10                                       01 
01090030002000000REP       United States Representative District 19                OVER VOTES                            PRECINCT 2                                             01 
01090030003000000REP       United States Representative District 19                OVER VOTES                            PRECINCTS 3 & 11                                       01 
01090030004000000REP       United States Representative District 19                OVER VOTES                            PRECINCTS 4 & 12                                       01 
01090030005000000REP       United States Representative District 19                OVER VOTES                            PRECINCT 5                                             01 
01090030006000000REP       United States Representative District 19                OVER VOTES                            PRECINCTS 6 & 13                                       01 
01090030007000000REP       United States Representative District 19                OVER VOTES                            PRECINCT 7                                             01 
01090030008000000REP       United States Representative District 19                OVER VOTES                            PRECINCT 8                                             01 
01090030009000000REP       United States Representative District 19                OVER VOTES                            PRECINCTS 9 & 14                                       01 
01090040001000008REP       United States Representative District 19                UNDER VOTES                           PRECINCTS 1 & 10                                       01 
01090040002000007REP       United States Representative District 19                UNDER VOTES                           PRECINCT 2                                             01 
01090040003000005REP       United States Representative District 19                UNDER VOTES                           PRECINCTS 3 & 11                                       01 
01090040004000007REP       United States Representative District 19                UNDER VOTES                           PRECINCTS 4 & 12                                       01 
01090040005000001REP       United States Representative District 19                UNDER VOTES                           PRECINCT 5                                             01 
01090040006000005REP       United States Representative District 19                UNDER VOTES                           PRECINCTS 6 & 13                                       01 
01090040007000001REP       United States Representative District 19                UNDER VOTES                           PRECINCT 7                                             01 
01090040008000002REP       United States Representative District 19                UNDER VOTES                           PRECINCT 8                                             01 
01090040009000007REP       United States Representative District 19                UNDER VOTES                           PRECINCTS 9 & 14                                       01 
01100010001000006REP       Railroad Commissioner                                   Beryl Burgess                         PRECINCTS 1 & 10                                       01 
01100010002000005REP       Railroad Commissioner                                   Beryl Burgess                         PRECINCT 2                                             01 
01100010003000004REP       Railroad Commissioner                                   Beryl Burgess                         PRECINCTS 3 & 11                                       01 
01100010004000002REP       Railroad Commissioner                                   Beryl Burgess                         PRECINCTS 4 & 12                                       01 
01100010005000000REP       Railroad Commissioner                                   Beryl Burgess                         PRECINCT 5                                             01 
01100010006000004REP       Railroad Commissioner                                   Beryl Burgess                         PRECINCTS 6 & 13                                       01 
01100010007000004REP       Railroad Commissioner                                   Beryl Burgess                         PRECINCT 7                                             01 
01100010008000001REP       Railroad Commissioner                                   Beryl Burgess                         PRECINCT 8                                             01 
01100010009000006REP       Railroad Commissioner                                   Beryl Burgess                         PRECINCTS 9 & 14                                       01 
01100020001000003REP       Railroad Commissioner                                   Roland Sledge                         PRECINCTS 1 & 10                                       01 
01100020002000012REP       Railroad Commissioner                                   Roland Sledge                         PRECINCT 2                                             01 
01100020003000009REP       Railroad Commissioner                                   Roland Sledge                         PRECINCTS 3 & 11                                       01 
01100020004000001REP       Railroad Commissioner                                   Roland Sledge                         PRECINCTS 4 & 12                                       01 
01100020005000002REP       Railroad Commissioner                                   Roland Sledge                         PRECINCT 5                                             01 
01100020006000005REP       Railroad Commissioner                                   Roland Sledge                         PRECINCTS 6 & 13                                       01 
01100020007000006REP       Railroad Commissioner                                   Roland Sledge                         PRECINCT 7                                             01 
01100020008000000REP       Railroad Commissioner                                   Roland Sledge                         PRECINCT 8                                             01 
01100020009000006REP       Railroad Commissioner                                   Roland Sledge                         PRECINCTS 9 & 14                                       01 
01100030001000011REP       Railroad Commissioner                                   Joe Cotten                            PRECINCTS 1 & 10                                       01 
01100030002000006REP       Railroad Commissioner                                   Joe Cotten                            PRECINCT 2                                             01 
01100030003000013REP       Railroad Commissioner                                   Joe Cotten                            PRECINCTS 3 & 11                                       01 
01100030004000006REP       Railroad Commissioner                                   Joe Cotten                            PRECINCTS 4 & 12                                       01 
01100030005000001REP       Railroad Commissioner                                   Joe Cotten                            PRECINCT 5                                             01 
01100030006000007REP       Railroad Commissioner                                   Joe Cotten                            PRECINCTS 6 & 13                                       01 
01100030007000007REP       Railroad Commissioner                                   Joe Cotten                            PRECINCT 7                                             01 
01100030008000007REP       Railroad Commissioner                                   Joe Cotten                            PRECINCT 8                                             01 
01100030009000010REP       Railroad Commissioner                                   Joe Cotten                            PRECINCTS 9 & 14                                       01 
01100040001000033REP       Railroad Commissioner                                   Christi Craddick                      PRECINCTS 1 & 10                                       01 
01100040002000060REP       Railroad Commissioner                                   Christi Craddick                      PRECINCT 2                                             01 
01100040003000048REP       Railroad Commissioner                                   Christi Craddick                      PRECINCTS 3 & 11                                       01 
01100040004000023REP       Railroad Commissioner                                   Christi Craddick                      PRECINCTS 4 & 12                                       01 
01100040005000010REP       Railroad Commissioner                                   Christi Craddick                      PRECINCT 5                                             01 
01100040006000024REP       Railroad Commissioner                                   Christi Craddick                      PRECINCTS 6 & 13                                       01 
01100040007000013REP       Railroad Commissioner                                   Christi Craddick                      PRECINCT 7                                             01 
01100040008000008REP       Railroad Commissioner                                   Christi Craddick                      PRECINCT 8                                             01 
01100040009000049REP       Railroad Commissioner                                   Christi Craddick                      PRECINCTS 9 & 14                                       01 
01100050001000011REP       Railroad Commissioner                                   Warren Chisum                         PRECINCTS 1 & 10                                       01 
01100050002000022REP       Railroad Commissioner                                   Warren Chisum                         PRECINCT 2                                             01 
01100050003000019REP       Railroad Commissioner                                   Warren Chisum                         PRECINCTS 3 & 11                                       01 
01100050004000013REP       Railroad Commissioner                                   Warren Chisum                         PRECINCTS 4 & 12                                       01 
01100050005000004REP       Railroad Commissioner                                   Warren Chisum                         PRECINCT 5                                             01 
01100050006000019REP       Railroad Commissioner                                   Warren Chisum                         PRECINCTS 6 & 13                                       01 
01100050007000000REP       Railroad Commissioner                                   Warren Chisum                         PRECINCT 7                                             01 
01100050008000008REP       Railroad Commissioner                                   Warren Chisum                         PRECINCT 8                                             01 
01100050009000021REP       Railroad Commissioner                                   Warren Chisum                         PRECINCTS 9 & 14                                       01 
01100060001000008REP       Railroad Commissioner                                   Becky Berger                          PRECINCTS 1 & 10                                       01 
01100060002000007REP       Railroad Commissioner                                   Becky Berger                          PRECINCT 2                                             01 
01100060003000008REP       Railroad Commissioner                                   Becky Berger                          PRECINCTS 3 & 11                                       01 
01100060004000005REP       Railroad Commissioner                                   Becky Berger                          PRECINCTS 4 & 12                                       01 
01100060005000005REP       Railroad Commissioner                                   Becky Berger                          PRECINCT 5                                             01 
01100060006000008REP       Railroad Commissioner                                   Becky Berger                          PRECINCTS 6 & 13                                       01 
01100060007000004REP       Railroad Commissioner                                   Becky Berger                          PRECINCT 7                                             01 
01100060008000003REP       Railroad Commissioner                                   Becky Berger                          PRECINCT 8                                             01 
01100060009000019REP       Railroad Commissioner                                   Becky Berger                          PRECINCTS 9 & 14                                       01 
01100070001000000REP       Railroad Commissioner                                   OVER VOTES                            PRECINCTS 1 & 10                                       01 
01100070002000000REP       Railroad Commissioner                                   OVER VOTES                            PRECINCT 2                                             01 
01100070003000000REP       Railroad Commissioner                                   OVER VOTES                            PRECINCTS 3 & 11                                       01 
01100070004000000REP       Railroad Commissioner                                   OVER VOTES                            PRECINCTS 4 & 12                                       01 
01100070005000000REP       Railroad Commissioner                                   OVER VOTES                            PRECINCT 5                                             01 
01100070006000000REP       Railroad Commissioner                                   OVER VOTES                            PRECINCTS 6 & 13                                       01 
01100070007000000REP       Railroad Commissioner                                   OVER VOTES                            PRECINCT 7                                             01 
01100070008000000REP       Railroad Commissioner                                   OVER VOTES                            PRECINCT 8                                             01 
01100070009000000REP       Railroad Commissioner                                   OVER VOTES                            PRECINCTS 9 & 14                                       01 
01100080001000021REP       Railroad Commissioner                                   UNDER VOTES                           PRECINCTS 1 & 10                                       01 
01100080002000030REP       Railroad Commissioner                                   UNDER VOTES                           PRECINCT 2                                             01 
01100080003000026REP       Railroad Commissioner                                   UNDER VOTES                           PRECINCTS 3 & 11                                       01 
01100080004000018REP       Railroad Commissioner                                   UNDER VOTES                           PRECINCTS 4 & 12                                       01 
01100080005000002REP       Railroad Commissioner                                   UNDER VOTES                           PRECINCT 5                                             01 
01100080006000021REP       Railroad Commissioner                                   UNDER VOTES                           PRECINCTS 6 & 13                                       01 
01100080007000005REP       Railroad Commissioner                                   UNDER VOTES                           PRECINCT 7                                             01 
01100080008000008REP       Railroad Commissioner                                   UNDER VOTES                           PRECINCT 8                                             01 
01100080009000023REP       Railroad Commissioner                                   UNDER VOTES                           PRECINCTS 9 & 14                                       01 
01110010001000003REP       Railroad Commissioner, Unexpired Term                   Al Lee                                PRECINCTS 1 & 10                                       01 
01110010002000006REP       Railroad Commissioner, Unexpired Term                   Al Lee                                PRECINCT 2                                             01 
01110010003000009REP       Railroad Commissioner, Unexpired Term                   Al Lee                                PRECINCTS 3 & 11                                       01 
01110010004000001REP       Railroad Commissioner, Unexpired Term                   Al Lee                                PRECINCTS 4 & 12                                       01 
01110010005000008REP       Railroad Commissioner, Unexpired Term                   Al Lee                                PRECINCT 5                                             01 
01110010006000008REP       Railroad Commissioner, Unexpired Term                   Al Lee                                PRECINCTS 6 & 13                                       01 
01110010007000006REP       Railroad Commissioner, Unexpired Term                   Al Lee                                PRECINCT 7                                             01 
01110010008000001REP       Railroad Commissioner, Unexpired Term                   Al Lee                                PRECINCT 8                                             01 
01110010009000010REP       Railroad Commissioner, Unexpired Term                   Al Lee                                PRECINCTS 9 & 14                                       01 
01110020001000014REP       Railroad Commissioner, Unexpired Term                   Elizabeth Murray-Kolb                 PRECINCTS 1 & 10                                       01 
01110020002000018REP       Railroad Commissioner, Unexpired Term                   Elizabeth Murray-Kolb                 PRECINCT 2                                             01 
01110020003000014REP       Railroad Commissioner, Unexpired Term                   Elizabeth Murray-Kolb                 PRECINCTS 3 & 11                                       01 
01110020004000016REP       Railroad Commissioner, Unexpired Term                   Elizabeth Murray-Kolb                 PRECINCTS 4 & 12                                       01 
01110020005000000REP       Railroad Commissioner, Unexpired Term                   Elizabeth Murray-Kolb                 PRECINCT 5                                             01 
01110020006000009REP       Railroad Commissioner, Unexpired Term                   Elizabeth Murray-Kolb                 PRECINCTS 6 & 13                                       01 
01110020007000007REP       Railroad Commissioner, Unexpired Term                   Elizabeth Murray-Kolb                 PRECINCT 7                                             01 
01110020008000007REP       Railroad Commissioner, Unexpired Term                   Elizabeth Murray-Kolb                 PRECINCT 8                                             01 
01110020009000024REP       Railroad Commissioner, Unexpired Term                   Elizabeth Murray-Kolb                 PRECINCTS 9 & 14                                       01 
01110030001000020REP       Railroad Commissioner, Unexpired Term                   Barry Smitherman                      PRECINCTS 1 & 10                                       01 
01110030002000044REP       Railroad Commissioner, Unexpired Term                   Barry Smitherman                      PRECINCT 2                                             01 
01110030003000039REP       Railroad Commissioner, Unexpired Term                   Barry Smitherman                      PRECINCTS 3 & 11                                       01 
01110030004000010REP       Railroad Commissioner, Unexpired Term                   Barry Smitherman                      PRECINCTS 4 & 12                                       01 
01110030005000004REP       Railroad Commissioner, Unexpired Term                   Barry Smitherman                      PRECINCT 5                                             01 
01110030006000016REP       Railroad Commissioner, Unexpired Term                   Barry Smitherman                      PRECINCTS 6 & 13                                       01 
01110030007000007REP       Railroad Commissioner, Unexpired Term                   Barry Smitherman                      PRECINCT 7                                             01 
01110030008000005REP       Railroad Commissioner, Unexpired Term                   Barry Smitherman                      PRECINCT 8                                             01 
01110030009000026REP       Railroad Commissioner, Unexpired Term                   Barry Smitherman                      PRECINCTS 9 & 14                                       01 
01110040001000030REP       Railroad Commissioner, Unexpired Term                   Greg Parker                           PRECINCTS 1 & 10                                       01 
01110040002000039REP       Railroad Commissioner, Unexpired Term                   Greg Parker                           PRECINCT 2                                             01 
01110040003000034REP       Railroad Commissioner, Unexpired Term                   Greg Parker                           PRECINCTS 3 & 11                                       01 
01110040004000015REP       Railroad Commissioner, Unexpired Term                   Greg Parker                           PRECINCTS 4 & 12                                       01 
01110040005000005REP       Railroad Commissioner, Unexpired Term                   Greg Parker                           PRECINCT 5                                             01 
01110040006000030REP       Railroad Commissioner, Unexpired Term                   Greg Parker                           PRECINCTS 6 & 13                                       01 
01110040007000013REP       Railroad Commissioner, Unexpired Term                   Greg Parker                           PRECINCT 7                                             01 
01110040008000011REP       Railroad Commissioner, Unexpired Term                   Greg Parker                           PRECINCT 8                                             01 
01110040009000040REP       Railroad Commissioner, Unexpired Term                   Greg Parker                           PRECINCTS 9 & 14                                       01 
01110050001000000REP       Railroad Commissioner, Unexpired Term                   OVER VOTES                            PRECINCTS 1 & 10                                       01 
01110050002000000REP       Railroad Commissioner, Unexpired Term                   OVER VOTES                            PRECINCT 2                                             01 
01110050003000000REP       Railroad Commissioner, Unexpired Term                   OVER VOTES                            PRECINCTS 3 & 11                                       01 
01110050004000000REP       Railroad Commissioner, Unexpired Term                   OVER VOTES                            PRECINCTS 4 & 12                                       01 
01110050005000000REP       Railroad Commissioner, Unexpired Term                   OVER VOTES                            PRECINCT 5                                             01 
01110050006000000REP       Railroad Commissioner, Unexpired Term                   OVER VOTES                            PRECINCTS 6 & 13                                       01 
01110050007000000REP       Railroad Commissioner, Unexpired Term                   OVER VOTES                            PRECINCT 7                                             01 
01110050008000000REP       Railroad Commissioner, Unexpired Term                   OVER VOTES                            PRECINCT 8                                             01 
01110050009000000REP       Railroad Commissioner, Unexpired Term                   OVER VOTES                            PRECINCTS 9 & 14                                       01 
01110060001000026REP       Railroad Commissioner, Unexpired Term                   UNDER VOTES                           PRECINCTS 1 & 10                                       01 
01110060002000035REP       Railroad Commissioner, Unexpired Term                   UNDER VOTES                           PRECINCT 2                                             01 
01110060003000031REP       Railroad Commissioner, Unexpired Term                   UNDER VOTES                           PRECINCTS 3 & 11                                       01 
01110060004000026REP       Railroad Commissioner, Unexpired Term                   UNDER VOTES                           PRECINCTS 4 & 12                                       01 
01110060005000007REP       Railroad Commissioner, Unexpired Term                   UNDER VOTES                           PRECINCT 5                                             01 
01110060006000025REP       Railroad Commissioner, Unexpired Term                   UNDER VOTES                           PRECINCTS 6 & 13                                       01 
01110060007000006REP       Railroad Commissioner, Unexpired Term                   UNDER VOTES                           PRECINCT 7                                             01 
01110060008000011REP       Railroad Commissioner, Unexpired Term                   UNDER VOTES                           PRECINCT 8                                             01 
01110060009000034REP       Railroad Commissioner, Unexpired Term                   UNDER VOTES                           PRECINCTS 9 & 14                                       01 
01120010001000044REP       Justice, Supreme Court, Place 2                         Don Willett                           PRECINCTS 1 & 10                                       01 
01120010002000074REP       Justice, Supreme Court, Place 2                         Don Willett                           PRECINCT 2                                             01 
01120010003000066REP       Justice, Supreme Court, Place 2                         Don Willett                           PRECINCTS 3 & 11                                       01 
01120010004000028REP       Justice, Supreme Court, Place 2                         Don Willett                           PRECINCTS 4 & 12                                       01 
01120010005000018REP       Justice, Supreme Court, Place 2                         Don Willett                           PRECINCT 5                                             01 
01120010006000031REP       Justice, Supreme Court, Place 2                         Don Willett                           PRECINCTS 6 & 13                                       01 
01120010007000018REP       Justice, Supreme Court, Place 2                         Don Willett                           PRECINCT 7                                             01 
01120010008000011REP       Justice, Supreme Court, Place 2                         Don Willett                           PRECINCT 8                                             01 
01120010009000056REP       Justice, Supreme Court, Place 2                         Don Willett                           PRECINCTS 9 & 14                                       01 
01120020001000028REP       Justice, Supreme Court, Place 2                         Steve Smith                           PRECINCTS 1 & 10                                       01 
01120020002000037REP       Justice, Supreme Court, Place 2                         Steve Smith                           PRECINCT 2                                             01 
01120020003000031REP       Justice, Supreme Court, Place 2                         Steve Smith                           PRECINCTS 3 & 11                                       01 
01120020004000018REP       Justice, Supreme Court, Place 2                         Steve Smith                           PRECINCTS 4 & 12                                       01 
01120020005000004REP       Justice, Supreme Court, Place 2                         Steve Smith                           PRECINCT 5                                             01 
01120020006000031REP       Justice, Supreme Court, Place 2                         Steve Smith                           PRECINCTS 6 & 13                                       01 
01120020007000014REP       Justice, Supreme Court, Place 2                         Steve Smith                           PRECINCT 7                                             01 
01120020008000010REP       Justice, Supreme Court, Place 2                         Steve Smith                           PRECINCT 8                                             01 
01120020009000044REP       Justice, Supreme Court, Place 2                         Steve Smith                           PRECINCTS 9 & 14                                       01 
01120030001000000REP       Justice, Supreme Court, Place 2                         OVER VOTES                            PRECINCTS 1 & 10                                       01 
01120030002000000REP       Justice, Supreme Court, Place 2                         OVER VOTES                            PRECINCT 2                                             01 
01120030003000000REP       Justice, Supreme Court, Place 2                         OVER VOTES                            PRECINCTS 3 & 11                                       01 
01120030004000000REP       Justice, Supreme Court, Place 2                         OVER VOTES                            PRECINCTS 4 & 12                                       01 
01120030005000000REP       Justice, Supreme Court, Place 2                         OVER VOTES                            PRECINCT 5                                             01 
01120030006000000REP       Justice, Supreme Court, Place 2                         OVER VOTES                            PRECINCTS 6 & 13                                       01 
01120030007000000REP       Justice, Supreme Court, Place 2                         OVER VOTES                            PRECINCT 7                                             01 
01120030008000000REP       Justice, Supreme Court, Place 2                         OVER VOTES                            PRECINCT 8                                             01 
01120030009000000REP       Justice, Supreme Court, Place 2                         OVER VOTES                            PRECINCTS 9 & 14                                       01 
01120040001000021REP       Justice, Supreme Court, Place 2                         UNDER VOTES                           PRECINCTS 1 & 10                                       01 
01120040002000031REP       Justice, Supreme Court, Place 2                         UNDER VOTES                           PRECINCT 2                                             01 
01120040003000030REP       Justice, Supreme Court, Place 2                         UNDER VOTES                           PRECINCTS 3 & 11                                       01 
01120040004000022REP       Justice, Supreme Court, Place 2                         UNDER VOTES                           PRECINCTS 4 & 12                                       01 
01120040005000002REP       Justice, Supreme Court, Place 2                         UNDER VOTES                           PRECINCT 5                                             01 
01120040006000026REP       Justice, Supreme Court, Place 2                         UNDER VOTES                           PRECINCTS 6 & 13                                       01 
01120040007000007REP       Justice, Supreme Court, Place 2                         UNDER VOTES                           PRECINCT 7                                             01 
01120040008000014REP       Justice, Supreme Court, Place 2                         UNDER VOTES                           PRECINCT 8                                             01 
01120040009000034REP       Justice, Supreme Court, Place 2                         UNDER VOTES                           PRECINCTS 9 & 14                                       01 
01130010001000026REP       Justice, Supreme Court, Place 4                         David Medina                          PRECINCTS 1 & 10                                       01 
01130010002000036REP       Justice, Supreme Court, Place 4                         David Medina                          PRECINCT 2                                             01 
01130010003000032REP       Justice, Supreme Court, Place 4                         David Medina                          PRECINCTS 3 & 11                                       01 
01130010004000013REP       Justice, Supreme Court, Place 4                         David Medina                          PRECINCTS 4 & 12                                       01 
01130010005000012REP       Justice, Supreme Court, Place 4                         David Medina                          PRECINCT 5                                             01 
01130010006000029REP       Justice, Supreme Court, Place 4                         David Medina                          PRECINCTS 6 & 13                                       01 
01130010007000007REP       Justice, Supreme Court, Place 4                         David Medina                          PRECINCT 7                                             01 
01130010008000011REP       Justice, Supreme Court, Place 4                         David Medina                          PRECINCT 8                                             01 
01130010009000026REP       Justice, Supreme Court, Place 4                         David Medina                          PRECINCTS 9 & 14                                       01 
01130020001000028REP       Justice, Supreme Court, Place 4                         John Devine                           PRECINCTS 1 & 10                                       01 
01130020002000037REP       Justice, Supreme Court, Place 4                         John Devine                           PRECINCT 2                                             01 
01130020003000040REP       Justice, Supreme Court, Place 4                         John Devine                           PRECINCTS 3 & 11                                       01 
01130020004000017REP       Justice, Supreme Court, Place 4                         John Devine                           PRECINCTS 4 & 12                                       01 
01130020005000005REP       Justice, Supreme Court, Place 4                         John Devine                           PRECINCT 5                                             01 
01130020006000022REP       Justice, Supreme Court, Place 4                         John Devine                           PRECINCTS 6 & 13                                       01 
01130020007000017REP       Justice, Supreme Court, Place 4                         John Devine                           PRECINCT 7                                             01 
01130020008000007REP       Justice, Supreme Court, Place 4                         John Devine                           PRECINCT 8                                             01 
01130020009000036REP       Justice, Supreme Court, Place 4                         John Devine                           PRECINCTS 9 & 14                                       01 
01130030001000018REP       Justice, Supreme Court, Place 4                         Joe Pool, Jr.                         PRECINCTS 1 & 10                                       01 
01130030002000031REP       Justice, Supreme Court, Place 4                         Joe Pool, Jr.                         PRECINCT 2                                             01 
01130030003000021REP       Justice, Supreme Court, Place 4                         Joe Pool, Jr.                         PRECINCTS 3 & 11                                       01 
01130030004000012REP       Justice, Supreme Court, Place 4                         Joe Pool, Jr.                         PRECINCTS 4 & 12                                       01 
01130030005000002REP       Justice, Supreme Court, Place 4                         Joe Pool, Jr.                         PRECINCT 5                                             01 
01130030006000016REP       Justice, Supreme Court, Place 4                         Joe Pool, Jr.                         PRECINCTS 6 & 13                                       01 
01130030007000006REP       Justice, Supreme Court, Place 4                         Joe Pool, Jr.                         PRECINCT 7                                             01 
01130030008000004REP       Justice, Supreme Court, Place 4                         Joe Pool, Jr.                         PRECINCT 8                                             01 
01130030009000036REP       Justice, Supreme Court, Place 4                         Joe Pool, Jr.                         PRECINCTS 9 & 14                                       01 
01130040001000000REP       Justice, Supreme Court, Place 4                         OVER VOTES                            PRECINCTS 1 & 10                                       01 
01130040002000000REP       Justice, Supreme Court, Place 4                         OVER VOTES                            PRECINCT 2                                             01 
01130040003000000REP       Justice, Supreme Court, Place 4                         OVER VOTES                            PRECINCTS 3 & 11                                       01 
01130040004000000REP       Justice, Supreme Court, Place 4                         OVER VOTES                            PRECINCTS 4 & 12                                       01 
01130040005000000REP       Justice, Supreme Court, Place 4                         OVER VOTES                            PRECINCT 5                                             01 
01130040006000000REP       Justice, Supreme Court, Place 4                         OVER VOTES                            PRECINCTS 6 & 13                                       01 
01130040007000000REP       Justice, Supreme Court, Place 4                         OVER VOTES                            PRECINCT 7                                             01 
01130040008000000REP       Justice, Supreme Court, Place 4                         OVER VOTES                            PRECINCT 8                                             01 
01130040009000000REP       Justice, Supreme Court, Place 4                         OVER VOTES                            PRECINCTS 9 & 14                                       01 
01130050001000021REP       Justice, Supreme Court, Place 4                         UNDER VOTES                           PRECINCTS 1 & 10                                       01 
01130050002000038REP       Justice, Supreme Court, Place 4                         UNDER VOTES                           PRECINCT 2                                             01 
01130050003000034REP       Justice, Supreme Court, Place 4                         UNDER VOTES                           PRECINCTS 3 & 11                                       01 
01130050004000026REP       Justice, Supreme Court, Place 4                         UNDER VOTES                           PRECINCTS 4 & 12                                       01 
01130050005000005REP       Justice, Supreme Court, Place 4                         UNDER VOTES                           PRECINCT 5                                             01 
01130050006000021REP       Justice, Supreme Court, Place 4                         UNDER VOTES                           PRECINCTS 6 & 13                                       01 
01130050007000009REP       Justice, Supreme Court, Place 4                         UNDER VOTES                           PRECINCT 7                                             01 
01130050008000013REP       Justice, Supreme Court, Place 4                         UNDER VOTES                           PRECINCT 8                                             01 
01130050009000036REP       Justice, Supreme Court, Place 4                         UNDER VOTES                           PRECINCTS 9 & 14                                       01 
01140010001000058REP       Justice, Supreme Court, Place 6                         Nathan Hecht                          PRECINCTS 1 & 10                                       01 
01140010002000103REP       Justice, Supreme Court, Place 6                         Nathan Hecht                          PRECINCT 2                                             01 
01140010003000090REP       Justice, Supreme Court, Place 6                         Nathan Hecht                          PRECINCTS 3 & 11                                       01 
01140010004000046REP       Justice, Supreme Court, Place 6                         Nathan Hecht                          PRECINCTS 4 & 12                                       01 
01140010005000017REP       Justice, Supreme Court, Place 6                         Nathan Hecht                          PRECINCT 5                                             01 
01140010006000059REP       Justice, Supreme Court, Place 6                         Nathan Hecht                          PRECINCTS 6 & 13                                       01 
01140010007000028REP       Justice, Supreme Court, Place 6                         Nathan Hecht                          PRECINCT 7                                             01 
01140010008000025REP       Justice, Supreme Court, Place 6                         Nathan Hecht                          PRECINCT 8                                             01 
01140010009000094REP       Justice, Supreme Court, Place 6                         Nathan Hecht                          PRECINCTS 9 & 14                                       01 
01140020001000000REP       Justice, Supreme Court, Place 6                         OVER VOTES                            PRECINCTS 1 & 10                                       01 
01140020002000000REP       Justice, Supreme Court, Place 6                         OVER VOTES                            PRECINCT 2                                             01 
01140020003000000REP       Justice, Supreme Court, Place 6                         OVER VOTES                            PRECINCTS 3 & 11                                       01 
01140020004000000REP       Justice, Supreme Court, Place 6                         OVER VOTES                            PRECINCTS 4 & 12                                       01 
01140020005000000REP       Justice, Supreme Court, Place 6                         OVER VOTES                            PRECINCT 5                                             01 
01140020006000000REP       Justice, Supreme Court, Place 6                         OVER VOTES                            PRECINCTS 6 & 13                                       01 
01140020007000000REP       Justice, Supreme Court, Place 6                         OVER VOTES                            PRECINCT 7                                             01 
01140020008000000REP       Justice, Supreme Court, Place 6                         OVER VOTES                            PRECINCT 8                                             01 
01140020009000000REP       Justice, Supreme Court, Place 6                         OVER VOTES                            PRECINCTS 9 & 14                                       01 
01140030001000035REP       Justice, Supreme Court, Place 6                         UNDER VOTES                           PRECINCTS 1 & 10                                       01 
01140030002000039REP       Justice, Supreme Court, Place 6                         UNDER VOTES                           PRECINCT 2                                             01 
01140030003000037REP       Justice, Supreme Court, Place 6                         UNDER VOTES                           PRECINCTS 3 & 11                                       01 
01140030004000022REP       Justice, Supreme Court, Place 6                         UNDER VOTES                           PRECINCTS 4 & 12                                       01 
01140030005000007REP       Justice, Supreme Court, Place 6                         UNDER VOTES                           PRECINCT 5                                             01 
01140030006000029REP       Justice, Supreme Court, Place 6                         UNDER VOTES                           PRECINCTS 6 & 13                                       01 
01140030007000011REP       Justice, Supreme Court, Place 6                         UNDER VOTES                           PRECINCT 7                                             01 
01140030008000010REP       Justice, Supreme Court, Place 6                         UNDER VOTES                           PRECINCT 8                                             01 
01140030009000040REP       Justice, Supreme Court, Place 6                         UNDER VOTES                           PRECINCTS 9 & 14                                       01 
01150010001000061REP       Presiding Judge, Ct of Criminal Appeals                 Sharon  Keller                        PRECINCTS 1 & 10                                       01 
01150010002000102REP       Presiding Judge, Ct of Criminal Appeals                 Sharon  Keller                        PRECINCT 2                                             01 
01150010003000091REP       Presiding Judge, Ct of Criminal Appeals                 Sharon  Keller                        PRECINCTS 3 & 11                                       01 
01150010004000047REP       Presiding Judge, Ct of Criminal Appeals                 Sharon  Keller                        PRECINCTS 4 & 12                                       01 
01150010005000016REP       Presiding Judge, Ct of Criminal Appeals                 Sharon  Keller                        PRECINCT 5                                             01 
01150010006000060REP       Presiding Judge, Ct of Criminal Appeals                 Sharon  Keller                        PRECINCTS 6 & 13                                       01 
01150010007000029REP       Presiding Judge, Ct of Criminal Appeals                 Sharon  Keller                        PRECINCT 7                                             01 
01150010008000025REP       Presiding Judge, Ct of Criminal Appeals                 Sharon  Keller                        PRECINCT 8                                             01 
01150010009000102REP       Presiding Judge, Ct of Criminal Appeals                 Sharon  Keller                        PRECINCTS 9 & 14                                       01 
01150020001000000REP       Presiding Judge, Ct of Criminal Appeals                 OVER VOTES                            PRECINCTS 1 & 10                                       01 
01150020002000000REP       Presiding Judge, Ct of Criminal Appeals                 OVER VOTES                            PRECINCT 2                                             01 
01150020003000000REP       Presiding Judge, Ct of Criminal Appeals                 OVER VOTES                            PRECINCTS 3 & 11                                       01 
01150020004000000REP       Presiding Judge, Ct of Criminal Appeals                 OVER VOTES                            PRECINCTS 4 & 12                                       01 
01150020005000000REP       Presiding Judge, Ct of Criminal Appeals                 OVER VOTES                            PRECINCT 5                                             01 
01150020006000000REP       Presiding Judge, Ct of Criminal Appeals                 OVER VOTES                            PRECINCTS 6 & 13                                       01 
01150020007000000REP       Presiding Judge, Ct of Criminal Appeals                 OVER VOTES                            PRECINCT 7                                             01 
01150020008000000REP       Presiding Judge, Ct of Criminal Appeals                 OVER VOTES                            PRECINCT 8                                             01 
01150020009000000REP       Presiding Judge, Ct of Criminal Appeals                 OVER VOTES                            PRECINCTS 9 & 14                                       01 
01150030001000032REP       Presiding Judge, Ct of Criminal Appeals                 UNDER VOTES                           PRECINCTS 1 & 10                                       01 
01150030002000040REP       Presiding Judge, Ct of Criminal Appeals                 UNDER VOTES                           PRECINCT 2                                             01 
01150030003000036REP       Presiding Judge, Ct of Criminal Appeals                 UNDER VOTES                           PRECINCTS 3 & 11                                       01 
01150030004000021REP       Presiding Judge, Ct of Criminal Appeals                 UNDER VOTES                           PRECINCTS 4 & 12                                       01 
01150030005000008REP       Presiding Judge, Ct of Criminal Appeals                 UNDER VOTES                           PRECINCT 5                                             01 
01150030006000028REP       Presiding Judge, Ct of Criminal Appeals                 UNDER VOTES                           PRECINCTS 6 & 13                                       01 
01150030007000010REP       Presiding Judge, Ct of Criminal Appeals                 UNDER VOTES                           PRECINCT 7                                             01 
01150030008000010REP       Presiding Judge, Ct of Criminal Appeals                 UNDER VOTES                           PRECINCT 8                                             01 
01150030009000032REP       Presiding Judge, Ct of Criminal Appeals                 UNDER VOTES                           PRECINCTS 9 & 14                                       01 
01160010001000059REP       Judge, Court of Criminal Appeals, Pl 7                  Barbara Parker Hervey                 PRECINCTS 1 & 10                                       01 
01160010002000098REP       Judge, Court of Criminal Appeals, Pl 7                  Barbara Parker Hervey                 PRECINCT 2                                             01 
01160010003000087REP       Judge, Court of Criminal Appeals, Pl 7                  Barbara Parker Hervey                 PRECINCTS 3 & 11                                       01 
