01010010001001254          REGISTERED VOTERS - TOTAL                               REGISTERED VOTERS - TOTAL             Calvert - 1                                            00 
01010010002001512          REGISTERED VOTERS - TOTAL                               REGISTERED VOTERS - TOTAL             Hearne - 2                                             00 
01010010003000511          REGISTERED VOTERS - TOTAL                               REGISTERED VOTERS - TOTAL             Wheelock - 3                                           00 
01010010004000436          REGISTERED VOTERS - TOTAL                               REGISTERED VOTERS - TOTAL             Bald Prairie - 4                                       00 
01010010005001532          REGISTERED VOTERS - TOTAL                               REGISTERED VOTERS - TOTAL             Bremond - 5                                            00 
01010010006001367          REGISTERED VOTERS - TOTAL                               REGISTERED VOTERS - TOTAL             Franklin - 6                                           00 
01010010007000102          REGISTERED VOTERS - TOTAL                               REGISTERED VOTERS - TOTAL             Mumford - 7                                            00 
01010010008000229          REGISTERED VOTERS - TOTAL                               REGISTERED VOTERS - TOTAL             Seale - 8                                              00 
01010010009000969          REGISTERED VOTERS - TOTAL                               REGISTERED VOTERS - TOTAL             Benchley - 11                                          00 
01010010010000138          REGISTERED VOTERS - TOTAL                               REGISTERED VOTERS - TOTAL             Elliott - 13                                           00 
01010010011000146          REGISTERED VOTERS - TOTAL                               REGISTERED VOTERS - TOTAL             Easterly - 16                                          00 
01010010012000088          REGISTERED VOTERS - TOTAL                               REGISTERED VOTERS - TOTAL             Ridge - 18                                             00 
01010010013000519          REGISTERED VOTERS - TOTAL                               REGISTERED VOTERS - TOTAL             New Baden - 19                                         00 
01010010014001508          REGISTERED VOTERS - TOTAL                               REGISTERED VOTERS - TOTAL             Blackshear - 22                                        00 
01010010015000772          REGISTERED VOTERS - TOTAL                               REGISTERED VOTERS - TOTAL             Christian Faith - 23                                   00 
01020010001000000REP       REGISTERED VOTERS - REPUBLICAN PARTY                    REGISTERED VOTERS - REPUBLICAN PARTY  Calvert - 1                                            00 
01020010002000000REP       REGISTERED VOTERS - REPUBLICAN PARTY                    REGISTERED VOTERS - REPUBLICAN PARTY  Hearne - 2                                             00 
01020010003000000REP       REGISTERED VOTERS - REPUBLICAN PARTY                    REGISTERED VOTERS - REPUBLICAN PARTY  Wheelock - 3                                           00 
01020010004000000REP       REGISTERED VOTERS - REPUBLICAN PARTY                    REGISTERED VOTERS - REPUBLICAN PARTY  Bald Prairie - 4                                       00 
01020010005000000REP       REGISTERED VOTERS - REPUBLICAN PARTY                    REGISTERED VOTERS - REPUBLICAN PARTY  Bremond - 5                                            00 
01020010006000000REP       REGISTERED VOTERS - REPUBLICAN PARTY                    REGISTERED VOTERS - REPUBLICAN PARTY  Franklin - 6                                           00 
01020010007000000REP       REGISTERED VOTERS - REPUBLICAN PARTY                    REGISTERED VOTERS - REPUBLICAN PARTY  Mumford - 7                                            00 
01020010008000000REP       REGISTERED VOTERS - REPUBLICAN PARTY                    REGISTERED VOTERS - REPUBLICAN PARTY  Seale - 8                                              00 
01020010009000000REP       REGISTERED VOTERS - REPUBLICAN PARTY                    REGISTERED VOTERS - REPUBLICAN PARTY  Benchley - 11                                          00 
01020010010000000REP       REGISTERED VOTERS - REPUBLICAN PARTY                    REGISTERED VOTERS - REPUBLICAN PARTY  Elliott - 13                                           00 
01020010011000000REP       REGISTERED VOTERS - REPUBLICAN PARTY                    REGISTERED VOTERS - REPUBLICAN PARTY  Easterly - 16                                          00 
01020010012000000REP       REGISTERED VOTERS - REPUBLICAN PARTY                    REGISTERED VOTERS - REPUBLICAN PARTY  Ridge - 18                                             00 
01020010013000000REP       REGISTERED VOTERS - REPUBLICAN PARTY                    REGISTERED VOTERS - REPUBLICAN PARTY  New Baden - 19                                         00 
01020010014000000REP       REGISTERED VOTERS - REPUBLICAN PARTY                    REGISTERED VOTERS - REPUBLICAN PARTY  Blackshear - 22                                        00 
01020010015000000REP       REGISTERED VOTERS - REPUBLICAN PARTY                    REGISTERED VOTERS - REPUBLICAN PARTY  Christian Faith - 23                                   00 
01030010001000000DEM       REGISTERED VOTERS - DEMOCRATIC PARTY                    REGISTERED VOTERS - DEMOCRATIC PARTY  Calvert - 1                                            00 
01030010002000000DEM       REGISTERED VOTERS - DEMOCRATIC PARTY                    REGISTERED VOTERS - DEMOCRATIC PARTY  Hearne - 2                                             00 
01030010003000000DEM       REGISTERED VOTERS - DEMOCRATIC PARTY                    REGISTERED VOTERS - DEMOCRATIC PARTY  Wheelock - 3                                           00 
01030010004000000DEM       REGISTERED VOTERS - DEMOCRATIC PARTY                    REGISTERED VOTERS - DEMOCRATIC PARTY  Bald Prairie - 4                                       00 
01030010005000000DEM       REGISTERED VOTERS - DEMOCRATIC PARTY                    REGISTERED VOTERS - DEMOCRATIC PARTY  Bremond - 5                                            00 
01030010006000000DEM       REGISTERED VOTERS - DEMOCRATIC PARTY                    REGISTERED VOTERS - DEMOCRATIC PARTY  Franklin - 6                                           00 
01030010007000000DEM       REGISTERED VOTERS - DEMOCRATIC PARTY                    REGISTERED VOTERS - DEMOCRATIC PARTY  Mumford - 7                                            00 
01030010008000000DEM       REGISTERED VOTERS - DEMOCRATIC PARTY                    REGISTERED VOTERS - DEMOCRATIC PARTY  Seale - 8                                              00 
01030010009000000DEM       REGISTERED VOTERS - DEMOCRATIC PARTY                    REGISTERED VOTERS - DEMOCRATIC PARTY  Benchley - 11                                          00 
01030010010000000DEM       REGISTERED VOTERS - DEMOCRATIC PARTY                    REGISTERED VOTERS - DEMOCRATIC PARTY  Elliott - 13                                           00 
01030010011000000DEM       REGISTERED VOTERS - DEMOCRATIC PARTY                    REGISTERED VOTERS - DEMOCRATIC PARTY  Easterly - 16                                          00 
01030010012000000DEM       REGISTERED VOTERS - DEMOCRATIC PARTY                    REGISTERED VOTERS - DEMOCRATIC PARTY  Ridge - 18                                             00 
01030010013000000DEM       REGISTERED VOTERS - DEMOCRATIC PARTY                    REGISTERED VOTERS - DEMOCRATIC PARTY  New Baden - 19                                         00 
01030010014000000DEM       REGISTERED VOTERS - DEMOCRATIC PARTY                    REGISTERED VOTERS - DEMOCRATIC PARTY  Blackshear - 22                                        00 
01030010015000000DEM       REGISTERED VOTERS - DEMOCRATIC PARTY                    REGISTERED VOTERS - DEMOCRATIC PARTY  Christian Faith - 23                                   00 
01040010001000504          BALLOTS CAST - TOTAL                                    BALLOTS CAST - TOTAL                  Calvert - 1                                            00 
01040010002000228          BALLOTS CAST - TOTAL                                    BALLOTS CAST - TOTAL                  Hearne - 2                                             00 
01040010003000180          BALLOTS CAST - TOTAL                                    BALLOTS CAST - TOTAL                  Wheelock - 3                                           00 
01040010004000171          BALLOTS CAST - TOTAL                                    BALLOTS CAST - TOTAL                  Bald Prairie - 4                                       00 
01040010005000317          BALLOTS CAST - TOTAL                                    BALLOTS CAST - TOTAL                  Bremond - 5                                            00 
01040010006000401          BALLOTS CAST - TOTAL                                    BALLOTS CAST - TOTAL                  Franklin - 6                                           00 
01040010007000012          BALLOTS CAST - TOTAL                                    BALLOTS CAST - TOTAL                  Mumford - 7                                            00 
01040010008000090          BALLOTS CAST - TOTAL                                    BALLOTS CAST - TOTAL                  Seale - 8                                              00 
01040010009000203          BALLOTS CAST - TOTAL                                    BALLOTS CAST - TOTAL                  Benchley - 11                                          00 
01040010010000032          BALLOTS CAST - TOTAL                                    BALLOTS CAST - TOTAL                  Elliott - 13                                           00 
01040010011000056          BALLOTS CAST - TOTAL                                    BALLOTS CAST - TOTAL                  Easterly - 16                                          00 
01040010012000029          BALLOTS CAST - TOTAL                                    BALLOTS CAST - TOTAL                  Ridge - 18                                             00 
01040010013000201          BALLOTS CAST - TOTAL                                    BALLOTS CAST - TOTAL                  New Baden - 19                                         00 
01040010014000102          BALLOTS CAST - TOTAL                                    BALLOTS CAST - TOTAL                  Blackshear - 22                                        00 
01040010015000179          BALLOTS CAST - TOTAL                                    BALLOTS CAST - TOTAL                  Christian Faith - 23                                   00 
01050010001000149REP       BALLOTS CAST - REPUBLICAN PARTY                         BALLOTS CAST - REPUBLICAN PARTY       Calvert - 1                                            00 
01050010002000148REP       BALLOTS CAST - REPUBLICAN PARTY                         BALLOTS CAST - REPUBLICAN PARTY       Hearne - 2                                             00 
01050010003000130REP       BALLOTS CAST - REPUBLICAN PARTY                         BALLOTS CAST - REPUBLICAN PARTY       Wheelock - 3                                           00 
01050010004000080REP       BALLOTS CAST - REPUBLICAN PARTY                         BALLOTS CAST - REPUBLICAN PARTY       Bald Prairie - 4                                       00 
01050010005000233REP       BALLOTS CAST - REPUBLICAN PARTY                         BALLOTS CAST - REPUBLICAN PARTY       Bremond - 5                                            00 
01050010006000223REP       BALLOTS CAST - REPUBLICAN PARTY                         BALLOTS CAST - REPUBLICAN PARTY       Franklin - 6                                           00 
01050010007000002REP       BALLOTS CAST - REPUBLICAN PARTY                         BALLOTS CAST - REPUBLICAN PARTY       Mumford - 7                                            00 
01050010008000068REP       BALLOTS CAST - REPUBLICAN PARTY                         BALLOTS CAST - REPUBLICAN PARTY       Seale - 8                                              00 
01050010009000179REP       BALLOTS CAST - REPUBLICAN PARTY                         BALLOTS CAST - REPUBLICAN PARTY       Benchley - 11                                          00 
01050010010000030REP       BALLOTS CAST - REPUBLICAN PARTY                         BALLOTS CAST - REPUBLICAN PARTY       Elliott - 13                                           00 
01050010011000028REP       BALLOTS CAST - REPUBLICAN PARTY                         BALLOTS CAST - REPUBLICAN PARTY       Easterly - 16                                          00 
01050010012000014REP       BALLOTS CAST - REPUBLICAN PARTY                         BALLOTS CAST - REPUBLICAN PARTY       Ridge - 18                                             00 
01050010013000128REP       BALLOTS CAST - REPUBLICAN PARTY                         BALLOTS CAST - REPUBLICAN PARTY       New Baden - 19                                         00 
01050010014000022REP       BALLOTS CAST - REPUBLICAN PARTY                         BALLOTS CAST - REPUBLICAN PARTY       Blackshear - 22                                        00 
01050010015000042REP       BALLOTS CAST - REPUBLICAN PARTY                         BALLOTS CAST - REPUBLICAN PARTY       Christian Faith - 23                                   00 
01060010001000355DEM       BALLOTS CAST - DEMOCRATIC PARTY                         BALLOTS CAST - DEMOCRATIC PARTY       Calvert - 1                                            00 
01060010002000080DEM       BALLOTS CAST - DEMOCRATIC PARTY                         BALLOTS CAST - DEMOCRATIC PARTY       Hearne - 2                                             00 
01060010003000050DEM       BALLOTS CAST - DEMOCRATIC PARTY                         BALLOTS CAST - DEMOCRATIC PARTY       Wheelock - 3                                           00 
01060010004000091DEM       BALLOTS CAST - DEMOCRATIC PARTY                         BALLOTS CAST - DEMOCRATIC PARTY       Bald Prairie - 4                                       00 
01060010005000084DEM       BALLOTS CAST - DEMOCRATIC PARTY                         BALLOTS CAST - DEMOCRATIC PARTY       Bremond - 5                                            00 
01060010006000178DEM       BALLOTS CAST - DEMOCRATIC PARTY                         BALLOTS CAST - DEMOCRATIC PARTY       Franklin - 6                                           00 
01060010007000010DEM       BALLOTS CAST - DEMOCRATIC PARTY                         BALLOTS CAST - DEMOCRATIC PARTY       Mumford - 7                                            00 
01060010008000022DEM       BALLOTS CAST - DEMOCRATIC PARTY                         BALLOTS CAST - DEMOCRATIC PARTY       Seale - 8                                              00 
01060010009000024DEM       BALLOTS CAST - DEMOCRATIC PARTY                         BALLOTS CAST - DEMOCRATIC PARTY       Benchley - 11                                          00 
01060010010000002DEM       BALLOTS CAST - DEMOCRATIC PARTY                         BALLOTS CAST - DEMOCRATIC PARTY       Elliott - 13                                           00 
01060010011000028DEM       BALLOTS CAST - DEMOCRATIC PARTY                         BALLOTS CAST - DEMOCRATIC PARTY       Easterly - 16                                          00 
01060010012000015DEM       BALLOTS CAST - DEMOCRATIC PARTY                         BALLOTS CAST - DEMOCRATIC PARTY       Ridge - 18                                             00 
01060010013000073DEM       BALLOTS CAST - DEMOCRATIC PARTY                         BALLOTS CAST - DEMOCRATIC PARTY       New Baden - 19                                         00 
01060010014000080DEM       BALLOTS CAST - DEMOCRATIC PARTY                         BALLOTS CAST - DEMOCRATIC PARTY       Blackshear - 22                                        00 
01060010015000137DEM       BALLOTS CAST - DEMOCRATIC PARTY                         BALLOTS CAST - DEMOCRATIC PARTY       Christian Faith - 23                                   00 
01070010001000002REP       President                                               John Davis                            Calvert - 1                                            01 
01070010002000001REP       President                                               John Davis                            Hearne - 2                                             01 
01070010003000000REP       President                                               John Davis                            Wheelock - 3                                           01 
01070010004000000REP       President                                               John Davis                            Bald Prairie - 4                                       01 
01070010005000000REP       President                                               John Davis                            Bremond - 5                                            01 
01070010006000002REP       President                                               John Davis                            Franklin - 6                                           01 
01070010007000000REP       President                                               John Davis                            Mumford - 7                                            01 
01070010008000000REP       President                                               John Davis                            Seale - 8                                              01 
01070010009000000REP       President                                               John Davis                            Benchley - 11                                          01 
01070010010000000REP       President                                               John Davis                            Elliott - 13                                           01 
01070010011000000REP       President                                               John Davis                            Easterly - 16                                          01 
01070010012000000REP       President                                               John Davis                            Ridge - 18                                             01 
01070010013000000REP       President                                               John Davis                            New Baden - 19                                         01 
01070010014000000REP       President                                               John Davis                            Blackshear - 22                                        01 
01070010015000000REP       President                                               John Davis                            Christian Faith - 23                                   01 
01070020001000000REP       President                                               Michele Bachmann                      Calvert - 1                                            01 
01070020002000000REP       President                                               Michele Bachmann                      Hearne - 2                                             01 
01070020003000000REP       President                                               Michele Bachmann                      Wheelock - 3                                           01 
01070020004000001REP       President                                               Michele Bachmann                      Bald Prairie - 4                                       01 
01070020005000002REP       President                                               Michele Bachmann                      Bremond - 5                                            01 
01070020006000002REP       President                                               Michele Bachmann                      Franklin - 6                                           01 
01070020007000000REP       President                                               Michele Bachmann                      Mumford - 7                                            01 
01070020008000000REP       President                                               Michele Bachmann                      Seale - 8                                              01 
01070020009000000REP       President                                               Michele Bachmann                      Benchley - 11                                          01 
01070020010000000REP       President                                               Michele Bachmann                      Elliott - 13                                           01 
01070020011000000REP       President                                               Michele Bachmann                      Easterly - 16                                          01 
01070020012000000REP       President                                               Michele Bachmann                      Ridge - 18                                             01 
01070020013000002REP       President                                               Michele Bachmann                      New Baden - 19                                         01 
01070020014000000REP       President                                               Michele Bachmann                      Blackshear - 22                                        01 
01070020015000000REP       President                                               Michele Bachmann                      Christian Faith - 23                                   01 
01070030001000001REP       President                                               Charles "Buddy" Roemer                Calvert - 1                                            01 
01070030002000001REP       President                                               Charles "Buddy" Roemer                Hearne - 2                                             01 
01070030003000000REP       President                                               Charles "Buddy" Roemer                Wheelock - 3                                           01 
01070030004000002REP       President                                               Charles "Buddy" Roemer                Bald Prairie - 4                                       01 
01070030005000002REP       President                                               Charles "Buddy" Roemer                Bremond - 5                                            01 
01070030006000000REP       President                                               Charles "Buddy" Roemer                Franklin - 6                                           01 
01070030007000000REP       President                                               Charles "Buddy" Roemer                Mumford - 7                                            01 
01070030008000000REP       President                                               Charles "Buddy" Roemer                Seale - 8                                              01 
01070030009000000REP       President                                               Charles "Buddy" Roemer                Benchley - 11                                          01 
01070030010000000REP       President                                               Charles "Buddy" Roemer                Elliott - 13                                           01 
01070030011000000REP       President                                               Charles "Buddy" Roemer                Easterly - 16                                          01 
01070030012000000REP       President                                               Charles "Buddy" Roemer                Ridge - 18                                             01 
01070030013000001REP       President                                               Charles "Buddy" Roemer                New Baden - 19                                         01 
01070030014000000REP       President                                               Charles "Buddy" Roemer                Blackshear - 22                                        01 
01070030015000000REP       President                                               Charles "Buddy" Roemer                Christian Faith - 23                                   01 
01070040001000007REP       President                                               Rick Santorum                         Calvert - 1                                            01 
01070040002000009REP       President                                               Rick Santorum                         Hearne - 2                                             01 
01070040003000007REP       President                                               Rick Santorum                         Wheelock - 3                                           01 
01070040004000005REP       President                                               Rick Santorum                         Bald Prairie - 4                                       01 
01070040005000022REP       President                                               Rick Santorum                         Bremond - 5                                            01 
01070040006000019REP       President                                               Rick Santorum                         Franklin - 6                                           01 
01070040007000000REP       President                                               Rick Santorum                         Mumford - 7                                            01 
01070040008000004REP       President                                               Rick Santorum                         Seale - 8                                              01 
01070040009000017REP       President                                               Rick Santorum                         Benchley - 11                                          01 
01070040010000010REP       President                                               Rick Santorum                         Elliott - 13                                           01 
01070040011000001REP       President                                               Rick Santorum                         Easterly - 16                                          01 
01070040012000000REP       President                                               Rick Santorum                         Ridge - 18                                             01 
01070040013000005REP       President                                               Rick Santorum                         New Baden - 19                                         01 
01070040014000000REP       President                                               Rick Santorum                         Blackshear - 22                                        01 
01070040015000004REP       President                                               Rick Santorum                         Christian Faith - 23                                   01 
01070050001000018REP       President                                               Ron Paul                              Calvert - 1                                            01 
01070050002000015REP       President                                               Ron Paul                              Hearne - 2                                             01 
01070050003000014REP       President                                               Ron Paul                              Wheelock - 3                                           01 
01070050004000003REP       President                                               Ron Paul                              Bald Prairie - 4                                       01 
01070050005000025REP       President                                               Ron Paul                              Bremond - 5                                            01 
01070050006000029REP       President                                               Ron Paul                              Franklin - 6                                           01 
01070050007000001REP       President                                               Ron Paul                              Mumford - 7                                            01 
01070050008000002REP       President                                               Ron Paul                              Seale - 8                                              01 
01070050009000020REP       President                                               Ron Paul                              Benchley - 11                                          01 
01070050010000001REP       President                                               Ron Paul                              Elliott - 13                                           01 
01070050011000004REP       President                                               Ron Paul                              Easterly - 16                                          01 
01070050012000002REP       President                                               Ron Paul                              Ridge - 18                                             01 
01070050013000014REP       President                                               Ron Paul                              New Baden - 19                                         01 
01070050014000002REP       President                                               Ron Paul                              Blackshear - 22                                        01 
01070050015000001REP       President                                               Ron Paul                              Christian Faith - 23                                   01 
01070060001000105REP       President                                               Mitt Romney                           Calvert - 1                                            01 
01070060002000110REP       President                                               Mitt Romney                           Hearne - 2                                             01 
01070060003000091REP       President                                               Mitt Romney                           Wheelock - 3                                           01 
01070060004000067REP       President                                               Mitt Romney                           Bald Prairie - 4                                       01 
01070060005000151REP       President                                               Mitt Romney                           Bremond - 5                                            01 
01070060006000133REP       President                                               Mitt Romney                           Franklin - 6                                           01 
01070060007000001REP       President                                               Mitt Romney                           Mumford - 7                                            01 
01070060008000055REP       President                                               Mitt Romney                           Seale - 8                                              01 
01070060009000129REP       President                                               Mitt Romney                           Benchley - 11                                          01 
01070060010000017REP       President                                               Mitt Romney                           Elliott - 13                                           01 
01070060011000020REP       President                                               Mitt Romney                           Easterly - 16                                          01 
01070060012000010REP       President                                               Mitt Romney                           Ridge - 18                                             01 
01070060013000090REP       President                                               Mitt Romney                           New Baden - 19                                         01 
01070060014000019REP       President                                               Mitt Romney                           Blackshear - 22                                        01 
01070060015000031REP       President                                               Mitt Romney                           Christian Faith - 23                                   01 
01070070001000000REP       President                                               Jon Huntsman                          Calvert - 1                                            01 
01070070002000000REP       President                                               Jon Huntsman                          Hearne - 2                                             01 
01070070003000001REP       President                                               Jon Huntsman                          Wheelock - 3                                           01 
01070070004000000REP       President                                               Jon Huntsman                          Bald Prairie - 4                                       01 
01070070005000000REP       President                                               Jon Huntsman                          Bremond - 5                                            01 
01070070006000000REP       President                                               Jon Huntsman                          Franklin - 6                                           01 
01070070007000000REP       President                                               Jon Huntsman                          Mumford - 7                                            01 
01070070008000000REP       President                                               Jon Huntsman                          Seale - 8                                              01 
01070070009000000REP       President                                               Jon Huntsman                          Benchley - 11                                          01 
01070070010000000REP       President                                               Jon Huntsman                          Elliott - 13                                           01 
01070070011000000REP       President                                               Jon Huntsman                          Easterly - 16                                          01 
01070070012000000REP       President                                               Jon Huntsman                          Ridge - 18                                             01 
01070070013000000REP       President                                               Jon Huntsman                          New Baden - 19                                         01 
01070070014000000REP       President                                               Jon Huntsman                          Blackshear - 22                                        01 
01070070015000000REP       President                                               Jon Huntsman                          Christian Faith - 23                                   01 
01070080001000008REP       President                                               Newt Gingrich                         Calvert - 1                                            01 
01070080002000003REP       President                                               Newt Gingrich                         Hearne - 2                                             01 
01070080003000004REP       President                                               Newt Gingrich                         Wheelock - 3                                           01 
01070080004000001REP       President                                               Newt Gingrich                         Bald Prairie - 4                                       01 
01070080005000005REP       President                                               Newt Gingrich                         Bremond - 5                                            01 
01070080006000020REP       President                                               Newt Gingrich                         Franklin - 6                                           01 
01070080007000000REP       President                                               Newt Gingrich                         Mumford - 7                                            01 
01070080008000003REP       President                                               Newt Gingrich                         Seale - 8                                              01 
01070080009000010REP       President                                               Newt Gingrich                         Benchley - 11                                          01 
01070080010000001REP       President                                               Newt Gingrich                         Elliott - 13                                           01 
01070080011000001REP       President                                               Newt Gingrich                         Easterly - 16                                          01 
01070080012000001REP       President                                               Newt Gingrich                         Ridge - 18                                             01 
01070080013000008REP       President                                               Newt Gingrich                         New Baden - 19                                         01 
01070080014000000REP       President                                               Newt Gingrich                         Blackshear - 22                                        01 
01070080015000000REP       President                                               Newt Gingrich                         Christian Faith - 23                                   01 
01070090001000002REP       President                                               Uncommitted                           Calvert - 1                                            01 
01070090002000003REP       President                                               Uncommitted                           Hearne - 2                                             01 
01070090003000007REP       President                                               Uncommitted                           Wheelock - 3                                           01 
01070090004000001REP       President                                               Uncommitted                           Bald Prairie - 4                                       01 
01070090005000011REP       President                                               Uncommitted                           Bremond - 5                                            01 
01070090006000008REP       President                                               Uncommitted                           Franklin - 6                                           01 
01070090007000000REP       President                                               Uncommitted                           Mumford - 7                                            01 
01070090008000002REP       President                                               Uncommitted                           Seale - 8                                              01 
01070090009000001REP       President                                               Uncommitted                           Benchley - 11                                          01 
01070090010000001REP       President                                               Uncommitted                           Elliott - 13                                           01 
01070090011000000REP       President                                               Uncommitted                           Easterly - 16                                          01 
01070090012000000REP       President                                               Uncommitted                           Ridge - 18                                             01 
01070090013000005REP       President                                               Uncommitted                           New Baden - 19                                         01 
01070090014000000REP       President                                               Uncommitted                           Blackshear - 22                                        01 
01070090015000005REP       President                                               Uncommitted                           Christian Faith - 23                                   01 
01070100001000000REP       President                                               OVER VOTES                            Calvert - 1                                            01 
01070100002000000REP       President                                               OVER VOTES                            Hearne - 2                                             01 
01070100003000000REP       President                                               OVER VOTES                            Wheelock - 3                                           01 
01070100004000000REP       President                                               OVER VOTES                            Bald Prairie - 4                                       01 
01070100005000000REP       President                                               OVER VOTES                            Bremond - 5                                            01 
01070100006000000REP       President                                               OVER VOTES                            Franklin - 6                                           01 
01070100007000000REP       President                                               OVER VOTES                            Mumford - 7                                            01 
01070100008000000REP       President                                               OVER VOTES                            Seale - 8                                              01 
01070100009000000REP       President                                               OVER VOTES                            Benchley - 11                                          01 
01070100010000000REP       President                                               OVER VOTES                            Elliott - 13                                           01 
01070100011000000REP       President                                               OVER VOTES                            Easterly - 16                                          01 
01070100012000000REP       President                                               OVER VOTES                            Ridge - 18                                             01 
01070100013000000REP       President                                               OVER VOTES                            New Baden - 19                                         01 
01070100014000000REP       President                                               OVER VOTES                            Blackshear - 22                                        01 
01070100015000000REP       President                                               OVER VOTES                            Christian Faith - 23                                   01 
01070110001000006REP       President                                               UNDER VOTES                           Calvert - 1                                            01 
01070110002000006REP       President                                               UNDER VOTES                           Hearne - 2                                             01 
01070110003000006REP       President                                               UNDER VOTES                           Wheelock - 3                                           01 
01070110004000000REP       President                                               UNDER VOTES                           Bald Prairie - 4                                       01 
01070110005000015REP       President                                               UNDER VOTES                           Bremond - 5                                            01 
01070110006000010REP       President                                               UNDER VOTES                           Franklin - 6                                           01 
01070110007000000REP       President                                               UNDER VOTES                           Mumford - 7                                            01 
01070110008000002REP       President                                               UNDER VOTES                           Seale - 8                                              01 
01070110009000002REP       President                                               UNDER VOTES                           Benchley - 11                                          01 
01070110010000000REP       President                                               UNDER VOTES                           Elliott - 13                                           01 
01070110011000002REP       President                                               UNDER VOTES                           Easterly - 16                                          01 
01070110012000001REP       President                                               UNDER VOTES                           Ridge - 18                                             01 
01070110013000003REP       President                                               UNDER VOTES                           New Baden - 19                                         01 
01070110014000001REP       President                                               UNDER VOTES                           Blackshear - 22                                        01 
01070110015000001REP       President                                               UNDER VOTES                           Christian Faith - 23                                   01 
01080010001000004REP       United States Senator                                   Lela Pittenger                        Calvert - 1                                            01 
01080010002000001REP       United States Senator                                   Lela Pittenger                        Hearne - 2                                             01 
01080010003000000REP       United States Senator                                   Lela Pittenger                        Wheelock - 3                                           01 
01080010004000001REP       United States Senator                                   Lela Pittenger                        Bald Prairie - 4                                       01 
01080010005000002REP       United States Senator                                   Lela Pittenger                        Bremond - 5                                            01 
01080010006000002REP       United States Senator                                   Lela Pittenger                        Franklin - 6                                           01 
01080010007000000REP       United States Senator                                   Lela Pittenger                        Mumford - 7                                            01 
01080010008000000REP       United States Senator                                   Lela Pittenger                        Seale - 8                                              01 
01080010009000002REP       United States Senator                                   Lela Pittenger                        Benchley - 11                                          01 
01080010010000000REP       United States Senator                                   Lela Pittenger                        Elliott - 13                                           01 
01080010011000000REP       United States Senator                                   Lela Pittenger                        Easterly - 16                                          01 
01080010012000000REP       United States Senator                                   Lela Pittenger                        Ridge - 18                                             01 
01080010013000002REP       United States Senator                                   Lela Pittenger                        New Baden - 19                                         01 
01080010014000000REP       United States Senator                                   Lela Pittenger                        Blackshear - 22                                        01 
01080010015000000REP       United States Senator                                   Lela Pittenger                        Christian Faith - 23                                   01 
01080020001000007REP       United States Senator                                   Craig James                           Calvert - 1                                            01 
01080020002000008REP       United States Senator                                   Craig James                           Hearne - 2                                             01 
01080020003000003REP       United States Senator                                   Craig James                           Wheelock - 3                                           01 
01080020004000004REP       United States Senator                                   Craig James                           Bald Prairie - 4                                       01 
01080020005000012REP       United States Senator                                   Craig James                           Bremond - 5                                            01 
01080020006000016REP       United States Senator                                   Craig James                           Franklin - 6                                           01 
01080020007000000REP       United States Senator                                   Craig James                           Mumford - 7                                            01 
01080020008000001REP       United States Senator                                   Craig James                           Seale - 8                                              01 
01080020009000004REP       United States Senator                                   Craig James                           Benchley - 11                                          01 
01080020010000006REP       United States Senator                                   Craig James                           Elliott - 13                                           01 
01080020011000002REP       United States Senator                                   Craig James                           Easterly - 16                                          01 
01080020012000003REP       United States Senator                                   Craig James                           Ridge - 18                                             01 
01080020013000010REP       United States Senator                                   Craig James                           New Baden - 19                                         01 
01080020014000001REP       United States Senator                                   Craig James                           Blackshear - 22                                        01 
01080020015000001REP       United States Senator                                   Craig James                           Christian Faith - 23                                   01 
01080030001000012REP       United States Senator                                   Tom Leppert                           Calvert - 1                                            01 
01080030002000008REP       United States Senator                                   Tom Leppert                           Hearne - 2                                             01 
01080030003000005REP       United States Senator                                   Tom Leppert                           Wheelock - 3                                           01 
01080030004000009REP       United States Senator                                   Tom Leppert                           Bald Prairie - 4                                       01 
01080030005000015REP       United States Senator                                   Tom Leppert                           Bremond - 5                                            01 
01080030006000010REP       United States Senator                                   Tom Leppert                           Franklin - 6                                           01 
01080030007000000REP       United States Senator                                   Tom Leppert                           Mumford - 7                                            01 
01080030008000004REP       United States Senator                                   Tom Leppert                           Seale - 8                                              01 
01080030009000011REP       United States Senator                                   Tom Leppert                           Benchley - 11                                          01 
01080030010000003REP       United States Senator                                   Tom Leppert                           Elliott - 13                                           01 
01080030011000002REP       United States Senator                                   Tom Leppert                           Easterly - 16                                          01 
01080030012000001REP       United States Senator                                   Tom Leppert                           Ridge - 18                                             01 
01080030013000010REP       United States Senator                                   Tom Leppert                           New Baden - 19                                         01 
01080030014000001REP       United States Senator                                   Tom Leppert                           Blackshear - 22                                        01 
01080030015000002REP       United States Senator                                   Tom Leppert                           Christian Faith - 23                                   01 
01080040001000002REP       United States Senator                                   Glenn Addison                         Calvert - 1                                            01 
01080040002000001REP       United States Senator                                   Glenn Addison                         Hearne - 2                                             01 
01080040003000006REP       United States Senator                                   Glenn Addison                         Wheelock - 3                                           01 
01080040004000000REP       United States Senator                                   Glenn Addison                         Bald Prairie - 4                                       01 
01080040005000006REP       United States Senator                                   Glenn Addison                         Bremond - 5                                            01 
01080040006000004REP       United States Senator                                   Glenn Addison                         Franklin - 6                                           01 
01080040007000000REP       United States Senator                                   Glenn Addison                         Mumford - 7                                            01 
01080040008000001REP       United States Senator                                   Glenn Addison                         Seale - 8                                              01 
01080040009000001REP       United States Senator                                   Glenn Addison                         Benchley - 11                                          01 
01080040010000001REP       United States Senator                                   Glenn Addison                         Elliott - 13                                           01 
01080040011000000REP       United States Senator                                   Glenn Addison                         Easterly - 16                                          01 
01080040012000001REP       United States Senator                                   Glenn Addison                         Ridge - 18                                             01 
01080040013000002REP       United States Senator                                   Glenn Addison                         New Baden - 19                                         01 
01080040014000000REP       United States Senator                                   Glenn Addison                         Blackshear - 22                                        01 
01080040015000000REP       United States Senator                                   Glenn Addison                         Christian Faith - 23                                   01 
01080050001000002REP       United States Senator                                   Ben Gambini                           Calvert - 1                                            01 
01080050002000002REP       United States Senator                                   Ben Gambini                           Hearne - 2                                             01 
01080050003000002REP       United States Senator                                   Ben Gambini                           Wheelock - 3                                           01 
01080050004000000REP       United States Senator                                   Ben Gambini                           Bald Prairie - 4                                       01 
01080050005000001REP       United States Senator                                   Ben Gambini                           Bremond - 5                                            01 
01080050006000006REP       United States Senator                                   Ben Gambini                           Franklin - 6                                           01 
01080050007000000REP       United States Senator                                   Ben Gambini                           Mumford - 7                                            01 
01080050008000000REP       United States Senator                                   Ben Gambini                           Seale - 8                                              01 
01080050009000000REP       United States Senator                                   Ben Gambini                           Benchley - 11                                          01 
01080050010000000REP       United States Senator                                   Ben Gambini                           Elliott - 13                                           01 
01080050011000000REP       United States Senator                                   Ben Gambini                           Easterly - 16                                          01 
01080050012000000REP       United States Senator                                   Ben Gambini                           Ridge - 18                                             01 
01080050013000000REP       United States Senator                                   Ben Gambini                           New Baden - 19                                         01 
01080050014000000REP       United States Senator                                   Ben Gambini                           Blackshear - 22                                        01 
01080050015000000REP       United States Senator                                   Ben Gambini                           Christian Faith - 23                                   01 
01080060001000061REP       United States Senator                                   David Dewhurst                        Calvert - 1                                            01 
01080060002000078REP       United States Senator                                   David Dewhurst                        Hearne - 2                                             01 
01080060003000063REP       United States Senator                                   David Dewhurst                        Wheelock - 3                                           01 
01080060004000044REP       United States Senator                                   David Dewhurst                        Bald Prairie - 4                                       01 
01080060005000112REP       United States Senator                                   David Dewhurst                        Bremond - 5                                            01 
01080060006000111REP       United States Senator                                   David Dewhurst                        Franklin - 6                                           01 
01080060007000002REP       United States Senator                                   David Dewhurst                        Mumford - 7                                            01 
01080060008000039REP       United States Senator                                   David Dewhurst                        Seale - 8                                              01 
01080060009000093REP       United States Senator                                   David Dewhurst                        Benchley - 11                                          01 
01080060010000009REP       United States Senator                                   David Dewhurst                        Elliott - 13                                           01 
01080060011000010REP       United States Senator                                   David Dewhurst                        Easterly - 16                                          01 
01080060012000008REP       United States Senator                                   David Dewhurst                        Ridge - 18                                             01 
01080060013000041REP       United States Senator                                   David Dewhurst                        New Baden - 19                                         01 
01080060014000012REP       United States Senator                                   David Dewhurst                        Blackshear - 22                                        01 
01080060015000023REP       United States Senator                                   David Dewhurst                        Christian Faith - 23                                   01 
01080070001000000REP       United States Senator                                   Curt Cleaver                          Calvert - 1                                            01 
01080070002000001REP       United States Senator                                   Curt Cleaver                          Hearne - 2                                             01 
01080070003000000REP       United States Senator                                   Curt Cleaver                          Wheelock - 3                                           01 
01080070004000000REP       United States Senator                                   Curt Cleaver                          Bald Prairie - 4                                       01 
01080070005000002REP       United States Senator                                   Curt Cleaver                          Bremond - 5                                            01 
01080070006000001REP       United States Senator                                   Curt Cleaver                          Franklin - 6                                           01 
01080070007000000REP       United States Senator                                   Curt Cleaver                          Mumford - 7                                            01 
01080070008000000REP       United States Senator                                   Curt Cleaver                          Seale - 8                                              01 
01080070009000000REP       United States Senator                                   Curt Cleaver                          Benchley - 11                                          01 
01080070010000000REP       United States Senator                                   Curt Cleaver                          Elliott - 13                                           01 
01080070011000000REP       United States Senator                                   Curt Cleaver                          Easterly - 16                                          01 
01080070012000000REP       United States Senator                                   Curt Cleaver                          Ridge - 18                                             01 
01080070013000001REP       United States Senator                                   Curt Cleaver                          New Baden - 19                                         01 
01080070014000000REP       United States Senator                                   Curt Cleaver                          Blackshear - 22                                        01 
01080070015000000REP       United States Senator                                   Curt Cleaver                          Christian Faith - 23                                   01 
01080080001000001REP       United States Senator                                   Joe Agris                             Calvert - 1                                            01 
01080080002000000REP       United States Senator                                   Joe Agris                             Hearne - 2                                             01 
01080080003000000REP       United States Senator                                   Joe Agris                             Wheelock - 3                                           01 
01080080004000000REP       United States Senator                                   Joe Agris                             Bald Prairie - 4                                       01 
01080080005000000REP       United States Senator                                   Joe Agris                             Bremond - 5                                            01 
01080080006000000REP       United States Senator                                   Joe Agris                             Franklin - 6                                           01 
01080080007000000REP       United States Senator                                   Joe Agris                             Mumford - 7                                            01 
01080080008000000REP       United States Senator                                   Joe Agris                             Seale - 8                                              01 
01080080009000000REP       United States Senator                                   Joe Agris                             Benchley - 11                                          01 
01080080010000000REP       United States Senator                                   Joe Agris                             Elliott - 13                                           01 
01080080011000000REP       United States Senator                                   Joe Agris                             Easterly - 16                                          01 
01080080012000000REP       United States Senator                                   Joe Agris                             Ridge - 18                                             01 
01080080013000000REP       United States Senator                                   Joe Agris                             New Baden - 19                                         01 
01080080014000001REP       United States Senator                                   Joe Agris                             Blackshear - 22                                        01 
01080080015000000REP       United States Senator                                   Joe Agris                             Christian Faith - 23                                   01 
01080090001000048REP       United States Senator                                   Ted Cruz                              Calvert - 1                                            01 
01080090002000037REP       United States Senator                                   Ted Cruz                              Hearne - 2                                             01 
01080090003000047REP       United States Senator                                   Ted Cruz                              Wheelock - 3                                           01 
01080090004000017REP       United States Senator                                   Ted Cruz                              Bald Prairie - 4                                       01 
01080090005000062REP       United States Senator                                   Ted Cruz                              Bremond - 5                                            01 
01080090006000053REP       United States Senator                                   Ted Cruz                              Franklin - 6                                           01 
01080090007000000REP       United States Senator                                   Ted Cruz                              Mumford - 7                                            01 
01080090008000022REP       United States Senator                                   Ted Cruz                              Seale - 8                                              01 
01080090009000067REP       United States Senator                                   Ted Cruz                              Benchley - 11                                          01 
01080090010000006REP       United States Senator                                   Ted Cruz                              Elliott - 13                                           01 
01080090011000012REP       United States Senator                                   Ted Cruz                              Easterly - 16                                          01 
01080090012000000REP       United States Senator                                   Ted Cruz                              Ridge - 18                                             01 
01080090013000050REP       United States Senator                                   Ted Cruz                              New Baden - 19                                         01 
01080090014000006REP       United States Senator                                   Ted Cruz                              Blackshear - 22                                        01 
01080090015000013REP       United States Senator                                   Ted Cruz                              Christian Faith - 23                                   01 
01080100001000000REP       United States Senator                                   OVER VOTES                            Calvert - 1                                            01 
01080100002000000REP       United States Senator                                   OVER VOTES                            Hearne - 2                                             01 
01080100003000000REP       United States Senator                                   OVER VOTES                            Wheelock - 3                                           01 
01080100004000000REP       United States Senator                                   OVER VOTES                            Bald Prairie - 4                                       01 
01080100005000000REP       United States Senator                                   OVER VOTES                            Bremond - 5                                            01 
01080100006000000REP       United States Senator                                   OVER VOTES                            Franklin - 6                                           01 
01080100007000000REP       United States Senator                                   OVER VOTES                            Mumford - 7                                            01 
01080100008000000REP       United States Senator                                   OVER VOTES                            Seale - 8                                              01 
01080100009000000REP       United States Senator                                   OVER VOTES                            Benchley - 11                                          01 
01080100010000001REP       United States Senator                                   OVER VOTES                            Elliott - 13                                           01 
01080100011000000REP       United States Senator                                   OVER VOTES                            Easterly - 16                                          01 
01080100012000000REP       United States Senator                                   OVER VOTES                            Ridge - 18                                             01 
01080100013000000REP       United States Senator                                   OVER VOTES                            New Baden - 19                                         01 
01080100014000000REP       United States Senator                                   OVER VOTES                            Blackshear - 22                                        01 
01080100015000000REP       United States Senator                                   OVER VOTES                            Christian Faith - 23                                   01 
01080110001000012REP       United States Senator                                   UNDER VOTES                           Calvert - 1                                            01 
01080110002000012REP       United States Senator                                   UNDER VOTES                           Hearne - 2                                             01 
01080110003000004REP       United States Senator                                   UNDER VOTES                           Wheelock - 3                                           01 
01080110004000005REP       United States Senator                                   UNDER VOTES                           Bald Prairie - 4                                       01 
01080110005000021REP       United States Senator                                   UNDER VOTES                           Bremond - 5                                            01 
01080110006000020REP       United States Senator                                   UNDER VOTES                           Franklin - 6                                           01 
01080110007000000REP       United States Senator                                   UNDER VOTES                           Mumford - 7                                            01 
01080110008000001REP       United States Senator                                   UNDER VOTES                           Seale - 8                                              01 
01080110009000001REP       United States Senator                                   UNDER VOTES                           Benchley - 11                                          01 
01080110010000004REP       United States Senator                                   UNDER VOTES                           Elliott - 13                                           01 
01080110011000002REP       United States Senator                                   UNDER VOTES                           Easterly - 16                                          01 
01080110012000001REP       United States Senator                                   UNDER VOTES                           Ridge - 18                                             01 
01080110013000012REP       United States Senator                                   UNDER VOTES                           New Baden - 19                                         01 
01080110014000001REP       United States Senator                                   UNDER VOTES                           Blackshear - 22                                        01 
01080110015000003REP       United States Senator                                   UNDER VOTES                           Christian Faith - 23                                   01 
01090010001000024REP       US Representative, District 17                          George W. Hindman                     Calvert - 1                                            01 
01090010002000024REP       US Representative, District 17                          George W. Hindman                     Hearne - 2                                             01 
01090010003000012REP       US Representative, District 17                          George W. Hindman                     Wheelock - 3                                           01 
01090010004000003REP       US Representative, District 17                          George W. Hindman                     Bald Prairie - 4                                       01 
01090010005000025REP       US Representative, District 17                          George W. Hindman                     Bremond - 5                                            01 
01090010006000022REP       US Representative, District 17                          George W. Hindman                     Franklin - 6                                           01 
01090010007000000REP       US Representative, District 17                          George W. Hindman                     Mumford - 7                                            01 
01090010008000006REP       US Representative, District 17                          George W. Hindman                     Seale - 8                                              01 
01090010009000021REP       US Representative, District 17                          George W. Hindman                     Benchley - 11                                          01 
01090010010000001REP       US Representative, District 17                          George W. Hindman                     Elliott - 13                                           01 
01090010011000000REP       US Representative, District 17                          George W. Hindman                     Easterly - 16                                          01 
01090010012000000REP       US Representative, District 17                          George W. Hindman                     Ridge - 18                                             01 
01090010013000010REP       US Representative, District 17                          George W. Hindman                     New Baden - 19                                         01 
01090010014000001REP       US Representative, District 17                          George W. Hindman                     Blackshear - 22                                        01 
01090010015000002REP       US Representative, District 17                          George W. Hindman                     Christian Faith - 23                                   01 
01090020001000109REP       US Representative, District 17                          Bill Flores                           Calvert - 1                                            01 
01090020002000111REP       US Representative, District 17                          Bill Flores                           Hearne - 2                                             01 
01090020003000113REP       US Representative, District 17                          Bill Flores                           Wheelock - 3                                           01 
01090020004000072REP       US Representative, District 17                          Bill Flores                           Bald Prairie - 4                                       01 
01090020005000178REP       US Representative, District 17                          Bill Flores                           Bremond - 5                                            01 
01090020006000188REP       US Representative, District 17                          Bill Flores                           Franklin - 6                                           01 
01090020007000002REP       US Representative, District 17                          Bill Flores                           Mumford - 7                                            01 
01090020008000058REP       US Representative, District 17                          Bill Flores                           Seale - 8                                              01 
01090020009000152REP       US Representative, District 17                          Bill Flores                           Benchley - 11                                          01 
01090020010000026REP       US Representative, District 17                          Bill Flores                           Elliott - 13                                           01 
01090020011000027REP       US Representative, District 17                          Bill Flores                           Easterly - 16                                          01 
01090020012000012REP       US Representative, District 17                          Bill Flores                           Ridge - 18                                             01 
01090020013000112REP       US Representative, District 17                          Bill Flores                           New Baden - 19                                         01 
01090020014000020REP       US Representative, District 17                          Bill Flores                           Blackshear - 22                                        01 
01090020015000039REP       US Representative, District 17                          Bill Flores                           Christian Faith - 23                                   01 
01090030001000000REP       US Representative, District 17                          OVER VOTES                            Calvert - 1                                            01 
01090030002000000REP       US Representative, District 17                          OVER VOTES                            Hearne - 2                                             01 
01090030003000000REP       US Representative, District 17                          OVER VOTES                            Wheelock - 3                                           01 
01090030004000000REP       US Representative, District 17                          OVER VOTES                            Bald Prairie - 4                                       01 
01090030005000000REP       US Representative, District 17                          OVER VOTES                            Bremond - 5                                            01 
01090030006000000REP       US Representative, District 17                          OVER VOTES                            Franklin - 6                                           01 
01090030007000000REP       US Representative, District 17                          OVER VOTES                            Mumford - 7                                            01 
01090030008000000REP       US Representative, District 17                          OVER VOTES                            Seale - 8                                              01 
01090030009000000REP       US Representative, District 17                          OVER VOTES                            Benchley - 11                                          01 
01090030010000000REP       US Representative, District 17                          OVER VOTES                            Elliott - 13                                           01 
01090030011000000REP       US Representative, District 17                          OVER VOTES                            Easterly - 16                                          01 
01090030012000000REP       US Representative, District 17                          OVER VOTES                            Ridge - 18                                             01 
01090030013000000REP       US Representative, District 17                          OVER VOTES                            New Baden - 19                                         01 
01090030014000000REP       US Representative, District 17                          OVER VOTES                            Blackshear - 22                                        01 
01090030015000000REP       US Representative, District 17                          OVER VOTES                            Christian Faith - 23                                   01 
01090040001000016REP       US Representative, District 17                          UNDER VOTES                           Calvert - 1                                            01 
01090040002000013REP       US Representative, District 17                          UNDER VOTES                           Hearne - 2                                             01 
01090040003000005REP       US Representative, District 17                          UNDER VOTES                           Wheelock - 3                                           01 
01090040004000005REP       US Representative, District 17                          UNDER VOTES                           Bald Prairie - 4                                       01 
01090040005000030REP       US Representative, District 17                          UNDER VOTES                           Bremond - 5                                            01 
01090040006000013REP       US Representative, District 17                          UNDER VOTES                           Franklin - 6                                           01 
01090040007000000REP       US Representative, District 17                          UNDER VOTES                           Mumford - 7                                            01 
01090040008000004REP       US Representative, District 17                          UNDER VOTES                           Seale - 8                                              01 
01090040009000006REP       US Representative, District 17                          UNDER VOTES                           Benchley - 11                                          01 
01090040010000003REP       US Representative, District 17                          UNDER VOTES                           Elliott - 13                                           01 
01090040011000001REP       US Representative, District 17                          UNDER VOTES                           Easterly - 16                                          01 
01090040012000002REP       US Representative, District 17                          UNDER VOTES                           Ridge - 18                                             01 
01090040013000006REP       US Representative, District 17                          UNDER VOTES                           New Baden - 19                                         01 
01090040014000001REP       US Representative, District 17                          UNDER VOTES                           Blackshear - 22                                        01 
01090040015000001REP       US Representative, District 17                          UNDER VOTES                           Christian Faith - 23                                   01 
01100010001000013REP       Railroad Commissioner                                   Becky Berger                          Calvert - 1                                            01 
01100010002000015REP       Railroad Commissioner                                   Becky Berger                          Hearne - 2                                             01 
01100010003000012REP       Railroad Commissioner                                   Becky Berger                          Wheelock - 3                                           01 
01100010004000008REP       Railroad Commissioner                                   Becky Berger                          Bald Prairie - 4                                       01 
01100010005000032REP       Railroad Commissioner                                   Becky Berger                          Bremond - 5                                            01 
01100010006000025REP       Railroad Commissioner                                   Becky Berger                          Franklin - 6                                           01 
01100010007000000REP       Railroad Commissioner                                   Becky Berger                          Mumford - 7                                            01 
01100010008000014REP       Railroad Commissioner                                   Becky Berger                          Seale - 8                                              01 
01100010009000017REP       Railroad Commissioner                                   Becky Berger                          Benchley - 11                                          01 
01100010010000003REP       Railroad Commissioner                                   Becky Berger                          Elliott - 13                                           01 
01100010011000004REP       Railroad Commissioner                                   Becky Berger                          Easterly - 16                                          01 
01100010012000001REP       Railroad Commissioner                                   Becky Berger                          Ridge - 18                                             01 
01100010013000021REP       Railroad Commissioner                                   Becky Berger                          New Baden - 19                                         01 
01100010014000002REP       Railroad Commissioner                                   Becky Berger                          Blackshear - 22                                        01 
01100010015000008REP       Railroad Commissioner                                   Becky Berger                          Christian Faith - 23                                   01 
01100020001000013REP       Railroad Commissioner                                   Joe Cotten                            Calvert - 1                                            01 
01100020002000026REP       Railroad Commissioner                                   Joe Cotten                            Hearne - 2                                             01 
01100020003000011REP       Railroad Commissioner                                   Joe Cotten                            Wheelock - 3                                           01 
01100020004000010REP       Railroad Commissioner                                   Joe Cotten                            Bald Prairie - 4                                       01 
01100020005000029REP       Railroad Commissioner                                   Joe Cotten                            Bremond - 5                                            01 
01100020006000025REP       Railroad Commissioner                                   Joe Cotten                            Franklin - 6                                           01 
01100020007000000REP       Railroad Commissioner                                   Joe Cotten                            Mumford - 7                                            01 
01100020008000005REP       Railroad Commissioner                                   Joe Cotten                            Seale - 8                                              01 
01100020009000008REP       Railroad Commissioner                                   Joe Cotten                            Benchley - 11                                          01 
01100020010000002REP       Railroad Commissioner                                   Joe Cotten                            Elliott - 13                                           01 
01100020011000000REP       Railroad Commissioner                                   Joe Cotten                            Easterly - 16                                          01 
01100020012000001REP       Railroad Commissioner                                   Joe Cotten                            Ridge - 18                                             01 
01100020013000012REP       Railroad Commissioner                                   Joe Cotten                            New Baden - 19                                         01 
01100020014000001REP       Railroad Commissioner                                   Joe Cotten                            Blackshear - 22                                        01 
01100020015000005REP       Railroad Commissioner                                   Joe Cotten                            Christian Faith - 23                                   01 
01100030001000036REP       Railroad Commissioner                                   Christi Craddick                      Calvert - 1                                            01 
01100030002000044REP       Railroad Commissioner                                   Christi Craddick                      Hearne - 2                                             01 
01100030003000049REP       Railroad Commissioner                                   Christi Craddick                      Wheelock - 3                                           01 
01100030004000024REP       Railroad Commissioner                                   Christi Craddick                      Bald Prairie - 4                                       01 
01100030005000049REP       Railroad Commissioner                                   Christi Craddick                      Bremond - 5                                            01 
01100030006000072REP       Railroad Commissioner                                   Christi Craddick                      Franklin - 6                                           01 
01100030007000000REP       Railroad Commissioner                                   Christi Craddick                      Mumford - 7                                            01 
01100030008000019REP       Railroad Commissioner                                   Christi Craddick                      Seale - 8                                              01 
01100030009000073REP       Railroad Commissioner                                   Christi Craddick                      Benchley - 11                                          01 
01100030010000010REP       Railroad Commissioner                                   Christi Craddick                      Elliott - 13                                           01 
01100030011000013REP       Railroad Commissioner                                   Christi Craddick                      Easterly - 16                                          01 
01100030012000005REP       Railroad Commissioner                                   Christi Craddick                      Ridge - 18                                             01 
01100030013000033REP       Railroad Commissioner                                   Christi Craddick                      New Baden - 19                                         01 
01100030014000009REP       Railroad Commissioner                                   Christi Craddick                      Blackshear - 22                                        01 
01100030015000015REP       Railroad Commissioner                                   Christi Craddick                      Christian Faith - 23                                   01 
01100040001000010REP       Railroad Commissioner                                   Beryl Burgess                         Calvert - 1                                            01 
01100040002000005REP       Railroad Commissioner                                   Beryl Burgess                         Hearne - 2                                             01 
01100040003000008REP       Railroad Commissioner                                   Beryl Burgess                         Wheelock - 3                                           01 
01100040004000004REP       Railroad Commissioner                                   Beryl Burgess                         Bald Prairie - 4                                       01 
01100040005000009REP       Railroad Commissioner                                   Beryl Burgess                         Bremond - 5                                            01 
01100040006000008REP       Railroad Commissioner                                   Beryl Burgess                         Franklin - 6                                           01 
01100040007000001REP       Railroad Commissioner                                   Beryl Burgess                         Mumford - 7                                            01 
01100040008000003REP       Railroad Commissioner                                   Beryl Burgess                         Seale - 8                                              01 
01100040009000004REP       Railroad Commissioner                                   Beryl Burgess                         Benchley - 11                                          01 
01100040010000000REP       Railroad Commissioner                                   Beryl Burgess                         Elliott - 13                                           01 
01100040011000000REP       Railroad Commissioner                                   Beryl Burgess                         Easterly - 16                                          01 
01100040012000002REP       Railroad Commissioner                                   Beryl Burgess                         Ridge - 18                                             01 
01100040013000004REP       Railroad Commissioner                                   Beryl Burgess                         New Baden - 19                                         01 
01100040014000001REP       Railroad Commissioner                                   Beryl Burgess                         Blackshear - 22                                        01 
01100040015000000REP       Railroad Commissioner                                   Beryl Burgess                         Christian Faith - 23                                   01 
01100050001000039REP       Railroad Commissioner                                   Warren Chisum                         Calvert - 1                                            01 
01100050002000018REP       Railroad Commissioner                                   Warren Chisum                         Hearne - 2                                             01 
01100050003000020REP       Railroad Commissioner                                   Warren Chisum                         Wheelock - 3                                           01 
01100050004000013REP       Railroad Commissioner                                   Warren Chisum                         Bald Prairie - 4                                       01 
01100050005000029REP       Railroad Commissioner                                   Warren Chisum                         Bremond - 5                                            01 
01100050006000037REP       Railroad Commissioner                                   Warren Chisum                         Franklin - 6                                           01 
01100050007000000REP       Railroad Commissioner                                   Warren Chisum                         Mumford - 7                                            01 
01100050008000013REP       Railroad Commissioner                                   Warren Chisum                         Seale - 8                                              01 
01100050009000035REP       Railroad Commissioner                                   Warren Chisum                         Benchley - 11                                          01 
01100050010000006REP       Railroad Commissioner                                   Warren Chisum                         Elliott - 13                                           01 
01100050011000004REP       Railroad Commissioner                                   Warren Chisum                         Easterly - 16                                          01 
01100050012000001REP       Railroad Commissioner                                   Warren Chisum                         Ridge - 18                                             01 
