01020010001000000REP       REGISTERED VOTERS - REPUBLICAN PARTY                    REGISTERED VOTERS - REPUBLICAN PARTY  PRECINCT 5                                             00 
01020010002000000REP       REGISTERED VOTERS - REPUBLICAN PARTY                    REGISTERED VOTERS - REPUBLICAN PARTY  PRECINCT 6                                             00 
01020010003000000REP       REGISTERED VOTERS - REPUBLICAN PARTY                    REGISTERED VOTERS - REPUBLICAN PARTY  PRECINCT 7                                             00 
01020010004000000REP       REGISTERED VOTERS - REPUBLICAN PARTY                    REGISTERED VOTERS - REPUBLICAN PARTY  PRECINCT 8                                             00 
01020010005000000REP       REGISTERED VOTERS - REPUBLICAN PARTY                    REGISTERED VOTERS - REPUBLICAN PARTY  PRECINCT 9                                             00 
01020010006000000REP       REGISTERED VOTERS - REPUBLICAN PARTY                    REGISTERED VOTERS - REPUBLICAN PARTY  PRECINCT 10                                            00 
01020010007000000REP       REGISTERED VOTERS - REPUBLICAN PARTY                    REGISTERED VOTERS - REPUBLICAN PARTY  PRECINCT 11                                            00 
01020010008000000REP       REGISTERED VOTERS - REPUBLICAN PARTY                    REGISTERED VOTERS - REPUBLICAN PARTY  PRECINCT 12                                            00 
01020010009000000REP       REGISTERED VOTERS - REPUBLICAN PARTY                    REGISTERED VOTERS - REPUBLICAN PARTY  PRECINCT 13                                            00 
01020010010000000REP       REGISTERED VOTERS - REPUBLICAN PARTY                    REGISTERED VOTERS - REPUBLICAN PARTY  PRECINCT 14                                            00 
01020010011000000REP       REGISTERED VOTERS - REPUBLICAN PARTY                    REGISTERED VOTERS - REPUBLICAN PARTY  PRECINCT 15                                            00 
01030010001000000DEM       REGISTERED VOTERS - DEMOCRATIC PARTY                    REGISTERED VOTERS - DEMOCRATIC PARTY  PRECINCT 5                                             00 
01030010002000000DEM       REGISTERED VOTERS - DEMOCRATIC PARTY                    REGISTERED VOTERS - DEMOCRATIC PARTY  PRECINCT 6                                             00 
01030010003000000DEM       REGISTERED VOTERS - DEMOCRATIC PARTY                    REGISTERED VOTERS - DEMOCRATIC PARTY  PRECINCT 7                                             00 
01030010004000000DEM       REGISTERED VOTERS - DEMOCRATIC PARTY                    REGISTERED VOTERS - DEMOCRATIC PARTY  PRECINCT 8                                             00 
01030010005000000DEM       REGISTERED VOTERS - DEMOCRATIC PARTY                    REGISTERED VOTERS - DEMOCRATIC PARTY  PRECINCT 9                                             00 
01030010006000000DEM       REGISTERED VOTERS - DEMOCRATIC PARTY                    REGISTERED VOTERS - DEMOCRATIC PARTY  PRECINCT 10                                            00 
01030010007000000DEM       REGISTERED VOTERS - DEMOCRATIC PARTY                    REGISTERED VOTERS - DEMOCRATIC PARTY  PRECINCT 11                                            00 
01030010008000000DEM       REGISTERED VOTERS - DEMOCRATIC PARTY                    REGISTERED VOTERS - DEMOCRATIC PARTY  PRECINCT 12                                            00 
01030010009000000DEM       REGISTERED VOTERS - DEMOCRATIC PARTY                    REGISTERED VOTERS - DEMOCRATIC PARTY  PRECINCT 13                                            00 
01030010010000000DEM       REGISTERED VOTERS - DEMOCRATIC PARTY                    REGISTERED VOTERS - DEMOCRATIC PARTY  PRECINCT 14                                            00 
01030010011000000DEM       REGISTERED VOTERS - DEMOCRATIC PARTY                    REGISTERED VOTERS - DEMOCRATIC PARTY  PRECINCT 15                                            00 
01040010001000034          BALLOTS CAST - TOTAL                                    BALLOTS CAST - TOTAL                  PRECINCT 5                                             00 
01040010002000086          BALLOTS CAST - TOTAL                                    BALLOTS CAST - TOTAL                  PRECINCT 6                                             00 
01040010003000645          BALLOTS CAST - TOTAL                                    BALLOTS CAST - TOTAL                  PRECINCT 7                                             00 
01040010004000242          BALLOTS CAST - TOTAL                                    BALLOTS CAST - TOTAL                  PRECINCT 8                                             00 
01040010005000153          BALLOTS CAST - TOTAL                                    BALLOTS CAST - TOTAL                  PRECINCT 9                                             00 
01040010006000408          BALLOTS CAST - TOTAL                                    BALLOTS CAST - TOTAL                  PRECINCT 10                                            00 
01040010007000041          BALLOTS CAST - TOTAL                                    BALLOTS CAST - TOTAL                  PRECINCT 11                                            00 
01040010008000268          BALLOTS CAST - TOTAL                                    BALLOTS CAST - TOTAL                  PRECINCT 12                                            00 
01040010009000106          BALLOTS CAST - TOTAL                                    BALLOTS CAST - TOTAL                  PRECINCT 13                                            00 
01040010010000040          BALLOTS CAST - TOTAL                                    BALLOTS CAST - TOTAL                  PRECINCT 14                                            00 
01040010011000242          BALLOTS CAST - TOTAL                                    BALLOTS CAST - TOTAL                  PRECINCT 15                                            00 
01050010001000031REP       BALLOTS CAST - REPUBLICAN PARTY                         BALLOTS CAST - REPUBLICAN PARTY       PRECINCT 5                                             00 
01050010002000086REP       BALLOTS CAST - REPUBLICAN PARTY                         BALLOTS CAST - REPUBLICAN PARTY       PRECINCT 6                                             00 
01050010003000629REP       BALLOTS CAST - REPUBLICAN PARTY                         BALLOTS CAST - REPUBLICAN PARTY       PRECINCT 7                                             00 
01050010004000234REP       BALLOTS CAST - REPUBLICAN PARTY                         BALLOTS CAST - REPUBLICAN PARTY       PRECINCT 8                                             00 
01050010005000146REP       BALLOTS CAST - REPUBLICAN PARTY                         BALLOTS CAST - REPUBLICAN PARTY       PRECINCT 9                                             00 
01050010006000395REP       BALLOTS CAST - REPUBLICAN PARTY                         BALLOTS CAST - REPUBLICAN PARTY       PRECINCT 10                                            00 
01050010007000041REP       BALLOTS CAST - REPUBLICAN PARTY                         BALLOTS CAST - REPUBLICAN PARTY       PRECINCT 11                                            00 
01050010008000250REP       BALLOTS CAST - REPUBLICAN PARTY                         BALLOTS CAST - REPUBLICAN PARTY       PRECINCT 12                                            00 
01050010009000096REP       BALLOTS CAST - REPUBLICAN PARTY                         BALLOTS CAST - REPUBLICAN PARTY       PRECINCT 13                                            00 
01050010010000033REP       BALLOTS CAST - REPUBLICAN PARTY                         BALLOTS CAST - REPUBLICAN PARTY       PRECINCT 14                                            00 
01050010011000215REP       BALLOTS CAST - REPUBLICAN PARTY                         BALLOTS CAST - REPUBLICAN PARTY       PRECINCT 15                                            00 
01060010001000003DEM       BALLOTS CAST - DEMOCRATIC PARTY                         BALLOTS CAST - DEMOCRATIC PARTY       PRECINCT 5                                             00 
01060010002000000DEM       BALLOTS CAST - DEMOCRATIC PARTY                         BALLOTS CAST - DEMOCRATIC PARTY       PRECINCT 6                                             00 
01060010003000016DEM       BALLOTS CAST - DEMOCRATIC PARTY                         BALLOTS CAST - DEMOCRATIC PARTY       PRECINCT 7                                             00 
01060010004000008DEM       BALLOTS CAST - DEMOCRATIC PARTY                         BALLOTS CAST - DEMOCRATIC PARTY       PRECINCT 8                                             00 
01060010005000007DEM       BALLOTS CAST - DEMOCRATIC PARTY                         BALLOTS CAST - DEMOCRATIC PARTY       PRECINCT 9                                             00 
01060010006000013DEM       BALLOTS CAST - DEMOCRATIC PARTY                         BALLOTS CAST - DEMOCRATIC PARTY       PRECINCT 10                                            00 
01060010007000000DEM       BALLOTS CAST - DEMOCRATIC PARTY                         BALLOTS CAST - DEMOCRATIC PARTY       PRECINCT 11                                            00 
01060010008000018DEM       BALLOTS CAST - DEMOCRATIC PARTY                         BALLOTS CAST - DEMOCRATIC PARTY       PRECINCT 12                                            00 
01060010009000010DEM       BALLOTS CAST - DEMOCRATIC PARTY                         BALLOTS CAST - DEMOCRATIC PARTY       PRECINCT 13                                            00 
01060010010000007DEM       BALLOTS CAST - DEMOCRATIC PARTY                         BALLOTS CAST - DEMOCRATIC PARTY       PRECINCT 14                                            00 
01060010011000027DEM       BALLOTS CAST - DEMOCRATIC PARTY                         BALLOTS CAST - DEMOCRATIC PARTY       PRECINCT 15                                            00 
01070010001000000REP       President SCURRY COUNTYWIDE                             Jon Huntsman                          PRECINCT 5                                             01 
01070010002000003REP       President SCURRY COUNTYWIDE                             Jon Huntsman                          PRECINCT 6                                             01 
01070010003000007REP       President SCURRY COUNTYWIDE                             Jon Huntsman                          PRECINCT 7                                             01 
01070010004000001REP       President SCURRY COUNTYWIDE                             Jon Huntsman                          PRECINCT 8                                             01 
01070010005000000REP       President SCURRY COUNTYWIDE                             Jon Huntsman                          PRECINCT 9                                             01 
01070010006000002REP       President SCURRY COUNTYWIDE                             Jon Huntsman                          PRECINCT 10                                            01 
01070010007000001REP       President SCURRY COUNTYWIDE                             Jon Huntsman                          PRECINCT 11                                            01 
01070010008000003REP       President SCURRY COUNTYWIDE                             Jon Huntsman                          PRECINCT 12                                            01 
01070010009000000REP       President SCURRY COUNTYWIDE                             Jon Huntsman                          PRECINCT 13                                            01 
01070010010000000REP       President SCURRY COUNTYWIDE                             Jon Huntsman                          PRECINCT 14                                            01 
01070010011000003REP       President SCURRY COUNTYWIDE                             Jon Huntsman                          PRECINCT 15                                            01 
01070020001000025REP       President SCURRY COUNTYWIDE                             Mitt Romney                           PRECINCT 5                                             01 
01070020002000067REP       President SCURRY COUNTYWIDE                             Mitt Romney                           PRECINCT 6                                             01 
01070020003000418REP       President SCURRY COUNTYWIDE                             Mitt Romney                           PRECINCT 7                                             01 
01070020004000166REP       President SCURRY COUNTYWIDE                             Mitt Romney                           PRECINCT 8                                             01 
01070020005000097REP       President SCURRY COUNTYWIDE                             Mitt Romney                           PRECINCT 9                                             01 
01070020006000290REP       President SCURRY COUNTYWIDE                             Mitt Romney                           PRECINCT 10                                            01 
01070020007000033REP       President SCURRY COUNTYWIDE                             Mitt Romney                           PRECINCT 11                                            01 
01070020008000158REP       President SCURRY COUNTYWIDE                             Mitt Romney                           PRECINCT 12                                            01 
01070020009000064REP       President SCURRY COUNTYWIDE                             Mitt Romney                           PRECINCT 13                                            01 
01070020010000024REP       President SCURRY COUNTYWIDE                             Mitt Romney                           PRECINCT 14                                            01 
01070020011000130REP       President SCURRY COUNTYWIDE                             Mitt Romney                           PRECINCT 15                                            01 
01070030001000000REP       President SCURRY COUNTYWIDE                             John Davis                            PRECINCT 5                                             01 
01070030002000001REP       President SCURRY COUNTYWIDE                             John Davis                            PRECINCT 6                                             01 
01070030003000006REP       President SCURRY COUNTYWIDE                             John Davis                            PRECINCT 7                                             01 
01070030004000000REP       President SCURRY COUNTYWIDE                             John Davis                            PRECINCT 8                                             01 
01070030005000000REP       President SCURRY COUNTYWIDE                             John Davis                            PRECINCT 9                                             01 
01070030006000003REP       President SCURRY COUNTYWIDE                             John Davis                            PRECINCT 10                                            01 
01070030007000000REP       President SCURRY COUNTYWIDE                             John Davis                            PRECINCT 11                                            01 
01070030008000001REP       President SCURRY COUNTYWIDE                             John Davis                            PRECINCT 12                                            01 
01070030009000001REP       President SCURRY COUNTYWIDE                             John Davis                            PRECINCT 13                                            01 
01070030010000000REP       President SCURRY COUNTYWIDE                             John Davis                            PRECINCT 14                                            01 
01070030011000001REP       President SCURRY COUNTYWIDE                             John Davis                            PRECINCT 15                                            01 
01070040001000000REP       President SCURRY COUNTYWIDE                             Ron Paul                              PRECINCT 5                                             01 
01070040002000005REP       President SCURRY COUNTYWIDE                             Ron Paul                              PRECINCT 6                                             01 
01070040003000062REP       President SCURRY COUNTYWIDE                             Ron Paul                              PRECINCT 7                                             01 
01070040004000020REP       President SCURRY COUNTYWIDE                             Ron Paul                              PRECINCT 8                                             01 
01070040005000012REP       President SCURRY COUNTYWIDE                             Ron Paul                              PRECINCT 9                                             01 
01070040006000022REP       President SCURRY COUNTYWIDE                             Ron Paul                              PRECINCT 10                                            01 
01070040007000002REP       President SCURRY COUNTYWIDE                             Ron Paul                              PRECINCT 11                                            01 
01070040008000018REP       President SCURRY COUNTYWIDE                             Ron Paul                              PRECINCT 12                                            01 
01070040009000007REP       President SCURRY COUNTYWIDE                             Ron Paul                              PRECINCT 13                                            01 
01070040010000005REP       President SCURRY COUNTYWIDE                             Ron Paul                              PRECINCT 14                                            01 
01070040011000009REP       President SCURRY COUNTYWIDE                             Ron Paul                              PRECINCT 15                                            01 
01070050001000000REP       President SCURRY COUNTYWIDE                             Newt Gingrich                         PRECINCT 5                                             01 
01070050002000001REP       President SCURRY COUNTYWIDE                             Newt Gingrich                         PRECINCT 6                                             01 
01070050003000032REP       President SCURRY COUNTYWIDE                             Newt Gingrich                         PRECINCT 7                                             01 
01070050004000017REP       President SCURRY COUNTYWIDE                             Newt Gingrich                         PRECINCT 8                                             01 
01070050005000007REP       President SCURRY COUNTYWIDE                             Newt Gingrich                         PRECINCT 9                                             01 
01070050006000020REP       President SCURRY COUNTYWIDE                             Newt Gingrich                         PRECINCT 10                                            01 
01070050007000001REP       President SCURRY COUNTYWIDE                             Newt Gingrich                         PRECINCT 11                                            01 
01070050008000014REP       President SCURRY COUNTYWIDE                             Newt Gingrich                         PRECINCT 12                                            01 
01070050009000007REP       President SCURRY COUNTYWIDE                             Newt Gingrich                         PRECINCT 13                                            01 
01070050010000001REP       President SCURRY COUNTYWIDE                             Newt Gingrich                         PRECINCT 14                                            01 
01070050011000015REP       President SCURRY COUNTYWIDE                             Newt Gingrich                         PRECINCT 15                                            01 
01070060001000003REP       President SCURRY COUNTYWIDE                             Rick Santorum                         PRECINCT 5                                             01 
01070060002000005REP       President SCURRY COUNTYWIDE                             Rick Santorum                         PRECINCT 6                                             01 
01070060003000042REP       President SCURRY COUNTYWIDE                             Rick Santorum                         PRECINCT 7                                             01 
01070060004000012REP       President SCURRY COUNTYWIDE                             Rick Santorum                         PRECINCT 8                                             01 
01070060005000012REP       President SCURRY COUNTYWIDE                             Rick Santorum                         PRECINCT 9                                             01 
01070060006000028REP       President SCURRY COUNTYWIDE                             Rick Santorum                         PRECINCT 10                                            01 
01070060007000001REP       President SCURRY COUNTYWIDE                             Rick Santorum                         PRECINCT 11                                            01 
01070060008000016REP       President SCURRY COUNTYWIDE                             Rick Santorum                         PRECINCT 12                                            01 
01070060009000006REP       President SCURRY COUNTYWIDE                             Rick Santorum                         PRECINCT 13                                            01 
01070060010000000REP       President SCURRY COUNTYWIDE                             Rick Santorum                         PRECINCT 14                                            01 
01070060011000015REP       President SCURRY COUNTYWIDE                             Rick Santorum                         PRECINCT 15                                            01 
01070070001000000REP       President SCURRY COUNTYWIDE                             Charles "Buddy" Roemer                PRECINCT 5                                             01 
01070070002000000REP       President SCURRY COUNTYWIDE                             Charles "Buddy" Roemer                PRECINCT 6                                             01 
01070070003000004REP       President SCURRY COUNTYWIDE                             Charles "Buddy" Roemer                PRECINCT 7                                             01 
01070070004000001REP       President SCURRY COUNTYWIDE                             Charles "Buddy" Roemer                PRECINCT 8                                             01 
01070070005000001REP       President SCURRY COUNTYWIDE                             Charles "Buddy" Roemer                PRECINCT 9                                             01 
01070070006000000REP       President SCURRY COUNTYWIDE                             Charles "Buddy" Roemer                PRECINCT 10                                            01 
01070070007000000REP       President SCURRY COUNTYWIDE                             Charles "Buddy" Roemer                PRECINCT 11                                            01 
01070070008000001REP       President SCURRY COUNTYWIDE                             Charles "Buddy" Roemer                PRECINCT 12                                            01 
01070070009000000REP       President SCURRY COUNTYWIDE                             Charles "Buddy" Roemer                PRECINCT 13                                            01 
01070070010000000REP       President SCURRY COUNTYWIDE                             Charles "Buddy" Roemer                PRECINCT 14                                            01 
01070070011000000REP       President SCURRY COUNTYWIDE                             Charles "Buddy" Roemer                PRECINCT 15                                            01 
01070080001000000REP       President SCURRY COUNTYWIDE                             Michele Bachmann                      PRECINCT 5                                             01 
01070080002000000REP       President SCURRY COUNTYWIDE                             Michele Bachmann                      PRECINCT 6                                             01 
01070080003000004REP       President SCURRY COUNTYWIDE                             Michele Bachmann                      PRECINCT 7                                             01 
01070080004000002REP       President SCURRY COUNTYWIDE                             Michele Bachmann                      PRECINCT 8                                             01 
01070080005000001REP       President SCURRY COUNTYWIDE                             Michele Bachmann                      PRECINCT 9                                             01 
01070080006000002REP       President SCURRY COUNTYWIDE                             Michele Bachmann                      PRECINCT 10                                            01 
01070080007000000REP       President SCURRY COUNTYWIDE                             Michele Bachmann                      PRECINCT 11                                            01 
01070080008000002REP       President SCURRY COUNTYWIDE                             Michele Bachmann                      PRECINCT 12                                            01 
01070080009000000REP       President SCURRY COUNTYWIDE                             Michele Bachmann                      PRECINCT 13                                            01 
01070080010000000REP       President SCURRY COUNTYWIDE                             Michele Bachmann                      PRECINCT 14                                            01 
01070080011000002REP       President SCURRY COUNTYWIDE                             Michele Bachmann                      PRECINCT 15                                            01 
01070090001000003REP       President SCURRY COUNTYWIDE                             Uncommitted                           PRECINCT 5                                             01 
01070090002000001REP       President SCURRY COUNTYWIDE                             Uncommitted                           PRECINCT 6                                             01 
01070090003000029REP       President SCURRY COUNTYWIDE                             Uncommitted                           PRECINCT 7                                             01 
01070090004000008REP       President SCURRY COUNTYWIDE                             Uncommitted                           PRECINCT 8                                             01 
01070090005000011REP       President SCURRY COUNTYWIDE                             Uncommitted                           PRECINCT 9                                             01 
01070090006000016REP       President SCURRY COUNTYWIDE                             Uncommitted                           PRECINCT 10                                            01 
01070090007000002REP       President SCURRY COUNTYWIDE                             Uncommitted                           PRECINCT 11                                            01 
01070090008000024REP       President SCURRY COUNTYWIDE                             Uncommitted                           PRECINCT 12                                            01 
01070090009000006REP       President SCURRY COUNTYWIDE                             Uncommitted                           PRECINCT 13                                            01 
01070090010000003REP       President SCURRY COUNTYWIDE                             Uncommitted                           PRECINCT 14                                            01 
01070090011000024REP       President SCURRY COUNTYWIDE                             Uncommitted                           PRECINCT 15                                            01 
01070100001000000REP       President SCURRY COUNTYWIDE                             OVER VOTES                            PRECINCT 5                                             01 
01070100002000000REP       President SCURRY COUNTYWIDE                             OVER VOTES                            PRECINCT 6                                             01 
01070100003000000REP       President SCURRY COUNTYWIDE                             OVER VOTES                            PRECINCT 7                                             01 
01070100004000000REP       President SCURRY COUNTYWIDE                             OVER VOTES                            PRECINCT 8                                             01 
01070100005000000REP       President SCURRY COUNTYWIDE                             OVER VOTES                            PRECINCT 9                                             01 
01070100006000000REP       President SCURRY COUNTYWIDE                             OVER VOTES                            PRECINCT 10                                            01 
01070100007000000REP       President SCURRY COUNTYWIDE                             OVER VOTES                            PRECINCT 11                                            01 
01070100008000000REP       President SCURRY COUNTYWIDE                             OVER VOTES                            PRECINCT 12                                            01 
01070100009000000REP       President SCURRY COUNTYWIDE                             OVER VOTES                            PRECINCT 13                                            01 
01070100010000000REP       President SCURRY COUNTYWIDE                             OVER VOTES                            PRECINCT 14                                            01 
01070100011000000REP       President SCURRY COUNTYWIDE                             OVER VOTES                            PRECINCT 15                                            01 
01070110001000000REP       President SCURRY COUNTYWIDE                             UNDER VOTES                           PRECINCT 5                                             01 
01070110002000003REP       President SCURRY COUNTYWIDE                             UNDER VOTES                           PRECINCT 6                                             01 
01070110003000025REP       President SCURRY COUNTYWIDE                             UNDER VOTES                           PRECINCT 7                                             01 
01070110004000007REP       President SCURRY COUNTYWIDE                             UNDER VOTES                           PRECINCT 8                                             01 
01070110005000005REP       President SCURRY COUNTYWIDE                             UNDER VOTES                           PRECINCT 9                                             01 
01070110006000012REP       President SCURRY COUNTYWIDE                             UNDER VOTES                           PRECINCT 10                                            01 
01070110007000001REP       President SCURRY COUNTYWIDE                             UNDER VOTES                           PRECINCT 11                                            01 
01070110008000013REP       President SCURRY COUNTYWIDE                             UNDER VOTES                           PRECINCT 12                                            01 
01070110009000005REP       President SCURRY COUNTYWIDE                             UNDER VOTES                           PRECINCT 13                                            01 
01070110010000000REP       President SCURRY COUNTYWIDE                             UNDER VOTES                           PRECINCT 14                                            01 
01070110011000016REP       President SCURRY COUNTYWIDE                             UNDER VOTES                           PRECINCT 15                                            01 
01080010001000017REP       US Senator SCURRY COUNTYWIDE                            David Dewhurst                        PRECINCT 5                                             01 
01080010002000062REP       US Senator SCURRY COUNTYWIDE                            David Dewhurst                        PRECINCT 6                                             01 
01080010003000362REP       US Senator SCURRY COUNTYWIDE                            David Dewhurst                        PRECINCT 7                                             01 
01080010004000137REP       US Senator SCURRY COUNTYWIDE                            David Dewhurst                        PRECINCT 8                                             01 
01080010005000093REP       US Senator SCURRY COUNTYWIDE                            David Dewhurst                        PRECINCT 9                                             01 
01080010006000231REP       US Senator SCURRY COUNTYWIDE                            David Dewhurst                        PRECINCT 10                                            01 
01080010007000025REP       US Senator SCURRY COUNTYWIDE                            David Dewhurst                        PRECINCT 11                                            01 
01080010008000140REP       US Senator SCURRY COUNTYWIDE                            David Dewhurst                        PRECINCT 12                                            01 
01080010009000048REP       US Senator SCURRY COUNTYWIDE                            David Dewhurst                        PRECINCT 13                                            01 
01080010010000020REP       US Senator SCURRY COUNTYWIDE                            David Dewhurst                        PRECINCT 14                                            01 
01080010011000123REP       US Senator SCURRY COUNTYWIDE                            David Dewhurst                        PRECINCT 15                                            01 
01080020001000000REP       US Senator SCURRY COUNTYWIDE                            Ben Gambini                           PRECINCT 5                                             01 
01080020002000000REP       US Senator SCURRY COUNTYWIDE                            Ben Gambini                           PRECINCT 6                                             01 
01080020003000004REP       US Senator SCURRY COUNTYWIDE                            Ben Gambini                           PRECINCT 7                                             01 
01080020004000003REP       US Senator SCURRY COUNTYWIDE                            Ben Gambini                           PRECINCT 8                                             01 
01080020005000003REP       US Senator SCURRY COUNTYWIDE                            Ben Gambini                           PRECINCT 9                                             01 
01080020006000004REP       US Senator SCURRY COUNTYWIDE                            Ben Gambini                           PRECINCT 10                                            01 
01080020007000000REP       US Senator SCURRY COUNTYWIDE                            Ben Gambini                           PRECINCT 11                                            01 
01080020008000003REP       US Senator SCURRY COUNTYWIDE                            Ben Gambini                           PRECINCT 12                                            01 
01080020009000001REP       US Senator SCURRY COUNTYWIDE                            Ben Gambini                           PRECINCT 13                                            01 
01080020010000001REP       US Senator SCURRY COUNTYWIDE                            Ben Gambini                           PRECINCT 14                                            01 
01080020011000005REP       US Senator SCURRY COUNTYWIDE                            Ben Gambini                           PRECINCT 15                                            01 
01080030001000000REP       US Senator SCURRY COUNTYWIDE                            Lela Pittenger                        PRECINCT 5                                             01 
01080030002000000REP       US Senator SCURRY COUNTYWIDE                            Lela Pittenger                        PRECINCT 6                                             01 
01080030003000006REP       US Senator SCURRY COUNTYWIDE                            Lela Pittenger                        PRECINCT 7                                             01 
01080030004000002REP       US Senator SCURRY COUNTYWIDE                            Lela Pittenger                        PRECINCT 8                                             01 
01080030005000001REP       US Senator SCURRY COUNTYWIDE                            Lela Pittenger                        PRECINCT 9                                             01 
01080030006000007REP       US Senator SCURRY COUNTYWIDE                            Lela Pittenger                        PRECINCT 10                                            01 
01080030007000000REP       US Senator SCURRY COUNTYWIDE                            Lela Pittenger                        PRECINCT 11                                            01 
01080030008000001REP       US Senator SCURRY COUNTYWIDE                            Lela Pittenger                        PRECINCT 12                                            01 
01080030009000002REP       US Senator SCURRY COUNTYWIDE                            Lela Pittenger                        PRECINCT 13                                            01 
01080030010000001REP       US Senator SCURRY COUNTYWIDE                            Lela Pittenger                        PRECINCT 14                                            01 
01080030011000000REP       US Senator SCURRY COUNTYWIDE                            Lela Pittenger                        PRECINCT 15                                            01 
01080040001000000REP       US Senator SCURRY COUNTYWIDE                            Joe Agris                             PRECINCT 5                                             01 
01080040002000000REP       US Senator SCURRY COUNTYWIDE                            Joe Agris                             PRECINCT 6                                             01 
01080040003000001REP       US Senator SCURRY COUNTYWIDE                            Joe Agris                             PRECINCT 7                                             01 
01080040004000000REP       US Senator SCURRY COUNTYWIDE                            Joe Agris                             PRECINCT 8                                             01 
01080040005000001REP       US Senator SCURRY COUNTYWIDE                            Joe Agris                             PRECINCT 9                                             01 
01080040006000000REP       US Senator SCURRY COUNTYWIDE                            Joe Agris                             PRECINCT 10                                            01 
01080040007000000REP       US Senator SCURRY COUNTYWIDE                            Joe Agris                             PRECINCT 11                                            01 
01080040008000001REP       US Senator SCURRY COUNTYWIDE                            Joe Agris                             PRECINCT 12                                            01 
01080040009000000REP       US Senator SCURRY COUNTYWIDE                            Joe Agris                             PRECINCT 13                                            01 
01080040010000000REP       US Senator SCURRY COUNTYWIDE                            Joe Agris                             PRECINCT 14                                            01 
01080040011000001REP       US Senator SCURRY COUNTYWIDE                            Joe Agris                             PRECINCT 15                                            01 
01080050001000001REP       US Senator SCURRY COUNTYWIDE                            Craig James                           PRECINCT 5                                             01 
01080050002000004REP       US Senator SCURRY COUNTYWIDE                            Craig James                           PRECINCT 6                                             01 
01080050003000020REP       US Senator SCURRY COUNTYWIDE                            Craig James                           PRECINCT 7                                             01 
01080050004000006REP       US Senator SCURRY COUNTYWIDE                            Craig James                           PRECINCT 8                                             01 
01080050005000004REP       US Senator SCURRY COUNTYWIDE                            Craig James                           PRECINCT 9                                             01 
01080050006000011REP       US Senator SCURRY COUNTYWIDE                            Craig James                           PRECINCT 10                                            01 
01080050007000000REP       US Senator SCURRY COUNTYWIDE                            Craig James                           PRECINCT 11                                            01 
01080050008000008REP       US Senator SCURRY COUNTYWIDE                            Craig James                           PRECINCT 12                                            01 
01080050009000003REP       US Senator SCURRY COUNTYWIDE                            Craig James                           PRECINCT 13                                            01 
01080050010000001REP       US Senator SCURRY COUNTYWIDE                            Craig James                           PRECINCT 14                                            01 
01080050011000011REP       US Senator SCURRY COUNTYWIDE                            Craig James                           PRECINCT 15                                            01 
01080060001000013REP       US Senator SCURRY COUNTYWIDE                            Ted Cruz                              PRECINCT 5                                             01 
01080060002000012REP       US Senator SCURRY COUNTYWIDE                            Ted Cruz                              PRECINCT 6                                             01 
01080060003000151REP       US Senator SCURRY COUNTYWIDE                            Ted Cruz                              PRECINCT 7                                             01 
01080060004000059REP       US Senator SCURRY COUNTYWIDE                            Ted Cruz                              PRECINCT 8                                             01 
01080060005000026REP       US Senator SCURRY COUNTYWIDE                            Ted Cruz                              PRECINCT 9                                             01 
01080060006000099REP       US Senator SCURRY COUNTYWIDE                            Ted Cruz                              PRECINCT 10                                            01 
01080060007000012REP       US Senator SCURRY COUNTYWIDE                            Ted Cruz                              PRECINCT 11                                            01 
01080060008000051REP       US Senator SCURRY COUNTYWIDE                            Ted Cruz                              PRECINCT 12                                            01 
01080060009000028REP       US Senator SCURRY COUNTYWIDE                            Ted Cruz                              PRECINCT 13                                            01 
01080060010000008REP       US Senator SCURRY COUNTYWIDE                            Ted Cruz                              PRECINCT 14                                            01 
01080060011000046REP       US Senator SCURRY COUNTYWIDE                            Ted Cruz                              PRECINCT 15                                            01 
01080070001000000REP       US Senator SCURRY COUNTYWIDE                            Curt Cleaver                          PRECINCT 5                                             01 
01080070002000000REP       US Senator SCURRY COUNTYWIDE                            Curt Cleaver                          PRECINCT 6                                             01 
01080070003000000REP       US Senator SCURRY COUNTYWIDE                            Curt Cleaver                          PRECINCT 7                                             01 
01080070004000002REP       US Senator SCURRY COUNTYWIDE                            Curt Cleaver                          PRECINCT 8                                             01 
01080070005000004REP       US Senator SCURRY COUNTYWIDE                            Curt Cleaver                          PRECINCT 9                                             01 
01080070006000002REP       US Senator SCURRY COUNTYWIDE                            Curt Cleaver                          PRECINCT 10                                            01 
01080070007000002REP       US Senator SCURRY COUNTYWIDE                            Curt Cleaver                          PRECINCT 11                                            01 
01080070008000002REP       US Senator SCURRY COUNTYWIDE                            Curt Cleaver                          PRECINCT 12                                            01 
01080070009000000REP       US Senator SCURRY COUNTYWIDE                            Curt Cleaver                          PRECINCT 13                                            01 
01080070010000001REP       US Senator SCURRY COUNTYWIDE                            Curt Cleaver                          PRECINCT 14                                            01 
01080070011000001REP       US Senator SCURRY COUNTYWIDE                            Curt Cleaver                          PRECINCT 15                                            01 
01080080001000000REP       US Senator SCURRY COUNTYWIDE                            Tom Leppert                           PRECINCT 5                                             01 
01080080002000000REP       US Senator SCURRY COUNTYWIDE                            Tom Leppert                           PRECINCT 6                                             01 
01080080003000021REP       US Senator SCURRY COUNTYWIDE                            Tom Leppert                           PRECINCT 7                                             01 
01080080004000007REP       US Senator SCURRY COUNTYWIDE                            Tom Leppert                           PRECINCT 8                                             01 
01080080005000003REP       US Senator SCURRY COUNTYWIDE                            Tom Leppert                           PRECINCT 9                                             01 
01080080006000016REP       US Senator SCURRY COUNTYWIDE                            Tom Leppert                           PRECINCT 10                                            01 
01080080007000000REP       US Senator SCURRY COUNTYWIDE                            Tom Leppert                           PRECINCT 11                                            01 
01080080008000005REP       US Senator SCURRY COUNTYWIDE                            Tom Leppert                           PRECINCT 12                                            01 
01080080009000001REP       US Senator SCURRY COUNTYWIDE                            Tom Leppert                           PRECINCT 13                                            01 
01080080010000000REP       US Senator SCURRY COUNTYWIDE                            Tom Leppert                           PRECINCT 14                                            01 
01080080011000003REP       US Senator SCURRY COUNTYWIDE                            Tom Leppert                           PRECINCT 15                                            01 
01080090001000000REP       US Senator SCURRY COUNTYWIDE                            Glenn Addison                         PRECINCT 5                                             01 
01080090002000000REP       US Senator SCURRY COUNTYWIDE                            Glenn Addison                         PRECINCT 6                                             01 
01080090003000009REP       US Senator SCURRY COUNTYWIDE                            Glenn Addison                         PRECINCT 7                                             01 
01080090004000004REP       US Senator SCURRY COUNTYWIDE                            Glenn Addison                         PRECINCT 8                                             01 
01080090005000000REP       US Senator SCURRY COUNTYWIDE                            Glenn Addison                         PRECINCT 9                                             01 
01080090006000005REP       US Senator SCURRY COUNTYWIDE                            Glenn Addison                         PRECINCT 10                                            01 
01080090007000000REP       US Senator SCURRY COUNTYWIDE                            Glenn Addison                         PRECINCT 11                                            01 
01080090008000003REP       US Senator SCURRY COUNTYWIDE                            Glenn Addison                         PRECINCT 12                                            01 
01080090009000005REP       US Senator SCURRY COUNTYWIDE                            Glenn Addison                         PRECINCT 13                                            01 
01080090010000001REP       US Senator SCURRY COUNTYWIDE                            Glenn Addison                         PRECINCT 14                                            01 
01080090011000000REP       US Senator SCURRY COUNTYWIDE                            Glenn Addison                         PRECINCT 15                                            01 
01080100001000000REP       US Senator SCURRY COUNTYWIDE                            OVER VOTES                            PRECINCT 5                                             01 
01080100002000000REP       US Senator SCURRY COUNTYWIDE                            OVER VOTES                            PRECINCT 6                                             01 
01080100003000000REP       US Senator SCURRY COUNTYWIDE                            OVER VOTES                            PRECINCT 7                                             01 
01080100004000000REP       US Senator SCURRY COUNTYWIDE                            OVER VOTES                            PRECINCT 8                                             01 
01080100005000000REP       US Senator SCURRY COUNTYWIDE                            OVER VOTES                            PRECINCT 9                                             01 
01080100006000000REP       US Senator SCURRY COUNTYWIDE                            OVER VOTES                            PRECINCT 10                                            01 
01080100007000000REP       US Senator SCURRY COUNTYWIDE                            OVER VOTES                            PRECINCT 11                                            01 
01080100008000000REP       US Senator SCURRY COUNTYWIDE                            OVER VOTES                            PRECINCT 12                                            01 
01080100009000000REP       US Senator SCURRY COUNTYWIDE                            OVER VOTES                            PRECINCT 13                                            01 
01080100010000000REP       US Senator SCURRY COUNTYWIDE                            OVER VOTES                            PRECINCT 14                                            01 
01080100011000000REP       US Senator SCURRY COUNTYWIDE                            OVER VOTES                            PRECINCT 15                                            01 
01080110001000000REP       US Senator SCURRY COUNTYWIDE                            UNDER VOTES                           PRECINCT 5                                             01 
01080110002000008REP       US Senator SCURRY COUNTYWIDE                            UNDER VOTES                           PRECINCT 6                                             01 
01080110003000055REP       US Senator SCURRY COUNTYWIDE                            UNDER VOTES                           PRECINCT 7                                             01 
01080110004000014REP       US Senator SCURRY COUNTYWIDE                            UNDER VOTES                           PRECINCT 8                                             01 
01080110005000011REP       US Senator SCURRY COUNTYWIDE                            UNDER VOTES                           PRECINCT 9                                             01 
01080110006000020REP       US Senator SCURRY COUNTYWIDE                            UNDER VOTES                           PRECINCT 10                                            01 
01080110007000002REP       US Senator SCURRY COUNTYWIDE                            UNDER VOTES                           PRECINCT 11                                            01 
01080110008000036REP       US Senator SCURRY COUNTYWIDE                            UNDER VOTES                           PRECINCT 12                                            01 
01080110009000008REP       US Senator SCURRY COUNTYWIDE                            UNDER VOTES                           PRECINCT 13                                            01 
01080110010000000REP       US Senator SCURRY COUNTYWIDE                            UNDER VOTES                           PRECINCT 14                                            01 
01080110011000025REP       US Senator SCURRY COUNTYWIDE                            UNDER VOTES                           PRECINCT 15                                            01 
01090010001000020REP       United States Rep, District 19 SCURRY COUNTYWIDE        Randy Neugebauer                      PRECINCT 5                                             01 
01090010002000077REP       United States Rep, District 19 SCURRY COUNTYWIDE        Randy Neugebauer                      PRECINCT 6                                             01 
01090010003000478REP       United States Rep, District 19 SCURRY COUNTYWIDE        Randy Neugebauer                      PRECINCT 7                                             01 
01090010004000180REP       United States Rep, District 19 SCURRY COUNTYWIDE        Randy Neugebauer                      PRECINCT 8                                             01 
01090010005000109REP       United States Rep, District 19 SCURRY COUNTYWIDE        Randy Neugebauer                      PRECINCT 9                                             01 
01090010006000310REP       United States Rep, District 19 SCURRY COUNTYWIDE        Randy Neugebauer                      PRECINCT 10                                            01 
01090010007000026REP       United States Rep, District 19 SCURRY COUNTYWIDE        Randy Neugebauer                      PRECINCT 11                                            01 
01090010008000182REP       United States Rep, District 19 SCURRY COUNTYWIDE        Randy Neugebauer                      PRECINCT 12                                            01 
01090010009000067REP       United States Rep, District 19 SCURRY COUNTYWIDE        Randy Neugebauer                      PRECINCT 13                                            01 
01090010010000027REP       United States Rep, District 19 SCURRY COUNTYWIDE        Randy Neugebauer                      PRECINCT 14                                            01 
01090010011000157REP       United States Rep, District 19 SCURRY COUNTYWIDE        Randy Neugebauer                      PRECINCT 15                                            01 
01090020001000006REP       United States Rep, District 19 SCURRY COUNTYWIDE        Chris Winn                            PRECINCT 5                                             01 
01090020002000004REP       United States Rep, District 19 SCURRY COUNTYWIDE        Chris Winn                            PRECINCT 6                                             01 
01090020003000084REP       United States Rep, District 19 SCURRY COUNTYWIDE        Chris Winn                            PRECINCT 7                                             01 
01090020004000029REP       United States Rep, District 19 SCURRY COUNTYWIDE        Chris Winn                            PRECINCT 8                                             01 
01090020005000020REP       United States Rep, District 19 SCURRY COUNTYWIDE        Chris Winn                            PRECINCT 9                                             01 
01090020006000053REP       United States Rep, District 19 SCURRY COUNTYWIDE        Chris Winn                            PRECINCT 10                                            01 
01090020007000009REP       United States Rep, District 19 SCURRY COUNTYWIDE        Chris Winn                            PRECINCT 11                                            01 
01090020008000032REP       United States Rep, District 19 SCURRY COUNTYWIDE        Chris Winn                            PRECINCT 12                                            01 
01090020009000022REP       United States Rep, District 19 SCURRY COUNTYWIDE        Chris Winn                            PRECINCT 13                                            01 
01090020010000005REP       United States Rep, District 19 SCURRY COUNTYWIDE        Chris Winn                            PRECINCT 14                                            01 
01090020011000022REP       United States Rep, District 19 SCURRY COUNTYWIDE        Chris Winn                            PRECINCT 15                                            01 
01090030001000000REP       United States Rep, District 19 SCURRY COUNTYWIDE        OVER VOTES                            PRECINCT 5                                             01 
01090030002000000REP       United States Rep, District 19 SCURRY COUNTYWIDE        OVER VOTES                            PRECINCT 6                                             01 
01090030003000000REP       United States Rep, District 19 SCURRY COUNTYWIDE        OVER VOTES                            PRECINCT 7                                             01 
01090030004000000REP       United States Rep, District 19 SCURRY COUNTYWIDE        OVER VOTES                            PRECINCT 8                                             01 
01090030005000000REP       United States Rep, District 19 SCURRY COUNTYWIDE        OVER VOTES                            PRECINCT 9                                             01 
01090030006000000REP       United States Rep, District 19 SCURRY COUNTYWIDE        OVER VOTES                            PRECINCT 10                                            01 
01090030007000000REP       United States Rep, District 19 SCURRY COUNTYWIDE        OVER VOTES                            PRECINCT 11                                            01 
01090030008000000REP       United States Rep, District 19 SCURRY COUNTYWIDE        OVER VOTES                            PRECINCT 12                                            01 
01090030009000000REP       United States Rep, District 19 SCURRY COUNTYWIDE        OVER VOTES                            PRECINCT 13                                            01 
01090030010000000REP       United States Rep, District 19 SCURRY COUNTYWIDE        OVER VOTES                            PRECINCT 14                                            01 
01090030011000000REP       United States Rep, District 19 SCURRY COUNTYWIDE        OVER VOTES                            PRECINCT 15                                            01 
01090040001000005REP       United States Rep, District 19 SCURRY COUNTYWIDE        UNDER VOTES                           PRECINCT 5                                             01 
01090040002000005REP       United States Rep, District 19 SCURRY COUNTYWIDE        UNDER VOTES                           PRECINCT 6                                             01 
01090040003000067REP       United States Rep, District 19 SCURRY COUNTYWIDE        UNDER VOTES                           PRECINCT 7                                             01 
01090040004000025REP       United States Rep, District 19 SCURRY COUNTYWIDE        UNDER VOTES                           PRECINCT 8                                             01 
01090040005000017REP       United States Rep, District 19 SCURRY COUNTYWIDE        UNDER VOTES                           PRECINCT 9                                             01 
01090040006000032REP       United States Rep, District 19 SCURRY COUNTYWIDE        UNDER VOTES                           PRECINCT 10                                            01 
01090040007000006REP       United States Rep, District 19 SCURRY COUNTYWIDE        UNDER VOTES                           PRECINCT 11                                            01 
01090040008000036REP       United States Rep, District 19 SCURRY COUNTYWIDE        UNDER VOTES                           PRECINCT 12                                            01 
01090040009000007REP       United States Rep, District 19 SCURRY COUNTYWIDE        UNDER VOTES                           PRECINCT 13                                            01 
01090040010000001REP       United States Rep, District 19 SCURRY COUNTYWIDE        UNDER VOTES                           PRECINCT 14                                            01 
01090040011000036REP       United States Rep, District 19 SCURRY COUNTYWIDE        UNDER VOTES                           PRECINCT 15                                            01 
01100010001000006REP       Railroad Commissioner SCURRY COUNTYWIDE                 Becky Berger                          PRECINCT 5                                             01 
01100010002000011REP       Railroad Commissioner SCURRY COUNTYWIDE                 Becky Berger                          PRECINCT 6                                             01 
01100010003000092REP       Railroad Commissioner SCURRY COUNTYWIDE                 Becky Berger                          PRECINCT 7                                             01 
01100010004000024REP       Railroad Commissioner SCURRY COUNTYWIDE                 Becky Berger                          PRECINCT 8                                             01 
01100010005000030REP       Railroad Commissioner SCURRY COUNTYWIDE                 Becky Berger                          PRECINCT 9                                             01 
01100010006000050REP       Railroad Commissioner SCURRY COUNTYWIDE                 Becky Berger                          PRECINCT 10                                            01 
01100010007000002REP       Railroad Commissioner SCURRY COUNTYWIDE                 Becky Berger                          PRECINCT 11                                            01 
01100010008000031REP       Railroad Commissioner SCURRY COUNTYWIDE                 Becky Berger                          PRECINCT 12                                            01 
01100010009000013REP       Railroad Commissioner SCURRY COUNTYWIDE                 Becky Berger                          PRECINCT 13                                            01 
01100010010000008REP       Railroad Commissioner SCURRY COUNTYWIDE                 Becky Berger                          PRECINCT 14                                            01 
01100010011000044REP       Railroad Commissioner SCURRY COUNTYWIDE                 Becky Berger                          PRECINCT 15                                            01 
01100020001000001REP       Railroad Commissioner SCURRY COUNTYWIDE                 Beryl Burgess                         PRECINCT 5                                             01 
01100020002000004REP       Railroad Commissioner SCURRY COUNTYWIDE                 Beryl Burgess                         PRECINCT 6                                             01 
01100020003000022REP       Railroad Commissioner SCURRY COUNTYWIDE                 Beryl Burgess                         PRECINCT 7                                             01 
01100020004000008REP       Railroad Commissioner SCURRY COUNTYWIDE                 Beryl Burgess                         PRECINCT 8                                             01 
01100020005000006REP       Railroad Commissioner SCURRY COUNTYWIDE                 Beryl Burgess                         PRECINCT 9                                             01 
01100020006000015REP       Railroad Commissioner SCURRY COUNTYWIDE                 Beryl Burgess                         PRECINCT 10                                            01 
01100020007000004REP       Railroad Commissioner SCURRY COUNTYWIDE                 Beryl Burgess                         PRECINCT 11                                            01 
01100020008000010REP       Railroad Commissioner SCURRY COUNTYWIDE                 Beryl Burgess                         PRECINCT 12                                            01 
01100020009000001REP       Railroad Commissioner SCURRY COUNTYWIDE                 Beryl Burgess                         PRECINCT 13                                            01 
01100020010000002REP       Railroad Commissioner SCURRY COUNTYWIDE                 Beryl Burgess                         PRECINCT 14                                            01 
01100020011000006REP       Railroad Commissioner SCURRY COUNTYWIDE                 Beryl Burgess                         PRECINCT 15                                            01 
01100030001000004REP       Railroad Commissioner SCURRY COUNTYWIDE                 Warren Chisum                         PRECINCT 5                                             01 
01100030002000014REP       Railroad Commissioner SCURRY COUNTYWIDE                 Warren Chisum                         PRECINCT 6                                             01 
01100030003000118REP       Railroad Commissioner SCURRY COUNTYWIDE                 Warren Chisum                         PRECINCT 7                                             01 
01100030004000053REP       Railroad Commissioner SCURRY COUNTYWIDE                 Warren Chisum                         PRECINCT 8                                             01 
01100030005000025REP       Railroad Commissioner SCURRY COUNTYWIDE                 Warren Chisum                         PRECINCT 9                                             01 
01100030006000086REP       Railroad Commissioner SCURRY COUNTYWIDE                 Warren Chisum                         PRECINCT 10                                            01 
01100030007000011REP       Railroad Commissioner SCURRY COUNTYWIDE                 Warren Chisum                         PRECINCT 11                                            01 
01100030008000033REP       Railroad Commissioner SCURRY COUNTYWIDE                 Warren Chisum                         PRECINCT 12                                            01 
01100030009000019REP       Railroad Commissioner SCURRY COUNTYWIDE                 Warren Chisum                         PRECINCT 13                                            01 
01100030010000009REP       Railroad Commissioner SCURRY COUNTYWIDE                 Warren Chisum                         PRECINCT 14                                            01 
01100030011000034REP       Railroad Commissioner SCURRY COUNTYWIDE                 Warren Chisum                         PRECINCT 15                                            01 
01100040001000002REP       Railroad Commissioner SCURRY COUNTYWIDE                 Joe Cotten                            PRECINCT 5                                             01 
01100040002000011REP       Railroad Commissioner SCURRY COUNTYWIDE                 Joe Cotten                            PRECINCT 6                                             01 
01100040003000058REP       Railroad Commissioner SCURRY COUNTYWIDE                 Joe Cotten                            PRECINCT 7                                             01 
01100040004000031REP       Railroad Commissioner SCURRY COUNTYWIDE                 Joe Cotten                            PRECINCT 8                                             01 
01100040005000017REP       Railroad Commissioner SCURRY COUNTYWIDE                 Joe Cotten                            PRECINCT 9                                             01 
01100040006000038REP       Railroad Commissioner SCURRY COUNTYWIDE                 Joe Cotten                            PRECINCT 10                                            01 
01100040007000007REP       Railroad Commissioner SCURRY COUNTYWIDE                 Joe Cotten                            PRECINCT 11                                            01 
01100040008000036REP       Railroad Commissioner SCURRY COUNTYWIDE                 Joe Cotten                            PRECINCT 12                                            01 
01100040009000014REP       Railroad Commissioner SCURRY COUNTYWIDE                 Joe Cotten                            PRECINCT 13                                            01 
01100040010000002REP       Railroad Commissioner SCURRY COUNTYWIDE                 Joe Cotten                            PRECINCT 14                                            01 
01100040011000029REP       Railroad Commissioner SCURRY COUNTYWIDE                 Joe Cotten                            PRECINCT 15                                            01 
01100050001000011REP       Railroad Commissioner SCURRY COUNTYWIDE                 Christi Craddick                      PRECINCT 5                                             01 
01100050002000018REP       Railroad Commissioner SCURRY COUNTYWIDE                 Christi Craddick                      PRECINCT 6                                             01 
01100050003000185REP       Railroad Commissioner SCURRY COUNTYWIDE                 Christi Craddick                      PRECINCT 7                                             01 
01100050004000053REP       Railroad Commissioner SCURRY COUNTYWIDE                 Christi Craddick                      PRECINCT 8                                             01 
01100050005000030REP       Railroad Commissioner SCURRY COUNTYWIDE                 Christi Craddick                      PRECINCT 9                                             01 
01100050006000100REP       Railroad Commissioner SCURRY COUNTYWIDE                 Christi Craddick                      PRECINCT 10                                            01 
01100050007000006REP       Railroad Commissioner SCURRY COUNTYWIDE                 Christi Craddick                      PRECINCT 11                                            01 
01100050008000052REP       Railroad Commissioner SCURRY COUNTYWIDE                 Christi Craddick                      PRECINCT 12                                            01 
01100050009000020REP       Railroad Commissioner SCURRY COUNTYWIDE                 Christi Craddick                      PRECINCT 13                                            01 
01100050010000006REP       Railroad Commissioner SCURRY COUNTYWIDE                 Christi Craddick                      PRECINCT 14                                            01 
01100050011000028REP       Railroad Commissioner SCURRY COUNTYWIDE                 Christi Craddick                      PRECINCT 15                                            01 
01100060001000000REP       Railroad Commissioner SCURRY COUNTYWIDE                 Roland Sledge                         PRECINCT 5                                             01 
01100060002000002REP       Railroad Commissioner SCURRY COUNTYWIDE                 Roland Sledge                         PRECINCT 6                                             01 
01100060003000026REP       Railroad Commissioner SCURRY COUNTYWIDE                 Roland Sledge                         PRECINCT 7                                             01 
01100060004000010REP       Railroad Commissioner SCURRY COUNTYWIDE                 Roland Sledge                         PRECINCT 8                                             01 
01100060005000003REP       Railroad Commissioner SCURRY COUNTYWIDE                 Roland Sledge                         PRECINCT 9                                             01 
01100060006000015REP       Railroad Commissioner SCURRY COUNTYWIDE                 Roland Sledge                         PRECINCT 10                                            01 
01100060007000002REP       Railroad Commissioner SCURRY COUNTYWIDE                 Roland Sledge                         PRECINCT 11                                            01 
01100060008000009REP       Railroad Commissioner SCURRY COUNTYWIDE                 Roland Sledge                         PRECINCT 12                                            01 
01100060009000004REP       Railroad Commissioner SCURRY COUNTYWIDE                 Roland Sledge                         PRECINCT 13                                            01 
01100060010000000REP       Railroad Commissioner SCURRY COUNTYWIDE                 Roland Sledge                         PRECINCT 14                                            01 
01100060011000006REP       Railroad Commissioner SCURRY COUNTYWIDE                 Roland Sledge                         PRECINCT 15                                            01 
01100070001000000REP       Railroad Commissioner SCURRY COUNTYWIDE                 OVER VOTES                            PRECINCT 5                                             01 
01100070002000000REP       Railroad Commissioner SCURRY COUNTYWIDE                 OVER VOTES                            PRECINCT 6                                             01 
01100070003000000REP       Railroad Commissioner SCURRY COUNTYWIDE                 OVER VOTES                            PRECINCT 7                                             01 
01100070004000000REP       Railroad Commissioner SCURRY COUNTYWIDE                 OVER VOTES                            PRECINCT 8                                             01 
01100070005000000REP       Railroad Commissioner SCURRY COUNTYWIDE                 OVER VOTES                            PRECINCT 9                                             01 
01100070006000000REP       Railroad Commissioner SCURRY COUNTYWIDE                 OVER VOTES                            PRECINCT 10                                            01 
01100070007000000REP       Railroad Commissioner SCURRY COUNTYWIDE                 OVER VOTES                            PRECINCT 11                                            01 
01100070008000000REP       Railroad Commissioner SCURRY COUNTYWIDE                 OVER VOTES                            PRECINCT 12                                            01 
01100070009000000REP       Railroad Commissioner SCURRY COUNTYWIDE                 OVER VOTES                            PRECINCT 13                                            01 
01100070010000000REP       Railroad Commissioner SCURRY COUNTYWIDE                 OVER VOTES                            PRECINCT 14                                            01 
01100070011000000REP       Railroad Commissioner SCURRY COUNTYWIDE                 OVER VOTES                            PRECINCT 15                                            01 
01100080001000007REP       Railroad Commissioner SCURRY COUNTYWIDE                 UNDER VOTES                           PRECINCT 5                                             01 
01100080002000026REP       Railroad Commissioner SCURRY COUNTYWIDE                 UNDER VOTES                           PRECINCT 6                                             01 
01100080003000128REP       Railroad Commissioner SCURRY COUNTYWIDE                 UNDER VOTES                           PRECINCT 7                                             01 
01100080004000055REP       Railroad Commissioner SCURRY COUNTYWIDE                 UNDER VOTES                           PRECINCT 8                                             01 
01100080005000035REP       Railroad Commissioner SCURRY COUNTYWIDE                 UNDER VOTES                           PRECINCT 9                                             01 
01100080006000091REP       Railroad Commissioner SCURRY COUNTYWIDE                 UNDER VOTES                           PRECINCT 10                                            01 
01100080007000009REP       Railroad Commissioner SCURRY COUNTYWIDE                 UNDER VOTES                           PRECINCT 11                                            01 
01100080008000079REP       Railroad Commissioner SCURRY COUNTYWIDE                 UNDER VOTES                           PRECINCT 12                                            01 
01100080009000025REP       Railroad Commissioner SCURRY COUNTYWIDE                 UNDER VOTES                           PRECINCT 13                                            01 
01100080010000006REP       Railroad Commissioner SCURRY COUNTYWIDE                 UNDER VOTES                           PRECINCT 14                                            01 
01100080011000068REP       Railroad Commissioner SCURRY COUNTYWIDE                 UNDER VOTES                           PRECINCT 15                                            01 
01110010001000010REP       Railroad Commissioner, UNEXP SCURRY COUNTYWIDE          Barry Smitherman                      PRECINCT 5                                             01 
01110010002000026REP       Railroad Commissioner, UNEXP SCURRY COUNTYWIDE          Barry Smitherman                      PRECINCT 6                                             01 
01110010003000208REP       Railroad Commissioner, UNEXP SCURRY COUNTYWIDE          Barry Smitherman                      PRECINCT 7                                             01 
01110010004000077REP       Railroad Commissioner, UNEXP SCURRY COUNTYWIDE          Barry Smitherman                      PRECINCT 8                                             01 
01110010005000039REP       Railroad Commissioner, UNEXP SCURRY COUNTYWIDE          Barry Smitherman                      PRECINCT 9                                             01 
01110010006000137REP       Railroad Commissioner, UNEXP SCURRY COUNTYWIDE          Barry Smitherman                      PRECINCT 10                                            01 
01110010007000012REP       Railroad Commissioner, UNEXP SCURRY COUNTYWIDE          Barry Smitherman                      PRECINCT 11                                            01 
01110010008000070REP       Railroad Commissioner, UNEXP SCURRY COUNTYWIDE          Barry Smitherman                      PRECINCT 12                                            01 
01110010009000031REP       Railroad Commissioner, UNEXP SCURRY COUNTYWIDE          Barry Smitherman                      PRECINCT 13                                            01 
01110010010000013REP       Railroad Commissioner, UNEXP SCURRY COUNTYWIDE          Barry Smitherman                      PRECINCT 14                                            01 
01110010011000056REP       Railroad Commissioner, UNEXP SCURRY COUNTYWIDE          Barry Smitherman                      PRECINCT 15                                            01 
01110020001000001REP       Railroad Commissioner, UNEXP SCURRY COUNTYWIDE          Al Lee                                PRECINCT 5                                             01 
01110020002000005REP       Railroad Commissioner, UNEXP SCURRY COUNTYWIDE          Al Lee                                PRECINCT 6                                             01 
01110020003000037REP       Railroad Commissioner, UNEXP SCURRY COUNTYWIDE          Al Lee                                PRECINCT 7                                             01 
01110020004000012REP       Railroad Commissioner, UNEXP SCURRY COUNTYWIDE          Al Lee                                PRECINCT 8                                             01 
01110020005000010REP       Railroad Commissioner, UNEXP SCURRY COUNTYWIDE          Al Lee                                PRECINCT 9                                             01 
01110020006000025REP       Railroad Commissioner, UNEXP SCURRY COUNTYWIDE          Al Lee                                PRECINCT 10                                            01 
01110020007000002REP       Railroad Commissioner, UNEXP SCURRY COUNTYWIDE          Al Lee                                PRECINCT 11                                            01 
01110020008000014REP       Railroad Commissioner, UNEXP SCURRY COUNTYWIDE          Al Lee                                PRECINCT 12                                            01 
01110020009000002REP       Railroad Commissioner, UNEXP SCURRY COUNTYWIDE          Al Lee                                PRECINCT 13                                            01 
01110020010000002REP       Railroad Commissioner, UNEXP SCURRY COUNTYWIDE          Al Lee                                PRECINCT 14                                            01 
01110020011000011REP       Railroad Commissioner, UNEXP SCURRY COUNTYWIDE          Al Lee                                PRECINCT 15                                            01 
01110030001000004REP       Railroad Commissioner, UNEXP SCURRY COUNTYWIDE          Greg Parker                           PRECINCT 5                                             01 
01110030002000017REP       Railroad Commissioner, UNEXP SCURRY COUNTYWIDE          Greg Parker                           PRECINCT 6                                             01 
01110030003000158REP       Railroad Commissioner, UNEXP SCURRY COUNTYWIDE          Greg Parker                           PRECINCT 7                                             01 
01110030004000049REP       Railroad Commissioner, UNEXP SCURRY COUNTYWIDE          Greg Parker                           PRECINCT 8                                             01 
01110030005000036REP       Railroad Commissioner, UNEXP SCURRY COUNTYWIDE          Greg Parker                           PRECINCT 9                                             01 
01110030006000090REP       Railroad Commissioner, UNEXP SCURRY COUNTYWIDE          Greg Parker                           PRECINCT 10                                            01 
01110030007000009REP       Railroad Commissioner, UNEXP SCURRY COUNTYWIDE          Greg Parker                           PRECINCT 11                                            01 
01110030008000053REP       Railroad Commissioner, UNEXP SCURRY COUNTYWIDE          Greg Parker                           PRECINCT 12                                            01 
01110030009000022REP       Railroad Commissioner, UNEXP SCURRY COUNTYWIDE          Greg Parker                           PRECINCT 13                                            01 
01110030010000009REP       Railroad Commissioner, UNEXP SCURRY COUNTYWIDE          Greg Parker                           PRECINCT 14                                            01 
01110030011000052REP       Railroad Commissioner, UNEXP SCURRY COUNTYWIDE          Greg Parker                           PRECINCT 15                                            01 
01110040001000004REP       Railroad Commissioner, UNEXP SCURRY COUNTYWIDE          Elizabeth Murray-Kolb                 PRECINCT 5                                             01 
01110040002000008REP       Railroad Commissioner, UNEXP SCURRY COUNTYWIDE          Elizabeth Murray-Kolb                 PRECINCT 6                                             01 
01110040003000064REP       Railroad Commissioner, UNEXP SCURRY COUNTYWIDE          Elizabeth Murray-Kolb                 PRECINCT 7                                             01 
01110040004000031REP       Railroad Commissioner, UNEXP SCURRY COUNTYWIDE          Elizabeth Murray-Kolb                 PRECINCT 8                                             01 
01110040005000023REP       Railroad Commissioner, UNEXP SCURRY COUNTYWIDE          Elizabeth Murray-Kolb                 PRECINCT 9                                             01 
01110040006000037REP       Railroad Commissioner, UNEXP SCURRY COUNTYWIDE          Elizabeth Murray-Kolb                 PRECINCT 10                                            01 
01110040007000003REP       Railroad Commissioner, UNEXP SCURRY COUNTYWIDE          Elizabeth Murray-Kolb                 PRECINCT 11                                            01 
01110040008000029REP       Railroad Commissioner, UNEXP SCURRY COUNTYWIDE          Elizabeth Murray-Kolb                 PRECINCT 12                                            01 
01110040009000012REP       Railroad Commissioner, UNEXP SCURRY COUNTYWIDE          Elizabeth Murray-Kolb                 PRECINCT 13                                            01 
01110040010000002REP       Railroad Commissioner, UNEXP SCURRY COUNTYWIDE          Elizabeth Murray-Kolb                 PRECINCT 14                                            01 
01110040011000024REP       Railroad Commissioner, UNEXP SCURRY COUNTYWIDE          Elizabeth Murray-Kolb                 PRECINCT 15                                            01 
01110050001000000REP       Railroad Commissioner, UNEXP SCURRY COUNTYWIDE          OVER VOTES                            PRECINCT 5                                             01 
01110050002000000REP       Railroad Commissioner, UNEXP SCURRY COUNTYWIDE          OVER VOTES                            PRECINCT 6                                             01 
01110050003000000REP       Railroad Commissioner, UNEXP SCURRY COUNTYWIDE          OVER VOTES                            PRECINCT 7                                             01 
01110050004000000REP       Railroad Commissioner, UNEXP SCURRY COUNTYWIDE          OVER VOTES                            PRECINCT 8                                             01 
01110050005000000REP       Railroad Commissioner, UNEXP SCURRY COUNTYWIDE          OVER VOTES                            PRECINCT 9                                             01 
01110050006000000REP       Railroad Commissioner, UNEXP SCURRY COUNTYWIDE          OVER VOTES                            PRECINCT 10                                            01 
01110050007000000REP       Railroad Commissioner, UNEXP SCURRY COUNTYWIDE          OVER VOTES                            PRECINCT 11                                            01 
01110050008000000REP       Railroad Commissioner, UNEXP SCURRY COUNTYWIDE          OVER VOTES                            PRECINCT 12                                            01 
01110050009000000REP       Railroad Commissioner, UNEXP SCURRY COUNTYWIDE          OVER VOTES                            PRECINCT 13                                            01 
01110050010000000REP       Railroad Commissioner, UNEXP SCURRY COUNTYWIDE          OVER VOTES                            PRECINCT 14                                            01 
01110050011000000REP       Railroad Commissioner, UNEXP SCURRY COUNTYWIDE          OVER VOTES                            PRECINCT 15                                            01 
01110060001000012REP       Railroad Commissioner, UNEXP SCURRY COUNTYWIDE          UNDER VOTES                           PRECINCT 5                                             01 
01110060002000030REP       Railroad Commissioner, UNEXP SCURRY COUNTYWIDE          UNDER VOTES                           PRECINCT 6                                             01 
01110060003000162REP       Railroad Commissioner, UNEXP SCURRY COUNTYWIDE          UNDER VOTES                           PRECINCT 7                                             01 
01110060004000065REP       Railroad Commissioner, UNEXP SCURRY COUNTYWIDE          UNDER VOTES                           PRECINCT 8                                             01 
01110060005000038REP       Railroad Commissioner, UNEXP SCURRY COUNTYWIDE          UNDER VOTES                           PRECINCT 9                                             01 
01110060006000106REP       Railroad Commissioner, UNEXP SCURRY COUNTYWIDE          UNDER VOTES                           PRECINCT 10                                            01 
01110060007000015REP       Railroad Commissioner, UNEXP SCURRY COUNTYWIDE          UNDER VOTES                           PRECINCT 11                                            01 
01110060008000084REP       Railroad Commissioner, UNEXP SCURRY COUNTYWIDE          UNDER VOTES                           PRECINCT 12                                            01 
01110060009000029REP       Railroad Commissioner, UNEXP SCURRY COUNTYWIDE          UNDER VOTES                           PRECINCT 13                                            01 
01110060010000007REP       Railroad Commissioner, UNEXP SCURRY COUNTYWIDE          UNDER VOTES                           PRECINCT 14                                            01 
01110060011000072REP       Railroad Commissioner, UNEXP SCURRY COUNTYWIDE          UNDER VOTES                           PRECINCT 15                                            01 
01120010001000012REP       Justice, Supreme Court, Place 2 SCURRY COUNTYWIDE       Don Willett                           PRECINCT 5                                             01 
01120010002000036REP       Justice, Supreme Court, Place 2 SCURRY COUNTYWIDE       Don Willett                           PRECINCT 6                                             01 
01120010003000302REP       Justice, Supreme Court, Place 2 SCURRY COUNTYWIDE       Don Willett                           PRECINCT 7                                             01 
01120010004000105REP       Justice, Supreme Court, Place 2 SCURRY COUNTYWIDE       Don Willett                           PRECINCT 8                                             01 
01120010005000068REP       Justice, Supreme Court, Place 2 SCURRY COUNTYWIDE       Don Willett                           PRECINCT 9                                             01 
01120010006000197REP       Justice, Supreme Court, Place 2 SCURRY COUNTYWIDE       Don Willett                           PRECINCT 10                                            01 
01120010007000015REP       Justice, Supreme Court, Place 2 SCURRY COUNTYWIDE       Don Willett                           PRECINCT 11                                            01 
01120010008000105REP       Justice, Supreme Court, Place 2 SCURRY COUNTYWIDE       Don Willett                           PRECINCT 12                                            01 
01120010009000036REP       Justice, Supreme Court, Place 2 SCURRY COUNTYWIDE       Don Willett                           PRECINCT 13                                            01 
01120010010000021REP       Justice, Supreme Court, Place 2 SCURRY COUNTYWIDE       Don Willett                           PRECINCT 14                                            01 
01120010011000077REP       Justice, Supreme Court, Place 2 SCURRY COUNTYWIDE       Don Willett                           PRECINCT 15                                            01 
01120020001000007REP       Justice, Supreme Court, Place 2 SCURRY COUNTYWIDE       Steve Smith                           PRECINCT 5                                             01 
01120020002000019REP       Justice, Supreme Court, Place 2 SCURRY COUNTYWIDE       Steve Smith                           PRECINCT 6                                             01 
01120020003000182REP       Justice, Supreme Court, Place 2 SCURRY COUNTYWIDE       Steve Smith                           PRECINCT 7                                             01 
01120020004000069REP       Justice, Supreme Court, Place 2 SCURRY COUNTYWIDE       Steve Smith                           PRECINCT 8                                             01 
01120020005000040REP       Justice, Supreme Court, Place 2 SCURRY COUNTYWIDE       Steve Smith                           PRECINCT 9                                             01 
01120020006000102REP       Justice, Supreme Court, Place 2 SCURRY COUNTYWIDE       Steve Smith                           PRECINCT 10                                            01 
01120020007000015REP       Justice, Supreme Court, Place 2 SCURRY COUNTYWIDE       Steve Smith                           PRECINCT 11                                            01 
01120020008000059REP       Justice, Supreme Court, Place 2 SCURRY COUNTYWIDE       Steve Smith                           PRECINCT 12                                            01 
01120020009000023REP       Justice, Supreme Court, Place 2 SCURRY COUNTYWIDE       Steve Smith                           PRECINCT 13                                            01 
01120020010000006REP       Justice, Supreme Court, Place 2 SCURRY COUNTYWIDE       Steve Smith                           PRECINCT 14                                            01 
01120020011000066REP       Justice, Supreme Court, Place 2 SCURRY COUNTYWIDE       Steve Smith                           PRECINCT 15                                            01 
01120030001000000REP       Justice, Supreme Court, Place 2 SCURRY COUNTYWIDE       OVER VOTES                            PRECINCT 5                                             01 
01120030002000000REP       Justice, Supreme Court, Place 2 SCURRY COUNTYWIDE       OVER VOTES                            PRECINCT 6                                             01 
01120030003000000REP       Justice, Supreme Court, Place 2 SCURRY COUNTYWIDE       OVER VOTES                            PRECINCT 7                                             01 
01120030004000000REP       Justice, Supreme Court, Place 2 SCURRY COUNTYWIDE       OVER VOTES                            PRECINCT 8                                             01 
01120030005000000REP       Justice, Supreme Court, Place 2 SCURRY COUNTYWIDE       OVER VOTES                            PRECINCT 9                                             01 
01120030006000000REP       Justice, Supreme Court, Place 2 SCURRY COUNTYWIDE       OVER VOTES                            PRECINCT 10                                            01 
01120030007000000REP       Justice, Supreme Court, Place 2 SCURRY COUNTYWIDE       OVER VOTES                            PRECINCT 11                                            01 
01120030008000000REP       Justice, Supreme Court, Place 2 SCURRY COUNTYWIDE       OVER VOTES                            PRECINCT 12                                            01 
01120030009000000REP       Justice, Supreme Court, Place 2 SCURRY COUNTYWIDE       OVER VOTES                            PRECINCT 13                                            01 
01120030010000000REP       Justice, Supreme Court, Place 2 SCURRY COUNTYWIDE       OVER VOTES                            PRECINCT 14                                            01 
01120030011000000REP       Justice, Supreme Court, Place 2 SCURRY COUNTYWIDE       OVER VOTES                            PRECINCT 15                                            01 
01120040001000012REP       Justice, Supreme Court, Place 2 SCURRY COUNTYWIDE       UNDER VOTES                           PRECINCT 5                                             01 
01120040002000031REP       Justice, Supreme Court, Place 2 SCURRY COUNTYWIDE       UNDER VOTES                           PRECINCT 6                                             01 
01120040003000145REP       Justice, Supreme Court, Place 2 SCURRY COUNTYWIDE       UNDER VOTES                           PRECINCT 7                                             01 
01120040004000060REP       Justice, Supreme Court, Place 2 SCURRY COUNTYWIDE       UNDER VOTES                           PRECINCT 8                                             01 
01120040005000038REP       Justice, Supreme Court, Place 2 SCURRY COUNTYWIDE       UNDER VOTES                           PRECINCT 9                                             01 
01120040006000096REP       Justice, Supreme Court, Place 2 SCURRY COUNTYWIDE       UNDER VOTES                           PRECINCT 10                                            01 
01120040007000011REP       Justice, Supreme Court, Place 2 SCURRY COUNTYWIDE       UNDER VOTES                           PRECINCT 11                                            01 
01120040008000086REP       Justice, Supreme Court, Place 2 SCURRY COUNTYWIDE       UNDER VOTES                           PRECINCT 12                                            01 
01120040009000037REP       Justice, Supreme Court, Place 2 SCURRY COUNTYWIDE       UNDER VOTES                           PRECINCT 13                                            01 
01120040010000006REP       Justice, Supreme Court, Place 2 SCURRY COUNTYWIDE       UNDER VOTES                           PRECINCT 14                                            01 
01120040011000072REP       Justice, Supreme Court, Place 2 SCURRY COUNTYWIDE       UNDER VOTES                           PRECINCT 15                                            01 
01130010001000007REP       Justice, Supreme Court, Place 4 SCURRY COUNTYWIDE       Joe Pool, Jr.                         PRECINCT 5                                             01 
01130010002000020REP       Justice, Supreme Court, Place 4 SCURRY COUNTYWIDE       Joe Pool, Jr.                         PRECINCT 6                                             01 
01130010003000183REP       Justice, Supreme Court, Place 4 SCURRY COUNTYWIDE       Joe Pool, Jr.                         PRECINCT 7                                             01 
01130010004000074REP       Justice, Supreme Court, Place 4 SCURRY COUNTYWIDE       Joe Pool, Jr.                         PRECINCT 8                                             01 
01130010005000049REP       Justice, Supreme Court, Place 4 SCURRY COUNTYWIDE       Joe Pool, Jr.                         PRECINCT 9                                             01 
01130010006000133REP       Justice, Supreme Court, Place 4 SCURRY COUNTYWIDE       Joe Pool, Jr.                         PRECINCT 10                                            01 
01130010007000010REP       Justice, Supreme Court, Place 4 SCURRY COUNTYWIDE       Joe Pool, Jr.                         PRECINCT 11                                            01 
01130010008000062REP       Justice, Supreme Court, Place 4 SCURRY COUNTYWIDE       Joe Pool, Jr.                         PRECINCT 12                                            01 
01130010009000029REP       Justice, Supreme Court, Place 4 SCURRY COUNTYWIDE       Joe Pool, Jr.                         PRECINCT 13                                            01 
01130010010000015REP       Justice, Supreme Court, Place 4 SCURRY COUNTYWIDE       Joe Pool, Jr.                         PRECINCT 14                                            01 
01130010011000045REP       Justice, Supreme Court, Place 4 SCURRY COUNTYWIDE       Joe Pool, Jr.                         PRECINCT 15                                            01 
01130020001000007REP       Justice, Supreme Court, Place 4 SCURRY COUNTYWIDE       John Devine                           PRECINCT 5                                             01 
01130020002000028REP       Justice, Supreme Court, Place 4 SCURRY COUNTYWIDE       John Devine                           PRECINCT 6                                             01 
