01010010001000948          REGISTERED VOTERS - TOTAL                               REGISTERED VOTERS - TOTAL             PRECINCT 101                                           00 
01010010002002967          REGISTERED VOTERS - TOTAL                               REGISTERED VOTERS - TOTAL             PRECINCT 102                                           00 
01010010003001496          REGISTERED VOTERS - TOTAL                               REGISTERED VOTERS - TOTAL             PRECINCT 103                                           00 
01010010004001707          REGISTERED VOTERS - TOTAL                               REGISTERED VOTERS - TOTAL             PRECINCT 104                                           00 
01010010005002848          REGISTERED VOTERS - TOTAL                               REGISTERED VOTERS - TOTAL             PRECINCT 201                                           00 
01010010006000514          REGISTERED VOTERS - TOTAL                               REGISTERED VOTERS - TOTAL             PRECINCT 203                                           00 
01010010007002223          REGISTERED VOTERS - TOTAL                               REGISTERED VOTERS - TOTAL             PRECINCT 204                                           00 
01010010008002302          REGISTERED VOTERS - TOTAL                               REGISTERED VOTERS - TOTAL             PRECINCT 205                                           00 
01010010009000727          REGISTERED VOTERS - TOTAL                               REGISTERED VOTERS - TOTAL             PRECINCT 206                                           00 
01010010010002218          REGISTERED VOTERS - TOTAL                               REGISTERED VOTERS - TOTAL             PRECINCT 301                                           00 
01010010011000362          REGISTERED VOTERS - TOTAL                               REGISTERED VOTERS - TOTAL             PRECINCT 302                                           00 
01010010012000652          REGISTERED VOTERS - TOTAL                               REGISTERED VOTERS - TOTAL             PRECINCT 303                                           00 
01010010013003229          REGISTERED VOTERS - TOTAL                               REGISTERED VOTERS - TOTAL             PRECINCT 304                                           00 
01010010014000185          REGISTERED VOTERS - TOTAL                               REGISTERED VOTERS - TOTAL             PRECINCT 305                                           00 
01010010015002666          REGISTERED VOTERS - TOTAL                               REGISTERED VOTERS - TOTAL             PRECINCT 401                                           00 
01010010016000474          REGISTERED VOTERS - TOTAL                               REGISTERED VOTERS - TOTAL             PRECINCT 402                                           00 
01010010017000918          REGISTERED VOTERS - TOTAL                               REGISTERED VOTERS - TOTAL             PRECINCT 403                                           00 
01010010018003147          REGISTERED VOTERS - TOTAL                               REGISTERED VOTERS - TOTAL             PRECINCT 404                                           00 
01030010001000000DEM       REGISTERED VOTERS - DEMOCRATIC PARTY                    REGISTERED VOTERS - DEMOCRATIC PARTY  PRECINCT 101                                           00 
01030010002000000DEM       REGISTERED VOTERS - DEMOCRATIC PARTY                    REGISTERED VOTERS - DEMOCRATIC PARTY  PRECINCT 102                                           00 
01030010003000000DEM       REGISTERED VOTERS - DEMOCRATIC PARTY                    REGISTERED VOTERS - DEMOCRATIC PARTY  PRECINCT 103                                           00 
01030010004000000DEM       REGISTERED VOTERS - DEMOCRATIC PARTY                    REGISTERED VOTERS - DEMOCRATIC PARTY  PRECINCT 104                                           00 
01030010005000000DEM       REGISTERED VOTERS - DEMOCRATIC PARTY                    REGISTERED VOTERS - DEMOCRATIC PARTY  PRECINCT 201                                           00 
01030010006000000DEM       REGISTERED VOTERS - DEMOCRATIC PARTY                    REGISTERED VOTERS - DEMOCRATIC PARTY  PRECINCT 203                                           00 
01030010007000000DEM       REGISTERED VOTERS - DEMOCRATIC PARTY                    REGISTERED VOTERS - DEMOCRATIC PARTY  PRECINCT 204                                           00 
01030010008000000DEM       REGISTERED VOTERS - DEMOCRATIC PARTY                    REGISTERED VOTERS - DEMOCRATIC PARTY  PRECINCT 205                                           00 
01030010009000000DEM       REGISTERED VOTERS - DEMOCRATIC PARTY                    REGISTERED VOTERS - DEMOCRATIC PARTY  PRECINCT 206                                           00 
01030010010000000DEM       REGISTERED VOTERS - DEMOCRATIC PARTY                    REGISTERED VOTERS - DEMOCRATIC PARTY  PRECINCT 301                                           00 
01030010011000000DEM       REGISTERED VOTERS - DEMOCRATIC PARTY                    REGISTERED VOTERS - DEMOCRATIC PARTY  PRECINCT 302                                           00 
01030010012000000DEM       REGISTERED VOTERS - DEMOCRATIC PARTY                    REGISTERED VOTERS - DEMOCRATIC PARTY  PRECINCT 303                                           00 
01030010013000000DEM       REGISTERED VOTERS - DEMOCRATIC PARTY                    REGISTERED VOTERS - DEMOCRATIC PARTY  PRECINCT 304                                           00 
01030010014000000DEM       REGISTERED VOTERS - DEMOCRATIC PARTY                    REGISTERED VOTERS - DEMOCRATIC PARTY  PRECINCT 305                                           00 
01030010015000000DEM       REGISTERED VOTERS - DEMOCRATIC PARTY                    REGISTERED VOTERS - DEMOCRATIC PARTY  PRECINCT 401                                           00 
01030010016000000DEM       REGISTERED VOTERS - DEMOCRATIC PARTY                    REGISTERED VOTERS - DEMOCRATIC PARTY  PRECINCT 402                                           00 
01030010017000000DEM       REGISTERED VOTERS - DEMOCRATIC PARTY                    REGISTERED VOTERS - DEMOCRATIC PARTY  PRECINCT 403                                           00 
01030010018000000DEM       REGISTERED VOTERS - DEMOCRATIC PARTY                    REGISTERED VOTERS - DEMOCRATIC PARTY  PRECINCT 404                                           00 
01040010001000082          BALLOTS CAST - TOTAL                                    BALLOTS CAST - TOTAL                  PRECINCT 101                                           00 
01040010002000476          BALLOTS CAST - TOTAL                                    BALLOTS CAST - TOTAL                  PRECINCT 102                                           00 
01040010003000355          BALLOTS CAST - TOTAL                                    BALLOTS CAST - TOTAL                  PRECINCT 103                                           00 
01040010004000364          BALLOTS CAST - TOTAL                                    BALLOTS CAST - TOTAL                  PRECINCT 104                                           00 
01040010005000498          BALLOTS CAST - TOTAL                                    BALLOTS CAST - TOTAL                  PRECINCT 201                                           00 
01040010006000109          BALLOTS CAST - TOTAL                                    BALLOTS CAST - TOTAL                  PRECINCT 203                                           00 
01040010007000601          BALLOTS CAST - TOTAL                                    BALLOTS CAST - TOTAL                  PRECINCT 204                                           00 
01040010008001036          BALLOTS CAST - TOTAL                                    BALLOTS CAST - TOTAL                  PRECINCT 205                                           00 
01040010009000182          BALLOTS CAST - TOTAL                                    BALLOTS CAST - TOTAL                  PRECINCT 206                                           00 
01040010010000258          BALLOTS CAST - TOTAL                                    BALLOTS CAST - TOTAL                  PRECINCT 301                                           00 
01040010011000105          BALLOTS CAST - TOTAL                                    BALLOTS CAST - TOTAL                  PRECINCT 302                                           00 
01040010012000150          BALLOTS CAST - TOTAL                                    BALLOTS CAST - TOTAL                  PRECINCT 303                                           00 
01040010013000731          BALLOTS CAST - TOTAL                                    BALLOTS CAST - TOTAL                  PRECINCT 304                                           00 
01040010014000037          BALLOTS CAST - TOTAL                                    BALLOTS CAST - TOTAL                  PRECINCT 305                                           00 
01040010015000226          BALLOTS CAST - TOTAL                                    BALLOTS CAST - TOTAL                  PRECINCT 401                                           00 
01040010016000127          BALLOTS CAST - TOTAL                                    BALLOTS CAST - TOTAL                  PRECINCT 402                                           00 
01040010017000194          BALLOTS CAST - TOTAL                                    BALLOTS CAST - TOTAL                  PRECINCT 403                                           00 
01040010018000871          BALLOTS CAST - TOTAL                                    BALLOTS CAST - TOTAL                  PRECINCT 404                                           00 
01050010001000054REP       BALLOTS CAST - REPUBLICAN PARTY                         BALLOTS CAST - REPUBLICAN PARTY       PRECINCT 101                                           00 
01050010002000400REP       BALLOTS CAST - REPUBLICAN PARTY                         BALLOTS CAST - REPUBLICAN PARTY       PRECINCT 102                                           00 
01050010003000304REP       BALLOTS CAST - REPUBLICAN PARTY                         BALLOTS CAST - REPUBLICAN PARTY       PRECINCT 103                                           00 
01050010004000340REP       BALLOTS CAST - REPUBLICAN PARTY                         BALLOTS CAST - REPUBLICAN PARTY       PRECINCT 104                                           00 
01050010005000417REP       BALLOTS CAST - REPUBLICAN PARTY                         BALLOTS CAST - REPUBLICAN PARTY       PRECINCT 201                                           00 
01050010006000099REP       BALLOTS CAST - REPUBLICAN PARTY                         BALLOTS CAST - REPUBLICAN PARTY       PRECINCT 203                                           00 
01050010007000532REP       BALLOTS CAST - REPUBLICAN PARTY                         BALLOTS CAST - REPUBLICAN PARTY       PRECINCT 204                                           00 
01050010008000976REP       BALLOTS CAST - REPUBLICAN PARTY                         BALLOTS CAST - REPUBLICAN PARTY       PRECINCT 205                                           00 
01050010009000152REP       BALLOTS CAST - REPUBLICAN PARTY                         BALLOTS CAST - REPUBLICAN PARTY       PRECINCT 206                                           00 
01050010010000190REP       BALLOTS CAST - REPUBLICAN PARTY                         BALLOTS CAST - REPUBLICAN PARTY       PRECINCT 301                                           00 
01050010011000101REP       BALLOTS CAST - REPUBLICAN PARTY                         BALLOTS CAST - REPUBLICAN PARTY       PRECINCT 302                                           00 
01050010012000131REP       BALLOTS CAST - REPUBLICAN PARTY                         BALLOTS CAST - REPUBLICAN PARTY       PRECINCT 303                                           00 
01050010013000653REP       BALLOTS CAST - REPUBLICAN PARTY                         BALLOTS CAST - REPUBLICAN PARTY       PRECINCT 304                                           00 
01050010014000036REP       BALLOTS CAST - REPUBLICAN PARTY                         BALLOTS CAST - REPUBLICAN PARTY       PRECINCT 305                                           00 
01050010015000186REP       BALLOTS CAST - REPUBLICAN PARTY                         BALLOTS CAST - REPUBLICAN PARTY       PRECINCT 401                                           00 
01050010016000118REP       BALLOTS CAST - REPUBLICAN PARTY                         BALLOTS CAST - REPUBLICAN PARTY       PRECINCT 402                                           00 
01050010017000176REP       BALLOTS CAST - REPUBLICAN PARTY                         BALLOTS CAST - REPUBLICAN PARTY       PRECINCT 403                                           00 
01050010018000770REP       BALLOTS CAST - REPUBLICAN PARTY                         BALLOTS CAST - REPUBLICAN PARTY       PRECINCT 404                                           00 
01060010001000028DEM       BALLOTS CAST - DEMOCRATIC PARTY                         BALLOTS CAST - DEMOCRATIC PARTY       PRECINCT 101                                           00 
01060010002000076DEM       BALLOTS CAST - DEMOCRATIC PARTY                         BALLOTS CAST - DEMOCRATIC PARTY       PRECINCT 102                                           00 
01060010003000051DEM       BALLOTS CAST - DEMOCRATIC PARTY                         BALLOTS CAST - DEMOCRATIC PARTY       PRECINCT 103                                           00 
01060010004000024DEM       BALLOTS CAST - DEMOCRATIC PARTY                         BALLOTS CAST - DEMOCRATIC PARTY       PRECINCT 104                                           00 
01060010005000081DEM       BALLOTS CAST - DEMOCRATIC PARTY                         BALLOTS CAST - DEMOCRATIC PARTY       PRECINCT 201                                           00 
01060010006000010DEM       BALLOTS CAST - DEMOCRATIC PARTY                         BALLOTS CAST - DEMOCRATIC PARTY       PRECINCT 203                                           00 
01060010007000069DEM       BALLOTS CAST - DEMOCRATIC PARTY                         BALLOTS CAST - DEMOCRATIC PARTY       PRECINCT 204                                           00 
01060010008000060DEM       BALLOTS CAST - DEMOCRATIC PARTY                         BALLOTS CAST - DEMOCRATIC PARTY       PRECINCT 205                                           00 
01060010009000030DEM       BALLOTS CAST - DEMOCRATIC PARTY                         BALLOTS CAST - DEMOCRATIC PARTY       PRECINCT 206                                           00 
01060010010000068DEM       BALLOTS CAST - DEMOCRATIC PARTY                         BALLOTS CAST - DEMOCRATIC PARTY       PRECINCT 301                                           00 
01060010011000004DEM       BALLOTS CAST - DEMOCRATIC PARTY                         BALLOTS CAST - DEMOCRATIC PARTY       PRECINCT 302                                           00 
01060010012000019DEM       BALLOTS CAST - DEMOCRATIC PARTY                         BALLOTS CAST - DEMOCRATIC PARTY       PRECINCT 303                                           00 
01060010013000078DEM       BALLOTS CAST - DEMOCRATIC PARTY                         BALLOTS CAST - DEMOCRATIC PARTY       PRECINCT 304                                           00 
01060010014000001DEM       BALLOTS CAST - DEMOCRATIC PARTY                         BALLOTS CAST - DEMOCRATIC PARTY       PRECINCT 305                                           00 
01060010015000040DEM       BALLOTS CAST - DEMOCRATIC PARTY                         BALLOTS CAST - DEMOCRATIC PARTY       PRECINCT 401                                           00 
01060010016000009DEM       BALLOTS CAST - DEMOCRATIC PARTY                         BALLOTS CAST - DEMOCRATIC PARTY       PRECINCT 402                                           00 
01060010017000018DEM       BALLOTS CAST - DEMOCRATIC PARTY                         BALLOTS CAST - DEMOCRATIC PARTY       PRECINCT 403                                           00 
01060010018000101DEM       BALLOTS CAST - DEMOCRATIC PARTY                         BALLOTS CAST - DEMOCRATIC PARTY       PRECINCT 404                                           00 
01330010001000025DEM       President                                               Barack Obama                          PRECINCT 101                                           01 
01330010002000068DEM       President                                               Barack Obama                          PRECINCT 102                                           01 
01330010003000042DEM       President                                               Barack Obama                          PRECINCT 103                                           01 
01330010004000019DEM       President                                               Barack Obama                          PRECINCT 104                                           01 
01330010005000075DEM       President                                               Barack Obama                          PRECINCT 201                                           01 
01330010006000007DEM       President                                               Barack Obama                          PRECINCT 203                                           01 
01330010007000067DEM       President                                               Barack Obama                          PRECINCT 204                                           01 
01330010008000057DEM       President                                               Barack Obama                          PRECINCT 205                                           01 
01330010009000025DEM       President                                               Barack Obama                          PRECINCT 206                                           01 
01330010010000062DEM       President                                               Barack Obama                          PRECINCT 301                                           01 
01330010011000003DEM       President                                               Barack Obama                          PRECINCT 302                                           01 
01330010012000013DEM       President                                               Barack Obama                          PRECINCT 303                                           01 
01330010013000064DEM       President                                               Barack Obama                          PRECINCT 304                                           01 
01330010014000000DEM       President                                               Barack Obama                          PRECINCT 305                                           01 
01330010015000034DEM       President                                               Barack Obama                          PRECINCT 401                                           01 
01330010016000008DEM       President                                               Barack Obama                          PRECINCT 402                                           01 
01330010017000015DEM       President                                               Barack Obama                          PRECINCT 403                                           01 
01330010018000090DEM       President                                               Barack Obama                          PRECINCT 404                                           01 
01330020001000001DEM       President                                               Darcy G. Richardson                   PRECINCT 101                                           01 
01330020002000002DEM       President                                               Darcy G. Richardson                   PRECINCT 102                                           01 
01330020003000004DEM       President                                               Darcy G. Richardson                   PRECINCT 103                                           01 
01330020004000000DEM       President                                               Darcy G. Richardson                   PRECINCT 104                                           01 
01330020005000000DEM       President                                               Darcy G. Richardson                   PRECINCT 201                                           01 
01330020006000002DEM       President                                               Darcy G. Richardson                   PRECINCT 203                                           01 
01330020007000000DEM       President                                               Darcy G. Richardson                   PRECINCT 204                                           01 
01330020008000001DEM       President                                               Darcy G. Richardson                   PRECINCT 205                                           01 
01330020009000003DEM       President                                               Darcy G. Richardson                   PRECINCT 206                                           01 
01330020010000001DEM       President                                               Darcy G. Richardson                   PRECINCT 301                                           01 
01330020011000001DEM       President                                               Darcy G. Richardson                   PRECINCT 302                                           01 
01330020012000001DEM       President                                               Darcy G. Richardson                   PRECINCT 303                                           01 
01330020013000007DEM       President                                               Darcy G. Richardson                   PRECINCT 304                                           01 
01330020014000001DEM       President                                               Darcy G. Richardson                   PRECINCT 305                                           01 
01330020015000000DEM       President                                               Darcy G. Richardson                   PRECINCT 401                                           01 
01330020016000000DEM       President                                               Darcy G. Richardson                   PRECINCT 402                                           01 
01330020017000000DEM       President                                               Darcy G. Richardson                   PRECINCT 403                                           01 
01330020018000003DEM       President                                               Darcy G. Richardson                   PRECINCT 404                                           01 
01330030001000000DEM       President                                               John Wolfe                            PRECINCT 101                                           01 
01330030002000004DEM       President                                               John Wolfe                            PRECINCT 102                                           01 
01330030003000001DEM       President                                               John Wolfe                            PRECINCT 103                                           01 
01330030004000000DEM       President                                               John Wolfe                            PRECINCT 104                                           01 
01330030005000002DEM       President                                               John Wolfe                            PRECINCT 201                                           01 
01330030006000000DEM       President                                               John Wolfe                            PRECINCT 203                                           01 
01330030007000000DEM       President                                               John Wolfe                            PRECINCT 204                                           01 
01330030008000001DEM       President                                               John Wolfe                            PRECINCT 205                                           01 
01330030009000001DEM       President                                               John Wolfe                            PRECINCT 206                                           01 
01330030010000001DEM       President                                               John Wolfe                            PRECINCT 301                                           01 
01330030011000000DEM       President                                               John Wolfe                            PRECINCT 302                                           01 
01330030012000002DEM       President                                               John Wolfe                            PRECINCT 303                                           01 
01330030013000005DEM       President                                               John Wolfe                            PRECINCT 304                                           01 
01330030014000000DEM       President                                               John Wolfe                            PRECINCT 305                                           01 
01330030015000006DEM       President                                               John Wolfe                            PRECINCT 401                                           01 
01330030016000000DEM       President                                               John Wolfe                            PRECINCT 402                                           01 
01330030017000001DEM       President                                               John Wolfe                            PRECINCT 403                                           01 
01330030018000001DEM       President                                               John Wolfe                            PRECINCT 404                                           01 
01330040001000000DEM       President                                               Bob Ely                               PRECINCT 101                                           01 
01330040002000002DEM       President                                               Bob Ely                               PRECINCT 102                                           01 
01330040003000000DEM       President                                               Bob Ely                               PRECINCT 103                                           01 
01330040004000004DEM       President                                               Bob Ely                               PRECINCT 104                                           01 
01330040005000002DEM       President                                               Bob Ely                               PRECINCT 201                                           01 
01330040006000001DEM       President                                               Bob Ely                               PRECINCT 203                                           01 
01330040007000001DEM       President                                               Bob Ely                               PRECINCT 204                                           01 
01330040008000001DEM       President                                               Bob Ely                               PRECINCT 205                                           01 
01330040009000000DEM       President                                               Bob Ely                               PRECINCT 206                                           01 
01330040010000003DEM       President                                               Bob Ely                               PRECINCT 301                                           01 
01330040011000000DEM       President                                               Bob Ely                               PRECINCT 302                                           01 
01330040012000002DEM       President                                               Bob Ely                               PRECINCT 303                                           01 
01330040013000002DEM       President                                               Bob Ely                               PRECINCT 304                                           01 
01330040014000000DEM       President                                               Bob Ely                               PRECINCT 305                                           01 
01330040015000000DEM       President                                               Bob Ely                               PRECINCT 401                                           01 
01330040016000000DEM       President                                               Bob Ely                               PRECINCT 402                                           01 
01330040017000002DEM       President                                               Bob Ely                               PRECINCT 403                                           01 
01330040018000003DEM       President                                               Bob Ely                               PRECINCT 404                                           01 
01340010001000005DEM       United States Senator                                   Sean Hubbard                          PRECINCT 101                                           01 
01340010002000006DEM       United States Senator                                   Sean Hubbard                          PRECINCT 102                                           01 
01340010003000009DEM       United States Senator                                   Sean Hubbard                          PRECINCT 103                                           01 
01340010004000008DEM       United States Senator                                   Sean Hubbard                          PRECINCT 104                                           01 
01340010005000019DEM       United States Senator                                   Sean Hubbard                          PRECINCT 201                                           01 
01340010006000001DEM       United States Senator                                   Sean Hubbard                          PRECINCT 203                                           01 
01340010007000016DEM       United States Senator                                   Sean Hubbard                          PRECINCT 204                                           01 
01340010008000015DEM       United States Senator                                   Sean Hubbard                          PRECINCT 205                                           01 
01340010009000009DEM       United States Senator                                   Sean Hubbard                          PRECINCT 206                                           01 
01340010010000011DEM       United States Senator                                   Sean Hubbard                          PRECINCT 301                                           01 
01340010011000000DEM       United States Senator                                   Sean Hubbard                          PRECINCT 302                                           01 
01340010012000003DEM       United States Senator                                   Sean Hubbard                          PRECINCT 303                                           01 
01340010013000015DEM       United States Senator                                   Sean Hubbard                          PRECINCT 304                                           01 
01340010014000000DEM       United States Senator                                   Sean Hubbard                          PRECINCT 305                                           01 
01340010015000008DEM       United States Senator                                   Sean Hubbard                          PRECINCT 401                                           01 
01340010016000002DEM       United States Senator                                   Sean Hubbard                          PRECINCT 402                                           01 
01340010017000005DEM       United States Senator                                   Sean Hubbard                          PRECINCT 403                                           01 
01340010018000030DEM       United States Senator                                   Sean Hubbard                          PRECINCT 404                                           01 
01340020001000007DEM       United States Senator                                   Addie Dainell Allen                   PRECINCT 101                                           01 
01340020002000019DEM       United States Senator                                   Addie Dainell Allen                   PRECINCT 102                                           01 
01340020003000005DEM       United States Senator                                   Addie Dainell Allen                   PRECINCT 103                                           01 
01340020004000001DEM       United States Senator                                   Addie Dainell Allen                   PRECINCT 104                                           01 
01340020005000012DEM       United States Senator                                   Addie Dainell Allen                   PRECINCT 201                                           01 
01340020006000003DEM       United States Senator                                   Addie Dainell Allen                   PRECINCT 203                                           01 
01340020007000018DEM       United States Senator                                   Addie Dainell Allen                   PRECINCT 204                                           01 
01340020008000003DEM       United States Senator                                   Addie Dainell Allen                   PRECINCT 205                                           01 
01340020009000003DEM       United States Senator                                   Addie Dainell Allen                   PRECINCT 206                                           01 
01340020010000009DEM       United States Senator                                   Addie Dainell Allen                   PRECINCT 301                                           01 
01340020011000002DEM       United States Senator                                   Addie Dainell Allen                   PRECINCT 302                                           01 
01340020012000003DEM       United States Senator                                   Addie Dainell Allen                   PRECINCT 303                                           01 
01340020013000017DEM       United States Senator                                   Addie Dainell Allen                   PRECINCT 304                                           01 
01340020014000000DEM       United States Senator                                   Addie Dainell Allen                   PRECINCT 305                                           01 
01340020015000010DEM       United States Senator                                   Addie Dainell Allen                   PRECINCT 401                                           01 
01340020016000000DEM       United States Senator                                   Addie Dainell Allen                   PRECINCT 402                                           01 
01340020017000006DEM       United States Senator                                   Addie Dainell Allen                   PRECINCT 403                                           01 
01340020018000020DEM       United States Senator                                   Addie Dainell Allen                   PRECINCT 404                                           01 
01340030001000011DEM       United States Senator                                   Grady Yarbrough                       PRECINCT 101                                           01 
01340030002000017DEM       United States Senator                                   Grady Yarbrough                       PRECINCT 102                                           01 
01340030003000014DEM       United States Senator                                   Grady Yarbrough                       PRECINCT 103                                           01 
01340030004000002DEM       United States Senator                                   Grady Yarbrough                       PRECINCT 104                                           01 
01340030005000011DEM       United States Senator                                   Grady Yarbrough                       PRECINCT 201                                           01 
01340030006000004DEM       United States Senator                                   Grady Yarbrough                       PRECINCT 203                                           01 
01340030007000018DEM       United States Senator                                   Grady Yarbrough                       PRECINCT 204                                           01 
01340030008000008DEM       United States Senator                                   Grady Yarbrough                       PRECINCT 205                                           01 
01340030009000000DEM       United States Senator                                   Grady Yarbrough                       PRECINCT 206                                           01 
01340030010000024DEM       United States Senator                                   Grady Yarbrough                       PRECINCT 301                                           01 
01340030011000000DEM       United States Senator                                   Grady Yarbrough                       PRECINCT 302                                           01 
01340030012000007DEM       United States Senator                                   Grady Yarbrough                       PRECINCT 303                                           01 
01340030013000021DEM       United States Senator                                   Grady Yarbrough                       PRECINCT 304                                           01 
01340030014000001DEM       United States Senator                                   Grady Yarbrough                       PRECINCT 305                                           01 
01340030015000013DEM       United States Senator                                   Grady Yarbrough                       PRECINCT 401                                           01 
01340030016000003DEM       United States Senator                                   Grady Yarbrough                       PRECINCT 402                                           01 
01340030017000003DEM       United States Senator                                   Grady Yarbrough                       PRECINCT 403                                           01 
01340030018000025DEM       United States Senator                                   Grady Yarbrough                       PRECINCT 404                                           01 
01340040001000000DEM       United States Senator                                   Paul Sadler                           PRECINCT 101                                           01 
01340040002000024DEM       United States Senator                                   Paul Sadler                           PRECINCT 102                                           01 
01340040003000016DEM       United States Senator                                   Paul Sadler                           PRECINCT 103                                           01 
01340040004000012DEM       United States Senator                                   Paul Sadler                           PRECINCT 104                                           01 
01340040005000031DEM       United States Senator                                   Paul Sadler                           PRECINCT 201                                           01 
01340040006000002DEM       United States Senator                                   Paul Sadler                           PRECINCT 203                                           01 
01340040007000012DEM       United States Senator                                   Paul Sadler                           PRECINCT 204                                           01 
01340040008000027DEM       United States Senator                                   Paul Sadler                           PRECINCT 205                                           01 
01340040009000016DEM       United States Senator                                   Paul Sadler                           PRECINCT 206                                           01 
01340040010000018DEM       United States Senator                                   Paul Sadler                           PRECINCT 301                                           01 
01340040011000001DEM       United States Senator                                   Paul Sadler                           PRECINCT 302                                           01 
01340040012000005DEM       United States Senator                                   Paul Sadler                           PRECINCT 303                                           01 
01340040013000017DEM       United States Senator                                   Paul Sadler                           PRECINCT 304                                           01 
01340040014000000DEM       United States Senator                                   Paul Sadler                           PRECINCT 305                                           01 
01340040015000008DEM       United States Senator                                   Paul Sadler                           PRECINCT 401                                           01 
01340040016000003DEM       United States Senator                                   Paul Sadler                           PRECINCT 402                                           01 
01340040017000004DEM       United States Senator                                   Paul Sadler                           PRECINCT 403                                           01 
01340040018000017DEM       United States Senator                                   Paul Sadler                           PRECINCT 404                                           01 
01350010001000019DEM       United States Representative, District 8                Neil Burns                            PRECINCT 101                                           01 
01350010002000061DEM       United States Representative, District 8                Neil Burns                            PRECINCT 102                                           01 
01350010003000040DEM       United States Representative, District 8                Neil Burns                            PRECINCT 103                                           01 
01350010004000021DEM       United States Representative, District 8                Neil Burns                            PRECINCT 104                                           01 
01350010005000071DEM       United States Representative, District 8                Neil Burns                            PRECINCT 201                                           01 
01350010006000009DEM       United States Representative, District 8                Neil Burns                            PRECINCT 203                                           01 
01350010007000056DEM       United States Representative, District 8                Neil Burns                            PRECINCT 204                                           01 
01350010008000054DEM       United States Representative, District 8                Neil Burns                            PRECINCT 205                                           01 
01350010009000027DEM       United States Representative, District 8                Neil Burns                            PRECINCT 206                                           01 
01350010010000056DEM       United States Representative, District 8                Neil Burns                            PRECINCT 301                                           01 
01350010011000003DEM       United States Representative, District 8                Neil Burns                            PRECINCT 302                                           01 
01350010012000016DEM       United States Representative, District 8                Neil Burns                            PRECINCT 303                                           01 
01350010013000066DEM       United States Representative, District 8                Neil Burns                            PRECINCT 304                                           01 
01350010014000000DEM       United States Representative, District 8                Neil Burns                            PRECINCT 305                                           01 
01350010015000035DEM       United States Representative, District 8                Neil Burns                            PRECINCT 401                                           01 
01350010016000007DEM       United States Representative, District 8                Neil Burns                            PRECINCT 402                                           01 
01350010017000014DEM       United States Representative, District 8                Neil Burns                            PRECINCT 403                                           01 
01350010018000077DEM       United States Representative, District 8                Neil Burns                            PRECINCT 404                                           01 
01360010001000019DEM       Railroad Commissioner                                   Dale Henry                            PRECINCT 101                                           01 
01360010002000063DEM       Railroad Commissioner                                   Dale Henry                            PRECINCT 102                                           01 
01360010003000041DEM       Railroad Commissioner                                   Dale Henry                            PRECINCT 103                                           01 
01360010004000023DEM       Railroad Commissioner                                   Dale Henry                            PRECINCT 104                                           01 
01360010005000071DEM       Railroad Commissioner                                   Dale Henry                            PRECINCT 201                                           01 
01360010006000010DEM       Railroad Commissioner                                   Dale Henry                            PRECINCT 203                                           01 
01360010007000061DEM       Railroad Commissioner                                   Dale Henry                            PRECINCT 204                                           01 
01360010008000055DEM       Railroad Commissioner                                   Dale Henry                            PRECINCT 205                                           01 
01360010009000027DEM       Railroad Commissioner                                   Dale Henry                            PRECINCT 206                                           01 
01360010010000059DEM       Railroad Commissioner                                   Dale Henry                            PRECINCT 301                                           01 
01360010011000003DEM       Railroad Commissioner                                   Dale Henry                            PRECINCT 302                                           01 
01360010012000016DEM       Railroad Commissioner                                   Dale Henry                            PRECINCT 303                                           01 
01360010013000069DEM       Railroad Commissioner                                   Dale Henry                            PRECINCT 304                                           01 
01360010014000000DEM       Railroad Commissioner                                   Dale Henry                            PRECINCT 305                                           01 
01360010015000035DEM       Railroad Commissioner                                   Dale Henry                            PRECINCT 401                                           01 
01360010016000008DEM       Railroad Commissioner                                   Dale Henry                            PRECINCT 402                                           01 
01360010017000013DEM       Railroad Commissioner                                   Dale Henry                            PRECINCT 403                                           01 
01360010018000081DEM       Railroad Commissioner                                   Dale Henry                            PRECINCT 404                                           01 
01370010001000020DEM       Justice, Supreme Court, Place 6                         Michele Petty                         PRECINCT 101                                           01 
01370010002000062DEM       Justice, Supreme Court, Place 6                         Michele Petty                         PRECINCT 102                                           01 
01370010003000042DEM       Justice, Supreme Court, Place 6                         Michele Petty                         PRECINCT 103                                           01 
01370010004000022DEM       Justice, Supreme Court, Place 6                         Michele Petty                         PRECINCT 104                                           01 
01370010005000071DEM       Justice, Supreme Court, Place 6                         Michele Petty                         PRECINCT 201                                           01 
01370010006000010DEM       Justice, Supreme Court, Place 6                         Michele Petty                         PRECINCT 203                                           01 
01370010007000059DEM       Justice, Supreme Court, Place 6                         Michele Petty                         PRECINCT 204                                           01 
01370010008000054DEM       Justice, Supreme Court, Place 6                         Michele Petty                         PRECINCT 205                                           01 
01370010009000026DEM       Justice, Supreme Court, Place 6                         Michele Petty                         PRECINCT 206                                           01 
01370010010000060DEM       Justice, Supreme Court, Place 6                         Michele Petty                         PRECINCT 301                                           01 
01370010011000002DEM       Justice, Supreme Court, Place 6                         Michele Petty                         PRECINCT 302                                           01 
01370010012000017DEM       Justice, Supreme Court, Place 6                         Michele Petty                         PRECINCT 303                                           01 
01370010013000068DEM       Justice, Supreme Court, Place 6                         Michele Petty                         PRECINCT 304                                           01 
01370010014000001DEM       Justice, Supreme Court, Place 6                         Michele Petty                         PRECINCT 305                                           01 
01370010015000034DEM       Justice, Supreme Court, Place 6                         Michele Petty                         PRECINCT 401                                           01 
01370010016000007DEM       Justice, Supreme Court, Place 6                         Michele Petty                         PRECINCT 402                                           01 
01370010017000015DEM       Justice, Supreme Court, Place 6                         Michele Petty                         PRECINCT 403                                           01 
01370010018000081DEM       Justice, Supreme Court, Place 6                         Michele Petty                         PRECINCT 404                                           01 
01380010001000021DEM       Presiding Judge, CT of Criminal Appeals                 Keith Hampton                         PRECINCT 101                                           01 
01380010002000064DEM       Presiding Judge, CT of Criminal Appeals                 Keith Hampton                         PRECINCT 102                                           01 
01380010003000043DEM       Presiding Judge, CT of Criminal Appeals                 Keith Hampton                         PRECINCT 103                                           01 
01380010004000022DEM       Presiding Judge, CT of Criminal Appeals                 Keith Hampton                         PRECINCT 104                                           01 
01380010005000072DEM       Presiding Judge, CT of Criminal Appeals                 Keith Hampton                         PRECINCT 201                                           01 
01380010006000010DEM       Presiding Judge, CT of Criminal Appeals                 Keith Hampton                         PRECINCT 203                                           01 
01380010007000061DEM       Presiding Judge, CT of Criminal Appeals                 Keith Hampton                         PRECINCT 204                                           01 
01380010008000052DEM       Presiding Judge, CT of Criminal Appeals                 Keith Hampton                         PRECINCT 205                                           01 
01380010009000026DEM       Presiding Judge, CT of Criminal Appeals                 Keith Hampton                         PRECINCT 206                                           01 
01380010010000057DEM       Presiding Judge, CT of Criminal Appeals                 Keith Hampton                         PRECINCT 301                                           01 
01380010011000003DEM       Presiding Judge, CT of Criminal Appeals                 Keith Hampton                         PRECINCT 302                                           01 
01380010012000016DEM       Presiding Judge, CT of Criminal Appeals                 Keith Hampton                         PRECINCT 303                                           01 
01380010013000067DEM       Presiding Judge, CT of Criminal Appeals                 Keith Hampton                         PRECINCT 304                                           01 
01380010014000001DEM       Presiding Judge, CT of Criminal Appeals                 Keith Hampton                         PRECINCT 305                                           01 
01380010015000034DEM       Presiding Judge, CT of Criminal Appeals                 Keith Hampton                         PRECINCT 401                                           01 
01380010016000008DEM       Presiding Judge, CT of Criminal Appeals                 Keith Hampton                         PRECINCT 402                                           01 
01380010017000013DEM       Presiding Judge, CT of Criminal Appeals                 Keith Hampton                         PRECINCT 403                                           01 
01380010018000080DEM       Presiding Judge, CT of Criminal Appeals                 Keith Hampton                         PRECINCT 404                                           01 
01390010001000008DEM       Member, State BoE, District 8                           Rick Soliz                            PRECINCT 101                                           01 
01390010002000032DEM       Member, State BoE, District 8                           Rick Soliz                            PRECINCT 102                                           01 
01390010003000025DEM       Member, State BoE, District 8                           Rick Soliz                            PRECINCT 103                                           01 
01390010004000013DEM       Member, State BoE, District 8                           Rick Soliz                            PRECINCT 104                                           01 
01390010005000039DEM       Member, State BoE, District 8                           Rick Soliz                            PRECINCT 201                                           01 
01390010006000006DEM       Member, State BoE, District 8                           Rick Soliz                            PRECINCT 203                                           01 
01390010007000027DEM       Member, State BoE, District 8                           Rick Soliz                            PRECINCT 204                                           01 
01390010008000029DEM       Member, State BoE, District 8                           Rick Soliz                            PRECINCT 205                                           01 
01390010009000012DEM       Member, State BoE, District 8                           Rick Soliz                            PRECINCT 206                                           01 
01390010010000033DEM       Member, State BoE, District 8                           Rick Soliz                            PRECINCT 301                                           01 
01390010011000001DEM       Member, State BoE, District 8                           Rick Soliz                            PRECINCT 302                                           01 
01390010012000007DEM       Member, State BoE, District 8                           Rick Soliz                            PRECINCT 303                                           01 
01390010013000033DEM       Member, State BoE, District 8                           Rick Soliz                            PRECINCT 304                                           01 
01390010014000001DEM       Member, State BoE, District 8                           Rick Soliz                            PRECINCT 305                                           01 
01390010015000023DEM       Member, State BoE, District 8                           Rick Soliz                            PRECINCT 401                                           01 
01390010016000006DEM       Member, State BoE, District 8                           Rick Soliz                            PRECINCT 402                                           01 
01390010017000010DEM       Member, State BoE, District 8                           Rick Soliz                            PRECINCT 403                                           01 
01390010018000050DEM       Member, State BoE, District 8                           Rick Soliz                            PRECINCT 404                                           01 
01390020001000013DEM       Member, State BoE, District 8                           Dexter Smith                          PRECINCT 101                                           01 
01390020002000029DEM       Member, State BoE, District 8                           Dexter Smith                          PRECINCT 102                                           01 
01390020003000016DEM       Member, State BoE, District 8                           Dexter Smith                          PRECINCT 103                                           01 
01390020004000008DEM       Member, State BoE, District 8                           Dexter Smith                          PRECINCT 104                                           01 
01390020005000030DEM       Member, State BoE, District 8                           Dexter Smith                          PRECINCT 201                                           01 
01390020006000004DEM       Member, State BoE, District 8                           Dexter Smith                          PRECINCT 203                                           01 
01390020007000039DEM       Member, State BoE, District 8                           Dexter Smith                          PRECINCT 204                                           01 
01390020008000022DEM       Member, State BoE, District 8                           Dexter Smith                          PRECINCT 205                                           01 
01390020009000013DEM       Member, State BoE, District 8                           Dexter Smith                          PRECINCT 206                                           01 
01390020010000029DEM       Member, State BoE, District 8                           Dexter Smith                          PRECINCT 301                                           01 
01390020011000002DEM       Member, State BoE, District 8                           Dexter Smith                          PRECINCT 302                                           01 
01390020012000008DEM       Member, State BoE, District 8                           Dexter Smith                          PRECINCT 303                                           01 
01390020013000036DEM       Member, State BoE, District 8                           Dexter Smith                          PRECINCT 304                                           01 
01390020014000000DEM       Member, State BoE, District 8                           Dexter Smith                          PRECINCT 305                                           01 
01390020015000013DEM       Member, State BoE, District 8                           Dexter Smith                          PRECINCT 401                                           01 
01390020016000002DEM       Member, State BoE, District 8                           Dexter Smith                          PRECINCT 402                                           01 
01390020017000007DEM       Member, State BoE, District 8                           Dexter Smith                          PRECINCT 403                                           01 
01390020018000037DEM       Member, State BoE, District 8                           Dexter Smith                          PRECINCT 404                                           01 
01400010001000022DEM       County Commissioner, Precinct No. 1                     B.J. Gaines Jr.                       PRECINCT 101                                           01 
01400010002000063DEM       County Commissioner, Precinct No. 1                     B.J. Gaines Jr.                       PRECINCT 102                                           01 
01400010003000049DEM       County Commissioner, Precinct No. 1                     B.J. Gaines Jr.                       PRECINCT 103                                           01 
01400010004000022DEM       County Commissioner, Precinct No. 1                     B.J. Gaines Jr.                       PRECINCT 104                                           01 
01410010010000055DEM       County Commissioner, Precinct No. 3                     Bill Daugette                         PRECINCT 301                                           01 
01410010011000002DEM       County Commissioner, Precinct No. 3                     Bill Daugette                         PRECINCT 302                                           01 
01410010012000014DEM       County Commissioner, Precinct No. 3                     Bill Daugette                         PRECINCT 303                                           01 
01410010013000062DEM       County Commissioner, Precinct No. 3                     Bill Daugette                         PRECINCT 304                                           01 
01410010014000000DEM       County Commissioner, Precinct No. 3                     Bill Daugette                         PRECINCT 305                                           01 
01420010005000065DEM       Justice of the Peace, Precinct No. 2                    Tom Wood                              PRECINCT 201                                           01 
01420010006000010DEM       Justice of the Peace, Precinct No. 2                    Tom Wood                              PRECINCT 203                                           01 
01420010007000058DEM       Justice of the Peace, Precinct No. 2                    Tom Wood                              PRECINCT 204                                           01 
01420010008000053DEM       Justice of the Peace, Precinct No. 2                    Tom Wood                              PRECINCT 205                                           01 
01420010009000026DEM       Justice of the Peace, Precinct No. 2                    Tom Wood                              PRECINCT 206                                           01 
01430010001000020DEM       County Chair                                            Cindy Blaylock                        PRECINCT 101                                           01 
01430010002000062DEM       County Chair                                            Cindy Blaylock                        PRECINCT 102                                           01 
01430010003000043DEM       County Chair                                            Cindy Blaylock                        PRECINCT 103                                           01 
01430010004000023DEM       County Chair                                            Cindy Blaylock                        PRECINCT 104                                           01 
01430010005000073DEM       County Chair                                            Cindy Blaylock                        PRECINCT 201                                           01 
01430010006000010DEM       County Chair                                            Cindy Blaylock                        PRECINCT 203                                           01 
01430010007000062DEM       County Chair                                            Cindy Blaylock                        PRECINCT 204                                           01 
01430010008000056DEM       County Chair                                            Cindy Blaylock                        PRECINCT 205                                           01 
01430010009000026DEM       County Chair                                            Cindy Blaylock                        PRECINCT 206                                           01 
01430010010000059DEM       County Chair                                            Cindy Blaylock                        PRECINCT 301                                           01 
01430010011000003DEM       County Chair                                            Cindy Blaylock                        PRECINCT 302                                           01 
01430010012000015DEM       County Chair                                            Cindy Blaylock                        PRECINCT 303                                           01 
01430010013000061DEM       County Chair                                            Cindy Blaylock                        PRECINCT 304                                           01 
01430010014000000DEM       County Chair                                            Cindy Blaylock                        PRECINCT 305                                           01 
01430010015000034DEM       County Chair                                            Cindy Blaylock                        PRECINCT 401                                           01 
01430010016000006DEM       County Chair                                            Cindy Blaylock                        PRECINCT 402                                           01 
01430010017000014DEM       County Chair                                            Cindy Blaylock                        PRECINCT 403                                           01 
01430010018000078DEM       County Chair                                            Cindy Blaylock                        PRECINCT 404                                           01 
01490010001000024DEM       PROPOSITION 1                                           FOR                                   PRECINCT 101                                           01Y
01490010002000055DEM       PROPOSITION 1                                           FOR                                   PRECINCT 102                                           01Y
01490010003000041DEM       PROPOSITION 1                                           FOR                                   PRECINCT 103                                           01Y
01490010004000018DEM       PROPOSITION 1                                           FOR                                   PRECINCT 104                                           01Y
01490010005000071DEM       PROPOSITION 1                                           FOR                                   PRECINCT 201                                           01Y
01490010006000008DEM       PROPOSITION 1                                           FOR                                   PRECINCT 203                                           01Y
01490010007000062DEM       PROPOSITION 1                                           FOR                                   PRECINCT 204                                           01Y
01490010008000050DEM       PROPOSITION 1                                           FOR                                   PRECINCT 205                                           01Y
01490010009000028DEM       PROPOSITION 1                                           FOR                                   PRECINCT 206                                           01Y
01490010010000061DEM       PROPOSITION 1                                           FOR                                   PRECINCT 301                                           01Y
01490010011000004DEM       PROPOSITION 1                                           FOR                                   PRECINCT 302                                           01Y
01490010012000016DEM       PROPOSITION 1                                           FOR                                   PRECINCT 303                                           01Y
01490010013000060DEM       PROPOSITION 1                                           FOR                                   PRECINCT 304                                           01Y
01490010014000001DEM       PROPOSITION 1                                           FOR                                   PRECINCT 305                                           01Y
01490010015000036DEM       PROPOSITION 1                                           FOR                                   PRECINCT 401                                           01Y
01490010016000009DEM       PROPOSITION 1                                           FOR                                   PRECINCT 402                                           01Y
01490010017000014DEM       PROPOSITION 1                                           FOR                                   PRECINCT 403                                           01Y
01490010018000064DEM       PROPOSITION 1                                           FOR                                   PRECINCT 404                                           01Y
01490020001000001DEM       PROPOSITION 1                                           AGAINST                               PRECINCT 101                                           01Y
01490020002000018DEM       PROPOSITION 1                                           AGAINST                               PRECINCT 102                                           01Y
01490020003000005DEM       PROPOSITION 1                                           AGAINST                               PRECINCT 103                                           01Y
01490020004000006DEM       PROPOSITION 1                                           AGAINST                               PRECINCT 104                                           01Y
01490020005000008DEM       PROPOSITION 1                                           AGAINST                               PRECINCT 201                                           01Y
01490020006000002DEM       PROPOSITION 1                                           AGAINST                               PRECINCT 203                                           01Y
01490020007000006DEM       PROPOSITION 1                                           AGAINST                               PRECINCT 204                                           01Y
01490020008000007DEM       PROPOSITION 1                                           AGAINST                               PRECINCT 205                                           01Y
01490020009000001DEM       PROPOSITION 1                                           AGAINST                               PRECINCT 206                                           01Y
01490020010000003DEM       PROPOSITION 1                                           AGAINST                               PRECINCT 301                                           01Y
01490020011000000DEM       PROPOSITION 1                                           AGAINST                               PRECINCT 302                                           01Y
01490020012000002DEM       PROPOSITION 1                                           AGAINST                               PRECINCT 303                                           01Y
01490020013000013DEM       PROPOSITION 1                                           AGAINST                               PRECINCT 304                                           01Y
01490020014000000DEM       PROPOSITION 1                                           AGAINST                               PRECINCT 305                                           01Y
01490020015000001DEM       PROPOSITION 1                                           AGAINST                               PRECINCT 401                                           01Y
01490020016000000DEM       PROPOSITION 1                                           AGAINST                               PRECINCT 402                                           01Y
01490020017000001DEM       PROPOSITION 1                                           AGAINST                               PRECINCT 403                                           01Y
01490020018000026DEM       PROPOSITION 1                                           AGAINST                               PRECINCT 404                                           01Y
01500010001000024DEM       PROPOSITION 2                                           FOR                                   PRECINCT 101                                           01Y
01500010002000065DEM       PROPOSITION 2                                           FOR                                   PRECINCT 102                                           01Y
01500010003000044DEM       PROPOSITION 2                                           FOR                                   PRECINCT 103                                           01Y
01500010004000024DEM       PROPOSITION 2                                           FOR                                   PRECINCT 104                                           01Y
01500010005000073DEM       PROPOSITION 2                                           FOR                                   PRECINCT 201                                           01Y
01500010006000010DEM       PROPOSITION 2                                           FOR                                   PRECINCT 203                                           01Y
01500010007000063DEM       PROPOSITION 2                                           FOR                                   PRECINCT 204                                           01Y
01500010008000056DEM       PROPOSITION 2                                           FOR                                   PRECINCT 205                                           01Y
01500010009000029DEM       PROPOSITION 2                                           FOR                                   PRECINCT 206                                           01Y
01500010010000064DEM       PROPOSITION 2                                           FOR                                   PRECINCT 301                                           01Y
01500010011000004DEM       PROPOSITION 2                                           FOR                                   PRECINCT 302                                           01Y
01500010012000017DEM       PROPOSITION 2                                           FOR                                   PRECINCT 303                                           01Y
01500010013000071DEM       PROPOSITION 2                                           FOR                                   PRECINCT 304                                           01Y
01500010014000001DEM       PROPOSITION 2                                           FOR                                   PRECINCT 305                                           01Y
01500010015000036DEM       PROPOSITION 2                                           FOR                                   PRECINCT 401                                           01Y
01500010016000008DEM       PROPOSITION 2                                           FOR                                   PRECINCT 402                                           01Y
01500010017000013DEM       PROPOSITION 2                                           FOR                                   PRECINCT 403                                           01Y
01500010018000082DEM       PROPOSITION 2                                           FOR                                   PRECINCT 404                                           01Y
01500020001000001DEM       PROPOSITION 2                                           AGAINST                               PRECINCT 101                                           01Y
01500020002000009DEM       PROPOSITION 2                                           AGAINST                               PRECINCT 102                                           01Y
01500020003000002DEM       PROPOSITION 2                                           AGAINST                               PRECINCT 103                                           01Y
01500020004000000DEM       PROPOSITION 2                                           AGAINST                               PRECINCT 104                                           01Y
01500020005000006DEM       PROPOSITION 2                                           AGAINST                               PRECINCT 201                                           01Y
01500020006000000DEM       PROPOSITION 2                                           AGAINST                               PRECINCT 203                                           01Y
01500020007000005DEM       PROPOSITION 2                                           AGAINST                               PRECINCT 204                                           01Y
01500020008000001DEM       PROPOSITION 2                                           AGAINST                               PRECINCT 205                                           01Y
01500020009000000DEM       PROPOSITION 2                                           AGAINST                               PRECINCT 206                                           01Y
01500020010000002DEM       PROPOSITION 2                                           AGAINST                               PRECINCT 301                                           01Y
01500020011000000DEM       PROPOSITION 2                                           AGAINST                               PRECINCT 302                                           01Y
01500020012000001DEM       PROPOSITION 2                                           AGAINST                               PRECINCT 303                                           01Y
01500020013000003DEM       PROPOSITION 2                                           AGAINST                               PRECINCT 304                                           01Y
01500020014000000DEM       PROPOSITION 2                                           AGAINST                               PRECINCT 305                                           01Y
01500020015000001DEM       PROPOSITION 2                                           AGAINST                               PRECINCT 401                                           01Y
01500020016000001DEM       PROPOSITION 2                                           AGAINST                               PRECINCT 402                                           01Y
01500020017000002DEM       PROPOSITION 2                                           AGAINST                               PRECINCT 403                                           01Y
01500020018000009DEM       PROPOSITION 2                                           AGAINST                               PRECINCT 404                                           01Y
01510010001000017DEM       PROPOSITION 3                                           FOR                                   PRECINCT 101                                           01Y
01510010002000051DEM       PROPOSITION 3                                           FOR                                   PRECINCT 102                                           01Y
01510010003000038DEM       PROPOSITION 3                                           FOR                                   PRECINCT 103                                           01Y
01510010004000011DEM       PROPOSITION 3                                           FOR                                   PRECINCT 104                                           01Y
01510010005000060DEM       PROPOSITION 3                                           FOR                                   PRECINCT 201                                           01Y
01510010006000008DEM       PROPOSITION 3                                           FOR                                   PRECINCT 203                                           01Y
01510010007000043DEM       PROPOSITION 3                                           FOR                                   PRECINCT 204                                           01Y
01510010008000045DEM       PROPOSITION 3                                           FOR                                   PRECINCT 205                                           01Y
01510010009000018DEM       PROPOSITION 3                                           FOR                                   PRECINCT 206                                           01Y
01510010010000050DEM       PROPOSITION 3                                           FOR                                   PRECINCT 301                                           01Y
01510010011000002DEM       PROPOSITION 3                                           FOR                                   PRECINCT 302                                           01Y
01510010012000012DEM       PROPOSITION 3                                           FOR                                   PRECINCT 303                                           01Y
01510010013000061DEM       PROPOSITION 3                                           FOR                                   PRECINCT 304                                           01Y
01510010014000000DEM       PROPOSITION 3                                           FOR                                   PRECINCT 305                                           01Y
01510010015000031DEM       PROPOSITION 3                                           FOR                                   PRECINCT 401                                           01Y
01510010016000004DEM       PROPOSITION 3                                           FOR                                   PRECINCT 402                                           01Y
01510010017000012DEM       PROPOSITION 3                                           FOR                                   PRECINCT 403                                           01Y
01510010018000073DEM       PROPOSITION 3                                           FOR                                   PRECINCT 404                                           01Y
01510020001000007DEM       PROPOSITION 3                                           AGAINST                               PRECINCT 101                                           01Y
01510020002000025DEM       PROPOSITION 3                                           AGAINST                               PRECINCT 102                                           01Y
01510020003000012DEM       PROPOSITION 3                                           AGAINST                               PRECINCT 103                                           01Y
01510020004000013DEM       PROPOSITION 3                                           AGAINST                               PRECINCT 104                                           01Y
01510020005000018DEM       PROPOSITION 3                                           AGAINST                               PRECINCT 201                                           01Y
01510020006000002DEM       PROPOSITION 3                                           AGAINST                               PRECINCT 203                                           01Y
01510020007000024DEM       PROPOSITION 3                                           AGAINST                               PRECINCT 204                                           01Y
01510020008000015DEM       PROPOSITION 3                                           AGAINST                               PRECINCT 205                                           01Y
01510020009000011DEM       PROPOSITION 3                                           AGAINST                               PRECINCT 206                                           01Y
01510020010000017DEM       PROPOSITION 3                                           AGAINST                               PRECINCT 301                                           01Y
01510020011000002DEM       PROPOSITION 3                                           AGAINST                               PRECINCT 302                                           01Y
01510020012000004DEM       PROPOSITION 3                                           AGAINST                               PRECINCT 303                                           01Y
01510020013000014DEM       PROPOSITION 3                                           AGAINST                               PRECINCT 304                                           01Y
01510020014000001DEM       PROPOSITION 3                                           AGAINST                               PRECINCT 305                                           01Y
01510020015000009DEM       PROPOSITION 3                                           AGAINST                               PRECINCT 401                                           01Y
01510020016000005DEM       PROPOSITION 3                                           AGAINST                               PRECINCT 402                                           01Y
01510020017000004DEM       PROPOSITION 3                                           AGAINST                               PRECINCT 403                                           01Y
01510020018000018DEM       PROPOSITION 3                                           AGAINST                               PRECINCT 404                                           01Y
