01070010001000174REP       President                                               Mitt Romney                           PRECINCT 101                                           01 
01070010002000063REP       President                                               Mitt Romney                           PRECINCT 104                                           01 
01070010003000255REP       President                                               Mitt Romney                           PRECINCT 109                                           01 
01070010004000178REP       President                                               Mitt Romney                           PRECINCT 115                                           01 
01070010005000000REP       President                                               Mitt Romney                           PRECINCT 117                                           01 
01070010006000011REP       President                                               Mitt Romney                           PRECINCT 121                                           01 
01070010007000018REP       President                                               Mitt Romney                           PRECINCT 202                                           01 
01070010008000390REP       President                                               Mitt Romney                           PRECINCT 203                                           01 
01070010009000481REP       President                                               Mitt Romney                           PRECINCT 205                                           01 
01070010010000349REP       President                                               Mitt Romney                           PRECINCT 208                                           01 
01070010011000290REP       President                                               Mitt Romney                           PRECINCT 307                                           01 
01070010012000262REP       President                                               Mitt Romney                           PRECINCT 311                                           01 
01070010013000276REP       President                                               Mitt Romney                           PRECINCT 312                                           01 
01070010014000037REP       President                                               Mitt Romney                           PRECINCT 316                                           01 
01070010015000493REP       President                                               Mitt Romney                           PRECINCT 320                                           01 
01070010016000304REP       President                                               Mitt Romney                           PRECINCT 406                                           01 
01070010017000228REP       President                                               Mitt Romney                           PRECINCT 410                                           01 
01070010018000172REP       President                                               Mitt Romney                           PRECINCT 413                                           01 
01070010019000208REP       President                                               Mitt Romney                           PRECINCT 414                                           01 
01070010020000083REP       President                                               Mitt Romney                           PRECINCT 418                                           01 
01070010021000117REP       President                                               Mitt Romney                           PRECINCT 419                                           01 
01070020001000000REP       President                                               Jon Huntsman                          PRECINCT 101                                           01 
01070020002000000REP       President                                               Jon Huntsman                          PRECINCT 104                                           01 
01070020003000002REP       President                                               Jon Huntsman                          PRECINCT 109                                           01 
01070020004000001REP       President                                               Jon Huntsman                          PRECINCT 115                                           01 
01070020005000001REP       President                                               Jon Huntsman                          PRECINCT 117                                           01 
01070020006000000REP       President                                               Jon Huntsman                          PRECINCT 121                                           01 
01070020007000000REP       President                                               Jon Huntsman                          PRECINCT 202                                           01 
01070020008000002REP       President                                               Jon Huntsman                          PRECINCT 203                                           01 
01070020009000005REP       President                                               Jon Huntsman                          PRECINCT 205                                           01 
01070020010000002REP       President                                               Jon Huntsman                          PRECINCT 208                                           01 
01070020011000000REP       President                                               Jon Huntsman                          PRECINCT 307                                           01 
01070020012000001REP       President                                               Jon Huntsman                          PRECINCT 311                                           01 
01070020013000002REP       President                                               Jon Huntsman                          PRECINCT 312                                           01 
01070020014000001REP       President                                               Jon Huntsman                          PRECINCT 316                                           01 
01070020015000006REP       President                                               Jon Huntsman                          PRECINCT 320                                           01 
01070020016000002REP       President                                               Jon Huntsman                          PRECINCT 406                                           01 
01070020017000001REP       President                                               Jon Huntsman                          PRECINCT 410                                           01 
01070020018000001REP       President                                               Jon Huntsman                          PRECINCT 413                                           01 
01070020019000001REP       President                                               Jon Huntsman                          PRECINCT 414                                           01 
01070020020000002REP       President                                               Jon Huntsman                          PRECINCT 418                                           01 
01070020021000001REP       President                                               Jon Huntsman                          PRECINCT 419                                           01 
01070030001000038REP       President                                               Ron Paul                              PRECINCT 101                                           01 
01070030002000023REP       President                                               Ron Paul                              PRECINCT 104                                           01 
01070030003000029REP       President                                               Ron Paul                              PRECINCT 109                                           01 
01070030004000026REP       President                                               Ron Paul                              PRECINCT 115                                           01 
01070030005000000REP       President                                               Ron Paul                              PRECINCT 117                                           01 
01070030006000003REP       President                                               Ron Paul                              PRECINCT 121                                           01 
01070030007000009REP       President                                               Ron Paul                              PRECINCT 202                                           01 
01070030008000091REP       President                                               Ron Paul                              PRECINCT 203                                           01 
01070030009000062REP       President                                               Ron Paul                              PRECINCT 205                                           01 
01070030010000067REP       President                                               Ron Paul                              PRECINCT 208                                           01 
01070030011000051REP       President                                               Ron Paul                              PRECINCT 307                                           01 
01070030012000049REP       President                                               Ron Paul                              PRECINCT 311                                           01 
01070030013000041REP       President                                               Ron Paul                              PRECINCT 312                                           01 
01070030014000003REP       President                                               Ron Paul                              PRECINCT 316                                           01 
01070030015000092REP       President                                               Ron Paul                              PRECINCT 320                                           01 
01070030016000053REP       President                                               Ron Paul                              PRECINCT 406                                           01 
01070030017000034REP       President                                               Ron Paul                              PRECINCT 410                                           01 
01070030018000034REP       President                                               Ron Paul                              PRECINCT 413                                           01 
01070030019000020REP       President                                               Ron Paul                              PRECINCT 414                                           01 
01070030020000019REP       President                                               Ron Paul                              PRECINCT 418                                           01 
01070030021000017REP       President                                               Ron Paul                              PRECINCT 419                                           01 
01070040001000001REP       President                                               Michele Bachmann                      PRECINCT 101                                           01 
01070040002000001REP       President                                               Michele Bachmann                      PRECINCT 104                                           01 
01070040003000006REP       President                                               Michele Bachmann                      PRECINCT 109                                           01 
01070040004000004REP       President                                               Michele Bachmann                      PRECINCT 115                                           01 
01070040005000000REP       President                                               Michele Bachmann                      PRECINCT 117                                           01 
01070040006000000REP       President                                               Michele Bachmann                      PRECINCT 121                                           01 
01070040007000001REP       President                                               Michele Bachmann                      PRECINCT 202                                           01 
01070040008000003REP       President                                               Michele Bachmann                      PRECINCT 203                                           01 
01070040009000000REP       President                                               Michele Bachmann                      PRECINCT 205                                           01 
01070040010000001REP       President                                               Michele Bachmann                      PRECINCT 208                                           01 
01070040011000000REP       President                                               Michele Bachmann                      PRECINCT 307                                           01 
01070040012000000REP       President                                               Michele Bachmann                      PRECINCT 311                                           01 
01070040013000003REP       President                                               Michele Bachmann                      PRECINCT 312                                           01 
01070040014000000REP       President                                               Michele Bachmann                      PRECINCT 316                                           01 
01070040015000003REP       President                                               Michele Bachmann                      PRECINCT 320                                           01 
01070040016000002REP       President                                               Michele Bachmann                      PRECINCT 406                                           01 
01070040017000005REP       President                                               Michele Bachmann                      PRECINCT 410                                           01 
01070040018000001REP       President                                               Michele Bachmann                      PRECINCT 413                                           01 
01070040019000001REP       President                                               Michele Bachmann                      PRECINCT 414                                           01 
01070040020000000REP       President                                               Michele Bachmann                      PRECINCT 418                                           01 
01070040021000000REP       President                                               Michele Bachmann                      PRECINCT 419                                           01 
01070050001000001REP       President                                               John Davis                            PRECINCT 101                                           01 
01070050002000000REP       President                                               John Davis                            PRECINCT 104                                           01 
01070050003000000REP       President                                               John Davis                            PRECINCT 109                                           01 
01070050004000000REP       President                                               John Davis                            PRECINCT 115                                           01 
01070050005000000REP       President                                               John Davis                            PRECINCT 117                                           01 
01070050006000000REP       President                                               John Davis                            PRECINCT 121                                           01 
01070050007000000REP       President                                               John Davis                            PRECINCT 202                                           01 
01070050008000000REP       President                                               John Davis                            PRECINCT 203                                           01 
01070050009000003REP       President                                               John Davis                            PRECINCT 205                                           01 
01070050010000001REP       President                                               John Davis                            PRECINCT 208                                           01 
01070050011000002REP       President                                               John Davis                            PRECINCT 307                                           01 
01070050012000000REP       President                                               John Davis                            PRECINCT 311                                           01 
01070050013000002REP       President                                               John Davis                            PRECINCT 312                                           01 
01070050014000000REP       President                                               John Davis                            PRECINCT 316                                           01 
01070050015000000REP       President                                               John Davis                            PRECINCT 320                                           01 
01070050016000000REP       President                                               John Davis                            PRECINCT 406                                           01 
01070050017000001REP       President                                               John Davis                            PRECINCT 410                                           01 
01070050018000000REP       President                                               John Davis                            PRECINCT 413                                           01 
01070050019000001REP       President                                               John Davis                            PRECINCT 414                                           01 
01070050020000000REP       President                                               John Davis                            PRECINCT 418                                           01 
01070050021000000REP       President                                               John Davis                            PRECINCT 419                                           01 
01070060001000011REP       President                                               Rick Santorum                         PRECINCT 101                                           01 
01070060002000005REP       President                                               Rick Santorum                         PRECINCT 104                                           01 
01070060003000017REP       President                                               Rick Santorum                         PRECINCT 109                                           01 
01070060004000018REP       President                                               Rick Santorum                         PRECINCT 115                                           01 
01070060005000000REP       President                                               Rick Santorum                         PRECINCT 117                                           01 
01070060006000001REP       President                                               Rick Santorum                         PRECINCT 121                                           01 
01070060007000000REP       President                                               Rick Santorum                         PRECINCT 202                                           01 
01070060008000033REP       President                                               Rick Santorum                         PRECINCT 203                                           01 
01070060009000037REP       President                                               Rick Santorum                         PRECINCT 205                                           01 
01070060010000035REP       President                                               Rick Santorum                         PRECINCT 208                                           01 
01070060011000020REP       President                                               Rick Santorum                         PRECINCT 307                                           01 
01070060012000016REP       President                                               Rick Santorum                         PRECINCT 311                                           01 
01070060013000017REP       President                                               Rick Santorum                         PRECINCT 312                                           01 
01070060014000003REP       President                                               Rick Santorum                         PRECINCT 316                                           01 
01070060015000045REP       President                                               Rick Santorum                         PRECINCT 320                                           01 
01070060016000018REP       President                                               Rick Santorum                         PRECINCT 406                                           01 
01070060017000014REP       President                                               Rick Santorum                         PRECINCT 410                                           01 
01070060018000016REP       President                                               Rick Santorum                         PRECINCT 413                                           01 
01070060019000016REP       President                                               Rick Santorum                         PRECINCT 414                                           01 
01070060020000006REP       President                                               Rick Santorum                         PRECINCT 418                                           01 
01070060021000011REP       President                                               Rick Santorum                         PRECINCT 419                                           01 
01070070001000001REP       President                                               Charles "Buddy" Roemer                PRECINCT 101                                           01 
01070070002000000REP       President                                               Charles "Buddy" Roemer                PRECINCT 104                                           01 
01070070003000000REP       President                                               Charles "Buddy" Roemer                PRECINCT 109                                           01 
01070070004000003REP       President                                               Charles "Buddy" Roemer                PRECINCT 115                                           01 
01070070005000000REP       President                                               Charles "Buddy" Roemer                PRECINCT 117                                           01 
01070070006000000REP       President                                               Charles "Buddy" Roemer                PRECINCT 121                                           01 
01070070007000001REP       President                                               Charles "Buddy" Roemer                PRECINCT 202                                           01 
01070070008000006REP       President                                               Charles "Buddy" Roemer                PRECINCT 203                                           01 
01070070009000002REP       President                                               Charles "Buddy" Roemer                PRECINCT 205                                           01 
01070070010000001REP       President                                               Charles "Buddy" Roemer                PRECINCT 208                                           01 
01070070011000001REP       President                                               Charles "Buddy" Roemer                PRECINCT 307                                           01 
01070070012000001REP       President                                               Charles "Buddy" Roemer                PRECINCT 311                                           01 
01070070013000002REP       President                                               Charles "Buddy" Roemer                PRECINCT 312                                           01 
01070070014000000REP       President                                               Charles "Buddy" Roemer                PRECINCT 316                                           01 
01070070015000002REP       President                                               Charles "Buddy" Roemer                PRECINCT 320                                           01 
01070070016000001REP       President                                               Charles "Buddy" Roemer                PRECINCT 406                                           01 
01070070017000005REP       President                                               Charles "Buddy" Roemer                PRECINCT 410                                           01 
01070070018000001REP       President                                               Charles "Buddy" Roemer                PRECINCT 413                                           01 
01070070019000000REP       President                                               Charles "Buddy" Roemer                PRECINCT 414                                           01 
01070070020000000REP       President                                               Charles "Buddy" Roemer                PRECINCT 418                                           01 
01070070021000000REP       President                                               Charles "Buddy" Roemer                PRECINCT 419                                           01 
01070080001000014REP       President                                               Newt Gingrich                         PRECINCT 101                                           01 
01070080002000009REP       President                                               Newt Gingrich                         PRECINCT 104                                           01 
01070080003000010REP       President                                               Newt Gingrich                         PRECINCT 109                                           01 
01070080004000014REP       President                                               Newt Gingrich                         PRECINCT 115                                           01 
01070080005000000REP       President                                               Newt Gingrich                         PRECINCT 117                                           01 
01070080006000001REP       President                                               Newt Gingrich                         PRECINCT 121                                           01 
01070080007000000REP       President                                               Newt Gingrich                         PRECINCT 202                                           01 
01070080008000018REP       President                                               Newt Gingrich                         PRECINCT 203                                           01 
01070080009000020REP       President                                               Newt Gingrich                         PRECINCT 205                                           01 
01070080010000020REP       President                                               Newt Gingrich                         PRECINCT 208                                           01 
01070080011000013REP       President                                               Newt Gingrich                         PRECINCT 307                                           01 
01070080012000020REP       President                                               Newt Gingrich                         PRECINCT 311                                           01 
01070080013000014REP       President                                               Newt Gingrich                         PRECINCT 312                                           01 
01070080014000000REP       President                                               Newt Gingrich                         PRECINCT 316                                           01 
01070080015000020REP       President                                               Newt Gingrich                         PRECINCT 320                                           01 
01070080016000020REP       President                                               Newt Gingrich                         PRECINCT 406                                           01 
01070080017000008REP       President                                               Newt Gingrich                         PRECINCT 410                                           01 
01070080018000009REP       President                                               Newt Gingrich                         PRECINCT 413                                           01 
01070080019000012REP       President                                               Newt Gingrich                         PRECINCT 414                                           01 
01070080020000007REP       President                                               Newt Gingrich                         PRECINCT 418                                           01 
01070080021000006REP       President                                               Newt Gingrich                         PRECINCT 419                                           01 
01070090001000013REP       President                                               Uncommitted                           PRECINCT 101                                           01 
01070090002000012REP       President                                               Uncommitted                           PRECINCT 104                                           01 
01070090003000010REP       President                                               Uncommitted                           PRECINCT 109                                           01 
01070090004000005REP       President                                               Uncommitted                           PRECINCT 115                                           01 
01070090005000001REP       President                                               Uncommitted                           PRECINCT 117                                           01 
01070090006000000REP       President                                               Uncommitted                           PRECINCT 121                                           01 
01070090007000002REP       President                                               Uncommitted                           PRECINCT 202                                           01 
01070090008000028REP       President                                               Uncommitted                           PRECINCT 203                                           01 
01070090009000020REP       President                                               Uncommitted                           PRECINCT 205                                           01 
01070090010000011REP       President                                               Uncommitted                           PRECINCT 208                                           01 
01070090011000020REP       President                                               Uncommitted                           PRECINCT 307                                           01 
01070090012000009REP       President                                               Uncommitted                           PRECINCT 311                                           01 
01070090013000018REP       President                                               Uncommitted                           PRECINCT 312                                           01 
01070090014000004REP       President                                               Uncommitted                           PRECINCT 316                                           01 
01070090015000033REP       President                                               Uncommitted                           PRECINCT 320                                           01 
01070090016000028REP       President                                               Uncommitted                           PRECINCT 406                                           01 
01070090017000013REP       President                                               Uncommitted                           PRECINCT 410                                           01 
01070090018000013REP       President                                               Uncommitted                           PRECINCT 413                                           01 
01070090019000010REP       President                                               Uncommitted                           PRECINCT 414                                           01 
01070090020000002REP       President                                               Uncommitted                           PRECINCT 418                                           01 
01070090021000013REP       President                                               Uncommitted                           PRECINCT 419                                           01 
01070100001000000REP       President                                               OVER VOTES                            PRECINCT 101                                           01 
01070100002000000REP       President                                               OVER VOTES                            PRECINCT 104                                           01 
01070100003000000REP       President                                               OVER VOTES                            PRECINCT 109                                           01 
01070100004000000REP       President                                               OVER VOTES                            PRECINCT 115                                           01 
01070100005000000REP       President                                               OVER VOTES                            PRECINCT 117                                           01 
01070100006000000REP       President                                               OVER VOTES                            PRECINCT 121                                           01 
01070100007000000REP       President                                               OVER VOTES                            PRECINCT 202                                           01 
01070100008000000REP       President                                               OVER VOTES                            PRECINCT 203                                           01 
01070100009000000REP       President                                               OVER VOTES                            PRECINCT 205                                           01 
01070100010000000REP       President                                               OVER VOTES                            PRECINCT 208                                           01 
01070100011000000REP       President                                               OVER VOTES                            PRECINCT 307                                           01 
01070100012000000REP       President                                               OVER VOTES                            PRECINCT 311                                           01 
01070100013000000REP       President                                               OVER VOTES                            PRECINCT 312                                           01 
01070100014000000REP       President                                               OVER VOTES                            PRECINCT 316                                           01 
01070100015000000REP       President                                               OVER VOTES                            PRECINCT 320                                           01 
01070100016000000REP       President                                               OVER VOTES                            PRECINCT 406                                           01 
01070100017000000REP       President                                               OVER VOTES                            PRECINCT 410                                           01 
01070100018000000REP       President                                               OVER VOTES                            PRECINCT 413                                           01 
01070100019000000REP       President                                               OVER VOTES                            PRECINCT 414                                           01 
01070100020000000REP       President                                               OVER VOTES                            PRECINCT 418                                           01 
01070100021000000REP       President                                               OVER VOTES                            PRECINCT 419                                           01 
01070110001000014REP       President                                               UNDER VOTES                           PRECINCT 101                                           01 
01070110002000014REP       President                                               UNDER VOTES                           PRECINCT 104                                           01 
01070110003000019REP       President                                               UNDER VOTES                           PRECINCT 109                                           01 
01070110004000005REP       President                                               UNDER VOTES                           PRECINCT 115                                           01 
01070110005000003REP       President                                               UNDER VOTES                           PRECINCT 117                                           01 
01070110006000003REP       President                                               UNDER VOTES                           PRECINCT 121                                           01 
01070110007000000REP       President                                               UNDER VOTES                           PRECINCT 202                                           01 
01070110008000024REP       President                                               UNDER VOTES                           PRECINCT 203                                           01 
01070110009000022REP       President                                               UNDER VOTES                           PRECINCT 205                                           01 
01070110010000025REP       President                                               UNDER VOTES                           PRECINCT 208                                           01 
01070110011000010REP       President                                               UNDER VOTES                           PRECINCT 307                                           01 
01070110012000012REP       President                                               UNDER VOTES                           PRECINCT 311                                           01 
01070110013000012REP       President                                               UNDER VOTES                           PRECINCT 312                                           01 
01070110014000001REP       President                                               UNDER VOTES                           PRECINCT 316                                           01 
01070110015000031REP       President                                               UNDER VOTES                           PRECINCT 320                                           01 
01070110016000026REP       President                                               UNDER VOTES                           PRECINCT 406                                           01 
01070110017000010REP       President                                               UNDER VOTES                           PRECINCT 410                                           01 
01070110018000005REP       President                                               UNDER VOTES                           PRECINCT 413                                           01 
01070110019000012REP       President                                               UNDER VOTES                           PRECINCT 414                                           01 
01070110020000003REP       President                                               UNDER VOTES                           PRECINCT 418                                           01 
01070110021000008REP       President                                               UNDER VOTES                           PRECINCT 419                                           01 
01080010001000002REP       United States Senator                                   Curt Cleaver                          PRECINCT 101                                           01 
01080010002000001REP       United States Senator                                   Curt Cleaver                          PRECINCT 104                                           01 
01080010003000003REP       United States Senator                                   Curt Cleaver                          PRECINCT 109                                           01 
01080010004000000REP       United States Senator                                   Curt Cleaver                          PRECINCT 115                                           01 
01080010005000000REP       United States Senator                                   Curt Cleaver                          PRECINCT 117                                           01 
01080010006000000REP       United States Senator                                   Curt Cleaver                          PRECINCT 121                                           01 
01080010007000000REP       United States Senator                                   Curt Cleaver                          PRECINCT 202                                           01 
01080010008000002REP       United States Senator                                   Curt Cleaver                          PRECINCT 203                                           01 
01080010009000004REP       United States Senator                                   Curt Cleaver                          PRECINCT 205                                           01 
01080010010000003REP       United States Senator                                   Curt Cleaver                          PRECINCT 208                                           01 
01080010011000006REP       United States Senator                                   Curt Cleaver                          PRECINCT 307                                           01 
01080010012000000REP       United States Senator                                   Curt Cleaver                          PRECINCT 311                                           01 
01080010013000004REP       United States Senator                                   Curt Cleaver                          PRECINCT 312                                           01 
01080010014000000REP       United States Senator                                   Curt Cleaver                          PRECINCT 316                                           01 
01080010015000010REP       United States Senator                                   Curt Cleaver                          PRECINCT 320                                           01 
01080010016000001REP       United States Senator                                   Curt Cleaver                          PRECINCT 406                                           01 
01080010017000005REP       United States Senator                                   Curt Cleaver                          PRECINCT 410                                           01 
01080010018000002REP       United States Senator                                   Curt Cleaver                          PRECINCT 413                                           01 
01080010019000001REP       United States Senator                                   Curt Cleaver                          PRECINCT 414                                           01 
01080010020000003REP       United States Senator                                   Curt Cleaver                          PRECINCT 418                                           01 
01080010021000001REP       United States Senator                                   Curt Cleaver                          PRECINCT 419                                           01 
01080020001000000REP       United States Senator                                   Ben Gambini                           PRECINCT 101                                           01 
01080020002000000REP       United States Senator                                   Ben Gambini                           PRECINCT 104                                           01 
01080020003000002REP       United States Senator                                   Ben Gambini                           PRECINCT 109                                           01 
01080020004000001REP       United States Senator                                   Ben Gambini                           PRECINCT 115                                           01 
01080020005000000REP       United States Senator                                   Ben Gambini                           PRECINCT 117                                           01 
01080020006000000REP       United States Senator                                   Ben Gambini                           PRECINCT 121                                           01 
01080020007000000REP       United States Senator                                   Ben Gambini                           PRECINCT 202                                           01 
01080020008000001REP       United States Senator                                   Ben Gambini                           PRECINCT 203                                           01 
01080020009000002REP       United States Senator                                   Ben Gambini                           PRECINCT 205                                           01 
01080020010000003REP       United States Senator                                   Ben Gambini                           PRECINCT 208                                           01 
01080020011000003REP       United States Senator                                   Ben Gambini                           PRECINCT 307                                           01 
01080020012000000REP       United States Senator                                   Ben Gambini                           PRECINCT 311                                           01 
01080020013000002REP       United States Senator                                   Ben Gambini                           PRECINCT 312                                           01 
01080020014000000REP       United States Senator                                   Ben Gambini                           PRECINCT 316                                           01 
01080020015000002REP       United States Senator                                   Ben Gambini                           PRECINCT 320                                           01 
01080020016000000REP       United States Senator                                   Ben Gambini                           PRECINCT 406                                           01 
01080020017000002REP       United States Senator                                   Ben Gambini                           PRECINCT 410                                           01 
01080020018000000REP       United States Senator                                   Ben Gambini                           PRECINCT 413                                           01 
01080020019000000REP       United States Senator                                   Ben Gambini                           PRECINCT 414                                           01 
01080020020000000REP       United States Senator                                   Ben Gambini                           PRECINCT 418                                           01 
01080020021000001REP       United States Senator                                   Ben Gambini                           PRECINCT 419                                           01 
01080030001000019REP       United States Senator                                   Tom Leppert                           PRECINCT 101                                           01 
01080030002000011REP       United States Senator                                   Tom Leppert                           PRECINCT 104                                           01 
01080030003000019REP       United States Senator                                   Tom Leppert                           PRECINCT 109                                           01 
01080030004000019REP       United States Senator                                   Tom Leppert                           PRECINCT 115                                           01 
01080030005000001REP       United States Senator                                   Tom Leppert                           PRECINCT 117                                           01 
01080030006000000REP       United States Senator                                   Tom Leppert                           PRECINCT 121                                           01 
01080030007000005REP       United States Senator                                   Tom Leppert                           PRECINCT 202                                           01 
01080030008000041REP       United States Senator                                   Tom Leppert                           PRECINCT 203                                           01 
01080030009000029REP       United States Senator                                   Tom Leppert                           PRECINCT 205                                           01 
01080030010000025REP       United States Senator                                   Tom Leppert                           PRECINCT 208                                           01 
01080030011000019REP       United States Senator                                   Tom Leppert                           PRECINCT 307                                           01 
01080030012000022REP       United States Senator                                   Tom Leppert                           PRECINCT 311                                           01 
01080030013000013REP       United States Senator                                   Tom Leppert                           PRECINCT 312                                           01 
01080030014000002REP       United States Senator                                   Tom Leppert                           PRECINCT 316                                           01 
01080030015000042REP       United States Senator                                   Tom Leppert                           PRECINCT 320                                           01 
01080030016000025REP       United States Senator                                   Tom Leppert                           PRECINCT 406                                           01 
01080030017000021REP       United States Senator                                   Tom Leppert                           PRECINCT 410                                           01 
01080030018000023REP       United States Senator                                   Tom Leppert                           PRECINCT 413                                           01 
01080030019000014REP       United States Senator                                   Tom Leppert                           PRECINCT 414                                           01 
01080030020000005REP       United States Senator                                   Tom Leppert                           PRECINCT 418                                           01 
01080030021000015REP       United States Senator                                   Tom Leppert                           PRECINCT 419                                           01 
01080040001000001REP       United States Senator                                   Joe Agris                             PRECINCT 101                                           01 
01080040002000001REP       United States Senator                                   Joe Agris                             PRECINCT 104                                           01 
01080040003000000REP       United States Senator                                   Joe Agris                             PRECINCT 109                                           01 
01080040004000000REP       United States Senator                                   Joe Agris                             PRECINCT 115                                           01 
01080040005000000REP       United States Senator                                   Joe Agris                             PRECINCT 117                                           01 
01080040006000000REP       United States Senator                                   Joe Agris                             PRECINCT 121                                           01 
01080040007000000REP       United States Senator                                   Joe Agris                             PRECINCT 202                                           01 
01080040008000002REP       United States Senator                                   Joe Agris                             PRECINCT 203                                           01 
01080040009000000REP       United States Senator                                   Joe Agris                             PRECINCT 205                                           01 
01080040010000001REP       United States Senator                                   Joe Agris                             PRECINCT 208                                           01 
01080040011000000REP       United States Senator                                   Joe Agris                             PRECINCT 307                                           01 
01080040012000000REP       United States Senator                                   Joe Agris                             PRECINCT 311                                           01 
01080040013000001REP       United States Senator                                   Joe Agris                             PRECINCT 312                                           01 
01080040014000000REP       United States Senator                                   Joe Agris                             PRECINCT 316                                           01 
01080040015000004REP       United States Senator                                   Joe Agris                             PRECINCT 320                                           01 
01080040016000001REP       United States Senator                                   Joe Agris                             PRECINCT 406                                           01 
01080040017000001REP       United States Senator                                   Joe Agris                             PRECINCT 410                                           01 
01080040018000000REP       United States Senator                                   Joe Agris                             PRECINCT 413                                           01 
01080040019000000REP       United States Senator                                   Joe Agris                             PRECINCT 414                                           01 
01080040020000000REP       United States Senator                                   Joe Agris                             PRECINCT 418                                           01 
01080040021000000REP       United States Senator                                   Joe Agris                             PRECINCT 419                                           01 
01080050001000087REP       United States Senator                                   Ted Cruz                              PRECINCT 101                                           01 
01080050002000031REP       United States Senator                                   Ted Cruz                              PRECINCT 104                                           01 
01080050003000095REP       United States Senator                                   Ted Cruz                              PRECINCT 109                                           01 
01080050004000067REP       United States Senator                                   Ted Cruz                              PRECINCT 115                                           01 
01080050005000001REP       United States Senator                                   Ted Cruz                              PRECINCT 117                                           01 
01080050006000001REP       United States Senator                                   Ted Cruz                              PRECINCT 121                                           01 
01080050007000004REP       United States Senator                                   Ted Cruz                              PRECINCT 202                                           01 
01080050008000184REP       United States Senator                                   Ted Cruz                              PRECINCT 203                                           01 
01080050009000150REP       United States Senator                                   Ted Cruz                              PRECINCT 205                                           01 
01080050010000130REP       United States Senator                                   Ted Cruz                              PRECINCT 208                                           01 
01080050011000090REP       United States Senator                                   Ted Cruz                              PRECINCT 307                                           01 
01080050012000121REP       United States Senator                                   Ted Cruz                              PRECINCT 311                                           01 
01080050013000098REP       United States Senator                                   Ted Cruz                              PRECINCT 312                                           01 
01080050014000008REP       United States Senator                                   Ted Cruz                              PRECINCT 316                                           01 
01080050015000200REP       United States Senator                                   Ted Cruz                              PRECINCT 320                                           01 
01080050016000126REP       United States Senator                                   Ted Cruz                              PRECINCT 406                                           01 
01080050017000083REP       United States Senator                                   Ted Cruz                              PRECINCT 410                                           01 
01080050018000082REP       United States Senator                                   Ted Cruz                              PRECINCT 413                                           01 
01080050019000079REP       United States Senator                                   Ted Cruz                              PRECINCT 414                                           01 
01080050020000040REP       United States Senator                                   Ted Cruz                              PRECINCT 418                                           01 
01080050021000034REP       United States Senator                                   Ted Cruz                              PRECINCT 419                                           01 
01080060001000005REP       United States Senator                                   Glenn Addison                         PRECINCT 101                                           01 
01080060002000001REP       United States Senator                                   Glenn Addison                         PRECINCT 104                                           01 
01080060003000004REP       United States Senator                                   Glenn Addison                         PRECINCT 109                                           01 
01080060004000001REP       United States Senator                                   Glenn Addison                         PRECINCT 115                                           01 
01080060005000000REP       United States Senator                                   Glenn Addison                         PRECINCT 117                                           01 
01080060006000000REP       United States Senator                                   Glenn Addison                         PRECINCT 121                                           01 
01080060007000001REP       United States Senator                                   Glenn Addison                         PRECINCT 202                                           01 
01080060008000008REP       United States Senator                                   Glenn Addison                         PRECINCT 203                                           01 
01080060009000005REP       United States Senator                                   Glenn Addison                         PRECINCT 205                                           01 
01080060010000008REP       United States Senator                                   Glenn Addison                         PRECINCT 208                                           01 
01080060011000001REP       United States Senator                                   Glenn Addison                         PRECINCT 307                                           01 
01080060012000002REP       United States Senator                                   Glenn Addison                         PRECINCT 311                                           01 
01080060013000006REP       United States Senator                                   Glenn Addison                         PRECINCT 312                                           01 
01080060014000000REP       United States Senator                                   Glenn Addison                         PRECINCT 316                                           01 
01080060015000005REP       United States Senator                                   Glenn Addison                         PRECINCT 320                                           01 
01080060016000004REP       United States Senator                                   Glenn Addison                         PRECINCT 406                                           01 
01080060017000004REP       United States Senator                                   Glenn Addison                         PRECINCT 410                                           01 
01080060018000001REP       United States Senator                                   Glenn Addison                         PRECINCT 413                                           01 
01080060019000003REP       United States Senator                                   Glenn Addison                         PRECINCT 414                                           01 
01080060020000002REP       United States Senator                                   Glenn Addison                         PRECINCT 418                                           01 
01080060021000001REP       United States Senator                                   Glenn Addison                         PRECINCT 419                                           01 
01080070001000011REP       United States Senator                                   Craig James                           PRECINCT 101                                           01 
01080070002000008REP       United States Senator                                   Craig James                           PRECINCT 104                                           01 
01080070003000002REP       United States Senator                                   Craig James                           PRECINCT 109                                           01 
01080070004000010REP       United States Senator                                   Craig James                           PRECINCT 115                                           01 
01080070005000000REP       United States Senator                                   Craig James                           PRECINCT 117                                           01 
01080070006000000REP       United States Senator                                   Craig James                           PRECINCT 121                                           01 
01080070007000000REP       United States Senator                                   Craig James                           PRECINCT 202                                           01 
01080070008000012REP       United States Senator                                   Craig James                           PRECINCT 203                                           01 
01080070009000020REP       United States Senator                                   Craig James                           PRECINCT 205                                           01 
01080070010000014REP       United States Senator                                   Craig James                           PRECINCT 208                                           01 
01080070011000020REP       United States Senator                                   Craig James                           PRECINCT 307                                           01 
01080070012000005REP       United States Senator                                   Craig James                           PRECINCT 311                                           01 
01080070013000008REP       United States Senator                                   Craig James                           PRECINCT 312                                           01 
01080070014000002REP       United States Senator                                   Craig James                           PRECINCT 316                                           01 
01080070015000018REP       United States Senator                                   Craig James                           PRECINCT 320                                           01 
01080070016000008REP       United States Senator                                   Craig James                           PRECINCT 406                                           01 
01080070017000004REP       United States Senator                                   Craig James                           PRECINCT 410                                           01 
01080070018000003REP       United States Senator                                   Craig James                           PRECINCT 413                                           01 
01080070019000008REP       United States Senator                                   Craig James                           PRECINCT 414                                           01 
01080070020000003REP       United States Senator                                   Craig James                           PRECINCT 418                                           01 
01080070021000003REP       United States Senator                                   Craig James                           PRECINCT 419                                           01 
01080080001000004REP       United States Senator                                   Lela Pittenger                        PRECINCT 101                                           01 
01080080002000001REP       United States Senator                                   Lela Pittenger                        PRECINCT 104                                           01 
01080080003000003REP       United States Senator                                   Lela Pittenger                        PRECINCT 109                                           01 
01080080004000002REP       United States Senator                                   Lela Pittenger                        PRECINCT 115                                           01 
01080080005000000REP       United States Senator                                   Lela Pittenger                        PRECINCT 117                                           01 
01080080006000000REP       United States Senator                                   Lela Pittenger                        PRECINCT 121                                           01 
01080080007000001REP       United States Senator                                   Lela Pittenger                        PRECINCT 202                                           01 
01080080008000004REP       United States Senator                                   Lela Pittenger                        PRECINCT 203                                           01 
01080080009000003REP       United States Senator                                   Lela Pittenger                        PRECINCT 205                                           01 
01080080010000003REP       United States Senator                                   Lela Pittenger                        PRECINCT 208                                           01 
01080080011000006REP       United States Senator                                   Lela Pittenger                        PRECINCT 307                                           01 
01080080012000001REP       United States Senator                                   Lela Pittenger                        PRECINCT 311                                           01 
01080080013000002REP       United States Senator                                   Lela Pittenger                        PRECINCT 312                                           01 
01080080014000001REP       United States Senator                                   Lela Pittenger                        PRECINCT 316                                           01 
01080080015000004REP       United States Senator                                   Lela Pittenger                        PRECINCT 320                                           01 
01080080016000006REP       United States Senator                                   Lela Pittenger                        PRECINCT 406                                           01 
01080080017000003REP       United States Senator                                   Lela Pittenger                        PRECINCT 410                                           01 
01080080018000001REP       United States Senator                                   Lela Pittenger                        PRECINCT 413                                           01 
01080080019000004REP       United States Senator                                   Lela Pittenger                        PRECINCT 414                                           01 
01080080020000001REP       United States Senator                                   Lela Pittenger                        PRECINCT 418                                           01 
01080080021000001REP       United States Senator                                   Lela Pittenger                        PRECINCT 419                                           01 
01080090001000119REP       United States Senator                                   David Dewhurst                        PRECINCT 101                                           01 
01080090002000058REP       United States Senator                                   David Dewhurst                        PRECINCT 104                                           01 
01080090003000182REP       United States Senator                                   David Dewhurst                        PRECINCT 109                                           01 
01080090004000141REP       United States Senator                                   David Dewhurst                        PRECINCT 115                                           01 
01080090005000000REP       United States Senator                                   David Dewhurst                        PRECINCT 117                                           01 
01080090006000012REP       United States Senator                                   David Dewhurst                        PRECINCT 121                                           01 
01080090007000016REP       United States Senator                                   David Dewhurst                        PRECINCT 202                                           01 
01080090008000299REP       United States Senator                                   David Dewhurst                        PRECINCT 203                                           01 
01080090009000409REP       United States Senator                                   David Dewhurst                        PRECINCT 205                                           01 
01080090010000283REP       United States Senator                                   David Dewhurst                        PRECINCT 208                                           01 
01080090011000235REP       United States Senator                                   David Dewhurst                        PRECINCT 307                                           01 
01080090012000189REP       United States Senator                                   David Dewhurst                        PRECINCT 311                                           01 
01080090013000229REP       United States Senator                                   David Dewhurst                        PRECINCT 312                                           01 
01080090014000034REP       United States Senator                                   David Dewhurst                        PRECINCT 316                                           01 
01080090015000385REP       United States Senator                                   David Dewhurst                        PRECINCT 320                                           01 
01080090016000251REP       United States Senator                                   David Dewhurst                        PRECINCT 406                                           01 
01080090017000174REP       United States Senator                                   David Dewhurst                        PRECINCT 410                                           01 
01080090018000129REP       United States Senator                                   David Dewhurst                        PRECINCT 413                                           01 
01080090019000147REP       United States Senator                                   David Dewhurst                        PRECINCT 414                                           01 
01080090020000065REP       United States Senator                                   David Dewhurst                        PRECINCT 418                                           01 
01080090021000103REP       United States Senator                                   David Dewhurst                        PRECINCT 419                                           01 
01080100001000000REP       United States Senator                                   OVER VOTES                            PRECINCT 101                                           01 
01080100002000000REP       United States Senator                                   OVER VOTES                            PRECINCT 104                                           01 
01080100003000000REP       United States Senator                                   OVER VOTES                            PRECINCT 109                                           01 
01080100004000000REP       United States Senator                                   OVER VOTES                            PRECINCT 115                                           01 
01080100005000000REP       United States Senator                                   OVER VOTES                            PRECINCT 117                                           01 
01080100006000000REP       United States Senator                                   OVER VOTES                            PRECINCT 121                                           01 
01080100007000000REP       United States Senator                                   OVER VOTES                            PRECINCT 202                                           01 
01080100008000000REP       United States Senator                                   OVER VOTES                            PRECINCT 203                                           01 
01080100009000000REP       United States Senator                                   OVER VOTES                            PRECINCT 205                                           01 
01080100010000000REP       United States Senator                                   OVER VOTES                            PRECINCT 208                                           01 
01080100011000000REP       United States Senator                                   OVER VOTES                            PRECINCT 307                                           01 
01080100012000000REP       United States Senator                                   OVER VOTES                            PRECINCT 311                                           01 
01080100013000000REP       United States Senator                                   OVER VOTES                            PRECINCT 312                                           01 
01080100014000000REP       United States Senator                                   OVER VOTES                            PRECINCT 316                                           01 
01080100015000000REP       United States Senator                                   OVER VOTES                            PRECINCT 320                                           01 
01080100016000000REP       United States Senator                                   OVER VOTES                            PRECINCT 406                                           01 
01080100017000000REP       United States Senator                                   OVER VOTES                            PRECINCT 410                                           01 
01080100018000000REP       United States Senator                                   OVER VOTES                            PRECINCT 413                                           01 
01080100019000000REP       United States Senator                                   OVER VOTES                            PRECINCT 414                                           01 
01080100020000000REP       United States Senator                                   OVER VOTES                            PRECINCT 418                                           01 
01080100021000000REP       United States Senator                                   OVER VOTES                            PRECINCT 419                                           01 
01080110001000019REP       United States Senator                                   UNDER VOTES                           PRECINCT 101                                           01 
01080110002000015REP       United States Senator                                   UNDER VOTES                           PRECINCT 104                                           01 
01080110003000038REP       United States Senator                                   UNDER VOTES                           PRECINCT 109                                           01 
01080110004000013REP       United States Senator                                   UNDER VOTES                           PRECINCT 115                                           01 
01080110005000003REP       United States Senator                                   UNDER VOTES                           PRECINCT 117                                           01 
01080110006000006REP       United States Senator                                   UNDER VOTES                           PRECINCT 121                                           01 
01080110007000004REP       United States Senator                                   UNDER VOTES                           PRECINCT 202                                           01 
01080110008000042REP       United States Senator                                   UNDER VOTES                           PRECINCT 203                                           01 
01080110009000030REP       United States Senator                                   UNDER VOTES                           PRECINCT 205                                           01 
01080110010000042REP       United States Senator                                   UNDER VOTES                           PRECINCT 208                                           01 
01080110011000027REP       United States Senator                                   UNDER VOTES                           PRECINCT 307                                           01 
01080110012000030REP       United States Senator                                   UNDER VOTES                           PRECINCT 311                                           01 
01080110013000024REP       United States Senator                                   UNDER VOTES                           PRECINCT 312                                           01 
01080110014000002REP       United States Senator                                   UNDER VOTES                           PRECINCT 316                                           01 
01080110015000055REP       United States Senator                                   UNDER VOTES                           PRECINCT 320                                           01 
01080110016000032REP       United States Senator                                   UNDER VOTES                           PRECINCT 406                                           01 
01080110017000022REP       United States Senator                                   UNDER VOTES                           PRECINCT 410                                           01 
01080110018000011REP       United States Senator                                   UNDER VOTES                           PRECINCT 413                                           01 
01080110019000025REP       United States Senator                                   UNDER VOTES                           PRECINCT 414                                           01 
01080110020000003REP       United States Senator                                   UNDER VOTES                           PRECINCT 418                                           01 
01080110021000014REP       United States Senator                                   UNDER VOTES                           PRECINCT 419                                           01 
01090010001000031REP       US Representative, District 10                          Eddie Traylor                         PRECINCT 101                                           01 
01090010002000018REP       US Representative, District 10                          Eddie Traylor                         PRECINCT 104                                           01 
01090010003000050REP       US Representative, District 10                          Eddie Traylor                         PRECINCT 109                                           01 
01090010004000023REP       US Representative, District 10                          Eddie Traylor                         PRECINCT 115                                           01 
01090010005000001REP       US Representative, District 10                          Eddie Traylor                         PRECINCT 117                                           01 
01090010006000001REP       US Representative, District 10                          Eddie Traylor                         PRECINCT 121                                           01 
01090010007000001REP       US Representative, District 10                          Eddie Traylor                         PRECINCT 202                                           01 
01090010008000074REP       US Representative, District 10                          Eddie Traylor                         PRECINCT 203                                           01 
01090010009000062REP       US Representative, District 10                          Eddie Traylor                         PRECINCT 205                                           01 
01090010010000072REP       US Representative, District 10                          Eddie Traylor                         PRECINCT 208                                           01 
01090010011000052REP       US Representative, District 10                          Eddie Traylor                         PRECINCT 307                                           01 
01090010012000045REP       US Representative, District 10                          Eddie Traylor                         PRECINCT 311                                           01 
01090010013000048REP       US Representative, District 10                          Eddie Traylor                         PRECINCT 312                                           01 
01090010014000004REP       US Representative, District 10                          Eddie Traylor                         PRECINCT 316                                           01 
01090010015000091REP       US Representative, District 10                          Eddie Traylor                         PRECINCT 320                                           01 
01090010016000047REP       US Representative, District 10                          Eddie Traylor                         PRECINCT 406                                           01 
01090010017000035REP       US Representative, District 10                          Eddie Traylor                         PRECINCT 410                                           01 
01090010018000027REP       US Representative, District 10                          Eddie Traylor                         PRECINCT 413                                           01 
01090010019000025REP       US Representative, District 10                          Eddie Traylor                         PRECINCT 414                                           01 
01090010020000029REP       US Representative, District 10                          Eddie Traylor                         PRECINCT 418                                           01 
01090010021000021REP       US Representative, District 10                          Eddie Traylor                         PRECINCT 419                                           01 
01090020001000214REP       US Representative, District 10                          Michael McCaul                        PRECINCT 101                                           01 
01090020002000091REP       US Representative, District 10                          Michael McCaul                        PRECINCT 104                                           01 
01090020003000259REP       US Representative, District 10                          Michael McCaul                        PRECINCT 109                                           01 
01090020004000217REP       US Representative, District 10                          Michael McCaul                        PRECINCT 115                                           01 
01090020005000000REP       US Representative, District 10                          Michael McCaul                        PRECINCT 117                                           01 
01090020006000016REP       US Representative, District 10                          Michael McCaul                        PRECINCT 121                                           01 
01090020007000027REP       US Representative, District 10                          Michael McCaul                        PRECINCT 202                                           01 
01090020008000457REP       US Representative, District 10                          Michael McCaul                        PRECINCT 203                                           01 
01090020009000545REP       US Representative, District 10                          Michael McCaul                        PRECINCT 205                                           01 
01090020010000415REP       US Representative, District 10                          Michael McCaul                        PRECINCT 208                                           01 
01090020011000331REP       US Representative, District 10                          Michael McCaul                        PRECINCT 307                                           01 
01090020012000292REP       US Representative, District 10                          Michael McCaul                        PRECINCT 311                                           01 
01090020013000313REP       US Representative, District 10                          Michael McCaul                        PRECINCT 312                                           01 
01090020014000044REP       US Representative, District 10                          Michael McCaul                        PRECINCT 316                                           01 
01090020015000583REP       US Representative, District 10                          Michael McCaul                        PRECINCT 320                                           01 
01090020016000378REP       US Representative, District 10                          Michael McCaul                        PRECINCT 406                                           01 
01090020017000262REP       US Representative, District 10                          Michael McCaul                        PRECINCT 410                                           01 
01090020018000209REP       US Representative, District 10                          Michael McCaul                        PRECINCT 413                                           01 
01090020019000234REP       US Representative, District 10                          Michael McCaul                        PRECINCT 414                                           01 
01090020020000092REP       US Representative, District 10                          Michael McCaul                        PRECINCT 418                                           01 
01090020021000143REP       US Representative, District 10                          Michael McCaul                        PRECINCT 419                                           01 
01090030001000000REP       US Representative, District 10                          OVER VOTES                            PRECINCT 101                                           01 
01090030002000000REP       US Representative, District 10                          OVER VOTES                            PRECINCT 104                                           01 
01090030003000000REP       US Representative, District 10                          OVER VOTES                            PRECINCT 109                                           01 
01090030004000000REP       US Representative, District 10                          OVER VOTES                            PRECINCT 115                                           01 
01090030005000000REP       US Representative, District 10                          OVER VOTES                            PRECINCT 117                                           01 
01090030006000000REP       US Representative, District 10                          OVER VOTES                            PRECINCT 121                                           01 
01090030007000000REP       US Representative, District 10                          OVER VOTES                            PRECINCT 202                                           01 
01090030008000000REP       US Representative, District 10                          OVER VOTES                            PRECINCT 203                                           01 
01090030009000000REP       US Representative, District 10                          OVER VOTES                            PRECINCT 205                                           01 
01090030010000000REP       US Representative, District 10                          OVER VOTES                            PRECINCT 208                                           01 
01090030011000000REP       US Representative, District 10                          OVER VOTES                            PRECINCT 307                                           01 
01090030012000000REP       US Representative, District 10                          OVER VOTES                            PRECINCT 311                                           01 
01090030013000000REP       US Representative, District 10                          OVER VOTES                            PRECINCT 312                                           01 
01090030014000000REP       US Representative, District 10                          OVER VOTES                            PRECINCT 316                                           01 
01090030015000000REP       US Representative, District 10                          OVER VOTES                            PRECINCT 320                                           01 
01090030016000000REP       US Representative, District 10                          OVER VOTES                            PRECINCT 406                                           01 
01090030017000000REP       US Representative, District 10                          OVER VOTES                            PRECINCT 410                                           01 
01090030018000000REP       US Representative, District 10                          OVER VOTES                            PRECINCT 413                                           01 
01090030019000000REP       US Representative, District 10                          OVER VOTES                            PRECINCT 414                                           01 
01090030020000000REP       US Representative, District 10                          OVER VOTES                            PRECINCT 418                                           01 
01090030021000000REP       US Representative, District 10                          OVER VOTES                            PRECINCT 419                                           01 
01090040001000022REP       US Representative, District 10                          UNDER VOTES                           PRECINCT 101                                           01 
01090040002000018REP       US Representative, District 10                          UNDER VOTES                           PRECINCT 104                                           01 
01090040003000039REP       US Representative, District 10                          UNDER VOTES                           PRECINCT 109                                           01 
01090040004000014REP       US Representative, District 10                          UNDER VOTES                           PRECINCT 115                                           01 
01090040005000004REP       US Representative, District 10                          UNDER VOTES                           PRECINCT 117                                           01 
01090040006000002REP       US Representative, District 10                          UNDER VOTES                           PRECINCT 121                                           01 
01090040007000003REP       US Representative, District 10                          UNDER VOTES                           PRECINCT 202                                           01 
01090040008000064REP       US Representative, District 10                          UNDER VOTES                           PRECINCT 203                                           01 
01090040009000045REP       US Representative, District 10                          UNDER VOTES                           PRECINCT 205                                           01 
01090040010000025REP       US Representative, District 10                          UNDER VOTES                           PRECINCT 208                                           01 
01090040011000024REP       US Representative, District 10                          UNDER VOTES                           PRECINCT 307                                           01 
01090040012000033REP       US Representative, District 10                          UNDER VOTES                           PRECINCT 311                                           01 
01090040013000026REP       US Representative, District 10                          UNDER VOTES                           PRECINCT 312                                           01 
01090040014000001REP       US Representative, District 10                          UNDER VOTES                           PRECINCT 316                                           01 
01090040015000051REP       US Representative, District 10                          UNDER VOTES                           PRECINCT 320                                           01 
01090040016000029REP       US Representative, District 10                          UNDER VOTES                           PRECINCT 406                                           01 
01090040017000022REP       US Representative, District 10                          UNDER VOTES                           PRECINCT 410                                           01 
01090040018000016REP       US Representative, District 10                          UNDER VOTES                           PRECINCT 413                                           01 
01090040019000022REP       US Representative, District 10                          UNDER VOTES                           PRECINCT 414                                           01 
01090040020000001REP       US Representative, District 10                          UNDER VOTES                           PRECINCT 418                                           01 
01090040021000009REP       US Representative, District 10                          UNDER VOTES                           PRECINCT 419                                           01 
01100010001000100REP       Railroad Commissioner                                   Christi Craddick                      PRECINCT 101                                           01 
01100010002000045REP       Railroad Commissioner                                   Christi Craddick                      PRECINCT 104                                           01 
01100010003000147REP       Railroad Commissioner                                   Christi Craddick                      PRECINCT 109                                           01 
01100010004000096REP       Railroad Commissioner                                   Christi Craddick                      PRECINCT 115                                           01 
01100010005000001REP       Railroad Commissioner                                   Christi Craddick                      PRECINCT 117                                           01 
01100010006000005REP       Railroad Commissioner                                   Christi Craddick                      PRECINCT 121                                           01 
