00010010001000000000000000000000000000000000000000000000000000000000000000000000000000000000000000000          REGISTERED VOTERS - TOTAL                               REGISTERED VOTERS - TOTAL             Precinct 1                                             00 
00010010002000000000000000000000000000000000000000000000000000000000000000000000000000000000000000000          REGISTERED VOTERS - TOTAL                               REGISTERED VOTERS - TOTAL             Precinct 2                                             00 
00010010003000000000000000000000000000000000000000000000000000000000000000000000000000000000000000000          REGISTERED VOTERS - TOTAL                               REGISTERED VOTERS - TOTAL             Precinct 3                                             00 
00010010004000000000000000000000000000000000000000000000000000000000000000000000000000000000000000000          REGISTERED VOTERS - TOTAL                               REGISTERED VOTERS - TOTAL             Precinct 4                                             00 
00020010001000009000002000003000004000000000000000000000000000000000000000000000000000000000000000000          BALLOTS CAST - TOTAL                                    BALLOTS CAST - TOTAL                  Precinct 1                                             00 
00020010002000010000003000002000005000000000000000000000000000000000000000000000000000000000000000000          BALLOTS CAST - TOTAL                                    BALLOTS CAST - TOTAL                  Precinct 2                                             00 
00020010003000004000002000002000000000000000000000000000000000000000000000000000000000000000000000000          BALLOTS CAST - TOTAL                                    BALLOTS CAST - TOTAL                  Precinct 3                                             00 
00020010004000006000003000001000002000000000000000000000000000000000000000000000000000000000000000000          BALLOTS CAST - TOTAL                                    BALLOTS CAST - TOTAL                  Precinct 4                                             00 
00030010001000000000000000000000000000000000000000000000000000000000000000000000000000000000000000000          BALLOTS CAST - BLANK                                    BALLOTS CAST - BLANK                  Precinct 1                                             00 
00030010002000000000000000000000000000000000000000000000000000000000000000000000000000000000000000000          BALLOTS CAST - BLANK                                    BALLOTS CAST - BLANK                  Precinct 2                                             00 
00030010003000000000000000000000000000000000000000000000000000000000000000000000000000000000000000000          BALLOTS CAST - BLANK                                    BALLOTS CAST - BLANK                  Precinct 3                                             00 
00030010004000000000000000000000000000000000000000000000000000000000000000000000000000000000000000000          BALLOTS CAST - BLANK                                    BALLOTS CAST - BLANK                  Precinct 4                                             00 
00040010001000002000002000000000000000000000000000000000000000000000000000000000000000000000000000000DEM       US Senator                                              Royce West                            Precinct 1                                             01 
00040010002000006000001000001000004000000000000000000000000000000000000000000000000000000000000000000DEM       US Senator                                              Royce West                            Precinct 2                                             01 
00040010003000003000002000001000000000000000000000000000000000000000000000000000000000000000000000000DEM       US Senator                                              Royce West                            Precinct 3                                             01 
00040010004000004000003000001000000000000000000000000000000000000000000000000000000000000000000000000DEM       US Senator                                              Royce West                            Precinct 4                                             01 
00040020001000007000000000003000004000000000000000000000000000000000000000000000000000000000000000000DEM       US Senator                                              Mary "MJ" Hegar                       Precinct 1                                             01 
00040020002000004000002000001000001000000000000000000000000000000000000000000000000000000000000000000DEM       US Senator                                              Mary "MJ" Hegar                       Precinct 2                                             01 
00040020003000001000000000001000000000000000000000000000000000000000000000000000000000000000000000000DEM       US Senator                                              Mary "MJ" Hegar                       Precinct 3                                             01 
00040020004000002000000000000000002000000000000000000000000000000000000000000000000000000000000000000DEM       US Senator                                              Mary "MJ" Hegar                       Precinct 4                                             01 
00050010001000002000001000001000000000000000000000000000000000000000000000000000000000000000000000000NON       Railroad Commissioner                                   Chrysta Castaneda                     Precinct 1                                             01 
00050010002000006000003000000000003000000000000000000000000000000000000000000000000000000000000000000NON       Railroad Commissioner                                   Chrysta Castaneda                     Precinct 2                                             01 
00050010003000004000002000002000000000000000000000000000000000000000000000000000000000000000000000000NON       Railroad Commissioner                                   Chrysta Castaneda                     Precinct 3                                             01 
00050010004000006000003000001000002000000000000000000000000000000000000000000000000000000000000000000NON       Railroad Commissioner                                   Chrysta Castaneda                     Precinct 4                                             01 
00050020001000007000001000002000004000000000000000000000000000000000000000000000000000000000000000000DEM       Railroad Commissioner                                   Roberto R. "Beto" Alonzo              Precinct 1                                             01 
00050020002000004000000000002000002000000000000000000000000000000000000000000000000000000000000000000DEM       Railroad Commissioner                                   Roberto R. "Beto" Alonzo              Precinct 2                                             01 
00050020003000000000000000000000000000000000000000000000000000000000000000000000000000000000000000000DEM       Railroad Commissioner                                   Roberto R. "Beto" Alonzo              Precinct 3                                             01 
00050020004000000000000000000000000000000000000000000000000000000000000000000000000000000000000000000DEM       Railroad Commissioner                                   Roberto R. "Beto" Alonzo              Precinct 4                                             01 
