00010010001008547000000000000000000000000000000000000000000000000000000000000000000000000000000000000          REGISTERED VOTERS - TOTAL                               REGISTERED VOTERS - TOTAL             POLL 1                                                 00 
00010010002006385000000000000000000000000000000000000000000000000000000000000000000000000000000000000          REGISTERED VOTERS - TOTAL                               REGISTERED VOTERS - TOTAL             POLL 2                                                 00 
00010010003005755000000000000000000000000000000000000000000000000000000000000000000000000000000000000          REGISTERED VOTERS - TOTAL                               REGISTERED VOTERS - TOTAL             POLL 3                                                 00 
00010010004002159000000000000000000000000000000000000000000000000000000000000000000000000000000000000          REGISTERED VOTERS - TOTAL                               REGISTERED VOTERS - TOTAL             POLL 4                                                 00 
00010010005000995000000000000000000000000000000000000000000000000000000000000000000000000000000000000          REGISTERED VOTERS - TOTAL                               REGISTERED VOTERS - TOTAL             POLL 5                                                 00 
00010010006003890000000000000000000000000000000000000000000000000000000000000000000000000000000000000          REGISTERED VOTERS - TOTAL                               REGISTERED VOTERS - TOTAL             POLL 6                                                 00 
00010010007002492000000000000000000000000000000000000000000000000000000000000000000000000000000000000          REGISTERED VOTERS - TOTAL                               REGISTERED VOTERS - TOTAL             POLL 7                                                 00 
00010010008008169000000000000000000000000000000000000000000000000000000000000000000000000000000000000          REGISTERED VOTERS - TOTAL                               REGISTERED VOTERS - TOTAL             POLL 8                                                 00 
00010010009010469000000000000000000000000000000000000000000000000000000000000000000000000000000000000          REGISTERED VOTERS - TOTAL                               REGISTERED VOTERS - TOTAL             POLL 9                                                 00 
00010010010000670000000000000000000000000000000000000000000000000000000000000000000000000000000000000          REGISTERED VOTERS - TOTAL                               REGISTERED VOTERS - TOTAL             POLL 10                                                00 
00020010001000000000000000000000000000000000000000000000000000000000000000000000000000000000000000000DEM       REGISTERED VOTERS - Democratic Party                    REGISTERED VOTERS - Democratic Party  POLL 1                                                 00 
00020010002000000000000000000000000000000000000000000000000000000000000000000000000000000000000000000DEM       REGISTERED VOTERS - Democratic Party                    REGISTERED VOTERS - Democratic Party  POLL 2                                                 00 
00020010003000000000000000000000000000000000000000000000000000000000000000000000000000000000000000000DEM       REGISTERED VOTERS - Democratic Party                    REGISTERED VOTERS - Democratic Party  POLL 3                                                 00 
00020010004000000000000000000000000000000000000000000000000000000000000000000000000000000000000000000DEM       REGISTERED VOTERS - Democratic Party                    REGISTERED VOTERS - Democratic Party  POLL 4                                                 00 
00020010005000000000000000000000000000000000000000000000000000000000000000000000000000000000000000000DEM       REGISTERED VOTERS - Democratic Party                    REGISTERED VOTERS - Democratic Party  POLL 5                                                 00 
00020010006000000000000000000000000000000000000000000000000000000000000000000000000000000000000000000DEM       REGISTERED VOTERS - Democratic Party                    REGISTERED VOTERS - Democratic Party  POLL 6                                                 00 
00020010007000000000000000000000000000000000000000000000000000000000000000000000000000000000000000000DEM       REGISTERED VOTERS - Democratic Party                    REGISTERED VOTERS - Democratic Party  POLL 7                                                 00 
00020010008000000000000000000000000000000000000000000000000000000000000000000000000000000000000000000DEM       REGISTERED VOTERS - Democratic Party                    REGISTERED VOTERS - Democratic Party  POLL 8                                                 00 
00020010009000000000000000000000000000000000000000000000000000000000000000000000000000000000000000000DEM       REGISTERED VOTERS - Democratic Party                    REGISTERED VOTERS - Democratic Party  POLL 9                                                 00 
00020010010000000000000000000000000000000000000000000000000000000000000000000000000000000000000000000DEM       REGISTERED VOTERS - Democratic Party                    REGISTERED VOTERS - Democratic Party  POLL 10                                                00 
00030010001000000000000000000000000000000000000000000000000000000000000000000000000000000000000000000REP       REGISTERED VOTERS - Republican Party                    REGISTERED VOTERS - Republican Party  POLL 1                                                 00 
00030010002000000000000000000000000000000000000000000000000000000000000000000000000000000000000000000REP       REGISTERED VOTERS - Republican Party                    REGISTERED VOTERS - Republican Party  POLL 2                                                 00 
00030010003000000000000000000000000000000000000000000000000000000000000000000000000000000000000000000REP       REGISTERED VOTERS - Republican Party                    REGISTERED VOTERS - Republican Party  POLL 3                                                 00 
00030010004000000000000000000000000000000000000000000000000000000000000000000000000000000000000000000REP       REGISTERED VOTERS - Republican Party                    REGISTERED VOTERS - Republican Party  POLL 4                                                 00 
00030010005000000000000000000000000000000000000000000000000000000000000000000000000000000000000000000REP       REGISTERED VOTERS - Republican Party                    REGISTERED VOTERS - Republican Party  POLL 5                                                 00 
00030010006000000000000000000000000000000000000000000000000000000000000000000000000000000000000000000REP       REGISTERED VOTERS - Republican Party                    REGISTERED VOTERS - Republican Party  POLL 6                                                 00 
00030010007000000000000000000000000000000000000000000000000000000000000000000000000000000000000000000REP       REGISTERED VOTERS - Republican Party                    REGISTERED VOTERS - Republican Party  POLL 7                                                 00 
00030010008000000000000000000000000000000000000000000000000000000000000000000000000000000000000000000REP       REGISTERED VOTERS - Republican Party                    REGISTERED VOTERS - Republican Party  POLL 8                                                 00 
00030010009000000000000000000000000000000000000000000000000000000000000000000000000000000000000000000REP       REGISTERED VOTERS - Republican Party                    REGISTERED VOTERS - Republican Party  POLL 9                                                 00 
00030010010000000000000000000000000000000000000000000000000000000000000000000000000000000000000000000REP       REGISTERED VOTERS - Republican Party                    REGISTERED VOTERS - Republican Party  POLL 10                                                00 
00040010001008547000000000000000000000000000000000000000000000000000000000000000000000000000000000000NON       REGISTERED VOTERS - NONPARTISAN                         REGISTERED VOTERS - NONPARTISAN       POLL 1                                                 00 
00040010002006385000000000000000000000000000000000000000000000000000000000000000000000000000000000000NON       REGISTERED VOTERS - NONPARTISAN                         REGISTERED VOTERS - NONPARTISAN       POLL 2                                                 00 
00040010003005755000000000000000000000000000000000000000000000000000000000000000000000000000000000000NON       REGISTERED VOTERS - NONPARTISAN                         REGISTERED VOTERS - NONPARTISAN       POLL 3                                                 00 
00040010004002159000000000000000000000000000000000000000000000000000000000000000000000000000000000000NON       REGISTERED VOTERS - NONPARTISAN                         REGISTERED VOTERS - NONPARTISAN       POLL 4                                                 00 
00040010005000995000000000000000000000000000000000000000000000000000000000000000000000000000000000000NON       REGISTERED VOTERS - NONPARTISAN                         REGISTERED VOTERS - NONPARTISAN       POLL 5                                                 00 
00040010006003890000000000000000000000000000000000000000000000000000000000000000000000000000000000000NON       REGISTERED VOTERS - NONPARTISAN                         REGISTERED VOTERS - NONPARTISAN       POLL 6                                                 00 
00040010007002492000000000000000000000000000000000000000000000000000000000000000000000000000000000000NON       REGISTERED VOTERS - NONPARTISAN                         REGISTERED VOTERS - NONPARTISAN       POLL 7                                                 00 
00040010008008169000000000000000000000000000000000000000000000000000000000000000000000000000000000000NON       REGISTERED VOTERS - NONPARTISAN                         REGISTERED VOTERS - NONPARTISAN       POLL 8                                                 00 
00040010009010469000000000000000000000000000000000000000000000000000000000000000000000000000000000000NON       REGISTERED VOTERS - NONPARTISAN                         REGISTERED VOTERS - NONPARTISAN       POLL 9                                                 00 
00040010010000670000000000000000000000000000000000000000000000000000000000000000000000000000000000000NON       REGISTERED VOTERS - NONPARTISAN                         REGISTERED VOTERS - NONPARTISAN       POLL 10                                                00 
00050010001001578000567000681000330000000000000000000000000000000000000000000000000000000000000000000          BALLOTS CAST - TOTAL                                    BALLOTS CAST - TOTAL                  POLL 1                                                 00 
00050010002001295000506000527000262000000000000000000000000000000000000000000000000000000000000000000          BALLOTS CAST - TOTAL                                    BALLOTS CAST - TOTAL                  POLL 2                                                 00 
00050010003001060000375000500000185000000000000000000000000000000000000000000000000000000000000000000          BALLOTS CAST - TOTAL                                    BALLOTS CAST - TOTAL                  POLL 3                                                 00 
00050010004000402000130000145000127000000000000000000000000000000000000000000000000000000000000000000          BALLOTS CAST - TOTAL                                    BALLOTS CAST - TOTAL                  POLL 4                                                 00 
00050010005000200000072000085000043000000000000000000000000000000000000000000000000000000000000000000          BALLOTS CAST - TOTAL                                    BALLOTS CAST - TOTAL                  POLL 5                                                 00 
00050010006000779000277000323000179000000000000000000000000000000000000000000000000000000000000000000          BALLOTS CAST - TOTAL                                    BALLOTS CAST - TOTAL                  POLL 6                                                 00 
00050010007000452000133000128000191000000000000000000000000000000000000000000000000000000000000000000          BALLOTS CAST - TOTAL                                    BALLOTS CAST - TOTAL                  POLL 7                                                 00 
00050010008001169000344000545000280000000000000000000000000000000000000000000000000000000000000000000          BALLOTS CAST - TOTAL                                    BALLOTS CAST - TOTAL                  POLL 8                                                 00 
00050010009001882000601000877000404000000000000000000000000000000000000000000000000000000000000000000          BALLOTS CAST - TOTAL                                    BALLOTS CAST - TOTAL                  POLL 9                                                 00 
00050010010000137000041000049000047000000000000000000000000000000000000000000000000000000000000000000          BALLOTS CAST - TOTAL                                    BALLOTS CAST - TOTAL                  POLL 10                                                00 
00060010001000893000346000383000164000000000000000000000000000000000000000000000000000000000000000000DEM       BALLOTS CAST - Democratic Party                         BALLOTS CAST - Democratic Party       POLL 1                                                 00 
00060010002000671000279000262000130000000000000000000000000000000000000000000000000000000000000000000DEM       BALLOTS CAST - Democratic Party                         BALLOTS CAST - Democratic Party       POLL 2                                                 00 
00060010003000533000219000240000074000000000000000000000000000000000000000000000000000000000000000000DEM       BALLOTS CAST - Democratic Party                         BALLOTS CAST - Democratic Party       POLL 3                                                 00 
00060010004000154000057000060000037000000000000000000000000000000000000000000000000000000000000000000DEM       BALLOTS CAST - Democratic Party                         BALLOTS CAST - Democratic Party       POLL 4                                                 00 
00060010005000085000034000030000021000000000000000000000000000000000000000000000000000000000000000000DEM       BALLOTS CAST - Democratic Party                         BALLOTS CAST - Democratic Party       POLL 5                                                 00 
00060010006000371000152000145000074000000000000000000000000000000000000000000000000000000000000000000DEM       BALLOTS CAST - Democratic Party                         BALLOTS CAST - Democratic Party       POLL 6                                                 00 
00060010007000174000071000037000066000000000000000000000000000000000000000000000000000000000000000000DEM       BALLOTS CAST - Democratic Party                         BALLOTS CAST - Democratic Party       POLL 7                                                 00 
00060010008000634000222000286000126000000000000000000000000000000000000000000000000000000000000000000DEM       BALLOTS CAST - Democratic Party                         BALLOTS CAST - Democratic Party       POLL 8                                                 00 
00060010009001098000351000525000222000000000000000000000000000000000000000000000000000000000000000000DEM       BALLOTS CAST - Democratic Party                         BALLOTS CAST - Democratic Party       POLL 9                                                 00 
00060010010000069000023000027000019000000000000000000000000000000000000000000000000000000000000000000DEM       BALLOTS CAST - Democratic Party                         BALLOTS CAST - Democratic Party       POLL 10                                                00 
00070010001000000000000000000000000000000000000000000000000000000000000000000000000000000000000000000REP       BALLOTS CAST - Republican Party                         BALLOTS CAST - Republican Party       POLL 1                                                 00 
00070010002000000000000000000000000000000000000000000000000000000000000000000000000000000000000000000REP       BALLOTS CAST - Republican Party                         BALLOTS CAST - Republican Party       POLL 2                                                 00 
00070010003000000000000000000000000000000000000000000000000000000000000000000000000000000000000000000REP       BALLOTS CAST - Republican Party                         BALLOTS CAST - Republican Party       POLL 3                                                 00 
00070010004000000000000000000000000000000000000000000000000000000000000000000000000000000000000000000REP       BALLOTS CAST - Republican Party                         BALLOTS CAST - Republican Party       POLL 4                                                 00 
00070010005000000000000000000000000000000000000000000000000000000000000000000000000000000000000000000REP       BALLOTS CAST - Republican Party                         BALLOTS CAST - Republican Party       POLL 5                                                 00 
00070010006000125000029000061000035000000000000000000000000000000000000000000000000000000000000000000REP       BALLOTS CAST - Republican Party                         BALLOTS CAST - Republican Party       POLL 6                                                 00 
00070010007000000000000000000000000000000000000000000000000000000000000000000000000000000000000000000REP       BALLOTS CAST - Republican Party                         BALLOTS CAST - Republican Party       POLL 7                                                 00 
00070010008000000000000000000000000000000000000000000000000000000000000000000000000000000000000000000REP       BALLOTS CAST - Republican Party                         BALLOTS CAST - Republican Party       POLL 8                                                 00 
00070010009000000000000000000000000000000000000000000000000000000000000000000000000000000000000000000REP       BALLOTS CAST - Republican Party                         BALLOTS CAST - Republican Party       POLL 9                                                 00 
00070010010000063000018000017000028000000000000000000000000000000000000000000000000000000000000000000REP       BALLOTS CAST - Republican Party                         BALLOTS CAST - Republican Party       POLL 10                                                00 
00080010001000685000221000298000166000000000000000000000000000000000000000000000000000000000000000000NON       BALLOTS CAST - NONPARTISAN                              BALLOTS CAST - NONPARTISAN            POLL 1                                                 00 
00080010002000624000227000265000132000000000000000000000000000000000000000000000000000000000000000000NON       BALLOTS CAST - NONPARTISAN                              BALLOTS CAST - NONPARTISAN            POLL 2                                                 00 
00080010003000527000156000260000111000000000000000000000000000000000000000000000000000000000000000000NON       BALLOTS CAST - NONPARTISAN                              BALLOTS CAST - NONPARTISAN            POLL 3                                                 00 
00080010004000248000073000085000090000000000000000000000000000000000000000000000000000000000000000000NON       BALLOTS CAST - NONPARTISAN                              BALLOTS CAST - NONPARTISAN            POLL 4                                                 00 
00080010005000115000038000055000022000000000000000000000000000000000000000000000000000000000000000000NON       BALLOTS CAST - NONPARTISAN                              BALLOTS CAST - NONPARTISAN            POLL 5                                                 00 
00080010006000283000096000117000070000000000000000000000000000000000000000000000000000000000000000000NON       BALLOTS CAST - NONPARTISAN                              BALLOTS CAST - NONPARTISAN            POLL 6                                                 00 
00080010007000278000062000091000125000000000000000000000000000000000000000000000000000000000000000000NON       BALLOTS CAST - NONPARTISAN                              BALLOTS CAST - NONPARTISAN            POLL 7                                                 00 
00080010008000535000122000259000154000000000000000000000000000000000000000000000000000000000000000000NON       BALLOTS CAST - NONPARTISAN                              BALLOTS CAST - NONPARTISAN            POLL 8                                                 00 
00080010009000784000250000352000182000000000000000000000000000000000000000000000000000000000000000000NON       BALLOTS CAST - NONPARTISAN                              BALLOTS CAST - NONPARTISAN            POLL 9                                                 00 
00080010010000005000000000005000000000000000000000000000000000000000000000000000000000000000000000000NON       BALLOTS CAST - NONPARTISAN                              BALLOTS CAST - NONPARTISAN            POLL 10                                                00 
00090010001000001000000000001000000000000000000000000000000000000000000000000000000000000000000000000          BALLOTS CAST - BLANK                                    BALLOTS CAST - BLANK                  POLL 1                                                 00 
00090010002000000000000000000000000000000000000000000000000000000000000000000000000000000000000000000          BALLOTS CAST - BLANK                                    BALLOTS CAST - BLANK                  POLL 2                                                 00 
00090010003000001000001000000000000000000000000000000000000000000000000000000000000000000000000000000          BALLOTS CAST - BLANK                                    BALLOTS CAST - BLANK                  POLL 3                                                 00 
00090010004000000000000000000000000000000000000000000000000000000000000000000000000000000000000000000          BALLOTS CAST - BLANK                                    BALLOTS CAST - BLANK                  POLL 4                                                 00 
00090010005000000000000000000000000000000000000000000000000000000000000000000000000000000000000000000          BALLOTS CAST - BLANK                                    BALLOTS CAST - BLANK                  POLL 5                                                 00 
00090010006000000000000000000000000000000000000000000000000000000000000000000000000000000000000000000          BALLOTS CAST - BLANK                                    BALLOTS CAST - BLANK                  POLL 6                                                 00 
00090010007000001000000000001000000000000000000000000000000000000000000000000000000000000000000000000          BALLOTS CAST - BLANK                                    BALLOTS CAST - BLANK                  POLL 7                                                 00 
00090010008000001000000000001000000000000000000000000000000000000000000000000000000000000000000000000          BALLOTS CAST - BLANK                                    BALLOTS CAST - BLANK                  POLL 8                                                 00 
00090010009000001000000000000000001000000000000000000000000000000000000000000000000000000000000000000          BALLOTS CAST - BLANK                                    BALLOTS CAST - BLANK                  POLL 9                                                 00 
00090010010000000000000000000000000000000000000000000000000000000000000000000000000000000000000000000          BALLOTS CAST - BLANK                                    BALLOTS CAST - BLANK                  POLL 10                                                00 
00100010001000662000271000272000119000000000000000000000000000000000000000000000000000000000000000000DEM       DEM US Senator                                          Mary "MJ" Hegar                       POLL 1                                                 01 
00100010002000482000200000188000094000000000000000000000000000000000000000000000000000000000000000000DEM       DEM US Senator                                          Mary "MJ" Hegar                       POLL 2                                                 01 
00100010003000410000163000190000057000000000000000000000000000000000000000000000000000000000000000000DEM       DEM US Senator                                          Mary "MJ" Hegar                       POLL 3                                                 01 
00100010004000106000044000037000025000000000000000000000000000000000000000000000000000000000000000000DEM       DEM US Senator                                          Mary "MJ" Hegar                       POLL 4                                                 01 
00100010005000067000025000026000016000000000000000000000000000000000000000000000000000000000000000000DEM       DEM US Senator                                          Mary "MJ" Hegar                       POLL 5                                                 01 
00100010006000298000119000114000065000000000000000000000000000000000000000000000000000000000000000000DEM       DEM US Senator                                          Mary "MJ" Hegar                       POLL 6                                                 01 
00100010007000138000058000026000054000000000000000000000000000000000000000000000000000000000000000000DEM       DEM US Senator                                          Mary "MJ" Hegar                       POLL 7                                                 01 
00100010008000466000170000209000087000000000000000000000000000000000000000000000000000000000000000000DEM       DEM US Senator                                          Mary "MJ" Hegar                       POLL 8                                                 01 
00100010009000750000232000369000149000000000000000000000000000000000000000000000000000000000000000000DEM       DEM US Senator                                          Mary "MJ" Hegar                       POLL 9                                                 01 
00100010010000050000016000016000018000000000000000000000000000000000000000000000000000000000000000000DEM       DEM US Senator                                          Mary "MJ" Hegar                       POLL 10                                                01 
00100020001000221000074000104000043000000000000000000000000000000000000000000000000000000000000000000DEM       DEM US Senator                                          Royce West                            POLL 1                                                 01 
00100020002000184000078000071000035000000000000000000000000000000000000000000000000000000000000000000DEM       DEM US Senator                                          Royce West                            POLL 2                                                 01 
00100020003000116000053000046000017000000000000000000000000000000000000000000000000000000000000000000DEM       DEM US Senator                                          Royce West                            POLL 3                                                 01 
00100020004000046000013000023000010000000000000000000000000000000000000000000000000000000000000000000DEM       DEM US Senator                                          Royce West                            POLL 4                                                 01 
00100020005000016000009000004000003000000000000000000000000000000000000000000000000000000000000000000DEM       DEM US Senator                                          Royce West                            POLL 5                                                 01 
00100020006000070000033000028000009000000000000000000000000000000000000000000000000000000000000000000DEM       DEM US Senator                                          Royce West                            POLL 6                                                 01 
00100020007000034000013000010000011000000000000000000000000000000000000000000000000000000000000000000DEM       DEM US Senator                                          Royce West                            POLL 7                                                 01 
00100020008000159000052000074000033000000000000000000000000000000000000000000000000000000000000000000DEM       DEM US Senator                                          Royce West                            POLL 8                                                 01 
00100020009000333000118000145000070000000000000000000000000000000000000000000000000000000000000000000DEM       DEM US Senator                                          Royce West                            POLL 9                                                 01 
00100020010000019000007000011000001000000000000000000000000000000000000000000000000000000000000000000DEM       DEM US Senator                                          Royce West                            POLL 10                                                01 
00100030001000001000001000000000000000000000000000000000000000000000000000000000000000000000000000000          DEM US Senator                                          OVER VOTES                            POLL 1                                                 01 
00100030002000000000000000000000000000000000000000000000000000000000000000000000000000000000000000000          DEM US Senator                                          OVER VOTES                            POLL 2                                                 01 
00100030003000001000001000000000000000000000000000000000000000000000000000000000000000000000000000000          DEM US Senator                                          OVER VOTES                            POLL 3                                                 01 
00100030004000000000000000000000000000000000000000000000000000000000000000000000000000000000000000000          DEM US Senator                                          OVER VOTES                            POLL 4                                                 01 
00100030005000000000000000000000000000000000000000000000000000000000000000000000000000000000000000000          DEM US Senator                                          OVER VOTES                            POLL 5                                                 01 
00100030006000000000000000000000000000000000000000000000000000000000000000000000000000000000000000000          DEM US Senator                                          OVER VOTES                            POLL 6                                                 01 
00100030007000000000000000000000000000000000000000000000000000000000000000000000000000000000000000000          DEM US Senator                                          OVER VOTES                            POLL 7                                                 01 
00100030008000000000000000000000000000000000000000000000000000000000000000000000000000000000000000000          DEM US Senator                                          OVER VOTES                            POLL 8                                                 01 
00100030009000000000000000000000000000000000000000000000000000000000000000000000000000000000000000000          DEM US Senator                                          OVER VOTES                            POLL 9                                                 01 
00100030010000000000000000000000000000000000000000000000000000000000000000000000000000000000000000000          DEM US Senator                                          OVER VOTES                            POLL 10                                                01 
00100040001000009000000000007000002000000000000000000000000000000000000000000000000000000000000000000          DEM US Senator                                          UNDER VOTES                           POLL 1                                                 01 
00100040002000005000001000003000001000000000000000000000000000000000000000000000000000000000000000000          DEM US Senator                                          UNDER VOTES                           POLL 2                                                 01 
00100040003000006000002000004000000000000000000000000000000000000000000000000000000000000000000000000          DEM US Senator                                          UNDER VOTES                           POLL 3                                                 01 
00100040004000002000000000000000002000000000000000000000000000000000000000000000000000000000000000000          DEM US Senator                                          UNDER VOTES                           POLL 4                                                 01 
00100040005000002000000000000000002000000000000000000000000000000000000000000000000000000000000000000          DEM US Senator                                          UNDER VOTES                           POLL 5                                                 01 
00100040006000003000000000003000000000000000000000000000000000000000000000000000000000000000000000000          DEM US Senator                                          UNDER VOTES                           POLL 6                                                 01 
00100040007000002000000000001000001000000000000000000000000000000000000000000000000000000000000000000          DEM US Senator                                          UNDER VOTES                           POLL 7                                                 01 
00100040008000009000000000003000006000000000000000000000000000000000000000000000000000000000000000000          DEM US Senator                                          UNDER VOTES                           POLL 8                                                 01 
00100040009000015000001000011000003000000000000000000000000000000000000000000000000000000000000000000          DEM US Senator                                          UNDER VOTES                           POLL 9                                                 01 
00100040010000000000000000000000000000000000000000000000000000000000000000000000000000000000000000000          DEM US Senator                                          UNDER VOTES                           POLL 10                                                01 
00110010001000473000171000213000089000000000000000000000000000000000000000000000000000000000000000000DEMREP010 DEM US Representative District 10                       Pritesh Gandhi                        POLL 1                        District 10              01 
00110010003000284000107000130000047000000000000000000000000000000000000000000000000000000000000000000DEMREP010 DEM US Representative District 10                       Pritesh Gandhi                        POLL 3                        District 10              01 
00110010006000217000090000081000046000000000000000000000000000000000000000000000000000000000000000000DEMREP010 DEM US Representative District 10                       Pritesh Gandhi                        POLL 6                        District 10              01 
00110010009000525000158000259000108000000000000000000000000000000000000000000000000000000000000000000DEMREP010 DEM US Representative District 10                       Pritesh Gandhi                        POLL 9                        District 10              01 
00110020001000408000173000163000072000000000000000000000000000000000000000000000000000000000000000000DEMREP010 DEM US Representative District 10                       Mike Siegel                           POLL 1                        District 10              01 
00110020003000240000107000106000027000000000000000000000000000000000000000000000000000000000000000000DEMREP010 DEM US Representative District 10                       Mike Siegel                           POLL 3                        District 10              01 
00110020006000149000062000059000028000000000000000000000000000000000000000000000000000000000000000000DEMREP010 DEM US Representative District 10                       Mike Siegel                           POLL 6                        District 10              01 
00110020009000556000190000259000107000000000000000000000000000000000000000000000000000000000000000000DEMREP010 DEM US Representative District 10                       Mike Siegel                           POLL 9                        District 10              01 
00110030001000000000000000000000000000000000000000000000000000000000000000000000000000000000000000000   REP010 DEM US Representative District 10                       OVER VOTES                            POLL 1                        District 10              01 
00110030003000000000000000000000000000000000000000000000000000000000000000000000000000000000000000000   REP010 DEM US Representative District 10                       OVER VOTES                            POLL 3                        District 10              01 
00110030006000000000000000000000000000000000000000000000000000000000000000000000000000000000000000000   REP010 DEM US Representative District 10                       OVER VOTES                            POLL 6                        District 10              01 
00110030009000001000000000001000000000000000000000000000000000000000000000000000000000000000000000000   REP010 DEM US Representative District 10                       OVER VOTES                            POLL 9                        District 10              01 
00110040001000012000002000007000003000000000000000000000000000000000000000000000000000000000000000000   REP010 DEM US Representative District 10                       UNDER VOTES                           POLL 1                        District 10              01 
00110040003000009000005000004000000000000000000000000000000000000000000000000000000000000000000000000   REP010 DEM US Representative District 10                       UNDER VOTES                           POLL 3                        District 10              01 
00110040006000005000000000005000000000000000000000000000000000000000000000000000000000000000000000000   REP010 DEM US Representative District 10                       UNDER VOTES                           POLL 6                        District 10              01 
00110040009000016000003000006000007000000000000000000000000000000000000000000000000000000000000000000   REP010 DEM US Representative District 10                       UNDER VOTES                           POLL 9                        District 10              01 
00120010010000038000016000015000007000000000000000000000000000000000000000000000000000000000000000000DEMREP017 DEM US Representative District 17                       Rick Kennedy                          POLL 10                       District 17              01 
00120020010000031000007000012000012000000000000000000000000000000000000000000000000000000000000000000DEMREP017 DEM US Representative District 17                       David Anthony Jaramillo               POLL 10                       District 17              01 
00120030010000000000000000000000000000000000000000000000000000000000000000000000000000000000000000000   REP017 DEM US Representative District 17                       OVER VOTES                            POLL 10                       District 17              01 
00120040010000000000000000000000000000000000000000000000000000000000000000000000000000000000000000000   REP017 DEM US Representative District 17                       UNDER VOTES                           POLL 10                       District 17              01 
00130010001000343000119000157000067000000000000000000000000000000000000000000000000000000000000000000DEM       DEM Railroad Commissioner                               Roberto R. "Beto" Alonzo              POLL 1                                                 01 
00130010002000221000090000083000048000000000000000000000000000000000000000000000000000000000000000000DEM       DEM Railroad Commissioner                               Roberto R. "Beto" Alonzo              POLL 2                                                 01 
00130010003000198000081000084000033000000000000000000000000000000000000000000000000000000000000000000DEM       DEM Railroad Commissioner                               Roberto R. "Beto" Alonzo              POLL 3                                                 01 
00130010004000049000025000015000009000000000000000000000000000000000000000000000000000000000000000000DEM       DEM Railroad Commissioner                               Roberto R. "Beto" Alonzo              POLL 4                                                 01 
00130010005000028000009000010000009000000000000000000000000000000000000000000000000000000000000000000DEM       DEM Railroad Commissioner                               Roberto R. "Beto" Alonzo              POLL 5                                                 01 
00130010006000114000044000050000020000000000000000000000000000000000000000000000000000000000000000000DEM       DEM Railroad Commissioner                               Roberto R. "Beto" Alonzo              POLL 6                                                 01 
00130010007000055000020000020000015000000000000000000000000000000000000000000000000000000000000000000DEM       DEM Railroad Commissioner                               Roberto R. "Beto" Alonzo              POLL 7                                                 01 
00130010008000212000073000092000047000000000000000000000000000000000000000000000000000000000000000000DEM       DEM Railroad Commissioner                               Roberto R. "Beto" Alonzo              POLL 8                                                 01 
00130010009000388000122000172000094000000000000000000000000000000000000000000000000000000000000000000DEM       DEM Railroad Commissioner                               Roberto R. "Beto" Alonzo              POLL 9                                                 01 
00130010010000022000008000010000004000000000000000000000000000000000000000000000000000000000000000000DEM       DEM Railroad Commissioner                               Roberto R. "Beto" Alonzo              POLL 10                                                01 
00130020001000508000216000204000088000000000000000000000000000000000000000000000000000000000000000000DEM       DEM Railroad Commissioner                               Chrysta Castaneda                     POLL 1                                                 01 
00130020002000416000176000164000076000000000000000000000000000000000000000000000000000000000000000000DEM       DEM Railroad Commissioner                               Chrysta Castaneda                     POLL 2                                                 01 
00130020003000298000127000132000039000000000000000000000000000000000000000000000000000000000000000000DEM       DEM Railroad Commissioner                               Chrysta Castaneda                     POLL 3                                                 01 
00130020004000098000030000044000024000000000000000000000000000000000000000000000000000000000000000000DEM       DEM Railroad Commissioner                               Chrysta Castaneda                     POLL 4                                                 01 
00130020005000052000024000019000009000000000000000000000000000000000000000000000000000000000000000000DEM       DEM Railroad Commissioner                               Chrysta Castaneda                     POLL 5                                                 01 
00130020006000249000106000091000052000000000000000000000000000000000000000000000000000000000000000000DEM       DEM Railroad Commissioner                               Chrysta Castaneda                     POLL 6                                                 01 
00130020007000108000044000016000048000000000000000000000000000000000000000000000000000000000000000000DEM       DEM Railroad Commissioner                               Chrysta Castaneda                     POLL 7                                                 01 
00130020008000397000143000181000073000000000000000000000000000000000000000000000000000000000000000000DEM       DEM Railroad Commissioner                               Chrysta Castaneda                     POLL 8                                                 01 
00130020009000661000211000331000119000000000000000000000000000000000000000000000000000000000000000000DEM       DEM Railroad Commissioner                               Chrysta Castaneda                     POLL 9                                                 01 
00130020010000045000015000016000014000000000000000000000000000000000000000000000000000000000000000000DEM       DEM Railroad Commissioner                               Chrysta Castaneda                     POLL 10                                                01 
00130030001000000000000000000000000000000000000000000000000000000000000000000000000000000000000000000          DEM Railroad Commissioner                               OVER VOTES                            POLL 1                                                 01 
00130030002000000000000000000000000000000000000000000000000000000000000000000000000000000000000000000          DEM Railroad Commissioner                               OVER VOTES                            POLL 2                                                 01 
00130030003000000000000000000000000000000000000000000000000000000000000000000000000000000000000000000          DEM Railroad Commissioner                               OVER VOTES                            POLL 3                                                 01 
00130030004000000000000000000000000000000000000000000000000000000000000000000000000000000000000000000          DEM Railroad Commissioner                               OVER VOTES                            POLL 4                                                 01 
00130030005000000000000000000000000000000000000000000000000000000000000000000000000000000000000000000          DEM Railroad Commissioner                               OVER VOTES                            POLL 5                                                 01 
00130030006000000000000000000000000000000000000000000000000000000000000000000000000000000000000000000          DEM Railroad Commissioner                               OVER VOTES                            POLL 6                                                 01 
00130030007000000000000000000000000000000000000000000000000000000000000000000000000000000000000000000          DEM Railroad Commissioner                               OVER VOTES                            POLL 7                                                 01 
00130030008000001000001000000000000000000000000000000000000000000000000000000000000000000000000000000          DEM Railroad Commissioner                               OVER VOTES                            POLL 8                                                 01 
00130030009000001000000000001000000000000000000000000000000000000000000000000000000000000000000000000          DEM Railroad Commissioner                               OVER VOTES                            POLL 9                                                 01 
00130030010000000000000000000000000000000000000000000000000000000000000000000000000000000000000000000          DEM Railroad Commissioner                               OVER VOTES                            POLL 10                                                01 
00130040001000042000011000022000009000000000000000000000000000000000000000000000000000000000000000000          DEM Railroad Commissioner                               UNDER VOTES                           POLL 1                                                 01 
00130040002000034000013000015000006000000000000000000000000000000000000000000000000000000000000000000          DEM Railroad Commissioner                               UNDER VOTES                           POLL 2                                                 01 
00130040003000037000011000024000002000000000000000000000000000000000000000000000000000000000000000000          DEM Railroad Commissioner                               UNDER VOTES                           POLL 3                                                 01 
00130040004000007000002000001000004000000000000000000000000000000000000000000000000000000000000000000          DEM Railroad Commissioner                               UNDER VOTES                           POLL 4                                                 01 
00130040005000005000001000001000003000000000000000000000000000000000000000000000000000000000000000000          DEM Railroad Commissioner                               UNDER VOTES                           POLL 5                                                 01 
00130040006000008000002000004000002000000000000000000000000000000000000000000000000000000000000000000          DEM Railroad Commissioner                               UNDER VOTES                           POLL 6                                                 01 
00130040007000011000007000001000003000000000000000000000000000000000000000000000000000000000000000000          DEM Railroad Commissioner                               UNDER VOTES                           POLL 7                                                 01 
00130040008000024000005000013000006000000000000000000000000000000000000000000000000000000000000000000          DEM Railroad Commissioner                               UNDER VOTES                           POLL 8                                                 01 
00130040009000048000018000021000009000000000000000000000000000000000000000000000000000000000000000000          DEM Railroad Commissioner                               UNDER VOTES                           POLL 9                                                 01 
00130040010000002000000000001000001000000000000000000000000000000000000000000000000000000000000000000          DEM Railroad Commissioner                               UNDER VOTES                           POLL 10                                                01 
00140010010000041000010000012000019000000000000000000000000000000000000000000000000000000000000000000REPREP017 REP US Representative District 17                       Pete Sessions                         POLL 10                       District 17              01 
00140020010000020000008000004000008000000000000000000000000000000000000000000000000000000000000000000REPREP017 REP US Representative District 17                       Renee Swann                           POLL 10                       District 17              01 
00140030010000000000000000000000000000000000000000000000000000000000000000000000000000000000000000000   REP017 REP US Representative District 17                       OVER VOTES                            POLL 10                       District 17              01 
00140040010000002000000000001000001000000000000000000000000000000000000000000000000000000000000000000   REP017 REP US Representative District 17                       UNDER VOTES                           POLL 10                       District 17              01 
00150010006000046000008000025000013000000000000000000000000000000000000000000000000000000000000000000REPPCH2009REP Precinct Chair No. 2009                             Kathleen M. Caso                      POLL 6                        Precinct No. 2009        01 
00150020006000074000021000033000020000000000000000000000000000000000000000000000000000000000000000000REPPCH2009REP Precinct Chair No. 2009                             Chris Kirby                           POLL 6                        Precinct No. 2009        01 
00150030006000000000000000000000000000000000000000000000000000000000000000000000000000000000000000000   PCH2009REP Precinct Chair No. 2009                             OVER VOTES                            POLL 6                        Precinct No. 2009        01 
00150040006000005000000000003000002000000000000000000000000000000000000000000000000000000000000000000   PCH2009REP Precinct Chair No. 2009                             UNDER VOTES                           POLL 6                        Precinct No. 2009        01 
00160010001000014000006000003000005000000000000000000000000000000000000000000000000000000000000000000NON       State Senator, District 14                              Pat Dixon (LIB)                       POLL 1                                                 01 
00160010002000014000009000003000002000000000000000000000000000000000000000000000000000000000000000000NON       State Senator, District 14                              Pat Dixon (LIB)                       POLL 2                                                 01 
00160010003000016000000000011000005000000000000000000000000000000000000000000000000000000000000000000NON       State Senator, District 14                              Pat Dixon (LIB)                       POLL 3                                                 01 
00160010004000005000001000001000003000000000000000000000000000000000000000000000000000000000000000000NON       State Senator, District 14                              Pat Dixon (LIB)                       POLL 4                                                 01 
00160010005000002000000000001000001000000000000000000000000000000000000000000000000000000000000000000NON       State Senator, District 14                              Pat Dixon (LIB)                       POLL 5                                                 01 
00160010006000010000001000004000005000000000000000000000000000000000000000000000000000000000000000000NON       State Senator, District 14                              Pat Dixon (LIB)                       POLL 6                                                 01 
00160010007000011000001000002000008000000000000000000000000000000000000000000000000000000000000000000NON       State Senator, District 14                              Pat Dixon (LIB)                       POLL 7                                                 01 
00160010008000016000004000006000006000000000000000000000000000000000000000000000000000000000000000000NON       State Senator, District 14                              Pat Dixon (LIB)                       POLL 8                                                 01 
00160010009000029000008000006000015000000000000000000000000000000000000000000000000000000000000000000NON       State Senator, District 14                              Pat Dixon (LIB)                       POLL 9                                                 01 
00160010010000001000000000001000000000000000000000000000000000000000000000000000000000000000000000000NON       State Senator, District 14                              Pat Dixon (LIB)                       POLL 10                                                01 
00160020001000555000144000262000149000000000000000000000000000000000000000000000000000000000000000000NON       State Senator, District 14                              Don Zimmerman (REP)                   POLL 1                                                 01 
00160020002000502000162000230000110000000000000000000000000000000000000000000000000000000000000000000NON       State Senator, District 14                              Don Zimmerman (REP)                   POLL 2                                                 01 
00160020003000416000113000209000094000000000000000000000000000000000000000000000000000000000000000000NON       State Senator, District 14                              Don Zimmerman (REP)                   POLL 3                                                 01 
00160020004000212000058000074000080000000000000000000000000000000000000000000000000000000000000000000NON       State Senator, District 14                              Don Zimmerman (REP)                   POLL 4                                                 01 
00160020005000098000028000047000023000000000000000000000000000000000000000000000000000000000000000000NON       State Senator, District 14                              Don Zimmerman (REP)                   POLL 5                                                 01 
00160020006000329000086000152000091000000000000000000000000000000000000000000000000000000000000000000NON       State Senator, District 14                              Don Zimmerman (REP)                   POLL 6                                                 01 
00160020007000233000042000083000108000000000000000000000000000000000000000000000000000000000000000000NON       State Senator, District 14                              Don Zimmerman (REP)                   POLL 7                                                 01 
00160020008000426000071000214000141000000000000000000000000000000000000000000000000000000000000000000NON       State Senator, District 14                              Don Zimmerman (REP)                   POLL 8                                                 01 
00160020009000606000161000305000140000000000000000000000000000000000000000000000000000000000000000000NON       State Senator, District 14                              Don Zimmerman (REP)                   POLL 9                                                 01 
00160020010000055000015000018000022000000000000000000000000000000000000000000000000000000000000000000NON       State Senator, District 14                              Don Zimmerman (REP)                   POLL 10                                                01 
00160030001000063000023000031000009000000000000000000000000000000000000000000000000000000000000000000NON       State Senator, District 14                              Waller Thomas Burns II (REP)          POLL 1                                                 01 
00160030002000054000020000022000012000000000000000000000000000000000000000000000000000000000000000000NON       State Senator, District 14                              Waller Thomas Burns II (REP)          POLL 2                                                 01 
00160030003000056000017000030000009000000000000000000000000000000000000000000000000000000000000000000NON       State Senator, District 14                              Waller Thomas Burns II (REP)          POLL 3                                                 01 
00160030004000026000011000009000006000000000000000000000000000000000000000000000000000000000000000000NON       State Senator, District 14                              Waller Thomas Burns II (REP)          POLL 4                                                 01 
00160030005000008000000000008000000000000000000000000000000000000000000000000000000000000000000000000NON       State Senator, District 14                              Waller Thomas Burns II (REP)          POLL 5                                                 01 
00160030006000038000014000016000008000000000000000000000000000000000000000000000000000000000000000000NON       State Senator, District 14                              Waller Thomas Burns II (REP)          POLL 6                                                 01 
00160030007000016000002000007000007000000000000000000000000000000000000000000000000000000000000000000NON       State Senator, District 14                              Waller Thomas Burns II (REP)          POLL 7                                                 01 
00160030008000045000011000026000008000000000000000000000000000000000000000000000000000000000000000000NON       State Senator, District 14                              Waller Thomas Burns II (REP)          POLL 8                                                 01 
00160030009000056000020000026000010000000000000000000000000000000000000000000000000000000000000000000NON       State Senator, District 14                              Waller Thomas Burns II (REP)          POLL 9                                                 01 
00160030010000005000001000002000002000000000000000000000000000000000000000000000000000000000000000000NON       State Senator, District 14                              Waller Thomas Burns II (REP)          POLL 10                                                01 
00160040001000442000196000172000074000000000000000000000000000000000000000000000000000000000000000000NON       State Senator, District 14                              Sarah Eckhardt (DEM)                  POLL 1                                                 01 
00160040002000416000193000152000071000000000000000000000000000000000000000000000000000000000000000000NON       State Senator, District 14                              Sarah Eckhardt (DEM)                  POLL 2                                                 01 
00160040003000346000156000154000036000000000000000000000000000000000000000000000000000000000000000000NON       State Senator, District 14                              Sarah Eckhardt (DEM)                  POLL 3                                                 01 
00160040004000095000035000036000024000000000000000000000000000000000000000000000000000000000000000000NON       State Senator, District 14                              Sarah Eckhardt (DEM)                  POLL 4                                                 01 
00160040005000061000035000016000010000000000000000000000000000000000000000000000000000000000000000000NON       State Senator, District 14                              Sarah Eckhardt (DEM)                  POLL 5                                                 01 
00160040006000243000114000086000043000000000000000000000000000000000000000000000000000000000000000000NON       State Senator, District 14                              Sarah Eckhardt (DEM)                  POLL 6                                                 01 
00160040007000111000056000019000036000000000000000000000000000000000000000000000000000000000000000000NON       State Senator, District 14                              Sarah Eckhardt (DEM)                  POLL 7                                                 01 
00160040008000370000165000152000053000000000000000000000000000000000000000000000000000000000000000000NON       State Senator, District 14                              Sarah Eckhardt (DEM)                  POLL 8                                                 01 
00160040009000666000255000285000126000000000000000000000000000000000000000000000000000000000000000000NON       State Senator, District 14                              Sarah Eckhardt (DEM)                  POLL 9                                                 01 
00160040010000035000013000015000007000000000000000000000000000000000000000000000000000000000000000000NON       State Senator, District 14                              Sarah Eckhardt (DEM)                  POLL 10                                                01 
00160050001000025000014000008000003000000000000000000000000000000000000000000000000000000000000000000NON       State Senator, District 14                              Jeff Ridgeway (IND)                   POLL 1                                                 01 
00160050002000018000009000004000005000000000000000000000000000000000000000000000000000000000000000000NON       State Senator, District 14                              Jeff Ridgeway (IND)                   POLL 2                                                 01 
00160050003000018000008000007000003000000000000000000000000000000000000000000000000000000000000000000NON       State Senator, District 14                              Jeff Ridgeway (IND)                   POLL 3                                                 01 
00160050004000010000006000002000002000000000000000000000000000000000000000000000000000000000000000000NON       State Senator, District 14                              Jeff Ridgeway (IND)                   POLL 4                                                 01 
00160050005000001000000000001000000000000000000000000000000000000000000000000000000000000000000000000NON       State Senator, District 14                              Jeff Ridgeway (IND)                   POLL 5                                                 01 
00160050006000009000006000001000002000000000000000000000000000000000000000000000000000000000000000000NON       State Senator, District 14                              Jeff Ridgeway (IND)                   POLL 6                                                 01 
00160050007000009000003000003000003000000000000000000000000000000000000000000000000000000000000000000NON       State Senator, District 14                              Jeff Ridgeway (IND)                   POLL 7                                                 01 
00160050008000013000002000005000006000000000000000000000000000000000000000000000000000000000000000000NON       State Senator, District 14                              Jeff Ridgeway (IND)                   POLL 8                                                 01 
00160050009000024000015000007000002000000000000000000000000000000000000000000000000000000000000000000NON       State Senator, District 14                              Jeff Ridgeway (IND)                   POLL 9                                                 01 
00160050010000006000002000001000003000000000000000000000000000000000000000000000000000000000000000000NON       State Senator, District 14                              Jeff Ridgeway (IND)                   POLL 10                                                01 
00160060001000459000175000197000087000000000000000000000000000000000000000000000000000000000000000000NON       State Senator, District 14                              Eddie Rodriguez (DEM)                 POLL 1                                                 01 
00160060002000275000103000112000060000000000000000000000000000000000000000000000000000000000000000000NON       State Senator, District 14                              Eddie Rodriguez (DEM)                 POLL 2                                                 01 
00160060003000191000071000084000036000000000000000000000000000000000000000000000000000000000000000000NON       State Senator, District 14                              Eddie Rodriguez (DEM)                 POLL 3                                                 01 
00160060004000050000019000023000008000000000000000000000000000000000000000000000000000000000000000000NON       State Senator, District 14                              Eddie Rodriguez (DEM)                 POLL 4                                                 01 
00160060005000029000009000011000009000000000000000000000000000000000000000000000000000000000000000000NON       State Senator, District 14                              Eddie Rodriguez (DEM)                 POLL 5                                                 01 
00160060006000140000052000060000028000000000000000000000000000000000000000000000000000000000000000000NON       State Senator, District 14                              Eddie Rodriguez (DEM)                 POLL 6                                                 01 
00160060007000070000029000012000029000000000000000000000000000000000000000000000000000000000000000000NON       State Senator, District 14                              Eddie Rodriguez (DEM)                 POLL 7                                                 01 
00160060008000283000090000133000060000000000000000000000000000000000000000000000000000000000000000000NON       State Senator, District 14                              Eddie Rodriguez (DEM)                 POLL 8                                                 01 
00160060009000476000129000241000106000000000000000000000000000000000000000000000000000000000000000000NON       State Senator, District 14                              Eddie Rodriguez (DEM)                 POLL 9                                                 01 
00160060010000033000010000011000012000000000000000000000000000000000000000000000000000000000000000000NON       State Senator, District 14                              Eddie Rodriguez (DEM)                 POLL 10                                                01 
00160070001000016000007000006000003000000000000000000000000000000000000000000000000000000000000000000          State Senator, District 14                              OVER VOTES                            POLL 1                                                 01 
00160070002000012000007000004000001000000000000000000000000000000000000000000000000000000000000000000          State Senator, District 14                              OVER VOTES                            POLL 2                                                 01 
00160070003000012000005000005000002000000000000000000000000000000000000000000000000000000000000000000          State Senator, District 14                              OVER VOTES                            POLL 3                                                 01 
00160070004000003000000000000000003000000000000000000000000000000000000000000000000000000000000000000          State Senator, District 14                              OVER VOTES                            POLL 4                                                 01 
00160070005000001000000000001000000000000000000000000000000000000000000000000000000000000000000000000          State Senator, District 14                              OVER VOTES                            POLL 5                                                 01 
00160070006000002000002000000000000000000000000000000000000000000000000000000000000000000000000000000          State Senator, District 14                              OVER VOTES                            POLL 6                                                 01 
00160070007000001000000000001000000000000000000000000000000000000000000000000000000000000000000000000          State Senator, District 14                              OVER VOTES                            POLL 7                                                 01 
00160070008000010000001000006000003000000000000000000000000000000000000000000000000000000000000000000          State Senator, District 14                              OVER VOTES                            POLL 8                                                 01 
00160070009000018000010000005000003000000000000000000000000000000000000000000000000000000000000000000          State Senator, District 14                              OVER VOTES                            POLL 9                                                 01 
00160070010000001000000000000000001000000000000000000000000000000000000000000000000000000000000000000          State Senator, District 14                              OVER VOTES                            POLL 10                                                01 
00160080001000004000002000002000000000000000000000000000000000000000000000000000000000000000000000000          State Senator, District 14                              UNDER VOTES                           POLL 1                                                 01 
00160080002000004000003000000000001000000000000000000000000000000000000000000000000000000000000000000          State Senator, District 14                              UNDER VOTES                           POLL 2                                                 01 
00160080003000005000005000000000000000000000000000000000000000000000000000000000000000000000000000000          State Senator, District 14                              UNDER VOTES                           POLL 3                                                 01 
00160080004000001000000000000000001000000000000000000000000000000000000000000000000000000000000000000          State Senator, District 14                              UNDER VOTES                           POLL 4                                                 01 
00160080005000000000000000000000000000000000000000000000000000000000000000000000000000000000000000000          State Senator, District 14                              UNDER VOTES                           POLL 5                                                 01 
00160080006000008000002000004000002000000000000000000000000000000000000000000000000000000000000000000          State Senator, District 14                              UNDER VOTES                           POLL 6                                                 01 
00160080007000001000000000001000000000000000000000000000000000000000000000000000000000000000000000000          State Senator, District 14                              UNDER VOTES                           POLL 7                                                 01 
00160080008000006000000000003000003000000000000000000000000000000000000000000000000000000000000000000          State Senator, District 14                              UNDER VOTES                           POLL 8                                                 01 
00160080009000007000003000002000002000000000000000000000000000000000000000000000000000000000000000000          State Senator, District 14                              UNDER VOTES                           POLL 9                                                 01 
00160080010000001000000000001000000000000000000000000000000000000000000000000000000000000000000000000          State Senator, District 14                              UNDER VOTES                           POLL 10                                                01 
