00010010001010959000000000000000000000000000000000000000000000000000000000000000000000000000000000000          REGISTERED VOTERS - TOTAL                               REGISTERED VOTERS - TOTAL             101                                                    00 
00010010002013224000000000000000000000000000000000000000000000000000000000000000000000000000000000000          REGISTERED VOTERS - TOTAL                               REGISTERED VOTERS - TOTAL             102                                                    00 
00010010003014655000000000000000000000000000000000000000000000000000000000000000000000000000000000000          REGISTERED VOTERS - TOTAL                               REGISTERED VOTERS - TOTAL             103                                                    00 
00010010004011046000000000000000000000000000000000000000000000000000000000000000000000000000000000000          REGISTERED VOTERS - TOTAL                               REGISTERED VOTERS - TOTAL             104                                                    00 
00010010005014421000000000000000000000000000000000000000000000000000000000000000000000000000000000000          REGISTERED VOTERS - TOTAL                               REGISTERED VOTERS - TOTAL             105                                                    00 
00010010006009759000000000000000000000000000000000000000000000000000000000000000000000000000000000000          REGISTERED VOTERS - TOTAL                               REGISTERED VOTERS - TOTAL             106                                                    00 
00010010007011085000000000000000000000000000000000000000000000000000000000000000000000000000000000000          REGISTERED VOTERS - TOTAL                               REGISTERED VOTERS - TOTAL             107                                                    00 
00010010008010011000000000000000000000000000000000000000000000000000000000000000000000000000000000000          REGISTERED VOTERS - TOTAL                               REGISTERED VOTERS - TOTAL             108                                                    00 
00010010009005769000000000000000000000000000000000000000000000000000000000000000000000000000000000000          REGISTERED VOTERS - TOTAL                               REGISTERED VOTERS - TOTAL             109                                                    00 
00010010010013662000000000000000000000000000000000000000000000000000000000000000000000000000000000000          REGISTERED VOTERS - TOTAL                               REGISTERED VOTERS - TOTAL             110                                                    00 
00010010011007086000000000000000000000000000000000000000000000000000000000000000000000000000000000000          REGISTERED VOTERS - TOTAL                               REGISTERED VOTERS - TOTAL             111                                                    00 
00010010012005868000000000000000000000000000000000000000000000000000000000000000000000000000000000000          REGISTERED VOTERS - TOTAL                               REGISTERED VOTERS - TOTAL             112                                                    00 
00010010013006129000000000000000000000000000000000000000000000000000000000000000000000000000000000000          REGISTERED VOTERS - TOTAL                               REGISTERED VOTERS - TOTAL             113                                                    00 
00010010014006591000000000000000000000000000000000000000000000000000000000000000000000000000000000000          REGISTERED VOTERS - TOTAL                               REGISTERED VOTERS - TOTAL             114                                                    00 
00010010015005580000000000000000000000000000000000000000000000000000000000000000000000000000000000000          REGISTERED VOTERS - TOTAL                               REGISTERED VOTERS - TOTAL             115                                                    00 
00010010016006402000000000000000000000000000000000000000000000000000000000000000000000000000000000000          REGISTERED VOTERS - TOTAL                               REGISTERED VOTERS - TOTAL             116                                                    00 
00010010017008028000000000000000000000000000000000000000000000000000000000000000000000000000000000000          REGISTERED VOTERS - TOTAL                               REGISTERED VOTERS - TOTAL             117                                                    00 
00010010018008535000000000000000000000000000000000000000000000000000000000000000000000000000000000000          REGISTERED VOTERS - TOTAL                               REGISTERED VOTERS - TOTAL             118                                                    00 
00010010019004455000000000000000000000000000000000000000000000000000000000000000000000000000000000000          REGISTERED VOTERS - TOTAL                               REGISTERED VOTERS - TOTAL             119                                                    00 
00010010020001977000000000000000000000000000000000000000000000000000000000000000000000000000000000000          REGISTERED VOTERS - TOTAL                               REGISTERED VOTERS - TOTAL             120                                                    00 
00010010021006741000000000000000000000000000000000000000000000000000000000000000000000000000000000000          REGISTERED VOTERS - TOTAL                               REGISTERED VOTERS - TOTAL             121                                                    00 
00010010022003729000000000000000000000000000000000000000000000000000000000000000000000000000000000000          REGISTERED VOTERS - TOTAL                               REGISTERED VOTERS - TOTAL             122                                                    00 
00010010023003090000000000000000000000000000000000000000000000000000000000000000000000000000000000000          REGISTERED VOTERS - TOTAL                               REGISTERED VOTERS - TOTAL             123                                                    00 
00010010024005220000000000000000000000000000000000000000000000000000000000000000000000000000000000000          REGISTERED VOTERS - TOTAL                               REGISTERED VOTERS - TOTAL             124                                                    00 
00010010025012276000000000000000000000000000000000000000000000000000000000000000000000000000000000000          REGISTERED VOTERS - TOTAL                               REGISTERED VOTERS - TOTAL             125                                                    00 
00010010026003276000000000000000000000000000000000000000000000000000000000000000000000000000000000000          REGISTERED VOTERS - TOTAL                               REGISTERED VOTERS - TOTAL             126                                                    00 
00010010027001398000000000000000000000000000000000000000000000000000000000000000000000000000000000000          REGISTERED VOTERS - TOTAL                               REGISTERED VOTERS - TOTAL             127                                                    00 
00010010028000618000000000000000000000000000000000000000000000000000000000000000000000000000000000000          REGISTERED VOTERS - TOTAL                               REGISTERED VOTERS - TOTAL             128                                                    00 
00010010029002451000000000000000000000000000000000000000000000000000000000000000000000000000000000000          REGISTERED VOTERS - TOTAL                               REGISTERED VOTERS - TOTAL             129                                                    00 
00010010030001962000000000000000000000000000000000000000000000000000000000000000000000000000000000000          REGISTERED VOTERS - TOTAL                               REGISTERED VOTERS - TOTAL             130                                                    00 
00010010031005745000000000000000000000000000000000000000000000000000000000000000000000000000000000000          REGISTERED VOTERS - TOTAL                               REGISTERED VOTERS - TOTAL             131                                                    00 
00010010032001917000000000000000000000000000000000000000000000000000000000000000000000000000000000000          REGISTERED VOTERS - TOTAL                               REGISTERED VOTERS - TOTAL             132                                                    00 
00010010033001833000000000000000000000000000000000000000000000000000000000000000000000000000000000000          REGISTERED VOTERS - TOTAL                               REGISTERED VOTERS - TOTAL             133                                                    00 
00010010034002244000000000000000000000000000000000000000000000000000000000000000000000000000000000000          REGISTERED VOTERS - TOTAL                               REGISTERED VOTERS - TOTAL             134                                                    00 
00010010035011967000000000000000000000000000000000000000000000000000000000000000000000000000000000000          REGISTERED VOTERS - TOTAL                               REGISTERED VOTERS - TOTAL             135                                                    00 
00010010036001539000000000000000000000000000000000000000000000000000000000000000000000000000000000000          REGISTERED VOTERS - TOTAL                               REGISTERED VOTERS - TOTAL             136                                                    00 
00010010037003687000000000000000000000000000000000000000000000000000000000000000000000000000000000000          REGISTERED VOTERS - TOTAL                               REGISTERED VOTERS - TOTAL             137                                                    00 
00010010038006297000000000000000000000000000000000000000000000000000000000000000000000000000000000000          REGISTERED VOTERS - TOTAL                               REGISTERED VOTERS - TOTAL             138                                                    00 
00010010039003129000000000000000000000000000000000000000000000000000000000000000000000000000000000000          REGISTERED VOTERS - TOTAL                               REGISTERED VOTERS - TOTAL             139                                                    00 
00010010040016653000000000000000000000000000000000000000000000000000000000000000000000000000000000000          REGISTERED VOTERS - TOTAL                               REGISTERED VOTERS - TOTAL             140                                                    00 
00010010041005982000000000000000000000000000000000000000000000000000000000000000000000000000000000000          REGISTERED VOTERS - TOTAL                               REGISTERED VOTERS - TOTAL             141                                                    00 
00010010042006669000000000000000000000000000000000000000000000000000000000000000000000000000000000000          REGISTERED VOTERS - TOTAL                               REGISTERED VOTERS - TOTAL             142                                                    00 
00010010043009000000000000000000000000000000000000000000000000000000000000000000000000000000000000000          REGISTERED VOTERS - TOTAL                               REGISTERED VOTERS - TOTAL             143                                                    00 
00010010044006291000000000000000000000000000000000000000000000000000000000000000000000000000000000000          REGISTERED VOTERS - TOTAL                               REGISTERED VOTERS - TOTAL             144                                                    00 
00010010045011742000000000000000000000000000000000000000000000000000000000000000000000000000000000000          REGISTERED VOTERS - TOTAL                               REGISTERED VOTERS - TOTAL             145                                                    00 
00010010046008619000000000000000000000000000000000000000000000000000000000000000000000000000000000000          REGISTERED VOTERS - TOTAL                               REGISTERED VOTERS - TOTAL             146                                                    00 
00010010047012321000000000000000000000000000000000000000000000000000000000000000000000000000000000000          REGISTERED VOTERS - TOTAL                               REGISTERED VOTERS - TOTAL             147                                                    00 
00010010048008532000000000000000000000000000000000000000000000000000000000000000000000000000000000000          REGISTERED VOTERS - TOTAL                               REGISTERED VOTERS - TOTAL             148                                                    00 
00010010049004509000000000000000000000000000000000000000000000000000000000000000000000000000000000000          REGISTERED VOTERS - TOTAL                               REGISTERED VOTERS - TOTAL             149                                                    00 
00040010001000156000027000080000049000000000000000000000000000000000000000000000000000000000000000000DEM       BALLOTS CAST - Democratic Party                         BALLOTS CAST - Democratic Party       101                                                    00 
00040010002000109000021000044000044000000000000000000000000000000000000000000000000000000000000000000DEM       BALLOTS CAST - Democratic Party                         BALLOTS CAST - Democratic Party       102                                                    00 
00040010003000160000022000064000074000000000000000000000000000000000000000000000000000000000000000000DEM       BALLOTS CAST - Democratic Party                         BALLOTS CAST - Democratic Party       103                                                    00 
00040010004000114000011000058000045000000000000000000000000000000000000000000000000000000000000000000DEM       BALLOTS CAST - Democratic Party                         BALLOTS CAST - Democratic Party       104                                                    00 
00040010005000205000036000094000075000000000000000000000000000000000000000000000000000000000000000000DEM       BALLOTS CAST - Democratic Party                         BALLOTS CAST - Democratic Party       105                                                    00 
00040010006000086000012000039000035000000000000000000000000000000000000000000000000000000000000000000DEM       BALLOTS CAST - Democratic Party                         BALLOTS CAST - Democratic Party       106                                                    00 
00040010007000168000026000084000058000000000000000000000000000000000000000000000000000000000000000000DEM       BALLOTS CAST - Democratic Party                         BALLOTS CAST - Democratic Party       107                                                    00 
00040010008000144000012000065000067000000000000000000000000000000000000000000000000000000000000000000DEM       BALLOTS CAST - Democratic Party                         BALLOTS CAST - Democratic Party       108                                                    00 
00040010009000119000021000052000046000000000000000000000000000000000000000000000000000000000000000000DEM       BALLOTS CAST - Democratic Party                         BALLOTS CAST - Democratic Party       109                                                    00 
00040010010000409000053000168000188000000000000000000000000000000000000000000000000000000000000000000DEM       BALLOTS CAST - Democratic Party                         BALLOTS CAST - Democratic Party       110                                                    00 
00040010011000095000017000039000039000000000000000000000000000000000000000000000000000000000000000000DEM       BALLOTS CAST - Democratic Party                         BALLOTS CAST - Democratic Party       111                                                    00 
00040010012000055000012000016000027000000000000000000000000000000000000000000000000000000000000000000DEM       BALLOTS CAST - Democratic Party                         BALLOTS CAST - Democratic Party       112                                                    00 
00040010013000136000043000043000050000000000000000000000000000000000000000000000000000000000000000000DEM       BALLOTS CAST - Democratic Party                         BALLOTS CAST - Democratic Party       113                                                    00 
00040010014000088000030000029000029000000000000000000000000000000000000000000000000000000000000000000DEM       BALLOTS CAST - Democratic Party                         BALLOTS CAST - Democratic Party       114                                                    00 
00040010015000086000015000039000032000000000000000000000000000000000000000000000000000000000000000000DEM       BALLOTS CAST - Democratic Party                         BALLOTS CAST - Democratic Party       115                                                    00 
00040010016000065000010000029000026000000000000000000000000000000000000000000000000000000000000000000DEM       BALLOTS CAST - Democratic Party                         BALLOTS CAST - Democratic Party       116                                                    00 
00040010017000056000019000018000019000000000000000000000000000000000000000000000000000000000000000000DEM       BALLOTS CAST - Democratic Party                         BALLOTS CAST - Democratic Party       117                                                    00 
00040010018000115000040000042000033000000000000000000000000000000000000000000000000000000000000000000DEM       BALLOTS CAST - Democratic Party                         BALLOTS CAST - Democratic Party       118                                                    00 
00040010019000046000011000022000013000000000000000000000000000000000000000000000000000000000000000000DEM       BALLOTS CAST - Democratic Party                         BALLOTS CAST - Democratic Party       119                                                    00 
00040010020000005000003000001000001000000000000000000000000000000000000000000000000000000000000000000DEM       BALLOTS CAST - Democratic Party                         BALLOTS CAST - Democratic Party       120                                                    00 
00040010021000066000020000020000026000000000000000000000000000000000000000000000000000000000000000000DEM       BALLOTS CAST - Democratic Party                         BALLOTS CAST - Democratic Party       121                                                    00 
00040010022000034000008000015000011000000000000000000000000000000000000000000000000000000000000000000DEM       BALLOTS CAST - Democratic Party                         BALLOTS CAST - Democratic Party       122                                                    00 
00040010023000059000026000013000020000000000000000000000000000000000000000000000000000000000000000000DEM       BALLOTS CAST - Democratic Party                         BALLOTS CAST - Democratic Party       123                                                    00 
00040010024000079000017000035000027000000000000000000000000000000000000000000000000000000000000000000DEM       BALLOTS CAST - Democratic Party                         BALLOTS CAST - Democratic Party       124                                                    00 
00040010025000093000027000026000040000000000000000000000000000000000000000000000000000000000000000000DEM       BALLOTS CAST - Democratic Party                         BALLOTS CAST - Democratic Party       125                                                    00 
00040010026000018000003000009000006000000000000000000000000000000000000000000000000000000000000000000DEM       BALLOTS CAST - Democratic Party                         BALLOTS CAST - Democratic Party       126                                                    00 
00040010027000015000009000003000003000000000000000000000000000000000000000000000000000000000000000000DEM       BALLOTS CAST - Democratic Party                         BALLOTS CAST - Democratic Party       127                                                    00 
00040010028000005000000000002000003000000000000000000000000000000000000000000000000000000000000000000DEM       BALLOTS CAST - Democratic Party                         BALLOTS CAST - Democratic Party       128                                                    00 
00040010029000020000003000007000010000000000000000000000000000000000000000000000000000000000000000000DEM       BALLOTS CAST - Democratic Party                         BALLOTS CAST - Democratic Party       129                                                    00 
00040010030000015000002000000000013000000000000000000000000000000000000000000000000000000000000000000DEM       BALLOTS CAST - Democratic Party                         BALLOTS CAST - Democratic Party       130                                                    00 
00040010031000074000006000011000057000000000000000000000000000000000000000000000000000000000000000000DEM       BALLOTS CAST - Democratic Party                         BALLOTS CAST - Democratic Party       131                                                    00 
00040010032000006000002000002000002000000000000000000000000000000000000000000000000000000000000000000DEM       BALLOTS CAST - Democratic Party                         BALLOTS CAST - Democratic Party       132                                                    00 
00040010033000015000004000009000002000000000000000000000000000000000000000000000000000000000000000000DEM       BALLOTS CAST - Democratic Party                         BALLOTS CAST - Democratic Party       133                                                    00 
00040010034000017000001000009000007000000000000000000000000000000000000000000000000000000000000000000DEM       BALLOTS CAST - Democratic Party                         BALLOTS CAST - Democratic Party       134                                                    00 
00040010035000069000017000021000031000000000000000000000000000000000000000000000000000000000000000000DEM       BALLOTS CAST - Democratic Party                         BALLOTS CAST - Democratic Party       135                                                    00 
00040010036000014000002000009000003000000000000000000000000000000000000000000000000000000000000000000DEM       BALLOTS CAST - Democratic Party                         BALLOTS CAST - Democratic Party       136                                                    00 
00040010037000041000010000017000014000000000000000000000000000000000000000000000000000000000000000000DEM       BALLOTS CAST - Democratic Party                         BALLOTS CAST - Democratic Party       137                                                    00 
00040010038000040000001000020000019000000000000000000000000000000000000000000000000000000000000000000DEM       BALLOTS CAST - Democratic Party                         BALLOTS CAST - Democratic Party       138                                                    00 
00040010039000037000012000006000019000000000000000000000000000000000000000000000000000000000000000000DEM       BALLOTS CAST - Democratic Party                         BALLOTS CAST - Democratic Party       139                                                    00 
00040010040000280000029000134000117000000000000000000000000000000000000000000000000000000000000000000DEM       BALLOTS CAST - Democratic Party                         BALLOTS CAST - Democratic Party       140                                                    00 
00040010041000078000013000031000034000000000000000000000000000000000000000000000000000000000000000000DEM       BALLOTS CAST - Democratic Party                         BALLOTS CAST - Democratic Party       141                                                    00 
00040010042000072000014000040000018000000000000000000000000000000000000000000000000000000000000000000DEM       BALLOTS CAST - Democratic Party                         BALLOTS CAST - Democratic Party       142                                                    00 
00040010043000128000013000055000060000000000000000000000000000000000000000000000000000000000000000000DEM       BALLOTS CAST - Democratic Party                         BALLOTS CAST - Democratic Party       143                                                    00 
00040010044000301000031000142000128000000000000000000000000000000000000000000000000000000000000000000DEM       BALLOTS CAST - Democratic Party                         BALLOTS CAST - Democratic Party       144                                                    00 
00040010045000313000041000159000113000000000000000000000000000000000000000000000000000000000000000000DEM       BALLOTS CAST - Democratic Party                         BALLOTS CAST - Democratic Party       145                                                    00 
00040010046000159000019000081000059000000000000000000000000000000000000000000000000000000000000000000DEM       BALLOTS CAST - Democratic Party                         BALLOTS CAST - Democratic Party       146                                                    00 
00040010047000158000032000067000059000000000000000000000000000000000000000000000000000000000000000000DEM       BALLOTS CAST - Democratic Party                         BALLOTS CAST - Democratic Party       147                                                    00 
00040010048000149000027000041000081000000000000000000000000000000000000000000000000000000000000000000DEM       BALLOTS CAST - Democratic Party                         BALLOTS CAST - Democratic Party       148                                                    00 
00040010049000050000007000018000025000000000000000000000000000000000000000000000000000000000000000000DEM       BALLOTS CAST - Democratic Party                         BALLOTS CAST - Democratic Party       149                                                    00 
00050010001000104000016000053000035000000000000000000000000000000000000000000000000000000000000000000DEM       DEM US Senator                                          Royce West                            101                                                    01 
00050010002000058000008000026000024000000000000000000000000000000000000000000000000000000000000000000DEM       DEM US Senator                                          Royce West                            102                                                    01 
00050010003000093000009000042000042000000000000000000000000000000000000000000000000000000000000000000DEM       DEM US Senator                                          Royce West                            103                                                    01 
00050010004000065000005000038000022000000000000000000000000000000000000000000000000000000000000000000DEM       DEM US Senator                                          Royce West                            104                                                    01 
00050010005000142000025000064000053000000000000000000000000000000000000000000000000000000000000000000DEM       DEM US Senator                                          Royce West                            105                                                    01 
00050010006000051000002000023000026000000000000000000000000000000000000000000000000000000000000000000DEM       DEM US Senator                                          Royce West                            106                                                    01 
00050010007000119000018000063000038000000000000000000000000000000000000000000000000000000000000000000DEM       DEM US Senator                                          Royce West                            107                                                    01 
00050010008000109000010000054000045000000000000000000000000000000000000000000000000000000000000000000DEM       DEM US Senator                                          Royce West                            108                                                    01 
00050010009000091000013000046000032000000000000000000000000000000000000000000000000000000000000000000DEM       DEM US Senator                                          Royce West                            109                                                    01 
00050010010000335000033000144000158000000000000000000000000000000000000000000000000000000000000000000DEM       DEM US Senator                                          Royce West                            110                                                    01 
00050010011000061000004000029000028000000000000000000000000000000000000000000000000000000000000000000DEM       DEM US Senator                                          Royce West                            111                                                    01 
00050010012000026000005000010000011000000000000000000000000000000000000000000000000000000000000000000DEM       DEM US Senator                                          Royce West                            112                                                    01 
00050010013000115000038000036000041000000000000000000000000000000000000000000000000000000000000000000DEM       DEM US Senator                                          Royce West                            113                                                    01 
00050010014000049000016000015000018000000000000000000000000000000000000000000000000000000000000000000DEM       DEM US Senator                                          Royce West                            114                                                    01 
00050010015000041000005000026000010000000000000000000000000000000000000000000000000000000000000000000DEM       DEM US Senator                                          Royce West                            115                                                    01 
00050010016000024000005000011000008000000000000000000000000000000000000000000000000000000000000000000DEM       DEM US Senator                                          Royce West                            116                                                    01 
00050010017000019000005000009000005000000000000000000000000000000000000000000000000000000000000000000DEM       DEM US Senator                                          Royce West                            117                                                    01 
00050010018000054000011000023000020000000000000000000000000000000000000000000000000000000000000000000DEM       DEM US Senator                                          Royce West                            118                                                    01 
00050010019000027000009000011000007000000000000000000000000000000000000000000000000000000000000000000DEM       DEM US Senator                                          Royce West                            119                                                    01 
00050010020000001000000000001000000000000000000000000000000000000000000000000000000000000000000000000DEM       DEM US Senator                                          Royce West                            120                                                    01 
00050010021000035000008000015000012000000000000000000000000000000000000000000000000000000000000000000DEM       DEM US Senator                                          Royce West                            121                                                    01 
00050010022000020000003000011000006000000000000000000000000000000000000000000000000000000000000000000DEM       DEM US Senator                                          Royce West                            122                                                    01 
00050010023000050000024000012000014000000000000000000000000000000000000000000000000000000000000000000DEM       DEM US Senator                                          Royce West                            123                                                    01 
00050010024000064000015000030000019000000000000000000000000000000000000000000000000000000000000000000DEM       DEM US Senator                                          Royce West                            124                                                    01 
00050010025000039000014000006000019000000000000000000000000000000000000000000000000000000000000000000DEM       DEM US Senator                                          Royce West                            125                                                    01 
00050010026000007000002000001000004000000000000000000000000000000000000000000000000000000000000000000DEM       DEM US Senator                                          Royce West                            126                                                    01 
00050010027000006000002000002000002000000000000000000000000000000000000000000000000000000000000000000DEM       DEM US Senator                                          Royce West                            127                                                    01 
00050010028000003000000000000000003000000000000000000000000000000000000000000000000000000000000000000DEM       DEM US Senator                                          Royce West                            128                                                    01 
00050010029000005000001000002000002000000000000000000000000000000000000000000000000000000000000000000DEM       DEM US Senator                                          Royce West                            129                                                    01 
00050010030000014000002000000000012000000000000000000000000000000000000000000000000000000000000000000DEM       DEM US Senator                                          Royce West                            130                                                    01 
00050010031000047000004000008000035000000000000000000000000000000000000000000000000000000000000000000DEM       DEM US Senator                                          Royce West                            131                                                    01 
00050010032000002000000000001000001000000000000000000000000000000000000000000000000000000000000000000DEM       DEM US Senator                                          Royce West                            132                                                    01 
00050010033000009000001000006000002000000000000000000000000000000000000000000000000000000000000000000DEM       DEM US Senator                                          Royce West                            133                                                    01 
00050010034000007000000000004000003000000000000000000000000000000000000000000000000000000000000000000DEM       DEM US Senator                                          Royce West                            134                                                    01 
00050010035000024000005000008000011000000000000000000000000000000000000000000000000000000000000000000DEM       DEM US Senator                                          Royce West                            135                                                    01 
00050010036000008000001000005000002000000000000000000000000000000000000000000000000000000000000000000DEM       DEM US Senator                                          Royce West                            136                                                    01 
00050010037000013000005000003000005000000000000000000000000000000000000000000000000000000000000000000DEM       DEM US Senator                                          Royce West                            137                                                    01 
00050010038000020000001000010000009000000000000000000000000000000000000000000000000000000000000000000DEM       DEM US Senator                                          Royce West                            138                                                    01 
00050010039000020000005000004000011000000000000000000000000000000000000000000000000000000000000000000DEM       DEM US Senator                                          Royce West                            139                                                    01 
00050010040000193000017000101000075000000000000000000000000000000000000000000000000000000000000000000DEM       DEM US Senator                                          Royce West                            140                                                    01 
00050010041000049000005000025000019000000000000000000000000000000000000000000000000000000000000000000DEM       DEM US Senator                                          Royce West                            141                                                    01 
00050010042000039000007000025000007000000000000000000000000000000000000000000000000000000000000000000DEM       DEM US Senator                                          Royce West                            142                                                    01 
00050010043000089000005000041000043000000000000000000000000000000000000000000000000000000000000000000DEM       DEM US Senator                                          Royce West                            143                                                    01 
00050010044000263000022000130000111000000000000000000000000000000000000000000000000000000000000000000DEM       DEM US Senator                                          Royce West                            144                                                    01 
00050010045000244000026000130000088000000000000000000000000000000000000000000000000000000000000000000DEM       DEM US Senator                                          Royce West                            145                                                    01 
00050010046000114000012000060000042000000000000000000000000000000000000000000000000000000000000000000DEM       DEM US Senator                                          Royce West                            146                                                    01 
00050010047000096000020000039000037000000000000000000000000000000000000000000000000000000000000000000DEM       DEM US Senator                                          Royce West                            147                                                    01 
00050010048000108000019000033000056000000000000000000000000000000000000000000000000000000000000000000DEM       DEM US Senator                                          Royce West                            148                                                    01 
00050010049000021000003000009000009000000000000000000000000000000000000000000000000000000000000000000DEM       DEM US Senator                                          Royce West                            149                                                    01 
00050020001000052000011000027000014000000000000000000000000000000000000000000000000000000000000000000DEM       DEM US Senator                                          Mary "MJ" Hegar                       101                                                    01 
00050020002000051000013000018000020000000000000000000000000000000000000000000000000000000000000000000DEM       DEM US Senator                                          Mary "MJ" Hegar                       102                                                    01 
00050020003000067000013000022000032000000000000000000000000000000000000000000000000000000000000000000DEM       DEM US Senator                                          Mary "MJ" Hegar                       103                                                    01 
00050020004000049000006000020000023000000000000000000000000000000000000000000000000000000000000000000DEM       DEM US Senator                                          Mary "MJ" Hegar                       104                                                    01 
00050020005000062000011000030000021000000000000000000000000000000000000000000000000000000000000000000DEM       DEM US Senator                                          Mary "MJ" Hegar                       105                                                    01 
00050020006000035000010000016000009000000000000000000000000000000000000000000000000000000000000000000DEM       DEM US Senator                                          Mary "MJ" Hegar                       106                                                    01 
00050020007000047000008000019000020000000000000000000000000000000000000000000000000000000000000000000DEM       DEM US Senator                                          Mary "MJ" Hegar                       107                                                    01 
00050020008000035000002000011000022000000000000000000000000000000000000000000000000000000000000000000DEM       DEM US Senator                                          Mary "MJ" Hegar                       108                                                    01 
00050020009000028000008000006000014000000000000000000000000000000000000000000000000000000000000000000DEM       DEM US Senator                                          Mary "MJ" Hegar                       109                                                    01 
00050020010000074000020000024000030000000000000000000000000000000000000000000000000000000000000000000DEM       DEM US Senator                                          Mary "MJ" Hegar                       110                                                    01 
00050020011000034000013000010000011000000000000000000000000000000000000000000000000000000000000000000DEM       DEM US Senator                                          Mary "MJ" Hegar                       111                                                    01 
00050020012000029000007000006000016000000000000000000000000000000000000000000000000000000000000000000DEM       DEM US Senator                                          Mary "MJ" Hegar                       112                                                    01 
00050020013000020000005000006000009000000000000000000000000000000000000000000000000000000000000000000DEM       DEM US Senator                                          Mary "MJ" Hegar                       113                                                    01 
00050020014000039000014000014000011000000000000000000000000000000000000000000000000000000000000000000DEM       DEM US Senator                                          Mary "MJ" Hegar                       114                                                    01 
00050020015000044000010000012000022000000000000000000000000000000000000000000000000000000000000000000DEM       DEM US Senator                                          Mary "MJ" Hegar                       115                                                    01 
00050020016000041000005000018000018000000000000000000000000000000000000000000000000000000000000000000DEM       DEM US Senator                                          Mary "MJ" Hegar                       116                                                    01 
00050020017000037000014000009000014000000000000000000000000000000000000000000000000000000000000000000DEM       DEM US Senator                                          Mary "MJ" Hegar                       117                                                    01 
00050020018000061000029000019000013000000000000000000000000000000000000000000000000000000000000000000DEM       DEM US Senator                                          Mary "MJ" Hegar                       118                                                    01 
00050020019000019000002000011000006000000000000000000000000000000000000000000000000000000000000000000DEM       DEM US Senator                                          Mary "MJ" Hegar                       119                                                    01 
00050020020000003000002000000000001000000000000000000000000000000000000000000000000000000000000000000DEM       DEM US Senator                                          Mary "MJ" Hegar                       120                                                    01 
00050020021000030000012000005000013000000000000000000000000000000000000000000000000000000000000000000DEM       DEM US Senator                                          Mary "MJ" Hegar                       121                                                    01 
00050020022000014000005000004000005000000000000000000000000000000000000000000000000000000000000000000DEM       DEM US Senator                                          Mary "MJ" Hegar                       122                                                    01 
00050020023000009000002000001000006000000000000000000000000000000000000000000000000000000000000000000DEM       DEM US Senator                                          Mary "MJ" Hegar                       123                                                    01 
00050020024000014000002000004000008000000000000000000000000000000000000000000000000000000000000000000DEM       DEM US Senator                                          Mary "MJ" Hegar                       124                                                    01 
00050020025000054000013000020000021000000000000000000000000000000000000000000000000000000000000000000DEM       DEM US Senator                                          Mary "MJ" Hegar                       125                                                    01 
00050020026000010000001000007000002000000000000000000000000000000000000000000000000000000000000000000DEM       DEM US Senator                                          Mary "MJ" Hegar                       126                                                    01 
00050020027000009000007000001000001000000000000000000000000000000000000000000000000000000000000000000DEM       DEM US Senator                                          Mary "MJ" Hegar                       127                                                    01 
00050020028000002000000000002000000000000000000000000000000000000000000000000000000000000000000000000DEM       DEM US Senator                                          Mary "MJ" Hegar                       128                                                    01 
00050020029000014000002000004000008000000000000000000000000000000000000000000000000000000000000000000DEM       DEM US Senator                                          Mary "MJ" Hegar                       129                                                    01 
00050020030000001000000000000000001000000000000000000000000000000000000000000000000000000000000000000DEM       DEM US Senator                                          Mary "MJ" Hegar                       130                                                    01 
00050020031000022000002000002000018000000000000000000000000000000000000000000000000000000000000000000DEM       DEM US Senator                                          Mary "MJ" Hegar                       131                                                    01 
00050020032000004000002000001000001000000000000000000000000000000000000000000000000000000000000000000DEM       DEM US Senator                                          Mary "MJ" Hegar                       132                                                    01 
00050020033000006000003000003000000000000000000000000000000000000000000000000000000000000000000000000DEM       DEM US Senator                                          Mary "MJ" Hegar                       133                                                    01 
00050020034000010000001000005000004000000000000000000000000000000000000000000000000000000000000000000DEM       DEM US Senator                                          Mary "MJ" Hegar                       134                                                    01 
00050020035000045000012000013000020000000000000000000000000000000000000000000000000000000000000000000DEM       DEM US Senator                                          Mary "MJ" Hegar                       135                                                    01 
00050020036000006000001000004000001000000000000000000000000000000000000000000000000000000000000000000DEM       DEM US Senator                                          Mary "MJ" Hegar                       136                                                    01 
00050020037000028000005000014000009000000000000000000000000000000000000000000000000000000000000000000DEM       DEM US Senator                                          Mary "MJ" Hegar                       137                                                    01 
00050020038000020000000000010000010000000000000000000000000000000000000000000000000000000000000000000DEM       DEM US Senator                                          Mary "MJ" Hegar                       138                                                    01 
00050020039000017000007000002000008000000000000000000000000000000000000000000000000000000000000000000DEM       DEM US Senator                                          Mary "MJ" Hegar                       139                                                    01 
00050020040000087000012000033000042000000000000000000000000000000000000000000000000000000000000000000DEM       DEM US Senator                                          Mary "MJ" Hegar                       140                                                    01 
00050020041000029000008000006000015000000000000000000000000000000000000000000000000000000000000000000DEM       DEM US Senator                                          Mary "MJ" Hegar                       141                                                    01 
00050020042000033000007000015000011000000000000000000000000000000000000000000000000000000000000000000DEM       DEM US Senator                                          Mary "MJ" Hegar                       142                                                    01 
00050020043000037000008000012000017000000000000000000000000000000000000000000000000000000000000000000DEM       DEM US Senator                                          Mary "MJ" Hegar                       143                                                    01 
00050020044000038000009000012000017000000000000000000000000000000000000000000000000000000000000000000DEM       DEM US Senator                                          Mary "MJ" Hegar                       144                                                    01 
00050020045000069000015000029000025000000000000000000000000000000000000000000000000000000000000000000DEM       DEM US Senator                                          Mary "MJ" Hegar                       145                                                    01 
00050020046000043000007000020000016000000000000000000000000000000000000000000000000000000000000000000DEM       DEM US Senator                                          Mary "MJ" Hegar                       146                                                    01 
00050020047000062000012000028000022000000000000000000000000000000000000000000000000000000000000000000DEM       DEM US Senator                                          Mary "MJ" Hegar                       147                                                    01 
00050020048000040000008000008000024000000000000000000000000000000000000000000000000000000000000000000DEM       DEM US Senator                                          Mary "MJ" Hegar                       148                                                    01 
00050020049000028000004000008000016000000000000000000000000000000000000000000000000000000000000000000DEM       DEM US Senator                                          Mary "MJ" Hegar                       149                                                    01 
00060010001000094000019000052000023000000000000000000000000000000000000000000000000000000000000000000DEM       DEM Railroad Commissioner                               Chrysta Castaneda                     101                                                    01 
00060010002000072000018000027000027000000000000000000000000000000000000000000000000000000000000000000DEM       DEM Railroad Commissioner                               Chrysta Castaneda                     102                                                    01 
00060010003000099000015000036000048000000000000000000000000000000000000000000000000000000000000000000DEM       DEM Railroad Commissioner                               Chrysta Castaneda                     103                                                    01 
00060010004000065000008000032000025000000000000000000000000000000000000000000000000000000000000000000DEM       DEM Railroad Commissioner                               Chrysta Castaneda                     104                                                    01 
00060010005000122000020000059000043000000000000000000000000000000000000000000000000000000000000000000DEM       DEM Railroad Commissioner                               Chrysta Castaneda                     105                                                    01 
00060010006000060000011000029000020000000000000000000000000000000000000000000000000000000000000000000DEM       DEM Railroad Commissioner                               Chrysta Castaneda                     106                                                    01 
00060010007000102000015000048000039000000000000000000000000000000000000000000000000000000000000000000DEM       DEM Railroad Commissioner                               Chrysta Castaneda                     107                                                    01 
00060010008000092000002000046000044000000000000000000000000000000000000000000000000000000000000000000DEM       DEM Railroad Commissioner                               Chrysta Castaneda                     108                                                    01 
00060010009000074000013000035000026000000000000000000000000000000000000000000000000000000000000000000DEM       DEM Railroad Commissioner                               Chrysta Castaneda                     109                                                    01 
00060010010000215000030000087000098000000000000000000000000000000000000000000000000000000000000000000DEM       DEM Railroad Commissioner                               Chrysta Castaneda                     110                                                    01 
00060010011000059000013000026000020000000000000000000000000000000000000000000000000000000000000000000DEM       DEM Railroad Commissioner                               Chrysta Castaneda                     111                                                    01 
00060010012000036000004000012000020000000000000000000000000000000000000000000000000000000000000000000DEM       DEM Railroad Commissioner                               Chrysta Castaneda                     112                                                    01 
00060010013000053000023000018000012000000000000000000000000000000000000000000000000000000000000000000DEM       DEM Railroad Commissioner                               Chrysta Castaneda                     113                                                    01 
00060010014000064000023000021000020000000000000000000000000000000000000000000000000000000000000000000DEM       DEM Railroad Commissioner                               Chrysta Castaneda                     114                                                    01 
00060010015000049000007000022000020000000000000000000000000000000000000000000000000000000000000000000DEM       DEM Railroad Commissioner                               Chrysta Castaneda                     115                                                    01 
00060010016000040000005000016000019000000000000000000000000000000000000000000000000000000000000000000DEM       DEM Railroad Commissioner                               Chrysta Castaneda                     116                                                    01 
00060010017000032000011000008000013000000000000000000000000000000000000000000000000000000000000000000DEM       DEM Railroad Commissioner                               Chrysta Castaneda                     117                                                    01 
00060010018000081000029000029000023000000000000000000000000000000000000000000000000000000000000000000DEM       DEM Railroad Commissioner                               Chrysta Castaneda                     118                                                    01 
00060010019000022000004000011000007000000000000000000000000000000000000000000000000000000000000000000DEM       DEM Railroad Commissioner                               Chrysta Castaneda                     119                                                    01 
00060010020000002000001000001000000000000000000000000000000000000000000000000000000000000000000000000DEM       DEM Railroad Commissioner                               Chrysta Castaneda                     120                                                    01 
00060010021000040000008000012000020000000000000000000000000000000000000000000000000000000000000000000DEM       DEM Railroad Commissioner                               Chrysta Castaneda                     121                                                    01 
00060010022000017000003000007000007000000000000000000000000000000000000000000000000000000000000000000DEM       DEM Railroad Commissioner                               Chrysta Castaneda                     122                                                    01 
00060010023000023000009000007000007000000000000000000000000000000000000000000000000000000000000000000DEM       DEM Railroad Commissioner                               Chrysta Castaneda                     123                                                    01 
00060010024000040000007000018000015000000000000000000000000000000000000000000000000000000000000000000DEM       DEM Railroad Commissioner                               Chrysta Castaneda                     124                                                    01 
00060010025000059000017000017000025000000000000000000000000000000000000000000000000000000000000000000DEM       DEM Railroad Commissioner                               Chrysta Castaneda                     125                                                    01 
00060010026000014000002000007000005000000000000000000000000000000000000000000000000000000000000000000DEM       DEM Railroad Commissioner                               Chrysta Castaneda                     126                                                    01 
00060010027000010000006000003000001000000000000000000000000000000000000000000000000000000000000000000DEM       DEM Railroad Commissioner                               Chrysta Castaneda                     127                                                    01 
00060010028000002000000000001000001000000000000000000000000000000000000000000000000000000000000000000DEM       DEM Railroad Commissioner                               Chrysta Castaneda                     128                                                    01 
00060010029000012000002000003000007000000000000000000000000000000000000000000000000000000000000000000DEM       DEM Railroad Commissioner                               Chrysta Castaneda                     129                                                    01 
00060010030000004000002000000000002000000000000000000000000000000000000000000000000000000000000000000DEM       DEM Railroad Commissioner                               Chrysta Castaneda                     130                                                    01 
00060010031000028000004000005000019000000000000000000000000000000000000000000000000000000000000000000DEM       DEM Railroad Commissioner                               Chrysta Castaneda                     131                                                    01 
00060010032000003000002000000000001000000000000000000000000000000000000000000000000000000000000000000DEM       DEM Railroad Commissioner                               Chrysta Castaneda                     132                                                    01 
00060010033000005000001000004000000000000000000000000000000000000000000000000000000000000000000000000DEM       DEM Railroad Commissioner                               Chrysta Castaneda                     133                                                    01 
00060010034000011000001000007000003000000000000000000000000000000000000000000000000000000000000000000DEM       DEM Railroad Commissioner                               Chrysta Castaneda                     134                                                    01 
00060010035000054000012000019000023000000000000000000000000000000000000000000000000000000000000000000DEM       DEM Railroad Commissioner                               Chrysta Castaneda                     135                                                    01 
00060010036000012000002000008000002000000000000000000000000000000000000000000000000000000000000000000DEM       DEM Railroad Commissioner                               Chrysta Castaneda                     136                                                    01 
00060010037000027000005000014000008000000000000000000000000000000000000000000000000000000000000000000DEM       DEM Railroad Commissioner                               Chrysta Castaneda                     137                                                    01 
00060010038000023000001000012000010000000000000000000000000000000000000000000000000000000000000000000DEM       DEM Railroad Commissioner                               Chrysta Castaneda                     138                                                    01 
00060010039000021000006000003000012000000000000000000000000000000000000000000000000000000000000000000DEM       DEM Railroad Commissioner                               Chrysta Castaneda                     139                                                    01 
00060010040000154000019000081000054000000000000000000000000000000000000000000000000000000000000000000DEM       DEM Railroad Commissioner                               Chrysta Castaneda                     140                                                    01 
00060010041000051000011000021000019000000000000000000000000000000000000000000000000000000000000000000DEM       DEM Railroad Commissioner                               Chrysta Castaneda                     141                                                    01 
00060010042000045000011000026000008000000000000000000000000000000000000000000000000000000000000000000DEM       DEM Railroad Commissioner                               Chrysta Castaneda                     142                                                    01 
00060010043000074000011000030000033000000000000000000000000000000000000000000000000000000000000000000DEM       DEM Railroad Commissioner                               Chrysta Castaneda                     143                                                    01 
00060010044000175000018000081000076000000000000000000000000000000000000000000000000000000000000000000DEM       DEM Railroad Commissioner                               Chrysta Castaneda                     144                                                    01 
00060010045000172000024000097000051000000000000000000000000000000000000000000000000000000000000000000DEM       DEM Railroad Commissioner                               Chrysta Castaneda                     145                                                    01 
00060010046000092000007000047000038000000000000000000000000000000000000000000000000000000000000000000DEM       DEM Railroad Commissioner                               Chrysta Castaneda                     146                                                    01 
00060010047000090000016000040000034000000000000000000000000000000000000000000000000000000000000000000DEM       DEM Railroad Commissioner                               Chrysta Castaneda                     147                                                    01 
00060010048000077000013000021000043000000000000000000000000000000000000000000000000000000000000000000DEM       DEM Railroad Commissioner                               Chrysta Castaneda                     148                                                    01 
00060010049000025000004000007000014000000000000000000000000000000000000000000000000000000000000000000DEM       DEM Railroad Commissioner                               Chrysta Castaneda                     149                                                    01 
00060020001000058000006000027000025000000000000000000000000000000000000000000000000000000000000000000DEM       DEM Railroad Commissioner                               Roberto R. "Beto" Alonzo              101                                                    01 
00060020002000033000002000016000015000000000000000000000000000000000000000000000000000000000000000000DEM       DEM Railroad Commissioner                               Roberto R. "Beto" Alonzo              102                                                    01 
00060020003000060000007000028000025000000000000000000000000000000000000000000000000000000000000000000DEM       DEM Railroad Commissioner                               Roberto R. "Beto" Alonzo              103                                                    01 
00060020004000048000003000026000019000000000000000000000000000000000000000000000000000000000000000000DEM       DEM Railroad Commissioner                               Roberto R. "Beto" Alonzo              104                                                    01 
00060020005000077000015000033000029000000000000000000000000000000000000000000000000000000000000000000DEM       DEM Railroad Commissioner                               Roberto R. "Beto" Alonzo              105                                                    01 
00060020006000026000001000010000015000000000000000000000000000000000000000000000000000000000000000000DEM       DEM Railroad Commissioner                               Roberto R. "Beto" Alonzo              106                                                    01 
00060020007000064000010000035000019000000000000000000000000000000000000000000000000000000000000000000DEM       DEM Railroad Commissioner                               Roberto R. "Beto" Alonzo              107                                                    01 
00060020008000048000010000018000020000000000000000000000000000000000000000000000000000000000000000000DEM       DEM Railroad Commissioner                               Roberto R. "Beto" Alonzo              108                                                    01 
00060020009000039000004000016000019000000000000000000000000000000000000000000000000000000000000000000DEM       DEM Railroad Commissioner                               Roberto R. "Beto" Alonzo              109                                                    01 
00060020010000185000022000074000089000000000000000000000000000000000000000000000000000000000000000000DEM       DEM Railroad Commissioner                               Roberto R. "Beto" Alonzo              110                                                    01 
00060020011000034000004000012000018000000000000000000000000000000000000000000000000000000000000000000DEM       DEM Railroad Commissioner                               Roberto R. "Beto" Alonzo              111                                                    01 
00060020012000018000008000004000006000000000000000000000000000000000000000000000000000000000000000000DEM       DEM Railroad Commissioner                               Roberto R. "Beto" Alonzo              112                                                    01 
00060020013000072000015000024000033000000000000000000000000000000000000000000000000000000000000000000DEM       DEM Railroad Commissioner                               Roberto R. "Beto" Alonzo              113                                                    01 
00060020014000019000004000008000007000000000000000000000000000000000000000000000000000000000000000000DEM       DEM Railroad Commissioner                               Roberto R. "Beto" Alonzo              114                                                    01 
00060020015000034000008000015000011000000000000000000000000000000000000000000000000000000000000000000DEM       DEM Railroad Commissioner                               Roberto R. "Beto" Alonzo              115                                                    01 
00060020016000021000004000011000006000000000000000000000000000000000000000000000000000000000000000000DEM       DEM Railroad Commissioner                               Roberto R. "Beto" Alonzo              116                                                    01 
00060020017000020000007000007000006000000000000000000000000000000000000000000000000000000000000000000DEM       DEM Railroad Commissioner                               Roberto R. "Beto" Alonzo              117                                                    01 
00060020018000027000008000013000006000000000000000000000000000000000000000000000000000000000000000000DEM       DEM Railroad Commissioner                               Roberto R. "Beto" Alonzo              118                                                    01 
00060020019000024000007000011000006000000000000000000000000000000000000000000000000000000000000000000DEM       DEM Railroad Commissioner                               Roberto R. "Beto" Alonzo              119                                                    01 
00060020020000002000001000000000001000000000000000000000000000000000000000000000000000000000000000000DEM       DEM Railroad Commissioner                               Roberto R. "Beto" Alonzo              120                                                    01 
00060020021000021000009000006000006000000000000000000000000000000000000000000000000000000000000000000DEM       DEM Railroad Commissioner                               Roberto R. "Beto" Alonzo              121                                                    01 
00060020022000017000005000008000004000000000000000000000000000000000000000000000000000000000000000000DEM       DEM Railroad Commissioner                               Roberto R. "Beto" Alonzo              122                                                    01 
00060020023000031000012000006000013000000000000000000000000000000000000000000000000000000000000000000DEM       DEM Railroad Commissioner                               Roberto R. "Beto" Alonzo              123                                                    01 
00060020024000036000009000015000012000000000000000000000000000000000000000000000000000000000000000000DEM       DEM Railroad Commissioner                               Roberto R. "Beto" Alonzo              124                                                    01 
00060020025000033000010000009000014000000000000000000000000000000000000000000000000000000000000000000DEM       DEM Railroad Commissioner                               Roberto R. "Beto" Alonzo              125                                                    01 
00060020026000004000001000002000001000000000000000000000000000000000000000000000000000000000000000000DEM       DEM Railroad Commissioner                               Roberto R. "Beto" Alonzo              126                                                    01 
00060020027000005000003000000000002000000000000000000000000000000000000000000000000000000000000000000DEM       DEM Railroad Commissioner                               Roberto R. "Beto" Alonzo              127                                                    01 
00060020028000003000000000001000002000000000000000000000000000000000000000000000000000000000000000000DEM       DEM Railroad Commissioner                               Roberto R. "Beto" Alonzo              128                                                    01 
00060020029000008000001000004000003000000000000000000000000000000000000000000000000000000000000000000DEM       DEM Railroad Commissioner                               Roberto R. "Beto" Alonzo              129                                                    01 
00060020030000010000000000000000010000000000000000000000000000000000000000000000000000000000000000000DEM       DEM Railroad Commissioner                               Roberto R. "Beto" Alonzo              130                                                    01 
00060020031000036000001000005000030000000000000000000000000000000000000000000000000000000000000000000DEM       DEM Railroad Commissioner                               Roberto R. "Beto" Alonzo              131                                                    01 
00060020032000003000000000002000001000000000000000000000000000000000000000000000000000000000000000000DEM       DEM Railroad Commissioner                               Roberto R. "Beto" Alonzo              132                                                    01 
00060020033000009000002000005000002000000000000000000000000000000000000000000000000000000000000000000DEM       DEM Railroad Commissioner                               Roberto R. "Beto" Alonzo              133                                                    01 
00060020034000006000000000002000004000000000000000000000000000000000000000000000000000000000000000000DEM       DEM Railroad Commissioner                               Roberto R. "Beto" Alonzo              134                                                    01 
00060020035000014000004000002000008000000000000000000000000000000000000000000000000000000000000000000DEM       DEM Railroad Commissioner                               Roberto R. "Beto" Alonzo              135                                                    01 
00060020036000002000000000001000001000000000000000000000000000000000000000000000000000000000000000000DEM       DEM Railroad Commissioner                               Roberto R. "Beto" Alonzo              136                                                    01 
00060020037000012000003000003000006000000000000000000000000000000000000000000000000000000000000000000DEM       DEM Railroad Commissioner                               Roberto R. "Beto" Alonzo              137                                                    01 
00060020038000016000000000007000009000000000000000000000000000000000000000000000000000000000000000000DEM       DEM Railroad Commissioner                               Roberto R. "Beto" Alonzo              138                                                    01 
00060020039000013000006000002000005000000000000000000000000000000000000000000000000000000000000000000DEM       DEM Railroad Commissioner                               Roberto R. "Beto" Alonzo              139                                                    01 
00060020040000119000009000048000062000000000000000000000000000000000000000000000000000000000000000000DEM       DEM Railroad Commissioner                               Roberto R. "Beto" Alonzo              140                                                    01 
00060020041000025000002000009000014000000000000000000000000000000000000000000000000000000000000000000DEM       DEM Railroad Commissioner                               Roberto R. "Beto" Alonzo              141                                                    01 
00060020042000025000003000014000008000000000000000000000000000000000000000000000000000000000000000000DEM       DEM Railroad Commissioner                               Roberto R. "Beto" Alonzo              142                                                    01 
00060020043000048000002000021000025000000000000000000000000000000000000000000000000000000000000000000DEM       DEM Railroad Commissioner                               Roberto R. "Beto" Alonzo              143                                                    01 
00060020044000123000012000060000051000000000000000000000000000000000000000000000000000000000000000000DEM       DEM Railroad Commissioner                               Roberto R. "Beto" Alonzo              144                                                    01 
00060020045000133000016000056000061000000000000000000000000000000000000000000000000000000000000000000DEM       DEM Railroad Commissioner                               Roberto R. "Beto" Alonzo              145                                                    01 
00060020046000060000010000030000020000000000000000000000000000000000000000000000000000000000000000000DEM       DEM Railroad Commissioner                               Roberto R. "Beto" Alonzo              146                                                    01 
00060020047000066000014000027000025000000000000000000000000000000000000000000000000000000000000000000DEM       DEM Railroad Commissioner                               Roberto R. "Beto" Alonzo              147                                                    01 
00060020048000064000010000018000036000000000000000000000000000000000000000000000000000000000000000000DEM       DEM Railroad Commissioner                               Roberto R. "Beto" Alonzo              148                                                    01 
00060020049000022000002000009000011000000000000000000000000000000000000000000000000000000000000000000DEM       DEM Railroad Commissioner                               Roberto R. "Beto" Alonzo              149                                                    01 
