00010010001010959000000000000000000000000000000000000000000000000000000000000000000000000000000000000          REGISTERED VOTERS - TOTAL                               REGISTERED VOTERS - TOTAL             101                                                    00 
00010010002013224000000000000000000000000000000000000000000000000000000000000000000000000000000000000          REGISTERED VOTERS - TOTAL                               REGISTERED VOTERS - TOTAL             102                                                    00 
00010010003014655000000000000000000000000000000000000000000000000000000000000000000000000000000000000          REGISTERED VOTERS - TOTAL                               REGISTERED VOTERS - TOTAL             103                                                    00 
00010010004011046000000000000000000000000000000000000000000000000000000000000000000000000000000000000          REGISTERED VOTERS - TOTAL                               REGISTERED VOTERS - TOTAL             104                                                    00 
00010010005014421000000000000000000000000000000000000000000000000000000000000000000000000000000000000          REGISTERED VOTERS - TOTAL                               REGISTERED VOTERS - TOTAL             105                                                    00 
00010010006009759000000000000000000000000000000000000000000000000000000000000000000000000000000000000          REGISTERED VOTERS - TOTAL                               REGISTERED VOTERS - TOTAL             106                                                    00 
00010010007011085000000000000000000000000000000000000000000000000000000000000000000000000000000000000          REGISTERED VOTERS - TOTAL                               REGISTERED VOTERS - TOTAL             107                                                    00 
00010010008010011000000000000000000000000000000000000000000000000000000000000000000000000000000000000          REGISTERED VOTERS - TOTAL                               REGISTERED VOTERS - TOTAL             108                                                    00 
00010010009005769000000000000000000000000000000000000000000000000000000000000000000000000000000000000          REGISTERED VOTERS - TOTAL                               REGISTERED VOTERS - TOTAL             109                                                    00 
00010010010013662000000000000000000000000000000000000000000000000000000000000000000000000000000000000          REGISTERED VOTERS - TOTAL                               REGISTERED VOTERS - TOTAL             110                                                    00 
00010010011007086000000000000000000000000000000000000000000000000000000000000000000000000000000000000          REGISTERED VOTERS - TOTAL                               REGISTERED VOTERS - TOTAL             111                                                    00 
00010010012005868000000000000000000000000000000000000000000000000000000000000000000000000000000000000          REGISTERED VOTERS - TOTAL                               REGISTERED VOTERS - TOTAL             112                                                    00 
00010010013006129000000000000000000000000000000000000000000000000000000000000000000000000000000000000          REGISTERED VOTERS - TOTAL                               REGISTERED VOTERS - TOTAL             113                                                    00 
00010010014006591000000000000000000000000000000000000000000000000000000000000000000000000000000000000          REGISTERED VOTERS - TOTAL                               REGISTERED VOTERS - TOTAL             114                                                    00 
00010010015005580000000000000000000000000000000000000000000000000000000000000000000000000000000000000          REGISTERED VOTERS - TOTAL                               REGISTERED VOTERS - TOTAL             115                                                    00 
00010010016006402000000000000000000000000000000000000000000000000000000000000000000000000000000000000          REGISTERED VOTERS - TOTAL                               REGISTERED VOTERS - TOTAL             116                                                    00 
00010010017008028000000000000000000000000000000000000000000000000000000000000000000000000000000000000          REGISTERED VOTERS - TOTAL                               REGISTERED VOTERS - TOTAL             117                                                    00 
00010010018008535000000000000000000000000000000000000000000000000000000000000000000000000000000000000          REGISTERED VOTERS - TOTAL                               REGISTERED VOTERS - TOTAL             118                                                    00 
00010010019004455000000000000000000000000000000000000000000000000000000000000000000000000000000000000          REGISTERED VOTERS - TOTAL                               REGISTERED VOTERS - TOTAL             119                                                    00 
00010010020001977000000000000000000000000000000000000000000000000000000000000000000000000000000000000          REGISTERED VOTERS - TOTAL                               REGISTERED VOTERS - TOTAL             120                                                    00 
00010010021006741000000000000000000000000000000000000000000000000000000000000000000000000000000000000          REGISTERED VOTERS - TOTAL                               REGISTERED VOTERS - TOTAL             121                                                    00 
00010010022003729000000000000000000000000000000000000000000000000000000000000000000000000000000000000          REGISTERED VOTERS - TOTAL                               REGISTERED VOTERS - TOTAL             122                                                    00 
00010010023003090000000000000000000000000000000000000000000000000000000000000000000000000000000000000          REGISTERED VOTERS - TOTAL                               REGISTERED VOTERS - TOTAL             123                                                    00 
00010010024005220000000000000000000000000000000000000000000000000000000000000000000000000000000000000          REGISTERED VOTERS - TOTAL                               REGISTERED VOTERS - TOTAL             124                                                    00 
00010010025012276000000000000000000000000000000000000000000000000000000000000000000000000000000000000          REGISTERED VOTERS - TOTAL                               REGISTERED VOTERS - TOTAL             125                                                    00 
00010010026003276000000000000000000000000000000000000000000000000000000000000000000000000000000000000          REGISTERED VOTERS - TOTAL                               REGISTERED VOTERS - TOTAL             126                                                    00 
00010010027001398000000000000000000000000000000000000000000000000000000000000000000000000000000000000          REGISTERED VOTERS - TOTAL                               REGISTERED VOTERS - TOTAL             127                                                    00 
00010010028000618000000000000000000000000000000000000000000000000000000000000000000000000000000000000          REGISTERED VOTERS - TOTAL                               REGISTERED VOTERS - TOTAL             128                                                    00 
00010010029002451000000000000000000000000000000000000000000000000000000000000000000000000000000000000          REGISTERED VOTERS - TOTAL                               REGISTERED VOTERS - TOTAL             129                                                    00 
00010010030001962000000000000000000000000000000000000000000000000000000000000000000000000000000000000          REGISTERED VOTERS - TOTAL                               REGISTERED VOTERS - TOTAL             130                                                    00 
00010010031005745000000000000000000000000000000000000000000000000000000000000000000000000000000000000          REGISTERED VOTERS - TOTAL                               REGISTERED VOTERS - TOTAL             131                                                    00 
00010010032001917000000000000000000000000000000000000000000000000000000000000000000000000000000000000          REGISTERED VOTERS - TOTAL                               REGISTERED VOTERS - TOTAL             132                                                    00 
00010010033001833000000000000000000000000000000000000000000000000000000000000000000000000000000000000          REGISTERED VOTERS - TOTAL                               REGISTERED VOTERS - TOTAL             133                                                    00 
00010010034002244000000000000000000000000000000000000000000000000000000000000000000000000000000000000          REGISTERED VOTERS - TOTAL                               REGISTERED VOTERS - TOTAL             134                                                    00 
00010010035011967000000000000000000000000000000000000000000000000000000000000000000000000000000000000          REGISTERED VOTERS - TOTAL                               REGISTERED VOTERS - TOTAL             135                                                    00 
00010010036001539000000000000000000000000000000000000000000000000000000000000000000000000000000000000          REGISTERED VOTERS - TOTAL                               REGISTERED VOTERS - TOTAL             136                                                    00 
00010010037003687000000000000000000000000000000000000000000000000000000000000000000000000000000000000          REGISTERED VOTERS - TOTAL                               REGISTERED VOTERS - TOTAL             137                                                    00 
00010010038006297000000000000000000000000000000000000000000000000000000000000000000000000000000000000          REGISTERED VOTERS - TOTAL                               REGISTERED VOTERS - TOTAL             138                                                    00 
00010010039003129000000000000000000000000000000000000000000000000000000000000000000000000000000000000          REGISTERED VOTERS - TOTAL                               REGISTERED VOTERS - TOTAL             139                                                    00 
00010010040016653000000000000000000000000000000000000000000000000000000000000000000000000000000000000          REGISTERED VOTERS - TOTAL                               REGISTERED VOTERS - TOTAL             140                                                    00 
00010010041005982000000000000000000000000000000000000000000000000000000000000000000000000000000000000          REGISTERED VOTERS - TOTAL                               REGISTERED VOTERS - TOTAL             141                                                    00 
00010010042006669000000000000000000000000000000000000000000000000000000000000000000000000000000000000          REGISTERED VOTERS - TOTAL                               REGISTERED VOTERS - TOTAL             142                                                    00 
00010010043009000000000000000000000000000000000000000000000000000000000000000000000000000000000000000          REGISTERED VOTERS - TOTAL                               REGISTERED VOTERS - TOTAL             143                                                    00 
00010010044006291000000000000000000000000000000000000000000000000000000000000000000000000000000000000          REGISTERED VOTERS - TOTAL                               REGISTERED VOTERS - TOTAL             144                                                    00 
00010010045011742000000000000000000000000000000000000000000000000000000000000000000000000000000000000          REGISTERED VOTERS - TOTAL                               REGISTERED VOTERS - TOTAL             145                                                    00 
00010010046008619000000000000000000000000000000000000000000000000000000000000000000000000000000000000          REGISTERED VOTERS - TOTAL                               REGISTERED VOTERS - TOTAL             146                                                    00 
00010010047012321000000000000000000000000000000000000000000000000000000000000000000000000000000000000          REGISTERED VOTERS - TOTAL                               REGISTERED VOTERS - TOTAL             147                                                    00 
00010010048008532000000000000000000000000000000000000000000000000000000000000000000000000000000000000          REGISTERED VOTERS - TOTAL                               REGISTERED VOTERS - TOTAL             148                                                    00 
00010010049004509000000000000000000000000000000000000000000000000000000000000000000000000000000000000          REGISTERED VOTERS - TOTAL                               REGISTERED VOTERS - TOTAL             149                                                    00 
00040010001000188000033000084000071000000000000000000000000000000000000000000000000000000000000000000REP       BALLOTS CAST - Republican Party                         BALLOTS CAST - Republican Party       101                                                    00 
00040010002000251000033000119000099000000000000000000000000000000000000000000000000000000000000000000REP       BALLOTS CAST - Republican Party                         BALLOTS CAST - Republican Party       102                                                    00 
00040010003000250000025000110000115000000000000000000000000000000000000000000000000000000000000000000REP       BALLOTS CAST - Republican Party                         BALLOTS CAST - Republican Party       103                                                    00 
00040010004000257000015000142000100000000000000000000000000000000000000000000000000000000000000000000REP       BALLOTS CAST - Republican Party                         BALLOTS CAST - Republican Party       104                                                    00 
00040010005000326000031000203000092000000000000000000000000000000000000000000000000000000000000000000REP       BALLOTS CAST - Republican Party                         BALLOTS CAST - Republican Party       105                                                    00 
00040010006000275000034000156000085000000000000000000000000000000000000000000000000000000000000000000REP       BALLOTS CAST - Republican Party                         BALLOTS CAST - Republican Party       106                                                    00 
00040010007000225000025000115000085000000000000000000000000000000000000000000000000000000000000000000REP       BALLOTS CAST - Republican Party                         BALLOTS CAST - Republican Party       107                                                    00 
00040010008000265000033000115000117000000000000000000000000000000000000000000000000000000000000000000REP       BALLOTS CAST - Republican Party                         BALLOTS CAST - Republican Party       108                                                    00 
00040010009000138000030000053000055000000000000000000000000000000000000000000000000000000000000000000REP       BALLOTS CAST - Republican Party                         BALLOTS CAST - Republican Party       109                                                    00 
00040010010000190000033000081000076000000000000000000000000000000000000000000000000000000000000000000REP       BALLOTS CAST - Republican Party                         BALLOTS CAST - Republican Party       110                                                    00 
00040010011000242000040000125000077000000000000000000000000000000000000000000000000000000000000000000REP       BALLOTS CAST - Republican Party                         BALLOTS CAST - Republican Party       111                                                    00 
00040010012000215000022000109000084000000000000000000000000000000000000000000000000000000000000000000REP       BALLOTS CAST - Republican Party                         BALLOTS CAST - Republican Party       112                                                    00 
00040010013000036000001000020000015000000000000000000000000000000000000000000000000000000000000000000REP       BALLOTS CAST - Republican Party                         BALLOTS CAST - Republican Party       113                                                    00 
00040010014000180000029000087000064000000000000000000000000000000000000000000000000000000000000000000REP       BALLOTS CAST - Republican Party                         BALLOTS CAST - Republican Party       114                                                    00 
00040010015000097000016000037000044000000000000000000000000000000000000000000000000000000000000000000REP       BALLOTS CAST - Republican Party                         BALLOTS CAST - Republican Party       115                                                    00 
00040010016000190000027000089000074000000000000000000000000000000000000000000000000000000000000000000REP       BALLOTS CAST - Republican Party                         BALLOTS CAST - Republican Party       116                                                    00 
00040010017000171000026000083000062000000000000000000000000000000000000000000000000000000000000000000REP       BALLOTS CAST - Republican Party                         BALLOTS CAST - Republican Party       117                                                    00 
00040010018000269000080000121000068000000000000000000000000000000000000000000000000000000000000000000REP       BALLOTS CAST - Republican Party                         BALLOTS CAST - Republican Party       118                                                    00 
00040010019000153000011000090000052000000000000000000000000000000000000000000000000000000000000000000REP       BALLOTS CAST - Republican Party                         BALLOTS CAST - Republican Party       119                                                    00 
00040010020000029000005000015000009000000000000000000000000000000000000000000000000000000000000000000REP       BALLOTS CAST - Republican Party                         BALLOTS CAST - Republican Party       120                                                    00 
00040010021000111000019000052000040000000000000000000000000000000000000000000000000000000000000000000REP       BALLOTS CAST - Republican Party                         BALLOTS CAST - Republican Party       121                                                    00 
00040010022000085000020000042000023000000000000000000000000000000000000000000000000000000000000000000REP       BALLOTS CAST - Republican Party                         BALLOTS CAST - Republican Party       122                                                    00 
00040010023000010000000000008000002000000000000000000000000000000000000000000000000000000000000000000REP       BALLOTS CAST - Republican Party                         BALLOTS CAST - Republican Party       123                                                    00 
00040010024000025000005000012000008000000000000000000000000000000000000000000000000000000000000000000REP       BALLOTS CAST - Republican Party                         BALLOTS CAST - Republican Party       124                                                    00 
00040010025000198000022000100000076000000000000000000000000000000000000000000000000000000000000000000REP       BALLOTS CAST - Republican Party                         BALLOTS CAST - Republican Party       125                                                    00 
00040010026000047000013000024000010000000000000000000000000000000000000000000000000000000000000000000REP       BALLOTS CAST - Republican Party                         BALLOTS CAST - Republican Party       126                                                    00 
00040010027000016000003000012000001000000000000000000000000000000000000000000000000000000000000000000REP       BALLOTS CAST - Republican Party                         BALLOTS CAST - Republican Party       127                                                    00 
00040010028000002000000000002000000000000000000000000000000000000000000000000000000000000000000000000REP       BALLOTS CAST - Republican Party                         BALLOTS CAST - Republican Party       128                                                    00 
00040010029000048000004000018000026000000000000000000000000000000000000000000000000000000000000000000REP       BALLOTS CAST - Republican Party                         BALLOTS CAST - Republican Party       129                                                    00 
00040010030000043000006000011000026000000000000000000000000000000000000000000000000000000000000000000REP       BALLOTS CAST - Republican Party                         BALLOTS CAST - Republican Party       130                                                    00 
00040010031000137000012000034000091000000000000000000000000000000000000000000000000000000000000000000REP       BALLOTS CAST - Republican Party                         BALLOTS CAST - Republican Party       131                                                    00 
00040010032000039000009000013000017000000000000000000000000000000000000000000000000000000000000000000REP       BALLOTS CAST - Republican Party                         BALLOTS CAST - Republican Party       132                                                    00 
00040010033000058000010000032000016000000000000000000000000000000000000000000000000000000000000000000REP       BALLOTS CAST - Republican Party                         BALLOTS CAST - Republican Party       133                                                    00 
00040010034000085000010000053000022000000000000000000000000000000000000000000000000000000000000000000REP       BALLOTS CAST - Republican Party                         BALLOTS CAST - Republican Party       134                                                    00 
00040010035000410000038000161000211000000000000000000000000000000000000000000000000000000000000000000REP       BALLOTS CAST - Republican Party                         BALLOTS CAST - Republican Party       135                                                    00 
00040010036000035000003000025000007000000000000000000000000000000000000000000000000000000000000000000REP       BALLOTS CAST - Republican Party                         BALLOTS CAST - Republican Party       136                                                    00 
00040010037000069000012000045000012000000000000000000000000000000000000000000000000000000000000000000REP       BALLOTS CAST - Republican Party                         BALLOTS CAST - Republican Party       137                                                    00 
00040010038000135000009000070000056000000000000000000000000000000000000000000000000000000000000000000REP       BALLOTS CAST - Republican Party                         BALLOTS CAST - Republican Party       138                                                    00 
00040010039000115000015000067000033000000000000000000000000000000000000000000000000000000000000000000REP       BALLOTS CAST - Republican Party                         BALLOTS CAST - Republican Party       139                                                    00 
00040010040000393000073000174000146000000000000000000000000000000000000000000000000000000000000000000REP       BALLOTS CAST - Republican Party                         BALLOTS CAST - Republican Party       140                                                    00 
00040010041000161000026000071000064000000000000000000000000000000000000000000000000000000000000000000REP       BALLOTS CAST - Republican Party                         BALLOTS CAST - Republican Party       141                                                    00 
00040010042000164000020000082000062000000000000000000000000000000000000000000000000000000000000000000REP       BALLOTS CAST - Republican Party                         BALLOTS CAST - Republican Party       142                                                    00 
00040010043000207000034000106000067000000000000000000000000000000000000000000000000000000000000000000REP       BALLOTS CAST - Republican Party                         BALLOTS CAST - Republican Party       143                                                    00 
00040010044000066000006000035000025000000000000000000000000000000000000000000000000000000000000000000REP       BALLOTS CAST - Republican Party                         BALLOTS CAST - Republican Party       144                                                    00 
00040010045000130000030000046000054000000000000000000000000000000000000000000000000000000000000000000REP       BALLOTS CAST - Republican Party                         BALLOTS CAST - Republican Party       145                                                    00 
00040010046000117000022000049000046000000000000000000000000000000000000000000000000000000000000000000REP       BALLOTS CAST - Republican Party                         BALLOTS CAST - Republican Party       146                                                    00 
00040010047000208000034000091000083000000000000000000000000000000000000000000000000000000000000000000REP       BALLOTS CAST - Republican Party                         BALLOTS CAST - Republican Party       147                                                    00 
00040010048000101000014000029000058000000000000000000000000000000000000000000000000000000000000000000REP       BALLOTS CAST - Republican Party                         BALLOTS CAST - Republican Party       148                                                    00 
00040010049000085000007000035000043000000000000000000000000000000000000000000000000000000000000000000REP       BALLOTS CAST - Republican Party                         BALLOTS CAST - Republican Party       149                                                    00 
00050010001000124000022000052000050000000000000000000000000000000000000000000000000000000000000000000REP       REP Sheriff                                             Brad Norman                           101                                                    01 
00050010002000168000019000092000057000000000000000000000000000000000000000000000000000000000000000000REP       REP Sheriff                                             Brad Norman                           102                                                    01 
00050010003000171000020000074000077000000000000000000000000000000000000000000000000000000000000000000REP       REP Sheriff                                             Brad Norman                           103                                                    01 
00050010004000173000010000096000067000000000000000000000000000000000000000000000000000000000000000000REP       REP Sheriff                                             Brad Norman                           104                                                    01 
00050010005000219000022000123000074000000000000000000000000000000000000000000000000000000000000000000REP       REP Sheriff                                             Brad Norman                           105                                                    01 
00050010006000161000020000095000046000000000000000000000000000000000000000000000000000000000000000000REP       REP Sheriff                                             Brad Norman                           106                                                    01 
00050010007000130000015000068000047000000000000000000000000000000000000000000000000000000000000000000REP       REP Sheriff                                             Brad Norman                           107                                                    01 
00050010008000156000019000076000061000000000000000000000000000000000000000000000000000000000000000000REP       REP Sheriff                                             Brad Norman                           108                                                    01 
00050010009000087000018000038000031000000000000000000000000000000000000000000000000000000000000000000REP       REP Sheriff                                             Brad Norman                           109                                                    01 
00050010010000110000025000041000044000000000000000000000000000000000000000000000000000000000000000000REP       REP Sheriff                                             Brad Norman                           110                                                    01 
00050010011000140000023000075000042000000000000000000000000000000000000000000000000000000000000000000REP       REP Sheriff                                             Brad Norman                           111                                                    01 
00050010012000112000009000054000049000000000000000000000000000000000000000000000000000000000000000000REP       REP Sheriff                                             Brad Norman                           112                                                    01 
00050010013000027000001000016000010000000000000000000000000000000000000000000000000000000000000000000REP       REP Sheriff                                             Brad Norman                           113                                                    01 
00050010014000092000018000046000028000000000000000000000000000000000000000000000000000000000000000000REP       REP Sheriff                                             Brad Norman                           114                                                    01 
00050010015000059000008000021000030000000000000000000000000000000000000000000000000000000000000000000REP       REP Sheriff                                             Brad Norman                           115                                                    01 
00050010016000101000010000051000040000000000000000000000000000000000000000000000000000000000000000000REP       REP Sheriff                                             Brad Norman                           116                                                    01 
00050010017000085000008000044000033000000000000000000000000000000000000000000000000000000000000000000REP       REP Sheriff                                             Brad Norman                           117                                                    01 
00050010018000128000030000064000034000000000000000000000000000000000000000000000000000000000000000000REP       REP Sheriff                                             Brad Norman                           118                                                    01 
00050010019000082000008000050000024000000000000000000000000000000000000000000000000000000000000000000REP       REP Sheriff                                             Brad Norman                           119                                                    01 
00050010020000016000003000008000005000000000000000000000000000000000000000000000000000000000000000000REP       REP Sheriff                                             Brad Norman                           120                                                    01 
00050010021000057000008000031000018000000000000000000000000000000000000000000000000000000000000000000REP       REP Sheriff                                             Brad Norman                           121                                                    01 
00050010022000050000010000030000010000000000000000000000000000000000000000000000000000000000000000000REP       REP Sheriff                                             Brad Norman                           122                                                    01 
00050010023000006000000000005000001000000000000000000000000000000000000000000000000000000000000000000REP       REP Sheriff                                             Brad Norman                           123                                                    01 
00050010024000013000003000008000002000000000000000000000000000000000000000000000000000000000000000000REP       REP Sheriff                                             Brad Norman                           124                                                    01 
00050010025000096000011000049000036000000000000000000000000000000000000000000000000000000000000000000REP       REP Sheriff                                             Brad Norman                           125                                                    01 
00050010026000024000002000015000007000000000000000000000000000000000000000000000000000000000000000000REP       REP Sheriff                                             Brad Norman                           126                                                    01 
00050010027000008000001000007000000000000000000000000000000000000000000000000000000000000000000000000REP       REP Sheriff                                             Brad Norman                           127                                                    01 
00050010028000001000000000001000000000000000000000000000000000000000000000000000000000000000000000000REP       REP Sheriff                                             Brad Norman                           128                                                    01 
00050010029000030000003000009000018000000000000000000000000000000000000000000000000000000000000000000REP       REP Sheriff                                             Brad Norman                           129                                                    01 
00050010030000010000001000002000007000000000000000000000000000000000000000000000000000000000000000000REP       REP Sheriff                                             Brad Norman                           130                                                    01 
00050010031000075000002000020000053000000000000000000000000000000000000000000000000000000000000000000REP       REP Sheriff                                             Brad Norman                           131                                                    01 
00050010032000017000005000004000008000000000000000000000000000000000000000000000000000000000000000000REP       REP Sheriff                                             Brad Norman                           132                                                    01 
00050010033000034000006000018000010000000000000000000000000000000000000000000000000000000000000000000REP       REP Sheriff                                             Brad Norman                           133                                                    01 
00050010034000052000004000041000007000000000000000000000000000000000000000000000000000000000000000000REP       REP Sheriff                                             Brad Norman                           134                                                    01 
00050010035000245000023000107000115000000000000000000000000000000000000000000000000000000000000000000REP       REP Sheriff                                             Brad Norman                           135                                                    01 
00050010036000014000000000011000003000000000000000000000000000000000000000000000000000000000000000000REP       REP Sheriff                                             Brad Norman                           136                                                    01 
00050010037000040000009000024000007000000000000000000000000000000000000000000000000000000000000000000REP       REP Sheriff                                             Brad Norman                           137                                                    01 
00050010038000076000002000048000026000000000000000000000000000000000000000000000000000000000000000000REP       REP Sheriff                                             Brad Norman                           138                                                    01 
00050010039000052000005000034000013000000000000000000000000000000000000000000000000000000000000000000REP       REP Sheriff                                             Brad Norman                           139                                                    01 
00050010040000205000036000092000077000000000000000000000000000000000000000000000000000000000000000000REP       REP Sheriff                                             Brad Norman                           140                                                    01 
00050010041000083000013000036000034000000000000000000000000000000000000000000000000000000000000000000REP       REP Sheriff                                             Brad Norman                           141                                                    01 
00050010042000106000012000062000032000000000000000000000000000000000000000000000000000000000000000000REP       REP Sheriff                                             Brad Norman                           142                                                    01 
00050010043000118000014000066000038000000000000000000000000000000000000000000000000000000000000000000REP       REP Sheriff                                             Brad Norman                           143                                                    01 
00050010044000050000006000024000020000000000000000000000000000000000000000000000000000000000000000000REP       REP Sheriff                                             Brad Norman                           144                                                    01 
00050010045000098000021000035000042000000000000000000000000000000000000000000000000000000000000000000REP       REP Sheriff                                             Brad Norman                           145                                                    01 
00050010046000076000014000034000028000000000000000000000000000000000000000000000000000000000000000000REP       REP Sheriff                                             Brad Norman                           146                                                    01 
00050010047000138000020000069000049000000000000000000000000000000000000000000000000000000000000000000REP       REP Sheriff                                             Brad Norman                           147                                                    01 
00050010048000057000009000014000034000000000000000000000000000000000000000000000000000000000000000000REP       REP Sheriff                                             Brad Norman                           148                                                    01 
00050010049000058000003000023000032000000000000000000000000000000000000000000000000000000000000000000REP       REP Sheriff                                             Brad Norman                           149                                                    01 
00050020001000063000011000031000021000000000000000000000000000000000000000000000000000000000000000000REP       REP Sheriff                                             Chuck Edge                            101                                                    01 
00050020002000083000014000027000042000000000000000000000000000000000000000000000000000000000000000000REP       REP Sheriff                                             Chuck Edge                            102                                                    01 
00050020003000074000005000033000036000000000000000000000000000000000000000000000000000000000000000000REP       REP Sheriff                                             Chuck Edge                            103                                                    01 
00050020004000083000005000045000033000000000000000000000000000000000000000000000000000000000000000000REP       REP Sheriff                                             Chuck Edge                            104                                                    01 
00050020005000106000008000080000018000000000000000000000000000000000000000000000000000000000000000000REP       REP Sheriff                                             Chuck Edge                            105                                                    01 
00050020006000114000014000061000039000000000000000000000000000000000000000000000000000000000000000000REP       REP Sheriff                                             Chuck Edge                            106                                                    01 
00050020007000094000010000047000037000000000000000000000000000000000000000000000000000000000000000000REP       REP Sheriff                                             Chuck Edge                            107                                                    01 
00050020008000108000013000039000056000000000000000000000000000000000000000000000000000000000000000000REP       REP Sheriff                                             Chuck Edge                            108                                                    01 
00050020009000051000012000015000024000000000000000000000000000000000000000000000000000000000000000000REP       REP Sheriff                                             Chuck Edge                            109                                                    01 
00050020010000079000007000040000032000000000000000000000000000000000000000000000000000000000000000000REP       REP Sheriff                                             Chuck Edge                            110                                                    01 
00050020011000101000017000049000035000000000000000000000000000000000000000000000000000000000000000000REP       REP Sheriff                                             Chuck Edge                            111                                                    01 
00050020012000102000013000054000035000000000000000000000000000000000000000000000000000000000000000000REP       REP Sheriff                                             Chuck Edge                            112                                                    01 
00050020013000009000000000004000005000000000000000000000000000000000000000000000000000000000000000000REP       REP Sheriff                                             Chuck Edge                            113                                                    01 
00050020014000084000011000037000036000000000000000000000000000000000000000000000000000000000000000000REP       REP Sheriff                                             Chuck Edge                            114                                                    01 
00050020015000038000008000016000014000000000000000000000000000000000000000000000000000000000000000000REP       REP Sheriff                                             Chuck Edge                            115                                                    01 
00050020016000088000017000038000033000000000000000000000000000000000000000000000000000000000000000000REP       REP Sheriff                                             Chuck Edge                            116                                                    01 
00050020017000086000018000039000029000000000000000000000000000000000000000000000000000000000000000000REP       REP Sheriff                                             Chuck Edge                            117                                                    01 
00050020018000138000049000056000033000000000000000000000000000000000000000000000000000000000000000000REP       REP Sheriff                                             Chuck Edge                            118                                                    01 
00050020019000071000003000040000028000000000000000000000000000000000000000000000000000000000000000000REP       REP Sheriff                                             Chuck Edge                            119                                                    01 
00050020020000013000002000007000004000000000000000000000000000000000000000000000000000000000000000000REP       REP Sheriff                                             Chuck Edge                            120                                                    01 
00050020021000054000011000021000022000000000000000000000000000000000000000000000000000000000000000000REP       REP Sheriff                                             Chuck Edge                            121                                                    01 
00050020022000035000010000012000013000000000000000000000000000000000000000000000000000000000000000000REP       REP Sheriff                                             Chuck Edge                            122                                                    01 
00050020023000004000000000003000001000000000000000000000000000000000000000000000000000000000000000000REP       REP Sheriff                                             Chuck Edge                            123                                                    01 
00050020024000012000002000004000006000000000000000000000000000000000000000000000000000000000000000000REP       REP Sheriff                                             Chuck Edge                            124                                                    01 
00050020025000099000011000050000038000000000000000000000000000000000000000000000000000000000000000000REP       REP Sheriff                                             Chuck Edge                            125                                                    01 
00050020026000022000011000008000003000000000000000000000000000000000000000000000000000000000000000000REP       REP Sheriff                                             Chuck Edge                            126                                                    01 
00050020027000007000001000005000001000000000000000000000000000000000000000000000000000000000000000000REP       REP Sheriff                                             Chuck Edge                            127                                                    01 
00050020028000001000000000001000000000000000000000000000000000000000000000000000000000000000000000000REP       REP Sheriff                                             Chuck Edge                            128                                                    01 
00050020029000018000001000009000008000000000000000000000000000000000000000000000000000000000000000000REP       REP Sheriff                                             Chuck Edge                            129                                                    01 
00050020030000033000005000009000019000000000000000000000000000000000000000000000000000000000000000000REP       REP Sheriff                                             Chuck Edge                            130                                                    01 
00050020031000062000010000014000038000000000000000000000000000000000000000000000000000000000000000000REP       REP Sheriff                                             Chuck Edge                            131                                                    01 
00050020032000022000004000009000009000000000000000000000000000000000000000000000000000000000000000000REP       REP Sheriff                                             Chuck Edge                            132                                                    01 
00050020033000024000004000014000006000000000000000000000000000000000000000000000000000000000000000000REP       REP Sheriff                                             Chuck Edge                            133                                                    01 
00050020034000032000005000012000015000000000000000000000000000000000000000000000000000000000000000000REP       REP Sheriff                                             Chuck Edge                            134                                                    01 
00050020035000165000015000054000096000000000000000000000000000000000000000000000000000000000000000000REP       REP Sheriff                                             Chuck Edge                            135                                                    01 
00050020036000021000003000014000004000000000000000000000000000000000000000000000000000000000000000000REP       REP Sheriff                                             Chuck Edge                            136                                                    01 
00050020037000026000000000021000005000000000000000000000000000000000000000000000000000000000000000000REP       REP Sheriff                                             Chuck Edge                            137                                                    01 
00050020038000059000007000022000030000000000000000000000000000000000000000000000000000000000000000000REP       REP Sheriff                                             Chuck Edge                            138                                                    01 
00050020039000063000010000033000020000000000000000000000000000000000000000000000000000000000000000000REP       REP Sheriff                                             Chuck Edge                            139                                                    01 
00050020040000187000037000082000068000000000000000000000000000000000000000000000000000000000000000000REP       REP Sheriff                                             Chuck Edge                            140                                                    01 
00050020041000078000013000035000030000000000000000000000000000000000000000000000000000000000000000000REP       REP Sheriff                                             Chuck Edge                            141                                                    01 
00050020042000058000008000020000030000000000000000000000000000000000000000000000000000000000000000000REP       REP Sheriff                                             Chuck Edge                            142                                                    01 
00050020043000089000020000040000029000000000000000000000000000000000000000000000000000000000000000000REP       REP Sheriff                                             Chuck Edge                            143                                                    01 
00050020044000016000000000011000005000000000000000000000000000000000000000000000000000000000000000000REP       REP Sheriff                                             Chuck Edge                            144                                                    01 
00050020045000032000009000011000012000000000000000000000000000000000000000000000000000000000000000000REP       REP Sheriff                                             Chuck Edge                            145                                                    01 
00050020046000039000008000013000018000000000000000000000000000000000000000000000000000000000000000000REP       REP Sheriff                                             Chuck Edge                            146                                                    01 
00050020047000070000014000022000034000000000000000000000000000000000000000000000000000000000000000000REP       REP Sheriff                                             Chuck Edge                            147                                                    01 
00050020048000042000005000014000023000000000000000000000000000000000000000000000000000000000000000000REP       REP Sheriff                                             Chuck Edge                            148                                                    01 
00050020049000026000004000011000011000000000000000000000000000000000000000000000000000000000000000000REP       REP Sheriff                                             Chuck Edge                            149                                                    01 
