01010010001000000          REGISTERED VOTERS - TOTAL                               REGISTERED VOTERS - TOTAL             PRECINCT 101                                           00 
01010010002000000          REGISTERED VOTERS - TOTAL                               REGISTERED VOTERS - TOTAL             PRECINCT 102                                           00 
01010010003000000          REGISTERED VOTERS - TOTAL                               REGISTERED VOTERS - TOTAL             PRECINCT 103                                           00 
01010010004000000          REGISTERED VOTERS - TOTAL                               REGISTERED VOTERS - TOTAL             PRECINCT 201                                           00 
01010010005000000          REGISTERED VOTERS - TOTAL                               REGISTERED VOTERS - TOTAL             PRECINCT 202                                           00 
01010010006000000          REGISTERED VOTERS - TOTAL                               REGISTERED VOTERS - TOTAL             PRECINCT 203                                           00 
01010010007000000          REGISTERED VOTERS - TOTAL                               REGISTERED VOTERS - TOTAL             PRECINCT 301                                           00 
01010010008000000          REGISTERED VOTERS - TOTAL                               REGISTERED VOTERS - TOTAL             PRECINCT 302                                           00 
01010010009000000          REGISTERED VOTERS - TOTAL                               REGISTERED VOTERS - TOTAL             PRECINCT 303                                           00 
01010010010000000          REGISTERED VOTERS - TOTAL                               REGISTERED VOTERS - TOTAL             PRECINCT 401                                           00 
01010010011000000          REGISTERED VOTERS - TOTAL                               REGISTERED VOTERS - TOTAL             PRECINCT 402                                           00 
01020010001000217          BALLOTS CAST - TOTAL                                    BALLOTS CAST - TOTAL                  PRECINCT 101                                           00 
01020010002000015          BALLOTS CAST - TOTAL                                    BALLOTS CAST - TOTAL                  PRECINCT 102                                           00 
01020010003000060          BALLOTS CAST - TOTAL                                    BALLOTS CAST - TOTAL                  PRECINCT 103                                           00 
01020010004000418          BALLOTS CAST - TOTAL                                    BALLOTS CAST - TOTAL                  PRECINCT 201                                           00 
01020010005000049          BALLOTS CAST - TOTAL                                    BALLOTS CAST - TOTAL                  PRECINCT 202                                           00 
01020010006000028          BALLOTS CAST - TOTAL                                    BALLOTS CAST - TOTAL                  PRECINCT 203                                           00 
01020010007000051          BALLOTS CAST - TOTAL                                    BALLOTS CAST - TOTAL                  PRECINCT 301                                           00 
01020010008000092          BALLOTS CAST - TOTAL                                    BALLOTS CAST - TOTAL                  PRECINCT 302                                           00 
01020010009000184          BALLOTS CAST - TOTAL                                    BALLOTS CAST - TOTAL                  PRECINCT 303                                           00 
01020010010000015          BALLOTS CAST - TOTAL                                    BALLOTS CAST - TOTAL                  PRECINCT 401                                           00 
01020010011000027          BALLOTS CAST - TOTAL                                    BALLOTS CAST - TOTAL                  PRECINCT 402                                           00 
01030010001000025DEM       BALLOTS CAST - DEMOCRATIC PARTY                         BALLOTS CAST - DEMOCRATIC PARTY       PRECINCT 101                                           00 
01030010002000002DEM       BALLOTS CAST - DEMOCRATIC PARTY                         BALLOTS CAST - DEMOCRATIC PARTY       PRECINCT 102                                           00 
01030010003000008DEM       BALLOTS CAST - DEMOCRATIC PARTY                         BALLOTS CAST - DEMOCRATIC PARTY       PRECINCT 103                                           00 
01030010004000028DEM       BALLOTS CAST - DEMOCRATIC PARTY                         BALLOTS CAST - DEMOCRATIC PARTY       PRECINCT 201                                           00 
01030010005000004DEM       BALLOTS CAST - DEMOCRATIC PARTY                         BALLOTS CAST - DEMOCRATIC PARTY       PRECINCT 202                                           00 
01030010006000004DEM       BALLOTS CAST - DEMOCRATIC PARTY                         BALLOTS CAST - DEMOCRATIC PARTY       PRECINCT 203                                           00 
01030010007000004DEM       BALLOTS CAST - DEMOCRATIC PARTY                         BALLOTS CAST - DEMOCRATIC PARTY       PRECINCT 301                                           00 
01030010008000008DEM       BALLOTS CAST - DEMOCRATIC PARTY                         BALLOTS CAST - DEMOCRATIC PARTY       PRECINCT 302                                           00 
01030010009000014DEM       BALLOTS CAST - DEMOCRATIC PARTY                         BALLOTS CAST - DEMOCRATIC PARTY       PRECINCT 303                                           00 
01030010010000015DEM       BALLOTS CAST - DEMOCRATIC PARTY                         BALLOTS CAST - DEMOCRATIC PARTY       PRECINCT 401                                           00 
01030010011000027DEM       BALLOTS CAST - DEMOCRATIC PARTY                         BALLOTS CAST - DEMOCRATIC PARTY       PRECINCT 402                                           00 
01040010001000192REP       BALLOTS CAST - REPUBLICAN PARTY                         BALLOTS CAST - REPUBLICAN PARTY       PRECINCT 101                                           00 
01040010002000013REP       BALLOTS CAST - REPUBLICAN PARTY                         BALLOTS CAST - REPUBLICAN PARTY       PRECINCT 102                                           00 
01040010003000052REP       BALLOTS CAST - REPUBLICAN PARTY                         BALLOTS CAST - REPUBLICAN PARTY       PRECINCT 103                                           00 
01040010004000390REP       BALLOTS CAST - REPUBLICAN PARTY                         BALLOTS CAST - REPUBLICAN PARTY       PRECINCT 201                                           00 
01040010005000045REP       BALLOTS CAST - REPUBLICAN PARTY                         BALLOTS CAST - REPUBLICAN PARTY       PRECINCT 202                                           00 
01040010006000024REP       BALLOTS CAST - REPUBLICAN PARTY                         BALLOTS CAST - REPUBLICAN PARTY       PRECINCT 203                                           00 
01040010007000047REP       BALLOTS CAST - REPUBLICAN PARTY                         BALLOTS CAST - REPUBLICAN PARTY       PRECINCT 301                                           00 
01040010008000084REP       BALLOTS CAST - REPUBLICAN PARTY                         BALLOTS CAST - REPUBLICAN PARTY       PRECINCT 302                                           00 
01040010009000170REP       BALLOTS CAST - REPUBLICAN PARTY                         BALLOTS CAST - REPUBLICAN PARTY       PRECINCT 303                                           00 
01040010010000011REP       BALLOTS CAST - REPUBLICAN PARTY                         BALLOTS CAST - REPUBLICAN PARTY       PRECINCT 401                                           00 
01040010011000014REP       BALLOTS CAST - REPUBLICAN PARTY                         BALLOTS CAST - REPUBLICAN PARTY       PRECINCT 402                                           00 
01050010001000010DEM       United States Senator                                   Mary "MJ" Hegar                       PRECINCT 101                                           01 
01050010002000002DEM       United States Senator                                   Mary "MJ" Hegar                       PRECINCT 102                                           01 
01050010003000005DEM       United States Senator                                   Mary "MJ" Hegar                       PRECINCT 103                                           01 
01050010004000017DEM       United States Senator                                   Mary "MJ" Hegar                       PRECINCT 201                                           01 
01050010005000004DEM       United States Senator                                   Mary "MJ" Hegar                       PRECINCT 202                                           01 
01050010006000003DEM       United States Senator                                   Mary "MJ" Hegar                       PRECINCT 203                                           01 
01050010007000004DEM       United States Senator                                   Mary "MJ" Hegar                       PRECINCT 301                                           01 
01050010008000007DEM       United States Senator                                   Mary "MJ" Hegar                       PRECINCT 302                                           01 
01050010009000008DEM       United States Senator                                   Mary "MJ" Hegar                       PRECINCT 303                                           01 
01050010010000004DEM       United States Senator                                   Mary "MJ" Hegar                       PRECINCT 401                                           01 
01050010011000017DEM       United States Senator                                   Mary "MJ" Hegar                       PRECINCT 402                                           01 
01050020001000014DEM       United States Senator                                   Royce West                            PRECINCT 101                                           01 
01050020002000000DEM       United States Senator                                   Royce West                            PRECINCT 102                                           01 
01050020003000003DEM       United States Senator                                   Royce West                            PRECINCT 103                                           01 
01050020004000011DEM       United States Senator                                   Royce West                            PRECINCT 201                                           01 
01050020005000000DEM       United States Senator                                   Royce West                            PRECINCT 202                                           01 
01050020006000001DEM       United States Senator                                   Royce West                            PRECINCT 203                                           01 
01050020007000000DEM       United States Senator                                   Royce West                            PRECINCT 301                                           01 
01050020008000001DEM       United States Senator                                   Royce West                            PRECINCT 302                                           01 
01050020009000006DEM       United States Senator                                   Royce West                            PRECINCT 303                                           01 
01050020010000010DEM       United States Senator                                   Royce West                            PRECINCT 401                                           01 
01050020011000010DEM       United States Senator                                   Royce West                            PRECINCT 402                                           01 
01050030001000000DEM       United States Senator                                   OVER VOTES                            PRECINCT 101                                           01 
01050030002000000DEM       United States Senator                                   OVER VOTES                            PRECINCT 102                                           01 
01050030003000000DEM       United States Senator                                   OVER VOTES                            PRECINCT 103                                           01 
01050030004000000DEM       United States Senator                                   OVER VOTES                            PRECINCT 201                                           01 
01050030005000000DEM       United States Senator                                   OVER VOTES                            PRECINCT 202                                           01 
01050030006000000DEM       United States Senator                                   OVER VOTES                            PRECINCT 203                                           01 
01050030007000000DEM       United States Senator                                   OVER VOTES                            PRECINCT 301                                           01 
01050030008000000DEM       United States Senator                                   OVER VOTES                            PRECINCT 302                                           01 
01050030009000000DEM       United States Senator                                   OVER VOTES                            PRECINCT 303                                           01 
01050030010000000DEM       United States Senator                                   OVER VOTES                            PRECINCT 401                                           01 
01050030011000000DEM       United States Senator                                   OVER VOTES                            PRECINCT 402                                           01 
01050040001000001DEM       United States Senator                                   UNDER VOTES                           PRECINCT 101                                           01 
01050040002000000DEM       United States Senator                                   UNDER VOTES                           PRECINCT 102                                           01 
01050040003000000DEM       United States Senator                                   UNDER VOTES                           PRECINCT 103                                           01 
01050040004000000DEM       United States Senator                                   UNDER VOTES                           PRECINCT 201                                           01 
01050040005000000DEM       United States Senator                                   UNDER VOTES                           PRECINCT 202                                           01 
01050040006000000DEM       United States Senator                                   UNDER VOTES                           PRECINCT 203                                           01 
01050040007000000DEM       United States Senator                                   UNDER VOTES                           PRECINCT 301                                           01 
01050040008000000DEM       United States Senator                                   UNDER VOTES                           PRECINCT 302                                           01 
01050040009000000DEM       United States Senator                                   UNDER VOTES                           PRECINCT 303                                           01 
01050040010000001DEM       United States Senator                                   UNDER VOTES                           PRECINCT 401                                           01 
01050040011000000DEM       United States Senator                                   UNDER VOTES                           PRECINCT 402                                           01 
01060010001000009DEM       Railroad Commissioner                                   Roberto R. "Beto" Alonzo              PRECINCT 101                                           01 
01060010002000001DEM       Railroad Commissioner                                   Roberto R. "Beto" Alonzo              PRECINCT 102                                           01 
01060010003000002DEM       Railroad Commissioner                                   Roberto R. "Beto" Alonzo              PRECINCT 103                                           01 
01060010004000014DEM       Railroad Commissioner                                   Roberto R. "Beto" Alonzo              PRECINCT 201                                           01 
01060010005000000DEM       Railroad Commissioner                                   Roberto R. "Beto" Alonzo              PRECINCT 202                                           01 
01060010006000002DEM       Railroad Commissioner                                   Roberto R. "Beto" Alonzo              PRECINCT 203                                           01 
01060010007000000DEM       Railroad Commissioner                                   Roberto R. "Beto" Alonzo              PRECINCT 301                                           01 
01060010008000003DEM       Railroad Commissioner                                   Roberto R. "Beto" Alonzo              PRECINCT 302                                           01 
01060010009000003DEM       Railroad Commissioner                                   Roberto R. "Beto" Alonzo              PRECINCT 303                                           01 
01060010010000007DEM       Railroad Commissioner                                   Roberto R. "Beto" Alonzo              PRECINCT 401                                           01 
01060010011000007DEM       Railroad Commissioner                                   Roberto R. "Beto" Alonzo              PRECINCT 402                                           01 
01060020001000016DEM       Railroad Commissioner                                   Chrysta Castaneda                     PRECINCT 101                                           01 
01060020002000001DEM       Railroad Commissioner                                   Chrysta Castaneda                     PRECINCT 102                                           01 
01060020003000006DEM       Railroad Commissioner                                   Chrysta Castaneda                     PRECINCT 103                                           01 
01060020004000013DEM       Railroad Commissioner                                   Chrysta Castaneda                     PRECINCT 201                                           01 
01060020005000004DEM       Railroad Commissioner                                   Chrysta Castaneda                     PRECINCT 202                                           01 
01060020006000002DEM       Railroad Commissioner                                   Chrysta Castaneda                     PRECINCT 203                                           01 
01060020007000004DEM       Railroad Commissioner                                   Chrysta Castaneda                     PRECINCT 301                                           01 
01060020008000005DEM       Railroad Commissioner                                   Chrysta Castaneda                     PRECINCT 302                                           01 
01060020009000011DEM       Railroad Commissioner                                   Chrysta Castaneda                     PRECINCT 303                                           01 
01060020010000007DEM       Railroad Commissioner                                   Chrysta Castaneda                     PRECINCT 401                                           01 
01060020011000020DEM       Railroad Commissioner                                   Chrysta Castaneda                     PRECINCT 402                                           01 
01060030001000000DEM       Railroad Commissioner                                   OVER VOTES                            PRECINCT 101                                           01 
01060030002000000DEM       Railroad Commissioner                                   OVER VOTES                            PRECINCT 102                                           01 
01060030003000000DEM       Railroad Commissioner                                   OVER VOTES                            PRECINCT 103                                           01 
01060030004000000DEM       Railroad Commissioner                                   OVER VOTES                            PRECINCT 201                                           01 
01060030005000000DEM       Railroad Commissioner                                   OVER VOTES                            PRECINCT 202                                           01 
01060030006000000DEM       Railroad Commissioner                                   OVER VOTES                            PRECINCT 203                                           01 
01060030007000000DEM       Railroad Commissioner                                   OVER VOTES                            PRECINCT 301                                           01 
01060030008000000DEM       Railroad Commissioner                                   OVER VOTES                            PRECINCT 302                                           01 
01060030009000000DEM       Railroad Commissioner                                   OVER VOTES                            PRECINCT 303                                           01 
01060030010000000DEM       Railroad Commissioner                                   OVER VOTES                            PRECINCT 401                                           01 
01060030011000000DEM       Railroad Commissioner                                   OVER VOTES                            PRECINCT 402                                           01 
01060040001000000DEM       Railroad Commissioner                                   UNDER VOTES                           PRECINCT 101                                           01 
01060040002000000DEM       Railroad Commissioner                                   UNDER VOTES                           PRECINCT 102                                           01 
01060040003000000DEM       Railroad Commissioner                                   UNDER VOTES                           PRECINCT 103                                           01 
01060040004000001DEM       Railroad Commissioner                                   UNDER VOTES                           PRECINCT 201                                           01 
01060040005000000DEM       Railroad Commissioner                                   UNDER VOTES                           PRECINCT 202                                           01 
01060040006000000DEM       Railroad Commissioner                                   UNDER VOTES                           PRECINCT 203                                           01 
01060040007000000DEM       Railroad Commissioner                                   UNDER VOTES                           PRECINCT 301                                           01 
01060040008000000DEM       Railroad Commissioner                                   UNDER VOTES                           PRECINCT 302                                           01 
01060040009000000DEM       Railroad Commissioner                                   UNDER VOTES                           PRECINCT 303                                           01 
01060040010000001DEM       Railroad Commissioner                                   UNDER VOTES                           PRECINCT 401                                           01 
01060040011000000DEM       Railroad Commissioner                                   UNDER VOTES                           PRECINCT 402                                           01 
01070010001000124REP       County Commissioner, Precinct No. 1                     Roy Spalding                          PRECINCT 101                                           01 
01070010002000010REP       County Commissioner, Precinct No. 1                     Roy Spalding                          PRECINCT 102                                           01 
01070010003000018REP       County Commissioner, Precinct No. 1                     Roy Spalding                          PRECINCT 103                                           01 
01070020001000068REP       County Commissioner, Precinct No. 1                     Billy Scott                           PRECINCT 101                                           01 
01070020002000003REP       County Commissioner, Precinct No. 1                     Billy Scott                           PRECINCT 102                                           01 
01070020003000034REP       County Commissioner, Precinct No. 1                     Billy Scott                           PRECINCT 103                                           01 
01070030001000000REP       County Commissioner, Precinct No. 1                     OVER VOTES                            PRECINCT 101                                           01 
01070030002000000REP       County Commissioner, Precinct No. 1                     OVER VOTES                            PRECINCT 102                                           01 
01070030003000000REP       County Commissioner, Precinct No. 1                     OVER VOTES                            PRECINCT 103                                           01 
01070040001000000REP       County Commissioner, Precinct No. 1                     UNDER VOTES                           PRECINCT 101                                           01 
01070040002000000REP       County Commissioner, Precinct No. 1                     UNDER VOTES                           PRECINCT 102                                           01 
01070040003000000REP       County Commissioner, Precinct No. 1                     UNDER VOTES                           PRECINCT 103                                           01 
01080010004000209REP       County Commissioner, Precinct No. 2                     Lonnie Vivian                         PRECINCT 201                                           01 
01080010005000027REP       County Commissioner, Precinct No. 2                     Lonnie Vivian                         PRECINCT 202                                           01 
01080010006000011REP       County Commissioner, Precinct No. 2                     Lonnie Vivian                         PRECINCT 203                                           01 
01080020004000181REP       County Commissioner, Precinct No. 2                     Jan Lefevre                           PRECINCT 201                                           01 
01080020005000017REP       County Commissioner, Precinct No. 2                     Jan Lefevre                           PRECINCT 202                                           01 
01080020006000012REP       County Commissioner, Precinct No. 2                     Jan Lefevre                           PRECINCT 203                                           01 
01080030004000000REP       County Commissioner, Precinct No. 2                     OVER VOTES                            PRECINCT 201                                           01 
01080030005000000REP       County Commissioner, Precinct No. 2                     OVER VOTES                            PRECINCT 202                                           01 
01080030006000000REP       County Commissioner, Precinct No. 2                     OVER VOTES                            PRECINCT 203                                           01 
01080040004000000REP       County Commissioner, Precinct No. 2                     UNDER VOTES                           PRECINCT 201                                           01 
01080040005000001REP       County Commissioner, Precinct No. 2                     UNDER VOTES                           PRECINCT 202                                           01 
01080040006000001REP       County Commissioner, Precinct No. 2                     UNDER VOTES                           PRECINCT 203                                           01 
01090010007000023REP       County Commissioner, Precinct No. 3                     Ross Davis                            PRECINCT 301                                           01 
01090010008000060REP       County Commissioner, Precinct No. 3                     Ross Davis                            PRECINCT 302                                           01 
01090010009000057REP       County Commissioner, Precinct No. 3                     Ross Davis                            PRECINCT 303                                           01 
01090020007000024REP       County Commissioner, Precinct No. 3                     Todd McWilliams                       PRECINCT 301                                           01 
01090020008000024REP       County Commissioner, Precinct No. 3                     Todd McWilliams                       PRECINCT 302                                           01 
01090020009000113REP       County Commissioner, Precinct No. 3                     Todd McWilliams                       PRECINCT 303                                           01 
01090030007000000REP       County Commissioner, Precinct No. 3                     OVER VOTES                            PRECINCT 301                                           01 
01090030008000000REP       County Commissioner, Precinct No. 3                     OVER VOTES                            PRECINCT 302                                           01 
01090030009000000REP       County Commissioner, Precinct No. 3                     OVER VOTES                            PRECINCT 303                                           01 
01090040007000000REP       County Commissioner, Precinct No. 3                     UNDER VOTES                           PRECINCT 301                                           01 
01090040008000000REP       County Commissioner, Precinct No. 3                     UNDER VOTES                           PRECINCT 302                                           01 
01090040009000000REP       County Commissioner, Precinct No. 3                     UNDER VOTES                           PRECINCT 303                                           01 
