000000000300000000003000000000000000000PRECINCTS COUNTED - TOTAL                               PRECINCTS COUNTED - TOTAL                                      00 
00010010030007739500300077395          REGISTERED VOTERS - TOTAL                               REGISTERED VOTERS - TOTAL                                      00 
00020010030000000000300000000          REGISTERED VOTERS - Republican Party                    REGISTERED VOTERS - Republican Party                           00 
0003001003000092850030000000           BALLOTS CAST - TOTAL                                    BALLOTS CAST - TOTAL                                           00 
0004001003000065830030000000 REP       BALLOTS CAST - Republican Party                         BALLOTS CAST - Republican Party                                00 
0005001003000040410030000000 REP       REP Dist Judge, 422nd Judicial Dist                     Shelton Gibbs IV                                               01 
0005002003000025340030000000 REP       REP Dist Judge, 422nd Judicial Dist                     Chad Johnson                                                   01 
0006001000100000770001000000 REPCHA014 REP Precinct Chair Precinct 14                          Sandra Vatsis-Taylor                  Precinct 14              01 
0006002000100001190001000000 REPCHA014 REP Precinct Chair Precinct 14                          Charlie Green                         Precinct 14              01 
