000000000300000000003000000000000000000PRECINCTS COUNTED - TOTAL                               PRECINCTS COUNTED - TOTAL                                      00 
00010010030007739500300077395          REGISTERED VOTERS - TOTAL                               REGISTERED VOTERS - TOTAL                                      00 
00020010030000000000300000000          REGISTERED VOTERS - Democratic Party                    REGISTERED VOTERS - Democratic Party                           00 
0003001003000092850030000000           BALLOTS CAST - TOTAL                                    BALLOTS CAST - TOTAL                                           00 
0004001003000027020030000000 DEM       BALLOTS CAST - Democratic Party                         BALLOTS CAST - Democratic Party                                00 
0005001003000017440030000000 DEM       DEM US Senator                                          Royce West                                                     01 
0005002003000009430030000000 DEM       DEM US Senator                                          Mary "MJ" Hegar                                                01 
0006001003000013090030000000 DEM       DEM Railroad Commissioner                               Roberto R. "Beto" Alonzo                                       01 
0006002003000013340030000000 DEM       DEM Railroad Commissioner                               Chrysta Castaneda                                              01 
