01010010001003630          REGISTERED VOTERS - TOTAL                               REGISTERED VOTERS - TOTAL             Precinct 1                                             00 
01010010002003347          REGISTERED VOTERS - TOTAL                               REGISTERED VOTERS - TOTAL             Precinct 23                                            00 
01010010003003446          REGISTERED VOTERS - TOTAL                               REGISTERED VOTERS - TOTAL             Precinct 29                                            00 
01010010004002919          REGISTERED VOTERS - TOTAL                               REGISTERED VOTERS - TOTAL             Precinct 30                                            00 
01020010001000053          BALLOTS CAST - TOTAL                                    BALLOTS CAST - TOTAL                  Precinct 1                                             00 
01020010002000068          BALLOTS CAST - TOTAL                                    BALLOTS CAST - TOTAL                  Precinct 23                                            00 
01020010003000733          BALLOTS CAST - TOTAL                                    BALLOTS CAST - TOTAL                  Precinct 29                                            00 
01020010004000032          BALLOTS CAST - TOTAL                                    BALLOTS CAST - TOTAL                  Precinct 30                                            00 
01030010001000053DEM       BALLOTS CAST - DEMOCRATIC PARTY                         BALLOTS CAST - DEMOCRATIC PARTY       Precinct 1                                             00 
01030010002000068DEM       BALLOTS CAST - DEMOCRATIC PARTY                         BALLOTS CAST - DEMOCRATIC PARTY       Precinct 23                                            00 
01030010003000062DEM       BALLOTS CAST - DEMOCRATIC PARTY                         BALLOTS CAST - DEMOCRATIC PARTY       Precinct 29                                            00 
01030010004000032DEM       BALLOTS CAST - DEMOCRATIC PARTY                         BALLOTS CAST - DEMOCRATIC PARTY       Precinct 30                                            00 
01040010003000671REP       BALLOTS CAST - REPUBLICAN PARTY                         BALLOTS CAST - REPUBLICAN PARTY       Precinct 29                                            00 
01050010001000017DEM       United States Senator                                   Royce West                            Precinct 1                                             01 
01050010002000022DEM       United States Senator                                   Royce West                            Precinct 23                                            01 
01050010003000016DEM       United States Senator                                   Royce West                            Precinct 29                                            01 
01050010004000013DEM       United States Senator                                   Royce West                            Precinct 30                                            01 
01050020001000036DEM       United States Senator                                   Mary "MJ" Hegar                       Precinct 1                                             01 
01050020002000046DEM       United States Senator                                   Mary "MJ" Hegar                       Precinct 23                                            01 
01050020003000046DEM       United States Senator                                   Mary "MJ" Hegar                       Precinct 29                                            01 
01050020004000019DEM       United States Senator                                   Mary "MJ" Hegar                       Precinct 30                                            01 
01050030001000000DEM       United States Senator                                   OVER VOTES                            Precinct 1                                             01 
01050030002000000DEM       United States Senator                                   OVER VOTES                            Precinct 23                                            01 
01050030003000000DEM       United States Senator                                   OVER VOTES                            Precinct 29                                            01 
01050030004000000DEM       United States Senator                                   OVER VOTES                            Precinct 30                                            01 
01050040001000000DEM       United States Senator                                   UNDER VOTES                           Precinct 1                                             01 
01050040002000000DEM       United States Senator                                   UNDER VOTES                           Precinct 23                                            01 
01050040003000000DEM       United States Senator                                   UNDER VOTES                           Precinct 29                                            01 
01050040004000000DEM       United States Senator                                   UNDER VOTES                           Precinct 30                                            01 
01060010001000025DEM       Railroad Commissioner                                   Roberto R. "Beto" Alonzo              Precinct 1                                             01 
01060010002000025DEM       Railroad Commissioner                                   Roberto R. "Beto" Alonzo              Precinct 23                                            01 
01060010003000033DEM       Railroad Commissioner                                   Roberto R. "Beto" Alonzo              Precinct 29                                            01 
01060010004000014DEM       Railroad Commissioner                                   Roberto R. "Beto" Alonzo              Precinct 30                                            01 
01060020001000027DEM       Railroad Commissioner                                   Chrysta Castaneda                     Precinct 1                                             01 
01060020002000039DEM       Railroad Commissioner                                   Chrysta Castaneda                     Precinct 23                                            01 
01060020003000029DEM       Railroad Commissioner                                   Chrysta Castaneda                     Precinct 29                                            01 
01060020004000018DEM       Railroad Commissioner                                   Chrysta Castaneda                     Precinct 30                                            01 
01060030001000000DEM       Railroad Commissioner                                   OVER VOTES                            Precinct 1                                             01 
01060030002000000DEM       Railroad Commissioner                                   OVER VOTES                            Precinct 23                                            01 
01060030003000000DEM       Railroad Commissioner                                   OVER VOTES                            Precinct 29                                            01 
01060030004000000DEM       Railroad Commissioner                                   OVER VOTES                            Precinct 30                                            01 
01060040001000001DEM       Railroad Commissioner                                   UNDER VOTES                           Precinct 1                                             01 
01060040002000004DEM       Railroad Commissioner                                   UNDER VOTES                           Precinct 23                                            01 
01060040003000000DEM       Railroad Commissioner                                   UNDER VOTES                           Precinct 29                                            01 
01060040004000000DEM       Railroad Commissioner                                   UNDER VOTES                           Precinct 30                                            01 
01070010003000512REP       County Commissioner, Pct 3                              Kenny W. Siegel                       Precinct 29                                            01 
01070020003000158REP       County Commissioner, Pct 3                              Cleve Handley                         Precinct 29                                            01 
01070030003000001REP       County Commissioner, Pct 3                              OVER VOTES                            Precinct 29                                            01 
01070040003000000REP       County Commissioner, Pct 3                              UNDER VOTES                           Precinct 29                                            01 
