00010010001002420000000000000000000000000000000000000000000000000000000000000000000000000000000000000          REGISTERED VOTERS - TOTAL                               REGISTERED VOTERS - TOTAL             PCT 2                                                  00 
00010010002001309000000000000000000000000000000000000000000000000000000000000000000000000000000000000          REGISTERED VOTERS - TOTAL                               REGISTERED VOTERS - TOTAL             PCT 3                                                  00 
00010010003000659000000000000000000000000000000000000000000000000000000000000000000000000000000000000          REGISTERED VOTERS - TOTAL                               REGISTERED VOTERS - TOTAL             PCT 4                                                  00 
00010010004001021000000000000000000000000000000000000000000000000000000000000000000000000000000000000          REGISTERED VOTERS - TOTAL                               REGISTERED VOTERS - TOTAL             PCT 5                                                  00 
00010010005000956000000000000000000000000000000000000000000000000000000000000000000000000000000000000          REGISTERED VOTERS - TOTAL                               REGISTERED VOTERS - TOTAL             PCT 6                                                  00 
00010010006000970000000000000000000000000000000000000000000000000000000000000000000000000000000000000          REGISTERED VOTERS - TOTAL                               REGISTERED VOTERS - TOTAL             PCT 7                                                  00 
00010010007000824000000000000000000000000000000000000000000000000000000000000000000000000000000000000          REGISTERED VOTERS - TOTAL                               REGISTERED VOTERS - TOTAL             PCT 8                                                  00 
00010010008001120000000000000000000000000000000000000000000000000000000000000000000000000000000000000          REGISTERED VOTERS - TOTAL                               REGISTERED VOTERS - TOTAL             PCT 9                                                  00 
00010010009001082000000000000000000000000000000000000000000000000000000000000000000000000000000000000          REGISTERED VOTERS - TOTAL                               REGISTERED VOTERS - TOTAL             PCT 10                                                 00 
00010010010001074000000000000000000000000000000000000000000000000000000000000000000000000000000000000          REGISTERED VOTERS - TOTAL                               REGISTERED VOTERS - TOTAL             PCT 11                                                 00 
00010010011000126000000000000000000000000000000000000000000000000000000000000000000000000000000000000          REGISTERED VOTERS - TOTAL                               REGISTERED VOTERS - TOTAL             PCT 12                                                 00 
00010010012000954000000000000000000000000000000000000000000000000000000000000000000000000000000000000          REGISTERED VOTERS - TOTAL                               REGISTERED VOTERS - TOTAL             PCT 13                                                 00 
00010010013000231000000000000000000000000000000000000000000000000000000000000000000000000000000000000          REGISTERED VOTERS - TOTAL                               REGISTERED VOTERS - TOTAL             PCT 14                                                 00 
00010010014000510000000000000000000000000000000000000000000000000000000000000000000000000000000000000          REGISTERED VOTERS - TOTAL                               REGISTERED VOTERS - TOTAL             PCT 15                                                 00 
00010010015000319000000000000000000000000000000000000000000000000000000000000000000000000000000000000          REGISTERED VOTERS - TOTAL                               REGISTERED VOTERS - TOTAL             PCT 16                                                 00 
00020010001000000000000000000000000000000000000000000000000000000000000000000000000000000000000000000REP       REGISTERED VOTERS - Republican Party                    REGISTERED VOTERS - Republican Party  PCT 2                                                  00 
00020010002000000000000000000000000000000000000000000000000000000000000000000000000000000000000000000REP       REGISTERED VOTERS - Republican Party                    REGISTERED VOTERS - Republican Party  PCT 3                                                  00 
00020010003000000000000000000000000000000000000000000000000000000000000000000000000000000000000000000REP       REGISTERED VOTERS - Republican Party                    REGISTERED VOTERS - Republican Party  PCT 4                                                  00 
00020010004000000000000000000000000000000000000000000000000000000000000000000000000000000000000000000REP       REGISTERED VOTERS - Republican Party                    REGISTERED VOTERS - Republican Party  PCT 5                                                  00 
00020010005000000000000000000000000000000000000000000000000000000000000000000000000000000000000000000REP       REGISTERED VOTERS - Republican Party                    REGISTERED VOTERS - Republican Party  PCT 6                                                  00 
00020010006000000000000000000000000000000000000000000000000000000000000000000000000000000000000000000REP       REGISTERED VOTERS - Republican Party                    REGISTERED VOTERS - Republican Party  PCT 7                                                  00 
00020010007000000000000000000000000000000000000000000000000000000000000000000000000000000000000000000REP       REGISTERED VOTERS - Republican Party                    REGISTERED VOTERS - Republican Party  PCT 8                                                  00 
00020010008000000000000000000000000000000000000000000000000000000000000000000000000000000000000000000REP       REGISTERED VOTERS - Republican Party                    REGISTERED VOTERS - Republican Party  PCT 9                                                  00 
00020010009000000000000000000000000000000000000000000000000000000000000000000000000000000000000000000REP       REGISTERED VOTERS - Republican Party                    REGISTERED VOTERS - Republican Party  PCT 10                                                 00 
00020010010000000000000000000000000000000000000000000000000000000000000000000000000000000000000000000REP       REGISTERED VOTERS - Republican Party                    REGISTERED VOTERS - Republican Party  PCT 11                                                 00 
00020010011000000000000000000000000000000000000000000000000000000000000000000000000000000000000000000REP       REGISTERED VOTERS - Republican Party                    REGISTERED VOTERS - Republican Party  PCT 12                                                 00 
00020010012000000000000000000000000000000000000000000000000000000000000000000000000000000000000000000REP       REGISTERED VOTERS - Republican Party                    REGISTERED VOTERS - Republican Party  PCT 13                                                 00 
00020010013000000000000000000000000000000000000000000000000000000000000000000000000000000000000000000REP       REGISTERED VOTERS - Republican Party                    REGISTERED VOTERS - Republican Party  PCT 14                                                 00 
00020010014000000000000000000000000000000000000000000000000000000000000000000000000000000000000000000REP       REGISTERED VOTERS - Republican Party                    REGISTERED VOTERS - Republican Party  PCT 15                                                 00 
00020010015000000000000000000000000000000000000000000000000000000000000000000000000000000000000000000REP       REGISTERED VOTERS - Republican Party                    REGISTERED VOTERS - Republican Party  PCT 16                                                 00 
00030010001000000000000000000000000000000000000000000000000000000000000000000000000000000000000000000DEM       REGISTERED VOTERS - Democratic Party                    REGISTERED VOTERS - Democratic Party  PCT 2                                                  00 
00030010002000000000000000000000000000000000000000000000000000000000000000000000000000000000000000000DEM       REGISTERED VOTERS - Democratic Party                    REGISTERED VOTERS - Democratic Party  PCT 3                                                  00 
00030010003000000000000000000000000000000000000000000000000000000000000000000000000000000000000000000DEM       REGISTERED VOTERS - Democratic Party                    REGISTERED VOTERS - Democratic Party  PCT 4                                                  00 
00030010004000000000000000000000000000000000000000000000000000000000000000000000000000000000000000000DEM       REGISTERED VOTERS - Democratic Party                    REGISTERED VOTERS - Democratic Party  PCT 5                                                  00 
00030010005000000000000000000000000000000000000000000000000000000000000000000000000000000000000000000DEM       REGISTERED VOTERS - Democratic Party                    REGISTERED VOTERS - Democratic Party  PCT 6                                                  00 
00030010006000000000000000000000000000000000000000000000000000000000000000000000000000000000000000000DEM       REGISTERED VOTERS - Democratic Party                    REGISTERED VOTERS - Democratic Party  PCT 7                                                  00 
00030010007000000000000000000000000000000000000000000000000000000000000000000000000000000000000000000DEM       REGISTERED VOTERS - Democratic Party                    REGISTERED VOTERS - Democratic Party  PCT 8                                                  00 
00030010008000000000000000000000000000000000000000000000000000000000000000000000000000000000000000000DEM       REGISTERED VOTERS - Democratic Party                    REGISTERED VOTERS - Democratic Party  PCT 9                                                  00 
00030010009000000000000000000000000000000000000000000000000000000000000000000000000000000000000000000DEM       REGISTERED VOTERS - Democratic Party                    REGISTERED VOTERS - Democratic Party  PCT 10                                                 00 
00030010010000000000000000000000000000000000000000000000000000000000000000000000000000000000000000000DEM       REGISTERED VOTERS - Democratic Party                    REGISTERED VOTERS - Democratic Party  PCT 11                                                 00 
00030010011000000000000000000000000000000000000000000000000000000000000000000000000000000000000000000DEM       REGISTERED VOTERS - Democratic Party                    REGISTERED VOTERS - Democratic Party  PCT 12                                                 00 
00030010012000000000000000000000000000000000000000000000000000000000000000000000000000000000000000000DEM       REGISTERED VOTERS - Democratic Party                    REGISTERED VOTERS - Democratic Party  PCT 13                                                 00 
00030010013000000000000000000000000000000000000000000000000000000000000000000000000000000000000000000DEM       REGISTERED VOTERS - Democratic Party                    REGISTERED VOTERS - Democratic Party  PCT 14                                                 00 
00030010014000000000000000000000000000000000000000000000000000000000000000000000000000000000000000000DEM       REGISTERED VOTERS - Democratic Party                    REGISTERED VOTERS - Democratic Party  PCT 15                                                 00 
00030010015000000000000000000000000000000000000000000000000000000000000000000000000000000000000000000DEM       REGISTERED VOTERS - Democratic Party                    REGISTERED VOTERS - Democratic Party  PCT 16                                                 00 
00040010001002420000000000000000000000000000000000000000000000000000000000000000000000000000000000000NON       REGISTERED VOTERS - NONPARTISAN                         REGISTERED VOTERS - NONPARTISAN       PCT 2                                                  00 
00040010002001309000000000000000000000000000000000000000000000000000000000000000000000000000000000000NON       REGISTERED VOTERS - NONPARTISAN                         REGISTERED VOTERS - NONPARTISAN       PCT 3                                                  00 
00040010003000659000000000000000000000000000000000000000000000000000000000000000000000000000000000000NON       REGISTERED VOTERS - NONPARTISAN                         REGISTERED VOTERS - NONPARTISAN       PCT 4                                                  00 
00040010004001021000000000000000000000000000000000000000000000000000000000000000000000000000000000000NON       REGISTERED VOTERS - NONPARTISAN                         REGISTERED VOTERS - NONPARTISAN       PCT 5                                                  00 
00040010005000956000000000000000000000000000000000000000000000000000000000000000000000000000000000000NON       REGISTERED VOTERS - NONPARTISAN                         REGISTERED VOTERS - NONPARTISAN       PCT 6                                                  00 
00040010006000970000000000000000000000000000000000000000000000000000000000000000000000000000000000000NON       REGISTERED VOTERS - NONPARTISAN                         REGISTERED VOTERS - NONPARTISAN       PCT 7                                                  00 
00040010007000824000000000000000000000000000000000000000000000000000000000000000000000000000000000000NON       REGISTERED VOTERS - NONPARTISAN                         REGISTERED VOTERS - NONPARTISAN       PCT 8                                                  00 
00040010008001120000000000000000000000000000000000000000000000000000000000000000000000000000000000000NON       REGISTERED VOTERS - NONPARTISAN                         REGISTERED VOTERS - NONPARTISAN       PCT 9                                                  00 
00040010009001082000000000000000000000000000000000000000000000000000000000000000000000000000000000000NON       REGISTERED VOTERS - NONPARTISAN                         REGISTERED VOTERS - NONPARTISAN       PCT 10                                                 00 
00040010010001074000000000000000000000000000000000000000000000000000000000000000000000000000000000000NON       REGISTERED VOTERS - NONPARTISAN                         REGISTERED VOTERS - NONPARTISAN       PCT 11                                                 00 
00040010011000126000000000000000000000000000000000000000000000000000000000000000000000000000000000000NON       REGISTERED VOTERS - NONPARTISAN                         REGISTERED VOTERS - NONPARTISAN       PCT 12                                                 00 
00040010012000954000000000000000000000000000000000000000000000000000000000000000000000000000000000000NON       REGISTERED VOTERS - NONPARTISAN                         REGISTERED VOTERS - NONPARTISAN       PCT 13                                                 00 
00040010013000231000000000000000000000000000000000000000000000000000000000000000000000000000000000000NON       REGISTERED VOTERS - NONPARTISAN                         REGISTERED VOTERS - NONPARTISAN       PCT 14                                                 00 
00040010014000510000000000000000000000000000000000000000000000000000000000000000000000000000000000000NON       REGISTERED VOTERS - NONPARTISAN                         REGISTERED VOTERS - NONPARTISAN       PCT 15                                                 00 
00040010015000319000000000000000000000000000000000000000000000000000000000000000000000000000000000000NON       REGISTERED VOTERS - NONPARTISAN                         REGISTERED VOTERS - NONPARTISAN       PCT 16                                                 00 
00050010001000369000040000128000201000000000000000000000000000000000000000000000000000000000000000000          BALLOTS CAST - TOTAL                                    BALLOTS CAST - TOTAL                  PCT 2                                                  00 
00050010002000174000010000056000108000000000000000000000000000000000000000000000000000000000000000000          BALLOTS CAST - TOTAL                                    BALLOTS CAST - TOTAL                  PCT 3                                                  00 
00050010003000048000007000015000026000000000000000000000000000000000000000000000000000000000000000000          BALLOTS CAST - TOTAL                                    BALLOTS CAST - TOTAL                  PCT 4                                                  00 
00050010004000121000015000025000081000000000000000000000000000000000000000000000000000000000000000000          BALLOTS CAST - TOTAL                                    BALLOTS CAST - TOTAL                  PCT 5                                                  00 
00050010005000114000018000037000059000000000000000000000000000000000000000000000000000000000000000000          BALLOTS CAST - TOTAL                                    BALLOTS CAST - TOTAL                  PCT 6                                                  00 
00050010006000148000015000050000083000000000000000000000000000000000000000000000000000000000000000000          BALLOTS CAST - TOTAL                                    BALLOTS CAST - TOTAL                  PCT 7                                                  00 
00050010007000075000012000024000039000000000000000000000000000000000000000000000000000000000000000000          BALLOTS CAST - TOTAL                                    BALLOTS CAST - TOTAL                  PCT 8                                                  00 
00050010008000256000034000079000143000000000000000000000000000000000000000000000000000000000000000000          BALLOTS CAST - TOTAL                                    BALLOTS CAST - TOTAL                  PCT 9                                                  00 
00050010009000161000011000055000095000000000000000000000000000000000000000000000000000000000000000000          BALLOTS CAST - TOTAL                                    BALLOTS CAST - TOTAL                  PCT 10                                                 00 
00050010010000205000025000046000134000000000000000000000000000000000000000000000000000000000000000000          BALLOTS CAST - TOTAL                                    BALLOTS CAST - TOTAL                  PCT 11                                                 00 
00050010011000019000004000004000011000000000000000000000000000000000000000000000000000000000000000000          BALLOTS CAST - TOTAL                                    BALLOTS CAST - TOTAL                  PCT 12                                                 00 
00050010012000153000014000015000124000000000000000000000000000000000000000000000000000000000000000000          BALLOTS CAST - TOTAL                                    BALLOTS CAST - TOTAL                  PCT 13                                                 00 
00050010013000053000008000013000032000000000000000000000000000000000000000000000000000000000000000000          BALLOTS CAST - TOTAL                                    BALLOTS CAST - TOTAL                  PCT 14                                                 00 
00050010014000088000010000035000043000000000000000000000000000000000000000000000000000000000000000000          BALLOTS CAST - TOTAL                                    BALLOTS CAST - TOTAL                  PCT 15                                                 00 
00050010015000034000003000013000018000000000000000000000000000000000000000000000000000000000000000000          BALLOTS CAST - TOTAL                                    BALLOTS CAST - TOTAL                  PCT 16                                                 00 
00060010001000337000025000120000192000000000000000000000000000000000000000000000000000000000000000000REP       BALLOTS CAST - Republican Party                         BALLOTS CAST - Republican Party       PCT 2                                                  00 
00060010002000167000007000054000106000000000000000000000000000000000000000000000000000000000000000000REP       BALLOTS CAST - Republican Party                         BALLOTS CAST - Republican Party       PCT 3                                                  00 
00060010003000046000007000014000025000000000000000000000000000000000000000000000000000000000000000000REP       BALLOTS CAST - Republican Party                         BALLOTS CAST - Republican Party       PCT 4                                                  00 
00060010004000111000012000024000075000000000000000000000000000000000000000000000000000000000000000000REP       BALLOTS CAST - Republican Party                         BALLOTS CAST - Republican Party       PCT 5                                                  00 
00060010005000109000015000036000058000000000000000000000000000000000000000000000000000000000000000000REP       BALLOTS CAST - Republican Party                         BALLOTS CAST - Republican Party       PCT 6                                                  00 
00060010006000139000011000047000081000000000000000000000000000000000000000000000000000000000000000000REP       BALLOTS CAST - Republican Party                         BALLOTS CAST - Republican Party       PCT 7                                                  00 
00060010007000070000009000024000037000000000000000000000000000000000000000000000000000000000000000000REP       BALLOTS CAST - Republican Party                         BALLOTS CAST - Republican Party       PCT 8                                                  00 
00060010008000242000029000073000140000000000000000000000000000000000000000000000000000000000000000000REP       BALLOTS CAST - Republican Party                         BALLOTS CAST - Republican Party       PCT 9                                                  00 
00060010009000157000010000055000092000000000000000000000000000000000000000000000000000000000000000000REP       BALLOTS CAST - Republican Party                         BALLOTS CAST - Republican Party       PCT 10                                                 00 
00060010010000189000018000042000129000000000000000000000000000000000000000000000000000000000000000000REP       BALLOTS CAST - Republican Party                         BALLOTS CAST - Republican Party       PCT 11                                                 00 
00060010011000016000002000004000010000000000000000000000000000000000000000000000000000000000000000000REP       BALLOTS CAST - Republican Party                         BALLOTS CAST - Republican Party       PCT 12                                                 00 
00060010012000140000011000014000115000000000000000000000000000000000000000000000000000000000000000000REP       BALLOTS CAST - Republican Party                         BALLOTS CAST - Republican Party       PCT 13                                                 00 
00060010013000051000007000012000032000000000000000000000000000000000000000000000000000000000000000000REP       BALLOTS CAST - Republican Party                         BALLOTS CAST - Republican Party       PCT 14                                                 00 
00060010014000078000006000030000042000000000000000000000000000000000000000000000000000000000000000000REP       BALLOTS CAST - Republican Party                         BALLOTS CAST - Republican Party       PCT 15                                                 00 
00060010015000029000001000011000017000000000000000000000000000000000000000000000000000000000000000000REP       BALLOTS CAST - Republican Party                         BALLOTS CAST - Republican Party       PCT 16                                                 00 
00070010001000032000015000008000009000000000000000000000000000000000000000000000000000000000000000000DEM       BALLOTS CAST - Democratic Party                         BALLOTS CAST - Democratic Party       PCT 2                                                  00 
00070010002000007000003000002000002000000000000000000000000000000000000000000000000000000000000000000DEM       BALLOTS CAST - Democratic Party                         BALLOTS CAST - Democratic Party       PCT 3                                                  00 
00070010003000002000000000001000001000000000000000000000000000000000000000000000000000000000000000000DEM       BALLOTS CAST - Democratic Party                         BALLOTS CAST - Democratic Party       PCT 4                                                  00 
00070010004000010000003000001000006000000000000000000000000000000000000000000000000000000000000000000DEM       BALLOTS CAST - Democratic Party                         BALLOTS CAST - Democratic Party       PCT 5                                                  00 
00070010005000005000003000001000001000000000000000000000000000000000000000000000000000000000000000000DEM       BALLOTS CAST - Democratic Party                         BALLOTS CAST - Democratic Party       PCT 6                                                  00 
00070010006000009000004000003000002000000000000000000000000000000000000000000000000000000000000000000DEM       BALLOTS CAST - Democratic Party                         BALLOTS CAST - Democratic Party       PCT 7                                                  00 
00070010007000005000003000000000002000000000000000000000000000000000000000000000000000000000000000000DEM       BALLOTS CAST - Democratic Party                         BALLOTS CAST - Democratic Party       PCT 8                                                  00 
00070010008000014000005000006000003000000000000000000000000000000000000000000000000000000000000000000DEM       BALLOTS CAST - Democratic Party                         BALLOTS CAST - Democratic Party       PCT 9                                                  00 
00070010009000004000001000000000003000000000000000000000000000000000000000000000000000000000000000000DEM       BALLOTS CAST - Democratic Party                         BALLOTS CAST - Democratic Party       PCT 10                                                 00 
00070010010000016000007000004000005000000000000000000000000000000000000000000000000000000000000000000DEM       BALLOTS CAST - Democratic Party                         BALLOTS CAST - Democratic Party       PCT 11                                                 00 
00070010011000003000002000000000001000000000000000000000000000000000000000000000000000000000000000000DEM       BALLOTS CAST - Democratic Party                         BALLOTS CAST - Democratic Party       PCT 12                                                 00 
00070010012000013000003000001000009000000000000000000000000000000000000000000000000000000000000000000DEM       BALLOTS CAST - Democratic Party                         BALLOTS CAST - Democratic Party       PCT 13                                                 00 
00070010013000002000001000001000000000000000000000000000000000000000000000000000000000000000000000000DEM       BALLOTS CAST - Democratic Party                         BALLOTS CAST - Democratic Party       PCT 14                                                 00 
00070010014000010000004000005000001000000000000000000000000000000000000000000000000000000000000000000DEM       BALLOTS CAST - Democratic Party                         BALLOTS CAST - Democratic Party       PCT 15                                                 00 
00070010015000005000002000002000001000000000000000000000000000000000000000000000000000000000000000000DEM       BALLOTS CAST - Democratic Party                         BALLOTS CAST - Democratic Party       PCT 16                                                 00 
00080010001000000000000000000000000000000000000000000000000000000000000000000000000000000000000000000NON       BALLOTS CAST - NONPARTISAN                              BALLOTS CAST - NONPARTISAN            PCT 2                                                  00 
00080010002000000000000000000000000000000000000000000000000000000000000000000000000000000000000000000NON       BALLOTS CAST - NONPARTISAN                              BALLOTS CAST - NONPARTISAN            PCT 3                                                  00 
00080010003000000000000000000000000000000000000000000000000000000000000000000000000000000000000000000NON       BALLOTS CAST - NONPARTISAN                              BALLOTS CAST - NONPARTISAN            PCT 4                                                  00 
00080010004000000000000000000000000000000000000000000000000000000000000000000000000000000000000000000NON       BALLOTS CAST - NONPARTISAN                              BALLOTS CAST - NONPARTISAN            PCT 5                                                  00 
00080010005000000000000000000000000000000000000000000000000000000000000000000000000000000000000000000NON       BALLOTS CAST - NONPARTISAN                              BALLOTS CAST - NONPARTISAN            PCT 6                                                  00 
00080010006000000000000000000000000000000000000000000000000000000000000000000000000000000000000000000NON       BALLOTS CAST - NONPARTISAN                              BALLOTS CAST - NONPARTISAN            PCT 7                                                  00 
00080010007000000000000000000000000000000000000000000000000000000000000000000000000000000000000000000NON       BALLOTS CAST - NONPARTISAN                              BALLOTS CAST - NONPARTISAN            PCT 8                                                  00 
00080010008000000000000000000000000000000000000000000000000000000000000000000000000000000000000000000NON       BALLOTS CAST - NONPARTISAN                              BALLOTS CAST - NONPARTISAN            PCT 9                                                  00 
00080010009000000000000000000000000000000000000000000000000000000000000000000000000000000000000000000NON       BALLOTS CAST - NONPARTISAN                              BALLOTS CAST - NONPARTISAN            PCT 10                                                 00 
00080010010000000000000000000000000000000000000000000000000000000000000000000000000000000000000000000NON       BALLOTS CAST - NONPARTISAN                              BALLOTS CAST - NONPARTISAN            PCT 11                                                 00 
00080010011000000000000000000000000000000000000000000000000000000000000000000000000000000000000000000NON       BALLOTS CAST - NONPARTISAN                              BALLOTS CAST - NONPARTISAN            PCT 12                                                 00 
00080010012000000000000000000000000000000000000000000000000000000000000000000000000000000000000000000NON       BALLOTS CAST - NONPARTISAN                              BALLOTS CAST - NONPARTISAN            PCT 13                                                 00 
00080010013000000000000000000000000000000000000000000000000000000000000000000000000000000000000000000NON       BALLOTS CAST - NONPARTISAN                              BALLOTS CAST - NONPARTISAN            PCT 14                                                 00 
00080010014000000000000000000000000000000000000000000000000000000000000000000000000000000000000000000NON       BALLOTS CAST - NONPARTISAN                              BALLOTS CAST - NONPARTISAN            PCT 15                                                 00 
00080010015000000000000000000000000000000000000000000000000000000000000000000000000000000000000000000NON       BALLOTS CAST - NONPARTISAN                              BALLOTS CAST - NONPARTISAN            PCT 16                                                 00 
00090010001000000000000000000000000000000000000000000000000000000000000000000000000000000000000000000          BALLOTS CAST - BLANK                                    BALLOTS CAST - BLANK                  PCT 2                                                  00 
00090010002000000000000000000000000000000000000000000000000000000000000000000000000000000000000000000          BALLOTS CAST - BLANK                                    BALLOTS CAST - BLANK                  PCT 3                                                  00 
00090010003000001000000000000000001000000000000000000000000000000000000000000000000000000000000000000          BALLOTS CAST - BLANK                                    BALLOTS CAST - BLANK                  PCT 4                                                  00 
00090010004000000000000000000000000000000000000000000000000000000000000000000000000000000000000000000          BALLOTS CAST - BLANK                                    BALLOTS CAST - BLANK                  PCT 5                                                  00 
00090010005000001000000000001000000000000000000000000000000000000000000000000000000000000000000000000          BALLOTS CAST - BLANK                                    BALLOTS CAST - BLANK                  PCT 6                                                  00 
00090010006000001000001000000000000000000000000000000000000000000000000000000000000000000000000000000          BALLOTS CAST - BLANK                                    BALLOTS CAST - BLANK                  PCT 7                                                  00 
00090010007000000000000000000000000000000000000000000000000000000000000000000000000000000000000000000          BALLOTS CAST - BLANK                                    BALLOTS CAST - BLANK                  PCT 8                                                  00 
00090010008000002000000000000000002000000000000000000000000000000000000000000000000000000000000000000          BALLOTS CAST - BLANK                                    BALLOTS CAST - BLANK                  PCT 9                                                  00 
00090010009000000000000000000000000000000000000000000000000000000000000000000000000000000000000000000          BALLOTS CAST - BLANK                                    BALLOTS CAST - BLANK                  PCT 10                                                 00 
00090010010000000000000000000000000000000000000000000000000000000000000000000000000000000000000000000          BALLOTS CAST - BLANK                                    BALLOTS CAST - BLANK                  PCT 11                                                 00 
00090010011000000000000000000000000000000000000000000000000000000000000000000000000000000000000000000          BALLOTS CAST - BLANK                                    BALLOTS CAST - BLANK                  PCT 12                                                 00 
00090010012000000000000000000000000000000000000000000000000000000000000000000000000000000000000000000          BALLOTS CAST - BLANK                                    BALLOTS CAST - BLANK                  PCT 13                                                 00 
00090010013000000000000000000000000000000000000000000000000000000000000000000000000000000000000000000          BALLOTS CAST - BLANK                                    BALLOTS CAST - BLANK                  PCT 14                                                 00 
00090010014000001000000000000000001000000000000000000000000000000000000000000000000000000000000000000          BALLOTS CAST - BLANK                                    BALLOTS CAST - BLANK                  PCT 15                                                 00 
00090010015000000000000000000000000000000000000000000000000000000000000000000000000000000000000000000          BALLOTS CAST - BLANK                                    BALLOTS CAST - BLANK                  PCT 16                                                 00 
00100010001000236000015000084000137000000000000000000000000000000000000000000000000000000000000000000REP       REP US Rep District 13                                  Ronny Jackson                         PCT 2                                                  01 
00100010002000095000001000021000073000000000000000000000000000000000000000000000000000000000000000000REP       REP US Rep District 13                                  Ronny Jackson                         PCT 3                                                  01 
00100010003000030000005000010000015000000000000000000000000000000000000000000000000000000000000000000REP       REP US Rep District 13                                  Ronny Jackson                         PCT 4                                                  01 
00100010004000064000006000013000045000000000000000000000000000000000000000000000000000000000000000000REP       REP US Rep District 13                                  Ronny Jackson                         PCT 5                                                  01 
00100010005000073000012000026000035000000000000000000000000000000000000000000000000000000000000000000REP       REP US Rep District 13                                  Ronny Jackson                         PCT 6                                                  01 
00100010006000080000006000028000046000000000000000000000000000000000000000000000000000000000000000000REP       REP US Rep District 13                                  Ronny Jackson                         PCT 7                                                  01 
00100010007000042000004000014000024000000000000000000000000000000000000000000000000000000000000000000REP       REP US Rep District 13                                  Ronny Jackson                         PCT 8                                                  01 
00100010008000161000014000056000091000000000000000000000000000000000000000000000000000000000000000000REP       REP US Rep District 13                                  Ronny Jackson                         PCT 9                                                  01 
00100010009000109000004000035000070000000000000000000000000000000000000000000000000000000000000000000REP       REP US Rep District 13                                  Ronny Jackson                         PCT 10                                                 01 
00100010010000140000010000027000103000000000000000000000000000000000000000000000000000000000000000000REP       REP US Rep District 13                                  Ronny Jackson                         PCT 11                                                 01 
00100010011000007000002000002000003000000000000000000000000000000000000000000000000000000000000000000REP       REP US Rep District 13                                  Ronny Jackson                         PCT 12                                                 01 
00100010012000080000006000005000069000000000000000000000000000000000000000000000000000000000000000000REP       REP US Rep District 13                                  Ronny Jackson                         PCT 13                                                 01 
00100010013000041000005000011000025000000000000000000000000000000000000000000000000000000000000000000REP       REP US Rep District 13                                  Ronny Jackson                         PCT 14                                                 01 
00100010014000049000004000016000029000000000000000000000000000000000000000000000000000000000000000000REP       REP US Rep District 13                                  Ronny Jackson                         PCT 15                                                 01 
00100010015000016000001000004000011000000000000000000000000000000000000000000000000000000000000000000REP       REP US Rep District 13                                  Ronny Jackson                         PCT 16                                                 01 
00100020001000100000010000036000054000000000000000000000000000000000000000000000000000000000000000000REP       REP US Rep District 13                                  Josh Winegarner                       PCT 2                                                  01 
00100020002000070000006000032000032000000000000000000000000000000000000000000000000000000000000000000REP       REP US Rep District 13                                  Josh Winegarner                       PCT 3                                                  01 
00100020003000015000002000004000009000000000000000000000000000000000000000000000000000000000000000000REP       REP US Rep District 13                                  Josh Winegarner                       PCT 4                                                  01 
00100020004000047000006000011000030000000000000000000000000000000000000000000000000000000000000000000REP       REP US Rep District 13                                  Josh Winegarner                       PCT 5                                                  01 
00100020005000034000003000009000022000000000000000000000000000000000000000000000000000000000000000000REP       REP US Rep District 13                                  Josh Winegarner                       PCT 6                                                  01 
00100020006000057000005000017000035000000000000000000000000000000000000000000000000000000000000000000REP       REP US Rep District 13                                  Josh Winegarner                       PCT 7                                                  01 
00100020007000028000005000010000013000000000000000000000000000000000000000000000000000000000000000000REP       REP US Rep District 13                                  Josh Winegarner                       PCT 8                                                  01 
00100020008000078000015000017000046000000000000000000000000000000000000000000000000000000000000000000REP       REP US Rep District 13                                  Josh Winegarner                       PCT 9                                                  01 
00100020009000048000006000020000022000000000000000000000000000000000000000000000000000000000000000000REP       REP US Rep District 13                                  Josh Winegarner                       PCT 10                                                 01 
00100020010000049000008000015000026000000000000000000000000000000000000000000000000000000000000000000REP       REP US Rep District 13                                  Josh Winegarner                       PCT 11                                                 01 
00100020011000009000000000002000007000000000000000000000000000000000000000000000000000000000000000000REP       REP US Rep District 13                                  Josh Winegarner                       PCT 12                                                 01 
00100020012000060000005000009000046000000000000000000000000000000000000000000000000000000000000000000REP       REP US Rep District 13                                  Josh Winegarner                       PCT 13                                                 01 
00100020013000010000002000001000007000000000000000000000000000000000000000000000000000000000000000000REP       REP US Rep District 13                                  Josh Winegarner                       PCT 14                                                 01 
00100020014000027000002000013000012000000000000000000000000000000000000000000000000000000000000000000REP       REP US Rep District 13                                  Josh Winegarner                       PCT 15                                                 01 
00100020015000013000000000007000006000000000000000000000000000000000000000000000000000000000000000000REP       REP US Rep District 13                                  Josh Winegarner                       PCT 16                                                 01 
00110010001000214000015000081000118000000000000000000000000000000000000000000000000000000000000000000REP       REP Justice,2nd Ct of App Dist, PL 7                    Brian Walker                          PCT 2                                                  01 
00110010002000117000007000037000073000000000000000000000000000000000000000000000000000000000000000000REP       REP Justice,2nd Ct of App Dist, PL 7                    Brian Walker                          PCT 3                                                  01 
00110010003000035000003000010000022000000000000000000000000000000000000000000000000000000000000000000REP       REP Justice,2nd Ct of App Dist, PL 7                    Brian Walker                          PCT 4                                                  01 
00110010004000079000006000018000055000000000000000000000000000000000000000000000000000000000000000000REP       REP Justice,2nd Ct of App Dist, PL 7                    Brian Walker                          PCT 5                                                  01 
00110010005000073000012000022000039000000000000000000000000000000000000000000000000000000000000000000REP       REP Justice,2nd Ct of App Dist, PL 7                    Brian Walker                          PCT 6                                                  01 
00110010006000103000009000032000062000000000000000000000000000000000000000000000000000000000000000000REP       REP Justice,2nd Ct of App Dist, PL 7                    Brian Walker                          PCT 7                                                  01 
00110010007000050000009000013000028000000000000000000000000000000000000000000000000000000000000000000REP       REP Justice,2nd Ct of App Dist, PL 7                    Brian Walker                          PCT 8                                                  01 
00110010008000178000023000053000102000000000000000000000000000000000000000000000000000000000000000000REP       REP Justice,2nd Ct of App Dist, PL 7                    Brian Walker                          PCT 9                                                  01 
00110010009000102000006000034000062000000000000000000000000000000000000000000000000000000000000000000REP       REP Justice,2nd Ct of App Dist, PL 7                    Brian Walker                          PCT 10                                                 01 
00110010010000130000014000028000088000000000000000000000000000000000000000000000000000000000000000000REP       REP Justice,2nd Ct of App Dist, PL 7                    Brian Walker                          PCT 11                                                 01 
00110010011000013000002000003000008000000000000000000000000000000000000000000000000000000000000000000REP       REP Justice,2nd Ct of App Dist, PL 7                    Brian Walker                          PCT 12                                                 01 
00110010012000096000011000009000076000000000000000000000000000000000000000000000000000000000000000000REP       REP Justice,2nd Ct of App Dist, PL 7                    Brian Walker                          PCT 13                                                 01 
00110010013000035000006000006000023000000000000000000000000000000000000000000000000000000000000000000REP       REP Justice,2nd Ct of App Dist, PL 7                    Brian Walker                          PCT 14                                                 01 
00110010014000057000004000018000035000000000000000000000000000000000000000000000000000000000000000000REP       REP Justice,2nd Ct of App Dist, PL 7                    Brian Walker                          PCT 15                                                 01 
00110010015000022000001000008000013000000000000000000000000000000000000000000000000000000000000000000REP       REP Justice,2nd Ct of App Dist, PL 7                    Brian Walker                          PCT 16                                                 01 
00110020001000096000010000026000060000000000000000000000000000000000000000000000000000000000000000000REP       REP Justice,2nd Ct of App Dist, PL 7                    Elizabeth Beach                       PCT 2                                                  01 
00110020002000041000000000014000027000000000000000000000000000000000000000000000000000000000000000000REP       REP Justice,2nd Ct of App Dist, PL 7                    Elizabeth Beach                       PCT 3                                                  01 
00110020003000009000004000004000001000000000000000000000000000000000000000000000000000000000000000000REP       REP Justice,2nd Ct of App Dist, PL 7                    Elizabeth Beach                       PCT 4                                                  01 
00110020004000024000006000003000015000000000000000000000000000000000000000000000000000000000000000000REP       REP Justice,2nd Ct of App Dist, PL 7                    Elizabeth Beach                       PCT 5                                                  01 
00110020005000025000003000010000012000000000000000000000000000000000000000000000000000000000000000000REP       REP Justice,2nd Ct of App Dist, PL 7                    Elizabeth Beach                       PCT 6                                                  01 
00110020006000023000001000011000011000000000000000000000000000000000000000000000000000000000000000000REP       REP Justice,2nd Ct of App Dist, PL 7                    Elizabeth Beach                       PCT 7                                                  01 
00110020007000017000000000009000008000000000000000000000000000000000000000000000000000000000000000000REP       REP Justice,2nd Ct of App Dist, PL 7                    Elizabeth Beach                       PCT 8                                                  01 
00110020008000046000005000017000024000000000000000000000000000000000000000000000000000000000000000000REP       REP Justice,2nd Ct of App Dist, PL 7                    Elizabeth Beach                       PCT 9                                                  01 
00110020009000038000001000015000022000000000000000000000000000000000000000000000000000000000000000000REP       REP Justice,2nd Ct of App Dist, PL 7                    Elizabeth Beach                       PCT 10                                                 01 
00110020010000044000003000011000030000000000000000000000000000000000000000000000000000000000000000000REP       REP Justice,2nd Ct of App Dist, PL 7                    Elizabeth Beach                       PCT 11                                                 01 
00110020011000003000000000001000002000000000000000000000000000000000000000000000000000000000000000000REP       REP Justice,2nd Ct of App Dist, PL 7                    Elizabeth Beach                       PCT 12                                                 01 
00110020012000034000000000004000030000000000000000000000000000000000000000000000000000000000000000000REP       REP Justice,2nd Ct of App Dist, PL 7                    Elizabeth Beach                       PCT 13                                                 01 
00110020013000010000001000004000005000000000000000000000000000000000000000000000000000000000000000000REP       REP Justice,2nd Ct of App Dist, PL 7                    Elizabeth Beach                       PCT 14                                                 01 
00110020014000016000001000011000004000000000000000000000000000000000000000000000000000000000000000000REP       REP Justice,2nd Ct of App Dist, PL 7                    Elizabeth Beach                       PCT 15                                                 01 
00110020015000005000000000003000002000000000000000000000000000000000000000000000000000000000000000000REP       REP Justice,2nd Ct of App Dist, PL 7                    Elizabeth Beach                       PCT 16                                                 01 
00120010001000026000013000007000006000000000000000000000000000000000000000000000000000000000000000000DEM       DEM US Senator                                          Mary "MJ" Hegar                       PCT 2                                                  01 
00120010002000006000002000002000002000000000000000000000000000000000000000000000000000000000000000000DEM       DEM US Senator                                          Mary "MJ" Hegar                       PCT 3                                                  01 
00120010003000001000000000000000001000000000000000000000000000000000000000000000000000000000000000000DEM       DEM US Senator                                          Mary "MJ" Hegar                       PCT 4                                                  01 
00120010004000006000001000001000004000000000000000000000000000000000000000000000000000000000000000000DEM       DEM US Senator                                          Mary "MJ" Hegar                       PCT 5                                                  01 
00120010005000004000003000000000001000000000000000000000000000000000000000000000000000000000000000000DEM       DEM US Senator                                          Mary "MJ" Hegar                       PCT 6                                                  01 
00120010006000004000001000002000001000000000000000000000000000000000000000000000000000000000000000000DEM       DEM US Senator                                          Mary "MJ" Hegar                       PCT 7                                                  01 
00120010007000004000003000000000001000000000000000000000000000000000000000000000000000000000000000000DEM       DEM US Senator                                          Mary "MJ" Hegar                       PCT 8                                                  01 
00120010008000009000005000002000002000000000000000000000000000000000000000000000000000000000000000000DEM       DEM US Senator                                          Mary "MJ" Hegar                       PCT 9                                                  01 
00120010009000004000001000000000003000000000000000000000000000000000000000000000000000000000000000000DEM       DEM US Senator                                          Mary "MJ" Hegar                       PCT 10                                                 01 
00120010010000013000004000004000005000000000000000000000000000000000000000000000000000000000000000000DEM       DEM US Senator                                          Mary "MJ" Hegar                       PCT 11                                                 01 
00120010011000002000001000000000001000000000000000000000000000000000000000000000000000000000000000000DEM       DEM US Senator                                          Mary "MJ" Hegar                       PCT 12                                                 01 
00120010012000010000002000000000008000000000000000000000000000000000000000000000000000000000000000000DEM       DEM US Senator                                          Mary "MJ" Hegar                       PCT 13                                                 01 
00120010013000001000001000000000000000000000000000000000000000000000000000000000000000000000000000000DEM       DEM US Senator                                          Mary "MJ" Hegar                       PCT 14                                                 01 
00120010014000009000004000004000001000000000000000000000000000000000000000000000000000000000000000000DEM       DEM US Senator                                          Mary "MJ" Hegar                       PCT 15                                                 01 
00120010015000004000002000002000000000000000000000000000000000000000000000000000000000000000000000000DEM       DEM US Senator                                          Mary "MJ" Hegar                       PCT 16                                                 01 
00120020001000006000002000001000003000000000000000000000000000000000000000000000000000000000000000000DEM       DEM US Senator                                          Royce West                            PCT 2                                                  01 
00120020002000001000001000000000000000000000000000000000000000000000000000000000000000000000000000000DEM       DEM US Senator                                          Royce West                            PCT 3                                                  01 
00120020003000001000000000001000000000000000000000000000000000000000000000000000000000000000000000000DEM       DEM US Senator                                          Royce West                            PCT 4                                                  01 
00120020004000004000002000000000002000000000000000000000000000000000000000000000000000000000000000000DEM       DEM US Senator                                          Royce West                            PCT 5                                                  01 
00120020005000001000000000001000000000000000000000000000000000000000000000000000000000000000000000000DEM       DEM US Senator                                          Royce West                            PCT 6                                                  01 
00120020006000005000003000001000001000000000000000000000000000000000000000000000000000000000000000000DEM       DEM US Senator                                          Royce West                            PCT 7                                                  01 
00120020007000001000000000000000001000000000000000000000000000000000000000000000000000000000000000000DEM       DEM US Senator                                          Royce West                            PCT 8                                                  01 
00120020008000004000000000003000001000000000000000000000000000000000000000000000000000000000000000000DEM       DEM US Senator                                          Royce West                            PCT 9                                                  01 
00120020009000000000000000000000000000000000000000000000000000000000000000000000000000000000000000000DEM       DEM US Senator                                          Royce West                            PCT 10                                                 01 
00120020010000003000003000000000000000000000000000000000000000000000000000000000000000000000000000000DEM       DEM US Senator                                          Royce West                            PCT 11                                                 01 
00120020011000001000001000000000000000000000000000000000000000000000000000000000000000000000000000000DEM       DEM US Senator                                          Royce West                            PCT 12                                                 01 
00120020012000002000001000001000000000000000000000000000000000000000000000000000000000000000000000000DEM       DEM US Senator                                          Royce West                            PCT 13                                                 01 
00120020013000001000000000001000000000000000000000000000000000000000000000000000000000000000000000000DEM       DEM US Senator                                          Royce West                            PCT 14                                                 01 
00120020014000001000000000001000000000000000000000000000000000000000000000000000000000000000000000000DEM       DEM US Senator                                          Royce West                            PCT 15                                                 01 
00120020015000001000000000000000001000000000000000000000000000000000000000000000000000000000000000000DEM       DEM US Senator                                          Royce West                            PCT 16                                                 01 
00130010001000019000009000007000003000000000000000000000000000000000000000000000000000000000000000000DEM       DEM US Rep District 13                                  Gus Trujillo                          PCT 2                                                  01 
00130010002000005000002000001000002000000000000000000000000000000000000000000000000000000000000000000DEM       DEM US Rep District 13                                  Gus Trujillo                          PCT 3                                                  01 
00130010003000001000000000001000000000000000000000000000000000000000000000000000000000000000000000000DEM       DEM US Rep District 13                                  Gus Trujillo                          PCT 4                                                  01 
00130010004000006000000000000000006000000000000000000000000000000000000000000000000000000000000000000DEM       DEM US Rep District 13                                  Gus Trujillo                          PCT 5                                                  01 
00130010005000000000000000000000000000000000000000000000000000000000000000000000000000000000000000000DEM       DEM US Rep District 13                                  Gus Trujillo                          PCT 6                                                  01 
00130010006000008000003000003000002000000000000000000000000000000000000000000000000000000000000000000DEM       DEM US Rep District 13                                  Gus Trujillo                          PCT 7                                                  01 
00130010007000002000002000000000000000000000000000000000000000000000000000000000000000000000000000000DEM       DEM US Rep District 13                                  Gus Trujillo                          PCT 8                                                  01 
00130010008000011000004000006000001000000000000000000000000000000000000000000000000000000000000000000DEM       DEM US Rep District 13                                  Gus Trujillo                          PCT 9                                                  01 
00130010009000004000001000000000003000000000000000000000000000000000000000000000000000000000000000000DEM       DEM US Rep District 13                                  Gus Trujillo                          PCT 10                                                 01 
00130010010000009000004000001000004000000000000000000000000000000000000000000000000000000000000000000DEM       DEM US Rep District 13                                  Gus Trujillo                          PCT 11                                                 01 
00130010011000001000001000000000000000000000000000000000000000000000000000000000000000000000000000000DEM       DEM US Rep District 13                                  Gus Trujillo                          PCT 12                                                 01 
00130010012000008000003000000000005000000000000000000000000000000000000000000000000000000000000000000DEM       DEM US Rep District 13                                  Gus Trujillo                          PCT 13                                                 01 
00130010013000001000001000000000000000000000000000000000000000000000000000000000000000000000000000000DEM       DEM US Rep District 13                                  Gus Trujillo                          PCT 14                                                 01 
00130010014000007000003000003000001000000000000000000000000000000000000000000000000000000000000000000DEM       DEM US Rep District 13                                  Gus Trujillo                          PCT 15                                                 01 
00130010015000004000002000001000001000000000000000000000000000000000000000000000000000000000000000000DEM       DEM US Rep District 13                                  Gus Trujillo                          PCT 16                                                 01 
00130020001000012000006000001000005000000000000000000000000000000000000000000000000000000000000000000DEM       DEM US Rep District 13                                  Greg Sagan                            PCT 2                                                  01 
00130020002000002000001000001000000000000000000000000000000000000000000000000000000000000000000000000DEM       DEM US Rep District 13                                  Greg Sagan                            PCT 3                                                  01 
00130020003000001000000000000000001000000000000000000000000000000000000000000000000000000000000000000DEM       DEM US Rep District 13                                  Greg Sagan                            PCT 4                                                  01 
00130020004000004000003000001000000000000000000000000000000000000000000000000000000000000000000000000DEM       DEM US Rep District 13                                  Greg Sagan                            PCT 5                                                  01 
00130020005000005000003000001000001000000000000000000000000000000000000000000000000000000000000000000DEM       DEM US Rep District 13                                  Greg Sagan                            PCT 6                                                  01 
00130020006000001000001000000000000000000000000000000000000000000000000000000000000000000000000000000DEM       DEM US Rep District 13                                  Greg Sagan                            PCT 7                                                  01 
00130020007000003000001000000000002000000000000000000000000000000000000000000000000000000000000000000DEM       DEM US Rep District 13                                  Greg Sagan                            PCT 8                                                  01 
00130020008000002000001000000000001000000000000000000000000000000000000000000000000000000000000000000DEM       DEM US Rep District 13                                  Greg Sagan                            PCT 9                                                  01 
00130020009000000000000000000000000000000000000000000000000000000000000000000000000000000000000000000DEM       DEM US Rep District 13                                  Greg Sagan                            PCT 10                                                 01 
00130020010000006000003000002000001000000000000000000000000000000000000000000000000000000000000000000DEM       DEM US Rep District 13                                  Greg Sagan                            PCT 11                                                 01 
00130020011000002000001000000000001000000000000000000000000000000000000000000000000000000000000000000DEM       DEM US Rep District 13                                  Greg Sagan                            PCT 12                                                 01 
00130020012000003000000000001000002000000000000000000000000000000000000000000000000000000000000000000DEM       DEM US Rep District 13                                  Greg Sagan                            PCT 13                                                 01 
00130020013000001000000000001000000000000000000000000000000000000000000000000000000000000000000000000DEM       DEM US Rep District 13                                  Greg Sagan                            PCT 14                                                 01 
00130020014000003000001000002000000000000000000000000000000000000000000000000000000000000000000000000DEM       DEM US Rep District 13                                  Greg Sagan                            PCT 15                                                 01 
00130020015000001000000000001000000000000000000000000000000000000000000000000000000000000000000000000DEM       DEM US Rep District 13                                  Greg Sagan                            PCT 16                                                 01 
00140010001000020000012000002000006000000000000000000000000000000000000000000000000000000000000000000DEM       DEM Railroad Commissioner                               Chrysta Castaneda                     PCT 2                                                  01 
00140010002000002000000000001000001000000000000000000000000000000000000000000000000000000000000000000DEM       DEM Railroad Commissioner                               Chrysta Castaneda                     PCT 3                                                  01 
00140010003000001000000000001000000000000000000000000000000000000000000000000000000000000000000000000DEM       DEM Railroad Commissioner                               Chrysta Castaneda                     PCT 4                                                  01 
00140010004000007000002000001000004000000000000000000000000000000000000000000000000000000000000000000DEM       DEM Railroad Commissioner                               Chrysta Castaneda                     PCT 5                                                  01 
00140010005000002000002000000000000000000000000000000000000000000000000000000000000000000000000000000DEM       DEM Railroad Commissioner                               Chrysta Castaneda                     PCT 6                                                  01 
00140010006000004000002000001000001000000000000000000000000000000000000000000000000000000000000000000DEM       DEM Railroad Commissioner                               Chrysta Castaneda                     PCT 7                                                  01 
00140010007000003000002000000000001000000000000000000000000000000000000000000000000000000000000000000DEM       DEM Railroad Commissioner                               Chrysta Castaneda                     PCT 8                                                  01 
00140010008000004000001000003000000000000000000000000000000000000000000000000000000000000000000000000DEM       DEM Railroad Commissioner                               Chrysta Castaneda                     PCT 9                                                  01 
00140010009000003000001000000000002000000000000000000000000000000000000000000000000000000000000000000DEM       DEM Railroad Commissioner                               Chrysta Castaneda                     PCT 10                                                 01 
00140010010000010000006000002000002000000000000000000000000000000000000000000000000000000000000000000DEM       DEM Railroad Commissioner                               Chrysta Castaneda                     PCT 11                                                 01 
00140010011000002000001000000000001000000000000000000000000000000000000000000000000000000000000000000DEM       DEM Railroad Commissioner                               Chrysta Castaneda                     PCT 12                                                 01 
00140010012000007000003000000000004000000000000000000000000000000000000000000000000000000000000000000DEM       DEM Railroad Commissioner                               Chrysta Castaneda                     PCT 13                                                 01 
00140010013000000000000000000000000000000000000000000000000000000000000000000000000000000000000000000DEM       DEM Railroad Commissioner                               Chrysta Castaneda                     PCT 14                                                 01 
00140010014000007000002000004000001000000000000000000000000000000000000000000000000000000000000000000DEM       DEM Railroad Commissioner                               Chrysta Castaneda                     PCT 15                                                 01 
00140010015000005000002000002000001000000000000000000000000000000000000000000000000000000000000000000DEM       DEM Railroad Commissioner                               Chrysta Castaneda                     PCT 16                                                 01 
00140020001000010000003000006000001000000000000000000000000000000000000000000000000000000000000000000DEM       DEM Railroad Commissioner                               Roberto R. "Beto" Alonzo              PCT 2                                                  01 
00140020002000005000003000001000001000000000000000000000000000000000000000000000000000000000000000000DEM       DEM Railroad Commissioner                               Roberto R. "Beto" Alonzo              PCT 3                                                  01 
00140020003000001000000000000000001000000000000000000000000000000000000000000000000000000000000000000DEM       DEM Railroad Commissioner                               Roberto R. "Beto" Alonzo              PCT 4                                                  01 
00140020004000002000001000000000001000000000000000000000000000000000000000000000000000000000000000000DEM       DEM Railroad Commissioner                               Roberto R. "Beto" Alonzo              PCT 5                                                  01 
00140020005000003000001000001000001000000000000000000000000000000000000000000000000000000000000000000DEM       DEM Railroad Commissioner                               Roberto R. "Beto" Alonzo              PCT 6                                                  01 
00140020006000005000002000002000001000000000000000000000000000000000000000000000000000000000000000000DEM       DEM Railroad Commissioner                               Roberto R. "Beto" Alonzo              PCT 7                                                  01 
00140020007000002000001000000000001000000000000000000000000000000000000000000000000000000000000000000DEM       DEM Railroad Commissioner                               Roberto R. "Beto" Alonzo              PCT 8                                                  01 
00140020008000008000003000003000002000000000000000000000000000000000000000000000000000000000000000000DEM       DEM Railroad Commissioner                               Roberto R. "Beto" Alonzo              PCT 9                                                  01 
00140020009000001000000000000000001000000000000000000000000000000000000000000000000000000000000000000DEM       DEM Railroad Commissioner                               Roberto R. "Beto" Alonzo              PCT 10                                                 01 
00140020010000006000001000002000003000000000000000000000000000000000000000000000000000000000000000000DEM       DEM Railroad Commissioner                               Roberto R. "Beto" Alonzo              PCT 11                                                 01 
00140020011000001000001000000000000000000000000000000000000000000000000000000000000000000000000000000DEM       DEM Railroad Commissioner                               Roberto R. "Beto" Alonzo              PCT 12                                                 01 
00140020012000004000000000001000003000000000000000000000000000000000000000000000000000000000000000000DEM       DEM Railroad Commissioner                               Roberto R. "Beto" Alonzo              PCT 13                                                 01 
00140020013000002000001000001000000000000000000000000000000000000000000000000000000000000000000000000DEM       DEM Railroad Commissioner                               Roberto R. "Beto" Alonzo              PCT 14                                                 01 
00140020014000003000002000001000000000000000000000000000000000000000000000000000000000000000000000000DEM       DEM Railroad Commissioner                               Roberto R. "Beto" Alonzo              PCT 15                                                 01 
00140020015000000000000000000000000000000000000000000000000000000000000000000000000000000000000000000DEM       DEM Railroad Commissioner                               Roberto R. "Beto" Alonzo              PCT 16                                                 01 
