00010010001002572000000000000000000000000000000000000000000000000000000000000000000000000000000000000          REGISTERED VOTERS - TOTAL                               REGISTERED VOTERS - TOTAL             Precinct 101                                           00 
00010010002001730000000000000000000000000000000000000000000000000000000000000000000000000000000000000          REGISTERED VOTERS - TOTAL                               REGISTERED VOTERS - TOTAL             Precinct 201                                           00 
00010010003001666000000000000000000000000000000000000000000000000000000000000000000000000000000000000          REGISTERED VOTERS - TOTAL                               REGISTERED VOTERS - TOTAL             Precinct 202                                           00 
00010010004000069000000000000000000000000000000000000000000000000000000000000000000000000000000000000          REGISTERED VOTERS - TOTAL                               REGISTERED VOTERS - TOTAL             Precinct 203                                           00 
00010010005001958000000000000000000000000000000000000000000000000000000000000000000000000000000000000          REGISTERED VOTERS - TOTAL                               REGISTERED VOTERS - TOTAL             Precinct 301                                           00 
00010010006001080000000000000000000000000000000000000000000000000000000000000000000000000000000000000          REGISTERED VOTERS - TOTAL                               REGISTERED VOTERS - TOTAL             Precinct 401                                           00 
00010010007000753000000000000000000000000000000000000000000000000000000000000000000000000000000000000          REGISTERED VOTERS - TOTAL                               REGISTERED VOTERS - TOTAL             Precinct 402                                           00 
00040010001000023000008000009000006000000000000000000000000000000000000000000000000000000000000000000DEM       BALLOTS CAST - Democratic Party                         BALLOTS CAST - Democratic Party       Precinct 101                                           00 
00040010002000017000003000007000007000000000000000000000000000000000000000000000000000000000000000000DEM       BALLOTS CAST - Democratic Party                         BALLOTS CAST - Democratic Party       Precinct 201                                           00 
00040010003000011000001000004000006000000000000000000000000000000000000000000000000000000000000000000DEM       BALLOTS CAST - Democratic Party                         BALLOTS CAST - Democratic Party       Precinct 202                                           00 
00040010004000000000000000000000000000000000000000000000000000000000000000000000000000000000000000000DEM       BALLOTS CAST - Democratic Party                         BALLOTS CAST - Democratic Party       Precinct 203                                           00 
00040010005000016000010000002000004000000000000000000000000000000000000000000000000000000000000000000DEM       BALLOTS CAST - Democratic Party                         BALLOTS CAST - Democratic Party       Precinct 301                                           00 
00040010006000007000001000000000006000000000000000000000000000000000000000000000000000000000000000000DEM       BALLOTS CAST - Democratic Party                         BALLOTS CAST - Democratic Party       Precinct 401                                           00 
00040010007000001000000000000000001000000000000000000000000000000000000000000000000000000000000000000DEM       BALLOTS CAST - Democratic Party                         BALLOTS CAST - Democratic Party       Precinct 402                                           00 
00050010001000019000005000009000005000000000000000000000000000000000000000000000000000000000000000000DEM       DEM US Senator                                          Mary "MJ" Hegar                       Precinct 101                                           01 
00050010002000007000000000003000004000000000000000000000000000000000000000000000000000000000000000000DEM       DEM US Senator                                          Mary "MJ" Hegar                       Precinct 201                                           01 
00050010003000008000000000003000005000000000000000000000000000000000000000000000000000000000000000000DEM       DEM US Senator                                          Mary "MJ" Hegar                       Precinct 202                                           01 
00050010004000000000000000000000000000000000000000000000000000000000000000000000000000000000000000000DEM       DEM US Senator                                          Mary "MJ" Hegar                       Precinct 203                                           01 
00050010005000012000008000002000002000000000000000000000000000000000000000000000000000000000000000000DEM       DEM US Senator                                          Mary "MJ" Hegar                       Precinct 301                                           01 
00050010006000003000001000000000002000000000000000000000000000000000000000000000000000000000000000000DEM       DEM US Senator                                          Mary "MJ" Hegar                       Precinct 401                                           01 
00050010007000001000000000000000001000000000000000000000000000000000000000000000000000000000000000000DEM       DEM US Senator                                          Mary "MJ" Hegar                       Precinct 402                                           01 
00050020001000004000003000000000001000000000000000000000000000000000000000000000000000000000000000000DEM       DEM US Senator                                          Royce West                            Precinct 101                                           01 
00050020002000010000003000004000003000000000000000000000000000000000000000000000000000000000000000000DEM       DEM US Senator                                          Royce West                            Precinct 201                                           01 
00050020003000003000001000001000001000000000000000000000000000000000000000000000000000000000000000000DEM       DEM US Senator                                          Royce West                            Precinct 202                                           01 
00050020004000000000000000000000000000000000000000000000000000000000000000000000000000000000000000000DEM       DEM US Senator                                          Royce West                            Precinct 203                                           01 
00050020005000004000002000000000002000000000000000000000000000000000000000000000000000000000000000000DEM       DEM US Senator                                          Royce West                            Precinct 301                                           01 
00050020006000003000000000000000003000000000000000000000000000000000000000000000000000000000000000000DEM       DEM US Senator                                          Royce West                            Precinct 401                                           01 
00050020007000000000000000000000000000000000000000000000000000000000000000000000000000000000000000000DEM       DEM US Senator                                          Royce West                            Precinct 402                                           01 
00060010001000012000004000004000004000000000000000000000000000000000000000000000000000000000000000000DEM       DEM US Representative, Dist 13                          Greg Sagan                            Precinct 101                                           01 
00060010002000006000002000002000002000000000000000000000000000000000000000000000000000000000000000000DEM       DEM US Representative, Dist 13                          Greg Sagan                            Precinct 201                                           01 
00060010003000006000001000001000004000000000000000000000000000000000000000000000000000000000000000000DEM       DEM US Representative, Dist 13                          Greg Sagan                            Precinct 202                                           01 
00060010004000000000000000000000000000000000000000000000000000000000000000000000000000000000000000000DEM       DEM US Representative, Dist 13                          Greg Sagan                            Precinct 203                                           01 
00060010005000005000002000000000003000000000000000000000000000000000000000000000000000000000000000000DEM       DEM US Representative, Dist 13                          Greg Sagan                            Precinct 301                                           01 
00060010006000003000001000000000002000000000000000000000000000000000000000000000000000000000000000000DEM       DEM US Representative, Dist 13                          Greg Sagan                            Precinct 401                                           01 
00060010007000000000000000000000000000000000000000000000000000000000000000000000000000000000000000000DEM       DEM US Representative, Dist 13                          Greg Sagan                            Precinct 402                                           01 
00060020001000011000004000005000002000000000000000000000000000000000000000000000000000000000000000000DEM       DEM US Representative, Dist 13                          Gus Trujillo                          Precinct 101                                           01 
00060020002000011000001000005000005000000000000000000000000000000000000000000000000000000000000000000DEM       DEM US Representative, Dist 13                          Gus Trujillo                          Precinct 201                                           01 
00060020003000005000000000003000002000000000000000000000000000000000000000000000000000000000000000000DEM       DEM US Representative, Dist 13                          Gus Trujillo                          Precinct 202                                           01 
00060020004000000000000000000000000000000000000000000000000000000000000000000000000000000000000000000DEM       DEM US Representative, Dist 13                          Gus Trujillo                          Precinct 203                                           01 
00060020005000011000008000002000001000000000000000000000000000000000000000000000000000000000000000000DEM       DEM US Representative, Dist 13                          Gus Trujillo                          Precinct 301                                           01 
00060020006000003000000000000000003000000000000000000000000000000000000000000000000000000000000000000DEM       DEM US Representative, Dist 13                          Gus Trujillo                          Precinct 401                                           01 
00060020007000001000000000000000001000000000000000000000000000000000000000000000000000000000000000000DEM       DEM US Representative, Dist 13                          Gus Trujillo                          Precinct 402                                           01 
00070010001000016000006000004000006000000000000000000000000000000000000000000000000000000000000000000DEM       DEM Railroad Commissioner                               Roberto R. "Beto" Alonzo              Precinct 101                                           01 
00070010002000010000002000003000005000000000000000000000000000000000000000000000000000000000000000000DEM       DEM Railroad Commissioner                               Roberto R. "Beto" Alonzo              Precinct 201                                           01 
00070010003000006000001000001000004000000000000000000000000000000000000000000000000000000000000000000DEM       DEM Railroad Commissioner                               Roberto R. "Beto" Alonzo              Precinct 202                                           01 
00070010004000000000000000000000000000000000000000000000000000000000000000000000000000000000000000000DEM       DEM Railroad Commissioner                               Roberto R. "Beto" Alonzo              Precinct 203                                           01 
00070010005000009000004000001000004000000000000000000000000000000000000000000000000000000000000000000DEM       DEM Railroad Commissioner                               Roberto R. "Beto" Alonzo              Precinct 301                                           01 
00070010006000003000001000000000002000000000000000000000000000000000000000000000000000000000000000000DEM       DEM Railroad Commissioner                               Roberto R. "Beto" Alonzo              Precinct 401                                           01 
00070010007000000000000000000000000000000000000000000000000000000000000000000000000000000000000000000DEM       DEM Railroad Commissioner                               Roberto R. "Beto" Alonzo              Precinct 402                                           01 
00070020001000007000002000005000000000000000000000000000000000000000000000000000000000000000000000000DEM       DEM Railroad Commissioner                               Chrysta Castaneda                     Precinct 101                                           01 
00070020002000007000001000004000002000000000000000000000000000000000000000000000000000000000000000000DEM       DEM Railroad Commissioner                               Chrysta Castaneda                     Precinct 201                                           01 
00070020003000005000000000003000002000000000000000000000000000000000000000000000000000000000000000000DEM       DEM Railroad Commissioner                               Chrysta Castaneda                     Precinct 202                                           01 
00070020004000000000000000000000000000000000000000000000000000000000000000000000000000000000000000000DEM       DEM Railroad Commissioner                               Chrysta Castaneda                     Precinct 203                                           01 
00070020005000007000006000001000000000000000000000000000000000000000000000000000000000000000000000000DEM       DEM Railroad Commissioner                               Chrysta Castaneda                     Precinct 301                                           01 
00070020006000004000000000000000004000000000000000000000000000000000000000000000000000000000000000000DEM       DEM Railroad Commissioner                               Chrysta Castaneda                     Precinct 401                                           01 
00070020007000001000000000000000001000000000000000000000000000000000000000000000000000000000000000000DEM       DEM Railroad Commissioner                               Chrysta Castaneda                     Precinct 402                                           01 
