00010010001001056000000000000000000000000000000000000000000000000000000000000000000000000000000000000          REGISTERED VOTERS - TOTAL                               REGISTERED VOTERS - TOTAL             Precinct 1                                             00 
00010010002001058000000000000000000000000000000000000000000000000000000000000000000000000000000000000          REGISTERED VOTERS - TOTAL                               REGISTERED VOTERS - TOTAL             Precinct 2                                             00 
00010010003001761000000000000000000000000000000000000000000000000000000000000000000000000000000000000          REGISTERED VOTERS - TOTAL                               REGISTERED VOTERS - TOTAL             Precinct 3                                             00 
00010010004001702000000000000000000000000000000000000000000000000000000000000000000000000000000000000          REGISTERED VOTERS - TOTAL                               REGISTERED VOTERS - TOTAL             Precinct 4                                             00 
00010010005000153000000000000000000000000000000000000000000000000000000000000000000000000000000000000          REGISTERED VOTERS - TOTAL                               REGISTERED VOTERS - TOTAL             Precinct 5                                             00 
00010010006001077000000000000000000000000000000000000000000000000000000000000000000000000000000000000          REGISTERED VOTERS - TOTAL                               REGISTERED VOTERS - TOTAL             Precinct 6                                             00 
00010010007000291000000000000000000000000000000000000000000000000000000000000000000000000000000000000          REGISTERED VOTERS - TOTAL                               REGISTERED VOTERS - TOTAL             Precinct 7                                             00 
00010010008000161000000000000000000000000000000000000000000000000000000000000000000000000000000000000          REGISTERED VOTERS - TOTAL                               REGISTERED VOTERS - TOTAL             Precinct 8                                             00 
00010010009001452000000000000000000000000000000000000000000000000000000000000000000000000000000000000          REGISTERED VOTERS - TOTAL                               REGISTERED VOTERS - TOTAL             Precinct 9                                             00 
00020010001000013000004000003000006000000000000000000000000000000000000000000000000000000000000000000          BALLOTS CAST - TOTAL                                    BALLOTS CAST - TOTAL                  Precinct 1                                             00 
00020010002000019000012000003000004000000000000000000000000000000000000000000000000000000000000000000          BALLOTS CAST - TOTAL                                    BALLOTS CAST - TOTAL                  Precinct 2                                             00 
00020010003000017000009000004000004000000000000000000000000000000000000000000000000000000000000000000          BALLOTS CAST - TOTAL                                    BALLOTS CAST - TOTAL                  Precinct 3                                             00 
00020010004000024000013000002000009000000000000000000000000000000000000000000000000000000000000000000          BALLOTS CAST - TOTAL                                    BALLOTS CAST - TOTAL                  Precinct 4                                             00 
00020010005000002000000000000000002000000000000000000000000000000000000000000000000000000000000000000          BALLOTS CAST - TOTAL                                    BALLOTS CAST - TOTAL                  Precinct 5                                             00 
00020010006000012000004000005000003000000000000000000000000000000000000000000000000000000000000000000          BALLOTS CAST - TOTAL                                    BALLOTS CAST - TOTAL                  Precinct 6                                             00 
00020010007000000000000000000000000000000000000000000000000000000000000000000000000000000000000000000          BALLOTS CAST - TOTAL                                    BALLOTS CAST - TOTAL                  Precinct 7                                             00 
00020010008000000000000000000000000000000000000000000000000000000000000000000000000000000000000000000          BALLOTS CAST - TOTAL                                    BALLOTS CAST - TOTAL                  Precinct 8                                             00 
00020010009000014000009000004000001000000000000000000000000000000000000000000000000000000000000000000          BALLOTS CAST - TOTAL                                    BALLOTS CAST - TOTAL                  Precinct 9                                             00 
00030010001000000000000000000000000000000000000000000000000000000000000000000000000000000000000000000          BALLOTS CAST - BLANK                                    BALLOTS CAST - BLANK                  Precinct 1                                             00 
00030010002000000000000000000000000000000000000000000000000000000000000000000000000000000000000000000          BALLOTS CAST - BLANK                                    BALLOTS CAST - BLANK                  Precinct 2                                             00 
00030010003000000000000000000000000000000000000000000000000000000000000000000000000000000000000000000          BALLOTS CAST - BLANK                                    BALLOTS CAST - BLANK                  Precinct 3                                             00 
00030010004000000000000000000000000000000000000000000000000000000000000000000000000000000000000000000          BALLOTS CAST - BLANK                                    BALLOTS CAST - BLANK                  Precinct 4                                             00 
00030010005000000000000000000000000000000000000000000000000000000000000000000000000000000000000000000          BALLOTS CAST - BLANK                                    BALLOTS CAST - BLANK                  Precinct 5                                             00 
00030010006000000000000000000000000000000000000000000000000000000000000000000000000000000000000000000          BALLOTS CAST - BLANK                                    BALLOTS CAST - BLANK                  Precinct 6                                             00 
00030010007000000000000000000000000000000000000000000000000000000000000000000000000000000000000000000          BALLOTS CAST - BLANK                                    BALLOTS CAST - BLANK                  Precinct 7                                             00 
00030010008000000000000000000000000000000000000000000000000000000000000000000000000000000000000000000          BALLOTS CAST - BLANK                                    BALLOTS CAST - BLANK                  Precinct 8                                             00 
00030010009000000000000000000000000000000000000000000000000000000000000000000000000000000000000000000          BALLOTS CAST - BLANK                                    BALLOTS CAST - BLANK                  Precinct 9                                             00 
00040010001000008000004000003000001000000000000000000000000000000000000000000000000000000000000000000NON       US Senator                                              Mary "MJ" Hegar                       Precinct 1                                             01 
00040010002000012000008000000000004000000000000000000000000000000000000000000000000000000000000000000NON       US Senator                                              Mary "MJ" Hegar                       Precinct 2                                             01 
00040010003000011000007000003000001000000000000000000000000000000000000000000000000000000000000000000NON       US Senator                                              Mary "MJ" Hegar                       Precinct 3                                             01 
00040010004000012000007000001000004000000000000000000000000000000000000000000000000000000000000000000NON       US Senator                                              Mary "MJ" Hegar                       Precinct 4                                             01 
00040010005000002000000000000000002000000000000000000000000000000000000000000000000000000000000000000NON       US Senator                                              Mary "MJ" Hegar                       Precinct 5                                             01 
00040010006000009000004000004000001000000000000000000000000000000000000000000000000000000000000000000NON       US Senator                                              Mary "MJ" Hegar                       Precinct 6                                             01 
00040010007000000000000000000000000000000000000000000000000000000000000000000000000000000000000000000NON       US Senator                                              Mary "MJ" Hegar                       Precinct 7                                             01 
00040010008000000000000000000000000000000000000000000000000000000000000000000000000000000000000000000NON       US Senator                                              Mary "MJ" Hegar                       Precinct 8                                             01 
00040010009000009000004000004000001000000000000000000000000000000000000000000000000000000000000000000NON       US Senator                                              Mary "MJ" Hegar                       Precinct 9                                             01 
00040020001000005000000000000000005000000000000000000000000000000000000000000000000000000000000000000NON       US Senator                                              Royce West                            Precinct 1                                             01 
00040020002000007000004000003000000000000000000000000000000000000000000000000000000000000000000000000NON       US Senator                                              Royce West                            Precinct 2                                             01 
00040020003000006000002000001000003000000000000000000000000000000000000000000000000000000000000000000NON       US Senator                                              Royce West                            Precinct 3                                             01 
00040020004000012000006000001000005000000000000000000000000000000000000000000000000000000000000000000NON       US Senator                                              Royce West                            Precinct 4                                             01 
00040020005000000000000000000000000000000000000000000000000000000000000000000000000000000000000000000NON       US Senator                                              Royce West                            Precinct 5                                             01 
00040020006000003000000000001000002000000000000000000000000000000000000000000000000000000000000000000NON       US Senator                                              Royce West                            Precinct 6                                             01 
00040020007000000000000000000000000000000000000000000000000000000000000000000000000000000000000000000NON       US Senator                                              Royce West                            Precinct 7                                             01 
00040020008000000000000000000000000000000000000000000000000000000000000000000000000000000000000000000NON       US Senator                                              Royce West                            Precinct 8                                             01 
00040020009000005000005000000000000000000000000000000000000000000000000000000000000000000000000000000NON       US Senator                                              Royce West                            Precinct 9                                             01 
00040030001000000000000000000000000000000000000000000000000000000000000000000000000000000000000000000          US Senator                                              OVER VOTES                            Precinct 1                                             01 
00040030002000000000000000000000000000000000000000000000000000000000000000000000000000000000000000000          US Senator                                              OVER VOTES                            Precinct 2                                             01 
00040030003000000000000000000000000000000000000000000000000000000000000000000000000000000000000000000          US Senator                                              OVER VOTES                            Precinct 3                                             01 
00040030004000000000000000000000000000000000000000000000000000000000000000000000000000000000000000000          US Senator                                              OVER VOTES                            Precinct 4                                             01 
00040030005000000000000000000000000000000000000000000000000000000000000000000000000000000000000000000          US Senator                                              OVER VOTES                            Precinct 5                                             01 
00040030006000000000000000000000000000000000000000000000000000000000000000000000000000000000000000000          US Senator                                              OVER VOTES                            Precinct 6                                             01 
00040030007000000000000000000000000000000000000000000000000000000000000000000000000000000000000000000          US Senator                                              OVER VOTES                            Precinct 7                                             01 
00040030008000000000000000000000000000000000000000000000000000000000000000000000000000000000000000000          US Senator                                              OVER VOTES                            Precinct 8                                             01 
00040030009000000000000000000000000000000000000000000000000000000000000000000000000000000000000000000          US Senator                                              OVER VOTES                            Precinct 9                                             01 
00040040001000000000000000000000000000000000000000000000000000000000000000000000000000000000000000000          US Senator                                              UNDER VOTES                           Precinct 1                                             01 
00040040002000000000000000000000000000000000000000000000000000000000000000000000000000000000000000000          US Senator                                              UNDER VOTES                           Precinct 2                                             01 
00040040003000000000000000000000000000000000000000000000000000000000000000000000000000000000000000000          US Senator                                              UNDER VOTES                           Precinct 3                                             01 
00040040004000000000000000000000000000000000000000000000000000000000000000000000000000000000000000000          US Senator                                              UNDER VOTES                           Precinct 4                                             01 
00040040005000000000000000000000000000000000000000000000000000000000000000000000000000000000000000000          US Senator                                              UNDER VOTES                           Precinct 5                                             01 
00040040006000000000000000000000000000000000000000000000000000000000000000000000000000000000000000000          US Senator                                              UNDER VOTES                           Precinct 6                                             01 
00040040007000000000000000000000000000000000000000000000000000000000000000000000000000000000000000000          US Senator                                              UNDER VOTES                           Precinct 7                                             01 
00040040008000000000000000000000000000000000000000000000000000000000000000000000000000000000000000000          US Senator                                              UNDER VOTES                           Precinct 8                                             01 
00040040009000000000000000000000000000000000000000000000000000000000000000000000000000000000000000000          US Senator                                              UNDER VOTES                           Precinct 9                                             01 
00050010001000005000001000002000002000000000000000000000000000000000000000000000000000000000000000000NON       Railroad Commissioner                                   Roberto R. "Beto" Alonzo              Precinct 1                                             01 
00050010002000006000003000002000001000000000000000000000000000000000000000000000000000000000000000000NON       Railroad Commissioner                                   Roberto R. "Beto" Alonzo              Precinct 2                                             01 
00050010003000007000004000000000003000000000000000000000000000000000000000000000000000000000000000000NON       Railroad Commissioner                                   Roberto R. "Beto" Alonzo              Precinct 3                                             01 
00050010004000015000009000000000006000000000000000000000000000000000000000000000000000000000000000000NON       Railroad Commissioner                                   Roberto R. "Beto" Alonzo              Precinct 4                                             01 
00050010005000000000000000000000000000000000000000000000000000000000000000000000000000000000000000000NON       Railroad Commissioner                                   Roberto R. "Beto" Alonzo              Precinct 5                                             01 
00050010006000004000003000000000001000000000000000000000000000000000000000000000000000000000000000000NON       Railroad Commissioner                                   Roberto R. "Beto" Alonzo              Precinct 6                                             01 
00050010007000000000000000000000000000000000000000000000000000000000000000000000000000000000000000000NON       Railroad Commissioner                                   Roberto R. "Beto" Alonzo              Precinct 7                                             01 
00050010008000000000000000000000000000000000000000000000000000000000000000000000000000000000000000000NON       Railroad Commissioner                                   Roberto R. "Beto" Alonzo              Precinct 8                                             01 
00050010009000009000005000003000001000000000000000000000000000000000000000000000000000000000000000000NON       Railroad Commissioner                                   Roberto R. "Beto" Alonzo              Precinct 9                                             01 
00050020001000008000003000001000004000000000000000000000000000000000000000000000000000000000000000000NON       Railroad Commissioner                                   Chrysta Castaneda                     Precinct 1                                             01 
00050020002000013000009000001000003000000000000000000000000000000000000000000000000000000000000000000NON       Railroad Commissioner                                   Chrysta Castaneda                     Precinct 2                                             01 
00050020003000010000005000004000001000000000000000000000000000000000000000000000000000000000000000000NON       Railroad Commissioner                                   Chrysta Castaneda                     Precinct 3                                             01 
00050020004000009000004000002000003000000000000000000000000000000000000000000000000000000000000000000NON       Railroad Commissioner                                   Chrysta Castaneda                     Precinct 4                                             01 
00050020005000002000000000000000002000000000000000000000000000000000000000000000000000000000000000000NON       Railroad Commissioner                                   Chrysta Castaneda                     Precinct 5                                             01 
00050020006000006000001000003000002000000000000000000000000000000000000000000000000000000000000000000NON       Railroad Commissioner                                   Chrysta Castaneda                     Precinct 6                                             01 
00050020007000000000000000000000000000000000000000000000000000000000000000000000000000000000000000000NON       Railroad Commissioner                                   Chrysta Castaneda                     Precinct 7                                             01 
00050020008000000000000000000000000000000000000000000000000000000000000000000000000000000000000000000NON       Railroad Commissioner                                   Chrysta Castaneda                     Precinct 8                                             01 
00050020009000005000004000001000000000000000000000000000000000000000000000000000000000000000000000000NON       Railroad Commissioner                                   Chrysta Castaneda                     Precinct 9                                             01 
00050030001000000000000000000000000000000000000000000000000000000000000000000000000000000000000000000          Railroad Commissioner                                   OVER VOTES                            Precinct 1                                             01 
00050030002000000000000000000000000000000000000000000000000000000000000000000000000000000000000000000          Railroad Commissioner                                   OVER VOTES                            Precinct 2                                             01 
00050030003000000000000000000000000000000000000000000000000000000000000000000000000000000000000000000          Railroad Commissioner                                   OVER VOTES                            Precinct 3                                             01 
00050030004000000000000000000000000000000000000000000000000000000000000000000000000000000000000000000          Railroad Commissioner                                   OVER VOTES                            Precinct 4                                             01 
00050030005000000000000000000000000000000000000000000000000000000000000000000000000000000000000000000          Railroad Commissioner                                   OVER VOTES                            Precinct 5                                             01 
00050030006000000000000000000000000000000000000000000000000000000000000000000000000000000000000000000          Railroad Commissioner                                   OVER VOTES                            Precinct 6                                             01 
00050030007000000000000000000000000000000000000000000000000000000000000000000000000000000000000000000          Railroad Commissioner                                   OVER VOTES                            Precinct 7                                             01 
00050030008000000000000000000000000000000000000000000000000000000000000000000000000000000000000000000          Railroad Commissioner                                   OVER VOTES                            Precinct 8                                             01 
00050030009000000000000000000000000000000000000000000000000000000000000000000000000000000000000000000          Railroad Commissioner                                   OVER VOTES                            Precinct 9                                             01 
00050040001000000000000000000000000000000000000000000000000000000000000000000000000000000000000000000          Railroad Commissioner                                   UNDER VOTES                           Precinct 1                                             01 
00050040002000000000000000000000000000000000000000000000000000000000000000000000000000000000000000000          Railroad Commissioner                                   UNDER VOTES                           Precinct 2                                             01 
00050040003000000000000000000000000000000000000000000000000000000000000000000000000000000000000000000          Railroad Commissioner                                   UNDER VOTES                           Precinct 3                                             01 
00050040004000000000000000000000000000000000000000000000000000000000000000000000000000000000000000000          Railroad Commissioner                                   UNDER VOTES                           Precinct 4                                             01 
00050040005000000000000000000000000000000000000000000000000000000000000000000000000000000000000000000          Railroad Commissioner                                   UNDER VOTES                           Precinct 5                                             01 
00050040006000002000000000002000000000000000000000000000000000000000000000000000000000000000000000000          Railroad Commissioner                                   UNDER VOTES                           Precinct 6                                             01 
00050040007000000000000000000000000000000000000000000000000000000000000000000000000000000000000000000          Railroad Commissioner                                   UNDER VOTES                           Precinct 7                                             01 
00050040008000000000000000000000000000000000000000000000000000000000000000000000000000000000000000000          Railroad Commissioner                                   UNDER VOTES                           Precinct 8                                             01 
00050040009000000000000000000000000000000000000000000000000000000000000000000000000000000000000000000          Railroad Commissioner                                   UNDER VOTES                           Precinct 9                                             01 
