00010010001001242000000000000000000000000000000000000000000000000000000000000000000000000000000000000          REGISTERED VOTERS - TOTAL                               REGISTERED VOTERS - TOTAL             1 - Calvert                                            00 
00010010002001559000000000000000000000000000000000000000000000000000000000000000000000000000000000000          REGISTERED VOTERS - TOTAL                               REGISTERED VOTERS - TOTAL             2 - Hearne                                             00 
00010010003000593000000000000000000000000000000000000000000000000000000000000000000000000000000000000          REGISTERED VOTERS - TOTAL                               REGISTERED VOTERS - TOTAL             3 - Wheelock                                           00 
00010010004000519000000000000000000000000000000000000000000000000000000000000000000000000000000000000          REGISTERED VOTERS - TOTAL                               REGISTERED VOTERS - TOTAL             4 - Bald Prairie                                       00 
00010010005001491000000000000000000000000000000000000000000000000000000000000000000000000000000000000          REGISTERED VOTERS - TOTAL                               REGISTERED VOTERS - TOTAL             5 - Bremond                                            00 
00010010006001659000000000000000000000000000000000000000000000000000000000000000000000000000000000000          REGISTERED VOTERS - TOTAL                               REGISTERED VOTERS - TOTAL             6 - Franklin                                           00 
00010010007000080000000000000000000000000000000000000000000000000000000000000000000000000000000000000          REGISTERED VOTERS - TOTAL                               REGISTERED VOTERS - TOTAL             7 - Mumford                                            00 
00010010008000234000000000000000000000000000000000000000000000000000000000000000000000000000000000000          REGISTERED VOTERS - TOTAL                               REGISTERED VOTERS - TOTAL             8 - Seale                                              00 
00010010009001129000000000000000000000000000000000000000000000000000000000000000000000000000000000000          REGISTERED VOTERS - TOTAL                               REGISTERED VOTERS - TOTAL             11 - Benchley                                          00 
00010010010000200000000000000000000000000000000000000000000000000000000000000000000000000000000000000          REGISTERED VOTERS - TOTAL                               REGISTERED VOTERS - TOTAL             13 - Elliott                                           00 
00010010011000160000000000000000000000000000000000000000000000000000000000000000000000000000000000000          REGISTERED VOTERS - TOTAL                               REGISTERED VOTERS - TOTAL             16 - Easterly                                          00 
00010010012000103000000000000000000000000000000000000000000000000000000000000000000000000000000000000          REGISTERED VOTERS - TOTAL                               REGISTERED VOTERS - TOTAL             18 - Ridge                                             00 
00010010013000546000000000000000000000000000000000000000000000000000000000000000000000000000000000000          REGISTERED VOTERS - TOTAL                               REGISTERED VOTERS - TOTAL             19 - New Baden                                         00 
00010010014001259000000000000000000000000000000000000000000000000000000000000000000000000000000000000          REGISTERED VOTERS - TOTAL                               REGISTERED VOTERS - TOTAL             22 - Teal Center                                       00 
00010010015000824000000000000000000000000000000000000000000000000000000000000000000000000000000000000          REGISTERED VOTERS - TOTAL                               REGISTERED VOTERS - TOTAL             23 - Christian Faith                                   00 
00020010001000000000000000000000000000000000000000000000000000000000000000000000000000000000000000000REP       REGISTERED VOTERS - Republican Party                    REGISTERED VOTERS - Republican Party  1 - Calvert                                            00 
00020010002000000000000000000000000000000000000000000000000000000000000000000000000000000000000000000REP       REGISTERED VOTERS - Republican Party                    REGISTERED VOTERS - Republican Party  2 - Hearne                                             00 
00020010003000000000000000000000000000000000000000000000000000000000000000000000000000000000000000000REP       REGISTERED VOTERS - Republican Party                    REGISTERED VOTERS - Republican Party  3 - Wheelock                                           00 
00020010004000000000000000000000000000000000000000000000000000000000000000000000000000000000000000000REP       REGISTERED VOTERS - Republican Party                    REGISTERED VOTERS - Republican Party  4 - Bald Prairie                                       00 
00020010005000000000000000000000000000000000000000000000000000000000000000000000000000000000000000000REP       REGISTERED VOTERS - Republican Party                    REGISTERED VOTERS - Republican Party  5 - Bremond                                            00 
00020010006000000000000000000000000000000000000000000000000000000000000000000000000000000000000000000REP       REGISTERED VOTERS - Republican Party                    REGISTERED VOTERS - Republican Party  6 - Franklin                                           00 
00020010007000000000000000000000000000000000000000000000000000000000000000000000000000000000000000000REP       REGISTERED VOTERS - Republican Party                    REGISTERED VOTERS - Republican Party  7 - Mumford                                            00 
00020010008000000000000000000000000000000000000000000000000000000000000000000000000000000000000000000REP       REGISTERED VOTERS - Republican Party                    REGISTERED VOTERS - Republican Party  8 - Seale                                              00 
00020010009000000000000000000000000000000000000000000000000000000000000000000000000000000000000000000REP       REGISTERED VOTERS - Republican Party                    REGISTERED VOTERS - Republican Party  11 - Benchley                                          00 
00020010010000000000000000000000000000000000000000000000000000000000000000000000000000000000000000000REP       REGISTERED VOTERS - Republican Party                    REGISTERED VOTERS - Republican Party  13 - Elliott                                           00 
00020010011000000000000000000000000000000000000000000000000000000000000000000000000000000000000000000REP       REGISTERED VOTERS - Republican Party                    REGISTERED VOTERS - Republican Party  16 - Easterly                                          00 
00020010012000000000000000000000000000000000000000000000000000000000000000000000000000000000000000000REP       REGISTERED VOTERS - Republican Party                    REGISTERED VOTERS - Republican Party  18 - Ridge                                             00 
00020010013000000000000000000000000000000000000000000000000000000000000000000000000000000000000000000REP       REGISTERED VOTERS - Republican Party                    REGISTERED VOTERS - Republican Party  19 - New Baden                                         00 
00020010014000000000000000000000000000000000000000000000000000000000000000000000000000000000000000000REP       REGISTERED VOTERS - Republican Party                    REGISTERED VOTERS - Republican Party  22 - Teal Center                                       00 
00020010015000000000000000000000000000000000000000000000000000000000000000000000000000000000000000000REP       REGISTERED VOTERS - Republican Party                    REGISTERED VOTERS - Republican Party  23 - Christian Faith                                   00 
00030010001000000000000000000000000000000000000000000000000000000000000000000000000000000000000000000DEM       REGISTERED VOTERS - Democratic Party                    REGISTERED VOTERS - Democratic Party  1 - Calvert                                            00 
00030010002000000000000000000000000000000000000000000000000000000000000000000000000000000000000000000DEM       REGISTERED VOTERS - Democratic Party                    REGISTERED VOTERS - Democratic Party  2 - Hearne                                             00 
00030010003000000000000000000000000000000000000000000000000000000000000000000000000000000000000000000DEM       REGISTERED VOTERS - Democratic Party                    REGISTERED VOTERS - Democratic Party  3 - Wheelock                                           00 
00030010004000000000000000000000000000000000000000000000000000000000000000000000000000000000000000000DEM       REGISTERED VOTERS - Democratic Party                    REGISTERED VOTERS - Democratic Party  4 - Bald Prairie                                       00 
00030010005000000000000000000000000000000000000000000000000000000000000000000000000000000000000000000DEM       REGISTERED VOTERS - Democratic Party                    REGISTERED VOTERS - Democratic Party  5 - Bremond                                            00 
00030010006000000000000000000000000000000000000000000000000000000000000000000000000000000000000000000DEM       REGISTERED VOTERS - Democratic Party                    REGISTERED VOTERS - Democratic Party  6 - Franklin                                           00 
00030010007000000000000000000000000000000000000000000000000000000000000000000000000000000000000000000DEM       REGISTERED VOTERS - Democratic Party                    REGISTERED VOTERS - Democratic Party  7 - Mumford                                            00 
00030010008000000000000000000000000000000000000000000000000000000000000000000000000000000000000000000DEM       REGISTERED VOTERS - Democratic Party                    REGISTERED VOTERS - Democratic Party  8 - Seale                                              00 
00030010009000000000000000000000000000000000000000000000000000000000000000000000000000000000000000000DEM       REGISTERED VOTERS - Democratic Party                    REGISTERED VOTERS - Democratic Party  11 - Benchley                                          00 
00030010010000000000000000000000000000000000000000000000000000000000000000000000000000000000000000000DEM       REGISTERED VOTERS - Democratic Party                    REGISTERED VOTERS - Democratic Party  13 - Elliott                                           00 
00030010011000000000000000000000000000000000000000000000000000000000000000000000000000000000000000000DEM       REGISTERED VOTERS - Democratic Party                    REGISTERED VOTERS - Democratic Party  16 - Easterly                                          00 
00030010012000000000000000000000000000000000000000000000000000000000000000000000000000000000000000000DEM       REGISTERED VOTERS - Democratic Party                    REGISTERED VOTERS - Democratic Party  18 - Ridge                                             00 
00030010013000000000000000000000000000000000000000000000000000000000000000000000000000000000000000000DEM       REGISTERED VOTERS - Democratic Party                    REGISTERED VOTERS - Democratic Party  19 - New Baden                                         00 
00030010014000000000000000000000000000000000000000000000000000000000000000000000000000000000000000000DEM       REGISTERED VOTERS - Democratic Party                    REGISTERED VOTERS - Democratic Party  22 - Teal Center                                       00 
00030010015000000000000000000000000000000000000000000000000000000000000000000000000000000000000000000DEM       REGISTERED VOTERS - Democratic Party                    REGISTERED VOTERS - Democratic Party  23 - Christian Faith                                   00 
00040010001001242000000000000000000000000000000000000000000000000000000000000000000000000000000000000NON       REGISTERED VOTERS - NONPARTISAN                         REGISTERED VOTERS - NONPARTISAN       1 - Calvert                                            00 
00040010002001559000000000000000000000000000000000000000000000000000000000000000000000000000000000000NON       REGISTERED VOTERS - NONPARTISAN                         REGISTERED VOTERS - NONPARTISAN       2 - Hearne                                             00 
00040010003000593000000000000000000000000000000000000000000000000000000000000000000000000000000000000NON       REGISTERED VOTERS - NONPARTISAN                         REGISTERED VOTERS - NONPARTISAN       3 - Wheelock                                           00 
00040010004000519000000000000000000000000000000000000000000000000000000000000000000000000000000000000NON       REGISTERED VOTERS - NONPARTISAN                         REGISTERED VOTERS - NONPARTISAN       4 - Bald Prairie                                       00 
00040010005001491000000000000000000000000000000000000000000000000000000000000000000000000000000000000NON       REGISTERED VOTERS - NONPARTISAN                         REGISTERED VOTERS - NONPARTISAN       5 - Bremond                                            00 
00040010006001659000000000000000000000000000000000000000000000000000000000000000000000000000000000000NON       REGISTERED VOTERS - NONPARTISAN                         REGISTERED VOTERS - NONPARTISAN       6 - Franklin                                           00 
00040010007000080000000000000000000000000000000000000000000000000000000000000000000000000000000000000NON       REGISTERED VOTERS - NONPARTISAN                         REGISTERED VOTERS - NONPARTISAN       7 - Mumford                                            00 
00040010008000234000000000000000000000000000000000000000000000000000000000000000000000000000000000000NON       REGISTERED VOTERS - NONPARTISAN                         REGISTERED VOTERS - NONPARTISAN       8 - Seale                                              00 
00040010009001129000000000000000000000000000000000000000000000000000000000000000000000000000000000000NON       REGISTERED VOTERS - NONPARTISAN                         REGISTERED VOTERS - NONPARTISAN       11 - Benchley                                          00 
00040010010000200000000000000000000000000000000000000000000000000000000000000000000000000000000000000NON       REGISTERED VOTERS - NONPARTISAN                         REGISTERED VOTERS - NONPARTISAN       13 - Elliott                                           00 
00040010011000160000000000000000000000000000000000000000000000000000000000000000000000000000000000000NON       REGISTERED VOTERS - NONPARTISAN                         REGISTERED VOTERS - NONPARTISAN       16 - Easterly                                          00 
00040010012000103000000000000000000000000000000000000000000000000000000000000000000000000000000000000NON       REGISTERED VOTERS - NONPARTISAN                         REGISTERED VOTERS - NONPARTISAN       18 - Ridge                                             00 
00040010013000546000000000000000000000000000000000000000000000000000000000000000000000000000000000000NON       REGISTERED VOTERS - NONPARTISAN                         REGISTERED VOTERS - NONPARTISAN       19 - New Baden                                         00 
00040010014001259000000000000000000000000000000000000000000000000000000000000000000000000000000000000NON       REGISTERED VOTERS - NONPARTISAN                         REGISTERED VOTERS - NONPARTISAN       22 - Teal Center                                       00 
00040010015000824000000000000000000000000000000000000000000000000000000000000000000000000000000000000NON       REGISTERED VOTERS - NONPARTISAN                         REGISTERED VOTERS - NONPARTISAN       23 - Christian Faith                                   00 
00050010001000150000022000024000104000000000000000000000000000000000000000000000000000000000000000000          BALLOTS CAST - TOTAL                                    BALLOTS CAST - TOTAL                  1 - Calvert                                            00 
00050010002000165000037000061000067000000000000000000000000000000000000000000000000000000000000000000          BALLOTS CAST - TOTAL                                    BALLOTS CAST - TOTAL                  2 - Hearne                                             00 
00050010003000196000012000058000126000000000000000000000000000000000000000000000000000000000000000000          BALLOTS CAST - TOTAL                                    BALLOTS CAST - TOTAL                  3 - Wheelock                                           00 
00050010004000093000013000050000030000000000000000000000000000000000000000000000000000000000000000000          BALLOTS CAST - TOTAL                                    BALLOTS CAST - TOTAL                  4 - Bald Prairie                                       00 
00050010005000218000037000021000160000000000000000000000000000000000000000000000000000000000000000000          BALLOTS CAST - TOTAL                                    BALLOTS CAST - TOTAL                  5 - Bremond                                            00 
00050010006000374000023000182000169000000000000000000000000000000000000000000000000000000000000000000          BALLOTS CAST - TOTAL                                    BALLOTS CAST - TOTAL                  6 - Franklin                                           00 
00050010007000007000005000000000002000000000000000000000000000000000000000000000000000000000000000000          BALLOTS CAST - TOTAL                                    BALLOTS CAST - TOTAL                  7 - Mumford                                            00 
00050010008000038000013000007000018000000000000000000000000000000000000000000000000000000000000000000          BALLOTS CAST - TOTAL                                    BALLOTS CAST - TOTAL                  8 - Seale                                              00 
00050010009000145000029000052000064000000000000000000000000000000000000000000000000000000000000000000          BALLOTS CAST - TOTAL                                    BALLOTS CAST - TOTAL                  11 - Benchley                                          00 
00050010010000029000003000014000012000000000000000000000000000000000000000000000000000000000000000000          BALLOTS CAST - TOTAL                                    BALLOTS CAST - TOTAL                  13 - Elliott                                           00 
00050010011000039000005000021000013000000000000000000000000000000000000000000000000000000000000000000          BALLOTS CAST - TOTAL                                    BALLOTS CAST - TOTAL                  16 - Easterly                                          00 
00050010012000013000001000007000005000000000000000000000000000000000000000000000000000000000000000000          BALLOTS CAST - TOTAL                                    BALLOTS CAST - TOTAL                  18 - Ridge                                             00 
00050010013000193000018000110000065000000000000000000000000000000000000000000000000000000000000000000          BALLOTS CAST - TOTAL                                    BALLOTS CAST - TOTAL                  19 - New Baden                                         00 
00050010014000119000045000041000033000000000000000000000000000000000000000000000000000000000000000000          BALLOTS CAST - TOTAL                                    BALLOTS CAST - TOTAL                  22 - Teal Center                                       00 
00050010015000062000013000029000020000000000000000000000000000000000000000000000000000000000000000000          BALLOTS CAST - TOTAL                                    BALLOTS CAST - TOTAL                  23 - Christian Faith                                   00 
00060010001000107000012000022000073000000000000000000000000000000000000000000000000000000000000000000REP       BALLOTS CAST - Republican Party                         BALLOTS CAST - Republican Party       1 - Calvert                                            00 
00060010002000108000014000042000052000000000000000000000000000000000000000000000000000000000000000000REP       BALLOTS CAST - Republican Party                         BALLOTS CAST - Republican Party       2 - Hearne                                             00 
00060010003000181000008000055000118000000000000000000000000000000000000000000000000000000000000000000REP       BALLOTS CAST - Republican Party                         BALLOTS CAST - Republican Party       3 - Wheelock                                           00 
00060010004000083000004000049000030000000000000000000000000000000000000000000000000000000000000000000REP       BALLOTS CAST - Republican Party                         BALLOTS CAST - Republican Party       4 - Bald Prairie                                       00 
00060010005000172000018000017000137000000000000000000000000000000000000000000000000000000000000000000REP       BALLOTS CAST - Republican Party                         BALLOTS CAST - Republican Party       5 - Bremond                                            00 
00060010006000346000016000171000159000000000000000000000000000000000000000000000000000000000000000000REP       BALLOTS CAST - Republican Party                         BALLOTS CAST - Republican Party       6 - Franklin                                           00 
00060010007000004000002000000000002000000000000000000000000000000000000000000000000000000000000000000REP       BALLOTS CAST - Republican Party                         BALLOTS CAST - Republican Party       7 - Mumford                                            00 
00060010008000036000011000007000018000000000000000000000000000000000000000000000000000000000000000000REP       BALLOTS CAST - Republican Party                         BALLOTS CAST - Republican Party       8 - Seale                                              00 
00060010009000109000015000046000048000000000000000000000000000000000000000000000000000000000000000000REP       BALLOTS CAST - Republican Party                         BALLOTS CAST - Republican Party       11 - Benchley                                          00 
00060010010000028000002000014000012000000000000000000000000000000000000000000000000000000000000000000REP       BALLOTS CAST - Republican Party                         BALLOTS CAST - Republican Party       13 - Elliott                                           00 
00060010011000039000005000021000013000000000000000000000000000000000000000000000000000000000000000000REP       BALLOTS CAST - Republican Party                         BALLOTS CAST - Republican Party       16 - Easterly                                          00 
00060010012000012000001000006000005000000000000000000000000000000000000000000000000000000000000000000REP       BALLOTS CAST - Republican Party                         BALLOTS CAST - Republican Party       18 - Ridge                                             00 
00060010013000179000014000105000060000000000000000000000000000000000000000000000000000000000000000000REP       BALLOTS CAST - Republican Party                         BALLOTS CAST - Republican Party       19 - New Baden                                         00 
00060010014000015000001000007000007000000000000000000000000000000000000000000000000000000000000000000REP       BALLOTS CAST - Republican Party                         BALLOTS CAST - Republican Party       22 - Teal Center                                       00 
00060010015000038000001000020000017000000000000000000000000000000000000000000000000000000000000000000REP       BALLOTS CAST - Republican Party                         BALLOTS CAST - Republican Party       23 - Christian Faith                                   00 
00070010001000043000010000002000031000000000000000000000000000000000000000000000000000000000000000000DEM       BALLOTS CAST - Democratic Party                         BALLOTS CAST - Democratic Party       1 - Calvert                                            00 
00070010002000057000023000019000015000000000000000000000000000000000000000000000000000000000000000000DEM       BALLOTS CAST - Democratic Party                         BALLOTS CAST - Democratic Party       2 - Hearne                                             00 
00070010003000015000004000003000008000000000000000000000000000000000000000000000000000000000000000000DEM       BALLOTS CAST - Democratic Party                         BALLOTS CAST - Democratic Party       3 - Wheelock                                           00 
00070010004000010000009000001000000000000000000000000000000000000000000000000000000000000000000000000DEM       BALLOTS CAST - Democratic Party                         BALLOTS CAST - Democratic Party       4 - Bald Prairie                                       00 
00070010005000046000019000004000023000000000000000000000000000000000000000000000000000000000000000000DEM       BALLOTS CAST - Democratic Party                         BALLOTS CAST - Democratic Party       5 - Bremond                                            00 
00070010006000028000007000011000010000000000000000000000000000000000000000000000000000000000000000000DEM       BALLOTS CAST - Democratic Party                         BALLOTS CAST - Democratic Party       6 - Franklin                                           00 
00070010007000003000003000000000000000000000000000000000000000000000000000000000000000000000000000000DEM       BALLOTS CAST - Democratic Party                         BALLOTS CAST - Democratic Party       7 - Mumford                                            00 
00070010008000002000002000000000000000000000000000000000000000000000000000000000000000000000000000000DEM       BALLOTS CAST - Democratic Party                         BALLOTS CAST - Democratic Party       8 - Seale                                              00 
00070010009000036000014000006000016000000000000000000000000000000000000000000000000000000000000000000DEM       BALLOTS CAST - Democratic Party                         BALLOTS CAST - Democratic Party       11 - Benchley                                          00 
00070010010000001000001000000000000000000000000000000000000000000000000000000000000000000000000000000DEM       BALLOTS CAST - Democratic Party                         BALLOTS CAST - Democratic Party       13 - Elliott                                           00 
00070010011000000000000000000000000000000000000000000000000000000000000000000000000000000000000000000DEM       BALLOTS CAST - Democratic Party                         BALLOTS CAST - Democratic Party       16 - Easterly                                          00 
00070010012000001000000000001000000000000000000000000000000000000000000000000000000000000000000000000DEM       BALLOTS CAST - Democratic Party                         BALLOTS CAST - Democratic Party       18 - Ridge                                             00 
00070010013000014000004000005000005000000000000000000000000000000000000000000000000000000000000000000DEM       BALLOTS CAST - Democratic Party                         BALLOTS CAST - Democratic Party       19 - New Baden                                         00 
00070010014000104000044000034000026000000000000000000000000000000000000000000000000000000000000000000DEM       BALLOTS CAST - Democratic Party                         BALLOTS CAST - Democratic Party       22 - Teal Center                                       00 
00070010015000024000012000009000003000000000000000000000000000000000000000000000000000000000000000000DEM       BALLOTS CAST - Democratic Party                         BALLOTS CAST - Democratic Party       23 - Christian Faith                                   00 
00080010001000000000000000000000000000000000000000000000000000000000000000000000000000000000000000000NON       BALLOTS CAST - NONPARTISAN                              BALLOTS CAST - NONPARTISAN            1 - Calvert                                            00 
00080010002000000000000000000000000000000000000000000000000000000000000000000000000000000000000000000NON       BALLOTS CAST - NONPARTISAN                              BALLOTS CAST - NONPARTISAN            2 - Hearne                                             00 
00080010003000000000000000000000000000000000000000000000000000000000000000000000000000000000000000000NON       BALLOTS CAST - NONPARTISAN                              BALLOTS CAST - NONPARTISAN            3 - Wheelock                                           00 
00080010004000000000000000000000000000000000000000000000000000000000000000000000000000000000000000000NON       BALLOTS CAST - NONPARTISAN                              BALLOTS CAST - NONPARTISAN            4 - Bald Prairie                                       00 
00080010005000000000000000000000000000000000000000000000000000000000000000000000000000000000000000000NON       BALLOTS CAST - NONPARTISAN                              BALLOTS CAST - NONPARTISAN            5 - Bremond                                            00 
00080010006000000000000000000000000000000000000000000000000000000000000000000000000000000000000000000NON       BALLOTS CAST - NONPARTISAN                              BALLOTS CAST - NONPARTISAN            6 - Franklin                                           00 
00080010007000000000000000000000000000000000000000000000000000000000000000000000000000000000000000000NON       BALLOTS CAST - NONPARTISAN                              BALLOTS CAST - NONPARTISAN            7 - Mumford                                            00 
00080010008000000000000000000000000000000000000000000000000000000000000000000000000000000000000000000NON       BALLOTS CAST - NONPARTISAN                              BALLOTS CAST - NONPARTISAN            8 - Seale                                              00 
00080010009000000000000000000000000000000000000000000000000000000000000000000000000000000000000000000NON       BALLOTS CAST - NONPARTISAN                              BALLOTS CAST - NONPARTISAN            11 - Benchley                                          00 
00080010010000000000000000000000000000000000000000000000000000000000000000000000000000000000000000000NON       BALLOTS CAST - NONPARTISAN                              BALLOTS CAST - NONPARTISAN            13 - Elliott                                           00 
00080010011000000000000000000000000000000000000000000000000000000000000000000000000000000000000000000NON       BALLOTS CAST - NONPARTISAN                              BALLOTS CAST - NONPARTISAN            16 - Easterly                                          00 
00080010012000000000000000000000000000000000000000000000000000000000000000000000000000000000000000000NON       BALLOTS CAST - NONPARTISAN                              BALLOTS CAST - NONPARTISAN            18 - Ridge                                             00 
00080010013000000000000000000000000000000000000000000000000000000000000000000000000000000000000000000NON       BALLOTS CAST - NONPARTISAN                              BALLOTS CAST - NONPARTISAN            19 - New Baden                                         00 
00080010014000000000000000000000000000000000000000000000000000000000000000000000000000000000000000000NON       BALLOTS CAST - NONPARTISAN                              BALLOTS CAST - NONPARTISAN            22 - Teal Center                                       00 
00080010015000000000000000000000000000000000000000000000000000000000000000000000000000000000000000000NON       BALLOTS CAST - NONPARTISAN                              BALLOTS CAST - NONPARTISAN            23 - Christian Faith                                   00 
00090010001000000000000000000000000000000000000000000000000000000000000000000000000000000000000000000          BALLOTS CAST - BLANK                                    BALLOTS CAST - BLANK                  1 - Calvert                                            00 
00090010002000000000000000000000000000000000000000000000000000000000000000000000000000000000000000000          BALLOTS CAST - BLANK                                    BALLOTS CAST - BLANK                  2 - Hearne                                             00 
00090010003000000000000000000000000000000000000000000000000000000000000000000000000000000000000000000          BALLOTS CAST - BLANK                                    BALLOTS CAST - BLANK                  3 - Wheelock                                           00 
00090010004000000000000000000000000000000000000000000000000000000000000000000000000000000000000000000          BALLOTS CAST - BLANK                                    BALLOTS CAST - BLANK                  4 - Bald Prairie                                       00 
00090010005000000000000000000000000000000000000000000000000000000000000000000000000000000000000000000          BALLOTS CAST - BLANK                                    BALLOTS CAST - BLANK                  5 - Bremond                                            00 
00090010006000001000000000001000000000000000000000000000000000000000000000000000000000000000000000000          BALLOTS CAST - BLANK                                    BALLOTS CAST - BLANK                  6 - Franklin                                           00 
00090010007000000000000000000000000000000000000000000000000000000000000000000000000000000000000000000          BALLOTS CAST - BLANK                                    BALLOTS CAST - BLANK                  7 - Mumford                                            00 
00090010008000000000000000000000000000000000000000000000000000000000000000000000000000000000000000000          BALLOTS CAST - BLANK                                    BALLOTS CAST - BLANK                  8 - Seale                                              00 
00090010009000000000000000000000000000000000000000000000000000000000000000000000000000000000000000000          BALLOTS CAST - BLANK                                    BALLOTS CAST - BLANK                  11 - Benchley                                          00 
00090010010000000000000000000000000000000000000000000000000000000000000000000000000000000000000000000          BALLOTS CAST - BLANK                                    BALLOTS CAST - BLANK                  13 - Elliott                                           00 
00090010011000000000000000000000000000000000000000000000000000000000000000000000000000000000000000000          BALLOTS CAST - BLANK                                    BALLOTS CAST - BLANK                  16 - Easterly                                          00 
00090010012000000000000000000000000000000000000000000000000000000000000000000000000000000000000000000          BALLOTS CAST - BLANK                                    BALLOTS CAST - BLANK                  18 - Ridge                                             00 
00090010013000000000000000000000000000000000000000000000000000000000000000000000000000000000000000000          BALLOTS CAST - BLANK                                    BALLOTS CAST - BLANK                  19 - New Baden                                         00 
00090010014000000000000000000000000000000000000000000000000000000000000000000000000000000000000000000          BALLOTS CAST - BLANK                                    BALLOTS CAST - BLANK                  22 - Teal Center                                       00 
00090010015000000000000000000000000000000000000000000000000000000000000000000000000000000000000000000          BALLOTS CAST - BLANK                                    BALLOTS CAST - BLANK                  23 - Christian Faith                                   00 
00100010001000067000005000016000046000000000000000000000000000000000000000000000000000000000000000000REP       REP US Rep District 17                                  Pete Sessions                         1 - Calvert                                            01 
00100010002000057000004000026000027000000000000000000000000000000000000000000000000000000000000000000REP       REP US Rep District 17                                  Pete Sessions                         2 - Hearne                                             01 
00100010003000099000006000030000063000000000000000000000000000000000000000000000000000000000000000000REP       REP US Rep District 17                                  Pete Sessions                         3 - Wheelock                                           01 
00100010004000042000001000031000010000000000000000000000000000000000000000000000000000000000000000000REP       REP US Rep District 17                                  Pete Sessions                         4 - Bald Prairie                                       01 
00100010005000086000008000013000065000000000000000000000000000000000000000000000000000000000000000000REP       REP US Rep District 17                                  Pete Sessions                         5 - Bremond                                            01 
00100010006000180000007000084000089000000000000000000000000000000000000000000000000000000000000000000REP       REP US Rep District 17                                  Pete Sessions                         6 - Franklin                                           01 
00100010007000003000002000000000001000000000000000000000000000000000000000000000000000000000000000000REP       REP US Rep District 17                                  Pete Sessions                         7 - Mumford                                            01 
00100010008000020000009000005000006000000000000000000000000000000000000000000000000000000000000000000REP       REP US Rep District 17                                  Pete Sessions                         8 - Seale                                              01 
00100010009000045000005000021000019000000000000000000000000000000000000000000000000000000000000000000REP       REP US Rep District 17                                  Pete Sessions                         11 - Benchley                                          01 
00100010010000012000002000004000006000000000000000000000000000000000000000000000000000000000000000000REP       REP US Rep District 17                                  Pete Sessions                         13 - Elliott                                           01 
00100010011000024000004000010000010000000000000000000000000000000000000000000000000000000000000000000REP       REP US Rep District 17                                  Pete Sessions                         16 - Easterly                                          01 
00100010012000007000001000003000003000000000000000000000000000000000000000000000000000000000000000000REP       REP US Rep District 17                                  Pete Sessions                         18 - Ridge                                             01 
00100010013000080000005000052000023000000000000000000000000000000000000000000000000000000000000000000REP       REP US Rep District 17                                  Pete Sessions                         19 - New Baden                                         01 
00100010014000010000000000004000006000000000000000000000000000000000000000000000000000000000000000000REP       REP US Rep District 17                                  Pete Sessions                         22 - Teal Center                                       01 
00100010015000016000000000007000009000000000000000000000000000000000000000000000000000000000000000000REP       REP US Rep District 17                                  Pete Sessions                         23 - Christian Faith                                   01 
00100020001000040000007000006000027000000000000000000000000000000000000000000000000000000000000000000REP       REP US Rep District 17                                  Renee Swann                           1 - Calvert                                            01 
00100020002000051000010000016000025000000000000000000000000000000000000000000000000000000000000000000REP       REP US Rep District 17                                  Renee Swann                           2 - Hearne                                             01 
00100020003000081000002000025000054000000000000000000000000000000000000000000000000000000000000000000REP       REP US Rep District 17                                  Renee Swann                           3 - Wheelock                                           01 
00100020004000041000003000018000020000000000000000000000000000000000000000000000000000000000000000000REP       REP US Rep District 17                                  Renee Swann                           4 - Bald Prairie                                       01 
00100020005000086000010000004000072000000000000000000000000000000000000000000000000000000000000000000REP       REP US Rep District 17                                  Renee Swann                           5 - Bremond                                            01 
00100020006000153000009000081000063000000000000000000000000000000000000000000000000000000000000000000REP       REP US Rep District 17                                  Renee Swann                           6 - Franklin                                           01 
00100020007000001000000000000000001000000000000000000000000000000000000000000000000000000000000000000REP       REP US Rep District 17                                  Renee Swann                           7 - Mumford                                            01 
00100020008000016000002000002000012000000000000000000000000000000000000000000000000000000000000000000REP       REP US Rep District 17                                  Renee Swann                           8 - Seale                                              01 
00100020009000064000010000025000029000000000000000000000000000000000000000000000000000000000000000000REP       REP US Rep District 17                                  Renee Swann                           11 - Benchley                                          01 
00100020010000016000000000010000006000000000000000000000000000000000000000000000000000000000000000000REP       REP US Rep District 17                                  Renee Swann                           13 - Elliott                                           01 
00100020011000014000001000011000002000000000000000000000000000000000000000000000000000000000000000000REP       REP US Rep District 17                                  Renee Swann                           16 - Easterly                                          01 
00100020012000005000000000003000002000000000000000000000000000000000000000000000000000000000000000000REP       REP US Rep District 17                                  Renee Swann                           18 - Ridge                                             01 
00100020013000095000009000049000037000000000000000000000000000000000000000000000000000000000000000000REP       REP US Rep District 17                                  Renee Swann                           19 - New Baden                                         01 
00100020014000005000001000003000001000000000000000000000000000000000000000000000000000000000000000000REP       REP US Rep District 17                                  Renee Swann                           22 - Teal Center                                       01 
00100020015000022000001000013000008000000000000000000000000000000000000000000000000000000000000000000REP       REP US Rep District 17                                  Renee Swann                           23 - Christian Faith                                   01 
00100030001000000000000000000000000000000000000000000000000000000000000000000000000000000000000000000          REP US Rep District 17                                  OVER VOTES                            1 - Calvert                                            01 
00100030002000000000000000000000000000000000000000000000000000000000000000000000000000000000000000000          REP US Rep District 17                                  OVER VOTES                            2 - Hearne                                             01 
00100030003000000000000000000000000000000000000000000000000000000000000000000000000000000000000000000          REP US Rep District 17                                  OVER VOTES                            3 - Wheelock                                           01 
00100030004000000000000000000000000000000000000000000000000000000000000000000000000000000000000000000          REP US Rep District 17                                  OVER VOTES                            4 - Bald Prairie                                       01 
00100030005000000000000000000000000000000000000000000000000000000000000000000000000000000000000000000          REP US Rep District 17                                  OVER VOTES                            5 - Bremond                                            01 
00100030006000000000000000000000000000000000000000000000000000000000000000000000000000000000000000000          REP US Rep District 17                                  OVER VOTES                            6 - Franklin                                           01 
00100030007000000000000000000000000000000000000000000000000000000000000000000000000000000000000000000          REP US Rep District 17                                  OVER VOTES                            7 - Mumford                                            01 
00100030008000000000000000000000000000000000000000000000000000000000000000000000000000000000000000000          REP US Rep District 17                                  OVER VOTES                            8 - Seale                                              01 
00100030009000000000000000000000000000000000000000000000000000000000000000000000000000000000000000000          REP US Rep District 17                                  OVER VOTES                            11 - Benchley                                          01 
00100030010000000000000000000000000000000000000000000000000000000000000000000000000000000000000000000          REP US Rep District 17                                  OVER VOTES                            13 - Elliott                                           01 
00100030011000000000000000000000000000000000000000000000000000000000000000000000000000000000000000000          REP US Rep District 17                                  OVER VOTES                            16 - Easterly                                          01 
00100030012000000000000000000000000000000000000000000000000000000000000000000000000000000000000000000          REP US Rep District 17                                  OVER VOTES                            18 - Ridge                                             01 
00100030013000000000000000000000000000000000000000000000000000000000000000000000000000000000000000000          REP US Rep District 17                                  OVER VOTES                            19 - New Baden                                         01 
00100030014000000000000000000000000000000000000000000000000000000000000000000000000000000000000000000          REP US Rep District 17                                  OVER VOTES                            22 - Teal Center                                       01 
00100030015000000000000000000000000000000000000000000000000000000000000000000000000000000000000000000          REP US Rep District 17                                  OVER VOTES                            23 - Christian Faith                                   01 
00100040001000000000000000000000000000000000000000000000000000000000000000000000000000000000000000000          REP US Rep District 17                                  UNDER VOTES                           1 - Calvert                                            01 
00100040002000000000000000000000000000000000000000000000000000000000000000000000000000000000000000000          REP US Rep District 17                                  UNDER VOTES                           2 - Hearne                                             01 
00100040003000001000000000000000001000000000000000000000000000000000000000000000000000000000000000000          REP US Rep District 17                                  UNDER VOTES                           3 - Wheelock                                           01 
00100040004000000000000000000000000000000000000000000000000000000000000000000000000000000000000000000          REP US Rep District 17                                  UNDER VOTES                           4 - Bald Prairie                                       01 
00100040005000000000000000000000000000000000000000000000000000000000000000000000000000000000000000000          REP US Rep District 17                                  UNDER VOTES                           5 - Bremond                                            01 
00100040006000013000000000006000007000000000000000000000000000000000000000000000000000000000000000000          REP US Rep District 17                                  UNDER VOTES                           6 - Franklin                                           01 
00100040007000000000000000000000000000000000000000000000000000000000000000000000000000000000000000000          REP US Rep District 17                                  UNDER VOTES                           7 - Mumford                                            01 
00100040008000000000000000000000000000000000000000000000000000000000000000000000000000000000000000000          REP US Rep District 17                                  UNDER VOTES                           8 - Seale                                              01 
00100040009000000000000000000000000000000000000000000000000000000000000000000000000000000000000000000          REP US Rep District 17                                  UNDER VOTES                           11 - Benchley                                          01 
00100040010000000000000000000000000000000000000000000000000000000000000000000000000000000000000000000          REP US Rep District 17                                  UNDER VOTES                           13 - Elliott                                           01 
00100040011000001000000000000000001000000000000000000000000000000000000000000000000000000000000000000          REP US Rep District 17                                  UNDER VOTES                           16 - Easterly                                          01 
00100040012000000000000000000000000000000000000000000000000000000000000000000000000000000000000000000          REP US Rep District 17                                  UNDER VOTES                           18 - Ridge                                             01 
00100040013000004000000000004000000000000000000000000000000000000000000000000000000000000000000000000          REP US Rep District 17                                  UNDER VOTES                           19 - New Baden                                         01 
00100040014000000000000000000000000000000000000000000000000000000000000000000000000000000000000000000          REP US Rep District 17                                  UNDER VOTES                           22 - Teal Center                                       01 
00100040015000000000000000000000000000000000000000000000000000000000000000000000000000000000000000000          REP US Rep District 17                                  UNDER VOTES                           23 - Christian Faith                                   01 
00110010003000087000001000024000062000000000000000000000000000000000000000000000000000000000000000000REPCON003 REP Constable Precinct 3                                Chris Sanders                         3 - Wheelock                  Precinct 3               01 
00110010006000128000005000068000055000000000000000000000000000000000000000000000000000000000000000000REPCON003 REP Constable Precinct 3                                Chris Sanders                         6 - Franklin                  Precinct 3               01 
00110010011000022000004000011000007000000000000000000000000000000000000000000000000000000000000000000REPCON003 REP Constable Precinct 3                                Chris Sanders                         16 - Easterly                 Precinct 3               01 
00110010012000009000000000004000005000000000000000000000000000000000000000000000000000000000000000000REPCON003 REP Constable Precinct 3                                Chris Sanders                         18 - Ridge                    Precinct 3               01 
00110010013000099000012000058000029000000000000000000000000000000000000000000000000000000000000000000REPCON003 REP Constable Precinct 3                                Chris Sanders                         19 - New Baden                Precinct 3               01 
00110020003000094000007000031000056000000000000000000000000000000000000000000000000000000000000000000REPCON003 REP Constable Precinct 3                                Danny Williamson                      3 - Wheelock                  Precinct 3               01 
00110020006000217000010000103000104000000000000000000000000000000000000000000000000000000000000000000REPCON003 REP Constable Precinct 3                                Danny Williamson                      6 - Franklin                  Precinct 3               01 
00110020011000017000001000010000006000000000000000000000000000000000000000000000000000000000000000000REPCON003 REP Constable Precinct 3                                Danny Williamson                      16 - Easterly                 Precinct 3               01 
00110020012000003000001000002000000000000000000000000000000000000000000000000000000000000000000000000REPCON003 REP Constable Precinct 3                                Danny Williamson                      18 - Ridge                    Precinct 3               01 
00110020013000079000002000046000031000000000000000000000000000000000000000000000000000000000000000000REPCON003 REP Constable Precinct 3                                Danny Williamson                      19 - New Baden                Precinct 3               01 
00110030003000000000000000000000000000000000000000000000000000000000000000000000000000000000000000000   CON003 REP Constable Precinct 3                                OVER VOTES                            3 - Wheelock                  Precinct 3               01 
00110030006000000000000000000000000000000000000000000000000000000000000000000000000000000000000000000   CON003 REP Constable Precinct 3                                OVER VOTES                            6 - Franklin                  Precinct 3               01 
00110030011000000000000000000000000000000000000000000000000000000000000000000000000000000000000000000   CON003 REP Constable Precinct 3                                OVER VOTES                            16 - Easterly                 Precinct 3               01 
00110030012000000000000000000000000000000000000000000000000000000000000000000000000000000000000000000   CON003 REP Constable Precinct 3                                OVER VOTES                            18 - Ridge                    Precinct 3               01 
00110030013000000000000000000000000000000000000000000000000000000000000000000000000000000000000000000   CON003 REP Constable Precinct 3                                OVER VOTES                            19 - New Baden                Precinct 3               01 
00110040003000000000000000000000000000000000000000000000000000000000000000000000000000000000000000000   CON003 REP Constable Precinct 3                                UNDER VOTES                           3 - Wheelock                  Precinct 3               01 
00110040006000001000001000000000000000000000000000000000000000000000000000000000000000000000000000000   CON003 REP Constable Precinct 3                                UNDER VOTES                           6 - Franklin                  Precinct 3               01 
00110040011000000000000000000000000000000000000000000000000000000000000000000000000000000000000000000   CON003 REP Constable Precinct 3                                UNDER VOTES                           16 - Easterly                 Precinct 3               01 
00110040012000000000000000000000000000000000000000000000000000000000000000000000000000000000000000000   CON003 REP Constable Precinct 3                                UNDER VOTES                           18 - Ridge                    Precinct 3               01 
00110040013000001000000000001000000000000000000000000000000000000000000000000000000000000000000000000   CON003 REP Constable Precinct 3                                UNDER VOTES                           19 - New Baden                Precinct 3               01 
00120010001000021000004000000000017000000000000000000000000000000000000000000000000000000000000000000DEM       DEM US Senator                                          Royce West                            1 - Calvert                                            01 
00120010002000028000009000009000010000000000000000000000000000000000000000000000000000000000000000000DEM       DEM US Senator                                          Royce West                            2 - Hearne                                             01 
00120010003000007000002000000000005000000000000000000000000000000000000000000000000000000000000000000DEM       DEM US Senator                                          Royce West                            3 - Wheelock                                           01 
00120010004000006000006000000000000000000000000000000000000000000000000000000000000000000000000000000DEM       DEM US Senator                                          Royce West                            4 - Bald Prairie                                       01 
00120010005000025000012000001000012000000000000000000000000000000000000000000000000000000000000000000DEM       DEM US Senator                                          Royce West                            5 - Bremond                                            01 
00120010006000016000004000006000006000000000000000000000000000000000000000000000000000000000000000000DEM       DEM US Senator                                          Royce West                            6 - Franklin                                           01 
00120010007000003000003000000000000000000000000000000000000000000000000000000000000000000000000000000DEM       DEM US Senator                                          Royce West                            7 - Mumford                                            01 
00120010008000002000002000000000000000000000000000000000000000000000000000000000000000000000000000000DEM       DEM US Senator                                          Royce West                            8 - Seale                                              01 
00120010009000018000008000003000007000000000000000000000000000000000000000000000000000000000000000000DEM       DEM US Senator                                          Royce West                            11 - Benchley                                          01 
00120010010000001000001000000000000000000000000000000000000000000000000000000000000000000000000000000DEM       DEM US Senator                                          Royce West                            13 - Elliott                                           01 
00120010011000000000000000000000000000000000000000000000000000000000000000000000000000000000000000000DEM       DEM US Senator                                          Royce West                            16 - Easterly                                          01 
00120010012000000000000000000000000000000000000000000000000000000000000000000000000000000000000000000DEM       DEM US Senator                                          Royce West                            18 - Ridge                                             01 
00120010013000000000000000000000000000000000000000000000000000000000000000000000000000000000000000000DEM       DEM US Senator                                          Royce West                            19 - New Baden                                         01 
00120010014000090000038000030000022000000000000000000000000000000000000000000000000000000000000000000DEM       DEM US Senator                                          Royce West                            22 - Teal Center                                       01 
00120010015000019000009000007000003000000000000000000000000000000000000000000000000000000000000000000DEM       DEM US Senator                                          Royce West                            23 - Christian Faith                                   01 
00120020001000020000006000001000013000000000000000000000000000000000000000000000000000000000000000000DEM       DEM US Senator                                          Mary "MJ" Hegar                       1 - Calvert                                            01 
00120020002000028000014000010000004000000000000000000000000000000000000000000000000000000000000000000DEM       DEM US Senator                                          Mary "MJ" Hegar                       2 - Hearne                                             01 
00120020003000008000002000003000003000000000000000000000000000000000000000000000000000000000000000000DEM       DEM US Senator                                          Mary "MJ" Hegar                       3 - Wheelock                                           01 
00120020004000004000003000001000000000000000000000000000000000000000000000000000000000000000000000000DEM       DEM US Senator                                          Mary "MJ" Hegar                       4 - Bald Prairie                                       01 
00120020005000021000007000003000011000000000000000000000000000000000000000000000000000000000000000000DEM       DEM US Senator                                          Mary "MJ" Hegar                       5 - Bremond                                            01 
00120020006000011000003000004000004000000000000000000000000000000000000000000000000000000000000000000DEM       DEM US Senator                                          Mary "MJ" Hegar                       6 - Franklin                                           01 
00120020007000000000000000000000000000000000000000000000000000000000000000000000000000000000000000000DEM       DEM US Senator                                          Mary "MJ" Hegar                       7 - Mumford                                            01 
00120020008000000000000000000000000000000000000000000000000000000000000000000000000000000000000000000DEM       DEM US Senator                                          Mary "MJ" Hegar                       8 - Seale                                              01 
00120020009000018000006000003000009000000000000000000000000000000000000000000000000000000000000000000DEM       DEM US Senator                                          Mary "MJ" Hegar                       11 - Benchley                                          01 
00120020010000000000000000000000000000000000000000000000000000000000000000000000000000000000000000000DEM       DEM US Senator                                          Mary "MJ" Hegar                       13 - Elliott                                           01 
00120020011000000000000000000000000000000000000000000000000000000000000000000000000000000000000000000DEM       DEM US Senator                                          Mary "MJ" Hegar                       16 - Easterly                                          01 
00120020012000000000000000000000000000000000000000000000000000000000000000000000000000000000000000000DEM       DEM US Senator                                          Mary "MJ" Hegar                       18 - Ridge                                             01 
00120020013000014000004000005000005000000000000000000000000000000000000000000000000000000000000000000DEM       DEM US Senator                                          Mary "MJ" Hegar                       19 - New Baden                                         01 
00120020014000014000006000004000004000000000000000000000000000000000000000000000000000000000000000000DEM       DEM US Senator                                          Mary "MJ" Hegar                       22 - Teal Center                                       01 
00120020015000004000002000002000000000000000000000000000000000000000000000000000000000000000000000000DEM       DEM US Senator                                          Mary "MJ" Hegar                       23 - Christian Faith                                   01 
00120030001000000000000000000000000000000000000000000000000000000000000000000000000000000000000000000          DEM US Senator                                          OVER VOTES                            1 - Calvert                                            01 
00120030002000000000000000000000000000000000000000000000000000000000000000000000000000000000000000000          DEM US Senator                                          OVER VOTES                            2 - Hearne                                             01 
00120030003000000000000000000000000000000000000000000000000000000000000000000000000000000000000000000          DEM US Senator                                          OVER VOTES                            3 - Wheelock                                           01 
00120030004000000000000000000000000000000000000000000000000000000000000000000000000000000000000000000          DEM US Senator                                          OVER VOTES                            4 - Bald Prairie                                       01 
00120030005000000000000000000000000000000000000000000000000000000000000000000000000000000000000000000          DEM US Senator                                          OVER VOTES                            5 - Bremond                                            01 
00120030006000000000000000000000000000000000000000000000000000000000000000000000000000000000000000000          DEM US Senator                                          OVER VOTES                            6 - Franklin                                           01 
00120030007000000000000000000000000000000000000000000000000000000000000000000000000000000000000000000          DEM US Senator                                          OVER VOTES                            7 - Mumford                                            01 
00120030008000000000000000000000000000000000000000000000000000000000000000000000000000000000000000000          DEM US Senator                                          OVER VOTES                            8 - Seale                                              01 
00120030009000000000000000000000000000000000000000000000000000000000000000000000000000000000000000000          DEM US Senator                                          OVER VOTES                            11 - Benchley                                          01 
00120030010000000000000000000000000000000000000000000000000000000000000000000000000000000000000000000          DEM US Senator                                          OVER VOTES                            13 - Elliott                                           01 
00120030011000000000000000000000000000000000000000000000000000000000000000000000000000000000000000000          DEM US Senator                                          OVER VOTES                            16 - Easterly                                          01 
00120030012000000000000000000000000000000000000000000000000000000000000000000000000000000000000000000          DEM US Senator                                          OVER VOTES                            18 - Ridge                                             01 
00120030013000000000000000000000000000000000000000000000000000000000000000000000000000000000000000000          DEM US Senator                                          OVER VOTES                            19 - New Baden                                         01 
00120030014000000000000000000000000000000000000000000000000000000000000000000000000000000000000000000          DEM US Senator                                          OVER VOTES                            22 - Teal Center                                       01 
00120030015000000000000000000000000000000000000000000000000000000000000000000000000000000000000000000          DEM US Senator                                          OVER VOTES                            23 - Christian Faith                                   01 
00120040001000002000000000001000001000000000000000000000000000000000000000000000000000000000000000000          DEM US Senator                                          UNDER VOTES                           1 - Calvert                                            01 
00120040002000001000000000000000001000000000000000000000000000000000000000000000000000000000000000000          DEM US Senator                                          UNDER VOTES                           2 - Hearne                                             01 
00120040003000000000000000000000000000000000000000000000000000000000000000000000000000000000000000000          DEM US Senator                                          UNDER VOTES                           3 - Wheelock                                           01 
00120040004000000000000000000000000000000000000000000000000000000000000000000000000000000000000000000          DEM US Senator                                          UNDER VOTES                           4 - Bald Prairie                                       01 
00120040005000000000000000000000000000000000000000000000000000000000000000000000000000000000000000000          DEM US Senator                                          UNDER VOTES                           5 - Bremond                                            01 
00120040006000001000000000001000000000000000000000000000000000000000000000000000000000000000000000000          DEM US Senator                                          UNDER VOTES                           6 - Franklin                                           01 
00120040007000000000000000000000000000000000000000000000000000000000000000000000000000000000000000000          DEM US Senator                                          UNDER VOTES                           7 - Mumford                                            01 
00120040008000000000000000000000000000000000000000000000000000000000000000000000000000000000000000000          DEM US Senator                                          UNDER VOTES                           8 - Seale                                              01 
00120040009000000000000000000000000000000000000000000000000000000000000000000000000000000000000000000          DEM US Senator                                          UNDER VOTES                           11 - Benchley                                          01 
00120040010000000000000000000000000000000000000000000000000000000000000000000000000000000000000000000          DEM US Senator                                          UNDER VOTES                           13 - Elliott                                           01 
00120040011000000000000000000000000000000000000000000000000000000000000000000000000000000000000000000          DEM US Senator                                          UNDER VOTES                           16 - Easterly                                          01 
00120040012000001000000000001000000000000000000000000000000000000000000000000000000000000000000000000          DEM US Senator                                          UNDER VOTES                           18 - Ridge                                             01 
00120040013000000000000000000000000000000000000000000000000000000000000000000000000000000000000000000          DEM US Senator                                          UNDER VOTES                           19 - New Baden                                         01 
00120040014000000000000000000000000000000000000000000000000000000000000000000000000000000000000000000          DEM US Senator                                          UNDER VOTES                           22 - Teal Center                                       01 
00120040015000001000001000000000000000000000000000000000000000000000000000000000000000000000000000000          DEM US Senator                                          UNDER VOTES                           23 - Christian Faith                                   01 
00130010001000016000002000001000013000000000000000000000000000000000000000000000000000000000000000000DEM       DEM US Rep District 17                                  David Anthony Jaramillo               1 - Calvert                                            01 
00130010002000024000008000011000005000000000000000000000000000000000000000000000000000000000000000000DEM       DEM US Rep District 17                                  David Anthony Jaramillo               2 - Hearne                                             01 
00130010003000007000004000000000003000000000000000000000000000000000000000000000000000000000000000000DEM       DEM US Rep District 17                                  David Anthony Jaramillo               3 - Wheelock                                           01 
00130010004000006000005000001000000000000000000000000000000000000000000000000000000000000000000000000DEM       DEM US Rep District 17                                  David Anthony Jaramillo               4 - Bald Prairie                                       01 
00130010005000014000002000000000012000000000000000000000000000000000000000000000000000000000000000000DEM       DEM US Rep District 17                                  David Anthony Jaramillo               5 - Bremond                                            01 
00130010006000005000001000001000003000000000000000000000000000000000000000000000000000000000000000000DEM       DEM US Rep District 17                                  David Anthony Jaramillo               6 - Franklin                                           01 
00130010007000001000001000000000000000000000000000000000000000000000000000000000000000000000000000000DEM       DEM US Rep District 17                                  David Anthony Jaramillo               7 - Mumford                                            01 
00130010008000002000002000000000000000000000000000000000000000000000000000000000000000000000000000000DEM       DEM US Rep District 17                                  David Anthony Jaramillo               8 - Seale                                              01 
00130010009000013000005000003000005000000000000000000000000000000000000000000000000000000000000000000DEM       DEM US Rep District 17                                  David Anthony Jaramillo               11 - Benchley                                          01 
00130010010000000000000000000000000000000000000000000000000000000000000000000000000000000000000000000DEM       DEM US Rep District 17                                  David Anthony Jaramillo               13 - Elliott                                           01 
00130010011000000000000000000000000000000000000000000000000000000000000000000000000000000000000000000DEM       DEM US Rep District 17                                  David Anthony Jaramillo               16 - Easterly                                          01 
00130010012000000000000000000000000000000000000000000000000000000000000000000000000000000000000000000DEM       DEM US Rep District 17                                  David Anthony Jaramillo               18 - Ridge                                             01 
00130010013000005000002000001000002000000000000000000000000000000000000000000000000000000000000000000DEM       DEM US Rep District 17                                  David Anthony Jaramillo               19 - New Baden                                         01 
00130010014000024000012000005000007000000000000000000000000000000000000000000000000000000000000000000DEM       DEM US Rep District 17                                  David Anthony Jaramillo               22 - Teal Center                                       01 
00130010015000014000007000006000001000000000000000000000000000000000000000000000000000000000000000000DEM       DEM US Rep District 17                                  David Anthony Jaramillo               23 - Christian Faith                                   01 
00130020001000025000008000000000017000000000000000000000000000000000000000000000000000000000000000000DEM       DEM US Rep District 17                                  Rick Kennedy                          1 - Calvert                                            01 
00130020002000033000015000008000010000000000000000000000000000000000000000000000000000000000000000000DEM       DEM US Rep District 17                                  Rick Kennedy                          2 - Hearne                                             01 
00130020003000008000000000003000005000000000000000000000000000000000000000000000000000000000000000000DEM       DEM US Rep District 17                                  Rick Kennedy                          3 - Wheelock                                           01 
00130020004000004000004000000000000000000000000000000000000000000000000000000000000000000000000000000DEM       DEM US Rep District 17                                  Rick Kennedy                          4 - Bald Prairie                                       01 
00130020005000030000017000004000009000000000000000000000000000000000000000000000000000000000000000000DEM       DEM US Rep District 17                                  Rick Kennedy                          5 - Bremond                                            01 
00130020006000021000006000009000006000000000000000000000000000000000000000000000000000000000000000000DEM       DEM US Rep District 17                                  Rick Kennedy                          6 - Franklin                                           01 
00130020007000002000002000000000000000000000000000000000000000000000000000000000000000000000000000000DEM       DEM US Rep District 17                                  Rick Kennedy                          7 - Mumford                                            01 
00130020008000000000000000000000000000000000000000000000000000000000000000000000000000000000000000000DEM       DEM US Rep District 17                                  Rick Kennedy                          8 - Seale                                              01 
00130020009000022000008000003000011000000000000000000000000000000000000000000000000000000000000000000DEM       DEM US Rep District 17                                  Rick Kennedy                          11 - Benchley                                          01 
00130020010000001000001000000000000000000000000000000000000000000000000000000000000000000000000000000DEM       DEM US Rep District 17                                  Rick Kennedy                          13 - Elliott                                           01 
00130020011000000000000000000000000000000000000000000000000000000000000000000000000000000000000000000DEM       DEM US Rep District 17                                  Rick Kennedy                          16 - Easterly                                          01 
00130020012000001000000000001000000000000000000000000000000000000000000000000000000000000000000000000DEM       DEM US Rep District 17                                  Rick Kennedy                          18 - Ridge                                             01 
00130020013000009000002000004000003000000000000000000000000000000000000000000000000000000000000000000DEM       DEM US Rep District 17                                  Rick Kennedy                          19 - New Baden                                         01 
00130020014000080000032000029000019000000000000000000000000000000000000000000000000000000000000000000DEM       DEM US Rep District 17                                  Rick Kennedy                          22 - Teal Center                                       01 
00130020015000010000005000003000002000000000000000000000000000000000000000000000000000000000000000000DEM       DEM US Rep District 17                                  Rick Kennedy                          23 - Christian Faith                                   01 
00130030001000000000000000000000000000000000000000000000000000000000000000000000000000000000000000000          DEM US Rep District 17                                  OVER VOTES                            1 - Calvert                                            01 
00130030002000000000000000000000000000000000000000000000000000000000000000000000000000000000000000000          DEM US Rep District 17                                  OVER VOTES                            2 - Hearne                                             01 
00130030003000000000000000000000000000000000000000000000000000000000000000000000000000000000000000000          DEM US Rep District 17                                  OVER VOTES                            3 - Wheelock                                           01 
00130030004000000000000000000000000000000000000000000000000000000000000000000000000000000000000000000          DEM US Rep District 17                                  OVER VOTES                            4 - Bald Prairie                                       01 
00130030005000000000000000000000000000000000000000000000000000000000000000000000000000000000000000000          DEM US Rep District 17                                  OVER VOTES                            5 - Bremond                                            01 
00130030006000000000000000000000000000000000000000000000000000000000000000000000000000000000000000000          DEM US Rep District 17                                  OVER VOTES                            6 - Franklin                                           01 
00130030007000000000000000000000000000000000000000000000000000000000000000000000000000000000000000000          DEM US Rep District 17                                  OVER VOTES                            7 - Mumford                                            01 
00130030008000000000000000000000000000000000000000000000000000000000000000000000000000000000000000000          DEM US Rep District 17                                  OVER VOTES                            8 - Seale                                              01 
00130030009000000000000000000000000000000000000000000000000000000000000000000000000000000000000000000          DEM US Rep District 17                                  OVER VOTES                            11 - Benchley                                          01 
00130030010000000000000000000000000000000000000000000000000000000000000000000000000000000000000000000          DEM US Rep District 17                                  OVER VOTES                            13 - Elliott                                           01 
00130030011000000000000000000000000000000000000000000000000000000000000000000000000000000000000000000          DEM US Rep District 17                                  OVER VOTES                            16 - Easterly                                          01 
00130030012000000000000000000000000000000000000000000000000000000000000000000000000000000000000000000          DEM US Rep District 17                                  OVER VOTES                            18 - Ridge                                             01 
00130030013000000000000000000000000000000000000000000000000000000000000000000000000000000000000000000          DEM US Rep District 17                                  OVER VOTES                            19 - New Baden                                         01 
00130030014000000000000000000000000000000000000000000000000000000000000000000000000000000000000000000          DEM US Rep District 17                                  OVER VOTES                            22 - Teal Center                                       01 
00130030015000000000000000000000000000000000000000000000000000000000000000000000000000000000000000000          DEM US Rep District 17                                  OVER VOTES                            23 - Christian Faith                                   01 
00130040001000002000000000001000001000000000000000000000000000000000000000000000000000000000000000000          DEM US Rep District 17                                  UNDER VOTES                           1 - Calvert                                            01 
00130040002000000000000000000000000000000000000000000000000000000000000000000000000000000000000000000          DEM US Rep District 17                                  UNDER VOTES                           2 - Hearne                                             01 
00130040003000000000000000000000000000000000000000000000000000000000000000000000000000000000000000000          DEM US Rep District 17                                  UNDER VOTES                           3 - Wheelock                                           01 
00130040004000000000000000000000000000000000000000000000000000000000000000000000000000000000000000000          DEM US Rep District 17                                  UNDER VOTES                           4 - Bald Prairie                                       01 
00130040005000002000000000000000002000000000000000000000000000000000000000000000000000000000000000000          DEM US Rep District 17                                  UNDER VOTES                           5 - Bremond                                            01 
00130040006000002000000000001000001000000000000000000000000000000000000000000000000000000000000000000          DEM US Rep District 17                                  UNDER VOTES                           6 - Franklin                                           01 
00130040007000000000000000000000000000000000000000000000000000000000000000000000000000000000000000000          DEM US Rep District 17                                  UNDER VOTES                           7 - Mumford                                            01 
00130040008000000000000000000000000000000000000000000000000000000000000000000000000000000000000000000          DEM US Rep District 17                                  UNDER VOTES                           8 - Seale                                              01 
00130040009000001000001000000000000000000000000000000000000000000000000000000000000000000000000000000          DEM US Rep District 17                                  UNDER VOTES                           11 - Benchley                                          01 
00130040010000000000000000000000000000000000000000000000000000000000000000000000000000000000000000000          DEM US Rep District 17                                  UNDER VOTES                           13 - Elliott                                           01 
00130040011000000000000000000000000000000000000000000000000000000000000000000000000000000000000000000          DEM US Rep District 17                                  UNDER VOTES                           16 - Easterly                                          01 
00130040012000000000000000000000000000000000000000000000000000000000000000000000000000000000000000000          DEM US Rep District 17                                  UNDER VOTES                           18 - Ridge                                             01 
00130040013000000000000000000000000000000000000000000000000000000000000000000000000000000000000000000          DEM US Rep District 17                                  UNDER VOTES                           19 - New Baden                                         01 
00130040014000000000000000000000000000000000000000000000000000000000000000000000000000000000000000000          DEM US Rep District 17                                  UNDER VOTES                           22 - Teal Center                                       01 
00130040015000000000000000000000000000000000000000000000000000000000000000000000000000000000000000000          DEM US Rep District 17                                  UNDER VOTES                           23 - Christian Faith                                   01 
00140010001000021000005000002000014000000000000000000000000000000000000000000000000000000000000000000DEM       DEM Railroad Commissioner                               Chrysta Castaneda                     1 - Calvert                                            01 
00140010002000031000012000014000005000000000000000000000000000000000000000000000000000000000000000000DEM       DEM Railroad Commissioner                               Chrysta Castaneda                     2 - Hearne                                             01 
00140010003000009000004000003000002000000000000000000000000000000000000000000000000000000000000000000DEM       DEM Railroad Commissioner                               Chrysta Castaneda                     3 - Wheelock                                           01 
00140010004000009000008000001000000000000000000000000000000000000000000000000000000000000000000000000DEM       DEM Railroad Commissioner                               Chrysta Castaneda                     4 - Bald Prairie                                       01 
00140010005000023000008000002000013000000000000000000000000000000000000000000000000000000000000000000DEM       DEM Railroad Commissioner                               Chrysta Castaneda                     5 - Bremond                                            01 
00140010006000016000004000007000005000000000000000000000000000000000000000000000000000000000000000000DEM       DEM Railroad Commissioner                               Chrysta Castaneda                     6 - Franklin                                           01 
00140010007000001000001000000000000000000000000000000000000000000000000000000000000000000000000000000DEM       DEM Railroad Commissioner                               Chrysta Castaneda                     7 - Mumford                                            01 
00140010008000001000001000000000000000000000000000000000000000000000000000000000000000000000000000000DEM       DEM Railroad Commissioner                               Chrysta Castaneda                     8 - Seale                                              01 
00140010009000016000006000003000007000000000000000000000000000000000000000000000000000000000000000000DEM       DEM Railroad Commissioner                               Chrysta Castaneda                     11 - Benchley                                          01 
00140010010000000000000000000000000000000000000000000000000000000000000000000000000000000000000000000DEM       DEM Railroad Commissioner                               Chrysta Castaneda                     13 - Elliott                                           01 
00140010011000000000000000000000000000000000000000000000000000000000000000000000000000000000000000000DEM       DEM Railroad Commissioner                               Chrysta Castaneda                     16 - Easterly                                          01 
00140010012000000000000000000000000000000000000000000000000000000000000000000000000000000000000000000DEM       DEM Railroad Commissioner                               Chrysta Castaneda                     18 - Ridge                                             01 
00140010013000010000004000004000002000000000000000000000000000000000000000000000000000000000000000000DEM       DEM Railroad Commissioner                               Chrysta Castaneda                     19 - New Baden                                         01 
00140010014000043000018000013000012000000000000000000000000000000000000000000000000000000000000000000DEM       DEM Railroad Commissioner                               Chrysta Castaneda                     22 - Teal Center                                       01 
00140010015000010000007000003000000000000000000000000000000000000000000000000000000000000000000000000DEM       DEM Railroad Commissioner                               Chrysta Castaneda                     23 - Christian Faith                                   01 
00140020001000020000005000000000015000000000000000000000000000000000000000000000000000000000000000000DEM       DEM Railroad Commissioner                               Roberto R. "Beto" Alonzo              1 - Calvert                                            01 
00140020002000026000011000005000010000000000000000000000000000000000000000000000000000000000000000000DEM       DEM Railroad Commissioner                               Roberto R. "Beto" Alonzo              2 - Hearne                                             01 
00140020003000006000000000000000006000000000000000000000000000000000000000000000000000000000000000000DEM       DEM Railroad Commissioner                               Roberto R. "Beto" Alonzo              3 - Wheelock                                           01 
00140020004000001000001000000000000000000000000000000000000000000000000000000000000000000000000000000DEM       DEM Railroad Commissioner                               Roberto R. "Beto" Alonzo              4 - Bald Prairie                                       01 
00140020005000021000011000001000009000000000000000000000000000000000000000000000000000000000000000000DEM       DEM Railroad Commissioner                               Roberto R. "Beto" Alonzo              5 - Bremond                                            01 
00140020006000011000003000003000005000000000000000000000000000000000000000000000000000000000000000000DEM       DEM Railroad Commissioner                               Roberto R. "Beto" Alonzo              6 - Franklin                                           01 
00140020007000002000002000000000000000000000000000000000000000000000000000000000000000000000000000000DEM       DEM Railroad Commissioner                               Roberto R. "Beto" Alonzo              7 - Mumford                                            01 
00140020008000001000001000000000000000000000000000000000000000000000000000000000000000000000000000000DEM       DEM Railroad Commissioner                               Roberto R. "Beto" Alonzo              8 - Seale                                              01 
00140020009000016000006000002000008000000000000000000000000000000000000000000000000000000000000000000DEM       DEM Railroad Commissioner                               Roberto R. "Beto" Alonzo              11 - Benchley                                          01 
00140020010000001000001000000000000000000000000000000000000000000000000000000000000000000000000000000DEM       DEM Railroad Commissioner                               Roberto R. "Beto" Alonzo              13 - Elliott                                           01 
00140020011000000000000000000000000000000000000000000000000000000000000000000000000000000000000000000DEM       DEM Railroad Commissioner                               Roberto R. "Beto" Alonzo              16 - Easterly                                          01 
00140020012000000000000000000000000000000000000000000000000000000000000000000000000000000000000000000DEM       DEM Railroad Commissioner                               Roberto R. "Beto" Alonzo              18 - Ridge                                             01 
00140020013000004000000000001000003000000000000000000000000000000000000000000000000000000000000000000DEM       DEM Railroad Commissioner                               Roberto R. "Beto" Alonzo              19 - New Baden                                         01 
00140020014000058000023000021000014000000000000000000000000000000000000000000000000000000000000000000DEM       DEM Railroad Commissioner                               Roberto R. "Beto" Alonzo              22 - Teal Center                                       01 
00140020015000013000004000006000003000000000000000000000000000000000000000000000000000000000000000000DEM       DEM Railroad Commissioner                               Roberto R. "Beto" Alonzo              23 - Christian Faith                                   01 
00140030001000001000000000000000001000000000000000000000000000000000000000000000000000000000000000000          DEM Railroad Commissioner                               OVER VOTES                            1 - Calvert                                            01 
00140030002000000000000000000000000000000000000000000000000000000000000000000000000000000000000000000          DEM Railroad Commissioner                               OVER VOTES                            2 - Hearne                                             01 
00140030003000000000000000000000000000000000000000000000000000000000000000000000000000000000000000000          DEM Railroad Commissioner                               OVER VOTES                            3 - Wheelock                                           01 
00140030004000000000000000000000000000000000000000000000000000000000000000000000000000000000000000000          DEM Railroad Commissioner                               OVER VOTES                            4 - Bald Prairie                                       01 
00140030005000000000000000000000000000000000000000000000000000000000000000000000000000000000000000000          DEM Railroad Commissioner                               OVER VOTES                            5 - Bremond                                            01 
00140030006000000000000000000000000000000000000000000000000000000000000000000000000000000000000000000          DEM Railroad Commissioner                               OVER VOTES                            6 - Franklin                                           01 
00140030007000000000000000000000000000000000000000000000000000000000000000000000000000000000000000000          DEM Railroad Commissioner                               OVER VOTES                            7 - Mumford                                            01 
00140030008000000000000000000000000000000000000000000000000000000000000000000000000000000000000000000          DEM Railroad Commissioner                               OVER VOTES                            8 - Seale                                              01 
00140030009000000000000000000000000000000000000000000000000000000000000000000000000000000000000000000          DEM Railroad Commissioner                               OVER VOTES                            11 - Benchley                                          01 
00140030010000000000000000000000000000000000000000000000000000000000000000000000000000000000000000000          DEM Railroad Commissioner                               OVER VOTES                            13 - Elliott                                           01 
00140030011000000000000000000000000000000000000000000000000000000000000000000000000000000000000000000          DEM Railroad Commissioner                               OVER VOTES                            16 - Easterly                                          01 
00140030012000000000000000000000000000000000000000000000000000000000000000000000000000000000000000000          DEM Railroad Commissioner                               OVER VOTES                            18 - Ridge                                             01 
