00010010001000000000000000000000000000000000000000000000000000000000000000000000000000000000000000000          REGISTERED VOTERS - TOTAL                               REGISTERED VOTERS - TOTAL             PRECINCT 1                                             00 
00010010002000000000000000000000000000000000000000000000000000000000000000000000000000000000000000000          REGISTERED VOTERS - TOTAL                               REGISTERED VOTERS - TOTAL             PRECINCT 1A                                            00 
00010010003000000000000000000000000000000000000000000000000000000000000000000000000000000000000000000          REGISTERED VOTERS - TOTAL                               REGISTERED VOTERS - TOTAL             PRECINCT 1B                                            00 
00010010004000000000000000000000000000000000000000000000000000000000000000000000000000000000000000000          REGISTERED VOTERS - TOTAL                               REGISTERED VOTERS - TOTAL             PRECINCT 1C                                            00 
00010010005000000000000000000000000000000000000000000000000000000000000000000000000000000000000000000          REGISTERED VOTERS - TOTAL                               REGISTERED VOTERS - TOTAL             PRECINCT 2                                             00 
00010010006000000000000000000000000000000000000000000000000000000000000000000000000000000000000000000          REGISTERED VOTERS - TOTAL                               REGISTERED VOTERS - TOTAL             PRECINCT 2A                                            00 
00010010007000000000000000000000000000000000000000000000000000000000000000000000000000000000000000000          REGISTERED VOTERS - TOTAL                               REGISTERED VOTERS - TOTAL             PRECINCT 2B                                            00 
00010010008000000000000000000000000000000000000000000000000000000000000000000000000000000000000000000          REGISTERED VOTERS - TOTAL                               REGISTERED VOTERS - TOTAL             PRECINCT 2C                                            00 
00010010009000000000000000000000000000000000000000000000000000000000000000000000000000000000000000000          REGISTERED VOTERS - TOTAL                               REGISTERED VOTERS - TOTAL             PRECINCT 3                                             00 
00010010010000000000000000000000000000000000000000000000000000000000000000000000000000000000000000000          REGISTERED VOTERS - TOTAL                               REGISTERED VOTERS - TOTAL             PRECINCT 3A                                            00 
00010010011000000000000000000000000000000000000000000000000000000000000000000000000000000000000000000          REGISTERED VOTERS - TOTAL                               REGISTERED VOTERS - TOTAL             PRECINCT 3B                                            00 
00010010012000000000000000000000000000000000000000000000000000000000000000000000000000000000000000000          REGISTERED VOTERS - TOTAL                               REGISTERED VOTERS - TOTAL             PRECINCT 3C                                            00 
00010010013000000000000000000000000000000000000000000000000000000000000000000000000000000000000000000          REGISTERED VOTERS - TOTAL                               REGISTERED VOTERS - TOTAL             PRECINCT 3D                                            00 
00010010014000000000000000000000000000000000000000000000000000000000000000000000000000000000000000000          REGISTERED VOTERS - TOTAL                               REGISTERED VOTERS - TOTAL             PRECINCT 4                                             00 
00010010015000000000000000000000000000000000000000000000000000000000000000000000000000000000000000000          REGISTERED VOTERS - TOTAL                               REGISTERED VOTERS - TOTAL             PRECINCT 4A                                            00 
00010010016000000000000000000000000000000000000000000000000000000000000000000000000000000000000000000          REGISTERED VOTERS - TOTAL                               REGISTERED VOTERS - TOTAL             PRECINCT 4B                                            00 
00010010017000000000000000000000000000000000000000000000000000000000000000000000000000000000000000000          REGISTERED VOTERS - TOTAL                               REGISTERED VOTERS - TOTAL             PRECINCT 4C                                            00 
00020010001000210000041000113000056000000000000000000000000000000000000000000000000000000000000000000          BALLOTS CAST - TOTAL                                    BALLOTS CAST - TOTAL                  PRECINCT 1                                             00 
00020010002000129000031000051000047000000000000000000000000000000000000000000000000000000000000000000          BALLOTS CAST - TOTAL                                    BALLOTS CAST - TOTAL                  PRECINCT 1A                                            00 
00020010003000190000034000089000067000000000000000000000000000000000000000000000000000000000000000000          BALLOTS CAST - TOTAL                                    BALLOTS CAST - TOTAL                  PRECINCT 1B                                            00 
00020010004000117000025000056000036000000000000000000000000000000000000000000000000000000000000000000          BALLOTS CAST - TOTAL                                    BALLOTS CAST - TOTAL                  PRECINCT 1C                                            00 
00020010005000179000039000077000063000000000000000000000000000000000000000000000000000000000000000000          BALLOTS CAST - TOTAL                                    BALLOTS CAST - TOTAL                  PRECINCT 2                                             00 
00020010006000211000047000088000076000000000000000000000000000000000000000000000000000000000000000000          BALLOTS CAST - TOTAL                                    BALLOTS CAST - TOTAL                  PRECINCT 2A                                            00 
00020010007000116000022000056000038000000000000000000000000000000000000000000000000000000000000000000          BALLOTS CAST - TOTAL                                    BALLOTS CAST - TOTAL                  PRECINCT 2B                                            00 
00020010008000161000029000077000055000000000000000000000000000000000000000000000000000000000000000000          BALLOTS CAST - TOTAL                                    BALLOTS CAST - TOTAL                  PRECINCT 2C                                            00 
00020010009000032000011000014000007000000000000000000000000000000000000000000000000000000000000000000          BALLOTS CAST - TOTAL                                    BALLOTS CAST - TOTAL                  PRECINCT 3                                             00 
00020010010000055000003000023000029000000000000000000000000000000000000000000000000000000000000000000          BALLOTS CAST - TOTAL                                    BALLOTS CAST - TOTAL                  PRECINCT 3A                                            00 
00020010011000165000015000083000067000000000000000000000000000000000000000000000000000000000000000000          BALLOTS CAST - TOTAL                                    BALLOTS CAST - TOTAL                  PRECINCT 3B                                            00 
00020010012000056000008000027000021000000000000000000000000000000000000000000000000000000000000000000          BALLOTS CAST - TOTAL                                    BALLOTS CAST - TOTAL                  PRECINCT 3C                                            00 
00020010013000155000030000081000044000000000000000000000000000000000000000000000000000000000000000000          BALLOTS CAST - TOTAL                                    BALLOTS CAST - TOTAL                  PRECINCT 3D                                            00 
00020010014000068000020000035000013000000000000000000000000000000000000000000000000000000000000000000          BALLOTS CAST - TOTAL                                    BALLOTS CAST - TOTAL                  PRECINCT 4                                             00 
00020010015000375000044000179000152000000000000000000000000000000000000000000000000000000000000000000          BALLOTS CAST - TOTAL                                    BALLOTS CAST - TOTAL                  PRECINCT 4A                                            00 
00020010016000053000009000023000021000000000000000000000000000000000000000000000000000000000000000000          BALLOTS CAST - TOTAL                                    BALLOTS CAST - TOTAL                  PRECINCT 4B                                            00 
00020010017000075000015000039000021000000000000000000000000000000000000000000000000000000000000000000          BALLOTS CAST - TOTAL                                    BALLOTS CAST - TOTAL                  PRECINCT 4C                                            00 
00030010001000000000000000000000000000000000000000000000000000000000000000000000000000000000000000000          BALLOTS CAST - BLANK                                    BALLOTS CAST - BLANK                  PRECINCT 1                                             00 
00030010002000000000000000000000000000000000000000000000000000000000000000000000000000000000000000000          BALLOTS CAST - BLANK                                    BALLOTS CAST - BLANK                  PRECINCT 1A                                            00 
00030010003000001000000000001000000000000000000000000000000000000000000000000000000000000000000000000          BALLOTS CAST - BLANK                                    BALLOTS CAST - BLANK                  PRECINCT 1B                                            00 
00030010004000000000000000000000000000000000000000000000000000000000000000000000000000000000000000000          BALLOTS CAST - BLANK                                    BALLOTS CAST - BLANK                  PRECINCT 1C                                            00 
00030010005000002000000000000000002000000000000000000000000000000000000000000000000000000000000000000          BALLOTS CAST - BLANK                                    BALLOTS CAST - BLANK                  PRECINCT 2                                             00 
00030010006000001000000000000000001000000000000000000000000000000000000000000000000000000000000000000          BALLOTS CAST - BLANK                                    BALLOTS CAST - BLANK                  PRECINCT 2A                                            00 
00030010007000000000000000000000000000000000000000000000000000000000000000000000000000000000000000000          BALLOTS CAST - BLANK                                    BALLOTS CAST - BLANK                  PRECINCT 2B                                            00 
00030010008000000000000000000000000000000000000000000000000000000000000000000000000000000000000000000          BALLOTS CAST - BLANK                                    BALLOTS CAST - BLANK                  PRECINCT 2C                                            00 
00030010009000000000000000000000000000000000000000000000000000000000000000000000000000000000000000000          BALLOTS CAST - BLANK                                    BALLOTS CAST - BLANK                  PRECINCT 3                                             00 
00030010010000000000000000000000000000000000000000000000000000000000000000000000000000000000000000000          BALLOTS CAST - BLANK                                    BALLOTS CAST - BLANK                  PRECINCT 3A                                            00 
00030010011000000000000000000000000000000000000000000000000000000000000000000000000000000000000000000          BALLOTS CAST - BLANK                                    BALLOTS CAST - BLANK                  PRECINCT 3B                                            00 
00030010012000000000000000000000000000000000000000000000000000000000000000000000000000000000000000000          BALLOTS CAST - BLANK                                    BALLOTS CAST - BLANK                  PRECINCT 3C                                            00 
00030010013000001000001000000000000000000000000000000000000000000000000000000000000000000000000000000          BALLOTS CAST - BLANK                                    BALLOTS CAST - BLANK                  PRECINCT 3D                                            00 
00030010014000000000000000000000000000000000000000000000000000000000000000000000000000000000000000000          BALLOTS CAST - BLANK                                    BALLOTS CAST - BLANK                  PRECINCT 4                                             00 
00030010015000000000000000000000000000000000000000000000000000000000000000000000000000000000000000000          BALLOTS CAST - BLANK                                    BALLOTS CAST - BLANK                  PRECINCT 4A                                            00 
00030010016000000000000000000000000000000000000000000000000000000000000000000000000000000000000000000          BALLOTS CAST - BLANK                                    BALLOTS CAST - BLANK                  PRECINCT 4B                                            00 
00030010017000000000000000000000000000000000000000000000000000000000000000000000000000000000000000000          BALLOTS CAST - BLANK                                    BALLOTS CAST - BLANK                  PRECINCT 4C                                            00 
00040010001000114000027000063000024000000000000000000000000000000000000000000000000000000000000000000DEM       US Senator                                              Mary "MJ" Hegar                       PRECINCT 1                                             01 
00040010002000075000016000028000031000000000000000000000000000000000000000000000000000000000000000000DEM       US Senator                                              Mary "MJ" Hegar                       PRECINCT 1A                                            01 
00040010003000105000020000050000035000000000000000000000000000000000000000000000000000000000000000000DEM       US Senator                                              Mary "MJ" Hegar                       PRECINCT 1B                                            01 
00040010004000062000015000031000016000000000000000000000000000000000000000000000000000000000000000000DEM       US Senator                                              Mary "MJ" Hegar                       PRECINCT 1C                                            01 
00040010005000118000030000045000043000000000000000000000000000000000000000000000000000000000000000000DEM       US Senator                                              Mary "MJ" Hegar                       PRECINCT 2                                             01 
00040010006000115000032000039000044000000000000000000000000000000000000000000000000000000000000000000DEM       US Senator                                              Mary "MJ" Hegar                       PRECINCT 2A                                            01 
00040010007000046000011000018000017000000000000000000000000000000000000000000000000000000000000000000DEM       US Senator                                              Mary "MJ" Hegar                       PRECINCT 2B                                            01 
00040010008000090000018000042000030000000000000000000000000000000000000000000000000000000000000000000DEM       US Senator                                              Mary "MJ" Hegar                       PRECINCT 2C                                            01 
00040010009000008000002000002000004000000000000000000000000000000000000000000000000000000000000000000DEM       US Senator                                              Mary "MJ" Hegar                       PRECINCT 3                                             01 
00040010010000020000002000008000010000000000000000000000000000000000000000000000000000000000000000000DEM       US Senator                                              Mary "MJ" Hegar                       PRECINCT 3A                                            01 
00040010011000061000006000027000028000000000000000000000000000000000000000000000000000000000000000000DEM       US Senator                                              Mary "MJ" Hegar                       PRECINCT 3B                                            01 
00040010012000038000008000015000015000000000000000000000000000000000000000000000000000000000000000000DEM       US Senator                                              Mary "MJ" Hegar                       PRECINCT 3C                                            01 
00040010013000075000020000037000018000000000000000000000000000000000000000000000000000000000000000000DEM       US Senator                                              Mary "MJ" Hegar                       PRECINCT 3D                                            01 
00040010014000035000011000018000006000000000000000000000000000000000000000000000000000000000000000000DEM       US Senator                                              Mary "MJ" Hegar                       PRECINCT 4                                             01 
00040010015000182000028000074000080000000000000000000000000000000000000000000000000000000000000000000DEM       US Senator                                              Mary "MJ" Hegar                       PRECINCT 4A                                            01 
00040010016000029000005000009000015000000000000000000000000000000000000000000000000000000000000000000DEM       US Senator                                              Mary "MJ" Hegar                       PRECINCT 4B                                            01 
00040010017000039000008000018000013000000000000000000000000000000000000000000000000000000000000000000DEM       US Senator                                              Mary "MJ" Hegar                       PRECINCT 4C                                            01 
00040020001000096000014000050000032000000000000000000000000000000000000000000000000000000000000000000DEM       US Senator                                              Royce West                            PRECINCT 1                                             01 
00040020002000054000015000023000016000000000000000000000000000000000000000000000000000000000000000000DEM       US Senator                                              Royce West                            PRECINCT 1A                                            01 
00040020003000084000014000038000032000000000000000000000000000000000000000000000000000000000000000000DEM       US Senator                                              Royce West                            PRECINCT 1B                                            01 
00040020004000055000010000025000020000000000000000000000000000000000000000000000000000000000000000000DEM       US Senator                                              Royce West                            PRECINCT 1C                                            01 
00040020005000059000009000032000018000000000000000000000000000000000000000000000000000000000000000000DEM       US Senator                                              Royce West                            PRECINCT 2                                             01 
00040020006000095000015000049000031000000000000000000000000000000000000000000000000000000000000000000DEM       US Senator                                              Royce West                            PRECINCT 2A                                            01 
00040020007000070000011000038000021000000000000000000000000000000000000000000000000000000000000000000DEM       US Senator                                              Royce West                            PRECINCT 2B                                            01 
00040020008000071000011000035000025000000000000000000000000000000000000000000000000000000000000000000DEM       US Senator                                              Royce West                            PRECINCT 2C                                            01 
00040020009000024000009000012000003000000000000000000000000000000000000000000000000000000000000000000DEM       US Senator                                              Royce West                            PRECINCT 3                                             01 
00040020010000035000001000015000019000000000000000000000000000000000000000000000000000000000000000000DEM       US Senator                                              Royce West                            PRECINCT 3A                                            01 
00040020011000104000009000056000039000000000000000000000000000000000000000000000000000000000000000000DEM       US Senator                                              Royce West                            PRECINCT 3B                                            01 
00040020012000018000000000012000006000000000000000000000000000000000000000000000000000000000000000000DEM       US Senator                                              Royce West                            PRECINCT 3C                                            01 
00040020013000079000009000044000026000000000000000000000000000000000000000000000000000000000000000000DEM       US Senator                                              Royce West                            PRECINCT 3D                                            01 
00040020014000033000009000017000007000000000000000000000000000000000000000000000000000000000000000000DEM       US Senator                                              Royce West                            PRECINCT 4                                             01 
00040020015000193000016000105000072000000000000000000000000000000000000000000000000000000000000000000DEM       US Senator                                              Royce West                            PRECINCT 4A                                            01 
00040020016000024000004000014000006000000000000000000000000000000000000000000000000000000000000000000DEM       US Senator                                              Royce West                            PRECINCT 4B                                            01 
00040020017000036000007000021000008000000000000000000000000000000000000000000000000000000000000000000DEM       US Senator                                              Royce West                            PRECINCT 4C                                            01 
00040030001000000000000000000000000000000000000000000000000000000000000000000000000000000000000000000          US Senator                                              OVER VOTES                            PRECINCT 1                                             01 
00040030002000000000000000000000000000000000000000000000000000000000000000000000000000000000000000000          US Senator                                              OVER VOTES                            PRECINCT 1A                                            01 
00040030003000000000000000000000000000000000000000000000000000000000000000000000000000000000000000000          US Senator                                              OVER VOTES                            PRECINCT 1B                                            01 
00040030004000000000000000000000000000000000000000000000000000000000000000000000000000000000000000000          US Senator                                              OVER VOTES                            PRECINCT 1C                                            01 
00040030005000000000000000000000000000000000000000000000000000000000000000000000000000000000000000000          US Senator                                              OVER VOTES                            PRECINCT 2                                             01 
00040030006000000000000000000000000000000000000000000000000000000000000000000000000000000000000000000          US Senator                                              OVER VOTES                            PRECINCT 2A                                            01 
00040030007000000000000000000000000000000000000000000000000000000000000000000000000000000000000000000          US Senator                                              OVER VOTES                            PRECINCT 2B                                            01 
00040030008000000000000000000000000000000000000000000000000000000000000000000000000000000000000000000          US Senator                                              OVER VOTES                            PRECINCT 2C                                            01 
00040030009000000000000000000000000000000000000000000000000000000000000000000000000000000000000000000          US Senator                                              OVER VOTES                            PRECINCT 3                                             01 
00040030010000000000000000000000000000000000000000000000000000000000000000000000000000000000000000000          US Senator                                              OVER VOTES                            PRECINCT 3A                                            01 
00040030011000000000000000000000000000000000000000000000000000000000000000000000000000000000000000000          US Senator                                              OVER VOTES                            PRECINCT 3B                                            01 
00040030012000000000000000000000000000000000000000000000000000000000000000000000000000000000000000000          US Senator                                              OVER VOTES                            PRECINCT 3C                                            01 
00040030013000000000000000000000000000000000000000000000000000000000000000000000000000000000000000000          US Senator                                              OVER VOTES                            PRECINCT 3D                                            01 
00040030014000000000000000000000000000000000000000000000000000000000000000000000000000000000000000000          US Senator                                              OVER VOTES                            PRECINCT 4                                             01 
00040030015000000000000000000000000000000000000000000000000000000000000000000000000000000000000000000          US Senator                                              OVER VOTES                            PRECINCT 4A                                            01 
00040030016000000000000000000000000000000000000000000000000000000000000000000000000000000000000000000          US Senator                                              OVER VOTES                            PRECINCT 4B                                            01 
00040030017000000000000000000000000000000000000000000000000000000000000000000000000000000000000000000          US Senator                                              OVER VOTES                            PRECINCT 4C                                            01 
00040040001000000000000000000000000000000000000000000000000000000000000000000000000000000000000000000          US Senator                                              UNDER VOTES                           PRECINCT 1                                             01 
00040040002000000000000000000000000000000000000000000000000000000000000000000000000000000000000000000          US Senator                                              UNDER VOTES                           PRECINCT 1A                                            01 
00040040003000001000000000001000000000000000000000000000000000000000000000000000000000000000000000000          US Senator                                              UNDER VOTES                           PRECINCT 1B                                            01 
00040040004000000000000000000000000000000000000000000000000000000000000000000000000000000000000000000          US Senator                                              UNDER VOTES                           PRECINCT 1C                                            01 
00040040005000002000000000000000002000000000000000000000000000000000000000000000000000000000000000000          US Senator                                              UNDER VOTES                           PRECINCT 2                                             01 
00040040006000001000000000000000001000000000000000000000000000000000000000000000000000000000000000000          US Senator                                              UNDER VOTES                           PRECINCT 2A                                            01 
00040040007000000000000000000000000000000000000000000000000000000000000000000000000000000000000000000          US Senator                                              UNDER VOTES                           PRECINCT 2B                                            01 
00040040008000000000000000000000000000000000000000000000000000000000000000000000000000000000000000000          US Senator                                              UNDER VOTES                           PRECINCT 2C                                            01 
00040040009000000000000000000000000000000000000000000000000000000000000000000000000000000000000000000          US Senator                                              UNDER VOTES                           PRECINCT 3                                             01 
00040040010000000000000000000000000000000000000000000000000000000000000000000000000000000000000000000          US Senator                                              UNDER VOTES                           PRECINCT 3A                                            01 
00040040011000000000000000000000000000000000000000000000000000000000000000000000000000000000000000000          US Senator                                              UNDER VOTES                           PRECINCT 3B                                            01 
00040040012000000000000000000000000000000000000000000000000000000000000000000000000000000000000000000          US Senator                                              UNDER VOTES                           PRECINCT 3C                                            01 
00040040013000001000001000000000000000000000000000000000000000000000000000000000000000000000000000000          US Senator                                              UNDER VOTES                           PRECINCT 3D                                            01 
00040040014000000000000000000000000000000000000000000000000000000000000000000000000000000000000000000          US Senator                                              UNDER VOTES                           PRECINCT 4                                             01 
00040040015000000000000000000000000000000000000000000000000000000000000000000000000000000000000000000          US Senator                                              UNDER VOTES                           PRECINCT 4A                                            01 
00040040016000000000000000000000000000000000000000000000000000000000000000000000000000000000000000000          US Senator                                              UNDER VOTES                           PRECINCT 4B                                            01 
00040040017000000000000000000000000000000000000000000000000000000000000000000000000000000000000000000          US Senator                                              UNDER VOTES                           PRECINCT 4C                                            01 
00050010001000068000012000034000022000000000000000000000000000000000000000000000000000000000000000000DEM       Railroad Commissioner                                   Roberto R. "Beto" Alonzo              PRECINCT 1                                             01 
00050010002000046000009000015000022000000000000000000000000000000000000000000000000000000000000000000DEM       Railroad Commissioner                                   Roberto R. "Beto" Alonzo              PRECINCT 1A                                            01 
00050010003000056000007000030000019000000000000000000000000000000000000000000000000000000000000000000DEM       Railroad Commissioner                                   Roberto R. "Beto" Alonzo              PRECINCT 1B                                            01 
00050010004000038000008000016000014000000000000000000000000000000000000000000000000000000000000000000DEM       Railroad Commissioner                                   Roberto R. "Beto" Alonzo              PRECINCT 1C                                            01 
00050010005000049000009000018000022000000000000000000000000000000000000000000000000000000000000000000DEM       Railroad Commissioner                                   Roberto R. "Beto" Alonzo              PRECINCT 2                                             01 
00050010006000068000010000027000031000000000000000000000000000000000000000000000000000000000000000000DEM       Railroad Commissioner                                   Roberto R. "Beto" Alonzo              PRECINCT 2A                                            01 
00050010007000049000012000020000017000000000000000000000000000000000000000000000000000000000000000000DEM       Railroad Commissioner                                   Roberto R. "Beto" Alonzo              PRECINCT 2B                                            01 
00050010008000034000009000016000009000000000000000000000000000000000000000000000000000000000000000000DEM       Railroad Commissioner                                   Roberto R. "Beto" Alonzo              PRECINCT 2C                                            01 
00050010009000019000008000009000002000000000000000000000000000000000000000000000000000000000000000000DEM       Railroad Commissioner                                   Roberto R. "Beto" Alonzo              PRECINCT 3                                             01 
00050010010000021000001000008000012000000000000000000000000000000000000000000000000000000000000000000DEM       Railroad Commissioner                                   Roberto R. "Beto" Alonzo              PRECINCT 3A                                            01 
00050010011000071000004000038000029000000000000000000000000000000000000000000000000000000000000000000DEM       Railroad Commissioner                                   Roberto R. "Beto" Alonzo              PRECINCT 3B                                            01 
00050010012000017000001000010000006000000000000000000000000000000000000000000000000000000000000000000DEM       Railroad Commissioner                                   Roberto R. "Beto" Alonzo              PRECINCT 3C                                            01 
00050010013000040000007000024000009000000000000000000000000000000000000000000000000000000000000000000DEM       Railroad Commissioner                                   Roberto R. "Beto" Alonzo              PRECINCT 3D                                            01 
00050010014000020000009000004000007000000000000000000000000000000000000000000000000000000000000000000DEM       Railroad Commissioner                                   Roberto R. "Beto" Alonzo              PRECINCT 4                                             01 
00050010015000150000017000071000062000000000000000000000000000000000000000000000000000000000000000000DEM       Railroad Commissioner                                   Roberto R. "Beto" Alonzo              PRECINCT 4A                                            01 
00050010016000020000002000011000007000000000000000000000000000000000000000000000000000000000000000000DEM       Railroad Commissioner                                   Roberto R. "Beto" Alonzo              PRECINCT 4B                                            01 
00050010017000035000007000020000008000000000000000000000000000000000000000000000000000000000000000000DEM       Railroad Commissioner                                   Roberto R. "Beto" Alonzo              PRECINCT 4C                                            01 
00050020001000136000026000077000033000000000000000000000000000000000000000000000000000000000000000000DEM       Railroad Commissioner                                   Chrysta Castaneda                     PRECINCT 1                                             01 
00050020002000083000022000036000025000000000000000000000000000000000000000000000000000000000000000000DEM       Railroad Commissioner                                   Chrysta Castaneda                     PRECINCT 1A                                            01 
00050020003000131000025000058000048000000000000000000000000000000000000000000000000000000000000000000DEM       Railroad Commissioner                                   Chrysta Castaneda                     PRECINCT 1B                                            01 
00050020004000078000017000039000022000000000000000000000000000000000000000000000000000000000000000000DEM       Railroad Commissioner                                   Chrysta Castaneda                     PRECINCT 1C                                            01 
00050020005000123000029000058000036000000000000000000000000000000000000000000000000000000000000000000DEM       Railroad Commissioner                                   Chrysta Castaneda                     PRECINCT 2                                             01 
00050020006000138000036000059000043000000000000000000000000000000000000000000000000000000000000000000DEM       Railroad Commissioner                                   Chrysta Castaneda                     PRECINCT 2A                                            01 
00050020007000061000008000035000018000000000000000000000000000000000000000000000000000000000000000000DEM       Railroad Commissioner                                   Chrysta Castaneda                     PRECINCT 2B                                            01 
00050020008000123000020000059000044000000000000000000000000000000000000000000000000000000000000000000DEM       Railroad Commissioner                                   Chrysta Castaneda                     PRECINCT 2C                                            01 
00050020009000013000003000005000005000000000000000000000000000000000000000000000000000000000000000000DEM       Railroad Commissioner                                   Chrysta Castaneda                     PRECINCT 3                                             01 
00050020010000032000000000015000017000000000000000000000000000000000000000000000000000000000000000000DEM       Railroad Commissioner                                   Chrysta Castaneda                     PRECINCT 3A                                            01 
00050020011000093000011000044000038000000000000000000000000000000000000000000000000000000000000000000DEM       Railroad Commissioner                                   Chrysta Castaneda                     PRECINCT 3B                                            01 
00050020012000038000007000016000015000000000000000000000000000000000000000000000000000000000000000000DEM       Railroad Commissioner                                   Chrysta Castaneda                     PRECINCT 3C                                            01 
00050020013000113000021000057000035000000000000000000000000000000000000000000000000000000000000000000DEM       Railroad Commissioner                                   Chrysta Castaneda                     PRECINCT 3D                                            01 
00050020014000046000011000030000005000000000000000000000000000000000000000000000000000000000000000000DEM       Railroad Commissioner                                   Chrysta Castaneda                     PRECINCT 4                                             01 
00050020015000221000026000105000090000000000000000000000000000000000000000000000000000000000000000000DEM       Railroad Commissioner                                   Chrysta Castaneda                     PRECINCT 4A                                            01 
00050020016000033000007000012000014000000000000000000000000000000000000000000000000000000000000000000DEM       Railroad Commissioner                                   Chrysta Castaneda                     PRECINCT 4B                                            01 
00050020017000040000008000019000013000000000000000000000000000000000000000000000000000000000000000000DEM       Railroad Commissioner                                   Chrysta Castaneda                     PRECINCT 4C                                            01 
00050030001000000000000000000000000000000000000000000000000000000000000000000000000000000000000000000          Railroad Commissioner                                   OVER VOTES                            PRECINCT 1                                             01 
00050030002000000000000000000000000000000000000000000000000000000000000000000000000000000000000000000          Railroad Commissioner                                   OVER VOTES                            PRECINCT 1A                                            01 
00050030003000000000000000000000000000000000000000000000000000000000000000000000000000000000000000000          Railroad Commissioner                                   OVER VOTES                            PRECINCT 1B                                            01 
00050030004000000000000000000000000000000000000000000000000000000000000000000000000000000000000000000          Railroad Commissioner                                   OVER VOTES                            PRECINCT 1C                                            01 
00050030005000000000000000000000000000000000000000000000000000000000000000000000000000000000000000000          Railroad Commissioner                                   OVER VOTES                            PRECINCT 2                                             01 
00050030006000000000000000000000000000000000000000000000000000000000000000000000000000000000000000000          Railroad Commissioner                                   OVER VOTES                            PRECINCT 2A                                            01 
00050030007000000000000000000000000000000000000000000000000000000000000000000000000000000000000000000          Railroad Commissioner                                   OVER VOTES                            PRECINCT 2B                                            01 
00050030008000000000000000000000000000000000000000000000000000000000000000000000000000000000000000000          Railroad Commissioner                                   OVER VOTES                            PRECINCT 2C                                            01 
00050030009000000000000000000000000000000000000000000000000000000000000000000000000000000000000000000          Railroad Commissioner                                   OVER VOTES                            PRECINCT 3                                             01 
00050030010000000000000000000000000000000000000000000000000000000000000000000000000000000000000000000          Railroad Commissioner                                   OVER VOTES                            PRECINCT 3A                                            01 
00050030011000000000000000000000000000000000000000000000000000000000000000000000000000000000000000000          Railroad Commissioner                                   OVER VOTES                            PRECINCT 3B                                            01 
00050030012000000000000000000000000000000000000000000000000000000000000000000000000000000000000000000          Railroad Commissioner                                   OVER VOTES                            PRECINCT 3C                                            01 
00050030013000000000000000000000000000000000000000000000000000000000000000000000000000000000000000000          Railroad Commissioner                                   OVER VOTES                            PRECINCT 3D                                            01 
00050030014000000000000000000000000000000000000000000000000000000000000000000000000000000000000000000          Railroad Commissioner                                   OVER VOTES                            PRECINCT 4                                             01 
00050030015000000000000000000000000000000000000000000000000000000000000000000000000000000000000000000          Railroad Commissioner                                   OVER VOTES                            PRECINCT 4A                                            01 
00050030016000000000000000000000000000000000000000000000000000000000000000000000000000000000000000000          Railroad Commissioner                                   OVER VOTES                            PRECINCT 4B                                            01 
00050030017000000000000000000000000000000000000000000000000000000000000000000000000000000000000000000          Railroad Commissioner                                   OVER VOTES                            PRECINCT 4C                                            01 
00050040001000006000003000002000001000000000000000000000000000000000000000000000000000000000000000000          Railroad Commissioner                                   UNDER VOTES                           PRECINCT 1                                             01 
00050040002000000000000000000000000000000000000000000000000000000000000000000000000000000000000000000          Railroad Commissioner                                   UNDER VOTES                           PRECINCT 1A                                            01 
00050040003000003000002000001000000000000000000000000000000000000000000000000000000000000000000000000          Railroad Commissioner                                   UNDER VOTES                           PRECINCT 1B                                            01 
00050040004000001000000000001000000000000000000000000000000000000000000000000000000000000000000000000          Railroad Commissioner                                   UNDER VOTES                           PRECINCT 1C                                            01 
00050040005000007000001000001000005000000000000000000000000000000000000000000000000000000000000000000          Railroad Commissioner                                   UNDER VOTES                           PRECINCT 2                                             01 
00050040006000005000001000002000002000000000000000000000000000000000000000000000000000000000000000000          Railroad Commissioner                                   UNDER VOTES                           PRECINCT 2A                                            01 
00050040007000006000002000001000003000000000000000000000000000000000000000000000000000000000000000000          Railroad Commissioner                                   UNDER VOTES                           PRECINCT 2B                                            01 
00050040008000004000000000002000002000000000000000000000000000000000000000000000000000000000000000000          Railroad Commissioner                                   UNDER VOTES                           PRECINCT 2C                                            01 
00050040009000000000000000000000000000000000000000000000000000000000000000000000000000000000000000000          Railroad Commissioner                                   UNDER VOTES                           PRECINCT 3                                             01 
00050040010000002000002000000000000000000000000000000000000000000000000000000000000000000000000000000          Railroad Commissioner                                   UNDER VOTES                           PRECINCT 3A                                            01 
00050040011000001000000000001000000000000000000000000000000000000000000000000000000000000000000000000          Railroad Commissioner                                   UNDER VOTES                           PRECINCT 3B                                            01 
00050040012000001000000000001000000000000000000000000000000000000000000000000000000000000000000000000          Railroad Commissioner                                   UNDER VOTES                           PRECINCT 3C                                            01 
00050040013000002000002000000000000000000000000000000000000000000000000000000000000000000000000000000          Railroad Commissioner                                   UNDER VOTES                           PRECINCT 3D                                            01 
00050040014000002000000000001000001000000000000000000000000000000000000000000000000000000000000000000          Railroad Commissioner                                   UNDER VOTES                           PRECINCT 4                                             01 
00050040015000004000001000003000000000000000000000000000000000000000000000000000000000000000000000000          Railroad Commissioner                                   UNDER VOTES                           PRECINCT 4A                                            01 
00050040016000000000000000000000000000000000000000000000000000000000000000000000000000000000000000000          Railroad Commissioner                                   UNDER VOTES                           PRECINCT 4B                                            01 
00050040017000000000000000000000000000000000000000000000000000000000000000000000000000000000000000000          Railroad Commissioner                                   UNDER VOTES                           PRECINCT 4C                                            01 
