00010010001000000000000000000000000000000000000000000000000000000000000000000000000000000000000000000          REGISTERED VOTERS - TOTAL                               REGISTERED VOTERS - TOTAL             PRECINCT 1                                             00 
00010010002000000000000000000000000000000000000000000000000000000000000000000000000000000000000000000          REGISTERED VOTERS - TOTAL                               REGISTERED VOTERS - TOTAL             PRECINCT 1A                                            00 
00010010003000000000000000000000000000000000000000000000000000000000000000000000000000000000000000000          REGISTERED VOTERS - TOTAL                               REGISTERED VOTERS - TOTAL             PRECINCT 1B                                            00 
00010010004000000000000000000000000000000000000000000000000000000000000000000000000000000000000000000          REGISTERED VOTERS - TOTAL                               REGISTERED VOTERS - TOTAL             PRECINCT 1C                                            00 
00010010005000000000000000000000000000000000000000000000000000000000000000000000000000000000000000000          REGISTERED VOTERS - TOTAL                               REGISTERED VOTERS - TOTAL             PRECINCT 2                                             00 
00010010006000000000000000000000000000000000000000000000000000000000000000000000000000000000000000000          REGISTERED VOTERS - TOTAL                               REGISTERED VOTERS - TOTAL             PRECINCT 2A                                            00 
00010010007000000000000000000000000000000000000000000000000000000000000000000000000000000000000000000          REGISTERED VOTERS - TOTAL                               REGISTERED VOTERS - TOTAL             PRECINCT 2B                                            00 
00010010008000000000000000000000000000000000000000000000000000000000000000000000000000000000000000000          REGISTERED VOTERS - TOTAL                               REGISTERED VOTERS - TOTAL             PRECINCT 2C                                            00 
00010010009000000000000000000000000000000000000000000000000000000000000000000000000000000000000000000          REGISTERED VOTERS - TOTAL                               REGISTERED VOTERS - TOTAL             PRECINCT 3                                             00 
00010010010000000000000000000000000000000000000000000000000000000000000000000000000000000000000000000          REGISTERED VOTERS - TOTAL                               REGISTERED VOTERS - TOTAL             PRECINCT 3A                                            00 
00010010011000000000000000000000000000000000000000000000000000000000000000000000000000000000000000000          REGISTERED VOTERS - TOTAL                               REGISTERED VOTERS - TOTAL             PRECINCT 3B                                            00 
00010010012000000000000000000000000000000000000000000000000000000000000000000000000000000000000000000          REGISTERED VOTERS - TOTAL                               REGISTERED VOTERS - TOTAL             PRECINCT 3C                                            00 
00010010013000000000000000000000000000000000000000000000000000000000000000000000000000000000000000000          REGISTERED VOTERS - TOTAL                               REGISTERED VOTERS - TOTAL             PRECINCT 3D                                            00 
00010010014000000000000000000000000000000000000000000000000000000000000000000000000000000000000000000          REGISTERED VOTERS - TOTAL                               REGISTERED VOTERS - TOTAL             PRECINCT 4                                             00 
00010010015000000000000000000000000000000000000000000000000000000000000000000000000000000000000000000          REGISTERED VOTERS - TOTAL                               REGISTERED VOTERS - TOTAL             PRECINCT 4A                                            00 
00010010016000000000000000000000000000000000000000000000000000000000000000000000000000000000000000000          REGISTERED VOTERS - TOTAL                               REGISTERED VOTERS - TOTAL             PRECINCT 4B                                            00 
00010010017000000000000000000000000000000000000000000000000000000000000000000000000000000000000000000          REGISTERED VOTERS - TOTAL                               REGISTERED VOTERS - TOTAL             PRECINCT 4C                                            00 
00020010001000459000083000277000099000000000000000000000000000000000000000000000000000000000000000000          BALLOTS CAST - TOTAL                                    BALLOTS CAST - TOTAL                  PRECINCT 1                                             00 
00020010002000168000050000058000060000000000000000000000000000000000000000000000000000000000000000000          BALLOTS CAST - TOTAL                                    BALLOTS CAST - TOTAL                  PRECINCT 1A                                            00 
00020010003000503000071000290000142000000000000000000000000000000000000000000000000000000000000000000          BALLOTS CAST - TOTAL                                    BALLOTS CAST - TOTAL                  PRECINCT 1B                                            00 
00020010004000305000053000173000079000000000000000000000000000000000000000000000000000000000000000000          BALLOTS CAST - TOTAL                                    BALLOTS CAST - TOTAL                  PRECINCT 1C                                            00 
00020010005000459000090000227000142000000000000000000000000000000000000000000000000000000000000000000          BALLOTS CAST - TOTAL                                    BALLOTS CAST - TOTAL                  PRECINCT 2                                             00 
00020010006000335000065000163000107000000000000000000000000000000000000000000000000000000000000000000          BALLOTS CAST - TOTAL                                    BALLOTS CAST - TOTAL                  PRECINCT 2A                                            00 
00020010007000090000019000037000034000000000000000000000000000000000000000000000000000000000000000000          BALLOTS CAST - TOTAL                                    BALLOTS CAST - TOTAL                  PRECINCT 2B                                            00 
00020010008000748000047000463000238000000000000000000000000000000000000000000000000000000000000000000          BALLOTS CAST - TOTAL                                    BALLOTS CAST - TOTAL                  PRECINCT 2C                                            00 
00020010009000039000019000014000006000000000000000000000000000000000000000000000000000000000000000000          BALLOTS CAST - TOTAL                                    BALLOTS CAST - TOTAL                  PRECINCT 3                                             00 
00020010010000054000006000032000016000000000000000000000000000000000000000000000000000000000000000000          BALLOTS CAST - TOTAL                                    BALLOTS CAST - TOTAL                  PRECINCT 3A                                            00 
00020010011000119000009000060000050000000000000000000000000000000000000000000000000000000000000000000          BALLOTS CAST - TOTAL                                    BALLOTS CAST - TOTAL                  PRECINCT 3B                                            00 
00020010012000352000060000183000109000000000000000000000000000000000000000000000000000000000000000000          BALLOTS CAST - TOTAL                                    BALLOTS CAST - TOTAL                  PRECINCT 3C                                            00 
00020010013000499000065000233000201000000000000000000000000000000000000000000000000000000000000000000          BALLOTS CAST - TOTAL                                    BALLOTS CAST - TOTAL                  PRECINCT 3D                                            00 
00020010014000227000050000119000058000000000000000000000000000000000000000000000000000000000000000000          BALLOTS CAST - TOTAL                                    BALLOTS CAST - TOTAL                  PRECINCT 4                                             00 
00020010015000511000054000289000168000000000000000000000000000000000000000000000000000000000000000000          BALLOTS CAST - TOTAL                                    BALLOTS CAST - TOTAL                  PRECINCT 4A                                            00 
00020010016000118000012000060000046000000000000000000000000000000000000000000000000000000000000000000          BALLOTS CAST - TOTAL                                    BALLOTS CAST - TOTAL                  PRECINCT 4B                                            00 
00020010017000189000013000076000100000000000000000000000000000000000000000000000000000000000000000000          BALLOTS CAST - TOTAL                                    BALLOTS CAST - TOTAL                  PRECINCT 4C                                            00 
00030010001000000000000000000000000000000000000000000000000000000000000000000000000000000000000000000          BALLOTS CAST - BLANK                                    BALLOTS CAST - BLANK                  PRECINCT 1                                             00 
00030010002000001000000000001000000000000000000000000000000000000000000000000000000000000000000000000          BALLOTS CAST - BLANK                                    BALLOTS CAST - BLANK                  PRECINCT 1A                                            00 
00030010003000000000000000000000000000000000000000000000000000000000000000000000000000000000000000000          BALLOTS CAST - BLANK                                    BALLOTS CAST - BLANK                  PRECINCT 1B                                            00 
00030010004000000000000000000000000000000000000000000000000000000000000000000000000000000000000000000          BALLOTS CAST - BLANK                                    BALLOTS CAST - BLANK                  PRECINCT 1C                                            00 
00030010005000001000000000001000000000000000000000000000000000000000000000000000000000000000000000000          BALLOTS CAST - BLANK                                    BALLOTS CAST - BLANK                  PRECINCT 2                                             00 
00030010006000000000000000000000000000000000000000000000000000000000000000000000000000000000000000000          BALLOTS CAST - BLANK                                    BALLOTS CAST - BLANK                  PRECINCT 2A                                            00 
00030010007000000000000000000000000000000000000000000000000000000000000000000000000000000000000000000          BALLOTS CAST - BLANK                                    BALLOTS CAST - BLANK                  PRECINCT 2B                                            00 
00030010008000001000000000001000000000000000000000000000000000000000000000000000000000000000000000000          BALLOTS CAST - BLANK                                    BALLOTS CAST - BLANK                  PRECINCT 2C                                            00 
00030010009000000000000000000000000000000000000000000000000000000000000000000000000000000000000000000          BALLOTS CAST - BLANK                                    BALLOTS CAST - BLANK                  PRECINCT 3                                             00 
00030010010000000000000000000000000000000000000000000000000000000000000000000000000000000000000000000          BALLOTS CAST - BLANK                                    BALLOTS CAST - BLANK                  PRECINCT 3A                                            00 
00030010011000000000000000000000000000000000000000000000000000000000000000000000000000000000000000000          BALLOTS CAST - BLANK                                    BALLOTS CAST - BLANK                  PRECINCT 3B                                            00 
00030010012000000000000000000000000000000000000000000000000000000000000000000000000000000000000000000          BALLOTS CAST - BLANK                                    BALLOTS CAST - BLANK                  PRECINCT 3C                                            00 
00030010013000000000000000000000000000000000000000000000000000000000000000000000000000000000000000000          BALLOTS CAST - BLANK                                    BALLOTS CAST - BLANK                  PRECINCT 3D                                            00 
00030010014000001000000000000000001000000000000000000000000000000000000000000000000000000000000000000          BALLOTS CAST - BLANK                                    BALLOTS CAST - BLANK                  PRECINCT 4                                             00 
00030010015000000000000000000000000000000000000000000000000000000000000000000000000000000000000000000          BALLOTS CAST - BLANK                                    BALLOTS CAST - BLANK                  PRECINCT 4A                                            00 
00030010016000000000000000000000000000000000000000000000000000000000000000000000000000000000000000000          BALLOTS CAST - BLANK                                    BALLOTS CAST - BLANK                  PRECINCT 4B                                            00 
00030010017000000000000000000000000000000000000000000000000000000000000000000000000000000000000000000          BALLOTS CAST - BLANK                                    BALLOTS CAST - BLANK                  PRECINCT 4C                                            00 
00040010001000161000033000094000034000000000000000000000000000000000000000000000000000000000000000000REP       Judge, Co. Court of Law No. 2                           John Browning                         PRECINCT 1                                             01 
00040010002000058000024000010000024000000000000000000000000000000000000000000000000000000000000000000REP       Judge, Co. Court of Law No. 2                           John Browning                         PRECINCT 1A                                            01 
00040010003000166000022000093000051000000000000000000000000000000000000000000000000000000000000000000REP       Judge, Co. Court of Law No. 2                           John Browning                         PRECINCT 1B                                            01 
00040010004000104000017000051000036000000000000000000000000000000000000000000000000000000000000000000REP       Judge, Co. Court of Law No. 2                           John Browning                         PRECINCT 1C                                            01 
00040010005000165000033000077000055000000000000000000000000000000000000000000000000000000000000000000REP       Judge, Co. Court of Law No. 2                           John Browning                         PRECINCT 2                                             01 
00040010006000096000016000045000035000000000000000000000000000000000000000000000000000000000000000000REP       Judge, Co. Court of Law No. 2                           John Browning                         PRECINCT 2A                                            01 
00040010007000035000007000009000019000000000000000000000000000000000000000000000000000000000000000000REP       Judge, Co. Court of Law No. 2                           John Browning                         PRECINCT 2B                                            01 
00040010008000141000017000077000047000000000000000000000000000000000000000000000000000000000000000000REP       Judge, Co. Court of Law No. 2                           John Browning                         PRECINCT 2C                                            01 
00040010009000011000004000003000004000000000000000000000000000000000000000000000000000000000000000000REP       Judge, Co. Court of Law No. 2                           John Browning                         PRECINCT 3                                             01 
00040010010000023000001000013000009000000000000000000000000000000000000000000000000000000000000000000REP       Judge, Co. Court of Law No. 2                           John Browning                         PRECINCT 3A                                            01 
00040010011000026000003000011000012000000000000000000000000000000000000000000000000000000000000000000REP       Judge, Co. Court of Law No. 2                           John Browning                         PRECINCT 3B                                            01 
00040010012000055000009000027000019000000000000000000000000000000000000000000000000000000000000000000REP       Judge, Co. Court of Law No. 2                           John Browning                         PRECINCT 3C                                            01 
00040010013000141000018000063000060000000000000000000000000000000000000000000000000000000000000000000REP       Judge, Co. Court of Law No. 2                           John Browning                         PRECINCT 3D                                            01 
00040010014000063000015000026000022000000000000000000000000000000000000000000000000000000000000000000REP       Judge, Co. Court of Law No. 2                           John Browning                         PRECINCT 4                                             01 
00040010015000152000011000083000058000000000000000000000000000000000000000000000000000000000000000000REP       Judge, Co. Court of Law No. 2                           John Browning                         PRECINCT 4A                                            01 
00040010016000032000007000012000013000000000000000000000000000000000000000000000000000000000000000000REP       Judge, Co. Court of Law No. 2                           John Browning                         PRECINCT 4B                                            01 
00040010017000075000005000029000041000000000000000000000000000000000000000000000000000000000000000000REP       Judge, Co. Court of Law No. 2                           John Browning                         PRECINCT 4C                                            01 
00040020001000298000050000183000065000000000000000000000000000000000000000000000000000000000000000000REP       Judge, Co. Court of Law No. 2                           Stephani Woodward                     PRECINCT 1                                             01 
00040020002000109000026000047000036000000000000000000000000000000000000000000000000000000000000000000REP       Judge, Co. Court of Law No. 2                           Stephani Woodward                     PRECINCT 1A                                            01 
00040020003000337000049000197000091000000000000000000000000000000000000000000000000000000000000000000REP       Judge, Co. Court of Law No. 2                           Stephani Woodward                     PRECINCT 1B                                            01 
00040020004000201000036000122000043000000000000000000000000000000000000000000000000000000000000000000REP       Judge, Co. Court of Law No. 2                           Stephani Woodward                     PRECINCT 1C                                            01 
00040020005000293000057000149000087000000000000000000000000000000000000000000000000000000000000000000REP       Judge, Co. Court of Law No. 2                           Stephani Woodward                     PRECINCT 2                                             01 
00040020006000239000049000118000072000000000000000000000000000000000000000000000000000000000000000000REP       Judge, Co. Court of Law No. 2                           Stephani Woodward                     PRECINCT 2A                                            01 
00040020007000055000012000028000015000000000000000000000000000000000000000000000000000000000000000000REP       Judge, Co. Court of Law No. 2                           Stephani Woodward                     PRECINCT 2B                                            01 
00040020008000606000030000385000191000000000000000000000000000000000000000000000000000000000000000000REP       Judge, Co. Court of Law No. 2                           Stephani Woodward                     PRECINCT 2C                                            01 
00040020009000028000015000011000002000000000000000000000000000000000000000000000000000000000000000000REP       Judge, Co. Court of Law No. 2                           Stephani Woodward                     PRECINCT 3                                             01 
00040020010000031000005000019000007000000000000000000000000000000000000000000000000000000000000000000REP       Judge, Co. Court of Law No. 2                           Stephani Woodward                     PRECINCT 3A                                            01 
00040020011000093000006000049000038000000000000000000000000000000000000000000000000000000000000000000REP       Judge, Co. Court of Law No. 2                           Stephani Woodward                     PRECINCT 3B                                            01 
00040020012000297000051000156000090000000000000000000000000000000000000000000000000000000000000000000REP       Judge, Co. Court of Law No. 2                           Stephani Woodward                     PRECINCT 3C                                            01 
00040020013000358000047000170000141000000000000000000000000000000000000000000000000000000000000000000REP       Judge, Co. Court of Law No. 2                           Stephani Woodward                     PRECINCT 3D                                            01 
00040020014000163000035000093000035000000000000000000000000000000000000000000000000000000000000000000REP       Judge, Co. Court of Law No. 2                           Stephani Woodward                     PRECINCT 4                                             01 
00040020015000359000043000206000110000000000000000000000000000000000000000000000000000000000000000000REP       Judge, Co. Court of Law No. 2                           Stephani Woodward                     PRECINCT 4A                                            01 
00040020016000086000005000048000033000000000000000000000000000000000000000000000000000000000000000000REP       Judge, Co. Court of Law No. 2                           Stephani Woodward                     PRECINCT 4B                                            01 
00040020017000114000008000047000059000000000000000000000000000000000000000000000000000000000000000000REP       Judge, Co. Court of Law No. 2                           Stephani Woodward                     PRECINCT 4C                                            01 
00040030001000000000000000000000000000000000000000000000000000000000000000000000000000000000000000000          Judge, Co. Court of Law No. 2                           OVER VOTES                            PRECINCT 1                                             01 
00040030002000000000000000000000000000000000000000000000000000000000000000000000000000000000000000000          Judge, Co. Court of Law No. 2                           OVER VOTES                            PRECINCT 1A                                            01 
00040030003000000000000000000000000000000000000000000000000000000000000000000000000000000000000000000          Judge, Co. Court of Law No. 2                           OVER VOTES                            PRECINCT 1B                                            01 
00040030004000000000000000000000000000000000000000000000000000000000000000000000000000000000000000000          Judge, Co. Court of Law No. 2                           OVER VOTES                            PRECINCT 1C                                            01 
00040030005000000000000000000000000000000000000000000000000000000000000000000000000000000000000000000          Judge, Co. Court of Law No. 2                           OVER VOTES                            PRECINCT 2                                             01 
00040030006000000000000000000000000000000000000000000000000000000000000000000000000000000000000000000          Judge, Co. Court of Law No. 2                           OVER VOTES                            PRECINCT 2A                                            01 
00040030007000000000000000000000000000000000000000000000000000000000000000000000000000000000000000000          Judge, Co. Court of Law No. 2                           OVER VOTES                            PRECINCT 2B                                            01 
00040030008000000000000000000000000000000000000000000000000000000000000000000000000000000000000000000          Judge, Co. Court of Law No. 2                           OVER VOTES                            PRECINCT 2C                                            01 
00040030009000000000000000000000000000000000000000000000000000000000000000000000000000000000000000000          Judge, Co. Court of Law No. 2                           OVER VOTES                            PRECINCT 3                                             01 
00040030010000000000000000000000000000000000000000000000000000000000000000000000000000000000000000000          Judge, Co. Court of Law No. 2                           OVER VOTES                            PRECINCT 3A                                            01 
00040030011000000000000000000000000000000000000000000000000000000000000000000000000000000000000000000          Judge, Co. Court of Law No. 2                           OVER VOTES                            PRECINCT 3B                                            01 
00040030012000000000000000000000000000000000000000000000000000000000000000000000000000000000000000000          Judge, Co. Court of Law No. 2                           OVER VOTES                            PRECINCT 3C                                            01 
00040030013000000000000000000000000000000000000000000000000000000000000000000000000000000000000000000          Judge, Co. Court of Law No. 2                           OVER VOTES                            PRECINCT 3D                                            01 
00040030014000000000000000000000000000000000000000000000000000000000000000000000000000000000000000000          Judge, Co. Court of Law No. 2                           OVER VOTES                            PRECINCT 4                                             01 
00040030015000000000000000000000000000000000000000000000000000000000000000000000000000000000000000000          Judge, Co. Court of Law No. 2                           OVER VOTES                            PRECINCT 4A                                            01 
00040030016000000000000000000000000000000000000000000000000000000000000000000000000000000000000000000          Judge, Co. Court of Law No. 2                           OVER VOTES                            PRECINCT 4B                                            01 
00040030017000000000000000000000000000000000000000000000000000000000000000000000000000000000000000000          Judge, Co. Court of Law No. 2                           OVER VOTES                            PRECINCT 4C                                            01 
00040040001000000000000000000000000000000000000000000000000000000000000000000000000000000000000000000          Judge, Co. Court of Law No. 2                           UNDER VOTES                           PRECINCT 1                                             01 
00040040002000001000000000001000000000000000000000000000000000000000000000000000000000000000000000000          Judge, Co. Court of Law No. 2                           UNDER VOTES                           PRECINCT 1A                                            01 
00040040003000000000000000000000000000000000000000000000000000000000000000000000000000000000000000000          Judge, Co. Court of Law No. 2                           UNDER VOTES                           PRECINCT 1B                                            01 
00040040004000000000000000000000000000000000000000000000000000000000000000000000000000000000000000000          Judge, Co. Court of Law No. 2                           UNDER VOTES                           PRECINCT 1C                                            01 
00040040005000001000000000001000000000000000000000000000000000000000000000000000000000000000000000000          Judge, Co. Court of Law No. 2                           UNDER VOTES                           PRECINCT 2                                             01 
00040040006000000000000000000000000000000000000000000000000000000000000000000000000000000000000000000          Judge, Co. Court of Law No. 2                           UNDER VOTES                           PRECINCT 2A                                            01 
00040040007000000000000000000000000000000000000000000000000000000000000000000000000000000000000000000          Judge, Co. Court of Law No. 2                           UNDER VOTES                           PRECINCT 2B                                            01 
00040040008000001000000000001000000000000000000000000000000000000000000000000000000000000000000000000          Judge, Co. Court of Law No. 2                           UNDER VOTES                           PRECINCT 2C                                            01 
00040040009000000000000000000000000000000000000000000000000000000000000000000000000000000000000000000          Judge, Co. Court of Law No. 2                           UNDER VOTES                           PRECINCT 3                                             01 
00040040010000000000000000000000000000000000000000000000000000000000000000000000000000000000000000000          Judge, Co. Court of Law No. 2                           UNDER VOTES                           PRECINCT 3A                                            01 
00040040011000000000000000000000000000000000000000000000000000000000000000000000000000000000000000000          Judge, Co. Court of Law No. 2                           UNDER VOTES                           PRECINCT 3B                                            01 
00040040012000000000000000000000000000000000000000000000000000000000000000000000000000000000000000000          Judge, Co. Court of Law No. 2                           UNDER VOTES                           PRECINCT 3C                                            01 
00040040013000000000000000000000000000000000000000000000000000000000000000000000000000000000000000000          Judge, Co. Court of Law No. 2                           UNDER VOTES                           PRECINCT 3D                                            01 
00040040014000001000000000000000001000000000000000000000000000000000000000000000000000000000000000000          Judge, Co. Court of Law No. 2                           UNDER VOTES                           PRECINCT 4                                             01 
00040040015000000000000000000000000000000000000000000000000000000000000000000000000000000000000000000          Judge, Co. Court of Law No. 2                           UNDER VOTES                           PRECINCT 4A                                            01 
00040040016000000000000000000000000000000000000000000000000000000000000000000000000000000000000000000          Judge, Co. Court of Law No. 2                           UNDER VOTES                           PRECINCT 4B                                            01 
00040040017000000000000000000000000000000000000000000000000000000000000000000000000000000000000000000          Judge, Co. Court of Law No. 2                           UNDER VOTES                           PRECINCT 4C                                            01 
