00010010001000946000000000000000000000000000000000000000000000000000000000000000000000000000000000000          REGISTERED VOTERS - TOTAL                               REGISTERED VOTERS - TOTAL             PCT 111                                                00 
00010010002002098000000000000000000000000000000000000000000000000000000000000000000000000000000000000          REGISTERED VOTERS - TOTAL                               REGISTERED VOTERS - TOTAL             PCT 112                                                00 
00010010003003018000000000000000000000000000000000000000000000000000000000000000000000000000000000000          REGISTERED VOTERS - TOTAL                               REGISTERED VOTERS - TOTAL             PCT 113                                                00 
00010010004001611000000000000000000000000000000000000000000000000000000000000000000000000000000000000          REGISTERED VOTERS - TOTAL                               REGISTERED VOTERS - TOTAL             PCT 114                                                00 
00010010005001022000000000000000000000000000000000000000000000000000000000000000000000000000000000000          REGISTERED VOTERS - TOTAL                               REGISTERED VOTERS - TOTAL             PCT 201                                                00 
00010010006000894000000000000000000000000000000000000000000000000000000000000000000000000000000000000          REGISTERED VOTERS - TOTAL                               REGISTERED VOTERS - TOTAL             PCT 212                                                00 
00010010007001943000000000000000000000000000000000000000000000000000000000000000000000000000000000000          REGISTERED VOTERS - TOTAL                               REGISTERED VOTERS - TOTAL             PCT 213                                                00 
00010010008002431000000000000000000000000000000000000000000000000000000000000000000000000000000000000          REGISTERED VOTERS - TOTAL                               REGISTERED VOTERS - TOTAL             PCT 214                                                00 
00010010009002272000000000000000000000000000000000000000000000000000000000000000000000000000000000000          REGISTERED VOTERS - TOTAL                               REGISTERED VOTERS - TOTAL             PCT 215                                                00 
00010010010001196000000000000000000000000000000000000000000000000000000000000000000000000000000000000          REGISTERED VOTERS - TOTAL                               REGISTERED VOTERS - TOTAL             PCT 302                                                00 
00010010011001823000000000000000000000000000000000000000000000000000000000000000000000000000000000000          REGISTERED VOTERS - TOTAL                               REGISTERED VOTERS - TOTAL             PCT 303                                                00 
00010010012001072000000000000000000000000000000000000000000000000000000000000000000000000000000000000          REGISTERED VOTERS - TOTAL                               REGISTERED VOTERS - TOTAL             PCT 314                                                00 
00010010013000816000000000000000000000000000000000000000000000000000000000000000000000000000000000000          REGISTERED VOTERS - TOTAL                               REGISTERED VOTERS - TOTAL             PCT 315                                                00 
00010010014000461000000000000000000000000000000000000000000000000000000000000000000000000000000000000          REGISTERED VOTERS - TOTAL                               REGISTERED VOTERS - TOTAL             PCT 316                                                00 
00010010015000739000000000000000000000000000000000000000000000000000000000000000000000000000000000000          REGISTERED VOTERS - TOTAL                               REGISTERED VOTERS - TOTAL             PCT 317                                                00 
00010010016001107000000000000000000000000000000000000000000000000000000000000000000000000000000000000          REGISTERED VOTERS - TOTAL                               REGISTERED VOTERS - TOTAL             PCT 318                                                00 
00010010017000383000000000000000000000000000000000000000000000000000000000000000000000000000000000000          REGISTERED VOTERS - TOTAL                               REGISTERED VOTERS - TOTAL             PCT 319                                                00 
00010010018001659000000000000000000000000000000000000000000000000000000000000000000000000000000000000          REGISTERED VOTERS - TOTAL                               REGISTERED VOTERS - TOTAL             PCT 404                                                00 
00010010019001284000000000000000000000000000000000000000000000000000000000000000000000000000000000000          REGISTERED VOTERS - TOTAL                               REGISTERED VOTERS - TOTAL             PCT 405                                                00 
00010010020000996000000000000000000000000000000000000000000000000000000000000000000000000000000000000          REGISTERED VOTERS - TOTAL                               REGISTERED VOTERS - TOTAL             PCT 416                                                00 
00010010021001594000000000000000000000000000000000000000000000000000000000000000000000000000000000000          REGISTERED VOTERS - TOTAL                               REGISTERED VOTERS - TOTAL             PCT 417                                                00 
00010010022002201000000000000000000000000000000000000000000000000000000000000000000000000000000000000          REGISTERED VOTERS - TOTAL                               REGISTERED VOTERS - TOTAL             PCT 418                                                00 
00020010001000000000000000000000000000000000000000000000000000000000000000000000000000000000000000000REP       REGISTERED VOTERS - Republican Party                    REGISTERED VOTERS - Republican Party  PCT 111                                                00 
00020010002000000000000000000000000000000000000000000000000000000000000000000000000000000000000000000REP       REGISTERED VOTERS - Republican Party                    REGISTERED VOTERS - Republican Party  PCT 112                                                00 
00020010003000000000000000000000000000000000000000000000000000000000000000000000000000000000000000000REP       REGISTERED VOTERS - Republican Party                    REGISTERED VOTERS - Republican Party  PCT 113                                                00 
00020010004000000000000000000000000000000000000000000000000000000000000000000000000000000000000000000REP       REGISTERED VOTERS - Republican Party                    REGISTERED VOTERS - Republican Party  PCT 114                                                00 
00020010005000000000000000000000000000000000000000000000000000000000000000000000000000000000000000000REP       REGISTERED VOTERS - Republican Party                    REGISTERED VOTERS - Republican Party  PCT 201                                                00 
00020010006000000000000000000000000000000000000000000000000000000000000000000000000000000000000000000REP       REGISTERED VOTERS - Republican Party                    REGISTERED VOTERS - Republican Party  PCT 212                                                00 
00020010007000000000000000000000000000000000000000000000000000000000000000000000000000000000000000000REP       REGISTERED VOTERS - Republican Party                    REGISTERED VOTERS - Republican Party  PCT 213                                                00 
00020010008000000000000000000000000000000000000000000000000000000000000000000000000000000000000000000REP       REGISTERED VOTERS - Republican Party                    REGISTERED VOTERS - Republican Party  PCT 214                                                00 
00020010009000000000000000000000000000000000000000000000000000000000000000000000000000000000000000000REP       REGISTERED VOTERS - Republican Party                    REGISTERED VOTERS - Republican Party  PCT 215                                                00 
00020010010000000000000000000000000000000000000000000000000000000000000000000000000000000000000000000REP       REGISTERED VOTERS - Republican Party                    REGISTERED VOTERS - Republican Party  PCT 302                                                00 
00020010011000000000000000000000000000000000000000000000000000000000000000000000000000000000000000000REP       REGISTERED VOTERS - Republican Party                    REGISTERED VOTERS - Republican Party  PCT 303                                                00 
00020010012000000000000000000000000000000000000000000000000000000000000000000000000000000000000000000REP       REGISTERED VOTERS - Republican Party                    REGISTERED VOTERS - Republican Party  PCT 314                                                00 
00020010013000000000000000000000000000000000000000000000000000000000000000000000000000000000000000000REP       REGISTERED VOTERS - Republican Party                    REGISTERED VOTERS - Republican Party  PCT 315                                                00 
00020010014000000000000000000000000000000000000000000000000000000000000000000000000000000000000000000REP       REGISTERED VOTERS - Republican Party                    REGISTERED VOTERS - Republican Party  PCT 316                                                00 
00020010015000000000000000000000000000000000000000000000000000000000000000000000000000000000000000000REP       REGISTERED VOTERS - Republican Party                    REGISTERED VOTERS - Republican Party  PCT 317                                                00 
00020010016000000000000000000000000000000000000000000000000000000000000000000000000000000000000000000REP       REGISTERED VOTERS - Republican Party                    REGISTERED VOTERS - Republican Party  PCT 318                                                00 
00020010017000000000000000000000000000000000000000000000000000000000000000000000000000000000000000000REP       REGISTERED VOTERS - Republican Party                    REGISTERED VOTERS - Republican Party  PCT 319                                                00 
00020010018000000000000000000000000000000000000000000000000000000000000000000000000000000000000000000REP       REGISTERED VOTERS - Republican Party                    REGISTERED VOTERS - Republican Party  PCT 404                                                00 
00020010019000000000000000000000000000000000000000000000000000000000000000000000000000000000000000000REP       REGISTERED VOTERS - Republican Party                    REGISTERED VOTERS - Republican Party  PCT 405                                                00 
00020010020000000000000000000000000000000000000000000000000000000000000000000000000000000000000000000REP       REGISTERED VOTERS - Republican Party                    REGISTERED VOTERS - Republican Party  PCT 416                                                00 
00020010021000000000000000000000000000000000000000000000000000000000000000000000000000000000000000000REP       REGISTERED VOTERS - Republican Party                    REGISTERED VOTERS - Republican Party  PCT 417                                                00 
00020010022000000000000000000000000000000000000000000000000000000000000000000000000000000000000000000REP       REGISTERED VOTERS - Republican Party                    REGISTERED VOTERS - Republican Party  PCT 418                                                00 
00030010001000000000000000000000000000000000000000000000000000000000000000000000000000000000000000000DEM       REGISTERED VOTERS - Democratic Party                    REGISTERED VOTERS - Democratic Party  PCT 111                                                00 
00030010002000000000000000000000000000000000000000000000000000000000000000000000000000000000000000000DEM       REGISTERED VOTERS - Democratic Party                    REGISTERED VOTERS - Democratic Party  PCT 112                                                00 
00030010003000000000000000000000000000000000000000000000000000000000000000000000000000000000000000000DEM       REGISTERED VOTERS - Democratic Party                    REGISTERED VOTERS - Democratic Party  PCT 113                                                00 
00030010004000000000000000000000000000000000000000000000000000000000000000000000000000000000000000000DEM       REGISTERED VOTERS - Democratic Party                    REGISTERED VOTERS - Democratic Party  PCT 114                                                00 
00030010005000000000000000000000000000000000000000000000000000000000000000000000000000000000000000000DEM       REGISTERED VOTERS - Democratic Party                    REGISTERED VOTERS - Democratic Party  PCT 201                                                00 
00030010006000000000000000000000000000000000000000000000000000000000000000000000000000000000000000000DEM       REGISTERED VOTERS - Democratic Party                    REGISTERED VOTERS - Democratic Party  PCT 212                                                00 
00030010007000000000000000000000000000000000000000000000000000000000000000000000000000000000000000000DEM       REGISTERED VOTERS - Democratic Party                    REGISTERED VOTERS - Democratic Party  PCT 213                                                00 
00030010008000000000000000000000000000000000000000000000000000000000000000000000000000000000000000000DEM       REGISTERED VOTERS - Democratic Party                    REGISTERED VOTERS - Democratic Party  PCT 214                                                00 
00030010009000000000000000000000000000000000000000000000000000000000000000000000000000000000000000000DEM       REGISTERED VOTERS - Democratic Party                    REGISTERED VOTERS - Democratic Party  PCT 215                                                00 
00030010010000000000000000000000000000000000000000000000000000000000000000000000000000000000000000000DEM       REGISTERED VOTERS - Democratic Party                    REGISTERED VOTERS - Democratic Party  PCT 302                                                00 
00030010011000000000000000000000000000000000000000000000000000000000000000000000000000000000000000000DEM       REGISTERED VOTERS - Democratic Party                    REGISTERED VOTERS - Democratic Party  PCT 303                                                00 
00030010012000000000000000000000000000000000000000000000000000000000000000000000000000000000000000000DEM       REGISTERED VOTERS - Democratic Party                    REGISTERED VOTERS - Democratic Party  PCT 314                                                00 
00030010013000000000000000000000000000000000000000000000000000000000000000000000000000000000000000000DEM       REGISTERED VOTERS - Democratic Party                    REGISTERED VOTERS - Democratic Party  PCT 315                                                00 
00030010014000000000000000000000000000000000000000000000000000000000000000000000000000000000000000000DEM       REGISTERED VOTERS - Democratic Party                    REGISTERED VOTERS - Democratic Party  PCT 316                                                00 
00030010015000000000000000000000000000000000000000000000000000000000000000000000000000000000000000000DEM       REGISTERED VOTERS - Democratic Party                    REGISTERED VOTERS - Democratic Party  PCT 317                                                00 
00030010016000000000000000000000000000000000000000000000000000000000000000000000000000000000000000000DEM       REGISTERED VOTERS - Democratic Party                    REGISTERED VOTERS - Democratic Party  PCT 318                                                00 
00030010017000000000000000000000000000000000000000000000000000000000000000000000000000000000000000000DEM       REGISTERED VOTERS - Democratic Party                    REGISTERED VOTERS - Democratic Party  PCT 319                                                00 
00030010018000000000000000000000000000000000000000000000000000000000000000000000000000000000000000000DEM       REGISTERED VOTERS - Democratic Party                    REGISTERED VOTERS - Democratic Party  PCT 404                                                00 
00030010019000000000000000000000000000000000000000000000000000000000000000000000000000000000000000000DEM       REGISTERED VOTERS - Democratic Party                    REGISTERED VOTERS - Democratic Party  PCT 405                                                00 
00030010020000000000000000000000000000000000000000000000000000000000000000000000000000000000000000000DEM       REGISTERED VOTERS - Democratic Party                    REGISTERED VOTERS - Democratic Party  PCT 416                                                00 
00030010021000000000000000000000000000000000000000000000000000000000000000000000000000000000000000000DEM       REGISTERED VOTERS - Democratic Party                    REGISTERED VOTERS - Democratic Party  PCT 417                                                00 
00030010022000000000000000000000000000000000000000000000000000000000000000000000000000000000000000000DEM       REGISTERED VOTERS - Democratic Party                    REGISTERED VOTERS - Democratic Party  PCT 418                                                00 
00040010001000946000000000000000000000000000000000000000000000000000000000000000000000000000000000000NON       REGISTERED VOTERS - NONPARTISAN                         REGISTERED VOTERS - NONPARTISAN       PCT 111                                                00 
00040010002002098000000000000000000000000000000000000000000000000000000000000000000000000000000000000NON       REGISTERED VOTERS - NONPARTISAN                         REGISTERED VOTERS - NONPARTISAN       PCT 112                                                00 
00040010003003018000000000000000000000000000000000000000000000000000000000000000000000000000000000000NON       REGISTERED VOTERS - NONPARTISAN                         REGISTERED VOTERS - NONPARTISAN       PCT 113                                                00 
00040010004001611000000000000000000000000000000000000000000000000000000000000000000000000000000000000NON       REGISTERED VOTERS - NONPARTISAN                         REGISTERED VOTERS - NONPARTISAN       PCT 114                                                00 
00040010005001022000000000000000000000000000000000000000000000000000000000000000000000000000000000000NON       REGISTERED VOTERS - NONPARTISAN                         REGISTERED VOTERS - NONPARTISAN       PCT 201                                                00 
00040010006000894000000000000000000000000000000000000000000000000000000000000000000000000000000000000NON       REGISTERED VOTERS - NONPARTISAN                         REGISTERED VOTERS - NONPARTISAN       PCT 212                                                00 
00040010007001943000000000000000000000000000000000000000000000000000000000000000000000000000000000000NON       REGISTERED VOTERS - NONPARTISAN                         REGISTERED VOTERS - NONPARTISAN       PCT 213                                                00 
00040010008002431000000000000000000000000000000000000000000000000000000000000000000000000000000000000NON       REGISTERED VOTERS - NONPARTISAN                         REGISTERED VOTERS - NONPARTISAN       PCT 214                                                00 
00040010009002272000000000000000000000000000000000000000000000000000000000000000000000000000000000000NON       REGISTERED VOTERS - NONPARTISAN                         REGISTERED VOTERS - NONPARTISAN       PCT 215                                                00 
00040010010001196000000000000000000000000000000000000000000000000000000000000000000000000000000000000NON       REGISTERED VOTERS - NONPARTISAN                         REGISTERED VOTERS - NONPARTISAN       PCT 302                                                00 
00040010011001823000000000000000000000000000000000000000000000000000000000000000000000000000000000000NON       REGISTERED VOTERS - NONPARTISAN                         REGISTERED VOTERS - NONPARTISAN       PCT 303                                                00 
00040010012001072000000000000000000000000000000000000000000000000000000000000000000000000000000000000NON       REGISTERED VOTERS - NONPARTISAN                         REGISTERED VOTERS - NONPARTISAN       PCT 314                                                00 
00040010013000816000000000000000000000000000000000000000000000000000000000000000000000000000000000000NON       REGISTERED VOTERS - NONPARTISAN                         REGISTERED VOTERS - NONPARTISAN       PCT 315                                                00 
00040010014000461000000000000000000000000000000000000000000000000000000000000000000000000000000000000NON       REGISTERED VOTERS - NONPARTISAN                         REGISTERED VOTERS - NONPARTISAN       PCT 316                                                00 
00040010015000739000000000000000000000000000000000000000000000000000000000000000000000000000000000000NON       REGISTERED VOTERS - NONPARTISAN                         REGISTERED VOTERS - NONPARTISAN       PCT 317                                                00 
00040010016001107000000000000000000000000000000000000000000000000000000000000000000000000000000000000NON       REGISTERED VOTERS - NONPARTISAN                         REGISTERED VOTERS - NONPARTISAN       PCT 318                                                00 
00040010017000383000000000000000000000000000000000000000000000000000000000000000000000000000000000000NON       REGISTERED VOTERS - NONPARTISAN                         REGISTERED VOTERS - NONPARTISAN       PCT 319                                                00 
00040010018001659000000000000000000000000000000000000000000000000000000000000000000000000000000000000NON       REGISTERED VOTERS - NONPARTISAN                         REGISTERED VOTERS - NONPARTISAN       PCT 404                                                00 
00040010019001284000000000000000000000000000000000000000000000000000000000000000000000000000000000000NON       REGISTERED VOTERS - NONPARTISAN                         REGISTERED VOTERS - NONPARTISAN       PCT 405                                                00 
00040010020000996000000000000000000000000000000000000000000000000000000000000000000000000000000000000NON       REGISTERED VOTERS - NONPARTISAN                         REGISTERED VOTERS - NONPARTISAN       PCT 416                                                00 
00040010021001594000000000000000000000000000000000000000000000000000000000000000000000000000000000000NON       REGISTERED VOTERS - NONPARTISAN                         REGISTERED VOTERS - NONPARTISAN       PCT 417                                                00 
00040010022002201000000000000000000000000000000000000000000000000000000000000000000000000000000000000NON       REGISTERED VOTERS - NONPARTISAN                         REGISTERED VOTERS - NONPARTISAN       PCT 418                                                00 
00050010001000197000015000126000056000000000000000000000000000000000000000000000000000000000000000000          BALLOTS CAST - TOTAL                                    BALLOTS CAST - TOTAL                  PCT 111                                                00 
00050010002000266000049000056000161000000000000000000000000000000000000000000000000000000000000000000          BALLOTS CAST - TOTAL                                    BALLOTS CAST - TOTAL                  PCT 112                                                00 
00050010003000600000096000150000354000000000000000000000000000000000000000000000000000000000000000000          BALLOTS CAST - TOTAL                                    BALLOTS CAST - TOTAL                  PCT 113                                                00 
00050010004000345000038000132000175000000000000000000000000000000000000000000000000000000000000000000          BALLOTS CAST - TOTAL                                    BALLOTS CAST - TOTAL                  PCT 114                                                00 
00050010005000221000033000143000045000000000000000000000000000000000000000000000000000000000000000000          BALLOTS CAST - TOTAL                                    BALLOTS CAST - TOTAL                  PCT 201                                                00 
00050010006000236000030000128000078000000000000000000000000000000000000000000000000000000000000000000          BALLOTS CAST - TOTAL                                    BALLOTS CAST - TOTAL                  PCT 212                                                00 
00050010007000212000053000046000113000000000000000000000000000000000000000000000000000000000000000000          BALLOTS CAST - TOTAL                                    BALLOTS CAST - TOTAL                  PCT 213                                                00 
00050010008000384000071000099000214000000000000000000000000000000000000000000000000000000000000000000          BALLOTS CAST - TOTAL                                    BALLOTS CAST - TOTAL                  PCT 214                                                00 
00050010009000376000059000123000194000000000000000000000000000000000000000000000000000000000000000000          BALLOTS CAST - TOTAL                                    BALLOTS CAST - TOTAL                  PCT 215                                                00 
00050010010000225000031000126000068000000000000000000000000000000000000000000000000000000000000000000          BALLOTS CAST - TOTAL                                    BALLOTS CAST - TOTAL                  PCT 302                                                00 
00050010011000262000044000142000076000000000000000000000000000000000000000000000000000000000000000000          BALLOTS CAST - TOTAL                                    BALLOTS CAST - TOTAL                  PCT 303                                                00 
00050010012000331000040000215000076000000000000000000000000000000000000000000000000000000000000000000          BALLOTS CAST - TOTAL                                    BALLOTS CAST - TOTAL                  PCT 314                                                00 
00050010013000189000011000113000065000000000000000000000000000000000000000000000000000000000000000000          BALLOTS CAST - TOTAL                                    BALLOTS CAST - TOTAL                  PCT 315                                                00 
00050010014000133000015000037000081000000000000000000000000000000000000000000000000000000000000000000          BALLOTS CAST - TOTAL                                    BALLOTS CAST - TOTAL                  PCT 316                                                00 
00050010015000087000032000011000044000000000000000000000000000000000000000000000000000000000000000000          BALLOTS CAST - TOTAL                                    BALLOTS CAST - TOTAL                  PCT 317                                                00 
00050010016000307000038000054000215000000000000000000000000000000000000000000000000000000000000000000          BALLOTS CAST - TOTAL                                    BALLOTS CAST - TOTAL                  PCT 318                                                00 
00050010017000074000014000018000042000000000000000000000000000000000000000000000000000000000000000000          BALLOTS CAST - TOTAL                                    BALLOTS CAST - TOTAL                  PCT 319                                                00 
00050010018000459000067000305000087000000000000000000000000000000000000000000000000000000000000000000          BALLOTS CAST - TOTAL                                    BALLOTS CAST - TOTAL                  PCT 404                                                00 
00050010019000330000045000210000075000000000000000000000000000000000000000000000000000000000000000000          BALLOTS CAST - TOTAL                                    BALLOTS CAST - TOTAL                  PCT 405                                                00 
00050010020000225000018000148000059000000000000000000000000000000000000000000000000000000000000000000          BALLOTS CAST - TOTAL                                    BALLOTS CAST - TOTAL                  PCT 416                                                00 
00050010021000202000031000085000086000000000000000000000000000000000000000000000000000000000000000000          BALLOTS CAST - TOTAL                                    BALLOTS CAST - TOTAL                  PCT 417                                                00 
00050010022000478000065000208000205000000000000000000000000000000000000000000000000000000000000000000          BALLOTS CAST - TOTAL                                    BALLOTS CAST - TOTAL                  PCT 418                                                00 
00060010001000186000013000121000052000000000000000000000000000000000000000000000000000000000000000000REP       BALLOTS CAST - Republican Party                         BALLOTS CAST - Republican Party       PCT 111                                                00 
00060010002000224000030000048000146000000000000000000000000000000000000000000000000000000000000000000REP       BALLOTS CAST - Republican Party                         BALLOTS CAST - Republican Party       PCT 112                                                00 
00060010003000525000068000137000320000000000000000000000000000000000000000000000000000000000000000000REP       BALLOTS CAST - Republican Party                         BALLOTS CAST - Republican Party       PCT 113                                                00 
00060010004000319000029000126000164000000000000000000000000000000000000000000000000000000000000000000REP       BALLOTS CAST - Republican Party                         BALLOTS CAST - Republican Party       PCT 114                                                00 
00060010005000204000028000133000043000000000000000000000000000000000000000000000000000000000000000000REP       BALLOTS CAST - Republican Party                         BALLOTS CAST - Republican Party       PCT 201                                                00 
00060010006000214000018000123000073000000000000000000000000000000000000000000000000000000000000000000REP       BALLOTS CAST - Republican Party                         BALLOTS CAST - Republican Party       PCT 212                                                00 
00060010007000167000036000041000090000000000000000000000000000000000000000000000000000000000000000000REP       BALLOTS CAST - Republican Party                         BALLOTS CAST - Republican Party       PCT 213                                                00 
00060010008000289000040000077000172000000000000000000000000000000000000000000000000000000000000000000REP       BALLOTS CAST - Republican Party                         BALLOTS CAST - Republican Party       PCT 214                                                00 
00060010009000293000034000108000151000000000000000000000000000000000000000000000000000000000000000000REP       BALLOTS CAST - Republican Party                         BALLOTS CAST - Republican Party       PCT 215                                                00 
00060010010000171000008000106000057000000000000000000000000000000000000000000000000000000000000000000REP       BALLOTS CAST - Republican Party                         BALLOTS CAST - Republican Party       PCT 302                                                00 
00060010011000185000018000110000057000000000000000000000000000000000000000000000000000000000000000000REP       BALLOTS CAST - Republican Party                         BALLOTS CAST - Republican Party       PCT 303                                                00 
00060010012000312000030000210000072000000000000000000000000000000000000000000000000000000000000000000REP       BALLOTS CAST - Republican Party                         BALLOTS CAST - Republican Party       PCT 314                                                00 
00060010013000182000007000112000063000000000000000000000000000000000000000000000000000000000000000000REP       BALLOTS CAST - Republican Party                         BALLOTS CAST - Republican Party       PCT 315                                                00 
00060010014000124000012000036000076000000000000000000000000000000000000000000000000000000000000000000REP       BALLOTS CAST - Republican Party                         BALLOTS CAST - Republican Party       PCT 316                                                00 
00060010015000056000011000010000035000000000000000000000000000000000000000000000000000000000000000000REP       BALLOTS CAST - Republican Party                         BALLOTS CAST - Republican Party       PCT 317                                                00 
00060010016000272000030000046000196000000000000000000000000000000000000000000000000000000000000000000REP       BALLOTS CAST - Republican Party                         BALLOTS CAST - Republican Party       PCT 318                                                00 
00060010017000050000004000012000034000000000000000000000000000000000000000000000000000000000000000000REP       BALLOTS CAST - Republican Party                         BALLOTS CAST - Republican Party       PCT 319                                                00 
00060010018000434000062000291000081000000000000000000000000000000000000000000000000000000000000000000REP       BALLOTS CAST - Republican Party                         BALLOTS CAST - Republican Party       PCT 404                                                00 
00060010019000302000033000196000073000000000000000000000000000000000000000000000000000000000000000000REP       BALLOTS CAST - Republican Party                         BALLOTS CAST - Republican Party       PCT 405                                                00 
00060010020000211000016000140000055000000000000000000000000000000000000000000000000000000000000000000REP       BALLOTS CAST - Republican Party                         BALLOTS CAST - Republican Party       PCT 416                                                00 
00060010021000178000024000078000076000000000000000000000000000000000000000000000000000000000000000000REP       BALLOTS CAST - Republican Party                         BALLOTS CAST - Republican Party       PCT 417                                                00 
00060010022000439000048000199000192000000000000000000000000000000000000000000000000000000000000000000REP       BALLOTS CAST - Republican Party                         BALLOTS CAST - Republican Party       PCT 418                                                00 
00070010001000011000002000005000004000000000000000000000000000000000000000000000000000000000000000000DEM       BALLOTS CAST - Democratic Party                         BALLOTS CAST - Democratic Party       PCT 111                                                00 
00070010002000042000019000008000015000000000000000000000000000000000000000000000000000000000000000000DEM       BALLOTS CAST - Democratic Party                         BALLOTS CAST - Democratic Party       PCT 112                                                00 
00070010003000075000028000013000034000000000000000000000000000000000000000000000000000000000000000000DEM       BALLOTS CAST - Democratic Party                         BALLOTS CAST - Democratic Party       PCT 113                                                00 
00070010004000026000009000006000011000000000000000000000000000000000000000000000000000000000000000000DEM       BALLOTS CAST - Democratic Party                         BALLOTS CAST - Democratic Party       PCT 114                                                00 
00070010005000017000005000010000002000000000000000000000000000000000000000000000000000000000000000000DEM       BALLOTS CAST - Democratic Party                         BALLOTS CAST - Democratic Party       PCT 201                                                00 
00070010006000022000012000005000005000000000000000000000000000000000000000000000000000000000000000000DEM       BALLOTS CAST - Democratic Party                         BALLOTS CAST - Democratic Party       PCT 212                                                00 
00070010007000045000017000005000023000000000000000000000000000000000000000000000000000000000000000000DEM       BALLOTS CAST - Democratic Party                         BALLOTS CAST - Democratic Party       PCT 213                                                00 
00070010008000095000031000022000042000000000000000000000000000000000000000000000000000000000000000000DEM       BALLOTS CAST - Democratic Party                         BALLOTS CAST - Democratic Party       PCT 214                                                00 
00070010009000083000025000015000043000000000000000000000000000000000000000000000000000000000000000000DEM       BALLOTS CAST - Democratic Party                         BALLOTS CAST - Democratic Party       PCT 215                                                00 
00070010010000054000023000020000011000000000000000000000000000000000000000000000000000000000000000000DEM       BALLOTS CAST - Democratic Party                         BALLOTS CAST - Democratic Party       PCT 302                                                00 
00070010011000077000026000032000019000000000000000000000000000000000000000000000000000000000000000000DEM       BALLOTS CAST - Democratic Party                         BALLOTS CAST - Democratic Party       PCT 303                                                00 
00070010012000019000010000005000004000000000000000000000000000000000000000000000000000000000000000000DEM       BALLOTS CAST - Democratic Party                         BALLOTS CAST - Democratic Party       PCT 314                                                00 
00070010013000007000004000001000002000000000000000000000000000000000000000000000000000000000000000000DEM       BALLOTS CAST - Democratic Party                         BALLOTS CAST - Democratic Party       PCT 315                                                00 
00070010014000009000003000001000005000000000000000000000000000000000000000000000000000000000000000000DEM       BALLOTS CAST - Democratic Party                         BALLOTS CAST - Democratic Party       PCT 316                                                00 
00070010015000031000021000001000009000000000000000000000000000000000000000000000000000000000000000000DEM       BALLOTS CAST - Democratic Party                         BALLOTS CAST - Democratic Party       PCT 317                                                00 
00070010016000035000008000008000019000000000000000000000000000000000000000000000000000000000000000000DEM       BALLOTS CAST - Democratic Party                         BALLOTS CAST - Democratic Party       PCT 318                                                00 
00070010017000024000010000006000008000000000000000000000000000000000000000000000000000000000000000000DEM       BALLOTS CAST - Democratic Party                         BALLOTS CAST - Democratic Party       PCT 319                                                00 
00070010018000025000005000014000006000000000000000000000000000000000000000000000000000000000000000000DEM       BALLOTS CAST - Democratic Party                         BALLOTS CAST - Democratic Party       PCT 404                                                00 
00070010019000028000012000014000002000000000000000000000000000000000000000000000000000000000000000000DEM       BALLOTS CAST - Democratic Party                         BALLOTS CAST - Democratic Party       PCT 405                                                00 
00070010020000014000002000008000004000000000000000000000000000000000000000000000000000000000000000000DEM       BALLOTS CAST - Democratic Party                         BALLOTS CAST - Democratic Party       PCT 416                                                00 
00070010021000024000007000007000010000000000000000000000000000000000000000000000000000000000000000000DEM       BALLOTS CAST - Democratic Party                         BALLOTS CAST - Democratic Party       PCT 417                                                00 
00070010022000039000017000009000013000000000000000000000000000000000000000000000000000000000000000000DEM       BALLOTS CAST - Democratic Party                         BALLOTS CAST - Democratic Party       PCT 418                                                00 
00080010001000000000000000000000000000000000000000000000000000000000000000000000000000000000000000000NON       BALLOTS CAST - NONPARTISAN                              BALLOTS CAST - NONPARTISAN            PCT 111                                                00 
00080010002000000000000000000000000000000000000000000000000000000000000000000000000000000000000000000NON       BALLOTS CAST - NONPARTISAN                              BALLOTS CAST - NONPARTISAN            PCT 112                                                00 
00080010003000000000000000000000000000000000000000000000000000000000000000000000000000000000000000000NON       BALLOTS CAST - NONPARTISAN                              BALLOTS CAST - NONPARTISAN            PCT 113                                                00 
00080010004000000000000000000000000000000000000000000000000000000000000000000000000000000000000000000NON       BALLOTS CAST - NONPARTISAN                              BALLOTS CAST - NONPARTISAN            PCT 114                                                00 
00080010005000000000000000000000000000000000000000000000000000000000000000000000000000000000000000000NON       BALLOTS CAST - NONPARTISAN                              BALLOTS CAST - NONPARTISAN            PCT 201                                                00 
00080010006000000000000000000000000000000000000000000000000000000000000000000000000000000000000000000NON       BALLOTS CAST - NONPARTISAN                              BALLOTS CAST - NONPARTISAN            PCT 212                                                00 
00080010007000000000000000000000000000000000000000000000000000000000000000000000000000000000000000000NON       BALLOTS CAST - NONPARTISAN                              BALLOTS CAST - NONPARTISAN            PCT 213                                                00 
00080010008000000000000000000000000000000000000000000000000000000000000000000000000000000000000000000NON       BALLOTS CAST - NONPARTISAN                              BALLOTS CAST - NONPARTISAN            PCT 214                                                00 
00080010009000000000000000000000000000000000000000000000000000000000000000000000000000000000000000000NON       BALLOTS CAST - NONPARTISAN                              BALLOTS CAST - NONPARTISAN            PCT 215                                                00 
00080010010000000000000000000000000000000000000000000000000000000000000000000000000000000000000000000NON       BALLOTS CAST - NONPARTISAN                              BALLOTS CAST - NONPARTISAN            PCT 302                                                00 
00080010011000000000000000000000000000000000000000000000000000000000000000000000000000000000000000000NON       BALLOTS CAST - NONPARTISAN                              BALLOTS CAST - NONPARTISAN            PCT 303                                                00 
00080010012000000000000000000000000000000000000000000000000000000000000000000000000000000000000000000NON       BALLOTS CAST - NONPARTISAN                              BALLOTS CAST - NONPARTISAN            PCT 314                                                00 
00080010013000000000000000000000000000000000000000000000000000000000000000000000000000000000000000000NON       BALLOTS CAST - NONPARTISAN                              BALLOTS CAST - NONPARTISAN            PCT 315                                                00 
00080010014000000000000000000000000000000000000000000000000000000000000000000000000000000000000000000NON       BALLOTS CAST - NONPARTISAN                              BALLOTS CAST - NONPARTISAN            PCT 316                                                00 
00080010015000000000000000000000000000000000000000000000000000000000000000000000000000000000000000000NON       BALLOTS CAST - NONPARTISAN                              BALLOTS CAST - NONPARTISAN            PCT 317                                                00 
00080010016000000000000000000000000000000000000000000000000000000000000000000000000000000000000000000NON       BALLOTS CAST - NONPARTISAN                              BALLOTS CAST - NONPARTISAN            PCT 318                                                00 
00080010017000000000000000000000000000000000000000000000000000000000000000000000000000000000000000000NON       BALLOTS CAST - NONPARTISAN                              BALLOTS CAST - NONPARTISAN            PCT 319                                                00 
00080010018000000000000000000000000000000000000000000000000000000000000000000000000000000000000000000NON       BALLOTS CAST - NONPARTISAN                              BALLOTS CAST - NONPARTISAN            PCT 404                                                00 
00080010019000000000000000000000000000000000000000000000000000000000000000000000000000000000000000000NON       BALLOTS CAST - NONPARTISAN                              BALLOTS CAST - NONPARTISAN            PCT 405                                                00 
00080010020000000000000000000000000000000000000000000000000000000000000000000000000000000000000000000NON       BALLOTS CAST - NONPARTISAN                              BALLOTS CAST - NONPARTISAN            PCT 416                                                00 
00080010021000000000000000000000000000000000000000000000000000000000000000000000000000000000000000000NON       BALLOTS CAST - NONPARTISAN                              BALLOTS CAST - NONPARTISAN            PCT 417                                                00 
00080010022000000000000000000000000000000000000000000000000000000000000000000000000000000000000000000NON       BALLOTS CAST - NONPARTISAN                              BALLOTS CAST - NONPARTISAN            PCT 418                                                00 
00090010001000000000000000000000000000000000000000000000000000000000000000000000000000000000000000000          BALLOTS CAST - BLANK                                    BALLOTS CAST - BLANK                  PCT 111                                                00 
00090010002000001000001000000000000000000000000000000000000000000000000000000000000000000000000000000          BALLOTS CAST - BLANK                                    BALLOTS CAST - BLANK                  PCT 112                                                00 
00090010003000001000000000000000001000000000000000000000000000000000000000000000000000000000000000000          BALLOTS CAST - BLANK                                    BALLOTS CAST - BLANK                  PCT 113                                                00 
00090010004000000000000000000000000000000000000000000000000000000000000000000000000000000000000000000          BALLOTS CAST - BLANK                                    BALLOTS CAST - BLANK                  PCT 114                                                00 
00090010005000000000000000000000000000000000000000000000000000000000000000000000000000000000000000000          BALLOTS CAST - BLANK                                    BALLOTS CAST - BLANK                  PCT 201                                                00 
00090010006000000000000000000000000000000000000000000000000000000000000000000000000000000000000000000          BALLOTS CAST - BLANK                                    BALLOTS CAST - BLANK                  PCT 212                                                00 
00090010007000000000000000000000000000000000000000000000000000000000000000000000000000000000000000000          BALLOTS CAST - BLANK                                    BALLOTS CAST - BLANK                  PCT 213                                                00 
00090010008000002000002000000000000000000000000000000000000000000000000000000000000000000000000000000          BALLOTS CAST - BLANK                                    BALLOTS CAST - BLANK                  PCT 214                                                00 
00090010009000000000000000000000000000000000000000000000000000000000000000000000000000000000000000000          BALLOTS CAST - BLANK                                    BALLOTS CAST - BLANK                  PCT 215                                                00 
00090010010000000000000000000000000000000000000000000000000000000000000000000000000000000000000000000          BALLOTS CAST - BLANK                                    BALLOTS CAST - BLANK                  PCT 302                                                00 
00090010011000001000000000001000000000000000000000000000000000000000000000000000000000000000000000000          BALLOTS CAST - BLANK                                    BALLOTS CAST - BLANK                  PCT 303                                                00 
00090010012000000000000000000000000000000000000000000000000000000000000000000000000000000000000000000          BALLOTS CAST - BLANK                                    BALLOTS CAST - BLANK                  PCT 314                                                00 
00090010013000000000000000000000000000000000000000000000000000000000000000000000000000000000000000000          BALLOTS CAST - BLANK                                    BALLOTS CAST - BLANK                  PCT 315                                                00 
00090010014000000000000000000000000000000000000000000000000000000000000000000000000000000000000000000          BALLOTS CAST - BLANK                                    BALLOTS CAST - BLANK                  PCT 316                                                00 
00090010015000000000000000000000000000000000000000000000000000000000000000000000000000000000000000000          BALLOTS CAST - BLANK                                    BALLOTS CAST - BLANK                  PCT 317                                                00 
00090010016000000000000000000000000000000000000000000000000000000000000000000000000000000000000000000          BALLOTS CAST - BLANK                                    BALLOTS CAST - BLANK                  PCT 318                                                00 
00090010017000000000000000000000000000000000000000000000000000000000000000000000000000000000000000000          BALLOTS CAST - BLANK                                    BALLOTS CAST - BLANK                  PCT 319                                                00 
00090010018000000000000000000000000000000000000000000000000000000000000000000000000000000000000000000          BALLOTS CAST - BLANK                                    BALLOTS CAST - BLANK                  PCT 404                                                00 
00090010019000000000000000000000000000000000000000000000000000000000000000000000000000000000000000000          BALLOTS CAST - BLANK                                    BALLOTS CAST - BLANK                  PCT 405                                                00 
00090010020000001000000000000000001000000000000000000000000000000000000000000000000000000000000000000          BALLOTS CAST - BLANK                                    BALLOTS CAST - BLANK                  PCT 416                                                00 
00090010021000000000000000000000000000000000000000000000000000000000000000000000000000000000000000000          BALLOTS CAST - BLANK                                    BALLOTS CAST - BLANK                  PCT 417                                                00 
00090010022000001000001000000000000000000000000000000000000000000000000000000000000000000000000000000          BALLOTS CAST - BLANK                                    BALLOTS CAST - BLANK                  PCT 418                                                00 
00100010001000103000004000066000033000000000000000000000000000000000000000000000000000000000000000000REP       REP Sheriff                                             Johnwayne Valdez                      PCT 111                                                01 
00100010002000093000006000015000072000000000000000000000000000000000000000000000000000000000000000000REP       REP Sheriff                                             Johnwayne Valdez                      PCT 112                                                01 
00100010003000239000017000068000154000000000000000000000000000000000000000000000000000000000000000000REP       REP Sheriff                                             Johnwayne Valdez                      PCT 113                                                01 
00100010004000185000013000082000090000000000000000000000000000000000000000000000000000000000000000000REP       REP Sheriff                                             Johnwayne Valdez                      PCT 114                                                01 
00100010005000073000005000048000020000000000000000000000000000000000000000000000000000000000000000000REP       REP Sheriff                                             Johnwayne Valdez                      PCT 201                                                01 
00100010006000093000006000052000035000000000000000000000000000000000000000000000000000000000000000000REP       REP Sheriff                                             Johnwayne Valdez                      PCT 212                                                01 
00100010007000062000004000025000033000000000000000000000000000000000000000000000000000000000000000000REP       REP Sheriff                                             Johnwayne Valdez                      PCT 213                                                01 
00100010008000154000017000038000099000000000000000000000000000000000000000000000000000000000000000000REP       REP Sheriff                                             Johnwayne Valdez                      PCT 214                                                01 
00100010009000199000019000068000112000000000000000000000000000000000000000000000000000000000000000000REP       REP Sheriff                                             Johnwayne Valdez                      PCT 215                                                01 
00100010010000080000002000049000029000000000000000000000000000000000000000000000000000000000000000000REP       REP Sheriff                                             Johnwayne Valdez                      PCT 302                                                01 
00100010011000069000005000040000024000000000000000000000000000000000000000000000000000000000000000000REP       REP Sheriff                                             Johnwayne Valdez                      PCT 303                                                01 
00100010012000160000013000115000032000000000000000000000000000000000000000000000000000000000000000000REP       REP Sheriff                                             Johnwayne Valdez                      PCT 314                                                01 
00100010013000108000002000066000040000000000000000000000000000000000000000000000000000000000000000000REP       REP Sheriff                                             Johnwayne Valdez                      PCT 315                                                01 
00100010014000096000007000032000057000000000000000000000000000000000000000000000000000000000000000000REP       REP Sheriff                                             Johnwayne Valdez                      PCT 316                                                01 
00100010015000046000005000010000031000000000000000000000000000000000000000000000000000000000000000000REP       REP Sheriff                                             Johnwayne Valdez                      PCT 317                                                01 
00100010016000250000024000045000181000000000000000000000000000000000000000000000000000000000000000000REP       REP Sheriff                                             Johnwayne Valdez                      PCT 318                                                01 
00100010017000037000000000011000026000000000000000000000000000000000000000000000000000000000000000000REP       REP Sheriff                                             Johnwayne Valdez                      PCT 319                                                01 
00100010018000191000022000125000044000000000000000000000000000000000000000000000000000000000000000000REP       REP Sheriff                                             Johnwayne Valdez                      PCT 404                                                01 
00100010019000120000012000072000036000000000000000000000000000000000000000000000000000000000000000000REP       REP Sheriff                                             Johnwayne Valdez                      PCT 405                                                01 
00100010020000113000004000082000027000000000000000000000000000000000000000000000000000000000000000000REP       REP Sheriff                                             Johnwayne Valdez                      PCT 416                                                01 
00100010021000108000012000050000046000000000000000000000000000000000000000000000000000000000000000000REP       REP Sheriff                                             Johnwayne Valdez                      PCT 417                                                01 
00100010022000288000024000132000132000000000000000000000000000000000000000000000000000000000000000000REP       REP Sheriff                                             Johnwayne Valdez                      PCT 418                                                01 
00100020001000083000009000055000019000000000000000000000000000000000000000000000000000000000000000000REP       REP Sheriff                                             Jeff Price                            PCT 111                                                01 
00100020002000131000024000033000074000000000000000000000000000000000000000000000000000000000000000000REP       REP Sheriff                                             Jeff Price                            PCT 112                                                01 
00100020003000275000048000066000161000000000000000000000000000000000000000000000000000000000000000000REP       REP Sheriff                                             Jeff Price                            PCT 113                                                01 
00100020004000134000016000044000074000000000000000000000000000000000000000000000000000000000000000000REP       REP Sheriff                                             Jeff Price                            PCT 114                                                01 
00100020005000131000023000085000023000000000000000000000000000000000000000000000000000000000000000000REP       REP Sheriff                                             Jeff Price                            PCT 201                                                01 
00100020006000121000012000071000038000000000000000000000000000000000000000000000000000000000000000000REP       REP Sheriff                                             Jeff Price                            PCT 212                                                01 
00100020007000105000032000016000057000000000000000000000000000000000000000000000000000000000000000000REP       REP Sheriff                                             Jeff Price                            PCT 213                                                01 
00100020008000135000023000039000073000000000000000000000000000000000000000000000000000000000000000000REP       REP Sheriff                                             Jeff Price                            PCT 214                                                01 
00100020009000094000015000040000039000000000000000000000000000000000000000000000000000000000000000000REP       REP Sheriff                                             Jeff Price                            PCT 215                                                01 
00100020010000091000006000057000028000000000000000000000000000000000000000000000000000000000000000000REP       REP Sheriff                                             Jeff Price                            PCT 302                                                01 
00100020011000116000013000070000033000000000000000000000000000000000000000000000000000000000000000000REP       REP Sheriff                                             Jeff Price                            PCT 303                                                01 
00100020012000152000017000095000040000000000000000000000000000000000000000000000000000000000000000000REP       REP Sheriff                                             Jeff Price                            PCT 314                                                01 
00100020013000074000005000046000023000000000000000000000000000000000000000000000000000000000000000000REP       REP Sheriff                                             Jeff Price                            PCT 315                                                01 
00100020014000028000005000004000019000000000000000000000000000000000000000000000000000000000000000000REP       REP Sheriff                                             Jeff Price                            PCT 316                                                01 
00100020015000010000006000000000004000000000000000000000000000000000000000000000000000000000000000000REP       REP Sheriff                                             Jeff Price                            PCT 317                                                01 
00100020016000022000006000001000015000000000000000000000000000000000000000000000000000000000000000000REP       REP Sheriff                                             Jeff Price                            PCT 318                                                01 
00100020017000013000004000001000008000000000000000000000000000000000000000000000000000000000000000000REP       REP Sheriff                                             Jeff Price                            PCT 319                                                01 
00100020018000243000040000166000037000000000000000000000000000000000000000000000000000000000000000000REP       REP Sheriff                                             Jeff Price                            PCT 404                                                01 
00100020019000182000021000124000037000000000000000000000000000000000000000000000000000000000000000000REP       REP Sheriff                                             Jeff Price                            PCT 405                                                01 
00100020020000097000012000058000027000000000000000000000000000000000000000000000000000000000000000000REP       REP Sheriff                                             Jeff Price                            PCT 416                                                01 
00100020021000070000012000028000030000000000000000000000000000000000000000000000000000000000000000000REP       REP Sheriff                                             Jeff Price                            PCT 417                                                01 
00100020022000150000023000067000060000000000000000000000000000000000000000000000000000000000000000000REP       REP Sheriff                                             Jeff Price                            PCT 418                                                01 
00100030001000000000000000000000000000000000000000000000000000000000000000000000000000000000000000000          REP Sheriff                                             OVER VOTES                            PCT 111                                                01 
00100030002000000000000000000000000000000000000000000000000000000000000000000000000000000000000000000          REP Sheriff                                             OVER VOTES                            PCT 112                                                01 
00100030003000000000000000000000000000000000000000000000000000000000000000000000000000000000000000000          REP Sheriff                                             OVER VOTES                            PCT 113                                                01 
00100030004000000000000000000000000000000000000000000000000000000000000000000000000000000000000000000          REP Sheriff                                             OVER VOTES                            PCT 114                                                01 
00100030005000000000000000000000000000000000000000000000000000000000000000000000000000000000000000000          REP Sheriff                                             OVER VOTES                            PCT 201                                                01 
00100030006000000000000000000000000000000000000000000000000000000000000000000000000000000000000000000          REP Sheriff                                             OVER VOTES                            PCT 212                                                01 
00100030007000000000000000000000000000000000000000000000000000000000000000000000000000000000000000000          REP Sheriff                                             OVER VOTES                            PCT 213                                                01 
00100030008000000000000000000000000000000000000000000000000000000000000000000000000000000000000000000          REP Sheriff                                             OVER VOTES                            PCT 214                                                01 
00100030009000000000000000000000000000000000000000000000000000000000000000000000000000000000000000000          REP Sheriff                                             OVER VOTES                            PCT 215                                                01 
00100030010000000000000000000000000000000000000000000000000000000000000000000000000000000000000000000          REP Sheriff                                             OVER VOTES                            PCT 302                                                01 
00100030011000000000000000000000000000000000000000000000000000000000000000000000000000000000000000000          REP Sheriff                                             OVER VOTES                            PCT 303                                                01 
00100030012000000000000000000000000000000000000000000000000000000000000000000000000000000000000000000          REP Sheriff                                             OVER VOTES                            PCT 314                                                01 
00100030013000000000000000000000000000000000000000000000000000000000000000000000000000000000000000000          REP Sheriff                                             OVER VOTES                            PCT 315                                                01 
00100030014000000000000000000000000000000000000000000000000000000000000000000000000000000000000000000          REP Sheriff                                             OVER VOTES                            PCT 316                                                01 
00100030015000000000000000000000000000000000000000000000000000000000000000000000000000000000000000000          REP Sheriff                                             OVER VOTES                            PCT 317                                                01 
00100030016000000000000000000000000000000000000000000000000000000000000000000000000000000000000000000          REP Sheriff                                             OVER VOTES                            PCT 318                                                01 
00100030017000000000000000000000000000000000000000000000000000000000000000000000000000000000000000000          REP Sheriff                                             OVER VOTES                            PCT 319                                                01 
00100030018000000000000000000000000000000000000000000000000000000000000000000000000000000000000000000          REP Sheriff                                             OVER VOTES                            PCT 404                                                01 
00100030019000000000000000000000000000000000000000000000000000000000000000000000000000000000000000000          REP Sheriff                                             OVER VOTES                            PCT 405                                                01 
00100030020000000000000000000000000000000000000000000000000000000000000000000000000000000000000000000          REP Sheriff                                             OVER VOTES                            PCT 416                                                01 
00100030021000000000000000000000000000000000000000000000000000000000000000000000000000000000000000000          REP Sheriff                                             OVER VOTES                            PCT 417                                                01 
00100030022000000000000000000000000000000000000000000000000000000000000000000000000000000000000000000          REP Sheriff                                             OVER VOTES                            PCT 418                                                01 
00100040001000000000000000000000000000000000000000000000000000000000000000000000000000000000000000000          REP Sheriff                                             UNDER VOTES                           PCT 111                                                01 
00100040002000000000000000000000000000000000000000000000000000000000000000000000000000000000000000000          REP Sheriff                                             UNDER VOTES                           PCT 112                                                01 
00100040003000011000003000003000005000000000000000000000000000000000000000000000000000000000000000000          REP Sheriff                                             UNDER VOTES                           PCT 113                                                01 
00100040004000000000000000000000000000000000000000000000000000000000000000000000000000000000000000000          REP Sheriff                                             UNDER VOTES                           PCT 114                                                01 
00100040005000000000000000000000000000000000000000000000000000000000000000000000000000000000000000000          REP Sheriff                                             UNDER VOTES                           PCT 201                                                01 
00100040006000000000000000000000000000000000000000000000000000000000000000000000000000000000000000000          REP Sheriff                                             UNDER VOTES                           PCT 212                                                01 
00100040007000000000000000000000000000000000000000000000000000000000000000000000000000000000000000000          REP Sheriff                                             UNDER VOTES                           PCT 213                                                01 
00100040008000000000000000000000000000000000000000000000000000000000000000000000000000000000000000000          REP Sheriff                                             UNDER VOTES                           PCT 214                                                01 
00100040009000000000000000000000000000000000000000000000000000000000000000000000000000000000000000000          REP Sheriff                                             UNDER VOTES                           PCT 215                                                01 
00100040010000000000000000000000000000000000000000000000000000000000000000000000000000000000000000000          REP Sheriff                                             UNDER VOTES                           PCT 302                                                01 
00100040011000000000000000000000000000000000000000000000000000000000000000000000000000000000000000000          REP Sheriff                                             UNDER VOTES                           PCT 303                                                01 
00100040012000000000000000000000000000000000000000000000000000000000000000000000000000000000000000000          REP Sheriff                                             UNDER VOTES                           PCT 314                                                01 
00100040013000000000000000000000000000000000000000000000000000000000000000000000000000000000000000000          REP Sheriff                                             UNDER VOTES                           PCT 315                                                01 
00100040014000000000000000000000000000000000000000000000000000000000000000000000000000000000000000000          REP Sheriff                                             UNDER VOTES                           PCT 316                                                01 
00100040015000000000000000000000000000000000000000000000000000000000000000000000000000000000000000000          REP Sheriff                                             UNDER VOTES                           PCT 317                                                01 
00100040016000000000000000000000000000000000000000000000000000000000000000000000000000000000000000000          REP Sheriff                                             UNDER VOTES                           PCT 318                                                01 
00100040017000000000000000000000000000000000000000000000000000000000000000000000000000000000000000000          REP Sheriff                                             UNDER VOTES                           PCT 319                                                01 
00100040018000000000000000000000000000000000000000000000000000000000000000000000000000000000000000000          REP Sheriff                                             UNDER VOTES                           PCT 404                                                01 
00100040019000000000000000000000000000000000000000000000000000000000000000000000000000000000000000000          REP Sheriff                                             UNDER VOTES                           PCT 405                                                01 
00100040020000001000000000000000001000000000000000000000000000000000000000000000000000000000000000000          REP Sheriff                                             UNDER VOTES                           PCT 416                                                01 
00100040021000000000000000000000000000000000000000000000000000000000000000000000000000000000000000000          REP Sheriff                                             UNDER VOTES                           PCT 417                                                01 
00100040022000001000001000000000000000000000000000000000000000000000000000000000000000000000000000000          REP Sheriff                                             UNDER VOTES                           PCT 418                                                01 
00110010001000102000006000063000033000000000000000000000000000000000000000000000000000000000000000000REPCOMPCT1REP County Commissioner Pct 1                           Randy Gaut                            PCT 111                       Pct 1                    01 
00110010002000173000025000036000112000000000000000000000000000000000000000000000000000000000000000000REPCOMPCT1REP County Commissioner Pct 1                           Randy Gaut                            PCT 112                       Pct 1                    01 
00110010003000217000029000050000138000000000000000000000000000000000000000000000000000000000000000000REPCOMPCT1REP County Commissioner Pct 1                           Randy Gaut                            PCT 113                       Pct 1                    01 
00110010004000245000024000096000125000000000000000000000000000000000000000000000000000000000000000000REPCOMPCT1REP County Commissioner Pct 1                           Randy Gaut                            PCT 114                       Pct 1                    01 
00110020001000083000007000057000019000000000000000000000000000000000000000000000000000000000000000000REPCOMPCT1REP County Commissioner Pct 1                           Shannon Thompson                      PCT 111                       Pct 1                    01 
00110020002000049000005000012000032000000000000000000000000000000000000000000000000000000000000000000REPCOMPCT1REP County Commissioner Pct 1                           Shannon Thompson                      PCT 112                       Pct 1                    01 
00110020003000307000039000087000181000000000000000000000000000000000000000000000000000000000000000000REPCOMPCT1REP County Commissioner Pct 1                           Shannon Thompson                      PCT 113                       Pct 1                    01 
00110020004000072000005000028000039000000000000000000000000000000000000000000000000000000000000000000REPCOMPCT1REP County Commissioner Pct 1                           Shannon Thompson                      PCT 114                       Pct 1                    01 
00110030001000000000000000000000000000000000000000000000000000000000000000000000000000000000000000000   COMPCT1REP County Commissioner Pct 1                           OVER VOTES                            PCT 111                       Pct 1                    01 
00110030002000000000000000000000000000000000000000000000000000000000000000000000000000000000000000000   COMPCT1REP County Commissioner Pct 1                           OVER VOTES                            PCT 112                       Pct 1                    01 
00110030003000000000000000000000000000000000000000000000000000000000000000000000000000000000000000000   COMPCT1REP County Commissioner Pct 1                           OVER VOTES                            PCT 113                       Pct 1                    01 
00110030004000000000000000000000000000000000000000000000000000000000000000000000000000000000000000000   COMPCT1REP County Commissioner Pct 1                           OVER VOTES                            PCT 114                       Pct 1                    01 
00110040001000001000000000001000000000000000000000000000000000000000000000000000000000000000000000000   COMPCT1REP County Commissioner Pct 1                           UNDER VOTES                           PCT 111                       Pct 1                    01 
00110040002000002000000000000000002000000000000000000000000000000000000000000000000000000000000000000   COMPCT1REP County Commissioner Pct 1                           UNDER VOTES                           PCT 112                       Pct 1                    01 
00110040003000001000000000000000001000000000000000000000000000000000000000000000000000000000000000000   COMPCT1REP County Commissioner Pct 1                           UNDER VOTES                           PCT 113                       Pct 1                    01 
00110040004000002000000000002000000000000000000000000000000000000000000000000000000000000000000000000   COMPCT1REP County Commissioner Pct 1                           UNDER VOTES                           PCT 114                       Pct 1                    01 
00120010002000097000013000025000059000000000000000000000000000000000000000000000000000000000000000000REPCONPCT1REP Constable Pct 1                                     Michael D. Smith                      PCT 112                       Pct 1                    01 
00120010003000125000031000027000067000000000000000000000000000000000000000000000000000000000000000000REPCONPCT1REP Constable Pct 1                                     Michael D. Smith                      PCT 113                       Pct 1                    01 
00120010004000204000016000076000112000000000000000000000000000000000000000000000000000000000000000000REPCONPCT1REP Constable Pct 1                                     Michael D. Smith                      PCT 114                       Pct 1                    01 
00120020002000111000015000021000075000000000000000000000000000000000000000000000000000000000000000000REPCONPCT1REP Constable Pct 1                                     Richard Stanley                       PCT 112                       Pct 1                    01 
00120020003000374000029000104000241000000000000000000000000000000000000000000000000000000000000000000REPCONPCT1REP Constable Pct 1                                     Richard Stanley                       PCT 113                       Pct 1                    01 
00120020004000104000012000041000051000000000000000000000000000000000000000000000000000000000000000000REPCONPCT1REP Constable Pct 1                                     Richard Stanley                       PCT 114                       Pct 1                    01 
00120030002000000000000000000000000000000000000000000000000000000000000000000000000000000000000000000   CONPCT1REP Constable Pct 1                                     OVER VOTES                            PCT 112                       Pct 1                    01 
00120030003000000000000000000000000000000000000000000000000000000000000000000000000000000000000000000   CONPCT1REP Constable Pct 1                                     OVER VOTES                            PCT 113                       Pct 1                    01 
00120030004000000000000000000000000000000000000000000000000000000000000000000000000000000000000000000   CONPCT1REP Constable Pct 1                                     OVER VOTES                            PCT 114                       Pct 1                    01 
00120040002000016000002000002000012000000000000000000000000000000000000000000000000000000000000000000   CONPCT1REP Constable Pct 1                                     UNDER VOTES                           PCT 112                       Pct 1                    01 
00120040003000026000008000006000012000000000000000000000000000000000000000000000000000000000000000000   CONPCT1REP Constable Pct 1                                     UNDER VOTES                           PCT 113                       Pct 1                    01 
00120040004000011000001000009000001000000000000000000000000000000000000000000000000000000000000000000   CONPCT1REP Constable Pct 1                                     UNDER VOTES                           PCT 114                       Pct 1                    01 
00130010001000006000001000004000001000000000000000000000000000000000000000000000000000000000000000000DEM       DEM US Senator                                          Mary "MJ" Hegar                       PCT 111                                                01 
00130010002000023000009000005000009000000000000000000000000000000000000000000000000000000000000000000DEM       DEM US Senator                                          Mary "MJ" Hegar                       PCT 112                                                01 
00130010003000039000017000004000018000000000000000000000000000000000000000000000000000000000000000000DEM       DEM US Senator                                          Mary "MJ" Hegar                       PCT 113                                                01 
00130010004000017000008000003000006000000000000000000000000000000000000000000000000000000000000000000DEM       DEM US Senator                                          Mary "MJ" Hegar                       PCT 114                                                01 
00130010005000012000004000007000001000000000000000000000000000000000000000000000000000000000000000000DEM       DEM US Senator                                          Mary "MJ" Hegar                       PCT 201                                                01 
00130010006000008000005000001000002000000000000000000000000000000000000000000000000000000000000000000DEM       DEM US Senator                                          Mary "MJ" Hegar                       PCT 212                                                01 
00130010007000021000008000004000009000000000000000000000000000000000000000000000000000000000000000000DEM       DEM US Senator                                          Mary "MJ" Hegar                       PCT 213                                                01 
00130010008000034000014000006000014000000000000000000000000000000000000000000000000000000000000000000DEM       DEM US Senator                                          Mary "MJ" Hegar                       PCT 214                                                01 
00130010009000026000004000004000018000000000000000000000000000000000000000000000000000000000000000000DEM       DEM US Senator                                          Mary "MJ" Hegar                       PCT 215                                                01 
00130010010000021000011000006000004000000000000000000000000000000000000000000000000000000000000000000DEM       DEM US Senator                                          Mary "MJ" Hegar                       PCT 302                                                01 
00130010011000022000006000007000009000000000000000000000000000000000000000000000000000000000000000000DEM       DEM US Senator                                          Mary "MJ" Hegar                       PCT 303                                                01 
00130010012000012000007000002000003000000000000000000000000000000000000000000000000000000000000000000DEM       DEM US Senator                                          Mary "MJ" Hegar                       PCT 314                                                01 
00130010013000003000001000000000002000000000000000000000000000000000000000000000000000000000000000000DEM       DEM US Senator                                          Mary "MJ" Hegar                       PCT 315                                                01 
00130010014000001000001000000000000000000000000000000000000000000000000000000000000000000000000000000DEM       DEM US Senator                                          Mary "MJ" Hegar                       PCT 316                                                01 
00130010015000004000003000000000001000000000000000000000000000000000000000000000000000000000000000000DEM       DEM US Senator                                          Mary "MJ" Hegar                       PCT 317                                                01 
00130010016000013000003000001000009000000000000000000000000000000000000000000000000000000000000000000DEM       DEM US Senator                                          Mary "MJ" Hegar                       PCT 318                                                01 
00130010017000006000002000001000003000000000000000000000000000000000000000000000000000000000000000000DEM       DEM US Senator                                          Mary "MJ" Hegar                       PCT 319                                                01 
00130010018000012000003000007000002000000000000000000000000000000000000000000000000000000000000000000DEM       DEM US Senator                                          Mary "MJ" Hegar                       PCT 404                                                01 
00130010019000013000007000006000000000000000000000000000000000000000000000000000000000000000000000000DEM       DEM US Senator                                          Mary "MJ" Hegar                       PCT 405                                                01 
00130010020000009000002000003000004000000000000000000000000000000000000000000000000000000000000000000DEM       DEM US Senator                                          Mary "MJ" Hegar                       PCT 416                                                01 
00130010021000011000004000003000004000000000000000000000000000000000000000000000000000000000000000000DEM       DEM US Senator                                          Mary "MJ" Hegar                       PCT 417                                                01 
00130010022000016000005000002000009000000000000000000000000000000000000000000000000000000000000000000DEM       DEM US Senator                                          Mary "MJ" Hegar                       PCT 418                                                01 
00130020001000005000001000001000003000000000000000000000000000000000000000000000000000000000000000000DEM       DEM US Senator                                          Royce West                            PCT 111                                                01 
00130020002000018000009000003000006000000000000000000000000000000000000000000000000000000000000000000DEM       DEM US Senator                                          Royce West                            PCT 112                                                01 
00130020003000034000011000008000015000000000000000000000000000000000000000000000000000000000000000000DEM       DEM US Senator                                          Royce West                            PCT 113                                                01 
00130020004000009000001000003000005000000000000000000000000000000000000000000000000000000000000000000DEM       DEM US Senator                                          Royce West                            PCT 114                                                01 
00130020005000005000001000003000001000000000000000000000000000000000000000000000000000000000000000000DEM       DEM US Senator                                          Royce West                            PCT 201                                                01 
00130020006000014000007000004000003000000000000000000000000000000000000000000000000000000000000000000DEM       DEM US Senator                                          Royce West                            PCT 212                                                01 
00130020007000024000009000001000014000000000000000000000000000000000000000000000000000000000000000000DEM       DEM US Senator                                          Royce West                            PCT 213                                                01 
00130020008000059000015000016000028000000000000000000000000000000000000000000000000000000000000000000DEM       DEM US Senator                                          Royce West                            PCT 214                                                01 
00130020009000057000021000011000025000000000000000000000000000000000000000000000000000000000000000000DEM       DEM US Senator                                          Royce West                            PCT 215                                                01 
00130020010000029000009000014000006000000000000000000000000000000000000000000000000000000000000000000DEM       DEM US Senator                                          Royce West                            PCT 302                                                01 
00130020011000054000020000024000010000000000000000000000000000000000000000000000000000000000000000000DEM       DEM US Senator                                          Royce West                            PCT 303                                                01 
00130020012000007000003000003000001000000000000000000000000000000000000000000000000000000000000000000DEM       DEM US Senator                                          Royce West                            PCT 314                                                01 
00130020013000004000003000001000000000000000000000000000000000000000000000000000000000000000000000000DEM       DEM US Senator                                          Royce West                            PCT 315                                                01 
00130020014000008000002000001000005000000000000000000000000000000000000000000000000000000000000000000DEM       DEM US Senator                                          Royce West                            PCT 316                                                01 
00130020015000027000018000001000008000000000000000000000000000000000000000000000000000000000000000000DEM       DEM US Senator                                          Royce West                            PCT 317                                                01 
00130020016000021000005000007000009000000000000000000000000000000000000000000000000000000000000000000DEM       DEM US Senator                                          Royce West                            PCT 318                                                01 
00130020017000017000008000004000005000000000000000000000000000000000000000000000000000000000000000000DEM       DEM US Senator                                          Royce West                            PCT 319                                                01 
00130020018000012000001000007000004000000000000000000000000000000000000000000000000000000000000000000DEM       DEM US Senator                                          Royce West                            PCT 404                                                01 
00130020019000015000005000008000002000000000000000000000000000000000000000000000000000000000000000000DEM       DEM US Senator                                          Royce West                            PCT 405                                                01 
00130020020000005000000000005000000000000000000000000000000000000000000000000000000000000000000000000DEM       DEM US Senator                                          Royce West                            PCT 416                                                01 
00130020021000013000003000004000006000000000000000000000000000000000000000000000000000000000000000000DEM       DEM US Senator                                          Royce West                            PCT 417                                                01 
00130020022000022000012000006000004000000000000000000000000000000000000000000000000000000000000000000DEM       DEM US Senator                                          Royce West                            PCT 418                                                01 
00130030001000000000000000000000000000000000000000000000000000000000000000000000000000000000000000000          DEM US Senator                                          OVER VOTES                            PCT 111                                                01 
00130030002000000000000000000000000000000000000000000000000000000000000000000000000000000000000000000          DEM US Senator                                          OVER VOTES                            PCT 112                                                01 
00130030003000000000000000000000000000000000000000000000000000000000000000000000000000000000000000000          DEM US Senator                                          OVER VOTES                            PCT 113                                                01 
00130030004000000000000000000000000000000000000000000000000000000000000000000000000000000000000000000          DEM US Senator                                          OVER VOTES                            PCT 114                                                01 
00130030005000000000000000000000000000000000000000000000000000000000000000000000000000000000000000000          DEM US Senator                                          OVER VOTES                            PCT 201                                                01 
00130030006000000000000000000000000000000000000000000000000000000000000000000000000000000000000000000          DEM US Senator                                          OVER VOTES                            PCT 212                                                01 
00130030007000000000000000000000000000000000000000000000000000000000000000000000000000000000000000000          DEM US Senator                                          OVER VOTES                            PCT 213                                                01 
00130030008000000000000000000000000000000000000000000000000000000000000000000000000000000000000000000          DEM US Senator                                          OVER VOTES                            PCT 214                                                01 
00130030009000000000000000000000000000000000000000000000000000000000000000000000000000000000000000000          DEM US Senator                                          OVER VOTES                            PCT 215                                                01 
00130030010000000000000000000000000000000000000000000000000000000000000000000000000000000000000000000          DEM US Senator                                          OVER VOTES                            PCT 302                                                01 
00130030011000000000000000000000000000000000000000000000000000000000000000000000000000000000000000000          DEM US Senator                                          OVER VOTES                            PCT 303                                                01 
00130030012000000000000000000000000000000000000000000000000000000000000000000000000000000000000000000          DEM US Senator                                          OVER VOTES                            PCT 314                                                01 
00130030013000000000000000000000000000000000000000000000000000000000000000000000000000000000000000000          DEM US Senator                                          OVER VOTES                            PCT 315                                                01 
00130030014000000000000000000000000000000000000000000000000000000000000000000000000000000000000000000          DEM US Senator                                          OVER VOTES                            PCT 316                                                01 
00130030015000000000000000000000000000000000000000000000000000000000000000000000000000000000000000000          DEM US Senator                                          OVER VOTES                            PCT 317                                                01 
00130030016000000000000000000000000000000000000000000000000000000000000000000000000000000000000000000          DEM US Senator                                          OVER VOTES                            PCT 318                                                01 
00130030017000000000000000000000000000000000000000000000000000000000000000000000000000000000000000000          DEM US Senator                                          OVER VOTES                            PCT 319                                                01 
00130030018000000000000000000000000000000000000000000000000000000000000000000000000000000000000000000          DEM US Senator                                          OVER VOTES                            PCT 404                                                01 
00130030019000000000000000000000000000000000000000000000000000000000000000000000000000000000000000000          DEM US Senator                                          OVER VOTES                            PCT 405                                                01 
