00010010001000096000000000000000000000000000000000000000000000000000000000000000000000000000000000000          REGISTERED VOTERS - TOTAL                               REGISTERED VOTERS - TOTAL             Precinct 5                                             00 
00010010002000275000000000000000000000000000000000000000000000000000000000000000000000000000000000000          REGISTERED VOTERS - TOTAL                               REGISTERED VOTERS - TOTAL             Precinct 6                                             00 
00010010003002174000000000000000000000000000000000000000000000000000000000000000000000000000000000000          REGISTERED VOTERS - TOTAL                               REGISTERED VOTERS - TOTAL             Precinct 7                                             00 
00010010004000916000000000000000000000000000000000000000000000000000000000000000000000000000000000000          REGISTERED VOTERS - TOTAL                               REGISTERED VOTERS - TOTAL             Precinct 8                                             00 
00010010005000498000000000000000000000000000000000000000000000000000000000000000000000000000000000000          REGISTERED VOTERS - TOTAL                               REGISTERED VOTERS - TOTAL             Precinct 9                                             00 
00010010006001188000000000000000000000000000000000000000000000000000000000000000000000000000000000000          REGISTERED VOTERS - TOTAL                               REGISTERED VOTERS - TOTAL             Precinct 10                                            00 
00010010007000143000000000000000000000000000000000000000000000000000000000000000000000000000000000000          REGISTERED VOTERS - TOTAL                               REGISTERED VOTERS - TOTAL             Precinct 11                                            00 
00010010008001511000000000000000000000000000000000000000000000000000000000000000000000000000000000000          REGISTERED VOTERS - TOTAL                               REGISTERED VOTERS - TOTAL             Precinct 12                                            00 
00010010009000478000000000000000000000000000000000000000000000000000000000000000000000000000000000000          REGISTERED VOTERS - TOTAL                               REGISTERED VOTERS - TOTAL             Precinct 13                                            00 
00010010010000120000000000000000000000000000000000000000000000000000000000000000000000000000000000000          REGISTERED VOTERS - TOTAL                               REGISTERED VOTERS - TOTAL             Precinct 14                                            00 
00010010011001945000000000000000000000000000000000000000000000000000000000000000000000000000000000000          REGISTERED VOTERS - TOTAL                               REGISTERED VOTERS - TOTAL             Precinct 15                                            00 
00020010001000000000000000000000000000000000000000000000000000000000000000000000000000000000000000000          BALLOTS CAST - TOTAL                                    BALLOTS CAST - TOTAL                  Precinct 5                                             00 
00020010002000003000001000000000002000000000000000000000000000000000000000000000000000000000000000000          BALLOTS CAST - TOTAL                                    BALLOTS CAST - TOTAL                  Precinct 6                                             00 
00020010003000026000009000010000007000000000000000000000000000000000000000000000000000000000000000000          BALLOTS CAST - TOTAL                                    BALLOTS CAST - TOTAL                  Precinct 7                                             00 
00020010004000002000000000002000000000000000000000000000000000000000000000000000000000000000000000000          BALLOTS CAST - TOTAL                                    BALLOTS CAST - TOTAL                  Precinct 8                                             00 
00020010005000001000000000000000001000000000000000000000000000000000000000000000000000000000000000000          BALLOTS CAST - TOTAL                                    BALLOTS CAST - TOTAL                  Precinct 9                                             00 
00020010006000011000004000002000005000000000000000000000000000000000000000000000000000000000000000000          BALLOTS CAST - TOTAL                                    BALLOTS CAST - TOTAL                  Precinct 10                                            00 
00020010007000000000000000000000000000000000000000000000000000000000000000000000000000000000000000000          BALLOTS CAST - TOTAL                                    BALLOTS CAST - TOTAL                  Precinct 11                                            00 
00020010008000014000008000003000003000000000000000000000000000000000000000000000000000000000000000000          BALLOTS CAST - TOTAL                                    BALLOTS CAST - TOTAL                  Precinct 12                                            00 
00020010009000003000002000001000000000000000000000000000000000000000000000000000000000000000000000000          BALLOTS CAST - TOTAL                                    BALLOTS CAST - TOTAL                  Precinct 13                                            00 
00020010010000001000000000001000000000000000000000000000000000000000000000000000000000000000000000000          BALLOTS CAST - TOTAL                                    BALLOTS CAST - TOTAL                  Precinct 14                                            00 
00020010011000011000003000004000004000000000000000000000000000000000000000000000000000000000000000000          BALLOTS CAST - TOTAL                                    BALLOTS CAST - TOTAL                  Precinct 15                                            00 
00030010001000000000000000000000000000000000000000000000000000000000000000000000000000000000000000000          BALLOTS CAST - BLANK                                    BALLOTS CAST - BLANK                  Precinct 5                                             00 
00030010002000000000000000000000000000000000000000000000000000000000000000000000000000000000000000000          BALLOTS CAST - BLANK                                    BALLOTS CAST - BLANK                  Precinct 6                                             00 
00030010003000000000000000000000000000000000000000000000000000000000000000000000000000000000000000000          BALLOTS CAST - BLANK                                    BALLOTS CAST - BLANK                  Precinct 7                                             00 
00030010004000000000000000000000000000000000000000000000000000000000000000000000000000000000000000000          BALLOTS CAST - BLANK                                    BALLOTS CAST - BLANK                  Precinct 8                                             00 
00030010005000000000000000000000000000000000000000000000000000000000000000000000000000000000000000000          BALLOTS CAST - BLANK                                    BALLOTS CAST - BLANK                  Precinct 9                                             00 
00030010006000000000000000000000000000000000000000000000000000000000000000000000000000000000000000000          BALLOTS CAST - BLANK                                    BALLOTS CAST - BLANK                  Precinct 10                                            00 
00030010007000000000000000000000000000000000000000000000000000000000000000000000000000000000000000000          BALLOTS CAST - BLANK                                    BALLOTS CAST - BLANK                  Precinct 11                                            00 
00030010008000000000000000000000000000000000000000000000000000000000000000000000000000000000000000000          BALLOTS CAST - BLANK                                    BALLOTS CAST - BLANK                  Precinct 12                                            00 
00030010009000000000000000000000000000000000000000000000000000000000000000000000000000000000000000000          BALLOTS CAST - BLANK                                    BALLOTS CAST - BLANK                  Precinct 13                                            00 
00030010010000000000000000000000000000000000000000000000000000000000000000000000000000000000000000000          BALLOTS CAST - BLANK                                    BALLOTS CAST - BLANK                  Precinct 14                                            00 
00030010011000001000001000000000000000000000000000000000000000000000000000000000000000000000000000000          BALLOTS CAST - BLANK                                    BALLOTS CAST - BLANK                  Precinct 15                                            00 
00040010001000000000000000000000000000000000000000000000000000000000000000000000000000000000000000000DEM       US Senator                                              Royce West                            Precinct 5                                             01 
00040010002000000000000000000000000000000000000000000000000000000000000000000000000000000000000000000DEM       US Senator                                              Royce West                            Precinct 6                                             01 
00040010003000012000005000004000003000000000000000000000000000000000000000000000000000000000000000000DEM       US Senator                                              Royce West                            Precinct 7                                             01 
00040010004000001000000000001000000000000000000000000000000000000000000000000000000000000000000000000DEM       US Senator                                              Royce West                            Precinct 8                                             01 
00040010005000001000000000000000001000000000000000000000000000000000000000000000000000000000000000000DEM       US Senator                                              Royce West                            Precinct 9                                             01 
00040010006000005000001000001000003000000000000000000000000000000000000000000000000000000000000000000DEM       US Senator                                              Royce West                            Precinct 10                                            01 
00040010007000000000000000000000000000000000000000000000000000000000000000000000000000000000000000000DEM       US Senator                                              Royce West                            Precinct 11                                            01 
00040010008000005000001000002000002000000000000000000000000000000000000000000000000000000000000000000DEM       US Senator                                              Royce West                            Precinct 12                                            01 
00040010009000001000000000001000000000000000000000000000000000000000000000000000000000000000000000000DEM       US Senator                                              Royce West                            Precinct 13                                            01 
00040010010000001000000000001000000000000000000000000000000000000000000000000000000000000000000000000DEM       US Senator                                              Royce West                            Precinct 14                                            01 
00040010011000006000002000002000002000000000000000000000000000000000000000000000000000000000000000000DEM       US Senator                                              Royce West                            Precinct 15                                            01 
00040020001000000000000000000000000000000000000000000000000000000000000000000000000000000000000000000DEM       US Senator                                              Mary "MJ" Hegar                       Precinct 5                                             01 
00040020002000003000001000000000002000000000000000000000000000000000000000000000000000000000000000000DEM       US Senator                                              Mary "MJ" Hegar                       Precinct 6                                             01 
00040020003000014000004000006000004000000000000000000000000000000000000000000000000000000000000000000DEM       US Senator                                              Mary "MJ" Hegar                       Precinct 7                                             01 
00040020004000001000000000001000000000000000000000000000000000000000000000000000000000000000000000000DEM       US Senator                                              Mary "MJ" Hegar                       Precinct 8                                             01 
00040020005000000000000000000000000000000000000000000000000000000000000000000000000000000000000000000DEM       US Senator                                              Mary "MJ" Hegar                       Precinct 9                                             01 
00040020006000006000003000001000002000000000000000000000000000000000000000000000000000000000000000000DEM       US Senator                                              Mary "MJ" Hegar                       Precinct 10                                            01 
00040020007000000000000000000000000000000000000000000000000000000000000000000000000000000000000000000DEM       US Senator                                              Mary "MJ" Hegar                       Precinct 11                                            01 
00040020008000009000007000001000001000000000000000000000000000000000000000000000000000000000000000000DEM       US Senator                                              Mary "MJ" Hegar                       Precinct 12                                            01 
00040020009000002000002000000000000000000000000000000000000000000000000000000000000000000000000000000DEM       US Senator                                              Mary "MJ" Hegar                       Precinct 13                                            01 
00040020010000000000000000000000000000000000000000000000000000000000000000000000000000000000000000000DEM       US Senator                                              Mary "MJ" Hegar                       Precinct 14                                            01 
00040020011000004000000000002000002000000000000000000000000000000000000000000000000000000000000000000DEM       US Senator                                              Mary "MJ" Hegar                       Precinct 15                                            01 
00040030001000000000000000000000000000000000000000000000000000000000000000000000000000000000000000000          US Senator                                              OVER VOTES                            Precinct 5                                             01 
00040030002000000000000000000000000000000000000000000000000000000000000000000000000000000000000000000          US Senator                                              OVER VOTES                            Precinct 6                                             01 
00040030003000000000000000000000000000000000000000000000000000000000000000000000000000000000000000000          US Senator                                              OVER VOTES                            Precinct 7                                             01 
00040030004000000000000000000000000000000000000000000000000000000000000000000000000000000000000000000          US Senator                                              OVER VOTES                            Precinct 8                                             01 
00040030005000000000000000000000000000000000000000000000000000000000000000000000000000000000000000000          US Senator                                              OVER VOTES                            Precinct 9                                             01 
00040030006000000000000000000000000000000000000000000000000000000000000000000000000000000000000000000          US Senator                                              OVER VOTES                            Precinct 10                                            01 
00040030007000000000000000000000000000000000000000000000000000000000000000000000000000000000000000000          US Senator                                              OVER VOTES                            Precinct 11                                            01 
00040030008000000000000000000000000000000000000000000000000000000000000000000000000000000000000000000          US Senator                                              OVER VOTES                            Precinct 12                                            01 
00040030009000000000000000000000000000000000000000000000000000000000000000000000000000000000000000000          US Senator                                              OVER VOTES                            Precinct 13                                            01 
00040030010000000000000000000000000000000000000000000000000000000000000000000000000000000000000000000          US Senator                                              OVER VOTES                            Precinct 14                                            01 
00040030011000000000000000000000000000000000000000000000000000000000000000000000000000000000000000000          US Senator                                              OVER VOTES                            Precinct 15                                            01 
00040040001000000000000000000000000000000000000000000000000000000000000000000000000000000000000000000          US Senator                                              UNDER VOTES                           Precinct 5                                             01 
00040040002000000000000000000000000000000000000000000000000000000000000000000000000000000000000000000          US Senator                                              UNDER VOTES                           Precinct 6                                             01 
00040040003000000000000000000000000000000000000000000000000000000000000000000000000000000000000000000          US Senator                                              UNDER VOTES                           Precinct 7                                             01 
00040040004000000000000000000000000000000000000000000000000000000000000000000000000000000000000000000          US Senator                                              UNDER VOTES                           Precinct 8                                             01 
00040040005000000000000000000000000000000000000000000000000000000000000000000000000000000000000000000          US Senator                                              UNDER VOTES                           Precinct 9                                             01 
00040040006000000000000000000000000000000000000000000000000000000000000000000000000000000000000000000          US Senator                                              UNDER VOTES                           Precinct 10                                            01 
00040040007000000000000000000000000000000000000000000000000000000000000000000000000000000000000000000          US Senator                                              UNDER VOTES                           Precinct 11                                            01 
00040040008000000000000000000000000000000000000000000000000000000000000000000000000000000000000000000          US Senator                                              UNDER VOTES                           Precinct 12                                            01 
00040040009000000000000000000000000000000000000000000000000000000000000000000000000000000000000000000          US Senator                                              UNDER VOTES                           Precinct 13                                            01 
00040040010000000000000000000000000000000000000000000000000000000000000000000000000000000000000000000          US Senator                                              UNDER VOTES                           Precinct 14                                            01 
00040040011000001000001000000000000000000000000000000000000000000000000000000000000000000000000000000          US Senator                                              UNDER VOTES                           Precinct 15                                            01 
00050010001000000000000000000000000000000000000000000000000000000000000000000000000000000000000000000DEM       Railroad Commissioner                                   Roberto R. "Beto" Alonzo              Precinct 5                                             01 
00050010002000003000001000000000002000000000000000000000000000000000000000000000000000000000000000000DEM       Railroad Commissioner                                   Roberto R. "Beto" Alonzo              Precinct 6                                             01 
00050010003000007000004000001000002000000000000000000000000000000000000000000000000000000000000000000DEM       Railroad Commissioner                                   Roberto R. "Beto" Alonzo              Precinct 7                                             01 
00050010004000000000000000000000000000000000000000000000000000000000000000000000000000000000000000000DEM       Railroad Commissioner                                   Roberto R. "Beto" Alonzo              Precinct 8                                             01 
00050010005000000000000000000000000000000000000000000000000000000000000000000000000000000000000000000DEM       Railroad Commissioner                                   Roberto R. "Beto" Alonzo              Precinct 9                                             01 
00050010006000004000002000001000001000000000000000000000000000000000000000000000000000000000000000000DEM       Railroad Commissioner                                   Roberto R. "Beto" Alonzo              Precinct 10                                            01 
00050010007000000000000000000000000000000000000000000000000000000000000000000000000000000000000000000DEM       Railroad Commissioner                                   Roberto R. "Beto" Alonzo              Precinct 11                                            01 
00050010008000007000005000000000002000000000000000000000000000000000000000000000000000000000000000000DEM       Railroad Commissioner                                   Roberto R. "Beto" Alonzo              Precinct 12                                            01 
00050010009000000000000000000000000000000000000000000000000000000000000000000000000000000000000000000DEM       Railroad Commissioner                                   Roberto R. "Beto" Alonzo              Precinct 13                                            01 
00050010010000000000000000000000000000000000000000000000000000000000000000000000000000000000000000000DEM       Railroad Commissioner                                   Roberto R. "Beto" Alonzo              Precinct 14                                            01 
00050010011000001000000000001000000000000000000000000000000000000000000000000000000000000000000000000DEM       Railroad Commissioner                                   Roberto R. "Beto" Alonzo              Precinct 15                                            01 
00050020001000000000000000000000000000000000000000000000000000000000000000000000000000000000000000000DEM       Railroad Commissioner                                   Chrysta Castaneda                     Precinct 5                                             01 
00050020002000000000000000000000000000000000000000000000000000000000000000000000000000000000000000000DEM       Railroad Commissioner                                   Chrysta Castaneda                     Precinct 6                                             01 
00050020003000019000005000009000005000000000000000000000000000000000000000000000000000000000000000000DEM       Railroad Commissioner                                   Chrysta Castaneda                     Precinct 7                                             01 
00050020004000002000000000002000000000000000000000000000000000000000000000000000000000000000000000000DEM       Railroad Commissioner                                   Chrysta Castaneda                     Precinct 8                                             01 
00050020005000001000000000000000001000000000000000000000000000000000000000000000000000000000000000000DEM       Railroad Commissioner                                   Chrysta Castaneda                     Precinct 9                                             01 
00050020006000007000002000001000004000000000000000000000000000000000000000000000000000000000000000000DEM       Railroad Commissioner                                   Chrysta Castaneda                     Precinct 10                                            01 
00050020007000000000000000000000000000000000000000000000000000000000000000000000000000000000000000000DEM       Railroad Commissioner                                   Chrysta Castaneda                     Precinct 11                                            01 
00050020008000007000003000003000001000000000000000000000000000000000000000000000000000000000000000000DEM       Railroad Commissioner                                   Chrysta Castaneda                     Precinct 12                                            01 
00050020009000003000002000001000000000000000000000000000000000000000000000000000000000000000000000000DEM       Railroad Commissioner                                   Chrysta Castaneda                     Precinct 13                                            01 
00050020010000001000000000001000000000000000000000000000000000000000000000000000000000000000000000000DEM       Railroad Commissioner                                   Chrysta Castaneda                     Precinct 14                                            01 
00050020011000008000001000003000004000000000000000000000000000000000000000000000000000000000000000000DEM       Railroad Commissioner                                   Chrysta Castaneda                     Precinct 15                                            01 
00050030001000000000000000000000000000000000000000000000000000000000000000000000000000000000000000000          Railroad Commissioner                                   OVER VOTES                            Precinct 5                                             01 
00050030002000000000000000000000000000000000000000000000000000000000000000000000000000000000000000000          Railroad Commissioner                                   OVER VOTES                            Precinct 6                                             01 
00050030003000000000000000000000000000000000000000000000000000000000000000000000000000000000000000000          Railroad Commissioner                                   OVER VOTES                            Precinct 7                                             01 
00050030004000000000000000000000000000000000000000000000000000000000000000000000000000000000000000000          Railroad Commissioner                                   OVER VOTES                            Precinct 8                                             01 
00050030005000000000000000000000000000000000000000000000000000000000000000000000000000000000000000000          Railroad Commissioner                                   OVER VOTES                            Precinct 9                                             01 
00050030006000000000000000000000000000000000000000000000000000000000000000000000000000000000000000000          Railroad Commissioner                                   OVER VOTES                            Precinct 10                                            01 
00050030007000000000000000000000000000000000000000000000000000000000000000000000000000000000000000000          Railroad Commissioner                                   OVER VOTES                            Precinct 11                                            01 
00050030008000000000000000000000000000000000000000000000000000000000000000000000000000000000000000000          Railroad Commissioner                                   OVER VOTES                            Precinct 12                                            01 
00050030009000000000000000000000000000000000000000000000000000000000000000000000000000000000000000000          Railroad Commissioner                                   OVER VOTES                            Precinct 13                                            01 
00050030010000000000000000000000000000000000000000000000000000000000000000000000000000000000000000000          Railroad Commissioner                                   OVER VOTES                            Precinct 14                                            01 
00050030011000000000000000000000000000000000000000000000000000000000000000000000000000000000000000000          Railroad Commissioner                                   OVER VOTES                            Precinct 15                                            01 
00050040001000000000000000000000000000000000000000000000000000000000000000000000000000000000000000000          Railroad Commissioner                                   UNDER VOTES                           Precinct 5                                             01 
00050040002000000000000000000000000000000000000000000000000000000000000000000000000000000000000000000          Railroad Commissioner                                   UNDER VOTES                           Precinct 6                                             01 
00050040003000000000000000000000000000000000000000000000000000000000000000000000000000000000000000000          Railroad Commissioner                                   UNDER VOTES                           Precinct 7                                             01 
00050040004000000000000000000000000000000000000000000000000000000000000000000000000000000000000000000          Railroad Commissioner                                   UNDER VOTES                           Precinct 8                                             01 
00050040005000000000000000000000000000000000000000000000000000000000000000000000000000000000000000000          Railroad Commissioner                                   UNDER VOTES                           Precinct 9                                             01 
00050040006000000000000000000000000000000000000000000000000000000000000000000000000000000000000000000          Railroad Commissioner                                   UNDER VOTES                           Precinct 10                                            01 
00050040007000000000000000000000000000000000000000000000000000000000000000000000000000000000000000000          Railroad Commissioner                                   UNDER VOTES                           Precinct 11                                            01 
00050040008000000000000000000000000000000000000000000000000000000000000000000000000000000000000000000          Railroad Commissioner                                   UNDER VOTES                           Precinct 12                                            01 
00050040009000000000000000000000000000000000000000000000000000000000000000000000000000000000000000000          Railroad Commissioner                                   UNDER VOTES                           Precinct 13                                            01 
00050040010000000000000000000000000000000000000000000000000000000000000000000000000000000000000000000          Railroad Commissioner                                   UNDER VOTES                           Precinct 14                                            01 
00050040011000002000002000000000000000000000000000000000000000000000000000000000000000000000000000000          Railroad Commissioner                                   UNDER VOTES                           Precinct 15                                            01 
