00010010001000000000000000000000000000000000000000000000000000000000000000000000000000000000000000000          REGISTERED VOTERS - TOTAL                               REGISTERED VOTERS - TOTAL             Precinct 1, Voting Box 1                               00 
00010010002000000000000000000000000000000000000000000000000000000000000000000000000000000000000000000          REGISTERED VOTERS - TOTAL                               REGISTERED VOTERS - TOTAL             Precinct 2, Voting Box 2                               00 
00010010003000000000000000000000000000000000000000000000000000000000000000000000000000000000000000000          REGISTERED VOTERS - TOTAL                               REGISTERED VOTERS - TOTAL             Precinct 3, Voting Box 3                               00 
00010010004000000000000000000000000000000000000000000000000000000000000000000000000000000000000000000          REGISTERED VOTERS - TOTAL                               REGISTERED VOTERS - TOTAL             Precinct 4, Voting Box 4                               00 
00010010005000000000000000000000000000000000000000000000000000000000000000000000000000000000000000000          REGISTERED VOTERS - TOTAL                               REGISTERED VOTERS - TOTAL             Precinct 1, Voting Box 5                               00 
00010010006000000000000000000000000000000000000000000000000000000000000000000000000000000000000000000          REGISTERED VOTERS - TOTAL                               REGISTERED VOTERS - TOTAL             Precinct 2, Voting Box 6                               00 
00020010001000000000000000000000000000000000000000000000000000000000000000000000000000000000000000000REP       REGISTERED VOTERS - Republican Party                    REGISTERED VOTERS - Republican Party  Precinct 1, Voting Box 1                               00 
00020010002000000000000000000000000000000000000000000000000000000000000000000000000000000000000000000REP       REGISTERED VOTERS - Republican Party                    REGISTERED VOTERS - Republican Party  Precinct 2, Voting Box 2                               00 
00020010003000000000000000000000000000000000000000000000000000000000000000000000000000000000000000000REP       REGISTERED VOTERS - Republican Party                    REGISTERED VOTERS - Republican Party  Precinct 3, Voting Box 3                               00 
00020010004000000000000000000000000000000000000000000000000000000000000000000000000000000000000000000REP       REGISTERED VOTERS - Republican Party                    REGISTERED VOTERS - Republican Party  Precinct 4, Voting Box 4                               00 
00020010005000000000000000000000000000000000000000000000000000000000000000000000000000000000000000000REP       REGISTERED VOTERS - Republican Party                    REGISTERED VOTERS - Republican Party  Precinct 1, Voting Box 5                               00 
00020010006000000000000000000000000000000000000000000000000000000000000000000000000000000000000000000REP       REGISTERED VOTERS - Republican Party                    REGISTERED VOTERS - Republican Party  Precinct 2, Voting Box 6                               00 
00030010001000000000000000000000000000000000000000000000000000000000000000000000000000000000000000000DEM       REGISTERED VOTERS - Democratic Party                    REGISTERED VOTERS - Democratic Party  Precinct 1, Voting Box 1                               00 
00030010002000000000000000000000000000000000000000000000000000000000000000000000000000000000000000000DEM       REGISTERED VOTERS - Democratic Party                    REGISTERED VOTERS - Democratic Party  Precinct 2, Voting Box 2                               00 
00030010003000000000000000000000000000000000000000000000000000000000000000000000000000000000000000000DEM       REGISTERED VOTERS - Democratic Party                    REGISTERED VOTERS - Democratic Party  Precinct 3, Voting Box 3                               00 
00030010004000000000000000000000000000000000000000000000000000000000000000000000000000000000000000000DEM       REGISTERED VOTERS - Democratic Party                    REGISTERED VOTERS - Democratic Party  Precinct 4, Voting Box 4                               00 
00030010005000000000000000000000000000000000000000000000000000000000000000000000000000000000000000000DEM       REGISTERED VOTERS - Democratic Party                    REGISTERED VOTERS - Democratic Party  Precinct 1, Voting Box 5                               00 
00030010006000000000000000000000000000000000000000000000000000000000000000000000000000000000000000000DEM       REGISTERED VOTERS - Democratic Party                    REGISTERED VOTERS - Democratic Party  Precinct 2, Voting Box 6                               00 
00040010001000000000000000000000000000000000000000000000000000000000000000000000000000000000000000000NON       REGISTERED VOTERS - NONPARTISAN                         REGISTERED VOTERS - NONPARTISAN       Precinct 1, Voting Box 1                               00 
00040010002000000000000000000000000000000000000000000000000000000000000000000000000000000000000000000NON       REGISTERED VOTERS - NONPARTISAN                         REGISTERED VOTERS - NONPARTISAN       Precinct 2, Voting Box 2                               00 
00040010003000000000000000000000000000000000000000000000000000000000000000000000000000000000000000000NON       REGISTERED VOTERS - NONPARTISAN                         REGISTERED VOTERS - NONPARTISAN       Precinct 3, Voting Box 3                               00 
00040010004000000000000000000000000000000000000000000000000000000000000000000000000000000000000000000NON       REGISTERED VOTERS - NONPARTISAN                         REGISTERED VOTERS - NONPARTISAN       Precinct 4, Voting Box 4                               00 
00040010005000000000000000000000000000000000000000000000000000000000000000000000000000000000000000000NON       REGISTERED VOTERS - NONPARTISAN                         REGISTERED VOTERS - NONPARTISAN       Precinct 1, Voting Box 5                               00 
00040010006000000000000000000000000000000000000000000000000000000000000000000000000000000000000000000NON       REGISTERED VOTERS - NONPARTISAN                         REGISTERED VOTERS - NONPARTISAN       Precinct 2, Voting Box 6                               00 
00050010001000088000045000005000038000000000000000000000000000000000000000000000000000000000000000000          BALLOTS CAST - TOTAL                                    BALLOTS CAST - TOTAL                  Precinct 1, Voting Box 1                               00 
00050010002000024000016000002000006000000000000000000000000000000000000000000000000000000000000000000          BALLOTS CAST - TOTAL                                    BALLOTS CAST - TOTAL                  Precinct 2, Voting Box 2                               00 
00050010003000064000032000007000025000000000000000000000000000000000000000000000000000000000000000000          BALLOTS CAST - TOTAL                                    BALLOTS CAST - TOTAL                  Precinct 3, Voting Box 3                               00 
00050010004000115000064000008000043000000000000000000000000000000000000000000000000000000000000000000          BALLOTS CAST - TOTAL                                    BALLOTS CAST - TOTAL                  Precinct 4, Voting Box 4                               00 
00050010005000022000000000001000021000000000000000000000000000000000000000000000000000000000000000000          BALLOTS CAST - TOTAL                                    BALLOTS CAST - TOTAL                  Precinct 1, Voting Box 5                               00 
00050010006000049000026000004000019000000000000000000000000000000000000000000000000000000000000000000          BALLOTS CAST - TOTAL                                    BALLOTS CAST - TOTAL                  Precinct 2, Voting Box 6                               00 
00060010001000087000045000004000038000000000000000000000000000000000000000000000000000000000000000000REP       BALLOTS CAST - Republican Party                         BALLOTS CAST - Republican Party       Precinct 1, Voting Box 1                               00 
00060010002000021000016000000000005000000000000000000000000000000000000000000000000000000000000000000REP       BALLOTS CAST - Republican Party                         BALLOTS CAST - Republican Party       Precinct 2, Voting Box 2                               00 
00060010003000053000029000002000022000000000000000000000000000000000000000000000000000000000000000000REP       BALLOTS CAST - Republican Party                         BALLOTS CAST - Republican Party       Precinct 3, Voting Box 3                               00 
00060010004000095000054000004000037000000000000000000000000000000000000000000000000000000000000000000REP       BALLOTS CAST - Republican Party                         BALLOTS CAST - Republican Party       Precinct 4, Voting Box 4                               00 
00060010005000022000000000001000021000000000000000000000000000000000000000000000000000000000000000000REP       BALLOTS CAST - Republican Party                         BALLOTS CAST - Republican Party       Precinct 1, Voting Box 5                               00 
00060010006000044000025000003000016000000000000000000000000000000000000000000000000000000000000000000REP       BALLOTS CAST - Republican Party                         BALLOTS CAST - Republican Party       Precinct 2, Voting Box 6                               00 
00070010001000001000000000001000000000000000000000000000000000000000000000000000000000000000000000000DEM       BALLOTS CAST - Democratic Party                         BALLOTS CAST - Democratic Party       Precinct 1, Voting Box 1                               00 
00070010002000003000000000002000001000000000000000000000000000000000000000000000000000000000000000000DEM       BALLOTS CAST - Democratic Party                         BALLOTS CAST - Democratic Party       Precinct 2, Voting Box 2                               00 
00070010003000011000003000005000003000000000000000000000000000000000000000000000000000000000000000000DEM       BALLOTS CAST - Democratic Party                         BALLOTS CAST - Democratic Party       Precinct 3, Voting Box 3                               00 
00070010004000020000010000004000006000000000000000000000000000000000000000000000000000000000000000000DEM       BALLOTS CAST - Democratic Party                         BALLOTS CAST - Democratic Party       Precinct 4, Voting Box 4                               00 
00070010005000000000000000000000000000000000000000000000000000000000000000000000000000000000000000000DEM       BALLOTS CAST - Democratic Party                         BALLOTS CAST - Democratic Party       Precinct 1, Voting Box 5                               00 
00070010006000005000001000001000003000000000000000000000000000000000000000000000000000000000000000000DEM       BALLOTS CAST - Democratic Party                         BALLOTS CAST - Democratic Party       Precinct 2, Voting Box 6                               00 
00080010001000000000000000000000000000000000000000000000000000000000000000000000000000000000000000000NON       BALLOTS CAST - NONPARTISAN                              BALLOTS CAST - NONPARTISAN            Precinct 1, Voting Box 1                               00 
00080010002000000000000000000000000000000000000000000000000000000000000000000000000000000000000000000NON       BALLOTS CAST - NONPARTISAN                              BALLOTS CAST - NONPARTISAN            Precinct 2, Voting Box 2                               00 
00080010003000000000000000000000000000000000000000000000000000000000000000000000000000000000000000000NON       BALLOTS CAST - NONPARTISAN                              BALLOTS CAST - NONPARTISAN            Precinct 3, Voting Box 3                               00 
00080010004000000000000000000000000000000000000000000000000000000000000000000000000000000000000000000NON       BALLOTS CAST - NONPARTISAN                              BALLOTS CAST - NONPARTISAN            Precinct 4, Voting Box 4                               00 
00080010005000000000000000000000000000000000000000000000000000000000000000000000000000000000000000000NON       BALLOTS CAST - NONPARTISAN                              BALLOTS CAST - NONPARTISAN            Precinct 1, Voting Box 5                               00 
00080010006000000000000000000000000000000000000000000000000000000000000000000000000000000000000000000NON       BALLOTS CAST - NONPARTISAN                              BALLOTS CAST - NONPARTISAN            Precinct 2, Voting Box 6                               00 
00090010001000000000000000000000000000000000000000000000000000000000000000000000000000000000000000000          BALLOTS CAST - BLANK                                    BALLOTS CAST - BLANK                  Precinct 1, Voting Box 1                               00 
00090010002000000000000000000000000000000000000000000000000000000000000000000000000000000000000000000          BALLOTS CAST - BLANK                                    BALLOTS CAST - BLANK                  Precinct 2, Voting Box 2                               00 
00090010003000001000000000000000001000000000000000000000000000000000000000000000000000000000000000000          BALLOTS CAST - BLANK                                    BALLOTS CAST - BLANK                  Precinct 3, Voting Box 3                               00 
00090010004000000000000000000000000000000000000000000000000000000000000000000000000000000000000000000          BALLOTS CAST - BLANK                                    BALLOTS CAST - BLANK                  Precinct 4, Voting Box 4                               00 
00090010005000000000000000000000000000000000000000000000000000000000000000000000000000000000000000000          BALLOTS CAST - BLANK                                    BALLOTS CAST - BLANK                  Precinct 1, Voting Box 5                               00 
00090010006000000000000000000000000000000000000000000000000000000000000000000000000000000000000000000          BALLOTS CAST - BLANK                                    BALLOTS CAST - BLANK                  Precinct 2, Voting Box 6                               00 
00100010001000001000000000001000000000000000000000000000000000000000000000000000000000000000000000000DEM       DEM US Senator                                          Mary "MJ" Hegar                       Precinct 1, Voting Box 1                               01 
00100010002000003000000000002000001000000000000000000000000000000000000000000000000000000000000000000DEM       DEM US Senator                                          Mary "MJ" Hegar                       Precinct 2, Voting Box 2                               01 
00100010003000006000001000003000002000000000000000000000000000000000000000000000000000000000000000000DEM       DEM US Senator                                          Mary "MJ" Hegar                       Precinct 3, Voting Box 3                               01 
00100010004000014000008000003000003000000000000000000000000000000000000000000000000000000000000000000DEM       DEM US Senator                                          Mary "MJ" Hegar                       Precinct 4, Voting Box 4                               01 
00100010005000000000000000000000000000000000000000000000000000000000000000000000000000000000000000000DEM       DEM US Senator                                          Mary "MJ" Hegar                       Precinct 1, Voting Box 5                               01 
00100010006000004000001000001000002000000000000000000000000000000000000000000000000000000000000000000DEM       DEM US Senator                                          Mary "MJ" Hegar                       Precinct 2, Voting Box 6                               01 
00100020001000000000000000000000000000000000000000000000000000000000000000000000000000000000000000000DEM       DEM US Senator                                          Royce West                            Precinct 1, Voting Box 1                               01 
00100020002000000000000000000000000000000000000000000000000000000000000000000000000000000000000000000DEM       DEM US Senator                                          Royce West                            Precinct 2, Voting Box 2                               01 
00100020003000004000001000002000001000000000000000000000000000000000000000000000000000000000000000000DEM       DEM US Senator                                          Royce West                            Precinct 3, Voting Box 3                               01 
00100020004000006000002000001000003000000000000000000000000000000000000000000000000000000000000000000DEM       DEM US Senator                                          Royce West                            Precinct 4, Voting Box 4                               01 
00100020005000000000000000000000000000000000000000000000000000000000000000000000000000000000000000000DEM       DEM US Senator                                          Royce West                            Precinct 1, Voting Box 5                               01 
00100020006000001000000000000000001000000000000000000000000000000000000000000000000000000000000000000DEM       DEM US Senator                                          Royce West                            Precinct 2, Voting Box 6                               01 
00100030001000000000000000000000000000000000000000000000000000000000000000000000000000000000000000000          DEM US Senator                                          OVER VOTES                            Precinct 1, Voting Box 1                               01 
00100030002000000000000000000000000000000000000000000000000000000000000000000000000000000000000000000          DEM US Senator                                          OVER VOTES                            Precinct 2, Voting Box 2                               01 
00100030003000000000000000000000000000000000000000000000000000000000000000000000000000000000000000000          DEM US Senator                                          OVER VOTES                            Precinct 3, Voting Box 3                               01 
00100030004000000000000000000000000000000000000000000000000000000000000000000000000000000000000000000          DEM US Senator                                          OVER VOTES                            Precinct 4, Voting Box 4                               01 
00100030005000000000000000000000000000000000000000000000000000000000000000000000000000000000000000000          DEM US Senator                                          OVER VOTES                            Precinct 1, Voting Box 5                               01 
00100030006000000000000000000000000000000000000000000000000000000000000000000000000000000000000000000          DEM US Senator                                          OVER VOTES                            Precinct 2, Voting Box 6                               01 
00100040001000000000000000000000000000000000000000000000000000000000000000000000000000000000000000000          DEM US Senator                                          UNDER VOTES                           Precinct 1, Voting Box 1                               01 
00100040002000000000000000000000000000000000000000000000000000000000000000000000000000000000000000000          DEM US Senator                                          UNDER VOTES                           Precinct 2, Voting Box 2                               01 
00100040003000001000001000000000000000000000000000000000000000000000000000000000000000000000000000000          DEM US Senator                                          UNDER VOTES                           Precinct 3, Voting Box 3                               01 
00100040004000000000000000000000000000000000000000000000000000000000000000000000000000000000000000000          DEM US Senator                                          UNDER VOTES                           Precinct 4, Voting Box 4                               01 
00100040005000000000000000000000000000000000000000000000000000000000000000000000000000000000000000000          DEM US Senator                                          UNDER VOTES                           Precinct 1, Voting Box 5                               01 
00100040006000000000000000000000000000000000000000000000000000000000000000000000000000000000000000000          DEM US Senator                                          UNDER VOTES                           Precinct 2, Voting Box 6                               01 
00110010001000000000000000000000000000000000000000000000000000000000000000000000000000000000000000000DEM       DEM Railroad Commissioner                               Roberto R. "Beto" Alonzo              Precinct 1, Voting Box 1                               01 
00110010002000001000000000001000000000000000000000000000000000000000000000000000000000000000000000000DEM       DEM Railroad Commissioner                               Roberto R. "Beto" Alonzo              Precinct 2, Voting Box 2                               01 
00110010003000007000002000004000001000000000000000000000000000000000000000000000000000000000000000000DEM       DEM Railroad Commissioner                               Roberto R. "Beto" Alonzo              Precinct 3, Voting Box 3                               01 
00110010004000013000006000003000004000000000000000000000000000000000000000000000000000000000000000000DEM       DEM Railroad Commissioner                               Roberto R. "Beto" Alonzo              Precinct 4, Voting Box 4                               01 
00110010005000000000000000000000000000000000000000000000000000000000000000000000000000000000000000000DEM       DEM Railroad Commissioner                               Roberto R. "Beto" Alonzo              Precinct 1, Voting Box 5                               01 
00110010006000003000000000000000003000000000000000000000000000000000000000000000000000000000000000000DEM       DEM Railroad Commissioner                               Roberto R. "Beto" Alonzo              Precinct 2, Voting Box 6                               01 
00110020001000001000000000001000000000000000000000000000000000000000000000000000000000000000000000000DEM       DEM Railroad Commissioner                               Chrysta Castaneda                     Precinct 1, Voting Box 1                               01 
00110020002000002000000000001000001000000000000000000000000000000000000000000000000000000000000000000DEM       DEM Railroad Commissioner                               Chrysta Castaneda                     Precinct 2, Voting Box 2                               01 
00110020003000004000001000001000002000000000000000000000000000000000000000000000000000000000000000000DEM       DEM Railroad Commissioner                               Chrysta Castaneda                     Precinct 3, Voting Box 3                               01 
00110020004000007000004000001000002000000000000000000000000000000000000000000000000000000000000000000DEM       DEM Railroad Commissioner                               Chrysta Castaneda                     Precinct 4, Voting Box 4                               01 
00110020005000000000000000000000000000000000000000000000000000000000000000000000000000000000000000000DEM       DEM Railroad Commissioner                               Chrysta Castaneda                     Precinct 1, Voting Box 5                               01 
00110020006000002000001000001000000000000000000000000000000000000000000000000000000000000000000000000DEM       DEM Railroad Commissioner                               Chrysta Castaneda                     Precinct 2, Voting Box 6                               01 
00110030001000000000000000000000000000000000000000000000000000000000000000000000000000000000000000000          DEM Railroad Commissioner                               OVER VOTES                            Precinct 1, Voting Box 1                               01 
00110030002000000000000000000000000000000000000000000000000000000000000000000000000000000000000000000          DEM Railroad Commissioner                               OVER VOTES                            Precinct 2, Voting Box 2                               01 
00110030003000000000000000000000000000000000000000000000000000000000000000000000000000000000000000000          DEM Railroad Commissioner                               OVER VOTES                            Precinct 3, Voting Box 3                               01 
00110030004000000000000000000000000000000000000000000000000000000000000000000000000000000000000000000          DEM Railroad Commissioner                               OVER VOTES                            Precinct 4, Voting Box 4                               01 
00110030005000000000000000000000000000000000000000000000000000000000000000000000000000000000000000000          DEM Railroad Commissioner                               OVER VOTES                            Precinct 1, Voting Box 5                               01 
00110030006000000000000000000000000000000000000000000000000000000000000000000000000000000000000000000          DEM Railroad Commissioner                               OVER VOTES                            Precinct 2, Voting Box 6                               01 
00110040001000000000000000000000000000000000000000000000000000000000000000000000000000000000000000000          DEM Railroad Commissioner                               UNDER VOTES                           Precinct 1, Voting Box 1                               01 
00110040002000000000000000000000000000000000000000000000000000000000000000000000000000000000000000000          DEM Railroad Commissioner                               UNDER VOTES                           Precinct 2, Voting Box 2                               01 
00110040003000000000000000000000000000000000000000000000000000000000000000000000000000000000000000000          DEM Railroad Commissioner                               UNDER VOTES                           Precinct 3, Voting Box 3                               01 
00110040004000000000000000000000000000000000000000000000000000000000000000000000000000000000000000000          DEM Railroad Commissioner                               UNDER VOTES                           Precinct 4, Voting Box 4                               01 
00110040005000000000000000000000000000000000000000000000000000000000000000000000000000000000000000000          DEM Railroad Commissioner                               UNDER VOTES                           Precinct 1, Voting Box 5                               01 
00110040006000000000000000000000000000000000000000000000000000000000000000000000000000000000000000000          DEM Railroad Commissioner                               UNDER VOTES                           Precinct 2, Voting Box 6                               01 
