00000000022000000000000000000000000000000000000000000000000000000000000000000000000000000000000000000000000000000000002200000000000000000PRECINCTS COUNTED - TOTAL                               PRECINCTS COUNTED - TOTAL                                      00 
0001001002200293340000000000000000000000000000000000000000000000000000000000000000000000000000000000000000000000000000220029334          REGISTERED VOTERS - TOTAL                               REGISTERED VOTERS - TOTAL                                      00 
000200100220014512000038100083970005734000000000000000000000000000000000000000000000000000000000000000000000000000000022022022           BALLOTS CAST - TOTAL                                    BALLOTS CAST - TOTAL                                           00 
000300100220000004000000000000010000003000000000000000000000000000000000000000000000000000000000000000000000000000000022022022           BALLOTS CAST - BLANK                                    BALLOTS CAST - BLANK                                           00 
000400100220011979000017500069110004893000000000000000000000000000000000000000000000000000000000000000000000000000000022022022 REP       U.S. Representative, District 6                         REP Jake Ellzey                                                01 
000500100220011762000017400067660004822000000000000000000000000000000000000000000000000000000000000000000000000000000022022022 REP       Governor                                                REP Greg Abbott                                                01 
000500200220002545000020200015150000828000000000000000000000000000000000000000000000000000000000000000000000000000000022022022 DEM       Governor                                                DEM Beto O'Rourke                                              01 
000500300220000105000000100000590000045000000000000000000000000000000000000000000000000000000000000000000000000000000022022022 LIB       Governor                                                LIB Mark Tippetts                                              01 
000500400220000033000000100000170000015000000000000000000000000000000000000000000000000000000000000000000000000000000022022022 GRN       Governor                                                GRN Delilah Barrios                                            01 
000600100220011501000016300066100004728000000000000000000000000000000000000000000000000000000000000000000000000000000022022022 REP       Lieutenant Governor                                     REP Dan Patrick                                                01 
000600200220002605000020500015560000844000000000000000000000000000000000000000000000000000000000000000000000000000000022022022 DEM       Lieutenant Governor                                     DEM Mike Collier                                               01 
000600300220000242000000600001330000103000000000000000000000000000000000000000000000000000000000000000000000000000000022022022 LIB       Lieutenant Governor                                     LIB Shanna Steele                                              01 
000700100220011509000016600065980004745000000000000000000000000000000000000000000000000000000000000000000000000000000022022022 REP       Attorney General                                        REP Ken Paxton                                                 01 
000700200220002517000020300015210000793000000000000000000000000000000000000000000000000000000000000000000000000000000022022022 DEM       Attorney General                                        DEM Rochelle Mercedes Garza                                    01 
000700300220000295000000500001740000116000000000000000000000000000000000000000000000000000000000000000000000000000000022022022 LIB       Attorney General                                        LIB Mark Ash                                                   01 
000800100220011596000016800066750004753000000000000000000000000000000000000000000000000000000000000000000000000000000022022022 REP       Comptroller of Public Accounts                          REP Glenn Hegar                                                01 
000800200220002428000019800014580000772000000000000000000000000000000000000000000000000000000000000000000000000000000022022022 DEM       Comptroller of Public Accounts                          DEM Janet T. Dudding                                           01 
000800300220000207000000400001220000081000000000000000000000000000000000000000000000000000000000000000000000000000000022022022 LIB       Comptroller of Public Accounts                          LIB V. Alonzo Echevarria-Garza                                 01 
000900100220011586000016600066720004748000000000000000000000000000000000000000000000000000000000000000000000000000000022022022 REP       Comm. General Land Office                               REP Dawn Buckingham                                            01 
000900200220002505000019800015060000801000000000000000000000000000000000000000000000000000000000000000000000000000000022022022 DEM       Comm. General Land Office                               DEM Jay Kleberg                                                01 
000900300220000112000000300000620000047000000000000000000000000000000000000000000000000000000000000000000000000000000022022022 GRN       Comm. General Land Office                               GRN Alfred Molison, Jr.                                        01 
001000100220011629000016600066790004784000000000000000000000000000000000000000000000000000000000000000000000000000000022022022 REP       Commissioner of Agriculture                             REP Sid Miller                                                 01 
001000200220002594000020600015500000838000000000000000000000000000000000000000000000000000000000000000000000000000000022022022 DEM       Commissioner of Agriculture                             DEM Susan Hays                                                 01 
001100100220011499000016400066100004725000000000000000000000000000000000000000000000000000000000000000000000000000000022022022 REP       Railroad Commissioner                                   REP Wayne Christian                                            01 
001100200220002375000020200014350000738000000000000000000000000000000000000000000000000000000000000000000000000000000022022022 DEM       Railroad Commissioner                                   DEM Luke Warford                                               01 
001100300220000246000000200001410000103000000000000000000000000000000000000000000000000000000000000000000000000000000022022022 LIB       Railroad Commissioner                                   LIB Jaime Andres Diez                                          01 
001100400220000096000000200000460000048000000000000000000000000000000000000000000000000000000000000000000000000000000022022022 GRN       Railroad Commissioner                                   GRN Hunter Wayne Crow                                          01 
001200100220011586000016600066600004760000000000000000000000000000000000000000000000000000000000000000000000000000000022022022 REP       Justice, Supreme Ct. Pl. 3                              REP Debra Lehrmann                                             01 
001200200220002436000020100014640000771000000000000000000000000000000000000000000000000000000000000000000000000000000022022022 DEM       Justice, Supreme Ct. Pl. 3                              DEM Erin A. Nowell                                             01 
001200300220000208000000200001180000088000000000000000000000000000000000000000000000000000000000000000000000000000000022022022 LIB       Justice, Supreme Ct. Pl. 3                              LIB Thomas Edward Oxford                                       01 
001300100220011684000016500067160004803000000000000000000000000000000000000000000000000000000000000000000000000000000022022022 REP       Justice, Supreme Ct. Pl. 5                              REP Rebeca Huddle                                              01 
001300200220002512000020400015010000807000000000000000000000000000000000000000000000000000000000000000000000000000000022022022 DEM       Justice, Supreme Ct. Pl. 5                              DEM Amanda Reichek                                             01 
001400100220011625000016600066780004781000000000000000000000000000000000000000000000000000000000000000000000000000000022022022 REP       Justice, Supreme Ct. Pl. 9                              REP Evan Young                                                 01 
001400200220002535000019800015130000824000000000000000000000000000000000000000000000000000000000000000000000000000000022022022 DEM       Justice, Supreme Ct. Pl. 9                              DEM Julia Maldonado                                            01 
001500100220011615000016700066770004771000000000000000000000000000000000000000000000000000000000000000000000000000000022022022 REP       Judge, Ct of Crim. Appeals, Pl 5                        REP Scott Walker                                               01 
001500200220002562000020000015260000836000000000000000000000000000000000000000000000000000000000000000000000000000000022022022 DEM       Judge, Ct of Crim. Appeals, Pl 5                        DEM Dana Huffman                                               01 
001600100220011456000016300065960004697000000000000000000000000000000000000000000000000000000000000000000000000000000022022022 REP       Judge, Ct of Crim. Appeals, Pl 6                        REP Jesse F. McClure, III                                      01 
001600200220002690000020500015910000894000000000000000000000000000000000000000000000000000000000000000000000000000000022022022 DEM       Judge, Ct of Crim. Appeals, Pl 6                        DEM Robert Johnson                                             01 
001700100220011662000017100067100004781000000000000000000000000000000000000000000000000000000000000000000000000000000022022022 REP       State Senator, District 3                               REP Robert Nichols                                             01 
001700200220002369000019800014110000760000000000000000000000000000000000000000000000000000000000000000000000000000000022022022 DEM       State Senator, District 3                               DEM Steve Russell                                              01 
001700300220000229000000400001260000099000000000000000000000000000000000000000000000000000000000000000000000000000000022022022 LIB       State Senator, District 3                               LIB Desarae Lindsey                                            01 
001800100220012069000019400069470004928000000000000000000000000000000000000000000000000000000000000000000000000000000022022022 REP       State Representative, District 8                        REP Cody Harris                                                01 
001800200220001586000010200009520000532000000000000000000000000000000000000000000000000000000000000000000000000000000022022022 LIB       State Representative, District 8                        LIB R. Edwin Adams                                             01 
001900100060001254000003100007050000518000000000000000000000000000000000000000000000000000000000000000000000000000000006006006 REPCOM002 County Commissioner. Pct. 2                             REP David Braun                       Precinct 2               01 
001900200060001456000011600008270000513000000000000000000000000000000000000000000000000000000000000000000000000000000006006006 DEMCOM002 County Commissioner. Pct. 2                             DEM Rashad Q. Mims I                  Precinct 2               01 
002000100060001740000003500009710000734000000000000000000000000000000000000000000000000000000000000000000000000000000006006006 REPJOP002 Justice of the Peace, Pct. 2                            REP Tammy Lightfoot                   Precinct 2               01 
002000200060000989000010800005770000304000000000000000000000000000000000000000000000000000000000000000000000000000000006006006 DEMJOP002 Justice of the Peace, Pct. 2                            DEM Karen D. Taylor                   Precinct 2               01 
002100100050003102000003900019110001152000000000000000000000000000000000000000000000000000000000000000000000000000000005005005 REPJOP004 Justice of the Peace, Pct. 4                            REP James W. Westley                  Precinct 4               01 
002100200050000543000002100003480000174000000000000000000000000000000000000000000000000000000000000000000000000000000005005005 DEMJOP004 Justice of the Peace, Pct. 4                            DEM Kathleen Caston                   Precinct 4               01 
002200100030000228000000100001820000045000000000000000000000000000000000000000000000000000000000000000000000000000000003003003 NONCITPALSMember City Council, Dist. 6 City of Palestine          Langdon Elliott                       City of Palestine        01 
002200200030000196000000200001120000082000000000000000000000000000000000000000000000000000000000000000000000000000000003003003 NONCITPALSMember City Council, Dist. 6 City of Palestine          Christopher Gibbs                     City of Palestine        01 
002200300030000192000000900001200000063000000000000000000000000000000000000000000000000000000000000000000000000000000003003003 NONCITPALSMember City Council, Dist. 6 City of Palestine          Mary Cox                              City of Palestine        01 
002300100040000642000000400003060000332000000000000000000000000000000000000000000000000000000000000000000000000000000004004004 NONISDCISDTrustee, Position Two Cayuga ISD                        David Link                            Cayuga ISD               01 
002300200040000289000000800001270000154000000000000000000000000000000000000000000000000000000000000000000000000000000004004004 NONISDCISDTrustee, Position Two Cayuga ISD                        Larry Fox                             Cayuga ISD               01 
002400100040000590000001000002710000309000000000000000000000000000000000000000000000000000000000000000000000000000000004004004 NONISDCISDTrustee, Position Three Cayuga ISD                      Clint Satterwhite                     Cayuga ISD               01 
002400200040000352000000300001640000185000000000000000000000000000000000000000000000000000000000000000000000000000000004004004 NONISDCISDTrustee, Position Three Cayuga ISD                      Josh Hinshaw                          Cayuga ISD               01 
002500100040000638000000600002940000338000000000000000000000000000000000000000000000000000000000000000000000000000000004004004 NONISDCISDTrustee, Position Four Cayuga ISD                       Tim West                              Cayuga ISD               01 
002500200040000339000000900001600000170000000000000000000000000000000000000000000000000000000000000000000000000000000004004004 NONISDCISDTrustee, Position Four Cayuga ISD                       Mary Costlow Walker                   Cayuga ISD               01 
002600100040000878000001000004070000461000000000000000000000000000000000000000000000000000000000000000000000000000000004004004 NONISDCISDTrustee, Position Five Cayuga ISD                       Daniel Sims                           Cayuga ISD               01 
002700100020000190000000400000710000115000000000000000000000000000000000000000000000000000000000000000000000000000000002002002 NONISDLISDPlace 1 Trustee LaPoyner ISD                            Bryan Forester                        LaPoyner ISD             01 
002700200020000046000000100000160000029000000000000000000000000000000000000000000000000000000000000000000000000000000002002002 NONISDLISDPlace 1 Trustee LaPoyner ISD                            Rebekah Church                        LaPoyner ISD             01 
002800100020000124000000100000390000084000000000000000000000000000000000000000000000000000000000000000000000000000000002002002 NONISDLISDPlace 2 Trustee LaPoyner ISD                            Ronny Crawford                        LaPoyner ISD             01 
002800200020000105000000400000420000059000000000000000000000000000000000000000000000000000000000000000000000000000000002002002 NONISDLISDPlace 2 Trustee LaPoyner ISD                            John Kinabrew                         LaPoyner ISD             01 
002900100020000071000000300000270000041000000000000000000000000000000000000000000000000000000000000000000000000000000002002002 NONISDLISDPlace 4 Trustee LaPoyner ISD                            Mander Clark                          LaPoyner ISD             01 
002900200020000151000000300000520000096000000000000000000000000000000000000000000000000000000000000000000000000000000002002002 NONISDLISDPlace 4 Trustee LaPoyner ISD                            Jacob Haynes                          LaPoyner ISD             01 
003000100020000115000000200000430000070000000000000000000000000000000000000000000000000000000000000000000000000000000002002002 NONISDLISDPlace 5 Trustee LaPoyner ISD                            Joe Ed Young                          LaPoyner ISD             01 
003000200020000103000000300000370000063000000000000000000000000000000000000000000000000000000000000000000000000000000002002002 NONISDLISDPlace 5 Trustee LaPoyner ISD                            Brandon Burnett                       LaPoyner ISD             01 
003100100040000455000000500002380000212000000000000000000000000000000000000000000000000000000000000000000000000000000004004004 NONISDNISDTrustee, Place 1 Neches ISD                             Amanda Kincade                        Neches ISD               01 
003200100040000456000000400002370000215000000000000000000000000000000000000000000000000000000000000000000000000000000004004004 NONISDNISDTrustee, Place 2 Neches ISD                             Jonathan Gordon                       Neches ISD               01 
003300100040000280000000100001300000149000000000000000000000000000000000000000000000000000000000000000000000000000000004004004 NONISDNISDTrustee, Place 3 Neches ISD                             Tommy Stewart                         Neches ISD               01 
003300200040000274000000500001530000116000000000000000000000000000000000000000000000000000000000000000000000000000000004004004 NONISDNISDTrustee, Place 3 Neches ISD                             Kaitlin Scroggins                     Neches ISD               01 
003400100050000562000000900002630000290000000000000000000000000000000000000000000000000000000000000000000000000000000005005005 NONISDSISDTrustee Place 3 Slocum ISD                              Ben Missildine                        Slocum ISD               01 
003400200050000214000000700001170000090000000000000000000000000000000000000000000000000000000000000000000000000000000005005005 NONISDSISDTrustee Place 3 Slocum ISD                              Karen Abernathy                       Slocum ISD               01 
003500100050000701000001100003420000348000000000000000000000000000000000000000000000000000000000000000000000000000000005005005 NONISDSISDTrustee Place 4 Slocum ISD                              Roger Jones                           Slocum ISD               01 
003600100050000444000000900002190000216000000000000000000000000000000000000000000000000000000000000000000000000000000005005005 NONISDSISDTrustee Place 5 Slocum ISD                              Daniel Bailey                         Slocum ISD               01 
003600200050000310000000600001450000159000000000000000000000000000000000000000000000000000000000000000000000000000000005005005 NONISDSISDTrustee Place 5 Slocum ISD                              Steve Mock                            Slocum ISD               01 
