00010010001001834000000000000000000000000000000000000000000000000000000000000000000000000000000000000          REGISTERED VOTERS - TOTAL                               REGISTERED VOTERS - TOTAL             Voting Box 1-Pal High                                  00 
00010010002002688000000000000000000000000000000000000000000000000000000000000000000000000000000000000          REGISTERED VOTERS - TOTAL                               REGISTERED VOTERS - TOTAL             Voting Box 2-Elk 1st Bapt.                             00 
00010010003001229000000000000000000000000000000000000000000000000000000000000000000000000000000000000          REGISTERED VOTERS - TOTAL                               REGISTERED VOTERS - TOTAL             Voting Box 3-Swanson Hill                              00 
00010010004001591000000000000000000000000000000000000000000000000000000000000000000000000000000000000          REGISTERED VOTERS - TOTAL                               REGISTERED VOTERS - TOTAL             Voting Box 4-Slocum 1st Bapt.                          00 
00010010005000286000000000000000000000000000000000000000000000000000000000000000000000000000000000000          REGISTERED VOTERS - TOTAL                               REGISTERED VOTERS - TOTAL             Voting Box 5-VFD Slocum#2                              00 
00010010006001460000000000000000000000000000000000000000000000000000000000000000000000000000000000000          REGISTERED VOTERS - TOTAL                               REGISTERED VOTERS - TOTAL             Voting Box 6-New Christian                             00 
00010010007001349000000000000000000000000000000000000000000000000000000000000000000000000000000000000          REGISTERED VOTERS - TOTAL                               REGISTERED VOTERS - TOTAL             Voting Box 7-Washington                                00 
00010010008000365000000000000000000000000000000000000000000000000000000000000000000000000000000000000          REGISTERED VOTERS - TOTAL                               REGISTERED VOTERS - TOTAL             Voting Box 8-Antioch                                   00 
00010010009001405000000000000000000000000000000000000000000000000000000000000000000000000000000000000          REGISTERED VOTERS - TOTAL                               REGISTERED VOTERS - TOTAL             Voting Box 9-Tucker                                    00 
00010010010000592000000000000000000000000000000000000000000000000000000000000000000000000000000000000          REGISTERED VOTERS - TOTAL                               REGISTERED VOTERS - TOTAL             Voting Box 10-Harmony                                  00 
00010010011001278000000000000000000000000000000000000000000000000000000000000000000000000000000000000          REGISTERED VOTERS - TOTAL                               REGISTERED VOTERS - TOTAL             Voting Box 11-Tenn Colony                              00 
00010010012001839000000000000000000000000000000000000000000000000000000000000000000000000000000000000          REGISTERED VOTERS - TOTAL                               REGISTERED VOTERS - TOTAL             Voting Box 13-PISD Admin                               00 
00010010013000923000000000000000000000000000000000000000000000000000000000000000000000000000000000000          REGISTERED VOTERS - TOTAL                               REGISTERED VOTERS - TOTAL             Voting Box 15-Engledow                                 00 
00010010014000912000000000000000000000000000000000000000000000000000000000000000000000000000000000000          REGISTERED VOTERS - TOTAL                               REGISTERED VOTERS - TOTAL             Voting Box 16-Neches 1st Bapt.                         00 
00010010015000840000000000000000000000000000000000000000000000000000000000000000000000000000000000000          REGISTERED VOTERS - TOTAL                               REGISTERED VOTERS - TOTAL             Voting Box 17-DAV                                      00 
00010010016002139000000000000000000000000000000000000000000000000000000000000000000000000000000000000          REGISTERED VOTERS - TOTAL                               REGISTERED VOTERS - TOTAL             Voting Box 18-Frankston                                00 
00010010017002321000000000000000000000000000000000000000000000000000000000000000000000000000000000000          REGISTERED VOTERS - TOTAL                               REGISTERED VOTERS - TOTAL             Voting Box 19-Westwood Baptist                         00 
00010010018001173000000000000000000000000000000000000000000000000000000000000000000000000000000000000          REGISTERED VOTERS - TOTAL                               REGISTERED VOTERS - TOTAL             Voting Box 20-Freedom Fellowsh                         00 
00010010019001875000000000000000000000000000000000000000000000000000000000000000000000000000000000000          REGISTERED VOTERS - TOTAL                               REGISTERED VOTERS - TOTAL             Voting Box 21-Civic Center                             00 
00010010020001043000000000000000000000000000000000000000000000000000000000000000000000000000000000000          REGISTERED VOTERS - TOTAL                               REGISTERED VOTERS - TOTAL             Voting Box 22-Montalba                                 00 
00010010021001309000000000000000000000000000000000000000000000000000000000000000000000000000000000000          REGISTERED VOTERS - TOTAL                               REGISTERED VOTERS - TOTAL             Voting Box 23-Pisgah                                   00 
00010010022000883000000000000000000000000000000000000000000000000000000000000000000000000000000000000          REGISTERED VOTERS - TOTAL                               REGISTERED VOTERS - TOTAL             Voting Box 24-Cayuga                                   00 
00020010001000828000022000567000239000000000000000000000000000000000000000000000000000000000000000000          BALLOTS CAST - TOTAL                                    BALLOTS CAST - TOTAL                  Voting Box 1-Pal High                                  00 
00020010002001317000022000717000578000000000000000000000000000000000000000000000000000000000000000000          BALLOTS CAST - TOTAL                                    BALLOTS CAST - TOTAL                  Voting Box 2-Elk 1st Bapt.                             00 
00020010003000658000017000458000183000000000000000000000000000000000000000000000000000000000000000000          BALLOTS CAST - TOTAL                                    BALLOTS CAST - TOTAL                  Voting Box 3-Swanson Hill                              00 
00020010004000884000022000475000387000000000000000000000000000000000000000000000000000000000000000000          BALLOTS CAST - TOTAL                                    BALLOTS CAST - TOTAL                  Voting Box 4-Slocum 1st Bapt.                          00 
00020010005000173000002000084000087000000000000000000000000000000000000000000000000000000000000000000          BALLOTS CAST - TOTAL                                    BALLOTS CAST - TOTAL                  Voting Box 5-VFD Slocum#2                              00 
00020010006000576000055000363000158000000000000000000000000000000000000000000000000000000000000000000          BALLOTS CAST - TOTAL                                    BALLOTS CAST - TOTAL                  Voting Box 6-New Christian                             00 
00020010007000391000046000244000101000000000000000000000000000000000000000000000000000000000000000000          BALLOTS CAST - TOTAL                                    BALLOTS CAST - TOTAL                  Voting Box 7-Washington                                00 
00020010008000141000013000083000045000000000000000000000000000000000000000000000000000000000000000000          BALLOTS CAST - TOTAL                                    BALLOTS CAST - TOTAL                  Voting Box 8-Antioch                                   00 
00020010009000699000019000434000246000000000000000000000000000000000000000000000000000000000000000000          BALLOTS CAST - TOTAL                                    BALLOTS CAST - TOTAL                  Voting Box 9-Tucker                                    00 
00020010010000278000002000154000122000000000000000000000000000000000000000000000000000000000000000000          BALLOTS CAST - TOTAL                                    BALLOTS CAST - TOTAL                  Voting Box 10-Harmony                                  00 
00020010011000674000016000279000379000000000000000000000000000000000000000000000000000000000000000000          BALLOTS CAST - TOTAL                                    BALLOTS CAST - TOTAL                  Voting Box 11-Tenn Colony                              00 
00020010012000788000022000527000239000000000000000000000000000000000000000000000000000000000000000000          BALLOTS CAST - TOTAL                                    BALLOTS CAST - TOTAL                  Voting Box 13-PISD Admin                               00 
00020010013000532000008000347000177000000000000000000000000000000000000000000000000000000000000000000          BALLOTS CAST - TOTAL                                    BALLOTS CAST - TOTAL                  Voting Box 15-Engledow                                 00 
00020010014000530000008000269000253000000000000000000000000000000000000000000000000000000000000000000          BALLOTS CAST - TOTAL                                    BALLOTS CAST - TOTAL                  Voting Box 16-Neches 1st Bapt.                         00 
00020010015000436000008000282000146000000000000000000000000000000000000000000000000000000000000000000          BALLOTS CAST - TOTAL                                    BALLOTS CAST - TOTAL                  Voting Box 17-DAV                                      00 
00020010016001091000027000395000669000000000000000000000000000000000000000000000000000000000000000000          BALLOTS CAST - TOTAL                                    BALLOTS CAST - TOTAL                  Voting Box 18-Frankston                                00 
00020010017001012000011000632000369000000000000000000000000000000000000000000000000000000000000000000          BALLOTS CAST - TOTAL                                    BALLOTS CAST - TOTAL                  Voting Box 19-Westwood Baptist                         00 
00020010018000568000013000406000149000000000000000000000000000000000000000000000000000000000000000000          BALLOTS CAST - TOTAL                                    BALLOTS CAST - TOTAL                  Voting Box 20-Freedom Fellowsh                         00 
00020010019000947000018000644000285000000000000000000000000000000000000000000000000000000000000000000          BALLOTS CAST - TOTAL                                    BALLOTS CAST - TOTAL                  Voting Box 21-Civic Center                             00 
00020010020000660000010000347000303000000000000000000000000000000000000000000000000000000000000000000          BALLOTS CAST - TOTAL                                    BALLOTS CAST - TOTAL                  Voting Box 22-Montalba                                 00 
00020010021000801000012000413000376000000000000000000000000000000000000000000000000000000000000000000          BALLOTS CAST - TOTAL                                    BALLOTS CAST - TOTAL                  Voting Box 23-Pisgah                                   00 
00020010022000528000008000277000243000000000000000000000000000000000000000000000000000000000000000000          BALLOTS CAST - TOTAL                                    BALLOTS CAST - TOTAL                  Voting Box 24-Cayuga                                   00 
00030010001000000000000000000000000000000000000000000000000000000000000000000000000000000000000000000          BALLOTS CAST - BLANK                                    BALLOTS CAST - BLANK                  Voting Box 1-Pal High                                  00 
00030010002000000000000000000000000000000000000000000000000000000000000000000000000000000000000000000          BALLOTS CAST - BLANK                                    BALLOTS CAST - BLANK                  Voting Box 2-Elk 1st Bapt.                             00 
00030010003000000000000000000000000000000000000000000000000000000000000000000000000000000000000000000          BALLOTS CAST - BLANK                                    BALLOTS CAST - BLANK                  Voting Box 3-Swanson Hill                              00 
00030010004000000000000000000000000000000000000000000000000000000000000000000000000000000000000000000          BALLOTS CAST - BLANK                                    BALLOTS CAST - BLANK                  Voting Box 4-Slocum 1st Bapt.                          00 
00030010005000000000000000000000000000000000000000000000000000000000000000000000000000000000000000000          BALLOTS CAST - BLANK                                    BALLOTS CAST - BLANK                  Voting Box 5-VFD Slocum#2                              00 
00030010006000000000000000000000000000000000000000000000000000000000000000000000000000000000000000000          BALLOTS CAST - BLANK                                    BALLOTS CAST - BLANK                  Voting Box 6-New Christian                             00 
00030010007000000000000000000000000000000000000000000000000000000000000000000000000000000000000000000          BALLOTS CAST - BLANK                                    BALLOTS CAST - BLANK                  Voting Box 7-Washington                                00 
00030010008000000000000000000000000000000000000000000000000000000000000000000000000000000000000000000          BALLOTS CAST - BLANK                                    BALLOTS CAST - BLANK                  Voting Box 8-Antioch                                   00 
00030010009000000000000000000000000000000000000000000000000000000000000000000000000000000000000000000          BALLOTS CAST - BLANK                                    BALLOTS CAST - BLANK                  Voting Box 9-Tucker                                    00 
00030010010000000000000000000000000000000000000000000000000000000000000000000000000000000000000000000          BALLOTS CAST - BLANK                                    BALLOTS CAST - BLANK                  Voting Box 10-Harmony                                  00 
00030010011000000000000000000000000000000000000000000000000000000000000000000000000000000000000000000          BALLOTS CAST - BLANK                                    BALLOTS CAST - BLANK                  Voting Box 11-Tenn Colony                              00 
00030010012000000000000000000000000000000000000000000000000000000000000000000000000000000000000000000          BALLOTS CAST - BLANK                                    BALLOTS CAST - BLANK                  Voting Box 13-PISD Admin                               00 
00030010013000000000000000000000000000000000000000000000000000000000000000000000000000000000000000000          BALLOTS CAST - BLANK                                    BALLOTS CAST - BLANK                  Voting Box 15-Engledow                                 00 
00030010014000000000000000000000000000000000000000000000000000000000000000000000000000000000000000000          BALLOTS CAST - BLANK                                    BALLOTS CAST - BLANK                  Voting Box 16-Neches 1st Bapt.                         00 
00030010015000000000000000000000000000000000000000000000000000000000000000000000000000000000000000000          BALLOTS CAST - BLANK                                    BALLOTS CAST - BLANK                  Voting Box 17-DAV                                      00 
00030010016000002000000000000000002000000000000000000000000000000000000000000000000000000000000000000          BALLOTS CAST - BLANK                                    BALLOTS CAST - BLANK                  Voting Box 18-Frankston                                00 
00030010017000001000000000000000001000000000000000000000000000000000000000000000000000000000000000000          BALLOTS CAST - BLANK                                    BALLOTS CAST - BLANK                  Voting Box 19-Westwood Baptist                         00 
00030010018000001000000000001000000000000000000000000000000000000000000000000000000000000000000000000          BALLOTS CAST - BLANK                                    BALLOTS CAST - BLANK                  Voting Box 20-Freedom Fellowsh                         00 
00030010019000000000000000000000000000000000000000000000000000000000000000000000000000000000000000000          BALLOTS CAST - BLANK                                    BALLOTS CAST - BLANK                  Voting Box 21-Civic Center                             00 
00030010020000000000000000000000000000000000000000000000000000000000000000000000000000000000000000000          BALLOTS CAST - BLANK                                    BALLOTS CAST - BLANK                  Voting Box 22-Montalba                                 00 
00030010021000000000000000000000000000000000000000000000000000000000000000000000000000000000000000000          BALLOTS CAST - BLANK                                    BALLOTS CAST - BLANK                  Voting Box 23-Pisgah                                   00 
00030010022000000000000000000000000000000000000000000000000000000000000000000000000000000000000000000          BALLOTS CAST - BLANK                                    BALLOTS CAST - BLANK                  Voting Box 24-Cayuga                                   00 
00040010001000656000017000459000180000000000000000000000000000000000000000000000000000000000000000000REP       U.S. Representative, District 6                         REP Jake Ellzey                       Voting Box 1-Pal High                                  01 
00040010002001162000010000625000527000000000000000000000000000000000000000000000000000000000000000000REP       U.S. Representative, District 6                         REP Jake Ellzey                       Voting Box 2-Elk 1st Bapt.                             01 
00040010003000578000012000397000169000000000000000000000000000000000000000000000000000000000000000000REP       U.S. Representative, District 6                         REP Jake Ellzey                       Voting Box 3-Swanson Hill                              01 
00040010004000789000008000428000353000000000000000000000000000000000000000000000000000000000000000000REP       U.S. Representative, District 6                         REP Jake Ellzey                       Voting Box 4-Slocum 1st Bapt.                          01 
00040010005000156000000000079000077000000000000000000000000000000000000000000000000000000000000000000REP       U.S. Representative, District 6                         REP Jake Ellzey                       Voting Box 5-VFD Slocum#2                              01 
00040010006000351000013000233000105000000000000000000000000000000000000000000000000000000000000000000REP       U.S. Representative, District 6                         REP Jake Ellzey                       Voting Box 6-New Christian                             01 
00040010007000159000010000111000038000000000000000000000000000000000000000000000000000000000000000000REP       U.S. Representative, District 6                         REP Jake Ellzey                       Voting Box 7-Washington                                01 
00040010008000074000003000046000025000000000000000000000000000000000000000000000000000000000000000000REP       U.S. Representative, District 6                         REP Jake Ellzey                       Voting Box 8-Antioch                                   01 
00040010009000596000012000373000211000000000000000000000000000000000000000000000000000000000000000000REP       U.S. Representative, District 6                         REP Jake Ellzey                       Voting Box 9-Tucker                                    01 
00040010010000247000001000134000112000000000000000000000000000000000000000000000000000000000000000000REP       U.S. Representative, District 6                         REP Jake Ellzey                       Voting Box 10-Harmony                                  01 
00040010011000544000007000214000323000000000000000000000000000000000000000000000000000000000000000000REP       U.S. Representative, District 6                         REP Jake Ellzey                       Voting Box 11-Tenn Colony                              01 
00040010012000612000012000406000194000000000000000000000000000000000000000000000000000000000000000000REP       U.S. Representative, District 6                         REP Jake Ellzey                       Voting Box 13-PISD Admin                               01 
00040010013000472000007000302000163000000000000000000000000000000000000000000000000000000000000000000REP       U.S. Representative, District 6                         REP Jake Ellzey                       Voting Box 15-Engledow                                 01 
00040010014000431000002000215000214000000000000000000000000000000000000000000000000000000000000000000REP       U.S. Representative, District 6                         REP Jake Ellzey                       Voting Box 16-Neches 1st Bapt.                         01 
00040010015000364000004000229000131000000000000000000000000000000000000000000000000000000000000000000REP       U.S. Representative, District 6                         REP Jake Ellzey                       Voting Box 17-DAV                                      01 
00040010016000917000009000335000573000000000000000000000000000000000000000000000000000000000000000000REP       U.S. Representative, District 6                         REP Jake Ellzey                       Voting Box 18-Frankston                                01 
00040010017000829000006000518000305000000000000000000000000000000000000000000000000000000000000000000REP       U.S. Representative, District 6                         REP Jake Ellzey                       Voting Box 19-Westwood Baptist                         01 
00040010018000453000007000332000114000000000000000000000000000000000000000000000000000000000000000000REP       U.S. Representative, District 6                         REP Jake Ellzey                       Voting Box 20-Freedom Fellowsh                         01 
00040010019000835000013000573000249000000000000000000000000000000000000000000000000000000000000000000REP       U.S. Representative, District 6                         REP Jake Ellzey                       Voting Box 21-Civic Center                             01 
00040010020000575000009000299000267000000000000000000000000000000000000000000000000000000000000000000REP       U.S. Representative, District 6                         REP Jake Ellzey                       Voting Box 22-Montalba                                 01 
00040010021000707000008000361000338000000000000000000000000000000000000000000000000000000000000000000REP       U.S. Representative, District 6                         REP Jake Ellzey                       Voting Box 23-Pisgah                                   01 
00040010022000472000005000242000225000000000000000000000000000000000000000000000000000000000000000000REP       U.S. Representative, District 6                         REP Jake Ellzey                       Voting Box 24-Cayuga                                   01 
00050010001000610000012000444000154000000000000000000000000000000000000000000000000000000000000000000REP       Governor                                                REP Greg Abbott                       Voting Box 1-Pal High                                  01 
00050010002001165000011000627000527000000000000000000000000000000000000000000000000000000000000000000REP       Governor                                                REP Greg Abbott                       Voting Box 2-Elk 1st Bapt.                             01 
00050010003000573000012000398000163000000000000000000000000000000000000000000000000000000000000000000REP       Governor                                                REP Greg Abbott                       Voting Box 3-Swanson Hill                              01 
00050010004000808000012000429000367000000000000000000000000000000000000000000000000000000000000000000REP       Governor                                                REP Greg Abbott                       Voting Box 4-Slocum 1st Bapt.                          01 
00050010005000163000000000082000081000000000000000000000000000000000000000000000000000000000000000000REP       Governor                                                REP Greg Abbott                       Voting Box 5-VFD Slocum#2                              01 
00050010006000288000011000198000079000000000000000000000000000000000000000000000000000000000000000000REP       Governor                                                REP Greg Abbott                       Voting Box 6-New Christian                             01 
00050010007000091000003000065000023000000000000000000000000000000000000000000000000000000000000000000REP       Governor                                                REP Greg Abbott                       Voting Box 7-Washington                                01 
00050010008000059000002000038000019000000000000000000000000000000000000000000000000000000000000000000REP       Governor                                                REP Greg Abbott                       Voting Box 8-Antioch                                   01 
00050010009000582000014000359000209000000000000000000000000000000000000000000000000000000000000000000REP       Governor                                                REP Greg Abbott                       Voting Box 9-Tucker                                    01 
00050010010000252000002000136000114000000000000000000000000000000000000000000000000000000000000000000REP       Governor                                                REP Greg Abbott                       Voting Box 10-Harmony                                  01 
00050010011000533000009000208000316000000000000000000000000000000000000000000000000000000000000000000REP       Governor                                                REP Greg Abbott                       Voting Box 11-Tenn Colony                              01 
00050010012000584000009000396000179000000000000000000000000000000000000000000000000000000000000000000REP       Governor                                                REP Greg Abbott                       Voting Box 13-PISD Admin                               01 
00050010013000472000007000303000162000000000000000000000000000000000000000000000000000000000000000000REP       Governor                                                REP Greg Abbott                       Voting Box 15-Engledow                                 01 
00050010014000431000003000213000215000000000000000000000000000000000000000000000000000000000000000000REP       Governor                                                REP Greg Abbott                       Voting Box 16-Neches 1st Bapt.                         01 
00050010015000358000005000233000120000000000000000000000000000000000000000000000000000000000000000000REP       Governor                                                REP Greg Abbott                       Voting Box 17-DAV                                      01 
00050010016000948000013000337000598000000000000000000000000000000000000000000000000000000000000000000REP       Governor                                                REP Greg Abbott                       Voting Box 18-Frankston                                01 
00050010017000780000007000493000280000000000000000000000000000000000000000000000000000000000000000000REP       Governor                                                REP Greg Abbott                       Voting Box 19-Westwood Baptist                         01 
00050010018000438000009000318000111000000000000000000000000000000000000000000000000000000000000000000REP       Governor                                                REP Greg Abbott                       Voting Box 20-Freedom Fellowsh                         01 
00050010019000834000013000572000249000000000000000000000000000000000000000000000000000000000000000000REP       Governor                                                REP Greg Abbott                       Voting Box 21-Civic Center                             01 
00050010020000570000007000291000272000000000000000000000000000000000000000000000000000000000000000000REP       Governor                                                REP Greg Abbott                       Voting Box 22-Montalba                                 01 
00050010021000733000007000376000350000000000000000000000000000000000000000000000000000000000000000000REP       Governor                                                REP Greg Abbott                       Voting Box 23-Pisgah                                   01 
00050010022000490000006000250000234000000000000000000000000000000000000000000000000000000000000000000REP       Governor                                                REP Greg Abbott                       Voting Box 24-Cayuga                                   01 
00050020001000204000010000115000079000000000000000000000000000000000000000000000000000000000000000000DEM       Governor                                                DEM Beto O'Rourke                     Voting Box 1-Pal High                                  01 
00050020002000135000011000082000042000000000000000000000000000000000000000000000000000000000000000000DEM       Governor                                                DEM Beto O'Rourke                     Voting Box 2-Elk 1st Bapt.                             01 
00050020003000073000005000052000016000000000000000000000000000000000000000000000000000000000000000000DEM       Governor                                                DEM Beto O'Rourke                     Voting Box 3-Swanson Hill                              01 
00050020004000068000010000043000015000000000000000000000000000000000000000000000000000000000000000000DEM       Governor                                                DEM Beto O'Rourke                     Voting Box 4-Slocum 1st Bapt.                          01 
00050020005000009000002000002000005000000000000000000000000000000000000000000000000000000000000000000DEM       Governor                                                DEM Beto O'Rourke                     Voting Box 5-VFD Slocum#2                              01 
00050020006000280000043000161000076000000000000000000000000000000000000000000000000000000000000000000DEM       Governor                                                DEM Beto O'Rourke                     Voting Box 6-New Christian                             01 
00050020007000292000043000173000076000000000000000000000000000000000000000000000000000000000000000000DEM       Governor                                                DEM Beto O'Rourke                     Voting Box 7-Washington                                01 
00050020008000074000011000038000025000000000000000000000000000000000000000000000000000000000000000000DEM       Governor                                                DEM Beto O'Rourke                     Voting Box 8-Antioch                                   01 
00050020009000109000005000069000035000000000000000000000000000000000000000000000000000000000000000000DEM       Governor                                                DEM Beto O'Rourke                     Voting Box 9-Tucker                                    01 
00050020010000026000000000018000008000000000000000000000000000000000000000000000000000000000000000000DEM       Governor                                                DEM Beto O'Rourke                     Voting Box 10-Harmony                                  01 
00050020011000122000006000064000052000000000000000000000000000000000000000000000000000000000000000000DEM       Governor                                                DEM Beto O'Rourke                     Voting Box 11-Tenn Colony                              01 
00050020012000188000011000120000057000000000000000000000000000000000000000000000000000000000000000000DEM       Governor                                                DEM Beto O'Rourke                     Voting Box 13-PISD Admin                               01 
00050020013000050000001000036000013000000000000000000000000000000000000000000000000000000000000000000DEM       Governor                                                DEM Beto O'Rourke                     Voting Box 15-Engledow                                 01 
00050020014000090000005000050000035000000000000000000000000000000000000000000000000000000000000000000DEM       Governor                                                DEM Beto O'Rourke                     Voting Box 16-Neches 1st Bapt.                         01 
00050020015000073000003000046000024000000000000000000000000000000000000000000000000000000000000000000DEM       Governor                                                DEM Beto O'Rourke                     Voting Box 17-DAV                                      01 
00050020016000130000014000051000065000000000000000000000000000000000000000000000000000000000000000000DEM       Governor                                                DEM Beto O'Rourke                     Voting Box 18-Frankston                                01 
00050020017000220000004000135000081000000000000000000000000000000000000000000000000000000000000000000DEM       Governor                                                DEM Beto O'Rourke                     Voting Box 19-Westwood Baptist                         01 
00050020018000122000004000081000037000000000000000000000000000000000000000000000000000000000000000000DEM       Governor                                                DEM Beto O'Rourke                     Voting Box 20-Freedom Fellowsh                         01 
00050020019000099000004000067000028000000000000000000000000000000000000000000000000000000000000000000DEM       Governor                                                DEM Beto O'Rourke                     Voting Box 21-Civic Center                             01 
00050020020000086000003000053000030000000000000000000000000000000000000000000000000000000000000000000DEM       Governor                                                DEM Beto O'Rourke                     Voting Box 22-Montalba                                 01 
00050020021000062000005000034000023000000000000000000000000000000000000000000000000000000000000000000DEM       Governor                                                DEM Beto O'Rourke                     Voting Box 23-Pisgah                                   01 
00050020022000033000002000025000006000000000000000000000000000000000000000000000000000000000000000000DEM       Governor                                                DEM Beto O'Rourke                     Voting Box 24-Cayuga                                   01 
00050030001000008000000000004000004000000000000000000000000000000000000000000000000000000000000000000LIB       Governor                                                LIB Mark Tippetts                     Voting Box 1-Pal High                                  01 
00050030002000011000000000007000004000000000000000000000000000000000000000000000000000000000000000000LIB       Governor                                                LIB Mark Tippetts                     Voting Box 2-Elk 1st Bapt.                             01 
00050030003000008000000000004000004000000000000000000000000000000000000000000000000000000000000000000LIB       Governor                                                LIB Mark Tippetts                     Voting Box 3-Swanson Hill                              01 
00050030004000004000000000001000003000000000000000000000000000000000000000000000000000000000000000000LIB       Governor                                                LIB Mark Tippetts                     Voting Box 4-Slocum 1st Bapt.                          01 
00050030005000000000000000000000000000000000000000000000000000000000000000000000000000000000000000000LIB       Governor                                                LIB Mark Tippetts                     Voting Box 5-VFD Slocum#2                              01 
00050030006000003000001000001000001000000000000000000000000000000000000000000000000000000000000000000LIB       Governor                                                LIB Mark Tippetts                     Voting Box 6-New Christian                             01 
00050030007000003000000000002000001000000000000000000000000000000000000000000000000000000000000000000LIB       Governor                                                LIB Mark Tippetts                     Voting Box 7-Washington                                01 
00050030008000004000000000003000001000000000000000000000000000000000000000000000000000000000000000000LIB       Governor                                                LIB Mark Tippetts                     Voting Box 8-Antioch                                   01 
00050030009000006000000000005000001000000000000000000000000000000000000000000000000000000000000000000LIB       Governor                                                LIB Mark Tippetts                     Voting Box 9-Tucker                                    01 
00050030010000000000000000000000000000000000000000000000000000000000000000000000000000000000000000000LIB       Governor                                                LIB Mark Tippetts                     Voting Box 10-Harmony                                  01 
00050030011000008000000000002000006000000000000000000000000000000000000000000000000000000000000000000LIB       Governor                                                LIB Mark Tippetts                     Voting Box 11-Tenn Colony                              01 
00050030012000005000000000003000002000000000000000000000000000000000000000000000000000000000000000000LIB       Governor                                                LIB Mark Tippetts                     Voting Box 13-PISD Admin                               01 
00050030013000005000000000003000002000000000000000000000000000000000000000000000000000000000000000000LIB       Governor                                                LIB Mark Tippetts                     Voting Box 15-Engledow                                 01 
00050030014000007000000000005000002000000000000000000000000000000000000000000000000000000000000000000LIB       Governor                                                LIB Mark Tippetts                     Voting Box 16-Neches 1st Bapt.                         01 
00050030015000003000000000001000002000000000000000000000000000000000000000000000000000000000000000000LIB       Governor                                                LIB Mark Tippetts                     Voting Box 17-DAV                                      01 
00050030016000007000000000005000002000000000000000000000000000000000000000000000000000000000000000000LIB       Governor                                                LIB Mark Tippetts                     Voting Box 18-Frankston                                01 
00050030017000004000000000002000002000000000000000000000000000000000000000000000000000000000000000000LIB       Governor                                                LIB Mark Tippetts                     Voting Box 19-Westwood Baptist                         01 
00050030018000004000000000004000000000000000000000000000000000000000000000000000000000000000000000000LIB       Governor                                                LIB Mark Tippetts                     Voting Box 20-Freedom Fellowsh                         01 
00050030019000010000000000004000006000000000000000000000000000000000000000000000000000000000000000000LIB       Governor                                                LIB Mark Tippetts                     Voting Box 21-Civic Center                             01 
00050030020000001000000000001000000000000000000000000000000000000000000000000000000000000000000000000LIB       Governor                                                LIB Mark Tippetts                     Voting Box 22-Montalba                                 01 
00050030021000001000000000001000000000000000000000000000000000000000000000000000000000000000000000000LIB       Governor                                                LIB Mark Tippetts                     Voting Box 23-Pisgah                                   01 
00050030022000003000000000001000002000000000000000000000000000000000000000000000000000000000000000000LIB       Governor                                                LIB Mark Tippetts                     Voting Box 24-Cayuga                                   01 
00050040001000002000000000000000002000000000000000000000000000000000000000000000000000000000000000000GRN       Governor                                                GRN Delilah Barrios                   Voting Box 1-Pal High                                  01 
00050040002000002000000000000000002000000000000000000000000000000000000000000000000000000000000000000GRN       Governor                                                GRN Delilah Barrios                   Voting Box 2-Elk 1st Bapt.                             01 
00050040003000001000000000001000000000000000000000000000000000000000000000000000000000000000000000000GRN       Governor                                                GRN Delilah Barrios                   Voting Box 3-Swanson Hill                              01 
00050040004000001000000000000000001000000000000000000000000000000000000000000000000000000000000000000GRN       Governor                                                GRN Delilah Barrios                   Voting Box 4-Slocum 1st Bapt.                          01 
00050040005000000000000000000000000000000000000000000000000000000000000000000000000000000000000000000GRN       Governor                                                GRN Delilah Barrios                   Voting Box 5-VFD Slocum#2                              01 
00050040006000002000000000002000000000000000000000000000000000000000000000000000000000000000000000000GRN       Governor                                                GRN Delilah Barrios                   Voting Box 6-New Christian                             01 
00050040007000001000000000001000000000000000000000000000000000000000000000000000000000000000000000000GRN       Governor                                                GRN Delilah Barrios                   Voting Box 7-Washington                                01 
00050040008000000000000000000000000000000000000000000000000000000000000000000000000000000000000000000GRN       Governor                                                GRN Delilah Barrios                   Voting Box 8-Antioch                                   01 
00050040009000001000000000001000000000000000000000000000000000000000000000000000000000000000000000000GRN       Governor                                                GRN Delilah Barrios                   Voting Box 9-Tucker                                    01 
00050040010000000000000000000000000000000000000000000000000000000000000000000000000000000000000000000GRN       Governor                                                GRN Delilah Barrios                   Voting Box 10-Harmony                                  01 
00050040011000002000000000002000000000000000000000000000000000000000000000000000000000000000000000000GRN       Governor                                                GRN Delilah Barrios                   Voting Box 11-Tenn Colony                              01 
00050040012000001000000000001000000000000000000000000000000000000000000000000000000000000000000000000GRN       Governor                                                GRN Delilah Barrios                   Voting Box 13-PISD Admin                               01 
00050040013000001000000000001000000000000000000000000000000000000000000000000000000000000000000000000GRN       Governor                                                GRN Delilah Barrios                   Voting Box 15-Engledow                                 01 
00050040014000002000000000001000001000000000000000000000000000000000000000000000000000000000000000000GRN       Governor                                                GRN Delilah Barrios                   Voting Box 16-Neches 1st Bapt.                         01 
00050040015000000000000000000000000000000000000000000000000000000000000000000000000000000000000000000GRN       Governor                                                GRN Delilah Barrios                   Voting Box 17-DAV                                      01 
00050040016000003000000000002000001000000000000000000000000000000000000000000000000000000000000000000GRN       Governor                                                GRN Delilah Barrios                   Voting Box 18-Frankston                                01 
00050040017000006000000000001000005000000000000000000000000000000000000000000000000000000000000000000GRN       Governor                                                GRN Delilah Barrios                   Voting Box 19-Westwood Baptist                         01 
00050040018000003000000000002000001000000000000000000000000000000000000000000000000000000000000000000GRN       Governor                                                GRN Delilah Barrios                   Voting Box 20-Freedom Fellowsh                         01 
00050040019000002000001000000000001000000000000000000000000000000000000000000000000000000000000000000GRN       Governor                                                GRN Delilah Barrios                   Voting Box 21-Civic Center                             01 
00050040020000001000000000001000000000000000000000000000000000000000000000000000000000000000000000000GRN       Governor                                                GRN Delilah Barrios                   Voting Box 22-Montalba                                 01 
00050040021000002000000000001000001000000000000000000000000000000000000000000000000000000000000000000GRN       Governor                                                GRN Delilah Barrios                   Voting Box 23-Pisgah                                   01 
00050040022000000000000000000000000000000000000000000000000000000000000000000000000000000000000000000GRN       Governor                                                GRN Delilah Barrios                   Voting Box 24-Cayuga                                   01 
00050060001000000000000000000000000000000000000000000000000000000000000000000000000000000000000000000NON       Governor                                                Write-in                              Voting Box 1-Pal High                                  01 
00050060002000001000000000000000001000000000000000000000000000000000000000000000000000000000000000000NON       Governor                                                Write-in                              Voting Box 2-Elk 1st Bapt.                             01 
00050060003000000000000000000000000000000000000000000000000000000000000000000000000000000000000000000NON       Governor                                                Write-in                              Voting Box 3-Swanson Hill                              01 
00050060004000000000000000000000000000000000000000000000000000000000000000000000000000000000000000000NON       Governor                                                Write-in                              Voting Box 4-Slocum 1st Bapt.                          01 
00050060005000000000000000000000000000000000000000000000000000000000000000000000000000000000000000000NON       Governor                                                Write-in                              Voting Box 5-VFD Slocum#2                              01 
00050060006000000000000000000000000000000000000000000000000000000000000000000000000000000000000000000NON       Governor                                                Write-in                              Voting Box 6-New Christian                             01 
00050060007000000000000000000000000000000000000000000000000000000000000000000000000000000000000000000NON       Governor                                                Write-in                              Voting Box 7-Washington                                01 
00050060008000000000000000000000000000000000000000000000000000000000000000000000000000000000000000000NON       Governor                                                Write-in                              Voting Box 8-Antioch                                   01 
00050060009000000000000000000000000000000000000000000000000000000000000000000000000000000000000000000NON       Governor                                                Write-in                              Voting Box 9-Tucker                                    01 
00050060010000000000000000000000000000000000000000000000000000000000000000000000000000000000000000000NON       Governor                                                Write-in                              Voting Box 10-Harmony                                  01 
00050060011000001000000000001000000000000000000000000000000000000000000000000000000000000000000000000NON       Governor                                                Write-in                              Voting Box 11-Tenn Colony                              01 
00050060012000001000000000000000001000000000000000000000000000000000000000000000000000000000000000000NON       Governor                                                Write-in                              Voting Box 13-PISD Admin                               01 
00050060013000000000000000000000000000000000000000000000000000000000000000000000000000000000000000000NON       Governor                                                Write-in                              Voting Box 15-Engledow                                 01 
00050060014000000000000000000000000000000000000000000000000000000000000000000000000000000000000000000NON       Governor                                                Write-in                              Voting Box 16-Neches 1st Bapt.                         01 
00050060015000000000000000000000000000000000000000000000000000000000000000000000000000000000000000000NON       Governor                                                Write-in                              Voting Box 17-DAV                                      01 
00050060016000000000000000000000000000000000000000000000000000000000000000000000000000000000000000000NON       Governor                                                Write-in                              Voting Box 18-Frankston                                01 
00050060017000000000000000000000000000000000000000000000000000000000000000000000000000000000000000000NON       Governor                                                Write-in                              Voting Box 19-Westwood Baptist                         01 
00050060018000000000000000000000000000000000000000000000000000000000000000000000000000000000000000000NON       Governor                                                Write-in                              Voting Box 20-Freedom Fellowsh                         01 
00050060019000000000000000000000000000000000000000000000000000000000000000000000000000000000000000000NON       Governor                                                Write-in                              Voting Box 21-Civic Center                             01 
00050060020000000000000000000000000000000000000000000000000000000000000000000000000000000000000000000NON       Governor                                                Write-in                              Voting Box 22-Montalba                                 01 
00050060021000000000000000000000000000000000000000000000000000000000000000000000000000000000000000000NON       Governor                                                Write-in                              Voting Box 23-Pisgah                                   01 
00050060022000000000000000000000000000000000000000000000000000000000000000000000000000000000000000000NON       Governor                                                Write-in                              Voting Box 24-Cayuga                                   01 
00060010001000596000011000437000148000000000000000000000000000000000000000000000000000000000000000000REP       Lieutenant Governor                                     REP Dan Patrick                       Voting Box 1-Pal High                                  01 
00060010002001147000011000616000520000000000000000000000000000000000000000000000000000000000000000000REP       Lieutenant Governor                                     REP Dan Patrick                       Voting Box 2-Elk 1st Bapt.                             01 
00060010003000556000012000384000160000000000000000000000000000000000000000000000000000000000000000000REP       Lieutenant Governor                                     REP Dan Patrick                       Voting Box 3-Swanson Hill                              01 
00060010004000799000012000423000364000000000000000000000000000000000000000000000000000000000000000000REP       Lieutenant Governor                                     REP Dan Patrick                       Voting Box 4-Slocum 1st Bapt.                          01 
00060010005000158000000000080000078000000000000000000000000000000000000000000000000000000000000000000REP       Lieutenant Governor                                     REP Dan Patrick                       Voting Box 5-VFD Slocum#2                              01 
00060010006000275000010000185000080000000000000000000000000000000000000000000000000000000000000000000REP       Lieutenant Governor                                     REP Dan Patrick                       Voting Box 6-New Christian                             01 
00060010007000086000003000062000021000000000000000000000000000000000000000000000000000000000000000000REP       Lieutenant Governor                                     REP Dan Patrick                       Voting Box 7-Washington                                01 
00060010008000059000001000038000020000000000000000000000000000000000000000000000000000000000000000000REP       Lieutenant Governor                                     REP Dan Patrick                       Voting Box 8-Antioch                                   01 
00060010009000568000012000351000205000000000000000000000000000000000000000000000000000000000000000000REP       Lieutenant Governor                                     REP Dan Patrick                       Voting Box 9-Tucker                                    01 
00060010010000247000002000133000112000000000000000000000000000000000000000000000000000000000000000000REP       Lieutenant Governor                                     REP Dan Patrick                       Voting Box 10-Harmony                                  01 
00060010011000527000010000202000315000000000000000000000000000000000000000000000000000000000000000000REP       Lieutenant Governor                                     REP Dan Patrick                       Voting Box 11-Tenn Colony                              01 
00060010012000561000009000380000172000000000000000000000000000000000000000000000000000000000000000000REP       Lieutenant Governor                                     REP Dan Patrick                       Voting Box 13-PISD Admin                               01 
00060010013000462000006000299000157000000000000000000000000000000000000000000000000000000000000000000REP       Lieutenant Governor                                     REP Dan Patrick                       Voting Box 15-Engledow                                 01 
00060010014000422000002000209000211000000000000000000000000000000000000000000000000000000000000000000REP       Lieutenant Governor                                     REP Dan Patrick                       Voting Box 16-Neches 1st Bapt.                         01 
00060010015000356000005000232000119000000000000000000000000000000000000000000000000000000000000000000REP       Lieutenant Governor                                     REP Dan Patrick                       Voting Box 17-DAV                                      01 
00060010016000931000013000335000583000000000000000000000000000000000000000000000000000000000000000000REP       Lieutenant Governor                                     REP Dan Patrick                       Voting Box 18-Frankston                                01 
00060010017000761000007000477000277000000000000000000000000000000000000000000000000000000000000000000REP       Lieutenant Governor                                     REP Dan Patrick                       Voting Box 19-Westwood Baptist                         01 
00060010018000422000008000307000107000000000000000000000000000000000000000000000000000000000000000000REP       Lieutenant Governor                                     REP Dan Patrick                       Voting Box 20-Freedom Fellowsh                         01 
00060010019000813000011000562000240000000000000000000000000000000000000000000000000000000000000000000REP       Lieutenant Governor                                     REP Dan Patrick                       Voting Box 21-Civic Center                             01 
00060010020000556000007000283000266000000000000000000000000000000000000000000000000000000000000000000REP       Lieutenant Governor                                     REP Dan Patrick                       Voting Box 22-Montalba                                 01 
00060010021000724000006000373000345000000000000000000000000000000000000000000000000000000000000000000REP       Lieutenant Governor                                     REP Dan Patrick                       Voting Box 23-Pisgah                                   01 
00060010022000475000005000242000228000000000000000000000000000000000000000000000000000000000000000000REP       Lieutenant Governor                                     REP Dan Patrick                       Voting Box 24-Cayuga                                   01 
00060020001000198000010000114000074000000000000000000000000000000000000000000000000000000000000000000DEM       Lieutenant Governor                                     DEM Mike Collier                      Voting Box 1-Pal High                                  01 
00060020002000134000011000081000042000000000000000000000000000000000000000000000000000000000000000000DEM       Lieutenant Governor                                     DEM Mike Collier                      Voting Box 2-Elk 1st Bapt.                             01 
00060020003000077000005000055000017000000000000000000000000000000000000000000000000000000000000000000DEM       Lieutenant Governor                                     DEM Mike Collier                      Voting Box 3-Swanson Hill                              01 
00060020004000071000010000043000018000000000000000000000000000000000000000000000000000000000000000000DEM       Lieutenant Governor                                     DEM Mike Collier                      Voting Box 4-Slocum 1st Bapt.                          01 
00060020005000011000002000003000006000000000000000000000000000000000000000000000000000000000000000000DEM       Lieutenant Governor                                     DEM Mike Collier                      Voting Box 5-VFD Slocum#2                              01 
00060020006000270000041000161000068000000000000000000000000000000000000000000000000000000000000000000DEM       Lieutenant Governor                                     DEM Mike Collier                      Voting Box 6-New Christian                             01 
00060020007000287000041000168000078000000000000000000000000000000000000000000000000000000000000000000DEM       Lieutenant Governor                                     DEM Mike Collier                      Voting Box 7-Washington                                01 
00060020008000073000012000036000025000000000000000000000000000000000000000000000000000000000000000000DEM       Lieutenant Governor                                     DEM Mike Collier                      Voting Box 8-Antioch                                   01 
00060020009000116000006000073000037000000000000000000000000000000000000000000000000000000000000000000DEM       Lieutenant Governor                                     DEM Mike Collier                      Voting Box 9-Tucker                                    01 
00060020010000026000000000016000010000000000000000000000000000000000000000000000000000000000000000000DEM       Lieutenant Governor                                     DEM Mike Collier                      Voting Box 10-Harmony                                  01 
00060020011000125000005000067000053000000000000000000000000000000000000000000000000000000000000000000DEM       Lieutenant Governor                                     DEM Mike Collier                      Voting Box 11-Tenn Colony                              01 
00060020012000197000011000129000057000000000000000000000000000000000000000000000000000000000000000000DEM       Lieutenant Governor                                     DEM Mike Collier                      Voting Box 13-PISD Admin                               01 
00060020013000060000002000043000015000000000000000000000000000000000000000000000000000000000000000000DEM       Lieutenant Governor                                     DEM Mike Collier                      Voting Box 15-Engledow                                 01 
00060020014000085000006000049000030000000000000000000000000000000000000000000000000000000000000000000DEM       Lieutenant Governor                                     DEM Mike Collier                      Voting Box 16-Neches 1st Bapt.                         01 
00060020015000074000003000048000023000000000000000000000000000000000000000000000000000000000000000000DEM       Lieutenant Governor                                     DEM Mike Collier                      Voting Box 17-DAV                                      01 
00060020016000136000014000053000069000000000000000000000000000000000000000000000000000000000000000000DEM       Lieutenant Governor                                     DEM Mike Collier                      Voting Box 18-Frankston                                01 
00060020017000225000004000144000077000000000000000000000000000000000000000000000000000000000000000000DEM       Lieutenant Governor                                     DEM Mike Collier                      Voting Box 19-Westwood Baptist                         01 
00060020018000125000005000085000035000000000000000000000000000000000000000000000000000000000000000000DEM       Lieutenant Governor                                     DEM Mike Collier                      Voting Box 20-Freedom Fellowsh                         01 
00060020019000113000005000067000041000000000000000000000000000000000000000000000000000000000000000000DEM       Lieutenant Governor                                     DEM Mike Collier                      Voting Box 21-Civic Center                             01 
00060020020000092000003000058000031000000000000000000000000000000000000000000000000000000000000000000DEM       Lieutenant Governor                                     DEM Mike Collier                      Voting Box 22-Montalba                                 01 
00060020021000067000006000033000028000000000000000000000000000000000000000000000000000000000000000000DEM       Lieutenant Governor                                     DEM Mike Collier                      Voting Box 23-Pisgah                                   01 
00060020022000043000003000030000010000000000000000000000000000000000000000000000000000000000000000000DEM       Lieutenant Governor                                     DEM Mike Collier                      Voting Box 24-Cayuga                                   01 
00060030001000024000000000011000013000000000000000000000000000000000000000000000000000000000000000000LIB       Lieutenant Governor                                     LIB Shanna Steele                     Voting Box 1-Pal High                                  01 
00060030002000022000000000013000009000000000000000000000000000000000000000000000000000000000000000000LIB       Lieutenant Governor                                     LIB Shanna Steele                     Voting Box 2-Elk 1st Bapt.                             01 
00060030003000015000000000009000006000000000000000000000000000000000000000000000000000000000000000000LIB       Lieutenant Governor                                     LIB Shanna Steele                     Voting Box 3-Swanson Hill                              01 
00060030004000010000000000006000004000000000000000000000000000000000000000000000000000000000000000000LIB       Lieutenant Governor                                     LIB Shanna Steele                     Voting Box 4-Slocum 1st Bapt.                          01 
00060030005000000000000000000000000000000000000000000000000000000000000000000000000000000000000000000LIB       Lieutenant Governor                                     LIB Shanna Steele                     Voting Box 5-VFD Slocum#2                              01 
00060030006000017000003000009000005000000000000000000000000000000000000000000000000000000000000000000LIB       Lieutenant Governor                                     LIB Shanna Steele                     Voting Box 6-New Christian                             01 
00060030007000004000000000003000001000000000000000000000000000000000000000000000000000000000000000000LIB       Lieutenant Governor                                     LIB Shanna Steele                     Voting Box 7-Washington                                01 
00060030008000004000000000004000000000000000000000000000000000000000000000000000000000000000000000000LIB       Lieutenant Governor                                     LIB Shanna Steele                     Voting Box 8-Antioch                                   01 
00060030009000010000000000008000002000000000000000000000000000000000000000000000000000000000000000000LIB       Lieutenant Governor                                     LIB Shanna Steele                     Voting Box 9-Tucker                                    01 
00060030010000003000000000003000000000000000000000000000000000000000000000000000000000000000000000000LIB       Lieutenant Governor                                     LIB Shanna Steele                     Voting Box 10-Harmony                                  01 
00060030011000013000001000005000007000000000000000000000000000000000000000000000000000000000000000000LIB       Lieutenant Governor                                     LIB Shanna Steele                     Voting Box 11-Tenn Colony                              01 
00060030012000018000000000012000006000000000000000000000000000000000000000000000000000000000000000000LIB       Lieutenant Governor                                     LIB Shanna Steele                     Voting Box 13-PISD Admin                               01 
00060030013000004000000000001000003000000000000000000000000000000000000000000000000000000000000000000LIB       Lieutenant Governor                                     LIB Shanna Steele                     Voting Box 15-Engledow                                 01 
00060030014000017000000000011000006000000000000000000000000000000000000000000000000000000000000000000LIB       Lieutenant Governor                                     LIB Shanna Steele                     Voting Box 16-Neches 1st Bapt.                         01 
00060030015000005000000000002000003000000000000000000000000000000000000000000000000000000000000000000LIB       Lieutenant Governor                                     LIB Shanna Steele                     Voting Box 17-DAV                                      01 
00060030016000017000000000006000011000000000000000000000000000000000000000000000000000000000000000000LIB       Lieutenant Governor                                     LIB Shanna Steele                     Voting Box 18-Frankston                                01 
00060030017000016000000000004000012000000000000000000000000000000000000000000000000000000000000000000LIB       Lieutenant Governor                                     LIB Shanna Steele                     Voting Box 19-Westwood Baptist                         01 
00060030018000011000000000007000004000000000000000000000000000000000000000000000000000000000000000000LIB       Lieutenant Governor                                     LIB Shanna Steele                     Voting Box 20-Freedom Fellowsh                         01 
00060030019000013000002000008000003000000000000000000000000000000000000000000000000000000000000000000LIB       Lieutenant Governor                                     LIB Shanna Steele                     Voting Box 21-Civic Center                             01 
00060030020000007000000000003000004000000000000000000000000000000000000000000000000000000000000000000LIB       Lieutenant Governor                                     LIB Shanna Steele                     Voting Box 22-Montalba                                 01 
00060030021000006000000000005000001000000000000000000000000000000000000000000000000000000000000000000LIB       Lieutenant Governor                                     LIB Shanna Steele                     Voting Box 23-Pisgah                                   01 
00060030022000006000000000003000003000000000000000000000000000000000000000000000000000000000000000000LIB       Lieutenant Governor                                     LIB Shanna Steele                     Voting Box 24-Cayuga                                   01 
00070010001000592000012000430000150000000000000000000000000000000000000000000000000000000000000000000REP       Attorney General                                        REP Ken Paxton                        Voting Box 1-Pal High                                  01 
00070010002001149000011000615000523000000000000000000000000000000000000000000000000000000000000000000REP       Attorney General                                        REP Ken Paxton                        Voting Box 2-Elk 1st Bapt.                             01 
00070010003000551000012000380000159000000000000000000000000000000000000000000000000000000000000000000REP       Attorney General                                        REP Ken Paxton                        Voting Box 3-Swanson Hill                              01 
00070010004000796000011000424000361000000000000000000000000000000000000000000000000000000000000000000REP       Attorney General                                        REP Ken Paxton                        Voting Box 4-Slocum 1st Bapt.                          01 
00070010005000159000000000081000078000000000000000000000000000000000000000000000000000000000000000000REP       Attorney General                                        REP Ken Paxton                        Voting Box 5-VFD Slocum#2                              01 
00070010006000284000011000191000082000000000000000000000000000000000000000000000000000000000000000000REP       Attorney General                                        REP Ken Paxton                        Voting Box 6-New Christian                             01 
00070010007000089000003000065000021000000000000000000000000000000000000000000000000000000000000000000REP       Attorney General                                        REP Ken Paxton                        Voting Box 7-Washington                                01 
00070010008000057000001000036000020000000000000000000000000000000000000000000000000000000000000000000REP       Attorney General                                        REP Ken Paxton                        Voting Box 8-Antioch                                   01 
00070010009000565000012000349000204000000000000000000000000000000000000000000000000000000000000000000REP       Attorney General                                        REP Ken Paxton                        Voting Box 9-Tucker                                    01 
00070010010000245000002000131000112000000000000000000000000000000000000000000000000000000000000000000REP       Attorney General                                        REP Ken Paxton                        Voting Box 10-Harmony                                  01 
00070010011000532000010000201000321000000000000000000000000000000000000000000000000000000000000000000REP       Attorney General                                        REP Ken Paxton                        Voting Box 11-Tenn Colony                              01 
00070010012000556000008000376000172000000000000000000000000000000000000000000000000000000000000000000REP       Attorney General                                        REP Ken Paxton                        Voting Box 13-PISD Admin                               01 
00070010013000464000006000299000159000000000000000000000000000000000000000000000000000000000000000000REP       Attorney General                                        REP Ken Paxton                        Voting Box 15-Engledow                                 01 
00070010014000423000003000210000210000000000000000000000000000000000000000000000000000000000000000000REP       Attorney General                                        REP Ken Paxton                        Voting Box 16-Neches 1st Bapt.                         01 
00070010015000353000005000227000121000000000000000000000000000000000000000000000000000000000000000000REP       Attorney General                                        REP Ken Paxton                        Voting Box 17-DAV                                      01 
00070010016000936000013000337000586000000000000000000000000000000000000000000000000000000000000000000REP       Attorney General                                        REP Ken Paxton                        Voting Box 18-Frankston                                01 
00070010017000763000007000479000277000000000000000000000000000000000000000000000000000000000000000000REP       Attorney General                                        REP Ken Paxton                        Voting Box 19-Westwood Baptist                         01 
00070010018000424000008000310000106000000000000000000000000000000000000000000000000000000000000000000REP       Attorney General                                        REP Ken Paxton                        Voting Box 20-Freedom Fellowsh                         01 
00070010019000811000012000562000237000000000000000000000000000000000000000000000000000000000000000000REP       Attorney General                                        REP Ken Paxton                        Voting Box 21-Civic Center                             01 
00070010020000555000007000281000267000000000000000000000000000000000000000000000000000000000000000000REP       Attorney General                                        REP Ken Paxton                        Voting Box 22-Montalba                                 01 
00070010021000722000007000367000348000000000000000000000000000000000000000000000000000000000000000000REP       Attorney General                                        REP Ken Paxton                        Voting Box 23-Pisgah                                   01 
00070010022000483000005000247000231000000000000000000000000000000000000000000000000000000000000000000REP       Attorney General                                        REP Ken Paxton                        Voting Box 24-Cayuga                                   01 
00070020001000203000010000117000076000000000000000000000000000000000000000000000000000000000000000000DEM       Attorney General                                        DEM Rochelle Mercedes Garza           Voting Box 1-Pal High                                  01 
00070020002000133000011000081000041000000000000000000000000000000000000000000000000000000000000000000DEM       Attorney General                                        DEM Rochelle Mercedes Garza           Voting Box 2-Elk 1st Bapt.                             01 
00070020003000075000005000054000016000000000000000000000000000000000000000000000000000000000000000000DEM       Attorney General                                        DEM Rochelle Mercedes Garza           Voting Box 3-Swanson Hill                              01 
00070020004000069000010000043000016000000000000000000000000000000000000000000000000000000000000000000DEM       Attorney General                                        DEM Rochelle Mercedes Garza           Voting Box 4-Slocum 1st Bapt.                          01 
00070020005000009000002000002000005000000000000000000000000000000000000000000000000000000000000000000DEM       Attorney General                                        DEM Rochelle Mercedes Garza           Voting Box 5-VFD Slocum#2                              01 
00070020006000267000042000157000068000000000000000000000000000000000000000000000000000000000000000000DEM       Attorney General                                        DEM Rochelle Mercedes Garza           Voting Box 6-New Christian                             01 
00070020007000283000041000169000073000000000000000000000000000000000000000000000000000000000000000000DEM       Attorney General                                        DEM Rochelle Mercedes Garza           Voting Box 7-Washington                                01 
00070020008000072000012000037000023000000000000000000000000000000000000000000000000000000000000000000DEM       Attorney General                                        DEM Rochelle Mercedes Garza           Voting Box 8-Antioch                                   01 
00070020009000110000006000072000032000000000000000000000000000000000000000000000000000000000000000000DEM       Attorney General                                        DEM Rochelle Mercedes Garza           Voting Box 9-Tucker                                    01 
00070020010000027000000000019000008000000000000000000000000000000000000000000000000000000000000000000DEM       Attorney General                                        DEM Rochelle Mercedes Garza           Voting Box 10-Harmony                                  01 
00070020011000123000006000069000048000000000000000000000000000000000000000000000000000000000000000000DEM       Attorney General                                        DEM Rochelle Mercedes Garza           Voting Box 11-Tenn Colony                              01 
00070020012000186000011000122000053000000000000000000000000000000000000000000000000000000000000000000DEM       Attorney General                                        DEM Rochelle Mercedes Garza           Voting Box 13-PISD Admin                               01 
00070020013000059000002000041000016000000000000000000000000000000000000000000000000000000000000000000DEM       Attorney General                                        DEM Rochelle Mercedes Garza           Voting Box 15-Engledow                                 01 
00070020014000083000005000045000033000000000000000000000000000000000000000000000000000000000000000000DEM       Attorney General                                        DEM Rochelle Mercedes Garza           Voting Box 16-Neches 1st Bapt.                         01 
00070020015000072000003000047000022000000000000000000000000000000000000000000000000000000000000000000DEM       Attorney General                                        DEM Rochelle Mercedes Garza           Voting Box 17-DAV                                      01 
00070020016000130000014000052000064000000000000000000000000000000000000000000000000000000000000000000DEM       Attorney General                                        DEM Rochelle Mercedes Garza           Voting Box 18-Frankston                                01 
00070020017000214000004000132000078000000000000000000000000000000000000000000000000000000000000000000DEM       Attorney General                                        DEM Rochelle Mercedes Garza           Voting Box 19-Westwood Baptist                         01 
00070020018000121000004000082000035000000000000000000000000000000000000000000000000000000000000000000DEM       Attorney General                                        DEM Rochelle Mercedes Garza           Voting Box 20-Freedom Fellowsh                         01 
00070020019000101000005000066000030000000000000000000000000000000000000000000000000000000000000000000DEM       Attorney General                                        DEM Rochelle Mercedes Garza           Voting Box 21-Civic Center                             01 
00070020020000089000003000058000028000000000000000000000000000000000000000000000000000000000000000000DEM       Attorney General                                        DEM Rochelle Mercedes Garza           Voting Box 22-Montalba                                 01 
00070020021000058000005000033000020000000000000000000000000000000000000000000000000000000000000000000DEM       Attorney General                                        DEM Rochelle Mercedes Garza           Voting Box 23-Pisgah                                   01 
00070020022000033000002000023000008000000000000000000000000000000000000000000000000000000000000000000DEM       Attorney General                                        DEM Rochelle Mercedes Garza           Voting Box 24-Cayuga                                   01 
00070030001000017000000000009000008000000000000000000000000000000000000000000000000000000000000000000LIB       Attorney General                                        LIB Mark Ash                          Voting Box 1-Pal High                                  01 
00070030002000027000000000017000010000000000000000000000000000000000000000000000000000000000000000000LIB       Attorney General                                        LIB Mark Ash                          Voting Box 2-Elk 1st Bapt.                             01 
00070030003000025000000000017000008000000000000000000000000000000000000000000000000000000000000000000LIB       Attorney General                                        LIB Mark Ash                          Voting Box 3-Swanson Hill                              01 
00070030004000011000001000005000005000000000000000000000000000000000000000000000000000000000000000000LIB       Attorney General                                        LIB Mark Ash                          Voting Box 4-Slocum 1st Bapt.                          01 
00070030005000003000000000001000002000000000000000000000000000000000000000000000000000000000000000000LIB       Attorney General                                        LIB Mark Ash                          Voting Box 5-VFD Slocum#2                              01 
00070030006000012000001000007000004000000000000000000000000000000000000000000000000000000000000000000LIB       Attorney General                                        LIB Mark Ash                          Voting Box 6-New Christian                             01 
00070030007000008000001000003000004000000000000000000000000000000000000000000000000000000000000000000LIB       Attorney General                                        LIB Mark Ash                          Voting Box 7-Washington                                01 
00070030008000006000000000005000001000000000000000000000000000000000000000000000000000000000000000000LIB       Attorney General                                        LIB Mark Ash                          Voting Box 8-Antioch                                   01 
00070030009000017000000000012000005000000000000000000000000000000000000000000000000000000000000000000LIB       Attorney General                                        LIB Mark Ash                          Voting Box 9-Tucker                                    01 
00070030010000005000000000004000001000000000000000000000000000000000000000000000000000000000000000000LIB       Attorney General                                        LIB Mark Ash                          Voting Box 10-Harmony                                  01 
00070030011000005000000000001000004000000000000000000000000000000000000000000000000000000000000000000LIB       Attorney General                                        LIB Mark Ash                          Voting Box 11-Tenn Colony                              01 
00070030012000022000000000015000007000000000000000000000000000000000000000000000000000000000000000000LIB       Attorney General                                        LIB Mark Ash                          Voting Box 13-PISD Admin                               01 
00070030013000006000000000005000001000000000000000000000000000000000000000000000000000000000000000000LIB       Attorney General                                        LIB Mark Ash                          Voting Box 15-Engledow                                 01 
00070030014000018000000000013000005000000000000000000000000000000000000000000000000000000000000000000LIB       Attorney General                                        LIB Mark Ash                          Voting Box 16-Neches 1st Bapt.                         01 
00070030015000007000000000005000002000000000000000000000000000000000000000000000000000000000000000000LIB       Attorney General                                        LIB Mark Ash                          Voting Box 17-DAV                                      01 
00070030016000017000000000005000012000000000000000000000000000000000000000000000000000000000000000000LIB       Attorney General                                        LIB Mark Ash                          Voting Box 18-Frankston                                01 
00070030017000021000000000012000009000000000000000000000000000000000000000000000000000000000000000000LIB       Attorney General                                        LIB Mark Ash                          Voting Box 19-Westwood Baptist                         01 
00070030018000012000000000008000004000000000000000000000000000000000000000000000000000000000000000000LIB       Attorney General                                        LIB Mark Ash                          Voting Box 20-Freedom Fellowsh                         01 
00070030019000022000001000010000011000000000000000000000000000000000000000000000000000000000000000000LIB       Attorney General                                        LIB Mark Ash                          Voting Box 21-Civic Center                             01 
00070030020000013000000000007000006000000000000000000000000000000000000000000000000000000000000000000LIB       Attorney General                                        LIB Mark Ash                          Voting Box 22-Montalba                                 01 
00070030021000015000000000009000006000000000000000000000000000000000000000000000000000000000000000000LIB       Attorney General                                        LIB Mark Ash                          Voting Box 23-Pisgah                                   01 
00070030022000006000001000004000001000000000000000000000000000000000000000000000000000000000000000000LIB       Attorney General                                        LIB Mark Ash                          Voting Box 24-Cayuga                                   01 
00080010001000614000012000443000159000000000000000000000000000000000000000000000000000000000000000000REP       Comptroller of Public Accounts                          REP Glenn Hegar                       Voting Box 1-Pal High                                  01 
00080010002001161000011000622000528000000000000000000000000000000000000000000000000000000000000000000REP       Comptroller of Public Accounts                          REP Glenn Hegar                       Voting Box 2-Elk 1st Bapt.                             01 
00080010003000563000013000389000161000000000000000000000000000000000000000000000000000000000000000000REP       Comptroller of Public Accounts                          REP Glenn Hegar                       Voting Box 3-Swanson Hill                              01 
00080010004000787000012000421000354000000000000000000000000000000000000000000000000000000000000000000REP       Comptroller of Public Accounts                          REP Glenn Hegar                       Voting Box 4-Slocum 1st Bapt.                          01 
00080010005000162000000000081000081000000000000000000000000000000000000000000000000000000000000000000REP       Comptroller of Public Accounts                          REP Glenn Hegar                       Voting Box 5-VFD Slocum#2                              01 
00080010006000289000011000197000081000000000000000000000000000000000000000000000000000000000000000000REP       Comptroller of Public Accounts                          REP Glenn Hegar                       Voting Box 6-New Christian                             01 
00080010007000082000003000062000017000000000000000000000000000000000000000000000000000000000000000000REP       Comptroller of Public Accounts                          REP Glenn Hegar                       Voting Box 7-Washington                                01 
00080010008000059000001000038000020000000000000000000000000000000000000000000000000000000000000000000REP       Comptroller of Public Accounts                          REP Glenn Hegar                       Voting Box 8-Antioch                                   01 
00080010009000574000012000359000203000000000000000000000000000000000000000000000000000000000000000000REP       Comptroller of Public Accounts                          REP Glenn Hegar                       Voting Box 9-Tucker                                    01 
00080010010000245000002000130000113000000000000000000000000000000000000000000000000000000000000000000REP       Comptroller of Public Accounts                          REP Glenn Hegar                       Voting Box 10-Harmony                                  01 
00080010011000532000010000204000318000000000000000000000000000000000000000000000000000000000000000000REP       Comptroller of Public Accounts                          REP Glenn Hegar                       Voting Box 11-Tenn Colony                              01 
00080010012000565000008000387000170000000000000000000000000000000000000000000000000000000000000000000REP       Comptroller of Public Accounts                          REP Glenn Hegar                       Voting Box 13-PISD Admin                               01 
00080010013000466000006000300000160000000000000000000000000000000000000000000000000000000000000000000REP       Comptroller of Public Accounts                          REP Glenn Hegar                       Voting Box 15-Engledow                                 01 
00080010014000425000002000212000211000000000000000000000000000000000000000000000000000000000000000000REP       Comptroller of Public Accounts                          REP Glenn Hegar                       Voting Box 16-Neches 1st Bapt.                         01 
00080010015000353000005000228000120000000000000000000000000000000000000000000000000000000000000000000REP       Comptroller of Public Accounts                          REP Glenn Hegar                       Voting Box 17-DAV                                      01 
00080010016000930000013000340000577000000000000000000000000000000000000000000000000000000000000000000REP       Comptroller of Public Accounts                          REP Glenn Hegar                       Voting Box 18-Frankston                                01 
00080010017000762000007000484000271000000000000000000000000000000000000000000000000000000000000000000REP       Comptroller of Public Accounts                          REP Glenn Hegar                       Voting Box 19-Westwood Baptist                         01 
00080010018000427000008000309000110000000000000000000000000000000000000000000000000000000000000000000REP       Comptroller of Public Accounts                          REP Glenn Hegar                       Voting Box 20-Freedom Fellowsh                         01 
00080010019000825000013000565000247000000000000000000000000000000000000000000000000000000000000000000REP       Comptroller of Public Accounts                          REP Glenn Hegar                       Voting Box 21-Civic Center                             01 
00080010020000559000007000283000269000000000000000000000000000000000000000000000000000000000000000000REP       Comptroller of Public Accounts                          REP Glenn Hegar                       Voting Box 22-Montalba                                 01 
00080010021000730000006000376000348000000000000000000000000000000000000000000000000000000000000000000REP       Comptroller of Public Accounts                          REP Glenn Hegar                       Voting Box 23-Pisgah                                   01 
00080010022000486000006000245000235000000000000000000000000000000000000000000000000000000000000000000REP       Comptroller of Public Accounts                          REP Glenn Hegar                       Voting Box 24-Cayuga                                   01 
00080020001000181000008000108000065000000000000000000000000000000000000000000000000000000000000000000DEM       Comptroller of Public Accounts                          DEM Janet T. Dudding                  Voting Box 1-Pal High                                  01 
00080020002000132000011000084000037000000000000000000000000000000000000000000000000000000000000000000DEM       Comptroller of Public Accounts                          DEM Janet T. Dudding                  Voting Box 2-Elk 1st Bapt.                             01 
00080020003000069000004000050000015000000000000000000000000000000000000000000000000000000000000000000DEM       Comptroller of Public Accounts                          DEM Janet T. Dudding                  Voting Box 3-Swanson Hill                              01 
00080020004000075000010000048000017000000000000000000000000000000000000000000000000000000000000000000DEM       Comptroller of Public Accounts                          DEM Janet T. Dudding                  Voting Box 4-Slocum 1st Bapt.                          01 
00080020005000009000002000002000005000000000000000000000000000000000000000000000000000000000000000000DEM       Comptroller of Public Accounts                          DEM Janet T. Dudding                  Voting Box 5-VFD Slocum#2                              01 
00080020006000252000040000144000068000000000000000000000000000000000000000000000000000000000000000000DEM       Comptroller of Public Accounts                          DEM Janet T. Dudding                  Voting Box 6-New Christian                             01 
00080020007000277000041000165000071000000000000000000000000000000000000000000000000000000000000000000DEM       Comptroller of Public Accounts                          DEM Janet T. Dudding                  Voting Box 7-Washington                                01 
00080020008000073000012000037000024000000000000000000000000000000000000000000000000000000000000000000DEM       Comptroller of Public Accounts                          DEM Janet T. Dudding                  Voting Box 8-Antioch                                   01 
00080020009000107000005000066000036000000000000000000000000000000000000000000000000000000000000000000DEM       Comptroller of Public Accounts                          DEM Janet T. Dudding                  Voting Box 9-Tucker                                    01 
00080020010000024000000000015000009000000000000000000000000000000000000000000000000000000000000000000DEM       Comptroller of Public Accounts                          DEM Janet T. Dudding                  Voting Box 10-Harmony                                  01 
00080020011000124000006000065000053000000000000000000000000000000000000000000000000000000000000000000DEM       Comptroller of Public Accounts                          DEM Janet T. Dudding                  Voting Box 11-Tenn Colony                              01 
00080020012000185000011000119000055000000000000000000000000000000000000000000000000000000000000000000DEM       Comptroller of Public Accounts                          DEM Janet T. Dudding                  Voting Box 13-PISD Admin                               01 
00080020013000053000002000038000013000000000000000000000000000000000000000000000000000000000000000000DEM       Comptroller of Public Accounts                          DEM Janet T. Dudding                  Voting Box 15-Engledow                                 01 
00080020014000085000006000049000030000000000000000000000000000000000000000000000000000000000000000000DEM       Comptroller of Public Accounts                          DEM Janet T. Dudding                  Voting Box 16-Neches 1st Bapt.                         01 
00080020015000068000003000045000020000000000000000000000000000000000000000000000000000000000000000000DEM       Comptroller of Public Accounts                          DEM Janet T. Dudding                  Voting Box 17-DAV                                      01 
00080020016000132000014000050000068000000000000000000000000000000000000000000000000000000000000000000DEM       Comptroller of Public Accounts                          DEM Janet T. Dudding                  Voting Box 18-Frankston                                01 
00080020017000206000004000129000073000000000000000000000000000000000000000000000000000000000000000000DEM       Comptroller of Public Accounts                          DEM Janet T. Dudding                  Voting Box 19-Westwood Baptist                         01 
00080020018000108000004000073000031000000000000000000000000000000000000000000000000000000000000000000DEM       Comptroller of Public Accounts                          DEM Janet T. Dudding                  Voting Box 20-Freedom Fellowsh                         01 
00080020019000094000004000060000030000000000000000000000000000000000000000000000000000000000000000000DEM       Comptroller of Public Accounts                          DEM Janet T. Dudding                  Voting Box 21-Civic Center                             01 
00080020020000082000003000054000025000000000000000000000000000000000000000000000000000000000000000000DEM       Comptroller of Public Accounts                          DEM Janet T. Dudding                  Voting Box 22-Montalba                                 01 
00080020021000062000006000033000023000000000000000000000000000000000000000000000000000000000000000000DEM       Comptroller of Public Accounts                          DEM Janet T. Dudding                  Voting Box 23-Pisgah                                   01 
00080020022000030000002000024000004000000000000000000000000000000000000000000000000000000000000000000DEM       Comptroller of Public Accounts                          DEM Janet T. Dudding                  Voting Box 24-Cayuga                                   01 
00080030001000018000002000008000008000000000000000000000000000000000000000000000000000000000000000000LIB       Comptroller of Public Accounts                          LIB V. Alonzo Echevarria-Garza        Voting Box 1-Pal High                                  01 
00080030002000011000000000004000007000000000000000000000000000000000000000000000000000000000000000000LIB       Comptroller of Public Accounts                          LIB V. Alonzo Echevarria-Garza        Voting Box 2-Elk 1st Bapt.                             01 
00080030003000011000000000007000004000000000000000000000000000000000000000000000000000000000000000000LIB       Comptroller of Public Accounts                          LIB V. Alonzo Echevarria-Garza        Voting Box 3-Swanson Hill                              01 
