00010010001001434000000000000000000000000000000000000000000000000000000000000000000000000000000000000          REGISTERED VOTERS - TOTAL                               REGISTERED VOTERS - TOTAL             Precinct 101                                           00 
00010010002001438000000000000000000000000000000000000000000000000000000000000000000000000000000000000          REGISTERED VOTERS - TOTAL                               REGISTERED VOTERS - TOTAL             Precinct 102                                           00 
00010010003001448000000000000000000000000000000000000000000000000000000000000000000000000000000000000          REGISTERED VOTERS - TOTAL                               REGISTERED VOTERS - TOTAL             Precinct 103                                           00 
00010010004000863000000000000000000000000000000000000000000000000000000000000000000000000000000000000          REGISTERED VOTERS - TOTAL                               REGISTERED VOTERS - TOTAL             Precinct 104                                           00 
00010010005002801000000000000000000000000000000000000000000000000000000000000000000000000000000000000          REGISTERED VOTERS - TOTAL                               REGISTERED VOTERS - TOTAL             Precinct 205                                           00 
00010010006001371000000000000000000000000000000000000000000000000000000000000000000000000000000000000          REGISTERED VOTERS - TOTAL                               REGISTERED VOTERS - TOTAL             Precinct 206                                           00 
00010010007000756000000000000000000000000000000000000000000000000000000000000000000000000000000000000          REGISTERED VOTERS - TOTAL                               REGISTERED VOTERS - TOTAL             Precinct 207                                           00 
00010010008000663000000000000000000000000000000000000000000000000000000000000000000000000000000000000          REGISTERED VOTERS - TOTAL                               REGISTERED VOTERS - TOTAL             Precinct 208                                           00 
00010010009000647000000000000000000000000000000000000000000000000000000000000000000000000000000000000          REGISTERED VOTERS - TOTAL                               REGISTERED VOTERS - TOTAL             Precinct 309                                           00 
00010010010002910000000000000000000000000000000000000000000000000000000000000000000000000000000000000          REGISTERED VOTERS - TOTAL                               REGISTERED VOTERS - TOTAL             Precinct 310                                           00 
00010010011001153000000000000000000000000000000000000000000000000000000000000000000000000000000000000          REGISTERED VOTERS - TOTAL                               REGISTERED VOTERS - TOTAL             Precinct 311                                           00 
00010010012000663000000000000000000000000000000000000000000000000000000000000000000000000000000000000          REGISTERED VOTERS - TOTAL                               REGISTERED VOTERS - TOTAL             Precinct 412                                           00 
00010010013001517000000000000000000000000000000000000000000000000000000000000000000000000000000000000          REGISTERED VOTERS - TOTAL                               REGISTERED VOTERS - TOTAL             Precinct 413                                           00 
00010010014001561000000000000000000000000000000000000000000000000000000000000000000000000000000000000          REGISTERED VOTERS - TOTAL                               REGISTERED VOTERS - TOTAL             Precinct 414                                           00 
00010010015001587000000000000000000000000000000000000000000000000000000000000000000000000000000000000          REGISTERED VOTERS - TOTAL                               REGISTERED VOTERS - TOTAL             Precinct 415                                           00 
00020010001000717000023000538000156000000000000000000000000000000000000000000000000000000000000000000          BALLOTS CAST - TOTAL                                    BALLOTS CAST - TOTAL                  Precinct 101                                           00 
00020010002000819000028000567000224000000000000000000000000000000000000000000000000000000000000000000          BALLOTS CAST - TOTAL                                    BALLOTS CAST - TOTAL                  Precinct 102                                           00 
00020010003000935000032000642000261000000000000000000000000000000000000000000000000000000000000000000          BALLOTS CAST - TOTAL                                    BALLOTS CAST - TOTAL                  Precinct 103                                           00 
00020010004000474000017000328000129000000000000000000000000000000000000000000000000000000000000000000          BALLOTS CAST - TOTAL                                    BALLOTS CAST - TOTAL                  Precinct 104                                           00 
00020010005001597000070001059000468000000000000000000000000000000000000000000000000000000000000000000          BALLOTS CAST - TOTAL                                    BALLOTS CAST - TOTAL                  Precinct 205                                           00 
00020010006000895000022000447000426000000000000000000000000000000000000000000000000000000000000000000          BALLOTS CAST - TOTAL                                    BALLOTS CAST - TOTAL                  Precinct 206                                           00 
00020010007000484000022000155000307000000000000000000000000000000000000000000000000000000000000000000          BALLOTS CAST - TOTAL                                    BALLOTS CAST - TOTAL                  Precinct 207                                           00 
00020010008000453000021000204000228000000000000000000000000000000000000000000000000000000000000000000          BALLOTS CAST - TOTAL                                    BALLOTS CAST - TOTAL                  Precinct 208                                           00 
00020010009000437000016000265000156000000000000000000000000000000000000000000000000000000000000000000          BALLOTS CAST - TOTAL                                    BALLOTS CAST - TOTAL                  Precinct 309                                           00 
00020010010001446000056000908000482000000000000000000000000000000000000000000000000000000000000000000          BALLOTS CAST - TOTAL                                    BALLOTS CAST - TOTAL                  Precinct 310                                           00 
00020010011000393000016000205000172000000000000000000000000000000000000000000000000000000000000000000          BALLOTS CAST - TOTAL                                    BALLOTS CAST - TOTAL                  Precinct 311                                           00 
00020010012000347000012000152000183000000000000000000000000000000000000000000000000000000000000000000          BALLOTS CAST - TOTAL                                    BALLOTS CAST - TOTAL                  Precinct 412                                           00 
00020010013000846000024000438000384000000000000000000000000000000000000000000000000000000000000000000          BALLOTS CAST - TOTAL                                    BALLOTS CAST - TOTAL                  Precinct 413                                           00 
00020010014000691000023000399000269000000000000000000000000000000000000000000000000000000000000000000          BALLOTS CAST - TOTAL                                    BALLOTS CAST - TOTAL                  Precinct 414                                           00 
00020010015000731000036000222000473000000000000000000000000000000000000000000000000000000000000000000          BALLOTS CAST - TOTAL                                    BALLOTS CAST - TOTAL                  Precinct 415                                           00 
00030010001000000000000000000000000000000000000000000000000000000000000000000000000000000000000000000          BALLOTS CAST - BLANK                                    BALLOTS CAST - BLANK                  Precinct 101                                           00 
00030010002000000000000000000000000000000000000000000000000000000000000000000000000000000000000000000          BALLOTS CAST - BLANK                                    BALLOTS CAST - BLANK                  Precinct 102                                           00 
00030010003000000000000000000000000000000000000000000000000000000000000000000000000000000000000000000          BALLOTS CAST - BLANK                                    BALLOTS CAST - BLANK                  Precinct 103                                           00 
00030010004000000000000000000000000000000000000000000000000000000000000000000000000000000000000000000          BALLOTS CAST - BLANK                                    BALLOTS CAST - BLANK                  Precinct 104                                           00 
00030010005000002000001000000000001000000000000000000000000000000000000000000000000000000000000000000          BALLOTS CAST - BLANK                                    BALLOTS CAST - BLANK                  Precinct 205                                           00 
00030010006000000000000000000000000000000000000000000000000000000000000000000000000000000000000000000          BALLOTS CAST - BLANK                                    BALLOTS CAST - BLANK                  Precinct 206                                           00 
00030010007000000000000000000000000000000000000000000000000000000000000000000000000000000000000000000          BALLOTS CAST - BLANK                                    BALLOTS CAST - BLANK                  Precinct 207                                           00 
00030010008000000000000000000000000000000000000000000000000000000000000000000000000000000000000000000          BALLOTS CAST - BLANK                                    BALLOTS CAST - BLANK                  Precinct 208                                           00 
00030010009000000000000000000000000000000000000000000000000000000000000000000000000000000000000000000          BALLOTS CAST - BLANK                                    BALLOTS CAST - BLANK                  Precinct 309                                           00 
00030010010000000000000000000000000000000000000000000000000000000000000000000000000000000000000000000          BALLOTS CAST - BLANK                                    BALLOTS CAST - BLANK                  Precinct 310                                           00 
00030010011000000000000000000000000000000000000000000000000000000000000000000000000000000000000000000          BALLOTS CAST - BLANK                                    BALLOTS CAST - BLANK                  Precinct 311                                           00 
00030010012000000000000000000000000000000000000000000000000000000000000000000000000000000000000000000          BALLOTS CAST - BLANK                                    BALLOTS CAST - BLANK                  Precinct 412                                           00 
00030010013000001000000000000000001000000000000000000000000000000000000000000000000000000000000000000          BALLOTS CAST - BLANK                                    BALLOTS CAST - BLANK                  Precinct 413                                           00 
00030010014000000000000000000000000000000000000000000000000000000000000000000000000000000000000000000          BALLOTS CAST - BLANK                                    BALLOTS CAST - BLANK                  Precinct 414                                           00 
00030010015000001000000000000000001000000000000000000000000000000000000000000000000000000000000000000          BALLOTS CAST - BLANK                                    BALLOTS CAST - BLANK                  Precinct 415                                           00 
00040010001000612000013000465000134000000000000000000000000000000000000000000000000000000000000000000REP       US Representative, Dist 10                              REP Michael McCaul                    Precinct 101                                           01 
00040010002000661000015000472000174000000000000000000000000000000000000000000000000000000000000000000REP       US Representative, Dist 10                              REP Michael McCaul                    Precinct 102                                           01 
00040010003000816000023000556000237000000000000000000000000000000000000000000000000000000000000000000REP       US Representative, Dist 10                              REP Michael McCaul                    Precinct 103                                           01 
00040010004000409000013000281000115000000000000000000000000000000000000000000000000000000000000000000REP       US Representative, Dist 10                              REP Michael McCaul                    Precinct 104                                           01 
00040010005001321000042000893000386000000000000000000000000000000000000000000000000000000000000000000REP       US Representative, Dist 10                              REP Michael McCaul                    Precinct 205                                           01 
00040010006000780000011000388000381000000000000000000000000000000000000000000000000000000000000000000REP       US Representative, Dist 10                              REP Michael McCaul                    Precinct 206                                           01 
00040010007000405000014000124000267000000000000000000000000000000000000000000000000000000000000000000REP       US Representative, Dist 10                              REP Michael McCaul                    Precinct 207                                           01 
00040010008000367000014000161000192000000000000000000000000000000000000000000000000000000000000000000REP       US Representative, Dist 10                              REP Michael McCaul                    Precinct 208                                           01 
00040010009000402000007000246000149000000000000000000000000000000000000000000000000000000000000000000REP       US Representative, Dist 10                              REP Michael McCaul                    Precinct 309                                           01 
00040010010001177000033000752000392000000000000000000000000000000000000000000000000000000000000000000REP       US Representative, Dist 10                              REP Michael McCaul                    Precinct 310                                           01 
00040010011000221000008000129000084000000000000000000000000000000000000000000000000000000000000000000REP       US Representative, Dist 10                              REP Michael McCaul                    Precinct 311                                           01 
00040010012000259000007000125000127000000000000000000000000000000000000000000000000000000000000000000REP       US Representative, Dist 10                              REP Michael McCaul                    Precinct 412                                           01 
00040010013000736000021000379000336000000000000000000000000000000000000000000000000000000000000000000REP       US Representative, Dist 10                              REP Michael McCaul                    Precinct 413                                           01 
00040010014000539000014000325000200000000000000000000000000000000000000000000000000000000000000000000REP       US Representative, Dist 10                              REP Michael McCaul                    Precinct 414                                           01 
00040010015000575000019000171000385000000000000000000000000000000000000000000000000000000000000000000REP       US Representative, Dist 10                              REP Michael McCaul                    Precinct 415                                           01 
00040020001000092000004000068000020000000000000000000000000000000000000000000000000000000000000000000DEM       US Representative, Dist 10                              DEM Linda Nuno                        Precinct 101                                           01 
00040020002000137000009000085000043000000000000000000000000000000000000000000000000000000000000000000DEM       US Representative, Dist 10                              DEM Linda Nuno                        Precinct 102                                           01 
00040020003000103000005000077000021000000000000000000000000000000000000000000000000000000000000000000DEM       US Representative, Dist 10                              DEM Linda Nuno                        Precinct 103                                           01 
00040020004000051000003000039000009000000000000000000000000000000000000000000000000000000000000000000DEM       US Representative, Dist 10                              DEM Linda Nuno                        Precinct 104                                           01 
00040020005000202000012000131000059000000000000000000000000000000000000000000000000000000000000000000DEM       US Representative, Dist 10                              DEM Linda Nuno                        Precinct 205                                           01 
00040020006000092000008000045000039000000000000000000000000000000000000000000000000000000000000000000DEM       US Representative, Dist 10                              DEM Linda Nuno                        Precinct 206                                           01 
00040020007000058000004000024000030000000000000000000000000000000000000000000000000000000000000000000DEM       US Representative, Dist 10                              DEM Linda Nuno                        Precinct 207                                           01 
00040020008000073000006000039000028000000000000000000000000000000000000000000000000000000000000000000DEM       US Representative, Dist 10                              DEM Linda Nuno                        Precinct 208                                           01 
00040020009000026000006000017000003000000000000000000000000000000000000000000000000000000000000000000DEM       US Representative, Dist 10                              DEM Linda Nuno                        Precinct 309                                           01 
00040020010000211000021000129000061000000000000000000000000000000000000000000000000000000000000000000DEM       US Representative, Dist 10                              DEM Linda Nuno                        Precinct 310                                           01 
00040020011000154000008000072000074000000000000000000000000000000000000000000000000000000000000000000DEM       US Representative, Dist 10                              DEM Linda Nuno                        Precinct 311                                           01 
00040020012000074000005000025000044000000000000000000000000000000000000000000000000000000000000000000DEM       US Representative, Dist 10                              DEM Linda Nuno                        Precinct 412                                           01 
00040020013000090000001000050000039000000000000000000000000000000000000000000000000000000000000000000DEM       US Representative, Dist 10                              DEM Linda Nuno                        Precinct 413                                           01 
00040020014000135000007000067000061000000000000000000000000000000000000000000000000000000000000000000DEM       US Representative, Dist 10                              DEM Linda Nuno                        Precinct 414                                           01 
00040020015000132000012000046000074000000000000000000000000000000000000000000000000000000000000000000DEM       US Representative, Dist 10                              DEM Linda Nuno                        Precinct 415                                           01 
00040030001000007000001000005000001000000000000000000000000000000000000000000000000000000000000000000LIB       US Representative, Dist 10                              LIB Bill Kelsey                       Precinct 101                                           01 
00040030002000008000000000004000004000000000000000000000000000000000000000000000000000000000000000000LIB       US Representative, Dist 10                              LIB Bill Kelsey                       Precinct 102                                           01 
00040030003000011000001000008000002000000000000000000000000000000000000000000000000000000000000000000LIB       US Representative, Dist 10                              LIB Bill Kelsey                       Precinct 103                                           01 
00040030004000005000000000003000002000000000000000000000000000000000000000000000000000000000000000000LIB       US Representative, Dist 10                              LIB Bill Kelsey                       Precinct 104                                           01 
00040030005000035000003000022000010000000000000000000000000000000000000000000000000000000000000000000LIB       US Representative, Dist 10                              LIB Bill Kelsey                       Precinct 205                                           01 
00040030006000014000000000010000004000000000000000000000000000000000000000000000000000000000000000000LIB       US Representative, Dist 10                              LIB Bill Kelsey                       Precinct 206                                           01 
00040030007000010000000000004000006000000000000000000000000000000000000000000000000000000000000000000LIB       US Representative, Dist 10                              LIB Bill Kelsey                       Precinct 207                                           01 
00040030008000005000000000001000004000000000000000000000000000000000000000000000000000000000000000000LIB       US Representative, Dist 10                              LIB Bill Kelsey                       Precinct 208                                           01 
00040030009000003000000000000000003000000000000000000000000000000000000000000000000000000000000000000LIB       US Representative, Dist 10                              LIB Bill Kelsey                       Precinct 309                                           01 
00040030010000038000000000022000016000000000000000000000000000000000000000000000000000000000000000000LIB       US Representative, Dist 10                              LIB Bill Kelsey                       Precinct 310                                           01 
00040030011000006000000000001000005000000000000000000000000000000000000000000000000000000000000000000LIB       US Representative, Dist 10                              LIB Bill Kelsey                       Precinct 311                                           01 
00040030012000006000000000000000006000000000000000000000000000000000000000000000000000000000000000000LIB       US Representative, Dist 10                              LIB Bill Kelsey                       Precinct 412                                           01 
00040030013000007000001000001000005000000000000000000000000000000000000000000000000000000000000000000LIB       US Representative, Dist 10                              LIB Bill Kelsey                       Precinct 413                                           01 
00040030014000010000000000005000005000000000000000000000000000000000000000000000000000000000000000000LIB       US Representative, Dist 10                              LIB Bill Kelsey                       Precinct 414                                           01 
00040030015000010000003000002000005000000000000000000000000000000000000000000000000000000000000000000LIB       US Representative, Dist 10                              LIB Bill Kelsey                       Precinct 415                                           01 
00040040001000000000000000000000000000000000000000000000000000000000000000000000000000000000000000000          US Representative, Dist 10                              OVER VOTES                            Precinct 101                                           01 
00040040002000000000000000000000000000000000000000000000000000000000000000000000000000000000000000000          US Representative, Dist 10                              OVER VOTES                            Precinct 102                                           01 
00040040003000000000000000000000000000000000000000000000000000000000000000000000000000000000000000000          US Representative, Dist 10                              OVER VOTES                            Precinct 103                                           01 
00040040004000000000000000000000000000000000000000000000000000000000000000000000000000000000000000000          US Representative, Dist 10                              OVER VOTES                            Precinct 104                                           01 
00040040005000000000000000000000000000000000000000000000000000000000000000000000000000000000000000000          US Representative, Dist 10                              OVER VOTES                            Precinct 205                                           01 
00040040006000000000000000000000000000000000000000000000000000000000000000000000000000000000000000000          US Representative, Dist 10                              OVER VOTES                            Precinct 206                                           01 
00040040007000000000000000000000000000000000000000000000000000000000000000000000000000000000000000000          US Representative, Dist 10                              OVER VOTES                            Precinct 207                                           01 
00040040008000000000000000000000000000000000000000000000000000000000000000000000000000000000000000000          US Representative, Dist 10                              OVER VOTES                            Precinct 208                                           01 
00040040009000000000000000000000000000000000000000000000000000000000000000000000000000000000000000000          US Representative, Dist 10                              OVER VOTES                            Precinct 309                                           01 
00040040010000000000000000000000000000000000000000000000000000000000000000000000000000000000000000000          US Representative, Dist 10                              OVER VOTES                            Precinct 310                                           01 
00040040011000000000000000000000000000000000000000000000000000000000000000000000000000000000000000000          US Representative, Dist 10                              OVER VOTES                            Precinct 311                                           01 
00040040012000000000000000000000000000000000000000000000000000000000000000000000000000000000000000000          US Representative, Dist 10                              OVER VOTES                            Precinct 412                                           01 
00040040013000000000000000000000000000000000000000000000000000000000000000000000000000000000000000000          US Representative, Dist 10                              OVER VOTES                            Precinct 413                                           01 
00040040014000000000000000000000000000000000000000000000000000000000000000000000000000000000000000000          US Representative, Dist 10                              OVER VOTES                            Precinct 414                                           01 
00040040015000000000000000000000000000000000000000000000000000000000000000000000000000000000000000000          US Representative, Dist 10                              OVER VOTES                            Precinct 415                                           01 
00040050001000006000005000000000001000000000000000000000000000000000000000000000000000000000000000000          US Representative, Dist 10                              UNDER VOTES                           Precinct 101                                           01 
00040050002000013000004000006000003000000000000000000000000000000000000000000000000000000000000000000          US Representative, Dist 10                              UNDER VOTES                           Precinct 102                                           01 
00040050003000005000003000001000001000000000000000000000000000000000000000000000000000000000000000000          US Representative, Dist 10                              UNDER VOTES                           Precinct 103                                           01 
00040050004000009000001000005000003000000000000000000000000000000000000000000000000000000000000000000          US Representative, Dist 10                              UNDER VOTES                           Precinct 104                                           01 
00040050005000039000013000013000013000000000000000000000000000000000000000000000000000000000000000000          US Representative, Dist 10                              UNDER VOTES                           Precinct 205                                           01 
00040050006000009000003000004000002000000000000000000000000000000000000000000000000000000000000000000          US Representative, Dist 10                              UNDER VOTES                           Precinct 206                                           01 
00040050007000011000004000003000004000000000000000000000000000000000000000000000000000000000000000000          US Representative, Dist 10                              UNDER VOTES                           Precinct 207                                           01 
00040050008000008000001000003000004000000000000000000000000000000000000000000000000000000000000000000          US Representative, Dist 10                              UNDER VOTES                           Precinct 208                                           01 
00040050009000005000002000002000001000000000000000000000000000000000000000000000000000000000000000000          US Representative, Dist 10                              UNDER VOTES                           Precinct 309                                           01 
00040050010000020000002000005000013000000000000000000000000000000000000000000000000000000000000000000          US Representative, Dist 10                              UNDER VOTES                           Precinct 310                                           01 
00040050011000012000000000003000009000000000000000000000000000000000000000000000000000000000000000000          US Representative, Dist 10                              UNDER VOTES                           Precinct 311                                           01 
00040050012000008000000000002000006000000000000000000000000000000000000000000000000000000000000000000          US Representative, Dist 10                              UNDER VOTES                           Precinct 412                                           01 
00040050013000013000001000008000004000000000000000000000000000000000000000000000000000000000000000000          US Representative, Dist 10                              UNDER VOTES                           Precinct 413                                           01 
00040050014000007000002000002000003000000000000000000000000000000000000000000000000000000000000000000          US Representative, Dist 10                              UNDER VOTES                           Precinct 414                                           01 
00040050015000014000002000003000009000000000000000000000000000000000000000000000000000000000000000000          US Representative, Dist 10                              UNDER VOTES                           Precinct 415                                           01 
00050010001000597000013000454000130000000000000000000000000000000000000000000000000000000000000000000REP       Governor                                                REP Greg Abbott                       Precinct 101                                           01 
00050010002000655000017000466000172000000000000000000000000000000000000000000000000000000000000000000REP       Governor                                                REP Greg Abbott                       Precinct 102                                           01 
00050010003000812000027000552000233000000000000000000000000000000000000000000000000000000000000000000REP       Governor                                                REP Greg Abbott                       Precinct 103                                           01 
00050010004000408000014000280000114000000000000000000000000000000000000000000000000000000000000000000REP       Governor                                                REP Greg Abbott                       Precinct 104                                           01 
00050010005001310000049000890000371000000000000000000000000000000000000000000000000000000000000000000REP       Governor                                                REP Greg Abbott                       Precinct 205                                           01 
00050010006000775000012000386000377000000000000000000000000000000000000000000000000000000000000000000REP       Governor                                                REP Greg Abbott                       Precinct 206                                           01 
00050010007000408000016000127000265000000000000000000000000000000000000000000000000000000000000000000REP       Governor                                                REP Greg Abbott                       Precinct 207                                           01 
00050010008000358000014000155000189000000000000000000000000000000000000000000000000000000000000000000REP       Governor                                                REP Greg Abbott                       Precinct 208                                           01 
00050010009000400000010000243000147000000000000000000000000000000000000000000000000000000000000000000REP       Governor                                                REP Greg Abbott                       Precinct 309                                           01 
00050010010001174000031000748000395000000000000000000000000000000000000000000000000000000000000000000REP       Governor                                                REP Greg Abbott                       Precinct 310                                           01 
00050010011000228000008000132000088000000000000000000000000000000000000000000000000000000000000000000REP       Governor                                                REP Greg Abbott                       Precinct 311                                           01 
00050010012000258000007000124000127000000000000000000000000000000000000000000000000000000000000000000REP       Governor                                                REP Greg Abbott                       Precinct 412                                           01 
00050010013000730000022000383000325000000000000000000000000000000000000000000000000000000000000000000REP       Governor                                                REP Greg Abbott                       Precinct 413                                           01 
00050010014000539000016000323000200000000000000000000000000000000000000000000000000000000000000000000REP       Governor                                                REP Greg Abbott                       Precinct 414                                           01 
00050010015000557000017000170000370000000000000000000000000000000000000000000000000000000000000000000REP       Governor                                                REP Greg Abbott                       Precinct 415                                           01 
00050020001000110000010000076000024000000000000000000000000000000000000000000000000000000000000000000DEM       Governor                                                DEM Beto O'Rourke                     Precinct 101                                           01 
00050020002000152000010000093000049000000000000000000000000000000000000000000000000000000000000000000DEM       Governor                                                DEM Beto O'Rourke                     Precinct 102                                           01 
00050020003000109000003000083000023000000000000000000000000000000000000000000000000000000000000000000DEM       Governor                                                DEM Beto O'Rourke                     Precinct 103                                           01 
00050020004000060000003000046000011000000000000000000000000000000000000000000000000000000000000000000DEM       Governor                                                DEM Beto O'Rourke                     Precinct 104                                           01 
00050020005000250000016000153000081000000000000000000000000000000000000000000000000000000000000000000DEM       Governor                                                DEM Beto O'Rourke                     Precinct 205                                           01 
00050020006000110000008000059000043000000000000000000000000000000000000000000000000000000000000000000DEM       Governor                                                DEM Beto O'Rourke                     Precinct 206                                           01 
00050020007000071000006000025000040000000000000000000000000000000000000000000000000000000000000000000DEM       Governor                                                DEM Beto O'Rourke                     Precinct 207                                           01 
00050020008000085000006000047000032000000000000000000000000000000000000000000000000000000000000000000DEM       Governor                                                DEM Beto O'Rourke                     Precinct 208                                           01 
00050020009000035000006000021000008000000000000000000000000000000000000000000000000000000000000000000DEM       Governor                                                DEM Beto O'Rourke                     Precinct 309                                           01 
00050020010000245000024000145000076000000000000000000000000000000000000000000000000000000000000000000DEM       Governor                                                DEM Beto O'Rourke                     Precinct 310                                           01 
00050020011000160000007000072000081000000000000000000000000000000000000000000000000000000000000000000DEM       Governor                                                DEM Beto O'Rourke                     Precinct 311                                           01 
00050020012000084000004000028000052000000000000000000000000000000000000000000000000000000000000000000DEM       Governor                                                DEM Beto O'Rourke                     Precinct 412                                           01 
00050020013000105000001000049000055000000000000000000000000000000000000000000000000000000000000000000DEM       Governor                                                DEM Beto O'Rourke                     Precinct 413                                           01 
00050020014000143000006000070000067000000000000000000000000000000000000000000000000000000000000000000DEM       Governor                                                DEM Beto O'Rourke                     Precinct 414                                           01 
00050020015000154000018000049000087000000000000000000000000000000000000000000000000000000000000000000DEM       Governor                                                DEM Beto O'Rourke                     Precinct 415                                           01 
00050030001000007000000000007000000000000000000000000000000000000000000000000000000000000000000000000LIB       Governor                                                LIB Mark Tippetts                     Precinct 101                                           01 
00050030002000007000001000004000002000000000000000000000000000000000000000000000000000000000000000000LIB       Governor                                                LIB Mark Tippetts                     Precinct 102                                           01 
00050030003000007000000000004000003000000000000000000000000000000000000000000000000000000000000000000LIB       Governor                                                LIB Mark Tippetts                     Precinct 103                                           01 
00050030004000002000000000001000001000000000000000000000000000000000000000000000000000000000000000000LIB       Governor                                                LIB Mark Tippetts                     Precinct 104                                           01 
00050030005000020000000000013000007000000000000000000000000000000000000000000000000000000000000000000LIB       Governor                                                LIB Mark Tippetts                     Precinct 205                                           01 
00050030006000005000002000001000002000000000000000000000000000000000000000000000000000000000000000000LIB       Governor                                                LIB Mark Tippetts                     Precinct 206                                           01 
00050030007000003000000000002000001000000000000000000000000000000000000000000000000000000000000000000LIB       Governor                                                LIB Mark Tippetts                     Precinct 207                                           01 
00050030008000006000000000002000004000000000000000000000000000000000000000000000000000000000000000000LIB       Governor                                                LIB Mark Tippetts                     Precinct 208                                           01 
00050030009000001000000000001000000000000000000000000000000000000000000000000000000000000000000000000LIB       Governor                                                LIB Mark Tippetts                     Precinct 309                                           01 
00050030010000014000000000008000006000000000000000000000000000000000000000000000000000000000000000000LIB       Governor                                                LIB Mark Tippetts                     Precinct 310                                           01 
00050030011000003000000000000000003000000000000000000000000000000000000000000000000000000000000000000LIB       Governor                                                LIB Mark Tippetts                     Precinct 311                                           01 
00050030012000002000000000000000002000000000000000000000000000000000000000000000000000000000000000000LIB       Governor                                                LIB Mark Tippetts                     Precinct 412                                           01 
00050030013000006000001000003000002000000000000000000000000000000000000000000000000000000000000000000LIB       Governor                                                LIB Mark Tippetts                     Precinct 413                                           01 
00050030014000006000001000004000001000000000000000000000000000000000000000000000000000000000000000000LIB       Governor                                                LIB Mark Tippetts                     Precinct 414                                           01 
00050030015000011000000000002000009000000000000000000000000000000000000000000000000000000000000000000LIB       Governor                                                LIB Mark Tippetts                     Precinct 415                                           01 
00050040001000001000000000000000001000000000000000000000000000000000000000000000000000000000000000000GRN       Governor                                                GRN Delilah Barrios                   Precinct 101                                           01 
00050040002000000000000000000000000000000000000000000000000000000000000000000000000000000000000000000GRN       Governor                                                GRN Delilah Barrios                   Precinct 102                                           01 
00050040003000003000000000001000002000000000000000000000000000000000000000000000000000000000000000000GRN       Governor                                                GRN Delilah Barrios                   Precinct 103                                           01 
00050040004000001000000000000000001000000000000000000000000000000000000000000000000000000000000000000GRN       Governor                                                GRN Delilah Barrios                   Precinct 104                                           01 
00050040005000003000001000001000001000000000000000000000000000000000000000000000000000000000000000000GRN       Governor                                                GRN Delilah Barrios                   Precinct 205                                           01 
00050040006000003000000000001000002000000000000000000000000000000000000000000000000000000000000000000GRN       Governor                                                GRN Delilah Barrios                   Precinct 206                                           01 
00050040007000000000000000000000000000000000000000000000000000000000000000000000000000000000000000000GRN       Governor                                                GRN Delilah Barrios                   Precinct 207                                           01 
00050040008000001000000000000000001000000000000000000000000000000000000000000000000000000000000000000GRN       Governor                                                GRN Delilah Barrios                   Precinct 208                                           01 
00050040009000000000000000000000000000000000000000000000000000000000000000000000000000000000000000000GRN       Governor                                                GRN Delilah Barrios                   Precinct 309                                           01 
00050040010000005000000000002000003000000000000000000000000000000000000000000000000000000000000000000GRN       Governor                                                GRN Delilah Barrios                   Precinct 310                                           01 
00050040011000001000000000001000000000000000000000000000000000000000000000000000000000000000000000000GRN       Governor                                                GRN Delilah Barrios                   Precinct 311                                           01 
00050040012000000000000000000000000000000000000000000000000000000000000000000000000000000000000000000GRN       Governor                                                GRN Delilah Barrios                   Precinct 412                                           01 
00050040013000000000000000000000000000000000000000000000000000000000000000000000000000000000000000000GRN       Governor                                                GRN Delilah Barrios                   Precinct 413                                           01 
00050040014000000000000000000000000000000000000000000000000000000000000000000000000000000000000000000GRN       Governor                                                GRN Delilah Barrios                   Precinct 414                                           01 
00050040015000003000000000000000003000000000000000000000000000000000000000000000000000000000000000000GRN       Governor                                                GRN Delilah Barrios                   Precinct 415                                           01 
00050060001000000000000000000000000000000000000000000000000000000000000000000000000000000000000000000NON       Governor                                                Write-in                              Precinct 101                                           01 
00050060002000000000000000000000000000000000000000000000000000000000000000000000000000000000000000000NON       Governor                                                Write-in                              Precinct 102                                           01 
00050060003000002000002000000000000000000000000000000000000000000000000000000000000000000000000000000NON       Governor                                                Write-in                              Precinct 103                                           01 
00050060004000001000000000000000001000000000000000000000000000000000000000000000000000000000000000000NON       Governor                                                Write-in                              Precinct 104                                           01 
00050060005000006000001000000000005000000000000000000000000000000000000000000000000000000000000000000NON       Governor                                                Write-in                              Precinct 205                                           01 
00050060006000001000000000000000001000000000000000000000000000000000000000000000000000000000000000000NON       Governor                                                Write-in                              Precinct 206                                           01 
00050060007000000000000000000000000000000000000000000000000000000000000000000000000000000000000000000NON       Governor                                                Write-in                              Precinct 207                                           01 
00050060008000000000000000000000000000000000000000000000000000000000000000000000000000000000000000000NON       Governor                                                Write-in                              Precinct 208                                           01 
00050060009000000000000000000000000000000000000000000000000000000000000000000000000000000000000000000NON       Governor                                                Write-in                              Precinct 309                                           01 
00050060010000001000000000001000000000000000000000000000000000000000000000000000000000000000000000000NON       Governor                                                Write-in                              Precinct 310                                           01 
00050060011000000000000000000000000000000000000000000000000000000000000000000000000000000000000000000NON       Governor                                                Write-in                              Precinct 311                                           01 
00050060012000001000000000000000001000000000000000000000000000000000000000000000000000000000000000000NON       Governor                                                Write-in                              Precinct 412                                           01 
00050060013000000000000000000000000000000000000000000000000000000000000000000000000000000000000000000NON       Governor                                                Write-in                              Precinct 413                                           01 
00050060014000001000000000001000000000000000000000000000000000000000000000000000000000000000000000000NON       Governor                                                Write-in                              Precinct 414                                           01 
00050060015000000000000000000000000000000000000000000000000000000000000000000000000000000000000000000NON       Governor                                                Write-in                              Precinct 415                                           01 
00050070001000000000000000000000000000000000000000000000000000000000000000000000000000000000000000000          Governor                                                OVER VOTES                            Precinct 101                                           01 
00050070002000000000000000000000000000000000000000000000000000000000000000000000000000000000000000000          Governor                                                OVER VOTES                            Precinct 102                                           01 
00050070003000000000000000000000000000000000000000000000000000000000000000000000000000000000000000000          Governor                                                OVER VOTES                            Precinct 103                                           01 
00050070004000000000000000000000000000000000000000000000000000000000000000000000000000000000000000000          Governor                                                OVER VOTES                            Precinct 104                                           01 
00050070005000000000000000000000000000000000000000000000000000000000000000000000000000000000000000000          Governor                                                OVER VOTES                            Precinct 205                                           01 
00050070006000000000000000000000000000000000000000000000000000000000000000000000000000000000000000000          Governor                                                OVER VOTES                            Precinct 206                                           01 
00050070007000000000000000000000000000000000000000000000000000000000000000000000000000000000000000000          Governor                                                OVER VOTES                            Precinct 207                                           01 
00050070008000000000000000000000000000000000000000000000000000000000000000000000000000000000000000000          Governor                                                OVER VOTES                            Precinct 208                                           01 
00050070009000000000000000000000000000000000000000000000000000000000000000000000000000000000000000000          Governor                                                OVER VOTES                            Precinct 309                                           01 
00050070010000000000000000000000000000000000000000000000000000000000000000000000000000000000000000000          Governor                                                OVER VOTES                            Precinct 310                                           01 
00050070011000000000000000000000000000000000000000000000000000000000000000000000000000000000000000000          Governor                                                OVER VOTES                            Precinct 311                                           01 
00050070012000000000000000000000000000000000000000000000000000000000000000000000000000000000000000000          Governor                                                OVER VOTES                            Precinct 412                                           01 
00050070013000000000000000000000000000000000000000000000000000000000000000000000000000000000000000000          Governor                                                OVER VOTES                            Precinct 413                                           01 
00050070014000000000000000000000000000000000000000000000000000000000000000000000000000000000000000000          Governor                                                OVER VOTES                            Precinct 414                                           01 
00050070015000000000000000000000000000000000000000000000000000000000000000000000000000000000000000000          Governor                                                OVER VOTES                            Precinct 415                                           01 
00050080001000002000000000001000001000000000000000000000000000000000000000000000000000000000000000000          Governor                                                UNDER VOTES                           Precinct 101                                           01 
00050080002000005000000000004000001000000000000000000000000000000000000000000000000000000000000000000          Governor                                                UNDER VOTES                           Precinct 102                                           01 
00050080003000002000000000002000000000000000000000000000000000000000000000000000000000000000000000000          Governor                                                UNDER VOTES                           Precinct 103                                           01 
00050080004000002000000000001000001000000000000000000000000000000000000000000000000000000000000000000          Governor                                                UNDER VOTES                           Precinct 104                                           01 
00050080005000008000003000002000003000000000000000000000000000000000000000000000000000000000000000000          Governor                                                UNDER VOTES                           Precinct 205                                           01 
00050080006000001000000000000000001000000000000000000000000000000000000000000000000000000000000000000          Governor                                                UNDER VOTES                           Precinct 206                                           01 
00050080007000002000000000001000001000000000000000000000000000000000000000000000000000000000000000000          Governor                                                UNDER VOTES                           Precinct 207                                           01 
00050080008000002000000000000000002000000000000000000000000000000000000000000000000000000000000000000          Governor                                                UNDER VOTES                           Precinct 208                                           01 
00050080009000001000000000000000001000000000000000000000000000000000000000000000000000000000000000000          Governor                                                UNDER VOTES                           Precinct 309                                           01 
00050080010000007000001000004000002000000000000000000000000000000000000000000000000000000000000000000          Governor                                                UNDER VOTES                           Precinct 310                                           01 
00050080011000001000001000000000000000000000000000000000000000000000000000000000000000000000000000000          Governor                                                UNDER VOTES                           Precinct 311                                           01 
00050080012000002000001000000000001000000000000000000000000000000000000000000000000000000000000000000          Governor                                                UNDER VOTES                           Precinct 412                                           01 
00050080013000005000000000003000002000000000000000000000000000000000000000000000000000000000000000000          Governor                                                UNDER VOTES                           Precinct 413                                           01 
00050080014000002000000000001000001000000000000000000000000000000000000000000000000000000000000000000          Governor                                                UNDER VOTES                           Precinct 414                                           01 
00050080015000006000001000001000004000000000000000000000000000000000000000000000000000000000000000000          Governor                                                UNDER VOTES                           Precinct 415                                           01 
00060010001000586000012000446000128000000000000000000000000000000000000000000000000000000000000000000REP       Lieutenant Governor                                     REP Dan Patrick                       Precinct 101                                           01 
00060010002000638000017000451000170000000000000000000000000000000000000000000000000000000000000000000REP       Lieutenant Governor                                     REP Dan Patrick                       Precinct 102                                           01 
00060010003000781000026000534000221000000000000000000000000000000000000000000000000000000000000000000REP       Lieutenant Governor                                     REP Dan Patrick                       Precinct 103                                           01 
00060010004000404000014000278000112000000000000000000000000000000000000000000000000000000000000000000REP       Lieutenant Governor                                     REP Dan Patrick                       Precinct 104                                           01 
00060010005001279000050000858000371000000000000000000000000000000000000000000000000000000000000000000REP       Lieutenant Governor                                     REP Dan Patrick                       Precinct 205                                           01 
00060010006000757000012000377000368000000000000000000000000000000000000000000000000000000000000000000REP       Lieutenant Governor                                     REP Dan Patrick                       Precinct 206                                           01 
00060010007000399000015000125000259000000000000000000000000000000000000000000000000000000000000000000REP       Lieutenant Governor                                     REP Dan Patrick                       Precinct 207                                           01 
00060010008000352000013000155000184000000000000000000000000000000000000000000000000000000000000000000REP       Lieutenant Governor                                     REP Dan Patrick                       Precinct 208                                           01 
00060010009000395000010000240000145000000000000000000000000000000000000000000000000000000000000000000REP       Lieutenant Governor                                     REP Dan Patrick                       Precinct 309                                           01 
00060010010001142000032000720000390000000000000000000000000000000000000000000000000000000000000000000REP       Lieutenant Governor                                     REP Dan Patrick                       Precinct 310                                           01 
00060010011000221000008000128000085000000000000000000000000000000000000000000000000000000000000000000REP       Lieutenant Governor                                     REP Dan Patrick                       Precinct 311                                           01 
00060010012000256000006000124000126000000000000000000000000000000000000000000000000000000000000000000REP       Lieutenant Governor                                     REP Dan Patrick                       Precinct 412                                           01 
00060010013000705000020000370000315000000000000000000000000000000000000000000000000000000000000000000REP       Lieutenant Governor                                     REP Dan Patrick                       Precinct 413                                           01 
00060010014000528000015000318000195000000000000000000000000000000000000000000000000000000000000000000REP       Lieutenant Governor                                     REP Dan Patrick                       Precinct 414                                           01 
00060010015000549000017000168000364000000000000000000000000000000000000000000000000000000000000000000REP       Lieutenant Governor                                     REP Dan Patrick                       Precinct 415                                           01 
00060020001000117000011000080000026000000000000000000000000000000000000000000000000000000000000000000DEM       Lieutenant Governor                                     DEM Mike Collier                      Precinct 101                                           01 
00060020002000153000010000099000044000000000000000000000000000000000000000000000000000000000000000000DEM       Lieutenant Governor                                     DEM Mike Collier                      Precinct 102                                           01 
00060020003000127000006000092000029000000000000000000000000000000000000000000000000000000000000000000DEM       Lieutenant Governor                                     DEM Mike Collier                      Precinct 103                                           01 
00060020004000059000003000044000012000000000000000000000000000000000000000000000000000000000000000000DEM       Lieutenant Governor                                     DEM Mike Collier                      Precinct 104                                           01 
00060020005000258000017000168000073000000000000000000000000000000000000000000000000000000000000000000DEM       Lieutenant Governor                                     DEM Mike Collier                      Precinct 205                                           01 
00060020006000117000009000061000047000000000000000000000000000000000000000000000000000000000000000000DEM       Lieutenant Governor                                     DEM Mike Collier                      Precinct 206                                           01 
00060020007000073000006000026000041000000000000000000000000000000000000000000000000000000000000000000DEM       Lieutenant Governor                                     DEM Mike Collier                      Precinct 207                                           01 
00060020008000095000007000049000039000000000000000000000000000000000000000000000000000000000000000000DEM       Lieutenant Governor                                     DEM Mike Collier                      Precinct 208                                           01 
00060020009000040000006000025000009000000000000000000000000000000000000000000000000000000000000000000DEM       Lieutenant Governor                                     DEM Mike Collier                      Precinct 309                                           01 
00060020010000254000024000158000072000000000000000000000000000000000000000000000000000000000000000000DEM       Lieutenant Governor                                     DEM Mike Collier                      Precinct 310                                           01 
00060020011000158000008000073000077000000000000000000000000000000000000000000000000000000000000000000DEM       Lieutenant Governor                                     DEM Mike Collier                      Precinct 311                                           01 
00060020012000081000006000027000048000000000000000000000000000000000000000000000000000000000000000000DEM       Lieutenant Governor                                     DEM Mike Collier                      Precinct 412                                           01 
00060020013000118000002000058000058000000000000000000000000000000000000000000000000000000000000000000DEM       Lieutenant Governor                                     DEM Mike Collier                      Precinct 413                                           01 
00060020014000144000008000073000063000000000000000000000000000000000000000000000000000000000000000000DEM       Lieutenant Governor                                     DEM Mike Collier                      Precinct 414                                           01 
00060020015000159000017000050000092000000000000000000000000000000000000000000000000000000000000000000DEM       Lieutenant Governor                                     DEM Mike Collier                      Precinct 415                                           01 
00060030001000012000000000010000002000000000000000000000000000000000000000000000000000000000000000000LIB       Lieutenant Governor                                     LIB Shanna Steele                     Precinct 101                                           01 
00060030002000018000001000008000009000000000000000000000000000000000000000000000000000000000000000000LIB       Lieutenant Governor                                     LIB Shanna Steele                     Precinct 102                                           01 
00060030003000022000000000015000007000000000000000000000000000000000000000000000000000000000000000000LIB       Lieutenant Governor                                     LIB Shanna Steele                     Precinct 103                                           01 
00060030004000006000000000003000003000000000000000000000000000000000000000000000000000000000000000000LIB       Lieutenant Governor                                     LIB Shanna Steele                     Precinct 104                                           01 
00060030005000036000001000022000013000000000000000000000000000000000000000000000000000000000000000000LIB       Lieutenant Governor                                     LIB Shanna Steele                     Precinct 205                                           01 
00060030006000018000001000008000009000000000000000000000000000000000000000000000000000000000000000000LIB       Lieutenant Governor                                     LIB Shanna Steele                     Precinct 206                                           01 
00060030007000007000001000003000003000000000000000000000000000000000000000000000000000000000000000000LIB       Lieutenant Governor                                     LIB Shanna Steele                     Precinct 207                                           01 
00060030008000003000000000000000003000000000000000000000000000000000000000000000000000000000000000000LIB       Lieutenant Governor                                     LIB Shanna Steele                     Precinct 208                                           01 
00060030009000002000000000000000002000000000000000000000000000000000000000000000000000000000000000000LIB       Lieutenant Governor                                     LIB Shanna Steele                     Precinct 309                                           01 
00060030010000037000000000024000013000000000000000000000000000000000000000000000000000000000000000000LIB       Lieutenant Governor                                     LIB Shanna Steele                     Precinct 310                                           01 
00060030011000005000000000001000004000000000000000000000000000000000000000000000000000000000000000000LIB       Lieutenant Governor                                     LIB Shanna Steele                     Precinct 311                                           01 
00060030012000004000000000001000003000000000000000000000000000000000000000000000000000000000000000000LIB       Lieutenant Governor                                     LIB Shanna Steele                     Precinct 412                                           01 
00060030013000014000002000004000008000000000000000000000000000000000000000000000000000000000000000000LIB       Lieutenant Governor                                     LIB Shanna Steele                     Precinct 413                                           01 
00060030014000015000000000007000008000000000000000000000000000000000000000000000000000000000000000000LIB       Lieutenant Governor                                     LIB Shanna Steele                     Precinct 414                                           01 
00060030015000012000002000003000007000000000000000000000000000000000000000000000000000000000000000000LIB       Lieutenant Governor                                     LIB Shanna Steele                     Precinct 415                                           01 
00060040001000000000000000000000000000000000000000000000000000000000000000000000000000000000000000000          Lieutenant Governor                                     OVER VOTES                            Precinct 101                                           01 
00060040002000000000000000000000000000000000000000000000000000000000000000000000000000000000000000000          Lieutenant Governor                                     OVER VOTES                            Precinct 102                                           01 
00060040003000000000000000000000000000000000000000000000000000000000000000000000000000000000000000000          Lieutenant Governor                                     OVER VOTES                            Precinct 103                                           01 
00060040004000000000000000000000000000000000000000000000000000000000000000000000000000000000000000000          Lieutenant Governor                                     OVER VOTES                            Precinct 104                                           01 
00060040005000000000000000000000000000000000000000000000000000000000000000000000000000000000000000000          Lieutenant Governor                                     OVER VOTES                            Precinct 205                                           01 
00060040006000000000000000000000000000000000000000000000000000000000000000000000000000000000000000000          Lieutenant Governor                                     OVER VOTES                            Precinct 206                                           01 
00060040007000000000000000000000000000000000000000000000000000000000000000000000000000000000000000000          Lieutenant Governor                                     OVER VOTES                            Precinct 207                                           01 
00060040008000000000000000000000000000000000000000000000000000000000000000000000000000000000000000000          Lieutenant Governor                                     OVER VOTES                            Precinct 208                                           01 
00060040009000000000000000000000000000000000000000000000000000000000000000000000000000000000000000000          Lieutenant Governor                                     OVER VOTES                            Precinct 309                                           01 
00060040010000000000000000000000000000000000000000000000000000000000000000000000000000000000000000000          Lieutenant Governor                                     OVER VOTES                            Precinct 310                                           01 
00060040011000000000000000000000000000000000000000000000000000000000000000000000000000000000000000000          Lieutenant Governor                                     OVER VOTES                            Precinct 311                                           01 
00060040012000000000000000000000000000000000000000000000000000000000000000000000000000000000000000000          Lieutenant Governor                                     OVER VOTES                            Precinct 412                                           01 
00060040013000000000000000000000000000000000000000000000000000000000000000000000000000000000000000000          Lieutenant Governor                                     OVER VOTES                            Precinct 413                                           01 
00060040014000000000000000000000000000000000000000000000000000000000000000000000000000000000000000000          Lieutenant Governor                                     OVER VOTES                            Precinct 414                                           01 
00060040015000000000000000000000000000000000000000000000000000000000000000000000000000000000000000000          Lieutenant Governor                                     OVER VOTES                            Precinct 415                                           01 
00060050001000002000000000002000000000000000000000000000000000000000000000000000000000000000000000000          Lieutenant Governor                                     UNDER VOTES                           Precinct 101                                           01 
00060050002000010000000000009000001000000000000000000000000000000000000000000000000000000000000000000          Lieutenant Governor                                     UNDER VOTES                           Precinct 102                                           01 
00060050003000005000000000001000004000000000000000000000000000000000000000000000000000000000000000000          Lieutenant Governor                                     UNDER VOTES                           Precinct 103                                           01 
00060050004000005000000000003000002000000000000000000000000000000000000000000000000000000000000000000          Lieutenant Governor                                     UNDER VOTES                           Precinct 104                                           01 
00060050005000024000002000011000011000000000000000000000000000000000000000000000000000000000000000000          Lieutenant Governor                                     UNDER VOTES                           Precinct 205                                           01 
00060050006000003000000000001000002000000000000000000000000000000000000000000000000000000000000000000          Lieutenant Governor                                     UNDER VOTES                           Precinct 206                                           01 
00060050007000005000000000001000004000000000000000000000000000000000000000000000000000000000000000000          Lieutenant Governor                                     UNDER VOTES                           Precinct 207                                           01 
00060050008000002000000000000000002000000000000000000000000000000000000000000000000000000000000000000          Lieutenant Governor                                     UNDER VOTES                           Precinct 208                                           01 
00060050009000000000000000000000000000000000000000000000000000000000000000000000000000000000000000000          Lieutenant Governor                                     UNDER VOTES                           Precinct 309                                           01 
00060050010000013000000000006000007000000000000000000000000000000000000000000000000000000000000000000          Lieutenant Governor                                     UNDER VOTES                           Precinct 310                                           01 
00060050011000009000000000003000006000000000000000000000000000000000000000000000000000000000000000000          Lieutenant Governor                                     UNDER VOTES                           Precinct 311                                           01 
00060050012000006000000000000000006000000000000000000000000000000000000000000000000000000000000000000          Lieutenant Governor                                     UNDER VOTES                           Precinct 412                                           01 
00060050013000009000000000006000003000000000000000000000000000000000000000000000000000000000000000000          Lieutenant Governor                                     UNDER VOTES                           Precinct 413                                           01 
00060050014000004000000000001000003000000000000000000000000000000000000000000000000000000000000000000          Lieutenant Governor                                     UNDER VOTES                           Precinct 414                                           01 
00060050015000011000000000001000010000000000000000000000000000000000000000000000000000000000000000000          Lieutenant Governor                                     UNDER VOTES                           Precinct 415                                           01 
00070010001000585000013000446000126000000000000000000000000000000000000000000000000000000000000000000REP       Attorney General                                        REP Ken Paxton                        Precinct 101                                           01 
00070010002000641000017000453000171000000000000000000000000000000000000000000000000000000000000000000REP       Attorney General                                        REP Ken Paxton                        Precinct 102                                           01 
00070010003000778000026000530000222000000000000000000000000000000000000000000000000000000000000000000REP       Attorney General                                        REP Ken Paxton                        Precinct 103                                           01 
00070010004000397000014000270000113000000000000000000000000000000000000000000000000000000000000000000REP       Attorney General                                        REP Ken Paxton                        Precinct 104                                           01 
00070010005001271000051000852000368000000000000000000000000000000000000000000000000000000000000000000REP       Attorney General                                        REP Ken Paxton                        Precinct 205                                           01 
00070010006000758000012000374000372000000000000000000000000000000000000000000000000000000000000000000REP       Attorney General                                        REP Ken Paxton                        Precinct 206                                           01 
00070010007000397000015000121000261000000000000000000000000000000000000000000000000000000000000000000REP       Attorney General                                        REP Ken Paxton                        Precinct 207                                           01 
00070010008000357000013000155000189000000000000000000000000000000000000000000000000000000000000000000REP       Attorney General                                        REP Ken Paxton                        Precinct 208                                           01 
00070010009000390000010000237000143000000000000000000000000000000000000000000000000000000000000000000REP       Attorney General                                        REP Ken Paxton                        Precinct 309                                           01 
00070010010001134000031000717000386000000000000000000000000000000000000000000000000000000000000000000REP       Attorney General                                        REP Ken Paxton                        Precinct 310                                           01 
00070010011000216000009000127000080000000000000000000000000000000000000000000000000000000000000000000REP       Attorney General                                        REP Ken Paxton                        Precinct 311                                           01 
00070010012000255000006000123000126000000000000000000000000000000000000000000000000000000000000000000REP       Attorney General                                        REP Ken Paxton                        Precinct 412                                           01 
00070010013000703000021000372000310000000000000000000000000000000000000000000000000000000000000000000REP       Attorney General                                        REP Ken Paxton                        Precinct 413                                           01 
00070010014000526000015000317000194000000000000000000000000000000000000000000000000000000000000000000REP       Attorney General                                        REP Ken Paxton                        Precinct 414                                           01 
00070010015000547000016000166000365000000000000000000000000000000000000000000000000000000000000000000REP       Attorney General                                        REP Ken Paxton                        Precinct 415                                           01 
00070020001000114000010000082000022000000000000000000000000000000000000000000000000000000000000000000DEM       Attorney General                                        DEM Rochelle Mercedes Garza           Precinct 101                                           01 
00070020002000146000010000091000045000000000000000000000000000000000000000000000000000000000000000000DEM       Attorney General                                        DEM Rochelle Mercedes Garza           Precinct 102                                           01 
00070020003000122000005000089000028000000000000000000000000000000000000000000000000000000000000000000DEM       Attorney General                                        DEM Rochelle Mercedes Garza           Precinct 103                                           01 
00070020004000060000003000046000011000000000000000000000000000000000000000000000000000000000000000000DEM       Attorney General                                        DEM Rochelle Mercedes Garza           Precinct 104                                           01 
00070020005000243000016000156000071000000000000000000000000000000000000000000000000000000000000000000DEM       Attorney General                                        DEM Rochelle Mercedes Garza           Precinct 205                                           01 
00070020006000108000009000058000041000000000000000000000000000000000000000000000000000000000000000000DEM       Attorney General                                        DEM Rochelle Mercedes Garza           Precinct 206                                           01 
00070020007000072000006000026000040000000000000000000000000000000000000000000000000000000000000000000DEM       Attorney General                                        DEM Rochelle Mercedes Garza           Precinct 207                                           01 
00070020008000085000007000046000032000000000000000000000000000000000000000000000000000000000000000000DEM       Attorney General                                        DEM Rochelle Mercedes Garza           Precinct 208                                           01 
00070020009000037000006000021000010000000000000000000000000000000000000000000000000000000000000000000DEM       Attorney General                                        DEM Rochelle Mercedes Garza           Precinct 309                                           01 
00070020010000239000024000148000067000000000000000000000000000000000000000000000000000000000000000000DEM       Attorney General                                        DEM Rochelle Mercedes Garza           Precinct 310                                           01 
00070020011000159000007000073000079000000000000000000000000000000000000000000000000000000000000000000DEM       Attorney General                                        DEM Rochelle Mercedes Garza           Precinct 311                                           01 
00070020012000079000005000027000047000000000000000000000000000000000000000000000000000000000000000000DEM       Attorney General                                        DEM Rochelle Mercedes Garza           Precinct 412                                           01 
00070020013000114000001000055000058000000000000000000000000000000000000000000000000000000000000000000DEM       Attorney General                                        DEM Rochelle Mercedes Garza           Precinct 413                                           01 
00070020014000143000008000068000067000000000000000000000000000000000000000000000000000000000000000000DEM       Attorney General                                        DEM Rochelle Mercedes Garza           Precinct 414                                           01 
00070020015000155000017000050000088000000000000000000000000000000000000000000000000000000000000000000DEM       Attorney General                                        DEM Rochelle Mercedes Garza           Precinct 415                                           01 
00070030001000013000000000008000005000000000000000000000000000000000000000000000000000000000000000000LIB       Attorney General                                        LIB Mark Ash                          Precinct 101                                           01 
00070030002000020000001000012000007000000000000000000000000000000000000000000000000000000000000000000LIB       Attorney General                                        LIB Mark Ash                          Precinct 102                                           01 
00070030003000029000001000021000007000000000000000000000000000000000000000000000000000000000000000000LIB       Attorney General                                        LIB Mark Ash                          Precinct 103                                           01 
00070030004000010000000000007000003000000000000000000000000000000000000000000000000000000000000000000LIB       Attorney General                                        LIB Mark Ash                          Precinct 104                                           01 
00070030005000051000001000034000016000000000000000000000000000000000000000000000000000000000000000000LIB       Attorney General                                        LIB Mark Ash                          Precinct 205                                           01 
00070030006000023000001000011000011000000000000000000000000000000000000000000000000000000000000000000LIB       Attorney General                                        LIB Mark Ash                          Precinct 206                                           01 
00070030007000011000001000005000005000000000000000000000000000000000000000000000000000000000000000000LIB       Attorney General                                        LIB Mark Ash                          Precinct 207                                           01 
00070030008000004000000000001000003000000000000000000000000000000000000000000000000000000000000000000LIB       Attorney General                                        LIB Mark Ash                          Precinct 208                                           01 
00070030009000010000000000007000003000000000000000000000000000000000000000000000000000000000000000000LIB       Attorney General                                        LIB Mark Ash                          Precinct 309                                           01 
00070030010000053000001000035000017000000000000000000000000000000000000000000000000000000000000000000LIB       Attorney General                                        LIB Mark Ash                          Precinct 310                                           01 
00070030011000006000000000002000004000000000000000000000000000000000000000000000000000000000000000000LIB       Attorney General                                        LIB Mark Ash                          Precinct 311                                           01 
00070030012000007000000000002000005000000000000000000000000000000000000000000000000000000000000000000LIB       Attorney General                                        LIB Mark Ash                          Precinct 412                                           01 
00070030013000017000002000005000010000000000000000000000000000000000000000000000000000000000000000000LIB       Attorney General                                        LIB Mark Ash                          Precinct 413                                           01 
00070030014000019000000000011000008000000000000000000000000000000000000000000000000000000000000000000LIB       Attorney General                                        LIB Mark Ash                          Precinct 414                                           01 
00070030015000014000003000002000009000000000000000000000000000000000000000000000000000000000000000000LIB       Attorney General                                        LIB Mark Ash                          Precinct 415                                           01 
00070040001000000000000000000000000000000000000000000000000000000000000000000000000000000000000000000          Attorney General                                        OVER VOTES                            Precinct 101                                           01 
00070040002000000000000000000000000000000000000000000000000000000000000000000000000000000000000000000          Attorney General                                        OVER VOTES                            Precinct 102                                           01 
00070040003000000000000000000000000000000000000000000000000000000000000000000000000000000000000000000          Attorney General                                        OVER VOTES                            Precinct 103                                           01 
00070040004000000000000000000000000000000000000000000000000000000000000000000000000000000000000000000          Attorney General                                        OVER VOTES                            Precinct 104                                           01 
00070040005000000000000000000000000000000000000000000000000000000000000000000000000000000000000000000          Attorney General                                        OVER VOTES                            Precinct 205                                           01 
00070040006000000000000000000000000000000000000000000000000000000000000000000000000000000000000000000          Attorney General                                        OVER VOTES                            Precinct 206                                           01 
00070040007000000000000000000000000000000000000000000000000000000000000000000000000000000000000000000          Attorney General                                        OVER VOTES                            Precinct 207                                           01 
00070040008000000000000000000000000000000000000000000000000000000000000000000000000000000000000000000          Attorney General                                        OVER VOTES                            Precinct 208                                           01 
00070040009000000000000000000000000000000000000000000000000000000000000000000000000000000000000000000          Attorney General                                        OVER VOTES                            Precinct 309                                           01 
00070040010000000000000000000000000000000000000000000000000000000000000000000000000000000000000000000          Attorney General                                        OVER VOTES                            Precinct 310                                           01 
00070040011000000000000000000000000000000000000000000000000000000000000000000000000000000000000000000          Attorney General                                        OVER VOTES                            Precinct 311                                           01 
00070040012000000000000000000000000000000000000000000000000000000000000000000000000000000000000000000          Attorney General                                        OVER VOTES                            Precinct 412                                           01 
00070040013000000000000000000000000000000000000000000000000000000000000000000000000000000000000000000          Attorney General                                        OVER VOTES                            Precinct 413                                           01 
00070040014000000000000000000000000000000000000000000000000000000000000000000000000000000000000000000          Attorney General                                        OVER VOTES                            Precinct 414                                           01 
00070040015000000000000000000000000000000000000000000000000000000000000000000000000000000000000000000          Attorney General                                        OVER VOTES                            Precinct 415                                           01 
00070050001000005000000000002000003000000000000000000000000000000000000000000000000000000000000000000          Attorney General                                        UNDER VOTES                           Precinct 101                                           01 
00070050002000012000000000011000001000000000000000000000000000000000000000000000000000000000000000000          Attorney General                                        UNDER VOTES                           Precinct 102                                           01 
00070050003000006000000000002000004000000000000000000000000000000000000000000000000000000000000000000          Attorney General                                        UNDER VOTES                           Precinct 103                                           01 
00070050004000007000000000005000002000000000000000000000000000000000000000000000000000000000000000000          Attorney General                                        UNDER VOTES                           Precinct 104                                           01 
00070050005000032000002000017000013000000000000000000000000000000000000000000000000000000000000000000          Attorney General                                        UNDER VOTES                           Precinct 205                                           01 
00070050006000006000000000004000002000000000000000000000000000000000000000000000000000000000000000000          Attorney General                                        UNDER VOTES                           Precinct 206                                           01 
00070050007000004000000000003000001000000000000000000000000000000000000000000000000000000000000000000          Attorney General                                        UNDER VOTES                           Precinct 207                                           01 
00070050008000006000000000002000004000000000000000000000000000000000000000000000000000000000000000000          Attorney General                                        UNDER VOTES                           Precinct 208                                           01 
00070050009000000000000000000000000000000000000000000000000000000000000000000000000000000000000000000          Attorney General                                        UNDER VOTES                           Precinct 309                                           01 
00070050010000020000000000008000012000000000000000000000000000000000000000000000000000000000000000000          Attorney General                                        UNDER VOTES                           Precinct 310                                           01 
00070050011000012000000000003000009000000000000000000000000000000000000000000000000000000000000000000          Attorney General                                        UNDER VOTES                           Precinct 311                                           01 
00070050012000006000001000000000005000000000000000000000000000000000000000000000000000000000000000000          Attorney General                                        UNDER VOTES                           Precinct 412                                           01 
00070050013000012000000000006000006000000000000000000000000000000000000000000000000000000000000000000          Attorney General                                        UNDER VOTES                           Precinct 413                                           01 
00070050014000003000000000003000000000000000000000000000000000000000000000000000000000000000000000000          Attorney General                                        UNDER VOTES                           Precinct 414                                           01 
00070050015000015000000000004000011000000000000000000000000000000000000000000000000000000000000000000          Attorney General                                        UNDER VOTES                           Precinct 415                                           01 
00080010001000602000015000459000128000000000000000000000000000000000000000000000000000000000000000000REP       Comptroller of Public Accounts                          REP Glenn Hegar                       Precinct 101                                           01 
00080010002000669000018000476000175000000000000000000000000000000000000000000000000000000000000000000REP       Comptroller of Public Accounts                          REP Glenn Hegar                       Precinct 102                                           01 
