00010010001001646000000000000000000000000000000000000000000000000000000000000000000000000000000000000          REGISTERED VOTERS - TOTAL                               REGISTERED VOTERS - TOTAL             PCT. 1                                                 00 
00010010002000747000000000000000000000000000000000000000000000000000000000000000000000000000000000000          REGISTERED VOTERS - TOTAL                               REGISTERED VOTERS - TOTAL             PCT. 2                                                 00 
00010010003000577000000000000000000000000000000000000000000000000000000000000000000000000000000000000          REGISTERED VOTERS - TOTAL                               REGISTERED VOTERS - TOTAL             PCT. 3                                                 00 
00010010004001370000000000000000000000000000000000000000000000000000000000000000000000000000000000000          REGISTERED VOTERS - TOTAL                               REGISTERED VOTERS - TOTAL             PCT. 4                                                 00 
00010010005001765000000000000000000000000000000000000000000000000000000000000000000000000000000000000          REGISTERED VOTERS - TOTAL                               REGISTERED VOTERS - TOTAL             PCT. 5                                                 00 
00010010006000360000000000000000000000000000000000000000000000000000000000000000000000000000000000000          REGISTERED VOTERS - TOTAL                               REGISTERED VOTERS - TOTAL             PCT. 6                                                 00 
00010010007002205000000000000000000000000000000000000000000000000000000000000000000000000000000000000          REGISTERED VOTERS - TOTAL                               REGISTERED VOTERS - TOTAL             PCT. 7                                                 00 
00010010008000590000000000000000000000000000000000000000000000000000000000000000000000000000000000000          REGISTERED VOTERS - TOTAL                               REGISTERED VOTERS - TOTAL             PCT. 8                                                 00 
00010010009001023000000000000000000000000000000000000000000000000000000000000000000000000000000000000          REGISTERED VOTERS - TOTAL                               REGISTERED VOTERS - TOTAL             PCT. 9                                                 00 
00010010010001579000000000000000000000000000000000000000000000000000000000000000000000000000000000000          REGISTERED VOTERS - TOTAL                               REGISTERED VOTERS - TOTAL             PCT. 10                                                00 
00010010011001017000000000000000000000000000000000000000000000000000000000000000000000000000000000000          REGISTERED VOTERS - TOTAL                               REGISTERED VOTERS - TOTAL             PCT. 11                                                00 
00020010001000391000017000205000169000000000000000000000000000000000000000000000000000000000000000000          BALLOTS CAST - TOTAL                                    BALLOTS CAST - TOTAL                  PCT. 1                                                 00 
00020010002000332000007000230000095000000000000000000000000000000000000000000000000000000000000000000          BALLOTS CAST - TOTAL                                    BALLOTS CAST - TOTAL                  PCT. 2                                                 00 
00020010003000322000014000170000138000000000000000000000000000000000000000000000000000000000000000000          BALLOTS CAST - TOTAL                                    BALLOTS CAST - TOTAL                  PCT. 3                                                 00 
00020010004000395000025000217000153000000000000000000000000000000000000000000000000000000000000000000          BALLOTS CAST - TOTAL                                    BALLOTS CAST - TOTAL                  PCT. 4                                                 00 
00020010005000925000032000527000366000000000000000000000000000000000000000000000000000000000000000000          BALLOTS CAST - TOTAL                                    BALLOTS CAST - TOTAL                  PCT. 5                                                 00 
00020010006000143000006000084000053000000000000000000000000000000000000000000000000000000000000000000          BALLOTS CAST - TOTAL                                    BALLOTS CAST - TOTAL                  PCT. 6                                                 00 
00020010007000913000048000529000336000000000000000000000000000000000000000000000000000000000000000000          BALLOTS CAST - TOTAL                                    BALLOTS CAST - TOTAL                  PCT. 7                                                 00 
00020010008000362000017000160000185000000000000000000000000000000000000000000000000000000000000000000          BALLOTS CAST - TOTAL                                    BALLOTS CAST - TOTAL                  PCT. 8                                                 00 
00020010009000433000021000238000174000000000000000000000000000000000000000000000000000000000000000000          BALLOTS CAST - TOTAL                                    BALLOTS CAST - TOTAL                  PCT. 9                                                 00 
00020010010000796000022000267000507000000000000000000000000000000000000000000000000000000000000000000          BALLOTS CAST - TOTAL                                    BALLOTS CAST - TOTAL                  PCT. 10                                                00 
00020010011000656000013000249000394000000000000000000000000000000000000000000000000000000000000000000          BALLOTS CAST - TOTAL                                    BALLOTS CAST - TOTAL                  PCT. 11                                                00 
00030010001000003000000000002000001000000000000000000000000000000000000000000000000000000000000000000          BALLOTS CAST - BLANK                                    BALLOTS CAST - BLANK                  PCT. 1                                                 00 
00030010002000002000000000002000000000000000000000000000000000000000000000000000000000000000000000000          BALLOTS CAST - BLANK                                    BALLOTS CAST - BLANK                  PCT. 2                                                 00 
00030010003000001000000000001000000000000000000000000000000000000000000000000000000000000000000000000          BALLOTS CAST - BLANK                                    BALLOTS CAST - BLANK                  PCT. 3                                                 00 
00030010004000006000000000003000003000000000000000000000000000000000000000000000000000000000000000000          BALLOTS CAST - BLANK                                    BALLOTS CAST - BLANK                  PCT. 4                                                 00 
00030010005000009000000000006000003000000000000000000000000000000000000000000000000000000000000000000          BALLOTS CAST - BLANK                                    BALLOTS CAST - BLANK                  PCT. 5                                                 00 
00030010006000002000000000002000000000000000000000000000000000000000000000000000000000000000000000000          BALLOTS CAST - BLANK                                    BALLOTS CAST - BLANK                  PCT. 6                                                 00 
00030010007000008000001000005000002000000000000000000000000000000000000000000000000000000000000000000          BALLOTS CAST - BLANK                                    BALLOTS CAST - BLANK                  PCT. 7                                                 00 
00030010008000007000000000002000005000000000000000000000000000000000000000000000000000000000000000000          BALLOTS CAST - BLANK                                    BALLOTS CAST - BLANK                  PCT. 8                                                 00 
00030010009000002000000000001000001000000000000000000000000000000000000000000000000000000000000000000          BALLOTS CAST - BLANK                                    BALLOTS CAST - BLANK                  PCT. 9                                                 00 
00030010010000004000000000001000003000000000000000000000000000000000000000000000000000000000000000000          BALLOTS CAST - BLANK                                    BALLOTS CAST - BLANK                  PCT. 10                                                00 
00030010011000003000000000001000002000000000000000000000000000000000000000000000000000000000000000000          BALLOTS CAST - BLANK                                    BALLOTS CAST - BLANK                  PCT. 11                                                00 
00040010001000169000004000091000074000000000000000000000000000000000000000000000000000000000000000000REP       US Representative, Dist 27                              REP Michael Cloud                     PCT. 1                                                 01 
00040010002000221000002000153000066000000000000000000000000000000000000000000000000000000000000000000REP       US Representative, Dist 27                              REP Michael Cloud                     PCT. 2                                                 01 
00040010003000256000012000131000113000000000000000000000000000000000000000000000000000000000000000000REP       US Representative, Dist 27                              REP Michael Cloud                     PCT. 3                                                 01 
00040010004000210000005000124000081000000000000000000000000000000000000000000000000000000000000000000REP       US Representative, Dist 27                              REP Michael Cloud                     PCT. 4                                                 01 
00040010005000735000016000429000290000000000000000000000000000000000000000000000000000000000000000000REP       US Representative, Dist 27                              REP Michael Cloud                     PCT. 5                                                 01 
00040010006000089000001000054000034000000000000000000000000000000000000000000000000000000000000000000REP       US Representative, Dist 27                              REP Michael Cloud                     PCT. 6                                                 01 
00040010007000693000024000398000271000000000000000000000000000000000000000000000000000000000000000000REP       US Representative, Dist 27                              REP Michael Cloud                     PCT. 7                                                 01 
00040010008000311000008000137000166000000000000000000000000000000000000000000000000000000000000000000REP       US Representative, Dist 27                              REP Michael Cloud                     PCT. 8                                                 01 
00040010009000336000007000191000138000000000000000000000000000000000000000000000000000000000000000000REP       US Representative, Dist 27                              REP Michael Cloud                     PCT. 9                                                 01 
00040010010000685000011000228000446000000000000000000000000000000000000000000000000000000000000000000REP       US Representative, Dist 27                              REP Michael Cloud                     PCT. 10                                                01 
00040010011000574000006000221000347000000000000000000000000000000000000000000000000000000000000000000REP       US Representative, Dist 27                              REP Michael Cloud                     PCT. 11                                                01 
00040020001000209000013000105000091000000000000000000000000000000000000000000000000000000000000000000DEM       US Representative, Dist 27                              DEM Maclovio Perez, Jr.               PCT. 1                                                 01 
00040020002000106000005000072000029000000000000000000000000000000000000000000000000000000000000000000DEM       US Representative, Dist 27                              DEM Maclovio Perez, Jr.               PCT. 2                                                 01 
00040020003000059000002000036000021000000000000000000000000000000000000000000000000000000000000000000DEM       US Representative, Dist 27                              DEM Maclovio Perez, Jr.               PCT. 3                                                 01 
00040020004000171000020000087000064000000000000000000000000000000000000000000000000000000000000000000DEM       US Representative, Dist 27                              DEM Maclovio Perez, Jr.               PCT. 4                                                 01 
00040020005000172000016000087000069000000000000000000000000000000000000000000000000000000000000000000DEM       US Representative, Dist 27                              DEM Maclovio Perez, Jr.               PCT. 5                                                 01 
00040020006000050000005000027000018000000000000000000000000000000000000000000000000000000000000000000DEM       US Representative, Dist 27                              DEM Maclovio Perez, Jr.               PCT. 6                                                 01 
00040020007000208000023000123000062000000000000000000000000000000000000000000000000000000000000000000DEM       US Representative, Dist 27                              DEM Maclovio Perez, Jr.               PCT. 7                                                 01 
00040020008000042000008000021000013000000000000000000000000000000000000000000000000000000000000000000DEM       US Representative, Dist 27                              DEM Maclovio Perez, Jr.               PCT. 8                                                 01 
00040020009000090000013000044000033000000000000000000000000000000000000000000000000000000000000000000DEM       US Representative, Dist 27                              DEM Maclovio Perez, Jr.               PCT. 9                                                 01 
00040020010000095000011000036000048000000000000000000000000000000000000000000000000000000000000000000DEM       US Representative, Dist 27                              DEM Maclovio Perez, Jr.               PCT. 10                                                01 
00040020011000070000007000026000037000000000000000000000000000000000000000000000000000000000000000000DEM       US Representative, Dist 27                              DEM Maclovio Perez, Jr.               PCT. 11                                                01 
00040030001000000000000000000000000000000000000000000000000000000000000000000000000000000000000000000          US Representative, Dist 27                              OVER VOTES                            PCT. 1                                                 01 
00040030002000000000000000000000000000000000000000000000000000000000000000000000000000000000000000000          US Representative, Dist 27                              OVER VOTES                            PCT. 2                                                 01 
00040030003000000000000000000000000000000000000000000000000000000000000000000000000000000000000000000          US Representative, Dist 27                              OVER VOTES                            PCT. 3                                                 01 
00040030004000000000000000000000000000000000000000000000000000000000000000000000000000000000000000000          US Representative, Dist 27                              OVER VOTES                            PCT. 4                                                 01 
00040030005000000000000000000000000000000000000000000000000000000000000000000000000000000000000000000          US Representative, Dist 27                              OVER VOTES                            PCT. 5                                                 01 
00040030006000000000000000000000000000000000000000000000000000000000000000000000000000000000000000000          US Representative, Dist 27                              OVER VOTES                            PCT. 6                                                 01 
00040030007000000000000000000000000000000000000000000000000000000000000000000000000000000000000000000          US Representative, Dist 27                              OVER VOTES                            PCT. 7                                                 01 
00040030008000000000000000000000000000000000000000000000000000000000000000000000000000000000000000000          US Representative, Dist 27                              OVER VOTES                            PCT. 8                                                 01 
00040030009000000000000000000000000000000000000000000000000000000000000000000000000000000000000000000          US Representative, Dist 27                              OVER VOTES                            PCT. 9                                                 01 
00040030010000000000000000000000000000000000000000000000000000000000000000000000000000000000000000000          US Representative, Dist 27                              OVER VOTES                            PCT. 10                                                01 
00040030011000000000000000000000000000000000000000000000000000000000000000000000000000000000000000000          US Representative, Dist 27                              OVER VOTES                            PCT. 11                                                01 
00040040001000013000000000009000004000000000000000000000000000000000000000000000000000000000000000000          US Representative, Dist 27                              UNDER VOTES                           PCT. 1                                                 01 
00040040002000005000000000005000000000000000000000000000000000000000000000000000000000000000000000000          US Representative, Dist 27                              UNDER VOTES                           PCT. 2                                                 01 
00040040003000007000000000003000004000000000000000000000000000000000000000000000000000000000000000000          US Representative, Dist 27                              UNDER VOTES                           PCT. 3                                                 01 
00040040004000014000000000006000008000000000000000000000000000000000000000000000000000000000000000000          US Representative, Dist 27                              UNDER VOTES                           PCT. 4                                                 01 
00040040005000018000000000011000007000000000000000000000000000000000000000000000000000000000000000000          US Representative, Dist 27                              UNDER VOTES                           PCT. 5                                                 01 
00040040006000004000000000003000001000000000000000000000000000000000000000000000000000000000000000000          US Representative, Dist 27                              UNDER VOTES                           PCT. 6                                                 01 
00040040007000012000001000008000003000000000000000000000000000000000000000000000000000000000000000000          US Representative, Dist 27                              UNDER VOTES                           PCT. 7                                                 01 
00040040008000009000001000002000006000000000000000000000000000000000000000000000000000000000000000000          US Representative, Dist 27                              UNDER VOTES                           PCT. 8                                                 01 
00040040009000007000001000003000003000000000000000000000000000000000000000000000000000000000000000000          US Representative, Dist 27                              UNDER VOTES                           PCT. 9                                                 01 
00040040010000016000000000003000013000000000000000000000000000000000000000000000000000000000000000000          US Representative, Dist 27                              UNDER VOTES                           PCT. 10                                                01 
00040040011000012000000000002000010000000000000000000000000000000000000000000000000000000000000000000          US Representative, Dist 27                              UNDER VOTES                           PCT. 11                                                01 
00050010001000172000005000092000075000000000000000000000000000000000000000000000000000000000000000000REP       Governor                                                REP Greg Abbott                       PCT. 1                                                 01 
00050010002000217000002000149000066000000000000000000000000000000000000000000000000000000000000000000REP       Governor                                                REP Greg Abbott                       PCT. 2                                                 01 
00050010003000252000011000129000112000000000000000000000000000000000000000000000000000000000000000000REP       Governor                                                REP Greg Abbott                       PCT. 3                                                 01 
00050010004000209000004000123000082000000000000000000000000000000000000000000000000000000000000000000REP       Governor                                                REP Greg Abbott                       PCT. 4                                                 01 
00050010005000721000017000418000286000000000000000000000000000000000000000000000000000000000000000000REP       Governor                                                REP Greg Abbott                       PCT. 5                                                 01 
00050010006000091000001000056000034000000000000000000000000000000000000000000000000000000000000000000REP       Governor                                                REP Greg Abbott                       PCT. 6                                                 01 
00050010007000672000021000391000260000000000000000000000000000000000000000000000000000000000000000000REP       Governor                                                REP Greg Abbott                       PCT. 7                                                 01 
00050010008000307000008000135000164000000000000000000000000000000000000000000000000000000000000000000REP       Governor                                                REP Greg Abbott                       PCT. 8                                                 01 
00050010009000332000009000186000137000000000000000000000000000000000000000000000000000000000000000000REP       Governor                                                REP Greg Abbott                       PCT. 9                                                 01 
00050010010000681000010000223000448000000000000000000000000000000000000000000000000000000000000000000REP       Governor                                                REP Greg Abbott                       PCT. 10                                                01 
00050010011000574000006000217000351000000000000000000000000000000000000000000000000000000000000000000REP       Governor                                                REP Greg Abbott                       PCT. 11                                                01 
00050020001000205000012000107000086000000000000000000000000000000000000000000000000000000000000000000DEM       Governor                                                DEM Beto O'Rourke                     PCT. 1                                                 01 
00050020002000112000005000078000029000000000000000000000000000000000000000000000000000000000000000000DEM       Governor                                                DEM Beto O'Rourke                     PCT. 2                                                 01 
00050020003000062000002000038000022000000000000000000000000000000000000000000000000000000000000000000DEM       Governor                                                DEM Beto O'Rourke                     PCT. 3                                                 01 
00050020004000167000018000090000059000000000000000000000000000000000000000000000000000000000000000000DEM       Governor                                                DEM Beto O'Rourke                     PCT. 4                                                 01 
00050020005000180000014000096000070000000000000000000000000000000000000000000000000000000000000000000DEM       Governor                                                DEM Beto O'Rourke                     PCT. 5                                                 01 
00050020006000047000005000023000019000000000000000000000000000000000000000000000000000000000000000000DEM       Governor                                                DEM Beto O'Rourke                     PCT. 6                                                 01 
00050020007000219000024000126000069000000000000000000000000000000000000000000000000000000000000000000DEM       Governor                                                DEM Beto O'Rourke                     PCT. 7                                                 01 
00050020008000043000008000022000013000000000000000000000000000000000000000000000000000000000000000000DEM       Governor                                                DEM Beto O'Rourke                     PCT. 8                                                 01 
00050020009000089000012000045000032000000000000000000000000000000000000000000000000000000000000000000DEM       Governor                                                DEM Beto O'Rourke                     PCT. 9                                                 01 
00050020010000099000012000038000049000000000000000000000000000000000000000000000000000000000000000000DEM       Governor                                                DEM Beto O'Rourke                     PCT. 10                                                01 
00050020011000069000007000029000033000000000000000000000000000000000000000000000000000000000000000000DEM       Governor                                                DEM Beto O'Rourke                     PCT. 11                                                01 
00050030001000006000000000002000004000000000000000000000000000000000000000000000000000000000000000000LIB       Governor                                                LIB Mark Tippetts                     PCT. 1                                                 01 
00050030002000000000000000000000000000000000000000000000000000000000000000000000000000000000000000000LIB       Governor                                                LIB Mark Tippetts                     PCT. 2                                                 01 
00050030003000004000000000001000003000000000000000000000000000000000000000000000000000000000000000000LIB       Governor                                                LIB Mark Tippetts                     PCT. 3                                                 01 
00050030004000004000002000000000002000000000000000000000000000000000000000000000000000000000000000000LIB       Governor                                                LIB Mark Tippetts                     PCT. 4                                                 01 
00050030005000008000000000004000004000000000000000000000000000000000000000000000000000000000000000000LIB       Governor                                                LIB Mark Tippetts                     PCT. 5                                                 01 
00050030006000001000000000001000000000000000000000000000000000000000000000000000000000000000000000000LIB       Governor                                                LIB Mark Tippetts                     PCT. 6                                                 01 
00050030007000009000000000005000004000000000000000000000000000000000000000000000000000000000000000000LIB       Governor                                                LIB Mark Tippetts                     PCT. 7                                                 01 
00050030008000004000000000001000003000000000000000000000000000000000000000000000000000000000000000000LIB       Governor                                                LIB Mark Tippetts                     PCT. 8                                                 01 
00050030009000007000000000004000003000000000000000000000000000000000000000000000000000000000000000000LIB       Governor                                                LIB Mark Tippetts                     PCT. 9                                                 01 
00050030010000006000000000003000003000000000000000000000000000000000000000000000000000000000000000000LIB       Governor                                                LIB Mark Tippetts                     PCT. 10                                                01 
00050030011000004000000000001000003000000000000000000000000000000000000000000000000000000000000000000LIB       Governor                                                LIB Mark Tippetts                     PCT. 11                                                01 
00050040001000003000000000000000003000000000000000000000000000000000000000000000000000000000000000000GRN       Governor                                                GRN Delilah Barrios                   PCT. 1                                                 01 
00050040002000000000000000000000000000000000000000000000000000000000000000000000000000000000000000000GRN       Governor                                                GRN Delilah Barrios                   PCT. 2                                                 01 
00050040003000000000000000000000000000000000000000000000000000000000000000000000000000000000000000000GRN       Governor                                                GRN Delilah Barrios                   PCT. 3                                                 01 
00050040004000003000001000001000001000000000000000000000000000000000000000000000000000000000000000000GRN       Governor                                                GRN Delilah Barrios                   PCT. 4                                                 01 
00050040005000004000001000002000001000000000000000000000000000000000000000000000000000000000000000000GRN       Governor                                                GRN Delilah Barrios                   PCT. 5                                                 01 
00050040006000002000000000002000000000000000000000000000000000000000000000000000000000000000000000000GRN       Governor                                                GRN Delilah Barrios                   PCT. 6                                                 01 
00050040007000003000001000001000001000000000000000000000000000000000000000000000000000000000000000000GRN       Governor                                                GRN Delilah Barrios                   PCT. 7                                                 01 
00050040008000000000000000000000000000000000000000000000000000000000000000000000000000000000000000000GRN       Governor                                                GRN Delilah Barrios                   PCT. 8                                                 01 
00050040009000000000000000000000000000000000000000000000000000000000000000000000000000000000000000000GRN       Governor                                                GRN Delilah Barrios                   PCT. 9                                                 01 
00050040010000002000000000000000002000000000000000000000000000000000000000000000000000000000000000000GRN       Governor                                                GRN Delilah Barrios                   PCT. 10                                                01 
00050040011000002000000000000000002000000000000000000000000000000000000000000000000000000000000000000GRN       Governor                                                GRN Delilah Barrios                   PCT. 11                                                01 
00050060001000000000000000000000000000000000000000000000000000000000000000000000000000000000000000000NON       Governor                                                Write-in                              PCT. 1                                                 01 
00050060002000000000000000000000000000000000000000000000000000000000000000000000000000000000000000000NON       Governor                                                Write-in                              PCT. 2                                                 01 
00050060003000000000000000000000000000000000000000000000000000000000000000000000000000000000000000000NON       Governor                                                Write-in                              PCT. 3                                                 01 
00050060004000000000000000000000000000000000000000000000000000000000000000000000000000000000000000000NON       Governor                                                Write-in                              PCT. 4                                                 01 
00050060005000001000000000000000001000000000000000000000000000000000000000000000000000000000000000000NON       Governor                                                Write-in                              PCT. 5                                                 01 
00050060006000000000000000000000000000000000000000000000000000000000000000000000000000000000000000000NON       Governor                                                Write-in                              PCT. 6                                                 01 
00050060007000000000000000000000000000000000000000000000000000000000000000000000000000000000000000000NON       Governor                                                Write-in                              PCT. 7                                                 01 
00050060008000000000000000000000000000000000000000000000000000000000000000000000000000000000000000000NON       Governor                                                Write-in                              PCT. 8                                                 01 
00050060009000000000000000000000000000000000000000000000000000000000000000000000000000000000000000000NON       Governor                                                Write-in                              PCT. 9                                                 01 
00050060010000000000000000000000000000000000000000000000000000000000000000000000000000000000000000000NON       Governor                                                Write-in                              PCT. 10                                                01 
00050060011000000000000000000000000000000000000000000000000000000000000000000000000000000000000000000NON       Governor                                                Write-in                              PCT. 11                                                01 
00050070001000000000000000000000000000000000000000000000000000000000000000000000000000000000000000000          Governor                                                OVER VOTES                            PCT. 1                                                 01 
00050070002000000000000000000000000000000000000000000000000000000000000000000000000000000000000000000          Governor                                                OVER VOTES                            PCT. 2                                                 01 
00050070003000000000000000000000000000000000000000000000000000000000000000000000000000000000000000000          Governor                                                OVER VOTES                            PCT. 3                                                 01 
00050070004000000000000000000000000000000000000000000000000000000000000000000000000000000000000000000          Governor                                                OVER VOTES                            PCT. 4                                                 01 
00050070005000000000000000000000000000000000000000000000000000000000000000000000000000000000000000000          Governor                                                OVER VOTES                            PCT. 5                                                 01 
00050070006000000000000000000000000000000000000000000000000000000000000000000000000000000000000000000          Governor                                                OVER VOTES                            PCT. 6                                                 01 
00050070007000000000000000000000000000000000000000000000000000000000000000000000000000000000000000000          Governor                                                OVER VOTES                            PCT. 7                                                 01 
00050070008000000000000000000000000000000000000000000000000000000000000000000000000000000000000000000          Governor                                                OVER VOTES                            PCT. 8                                                 01 
00050070009000000000000000000000000000000000000000000000000000000000000000000000000000000000000000000          Governor                                                OVER VOTES                            PCT. 9                                                 01 
00050070010000000000000000000000000000000000000000000000000000000000000000000000000000000000000000000          Governor                                                OVER VOTES                            PCT. 10                                                01 
00050070011000000000000000000000000000000000000000000000000000000000000000000000000000000000000000000          Governor                                                OVER VOTES                            PCT. 11                                                01 
00050080001000005000000000004000001000000000000000000000000000000000000000000000000000000000000000000          Governor                                                UNDER VOTES                           PCT. 1                                                 01 
00050080002000003000000000003000000000000000000000000000000000000000000000000000000000000000000000000          Governor                                                UNDER VOTES                           PCT. 2                                                 01 
00050080003000004000001000002000001000000000000000000000000000000000000000000000000000000000000000000          Governor                                                UNDER VOTES                           PCT. 3                                                 01 
00050080004000012000000000003000009000000000000000000000000000000000000000000000000000000000000000000          Governor                                                UNDER VOTES                           PCT. 4                                                 01 
00050080005000011000000000007000004000000000000000000000000000000000000000000000000000000000000000000          Governor                                                UNDER VOTES                           PCT. 5                                                 01 
00050080006000002000000000002000000000000000000000000000000000000000000000000000000000000000000000000          Governor                                                UNDER VOTES                           PCT. 6                                                 01 
00050080007000010000002000006000002000000000000000000000000000000000000000000000000000000000000000000          Governor                                                UNDER VOTES                           PCT. 7                                                 01 
00050080008000008000001000002000005000000000000000000000000000000000000000000000000000000000000000000          Governor                                                UNDER VOTES                           PCT. 8                                                 01 
00050080009000005000000000003000002000000000000000000000000000000000000000000000000000000000000000000          Governor                                                UNDER VOTES                           PCT. 9                                                 01 
00050080010000008000000000003000005000000000000000000000000000000000000000000000000000000000000000000          Governor                                                UNDER VOTES                           PCT. 10                                                01 
00050080011000007000000000002000005000000000000000000000000000000000000000000000000000000000000000000          Governor                                                UNDER VOTES                           PCT. 11                                                01 
00060010001000163000004000088000071000000000000000000000000000000000000000000000000000000000000000000REP       Lieutenant Governor                                     REP Dan Patrick                       PCT. 1                                                 01 
00060010002000210000002000145000063000000000000000000000000000000000000000000000000000000000000000000REP       Lieutenant Governor                                     REP Dan Patrick                       PCT. 2                                                 01 
00060010003000241000011000122000108000000000000000000000000000000000000000000000000000000000000000000REP       Lieutenant Governor                                     REP Dan Patrick                       PCT. 3                                                 01 
00060010004000200000005000121000074000000000000000000000000000000000000000000000000000000000000000000REP       Lieutenant Governor                                     REP Dan Patrick                       PCT. 4                                                 01 
00060010005000707000017000410000280000000000000000000000000000000000000000000000000000000000000000000REP       Lieutenant Governor                                     REP Dan Patrick                       PCT. 5                                                 01 
00060010006000089000001000053000035000000000000000000000000000000000000000000000000000000000000000000REP       Lieutenant Governor                                     REP Dan Patrick                       PCT. 6                                                 01 
00060010007000649000020000373000256000000000000000000000000000000000000000000000000000000000000000000REP       Lieutenant Governor                                     REP Dan Patrick                       PCT. 7                                                 01 
00060010008000306000009000134000163000000000000000000000000000000000000000000000000000000000000000000REP       Lieutenant Governor                                     REP Dan Patrick                       PCT. 8                                                 01 
00060010009000326000007000185000134000000000000000000000000000000000000000000000000000000000000000000REP       Lieutenant Governor                                     REP Dan Patrick                       PCT. 9                                                 01 
00060010010000675000010000227000438000000000000000000000000000000000000000000000000000000000000000000REP       Lieutenant Governor                                     REP Dan Patrick                       PCT. 10                                                01 
00060010011000555000006000210000339000000000000000000000000000000000000000000000000000000000000000000REP       Lieutenant Governor                                     REP Dan Patrick                       PCT. 11                                                01 
00060020001000200000012000104000084000000000000000000000000000000000000000000000000000000000000000000DEM       Lieutenant Governor                                     DEM Mike Collier                      PCT. 1                                                 01 
00060020002000110000005000078000027000000000000000000000000000000000000000000000000000000000000000000DEM       Lieutenant Governor                                     DEM Mike Collier                      PCT. 2                                                 01 
00060020003000070000002000042000026000000000000000000000000000000000000000000000000000000000000000000DEM       Lieutenant Governor                                     DEM Mike Collier                      PCT. 3                                                 01 
00060020004000170000020000086000064000000000000000000000000000000000000000000000000000000000000000000DEM       Lieutenant Governor                                     DEM Mike Collier                      PCT. 4                                                 01 
00060020005000187000015000096000076000000000000000000000000000000000000000000000000000000000000000000DEM       Lieutenant Governor                                     DEM Mike Collier                      PCT. 5                                                 01 
00060020006000048000005000026000017000000000000000000000000000000000000000000000000000000000000000000DEM       Lieutenant Governor                                     DEM Mike Collier                      PCT. 6                                                 01 
00060020007000235000026000140000069000000000000000000000000000000000000000000000000000000000000000000DEM       Lieutenant Governor                                     DEM Mike Collier                      PCT. 7                                                 01 
00060020008000042000008000020000014000000000000000000000000000000000000000000000000000000000000000000DEM       Lieutenant Governor                                     DEM Mike Collier                      PCT. 8                                                 01 
00060020009000096000012000048000036000000000000000000000000000000000000000000000000000000000000000000DEM       Lieutenant Governor                                     DEM Mike Collier                      PCT. 9                                                 01 
00060020010000102000012000039000051000000000000000000000000000000000000000000000000000000000000000000DEM       Lieutenant Governor                                     DEM Mike Collier                      PCT. 10                                                01 
00060020011000081000007000031000043000000000000000000000000000000000000000000000000000000000000000000DEM       Lieutenant Governor                                     DEM Mike Collier                      PCT. 11                                                01 
00060030001000012000001000003000008000000000000000000000000000000000000000000000000000000000000000000LIB       Lieutenant Governor                                     LIB Shanna Steele                     PCT. 1                                                 01 
00060030002000007000000000003000004000000000000000000000000000000000000000000000000000000000000000000LIB       Lieutenant Governor                                     LIB Shanna Steele                     PCT. 2                                                 01 
00060030003000006000001000003000002000000000000000000000000000000000000000000000000000000000000000000LIB       Lieutenant Governor                                     LIB Shanna Steele                     PCT. 3                                                 01 
00060030004000009000000000003000006000000000000000000000000000000000000000000000000000000000000000000LIB       Lieutenant Governor                                     LIB Shanna Steele                     PCT. 4                                                 01 
00060030005000013000000000011000002000000000000000000000000000000000000000000000000000000000000000000LIB       Lieutenant Governor                                     LIB Shanna Steele                     PCT. 5                                                 01 
00060030006000004000000000003000001000000000000000000000000000000000000000000000000000000000000000000LIB       Lieutenant Governor                                     LIB Shanna Steele                     PCT. 6                                                 01 
00060030007000016000000000009000007000000000000000000000000000000000000000000000000000000000000000000LIB       Lieutenant Governor                                     LIB Shanna Steele                     PCT. 7                                                 01 
00060030008000006000000000003000003000000000000000000000000000000000000000000000000000000000000000000LIB       Lieutenant Governor                                     LIB Shanna Steele                     PCT. 8                                                 01 
00060030009000006000001000003000002000000000000000000000000000000000000000000000000000000000000000000LIB       Lieutenant Governor                                     LIB Shanna Steele                     PCT. 9                                                 01 
00060030010000011000000000000000011000000000000000000000000000000000000000000000000000000000000000000LIB       Lieutenant Governor                                     LIB Shanna Steele                     PCT. 10                                                01 
00060030011000013000000000006000007000000000000000000000000000000000000000000000000000000000000000000LIB       Lieutenant Governor                                     LIB Shanna Steele                     PCT. 11                                                01 
00060040001000000000000000000000000000000000000000000000000000000000000000000000000000000000000000000          Lieutenant Governor                                     OVER VOTES                            PCT. 1                                                 01 
00060040002000000000000000000000000000000000000000000000000000000000000000000000000000000000000000000          Lieutenant Governor                                     OVER VOTES                            PCT. 2                                                 01 
00060040003000000000000000000000000000000000000000000000000000000000000000000000000000000000000000000          Lieutenant Governor                                     OVER VOTES                            PCT. 3                                                 01 
00060040004000000000000000000000000000000000000000000000000000000000000000000000000000000000000000000          Lieutenant Governor                                     OVER VOTES                            PCT. 4                                                 01 
00060040005000000000000000000000000000000000000000000000000000000000000000000000000000000000000000000          Lieutenant Governor                                     OVER VOTES                            PCT. 5                                                 01 
00060040006000000000000000000000000000000000000000000000000000000000000000000000000000000000000000000          Lieutenant Governor                                     OVER VOTES                            PCT. 6                                                 01 
00060040007000000000000000000000000000000000000000000000000000000000000000000000000000000000000000000          Lieutenant Governor                                     OVER VOTES                            PCT. 7                                                 01 
00060040008000000000000000000000000000000000000000000000000000000000000000000000000000000000000000000          Lieutenant Governor                                     OVER VOTES                            PCT. 8                                                 01 
00060040009000000000000000000000000000000000000000000000000000000000000000000000000000000000000000000          Lieutenant Governor                                     OVER VOTES                            PCT. 9                                                 01 
00060040010000000000000000000000000000000000000000000000000000000000000000000000000000000000000000000          Lieutenant Governor                                     OVER VOTES                            PCT. 10                                                01 
00060040011000000000000000000000000000000000000000000000000000000000000000000000000000000000000000000          Lieutenant Governor                                     OVER VOTES                            PCT. 11                                                01 
00060050001000016000000000010000006000000000000000000000000000000000000000000000000000000000000000000          Lieutenant Governor                                     UNDER VOTES                           PCT. 1                                                 01 
00060050002000005000000000004000001000000000000000000000000000000000000000000000000000000000000000000          Lieutenant Governor                                     UNDER VOTES                           PCT. 2                                                 01 
00060050003000005000000000003000002000000000000000000000000000000000000000000000000000000000000000000          Lieutenant Governor                                     UNDER VOTES                           PCT. 3                                                 01 
00060050004000016000000000007000009000000000000000000000000000000000000000000000000000000000000000000          Lieutenant Governor                                     UNDER VOTES                           PCT. 4                                                 01 
00060050005000018000000000010000008000000000000000000000000000000000000000000000000000000000000000000          Lieutenant Governor                                     UNDER VOTES                           PCT. 5                                                 01 
00060050006000002000000000002000000000000000000000000000000000000000000000000000000000000000000000000          Lieutenant Governor                                     UNDER VOTES                           PCT. 6                                                 01 
00060050007000013000002000007000004000000000000000000000000000000000000000000000000000000000000000000          Lieutenant Governor                                     UNDER VOTES                           PCT. 7                                                 01 
00060050008000008000000000003000005000000000000000000000000000000000000000000000000000000000000000000          Lieutenant Governor                                     UNDER VOTES                           PCT. 8                                                 01 
00060050009000005000001000002000002000000000000000000000000000000000000000000000000000000000000000000          Lieutenant Governor                                     UNDER VOTES                           PCT. 9                                                 01 
00060050010000008000000000001000007000000000000000000000000000000000000000000000000000000000000000000          Lieutenant Governor                                     UNDER VOTES                           PCT. 10                                                01 
00060050011000007000000000002000005000000000000000000000000000000000000000000000000000000000000000000          Lieutenant Governor                                     UNDER VOTES                           PCT. 11                                                01 
00070010001000157000004000090000063000000000000000000000000000000000000000000000000000000000000000000REP       Attorney General                                        REP Ken Paxton                        PCT. 1                                                 01 
00070010002000210000002000143000065000000000000000000000000000000000000000000000000000000000000000000REP       Attorney General                                        REP Ken Paxton                        PCT. 2                                                 01 
00070010003000241000012000121000108000000000000000000000000000000000000000000000000000000000000000000REP       Attorney General                                        REP Ken Paxton                        PCT. 3                                                 01 
00070010004000197000005000116000076000000000000000000000000000000000000000000000000000000000000000000REP       Attorney General                                        REP Ken Paxton                        PCT. 4                                                 01 
00070010005000702000014000406000282000000000000000000000000000000000000000000000000000000000000000000REP       Attorney General                                        REP Ken Paxton                        PCT. 5                                                 01 
00070010006000089000001000054000034000000000000000000000000000000000000000000000000000000000000000000REP       Attorney General                                        REP Ken Paxton                        PCT. 6                                                 01 
00070010007000638000019000366000253000000000000000000000000000000000000000000000000000000000000000000REP       Attorney General                                        REP Ken Paxton                        PCT. 7                                                 01 
00070010008000306000009000135000162000000000000000000000000000000000000000000000000000000000000000000REP       Attorney General                                        REP Ken Paxton                        PCT. 8                                                 01 
00070010009000323000007000183000133000000000000000000000000000000000000000000000000000000000000000000REP       Attorney General                                        REP Ken Paxton                        PCT. 9                                                 01 
00070010010000670000009000225000436000000000000000000000000000000000000000000000000000000000000000000REP       Attorney General                                        REP Ken Paxton                        PCT. 10                                                01 
00070010011000557000006000209000342000000000000000000000000000000000000000000000000000000000000000000REP       Attorney General                                        REP Ken Paxton                        PCT. 11                                                01 
00070020001000209000013000102000094000000000000000000000000000000000000000000000000000000000000000000DEM       Attorney General                                        DEM Rochelle Mercedes Garza           PCT. 1                                                 01 
00070020002000114000005000081000028000000000000000000000000000000000000000000000000000000000000000000DEM       Attorney General                                        DEM Rochelle Mercedes Garza           PCT. 2                                                 01 
00070020003000064000002000040000022000000000000000000000000000000000000000000000000000000000000000000DEM       Attorney General                                        DEM Rochelle Mercedes Garza           PCT. 3                                                 01 
00070020004000175000019000093000063000000000000000000000000000000000000000000000000000000000000000000DEM       Attorney General                                        DEM Rochelle Mercedes Garza           PCT. 4                                                 01 
00070020005000188000018000101000069000000000000000000000000000000000000000000000000000000000000000000DEM       Attorney General                                        DEM Rochelle Mercedes Garza           PCT. 5                                                 01 
00070020006000047000005000024000018000000000000000000000000000000000000000000000000000000000000000000DEM       Attorney General                                        DEM Rochelle Mercedes Garza           PCT. 6                                                 01 
00070020007000237000028000139000070000000000000000000000000000000000000000000000000000000000000000000DEM       Attorney General                                        DEM Rochelle Mercedes Garza           PCT. 7                                                 01 
00070020008000046000008000023000015000000000000000000000000000000000000000000000000000000000000000000DEM       Attorney General                                        DEM Rochelle Mercedes Garza           PCT. 8                                                 01 
00070020009000096000013000046000037000000000000000000000000000000000000000000000000000000000000000000DEM       Attorney General                                        DEM Rochelle Mercedes Garza           PCT. 9                                                 01 
00070020010000103000012000039000052000000000000000000000000000000000000000000000000000000000000000000DEM       Attorney General                                        DEM Rochelle Mercedes Garza           PCT. 10                                                01 
00070020011000077000007000031000039000000000000000000000000000000000000000000000000000000000000000000DEM       Attorney General                                        DEM Rochelle Mercedes Garza           PCT. 11                                                01 
00070030001000011000000000004000007000000000000000000000000000000000000000000000000000000000000000000LIB       Attorney General                                        LIB Mark Ash                          PCT. 1                                                 01 
00070030002000002000000000001000001000000000000000000000000000000000000000000000000000000000000000000LIB       Attorney General                                        LIB Mark Ash                          PCT. 2                                                 01 
00070030003000009000000000005000004000000000000000000000000000000000000000000000000000000000000000000LIB       Attorney General                                        LIB Mark Ash                          PCT. 3                                                 01 
00070030004000007000001000003000003000000000000000000000000000000000000000000000000000000000000000000LIB       Attorney General                                        LIB Mark Ash                          PCT. 4                                                 01 
00070030005000017000000000012000005000000000000000000000000000000000000000000000000000000000000000000LIB       Attorney General                                        LIB Mark Ash                          PCT. 5                                                 01 
00070030006000003000000000003000000000000000000000000000000000000000000000000000000000000000000000000LIB       Attorney General                                        LIB Mark Ash                          PCT. 6                                                 01 
00070030007000024000000000015000009000000000000000000000000000000000000000000000000000000000000000000LIB       Attorney General                                        LIB Mark Ash                          PCT. 7                                                 01 
00070030008000003000000000000000003000000000000000000000000000000000000000000000000000000000000000000LIB       Attorney General                                        LIB Mark Ash                          PCT. 8                                                 01 
00070030009000008000000000006000002000000000000000000000000000000000000000000000000000000000000000000LIB       Attorney General                                        LIB Mark Ash                          PCT. 9                                                 01 
00070030010000011000001000002000008000000000000000000000000000000000000000000000000000000000000000000LIB       Attorney General                                        LIB Mark Ash                          PCT. 10                                                01 
00070030011000013000000000006000007000000000000000000000000000000000000000000000000000000000000000000LIB       Attorney General                                        LIB Mark Ash                          PCT. 11                                                01 
00070040001000000000000000000000000000000000000000000000000000000000000000000000000000000000000000000          Attorney General                                        OVER VOTES                            PCT. 1                                                 01 
00070040002000000000000000000000000000000000000000000000000000000000000000000000000000000000000000000          Attorney General                                        OVER VOTES                            PCT. 2                                                 01 
00070040003000000000000000000000000000000000000000000000000000000000000000000000000000000000000000000          Attorney General                                        OVER VOTES                            PCT. 3                                                 01 
00070040004000000000000000000000000000000000000000000000000000000000000000000000000000000000000000000          Attorney General                                        OVER VOTES                            PCT. 4                                                 01 
00070040005000000000000000000000000000000000000000000000000000000000000000000000000000000000000000000          Attorney General                                        OVER VOTES                            PCT. 5                                                 01 
00070040006000000000000000000000000000000000000000000000000000000000000000000000000000000000000000000          Attorney General                                        OVER VOTES                            PCT. 6                                                 01 
00070040007000000000000000000000000000000000000000000000000000000000000000000000000000000000000000000          Attorney General                                        OVER VOTES                            PCT. 7                                                 01 
00070040008000000000000000000000000000000000000000000000000000000000000000000000000000000000000000000          Attorney General                                        OVER VOTES                            PCT. 8                                                 01 
00070040009000000000000000000000000000000000000000000000000000000000000000000000000000000000000000000          Attorney General                                        OVER VOTES                            PCT. 9                                                 01 
00070040010000000000000000000000000000000000000000000000000000000000000000000000000000000000000000000          Attorney General                                        OVER VOTES                            PCT. 10                                                01 
00070040011000000000000000000000000000000000000000000000000000000000000000000000000000000000000000000          Attorney General                                        OVER VOTES                            PCT. 11                                                01 
00070050001000014000000000009000005000000000000000000000000000000000000000000000000000000000000000000          Attorney General                                        UNDER VOTES                           PCT. 1                                                 01 
00070050002000006000000000005000001000000000000000000000000000000000000000000000000000000000000000000          Attorney General                                        UNDER VOTES                           PCT. 2                                                 01 
00070050003000008000000000004000004000000000000000000000000000000000000000000000000000000000000000000          Attorney General                                        UNDER VOTES                           PCT. 3                                                 01 
00070050004000016000000000005000011000000000000000000000000000000000000000000000000000000000000000000          Attorney General                                        UNDER VOTES                           PCT. 4                                                 01 
00070050005000018000000000008000010000000000000000000000000000000000000000000000000000000000000000000          Attorney General                                        UNDER VOTES                           PCT. 5                                                 01 
00070050006000004000000000003000001000000000000000000000000000000000000000000000000000000000000000000          Attorney General                                        UNDER VOTES                           PCT. 6                                                 01 
00070050007000014000001000009000004000000000000000000000000000000000000000000000000000000000000000000          Attorney General                                        UNDER VOTES                           PCT. 7                                                 01 
00070050008000007000000000002000005000000000000000000000000000000000000000000000000000000000000000000          Attorney General                                        UNDER VOTES                           PCT. 8                                                 01 
00070050009000006000001000003000002000000000000000000000000000000000000000000000000000000000000000000          Attorney General                                        UNDER VOTES                           PCT. 9                                                 01 
00070050010000012000000000001000011000000000000000000000000000000000000000000000000000000000000000000          Attorney General                                        UNDER VOTES                           PCT. 10                                                01 
00070050011000009000000000003000006000000000000000000000000000000000000000000000000000000000000000000          Attorney General                                        UNDER VOTES                           PCT. 11                                                01 
00080010001000160000004000087000069000000000000000000000000000000000000000000000000000000000000000000REP       Comptroller of Public Accounts                          REP Glenn Hegar                       PCT. 1                                                 01 
00080010002000221000002000151000068000000000000000000000000000000000000000000000000000000000000000000REP       Comptroller of Public Accounts                          REP Glenn Hegar                       PCT. 2                                                 01 
00080010003000246000010000128000108000000000000000000000000000000000000000000000000000000000000000000REP       Comptroller of Public Accounts                          REP Glenn Hegar                       PCT. 3                                                 01 
00080010004000202000004000119000079000000000000000000000000000000000000000000000000000000000000000000REP       Comptroller of Public Accounts                          REP Glenn Hegar                       PCT. 4                                                 01 
00080010005000715000014000416000285000000000000000000000000000000000000000000000000000000000000000000REP       Comptroller of Public Accounts                          REP Glenn Hegar                       PCT. 5                                                 01 
00080010006000087000001000053000033000000000000000000000000000000000000000000000000000000000000000000REP       Comptroller of Public Accounts                          REP Glenn Hegar                       PCT. 6                                                 01 
00080010007000663000021000392000250000000000000000000000000000000000000000000000000000000000000000000REP       Comptroller of Public Accounts                          REP Glenn Hegar                       PCT. 7                                                 01 
00080010008000306000009000134000163000000000000000000000000000000000000000000000000000000000000000000REP       Comptroller of Public Accounts                          REP Glenn Hegar                       PCT. 8                                                 01 
00080010009000333000008000188000137000000000000000000000000000000000000000000000000000000000000000000REP       Comptroller of Public Accounts                          REP Glenn Hegar                       PCT. 9                                                 01 
00080010010000677000010000228000439000000000000000000000000000000000000000000000000000000000000000000REP       Comptroller of Public Accounts                          REP Glenn Hegar                       PCT. 10                                                01 
00080010011000573000006000217000350000000000000000000000000000000000000000000000000000000000000000000REP       Comptroller of Public Accounts                          REP Glenn Hegar                       PCT. 11                                                01 
00080020001000190000013000098000079000000000000000000000000000000000000000000000000000000000000000000DEM       Comptroller of Public Accounts                          DEM Janet T. Dudding                  PCT. 1                                                 01 
00080020002000096000005000067000024000000000000000000000000000000000000000000000000000000000000000000DEM       Comptroller of Public Accounts                          DEM Janet T. Dudding                  PCT. 2                                                 01 
00080020003000058000002000034000022000000000000000000000000000000000000000000000000000000000000000000DEM       Comptroller of Public Accounts                          DEM Janet T. Dudding                  PCT. 3                                                 01 
00080020004000161000018000084000059000000000000000000000000000000000000000000000000000000000000000000DEM       Comptroller of Public Accounts                          DEM Janet T. Dudding                  PCT. 4                                                 01 
00080020005000162000017000084000061000000000000000000000000000000000000000000000000000000000000000000DEM       Comptroller of Public Accounts                          DEM Janet T. Dudding                  PCT. 5                                                 01 
00080020006000050000005000027000018000000000000000000000000000000000000000000000000000000000000000000DEM       Comptroller of Public Accounts                          DEM Janet T. Dudding                  PCT. 6                                                 01 
00080020007000204000023000114000067000000000000000000000000000000000000000000000000000000000000000000DEM       Comptroller of Public Accounts                          DEM Janet T. Dudding                  PCT. 7                                                 01 
00080020008000042000007000021000014000000000000000000000000000000000000000000000000000000000000000000DEM       Comptroller of Public Accounts                          DEM Janet T. Dudding                  PCT. 8                                                 01 
00080020009000082000012000040000030000000000000000000000000000000000000000000000000000000000000000000DEM       Comptroller of Public Accounts                          DEM Janet T. Dudding                  PCT. 9                                                 01 
00080020010000092000012000035000045000000000000000000000000000000000000000000000000000000000000000000DEM       Comptroller of Public Accounts                          DEM Janet T. Dudding                  PCT. 10                                                01 
00080020011000066000007000026000033000000000000000000000000000000000000000000000000000000000000000000DEM       Comptroller of Public Accounts                          DEM Janet T. Dudding                  PCT. 11                                                01 
00080030001000018000000000009000009000000000000000000000000000000000000000000000000000000000000000000LIB       Comptroller of Public Accounts                          LIB V. Alonzo Echevarria-Garza        PCT. 1                                                 01 
00080030002000007000000000006000001000000000000000000000000000000000000000000000000000000000000000000LIB       Comptroller of Public Accounts                          LIB V. Alonzo Echevarria-Garza        PCT. 2                                                 01 
00080030003000006000000000003000003000000000000000000000000000000000000000000000000000000000000000000LIB       Comptroller of Public Accounts                          LIB V. Alonzo Echevarria-Garza        PCT. 3                                                 01 
00080030004000012000003000004000005000000000000000000000000000000000000000000000000000000000000000000LIB       Comptroller of Public Accounts                          LIB V. Alonzo Echevarria-Garza        PCT. 4                                                 01 
00080030005000016000000000011000005000000000000000000000000000000000000000000000000000000000000000000LIB       Comptroller of Public Accounts                          LIB V. Alonzo Echevarria-Garza        PCT. 5                                                 01 
00080030006000001000000000001000000000000000000000000000000000000000000000000000000000000000000000000LIB       Comptroller of Public Accounts                          LIB V. Alonzo Echevarria-Garza        PCT. 6                                                 01 
00080030007000021000000000009000012000000000000000000000000000000000000000000000000000000000000000000LIB       Comptroller of Public Accounts                          LIB V. Alonzo Echevarria-Garza        PCT. 7                                                 01 
00080030008000004000000000003000001000000000000000000000000000000000000000000000000000000000000000000LIB       Comptroller of Public Accounts                          LIB V. Alonzo Echevarria-Garza        PCT. 8                                                 01 
00080030009000007000000000003000004000000000000000000000000000000000000000000000000000000000000000000LIB       Comptroller of Public Accounts                          LIB V. Alonzo Echevarria-Garza        PCT. 9                                                 01 
00080030010000005000000000000000005000000000000000000000000000000000000000000000000000000000000000000LIB       Comptroller of Public Accounts                          LIB V. Alonzo Echevarria-Garza        PCT. 10                                                01 
00080030011000006000000000003000003000000000000000000000000000000000000000000000000000000000000000000LIB       Comptroller of Public Accounts                          LIB V. Alonzo Echevarria-Garza        PCT. 11                                                01 
00080040001000000000000000000000000000000000000000000000000000000000000000000000000000000000000000000          Comptroller of Public Accounts                          OVER VOTES                            PCT. 1                                                 01 
00080040002000000000000000000000000000000000000000000000000000000000000000000000000000000000000000000          Comptroller of Public Accounts                          OVER VOTES                            PCT. 2                                                 01 
00080040003000000000000000000000000000000000000000000000000000000000000000000000000000000000000000000          Comptroller of Public Accounts                          OVER VOTES                            PCT. 3                                                 01 
00080040004000000000000000000000000000000000000000000000000000000000000000000000000000000000000000000          Comptroller of Public Accounts                          OVER VOTES                            PCT. 4                                                 01 
00080040005000000000000000000000000000000000000000000000000000000000000000000000000000000000000000000          Comptroller of Public Accounts                          OVER VOTES                            PCT. 5                                                 01 
00080040006000000000000000000000000000000000000000000000000000000000000000000000000000000000000000000          Comptroller of Public Accounts                          OVER VOTES                            PCT. 6                                                 01 
00080040007000000000000000000000000000000000000000000000000000000000000000000000000000000000000000000          Comptroller of Public Accounts                          OVER VOTES                            PCT. 7                                                 01 
00080040008000000000000000000000000000000000000000000000000000000000000000000000000000000000000000000          Comptroller of Public Accounts                          OVER VOTES                            PCT. 8                                                 01 
00080040009000000000000000000000000000000000000000000000000000000000000000000000000000000000000000000          Comptroller of Public Accounts                          OVER VOTES                            PCT. 9                                                 01 
00080040010000000000000000000000000000000000000000000000000000000000000000000000000000000000000000000          Comptroller of Public Accounts                          OVER VOTES                            PCT. 10                                                01 
00080040011000000000000000000000000000000000000000000000000000000000000000000000000000000000000000000          Comptroller of Public Accounts                          OVER VOTES                            PCT. 11                                                01 
00080050001000023000000000011000012000000000000000000000000000000000000000000000000000000000000000000          Comptroller of Public Accounts                          UNDER VOTES                           PCT. 1                                                 01 
00080050002000008000000000006000002000000000000000000000000000000000000000000000000000000000000000000          Comptroller of Public Accounts                          UNDER VOTES                           PCT. 2                                                 01 
00080050003000012000002000005000005000000000000000000000000000000000000000000000000000000000000000000          Comptroller of Public Accounts                          UNDER VOTES                           PCT. 3                                                 01 
00080050004000020000000000010000010000000000000000000000000000000000000000000000000000000000000000000          Comptroller of Public Accounts                          UNDER VOTES                           PCT. 4                                                 01 
00080050005000032000001000016000015000000000000000000000000000000000000000000000000000000000000000000          Comptroller of Public Accounts                          UNDER VOTES                           PCT. 5                                                 01 
00080050006000005000000000003000002000000000000000000000000000000000000000000000000000000000000000000          Comptroller of Public Accounts                          UNDER VOTES                           PCT. 6                                                 01 
00080050007000025000004000014000007000000000000000000000000000000000000000000000000000000000000000000          Comptroller of Public Accounts                          UNDER VOTES                           PCT. 7                                                 01 
00080050008000010000001000002000007000000000000000000000000000000000000000000000000000000000000000000          Comptroller of Public Accounts                          UNDER VOTES                           PCT. 8                                                 01 
00080050009000011000001000007000003000000000000000000000000000000000000000000000000000000000000000000          Comptroller of Public Accounts                          UNDER VOTES                           PCT. 9                                                 01 
00080050010000022000000000004000018000000000000000000000000000000000000000000000000000000000000000000          Comptroller of Public Accounts                          UNDER VOTES                           PCT. 10                                                01 
00080050011000011000000000003000008000000000000000000000000000000000000000000000000000000000000000000          Comptroller of Public Accounts                          UNDER VOTES                           PCT. 11                                                01 
00090010001000158000004000085000069000000000000000000000000000000000000000000000000000000000000000000REP       Comm. General Land Office                               REP Dawn Buckingham                   PCT. 1                                                 01 
00090010002000218000002000150000066000000000000000000000000000000000000000000000000000000000000000000REP       Comm. General Land Office                               REP Dawn Buckingham                   PCT. 2                                                 01 
00090010003000244000010000126000108000000000000000000000000000000000000000000000000000000000000000000REP       Comm. General Land Office                               REP Dawn Buckingham                   PCT. 3                                                 01 
00090010004000206000004000121000081000000000000000000000000000000000000000000000000000000000000000000REP       Comm. General Land Office                               REP Dawn Buckingham                   PCT. 4                                                 01 
00090010005000703000013000411000279000000000000000000000000000000000000000000000000000000000000000000REP       Comm. General Land Office                               REP Dawn Buckingham                   PCT. 5                                                 01 
00090010006000085000000000051000034000000000000000000000000000000000000000000000000000000000000000000REP       Comm. General Land Office                               REP Dawn Buckingham                   PCT. 6                                                 01 
00090010007000653000019000382000252000000000000000000000000000000000000000000000000000000000000000000REP       Comm. General Land Office                               REP Dawn Buckingham                   PCT. 7                                                 01 
00090010008000306000009000135000162000000000000000000000000000000000000000000000000000000000000000000REP       Comm. General Land Office                               REP Dawn Buckingham                   PCT. 8                                                 01 
00090010009000328000007000186000135000000000000000000000000000000000000000000000000000000000000000000REP       Comm. General Land Office                               REP Dawn Buckingham                   PCT. 9                                                 01 
00090010010000677000010000225000442000000000000000000000000000000000000000000000000000000000000000000REP       Comm. General Land Office                               REP Dawn Buckingham                   PCT. 10                                                01 
00090010011000561000006000214000341000000000000000000000000000000000000000000000000000000000000000000REP       Comm. General Land Office                               REP Dawn Buckingham                   PCT. 11                                                01 
00090020001000199000013000104000082000000000000000000000000000000000000000000000000000000000000000000DEM       Comm. General Land Office                               DEM Jay Kleberg                       PCT. 1                                                 01 
00090020002000106000005000073000028000000000000000000000000000000000000000000000000000000000000000000DEM       Comm. General Land Office                               DEM Jay Kleberg                       PCT. 2                                                 01 
00090020003000064000002000036000026000000000000000000000000000000000000000000000000000000000000000000DEM       Comm. General Land Office                               DEM Jay Kleberg                       PCT. 3                                                 01 
00090020004000168000019000087000062000000000000000000000000000000000000000000000000000000000000000000DEM       Comm. General Land Office                               DEM Jay Kleberg                       PCT. 4                                                 01 
00090020005000189000018000097000074000000000000000000000000000000000000000000000000000000000000000000DEM       Comm. General Land Office                               DEM Jay Kleberg                       PCT. 5                                                 01 
00090020006000051000006000028000017000000000000000000000000000000000000000000000000000000000000000000DEM       Comm. General Land Office                               DEM Jay Kleberg                       PCT. 6                                                 01 
00090020007000231000027000130000074000000000000000000000000000000000000000000000000000000000000000000DEM       Comm. General Land Office                               DEM Jay Kleberg                       PCT. 7                                                 01 
00090020008000043000008000020000015000000000000000000000000000000000000000000000000000000000000000000DEM       Comm. General Land Office                               DEM Jay Kleberg                       PCT. 8                                                 01 
00090020009000090000012000045000033000000000000000000000000000000000000000000000000000000000000000000DEM       Comm. General Land Office                               DEM Jay Kleberg                       PCT. 9                                                 01 
00090020010000100000012000040000048000000000000000000000000000000000000000000000000000000000000000000DEM       Comm. General Land Office                               DEM Jay Kleberg                       PCT. 10                                                01 
00090020011000076000007000029000040000000000000000000000000000000000000000000000000000000000000000000DEM       Comm. General Land Office                               DEM Jay Kleberg                       PCT. 11                                                01 
00090030001000011000000000005000006000000000000000000000000000000000000000000000000000000000000000000GRN       Comm. General Land Office                               GRN Alfred Molison, Jr.               PCT. 1                                                 01 
00090030002000001000000000001000000000000000000000000000000000000000000000000000000000000000000000000GRN       Comm. General Land Office                               GRN Alfred Molison, Jr.               PCT. 2                                                 01 
00090030003000003000000000002000001000000000000000000000000000000000000000000000000000000000000000000GRN       Comm. General Land Office                               GRN Alfred Molison, Jr.               PCT. 3                                                 01 
00090030004000003000001000001000001000000000000000000000000000000000000000000000000000000000000000000GRN       Comm. General Land Office                               GRN Alfred Molison, Jr.               PCT. 4                                                 01 
00090030005000004000001000002000001000000000000000000000000000000000000000000000000000000000000000000GRN       Comm. General Land Office                               GRN Alfred Molison, Jr.               PCT. 5                                                 01 
00090030006000002000000000001000001000000000000000000000000000000000000000000000000000000000000000000GRN       Comm. General Land Office                               GRN Alfred Molison, Jr.               PCT. 6                                                 01 
00090030007000006000000000004000002000000000000000000000000000000000000000000000000000000000000000000GRN       Comm. General Land Office                               GRN Alfred Molison, Jr.               PCT. 7                                                 01 
00090030008000003000000000002000001000000000000000000000000000000000000000000000000000000000000000000GRN       Comm. General Land Office                               GRN Alfred Molison, Jr.               PCT. 8                                                 01 
00090030009000006000001000004000001000000000000000000000000000000000000000000000000000000000000000000GRN       Comm. General Land Office                               GRN Alfred Molison, Jr.               PCT. 9                                                 01 
00090030010000004000000000000000004000000000000000000000000000000000000000000000000000000000000000000GRN       Comm. General Land Office                               GRN Alfred Molison, Jr.               PCT. 10                                                01 
00090030011000008000000000002000006000000000000000000000000000000000000000000000000000000000000000000GRN       Comm. General Land Office                               GRN Alfred Molison, Jr.               PCT. 11                                                01 
00090050001000000000000000000000000000000000000000000000000000000000000000000000000000000000000000000NON       Comm. General Land Office                               Write-in                              PCT. 1                                                 01 
00090050002000000000000000000000000000000000000000000000000000000000000000000000000000000000000000000NON       Comm. General Land Office                               Write-in                              PCT. 2                                                 01 
00090050003000000000000000000000000000000000000000000000000000000000000000000000000000000000000000000NON       Comm. General Land Office                               Write-in                              PCT. 3                                                 01 
00090050004000001000000000001000000000000000000000000000000000000000000000000000000000000000000000000NON       Comm. General Land Office                               Write-in                              PCT. 4                                                 01 
00090050005000000000000000000000000000000000000000000000000000000000000000000000000000000000000000000NON       Comm. General Land Office                               Write-in                              PCT. 5                                                 01 
00090050006000000000000000000000000000000000000000000000000000000000000000000000000000000000000000000NON       Comm. General Land Office                               Write-in                              PCT. 6                                                 01 
00090050007000000000000000000000000000000000000000000000000000000000000000000000000000000000000000000NON       Comm. General Land Office                               Write-in                              PCT. 7                                                 01 
00090050008000000000000000000000000000000000000000000000000000000000000000000000000000000000000000000NON       Comm. General Land Office                               Write-in                              PCT. 8                                                 01 
00090050009000000000000000000000000000000000000000000000000000000000000000000000000000000000000000000NON       Comm. General Land Office                               Write-in                              PCT. 9                                                 01 
00090050010000000000000000000000000000000000000000000000000000000000000000000000000000000000000000000NON       Comm. General Land Office                               Write-in                              PCT. 10                                                01 
00090050011000000000000000000000000000000000000000000000000000000000000000000000000000000000000000000NON       Comm. General Land Office                               Write-in                              PCT. 11                                                01 
00090060001000000000000000000000000000000000000000000000000000000000000000000000000000000000000000000          Comm. General Land Office                               OVER VOTES                            PCT. 1                                                 01 
00090060002000000000000000000000000000000000000000000000000000000000000000000000000000000000000000000          Comm. General Land Office                               OVER VOTES                            PCT. 2                                                 01 
00090060003000000000000000000000000000000000000000000000000000000000000000000000000000000000000000000          Comm. General Land Office                               OVER VOTES                            PCT. 3                                                 01 
00090060004000000000000000000000000000000000000000000000000000000000000000000000000000000000000000000          Comm. General Land Office                               OVER VOTES                            PCT. 4                                                 01 
00090060005000000000000000000000000000000000000000000000000000000000000000000000000000000000000000000          Comm. General Land Office                               OVER VOTES                            PCT. 5                                                 01 
00090060006000000000000000000000000000000000000000000000000000000000000000000000000000000000000000000          Comm. General Land Office                               OVER VOTES                            PCT. 6                                                 01 
00090060007000000000000000000000000000000000000000000000000000000000000000000000000000000000000000000          Comm. General Land Office                               OVER VOTES                            PCT. 7                                                 01 
00090060008000000000000000000000000000000000000000000000000000000000000000000000000000000000000000000          Comm. General Land Office                               OVER VOTES                            PCT. 8                                                 01 
00090060009000000000000000000000000000000000000000000000000000000000000000000000000000000000000000000          Comm. General Land Office                               OVER VOTES                            PCT. 9                                                 01 
00090060010000000000000000000000000000000000000000000000000000000000000000000000000000000000000000000          Comm. General Land Office                               OVER VOTES                            PCT. 10                                                01 
00090060011000000000000000000000000000000000000000000000000000000000000000000000000000000000000000000          Comm. General Land Office                               OVER VOTES                            PCT. 11                                                01 
00090070001000023000000000011000012000000000000000000000000000000000000000000000000000000000000000000          Comm. General Land Office                               UNDER VOTES                           PCT. 1                                                 01 
00090070002000007000000000006000001000000000000000000000000000000000000000000000000000000000000000000          Comm. General Land Office                               UNDER VOTES                           PCT. 2                                                 01 
00090070003000011000002000006000003000000000000000000000000000000000000000000000000000000000000000000          Comm. General Land Office                               UNDER VOTES                           PCT. 3                                                 01 
