00010010001000000000000000000000000000000000000000000000000000000000000000000000000000000000000000000          REGISTERED VOTERS - TOTAL                               REGISTERED VOTERS - TOTAL             Precinct 101                                           00 
00010010002000000000000000000000000000000000000000000000000000000000000000000000000000000000000000000          REGISTERED VOTERS - TOTAL                               REGISTERED VOTERS - TOTAL             Precinct 201                                           00 
00010010003000000000000000000000000000000000000000000000000000000000000000000000000000000000000000000          REGISTERED VOTERS - TOTAL                               REGISTERED VOTERS - TOTAL             Precinct 301                                           00 
00010010004000000000000000000000000000000000000000000000000000000000000000000000000000000000000000000          REGISTERED VOTERS - TOTAL                               REGISTERED VOTERS - TOTAL             Precinct 401                                           00 
00020010001000379000007000198000174000000000000000000000000000000000000000000000000000000000000000000          BALLOTS CAST - TOTAL                                    BALLOTS CAST - TOTAL                  Precinct 101                                           00 
00020010002000452000011000250000191000000000000000000000000000000000000000000000000000000000000000000          BALLOTS CAST - TOTAL                                    BALLOTS CAST - TOTAL                  Precinct 201                                           00 
00020010003000471000011000239000221000000000000000000000000000000000000000000000000000000000000000000          BALLOTS CAST - TOTAL                                    BALLOTS CAST - TOTAL                  Precinct 301                                           00 
00020010004000458000017000223000218000000000000000000000000000000000000000000000000000000000000000000          BALLOTS CAST - TOTAL                                    BALLOTS CAST - TOTAL                  Precinct 401                                           00 
00030010001000334000007000183000144000000000000000000000000000000000000000000000000000000000000000000REP       US Representative, Dist 13                              REP Ronny Jackson                     Precinct 101                                           01 
00030010002000411000009000226000176000000000000000000000000000000000000000000000000000000000000000000REP       US Representative, Dist 13                              REP Ronny Jackson                     Precinct 201                                           01 
00030010003000421000009000223000189000000000000000000000000000000000000000000000000000000000000000000REP       US Representative, Dist 13                              REP Ronny Jackson                     Precinct 301                                           01 
00030010004000409000009000202000198000000000000000000000000000000000000000000000000000000000000000000REP       US Representative, Dist 13                              REP Ronny Jackson                     Precinct 401                                           01 
00030020001000036000000000011000025000000000000000000000000000000000000000000000000000000000000000000DEM       US Representative, Dist 13                              DEM Kathleen Brown                    Precinct 101                                           01 
00030020002000039000002000023000014000000000000000000000000000000000000000000000000000000000000000000DEM       US Representative, Dist 13                              DEM Kathleen Brown                    Precinct 201                                           01 
00030020003000043000001000013000029000000000000000000000000000000000000000000000000000000000000000000DEM       US Representative, Dist 13                              DEM Kathleen Brown                    Precinct 301                                           01 
00030020004000045000005000021000019000000000000000000000000000000000000000000000000000000000000000000DEM       US Representative, Dist 13                              DEM Kathleen Brown                    Precinct 401                                           01 
00040010001000335000007000183000145000000000000000000000000000000000000000000000000000000000000000000REP       Governor                                                REP Greg Abbott                       Precinct 101                                           01 
00040010002000407000009000222000176000000000000000000000000000000000000000000000000000000000000000000REP       Governor                                                REP Greg Abbott                       Precinct 201                                           01 
00040010003000414000009000222000183000000000000000000000000000000000000000000000000000000000000000000REP       Governor                                                REP Greg Abbott                       Precinct 301                                           01 
00040010004000406000011000202000193000000000000000000000000000000000000000000000000000000000000000000REP       Governor                                                REP Greg Abbott                       Precinct 401                                           01 
00040020001000034000000000012000022000000000000000000000000000000000000000000000000000000000000000000DEM       Governor                                                DEM Beto O'Rourke                     Precinct 101                                           01 
00040020002000035000002000023000010000000000000000000000000000000000000000000000000000000000000000000DEM       Governor                                                DEM Beto O'Rourke                     Precinct 201                                           01 
00040020003000048000002000015000031000000000000000000000000000000000000000000000000000000000000000000DEM       Governor                                                DEM Beto O'Rourke                     Precinct 301                                           01 
00040020004000045000006000017000022000000000000000000000000000000000000000000000000000000000000000000DEM       Governor                                                DEM Beto O'Rourke                     Precinct 401                                           01 
00040030001000005000000000002000003000000000000000000000000000000000000000000000000000000000000000000LIB       Governor                                                LIB Mark Tippetts                     Precinct 101                                           01 
00040030002000006000000000001000005000000000000000000000000000000000000000000000000000000000000000000LIB       Governor                                                LIB Mark Tippetts                     Precinct 201                                           01 
00040030003000003000000000001000002000000000000000000000000000000000000000000000000000000000000000000LIB       Governor                                                LIB Mark Tippetts                     Precinct 301                                           01 
00040030004000006000000000004000002000000000000000000000000000000000000000000000000000000000000000000LIB       Governor                                                LIB Mark Tippetts                     Precinct 401                                           01 
00040040001000001000000000000000001000000000000000000000000000000000000000000000000000000000000000000GRN       Governor                                                GRN Delilah Barrios                   Precinct 101                                           01 
00040040002000004000000000004000000000000000000000000000000000000000000000000000000000000000000000000GRN       Governor                                                GRN Delilah Barrios                   Precinct 201                                           01 
00040040003000002000000000000000002000000000000000000000000000000000000000000000000000000000000000000GRN       Governor                                                GRN Delilah Barrios                   Precinct 301                                           01 
00040040004000000000000000000000000000000000000000000000000000000000000000000000000000000000000000000GRN       Governor                                                GRN Delilah Barrios                   Precinct 401                                           01 
00050010001000329000006000178000145000000000000000000000000000000000000000000000000000000000000000000REP       Lieutenant Governor                                     REP Dan Patrick                       Precinct 101                                           01 
00050010002000392000009000215000168000000000000000000000000000000000000000000000000000000000000000000REP       Lieutenant Governor                                     REP Dan Patrick                       Precinct 201                                           01 
00050010003000406000009000217000180000000000000000000000000000000000000000000000000000000000000000000REP       Lieutenant Governor                                     REP Dan Patrick                       Precinct 301                                           01 
00050010004000397000011000196000190000000000000000000000000000000000000000000000000000000000000000000REP       Lieutenant Governor                                     REP Dan Patrick                       Precinct 401                                           01 
00050020001000033000000000010000023000000000000000000000000000000000000000000000000000000000000000000DEM       Lieutenant Governor                                     DEM Mike Collier                      Precinct 101                                           01 
00050020002000043000002000025000016000000000000000000000000000000000000000000000000000000000000000000DEM       Lieutenant Governor                                     DEM Mike Collier                      Precinct 201                                           01 
00050020003000046000002000016000028000000000000000000000000000000000000000000000000000000000000000000DEM       Lieutenant Governor                                     DEM Mike Collier                      Precinct 301                                           01 
00050020004000044000005000021000018000000000000000000000000000000000000000000000000000000000000000000DEM       Lieutenant Governor                                     DEM Mike Collier                      Precinct 401                                           01 
00050030001000006000000000005000001000000000000000000000000000000000000000000000000000000000000000000LIB       Lieutenant Governor                                     LIB Shanna Steele                     Precinct 101                                           01 
00050030002000010000000000006000004000000000000000000000000000000000000000000000000000000000000000000LIB       Lieutenant Governor                                     LIB Shanna Steele                     Precinct 201                                           01 
00050030003000010000000000004000006000000000000000000000000000000000000000000000000000000000000000000LIB       Lieutenant Governor                                     LIB Shanna Steele                     Precinct 301                                           01 
00050030004000013000000000005000008000000000000000000000000000000000000000000000000000000000000000000LIB       Lieutenant Governor                                     LIB Shanna Steele                     Precinct 401                                           01 
00060010001000328000006000180000142000000000000000000000000000000000000000000000000000000000000000000REP       Attorney General                                        REP Ken Paxton                        Precinct 101                                           01 
00060010002000395000009000215000171000000000000000000000000000000000000000000000000000000000000000000REP       Attorney General                                        REP Ken Paxton                        Precinct 201                                           01 
00060010003000408000007000218000183000000000000000000000000000000000000000000000000000000000000000000REP       Attorney General                                        REP Ken Paxton                        Precinct 301                                           01 
00060010004000404000011000197000196000000000000000000000000000000000000000000000000000000000000000000REP       Attorney General                                        REP Ken Paxton                        Precinct 401                                           01 
00060020001000039000000000012000027000000000000000000000000000000000000000000000000000000000000000000DEM       Attorney General                                        DEM Rochelle Mercedes Garza           Precinct 101                                           01 
00060020002000040000002000024000014000000000000000000000000000000000000000000000000000000000000000000DEM       Attorney General                                        DEM Rochelle Mercedes Garza           Precinct 201                                           01 
00060020003000047000002000015000030000000000000000000000000000000000000000000000000000000000000000000DEM       Attorney General                                        DEM Rochelle Mercedes Garza           Precinct 301                                           01 
00060020004000043000005000020000018000000000000000000000000000000000000000000000000000000000000000000DEM       Attorney General                                        DEM Rochelle Mercedes Garza           Precinct 401                                           01 
00060030001000002000000000002000000000000000000000000000000000000000000000000000000000000000000000000LIB       Attorney General                                        LIB Mark Ash                          Precinct 101                                           01 
00060030002000010000000000007000003000000000000000000000000000000000000000000000000000000000000000000LIB       Attorney General                                        LIB Mark Ash                          Precinct 201                                           01 
00060030003000005000000000002000003000000000000000000000000000000000000000000000000000000000000000000LIB       Attorney General                                        LIB Mark Ash                          Precinct 301                                           01 
00060030004000007000000000005000002000000000000000000000000000000000000000000000000000000000000000000LIB       Attorney General                                        LIB Mark Ash                          Precinct 401                                           01 
00070010001000323000006000177000140000000000000000000000000000000000000000000000000000000000000000000REP       Comptroller of Public Accounts                          REP Glenn Hegar                       Precinct 101                                           01 
00070010002000390000009000214000167000000000000000000000000000000000000000000000000000000000000000000REP       Comptroller of Public Accounts                          REP Glenn Hegar                       Precinct 201                                           01 
00070010003000409000009000218000182000000000000000000000000000000000000000000000000000000000000000000REP       Comptroller of Public Accounts                          REP Glenn Hegar                       Precinct 301                                           01 
00070010004000406000010000201000195000000000000000000000000000000000000000000000000000000000000000000REP       Comptroller of Public Accounts                          REP Glenn Hegar                       Precinct 401                                           01 
00070020001000035000000000012000023000000000000000000000000000000000000000000000000000000000000000000DEM       Comptroller of Public Accounts                          DEM Janet T. Dudding                  Precinct 101                                           01 
00070020002000044000002000026000016000000000000000000000000000000000000000000000000000000000000000000DEM       Comptroller of Public Accounts                          DEM Janet T. Dudding                  Precinct 201                                           01 
00070020003000040000002000014000024000000000000000000000000000000000000000000000000000000000000000000DEM       Comptroller of Public Accounts                          DEM Janet T. Dudding                  Precinct 301                                           01 
00070020004000038000006000018000014000000000000000000000000000000000000000000000000000000000000000000DEM       Comptroller of Public Accounts                          DEM Janet T. Dudding                  Precinct 401                                           01 
00070030001000005000000000003000002000000000000000000000000000000000000000000000000000000000000000000LIB       Comptroller of Public Accounts                          LIB V. Alonzo Echevarria-Garza        Precinct 101                                           01 
00070030002000007000000000004000003000000000000000000000000000000000000000000000000000000000000000000LIB       Comptroller of Public Accounts                          LIB V. Alonzo Echevarria-Garza        Precinct 201                                           01 
00070030003000010000000000002000008000000000000000000000000000000000000000000000000000000000000000000LIB       Comptroller of Public Accounts                          LIB V. Alonzo Echevarria-Garza        Precinct 301                                           01 
00070030004000008000000000003000005000000000000000000000000000000000000000000000000000000000000000000LIB       Comptroller of Public Accounts                          LIB V. Alonzo Echevarria-Garza        Precinct 401                                           01 
00080010001000326000007000177000142000000000000000000000000000000000000000000000000000000000000000000REP       Comm. General Land Office                               REP Dawn Buckingham                   Precinct 101                                           01 
00080010002000395000009000215000171000000000000000000000000000000000000000000000000000000000000000000REP       Comm. General Land Office                               REP Dawn Buckingham                   Precinct 201                                           01 
00080010003000411000009000217000185000000000000000000000000000000000000000000000000000000000000000000REP       Comm. General Land Office                               REP Dawn Buckingham                   Precinct 301                                           01 
00080010004000403000011000198000194000000000000000000000000000000000000000000000000000000000000000000REP       Comm. General Land Office                               REP Dawn Buckingham                   Precinct 401                                           01 
00080020001000033000000000012000021000000000000000000000000000000000000000000000000000000000000000000DEM       Comm. General Land Office                               DEM Jay Kleberg                       Precinct 101                                           01 
00080020002000043000002000028000013000000000000000000000000000000000000000000000000000000000000000000DEM       Comm. General Land Office                               DEM Jay Kleberg                       Precinct 201                                           01 
00080020003000043000002000015000026000000000000000000000000000000000000000000000000000000000000000000DEM       Comm. General Land Office                               DEM Jay Kleberg                       Precinct 301                                           01 
00080020004000045000005000022000018000000000000000000000000000000000000000000000000000000000000000000DEM       Comm. General Land Office                               DEM Jay Kleberg                       Precinct 401                                           01 
00080030001000005000000000001000004000000000000000000000000000000000000000000000000000000000000000000GRN       Comm. General Land Office                               GRN Alfred Molison, Jr.               Precinct 101                                           01 
00080030002000001000000000001000000000000000000000000000000000000000000000000000000000000000000000000GRN       Comm. General Land Office                               GRN Alfred Molison, Jr.               Precinct 201                                           01 
00080030003000005000000000002000003000000000000000000000000000000000000000000000000000000000000000000GRN       Comm. General Land Office                               GRN Alfred Molison, Jr.               Precinct 301                                           01 
00080030004000004000000000002000002000000000000000000000000000000000000000000000000000000000000000000GRN       Comm. General Land Office                               GRN Alfred Molison, Jr.               Precinct 401                                           01 
00090010001000332000007000182000143000000000000000000000000000000000000000000000000000000000000000000REP       Commissioner of Agriculture                             REP Sid Miller                        Precinct 101                                           01 
00090010002000399000009000218000172000000000000000000000000000000000000000000000000000000000000000000REP       Commissioner of Agriculture                             REP Sid Miller                        Precinct 201                                           01 
00090010003000422000009000224000189000000000000000000000000000000000000000000000000000000000000000000REP       Commissioner of Agriculture                             REP Sid Miller                        Precinct 301                                           01 
00090010004000406000011000199000196000000000000000000000000000000000000000000000000000000000000000000REP       Commissioner of Agriculture                             REP Sid Miller                        Precinct 401                                           01 
00090020001000035000000000011000024000000000000000000000000000000000000000000000000000000000000000000DEM       Commissioner of Agriculture                             DEM Susan Hays                        Precinct 101                                           01 
00090020002000041000002000025000014000000000000000000000000000000000000000000000000000000000000000000DEM       Commissioner of Agriculture                             DEM Susan Hays                        Precinct 201                                           01 
00090020003000038000002000011000025000000000000000000000000000000000000000000000000000000000000000000DEM       Commissioner of Agriculture                             DEM Susan Hays                        Precinct 301                                           01 
00090020004000047000005000023000019000000000000000000000000000000000000000000000000000000000000000000DEM       Commissioner of Agriculture                             DEM Susan Hays                        Precinct 401                                           01 
00100010001000327000007000176000144000000000000000000000000000000000000000000000000000000000000000000REP       Railroad Commissioner                                   REP Wayne Christian                   Precinct 101                                           01 
00100010002000392000009000214000169000000000000000000000000000000000000000000000000000000000000000000REP       Railroad Commissioner                                   REP Wayne Christian                   Precinct 201                                           01 
00100010003000410000009000217000184000000000000000000000000000000000000000000000000000000000000000000REP       Railroad Commissioner                                   REP Wayne Christian                   Precinct 301                                           01 
00100010004000404000011000198000195000000000000000000000000000000000000000000000000000000000000000000REP       Railroad Commissioner                                   REP Wayne Christian                   Precinct 401                                           01 
00100020001000030000000000009000021000000000000000000000000000000000000000000000000000000000000000000DEM       Railroad Commissioner                                   DEM Luke Warford                      Precinct 101                                           01 
00100020002000035000001000023000011000000000000000000000000000000000000000000000000000000000000000000DEM       Railroad Commissioner                                   DEM Luke Warford                      Precinct 201                                           01 
00100020003000038000002000014000022000000000000000000000000000000000000000000000000000000000000000000DEM       Railroad Commissioner                                   DEM Luke Warford                      Precinct 301                                           01 
00100020004000037000005000019000013000000000000000000000000000000000000000000000000000000000000000000DEM       Railroad Commissioner                                   DEM Luke Warford                      Precinct 401                                           01 
00100030001000005000000000004000001000000000000000000000000000000000000000000000000000000000000000000LIB       Railroad Commissioner                                   LIB Jaime Andres Diez                 Precinct 101                                           01 
00100030002000010000000000003000007000000000000000000000000000000000000000000000000000000000000000000LIB       Railroad Commissioner                                   LIB Jaime Andres Diez                 Precinct 201                                           01 
00100030003000008000000000003000005000000000000000000000000000000000000000000000000000000000000000000LIB       Railroad Commissioner                                   LIB Jaime Andres Diez                 Precinct 301                                           01 
00100030004000011000000000004000007000000000000000000000000000000000000000000000000000000000000000000LIB       Railroad Commissioner                                   LIB Jaime Andres Diez                 Precinct 401                                           01 
00100040001000002000000000001000001000000000000000000000000000000000000000000000000000000000000000000GRN       Railroad Commissioner                                   GRN Hunter Wayne Crow                 Precinct 101                                           01 
00100040002000003000000000003000000000000000000000000000000000000000000000000000000000000000000000000GRN       Railroad Commissioner                                   GRN Hunter Wayne Crow                 Precinct 201                                           01 
00100040003000003000000000000000003000000000000000000000000000000000000000000000000000000000000000000GRN       Railroad Commissioner                                   GRN Hunter Wayne Crow                 Precinct 301                                           01 
00100040004000000000000000000000000000000000000000000000000000000000000000000000000000000000000000000GRN       Railroad Commissioner                                   GRN Hunter Wayne Crow                 Precinct 401                                           01 
00110010001000324000007000174000143000000000000000000000000000000000000000000000000000000000000000000REP       Justice, Supreme Ct. Pl. 3                              REP Debra Lehrmann                    Precinct 101                                           01 
00110010002000391000009000215000167000000000000000000000000000000000000000000000000000000000000000000REP       Justice, Supreme Ct. Pl. 3                              REP Debra Lehrmann                    Precinct 201                                           01 
00110010003000412000007000221000184000000000000000000000000000000000000000000000000000000000000000000REP       Justice, Supreme Ct. Pl. 3                              REP Debra Lehrmann                    Precinct 301                                           01 
00110010004000403000011000196000196000000000000000000000000000000000000000000000000000000000000000000REP       Justice, Supreme Ct. Pl. 3                              REP Debra Lehrmann                    Precinct 401                                           01 
00110020001000034000000000013000021000000000000000000000000000000000000000000000000000000000000000000DEM       Justice, Supreme Ct. Pl. 3                              DEM Erin A. Nowell                    Precinct 101                                           01 
00110020002000037000002000024000011000000000000000000000000000000000000000000000000000000000000000000DEM       Justice, Supreme Ct. Pl. 3                              DEM Erin A. Nowell                    Precinct 201                                           01 
00110020003000041000002000012000027000000000000000000000000000000000000000000000000000000000000000000DEM       Justice, Supreme Ct. Pl. 3                              DEM Erin A. Nowell                    Precinct 301                                           01 
00110020004000040000005000020000015000000000000000000000000000000000000000000000000000000000000000000DEM       Justice, Supreme Ct. Pl. 3                              DEM Erin A. Nowell                    Precinct 401                                           01 
00110030001000007000000000004000003000000000000000000000000000000000000000000000000000000000000000000LIB       Justice, Supreme Ct. Pl. 3                              LIB Thomas Edward Oxford              Precinct 101                                           01 
00110030002000008000000000003000005000000000000000000000000000000000000000000000000000000000000000000LIB       Justice, Supreme Ct. Pl. 3                              LIB Thomas Edward Oxford              Precinct 201                                           01 
00110030003000006000000000002000004000000000000000000000000000000000000000000000000000000000000000000LIB       Justice, Supreme Ct. Pl. 3                              LIB Thomas Edward Oxford              Precinct 301                                           01 
00110030004000009000000000005000004000000000000000000000000000000000000000000000000000000000000000000LIB       Justice, Supreme Ct. Pl. 3                              LIB Thomas Edward Oxford              Precinct 401                                           01 
00120010001000318000007000173000138000000000000000000000000000000000000000000000000000000000000000000REP       Justice, Supreme Ct. Pl. 5                              REP Rebeca Huddle                     Precinct 101                                           01 
00120010002000392000009000211000172000000000000000000000000000000000000000000000000000000000000000000REP       Justice, Supreme Ct. Pl. 5                              REP Rebeca Huddle                     Precinct 201                                           01 
00120010003000407000007000216000184000000000000000000000000000000000000000000000000000000000000000000REP       Justice, Supreme Ct. Pl. 5                              REP Rebeca Huddle                     Precinct 301                                           01 
00120010004000407000010000200000197000000000000000000000000000000000000000000000000000000000000000000REP       Justice, Supreme Ct. Pl. 5                              REP Rebeca Huddle                     Precinct 401                                           01 
00120020001000043000000000016000027000000000000000000000000000000000000000000000000000000000000000000DEM       Justice, Supreme Ct. Pl. 5                              DEM Amanda Reichek                    Precinct 101                                           01 
00120020002000045000002000031000012000000000000000000000000000000000000000000000000000000000000000000DEM       Justice, Supreme Ct. Pl. 5                              DEM Amanda Reichek                    Precinct 201                                           01 
00120020003000050000002000019000029000000000000000000000000000000000000000000000000000000000000000000DEM       Justice, Supreme Ct. Pl. 5                              DEM Amanda Reichek                    Precinct 301                                           01 
00120020004000043000005000019000019000000000000000000000000000000000000000000000000000000000000000000DEM       Justice, Supreme Ct. Pl. 5                              DEM Amanda Reichek                    Precinct 401                                           01 
00130010001000326000007000177000142000000000000000000000000000000000000000000000000000000000000000000REP       Justice, Supreme Ct. Pl. 9                              REP Evan Young                        Precinct 101                                           01 
00130010002000396000009000214000173000000000000000000000000000000000000000000000000000000000000000000REP       Justice, Supreme Ct. Pl. 9                              REP Evan Young                        Precinct 201                                           01 
00130010003000412000007000220000185000000000000000000000000000000000000000000000000000000000000000000REP       Justice, Supreme Ct. Pl. 9                              REP Evan Young                        Precinct 301                                           01 
00130010004000405000011000200000194000000000000000000000000000000000000000000000000000000000000000000REP       Justice, Supreme Ct. Pl. 9                              REP Evan Young                        Precinct 401                                           01 
00130020001000039000000000014000025000000000000000000000000000000000000000000000000000000000000000000DEM       Justice, Supreme Ct. Pl. 9                              DEM Julia Maldonado                   Precinct 101                                           01 
00130020002000043000002000029000012000000000000000000000000000000000000000000000000000000000000000000DEM       Justice, Supreme Ct. Pl. 9                              DEM Julia Maldonado                   Precinct 201                                           01 
00130020003000044000002000014000028000000000000000000000000000000000000000000000000000000000000000000DEM       Justice, Supreme Ct. Pl. 9                              DEM Julia Maldonado                   Precinct 301                                           01 
00130020004000044000005000019000020000000000000000000000000000000000000000000000000000000000000000000DEM       Justice, Supreme Ct. Pl. 9                              DEM Julia Maldonado                   Precinct 401                                           01 
00140010001000324000007000176000141000000000000000000000000000000000000000000000000000000000000000000REP       Judge, Ct of Crim. Appeals, Pl 5                        REP Scott Walker                      Precinct 101                                           01 
00140010002000397000009000216000172000000000000000000000000000000000000000000000000000000000000000000REP       Judge, Ct of Crim. Appeals, Pl 5                        REP Scott Walker                      Precinct 201                                           01 
00140010003000415000007000221000187000000000000000000000000000000000000000000000000000000000000000000REP       Judge, Ct of Crim. Appeals, Pl 5                        REP Scott Walker                      Precinct 301                                           01 
00140010004000406000010000199000197000000000000000000000000000000000000000000000000000000000000000000REP       Judge, Ct of Crim. Appeals, Pl 5                        REP Scott Walker                      Precinct 401                                           01 
00140020001000041000000000016000025000000000000000000000000000000000000000000000000000000000000000000DEM       Judge, Ct of Crim. Appeals, Pl 5                        DEM Dana Huffman                      Precinct 101                                           01 
00140020002000039000002000026000011000000000000000000000000000000000000000000000000000000000000000000DEM       Judge, Ct of Crim. Appeals, Pl 5                        DEM Dana Huffman                      Precinct 201                                           01 
00140020003000042000002000013000027000000000000000000000000000000000000000000000000000000000000000000DEM       Judge, Ct of Crim. Appeals, Pl 5                        DEM Dana Huffman                      Precinct 301                                           01 
00140020004000044000005000020000019000000000000000000000000000000000000000000000000000000000000000000DEM       Judge, Ct of Crim. Appeals, Pl 5                        DEM Dana Huffman                      Precinct 401                                           01 
00150010001000324000007000177000140000000000000000000000000000000000000000000000000000000000000000000REP       Judge, Ct of Crim. Appeals, Pl 6                        REP Jesse F. McClure, III             Precinct 101                                           01 
00150010002000399000009000217000173000000000000000000000000000000000000000000000000000000000000000000REP       Judge, Ct of Crim. Appeals, Pl 6                        REP Jesse F. McClure, III             Precinct 201                                           01 
00150010003000411000007000220000184000000000000000000000000000000000000000000000000000000000000000000REP       Judge, Ct of Crim. Appeals, Pl 6                        REP Jesse F. McClure, III             Precinct 301                                           01 
00150010004000405000011000198000196000000000000000000000000000000000000000000000000000000000000000000REP       Judge, Ct of Crim. Appeals, Pl 6                        REP Jesse F. McClure, III             Precinct 401                                           01 
00150020001000040000000000014000026000000000000000000000000000000000000000000000000000000000000000000DEM       Judge, Ct of Crim. Appeals, Pl 6                        DEM Robert Johnson                    Precinct 101                                           01 
00150020002000036000002000024000010000000000000000000000000000000000000000000000000000000000000000000DEM       Judge, Ct of Crim. Appeals, Pl 6                        DEM Robert Johnson                    Precinct 201                                           01 
00150020003000045000002000014000029000000000000000000000000000000000000000000000000000000000000000000DEM       Judge, Ct of Crim. Appeals, Pl 6                        DEM Robert Johnson                    Precinct 301                                           01 
00150020004000045000005000021000019000000000000000000000000000000000000000000000000000000000000000000DEM       Judge, Ct of Crim. Appeals, Pl 6                        DEM Robert Johnson                    Precinct 401                                           01 
00160010001000238000003000126000109000000000000000000000000000000000000000000000000000000000000000000IND       Sheriff                                                 IND Matthew Bradley                   Precinct 101                                           01 
00160010002000238000002000120000116000000000000000000000000000000000000000000000000000000000000000000IND       Sheriff                                                 IND Matthew Bradley                   Precinct 201                                           01 
00160010003000257000008000128000121000000000000000000000000000000000000000000000000000000000000000000IND       Sheriff                                                 IND Matthew Bradley                   Precinct 301                                           01 
00160010004000267000007000121000139000000000000000000000000000000000000000000000000000000000000000000IND       Sheriff                                                 IND Matthew Bradley                   Precinct 401                                           01 
00160020001000126000004000064000058000000000000000000000000000000000000000000000000000000000000000000IND       Sheriff                                                 IND Danny Gillem                      Precinct 101                                           01 
00160020002000194000005000121000068000000000000000000000000000000000000000000000000000000000000000000IND       Sheriff                                                 IND Danny Gillem                      Precinct 201                                           01 
00160020003000194000003000100000091000000000000000000000000000000000000000000000000000000000000000000IND       Sheriff                                                 IND Danny Gillem                      Precinct 301                                           01 
00160020004000179000008000096000075000000000000000000000000000000000000000000000000000000000000000000IND       Sheriff                                                 IND Danny Gillem                      Precinct 401                                           01 
