00010010001001558000000000000000000000000000000000000000000000000000000000000000000000000000000000000          REGISTERED VOTERS - TOTAL                               REGISTERED VOTERS - TOTAL             Precinct 1                                             00 
00010010002001155000000000000000000000000000000000000000000000000000000000000000000000000000000000000          REGISTERED VOTERS - TOTAL                               REGISTERED VOTERS - TOTAL             Precinct 2                                             00 
00010010003000415000000000000000000000000000000000000000000000000000000000000000000000000000000000000          REGISTERED VOTERS - TOTAL                               REGISTERED VOTERS - TOTAL             Precinct 2E                                            00 
00010010004001352000000000000000000000000000000000000000000000000000000000000000000000000000000000000          REGISTERED VOTERS - TOTAL                               REGISTERED VOTERS - TOTAL             Precinct 3                                             00 
00010010005001511000000000000000000000000000000000000000000000000000000000000000000000000000000000000          REGISTERED VOTERS - TOTAL                               REGISTERED VOTERS - TOTAL             Precinct 4                                             00 
00020010001000820000039000572000209000000000000000000000000000000000000000000000000000000000000000000          BALLOTS CAST - TOTAL                                    BALLOTS CAST - TOTAL                  Precinct 1                                             00 
00020010002000643000026000370000247000000000000000000000000000000000000000000000000000000000000000000          BALLOTS CAST - TOTAL                                    BALLOTS CAST - TOTAL                  Precinct 2                                             00 
00020010003000229000014000148000067000000000000000000000000000000000000000000000000000000000000000000          BALLOTS CAST - TOTAL                                    BALLOTS CAST - TOTAL                  Precinct 2E                                            00 
00020010004000670000020000453000197000000000000000000000000000000000000000000000000000000000000000000          BALLOTS CAST - TOTAL                                    BALLOTS CAST - TOTAL                  Precinct 3                                             00 
00020010005000880000036000642000202000000000000000000000000000000000000000000000000000000000000000000          BALLOTS CAST - TOTAL                                    BALLOTS CAST - TOTAL                  Precinct 4                                             00 
00030010001000000000000000000000000000000000000000000000000000000000000000000000000000000000000000000          BALLOTS CAST - BLANK                                    BALLOTS CAST - BLANK                  Precinct 1                                             00 
00030010002000000000000000000000000000000000000000000000000000000000000000000000000000000000000000000          BALLOTS CAST - BLANK                                    BALLOTS CAST - BLANK                  Precinct 2                                             00 
00030010003000000000000000000000000000000000000000000000000000000000000000000000000000000000000000000          BALLOTS CAST - BLANK                                    BALLOTS CAST - BLANK                  Precinct 2E                                            00 
00030010004000000000000000000000000000000000000000000000000000000000000000000000000000000000000000000          BALLOTS CAST - BLANK                                    BALLOTS CAST - BLANK                  Precinct 3                                             00 
00030010005000000000000000000000000000000000000000000000000000000000000000000000000000000000000000000          BALLOTS CAST - BLANK                                    BALLOTS CAST - BLANK                  Precinct 4                                             00 
00040010001000755000026000536000193000000000000000000000000000000000000000000000000000000000000000000REP       United States Representative, District 11               REP August Pfluger                    Precinct 1                                             01 
00040010002000568000012000341000215000000000000000000000000000000000000000000000000000000000000000000REP       United States Representative, District 11               REP August Pfluger                    Precinct 2                                             01 
00040010003000201000011000131000059000000000000000000000000000000000000000000000000000000000000000000REP       United States Representative, District 11               REP August Pfluger                    Precinct 2E                                            01 
00040010004000602000016000414000172000000000000000000000000000000000000000000000000000000000000000000REP       United States Representative, District 11               REP August Pfluger                    Precinct 3                                             01 
00040010005000784000026000573000185000000000000000000000000000000000000000000000000000000000000000000REP       United States Representative, District 11               REP August Pfluger                    Precinct 4                                             01 
00040020001000000000000000000000000000000000000000000000000000000000000000000000000000000000000000000          United States Representative, District 11               OVER VOTES                            Precinct 1                                             01 
00040020002000000000000000000000000000000000000000000000000000000000000000000000000000000000000000000          United States Representative, District 11               OVER VOTES                            Precinct 2                                             01 
00040020003000000000000000000000000000000000000000000000000000000000000000000000000000000000000000000          United States Representative, District 11               OVER VOTES                            Precinct 2E                                            01 
00040020004000000000000000000000000000000000000000000000000000000000000000000000000000000000000000000          United States Representative, District 11               OVER VOTES                            Precinct 3                                             01 
00040020005000000000000000000000000000000000000000000000000000000000000000000000000000000000000000000          United States Representative, District 11               OVER VOTES                            Precinct 4                                             01 
00040030001000065000013000036000016000000000000000000000000000000000000000000000000000000000000000000          United States Representative, District 11               UNDER VOTES                           Precinct 1                                             01 
00040030002000075000014000029000032000000000000000000000000000000000000000000000000000000000000000000          United States Representative, District 11               UNDER VOTES                           Precinct 2                                             01 
00040030003000028000003000017000008000000000000000000000000000000000000000000000000000000000000000000          United States Representative, District 11               UNDER VOTES                           Precinct 2E                                            01 
00040030004000068000004000039000025000000000000000000000000000000000000000000000000000000000000000000          United States Representative, District 11               UNDER VOTES                           Precinct 3                                             01 
00040030005000096000010000069000017000000000000000000000000000000000000000000000000000000000000000000          United States Representative, District 11               UNDER VOTES                           Precinct 4                                             01 
00050010001000763000032000542000189000000000000000000000000000000000000000000000000000000000000000000REP       Governor                                                REP Greg Abbott                       Precinct 1                                             01 
00050010002000570000019000343000208000000000000000000000000000000000000000000000000000000000000000000REP       Governor                                                REP Greg Abbott                       Precinct 2                                             01 
00050010003000207000011000137000059000000000000000000000000000000000000000000000000000000000000000000REP       Governor                                                REP Greg Abbott                       Precinct 2E                                            01 
00050010004000601000017000418000166000000000000000000000000000000000000000000000000000000000000000000REP       Governor                                                REP Greg Abbott                       Precinct 3                                             01 
00050010005000801000031000581000189000000000000000000000000000000000000000000000000000000000000000000REP       Governor                                                REP Greg Abbott                       Precinct 4                                             01 
00050020001000049000007000026000016000000000000000000000000000000000000000000000000000000000000000000DEM       Governor                                                DEM Beto O'Rourke                     Precinct 1                                             01 
00050020002000066000007000025000034000000000000000000000000000000000000000000000000000000000000000000DEM       Governor                                                DEM Beto O'Rourke                     Precinct 2                                             01 
00050020003000020000003000009000008000000000000000000000000000000000000000000000000000000000000000000DEM       Governor                                                DEM Beto O'Rourke                     Precinct 2E                                            01 
00050020004000058000003000029000026000000000000000000000000000000000000000000000000000000000000000000DEM       Governor                                                DEM Beto O'Rourke                     Precinct 3                                             01 
00050020005000076000005000059000012000000000000000000000000000000000000000000000000000000000000000000DEM       Governor                                                DEM Beto O'Rourke                     Precinct 4                                             01 
00050030001000004000000000002000002000000000000000000000000000000000000000000000000000000000000000000LIB       Governor                                                LIB Mark Tippetts                     Precinct 1                                             01 
00050030002000004000000000001000003000000000000000000000000000000000000000000000000000000000000000000LIB       Governor                                                LIB Mark Tippetts                     Precinct 2                                             01 
00050030003000001000000000001000000000000000000000000000000000000000000000000000000000000000000000000LIB       Governor                                                LIB Mark Tippetts                     Precinct 2E                                            01 
00050030004000006000000000005000001000000000000000000000000000000000000000000000000000000000000000000LIB       Governor                                                LIB Mark Tippetts                     Precinct 3                                             01 
00050030005000003000000000002000001000000000000000000000000000000000000000000000000000000000000000000LIB       Governor                                                LIB Mark Tippetts                     Precinct 4                                             01 
00050040001000003000000000001000002000000000000000000000000000000000000000000000000000000000000000000GRN       Governor                                                GRN Delilah Barrios                   Precinct 1                                             01 
00050040002000002000000000000000002000000000000000000000000000000000000000000000000000000000000000000GRN       Governor                                                GRN Delilah Barrios                   Precinct 2                                             01 
00050040003000000000000000000000000000000000000000000000000000000000000000000000000000000000000000000GRN       Governor                                                GRN Delilah Barrios                   Precinct 2E                                            01 
00050040004000005000000000001000004000000000000000000000000000000000000000000000000000000000000000000GRN       Governor                                                GRN Delilah Barrios                   Precinct 3                                             01 
00050040005000000000000000000000000000000000000000000000000000000000000000000000000000000000000000000GRN       Governor                                                GRN Delilah Barrios                   Precinct 4                                             01 
00050060001000000000000000000000000000000000000000000000000000000000000000000000000000000000000000000NON       Governor                                                Write-in                              Precinct 1                                             01 
00050060002000000000000000000000000000000000000000000000000000000000000000000000000000000000000000000NON       Governor                                                Write-in                              Precinct 2                                             01 
00050060003000001000000000001000000000000000000000000000000000000000000000000000000000000000000000000NON       Governor                                                Write-in                              Precinct 2E                                            01 
00050060004000000000000000000000000000000000000000000000000000000000000000000000000000000000000000000NON       Governor                                                Write-in                              Precinct 3                                             01 
00050060005000000000000000000000000000000000000000000000000000000000000000000000000000000000000000000NON       Governor                                                Write-in                              Precinct 4                                             01 
00050070001000000000000000000000000000000000000000000000000000000000000000000000000000000000000000000          Governor                                                OVER VOTES                            Precinct 1                                             01 
00050070002000000000000000000000000000000000000000000000000000000000000000000000000000000000000000000          Governor                                                OVER VOTES                            Precinct 2                                             01 
00050070003000000000000000000000000000000000000000000000000000000000000000000000000000000000000000000          Governor                                                OVER VOTES                            Precinct 2E                                            01 
00050070004000000000000000000000000000000000000000000000000000000000000000000000000000000000000000000          Governor                                                OVER VOTES                            Precinct 3                                             01 
00050070005000000000000000000000000000000000000000000000000000000000000000000000000000000000000000000          Governor                                                OVER VOTES                            Precinct 4                                             01 
00050080001000001000000000001000000000000000000000000000000000000000000000000000000000000000000000000          Governor                                                UNDER VOTES                           Precinct 1                                             01 
00050080002000001000000000001000000000000000000000000000000000000000000000000000000000000000000000000          Governor                                                UNDER VOTES                           Precinct 2                                             01 
00050080003000000000000000000000000000000000000000000000000000000000000000000000000000000000000000000          Governor                                                UNDER VOTES                           Precinct 2E                                            01 
00050080004000000000000000000000000000000000000000000000000000000000000000000000000000000000000000000          Governor                                                UNDER VOTES                           Precinct 3                                             01 
00050080005000000000000000000000000000000000000000000000000000000000000000000000000000000000000000000          Governor                                                UNDER VOTES                           Precinct 4                                             01 
00060010001000761000032000539000190000000000000000000000000000000000000000000000000000000000000000000REP       Lieutenant Governor                                     REP Dan Patrick                       Precinct 1                                             01 
00060010002000563000019000336000208000000000000000000000000000000000000000000000000000000000000000000REP       Lieutenant Governor                                     REP Dan Patrick                       Precinct 2                                             01 
00060010003000202000012000133000057000000000000000000000000000000000000000000000000000000000000000000REP       Lieutenant Governor                                     REP Dan Patrick                       Precinct 2E                                            01 
00060010004000588000016000406000166000000000000000000000000000000000000000000000000000000000000000000REP       Lieutenant Governor                                     REP Dan Patrick                       Precinct 3                                             01 
00060010005000791000031000575000185000000000000000000000000000000000000000000000000000000000000000000REP       Lieutenant Governor                                     REP Dan Patrick                       Precinct 4                                             01 
00060020001000053000007000029000017000000000000000000000000000000000000000000000000000000000000000000DEM       Lieutenant Governor                                     DEM Mike Collier                      Precinct 1                                             01 
00060020002000068000007000027000034000000000000000000000000000000000000000000000000000000000000000000DEM       Lieutenant Governor                                     DEM Mike Collier                      Precinct 2                                             01 
00060020003000022000002000010000010000000000000000000000000000000000000000000000000000000000000000000DEM       Lieutenant Governor                                     DEM Mike Collier                      Precinct 2E                                            01 
00060020004000062000004000032000026000000000000000000000000000000000000000000000000000000000000000000DEM       Lieutenant Governor                                     DEM Mike Collier                      Precinct 3                                             01 
00060020005000076000005000059000012000000000000000000000000000000000000000000000000000000000000000000DEM       Lieutenant Governor                                     DEM Mike Collier                      Precinct 4                                             01 
00060030001000004000000000003000001000000000000000000000000000000000000000000000000000000000000000000LIB       Lieutenant Governor                                     LIB Shanna Steele                     Precinct 1                                             01 
00060030002000006000000000004000002000000000000000000000000000000000000000000000000000000000000000000LIB       Lieutenant Governor                                     LIB Shanna Steele                     Precinct 2                                             01 
00060030003000004000000000004000000000000000000000000000000000000000000000000000000000000000000000000LIB       Lieutenant Governor                                     LIB Shanna Steele                     Precinct 2E                                            01 
00060030004000013000000000009000004000000000000000000000000000000000000000000000000000000000000000000LIB       Lieutenant Governor                                     LIB Shanna Steele                     Precinct 3                                             01 
00060030005000007000000000004000003000000000000000000000000000000000000000000000000000000000000000000LIB       Lieutenant Governor                                     LIB Shanna Steele                     Precinct 4                                             01 
00060040001000000000000000000000000000000000000000000000000000000000000000000000000000000000000000000          Lieutenant Governor                                     OVER VOTES                            Precinct 1                                             01 
00060040002000000000000000000000000000000000000000000000000000000000000000000000000000000000000000000          Lieutenant Governor                                     OVER VOTES                            Precinct 2                                             01 
00060040003000000000000000000000000000000000000000000000000000000000000000000000000000000000000000000          Lieutenant Governor                                     OVER VOTES                            Precinct 2E                                            01 
00060040004000000000000000000000000000000000000000000000000000000000000000000000000000000000000000000          Lieutenant Governor                                     OVER VOTES                            Precinct 3                                             01 
00060040005000000000000000000000000000000000000000000000000000000000000000000000000000000000000000000          Lieutenant Governor                                     OVER VOTES                            Precinct 4                                             01 
00060050001000002000000000001000001000000000000000000000000000000000000000000000000000000000000000000          Lieutenant Governor                                     UNDER VOTES                           Precinct 1                                             01 
00060050002000006000000000003000003000000000000000000000000000000000000000000000000000000000000000000          Lieutenant Governor                                     UNDER VOTES                           Precinct 2                                             01 
00060050003000001000000000001000000000000000000000000000000000000000000000000000000000000000000000000          Lieutenant Governor                                     UNDER VOTES                           Precinct 2E                                            01 
00060050004000007000000000006000001000000000000000000000000000000000000000000000000000000000000000000          Lieutenant Governor                                     UNDER VOTES                           Precinct 3                                             01 
00060050005000006000000000004000002000000000000000000000000000000000000000000000000000000000000000000          Lieutenant Governor                                     UNDER VOTES                           Precinct 4                                             01 
00070010001000749000030000533000186000000000000000000000000000000000000000000000000000000000000000000REP       Attorney General                                        REP Ken Paxton                        Precinct 1                                             01 
00070010002000561000019000336000206000000000000000000000000000000000000000000000000000000000000000000REP       Attorney General                                        REP Ken Paxton                        Precinct 2                                             01 
00070010003000202000011000134000057000000000000000000000000000000000000000000000000000000000000000000REP       Attorney General                                        REP Ken Paxton                        Precinct 2E                                            01 
00070010004000591000015000411000165000000000000000000000000000000000000000000000000000000000000000000REP       Attorney General                                        REP Ken Paxton                        Precinct 3                                             01 
00070010005000782000029000570000183000000000000000000000000000000000000000000000000000000000000000000REP       Attorney General                                        REP Ken Paxton                        Precinct 4                                             01 
00070020001000054000007000029000018000000000000000000000000000000000000000000000000000000000000000000DEM       Attorney General                                        DEM Rochelle Mercedes Garza           Precinct 1                                             01 
00070020002000068000007000028000033000000000000000000000000000000000000000000000000000000000000000000DEM       Attorney General                                        DEM Rochelle Mercedes Garza           Precinct 2                                             01 
00070020003000021000002000010000009000000000000000000000000000000000000000000000000000000000000000000DEM       Attorney General                                        DEM Rochelle Mercedes Garza           Precinct 2E                                            01 
00070020004000065000003000034000028000000000000000000000000000000000000000000000000000000000000000000DEM       Attorney General                                        DEM Rochelle Mercedes Garza           Precinct 3                                             01 
00070020005000082000005000064000013000000000000000000000000000000000000000000000000000000000000000000DEM       Attorney General                                        DEM Rochelle Mercedes Garza           Precinct 4                                             01 
00070030001000008000001000004000003000000000000000000000000000000000000000000000000000000000000000000LIB       Attorney General                                        LIB Mark Ash                          Precinct 1                                             01 
00070030002000008000000000003000005000000000000000000000000000000000000000000000000000000000000000000LIB       Attorney General                                        LIB Mark Ash                          Precinct 2                                             01 
00070030003000004000001000002000001000000000000000000000000000000000000000000000000000000000000000000LIB       Attorney General                                        LIB Mark Ash                          Precinct 2E                                            01 
00070030004000007000000000005000002000000000000000000000000000000000000000000000000000000000000000000LIB       Attorney General                                        LIB Mark Ash                          Precinct 3                                             01 
00070030005000007000001000003000003000000000000000000000000000000000000000000000000000000000000000000LIB       Attorney General                                        LIB Mark Ash                          Precinct 4                                             01 
00070040001000000000000000000000000000000000000000000000000000000000000000000000000000000000000000000          Attorney General                                        OVER VOTES                            Precinct 1                                             01 
00070040002000000000000000000000000000000000000000000000000000000000000000000000000000000000000000000          Attorney General                                        OVER VOTES                            Precinct 2                                             01 
00070040003000000000000000000000000000000000000000000000000000000000000000000000000000000000000000000          Attorney General                                        OVER VOTES                            Precinct 2E                                            01 
00070040004000000000000000000000000000000000000000000000000000000000000000000000000000000000000000000          Attorney General                                        OVER VOTES                            Precinct 3                                             01 
00070040005000000000000000000000000000000000000000000000000000000000000000000000000000000000000000000          Attorney General                                        OVER VOTES                            Precinct 4                                             01 
00070050001000009000001000006000002000000000000000000000000000000000000000000000000000000000000000000          Attorney General                                        UNDER VOTES                           Precinct 1                                             01 
00070050002000006000000000003000003000000000000000000000000000000000000000000000000000000000000000000          Attorney General                                        UNDER VOTES                           Precinct 2                                             01 
00070050003000002000000000002000000000000000000000000000000000000000000000000000000000000000000000000          Attorney General                                        UNDER VOTES                           Precinct 2E                                            01 
00070050004000007000002000003000002000000000000000000000000000000000000000000000000000000000000000000          Attorney General                                        UNDER VOTES                           Precinct 3                                             01 
00070050005000009000001000005000003000000000000000000000000000000000000000000000000000000000000000000          Attorney General                                        UNDER VOTES                           Precinct 4                                             01 
00080010001000753000031000534000188000000000000000000000000000000000000000000000000000000000000000000REP       Comptroller of Public Accounts                          REP Glenn Hegar                       Precinct 1                                             01 
00080010002000562000019000336000207000000000000000000000000000000000000000000000000000000000000000000REP       Comptroller of Public Accounts                          REP Glenn Hegar                       Precinct 2                                             01 
00080010003000204000010000136000058000000000000000000000000000000000000000000000000000000000000000000REP       Comptroller of Public Accounts                          REP Glenn Hegar                       Precinct 2E                                            01 
00080010004000597000016000413000168000000000000000000000000000000000000000000000000000000000000000000REP       Comptroller of Public Accounts                          REP Glenn Hegar                       Precinct 3                                             01 
00080010005000791000031000569000191000000000000000000000000000000000000000000000000000000000000000000REP       Comptroller of Public Accounts                          REP Glenn Hegar                       Precinct 4                                             01 
00080020001000049000007000027000015000000000000000000000000000000000000000000000000000000000000000000DEM       Comptroller of Public Accounts                          DEM Janet T. Dudding                  Precinct 1                                             01 
00080020002000065000007000027000031000000000000000000000000000000000000000000000000000000000000000000DEM       Comptroller of Public Accounts                          DEM Janet T. Dudding                  Precinct 2                                             01 
00080020003000021000003000010000008000000000000000000000000000000000000000000000000000000000000000000DEM       Comptroller of Public Accounts                          DEM Janet T. Dudding                  Precinct 2E                                            01 
00080020004000050000002000027000021000000000000000000000000000000000000000000000000000000000000000000DEM       Comptroller of Public Accounts                          DEM Janet T. Dudding                  Precinct 3                                             01 
00080020005000073000005000060000008000000000000000000000000000000000000000000000000000000000000000000DEM       Comptroller of Public Accounts                          DEM Janet T. Dudding                  Precinct 4                                             01 
00080030001000003000000000002000001000000000000000000000000000000000000000000000000000000000000000000LIB       Comptroller of Public Accounts                          LIB V. Alonzo Echevarria-Garza        Precinct 1                                             01 
00080030002000007000000000004000003000000000000000000000000000000000000000000000000000000000000000000LIB       Comptroller of Public Accounts                          LIB V. Alonzo Echevarria-Garza        Precinct 2                                             01 
00080030003000001000000000000000001000000000000000000000000000000000000000000000000000000000000000000LIB       Comptroller of Public Accounts                          LIB V. Alonzo Echevarria-Garza        Precinct 2E                                            01 
00080030004000011000000000006000005000000000000000000000000000000000000000000000000000000000000000000LIB       Comptroller of Public Accounts                          LIB V. Alonzo Echevarria-Garza        Precinct 3                                             01 
00080030005000005000000000004000001000000000000000000000000000000000000000000000000000000000000000000LIB       Comptroller of Public Accounts                          LIB V. Alonzo Echevarria-Garza        Precinct 4                                             01 
00080040001000000000000000000000000000000000000000000000000000000000000000000000000000000000000000000          Comptroller of Public Accounts                          OVER VOTES                            Precinct 1                                             01 
00080040002000000000000000000000000000000000000000000000000000000000000000000000000000000000000000000          Comptroller of Public Accounts                          OVER VOTES                            Precinct 2                                             01 
00080040003000000000000000000000000000000000000000000000000000000000000000000000000000000000000000000          Comptroller of Public Accounts                          OVER VOTES                            Precinct 2E                                            01 
00080040004000000000000000000000000000000000000000000000000000000000000000000000000000000000000000000          Comptroller of Public Accounts                          OVER VOTES                            Precinct 3                                             01 
00080040005000000000000000000000000000000000000000000000000000000000000000000000000000000000000000000          Comptroller of Public Accounts                          OVER VOTES                            Precinct 4                                             01 
00080050001000015000001000009000005000000000000000000000000000000000000000000000000000000000000000000          Comptroller of Public Accounts                          UNDER VOTES                           Precinct 1                                             01 
00080050002000009000000000003000006000000000000000000000000000000000000000000000000000000000000000000          Comptroller of Public Accounts                          UNDER VOTES                           Precinct 2                                             01 
00080050003000003000001000002000000000000000000000000000000000000000000000000000000000000000000000000          Comptroller of Public Accounts                          UNDER VOTES                           Precinct 2E                                            01 
00080050004000012000002000007000003000000000000000000000000000000000000000000000000000000000000000000          Comptroller of Public Accounts                          UNDER VOTES                           Precinct 3                                             01 
00080050005000011000000000009000002000000000000000000000000000000000000000000000000000000000000000000          Comptroller of Public Accounts                          UNDER VOTES                           Precinct 4                                             01 
00090010001000756000031000536000189000000000000000000000000000000000000000000000000000000000000000000REP       Comm. General Land Office                               REP Dawn Buckingham                   Precinct 1                                             01 
00090010002000561000018000335000208000000000000000000000000000000000000000000000000000000000000000000REP       Comm. General Land Office                               REP Dawn Buckingham                   Precinct 2                                             01 
00090010003000201000012000132000057000000000000000000000000000000000000000000000000000000000000000000REP       Comm. General Land Office                               REP Dawn Buckingham                   Precinct 2E                                            01 
00090010004000598000016000414000168000000000000000000000000000000000000000000000000000000000000000000REP       Comm. General Land Office                               REP Dawn Buckingham                   Precinct 3                                             01 
00090010005000789000031000570000188000000000000000000000000000000000000000000000000000000000000000000REP       Comm. General Land Office                               REP Dawn Buckingham                   Precinct 4                                             01 
00090020001000051000007000029000015000000000000000000000000000000000000000000000000000000000000000000DEM       Comm. General Land Office                               DEM Jay Kleberg                       Precinct 1                                             01 
00090020002000067000007000027000033000000000000000000000000000000000000000000000000000000000000000000DEM       Comm. General Land Office                               DEM Jay Kleberg                       Precinct 2                                             01 
00090020003000023000002000011000010000000000000000000000000000000000000000000000000000000000000000000DEM       Comm. General Land Office                               DEM Jay Kleberg                       Precinct 2E                                            01 
00090020004000051000003000028000020000000000000000000000000000000000000000000000000000000000000000000DEM       Comm. General Land Office                               DEM Jay Kleberg                       Precinct 3                                             01 
00090020005000076000005000059000012000000000000000000000000000000000000000000000000000000000000000000DEM       Comm. General Land Office                               DEM Jay Kleberg                       Precinct 4                                             01 
00090030001000003000000000002000001000000000000000000000000000000000000000000000000000000000000000000GRN       Comm. General Land Office                               GRN Alfred Molison, Jr.               Precinct 1                                             01 
00090030002000002000000000002000000000000000000000000000000000000000000000000000000000000000000000000GRN       Comm. General Land Office                               GRN Alfred Molison, Jr.               Precinct 2                                             01 
00090030003000001000000000001000000000000000000000000000000000000000000000000000000000000000000000000GRN       Comm. General Land Office                               GRN Alfred Molison, Jr.               Precinct 2E                                            01 
00090030004000011000000000005000006000000000000000000000000000000000000000000000000000000000000000000GRN       Comm. General Land Office                               GRN Alfred Molison, Jr.               Precinct 3                                             01 
00090030005000002000000000002000000000000000000000000000000000000000000000000000000000000000000000000GRN       Comm. General Land Office                               GRN Alfred Molison, Jr.               Precinct 4                                             01 
00090050001000000000000000000000000000000000000000000000000000000000000000000000000000000000000000000NON       Comm. General Land Office                               Write-in                              Precinct 1                                             01 
00090050002000001000000000001000000000000000000000000000000000000000000000000000000000000000000000000NON       Comm. General Land Office                               Write-in                              Precinct 2                                             01 
00090050003000001000000000001000000000000000000000000000000000000000000000000000000000000000000000000NON       Comm. General Land Office                               Write-in                              Precinct 2E                                            01 
00090050004000000000000000000000000000000000000000000000000000000000000000000000000000000000000000000NON       Comm. General Land Office                               Write-in                              Precinct 3                                             01 
00090050005000000000000000000000000000000000000000000000000000000000000000000000000000000000000000000NON       Comm. General Land Office                               Write-in                              Precinct 4                                             01 
00090060001000000000000000000000000000000000000000000000000000000000000000000000000000000000000000000          Comm. General Land Office                               OVER VOTES                            Precinct 1                                             01 
00090060002000000000000000000000000000000000000000000000000000000000000000000000000000000000000000000          Comm. General Land Office                               OVER VOTES                            Precinct 2                                             01 
00090060003000000000000000000000000000000000000000000000000000000000000000000000000000000000000000000          Comm. General Land Office                               OVER VOTES                            Precinct 2E                                            01 
00090060004000000000000000000000000000000000000000000000000000000000000000000000000000000000000000000          Comm. General Land Office                               OVER VOTES                            Precinct 3                                             01 
00090060005000000000000000000000000000000000000000000000000000000000000000000000000000000000000000000          Comm. General Land Office                               OVER VOTES                            Precinct 4                                             01 
00090070001000010000001000005000004000000000000000000000000000000000000000000000000000000000000000000          Comm. General Land Office                               UNDER VOTES                           Precinct 1                                             01 
00090070002000012000001000005000006000000000000000000000000000000000000000000000000000000000000000000          Comm. General Land Office                               UNDER VOTES                           Precinct 2                                             01 
00090070003000003000000000003000000000000000000000000000000000000000000000000000000000000000000000000          Comm. General Land Office                               UNDER VOTES                           Precinct 2E                                            01 
00090070004000010000001000006000003000000000000000000000000000000000000000000000000000000000000000000          Comm. General Land Office                               UNDER VOTES                           Precinct 3                                             01 
00090070005000013000000000011000002000000000000000000000000000000000000000000000000000000000000000000          Comm. General Land Office                               UNDER VOTES                           Precinct 4                                             01 
00100010001000758000030000536000192000000000000000000000000000000000000000000000000000000000000000000REP       Commissioner of Agriculture                             REP Sid Miller                        Precinct 1                                             01 
00100010002000560000019000333000208000000000000000000000000000000000000000000000000000000000000000000REP       Commissioner of Agriculture                             REP Sid Miller                        Precinct 2                                             01 
00100010003000203000011000133000059000000000000000000000000000000000000000000000000000000000000000000REP       Commissioner of Agriculture                             REP Sid Miller                        Precinct 2E                                            01 
00100010004000598000016000413000169000000000000000000000000000000000000000000000000000000000000000000REP       Commissioner of Agriculture                             REP Sid Miller                        Precinct 3                                             01 
00100010005000788000030000570000188000000000000000000000000000000000000000000000000000000000000000000REP       Commissioner of Agriculture                             REP Sid Miller                        Precinct 4                                             01 
00100020001000055000008000032000015000000000000000000000000000000000000000000000000000000000000000000DEM       Commissioner of Agriculture                             DEM Susan Hays                        Precinct 1                                             01 
00100020002000073000007000031000035000000000000000000000000000000000000000000000000000000000000000000DEM       Commissioner of Agriculture                             DEM Susan Hays                        Precinct 2                                             01 
00100020003000022000003000011000008000000000000000000000000000000000000000000000000000000000000000000DEM       Commissioner of Agriculture                             DEM Susan Hays                        Precinct 2E                                            01 
00100020004000062000003000033000026000000000000000000000000000000000000000000000000000000000000000000DEM       Commissioner of Agriculture                             DEM Susan Hays                        Precinct 3                                             01 
00100020005000076000005000061000010000000000000000000000000000000000000000000000000000000000000000000DEM       Commissioner of Agriculture                             DEM Susan Hays                        Precinct 4                                             01 
00100030001000000000000000000000000000000000000000000000000000000000000000000000000000000000000000000          Commissioner of Agriculture                             OVER VOTES                            Precinct 1                                             01 
00100030002000000000000000000000000000000000000000000000000000000000000000000000000000000000000000000          Commissioner of Agriculture                             OVER VOTES                            Precinct 2                                             01 
00100030003000000000000000000000000000000000000000000000000000000000000000000000000000000000000000000          Commissioner of Agriculture                             OVER VOTES                            Precinct 2E                                            01 
00100030004000000000000000000000000000000000000000000000000000000000000000000000000000000000000000000          Commissioner of Agriculture                             OVER VOTES                            Precinct 3                                             01 
00100030005000000000000000000000000000000000000000000000000000000000000000000000000000000000000000000          Commissioner of Agriculture                             OVER VOTES                            Precinct 4                                             01 
00100040001000007000001000004000002000000000000000000000000000000000000000000000000000000000000000000          Commissioner of Agriculture                             UNDER VOTES                           Precinct 1                                             01 
00100040002000010000000000006000004000000000000000000000000000000000000000000000000000000000000000000          Commissioner of Agriculture                             UNDER VOTES                           Precinct 2                                             01 
00100040003000004000000000004000000000000000000000000000000000000000000000000000000000000000000000000          Commissioner of Agriculture                             UNDER VOTES                           Precinct 2E                                            01 
00100040004000010000001000007000002000000000000000000000000000000000000000000000000000000000000000000          Commissioner of Agriculture                             UNDER VOTES                           Precinct 3                                             01 
00100040005000016000001000011000004000000000000000000000000000000000000000000000000000000000000000000          Commissioner of Agriculture                             UNDER VOTES                           Precinct 4                                             01 
00110010001000751000031000530000190000000000000000000000000000000000000000000000000000000000000000000REP       Railroad Commissioner                                   REP Wayne Christian                   Precinct 1                                             01 
00110010002000555000018000332000205000000000000000000000000000000000000000000000000000000000000000000REP       Railroad Commissioner                                   REP Wayne Christian                   Precinct 2                                             01 
00110010003000198000011000132000055000000000000000000000000000000000000000000000000000000000000000000REP       Railroad Commissioner                                   REP Wayne Christian                   Precinct 2E                                            01 
00110010004000588000016000405000167000000000000000000000000000000000000000000000000000000000000000000REP       Railroad Commissioner                                   REP Wayne Christian                   Precinct 3                                             01 
00110010005000780000030000568000182000000000000000000000000000000000000000000000000000000000000000000REP       Railroad Commissioner                                   REP Wayne Christian                   Precinct 4                                             01 
00110020001000050000007000029000014000000000000000000000000000000000000000000000000000000000000000000DEM       Railroad Commissioner                                   DEM Luke Warford                      Precinct 1                                             01 
00110020002000066000007000028000031000000000000000000000000000000000000000000000000000000000000000000DEM       Railroad Commissioner                                   DEM Luke Warford                      Precinct 2                                             01 
00110020003000020000003000009000008000000000000000000000000000000000000000000000000000000000000000000DEM       Railroad Commissioner                                   DEM Luke Warford                      Precinct 2E                                            01 
00110020004000053000003000030000020000000000000000000000000000000000000000000000000000000000000000000DEM       Railroad Commissioner                                   DEM Luke Warford                      Precinct 3                                             01 
00110020005000067000003000055000009000000000000000000000000000000000000000000000000000000000000000000DEM       Railroad Commissioner                                   DEM Luke Warford                      Precinct 4                                             01 
00110030001000004000000000003000001000000000000000000000000000000000000000000000000000000000000000000LIB       Railroad Commissioner                                   LIB Jaime Andres Diez                 Precinct 1                                             01 
00110030002000007000000000002000005000000000000000000000000000000000000000000000000000000000000000000LIB       Railroad Commissioner                                   LIB Jaime Andres Diez                 Precinct 2                                             01 
00110030003000004000000000002000002000000000000000000000000000000000000000000000000000000000000000000LIB       Railroad Commissioner                                   LIB Jaime Andres Diez                 Precinct 2E                                            01 
00110030004000013000000000008000005000000000000000000000000000000000000000000000000000000000000000000LIB       Railroad Commissioner                                   LIB Jaime Andres Diez                 Precinct 3                                             01 
00110030005000013000002000004000007000000000000000000000000000000000000000000000000000000000000000000LIB       Railroad Commissioner                                   LIB Jaime Andres Diez                 Precinct 4                                             01 
00110040001000004000000000002000002000000000000000000000000000000000000000000000000000000000000000000GRN       Railroad Commissioner                                   GRN Hunter Wayne Crow                 Precinct 1                                             01 
00110040002000004000000000002000002000000000000000000000000000000000000000000000000000000000000000000GRN       Railroad Commissioner                                   GRN Hunter Wayne Crow                 Precinct 2                                             01 
00110040003000001000000000000000001000000000000000000000000000000000000000000000000000000000000000000GRN       Railroad Commissioner                                   GRN Hunter Wayne Crow                 Precinct 2E                                            01 
00110040004000005000000000003000002000000000000000000000000000000000000000000000000000000000000000000GRN       Railroad Commissioner                                   GRN Hunter Wayne Crow                 Precinct 3                                             01 
00110040005000002000000000002000000000000000000000000000000000000000000000000000000000000000000000000GRN       Railroad Commissioner                                   GRN Hunter Wayne Crow                 Precinct 4                                             01 
00110050001000000000000000000000000000000000000000000000000000000000000000000000000000000000000000000          Railroad Commissioner                                   OVER VOTES                            Precinct 1                                             01 
00110050002000000000000000000000000000000000000000000000000000000000000000000000000000000000000000000          Railroad Commissioner                                   OVER VOTES                            Precinct 2                                             01 
00110050003000000000000000000000000000000000000000000000000000000000000000000000000000000000000000000          Railroad Commissioner                                   OVER VOTES                            Precinct 2E                                            01 
00110050004000001000001000000000000000000000000000000000000000000000000000000000000000000000000000000          Railroad Commissioner                                   OVER VOTES                            Precinct 3                                             01 
00110050005000000000000000000000000000000000000000000000000000000000000000000000000000000000000000000          Railroad Commissioner                                   OVER VOTES                            Precinct 4                                             01 
00110060001000011000001000008000002000000000000000000000000000000000000000000000000000000000000000000          Railroad Commissioner                                   UNDER VOTES                           Precinct 1                                             01 
00110060002000011000001000006000004000000000000000000000000000000000000000000000000000000000000000000          Railroad Commissioner                                   UNDER VOTES                           Precinct 2                                             01 
00110060003000006000000000005000001000000000000000000000000000000000000000000000000000000000000000000          Railroad Commissioner                                   UNDER VOTES                           Precinct 2E                                            01 
00110060004000010000000000007000003000000000000000000000000000000000000000000000000000000000000000000          Railroad Commissioner                                   UNDER VOTES                           Precinct 3                                             01 
00110060005000018000001000013000004000000000000000000000000000000000000000000000000000000000000000000          Railroad Commissioner                                   UNDER VOTES                           Precinct 4                                             01 
00120010001000749000031000531000187000000000000000000000000000000000000000000000000000000000000000000REP       Justice, Supreme Ct. Pl. 3                              REP Debra Lehrmann                    Precinct 1                                             01 
00120010002000553000018000331000204000000000000000000000000000000000000000000000000000000000000000000REP       Justice, Supreme Ct. Pl. 3                              REP Debra Lehrmann                    Precinct 2                                             01 
00120010003000199000012000131000056000000000000000000000000000000000000000000000000000000000000000000REP       Justice, Supreme Ct. Pl. 3                              REP Debra Lehrmann                    Precinct 2E                                            01 
00120010004000591000016000407000168000000000000000000000000000000000000000000000000000000000000000000REP       Justice, Supreme Ct. Pl. 3                              REP Debra Lehrmann                    Precinct 3                                             01 
00120010005000784000031000568000185000000000000000000000000000000000000000000000000000000000000000000REP       Justice, Supreme Ct. Pl. 3                              REP Debra Lehrmann                    Precinct 4                                             01 
00120020001000050000007000027000016000000000000000000000000000000000000000000000000000000000000000000DEM       Justice, Supreme Ct. Pl. 3                              DEM Erin A. Nowell                    Precinct 1                                             01 
00120020002000067000007000028000032000000000000000000000000000000000000000000000000000000000000000000DEM       Justice, Supreme Ct. Pl. 3                              DEM Erin A. Nowell                    Precinct 2                                             01 
00120020003000022000002000011000009000000000000000000000000000000000000000000000000000000000000000000DEM       Justice, Supreme Ct. Pl. 3                              DEM Erin A. Nowell                    Precinct 2E                                            01 
00120020004000053000004000027000022000000000000000000000000000000000000000000000000000000000000000000DEM       Justice, Supreme Ct. Pl. 3                              DEM Erin A. Nowell                    Precinct 3                                             01 
00120020005000074000005000058000011000000000000000000000000000000000000000000000000000000000000000000DEM       Justice, Supreme Ct. Pl. 3                              DEM Erin A. Nowell                    Precinct 4                                             01 
00120030001000008000000000005000003000000000000000000000000000000000000000000000000000000000000000000LIB       Justice, Supreme Ct. Pl. 3                              LIB Thomas Edward Oxford              Precinct 1                                             01 
00120030002000007000000000003000004000000000000000000000000000000000000000000000000000000000000000000LIB       Justice, Supreme Ct. Pl. 3                              LIB Thomas Edward Oxford              Precinct 2                                             01 
00120030003000004000000000003000001000000000000000000000000000000000000000000000000000000000000000000LIB       Justice, Supreme Ct. Pl. 3                              LIB Thomas Edward Oxford              Precinct 2E                                            01 
00120030004000014000000000010000004000000000000000000000000000000000000000000000000000000000000000000LIB       Justice, Supreme Ct. Pl. 3                              LIB Thomas Edward Oxford              Precinct 3                                             01 
00120030005000008000000000006000002000000000000000000000000000000000000000000000000000000000000000000LIB       Justice, Supreme Ct. Pl. 3                              LIB Thomas Edward Oxford              Precinct 4                                             01 
00120040001000000000000000000000000000000000000000000000000000000000000000000000000000000000000000000          Justice, Supreme Ct. Pl. 3                              OVER VOTES                            Precinct 1                                             01 
00120040002000000000000000000000000000000000000000000000000000000000000000000000000000000000000000000          Justice, Supreme Ct. Pl. 3                              OVER VOTES                            Precinct 2                                             01 
00120040003000000000000000000000000000000000000000000000000000000000000000000000000000000000000000000          Justice, Supreme Ct. Pl. 3                              OVER VOTES                            Precinct 2E                                            01 
00120040004000000000000000000000000000000000000000000000000000000000000000000000000000000000000000000          Justice, Supreme Ct. Pl. 3                              OVER VOTES                            Precinct 3                                             01 
00120040005000000000000000000000000000000000000000000000000000000000000000000000000000000000000000000          Justice, Supreme Ct. Pl. 3                              OVER VOTES                            Precinct 4                                             01 
00120050001000013000001000009000003000000000000000000000000000000000000000000000000000000000000000000          Justice, Supreme Ct. Pl. 3                              UNDER VOTES                           Precinct 1                                             01 
00120050002000016000001000008000007000000000000000000000000000000000000000000000000000000000000000000          Justice, Supreme Ct. Pl. 3                              UNDER VOTES                           Precinct 2                                             01 
00120050003000004000000000003000001000000000000000000000000000000000000000000000000000000000000000000          Justice, Supreme Ct. Pl. 3                              UNDER VOTES                           Precinct 2E                                            01 
00120050004000012000000000009000003000000000000000000000000000000000000000000000000000000000000000000          Justice, Supreme Ct. Pl. 3                              UNDER VOTES                           Precinct 3                                             01 
00120050005000014000000000010000004000000000000000000000000000000000000000000000000000000000000000000          Justice, Supreme Ct. Pl. 3                              UNDER VOTES                           Precinct 4                                             01 
00130010001000754000031000536000187000000000000000000000000000000000000000000000000000000000000000000REP       Justice, Supreme Ct. Pl. 5                              REP Rebeca Huddle                     Precinct 1                                             01 
00130010002000561000019000334000208000000000000000000000000000000000000000000000000000000000000000000REP       Justice, Supreme Ct. Pl. 5                              REP Rebeca Huddle                     Precinct 2                                             01 
00130010003000200000010000134000056000000000000000000000000000000000000000000000000000000000000000000REP       Justice, Supreme Ct. Pl. 5                              REP Rebeca Huddle                     Precinct 2E                                            01 
00130010004000600000017000416000167000000000000000000000000000000000000000000000000000000000000000000REP       Justice, Supreme Ct. Pl. 5                              REP Rebeca Huddle                     Precinct 3                                             01 
00130010005000790000030000571000189000000000000000000000000000000000000000000000000000000000000000000REP       Justice, Supreme Ct. Pl. 5                              REP Rebeca Huddle                     Precinct 4                                             01 
00130020001000050000007000026000017000000000000000000000000000000000000000000000000000000000000000000DEM       Justice, Supreme Ct. Pl. 5                              DEM Amanda Reichek                    Precinct 1                                             01 
00130020002000067000007000028000032000000000000000000000000000000000000000000000000000000000000000000DEM       Justice, Supreme Ct. Pl. 5                              DEM Amanda Reichek                    Precinct 2                                             01 
00130020003000024000003000011000010000000000000000000000000000000000000000000000000000000000000000000DEM       Justice, Supreme Ct. Pl. 5                              DEM Amanda Reichek                    Precinct 2E                                            01 
00130020004000057000002000028000027000000000000000000000000000000000000000000000000000000000000000000DEM       Justice, Supreme Ct. Pl. 5                              DEM Amanda Reichek                    Precinct 3                                             01 
00130020005000072000005000057000010000000000000000000000000000000000000000000000000000000000000000000DEM       Justice, Supreme Ct. Pl. 5                              DEM Amanda Reichek                    Precinct 4                                             01 
00130030001000000000000000000000000000000000000000000000000000000000000000000000000000000000000000000          Justice, Supreme Ct. Pl. 5                              OVER VOTES                            Precinct 1                                             01 
00130030002000000000000000000000000000000000000000000000000000000000000000000000000000000000000000000          Justice, Supreme Ct. Pl. 5                              OVER VOTES                            Precinct 2                                             01 
00130030003000000000000000000000000000000000000000000000000000000000000000000000000000000000000000000          Justice, Supreme Ct. Pl. 5                              OVER VOTES                            Precinct 2E                                            01 
00130030004000000000000000000000000000000000000000000000000000000000000000000000000000000000000000000          Justice, Supreme Ct. Pl. 5                              OVER VOTES                            Precinct 3                                             01 
00130030005000000000000000000000000000000000000000000000000000000000000000000000000000000000000000000          Justice, Supreme Ct. Pl. 5                              OVER VOTES                            Precinct 4                                             01 
00130040001000016000001000010000005000000000000000000000000000000000000000000000000000000000000000000          Justice, Supreme Ct. Pl. 5                              UNDER VOTES                           Precinct 1                                             01 
00130040002000015000000000008000007000000000000000000000000000000000000000000000000000000000000000000          Justice, Supreme Ct. Pl. 5                              UNDER VOTES                           Precinct 2                                             01 
00130040003000005000001000003000001000000000000000000000000000000000000000000000000000000000000000000          Justice, Supreme Ct. Pl. 5                              UNDER VOTES                           Precinct 2E                                            01 
00130040004000013000001000009000003000000000000000000000000000000000000000000000000000000000000000000          Justice, Supreme Ct. Pl. 5                              UNDER VOTES                           Precinct 3                                             01 
00130040005000018000001000014000003000000000000000000000000000000000000000000000000000000000000000000          Justice, Supreme Ct. Pl. 5                              UNDER VOTES                           Precinct 4                                             01 
00140010001000752000031000533000188000000000000000000000000000000000000000000000000000000000000000000REP       Justice, Supreme Ct. Pl. 9                              REP Evan Young                        Precinct 1                                             01 
00140010002000556000018000335000203000000000000000000000000000000000000000000000000000000000000000000REP       Justice, Supreme Ct. Pl. 9                              REP Evan Young                        Precinct 2                                             01 
00140010003000199000010000133000056000000000000000000000000000000000000000000000000000000000000000000REP       Justice, Supreme Ct. Pl. 9                              REP Evan Young                        Precinct 2E                                            01 
00140010004000598000016000415000167000000000000000000000000000000000000000000000000000000000000000000REP       Justice, Supreme Ct. Pl. 9                              REP Evan Young                        Precinct 3                                             01 
00140010005000785000029000570000186000000000000000000000000000000000000000000000000000000000000000000REP       Justice, Supreme Ct. Pl. 9                              REP Evan Young                        Precinct 4                                             01 
00140020001000051000007000028000016000000000000000000000000000000000000000000000000000000000000000000DEM       Justice, Supreme Ct. Pl. 9                              DEM Julia Maldonado                   Precinct 1                                             01 
00140020002000069000007000027000035000000000000000000000000000000000000000000000000000000000000000000DEM       Justice, Supreme Ct. Pl. 9                              DEM Julia Maldonado                   Precinct 2                                             01 
00140020003000024000003000012000009000000000000000000000000000000000000000000000000000000000000000000DEM       Justice, Supreme Ct. Pl. 9                              DEM Julia Maldonado                   Precinct 2E                                            01 
00140020004000060000003000030000027000000000000000000000000000000000000000000000000000000000000000000DEM       Justice, Supreme Ct. Pl. 9                              DEM Julia Maldonado                   Precinct 3                                             01 
00140020005000075000005000058000012000000000000000000000000000000000000000000000000000000000000000000DEM       Justice, Supreme Ct. Pl. 9                              DEM Julia Maldonado                   Precinct 4                                             01 
00140030001000000000000000000000000000000000000000000000000000000000000000000000000000000000000000000          Justice, Supreme Ct. Pl. 9                              OVER VOTES                            Precinct 1                                             01 
00140030002000000000000000000000000000000000000000000000000000000000000000000000000000000000000000000          Justice, Supreme Ct. Pl. 9                              OVER VOTES                            Precinct 2                                             01 
00140030003000000000000000000000000000000000000000000000000000000000000000000000000000000000000000000          Justice, Supreme Ct. Pl. 9                              OVER VOTES                            Precinct 2E                                            01 
00140030004000000000000000000000000000000000000000000000000000000000000000000000000000000000000000000          Justice, Supreme Ct. Pl. 9                              OVER VOTES                            Precinct 3                                             01 
00140030005000000000000000000000000000000000000000000000000000000000000000000000000000000000000000000          Justice, Supreme Ct. Pl. 9                              OVER VOTES                            Precinct 4                                             01 
00140040001000017000001000011000005000000000000000000000000000000000000000000000000000000000000000000          Justice, Supreme Ct. Pl. 9                              UNDER VOTES                           Precinct 1                                             01 
00140040002000018000001000008000009000000000000000000000000000000000000000000000000000000000000000000          Justice, Supreme Ct. Pl. 9                              UNDER VOTES                           Precinct 2                                             01 
00140040003000006000001000003000002000000000000000000000000000000000000000000000000000000000000000000          Justice, Supreme Ct. Pl. 9                              UNDER VOTES                           Precinct 2E                                            01 
00140040004000012000001000008000003000000000000000000000000000000000000000000000000000000000000000000          Justice, Supreme Ct. Pl. 9                              UNDER VOTES                           Precinct 3                                             01 
00140040005000020000002000014000004000000000000000000000000000000000000000000000000000000000000000000          Justice, Supreme Ct. Pl. 9                              UNDER VOTES                           Precinct 4                                             01 
00150010001000753000031000534000188000000000000000000000000000000000000000000000000000000000000000000REP       Judge, Ct of Crim. Appeals, Pl 5                        REP Scott Walker                      Precinct 1                                             01 
00150010002000554000019000331000204000000000000000000000000000000000000000000000000000000000000000000REP       Judge, Ct of Crim. Appeals, Pl 5                        REP Scott Walker                      Precinct 2                                             01 
00150010003000200000011000133000056000000000000000000000000000000000000000000000000000000000000000000REP       Judge, Ct of Crim. Appeals, Pl 5                        REP Scott Walker                      Precinct 2E                                            01 
00150010004000595000016000412000167000000000000000000000000000000000000000000000000000000000000000000REP       Judge, Ct of Crim. Appeals, Pl 5                        REP Scott Walker                      Precinct 3                                             01 
00150010005000786000029000571000186000000000000000000000000000000000000000000000000000000000000000000REP       Judge, Ct of Crim. Appeals, Pl 5                        REP Scott Walker                      Precinct 4                                             01 
00150020001000052000007000029000016000000000000000000000000000000000000000000000000000000000000000000DEM       Judge, Ct of Crim. Appeals, Pl 5                        DEM Dana Huffman                      Precinct 1                                             01 
00150020002000072000007000029000036000000000000000000000000000000000000000000000000000000000000000000DEM       Judge, Ct of Crim. Appeals, Pl 5                        DEM Dana Huffman                      Precinct 2                                             01 
00150020003000023000002000011000010000000000000000000000000000000000000000000000000000000000000000000DEM       Judge, Ct of Crim. Appeals, Pl 5                        DEM Dana Huffman                      Precinct 2E                                            01 
00150020004000063000003000033000027000000000000000000000000000000000000000000000000000000000000000000DEM       Judge, Ct of Crim. Appeals, Pl 5                        DEM Dana Huffman                      Precinct 3                                             01 
00150020005000076000005000060000011000000000000000000000000000000000000000000000000000000000000000000DEM       Judge, Ct of Crim. Appeals, Pl 5                        DEM Dana Huffman                      Precinct 4                                             01 
00150030001000000000000000000000000000000000000000000000000000000000000000000000000000000000000000000          Judge, Ct of Crim. Appeals, Pl 5                        OVER VOTES                            Precinct 1                                             01 
00150030002000000000000000000000000000000000000000000000000000000000000000000000000000000000000000000          Judge, Ct of Crim. Appeals, Pl 5                        OVER VOTES                            Precinct 2                                             01 
00150030003000000000000000000000000000000000000000000000000000000000000000000000000000000000000000000          Judge, Ct of Crim. Appeals, Pl 5                        OVER VOTES                            Precinct 2E                                            01 
00150030004000000000000000000000000000000000000000000000000000000000000000000000000000000000000000000          Judge, Ct of Crim. Appeals, Pl 5                        OVER VOTES                            Precinct 3                                             01 
00150030005000000000000000000000000000000000000000000000000000000000000000000000000000000000000000000          Judge, Ct of Crim. Appeals, Pl 5                        OVER VOTES                            Precinct 4                                             01 
00150040001000015000001000009000005000000000000000000000000000000000000000000000000000000000000000000          Judge, Ct of Crim. Appeals, Pl 5                        UNDER VOTES                           Precinct 1                                             01 
00150040002000017000000000010000007000000000000000000000000000000000000000000000000000000000000000000          Judge, Ct of Crim. Appeals, Pl 5                        UNDER VOTES                           Precinct 2                                             01 
00150040003000006000001000004000001000000000000000000000000000000000000000000000000000000000000000000          Judge, Ct of Crim. Appeals, Pl 5                        UNDER VOTES                           Precinct 2E                                            01 
00150040004000012000001000008000003000000000000000000000000000000000000000000000000000000000000000000          Judge, Ct of Crim. Appeals, Pl 5                        UNDER VOTES                           Precinct 3                                             01 
00150040005000018000002000011000005000000000000000000000000000000000000000000000000000000000000000000          Judge, Ct of Crim. Appeals, Pl 5                        UNDER VOTES                           Precinct 4                                             01 
00160010001000749000031000532000186000000000000000000000000000000000000000000000000000000000000000000REP       Judge, Ct of Crim. Appeals, Pl 6                        REP Jesse F. McClure, III             Precinct 1                                             01 
00160010002000558000019000332000207000000000000000000000000000000000000000000000000000000000000000000REP       Judge, Ct of Crim. Appeals, Pl 6                        REP Jesse F. McClure, III             Precinct 2                                             01 
00160010003000200000011000133000056000000000000000000000000000000000000000000000000000000000000000000REP       Judge, Ct of Crim. Appeals, Pl 6                        REP Jesse F. McClure, III             Precinct 2E                                            01 
00160010004000595000016000410000169000000000000000000000000000000000000000000000000000000000000000000REP       Judge, Ct of Crim. Appeals, Pl 6                        REP Jesse F. McClure, III             Precinct 3                                             01 
00160010005000786000029000571000186000000000000000000000000000000000000000000000000000000000000000000REP       Judge, Ct of Crim. Appeals, Pl 6                        REP Jesse F. McClure, III             Precinct 4                                             01 
00160020001000053000007000029000017000000000000000000000000000000000000000000000000000000000000000000DEM       Judge, Ct of Crim. Appeals, Pl 6                        DEM Robert Johnson                    Precinct 1                                             01 
00160020002000070000007000029000034000000000000000000000000000000000000000000000000000000000000000000DEM       Judge, Ct of Crim. Appeals, Pl 6                        DEM Robert Johnson                    Precinct 2                                             01 
00160020003000023000002000011000010000000000000000000000000000000000000000000000000000000000000000000DEM       Judge, Ct of Crim. Appeals, Pl 6                        DEM Robert Johnson                    Precinct 2E                                            01 
00160020004000060000003000032000025000000000000000000000000000000000000000000000000000000000000000000DEM       Judge, Ct of Crim. Appeals, Pl 6                        DEM Robert Johnson                    Precinct 3                                             01 
00160020005000077000005000061000011000000000000000000000000000000000000000000000000000000000000000000DEM       Judge, Ct of Crim. Appeals, Pl 6                        DEM Robert Johnson                    Precinct 4                                             01 
00160030001000000000000000000000000000000000000000000000000000000000000000000000000000000000000000000          Judge, Ct of Crim. Appeals, Pl 6                        OVER VOTES                            Precinct 1                                             01 
00160030002000000000000000000000000000000000000000000000000000000000000000000000000000000000000000000          Judge, Ct of Crim. Appeals, Pl 6                        OVER VOTES                            Precinct 2                                             01 
00160030003000000000000000000000000000000000000000000000000000000000000000000000000000000000000000000          Judge, Ct of Crim. Appeals, Pl 6                        OVER VOTES                            Precinct 2E                                            01 
00160030004000000000000000000000000000000000000000000000000000000000000000000000000000000000000000000          Judge, Ct of Crim. Appeals, Pl 6                        OVER VOTES                            Precinct 3                                             01 
00160030005000000000000000000000000000000000000000000000000000000000000000000000000000000000000000000          Judge, Ct of Crim. Appeals, Pl 6                        OVER VOTES                            Precinct 4                                             01 
00160040001000018000001000011000006000000000000000000000000000000000000000000000000000000000000000000          Judge, Ct of Crim. Appeals, Pl 6                        UNDER VOTES                           Precinct 1                                             01 
00160040002000015000000000009000006000000000000000000000000000000000000000000000000000000000000000000          Judge, Ct of Crim. Appeals, Pl 6                        UNDER VOTES                           Precinct 2                                             01 
00160040003000006000001000004000001000000000000000000000000000000000000000000000000000000000000000000          Judge, Ct of Crim. Appeals, Pl 6                        UNDER VOTES                           Precinct 2E                                            01 
00160040004000015000001000011000003000000000000000000000000000000000000000000000000000000000000000000          Judge, Ct of Crim. Appeals, Pl 6                        UNDER VOTES                           Precinct 3                                             01 
00160040005000017000002000010000005000000000000000000000000000000000000000000000000000000000000000000          Judge, Ct of Crim. Appeals, Pl 6                        UNDER VOTES                           Precinct 4                                             01 
