00010010001000000000000000000000000000000000000000000000000000000000000000000000000000000000000000000          REGISTERED VOTERS - TOTAL                               REGISTERED VOTERS - TOTAL             101 Columbus/Glidden                                   00 
00010010002000000000000000000000000000000000000000000000000000000000000000000000000000000000000000000          REGISTERED VOTERS - TOTAL                               REGISTERED VOTERS - TOTAL             102 Rock Island                                        00 
00010010003000000000000000000000000000000000000000000000000000000000000000000000000000000000000000000          REGISTERED VOTERS - TOTAL                               REGISTERED VOTERS - TOTAL             103 Garwood/Nada                                       00 
00010010004000000000000000000000000000000000000000000000000000000000000000000000000000000000000000000          REGISTERED VOTERS - TOTAL                               REGISTERED VOTERS - TOTAL             201 Weimar/Oakland                                     00 
00010010005000000000000000000000000000000000000000000000000000000000000000000000000000000000000000000          REGISTERED VOTERS - TOTAL                               REGISTERED VOTERS - TOTAL             202 Sheridan                                           00 
00010010006000000000000000000000000000000000000000000000000000000000000000000000000000000000000000000          REGISTERED VOTERS - TOTAL                               REGISTERED VOTERS - TOTAL             302 Frelsburg/Brushy                                   00 
00010010007000000000000000000000000000000000000000000000000000000000000000000000000000000000000000000          REGISTERED VOTERS - TOTAL                               REGISTERED VOTERS - TOTAL             303 Mentz                                              00 
00010010008000000000000000000000000000000000000000000000000000000000000000000000000000000000000000000          REGISTERED VOTERS - TOTAL                               REGISTERED VOTERS - TOTAL             304 Bernardo                                           00 
00010010009000000000000000000000000000000000000000000000000000000000000000000000000000000000000000000          REGISTERED VOTERS - TOTAL                               REGISTERED VOTERS - TOTAL             305 North Columbus/Shaws Bend                          00 
00010010010000000000000000000000000000000000000000000000000000000000000000000000000000000000000000000          REGISTERED VOTERS - TOTAL                               REGISTERED VOTERS - TOTAL             401 Alleyton/Altair                                    00 
00010010011000000000000000000000000000000000000000000000000000000000000000000000000000000000000000000          REGISTERED VOTERS - TOTAL                               REGISTERED VOTERS - TOTAL             402 Eagle Lake                                         00 
00020010001001093000054000723000316000000000000000000000000000000000000000000000000000000000000000000          BALLOTS CAST - TOTAL                                    BALLOTS CAST - TOTAL                  101 Columbus/Glidden                                   00 
00020010002000154000002000081000071000000000000000000000000000000000000000000000000000000000000000000          BALLOTS CAST - TOTAL                                    BALLOTS CAST - TOTAL                  102 Rock Island                                        00 
00020010003000353000011000118000224000000000000000000000000000000000000000000000000000000000000000000          BALLOTS CAST - TOTAL                                    BALLOTS CAST - TOTAL                  103 Garwood/Nada                                       00 
00020010004001798000074001157000567000000000000000000000000000000000000000000000000000000000000000000          BALLOTS CAST - TOTAL                                    BALLOTS CAST - TOTAL                  201 Weimar/Oakland                                     00 
00020010005000350000015000154000181000000000000000000000000000000000000000000000000000000000000000000          BALLOTS CAST - TOTAL                                    BALLOTS CAST - TOTAL                  202 Sheridan                                           00 
00020010006000811000079000410000322000000000000000000000000000000000000000000000000000000000000000000          BALLOTS CAST - TOTAL                                    BALLOTS CAST - TOTAL                  302 Frelsburg/Brushy                                   00 
00020010007000409000014000252000143000000000000000000000000000000000000000000000000000000000000000000          BALLOTS CAST - TOTAL                                    BALLOTS CAST - TOTAL                  303 Mentz                                              00 
00020010008000356000009000193000154000000000000000000000000000000000000000000000000000000000000000000          BALLOTS CAST - TOTAL                                    BALLOTS CAST - TOTAL                  304 Bernardo                                           00 
00020010009001023000049000649000325000000000000000000000000000000000000000000000000000000000000000000          BALLOTS CAST - TOTAL                                    BALLOTS CAST - TOTAL                  305 North Columbus/Shaws Bend                          00 
00020010010000250000013000163000074000000000000000000000000000000000000000000000000000000000000000000          BALLOTS CAST - TOTAL                                    BALLOTS CAST - TOTAL                  401 Alleyton/Altair                                    00 
00020010011001043000053000562000428000000000000000000000000000000000000000000000000000000000000000000          BALLOTS CAST - TOTAL                                    BALLOTS CAST - TOTAL                  402 Eagle Lake                                         00 
00030010001000000000000000000000000000000000000000000000000000000000000000000000000000000000000000000          BALLOTS CAST - BLANK                                    BALLOTS CAST - BLANK                  101 Columbus/Glidden                                   00 
00030010002000000000000000000000000000000000000000000000000000000000000000000000000000000000000000000          BALLOTS CAST - BLANK                                    BALLOTS CAST - BLANK                  102 Rock Island                                        00 
00030010003000001000000000000000001000000000000000000000000000000000000000000000000000000000000000000          BALLOTS CAST - BLANK                                    BALLOTS CAST - BLANK                  103 Garwood/Nada                                       00 
00030010004000002000001000000000001000000000000000000000000000000000000000000000000000000000000000000          BALLOTS CAST - BLANK                                    BALLOTS CAST - BLANK                  201 Weimar/Oakland                                     00 
00030010005000000000000000000000000000000000000000000000000000000000000000000000000000000000000000000          BALLOTS CAST - BLANK                                    BALLOTS CAST - BLANK                  202 Sheridan                                           00 
00030010006000000000000000000000000000000000000000000000000000000000000000000000000000000000000000000          BALLOTS CAST - BLANK                                    BALLOTS CAST - BLANK                  302 Frelsburg/Brushy                                   00 
00030010007000001000000000001000000000000000000000000000000000000000000000000000000000000000000000000          BALLOTS CAST - BLANK                                    BALLOTS CAST - BLANK                  303 Mentz                                              00 
00030010008000000000000000000000000000000000000000000000000000000000000000000000000000000000000000000          BALLOTS CAST - BLANK                                    BALLOTS CAST - BLANK                  304 Bernardo                                           00 
00030010009000000000000000000000000000000000000000000000000000000000000000000000000000000000000000000          BALLOTS CAST - BLANK                                    BALLOTS CAST - BLANK                  305 North Columbus/Shaws Bend                          00 
00030010010000000000000000000000000000000000000000000000000000000000000000000000000000000000000000000          BALLOTS CAST - BLANK                                    BALLOTS CAST - BLANK                  401 Alleyton/Altair                                    00 
00030010011000002000000000001000001000000000000000000000000000000000000000000000000000000000000000000          BALLOTS CAST - BLANK                                    BALLOTS CAST - BLANK                  402 Eagle Lake                                         00 
00040010001000845000027000570000248000000000000000000000000000000000000000000000000000000000000000000REP       US Representative, Dist 10                              REP Michael McCaul                    101 Columbus/Glidden                                   01 
00040010002000126000001000063000062000000000000000000000000000000000000000000000000000000000000000000REP       US Representative, Dist 10                              REP Michael McCaul                    102 Rock Island                                        01 
00040010003000320000007000107000206000000000000000000000000000000000000000000000000000000000000000000REP       US Representative, Dist 10                              REP Michael McCaul                    103 Garwood/Nada                                       01 
00040010004001488000038000984000466000000000000000000000000000000000000000000000000000000000000000000REP       US Representative, Dist 10                              REP Michael McCaul                    201 Weimar/Oakland                                     01 
00040010005000308000011000132000165000000000000000000000000000000000000000000000000000000000000000000REP       US Representative, Dist 10                              REP Michael McCaul                    202 Sheridan                                           01 
00040010006000672000018000366000288000000000000000000000000000000000000000000000000000000000000000000REP       US Representative, Dist 10                              REP Michael McCaul                    302 Frelsburg/Brushy                                   01 
00040010007000350000004000221000125000000000000000000000000000000000000000000000000000000000000000000REP       US Representative, Dist 10                              REP Michael McCaul                    303 Mentz                                              01 
00040010008000317000006000173000138000000000000000000000000000000000000000000000000000000000000000000REP       US Representative, Dist 10                              REP Michael McCaul                    304 Bernardo                                           01 
00040010009000818000032000523000263000000000000000000000000000000000000000000000000000000000000000000REP       US Representative, Dist 10                              REP Michael McCaul                    305 North Columbus/Shaws Bend                          01 
00040010010000184000002000129000053000000000000000000000000000000000000000000000000000000000000000000REP       US Representative, Dist 10                              REP Michael McCaul                    401 Alleyton/Altair                                    01 
00040010011000642000025000365000252000000000000000000000000000000000000000000000000000000000000000000REP       US Representative, Dist 10                              REP Michael McCaul                    402 Eagle Lake                                         01 
00040020001000209000024000130000055000000000000000000000000000000000000000000000000000000000000000000DEM       US Representative, Dist 10                              DEM Linda Nuno                        101 Columbus/Glidden                                   01 
00040020002000024000001000017000006000000000000000000000000000000000000000000000000000000000000000000DEM       US Representative, Dist 10                              DEM Linda Nuno                        102 Rock Island                                        01 
00040020003000026000004000009000013000000000000000000000000000000000000000000000000000000000000000000DEM       US Representative, Dist 10                              DEM Linda Nuno                        103 Garwood/Nada                                       01 
00040020004000270000033000149000088000000000000000000000000000000000000000000000000000000000000000000DEM       US Representative, Dist 10                              DEM Linda Nuno                        201 Weimar/Oakland                                     01 
00040020005000029000004000016000009000000000000000000000000000000000000000000000000000000000000000000DEM       US Representative, Dist 10                              DEM Linda Nuno                        202 Sheridan                                           01 
00040020006000074000014000040000020000000000000000000000000000000000000000000000000000000000000000000DEM       US Representative, Dist 10                              DEM Linda Nuno                        302 Frelsburg/Brushy                                   01 
00040020007000044000009000026000009000000000000000000000000000000000000000000000000000000000000000000DEM       US Representative, Dist 10                              DEM Linda Nuno                        303 Mentz                                              01 
00040020008000031000003000017000011000000000000000000000000000000000000000000000000000000000000000000DEM       US Representative, Dist 10                              DEM Linda Nuno                        304 Bernardo                                           01 
00040020009000164000016000101000047000000000000000000000000000000000000000000000000000000000000000000DEM       US Representative, Dist 10                              DEM Linda Nuno                        305 North Columbus/Shaws Bend                          01 
00040020010000056000010000030000016000000000000000000000000000000000000000000000000000000000000000000DEM       US Representative, Dist 10                              DEM Linda Nuno                        401 Alleyton/Altair                                    01 
00040020011000362000027000182000153000000000000000000000000000000000000000000000000000000000000000000DEM       US Representative, Dist 10                              DEM Linda Nuno                        402 Eagle Lake                                         01 
00040030001000019000000000015000004000000000000000000000000000000000000000000000000000000000000000000LIB       US Representative, Dist 10                              LIB Bill Kelsey                       101 Columbus/Glidden                                   01 
00040030002000001000000000000000001000000000000000000000000000000000000000000000000000000000000000000LIB       US Representative, Dist 10                              LIB Bill Kelsey                       102 Rock Island                                        01 
00040030003000002000000000000000002000000000000000000000000000000000000000000000000000000000000000000LIB       US Representative, Dist 10                              LIB Bill Kelsey                       103 Garwood/Nada                                       01 
00040030004000021000001000011000009000000000000000000000000000000000000000000000000000000000000000000LIB       US Representative, Dist 10                              LIB Bill Kelsey                       201 Weimar/Oakland                                     01 
00040030005000005000000000001000004000000000000000000000000000000000000000000000000000000000000000000LIB       US Representative, Dist 10                              LIB Bill Kelsey                       202 Sheridan                                           01 
00040030006000003000000000001000002000000000000000000000000000000000000000000000000000000000000000000LIB       US Representative, Dist 10                              LIB Bill Kelsey                       302 Frelsburg/Brushy                                   01 
00040030007000010000001000003000006000000000000000000000000000000000000000000000000000000000000000000LIB       US Representative, Dist 10                              LIB Bill Kelsey                       303 Mentz                                              01 
00040030008000004000000000002000002000000000000000000000000000000000000000000000000000000000000000000LIB       US Representative, Dist 10                              LIB Bill Kelsey                       304 Bernardo                                           01 
00040030009000022000000000013000009000000000000000000000000000000000000000000000000000000000000000000LIB       US Representative, Dist 10                              LIB Bill Kelsey                       305 North Columbus/Shaws Bend                          01 
00040030010000007000000000003000004000000000000000000000000000000000000000000000000000000000000000000LIB       US Representative, Dist 10                              LIB Bill Kelsey                       401 Alleyton/Altair                                    01 
00040030011000012000000000004000008000000000000000000000000000000000000000000000000000000000000000000LIB       US Representative, Dist 10                              LIB Bill Kelsey                       402 Eagle Lake                                         01 
00040040001000000000000000000000000000000000000000000000000000000000000000000000000000000000000000000          US Representative, Dist 10                              OVER VOTES                            101 Columbus/Glidden                                   01 
00040040002000000000000000000000000000000000000000000000000000000000000000000000000000000000000000000          US Representative, Dist 10                              OVER VOTES                            102 Rock Island                                        01 
00040040003000000000000000000000000000000000000000000000000000000000000000000000000000000000000000000          US Representative, Dist 10                              OVER VOTES                            103 Garwood/Nada                                       01 
00040040004000000000000000000000000000000000000000000000000000000000000000000000000000000000000000000          US Representative, Dist 10                              OVER VOTES                            201 Weimar/Oakland                                     01 
00040040005000000000000000000000000000000000000000000000000000000000000000000000000000000000000000000          US Representative, Dist 10                              OVER VOTES                            202 Sheridan                                           01 
00040040006000000000000000000000000000000000000000000000000000000000000000000000000000000000000000000          US Representative, Dist 10                              OVER VOTES                            302 Frelsburg/Brushy                                   01 
00040040007000000000000000000000000000000000000000000000000000000000000000000000000000000000000000000          US Representative, Dist 10                              OVER VOTES                            303 Mentz                                              01 
00040040008000000000000000000000000000000000000000000000000000000000000000000000000000000000000000000          US Representative, Dist 10                              OVER VOTES                            304 Bernardo                                           01 
00040040009000000000000000000000000000000000000000000000000000000000000000000000000000000000000000000          US Representative, Dist 10                              OVER VOTES                            305 North Columbus/Shaws Bend                          01 
00040040010000000000000000000000000000000000000000000000000000000000000000000000000000000000000000000          US Representative, Dist 10                              OVER VOTES                            401 Alleyton/Altair                                    01 
00040040011000000000000000000000000000000000000000000000000000000000000000000000000000000000000000000          US Representative, Dist 10                              OVER VOTES                            402 Eagle Lake                                         01 
00040050001000020000003000008000009000000000000000000000000000000000000000000000000000000000000000000          US Representative, Dist 10                              UNDER VOTES                           101 Columbus/Glidden                                   01 
00040050002000003000000000001000002000000000000000000000000000000000000000000000000000000000000000000          US Representative, Dist 10                              UNDER VOTES                           102 Rock Island                                        01 
00040050003000005000000000002000003000000000000000000000000000000000000000000000000000000000000000000          US Representative, Dist 10                              UNDER VOTES                           103 Garwood/Nada                                       01 
00040050004000019000002000013000004000000000000000000000000000000000000000000000000000000000000000000          US Representative, Dist 10                              UNDER VOTES                           201 Weimar/Oakland                                     01 
00040050005000008000000000005000003000000000000000000000000000000000000000000000000000000000000000000          US Representative, Dist 10                              UNDER VOTES                           202 Sheridan                                           01 
00040050006000013000000000003000010000000000000000000000000000000000000000000000000000000000000000000          US Representative, Dist 10                              UNDER VOTES                           302 Frelsburg/Brushy                                   01 
00040050007000005000000000002000003000000000000000000000000000000000000000000000000000000000000000000          US Representative, Dist 10                              UNDER VOTES                           303 Mentz                                              01 
00040050008000004000000000001000003000000000000000000000000000000000000000000000000000000000000000000          US Representative, Dist 10                              UNDER VOTES                           304 Bernardo                                           01 
00040050009000019000001000012000006000000000000000000000000000000000000000000000000000000000000000000          US Representative, Dist 10                              UNDER VOTES                           305 North Columbus/Shaws Bend                          01 
00040050010000003000001000001000001000000000000000000000000000000000000000000000000000000000000000000          US Representative, Dist 10                              UNDER VOTES                           401 Alleyton/Altair                                    01 
00040050011000027000001000011000015000000000000000000000000000000000000000000000000000000000000000000          US Representative, Dist 10                              UNDER VOTES                           402 Eagle Lake                                         01 
00050010001000838000023000569000246000000000000000000000000000000000000000000000000000000000000000000REP       Governor                                                REP Greg Abbott                       101 Columbus/Glidden                                   01 
00050010002000125000001000061000063000000000000000000000000000000000000000000000000000000000000000000REP       Governor                                                REP Greg Abbott                       102 Rock Island                                        01 
00050010003000322000008000109000205000000000000000000000000000000000000000000000000000000000000000000REP       Governor                                                REP Greg Abbott                       103 Garwood/Nada                                       01 
00050010004001492000036000987000469000000000000000000000000000000000000000000000000000000000000000000REP       Governor                                                REP Greg Abbott                       201 Weimar/Oakland                                     01 
00050010005000317000011000137000169000000000000000000000000000000000000000000000000000000000000000000REP       Governor                                                REP Greg Abbott                       202 Sheridan                                           01 
00050010006000675000018000366000291000000000000000000000000000000000000000000000000000000000000000000REP       Governor                                                REP Greg Abbott                       302 Frelsburg/Brushy                                   01 
00050010007000346000006000214000126000000000000000000000000000000000000000000000000000000000000000000REP       Governor                                                REP Greg Abbott                       303 Mentz                                              01 
00050010008000316000005000173000138000000000000000000000000000000000000000000000000000000000000000000REP       Governor                                                REP Greg Abbott                       304 Bernardo                                           01 
00050010009000819000031000531000257000000000000000000000000000000000000000000000000000000000000000000REP       Governor                                                REP Greg Abbott                       305 North Columbus/Shaws Bend                          01 
00050010010000186000002000131000053000000000000000000000000000000000000000000000000000000000000000000REP       Governor                                                REP Greg Abbott                       401 Alleyton/Altair                                    01 
00050010011000648000024000368000256000000000000000000000000000000000000000000000000000000000000000000REP       Governor                                                REP Greg Abbott                       402 Eagle Lake                                         01 
00050020001000235000028000143000064000000000000000000000000000000000000000000000000000000000000000000DEM       Governor                                                DEM Beto O'Rourke                     101 Columbus/Glidden                                   01 
00050020002000026000001000019000006000000000000000000000000000000000000000000000000000000000000000000DEM       Governor                                                DEM Beto O'Rourke                     102 Rock Island                                        01 
00050020003000028000003000008000017000000000000000000000000000000000000000000000000000000000000000000DEM       Governor                                                DEM Beto O'Rourke                     103 Garwood/Nada                                       01 
00050020004000287000034000161000092000000000000000000000000000000000000000000000000000000000000000000DEM       Governor                                                DEM Beto O'Rourke                     201 Weimar/Oakland                                     01 
00050020005000030000004000017000009000000000000000000000000000000000000000000000000000000000000000000DEM       Governor                                                DEM Beto O'Rourke                     202 Sheridan                                           01 
00050020006000084000014000043000027000000000000000000000000000000000000000000000000000000000000000000DEM       Governor                                                DEM Beto O'Rourke                     302 Frelsburg/Brushy                                   01 
00050020007000051000008000031000012000000000000000000000000000000000000000000000000000000000000000000DEM       Governor                                                DEM Beto O'Rourke                     303 Mentz                                              01 
00050020008000037000004000017000016000000000000000000000000000000000000000000000000000000000000000000DEM       Governor                                                DEM Beto O'Rourke                     304 Bernardo                                           01 
00050020009000183000017000111000055000000000000000000000000000000000000000000000000000000000000000000DEM       Governor                                                DEM Beto O'Rourke                     305 North Columbus/Shaws Bend                          01 
00050020010000062000011000032000019000000000000000000000000000000000000000000000000000000000000000000DEM       Governor                                                DEM Beto O'Rourke                     401 Alleyton/Altair                                    01 
00050020011000372000029000184000159000000000000000000000000000000000000000000000000000000000000000000DEM       Governor                                                DEM Beto O'Rourke                     402 Eagle Lake                                         01 
00050030001000005000000000004000001000000000000000000000000000000000000000000000000000000000000000000LIB       Governor                                                LIB Mark Tippetts                     101 Columbus/Glidden                                   01 
00050030002000003000000000001000002000000000000000000000000000000000000000000000000000000000000000000LIB       Governor                                                LIB Mark Tippetts                     102 Rock Island                                        01 
00050030003000001000000000001000000000000000000000000000000000000000000000000000000000000000000000000LIB       Governor                                                LIB Mark Tippetts                     103 Garwood/Nada                                       01 
00050030004000009000002000005000002000000000000000000000000000000000000000000000000000000000000000000LIB       Governor                                                LIB Mark Tippetts                     201 Weimar/Oakland                                     01 
00050030005000002000000000000000002000000000000000000000000000000000000000000000000000000000000000000LIB       Governor                                                LIB Mark Tippetts                     202 Sheridan                                           01 
00050030006000000000000000000000000000000000000000000000000000000000000000000000000000000000000000000LIB       Governor                                                LIB Mark Tippetts                     302 Frelsburg/Brushy                                   01 
00050030007000006000000000003000003000000000000000000000000000000000000000000000000000000000000000000LIB       Governor                                                LIB Mark Tippetts                     303 Mentz                                              01 
00050030008000002000000000002000000000000000000000000000000000000000000000000000000000000000000000000LIB       Governor                                                LIB Mark Tippetts                     304 Bernardo                                           01 
00050030009000012000000000005000007000000000000000000000000000000000000000000000000000000000000000000LIB       Governor                                                LIB Mark Tippetts                     305 North Columbus/Shaws Bend                          01 
00050030010000002000000000000000002000000000000000000000000000000000000000000000000000000000000000000LIB       Governor                                                LIB Mark Tippetts                     401 Alleyton/Altair                                    01 
00050030011000008000000000004000004000000000000000000000000000000000000000000000000000000000000000000LIB       Governor                                                LIB Mark Tippetts                     402 Eagle Lake                                         01 
00050040001000005000000000002000003000000000000000000000000000000000000000000000000000000000000000000GRN       Governor                                                GRN Delilah Barrios                   101 Columbus/Glidden                                   01 
00050040002000000000000000000000000000000000000000000000000000000000000000000000000000000000000000000GRN       Governor                                                GRN Delilah Barrios                   102 Rock Island                                        01 
00050040003000000000000000000000000000000000000000000000000000000000000000000000000000000000000000000GRN       Governor                                                GRN Delilah Barrios                   103 Garwood/Nada                                       01 
00050040004000002000000000001000001000000000000000000000000000000000000000000000000000000000000000000GRN       Governor                                                GRN Delilah Barrios                   201 Weimar/Oakland                                     01 
00050040005000000000000000000000000000000000000000000000000000000000000000000000000000000000000000000GRN       Governor                                                GRN Delilah Barrios                   202 Sheridan                                           01 
00050040006000000000000000000000000000000000000000000000000000000000000000000000000000000000000000000GRN       Governor                                                GRN Delilah Barrios                   302 Frelsburg/Brushy                                   01 
00050040007000002000000000000000002000000000000000000000000000000000000000000000000000000000000000000GRN       Governor                                                GRN Delilah Barrios                   303 Mentz                                              01 
00050040008000001000000000001000000000000000000000000000000000000000000000000000000000000000000000000GRN       Governor                                                GRN Delilah Barrios                   304 Bernardo                                           01 
00050040009000001000000000000000001000000000000000000000000000000000000000000000000000000000000000000GRN       Governor                                                GRN Delilah Barrios                   305 North Columbus/Shaws Bend                          01 
00050040010000000000000000000000000000000000000000000000000000000000000000000000000000000000000000000GRN       Governor                                                GRN Delilah Barrios                   401 Alleyton/Altair                                    01 
00050040011000006000000000003000003000000000000000000000000000000000000000000000000000000000000000000GRN       Governor                                                GRN Delilah Barrios                   402 Eagle Lake                                         01 
00050060001000000000000000000000000000000000000000000000000000000000000000000000000000000000000000000NON       Governor                                                Write-in                              101 Columbus/Glidden                                   01 
00050060002000000000000000000000000000000000000000000000000000000000000000000000000000000000000000000NON       Governor                                                Write-in                              102 Rock Island                                        01 
00050060003000000000000000000000000000000000000000000000000000000000000000000000000000000000000000000NON       Governor                                                Write-in                              103 Garwood/Nada                                       01 
00050060004000001000000000001000000000000000000000000000000000000000000000000000000000000000000000000NON       Governor                                                Write-in                              201 Weimar/Oakland                                     01 
00050060005000000000000000000000000000000000000000000000000000000000000000000000000000000000000000000NON       Governor                                                Write-in                              202 Sheridan                                           01 
00050060006000000000000000000000000000000000000000000000000000000000000000000000000000000000000000000NON       Governor                                                Write-in                              302 Frelsburg/Brushy                                   01 
00050060007000000000000000000000000000000000000000000000000000000000000000000000000000000000000000000NON       Governor                                                Write-in                              303 Mentz                                              01 
00050060008000000000000000000000000000000000000000000000000000000000000000000000000000000000000000000NON       Governor                                                Write-in                              304 Bernardo                                           01 
00050060009000002000001000000000001000000000000000000000000000000000000000000000000000000000000000000NON       Governor                                                Write-in                              305 North Columbus/Shaws Bend                          01 
00050060010000000000000000000000000000000000000000000000000000000000000000000000000000000000000000000NON       Governor                                                Write-in                              401 Alleyton/Altair                                    01 
00050060011000001000000000000000001000000000000000000000000000000000000000000000000000000000000000000NON       Governor                                                Write-in                              402 Eagle Lake                                         01 
00050070001000000000000000000000000000000000000000000000000000000000000000000000000000000000000000000          Governor                                                OVER VOTES                            101 Columbus/Glidden                                   01 
00050070002000000000000000000000000000000000000000000000000000000000000000000000000000000000000000000          Governor                                                OVER VOTES                            102 Rock Island                                        01 
00050070003000000000000000000000000000000000000000000000000000000000000000000000000000000000000000000          Governor                                                OVER VOTES                            103 Garwood/Nada                                       01 
00050070004000000000000000000000000000000000000000000000000000000000000000000000000000000000000000000          Governor                                                OVER VOTES                            201 Weimar/Oakland                                     01 
00050070005000001000000000000000001000000000000000000000000000000000000000000000000000000000000000000          Governor                                                OVER VOTES                            202 Sheridan                                           01 
00050070006000000000000000000000000000000000000000000000000000000000000000000000000000000000000000000          Governor                                                OVER VOTES                            302 Frelsburg/Brushy                                   01 
00050070007000000000000000000000000000000000000000000000000000000000000000000000000000000000000000000          Governor                                                OVER VOTES                            303 Mentz                                              01 
00050070008000000000000000000000000000000000000000000000000000000000000000000000000000000000000000000          Governor                                                OVER VOTES                            304 Bernardo                                           01 
00050070009000000000000000000000000000000000000000000000000000000000000000000000000000000000000000000          Governor                                                OVER VOTES                            305 North Columbus/Shaws Bend                          01 
00050070010000000000000000000000000000000000000000000000000000000000000000000000000000000000000000000          Governor                                                OVER VOTES                            401 Alleyton/Altair                                    01 
00050070011000000000000000000000000000000000000000000000000000000000000000000000000000000000000000000          Governor                                                OVER VOTES                            402 Eagle Lake                                         01 
00050080001000010000003000005000002000000000000000000000000000000000000000000000000000000000000000000          Governor                                                UNDER VOTES                           101 Columbus/Glidden                                   01 
00050080002000000000000000000000000000000000000000000000000000000000000000000000000000000000000000000          Governor                                                UNDER VOTES                           102 Rock Island                                        01 
00050080003000002000000000000000002000000000000000000000000000000000000000000000000000000000000000000          Governor                                                UNDER VOTES                           103 Garwood/Nada                                       01 
00050080004000007000002000002000003000000000000000000000000000000000000000000000000000000000000000000          Governor                                                UNDER VOTES                           201 Weimar/Oakland                                     01 
00050080005000000000000000000000000000000000000000000000000000000000000000000000000000000000000000000          Governor                                                UNDER VOTES                           202 Sheridan                                           01 
00050080006000003000000000001000002000000000000000000000000000000000000000000000000000000000000000000          Governor                                                UNDER VOTES                           302 Frelsburg/Brushy                                   01 
00050080007000004000000000004000000000000000000000000000000000000000000000000000000000000000000000000          Governor                                                UNDER VOTES                           303 Mentz                                              01 
00050080008000000000000000000000000000000000000000000000000000000000000000000000000000000000000000000          Governor                                                UNDER VOTES                           304 Bernardo                                           01 
00050080009000006000000000002000004000000000000000000000000000000000000000000000000000000000000000000          Governor                                                UNDER VOTES                           305 North Columbus/Shaws Bend                          01 
00050080010000000000000000000000000000000000000000000000000000000000000000000000000000000000000000000          Governor                                                UNDER VOTES                           401 Alleyton/Altair                                    01 
00050080011000008000000000003000005000000000000000000000000000000000000000000000000000000000000000000          Governor                                                UNDER VOTES                           402 Eagle Lake                                         01 
00060010001000830000024000564000242000000000000000000000000000000000000000000000000000000000000000000REP       Lieutenant Governor                                     REP Dan Patrick                       101 Columbus/Glidden                                   01 
00060010002000125000001000061000063000000000000000000000000000000000000000000000000000000000000000000REP       Lieutenant Governor                                     REP Dan Patrick                       102 Rock Island                                        01 
00060010003000317000006000107000204000000000000000000000000000000000000000000000000000000000000000000REP       Lieutenant Governor                                     REP Dan Patrick                       103 Garwood/Nada                                       01 
00060010004001450000033000960000457000000000000000000000000000000000000000000000000000000000000000000REP       Lieutenant Governor                                     REP Dan Patrick                       201 Weimar/Oakland                                     01 
00060010005000308000011000131000166000000000000000000000000000000000000000000000000000000000000000000REP       Lieutenant Governor                                     REP Dan Patrick                       202 Sheridan                                           01 
00060010006000667000018000363000286000000000000000000000000000000000000000000000000000000000000000000REP       Lieutenant Governor                                     REP Dan Patrick                       302 Frelsburg/Brushy                                   01 
00060010007000341000005000210000126000000000000000000000000000000000000000000000000000000000000000000REP       Lieutenant Governor                                     REP Dan Patrick                       303 Mentz                                              01 
00060010008000311000005000171000135000000000000000000000000000000000000000000000000000000000000000000REP       Lieutenant Governor                                     REP Dan Patrick                       304 Bernardo                                           01 
00060010009000796000031000516000249000000000000000000000000000000000000000000000000000000000000000000REP       Lieutenant Governor                                     REP Dan Patrick                       305 North Columbus/Shaws Bend                          01 
00060010010000182000002000125000055000000000000000000000000000000000000000000000000000000000000000000REP       Lieutenant Governor                                     REP Dan Patrick                       401 Alleyton/Altair                                    01 
00060010011000629000021000355000253000000000000000000000000000000000000000000000000000000000000000000REP       Lieutenant Governor                                     REP Dan Patrick                       402 Eagle Lake                                         01 
00060020001000236000029000142000065000000000000000000000000000000000000000000000000000000000000000000DEM       Lieutenant Governor                                     DEM Mike Collier                      101 Columbus/Glidden                                   01 
00060020002000026000001000019000006000000000000000000000000000000000000000000000000000000000000000000DEM       Lieutenant Governor                                     DEM Mike Collier                      102 Rock Island                                        01 
00060020003000033000005000011000017000000000000000000000000000000000000000000000000000000000000000000DEM       Lieutenant Governor                                     DEM Mike Collier                      103 Garwood/Nada                                       01 
00060020004000314000035000180000099000000000000000000000000000000000000000000000000000000000000000000DEM       Lieutenant Governor                                     DEM Mike Collier                      201 Weimar/Oakland                                     01 
00060020005000033000004000020000009000000000000000000000000000000000000000000000000000000000000000000DEM       Lieutenant Governor                                     DEM Mike Collier                      202 Sheridan                                           01 
00060020006000087000014000045000028000000000000000000000000000000000000000000000000000000000000000000DEM       Lieutenant Governor                                     DEM Mike Collier                      302 Frelsburg/Brushy                                   01 
00060020007000053000009000033000011000000000000000000000000000000000000000000000000000000000000000000DEM       Lieutenant Governor                                     DEM Mike Collier                      303 Mentz                                              01 
00060020008000038000004000017000017000000000000000000000000000000000000000000000000000000000000000000DEM       Lieutenant Governor                                     DEM Mike Collier                      304 Bernardo                                           01 
00060020009000184000018000112000054000000000000000000000000000000000000000000000000000000000000000000DEM       Lieutenant Governor                                     DEM Mike Collier                      305 North Columbus/Shaws Bend                          01 
00060020010000058000011000031000016000000000000000000000000000000000000000000000000000000000000000000DEM       Lieutenant Governor                                     DEM Mike Collier                      401 Alleyton/Altair                                    01 
00060020011000379000030000193000156000000000000000000000000000000000000000000000000000000000000000000DEM       Lieutenant Governor                                     DEM Mike Collier                      402 Eagle Lake                                         01 
00060030001000016000000000010000006000000000000000000000000000000000000000000000000000000000000000000LIB       Lieutenant Governor                                     LIB Shanna Steele                     101 Columbus/Glidden                                   01 
00060030002000002000000000000000002000000000000000000000000000000000000000000000000000000000000000000LIB       Lieutenant Governor                                     LIB Shanna Steele                     102 Rock Island                                        01 
00060030003000001000000000000000001000000000000000000000000000000000000000000000000000000000000000000LIB       Lieutenant Governor                                     LIB Shanna Steele                     103 Garwood/Nada                                       01 
00060030004000024000004000012000008000000000000000000000000000000000000000000000000000000000000000000LIB       Lieutenant Governor                                     LIB Shanna Steele                     201 Weimar/Oakland                                     01 
00060030005000008000000000003000005000000000000000000000000000000000000000000000000000000000000000000LIB       Lieutenant Governor                                     LIB Shanna Steele                     202 Sheridan                                           01 
00060030006000003000000000000000003000000000000000000000000000000000000000000000000000000000000000000LIB       Lieutenant Governor                                     LIB Shanna Steele                     302 Frelsburg/Brushy                                   01 
00060030007000010000000000005000005000000000000000000000000000000000000000000000000000000000000000000LIB       Lieutenant Governor                                     LIB Shanna Steele                     303 Mentz                                              01 
00060030008000006000000000005000001000000000000000000000000000000000000000000000000000000000000000000LIB       Lieutenant Governor                                     LIB Shanna Steele                     304 Bernardo                                           01 
00060030009000030000000000016000014000000000000000000000000000000000000000000000000000000000000000000LIB       Lieutenant Governor                                     LIB Shanna Steele                     305 North Columbus/Shaws Bend                          01 
00060030010000009000000000006000003000000000000000000000000000000000000000000000000000000000000000000LIB       Lieutenant Governor                                     LIB Shanna Steele                     401 Alleyton/Altair                                    01 
00060030011000021000002000009000010000000000000000000000000000000000000000000000000000000000000000000LIB       Lieutenant Governor                                     LIB Shanna Steele                     402 Eagle Lake                                         01 
00060040001000000000000000000000000000000000000000000000000000000000000000000000000000000000000000000          Lieutenant Governor                                     OVER VOTES                            101 Columbus/Glidden                                   01 
00060040002000000000000000000000000000000000000000000000000000000000000000000000000000000000000000000          Lieutenant Governor                                     OVER VOTES                            102 Rock Island                                        01 
00060040003000000000000000000000000000000000000000000000000000000000000000000000000000000000000000000          Lieutenant Governor                                     OVER VOTES                            103 Garwood/Nada                                       01 
00060040004000000000000000000000000000000000000000000000000000000000000000000000000000000000000000000          Lieutenant Governor                                     OVER VOTES                            201 Weimar/Oakland                                     01 
00060040005000000000000000000000000000000000000000000000000000000000000000000000000000000000000000000          Lieutenant Governor                                     OVER VOTES                            202 Sheridan                                           01 
00060040006000000000000000000000000000000000000000000000000000000000000000000000000000000000000000000          Lieutenant Governor                                     OVER VOTES                            302 Frelsburg/Brushy                                   01 
00060040007000000000000000000000000000000000000000000000000000000000000000000000000000000000000000000          Lieutenant Governor                                     OVER VOTES                            303 Mentz                                              01 
00060040008000000000000000000000000000000000000000000000000000000000000000000000000000000000000000000          Lieutenant Governor                                     OVER VOTES                            304 Bernardo                                           01 
00060040009000000000000000000000000000000000000000000000000000000000000000000000000000000000000000000          Lieutenant Governor                                     OVER VOTES                            305 North Columbus/Shaws Bend                          01 
00060040010000000000000000000000000000000000000000000000000000000000000000000000000000000000000000000          Lieutenant Governor                                     OVER VOTES                            401 Alleyton/Altair                                    01 
00060040011000000000000000000000000000000000000000000000000000000000000000000000000000000000000000000          Lieutenant Governor                                     OVER VOTES                            402 Eagle Lake                                         01 
00060050001000011000001000007000003000000000000000000000000000000000000000000000000000000000000000000          Lieutenant Governor                                     UNDER VOTES                           101 Columbus/Glidden                                   01 
00060050002000001000000000001000000000000000000000000000000000000000000000000000000000000000000000000          Lieutenant Governor                                     UNDER VOTES                           102 Rock Island                                        01 
00060050003000002000000000000000002000000000000000000000000000000000000000000000000000000000000000000          Lieutenant Governor                                     UNDER VOTES                           103 Garwood/Nada                                       01 
00060050004000010000002000005000003000000000000000000000000000000000000000000000000000000000000000000          Lieutenant Governor                                     UNDER VOTES                           201 Weimar/Oakland                                     01 
00060050005000001000000000000000001000000000000000000000000000000000000000000000000000000000000000000          Lieutenant Governor                                     UNDER VOTES                           202 Sheridan                                           01 
00060050006000005000000000002000003000000000000000000000000000000000000000000000000000000000000000000          Lieutenant Governor                                     UNDER VOTES                           302 Frelsburg/Brushy                                   01 
00060050007000005000000000004000001000000000000000000000000000000000000000000000000000000000000000000          Lieutenant Governor                                     UNDER VOTES                           303 Mentz                                              01 
00060050008000001000000000000000001000000000000000000000000000000000000000000000000000000000000000000          Lieutenant Governor                                     UNDER VOTES                           304 Bernardo                                           01 
00060050009000013000000000005000008000000000000000000000000000000000000000000000000000000000000000000          Lieutenant Governor                                     UNDER VOTES                           305 North Columbus/Shaws Bend                          01 
00060050010000001000000000001000000000000000000000000000000000000000000000000000000000000000000000000          Lieutenant Governor                                     UNDER VOTES                           401 Alleyton/Altair                                    01 
00060050011000014000000000005000009000000000000000000000000000000000000000000000000000000000000000000          Lieutenant Governor                                     UNDER VOTES                           402 Eagle Lake                                         01 
00070010001000826000023000563000240000000000000000000000000000000000000000000000000000000000000000000REP       Attorney General                                        REP Ken Paxton                        101 Columbus/Glidden                                   01 
00070010002000121000001000059000061000000000000000000000000000000000000000000000000000000000000000000REP       Attorney General                                        REP Ken Paxton                        102 Rock Island                                        01 
00070010003000315000006000107000202000000000000000000000000000000000000000000000000000000000000000000REP       Attorney General                                        REP Ken Paxton                        103 Garwood/Nada                                       01 
00070010004001450000031000963000456000000000000000000000000000000000000000000000000000000000000000000REP       Attorney General                                        REP Ken Paxton                        201 Weimar/Oakland                                     01 
00070010005000310000011000134000165000000000000000000000000000000000000000000000000000000000000000000REP       Attorney General                                        REP Ken Paxton                        202 Sheridan                                           01 
00070010006000664000018000360000286000000000000000000000000000000000000000000000000000000000000000000REP       Attorney General                                        REP Ken Paxton                        302 Frelsburg/Brushy                                   01 
00070010007000338000005000213000120000000000000000000000000000000000000000000000000000000000000000000REP       Attorney General                                        REP Ken Paxton                        303 Mentz                                              01 
00070010008000312000005000171000136000000000000000000000000000000000000000000000000000000000000000000REP       Attorney General                                        REP Ken Paxton                        304 Bernardo                                           01 
00070010009000803000031000517000255000000000000000000000000000000000000000000000000000000000000000000REP       Attorney General                                        REP Ken Paxton                        305 North Columbus/Shaws Bend                          01 
00070010010000179000002000123000054000000000000000000000000000000000000000000000000000000000000000000REP       Attorney General                                        REP Ken Paxton                        401 Alleyton/Altair                                    01 
00070010011000627000020000356000251000000000000000000000000000000000000000000000000000000000000000000REP       Attorney General                                        REP Ken Paxton                        402 Eagle Lake                                         01 
00070020001000223000028000135000060000000000000000000000000000000000000000000000000000000000000000000DEM       Attorney General                                        DEM Rochelle Mercedes Garza           101 Columbus/Glidden                                   01 
00070020002000027000001000020000006000000000000000000000000000000000000000000000000000000000000000000DEM       Attorney General                                        DEM Rochelle Mercedes Garza           102 Rock Island                                        01 
00070020003000031000004000009000018000000000000000000000000000000000000000000000000000000000000000000DEM       Attorney General                                        DEM Rochelle Mercedes Garza           103 Garwood/Nada                                       01 
00070020004000295000038000163000094000000000000000000000000000000000000000000000000000000000000000000DEM       Attorney General                                        DEM Rochelle Mercedes Garza           201 Weimar/Oakland                                     01 
00070020005000029000004000017000008000000000000000000000000000000000000000000000000000000000000000000DEM       Attorney General                                        DEM Rochelle Mercedes Garza           202 Sheridan                                           01 
00070020006000089000014000046000029000000000000000000000000000000000000000000000000000000000000000000DEM       Attorney General                                        DEM Rochelle Mercedes Garza           302 Frelsburg/Brushy                                   01 
00070020007000052000009000031000012000000000000000000000000000000000000000000000000000000000000000000DEM       Attorney General                                        DEM Rochelle Mercedes Garza           303 Mentz                                              01 
00070020008000037000004000018000015000000000000000000000000000000000000000000000000000000000000000000DEM       Attorney General                                        DEM Rochelle Mercedes Garza           304 Bernardo                                           01 
00070020009000181000017000107000057000000000000000000000000000000000000000000000000000000000000000000DEM       Attorney General                                        DEM Rochelle Mercedes Garza           305 North Columbus/Shaws Bend                          01 
00070020010000062000011000033000018000000000000000000000000000000000000000000000000000000000000000000DEM       Attorney General                                        DEM Rochelle Mercedes Garza           401 Alleyton/Altair                                    01 
00070020011000377000031000192000154000000000000000000000000000000000000000000000000000000000000000000DEM       Attorney General                                        DEM Rochelle Mercedes Garza           402 Eagle Lake                                         01 
00070030001000025000001000016000008000000000000000000000000000000000000000000000000000000000000000000LIB       Attorney General                                        LIB Mark Ash                          101 Columbus/Glidden                                   01 
00070030002000005000000000001000004000000000000000000000000000000000000000000000000000000000000000000LIB       Attorney General                                        LIB Mark Ash                          102 Rock Island                                        01 
00070030003000003000001000001000001000000000000000000000000000000000000000000000000000000000000000000LIB       Attorney General                                        LIB Mark Ash                          103 Garwood/Nada                                       01 
00070030004000037000003000024000010000000000000000000000000000000000000000000000000000000000000000000LIB       Attorney General                                        LIB Mark Ash                          201 Weimar/Oakland                                     01 
00070030005000009000000000003000006000000000000000000000000000000000000000000000000000000000000000000LIB       Attorney General                                        LIB Mark Ash                          202 Sheridan                                           01 
00070030006000002000000000000000002000000000000000000000000000000000000000000000000000000000000000000LIB       Attorney General                                        LIB Mark Ash                          302 Frelsburg/Brushy                                   01 
00070030007000012000000000004000008000000000000000000000000000000000000000000000000000000000000000000LIB       Attorney General                                        LIB Mark Ash                          303 Mentz                                              01 
00070030008000004000000000003000001000000000000000000000000000000000000000000000000000000000000000000LIB       Attorney General                                        LIB Mark Ash                          304 Bernardo                                           01 
00070030009000026000000000017000009000000000000000000000000000000000000000000000000000000000000000000LIB       Attorney General                                        LIB Mark Ash                          305 North Columbus/Shaws Bend                          01 
00070030010000006000000000004000002000000000000000000000000000000000000000000000000000000000000000000LIB       Attorney General                                        LIB Mark Ash                          401 Alleyton/Altair                                    01 
00070030011000020000002000006000012000000000000000000000000000000000000000000000000000000000000000000LIB       Attorney General                                        LIB Mark Ash                          402 Eagle Lake                                         01 
00070040001000000000000000000000000000000000000000000000000000000000000000000000000000000000000000000          Attorney General                                        OVER VOTES                            101 Columbus/Glidden                                   01 
00070040002000000000000000000000000000000000000000000000000000000000000000000000000000000000000000000          Attorney General                                        OVER VOTES                            102 Rock Island                                        01 
00070040003000000000000000000000000000000000000000000000000000000000000000000000000000000000000000000          Attorney General                                        OVER VOTES                            103 Garwood/Nada                                       01 
00070040004000000000000000000000000000000000000000000000000000000000000000000000000000000000000000000          Attorney General                                        OVER VOTES                            201 Weimar/Oakland                                     01 
00070040005000000000000000000000000000000000000000000000000000000000000000000000000000000000000000000          Attorney General                                        OVER VOTES                            202 Sheridan                                           01 
00070040006000000000000000000000000000000000000000000000000000000000000000000000000000000000000000000          Attorney General                                        OVER VOTES                            302 Frelsburg/Brushy                                   01 
00070040007000000000000000000000000000000000000000000000000000000000000000000000000000000000000000000          Attorney General                                        OVER VOTES                            303 Mentz                                              01 
00070040008000000000000000000000000000000000000000000000000000000000000000000000000000000000000000000          Attorney General                                        OVER VOTES                            304 Bernardo                                           01 
00070040009000000000000000000000000000000000000000000000000000000000000000000000000000000000000000000          Attorney General                                        OVER VOTES                            305 North Columbus/Shaws Bend                          01 
00070040010000000000000000000000000000000000000000000000000000000000000000000000000000000000000000000          Attorney General                                        OVER VOTES                            401 Alleyton/Altair                                    01 
00070040011000000000000000000000000000000000000000000000000000000000000000000000000000000000000000000          Attorney General                                        OVER VOTES                            402 Eagle Lake                                         01 
00070050001000019000002000009000008000000000000000000000000000000000000000000000000000000000000000000          Attorney General                                        UNDER VOTES                           101 Columbus/Glidden                                   01 
00070050002000001000000000001000000000000000000000000000000000000000000000000000000000000000000000000          Attorney General                                        UNDER VOTES                           102 Rock Island                                        01 
00070050003000004000000000001000003000000000000000000000000000000000000000000000000000000000000000000          Attorney General                                        UNDER VOTES                           103 Garwood/Nada                                       01 
00070050004000016000002000007000007000000000000000000000000000000000000000000000000000000000000000000          Attorney General                                        UNDER VOTES                           201 Weimar/Oakland                                     01 
00070050005000002000000000000000002000000000000000000000000000000000000000000000000000000000000000000          Attorney General                                        UNDER VOTES                           202 Sheridan                                           01 
00070050006000007000000000004000003000000000000000000000000000000000000000000000000000000000000000000          Attorney General                                        UNDER VOTES                           302 Frelsburg/Brushy                                   01 
00070050007000007000000000004000003000000000000000000000000000000000000000000000000000000000000000000          Attorney General                                        UNDER VOTES                           303 Mentz                                              01 
00070050008000003000000000001000002000000000000000000000000000000000000000000000000000000000000000000          Attorney General                                        UNDER VOTES                           304 Bernardo                                           01 
00070050009000013000001000008000004000000000000000000000000000000000000000000000000000000000000000000          Attorney General                                        UNDER VOTES                           305 North Columbus/Shaws Bend                          01 
00070050010000003000000000003000000000000000000000000000000000000000000000000000000000000000000000000          Attorney General                                        UNDER VOTES                           401 Alleyton/Altair                                    01 
00070050011000019000000000008000011000000000000000000000000000000000000000000000000000000000000000000          Attorney General                                        UNDER VOTES                           402 Eagle Lake                                         01 
00080010001000847000027000574000246000000000000000000000000000000000000000000000000000000000000000000REP       Comptroller of Public Accounts                          REP Glenn Hegar                       101 Columbus/Glidden                                   01 
00080010002000125000001000062000062000000000000000000000000000000000000000000000000000000000000000000REP       Comptroller of Public Accounts                          REP Glenn Hegar                       102 Rock Island                                        01 
00080010003000319000006000110000203000000000000000000000000000000000000000000000000000000000000000000REP       Comptroller of Public Accounts                          REP Glenn Hegar                       103 Garwood/Nada                                       01 
00080010004001497000035000990000472000000000000000000000000000000000000000000000000000000000000000000REP       Comptroller of Public Accounts                          REP Glenn Hegar                       201 Weimar/Oakland                                     01 
00080010005000313000011000136000166000000000000000000000000000000000000000000000000000000000000000000REP       Comptroller of Public Accounts                          REP Glenn Hegar                       202 Sheridan                                           01 
00080010006000673000019000366000288000000000000000000000000000000000000000000000000000000000000000000REP       Comptroller of Public Accounts                          REP Glenn Hegar                       302 Frelsburg/Brushy                                   01 
00080010007000346000006000216000124000000000000000000000000000000000000000000000000000000000000000000REP       Comptroller of Public Accounts                          REP Glenn Hegar                       303 Mentz                                              01 
00080010008000322000007000173000142000000000000000000000000000000000000000000000000000000000000000000REP       Comptroller of Public Accounts                          REP Glenn Hegar                       304 Bernardo                                           01 
00080010009000835000030000537000268000000000000000000000000000000000000000000000000000000000000000000REP       Comptroller of Public Accounts                          REP Glenn Hegar                       305 North Columbus/Shaws Bend                          01 
00080010010000186000002000129000055000000000000000000000000000000000000000000000000000000000000000000REP       Comptroller of Public Accounts                          REP Glenn Hegar                       401 Alleyton/Altair                                    01 
00080010011000648000022000369000257000000000000000000000000000000000000000000000000000000000000000000REP       Comptroller of Public Accounts                          REP Glenn Hegar                       402 Eagle Lake                                         01 
00080020001000213000026000130000057000000000000000000000000000000000000000000000000000000000000000000DEM       Comptroller of Public Accounts                          DEM Janet T. Dudding                  101 Columbus/Glidden                                   01 
00080020002000023000001000017000005000000000000000000000000000000000000000000000000000000000000000000DEM       Comptroller of Public Accounts                          DEM Janet T. Dudding                  102 Rock Island                                        01 
00080020003000026000004000007000015000000000000000000000000000000000000000000000000000000000000000000DEM       Comptroller of Public Accounts                          DEM Janet T. Dudding                  103 Garwood/Nada                                       01 
00080020004000269000036000151000082000000000000000000000000000000000000000000000000000000000000000000DEM       Comptroller of Public Accounts                          DEM Janet T. Dudding                  201 Weimar/Oakland                                     01 
00080020005000029000004000016000009000000000000000000000000000000000000000000000000000000000000000000DEM       Comptroller of Public Accounts                          DEM Janet T. Dudding                  202 Sheridan                                           01 
00080020006000078000013000041000024000000000000000000000000000000000000000000000000000000000000000000DEM       Comptroller of Public Accounts                          DEM Janet T. Dudding                  302 Frelsburg/Brushy                                   01 
00080020007000048000008000032000008000000000000000000000000000000000000000000000000000000000000000000DEM       Comptroller of Public Accounts                          DEM Janet T. Dudding                  303 Mentz                                              01 
00080020008000027000002000014000011000000000000000000000000000000000000000000000000000000000000000000DEM       Comptroller of Public Accounts                          DEM Janet T. Dudding                  304 Bernardo                                           01 
00080020009000163000019000098000046000000000000000000000000000000000000000000000000000000000000000000DEM       Comptroller of Public Accounts                          DEM Janet T. Dudding                  305 North Columbus/Shaws Bend                          01 
00080020010000056000011000029000016000000000000000000000000000000000000000000000000000000000000000000DEM       Comptroller of Public Accounts                          DEM Janet T. Dudding                  401 Alleyton/Altair                                    01 
00080020011000350000026000177000147000000000000000000000000000000000000000000000000000000000000000000DEM       Comptroller of Public Accounts                          DEM Janet T. Dudding                  402 Eagle Lake                                         01 
00080030001000018000000000012000006000000000000000000000000000000000000000000000000000000000000000000LIB       Comptroller of Public Accounts                          LIB V. Alonzo Echevarria-Garza        101 Columbus/Glidden                                   01 
00080030002000003000000000000000003000000000000000000000000000000000000000000000000000000000000000000LIB       Comptroller of Public Accounts                          LIB V. Alonzo Echevarria-Garza        102 Rock Island                                        01 
00080030003000004000000000001000003000000000000000000000000000000000000000000000000000000000000000000LIB       Comptroller of Public Accounts                          LIB V. Alonzo Echevarria-Garza        103 Garwood/Nada                                       01 
00080030004000015000000000008000007000000000000000000000000000000000000000000000000000000000000000000LIB       Comptroller of Public Accounts                          LIB V. Alonzo Echevarria-Garza        201 Weimar/Oakland                                     01 
00080030005000005000000000002000003000000000000000000000000000000000000000000000000000000000000000000LIB       Comptroller of Public Accounts                          LIB V. Alonzo Echevarria-Garza        202 Sheridan                                           01 
00080030006000001000000000000000001000000000000000000000000000000000000000000000000000000000000000000LIB       Comptroller of Public Accounts                          LIB V. Alonzo Echevarria-Garza        302 Frelsburg/Brushy                                   01 
00080030007000010000000000002000008000000000000000000000000000000000000000000000000000000000000000000LIB       Comptroller of Public Accounts                          LIB V. Alonzo Echevarria-Garza        303 Mentz                                              01 
00080030008000003000000000003000000000000000000000000000000000000000000000000000000000000000000000000LIB       Comptroller of Public Accounts                          LIB V. Alonzo Echevarria-Garza        304 Bernardo                                           01 
00080030009000017000000000011000006000000000000000000000000000000000000000000000000000000000000000000LIB       Comptroller of Public Accounts                          LIB V. Alonzo Echevarria-Garza        305 North Columbus/Shaws Bend                          01 
00080030010000005000000000003000002000000000000000000000000000000000000000000000000000000000000000000LIB       Comptroller of Public Accounts                          LIB V. Alonzo Echevarria-Garza        401 Alleyton/Altair                                    01 
00080030011000024000004000009000011000000000000000000000000000000000000000000000000000000000000000000LIB       Comptroller of Public Accounts                          LIB V. Alonzo Echevarria-Garza        402 Eagle Lake                                         01 
00080040001000000000000000000000000000000000000000000000000000000000000000000000000000000000000000000          Comptroller of Public Accounts                          OVER VOTES                            101 Columbus/Glidden                                   01 
00080040002000000000000000000000000000000000000000000000000000000000000000000000000000000000000000000          Comptroller of Public Accounts                          OVER VOTES                            102 Rock Island                                        01 
00080040003000000000000000000000000000000000000000000000000000000000000000000000000000000000000000000          Comptroller of Public Accounts                          OVER VOTES                            103 Garwood/Nada                                       01 
00080040004000000000000000000000000000000000000000000000000000000000000000000000000000000000000000000          Comptroller of Public Accounts                          OVER VOTES                            201 Weimar/Oakland                                     01 
00080040005000000000000000000000000000000000000000000000000000000000000000000000000000000000000000000          Comptroller of Public Accounts                          OVER VOTES                            202 Sheridan                                           01 
00080040006000000000000000000000000000000000000000000000000000000000000000000000000000000000000000000          Comptroller of Public Accounts                          OVER VOTES                            302 Frelsburg/Brushy                                   01 
00080040007000000000000000000000000000000000000000000000000000000000000000000000000000000000000000000          Comptroller of Public Accounts                          OVER VOTES                            303 Mentz                                              01 
00080040008000000000000000000000000000000000000000000000000000000000000000000000000000000000000000000          Comptroller of Public Accounts                          OVER VOTES                            304 Bernardo                                           01 
00080040009000000000000000000000000000000000000000000000000000000000000000000000000000000000000000000          Comptroller of Public Accounts                          OVER VOTES                            305 North Columbus/Shaws Bend                          01 
00080040010000000000000000000000000000000000000000000000000000000000000000000000000000000000000000000          Comptroller of Public Accounts                          OVER VOTES                            401 Alleyton/Altair                                    01 
00080040011000000000000000000000000000000000000000000000000000000000000000000000000000000000000000000          Comptroller of Public Accounts                          OVER VOTES                            402 Eagle Lake                                         01 
00080050001000015000001000007000007000000000000000000000000000000000000000000000000000000000000000000          Comptroller of Public Accounts                          UNDER VOTES                           101 Columbus/Glidden                                   01 
00080050002000003000000000002000001000000000000000000000000000000000000000000000000000000000000000000          Comptroller of Public Accounts                          UNDER VOTES                           102 Rock Island                                        01 
00080050003000004000001000000000003000000000000000000000000000000000000000000000000000000000000000000          Comptroller of Public Accounts                          UNDER VOTES                           103 Garwood/Nada                                       01 
00080050004000017000003000008000006000000000000000000000000000000000000000000000000000000000000000000          Comptroller of Public Accounts                          UNDER VOTES                           201 Weimar/Oakland                                     01 
00080050005000003000000000000000003000000000000000000000000000000000000000000000000000000000000000000          Comptroller of Public Accounts                          UNDER VOTES                           202 Sheridan                                           01 
00080050006000010000000000003000007000000000000000000000000000000000000000000000000000000000000000000          Comptroller of Public Accounts                          UNDER VOTES                           302 Frelsburg/Brushy                                   01 
00080050007000005000000000002000003000000000000000000000000000000000000000000000000000000000000000000          Comptroller of Public Accounts                          UNDER VOTES                           303 Mentz                                              01 
00080050008000004000000000003000001000000000000000000000000000000000000000000000000000000000000000000          Comptroller of Public Accounts                          UNDER VOTES                           304 Bernardo                                           01 
00080050009000008000000000003000005000000000000000000000000000000000000000000000000000000000000000000          Comptroller of Public Accounts                          UNDER VOTES                           305 North Columbus/Shaws Bend                          01 
00080050010000003000000000002000001000000000000000000000000000000000000000000000000000000000000000000          Comptroller of Public Accounts                          UNDER VOTES                           401 Alleyton/Altair                                    01 
00080050011000021000001000007000013000000000000000000000000000000000000000000000000000000000000000000          Comptroller of Public Accounts                          UNDER VOTES                           402 Eagle Lake                                         01 
00090010001000834000024000564000246000000000000000000000000000000000000000000000000000000000000000000REP       Comm. General Land Office                               REP Dawn Buckingham                   101 Columbus/Glidden                                   01 
00090010002000124000001000061000062000000000000000000000000000000000000000000000000000000000000000000REP       Comm. General Land Office                               REP Dawn Buckingham                   102 Rock Island                                        01 
00090010003000318000008000108000202000000000000000000000000000000000000000000000000000000000000000000REP       Comm. General Land Office                               REP Dawn Buckingham                   103 Garwood/Nada                                       01 
00090010004001456000034000962000460000000000000000000000000000000000000000000000000000000000000000000REP       Comm. General Land Office                               REP Dawn Buckingham                   201 Weimar/Oakland                                     01 
00090010005000308000010000132000166000000000000000000000000000000000000000000000000000000000000000000REP       Comm. General Land Office                               REP Dawn Buckingham                   202 Sheridan                                           01 
00090010006000664000018000360000286000000000000000000000000000000000000000000000000000000000000000000REP       Comm. General Land Office                               REP Dawn Buckingham                   302 Frelsburg/Brushy                                   01 
00090010007000354000006000220000128000000000000000000000000000000000000000000000000000000000000000000REP       Comm. General Land Office                               REP Dawn Buckingham                   303 Mentz                                              01 
00090010008000314000005000172000137000000000000000000000000000000000000000000000000000000000000000000REP       Comm. General Land Office                               REP Dawn Buckingham                   304 Bernardo                                           01 
00090010009000818000030000529000259000000000000000000000000000000000000000000000000000000000000000000REP       Comm. General Land Office                               REP Dawn Buckingham                   305 North Columbus/Shaws Bend                          01 
00090010010000186000002000129000055000000000000000000000000000000000000000000000000000000000000000000REP       Comm. General Land Office                               REP Dawn Buckingham                   401 Alleyton/Altair                                    01 
00090010011000629000022000360000247000000000000000000000000000000000000000000000000000000000000000000REP       Comm. General Land Office                               REP Dawn Buckingham                   402 Eagle Lake                                         01 
00090020001000222000028000137000057000000000000000000000000000000000000000000000000000000000000000000DEM       Comm. General Land Office                               DEM Jay Kleberg                       101 Columbus/Glidden                                   01 
00090020002000022000001000017000004000000000000000000000000000000000000000000000000000000000000000000DEM       Comm. General Land Office                               DEM Jay Kleberg                       102 Rock Island                                        01 
00090020003000030000003000009000018000000000000000000000000000000000000000000000000000000000000000000DEM       Comm. General Land Office                               DEM Jay Kleberg                       103 Garwood/Nada                                       01 
00090020004000288000036000162000090000000000000000000000000000000000000000000000000000000000000000000DEM       Comm. General Land Office                               DEM Jay Kleberg                       201 Weimar/Oakland                                     01 
00090020005000035000004000020000011000000000000000000000000000000000000000000000000000000000000000000DEM       Comm. General Land Office                               DEM Jay Kleberg                       202 Sheridan                                           01 
00090020006000080000014000044000022000000000000000000000000000000000000000000000000000000000000000000DEM       Comm. General Land Office                               DEM Jay Kleberg                       302 Frelsburg/Brushy                                   01 
00090020007000047000008000031000008000000000000000000000000000000000000000000000000000000000000000000DEM       Comm. General Land Office                               DEM Jay Kleberg                       303 Mentz                                              01 
00090020008000035000003000018000014000000000000000000000000000000000000000000000000000000000000000000DEM       Comm. General Land Office                               DEM Jay Kleberg                       304 Bernardo                                           01 
00090020009000173000019000104000050000000000000000000000000000000000000000000000000000000000000000000DEM       Comm. General Land Office                               DEM Jay Kleberg                       305 North Columbus/Shaws Bend                          01 
00090020010000058000011000030000017000000000000000000000000000000000000000000000000000000000000000000DEM       Comm. General Land Office                               DEM Jay Kleberg                       401 Alleyton/Altair                                    01 
00090020011000377000030000189000158000000000000000000000000000000000000000000000000000000000000000000DEM       Comm. General Land Office                               DEM Jay Kleberg                       402 Eagle Lake                                         01 
00090030001000016000000000011000005000000000000000000000000000000000000000000000000000000000000000000GRN       Comm. General Land Office                               GRN Alfred Molison, Jr.               101 Columbus/Glidden                                   01 
00090030002000003000000000001000002000000000000000000000000000000000000000000000000000000000000000000GRN       Comm. General Land Office                               GRN Alfred Molison, Jr.               102 Rock Island                                        01 
00090030003000000000000000000000000000000000000000000000000000000000000000000000000000000000000000000GRN       Comm. General Land Office                               GRN Alfred Molison, Jr.               103 Garwood/Nada                                       01 
00090030004000016000001000010000005000000000000000000000000000000000000000000000000000000000000000000GRN       Comm. General Land Office                               GRN Alfred Molison, Jr.               201 Weimar/Oakland                                     01 
00090030005000001000000000000000001000000000000000000000000000000000000000000000000000000000000000000GRN       Comm. General Land Office                               GRN Alfred Molison, Jr.               202 Sheridan                                           01 
00090030006000005000000000001000004000000000000000000000000000000000000000000000000000000000000000000GRN       Comm. General Land Office                               GRN Alfred Molison, Jr.               302 Frelsburg/Brushy                                   01 
00090030007000003000000000000000003000000000000000000000000000000000000000000000000000000000000000000GRN       Comm. General Land Office                               GRN Alfred Molison, Jr.               303 Mentz                                              01 
00090030008000003000001000001000001000000000000000000000000000000000000000000000000000000000000000000GRN       Comm. General Land Office                               GRN Alfred Molison, Jr.               304 Bernardo                                           01 
00090030009000011000000000007000004000000000000000000000000000000000000000000000000000000000000000000GRN       Comm. General Land Office                               GRN Alfred Molison, Jr.               305 North Columbus/Shaws Bend                          01 
00090030010000001000000000001000000000000000000000000000000000000000000000000000000000000000000000000GRN       Comm. General Land Office                               GRN Alfred Molison, Jr.               401 Alleyton/Altair                                    01 
00090030011000006000000000002000004000000000000000000000000000000000000000000000000000000000000000000GRN       Comm. General Land Office                               GRN Alfred Molison, Jr.               402 Eagle Lake                                         01 
00090050001000001000000000001000000000000000000000000000000000000000000000000000000000000000000000000NON       Comm. General Land Office                               Write-in                              101 Columbus/Glidden                                   01 
00090050002000000000000000000000000000000000000000000000000000000000000000000000000000000000000000000NON       Comm. General Land Office                               Write-in                              102 Rock Island                                        01 
00090050003000000000000000000000000000000000000000000000000000000000000000000000000000000000000000000NON       Comm. General Land Office                               Write-in                              103 Garwood/Nada                                       01 
00090050004000000000000000000000000000000000000000000000000000000000000000000000000000000000000000000NON       Comm. General Land Office                               Write-in                              201 Weimar/Oakland                                     01 
00090050005000000000000000000000000000000000000000000000000000000000000000000000000000000000000000000NON       Comm. General Land Office                               Write-in                              202 Sheridan                                           01 
00090050006000000000000000000000000000000000000000000000000000000000000000000000000000000000000000000NON       Comm. General Land Office                               Write-in                              302 Frelsburg/Brushy                                   01 
00090050007000000000000000000000000000000000000000000000000000000000000000000000000000000000000000000NON       Comm. General Land Office                               Write-in                              303 Mentz                                              01 
00090050008000000000000000000000000000000000000000000000000000000000000000000000000000000000000000000NON       Comm. General Land Office                               Write-in                              304 Bernardo                                           01 
00090050009000001000000000000000001000000000000000000000000000000000000000000000000000000000000000000NON       Comm. General Land Office                               Write-in                              305 North Columbus/Shaws Bend                          01 
00090050010000000000000000000000000000000000000000000000000000000000000000000000000000000000000000000NON       Comm. General Land Office                               Write-in                              401 Alleyton/Altair                                    01 
00090050011000000000000000000000000000000000000000000000000000000000000000000000000000000000000000000NON       Comm. General Land Office                               Write-in                              402 Eagle Lake                                         01 
00090060001000000000000000000000000000000000000000000000000000000000000000000000000000000000000000000          Comm. General Land Office                               OVER VOTES                            101 Columbus/Glidden                                   01 
00090060002000000000000000000000000000000000000000000000000000000000000000000000000000000000000000000          Comm. General Land Office                               OVER VOTES                            102 Rock Island                                        01 
00090060003000001000000000000000001000000000000000000000000000000000000000000000000000000000000000000          Comm. General Land Office                               OVER VOTES                            103 Garwood/Nada                                       01 
