00010010001000663000000000000000000000000000000000000000000000000000000000000000000000000000000000000          REGISTERED VOTERS - TOTAL                               REGISTERED VOTERS - TOTAL             District Courtroom Box 1                               00 
00010010002000664000000000000000000000000000000000000000000000000000000000000000000000000000000000000          REGISTERED VOTERS - TOTAL                               REGISTERED VOTERS - TOTAL             FBC Fellowship Hall Box 4                              00 
00010010003000623000000000000000000000000000000000000000000000000000000000000000000000000000000000000          REGISTERED VOTERS - TOTAL                               REGISTERED VOTERS - TOTAL             Rotan Community Center Box 10                          00 
00010010004000735000000000000000000000000000000000000000000000000000000000000000000000000000000000000          REGISTERED VOTERS - TOTAL                               REGISTERED VOTERS - TOTAL             Rotan ISD Admin Bld Box 12                             00 
00020010001000363000025000187000151000000000000000000000000000000000000000000000000000000000000000000          BALLOTS CAST - TOTAL                                    BALLOTS CAST - TOTAL                  District Courtroom Box 1                               00 
00020010002000377000016000205000156000000000000000000000000000000000000000000000000000000000000000000          BALLOTS CAST - TOTAL                                    BALLOTS CAST - TOTAL                  FBC Fellowship Hall Box 4                              00 
00020010003000315000016000134000165000000000000000000000000000000000000000000000000000000000000000000          BALLOTS CAST - TOTAL                                    BALLOTS CAST - TOTAL                  Rotan Community Center Box 10                          00 
00020010004000357000011000171000175000000000000000000000000000000000000000000000000000000000000000000          BALLOTS CAST - TOTAL                                    BALLOTS CAST - TOTAL                  Rotan ISD Admin Bld Box 12                             00 
00030010001000000000000000000000000000000000000000000000000000000000000000000000000000000000000000000          BALLOTS CAST - BLANK                                    BALLOTS CAST - BLANK                  District Courtroom Box 1                               00 
00030010002000000000000000000000000000000000000000000000000000000000000000000000000000000000000000000          BALLOTS CAST - BLANK                                    BALLOTS CAST - BLANK                  FBC Fellowship Hall Box 4                              00 
00030010003000000000000000000000000000000000000000000000000000000000000000000000000000000000000000000          BALLOTS CAST - BLANK                                    BALLOTS CAST - BLANK                  Rotan Community Center Box 10                          00 
00030010004000000000000000000000000000000000000000000000000000000000000000000000000000000000000000000          BALLOTS CAST - BLANK                                    BALLOTS CAST - BLANK                  Rotan ISD Admin Bld Box 12                             00 
00040010001000316000013000167000136000000000000000000000000000000000000000000000000000000000000000000REP       US Representative, Dist 19                              REP Jodey C. Arrington                District Courtroom Box 1                               01 
00040010002000319000007000168000144000000000000000000000000000000000000000000000000000000000000000000REP       US Representative, Dist 19                              REP Jodey C. Arrington                FBC Fellowship Hall Box 4                              01 
00040010003000254000007000108000139000000000000000000000000000000000000000000000000000000000000000000REP       US Representative, Dist 19                              REP Jodey C. Arrington                Rotan Community Center Box 10                          01 
00040010004000293000006000136000151000000000000000000000000000000000000000000000000000000000000000000REP       US Representative, Dist 19                              REP Jodey C. Arrington                Rotan ISD Admin Bld Box 12                             01 
00040020001000034000009000015000010000000000000000000000000000000000000000000000000000000000000000000IND       US Representative, Dist 19                              IND Nathan Lewis                      District Courtroom Box 1                               01 
00040020002000044000009000026000009000000000000000000000000000000000000000000000000000000000000000000IND       US Representative, Dist 19                              IND Nathan Lewis                      FBC Fellowship Hall Box 4                              01 
00040020003000045000006000021000018000000000000000000000000000000000000000000000000000000000000000000IND       US Representative, Dist 19                              IND Nathan Lewis                      Rotan Community Center Box 10                          01 
00040020004000045000003000023000019000000000000000000000000000000000000000000000000000000000000000000IND       US Representative, Dist 19                              IND Nathan Lewis                      Rotan ISD Admin Bld Box 12                             01 
00040030001000000000000000000000000000000000000000000000000000000000000000000000000000000000000000000          US Representative, Dist 19                              OVER VOTES                            District Courtroom Box 1                               01 
00040030002000000000000000000000000000000000000000000000000000000000000000000000000000000000000000000          US Representative, Dist 19                              OVER VOTES                            FBC Fellowship Hall Box 4                              01 
00040030003000000000000000000000000000000000000000000000000000000000000000000000000000000000000000000          US Representative, Dist 19                              OVER VOTES                            Rotan Community Center Box 10                          01 
00040030004000000000000000000000000000000000000000000000000000000000000000000000000000000000000000000          US Representative, Dist 19                              OVER VOTES                            Rotan ISD Admin Bld Box 12                             01 
00040040001000013000003000005000005000000000000000000000000000000000000000000000000000000000000000000          US Representative, Dist 19                              UNDER VOTES                           District Courtroom Box 1                               01 
00040040002000014000000000011000003000000000000000000000000000000000000000000000000000000000000000000          US Representative, Dist 19                              UNDER VOTES                           FBC Fellowship Hall Box 4                              01 
00040040003000016000003000005000008000000000000000000000000000000000000000000000000000000000000000000          US Representative, Dist 19                              UNDER VOTES                           Rotan Community Center Box 10                          01 
00040040004000019000002000012000005000000000000000000000000000000000000000000000000000000000000000000          US Representative, Dist 19                              UNDER VOTES                           Rotan ISD Admin Bld Box 12                             01 
00050010001000314000014000168000132000000000000000000000000000000000000000000000000000000000000000000REP       Governor                                                REP Greg Abbott                       District Courtroom Box 1                               01 
00050010002000321000007000165000149000000000000000000000000000000000000000000000000000000000000000000REP       Governor                                                REP Greg Abbott                       FBC Fellowship Hall Box 4                              01 
00050010003000249000009000103000137000000000000000000000000000000000000000000000000000000000000000000REP       Governor                                                REP Greg Abbott                       Rotan Community Center Box 10                          01 
00050010004000288000007000135000146000000000000000000000000000000000000000000000000000000000000000000REP       Governor                                                REP Greg Abbott                       Rotan ISD Admin Bld Box 12                             01 
00050020001000041000009000016000016000000000000000000000000000000000000000000000000000000000000000000DEM       Governor                                                DEM Beto O'Rourke                     District Courtroom Box 1                               01 
00050020002000049000009000034000006000000000000000000000000000000000000000000000000000000000000000000DEM       Governor                                                DEM Beto O'Rourke                     FBC Fellowship Hall Box 4                              01 
00050020003000060000006000028000026000000000000000000000000000000000000000000000000000000000000000000DEM       Governor                                                DEM Beto O'Rourke                     Rotan Community Center Box 10                          01 
00050020004000060000003000029000028000000000000000000000000000000000000000000000000000000000000000000DEM       Governor                                                DEM Beto O'Rourke                     Rotan ISD Admin Bld Box 12                             01 
00050030001000003000001000001000001000000000000000000000000000000000000000000000000000000000000000000LIB       Governor                                                LIB Mark Tippetts                     District Courtroom Box 1                               01 
00050030002000002000000000001000001000000000000000000000000000000000000000000000000000000000000000000LIB       Governor                                                LIB Mark Tippetts                     FBC Fellowship Hall Box 4                              01 
00050030003000005000001000002000002000000000000000000000000000000000000000000000000000000000000000000LIB       Governor                                                LIB Mark Tippetts                     Rotan Community Center Box 10                          01 
00050030004000004000000000004000000000000000000000000000000000000000000000000000000000000000000000000LIB       Governor                                                LIB Mark Tippetts                     Rotan ISD Admin Bld Box 12                             01 
00050040001000002000001000000000001000000000000000000000000000000000000000000000000000000000000000000GRN       Governor                                                GRN Delilah Barrios                   District Courtroom Box 1                               01 
00050040002000001000000000001000000000000000000000000000000000000000000000000000000000000000000000000GRN       Governor                                                GRN Delilah Barrios                   FBC Fellowship Hall Box 4                              01 
00050040003000000000000000000000000000000000000000000000000000000000000000000000000000000000000000000GRN       Governor                                                GRN Delilah Barrios                   Rotan Community Center Box 10                          01 
00050040004000002000000000001000001000000000000000000000000000000000000000000000000000000000000000000GRN       Governor                                                GRN Delilah Barrios                   Rotan ISD Admin Bld Box 12                             01 
00050060001000000000000000000000000000000000000000000000000000000000000000000000000000000000000000000NON       Governor                                                Write-in                              District Courtroom Box 1                               01 
00050060002000000000000000000000000000000000000000000000000000000000000000000000000000000000000000000NON       Governor                                                Write-in                              FBC Fellowship Hall Box 4                              01 
00050060003000000000000000000000000000000000000000000000000000000000000000000000000000000000000000000NON       Governor                                                Write-in                              Rotan Community Center Box 10                          01 
00050060004000000000000000000000000000000000000000000000000000000000000000000000000000000000000000000NON       Governor                                                Write-in                              Rotan ISD Admin Bld Box 12                             01 
00050070001000000000000000000000000000000000000000000000000000000000000000000000000000000000000000000          Governor                                                OVER VOTES                            District Courtroom Box 1                               01 
00050070002000000000000000000000000000000000000000000000000000000000000000000000000000000000000000000          Governor                                                OVER VOTES                            FBC Fellowship Hall Box 4                              01 
00050070003000000000000000000000000000000000000000000000000000000000000000000000000000000000000000000          Governor                                                OVER VOTES                            Rotan Community Center Box 10                          01 
00050070004000000000000000000000000000000000000000000000000000000000000000000000000000000000000000000          Governor                                                OVER VOTES                            Rotan ISD Admin Bld Box 12                             01 
00050080001000003000000000002000001000000000000000000000000000000000000000000000000000000000000000000          Governor                                                UNDER VOTES                           District Courtroom Box 1                               01 
00050080002000004000000000004000000000000000000000000000000000000000000000000000000000000000000000000          Governor                                                UNDER VOTES                           FBC Fellowship Hall Box 4                              01 
00050080003000001000000000001000000000000000000000000000000000000000000000000000000000000000000000000          Governor                                                UNDER VOTES                           Rotan Community Center Box 10                          01 
00050080004000003000001000002000000000000000000000000000000000000000000000000000000000000000000000000          Governor                                                UNDER VOTES                           Rotan ISD Admin Bld Box 12                             01 
00060010001000306000012000165000129000000000000000000000000000000000000000000000000000000000000000000REP       Lieutenant Governor                                     REP Dan Patrick                       District Courtroom Box 1                               01 
00060010002000311000005000160000146000000000000000000000000000000000000000000000000000000000000000000REP       Lieutenant Governor                                     REP Dan Patrick                       FBC Fellowship Hall Box 4                              01 
00060010003000238000007000102000129000000000000000000000000000000000000000000000000000000000000000000REP       Lieutenant Governor                                     REP Dan Patrick                       Rotan Community Center Box 10                          01 
00060010004000276000005000129000142000000000000000000000000000000000000000000000000000000000000000000REP       Lieutenant Governor                                     REP Dan Patrick                       Rotan ISD Admin Bld Box 12                             01 
00060020001000044000012000017000015000000000000000000000000000000000000000000000000000000000000000000DEM       Lieutenant Governor                                     DEM Mike Collier                      District Courtroom Box 1                               01 
00060020002000054000011000036000007000000000000000000000000000000000000000000000000000000000000000000DEM       Lieutenant Governor                                     DEM Mike Collier                      FBC Fellowship Hall Box 4                              01 
00060020003000065000008000027000030000000000000000000000000000000000000000000000000000000000000000000DEM       Lieutenant Governor                                     DEM Mike Collier                      Rotan Community Center Box 10                          01 
00060020004000067000005000034000028000000000000000000000000000000000000000000000000000000000000000000DEM       Lieutenant Governor                                     DEM Mike Collier                      Rotan ISD Admin Bld Box 12                             01 
00060030001000007000001000002000004000000000000000000000000000000000000000000000000000000000000000000LIB       Lieutenant Governor                                     LIB Shanna Steele                     District Courtroom Box 1                               01 
00060030002000006000000000005000001000000000000000000000000000000000000000000000000000000000000000000LIB       Lieutenant Governor                                     LIB Shanna Steele                     FBC Fellowship Hall Box 4                              01 
00060030003000007000000000004000003000000000000000000000000000000000000000000000000000000000000000000LIB       Lieutenant Governor                                     LIB Shanna Steele                     Rotan Community Center Box 10                          01 
00060030004000004000000000003000001000000000000000000000000000000000000000000000000000000000000000000LIB       Lieutenant Governor                                     LIB Shanna Steele                     Rotan ISD Admin Bld Box 12                             01 
00060040001000000000000000000000000000000000000000000000000000000000000000000000000000000000000000000          Lieutenant Governor                                     OVER VOTES                            District Courtroom Box 1                               01 
00060040002000000000000000000000000000000000000000000000000000000000000000000000000000000000000000000          Lieutenant Governor                                     OVER VOTES                            FBC Fellowship Hall Box 4                              01 
00060040003000000000000000000000000000000000000000000000000000000000000000000000000000000000000000000          Lieutenant Governor                                     OVER VOTES                            Rotan Community Center Box 10                          01 
00060040004000000000000000000000000000000000000000000000000000000000000000000000000000000000000000000          Lieutenant Governor                                     OVER VOTES                            Rotan ISD Admin Bld Box 12                             01 
00060050001000006000000000003000003000000000000000000000000000000000000000000000000000000000000000000          Lieutenant Governor                                     UNDER VOTES                           District Courtroom Box 1                               01 
00060050002000006000000000004000002000000000000000000000000000000000000000000000000000000000000000000          Lieutenant Governor                                     UNDER VOTES                           FBC Fellowship Hall Box 4                              01 
00060050003000005000001000001000003000000000000000000000000000000000000000000000000000000000000000000          Lieutenant Governor                                     UNDER VOTES                           Rotan Community Center Box 10                          01 
00060050004000010000001000005000004000000000000000000000000000000000000000000000000000000000000000000          Lieutenant Governor                                     UNDER VOTES                           Rotan ISD Admin Bld Box 12                             01 
00070010001000304000013000162000129000000000000000000000000000000000000000000000000000000000000000000REP       Attorney General                                        REP Ken Paxton                        District Courtroom Box 1                               01 
00070010002000309000005000157000147000000000000000000000000000000000000000000000000000000000000000000REP       Attorney General                                        REP Ken Paxton                        FBC Fellowship Hall Box 4                              01 
00070010003000237000008000100000129000000000000000000000000000000000000000000000000000000000000000000REP       Attorney General                                        REP Ken Paxton                        Rotan Community Center Box 10                          01 
00070010004000279000006000130000143000000000000000000000000000000000000000000000000000000000000000000REP       Attorney General                                        REP Ken Paxton                        Rotan ISD Admin Bld Box 12                             01 
00070020001000043000011000018000014000000000000000000000000000000000000000000000000000000000000000000DEM       Attorney General                                        DEM Rochelle Mercedes Garza           District Courtroom Box 1                               01 
00070020002000057000010000041000006000000000000000000000000000000000000000000000000000000000000000000DEM       Attorney General                                        DEM Rochelle Mercedes Garza           FBC Fellowship Hall Box 4                              01 
00070020003000066000008000029000029000000000000000000000000000000000000000000000000000000000000000000DEM       Attorney General                                        DEM Rochelle Mercedes Garza           Rotan Community Center Box 10                          01 
00070020004000063000004000030000029000000000000000000000000000000000000000000000000000000000000000000DEM       Attorney General                                        DEM Rochelle Mercedes Garza           Rotan ISD Admin Bld Box 12                             01 
00070030001000007000000000003000004000000000000000000000000000000000000000000000000000000000000000000LIB       Attorney General                                        LIB Mark Ash                          District Courtroom Box 1                               01 
00070030002000005000001000003000001000000000000000000000000000000000000000000000000000000000000000000LIB       Attorney General                                        LIB Mark Ash                          FBC Fellowship Hall Box 4                              01 
00070030003000008000000000004000004000000000000000000000000000000000000000000000000000000000000000000LIB       Attorney General                                        LIB Mark Ash                          Rotan Community Center Box 10                          01 
00070030004000007000000000007000000000000000000000000000000000000000000000000000000000000000000000000LIB       Attorney General                                        LIB Mark Ash                          Rotan ISD Admin Bld Box 12                             01 
00070040001000000000000000000000000000000000000000000000000000000000000000000000000000000000000000000          Attorney General                                        OVER VOTES                            District Courtroom Box 1                               01 
00070040002000000000000000000000000000000000000000000000000000000000000000000000000000000000000000000          Attorney General                                        OVER VOTES                            FBC Fellowship Hall Box 4                              01 
00070040003000000000000000000000000000000000000000000000000000000000000000000000000000000000000000000          Attorney General                                        OVER VOTES                            Rotan Community Center Box 10                          01 
00070040004000000000000000000000000000000000000000000000000000000000000000000000000000000000000000000          Attorney General                                        OVER VOTES                            Rotan ISD Admin Bld Box 12                             01 
00070050001000009000001000004000004000000000000000000000000000000000000000000000000000000000000000000          Attorney General                                        UNDER VOTES                           District Courtroom Box 1                               01 
00070050002000006000000000004000002000000000000000000000000000000000000000000000000000000000000000000          Attorney General                                        UNDER VOTES                           FBC Fellowship Hall Box 4                              01 
00070050003000004000000000001000003000000000000000000000000000000000000000000000000000000000000000000          Attorney General                                        UNDER VOTES                           Rotan Community Center Box 10                          01 
00070050004000008000001000004000003000000000000000000000000000000000000000000000000000000000000000000          Attorney General                                        UNDER VOTES                           Rotan ISD Admin Bld Box 12                             01 
00080010001000306000011000165000130000000000000000000000000000000000000000000000000000000000000000000REP       Comptroller of Public Accounts                          REP Glenn Hegar                       District Courtroom Box 1                               01 
00080010002000314000005000162000147000000000000000000000000000000000000000000000000000000000000000000REP       Comptroller of Public Accounts                          REP Glenn Hegar                       FBC Fellowship Hall Box 4                              01 
00080010003000241000007000101000133000000000000000000000000000000000000000000000000000000000000000000REP       Comptroller of Public Accounts                          REP Glenn Hegar                       Rotan Community Center Box 10                          01 
00080010004000281000005000131000145000000000000000000000000000000000000000000000000000000000000000000REP       Comptroller of Public Accounts                          REP Glenn Hegar                       Rotan ISD Admin Bld Box 12                             01 
00080020001000045000013000017000015000000000000000000000000000000000000000000000000000000000000000000DEM       Comptroller of Public Accounts                          DEM Janet T. Dudding                  District Courtroom Box 1                               01 
00080020002000050000011000034000005000000000000000000000000000000000000000000000000000000000000000000DEM       Comptroller of Public Accounts                          DEM Janet T. Dudding                  FBC Fellowship Hall Box 4                              01 
00080020003000060000008000027000025000000000000000000000000000000000000000000000000000000000000000000DEM       Comptroller of Public Accounts                          DEM Janet T. Dudding                  Rotan Community Center Box 10                          01 
00080020004000061000005000031000025000000000000000000000000000000000000000000000000000000000000000000DEM       Comptroller of Public Accounts                          DEM Janet T. Dudding                  Rotan ISD Admin Bld Box 12                             01 
00080030001000002000000000000000002000000000000000000000000000000000000000000000000000000000000000000LIB       Comptroller of Public Accounts                          LIB V. Alonzo Echevarria-Garza        District Courtroom Box 1                               01 
00080030002000003000000000002000001000000000000000000000000000000000000000000000000000000000000000000LIB       Comptroller of Public Accounts                          LIB V. Alonzo Echevarria-Garza        FBC Fellowship Hall Box 4                              01 
00080030003000007000000000003000004000000000000000000000000000000000000000000000000000000000000000000LIB       Comptroller of Public Accounts                          LIB V. Alonzo Echevarria-Garza        Rotan Community Center Box 10                          01 
00080030004000001000000000001000000000000000000000000000000000000000000000000000000000000000000000000LIB       Comptroller of Public Accounts                          LIB V. Alonzo Echevarria-Garza        Rotan ISD Admin Bld Box 12                             01 
00080040001000000000000000000000000000000000000000000000000000000000000000000000000000000000000000000          Comptroller of Public Accounts                          OVER VOTES                            District Courtroom Box 1                               01 
00080040002000000000000000000000000000000000000000000000000000000000000000000000000000000000000000000          Comptroller of Public Accounts                          OVER VOTES                            FBC Fellowship Hall Box 4                              01 
00080040003000000000000000000000000000000000000000000000000000000000000000000000000000000000000000000          Comptroller of Public Accounts                          OVER VOTES                            Rotan Community Center Box 10                          01 
00080040004000000000000000000000000000000000000000000000000000000000000000000000000000000000000000000          Comptroller of Public Accounts                          OVER VOTES                            Rotan ISD Admin Bld Box 12                             01 
00080050001000010000001000005000004000000000000000000000000000000000000000000000000000000000000000000          Comptroller of Public Accounts                          UNDER VOTES                           District Courtroom Box 1                               01 
00080050002000010000000000007000003000000000000000000000000000000000000000000000000000000000000000000          Comptroller of Public Accounts                          UNDER VOTES                           FBC Fellowship Hall Box 4                              01 
00080050003000007000001000003000003000000000000000000000000000000000000000000000000000000000000000000          Comptroller of Public Accounts                          UNDER VOTES                           Rotan Community Center Box 10                          01 
00080050004000014000001000008000005000000000000000000000000000000000000000000000000000000000000000000          Comptroller of Public Accounts                          UNDER VOTES                           Rotan ISD Admin Bld Box 12                             01 
00090010001000300000011000161000128000000000000000000000000000000000000000000000000000000000000000000REP       Comm. General Land Office                               REP Dawn Buckingham                   District Courtroom Box 1                               01 
00090010002000308000005000158000145000000000000000000000000000000000000000000000000000000000000000000REP       Comm. General Land Office                               REP Dawn Buckingham                   FBC Fellowship Hall Box 4                              01 
00090010003000234000007000099000128000000000000000000000000000000000000000000000000000000000000000000REP       Comm. General Land Office                               REP Dawn Buckingham                   Rotan Community Center Box 10                          01 
00090010004000277000005000132000140000000000000000000000000000000000000000000000000000000000000000000REP       Comm. General Land Office                               REP Dawn Buckingham                   Rotan ISD Admin Bld Box 12                             01 
00090020001000049000013000020000016000000000000000000000000000000000000000000000000000000000000000000DEM       Comm. General Land Office                               DEM Jay Kleberg                       District Courtroom Box 1                               01 
00090020002000055000011000038000006000000000000000000000000000000000000000000000000000000000000000000DEM       Comm. General Land Office                               DEM Jay Kleberg                       FBC Fellowship Hall Box 4                              01 
00090020003000066000008000028000030000000000000000000000000000000000000000000000000000000000000000000DEM       Comm. General Land Office                               DEM Jay Kleberg                       Rotan Community Center Box 10                          01 
00090020004000066000005000033000028000000000000000000000000000000000000000000000000000000000000000000DEM       Comm. General Land Office                               DEM Jay Kleberg                       Rotan ISD Admin Bld Box 12                             01 
00090030001000003000000000001000002000000000000000000000000000000000000000000000000000000000000000000GRN       Comm. General Land Office                               GRN Alfred Molison, Jr.               District Courtroom Box 1                               01 
00090030002000000000000000000000000000000000000000000000000000000000000000000000000000000000000000000GRN       Comm. General Land Office                               GRN Alfred Molison, Jr.               FBC Fellowship Hall Box 4                              01 
00090030003000004000000000002000002000000000000000000000000000000000000000000000000000000000000000000GRN       Comm. General Land Office                               GRN Alfred Molison, Jr.               Rotan Community Center Box 10                          01 
00090030004000000000000000000000000000000000000000000000000000000000000000000000000000000000000000000GRN       Comm. General Land Office                               GRN Alfred Molison, Jr.               Rotan ISD Admin Bld Box 12                             01 
00090050001000000000000000000000000000000000000000000000000000000000000000000000000000000000000000000NON       Comm. General Land Office                               Write-in                              District Courtroom Box 1                               01 
00090050002000000000000000000000000000000000000000000000000000000000000000000000000000000000000000000NON       Comm. General Land Office                               Write-in                              FBC Fellowship Hall Box 4                              01 
00090050003000000000000000000000000000000000000000000000000000000000000000000000000000000000000000000NON       Comm. General Land Office                               Write-in                              Rotan Community Center Box 10                          01 
00090050004000000000000000000000000000000000000000000000000000000000000000000000000000000000000000000NON       Comm. General Land Office                               Write-in                              Rotan ISD Admin Bld Box 12                             01 
00090060001000000000000000000000000000000000000000000000000000000000000000000000000000000000000000000          Comm. General Land Office                               OVER VOTES                            District Courtroom Box 1                               01 
00090060002000000000000000000000000000000000000000000000000000000000000000000000000000000000000000000          Comm. General Land Office                               OVER VOTES                            FBC Fellowship Hall Box 4                              01 
00090060003000000000000000000000000000000000000000000000000000000000000000000000000000000000000000000          Comm. General Land Office                               OVER VOTES                            Rotan Community Center Box 10                          01 
00090060004000000000000000000000000000000000000000000000000000000000000000000000000000000000000000000          Comm. General Land Office                               OVER VOTES                            Rotan ISD Admin Bld Box 12                             01 
00090070001000011000001000005000005000000000000000000000000000000000000000000000000000000000000000000          Comm. General Land Office                               UNDER VOTES                           District Courtroom Box 1                               01 
00090070002000014000000000009000005000000000000000000000000000000000000000000000000000000000000000000          Comm. General Land Office                               UNDER VOTES                           FBC Fellowship Hall Box 4                              01 
00090070003000011000001000005000005000000000000000000000000000000000000000000000000000000000000000000          Comm. General Land Office                               UNDER VOTES                           Rotan Community Center Box 10                          01 
00090070004000014000001000006000007000000000000000000000000000000000000000000000000000000000000000000          Comm. General Land Office                               UNDER VOTES                           Rotan ISD Admin Bld Box 12                             01 
00100010001000304000011000161000132000000000000000000000000000000000000000000000000000000000000000000REP       Commissioner of Agriculture                             REP Sid Miller                        District Courtroom Box 1                               01 
00100010002000310000006000158000146000000000000000000000000000000000000000000000000000000000000000000REP       Commissioner of Agriculture                             REP Sid Miller                        FBC Fellowship Hall Box 4                              01 
00100010003000240000008000101000131000000000000000000000000000000000000000000000000000000000000000000REP       Commissioner of Agriculture                             REP Sid Miller                        Rotan Community Center Box 10                          01 
00100010004000272000005000128000139000000000000000000000000000000000000000000000000000000000000000000REP       Commissioner of Agriculture                             REP Sid Miller                        Rotan ISD Admin Bld Box 12                             01 
00100020001000049000014000020000015000000000000000000000000000000000000000000000000000000000000000000DEM       Commissioner of Agriculture                             DEM Susan Hays                        District Courtroom Box 1                               01 
00100020002000055000010000038000007000000000000000000000000000000000000000000000000000000000000000000DEM       Commissioner of Agriculture                             DEM Susan Hays                        FBC Fellowship Hall Box 4                              01 
00100020003000068000007000030000031000000000000000000000000000000000000000000000000000000000000000000DEM       Commissioner of Agriculture                             DEM Susan Hays                        Rotan Community Center Box 10                          01 
00100020004000069000006000032000031000000000000000000000000000000000000000000000000000000000000000000DEM       Commissioner of Agriculture                             DEM Susan Hays                        Rotan ISD Admin Bld Box 12                             01 
00100030001000000000000000000000000000000000000000000000000000000000000000000000000000000000000000000          Commissioner of Agriculture                             OVER VOTES                            District Courtroom Box 1                               01 
00100030002000000000000000000000000000000000000000000000000000000000000000000000000000000000000000000          Commissioner of Agriculture                             OVER VOTES                            FBC Fellowship Hall Box 4                              01 
00100030003000000000000000000000000000000000000000000000000000000000000000000000000000000000000000000          Commissioner of Agriculture                             OVER VOTES                            Rotan Community Center Box 10                          01 
00100030004000000000000000000000000000000000000000000000000000000000000000000000000000000000000000000          Commissioner of Agriculture                             OVER VOTES                            Rotan ISD Admin Bld Box 12                             01 
00100040001000010000000000006000004000000000000000000000000000000000000000000000000000000000000000000          Commissioner of Agriculture                             UNDER VOTES                           District Courtroom Box 1                               01 
00100040002000012000000000009000003000000000000000000000000000000000000000000000000000000000000000000          Commissioner of Agriculture                             UNDER VOTES                           FBC Fellowship Hall Box 4                              01 
00100040003000007000001000003000003000000000000000000000000000000000000000000000000000000000000000000          Commissioner of Agriculture                             UNDER VOTES                           Rotan Community Center Box 10                          01 
00100040004000016000000000011000005000000000000000000000000000000000000000000000000000000000000000000          Commissioner of Agriculture                             UNDER VOTES                           Rotan ISD Admin Bld Box 12                             01 
00110010001000295000011000160000124000000000000000000000000000000000000000000000000000000000000000000REP       Railroad Commissioner                                   REP Wayne Christian                   District Courtroom Box 1                               01 
00110010002000303000005000154000144000000000000000000000000000000000000000000000000000000000000000000REP       Railroad Commissioner                                   REP Wayne Christian                   FBC Fellowship Hall Box 4                              01 
00110010003000233000006000097000130000000000000000000000000000000000000000000000000000000000000000000REP       Railroad Commissioner                                   REP Wayne Christian                   Rotan Community Center Box 10                          01 
00110010004000269000005000125000139000000000000000000000000000000000000000000000000000000000000000000REP       Railroad Commissioner                                   REP Wayne Christian                   Rotan ISD Admin Bld Box 12                             01 
00110020001000044000012000017000015000000000000000000000000000000000000000000000000000000000000000000DEM       Railroad Commissioner                                   DEM Luke Warford                      District Courtroom Box 1                               01 
00110020002000053000010000037000006000000000000000000000000000000000000000000000000000000000000000000DEM       Railroad Commissioner                                   DEM Luke Warford                      FBC Fellowship Hall Box 4                              01 
00110020003000066000009000027000030000000000000000000000000000000000000000000000000000000000000000000DEM       Railroad Commissioner                                   DEM Luke Warford                      Rotan Community Center Box 10                          01 
00110020004000058000005000029000024000000000000000000000000000000000000000000000000000000000000000000DEM       Railroad Commissioner                                   DEM Luke Warford                      Rotan ISD Admin Bld Box 12                             01 
00110030001000007000001000001000005000000000000000000000000000000000000000000000000000000000000000000LIB       Railroad Commissioner                                   LIB Jaime Andres Diez                 District Courtroom Box 1                               01 
00110030002000003000000000002000001000000000000000000000000000000000000000000000000000000000000000000LIB       Railroad Commissioner                                   LIB Jaime Andres Diez                 FBC Fellowship Hall Box 4                              01 
00110030003000004000000000004000000000000000000000000000000000000000000000000000000000000000000000000LIB       Railroad Commissioner                                   LIB Jaime Andres Diez                 Rotan Community Center Box 10                          01 
00110030004000005000000000002000003000000000000000000000000000000000000000000000000000000000000000000LIB       Railroad Commissioner                                   LIB Jaime Andres Diez                 Rotan ISD Admin Bld Box 12                             01 
00110040001000001000000000000000001000000000000000000000000000000000000000000000000000000000000000000GRN       Railroad Commissioner                                   GRN Hunter Wayne Crow                 District Courtroom Box 1                               01 
00110040002000000000000000000000000000000000000000000000000000000000000000000000000000000000000000000GRN       Railroad Commissioner                                   GRN Hunter Wayne Crow                 FBC Fellowship Hall Box 4                              01 
00110040003000002000000000002000000000000000000000000000000000000000000000000000000000000000000000000GRN       Railroad Commissioner                                   GRN Hunter Wayne Crow                 Rotan Community Center Box 10                          01 
00110040004000004000000000002000002000000000000000000000000000000000000000000000000000000000000000000GRN       Railroad Commissioner                                   GRN Hunter Wayne Crow                 Rotan ISD Admin Bld Box 12                             01 
00110050001000000000000000000000000000000000000000000000000000000000000000000000000000000000000000000          Railroad Commissioner                                   OVER VOTES                            District Courtroom Box 1                               01 
00110050002000000000000000000000000000000000000000000000000000000000000000000000000000000000000000000          Railroad Commissioner                                   OVER VOTES                            FBC Fellowship Hall Box 4                              01 
00110050003000000000000000000000000000000000000000000000000000000000000000000000000000000000000000000          Railroad Commissioner                                   OVER VOTES                            Rotan Community Center Box 10                          01 
00110050004000000000000000000000000000000000000000000000000000000000000000000000000000000000000000000          Railroad Commissioner                                   OVER VOTES                            Rotan ISD Admin Bld Box 12                             01 
00110060001000016000001000009000006000000000000000000000000000000000000000000000000000000000000000000          Railroad Commissioner                                   UNDER VOTES                           District Courtroom Box 1                               01 
00110060002000018000001000012000005000000000000000000000000000000000000000000000000000000000000000000          Railroad Commissioner                                   UNDER VOTES                           FBC Fellowship Hall Box 4                              01 
00110060003000010000001000004000005000000000000000000000000000000000000000000000000000000000000000000          Railroad Commissioner                                   UNDER VOTES                           Rotan Community Center Box 10                          01 
00110060004000021000001000013000007000000000000000000000000000000000000000000000000000000000000000000          Railroad Commissioner                                   UNDER VOTES                           Rotan ISD Admin Bld Box 12                             01 
00120010001000300000012000161000127000000000000000000000000000000000000000000000000000000000000000000REP       Justice, Supreme Ct. Pl. 3                              REP Debra Lehrmann                    District Courtroom Box 1                               01 
00120010002000307000005000158000144000000000000000000000000000000000000000000000000000000000000000000REP       Justice, Supreme Ct. Pl. 3                              REP Debra Lehrmann                    FBC Fellowship Hall Box 4                              01 
00120010003000235000007000099000129000000000000000000000000000000000000000000000000000000000000000000REP       Justice, Supreme Ct. Pl. 3                              REP Debra Lehrmann                    Rotan Community Center Box 10                          01 
00120010004000268000005000125000138000000000000000000000000000000000000000000000000000000000000000000REP       Justice, Supreme Ct. Pl. 3                              REP Debra Lehrmann                    Rotan ISD Admin Bld Box 12                             01 
00120020001000042000012000015000015000000000000000000000000000000000000000000000000000000000000000000DEM       Justice, Supreme Ct. Pl. 3                              DEM Erin A. Nowell                    District Courtroom Box 1                               01 
00120020002000046000009000032000005000000000000000000000000000000000000000000000000000000000000000000DEM       Justice, Supreme Ct. Pl. 3                              DEM Erin A. Nowell                    FBC Fellowship Hall Box 4                              01 
00120020003000064000007000028000029000000000000000000000000000000000000000000000000000000000000000000DEM       Justice, Supreme Ct. Pl. 3                              DEM Erin A. Nowell                    Rotan Community Center Box 10                          01 
00120020004000069000005000032000032000000000000000000000000000000000000000000000000000000000000000000DEM       Justice, Supreme Ct. Pl. 3                              DEM Erin A. Nowell                    Rotan ISD Admin Bld Box 12                             01 
00120030001000003000000000000000003000000000000000000000000000000000000000000000000000000000000000000LIB       Justice, Supreme Ct. Pl. 3                              LIB Thomas Edward Oxford              District Courtroom Box 1                               01 
00120030002000004000000000001000003000000000000000000000000000000000000000000000000000000000000000000LIB       Justice, Supreme Ct. Pl. 3                              LIB Thomas Edward Oxford              FBC Fellowship Hall Box 4                              01 
00120030003000003000000000002000001000000000000000000000000000000000000000000000000000000000000000000LIB       Justice, Supreme Ct. Pl. 3                              LIB Thomas Edward Oxford              Rotan Community Center Box 10                          01 
00120030004000005000000000005000000000000000000000000000000000000000000000000000000000000000000000000LIB       Justice, Supreme Ct. Pl. 3                              LIB Thomas Edward Oxford              Rotan ISD Admin Bld Box 12                             01 
00120040001000000000000000000000000000000000000000000000000000000000000000000000000000000000000000000          Justice, Supreme Ct. Pl. 3                              OVER VOTES                            District Courtroom Box 1                               01 
00120040002000000000000000000000000000000000000000000000000000000000000000000000000000000000000000000          Justice, Supreme Ct. Pl. 3                              OVER VOTES                            FBC Fellowship Hall Box 4                              01 
00120040003000000000000000000000000000000000000000000000000000000000000000000000000000000000000000000          Justice, Supreme Ct. Pl. 3                              OVER VOTES                            Rotan Community Center Box 10                          01 
00120040004000000000000000000000000000000000000000000000000000000000000000000000000000000000000000000          Justice, Supreme Ct. Pl. 3                              OVER VOTES                            Rotan ISD Admin Bld Box 12                             01 
00120050001000018000001000011000006000000000000000000000000000000000000000000000000000000000000000000          Justice, Supreme Ct. Pl. 3                              UNDER VOTES                           District Courtroom Box 1                               01 
00120050002000020000002000014000004000000000000000000000000000000000000000000000000000000000000000000          Justice, Supreme Ct. Pl. 3                              UNDER VOTES                           FBC Fellowship Hall Box 4                              01 
00120050003000013000002000005000006000000000000000000000000000000000000000000000000000000000000000000          Justice, Supreme Ct. Pl. 3                              UNDER VOTES                           Rotan Community Center Box 10                          01 
00120050004000015000001000009000005000000000000000000000000000000000000000000000000000000000000000000          Justice, Supreme Ct. Pl. 3                              UNDER VOTES                           Rotan ISD Admin Bld Box 12                             01 
00130010001000301000012000162000127000000000000000000000000000000000000000000000000000000000000000000REP       Justice, Supreme Ct. Pl. 5                              REP Rebeca Huddle                     District Courtroom Box 1                               01 
00130010002000308000005000157000146000000000000000000000000000000000000000000000000000000000000000000REP       Justice, Supreme Ct. Pl. 5                              REP Rebeca Huddle                     FBC Fellowship Hall Box 4                              01 
00130010003000232000005000099000128000000000000000000000000000000000000000000000000000000000000000000REP       Justice, Supreme Ct. Pl. 5                              REP Rebeca Huddle                     Rotan Community Center Box 10                          01 
00130010004000275000005000129000141000000000000000000000000000000000000000000000000000000000000000000REP       Justice, Supreme Ct. Pl. 5                              REP Rebeca Huddle                     Rotan ISD Admin Bld Box 12                             01 
00130020001000044000012000015000017000000000000000000000000000000000000000000000000000000000000000000DEM       Justice, Supreme Ct. Pl. 5                              DEM Amanda Reichek                    District Courtroom Box 1                               01 
00130020002000053000011000036000006000000000000000000000000000000000000000000000000000000000000000000DEM       Justice, Supreme Ct. Pl. 5                              DEM Amanda Reichek                    FBC Fellowship Hall Box 4                              01 
00130020003000070000009000031000030000000000000000000000000000000000000000000000000000000000000000000DEM       Justice, Supreme Ct. Pl. 5                              DEM Amanda Reichek                    Rotan Community Center Box 10                          01 
00130020004000068000006000033000029000000000000000000000000000000000000000000000000000000000000000000DEM       Justice, Supreme Ct. Pl. 5                              DEM Amanda Reichek                    Rotan ISD Admin Bld Box 12                             01 
00130030001000000000000000000000000000000000000000000000000000000000000000000000000000000000000000000          Justice, Supreme Ct. Pl. 5                              OVER VOTES                            District Courtroom Box 1                               01 
00130030002000000000000000000000000000000000000000000000000000000000000000000000000000000000000000000          Justice, Supreme Ct. Pl. 5                              OVER VOTES                            FBC Fellowship Hall Box 4                              01 
00130030003000000000000000000000000000000000000000000000000000000000000000000000000000000000000000000          Justice, Supreme Ct. Pl. 5                              OVER VOTES                            Rotan Community Center Box 10                          01 
00130030004000000000000000000000000000000000000000000000000000000000000000000000000000000000000000000          Justice, Supreme Ct. Pl. 5                              OVER VOTES                            Rotan ISD Admin Bld Box 12                             01 
00130040001000018000001000010000007000000000000000000000000000000000000000000000000000000000000000000          Justice, Supreme Ct. Pl. 5                              UNDER VOTES                           District Courtroom Box 1                               01 
00130040002000016000000000012000004000000000000000000000000000000000000000000000000000000000000000000          Justice, Supreme Ct. Pl. 5                              UNDER VOTES                           FBC Fellowship Hall Box 4                              01 
00130040003000013000002000004000007000000000000000000000000000000000000000000000000000000000000000000          Justice, Supreme Ct. Pl. 5                              UNDER VOTES                           Rotan Community Center Box 10                          01 
00130040004000014000000000009000005000000000000000000000000000000000000000000000000000000000000000000          Justice, Supreme Ct. Pl. 5                              UNDER VOTES                           Rotan ISD Admin Bld Box 12                             01 
00140010001000304000012000162000130000000000000000000000000000000000000000000000000000000000000000000REP       Justice, Supreme Ct. Pl. 9                              REP Evan Young                        District Courtroom Box 1                               01 
00140010002000301000005000152000144000000000000000000000000000000000000000000000000000000000000000000REP       Justice, Supreme Ct. Pl. 9                              REP Evan Young                        FBC Fellowship Hall Box 4                              01 
00140010003000231000007000100000124000000000000000000000000000000000000000000000000000000000000000000REP       Justice, Supreme Ct. Pl. 9                              REP Evan Young                        Rotan Community Center Box 10                          01 
00140010004000269000005000126000138000000000000000000000000000000000000000000000000000000000000000000REP       Justice, Supreme Ct. Pl. 9                              REP Evan Young                        Rotan ISD Admin Bld Box 12                             01 
00140020001000043000012000017000014000000000000000000000000000000000000000000000000000000000000000000DEM       Justice, Supreme Ct. Pl. 9                              DEM Julia Maldonado                   District Courtroom Box 1                               01 
00140020002000055000009000040000006000000000000000000000000000000000000000000000000000000000000000000DEM       Justice, Supreme Ct. Pl. 9                              DEM Julia Maldonado                   FBC Fellowship Hall Box 4                              01 
00140020003000067000007000029000031000000000000000000000000000000000000000000000000000000000000000000DEM       Justice, Supreme Ct. Pl. 9                              DEM Julia Maldonado                   Rotan Community Center Box 10                          01 
00140020004000067000004000033000030000000000000000000000000000000000000000000000000000000000000000000DEM       Justice, Supreme Ct. Pl. 9                              DEM Julia Maldonado                   Rotan ISD Admin Bld Box 12                             01 
00140030001000000000000000000000000000000000000000000000000000000000000000000000000000000000000000000          Justice, Supreme Ct. Pl. 9                              OVER VOTES                            District Courtroom Box 1                               01 
00140030002000000000000000000000000000000000000000000000000000000000000000000000000000000000000000000          Justice, Supreme Ct. Pl. 9                              OVER VOTES                            FBC Fellowship Hall Box 4                              01 
00140030003000000000000000000000000000000000000000000000000000000000000000000000000000000000000000000          Justice, Supreme Ct. Pl. 9                              OVER VOTES                            Rotan Community Center Box 10                          01 
00140030004000000000000000000000000000000000000000000000000000000000000000000000000000000000000000000          Justice, Supreme Ct. Pl. 9                              OVER VOTES                            Rotan ISD Admin Bld Box 12                             01 
00140040001000016000001000008000007000000000000000000000000000000000000000000000000000000000000000000          Justice, Supreme Ct. Pl. 9                              UNDER VOTES                           District Courtroom Box 1                               01 
00140040002000021000002000013000006000000000000000000000000000000000000000000000000000000000000000000          Justice, Supreme Ct. Pl. 9                              UNDER VOTES                           FBC Fellowship Hall Box 4                              01 
00140040003000017000002000005000010000000000000000000000000000000000000000000000000000000000000000000          Justice, Supreme Ct. Pl. 9                              UNDER VOTES                           Rotan Community Center Box 10                          01 
00140040004000021000002000012000007000000000000000000000000000000000000000000000000000000000000000000          Justice, Supreme Ct. Pl. 9                              UNDER VOTES                           Rotan ISD Admin Bld Box 12                             01 
00150010001000300000011000162000127000000000000000000000000000000000000000000000000000000000000000000REP       Judge, Ct of Crim. Appeals, Pl 5                        REP Scott Walker                      District Courtroom Box 1                               01 
00150010002000308000005000156000147000000000000000000000000000000000000000000000000000000000000000000REP       Judge, Ct of Crim. Appeals, Pl 5                        REP Scott Walker                      FBC Fellowship Hall Box 4                              01 
00150010003000235000006000099000130000000000000000000000000000000000000000000000000000000000000000000REP       Judge, Ct of Crim. Appeals, Pl 5                        REP Scott Walker                      Rotan Community Center Box 10                          01 
00150010004000272000005000128000139000000000000000000000000000000000000000000000000000000000000000000REP       Judge, Ct of Crim. Appeals, Pl 5                        REP Scott Walker                      Rotan ISD Admin Bld Box 12                             01 
00150020001000045000012000016000017000000000000000000000000000000000000000000000000000000000000000000DEM       Judge, Ct of Crim. Appeals, Pl 5                        DEM Dana Huffman                      District Courtroom Box 1                               01 
00150020002000049000009000035000005000000000000000000000000000000000000000000000000000000000000000000DEM       Judge, Ct of Crim. Appeals, Pl 5                        DEM Dana Huffman                      FBC Fellowship Hall Box 4                              01 
00150020003000068000008000031000029000000000000000000000000000000000000000000000000000000000000000000DEM       Judge, Ct of Crim. Appeals, Pl 5                        DEM Dana Huffman                      Rotan Community Center Box 10                          01 
00150020004000066000005000031000030000000000000000000000000000000000000000000000000000000000000000000DEM       Judge, Ct of Crim. Appeals, Pl 5                        DEM Dana Huffman                      Rotan ISD Admin Bld Box 12                             01 
00150030001000000000000000000000000000000000000000000000000000000000000000000000000000000000000000000          Judge, Ct of Crim. Appeals, Pl 5                        OVER VOTES                            District Courtroom Box 1                               01 
00150030002000000000000000000000000000000000000000000000000000000000000000000000000000000000000000000          Judge, Ct of Crim. Appeals, Pl 5                        OVER VOTES                            FBC Fellowship Hall Box 4                              01 
00150030003000000000000000000000000000000000000000000000000000000000000000000000000000000000000000000          Judge, Ct of Crim. Appeals, Pl 5                        OVER VOTES                            Rotan Community Center Box 10                          01 
00150030004000000000000000000000000000000000000000000000000000000000000000000000000000000000000000000          Judge, Ct of Crim. Appeals, Pl 5                        OVER VOTES                            Rotan ISD Admin Bld Box 12                             01 
00150040001000018000002000009000007000000000000000000000000000000000000000000000000000000000000000000          Judge, Ct of Crim. Appeals, Pl 5                        UNDER VOTES                           District Courtroom Box 1                               01 
00150040002000020000002000014000004000000000000000000000000000000000000000000000000000000000000000000          Judge, Ct of Crim. Appeals, Pl 5                        UNDER VOTES                           FBC Fellowship Hall Box 4                              01 
00150040003000012000002000004000006000000000000000000000000000000000000000000000000000000000000000000          Judge, Ct of Crim. Appeals, Pl 5                        UNDER VOTES                           Rotan Community Center Box 10                          01 
00150040004000019000001000012000006000000000000000000000000000000000000000000000000000000000000000000          Judge, Ct of Crim. Appeals, Pl 5                        UNDER VOTES                           Rotan ISD Admin Bld Box 12                             01 
00160010001000300000011000161000128000000000000000000000000000000000000000000000000000000000000000000REP       Judge, Ct of Crim. Appeals, Pl 6                        REP Jesse F. McClure, III             District Courtroom Box 1                               01 
00160010002000303000005000154000144000000000000000000000000000000000000000000000000000000000000000000REP       Judge, Ct of Crim. Appeals, Pl 6                        REP Jesse F. McClure, III             FBC Fellowship Hall Box 4                              01 
00160010003000235000008000099000128000000000000000000000000000000000000000000000000000000000000000000REP       Judge, Ct of Crim. Appeals, Pl 6                        REP Jesse F. McClure, III             Rotan Community Center Box 10                          01 
00160010004000271000005000127000139000000000000000000000000000000000000000000000000000000000000000000REP       Judge, Ct of Crim. Appeals, Pl 6                        REP Jesse F. McClure, III             Rotan ISD Admin Bld Box 12                             01 
00160020001000045000013000016000016000000000000000000000000000000000000000000000000000000000000000000DEM       Judge, Ct of Crim. Appeals, Pl 6                        DEM Robert Johnson                    District Courtroom Box 1                               01 
00160020002000051000009000034000008000000000000000000000000000000000000000000000000000000000000000000DEM       Judge, Ct of Crim. Appeals, Pl 6                        DEM Robert Johnson                    FBC Fellowship Hall Box 4                              01 
00160020003000068000007000031000030000000000000000000000000000000000000000000000000000000000000000000DEM       Judge, Ct of Crim. Appeals, Pl 6                        DEM Robert Johnson                    Rotan Community Center Box 10                          01 
00160020004000068000004000034000030000000000000000000000000000000000000000000000000000000000000000000DEM       Judge, Ct of Crim. Appeals, Pl 6                        DEM Robert Johnson                    Rotan ISD Admin Bld Box 12                             01 
00160030001000000000000000000000000000000000000000000000000000000000000000000000000000000000000000000          Judge, Ct of Crim. Appeals, Pl 6                        OVER VOTES                            District Courtroom Box 1                               01 
00160030002000000000000000000000000000000000000000000000000000000000000000000000000000000000000000000          Judge, Ct of Crim. Appeals, Pl 6                        OVER VOTES                            FBC Fellowship Hall Box 4                              01 
00160030003000000000000000000000000000000000000000000000000000000000000000000000000000000000000000000          Judge, Ct of Crim. Appeals, Pl 6                        OVER VOTES                            Rotan Community Center Box 10                          01 
00160030004000000000000000000000000000000000000000000000000000000000000000000000000000000000000000000          Judge, Ct of Crim. Appeals, Pl 6                        OVER VOTES                            Rotan ISD Admin Bld Box 12                             01 
00160040001000018000001000010000007000000000000000000000000000000000000000000000000000000000000000000          Judge, Ct of Crim. Appeals, Pl 6                        UNDER VOTES                           District Courtroom Box 1                               01 
00160040002000023000002000017000004000000000000000000000000000000000000000000000000000000000000000000          Judge, Ct of Crim. Appeals, Pl 6                        UNDER VOTES                           FBC Fellowship Hall Box 4                              01 
00160040003000012000001000004000007000000000000000000000000000000000000000000000000000000000000000000          Judge, Ct of Crim. Appeals, Pl 6                        UNDER VOTES                           Rotan Community Center Box 10                          01 
00160040004000018000002000010000006000000000000000000000000000000000000000000000000000000000000000000          Judge, Ct of Crim. Appeals, Pl 6                        UNDER VOTES                           Rotan ISD Admin Bld Box 12                             01 
00170010001000296000011000160000125000000000000000000000000000000000000000000000000000000000000000000REP       State Representative, District 69                       REP James B. Frank                    District Courtroom Box 1                               01 
00170010002000306000005000155000146000000000000000000000000000000000000000000000000000000000000000000REP       State Representative, District 69                       REP James B. Frank                    FBC Fellowship Hall Box 4                              01 
00170010003000232000007000097000128000000000000000000000000000000000000000000000000000000000000000000REP       State Representative, District 69                       REP James B. Frank                    Rotan Community Center Box 10                          01 
00170010004000271000005000125000141000000000000000000000000000000000000000000000000000000000000000000REP       State Representative, District 69                       REP James B. Frank                    Rotan ISD Admin Bld Box 12                             01 
00170020001000044000013000016000015000000000000000000000000000000000000000000000000000000000000000000DEM       State Representative, District 69                       DEM Walter Coppage                    District Courtroom Box 1                               01 
00170020002000047000009000033000005000000000000000000000000000000000000000000000000000000000000000000DEM       State Representative, District 69                       DEM Walter Coppage                    FBC Fellowship Hall Box 4                              01 
00170020003000064000007000029000028000000000000000000000000000000000000000000000000000000000000000000DEM       State Representative, District 69                       DEM Walter Coppage                    Rotan Community Center Box 10                          01 
00170020004000065000005000032000028000000000000000000000000000000000000000000000000000000000000000000DEM       State Representative, District 69                       DEM Walter Coppage                    Rotan ISD Admin Bld Box 12                             01 
00170030001000004000000000000000004000000000000000000000000000000000000000000000000000000000000000000LIB       State Representative, District 69                       LIB Michael Neumann                   District Courtroom Box 1                               01 
00170030002000003000000000002000001000000000000000000000000000000000000000000000000000000000000000000LIB       State Representative, District 69                       LIB Michael Neumann                   FBC Fellowship Hall Box 4                              01 
00170030003000007000000000004000003000000000000000000000000000000000000000000000000000000000000000000LIB       State Representative, District 69                       LIB Michael Neumann                   Rotan Community Center Box 10                          01 
00170030004000003000000000003000000000000000000000000000000000000000000000000000000000000000000000000LIB       State Representative, District 69                       LIB Michael Neumann                   Rotan ISD Admin Bld Box 12                             01 
00170040001000000000000000000000000000000000000000000000000000000000000000000000000000000000000000000          State Representative, District 69                       OVER VOTES                            District Courtroom Box 1                               01 
00170040002000000000000000000000000000000000000000000000000000000000000000000000000000000000000000000          State Representative, District 69                       OVER VOTES                            FBC Fellowship Hall Box 4                              01 
00170040003000000000000000000000000000000000000000000000000000000000000000000000000000000000000000000          State Representative, District 69                       OVER VOTES                            Rotan Community Center Box 10                          01 
00170040004000000000000000000000000000000000000000000000000000000000000000000000000000000000000000000          State Representative, District 69                       OVER VOTES                            Rotan ISD Admin Bld Box 12                             01 
00170050001000019000001000011000007000000000000000000000000000000000000000000000000000000000000000000          State Representative, District 69                       UNDER VOTES                           District Courtroom Box 1                               01 
00170050002000021000002000015000004000000000000000000000000000000000000000000000000000000000000000000          State Representative, District 69                       UNDER VOTES                           FBC Fellowship Hall Box 4                              01 
00170050003000012000002000004000006000000000000000000000000000000000000000000000000000000000000000000          State Representative, District 69                       UNDER VOTES                           Rotan Community Center Box 10                          01 
00170050004000018000001000011000006000000000000000000000000000000000000000000000000000000000000000000          State Representative, District 69                       UNDER VOTES                           Rotan ISD Admin Bld Box 12                             01 
00180010003000105000004000049000052000000000000000000000000000000000000000000000000000000000000000000NONCIT001 Mayor City of Rotan, Texas                              Zach Johnson                          Rotan Community Center Box 10 City of Rotan, Texas     01 
00180010004000195000002000088000105000000000000000000000000000000000000000000000000000000000000000000NONCIT001 Mayor City of Rotan, Texas                              Zach Johnson                          Rotan ISD Admin Bld Box 12    City of Rotan, Texas     01 
00180020003000000000000000000000000000000000000000000000000000000000000000000000000000000000000000000   CIT001 Mayor City of Rotan, Texas                              OVER VOTES                            Rotan Community Center Box 10 City of Rotan, Texas     01 
00180020004000000000000000000000000000000000000000000000000000000000000000000000000000000000000000000   CIT001 Mayor City of Rotan, Texas                              OVER VOTES                            Rotan ISD Admin Bld Box 12    City of Rotan, Texas     01 
00180030003000022000003000007000012000000000000000000000000000000000000000000000000000000000000000000   CIT001 Mayor City of Rotan, Texas                              UNDER VOTES                           Rotan Community Center Box 10 City of Rotan, Texas     01 
00180030004000054000006000026000022000000000000000000000000000000000000000000000000000000000000000000   CIT001 Mayor City of Rotan, Texas                              UNDER VOTES                           Rotan ISD Admin Bld Box 12    City of Rotan, Texas     01 
00190010003000038000000000018000020000000000000000000000000000000000000000000000000000000000000000000NONCIT001 Councilman City of Rotan, Texas                         Randy Cox                             Rotan Community Center Box 10 City of Rotan, Texas     05 
00190010004000088000003000034000051000000000000000000000000000000000000000000000000000000000000000000NONCIT001 Councilman City of Rotan, Texas                         Randy Cox                             Rotan ISD Admin Bld Box 12    City of Rotan, Texas     05 
00190020003000017000000000009000008000000000000000000000000000000000000000000000000000000000000000000NONCIT001 Councilman City of Rotan, Texas                         Randy Cox                             Rotan Community Center Box 10 City of Rotan, Texas     05 
00190020004000045000000000019000026000000000000000000000000000000000000000000000000000000000000000000NONCIT001 Councilman City of Rotan, Texas                         Randy Cox                             Rotan ISD Admin Bld Box 12    City of Rotan, Texas     05 
00190030003000012000000000007000005000000000000000000000000000000000000000000000000000000000000000000NONCIT001 Councilman City of Rotan, Texas                         Randy Cox                             Rotan Community Center Box 10 City of Rotan, Texas     05 
00190030004000035000000000014000021000000000000000000000000000000000000000000000000000000000000000000NONCIT001 Councilman City of Rotan, Texas                         Randy Cox                             Rotan ISD Admin Bld Box 12    City of Rotan, Texas     05 
00190040003000009000000000004000005000000000000000000000000000000000000000000000000000000000000000000NONCIT001 Councilman City of Rotan, Texas                         Randy Cox                             Rotan Community Center Box 10 City of Rotan, Texas     05 
00190040004000018000000000009000009000000000000000000000000000000000000000000000000000000000000000000NONCIT001 Councilman City of Rotan, Texas                         Randy Cox                             Rotan ISD Admin Bld Box 12    City of Rotan, Texas     05 
00190050003000010000000000004000006000000000000000000000000000000000000000000000000000000000000000000NONCIT001 Councilman City of Rotan, Texas                         Randy Cox                             Rotan Community Center Box 10 City of Rotan, Texas     05 
00190050004000023000000000009000014000000000000000000000000000000000000000000000000000000000000000000NONCIT001 Councilman City of Rotan, Texas                         Randy Cox                             Rotan ISD Admin Bld Box 12    City of Rotan, Texas     05 
00190060003000043000000000023000020000000000000000000000000000000000000000000000000000000000000000000NONCIT001 Councilman City of Rotan, Texas                         Loyd Greene                           Rotan Community Center Box 10 City of Rotan, Texas     05 
00190060004000073000001000035000037000000000000000000000000000000000000000000000000000000000000000000NONCIT001 Councilman City of Rotan, Texas                         Loyd Greene                           Rotan ISD Admin Bld Box 12    City of Rotan, Texas     05 
00190070003000029000000000017000012000000000000000000000000000000000000000000000000000000000000000000NONCIT001 Councilman City of Rotan, Texas                         Loyd Greene                           Rotan Community Center Box 10 City of Rotan, Texas     05 
00190070004000050000000000023000027000000000000000000000000000000000000000000000000000000000000000000NONCIT001 Councilman City of Rotan, Texas                         Loyd Greene                           Rotan ISD Admin Bld Box 12    City of Rotan, Texas     05 
00190080003000023000000000012000011000000000000000000000000000000000000000000000000000000000000000000NONCIT001 Councilman City of Rotan, Texas                         Loyd Greene                           Rotan Community Center Box 10 City of Rotan, Texas     05 
00190080004000041000000000020000021000000000000000000000000000000000000000000000000000000000000000000NONCIT001 Councilman City of Rotan, Texas                         Loyd Greene                           Rotan ISD Admin Bld Box 12    City of Rotan, Texas     05 
00190090003000016000000000007000009000000000000000000000000000000000000000000000000000000000000000000NONCIT001 Councilman City of Rotan, Texas                         Loyd Greene                           Rotan Community Center Box 10 City of Rotan, Texas     05 
00190090004000038000000000020000018000000000000000000000000000000000000000000000000000000000000000000NONCIT001 Councilman City of Rotan, Texas                         Loyd Greene                           Rotan ISD Admin Bld Box 12    City of Rotan, Texas     05 
00190100003000014000000000007000007000000000000000000000000000000000000000000000000000000000000000000NONCIT001 Councilman City of Rotan, Texas                         Loyd Greene                           Rotan Community Center Box 10 City of Rotan, Texas     05 
00190100004000039000000000019000020000000000000000000000000000000000000000000000000000000000000000000NONCIT001 Councilman City of Rotan, Texas                         Loyd Greene                           Rotan ISD Admin Bld Box 12    City of Rotan, Texas     05 
00190110003000029000000000008000021000000000000000000000000000000000000000000000000000000000000000000NONCIT001 Councilman City of Rotan, Texas                         Joy Dennis                            Rotan Community Center Box 10 City of Rotan, Texas     05 
00190110004000082000001000042000039000000000000000000000000000000000000000000000000000000000000000000NONCIT001 Councilman City of Rotan, Texas                         Joy Dennis                            Rotan ISD Admin Bld Box 12    City of Rotan, Texas     05 
00190120003000018000000000010000008000000000000000000000000000000000000000000000000000000000000000000NONCIT001 Councilman City of Rotan, Texas                         Joy Dennis                            Rotan Community Center Box 10 City of Rotan, Texas     05 
00190120004000050000001000031000018000000000000000000000000000000000000000000000000000000000000000000NONCIT001 Councilman City of Rotan, Texas                         Joy Dennis                            Rotan ISD Admin Bld Box 12    City of Rotan, Texas     05 
00190130003000011000000000006000005000000000000000000000000000000000000000000000000000000000000000000NONCIT001 Councilman City of Rotan, Texas                         Joy Dennis                            Rotan Community Center Box 10 City of Rotan, Texas     05 
00190130004000043000000000024000019000000000000000000000000000000000000000000000000000000000000000000NONCIT001 Councilman City of Rotan, Texas                         Joy Dennis                            Rotan ISD Admin Bld Box 12    City of Rotan, Texas     05 
00190140003000011000000000005000006000000000000000000000000000000000000000000000000000000000000000000NONCIT001 Councilman City of Rotan, Texas                         Joy Dennis                            Rotan Community Center Box 10 City of Rotan, Texas     05 
00190140004000029000000000017000012000000000000000000000000000000000000000000000000000000000000000000NONCIT001 Councilman City of Rotan, Texas                         Joy Dennis                            Rotan ISD Admin Bld Box 12    City of Rotan, Texas     05 
00190150003000008000000000004000004000000000000000000000000000000000000000000000000000000000000000000NONCIT001 Councilman City of Rotan, Texas                         Joy Dennis                            Rotan Community Center Box 10 City of Rotan, Texas     05 
00190150004000024000000000015000009000000000000000000000000000000000000000000000000000000000000000000NONCIT001 Councilman City of Rotan, Texas                         Joy Dennis                            Rotan ISD Admin Bld Box 12    City of Rotan, Texas     05 
00190160003000034000002000013000019000000000000000000000000000000000000000000000000000000000000000000NONCIT001 Councilman City of Rotan, Texas                         Frank Miranda                         Rotan Community Center Box 10 City of Rotan, Texas     05 
00190160004000081000006000036000039000000000000000000000000000000000000000000000000000000000000000000NONCIT001 Councilman City of Rotan, Texas                         Frank Miranda                         Rotan ISD Admin Bld Box 12    City of Rotan, Texas     05 
00190170003000022000001000008000013000000000000000000000000000000000000000000000000000000000000000000NONCIT001 Councilman City of Rotan, Texas                         Frank Miranda                         Rotan Community Center Box 10 City of Rotan, Texas     05 
00190170004000052000003000020000029000000000000000000000000000000000000000000000000000000000000000000NONCIT001 Councilman City of Rotan, Texas                         Frank Miranda                         Rotan ISD Admin Bld Box 12    City of Rotan, Texas     05 
00190180003000016000000000004000012000000000000000000000000000000000000000000000000000000000000000000NONCIT001 Councilman City of Rotan, Texas                         Frank Miranda                         Rotan Community Center Box 10 City of Rotan, Texas     05 
00190180004000041000003000015000023000000000000000000000000000000000000000000000000000000000000000000NONCIT001 Councilman City of Rotan, Texas                         Frank Miranda                         Rotan ISD Admin Bld Box 12    City of Rotan, Texas     05 
00190190003000018000000000008000010000000000000000000000000000000000000000000000000000000000000000000NONCIT001 Councilman City of Rotan, Texas                         Frank Miranda                         Rotan Community Center Box 10 City of Rotan, Texas     05 
00190190004000035000003000013000019000000000000000000000000000000000000000000000000000000000000000000NONCIT001 Councilman City of Rotan, Texas                         Frank Miranda                         Rotan ISD Admin Bld Box 12    City of Rotan, Texas     05 
00190200003000019000000000007000012000000000000000000000000000000000000000000000000000000000000000000NONCIT001 Councilman City of Rotan, Texas                         Frank Miranda                         Rotan Community Center Box 10 City of Rotan, Texas     05 
00190200004000033000003000012000018000000000000000000000000000000000000000000000000000000000000000000NONCIT001 Councilman City of Rotan, Texas                         Frank Miranda                         Rotan ISD Admin Bld Box 12    City of Rotan, Texas     05 
00190210003000031000002000014000015000000000000000000000000000000000000000000000000000000000000000000NONCIT001 Councilman City of Rotan, Texas                         Gordon Scott Toliver                  Rotan Community Center Box 10 City of Rotan, Texas     05 
00190210004000050000003000020000027000000000000000000000000000000000000000000000000000000000000000000NONCIT001 Councilman City of Rotan, Texas                         Gordon Scott Toliver                  Rotan ISD Admin Bld Box 12    City of Rotan, Texas     05 
00190220003000021000001000012000008000000000000000000000000000000000000000000000000000000000000000000NONCIT001 Councilman City of Rotan, Texas                         Gordon Scott Toliver                  Rotan Community Center Box 10 City of Rotan, Texas     05 
00190220004000017000001000006000010000000000000000000000000000000000000000000000000000000000000000000NONCIT001 Councilman City of Rotan, Texas                         Gordon Scott Toliver                  Rotan ISD Admin Bld Box 12    City of Rotan, Texas     05 
00190230003000017000001000010000006000000000000000000000000000000000000000000000000000000000000000000NONCIT001 Councilman City of Rotan, Texas                         Gordon Scott Toliver                  Rotan Community Center Box 10 City of Rotan, Texas     05 
00190230004000015000001000005000009000000000000000000000000000000000000000000000000000000000000000000NONCIT001 Councilman City of Rotan, Texas                         Gordon Scott Toliver                  Rotan ISD Admin Bld Box 12    City of Rotan, Texas     05 
00190240003000011000000000009000002000000000000000000000000000000000000000000000000000000000000000000NONCIT001 Councilman City of Rotan, Texas                         Gordon Scott Toliver                  Rotan Community Center Box 10 City of Rotan, Texas     05 
00190240004000016000001000006000009000000000000000000000000000000000000000000000000000000000000000000NONCIT001 Councilman City of Rotan, Texas                         Gordon Scott Toliver                  Rotan ISD Admin Bld Box 12    City of Rotan, Texas     05 
00190250003000007000000000006000001000000000000000000000000000000000000000000000000000000000000000000NONCIT001 Councilman City of Rotan, Texas                         Gordon Scott Toliver                  Rotan Community Center Box 10 City of Rotan, Texas     05 
00190250004000012000001000004000007000000000000000000000000000000000000000000000000000000000000000000NONCIT001 Councilman City of Rotan, Texas                         Gordon Scott Toliver                  Rotan ISD Admin Bld Box 12    City of Rotan, Texas     05 
00190310003000020000000000001000019000000000000000000000000000000000000000000000000000000000000000000NONCIT001 Councilman City of Rotan, Texas                         Write-in                              Rotan Community Center Box 10 City of Rotan, Texas     05 
00190310004000046000000000020000026000000000000000000000000000000000000000000000000000000000000000000NONCIT001 Councilman City of Rotan, Texas                         Write-in                              Rotan ISD Admin Bld Box 12    City of Rotan, Texas     05 
00190320003000015000015000000000000000000000000000000000000000000000000000000000000000000000000000000   CIT001 Councilman City of Rotan, Texas                         OVER VOTES                            Rotan Community Center Box 10 City of Rotan, Texas     05 
00190320004000005000005000000000000000000000000000000000000000000000000000000000000000000000000000000   CIT001 Councilman City of Rotan, Texas                         OVER VOTES                            Rotan ISD Admin Bld Box 12    City of Rotan, Texas     05 
00190330003000116000013000047000056000000000000000000000000000000000000000000000000000000000000000000   CIT001 Councilman City of Rotan, Texas                         UNDER VOTES                           Rotan Community Center Box 10 City of Rotan, Texas     05 
00190330004000164000004000082000078000000000000000000000000000000000000000000000000000000000000000000   CIT001 Councilman City of Rotan, Texas                         UNDER VOTES                           Rotan ISD Admin Bld Box 12    City of Rotan, Texas     05 
00200010001000124000003000072000049000000000000000000000000000000000000000000000000000000000000000000NONISD001 School Board Trustee Election Roby CISD                 Stormy Rasberry                       District Courtroom Box 1      Roby CISD                04 
00200010002000141000007000076000058000000000000000000000000000000000000000000000000000000000000000000NONISD001 School Board Trustee Election Roby CISD                 Stormy Rasberry                       FBC Fellowship Hall Box 4     Roby CISD                04 
00200010003000025000002000017000006000000000000000000000000000000000000000000000000000000000000000000NONISD001 School Board Trustee Election Roby CISD                 Stormy Rasberry                       Rotan Community Center Box 10 Roby CISD                04 
00200010004000020000000000015000005000000000000000000000000000000000000000000000000000000000000000000NONISD001 School Board Trustee Election Roby CISD                 Stormy Rasberry                       Rotan ISD Admin Bld Box 12    Roby CISD                04 
00200020001000065000001000035000029000000000000000000000000000000000000000000000000000000000000000000NONISD001 School Board Trustee Election Roby CISD                 Jerry Carrion                         District Courtroom Box 1      Roby CISD                04 
00200020002000076000001000036000039000000000000000000000000000000000000000000000000000000000000000000NONISD001 School Board Trustee Election Roby CISD                 Jerry Carrion                         FBC Fellowship Hall Box 4     Roby CISD                04 
00200020003000006000001000002000003000000000000000000000000000000000000000000000000000000000000000000NONISD001 School Board Trustee Election Roby CISD                 Jerry Carrion                         Rotan Community Center Box 10 Roby CISD                04 
00200020004000008000000000005000003000000000000000000000000000000000000000000000000000000000000000000NONISD001 School Board Trustee Election Roby CISD                 Jerry Carrion                         Rotan ISD Admin Bld Box 12    Roby CISD                04 
00200030001000110000002000062000046000000000000000000000000000000000000000000000000000000000000000000NONISD001 School Board Trustee Election Roby CISD                 Dakota Rasberry                       District Courtroom Box 1      Roby CISD                04 
00200030002000141000006000081000054000000000000000000000000000000000000000000000000000000000000000000NONISD001 School Board Trustee Election Roby CISD                 Dakota Rasberry                       FBC Fellowship Hall Box 4     Roby CISD                04 
00200030003000017000001000009000007000000000000000000000000000000000000000000000000000000000000000000NONISD001 School Board Trustee Election Roby CISD                 Dakota Rasberry                       Rotan Community Center Box 10 Roby CISD                04 
00200030004000016000000000013000003000000000000000000000000000000000000000000000000000000000000000000NONISD001 School Board Trustee Election Roby CISD                 Dakota Rasberry                       Rotan ISD Admin Bld Box 12    Roby CISD                04 
00200040001000164000004000089000071000000000000000000000000000000000000000000000000000000000000000000NONISD001 School Board Trustee Election Roby CISD                 Michele Terry                         District Courtroom Box 1      Roby CISD                04 
00200040002000199000009000109000081000000000000000000000000000000000000000000000000000000000000000000NONISD001 School Board Trustee Election Roby CISD                 Michele Terry                         FBC Fellowship Hall Box 4     Roby CISD                04 
00200040003000025000002000016000007000000000000000000000000000000000000000000000000000000000000000000NONISD001 School Board Trustee Election Roby CISD                 Michele Terry                         Rotan Community Center Box 10 Roby CISD                04 
00200040004000018000000000013000005000000000000000000000000000000000000000000000000000000000000000000NONISD001 School Board Trustee Election Roby CISD                 Michele Terry                         Rotan ISD Admin Bld Box 12    Roby CISD                04 
00200050001000068000003000037000028000000000000000000000000000000000000000000000000000000000000000000NONISD001 School Board Trustee Election Roby CISD                 April Noell                           District Courtroom Box 1      Roby CISD                04 
00200050002000086000003000047000036000000000000000000000000000000000000000000000000000000000000000000NONISD001 School Board Trustee Election Roby CISD                 April Noell                           FBC Fellowship Hall Box 4     Roby CISD                04 
00200050003000014000001000011000002000000000000000000000000000000000000000000000000000000000000000000NONISD001 School Board Trustee Election Roby CISD                 April Noell                           Rotan Community Center Box 10 Roby CISD                04 
00200050004000002000000000002000000000000000000000000000000000000000000000000000000000000000000000000NONISD001 School Board Trustee Election Roby CISD                 April Noell                           Rotan ISD Admin Bld Box 12    Roby CISD                04 
00200060001000150000005000088000057000000000000000000000000000000000000000000000000000000000000000000NONISD001 School Board Trustee Election Roby CISD                 Kevin Kelly                           District Courtroom Box 1      Roby CISD                04 
00200060002000183000013000103000067000000000000000000000000000000000000000000000000000000000000000000NONISD001 School Board Trustee Election Roby CISD                 Kevin Kelly                           FBC Fellowship Hall Box 4     Roby CISD                04 
00200060003000025000001000018000006000000000000000000000000000000000000000000000000000000000000000000NONISD001 School Board Trustee Election Roby CISD                 Kevin Kelly                           Rotan Community Center Box 10 Roby CISD                04 
00200060004000016000000000013000003000000000000000000000000000000000000000000000000000000000000000000NONISD001 School Board Trustee Election Roby CISD                 Kevin Kelly                           Rotan ISD Admin Bld Box 12    Roby CISD                04 
00200070001000000000000000000000000000000000000000000000000000000000000000000000000000000000000000000   ISD001 School Board Trustee Election Roby CISD                 OVER VOTES                            District Courtroom Box 1      Roby CISD                04 
00200070002000000000000000000000000000000000000000000000000000000000000000000000000000000000000000000   ISD001 School Board Trustee Election Roby CISD                 OVER VOTES                            FBC Fellowship Hall Box 4     Roby CISD                04 
00200070003000000000000000000000000000000000000000000000000000000000000000000000000000000000000000000   ISD001 School Board Trustee Election Roby CISD                 OVER VOTES                            Rotan Community Center Box 10 Roby CISD                04 
00200070004000000000000000000000000000000000000000000000000000000000000000000000000000000000000000000   ISD001 School Board Trustee Election Roby CISD                 OVER VOTES                            Rotan ISD Admin Bld Box 12    Roby CISD                04 
00200080001000195000014000101000080000000000000000000000000000000000000000000000000000000000000000000   ISD001 School Board Trustee Election Roby CISD                 UNDER VOTES                           District Courtroom Box 1      Roby CISD                04 
00200080002000242000013000136000093000000000000000000000000000000000000000000000000000000000000000000   ISD001 School Board Trustee Election Roby CISD                 UNDER VOTES                           FBC Fellowship Hall Box 4     Roby CISD                04 
00200080003000056000004000023000029000000000000000000000000000000000000000000000000000000000000000000   ISD001 School Board Trustee Election Roby CISD                 UNDER VOTES                           Rotan Community Center Box 10 Roby CISD                04 
