00010010001000000          REGISTERED VOTERS - TOTAL                               REGISTERED VOTERS - TOTAL             11                                                     00 
00010010002000000          REGISTERED VOTERS - TOTAL                               REGISTERED VOTERS - TOTAL             14                                                     00 
00010010003000000          REGISTERED VOTERS - TOTAL                               REGISTERED VOTERS - TOTAL             15                                                     00 
00010010004000000          REGISTERED VOTERS - TOTAL                               REGISTERED VOTERS - TOTAL             16                                                     00 
00010010005000000          REGISTERED VOTERS - TOTAL                               REGISTERED VOTERS - TOTAL             21                                                     00 
00010010006000000          REGISTERED VOTERS - TOTAL                               REGISTERED VOTERS - TOTAL             24                                                     00 
00010010007000000          REGISTERED VOTERS - TOTAL                               REGISTERED VOTERS - TOTAL             32                                                     00 
00010010008000000          REGISTERED VOTERS - TOTAL                               REGISTERED VOTERS - TOTAL             33                                                     00 
00010010009000000          REGISTERED VOTERS - TOTAL                               REGISTERED VOTERS - TOTAL             35                                                     00 
00010010010000000          REGISTERED VOTERS - TOTAL                               REGISTERED VOTERS - TOTAL             36                                                     00 
00010010011000000          REGISTERED VOTERS - TOTAL                               REGISTERED VOTERS - TOTAL             43                                                     00 
00010010012000000          REGISTERED VOTERS - TOTAL                               REGISTERED VOTERS - TOTAL             44                                                     00 
00010010013000000          REGISTERED VOTERS - TOTAL                               REGISTERED VOTERS - TOTAL             45                                                     00 
00010010014000000          REGISTERED VOTERS - TOTAL                               REGISTERED VOTERS - TOTAL             46                                                     00 
00010010015000000          REGISTERED VOTERS - TOTAL                               REGISTERED VOTERS - TOTAL             School8                                                00 
00020010001000233          BALLOTS CAST - TOTAL                                    BALLOTS CAST - TOTAL                  11                                                     00 
00020010002000476          BALLOTS CAST - TOTAL                                    BALLOTS CAST - TOTAL                  14                                                     00 
00020010003000242          BALLOTS CAST - TOTAL                                    BALLOTS CAST - TOTAL                  15                                                     00 
00020010004001040          BALLOTS CAST - TOTAL                                    BALLOTS CAST - TOTAL                  16                                                     00 
00020010005000815          BALLOTS CAST - TOTAL                                    BALLOTS CAST - TOTAL                  21                                                     00 
00020010006000362          BALLOTS CAST - TOTAL                                    BALLOTS CAST - TOTAL                  24                                                     00 
00020010007000681          BALLOTS CAST - TOTAL                                    BALLOTS CAST - TOTAL                  32                                                     00 
00020010008000052          BALLOTS CAST - TOTAL                                    BALLOTS CAST - TOTAL                  33                                                     00 
00020010009000051          BALLOTS CAST - TOTAL                                    BALLOTS CAST - TOTAL                  35                                                     00 
00020010010000100          BALLOTS CAST - TOTAL                                    BALLOTS CAST - TOTAL                  36                                                     00 
00020010011000181          BALLOTS CAST - TOTAL                                    BALLOTS CAST - TOTAL                  43                                                     00 
00020010012000386          BALLOTS CAST - TOTAL                                    BALLOTS CAST - TOTAL                  44                                                     00 
00020010013000662          BALLOTS CAST - TOTAL                                    BALLOTS CAST - TOTAL                  45                                                     00 
00020010014000298          BALLOTS CAST - TOTAL                                    BALLOTS CAST - TOTAL                  46                                                     00 
00020010015000170          BALLOTS CAST - TOTAL                                    BALLOTS CAST - TOTAL                  School8                                                00 
00030010001000001          BALLOTS CAST - BLANK                                    BALLOTS CAST - BLANK                  11                                                     00 
00030010002000004          BALLOTS CAST - BLANK                                    BALLOTS CAST - BLANK                  14                                                     00 
00030010003000000          BALLOTS CAST - BLANK                                    BALLOTS CAST - BLANK                  15                                                     00 
00030010004000001          BALLOTS CAST - BLANK                                    BALLOTS CAST - BLANK                  16                                                     00 
00030010005000001          BALLOTS CAST - BLANK                                    BALLOTS CAST - BLANK                  21                                                     00 
00030010006000000          BALLOTS CAST - BLANK                                    BALLOTS CAST - BLANK                  24                                                     00 
00030010007000000          BALLOTS CAST - BLANK                                    BALLOTS CAST - BLANK                  32                                                     00 
00030010008000002          BALLOTS CAST - BLANK                                    BALLOTS CAST - BLANK                  33                                                     00 
00030010009000000          BALLOTS CAST - BLANK                                    BALLOTS CAST - BLANK                  35                                                     00 
00030010010000000          BALLOTS CAST - BLANK                                    BALLOTS CAST - BLANK                  36                                                     00 
00030010011000001          BALLOTS CAST - BLANK                                    BALLOTS CAST - BLANK                  43                                                     00 
00030010012000001          BALLOTS CAST - BLANK                                    BALLOTS CAST - BLANK                  44                                                     00 
00030010013000003          BALLOTS CAST - BLANK                                    BALLOTS CAST - BLANK                  45                                                     00 
00030010014000002          BALLOTS CAST - BLANK                                    BALLOTS CAST - BLANK                  46                                                     00 
00030010015000001          BALLOTS CAST - BLANK                                    BALLOTS CAST - BLANK                  School8                                                00 
00040010001000199REPCWI8   US Representative, Dist 19 Countywide                   REP Jodey C. Arrington                11                            Countywide               01 
00040010002000438REPCWI8   US Representative, Dist 19 Countywide                   REP Jodey C. Arrington                14                            Countywide               01 
00040010003000215REPCWI8   US Representative, Dist 19 Countywide                   REP Jodey C. Arrington                15                            Countywide               01 
00040010004000923REPCWI8   US Representative, Dist 19 Countywide                   REP Jodey C. Arrington                16                            Countywide               01 
00040010005000682REPCWI8   US Representative, Dist 19 Countywide                   REP Jodey C. Arrington                21                            Countywide               01 
00040010006000321REPCWI8   US Representative, Dist 19 Countywide                   REP Jodey C. Arrington                24                            Countywide               01 
00040010007000540REPCWI8   US Representative, Dist 19 Countywide                   REP Jodey C. Arrington                32                            Countywide               01 
00040010008000048REPCWI8   US Representative, Dist 19 Countywide                   REP Jodey C. Arrington                33                            Countywide               01 
00040010009000042REPCWI8   US Representative, Dist 19 Countywide                   REP Jodey C. Arrington                35                            Countywide               01 
00040010010000062REPCWI8   US Representative, Dist 19 Countywide                   REP Jodey C. Arrington                36                            Countywide               01 
00040010011000167REPCWI8   US Representative, Dist 19 Countywide                   REP Jodey C. Arrington                43                            Countywide               01 
00040010012000315REPCWI8   US Representative, Dist 19 Countywide                   REP Jodey C. Arrington                44                            Countywide               01 
00040010013000529REPCWI8   US Representative, Dist 19 Countywide                   REP Jodey C. Arrington                45                            Countywide               01 
00040010014000245REPCWI8   US Representative, Dist 19 Countywide                   REP Jodey C. Arrington                46                            Countywide               01 
00040020001000029INDCWI8   US Representative, Dist 19 Countywide                   IND Nathan Lewis                      11                            Countywide               01 
00040020002000024INDCWI8   US Representative, Dist 19 Countywide                   IND Nathan Lewis                      14                            Countywide               01 
00040020003000025INDCWI8   US Representative, Dist 19 Countywide                   IND Nathan Lewis                      15                            Countywide               01 
00040020004000088INDCWI8   US Representative, Dist 19 Countywide                   IND Nathan Lewis                      16                            Countywide               01 
00040020005000098INDCWI8   US Representative, Dist 19 Countywide                   IND Nathan Lewis                      21                            Countywide               01 
00040020006000034INDCWI8   US Representative, Dist 19 Countywide                   IND Nathan Lewis                      24                            Countywide               01 
00040020007000106INDCWI8   US Representative, Dist 19 Countywide                   IND Nathan Lewis                      32                            Countywide               01 
00040020008000002INDCWI8   US Representative, Dist 19 Countywide                   IND Nathan Lewis                      33                            Countywide               01 
00040020009000009INDCWI8   US Representative, Dist 19 Countywide                   IND Nathan Lewis                      35                            Countywide               01 
00040020010000029INDCWI8   US Representative, Dist 19 Countywide                   IND Nathan Lewis                      36                            Countywide               01 
00040020011000010INDCWI8   US Representative, Dist 19 Countywide                   IND Nathan Lewis                      43                            Countywide               01 
00040020012000056INDCWI8   US Representative, Dist 19 Countywide                   IND Nathan Lewis                      44                            Countywide               01 
00040020013000114INDCWI8   US Representative, Dist 19 Countywide                   IND Nathan Lewis                      45                            Countywide               01 
00040020014000034INDCWI8   US Representative, Dist 19 Countywide                   IND Nathan Lewis                      46                            Countywide               01 
00050010001000195REPCWI8   Governor                                                REP Greg Abbott                       11                            Countywide               01 
00050010002000427REPCWI8   Governor                                                REP Greg Abbott                       14                            Countywide               01 
00050010003000213REPCWI8   Governor                                                REP Greg Abbott                       15                            Countywide               01 
00050010004000907REPCWI8   Governor                                                REP Greg Abbott                       16                            Countywide               01 
00050010005000673REPCWI8   Governor                                                REP Greg Abbott                       21                            Countywide               01 
00050010006000316REPCWI8   Governor                                                REP Greg Abbott                       24                            Countywide               01 
00050010007000555REPCWI8   Governor                                                REP Greg Abbott                       32                            Countywide               01 
00050010008000047REPCWI8   Governor                                                REP Greg Abbott                       33                            Countywide               01 
00050010009000039REPCWI8   Governor                                                REP Greg Abbott                       35                            Countywide               01 
00050010010000059REPCWI8   Governor                                                REP Greg Abbott                       36                            Countywide               01 
00050010011000167REPCWI8   Governor                                                REP Greg Abbott                       43                            Countywide               01 
00050010012000312REPCWI8   Governor                                                REP Greg Abbott                       44                            Countywide               01 
00050010013000525REPCWI8   Governor                                                REP Greg Abbott                       45                            Countywide               01 
00050010014000255REPCWI8   Governor                                                REP Greg Abbott                       46                            Countywide               01 
00050020001000034DEMCWI8   Governor                                                DEM Beto O'Rourke                     11                            Countywide               01 
00050020002000038DEMCWI8   Governor                                                DEM Beto O'Rourke                     14                            Countywide               01 
00050020003000025DEMCWI8   Governor                                                DEM Beto O'Rourke                     15                            Countywide               01 
00050020004000112DEMCWI8   Governor                                                DEM Beto O'Rourke                     16                            Countywide               01 
00050020005000127DEMCWI8   Governor                                                DEM Beto O'Rourke                     21                            Countywide               01 
00050020006000037DEMCWI8   Governor                                                DEM Beto O'Rourke                     24                            Countywide               01 
00050020007000123DEMCWI8   Governor                                                DEM Beto O'Rourke                     32                            Countywide               01 
00050020008000003DEMCWI8   Governor                                                DEM Beto O'Rourke                     33                            Countywide               01 
00050020009000010DEMCWI8   Governor                                                DEM Beto O'Rourke                     35                            Countywide               01 
00050020010000039DEMCWI8   Governor                                                DEM Beto O'Rourke                     36                            Countywide               01 
00050020011000011DEMCWI8   Governor                                                DEM Beto O'Rourke                     43                            Countywide               01 
00050020012000068DEMCWI8   Governor                                                DEM Beto O'Rourke                     44                            Countywide               01 
00050020013000125DEMCWI8   Governor                                                DEM Beto O'Rourke                     45                            Countywide               01 
00050020014000034DEMCWI8   Governor                                                DEM Beto O'Rourke                     46                            Countywide               01 
00050030001000001LIBCWI8   Governor                                                LIB Mark Tippetts                     11                            Countywide               01 
00050030002000003LIBCWI8   Governor                                                LIB Mark Tippetts                     14                            Countywide               01 
00050030003000003LIBCWI8   Governor                                                LIB Mark Tippetts                     15                            Countywide               01 
00050030004000005LIBCWI8   Governor                                                LIB Mark Tippetts                     16                            Countywide               01 
00050030005000008LIBCWI8   Governor                                                LIB Mark Tippetts                     21                            Countywide               01 
00050030006000006LIBCWI8   Governor                                                LIB Mark Tippetts                     24                            Countywide               01 
00050030007000002LIBCWI8   Governor                                                LIB Mark Tippetts                     32                            Countywide               01 
00050030008000000LIBCWI8   Governor                                                LIB Mark Tippetts                     33                            Countywide               01 
00050030009000000LIBCWI8   Governor                                                LIB Mark Tippetts                     35                            Countywide               01 
00050030010000001LIBCWI8   Governor                                                LIB Mark Tippetts                     36                            Countywide               01 
00050030011000000LIBCWI8   Governor                                                LIB Mark Tippetts                     43                            Countywide               01 
00050030012000003LIBCWI8   Governor                                                LIB Mark Tippetts                     44                            Countywide               01 
00050030013000005LIBCWI8   Governor                                                LIB Mark Tippetts                     45                            Countywide               01 
00050030014000002LIBCWI8   Governor                                                LIB Mark Tippetts                     46                            Countywide               01 
00050040001000001GRNCWI8   Governor                                                GRN Delilah Barrios                   11                            Countywide               01 
00050040002000002GRNCWI8   Governor                                                GRN Delilah Barrios                   14                            Countywide               01 
00050040003000001GRNCWI8   Governor                                                GRN Delilah Barrios                   15                            Countywide               01 
00050040004000002GRNCWI8   Governor                                                GRN Delilah Barrios                   16                            Countywide               01 
00050040005000004GRNCWI8   Governor                                                GRN Delilah Barrios                   21                            Countywide               01 
00050040006000000GRNCWI8   Governor                                                GRN Delilah Barrios                   24                            Countywide               01 
00050040007000000GRNCWI8   Governor                                                GRN Delilah Barrios                   32                            Countywide               01 
00050040008000000GRNCWI8   Governor                                                GRN Delilah Barrios                   33                            Countywide               01 
00050040009000001GRNCWI8   Governor                                                GRN Delilah Barrios                   35                            Countywide               01 
00050040010000000GRNCWI8   Governor                                                GRN Delilah Barrios                   36                            Countywide               01 
00050040011000000GRNCWI8   Governor                                                GRN Delilah Barrios                   43                            Countywide               01 
00050040012000001GRNCWI8   Governor                                                GRN Delilah Barrios                   44                            Countywide               01 
00050040013000001GRNCWI8   Governor                                                GRN Delilah Barrios                   45                            Countywide               01 
00050040014000001GRNCWI8   Governor                                                GRN Delilah Barrios                   46                            Countywide               01 
00050060001000000NONCWI8   Governor                                                Write-in                              11                            Countywide               01 
00050060002000000NONCWI8   Governor                                                Write-in                              14                            Countywide               01 
00050060003000000NONCWI8   Governor                                                Write-in                              15                            Countywide               01 
00050060004000003NONCWI8   Governor                                                Write-in                              16                            Countywide               01 
00050060005000000NONCWI8   Governor                                                Write-in                              21                            Countywide               01 
00050060006000000NONCWI8   Governor                                                Write-in                              24                            Countywide               01 
00050060007000000NONCWI8   Governor                                                Write-in                              32                            Countywide               01 
00050060008000000NONCWI8   Governor                                                Write-in                              33                            Countywide               01 
00050060009000000NONCWI8   Governor                                                Write-in                              35                            Countywide               01 
00050060010000000NONCWI8   Governor                                                Write-in                              36                            Countywide               01 
00050060011000000NONCWI8   Governor                                                Write-in                              43                            Countywide               01 
00050060012000000NONCWI8   Governor                                                Write-in                              44                            Countywide               01 
00050060013000002NONCWI8   Governor                                                Write-in                              45                            Countywide               01 
00050060014000000NONCWI8   Governor                                                Write-in                              46                            Countywide               01 
00060010001000190REPCWI8   Lieutenant Governor                                     REP Dan Patrick                       11                            Countywide               01 
00060010002000420REPCWI8   Lieutenant Governor                                     REP Dan Patrick                       14                            Countywide               01 
00060010003000210REPCWI8   Lieutenant Governor                                     REP Dan Patrick                       15                            Countywide               01 
00060010004000883REPCWI8   Lieutenant Governor                                     REP Dan Patrick                       16                            Countywide               01 
00060010005000667REPCWI8   Lieutenant Governor                                     REP Dan Patrick                       21                            Countywide               01 
00060010006000306REPCWI8   Lieutenant Governor                                     REP Dan Patrick                       24                            Countywide               01 
00060010007000537REPCWI8   Lieutenant Governor                                     REP Dan Patrick                       32                            Countywide               01 
00060010008000047REPCWI8   Lieutenant Governor                                     REP Dan Patrick                       33                            Countywide               01 
00060010009000038REPCWI8   Lieutenant Governor                                     REP Dan Patrick                       35                            Countywide               01 
00060010010000056REPCWI8   Lieutenant Governor                                     REP Dan Patrick                       36                            Countywide               01 
00060010011000160REPCWI8   Lieutenant Governor                                     REP Dan Patrick                       43                            Countywide               01 
00060010012000307REPCWI8   Lieutenant Governor                                     REP Dan Patrick                       44                            Countywide               01 
00060010013000508REPCWI8   Lieutenant Governor                                     REP Dan Patrick                       45                            Countywide               01 
00060010014000245REPCWI8   Lieutenant Governor                                     REP Dan Patrick                       46                            Countywide               01 
00060020001000037DEMCWI8   Lieutenant Governor                                     DEM Mike Collier                      11                            Countywide               01 
00060020002000049DEMCWI8   Lieutenant Governor                                     DEM Mike Collier                      14                            Countywide               01 
00060020003000026DEMCWI8   Lieutenant Governor                                     DEM Mike Collier                      15                            Countywide               01 
00060020004000124DEMCWI8   Lieutenant Governor                                     DEM Mike Collier                      16                            Countywide               01 
00060020005000128DEMCWI8   Lieutenant Governor                                     DEM Mike Collier                      21                            Countywide               01 
00060020006000045DEMCWI8   Lieutenant Governor                                     DEM Mike Collier                      24                            Countywide               01 
00060020007000125DEMCWI8   Lieutenant Governor                                     DEM Mike Collier                      32                            Countywide               01 
00060020008000003DEMCWI8   Lieutenant Governor                                     DEM Mike Collier                      33                            Countywide               01 
00060020009000012DEMCWI8   Lieutenant Governor                                     DEM Mike Collier                      35                            Countywide               01 
00060020010000036DEMCWI8   Lieutenant Governor                                     DEM Mike Collier                      36                            Countywide               01 
00060020011000015DEMCWI8   Lieutenant Governor                                     DEM Mike Collier                      43                            Countywide               01 
00060020012000067DEMCWI8   Lieutenant Governor                                     DEM Mike Collier                      44                            Countywide               01 
00060020013000130DEMCWI8   Lieutenant Governor                                     DEM Mike Collier                      45                            Countywide               01 
00060020014000043DEMCWI8   Lieutenant Governor                                     DEM Mike Collier                      46                            Countywide               01 
00060030001000004LIBCWI8   Lieutenant Governor                                     LIB Shanna Steele                     11                            Countywide               01 
00060030002000002LIBCWI8   Lieutenant Governor                                     LIB Shanna Steele                     14                            Countywide               01 
00060030003000005LIBCWI8   Lieutenant Governor                                     LIB Shanna Steele                     15                            Countywide               01 
00060030004000021LIBCWI8   Lieutenant Governor                                     LIB Shanna Steele                     16                            Countywide               01 
00060030005000012LIBCWI8   Lieutenant Governor                                     LIB Shanna Steele                     21                            Countywide               01 
00060030006000006LIBCWI8   Lieutenant Governor                                     LIB Shanna Steele                     24                            Countywide               01 
00060030007000012LIBCWI8   Lieutenant Governor                                     LIB Shanna Steele                     32                            Countywide               01 
00060030008000000LIBCWI8   Lieutenant Governor                                     LIB Shanna Steele                     33                            Countywide               01 
00060030009000001LIBCWI8   Lieutenant Governor                                     LIB Shanna Steele                     35                            Countywide               01 
00060030010000006LIBCWI8   Lieutenant Governor                                     LIB Shanna Steele                     36                            Countywide               01 
00060030011000002LIBCWI8   Lieutenant Governor                                     LIB Shanna Steele                     43                            Countywide               01 
00060030012000010LIBCWI8   Lieutenant Governor                                     LIB Shanna Steele                     44                            Countywide               01 
00060030013000014LIBCWI8   Lieutenant Governor                                     LIB Shanna Steele                     45                            Countywide               01 
00060030014000004LIBCWI8   Lieutenant Governor                                     LIB Shanna Steele                     46                            Countywide               01 
00070010001000189REPCWI8   Attorney General                                        REP Ken Paxton                        11                            Countywide               01 
00070010002000421REPCWI8   Attorney General                                        REP Ken Paxton                        14                            Countywide               01 
00070010003000209REPCWI8   Attorney General                                        REP Ken Paxton                        15                            Countywide               01 
00070010004000883REPCWI8   Attorney General                                        REP Ken Paxton                        16                            Countywide               01 
00070010005000665REPCWI8   Attorney General                                        REP Ken Paxton                        21                            Countywide               01 
00070010006000312REPCWI8   Attorney General                                        REP Ken Paxton                        24                            Countywide               01 
00070010007000536REPCWI8   Attorney General                                        REP Ken Paxton                        32                            Countywide               01 
00070010008000046REPCWI8   Attorney General                                        REP Ken Paxton                        33                            Countywide               01 
00070010009000037REPCWI8   Attorney General                                        REP Ken Paxton                        35                            Countywide               01 
00070010010000055REPCWI8   Attorney General                                        REP Ken Paxton                        36                            Countywide               01 
00070010011000164REPCWI8   Attorney General                                        REP Ken Paxton                        43                            Countywide               01 
00070010012000303REPCWI8   Attorney General                                        REP Ken Paxton                        44                            Countywide               01 
00070010013000511REPCWI8   Attorney General                                        REP Ken Paxton                        45                            Countywide               01 
00070010014000254REPCWI8   Attorney General                                        REP Ken Paxton                        46                            Countywide               01 
00070020001000034DEMCWI8   Attorney General                                        DEM Rochelle Mercedes Garza           11                            Countywide               01 
00070020002000043DEMCWI8   Attorney General                                        DEM Rochelle Mercedes Garza           14                            Countywide               01 
00070020003000026DEMCWI8   Attorney General                                        DEM Rochelle Mercedes Garza           15                            Countywide               01 
00070020004000123DEMCWI8   Attorney General                                        DEM Rochelle Mercedes Garza           16                            Countywide               01 
00070020005000123DEMCWI8   Attorney General                                        DEM Rochelle Mercedes Garza           21                            Countywide               01 
00070020006000039DEMCWI8   Attorney General                                        DEM Rochelle Mercedes Garza           24                            Countywide               01 
00070020007000123DEMCWI8   Attorney General                                        DEM Rochelle Mercedes Garza           32                            Countywide               01 
00070020008000004DEMCWI8   Attorney General                                        DEM Rochelle Mercedes Garza           33                            Countywide               01 
00070020009000011DEMCWI8   Attorney General                                        DEM Rochelle Mercedes Garza           35                            Countywide               01 
00070020010000038DEMCWI8   Attorney General                                        DEM Rochelle Mercedes Garza           36                            Countywide               01 
00070020011000012DEMCWI8   Attorney General                                        DEM Rochelle Mercedes Garza           43                            Countywide               01 
00070020012000067DEMCWI8   Attorney General                                        DEM Rochelle Mercedes Garza           44                            Countywide               01 
00070020013000128DEMCWI8   Attorney General                                        DEM Rochelle Mercedes Garza           45                            Countywide               01 
00070020014000035DEMCWI8   Attorney General                                        DEM Rochelle Mercedes Garza           46                            Countywide               01 
00070030001000007LIBCWI8   Attorney General                                        LIB Mark Ash                          11                            Countywide               01 
00070030002000003LIBCWI8   Attorney General                                        LIB Mark Ash                          14                            Countywide               01 
00070030003000004LIBCWI8   Attorney General                                        LIB Mark Ash                          15                            Countywide               01 
00070030004000018LIBCWI8   Attorney General                                        LIB Mark Ash                          16                            Countywide               01 
00070030005000016LIBCWI8   Attorney General                                        LIB Mark Ash                          21                            Countywide               01 
00070030006000006LIBCWI8   Attorney General                                        LIB Mark Ash                          24                            Countywide               01 
00070030007000011LIBCWI8   Attorney General                                        LIB Mark Ash                          32                            Countywide               01 
00070030008000000LIBCWI8   Attorney General                                        LIB Mark Ash                          33                            Countywide               01 
00070030009000002LIBCWI8   Attorney General                                        LIB Mark Ash                          35                            Countywide               01 
00070030010000005LIBCWI8   Attorney General                                        LIB Mark Ash                          36                            Countywide               01 
00070030011000002LIBCWI8   Attorney General                                        LIB Mark Ash                          43                            Countywide               01 
00070030012000012LIBCWI8   Attorney General                                        LIB Mark Ash                          44                            Countywide               01 
00070030013000010LIBCWI8   Attorney General                                        LIB Mark Ash                          45                            Countywide               01 
00070030014000004LIBCWI8   Attorney General                                        LIB Mark Ash                          46                            Countywide               01 
00080010001000194REPCWI8   Comptroller of Public Accounts                          REP Glenn Hegar                       11                            Countywide               01 
00080010002000417REPCWI8   Comptroller of Public Accounts                          REP Glenn Hegar                       14                            Countywide               01 
00080010003000214REPCWI8   Comptroller of Public Accounts                          REP Glenn Hegar                       15                            Countywide               01 
00080010004000907REPCWI8   Comptroller of Public Accounts                          REP Glenn Hegar                       16                            Countywide               01 
00080010005000668REPCWI8   Comptroller of Public Accounts                          REP Glenn Hegar                       21                            Countywide               01 
00080010006000318REPCWI8   Comptroller of Public Accounts                          REP Glenn Hegar                       24                            Countywide               01 
00080010007000537REPCWI8   Comptroller of Public Accounts                          REP Glenn Hegar                       32                            Countywide               01 
00080010008000048REPCWI8   Comptroller of Public Accounts                          REP Glenn Hegar                       33                            Countywide               01 
00080010009000036REPCWI8   Comptroller of Public Accounts                          REP Glenn Hegar                       35                            Countywide               01 
00080010010000055REPCWI8   Comptroller of Public Accounts                          REP Glenn Hegar                       36                            Countywide               01 
00080010011000164REPCWI8   Comptroller of Public Accounts                          REP Glenn Hegar                       43                            Countywide               01 
00080010012000308REPCWI8   Comptroller of Public Accounts                          REP Glenn Hegar                       44                            Countywide               01 
00080010013000516REPCWI8   Comptroller of Public Accounts                          REP Glenn Hegar                       45                            Countywide               01 
00080010014000250REPCWI8   Comptroller of Public Accounts                          REP Glenn Hegar                       46                            Countywide               01 
00080020001000027DEMCWI8   Comptroller of Public Accounts                          DEM Janet T. Dudding                  11                            Countywide               01 
00080020002000034DEMCWI8   Comptroller of Public Accounts                          DEM Janet T. Dudding                  14                            Countywide               01 
00080020003000024DEMCWI8   Comptroller of Public Accounts                          DEM Janet T. Dudding                  15                            Countywide               01 
00080020004000097DEMCWI8   Comptroller of Public Accounts                          DEM Janet T. Dudding                  16                            Countywide               01 
00080020005000113DEMCWI8   Comptroller of Public Accounts                          DEM Janet T. Dudding                  21                            Countywide               01 
00080020006000033DEMCWI8   Comptroller of Public Accounts                          DEM Janet T. Dudding                  24                            Countywide               01 
00080020007000115DEMCWI8   Comptroller of Public Accounts                          DEM Janet T. Dudding                  32                            Countywide               01 
00080020008000002DEMCWI8   Comptroller of Public Accounts                          DEM Janet T. Dudding                  33                            Countywide               01 
00080020009000012DEMCWI8   Comptroller of Public Accounts                          DEM Janet T. Dudding                  35                            Countywide               01 
00080020010000036DEMCWI8   Comptroller of Public Accounts                          DEM Janet T. Dudding                  36                            Countywide               01 
00080020011000010DEMCWI8   Comptroller of Public Accounts                          DEM Janet T. Dudding                  43                            Countywide               01 
00080020012000063DEMCWI8   Comptroller of Public Accounts                          DEM Janet T. Dudding                  44                            Countywide               01 
00080020013000120DEMCWI8   Comptroller of Public Accounts                          DEM Janet T. Dudding                  45                            Countywide               01 
00080020014000037DEMCWI8   Comptroller of Public Accounts                          DEM Janet T. Dudding                  46                            Countywide               01 
00080030001000004LIBCWI8   Comptroller of Public Accounts                          LIB V. Alonzo Echevarria-Garza        11                            Countywide               01 
00080030002000009LIBCWI8   Comptroller of Public Accounts                          LIB V. Alonzo Echevarria-Garza        14                            Countywide               01 
00080030003000002LIBCWI8   Comptroller of Public Accounts                          LIB V. Alonzo Echevarria-Garza        15                            Countywide               01 
00080030004000015LIBCWI8   Comptroller of Public Accounts                          LIB V. Alonzo Echevarria-Garza        16                            Countywide               01 
00080030005000017LIBCWI8   Comptroller of Public Accounts                          LIB V. Alonzo Echevarria-Garza        21                            Countywide               01 
00080030006000005LIBCWI8   Comptroller of Public Accounts                          LIB V. Alonzo Echevarria-Garza        24                            Countywide               01 
00080030007000016LIBCWI8   Comptroller of Public Accounts                          LIB V. Alonzo Echevarria-Garza        32                            Countywide               01 
00080030008000000LIBCWI8   Comptroller of Public Accounts                          LIB V. Alonzo Echevarria-Garza        33                            Countywide               01 
00080030009000003LIBCWI8   Comptroller of Public Accounts                          LIB V. Alonzo Echevarria-Garza        35                            Countywide               01 
00080030010000006LIBCWI8   Comptroller of Public Accounts                          LIB V. Alonzo Echevarria-Garza        36                            Countywide               01 
00080030011000002LIBCWI8   Comptroller of Public Accounts                          LIB V. Alonzo Echevarria-Garza        43                            Countywide               01 
00080030012000010LIBCWI8   Comptroller of Public Accounts                          LIB V. Alonzo Echevarria-Garza        44                            Countywide               01 
00080030013000009LIBCWI8   Comptroller of Public Accounts                          LIB V. Alonzo Echevarria-Garza        45                            Countywide               01 
00080030014000005LIBCWI8   Comptroller of Public Accounts                          LIB V. Alonzo Echevarria-Garza        46                            Countywide               01 
00090010001000195REPCWI8   Comm. General Land Office                               REP Dawn Buckingham                   11                            Countywide               01 
00090010002000421REPCWI8   Comm. General Land Office                               REP Dawn Buckingham                   14                            Countywide               01 
00090010003000214REPCWI8   Comm. General Land Office                               REP Dawn Buckingham                   15                            Countywide               01 
00090010004000893REPCWI8   Comm. General Land Office                               REP Dawn Buckingham                   16                            Countywide               01 
00090010005000664REPCWI8   Comm. General Land Office                               REP Dawn Buckingham                   21                            Countywide               01 
00090010006000315REPCWI8   Comm. General Land Office                               REP Dawn Buckingham                   24                            Countywide               01 
00090010007000535REPCWI8   Comm. General Land Office                               REP Dawn Buckingham                   32                            Countywide               01 
00090010008000047REPCWI8   Comm. General Land Office                               REP Dawn Buckingham                   33                            Countywide               01 
00090010009000038REPCWI8   Comm. General Land Office                               REP Dawn Buckingham                   35                            Countywide               01 
00090010010000056REPCWI8   Comm. General Land Office                               REP Dawn Buckingham                   36                            Countywide               01 
00090010011000163REPCWI8   Comm. General Land Office                               REP Dawn Buckingham                   43                            Countywide               01 
00090010012000309REPCWI8   Comm. General Land Office                               REP Dawn Buckingham                   44                            Countywide               01 
00090010013000517REPCWI8   Comm. General Land Office                               REP Dawn Buckingham                   45                            Countywide               01 
00090010014000252REPCWI8   Comm. General Land Office                               REP Dawn Buckingham                   46                            Countywide               01 
00090020001000030DEMCWI8   Comm. General Land Office                               DEM Jay Kleberg                       11                            Countywide               01 
00090020002000040DEMCWI8   Comm. General Land Office                               DEM Jay Kleberg                       14                            Countywide               01 
00090020003000026DEMCWI8   Comm. General Land Office                               DEM Jay Kleberg                       15                            Countywide               01 
00090020004000109DEMCWI8   Comm. General Land Office                               DEM Jay Kleberg                       16                            Countywide               01 
00090020005000124DEMCWI8   Comm. General Land Office                               DEM Jay Kleberg                       21                            Countywide               01 
00090020006000035DEMCWI8   Comm. General Land Office                               DEM Jay Kleberg                       24                            Countywide               01 
00090020007000125DEMCWI8   Comm. General Land Office                               DEM Jay Kleberg                       32                            Countywide               01 
00090020008000003DEMCWI8   Comm. General Land Office                               DEM Jay Kleberg                       33                            Countywide               01 
00090020009000012DEMCWI8   Comm. General Land Office                               DEM Jay Kleberg                       35                            Countywide               01 
00090020010000037DEMCWI8   Comm. General Land Office                               DEM Jay Kleberg                       36                            Countywide               01 
00090020011000010DEMCWI8   Comm. General Land Office                               DEM Jay Kleberg                       43                            Countywide               01 
00090020012000065DEMCWI8   Comm. General Land Office                               DEM Jay Kleberg                       44                            Countywide               01 
00090020013000122DEMCWI8   Comm. General Land Office                               DEM Jay Kleberg                       45                            Countywide               01 
00090020014000034DEMCWI8   Comm. General Land Office                               DEM Jay Kleberg                       46                            Countywide               01 
00090030001000002GRNCWI8   Comm. General Land Office                               GRN Alfred Molison, Jr.               11                            Countywide               01 
00090030002000001GRNCWI8   Comm. General Land Office                               GRN Alfred Molison, Jr.               14                            Countywide               01 
00090030003000001GRNCWI8   Comm. General Land Office                               GRN Alfred Molison, Jr.               15                            Countywide               01 
00090030004000004GRNCWI8   Comm. General Land Office                               GRN Alfred Molison, Jr.               16                            Countywide               01 
00090030005000008GRNCWI8   Comm. General Land Office                               GRN Alfred Molison, Jr.               21                            Countywide               01 
00090030006000003GRNCWI8   Comm. General Land Office                               GRN Alfred Molison, Jr.               24                            Countywide               01 
00090030007000007GRNCWI8   Comm. General Land Office                               GRN Alfred Molison, Jr.               32                            Countywide               01 
00090030008000000GRNCWI8   Comm. General Land Office                               GRN Alfred Molison, Jr.               33                            Countywide               01 
00090030009000001GRNCWI8   Comm. General Land Office                               GRN Alfred Molison, Jr.               35                            Countywide               01 
00090030010000002GRNCWI8   Comm. General Land Office                               GRN Alfred Molison, Jr.               36                            Countywide               01 
00090030011000001GRNCWI8   Comm. General Land Office                               GRN Alfred Molison, Jr.               43                            Countywide               01 
00090030012000004GRNCWI8   Comm. General Land Office                               GRN Alfred Molison, Jr.               44                            Countywide               01 
00090030013000006GRNCWI8   Comm. General Land Office                               GRN Alfred Molison, Jr.               45                            Countywide               01 
00090030014000001GRNCWI8   Comm. General Land Office                               GRN Alfred Molison, Jr.               46                            Countywide               01 
00090050001000000NONCWI8   Comm. General Land Office                               Write-in                              11                            Countywide               01 
00090050002000000NONCWI8   Comm. General Land Office                               Write-in                              14                            Countywide               01 
00090050003000000NONCWI8   Comm. General Land Office                               Write-in                              15                            Countywide               01 
00090050004000002NONCWI8   Comm. General Land Office                               Write-in                              16                            Countywide               01 
00090050005000000NONCWI8   Comm. General Land Office                               Write-in                              21                            Countywide               01 
00090050006000000NONCWI8   Comm. General Land Office                               Write-in                              24                            Countywide               01 
00090050007000000NONCWI8   Comm. General Land Office                               Write-in                              32                            Countywide               01 
00090050008000000NONCWI8   Comm. General Land Office                               Write-in                              33                            Countywide               01 
00090050009000000NONCWI8   Comm. General Land Office                               Write-in                              35                            Countywide               01 
00090050010000000NONCWI8   Comm. General Land Office                               Write-in                              36                            Countywide               01 
00090050011000000NONCWI8   Comm. General Land Office                               Write-in                              43                            Countywide               01 
00090050012000000NONCWI8   Comm. General Land Office                               Write-in                              44                            Countywide               01 
00090050013000000NONCWI8   Comm. General Land Office                               Write-in                              45                            Countywide               01 
00090050014000001NONCWI8   Comm. General Land Office                               Write-in                              46                            Countywide               01 
00100010001000197REPCWI8   Commissioner of Agriculture                             REP Sid Miller                        11                            Countywide               01 
00100010002000425REPCWI8   Commissioner of Agriculture                             REP Sid Miller                        14                            Countywide               01 
00100010003000212REPCWI8   Commissioner of Agriculture                             REP Sid Miller                        15                            Countywide               01 
00100010004000897REPCWI8   Commissioner of Agriculture                             REP Sid Miller                        16                            Countywide               01 
00100010005000668REPCWI8   Commissioner of Agriculture                             REP Sid Miller                        21                            Countywide               01 
00100010006000323REPCWI8   Commissioner of Agriculture                             REP Sid Miller                        24                            Countywide               01 
00100010007000539REPCWI8   Commissioner of Agriculture                             REP Sid Miller                        32                            Countywide               01 
00100010008000046REPCWI8   Commissioner of Agriculture                             REP Sid Miller                        33                            Countywide               01 
00100010009000038REPCWI8   Commissioner of Agriculture                             REP Sid Miller                        35                            Countywide               01 
00100010010000054REPCWI8   Commissioner of Agriculture                             REP Sid Miller                        36                            Countywide               01 
00100010011000167REPCWI8   Commissioner of Agriculture                             REP Sid Miller                        43                            Countywide               01 
00100010012000309REPCWI8   Commissioner of Agriculture                             REP Sid Miller                        44                            Countywide               01 
00100010013000516REPCWI8   Commissioner of Agriculture                             REP Sid Miller                        45                            Countywide               01 
00100010014000251REPCWI8   Commissioner of Agriculture                             REP Sid Miller                        46                            Countywide               01 
00100020001000031DEMCWI8   Commissioner of Agriculture                             DEM Susan Hays                        11                            Countywide               01 
00100020002000039DEMCWI8   Commissioner of Agriculture                             DEM Susan Hays                        14                            Countywide               01 
00100020003000030DEMCWI8   Commissioner of Agriculture                             DEM Susan Hays                        15                            Countywide               01 
00100020004000119DEMCWI8   Commissioner of Agriculture                             DEM Susan Hays                        16                            Countywide               01 
00100020005000135DEMCWI8   Commissioner of Agriculture                             DEM Susan Hays                        21                            Countywide               01 
00100020006000031DEMCWI8   Commissioner of Agriculture                             DEM Susan Hays                        24                            Countywide               01 
00100020007000132DEMCWI8   Commissioner of Agriculture                             DEM Susan Hays                        32                            Countywide               01 
00100020008000004DEMCWI8   Commissioner of Agriculture                             DEM Susan Hays                        33                            Countywide               01 
00100020009000013DEMCWI8   Commissioner of Agriculture                             DEM Susan Hays                        35                            Countywide               01 
00100020010000041DEMCWI8   Commissioner of Agriculture                             DEM Susan Hays                        36                            Countywide               01 
00100020011000011DEMCWI8   Commissioner of Agriculture                             DEM Susan Hays                        43                            Countywide               01 
00100020012000071DEMCWI8   Commissioner of Agriculture                             DEM Susan Hays                        44                            Countywide               01 
00100020013000132DEMCWI8   Commissioner of Agriculture                             DEM Susan Hays                        45                            Countywide               01 
00100020014000040DEMCWI8   Commissioner of Agriculture                             DEM Susan Hays                        46                            Countywide               01 
00110010001000194REPCWI8   Railroad Commissioner                                   REP Wayne Christian                   11                            Countywide               01 
00110010002000414REPCWI8   Railroad Commissioner                                   REP Wayne Christian                   14                            Countywide               01 
00110010003000208REPCWI8   Railroad Commissioner                                   REP Wayne Christian                   15                            Countywide               01 
00110010004000886REPCWI8   Railroad Commissioner                                   REP Wayne Christian                   16                            Countywide               01 
00110010005000660REPCWI8   Railroad Commissioner                                   REP Wayne Christian                   21                            Countywide               01 
00110010006000313REPCWI8   Railroad Commissioner                                   REP Wayne Christian                   24                            Countywide               01 
00110010007000536REPCWI8   Railroad Commissioner                                   REP Wayne Christian                   32                            Countywide               01 
00110010008000046REPCWI8   Railroad Commissioner                                   REP Wayne Christian                   33                            Countywide               01 
00110010009000037REPCWI8   Railroad Commissioner                                   REP Wayne Christian                   35                            Countywide               01 
00110010010000056REPCWI8   Railroad Commissioner                                   REP Wayne Christian                   36                            Countywide               01 
00110010011000165REPCWI8   Railroad Commissioner                                   REP Wayne Christian                   43                            Countywide               01 
00110010012000307REPCWI8   Railroad Commissioner                                   REP Wayne Christian                   44                            Countywide               01 
00110010013000516REPCWI8   Railroad Commissioner                                   REP Wayne Christian                   45                            Countywide               01 
00110010014000251REPCWI8   Railroad Commissioner                                   REP Wayne Christian                   46                            Countywide               01 
00110020001000028DEMCWI8   Railroad Commissioner                                   DEM Luke Warford                      11                            Countywide               01 
00110020002000038DEMCWI8   Railroad Commissioner                                   DEM Luke Warford                      14                            Countywide               01 
00110020003000023DEMCWI8   Railroad Commissioner                                   DEM Luke Warford                      15                            Countywide               01 
00110020004000099DEMCWI8   Railroad Commissioner                                   DEM Luke Warford                      16                            Countywide               01 
00110020005000113DEMCWI8   Railroad Commissioner                                   DEM Luke Warford                      21                            Countywide               01 
00110020006000034DEMCWI8   Railroad Commissioner                                   DEM Luke Warford                      24                            Countywide               01 
00110020007000114DEMCWI8   Railroad Commissioner                                   DEM Luke Warford                      32                            Countywide               01 
00110020008000003DEMCWI8   Railroad Commissioner                                   DEM Luke Warford                      33                            Countywide               01 
00110020009000012DEMCWI8   Railroad Commissioner                                   DEM Luke Warford                      35                            Countywide               01 
00110020010000036DEMCWI8   Railroad Commissioner                                   DEM Luke Warford                      36                            Countywide               01 
00110020011000009DEMCWI8   Railroad Commissioner                                   DEM Luke Warford                      43                            Countywide               01 
00110020012000057DEMCWI8   Railroad Commissioner                                   DEM Luke Warford                      44                            Countywide               01 
00110020013000115DEMCWI8   Railroad Commissioner                                   DEM Luke Warford                      45                            Countywide               01 
00110020014000032DEMCWI8   Railroad Commissioner                                   DEM Luke Warford                      46                            Countywide               01 
00110030001000003LIBCWI8   Railroad Commissioner                                   LIB Jaime Andres Diez                 11                            Countywide               01 
00110030002000005LIBCWI8   Railroad Commissioner                                   LIB Jaime Andres Diez                 14                            Countywide               01 
00110030003000006LIBCWI8   Railroad Commissioner                                   LIB Jaime Andres Diez                 15                            Countywide               01 
00110030004000018LIBCWI8   Railroad Commissioner                                   LIB Jaime Andres Diez                 16                            Countywide               01 
00110030005000016LIBCWI8   Railroad Commissioner                                   LIB Jaime Andres Diez                 21                            Countywide               01 
00110030006000007LIBCWI8   Railroad Commissioner                                   LIB Jaime Andres Diez                 24                            Countywide               01 
00110030007000014LIBCWI8   Railroad Commissioner                                   LIB Jaime Andres Diez                 32                            Countywide               01 
00110030008000000LIBCWI8   Railroad Commissioner                                   LIB Jaime Andres Diez                 33                            Countywide               01 
00110030009000002LIBCWI8   Railroad Commissioner                                   LIB Jaime Andres Diez                 35                            Countywide               01 
00110030010000005LIBCWI8   Railroad Commissioner                                   LIB Jaime Andres Diez                 36                            Countywide               01 
00110030011000001LIBCWI8   Railroad Commissioner                                   LIB Jaime Andres Diez                 43                            Countywide               01 
00110030012000014LIBCWI8   Railroad Commissioner                                   LIB Jaime Andres Diez                 44                            Countywide               01 
00110030013000011LIBCWI8   Railroad Commissioner                                   LIB Jaime Andres Diez                 45                            Countywide               01 
00110030014000006LIBCWI8   Railroad Commissioner                                   LIB Jaime Andres Diez                 46                            Countywide               01 
00110040001000002GRNCWI8   Railroad Commissioner                                   GRN Hunter Wayne Crow                 11                            Countywide               01 
00110040002000000GRNCWI8   Railroad Commissioner                                   GRN Hunter Wayne Crow                 14                            Countywide               01 
00110040003000002GRNCWI8   Railroad Commissioner                                   GRN Hunter Wayne Crow                 15                            Countywide               01 
00110040004000007GRNCWI8   Railroad Commissioner                                   GRN Hunter Wayne Crow                 16                            Countywide               01 
00110040005000008GRNCWI8   Railroad Commissioner                                   GRN Hunter Wayne Crow                 21                            Countywide               01 
00110040006000001GRNCWI8   Railroad Commissioner                                   GRN Hunter Wayne Crow                 24                            Countywide               01 
00110040007000004GRNCWI8   Railroad Commissioner                                   GRN Hunter Wayne Crow                 32                            Countywide               01 
00110040008000000GRNCWI8   Railroad Commissioner                                   GRN Hunter Wayne Crow                 33                            Countywide               01 
00110040009000000GRNCWI8   Railroad Commissioner                                   GRN Hunter Wayne Crow                 35                            Countywide               01 
00110040010000000GRNCWI8   Railroad Commissioner                                   GRN Hunter Wayne Crow                 36                            Countywide               01 
00110040011000001GRNCWI8   Railroad Commissioner                                   GRN Hunter Wayne Crow                 43                            Countywide               01 
00110040012000002GRNCWI8   Railroad Commissioner                                   GRN Hunter Wayne Crow                 44                            Countywide               01 
00110040013000006GRNCWI8   Railroad Commissioner                                   GRN Hunter Wayne Crow                 45                            Countywide               01 
00110040014000003GRNCWI8   Railroad Commissioner                                   GRN Hunter Wayne Crow                 46                            Countywide               01 
00120010001000193REPCWI8   Justice, Supreme Ct. Pl. 3                              REP Debra Lehrmann                    11                            Countywide               01 
00120010002000414REPCWI8   Justice, Supreme Ct. Pl. 3                              REP Debra Lehrmann                    14                            Countywide               01 
00120010003000211REPCWI8   Justice, Supreme Ct. Pl. 3                              REP Debra Lehrmann                    15                            Countywide               01 
00120010004000890REPCWI8   Justice, Supreme Ct. Pl. 3                              REP Debra Lehrmann                    16                            Countywide               01 
00120010005000664REPCWI8   Justice, Supreme Ct. Pl. 3                              REP Debra Lehrmann                    21                            Countywide               01 
00120010006000317REPCWI8   Justice, Supreme Ct. Pl. 3                              REP Debra Lehrmann                    24                            Countywide               01 
00120010007000539REPCWI8   Justice, Supreme Ct. Pl. 3                              REP Debra Lehrmann                    32                            Countywide               01 
00120010008000047REPCWI8   Justice, Supreme Ct. Pl. 3                              REP Debra Lehrmann                    33                            Countywide               01 
00120010009000037REPCWI8   Justice, Supreme Ct. Pl. 3                              REP Debra Lehrmann                    35                            Countywide               01 
00120010010000058REPCWI8   Justice, Supreme Ct. Pl. 3                              REP Debra Lehrmann                    36                            Countywide               01 
00120010011000165REPCWI8   Justice, Supreme Ct. Pl. 3                              REP Debra Lehrmann                    43                            Countywide               01 
00120010012000305REPCWI8   Justice, Supreme Ct. Pl. 3                              REP Debra Lehrmann                    44                            Countywide               01 
00120010013000516REPCWI8   Justice, Supreme Ct. Pl. 3                              REP Debra Lehrmann                    45                            Countywide               01 
00120010014000250REPCWI8   Justice, Supreme Ct. Pl. 3                              REP Debra Lehrmann                    46                            Countywide               01 
00120020001000031DEMCWI8   Justice, Supreme Ct. Pl. 3                              DEM Erin A. Nowell                    11                            Countywide               01 
00120020002000037DEMCWI8   Justice, Supreme Ct. Pl. 3                              DEM Erin A. Nowell                    14                            Countywide               01 
00120020003000026DEMCWI8   Justice, Supreme Ct. Pl. 3                              DEM Erin A. Nowell                    15                            Countywide               01 
00120020004000113DEMCWI8   Justice, Supreme Ct. Pl. 3                              DEM Erin A. Nowell                    16                            Countywide               01 
00120020005000118DEMCWI8   Justice, Supreme Ct. Pl. 3                              DEM Erin A. Nowell                    21                            Countywide               01 
00120020006000033DEMCWI8   Justice, Supreme Ct. Pl. 3                              DEM Erin A. Nowell                    24                            Countywide               01 
00120020007000119DEMCWI8   Justice, Supreme Ct. Pl. 3                              DEM Erin A. Nowell                    32                            Countywide               01 
00120020008000003DEMCWI8   Justice, Supreme Ct. Pl. 3                              DEM Erin A. Nowell                    33                            Countywide               01 
00120020009000013DEMCWI8   Justice, Supreme Ct. Pl. 3                              DEM Erin A. Nowell                    35                            Countywide               01 
00120020010000033DEMCWI8   Justice, Supreme Ct. Pl. 3                              DEM Erin A. Nowell                    36                            Countywide               01 
00120020011000008DEMCWI8   Justice, Supreme Ct. Pl. 3                              DEM Erin A. Nowell                    43                            Countywide               01 
00120020012000059DEMCWI8   Justice, Supreme Ct. Pl. 3                              DEM Erin A. Nowell                    44                            Countywide               01 
00120020013000120DEMCWI8   Justice, Supreme Ct. Pl. 3                              DEM Erin A. Nowell                    45                            Countywide               01 
00120020014000034DEMCWI8   Justice, Supreme Ct. Pl. 3                              DEM Erin A. Nowell                    46                            Countywide               01 
00120030001000004LIBCWI8   Justice, Supreme Ct. Pl. 3                              LIB Thomas Edward Oxford              11                            Countywide               01 
00120030002000007LIBCWI8   Justice, Supreme Ct. Pl. 3                              LIB Thomas Edward Oxford              14                            Countywide               01 
00120030003000003LIBCWI8   Justice, Supreme Ct. Pl. 3                              LIB Thomas Edward Oxford              15                            Countywide               01 
00120030004000009LIBCWI8   Justice, Supreme Ct. Pl. 3                              LIB Thomas Edward Oxford              16                            Countywide               01 
00120030005000016LIBCWI8   Justice, Supreme Ct. Pl. 3                              LIB Thomas Edward Oxford              21                            Countywide               01 
00120030006000004LIBCWI8   Justice, Supreme Ct. Pl. 3                              LIB Thomas Edward Oxford              24                            Countywide               01 
00120030007000008LIBCWI8   Justice, Supreme Ct. Pl. 3                              LIB Thomas Edward Oxford              32                            Countywide               01 
00120030008000000LIBCWI8   Justice, Supreme Ct. Pl. 3                              LIB Thomas Edward Oxford              33                            Countywide               01 
00120030009000001LIBCWI8   Justice, Supreme Ct. Pl. 3                              LIB Thomas Edward Oxford              35                            Countywide               01 
00120030010000005LIBCWI8   Justice, Supreme Ct. Pl. 3                              LIB Thomas Edward Oxford              36                            Countywide               01 
00120030011000002LIBCWI8   Justice, Supreme Ct. Pl. 3                              LIB Thomas Edward Oxford              43                            Countywide               01 
00120030012000013LIBCWI8   Justice, Supreme Ct. Pl. 3                              LIB Thomas Edward Oxford              44                            Countywide               01 
00120030013000009LIBCWI8   Justice, Supreme Ct. Pl. 3                              LIB Thomas Edward Oxford              45                            Countywide               01 
00120030014000006LIBCWI8   Justice, Supreme Ct. Pl. 3                              LIB Thomas Edward Oxford              46                            Countywide               01 
00130010001000196REPCWI8   Justice, Supreme Ct. Pl. 5                              REP Rebeca Huddle                     11                            Countywide               01 
00130010002000427REPCWI8   Justice, Supreme Ct. Pl. 5                              REP Rebeca Huddle                     14                            Countywide               01 
00130010003000214REPCWI8   Justice, Supreme Ct. Pl. 5                              REP Rebeca Huddle                     15                            Countywide               01 
00130010004000898REPCWI8   Justice, Supreme Ct. Pl. 5                              REP Rebeca Huddle                     16                            Countywide               01 
00130010005000673REPCWI8   Justice, Supreme Ct. Pl. 5                              REP Rebeca Huddle                     21                            Countywide               01 
00130010006000317REPCWI8   Justice, Supreme Ct. Pl. 5                              REP Rebeca Huddle                     24                            Countywide               01 
00130010007000543REPCWI8   Justice, Supreme Ct. Pl. 5                              REP Rebeca Huddle                     32                            Countywide               01 
00130010008000047REPCWI8   Justice, Supreme Ct. Pl. 5                              REP Rebeca Huddle                     33                            Countywide               01 
00130010009000041REPCWI8   Justice, Supreme Ct. Pl. 5                              REP Rebeca Huddle                     35                            Countywide               01 
00130010010000058REPCWI8   Justice, Supreme Ct. Pl. 5                              REP Rebeca Huddle                     36                            Countywide               01 
00130010011000164REPCWI8   Justice, Supreme Ct. Pl. 5                              REP Rebeca Huddle                     43                            Countywide               01 
00130010012000313REPCWI8   Justice, Supreme Ct. Pl. 5                              REP Rebeca Huddle                     44                            Countywide               01 
00130010013000523REPCWI8   Justice, Supreme Ct. Pl. 5                              REP Rebeca Huddle                     45                            Countywide               01 
00130010014000256REPCWI8   Justice, Supreme Ct. Pl. 5                              REP Rebeca Huddle                     46                            Countywide               01 
00130020001000032DEMCWI8   Justice, Supreme Ct. Pl. 5                              DEM Amanda Reichek                    11                            Countywide               01 
00130020002000036DEMCWI8   Justice, Supreme Ct. Pl. 5                              DEM Amanda Reichek                    14                            Countywide               01 
00130020003000025DEMCWI8   Justice, Supreme Ct. Pl. 5                              DEM Amanda Reichek                    15                            Countywide               01 
00130020004000114DEMCWI8   Justice, Supreme Ct. Pl. 5                              DEM Amanda Reichek                    16                            Countywide               01 
00130020005000125DEMCWI8   Justice, Supreme Ct. Pl. 5                              DEM Amanda Reichek                    21                            Countywide               01 
00130020006000038DEMCWI8   Justice, Supreme Ct. Pl. 5                              DEM Amanda Reichek                    24                            Countywide               01 
00130020007000127DEMCWI8   Justice, Supreme Ct. Pl. 5                              DEM Amanda Reichek                    32                            Countywide               01 
00130020008000003DEMCWI8   Justice, Supreme Ct. Pl. 5                              DEM Amanda Reichek                    33                            Countywide               01 
00130020009000010DEMCWI8   Justice, Supreme Ct. Pl. 5                              DEM Amanda Reichek                    35                            Countywide               01 
00130020010000039DEMCWI8   Justice, Supreme Ct. Pl. 5                              DEM Amanda Reichek                    36                            Countywide               01 
00130020011000010DEMCWI8   Justice, Supreme Ct. Pl. 5                              DEM Amanda Reichek                    43                            Countywide               01 
00130020012000063DEMCWI8   Justice, Supreme Ct. Pl. 5                              DEM Amanda Reichek                    44                            Countywide               01 
00130020013000124DEMCWI8   Justice, Supreme Ct. Pl. 5                              DEM Amanda Reichek                    45                            Countywide               01 
00130020014000036DEMCWI8   Justice, Supreme Ct. Pl. 5                              DEM Amanda Reichek                    46                            Countywide               01 
00140010001000195REPCWI8   Justice, Supreme Ct. Pl. 9                              REP Evan Young                        11                            Countywide               01 
00140010002000418REPCWI8   Justice, Supreme Ct. Pl. 9                              REP Evan Young                        14                            Countywide               01 
00140010003000212REPCWI8   Justice, Supreme Ct. Pl. 9                              REP Evan Young                        15                            Countywide               01 
00140010004000890REPCWI8   Justice, Supreme Ct. Pl. 9                              REP Evan Young                        16                            Countywide               01 
00140010005000665REPCWI8   Justice, Supreme Ct. Pl. 9                              REP Evan Young                        21                            Countywide               01 
00140010006000315REPCWI8   Justice, Supreme Ct. Pl. 9                              REP Evan Young                        24                            Countywide               01 
00140010007000532REPCWI8   Justice, Supreme Ct. Pl. 9                              REP Evan Young                        32                            Countywide               01 
00140010008000046REPCWI8   Justice, Supreme Ct. Pl. 9                              REP Evan Young                        33                            Countywide               01 
00140010009000038REPCWI8   Justice, Supreme Ct. Pl. 9                              REP Evan Young                        35                            Countywide               01 
00140010010000054REPCWI8   Justice, Supreme Ct. Pl. 9                              REP Evan Young                        36                            Countywide               01 
00140010011000162REPCWI8   Justice, Supreme Ct. Pl. 9                              REP Evan Young                        43                            Countywide               01 
00140010012000304REPCWI8   Justice, Supreme Ct. Pl. 9                              REP Evan Young                        44                            Countywide               01 
00140010013000515REPCWI8   Justice, Supreme Ct. Pl. 9                              REP Evan Young                        45                            Countywide               01 
00140010014000249REPCWI8   Justice, Supreme Ct. Pl. 9                              REP Evan Young                        46                            Countywide               01 
00140020001000034DEMCWI8   Justice, Supreme Ct. Pl. 9                              DEM Julia Maldonado                   11                            Countywide               01 
00140020002000042DEMCWI8   Justice, Supreme Ct. Pl. 9                              DEM Julia Maldonado                   14                            Countywide               01 
00140020003000027DEMCWI8   Justice, Supreme Ct. Pl. 9                              DEM Julia Maldonado                   15                            Countywide               01 
00140020004000123DEMCWI8   Justice, Supreme Ct. Pl. 9                              DEM Julia Maldonado                   16                            Countywide               01 
00140020005000124DEMCWI8   Justice, Supreme Ct. Pl. 9                              DEM Julia Maldonado                   21                            Countywide               01 
00140020006000039DEMCWI8   Justice, Supreme Ct. Pl. 9                              DEM Julia Maldonado                   24                            Countywide               01 
00140020007000131DEMCWI8   Justice, Supreme Ct. Pl. 9                              DEM Julia Maldonado                   32                            Countywide               01 
00140020008000003DEMCWI8   Justice, Supreme Ct. Pl. 9                              DEM Julia Maldonado                   33                            Countywide               01 
00140020009000013DEMCWI8   Justice, Supreme Ct. Pl. 9                              DEM Julia Maldonado                   35                            Countywide               01 
00140020010000043DEMCWI8   Justice, Supreme Ct. Pl. 9                              DEM Julia Maldonado                   36                            Countywide               01 
00140020011000012DEMCWI8   Justice, Supreme Ct. Pl. 9                              DEM Julia Maldonado                   43                            Countywide               01 
00140020012000069DEMCWI8   Justice, Supreme Ct. Pl. 9                              DEM Julia Maldonado                   44                            Countywide               01 
00140020013000128DEMCWI8   Justice, Supreme Ct. Pl. 9                              DEM Julia Maldonado                   45                            Countywide               01 
00140020014000034DEMCWI8   Justice, Supreme Ct. Pl. 9                              DEM Julia Maldonado                   46                            Countywide               01 
00150010001000195REPCWI8   Judge, Ct of Crim. Appeals, Pl 5                        REP Scott Walker                      11                            Countywide               01 
00150010002000421REPCWI8   Judge, Ct of Crim. Appeals, Pl 5                        REP Scott Walker                      14                            Countywide               01 
00150010003000212REPCWI8   Judge, Ct of Crim. Appeals, Pl 5                        REP Scott Walker                      15                            Countywide               01 
00150010004000893REPCWI8   Judge, Ct of Crim. Appeals, Pl 5                        REP Scott Walker                      16                            Countywide               01 
00150010005000662REPCWI8   Judge, Ct of Crim. Appeals, Pl 5                        REP Scott Walker                      21                            Countywide               01 
00150010006000314REPCWI8   Judge, Ct of Crim. Appeals, Pl 5                        REP Scott Walker                      24                            Countywide               01 
00150010007000539REPCWI8   Judge, Ct of Crim. Appeals, Pl 5                        REP Scott Walker                      32                            Countywide               01 
00150010008000047REPCWI8   Judge, Ct of Crim. Appeals, Pl 5                        REP Scott Walker                      33                            Countywide               01 
00150010009000038REPCWI8   Judge, Ct of Crim. Appeals, Pl 5                        REP Scott Walker                      35                            Countywide               01 
00150010010000058REPCWI8   Judge, Ct of Crim. Appeals, Pl 5                        REP Scott Walker                      36                            Countywide               01 
00150010011000162REPCWI8   Judge, Ct of Crim. Appeals, Pl 5                        REP Scott Walker                      43                            Countywide               01 
00150010012000304REPCWI8   Judge, Ct of Crim. Appeals, Pl 5                        REP Scott Walker                      44                            Countywide               01 
00150010013000510REPCWI8   Judge, Ct of Crim. Appeals, Pl 5                        REP Scott Walker                      45                            Countywide               01 
00150010014000251REPCWI8   Judge, Ct of Crim. Appeals, Pl 5                        REP Scott Walker                      46                            Countywide               01 
00150020001000032DEMCWI8   Judge, Ct of Crim. Appeals, Pl 5                        DEM Dana Huffman                      11                            Countywide               01 
00150020002000038DEMCWI8   Judge, Ct of Crim. Appeals, Pl 5                        DEM Dana Huffman                      14                            Countywide               01 
00150020003000026DEMCWI8   Judge, Ct of Crim. Appeals, Pl 5                        DEM Dana Huffman                      15                            Countywide               01 
00150020004000115DEMCWI8   Judge, Ct of Crim. Appeals, Pl 5                        DEM Dana Huffman                      16                            Countywide               01 
00150020005000124DEMCWI8   Judge, Ct of Crim. Appeals, Pl 5                        DEM Dana Huffman                      21                            Countywide               01 
00150020006000037DEMCWI8   Judge, Ct of Crim. Appeals, Pl 5                        DEM Dana Huffman                      24                            Countywide               01 
00150020007000128DEMCWI8   Judge, Ct of Crim. Appeals, Pl 5                        DEM Dana Huffman                      32                            Countywide               01 
00150020008000002DEMCWI8   Judge, Ct of Crim. Appeals, Pl 5                        DEM Dana Huffman                      33                            Countywide               01 
00150020009000013DEMCWI8   Judge, Ct of Crim. Appeals, Pl 5                        DEM Dana Huffman                      35                            Countywide               01 
00150020010000038DEMCWI8   Judge, Ct of Crim. Appeals, Pl 5                        DEM Dana Huffman                      36                            Countywide               01 
00150020011000012DEMCWI8   Judge, Ct of Crim. Appeals, Pl 5                        DEM Dana Huffman                      43                            Countywide               01 
00150020012000069DEMCWI8   Judge, Ct of Crim. Appeals, Pl 5                        DEM Dana Huffman                      44                            Countywide               01 
00150020013000130DEMCWI8   Judge, Ct of Crim. Appeals, Pl 5                        DEM Dana Huffman                      45                            Countywide               01 
00150020014000034DEMCWI8   Judge, Ct of Crim. Appeals, Pl 5                        DEM Dana Huffman                      46                            Countywide               01 
00160010001000195REPCWI8   Judge, Ct of Crim. Appeals, Pl 6                        REP Jesse F. McClure, III             11                            Countywide               01 
00160010002000422REPCWI8   Judge, Ct of Crim. Appeals, Pl 6                        REP Jesse F. McClure, III             14                            Countywide               01 
00160010003000212REPCWI8   Judge, Ct of Crim. Appeals, Pl 6                        REP Jesse F. McClure, III             15                            Countywide               01 
00160010004000894REPCWI8   Judge, Ct of Crim. Appeals, Pl 6                        REP Jesse F. McClure, III             16                            Countywide               01 
00160010005000662REPCWI8   Judge, Ct of Crim. Appeals, Pl 6                        REP Jesse F. McClure, III             21                            Countywide               01 
00160010006000312REPCWI8   Judge, Ct of Crim. Appeals, Pl 6                        REP Jesse F. McClure, III             24                            Countywide               01 
00160010007000539REPCWI8   Judge, Ct of Crim. Appeals, Pl 6                        REP Jesse F. McClure, III             32                            Countywide               01 
00160010008000047REPCWI8   Judge, Ct of Crim. Appeals, Pl 6                        REP Jesse F. McClure, III             33                            Countywide               01 
00160010009000040REPCWI8   Judge, Ct of Crim. Appeals, Pl 6                        REP Jesse F. McClure, III             35                            Countywide               01 
00160010010000059REPCWI8   Judge, Ct of Crim. Appeals, Pl 6                        REP Jesse F. McClure, III             36                            Countywide               01 
00160010011000163REPCWI8   Judge, Ct of Crim. Appeals, Pl 6                        REP Jesse F. McClure, III             43                            Countywide               01 
00160010012000303REPCWI8   Judge, Ct of Crim. Appeals, Pl 6                        REP Jesse F. McClure, III             44                            Countywide               01 
00160010013000516REPCWI8   Judge, Ct of Crim. Appeals, Pl 6                        REP Jesse F. McClure, III             45                            Countywide               01 
00160010014000251REPCWI8   Judge, Ct of Crim. Appeals, Pl 6                        REP Jesse F. McClure, III             46                            Countywide               01 
00160020001000032DEMCWI8   Judge, Ct of Crim. Appeals, Pl 6                        DEM Robert Johnson                    11                            Countywide               01 
00160020002000035DEMCWI8   Judge, Ct of Crim. Appeals, Pl 6                        DEM Robert Johnson                    14                            Countywide               01 
00160020003000027DEMCWI8   Judge, Ct of Crim. Appeals, Pl 6                        DEM Robert Johnson                    15                            Countywide               01 
