00010010001000377000000000000000000000000000000000000000000000000000000000000000000000000000000000000          REGISTERED VOTERS - TOTAL                               REGISTERED VOTERS - TOTAL             Precinct 1                                             00 
00010010002000374000000000000000000000000000000000000000000000000000000000000000000000000000000000000          REGISTERED VOTERS - TOTAL                               REGISTERED VOTERS - TOTAL             Precinct 2                                             00 
00010010003000404000000000000000000000000000000000000000000000000000000000000000000000000000000000000          REGISTERED VOTERS - TOTAL                               REGISTERED VOTERS - TOTAL             Precinct 3                                             00 
00010010004000174000000000000000000000000000000000000000000000000000000000000000000000000000000000000          REGISTERED VOTERS - TOTAL                               REGISTERED VOTERS - TOTAL             Precinct 4                                             00 
00010010005000252000000000000000000000000000000000000000000000000000000000000000000000000000000000000          REGISTERED VOTERS - TOTAL                               REGISTERED VOTERS - TOTAL             Precinct 5                                             00 
00020010001000290000019000209000062000000000000000000000000000000000000000000000000000000000000000000          BALLOTS CAST - TOTAL                                    BALLOTS CAST - TOTAL                  Precinct 1                                             00 
00020010002000227000011000135000081000000000000000000000000000000000000000000000000000000000000000000          BALLOTS CAST - TOTAL                                    BALLOTS CAST - TOTAL                  Precinct 2                                             00 
00020010003000251000005000163000083000000000000000000000000000000000000000000000000000000000000000000          BALLOTS CAST - TOTAL                                    BALLOTS CAST - TOTAL                  Precinct 3                                             00 
00020010004000108000000000066000042000000000000000000000000000000000000000000000000000000000000000000          BALLOTS CAST - TOTAL                                    BALLOTS CAST - TOTAL                  Precinct 4                                             00 
00020010005000178000002000100000076000000000000000000000000000000000000000000000000000000000000000000          BALLOTS CAST - TOTAL                                    BALLOTS CAST - TOTAL                  Precinct 5                                             00 
00030010001000000000000000000000000000000000000000000000000000000000000000000000000000000000000000000          BALLOTS CAST - BLANK                                    BALLOTS CAST - BLANK                  Precinct 1                                             00 
00030010002000000000000000000000000000000000000000000000000000000000000000000000000000000000000000000          BALLOTS CAST - BLANK                                    BALLOTS CAST - BLANK                  Precinct 2                                             00 
00030010003000000000000000000000000000000000000000000000000000000000000000000000000000000000000000000          BALLOTS CAST - BLANK                                    BALLOTS CAST - BLANK                  Precinct 3                                             00 
00030010004000000000000000000000000000000000000000000000000000000000000000000000000000000000000000000          BALLOTS CAST - BLANK                                    BALLOTS CAST - BLANK                  Precinct 4                                             00 
00030010005000000000000000000000000000000000000000000000000000000000000000000000000000000000000000000          BALLOTS CAST - BLANK                                    BALLOTS CAST - BLANK                  Precinct 5                                             00 
00040010001000162000010000112000040000000000000000000000000000000000000000000000000000000000000000000REP       US Representative, Dist 23                              REP Tony Gonzales                     Precinct 1                                             01 
00040010002000131000005000086000040000000000000000000000000000000000000000000000000000000000000000000REP       US Representative, Dist 23                              REP Tony Gonzales                     Precinct 2                                             01 
00040010003000151000003000106000042000000000000000000000000000000000000000000000000000000000000000000REP       US Representative, Dist 23                              REP Tony Gonzales                     Precinct 3                                             01 
00040010004000075000000000049000026000000000000000000000000000000000000000000000000000000000000000000REP       US Representative, Dist 23                              REP Tony Gonzales                     Precinct 4                                             01 
00040010005000098000002000046000050000000000000000000000000000000000000000000000000000000000000000000REP       US Representative, Dist 23                              REP Tony Gonzales                     Precinct 5                                             01 
00040020001000111000009000086000016000000000000000000000000000000000000000000000000000000000000000000DEM       US Representative, Dist 23                              DEM John Lira                         Precinct 1                                             01 
00040020002000075000002000043000030000000000000000000000000000000000000000000000000000000000000000000DEM       US Representative, Dist 23                              DEM John Lira                         Precinct 2                                             01 
00040020003000087000001000052000034000000000000000000000000000000000000000000000000000000000000000000DEM       US Representative, Dist 23                              DEM John Lira                         Precinct 3                                             01 
00040020004000028000000000015000013000000000000000000000000000000000000000000000000000000000000000000DEM       US Representative, Dist 23                              DEM John Lira                         Precinct 4                                             01 
00040020005000065000000000043000022000000000000000000000000000000000000000000000000000000000000000000DEM       US Representative, Dist 23                              DEM John Lira                         Precinct 5                                             01 
00040030001000013000000000009000004000000000000000000000000000000000000000000000000000000000000000000IND       US Representative, Dist 23                              IND Frank Lopez Jr.                   Precinct 1                                             01 
00040030002000009000000000002000007000000000000000000000000000000000000000000000000000000000000000000IND       US Representative, Dist 23                              IND Frank Lopez Jr.                   Precinct 2                                             01 
00040030003000011000000000005000006000000000000000000000000000000000000000000000000000000000000000000IND       US Representative, Dist 23                              IND Frank Lopez Jr.                   Precinct 3                                             01 
00040030004000004000000000002000002000000000000000000000000000000000000000000000000000000000000000000IND       US Representative, Dist 23                              IND Frank Lopez Jr.                   Precinct 4                                             01 
00040030005000009000000000006000003000000000000000000000000000000000000000000000000000000000000000000IND       US Representative, Dist 23                              IND Frank Lopez Jr.                   Precinct 5                                             01 
00040040001000000000000000000000000000000000000000000000000000000000000000000000000000000000000000000          US Representative, Dist 23                              OVER VOTES                            Precinct 1                                             01 
00040040002000000000000000000000000000000000000000000000000000000000000000000000000000000000000000000          US Representative, Dist 23                              OVER VOTES                            Precinct 2                                             01 
00040040003000000000000000000000000000000000000000000000000000000000000000000000000000000000000000000          US Representative, Dist 23                              OVER VOTES                            Precinct 3                                             01 
00040040004000000000000000000000000000000000000000000000000000000000000000000000000000000000000000000          US Representative, Dist 23                              OVER VOTES                            Precinct 4                                             01 
00040040005000000000000000000000000000000000000000000000000000000000000000000000000000000000000000000          US Representative, Dist 23                              OVER VOTES                            Precinct 5                                             01 
00040050001000004000000000002000002000000000000000000000000000000000000000000000000000000000000000000          US Representative, Dist 23                              UNDER VOTES                           Precinct 1                                             01 
00040050002000012000004000004000004000000000000000000000000000000000000000000000000000000000000000000          US Representative, Dist 23                              UNDER VOTES                           Precinct 2                                             01 
00040050003000002000001000000000001000000000000000000000000000000000000000000000000000000000000000000          US Representative, Dist 23                              UNDER VOTES                           Precinct 3                                             01 
00040050004000001000000000000000001000000000000000000000000000000000000000000000000000000000000000000          US Representative, Dist 23                              UNDER VOTES                           Precinct 4                                             01 
00040050005000006000000000005000001000000000000000000000000000000000000000000000000000000000000000000          US Representative, Dist 23                              UNDER VOTES                           Precinct 5                                             01 
00050010001000166000010000114000042000000000000000000000000000000000000000000000000000000000000000000REP       Governor                                                REP Greg Abbott                       Precinct 1                                             01 
00050010002000139000006000084000049000000000000000000000000000000000000000000000000000000000000000000REP       Governor                                                REP Greg Abbott                       Precinct 2                                             01 
00050010003000159000004000108000047000000000000000000000000000000000000000000000000000000000000000000REP       Governor                                                REP Greg Abbott                       Precinct 3                                             01 
00050010004000076000000000051000025000000000000000000000000000000000000000000000000000000000000000000REP       Governor                                                REP Greg Abbott                       Precinct 4                                             01 
00050010005000101000002000049000050000000000000000000000000000000000000000000000000000000000000000000REP       Governor                                                REP Greg Abbott                       Precinct 5                                             01 
00050020001000109000009000085000015000000000000000000000000000000000000000000000000000000000000000000DEM       Governor                                                DEM Beto O'Rourke                     Precinct 1                                             01 
00050020002000082000003000048000031000000000000000000000000000000000000000000000000000000000000000000DEM       Governor                                                DEM Beto O'Rourke                     Precinct 2                                             01 
00050020003000085000001000053000031000000000000000000000000000000000000000000000000000000000000000000DEM       Governor                                                DEM Beto O'Rourke                     Precinct 3                                             01 
00050020004000029000000000015000014000000000000000000000000000000000000000000000000000000000000000000DEM       Governor                                                DEM Beto O'Rourke                     Precinct 4                                             01 
00050020005000069000000000048000021000000000000000000000000000000000000000000000000000000000000000000DEM       Governor                                                DEM Beto O'Rourke                     Precinct 5                                             01 
00050030001000014000000000010000004000000000000000000000000000000000000000000000000000000000000000000LIB       Governor                                                LIB Mark Tippetts                     Precinct 1                                             01 
00050030002000003000001000001000001000000000000000000000000000000000000000000000000000000000000000000LIB       Governor                                                LIB Mark Tippetts                     Precinct 2                                             01 
00050030003000004000000000001000003000000000000000000000000000000000000000000000000000000000000000000LIB       Governor                                                LIB Mark Tippetts                     Precinct 3                                             01 
00050030004000003000000000000000003000000000000000000000000000000000000000000000000000000000000000000LIB       Governor                                                LIB Mark Tippetts                     Precinct 4                                             01 
00050030005000006000000000002000004000000000000000000000000000000000000000000000000000000000000000000LIB       Governor                                                LIB Mark Tippetts                     Precinct 5                                             01 
00050040001000000000000000000000000000000000000000000000000000000000000000000000000000000000000000000GRN       Governor                                                GRN Delilah Barrios                   Precinct 1                                             01 
00050040002000001000000000001000000000000000000000000000000000000000000000000000000000000000000000000GRN       Governor                                                GRN Delilah Barrios                   Precinct 2                                             01 
00050040003000003000000000001000002000000000000000000000000000000000000000000000000000000000000000000GRN       Governor                                                GRN Delilah Barrios                   Precinct 3                                             01 
00050040004000000000000000000000000000000000000000000000000000000000000000000000000000000000000000000GRN       Governor                                                GRN Delilah Barrios                   Precinct 4                                             01 
00050040005000001000000000001000000000000000000000000000000000000000000000000000000000000000000000000GRN       Governor                                                GRN Delilah Barrios                   Precinct 5                                             01 
00050060001000000000000000000000000000000000000000000000000000000000000000000000000000000000000000000NON       Governor                                                Write-in                              Precinct 1                                             01 
00050060002000000000000000000000000000000000000000000000000000000000000000000000000000000000000000000NON       Governor                                                Write-in                              Precinct 2                                             01 
00050060003000000000000000000000000000000000000000000000000000000000000000000000000000000000000000000NON       Governor                                                Write-in                              Precinct 3                                             01 
00050060004000000000000000000000000000000000000000000000000000000000000000000000000000000000000000000NON       Governor                                                Write-in                              Precinct 4                                             01 
00050060005000001000000000000000001000000000000000000000000000000000000000000000000000000000000000000NON       Governor                                                Write-in                              Precinct 5                                             01 
00050070001000000000000000000000000000000000000000000000000000000000000000000000000000000000000000000          Governor                                                OVER VOTES                            Precinct 1                                             01 
00050070002000000000000000000000000000000000000000000000000000000000000000000000000000000000000000000          Governor                                                OVER VOTES                            Precinct 2                                             01 
00050070003000000000000000000000000000000000000000000000000000000000000000000000000000000000000000000          Governor                                                OVER VOTES                            Precinct 3                                             01 
00050070004000000000000000000000000000000000000000000000000000000000000000000000000000000000000000000          Governor                                                OVER VOTES                            Precinct 4                                             01 
00050070005000000000000000000000000000000000000000000000000000000000000000000000000000000000000000000          Governor                                                OVER VOTES                            Precinct 5                                             01 
00050080001000001000000000000000001000000000000000000000000000000000000000000000000000000000000000000          Governor                                                UNDER VOTES                           Precinct 1                                             01 
00050080002000001000000000001000000000000000000000000000000000000000000000000000000000000000000000000          Governor                                                UNDER VOTES                           Precinct 2                                             01 
00050080003000000000000000000000000000000000000000000000000000000000000000000000000000000000000000000          Governor                                                UNDER VOTES                           Precinct 3                                             01 
00050080004000000000000000000000000000000000000000000000000000000000000000000000000000000000000000000          Governor                                                UNDER VOTES                           Precinct 4                                             01 
00050080005000000000000000000000000000000000000000000000000000000000000000000000000000000000000000000          Governor                                                UNDER VOTES                           Precinct 5                                             01 
00060010001000150000010000100000040000000000000000000000000000000000000000000000000000000000000000000REP       Lieutenant Governor                                     REP Dan Patrick                       Precinct 1                                             01 
00060010002000129000007000079000043000000000000000000000000000000000000000000000000000000000000000000REP       Lieutenant Governor                                     REP Dan Patrick                       Precinct 2                                             01 
00060010003000144000004000098000042000000000000000000000000000000000000000000000000000000000000000000REP       Lieutenant Governor                                     REP Dan Patrick                       Precinct 3                                             01 
00060010004000071000000000050000021000000000000000000000000000000000000000000000000000000000000000000REP       Lieutenant Governor                                     REP Dan Patrick                       Precinct 4                                             01 
00060010005000100000002000050000048000000000000000000000000000000000000000000000000000000000000000000REP       Lieutenant Governor                                     REP Dan Patrick                       Precinct 5                                             01 
00060020001000120000009000094000017000000000000000000000000000000000000000000000000000000000000000000DEM       Lieutenant Governor                                     DEM Mike Collier                      Precinct 1                                             01 
00060020002000083000004000047000032000000000000000000000000000000000000000000000000000000000000000000DEM       Lieutenant Governor                                     DEM Mike Collier                      Precinct 2                                             01 
00060020003000097000001000059000037000000000000000000000000000000000000000000000000000000000000000000DEM       Lieutenant Governor                                     DEM Mike Collier                      Precinct 3                                             01 
00060020004000031000000000014000017000000000000000000000000000000000000000000000000000000000000000000DEM       Lieutenant Governor                                     DEM Mike Collier                      Precinct 4                                             01 
00060020005000066000000000044000022000000000000000000000000000000000000000000000000000000000000000000DEM       Lieutenant Governor                                     DEM Mike Collier                      Precinct 5                                             01 
00060030001000017000000000012000005000000000000000000000000000000000000000000000000000000000000000000LIB       Lieutenant Governor                                     LIB Shanna Steele                     Precinct 1                                             01 
00060030002000007000000000003000004000000000000000000000000000000000000000000000000000000000000000000LIB       Lieutenant Governor                                     LIB Shanna Steele                     Precinct 2                                             01 
00060030003000007000000000005000002000000000000000000000000000000000000000000000000000000000000000000LIB       Lieutenant Governor                                     LIB Shanna Steele                     Precinct 3                                             01 
00060030004000005000000000001000004000000000000000000000000000000000000000000000000000000000000000000LIB       Lieutenant Governor                                     LIB Shanna Steele                     Precinct 4                                             01 
00060030005000008000000000003000005000000000000000000000000000000000000000000000000000000000000000000LIB       Lieutenant Governor                                     LIB Shanna Steele                     Precinct 5                                             01 
00060040001000000000000000000000000000000000000000000000000000000000000000000000000000000000000000000          Lieutenant Governor                                     OVER VOTES                            Precinct 1                                             01 
00060040002000000000000000000000000000000000000000000000000000000000000000000000000000000000000000000          Lieutenant Governor                                     OVER VOTES                            Precinct 2                                             01 
00060040003000000000000000000000000000000000000000000000000000000000000000000000000000000000000000000          Lieutenant Governor                                     OVER VOTES                            Precinct 3                                             01 
00060040004000000000000000000000000000000000000000000000000000000000000000000000000000000000000000000          Lieutenant Governor                                     OVER VOTES                            Precinct 4                                             01 
00060040005000000000000000000000000000000000000000000000000000000000000000000000000000000000000000000          Lieutenant Governor                                     OVER VOTES                            Precinct 5                                             01 
00060050001000003000000000003000000000000000000000000000000000000000000000000000000000000000000000000          Lieutenant Governor                                     UNDER VOTES                           Precinct 1                                             01 
00060050002000008000000000006000002000000000000000000000000000000000000000000000000000000000000000000          Lieutenant Governor                                     UNDER VOTES                           Precinct 2                                             01 
00060050003000003000000000001000002000000000000000000000000000000000000000000000000000000000000000000          Lieutenant Governor                                     UNDER VOTES                           Precinct 3                                             01 
00060050004000001000000000001000000000000000000000000000000000000000000000000000000000000000000000000          Lieutenant Governor                                     UNDER VOTES                           Precinct 4                                             01 
00060050005000004000000000003000001000000000000000000000000000000000000000000000000000000000000000000          Lieutenant Governor                                     UNDER VOTES                           Precinct 5                                             01 
00070010001000154000010000104000040000000000000000000000000000000000000000000000000000000000000000000REP       Attorney General                                        REP Ken Paxton                        Precinct 1                                             01 
00070010002000127000008000077000042000000000000000000000000000000000000000000000000000000000000000000REP       Attorney General                                        REP Ken Paxton                        Precinct 2                                             01 
00070010003000149000004000103000042000000000000000000000000000000000000000000000000000000000000000000REP       Attorney General                                        REP Ken Paxton                        Precinct 3                                             01 
00070010004000073000000000051000022000000000000000000000000000000000000000000000000000000000000000000REP       Attorney General                                        REP Ken Paxton                        Precinct 4                                             01 
00070010005000101000002000050000049000000000000000000000000000000000000000000000000000000000000000000REP       Attorney General                                        REP Ken Paxton                        Precinct 5                                             01 
00070020001000116000009000091000016000000000000000000000000000000000000000000000000000000000000000000DEM       Attorney General                                        DEM Rochelle Mercedes Garza           Precinct 1                                             01 
00070020002000084000003000047000034000000000000000000000000000000000000000000000000000000000000000000DEM       Attorney General                                        DEM Rochelle Mercedes Garza           Precinct 2                                             01 
00070020003000088000001000053000034000000000000000000000000000000000000000000000000000000000000000000DEM       Attorney General                                        DEM Rochelle Mercedes Garza           Precinct 3                                             01 
00070020004000033000000000015000018000000000000000000000000000000000000000000000000000000000000000000DEM       Attorney General                                        DEM Rochelle Mercedes Garza           Precinct 4                                             01 
00070020005000066000000000044000022000000000000000000000000000000000000000000000000000000000000000000DEM       Attorney General                                        DEM Rochelle Mercedes Garza           Precinct 5                                             01 
00070030001000018000000000013000005000000000000000000000000000000000000000000000000000000000000000000LIB       Attorney General                                        LIB Mark Ash                          Precinct 1                                             01 
00070030002000005000000000004000001000000000000000000000000000000000000000000000000000000000000000000LIB       Attorney General                                        LIB Mark Ash                          Precinct 2                                             01 
00070030003000008000000000005000003000000000000000000000000000000000000000000000000000000000000000000LIB       Attorney General                                        LIB Mark Ash                          Precinct 3                                             01 
00070030004000002000000000000000002000000000000000000000000000000000000000000000000000000000000000000LIB       Attorney General                                        LIB Mark Ash                          Precinct 4                                             01 
00070030005000007000000000003000004000000000000000000000000000000000000000000000000000000000000000000LIB       Attorney General                                        LIB Mark Ash                          Precinct 5                                             01 
00070040001000000000000000000000000000000000000000000000000000000000000000000000000000000000000000000          Attorney General                                        OVER VOTES                            Precinct 1                                             01 
00070040002000000000000000000000000000000000000000000000000000000000000000000000000000000000000000000          Attorney General                                        OVER VOTES                            Precinct 2                                             01 
00070040003000000000000000000000000000000000000000000000000000000000000000000000000000000000000000000          Attorney General                                        OVER VOTES                            Precinct 3                                             01 
00070040004000000000000000000000000000000000000000000000000000000000000000000000000000000000000000000          Attorney General                                        OVER VOTES                            Precinct 4                                             01 
00070040005000000000000000000000000000000000000000000000000000000000000000000000000000000000000000000          Attorney General                                        OVER VOTES                            Precinct 5                                             01 
00070050001000002000000000001000001000000000000000000000000000000000000000000000000000000000000000000          Attorney General                                        UNDER VOTES                           Precinct 1                                             01 
00070050002000011000000000007000004000000000000000000000000000000000000000000000000000000000000000000          Attorney General                                        UNDER VOTES                           Precinct 2                                             01 
00070050003000006000000000002000004000000000000000000000000000000000000000000000000000000000000000000          Attorney General                                        UNDER VOTES                           Precinct 3                                             01 
00070050004000000000000000000000000000000000000000000000000000000000000000000000000000000000000000000          Attorney General                                        UNDER VOTES                           Precinct 4                                             01 
00070050005000004000000000003000001000000000000000000000000000000000000000000000000000000000000000000          Attorney General                                        UNDER VOTES                           Precinct 5                                             01 
00080010001000159000010000110000039000000000000000000000000000000000000000000000000000000000000000000REP       Comptroller of Public Accounts                          REP Glenn Hegar                       Precinct 1                                             01 
00080010002000130000007000080000043000000000000000000000000000000000000000000000000000000000000000000REP       Comptroller of Public Accounts                          REP Glenn Hegar                       Precinct 2                                             01 
00080010003000155000004000108000043000000000000000000000000000000000000000000000000000000000000000000REP       Comptroller of Public Accounts                          REP Glenn Hegar                       Precinct 3                                             01 
00080010004000075000000000051000024000000000000000000000000000000000000000000000000000000000000000000REP       Comptroller of Public Accounts                          REP Glenn Hegar                       Precinct 4                                             01 
00080010005000104000002000051000051000000000000000000000000000000000000000000000000000000000000000000REP       Comptroller of Public Accounts                          REP Glenn Hegar                       Precinct 5                                             01 
00080020001000111000009000087000015000000000000000000000000000000000000000000000000000000000000000000DEM       Comptroller of Public Accounts                          DEM Janet T. Dudding                  Precinct 1                                             01 
00080020002000079000003000044000032000000000000000000000000000000000000000000000000000000000000000000DEM       Comptroller of Public Accounts                          DEM Janet T. Dudding                  Precinct 2                                             01 
00080020003000084000001000052000031000000000000000000000000000000000000000000000000000000000000000000DEM       Comptroller of Public Accounts                          DEM Janet T. Dudding                  Precinct 3                                             01 
00080020004000031000000000015000016000000000000000000000000000000000000000000000000000000000000000000DEM       Comptroller of Public Accounts                          DEM Janet T. Dudding                  Precinct 4                                             01 
00080020005000066000000000045000021000000000000000000000000000000000000000000000000000000000000000000DEM       Comptroller of Public Accounts                          DEM Janet T. Dudding                  Precinct 5                                             01 
00080030001000015000000000009000006000000000000000000000000000000000000000000000000000000000000000000LIB       Comptroller of Public Accounts                          LIB V. Alonzo Echevarria-Garza        Precinct 1                                             01 
00080030002000008000001000005000002000000000000000000000000000000000000000000000000000000000000000000LIB       Comptroller of Public Accounts                          LIB V. Alonzo Echevarria-Garza        Precinct 2                                             01 
00080030003000007000000000002000005000000000000000000000000000000000000000000000000000000000000000000LIB       Comptroller of Public Accounts                          LIB V. Alonzo Echevarria-Garza        Precinct 3                                             01 
00080030004000002000000000000000002000000000000000000000000000000000000000000000000000000000000000000LIB       Comptroller of Public Accounts                          LIB V. Alonzo Echevarria-Garza        Precinct 4                                             01 
00080030005000003000000000001000002000000000000000000000000000000000000000000000000000000000000000000LIB       Comptroller of Public Accounts                          LIB V. Alonzo Echevarria-Garza        Precinct 5                                             01 
00080040001000000000000000000000000000000000000000000000000000000000000000000000000000000000000000000          Comptroller of Public Accounts                          OVER VOTES                            Precinct 1                                             01 
00080040002000000000000000000000000000000000000000000000000000000000000000000000000000000000000000000          Comptroller of Public Accounts                          OVER VOTES                            Precinct 2                                             01 
00080040003000000000000000000000000000000000000000000000000000000000000000000000000000000000000000000          Comptroller of Public Accounts                          OVER VOTES                            Precinct 3                                             01 
00080040004000000000000000000000000000000000000000000000000000000000000000000000000000000000000000000          Comptroller of Public Accounts                          OVER VOTES                            Precinct 4                                             01 
00080040005000000000000000000000000000000000000000000000000000000000000000000000000000000000000000000          Comptroller of Public Accounts                          OVER VOTES                            Precinct 5                                             01 
00080050001000005000000000003000002000000000000000000000000000000000000000000000000000000000000000000          Comptroller of Public Accounts                          UNDER VOTES                           Precinct 1                                             01 
00080050002000010000000000006000004000000000000000000000000000000000000000000000000000000000000000000          Comptroller of Public Accounts                          UNDER VOTES                           Precinct 2                                             01 
00080050003000005000000000001000004000000000000000000000000000000000000000000000000000000000000000000          Comptroller of Public Accounts                          UNDER VOTES                           Precinct 3                                             01 
00080050004000000000000000000000000000000000000000000000000000000000000000000000000000000000000000000          Comptroller of Public Accounts                          UNDER VOTES                           Precinct 4                                             01 
00080050005000005000000000003000002000000000000000000000000000000000000000000000000000000000000000000          Comptroller of Public Accounts                          UNDER VOTES                           Precinct 5                                             01 
00090010001000160000010000109000041000000000000000000000000000000000000000000000000000000000000000000REP       Comm. General Land Office                               REP Dawn Buckingham                   Precinct 1                                             01 
00090010002000122000007000073000042000000000000000000000000000000000000000000000000000000000000000000REP       Comm. General Land Office                               REP Dawn Buckingham                   Precinct 2                                             01 
00090010003000150000004000102000044000000000000000000000000000000000000000000000000000000000000000000REP       Comm. General Land Office                               REP Dawn Buckingham                   Precinct 3                                             01 
00090010004000067000000000048000019000000000000000000000000000000000000000000000000000000000000000000REP       Comm. General Land Office                               REP Dawn Buckingham                   Precinct 4                                             01 
00090010005000097000002000049000046000000000000000000000000000000000000000000000000000000000000000000REP       Comm. General Land Office                               REP Dawn Buckingham                   Precinct 5                                             01 
00090020001000117000009000091000017000000000000000000000000000000000000000000000000000000000000000000DEM       Comm. General Land Office                               DEM Jay Kleberg                       Precinct 1                                             01 
00090020002000085000004000048000033000000000000000000000000000000000000000000000000000000000000000000DEM       Comm. General Land Office                               DEM Jay Kleberg                       Precinct 2                                             01 
00090020003000088000001000054000033000000000000000000000000000000000000000000000000000000000000000000DEM       Comm. General Land Office                               DEM Jay Kleberg                       Precinct 3                                             01 
00090020004000036000000000017000019000000000000000000000000000000000000000000000000000000000000000000DEM       Comm. General Land Office                               DEM Jay Kleberg                       Precinct 4                                             01 
00090020005000068000000000044000024000000000000000000000000000000000000000000000000000000000000000000DEM       Comm. General Land Office                               DEM Jay Kleberg                       Precinct 5                                             01 
00090030001000004000000000004000000000000000000000000000000000000000000000000000000000000000000000000GRN       Comm. General Land Office                               GRN Alfred Molison, Jr.               Precinct 1                                             01 
00090030002000004000000000002000002000000000000000000000000000000000000000000000000000000000000000000GRN       Comm. General Land Office                               GRN Alfred Molison, Jr.               Precinct 2                                             01 
00090030003000006000000000004000002000000000000000000000000000000000000000000000000000000000000000000GRN       Comm. General Land Office                               GRN Alfred Molison, Jr.               Precinct 3                                             01 
00090030004000005000000000001000004000000000000000000000000000000000000000000000000000000000000000000GRN       Comm. General Land Office                               GRN Alfred Molison, Jr.               Precinct 4                                             01 
00090030005000007000000000003000004000000000000000000000000000000000000000000000000000000000000000000GRN       Comm. General Land Office                               GRN Alfred Molison, Jr.               Precinct 5                                             01 
00090050001000000000000000000000000000000000000000000000000000000000000000000000000000000000000000000NON       Comm. General Land Office                               Write-in                              Precinct 1                                             01 
00090050002000000000000000000000000000000000000000000000000000000000000000000000000000000000000000000NON       Comm. General Land Office                               Write-in                              Precinct 2                                             01 
00090050003000000000000000000000000000000000000000000000000000000000000000000000000000000000000000000NON       Comm. General Land Office                               Write-in                              Precinct 3                                             01 
00090050004000000000000000000000000000000000000000000000000000000000000000000000000000000000000000000NON       Comm. General Land Office                               Write-in                              Precinct 4                                             01 
00090050005000000000000000000000000000000000000000000000000000000000000000000000000000000000000000000NON       Comm. General Land Office                               Write-in                              Precinct 5                                             01 
00090060001000000000000000000000000000000000000000000000000000000000000000000000000000000000000000000          Comm. General Land Office                               OVER VOTES                            Precinct 1                                             01 
00090060002000000000000000000000000000000000000000000000000000000000000000000000000000000000000000000          Comm. General Land Office                               OVER VOTES                            Precinct 2                                             01 
00090060003000000000000000000000000000000000000000000000000000000000000000000000000000000000000000000          Comm. General Land Office                               OVER VOTES                            Precinct 3                                             01 
00090060004000000000000000000000000000000000000000000000000000000000000000000000000000000000000000000          Comm. General Land Office                               OVER VOTES                            Precinct 4                                             01 
00090060005000000000000000000000000000000000000000000000000000000000000000000000000000000000000000000          Comm. General Land Office                               OVER VOTES                            Precinct 5                                             01 
00090070001000009000000000005000004000000000000000000000000000000000000000000000000000000000000000000          Comm. General Land Office                               UNDER VOTES                           Precinct 1                                             01 
00090070002000016000000000012000004000000000000000000000000000000000000000000000000000000000000000000          Comm. General Land Office                               UNDER VOTES                           Precinct 2                                             01 
00090070003000007000000000003000004000000000000000000000000000000000000000000000000000000000000000000          Comm. General Land Office                               UNDER VOTES                           Precinct 3                                             01 
00090070004000000000000000000000000000000000000000000000000000000000000000000000000000000000000000000          Comm. General Land Office                               UNDER VOTES                           Precinct 4                                             01 
00090070005000006000000000004000002000000000000000000000000000000000000000000000000000000000000000000          Comm. General Land Office                               UNDER VOTES                           Precinct 5                                             01 
00100010001000158000010000106000042000000000000000000000000000000000000000000000000000000000000000000REP       Commissioner of Agriculture                             REP Sid Miller                        Precinct 1                                             01 
00100010002000127000007000075000045000000000000000000000000000000000000000000000000000000000000000000REP       Commissioner of Agriculture                             REP Sid Miller                        Precinct 2                                             01 
00100010003000153000004000104000045000000000000000000000000000000000000000000000000000000000000000000REP       Commissioner of Agriculture                             REP Sid Miller                        Precinct 3                                             01 
00100010004000076000000000051000025000000000000000000000000000000000000000000000000000000000000000000REP       Commissioner of Agriculture                             REP Sid Miller                        Precinct 4                                             01 
00100010005000102000002000051000049000000000000000000000000000000000000000000000000000000000000000000REP       Commissioner of Agriculture                             REP Sid Miller                        Precinct 5                                             01 
00100020001000126000009000100000017000000000000000000000000000000000000000000000000000000000000000000DEM       Commissioner of Agriculture                             DEM Susan Hays                        Precinct 1                                             01 
00100020002000087000004000051000032000000000000000000000000000000000000000000000000000000000000000000DEM       Commissioner of Agriculture                             DEM Susan Hays                        Precinct 2                                             01 
00100020003000094000001000056000037000000000000000000000000000000000000000000000000000000000000000000DEM       Commissioner of Agriculture                             DEM Susan Hays                        Precinct 3                                             01 
00100020004000031000000000015000016000000000000000000000000000000000000000000000000000000000000000000DEM       Commissioner of Agriculture                             DEM Susan Hays                        Precinct 4                                             01 
00100020005000070000000000044000026000000000000000000000000000000000000000000000000000000000000000000DEM       Commissioner of Agriculture                             DEM Susan Hays                        Precinct 5                                             01 
00100030001000000000000000000000000000000000000000000000000000000000000000000000000000000000000000000          Commissioner of Agriculture                             OVER VOTES                            Precinct 1                                             01 
00100030002000000000000000000000000000000000000000000000000000000000000000000000000000000000000000000          Commissioner of Agriculture                             OVER VOTES                            Precinct 2                                             01 
00100030003000000000000000000000000000000000000000000000000000000000000000000000000000000000000000000          Commissioner of Agriculture                             OVER VOTES                            Precinct 3                                             01 
00100030004000000000000000000000000000000000000000000000000000000000000000000000000000000000000000000          Commissioner of Agriculture                             OVER VOTES                            Precinct 4                                             01 
00100030005000000000000000000000000000000000000000000000000000000000000000000000000000000000000000000          Commissioner of Agriculture                             OVER VOTES                            Precinct 5                                             01 
00100040001000006000000000003000003000000000000000000000000000000000000000000000000000000000000000000          Commissioner of Agriculture                             UNDER VOTES                           Precinct 1                                             01 
00100040002000013000000000009000004000000000000000000000000000000000000000000000000000000000000000000          Commissioner of Agriculture                             UNDER VOTES                           Precinct 2                                             01 
00100040003000004000000000003000001000000000000000000000000000000000000000000000000000000000000000000          Commissioner of Agriculture                             UNDER VOTES                           Precinct 3                                             01 
00100040004000001000000000000000001000000000000000000000000000000000000000000000000000000000000000000          Commissioner of Agriculture                             UNDER VOTES                           Precinct 4                                             01 
00100040005000006000000000005000001000000000000000000000000000000000000000000000000000000000000000000          Commissioner of Agriculture                             UNDER VOTES                           Precinct 5                                             01 
00110010001000155000010000106000039000000000000000000000000000000000000000000000000000000000000000000REP       Railroad Commissioner                                   REP Wayne Christian                   Precinct 1                                             01 
00110010002000123000006000076000041000000000000000000000000000000000000000000000000000000000000000000REP       Railroad Commissioner                                   REP Wayne Christian                   Precinct 2                                             01 
00110010003000148000004000102000042000000000000000000000000000000000000000000000000000000000000000000REP       Railroad Commissioner                                   REP Wayne Christian                   Precinct 3                                             01 
00110010004000067000000000046000021000000000000000000000000000000000000000000000000000000000000000000REP       Railroad Commissioner                                   REP Wayne Christian                   Precinct 4                                             01 
00110010005000097000002000049000046000000000000000000000000000000000000000000000000000000000000000000REP       Railroad Commissioner                                   REP Wayne Christian                   Precinct 5                                             01 
00110020001000110000009000085000016000000000000000000000000000000000000000000000000000000000000000000DEM       Railroad Commissioner                                   DEM Luke Warford                      Precinct 1                                             01 
00110020002000080000004000045000031000000000000000000000000000000000000000000000000000000000000000000DEM       Railroad Commissioner                                   DEM Luke Warford                      Precinct 2                                             01 
00110020003000083000001000051000031000000000000000000000000000000000000000000000000000000000000000000DEM       Railroad Commissioner                                   DEM Luke Warford                      Precinct 3                                             01 
00110020004000031000000000015000016000000000000000000000000000000000000000000000000000000000000000000DEM       Railroad Commissioner                                   DEM Luke Warford                      Precinct 4                                             01 
00110020005000065000000000044000021000000000000000000000000000000000000000000000000000000000000000000DEM       Railroad Commissioner                                   DEM Luke Warford                      Precinct 5                                             01 
00110030001000019000000000014000005000000000000000000000000000000000000000000000000000000000000000000LIB       Railroad Commissioner                                   LIB Jaime Andres Diez                 Precinct 1                                             01 
00110030002000009000001000004000004000000000000000000000000000000000000000000000000000000000000000000LIB       Railroad Commissioner                                   LIB Jaime Andres Diez                 Precinct 2                                             01 
00110030003000009000000000004000005000000000000000000000000000000000000000000000000000000000000000000LIB       Railroad Commissioner                                   LIB Jaime Andres Diez                 Precinct 3                                             01 
00110030004000004000000000000000004000000000000000000000000000000000000000000000000000000000000000000LIB       Railroad Commissioner                                   LIB Jaime Andres Diez                 Precinct 4                                             01 
00110030005000005000000000001000004000000000000000000000000000000000000000000000000000000000000000000LIB       Railroad Commissioner                                   LIB Jaime Andres Diez                 Precinct 5                                             01 
00110040001000003000000000002000001000000000000000000000000000000000000000000000000000000000000000000GRN       Railroad Commissioner                                   GRN Hunter Wayne Crow                 Precinct 1                                             01 
00110040002000001000000000001000000000000000000000000000000000000000000000000000000000000000000000000GRN       Railroad Commissioner                                   GRN Hunter Wayne Crow                 Precinct 2                                             01 
00110040003000003000000000003000000000000000000000000000000000000000000000000000000000000000000000000GRN       Railroad Commissioner                                   GRN Hunter Wayne Crow                 Precinct 3                                             01 
00110040004000003000000000002000001000000000000000000000000000000000000000000000000000000000000000000GRN       Railroad Commissioner                                   GRN Hunter Wayne Crow                 Precinct 4                                             01 
00110040005000004000000000002000002000000000000000000000000000000000000000000000000000000000000000000GRN       Railroad Commissioner                                   GRN Hunter Wayne Crow                 Precinct 5                                             01 
00110050001000000000000000000000000000000000000000000000000000000000000000000000000000000000000000000          Railroad Commissioner                                   OVER VOTES                            Precinct 1                                             01 
00110050002000000000000000000000000000000000000000000000000000000000000000000000000000000000000000000          Railroad Commissioner                                   OVER VOTES                            Precinct 2                                             01 
00110050003000000000000000000000000000000000000000000000000000000000000000000000000000000000000000000          Railroad Commissioner                                   OVER VOTES                            Precinct 3                                             01 
00110050004000000000000000000000000000000000000000000000000000000000000000000000000000000000000000000          Railroad Commissioner                                   OVER VOTES                            Precinct 4                                             01 
00110050005000000000000000000000000000000000000000000000000000000000000000000000000000000000000000000          Railroad Commissioner                                   OVER VOTES                            Precinct 5                                             01 
00110060001000003000000000002000001000000000000000000000000000000000000000000000000000000000000000000          Railroad Commissioner                                   UNDER VOTES                           Precinct 1                                             01 
00110060002000014000000000009000005000000000000000000000000000000000000000000000000000000000000000000          Railroad Commissioner                                   UNDER VOTES                           Precinct 2                                             01 
00110060003000008000000000003000005000000000000000000000000000000000000000000000000000000000000000000          Railroad Commissioner                                   UNDER VOTES                           Precinct 3                                             01 
00110060004000003000000000003000000000000000000000000000000000000000000000000000000000000000000000000          Railroad Commissioner                                   UNDER VOTES                           Precinct 4                                             01 
00110060005000007000000000004000003000000000000000000000000000000000000000000000000000000000000000000          Railroad Commissioner                                   UNDER VOTES                           Precinct 5                                             01 
00120010001000164000010000116000038000000000000000000000000000000000000000000000000000000000000000000REP       Justice, Supreme Ct. Pl. 3                              REP Debra Lehrmann                    Precinct 1                                             01 
00120010002000127000008000078000041000000000000000000000000000000000000000000000000000000000000000000REP       Justice, Supreme Ct. Pl. 3                              REP Debra Lehrmann                    Precinct 2                                             01 
00120010003000147000004000104000039000000000000000000000000000000000000000000000000000000000000000000REP       Justice, Supreme Ct. Pl. 3                              REP Debra Lehrmann                    Precinct 3                                             01 
00120010004000073000000000049000024000000000000000000000000000000000000000000000000000000000000000000REP       Justice, Supreme Ct. Pl. 3                              REP Debra Lehrmann                    Precinct 4                                             01 
00120010005000102000002000050000050000000000000000000000000000000000000000000000000000000000000000000REP       Justice, Supreme Ct. Pl. 3                              REP Debra Lehrmann                    Precinct 5                                             01 
00120020001000107000009000083000015000000000000000000000000000000000000000000000000000000000000000000DEM       Justice, Supreme Ct. Pl. 3                              DEM Erin A. Nowell                    Precinct 1                                             01 
00120020002000076000003000043000030000000000000000000000000000000000000000000000000000000000000000000DEM       Justice, Supreme Ct. Pl. 3                              DEM Erin A. Nowell                    Precinct 2                                             01 
00120020003000087000001000052000034000000000000000000000000000000000000000000000000000000000000000000DEM       Justice, Supreme Ct. Pl. 3                              DEM Erin A. Nowell                    Precinct 3                                             01 
00120020004000032000000000015000017000000000000000000000000000000000000000000000000000000000000000000DEM       Justice, Supreme Ct. Pl. 3                              DEM Erin A. Nowell                    Precinct 4                                             01 
00120020005000065000000000044000021000000000000000000000000000000000000000000000000000000000000000000DEM       Justice, Supreme Ct. Pl. 3                              DEM Erin A. Nowell                    Precinct 5                                             01 
00120030001000014000000000008000006000000000000000000000000000000000000000000000000000000000000000000LIB       Justice, Supreme Ct. Pl. 3                              LIB Thomas Edward Oxford              Precinct 1                                             01 
00120030002000008000000000003000005000000000000000000000000000000000000000000000000000000000000000000LIB       Justice, Supreme Ct. Pl. 3                              LIB Thomas Edward Oxford              Precinct 2                                             01 
00120030003000009000000000004000005000000000000000000000000000000000000000000000000000000000000000000LIB       Justice, Supreme Ct. Pl. 3                              LIB Thomas Edward Oxford              Precinct 3                                             01 
00120030004000002000000000001000001000000000000000000000000000000000000000000000000000000000000000000LIB       Justice, Supreme Ct. Pl. 3                              LIB Thomas Edward Oxford              Precinct 4                                             01 
00120030005000005000000000002000003000000000000000000000000000000000000000000000000000000000000000000LIB       Justice, Supreme Ct. Pl. 3                              LIB Thomas Edward Oxford              Precinct 5                                             01 
00120040001000000000000000000000000000000000000000000000000000000000000000000000000000000000000000000          Justice, Supreme Ct. Pl. 3                              OVER VOTES                            Precinct 1                                             01 
00120040002000000000000000000000000000000000000000000000000000000000000000000000000000000000000000000          Justice, Supreme Ct. Pl. 3                              OVER VOTES                            Precinct 2                                             01 
00120040003000000000000000000000000000000000000000000000000000000000000000000000000000000000000000000          Justice, Supreme Ct. Pl. 3                              OVER VOTES                            Precinct 3                                             01 
00120040004000000000000000000000000000000000000000000000000000000000000000000000000000000000000000000          Justice, Supreme Ct. Pl. 3                              OVER VOTES                            Precinct 4                                             01 
00120040005000000000000000000000000000000000000000000000000000000000000000000000000000000000000000000          Justice, Supreme Ct. Pl. 3                              OVER VOTES                            Precinct 5                                             01 
00120050001000005000000000002000003000000000000000000000000000000000000000000000000000000000000000000          Justice, Supreme Ct. Pl. 3                              UNDER VOTES                           Precinct 1                                             01 
00120050002000016000000000011000005000000000000000000000000000000000000000000000000000000000000000000          Justice, Supreme Ct. Pl. 3                              UNDER VOTES                           Precinct 2                                             01 
00120050003000008000000000003000005000000000000000000000000000000000000000000000000000000000000000000          Justice, Supreme Ct. Pl. 3                              UNDER VOTES                           Precinct 3                                             01 
00120050004000001000000000001000000000000000000000000000000000000000000000000000000000000000000000000          Justice, Supreme Ct. Pl. 3                              UNDER VOTES                           Precinct 4                                             01 
00120050005000006000000000004000002000000000000000000000000000000000000000000000000000000000000000000          Justice, Supreme Ct. Pl. 3                              UNDER VOTES                           Precinct 5                                             01 
00130010001000168000010000116000042000000000000000000000000000000000000000000000000000000000000000000REP       Justice, Supreme Ct. Pl. 5                              REP Rebeca Huddle                     Precinct 1                                             01 
00130010002000133000007000082000044000000000000000000000000000000000000000000000000000000000000000000REP       Justice, Supreme Ct. Pl. 5                              REP Rebeca Huddle                     Precinct 2                                             01 
00130010003000152000004000107000041000000000000000000000000000000000000000000000000000000000000000000REP       Justice, Supreme Ct. Pl. 5                              REP Rebeca Huddle                     Precinct 3                                             01 
00130010004000074000000000049000025000000000000000000000000000000000000000000000000000000000000000000REP       Justice, Supreme Ct. Pl. 5                              REP Rebeca Huddle                     Precinct 4                                             01 
00130010005000105000002000052000051000000000000000000000000000000000000000000000000000000000000000000REP       Justice, Supreme Ct. Pl. 5                              REP Rebeca Huddle                     Precinct 5                                             01 
00130020001000113000009000088000016000000000000000000000000000000000000000000000000000000000000000000DEM       Justice, Supreme Ct. Pl. 5                              DEM Amanda Reichek                    Precinct 1                                             01 
00130020002000078000004000042000032000000000000000000000000000000000000000000000000000000000000000000DEM       Justice, Supreme Ct. Pl. 5                              DEM Amanda Reichek                    Precinct 2                                             01 
00130020003000089000001000052000036000000000000000000000000000000000000000000000000000000000000000000DEM       Justice, Supreme Ct. Pl. 5                              DEM Amanda Reichek                    Precinct 3                                             01 
00130020004000033000000000016000017000000000000000000000000000000000000000000000000000000000000000000DEM       Justice, Supreme Ct. Pl. 5                              DEM Amanda Reichek                    Precinct 4                                             01 
00130020005000066000000000043000023000000000000000000000000000000000000000000000000000000000000000000DEM       Justice, Supreme Ct. Pl. 5                              DEM Amanda Reichek                    Precinct 5                                             01 
00130030001000000000000000000000000000000000000000000000000000000000000000000000000000000000000000000          Justice, Supreme Ct. Pl. 5                              OVER VOTES                            Precinct 1                                             01 
00130030002000000000000000000000000000000000000000000000000000000000000000000000000000000000000000000          Justice, Supreme Ct. Pl. 5                              OVER VOTES                            Precinct 2                                             01 
00130030003000000000000000000000000000000000000000000000000000000000000000000000000000000000000000000          Justice, Supreme Ct. Pl. 5                              OVER VOTES                            Precinct 3                                             01 
00130030004000000000000000000000000000000000000000000000000000000000000000000000000000000000000000000          Justice, Supreme Ct. Pl. 5                              OVER VOTES                            Precinct 4                                             01 
00130030005000000000000000000000000000000000000000000000000000000000000000000000000000000000000000000          Justice, Supreme Ct. Pl. 5                              OVER VOTES                            Precinct 5                                             01 
00130040001000009000000000005000004000000000000000000000000000000000000000000000000000000000000000000          Justice, Supreme Ct. Pl. 5                              UNDER VOTES                           Precinct 1                                             01 
00130040002000016000000000011000005000000000000000000000000000000000000000000000000000000000000000000          Justice, Supreme Ct. Pl. 5                              UNDER VOTES                           Precinct 2                                             01 
00130040003000010000000000004000006000000000000000000000000000000000000000000000000000000000000000000          Justice, Supreme Ct. Pl. 5                              UNDER VOTES                           Precinct 3                                             01 
00130040004000001000000000001000000000000000000000000000000000000000000000000000000000000000000000000          Justice, Supreme Ct. Pl. 5                              UNDER VOTES                           Precinct 4                                             01 
00130040005000007000000000005000002000000000000000000000000000000000000000000000000000000000000000000          Justice, Supreme Ct. Pl. 5                              UNDER VOTES                           Precinct 5                                             01 
00140010001000168000010000115000043000000000000000000000000000000000000000000000000000000000000000000REP       Justice, Supreme Ct. Pl. 9                              REP Evan Young                        Precinct 1                                             01 
00140010002000127000007000078000042000000000000000000000000000000000000000000000000000000000000000000REP       Justice, Supreme Ct. Pl. 9                              REP Evan Young                        Precinct 2                                             01 
00140010003000152000004000106000042000000000000000000000000000000000000000000000000000000000000000000REP       Justice, Supreme Ct. Pl. 9                              REP Evan Young                        Precinct 3                                             01 
00140010004000075000000000050000025000000000000000000000000000000000000000000000000000000000000000000REP       Justice, Supreme Ct. Pl. 9                              REP Evan Young                        Precinct 4                                             01 
00140010005000105000002000051000052000000000000000000000000000000000000000000000000000000000000000000REP       Justice, Supreme Ct. Pl. 9                              REP Evan Young                        Precinct 5                                             01 
00140020001000113000009000089000015000000000000000000000000000000000000000000000000000000000000000000DEM       Justice, Supreme Ct. Pl. 9                              DEM Julia Maldonado                   Precinct 1                                             01 
00140020002000085000004000047000034000000000000000000000000000000000000000000000000000000000000000000DEM       Justice, Supreme Ct. Pl. 9                              DEM Julia Maldonado                   Precinct 2                                             01 
00140020003000091000001000054000036000000000000000000000000000000000000000000000000000000000000000000DEM       Justice, Supreme Ct. Pl. 9                              DEM Julia Maldonado                   Precinct 3                                             01 
00140020004000032000000000015000017000000000000000000000000000000000000000000000000000000000000000000DEM       Justice, Supreme Ct. Pl. 9                              DEM Julia Maldonado                   Precinct 4                                             01 
00140020005000066000000000044000022000000000000000000000000000000000000000000000000000000000000000000DEM       Justice, Supreme Ct. Pl. 9                              DEM Julia Maldonado                   Precinct 5                                             01 
00140030001000000000000000000000000000000000000000000000000000000000000000000000000000000000000000000          Justice, Supreme Ct. Pl. 9                              OVER VOTES                            Precinct 1                                             01 
00140030002000000000000000000000000000000000000000000000000000000000000000000000000000000000000000000          Justice, Supreme Ct. Pl. 9                              OVER VOTES                            Precinct 2                                             01 
00140030003000000000000000000000000000000000000000000000000000000000000000000000000000000000000000000          Justice, Supreme Ct. Pl. 9                              OVER VOTES                            Precinct 3                                             01 
00140030004000000000000000000000000000000000000000000000000000000000000000000000000000000000000000000          Justice, Supreme Ct. Pl. 9                              OVER VOTES                            Precinct 4                                             01 
00140030005000000000000000000000000000000000000000000000000000000000000000000000000000000000000000000          Justice, Supreme Ct. Pl. 9                              OVER VOTES                            Precinct 5                                             01 
00140040001000009000000000005000004000000000000000000000000000000000000000000000000000000000000000000          Justice, Supreme Ct. Pl. 9                              UNDER VOTES                           Precinct 1                                             01 
00140040002000015000000000010000005000000000000000000000000000000000000000000000000000000000000000000          Justice, Supreme Ct. Pl. 9                              UNDER VOTES                           Precinct 2                                             01 
00140040003000008000000000003000005000000000000000000000000000000000000000000000000000000000000000000          Justice, Supreme Ct. Pl. 9                              UNDER VOTES                           Precinct 3                                             01 
00140040004000001000000000001000000000000000000000000000000000000000000000000000000000000000000000000          Justice, Supreme Ct. Pl. 9                              UNDER VOTES                           Precinct 4                                             01 
00140040005000007000000000005000002000000000000000000000000000000000000000000000000000000000000000000          Justice, Supreme Ct. Pl. 9                              UNDER VOTES                           Precinct 5                                             01 
00150010001000168000010000115000043000000000000000000000000000000000000000000000000000000000000000000REP       Judge, Ct of Crim. Appeals, Pl 5                        REP Scott Walker                      Precinct 1                                             01 
00150010002000132000007000080000045000000000000000000000000000000000000000000000000000000000000000000REP       Judge, Ct of Crim. Appeals, Pl 5                        REP Scott Walker                      Precinct 2                                             01 
00150010003000152000004000106000042000000000000000000000000000000000000000000000000000000000000000000REP       Judge, Ct of Crim. Appeals, Pl 5                        REP Scott Walker                      Precinct 3                                             01 
00150010004000072000000000049000023000000000000000000000000000000000000000000000000000000000000000000REP       Judge, Ct of Crim. Appeals, Pl 5                        REP Scott Walker                      Precinct 4                                             01 
00150010005000104000002000051000051000000000000000000000000000000000000000000000000000000000000000000REP       Judge, Ct of Crim. Appeals, Pl 5                        REP Scott Walker                      Precinct 5                                             01 
00150020001000114000009000089000016000000000000000000000000000000000000000000000000000000000000000000DEM       Judge, Ct of Crim. Appeals, Pl 5                        DEM Dana Huffman                      Precinct 1                                             01 
00150020002000079000004000044000031000000000000000000000000000000000000000000000000000000000000000000DEM       Judge, Ct of Crim. Appeals, Pl 5                        DEM Dana Huffman                      Precinct 2                                             01 
00150020003000092000001000054000037000000000000000000000000000000000000000000000000000000000000000000DEM       Judge, Ct of Crim. Appeals, Pl 5                        DEM Dana Huffman                      Precinct 3                                             01 
00150020004000035000000000016000019000000000000000000000000000000000000000000000000000000000000000000DEM       Judge, Ct of Crim. Appeals, Pl 5                        DEM Dana Huffman                      Precinct 4                                             01 
00150020005000067000000000045000022000000000000000000000000000000000000000000000000000000000000000000DEM       Judge, Ct of Crim. Appeals, Pl 5                        DEM Dana Huffman                      Precinct 5                                             01 
00150030001000000000000000000000000000000000000000000000000000000000000000000000000000000000000000000          Judge, Ct of Crim. Appeals, Pl 5                        OVER VOTES                            Precinct 1                                             01 
00150030002000000000000000000000000000000000000000000000000000000000000000000000000000000000000000000          Judge, Ct of Crim. Appeals, Pl 5                        OVER VOTES                            Precinct 2                                             01 
00150030003000000000000000000000000000000000000000000000000000000000000000000000000000000000000000000          Judge, Ct of Crim. Appeals, Pl 5                        OVER VOTES                            Precinct 3                                             01 
00150030004000000000000000000000000000000000000000000000000000000000000000000000000000000000000000000          Judge, Ct of Crim. Appeals, Pl 5                        OVER VOTES                            Precinct 4                                             01 
00150030005000000000000000000000000000000000000000000000000000000000000000000000000000000000000000000          Judge, Ct of Crim. Appeals, Pl 5                        OVER VOTES                            Precinct 5                                             01 
00150040001000008000000000005000003000000000000000000000000000000000000000000000000000000000000000000          Judge, Ct of Crim. Appeals, Pl 5                        UNDER VOTES                           Precinct 1                                             01 
00150040002000016000000000011000005000000000000000000000000000000000000000000000000000000000000000000          Judge, Ct of Crim. Appeals, Pl 5                        UNDER VOTES                           Precinct 2                                             01 
00150040003000007000000000003000004000000000000000000000000000000000000000000000000000000000000000000          Judge, Ct of Crim. Appeals, Pl 5                        UNDER VOTES                           Precinct 3                                             01 
00150040004000001000000000001000000000000000000000000000000000000000000000000000000000000000000000000          Judge, Ct of Crim. Appeals, Pl 5                        UNDER VOTES                           Precinct 4                                             01 
00150040005000007000000000004000003000000000000000000000000000000000000000000000000000000000000000000          Judge, Ct of Crim. Appeals, Pl 5                        UNDER VOTES                           Precinct 5                                             01 
00160010001000167000010000114000043000000000000000000000000000000000000000000000000000000000000000000REP       Judge, Ct of Crim. Appeals, Pl 6                        REP Jesse F. McClure, III             Precinct 1                                             01 
00160010002000131000007000081000043000000000000000000000000000000000000000000000000000000000000000000REP       Judge, Ct of Crim. Appeals, Pl 6                        REP Jesse F. McClure, III             Precinct 2                                             01 
00160010003000153000004000105000044000000000000000000000000000000000000000000000000000000000000000000REP       Judge, Ct of Crim. Appeals, Pl 6                        REP Jesse F. McClure, III             Precinct 3                                             01 
00160010004000074000000000051000023000000000000000000000000000000000000000000000000000000000000000000REP       Judge, Ct of Crim. Appeals, Pl 6                        REP Jesse F. McClure, III             Precinct 4                                             01 
00160010005000100000002000048000050000000000000000000000000000000000000000000000000000000000000000000REP       Judge, Ct of Crim. Appeals, Pl 6                        REP Jesse F. McClure, III             Precinct 5                                             01 
00160020001000113000009000088000016000000000000000000000000000000000000000000000000000000000000000000DEM       Judge, Ct of Crim. Appeals, Pl 6                        DEM Robert Johnson                    Precinct 1                                             01 
00160020002000079000004000043000032000000000000000000000000000000000000000000000000000000000000000000DEM       Judge, Ct of Crim. Appeals, Pl 6                        DEM Robert Johnson                    Precinct 2                                             01 
00160020003000090000001000054000035000000000000000000000000000000000000000000000000000000000000000000DEM       Judge, Ct of Crim. Appeals, Pl 6                        DEM Robert Johnson                    Precinct 3                                             01 
00160020004000033000000000015000018000000000000000000000000000000000000000000000000000000000000000000DEM       Judge, Ct of Crim. Appeals, Pl 6                        DEM Robert Johnson                    Precinct 4                                             01 
00160020005000068000000000046000022000000000000000000000000000000000000000000000000000000000000000000DEM       Judge, Ct of Crim. Appeals, Pl 6                        DEM Robert Johnson                    Precinct 5                                             01 
00160030001000000000000000000000000000000000000000000000000000000000000000000000000000000000000000000          Judge, Ct of Crim. Appeals, Pl 6                        OVER VOTES                            Precinct 1                                             01 
00160030002000000000000000000000000000000000000000000000000000000000000000000000000000000000000000000          Judge, Ct of Crim. Appeals, Pl 6                        OVER VOTES                            Precinct 2                                             01 
00160030003000000000000000000000000000000000000000000000000000000000000000000000000000000000000000000          Judge, Ct of Crim. Appeals, Pl 6                        OVER VOTES                            Precinct 3                                             01 
00160030004000000000000000000000000000000000000000000000000000000000000000000000000000000000000000000          Judge, Ct of Crim. Appeals, Pl 6                        OVER VOTES                            Precinct 4                                             01 
00160030005000000000000000000000000000000000000000000000000000000000000000000000000000000000000000000          Judge, Ct of Crim. Appeals, Pl 6                        OVER VOTES                            Precinct 5                                             01 
00160040001000010000000000007000003000000000000000000000000000000000000000000000000000000000000000000          Judge, Ct of Crim. Appeals, Pl 6                        UNDER VOTES                           Precinct 1                                             01 
00160040002000017000000000011000006000000000000000000000000000000000000000000000000000000000000000000          Judge, Ct of Crim. Appeals, Pl 6                        UNDER VOTES                           Precinct 2                                             01 
00160040003000008000000000004000004000000000000000000000000000000000000000000000000000000000000000000          Judge, Ct of Crim. Appeals, Pl 6                        UNDER VOTES                           Precinct 3                                             01 
00160040004000001000000000000000001000000000000000000000000000000000000000000000000000000000000000000          Judge, Ct of Crim. Appeals, Pl 6                        UNDER VOTES                           Precinct 4                                             01 
00160040005000010000000000006000004000000000000000000000000000000000000000000000000000000000000000000          Judge, Ct of Crim. Appeals, Pl 6                        UNDER VOTES                           Precinct 5                                             01 
00170010001000163000010000111000042000000000000000000000000000000000000000000000000000000000000000000REP       Member, State Board of Education, District 1            REP Michael "Travis" Stevens          Precinct 1                                             01 
00170010002000122000004000075000043000000000000000000000000000000000000000000000000000000000000000000REP       Member, State Board of Education, District 1            REP Michael "Travis" Stevens          Precinct 2                                             01 
00170010003000151000003000105000043000000000000000000000000000000000000000000000000000000000000000000REP       Member, State Board of Education, District 1            REP Michael "Travis" Stevens          Precinct 3                                             01 
00170010004000074000000000049000025000000000000000000000000000000000000000000000000000000000000000000REP       Member, State Board of Education, District 1            REP Michael "Travis" Stevens          Precinct 4                                             01 
00170010005000100000002000049000049000000000000000000000000000000000000000000000000000000000000000000REP       Member, State Board of Education, District 1            REP Michael "Travis" Stevens          Precinct 5                                             01 
00170020001000119000009000093000017000000000000000000000000000000000000000000000000000000000000000000DEM       Member, State Board of Education, District 1            DEM Melissa N. Ortega                 Precinct 1                                             01 
00170020002000084000003000048000033000000000000000000000000000000000000000000000000000000000000000000DEM       Member, State Board of Education, District 1            DEM Melissa N. Ortega                 Precinct 2                                             01 
00170020003000091000001000054000036000000000000000000000000000000000000000000000000000000000000000000DEM       Member, State Board of Education, District 1            DEM Melissa N. Ortega                 Precinct 3                                             01 
00170020004000034000000000017000017000000000000000000000000000000000000000000000000000000000000000000DEM       Member, State Board of Education, District 1            DEM Melissa N. Ortega                 Precinct 4                                             01 
00170020005000068000000000046000022000000000000000000000000000000000000000000000000000000000000000000DEM       Member, State Board of Education, District 1            DEM Melissa N. Ortega                 Precinct 5                                             01 
00170030001000000000000000000000000000000000000000000000000000000000000000000000000000000000000000000          Member, State Board of Education, District 1            OVER VOTES                            Precinct 1                                             01 
00170030002000000000000000000000000000000000000000000000000000000000000000000000000000000000000000000          Member, State Board of Education, District 1            OVER VOTES                            Precinct 2                                             01 
00170030003000000000000000000000000000000000000000000000000000000000000000000000000000000000000000000          Member, State Board of Education, District 1            OVER VOTES                            Precinct 3                                             01 
00170030004000000000000000000000000000000000000000000000000000000000000000000000000000000000000000000          Member, State Board of Education, District 1            OVER VOTES                            Precinct 4                                             01 
00170030005000000000000000000000000000000000000000000000000000000000000000000000000000000000000000000          Member, State Board of Education, District 1            OVER VOTES                            Precinct 5                                             01 
00170040001000008000000000005000003000000000000000000000000000000000000000000000000000000000000000000          Member, State Board of Education, District 1            UNDER VOTES                           Precinct 1                                             01 
00170040002000021000004000012000005000000000000000000000000000000000000000000000000000000000000000000          Member, State Board of Education, District 1            UNDER VOTES                           Precinct 2                                             01 
00170040003000009000001000004000004000000000000000000000000000000000000000000000000000000000000000000          Member, State Board of Education, District 1            UNDER VOTES                           Precinct 3                                             01 
00170040004000000000000000000000000000000000000000000000000000000000000000000000000000000000000000000          Member, State Board of Education, District 1            UNDER VOTES                           Precinct 4                                             01 
00170040005000010000000000005000005000000000000000000000000000000000000000000000000000000000000000000          Member, State Board of Education, District 1            UNDER VOTES                           Precinct 5                                             01 
00180010001000165000010000114000041000000000000000000000000000000000000000000000000000000000000000000REP       State Senator, District 29                              REP Derek L. Zubeldia                 Precinct 1                                             01 
00180010002000125000004000076000045000000000000000000000000000000000000000000000000000000000000000000REP       State Senator, District 29                              REP Derek L. Zubeldia                 Precinct 2                                             01 
00180010003000151000003000104000044000000000000000000000000000000000000000000000000000000000000000000REP       State Senator, District 29                              REP Derek L. Zubeldia                 Precinct 3                                             01 
00180010004000070000000000047000023000000000000000000000000000000000000000000000000000000000000000000REP       State Senator, District 29                              REP Derek L. Zubeldia                 Precinct 4                                             01 
00180010005000101000002000050000049000000000000000000000000000000000000000000000000000000000000000000REP       State Senator, District 29                              REP Derek L. Zubeldia                 Precinct 5                                             01 
00180020001000118000009000092000017000000000000000000000000000000000000000000000000000000000000000000DEM       State Senator, District 29                              DEM Cesar J. Blanco                   Precinct 1                                             01 
00180020002000083000003000049000031000000000000000000000000000000000000000000000000000000000000000000DEM       State Senator, District 29                              DEM Cesar J. Blanco                   Precinct 2                                             01 
00180020003000091000001000055000035000000000000000000000000000000000000000000000000000000000000000000DEM       State Senator, District 29                              DEM Cesar J. Blanco                   Precinct 3                                             01 
00180020004000038000000000019000019000000000000000000000000000000000000000000000000000000000000000000DEM       State Senator, District 29                              DEM Cesar J. Blanco                   Precinct 4                                             01 
00180020005000067000000000045000022000000000000000000000000000000000000000000000000000000000000000000DEM       State Senator, District 29                              DEM Cesar J. Blanco                   Precinct 5                                             01 
00180030001000000000000000000000000000000000000000000000000000000000000000000000000000000000000000000          State Senator, District 29                              OVER VOTES                            Precinct 1                                             01 
00180030002000000000000000000000000000000000000000000000000000000000000000000000000000000000000000000          State Senator, District 29                              OVER VOTES                            Precinct 2                                             01 
00180030003000000000000000000000000000000000000000000000000000000000000000000000000000000000000000000          State Senator, District 29                              OVER VOTES                            Precinct 3                                             01 
00180030004000000000000000000000000000000000000000000000000000000000000000000000000000000000000000000          State Senator, District 29                              OVER VOTES                            Precinct 4                                             01 
00180030005000000000000000000000000000000000000000000000000000000000000000000000000000000000000000000          State Senator, District 29                              OVER VOTES                            Precinct 5                                             01 
00180040001000007000000000003000004000000000000000000000000000000000000000000000000000000000000000000          State Senator, District 29                              UNDER VOTES                           Precinct 1                                             01 
00180040002000019000004000010000005000000000000000000000000000000000000000000000000000000000000000000          State Senator, District 29                              UNDER VOTES                           Precinct 2                                             01 
00180040003000009000001000004000004000000000000000000000000000000000000000000000000000000000000000000          State Senator, District 29                              UNDER VOTES                           Precinct 3                                             01 
00180040004000000000000000000000000000000000000000000000000000000000000000000000000000000000000000000          State Senator, District 29                              UNDER VOTES                           Precinct 4                                             01 
00180040005000010000000000005000005000000000000000000000000000000000000000000000000000000000000000000          State Senator, District 29                              UNDER VOTES                           Precinct 5                                             01 
00190010001000168000010000113000045000000000000000000000000000000000000000000000000000000000000000000REP       State Representative, District 74                       REP Katherine Parker                  Precinct 1                                             01 
00190010002000133000004000083000046000000000000000000000000000000000000000000000000000000000000000000REP       State Representative, District 74                       REP Katherine Parker                  Precinct 2                                             01 
