01020010001000880          BALLOTS CAST - TOTAL                                    BALLOTS CAST - TOTAL                  PRECINCT 1                                             00 
01020010002001216          BALLOTS CAST - TOTAL                                    BALLOTS CAST - TOTAL                  PRECINCT 2                                             00 
01020010003001472          BALLOTS CAST - TOTAL                                    BALLOTS CAST - TOTAL                  PRECINCT 3                                             00 
01020010004001439          BALLOTS CAST - TOTAL                                    BALLOTS CAST - TOTAL                  PRECINCT 4                                             00 
01030010001000716REP       US Representative, District 19                          Jodey C. Arrington                    PRECINCT 1                                             01 
01030010002001048REP       US Representative, District 19                          Jodey C. Arrington                    PRECINCT 2                                             01 
01030010003001309REP       US Representative, District 19                          Jodey C. Arrington                    PRECINCT 3                                             01 
01030010004001266REP       US Representative, District 19                          Jodey C. Arrington                    PRECINCT 4                                             01 
01030020001000127IND       US Representative, District 19                          Nathan Lewis                          PRECINCT 1                                             01 
01030020002000133IND       US Representative, District 19                          Nathan Lewis                          PRECINCT 2                                             01 
01030020003000136IND       US Representative, District 19                          Nathan Lewis                          PRECINCT 3                                             01 
01030020004000152IND       US Representative, District 19                          Nathan Lewis                          PRECINCT 4                                             01 
01030030001000000          US Representative, District 19                          OVER VOTES                            PRECINCT 1                                             01 
01030030002000000          US Representative, District 19                          OVER VOTES                            PRECINCT 2                                             01 
01030030003000000          US Representative, District 19                          OVER VOTES                            PRECINCT 3                                             01 
01030030004000000          US Representative, District 19                          OVER VOTES                            PRECINCT 4                                             01 
01030040001000037          US Representative, District 19                          UNDER VOTES                           PRECINCT 1                                             01 
01030040002000035          US Representative, District 19                          UNDER VOTES                           PRECINCT 2                                             01 
01030040003000027          US Representative, District 19                          UNDER VOTES                           PRECINCT 3                                             01 
01030040004000021          US Representative, District 19                          UNDER VOTES                           PRECINCT 4                                             01 
01040010001000716REP       Governor                                                Greg Abbott                           PRECINCT 1                                             01 
01040010002001036REP       Governor                                                Greg Abbott                           PRECINCT 2                                             01 
01040010003001326REP       Governor                                                Greg Abbott                           PRECINCT 3                                             01 
01040010004001271REP       Governor                                                Greg Abbott                           PRECINCT 4                                             01 
01040020001000145DEM       Governor                                                Beto O'Rourke                         PRECINCT 1                                             01 
01040020002000163DEM       Governor                                                Beto O'Rourke                         PRECINCT 2                                             01 
01040020003000120DEM       Governor                                                Beto O'Rourke                         PRECINCT 3                                             01 
01040020004000153DEM       Governor                                                Beto O'Rourke                         PRECINCT 4                                             01 
01040030001000011LIB       Governor                                                Mark Tippetts                         PRECINCT 1                                             01 
01040030002000009LIB       Governor                                                Mark Tippetts                         PRECINCT 2                                             01 
01040030003000020LIB       Governor                                                Mark Tippetts                         PRECINCT 3                                             01 
01040030004000012LIB       Governor                                                Mark Tippetts                         PRECINCT 4                                             01 
01040040001000003GRN       Governor                                                Delilah Barrios                       PRECINCT 1                                             01 
01040040002000002GRN       Governor                                                Delilah Barrios                       PRECINCT 2                                             01 
01040040003000002GRN       Governor                                                Delilah Barrios                       PRECINCT 3                                             01 
01040040004000002GRN       Governor                                                Delilah Barrios                       PRECINCT 4                                             01 
01040050001000000NON       Governor                                                WRITE-IN                              PRECINCT 1                                             01 
01040050002000001NON       Governor                                                WRITE-IN                              PRECINCT 2                                             01 
01040050003000000NON       Governor                                                WRITE-IN                              PRECINCT 3                                             01 
01040050004000000NON       Governor                                                WRITE-IN                              PRECINCT 4                                             01 
01040060001000000          Governor                                                OVER VOTES                            PRECINCT 1                                             01 
01040060002000000          Governor                                                OVER VOTES                            PRECINCT 2                                             01 
01040060003000000          Governor                                                OVER VOTES                            PRECINCT 3                                             01 
01040060004000000          Governor                                                OVER VOTES                            PRECINCT 4                                             01 
01040070001000005          Governor                                                UNDER VOTES                           PRECINCT 1                                             01 
01040070002000005          Governor                                                UNDER VOTES                           PRECINCT 2                                             01 
01040070003000004          Governor                                                UNDER VOTES                           PRECINCT 3                                             01 
01040070004000001          Governor                                                UNDER VOTES                           PRECINCT 4                                             01 
01050010001000705REP       Lieutenant Governor                                     Dan Patrick                           PRECINCT 1                                             01 
01050010002000967REP       Lieutenant Governor                                     Dan Patrick                           PRECINCT 2                                             01 
01050010003001296REP       Lieutenant Governor                                     Dan Patrick                           PRECINCT 3                                             01 
01050010004001247REP       Lieutenant Governor                                     Dan Patrick                           PRECINCT 4                                             01 
01050020001000151DEM       Lieutenant Governor                                     Mike Collier                          PRECINCT 1                                             01 
01050020002000211DEM       Lieutenant Governor                                     Mike Collier                          PRECINCT 2                                             01 
01050020003000126DEM       Lieutenant Governor                                     Mike Collier                          PRECINCT 3                                             01 
01050020004000159DEM       Lieutenant Governor                                     Mike Collier                          PRECINCT 4                                             01 
01050030001000016LIB       Lieutenant Governor                                     Shanna Steele                         PRECINCT 1                                             01 
01050030002000024LIB       Lieutenant Governor                                     Shanna Steele                         PRECINCT 2                                             01 
01050030003000037LIB       Lieutenant Governor                                     Shanna Steele                         PRECINCT 3                                             01 
01050030004000027LIB       Lieutenant Governor                                     Shanna Steele                         PRECINCT 4                                             01 
01050040001000000          Lieutenant Governor                                     OVER VOTES                            PRECINCT 1                                             01 
01050040002000000          Lieutenant Governor                                     OVER VOTES                            PRECINCT 2                                             01 
01050040003000000          Lieutenant Governor                                     OVER VOTES                            PRECINCT 3                                             01 
01050040004000000          Lieutenant Governor                                     OVER VOTES                            PRECINCT 4                                             01 
01050050001000008          Lieutenant Governor                                     UNDER VOTES                           PRECINCT 1                                             01 
01050050002000014          Lieutenant Governor                                     UNDER VOTES                           PRECINCT 2                                             01 
01050050003000013          Lieutenant Governor                                     UNDER VOTES                           PRECINCT 3                                             01 
01050050004000006          Lieutenant Governor                                     UNDER VOTES                           PRECINCT 4                                             01 
01060010001000708REP       Attorney General                                        Ken Paxton                            PRECINCT 1                                             01 
01060010002001006REP       Attorney General                                        Ken Paxton                            PRECINCT 2                                             01 
01060010003001299REP       Attorney General                                        Ken Paxton                            PRECINCT 3                                             01 
01060010004001241REP       Attorney General                                        Ken Paxton                            PRECINCT 4                                             01 
01060020001000151DEM       Attorney General                                        Rochelle Mercedes Garza               PRECINCT 1                                             01 
01060020002000176DEM       Attorney General                                        Rochelle Mercedes Garza               PRECINCT 2                                             01 
01060020003000127DEM       Attorney General                                        Rochelle Mercedes Garza               PRECINCT 3                                             01 
01060020004000171DEM       Attorney General                                        Rochelle Mercedes Garza               PRECINCT 4                                             01 
01060030001000015LIB       Attorney General                                        Mark Ash                              PRECINCT 1                                             01 
01060030002000021LIB       Attorney General                                        Mark Ash                              PRECINCT 2                                             01 
01060030003000031LIB       Attorney General                                        Mark Ash                              PRECINCT 3                                             01 
01060030004000018LIB       Attorney General                                        Mark Ash                              PRECINCT 4                                             01 
01060040001000000          Attorney General                                        OVER VOTES                            PRECINCT 1                                             01 
01060040002000000          Attorney General                                        OVER VOTES                            PRECINCT 2                                             01 
01060040003000000          Attorney General                                        OVER VOTES                            PRECINCT 3                                             01 
01060040004000000          Attorney General                                        OVER VOTES                            PRECINCT 4                                             01 
01060050001000006          Attorney General                                        UNDER VOTES                           PRECINCT 1                                             01 
01060050002000013          Attorney General                                        UNDER VOTES                           PRECINCT 2                                             01 
01060050003000015          Attorney General                                        UNDER VOTES                           PRECINCT 3                                             01 
01060050004000009          Attorney General                                        UNDER VOTES                           PRECINCT 4                                             01 
01070010001000704REP       Comptroller of Public Accounts                          Glenn Hegar                           PRECINCT 1                                             01 
01070010002001024REP       Comptroller of Public Accounts                          Glenn Hegar                           PRECINCT 2                                             01 
01070010003001302REP       Comptroller of Public Accounts                          Glenn Hegar                           PRECINCT 3                                             01 
01070010004001244REP       Comptroller of Public Accounts                          Glenn Hegar                           PRECINCT 4                                             01 
01070020001000147DEM       Comptroller of Public Accounts                          Janet T. Dudding                      PRECINCT 1                                             01 
01070020002000158DEM       Comptroller of Public Accounts                          Janet T. Dudding                      PRECINCT 2                                             01 
01070020003000126DEM       Comptroller of Public Accounts                          Janet T. Dudding                      PRECINCT 3                                             01 
01070020004000154DEM       Comptroller of Public Accounts                          Janet T. Dudding                      PRECINCT 4                                             01 
01070030001000020LIB       Comptroller of Public Accounts                          V. Alonzo Echevarria-Garza            PRECINCT 1                                             01 
01070030002000018LIB       Comptroller of Public Accounts                          V. Alonzo Echevarria-Garza            PRECINCT 2                                             01 
01070030003000022LIB       Comptroller of Public Accounts                          V. Alonzo Echevarria-Garza            PRECINCT 3                                             01 
01070030004000021LIB       Comptroller of Public Accounts                          V. Alonzo Echevarria-Garza            PRECINCT 4                                             01 
01070040001000000          Comptroller of Public Accounts                          OVER VOTES                            PRECINCT 1                                             01 
01070040002000000          Comptroller of Public Accounts                          OVER VOTES                            PRECINCT 2                                             01 
01070040003000000          Comptroller of Public Accounts                          OVER VOTES                            PRECINCT 3                                             01 
01070040004000000          Comptroller of Public Accounts                          OVER VOTES                            PRECINCT 4                                             01 
01070050001000009          Comptroller of Public Accounts                          UNDER VOTES                           PRECINCT 1                                             01 
01070050002000016          Comptroller of Public Accounts                          UNDER VOTES                           PRECINCT 2                                             01 
01070050003000022          Comptroller of Public Accounts                          UNDER VOTES                           PRECINCT 3                                             01 
01070050004000020          Comptroller of Public Accounts                          UNDER VOTES                           PRECINCT 4                                             01 
01080010001000705REP       Commissioner of the General Land Office                 Dawn Buckingham                       PRECINCT 1                                             01 
01080010002001025REP       Commissioner of the General Land Office                 Dawn Buckingham                       PRECINCT 2                                             01 
01080010003001317REP       Commissioner of the General Land Office                 Dawn Buckingham                       PRECINCT 3                                             01 
01080010004001255REP       Commissioner of the General Land Office                 Dawn Buckingham                       PRECINCT 4                                             01 
01080020001000156DEM       Commissioner of the General Land Office                 Jay Kleberg                           PRECINCT 1                                             01 
01080020002000171DEM       Commissioner of the General Land Office                 Jay Kleberg                           PRECINCT 2                                             01 
01080020003000113DEM       Commissioner of the General Land Office                 Jay Kleberg                           PRECINCT 3                                             01 
01080020004000153DEM       Commissioner of the General Land Office                 Jay Kleberg                           PRECINCT 4                                             01 
01080030001000006GRN       Commissioner of the General Land Office                 Alfred Molison, Jr.                   PRECINCT 1                                             01 
01080030002000007GRN       Commissioner of the General Land Office                 Alfred Molison, Jr.                   PRECINCT 2                                             01 
01080030003000021GRN       Commissioner of the General Land Office                 Alfred Molison, Jr.                   PRECINCT 3                                             01 
01080030004000010GRN       Commissioner of the General Land Office                 Alfred Molison, Jr.                   PRECINCT 4                                             01 
01080040001000001NON       Commissioner of the General Land Office                 WRITE-IN                              PRECINCT 1                                             01 
01080040002000001NON       Commissioner of the General Land Office                 WRITE-IN                              PRECINCT 2                                             01 
01080040003000001NON       Commissioner of the General Land Office                 WRITE-IN                              PRECINCT 3                                             01 
01080040004000002NON       Commissioner of the General Land Office                 WRITE-IN                              PRECINCT 4                                             01 
01080050001000000          Commissioner of the General Land Office                 OVER VOTES                            PRECINCT 1                                             01 
01080050002000000          Commissioner of the General Land Office                 OVER VOTES                            PRECINCT 2                                             01 
01080050003000000          Commissioner of the General Land Office                 OVER VOTES                            PRECINCT 3                                             01 
01080050004000000          Commissioner of the General Land Office                 OVER VOTES                            PRECINCT 4                                             01 
01080060001000012          Commissioner of the General Land Office                 UNDER VOTES                           PRECINCT 1                                             01 
01080060002000012          Commissioner of the General Land Office                 UNDER VOTES                           PRECINCT 2                                             01 
01080060003000020          Commissioner of the General Land Office                 UNDER VOTES                           PRECINCT 3                                             01 
01080060004000019          Commissioner of the General Land Office                 UNDER VOTES                           PRECINCT 4                                             01 
01090010001000702REP       Commissioner of Agriculture                             Sid Miller                            PRECINCT 1                                             01 
01090010002001024REP       Commissioner of Agriculture                             Sid Miller                            PRECINCT 2                                             01 
01090010003001316REP       Commissioner of Agriculture                             Sid Miller                            PRECINCT 3                                             01 
01090010004001253REP       Commissioner of Agriculture                             Sid Miller                            PRECINCT 4                                             01 
01090020001000168DEM       Commissioner of Agriculture                             Susan Hays                            PRECINCT 1                                             01 
01090020002000177DEM       Commissioner of Agriculture                             Susan Hays                            PRECINCT 2                                             01 
01090020003000136DEM       Commissioner of Agriculture                             Susan Hays                            PRECINCT 3                                             01 
01090020004000170DEM       Commissioner of Agriculture                             Susan Hays                            PRECINCT 4                                             01 
01090030001000000          Commissioner of Agriculture                             OVER VOTES                            PRECINCT 1                                             01 
01090030002000000          Commissioner of Agriculture                             OVER VOTES                            PRECINCT 2                                             01 
01090030003000000          Commissioner of Agriculture                             OVER VOTES                            PRECINCT 3                                             01 
01090030004000000          Commissioner of Agriculture                             OVER VOTES                            PRECINCT 4                                             01 
01090040001000010          Commissioner of Agriculture                             UNDER VOTES                           PRECINCT 1                                             01 
01090040002000015          Commissioner of Agriculture                             UNDER VOTES                           PRECINCT 2                                             01 
01090040003000020          Commissioner of Agriculture                             UNDER VOTES                           PRECINCT 3                                             01 
01090040004000016          Commissioner of Agriculture                             UNDER VOTES                           PRECINCT 4                                             01 
01100010001000694REP       Railroad Commissioner                                   Wayne Christian                       PRECINCT 1                                             01 
01100010002001006REP       Railroad Commissioner                                   Wayne Christian                       PRECINCT 2                                             01 
01100010003001287REP       Railroad Commissioner                                   Wayne Christian                       PRECINCT 3                                             01 
01100010004001233REP       Railroad Commissioner                                   Wayne Christian                       PRECINCT 4                                             01 
01100020001000142DEM       Railroad Commissioner                                   Luke Warford                          PRECINCT 1                                             01 
01100020002000159DEM       Railroad Commissioner                                   Luke Warford                          PRECINCT 2                                             01 
01100020003000115DEM       Railroad Commissioner                                   Luke Warford                          PRECINCT 3                                             01 
01100020004000154DEM       Railroad Commissioner                                   Luke Warford                          PRECINCT 4                                             01 
01100030001000024LIB       Railroad Commissioner                                   Jaime Andres Diez                     PRECINCT 1                                             01 
01100030002000023LIB       Railroad Commissioner                                   Jaime Andres Diez                     PRECINCT 2                                             01 
01100030003000034LIB       Railroad Commissioner                                   Jaime Andres Diez                     PRECINCT 3                                             01 
01100030004000019LIB       Railroad Commissioner                                   Jaime Andres Diez                     PRECINCT 4                                             01 
01100040001000005GRN       Railroad Commissioner                                   Hunter Wayne Crow                     PRECINCT 1                                             01 
01100040002000008GRN       Railroad Commissioner                                   Hunter Wayne Crow                     PRECINCT 2                                             01 
01100040003000011GRN       Railroad Commissioner                                   Hunter Wayne Crow                     PRECINCT 3                                             01 
01100040004000010GRN       Railroad Commissioner                                   Hunter Wayne Crow                     PRECINCT 4                                             01 
01100050001000000          Railroad Commissioner                                   OVER VOTES                            PRECINCT 1                                             01 
01100050002000000          Railroad Commissioner                                   OVER VOTES                            PRECINCT 2                                             01 
01100050003000000          Railroad Commissioner                                   OVER VOTES                            PRECINCT 3                                             01 
01100050004000000          Railroad Commissioner                                   OVER VOTES                            PRECINCT 4                                             01 
01100060001000015          Railroad Commissioner                                   UNDER VOTES                           PRECINCT 1                                             01 
01100060002000020          Railroad Commissioner                                   UNDER VOTES                           PRECINCT 2                                             01 
01100060003000025          Railroad Commissioner                                   UNDER VOTES                           PRECINCT 3                                             01 
01100060004000023          Railroad Commissioner                                   UNDER VOTES                           PRECINCT 4                                             01 
01110010001000700REP       Justice, Supreme Court, P3                              Debra Lehrmann                        PRECINCT 1                                             01 
01110010002001015REP       Justice, Supreme Court, P3                              Debra Lehrmann                        PRECINCT 2                                             01 
01110010003001287REP       Justice, Supreme Court, P3                              Debra Lehrmann                        PRECINCT 3                                             01 
01110010004001245REP       Justice, Supreme Court, P3                              Debra Lehrmann                        PRECINCT 4                                             01 
01110020001000150DEM       Justice, Supreme Court, P3                              Erin A. Nowell                        PRECINCT 1                                             01 
01110020002000157DEM       Justice, Supreme Court, P3                              Erin A. Nowell                        PRECINCT 2                                             01 
01110020003000131DEM       Justice, Supreme Court, P3                              Erin A. Nowell                        PRECINCT 3                                             01 
01110020004000155DEM       Justice, Supreme Court, P3                              Erin A. Nowell                        PRECINCT 4                                             01 
01110030001000018LIB       Justice, Supreme Court, P3                              Thomas Edward Oxford                  PRECINCT 1                                             01 
01110030002000021LIB       Justice, Supreme Court, P3                              Thomas Edward Oxford                  PRECINCT 2                                             01 
01110030003000029LIB       Justice, Supreme Court, P3                              Thomas Edward Oxford                  PRECINCT 3                                             01 
01110030004000017LIB       Justice, Supreme Court, P3                              Thomas Edward Oxford                  PRECINCT 4                                             01 
01110040001000000          Justice, Supreme Court, P3                              OVER VOTES                            PRECINCT 1                                             01 
01110040002000000          Justice, Supreme Court, P3                              OVER VOTES                            PRECINCT 2                                             01 
01110040003000000          Justice, Supreme Court, P3                              OVER VOTES                            PRECINCT 3                                             01 
01110040004000000          Justice, Supreme Court, P3                              OVER VOTES                            PRECINCT 4                                             01 
01110050001000012          Justice, Supreme Court, P3                              UNDER VOTES                           PRECINCT 1                                             01 
01110050002000023          Justice, Supreme Court, P3                              UNDER VOTES                           PRECINCT 2                                             01 
01110050003000025          Justice, Supreme Court, P3                              UNDER VOTES                           PRECINCT 3                                             01 
01110050004000022          Justice, Supreme Court, P3                              UNDER VOTES                           PRECINCT 4                                             01 
01120010001000715REP       Justice, Supreme Court, P5                              Rebeca Huddle                         PRECINCT 1                                             01 
01120010002001020REP       Justice, Supreme Court, P5                              Rebeca Huddle                         PRECINCT 2                                             01 
01120010003001320REP       Justice, Supreme Court, P5                              Rebeca Huddle                         PRECINCT 3                                             01 
01120010004001257REP       Justice, Supreme Court, P5                              Rebeca Huddle                         PRECINCT 4                                             01 
01120020001000151DEM       Justice, Supreme Court, P5                              Amanda Reichek                        PRECINCT 1                                             01 
01120020002000167DEM       Justice, Supreme Court, P5                              Amanda Reichek                        PRECINCT 2                                             01 
01120020003000129DEM       Justice, Supreme Court, P5                              Amanda Reichek                        PRECINCT 3                                             01 
01120020004000160DEM       Justice, Supreme Court, P5                              Amanda Reichek                        PRECINCT 4                                             01 
01120030001000000          Justice, Supreme Court, P5                              OVER VOTES                            PRECINCT 1                                             01 
01120030002000000          Justice, Supreme Court, P5                              OVER VOTES                            PRECINCT 2                                             01 
01120030003000000          Justice, Supreme Court, P5                              OVER VOTES                            PRECINCT 3                                             01 
01120030004000000          Justice, Supreme Court, P5                              OVER VOTES                            PRECINCT 4                                             01 
01120040001000014          Justice, Supreme Court, P5                              UNDER VOTES                           PRECINCT 1                                             01 
01120040002000029          Justice, Supreme Court, P5                              UNDER VOTES                           PRECINCT 2                                             01 
01120040003000023          Justice, Supreme Court, P5                              UNDER VOTES                           PRECINCT 3                                             01 
01120040004000022          Justice, Supreme Court, P5                              UNDER VOTES                           PRECINCT 4                                             01 
01130010001000718REP       Justice, Supreme Court, P9                              Evan Young                            PRECINCT 1                                             01 
01130010002001019REP       Justice, Supreme Court, P9                              Evan Young                            PRECINCT 2                                             01 
01130010003001318REP       Justice, Supreme Court, P9                              Evan Young                            PRECINCT 3                                             01 
01130010004001249REP       Justice, Supreme Court, P9                              Evan Young                            PRECINCT 4                                             01 
01130020001000148DEM       Justice, Supreme Court, P9                              Julia Maldonado                       PRECINCT 1                                             01 
01130020002000166DEM       Justice, Supreme Court, P9                              Julia Maldonado                       PRECINCT 2                                             01 
01130020003000128DEM       Justice, Supreme Court, P9                              Julia Maldonado                       PRECINCT 3                                             01 
01130020004000164DEM       Justice, Supreme Court, P9                              Julia Maldonado                       PRECINCT 4                                             01 
01130030001000000          Justice, Supreme Court, P9                              OVER VOTES                            PRECINCT 1                                             01 
01130030002000000          Justice, Supreme Court, P9                              OVER VOTES                            PRECINCT 2                                             01 
01130030003000000          Justice, Supreme Court, P9                              OVER VOTES                            PRECINCT 3                                             01 
01130030004000000          Justice, Supreme Court, P9                              OVER VOTES                            PRECINCT 4                                             01 
01130040001000014          Justice, Supreme Court, P9                              UNDER VOTES                           PRECINCT 1                                             01 
01130040002000031          Justice, Supreme Court, P9                              UNDER VOTES                           PRECINCT 2                                             01 
01130040003000026          Justice, Supreme Court, P9                              UNDER VOTES                           PRECINCT 3                                             01 
01130040004000026          Justice, Supreme Court, P9                              UNDER VOTES                           PRECINCT 4                                             01 
01140010001000709REP       Judge, Ct of Crim Appeals, P5                           Scott Walker                          PRECINCT 1                                             01 
01140010002001016REP       Judge, Ct of Crim Appeals, P5                           Scott Walker                          PRECINCT 2                                             01 
01140010003001313REP       Judge, Ct of Crim Appeals, P5                           Scott Walker                          PRECINCT 3                                             01 
01140010004001255REP       Judge, Ct of Crim Appeals, P5                           Scott Walker                          PRECINCT 4                                             01 
01140020001000153DEM       Judge, Ct of Crim Appeals, P5                           Dana Huffman                          PRECINCT 1                                             01 
01140020002000175DEM       Judge, Ct of Crim Appeals, P5                           Dana Huffman                          PRECINCT 2                                             01 
01140020003000136DEM       Judge, Ct of Crim Appeals, P5                           Dana Huffman                          PRECINCT 3                                             01 
01140020004000165DEM       Judge, Ct of Crim Appeals, P5                           Dana Huffman                          PRECINCT 4                                             01 
01140030001000000          Judge, Ct of Crim Appeals, P5                           OVER VOTES                            PRECINCT 1                                             01 
01140030002000000          Judge, Ct of Crim Appeals, P5                           OVER VOTES                            PRECINCT 2                                             01 
01140030003000000          Judge, Ct of Crim Appeals, P5                           OVER VOTES                            PRECINCT 3                                             01 
01140030004000000          Judge, Ct of Crim Appeals, P5                           OVER VOTES                            PRECINCT 4                                             01 
01140040001000018          Judge, Ct of Crim Appeals, P5                           UNDER VOTES                           PRECINCT 1                                             01 
01140040002000025          Judge, Ct of Crim Appeals, P5                           UNDER VOTES                           PRECINCT 2                                             01 
01140040003000023          Judge, Ct of Crim Appeals, P5                           UNDER VOTES                           PRECINCT 3                                             01 
01140040004000019          Judge, Ct of Crim Appeals, P5                           UNDER VOTES                           PRECINCT 4                                             01 
01150010001000707REP       Judge, Ct of Crim Appeals, P6                           Jesse F. McClure, III                 PRECINCT 1                                             01 
01150010002001013REP       Judge, Ct of Crim Appeals, P6                           Jesse F. McClure, III                 PRECINCT 2                                             01 
01150010003001318REP       Judge, Ct of Crim Appeals, P6                           Jesse F. McClure, III                 PRECINCT 3                                             01 
01150010004001246REP       Judge, Ct of Crim Appeals, P6                           Jesse F. McClure, III                 PRECINCT 4                                             01 
01150020001000154DEM       Judge, Ct of Crim Appeals, P6                           Robert Johnson                        PRECINCT 1                                             01 
01150020002000176DEM       Judge, Ct of Crim Appeals, P6                           Robert Johnson                        PRECINCT 2                                             01 
01150020003000127DEM       Judge, Ct of Crim Appeals, P6                           Robert Johnson                        PRECINCT 3                                             01 
01150020004000163DEM       Judge, Ct of Crim Appeals, P6                           Robert Johnson                        PRECINCT 4                                             01 
01150030001000000          Judge, Ct of Crim Appeals, P6                           OVER VOTES                            PRECINCT 1                                             01 
01150030002000000          Judge, Ct of Crim Appeals, P6                           OVER VOTES                            PRECINCT 2                                             01 
01150030003000000          Judge, Ct of Crim Appeals, P6                           OVER VOTES                            PRECINCT 3                                             01 
01150030004000000          Judge, Ct of Crim Appeals, P6                           OVER VOTES                            PRECINCT 4                                             01 
01150040001000019          Judge, Ct of Crim Appeals, P6                           UNDER VOTES                           PRECINCT 1                                             01 
01150040002000027          Judge, Ct of Crim Appeals, P6                           UNDER VOTES                           PRECINCT 2                                             01 
01150040003000027          Judge, Ct of Crim Appeals, P6                           UNDER VOTES                           PRECINCT 3                                             01 
01150040004000030          Judge, Ct of Crim Appeals, P6                           UNDER VOTES                           PRECINCT 4                                             01 
01160010001000726REP       State Representative, District 71                       Stan Lambert                          PRECINCT 1                                             01 
01160010002001044REP       State Representative, District 71                       Stan Lambert                          PRECINCT 2                                             01 
01160010003001326REP       State Representative, District 71                       Stan Lambert                          PRECINCT 3                                             01 
01160010004001266REP       State Representative, District 71                       Stan Lambert                          PRECINCT 4                                             01 
01160020001000144DEM       State Representative, District 71                       Linda Goolsbee                        PRECINCT 1                                             01 
01160020002000155DEM       State Representative, District 71                       Linda Goolsbee                        PRECINCT 2                                             01 
01160020003000129DEM       State Representative, District 71                       Linda Goolsbee                        PRECINCT 3                                             01 
01160020004000161DEM       State Representative, District 71                       Linda Goolsbee                        PRECINCT 4                                             01 
01160030001000000          State Representative, District 71                       OVER VOTES                            PRECINCT 1                                             01 
01160030002000000          State Representative, District 71                       OVER VOTES                            PRECINCT 2                                             01 
01160030003000000          State Representative, District 71                       OVER VOTES                            PRECINCT 3                                             01 
01160030004000000          State Representative, District 71                       OVER VOTES                            PRECINCT 4                                             01 
01160040001000010          State Representative, District 71                       UNDER VOTES                           PRECINCT 1                                             01 
01160040002000017          State Representative, District 71                       UNDER VOTES                           PRECINCT 2                                             01 
01160040003000017          State Representative, District 71                       UNDER VOTES                           PRECINCT 3                                             01 
01160040004000012          State Representative, District 71                       UNDER VOTES                           PRECINCT 4                                             01 
01170010004000005NONISDROBYTrustee ROBY CISD                                       Stormy Rasberry                       PRECINCT 4                                             04 
01170020004000002NONISDROBYTrustee ROBY CISD                                       Jerry Carrion                         PRECINCT 4                                             04 
01170030004000004NONISDROBYTrustee ROBY CISD                                       Dakota Rasberry                       PRECINCT 4                                             04 
01170040004000006NONISDROBYTrustee ROBY CISD                                       Michele Terry                         PRECINCT 4                                             04 
01170050004000003NONISDROBYTrustee ROBY CISD                                       April Noell                           PRECINCT 4                                             04 
01170060004000005NONISDROBYTrustee ROBY CISD                                       Kevin Kelly                           PRECINCT 4                                             04 
01170070004000000   ISDROBYTrustee ROBY CISD                                       OVER VOTES                            PRECINCT 4                                             04 
01170080004000007   ISDROBYTrustee ROBY CISD                                       UNDER VOTES                           PRECINCT 4                                             04 
01180010003000100NONHAWLEY Proposition A - City of Hawley                          YES                                   PRECINCT 3                                             01Y
01180020003000099NONHAWLEY Proposition A - City of Hawley                          NO                                    PRECINCT 3                                             01Y
01180030003000000   HAWLEY Proposition A - City of Hawley                          OVER VOTES                            PRECINCT 3                                             01Y
01180040003000004   HAWLEY Proposition A - City of Hawley                          UNDER VOTES                           PRECINCT 3                                             01Y
01190010003000134NONHAWLEY Proposition B - City of Hawley                          YES                                   PRECINCT 3                                             01Y
01190020003000066NONHAWLEY Proposition B - City of Hawley                          NO                                    PRECINCT 3                                             01Y
01190030003000000   HAWLEY Proposition B - City of Hawley                          OVER VOTES                            PRECINCT 3                                             01Y
01190040003000003   HAWLEY Proposition B - City of Hawley                          UNDER VOTES                           PRECINCT 3                                             01Y
01200010003000157NONABILENEPROPOSITION A CITY OF ABILENE                           FOR                                   PRECINCT 3                                             01Y
01200020003000131NONABILENEPROPOSITION A CITY OF ABILENE                           AGAINST                               PRECINCT 3                                             01Y
01200030003000000   ABILENEPROPOSITION A CITY OF ABILENE                           OVER VOTES                            PRECINCT 3                                             01Y
01200040003000016   ABILENEPROPOSITION A CITY OF ABILENE                           UNDER VOTES                           PRECINCT 3                                             01Y
01210010003000197NONABILENEPROPOSITION B CITY OF ABILENE                           FOR                                   PRECINCT 3                                             01Y
01210020003000097NONABILENEPROPOSITION B CITY OF ABILENE                           AGAINST                               PRECINCT 3                                             01Y
01210030003000000   ABILENEPROPOSITION B CITY OF ABILENE                           OVER VOTES                            PRECINCT 3                                             01Y
01210040003000010   ABILENEPROPOSITION B CITY OF ABILENE                           UNDER VOTES                           PRECINCT 3                                             01Y
01220010003000135NONABILENEPROPOSITION C CITY OF ABILENE                           YES                                   PRECINCT 3                                             01Y
01220020003000160NONABILENEPROPOSITION C CITY OF ABILENE                           NO                                    PRECINCT 3                                             01Y
01220030003000000   ABILENEPROPOSITION C CITY OF ABILENE                           OVER VOTES                            PRECINCT 3                                             01Y
01220040003000009   ABILENEPROPOSITION C CITY OF ABILENE                           UNDER VOTES                           PRECINCT 3                                             01Y
01230010003000139NONABILENEPROPOSITION D CITY OF ABILENE                           YES                                   PRECINCT 3                                             01Y
01230020003000157NONABILENEPROPOSITION D CITY OF ABILENE                           NO                                    PRECINCT 3                                             01Y
01230030003000000   ABILENEPROPOSITION D CITY OF ABILENE                           OVER VOTES                            PRECINCT 3                                             01Y
01230040003000008   ABILENEPROPOSITION D CITY OF ABILENE                           UNDER VOTES                           PRECINCT 3                                             01Y
01240010003000115NONABILENEPROPOSITION E CITY OF ABILENE                           YES                                   PRECINCT 3                                             01Y
01240020003000169NONABILENEPROPOSITION E CITY OF ABILENE                           NO                                    PRECINCT 3                                             01Y
01240030003000000   ABILENEPROPOSITION E CITY OF ABILENE                           OVER VOTES                            PRECINCT 3                                             01Y
01240040003000020   ABILENEPROPOSITION E CITY OF ABILENE                           UNDER VOTES                           PRECINCT 3                                             01Y
01250010003000154NONABILENEPROPOSITION F CITY OF ABILENE                           YES                                   PRECINCT 3                                             01Y
01250020003000131NONABILENEPROPOSITION F CITY OF ABILENE                           NO                                    PRECINCT 3                                             01Y
01250030003000000   ABILENEPROPOSITION F CITY OF ABILENE                           OVER VOTES                            PRECINCT 3                                             01Y
01250040003000019   ABILENEPROPOSITION F CITY OF ABILENE                           UNDER VOTES                           PRECINCT 3                                             01Y
01260010003000151NONABILENEPROPOSITION G CITY OF ABILENE                           YES                                   PRECINCT 3                                             01Y
01260020003000136NONABILENEPROPOSITION G CITY OF ABILENE                           NO                                    PRECINCT 3                                             01Y
01260030003000000   ABILENEPROPOSITION G CITY OF ABILENE                           OVER VOTES                            PRECINCT 3                                             01Y
01260040003000017   ABILENEPROPOSITION G CITY OF ABILENE                           UNDER VOTES                           PRECINCT 3                                             01Y
01270010003000207NONABILENEPROPOSITION H CITY OF ABILENE                           YES                                   PRECINCT 3                                             01Y
01270020003000080NONABILENEPROPOSITION H CITY OF ABILENE                           NO                                    PRECINCT 3                                             01Y
01270030003000000   ABILENEPROPOSITION H CITY OF ABILENE                           OVER VOTES                            PRECINCT 3                                             01Y
01270040003000017   ABILENEPROPOSITION H CITY OF ABILENE                           UNDER VOTES                           PRECINCT 3                                             01Y
