00010010001000000000000000000000000000000000000000000000000000000000000000000000000000000000000000000          REGISTERED VOTERS - TOTAL                               REGISTERED VOTERS - TOTAL             Precinct 2                                             00 
00010010002000000000000000000000000000000000000000000000000000000000000000000000000000000000000000000          REGISTERED VOTERS - TOTAL                               REGISTERED VOTERS - TOTAL             Precinct 3                                             00 
00010010003000000000000000000000000000000000000000000000000000000000000000000000000000000000000000000          REGISTERED VOTERS - TOTAL                               REGISTERED VOTERS - TOTAL             Precinct 4                                             00 
00010010004000000000000000000000000000000000000000000000000000000000000000000000000000000000000000000          REGISTERED VOTERS - TOTAL                               REGISTERED VOTERS - TOTAL             Precinct 5                                             00 
00010010005000000000000000000000000000000000000000000000000000000000000000000000000000000000000000000          REGISTERED VOTERS - TOTAL                               REGISTERED VOTERS - TOTAL             Precinct 6                                             00 
00010010006000000000000000000000000000000000000000000000000000000000000000000000000000000000000000000          REGISTERED VOTERS - TOTAL                               REGISTERED VOTERS - TOTAL             Precinct 7                                             00 
00010010007000000000000000000000000000000000000000000000000000000000000000000000000000000000000000000          REGISTERED VOTERS - TOTAL                               REGISTERED VOTERS - TOTAL             Precinct 8                                             00 
00010010008000000000000000000000000000000000000000000000000000000000000000000000000000000000000000000          REGISTERED VOTERS - TOTAL                               REGISTERED VOTERS - TOTAL             Precinct 9                                             00 
00010010009000000000000000000000000000000000000000000000000000000000000000000000000000000000000000000          REGISTERED VOTERS - TOTAL                               REGISTERED VOTERS - TOTAL             Precinct 10                                            00 
00010010010000000000000000000000000000000000000000000000000000000000000000000000000000000000000000000          REGISTERED VOTERS - TOTAL                               REGISTERED VOTERS - TOTAL             Precinct 11                                            00 
00010010011000000000000000000000000000000000000000000000000000000000000000000000000000000000000000000          REGISTERED VOTERS - TOTAL                               REGISTERED VOTERS - TOTAL             Precinct 12                                            00 
00010010012000000000000000000000000000000000000000000000000000000000000000000000000000000000000000000          REGISTERED VOTERS - TOTAL                               REGISTERED VOTERS - TOTAL             Precinct 13                                            00 
00010010013000000000000000000000000000000000000000000000000000000000000000000000000000000000000000000          REGISTERED VOTERS - TOTAL                               REGISTERED VOTERS - TOTAL             Precinct 14                                            00 
00010010014000000000000000000000000000000000000000000000000000000000000000000000000000000000000000000          REGISTERED VOTERS - TOTAL                               REGISTERED VOTERS - TOTAL             Precinct 15                                            00 
00010010015000000000000000000000000000000000000000000000000000000000000000000000000000000000000000000          REGISTERED VOTERS - TOTAL                               REGISTERED VOTERS - TOTAL             Precinct 16                                            00 
00020010001001487000044001047000396000000000000000000000000000000000000000000000000000000000000000000          BALLOTS CAST - TOTAL                                    BALLOTS CAST - TOTAL                  Precinct 2                                             00 
00020010002000745000022000503000220000000000000000000000000000000000000000000000000000000000000000000          BALLOTS CAST - TOTAL                                    BALLOTS CAST - TOTAL                  Precinct 3                                             00 
00020010003000272000006000169000097000000000000000000000000000000000000000000000000000000000000000000          BALLOTS CAST - TOTAL                                    BALLOTS CAST - TOTAL                  Precinct 4                                             00 
00020010004000542000021000362000159000000000000000000000000000000000000000000000000000000000000000000          BALLOTS CAST - TOTAL                                    BALLOTS CAST - TOTAL                  Precinct 5                                             00 
00020010005000483000017000318000148000000000000000000000000000000000000000000000000000000000000000000          BALLOTS CAST - TOTAL                                    BALLOTS CAST - TOTAL                  Precinct 6                                             00 
00020010006000691000016000346000329000000000000000000000000000000000000000000000000000000000000000000          BALLOTS CAST - TOTAL                                    BALLOTS CAST - TOTAL                  Precinct 7                                             00 
00020010007000512000013000219000280000000000000000000000000000000000000000000000000000000000000000000          BALLOTS CAST - TOTAL                                    BALLOTS CAST - TOTAL                  Precinct 8                                             00 
00020010008000739000033000454000252000000000000000000000000000000000000000000000000000000000000000000          BALLOTS CAST - TOTAL                                    BALLOTS CAST - TOTAL                  Precinct 9                                             00 
00020010009000545000011000308000226000000000000000000000000000000000000000000000000000000000000000000          BALLOTS CAST - TOTAL                                    BALLOTS CAST - TOTAL                  Precinct 10                                            00 
00020010010000487000018000292000177000000000000000000000000000000000000000000000000000000000000000000          BALLOTS CAST - TOTAL                                    BALLOTS CAST - TOTAL                  Precinct 11                                            00 
00020010011000079000001000026000052000000000000000000000000000000000000000000000000000000000000000000          BALLOTS CAST - TOTAL                                    BALLOTS CAST - TOTAL                  Precinct 12                                            00 
00020010012000643000018000465000160000000000000000000000000000000000000000000000000000000000000000000          BALLOTS CAST - TOTAL                                    BALLOTS CAST - TOTAL                  Precinct 13                                            00 
00020010013000146000005000080000061000000000000000000000000000000000000000000000000000000000000000000          BALLOTS CAST - TOTAL                                    BALLOTS CAST - TOTAL                  Precinct 14                                            00 
00020010014000342000010000220000112000000000000000000000000000000000000000000000000000000000000000000          BALLOTS CAST - TOTAL                                    BALLOTS CAST - TOTAL                  Precinct 15                                            00 
00020010015000168000001000106000061000000000000000000000000000000000000000000000000000000000000000000          BALLOTS CAST - TOTAL                                    BALLOTS CAST - TOTAL                  Precinct 16                                            00 
00030010001000000000000000000000000000000000000000000000000000000000000000000000000000000000000000000          BALLOTS CAST - BLANK                                    BALLOTS CAST - BLANK                  Precinct 2                                             00 
00030010002000000000000000000000000000000000000000000000000000000000000000000000000000000000000000000          BALLOTS CAST - BLANK                                    BALLOTS CAST - BLANK                  Precinct 3                                             00 
00030010003000000000000000000000000000000000000000000000000000000000000000000000000000000000000000000          BALLOTS CAST - BLANK                                    BALLOTS CAST - BLANK                  Precinct 4                                             00 
00030010004000000000000000000000000000000000000000000000000000000000000000000000000000000000000000000          BALLOTS CAST - BLANK                                    BALLOTS CAST - BLANK                  Precinct 5                                             00 
00030010005000000000000000000000000000000000000000000000000000000000000000000000000000000000000000000          BALLOTS CAST - BLANK                                    BALLOTS CAST - BLANK                  Precinct 6                                             00 
00030010006000000000000000000000000000000000000000000000000000000000000000000000000000000000000000000          BALLOTS CAST - BLANK                                    BALLOTS CAST - BLANK                  Precinct 7                                             00 
00030010007000000000000000000000000000000000000000000000000000000000000000000000000000000000000000000          BALLOTS CAST - BLANK                                    BALLOTS CAST - BLANK                  Precinct 8                                             00 
00030010008000000000000000000000000000000000000000000000000000000000000000000000000000000000000000000          BALLOTS CAST - BLANK                                    BALLOTS CAST - BLANK                  Precinct 9                                             00 
00030010009000000000000000000000000000000000000000000000000000000000000000000000000000000000000000000          BALLOTS CAST - BLANK                                    BALLOTS CAST - BLANK                  Precinct 10                                            00 
00030010010000000000000000000000000000000000000000000000000000000000000000000000000000000000000000000          BALLOTS CAST - BLANK                                    BALLOTS CAST - BLANK                  Precinct 11                                            00 
00030010011000000000000000000000000000000000000000000000000000000000000000000000000000000000000000000          BALLOTS CAST - BLANK                                    BALLOTS CAST - BLANK                  Precinct 12                                            00 
00030010012000000000000000000000000000000000000000000000000000000000000000000000000000000000000000000          BALLOTS CAST - BLANK                                    BALLOTS CAST - BLANK                  Precinct 13                                            00 
00030010013000000000000000000000000000000000000000000000000000000000000000000000000000000000000000000          BALLOTS CAST - BLANK                                    BALLOTS CAST - BLANK                  Precinct 14                                            00 
00030010014000000000000000000000000000000000000000000000000000000000000000000000000000000000000000000          BALLOTS CAST - BLANK                                    BALLOTS CAST - BLANK                  Precinct 15                                            00 
00030010015000000000000000000000000000000000000000000000000000000000000000000000000000000000000000000          BALLOTS CAST - BLANK                                    BALLOTS CAST - BLANK                  Precinct 16                                            00 
00040010001001306000025000924000357000000000000000000000000000000000000000000000000000000000000000000REP       US Representative, Dist 13                              REP Ronny Jackson                     Precinct 2                                             01 
00040010002000674000012000460000202000000000000000000000000000000000000000000000000000000000000000000REP       US Representative, Dist 13                              REP Ronny Jackson                     Precinct 3                                             01 
00040010003000243000003000149000091000000000000000000000000000000000000000000000000000000000000000000REP       US Representative, Dist 13                              REP Ronny Jackson                     Precinct 4                                             01 
00040010004000474000013000327000134000000000000000000000000000000000000000000000000000000000000000000REP       US Representative, Dist 13                              REP Ronny Jackson                     Precinct 5                                             01 
00040010005000419000014000278000127000000000000000000000000000000000000000000000000000000000000000000REP       US Representative, Dist 13                              REP Ronny Jackson                     Precinct 6                                             01 
00040010006000605000009000322000274000000000000000000000000000000000000000000000000000000000000000000REP       US Representative, Dist 13                              REP Ronny Jackson                     Precinct 7                                             01 
00040010007000450000008000188000254000000000000000000000000000000000000000000000000000000000000000000REP       US Representative, Dist 13                              REP Ronny Jackson                     Precinct 8                                             01 
00040010008000640000024000395000221000000000000000000000000000000000000000000000000000000000000000000REP       US Representative, Dist 13                              REP Ronny Jackson                     Precinct 9                                             01 
00040010009000477000008000276000193000000000000000000000000000000000000000000000000000000000000000000REP       US Representative, Dist 13                              REP Ronny Jackson                     Precinct 10                                            01 
00040010010000422000016000262000144000000000000000000000000000000000000000000000000000000000000000000REP       US Representative, Dist 13                              REP Ronny Jackson                     Precinct 11                                            01 
00040010011000076000001000025000050000000000000000000000000000000000000000000000000000000000000000000REP       US Representative, Dist 13                              REP Ronny Jackson                     Precinct 12                                            01 
00040010012000576000014000416000146000000000000000000000000000000000000000000000000000000000000000000REP       US Representative, Dist 13                              REP Ronny Jackson                     Precinct 13                                            01 
00040010013000138000003000076000059000000000000000000000000000000000000000000000000000000000000000000REP       US Representative, Dist 13                              REP Ronny Jackson                     Precinct 14                                            01 
00040010014000300000005000189000106000000000000000000000000000000000000000000000000000000000000000000REP       US Representative, Dist 13                              REP Ronny Jackson                     Precinct 15                                            01 
00040010015000148000001000095000052000000000000000000000000000000000000000000000000000000000000000000REP       US Representative, Dist 13                              REP Ronny Jackson                     Precinct 16                                            01 
00040020001000159000012000112000035000000000000000000000000000000000000000000000000000000000000000000DEM       US Representative, Dist 13                              DEM Kathleen Brown                    Precinct 2                                             01 
00040020002000060000008000036000016000000000000000000000000000000000000000000000000000000000000000000DEM       US Representative, Dist 13                              DEM Kathleen Brown                    Precinct 3                                             01 
00040020003000026000002000018000006000000000000000000000000000000000000000000000000000000000000000000DEM       US Representative, Dist 13                              DEM Kathleen Brown                    Precinct 4                                             01 
00040020004000061000006000032000023000000000000000000000000000000000000000000000000000000000000000000DEM       US Representative, Dist 13                              DEM Kathleen Brown                    Precinct 5                                             01 
00040020005000057000002000035000020000000000000000000000000000000000000000000000000000000000000000000DEM       US Representative, Dist 13                              DEM Kathleen Brown                    Precinct 6                                             01 
00040020006000080000006000022000052000000000000000000000000000000000000000000000000000000000000000000DEM       US Representative, Dist 13                              DEM Kathleen Brown                    Precinct 7                                             01 
00040020007000055000003000028000024000000000000000000000000000000000000000000000000000000000000000000DEM       US Representative, Dist 13                              DEM Kathleen Brown                    Precinct 8                                             01 
00040020008000089000007000054000028000000000000000000000000000000000000000000000000000000000000000000DEM       US Representative, Dist 13                              DEM Kathleen Brown                    Precinct 9                                             01 
00040020009000064000001000031000032000000000000000000000000000000000000000000000000000000000000000000DEM       US Representative, Dist 13                              DEM Kathleen Brown                    Precinct 10                                            01 
00040020010000053000001000024000028000000000000000000000000000000000000000000000000000000000000000000DEM       US Representative, Dist 13                              DEM Kathleen Brown                    Precinct 11                                            01 
00040020011000003000000000001000002000000000000000000000000000000000000000000000000000000000000000000DEM       US Representative, Dist 13                              DEM Kathleen Brown                    Precinct 12                                            01 
00040020012000049000000000038000011000000000000000000000000000000000000000000000000000000000000000000DEM       US Representative, Dist 13                              DEM Kathleen Brown                    Precinct 13                                            01 
00040020013000007000001000004000002000000000000000000000000000000000000000000000000000000000000000000DEM       US Representative, Dist 13                              DEM Kathleen Brown                    Precinct 14                                            01 
00040020014000039000004000029000006000000000000000000000000000000000000000000000000000000000000000000DEM       US Representative, Dist 13                              DEM Kathleen Brown                    Precinct 15                                            01 
00040020015000017000000000009000008000000000000000000000000000000000000000000000000000000000000000000DEM       US Representative, Dist 13                              DEM Kathleen Brown                    Precinct 16                                            01 
00040030001000000000000000000000000000000000000000000000000000000000000000000000000000000000000000000          US Representative, Dist 13                              OVER VOTES                            Precinct 2                                             01 
00040030002000000000000000000000000000000000000000000000000000000000000000000000000000000000000000000          US Representative, Dist 13                              OVER VOTES                            Precinct 3                                             01 
00040030003000000000000000000000000000000000000000000000000000000000000000000000000000000000000000000          US Representative, Dist 13                              OVER VOTES                            Precinct 4                                             01 
00040030004000000000000000000000000000000000000000000000000000000000000000000000000000000000000000000          US Representative, Dist 13                              OVER VOTES                            Precinct 5                                             01 
00040030005000000000000000000000000000000000000000000000000000000000000000000000000000000000000000000          US Representative, Dist 13                              OVER VOTES                            Precinct 6                                             01 
00040030006000000000000000000000000000000000000000000000000000000000000000000000000000000000000000000          US Representative, Dist 13                              OVER VOTES                            Precinct 7                                             01 
00040030007000000000000000000000000000000000000000000000000000000000000000000000000000000000000000000          US Representative, Dist 13                              OVER VOTES                            Precinct 8                                             01 
00040030008000000000000000000000000000000000000000000000000000000000000000000000000000000000000000000          US Representative, Dist 13                              OVER VOTES                            Precinct 9                                             01 
00040030009000000000000000000000000000000000000000000000000000000000000000000000000000000000000000000          US Representative, Dist 13                              OVER VOTES                            Precinct 10                                            01 
00040030010000000000000000000000000000000000000000000000000000000000000000000000000000000000000000000          US Representative, Dist 13                              OVER VOTES                            Precinct 11                                            01 
00040030011000000000000000000000000000000000000000000000000000000000000000000000000000000000000000000          US Representative, Dist 13                              OVER VOTES                            Precinct 12                                            01 
00040030012000000000000000000000000000000000000000000000000000000000000000000000000000000000000000000          US Representative, Dist 13                              OVER VOTES                            Precinct 13                                            01 
00040030013000000000000000000000000000000000000000000000000000000000000000000000000000000000000000000          US Representative, Dist 13                              OVER VOTES                            Precinct 14                                            01 
00040030014000000000000000000000000000000000000000000000000000000000000000000000000000000000000000000          US Representative, Dist 13                              OVER VOTES                            Precinct 15                                            01 
00040030015000000000000000000000000000000000000000000000000000000000000000000000000000000000000000000          US Representative, Dist 13                              OVER VOTES                            Precinct 16                                            01 
00040040001000022000007000011000004000000000000000000000000000000000000000000000000000000000000000000          US Representative, Dist 13                              UNDER VOTES                           Precinct 2                                             01 
00040040002000011000002000007000002000000000000000000000000000000000000000000000000000000000000000000          US Representative, Dist 13                              UNDER VOTES                           Precinct 3                                             01 
00040040003000003000001000002000000000000000000000000000000000000000000000000000000000000000000000000          US Representative, Dist 13                              UNDER VOTES                           Precinct 4                                             01 
00040040004000007000002000003000002000000000000000000000000000000000000000000000000000000000000000000          US Representative, Dist 13                              UNDER VOTES                           Precinct 5                                             01 
00040040005000007000001000005000001000000000000000000000000000000000000000000000000000000000000000000          US Representative, Dist 13                              UNDER VOTES                           Precinct 6                                             01 
00040040006000006000001000002000003000000000000000000000000000000000000000000000000000000000000000000          US Representative, Dist 13                              UNDER VOTES                           Precinct 7                                             01 
00040040007000007000002000003000002000000000000000000000000000000000000000000000000000000000000000000          US Representative, Dist 13                              UNDER VOTES                           Precinct 8                                             01 
00040040008000010000002000005000003000000000000000000000000000000000000000000000000000000000000000000          US Representative, Dist 13                              UNDER VOTES                           Precinct 9                                             01 
00040040009000004000002000001000001000000000000000000000000000000000000000000000000000000000000000000          US Representative, Dist 13                              UNDER VOTES                           Precinct 10                                            01 
00040040010000012000001000006000005000000000000000000000000000000000000000000000000000000000000000000          US Representative, Dist 13                              UNDER VOTES                           Precinct 11                                            01 
00040040011000000000000000000000000000000000000000000000000000000000000000000000000000000000000000000          US Representative, Dist 13                              UNDER VOTES                           Precinct 12                                            01 
00040040012000018000004000011000003000000000000000000000000000000000000000000000000000000000000000000          US Representative, Dist 13                              UNDER VOTES                           Precinct 13                                            01 
00040040013000001000001000000000000000000000000000000000000000000000000000000000000000000000000000000          US Representative, Dist 13                              UNDER VOTES                           Precinct 14                                            01 
00040040014000003000001000002000000000000000000000000000000000000000000000000000000000000000000000000          US Representative, Dist 13                              UNDER VOTES                           Precinct 15                                            01 
00040040015000003000000000002000001000000000000000000000000000000000000000000000000000000000000000000          US Representative, Dist 13                              UNDER VOTES                           Precinct 16                                            01 
00050010001001324000032000937000355000000000000000000000000000000000000000000000000000000000000000000REP       Governor                                                REP Greg Abbott                       Precinct 2                                             01 
00050010002000680000015000461000204000000000000000000000000000000000000000000000000000000000000000000REP       Governor                                                REP Greg Abbott                       Precinct 3                                             01 
00050010003000241000004000147000090000000000000000000000000000000000000000000000000000000000000000000REP       Governor                                                REP Greg Abbott                       Precinct 4                                             01 
00050010004000473000013000330000130000000000000000000000000000000000000000000000000000000000000000000REP       Governor                                                REP Greg Abbott                       Precinct 5                                             01 
00050010005000420000015000277000128000000000000000000000000000000000000000000000000000000000000000000REP       Governor                                                REP Greg Abbott                       Precinct 6                                             01 
00050010006000613000010000325000278000000000000000000000000000000000000000000000000000000000000000000REP       Governor                                                REP Greg Abbott                       Precinct 7                                             01 
00050010007000449000009000186000254000000000000000000000000000000000000000000000000000000000000000000REP       Governor                                                REP Greg Abbott                       Precinct 8                                             01 
00050010008000650000026000400000224000000000000000000000000000000000000000000000000000000000000000000REP       Governor                                                REP Greg Abbott                       Precinct 9                                             01 
00050010009000474000009000278000187000000000000000000000000000000000000000000000000000000000000000000REP       Governor                                                REP Greg Abbott                       Precinct 10                                            01 
00050010010000431000018000264000149000000000000000000000000000000000000000000000000000000000000000000REP       Governor                                                REP Greg Abbott                       Precinct 11                                            01 
00050010011000076000001000025000050000000000000000000000000000000000000000000000000000000000000000000REP       Governor                                                REP Greg Abbott                       Precinct 12                                            01 
00050010012000584000018000417000149000000000000000000000000000000000000000000000000000000000000000000REP       Governor                                                REP Greg Abbott                       Precinct 13                                            01 
00050010013000139000004000077000058000000000000000000000000000000000000000000000000000000000000000000REP       Governor                                                REP Greg Abbott                       Precinct 14                                            01 
00050010014000300000006000189000105000000000000000000000000000000000000000000000000000000000000000000REP       Governor                                                REP Greg Abbott                       Precinct 15                                            01 
00050010015000150000001000095000054000000000000000000000000000000000000000000000000000000000000000000REP       Governor                                                REP Greg Abbott                       Precinct 16                                            01 
00050020001000148000012000103000033000000000000000000000000000000000000000000000000000000000000000000DEM       Governor                                                DEM Beto O'Rourke                     Precinct 2                                             01 
00050020002000057000007000038000012000000000000000000000000000000000000000000000000000000000000000000DEM       Governor                                                DEM Beto O'Rourke                     Precinct 3                                             01 
00050020003000023000002000017000004000000000000000000000000000000000000000000000000000000000000000000DEM       Governor                                                DEM Beto O'Rourke                     Precinct 4                                             01 
00050020004000061000007000030000024000000000000000000000000000000000000000000000000000000000000000000DEM       Governor                                                DEM Beto O'Rourke                     Precinct 5                                             01 
00050020005000055000002000035000018000000000000000000000000000000000000000000000000000000000000000000DEM       Governor                                                DEM Beto O'Rourke                     Precinct 6                                             01 
00050020006000070000006000019000045000000000000000000000000000000000000000000000000000000000000000000DEM       Governor                                                DEM Beto O'Rourke                     Precinct 7                                             01 
00050020007000056000004000030000022000000000000000000000000000000000000000000000000000000000000000000DEM       Governor                                                DEM Beto O'Rourke                     Precinct 8                                             01 
00050020008000081000006000051000024000000000000000000000000000000000000000000000000000000000000000000DEM       Governor                                                DEM Beto O'Rourke                     Precinct 9                                             01 
00050020009000061000002000025000034000000000000000000000000000000000000000000000000000000000000000000DEM       Governor                                                DEM Beto O'Rourke                     Precinct 10                                            01 
00050020010000047000000000025000022000000000000000000000000000000000000000000000000000000000000000000DEM       Governor                                                DEM Beto O'Rourke                     Precinct 11                                            01 
00050020011000003000000000001000002000000000000000000000000000000000000000000000000000000000000000000DEM       Governor                                                DEM Beto O'Rourke                     Precinct 12                                            01 
00050020012000043000000000035000008000000000000000000000000000000000000000000000000000000000000000000DEM       Governor                                                DEM Beto O'Rourke                     Precinct 13                                            01 
00050020013000007000001000003000003000000000000000000000000000000000000000000000000000000000000000000DEM       Governor                                                DEM Beto O'Rourke                     Precinct 14                                            01 
00050020014000036000004000026000006000000000000000000000000000000000000000000000000000000000000000000DEM       Governor                                                DEM Beto O'Rourke                     Precinct 15                                            01 
00050020015000017000000000010000007000000000000000000000000000000000000000000000000000000000000000000DEM       Governor                                                DEM Beto O'Rourke                     Precinct 16                                            01 
00050030001000009000000000003000006000000000000000000000000000000000000000000000000000000000000000000LIB       Governor                                                LIB Mark Tippetts                     Precinct 2                                             01 
00050030002000003000000000002000001000000000000000000000000000000000000000000000000000000000000000000LIB       Governor                                                LIB Mark Tippetts                     Precinct 3                                             01 
00050030003000007000000000004000003000000000000000000000000000000000000000000000000000000000000000000LIB       Governor                                                LIB Mark Tippetts                     Precinct 4                                             01 
00050030004000008000001000002000005000000000000000000000000000000000000000000000000000000000000000000LIB       Governor                                                LIB Mark Tippetts                     Precinct 5                                             01 
00050030005000004000000000002000002000000000000000000000000000000000000000000000000000000000000000000LIB       Governor                                                LIB Mark Tippetts                     Precinct 6                                             01 
00050030006000005000000000001000004000000000000000000000000000000000000000000000000000000000000000000LIB       Governor                                                LIB Mark Tippetts                     Precinct 7                                             01 
00050030007000003000000000001000002000000000000000000000000000000000000000000000000000000000000000000LIB       Governor                                                LIB Mark Tippetts                     Precinct 8                                             01 
00050030008000003000000000002000001000000000000000000000000000000000000000000000000000000000000000000LIB       Governor                                                LIB Mark Tippetts                     Precinct 9                                             01 
00050030009000008000000000004000004000000000000000000000000000000000000000000000000000000000000000000LIB       Governor                                                LIB Mark Tippetts                     Precinct 10                                            01 
00050030010000004000000000000000004000000000000000000000000000000000000000000000000000000000000000000LIB       Governor                                                LIB Mark Tippetts                     Precinct 11                                            01 
00050030011000000000000000000000000000000000000000000000000000000000000000000000000000000000000000000LIB       Governor                                                LIB Mark Tippetts                     Precinct 12                                            01 
00050030012000006000000000004000002000000000000000000000000000000000000000000000000000000000000000000LIB       Governor                                                LIB Mark Tippetts                     Precinct 13                                            01 
00050030013000000000000000000000000000000000000000000000000000000000000000000000000000000000000000000LIB       Governor                                                LIB Mark Tippetts                     Precinct 14                                            01 
00050030014000005000000000005000000000000000000000000000000000000000000000000000000000000000000000000LIB       Governor                                                LIB Mark Tippetts                     Precinct 15                                            01 
00050030015000001000000000001000000000000000000000000000000000000000000000000000000000000000000000000LIB       Governor                                                LIB Mark Tippetts                     Precinct 16                                            01 
00050040001000001000000000000000001000000000000000000000000000000000000000000000000000000000000000000GRN       Governor                                                GRN Delilah Barrios                   Precinct 2                                             01 
00050040002000003000000000002000001000000000000000000000000000000000000000000000000000000000000000000GRN       Governor                                                GRN Delilah Barrios                   Precinct 3                                             01 
00050040003000001000000000001000000000000000000000000000000000000000000000000000000000000000000000000GRN       Governor                                                GRN Delilah Barrios                   Precinct 4                                             01 
00050040004000000000000000000000000000000000000000000000000000000000000000000000000000000000000000000GRN       Governor                                                GRN Delilah Barrios                   Precinct 5                                             01 
00050040005000002000000000002000000000000000000000000000000000000000000000000000000000000000000000000GRN       Governor                                                GRN Delilah Barrios                   Precinct 6                                             01 
00050040006000002000000000000000002000000000000000000000000000000000000000000000000000000000000000000GRN       Governor                                                GRN Delilah Barrios                   Precinct 7                                             01 
00050040007000001000000000000000001000000000000000000000000000000000000000000000000000000000000000000GRN       Governor                                                GRN Delilah Barrios                   Precinct 8                                             01 
00050040008000001000000000000000001000000000000000000000000000000000000000000000000000000000000000000GRN       Governor                                                GRN Delilah Barrios                   Precinct 9                                             01 
00050040009000001000000000000000001000000000000000000000000000000000000000000000000000000000000000000GRN       Governor                                                GRN Delilah Barrios                   Precinct 10                                            01 
00050040010000001000000000001000000000000000000000000000000000000000000000000000000000000000000000000GRN       Governor                                                GRN Delilah Barrios                   Precinct 11                                            01 
00050040011000000000000000000000000000000000000000000000000000000000000000000000000000000000000000000GRN       Governor                                                GRN Delilah Barrios                   Precinct 12                                            01 
00050040012000003000000000002000001000000000000000000000000000000000000000000000000000000000000000000GRN       Governor                                                GRN Delilah Barrios                   Precinct 13                                            01 
00050040013000000000000000000000000000000000000000000000000000000000000000000000000000000000000000000GRN       Governor                                                GRN Delilah Barrios                   Precinct 14                                            01 
00050040014000001000000000000000001000000000000000000000000000000000000000000000000000000000000000000GRN       Governor                                                GRN Delilah Barrios                   Precinct 15                                            01 
00050040015000000000000000000000000000000000000000000000000000000000000000000000000000000000000000000GRN       Governor                                                GRN Delilah Barrios                   Precinct 16                                            01 
00050060001000001000000000001000000000000000000000000000000000000000000000000000000000000000000000000NON       Governor                                                Write-in                              Precinct 2                                             01 
00050060002000001000000000000000001000000000000000000000000000000000000000000000000000000000000000000NON       Governor                                                Write-in                              Precinct 3                                             01 
00050060003000000000000000000000000000000000000000000000000000000000000000000000000000000000000000000NON       Governor                                                Write-in                              Precinct 4                                             01 
00050060004000000000000000000000000000000000000000000000000000000000000000000000000000000000000000000NON       Governor                                                Write-in                              Precinct 5                                             01 
00050060005000000000000000000000000000000000000000000000000000000000000000000000000000000000000000000NON       Governor                                                Write-in                              Precinct 6                                             01 
00050060006000000000000000000000000000000000000000000000000000000000000000000000000000000000000000000NON       Governor                                                Write-in                              Precinct 7                                             01 
00050060007000000000000000000000000000000000000000000000000000000000000000000000000000000000000000000NON       Governor                                                Write-in                              Precinct 8                                             01 
00050060008000000000000000000000000000000000000000000000000000000000000000000000000000000000000000000NON       Governor                                                Write-in                              Precinct 9                                             01 
00050060009000000000000000000000000000000000000000000000000000000000000000000000000000000000000000000NON       Governor                                                Write-in                              Precinct 10                                            01 
00050060010000002000000000001000001000000000000000000000000000000000000000000000000000000000000000000NON       Governor                                                Write-in                              Precinct 11                                            01 
00050060011000000000000000000000000000000000000000000000000000000000000000000000000000000000000000000NON       Governor                                                Write-in                              Precinct 12                                            01 
00050060012000001000000000001000000000000000000000000000000000000000000000000000000000000000000000000NON       Governor                                                Write-in                              Precinct 13                                            01 
00050060013000000000000000000000000000000000000000000000000000000000000000000000000000000000000000000NON       Governor                                                Write-in                              Precinct 14                                            01 
00050060014000000000000000000000000000000000000000000000000000000000000000000000000000000000000000000NON       Governor                                                Write-in                              Precinct 15                                            01 
00050060015000000000000000000000000000000000000000000000000000000000000000000000000000000000000000000NON       Governor                                                Write-in                              Precinct 16                                            01 
00050070001000000000000000000000000000000000000000000000000000000000000000000000000000000000000000000          Governor                                                OVER VOTES                            Precinct 2                                             01 
00050070002000000000000000000000000000000000000000000000000000000000000000000000000000000000000000000          Governor                                                OVER VOTES                            Precinct 3                                             01 
00050070003000000000000000000000000000000000000000000000000000000000000000000000000000000000000000000          Governor                                                OVER VOTES                            Precinct 4                                             01 
00050070004000000000000000000000000000000000000000000000000000000000000000000000000000000000000000000          Governor                                                OVER VOTES                            Precinct 5                                             01 
00050070005000000000000000000000000000000000000000000000000000000000000000000000000000000000000000000          Governor                                                OVER VOTES                            Precinct 6                                             01 
00050070006000000000000000000000000000000000000000000000000000000000000000000000000000000000000000000          Governor                                                OVER VOTES                            Precinct 7                                             01 
00050070007000000000000000000000000000000000000000000000000000000000000000000000000000000000000000000          Governor                                                OVER VOTES                            Precinct 8                                             01 
00050070008000000000000000000000000000000000000000000000000000000000000000000000000000000000000000000          Governor                                                OVER VOTES                            Precinct 9                                             01 
00050070009000000000000000000000000000000000000000000000000000000000000000000000000000000000000000000          Governor                                                OVER VOTES                            Precinct 10                                            01 
00050070010000000000000000000000000000000000000000000000000000000000000000000000000000000000000000000          Governor                                                OVER VOTES                            Precinct 11                                            01 
00050070011000000000000000000000000000000000000000000000000000000000000000000000000000000000000000000          Governor                                                OVER VOTES                            Precinct 12                                            01 
00050070012000000000000000000000000000000000000000000000000000000000000000000000000000000000000000000          Governor                                                OVER VOTES                            Precinct 13                                            01 
00050070013000000000000000000000000000000000000000000000000000000000000000000000000000000000000000000          Governor                                                OVER VOTES                            Precinct 14                                            01 
00050070014000000000000000000000000000000000000000000000000000000000000000000000000000000000000000000          Governor                                                OVER VOTES                            Precinct 15                                            01 
00050070015000000000000000000000000000000000000000000000000000000000000000000000000000000000000000000          Governor                                                OVER VOTES                            Precinct 16                                            01 
00050080001000004000000000003000001000000000000000000000000000000000000000000000000000000000000000000          Governor                                                UNDER VOTES                           Precinct 2                                             01 
00050080002000001000000000000000001000000000000000000000000000000000000000000000000000000000000000000          Governor                                                UNDER VOTES                           Precinct 3                                             01 
00050080003000000000000000000000000000000000000000000000000000000000000000000000000000000000000000000          Governor                                                UNDER VOTES                           Precinct 4                                             01 
00050080004000000000000000000000000000000000000000000000000000000000000000000000000000000000000000000          Governor                                                UNDER VOTES                           Precinct 5                                             01 
00050080005000002000000000002000000000000000000000000000000000000000000000000000000000000000000000000          Governor                                                UNDER VOTES                           Precinct 6                                             01 
00050080006000001000000000001000000000000000000000000000000000000000000000000000000000000000000000000          Governor                                                UNDER VOTES                           Precinct 7                                             01 
00050080007000003000000000002000001000000000000000000000000000000000000000000000000000000000000000000          Governor                                                UNDER VOTES                           Precinct 8                                             01 
00050080008000004000001000001000002000000000000000000000000000000000000000000000000000000000000000000          Governor                                                UNDER VOTES                           Precinct 9                                             01 
00050080009000001000000000001000000000000000000000000000000000000000000000000000000000000000000000000          Governor                                                UNDER VOTES                           Precinct 10                                            01 
00050080010000002000000000001000001000000000000000000000000000000000000000000000000000000000000000000          Governor                                                UNDER VOTES                           Precinct 11                                            01 
00050080011000000000000000000000000000000000000000000000000000000000000000000000000000000000000000000          Governor                                                UNDER VOTES                           Precinct 12                                            01 
00050080012000006000000000006000000000000000000000000000000000000000000000000000000000000000000000000          Governor                                                UNDER VOTES                           Precinct 13                                            01 
00050080013000000000000000000000000000000000000000000000000000000000000000000000000000000000000000000          Governor                                                UNDER VOTES                           Precinct 14                                            01 
00050080014000000000000000000000000000000000000000000000000000000000000000000000000000000000000000000          Governor                                                UNDER VOTES                           Precinct 15                                            01 
00050080015000000000000000000000000000000000000000000000000000000000000000000000000000000000000000000          Governor                                                UNDER VOTES                           Precinct 16                                            01 
00060010001001290000032000915000343000000000000000000000000000000000000000000000000000000000000000000REP       Lieutenant Governor                                     REP Dan Patrick                       Precinct 2                                             01 
00060010002000665000014000451000200000000000000000000000000000000000000000000000000000000000000000000REP       Lieutenant Governor                                     REP Dan Patrick                       Precinct 3                                             01 
00060010003000241000004000147000090000000000000000000000000000000000000000000000000000000000000000000REP       Lieutenant Governor                                     REP Dan Patrick                       Precinct 4                                             01 
00060010004000466000013000326000127000000000000000000000000000000000000000000000000000000000000000000REP       Lieutenant Governor                                     REP Dan Patrick                       Precinct 5                                             01 
00060010005000407000014000273000120000000000000000000000000000000000000000000000000000000000000000000REP       Lieutenant Governor                                     REP Dan Patrick                       Precinct 6                                             01 
00060010006000597000010000319000268000000000000000000000000000000000000000000000000000000000000000000REP       Lieutenant Governor                                     REP Dan Patrick                       Precinct 7                                             01 
00060010007000445000009000184000252000000000000000000000000000000000000000000000000000000000000000000REP       Lieutenant Governor                                     REP Dan Patrick                       Precinct 8                                             01 
00060010008000630000026000388000216000000000000000000000000000000000000000000000000000000000000000000REP       Lieutenant Governor                                     REP Dan Patrick                       Precinct 9                                             01 
00060010009000457000009000269000179000000000000000000000000000000000000000000000000000000000000000000REP       Lieutenant Governor                                     REP Dan Patrick                       Precinct 10                                            01 
00060010010000406000018000250000138000000000000000000000000000000000000000000000000000000000000000000REP       Lieutenant Governor                                     REP Dan Patrick                       Precinct 11                                            01 
00060010011000074000001000025000048000000000000000000000000000000000000000000000000000000000000000000REP       Lieutenant Governor                                     REP Dan Patrick                       Precinct 12                                            01 
00060010012000569000017000408000144000000000000000000000000000000000000000000000000000000000000000000REP       Lieutenant Governor                                     REP Dan Patrick                       Precinct 13                                            01 
00060010013000135000004000074000057000000000000000000000000000000000000000000000000000000000000000000REP       Lieutenant Governor                                     REP Dan Patrick                       Precinct 14                                            01 
00060010014000294000006000184000104000000000000000000000000000000000000000000000000000000000000000000REP       Lieutenant Governor                                     REP Dan Patrick                       Precinct 15                                            01 
00060010015000149000001000095000053000000000000000000000000000000000000000000000000000000000000000000REP       Lieutenant Governor                                     REP Dan Patrick                       Precinct 16                                            01 
00060020001000162000011000112000039000000000000000000000000000000000000000000000000000000000000000000DEM       Lieutenant Governor                                     DEM Mike Collier                      Precinct 2                                             01 
00060020002000060000008000038000014000000000000000000000000000000000000000000000000000000000000000000DEM       Lieutenant Governor                                     DEM Mike Collier                      Precinct 3                                             01 
00060020003000022000002000016000004000000000000000000000000000000000000000000000000000000000000000000DEM       Lieutenant Governor                                     DEM Mike Collier                      Precinct 4                                             01 
00060020004000059000007000029000023000000000000000000000000000000000000000000000000000000000000000000DEM       Lieutenant Governor                                     DEM Mike Collier                      Precinct 5                                             01 
00060020005000054000002000035000017000000000000000000000000000000000000000000000000000000000000000000DEM       Lieutenant Governor                                     DEM Mike Collier                      Precinct 6                                             01 
00060020006000079000006000021000052000000000000000000000000000000000000000000000000000000000000000000DEM       Lieutenant Governor                                     DEM Mike Collier                      Precinct 7                                             01 
00060020007000058000004000031000023000000000000000000000000000000000000000000000000000000000000000000DEM       Lieutenant Governor                                     DEM Mike Collier                      Precinct 8                                             01 
00060020008000087000007000052000028000000000000000000000000000000000000000000000000000000000000000000DEM       Lieutenant Governor                                     DEM Mike Collier                      Precinct 9                                             01 
00060020009000071000002000031000038000000000000000000000000000000000000000000000000000000000000000000DEM       Lieutenant Governor                                     DEM Mike Collier                      Precinct 10                                            01 
00060020010000063000000000033000030000000000000000000000000000000000000000000000000000000000000000000DEM       Lieutenant Governor                                     DEM Mike Collier                      Precinct 11                                            01 
00060020011000004000000000001000003000000000000000000000000000000000000000000000000000000000000000000DEM       Lieutenant Governor                                     DEM Mike Collier                      Precinct 12                                            01 
00060020012000047000001000038000008000000000000000000000000000000000000000000000000000000000000000000DEM       Lieutenant Governor                                     DEM Mike Collier                      Precinct 13                                            01 
00060020013000010000001000005000004000000000000000000000000000000000000000000000000000000000000000000DEM       Lieutenant Governor                                     DEM Mike Collier                      Precinct 14                                            01 
00060020014000037000004000027000006000000000000000000000000000000000000000000000000000000000000000000DEM       Lieutenant Governor                                     DEM Mike Collier                      Precinct 15                                            01 
00060020015000018000000000010000008000000000000000000000000000000000000000000000000000000000000000000DEM       Lieutenant Governor                                     DEM Mike Collier                      Precinct 16                                            01 
00060030001000021000000000012000009000000000000000000000000000000000000000000000000000000000000000000LIB       Lieutenant Governor                                     LIB Shanna Steele                     Precinct 2                                             01 
00060030002000013000000000009000004000000000000000000000000000000000000000000000000000000000000000000LIB       Lieutenant Governor                                     LIB Shanna Steele                     Precinct 3                                             01 
00060030003000006000000000003000003000000000000000000000000000000000000000000000000000000000000000000LIB       Lieutenant Governor                                     LIB Shanna Steele                     Precinct 4                                             01 
00060030004000014000001000005000008000000000000000000000000000000000000000000000000000000000000000000LIB       Lieutenant Governor                                     LIB Shanna Steele                     Precinct 5                                             01 
00060030005000011000000000004000007000000000000000000000000000000000000000000000000000000000000000000LIB       Lieutenant Governor                                     LIB Shanna Steele                     Precinct 6                                             01 
00060030006000011000000000003000008000000000000000000000000000000000000000000000000000000000000000000LIB       Lieutenant Governor                                     LIB Shanna Steele                     Precinct 7                                             01 
00060030007000001000000000000000001000000000000000000000000000000000000000000000000000000000000000000LIB       Lieutenant Governor                                     LIB Shanna Steele                     Precinct 8                                             01 
00060030008000014000000000009000005000000000000000000000000000000000000000000000000000000000000000000LIB       Lieutenant Governor                                     LIB Shanna Steele                     Precinct 9                                             01 
00060030009000010000000000005000005000000000000000000000000000000000000000000000000000000000000000000LIB       Lieutenant Governor                                     LIB Shanna Steele                     Precinct 10                                            01 
00060030010000010000000000005000005000000000000000000000000000000000000000000000000000000000000000000LIB       Lieutenant Governor                                     LIB Shanna Steele                     Precinct 11                                            01 
00060030011000000000000000000000000000000000000000000000000000000000000000000000000000000000000000000LIB       Lieutenant Governor                                     LIB Shanna Steele                     Precinct 12                                            01 
00060030012000015000000000011000004000000000000000000000000000000000000000000000000000000000000000000LIB       Lieutenant Governor                                     LIB Shanna Steele                     Precinct 13                                            01 
00060030013000001000000000001000000000000000000000000000000000000000000000000000000000000000000000000LIB       Lieutenant Governor                                     LIB Shanna Steele                     Precinct 14                                            01 
00060030014000006000000000005000001000000000000000000000000000000000000000000000000000000000000000000LIB       Lieutenant Governor                                     LIB Shanna Steele                     Precinct 15                                            01 
00060030015000001000000000001000000000000000000000000000000000000000000000000000000000000000000000000LIB       Lieutenant Governor                                     LIB Shanna Steele                     Precinct 16                                            01 
00060040001000000000000000000000000000000000000000000000000000000000000000000000000000000000000000000          Lieutenant Governor                                     OVER VOTES                            Precinct 2                                             01 
00060040002000000000000000000000000000000000000000000000000000000000000000000000000000000000000000000          Lieutenant Governor                                     OVER VOTES                            Precinct 3                                             01 
00060040003000000000000000000000000000000000000000000000000000000000000000000000000000000000000000000          Lieutenant Governor                                     OVER VOTES                            Precinct 4                                             01 
00060040004000000000000000000000000000000000000000000000000000000000000000000000000000000000000000000          Lieutenant Governor                                     OVER VOTES                            Precinct 5                                             01 
00060040005000000000000000000000000000000000000000000000000000000000000000000000000000000000000000000          Lieutenant Governor                                     OVER VOTES                            Precinct 6                                             01 
00060040006000000000000000000000000000000000000000000000000000000000000000000000000000000000000000000          Lieutenant Governor                                     OVER VOTES                            Precinct 7                                             01 
00060040007000000000000000000000000000000000000000000000000000000000000000000000000000000000000000000          Lieutenant Governor                                     OVER VOTES                            Precinct 8                                             01 
00060040008000000000000000000000000000000000000000000000000000000000000000000000000000000000000000000          Lieutenant Governor                                     OVER VOTES                            Precinct 9                                             01 
00060040009000000000000000000000000000000000000000000000000000000000000000000000000000000000000000000          Lieutenant Governor                                     OVER VOTES                            Precinct 10                                            01 
00060040010000000000000000000000000000000000000000000000000000000000000000000000000000000000000000000          Lieutenant Governor                                     OVER VOTES                            Precinct 11                                            01 
00060040011000000000000000000000000000000000000000000000000000000000000000000000000000000000000000000          Lieutenant Governor                                     OVER VOTES                            Precinct 12                                            01 
00060040012000000000000000000000000000000000000000000000000000000000000000000000000000000000000000000          Lieutenant Governor                                     OVER VOTES                            Precinct 13                                            01 
00060040013000000000000000000000000000000000000000000000000000000000000000000000000000000000000000000          Lieutenant Governor                                     OVER VOTES                            Precinct 14                                            01 
00060040014000000000000000000000000000000000000000000000000000000000000000000000000000000000000000000          Lieutenant Governor                                     OVER VOTES                            Precinct 15                                            01 
00060040015000000000000000000000000000000000000000000000000000000000000000000000000000000000000000000          Lieutenant Governor                                     OVER VOTES                            Precinct 16                                            01 
00060050001000014000001000008000005000000000000000000000000000000000000000000000000000000000000000000          Lieutenant Governor                                     UNDER VOTES                           Precinct 2                                             01 
00060050002000007000000000005000002000000000000000000000000000000000000000000000000000000000000000000          Lieutenant Governor                                     UNDER VOTES                           Precinct 3                                             01 
00060050003000003000000000003000000000000000000000000000000000000000000000000000000000000000000000000          Lieutenant Governor                                     UNDER VOTES                           Precinct 4                                             01 
00060050004000003000000000002000001000000000000000000000000000000000000000000000000000000000000000000          Lieutenant Governor                                     UNDER VOTES                           Precinct 5                                             01 
00060050005000011000001000006000004000000000000000000000000000000000000000000000000000000000000000000          Lieutenant Governor                                     UNDER VOTES                           Precinct 6                                             01 
00060050006000004000000000003000001000000000000000000000000000000000000000000000000000000000000000000          Lieutenant Governor                                     UNDER VOTES                           Precinct 7                                             01 
00060050007000008000000000004000004000000000000000000000000000000000000000000000000000000000000000000          Lieutenant Governor                                     UNDER VOTES                           Precinct 8                                             01 
00060050008000008000000000005000003000000000000000000000000000000000000000000000000000000000000000000          Lieutenant Governor                                     UNDER VOTES                           Precinct 9                                             01 
00060050009000007000000000003000004000000000000000000000000000000000000000000000000000000000000000000          Lieutenant Governor                                     UNDER VOTES                           Precinct 10                                            01 
00060050010000008000000000004000004000000000000000000000000000000000000000000000000000000000000000000          Lieutenant Governor                                     UNDER VOTES                           Precinct 11                                            01 
00060050011000001000000000000000001000000000000000000000000000000000000000000000000000000000000000000          Lieutenant Governor                                     UNDER VOTES                           Precinct 12                                            01 
00060050012000012000000000008000004000000000000000000000000000000000000000000000000000000000000000000          Lieutenant Governor                                     UNDER VOTES                           Precinct 13                                            01 
00060050013000000000000000000000000000000000000000000000000000000000000000000000000000000000000000000          Lieutenant Governor                                     UNDER VOTES                           Precinct 14                                            01 
00060050014000005000000000004000001000000000000000000000000000000000000000000000000000000000000000000          Lieutenant Governor                                     UNDER VOTES                           Precinct 15                                            01 
00060050015000000000000000000000000000000000000000000000000000000000000000000000000000000000000000000          Lieutenant Governor                                     UNDER VOTES                           Precinct 16                                            01 
00070010001001288000032000907000349000000000000000000000000000000000000000000000000000000000000000000REP       Attorney General                                        REP Ken Paxton                        Precinct 2                                             01 
00070010002000663000014000447000202000000000000000000000000000000000000000000000000000000000000000000REP       Attorney General                                        REP Ken Paxton                        Precinct 3                                             01 
00070010003000238000004000145000089000000000000000000000000000000000000000000000000000000000000000000REP       Attorney General                                        REP Ken Paxton                        Precinct 4                                             01 
00070010004000466000013000323000130000000000000000000000000000000000000000000000000000000000000000000REP       Attorney General                                        REP Ken Paxton                        Precinct 5                                             01 
00070010005000407000014000278000115000000000000000000000000000000000000000000000000000000000000000000REP       Attorney General                                        REP Ken Paxton                        Precinct 6                                             01 
00070010006000588000010000312000266000000000000000000000000000000000000000000000000000000000000000000REP       Attorney General                                        REP Ken Paxton                        Precinct 7                                             01 
00070010007000443000009000186000248000000000000000000000000000000000000000000000000000000000000000000REP       Attorney General                                        REP Ken Paxton                        Precinct 8                                             01 
00070010008000627000025000385000217000000000000000000000000000000000000000000000000000000000000000000REP       Attorney General                                        REP Ken Paxton                        Precinct 9                                             01 
00070010009000463000008000270000185000000000000000000000000000000000000000000000000000000000000000000REP       Attorney General                                        REP Ken Paxton                        Precinct 10                                            01 
00070010010000412000018000253000141000000000000000000000000000000000000000000000000000000000000000000REP       Attorney General                                        REP Ken Paxton                        Precinct 11                                            01 
00070010011000073000001000025000047000000000000000000000000000000000000000000000000000000000000000000REP       Attorney General                                        REP Ken Paxton                        Precinct 12                                            01 
00070010012000570000017000405000148000000000000000000000000000000000000000000000000000000000000000000REP       Attorney General                                        REP Ken Paxton                        Precinct 13                                            01 
00070010013000134000003000074000057000000000000000000000000000000000000000000000000000000000000000000REP       Attorney General                                        REP Ken Paxton                        Precinct 14                                            01 
00070010014000290000006000182000102000000000000000000000000000000000000000000000000000000000000000000REP       Attorney General                                        REP Ken Paxton                        Precinct 15                                            01 
00070010015000146000001000093000052000000000000000000000000000000000000000000000000000000000000000000REP       Attorney General                                        REP Ken Paxton                        Precinct 16                                            01 
00070020001000155000012000112000031000000000000000000000000000000000000000000000000000000000000000000DEM       Attorney General                                        DEM Rochelle Mercedes Garza           Precinct 2                                             01 
00070020002000058000008000037000013000000000000000000000000000000000000000000000000000000000000000000DEM       Attorney General                                        DEM Rochelle Mercedes Garza           Precinct 3                                             01 
00070020003000024000002000018000004000000000000000000000000000000000000000000000000000000000000000000DEM       Attorney General                                        DEM Rochelle Mercedes Garza           Precinct 4                                             01 
00070020004000059000007000032000020000000000000000000000000000000000000000000000000000000000000000000DEM       Attorney General                                        DEM Rochelle Mercedes Garza           Precinct 5                                             01 
00070020005000057000002000034000021000000000000000000000000000000000000000000000000000000000000000000DEM       Attorney General                                        DEM Rochelle Mercedes Garza           Precinct 6                                             01 
00070020006000079000006000023000050000000000000000000000000000000000000000000000000000000000000000000DEM       Attorney General                                        DEM Rochelle Mercedes Garza           Precinct 7                                             01 
00070020007000057000004000030000023000000000000000000000000000000000000000000000000000000000000000000DEM       Attorney General                                        DEM Rochelle Mercedes Garza           Precinct 8                                             01 
00070020008000090000007000054000029000000000000000000000000000000000000000000000000000000000000000000DEM       Attorney General                                        DEM Rochelle Mercedes Garza           Precinct 9                                             01 
00070020009000066000002000029000035000000000000000000000000000000000000000000000000000000000000000000DEM       Attorney General                                        DEM Rochelle Mercedes Garza           Precinct 10                                            01 
00070020010000051000000000028000023000000000000000000000000000000000000000000000000000000000000000000DEM       Attorney General                                        DEM Rochelle Mercedes Garza           Precinct 11                                            01 
00070020011000004000000000001000003000000000000000000000000000000000000000000000000000000000000000000DEM       Attorney General                                        DEM Rochelle Mercedes Garza           Precinct 12                                            01 
00070020012000047000001000039000007000000000000000000000000000000000000000000000000000000000000000000DEM       Attorney General                                        DEM Rochelle Mercedes Garza           Precinct 13                                            01 
00070020013000008000001000004000003000000000000000000000000000000000000000000000000000000000000000000DEM       Attorney General                                        DEM Rochelle Mercedes Garza           Precinct 14                                            01 
00070020014000041000004000029000008000000000000000000000000000000000000000000000000000000000000000000DEM       Attorney General                                        DEM Rochelle Mercedes Garza           Precinct 15                                            01 
00070020015000018000000000011000007000000000000000000000000000000000000000000000000000000000000000000DEM       Attorney General                                        DEM Rochelle Mercedes Garza           Precinct 16                                            01 
00070030001000029000000000017000012000000000000000000000000000000000000000000000000000000000000000000LIB       Attorney General                                        LIB Mark Ash                          Precinct 2                                             01 
00070030002000011000000000009000002000000000000000000000000000000000000000000000000000000000000000000LIB       Attorney General                                        LIB Mark Ash                          Precinct 3                                             01 
00070030003000006000000000003000003000000000000000000000000000000000000000000000000000000000000000000LIB       Attorney General                                        LIB Mark Ash                          Precinct 4                                             01 
00070030004000014000001000004000009000000000000000000000000000000000000000000000000000000000000000000LIB       Attorney General                                        LIB Mark Ash                          Precinct 5                                             01 
00070030005000013000000000003000010000000000000000000000000000000000000000000000000000000000000000000LIB       Attorney General                                        LIB Mark Ash                          Precinct 6                                             01 
00070030006000012000000000004000008000000000000000000000000000000000000000000000000000000000000000000LIB       Attorney General                                        LIB Mark Ash                          Precinct 7                                             01 
00070030007000004000000000000000004000000000000000000000000000000000000000000000000000000000000000000LIB       Attorney General                                        LIB Mark Ash                          Precinct 8                                             01 
00070030008000014000001000010000003000000000000000000000000000000000000000000000000000000000000000000LIB       Attorney General                                        LIB Mark Ash                          Precinct 9                                             01 
00070030009000011000001000005000005000000000000000000000000000000000000000000000000000000000000000000LIB       Attorney General                                        LIB Mark Ash                          Precinct 10                                            01 
00070030010000012000000000007000005000000000000000000000000000000000000000000000000000000000000000000LIB       Attorney General                                        LIB Mark Ash                          Precinct 11                                            01 
00070030011000001000000000000000001000000000000000000000000000000000000000000000000000000000000000000LIB       Attorney General                                        LIB Mark Ash                          Precinct 12                                            01 
00070030012000013000000000011000002000000000000000000000000000000000000000000000000000000000000000000LIB       Attorney General                                        LIB Mark Ash                          Precinct 13                                            01 
00070030013000002000000000002000000000000000000000000000000000000000000000000000000000000000000000000LIB       Attorney General                                        LIB Mark Ash                          Precinct 14                                            01 
00070030014000010000000000008000002000000000000000000000000000000000000000000000000000000000000000000LIB       Attorney General                                        LIB Mark Ash                          Precinct 15                                            01 
00070030015000002000000000002000000000000000000000000000000000000000000000000000000000000000000000000LIB       Attorney General                                        LIB Mark Ash                          Precinct 16                                            01 
00070040001000000000000000000000000000000000000000000000000000000000000000000000000000000000000000000          Attorney General                                        OVER VOTES                            Precinct 2                                             01 
00070040002000000000000000000000000000000000000000000000000000000000000000000000000000000000000000000          Attorney General                                        OVER VOTES                            Precinct 3                                             01 
00070040003000000000000000000000000000000000000000000000000000000000000000000000000000000000000000000          Attorney General                                        OVER VOTES                            Precinct 4                                             01 
00070040004000000000000000000000000000000000000000000000000000000000000000000000000000000000000000000          Attorney General                                        OVER VOTES                            Precinct 5                                             01 
00070040005000000000000000000000000000000000000000000000000000000000000000000000000000000000000000000          Attorney General                                        OVER VOTES                            Precinct 6                                             01 
00070040006000000000000000000000000000000000000000000000000000000000000000000000000000000000000000000          Attorney General                                        OVER VOTES                            Precinct 7                                             01 
00070040007000000000000000000000000000000000000000000000000000000000000000000000000000000000000000000          Attorney General                                        OVER VOTES                            Precinct 8                                             01 
00070040008000000000000000000000000000000000000000000000000000000000000000000000000000000000000000000          Attorney General                                        OVER VOTES                            Precinct 9                                             01 
00070040009000000000000000000000000000000000000000000000000000000000000000000000000000000000000000000          Attorney General                                        OVER VOTES                            Precinct 10                                            01 
00070040010000000000000000000000000000000000000000000000000000000000000000000000000000000000000000000          Attorney General                                        OVER VOTES                            Precinct 11                                            01 
00070040011000000000000000000000000000000000000000000000000000000000000000000000000000000000000000000          Attorney General                                        OVER VOTES                            Precinct 12                                            01 
00070040012000000000000000000000000000000000000000000000000000000000000000000000000000000000000000000          Attorney General                                        OVER VOTES                            Precinct 13                                            01 
00070040013000000000000000000000000000000000000000000000000000000000000000000000000000000000000000000          Attorney General                                        OVER VOTES                            Precinct 14                                            01 
00070040014000000000000000000000000000000000000000000000000000000000000000000000000000000000000000000          Attorney General                                        OVER VOTES                            Precinct 15                                            01 
00070040015000000000000000000000000000000000000000000000000000000000000000000000000000000000000000000          Attorney General                                        OVER VOTES                            Precinct 16                                            01 
00070050001000015000000000011000004000000000000000000000000000000000000000000000000000000000000000000          Attorney General                                        UNDER VOTES                           Precinct 2                                             01 
00070050002000013000000000010000003000000000000000000000000000000000000000000000000000000000000000000          Attorney General                                        UNDER VOTES                           Precinct 3                                             01 
00070050003000004000000000003000001000000000000000000000000000000000000000000000000000000000000000000          Attorney General                                        UNDER VOTES                           Precinct 4                                             01 
00070050004000003000000000003000000000000000000000000000000000000000000000000000000000000000000000000          Attorney General                                        UNDER VOTES                           Precinct 5                                             01 
00070050005000006000001000003000002000000000000000000000000000000000000000000000000000000000000000000          Attorney General                                        UNDER VOTES                           Precinct 6                                             01 
00070050006000012000000000007000005000000000000000000000000000000000000000000000000000000000000000000          Attorney General                                        UNDER VOTES                           Precinct 7                                             01 
00070050007000008000000000003000005000000000000000000000000000000000000000000000000000000000000000000          Attorney General                                        UNDER VOTES                           Precinct 8                                             01 
00070050008000008000000000005000003000000000000000000000000000000000000000000000000000000000000000000          Attorney General                                        UNDER VOTES                           Precinct 9                                             01 
00070050009000005000000000004000001000000000000000000000000000000000000000000000000000000000000000000          Attorney General                                        UNDER VOTES                           Precinct 10                                            01 
00070050010000012000000000004000008000000000000000000000000000000000000000000000000000000000000000000          Attorney General                                        UNDER VOTES                           Precinct 11                                            01 
00070050011000001000000000000000001000000000000000000000000000000000000000000000000000000000000000000          Attorney General                                        UNDER VOTES                           Precinct 12                                            01 
00070050012000013000000000010000003000000000000000000000000000000000000000000000000000000000000000000          Attorney General                                        UNDER VOTES                           Precinct 13                                            01 
00070050013000002000001000000000001000000000000000000000000000000000000000000000000000000000000000000          Attorney General                                        UNDER VOTES                           Precinct 14                                            01 
00070050014000001000000000001000000000000000000000000000000000000000000000000000000000000000000000000          Attorney General                                        UNDER VOTES                           Precinct 15                                            01 
00070050015000002000000000000000002000000000000000000000000000000000000000000000000000000000000000000          Attorney General                                        UNDER VOTES                           Precinct 16                                            01 
00080010001001314000035000928000351000000000000000000000000000000000000000000000000000000000000000000REP       Comptroller of Public Accounts                          REP Glenn Hegar                       Precinct 2                                             01 
00080010002000673000014000456000203000000000000000000000000000000000000000000000000000000000000000000REP       Comptroller of Public Accounts                          REP Glenn Hegar                       Precinct 3                                             01 
00080010003000241000005000147000089000000000000000000000000000000000000000000000000000000000000000000REP       Comptroller of Public Accounts                          REP Glenn Hegar                       Precinct 4                                             01 
00080010004000468000013000325000130000000000000000000000000000000000000000000000000000000000000000000REP       Comptroller of Public Accounts                          REP Glenn Hegar                       Precinct 5                                             01 
00080010005000414000014000278000122000000000000000000000000000000000000000000000000000000000000000000REP       Comptroller of Public Accounts                          REP Glenn Hegar                       Precinct 6                                             01 
00080010006000602000010000320000272000000000000000000000000000000000000000000000000000000000000000000REP       Comptroller of Public Accounts                          REP Glenn Hegar                       Precinct 7                                             01 
00080010007000448000009000189000250000000000000000000000000000000000000000000000000000000000000000000REP       Comptroller of Public Accounts                          REP Glenn Hegar                       Precinct 8                                             01 
00080010008000641000026000394000221000000000000000000000000000000000000000000000000000000000000000000REP       Comptroller of Public Accounts                          REP Glenn Hegar                       Precinct 9                                             01 
00080010009000472000009000275000188000000000000000000000000000000000000000000000000000000000000000000REP       Comptroller of Public Accounts                          REP Glenn Hegar                       Precinct 10                                            01 
00080010010000422000018000262000142000000000000000000000000000000000000000000000000000000000000000000REP       Comptroller of Public Accounts                          REP Glenn Hegar                       Precinct 11                                            01 
00080010011000077000001000025000051000000000000000000000000000000000000000000000000000000000000000000REP       Comptroller of Public Accounts                          REP Glenn Hegar                       Precinct 12                                            01 
00080010012000571000018000410000143000000000000000000000000000000000000000000000000000000000000000000REP       Comptroller of Public Accounts                          REP Glenn Hegar                       Precinct 13                                            01 
00080010013000136000004000077000055000000000000000000000000000000000000000000000000000000000000000000REP       Comptroller of Public Accounts                          REP Glenn Hegar                       Precinct 14                                            01 
00080010014000295000006000192000097000000000000000000000000000000000000000000000000000000000000000000REP       Comptroller of Public Accounts                          REP Glenn Hegar                       Precinct 15                                            01 
00080010015000147000001000094000052000000000000000000000000000000000000000000000000000000000000000000REP       Comptroller of Public Accounts                          REP Glenn Hegar                       Precinct 16                                            01 
00080020001000144000008000102000034000000000000000000000000000000000000000000000000000000000000000000DEM       Comptroller of Public Accounts                          DEM Janet T. Dudding                  Precinct 2                                             01 
00080020002000055000008000035000012000000000000000000000000000000000000000000000000000000000000000000DEM       Comptroller of Public Accounts                          DEM Janet T. Dudding                  Precinct 3                                             01 
