00010010001002507000000000000000000000000000000000000000000000000000000000000000000000000000000000000          REGISTERED VOTERS - TOTAL                               REGISTERED VOTERS - TOTAL             Precinct 101                                           00 
00010010002001472000000000000000000000000000000000000000000000000000000000000000000000000000000000000          REGISTERED VOTERS - TOTAL                               REGISTERED VOTERS - TOTAL             Precinct 201                                           00 
00010010003001666000000000000000000000000000000000000000000000000000000000000000000000000000000000000          REGISTERED VOTERS - TOTAL                               REGISTERED VOTERS - TOTAL             Precinct 202                                           00 
00010010004000075000000000000000000000000000000000000000000000000000000000000000000000000000000000000          REGISTERED VOTERS - TOTAL                               REGISTERED VOTERS - TOTAL             Precinct 203                                           00 
00010010005002323000000000000000000000000000000000000000000000000000000000000000000000000000000000000          REGISTERED VOTERS - TOTAL                               REGISTERED VOTERS - TOTAL             Precinct 301                                           00 
00010010006001185000000000000000000000000000000000000000000000000000000000000000000000000000000000000          REGISTERED VOTERS - TOTAL                               REGISTERED VOTERS - TOTAL             Precinct 401                                           00 
00010010007000715000000000000000000000000000000000000000000000000000000000000000000000000000000000000          REGISTERED VOTERS - TOTAL                               REGISTERED VOTERS - TOTAL             Precinct 402                                           00 
00020010001000795000025000431000339000000000000000000000000000000000000000000000000000000000000000000          BALLOTS CAST - TOTAL                                    BALLOTS CAST - TOTAL                  Precinct 101                                           00 
00020010002000715000028000421000266000000000000000000000000000000000000000000000000000000000000000000          BALLOTS CAST - TOTAL                                    BALLOTS CAST - TOTAL                  Precinct 201                                           00 
00020010003000839000030000524000285000000000000000000000000000000000000000000000000000000000000000000          BALLOTS CAST - TOTAL                                    BALLOTS CAST - TOTAL                  Precinct 202                                           00 
00020010004000041000003000004000034000000000000000000000000000000000000000000000000000000000000000000          BALLOTS CAST - TOTAL                                    BALLOTS CAST - TOTAL                  Precinct 203                                           00 
00020010005000633000023000309000301000000000000000000000000000000000000000000000000000000000000000000          BALLOTS CAST - TOTAL                                    BALLOTS CAST - TOTAL                  Precinct 301                                           00 
00020010006000526000016000257000253000000000000000000000000000000000000000000000000000000000000000000          BALLOTS CAST - TOTAL                                    BALLOTS CAST - TOTAL                  Precinct 401                                           00 
00020010007000067000002000006000059000000000000000000000000000000000000000000000000000000000000000000          BALLOTS CAST - TOTAL                                    BALLOTS CAST - TOTAL                  Precinct 402                                           00 
00030010001000000000000000000000000000000000000000000000000000000000000000000000000000000000000000000          BALLOTS CAST - BLANK                                    BALLOTS CAST - BLANK                  Precinct 101                                           00 
00030010002000000000000000000000000000000000000000000000000000000000000000000000000000000000000000000          BALLOTS CAST - BLANK                                    BALLOTS CAST - BLANK                  Precinct 201                                           00 
00030010003000000000000000000000000000000000000000000000000000000000000000000000000000000000000000000          BALLOTS CAST - BLANK                                    BALLOTS CAST - BLANK                  Precinct 202                                           00 
00030010004000000000000000000000000000000000000000000000000000000000000000000000000000000000000000000          BALLOTS CAST - BLANK                                    BALLOTS CAST - BLANK                  Precinct 203                                           00 
00030010005000000000000000000000000000000000000000000000000000000000000000000000000000000000000000000          BALLOTS CAST - BLANK                                    BALLOTS CAST - BLANK                  Precinct 301                                           00 
00030010006000000000000000000000000000000000000000000000000000000000000000000000000000000000000000000          BALLOTS CAST - BLANK                                    BALLOTS CAST - BLANK                  Precinct 401                                           00 
00030010007000000000000000000000000000000000000000000000000000000000000000000000000000000000000000000          BALLOTS CAST - BLANK                                    BALLOTS CAST - BLANK                  Precinct 402                                           00 
00040010001000647000019000368000260000000000000000000000000000000000000000000000000000000000000000000REP       US Representative, Dist 13                              REP Ronny Jackson                     Precinct 101                                           01 
00040010002000626000023000374000229000000000000000000000000000000000000000000000000000000000000000000REP       US Representative, Dist 13                              REP Ronny Jackson                     Precinct 201                                           01 
00040010003000760000024000482000254000000000000000000000000000000000000000000000000000000000000000000REP       US Representative, Dist 13                              REP Ronny Jackson                     Precinct 202                                           01 
00040010004000035000001000003000031000000000000000000000000000000000000000000000000000000000000000000REP       US Representative, Dist 13                              REP Ronny Jackson                     Precinct 203                                           01 
00040010005000495000019000261000215000000000000000000000000000000000000000000000000000000000000000000REP       US Representative, Dist 13                              REP Ronny Jackson                     Precinct 301                                           01 
00040010006000481000012000238000231000000000000000000000000000000000000000000000000000000000000000000REP       US Representative, Dist 13                              REP Ronny Jackson                     Precinct 401                                           01 
00040010007000028000000000005000023000000000000000000000000000000000000000000000000000000000000000000REP       US Representative, Dist 13                              REP Ronny Jackson                     Precinct 402                                           01 
00040020001000139000005000059000075000000000000000000000000000000000000000000000000000000000000000000DEM       US Representative, Dist 13                              DEM Kathleen Brown                    Precinct 101                                           01 
00040020002000080000004000041000035000000000000000000000000000000000000000000000000000000000000000000DEM       US Representative, Dist 13                              DEM Kathleen Brown                    Precinct 201                                           01 
00040020003000072000006000038000028000000000000000000000000000000000000000000000000000000000000000000DEM       US Representative, Dist 13                              DEM Kathleen Brown                    Precinct 202                                           01 
00040020004000006000002000001000003000000000000000000000000000000000000000000000000000000000000000000DEM       US Representative, Dist 13                              DEM Kathleen Brown                    Precinct 203                                           01 
00040020005000126000004000042000080000000000000000000000000000000000000000000000000000000000000000000DEM       US Representative, Dist 13                              DEM Kathleen Brown                    Precinct 301                                           01 
00040020006000038000003000016000019000000000000000000000000000000000000000000000000000000000000000000DEM       US Representative, Dist 13                              DEM Kathleen Brown                    Precinct 401                                           01 
00040020007000032000002000001000029000000000000000000000000000000000000000000000000000000000000000000DEM       US Representative, Dist 13                              DEM Kathleen Brown                    Precinct 402                                           01 
00050010001000645000020000363000262000000000000000000000000000000000000000000000000000000000000000000REP       Governor                                                REP Greg Abbott                       Precinct 101                                           01 
00050010002000634000024000380000230000000000000000000000000000000000000000000000000000000000000000000REP       Governor                                                REP Greg Abbott                       Precinct 201                                           01 
00050010003000769000023000486000260000000000000000000000000000000000000000000000000000000000000000000REP       Governor                                                REP Greg Abbott                       Precinct 202                                           01 
00050010004000035000001000003000031000000000000000000000000000000000000000000000000000000000000000000REP       Governor                                                REP Greg Abbott                       Precinct 203                                           01 
00050010005000489000019000255000215000000000000000000000000000000000000000000000000000000000000000000REP       Governor                                                REP Greg Abbott                       Precinct 301                                           01 
00050010006000482000012000239000231000000000000000000000000000000000000000000000000000000000000000000REP       Governor                                                REP Greg Abbott                       Precinct 401                                           01 
00050010007000027000000000005000022000000000000000000000000000000000000000000000000000000000000000000REP       Governor                                                REP Greg Abbott                       Precinct 402                                           01 
00050020001000133000005000061000067000000000000000000000000000000000000000000000000000000000000000000DEM       Governor                                                DEM Beto O'Rourke                     Precinct 101                                           01 
00050020002000076000004000040000032000000000000000000000000000000000000000000000000000000000000000000DEM       Governor                                                DEM Beto O'Rourke                     Precinct 201                                           01 
00050020003000058000006000032000020000000000000000000000000000000000000000000000000000000000000000000DEM       Governor                                                DEM Beto O'Rourke                     Precinct 202                                           01 
00050020004000005000002000000000003000000000000000000000000000000000000000000000000000000000000000000DEM       Governor                                                DEM Beto O'Rourke                     Precinct 203                                           01 
00050020005000131000004000048000079000000000000000000000000000000000000000000000000000000000000000000DEM       Governor                                                DEM Beto O'Rourke                     Precinct 301                                           01 
00050020006000038000004000014000020000000000000000000000000000000000000000000000000000000000000000000DEM       Governor                                                DEM Beto O'Rourke                     Precinct 401                                           01 
00050020007000038000002000001000035000000000000000000000000000000000000000000000000000000000000000000DEM       Governor                                                DEM Beto O'Rourke                     Precinct 402                                           01 
00050030001000010000000000005000005000000000000000000000000000000000000000000000000000000000000000000LIB       Governor                                                LIB Mark Tippetts                     Precinct 101                                           01 
00050030002000003000000000001000002000000000000000000000000000000000000000000000000000000000000000000LIB       Governor                                                LIB Mark Tippetts                     Precinct 201                                           01 
00050030003000007000001000003000003000000000000000000000000000000000000000000000000000000000000000000LIB       Governor                                                LIB Mark Tippetts                     Precinct 202                                           01 
00050030004000000000000000000000000000000000000000000000000000000000000000000000000000000000000000000LIB       Governor                                                LIB Mark Tippetts                     Precinct 203                                           01 
00050030005000004000000000002000002000000000000000000000000000000000000000000000000000000000000000000LIB       Governor                                                LIB Mark Tippetts                     Precinct 301                                           01 
00050030006000003000000000001000002000000000000000000000000000000000000000000000000000000000000000000LIB       Governor                                                LIB Mark Tippetts                     Precinct 401                                           01 
00050030007000000000000000000000000000000000000000000000000000000000000000000000000000000000000000000LIB       Governor                                                LIB Mark Tippetts                     Precinct 402                                           01 
00050040001000004000000000001000003000000000000000000000000000000000000000000000000000000000000000000GRN       Governor                                                GRN Delilah Barrios                   Precinct 101                                           01 
00050040002000001000000000000000001000000000000000000000000000000000000000000000000000000000000000000GRN       Governor                                                GRN Delilah Barrios                   Precinct 201                                           01 
00050040003000002000000000001000001000000000000000000000000000000000000000000000000000000000000000000GRN       Governor                                                GRN Delilah Barrios                   Precinct 202                                           01 
00050040004000001000000000001000000000000000000000000000000000000000000000000000000000000000000000000GRN       Governor                                                GRN Delilah Barrios                   Precinct 203                                           01 
00050040005000004000000000001000003000000000000000000000000000000000000000000000000000000000000000000GRN       Governor                                                GRN Delilah Barrios                   Precinct 301                                           01 
00050040006000001000000000001000000000000000000000000000000000000000000000000000000000000000000000000GRN       Governor                                                GRN Delilah Barrios                   Precinct 401                                           01 
00050040007000001000000000000000001000000000000000000000000000000000000000000000000000000000000000000GRN       Governor                                                GRN Delilah Barrios                   Precinct 402                                           01 
00050060001000001000000000001000000000000000000000000000000000000000000000000000000000000000000000000NON       Governor                                                Write-in                              Precinct 101                                           01 
00050060002000000000000000000000000000000000000000000000000000000000000000000000000000000000000000000NON       Governor                                                Write-in                              Precinct 201                                           01 
00050060003000000000000000000000000000000000000000000000000000000000000000000000000000000000000000000NON       Governor                                                Write-in                              Precinct 202                                           01 
00050060004000000000000000000000000000000000000000000000000000000000000000000000000000000000000000000NON       Governor                                                Write-in                              Precinct 203                                           01 
00050060005000001000000000001000000000000000000000000000000000000000000000000000000000000000000000000NON       Governor                                                Write-in                              Precinct 301                                           01 
00050060006000000000000000000000000000000000000000000000000000000000000000000000000000000000000000000NON       Governor                                                Write-in                              Precinct 401                                           01 
00050060007000000000000000000000000000000000000000000000000000000000000000000000000000000000000000000NON       Governor                                                Write-in                              Precinct 402                                           01 
00060010001000622000017000354000251000000000000000000000000000000000000000000000000000000000000000000REP       Lieutenant Governor                                     REP Dan Patrick                       Precinct 101                                           01 
00060010002000609000023000363000223000000000000000000000000000000000000000000000000000000000000000000REP       Lieutenant Governor                                     REP Dan Patrick                       Precinct 201                                           01 
00060010003000731000023000460000248000000000000000000000000000000000000000000000000000000000000000000REP       Lieutenant Governor                                     REP Dan Patrick                       Precinct 202                                           01 
00060010004000035000001000003000031000000000000000000000000000000000000000000000000000000000000000000REP       Lieutenant Governor                                     REP Dan Patrick                       Precinct 203                                           01 
00060010005000483000019000253000211000000000000000000000000000000000000000000000000000000000000000000REP       Lieutenant Governor                                     REP Dan Patrick                       Precinct 301                                           01 
00060010006000470000012000234000224000000000000000000000000000000000000000000000000000000000000000000REP       Lieutenant Governor                                     REP Dan Patrick                       Precinct 401                                           01 
00060010007000025000000000005000020000000000000000000000000000000000000000000000000000000000000000000REP       Lieutenant Governor                                     REP Dan Patrick                       Precinct 402                                           01 
00060020001000146000006000069000071000000000000000000000000000000000000000000000000000000000000000000DEM       Lieutenant Governor                                     DEM Mike Collier                      Precinct 101                                           01 
00060020002000087000004000048000035000000000000000000000000000000000000000000000000000000000000000000DEM       Lieutenant Governor                                     DEM Mike Collier                      Precinct 201                                           01 
00060020003000072000007000043000022000000000000000000000000000000000000000000000000000000000000000000DEM       Lieutenant Governor                                     DEM Mike Collier                      Precinct 202                                           01 
00060020004000005000002000000000003000000000000000000000000000000000000000000000000000000000000000000DEM       Lieutenant Governor                                     DEM Mike Collier                      Precinct 203                                           01 
00060020005000121000004000043000074000000000000000000000000000000000000000000000000000000000000000000DEM       Lieutenant Governor                                     DEM Mike Collier                      Precinct 301                                           01 
00060020006000046000004000020000022000000000000000000000000000000000000000000000000000000000000000000DEM       Lieutenant Governor                                     DEM Mike Collier                      Precinct 401                                           01 
00060020007000032000002000001000029000000000000000000000000000000000000000000000000000000000000000000DEM       Lieutenant Governor                                     DEM Mike Collier                      Precinct 402                                           01 
00060030001000018000001000003000014000000000000000000000000000000000000000000000000000000000000000000LIB       Lieutenant Governor                                     LIB Shanna Steele                     Precinct 101                                           01 
00060030002000011000001000005000005000000000000000000000000000000000000000000000000000000000000000000LIB       Lieutenant Governor                                     LIB Shanna Steele                     Precinct 201                                           01 
00060030003000029000000000018000011000000000000000000000000000000000000000000000000000000000000000000LIB       Lieutenant Governor                                     LIB Shanna Steele                     Precinct 202                                           01 
00060030004000001000000000001000000000000000000000000000000000000000000000000000000000000000000000000LIB       Lieutenant Governor                                     LIB Shanna Steele                     Precinct 203                                           01 
00060030005000015000000000009000006000000000000000000000000000000000000000000000000000000000000000000LIB       Lieutenant Governor                                     LIB Shanna Steele                     Precinct 301                                           01 
00060030006000007000000000002000005000000000000000000000000000000000000000000000000000000000000000000LIB       Lieutenant Governor                                     LIB Shanna Steele                     Precinct 401                                           01 
00060030007000003000000000000000003000000000000000000000000000000000000000000000000000000000000000000LIB       Lieutenant Governor                                     LIB Shanna Steele                     Precinct 402                                           01 
00070010001000626000018000358000250000000000000000000000000000000000000000000000000000000000000000000REP       Attorney General                                        REP Ken Paxton                        Precinct 101                                           01 
00070010002000617000023000366000228000000000000000000000000000000000000000000000000000000000000000000REP       Attorney General                                        REP Ken Paxton                        Precinct 201                                           01 
00070010003000740000025000467000248000000000000000000000000000000000000000000000000000000000000000000REP       Attorney General                                        REP Ken Paxton                        Precinct 202                                           01 
00070010004000035000001000003000031000000000000000000000000000000000000000000000000000000000000000000REP       Attorney General                                        REP Ken Paxton                        Precinct 203                                           01 
00070010005000489000019000256000214000000000000000000000000000000000000000000000000000000000000000000REP       Attorney General                                        REP Ken Paxton                        Precinct 301                                           01 
00070010006000475000012000234000229000000000000000000000000000000000000000000000000000000000000000000REP       Attorney General                                        REP Ken Paxton                        Precinct 401                                           01 
00070010007000026000000000004000022000000000000000000000000000000000000000000000000000000000000000000REP       Attorney General                                        REP Ken Paxton                        Precinct 402                                           01 
00070020001000143000005000066000072000000000000000000000000000000000000000000000000000000000000000000DEM       Attorney General                                        DEM Rochelle Mercedes Garza           Precinct 101                                           01 
00070020002000080000004000043000033000000000000000000000000000000000000000000000000000000000000000000DEM       Attorney General                                        DEM Rochelle Mercedes Garza           Precinct 201                                           01 
00070020003000068000005000037000026000000000000000000000000000000000000000000000000000000000000000000DEM       Attorney General                                        DEM Rochelle Mercedes Garza           Precinct 202                                           01 
00070020004000006000002000001000003000000000000000000000000000000000000000000000000000000000000000000DEM       Attorney General                                        DEM Rochelle Mercedes Garza           Precinct 203                                           01 
00070020005000127000004000048000075000000000000000000000000000000000000000000000000000000000000000000DEM       Attorney General                                        DEM Rochelle Mercedes Garza           Precinct 301                                           01 
00070020006000040000004000016000020000000000000000000000000000000000000000000000000000000000000000000DEM       Attorney General                                        DEM Rochelle Mercedes Garza           Precinct 401                                           01 
00070020007000034000002000002000030000000000000000000000000000000000000000000000000000000000000000000DEM       Attorney General                                        DEM Rochelle Mercedes Garza           Precinct 402                                           01 
00070030001000014000001000002000011000000000000000000000000000000000000000000000000000000000000000000LIB       Attorney General                                        LIB Mark Ash                          Precinct 101                                           01 
00070030002000009000001000007000001000000000000000000000000000000000000000000000000000000000000000000LIB       Attorney General                                        LIB Mark Ash                          Precinct 201                                           01 
00070030003000027000000000018000009000000000000000000000000000000000000000000000000000000000000000000LIB       Attorney General                                        LIB Mark Ash                          Precinct 202                                           01 
00070030004000000000000000000000000000000000000000000000000000000000000000000000000000000000000000000LIB       Attorney General                                        LIB Mark Ash                          Precinct 203                                           01 
00070030005000007000000000002000005000000000000000000000000000000000000000000000000000000000000000000LIB       Attorney General                                        LIB Mark Ash                          Precinct 301                                           01 
00070030006000008000000000006000002000000000000000000000000000000000000000000000000000000000000000000LIB       Attorney General                                        LIB Mark Ash                          Precinct 401                                           01 
00070030007000000000000000000000000000000000000000000000000000000000000000000000000000000000000000000LIB       Attorney General                                        LIB Mark Ash                          Precinct 402                                           01 
00080010001000625000018000362000245000000000000000000000000000000000000000000000000000000000000000000REP       Comptroller of Public Accounts                          REP Glenn Hegar                       Precinct 101                                           01 
00080010002000610000022000364000224000000000000000000000000000000000000000000000000000000000000000000REP       Comptroller of Public Accounts                          REP Glenn Hegar                       Precinct 201                                           01 
00080010003000745000024000475000246000000000000000000000000000000000000000000000000000000000000000000REP       Comptroller of Public Accounts                          REP Glenn Hegar                       Precinct 202                                           01 
00080010004000039000003000003000033000000000000000000000000000000000000000000000000000000000000000000REP       Comptroller of Public Accounts                          REP Glenn Hegar                       Precinct 203                                           01 
00080010005000486000019000255000212000000000000000000000000000000000000000000000000000000000000000000REP       Comptroller of Public Accounts                          REP Glenn Hegar                       Precinct 301                                           01 
00080010006000474000012000234000228000000000000000000000000000000000000000000000000000000000000000000REP       Comptroller of Public Accounts                          REP Glenn Hegar                       Precinct 401                                           01 
00080010007000025000000000005000020000000000000000000000000000000000000000000000000000000000000000000REP       Comptroller of Public Accounts                          REP Glenn Hegar                       Precinct 402                                           01 
00080020001000134000005000061000068000000000000000000000000000000000000000000000000000000000000000000DEM       Comptroller of Public Accounts                          DEM Janet T. Dudding                  Precinct 101                                           01 
00080020002000074000003000042000029000000000000000000000000000000000000000000000000000000000000000000DEM       Comptroller of Public Accounts                          DEM Janet T. Dudding                  Precinct 201                                           01 
00080020003000062000005000034000023000000000000000000000000000000000000000000000000000000000000000000DEM       Comptroller of Public Accounts                          DEM Janet T. Dudding                  Precinct 202                                           01 
00080020004000001000000000000000001000000000000000000000000000000000000000000000000000000000000000000DEM       Comptroller of Public Accounts                          DEM Janet T. Dudding                  Precinct 203                                           01 
00080020005000108000004000038000066000000000000000000000000000000000000000000000000000000000000000000DEM       Comptroller of Public Accounts                          DEM Janet T. Dudding                  Precinct 301                                           01 
00080020006000034000004000013000017000000000000000000000000000000000000000000000000000000000000000000DEM       Comptroller of Public Accounts                          DEM Janet T. Dudding                  Precinct 401                                           01 
00080020007000029000001000001000027000000000000000000000000000000000000000000000000000000000000000000DEM       Comptroller of Public Accounts                          DEM Janet T. Dudding                  Precinct 402                                           01 
00080030001000022000001000001000020000000000000000000000000000000000000000000000000000000000000000000LIB       Comptroller of Public Accounts                          LIB V. Alonzo Echevarria-Garza        Precinct 101                                           01 
00080030002000011000001000005000005000000000000000000000000000000000000000000000000000000000000000000LIB       Comptroller of Public Accounts                          LIB V. Alonzo Echevarria-Garza        Precinct 201                                           01 
00080030003000018000000000010000008000000000000000000000000000000000000000000000000000000000000000000LIB       Comptroller of Public Accounts                          LIB V. Alonzo Echevarria-Garza        Precinct 202                                           01 
00080030004000001000000000001000000000000000000000000000000000000000000000000000000000000000000000000LIB       Comptroller of Public Accounts                          LIB V. Alonzo Echevarria-Garza        Precinct 203                                           01 
00080030005000021000000000009000012000000000000000000000000000000000000000000000000000000000000000000LIB       Comptroller of Public Accounts                          LIB V. Alonzo Echevarria-Garza        Precinct 301                                           01 
00080030006000011000000000006000005000000000000000000000000000000000000000000000000000000000000000000LIB       Comptroller of Public Accounts                          LIB V. Alonzo Echevarria-Garza        Precinct 401                                           01 
00080030007000006000001000000000005000000000000000000000000000000000000000000000000000000000000000000LIB       Comptroller of Public Accounts                          LIB V. Alonzo Echevarria-Garza        Precinct 402                                           01 
00090010001000624000018000353000253000000000000000000000000000000000000000000000000000000000000000000REP       Comm. General Land Office                               REP Dawn Buckingham                   Precinct 101                                           01 
00090010002000619000024000370000225000000000000000000000000000000000000000000000000000000000000000000REP       Comm. General Land Office                               REP Dawn Buckingham                   Precinct 201                                           01 
00090010003000758000024000483000251000000000000000000000000000000000000000000000000000000000000000000REP       Comm. General Land Office                               REP Dawn Buckingham                   Precinct 202                                           01 
00090010004000037000001000004000032000000000000000000000000000000000000000000000000000000000000000000REP       Comm. General Land Office                               REP Dawn Buckingham                   Precinct 203                                           01 
00090010005000491000019000255000217000000000000000000000000000000000000000000000000000000000000000000REP       Comm. General Land Office                               REP Dawn Buckingham                   Precinct 301                                           01 
00090010006000477000012000234000231000000000000000000000000000000000000000000000000000000000000000000REP       Comm. General Land Office                               REP Dawn Buckingham                   Precinct 401                                           01 
00090010007000030000000000005000025000000000000000000000000000000000000000000000000000000000000000000REP       Comm. General Land Office                               REP Dawn Buckingham                   Precinct 402                                           01 
00090020001000141000006000067000068000000000000000000000000000000000000000000000000000000000000000000DEM       Comm. General Land Office                               DEM Jay Kleberg                       Precinct 101                                           01 
00090020002000076000003000039000034000000000000000000000000000000000000000000000000000000000000000000DEM       Comm. General Land Office                               DEM Jay Kleberg                       Precinct 201                                           01 
00090020003000059000004000034000021000000000000000000000000000000000000000000000000000000000000000000DEM       Comm. General Land Office                               DEM Jay Kleberg                       Precinct 202                                           01 
00090020004000004000002000000000002000000000000000000000000000000000000000000000000000000000000000000DEM       Comm. General Land Office                               DEM Jay Kleberg                       Precinct 203                                           01 
00090020005000117000004000046000067000000000000000000000000000000000000000000000000000000000000000000DEM       Comm. General Land Office                               DEM Jay Kleberg                       Precinct 301                                           01 
00090020006000040000004000017000019000000000000000000000000000000000000000000000000000000000000000000DEM       Comm. General Land Office                               DEM Jay Kleberg                       Precinct 401                                           01 
00090020007000029000002000001000026000000000000000000000000000000000000000000000000000000000000000000DEM       Comm. General Land Office                               DEM Jay Kleberg                       Precinct 402                                           01 
00090030001000010000000000003000007000000000000000000000000000000000000000000000000000000000000000000GRN       Comm. General Land Office                               GRN Alfred Molison, Jr.               Precinct 101                                           01 
00090030002000002000000000001000001000000000000000000000000000000000000000000000000000000000000000000GRN       Comm. General Land Office                               GRN Alfred Molison, Jr.               Precinct 201                                           01 
00090030003000003000001000000000002000000000000000000000000000000000000000000000000000000000000000000GRN       Comm. General Land Office                               GRN Alfred Molison, Jr.               Precinct 202                                           01 
00090030004000000000000000000000000000000000000000000000000000000000000000000000000000000000000000000GRN       Comm. General Land Office                               GRN Alfred Molison, Jr.               Precinct 203                                           01 
00090030005000011000000000003000008000000000000000000000000000000000000000000000000000000000000000000GRN       Comm. General Land Office                               GRN Alfred Molison, Jr.               Precinct 301                                           01 
00090030006000003000000000003000000000000000000000000000000000000000000000000000000000000000000000000GRN       Comm. General Land Office                               GRN Alfred Molison, Jr.               Precinct 401                                           01 
00090030007000000000000000000000000000000000000000000000000000000000000000000000000000000000000000000GRN       Comm. General Land Office                               GRN Alfred Molison, Jr.               Precinct 402                                           01 
00090050001000001000000000000000001000000000000000000000000000000000000000000000000000000000000000000NON       Comm. General Land Office                               Write-in                              Precinct 101                                           01 
00090050002000000000000000000000000000000000000000000000000000000000000000000000000000000000000000000NON       Comm. General Land Office                               Write-in                              Precinct 201                                           01 
00090050003000001000000000001000000000000000000000000000000000000000000000000000000000000000000000000NON       Comm. General Land Office                               Write-in                              Precinct 202                                           01 
00090050004000000000000000000000000000000000000000000000000000000000000000000000000000000000000000000NON       Comm. General Land Office                               Write-in                              Precinct 203                                           01 
00090050005000000000000000000000000000000000000000000000000000000000000000000000000000000000000000000NON       Comm. General Land Office                               Write-in                              Precinct 301                                           01 
00090050006000000000000000000000000000000000000000000000000000000000000000000000000000000000000000000NON       Comm. General Land Office                               Write-in                              Precinct 401                                           01 
00090050007000000000000000000000000000000000000000000000000000000000000000000000000000000000000000000NON       Comm. General Land Office                               Write-in                              Precinct 402                                           01 
00100010001000636000019000360000257000000000000000000000000000000000000000000000000000000000000000000REP       Commissioner of Agriculture                             REP Sid Miller                        Precinct 101                                           01 
00100010002000614000021000368000225000000000000000000000000000000000000000000000000000000000000000000REP       Commissioner of Agriculture                             REP Sid Miller                        Precinct 201                                           01 
00100010003000756000024000480000252000000000000000000000000000000000000000000000000000000000000000000REP       Commissioner of Agriculture                             REP Sid Miller                        Precinct 202                                           01 
00100010004000036000001000003000032000000000000000000000000000000000000000000000000000000000000000000REP       Commissioner of Agriculture                             REP Sid Miller                        Precinct 203                                           01 
00100010005000495000019000260000216000000000000000000000000000000000000000000000000000000000000000000REP       Commissioner of Agriculture                             REP Sid Miller                        Precinct 301                                           01 
00100010006000476000012000236000228000000000000000000000000000000000000000000000000000000000000000000REP       Commissioner of Agriculture                             REP Sid Miller                        Precinct 401                                           01 
00100010007000028000000000005000023000000000000000000000000000000000000000000000000000000000000000000REP       Commissioner of Agriculture                             REP Sid Miller                        Precinct 402                                           01 
00100020001000139000005000059000075000000000000000000000000000000000000000000000000000000000000000000DEM       Commissioner of Agriculture                             DEM Susan Hays                        Precinct 101                                           01 
00100020002000083000006000044000033000000000000000000000000000000000000000000000000000000000000000000DEM       Commissioner of Agriculture                             DEM Susan Hays                        Precinct 201                                           01 
00100020003000065000005000034000026000000000000000000000000000000000000000000000000000000000000000000DEM       Commissioner of Agriculture                             DEM Susan Hays                        Precinct 202                                           01 
00100020004000004000002000001000001000000000000000000000000000000000000000000000000000000000000000000DEM       Commissioner of Agriculture                             DEM Susan Hays                        Precinct 203                                           01 
00100020005000123000004000042000077000000000000000000000000000000000000000000000000000000000000000000DEM       Commissioner of Agriculture                             DEM Susan Hays                        Precinct 301                                           01 
00100020006000044000004000019000021000000000000000000000000000000000000000000000000000000000000000000DEM       Commissioner of Agriculture                             DEM Susan Hays                        Precinct 401                                           01 
00100020007000034000002000001000031000000000000000000000000000000000000000000000000000000000000000000DEM       Commissioner of Agriculture                             DEM Susan Hays                        Precinct 402                                           01 
00110010001000618000017000352000249000000000000000000000000000000000000000000000000000000000000000000REP       Railroad Commissioner                                   REP Wayne Christian                   Precinct 101                                           01 
00110010002000613000023000366000224000000000000000000000000000000000000000000000000000000000000000000REP       Railroad Commissioner                                   REP Wayne Christian                   Precinct 201                                           01 
00110010003000733000024000462000247000000000000000000000000000000000000000000000000000000000000000000REP       Railroad Commissioner                                   REP Wayne Christian                   Precinct 202                                           01 
00110010004000036000001000003000032000000000000000000000000000000000000000000000000000000000000000000REP       Railroad Commissioner                                   REP Wayne Christian                   Precinct 203                                           01 
00110010005000483000019000254000210000000000000000000000000000000000000000000000000000000000000000000REP       Railroad Commissioner                                   REP Wayne Christian                   Precinct 301                                           01 
00110010006000471000012000232000227000000000000000000000000000000000000000000000000000000000000000000REP       Railroad Commissioner                                   REP Wayne Christian                   Precinct 401                                           01 
00110010007000028000000000005000023000000000000000000000000000000000000000000000000000000000000000000REP       Railroad Commissioner                                   REP Wayne Christian                   Precinct 402                                           01 
00110020001000127000006000057000064000000000000000000000000000000000000000000000000000000000000000000DEM       Railroad Commissioner                                   DEM Luke Warford                      Precinct 101                                           01 
00110020002000070000003000038000029000000000000000000000000000000000000000000000000000000000000000000DEM       Railroad Commissioner                                   DEM Luke Warford                      Precinct 201                                           01 
00110020003000061000005000035000021000000000000000000000000000000000000000000000000000000000000000000DEM       Railroad Commissioner                                   DEM Luke Warford                      Precinct 202                                           01 
00110020004000003000002000000000001000000000000000000000000000000000000000000000000000000000000000000DEM       Railroad Commissioner                                   DEM Luke Warford                      Precinct 203                                           01 
00110020005000109000004000039000066000000000000000000000000000000000000000000000000000000000000000000DEM       Railroad Commissioner                                   DEM Luke Warford                      Precinct 301                                           01 
00110020006000037000004000016000017000000000000000000000000000000000000000000000000000000000000000000DEM       Railroad Commissioner                                   DEM Luke Warford                      Precinct 401                                           01 
00110020007000027000002000001000024000000000000000000000000000000000000000000000000000000000000000000DEM       Railroad Commissioner                                   DEM Luke Warford                      Precinct 402                                           01 
00110030001000027000001000006000020000000000000000000000000000000000000000000000000000000000000000000LIB       Railroad Commissioner                                   LIB Jaime Andres Diez                 Precinct 101                                           01 
00110030002000011000001000004000006000000000000000000000000000000000000000000000000000000000000000000LIB       Railroad Commissioner                                   LIB Jaime Andres Diez                 Precinct 201                                           01 
00110030003000024000000000016000008000000000000000000000000000000000000000000000000000000000000000000LIB       Railroad Commissioner                                   LIB Jaime Andres Diez                 Precinct 202                                           01 
00110030004000001000000000001000000000000000000000000000000000000000000000000000000000000000000000000LIB       Railroad Commissioner                                   LIB Jaime Andres Diez                 Precinct 203                                           01 
00110030005000020000000000006000014000000000000000000000000000000000000000000000000000000000000000000LIB       Railroad Commissioner                                   LIB Jaime Andres Diez                 Precinct 301                                           01 
00110030006000011000000000005000006000000000000000000000000000000000000000000000000000000000000000000LIB       Railroad Commissioner                                   LIB Jaime Andres Diez                 Precinct 401                                           01 
00110030007000004000000000000000004000000000000000000000000000000000000000000000000000000000000000000LIB       Railroad Commissioner                                   LIB Jaime Andres Diez                 Precinct 402                                           01 
00110040001000002000000000002000000000000000000000000000000000000000000000000000000000000000000000000GRN       Railroad Commissioner                                   GRN Hunter Wayne Crow                 Precinct 101                                           01 
00110040002000003000000000003000000000000000000000000000000000000000000000000000000000000000000000000GRN       Railroad Commissioner                                   GRN Hunter Wayne Crow                 Precinct 201                                           01 
00110040003000005000000000001000004000000000000000000000000000000000000000000000000000000000000000000GRN       Railroad Commissioner                                   GRN Hunter Wayne Crow                 Precinct 202                                           01 
00110040004000000000000000000000000000000000000000000000000000000000000000000000000000000000000000000GRN       Railroad Commissioner                                   GRN Hunter Wayne Crow                 Precinct 203                                           01 
00110040005000004000000000002000002000000000000000000000000000000000000000000000000000000000000000000GRN       Railroad Commissioner                                   GRN Hunter Wayne Crow                 Precinct 301                                           01 
00110040006000002000000000001000001000000000000000000000000000000000000000000000000000000000000000000GRN       Railroad Commissioner                                   GRN Hunter Wayne Crow                 Precinct 401                                           01 
00110040007000001000000000000000001000000000000000000000000000000000000000000000000000000000000000000GRN       Railroad Commissioner                                   GRN Hunter Wayne Crow                 Precinct 402                                           01 
00120010001000623000017000355000251000000000000000000000000000000000000000000000000000000000000000000REP       Justice, Supreme Ct. Pl. 3                              REP Debra Lehrmann                    Precinct 101                                           01 
00120010002000613000023000365000225000000000000000000000000000000000000000000000000000000000000000000REP       Justice, Supreme Ct. Pl. 3                              REP Debra Lehrmann                    Precinct 201                                           01 
00120010003000746000024000470000252000000000000000000000000000000000000000000000000000000000000000000REP       Justice, Supreme Ct. Pl. 3                              REP Debra Lehrmann                    Precinct 202                                           01 
00120010004000037000001000004000032000000000000000000000000000000000000000000000000000000000000000000REP       Justice, Supreme Ct. Pl. 3                              REP Debra Lehrmann                    Precinct 203                                           01 
00120010005000482000019000254000209000000000000000000000000000000000000000000000000000000000000000000REP       Justice, Supreme Ct. Pl. 3                              REP Debra Lehrmann                    Precinct 301                                           01 
00120010006000473000012000233000228000000000000000000000000000000000000000000000000000000000000000000REP       Justice, Supreme Ct. Pl. 3                              REP Debra Lehrmann                    Precinct 401                                           01 
00120010007000028000000000005000023000000000000000000000000000000000000000000000000000000000000000000REP       Justice, Supreme Ct. Pl. 3                              REP Debra Lehrmann                    Precinct 402                                           01 
00120020001000139000006000062000071000000000000000000000000000000000000000000000000000000000000000000DEM       Justice, Supreme Ct. Pl. 3                              DEM Erin A. Nowell                    Precinct 101                                           01 
00120020002000079000003000043000033000000000000000000000000000000000000000000000000000000000000000000DEM       Justice, Supreme Ct. Pl. 3                              DEM Erin A. Nowell                    Precinct 201                                           01 
00120020003000065000006000036000023000000000000000000000000000000000000000000000000000000000000000000DEM       Justice, Supreme Ct. Pl. 3                              DEM Erin A. Nowell                    Precinct 202                                           01 
00120020004000003000002000000000001000000000000000000000000000000000000000000000000000000000000000000DEM       Justice, Supreme Ct. Pl. 3                              DEM Erin A. Nowell                    Precinct 203                                           01 
00120020005000125000004000044000077000000000000000000000000000000000000000000000000000000000000000000DEM       Justice, Supreme Ct. Pl. 3                              DEM Erin A. Nowell                    Precinct 301                                           01 
00120020006000040000004000016000020000000000000000000000000000000000000000000000000000000000000000000DEM       Justice, Supreme Ct. Pl. 3                              DEM Erin A. Nowell                    Precinct 401                                           01 
00120020007000032000002000001000029000000000000000000000000000000000000000000000000000000000000000000DEM       Justice, Supreme Ct. Pl. 3                              DEM Erin A. Nowell                    Precinct 402                                           01 
00120030001000012000001000001000010000000000000000000000000000000000000000000000000000000000000000000LIB       Justice, Supreme Ct. Pl. 3                              LIB Thomas Edward Oxford              Precinct 101                                           01 
00120030002000007000001000004000002000000000000000000000000000000000000000000000000000000000000000000LIB       Justice, Supreme Ct. Pl. 3                              LIB Thomas Edward Oxford              Precinct 201                                           01 
00120030003000013000000000009000004000000000000000000000000000000000000000000000000000000000000000000LIB       Justice, Supreme Ct. Pl. 3                              LIB Thomas Edward Oxford              Precinct 202                                           01 
00120030004000000000000000000000000000000000000000000000000000000000000000000000000000000000000000000LIB       Justice, Supreme Ct. Pl. 3                              LIB Thomas Edward Oxford              Precinct 203                                           01 
00120030005000011000000000004000007000000000000000000000000000000000000000000000000000000000000000000LIB       Justice, Supreme Ct. Pl. 3                              LIB Thomas Edward Oxford              Precinct 301                                           01 
00120030006000006000000000005000001000000000000000000000000000000000000000000000000000000000000000000LIB       Justice, Supreme Ct. Pl. 3                              LIB Thomas Edward Oxford              Precinct 401                                           01 
00120030007000000000000000000000000000000000000000000000000000000000000000000000000000000000000000000LIB       Justice, Supreme Ct. Pl. 3                              LIB Thomas Edward Oxford              Precinct 402                                           01 
00130010001000637000019000356000262000000000000000000000000000000000000000000000000000000000000000000REP       Justice, Supreme Ct. Pl. 5                              REP Rebeca Huddle                     Precinct 101                                           01 
00130010002000624000025000370000229000000000000000000000000000000000000000000000000000000000000000000REP       Justice, Supreme Ct. Pl. 5                              REP Rebeca Huddle                     Precinct 201                                           01 
00130010003000751000023000473000255000000000000000000000000000000000000000000000000000000000000000000REP       Justice, Supreme Ct. Pl. 5                              REP Rebeca Huddle                     Precinct 202                                           01 
00130010004000035000001000003000031000000000000000000000000000000000000000000000000000000000000000000REP       Justice, Supreme Ct. Pl. 5                              REP Rebeca Huddle                     Precinct 203                                           01 
00130010005000482000019000253000210000000000000000000000000000000000000000000000000000000000000000000REP       Justice, Supreme Ct. Pl. 5                              REP Rebeca Huddle                     Precinct 301                                           01 
00130010006000481000012000236000233000000000000000000000000000000000000000000000000000000000000000000REP       Justice, Supreme Ct. Pl. 5                              REP Rebeca Huddle                     Precinct 401                                           01 
00130010007000025000000000005000020000000000000000000000000000000000000000000000000000000000000000000REP       Justice, Supreme Ct. Pl. 5                              REP Rebeca Huddle                     Precinct 402                                           01 
00130020001000134000005000061000068000000000000000000000000000000000000000000000000000000000000000000DEM       Justice, Supreme Ct. Pl. 5                              DEM Amanda Reichek                    Precinct 101                                           01 
00130020002000074000002000042000030000000000000000000000000000000000000000000000000000000000000000000DEM       Justice, Supreme Ct. Pl. 5                              DEM Amanda Reichek                    Precinct 201                                           01 
00130020003000068000006000039000023000000000000000000000000000000000000000000000000000000000000000000DEM       Justice, Supreme Ct. Pl. 5                              DEM Amanda Reichek                    Precinct 202                                           01 
00130020004000004000002000001000001000000000000000000000000000000000000000000000000000000000000000000DEM       Justice, Supreme Ct. Pl. 5                              DEM Amanda Reichek                    Precinct 203                                           01 
00130020005000129000004000045000080000000000000000000000000000000000000000000000000000000000000000000DEM       Justice, Supreme Ct. Pl. 5                              DEM Amanda Reichek                    Precinct 301                                           01 
00130020006000037000004000018000015000000000000000000000000000000000000000000000000000000000000000000DEM       Justice, Supreme Ct. Pl. 5                              DEM Amanda Reichek                    Precinct 401                                           01 
00130020007000034000002000001000031000000000000000000000000000000000000000000000000000000000000000000DEM       Justice, Supreme Ct. Pl. 5                              DEM Amanda Reichek                    Precinct 402                                           01 
00140010001000620000019000351000250000000000000000000000000000000000000000000000000000000000000000000REP       Justice, Supreme Ct. Pl. 9                              REP Evan Young                        Precinct 101                                           01 
00140010002000610000024000362000224000000000000000000000000000000000000000000000000000000000000000000REP       Justice, Supreme Ct. Pl. 9                              REP Evan Young                        Precinct 201                                           01 
00140010003000755000024000476000255000000000000000000000000000000000000000000000000000000000000000000REP       Justice, Supreme Ct. Pl. 9                              REP Evan Young                        Precinct 202                                           01 
00140010004000034000001000003000030000000000000000000000000000000000000000000000000000000000000000000REP       Justice, Supreme Ct. Pl. 9                              REP Evan Young                        Precinct 203                                           01 
00140010005000479000019000254000206000000000000000000000000000000000000000000000000000000000000000000REP       Justice, Supreme Ct. Pl. 9                              REP Evan Young                        Precinct 301                                           01 
00140010006000476000012000237000227000000000000000000000000000000000000000000000000000000000000000000REP       Justice, Supreme Ct. Pl. 9                              REP Evan Young                        Precinct 401                                           01 
00140010007000026000000000005000021000000000000000000000000000000000000000000000000000000000000000000REP       Justice, Supreme Ct. Pl. 9                              REP Evan Young                        Precinct 402                                           01 
00140020001000147000005000064000078000000000000000000000000000000000000000000000000000000000000000000DEM       Justice, Supreme Ct. Pl. 9                              DEM Julia Maldonado                   Precinct 101                                           01 
00140020002000087000003000048000036000000000000000000000000000000000000000000000000000000000000000000DEM       Justice, Supreme Ct. Pl. 9                              DEM Julia Maldonado                   Precinct 201                                           01 
00140020003000062000006000034000022000000000000000000000000000000000000000000000000000000000000000000DEM       Justice, Supreme Ct. Pl. 9                              DEM Julia Maldonado                   Precinct 202                                           01 
00140020004000004000002000001000001000000000000000000000000000000000000000000000000000000000000000000DEM       Justice, Supreme Ct. Pl. 9                              DEM Julia Maldonado                   Precinct 203                                           01 
00140020005000132000004000044000084000000000000000000000000000000000000000000000000000000000000000000DEM       Justice, Supreme Ct. Pl. 9                              DEM Julia Maldonado                   Precinct 301                                           01 
00140020006000041000004000017000020000000000000000000000000000000000000000000000000000000000000000000DEM       Justice, Supreme Ct. Pl. 9                              DEM Julia Maldonado                   Precinct 401                                           01 
00140020007000036000002000001000033000000000000000000000000000000000000000000000000000000000000000000DEM       Justice, Supreme Ct. Pl. 9                              DEM Julia Maldonado                   Precinct 402                                           01 
00150010001000629000018000358000253000000000000000000000000000000000000000000000000000000000000000000REP       Judge, Ct of Crim. Appeals, Pl 5                        REP Scott Walker                      Precinct 101                                           01 
00150010002000620000023000371000226000000000000000000000000000000000000000000000000000000000000000000REP       Judge, Ct of Crim. Appeals, Pl 5                        REP Scott Walker                      Precinct 201                                           01 
00150010003000755000024000475000256000000000000000000000000000000000000000000000000000000000000000000REP       Judge, Ct of Crim. Appeals, Pl 5                        REP Scott Walker                      Precinct 202                                           01 
00150010004000035000001000004000030000000000000000000000000000000000000000000000000000000000000000000REP       Judge, Ct of Crim. Appeals, Pl 5                        REP Scott Walker                      Precinct 203                                           01 
00150010005000481000019000255000207000000000000000000000000000000000000000000000000000000000000000000REP       Judge, Ct of Crim. Appeals, Pl 5                        REP Scott Walker                      Precinct 301                                           01 
00150010006000475000012000236000227000000000000000000000000000000000000000000000000000000000000000000REP       Judge, Ct of Crim. Appeals, Pl 5                        REP Scott Walker                      Precinct 401                                           01 
00150010007000026000000000005000021000000000000000000000000000000000000000000000000000000000000000000REP       Judge, Ct of Crim. Appeals, Pl 5                        REP Scott Walker                      Precinct 402                                           01 
00150020001000144000006000061000077000000000000000000000000000000000000000000000000000000000000000000DEM       Judge, Ct of Crim. Appeals, Pl 5                        DEM Dana Huffman                      Precinct 101                                           01 
00150020002000080000004000042000034000000000000000000000000000000000000000000000000000000000000000000DEM       Judge, Ct of Crim. Appeals, Pl 5                        DEM Dana Huffman                      Precinct 201                                           01 
00150020003000066000006000039000021000000000000000000000000000000000000000000000000000000000000000000DEM       Judge, Ct of Crim. Appeals, Pl 5                        DEM Dana Huffman                      Precinct 202                                           01 
00150020004000004000002000000000002000000000000000000000000000000000000000000000000000000000000000000DEM       Judge, Ct of Crim. Appeals, Pl 5                        DEM Dana Huffman                      Precinct 203                                           01 
00150020005000131000004000045000082000000000000000000000000000000000000000000000000000000000000000000DEM       Judge, Ct of Crim. Appeals, Pl 5                        DEM Dana Huffman                      Precinct 301                                           01 
00150020006000040000004000015000021000000000000000000000000000000000000000000000000000000000000000000DEM       Judge, Ct of Crim. Appeals, Pl 5                        DEM Dana Huffman                      Precinct 401                                           01 
00150020007000034000002000001000031000000000000000000000000000000000000000000000000000000000000000000DEM       Judge, Ct of Crim. Appeals, Pl 5                        DEM Dana Huffman                      Precinct 402                                           01 
00160010001000627000018000353000256000000000000000000000000000000000000000000000000000000000000000000REP       Judge, Ct of Crim. Appeals, Pl 6                        REP Jesse F. McClure, III             Precinct 101                                           01 
00160010002000618000024000370000224000000000000000000000000000000000000000000000000000000000000000000REP       Judge, Ct of Crim. Appeals, Pl 6                        REP Jesse F. McClure, III             Precinct 201                                           01 
00160010003000751000023000478000250000000000000000000000000000000000000000000000000000000000000000000REP       Judge, Ct of Crim. Appeals, Pl 6                        REP Jesse F. McClure, III             Precinct 202                                           01 
00160010004000036000001000004000031000000000000000000000000000000000000000000000000000000000000000000REP       Judge, Ct of Crim. Appeals, Pl 6                        REP Jesse F. McClure, III             Precinct 203                                           01 
00160010005000482000019000256000207000000000000000000000000000000000000000000000000000000000000000000REP       Judge, Ct of Crim. Appeals, Pl 6                        REP Jesse F. McClure, III             Precinct 301                                           01 
00160010006000476000012000234000230000000000000000000000000000000000000000000000000000000000000000000REP       Judge, Ct of Crim. Appeals, Pl 6                        REP Jesse F. McClure, III             Precinct 401                                           01 
00160010007000028000000000005000023000000000000000000000000000000000000000000000000000000000000000000REP       Judge, Ct of Crim. Appeals, Pl 6                        REP Jesse F. McClure, III             Precinct 402                                           01 
00160020001000143000006000062000075000000000000000000000000000000000000000000000000000000000000000000DEM       Judge, Ct of Crim. Appeals, Pl 6                        DEM Robert Johnson                    Precinct 101                                           01 
00160020002000080000003000041000036000000000000000000000000000000000000000000000000000000000000000000DEM       Judge, Ct of Crim. Appeals, Pl 6                        DEM Robert Johnson                    Precinct 201                                           01 
00160020003000067000007000036000024000000000000000000000000000000000000000000000000000000000000000000DEM       Judge, Ct of Crim. Appeals, Pl 6                        DEM Robert Johnson                    Precinct 202                                           01 
00160020004000003000002000000000001000000000000000000000000000000000000000000000000000000000000000000DEM       Judge, Ct of Crim. Appeals, Pl 6                        DEM Robert Johnson                    Precinct 203                                           01 
00160020005000128000004000044000080000000000000000000000000000000000000000000000000000000000000000000DEM       Judge, Ct of Crim. Appeals, Pl 6                        DEM Robert Johnson                    Precinct 301                                           01 
00160020006000038000004000017000017000000000000000000000000000000000000000000000000000000000000000000DEM       Judge, Ct of Crim. Appeals, Pl 6                        DEM Robert Johnson                    Precinct 401                                           01 
00160020007000031000002000001000028000000000000000000000000000000000000000000000000000000000000000000DEM       Judge, Ct of Crim. Appeals, Pl 6                        DEM Robert Johnson                    Precinct 402                                           01 
00170010001000659000021000371000267000000000000000000000000000000000000000000000000000000000000000000REP       State Representative, District 87                       REP Four Price                        Precinct 101                                           01 
00170010002000639000024000381000234000000000000000000000000000000000000000000000000000000000000000000REP       State Representative, District 87                       REP Four Price                        Precinct 201                                           01 
00170010003000779000024000492000263000000000000000000000000000000000000000000000000000000000000000000REP       State Representative, District 87                       REP Four Price                        Precinct 202                                           01 
00170010004000039000003000004000032000000000000000000000000000000000000000000000000000000000000000000REP       State Representative, District 87                       REP Four Price                        Precinct 203                                           01 
00170010005000498000018000264000216000000000000000000000000000000000000000000000000000000000000000000REP       State Representative, District 87                       REP Four Price                        Precinct 301                                           01 
00170010006000487000013000240000234000000000000000000000000000000000000000000000000000000000000000000REP       State Representative, District 87                       REP Four Price                        Precinct 401                                           01 
00170010007000034000000000005000029000000000000000000000000000000000000000000000000000000000000000000REP       State Representative, District 87                       REP Four Price                        Precinct 402                                           01 
00170020001000097000003000040000054000000000000000000000000000000000000000000000000000000000000000000LIB       State Representative, District 87                       LIB Nick Hearn                        Precinct 101                                           01 
00170020002000049000002000029000018000000000000000000000000000000000000000000000000000000000000000000LIB       State Representative, District 87                       LIB Nick Hearn                        Precinct 201                                           01 
00170020003000044000004000021000019000000000000000000000000000000000000000000000000000000000000000000LIB       State Representative, District 87                       LIB Nick Hearn                        Precinct 202                                           01 
00170020004000000000000000000000000000000000000000000000000000000000000000000000000000000000000000000LIB       State Representative, District 87                       LIB Nick Hearn                        Precinct 203                                           01 
00170020005000094000002000030000062000000000000000000000000000000000000000000000000000000000000000000LIB       State Representative, District 87                       LIB Nick Hearn                        Precinct 301                                           01 
00170020006000025000002000011000012000000000000000000000000000000000000000000000000000000000000000000LIB       State Representative, District 87                       LIB Nick Hearn                        Precinct 401                                           01 
00170020007000016000002000000000014000000000000000000000000000000000000000000000000000000000000000000LIB       State Representative, District 87                       LIB Nick Hearn                        Precinct 402                                           01 
