00010010001000980000000000000000000000000000000000000000000000000000000000000000000000000000000000000          REGISTERED VOTERS - TOTAL                               REGISTERED VOTERS - TOTAL             Precinct 1                                             00 
00010010002001073000000000000000000000000000000000000000000000000000000000000000000000000000000000000          REGISTERED VOTERS - TOTAL                               REGISTERED VOTERS - TOTAL             Precinct 2                                             00 
00010010003001744000000000000000000000000000000000000000000000000000000000000000000000000000000000000          REGISTERED VOTERS - TOTAL                               REGISTERED VOTERS - TOTAL             Precinct 3                                             00 
00010010004001845000000000000000000000000000000000000000000000000000000000000000000000000000000000000          REGISTERED VOTERS - TOTAL                               REGISTERED VOTERS - TOTAL             Precinct 4                                             00 
00010010005000148000000000000000000000000000000000000000000000000000000000000000000000000000000000000          REGISTERED VOTERS - TOTAL                               REGISTERED VOTERS - TOTAL             Precinct 5                                             00 
00010010006001069000000000000000000000000000000000000000000000000000000000000000000000000000000000000          REGISTERED VOTERS - TOTAL                               REGISTERED VOTERS - TOTAL             Precinct 6                                             00 
00010010007000289000000000000000000000000000000000000000000000000000000000000000000000000000000000000          REGISTERED VOTERS - TOTAL                               REGISTERED VOTERS - TOTAL             Precinct 7                                             00 
00010010008000168000000000000000000000000000000000000000000000000000000000000000000000000000000000000          REGISTERED VOTERS - TOTAL                               REGISTERED VOTERS - TOTAL             Precinct 8                                             00 
00010010009001452000000000000000000000000000000000000000000000000000000000000000000000000000000000000          REGISTERED VOTERS - TOTAL                               REGISTERED VOTERS - TOTAL             Precinct 9                                             00 
00020010001000379000014000179000186000000000000000000000000000000000000000000000000000000000000000000          BALLOTS CAST - TOTAL                                    BALLOTS CAST - TOTAL                  Precinct 1                                             00 
00020010002000581000019000251000311000000000000000000000000000000000000000000000000000000000000000000          BALLOTS CAST - TOTAL                                    BALLOTS CAST - TOTAL                  Precinct 2                                             00 
00020010003000648000026000312000310000000000000000000000000000000000000000000000000000000000000000000          BALLOTS CAST - TOTAL                                    BALLOTS CAST - TOTAL                  Precinct 3                                             00 
00020010004000553000022000236000295000000000000000000000000000000000000000000000000000000000000000000          BALLOTS CAST - TOTAL                                    BALLOTS CAST - TOTAL                  Precinct 4                                             00 
00020010005000105000006000027000072000000000000000000000000000000000000000000000000000000000000000000          BALLOTS CAST - TOTAL                                    BALLOTS CAST - TOTAL                  Precinct 5                                             00 
00020010006000479000012000173000294000000000000000000000000000000000000000000000000000000000000000000          BALLOTS CAST - TOTAL                                    BALLOTS CAST - TOTAL                  Precinct 6                                             00 
00020010007000190000005000038000147000000000000000000000000000000000000000000000000000000000000000000          BALLOTS CAST - TOTAL                                    BALLOTS CAST - TOTAL                  Precinct 7                                             00 
00020010008000115000001000038000076000000000000000000000000000000000000000000000000000000000000000000          BALLOTS CAST - TOTAL                                    BALLOTS CAST - TOTAL                  Precinct 8                                             00 
00020010009000770000016000359000395000000000000000000000000000000000000000000000000000000000000000000          BALLOTS CAST - TOTAL                                    BALLOTS CAST - TOTAL                  Precinct 9                                             00 
00030010001000000000000000000000000000000000000000000000000000000000000000000000000000000000000000000          BALLOTS CAST - BLANK                                    BALLOTS CAST - BLANK                  Precinct 1                                             00 
00030010002000000000000000000000000000000000000000000000000000000000000000000000000000000000000000000          BALLOTS CAST - BLANK                                    BALLOTS CAST - BLANK                  Precinct 2                                             00 
00030010003000000000000000000000000000000000000000000000000000000000000000000000000000000000000000000          BALLOTS CAST - BLANK                                    BALLOTS CAST - BLANK                  Precinct 3                                             00 
00030010004000000000000000000000000000000000000000000000000000000000000000000000000000000000000000000          BALLOTS CAST - BLANK                                    BALLOTS CAST - BLANK                  Precinct 4                                             00 
00030010005000000000000000000000000000000000000000000000000000000000000000000000000000000000000000000          BALLOTS CAST - BLANK                                    BALLOTS CAST - BLANK                  Precinct 5                                             00 
00030010006000001000000000000000001000000000000000000000000000000000000000000000000000000000000000000          BALLOTS CAST - BLANK                                    BALLOTS CAST - BLANK                  Precinct 6                                             00 
00030010007000000000000000000000000000000000000000000000000000000000000000000000000000000000000000000          BALLOTS CAST - BLANK                                    BALLOTS CAST - BLANK                  Precinct 7                                             00 
00030010008000000000000000000000000000000000000000000000000000000000000000000000000000000000000000000          BALLOTS CAST - BLANK                                    BALLOTS CAST - BLANK                  Precinct 8                                             00 
00030010009000000000000000000000000000000000000000000000000000000000000000000000000000000000000000000          BALLOTS CAST - BLANK                                    BALLOTS CAST - BLANK                  Precinct 9                                             00 
00040010001000283000007000134000142000000000000000000000000000000000000000000000000000000000000000000REP       US Representative, Dist 19                              REP Jodey C. Arrington                Precinct 1                                             01 
00040010002000504000009000221000274000000000000000000000000000000000000000000000000000000000000000000REP       US Representative, Dist 19                              REP Jodey C. Arrington                Precinct 2                                             01 
00040010003000512000020000235000257000000000000000000000000000000000000000000000000000000000000000000REP       US Representative, Dist 19                              REP Jodey C. Arrington                Precinct 3                                             01 
00040010004000408000008000174000226000000000000000000000000000000000000000000000000000000000000000000REP       US Representative, Dist 19                              REP Jodey C. Arrington                Precinct 4                                             01 
00040010005000087000003000020000064000000000000000000000000000000000000000000000000000000000000000000REP       US Representative, Dist 19                              REP Jodey C. Arrington                Precinct 5                                             01 
00040010006000418000008000145000265000000000000000000000000000000000000000000000000000000000000000000REP       US Representative, Dist 19                              REP Jodey C. Arrington                Precinct 6                                             01 
00040010007000174000005000034000135000000000000000000000000000000000000000000000000000000000000000000REP       US Representative, Dist 19                              REP Jodey C. Arrington                Precinct 7                                             01 
00040010008000103000001000033000069000000000000000000000000000000000000000000000000000000000000000000REP       US Representative, Dist 19                              REP Jodey C. Arrington                Precinct 8                                             01 
00040010009000674000010000320000344000000000000000000000000000000000000000000000000000000000000000000REP       US Representative, Dist 19                              REP Jodey C. Arrington                Precinct 9                                             01 
00040020001000080000005000036000039000000000000000000000000000000000000000000000000000000000000000000IND       US Representative, Dist 19                              IND Nathan Lewis                      Precinct 1                                             01 
00040020002000063000005000024000034000000000000000000000000000000000000000000000000000000000000000000IND       US Representative, Dist 19                              IND Nathan Lewis                      Precinct 2                                             01 
00040020003000112000005000064000043000000000000000000000000000000000000000000000000000000000000000000IND       US Representative, Dist 19                              IND Nathan Lewis                      Precinct 3                                             01 
00040020004000106000007000044000055000000000000000000000000000000000000000000000000000000000000000000IND       US Representative, Dist 19                              IND Nathan Lewis                      Precinct 4                                             01 
00040020005000016000003000007000006000000000000000000000000000000000000000000000000000000000000000000IND       US Representative, Dist 19                              IND Nathan Lewis                      Precinct 5                                             01 
00040020006000043000003000019000021000000000000000000000000000000000000000000000000000000000000000000IND       US Representative, Dist 19                              IND Nathan Lewis                      Precinct 6                                             01 
00040020007000013000000000003000010000000000000000000000000000000000000000000000000000000000000000000IND       US Representative, Dist 19                              IND Nathan Lewis                      Precinct 7                                             01 
00040020008000009000000000005000004000000000000000000000000000000000000000000000000000000000000000000IND       US Representative, Dist 19                              IND Nathan Lewis                      Precinct 8                                             01 
00040020009000078000005000030000043000000000000000000000000000000000000000000000000000000000000000000IND       US Representative, Dist 19                              IND Nathan Lewis                      Precinct 9                                             01 
00040030001000000000000000000000000000000000000000000000000000000000000000000000000000000000000000000          US Representative, Dist 19                              OVER VOTES                            Precinct 1                                             01 
00040030002000000000000000000000000000000000000000000000000000000000000000000000000000000000000000000          US Representative, Dist 19                              OVER VOTES                            Precinct 2                                             01 
00040030003000000000000000000000000000000000000000000000000000000000000000000000000000000000000000000          US Representative, Dist 19                              OVER VOTES                            Precinct 3                                             01 
00040030004000000000000000000000000000000000000000000000000000000000000000000000000000000000000000000          US Representative, Dist 19                              OVER VOTES                            Precinct 4                                             01 
00040030005000000000000000000000000000000000000000000000000000000000000000000000000000000000000000000          US Representative, Dist 19                              OVER VOTES                            Precinct 5                                             01 
00040030006000000000000000000000000000000000000000000000000000000000000000000000000000000000000000000          US Representative, Dist 19                              OVER VOTES                            Precinct 6                                             01 
00040030007000000000000000000000000000000000000000000000000000000000000000000000000000000000000000000          US Representative, Dist 19                              OVER VOTES                            Precinct 7                                             01 
00040030008000000000000000000000000000000000000000000000000000000000000000000000000000000000000000000          US Representative, Dist 19                              OVER VOTES                            Precinct 8                                             01 
00040030009000000000000000000000000000000000000000000000000000000000000000000000000000000000000000000          US Representative, Dist 19                              OVER VOTES                            Precinct 9                                             01 
00040040001000016000002000009000005000000000000000000000000000000000000000000000000000000000000000000          US Representative, Dist 19                              UNDER VOTES                           Precinct 1                                             01 
00040040002000014000005000006000003000000000000000000000000000000000000000000000000000000000000000000          US Representative, Dist 19                              UNDER VOTES                           Precinct 2                                             01 
00040040003000024000001000013000010000000000000000000000000000000000000000000000000000000000000000000          US Representative, Dist 19                              UNDER VOTES                           Precinct 3                                             01 
00040040004000039000007000018000014000000000000000000000000000000000000000000000000000000000000000000          US Representative, Dist 19                              UNDER VOTES                           Precinct 4                                             01 
00040040005000002000000000000000002000000000000000000000000000000000000000000000000000000000000000000          US Representative, Dist 19                              UNDER VOTES                           Precinct 5                                             01 
00040040006000018000001000009000008000000000000000000000000000000000000000000000000000000000000000000          US Representative, Dist 19                              UNDER VOTES                           Precinct 6                                             01 
00040040007000003000000000001000002000000000000000000000000000000000000000000000000000000000000000000          US Representative, Dist 19                              UNDER VOTES                           Precinct 7                                             01 
00040040008000003000000000000000003000000000000000000000000000000000000000000000000000000000000000000          US Representative, Dist 19                              UNDER VOTES                           Precinct 8                                             01 
00040040009000018000001000009000008000000000000000000000000000000000000000000000000000000000000000000          US Representative, Dist 19                              UNDER VOTES                           Precinct 9                                             01 
00050010001000277000007000136000134000000000000000000000000000000000000000000000000000000000000000000REP       Governor                                                REP Greg Abbott                       Precinct 1                                             01 
00050010002000486000010000220000256000000000000000000000000000000000000000000000000000000000000000000REP       Governor                                                REP Greg Abbott                       Precinct 2                                             01 
00050010003000499000018000228000253000000000000000000000000000000000000000000000000000000000000000000REP       Governor                                                REP Greg Abbott                       Precinct 3                                             01 
00050010004000391000008000173000210000000000000000000000000000000000000000000000000000000000000000000REP       Governor                                                REP Greg Abbott                       Precinct 4                                             01 
00050010005000087000004000018000065000000000000000000000000000000000000000000000000000000000000000000REP       Governor                                                REP Greg Abbott                       Precinct 5                                             01 
00050010006000409000008000146000255000000000000000000000000000000000000000000000000000000000000000000REP       Governor                                                REP Greg Abbott                       Precinct 6                                             01 
00050010007000176000004000035000137000000000000000000000000000000000000000000000000000000000000000000REP       Governor                                                REP Greg Abbott                       Precinct 7                                             01 
00050010008000103000001000031000071000000000000000000000000000000000000000000000000000000000000000000REP       Governor                                                REP Greg Abbott                       Precinct 8                                             01 
00050010009000665000009000318000338000000000000000000000000000000000000000000000000000000000000000000REP       Governor                                                REP Greg Abbott                       Precinct 9                                             01 
00050020001000094000007000040000047000000000000000000000000000000000000000000000000000000000000000000DEM       Governor                                                DEM Beto O'Rourke                     Precinct 1                                             01 
00050020002000086000009000028000049000000000000000000000000000000000000000000000000000000000000000000DEM       Governor                                                DEM Beto O'Rourke                     Precinct 2                                             01 
00050020003000142000006000081000055000000000000000000000000000000000000000000000000000000000000000000DEM       Governor                                                DEM Beto O'Rourke                     Precinct 3                                             01 
00050020004000144000013000056000075000000000000000000000000000000000000000000000000000000000000000000DEM       Governor                                                DEM Beto O'Rourke                     Precinct 4                                             01 
00050020005000016000002000008000006000000000000000000000000000000000000000000000000000000000000000000DEM       Governor                                                DEM Beto O'Rourke                     Precinct 5                                             01 
00050020006000056000004000024000028000000000000000000000000000000000000000000000000000000000000000000DEM       Governor                                                DEM Beto O'Rourke                     Precinct 6                                             01 
00050020007000011000000000002000009000000000000000000000000000000000000000000000000000000000000000000DEM       Governor                                                DEM Beto O'Rourke                     Precinct 7                                             01 
00050020008000012000000000007000005000000000000000000000000000000000000000000000000000000000000000000DEM       Governor                                                DEM Beto O'Rourke                     Precinct 8                                             01 
00050020009000086000007000033000046000000000000000000000000000000000000000000000000000000000000000000DEM       Governor                                                DEM Beto O'Rourke                     Precinct 9                                             01 
00050030001000004000000000002000002000000000000000000000000000000000000000000000000000000000000000000LIB       Governor                                                LIB Mark Tippetts                     Precinct 1                                             01 
00050030002000003000000000001000002000000000000000000000000000000000000000000000000000000000000000000LIB       Governor                                                LIB Mark Tippetts                     Precinct 2                                             01 
00050030003000004000001000002000001000000000000000000000000000000000000000000000000000000000000000000LIB       Governor                                                LIB Mark Tippetts                     Precinct 3                                             01 
00050030004000006000000000002000004000000000000000000000000000000000000000000000000000000000000000000LIB       Governor                                                LIB Mark Tippetts                     Precinct 4                                             01 
00050030005000001000000000001000000000000000000000000000000000000000000000000000000000000000000000000LIB       Governor                                                LIB Mark Tippetts                     Precinct 5                                             01 
00050030006000010000000000001000009000000000000000000000000000000000000000000000000000000000000000000LIB       Governor                                                LIB Mark Tippetts                     Precinct 6                                             01 
00050030007000002000000000001000001000000000000000000000000000000000000000000000000000000000000000000LIB       Governor                                                LIB Mark Tippetts                     Precinct 7                                             01 
00050030008000000000000000000000000000000000000000000000000000000000000000000000000000000000000000000LIB       Governor                                                LIB Mark Tippetts                     Precinct 8                                             01 
00050030009000011000000000005000006000000000000000000000000000000000000000000000000000000000000000000LIB       Governor                                                LIB Mark Tippetts                     Precinct 9                                             01 
00050040001000002000000000001000001000000000000000000000000000000000000000000000000000000000000000000GRN       Governor                                                GRN Delilah Barrios                   Precinct 1                                             01 
00050040002000002000000000001000001000000000000000000000000000000000000000000000000000000000000000000GRN       Governor                                                GRN Delilah Barrios                   Precinct 2                                             01 
00050040003000003000001000001000001000000000000000000000000000000000000000000000000000000000000000000GRN       Governor                                                GRN Delilah Barrios                   Precinct 3                                             01 
00050040004000008000000000002000006000000000000000000000000000000000000000000000000000000000000000000GRN       Governor                                                GRN Delilah Barrios                   Precinct 4                                             01 
00050040005000000000000000000000000000000000000000000000000000000000000000000000000000000000000000000GRN       Governor                                                GRN Delilah Barrios                   Precinct 5                                             01 
00050040006000000000000000000000000000000000000000000000000000000000000000000000000000000000000000000GRN       Governor                                                GRN Delilah Barrios                   Precinct 6                                             01 
00050040007000000000000000000000000000000000000000000000000000000000000000000000000000000000000000000GRN       Governor                                                GRN Delilah Barrios                   Precinct 7                                             01 
00050040008000000000000000000000000000000000000000000000000000000000000000000000000000000000000000000GRN       Governor                                                GRN Delilah Barrios                   Precinct 8                                             01 
00050040009000005000000000001000004000000000000000000000000000000000000000000000000000000000000000000GRN       Governor                                                GRN Delilah Barrios                   Precinct 9                                             01 
00050060001000001000000000000000001000000000000000000000000000000000000000000000000000000000000000000NON       Governor                                                Write-in                              Precinct 1                                             01 
00050060002000000000000000000000000000000000000000000000000000000000000000000000000000000000000000000NON       Governor                                                Write-in                              Precinct 2                                             01 
00050060003000000000000000000000000000000000000000000000000000000000000000000000000000000000000000000NON       Governor                                                Write-in                              Precinct 3                                             01 
00050060004000000000000000000000000000000000000000000000000000000000000000000000000000000000000000000NON       Governor                                                Write-in                              Precinct 4                                             01 
00050060005000000000000000000000000000000000000000000000000000000000000000000000000000000000000000000NON       Governor                                                Write-in                              Precinct 5                                             01 
00050060006000000000000000000000000000000000000000000000000000000000000000000000000000000000000000000NON       Governor                                                Write-in                              Precinct 6                                             01 
00050060007000001000001000000000000000000000000000000000000000000000000000000000000000000000000000000NON       Governor                                                Write-in                              Precinct 7                                             01 
00050060008000000000000000000000000000000000000000000000000000000000000000000000000000000000000000000NON       Governor                                                Write-in                              Precinct 8                                             01 
00050060009000000000000000000000000000000000000000000000000000000000000000000000000000000000000000000NON       Governor                                                Write-in                              Precinct 9                                             01 
00050070001000000000000000000000000000000000000000000000000000000000000000000000000000000000000000000          Governor                                                OVER VOTES                            Precinct 1                                             01 
00050070002000000000000000000000000000000000000000000000000000000000000000000000000000000000000000000          Governor                                                OVER VOTES                            Precinct 2                                             01 
00050070003000000000000000000000000000000000000000000000000000000000000000000000000000000000000000000          Governor                                                OVER VOTES                            Precinct 3                                             01 
00050070004000000000000000000000000000000000000000000000000000000000000000000000000000000000000000000          Governor                                                OVER VOTES                            Precinct 4                                             01 
00050070005000000000000000000000000000000000000000000000000000000000000000000000000000000000000000000          Governor                                                OVER VOTES                            Precinct 5                                             01 
00050070006000000000000000000000000000000000000000000000000000000000000000000000000000000000000000000          Governor                                                OVER VOTES                            Precinct 6                                             01 
00050070007000000000000000000000000000000000000000000000000000000000000000000000000000000000000000000          Governor                                                OVER VOTES                            Precinct 7                                             01 
00050070008000000000000000000000000000000000000000000000000000000000000000000000000000000000000000000          Governor                                                OVER VOTES                            Precinct 8                                             01 
00050070009000000000000000000000000000000000000000000000000000000000000000000000000000000000000000000          Governor                                                OVER VOTES                            Precinct 9                                             01 
00050080001000001000000000000000001000000000000000000000000000000000000000000000000000000000000000000          Governor                                                UNDER VOTES                           Precinct 1                                             01 
00050080002000004000000000001000003000000000000000000000000000000000000000000000000000000000000000000          Governor                                                UNDER VOTES                           Precinct 2                                             01 
00050080003000000000000000000000000000000000000000000000000000000000000000000000000000000000000000000          Governor                                                UNDER VOTES                           Precinct 3                                             01 
00050080004000004000001000003000000000000000000000000000000000000000000000000000000000000000000000000          Governor                                                UNDER VOTES                           Precinct 4                                             01 
00050080005000001000000000000000001000000000000000000000000000000000000000000000000000000000000000000          Governor                                                UNDER VOTES                           Precinct 5                                             01 
00050080006000004000000000002000002000000000000000000000000000000000000000000000000000000000000000000          Governor                                                UNDER VOTES                           Precinct 6                                             01 
00050080007000000000000000000000000000000000000000000000000000000000000000000000000000000000000000000          Governor                                                UNDER VOTES                           Precinct 7                                             01 
00050080008000000000000000000000000000000000000000000000000000000000000000000000000000000000000000000          Governor                                                UNDER VOTES                           Precinct 8                                             01 
00050080009000003000000000002000001000000000000000000000000000000000000000000000000000000000000000000          Governor                                                UNDER VOTES                           Precinct 9                                             01 
00060010001000268000005000131000132000000000000000000000000000000000000000000000000000000000000000000REP       Lieutenant Governor                                     REP Dan Patrick                       Precinct 1                                             01 
00060010002000479000008000217000254000000000000000000000000000000000000000000000000000000000000000000REP       Lieutenant Governor                                     REP Dan Patrick                       Precinct 2                                             01 
00060010003000488000016000228000244000000000000000000000000000000000000000000000000000000000000000000REP       Lieutenant Governor                                     REP Dan Patrick                       Precinct 3                                             01 
00060010004000388000009000173000206000000000000000000000000000000000000000000000000000000000000000000REP       Lieutenant Governor                                     REP Dan Patrick                       Precinct 4                                             01 
00060010005000086000004000018000064000000000000000000000000000000000000000000000000000000000000000000REP       Lieutenant Governor                                     REP Dan Patrick                       Precinct 5                                             01 
00060010006000405000008000142000255000000000000000000000000000000000000000000000000000000000000000000REP       Lieutenant Governor                                     REP Dan Patrick                       Precinct 6                                             01 
00060010007000166000005000034000127000000000000000000000000000000000000000000000000000000000000000000REP       Lieutenant Governor                                     REP Dan Patrick                       Precinct 7                                             01 
00060010008000104000001000032000071000000000000000000000000000000000000000000000000000000000000000000REP       Lieutenant Governor                                     REP Dan Patrick                       Precinct 8                                             01 
00060010009000640000009000306000325000000000000000000000000000000000000000000000000000000000000000000REP       Lieutenant Governor                                     REP Dan Patrick                       Precinct 9                                             01 
00060020001000094000007000040000047000000000000000000000000000000000000000000000000000000000000000000DEM       Lieutenant Governor                                     DEM Mike Collier                      Precinct 1                                             01 
00060020002000091000011000028000052000000000000000000000000000000000000000000000000000000000000000000DEM       Lieutenant Governor                                     DEM Mike Collier                      Precinct 2                                             01 
00060020003000141000006000077000058000000000000000000000000000000000000000000000000000000000000000000DEM       Lieutenant Governor                                     DEM Mike Collier                      Precinct 3                                             01 
00060020004000140000012000050000078000000000000000000000000000000000000000000000000000000000000000000DEM       Lieutenant Governor                                     DEM Mike Collier                      Precinct 4                                             01 
00060020005000015000002000007000006000000000000000000000000000000000000000000000000000000000000000000DEM       Lieutenant Governor                                     DEM Mike Collier                      Precinct 5                                             01 
00060020006000059000004000026000029000000000000000000000000000000000000000000000000000000000000000000DEM       Lieutenant Governor                                     DEM Mike Collier                      Precinct 6                                             01 
00060020007000012000000000004000008000000000000000000000000000000000000000000000000000000000000000000DEM       Lieutenant Governor                                     DEM Mike Collier                      Precinct 7                                             01 
00060020008000010000000000005000005000000000000000000000000000000000000000000000000000000000000000000DEM       Lieutenant Governor                                     DEM Mike Collier                      Precinct 8                                             01 
00060020009000098000007000040000051000000000000000000000000000000000000000000000000000000000000000000DEM       Lieutenant Governor                                     DEM Mike Collier                      Precinct 9                                             01 
00060030001000012000002000005000005000000000000000000000000000000000000000000000000000000000000000000LIB       Lieutenant Governor                                     LIB Shanna Steele                     Precinct 1                                             01 
00060030002000007000000000004000003000000000000000000000000000000000000000000000000000000000000000000LIB       Lieutenant Governor                                     LIB Shanna Steele                     Precinct 2                                             01 
00060030003000013000003000005000005000000000000000000000000000000000000000000000000000000000000000000LIB       Lieutenant Governor                                     LIB Shanna Steele                     Precinct 3                                             01 
00060030004000014000001000007000006000000000000000000000000000000000000000000000000000000000000000000LIB       Lieutenant Governor                                     LIB Shanna Steele                     Precinct 4                                             01 
00060030005000003000000000002000001000000000000000000000000000000000000000000000000000000000000000000LIB       Lieutenant Governor                                     LIB Shanna Steele                     Precinct 5                                             01 
00060030006000006000000000001000005000000000000000000000000000000000000000000000000000000000000000000LIB       Lieutenant Governor                                     LIB Shanna Steele                     Precinct 6                                             01 
00060030007000009000000000000000009000000000000000000000000000000000000000000000000000000000000000000LIB       Lieutenant Governor                                     LIB Shanna Steele                     Precinct 7                                             01 
00060030008000001000000000001000000000000000000000000000000000000000000000000000000000000000000000000LIB       Lieutenant Governor                                     LIB Shanna Steele                     Precinct 8                                             01 
00060030009000025000000000008000017000000000000000000000000000000000000000000000000000000000000000000LIB       Lieutenant Governor                                     LIB Shanna Steele                     Precinct 9                                             01 
00060040001000000000000000000000000000000000000000000000000000000000000000000000000000000000000000000          Lieutenant Governor                                     OVER VOTES                            Precinct 1                                             01 
00060040002000000000000000000000000000000000000000000000000000000000000000000000000000000000000000000          Lieutenant Governor                                     OVER VOTES                            Precinct 2                                             01 
00060040003000000000000000000000000000000000000000000000000000000000000000000000000000000000000000000          Lieutenant Governor                                     OVER VOTES                            Precinct 3                                             01 
00060040004000000000000000000000000000000000000000000000000000000000000000000000000000000000000000000          Lieutenant Governor                                     OVER VOTES                            Precinct 4                                             01 
00060040005000000000000000000000000000000000000000000000000000000000000000000000000000000000000000000          Lieutenant Governor                                     OVER VOTES                            Precinct 5                                             01 
00060040006000000000000000000000000000000000000000000000000000000000000000000000000000000000000000000          Lieutenant Governor                                     OVER VOTES                            Precinct 6                                             01 
00060040007000000000000000000000000000000000000000000000000000000000000000000000000000000000000000000          Lieutenant Governor                                     OVER VOTES                            Precinct 7                                             01 
00060040008000000000000000000000000000000000000000000000000000000000000000000000000000000000000000000          Lieutenant Governor                                     OVER VOTES                            Precinct 8                                             01 
00060040009000000000000000000000000000000000000000000000000000000000000000000000000000000000000000000          Lieutenant Governor                                     OVER VOTES                            Precinct 9                                             01 
00060050001000005000000000003000002000000000000000000000000000000000000000000000000000000000000000000          Lieutenant Governor                                     UNDER VOTES                           Precinct 1                                             01 
00060050002000004000000000002000002000000000000000000000000000000000000000000000000000000000000000000          Lieutenant Governor                                     UNDER VOTES                           Precinct 2                                             01 
00060050003000006000001000002000003000000000000000000000000000000000000000000000000000000000000000000          Lieutenant Governor                                     UNDER VOTES                           Precinct 3                                             01 
00060050004000011000000000006000005000000000000000000000000000000000000000000000000000000000000000000          Lieutenant Governor                                     UNDER VOTES                           Precinct 4                                             01 
00060050005000001000000000000000001000000000000000000000000000000000000000000000000000000000000000000          Lieutenant Governor                                     UNDER VOTES                           Precinct 5                                             01 
00060050006000009000000000004000005000000000000000000000000000000000000000000000000000000000000000000          Lieutenant Governor                                     UNDER VOTES                           Precinct 6                                             01 
00060050007000003000000000000000003000000000000000000000000000000000000000000000000000000000000000000          Lieutenant Governor                                     UNDER VOTES                           Precinct 7                                             01 
00060050008000000000000000000000000000000000000000000000000000000000000000000000000000000000000000000          Lieutenant Governor                                     UNDER VOTES                           Precinct 8                                             01 
00060050009000007000000000005000002000000000000000000000000000000000000000000000000000000000000000000          Lieutenant Governor                                     UNDER VOTES                           Precinct 9                                             01 
00070010001000266000005000130000131000000000000000000000000000000000000000000000000000000000000000000REP       Attorney General                                        REP Ken Paxton                        Precinct 1                                             01 
00070010002000474000008000210000256000000000000000000000000000000000000000000000000000000000000000000REP       Attorney General                                        REP Ken Paxton                        Precinct 2                                             01 
00070010003000483000018000225000240000000000000000000000000000000000000000000000000000000000000000000REP       Attorney General                                        REP Ken Paxton                        Precinct 3                                             01 
00070010004000377000009000166000202000000000000000000000000000000000000000000000000000000000000000000REP       Attorney General                                        REP Ken Paxton                        Precinct 4                                             01 
00070010005000082000004000016000062000000000000000000000000000000000000000000000000000000000000000000REP       Attorney General                                        REP Ken Paxton                        Precinct 5                                             01 
00070010006000403000008000141000254000000000000000000000000000000000000000000000000000000000000000000REP       Attorney General                                        REP Ken Paxton                        Precinct 6                                             01 
00070010007000167000004000035000128000000000000000000000000000000000000000000000000000000000000000000REP       Attorney General                                        REP Ken Paxton                        Precinct 7                                             01 
00070010008000101000001000031000069000000000000000000000000000000000000000000000000000000000000000000REP       Attorney General                                        REP Ken Paxton                        Precinct 8                                             01 
00070010009000638000009000306000323000000000000000000000000000000000000000000000000000000000000000000REP       Attorney General                                        REP Ken Paxton                        Precinct 9                                             01 
00070020001000095000007000041000047000000000000000000000000000000000000000000000000000000000000000000DEM       Attorney General                                        DEM Rochelle Mercedes Garza           Precinct 1                                             01 
00070020002000083000010000027000046000000000000000000000000000000000000000000000000000000000000000000DEM       Attorney General                                        DEM Rochelle Mercedes Garza           Precinct 2                                             01 
00070020003000145000006000079000060000000000000000000000000000000000000000000000000000000000000000000DEM       Attorney General                                        DEM Rochelle Mercedes Garza           Precinct 3                                             01 
00070020004000157000013000058000086000000000000000000000000000000000000000000000000000000000000000000DEM       Attorney General                                        DEM Rochelle Mercedes Garza           Precinct 4                                             01 
00070020005000018000002000008000008000000000000000000000000000000000000000000000000000000000000000000DEM       Attorney General                                        DEM Rochelle Mercedes Garza           Precinct 5                                             01 
00070020006000063000004000028000031000000000000000000000000000000000000000000000000000000000000000000DEM       Attorney General                                        DEM Rochelle Mercedes Garza           Precinct 6                                             01 
00070020007000009000000000002000007000000000000000000000000000000000000000000000000000000000000000000DEM       Attorney General                                        DEM Rochelle Mercedes Garza           Precinct 7                                             01 
00070020008000012000000000007000005000000000000000000000000000000000000000000000000000000000000000000DEM       Attorney General                                        DEM Rochelle Mercedes Garza           Precinct 8                                             01 
00070020009000096000007000037000052000000000000000000000000000000000000000000000000000000000000000000DEM       Attorney General                                        DEM Rochelle Mercedes Garza           Precinct 9                                             01 
00070030001000012000002000004000006000000000000000000000000000000000000000000000000000000000000000000LIB       Attorney General                                        LIB Mark Ash                          Precinct 1                                             01 
00070030002000013000001000008000004000000000000000000000000000000000000000000000000000000000000000000LIB       Attorney General                                        LIB Mark Ash                          Precinct 2                                             01 
00070030003000011000001000005000005000000000000000000000000000000000000000000000000000000000000000000LIB       Attorney General                                        LIB Mark Ash                          Precinct 3                                             01 
00070030004000006000000000004000002000000000000000000000000000000000000000000000000000000000000000000LIB       Attorney General                                        LIB Mark Ash                          Precinct 4                                             01 
00070030005000002000000000002000000000000000000000000000000000000000000000000000000000000000000000000LIB       Attorney General                                        LIB Mark Ash                          Precinct 5                                             01 
00070030006000007000000000001000006000000000000000000000000000000000000000000000000000000000000000000LIB       Attorney General                                        LIB Mark Ash                          Precinct 6                                             01 
00070030007000008000000000000000008000000000000000000000000000000000000000000000000000000000000000000LIB       Attorney General                                        LIB Mark Ash                          Precinct 7                                             01 
00070030008000001000000000000000001000000000000000000000000000000000000000000000000000000000000000000LIB       Attorney General                                        LIB Mark Ash                          Precinct 8                                             01 
00070030009000021000000000009000012000000000000000000000000000000000000000000000000000000000000000000LIB       Attorney General                                        LIB Mark Ash                          Precinct 9                                             01 
00070040001000000000000000000000000000000000000000000000000000000000000000000000000000000000000000000          Attorney General                                        OVER VOTES                            Precinct 1                                             01 
00070040002000000000000000000000000000000000000000000000000000000000000000000000000000000000000000000          Attorney General                                        OVER VOTES                            Precinct 2                                             01 
00070040003000000000000000000000000000000000000000000000000000000000000000000000000000000000000000000          Attorney General                                        OVER VOTES                            Precinct 3                                             01 
00070040004000000000000000000000000000000000000000000000000000000000000000000000000000000000000000000          Attorney General                                        OVER VOTES                            Precinct 4                                             01 
00070040005000000000000000000000000000000000000000000000000000000000000000000000000000000000000000000          Attorney General                                        OVER VOTES                            Precinct 5                                             01 
00070040006000000000000000000000000000000000000000000000000000000000000000000000000000000000000000000          Attorney General                                        OVER VOTES                            Precinct 6                                             01 
00070040007000000000000000000000000000000000000000000000000000000000000000000000000000000000000000000          Attorney General                                        OVER VOTES                            Precinct 7                                             01 
00070040008000000000000000000000000000000000000000000000000000000000000000000000000000000000000000000          Attorney General                                        OVER VOTES                            Precinct 8                                             01 
00070040009000000000000000000000000000000000000000000000000000000000000000000000000000000000000000000          Attorney General                                        OVER VOTES                            Precinct 9                                             01 
00070050001000006000000000004000002000000000000000000000000000000000000000000000000000000000000000000          Attorney General                                        UNDER VOTES                           Precinct 1                                             01 
00070050002000011000000000006000005000000000000000000000000000000000000000000000000000000000000000000          Attorney General                                        UNDER VOTES                           Precinct 2                                             01 
00070050003000009000001000003000005000000000000000000000000000000000000000000000000000000000000000000          Attorney General                                        UNDER VOTES                           Precinct 3                                             01 
00070050004000013000000000008000005000000000000000000000000000000000000000000000000000000000000000000          Attorney General                                        UNDER VOTES                           Precinct 4                                             01 
00070050005000003000000000001000002000000000000000000000000000000000000000000000000000000000000000000          Attorney General                                        UNDER VOTES                           Precinct 5                                             01 
00070050006000006000000000003000003000000000000000000000000000000000000000000000000000000000000000000          Attorney General                                        UNDER VOTES                           Precinct 6                                             01 
00070050007000006000001000001000004000000000000000000000000000000000000000000000000000000000000000000          Attorney General                                        UNDER VOTES                           Precinct 7                                             01 
00070050008000001000000000000000001000000000000000000000000000000000000000000000000000000000000000000          Attorney General                                        UNDER VOTES                           Precinct 8                                             01 
00070050009000015000000000007000008000000000000000000000000000000000000000000000000000000000000000000          Attorney General                                        UNDER VOTES                           Precinct 9                                             01 
00080010001000271000006000127000138000000000000000000000000000000000000000000000000000000000000000000REP       Comptroller of Public Accounts                          REP Glenn Hegar                       Precinct 1                                             01 
00080010002000485000010000214000261000000000000000000000000000000000000000000000000000000000000000000REP       Comptroller of Public Accounts                          REP Glenn Hegar                       Precinct 2                                             01 
00080010003000491000015000228000248000000000000000000000000000000000000000000000000000000000000000000REP       Comptroller of Public Accounts                          REP Glenn Hegar                       Precinct 3                                             01 
00080010004000387000009000170000208000000000000000000000000000000000000000000000000000000000000000000REP       Comptroller of Public Accounts                          REP Glenn Hegar                       Precinct 4                                             01 
00080010005000082000004000018000060000000000000000000000000000000000000000000000000000000000000000000REP       Comptroller of Public Accounts                          REP Glenn Hegar                       Precinct 5                                             01 
00080010006000405000007000145000253000000000000000000000000000000000000000000000000000000000000000000REP       Comptroller of Public Accounts                          REP Glenn Hegar                       Precinct 6                                             01 
00080010007000173000004000036000133000000000000000000000000000000000000000000000000000000000000000000REP       Comptroller of Public Accounts                          REP Glenn Hegar                       Precinct 7                                             01 
00080010008000100000001000031000068000000000000000000000000000000000000000000000000000000000000000000REP       Comptroller of Public Accounts                          REP Glenn Hegar                       Precinct 8                                             01 
00080010009000652000009000310000333000000000000000000000000000000000000000000000000000000000000000000REP       Comptroller of Public Accounts                          REP Glenn Hegar                       Precinct 9                                             01 
00080020001000088000007000040000041000000000000000000000000000000000000000000000000000000000000000000DEM       Comptroller of Public Accounts                          DEM Janet T. Dudding                  Precinct 1                                             01 
00080020002000075000009000027000039000000000000000000000000000000000000000000000000000000000000000000DEM       Comptroller of Public Accounts                          DEM Janet T. Dudding                  Precinct 2                                             01 
00080020003000132000008000072000052000000000000000000000000000000000000000000000000000000000000000000DEM       Comptroller of Public Accounts                          DEM Janet T. Dudding                  Precinct 3                                             01 
00080020004000133000012000052000069000000000000000000000000000000000000000000000000000000000000000000DEM       Comptroller of Public Accounts                          DEM Janet T. Dudding                  Precinct 4                                             01 
00080020005000016000002000007000007000000000000000000000000000000000000000000000000000000000000000000DEM       Comptroller of Public Accounts                          DEM Janet T. Dudding                  Precinct 5                                             01 
00080020006000052000004000022000026000000000000000000000000000000000000000000000000000000000000000000DEM       Comptroller of Public Accounts                          DEM Janet T. Dudding                  Precinct 6                                             01 
00080020007000010000000000002000008000000000000000000000000000000000000000000000000000000000000000000DEM       Comptroller of Public Accounts                          DEM Janet T. Dudding                  Precinct 7                                             01 
00080020008000012000000000007000005000000000000000000000000000000000000000000000000000000000000000000DEM       Comptroller of Public Accounts                          DEM Janet T. Dudding                  Precinct 8                                             01 
00080020009000087000006000037000044000000000000000000000000000000000000000000000000000000000000000000DEM       Comptroller of Public Accounts                          DEM Janet T. Dudding                  Precinct 9                                             01 
00080030001000009000001000002000006000000000000000000000000000000000000000000000000000000000000000000LIB       Comptroller of Public Accounts                          LIB V. Alonzo Echevarria-Garza        Precinct 1                                             01 
00080030002000010000000000004000006000000000000000000000000000000000000000000000000000000000000000000LIB       Comptroller of Public Accounts                          LIB V. Alonzo Echevarria-Garza        Precinct 2                                             01 
00080030003000012000001000005000006000000000000000000000000000000000000000000000000000000000000000000LIB       Comptroller of Public Accounts                          LIB V. Alonzo Echevarria-Garza        Precinct 3                                             01 
00080030004000020000001000006000013000000000000000000000000000000000000000000000000000000000000000000LIB       Comptroller of Public Accounts                          LIB V. Alonzo Echevarria-Garza        Precinct 4                                             01 
00080030005000001000000000001000000000000000000000000000000000000000000000000000000000000000000000000LIB       Comptroller of Public Accounts                          LIB V. Alonzo Echevarria-Garza        Precinct 5                                             01 
00080030006000009000000000001000008000000000000000000000000000000000000000000000000000000000000000000LIB       Comptroller of Public Accounts                          LIB V. Alonzo Echevarria-Garza        Precinct 6                                             01 
00080030007000003000000000000000003000000000000000000000000000000000000000000000000000000000000000000LIB       Comptroller of Public Accounts                          LIB V. Alonzo Echevarria-Garza        Precinct 7                                             01 
00080030008000000000000000000000000000000000000000000000000000000000000000000000000000000000000000000LIB       Comptroller of Public Accounts                          LIB V. Alonzo Echevarria-Garza        Precinct 8                                             01 
00080030009000016000001000002000013000000000000000000000000000000000000000000000000000000000000000000LIB       Comptroller of Public Accounts                          LIB V. Alonzo Echevarria-Garza        Precinct 9                                             01 
00080040001000000000000000000000000000000000000000000000000000000000000000000000000000000000000000000          Comptroller of Public Accounts                          OVER VOTES                            Precinct 1                                             01 
00080040002000000000000000000000000000000000000000000000000000000000000000000000000000000000000000000          Comptroller of Public Accounts                          OVER VOTES                            Precinct 2                                             01 
00080040003000000000000000000000000000000000000000000000000000000000000000000000000000000000000000000          Comptroller of Public Accounts                          OVER VOTES                            Precinct 3                                             01 
00080040004000000000000000000000000000000000000000000000000000000000000000000000000000000000000000000          Comptroller of Public Accounts                          OVER VOTES                            Precinct 4                                             01 
00080040005000000000000000000000000000000000000000000000000000000000000000000000000000000000000000000          Comptroller of Public Accounts                          OVER VOTES                            Precinct 5                                             01 
00080040006000000000000000000000000000000000000000000000000000000000000000000000000000000000000000000          Comptroller of Public Accounts                          OVER VOTES                            Precinct 6                                             01 
00080040007000000000000000000000000000000000000000000000000000000000000000000000000000000000000000000          Comptroller of Public Accounts                          OVER VOTES                            Precinct 7                                             01 
00080040008000000000000000000000000000000000000000000000000000000000000000000000000000000000000000000          Comptroller of Public Accounts                          OVER VOTES                            Precinct 8                                             01 
00080040009000000000000000000000000000000000000000000000000000000000000000000000000000000000000000000          Comptroller of Public Accounts                          OVER VOTES                            Precinct 9                                             01 
00080050001000011000000000010000001000000000000000000000000000000000000000000000000000000000000000000          Comptroller of Public Accounts                          UNDER VOTES                           Precinct 1                                             01 
00080050002000011000000000006000005000000000000000000000000000000000000000000000000000000000000000000          Comptroller of Public Accounts                          UNDER VOTES                           Precinct 2                                             01 
00080050003000013000002000007000004000000000000000000000000000000000000000000000000000000000000000000          Comptroller of Public Accounts                          UNDER VOTES                           Precinct 3                                             01 
00080050004000013000000000008000005000000000000000000000000000000000000000000000000000000000000000000          Comptroller of Public Accounts                          UNDER VOTES                           Precinct 4                                             01 
00080050005000006000000000001000005000000000000000000000000000000000000000000000000000000000000000000          Comptroller of Public Accounts                          UNDER VOTES                           Precinct 5                                             01 
00080050006000013000001000005000007000000000000000000000000000000000000000000000000000000000000000000          Comptroller of Public Accounts                          UNDER VOTES                           Precinct 6                                             01 
00080050007000004000001000000000003000000000000000000000000000000000000000000000000000000000000000000          Comptroller of Public Accounts                          UNDER VOTES                           Precinct 7                                             01 
00080050008000003000000000000000003000000000000000000000000000000000000000000000000000000000000000000          Comptroller of Public Accounts                          UNDER VOTES                           Precinct 8                                             01 
00080050009000015000000000010000005000000000000000000000000000000000000000000000000000000000000000000          Comptroller of Public Accounts                          UNDER VOTES                           Precinct 9                                             01 
00090010001000273000006000131000136000000000000000000000000000000000000000000000000000000000000000000REP       Comm. General Land Office                               REP Dawn Buckingham                   Precinct 1                                             01 
00090010002000491000011000217000263000000000000000000000000000000000000000000000000000000000000000000REP       Comm. General Land Office                               REP Dawn Buckingham                   Precinct 2                                             01 
00090010003000486000017000228000241000000000000000000000000000000000000000000000000000000000000000000REP       Comm. General Land Office                               REP Dawn Buckingham                   Precinct 3                                             01 
00090010004000383000008000170000205000000000000000000000000000000000000000000000000000000000000000000REP       Comm. General Land Office                               REP Dawn Buckingham                   Precinct 4                                             01 
00090010005000082000004000017000061000000000000000000000000000000000000000000000000000000000000000000REP       Comm. General Land Office                               REP Dawn Buckingham                   Precinct 5                                             01 
00090010006000404000008000143000253000000000000000000000000000000000000000000000000000000000000000000REP       Comm. General Land Office                               REP Dawn Buckingham                   Precinct 6                                             01 
00090010007000171000003000036000132000000000000000000000000000000000000000000000000000000000000000000REP       Comm. General Land Office                               REP Dawn Buckingham                   Precinct 7                                             01 
00090010008000100000001000033000066000000000000000000000000000000000000000000000000000000000000000000REP       Comm. General Land Office                               REP Dawn Buckingham                   Precinct 8                                             01 
00090010009000647000009000306000332000000000000000000000000000000000000000000000000000000000000000000REP       Comm. General Land Office                               REP Dawn Buckingham                   Precinct 9                                             01 
00090020001000090000008000037000045000000000000000000000000000000000000000000000000000000000000000000DEM       Comm. General Land Office                               DEM Jay Kleberg                       Precinct 1                                             01 
00090020002000075000007000030000038000000000000000000000000000000000000000000000000000000000000000000DEM       Comm. General Land Office                               DEM Jay Kleberg                       Precinct 2                                             01 
00090020003000145000007000078000060000000000000000000000000000000000000000000000000000000000000000000DEM       Comm. General Land Office                               DEM Jay Kleberg                       Precinct 3                                             01 
00090020004000147000013000057000077000000000000000000000000000000000000000000000000000000000000000000DEM       Comm. General Land Office                               DEM Jay Kleberg                       Precinct 4                                             01 
00090020005000020000002000010000008000000000000000000000000000000000000000000000000000000000000000000DEM       Comm. General Land Office                               DEM Jay Kleberg                       Precinct 5                                             01 
00090020006000060000004000024000032000000000000000000000000000000000000000000000000000000000000000000DEM       Comm. General Land Office                               DEM Jay Kleberg                       Precinct 6                                             01 
00090020007000011000000000002000009000000000000000000000000000000000000000000000000000000000000000000DEM       Comm. General Land Office                               DEM Jay Kleberg                       Precinct 7                                             01 
00090020008000010000000000005000005000000000000000000000000000000000000000000000000000000000000000000DEM       Comm. General Land Office                               DEM Jay Kleberg                       Precinct 8                                             01 
00090020009000098000007000043000048000000000000000000000000000000000000000000000000000000000000000000DEM       Comm. General Land Office                               DEM Jay Kleberg                       Precinct 9                                             01 
00090030001000005000000000003000002000000000000000000000000000000000000000000000000000000000000000000GRN       Comm. General Land Office                               GRN Alfred Molison, Jr.               Precinct 1                                             01 
00090030002000007000000000001000006000000000000000000000000000000000000000000000000000000000000000000GRN       Comm. General Land Office                               GRN Alfred Molison, Jr.               Precinct 2                                             01 
00090030003000004000000000001000003000000000000000000000000000000000000000000000000000000000000000000GRN       Comm. General Land Office                               GRN Alfred Molison, Jr.               Precinct 3                                             01 
00090030004000009000001000001000007000000000000000000000000000000000000000000000000000000000000000000GRN       Comm. General Land Office                               GRN Alfred Molison, Jr.               Precinct 4                                             01 
00090030005000000000000000000000000000000000000000000000000000000000000000000000000000000000000000000GRN       Comm. General Land Office                               GRN Alfred Molison, Jr.               Precinct 5                                             01 
00090030006000001000000000000000001000000000000000000000000000000000000000000000000000000000000000000GRN       Comm. General Land Office                               GRN Alfred Molison, Jr.               Precinct 6                                             01 
00090030007000003000000000000000003000000000000000000000000000000000000000000000000000000000000000000GRN       Comm. General Land Office                               GRN Alfred Molison, Jr.               Precinct 7                                             01 
00090030008000000000000000000000000000000000000000000000000000000000000000000000000000000000000000000GRN       Comm. General Land Office                               GRN Alfred Molison, Jr.               Precinct 8                                             01 
00090030009000007000000000002000005000000000000000000000000000000000000000000000000000000000000000000GRN       Comm. General Land Office                               GRN Alfred Molison, Jr.               Precinct 9                                             01 
00090050001000000000000000000000000000000000000000000000000000000000000000000000000000000000000000000NON       Comm. General Land Office                               Write-in                              Precinct 1                                             01 
00090050002000000000000000000000000000000000000000000000000000000000000000000000000000000000000000000NON       Comm. General Land Office                               Write-in                              Precinct 2                                             01 
00090050003000001000000000001000000000000000000000000000000000000000000000000000000000000000000000000NON       Comm. General Land Office                               Write-in                              Precinct 3                                             01 
00090050004000000000000000000000000000000000000000000000000000000000000000000000000000000000000000000NON       Comm. General Land Office                               Write-in                              Precinct 4                                             01 
00090050005000000000000000000000000000000000000000000000000000000000000000000000000000000000000000000NON       Comm. General Land Office                               Write-in                              Precinct 5                                             01 
00090050006000001000000000001000000000000000000000000000000000000000000000000000000000000000000000000NON       Comm. General Land Office                               Write-in                              Precinct 6                                             01 
00090050007000001000001000000000000000000000000000000000000000000000000000000000000000000000000000000NON       Comm. General Land Office                               Write-in                              Precinct 7                                             01 
00090050008000001000000000000000001000000000000000000000000000000000000000000000000000000000000000000NON       Comm. General Land Office                               Write-in                              Precinct 8                                             01 
00090050009000000000000000000000000000000000000000000000000000000000000000000000000000000000000000000NON       Comm. General Land Office                               Write-in                              Precinct 9                                             01 
00090060001000000000000000000000000000000000000000000000000000000000000000000000000000000000000000000          Comm. General Land Office                               OVER VOTES                            Precinct 1                                             01 
00090060002000000000000000000000000000000000000000000000000000000000000000000000000000000000000000000          Comm. General Land Office                               OVER VOTES                            Precinct 2                                             01 
00090060003000000000000000000000000000000000000000000000000000000000000000000000000000000000000000000          Comm. General Land Office                               OVER VOTES                            Precinct 3                                             01 
00090060004000000000000000000000000000000000000000000000000000000000000000000000000000000000000000000          Comm. General Land Office                               OVER VOTES                            Precinct 4                                             01 
00090060005000000000000000000000000000000000000000000000000000000000000000000000000000000000000000000          Comm. General Land Office                               OVER VOTES                            Precinct 5                                             01 
00090060006000000000000000000000000000000000000000000000000000000000000000000000000000000000000000000          Comm. General Land Office                               OVER VOTES                            Precinct 6                                             01 
00090060007000000000000000000000000000000000000000000000000000000000000000000000000000000000000000000          Comm. General Land Office                               OVER VOTES                            Precinct 7                                             01 
00090060008000000000000000000000000000000000000000000000000000000000000000000000000000000000000000000          Comm. General Land Office                               OVER VOTES                            Precinct 8                                             01 
00090060009000000000000000000000000000000000000000000000000000000000000000000000000000000000000000000          Comm. General Land Office                               OVER VOTES                            Precinct 9                                             01 
00090070001000011000000000008000003000000000000000000000000000000000000000000000000000000000000000000          Comm. General Land Office                               UNDER VOTES                           Precinct 1                                             01 
00090070002000008000001000003000004000000000000000000000000000000000000000000000000000000000000000000          Comm. General Land Office                               UNDER VOTES                           Precinct 2                                             01 
00090070003000012000002000004000006000000000000000000000000000000000000000000000000000000000000000000          Comm. General Land Office                               UNDER VOTES                           Precinct 3                                             01 
00090070004000014000000000008000006000000000000000000000000000000000000000000000000000000000000000000          Comm. General Land Office                               UNDER VOTES                           Precinct 4                                             01 
00090070005000003000000000000000003000000000000000000000000000000000000000000000000000000000000000000          Comm. General Land Office                               UNDER VOTES                           Precinct 5                                             01 
00090070006000013000000000005000008000000000000000000000000000000000000000000000000000000000000000000          Comm. General Land Office                               UNDER VOTES                           Precinct 6                                             01 
00090070007000004000001000000000003000000000000000000000000000000000000000000000000000000000000000000          Comm. General Land Office                               UNDER VOTES                           Precinct 7                                             01 
00090070008000004000000000000000004000000000000000000000000000000000000000000000000000000000000000000          Comm. General Land Office                               UNDER VOTES                           Precinct 8                                             01 
00090070009000018000000000008000010000000000000000000000000000000000000000000000000000000000000000000          Comm. General Land Office                               UNDER VOTES                           Precinct 9                                             01 
00100010001000271000006000129000136000000000000000000000000000000000000000000000000000000000000000000REP       Commissioner of Agriculture                             REP Sid Miller                        Precinct 1                                             01 
00100010002000483000009000218000256000000000000000000000000000000000000000000000000000000000000000000REP       Commissioner of Agriculture                             REP Sid Miller                        Precinct 2                                             01 
00100010003000486000017000225000244000000000000000000000000000000000000000000000000000000000000000000REP       Commissioner of Agriculture                             REP Sid Miller                        Precinct 3                                             01 
00100010004000377000009000167000201000000000000000000000000000000000000000000000000000000000000000000REP       Commissioner of Agriculture                             REP Sid Miller                        Precinct 4                                             01 
00100010005000085000004000021000060000000000000000000000000000000000000000000000000000000000000000000REP       Commissioner of Agriculture                             REP Sid Miller                        Precinct 5                                             01 
00100010006000410000008000144000258000000000000000000000000000000000000000000000000000000000000000000REP       Commissioner of Agriculture                             REP Sid Miller                        Precinct 6                                             01 
00100010007000175000005000036000134000000000000000000000000000000000000000000000000000000000000000000REP       Commissioner of Agriculture                             REP Sid Miller                        Precinct 7                                             01 
00100010008000101000001000032000068000000000000000000000000000000000000000000000000000000000000000000REP       Commissioner of Agriculture                             REP Sid Miller                        Precinct 8                                             01 
00100010009000652000009000309000334000000000000000000000000000000000000000000000000000000000000000000REP       Commissioner of Agriculture                             REP Sid Miller                        Precinct 9                                             01 
00100020001000095000008000040000047000000000000000000000000000000000000000000000000000000000000000000DEM       Commissioner of Agriculture                             DEM Susan Hays                        Precinct 1                                             01 
00100020002000083000009000026000048000000000000000000000000000000000000000000000000000000000000000000DEM       Commissioner of Agriculture                             DEM Susan Hays                        Precinct 2                                             01 
00100020003000149000007000082000060000000000000000000000000000000000000000000000000000000000000000000DEM       Commissioner of Agriculture                             DEM Susan Hays                        Precinct 3                                             01 
00100020004000158000013000061000084000000000000000000000000000000000000000000000000000000000000000000DEM       Commissioner of Agriculture                             DEM Susan Hays                        Precinct 4                                             01 
00100020005000016000002000006000008000000000000000000000000000000000000000000000000000000000000000000DEM       Commissioner of Agriculture                             DEM Susan Hays                        Precinct 5                                             01 
00100020006000062000004000025000033000000000000000000000000000000000000000000000000000000000000000000DEM       Commissioner of Agriculture                             DEM Susan Hays                        Precinct 6                                             01 
00100020007000014000000000002000012000000000000000000000000000000000000000000000000000000000000000000DEM       Commissioner of Agriculture                             DEM Susan Hays                        Precinct 7                                             01 
00100020008000011000000000006000005000000000000000000000000000000000000000000000000000000000000000000DEM       Commissioner of Agriculture                             DEM Susan Hays                        Precinct 8                                             01 
00100020009000098000007000042000049000000000000000000000000000000000000000000000000000000000000000000DEM       Commissioner of Agriculture                             DEM Susan Hays                        Precinct 9                                             01 
00100030001000000000000000000000000000000000000000000000000000000000000000000000000000000000000000000          Commissioner of Agriculture                             OVER VOTES                            Precinct 1                                             01 
00100030002000000000000000000000000000000000000000000000000000000000000000000000000000000000000000000          Commissioner of Agriculture                             OVER VOTES                            Precinct 2                                             01 
00100030003000000000000000000000000000000000000000000000000000000000000000000000000000000000000000000          Commissioner of Agriculture                             OVER VOTES                            Precinct 3                                             01 
00100030004000000000000000000000000000000000000000000000000000000000000000000000000000000000000000000          Commissioner of Agriculture                             OVER VOTES                            Precinct 4                                             01 
00100030005000000000000000000000000000000000000000000000000000000000000000000000000000000000000000000          Commissioner of Agriculture                             OVER VOTES                            Precinct 5                                             01 
00100030006000000000000000000000000000000000000000000000000000000000000000000000000000000000000000000          Commissioner of Agriculture                             OVER VOTES                            Precinct 6                                             01 
00100030007000000000000000000000000000000000000000000000000000000000000000000000000000000000000000000          Commissioner of Agriculture                             OVER VOTES                            Precinct 7                                             01 
00100030008000000000000000000000000000000000000000000000000000000000000000000000000000000000000000000          Commissioner of Agriculture                             OVER VOTES                            Precinct 8                                             01 
00100030009000000000000000000000000000000000000000000000000000000000000000000000000000000000000000000          Commissioner of Agriculture                             OVER VOTES                            Precinct 9                                             01 
00100040001000013000000000010000003000000000000000000000000000000000000000000000000000000000000000000          Commissioner of Agriculture                             UNDER VOTES                           Precinct 1                                             01 
00100040002000015000001000007000007000000000000000000000000000000000000000000000000000000000000000000          Commissioner of Agriculture                             UNDER VOTES                           Precinct 2                                             01 
00100040003000013000002000005000006000000000000000000000000000000000000000000000000000000000000000000          Commissioner of Agriculture                             UNDER VOTES                           Precinct 3                                             01 
00100040004000018000000000008000010000000000000000000000000000000000000000000000000000000000000000000          Commissioner of Agriculture                             UNDER VOTES                           Precinct 4                                             01 
00100040005000004000000000000000004000000000000000000000000000000000000000000000000000000000000000000          Commissioner of Agriculture                             UNDER VOTES                           Precinct 5                                             01 
00100040006000007000000000004000003000000000000000000000000000000000000000000000000000000000000000000          Commissioner of Agriculture                             UNDER VOTES                           Precinct 6                                             01 
00100040007000001000000000000000001000000000000000000000000000000000000000000000000000000000000000000          Commissioner of Agriculture                             UNDER VOTES                           Precinct 7                                             01 
00100040008000003000000000000000003000000000000000000000000000000000000000000000000000000000000000000          Commissioner of Agriculture                             UNDER VOTES                           Precinct 8                                             01 
00100040009000020000000000008000012000000000000000000000000000000000000000000000000000000000000000000          Commissioner of Agriculture                             UNDER VOTES                           Precinct 9                                             01 
00110010001000266000006000127000133000000000000000000000000000000000000000000000000000000000000000000REP       Railroad Commissioner                                   REP Wayne Christian                   Precinct 1                                             01 
00110010002000481000009000212000260000000000000000000000000000000000000000000000000000000000000000000REP       Railroad Commissioner                                   REP Wayne Christian                   Precinct 2                                             01 
00110010003000477000015000224000238000000000000000000000000000000000000000000000000000000000000000000REP       Railroad Commissioner                                   REP Wayne Christian                   Precinct 3                                             01 
00110010004000373000009000170000194000000000000000000000000000000000000000000000000000000000000000000REP       Railroad Commissioner                                   REP Wayne Christian                   Precinct 4                                             01 
00110010005000082000004000019000059000000000000000000000000000000000000000000000000000000000000000000REP       Railroad Commissioner                                   REP Wayne Christian                   Precinct 5                                             01 
00110010006000404000008000143000253000000000000000000000000000000000000000000000000000000000000000000REP       Railroad Commissioner                                   REP Wayne Christian                   Precinct 6                                             01 
00110010007000168000005000036000127000000000000000000000000000000000000000000000000000000000000000000REP       Railroad Commissioner                                   REP Wayne Christian                   Precinct 7                                             01 
00110010008000097000001000030000066000000000000000000000000000000000000000000000000000000000000000000REP       Railroad Commissioner                                   REP Wayne Christian                   Precinct 8                                             01 
00110010009000638000010000304000324000000000000000000000000000000000000000000000000000000000000000000REP       Railroad Commissioner                                   REP Wayne Christian                   Precinct 9                                             01 
00110020001000088000008000039000041000000000000000000000000000000000000000000000000000000000000000000DEM       Railroad Commissioner                                   DEM Luke Warford                      Precinct 1                                             01 
00110020002000065000009000023000033000000000000000000000000000000000000000000000000000000000000000000DEM       Railroad Commissioner                                   DEM Luke Warford                      Precinct 2                                             01 
00110020003000130000006000072000052000000000000000000000000000000000000000000000000000000000000000000DEM       Railroad Commissioner                                   DEM Luke Warford                      Precinct 3                                             01 
00110020004000142000012000054000076000000000000000000000000000000000000000000000000000000000000000000DEM       Railroad Commissioner                                   DEM Luke Warford                      Precinct 4                                             01 
00110020005000016000002000007000007000000000000000000000000000000000000000000000000000000000000000000DEM       Railroad Commissioner                                   DEM Luke Warford                      Precinct 5                                             01 
00110020006000053000004000021000028000000000000000000000000000000000000000000000000000000000000000000DEM       Railroad Commissioner                                   DEM Luke Warford                      Precinct 6                                             01 
00110020007000012000000000002000010000000000000000000000000000000000000000000000000000000000000000000DEM       Railroad Commissioner                                   DEM Luke Warford                      Precinct 7                                             01 
00110020008000011000000000006000005000000000000000000000000000000000000000000000000000000000000000000DEM       Railroad Commissioner                                   DEM Luke Warford                      Precinct 8                                             01 
00110020009000086000006000035000045000000000000000000000000000000000000000000000000000000000000000000DEM       Railroad Commissioner                                   DEM Luke Warford                      Precinct 9                                             01 
00110030001000011000000000002000009000000000000000000000000000000000000000000000000000000000000000000LIB       Railroad Commissioner                                   LIB Jaime Andres Diez                 Precinct 1                                             01 
00110030002000012000000000005000007000000000000000000000000000000000000000000000000000000000000000000LIB       Railroad Commissioner                                   LIB Jaime Andres Diez                 Precinct 2                                             01 
00110030003000018000002000006000010000000000000000000000000000000000000000000000000000000000000000000LIB       Railroad Commissioner                                   LIB Jaime Andres Diez                 Precinct 3                                             01 
00110030004000018000001000004000013000000000000000000000000000000000000000000000000000000000000000000LIB       Railroad Commissioner                                   LIB Jaime Andres Diez                 Precinct 4                                             01 
00110030005000002000000000001000001000000000000000000000000000000000000000000000000000000000000000000LIB       Railroad Commissioner                                   LIB Jaime Andres Diez                 Precinct 5                                             01 
00110030006000010000000000002000008000000000000000000000000000000000000000000000000000000000000000000LIB       Railroad Commissioner                                   LIB Jaime Andres Diez                 Precinct 6                                             01 
00110030007000006000000000000000006000000000000000000000000000000000000000000000000000000000000000000LIB       Railroad Commissioner                                   LIB Jaime Andres Diez                 Precinct 7                                             01 
00110030008000002000000000001000001000000000000000000000000000000000000000000000000000000000000000000LIB       Railroad Commissioner                                   LIB Jaime Andres Diez                 Precinct 8                                             01 
