00010010001001274000000000000000000000000000000000000000000000000000000000000000000000000000000000000          REGISTERED VOTERS - TOTAL                               REGISTERED VOTERS - TOTAL             Pct. 101                                               00 
00010010002000842000000000000000000000000000000000000000000000000000000000000000000000000000000000000          REGISTERED VOTERS - TOTAL                               REGISTERED VOTERS - TOTAL             Pct. 201                                               00 
00010010003000275000000000000000000000000000000000000000000000000000000000000000000000000000000000000          REGISTERED VOTERS - TOTAL                               REGISTERED VOTERS - TOTAL             Pct. 202                                               00 
00010010004001191000000000000000000000000000000000000000000000000000000000000000000000000000000000000          REGISTERED VOTERS - TOTAL                               REGISTERED VOTERS - TOTAL             Pct. 301                                               00 
00010010005000062000000000000000000000000000000000000000000000000000000000000000000000000000000000000          REGISTERED VOTERS - TOTAL                               REGISTERED VOTERS - TOTAL             Pct. 303                                               00 
00010010006000278000000000000000000000000000000000000000000000000000000000000000000000000000000000000          REGISTERED VOTERS - TOTAL                               REGISTERED VOTERS - TOTAL             Pct. 401                                               00 
00010010007000531000000000000000000000000000000000000000000000000000000000000000000000000000000000000          REGISTERED VOTERS - TOTAL                               REGISTERED VOTERS - TOTAL             Pct. 402                                               00 
00020010001000488000016000089000383000000000000000000000000000000000000000000000000000000000000000000          BALLOTS CAST - TOTAL                                    BALLOTS CAST - TOTAL                  Pct. 101                                               00 
00020010002000226000013000025000188000000000000000000000000000000000000000000000000000000000000000000          BALLOTS CAST - TOTAL                                    BALLOTS CAST - TOTAL                  Pct. 201                                               00 
00020010003000162000003000037000122000000000000000000000000000000000000000000000000000000000000000000          BALLOTS CAST - TOTAL                                    BALLOTS CAST - TOTAL                  Pct. 202                                               00 
00020010004000627000021000258000348000000000000000000000000000000000000000000000000000000000000000000          BALLOTS CAST - TOTAL                                    BALLOTS CAST - TOTAL                  Pct. 301                                               00 
00020010005000018000001000004000013000000000000000000000000000000000000000000000000000000000000000000          BALLOTS CAST - TOTAL                                    BALLOTS CAST - TOTAL                  Pct. 303                                               00 
00020010006000149000007000041000101000000000000000000000000000000000000000000000000000000000000000000          BALLOTS CAST - TOTAL                                    BALLOTS CAST - TOTAL                  Pct. 401                                               00 
00020010007000103000004000021000078000000000000000000000000000000000000000000000000000000000000000000          BALLOTS CAST - TOTAL                                    BALLOTS CAST - TOTAL                  Pct. 402                                               00 
00030010001000000000000000000000000000000000000000000000000000000000000000000000000000000000000000000          BALLOTS CAST - BLANK                                    BALLOTS CAST - BLANK                  Pct. 101                                               00 
00030010002000000000000000000000000000000000000000000000000000000000000000000000000000000000000000000          BALLOTS CAST - BLANK                                    BALLOTS CAST - BLANK                  Pct. 201                                               00 
00030010003000000000000000000000000000000000000000000000000000000000000000000000000000000000000000000          BALLOTS CAST - BLANK                                    BALLOTS CAST - BLANK                  Pct. 202                                               00 
00030010004000000000000000000000000000000000000000000000000000000000000000000000000000000000000000000          BALLOTS CAST - BLANK                                    BALLOTS CAST - BLANK                  Pct. 301                                               00 
00030010005000000000000000000000000000000000000000000000000000000000000000000000000000000000000000000          BALLOTS CAST - BLANK                                    BALLOTS CAST - BLANK                  Pct. 303                                               00 
00030010006000000000000000000000000000000000000000000000000000000000000000000000000000000000000000000          BALLOTS CAST - BLANK                                    BALLOTS CAST - BLANK                  Pct. 401                                               00 
00030010007000000000000000000000000000000000000000000000000000000000000000000000000000000000000000000          BALLOTS CAST - BLANK                                    BALLOTS CAST - BLANK                  Pct. 402                                               00 
00040010001000430000014000077000339000000000000000000000000000000000000000000000000000000000000000000REP       US Representative, Dist 19                              REP Jodey C. Arrington                Pct. 101                                               01 
00040010002000188000011000022000155000000000000000000000000000000000000000000000000000000000000000000REP       US Representative, Dist 19                              REP Jodey C. Arrington                Pct. 201                                               01 
00040010003000157000003000036000118000000000000000000000000000000000000000000000000000000000000000000REP       US Representative, Dist 19                              REP Jodey C. Arrington                Pct. 202                                               01 
00040010004000573000013000233000327000000000000000000000000000000000000000000000000000000000000000000REP       US Representative, Dist 19                              REP Jodey C. Arrington                Pct. 301                                               01 
00040010005000018000001000004000013000000000000000000000000000000000000000000000000000000000000000000REP       US Representative, Dist 19                              REP Jodey C. Arrington                Pct. 303                                               01 
00040010006000143000006000040000097000000000000000000000000000000000000000000000000000000000000000000REP       US Representative, Dist 19                              REP Jodey C. Arrington                Pct. 401                                               01 
00040010007000073000004000013000056000000000000000000000000000000000000000000000000000000000000000000REP       US Representative, Dist 19                              REP Jodey C. Arrington                Pct. 402                                               01 
00040020001000044000000000010000034000000000000000000000000000000000000000000000000000000000000000000IND       US Representative, Dist 19                              IND Nathan Lewis                      Pct. 101                                               01 
00040020002000027000001000003000023000000000000000000000000000000000000000000000000000000000000000000IND       US Representative, Dist 19                              IND Nathan Lewis                      Pct. 201                                               01 
00040020003000005000000000001000004000000000000000000000000000000000000000000000000000000000000000000IND       US Representative, Dist 19                              IND Nathan Lewis                      Pct. 202                                               01 
00040020004000044000007000020000017000000000000000000000000000000000000000000000000000000000000000000IND       US Representative, Dist 19                              IND Nathan Lewis                      Pct. 301                                               01 
00040020005000000000000000000000000000000000000000000000000000000000000000000000000000000000000000000IND       US Representative, Dist 19                              IND Nathan Lewis                      Pct. 303                                               01 
00040020006000005000001000001000003000000000000000000000000000000000000000000000000000000000000000000IND       US Representative, Dist 19                              IND Nathan Lewis                      Pct. 401                                               01 
00040020007000027000000000007000020000000000000000000000000000000000000000000000000000000000000000000IND       US Representative, Dist 19                              IND Nathan Lewis                      Pct. 402                                               01 
00040030001000000000000000000000000000000000000000000000000000000000000000000000000000000000000000000          US Representative, Dist 19                              OVER VOTES                            Pct. 101                                               01 
00040030002000000000000000000000000000000000000000000000000000000000000000000000000000000000000000000          US Representative, Dist 19                              OVER VOTES                            Pct. 201                                               01 
00040030003000000000000000000000000000000000000000000000000000000000000000000000000000000000000000000          US Representative, Dist 19                              OVER VOTES                            Pct. 202                                               01 
00040030004000000000000000000000000000000000000000000000000000000000000000000000000000000000000000000          US Representative, Dist 19                              OVER VOTES                            Pct. 301                                               01 
00040030005000000000000000000000000000000000000000000000000000000000000000000000000000000000000000000          US Representative, Dist 19                              OVER VOTES                            Pct. 303                                               01 
00040030006000000000000000000000000000000000000000000000000000000000000000000000000000000000000000000          US Representative, Dist 19                              OVER VOTES                            Pct. 401                                               01 
00040030007000000000000000000000000000000000000000000000000000000000000000000000000000000000000000000          US Representative, Dist 19                              OVER VOTES                            Pct. 402                                               01 
00040040001000014000002000002000010000000000000000000000000000000000000000000000000000000000000000000          US Representative, Dist 19                              UNDER VOTES                           Pct. 101                                               01 
00040040002000011000001000000000010000000000000000000000000000000000000000000000000000000000000000000          US Representative, Dist 19                              UNDER VOTES                           Pct. 201                                               01 
00040040003000000000000000000000000000000000000000000000000000000000000000000000000000000000000000000          US Representative, Dist 19                              UNDER VOTES                           Pct. 202                                               01 
00040040004000010000001000005000004000000000000000000000000000000000000000000000000000000000000000000          US Representative, Dist 19                              UNDER VOTES                           Pct. 301                                               01 
00040040005000000000000000000000000000000000000000000000000000000000000000000000000000000000000000000          US Representative, Dist 19                              UNDER VOTES                           Pct. 303                                               01 
00040040006000001000000000000000001000000000000000000000000000000000000000000000000000000000000000000          US Representative, Dist 19                              UNDER VOTES                           Pct. 401                                               01 
00040040007000003000000000001000002000000000000000000000000000000000000000000000000000000000000000000          US Representative, Dist 19                              UNDER VOTES                           Pct. 402                                               01 
00050010001000423000015000078000330000000000000000000000000000000000000000000000000000000000000000000REP       Governor                                                REP Greg Abbott                       Pct. 101                                               01 
00050010002000172000009000022000141000000000000000000000000000000000000000000000000000000000000000000REP       Governor                                                REP Greg Abbott                       Pct. 201                                               01 
00050010003000155000003000036000116000000000000000000000000000000000000000000000000000000000000000000REP       Governor                                                REP Greg Abbott                       Pct. 202                                               01 
00050010004000564000012000230000322000000000000000000000000000000000000000000000000000000000000000000REP       Governor                                                REP Greg Abbott                       Pct. 301                                               01 
00050010005000018000001000004000013000000000000000000000000000000000000000000000000000000000000000000REP       Governor                                                REP Greg Abbott                       Pct. 303                                               01 
00050010006000144000006000039000099000000000000000000000000000000000000000000000000000000000000000000REP       Governor                                                REP Greg Abbott                       Pct. 401                                               01 
00050010007000070000004000013000053000000000000000000000000000000000000000000000000000000000000000000REP       Governor                                                REP Greg Abbott                       Pct. 402                                               01 
00050020001000056000000000011000045000000000000000000000000000000000000000000000000000000000000000000DEM       Governor                                                DEM Beto O'Rourke                     Pct. 101                                               01 
00050020002000047000004000003000040000000000000000000000000000000000000000000000000000000000000000000DEM       Governor                                                DEM Beto O'Rourke                     Pct. 201                                               01 
00050020003000005000000000001000004000000000000000000000000000000000000000000000000000000000000000000DEM       Governor                                                DEM Beto O'Rourke                     Pct. 202                                               01 
00050020004000058000009000024000025000000000000000000000000000000000000000000000000000000000000000000DEM       Governor                                                DEM Beto O'Rourke                     Pct. 301                                               01 
00050020005000000000000000000000000000000000000000000000000000000000000000000000000000000000000000000DEM       Governor                                                DEM Beto O'Rourke                     Pct. 303                                               01 
00050020006000005000001000002000002000000000000000000000000000000000000000000000000000000000000000000DEM       Governor                                                DEM Beto O'Rourke                     Pct. 401                                               01 
00050020007000031000000000008000023000000000000000000000000000000000000000000000000000000000000000000DEM       Governor                                                DEM Beto O'Rourke                     Pct. 402                                               01 
00050030001000002000000000000000002000000000000000000000000000000000000000000000000000000000000000000LIB       Governor                                                LIB Mark Tippetts                     Pct. 101                                               01 
00050030002000002000000000000000002000000000000000000000000000000000000000000000000000000000000000000LIB       Governor                                                LIB Mark Tippetts                     Pct. 201                                               01 
00050030003000001000000000000000001000000000000000000000000000000000000000000000000000000000000000000LIB       Governor                                                LIB Mark Tippetts                     Pct. 202                                               01 
00050030004000004000000000004000000000000000000000000000000000000000000000000000000000000000000000000LIB       Governor                                                LIB Mark Tippetts                     Pct. 301                                               01 
00050030005000000000000000000000000000000000000000000000000000000000000000000000000000000000000000000LIB       Governor                                                LIB Mark Tippetts                     Pct. 303                                               01 
00050030006000000000000000000000000000000000000000000000000000000000000000000000000000000000000000000LIB       Governor                                                LIB Mark Tippetts                     Pct. 401                                               01 
00050030007000001000000000000000001000000000000000000000000000000000000000000000000000000000000000000LIB       Governor                                                LIB Mark Tippetts                     Pct. 402                                               01 
00050040001000005000000000000000005000000000000000000000000000000000000000000000000000000000000000000GRN       Governor                                                GRN Delilah Barrios                   Pct. 101                                               01 
00050040002000002000000000000000002000000000000000000000000000000000000000000000000000000000000000000GRN       Governor                                                GRN Delilah Barrios                   Pct. 201                                               01 
00050040003000001000000000000000001000000000000000000000000000000000000000000000000000000000000000000GRN       Governor                                                GRN Delilah Barrios                   Pct. 202                                               01 
00050040004000001000000000000000001000000000000000000000000000000000000000000000000000000000000000000GRN       Governor                                                GRN Delilah Barrios                   Pct. 301                                               01 
00050040005000000000000000000000000000000000000000000000000000000000000000000000000000000000000000000GRN       Governor                                                GRN Delilah Barrios                   Pct. 303                                               01 
00050040006000000000000000000000000000000000000000000000000000000000000000000000000000000000000000000GRN       Governor                                                GRN Delilah Barrios                   Pct. 401                                               01 
00050040007000001000000000000000001000000000000000000000000000000000000000000000000000000000000000000GRN       Governor                                                GRN Delilah Barrios                   Pct. 402                                               01 
00050060001000000000000000000000000000000000000000000000000000000000000000000000000000000000000000000NON       Governor                                                Write-in                              Pct. 101                                               01 
00050060002000000000000000000000000000000000000000000000000000000000000000000000000000000000000000000NON       Governor                                                Write-in                              Pct. 201                                               01 
00050060003000000000000000000000000000000000000000000000000000000000000000000000000000000000000000000NON       Governor                                                Write-in                              Pct. 202                                               01 
00050060004000000000000000000000000000000000000000000000000000000000000000000000000000000000000000000NON       Governor                                                Write-in                              Pct. 301                                               01 
00050060005000000000000000000000000000000000000000000000000000000000000000000000000000000000000000000NON       Governor                                                Write-in                              Pct. 303                                               01 
00050060006000000000000000000000000000000000000000000000000000000000000000000000000000000000000000000NON       Governor                                                Write-in                              Pct. 401                                               01 
00050060007000000000000000000000000000000000000000000000000000000000000000000000000000000000000000000NON       Governor                                                Write-in                              Pct. 402                                               01 
00050070001000000000000000000000000000000000000000000000000000000000000000000000000000000000000000000          Governor                                                OVER VOTES                            Pct. 101                                               01 
00050070002000000000000000000000000000000000000000000000000000000000000000000000000000000000000000000          Governor                                                OVER VOTES                            Pct. 201                                               01 
00050070003000000000000000000000000000000000000000000000000000000000000000000000000000000000000000000          Governor                                                OVER VOTES                            Pct. 202                                               01 
00050070004000000000000000000000000000000000000000000000000000000000000000000000000000000000000000000          Governor                                                OVER VOTES                            Pct. 301                                               01 
00050070005000000000000000000000000000000000000000000000000000000000000000000000000000000000000000000          Governor                                                OVER VOTES                            Pct. 303                                               01 
00050070006000000000000000000000000000000000000000000000000000000000000000000000000000000000000000000          Governor                                                OVER VOTES                            Pct. 401                                               01 
00050070007000000000000000000000000000000000000000000000000000000000000000000000000000000000000000000          Governor                                                OVER VOTES                            Pct. 402                                               01 
00050080001000002000001000000000001000000000000000000000000000000000000000000000000000000000000000000          Governor                                                UNDER VOTES                           Pct. 101                                               01 
00050080002000003000000000000000003000000000000000000000000000000000000000000000000000000000000000000          Governor                                                UNDER VOTES                           Pct. 201                                               01 
00050080003000000000000000000000000000000000000000000000000000000000000000000000000000000000000000000          Governor                                                UNDER VOTES                           Pct. 202                                               01 
00050080004000000000000000000000000000000000000000000000000000000000000000000000000000000000000000000          Governor                                                UNDER VOTES                           Pct. 301                                               01 
00050080005000000000000000000000000000000000000000000000000000000000000000000000000000000000000000000          Governor                                                UNDER VOTES                           Pct. 303                                               01 
00050080006000000000000000000000000000000000000000000000000000000000000000000000000000000000000000000          Governor                                                UNDER VOTES                           Pct. 401                                               01 
00050080007000000000000000000000000000000000000000000000000000000000000000000000000000000000000000000          Governor                                                UNDER VOTES                           Pct. 402                                               01 
00060010001000401000016000072000313000000000000000000000000000000000000000000000000000000000000000000REP       Lieutenant Governor                                     REP Dan Patrick                       Pct. 101                                               01 
00060010002000167000008000022000137000000000000000000000000000000000000000000000000000000000000000000REP       Lieutenant Governor                                     REP Dan Patrick                       Pct. 201                                               01 
00060010003000153000003000034000116000000000000000000000000000000000000000000000000000000000000000000REP       Lieutenant Governor                                     REP Dan Patrick                       Pct. 202                                               01 
00060010004000553000012000227000314000000000000000000000000000000000000000000000000000000000000000000REP       Lieutenant Governor                                     REP Dan Patrick                       Pct. 301                                               01 
00060010005000018000001000004000013000000000000000000000000000000000000000000000000000000000000000000REP       Lieutenant Governor                                     REP Dan Patrick                       Pct. 303                                               01 
00060010006000142000006000037000099000000000000000000000000000000000000000000000000000000000000000000REP       Lieutenant Governor                                     REP Dan Patrick                       Pct. 401                                               01 
00060010007000068000004000012000052000000000000000000000000000000000000000000000000000000000000000000REP       Lieutenant Governor                                     REP Dan Patrick                       Pct. 402                                               01 
00060020001000069000000000015000054000000000000000000000000000000000000000000000000000000000000000000DEM       Lieutenant Governor                                     DEM Mike Collier                      Pct. 101                                               01 
00060020002000050000005000002000043000000000000000000000000000000000000000000000000000000000000000000DEM       Lieutenant Governor                                     DEM Mike Collier                      Pct. 201                                               01 
00060020003000009000000000003000006000000000000000000000000000000000000000000000000000000000000000000DEM       Lieutenant Governor                                     DEM Mike Collier                      Pct. 202                                               01 
00060020004000062000008000028000026000000000000000000000000000000000000000000000000000000000000000000DEM       Lieutenant Governor                                     DEM Mike Collier                      Pct. 301                                               01 
00060020005000000000000000000000000000000000000000000000000000000000000000000000000000000000000000000DEM       Lieutenant Governor                                     DEM Mike Collier                      Pct. 303                                               01 
00060020006000005000001000003000001000000000000000000000000000000000000000000000000000000000000000000DEM       Lieutenant Governor                                     DEM Mike Collier                      Pct. 401                                               01 
00060020007000032000000000009000023000000000000000000000000000000000000000000000000000000000000000000DEM       Lieutenant Governor                                     DEM Mike Collier                      Pct. 402                                               01 
00060030001000015000000000002000013000000000000000000000000000000000000000000000000000000000000000000LIB       Lieutenant Governor                                     LIB Shanna Steele                     Pct. 101                                               01 
00060030002000006000000000001000005000000000000000000000000000000000000000000000000000000000000000000LIB       Lieutenant Governor                                     LIB Shanna Steele                     Pct. 201                                               01 
00060030003000000000000000000000000000000000000000000000000000000000000000000000000000000000000000000LIB       Lieutenant Governor                                     LIB Shanna Steele                     Pct. 202                                               01 
00060030004000009000001000003000005000000000000000000000000000000000000000000000000000000000000000000LIB       Lieutenant Governor                                     LIB Shanna Steele                     Pct. 301                                               01 
00060030005000000000000000000000000000000000000000000000000000000000000000000000000000000000000000000LIB       Lieutenant Governor                                     LIB Shanna Steele                     Pct. 303                                               01 
00060030006000002000000000001000001000000000000000000000000000000000000000000000000000000000000000000LIB       Lieutenant Governor                                     LIB Shanna Steele                     Pct. 401                                               01 
00060030007000001000000000000000001000000000000000000000000000000000000000000000000000000000000000000LIB       Lieutenant Governor                                     LIB Shanna Steele                     Pct. 402                                               01 
00060040001000000000000000000000000000000000000000000000000000000000000000000000000000000000000000000          Lieutenant Governor                                     OVER VOTES                            Pct. 101                                               01 
00060040002000000000000000000000000000000000000000000000000000000000000000000000000000000000000000000          Lieutenant Governor                                     OVER VOTES                            Pct. 201                                               01 
00060040003000000000000000000000000000000000000000000000000000000000000000000000000000000000000000000          Lieutenant Governor                                     OVER VOTES                            Pct. 202                                               01 
00060040004000000000000000000000000000000000000000000000000000000000000000000000000000000000000000000          Lieutenant Governor                                     OVER VOTES                            Pct. 301                                               01 
00060040005000000000000000000000000000000000000000000000000000000000000000000000000000000000000000000          Lieutenant Governor                                     OVER VOTES                            Pct. 303                                               01 
00060040006000000000000000000000000000000000000000000000000000000000000000000000000000000000000000000          Lieutenant Governor                                     OVER VOTES                            Pct. 401                                               01 
00060040007000000000000000000000000000000000000000000000000000000000000000000000000000000000000000000          Lieutenant Governor                                     OVER VOTES                            Pct. 402                                               01 
00060050001000003000000000000000003000000000000000000000000000000000000000000000000000000000000000000          Lieutenant Governor                                     UNDER VOTES                           Pct. 101                                               01 
00060050002000003000000000000000003000000000000000000000000000000000000000000000000000000000000000000          Lieutenant Governor                                     UNDER VOTES                           Pct. 201                                               01 
00060050003000000000000000000000000000000000000000000000000000000000000000000000000000000000000000000          Lieutenant Governor                                     UNDER VOTES                           Pct. 202                                               01 
00060050004000003000000000000000003000000000000000000000000000000000000000000000000000000000000000000          Lieutenant Governor                                     UNDER VOTES                           Pct. 301                                               01 
00060050005000000000000000000000000000000000000000000000000000000000000000000000000000000000000000000          Lieutenant Governor                                     UNDER VOTES                           Pct. 303                                               01 
00060050006000000000000000000000000000000000000000000000000000000000000000000000000000000000000000000          Lieutenant Governor                                     UNDER VOTES                           Pct. 401                                               01 
00060050007000002000000000000000002000000000000000000000000000000000000000000000000000000000000000000          Lieutenant Governor                                     UNDER VOTES                           Pct. 402                                               01 
00070010001000399000016000073000310000000000000000000000000000000000000000000000000000000000000000000REP       Attorney General                                        REP Ken Paxton                        Pct. 101                                               01 
00070010002000166000009000021000136000000000000000000000000000000000000000000000000000000000000000000REP       Attorney General                                        REP Ken Paxton                        Pct. 201                                               01 
00070010003000153000003000034000116000000000000000000000000000000000000000000000000000000000000000000REP       Attorney General                                        REP Ken Paxton                        Pct. 202                                               01 
00070010004000548000012000227000309000000000000000000000000000000000000000000000000000000000000000000REP       Attorney General                                        REP Ken Paxton                        Pct. 301                                               01 
00070010005000018000001000004000013000000000000000000000000000000000000000000000000000000000000000000REP       Attorney General                                        REP Ken Paxton                        Pct. 303                                               01 
00070010006000143000006000038000099000000000000000000000000000000000000000000000000000000000000000000REP       Attorney General                                        REP Ken Paxton                        Pct. 401                                               01 
00070010007000070000004000013000053000000000000000000000000000000000000000000000000000000000000000000REP       Attorney General                                        REP Ken Paxton                        Pct. 402                                               01 
00070020001000071000000000012000059000000000000000000000000000000000000000000000000000000000000000000DEM       Attorney General                                        DEM Rochelle Mercedes Garza           Pct. 101                                               01 
00070020002000051000004000003000044000000000000000000000000000000000000000000000000000000000000000000DEM       Attorney General                                        DEM Rochelle Mercedes Garza           Pct. 201                                               01 
00070020003000008000000000003000005000000000000000000000000000000000000000000000000000000000000000000DEM       Attorney General                                        DEM Rochelle Mercedes Garza           Pct. 202                                               01 
00070020004000059000009000025000025000000000000000000000000000000000000000000000000000000000000000000DEM       Attorney General                                        DEM Rochelle Mercedes Garza           Pct. 301                                               01 
00070020005000000000000000000000000000000000000000000000000000000000000000000000000000000000000000000DEM       Attorney General                                        DEM Rochelle Mercedes Garza           Pct. 303                                               01 
00070020006000004000001000002000001000000000000000000000000000000000000000000000000000000000000000000DEM       Attorney General                                        DEM Rochelle Mercedes Garza           Pct. 401                                               01 
00070020007000029000000000008000021000000000000000000000000000000000000000000000000000000000000000000DEM       Attorney General                                        DEM Rochelle Mercedes Garza           Pct. 402                                               01 
00070030001000011000000000002000009000000000000000000000000000000000000000000000000000000000000000000LIB       Attorney General                                        LIB Mark Ash                          Pct. 101                                               01 
00070030002000003000000000001000002000000000000000000000000000000000000000000000000000000000000000000LIB       Attorney General                                        LIB Mark Ash                          Pct. 201                                               01 
00070030003000001000000000000000001000000000000000000000000000000000000000000000000000000000000000000LIB       Attorney General                                        LIB Mark Ash                          Pct. 202                                               01 
00070030004000015000000000004000011000000000000000000000000000000000000000000000000000000000000000000LIB       Attorney General                                        LIB Mark Ash                          Pct. 301                                               01 
00070030005000000000000000000000000000000000000000000000000000000000000000000000000000000000000000000LIB       Attorney General                                        LIB Mark Ash                          Pct. 303                                               01 
00070030006000002000000000001000001000000000000000000000000000000000000000000000000000000000000000000LIB       Attorney General                                        LIB Mark Ash                          Pct. 401                                               01 
00070030007000001000000000000000001000000000000000000000000000000000000000000000000000000000000000000LIB       Attorney General                                        LIB Mark Ash                          Pct. 402                                               01 
00070040001000000000000000000000000000000000000000000000000000000000000000000000000000000000000000000          Attorney General                                        OVER VOTES                            Pct. 101                                               01 
00070040002000000000000000000000000000000000000000000000000000000000000000000000000000000000000000000          Attorney General                                        OVER VOTES                            Pct. 201                                               01 
00070040003000000000000000000000000000000000000000000000000000000000000000000000000000000000000000000          Attorney General                                        OVER VOTES                            Pct. 202                                               01 
00070040004000000000000000000000000000000000000000000000000000000000000000000000000000000000000000000          Attorney General                                        OVER VOTES                            Pct. 301                                               01 
00070040005000000000000000000000000000000000000000000000000000000000000000000000000000000000000000000          Attorney General                                        OVER VOTES                            Pct. 303                                               01 
00070040006000000000000000000000000000000000000000000000000000000000000000000000000000000000000000000          Attorney General                                        OVER VOTES                            Pct. 401                                               01 
00070040007000000000000000000000000000000000000000000000000000000000000000000000000000000000000000000          Attorney General                                        OVER VOTES                            Pct. 402                                               01 
00070050001000007000000000002000005000000000000000000000000000000000000000000000000000000000000000000          Attorney General                                        UNDER VOTES                           Pct. 101                                               01 
00070050002000006000000000000000006000000000000000000000000000000000000000000000000000000000000000000          Attorney General                                        UNDER VOTES                           Pct. 201                                               01 
00070050003000000000000000000000000000000000000000000000000000000000000000000000000000000000000000000          Attorney General                                        UNDER VOTES                           Pct. 202                                               01 
00070050004000005000000000002000003000000000000000000000000000000000000000000000000000000000000000000          Attorney General                                        UNDER VOTES                           Pct. 301                                               01 
00070050005000000000000000000000000000000000000000000000000000000000000000000000000000000000000000000          Attorney General                                        UNDER VOTES                           Pct. 303                                               01 
00070050006000000000000000000000000000000000000000000000000000000000000000000000000000000000000000000          Attorney General                                        UNDER VOTES                           Pct. 401                                               01 
00070050007000003000000000000000003000000000000000000000000000000000000000000000000000000000000000000          Attorney General                                        UNDER VOTES                           Pct. 402                                               01 
00080010001000410000016000076000318000000000000000000000000000000000000000000000000000000000000000000REP       Comptroller of Public Accounts                          REP Glenn Hegar                       Pct. 101                                               01 
00080010002000166000008000021000137000000000000000000000000000000000000000000000000000000000000000000REP       Comptroller of Public Accounts                          REP Glenn Hegar                       Pct. 201                                               01 
00080010003000154000003000035000116000000000000000000000000000000000000000000000000000000000000000000REP       Comptroller of Public Accounts                          REP Glenn Hegar                       Pct. 202                                               01 
00080010004000560000012000226000322000000000000000000000000000000000000000000000000000000000000000000REP       Comptroller of Public Accounts                          REP Glenn Hegar                       Pct. 301                                               01 
00080010005000018000001000004000013000000000000000000000000000000000000000000000000000000000000000000REP       Comptroller of Public Accounts                          REP Glenn Hegar                       Pct. 303                                               01 
00080010006000141000006000036000099000000000000000000000000000000000000000000000000000000000000000000REP       Comptroller of Public Accounts                          REP Glenn Hegar                       Pct. 401                                               01 
00080010007000071000004000013000054000000000000000000000000000000000000000000000000000000000000000000REP       Comptroller of Public Accounts                          REP Glenn Hegar                       Pct. 402                                               01 
00080020001000056000000000011000045000000000000000000000000000000000000000000000000000000000000000000DEM       Comptroller of Public Accounts                          DEM Janet T. Dudding                  Pct. 101                                               01 
00080020002000042000005000003000034000000000000000000000000000000000000000000000000000000000000000000DEM       Comptroller of Public Accounts                          DEM Janet T. Dudding                  Pct. 201                                               01 
00080020003000007000000000002000005000000000000000000000000000000000000000000000000000000000000000000DEM       Comptroller of Public Accounts                          DEM Janet T. Dudding                  Pct. 202                                               01 
00080020004000045000008000020000017000000000000000000000000000000000000000000000000000000000000000000DEM       Comptroller of Public Accounts                          DEM Janet T. Dudding                  Pct. 301                                               01 
00080020005000000000000000000000000000000000000000000000000000000000000000000000000000000000000000000DEM       Comptroller of Public Accounts                          DEM Janet T. Dudding                  Pct. 303                                               01 
00080020006000006000001000003000002000000000000000000000000000000000000000000000000000000000000000000DEM       Comptroller of Public Accounts                          DEM Janet T. Dudding                  Pct. 401                                               01 
00080020007000027000000000008000019000000000000000000000000000000000000000000000000000000000000000000DEM       Comptroller of Public Accounts                          DEM Janet T. Dudding                  Pct. 402                                               01 
00080030001000014000000000002000012000000000000000000000000000000000000000000000000000000000000000000LIB       Comptroller of Public Accounts                          LIB V. Alonzo Echevarria-Garza        Pct. 101                                               01 
00080030002000009000000000000000009000000000000000000000000000000000000000000000000000000000000000000LIB       Comptroller of Public Accounts                          LIB V. Alonzo Echevarria-Garza        Pct. 201                                               01 
00080030003000001000000000000000001000000000000000000000000000000000000000000000000000000000000000000LIB       Comptroller of Public Accounts                          LIB V. Alonzo Echevarria-Garza        Pct. 202                                               01 
00080030004000017000001000008000008000000000000000000000000000000000000000000000000000000000000000000LIB       Comptroller of Public Accounts                          LIB V. Alonzo Echevarria-Garza        Pct. 301                                               01 
00080030005000000000000000000000000000000000000000000000000000000000000000000000000000000000000000000LIB       Comptroller of Public Accounts                          LIB V. Alonzo Echevarria-Garza        Pct. 303                                               01 
00080030006000000000000000000000000000000000000000000000000000000000000000000000000000000000000000000LIB       Comptroller of Public Accounts                          LIB V. Alonzo Echevarria-Garza        Pct. 401                                               01 
00080030007000002000000000000000002000000000000000000000000000000000000000000000000000000000000000000LIB       Comptroller of Public Accounts                          LIB V. Alonzo Echevarria-Garza        Pct. 402                                               01 
00080040001000000000000000000000000000000000000000000000000000000000000000000000000000000000000000000          Comptroller of Public Accounts                          OVER VOTES                            Pct. 101                                               01 
00080040002000000000000000000000000000000000000000000000000000000000000000000000000000000000000000000          Comptroller of Public Accounts                          OVER VOTES                            Pct. 201                                               01 
00080040003000000000000000000000000000000000000000000000000000000000000000000000000000000000000000000          Comptroller of Public Accounts                          OVER VOTES                            Pct. 202                                               01 
00080040004000000000000000000000000000000000000000000000000000000000000000000000000000000000000000000          Comptroller of Public Accounts                          OVER VOTES                            Pct. 301                                               01 
00080040005000000000000000000000000000000000000000000000000000000000000000000000000000000000000000000          Comptroller of Public Accounts                          OVER VOTES                            Pct. 303                                               01 
00080040006000000000000000000000000000000000000000000000000000000000000000000000000000000000000000000          Comptroller of Public Accounts                          OVER VOTES                            Pct. 401                                               01 
00080040007000000000000000000000000000000000000000000000000000000000000000000000000000000000000000000          Comptroller of Public Accounts                          OVER VOTES                            Pct. 402                                               01 
00080050001000008000000000000000008000000000000000000000000000000000000000000000000000000000000000000          Comptroller of Public Accounts                          UNDER VOTES                           Pct. 101                                               01 
00080050002000009000000000001000008000000000000000000000000000000000000000000000000000000000000000000          Comptroller of Public Accounts                          UNDER VOTES                           Pct. 201                                               01 
00080050003000000000000000000000000000000000000000000000000000000000000000000000000000000000000000000          Comptroller of Public Accounts                          UNDER VOTES                           Pct. 202                                               01 
00080050004000005000000000004000001000000000000000000000000000000000000000000000000000000000000000000          Comptroller of Public Accounts                          UNDER VOTES                           Pct. 301                                               01 
00080050005000000000000000000000000000000000000000000000000000000000000000000000000000000000000000000          Comptroller of Public Accounts                          UNDER VOTES                           Pct. 303                                               01 
00080050006000002000000000002000000000000000000000000000000000000000000000000000000000000000000000000          Comptroller of Public Accounts                          UNDER VOTES                           Pct. 401                                               01 
00080050007000003000000000000000003000000000000000000000000000000000000000000000000000000000000000000          Comptroller of Public Accounts                          UNDER VOTES                           Pct. 402                                               01 
00090010001000405000016000077000312000000000000000000000000000000000000000000000000000000000000000000REP       Comm. General Land Office                               REP Dawn Buckingham                   Pct. 101                                               01 
00090010002000165000008000019000138000000000000000000000000000000000000000000000000000000000000000000REP       Comm. General Land Office                               REP Dawn Buckingham                   Pct. 201                                               01 
00090010003000153000003000034000116000000000000000000000000000000000000000000000000000000000000000000REP       Comm. General Land Office                               REP Dawn Buckingham                   Pct. 202                                               01 
00090010004000563000013000230000320000000000000000000000000000000000000000000000000000000000000000000REP       Comm. General Land Office                               REP Dawn Buckingham                   Pct. 301                                               01 
00090010005000018000001000004000013000000000000000000000000000000000000000000000000000000000000000000REP       Comm. General Land Office                               REP Dawn Buckingham                   Pct. 303                                               01 
00090010006000142000005000038000099000000000000000000000000000000000000000000000000000000000000000000REP       Comm. General Land Office                               REP Dawn Buckingham                   Pct. 401                                               01 
00090010007000073000004000013000056000000000000000000000000000000000000000000000000000000000000000000REP       Comm. General Land Office                               REP Dawn Buckingham                   Pct. 402                                               01 
00090020001000067000000000012000055000000000000000000000000000000000000000000000000000000000000000000DEM       Comm. General Land Office                               DEM Jay Kleberg                       Pct. 101                                               01 
00090020002000047000004000004000039000000000000000000000000000000000000000000000000000000000000000000DEM       Comm. General Land Office                               DEM Jay Kleberg                       Pct. 201                                               01 
00090020003000008000000000002000006000000000000000000000000000000000000000000000000000000000000000000DEM       Comm. General Land Office                               DEM Jay Kleberg                       Pct. 202                                               01 
00090020004000054000008000023000023000000000000000000000000000000000000000000000000000000000000000000DEM       Comm. General Land Office                               DEM Jay Kleberg                       Pct. 301                                               01 
00090020005000000000000000000000000000000000000000000000000000000000000000000000000000000000000000000DEM       Comm. General Land Office                               DEM Jay Kleberg                       Pct. 303                                               01 
00090020006000005000001000002000002000000000000000000000000000000000000000000000000000000000000000000DEM       Comm. General Land Office                               DEM Jay Kleberg                       Pct. 401                                               01 
00090020007000028000000000008000020000000000000000000000000000000000000000000000000000000000000000000DEM       Comm. General Land Office                               DEM Jay Kleberg                       Pct. 402                                               01 
00090030001000010000000000000000010000000000000000000000000000000000000000000000000000000000000000000GRN       Comm. General Land Office                               GRN Alfred Molison, Jr.               Pct. 101                                               01 
00090030002000003000000000000000003000000000000000000000000000000000000000000000000000000000000000000GRN       Comm. General Land Office                               GRN Alfred Molison, Jr.               Pct. 201                                               01 
00090030003000000000000000000000000000000000000000000000000000000000000000000000000000000000000000000GRN       Comm. General Land Office                               GRN Alfred Molison, Jr.               Pct. 202                                               01 
00090030004000004000000000002000002000000000000000000000000000000000000000000000000000000000000000000GRN       Comm. General Land Office                               GRN Alfred Molison, Jr.               Pct. 301                                               01 
00090030005000000000000000000000000000000000000000000000000000000000000000000000000000000000000000000GRN       Comm. General Land Office                               GRN Alfred Molison, Jr.               Pct. 303                                               01 
00090030006000000000000000000000000000000000000000000000000000000000000000000000000000000000000000000GRN       Comm. General Land Office                               GRN Alfred Molison, Jr.               Pct. 401                                               01 
00090030007000000000000000000000000000000000000000000000000000000000000000000000000000000000000000000GRN       Comm. General Land Office                               GRN Alfred Molison, Jr.               Pct. 402                                               01 
00090050001000001000000000000000001000000000000000000000000000000000000000000000000000000000000000000NON       Comm. General Land Office                               Write-in                              Pct. 101                                               01 
00090050002000000000000000000000000000000000000000000000000000000000000000000000000000000000000000000NON       Comm. General Land Office                               Write-in                              Pct. 201                                               01 
00090050003000000000000000000000000000000000000000000000000000000000000000000000000000000000000000000NON       Comm. General Land Office                               Write-in                              Pct. 202                                               01 
00090050004000001000000000000000001000000000000000000000000000000000000000000000000000000000000000000NON       Comm. General Land Office                               Write-in                              Pct. 301                                               01 
00090050005000000000000000000000000000000000000000000000000000000000000000000000000000000000000000000NON       Comm. General Land Office                               Write-in                              Pct. 303                                               01 
00090050006000000000000000000000000000000000000000000000000000000000000000000000000000000000000000000NON       Comm. General Land Office                               Write-in                              Pct. 401                                               01 
00090050007000000000000000000000000000000000000000000000000000000000000000000000000000000000000000000NON       Comm. General Land Office                               Write-in                              Pct. 402                                               01 
00090060001000000000000000000000000000000000000000000000000000000000000000000000000000000000000000000          Comm. General Land Office                               OVER VOTES                            Pct. 101                                               01 
00090060002000000000000000000000000000000000000000000000000000000000000000000000000000000000000000000          Comm. General Land Office                               OVER VOTES                            Pct. 201                                               01 
00090060003000000000000000000000000000000000000000000000000000000000000000000000000000000000000000000          Comm. General Land Office                               OVER VOTES                            Pct. 202                                               01 
00090060004000000000000000000000000000000000000000000000000000000000000000000000000000000000000000000          Comm. General Land Office                               OVER VOTES                            Pct. 301                                               01 
00090060005000000000000000000000000000000000000000000000000000000000000000000000000000000000000000000          Comm. General Land Office                               OVER VOTES                            Pct. 303                                               01 
00090060006000000000000000000000000000000000000000000000000000000000000000000000000000000000000000000          Comm. General Land Office                               OVER VOTES                            Pct. 401                                               01 
00090060007000000000000000000000000000000000000000000000000000000000000000000000000000000000000000000          Comm. General Land Office                               OVER VOTES                            Pct. 402                                               01 
00090070001000005000000000000000005000000000000000000000000000000000000000000000000000000000000000000          Comm. General Land Office                               UNDER VOTES                           Pct. 101                                               01 
00090070002000011000001000002000008000000000000000000000000000000000000000000000000000000000000000000          Comm. General Land Office                               UNDER VOTES                           Pct. 201                                               01 
00090070003000001000000000001000000000000000000000000000000000000000000000000000000000000000000000000          Comm. General Land Office                               UNDER VOTES                           Pct. 202                                               01 
00090070004000005000000000003000002000000000000000000000000000000000000000000000000000000000000000000          Comm. General Land Office                               UNDER VOTES                           Pct. 301                                               01 
00090070005000000000000000000000000000000000000000000000000000000000000000000000000000000000000000000          Comm. General Land Office                               UNDER VOTES                           Pct. 303                                               01 
00090070006000002000001000001000000000000000000000000000000000000000000000000000000000000000000000000          Comm. General Land Office                               UNDER VOTES                           Pct. 401                                               01 
00090070007000002000000000000000002000000000000000000000000000000000000000000000000000000000000000000          Comm. General Land Office                               UNDER VOTES                           Pct. 402                                               01 
00100010001000413000016000077000320000000000000000000000000000000000000000000000000000000000000000000REP       Commissioner of Agriculture                             REP Sid Miller                        Pct. 101                                               01 
00100010002000174000008000021000145000000000000000000000000000000000000000000000000000000000000000000REP       Commissioner of Agriculture                             REP Sid Miller                        Pct. 201                                               01 
00100010003000154000003000034000117000000000000000000000000000000000000000000000000000000000000000000REP       Commissioner of Agriculture                             REP Sid Miller                        Pct. 202                                               01 
00100010004000559000012000229000318000000000000000000000000000000000000000000000000000000000000000000REP       Commissioner of Agriculture                             REP Sid Miller                        Pct. 301                                               01 
00100010005000018000001000004000013000000000000000000000000000000000000000000000000000000000000000000REP       Commissioner of Agriculture                             REP Sid Miller                        Pct. 303                                               01 
00100010006000142000006000038000098000000000000000000000000000000000000000000000000000000000000000000REP       Commissioner of Agriculture                             REP Sid Miller                        Pct. 401                                               01 
00100010007000070000004000013000053000000000000000000000000000000000000000000000000000000000000000000REP       Commissioner of Agriculture                             REP Sid Miller                        Pct. 402                                               01 
00100020001000072000000000012000060000000000000000000000000000000000000000000000000000000000000000000DEM       Commissioner of Agriculture                             DEM Susan Hays                        Pct. 101                                               01 
00100020002000050000005000004000041000000000000000000000000000000000000000000000000000000000000000000DEM       Commissioner of Agriculture                             DEM Susan Hays                        Pct. 201                                               01 
00100020003000008000000000003000005000000000000000000000000000000000000000000000000000000000000000000DEM       Commissioner of Agriculture                             DEM Susan Hays                        Pct. 202                                               01 
00100020004000064000009000028000027000000000000000000000000000000000000000000000000000000000000000000DEM       Commissioner of Agriculture                             DEM Susan Hays                        Pct. 301                                               01 
00100020005000000000000000000000000000000000000000000000000000000000000000000000000000000000000000000DEM       Commissioner of Agriculture                             DEM Susan Hays                        Pct. 303                                               01 
00100020006000007000001000003000003000000000000000000000000000000000000000000000000000000000000000000DEM       Commissioner of Agriculture                             DEM Susan Hays                        Pct. 401                                               01 
00100020007000030000000000008000022000000000000000000000000000000000000000000000000000000000000000000DEM       Commissioner of Agriculture                             DEM Susan Hays                        Pct. 402                                               01 
00100030001000000000000000000000000000000000000000000000000000000000000000000000000000000000000000000          Commissioner of Agriculture                             OVER VOTES                            Pct. 101                                               01 
00100030002000000000000000000000000000000000000000000000000000000000000000000000000000000000000000000          Commissioner of Agriculture                             OVER VOTES                            Pct. 201                                               01 
00100030003000000000000000000000000000000000000000000000000000000000000000000000000000000000000000000          Commissioner of Agriculture                             OVER VOTES                            Pct. 202                                               01 
00100030004000000000000000000000000000000000000000000000000000000000000000000000000000000000000000000          Commissioner of Agriculture                             OVER VOTES                            Pct. 301                                               01 
00100030005000000000000000000000000000000000000000000000000000000000000000000000000000000000000000000          Commissioner of Agriculture                             OVER VOTES                            Pct. 303                                               01 
00100030006000000000000000000000000000000000000000000000000000000000000000000000000000000000000000000          Commissioner of Agriculture                             OVER VOTES                            Pct. 401                                               01 
00100030007000000000000000000000000000000000000000000000000000000000000000000000000000000000000000000          Commissioner of Agriculture                             OVER VOTES                            Pct. 402                                               01 
00100040001000003000000000000000003000000000000000000000000000000000000000000000000000000000000000000          Commissioner of Agriculture                             UNDER VOTES                           Pct. 101                                               01 
00100040002000002000000000000000002000000000000000000000000000000000000000000000000000000000000000000          Commissioner of Agriculture                             UNDER VOTES                           Pct. 201                                               01 
00100040003000000000000000000000000000000000000000000000000000000000000000000000000000000000000000000          Commissioner of Agriculture                             UNDER VOTES                           Pct. 202                                               01 
00100040004000004000000000001000003000000000000000000000000000000000000000000000000000000000000000000          Commissioner of Agriculture                             UNDER VOTES                           Pct. 301                                               01 
00100040005000000000000000000000000000000000000000000000000000000000000000000000000000000000000000000          Commissioner of Agriculture                             UNDER VOTES                           Pct. 303                                               01 
00100040006000000000000000000000000000000000000000000000000000000000000000000000000000000000000000000          Commissioner of Agriculture                             UNDER VOTES                           Pct. 401                                               01 
00100040007000003000000000000000003000000000000000000000000000000000000000000000000000000000000000000          Commissioner of Agriculture                             UNDER VOTES                           Pct. 402                                               01 
00110010001000403000016000075000312000000000000000000000000000000000000000000000000000000000000000000REP       Railroad Commissioner                                   REP Wayne Christian                   Pct. 101                                               01 
00110010002000168000008000022000138000000000000000000000000000000000000000000000000000000000000000000REP       Railroad Commissioner                                   REP Wayne Christian                   Pct. 201                                               01 
00110010003000152000003000035000114000000000000000000000000000000000000000000000000000000000000000000REP       Railroad Commissioner                                   REP Wayne Christian                   Pct. 202                                               01 
00110010004000560000012000231000317000000000000000000000000000000000000000000000000000000000000000000REP       Railroad Commissioner                                   REP Wayne Christian                   Pct. 301                                               01 
00110010005000017000001000003000013000000000000000000000000000000000000000000000000000000000000000000REP       Railroad Commissioner                                   REP Wayne Christian                   Pct. 303                                               01 
00110010006000139000006000037000096000000000000000000000000000000000000000000000000000000000000000000REP       Railroad Commissioner                                   REP Wayne Christian                   Pct. 401                                               01 
00110010007000070000004000013000053000000000000000000000000000000000000000000000000000000000000000000REP       Railroad Commissioner                                   REP Wayne Christian                   Pct. 402                                               01 
00110020001000056000000000011000045000000000000000000000000000000000000000000000000000000000000000000DEM       Railroad Commissioner                                   DEM Luke Warford                      Pct. 101                                               01 
00110020002000040000004000003000033000000000000000000000000000000000000000000000000000000000000000000DEM       Railroad Commissioner                                   DEM Luke Warford                      Pct. 201                                               01 
00110020003000007000000000002000005000000000000000000000000000000000000000000000000000000000000000000DEM       Railroad Commissioner                                   DEM Luke Warford                      Pct. 202                                               01 
00110020004000046000007000020000019000000000000000000000000000000000000000000000000000000000000000000DEM       Railroad Commissioner                                   DEM Luke Warford                      Pct. 301                                               01 
00110020005000000000000000000000000000000000000000000000000000000000000000000000000000000000000000000DEM       Railroad Commissioner                                   DEM Luke Warford                      Pct. 303                                               01 
00110020006000005000001000002000002000000000000000000000000000000000000000000000000000000000000000000DEM       Railroad Commissioner                                   DEM Luke Warford                      Pct. 401                                               01 
00110020007000028000000000008000020000000000000000000000000000000000000000000000000000000000000000000DEM       Railroad Commissioner                                   DEM Luke Warford                      Pct. 402                                               01 
00110030001000022000000000002000020000000000000000000000000000000000000000000000000000000000000000000LIB       Railroad Commissioner                                   LIB Jaime Andres Diez                 Pct. 101                                               01 
00110030002000009000000000000000009000000000000000000000000000000000000000000000000000000000000000000LIB       Railroad Commissioner                                   LIB Jaime Andres Diez                 Pct. 201                                               01 
00110030003000002000000000000000002000000000000000000000000000000000000000000000000000000000000000000LIB       Railroad Commissioner                                   LIB Jaime Andres Diez                 Pct. 202                                               01 
00110030004000014000002000004000008000000000000000000000000000000000000000000000000000000000000000000LIB       Railroad Commissioner                                   LIB Jaime Andres Diez                 Pct. 301                                               01 
00110030005000001000000000001000000000000000000000000000000000000000000000000000000000000000000000000LIB       Railroad Commissioner                                   LIB Jaime Andres Diez                 Pct. 303                                               01 
00110030006000002000000000001000001000000000000000000000000000000000000000000000000000000000000000000LIB       Railroad Commissioner                                   LIB Jaime Andres Diez                 Pct. 401                                               01 
00110030007000002000000000000000002000000000000000000000000000000000000000000000000000000000000000000LIB       Railroad Commissioner                                   LIB Jaime Andres Diez                 Pct. 402                                               01 
00110040001000002000000000001000001000000000000000000000000000000000000000000000000000000000000000000GRN       Railroad Commissioner                                   GRN Hunter Wayne Crow                 Pct. 101                                               01 
00110040002000002000000000000000002000000000000000000000000000000000000000000000000000000000000000000GRN       Railroad Commissioner                                   GRN Hunter Wayne Crow                 Pct. 201                                               01 
00110040003000000000000000000000000000000000000000000000000000000000000000000000000000000000000000000GRN       Railroad Commissioner                                   GRN Hunter Wayne Crow                 Pct. 202                                               01 
00110040004000002000000000001000001000000000000000000000000000000000000000000000000000000000000000000GRN       Railroad Commissioner                                   GRN Hunter Wayne Crow                 Pct. 301                                               01 
00110040005000000000000000000000000000000000000000000000000000000000000000000000000000000000000000000GRN       Railroad Commissioner                                   GRN Hunter Wayne Crow                 Pct. 303                                               01 
00110040006000002000000000000000002000000000000000000000000000000000000000000000000000000000000000000GRN       Railroad Commissioner                                   GRN Hunter Wayne Crow                 Pct. 401                                               01 
00110040007000000000000000000000000000000000000000000000000000000000000000000000000000000000000000000GRN       Railroad Commissioner                                   GRN Hunter Wayne Crow                 Pct. 402                                               01 
00110050001000000000000000000000000000000000000000000000000000000000000000000000000000000000000000000          Railroad Commissioner                                   OVER VOTES                            Pct. 101                                               01 
00110050002000000000000000000000000000000000000000000000000000000000000000000000000000000000000000000          Railroad Commissioner                                   OVER VOTES                            Pct. 201                                               01 
00110050003000000000000000000000000000000000000000000000000000000000000000000000000000000000000000000          Railroad Commissioner                                   OVER VOTES                            Pct. 202                                               01 
00110050004000000000000000000000000000000000000000000000000000000000000000000000000000000000000000000          Railroad Commissioner                                   OVER VOTES                            Pct. 301                                               01 
00110050005000000000000000000000000000000000000000000000000000000000000000000000000000000000000000000          Railroad Commissioner                                   OVER VOTES                            Pct. 303                                               01 
00110050006000000000000000000000000000000000000000000000000000000000000000000000000000000000000000000          Railroad Commissioner                                   OVER VOTES                            Pct. 401                                               01 
00110050007000000000000000000000000000000000000000000000000000000000000000000000000000000000000000000          Railroad Commissioner                                   OVER VOTES                            Pct. 402                                               01 
00110060001000005000000000000000005000000000000000000000000000000000000000000000000000000000000000000          Railroad Commissioner                                   UNDER VOTES                           Pct. 101                                               01 
00110060002000007000001000000000006000000000000000000000000000000000000000000000000000000000000000000          Railroad Commissioner                                   UNDER VOTES                           Pct. 201                                               01 
00110060003000001000000000000000001000000000000000000000000000000000000000000000000000000000000000000          Railroad Commissioner                                   UNDER VOTES                           Pct. 202                                               01 
00110060004000005000000000002000003000000000000000000000000000000000000000000000000000000000000000000          Railroad Commissioner                                   UNDER VOTES                           Pct. 301                                               01 
00110060005000000000000000000000000000000000000000000000000000000000000000000000000000000000000000000          Railroad Commissioner                                   UNDER VOTES                           Pct. 303                                               01 
00110060006000001000000000001000000000000000000000000000000000000000000000000000000000000000000000000          Railroad Commissioner                                   UNDER VOTES                           Pct. 401                                               01 
00110060007000003000000000000000003000000000000000000000000000000000000000000000000000000000000000000          Railroad Commissioner                                   UNDER VOTES                           Pct. 402                                               01 
00120010001000420000016000077000327000000000000000000000000000000000000000000000000000000000000000000REP       Justice, Supreme Ct. Pl. 3                              REP Debra Lehrmann                    Pct. 101                                               01 
00120010002000167000008000020000139000000000000000000000000000000000000000000000000000000000000000000REP       Justice, Supreme Ct. Pl. 3                              REP Debra Lehrmann                    Pct. 201                                               01 
00120010003000151000003000034000114000000000000000000000000000000000000000000000000000000000000000000REP       Justice, Supreme Ct. Pl. 3                              REP Debra Lehrmann                    Pct. 202                                               01 
00120010004000553000013000220000320000000000000000000000000000000000000000000000000000000000000000000REP       Justice, Supreme Ct. Pl. 3                              REP Debra Lehrmann                    Pct. 301                                               01 
00120010005000018000001000004000013000000000000000000000000000000000000000000000000000000000000000000REP       Justice, Supreme Ct. Pl. 3                              REP Debra Lehrmann                    Pct. 303                                               01 
00120010006000142000006000038000098000000000000000000000000000000000000000000000000000000000000000000REP       Justice, Supreme Ct. Pl. 3                              REP Debra Lehrmann                    Pct. 401                                               01 
00120010007000070000004000012000054000000000000000000000000000000000000000000000000000000000000000000REP       Justice, Supreme Ct. Pl. 3                              REP Debra Lehrmann                    Pct. 402                                               01 
00120020001000057000000000011000046000000000000000000000000000000000000000000000000000000000000000000DEM       Justice, Supreme Ct. Pl. 3                              DEM Erin A. Nowell                    Pct. 101                                               01 
00120020002000050000004000004000042000000000000000000000000000000000000000000000000000000000000000000DEM       Justice, Supreme Ct. Pl. 3                              DEM Erin A. Nowell                    Pct. 201                                               01 
00120020003000008000000000002000006000000000000000000000000000000000000000000000000000000000000000000DEM       Justice, Supreme Ct. Pl. 3                              DEM Erin A. Nowell                    Pct. 202                                               01 
00120020004000058000007000029000022000000000000000000000000000000000000000000000000000000000000000000DEM       Justice, Supreme Ct. Pl. 3                              DEM Erin A. Nowell                    Pct. 301                                               01 
00120020005000000000000000000000000000000000000000000000000000000000000000000000000000000000000000000DEM       Justice, Supreme Ct. Pl. 3                              DEM Erin A. Nowell                    Pct. 303                                               01 
00120020006000005000001000002000002000000000000000000000000000000000000000000000000000000000000000000DEM       Justice, Supreme Ct. Pl. 3                              DEM Erin A. Nowell                    Pct. 401                                               01 
00120020007000028000000000008000020000000000000000000000000000000000000000000000000000000000000000000DEM       Justice, Supreme Ct. Pl. 3                              DEM Erin A. Nowell                    Pct. 402                                               01 
00120030001000004000000000001000003000000000000000000000000000000000000000000000000000000000000000000LIB       Justice, Supreme Ct. Pl. 3                              LIB Thomas Edward Oxford              Pct. 101                                               01 
00120030002000002000000000001000001000000000000000000000000000000000000000000000000000000000000000000LIB       Justice, Supreme Ct. Pl. 3                              LIB Thomas Edward Oxford              Pct. 201                                               01 
00120030003000002000000000000000002000000000000000000000000000000000000000000000000000000000000000000LIB       Justice, Supreme Ct. Pl. 3                              LIB Thomas Edward Oxford              Pct. 202                                               01 
00120030004000010000001000005000004000000000000000000000000000000000000000000000000000000000000000000LIB       Justice, Supreme Ct. Pl. 3                              LIB Thomas Edward Oxford              Pct. 301                                               01 
00120030005000000000000000000000000000000000000000000000000000000000000000000000000000000000000000000LIB       Justice, Supreme Ct. Pl. 3                              LIB Thomas Edward Oxford              Pct. 303                                               01 
00120030006000001000000000000000001000000000000000000000000000000000000000000000000000000000000000000LIB       Justice, Supreme Ct. Pl. 3                              LIB Thomas Edward Oxford              Pct. 401                                               01 
00120030007000002000000000001000001000000000000000000000000000000000000000000000000000000000000000000LIB       Justice, Supreme Ct. Pl. 3                              LIB Thomas Edward Oxford              Pct. 402                                               01 
00120040001000000000000000000000000000000000000000000000000000000000000000000000000000000000000000000          Justice, Supreme Ct. Pl. 3                              OVER VOTES                            Pct. 101                                               01 
00120040002000000000000000000000000000000000000000000000000000000000000000000000000000000000000000000          Justice, Supreme Ct. Pl. 3                              OVER VOTES                            Pct. 201                                               01 
00120040003000000000000000000000000000000000000000000000000000000000000000000000000000000000000000000          Justice, Supreme Ct. Pl. 3                              OVER VOTES                            Pct. 202                                               01 
00120040004000000000000000000000000000000000000000000000000000000000000000000000000000000000000000000          Justice, Supreme Ct. Pl. 3                              OVER VOTES                            Pct. 301                                               01 
00120040005000000000000000000000000000000000000000000000000000000000000000000000000000000000000000000          Justice, Supreme Ct. Pl. 3                              OVER VOTES                            Pct. 303                                               01 
00120040006000000000000000000000000000000000000000000000000000000000000000000000000000000000000000000          Justice, Supreme Ct. Pl. 3                              OVER VOTES                            Pct. 401                                               01 
00120040007000000000000000000000000000000000000000000000000000000000000000000000000000000000000000000          Justice, Supreme Ct. Pl. 3                              OVER VOTES                            Pct. 402                                               01 
00120050001000007000000000000000007000000000000000000000000000000000000000000000000000000000000000000          Justice, Supreme Ct. Pl. 3                              UNDER VOTES                           Pct. 101                                               01 
00120050002000007000001000000000006000000000000000000000000000000000000000000000000000000000000000000          Justice, Supreme Ct. Pl. 3                              UNDER VOTES                           Pct. 201                                               01 
00120050003000001000000000001000000000000000000000000000000000000000000000000000000000000000000000000          Justice, Supreme Ct. Pl. 3                              UNDER VOTES                           Pct. 202                                               01 
00120050004000006000000000004000002000000000000000000000000000000000000000000000000000000000000000000          Justice, Supreme Ct. Pl. 3                              UNDER VOTES                           Pct. 301                                               01 
00120050005000000000000000000000000000000000000000000000000000000000000000000000000000000000000000000          Justice, Supreme Ct. Pl. 3                              UNDER VOTES                           Pct. 303                                               01 
00120050006000001000000000001000000000000000000000000000000000000000000000000000000000000000000000000          Justice, Supreme Ct. Pl. 3                              UNDER VOTES                           Pct. 401                                               01 
00120050007000003000000000000000003000000000000000000000000000000000000000000000000000000000000000000          Justice, Supreme Ct. Pl. 3                              UNDER VOTES                           Pct. 402                                               01 
00130010001000414000016000077000321000000000000000000000000000000000000000000000000000000000000000000REP       Justice, Supreme Ct. Pl. 5                              REP Rebeca Huddle                     Pct. 101                                               01 
00130010002000171000008000022000141000000000000000000000000000000000000000000000000000000000000000000REP       Justice, Supreme Ct. Pl. 5                              REP Rebeca Huddle                     Pct. 201                                               01 
00130010003000153000003000034000116000000000000000000000000000000000000000000000000000000000000000000REP       Justice, Supreme Ct. Pl. 5                              REP Rebeca Huddle                     Pct. 202                                               01 
00130010004000562000013000227000322000000000000000000000000000000000000000000000000000000000000000000REP       Justice, Supreme Ct. Pl. 5                              REP Rebeca Huddle                     Pct. 301                                               01 
00130010005000018000001000004000013000000000000000000000000000000000000000000000000000000000000000000REP       Justice, Supreme Ct. Pl. 5                              REP Rebeca Huddle                     Pct. 303                                               01 
00130010006000143000006000038000099000000000000000000000000000000000000000000000000000000000000000000REP       Justice, Supreme Ct. Pl. 5                              REP Rebeca Huddle                     Pct. 401                                               01 
00130010007000073000004000013000056000000000000000000000000000000000000000000000000000000000000000000REP       Justice, Supreme Ct. Pl. 5                              REP Rebeca Huddle                     Pct. 402                                               01 
00130020001000067000000000011000056000000000000000000000000000000000000000000000000000000000000000000DEM       Justice, Supreme Ct. Pl. 5                              DEM Amanda Reichek                    Pct. 101                                               01 
00130020002000048000004000003000041000000000000000000000000000000000000000000000000000000000000000000DEM       Justice, Supreme Ct. Pl. 5                              DEM Amanda Reichek                    Pct. 201                                               01 
00130020003000008000000000002000006000000000000000000000000000000000000000000000000000000000000000000DEM       Justice, Supreme Ct. Pl. 5                              DEM Amanda Reichek                    Pct. 202                                               01 
00130020004000059000008000027000024000000000000000000000000000000000000000000000000000000000000000000DEM       Justice, Supreme Ct. Pl. 5                              DEM Amanda Reichek                    Pct. 301                                               01 
00130020005000000000000000000000000000000000000000000000000000000000000000000000000000000000000000000DEM       Justice, Supreme Ct. Pl. 5                              DEM Amanda Reichek                    Pct. 303                                               01 
00130020006000005000001000002000002000000000000000000000000000000000000000000000000000000000000000000DEM       Justice, Supreme Ct. Pl. 5                              DEM Amanda Reichek                    Pct. 401                                               01 
00130020007000028000000000008000020000000000000000000000000000000000000000000000000000000000000000000DEM       Justice, Supreme Ct. Pl. 5                              DEM Amanda Reichek                    Pct. 402                                               01 
00130030001000000000000000000000000000000000000000000000000000000000000000000000000000000000000000000          Justice, Supreme Ct. Pl. 5                              OVER VOTES                            Pct. 101                                               01 
00130030002000000000000000000000000000000000000000000000000000000000000000000000000000000000000000000          Justice, Supreme Ct. Pl. 5                              OVER VOTES                            Pct. 201                                               01 
00130030003000000000000000000000000000000000000000000000000000000000000000000000000000000000000000000          Justice, Supreme Ct. Pl. 5                              OVER VOTES                            Pct. 202                                               01 
00130030004000000000000000000000000000000000000000000000000000000000000000000000000000000000000000000          Justice, Supreme Ct. Pl. 5                              OVER VOTES                            Pct. 301                                               01 
00130030005000000000000000000000000000000000000000000000000000000000000000000000000000000000000000000          Justice, Supreme Ct. Pl. 5                              OVER VOTES                            Pct. 303                                               01 
00130030006000000000000000000000000000000000000000000000000000000000000000000000000000000000000000000          Justice, Supreme Ct. Pl. 5                              OVER VOTES                            Pct. 401                                               01 
00130030007000000000000000000000000000000000000000000000000000000000000000000000000000000000000000000          Justice, Supreme Ct. Pl. 5                              OVER VOTES                            Pct. 402                                               01 
00130040001000007000000000001000006000000000000000000000000000000000000000000000000000000000000000000          Justice, Supreme Ct. Pl. 5                              UNDER VOTES                           Pct. 101                                               01 
00130040002000007000001000000000006000000000000000000000000000000000000000000000000000000000000000000          Justice, Supreme Ct. Pl. 5                              UNDER VOTES                           Pct. 201                                               01 
00130040003000001000000000001000000000000000000000000000000000000000000000000000000000000000000000000          Justice, Supreme Ct. Pl. 5                              UNDER VOTES                           Pct. 202                                               01 
00130040004000006000000000004000002000000000000000000000000000000000000000000000000000000000000000000          Justice, Supreme Ct. Pl. 5                              UNDER VOTES                           Pct. 301                                               01 
00130040005000000000000000000000000000000000000000000000000000000000000000000000000000000000000000000          Justice, Supreme Ct. Pl. 5                              UNDER VOTES                           Pct. 303                                               01 
00130040006000001000000000001000000000000000000000000000000000000000000000000000000000000000000000000          Justice, Supreme Ct. Pl. 5                              UNDER VOTES                           Pct. 401                                               01 
