00010010001002032000000000000000000000000000000000000000000000000000000000000000000000000000000000000          REGISTERED VOTERS - TOTAL                               REGISTERED VOTERS - TOTAL             Precinct 1                                             00 
00010010002002137000000000000000000000000000000000000000000000000000000000000000000000000000000000000          REGISTERED VOTERS - TOTAL                               REGISTERED VOTERS - TOTAL             Precinct 2                                             00 
00010010003000211000000000000000000000000000000000000000000000000000000000000000000000000000000000000          REGISTERED VOTERS - TOTAL                               REGISTERED VOTERS - TOTAL             Precinct 3                                             00 
00010010004000625000000000000000000000000000000000000000000000000000000000000000000000000000000000000          REGISTERED VOTERS - TOTAL                               REGISTERED VOTERS - TOTAL             Precinct 4                                             00 
00010010005000061000000000000000000000000000000000000000000000000000000000000000000000000000000000000          REGISTERED VOTERS - TOTAL                               REGISTERED VOTERS - TOTAL             Precinct 5                                             00 
00010010006000102000000000000000000000000000000000000000000000000000000000000000000000000000000000000          REGISTERED VOTERS - TOTAL                               REGISTERED VOTERS - TOTAL             Precinct 6                                             00 
00010010007001834000000000000000000000000000000000000000000000000000000000000000000000000000000000000          REGISTERED VOTERS - TOTAL                               REGISTERED VOTERS - TOTAL             Precinct 7                                             00 
00010010008000240000000000000000000000000000000000000000000000000000000000000000000000000000000000000          REGISTERED VOTERS - TOTAL                               REGISTERED VOTERS - TOTAL             Precinct 9                                             00 
00010010009000978000000000000000000000000000000000000000000000000000000000000000000000000000000000000          REGISTERED VOTERS - TOTAL                               REGISTERED VOTERS - TOTAL             Precinct 10                                            00 
00020010001001034000042000708000284000000000000000000000000000000000000000000000000000000000000000000          BALLOTS CAST - TOTAL                                    BALLOTS CAST - TOTAL                  Precinct 1                                             00 
00020010002000989000057000695000237000000000000000000000000000000000000000000000000000000000000000000          BALLOTS CAST - TOTAL                                    BALLOTS CAST - TOTAL                  Precinct 2                                             00 
00020010003000111000000000070000041000000000000000000000000000000000000000000000000000000000000000000          BALLOTS CAST - TOTAL                                    BALLOTS CAST - TOTAL                  Precinct 3                                             00 
00020010004000277000008000139000130000000000000000000000000000000000000000000000000000000000000000000          BALLOTS CAST - TOTAL                                    BALLOTS CAST - TOTAL                  Precinct 4                                             00 
00020010005000042000000000017000025000000000000000000000000000000000000000000000000000000000000000000          BALLOTS CAST - TOTAL                                    BALLOTS CAST - TOTAL                  Precinct 5                                             00 
00020010006000061000000000030000031000000000000000000000000000000000000000000000000000000000000000000          BALLOTS CAST - TOTAL                                    BALLOTS CAST - TOTAL                  Precinct 6                                             00 
00020010007000766000035000485000246000000000000000000000000000000000000000000000000000000000000000000          BALLOTS CAST - TOTAL                                    BALLOTS CAST - TOTAL                  Precinct 7                                             00 
00020010008000126000001000055000070000000000000000000000000000000000000000000000000000000000000000000          BALLOTS CAST - TOTAL                                    BALLOTS CAST - TOTAL                  Precinct 9                                             00 
00020010009000372000020000230000122000000000000000000000000000000000000000000000000000000000000000000          BALLOTS CAST - TOTAL                                    BALLOTS CAST - TOTAL                  Precinct 10                                            00 
00030010001000000000000000000000000000000000000000000000000000000000000000000000000000000000000000000          BALLOTS CAST - BLANK                                    BALLOTS CAST - BLANK                  Precinct 1                                             00 
00030010002000000000000000000000000000000000000000000000000000000000000000000000000000000000000000000          BALLOTS CAST - BLANK                                    BALLOTS CAST - BLANK                  Precinct 2                                             00 
00030010003000000000000000000000000000000000000000000000000000000000000000000000000000000000000000000          BALLOTS CAST - BLANK                                    BALLOTS CAST - BLANK                  Precinct 3                                             00 
00030010004000000000000000000000000000000000000000000000000000000000000000000000000000000000000000000          BALLOTS CAST - BLANK                                    BALLOTS CAST - BLANK                  Precinct 4                                             00 
00030010005000000000000000000000000000000000000000000000000000000000000000000000000000000000000000000          BALLOTS CAST - BLANK                                    BALLOTS CAST - BLANK                  Precinct 5                                             00 
00030010006000000000000000000000000000000000000000000000000000000000000000000000000000000000000000000          BALLOTS CAST - BLANK                                    BALLOTS CAST - BLANK                  Precinct 6                                             00 
00030010007000000000000000000000000000000000000000000000000000000000000000000000000000000000000000000          BALLOTS CAST - BLANK                                    BALLOTS CAST - BLANK                  Precinct 7                                             00 
00030010008000000000000000000000000000000000000000000000000000000000000000000000000000000000000000000          BALLOTS CAST - BLANK                                    BALLOTS CAST - BLANK                  Precinct 9                                             00 
00030010009000000000000000000000000000000000000000000000000000000000000000000000000000000000000000000          BALLOTS CAST - BLANK                                    BALLOTS CAST - BLANK                  Precinct 10                                            00 
00040010001000722000021000498000203000000000000000000000000000000000000000000000000000000000000000000REP       US Representative, Dist 23                              REP Tony Gonzales                     Precinct 1                                             01 
00040010002000615000019000456000140000000000000000000000000000000000000000000000000000000000000000000REP       US Representative, Dist 23                              REP Tony Gonzales                     Precinct 2                                             01 
00040010003000087000000000055000032000000000000000000000000000000000000000000000000000000000000000000REP       US Representative, Dist 23                              REP Tony Gonzales                     Precinct 3                                             01 
00040010004000229000004000112000113000000000000000000000000000000000000000000000000000000000000000000REP       US Representative, Dist 23                              REP Tony Gonzales                     Precinct 4                                             01 
00040010005000041000000000017000024000000000000000000000000000000000000000000000000000000000000000000REP       US Representative, Dist 23                              REP Tony Gonzales                     Precinct 5                                             01 
00040010006000043000000000025000018000000000000000000000000000000000000000000000000000000000000000000REP       US Representative, Dist 23                              REP Tony Gonzales                     Precinct 6                                             01 
00040010007000499000011000318000170000000000000000000000000000000000000000000000000000000000000000000REP       US Representative, Dist 23                              REP Tony Gonzales                     Precinct 7                                             01 
00040010008000098000000000044000054000000000000000000000000000000000000000000000000000000000000000000REP       US Representative, Dist 23                              REP Tony Gonzales                     Precinct 9                                             01 
00040010009000240000008000155000077000000000000000000000000000000000000000000000000000000000000000000REP       US Representative, Dist 23                              REP Tony Gonzales                     Precinct 10                                            01 
00040020001000210000017000145000048000000000000000000000000000000000000000000000000000000000000000000DEM       US Representative, Dist 23                              DEM John Lira                         Precinct 1                                             01 
00040020002000259000031000169000059000000000000000000000000000000000000000000000000000000000000000000DEM       US Representative, Dist 23                              DEM John Lira                         Precinct 2                                             01 
00040020003000007000000000005000002000000000000000000000000000000000000000000000000000000000000000000DEM       US Representative, Dist 23                              DEM John Lira                         Precinct 3                                             01 
00040020004000032000003000020000009000000000000000000000000000000000000000000000000000000000000000000DEM       US Representative, Dist 23                              DEM John Lira                         Precinct 4                                             01 
00040020005000000000000000000000000000000000000000000000000000000000000000000000000000000000000000000DEM       US Representative, Dist 23                              DEM John Lira                         Precinct 5                                             01 
00040020006000013000000000004000009000000000000000000000000000000000000000000000000000000000000000000DEM       US Representative, Dist 23                              DEM John Lira                         Precinct 6                                             01 
00040020007000204000024000121000059000000000000000000000000000000000000000000000000000000000000000000DEM       US Representative, Dist 23                              DEM John Lira                         Precinct 7                                             01 
00040020008000010000001000006000003000000000000000000000000000000000000000000000000000000000000000000DEM       US Representative, Dist 23                              DEM John Lira                         Precinct 9                                             01 
00040020009000089000007000054000028000000000000000000000000000000000000000000000000000000000000000000DEM       US Representative, Dist 23                              DEM John Lira                         Precinct 10                                            01 
00040030001000061000003000037000021000000000000000000000000000000000000000000000000000000000000000000IND       US Representative, Dist 23                              IND Frank Lopez Jr                    Precinct 1                                             01 
00040030002000050000003000028000019000000000000000000000000000000000000000000000000000000000000000000IND       US Representative, Dist 23                              IND Frank Lopez Jr                    Precinct 2                                             01 
00040030003000015000000000008000007000000000000000000000000000000000000000000000000000000000000000000IND       US Representative, Dist 23                              IND Frank Lopez Jr                    Precinct 3                                             01 
00040030004000013000000000005000008000000000000000000000000000000000000000000000000000000000000000000IND       US Representative, Dist 23                              IND Frank Lopez Jr                    Precinct 4                                             01 
00040030005000001000000000000000001000000000000000000000000000000000000000000000000000000000000000000IND       US Representative, Dist 23                              IND Frank Lopez Jr                    Precinct 5                                             01 
00040030006000003000000000001000002000000000000000000000000000000000000000000000000000000000000000000IND       US Representative, Dist 23                              IND Frank Lopez Jr                    Precinct 6                                             01 
00040030007000024000000000017000007000000000000000000000000000000000000000000000000000000000000000000IND       US Representative, Dist 23                              IND Frank Lopez Jr                    Precinct 7                                             01 
00040030008000013000000000003000010000000000000000000000000000000000000000000000000000000000000000000IND       US Representative, Dist 23                              IND Frank Lopez Jr                    Precinct 9                                             01 
00040030009000022000001000012000009000000000000000000000000000000000000000000000000000000000000000000IND       US Representative, Dist 23                              IND Frank Lopez Jr                    Precinct 10                                            01 
00050010001000694000022000475000197000000000000000000000000000000000000000000000000000000000000000000REP       Governor                                                REP Greg Abbott                       Precinct 1                                             01 
00050010002000605000019000435000151000000000000000000000000000000000000000000000000000000000000000000REP       Governor                                                REP Greg Abbott                       Precinct 2                                             01 
00050010003000101000000000062000039000000000000000000000000000000000000000000000000000000000000000000REP       Governor                                                REP Greg Abbott                       Precinct 3                                             01 
00050010004000246000004000122000120000000000000000000000000000000000000000000000000000000000000000000REP       Governor                                                REP Greg Abbott                       Precinct 4                                             01 
00050010005000042000000000017000025000000000000000000000000000000000000000000000000000000000000000000REP       Governor                                                REP Greg Abbott                       Precinct 5                                             01 
00050010006000045000000000028000017000000000000000000000000000000000000000000000000000000000000000000REP       Governor                                                REP Greg Abbott                       Precinct 6                                             01 
00050010007000488000015000307000166000000000000000000000000000000000000000000000000000000000000000000REP       Governor                                                REP Greg Abbott                       Precinct 7                                             01 
00050010008000103000000000046000057000000000000000000000000000000000000000000000000000000000000000000REP       Governor                                                REP Greg Abbott                       Precinct 9                                             01 
00050010009000224000009000139000076000000000000000000000000000000000000000000000000000000000000000000REP       Governor                                                REP Greg Abbott                       Precinct 10                                            01 
00050020001000289000019000200000070000000000000000000000000000000000000000000000000000000000000000000DEM       Governor                                                DEM Beto O'Rourke                     Precinct 1                                             01 
00050020002000327000033000227000067000000000000000000000000000000000000000000000000000000000000000000DEM       Governor                                                DEM Beto O'Rourke                     Precinct 2                                             01 
00050020003000006000000000006000000000000000000000000000000000000000000000000000000000000000000000000DEM       Governor                                                DEM Beto O'Rourke                     Precinct 3                                             01 
00050020004000026000003000016000007000000000000000000000000000000000000000000000000000000000000000000DEM       Governor                                                DEM Beto O'Rourke                     Precinct 4                                             01 
00050020005000000000000000000000000000000000000000000000000000000000000000000000000000000000000000000DEM       Governor                                                DEM Beto O'Rourke                     Precinct 5                                             01 
00050020006000015000000000002000013000000000000000000000000000000000000000000000000000000000000000000DEM       Governor                                                DEM Beto O'Rourke                     Precinct 6                                             01 
00050020007000243000020000156000067000000000000000000000000000000000000000000000000000000000000000000DEM       Governor                                                DEM Beto O'Rourke                     Precinct 7                                             01 
00050020008000016000001000009000006000000000000000000000000000000000000000000000000000000000000000000DEM       Governor                                                DEM Beto O'Rourke                     Precinct 9                                             01 
00050020009000121000008000077000036000000000000000000000000000000000000000000000000000000000000000000DEM       Governor                                                DEM Beto O'Rourke                     Precinct 10                                            01 
00050030001000020000000000012000008000000000000000000000000000000000000000000000000000000000000000000LIB       Governor                                                LIB Mark Tippetts                     Precinct 1                                             01 
00050030002000012000001000007000004000000000000000000000000000000000000000000000000000000000000000000LIB       Governor                                                LIB Mark Tippetts                     Precinct 2                                             01 
00050030003000000000000000000000000000000000000000000000000000000000000000000000000000000000000000000LIB       Governor                                                LIB Mark Tippetts                     Precinct 3                                             01 
00050030004000003000000000000000003000000000000000000000000000000000000000000000000000000000000000000LIB       Governor                                                LIB Mark Tippetts                     Precinct 4                                             01 
00050030005000000000000000000000000000000000000000000000000000000000000000000000000000000000000000000LIB       Governor                                                LIB Mark Tippetts                     Precinct 5                                             01 
00050030006000000000000000000000000000000000000000000000000000000000000000000000000000000000000000000LIB       Governor                                                LIB Mark Tippetts                     Precinct 6                                             01 
00050030007000007000000000003000004000000000000000000000000000000000000000000000000000000000000000000LIB       Governor                                                LIB Mark Tippetts                     Precinct 7                                             01 
00050030008000005000000000000000005000000000000000000000000000000000000000000000000000000000000000000LIB       Governor                                                LIB Mark Tippetts                     Precinct 9                                             01 
00050030009000004000000000003000001000000000000000000000000000000000000000000000000000000000000000000LIB       Governor                                                LIB Mark Tippetts                     Precinct 10                                            01 
00050040001000009000000000006000003000000000000000000000000000000000000000000000000000000000000000000GRN       Governor                                                GRN Delilah Barrios                   Precinct 1                                             01 
00050040002000014000002000008000004000000000000000000000000000000000000000000000000000000000000000000GRN       Governor                                                GRN Delilah Barrios                   Precinct 2                                             01 
00050040003000003000000000001000002000000000000000000000000000000000000000000000000000000000000000000GRN       Governor                                                GRN Delilah Barrios                   Precinct 3                                             01 
00050040004000000000000000000000000000000000000000000000000000000000000000000000000000000000000000000GRN       Governor                                                GRN Delilah Barrios                   Precinct 4                                             01 
00050040005000000000000000000000000000000000000000000000000000000000000000000000000000000000000000000GRN       Governor                                                GRN Delilah Barrios                   Precinct 5                                             01 
00050040006000001000000000000000001000000000000000000000000000000000000000000000000000000000000000000GRN       Governor                                                GRN Delilah Barrios                   Precinct 6                                             01 
00050040007000006000000000005000001000000000000000000000000000000000000000000000000000000000000000000GRN       Governor                                                GRN Delilah Barrios                   Precinct 7                                             01 
00050040008000001000000000000000001000000000000000000000000000000000000000000000000000000000000000000GRN       Governor                                                GRN Delilah Barrios                   Precinct 9                                             01 
00050040009000006000000000004000002000000000000000000000000000000000000000000000000000000000000000000GRN       Governor                                                GRN Delilah Barrios                   Precinct 10                                            01 
00050060001000000000000000000000000000000000000000000000000000000000000000000000000000000000000000000NON       Governor                                                Write-in                              Precinct 1                                             01 
00050060002000000000000000000000000000000000000000000000000000000000000000000000000000000000000000000NON       Governor                                                Write-in                              Precinct 2                                             01 
00050060003000000000000000000000000000000000000000000000000000000000000000000000000000000000000000000NON       Governor                                                Write-in                              Precinct 3                                             01 
00050060004000001000000000001000000000000000000000000000000000000000000000000000000000000000000000000NON       Governor                                                Write-in                              Precinct 4                                             01 
00050060005000000000000000000000000000000000000000000000000000000000000000000000000000000000000000000NON       Governor                                                Write-in                              Precinct 5                                             01 
00050060006000000000000000000000000000000000000000000000000000000000000000000000000000000000000000000NON       Governor                                                Write-in                              Precinct 6                                             01 
00050060007000001000000000001000000000000000000000000000000000000000000000000000000000000000000000000NON       Governor                                                Write-in                              Precinct 7                                             01 
00050060008000000000000000000000000000000000000000000000000000000000000000000000000000000000000000000NON       Governor                                                Write-in                              Precinct 9                                             01 
00050060009000001000000000000000001000000000000000000000000000000000000000000000000000000000000000000NON       Governor                                                Write-in                              Precinct 10                                            01 
00060010001000660000019000453000188000000000000000000000000000000000000000000000000000000000000000000REP       Lieutenant Governor                                     REP Dan Patrick                       Precinct 1                                             01 
00060010002000560000013000406000141000000000000000000000000000000000000000000000000000000000000000000REP       Lieutenant Governor                                     REP Dan Patrick                       Precinct 2                                             01 
00060010003000100000000000061000039000000000000000000000000000000000000000000000000000000000000000000REP       Lieutenant Governor                                     REP Dan Patrick                       Precinct 3                                             01 
00060010004000232000004000113000115000000000000000000000000000000000000000000000000000000000000000000REP       Lieutenant Governor                                     REP Dan Patrick                       Precinct 4                                             01 
00060010005000041000000000017000024000000000000000000000000000000000000000000000000000000000000000000REP       Lieutenant Governor                                     REP Dan Patrick                       Precinct 5                                             01 
00060010006000044000000000028000016000000000000000000000000000000000000000000000000000000000000000000REP       Lieutenant Governor                                     REP Dan Patrick                       Precinct 6                                             01 
00060010007000448000010000285000153000000000000000000000000000000000000000000000000000000000000000000REP       Lieutenant Governor                                     REP Dan Patrick                       Precinct 7                                             01 
00060010008000100000000000046000054000000000000000000000000000000000000000000000000000000000000000000REP       Lieutenant Governor                                     REP Dan Patrick                       Precinct 9                                             01 
00060010009000195000007000122000066000000000000000000000000000000000000000000000000000000000000000000REP       Lieutenant Governor                                     REP Dan Patrick                       Precinct 10                                            01 
00060020001000267000021000185000061000000000000000000000000000000000000000000000000000000000000000000DEM       Lieutenant Governor                                     DEM Mike Collier                      Precinct 1                                             01 
00060020002000307000037000203000067000000000000000000000000000000000000000000000000000000000000000000DEM       Lieutenant Governor                                     DEM Mike Collier                      Precinct 2                                             01 
00060020003000005000000000005000000000000000000000000000000000000000000000000000000000000000000000000DEM       Lieutenant Governor                                     DEM Mike Collier                      Precinct 3                                             01 
00060020004000037000004000023000010000000000000000000000000000000000000000000000000000000000000000000DEM       Lieutenant Governor                                     DEM Mike Collier                      Precinct 4                                             01 
00060020005000001000000000000000001000000000000000000000000000000000000000000000000000000000000000000DEM       Lieutenant Governor                                     DEM Mike Collier                      Precinct 5                                             01 
00060020006000015000000000002000013000000000000000000000000000000000000000000000000000000000000000000DEM       Lieutenant Governor                                     DEM Mike Collier                      Precinct 6                                             01 
00060020007000244000023000158000063000000000000000000000000000000000000000000000000000000000000000000DEM       Lieutenant Governor                                     DEM Mike Collier                      Precinct 7                                             01 
00060020008000015000001000007000007000000000000000000000000000000000000000000000000000000000000000000DEM       Lieutenant Governor                                     DEM Mike Collier                      Precinct 9                                             01 
00060020009000118000008000076000034000000000000000000000000000000000000000000000000000000000000000000DEM       Lieutenant Governor                                     DEM Mike Collier                      Precinct 10                                            01 
00060030001000043000000000028000015000000000000000000000000000000000000000000000000000000000000000000LIB       Lieutenant Governor                                     LIB Shanna Steele                     Precinct 1                                             01 
00060030002000037000002000030000005000000000000000000000000000000000000000000000000000000000000000000LIB       Lieutenant Governor                                     LIB Shanna Steele                     Precinct 2                                             01 
00060030003000003000000000002000001000000000000000000000000000000000000000000000000000000000000000000LIB       Lieutenant Governor                                     LIB Shanna Steele                     Precinct 3                                             01 
00060030004000003000000000000000003000000000000000000000000000000000000000000000000000000000000000000LIB       Lieutenant Governor                                     LIB Shanna Steele                     Precinct 4                                             01 
00060030005000000000000000000000000000000000000000000000000000000000000000000000000000000000000000000LIB       Lieutenant Governor                                     LIB Shanna Steele                     Precinct 5                                             01 
00060030006000000000000000000000000000000000000000000000000000000000000000000000000000000000000000000LIB       Lieutenant Governor                                     LIB Shanna Steele                     Precinct 6                                             01 
00060030007000019000000000009000010000000000000000000000000000000000000000000000000000000000000000000LIB       Lieutenant Governor                                     LIB Shanna Steele                     Precinct 7                                             01 
00060030008000007000000000001000006000000000000000000000000000000000000000000000000000000000000000000LIB       Lieutenant Governor                                     LIB Shanna Steele                     Precinct 9                                             01 
00060030009000023000000000016000007000000000000000000000000000000000000000000000000000000000000000000LIB       Lieutenant Governor                                     LIB Shanna Steele                     Precinct 10                                            01 
00070010001000634000016000438000180000000000000000000000000000000000000000000000000000000000000000000REP       Attorney General                                        REP Ken Paxton                        Precinct 1                                             01 
00070010002000539000014000388000137000000000000000000000000000000000000000000000000000000000000000000REP       Attorney General                                        REP Ken Paxton                        Precinct 2                                             01 
00070010003000100000000000060000040000000000000000000000000000000000000000000000000000000000000000000REP       Attorney General                                        REP Ken Paxton                        Precinct 3                                             01 
00070010004000237000004000118000115000000000000000000000000000000000000000000000000000000000000000000REP       Attorney General                                        REP Ken Paxton                        Precinct 4                                             01 
00070010005000041000000000017000024000000000000000000000000000000000000000000000000000000000000000000REP       Attorney General                                        REP Ken Paxton                        Precinct 5                                             01 
00070010006000045000000000027000018000000000000000000000000000000000000000000000000000000000000000000REP       Attorney General                                        REP Ken Paxton                        Precinct 6                                             01 
00070010007000443000010000280000153000000000000000000000000000000000000000000000000000000000000000000REP       Attorney General                                        REP Ken Paxton                        Precinct 7                                             01 
00070010008000100000000000046000054000000000000000000000000000000000000000000000000000000000000000000REP       Attorney General                                        REP Ken Paxton                        Precinct 9                                             01 
00070010009000196000006000121000069000000000000000000000000000000000000000000000000000000000000000000REP       Attorney General                                        REP Ken Paxton                        Precinct 10                                            01 
00070020001000317000022000216000079000000000000000000000000000000000000000000000000000000000000000000DEM       Attorney General                                        DEM Rochelle Mercedes Garza           Precinct 1                                             01 
00070020002000346000040000236000070000000000000000000000000000000000000000000000000000000000000000000DEM       Attorney General                                        DEM Rochelle Mercedes Garza           Precinct 2                                             01 
00070020003000006000000000006000000000000000000000000000000000000000000000000000000000000000000000000DEM       Attorney General                                        DEM Rochelle Mercedes Garza           Precinct 3                                             01 
00070020004000034000004000019000011000000000000000000000000000000000000000000000000000000000000000000DEM       Attorney General                                        DEM Rochelle Mercedes Garza           Precinct 4                                             01 
00070020005000001000000000000000001000000000000000000000000000000000000000000000000000000000000000000DEM       Attorney General                                        DEM Rochelle Mercedes Garza           Precinct 5                                             01 
00070020006000013000000000003000010000000000000000000000000000000000000000000000000000000000000000000DEM       Attorney General                                        DEM Rochelle Mercedes Garza           Precinct 6                                             01 
00070020007000258000024000167000067000000000000000000000000000000000000000000000000000000000000000000DEM       Attorney General                                        DEM Rochelle Mercedes Garza           Precinct 7                                             01 
00070020008000015000001000007000007000000000000000000000000000000000000000000000000000000000000000000DEM       Attorney General                                        DEM Rochelle Mercedes Garza           Precinct 9                                             01 
00070020009000135000010000090000035000000000000000000000000000000000000000000000000000000000000000000DEM       Attorney General                                        DEM Rochelle Mercedes Garza           Precinct 10                                            01 
00070030001000028000000000018000010000000000000000000000000000000000000000000000000000000000000000000LIB       Attorney General                                        LIB Mark Ash                          Precinct 1                                             01 
00070030002000019000000000013000006000000000000000000000000000000000000000000000000000000000000000000LIB       Attorney General                                        LIB Mark Ash                          Precinct 2                                             01 
00070030003000003000000000002000001000000000000000000000000000000000000000000000000000000000000000000LIB       Attorney General                                        LIB Mark Ash                          Precinct 3                                             01 
00070030004000002000000000000000002000000000000000000000000000000000000000000000000000000000000000000LIB       Attorney General                                        LIB Mark Ash                          Precinct 4                                             01 
00070030005000000000000000000000000000000000000000000000000000000000000000000000000000000000000000000LIB       Attorney General                                        LIB Mark Ash                          Precinct 5                                             01 
00070030006000000000000000000000000000000000000000000000000000000000000000000000000000000000000000000LIB       Attorney General                                        LIB Mark Ash                          Precinct 6                                             01 
00070030007000014000000000007000007000000000000000000000000000000000000000000000000000000000000000000LIB       Attorney General                                        LIB Mark Ash                          Precinct 7                                             01 
00070030008000007000000000001000006000000000000000000000000000000000000000000000000000000000000000000LIB       Attorney General                                        LIB Mark Ash                          Precinct 9                                             01 
00070030009000010000000000005000005000000000000000000000000000000000000000000000000000000000000000000LIB       Attorney General                                        LIB Mark Ash                          Precinct 10                                            01 
00080010001000631000016000434000181000000000000000000000000000000000000000000000000000000000000000000REP       Comptroller of Public Accounts                          REP Glenn Hegar                       Precinct 1                                             01 
00080010002000522000014000374000134000000000000000000000000000000000000000000000000000000000000000000REP       Comptroller of Public Accounts                          REP Glenn Hegar                       Precinct 2                                             01 
00080010003000100000000000062000038000000000000000000000000000000000000000000000000000000000000000000REP       Comptroller of Public Accounts                          REP Glenn Hegar                       Precinct 3                                             01 
00080010004000234000004000116000114000000000000000000000000000000000000000000000000000000000000000000REP       Comptroller of Public Accounts                          REP Glenn Hegar                       Precinct 4                                             01 
00080010005000040000000000017000023000000000000000000000000000000000000000000000000000000000000000000REP       Comptroller of Public Accounts                          REP Glenn Hegar                       Precinct 5                                             01 
00080010006000041000000000026000015000000000000000000000000000000000000000000000000000000000000000000REP       Comptroller of Public Accounts                          REP Glenn Hegar                       Precinct 6                                             01 
00080010007000425000010000274000141000000000000000000000000000000000000000000000000000000000000000000REP       Comptroller of Public Accounts                          REP Glenn Hegar                       Precinct 7                                             01 
00080010008000098000000000045000053000000000000000000000000000000000000000000000000000000000000000000REP       Comptroller of Public Accounts                          REP Glenn Hegar                       Precinct 9                                             01 
00080010009000191000007000119000065000000000000000000000000000000000000000000000000000000000000000000REP       Comptroller of Public Accounts                          REP Glenn Hegar                       Precinct 10                                            01 
00080020001000265000017000186000062000000000000000000000000000000000000000000000000000000000000000000DEM       Comptroller of Public Accounts                          DEM Janet T. Dudding                  Precinct 1                                             01 
00080020002000302000031000209000062000000000000000000000000000000000000000000000000000000000000000000DEM       Comptroller of Public Accounts                          DEM Janet T. Dudding                  Precinct 2                                             01 
00080020003000006000000000006000000000000000000000000000000000000000000000000000000000000000000000000DEM       Comptroller of Public Accounts                          DEM Janet T. Dudding                  Precinct 3                                             01 
00080020004000031000003000019000009000000000000000000000000000000000000000000000000000000000000000000DEM       Comptroller of Public Accounts                          DEM Janet T. Dudding                  Precinct 4                                             01 
00080020005000001000000000000000001000000000000000000000000000000000000000000000000000000000000000000DEM       Comptroller of Public Accounts                          DEM Janet T. Dudding                  Precinct 5                                             01 
00080020006000016000000000003000013000000000000000000000000000000000000000000000000000000000000000000DEM       Comptroller of Public Accounts                          DEM Janet T. Dudding                  Precinct 6                                             01 
00080020007000239000021000150000068000000000000000000000000000000000000000000000000000000000000000000DEM       Comptroller of Public Accounts                          DEM Janet T. Dudding                  Precinct 7                                             01 
00080020008000013000001000007000005000000000000000000000000000000000000000000000000000000000000000000DEM       Comptroller of Public Accounts                          DEM Janet T. Dudding                  Precinct 9                                             01 
00080020009000105000007000068000030000000000000000000000000000000000000000000000000000000000000000000DEM       Comptroller of Public Accounts                          DEM Janet T. Dudding                  Precinct 10                                            01 
00080030001000066000003000044000019000000000000000000000000000000000000000000000000000000000000000000LIB       Comptroller of Public Accounts                          LIB V. Alonzo Echevarria-Garza        Precinct 1                                             01 
00080030002000056000004000037000015000000000000000000000000000000000000000000000000000000000000000000LIB       Comptroller of Public Accounts                          LIB V. Alonzo Echevarria-Garza        Precinct 2                                             01 
00080030003000001000000000000000001000000000000000000000000000000000000000000000000000000000000000000LIB       Comptroller of Public Accounts                          LIB V. Alonzo Echevarria-Garza        Precinct 3                                             01 
00080030004000003000000000000000003000000000000000000000000000000000000000000000000000000000000000000LIB       Comptroller of Public Accounts                          LIB V. Alonzo Echevarria-Garza        Precinct 4                                             01 
00080030005000000000000000000000000000000000000000000000000000000000000000000000000000000000000000000LIB       Comptroller of Public Accounts                          LIB V. Alonzo Echevarria-Garza        Precinct 5                                             01 
00080030006000002000000000001000001000000000000000000000000000000000000000000000000000000000000000000LIB       Comptroller of Public Accounts                          LIB V. Alonzo Echevarria-Garza        Precinct 6                                             01 
00080030007000039000000000023000016000000000000000000000000000000000000000000000000000000000000000000LIB       Comptroller of Public Accounts                          LIB V. Alonzo Echevarria-Garza        Precinct 7                                             01 
00080030008000008000000000000000008000000000000000000000000000000000000000000000000000000000000000000LIB       Comptroller of Public Accounts                          LIB V. Alonzo Echevarria-Garza        Precinct 9                                             01 
00080030009000031000001000020000010000000000000000000000000000000000000000000000000000000000000000000LIB       Comptroller of Public Accounts                          LIB V. Alonzo Echevarria-Garza        Precinct 10                                            01 
00090010001000631000018000431000182000000000000000000000000000000000000000000000000000000000000000000REP       Comm. General Land Office                               REP Dawn Buckingham                   Precinct 1                                             01 
00090010002000529000014000381000134000000000000000000000000000000000000000000000000000000000000000000REP       Comm. General Land Office                               REP Dawn Buckingham                   Precinct 2                                             01 
00090010003000094000000000057000037000000000000000000000000000000000000000000000000000000000000000000REP       Comm. General Land Office                               REP Dawn Buckingham                   Precinct 3                                             01 
00090010004000235000004000114000117000000000000000000000000000000000000000000000000000000000000000000REP       Comm. General Land Office                               REP Dawn Buckingham                   Precinct 4                                             01 
00090010005000040000000000017000023000000000000000000000000000000000000000000000000000000000000000000REP       Comm. General Land Office                               REP Dawn Buckingham                   Precinct 5                                             01 
00090010006000041000000000026000015000000000000000000000000000000000000000000000000000000000000000000REP       Comm. General Land Office                               REP Dawn Buckingham                   Precinct 6                                             01 
00090010007000434000009000272000153000000000000000000000000000000000000000000000000000000000000000000REP       Comm. General Land Office                               REP Dawn Buckingham                   Precinct 7                                             01 
00090010008000102000000000046000056000000000000000000000000000000000000000000000000000000000000000000REP       Comm. General Land Office                               REP Dawn Buckingham                   Precinct 9                                             01 
00090010009000199000007000125000067000000000000000000000000000000000000000000000000000000000000000000REP       Comm. General Land Office                               REP Dawn Buckingham                   Precinct 10                                            01 
00090020001000291000017000207000067000000000000000000000000000000000000000000000000000000000000000000DEM       Comm. General Land Office                               DEM Jay Kleberg                       Precinct 1                                             01 
00090020002000311000034000208000069000000000000000000000000000000000000000000000000000000000000000000DEM       Comm. General Land Office                               DEM Jay Kleberg                       Precinct 2                                             01 
00090020003000009000000000008000001000000000000000000000000000000000000000000000000000000000000000000DEM       Comm. General Land Office                               DEM Jay Kleberg                       Precinct 3                                             01 
00090020004000032000003000021000008000000000000000000000000000000000000000000000000000000000000000000DEM       Comm. General Land Office                               DEM Jay Kleberg                       Precinct 4                                             01 
00090020005000001000000000000000001000000000000000000000000000000000000000000000000000000000000000000DEM       Comm. General Land Office                               DEM Jay Kleberg                       Precinct 5                                             01 
00090020006000018000000000004000014000000000000000000000000000000000000000000000000000000000000000000DEM       Comm. General Land Office                               DEM Jay Kleberg                       Precinct 6                                             01 
00090020007000247000022000158000067000000000000000000000000000000000000000000000000000000000000000000DEM       Comm. General Land Office                               DEM Jay Kleberg                       Precinct 7                                             01 
00090020008000014000001000007000006000000000000000000000000000000000000000000000000000000000000000000DEM       Comm. General Land Office                               DEM Jay Kleberg                       Precinct 9                                             01 
00090020009000111000008000077000026000000000000000000000000000000000000000000000000000000000000000000DEM       Comm. General Land Office                               DEM Jay Kleberg                       Precinct 10                                            01 
00090030001000025000000000015000010000000000000000000000000000000000000000000000000000000000000000000GRN       Comm. General Land Office                               GRN Alfred Molison, Jr.               Precinct 1                                             01 
00090030002000033000000000027000006000000000000000000000000000000000000000000000000000000000000000000GRN       Comm. General Land Office                               GRN Alfred Molison, Jr.               Precinct 2                                             01 
00090030003000001000000000000000001000000000000000000000000000000000000000000000000000000000000000000GRN       Comm. General Land Office                               GRN Alfred Molison, Jr.               Precinct 3                                             01 
00090030004000002000000000000000002000000000000000000000000000000000000000000000000000000000000000000GRN       Comm. General Land Office                               GRN Alfred Molison, Jr.               Precinct 4                                             01 
00090030005000000000000000000000000000000000000000000000000000000000000000000000000000000000000000000GRN       Comm. General Land Office                               GRN Alfred Molison, Jr.               Precinct 5                                             01 
00090030006000000000000000000000000000000000000000000000000000000000000000000000000000000000000000000GRN       Comm. General Land Office                               GRN Alfred Molison, Jr.               Precinct 6                                             01 
00090030007000017000000000013000004000000000000000000000000000000000000000000000000000000000000000000GRN       Comm. General Land Office                               GRN Alfred Molison, Jr.               Precinct 7                                             01 
00090030008000001000000000000000001000000000000000000000000000000000000000000000000000000000000000000GRN       Comm. General Land Office                               GRN Alfred Molison, Jr.               Precinct 9                                             01 
00090030009000017000000000007000010000000000000000000000000000000000000000000000000000000000000000000GRN       Comm. General Land Office                               GRN Alfred Molison, Jr.               Precinct 10                                            01 
00090050001000000000000000000000000000000000000000000000000000000000000000000000000000000000000000000NON       Comm. General Land Office                               Write-in                              Precinct 1                                             01 
00090050002000002000000000000000002000000000000000000000000000000000000000000000000000000000000000000NON       Comm. General Land Office                               Write-in                              Precinct 2                                             01 
00090050003000000000000000000000000000000000000000000000000000000000000000000000000000000000000000000NON       Comm. General Land Office                               Write-in                              Precinct 3                                             01 
00090050004000000000000000000000000000000000000000000000000000000000000000000000000000000000000000000NON       Comm. General Land Office                               Write-in                              Precinct 4                                             01 
00090050005000000000000000000000000000000000000000000000000000000000000000000000000000000000000000000NON       Comm. General Land Office                               Write-in                              Precinct 5                                             01 
00090050006000000000000000000000000000000000000000000000000000000000000000000000000000000000000000000NON       Comm. General Land Office                               Write-in                              Precinct 6                                             01 
00090050007000000000000000000000000000000000000000000000000000000000000000000000000000000000000000000NON       Comm. General Land Office                               Write-in                              Precinct 7                                             01 
00090050008000000000000000000000000000000000000000000000000000000000000000000000000000000000000000000NON       Comm. General Land Office                               Write-in                              Precinct 9                                             01 
00090050009000000000000000000000000000000000000000000000000000000000000000000000000000000000000000000NON       Comm. General Land Office                               Write-in                              Precinct 10                                            01 
00100010001000633000014000431000188000000000000000000000000000000000000000000000000000000000000000000REP       Commissioner of Agriculture                             REP Sid Miller                        Precinct 1                                             01 
00100010002000523000012000379000132000000000000000000000000000000000000000000000000000000000000000000REP       Commissioner of Agriculture                             REP Sid Miller                        Precinct 2                                             01 
00100010003000095000000000059000036000000000000000000000000000000000000000000000000000000000000000000REP       Commissioner of Agriculture                             REP Sid Miller                        Precinct 3                                             01 
00100010004000234000004000115000115000000000000000000000000000000000000000000000000000000000000000000REP       Commissioner of Agriculture                             REP Sid Miller                        Precinct 4                                             01 
00100010005000040000000000016000024000000000000000000000000000000000000000000000000000000000000000000REP       Commissioner of Agriculture                             REP Sid Miller                        Precinct 5                                             01 
00100010006000042000000000026000016000000000000000000000000000000000000000000000000000000000000000000REP       Commissioner of Agriculture                             REP Sid Miller                        Precinct 6                                             01 
00100010007000429000009000271000149000000000000000000000000000000000000000000000000000000000000000000REP       Commissioner of Agriculture                             REP Sid Miller                        Precinct 7                                             01 
00100010008000103000000000046000057000000000000000000000000000000000000000000000000000000000000000000REP       Commissioner of Agriculture                             REP Sid Miller                        Precinct 9                                             01 
00100010009000201000006000128000067000000000000000000000000000000000000000000000000000000000000000000REP       Commissioner of Agriculture                             REP Sid Miller                        Precinct 10                                            01 
00100020001000316000022000220000074000000000000000000000000000000000000000000000000000000000000000000DEM       Commissioner of Agriculture                             DEM Susan Hays                        Precinct 1                                             01 
00100020002000348000035000235000078000000000000000000000000000000000000000000000000000000000000000000DEM       Commissioner of Agriculture                             DEM Susan Hays                        Precinct 2                                             01 
00100020003000008000000000007000001000000000000000000000000000000000000000000000000000000000000000000DEM       Commissioner of Agriculture                             DEM Susan Hays                        Precinct 3                                             01 
00100020004000036000003000020000013000000000000000000000000000000000000000000000000000000000000000000DEM       Commissioner of Agriculture                             DEM Susan Hays                        Precinct 4                                             01 
00100020005000002000000000001000001000000000000000000000000000000000000000000000000000000000000000000DEM       Commissioner of Agriculture                             DEM Susan Hays                        Precinct 5                                             01 
00100020006000016000000000004000012000000000000000000000000000000000000000000000000000000000000000000DEM       Commissioner of Agriculture                             DEM Susan Hays                        Precinct 6                                             01 
00100020007000266000023000168000075000000000000000000000000000000000000000000000000000000000000000000DEM       Commissioner of Agriculture                             DEM Susan Hays                        Precinct 7                                             01 
00100020008000017000001000007000009000000000000000000000000000000000000000000000000000000000000000000DEM       Commissioner of Agriculture                             DEM Susan Hays                        Precinct 9                                             01 
00100020009000125000008000080000037000000000000000000000000000000000000000000000000000000000000000000DEM       Commissioner of Agriculture                             DEM Susan Hays                        Precinct 10                                            01 
00110010001000600000014000417000169000000000000000000000000000000000000000000000000000000000000000000REP       Railroad Commissioner                                   REP Wayne Christian                   Precinct 1                                             01 
00110010002000502000013000361000128000000000000000000000000000000000000000000000000000000000000000000REP       Railroad Commissioner                                   REP Wayne Christian                   Precinct 2                                             01 
00110010003000093000000000057000036000000000000000000000000000000000000000000000000000000000000000000REP       Railroad Commissioner                                   REP Wayne Christian                   Precinct 3                                             01 
00110010004000228000004000110000114000000000000000000000000000000000000000000000000000000000000000000REP       Railroad Commissioner                                   REP Wayne Christian                   Precinct 4                                             01 
00110010005000040000000000017000023000000000000000000000000000000000000000000000000000000000000000000REP       Railroad Commissioner                                   REP Wayne Christian                   Precinct 5                                             01 
00110010006000041000000000026000015000000000000000000000000000000000000000000000000000000000000000000REP       Railroad Commissioner                                   REP Wayne Christian                   Precinct 6                                             01 
00110010007000414000009000261000144000000000000000000000000000000000000000000000000000000000000000000REP       Railroad Commissioner                                   REP Wayne Christian                   Precinct 7                                             01 
00110010008000096000000000045000051000000000000000000000000000000000000000000000000000000000000000000REP       Railroad Commissioner                                   REP Wayne Christian                   Precinct 9                                             01 
00110010009000186000007000114000065000000000000000000000000000000000000000000000000000000000000000000REP       Railroad Commissioner                                   REP Wayne Christian                   Precinct 10                                            01 
00110020001000273000019000190000064000000000000000000000000000000000000000000000000000000000000000000DEM       Railroad Commissioner                                   DEM Luke Warford                      Precinct 1                                             01 
00110020002000304000033000206000065000000000000000000000000000000000000000000000000000000000000000000DEM       Railroad Commissioner                                   DEM Luke Warford                      Precinct 2                                             01 
00110020003000006000000000006000000000000000000000000000000000000000000000000000000000000000000000000DEM       Railroad Commissioner                                   DEM Luke Warford                      Precinct 3                                             01 
00110020004000031000003000020000008000000000000000000000000000000000000000000000000000000000000000000DEM       Railroad Commissioner                                   DEM Luke Warford                      Precinct 4                                             01 
00110020005000001000000000000000001000000000000000000000000000000000000000000000000000000000000000000DEM       Railroad Commissioner                                   DEM Luke Warford                      Precinct 5                                             01 
00110020006000015000000000003000012000000000000000000000000000000000000000000000000000000000000000000DEM       Railroad Commissioner                                   DEM Luke Warford                      Precinct 6                                             01 
00110020007000247000022000156000069000000000000000000000000000000000000000000000000000000000000000000DEM       Railroad Commissioner                                   DEM Luke Warford                      Precinct 7                                             01 
00110020008000018000001000008000009000000000000000000000000000000000000000000000000000000000000000000DEM       Railroad Commissioner                                   DEM Luke Warford                      Precinct 9                                             01 
00110020009000108000007000069000032000000000000000000000000000000000000000000000000000000000000000000DEM       Railroad Commissioner                                   DEM Luke Warford                      Precinct 10                                            01 
00110030001000069000003000036000030000000000000000000000000000000000000000000000000000000000000000000LIB       Railroad Commissioner                                   LIB Jaime Andres Diez                 Precinct 1                                             01 
00110030002000062000004000042000016000000000000000000000000000000000000000000000000000000000000000000LIB       Railroad Commissioner                                   LIB Jaime Andres Diez                 Precinct 2                                             01 
00110030003000002000000000001000001000000000000000000000000000000000000000000000000000000000000000000LIB       Railroad Commissioner                                   LIB Jaime Andres Diez                 Precinct 3                                             01 
00110030004000007000000000003000004000000000000000000000000000000000000000000000000000000000000000000LIB       Railroad Commissioner                                   LIB Jaime Andres Diez                 Precinct 4                                             01 
00110030005000000000000000000000000000000000000000000000000000000000000000000000000000000000000000000LIB       Railroad Commissioner                                   LIB Jaime Andres Diez                 Precinct 5                                             01 
00110030006000003000000000001000002000000000000000000000000000000000000000000000000000000000000000000LIB       Railroad Commissioner                                   LIB Jaime Andres Diez                 Precinct 6                                             01 
00110030007000033000000000023000010000000000000000000000000000000000000000000000000000000000000000000LIB       Railroad Commissioner                                   LIB Jaime Andres Diez                 Precinct 7                                             01 
00110030008000006000000000000000006000000000000000000000000000000000000000000000000000000000000000000LIB       Railroad Commissioner                                   LIB Jaime Andres Diez                 Precinct 9                                             01 
00110030009000027000001000019000007000000000000000000000000000000000000000000000000000000000000000000LIB       Railroad Commissioner                                   LIB Jaime Andres Diez                 Precinct 10                                            01 
00110040001000012000000000008000004000000000000000000000000000000000000000000000000000000000000000000GRN       Railroad Commissioner                                   GRN Hunter Wayne Crow                 Precinct 1                                             01 
00110040002000009000000000008000001000000000000000000000000000000000000000000000000000000000000000000GRN       Railroad Commissioner                                   GRN Hunter Wayne Crow                 Precinct 2                                             01 
00110040003000001000000000001000000000000000000000000000000000000000000000000000000000000000000000000GRN       Railroad Commissioner                                   GRN Hunter Wayne Crow                 Precinct 3                                             01 
00110040004000002000000000000000002000000000000000000000000000000000000000000000000000000000000000000GRN       Railroad Commissioner                                   GRN Hunter Wayne Crow                 Precinct 4                                             01 
00110040005000000000000000000000000000000000000000000000000000000000000000000000000000000000000000000GRN       Railroad Commissioner                                   GRN Hunter Wayne Crow                 Precinct 5                                             01 
00110040006000000000000000000000000000000000000000000000000000000000000000000000000000000000000000000GRN       Railroad Commissioner                                   GRN Hunter Wayne Crow                 Precinct 6                                             01 
00110040007000006000000000005000001000000000000000000000000000000000000000000000000000000000000000000GRN       Railroad Commissioner                                   GRN Hunter Wayne Crow                 Precinct 7                                             01 
00110040008000001000000000000000001000000000000000000000000000000000000000000000000000000000000000000GRN       Railroad Commissioner                                   GRN Hunter Wayne Crow                 Precinct 9                                             01 
00110040009000006000000000004000002000000000000000000000000000000000000000000000000000000000000000000GRN       Railroad Commissioner                                   GRN Hunter Wayne Crow                 Precinct 10                                            01 
00120010001000625000014000432000179000000000000000000000000000000000000000000000000000000000000000000REP       Justice, Supreme Ct. Pl. 3                              REP Debra Lehrmann                    Precinct 1                                             01 
00120010002000535000016000385000134000000000000000000000000000000000000000000000000000000000000000000REP       Justice, Supreme Ct. Pl. 3                              REP Debra Lehrmann                    Precinct 2                                             01 
00120010003000096000000000058000038000000000000000000000000000000000000000000000000000000000000000000REP       Justice, Supreme Ct. Pl. 3                              REP Debra Lehrmann                    Precinct 3                                             01 
00120010004000233000004000112000117000000000000000000000000000000000000000000000000000000000000000000REP       Justice, Supreme Ct. Pl. 3                              REP Debra Lehrmann                    Precinct 4                                             01 
00120010005000039000000000017000022000000000000000000000000000000000000000000000000000000000000000000REP       Justice, Supreme Ct. Pl. 3                              REP Debra Lehrmann                    Precinct 5                                             01 
00120010006000039000000000022000017000000000000000000000000000000000000000000000000000000000000000000REP       Justice, Supreme Ct. Pl. 3                              REP Debra Lehrmann                    Precinct 6                                             01 
00120010007000437000010000280000147000000000000000000000000000000000000000000000000000000000000000000REP       Justice, Supreme Ct. Pl. 3                              REP Debra Lehrmann                    Precinct 7                                             01 
00120010008000099000000000044000055000000000000000000000000000000000000000000000000000000000000000000REP       Justice, Supreme Ct. Pl. 3                              REP Debra Lehrmann                    Precinct 9                                             01 
00120010009000193000008000122000063000000000000000000000000000000000000000000000000000000000000000000REP       Justice, Supreme Ct. Pl. 3                              REP Debra Lehrmann                    Precinct 10                                            01 
00120020001000290000021000200000069000000000000000000000000000000000000000000000000000000000000000000DEM       Justice, Supreme Ct. Pl. 3                              DEM Erin A. Nowell                    Precinct 1                                             01 
00120020002000311000034000208000069000000000000000000000000000000000000000000000000000000000000000000DEM       Justice, Supreme Ct. Pl. 3                              DEM Erin A. Nowell                    Precinct 2                                             01 
00120020003000006000000000006000000000000000000000000000000000000000000000000000000000000000000000000DEM       Justice, Supreme Ct. Pl. 3                              DEM Erin A. Nowell                    Precinct 3                                             01 
00120020004000032000003000019000010000000000000000000000000000000000000000000000000000000000000000000DEM       Justice, Supreme Ct. Pl. 3                              DEM Erin A. Nowell                    Precinct 4                                             01 
00120020005000001000000000000000001000000000000000000000000000000000000000000000000000000000000000000DEM       Justice, Supreme Ct. Pl. 3                              DEM Erin A. Nowell                    Precinct 5                                             01 
00120020006000017000000000004000013000000000000000000000000000000000000000000000000000000000000000000DEM       Justice, Supreme Ct. Pl. 3                              DEM Erin A. Nowell                    Precinct 6                                             01 
00120020007000239000021000153000065000000000000000000000000000000000000000000000000000000000000000000DEM       Justice, Supreme Ct. Pl. 3                              DEM Erin A. Nowell                    Precinct 7                                             01 
00120020008000014000001000008000005000000000000000000000000000000000000000000000000000000000000000000DEM       Justice, Supreme Ct. Pl. 3                              DEM Erin A. Nowell                    Precinct 9                                             01 
00120020009000122000008000078000036000000000000000000000000000000000000000000000000000000000000000000DEM       Justice, Supreme Ct. Pl. 3                              DEM Erin A. Nowell                    Precinct 10                                            01 
00120030001000034000000000019000015000000000000000000000000000000000000000000000000000000000000000000LIB       Justice, Supreme Ct. Pl. 3                              LIB Thomas Edward Oxford              Precinct 1                                             01 
00120030002000022000000000016000006000000000000000000000000000000000000000000000000000000000000000000LIB       Justice, Supreme Ct. Pl. 3                              LIB Thomas Edward Oxford              Precinct 2                                             01 
00120030003000003000000000001000002000000000000000000000000000000000000000000000000000000000000000000LIB       Justice, Supreme Ct. Pl. 3                              LIB Thomas Edward Oxford              Precinct 3                                             01 
00120030004000002000000000001000001000000000000000000000000000000000000000000000000000000000000000000LIB       Justice, Supreme Ct. Pl. 3                              LIB Thomas Edward Oxford              Precinct 4                                             01 
00120030005000001000000000000000001000000000000000000000000000000000000000000000000000000000000000000LIB       Justice, Supreme Ct. Pl. 3                              LIB Thomas Edward Oxford              Precinct 5                                             01 
00120030006000000000000000000000000000000000000000000000000000000000000000000000000000000000000000000LIB       Justice, Supreme Ct. Pl. 3                              LIB Thomas Edward Oxford              Precinct 6                                             01 
00120030007000021000000000010000011000000000000000000000000000000000000000000000000000000000000000000LIB       Justice, Supreme Ct. Pl. 3                              LIB Thomas Edward Oxford              Precinct 7                                             01 
00120030008000006000000000000000006000000000000000000000000000000000000000000000000000000000000000000LIB       Justice, Supreme Ct. Pl. 3                              LIB Thomas Edward Oxford              Precinct 9                                             01 
00120030009000013000000000007000006000000000000000000000000000000000000000000000000000000000000000000LIB       Justice, Supreme Ct. Pl. 3                              LIB Thomas Edward Oxford              Precinct 10                                            01 
00130010001000640000015000438000187000000000000000000000000000000000000000000000000000000000000000000REP       Justice, Supreme Ct. Pl. 5                              REP Rebeca Huddle                     Precinct 1                                             01 
00130010002000536000014000384000138000000000000000000000000000000000000000000000000000000000000000000REP       Justice, Supreme Ct. Pl. 5                              REP Rebeca Huddle                     Precinct 2                                             01 
00130010003000096000000000058000038000000000000000000000000000000000000000000000000000000000000000000REP       Justice, Supreme Ct. Pl. 5                              REP Rebeca Huddle                     Precinct 3                                             01 
00130010004000233000004000115000114000000000000000000000000000000000000000000000000000000000000000000REP       Justice, Supreme Ct. Pl. 5                              REP Rebeca Huddle                     Precinct 4                                             01 
00130010005000040000000000017000023000000000000000000000000000000000000000000000000000000000000000000REP       Justice, Supreme Ct. Pl. 5                              REP Rebeca Huddle                     Precinct 5                                             01 
00130010006000037000000000022000015000000000000000000000000000000000000000000000000000000000000000000REP       Justice, Supreme Ct. Pl. 5                              REP Rebeca Huddle                     Precinct 6                                             01 
00130010007000441000009000280000152000000000000000000000000000000000000000000000000000000000000000000REP       Justice, Supreme Ct. Pl. 5                              REP Rebeca Huddle                     Precinct 7                                             01 
00130010008000102000000000044000058000000000000000000000000000000000000000000000000000000000000000000REP       Justice, Supreme Ct. Pl. 5                              REP Rebeca Huddle                     Precinct 9                                             01 
00130010009000205000009000129000067000000000000000000000000000000000000000000000000000000000000000000REP       Justice, Supreme Ct. Pl. 5                              REP Rebeca Huddle                     Precinct 10                                            01 
00130020001000308000021000210000077000000000000000000000000000000000000000000000000000000000000000000DEM       Justice, Supreme Ct. Pl. 5                              DEM Amanda Reichek                    Precinct 1                                             01 
00130020002000330000037000224000069000000000000000000000000000000000000000000000000000000000000000000DEM       Justice, Supreme Ct. Pl. 5                              DEM Amanda Reichek                    Precinct 2                                             01 
00130020003000008000000000007000001000000000000000000000000000000000000000000000000000000000000000000DEM       Justice, Supreme Ct. Pl. 5                              DEM Amanda Reichek                    Precinct 3                                             01 
00130020004000035000003000019000013000000000000000000000000000000000000000000000000000000000000000000DEM       Justice, Supreme Ct. Pl. 5                              DEM Amanda Reichek                    Precinct 4                                             01 
00130020005000001000000000000000001000000000000000000000000000000000000000000000000000000000000000000DEM       Justice, Supreme Ct. Pl. 5                              DEM Amanda Reichek                    Precinct 5                                             01 
00130020006000017000000000004000013000000000000000000000000000000000000000000000000000000000000000000DEM       Justice, Supreme Ct. Pl. 5                              DEM Amanda Reichek                    Precinct 6                                             01 
00130020007000252000022000161000069000000000000000000000000000000000000000000000000000000000000000000DEM       Justice, Supreme Ct. Pl. 5                              DEM Amanda Reichek                    Precinct 7                                             01 
00130020008000016000001000008000007000000000000000000000000000000000000000000000000000000000000000000DEM       Justice, Supreme Ct. Pl. 5                              DEM Amanda Reichek                    Precinct 9                                             01 
00130020009000120000007000076000037000000000000000000000000000000000000000000000000000000000000000000DEM       Justice, Supreme Ct. Pl. 5                              DEM Amanda Reichek                    Precinct 10                                            01 
00140010001000610000017000415000178000000000000000000000000000000000000000000000000000000000000000000REP       Justice, Supreme Ct. Pl. 9                              REP Evan Young                        Precinct 1                                             01 
00140010002000500000013000360000127000000000000000000000000000000000000000000000000000000000000000000REP       Justice, Supreme Ct. Pl. 9                              REP Evan Young                        Precinct 2                                             01 
00140010003000096000000000059000037000000000000000000000000000000000000000000000000000000000000000000REP       Justice, Supreme Ct. Pl. 9                              REP Evan Young                        Precinct 3                                             01 
00140010004000233000004000116000113000000000000000000000000000000000000000000000000000000000000000000REP       Justice, Supreme Ct. Pl. 9                              REP Evan Young                        Precinct 4                                             01 
00140010005000040000000000017000023000000000000000000000000000000000000000000000000000000000000000000REP       Justice, Supreme Ct. Pl. 9                              REP Evan Young                        Precinct 5                                             01 
00140010006000038000000000023000015000000000000000000000000000000000000000000000000000000000000000000REP       Justice, Supreme Ct. Pl. 9                              REP Evan Young                        Precinct 6                                             01 
00140010007000416000009000262000145000000000000000000000000000000000000000000000000000000000000000000REP       Justice, Supreme Ct. Pl. 9                              REP Evan Young                        Precinct 7                                             01 
00140010008000097000000000044000053000000000000000000000000000000000000000000000000000000000000000000REP       Justice, Supreme Ct. Pl. 9                              REP Evan Young                        Precinct 9                                             01 
00140010009000187000007000115000065000000000000000000000000000000000000000000000000000000000000000000REP       Justice, Supreme Ct. Pl. 9                              REP Evan Young                        Precinct 10                                            01 
00140020001000343000020000237000086000000000000000000000000000000000000000000000000000000000000000000DEM       Justice, Supreme Ct. Pl. 9                              DEM Julia Maldonado                   Precinct 1                                             01 
00140020002000373000040000252000081000000000000000000000000000000000000000000000000000000000000000000DEM       Justice, Supreme Ct. Pl. 9                              DEM Julia Maldonado                   Precinct 2                                             01 
00140020003000006000000000006000000000000000000000000000000000000000000000000000000000000000000000000DEM       Justice, Supreme Ct. Pl. 9                              DEM Julia Maldonado                   Precinct 3                                             01 
00140020004000035000003000018000014000000000000000000000000000000000000000000000000000000000000000000DEM       Justice, Supreme Ct. Pl. 9                              DEM Julia Maldonado                   Precinct 4                                             01 
00140020005000001000000000000000001000000000000000000000000000000000000000000000000000000000000000000DEM       Justice, Supreme Ct. Pl. 9                              DEM Julia Maldonado                   Precinct 5                                             01 
00140020006000018000000000003000015000000000000000000000000000000000000000000000000000000000000000000DEM       Justice, Supreme Ct. Pl. 9                              DEM Julia Maldonado                   Precinct 6                                             01 
00140020007000278000023000180000075000000000000000000000000000000000000000000000000000000000000000000DEM       Justice, Supreme Ct. Pl. 9                              DEM Julia Maldonado                   Precinct 7                                             01 
00140020008000020000001000008000011000000000000000000000000000000000000000000000000000000000000000000DEM       Justice, Supreme Ct. Pl. 9                              DEM Julia Maldonado                   Precinct 9                                             01 
00140020009000140000009000092000039000000000000000000000000000000000000000000000000000000000000000000DEM       Justice, Supreme Ct. Pl. 9                              DEM Julia Maldonado                   Precinct 10                                            01 
00150010001000633000019000425000189000000000000000000000000000000000000000000000000000000000000000000REP       Judge, Ct of Crim. Appeals, Pl 5                        REP Scott Walker                      Precinct 1                                             01 
00150010002000520000013000376000131000000000000000000000000000000000000000000000000000000000000000000REP       Judge, Ct of Crim. Appeals, Pl 5                        REP Scott Walker                      Precinct 2                                             01 
00150010003000097000000000058000039000000000000000000000000000000000000000000000000000000000000000000REP       Judge, Ct of Crim. Appeals, Pl 5                        REP Scott Walker                      Precinct 3                                             01 
00150010004000232000004000114000114000000000000000000000000000000000000000000000000000000000000000000REP       Judge, Ct of Crim. Appeals, Pl 5                        REP Scott Walker                      Precinct 4                                             01 
00150010005000040000000000017000023000000000000000000000000000000000000000000000000000000000000000000REP       Judge, Ct of Crim. Appeals, Pl 5                        REP Scott Walker                      Precinct 5                                             01 
00150010006000040000000000022000018000000000000000000000000000000000000000000000000000000000000000000REP       Judge, Ct of Crim. Appeals, Pl 5                        REP Scott Walker                      Precinct 6                                             01 
00150010007000430000009000272000149000000000000000000000000000000000000000000000000000000000000000000REP       Judge, Ct of Crim. Appeals, Pl 5                        REP Scott Walker                      Precinct 7                                             01 
00150010008000101000000000044000057000000000000000000000000000000000000000000000000000000000000000000REP       Judge, Ct of Crim. Appeals, Pl 5                        REP Scott Walker                      Precinct 9                                             01 
00150010009000198000008000127000063000000000000000000000000000000000000000000000000000000000000000000REP       Judge, Ct of Crim. Appeals, Pl 5                        REP Scott Walker                      Precinct 10                                            01 
00150020001000314000018000225000071000000000000000000000000000000000000000000000000000000000000000000DEM       Judge, Ct of Crim. Appeals, Pl 5                        DEM Dana Huffman                      Precinct 1                                             01 
00150020002000340000034000233000073000000000000000000000000000000000000000000000000000000000000000000DEM       Judge, Ct of Crim. Appeals, Pl 5                        DEM Dana Huffman                      Precinct 2                                             01 
00150020003000007000000000007000000000000000000000000000000000000000000000000000000000000000000000000DEM       Judge, Ct of Crim. Appeals, Pl 5                        DEM Dana Huffman                      Precinct 3                                             01 
00150020004000033000003000019000011000000000000000000000000000000000000000000000000000000000000000000DEM       Judge, Ct of Crim. Appeals, Pl 5                        DEM Dana Huffman                      Precinct 4                                             01 
00150020005000001000000000000000001000000000000000000000000000000000000000000000000000000000000000000DEM       Judge, Ct of Crim. Appeals, Pl 5                        DEM Dana Huffman                      Precinct 5                                             01 
00150020006000015000000000004000011000000000000000000000000000000000000000000000000000000000000000000DEM       Judge, Ct of Crim. Appeals, Pl 5                        DEM Dana Huffman                      Precinct 6                                             01 
00150020007000262000022000170000070000000000000000000000000000000000000000000000000000000000000000000DEM       Judge, Ct of Crim. Appeals, Pl 5                        DEM Dana Huffman                      Precinct 7                                             01 
00150020008000015000001000008000006000000000000000000000000000000000000000000000000000000000000000000DEM       Judge, Ct of Crim. Appeals, Pl 5                        DEM Dana Huffman                      Precinct 9                                             01 
00150020009000128000008000079000041000000000000000000000000000000000000000000000000000000000000000000DEM       Judge, Ct of Crim. Appeals, Pl 5                        DEM Dana Huffman                      Precinct 10                                            01 
00160010001000631000014000435000182000000000000000000000000000000000000000000000000000000000000000000REP       Judge, Ct of Crim. Appeals, Pl 6                        REP Jesse F. McClure, III             Precinct 1                                             01 
00160010002000529000015000381000133000000000000000000000000000000000000000000000000000000000000000000REP       Judge, Ct of Crim. Appeals, Pl 6                        REP Jesse F. McClure, III             Precinct 2                                             01 
00160010003000101000000000061000040000000000000000000000000000000000000000000000000000000000000000000REP       Judge, Ct of Crim. Appeals, Pl 6                        REP Jesse F. McClure, III             Precinct 3                                             01 
00160010004000234000004000115000115000000000000000000000000000000000000000000000000000000000000000000REP       Judge, Ct of Crim. Appeals, Pl 6                        REP Jesse F. McClure, III             Precinct 4                                             01 
00160010005000040000000000017000023000000000000000000000000000000000000000000000000000000000000000000REP       Judge, Ct of Crim. Appeals, Pl 6                        REP Jesse F. McClure, III             Precinct 5                                             01 
00160010006000038000000000023000015000000000000000000000000000000000000000000000000000000000000000000REP       Judge, Ct of Crim. Appeals, Pl 6                        REP Jesse F. McClure, III             Precinct 6                                             01 
00160010007000429000009000274000146000000000000000000000000000000000000000000000000000000000000000000REP       Judge, Ct of Crim. Appeals, Pl 6                        REP Jesse F. McClure, III             Precinct 7                                             01 
00160010008000098000000000044000054000000000000000000000000000000000000000000000000000000000000000000REP       Judge, Ct of Crim. Appeals, Pl 6                        REP Jesse F. McClure, III             Precinct 9                                             01 
00160010009000196000008000119000069000000000000000000000000000000000000000000000000000000000000000000REP       Judge, Ct of Crim. Appeals, Pl 6                        REP Jesse F. McClure, III             Precinct 10                                            01 
00160020001000326000023000219000084000000000000000000000000000000000000000000000000000000000000000000DEM       Judge, Ct of Crim. Appeals, Pl 6                        DEM Robert Johnson                    Precinct 1                                             01 
00160020002000335000034000227000074000000000000000000000000000000000000000000000000000000000000000000DEM       Judge, Ct of Crim. Appeals, Pl 6                        DEM Robert Johnson                    Precinct 2                                             01 
00160020003000007000000000007000000000000000000000000000000000000000000000000000000000000000000000000DEM       Judge, Ct of Crim. Appeals, Pl 6                        DEM Robert Johnson                    Precinct 3                                             01 
00160020004000031000003000019000009000000000000000000000000000000000000000000000000000000000000000000DEM       Judge, Ct of Crim. Appeals, Pl 6                        DEM Robert Johnson                    Precinct 4                                             01 
00160020005000001000000000000000001000000000000000000000000000000000000000000000000000000000000000000DEM       Judge, Ct of Crim. Appeals, Pl 6                        DEM Robert Johnson                    Precinct 5                                             01 
00160020006000018000000000004000014000000000000000000000000000000000000000000000000000000000000000000DEM       Judge, Ct of Crim. Appeals, Pl 6                        DEM Robert Johnson                    Precinct 6                                             01 
00160020007000261000022000163000076000000000000000000000000000000000000000000000000000000000000000000DEM       Judge, Ct of Crim. Appeals, Pl 6                        DEM Robert Johnson                    Precinct 7                                             01 
00160020008000019000001000008000010000000000000000000000000000000000000000000000000000000000000000000DEM       Judge, Ct of Crim. Appeals, Pl 6                        DEM Robert Johnson                    Precinct 9                                             01 
00160020009000131000007000088000036000000000000000000000000000000000000000000000000000000000000000000DEM       Judge, Ct of Crim. Appeals, Pl 6                        DEM Robert Johnson                    Precinct 10                                            01 
00170010001000602000015000419000168000000000000000000000000000000000000000000000000000000000000000000REP       Member, State BoE, District 1                           REP Michael "Travis" Stevens          Precinct 1                                             01 
00170010002000479000013000348000118000000000000000000000000000000000000000000000000000000000000000000REP       Member, State BoE, District 1                           REP Michael "Travis" Stevens          Precinct 2                                             01 
00170010003000098000000000060000038000000000000000000000000000000000000000000000000000000000000000000REP       Member, State BoE, District 1                           REP Michael "Travis" Stevens          Precinct 3                                             01 
00170010004000229000004000115000110000000000000000000000000000000000000000000000000000000000000000000REP       Member, State BoE, District 1                           REP Michael "Travis" Stevens          Precinct 4                                             01 
00170010005000040000000000017000023000000000000000000000000000000000000000000000000000000000000000000REP       Member, State BoE, District 1                           REP Michael "Travis" Stevens          Precinct 5                                             01 
00170010006000035000000000025000010000000000000000000000000000000000000000000000000000000000000000000REP       Member, State BoE, District 1                           REP Michael "Travis" Stevens          Precinct 6                                             01 
00170010007000407000009000257000141000000000000000000000000000000000000000000000000000000000000000000REP       Member, State BoE, District 1                           REP Michael "Travis" Stevens          Precinct 7                                             01 
00170010008000095000000000043000052000000000000000000000000000000000000000000000000000000000000000000REP       Member, State BoE, District 1                           REP Michael "Travis" Stevens          Precinct 9                                             01 
