00010010001001306000000000000000000000000000000000000000000000000000000000000000000000000000000000000          REGISTERED VOTERS - TOTAL                               REGISTERED VOTERS - TOTAL             Calvert 1                                              00 
00010010002001347000000000000000000000000000000000000000000000000000000000000000000000000000000000000          REGISTERED VOTERS - TOTAL                               REGISTERED VOTERS - TOTAL             Hearne 2                                               00 
00010010003000613000000000000000000000000000000000000000000000000000000000000000000000000000000000000          REGISTERED VOTERS - TOTAL                               REGISTERED VOTERS - TOTAL             Wheelock 3                                             00 
00010010004000723000000000000000000000000000000000000000000000000000000000000000000000000000000000000          REGISTERED VOTERS - TOTAL                               REGISTERED VOTERS - TOTAL             Bald Prairie 4                                         00 
00010010005001508000000000000000000000000000000000000000000000000000000000000000000000000000000000000          REGISTERED VOTERS - TOTAL                               REGISTERED VOTERS - TOTAL             Bremond 5                                              00 
00010010006001615000000000000000000000000000000000000000000000000000000000000000000000000000000000000          REGISTERED VOTERS - TOTAL                               REGISTERED VOTERS - TOTAL             Franklin 6                                             00 
00010010007000253000000000000000000000000000000000000000000000000000000000000000000000000000000000000          REGISTERED VOTERS - TOTAL                               REGISTERED VOTERS - TOTAL             Seale 8                                                00 
00010010008001267000000000000000000000000000000000000000000000000000000000000000000000000000000000000          REGISTERED VOTERS - TOTAL                               REGISTERED VOTERS - TOTAL             Benchley 11                                            00 
00010010009000239000000000000000000000000000000000000000000000000000000000000000000000000000000000000          REGISTERED VOTERS - TOTAL                               REGISTERED VOTERS - TOTAL             Elliott 13                                             00 
00010010010000279000000000000000000000000000000000000000000000000000000000000000000000000000000000000          REGISTERED VOTERS - TOTAL                               REGISTERED VOTERS - TOTAL             Easterly 16                                            00 
00010010011000621000000000000000000000000000000000000000000000000000000000000000000000000000000000000          REGISTERED VOTERS - TOTAL                               REGISTERED VOTERS - TOTAL             New Baden 19                                           00 
00010010012001489000000000000000000000000000000000000000000000000000000000000000000000000000000000000          REGISTERED VOTERS - TOTAL                               REGISTERED VOTERS - TOTAL             Teal Center 22                                         00 
00010010013000756000000000000000000000000000000000000000000000000000000000000000000000000000000000000          REGISTERED VOTERS - TOTAL                               REGISTERED VOTERS - TOTAL             Christian Faith 23                                     00 
00020010001000623000018000368000236000001000000000000000000000000000000000000000000000000000000000000          BALLOTS CAST - TOTAL                                    BALLOTS CAST - TOTAL                  Calvert 1                                              00 
00020010002000635000027000388000220000000000000000000000000000000000000000000000000000000000000000000          BALLOTS CAST - TOTAL                                    BALLOTS CAST - TOTAL                  Hearne 2                                               00 
00020010003000401000006000178000217000000000000000000000000000000000000000000000000000000000000000000          BALLOTS CAST - TOTAL                                    BALLOTS CAST - TOTAL                  Wheelock 3                                             00 
00020010004000438000008000310000120000000000000000000000000000000000000000000000000000000000000000000          BALLOTS CAST - TOTAL                                    BALLOTS CAST - TOTAL                  Bald Prairie 4                                         00 
00020010005000799000022000443000334000000000000000000000000000000000000000000000000000000000000000000          BALLOTS CAST - TOTAL                                    BALLOTS CAST - TOTAL                  Bremond 5                                              00 
00020010006000852000019000534000295000004000000000000000000000000000000000000000000000000000000000000          BALLOTS CAST - TOTAL                                    BALLOTS CAST - TOTAL                  Franklin 6                                             00 
00020010007000191000005000053000132000001000000000000000000000000000000000000000000000000000000000000          BALLOTS CAST - TOTAL                                    BALLOTS CAST - TOTAL                  Seale 8                                                00 
00020010008000676000033000310000333000000000000000000000000000000000000000000000000000000000000000000          BALLOTS CAST - TOTAL                                    BALLOTS CAST - TOTAL                  Benchley 11                                            00 
00020010009000162000002000125000035000000000000000000000000000000000000000000000000000000000000000000          BALLOTS CAST - TOTAL                                    BALLOTS CAST - TOTAL                  Elliott 13                                             00 
00020010010000148000002000075000071000000000000000000000000000000000000000000000000000000000000000000          BALLOTS CAST - TOTAL                                    BALLOTS CAST - TOTAL                  Easterly 16                                            00 
00020010011000391000019000258000113000001000000000000000000000000000000000000000000000000000000000000          BALLOTS CAST - TOTAL                                    BALLOTS CAST - TOTAL                  New Baden 19                                           00 
00020010012000466000036000206000221000003000000000000000000000000000000000000000000000000000000000000          BALLOTS CAST - TOTAL                                    BALLOTS CAST - TOTAL                  Teal Center 22                                         00 
00020010013000255000014000133000108000000000000000000000000000000000000000000000000000000000000000000          BALLOTS CAST - TOTAL                                    BALLOTS CAST - TOTAL                  Christian Faith 23                                     00 
00030010001000000000000000000000000000000000000000000000000000000000000000000000000000000000000000000          BALLOTS CAST - BLANK                                    BALLOTS CAST - BLANK                  Calvert 1                                              00 
00030010002000000000000000000000000000000000000000000000000000000000000000000000000000000000000000000          BALLOTS CAST - BLANK                                    BALLOTS CAST - BLANK                  Hearne 2                                               00 
00030010003000000000000000000000000000000000000000000000000000000000000000000000000000000000000000000          BALLOTS CAST - BLANK                                    BALLOTS CAST - BLANK                  Wheelock 3                                             00 
00030010004000000000000000000000000000000000000000000000000000000000000000000000000000000000000000000          BALLOTS CAST - BLANK                                    BALLOTS CAST - BLANK                  Bald Prairie 4                                         00 
00030010005000000000000000000000000000000000000000000000000000000000000000000000000000000000000000000          BALLOTS CAST - BLANK                                    BALLOTS CAST - BLANK                  Bremond 5                                              00 
00030010006000000000000000000000000000000000000000000000000000000000000000000000000000000000000000000          BALLOTS CAST - BLANK                                    BALLOTS CAST - BLANK                  Franklin 6                                             00 
00030010007000000000000000000000000000000000000000000000000000000000000000000000000000000000000000000          BALLOTS CAST - BLANK                                    BALLOTS CAST - BLANK                  Seale 8                                                00 
00030010008000001000000000001000000000000000000000000000000000000000000000000000000000000000000000000          BALLOTS CAST - BLANK                                    BALLOTS CAST - BLANK                  Benchley 11                                            00 
00030010009000000000000000000000000000000000000000000000000000000000000000000000000000000000000000000          BALLOTS CAST - BLANK                                    BALLOTS CAST - BLANK                  Elliott 13                                             00 
00030010010000000000000000000000000000000000000000000000000000000000000000000000000000000000000000000          BALLOTS CAST - BLANK                                    BALLOTS CAST - BLANK                  Easterly 16                                            00 
00030010011000000000000000000000000000000000000000000000000000000000000000000000000000000000000000000          BALLOTS CAST - BLANK                                    BALLOTS CAST - BLANK                  New Baden 19                                           00 
00030010012000000000000000000000000000000000000000000000000000000000000000000000000000000000000000000          BALLOTS CAST - BLANK                                    BALLOTS CAST - BLANK                  Teal Center 22                                         00 
00030010013000000000000000000000000000000000000000000000000000000000000000000000000000000000000000000          BALLOTS CAST - BLANK                                    BALLOTS CAST - BLANK                  Christian Faith 23                                     00 
00040010001000443000008000278000156000001000000000000000000000000000000000000000000000000000000000000REP       US Representative, Dist 17                              REP Pete Sessions                     Calvert 1                                              01 
00040010002000455000018000294000143000000000000000000000000000000000000000000000000000000000000000000REP       US Representative, Dist 17                              REP Pete Sessions                     Hearne 2                                               01 
00040010003000360000002000155000203000000000000000000000000000000000000000000000000000000000000000000REP       US Representative, Dist 17                              REP Pete Sessions                     Wheelock 3                                             01 
00040010004000369000003000263000103000000000000000000000000000000000000000000000000000000000000000000REP       US Representative, Dist 17                              REP Pete Sessions                     Bald Prairie 4                                         01 
00040010005000666000013000367000286000000000000000000000000000000000000000000000000000000000000000000REP       US Representative, Dist 17                              REP Pete Sessions                     Bremond 5                                              01 
00040010006000748000010000478000256000004000000000000000000000000000000000000000000000000000000000000REP       US Representative, Dist 17                              REP Pete Sessions                     Franklin 6                                             01 
00040010007000176000003000051000121000001000000000000000000000000000000000000000000000000000000000000REP       US Representative, Dist 17                              REP Pete Sessions                     Seale 8                                                01 
00040010008000527000011000244000272000000000000000000000000000000000000000000000000000000000000000000REP       US Representative, Dist 17                              REP Pete Sessions                     Benchley 11                                            01 
00040010009000152000001000119000032000000000000000000000000000000000000000000000000000000000000000000REP       US Representative, Dist 17                              REP Pete Sessions                     Elliott 13                                             01 
00040010010000129000002000064000063000000000000000000000000000000000000000000000000000000000000000000REP       US Representative, Dist 17                              REP Pete Sessions                     Easterly 16                                            01 
00040010011000349000015000232000102000000000000000000000000000000000000000000000000000000000000000000REP       US Representative, Dist 17                              REP Pete Sessions                     New Baden 19                                           01 
00040010012000128000001000072000054000001000000000000000000000000000000000000000000000000000000000000REP       US Representative, Dist 17                              REP Pete Sessions                     Teal Center 22                                         01 
00040010013000155000002000095000058000000000000000000000000000000000000000000000000000000000000000000REP       US Representative, Dist 17                              REP Pete Sessions                     Christian Faith 23                                     01 
00040020001000168000010000082000076000000000000000000000000000000000000000000000000000000000000000000DEM       US Representative, Dist 17                              DEM Mary Jo Woods                     Calvert 1                                              01 
00040020002000168000009000086000073000000000000000000000000000000000000000000000000000000000000000000DEM       US Representative, Dist 17                              DEM Mary Jo Woods                     Hearne 2                                               01 
00040020003000038000004000020000014000000000000000000000000000000000000000000000000000000000000000000DEM       US Representative, Dist 17                              DEM Mary Jo Woods                     Wheelock 3                                             01 
00040020004000057000005000037000015000000000000000000000000000000000000000000000000000000000000000000DEM       US Representative, Dist 17                              DEM Mary Jo Woods                     Bald Prairie 4                                         01 
00040020005000121000008000068000045000000000000000000000000000000000000000000000000000000000000000000DEM       US Representative, Dist 17                              DEM Mary Jo Woods                     Bremond 5                                              01 
00040020006000089000009000049000031000000000000000000000000000000000000000000000000000000000000000000DEM       US Representative, Dist 17                              DEM Mary Jo Woods                     Franklin 6                                             01 
00040020007000013000002000002000009000000000000000000000000000000000000000000000000000000000000000000DEM       US Representative, Dist 17                              DEM Mary Jo Woods                     Seale 8                                                01 
00040020008000142000022000061000059000000000000000000000000000000000000000000000000000000000000000000DEM       US Representative, Dist 17                              DEM Mary Jo Woods                     Benchley 11                                            01 
00040020009000010000001000006000003000000000000000000000000000000000000000000000000000000000000000000DEM       US Representative, Dist 17                              DEM Mary Jo Woods                     Elliott 13                                             01 
00040020010000014000000000008000006000000000000000000000000000000000000000000000000000000000000000000DEM       US Representative, Dist 17                              DEM Mary Jo Woods                     Easterly 16                                            01 
00040020011000037000004000021000011000001000000000000000000000000000000000000000000000000000000000000DEM       US Representative, Dist 17                              DEM Mary Jo Woods                     New Baden 19                                           01 
00040020012000336000035000133000166000002000000000000000000000000000000000000000000000000000000000000DEM       US Representative, Dist 17                              DEM Mary Jo Woods                     Teal Center 22                                         01 
00040020013000095000012000035000048000000000000000000000000000000000000000000000000000000000000000000DEM       US Representative, Dist 17                              DEM Mary Jo Woods                     Christian Faith 23                                     01 
00040030001000000000000000000000000000000000000000000000000000000000000000000000000000000000000000000          US Representative, Dist 17                              OVER VOTES                            Calvert 1                                              01 
00040030002000000000000000000000000000000000000000000000000000000000000000000000000000000000000000000          US Representative, Dist 17                              OVER VOTES                            Hearne 2                                               01 
00040030003000000000000000000000000000000000000000000000000000000000000000000000000000000000000000000          US Representative, Dist 17                              OVER VOTES                            Wheelock 3                                             01 
00040030004000000000000000000000000000000000000000000000000000000000000000000000000000000000000000000          US Representative, Dist 17                              OVER VOTES                            Bald Prairie 4                                         01 
00040030005000000000000000000000000000000000000000000000000000000000000000000000000000000000000000000          US Representative, Dist 17                              OVER VOTES                            Bremond 5                                              01 
00040030006000000000000000000000000000000000000000000000000000000000000000000000000000000000000000000          US Representative, Dist 17                              OVER VOTES                            Franklin 6                                             01 
00040030007000000000000000000000000000000000000000000000000000000000000000000000000000000000000000000          US Representative, Dist 17                              OVER VOTES                            Seale 8                                                01 
00040030008000000000000000000000000000000000000000000000000000000000000000000000000000000000000000000          US Representative, Dist 17                              OVER VOTES                            Benchley 11                                            01 
00040030009000000000000000000000000000000000000000000000000000000000000000000000000000000000000000000          US Representative, Dist 17                              OVER VOTES                            Elliott 13                                             01 
00040030010000001000000000001000000000000000000000000000000000000000000000000000000000000000000000000          US Representative, Dist 17                              OVER VOTES                            Easterly 16                                            01 
00040030011000000000000000000000000000000000000000000000000000000000000000000000000000000000000000000          US Representative, Dist 17                              OVER VOTES                            New Baden 19                                           01 
00040030012000000000000000000000000000000000000000000000000000000000000000000000000000000000000000000          US Representative, Dist 17                              OVER VOTES                            Teal Center 22                                         01 
00040030013000000000000000000000000000000000000000000000000000000000000000000000000000000000000000000          US Representative, Dist 17                              OVER VOTES                            Christian Faith 23                                     01 
00040040001000012000000000008000004000000000000000000000000000000000000000000000000000000000000000000          US Representative, Dist 17                              UNDER VOTES                           Calvert 1                                              01 
00040040002000012000000000008000004000000000000000000000000000000000000000000000000000000000000000000          US Representative, Dist 17                              UNDER VOTES                           Hearne 2                                               01 
00040040003000003000000000003000000000000000000000000000000000000000000000000000000000000000000000000          US Representative, Dist 17                              UNDER VOTES                           Wheelock 3                                             01 
00040040004000012000000000010000002000000000000000000000000000000000000000000000000000000000000000000          US Representative, Dist 17                              UNDER VOTES                           Bald Prairie 4                                         01 
00040040005000012000001000008000003000000000000000000000000000000000000000000000000000000000000000000          US Representative, Dist 17                              UNDER VOTES                           Bremond 5                                              01 
00040040006000015000000000007000008000000000000000000000000000000000000000000000000000000000000000000          US Representative, Dist 17                              UNDER VOTES                           Franklin 6                                             01 
00040040007000002000000000000000002000000000000000000000000000000000000000000000000000000000000000000          US Representative, Dist 17                              UNDER VOTES                           Seale 8                                                01 
00040040008000007000000000005000002000000000000000000000000000000000000000000000000000000000000000000          US Representative, Dist 17                              UNDER VOTES                           Benchley 11                                            01 
00040040009000000000000000000000000000000000000000000000000000000000000000000000000000000000000000000          US Representative, Dist 17                              UNDER VOTES                           Elliott 13                                             01 
00040040010000004000000000002000002000000000000000000000000000000000000000000000000000000000000000000          US Representative, Dist 17                              UNDER VOTES                           Easterly 16                                            01 
00040040011000005000000000005000000000000000000000000000000000000000000000000000000000000000000000000          US Representative, Dist 17                              UNDER VOTES                           New Baden 19                                           01 
00040040012000002000000000001000001000000000000000000000000000000000000000000000000000000000000000000          US Representative, Dist 17                              UNDER VOTES                           Teal Center 22                                         01 
00040040013000005000000000003000002000000000000000000000000000000000000000000000000000000000000000000          US Representative, Dist 17                              UNDER VOTES                           Christian Faith 23                                     01 
00050010001000445000006000283000155000001000000000000000000000000000000000000000000000000000000000000REP       Governor                                                REP Greg Abbott                       Calvert 1                                              01 
00050010002000456000016000296000144000000000000000000000000000000000000000000000000000000000000000000REP       Governor                                                REP Greg Abbott                       Hearne 2                                               01 
00050010003000352000002000154000196000000000000000000000000000000000000000000000000000000000000000000REP       Governor                                                REP Greg Abbott                       Wheelock 3                                             01 
00050010004000376000003000271000102000000000000000000000000000000000000000000000000000000000000000000REP       Governor                                                REP Greg Abbott                       Bald Prairie 4                                         01 
00050010005000665000013000367000285000000000000000000000000000000000000000000000000000000000000000000REP       Governor                                                REP Greg Abbott                       Bremond 5                                              01 
00050010006000744000010000475000255000004000000000000000000000000000000000000000000000000000000000000REP       Governor                                                REP Greg Abbott                       Franklin 6                                             01 
00050010007000174000003000051000119000001000000000000000000000000000000000000000000000000000000000000REP       Governor                                                REP Greg Abbott                       Seale 8                                                01 
00050010008000521000011000242000268000000000000000000000000000000000000000000000000000000000000000000REP       Governor                                                REP Greg Abbott                       Benchley 11                                            01 
00050010009000152000001000119000032000000000000000000000000000000000000000000000000000000000000000000REP       Governor                                                REP Greg Abbott                       Elliott 13                                             01 
00050010010000130000002000064000064000000000000000000000000000000000000000000000000000000000000000000REP       Governor                                                REP Greg Abbott                       Easterly 16                                            01 
00050010011000348000015000234000099000000000000000000000000000000000000000000000000000000000000000000REP       Governor                                                REP Greg Abbott                       New Baden 19                                           01 
00050010012000122000001000069000051000001000000000000000000000000000000000000000000000000000000000000REP       Governor                                                REP Greg Abbott                       Teal Center 22                                         01 
00050010013000158000002000098000058000000000000000000000000000000000000000000000000000000000000000000REP       Governor                                                REP Greg Abbott                       Christian Faith 23                                     01 
00050020001000167000012000080000075000000000000000000000000000000000000000000000000000000000000000000DEM       Governor                                                DEM Beto O'Rourke                     Calvert 1                                              01 
00050020002000167000010000086000071000000000000000000000000000000000000000000000000000000000000000000DEM       Governor                                                DEM Beto O'Rourke                     Hearne 2                                               01 
00050020003000042000004000022000016000000000000000000000000000000000000000000000000000000000000000000DEM       Governor                                                DEM Beto O'Rourke                     Wheelock 3                                             01 
00050020004000055000005000036000014000000000000000000000000000000000000000000000000000000000000000000DEM       Governor                                                DEM Beto O'Rourke                     Bald Prairie 4                                         01 
00050020005000116000007000065000044000000000000000000000000000000000000000000000000000000000000000000DEM       Governor                                                DEM Beto O'Rourke                     Bremond 5                                              01 
00050020006000096000007000053000036000000000000000000000000000000000000000000000000000000000000000000DEM       Governor                                                DEM Beto O'Rourke                     Franklin 6                                             01 
00050020007000015000002000002000011000000000000000000000000000000000000000000000000000000000000000000DEM       Governor                                                DEM Beto O'Rourke                     Seale 8                                                01 
00050020008000140000022000060000058000000000000000000000000000000000000000000000000000000000000000000DEM       Governor                                                DEM Beto O'Rourke                     Benchley 11                                            01 
00050020009000010000001000006000003000000000000000000000000000000000000000000000000000000000000000000DEM       Governor                                                DEM Beto O'Rourke                     Elliott 13                                             01 
00050020010000015000000000009000006000000000000000000000000000000000000000000000000000000000000000000DEM       Governor                                                DEM Beto O'Rourke                     Easterly 16                                            01 
00050020011000041000004000024000012000001000000000000000000000000000000000000000000000000000000000000DEM       Governor                                                DEM Beto O'Rourke                     New Baden 19                                           01 
00050020012000335000035000134000164000002000000000000000000000000000000000000000000000000000000000000DEM       Governor                                                DEM Beto O'Rourke                     Teal Center 22                                         01 
00050020013000094000012000034000048000000000000000000000000000000000000000000000000000000000000000000DEM       Governor                                                DEM Beto O'Rourke                     Christian Faith 23                                     01 
00050030001000006000000000003000003000000000000000000000000000000000000000000000000000000000000000000LIB       Governor                                                LIB Mark Tippetts                     Calvert 1                                              01 
00050030002000007000000000005000002000000000000000000000000000000000000000000000000000000000000000000LIB       Governor                                                LIB Mark Tippetts                     Hearne 2                                               01 
00050030003000006000000000002000004000000000000000000000000000000000000000000000000000000000000000000LIB       Governor                                                LIB Mark Tippetts                     Wheelock 3                                             01 
00050030004000003000000000002000001000000000000000000000000000000000000000000000000000000000000000000LIB       Governor                                                LIB Mark Tippetts                     Bald Prairie 4                                         01 
00050030005000009000002000006000001000000000000000000000000000000000000000000000000000000000000000000LIB       Governor                                                LIB Mark Tippetts                     Bremond 5                                              01 
00050030006000007000000000004000003000000000000000000000000000000000000000000000000000000000000000000LIB       Governor                                                LIB Mark Tippetts                     Franklin 6                                             01 
00050030007000001000000000000000001000000000000000000000000000000000000000000000000000000000000000000LIB       Governor                                                LIB Mark Tippetts                     Seale 8                                                01 
00050030008000011000000000006000005000000000000000000000000000000000000000000000000000000000000000000LIB       Governor                                                LIB Mark Tippetts                     Benchley 11                                            01 
00050030009000000000000000000000000000000000000000000000000000000000000000000000000000000000000000000LIB       Governor                                                LIB Mark Tippetts                     Elliott 13                                             01 
00050030010000003000000000002000001000000000000000000000000000000000000000000000000000000000000000000LIB       Governor                                                LIB Mark Tippetts                     Easterly 16                                            01 
00050030011000001000000000000000001000000000000000000000000000000000000000000000000000000000000000000LIB       Governor                                                LIB Mark Tippetts                     New Baden 19                                           01 
00050030012000007000000000002000005000000000000000000000000000000000000000000000000000000000000000000LIB       Governor                                                LIB Mark Tippetts                     Teal Center 22                                         01 
00050030013000001000000000000000001000000000000000000000000000000000000000000000000000000000000000000LIB       Governor                                                LIB Mark Tippetts                     Christian Faith 23                                     01 
00050040001000003000000000001000002000000000000000000000000000000000000000000000000000000000000000000GRN       Governor                                                GRN Delilah Barrios                   Calvert 1                                              01 
00050040002000002000001000000000001000000000000000000000000000000000000000000000000000000000000000000GRN       Governor                                                GRN Delilah Barrios                   Hearne 2                                               01 
00050040003000001000000000000000001000000000000000000000000000000000000000000000000000000000000000000GRN       Governor                                                GRN Delilah Barrios                   Wheelock 3                                             01 
00050040004000004000000000001000003000000000000000000000000000000000000000000000000000000000000000000GRN       Governor                                                GRN Delilah Barrios                   Bald Prairie 4                                         01 
00050040005000004000000000001000003000000000000000000000000000000000000000000000000000000000000000000GRN       Governor                                                GRN Delilah Barrios                   Bremond 5                                              01 
00050040006000001000000000001000000000000000000000000000000000000000000000000000000000000000000000000GRN       Governor                                                GRN Delilah Barrios                   Franklin 6                                             01 
00050040007000000000000000000000000000000000000000000000000000000000000000000000000000000000000000000GRN       Governor                                                GRN Delilah Barrios                   Seale 8                                                01 
00050040008000002000000000000000002000000000000000000000000000000000000000000000000000000000000000000GRN       Governor                                                GRN Delilah Barrios                   Benchley 11                                            01 
00050040009000000000000000000000000000000000000000000000000000000000000000000000000000000000000000000GRN       Governor                                                GRN Delilah Barrios                   Elliott 13                                             01 
00050040010000000000000000000000000000000000000000000000000000000000000000000000000000000000000000000GRN       Governor                                                GRN Delilah Barrios                   Easterly 16                                            01 
00050040011000001000000000000000001000000000000000000000000000000000000000000000000000000000000000000GRN       Governor                                                GRN Delilah Barrios                   New Baden 19                                           01 
00050040012000000000000000000000000000000000000000000000000000000000000000000000000000000000000000000GRN       Governor                                                GRN Delilah Barrios                   Teal Center 22                                         01 
00050040013000001000000000000000001000000000000000000000000000000000000000000000000000000000000000000GRN       Governor                                                GRN Delilah Barrios                   Christian Faith 23                                     01 
00050060001000000000000000000000000000000000000000000000000000000000000000000000000000000000000000000NON       Governor                                                Write-in                              Calvert 1                                              01 
00050060002000000000000000000000000000000000000000000000000000000000000000000000000000000000000000000NON       Governor                                                Write-in                              Hearne 2                                               01 
00050060003000000000000000000000000000000000000000000000000000000000000000000000000000000000000000000NON       Governor                                                Write-in                              Wheelock 3                                             01 
00050060004000000000000000000000000000000000000000000000000000000000000000000000000000000000000000000NON       Governor                                                Write-in                              Bald Prairie 4                                         01 
00050060005000000000000000000000000000000000000000000000000000000000000000000000000000000000000000000NON       Governor                                                Write-in                              Bremond 5                                              01 
00050060006000000000000000000000000000000000000000000000000000000000000000000000000000000000000000000NON       Governor                                                Write-in                              Franklin 6                                             01 
00050060007000000000000000000000000000000000000000000000000000000000000000000000000000000000000000000NON       Governor                                                Write-in                              Seale 8                                                01 
00050060008000000000000000000000000000000000000000000000000000000000000000000000000000000000000000000NON       Governor                                                Write-in                              Benchley 11                                            01 
00050060009000000000000000000000000000000000000000000000000000000000000000000000000000000000000000000NON       Governor                                                Write-in                              Elliott 13                                             01 
00050060010000000000000000000000000000000000000000000000000000000000000000000000000000000000000000000NON       Governor                                                Write-in                              Easterly 16                                            01 
00050060011000000000000000000000000000000000000000000000000000000000000000000000000000000000000000000NON       Governor                                                Write-in                              New Baden 19                                           01 
00050060012000000000000000000000000000000000000000000000000000000000000000000000000000000000000000000NON       Governor                                                Write-in                              Teal Center 22                                         01 
00050060013000000000000000000000000000000000000000000000000000000000000000000000000000000000000000000NON       Governor                                                Write-in                              Christian Faith 23                                     01 
00050070001000000000000000000000000000000000000000000000000000000000000000000000000000000000000000000          Governor                                                OVER VOTES                            Calvert 1                                              01 
00050070002000001000000000000000001000000000000000000000000000000000000000000000000000000000000000000          Governor                                                OVER VOTES                            Hearne 2                                               01 
00050070003000000000000000000000000000000000000000000000000000000000000000000000000000000000000000000          Governor                                                OVER VOTES                            Wheelock 3                                             01 
00050070004000000000000000000000000000000000000000000000000000000000000000000000000000000000000000000          Governor                                                OVER VOTES                            Bald Prairie 4                                         01 
00050070005000000000000000000000000000000000000000000000000000000000000000000000000000000000000000000          Governor                                                OVER VOTES                            Bremond 5                                              01 
00050070006000000000000000000000000000000000000000000000000000000000000000000000000000000000000000000          Governor                                                OVER VOTES                            Franklin 6                                             01 
00050070007000000000000000000000000000000000000000000000000000000000000000000000000000000000000000000          Governor                                                OVER VOTES                            Seale 8                                                01 
00050070008000000000000000000000000000000000000000000000000000000000000000000000000000000000000000000          Governor                                                OVER VOTES                            Benchley 11                                            01 
00050070009000000000000000000000000000000000000000000000000000000000000000000000000000000000000000000          Governor                                                OVER VOTES                            Elliott 13                                             01 
00050070010000000000000000000000000000000000000000000000000000000000000000000000000000000000000000000          Governor                                                OVER VOTES                            Easterly 16                                            01 
00050070011000000000000000000000000000000000000000000000000000000000000000000000000000000000000000000          Governor                                                OVER VOTES                            New Baden 19                                           01 
00050070012000000000000000000000000000000000000000000000000000000000000000000000000000000000000000000          Governor                                                OVER VOTES                            Teal Center 22                                         01 
00050070013000000000000000000000000000000000000000000000000000000000000000000000000000000000000000000          Governor                                                OVER VOTES                            Christian Faith 23                                     01 
00050080001000002000000000001000001000000000000000000000000000000000000000000000000000000000000000000          Governor                                                UNDER VOTES                           Calvert 1                                              01 
00050080002000002000000000001000001000000000000000000000000000000000000000000000000000000000000000000          Governor                                                UNDER VOTES                           Hearne 2                                               01 
00050080003000000000000000000000000000000000000000000000000000000000000000000000000000000000000000000          Governor                                                UNDER VOTES                           Wheelock 3                                             01 
00050080004000000000000000000000000000000000000000000000000000000000000000000000000000000000000000000          Governor                                                UNDER VOTES                           Bald Prairie 4                                         01 
00050080005000005000000000004000001000000000000000000000000000000000000000000000000000000000000000000          Governor                                                UNDER VOTES                           Bremond 5                                              01 
00050080006000004000002000001000001000000000000000000000000000000000000000000000000000000000000000000          Governor                                                UNDER VOTES                           Franklin 6                                             01 
00050080007000001000000000000000001000000000000000000000000000000000000000000000000000000000000000000          Governor                                                UNDER VOTES                           Seale 8                                                01 
00050080008000002000000000002000000000000000000000000000000000000000000000000000000000000000000000000          Governor                                                UNDER VOTES                           Benchley 11                                            01 
00050080009000000000000000000000000000000000000000000000000000000000000000000000000000000000000000000          Governor                                                UNDER VOTES                           Elliott 13                                             01 
00050080010000000000000000000000000000000000000000000000000000000000000000000000000000000000000000000          Governor                                                UNDER VOTES                           Easterly 16                                            01 
00050080011000000000000000000000000000000000000000000000000000000000000000000000000000000000000000000          Governor                                                UNDER VOTES                           New Baden 19                                           01 
00050080012000002000000000001000001000000000000000000000000000000000000000000000000000000000000000000          Governor                                                UNDER VOTES                           Teal Center 22                                         01 
00050080013000001000000000001000000000000000000000000000000000000000000000000000000000000000000000000          Governor                                                UNDER VOTES                           Christian Faith 23                                     01 
00060010001000430000006000273000150000001000000000000000000000000000000000000000000000000000000000000REP       Lieutenant Governor                                     REP Dan Patrick                       Calvert 1                                              01 
00060010002000440000016000285000139000000000000000000000000000000000000000000000000000000000000000000REP       Lieutenant Governor                                     REP Dan Patrick                       Hearne 2                                               01 
00060010003000337000002000146000189000000000000000000000000000000000000000000000000000000000000000000REP       Lieutenant Governor                                     REP Dan Patrick                       Wheelock 3                                             01 
00060010004000372000003000267000102000000000000000000000000000000000000000000000000000000000000000000REP       Lieutenant Governor                                     REP Dan Patrick                       Bald Prairie 4                                         01 
00060010005000655000013000358000284000000000000000000000000000000000000000000000000000000000000000000REP       Lieutenant Governor                                     REP Dan Patrick                       Bremond 5                                              01 
00060010006000732000010000467000251000004000000000000000000000000000000000000000000000000000000000000REP       Lieutenant Governor                                     REP Dan Patrick                       Franklin 6                                             01 
00060010007000171000003000050000117000001000000000000000000000000000000000000000000000000000000000000REP       Lieutenant Governor                                     REP Dan Patrick                       Seale 8                                                01 
00060010008000510000011000238000261000000000000000000000000000000000000000000000000000000000000000000REP       Lieutenant Governor                                     REP Dan Patrick                       Benchley 11                                            01 
00060010009000149000001000116000032000000000000000000000000000000000000000000000000000000000000000000REP       Lieutenant Governor                                     REP Dan Patrick                       Elliott 13                                             01 
00060010010000129000002000065000062000000000000000000000000000000000000000000000000000000000000000000REP       Lieutenant Governor                                     REP Dan Patrick                       Easterly 16                                            01 
00060010011000339000015000227000097000000000000000000000000000000000000000000000000000000000000000000REP       Lieutenant Governor                                     REP Dan Patrick                       New Baden 19                                           01 
00060010012000124000001000072000050000001000000000000000000000000000000000000000000000000000000000000REP       Lieutenant Governor                                     REP Dan Patrick                       Teal Center 22                                         01 
00060010013000149000002000091000056000000000000000000000000000000000000000000000000000000000000000000REP       Lieutenant Governor                                     REP Dan Patrick                       Christian Faith 23                                     01 
00060020001000177000012000087000078000000000000000000000000000000000000000000000000000000000000000000DEM       Lieutenant Governor                                     DEM Mike Collier                      Calvert 1                                              01 
00060020002000169000009000085000075000000000000000000000000000000000000000000000000000000000000000000DEM       Lieutenant Governor                                     DEM Mike Collier                      Hearne 2                                               01 
00060020003000049000004000025000020000000000000000000000000000000000000000000000000000000000000000000DEM       Lieutenant Governor                                     DEM Mike Collier                      Wheelock 3                                             01 
00060020004000060000005000038000017000000000000000000000000000000000000000000000000000000000000000000DEM       Lieutenant Governor                                     DEM Mike Collier                      Bald Prairie 4                                         01 
00060020005000120000008000070000042000000000000000000000000000000000000000000000000000000000000000000DEM       Lieutenant Governor                                     DEM Mike Collier                      Bremond 5                                              01 
00060020006000099000009000056000034000000000000000000000000000000000000000000000000000000000000000000DEM       Lieutenant Governor                                     DEM Mike Collier                      Franklin 6                                             01 
00060020007000017000002000003000012000000000000000000000000000000000000000000000000000000000000000000DEM       Lieutenant Governor                                     DEM Mike Collier                      Seale 8                                                01 
00060020008000139000022000060000057000000000000000000000000000000000000000000000000000000000000000000DEM       Lieutenant Governor                                     DEM Mike Collier                      Benchley 11                                            01 
00060020009000011000001000007000003000000000000000000000000000000000000000000000000000000000000000000DEM       Lieutenant Governor                                     DEM Mike Collier                      Elliott 13                                             01 
00060020010000014000000000008000006000000000000000000000000000000000000000000000000000000000000000000DEM       Lieutenant Governor                                     DEM Mike Collier                      Easterly 16                                            01 
00060020011000044000004000026000013000001000000000000000000000000000000000000000000000000000000000000DEM       Lieutenant Governor                                     DEM Mike Collier                      New Baden 19                                           01 
00060020012000330000035000131000163000001000000000000000000000000000000000000000000000000000000000000DEM       Lieutenant Governor                                     DEM Mike Collier                      Teal Center 22                                         01 
00060020013000097000012000037000048000000000000000000000000000000000000000000000000000000000000000000DEM       Lieutenant Governor                                     DEM Mike Collier                      Christian Faith 23                                     01 
00060030001000008000000000004000004000000000000000000000000000000000000000000000000000000000000000000LIB       Lieutenant Governor                                     LIB Shanna Steele                     Calvert 1                                              01 
00060030002000018000001000014000003000000000000000000000000000000000000000000000000000000000000000000LIB       Lieutenant Governor                                     LIB Shanna Steele                     Hearne 2                                               01 
00060030003000011000000000003000008000000000000000000000000000000000000000000000000000000000000000000LIB       Lieutenant Governor                                     LIB Shanna Steele                     Wheelock 3                                             01 
00060030004000003000000000002000001000000000000000000000000000000000000000000000000000000000000000000LIB       Lieutenant Governor                                     LIB Shanna Steele                     Bald Prairie 4                                         01 
00060030005000015000000000010000005000000000000000000000000000000000000000000000000000000000000000000LIB       Lieutenant Governor                                     LIB Shanna Steele                     Bremond 5                                              01 
00060030006000011000000000006000005000000000000000000000000000000000000000000000000000000000000000000LIB       Lieutenant Governor                                     LIB Shanna Steele                     Franklin 6                                             01 
00060030007000002000000000000000002000000000000000000000000000000000000000000000000000000000000000000LIB       Lieutenant Governor                                     LIB Shanna Steele                     Seale 8                                                01 
00060030008000022000000000009000013000000000000000000000000000000000000000000000000000000000000000000LIB       Lieutenant Governor                                     LIB Shanna Steele                     Benchley 11                                            01 
00060030009000001000000000001000000000000000000000000000000000000000000000000000000000000000000000000LIB       Lieutenant Governor                                     LIB Shanna Steele                     Elliott 13                                             01 
00060030010000005000000000002000003000000000000000000000000000000000000000000000000000000000000000000LIB       Lieutenant Governor                                     LIB Shanna Steele                     Easterly 16                                            01 
00060030011000004000000000003000001000000000000000000000000000000000000000000000000000000000000000000LIB       Lieutenant Governor                                     LIB Shanna Steele                     New Baden 19                                           01 
00060030012000008000000000002000006000000000000000000000000000000000000000000000000000000000000000000LIB       Lieutenant Governor                                     LIB Shanna Steele                     Teal Center 22                                         01 
00060030013000003000000000001000002000000000000000000000000000000000000000000000000000000000000000000LIB       Lieutenant Governor                                     LIB Shanna Steele                     Christian Faith 23                                     01 
00060040001000000000000000000000000000000000000000000000000000000000000000000000000000000000000000000          Lieutenant Governor                                     OVER VOTES                            Calvert 1                                              01 
00060040002000000000000000000000000000000000000000000000000000000000000000000000000000000000000000000          Lieutenant Governor                                     OVER VOTES                            Hearne 2                                               01 
00060040003000000000000000000000000000000000000000000000000000000000000000000000000000000000000000000          Lieutenant Governor                                     OVER VOTES                            Wheelock 3                                             01 
00060040004000000000000000000000000000000000000000000000000000000000000000000000000000000000000000000          Lieutenant Governor                                     OVER VOTES                            Bald Prairie 4                                         01 
00060040005000000000000000000000000000000000000000000000000000000000000000000000000000000000000000000          Lieutenant Governor                                     OVER VOTES                            Bremond 5                                              01 
00060040006000000000000000000000000000000000000000000000000000000000000000000000000000000000000000000          Lieutenant Governor                                     OVER VOTES                            Franklin 6                                             01 
00060040007000000000000000000000000000000000000000000000000000000000000000000000000000000000000000000          Lieutenant Governor                                     OVER VOTES                            Seale 8                                                01 
00060040008000000000000000000000000000000000000000000000000000000000000000000000000000000000000000000          Lieutenant Governor                                     OVER VOTES                            Benchley 11                                            01 
00060040009000000000000000000000000000000000000000000000000000000000000000000000000000000000000000000          Lieutenant Governor                                     OVER VOTES                            Elliott 13                                             01 
00060040010000000000000000000000000000000000000000000000000000000000000000000000000000000000000000000          Lieutenant Governor                                     OVER VOTES                            Easterly 16                                            01 
00060040011000000000000000000000000000000000000000000000000000000000000000000000000000000000000000000          Lieutenant Governor                                     OVER VOTES                            New Baden 19                                           01 
00060040012000000000000000000000000000000000000000000000000000000000000000000000000000000000000000000          Lieutenant Governor                                     OVER VOTES                            Teal Center 22                                         01 
00060040013000000000000000000000000000000000000000000000000000000000000000000000000000000000000000000          Lieutenant Governor                                     OVER VOTES                            Christian Faith 23                                     01 
00060050001000008000000000004000004000000000000000000000000000000000000000000000000000000000000000000          Lieutenant Governor                                     UNDER VOTES                           Calvert 1                                              01 
00060050002000008000001000004000003000000000000000000000000000000000000000000000000000000000000000000          Lieutenant Governor                                     UNDER VOTES                           Hearne 2                                               01 
00060050003000004000000000004000000000000000000000000000000000000000000000000000000000000000000000000          Lieutenant Governor                                     UNDER VOTES                           Wheelock 3                                             01 
00060050004000003000000000003000000000000000000000000000000000000000000000000000000000000000000000000          Lieutenant Governor                                     UNDER VOTES                           Bald Prairie 4                                         01 
00060050005000009000001000005000003000000000000000000000000000000000000000000000000000000000000000000          Lieutenant Governor                                     UNDER VOTES                           Bremond 5                                              01 
00060050006000010000000000005000005000000000000000000000000000000000000000000000000000000000000000000          Lieutenant Governor                                     UNDER VOTES                           Franklin 6                                             01 
00060050007000001000000000000000001000000000000000000000000000000000000000000000000000000000000000000          Lieutenant Governor                                     UNDER VOTES                           Seale 8                                                01 
00060050008000005000000000003000002000000000000000000000000000000000000000000000000000000000000000000          Lieutenant Governor                                     UNDER VOTES                           Benchley 11                                            01 
00060050009000001000000000001000000000000000000000000000000000000000000000000000000000000000000000000          Lieutenant Governor                                     UNDER VOTES                           Elliott 13                                             01 
00060050010000000000000000000000000000000000000000000000000000000000000000000000000000000000000000000          Lieutenant Governor                                     UNDER VOTES                           Easterly 16                                            01 
00060050011000004000000000002000002000000000000000000000000000000000000000000000000000000000000000000          Lieutenant Governor                                     UNDER VOTES                           New Baden 19                                           01 
00060050012000004000000000001000002000001000000000000000000000000000000000000000000000000000000000000          Lieutenant Governor                                     UNDER VOTES                           Teal Center 22                                         01 
00060050013000006000000000004000002000000000000000000000000000000000000000000000000000000000000000000          Lieutenant Governor                                     UNDER VOTES                           Christian Faith 23                                     01 
00070010001000432000007000271000153000001000000000000000000000000000000000000000000000000000000000000REP       Attorney General                                        REP Ken Paxton                        Calvert 1                                              01 
00070010002000437000014000285000138000000000000000000000000000000000000000000000000000000000000000000REP       Attorney General                                        REP Ken Paxton                        Hearne 2                                               01 
00070010003000340000002000147000191000000000000000000000000000000000000000000000000000000000000000000REP       Attorney General                                        REP Ken Paxton                        Wheelock 3                                             01 
00070010004000369000003000263000103000000000000000000000000000000000000000000000000000000000000000000REP       Attorney General                                        REP Ken Paxton                        Bald Prairie 4                                         01 
00070010005000659000013000362000284000000000000000000000000000000000000000000000000000000000000000000REP       Attorney General                                        REP Ken Paxton                        Bremond 5                                              01 
00070010006000734000010000466000254000004000000000000000000000000000000000000000000000000000000000000REP       Attorney General                                        REP Ken Paxton                        Franklin 6                                             01 
00070010007000173000003000050000119000001000000000000000000000000000000000000000000000000000000000000REP       Attorney General                                        REP Ken Paxton                        Seale 8                                                01 
00070010008000502000011000231000260000000000000000000000000000000000000000000000000000000000000000000REP       Attorney General                                        REP Ken Paxton                        Benchley 11                                            01 
00070010009000146000001000118000027000000000000000000000000000000000000000000000000000000000000000000REP       Attorney General                                        REP Ken Paxton                        Elliott 13                                             01 
00070010010000127000002000065000060000000000000000000000000000000000000000000000000000000000000000000REP       Attorney General                                        REP Ken Paxton                        Easterly 16                                            01 
00070010011000334000011000226000097000000000000000000000000000000000000000000000000000000000000000000REP       Attorney General                                        REP Ken Paxton                        New Baden 19                                           01 
00070010012000118000001000068000048000001000000000000000000000000000000000000000000000000000000000000REP       Attorney General                                        REP Ken Paxton                        Teal Center 22                                         01 
00070010013000150000002000090000058000000000000000000000000000000000000000000000000000000000000000000REP       Attorney General                                        REP Ken Paxton                        Christian Faith 23                                     01 
00070020001000174000011000088000075000000000000000000000000000000000000000000000000000000000000000000DEM       Attorney General                                        DEM Rochelle Mercedes Garza           Calvert 1                                              01 
00070020002000175000011000088000076000000000000000000000000000000000000000000000000000000000000000000DEM       Attorney General                                        DEM Rochelle Mercedes Garza           Hearne 2                                               01 
00070020003000044000004000021000019000000000000000000000000000000000000000000000000000000000000000000DEM       Attorney General                                        DEM Rochelle Mercedes Garza           Wheelock 3                                             01 
00070020004000060000005000039000016000000000000000000000000000000000000000000000000000000000000000000DEM       Attorney General                                        DEM Rochelle Mercedes Garza           Bald Prairie 4                                         01 
00070020005000120000008000069000043000000000000000000000000000000000000000000000000000000000000000000DEM       Attorney General                                        DEM Rochelle Mercedes Garza           Bremond 5                                              01 
00070020006000096000009000054000033000000000000000000000000000000000000000000000000000000000000000000DEM       Attorney General                                        DEM Rochelle Mercedes Garza           Franklin 6                                             01 
00070020007000012000002000002000008000000000000000000000000000000000000000000000000000000000000000000DEM       Attorney General                                        DEM Rochelle Mercedes Garza           Seale 8                                                01 
00070020008000135000022000057000056000000000000000000000000000000000000000000000000000000000000000000DEM       Attorney General                                        DEM Rochelle Mercedes Garza           Benchley 11                                            01 
00070020009000009000001000005000003000000000000000000000000000000000000000000000000000000000000000000DEM       Attorney General                                        DEM Rochelle Mercedes Garza           Elliott 13                                             01 
00070020010000014000000000009000005000000000000000000000000000000000000000000000000000000000000000000DEM       Attorney General                                        DEM Rochelle Mercedes Garza           Easterly 16                                            01 
00070020011000039000005000021000012000001000000000000000000000000000000000000000000000000000000000000DEM       Attorney General                                        DEM Rochelle Mercedes Garza           New Baden 19                                           01 
00070020012000335000034000136000163000002000000000000000000000000000000000000000000000000000000000000DEM       Attorney General                                        DEM Rochelle Mercedes Garza           Teal Center 22                                         01 
00070020013000095000012000038000045000000000000000000000000000000000000000000000000000000000000000000DEM       Attorney General                                        DEM Rochelle Mercedes Garza           Christian Faith 23                                     01 
00070030001000012000000000006000006000000000000000000000000000000000000000000000000000000000000000000LIB       Attorney General                                        LIB Mark Ash                          Calvert 1                                              01 
00070030002000014000001000012000001000000000000000000000000000000000000000000000000000000000000000000LIB       Attorney General                                        LIB Mark Ash                          Hearne 2                                               01 
00070030003000009000000000004000005000000000000000000000000000000000000000000000000000000000000000000LIB       Attorney General                                        LIB Mark Ash                          Wheelock 3                                             01 
00070030004000005000000000004000001000000000000000000000000000000000000000000000000000000000000000000LIB       Attorney General                                        LIB Mark Ash                          Bald Prairie 4                                         01 
00070030005000010000000000007000003000000000000000000000000000000000000000000000000000000000000000000LIB       Attorney General                                        LIB Mark Ash                          Bremond 5                                              01 
00070030006000013000000000008000005000000000000000000000000000000000000000000000000000000000000000000LIB       Attorney General                                        LIB Mark Ash                          Franklin 6                                             01 
00070030007000004000000000001000003000000000000000000000000000000000000000000000000000000000000000000LIB       Attorney General                                        LIB Mark Ash                          Seale 8                                                01 
00070030008000033000000000017000016000000000000000000000000000000000000000000000000000000000000000000LIB       Attorney General                                        LIB Mark Ash                          Benchley 11                                            01 
00070030009000003000000000001000002000000000000000000000000000000000000000000000000000000000000000000LIB       Attorney General                                        LIB Mark Ash                          Elliott 13                                             01 
00070030010000005000000000001000004000000000000000000000000000000000000000000000000000000000000000000LIB       Attorney General                                        LIB Mark Ash                          Easterly 16                                            01 
00070030011000014000002000009000003000000000000000000000000000000000000000000000000000000000000000000LIB       Attorney General                                        LIB Mark Ash                          New Baden 19                                           01 
00070030012000010000000000001000009000000000000000000000000000000000000000000000000000000000000000000LIB       Attorney General                                        LIB Mark Ash                          Teal Center 22                                         01 
00070030013000005000000000002000003000000000000000000000000000000000000000000000000000000000000000000LIB       Attorney General                                        LIB Mark Ash                          Christian Faith 23                                     01 
00070040001000000000000000000000000000000000000000000000000000000000000000000000000000000000000000000          Attorney General                                        OVER VOTES                            Calvert 1                                              01 
00070040002000000000000000000000000000000000000000000000000000000000000000000000000000000000000000000          Attorney General                                        OVER VOTES                            Hearne 2                                               01 
00070040003000000000000000000000000000000000000000000000000000000000000000000000000000000000000000000          Attorney General                                        OVER VOTES                            Wheelock 3                                             01 
00070040004000000000000000000000000000000000000000000000000000000000000000000000000000000000000000000          Attorney General                                        OVER VOTES                            Bald Prairie 4                                         01 
00070040005000000000000000000000000000000000000000000000000000000000000000000000000000000000000000000          Attorney General                                        OVER VOTES                            Bremond 5                                              01 
00070040006000000000000000000000000000000000000000000000000000000000000000000000000000000000000000000          Attorney General                                        OVER VOTES                            Franklin 6                                             01 
00070040007000000000000000000000000000000000000000000000000000000000000000000000000000000000000000000          Attorney General                                        OVER VOTES                            Seale 8                                                01 
00070040008000000000000000000000000000000000000000000000000000000000000000000000000000000000000000000          Attorney General                                        OVER VOTES                            Benchley 11                                            01 
00070040009000000000000000000000000000000000000000000000000000000000000000000000000000000000000000000          Attorney General                                        OVER VOTES                            Elliott 13                                             01 
00070040010000000000000000000000000000000000000000000000000000000000000000000000000000000000000000000          Attorney General                                        OVER VOTES                            Easterly 16                                            01 
00070040011000000000000000000000000000000000000000000000000000000000000000000000000000000000000000000          Attorney General                                        OVER VOTES                            New Baden 19                                           01 
00070040012000000000000000000000000000000000000000000000000000000000000000000000000000000000000000000          Attorney General                                        OVER VOTES                            Teal Center 22                                         01 
00070040013000000000000000000000000000000000000000000000000000000000000000000000000000000000000000000          Attorney General                                        OVER VOTES                            Christian Faith 23                                     01 
00070050001000005000000000003000002000000000000000000000000000000000000000000000000000000000000000000          Attorney General                                        UNDER VOTES                           Calvert 1                                              01 
00070050002000009000001000003000005000000000000000000000000000000000000000000000000000000000000000000          Attorney General                                        UNDER VOTES                           Hearne 2                                               01 
00070050003000008000000000006000002000000000000000000000000000000000000000000000000000000000000000000          Attorney General                                        UNDER VOTES                           Wheelock 3                                             01 
00070050004000004000000000004000000000000000000000000000000000000000000000000000000000000000000000000          Attorney General                                        UNDER VOTES                           Bald Prairie 4                                         01 
00070050005000010000001000005000004000000000000000000000000000000000000000000000000000000000000000000          Attorney General                                        UNDER VOTES                           Bremond 5                                              01 
00070050006000009000000000006000003000000000000000000000000000000000000000000000000000000000000000000          Attorney General                                        UNDER VOTES                           Franklin 6                                             01 
00070050007000002000000000000000002000000000000000000000000000000000000000000000000000000000000000000          Attorney General                                        UNDER VOTES                           Seale 8                                                01 
00070050008000006000000000005000001000000000000000000000000000000000000000000000000000000000000000000          Attorney General                                        UNDER VOTES                           Benchley 11                                            01 
00070050009000004000000000001000003000000000000000000000000000000000000000000000000000000000000000000          Attorney General                                        UNDER VOTES                           Elliott 13                                             01 
00070050010000002000000000000000002000000000000000000000000000000000000000000000000000000000000000000          Attorney General                                        UNDER VOTES                           Easterly 16                                            01 
00070050011000004000001000002000001000000000000000000000000000000000000000000000000000000000000000000          Attorney General                                        UNDER VOTES                           New Baden 19                                           01 
00070050012000003000001000001000001000000000000000000000000000000000000000000000000000000000000000000          Attorney General                                        UNDER VOTES                           Teal Center 22                                         01 
00070050013000005000000000003000002000000000000000000000000000000000000000000000000000000000000000000          Attorney General                                        UNDER VOTES                           Christian Faith 23                                     01 
00080010001000432000007000273000151000001000000000000000000000000000000000000000000000000000000000000REP       Comptroller of Public Accounts                          REP Glenn Hegar                       Calvert 1                                              01 
00080010002000438000015000288000135000000000000000000000000000000000000000000000000000000000000000000REP       Comptroller of Public Accounts                          REP Glenn Hegar                       Hearne 2                                               01 
00080010003000351000002000152000197000000000000000000000000000000000000000000000000000000000000000000REP       Comptroller of Public Accounts                          REP Glenn Hegar                       Wheelock 3                                             01 
00080010004000374000003000268000103000000000000000000000000000000000000000000000000000000000000000000REP       Comptroller of Public Accounts                          REP Glenn Hegar                       Bald Prairie 4                                         01 
00080010005000664000013000366000285000000000000000000000000000000000000000000000000000000000000000000REP       Comptroller of Public Accounts                          REP Glenn Hegar                       Bremond 5                                              01 
00080010006000736000008000468000256000004000000000000000000000000000000000000000000000000000000000000REP       Comptroller of Public Accounts                          REP Glenn Hegar                       Franklin 6                                             01 
00080010007000176000004000051000120000001000000000000000000000000000000000000000000000000000000000000REP       Comptroller of Public Accounts                          REP Glenn Hegar                       Seale 8                                                01 
00080010008000516000011000239000266000000000000000000000000000000000000000000000000000000000000000000REP       Comptroller of Public Accounts                          REP Glenn Hegar                       Benchley 11                                            01 
00080010009000150000001000117000032000000000000000000000000000000000000000000000000000000000000000000REP       Comptroller of Public Accounts                          REP Glenn Hegar                       Elliott 13                                             01 
00080010010000126000002000064000060000000000000000000000000000000000000000000000000000000000000000000REP       Comptroller of Public Accounts                          REP Glenn Hegar                       Easterly 16                                            01 
00080010011000345000014000231000100000000000000000000000000000000000000000000000000000000000000000000REP       Comptroller of Public Accounts                          REP Glenn Hegar                       New Baden 19                                           01 
00080010012000116000002000068000045000001000000000000000000000000000000000000000000000000000000000000REP       Comptroller of Public Accounts                          REP Glenn Hegar                       Teal Center 22                                         01 
00080010013000149000002000091000056000000000000000000000000000000000000000000000000000000000000000000REP       Comptroller of Public Accounts                          REP Glenn Hegar                       Christian Faith 23                                     01 
00080020001000167000010000081000076000000000000000000000000000000000000000000000000000000000000000000DEM       Comptroller of Public Accounts                          DEM Janet T. Dudding                  Calvert 1                                              01 
00080020002000159000009000081000069000000000000000000000000000000000000000000000000000000000000000000DEM       Comptroller of Public Accounts                          DEM Janet T. Dudding                  Hearne 2                                               01 
00080020003000038000004000019000015000000000000000000000000000000000000000000000000000000000000000000DEM       Comptroller of Public Accounts                          DEM Janet T. Dudding                  Wheelock 3                                             01 
00080020004000057000005000037000015000000000000000000000000000000000000000000000000000000000000000000DEM       Comptroller of Public Accounts                          DEM Janet T. Dudding                  Bald Prairie 4                                         01 
00080020005000108000008000062000038000000000000000000000000000000000000000000000000000000000000000000DEM       Comptroller of Public Accounts                          DEM Janet T. Dudding                  Bremond 5                                              01 
00080020006000091000010000053000028000000000000000000000000000000000000000000000000000000000000000000DEM       Comptroller of Public Accounts                          DEM Janet T. Dudding                  Franklin 6                                             01 
00080020007000012000001000002000009000000000000000000000000000000000000000000000000000000000000000000DEM       Comptroller of Public Accounts                          DEM Janet T. Dudding                  Seale 8                                                01 
00080020008000130000022000054000054000000000000000000000000000000000000000000000000000000000000000000DEM       Comptroller of Public Accounts                          DEM Janet T. Dudding                  Benchley 11                                            01 
00080020009000010000001000006000003000000000000000000000000000000000000000000000000000000000000000000DEM       Comptroller of Public Accounts                          DEM Janet T. Dudding                  Elliott 13                                             01 
00080020010000014000000000010000004000000000000000000000000000000000000000000000000000000000000000000DEM       Comptroller of Public Accounts                          DEM Janet T. Dudding                  Easterly 16                                            01 
00080020011000038000004000022000011000001000000000000000000000000000000000000000000000000000000000000DEM       Comptroller of Public Accounts                          DEM Janet T. Dudding                  New Baden 19                                           01 
00080020012000331000033000126000170000002000000000000000000000000000000000000000000000000000000000000DEM       Comptroller of Public Accounts                          DEM Janet T. Dudding                  Teal Center 22                                         01 
00080020013000087000012000031000044000000000000000000000000000000000000000000000000000000000000000000DEM       Comptroller of Public Accounts                          DEM Janet T. Dudding                  Christian Faith 23                                     01 
00080030001000008000000000006000002000000000000000000000000000000000000000000000000000000000000000000LIB       Comptroller of Public Accounts                          LIB V. Alonzo Echevarria-Garza        Calvert 1                                              01 
00080030002000024000002000011000011000000000000000000000000000000000000000000000000000000000000000000LIB       Comptroller of Public Accounts                          LIB V. Alonzo Echevarria-Garza        Hearne 2                                               01 
00080030003000004000000000003000001000000000000000000000000000000000000000000000000000000000000000000LIB       Comptroller of Public Accounts                          LIB V. Alonzo Echevarria-Garza        Wheelock 3                                             01 
00080030004000002000000000001000001000000000000000000000000000000000000000000000000000000000000000000LIB       Comptroller of Public Accounts                          LIB V. Alonzo Echevarria-Garza        Bald Prairie 4                                         01 
00080030005000005000000000003000002000000000000000000000000000000000000000000000000000000000000000000LIB       Comptroller of Public Accounts                          LIB V. Alonzo Echevarria-Garza        Bremond 5                                              01 
00080030006000009000000000005000004000000000000000000000000000000000000000000000000000000000000000000LIB       Comptroller of Public Accounts                          LIB V. Alonzo Echevarria-Garza        Franklin 6                                             01 
00080030007000001000000000000000001000000000000000000000000000000000000000000000000000000000000000000LIB       Comptroller of Public Accounts                          LIB V. Alonzo Echevarria-Garza        Seale 8                                                01 
00080030008000021000000000012000009000000000000000000000000000000000000000000000000000000000000000000LIB       Comptroller of Public Accounts                          LIB V. Alonzo Echevarria-Garza        Benchley 11                                            01 
00080030009000000000000000000000000000000000000000000000000000000000000000000000000000000000000000000LIB       Comptroller of Public Accounts                          LIB V. Alonzo Echevarria-Garza        Elliott 13                                             01 
00080030010000005000000000001000004000000000000000000000000000000000000000000000000000000000000000000LIB       Comptroller of Public Accounts                          LIB V. Alonzo Echevarria-Garza        Easterly 16                                            01 
00080030011000003000000000002000001000000000000000000000000000000000000000000000000000000000000000000LIB       Comptroller of Public Accounts                          LIB V. Alonzo Echevarria-Garza        New Baden 19                                           01 
00080030012000014000000000010000004000000000000000000000000000000000000000000000000000000000000000000LIB       Comptroller of Public Accounts                          LIB V. Alonzo Echevarria-Garza        Teal Center 22                                         01 
00080030013000010000000000006000004000000000000000000000000000000000000000000000000000000000000000000LIB       Comptroller of Public Accounts                          LIB V. Alonzo Echevarria-Garza        Christian Faith 23                                     01 
00080040001000000000000000000000000000000000000000000000000000000000000000000000000000000000000000000          Comptroller of Public Accounts                          OVER VOTES                            Calvert 1                                              01 
00080040002000000000000000000000000000000000000000000000000000000000000000000000000000000000000000000          Comptroller of Public Accounts                          OVER VOTES                            Hearne 2                                               01 
00080040003000000000000000000000000000000000000000000000000000000000000000000000000000000000000000000          Comptroller of Public Accounts                          OVER VOTES                            Wheelock 3                                             01 
00080040004000000000000000000000000000000000000000000000000000000000000000000000000000000000000000000          Comptroller of Public Accounts                          OVER VOTES                            Bald Prairie 4                                         01 
00080040005000000000000000000000000000000000000000000000000000000000000000000000000000000000000000000          Comptroller of Public Accounts                          OVER VOTES                            Bremond 5                                              01 
00080040006000000000000000000000000000000000000000000000000000000000000000000000000000000000000000000          Comptroller of Public Accounts                          OVER VOTES                            Franklin 6                                             01 
00080040007000000000000000000000000000000000000000000000000000000000000000000000000000000000000000000          Comptroller of Public Accounts                          OVER VOTES                            Seale 8                                                01 
00080040008000000000000000000000000000000000000000000000000000000000000000000000000000000000000000000          Comptroller of Public Accounts                          OVER VOTES                            Benchley 11                                            01 
00080040009000000000000000000000000000000000000000000000000000000000000000000000000000000000000000000          Comptroller of Public Accounts                          OVER VOTES                            Elliott 13                                             01 
00080040010000000000000000000000000000000000000000000000000000000000000000000000000000000000000000000          Comptroller of Public Accounts                          OVER VOTES                            Easterly 16                                            01 
00080040011000000000000000000000000000000000000000000000000000000000000000000000000000000000000000000          Comptroller of Public Accounts                          OVER VOTES                            New Baden 19                                           01 
00080040012000000000000000000000000000000000000000000000000000000000000000000000000000000000000000000          Comptroller of Public Accounts                          OVER VOTES                            Teal Center 22                                         01 
00080040013000000000000000000000000000000000000000000000000000000000000000000000000000000000000000000          Comptroller of Public Accounts                          OVER VOTES                            Christian Faith 23                                     01 
00080050001000016000001000008000007000000000000000000000000000000000000000000000000000000000000000000          Comptroller of Public Accounts                          UNDER VOTES                           Calvert 1                                              01 
00080050002000014000001000008000005000000000000000000000000000000000000000000000000000000000000000000          Comptroller of Public Accounts                          UNDER VOTES                           Hearne 2                                               01 
00080050003000008000000000004000004000000000000000000000000000000000000000000000000000000000000000000          Comptroller of Public Accounts                          UNDER VOTES                           Wheelock 3                                             01 
00080050004000005000000000004000001000000000000000000000000000000000000000000000000000000000000000000          Comptroller of Public Accounts                          UNDER VOTES                           Bald Prairie 4                                         01 
00080050005000022000001000012000009000000000000000000000000000000000000000000000000000000000000000000          Comptroller of Public Accounts                          UNDER VOTES                           Bremond 5                                              01 
00080050006000016000001000008000007000000000000000000000000000000000000000000000000000000000000000000          Comptroller of Public Accounts                          UNDER VOTES                           Franklin 6                                             01 
00080050007000002000000000000000002000000000000000000000000000000000000000000000000000000000000000000          Comptroller of Public Accounts                          UNDER VOTES                           Seale 8                                                01 
00080050008000009000000000005000004000000000000000000000000000000000000000000000000000000000000000000          Comptroller of Public Accounts                          UNDER VOTES                           Benchley 11                                            01 
00080050009000002000000000002000000000000000000000000000000000000000000000000000000000000000000000000          Comptroller of Public Accounts                          UNDER VOTES                           Elliott 13                                             01 
00080050010000003000000000000000003000000000000000000000000000000000000000000000000000000000000000000          Comptroller of Public Accounts                          UNDER VOTES                           Easterly 16                                            01 
00080050011000005000001000003000001000000000000000000000000000000000000000000000000000000000000000000          Comptroller of Public Accounts                          UNDER VOTES                           New Baden 19                                           01 
00080050012000005000001000002000002000000000000000000000000000000000000000000000000000000000000000000          Comptroller of Public Accounts                          UNDER VOTES                           Teal Center 22                                         01 
00080050013000009000000000005000004000000000000000000000000000000000000000000000000000000000000000000          Comptroller of Public Accounts                          UNDER VOTES                           Christian Faith 23                                     01 
