00010010001000000          REGISTERED VOTERS - TOTAL                               REGISTERED VOTERS - TOTAL             1                                                      00 
00010010002000000          REGISTERED VOTERS - TOTAL                               REGISTERED VOTERS - TOTAL             1A                                                     00 
00010010003000000          REGISTERED VOTERS - TOTAL                               REGISTERED VOTERS - TOTAL             1B                                                     00 
00010010004000000          REGISTERED VOTERS - TOTAL                               REGISTERED VOTERS - TOTAL             1C                                                     00 
00010010005000000          REGISTERED VOTERS - TOTAL                               REGISTERED VOTERS - TOTAL             1D                                                     00 
00010010006000000          REGISTERED VOTERS - TOTAL                               REGISTERED VOTERS - TOTAL             1E                                                     00 
00010010007000000          REGISTERED VOTERS - TOTAL                               REGISTERED VOTERS - TOTAL             2                                                      00 
00010010008000000          REGISTERED VOTERS - TOTAL                               REGISTERED VOTERS - TOTAL             2A                                                     00 
00010010009000000          REGISTERED VOTERS - TOTAL                               REGISTERED VOTERS - TOTAL             2B                                                     00 
00010010010000000          REGISTERED VOTERS - TOTAL                               REGISTERED VOTERS - TOTAL             2C                                                     00 
00010010011000000          REGISTERED VOTERS - TOTAL                               REGISTERED VOTERS - TOTAL             2D                                                     00 
00010010012000000          REGISTERED VOTERS - TOTAL                               REGISTERED VOTERS - TOTAL             2E                                                     00 
00010010013000000          REGISTERED VOTERS - TOTAL                               REGISTERED VOTERS - TOTAL             2F                                                     00 
00010010014000000          REGISTERED VOTERS - TOTAL                               REGISTERED VOTERS - TOTAL             3                                                      00 
00010010015000000          REGISTERED VOTERS - TOTAL                               REGISTERED VOTERS - TOTAL             3A                                                     00 
00010010016000000          REGISTERED VOTERS - TOTAL                               REGISTERED VOTERS - TOTAL             3B                                                     00 
00010010017000000          REGISTERED VOTERS - TOTAL                               REGISTERED VOTERS - TOTAL             3C                                                     00 
00010010018000000          REGISTERED VOTERS - TOTAL                               REGISTERED VOTERS - TOTAL             3D                                                     00 
00010010019000000          REGISTERED VOTERS - TOTAL                               REGISTERED VOTERS - TOTAL             3E                                                     00 
00010010020000000          REGISTERED VOTERS - TOTAL                               REGISTERED VOTERS - TOTAL             4                                                      00 
00010010021000000          REGISTERED VOTERS - TOTAL                               REGISTERED VOTERS - TOTAL             4A                                                     00 
00010010022000000          REGISTERED VOTERS - TOTAL                               REGISTERED VOTERS - TOTAL             4B                                                     00 
00010010023000000          REGISTERED VOTERS - TOTAL                               REGISTERED VOTERS - TOTAL             4C                                                     00 
00010010024000000          REGISTERED VOTERS - TOTAL                               REGISTERED VOTERS - TOTAL             4D                                                     00 
00010010025000000          REGISTERED VOTERS - TOTAL                               REGISTERED VOTERS - TOTAL             4E                                                     00 
00010010026000000          REGISTERED VOTERS - TOTAL                               REGISTERED VOTERS - TOTAL             4F                                                     00 
00020010001002835          BALLOTS CAST - TOTAL                                    BALLOTS CAST - TOTAL                  1                                                      00 
00020010002001593          BALLOTS CAST - TOTAL                                    BALLOTS CAST - TOTAL                  1A                                                     00 
00020010003002905          BALLOTS CAST - TOTAL                                    BALLOTS CAST - TOTAL                  1B                                                     00 
00020010004002591          BALLOTS CAST - TOTAL                                    BALLOTS CAST - TOTAL                  1C                                                     00 
00020010005000401          BALLOTS CAST - TOTAL                                    BALLOTS CAST - TOTAL                  1D                                                     00 
00020010006001633          BALLOTS CAST - TOTAL                                    BALLOTS CAST - TOTAL                  1E                                                     00 
00020010007002500          BALLOTS CAST - TOTAL                                    BALLOTS CAST - TOTAL                  2                                                      00 
00020010008002083          BALLOTS CAST - TOTAL                                    BALLOTS CAST - TOTAL                  2A                                                     00 
00020010009001006          BALLOTS CAST - TOTAL                                    BALLOTS CAST - TOTAL                  2B                                                     00 
00020010010001051          BALLOTS CAST - TOTAL                                    BALLOTS CAST - TOTAL                  2C                                                     00 
00020010011001177          BALLOTS CAST - TOTAL                                    BALLOTS CAST - TOTAL                  2D                                                     00 
00020010012001131          BALLOTS CAST - TOTAL                                    BALLOTS CAST - TOTAL                  2E                                                     00 
00020010013000517          BALLOTS CAST - TOTAL                                    BALLOTS CAST - TOTAL                  2F                                                     00 
00020010014001015          BALLOTS CAST - TOTAL                                    BALLOTS CAST - TOTAL                  3                                                      00 
00020010015001947          BALLOTS CAST - TOTAL                                    BALLOTS CAST - TOTAL                  3A                                                     00 
00020010016002247          BALLOTS CAST - TOTAL                                    BALLOTS CAST - TOTAL                  3B                                                     00 
00020010017002341          BALLOTS CAST - TOTAL                                    BALLOTS CAST - TOTAL                  3C                                                     00 
00020010018002790          BALLOTS CAST - TOTAL                                    BALLOTS CAST - TOTAL                  3D                                                     00 
00020010019001937          BALLOTS CAST - TOTAL                                    BALLOTS CAST - TOTAL                  3E                                                     00 
00020010020000987          BALLOTS CAST - TOTAL                                    BALLOTS CAST - TOTAL                  4                                                      00 
00020010021002172          BALLOTS CAST - TOTAL                                    BALLOTS CAST - TOTAL                  4A                                                     00 
00020010022001685          BALLOTS CAST - TOTAL                                    BALLOTS CAST - TOTAL                  4B                                                     00 
00020010023001549          BALLOTS CAST - TOTAL                                    BALLOTS CAST - TOTAL                  4C                                                     00 
00020010024001399          BALLOTS CAST - TOTAL                                    BALLOTS CAST - TOTAL                  4D                                                     00 
00020010025001222          BALLOTS CAST - TOTAL                                    BALLOTS CAST - TOTAL                  4E                                                     00 
00020010026000268          BALLOTS CAST - TOTAL                                    BALLOTS CAST - TOTAL                  4F                                                     00 
00030010001000001          BALLOTS CAST - BLANK                                    BALLOTS CAST - BLANK                  1                                                      00 
00030010002000000          BALLOTS CAST - BLANK                                    BALLOTS CAST - BLANK                  1A                                                     00 
00030010003000000          BALLOTS CAST - BLANK                                    BALLOTS CAST - BLANK                  1B                                                     00 
00030010004000001          BALLOTS CAST - BLANK                                    BALLOTS CAST - BLANK                  1C                                                     00 
00030010005000000          BALLOTS CAST - BLANK                                    BALLOTS CAST - BLANK                  1D                                                     00 
00030010006000000          BALLOTS CAST - BLANK                                    BALLOTS CAST - BLANK                  1E                                                     00 
00030010007000000          BALLOTS CAST - BLANK                                    BALLOTS CAST - BLANK                  2                                                      00 
00030010008000000          BALLOTS CAST - BLANK                                    BALLOTS CAST - BLANK                  2A                                                     00 
00030010009000000          BALLOTS CAST - BLANK                                    BALLOTS CAST - BLANK                  2B                                                     00 
00030010010000000          BALLOTS CAST - BLANK                                    BALLOTS CAST - BLANK                  2C                                                     00 
00030010011000000          BALLOTS CAST - BLANK                                    BALLOTS CAST - BLANK                  2D                                                     00 
00030010012000000          BALLOTS CAST - BLANK                                    BALLOTS CAST - BLANK                  2E                                                     00 
00030010013000000          BALLOTS CAST - BLANK                                    BALLOTS CAST - BLANK                  2F                                                     00 
00030010014000000          BALLOTS CAST - BLANK                                    BALLOTS CAST - BLANK                  3                                                      00 
00030010015000000          BALLOTS CAST - BLANK                                    BALLOTS CAST - BLANK                  3A                                                     00 
00030010016000000          BALLOTS CAST - BLANK                                    BALLOTS CAST - BLANK                  3B                                                     00 
00030010017000000          BALLOTS CAST - BLANK                                    BALLOTS CAST - BLANK                  3C                                                     00 
00030010018000001          BALLOTS CAST - BLANK                                    BALLOTS CAST - BLANK                  3D                                                     00 
00030010019000000          BALLOTS CAST - BLANK                                    BALLOTS CAST - BLANK                  3E                                                     00 
00030010020000000          BALLOTS CAST - BLANK                                    BALLOTS CAST - BLANK                  4                                                      00 
00030010021000001          BALLOTS CAST - BLANK                                    BALLOTS CAST - BLANK                  4A                                                     00 
00030010022000000          BALLOTS CAST - BLANK                                    BALLOTS CAST - BLANK                  4B                                                     00 
00030010023000000          BALLOTS CAST - BLANK                                    BALLOTS CAST - BLANK                  4C                                                     00 
00030010024000000          BALLOTS CAST - BLANK                                    BALLOTS CAST - BLANK                  4D                                                     00 
00030010025000000          BALLOTS CAST - BLANK                                    BALLOTS CAST - BLANK                  4E                                                     00 
00030010026000000          BALLOTS CAST - BLANK                                    BALLOTS CAST - BLANK                  4F                                                     00 
00040010001002001REP       US Representative, Dist 4                               REP Pat Fallon                        1                                                      01 
00040010002001035REP       US Representative, Dist 4                               REP Pat Fallon                        1A                                                     01 
00040010003002129REP       US Representative, Dist 4                               REP Pat Fallon                        1B                                                     01 
00040010004001889REP       US Representative, Dist 4                               REP Pat Fallon                        1C                                                     01 
00040010005000239REP       US Representative, Dist 4                               REP Pat Fallon                        1D                                                     01 
00040010006001261REP       US Representative, Dist 4                               REP Pat Fallon                        1E                                                     01 
00040010007001714REP       US Representative, Dist 4                               REP Pat Fallon                        2                                                      01 
00040010008001475REP       US Representative, Dist 4                               REP Pat Fallon                        2A                                                     01 
00040010009000617REP       US Representative, Dist 4                               REP Pat Fallon                        2B                                                     01 
00040010010000821REP       US Representative, Dist 4                               REP Pat Fallon                        2C                                                     01 
00040010011000628REP       US Representative, Dist 4                               REP Pat Fallon                        2D                                                     01 
00040010012000596REP       US Representative, Dist 4                               REP Pat Fallon                        2E                                                     01 
00040010013000332REP       US Representative, Dist 4                               REP Pat Fallon                        2F                                                     01 
00040010014000671REP       US Representative, Dist 4                               REP Pat Fallon                        3                                                      01 
00040010015001562REP       US Representative, Dist 4                               REP Pat Fallon                        3A                                                     01 
00040010016001645REP       US Representative, Dist 4                               REP Pat Fallon                        3B                                                     01 
00040010017001897REP       US Representative, Dist 4                               REP Pat Fallon                        3C                                                     01 
00040010018002154REP       US Representative, Dist 4                               REP Pat Fallon                        3D                                                     01 
00040010019001452REP       US Representative, Dist 4                               REP Pat Fallon                        3E                                                     01 
00040010020000693REP       US Representative, Dist 4                               REP Pat Fallon                        4                                                      01 
00040010021001383REP       US Representative, Dist 4                               REP Pat Fallon                        4A                                                     01 
00040010022001132REP       US Representative, Dist 4                               REP Pat Fallon                        4B                                                     01 
00040010023001126REP       US Representative, Dist 4                               REP Pat Fallon                        4C                                                     01 
00040010024000900REP       US Representative, Dist 4                               REP Pat Fallon                        4D                                                     01 
00040010025000829REP       US Representative, Dist 4                               REP Pat Fallon                        4E                                                     01 
00040010026000210REP       US Representative, Dist 4                               REP Pat Fallon                        4F                                                     01 
00040020001000751DEM       US Representative, Dist 4                               DEM Iro Omere                         1                                                      01 
00040020002000496DEM       US Representative, Dist 4                               DEM Iro Omere                         1A                                                     01 
00040020003000680DEM       US Representative, Dist 4                               DEM Iro Omere                         1B                                                     01 
00040020004000611DEM       US Representative, Dist 4                               DEM Iro Omere                         1C                                                     01 
00040020005000147DEM       US Representative, Dist 4                               DEM Iro Omere                         1D                                                     01 
00040020006000327DEM       US Representative, Dist 4                               DEM Iro Omere                         1E                                                     01 
00040020007000662DEM       US Representative, Dist 4                               DEM Iro Omere                         2                                                      01 
00040020008000538DEM       US Representative, Dist 4                               DEM Iro Omere                         2A                                                     01 
00040020009000351DEM       US Representative, Dist 4                               DEM Iro Omere                         2B                                                     01 
00040020010000193DEM       US Representative, Dist 4                               DEM Iro Omere                         2C                                                     01 
00040020011000498DEM       US Representative, Dist 4                               DEM Iro Omere                         2D                                                     01 
00040020012000489DEM       US Representative, Dist 4                               DEM Iro Omere                         2E                                                     01 
00040020013000166DEM       US Representative, Dist 4                               DEM Iro Omere                         2F                                                     01 
00040020014000293DEM       US Representative, Dist 4                               DEM Iro Omere                         3                                                      01 
00040020015000339DEM       US Representative, Dist 4                               DEM Iro Omere                         3A                                                     01 
00040020016000513DEM       US Representative, Dist 4                               DEM Iro Omere                         3B                                                     01 
00040020017000383DEM       US Representative, Dist 4                               DEM Iro Omere                         3C                                                     01 
00040020018000559DEM       US Representative, Dist 4                               DEM Iro Omere                         3D                                                     01 
00040020019000414DEM       US Representative, Dist 4                               DEM Iro Omere                         3E                                                     01 
00040020020000241DEM       US Representative, Dist 4                               DEM Iro Omere                         4                                                      01 
00040020021000701DEM       US Representative, Dist 4                               DEM Iro Omere                         4A                                                     01 
00040020022000479DEM       US Representative, Dist 4                               DEM Iro Omere                         4B                                                     01 
00040020023000350DEM       US Representative, Dist 4                               DEM Iro Omere                         4C                                                     01 
00040020024000451DEM       US Representative, Dist 4                               DEM Iro Omere                         4D                                                     01 
00040020025000355DEM       US Representative, Dist 4                               DEM Iro Omere                         4E                                                     01 
00040020026000044DEM       US Representative, Dist 4                               DEM Iro Omere                         4F                                                     01 
00040030001000069LIB       US Representative, Dist 4                               LIB John Simmons                      1                                                      01 
00040030002000049LIB       US Representative, Dist 4                               LIB John Simmons                      1A                                                     01 
00040030003000077LIB       US Representative, Dist 4                               LIB John Simmons                      1B                                                     01 
00040030004000074LIB       US Representative, Dist 4                               LIB John Simmons                      1C                                                     01 
00040030005000012LIB       US Representative, Dist 4                               LIB John Simmons                      1D                                                     01 
00040030006000030LIB       US Representative, Dist 4                               LIB John Simmons                      1E                                                     01 
00040030007000082LIB       US Representative, Dist 4                               LIB John Simmons                      2                                                      01 
00040030008000054LIB       US Representative, Dist 4                               LIB John Simmons                      2A                                                     01 
00040030009000031LIB       US Representative, Dist 4                               LIB John Simmons                      2B                                                     01 
00040030010000023LIB       US Representative, Dist 4                               LIB John Simmons                      2C                                                     01 
00040030011000041LIB       US Representative, Dist 4                               LIB John Simmons                      2D                                                     01 
00040030012000037LIB       US Representative, Dist 4                               LIB John Simmons                      2E                                                     01 
00040030013000010LIB       US Representative, Dist 4                               LIB John Simmons                      2F                                                     01 
00040030014000027LIB       US Representative, Dist 4                               LIB John Simmons                      3                                                      01 
00040030015000037LIB       US Representative, Dist 4                               LIB John Simmons                      3A                                                     01 
00040030016000052LIB       US Representative, Dist 4                               LIB John Simmons                      3B                                                     01 
00040030017000039LIB       US Representative, Dist 4                               LIB John Simmons                      3C                                                     01 
00040030018000055LIB       US Representative, Dist 4                               LIB John Simmons                      3D                                                     01 
00040030019000047LIB       US Representative, Dist 4                               LIB John Simmons                      3E                                                     01 
00040030020000039LIB       US Representative, Dist 4                               LIB John Simmons                      4                                                      01 
00040030021000065LIB       US Representative, Dist 4                               LIB John Simmons                      4A                                                     01 
00040030022000054LIB       US Representative, Dist 4                               LIB John Simmons                      4B                                                     01 
00040030023000049LIB       US Representative, Dist 4                               LIB John Simmons                      4C                                                     01 
00040030024000033LIB       US Representative, Dist 4                               LIB John Simmons                      4D                                                     01 
00040030025000033LIB       US Representative, Dist 4                               LIB John Simmons                      4E                                                     01 
00040030026000013LIB       US Representative, Dist 4                               LIB John Simmons                      4F                                                     01 
00050010001001975REP       Governor                                                REP Greg Abbott                       1                                                      01 
00050010002001021REP       Governor                                                REP Greg Abbott                       1A                                                     01 
00050010003002085REP       Governor                                                REP Greg Abbott                       1B                                                     01 
00050010004001869REP       Governor                                                REP Greg Abbott                       1C                                                     01 
00050010005000239REP       Governor                                                REP Greg Abbott                       1D                                                     01 
00050010006001260REP       Governor                                                REP Greg Abbott                       1E                                                     01 
00050010007001697REP       Governor                                                REP Greg Abbott                       2                                                      01 
00050010008001461REP       Governor                                                REP Greg Abbott                       2A                                                     01 
00050010009000616REP       Governor                                                REP Greg Abbott                       2B                                                     01 
00050010010000831REP       Governor                                                REP Greg Abbott                       2C                                                     01 
00050010011000621REP       Governor                                                REP Greg Abbott                       2D                                                     01 
00050010012000589REP       Governor                                                REP Greg Abbott                       2E                                                     01 
00050010013000340REP       Governor                                                REP Greg Abbott                       2F                                                     01 
00050010014000669REP       Governor                                                REP Greg Abbott                       3                                                      01 
00050010015001551REP       Governor                                                REP Greg Abbott                       3A                                                     01 
00050010016001650REP       Governor                                                REP Greg Abbott                       3B                                                     01 
00050010017001889REP       Governor                                                REP Greg Abbott                       3C                                                     01 
00050010018002144REP       Governor                                                REP Greg Abbott                       3D                                                     01 
00050010019001438REP       Governor                                                REP Greg Abbott                       3E                                                     01 
00050010020000696REP       Governor                                                REP Greg Abbott                       4                                                      01 
00050010021001383REP       Governor                                                REP Greg Abbott                       4A                                                     01 
00050010022001128REP       Governor                                                REP Greg Abbott                       4B                                                     01 
00050010023001127REP       Governor                                                REP Greg Abbott                       4C                                                     01 
00050010024000905REP       Governor                                                REP Greg Abbott                       4D                                                     01 
00050010025000816REP       Governor                                                REP Greg Abbott                       4E                                                     01 
00050010026000211REP       Governor                                                REP Greg Abbott                       4F                                                     01 
00050020001000824DEM       Governor                                                DEM Beto O'Rourke                     1                                                      01 
00050020002000544DEM       Governor                                                DEM Beto O'Rourke                     1A                                                     01 
00050020003000767DEM       Governor                                                DEM Beto O'Rourke                     1B                                                     01 
00050020004000687DEM       Governor                                                DEM Beto O'Rourke                     1C                                                     01 
00050020005000153DEM       Governor                                                DEM Beto O'Rourke                     1D                                                     01 
00050020006000355DEM       Governor                                                DEM Beto O'Rourke                     1E                                                     01 
00050020007000753DEM       Governor                                                DEM Beto O'Rourke                     2                                                      01 
00050020008000587DEM       Governor                                                DEM Beto O'Rourke                     2A                                                     01 
00050020009000373DEM       Governor                                                DEM Beto O'Rourke                     2B                                                     01 
00050020010000211DEM       Governor                                                DEM Beto O'Rourke                     2C                                                     01 
00050020011000537DEM       Governor                                                DEM Beto O'Rourke                     2D                                                     01 
00050020012000525DEM       Governor                                                DEM Beto O'Rourke                     2E                                                     01 
00050020013000165DEM       Governor                                                DEM Beto O'Rourke                     2F                                                     01 
00050020014000331DEM       Governor                                                DEM Beto O'Rourke                     3                                                      01 
00050020015000377DEM       Governor                                                DEM Beto O'Rourke                     3A                                                     01 
00050020016000566DEM       Governor                                                DEM Beto O'Rourke                     3B                                                     01 
00050020017000432DEM       Governor                                                DEM Beto O'Rourke                     3C                                                     01 
00050020018000611DEM       Governor                                                DEM Beto O'Rourke                     3D                                                     01 
00050020019000472DEM       Governor                                                DEM Beto O'Rourke                     3E                                                     01 
00050020020000276DEM       Governor                                                DEM Beto O'Rourke                     4                                                      01 
00050020021000754DEM       Governor                                                DEM Beto O'Rourke                     4A                                                     01 
00050020022000524DEM       Governor                                                DEM Beto O'Rourke                     4B                                                     01 
00050020023000395DEM       Governor                                                DEM Beto O'Rourke                     4C                                                     01 
00050020024000475DEM       Governor                                                DEM Beto O'Rourke                     4D                                                     01 
00050020025000387DEM       Governor                                                DEM Beto O'Rourke                     4E                                                     01 
00050020026000051DEM       Governor                                                DEM Beto O'Rourke                     4F                                                     01 
00050030001000024LIB       Governor                                                LIB Mark Tippetts                     1                                                      01 
00050030002000019LIB       Governor                                                LIB Mark Tippetts                     1A                                                     01 
00050030003000032LIB       Governor                                                LIB Mark Tippetts                     1B                                                     01 
00050030004000022LIB       Governor                                                LIB Mark Tippetts                     1C                                                     01 
00050030005000008LIB       Governor                                                LIB Mark Tippetts                     1D                                                     01 
00050030006000014LIB       Governor                                                LIB Mark Tippetts                     1E                                                     01 
00050030007000036LIB       Governor                                                LIB Mark Tippetts                     2                                                      01 
00050030008000024LIB       Governor                                                LIB Mark Tippetts                     2A                                                     01 
00050030009000013LIB       Governor                                                LIB Mark Tippetts                     2B                                                     01 
00050030010000007LIB       Governor                                                LIB Mark Tippetts                     2C                                                     01 
00050030011000014LIB       Governor                                                LIB Mark Tippetts                     2D                                                     01 
00050030012000010LIB       Governor                                                LIB Mark Tippetts                     2E                                                     01 
00050030013000008LIB       Governor                                                LIB Mark Tippetts                     2F                                                     01 
00050030014000010LIB       Governor                                                LIB Mark Tippetts                     3                                                      01 
00050030015000012LIB       Governor                                                LIB Mark Tippetts                     3A                                                     01 
00050030016000021LIB       Governor                                                LIB Mark Tippetts                     3B                                                     01 
00050030017000012LIB       Governor                                                LIB Mark Tippetts                     3C                                                     01 
00050030018000028LIB       Governor                                                LIB Mark Tippetts                     3D                                                     01 
00050030019000022LIB       Governor                                                LIB Mark Tippetts                     3E                                                     01 
00050030020000010LIB       Governor                                                LIB Mark Tippetts                     4                                                      01 
00050030021000022LIB       Governor                                                LIB Mark Tippetts                     4A                                                     01 
00050030022000024LIB       Governor                                                LIB Mark Tippetts                     4B                                                     01 
00050030023000023LIB       Governor                                                LIB Mark Tippetts                     4C                                                     01 
00050030024000013LIB       Governor                                                LIB Mark Tippetts                     4D                                                     01 
00050030025000014LIB       Governor                                                LIB Mark Tippetts                     4E                                                     01 
00050030026000005LIB       Governor                                                LIB Mark Tippetts                     4F                                                     01 
00050040001000005GRN       Governor                                                GRN Delilah Barrios                   1                                                      01 
00050040002000003GRN       Governor                                                GRN Delilah Barrios                   1A                                                     01 
00050040003000006GRN       Governor                                                GRN Delilah Barrios                   1B                                                     01 
00050040004000002GRN       Governor                                                GRN Delilah Barrios                   1C                                                     01 
00050040005000000GRN       Governor                                                GRN Delilah Barrios                   1D                                                     01 
00050040006000000GRN       Governor                                                GRN Delilah Barrios                   1E                                                     01 
00050040007000002GRN       Governor                                                GRN Delilah Barrios                   2                                                      01 
00050040008000005GRN       Governor                                                GRN Delilah Barrios                   2A                                                     01 
00050040009000003GRN       Governor                                                GRN Delilah Barrios                   2B                                                     01 
00050040010000001GRN       Governor                                                GRN Delilah Barrios                   2C                                                     01 
00050040011000003GRN       Governor                                                GRN Delilah Barrios                   2D                                                     01 
00050040012000005GRN       Governor                                                GRN Delilah Barrios                   2E                                                     01 
00050040013000003GRN       Governor                                                GRN Delilah Barrios                   2F                                                     01 
00050040014000004GRN       Governor                                                GRN Delilah Barrios                   3                                                      01 
00050040015000001GRN       Governor                                                GRN Delilah Barrios                   3A                                                     01 
00050040016000005GRN       Governor                                                GRN Delilah Barrios                   3B                                                     01 
00050040017000002GRN       Governor                                                GRN Delilah Barrios                   3C                                                     01 
00050040018000005GRN       Governor                                                GRN Delilah Barrios                   3D                                                     01 
00050040019000002GRN       Governor                                                GRN Delilah Barrios                   3E                                                     01 
00050040020000002GRN       Governor                                                GRN Delilah Barrios                   4                                                      01 
00050040021000006GRN       Governor                                                GRN Delilah Barrios                   4A                                                     01 
00050040022000005GRN       Governor                                                GRN Delilah Barrios                   4B                                                     01 
00050040023000003GRN       Governor                                                GRN Delilah Barrios                   4C                                                     01 
00050040024000005GRN       Governor                                                GRN Delilah Barrios                   4D                                                     01 
00050040025000002GRN       Governor                                                GRN Delilah Barrios                   4E                                                     01 
00050040026000001GRN       Governor                                                GRN Delilah Barrios                   4F                                                     01 
00050060001000004NON       Governor                                                Write-in                              1                                                      01 
00050060002000003NON       Governor                                                Write-in                              1A                                                     01 
00050060003000006NON       Governor                                                Write-in                              1B                                                     01 
00050060004000005NON       Governor                                                Write-in                              1C                                                     01 
00050060005000001NON       Governor                                                Write-in                              1D                                                     01 
00050060006000001NON       Governor                                                Write-in                              1E                                                     01 
00050060007000001NON       Governor                                                Write-in                              2                                                      01 
00050060008000002NON       Governor                                                Write-in                              2A                                                     01 
00050060009000000NON       Governor                                                Write-in                              2B                                                     01 
00050060010000000NON       Governor                                                Write-in                              2C                                                     01 
00050060011000001NON       Governor                                                Write-in                              2D                                                     01 
00050060012000001NON       Governor                                                Write-in                              2E                                                     01 
00050060013000000NON       Governor                                                Write-in                              2F                                                     01 
00050060014000001NON       Governor                                                Write-in                              3                                                      01 
00050060015000002NON       Governor                                                Write-in                              3A                                                     01 
00050060016000002NON       Governor                                                Write-in                              3B                                                     01 
00050060017000003NON       Governor                                                Write-in                              3C                                                     01 
00050060018000000NON       Governor                                                Write-in                              3D                                                     01 
00050060019000000NON       Governor                                                Write-in                              3E                                                     01 
00050060020000000NON       Governor                                                Write-in                              4                                                      01 
00050060021000003NON       Governor                                                Write-in                              4A                                                     01 
00050060022000002NON       Governor                                                Write-in                              4B                                                     01 
00050060023000000NON       Governor                                                Write-in                              4C                                                     01 
00050060024000000NON       Governor                                                Write-in                              4D                                                     01 
00050060025000002NON       Governor                                                Write-in                              4E                                                     01 
00050060026000000NON       Governor                                                Write-in                              4F                                                     01 
00060010001001913REP       Lieutenant Governor                                     REP Dan Patrick                       1                                                      01 
00060010002001000REP       Lieutenant Governor                                     REP Dan Patrick                       1A                                                     01 
00060010003002039REP       Lieutenant Governor                                     REP Dan Patrick                       1B                                                     01 
00060010004001810REP       Lieutenant Governor                                     REP Dan Patrick                       1C                                                     01 
00060010005000230REP       Lieutenant Governor                                     REP Dan Patrick                       1D                                                     01 
00060010006001232REP       Lieutenant Governor                                     REP Dan Patrick                       1E                                                     01 
00060010007001633REP       Lieutenant Governor                                     REP Dan Patrick                       2                                                      01 
00060010008001405REP       Lieutenant Governor                                     REP Dan Patrick                       2A                                                     01 
00060010009000601REP       Lieutenant Governor                                     REP Dan Patrick                       2B                                                     01 
00060010010000801REP       Lieutenant Governor                                     REP Dan Patrick                       2C                                                     01 
00060010011000601REP       Lieutenant Governor                                     REP Dan Patrick                       2D                                                     01 
00060010012000580REP       Lieutenant Governor                                     REP Dan Patrick                       2E                                                     01 
00060010013000326REP       Lieutenant Governor                                     REP Dan Patrick                       2F                                                     01 
00060010014000659REP       Lieutenant Governor                                     REP Dan Patrick                       3                                                      01 
00060010015001497REP       Lieutenant Governor                                     REP Dan Patrick                       3A                                                     01 
00060010016001608REP       Lieutenant Governor                                     REP Dan Patrick                       3B                                                     01 
00060010017001833REP       Lieutenant Governor                                     REP Dan Patrick                       3C                                                     01 
00060010018002091REP       Lieutenant Governor                                     REP Dan Patrick                       3D                                                     01 
00060010019001375REP       Lieutenant Governor                                     REP Dan Patrick                       3E                                                     01 
00060010020000686REP       Lieutenant Governor                                     REP Dan Patrick                       4                                                      01 
00060010021001345REP       Lieutenant Governor                                     REP Dan Patrick                       4A                                                     01 
00060010022001110REP       Lieutenant Governor                                     REP Dan Patrick                       4B                                                     01 
00060010023001112REP       Lieutenant Governor                                     REP Dan Patrick                       4C                                                     01 
00060010024000888REP       Lieutenant Governor                                     REP Dan Patrick                       4D                                                     01 
00060010025000805REP       Lieutenant Governor                                     REP Dan Patrick                       4E                                                     01 
00060010026000208REP       Lieutenant Governor                                     REP Dan Patrick                       4F                                                     01 
00060020001000853DEM       Lieutenant Governor                                     DEM Mike Collier                      1                                                      01 
00060020002000548DEM       Lieutenant Governor                                     DEM Mike Collier                      1A                                                     01 
00060020003000783DEM       Lieutenant Governor                                     DEM Mike Collier                      1B                                                     01 
00060020004000701DEM       Lieutenant Governor                                     DEM Mike Collier                      1C                                                     01 
00060020005000160DEM       Lieutenant Governor                                     DEM Mike Collier                      1D                                                     01 
00060020006000375DEM       Lieutenant Governor                                     DEM Mike Collier                      1E                                                     01 
00060020007000795DEM       Lieutenant Governor                                     DEM Mike Collier                      2                                                      01 
00060020008000621DEM       Lieutenant Governor                                     DEM Mike Collier                      2A                                                     01 
00060020009000376DEM       Lieutenant Governor                                     DEM Mike Collier                      2B                                                     01 
00060020010000228DEM       Lieutenant Governor                                     DEM Mike Collier                      2C                                                     01 
00060020011000533DEM       Lieutenant Governor                                     DEM Mike Collier                      2D                                                     01 
00060020012000516DEM       Lieutenant Governor                                     DEM Mike Collier                      2E                                                     01 
00060020013000167DEM       Lieutenant Governor                                     DEM Mike Collier                      2F                                                     01 
00060020014000325DEM       Lieutenant Governor                                     DEM Mike Collier                      3                                                      01 
00060020015000404DEM       Lieutenant Governor                                     DEM Mike Collier                      3A                                                     01 
00060020016000581DEM       Lieutenant Governor                                     DEM Mike Collier                      3B                                                     01 
00060020017000464DEM       Lieutenant Governor                                     DEM Mike Collier                      3C                                                     01 
00060020018000637DEM       Lieutenant Governor                                     DEM Mike Collier                      3D                                                     01 
00060020019000511DEM       Lieutenant Governor                                     DEM Mike Collier                      3E                                                     01 
00060020020000274DEM       Lieutenant Governor                                     DEM Mike Collier                      4                                                      01 
00060020021000751DEM       Lieutenant Governor                                     DEM Mike Collier                      4A                                                     01 
00060020022000516DEM       Lieutenant Governor                                     DEM Mike Collier                      4B                                                     01 
00060020023000397DEM       Lieutenant Governor                                     DEM Mike Collier                      4C                                                     01 
00060020024000478DEM       Lieutenant Governor                                     DEM Mike Collier                      4D                                                     01 
00060020025000378DEM       Lieutenant Governor                                     DEM Mike Collier                      4E                                                     01 
00060020026000049DEM       Lieutenant Governor                                     DEM Mike Collier                      4F                                                     01 
00060030001000063LIB       Lieutenant Governor                                     LIB Shanna Steele                     1                                                      01 
00060030002000045LIB       Lieutenant Governor                                     LIB Shanna Steele                     1A                                                     01 
00060030003000073LIB       Lieutenant Governor                                     LIB Shanna Steele                     1B                                                     01 
00060030004000070LIB       Lieutenant Governor                                     LIB Shanna Steele                     1C                                                     01 
00060030005000011LIB       Lieutenant Governor                                     LIB Shanna Steele                     1D                                                     01 
00060030006000023LIB       Lieutenant Governor                                     LIB Shanna Steele                     1E                                                     01 
00060030007000062LIB       Lieutenant Governor                                     LIB Shanna Steele                     2                                                      01 
00060030008000047LIB       Lieutenant Governor                                     LIB Shanna Steele                     2A                                                     01 
00060030009000027LIB       Lieutenant Governor                                     LIB Shanna Steele                     2B                                                     01 
00060030010000020LIB       Lieutenant Governor                                     LIB Shanna Steele                     2C                                                     01 
00060030011000038LIB       Lieutenant Governor                                     LIB Shanna Steele                     2D                                                     01 
00060030012000032LIB       Lieutenant Governor                                     LIB Shanna Steele                     2E                                                     01 
00060030013000020LIB       Lieutenant Governor                                     LIB Shanna Steele                     2F                                                     01 
00060030014000029LIB       Lieutenant Governor                                     LIB Shanna Steele                     3                                                      01 
00060030015000039LIB       Lieutenant Governor                                     LIB Shanna Steele                     3A                                                     01 
00060030016000052LIB       Lieutenant Governor                                     LIB Shanna Steele                     3B                                                     01 
00060030017000037LIB       Lieutenant Governor                                     LIB Shanna Steele                     3C                                                     01 
00060030018000054LIB       Lieutenant Governor                                     LIB Shanna Steele                     3D                                                     01 
00060030019000046LIB       Lieutenant Governor                                     LIB Shanna Steele                     3E                                                     01 
00060030020000025LIB       Lieutenant Governor                                     LIB Shanna Steele                     4                                                      01 
00060030021000067LIB       Lieutenant Governor                                     LIB Shanna Steele                     4A                                                     01 
00060030022000057LIB       Lieutenant Governor                                     LIB Shanna Steele                     4B                                                     01 
00060030023000036LIB       Lieutenant Governor                                     LIB Shanna Steele                     4C                                                     01 
00060030024000029LIB       Lieutenant Governor                                     LIB Shanna Steele                     4D                                                     01 
00060030025000036LIB       Lieutenant Governor                                     LIB Shanna Steele                     4E                                                     01 
00060030026000010LIB       Lieutenant Governor                                     LIB Shanna Steele                     4F                                                     01 
00070010001001896REP       Attorney General                                        REP Ken Paxton                        1                                                      01 
00070010002000982REP       Attorney General                                        REP Ken Paxton                        1A                                                     01 
00070010003002037REP       Attorney General                                        REP Ken Paxton                        1B                                                     01 
00070010004001783REP       Attorney General                                        REP Ken Paxton                        1C                                                     01 
00070010005000226REP       Attorney General                                        REP Ken Paxton                        1D                                                     01 
00070010006001224REP       Attorney General                                        REP Ken Paxton                        1E                                                     01 
00070010007001609REP       Attorney General                                        REP Ken Paxton                        2                                                      01 
00070010008001389REP       Attorney General                                        REP Ken Paxton                        2A                                                     01 
00070010009000600REP       Attorney General                                        REP Ken Paxton                        2B                                                     01 
00070010010000787REP       Attorney General                                        REP Ken Paxton                        2C                                                     01 
00070010011000603REP       Attorney General                                        REP Ken Paxton                        2D                                                     01 
00070010012000576REP       Attorney General                                        REP Ken Paxton                        2E                                                     01 
00070010013000327REP       Attorney General                                        REP Ken Paxton                        2F                                                     01 
00070010014000645REP       Attorney General                                        REP Ken Paxton                        3                                                      01 
00070010015001511REP       Attorney General                                        REP Ken Paxton                        3A                                                     01 
00070010016001598REP       Attorney General                                        REP Ken Paxton                        3B                                                     01 
00070010017001794REP       Attorney General                                        REP Ken Paxton                        3C                                                     01 
00070010018002072REP       Attorney General                                        REP Ken Paxton                        3D                                                     01 
00070010019001362REP       Attorney General                                        REP Ken Paxton                        3E                                                     01 
00070010020000672REP       Attorney General                                        REP Ken Paxton                        4                                                      01 
00070010021001346REP       Attorney General                                        REP Ken Paxton                        4A                                                     01 
00070010022001097REP       Attorney General                                        REP Ken Paxton                        4B                                                     01 
00070010023001103REP       Attorney General                                        REP Ken Paxton                        4C                                                     01 
00070010024000876REP       Attorney General                                        REP Ken Paxton                        4D                                                     01 
00070010025000797REP       Attorney General                                        REP Ken Paxton                        4E                                                     01 
00070010026000206REP       Attorney General                                        REP Ken Paxton                        4F                                                     01 
00070020001000840DEM       Attorney General                                        DEM Rochelle Mercedes Garza           1                                                      01 
00070020002000533DEM       Attorney General                                        DEM Rochelle Mercedes Garza           1A                                                     01 
00070020003000756DEM       Attorney General                                        DEM Rochelle Mercedes Garza           1B                                                     01 
00070020004000673DEM       Attorney General                                        DEM Rochelle Mercedes Garza           1C                                                     01 
00070020005000151DEM       Attorney General                                        DEM Rochelle Mercedes Garza           1D                                                     01 
00070020006000358DEM       Attorney General                                        DEM Rochelle Mercedes Garza           1E                                                     01 
00070020007000763DEM       Attorney General                                        DEM Rochelle Mercedes Garza           2                                                      01 
00070020008000611DEM       Attorney General                                        DEM Rochelle Mercedes Garza           2A                                                     01 
00070020009000362DEM       Attorney General                                        DEM Rochelle Mercedes Garza           2B                                                     01 
00070020010000218DEM       Attorney General                                        DEM Rochelle Mercedes Garza           2C                                                     01 
00070020011000535DEM       Attorney General                                        DEM Rochelle Mercedes Garza           2D                                                     01 
00070020012000524DEM       Attorney General                                        DEM Rochelle Mercedes Garza           2E                                                     01 
00070020013000169DEM       Attorney General                                        DEM Rochelle Mercedes Garza           2F                                                     01 
00070020014000328DEM       Attorney General                                        DEM Rochelle Mercedes Garza           3                                                      01 
00070020015000371DEM       Attorney General                                        DEM Rochelle Mercedes Garza           3A                                                     01 
00070020016000556DEM       Attorney General                                        DEM Rochelle Mercedes Garza           3B                                                     01 
00070020017000443DEM       Attorney General                                        DEM Rochelle Mercedes Garza           3C                                                     01 
00070020018000618DEM       Attorney General                                        DEM Rochelle Mercedes Garza           3D                                                     01 
00070020019000489DEM       Attorney General                                        DEM Rochelle Mercedes Garza           3E                                                     01 
00070020020000280DEM       Attorney General                                        DEM Rochelle Mercedes Garza           4                                                      01 
00070020021000743DEM       Attorney General                                        DEM Rochelle Mercedes Garza           4A                                                     01 
00070020022000523DEM       Attorney General                                        DEM Rochelle Mercedes Garza           4B                                                     01 
00070020023000391DEM       Attorney General                                        DEM Rochelle Mercedes Garza           4C                                                     01 
00070020024000477DEM       Attorney General                                        DEM Rochelle Mercedes Garza           4D                                                     01 
00070020025000384DEM       Attorney General                                        DEM Rochelle Mercedes Garza           4E                                                     01 
00070020026000051DEM       Attorney General                                        DEM Rochelle Mercedes Garza           4F                                                     01 
00070030001000082LIB       Attorney General                                        LIB Mark Ash                          1                                                      01 
00070030002000070LIB       Attorney General                                        LIB Mark Ash                          1A                                                     01 
00070030003000097LIB       Attorney General                                        LIB Mark Ash                          1B                                                     01 
00070030004000118LIB       Attorney General                                        LIB Mark Ash                          1C                                                     01 
00070030005000024LIB       Attorney General                                        LIB Mark Ash                          1D                                                     01 
00070030006000044LIB       Attorney General                                        LIB Mark Ash                          1E                                                     01 
00070030007000107LIB       Attorney General                                        LIB Mark Ash                          2                                                      01 
00070030008000069LIB       Attorney General                                        LIB Mark Ash                          2A                                                     01 
00070030009000041LIB       Attorney General                                        LIB Mark Ash                          2B                                                     01 
00070030010000042LIB       Attorney General                                        LIB Mark Ash                          2C                                                     01 
00070030011000035LIB       Attorney General                                        LIB Mark Ash                          2D                                                     01 
00070030012000027LIB       Attorney General                                        LIB Mark Ash                          2E                                                     01 
00070030013000017LIB       Attorney General                                        LIB Mark Ash                          2F                                                     01 
00070030014000039LIB       Attorney General                                        LIB Mark Ash                          3                                                      01 
00070030015000058LIB       Attorney General                                        LIB Mark Ash                          3A                                                     01 
00070030016000078LIB       Attorney General                                        LIB Mark Ash                          3B                                                     01 
00070030017000082LIB       Attorney General                                        LIB Mark Ash                          3C                                                     01 
00070030018000085LIB       Attorney General                                        LIB Mark Ash                          3D                                                     01 
00070030019000069LIB       Attorney General                                        LIB Mark Ash                          3E                                                     01 
00070030020000034LIB       Attorney General                                        LIB Mark Ash                          4                                                      01 
00070030021000076LIB       Attorney General                                        LIB Mark Ash                          4A                                                     01 
00070030022000057LIB       Attorney General                                        LIB Mark Ash                          4B                                                     01 
00070030023000052LIB       Attorney General                                        LIB Mark Ash                          4C                                                     01 
00070030024000039LIB       Attorney General                                        LIB Mark Ash                          4D                                                     01 
00070030025000035LIB       Attorney General                                        LIB Mark Ash                          4E                                                     01 
00070030026000010LIB       Attorney General                                        LIB Mark Ash                          4F                                                     01 
00080010001002042REP       Comptroller of Public Accounts                          REP Glenn Hegar                       1                                                      01 
00080010002001066REP       Comptroller of Public Accounts                          REP Glenn Hegar                       1A                                                     01 
00080010003002167REP       Comptroller of Public Accounts                          REP Glenn Hegar                       1B                                                     01 
00080010004001929REP       Comptroller of Public Accounts                          REP Glenn Hegar                       1C                                                     01 
00080010005000240REP       Comptroller of Public Accounts                          REP Glenn Hegar                       1D                                                     01 
00080010006001296REP       Comptroller of Public Accounts                          REP Glenn Hegar                       1E                                                     01 
00080010007001767REP       Comptroller of Public Accounts                          REP Glenn Hegar                       2                                                      01 
00080010008001492REP       Comptroller of Public Accounts                          REP Glenn Hegar                       2A                                                     01 
00080010009000622REP       Comptroller of Public Accounts                          REP Glenn Hegar                       2B                                                     01 
00080010010000845REP       Comptroller of Public Accounts                          REP Glenn Hegar                       2C                                                     01 
00080010011000641REP       Comptroller of Public Accounts                          REP Glenn Hegar                       2D                                                     01 
00080010012000612REP       Comptroller of Public Accounts                          REP Glenn Hegar                       2E                                                     01 
00080010013000340REP       Comptroller of Public Accounts                          REP Glenn Hegar                       2F                                                     01 
00080010014000696REP       Comptroller of Public Accounts                          REP Glenn Hegar                       3                                                      01 
00080010015001560REP       Comptroller of Public Accounts                          REP Glenn Hegar                       3A                                                     01 
00080010016001679REP       Comptroller of Public Accounts                          REP Glenn Hegar                       3B                                                     01 
00080010017001936REP       Comptroller of Public Accounts                          REP Glenn Hegar                       3C                                                     01 
00080010018002187REP       Comptroller of Public Accounts                          REP Glenn Hegar                       3D                                                     01 
00080010019001473REP       Comptroller of Public Accounts                          REP Glenn Hegar                       3E                                                     01 
00080010020000705REP       Comptroller of Public Accounts                          REP Glenn Hegar                       4                                                      01 
00080010021001395REP       Comptroller of Public Accounts                          REP Glenn Hegar                       4A                                                     01 
00080010022001145REP       Comptroller of Public Accounts                          REP Glenn Hegar                       4B                                                     01 
00080010023001140REP       Comptroller of Public Accounts                          REP Glenn Hegar                       4C                                                     01 
00080010024000919REP       Comptroller of Public Accounts                          REP Glenn Hegar                       4D                                                     01 
00080010025000824REP       Comptroller of Public Accounts                          REP Glenn Hegar                       4E                                                     01 
00080010026000213REP       Comptroller of Public Accounts                          REP Glenn Hegar                       4F                                                     01 
00080020001000741DEM       Comptroller of Public Accounts                          DEM Janet T. Dudding                  1                                                      01 
00080020002000495DEM       Comptroller of Public Accounts                          DEM Janet T. Dudding                  1A                                                     01 
00080020003000655DEM       Comptroller of Public Accounts                          DEM Janet T. Dudding                  1B                                                     01 
00080020004000606DEM       Comptroller of Public Accounts                          DEM Janet T. Dudding                  1C                                                     01 
00080020005000146DEM       Comptroller of Public Accounts                          DEM Janet T. Dudding                  1D                                                     01 
00080020006000313DEM       Comptroller of Public Accounts                          DEM Janet T. Dudding                  1E                                                     01 
00080020007000666DEM       Comptroller of Public Accounts                          DEM Janet T. Dudding                  2                                                      01 
00080020008000538DEM       Comptroller of Public Accounts                          DEM Janet T. Dudding                  2A                                                     01 
00080020009000359DEM       Comptroller of Public Accounts                          DEM Janet T. Dudding                  2B                                                     01 
00080020010000186DEM       Comptroller of Public Accounts                          DEM Janet T. Dudding                  2C                                                     01 
00080020011000493DEM       Comptroller of Public Accounts                          DEM Janet T. Dudding                  2D                                                     01 
00080020012000483DEM       Comptroller of Public Accounts                          DEM Janet T. Dudding                  2E                                                     01 
00080020013000159DEM       Comptroller of Public Accounts                          DEM Janet T. Dudding                  2F                                                     01 
00080020014000288DEM       Comptroller of Public Accounts                          DEM Janet T. Dudding                  3                                                      01 
00080020015000351DEM       Comptroller of Public Accounts                          DEM Janet T. Dudding                  3A                                                     01 
00080020016000509DEM       Comptroller of Public Accounts                          DEM Janet T. Dudding                  3B                                                     01 
00080020017000364DEM       Comptroller of Public Accounts                          DEM Janet T. Dudding                  3C                                                     01 
00080020018000541DEM       Comptroller of Public Accounts                          DEM Janet T. Dudding                  3D                                                     01 
00080020019000407DEM       Comptroller of Public Accounts                          DEM Janet T. Dudding                  3E                                                     01 
00080020020000249DEM       Comptroller of Public Accounts                          DEM Janet T. Dudding                  4                                                      01 
00080020021000706DEM       Comptroller of Public Accounts                          DEM Janet T. Dudding                  4A                                                     01 
00080020022000486DEM       Comptroller of Public Accounts                          DEM Janet T. Dudding                  4B                                                     01 
00080020023000361DEM       Comptroller of Public Accounts                          DEM Janet T. Dudding                  4C                                                     01 
00080020024000445DEM       Comptroller of Public Accounts                          DEM Janet T. Dudding                  4D                                                     01 
00080020025000355DEM       Comptroller of Public Accounts                          DEM Janet T. Dudding                  4E                                                     01 
00080020026000043DEM       Comptroller of Public Accounts                          DEM Janet T. Dudding                  4F                                                     01 
00080030001000040LIB       Comptroller of Public Accounts                          LIB V. Alonzo Echevarria-Garza        1                                                      01 
00080030002000028LIB       Comptroller of Public Accounts                          LIB V. Alonzo Echevarria-Garza        1A                                                     01 
00080030003000066LIB       Comptroller of Public Accounts                          LIB V. Alonzo Echevarria-Garza        1B                                                     01 
00080030004000043LIB       Comptroller of Public Accounts                          LIB V. Alonzo Echevarria-Garza        1C                                                     01 
00080030005000015LIB       Comptroller of Public Accounts                          LIB V. Alonzo Echevarria-Garza        1D                                                     01 
00080030006000019LIB       Comptroller of Public Accounts                          LIB V. Alonzo Echevarria-Garza        1E                                                     01 
00080030007000049LIB       Comptroller of Public Accounts                          LIB V. Alonzo Echevarria-Garza        2                                                      01 
00080030008000037LIB       Comptroller of Public Accounts                          LIB V. Alonzo Echevarria-Garza        2A                                                     01 
00080030009000023LIB       Comptroller of Public Accounts                          LIB V. Alonzo Echevarria-Garza        2B                                                     01 
00080030010000018LIB       Comptroller of Public Accounts                          LIB V. Alonzo Echevarria-Garza        2C                                                     01 
00080030011000037LIB       Comptroller of Public Accounts                          LIB V. Alonzo Echevarria-Garza        2D                                                     01 
00080030012000033LIB       Comptroller of Public Accounts                          LIB V. Alonzo Echevarria-Garza        2E                                                     01 
00080030013000013LIB       Comptroller of Public Accounts                          LIB V. Alonzo Echevarria-Garza        2F                                                     01 
00080030014000025LIB       Comptroller of Public Accounts                          LIB V. Alonzo Echevarria-Garza        3                                                      01 
00080030015000029LIB       Comptroller of Public Accounts                          LIB V. Alonzo Echevarria-Garza        3A                                                     01 
00080030016000048LIB       Comptroller of Public Accounts                          LIB V. Alonzo Echevarria-Garza        3B                                                     01 
00080030017000029LIB       Comptroller of Public Accounts                          LIB V. Alonzo Echevarria-Garza        3C                                                     01 
00080030018000050LIB       Comptroller of Public Accounts                          LIB V. Alonzo Echevarria-Garza        3D                                                     01 
00080030019000045LIB       Comptroller of Public Accounts                          LIB V. Alonzo Echevarria-Garza        3E                                                     01 
00080030020000029LIB       Comptroller of Public Accounts                          LIB V. Alonzo Echevarria-Garza        4                                                      01 
00080030021000062LIB       Comptroller of Public Accounts                          LIB V. Alonzo Echevarria-Garza        4A                                                     01 
00080030022000049LIB       Comptroller of Public Accounts                          LIB V. Alonzo Echevarria-Garza        4B                                                     01 
00080030023000044LIB       Comptroller of Public Accounts                          LIB V. Alonzo Echevarria-Garza        4C                                                     01 
00080030024000029LIB       Comptroller of Public Accounts                          LIB V. Alonzo Echevarria-Garza        4D                                                     01 
00080030025000040LIB       Comptroller of Public Accounts                          LIB V. Alonzo Echevarria-Garza        4E                                                     01 
00080030026000012LIB       Comptroller of Public Accounts                          LIB V. Alonzo Echevarria-Garza        4F                                                     01 
00090010001002025REP       Commissioner of the General Land Office                 REP Dawn Buckingham                   1                                                      01 
00090010002001056REP       Commissioner of the General Land Office                 REP Dawn Buckingham                   1A                                                     01 
00090010003002170REP       Commissioner of the General Land Office                 REP Dawn Buckingham                   1B                                                     01 
00090010004001915REP       Commissioner of the General Land Office                 REP Dawn Buckingham                   1C                                                     01 
00090010005000243REP       Commissioner of the General Land Office                 REP Dawn Buckingham                   1D                                                     01 
00090010006001271REP       Commissioner of the General Land Office                 REP Dawn Buckingham                   1E                                                     01 
00090010007001746REP       Commissioner of the General Land Office                 REP Dawn Buckingham                   2                                                      01 
00090010008001481REP       Commissioner of the General Land Office                 REP Dawn Buckingham                   2A                                                     01 
00090010009000632REP       Commissioner of the General Land Office                 REP Dawn Buckingham                   2B                                                     01 
00090010010000835REP       Commissioner of the General Land Office                 REP Dawn Buckingham                   2C                                                     01 
00090010011000646REP       Commissioner of the General Land Office                 REP Dawn Buckingham                   2D                                                     01 
00090010012000613REP       Commissioner of the General Land Office                 REP Dawn Buckingham                   2E                                                     01 
00090010013000344REP       Commissioner of the General Land Office                 REP Dawn Buckingham                   2F                                                     01 
00090010014000697REP       Commissioner of the General Land Office                 REP Dawn Buckingham                   3                                                      01 
00090010015001564REP       Commissioner of the General Land Office                 REP Dawn Buckingham                   3A                                                     01 
00090010016001684REP       Commissioner of the General Land Office                 REP Dawn Buckingham                   3B                                                     01 
00090010017001932REP       Commissioner of the General Land Office                 REP Dawn Buckingham                   3C                                                     01 
00090010018002185REP       Commissioner of the General Land Office                 REP Dawn Buckingham                   3D                                                     01 
00090010019001461REP       Commissioner of the General Land Office                 REP Dawn Buckingham                   3E                                                     01 
00090010020000703REP       Commissioner of the General Land Office                 REP Dawn Buckingham                   4                                                      01 
00090010021001420REP       Commissioner of the General Land Office                 REP Dawn Buckingham                   4A                                                     01 
00090010022001160REP       Commissioner of the General Land Office                 REP Dawn Buckingham                   4B                                                     01 
00090010023001156REP       Commissioner of the General Land Office                 REP Dawn Buckingham                   4C                                                     01 
00090010024000921REP       Commissioner of the General Land Office                 REP Dawn Buckingham                   4D                                                     01 
00090010025000837REP       Commissioner of the General Land Office                 REP Dawn Buckingham                   4E                                                     01 
00090010026000214REP       Commissioner of the General Land Office                 REP Dawn Buckingham                   4F                                                     01 
00090020001000764DEM       Commissioner of the General Land Office                 DEM Jay Kleberg                       1                                                      01 
00090020002000513DEM       Commissioner of the General Land Office                 DEM Jay Kleberg                       1A                                                     01 
00090020003000687DEM       Commissioner of the General Land Office                 DEM Jay Kleberg                       1B                                                     01 
00090020004000622DEM       Commissioner of the General Land Office                 DEM Jay Kleberg                       1C                                                     01 
00090020005000151DEM       Commissioner of the General Land Office                 DEM Jay Kleberg                       1D                                                     01 
00090020006000336DEM       Commissioner of the General Land Office                 DEM Jay Kleberg                       1E                                                     01 
