00010010001000106000000000000000000000000000000000000000000000000000000000000000000000000000000000000          REGISTERED VOTERS - TOTAL                               REGISTERED VOTERS - TOTAL             PRECINCT 5                                             00 
00010010002000401000000000000000000000000000000000000000000000000000000000000000000000000000000000000          REGISTERED VOTERS - TOTAL                               REGISTERED VOTERS - TOTAL             PRECINCT 6                                             00 
00010010003002157000000000000000000000000000000000000000000000000000000000000000000000000000000000000          REGISTERED VOTERS - TOTAL                               REGISTERED VOTERS - TOTAL             PRECINCT 7                                             00 
00010010004000987000000000000000000000000000000000000000000000000000000000000000000000000000000000000          REGISTERED VOTERS - TOTAL                               REGISTERED VOTERS - TOTAL             PRECINCT 8                                             00 
00010010005000513000000000000000000000000000000000000000000000000000000000000000000000000000000000000          REGISTERED VOTERS - TOTAL                               REGISTERED VOTERS - TOTAL             PRECINCT 9                                             00 
00010010006000836000000000000000000000000000000000000000000000000000000000000000000000000000000000000          REGISTERED VOTERS - TOTAL                               REGISTERED VOTERS - TOTAL             PRECINCT 10                                            00 
00010010007000139000000000000000000000000000000000000000000000000000000000000000000000000000000000000          REGISTERED VOTERS - TOTAL                               REGISTERED VOTERS - TOTAL             PRECINCT 11                                            00 
00010010008001690000000000000000000000000000000000000000000000000000000000000000000000000000000000000          REGISTERED VOTERS - TOTAL                               REGISTERED VOTERS - TOTAL             PRECINCT 12                                            00 
00010010009000478000000000000000000000000000000000000000000000000000000000000000000000000000000000000          REGISTERED VOTERS - TOTAL                               REGISTERED VOTERS - TOTAL             PRECINCT 13                                            00 
00010010010000108000000000000000000000000000000000000000000000000000000000000000000000000000000000000          REGISTERED VOTERS - TOTAL                               REGISTERED VOTERS - TOTAL             PRECINCT 14                                            00 
00010010011001913000000000000000000000000000000000000000000000000000000000000000000000000000000000000          REGISTERED VOTERS - TOTAL                               REGISTERED VOTERS - TOTAL             PRECINCT 15                                            00 
00020010001000071000000000041000030000000000000000000000000000000000000000000000000000000000000000000          BALLOTS CAST - TOTAL                                    BALLOTS CAST - TOTAL                  PRECINCT 5                                             00 
00020010002000206000010000122000074000000000000000000000000000000000000000000000000000000000000000000          BALLOTS CAST - TOTAL                                    BALLOTS CAST - TOTAL                  PRECINCT 6                                             00 
00020010003001061000028000689000344000000000000000000000000000000000000000000000000000000000000000000          BALLOTS CAST - TOTAL                                    BALLOTS CAST - TOTAL                  PRECINCT 7                                             00 
00020010004000417000012000257000148000000000000000000000000000000000000000000000000000000000000000000          BALLOTS CAST - TOTAL                                    BALLOTS CAST - TOTAL                  PRECINCT 8                                             00 
00020010005000302000005000134000163000000000000000000000000000000000000000000000000000000000000000000          BALLOTS CAST - TOTAL                                    BALLOTS CAST - TOTAL                  PRECINCT 9                                             00 
00020010006000465000013000287000165000000000000000000000000000000000000000000000000000000000000000000          BALLOTS CAST - TOTAL                                    BALLOTS CAST - TOTAL                  PRECINCT 10                                            00 
00020010007000074000006000037000031000000000000000000000000000000000000000000000000000000000000000000          BALLOTS CAST - TOTAL                                    BALLOTS CAST - TOTAL                  PRECINCT 11                                            00 
00020010008000701000023000435000243000000000000000000000000000000000000000000000000000000000000000000          BALLOTS CAST - TOTAL                                    BALLOTS CAST - TOTAL                  PRECINCT 12                                            00 
00020010009000296000004000150000142000000000000000000000000000000000000000000000000000000000000000000          BALLOTS CAST - TOTAL                                    BALLOTS CAST - TOTAL                  PRECINCT 13                                            00 
00020010010000067000002000048000017000000000000000000000000000000000000000000000000000000000000000000          BALLOTS CAST - TOTAL                                    BALLOTS CAST - TOTAL                  PRECINCT 14                                            00 
00020010011000493000026000263000204000000000000000000000000000000000000000000000000000000000000000000          BALLOTS CAST - TOTAL                                    BALLOTS CAST - TOTAL                  PRECINCT 15                                            00 
00030010001000000000000000000000000000000000000000000000000000000000000000000000000000000000000000000          BALLOTS CAST - BLANK                                    BALLOTS CAST - BLANK                  PRECINCT 5                                             00 
00030010002000000000000000000000000000000000000000000000000000000000000000000000000000000000000000000          BALLOTS CAST - BLANK                                    BALLOTS CAST - BLANK                  PRECINCT 6                                             00 
00030010003000000000000000000000000000000000000000000000000000000000000000000000000000000000000000000          BALLOTS CAST - BLANK                                    BALLOTS CAST - BLANK                  PRECINCT 7                                             00 
00030010004000000000000000000000000000000000000000000000000000000000000000000000000000000000000000000          BALLOTS CAST - BLANK                                    BALLOTS CAST - BLANK                  PRECINCT 8                                             00 
00030010005000000000000000000000000000000000000000000000000000000000000000000000000000000000000000000          BALLOTS CAST - BLANK                                    BALLOTS CAST - BLANK                  PRECINCT 9                                             00 
00030010006000000000000000000000000000000000000000000000000000000000000000000000000000000000000000000          BALLOTS CAST - BLANK                                    BALLOTS CAST - BLANK                  PRECINCT 10                                            00 
00030010007000000000000000000000000000000000000000000000000000000000000000000000000000000000000000000          BALLOTS CAST - BLANK                                    BALLOTS CAST - BLANK                  PRECINCT 11                                            00 
00030010008000000000000000000000000000000000000000000000000000000000000000000000000000000000000000000          BALLOTS CAST - BLANK                                    BALLOTS CAST - BLANK                  PRECINCT 12                                            00 
00030010009000000000000000000000000000000000000000000000000000000000000000000000000000000000000000000          BALLOTS CAST - BLANK                                    BALLOTS CAST - BLANK                  PRECINCT 13                                            00 
00030010010000000000000000000000000000000000000000000000000000000000000000000000000000000000000000000          BALLOTS CAST - BLANK                                    BALLOTS CAST - BLANK                  PRECINCT 14                                            00 
00030010011000000000000000000000000000000000000000000000000000000000000000000000000000000000000000000          BALLOTS CAST - BLANK                                    BALLOTS CAST - BLANK                  PRECINCT 15                                            00 
00040010001000062000000000037000025000000000000000000000000000000000000000000000000000000000000000000REP       US Representative, Dist 19                              REP Jodey C. Arrington                PRECINCT 5                                             01 
00040010002000189000007000110000072000000000000000000000000000000000000000000000000000000000000000000REP       US Representative, Dist 19                              REP Jodey C. Arrington                PRECINCT 6                                             01 
00040010003000949000016000625000308000000000000000000000000000000000000000000000000000000000000000000REP       US Representative, Dist 19                              REP Jodey C. Arrington                PRECINCT 7                                             01 
00040010004000362000011000223000128000000000000000000000000000000000000000000000000000000000000000000REP       US Representative, Dist 19                              REP Jodey C. Arrington                PRECINCT 8                                             01 
00040010005000277000005000120000152000000000000000000000000000000000000000000000000000000000000000000REP       US Representative, Dist 19                              REP Jodey C. Arrington                PRECINCT 9                                             01 
00040010006000427000013000259000155000000000000000000000000000000000000000000000000000000000000000000REP       US Representative, Dist 19                              REP Jodey C. Arrington                PRECINCT 10                                            01 
00040010007000069000006000034000029000000000000000000000000000000000000000000000000000000000000000000REP       US Representative, Dist 19                              REP Jodey C. Arrington                PRECINCT 11                                            01 
00040010008000598000018000372000208000000000000000000000000000000000000000000000000000000000000000000REP       US Representative, Dist 19                              REP Jodey C. Arrington                PRECINCT 12                                            01 
00040010009000252000004000124000124000000000000000000000000000000000000000000000000000000000000000000REP       US Representative, Dist 19                              REP Jodey C. Arrington                PRECINCT 13                                            01 
00040010010000058000000000042000016000000000000000000000000000000000000000000000000000000000000000000REP       US Representative, Dist 19                              REP Jodey C. Arrington                PRECINCT 14                                            01 
00040010011000402000013000219000170000000000000000000000000000000000000000000000000000000000000000000REP       US Representative, Dist 19                              REP Jodey C. Arrington                PRECINCT 15                                            01 
00040020001000008000000000003000005000000000000000000000000000000000000000000000000000000000000000000IND       US Representative, Dist 19                              IND Nathan Lewis                      PRECINCT 5                                             01 
00040020002000012000003000007000002000000000000000000000000000000000000000000000000000000000000000000IND       US Representative, Dist 19                              IND Nathan Lewis                      PRECINCT 6                                             01 
00040020003000095000011000052000032000000000000000000000000000000000000000000000000000000000000000000IND       US Representative, Dist 19                              IND Nathan Lewis                      PRECINCT 7                                             01 
00040020004000049000001000030000018000000000000000000000000000000000000000000000000000000000000000000IND       US Representative, Dist 19                              IND Nathan Lewis                      PRECINCT 8                                             01 
00040020005000018000000000011000007000000000000000000000000000000000000000000000000000000000000000000IND       US Representative, Dist 19                              IND Nathan Lewis                      PRECINCT 9                                             01 
00040020006000028000000000020000008000000000000000000000000000000000000000000000000000000000000000000IND       US Representative, Dist 19                              IND Nathan Lewis                      PRECINCT 10                                            01 
00040020007000004000000000002000002000000000000000000000000000000000000000000000000000000000000000000IND       US Representative, Dist 19                              IND Nathan Lewis                      PRECINCT 11                                            01 
00040020008000078000005000049000024000000000000000000000000000000000000000000000000000000000000000000IND       US Representative, Dist 19                              IND Nathan Lewis                      PRECINCT 12                                            01 
00040020009000033000000000024000009000000000000000000000000000000000000000000000000000000000000000000IND       US Representative, Dist 19                              IND Nathan Lewis                      PRECINCT 13                                            01 
00040020010000009000002000006000001000000000000000000000000000000000000000000000000000000000000000000IND       US Representative, Dist 19                              IND Nathan Lewis                      PRECINCT 14                                            01 
00040020011000065000007000031000027000000000000000000000000000000000000000000000000000000000000000000IND       US Representative, Dist 19                              IND Nathan Lewis                      PRECINCT 15                                            01 
00050010001000063000000000036000027000000000000000000000000000000000000000000000000000000000000000000REP       Governor                                                REP Greg Abbott                       PRECINCT 5                                             01 
00050010002000188000008000111000069000000000000000000000000000000000000000000000000000000000000000000REP       Governor                                                REP Greg Abbott                       PRECINCT 6                                             01 
00050010003000936000017000616000303000000000000000000000000000000000000000000000000000000000000000000REP       Governor                                                REP Greg Abbott                       PRECINCT 7                                             01 
00050010004000354000011000220000123000000000000000000000000000000000000000000000000000000000000000000REP       Governor                                                REP Greg Abbott                       PRECINCT 8                                             01 
00050010005000277000004000119000154000000000000000000000000000000000000000000000000000000000000000000REP       Governor                                                REP Greg Abbott                       PRECINCT 9                                             01 
00050010006000425000012000261000152000000000000000000000000000000000000000000000000000000000000000000REP       Governor                                                REP Greg Abbott                       PRECINCT 10                                            01 
00050010007000069000006000034000029000000000000000000000000000000000000000000000000000000000000000000REP       Governor                                                REP Greg Abbott                       PRECINCT 11                                            01 
00050010008000582000018000360000204000000000000000000000000000000000000000000000000000000000000000000REP       Governor                                                REP Greg Abbott                       PRECINCT 12                                            01 
00050010009000248000004000122000122000000000000000000000000000000000000000000000000000000000000000000REP       Governor                                                REP Greg Abbott                       PRECINCT 13                                            01 
00050010010000060000001000043000016000000000000000000000000000000000000000000000000000000000000000000REP       Governor                                                REP Greg Abbott                       PRECINCT 14                                            01 
00050010011000405000014000223000168000000000000000000000000000000000000000000000000000000000000000000REP       Governor                                                REP Greg Abbott                       PRECINCT 15                                            01 
00050020001000006000000000004000002000000000000000000000000000000000000000000000000000000000000000000DEM       Governor                                                DEM Beto O'Rourke                     PRECINCT 5                                             01 
00050020002000017000001000011000005000000000000000000000000000000000000000000000000000000000000000000DEM       Governor                                                DEM Beto O'Rourke                     PRECINCT 6                                             01 
00050020003000112000011000066000035000000000000000000000000000000000000000000000000000000000000000000DEM       Governor                                                DEM Beto O'Rourke                     PRECINCT 7                                             01 
00050020004000053000000000036000017000000000000000000000000000000000000000000000000000000000000000000DEM       Governor                                                DEM Beto O'Rourke                     PRECINCT 8                                             01 
00050020005000015000000000008000007000000000000000000000000000000000000000000000000000000000000000000DEM       Governor                                                DEM Beto O'Rourke                     PRECINCT 9                                             01 
00050020006000033000000000022000011000000000000000000000000000000000000000000000000000000000000000000DEM       Governor                                                DEM Beto O'Rourke                     PRECINCT 10                                            01 
00050020007000004000000000002000002000000000000000000000000000000000000000000000000000000000000000000DEM       Governor                                                DEM Beto O'Rourke                     PRECINCT 11                                            01 
00050020008000111000005000072000034000000000000000000000000000000000000000000000000000000000000000000DEM       Governor                                                DEM Beto O'Rourke                     PRECINCT 12                                            01 
00050020009000042000000000026000016000000000000000000000000000000000000000000000000000000000000000000DEM       Governor                                                DEM Beto O'Rourke                     PRECINCT 13                                            01 
00050020010000007000001000005000001000000000000000000000000000000000000000000000000000000000000000000DEM       Governor                                                DEM Beto O'Rourke                     PRECINCT 14                                            01 
00050020011000080000011000038000031000000000000000000000000000000000000000000000000000000000000000000DEM       Governor                                                DEM Beto O'Rourke                     PRECINCT 15                                            01 
00050030001000001000000000000000001000000000000000000000000000000000000000000000000000000000000000000LIB       Governor                                                LIB Mark Tippetts                     PRECINCT 5                                             01 
00050030002000001000001000000000000000000000000000000000000000000000000000000000000000000000000000000LIB       Governor                                                LIB Mark Tippetts                     PRECINCT 6                                             01 
00050030003000008000000000004000004000000000000000000000000000000000000000000000000000000000000000000LIB       Governor                                                LIB Mark Tippetts                     PRECINCT 7                                             01 
00050030004000004000000000001000003000000000000000000000000000000000000000000000000000000000000000000LIB       Governor                                                LIB Mark Tippetts                     PRECINCT 8                                             01 
00050030005000004000000000003000001000000000000000000000000000000000000000000000000000000000000000000LIB       Governor                                                LIB Mark Tippetts                     PRECINCT 9                                             01 
00050030006000001000000000000000001000000000000000000000000000000000000000000000000000000000000000000LIB       Governor                                                LIB Mark Tippetts                     PRECINCT 10                                            01 
00050030007000001000000000001000000000000000000000000000000000000000000000000000000000000000000000000LIB       Governor                                                LIB Mark Tippetts                     PRECINCT 11                                            01 
00050030008000004000000000002000002000000000000000000000000000000000000000000000000000000000000000000LIB       Governor                                                LIB Mark Tippetts                     PRECINCT 12                                            01 
00050030009000003000000000001000002000000000000000000000000000000000000000000000000000000000000000000LIB       Governor                                                LIB Mark Tippetts                     PRECINCT 13                                            01 
00050030010000000000000000000000000000000000000000000000000000000000000000000000000000000000000000000LIB       Governor                                                LIB Mark Tippetts                     PRECINCT 14                                            01 
00050030011000002000000000001000001000000000000000000000000000000000000000000000000000000000000000000LIB       Governor                                                LIB Mark Tippetts                     PRECINCT 15                                            01 
00050040001000001000000000001000000000000000000000000000000000000000000000000000000000000000000000000GRN       Governor                                                GRN Delilah Barrios                   PRECINCT 5                                             01 
00050040002000000000000000000000000000000000000000000000000000000000000000000000000000000000000000000GRN       Governor                                                GRN Delilah Barrios                   PRECINCT 6                                             01 
00050040003000002000000000000000002000000000000000000000000000000000000000000000000000000000000000000GRN       Governor                                                GRN Delilah Barrios                   PRECINCT 7                                             01 
00050040004000002000001000000000001000000000000000000000000000000000000000000000000000000000000000000GRN       Governor                                                GRN Delilah Barrios                   PRECINCT 8                                             01 
00050040005000001000000000000000001000000000000000000000000000000000000000000000000000000000000000000GRN       Governor                                                GRN Delilah Barrios                   PRECINCT 9                                             01 
00050040006000001000000000000000001000000000000000000000000000000000000000000000000000000000000000000GRN       Governor                                                GRN Delilah Barrios                   PRECINCT 10                                            01 
00050040007000000000000000000000000000000000000000000000000000000000000000000000000000000000000000000GRN       Governor                                                GRN Delilah Barrios                   PRECINCT 11                                            01 
00050040008000001000000000000000001000000000000000000000000000000000000000000000000000000000000000000GRN       Governor                                                GRN Delilah Barrios                   PRECINCT 12                                            01 
00050040009000000000000000000000000000000000000000000000000000000000000000000000000000000000000000000GRN       Governor                                                GRN Delilah Barrios                   PRECINCT 13                                            01 
00050040010000000000000000000000000000000000000000000000000000000000000000000000000000000000000000000GRN       Governor                                                GRN Delilah Barrios                   PRECINCT 14                                            01 
00050040011000004000001000000000003000000000000000000000000000000000000000000000000000000000000000000GRN       Governor                                                GRN Delilah Barrios                   PRECINCT 15                                            01 
00050060001000000000000000000000000000000000000000000000000000000000000000000000000000000000000000000NON       Governor                                                Write-in                              PRECINCT 5                                             01 
00050060002000000000000000000000000000000000000000000000000000000000000000000000000000000000000000000NON       Governor                                                Write-in                              PRECINCT 6                                             01 
00050060003000000000000000000000000000000000000000000000000000000000000000000000000000000000000000000NON       Governor                                                Write-in                              PRECINCT 7                                             01 
00050060004000000000000000000000000000000000000000000000000000000000000000000000000000000000000000000NON       Governor                                                Write-in                              PRECINCT 8                                             01 
00050060005000000000000000000000000000000000000000000000000000000000000000000000000000000000000000000NON       Governor                                                Write-in                              PRECINCT 9                                             01 
00050060006000000000000000000000000000000000000000000000000000000000000000000000000000000000000000000NON       Governor                                                Write-in                              PRECINCT 10                                            01 
00050060007000000000000000000000000000000000000000000000000000000000000000000000000000000000000000000NON       Governor                                                Write-in                              PRECINCT 11                                            01 
00050060008000000000000000000000000000000000000000000000000000000000000000000000000000000000000000000NON       Governor                                                Write-in                              PRECINCT 12                                            01 
00050060009000000000000000000000000000000000000000000000000000000000000000000000000000000000000000000NON       Governor                                                Write-in                              PRECINCT 13                                            01 
00050060010000000000000000000000000000000000000000000000000000000000000000000000000000000000000000000NON       Governor                                                Write-in                              PRECINCT 14                                            01 
00050060011000000000000000000000000000000000000000000000000000000000000000000000000000000000000000000NON       Governor                                                Write-in                              PRECINCT 15                                            01 
00060010001000062000000000035000027000000000000000000000000000000000000000000000000000000000000000000REP       Lieutenant Governor                                     REP Dan Patrick                       PRECINCT 5                                             01 
00060010002000188000008000112000068000000000000000000000000000000000000000000000000000000000000000000REP       Lieutenant Governor                                     REP Dan Patrick                       PRECINCT 6                                             01 
00060010003000914000017000604000293000000000000000000000000000000000000000000000000000000000000000000REP       Lieutenant Governor                                     REP Dan Patrick                       PRECINCT 7                                             01 
00060010004000340000010000214000116000000000000000000000000000000000000000000000000000000000000000000REP       Lieutenant Governor                                     REP Dan Patrick                       PRECINCT 8                                             01 
00060010005000267000005000114000148000000000000000000000000000000000000000000000000000000000000000000REP       Lieutenant Governor                                     REP Dan Patrick                       PRECINCT 9                                             01 
00060010006000415000012000254000149000000000000000000000000000000000000000000000000000000000000000000REP       Lieutenant Governor                                     REP Dan Patrick                       PRECINCT 10                                            01 
00060010007000070000006000035000029000000000000000000000000000000000000000000000000000000000000000000REP       Lieutenant Governor                                     REP Dan Patrick                       PRECINCT 11                                            01 
00060010008000570000018000352000200000000000000000000000000000000000000000000000000000000000000000000REP       Lieutenant Governor                                     REP Dan Patrick                       PRECINCT 12                                            01 
00060010009000241000004000117000120000000000000000000000000000000000000000000000000000000000000000000REP       Lieutenant Governor                                     REP Dan Patrick                       PRECINCT 13                                            01 
00060010010000060000001000043000016000000000000000000000000000000000000000000000000000000000000000000REP       Lieutenant Governor                                     REP Dan Patrick                       PRECINCT 14                                            01 
00060010011000392000014000212000166000000000000000000000000000000000000000000000000000000000000000000REP       Lieutenant Governor                                     REP Dan Patrick                       PRECINCT 15                                            01 
00060020001000007000000000005000002000000000000000000000000000000000000000000000000000000000000000000DEM       Lieutenant Governor                                     DEM Mike Collier                      PRECINCT 5                                             01 
00060020002000014000001000009000004000000000000000000000000000000000000000000000000000000000000000000DEM       Lieutenant Governor                                     DEM Mike Collier                      PRECINCT 6                                             01 
00060020003000117000011000064000042000000000000000000000000000000000000000000000000000000000000000000DEM       Lieutenant Governor                                     DEM Mike Collier                      PRECINCT 7                                             01 
00060020004000061000001000038000022000000000000000000000000000000000000000000000000000000000000000000DEM       Lieutenant Governor                                     DEM Mike Collier                      PRECINCT 8                                             01 
00060020005000024000000000013000011000000000000000000000000000000000000000000000000000000000000000000DEM       Lieutenant Governor                                     DEM Mike Collier                      PRECINCT 9                                             01 
00060020006000035000000000023000012000000000000000000000000000000000000000000000000000000000000000000DEM       Lieutenant Governor                                     DEM Mike Collier                      PRECINCT 10                                            01 
00060020007000004000000000002000002000000000000000000000000000000000000000000000000000000000000000000DEM       Lieutenant Governor                                     DEM Mike Collier                      PRECINCT 11                                            01 
00060020008000104000005000067000032000000000000000000000000000000000000000000000000000000000000000000DEM       Lieutenant Governor                                     DEM Mike Collier                      PRECINCT 12                                            01 
00060020009000041000000000025000016000000000000000000000000000000000000000000000000000000000000000000DEM       Lieutenant Governor                                     DEM Mike Collier                      PRECINCT 13                                            01 
00060020010000007000001000005000001000000000000000000000000000000000000000000000000000000000000000000DEM       Lieutenant Governor                                     DEM Mike Collier                      PRECINCT 14                                            01 
00060020011000082000012000039000031000000000000000000000000000000000000000000000000000000000000000000DEM       Lieutenant Governor                                     DEM Mike Collier                      PRECINCT 15                                            01 
00060030001000000000000000000000000000000000000000000000000000000000000000000000000000000000000000000LIB       Lieutenant Governor                                     LIB Shanna Steele                     PRECINCT 5                                             01 
00060030002000001000001000000000000000000000000000000000000000000000000000000000000000000000000000000LIB       Lieutenant Governor                                     LIB Shanna Steele                     PRECINCT 6                                             01 
00060030003000018000000000013000005000000000000000000000000000000000000000000000000000000000000000000LIB       Lieutenant Governor                                     LIB Shanna Steele                     PRECINCT 7                                             01 
00060030004000009000000000001000008000000000000000000000000000000000000000000000000000000000000000000LIB       Lieutenant Governor                                     LIB Shanna Steele                     PRECINCT 8                                             01 
00060030005000005000000000004000001000000000000000000000000000000000000000000000000000000000000000000LIB       Lieutenant Governor                                     LIB Shanna Steele                     PRECINCT 9                                             01 
00060030006000005000000000001000004000000000000000000000000000000000000000000000000000000000000000000LIB       Lieutenant Governor                                     LIB Shanna Steele                     PRECINCT 10                                            01 
00060030007000000000000000000000000000000000000000000000000000000000000000000000000000000000000000000LIB       Lieutenant Governor                                     LIB Shanna Steele                     PRECINCT 11                                            01 
00060030008000015000000000010000005000000000000000000000000000000000000000000000000000000000000000000LIB       Lieutenant Governor                                     LIB Shanna Steele                     PRECINCT 12                                            01 
00060030009000007000000000006000001000000000000000000000000000000000000000000000000000000000000000000LIB       Lieutenant Governor                                     LIB Shanna Steele                     PRECINCT 13                                            01 
00060030010000000000000000000000000000000000000000000000000000000000000000000000000000000000000000000LIB       Lieutenant Governor                                     LIB Shanna Steele                     PRECINCT 14                                            01 
00060030011000009000000000004000005000000000000000000000000000000000000000000000000000000000000000000LIB       Lieutenant Governor                                     LIB Shanna Steele                     PRECINCT 15                                            01 
00070010001000061000000000035000026000000000000000000000000000000000000000000000000000000000000000000REP       Attorney General                                        REP Ken Paxton                        PRECINCT 5                                             01 
00070010002000188000008000112000068000000000000000000000000000000000000000000000000000000000000000000REP       Attorney General                                        REP Ken Paxton                        PRECINCT 6                                             01 
00070010003000913000016000606000291000000000000000000000000000000000000000000000000000000000000000000REP       Attorney General                                        REP Ken Paxton                        PRECINCT 7                                             01 
00070010004000348000011000215000122000000000000000000000000000000000000000000000000000000000000000000REP       Attorney General                                        REP Ken Paxton                        PRECINCT 8                                             01 
00070010005000272000005000119000148000000000000000000000000000000000000000000000000000000000000000000REP       Attorney General                                        REP Ken Paxton                        PRECINCT 9                                             01 
00070010006000420000013000255000152000000000000000000000000000000000000000000000000000000000000000000REP       Attorney General                                        REP Ken Paxton                        PRECINCT 10                                            01 
00070010007000069000006000034000029000000000000000000000000000000000000000000000000000000000000000000REP       Attorney General                                        REP Ken Paxton                        PRECINCT 11                                            01 
00070010008000576000016000353000207000000000000000000000000000000000000000000000000000000000000000000REP       Attorney General                                        REP Ken Paxton                        PRECINCT 12                                            01 
00070010009000240000004000118000118000000000000000000000000000000000000000000000000000000000000000000REP       Attorney General                                        REP Ken Paxton                        PRECINCT 13                                            01 
00070010010000059000001000042000016000000000000000000000000000000000000000000000000000000000000000000REP       Attorney General                                        REP Ken Paxton                        PRECINCT 14                                            01 
00070010011000390000012000211000167000000000000000000000000000000000000000000000000000000000000000000REP       Attorney General                                        REP Ken Paxton                        PRECINCT 15                                            01 
00070020001000009000000000006000003000000000000000000000000000000000000000000000000000000000000000000DEM       Attorney General                                        DEM Rochelle Mercedes Garza           PRECINCT 5                                             01 
00070020002000014000001000009000004000000000000000000000000000000000000000000000000000000000000000000DEM       Attorney General                                        DEM Rochelle Mercedes Garza           PRECINCT 6                                             01 
00070020003000113000011000063000039000000000000000000000000000000000000000000000000000000000000000000DEM       Attorney General                                        DEM Rochelle Mercedes Garza           PRECINCT 7                                             01 
00070020004000057000001000034000022000000000000000000000000000000000000000000000000000000000000000000DEM       Attorney General                                        DEM Rochelle Mercedes Garza           PRECINCT 8                                             01 
00070020005000016000000000011000005000000000000000000000000000000000000000000000000000000000000000000DEM       Attorney General                                        DEM Rochelle Mercedes Garza           PRECINCT 9                                             01 
00070020006000035000000000025000010000000000000000000000000000000000000000000000000000000000000000000DEM       Attorney General                                        DEM Rochelle Mercedes Garza           PRECINCT 10                                            01 
00070020007000005000000000003000002000000000000000000000000000000000000000000000000000000000000000000DEM       Attorney General                                        DEM Rochelle Mercedes Garza           PRECINCT 11                                            01 
00070020008000098000005000066000027000000000000000000000000000000000000000000000000000000000000000000DEM       Attorney General                                        DEM Rochelle Mercedes Garza           PRECINCT 12                                            01 
00070020009000042000000000025000017000000000000000000000000000000000000000000000000000000000000000000DEM       Attorney General                                        DEM Rochelle Mercedes Garza           PRECINCT 13                                            01 
00070020010000006000000000005000001000000000000000000000000000000000000000000000000000000000000000000DEM       Attorney General                                        DEM Rochelle Mercedes Garza           PRECINCT 14                                            01 
00070020011000085000014000042000029000000000000000000000000000000000000000000000000000000000000000000DEM       Attorney General                                        DEM Rochelle Mercedes Garza           PRECINCT 15                                            01 
00070030001000001000000000000000001000000000000000000000000000000000000000000000000000000000000000000LIB       Attorney General                                        LIB Mark Ash                          PRECINCT 5                                             01 
00070030002000001000001000000000000000000000000000000000000000000000000000000000000000000000000000000LIB       Attorney General                                        LIB Mark Ash                          PRECINCT 6                                             01 
00070030003000019000000000011000008000000000000000000000000000000000000000000000000000000000000000000LIB       Attorney General                                        LIB Mark Ash                          PRECINCT 7                                             01 
00070030004000009000000000005000004000000000000000000000000000000000000000000000000000000000000000000LIB       Attorney General                                        LIB Mark Ash                          PRECINCT 8                                             01 
00070030005000005000000000001000004000000000000000000000000000000000000000000000000000000000000000000LIB       Attorney General                                        LIB Mark Ash                          PRECINCT 9                                             01 
00070030006000001000000000001000000000000000000000000000000000000000000000000000000000000000000000000LIB       Attorney General                                        LIB Mark Ash                          PRECINCT 10                                            01 
00070030007000000000000000000000000000000000000000000000000000000000000000000000000000000000000000000LIB       Attorney General                                        LIB Mark Ash                          PRECINCT 11                                            01 
00070030008000017000001000011000005000000000000000000000000000000000000000000000000000000000000000000LIB       Attorney General                                        LIB Mark Ash                          PRECINCT 12                                            01 
00070030009000004000000000004000000000000000000000000000000000000000000000000000000000000000000000000LIB       Attorney General                                        LIB Mark Ash                          PRECINCT 13                                            01 
00070030010000002000001000001000000000000000000000000000000000000000000000000000000000000000000000000LIB       Attorney General                                        LIB Mark Ash                          PRECINCT 14                                            01 
00070030011000011000000000004000007000000000000000000000000000000000000000000000000000000000000000000LIB       Attorney General                                        LIB Mark Ash                          PRECINCT 15                                            01 
00080010001000061000000000035000026000000000000000000000000000000000000000000000000000000000000000000REP       Comptroller of Public Accounts                          REP Glenn Hegar                       PRECINCT 5                                             01 
00080010002000186000008000110000068000000000000000000000000000000000000000000000000000000000000000000REP       Comptroller of Public Accounts                          REP Glenn Hegar                       PRECINCT 6                                             01 
00080010003000938000017000620000301000000000000000000000000000000000000000000000000000000000000000000REP       Comptroller of Public Accounts                          REP Glenn Hegar                       PRECINCT 7                                             01 
00080010004000351000011000219000121000000000000000000000000000000000000000000000000000000000000000000REP       Comptroller of Public Accounts                          REP Glenn Hegar                       PRECINCT 8                                             01 
00080010005000275000005000119000151000000000000000000000000000000000000000000000000000000000000000000REP       Comptroller of Public Accounts                          REP Glenn Hegar                       PRECINCT 9                                             01 
00080010006000418000013000254000151000000000000000000000000000000000000000000000000000000000000000000REP       Comptroller of Public Accounts                          REP Glenn Hegar                       PRECINCT 10                                            01 
00080010007000068000006000034000028000000000000000000000000000000000000000000000000000000000000000000REP       Comptroller of Public Accounts                          REP Glenn Hegar                       PRECINCT 11                                            01 
00080010008000576000017000355000204000000000000000000000000000000000000000000000000000000000000000000REP       Comptroller of Public Accounts                          REP Glenn Hegar                       PRECINCT 12                                            01 
00080010009000246000004000122000120000000000000000000000000000000000000000000000000000000000000000000REP       Comptroller of Public Accounts                          REP Glenn Hegar                       PRECINCT 13                                            01 
00080010010000060000001000043000016000000000000000000000000000000000000000000000000000000000000000000REP       Comptroller of Public Accounts                          REP Glenn Hegar                       PRECINCT 14                                            01 
00080010011000389000013000208000168000000000000000000000000000000000000000000000000000000000000000000REP       Comptroller of Public Accounts                          REP Glenn Hegar                       PRECINCT 15                                            01 
00080020001000007000000000005000002000000000000000000000000000000000000000000000000000000000000000000DEM       Comptroller of Public Accounts                          DEM Janet T. Dudding                  PRECINCT 5                                             01 
00080020002000015000001000010000004000000000000000000000000000000000000000000000000000000000000000000DEM       Comptroller of Public Accounts                          DEM Janet T. Dudding                  PRECINCT 6                                             01 
00080020003000099000011000058000030000000000000000000000000000000000000000000000000000000000000000000DEM       Comptroller of Public Accounts                          DEM Janet T. Dudding                  PRECINCT 7                                             01 
00080020004000056000001000033000022000000000000000000000000000000000000000000000000000000000000000000DEM       Comptroller of Public Accounts                          DEM Janet T. Dudding                  PRECINCT 8                                             01 
00080020005000018000000000011000007000000000000000000000000000000000000000000000000000000000000000000DEM       Comptroller of Public Accounts                          DEM Janet T. Dudding                  PRECINCT 9                                             01 
00080020006000031000000000021000010000000000000000000000000000000000000000000000000000000000000000000DEM       Comptroller of Public Accounts                          DEM Janet T. Dudding                  PRECINCT 10                                            01 
00080020007000004000000000002000002000000000000000000000000000000000000000000000000000000000000000000DEM       Comptroller of Public Accounts                          DEM Janet T. Dudding                  PRECINCT 11                                            01 
00080020008000091000004000063000024000000000000000000000000000000000000000000000000000000000000000000DEM       Comptroller of Public Accounts                          DEM Janet T. Dudding                  PRECINCT 12                                            01 
00080020009000036000000000023000013000000000000000000000000000000000000000000000000000000000000000000DEM       Comptroller of Public Accounts                          DEM Janet T. Dudding                  PRECINCT 13                                            01 
00080020010000005000000000004000001000000000000000000000000000000000000000000000000000000000000000000DEM       Comptroller of Public Accounts                          DEM Janet T. Dudding                  PRECINCT 14                                            01 
00080020011000076000011000039000026000000000000000000000000000000000000000000000000000000000000000000DEM       Comptroller of Public Accounts                          DEM Janet T. Dudding                  PRECINCT 15                                            01 
00080030001000001000000000000000001000000000000000000000000000000000000000000000000000000000000000000LIB       Comptroller of Public Accounts                          LIB V. Alonzo Echevarria-Garza        PRECINCT 5                                             01 
00080030002000002000001000001000000000000000000000000000000000000000000000000000000000000000000000000LIB       Comptroller of Public Accounts                          LIB V. Alonzo Echevarria-Garza        PRECINCT 6                                             01 
00080030003000012000000000005000007000000000000000000000000000000000000000000000000000000000000000000LIB       Comptroller of Public Accounts                          LIB V. Alonzo Echevarria-Garza        PRECINCT 7                                             01 
00080030004000008000000000003000005000000000000000000000000000000000000000000000000000000000000000000LIB       Comptroller of Public Accounts                          LIB V. Alonzo Echevarria-Garza        PRECINCT 8                                             01 
00080030005000002000000000001000001000000000000000000000000000000000000000000000000000000000000000000LIB       Comptroller of Public Accounts                          LIB V. Alonzo Echevarria-Garza        PRECINCT 9                                             01 
00080030006000004000000000003000001000000000000000000000000000000000000000000000000000000000000000000LIB       Comptroller of Public Accounts                          LIB V. Alonzo Echevarria-Garza        PRECINCT 10                                            01 
00080030007000001000000000001000000000000000000000000000000000000000000000000000000000000000000000000LIB       Comptroller of Public Accounts                          LIB V. Alonzo Echevarria-Garza        PRECINCT 11                                            01 
00080030008000012000000000006000006000000000000000000000000000000000000000000000000000000000000000000LIB       Comptroller of Public Accounts                          LIB V. Alonzo Echevarria-Garza        PRECINCT 12                                            01 
00080030009000004000000000003000001000000000000000000000000000000000000000000000000000000000000000000LIB       Comptroller of Public Accounts                          LIB V. Alonzo Echevarria-Garza        PRECINCT 13                                            01 
00080030010000000000000000000000000000000000000000000000000000000000000000000000000000000000000000000LIB       Comptroller of Public Accounts                          LIB V. Alonzo Echevarria-Garza        PRECINCT 14                                            01 
00080030011000017000002000007000008000000000000000000000000000000000000000000000000000000000000000000LIB       Comptroller of Public Accounts                          LIB V. Alonzo Echevarria-Garza        PRECINCT 15                                            01 
00090010001000064000000000036000028000000000000000000000000000000000000000000000000000000000000000000REP       Comm. General Land Office                               REP Dawn Buckingham                   PRECINCT 5                                             01 
00090010002000189000009000112000068000000000000000000000000000000000000000000000000000000000000000000REP       Comm. General Land Office                               REP Dawn Buckingham                   PRECINCT 6                                             01 
00090010003000932000017000615000300000000000000000000000000000000000000000000000000000000000000000000REP       Comm. General Land Office                               REP Dawn Buckingham                   PRECINCT 7                                             01 
00090010004000350000011000217000122000000000000000000000000000000000000000000000000000000000000000000REP       Comm. General Land Office                               REP Dawn Buckingham                   PRECINCT 8                                             01 
00090010005000276000005000120000151000000000000000000000000000000000000000000000000000000000000000000REP       Comm. General Land Office                               REP Dawn Buckingham                   PRECINCT 9                                             01 
00090010006000419000012000254000153000000000000000000000000000000000000000000000000000000000000000000REP       Comm. General Land Office                               REP Dawn Buckingham                   PRECINCT 10                                            01 
00090010007000070000006000035000029000000000000000000000000000000000000000000000000000000000000000000REP       Comm. General Land Office                               REP Dawn Buckingham                   PRECINCT 11                                            01 
00090010008000581000017000359000205000000000000000000000000000000000000000000000000000000000000000000REP       Comm. General Land Office                               REP Dawn Buckingham                   PRECINCT 12                                            01 
00090010009000244000004000122000118000000000000000000000000000000000000000000000000000000000000000000REP       Comm. General Land Office                               REP Dawn Buckingham                   PRECINCT 13                                            01 
00090010010000059000001000042000016000000000000000000000000000000000000000000000000000000000000000000REP       Comm. General Land Office                               REP Dawn Buckingham                   PRECINCT 14                                            01 
00090010011000392000013000213000166000000000000000000000000000000000000000000000000000000000000000000REP       Comm. General Land Office                               REP Dawn Buckingham                   PRECINCT 15                                            01 
00090020001000007000000000005000002000000000000000000000000000000000000000000000000000000000000000000DEM       Comm. General Land Office                               DEM Jay Kleberg                       PRECINCT 5                                             01 
00090020002000013000001000008000004000000000000000000000000000000000000000000000000000000000000000000DEM       Comm. General Land Office                               DEM Jay Kleberg                       PRECINCT 6                                             01 
00090020003000102000011000057000034000000000000000000000000000000000000000000000000000000000000000000DEM       Comm. General Land Office                               DEM Jay Kleberg                       PRECINCT 7                                             01 
00090020004000057000001000037000019000000000000000000000000000000000000000000000000000000000000000000DEM       Comm. General Land Office                               DEM Jay Kleberg                       PRECINCT 8                                             01 
00090020005000016000000000009000007000000000000000000000000000000000000000000000000000000000000000000DEM       Comm. General Land Office                               DEM Jay Kleberg                       PRECINCT 9                                             01 
00090020006000033000000000024000009000000000000000000000000000000000000000000000000000000000000000000DEM       Comm. General Land Office                               DEM Jay Kleberg                       PRECINCT 10                                            01 
00090020007000002000000000002000000000000000000000000000000000000000000000000000000000000000000000000DEM       Comm. General Land Office                               DEM Jay Kleberg                       PRECINCT 11                                            01 
00090020008000093000005000064000024000000000000000000000000000000000000000000000000000000000000000000DEM       Comm. General Land Office                               DEM Jay Kleberg                       PRECINCT 12                                            01 
00090020009000038000000000023000015000000000000000000000000000000000000000000000000000000000000000000DEM       Comm. General Land Office                               DEM Jay Kleberg                       PRECINCT 13                                            01 
00090020010000006000000000005000001000000000000000000000000000000000000000000000000000000000000000000DEM       Comm. General Land Office                               DEM Jay Kleberg                       PRECINCT 14                                            01 
00090020011000082000012000039000031000000000000000000000000000000000000000000000000000000000000000000DEM       Comm. General Land Office                               DEM Jay Kleberg                       PRECINCT 15                                            01 
00090030001000000000000000000000000000000000000000000000000000000000000000000000000000000000000000000GRN       Comm. General Land Office                               GRN Alfred Molison, Jr.               PRECINCT 5                                             01 
00090030002000000000000000000000000000000000000000000000000000000000000000000000000000000000000000000GRN       Comm. General Land Office                               GRN Alfred Molison, Jr.               PRECINCT 6                                             01 
00090030003000008000000000005000003000000000000000000000000000000000000000000000000000000000000000000GRN       Comm. General Land Office                               GRN Alfred Molison, Jr.               PRECINCT 7                                             01 
00090030004000005000000000000000005000000000000000000000000000000000000000000000000000000000000000000GRN       Comm. General Land Office                               GRN Alfred Molison, Jr.               PRECINCT 8                                             01 
00090030005000002000000000002000000000000000000000000000000000000000000000000000000000000000000000000GRN       Comm. General Land Office                               GRN Alfred Molison, Jr.               PRECINCT 9                                             01 
00090030006000001000000000000000001000000000000000000000000000000000000000000000000000000000000000000GRN       Comm. General Land Office                               GRN Alfred Molison, Jr.               PRECINCT 10                                            01 
00090030007000001000000000000000001000000000000000000000000000000000000000000000000000000000000000000GRN       Comm. General Land Office                               GRN Alfred Molison, Jr.               PRECINCT 11                                            01 
00090030008000007000000000004000003000000000000000000000000000000000000000000000000000000000000000000GRN       Comm. General Land Office                               GRN Alfred Molison, Jr.               PRECINCT 12                                            01 
00090030009000004000000000002000002000000000000000000000000000000000000000000000000000000000000000000GRN       Comm. General Land Office                               GRN Alfred Molison, Jr.               PRECINCT 13                                            01 
00090030010000000000000000000000000000000000000000000000000000000000000000000000000000000000000000000GRN       Comm. General Land Office                               GRN Alfred Molison, Jr.               PRECINCT 14                                            01 
00090030011000005000000000002000003000000000000000000000000000000000000000000000000000000000000000000GRN       Comm. General Land Office                               GRN Alfred Molison, Jr.               PRECINCT 15                                            01 
00090050001000000000000000000000000000000000000000000000000000000000000000000000000000000000000000000NON       Comm. General Land Office                               Write-in                              PRECINCT 5                                             01 
00090050002000000000000000000000000000000000000000000000000000000000000000000000000000000000000000000NON       Comm. General Land Office                               Write-in                              PRECINCT 6                                             01 
00090050003000001000000000000000001000000000000000000000000000000000000000000000000000000000000000000NON       Comm. General Land Office                               Write-in                              PRECINCT 7                                             01 
00090050004000000000000000000000000000000000000000000000000000000000000000000000000000000000000000000NON       Comm. General Land Office                               Write-in                              PRECINCT 8                                             01 
00090050005000000000000000000000000000000000000000000000000000000000000000000000000000000000000000000NON       Comm. General Land Office                               Write-in                              PRECINCT 9                                             01 
00090050006000000000000000000000000000000000000000000000000000000000000000000000000000000000000000000NON       Comm. General Land Office                               Write-in                              PRECINCT 10                                            01 
00090050007000000000000000000000000000000000000000000000000000000000000000000000000000000000000000000NON       Comm. General Land Office                               Write-in                              PRECINCT 11                                            01 
00090050008000001000000000001000000000000000000000000000000000000000000000000000000000000000000000000NON       Comm. General Land Office                               Write-in                              PRECINCT 12                                            01 
00090050009000000000000000000000000000000000000000000000000000000000000000000000000000000000000000000NON       Comm. General Land Office                               Write-in                              PRECINCT 13                                            01 
00090050010000000000000000000000000000000000000000000000000000000000000000000000000000000000000000000NON       Comm. General Land Office                               Write-in                              PRECINCT 14                                            01 
00090050011000000000000000000000000000000000000000000000000000000000000000000000000000000000000000000NON       Comm. General Land Office                               Write-in                              PRECINCT 15                                            01 
00100010001000063000000000036000027000000000000000000000000000000000000000000000000000000000000000000REP       Commissioner of Agriculture                             REP Sid Miller                        PRECINCT 5                                             01 
00100010002000188000009000112000067000000000000000000000000000000000000000000000000000000000000000000REP       Commissioner of Agriculture                             REP Sid Miller                        PRECINCT 6                                             01 
00100010003000938000017000619000302000000000000000000000000000000000000000000000000000000000000000000REP       Commissioner of Agriculture                             REP Sid Miller                        PRECINCT 7                                             01 
00100010004000340000011000210000119000000000000000000000000000000000000000000000000000000000000000000REP       Commissioner of Agriculture                             REP Sid Miller                        PRECINCT 8                                             01 
00100010005000276000005000119000152000000000000000000000000000000000000000000000000000000000000000000REP       Commissioner of Agriculture                             REP Sid Miller                        PRECINCT 9                                             01 
00100010006000421000013000253000155000000000000000000000000000000000000000000000000000000000000000000REP       Commissioner of Agriculture                             REP Sid Miller                        PRECINCT 10                                            01 
00100010007000070000006000035000029000000000000000000000000000000000000000000000000000000000000000000REP       Commissioner of Agriculture                             REP Sid Miller                        PRECINCT 11                                            01 
00100010008000582000018000357000207000000000000000000000000000000000000000000000000000000000000000000REP       Commissioner of Agriculture                             REP Sid Miller                        PRECINCT 12                                            01 
00100010009000246000004000120000122000000000000000000000000000000000000000000000000000000000000000000REP       Commissioner of Agriculture                             REP Sid Miller                        PRECINCT 13                                            01 
00100010010000058000000000042000016000000000000000000000000000000000000000000000000000000000000000000REP       Commissioner of Agriculture                             REP Sid Miller                        PRECINCT 14                                            01 
00100010011000397000013000216000168000000000000000000000000000000000000000000000000000000000000000000REP       Commissioner of Agriculture                             REP Sid Miller                        PRECINCT 15                                            01 
00100020001000008000000000005000003000000000000000000000000000000000000000000000000000000000000000000DEM       Commissioner of Agriculture                             DEM Susan Hays                        PRECINCT 5                                             01 
00100020002000014000001000009000004000000000000000000000000000000000000000000000000000000000000000000DEM       Commissioner of Agriculture                             DEM Susan Hays                        PRECINCT 6                                             01 
00100020003000108000011000062000035000000000000000000000000000000000000000000000000000000000000000000DEM       Commissioner of Agriculture                             DEM Susan Hays                        PRECINCT 7                                             01 
00100020004000072000001000043000028000000000000000000000000000000000000000000000000000000000000000000DEM       Commissioner of Agriculture                             DEM Susan Hays                        PRECINCT 8                                             01 
00100020005000019000000000012000007000000000000000000000000000000000000000000000000000000000000000000DEM       Commissioner of Agriculture                             DEM Susan Hays                        PRECINCT 9                                             01 
00100020006000033000000000024000009000000000000000000000000000000000000000000000000000000000000000000DEM       Commissioner of Agriculture                             DEM Susan Hays                        PRECINCT 10                                            01 
00100020007000004000000000002000002000000000000000000000000000000000000000000000000000000000000000000DEM       Commissioner of Agriculture                             DEM Susan Hays                        PRECINCT 11                                            01 
00100020008000104000005000071000028000000000000000000000000000000000000000000000000000000000000000000DEM       Commissioner of Agriculture                             DEM Susan Hays                        PRECINCT 12                                            01 
00100020009000042000000000027000015000000000000000000000000000000000000000000000000000000000000000000DEM       Commissioner of Agriculture                             DEM Susan Hays                        PRECINCT 13                                            01 
00100020010000009000002000006000001000000000000000000000000000000000000000000000000000000000000000000DEM       Commissioner of Agriculture                             DEM Susan Hays                        PRECINCT 14                                            01 
00100020011000087000012000044000031000000000000000000000000000000000000000000000000000000000000000000DEM       Commissioner of Agriculture                             DEM Susan Hays                        PRECINCT 15                                            01 
00110010001000062000000000036000026000000000000000000000000000000000000000000000000000000000000000000REP       Railroad Commissioner                                   REP Wayne Christian                   PRECINCT 5                                             01 
00110010002000187000009000112000066000000000000000000000000000000000000000000000000000000000000000000REP       Railroad Commissioner                                   REP Wayne Christian                   PRECINCT 6                                             01 
00110010003000931000017000617000297000000000000000000000000000000000000000000000000000000000000000000REP       Railroad Commissioner                                   REP Wayne Christian                   PRECINCT 7                                             01 
00110010004000341000011000212000118000000000000000000000000000000000000000000000000000000000000000000REP       Railroad Commissioner                                   REP Wayne Christian                   PRECINCT 8                                             01 
00110010005000269000005000114000150000000000000000000000000000000000000000000000000000000000000000000REP       Railroad Commissioner                                   REP Wayne Christian                   PRECINCT 9                                             01 
00110010006000413000013000249000151000000000000000000000000000000000000000000000000000000000000000000REP       Railroad Commissioner                                   REP Wayne Christian                   PRECINCT 10                                            01 
00110010007000069000006000034000029000000000000000000000000000000000000000000000000000000000000000000REP       Railroad Commissioner                                   REP Wayne Christian                   PRECINCT 11                                            01 
00110010008000578000017000355000206000000000000000000000000000000000000000000000000000000000000000000REP       Railroad Commissioner                                   REP Wayne Christian                   PRECINCT 12                                            01 
00110010009000237000004000114000119000000000000000000000000000000000000000000000000000000000000000000REP       Railroad Commissioner                                   REP Wayne Christian                   PRECINCT 13                                            01 
00110010010000058000000000042000016000000000000000000000000000000000000000000000000000000000000000000REP       Railroad Commissioner                                   REP Wayne Christian                   PRECINCT 14                                            01 
00110010011000383000013000211000159000000000000000000000000000000000000000000000000000000000000000000REP       Railroad Commissioner                                   REP Wayne Christian                   PRECINCT 15                                            01 
00110020001000008000000000005000003000000000000000000000000000000000000000000000000000000000000000000DEM       Railroad Commissioner                                   DEM Luke Warford                      PRECINCT 5                                             01 
00110020002000014000001000010000003000000000000000000000000000000000000000000000000000000000000000000DEM       Railroad Commissioner                                   DEM Luke Warford                      PRECINCT 6                                             01 
00110020003000091000011000050000030000000000000000000000000000000000000000000000000000000000000000000DEM       Railroad Commissioner                                   DEM Luke Warford                      PRECINCT 7                                             01 
00110020004000056000001000036000019000000000000000000000000000000000000000000000000000000000000000000DEM       Railroad Commissioner                                   DEM Luke Warford                      PRECINCT 8                                             01 
00110020005000019000000000012000007000000000000000000000000000000000000000000000000000000000000000000DEM       Railroad Commissioner                                   DEM Luke Warford                      PRECINCT 9                                             01 
00110020006000032000000000022000010000000000000000000000000000000000000000000000000000000000000000000DEM       Railroad Commissioner                                   DEM Luke Warford                      PRECINCT 10                                            01 
00110020007000003000000000002000001000000000000000000000000000000000000000000000000000000000000000000DEM       Railroad Commissioner                                   DEM Luke Warford                      PRECINCT 11                                            01 
00110020008000089000005000059000025000000000000000000000000000000000000000000000000000000000000000000DEM       Railroad Commissioner                                   DEM Luke Warford                      PRECINCT 12                                            01 
00110020009000035000000000022000013000000000000000000000000000000000000000000000000000000000000000000DEM       Railroad Commissioner                                   DEM Luke Warford                      PRECINCT 13                                            01 
00110020010000007000001000005000001000000000000000000000000000000000000000000000000000000000000000000DEM       Railroad Commissioner                                   DEM Luke Warford                      PRECINCT 14                                            01 
00110020011000082000012000039000031000000000000000000000000000000000000000000000000000000000000000000DEM       Railroad Commissioner                                   DEM Luke Warford                      PRECINCT 15                                            01 
00110030001000001000000000000000001000000000000000000000000000000000000000000000000000000000000000000LIB       Railroad Commissioner                                   LIB Jaime Andres Diez                 PRECINCT 5                                             01 
00110030002000001000000000000000001000000000000000000000000000000000000000000000000000000000000000000LIB       Railroad Commissioner                                   LIB Jaime Andres Diez                 PRECINCT 6                                             01 
00110030003000020000000000011000009000000000000000000000000000000000000000000000000000000000000000000LIB       Railroad Commissioner                                   LIB Jaime Andres Diez                 PRECINCT 7                                             01 
00110030004000009000000000003000006000000000000000000000000000000000000000000000000000000000000000000LIB       Railroad Commissioner                                   LIB Jaime Andres Diez                 PRECINCT 8                                             01 
00110030005000005000000000004000001000000000000000000000000000000000000000000000000000000000000000000LIB       Railroad Commissioner                                   LIB Jaime Andres Diez                 PRECINCT 9                                             01 
00110030006000003000000000001000002000000000000000000000000000000000000000000000000000000000000000000LIB       Railroad Commissioner                                   LIB Jaime Andres Diez                 PRECINCT 10                                            01 
00110030007000000000000000000000000000000000000000000000000000000000000000000000000000000000000000000LIB       Railroad Commissioner                                   LIB Jaime Andres Diez                 PRECINCT 11                                            01 
00110030008000015000000000010000005000000000000000000000000000000000000000000000000000000000000000000LIB       Railroad Commissioner                                   LIB Jaime Andres Diez                 PRECINCT 12                                            01 
00110030009000011000000000007000004000000000000000000000000000000000000000000000000000000000000000000LIB       Railroad Commissioner                                   LIB Jaime Andres Diez                 PRECINCT 13                                            01 
00110030010000000000000000000000000000000000000000000000000000000000000000000000000000000000000000000LIB       Railroad Commissioner                                   LIB Jaime Andres Diez                 PRECINCT 14                                            01 
00110030011000012000000000007000005000000000000000000000000000000000000000000000000000000000000000000LIB       Railroad Commissioner                                   LIB Jaime Andres Diez                 PRECINCT 15                                            01 
00110040001000000000000000000000000000000000000000000000000000000000000000000000000000000000000000000GRN       Railroad Commissioner                                   GRN Hunter Wayne Crow                 PRECINCT 5                                             01 
00110040002000001000000000000000001000000000000000000000000000000000000000000000000000000000000000000GRN       Railroad Commissioner                                   GRN Hunter Wayne Crow                 PRECINCT 6                                             01 
00110040003000003000000000001000002000000000000000000000000000000000000000000000000000000000000000000GRN       Railroad Commissioner                                   GRN Hunter Wayne Crow                 PRECINCT 7                                             01 
00110040004000005000000000002000003000000000000000000000000000000000000000000000000000000000000000000GRN       Railroad Commissioner                                   GRN Hunter Wayne Crow                 PRECINCT 8                                             01 
00110040005000001000000000001000000000000000000000000000000000000000000000000000000000000000000000000GRN       Railroad Commissioner                                   GRN Hunter Wayne Crow                 PRECINCT 9                                             01 
00110040006000003000000000002000001000000000000000000000000000000000000000000000000000000000000000000GRN       Railroad Commissioner                                   GRN Hunter Wayne Crow                 PRECINCT 10                                            01 
00110040007000000000000000000000000000000000000000000000000000000000000000000000000000000000000000000GRN       Railroad Commissioner                                   GRN Hunter Wayne Crow                 PRECINCT 11                                            01 
00110040008000003000000000003000000000000000000000000000000000000000000000000000000000000000000000000GRN       Railroad Commissioner                                   GRN Hunter Wayne Crow                 PRECINCT 12                                            01 
00110040009000002000000000002000000000000000000000000000000000000000000000000000000000000000000000000GRN       Railroad Commissioner                                   GRN Hunter Wayne Crow                 PRECINCT 13                                            01 
00110040010000001000000000001000000000000000000000000000000000000000000000000000000000000000000000000GRN       Railroad Commissioner                                   GRN Hunter Wayne Crow                 PRECINCT 14                                            01 
00110040011000004000000000001000003000000000000000000000000000000000000000000000000000000000000000000GRN       Railroad Commissioner                                   GRN Hunter Wayne Crow                 PRECINCT 15                                            01 
00120010001000063000000000036000027000000000000000000000000000000000000000000000000000000000000000000REP       Justice, Supreme Ct. Pl. 3                              REP Debra Lehrmann                    PRECINCT 5                                             01 
00120010002000185000009000109000067000000000000000000000000000000000000000000000000000000000000000000REP       Justice, Supreme Ct. Pl. 3                              REP Debra Lehrmann                    PRECINCT 6                                             01 
00120010003000922000017000605000300000000000000000000000000000000000000000000000000000000000000000000REP       Justice, Supreme Ct. Pl. 3                              REP Debra Lehrmann                    PRECINCT 7                                             01 
00120010004000347000010000214000123000000000000000000000000000000000000000000000000000000000000000000REP       Justice, Supreme Ct. Pl. 3                              REP Debra Lehrmann                    PRECINCT 8                                             01 
00120010005000272000005000118000149000000000000000000000000000000000000000000000000000000000000000000REP       Justice, Supreme Ct. Pl. 3                              REP Debra Lehrmann                    PRECINCT 9                                             01 
00120010006000415000012000250000153000000000000000000000000000000000000000000000000000000000000000000REP       Justice, Supreme Ct. Pl. 3                              REP Debra Lehrmann                    PRECINCT 10                                            01 
00120010007000068000006000034000028000000000000000000000000000000000000000000000000000000000000000000REP       Justice, Supreme Ct. Pl. 3                              REP Debra Lehrmann                    PRECINCT 11                                            01 
00120010008000576000016000356000204000000000000000000000000000000000000000000000000000000000000000000REP       Justice, Supreme Ct. Pl. 3                              REP Debra Lehrmann                    PRECINCT 12                                            01 
00120010009000238000004000114000120000000000000000000000000000000000000000000000000000000000000000000REP       Justice, Supreme Ct. Pl. 3                              REP Debra Lehrmann                    PRECINCT 13                                            01 
00120010010000060000001000043000016000000000000000000000000000000000000000000000000000000000000000000REP       Justice, Supreme Ct. Pl. 3                              REP Debra Lehrmann                    PRECINCT 14                                            01 
00120010011000387000014000209000164000000000000000000000000000000000000000000000000000000000000000000REP       Justice, Supreme Ct. Pl. 3                              REP Debra Lehrmann                    PRECINCT 15                                            01 
00120020001000006000000000004000002000000000000000000000000000000000000000000000000000000000000000000DEM       Justice, Supreme Ct. Pl. 3                              DEM Erin A. Nowell                    PRECINCT 5                                             01 
00120020002000014000001000009000004000000000000000000000000000000000000000000000000000000000000000000DEM       Justice, Supreme Ct. Pl. 3                              DEM Erin A. Nowell                    PRECINCT 6                                             01 
00120020003000103000011000060000032000000000000000000000000000000000000000000000000000000000000000000DEM       Justice, Supreme Ct. Pl. 3                              DEM Erin A. Nowell                    PRECINCT 7                                             01 
00120020004000057000001000037000019000000000000000000000000000000000000000000000000000000000000000000DEM       Justice, Supreme Ct. Pl. 3                              DEM Erin A. Nowell                    PRECINCT 8                                             01 
00120020005000017000000000009000008000000000000000000000000000000000000000000000000000000000000000000DEM       Justice, Supreme Ct. Pl. 3                              DEM Erin A. Nowell                    PRECINCT 9                                             01 
00120020006000033000000000023000010000000000000000000000000000000000000000000000000000000000000000000DEM       Justice, Supreme Ct. Pl. 3                              DEM Erin A. Nowell                    PRECINCT 10                                            01 
00120020007000003000000000002000001000000000000000000000000000000000000000000000000000000000000000000DEM       Justice, Supreme Ct. Pl. 3                              DEM Erin A. Nowell                    PRECINCT 11                                            01 
00120020008000097000005000064000028000000000000000000000000000000000000000000000000000000000000000000DEM       Justice, Supreme Ct. Pl. 3                              DEM Erin A. Nowell                    PRECINCT 12                                            01 
00120020009000036000000000022000014000000000000000000000000000000000000000000000000000000000000000000DEM       Justice, Supreme Ct. Pl. 3                              DEM Erin A. Nowell                    PRECINCT 13                                            01 
00120020010000006000000000005000001000000000000000000000000000000000000000000000000000000000000000000DEM       Justice, Supreme Ct. Pl. 3                              DEM Erin A. Nowell                    PRECINCT 14                                            01 
00120020011000082000012000039000031000000000000000000000000000000000000000000000000000000000000000000DEM       Justice, Supreme Ct. Pl. 3                              DEM Erin A. Nowell                    PRECINCT 15                                            01 
00120030001000002000000000001000001000000000000000000000000000000000000000000000000000000000000000000LIB       Justice, Supreme Ct. Pl. 3                              LIB Thomas Edward Oxford              PRECINCT 5                                             01 
00120030002000000000000000000000000000000000000000000000000000000000000000000000000000000000000000000LIB       Justice, Supreme Ct. Pl. 3                              LIB Thomas Edward Oxford              PRECINCT 6                                             01 
00120030003000018000000000012000006000000000000000000000000000000000000000000000000000000000000000000LIB       Justice, Supreme Ct. Pl. 3                              LIB Thomas Edward Oxford              PRECINCT 7                                             01 
00120030004000007000000000002000005000000000000000000000000000000000000000000000000000000000000000000LIB       Justice, Supreme Ct. Pl. 3                              LIB Thomas Edward Oxford              PRECINCT 8                                             01 
00120030005000006000000000004000002000000000000000000000000000000000000000000000000000000000000000000LIB       Justice, Supreme Ct. Pl. 3                              LIB Thomas Edward Oxford              PRECINCT 9                                             01 
00120030006000002000000000000000002000000000000000000000000000000000000000000000000000000000000000000LIB       Justice, Supreme Ct. Pl. 3                              LIB Thomas Edward Oxford              PRECINCT 10                                            01 
00120030007000001000000000000000001000000000000000000000000000000000000000000000000000000000000000000LIB       Justice, Supreme Ct. Pl. 3                              LIB Thomas Edward Oxford              PRECINCT 11                                            01 
00120030008000011000000000006000005000000000000000000000000000000000000000000000000000000000000000000LIB       Justice, Supreme Ct. Pl. 3                              LIB Thomas Edward Oxford              PRECINCT 12                                            01 
00120030009000007000000000006000001000000000000000000000000000000000000000000000000000000000000000000LIB       Justice, Supreme Ct. Pl. 3                              LIB Thomas Edward Oxford              PRECINCT 13                                            01 
00120030010000000000000000000000000000000000000000000000000000000000000000000000000000000000000000000LIB       Justice, Supreme Ct. Pl. 3                              LIB Thomas Edward Oxford              PRECINCT 14                                            01 
00120030011000012000000000008000004000000000000000000000000000000000000000000000000000000000000000000LIB       Justice, Supreme Ct. Pl. 3                              LIB Thomas Edward Oxford              PRECINCT 15                                            01 
00130010001000063000000000036000027000000000000000000000000000000000000000000000000000000000000000000REP       Justice, Supreme Ct. Pl. 5                              REP Rebeca Huddle                     PRECINCT 5                                             01 
00130010002000186000009000109000068000000000000000000000000000000000000000000000000000000000000000000REP       Justice, Supreme Ct. Pl. 5                              REP Rebeca Huddle                     PRECINCT 6                                             01 
00130010003000931000017000611000303000000000000000000000000000000000000000000000000000000000000000000REP       Justice, Supreme Ct. Pl. 5                              REP Rebeca Huddle                     PRECINCT 7                                             01 
00130010004000348000010000213000125000000000000000000000000000000000000000000000000000000000000000000REP       Justice, Supreme Ct. Pl. 5                              REP Rebeca Huddle                     PRECINCT 8                                             01 
00130010005000281000005000123000153000000000000000000000000000000000000000000000000000000000000000000REP       Justice, Supreme Ct. Pl. 5                              REP Rebeca Huddle                     PRECINCT 9                                             01 
00130010006000414000012000249000153000000000000000000000000000000000000000000000000000000000000000000REP       Justice, Supreme Ct. Pl. 5                              REP Rebeca Huddle                     PRECINCT 10                                            01 
00130010007000067000006000033000028000000000000000000000000000000000000000000000000000000000000000000REP       Justice, Supreme Ct. Pl. 5                              REP Rebeca Huddle                     PRECINCT 11                                            01 
00130010008000580000016000359000205000000000000000000000000000000000000000000000000000000000000000000REP       Justice, Supreme Ct. Pl. 5                              REP Rebeca Huddle                     PRECINCT 12                                            01 
00130010009000244000004000119000121000000000000000000000000000000000000000000000000000000000000000000REP       Justice, Supreme Ct. Pl. 5                              REP Rebeca Huddle                     PRECINCT 13                                            01 
00130010010000059000000000043000016000000000000000000000000000000000000000000000000000000000000000000REP       Justice, Supreme Ct. Pl. 5                              REP Rebeca Huddle                     PRECINCT 14                                            01 
00130010011000394000013000215000166000000000000000000000000000000000000000000000000000000000000000000REP       Justice, Supreme Ct. Pl. 5                              REP Rebeca Huddle                     PRECINCT 15                                            01 
00130020001000007000000000004000003000000000000000000000000000000000000000000000000000000000000000000DEM       Justice, Supreme Ct. Pl. 5                              DEM Amanda Reichek                    PRECINCT 5                                             01 
00130020002000013000001000009000003000000000000000000000000000000000000000000000000000000000000000000DEM       Justice, Supreme Ct. Pl. 5                              DEM Amanda Reichek                    PRECINCT 6                                             01 
00130020003000109000011000065000033000000000000000000000000000000000000000000000000000000000000000000DEM       Justice, Supreme Ct. Pl. 5                              DEM Amanda Reichek                    PRECINCT 7                                             01 
00130020004000060000001000037000022000000000000000000000000000000000000000000000000000000000000000000DEM       Justice, Supreme Ct. Pl. 5                              DEM Amanda Reichek                    PRECINCT 8                                             01 
00130020005000014000000000008000006000000000000000000000000000000000000000000000000000000000000000000DEM       Justice, Supreme Ct. Pl. 5                              DEM Amanda Reichek                    PRECINCT 9                                             01 
00130020006000035000000000024000011000000000000000000000000000000000000000000000000000000000000000000DEM       Justice, Supreme Ct. Pl. 5                              DEM Amanda Reichek                    PRECINCT 10                                            01 
00130020007000005000000000003000002000000000000000000000000000000000000000000000000000000000000000000DEM       Justice, Supreme Ct. Pl. 5                              DEM Amanda Reichek                    PRECINCT 11                                            01 
00130020008000100000005000065000030000000000000000000000000000000000000000000000000000000000000000000DEM       Justice, Supreme Ct. Pl. 5                              DEM Amanda Reichek                    PRECINCT 12                                            01 
00130020009000039000000000024000015000000000000000000000000000000000000000000000000000000000000000000DEM       Justice, Supreme Ct. Pl. 5                              DEM Amanda Reichek                    PRECINCT 13                                            01 
00130020010000007000001000005000001000000000000000000000000000000000000000000000000000000000000000000DEM       Justice, Supreme Ct. Pl. 5                              DEM Amanda Reichek                    PRECINCT 14                                            01 
00130020011000084000012000039000033000000000000000000000000000000000000000000000000000000000000000000DEM       Justice, Supreme Ct. Pl. 5                              DEM Amanda Reichek                    PRECINCT 15                                            01 
00140010001000061000000000035000026000000000000000000000000000000000000000000000000000000000000000000REP       Justice, Supreme Ct. Pl. 9                              REP Evan Young                        PRECINCT 5                                             01 
00140010002000186000009000110000067000000000000000000000000000000000000000000000000000000000000000000REP       Justice, Supreme Ct. Pl. 9                              REP Evan Young                        PRECINCT 6                                             01 
00140010003000933000016000616000301000000000000000000000000000000000000000000000000000000000000000000REP       Justice, Supreme Ct. Pl. 9                              REP Evan Young                        PRECINCT 7                                             01 
