00010010001000000000000000000000000000000000000000000000000000000000000000000000000000000000000000000          REGISTERED VOTERS - TOTAL                               REGISTERED VOTERS - TOTAL             Precinct 1-1                                           00 
00010010002000000000000000000000000000000000000000000000000000000000000000000000000000000000000000000          REGISTERED VOTERS - TOTAL                               REGISTERED VOTERS - TOTAL             Precinct 1-5                                           00 
00010010003000000000000000000000000000000000000000000000000000000000000000000000000000000000000000000          REGISTERED VOTERS - TOTAL                               REGISTERED VOTERS - TOTAL             Precinct 2-2                                           00 
00010010004000000000000000000000000000000000000000000000000000000000000000000000000000000000000000000          REGISTERED VOTERS - TOTAL                               REGISTERED VOTERS - TOTAL             Precinct 2-6                                           00 
00010010005000000000000000000000000000000000000000000000000000000000000000000000000000000000000000000          REGISTERED VOTERS - TOTAL                               REGISTERED VOTERS - TOTAL             Precinct 3-3                                           00 
00010010006000000000000000000000000000000000000000000000000000000000000000000000000000000000000000000          REGISTERED VOTERS - TOTAL                               REGISTERED VOTERS - TOTAL             Precinct 4-4                                           00 
00020010001000293000009000189000095000000000000000000000000000000000000000000000000000000000000000000          BALLOTS CAST - TOTAL                                    BALLOTS CAST - TOTAL                  Precinct 1-1                                           00 
00020010002000055000002000008000045000000000000000000000000000000000000000000000000000000000000000000          BALLOTS CAST - TOTAL                                    BALLOTS CAST - TOTAL                  Precinct 1-5                                           00 
00020010003000092000001000058000033000000000000000000000000000000000000000000000000000000000000000000          BALLOTS CAST - TOTAL                                    BALLOTS CAST - TOTAL                  Precinct 2-2                                           00 
00020010004000155000002000109000044000000000000000000000000000000000000000000000000000000000000000000          BALLOTS CAST - TOTAL                                    BALLOTS CAST - TOTAL                  Precinct 2-6                                           00 
00020010005000183000006000136000041000000000000000000000000000000000000000000000000000000000000000000          BALLOTS CAST - TOTAL                                    BALLOTS CAST - TOTAL                  Precinct 3-3                                           00 
00020010006000309000006000254000049000000000000000000000000000000000000000000000000000000000000000000          BALLOTS CAST - TOTAL                                    BALLOTS CAST - TOTAL                  Precinct 4-4                                           00 
00030010001000000000000000000000000000000000000000000000000000000000000000000000000000000000000000000          BALLOTS CAST - BLANK                                    BALLOTS CAST - BLANK                  Precinct 1-1                                           00 
00030010002000000000000000000000000000000000000000000000000000000000000000000000000000000000000000000          BALLOTS CAST - BLANK                                    BALLOTS CAST - BLANK                  Precinct 1-5                                           00 
00030010003000000000000000000000000000000000000000000000000000000000000000000000000000000000000000000          BALLOTS CAST - BLANK                                    BALLOTS CAST - BLANK                  Precinct 2-2                                           00 
00030010004000000000000000000000000000000000000000000000000000000000000000000000000000000000000000000          BALLOTS CAST - BLANK                                    BALLOTS CAST - BLANK                  Precinct 2-6                                           00 
00030010005000000000000000000000000000000000000000000000000000000000000000000000000000000000000000000          BALLOTS CAST - BLANK                                    BALLOTS CAST - BLANK                  Precinct 3-3                                           00 
00030010006000000000000000000000000000000000000000000000000000000000000000000000000000000000000000000          BALLOTS CAST - BLANK                                    BALLOTS CAST - BLANK                  Precinct 4-4                                           00 
00040010001000247000005000164000078000000000000000000000000000000000000000000000000000000000000000000REP       US Representative, Dist 23                              REP Tony Gonzales                     Precinct 1-1                                           01 
00040010002000052000002000006000044000000000000000000000000000000000000000000000000000000000000000000REP       US Representative, Dist 23                              REP Tony Gonzales                     Precinct 1-5                                           01 
00040010003000083000001000052000030000000000000000000000000000000000000000000000000000000000000000000REP       US Representative, Dist 23                              REP Tony Gonzales                     Precinct 2-2                                           01 
00040010004000112000002000077000033000000000000000000000000000000000000000000000000000000000000000000REP       US Representative, Dist 23                              REP Tony Gonzales                     Precinct 2-6                                           01 
00040010005000132000002000104000026000000000000000000000000000000000000000000000000000000000000000000REP       US Representative, Dist 23                              REP Tony Gonzales                     Precinct 3-3                                           01 
00040010006000227000004000185000038000000000000000000000000000000000000000000000000000000000000000000REP       US Representative, Dist 23                              REP Tony Gonzales                     Precinct 4-4                                           01 
00040020001000018000001000007000010000000000000000000000000000000000000000000000000000000000000000000DEM       US Representative, Dist 23                              DEM John Lira                         Precinct 1-1                                           01 
00040020002000000000000000000000000000000000000000000000000000000000000000000000000000000000000000000DEM       US Representative, Dist 23                              DEM John Lira                         Precinct 1-5                                           01 
00040020003000004000000000004000000000000000000000000000000000000000000000000000000000000000000000000DEM       US Representative, Dist 23                              DEM John Lira                         Precinct 2-2                                           01 
00040020004000018000000000013000005000000000000000000000000000000000000000000000000000000000000000000DEM       US Representative, Dist 23                              DEM John Lira                         Precinct 2-6                                           01 
00040020005000026000003000013000010000000000000000000000000000000000000000000000000000000000000000000DEM       US Representative, Dist 23                              DEM John Lira                         Precinct 3-3                                           01 
00040020006000032000001000028000003000000000000000000000000000000000000000000000000000000000000000000DEM       US Representative, Dist 23                              DEM John Lira                         Precinct 4-4                                           01 
00040030001000023000003000016000004000000000000000000000000000000000000000000000000000000000000000000IND       US Representative, Dist 23                              IND Frank Lopez Jr                    Precinct 1-1                                           01 
00040030002000003000000000002000001000000000000000000000000000000000000000000000000000000000000000000IND       US Representative, Dist 23                              IND Frank Lopez Jr                    Precinct 1-5                                           01 
00040030003000005000000000002000003000000000000000000000000000000000000000000000000000000000000000000IND       US Representative, Dist 23                              IND Frank Lopez Jr                    Precinct 2-2                                           01 
00040030004000013000000000010000003000000000000000000000000000000000000000000000000000000000000000000IND       US Representative, Dist 23                              IND Frank Lopez Jr                    Precinct 2-6                                           01 
00040030005000014000001000011000002000000000000000000000000000000000000000000000000000000000000000000IND       US Representative, Dist 23                              IND Frank Lopez Jr                    Precinct 3-3                                           01 
00040030006000027000000000024000003000000000000000000000000000000000000000000000000000000000000000000IND       US Representative, Dist 23                              IND Frank Lopez Jr                    Precinct 4-4                                           01 
00040040001000000000000000000000000000000000000000000000000000000000000000000000000000000000000000000          US Representative, Dist 23                              OVER VOTES                            Precinct 1-1                                           01 
00040040002000000000000000000000000000000000000000000000000000000000000000000000000000000000000000000          US Representative, Dist 23                              OVER VOTES                            Precinct 1-5                                           01 
00040040003000000000000000000000000000000000000000000000000000000000000000000000000000000000000000000          US Representative, Dist 23                              OVER VOTES                            Precinct 2-2                                           01 
00040040004000000000000000000000000000000000000000000000000000000000000000000000000000000000000000000          US Representative, Dist 23                              OVER VOTES                            Precinct 2-6                                           01 
00040040005000000000000000000000000000000000000000000000000000000000000000000000000000000000000000000          US Representative, Dist 23                              OVER VOTES                            Precinct 3-3                                           01 
00040040006000000000000000000000000000000000000000000000000000000000000000000000000000000000000000000          US Representative, Dist 23                              OVER VOTES                            Precinct 4-4                                           01 
00040050001000005000000000002000003000000000000000000000000000000000000000000000000000000000000000000          US Representative, Dist 23                              UNDER VOTES                           Precinct 1-1                                           01 
00040050002000000000000000000000000000000000000000000000000000000000000000000000000000000000000000000          US Representative, Dist 23                              UNDER VOTES                           Precinct 1-5                                           01 
00040050003000000000000000000000000000000000000000000000000000000000000000000000000000000000000000000          US Representative, Dist 23                              UNDER VOTES                           Precinct 2-2                                           01 
00040050004000012000000000009000003000000000000000000000000000000000000000000000000000000000000000000          US Representative, Dist 23                              UNDER VOTES                           Precinct 2-6                                           01 
00040050005000011000000000008000003000000000000000000000000000000000000000000000000000000000000000000          US Representative, Dist 23                              UNDER VOTES                           Precinct 3-3                                           01 
00040050006000023000001000017000005000000000000000000000000000000000000000000000000000000000000000000          US Representative, Dist 23                              UNDER VOTES                           Precinct 4-4                                           01 
00050010001000261000005000175000081000000000000000000000000000000000000000000000000000000000000000000REP       Governor                                                REP Greg Abbott                       Precinct 1-1                                           01 
00050010002000054000002000008000044000000000000000000000000000000000000000000000000000000000000000000REP       Governor                                                REP Greg Abbott                       Precinct 1-5                                           01 
00050010003000087000001000054000032000000000000000000000000000000000000000000000000000000000000000000REP       Governor                                                REP Greg Abbott                       Precinct 2-2                                           01 
00050010004000120000002000085000033000000000000000000000000000000000000000000000000000000000000000000REP       Governor                                                REP Greg Abbott                       Precinct 2-6                                           01 
00050010005000140000002000109000029000000000000000000000000000000000000000000000000000000000000000000REP       Governor                                                REP Greg Abbott                       Precinct 3-3                                           01 
00050010006000245000004000202000039000000000000000000000000000000000000000000000000000000000000000000REP       Governor                                                REP Greg Abbott                       Precinct 4-4                                           01 
00050020001000022000001000011000010000000000000000000000000000000000000000000000000000000000000000000DEM       Governor                                                DEM Beto O'Rourke                     Precinct 1-1                                           01 
00050020002000000000000000000000000000000000000000000000000000000000000000000000000000000000000000000DEM       Governor                                                DEM Beto O'Rourke                     Precinct 1-5                                           01 
00050020003000004000000000004000000000000000000000000000000000000000000000000000000000000000000000000DEM       Governor                                                DEM Beto O'Rourke                     Precinct 2-2                                           01 
00050020004000020000000000012000008000000000000000000000000000000000000000000000000000000000000000000DEM       Governor                                                DEM Beto O'Rourke                     Precinct 2-6                                           01 
00050020005000033000004000018000011000000000000000000000000000000000000000000000000000000000000000000DEM       Governor                                                DEM Beto O'Rourke                     Precinct 3-3                                           01 
00050020006000044000001000039000004000000000000000000000000000000000000000000000000000000000000000000DEM       Governor                                                DEM Beto O'Rourke                     Precinct 4-4                                           01 
00050030001000005000002000001000002000000000000000000000000000000000000000000000000000000000000000000LIB       Governor                                                LIB Mark Tippetts                     Precinct 1-1                                           01 
00050030002000000000000000000000000000000000000000000000000000000000000000000000000000000000000000000LIB       Governor                                                LIB Mark Tippetts                     Precinct 1-5                                           01 
00050030003000000000000000000000000000000000000000000000000000000000000000000000000000000000000000000LIB       Governor                                                LIB Mark Tippetts                     Precinct 2-2                                           01 
00050030004000004000000000004000000000000000000000000000000000000000000000000000000000000000000000000LIB       Governor                                                LIB Mark Tippetts                     Precinct 2-6                                           01 
00050030005000003000000000003000000000000000000000000000000000000000000000000000000000000000000000000LIB       Governor                                                LIB Mark Tippetts                     Precinct 3-3                                           01 
00050030006000000000000000000000000000000000000000000000000000000000000000000000000000000000000000000LIB       Governor                                                LIB Mark Tippetts                     Precinct 4-4                                           01 
00050040001000005000001000002000002000000000000000000000000000000000000000000000000000000000000000000GRN       Governor                                                GRN Delilah Barrios                   Precinct 1-1                                           01 
00050040002000000000000000000000000000000000000000000000000000000000000000000000000000000000000000000GRN       Governor                                                GRN Delilah Barrios                   Precinct 1-5                                           01 
00050040003000001000000000000000001000000000000000000000000000000000000000000000000000000000000000000GRN       Governor                                                GRN Delilah Barrios                   Precinct 2-2                                           01 
00050040004000001000000000000000001000000000000000000000000000000000000000000000000000000000000000000GRN       Governor                                                GRN Delilah Barrios                   Precinct 2-6                                           01 
00050040005000003000000000002000001000000000000000000000000000000000000000000000000000000000000000000GRN       Governor                                                GRN Delilah Barrios                   Precinct 3-3                                           01 
00050040006000004000000000002000002000000000000000000000000000000000000000000000000000000000000000000GRN       Governor                                                GRN Delilah Barrios                   Precinct 4-4                                           01 
00050060001000000000000000000000000000000000000000000000000000000000000000000000000000000000000000000NON       Governor                                                Write-in                              Precinct 1-1                                           01 
00050060002000000000000000000000000000000000000000000000000000000000000000000000000000000000000000000NON       Governor                                                Write-in                              Precinct 1-5                                           01 
00050060003000000000000000000000000000000000000000000000000000000000000000000000000000000000000000000NON       Governor                                                Write-in                              Precinct 2-2                                           01 
00050060004000000000000000000000000000000000000000000000000000000000000000000000000000000000000000000NON       Governor                                                Write-in                              Precinct 2-6                                           01 
00050060005000000000000000000000000000000000000000000000000000000000000000000000000000000000000000000NON       Governor                                                Write-in                              Precinct 3-3                                           01 
00050060006000000000000000000000000000000000000000000000000000000000000000000000000000000000000000000NON       Governor                                                Write-in                              Precinct 4-4                                           01 
00050070001000000000000000000000000000000000000000000000000000000000000000000000000000000000000000000          Governor                                                OVER VOTES                            Precinct 1-1                                           01 
00050070002000000000000000000000000000000000000000000000000000000000000000000000000000000000000000000          Governor                                                OVER VOTES                            Precinct 1-5                                           01 
00050070003000000000000000000000000000000000000000000000000000000000000000000000000000000000000000000          Governor                                                OVER VOTES                            Precinct 2-2                                           01 
00050070004000000000000000000000000000000000000000000000000000000000000000000000000000000000000000000          Governor                                                OVER VOTES                            Precinct 2-6                                           01 
00050070005000000000000000000000000000000000000000000000000000000000000000000000000000000000000000000          Governor                                                OVER VOTES                            Precinct 3-3                                           01 
00050070006000000000000000000000000000000000000000000000000000000000000000000000000000000000000000000          Governor                                                OVER VOTES                            Precinct 4-4                                           01 
00050080001000000000000000000000000000000000000000000000000000000000000000000000000000000000000000000          Governor                                                UNDER VOTES                           Precinct 1-1                                           01 
00050080002000001000000000000000001000000000000000000000000000000000000000000000000000000000000000000          Governor                                                UNDER VOTES                           Precinct 1-5                                           01 
00050080003000000000000000000000000000000000000000000000000000000000000000000000000000000000000000000          Governor                                                UNDER VOTES                           Precinct 2-2                                           01 
00050080004000010000000000008000002000000000000000000000000000000000000000000000000000000000000000000          Governor                                                UNDER VOTES                           Precinct 2-6                                           01 
00050080005000004000000000004000000000000000000000000000000000000000000000000000000000000000000000000          Governor                                                UNDER VOTES                           Precinct 3-3                                           01 
00050080006000016000001000011000004000000000000000000000000000000000000000000000000000000000000000000          Governor                                                UNDER VOTES                           Precinct 4-4                                           01 
00060010001000244000006000161000077000000000000000000000000000000000000000000000000000000000000000000REP       Lieutenant Governor                                     REP Dan Patrick                       Precinct 1-1                                           01 
00060010002000052000001000007000044000000000000000000000000000000000000000000000000000000000000000000REP       Lieutenant Governor                                     REP Dan Patrick                       Precinct 1-5                                           01 
00060010003000079000001000048000030000000000000000000000000000000000000000000000000000000000000000000REP       Lieutenant Governor                                     REP Dan Patrick                       Precinct 2-2                                           01 
00060010004000104000002000071000031000000000000000000000000000000000000000000000000000000000000000000REP       Lieutenant Governor                                     REP Dan Patrick                       Precinct 2-6                                           01 
00060010005000130000002000100000028000000000000000000000000000000000000000000000000000000000000000000REP       Lieutenant Governor                                     REP Dan Patrick                       Precinct 3-3                                           01 
00060010006000229000004000189000036000000000000000000000000000000000000000000000000000000000000000000REP       Lieutenant Governor                                     REP Dan Patrick                       Precinct 4-4                                           01 
00060020001000034000001000019000014000000000000000000000000000000000000000000000000000000000000000000DEM       Lieutenant Governor                                     DEM Mike Collier                      Precinct 1-1                                           01 
00060020002000001000000000001000000000000000000000000000000000000000000000000000000000000000000000000DEM       Lieutenant Governor                                     DEM Mike Collier                      Precinct 1-5                                           01 
00060020003000006000000000006000000000000000000000000000000000000000000000000000000000000000000000000DEM       Lieutenant Governor                                     DEM Mike Collier                      Precinct 2-2                                           01 
00060020004000021000000000017000004000000000000000000000000000000000000000000000000000000000000000000DEM       Lieutenant Governor                                     DEM Mike Collier                      Precinct 2-6                                           01 
00060020005000036000004000020000012000000000000000000000000000000000000000000000000000000000000000000DEM       Lieutenant Governor                                     DEM Mike Collier                      Precinct 3-3                                           01 
00060020006000045000001000038000006000000000000000000000000000000000000000000000000000000000000000000DEM       Lieutenant Governor                                     DEM Mike Collier                      Precinct 4-4                                           01 
00060030001000010000002000005000003000000000000000000000000000000000000000000000000000000000000000000LIB       Lieutenant Governor                                     LIB Shanna Steele                     Precinct 1-1                                           01 
00060030002000002000001000000000001000000000000000000000000000000000000000000000000000000000000000000LIB       Lieutenant Governor                                     LIB Shanna Steele                     Precinct 1-5                                           01 
00060030003000002000000000002000000000000000000000000000000000000000000000000000000000000000000000000LIB       Lieutenant Governor                                     LIB Shanna Steele                     Precinct 2-2                                           01 
00060030004000009000000000005000004000000000000000000000000000000000000000000000000000000000000000000LIB       Lieutenant Governor                                     LIB Shanna Steele                     Precinct 2-6                                           01 
00060030005000004000000000004000000000000000000000000000000000000000000000000000000000000000000000000LIB       Lieutenant Governor                                     LIB Shanna Steele                     Precinct 3-3                                           01 
00060030006000009000000000007000002000000000000000000000000000000000000000000000000000000000000000000LIB       Lieutenant Governor                                     LIB Shanna Steele                     Precinct 4-4                                           01 
00060040001000000000000000000000000000000000000000000000000000000000000000000000000000000000000000000          Lieutenant Governor                                     OVER VOTES                            Precinct 1-1                                           01 
00060040002000000000000000000000000000000000000000000000000000000000000000000000000000000000000000000          Lieutenant Governor                                     OVER VOTES                            Precinct 1-5                                           01 
00060040003000000000000000000000000000000000000000000000000000000000000000000000000000000000000000000          Lieutenant Governor                                     OVER VOTES                            Precinct 2-2                                           01 
00060040004000000000000000000000000000000000000000000000000000000000000000000000000000000000000000000          Lieutenant Governor                                     OVER VOTES                            Precinct 2-6                                           01 
00060040005000000000000000000000000000000000000000000000000000000000000000000000000000000000000000000          Lieutenant Governor                                     OVER VOTES                            Precinct 3-3                                           01 
00060040006000000000000000000000000000000000000000000000000000000000000000000000000000000000000000000          Lieutenant Governor                                     OVER VOTES                            Precinct 4-4                                           01 
00060050001000005000000000004000001000000000000000000000000000000000000000000000000000000000000000000          Lieutenant Governor                                     UNDER VOTES                           Precinct 1-1                                           01 
00060050002000000000000000000000000000000000000000000000000000000000000000000000000000000000000000000          Lieutenant Governor                                     UNDER VOTES                           Precinct 1-5                                           01 
00060050003000005000000000002000003000000000000000000000000000000000000000000000000000000000000000000          Lieutenant Governor                                     UNDER VOTES                           Precinct 2-2                                           01 
00060050004000021000000000016000005000000000000000000000000000000000000000000000000000000000000000000          Lieutenant Governor                                     UNDER VOTES                           Precinct 2-6                                           01 
00060050005000013000000000012000001000000000000000000000000000000000000000000000000000000000000000000          Lieutenant Governor                                     UNDER VOTES                           Precinct 3-3                                           01 
00060050006000026000001000020000005000000000000000000000000000000000000000000000000000000000000000000          Lieutenant Governor                                     UNDER VOTES                           Precinct 4-4                                           01 
00070010001000251000005000168000078000000000000000000000000000000000000000000000000000000000000000000REP       Attorney General                                        REP Ken Paxton                        Precinct 1-1                                           01 
00070010002000051000001000007000043000000000000000000000000000000000000000000000000000000000000000000REP       Attorney General                                        REP Ken Paxton                        Precinct 1-5                                           01 
00070010003000083000001000051000031000000000000000000000000000000000000000000000000000000000000000000REP       Attorney General                                        REP Ken Paxton                        Precinct 2-2                                           01 
00070010004000108000002000075000031000000000000000000000000000000000000000000000000000000000000000000REP       Attorney General                                        REP Ken Paxton                        Precinct 2-6                                           01 
00070010005000133000002000101000030000000000000000000000000000000000000000000000000000000000000000000REP       Attorney General                                        REP Ken Paxton                        Precinct 3-3                                           01 
00070010006000229000004000192000033000000000000000000000000000000000000000000000000000000000000000000REP       Attorney General                                        REP Ken Paxton                        Precinct 4-4                                           01 
00070020001000028000003000011000014000000000000000000000000000000000000000000000000000000000000000000DEM       Attorney General                                        DEM Rochelle Mercedes Garza           Precinct 1-1                                           01 
00070020002000000000000000000000000000000000000000000000000000000000000000000000000000000000000000000DEM       Attorney General                                        DEM Rochelle Mercedes Garza           Precinct 1-5                                           01 
00070020003000008000000000006000002000000000000000000000000000000000000000000000000000000000000000000DEM       Attorney General                                        DEM Rochelle Mercedes Garza           Precinct 2-2                                           01 
00070020004000022000000000015000007000000000000000000000000000000000000000000000000000000000000000000DEM       Attorney General                                        DEM Rochelle Mercedes Garza           Precinct 2-6                                           01 
00070020005000033000003000022000008000000000000000000000000000000000000000000000000000000000000000000DEM       Attorney General                                        DEM Rochelle Mercedes Garza           Precinct 3-3                                           01 
00070020006000044000001000037000006000000000000000000000000000000000000000000000000000000000000000000DEM       Attorney General                                        DEM Rochelle Mercedes Garza           Precinct 4-4                                           01 
00070030001000007000001000005000001000000000000000000000000000000000000000000000000000000000000000000LIB       Attorney General                                        LIB Mark Ash                          Precinct 1-1                                           01 
00070030002000004000001000001000002000000000000000000000000000000000000000000000000000000000000000000LIB       Attorney General                                        LIB Mark Ash                          Precinct 1-5                                           01 
00070030003000000000000000000000000000000000000000000000000000000000000000000000000000000000000000000LIB       Attorney General                                        LIB Mark Ash                          Precinct 2-2                                           01 
00070030004000006000000000003000003000000000000000000000000000000000000000000000000000000000000000000LIB       Attorney General                                        LIB Mark Ash                          Precinct 2-6                                           01 
00070030005000001000000000001000000000000000000000000000000000000000000000000000000000000000000000000LIB       Attorney General                                        LIB Mark Ash                          Precinct 3-3                                           01 
00070030006000009000000000006000003000000000000000000000000000000000000000000000000000000000000000000LIB       Attorney General                                        LIB Mark Ash                          Precinct 4-4                                           01 
00070040001000000000000000000000000000000000000000000000000000000000000000000000000000000000000000000          Attorney General                                        OVER VOTES                            Precinct 1-1                                           01 
00070040002000000000000000000000000000000000000000000000000000000000000000000000000000000000000000000          Attorney General                                        OVER VOTES                            Precinct 1-5                                           01 
00070040003000000000000000000000000000000000000000000000000000000000000000000000000000000000000000000          Attorney General                                        OVER VOTES                            Precinct 2-2                                           01 
00070040004000000000000000000000000000000000000000000000000000000000000000000000000000000000000000000          Attorney General                                        OVER VOTES                            Precinct 2-6                                           01 
00070040005000000000000000000000000000000000000000000000000000000000000000000000000000000000000000000          Attorney General                                        OVER VOTES                            Precinct 3-3                                           01 
00070040006000000000000000000000000000000000000000000000000000000000000000000000000000000000000000000          Attorney General                                        OVER VOTES                            Precinct 4-4                                           01 
00070050001000007000000000005000002000000000000000000000000000000000000000000000000000000000000000000          Attorney General                                        UNDER VOTES                           Precinct 1-1                                           01 
00070050002000000000000000000000000000000000000000000000000000000000000000000000000000000000000000000          Attorney General                                        UNDER VOTES                           Precinct 1-5                                           01 
00070050003000001000000000001000000000000000000000000000000000000000000000000000000000000000000000000          Attorney General                                        UNDER VOTES                           Precinct 2-2                                           01 
00070050004000019000000000016000003000000000000000000000000000000000000000000000000000000000000000000          Attorney General                                        UNDER VOTES                           Precinct 2-6                                           01 
00070050005000016000001000012000003000000000000000000000000000000000000000000000000000000000000000000          Attorney General                                        UNDER VOTES                           Precinct 3-3                                           01 
00070050006000027000001000019000007000000000000000000000000000000000000000000000000000000000000000000          Attorney General                                        UNDER VOTES                           Precinct 4-4                                           01 
00080010001000250000005000170000075000000000000000000000000000000000000000000000000000000000000000000REP       Comptroller of Public Accounts                          REP Glenn Hegar                       Precinct 1-1                                           01 
00080010002000054000002000008000044000000000000000000000000000000000000000000000000000000000000000000REP       Comptroller of Public Accounts                          REP Glenn Hegar                       Precinct 1-5                                           01 
00080010003000080000001000049000030000000000000000000000000000000000000000000000000000000000000000000REP       Comptroller of Public Accounts                          REP Glenn Hegar                       Precinct 2-2                                           01 
00080010004000101000002000072000027000000000000000000000000000000000000000000000000000000000000000000REP       Comptroller of Public Accounts                          REP Glenn Hegar                       Precinct 2-6                                           01 
00080010005000128000002000100000026000000000000000000000000000000000000000000000000000000000000000000REP       Comptroller of Public Accounts                          REP Glenn Hegar                       Precinct 3-3                                           01 
00080010006000228000004000188000036000000000000000000000000000000000000000000000000000000000000000000REP       Comptroller of Public Accounts                          REP Glenn Hegar                       Precinct 4-4                                           01 
00080020001000020000002000009000009000000000000000000000000000000000000000000000000000000000000000000DEM       Comptroller of Public Accounts                          DEM Janet T. Dudding                  Precinct 1-1                                           01 
00080020002000000000000000000000000000000000000000000000000000000000000000000000000000000000000000000DEM       Comptroller of Public Accounts                          DEM Janet T. Dudding                  Precinct 1-5                                           01 
00080020003000004000000000004000000000000000000000000000000000000000000000000000000000000000000000000DEM       Comptroller of Public Accounts                          DEM Janet T. Dudding                  Precinct 2-2                                           01 
00080020004000024000000000016000008000000000000000000000000000000000000000000000000000000000000000000DEM       Comptroller of Public Accounts                          DEM Janet T. Dudding                  Precinct 2-6                                           01 
00080020005000029000003000016000010000000000000000000000000000000000000000000000000000000000000000000DEM       Comptroller of Public Accounts                          DEM Janet T. Dudding                  Precinct 3-3                                           01 
00080020006000038000001000033000004000000000000000000000000000000000000000000000000000000000000000000DEM       Comptroller of Public Accounts                          DEM Janet T. Dudding                  Precinct 4-4                                           01 
00080030001000008000002000003000003000000000000000000000000000000000000000000000000000000000000000000LIB       Comptroller of Public Accounts                          LIB V. Alonzo Echevarria-Garza        Precinct 1-1                                           01 
00080030002000000000000000000000000000000000000000000000000000000000000000000000000000000000000000000LIB       Comptroller of Public Accounts                          LIB V. Alonzo Echevarria-Garza        Precinct 1-5                                           01 
00080030003000003000000000003000000000000000000000000000000000000000000000000000000000000000000000000LIB       Comptroller of Public Accounts                          LIB V. Alonzo Echevarria-Garza        Precinct 2-2                                           01 
00080030004000006000000000003000003000000000000000000000000000000000000000000000000000000000000000000LIB       Comptroller of Public Accounts                          LIB V. Alonzo Echevarria-Garza        Precinct 2-6                                           01 
00080030005000010000000000008000002000000000000000000000000000000000000000000000000000000000000000000LIB       Comptroller of Public Accounts                          LIB V. Alonzo Echevarria-Garza        Precinct 3-3                                           01 
00080030006000011000000000010000001000000000000000000000000000000000000000000000000000000000000000000LIB       Comptroller of Public Accounts                          LIB V. Alonzo Echevarria-Garza        Precinct 4-4                                           01 
00080040001000000000000000000000000000000000000000000000000000000000000000000000000000000000000000000          Comptroller of Public Accounts                          OVER VOTES                            Precinct 1-1                                           01 
00080040002000000000000000000000000000000000000000000000000000000000000000000000000000000000000000000          Comptroller of Public Accounts                          OVER VOTES                            Precinct 1-5                                           01 
00080040003000000000000000000000000000000000000000000000000000000000000000000000000000000000000000000          Comptroller of Public Accounts                          OVER VOTES                            Precinct 2-2                                           01 
00080040004000000000000000000000000000000000000000000000000000000000000000000000000000000000000000000          Comptroller of Public Accounts                          OVER VOTES                            Precinct 2-6                                           01 
00080040005000000000000000000000000000000000000000000000000000000000000000000000000000000000000000000          Comptroller of Public Accounts                          OVER VOTES                            Precinct 3-3                                           01 
00080040006000000000000000000000000000000000000000000000000000000000000000000000000000000000000000000          Comptroller of Public Accounts                          OVER VOTES                            Precinct 4-4                                           01 
00080050001000015000000000007000008000000000000000000000000000000000000000000000000000000000000000000          Comptroller of Public Accounts                          UNDER VOTES                           Precinct 1-1                                           01 
00080050002000001000000000000000001000000000000000000000000000000000000000000000000000000000000000000          Comptroller of Public Accounts                          UNDER VOTES                           Precinct 1-5                                           01 
00080050003000005000000000002000003000000000000000000000000000000000000000000000000000000000000000000          Comptroller of Public Accounts                          UNDER VOTES                           Precinct 2-2                                           01 
00080050004000024000000000018000006000000000000000000000000000000000000000000000000000000000000000000          Comptroller of Public Accounts                          UNDER VOTES                           Precinct 2-6                                           01 
00080050005000016000001000012000003000000000000000000000000000000000000000000000000000000000000000000          Comptroller of Public Accounts                          UNDER VOTES                           Precinct 3-3                                           01 
00080050006000032000001000023000008000000000000000000000000000000000000000000000000000000000000000000          Comptroller of Public Accounts                          UNDER VOTES                           Precinct 4-4                                           01 
00090010001000255000006000172000077000000000000000000000000000000000000000000000000000000000000000000REP       Comm. General Land Office                               REP Dawn Buckingham                   Precinct 1-1                                           01 
00090010002000052000001000008000043000000000000000000000000000000000000000000000000000000000000000000REP       Comm. General Land Office                               REP Dawn Buckingham                   Precinct 1-5                                           01 
00090010003000084000001000051000032000000000000000000000000000000000000000000000000000000000000000000REP       Comm. General Land Office                               REP Dawn Buckingham                   Precinct 2-2                                           01 
00090010004000101000002000073000026000000000000000000000000000000000000000000000000000000000000000000REP       Comm. General Land Office                               REP Dawn Buckingham                   Precinct 2-6                                           01 
00090010005000124000002000098000024000000000000000000000000000000000000000000000000000000000000000000REP       Comm. General Land Office                               REP Dawn Buckingham                   Precinct 3-3                                           01 
00090010006000232000004000193000035000000000000000000000000000000000000000000000000000000000000000000REP       Comm. General Land Office                               REP Dawn Buckingham                   Precinct 4-4                                           01 
00090020001000022000002000010000010000000000000000000000000000000000000000000000000000000000000000000DEM       Comm. General Land Office                               DEM Jay Kleberg                       Precinct 1-1                                           01 
00090020002000002000000000000000002000000000000000000000000000000000000000000000000000000000000000000DEM       Comm. General Land Office                               DEM Jay Kleberg                       Precinct 1-5                                           01 
00090020003000005000000000004000001000000000000000000000000000000000000000000000000000000000000000000DEM       Comm. General Land Office                               DEM Jay Kleberg                       Precinct 2-2                                           01 
00090020004000020000000000015000005000000000000000000000000000000000000000000000000000000000000000000DEM       Comm. General Land Office                               DEM Jay Kleberg                       Precinct 2-6                                           01 
00090020005000032000002000020000010000000000000000000000000000000000000000000000000000000000000000000DEM       Comm. General Land Office                               DEM Jay Kleberg                       Precinct 3-3                                           01 
00090020006000041000001000034000006000000000000000000000000000000000000000000000000000000000000000000DEM       Comm. General Land Office                               DEM Jay Kleberg                       Precinct 4-4                                           01 
00090030001000004000001000002000001000000000000000000000000000000000000000000000000000000000000000000GRN       Comm. General Land Office                               GRN Alfred Molison, Jr.               Precinct 1-1                                           01 
00090030002000000000000000000000000000000000000000000000000000000000000000000000000000000000000000000GRN       Comm. General Land Office                               GRN Alfred Molison, Jr.               Precinct 1-5                                           01 
00090030003000000000000000000000000000000000000000000000000000000000000000000000000000000000000000000GRN       Comm. General Land Office                               GRN Alfred Molison, Jr.               Precinct 2-2                                           01 
00090030004000008000000000005000003000000000000000000000000000000000000000000000000000000000000000000GRN       Comm. General Land Office                               GRN Alfred Molison, Jr.               Precinct 2-6                                           01 
00090030005000006000000000004000002000000000000000000000000000000000000000000000000000000000000000000GRN       Comm. General Land Office                               GRN Alfred Molison, Jr.               Precinct 3-3                                           01 
00090030006000008000000000006000002000000000000000000000000000000000000000000000000000000000000000000GRN       Comm. General Land Office                               GRN Alfred Molison, Jr.               Precinct 4-4                                           01 
00090050001000000000000000000000000000000000000000000000000000000000000000000000000000000000000000000NON       Comm. General Land Office                               Write-in                              Precinct 1-1                                           01 
00090050002000000000000000000000000000000000000000000000000000000000000000000000000000000000000000000NON       Comm. General Land Office                               Write-in                              Precinct 1-5                                           01 
00090050003000000000000000000000000000000000000000000000000000000000000000000000000000000000000000000NON       Comm. General Land Office                               Write-in                              Precinct 2-2                                           01 
00090050004000000000000000000000000000000000000000000000000000000000000000000000000000000000000000000NON       Comm. General Land Office                               Write-in                              Precinct 2-6                                           01 
00090050005000000000000000000000000000000000000000000000000000000000000000000000000000000000000000000NON       Comm. General Land Office                               Write-in                              Precinct 3-3                                           01 
00090050006000000000000000000000000000000000000000000000000000000000000000000000000000000000000000000NON       Comm. General Land Office                               Write-in                              Precinct 4-4                                           01 
00090060001000000000000000000000000000000000000000000000000000000000000000000000000000000000000000000          Comm. General Land Office                               OVER VOTES                            Precinct 1-1                                           01 
00090060002000001000001000000000000000000000000000000000000000000000000000000000000000000000000000000          Comm. General Land Office                               OVER VOTES                            Precinct 1-5                                           01 
00090060003000000000000000000000000000000000000000000000000000000000000000000000000000000000000000000          Comm. General Land Office                               OVER VOTES                            Precinct 2-2                                           01 
00090060004000000000000000000000000000000000000000000000000000000000000000000000000000000000000000000          Comm. General Land Office                               OVER VOTES                            Precinct 2-6                                           01 
00090060005000000000000000000000000000000000000000000000000000000000000000000000000000000000000000000          Comm. General Land Office                               OVER VOTES                            Precinct 3-3                                           01 
00090060006000000000000000000000000000000000000000000000000000000000000000000000000000000000000000000          Comm. General Land Office                               OVER VOTES                            Precinct 4-4                                           01 
00090070001000012000000000005000007000000000000000000000000000000000000000000000000000000000000000000          Comm. General Land Office                               UNDER VOTES                           Precinct 1-1                                           01 
00090070002000000000000000000000000000000000000000000000000000000000000000000000000000000000000000000          Comm. General Land Office                               UNDER VOTES                           Precinct 1-5                                           01 
00090070003000003000000000003000000000000000000000000000000000000000000000000000000000000000000000000          Comm. General Land Office                               UNDER VOTES                           Precinct 2-2                                           01 
00090070004000026000000000016000010000000000000000000000000000000000000000000000000000000000000000000          Comm. General Land Office                               UNDER VOTES                           Precinct 2-6                                           01 
00090070005000021000002000014000005000000000000000000000000000000000000000000000000000000000000000000          Comm. General Land Office                               UNDER VOTES                           Precinct 3-3                                           01 
00090070006000028000001000021000006000000000000000000000000000000000000000000000000000000000000000000          Comm. General Land Office                               UNDER VOTES                           Precinct 4-4                                           01 
00100010001000253000005000171000077000000000000000000000000000000000000000000000000000000000000000000REP       Commissioner of Agriculture                             REP Sid Miller                        Precinct 1-1                                           01 
00100010002000054000002000008000044000000000000000000000000000000000000000000000000000000000000000000REP       Commissioner of Agriculture                             REP Sid Miller                        Precinct 1-5                                           01 
00100010003000083000001000049000033000000000000000000000000000000000000000000000000000000000000000000REP       Commissioner of Agriculture                             REP Sid Miller                        Precinct 2-2                                           01 
00100010004000103000002000075000026000000000000000000000000000000000000000000000000000000000000000000REP       Commissioner of Agriculture                             REP Sid Miller                        Precinct 2-6                                           01 
00100010005000122000002000095000025000000000000000000000000000000000000000000000000000000000000000000REP       Commissioner of Agriculture                             REP Sid Miller                        Precinct 3-3                                           01 
00100010006000238000004000199000035000000000000000000000000000000000000000000000000000000000000000000REP       Commissioner of Agriculture                             REP Sid Miller                        Precinct 4-4                                           01 
00100020001000027000004000012000011000000000000000000000000000000000000000000000000000000000000000000DEM       Commissioner of Agriculture                             DEM Susan Hays                        Precinct 1-1                                           01 
00100020002000001000000000000000001000000000000000000000000000000000000000000000000000000000000000000DEM       Commissioner of Agriculture                             DEM Susan Hays                        Precinct 1-5                                           01 
00100020003000005000000000005000000000000000000000000000000000000000000000000000000000000000000000000DEM       Commissioner of Agriculture                             DEM Susan Hays                        Precinct 2-2                                           01 
00100020004000027000000000019000008000000000000000000000000000000000000000000000000000000000000000000DEM       Commissioner of Agriculture                             DEM Susan Hays                        Precinct 2-6                                           01 
00100020005000044000004000028000012000000000000000000000000000000000000000000000000000000000000000000DEM       Commissioner of Agriculture                             DEM Susan Hays                        Precinct 3-3                                           01 
00100020006000041000001000035000005000000000000000000000000000000000000000000000000000000000000000000DEM       Commissioner of Agriculture                             DEM Susan Hays                        Precinct 4-4                                           01 
00100030001000000000000000000000000000000000000000000000000000000000000000000000000000000000000000000          Commissioner of Agriculture                             OVER VOTES                            Precinct 1-1                                           01 
00100030002000000000000000000000000000000000000000000000000000000000000000000000000000000000000000000          Commissioner of Agriculture                             OVER VOTES                            Precinct 1-5                                           01 
00100030003000000000000000000000000000000000000000000000000000000000000000000000000000000000000000000          Commissioner of Agriculture                             OVER VOTES                            Precinct 2-2                                           01 
00100030004000000000000000000000000000000000000000000000000000000000000000000000000000000000000000000          Commissioner of Agriculture                             OVER VOTES                            Precinct 2-6                                           01 
00100030005000000000000000000000000000000000000000000000000000000000000000000000000000000000000000000          Commissioner of Agriculture                             OVER VOTES                            Precinct 3-3                                           01 
00100030006000000000000000000000000000000000000000000000000000000000000000000000000000000000000000000          Commissioner of Agriculture                             OVER VOTES                            Precinct 4-4                                           01 
00100040001000013000000000006000007000000000000000000000000000000000000000000000000000000000000000000          Commissioner of Agriculture                             UNDER VOTES                           Precinct 1-1                                           01 
00100040002000000000000000000000000000000000000000000000000000000000000000000000000000000000000000000          Commissioner of Agriculture                             UNDER VOTES                           Precinct 1-5                                           01 
00100040003000004000000000004000000000000000000000000000000000000000000000000000000000000000000000000          Commissioner of Agriculture                             UNDER VOTES                           Precinct 2-2                                           01 
00100040004000025000000000015000010000000000000000000000000000000000000000000000000000000000000000000          Commissioner of Agriculture                             UNDER VOTES                           Precinct 2-6                                           01 
00100040005000017000000000013000004000000000000000000000000000000000000000000000000000000000000000000          Commissioner of Agriculture                             UNDER VOTES                           Precinct 3-3                                           01 
00100040006000030000001000020000009000000000000000000000000000000000000000000000000000000000000000000          Commissioner of Agriculture                             UNDER VOTES                           Precinct 4-4                                           01 
00110010001000246000005000168000073000000000000000000000000000000000000000000000000000000000000000000REP       Railroad Commissioner                                   REP Wayne Christian                   Precinct 1-1                                           01 
00110010002000049000002000007000040000000000000000000000000000000000000000000000000000000000000000000REP       Railroad Commissioner                                   REP Wayne Christian                   Precinct 1-5                                           01 
00110010003000079000001000047000031000000000000000000000000000000000000000000000000000000000000000000REP       Railroad Commissioner                                   REP Wayne Christian                   Precinct 2-2                                           01 
00110010004000099000002000070000027000000000000000000000000000000000000000000000000000000000000000000REP       Railroad Commissioner                                   REP Wayne Christian                   Precinct 2-6                                           01 
00110010005000127000002000099000026000000000000000000000000000000000000000000000000000000000000000000REP       Railroad Commissioner                                   REP Wayne Christian                   Precinct 3-3                                           01 
00110010006000232000004000192000036000000000000000000000000000000000000000000000000000000000000000000REP       Railroad Commissioner                                   REP Wayne Christian                   Precinct 4-4                                           01 
00110020001000016000002000008000006000000000000000000000000000000000000000000000000000000000000000000DEM       Railroad Commissioner                                   DEM Luke Warford                      Precinct 1-1                                           01 
00110020002000001000000000000000001000000000000000000000000000000000000000000000000000000000000000000DEM       Railroad Commissioner                                   DEM Luke Warford                      Precinct 1-5                                           01 
00110020003000004000000000004000000000000000000000000000000000000000000000000000000000000000000000000DEM       Railroad Commissioner                                   DEM Luke Warford                      Precinct 2-2                                           01 
00110020004000022000000000017000005000000000000000000000000000000000000000000000000000000000000000000DEM       Railroad Commissioner                                   DEM Luke Warford                      Precinct 2-6                                           01 
00110020005000030000003000018000009000000000000000000000000000000000000000000000000000000000000000000DEM       Railroad Commissioner                                   DEM Luke Warford                      Precinct 3-3                                           01 
00110020006000029000000000027000002000000000000000000000000000000000000000000000000000000000000000000DEM       Railroad Commissioner                                   DEM Luke Warford                      Precinct 4-4                                           01 
00110030001000010000002000003000005000000000000000000000000000000000000000000000000000000000000000000LIB       Railroad Commissioner                                   LIB Jaime Andres Diez                 Precinct 1-1                                           01 
00110030002000002000000000000000002000000000000000000000000000000000000000000000000000000000000000000LIB       Railroad Commissioner                                   LIB Jaime Andres Diez                 Precinct 1-5                                           01 
00110030003000004000000000003000001000000000000000000000000000000000000000000000000000000000000000000LIB       Railroad Commissioner                                   LIB Jaime Andres Diez                 Precinct 2-2                                           01 
00110030004000011000000000007000004000000000000000000000000000000000000000000000000000000000000000000LIB       Railroad Commissioner                                   LIB Jaime Andres Diez                 Precinct 2-6                                           01 
00110030005000008000000000005000003000000000000000000000000000000000000000000000000000000000000000000LIB       Railroad Commissioner                                   LIB Jaime Andres Diez                 Precinct 3-3                                           01 
00110030006000015000000000011000004000000000000000000000000000000000000000000000000000000000000000000LIB       Railroad Commissioner                                   LIB Jaime Andres Diez                 Precinct 4-4                                           01 
00110040001000007000000000005000002000000000000000000000000000000000000000000000000000000000000000000GRN       Railroad Commissioner                                   GRN Hunter Wayne Crow                 Precinct 1-1                                           01 
00110040002000002000000000001000001000000000000000000000000000000000000000000000000000000000000000000GRN       Railroad Commissioner                                   GRN Hunter Wayne Crow                 Precinct 1-5                                           01 
00110040003000000000000000000000000000000000000000000000000000000000000000000000000000000000000000000GRN       Railroad Commissioner                                   GRN Hunter Wayne Crow                 Precinct 2-2                                           01 
00110040004000000000000000000000000000000000000000000000000000000000000000000000000000000000000000000GRN       Railroad Commissioner                                   GRN Hunter Wayne Crow                 Precinct 2-6                                           01 
00110040005000002000001000001000000000000000000000000000000000000000000000000000000000000000000000000GRN       Railroad Commissioner                                   GRN Hunter Wayne Crow                 Precinct 3-3                                           01 
00110040006000004000000000004000000000000000000000000000000000000000000000000000000000000000000000000GRN       Railroad Commissioner                                   GRN Hunter Wayne Crow                 Precinct 4-4                                           01 
00110050001000000000000000000000000000000000000000000000000000000000000000000000000000000000000000000          Railroad Commissioner                                   OVER VOTES                            Precinct 1-1                                           01 
00110050002000000000000000000000000000000000000000000000000000000000000000000000000000000000000000000          Railroad Commissioner                                   OVER VOTES                            Precinct 1-5                                           01 
00110050003000000000000000000000000000000000000000000000000000000000000000000000000000000000000000000          Railroad Commissioner                                   OVER VOTES                            Precinct 2-2                                           01 
00110050004000000000000000000000000000000000000000000000000000000000000000000000000000000000000000000          Railroad Commissioner                                   OVER VOTES                            Precinct 2-6                                           01 
00110050005000000000000000000000000000000000000000000000000000000000000000000000000000000000000000000          Railroad Commissioner                                   OVER VOTES                            Precinct 3-3                                           01 
00110050006000000000000000000000000000000000000000000000000000000000000000000000000000000000000000000          Railroad Commissioner                                   OVER VOTES                            Precinct 4-4                                           01 
00110060001000014000000000005000009000000000000000000000000000000000000000000000000000000000000000000          Railroad Commissioner                                   UNDER VOTES                           Precinct 1-1                                           01 
00110060002000001000000000000000001000000000000000000000000000000000000000000000000000000000000000000          Railroad Commissioner                                   UNDER VOTES                           Precinct 1-5                                           01 
00110060003000005000000000004000001000000000000000000000000000000000000000000000000000000000000000000          Railroad Commissioner                                   UNDER VOTES                           Precinct 2-2                                           01 
00110060004000023000000000015000008000000000000000000000000000000000000000000000000000000000000000000          Railroad Commissioner                                   UNDER VOTES                           Precinct 2-6                                           01 
00110060005000016000000000013000003000000000000000000000000000000000000000000000000000000000000000000          Railroad Commissioner                                   UNDER VOTES                           Precinct 3-3                                           01 
00110060006000029000002000020000007000000000000000000000000000000000000000000000000000000000000000000          Railroad Commissioner                                   UNDER VOTES                           Precinct 4-4                                           01 
00120010001000252000006000170000076000000000000000000000000000000000000000000000000000000000000000000REP       Justice, Supreme Ct. Pl. 3                              REP Debra Lehrmann                    Precinct 1-1                                           01 
00120010002000054000002000008000044000000000000000000000000000000000000000000000000000000000000000000REP       Justice, Supreme Ct. Pl. 3                              REP Debra Lehrmann                    Precinct 1-5                                           01 
00120010003000082000001000051000030000000000000000000000000000000000000000000000000000000000000000000REP       Justice, Supreme Ct. Pl. 3                              REP Debra Lehrmann                    Precinct 2-2                                           01 
00120010004000099000002000070000027000000000000000000000000000000000000000000000000000000000000000000REP       Justice, Supreme Ct. Pl. 3                              REP Debra Lehrmann                    Precinct 2-6                                           01 
00120010005000126000003000097000026000000000000000000000000000000000000000000000000000000000000000000REP       Justice, Supreme Ct. Pl. 3                              REP Debra Lehrmann                    Precinct 3-3                                           01 
00120010006000229000004000191000034000000000000000000000000000000000000000000000000000000000000000000REP       Justice, Supreme Ct. Pl. 3                              REP Debra Lehrmann                    Precinct 4-4                                           01 
00120020001000020000001000010000009000000000000000000000000000000000000000000000000000000000000000000DEM       Justice, Supreme Ct. Pl. 3                              DEM Erin A. Nowell                    Precinct 1-1                                           01 
00120020002000000000000000000000000000000000000000000000000000000000000000000000000000000000000000000DEM       Justice, Supreme Ct. Pl. 3                              DEM Erin A. Nowell                    Precinct 1-5                                           01 
00120020003000004000000000004000000000000000000000000000000000000000000000000000000000000000000000000DEM       Justice, Supreme Ct. Pl. 3                              DEM Erin A. Nowell                    Precinct 2-2                                           01 
00120020004000024000000000018000006000000000000000000000000000000000000000000000000000000000000000000DEM       Justice, Supreme Ct. Pl. 3                              DEM Erin A. Nowell                    Precinct 2-6                                           01 
00120020005000031000002000019000010000000000000000000000000000000000000000000000000000000000000000000DEM       Justice, Supreme Ct. Pl. 3                              DEM Erin A. Nowell                    Precinct 3-3                                           01 
00120020006000039000001000033000005000000000000000000000000000000000000000000000000000000000000000000DEM       Justice, Supreme Ct. Pl. 3                              DEM Erin A. Nowell                    Precinct 4-4                                           01 
00120030001000007000002000003000002000000000000000000000000000000000000000000000000000000000000000000LIB       Justice, Supreme Ct. Pl. 3                              LIB Thomas Edward Oxford              Precinct 1-1                                           01 
00120030002000001000000000000000001000000000000000000000000000000000000000000000000000000000000000000LIB       Justice, Supreme Ct. Pl. 3                              LIB Thomas Edward Oxford              Precinct 1-5                                           01 
00120030003000000000000000000000000000000000000000000000000000000000000000000000000000000000000000000LIB       Justice, Supreme Ct. Pl. 3                              LIB Thomas Edward Oxford              Precinct 2-2                                           01 
00120030004000006000000000003000003000000000000000000000000000000000000000000000000000000000000000000LIB       Justice, Supreme Ct. Pl. 3                              LIB Thomas Edward Oxford              Precinct 2-6                                           01 
00120030005000006000000000004000002000000000000000000000000000000000000000000000000000000000000000000LIB       Justice, Supreme Ct. Pl. 3                              LIB Thomas Edward Oxford              Precinct 3-3                                           01 
00120030006000010000000000008000002000000000000000000000000000000000000000000000000000000000000000000LIB       Justice, Supreme Ct. Pl. 3                              LIB Thomas Edward Oxford              Precinct 4-4                                           01 
00120040001000000000000000000000000000000000000000000000000000000000000000000000000000000000000000000          Justice, Supreme Ct. Pl. 3                              OVER VOTES                            Precinct 1-1                                           01 
00120040002000000000000000000000000000000000000000000000000000000000000000000000000000000000000000000          Justice, Supreme Ct. Pl. 3                              OVER VOTES                            Precinct 1-5                                           01 
00120040003000000000000000000000000000000000000000000000000000000000000000000000000000000000000000000          Justice, Supreme Ct. Pl. 3                              OVER VOTES                            Precinct 2-2                                           01 
00120040004000000000000000000000000000000000000000000000000000000000000000000000000000000000000000000          Justice, Supreme Ct. Pl. 3                              OVER VOTES                            Precinct 2-6                                           01 
00120040005000000000000000000000000000000000000000000000000000000000000000000000000000000000000000000          Justice, Supreme Ct. Pl. 3                              OVER VOTES                            Precinct 3-3                                           01 
00120040006000000000000000000000000000000000000000000000000000000000000000000000000000000000000000000          Justice, Supreme Ct. Pl. 3                              OVER VOTES                            Precinct 4-4                                           01 
00120050001000014000000000006000008000000000000000000000000000000000000000000000000000000000000000000          Justice, Supreme Ct. Pl. 3                              UNDER VOTES                           Precinct 1-1                                           01 
00120050002000000000000000000000000000000000000000000000000000000000000000000000000000000000000000000          Justice, Supreme Ct. Pl. 3                              UNDER VOTES                           Precinct 1-5                                           01 
00120050003000006000000000003000003000000000000000000000000000000000000000000000000000000000000000000          Justice, Supreme Ct. Pl. 3                              UNDER VOTES                           Precinct 2-2                                           01 
00120050004000026000000000018000008000000000000000000000000000000000000000000000000000000000000000000          Justice, Supreme Ct. Pl. 3                              UNDER VOTES                           Precinct 2-6                                           01 
00120050005000020000001000016000003000000000000000000000000000000000000000000000000000000000000000000          Justice, Supreme Ct. Pl. 3                              UNDER VOTES                           Precinct 3-3                                           01 
00120050006000031000001000022000008000000000000000000000000000000000000000000000000000000000000000000          Justice, Supreme Ct. Pl. 3                              UNDER VOTES                           Precinct 4-4                                           01 
00130010001000253000006000170000077000000000000000000000000000000000000000000000000000000000000000000REP       Justice, Supreme Ct. Pl. 5                              REP Rebeca Huddle                     Precinct 1-1                                           01 
00130010002000055000002000008000045000000000000000000000000000000000000000000000000000000000000000000REP       Justice, Supreme Ct. Pl. 5                              REP Rebeca Huddle                     Precinct 1-5                                           01 
00130010003000082000001000050000031000000000000000000000000000000000000000000000000000000000000000000REP       Justice, Supreme Ct. Pl. 5                              REP Rebeca Huddle                     Precinct 2-2                                           01 
00130010004000102000002000073000027000000000000000000000000000000000000000000000000000000000000000000REP       Justice, Supreme Ct. Pl. 5                              REP Rebeca Huddle                     Precinct 2-6                                           01 
00130010005000128000003000098000027000000000000000000000000000000000000000000000000000000000000000000REP       Justice, Supreme Ct. Pl. 5                              REP Rebeca Huddle                     Precinct 3-3                                           01 
00130010006000235000004000196000035000000000000000000000000000000000000000000000000000000000000000000REP       Justice, Supreme Ct. Pl. 5                              REP Rebeca Huddle                     Precinct 4-4                                           01 
00130020001000024000002000012000010000000000000000000000000000000000000000000000000000000000000000000DEM       Justice, Supreme Ct. Pl. 5                              DEM Amanda Reichek                    Precinct 1-1                                           01 
00130020002000000000000000000000000000000000000000000000000000000000000000000000000000000000000000000DEM       Justice, Supreme Ct. Pl. 5                              DEM Amanda Reichek                    Precinct 1-5                                           01 
00130020003000005000000000005000000000000000000000000000000000000000000000000000000000000000000000000DEM       Justice, Supreme Ct. Pl. 5                              DEM Amanda Reichek                    Precinct 2-2                                           01 
00130020004000026000000000019000007000000000000000000000000000000000000000000000000000000000000000000DEM       Justice, Supreme Ct. Pl. 5                              DEM Amanda Reichek                    Precinct 2-6                                           01 
00130020005000036000002000023000011000000000000000000000000000000000000000000000000000000000000000000DEM       Justice, Supreme Ct. Pl. 5                              DEM Amanda Reichek                    Precinct 3-3                                           01 
00130020006000041000001000035000005000000000000000000000000000000000000000000000000000000000000000000DEM       Justice, Supreme Ct. Pl. 5                              DEM Amanda Reichek                    Precinct 4-4                                           01 
00130030001000000000000000000000000000000000000000000000000000000000000000000000000000000000000000000          Justice, Supreme Ct. Pl. 5                              OVER VOTES                            Precinct 1-1                                           01 
00130030002000000000000000000000000000000000000000000000000000000000000000000000000000000000000000000          Justice, Supreme Ct. Pl. 5                              OVER VOTES                            Precinct 1-5                                           01 
00130030003000000000000000000000000000000000000000000000000000000000000000000000000000000000000000000          Justice, Supreme Ct. Pl. 5                              OVER VOTES                            Precinct 2-2                                           01 
00130030004000000000000000000000000000000000000000000000000000000000000000000000000000000000000000000          Justice, Supreme Ct. Pl. 5                              OVER VOTES                            Precinct 2-6                                           01 
00130030005000000000000000000000000000000000000000000000000000000000000000000000000000000000000000000          Justice, Supreme Ct. Pl. 5                              OVER VOTES                            Precinct 3-3                                           01 
00130030006000000000000000000000000000000000000000000000000000000000000000000000000000000000000000000          Justice, Supreme Ct. Pl. 5                              OVER VOTES                            Precinct 4-4                                           01 
00130040001000016000001000007000008000000000000000000000000000000000000000000000000000000000000000000          Justice, Supreme Ct. Pl. 5                              UNDER VOTES                           Precinct 1-1                                           01 
00130040002000000000000000000000000000000000000000000000000000000000000000000000000000000000000000000          Justice, Supreme Ct. Pl. 5                              UNDER VOTES                           Precinct 1-5                                           01 
00130040003000005000000000003000002000000000000000000000000000000000000000000000000000000000000000000          Justice, Supreme Ct. Pl. 5                              UNDER VOTES                           Precinct 2-2                                           01 
00130040004000027000000000017000010000000000000000000000000000000000000000000000000000000000000000000          Justice, Supreme Ct. Pl. 5                              UNDER VOTES                           Precinct 2-6                                           01 
00130040005000019000001000015000003000000000000000000000000000000000000000000000000000000000000000000          Justice, Supreme Ct. Pl. 5                              UNDER VOTES                           Precinct 3-3                                           01 
00130040006000033000001000023000009000000000000000000000000000000000000000000000000000000000000000000          Justice, Supreme Ct. Pl. 5                              UNDER VOTES                           Precinct 4-4                                           01 
00140010001000250000006000169000075000000000000000000000000000000000000000000000000000000000000000000REP       Justice, Supreme Ct. Pl. 9                              REP Evan Young                        Precinct 1-1                                           01 
00140010002000054000002000007000045000000000000000000000000000000000000000000000000000000000000000000REP       Justice, Supreme Ct. Pl. 9                              REP Evan Young                        Precinct 1-5                                           01 
00140010003000080000001000049000030000000000000000000000000000000000000000000000000000000000000000000REP       Justice, Supreme Ct. Pl. 9                              REP Evan Young                        Precinct 2-2                                           01 
00140010004000104000002000073000029000000000000000000000000000000000000000000000000000000000000000000REP       Justice, Supreme Ct. Pl. 9                              REP Evan Young                        Precinct 2-6                                           01 
00140010005000125000003000097000025000000000000000000000000000000000000000000000000000000000000000000REP       Justice, Supreme Ct. Pl. 9                              REP Evan Young                        Precinct 3-3                                           01 
00140010006000228000004000187000037000000000000000000000000000000000000000000000000000000000000000000REP       Justice, Supreme Ct. Pl. 9                              REP Evan Young                        Precinct 4-4                                           01 
00140020001000026000002000012000012000000000000000000000000000000000000000000000000000000000000000000DEM       Justice, Supreme Ct. Pl. 9                              DEM Julia Maldonado                   Precinct 1-1                                           01 
00140020002000001000000000001000000000000000000000000000000000000000000000000000000000000000000000000DEM       Justice, Supreme Ct. Pl. 9                              DEM Julia Maldonado                   Precinct 1-5                                           01 
00140020003000006000000000006000000000000000000000000000000000000000000000000000000000000000000000000DEM       Justice, Supreme Ct. Pl. 9                              DEM Julia Maldonado                   Precinct 2-2                                           01 
00140020004000027000000000019000008000000000000000000000000000000000000000000000000000000000000000000DEM       Justice, Supreme Ct. Pl. 9                              DEM Julia Maldonado                   Precinct 2-6                                           01 
00140020005000042000003000026000013000000000000000000000000000000000000000000000000000000000000000000DEM       Justice, Supreme Ct. Pl. 9                              DEM Julia Maldonado                   Precinct 3-3                                           01 
00140020006000047000001000042000004000000000000000000000000000000000000000000000000000000000000000000DEM       Justice, Supreme Ct. Pl. 9                              DEM Julia Maldonado                   Precinct 4-4                                           01 
00140030001000000000000000000000000000000000000000000000000000000000000000000000000000000000000000000          Justice, Supreme Ct. Pl. 9                              OVER VOTES                            Precinct 1-1                                           01 
00140030002000000000000000000000000000000000000000000000000000000000000000000000000000000000000000000          Justice, Supreme Ct. Pl. 9                              OVER VOTES                            Precinct 1-5                                           01 
00140030003000000000000000000000000000000000000000000000000000000000000000000000000000000000000000000          Justice, Supreme Ct. Pl. 9                              OVER VOTES                            Precinct 2-2                                           01 
00140030004000000000000000000000000000000000000000000000000000000000000000000000000000000000000000000          Justice, Supreme Ct. Pl. 9                              OVER VOTES                            Precinct 2-6                                           01 
00140030005000000000000000000000000000000000000000000000000000000000000000000000000000000000000000000          Justice, Supreme Ct. Pl. 9                              OVER VOTES                            Precinct 3-3                                           01 
00140030006000000000000000000000000000000000000000000000000000000000000000000000000000000000000000000          Justice, Supreme Ct. Pl. 9                              OVER VOTES                            Precinct 4-4                                           01 
00140040001000017000001000008000008000000000000000000000000000000000000000000000000000000000000000000          Justice, Supreme Ct. Pl. 9                              UNDER VOTES                           Precinct 1-1                                           01 
00140040002000000000000000000000000000000000000000000000000000000000000000000000000000000000000000000          Justice, Supreme Ct. Pl. 9                              UNDER VOTES                           Precinct 1-5                                           01 
00140040003000006000000000003000003000000000000000000000000000000000000000000000000000000000000000000          Justice, Supreme Ct. Pl. 9                              UNDER VOTES                           Precinct 2-2                                           01 
00140040004000024000000000017000007000000000000000000000000000000000000000000000000000000000000000000          Justice, Supreme Ct. Pl. 9                              UNDER VOTES                           Precinct 2-6                                           01 
00140040005000016000000000013000003000000000000000000000000000000000000000000000000000000000000000000          Justice, Supreme Ct. Pl. 9                              UNDER VOTES                           Precinct 3-3                                           01 
00140040006000034000001000025000008000000000000000000000000000000000000000000000000000000000000000000          Justice, Supreme Ct. Pl. 9                              UNDER VOTES                           Precinct 4-4                                           01 
00150010001000251000007000169000075000000000000000000000000000000000000000000000000000000000000000000REP       Judge, Ct of Crim. Appeals, Pl 5                        REP Scott Walker                      Precinct 1-1                                           01 
00150010002000053000001000008000044000000000000000000000000000000000000000000000000000000000000000000REP       Judge, Ct of Crim. Appeals, Pl 5                        REP Scott Walker                      Precinct 1-5                                           01 
00150010003000078000001000047000030000000000000000000000000000000000000000000000000000000000000000000REP       Judge, Ct of Crim. Appeals, Pl 5                        REP Scott Walker                      Precinct 2-2                                           01 
00150010004000100000002000073000025000000000000000000000000000000000000000000000000000000000000000000REP       Judge, Ct of Crim. Appeals, Pl 5                        REP Scott Walker                      Precinct 2-6                                           01 
00150010005000128000003000098000027000000000000000000000000000000000000000000000000000000000000000000REP       Judge, Ct of Crim. Appeals, Pl 5                        REP Scott Walker                      Precinct 3-3                                           01 
00150010006000230000002000192000036000000000000000000000000000000000000000000000000000000000000000000REP       Judge, Ct of Crim. Appeals, Pl 5                        REP Scott Walker                      Precinct 4-4                                           01 
00150020001000024000001000012000011000000000000000000000000000000000000000000000000000000000000000000DEM       Judge, Ct of Crim. Appeals, Pl 5                        DEM Dana Huffman                      Precinct 1-1                                           01 
00150020002000000000000000000000000000000000000000000000000000000000000000000000000000000000000000000DEM       Judge, Ct of Crim. Appeals, Pl 5                        DEM Dana Huffman                      Precinct 1-5                                           01 
00150020003000007000000000007000000000000000000000000000000000000000000000000000000000000000000000000DEM       Judge, Ct of Crim. Appeals, Pl 5                        DEM Dana Huffman                      Precinct 2-2                                           01 
00150020004000031000000000019000012000000000000000000000000000000000000000000000000000000000000000000DEM       Judge, Ct of Crim. Appeals, Pl 5                        DEM Dana Huffman                      Precinct 2-6                                           01 
00150020005000038000002000025000011000000000000000000000000000000000000000000000000000000000000000000DEM       Judge, Ct of Crim. Appeals, Pl 5                        DEM Dana Huffman                      Precinct 3-3                                           01 
00150020006000045000002000037000006000000000000000000000000000000000000000000000000000000000000000000DEM       Judge, Ct of Crim. Appeals, Pl 5                        DEM Dana Huffman                      Precinct 4-4                                           01 
00150030001000000000000000000000000000000000000000000000000000000000000000000000000000000000000000000          Judge, Ct of Crim. Appeals, Pl 5                        OVER VOTES                            Precinct 1-1                                           01 
00150030002000000000000000000000000000000000000000000000000000000000000000000000000000000000000000000          Judge, Ct of Crim. Appeals, Pl 5                        OVER VOTES                            Precinct 1-5                                           01 
00150030003000000000000000000000000000000000000000000000000000000000000000000000000000000000000000000          Judge, Ct of Crim. Appeals, Pl 5                        OVER VOTES                            Precinct 2-2                                           01 
00150030004000000000000000000000000000000000000000000000000000000000000000000000000000000000000000000          Judge, Ct of Crim. Appeals, Pl 5                        OVER VOTES                            Precinct 2-6                                           01 
00150030005000000000000000000000000000000000000000000000000000000000000000000000000000000000000000000          Judge, Ct of Crim. Appeals, Pl 5                        OVER VOTES                            Precinct 3-3                                           01 
00150030006000000000000000000000000000000000000000000000000000000000000000000000000000000000000000000          Judge, Ct of Crim. Appeals, Pl 5                        OVER VOTES                            Precinct 4-4                                           01 
00150040001000018000001000008000009000000000000000000000000000000000000000000000000000000000000000000          Judge, Ct of Crim. Appeals, Pl 5                        UNDER VOTES                           Precinct 1-1                                           01 
00150040002000002000001000000000001000000000000000000000000000000000000000000000000000000000000000000          Judge, Ct of Crim. Appeals, Pl 5                        UNDER VOTES                           Precinct 1-5                                           01 
00150040003000007000000000004000003000000000000000000000000000000000000000000000000000000000000000000          Judge, Ct of Crim. Appeals, Pl 5                        UNDER VOTES                           Precinct 2-2                                           01 
00150040004000024000000000017000007000000000000000000000000000000000000000000000000000000000000000000          Judge, Ct of Crim. Appeals, Pl 5                        UNDER VOTES                           Precinct 2-6                                           01 
00150040005000017000001000013000003000000000000000000000000000000000000000000000000000000000000000000          Judge, Ct of Crim. Appeals, Pl 5                        UNDER VOTES                           Precinct 3-3                                           01 
