00010010001001306000000000000000000000000000000000000000000000000000000000000000000000000000000000000          REGISTERED VOTERS - TOTAL                               REGISTERED VOTERS - TOTAL             Precinct 101                                           00 
00010010002002117000000000000000000000000000000000000000000000000000000000000000000000000000000000000          REGISTERED VOTERS - TOTAL                               REGISTERED VOTERS - TOTAL             Precinct 104                                           00 
00010010003001126000000000000000000000000000000000000000000000000000000000000000000000000000000000000          REGISTERED VOTERS - TOTAL                               REGISTERED VOTERS - TOTAL             Precinct 109                                           00 
00010010004001009000000000000000000000000000000000000000000000000000000000000000000000000000000000000          REGISTERED VOTERS - TOTAL                               REGISTERED VOTERS - TOTAL             Precinct 115                                           00 
00010010005000100000000000000000000000000000000000000000000000000000000000000000000000000000000000000          REGISTERED VOTERS - TOTAL                               REGISTERED VOTERS - TOTAL             Precinct 117                                           00 
00010010006000109000000000000000000000000000000000000000000000000000000000000000000000000000000000000          REGISTERED VOTERS - TOTAL                               REGISTERED VOTERS - TOTAL             Precinct 121                                           00 
00010010007000007000000000000000000000000000000000000000000000000000000000000000000000000000000000000          REGISTERED VOTERS - TOTAL                               REGISTERED VOTERS - TOTAL             Precinct 202                                           00 
00010010008002013000000000000000000000000000000000000000000000000000000000000000000000000000000000000          REGISTERED VOTERS - TOTAL                               REGISTERED VOTERS - TOTAL             Precinct 203                                           00 
00010010009002562000000000000000000000000000000000000000000000000000000000000000000000000000000000000          REGISTERED VOTERS - TOTAL                               REGISTERED VOTERS - TOTAL             Precinct 205                                           00 
00010010010001516000000000000000000000000000000000000000000000000000000000000000000000000000000000000          REGISTERED VOTERS - TOTAL                               REGISTERED VOTERS - TOTAL             Precinct 208                                           00 
00010010011001920000000000000000000000000000000000000000000000000000000000000000000000000000000000000          REGISTERED VOTERS - TOTAL                               REGISTERED VOTERS - TOTAL             Precinct 307                                           00 
00010010012001312000000000000000000000000000000000000000000000000000000000000000000000000000000000000          REGISTERED VOTERS - TOTAL                               REGISTERED VOTERS - TOTAL             Precinct 311                                           00 
00010010013001283000000000000000000000000000000000000000000000000000000000000000000000000000000000000          REGISTERED VOTERS - TOTAL                               REGISTERED VOTERS - TOTAL             Precinct  312                                          00 
00010010014001918000000000000000000000000000000000000000000000000000000000000000000000000000000000000          REGISTERED VOTERS - TOTAL                               REGISTERED VOTERS - TOTAL             Precinct 320                                           00 
00010010015001961000000000000000000000000000000000000000000000000000000000000000000000000000000000000          REGISTERED VOTERS - TOTAL                               REGISTERED VOTERS - TOTAL             Precinct 406                                           00 
00010010016001316000000000000000000000000000000000000000000000000000000000000000000000000000000000000          REGISTERED VOTERS - TOTAL                               REGISTERED VOTERS - TOTAL             Precinct 410                                           00 
00010010017001829000000000000000000000000000000000000000000000000000000000000000000000000000000000000          REGISTERED VOTERS - TOTAL                               REGISTERED VOTERS - TOTAL             Precinct 413                                           00 
00010010018000661000000000000000000000000000000000000000000000000000000000000000000000000000000000000          REGISTERED VOTERS - TOTAL                               REGISTERED VOTERS - TOTAL             Precinct 418                                           00 
00010010019000574000000000000000000000000000000000000000000000000000000000000000000000000000000000000          REGISTERED VOTERS - TOTAL                               REGISTERED VOTERS - TOTAL             Precinct 419                                           00 
00010010020000000000000000000000000000000000000000000000000000000000000000000000000000000000000000000          REGISTERED VOTERS - TOTAL                               REGISTERED VOTERS - TOTAL             Austin County 208                                      00 
00020010001000755000029000369000357000000000000000000000000000000000000000000000000000000000000000000          BALLOTS CAST - TOTAL                                    BALLOTS CAST - TOTAL                  Precinct 101                                           00 
00020010002000790000037000525000228000000000000000000000000000000000000000000000000000000000000000000          BALLOTS CAST - TOTAL                                    BALLOTS CAST - TOTAL                  Precinct 104                                           00 
00020010003000682000014000429000239000000000000000000000000000000000000000000000000000000000000000000          BALLOTS CAST - TOTAL                                    BALLOTS CAST - TOTAL                  Precinct 109                                           00 
00020010004000571000015000411000145000000000000000000000000000000000000000000000000000000000000000000          BALLOTS CAST - TOTAL                                    BALLOTS CAST - TOTAL                  Precinct 115                                           00 
00020010005000024000003000009000012000000000000000000000000000000000000000000000000000000000000000000          BALLOTS CAST - TOTAL                                    BALLOTS CAST - TOTAL                  Precinct 117                                           00 
00020010006000051000002000039000010000000000000000000000000000000000000000000000000000000000000000000          BALLOTS CAST - TOTAL                                    BALLOTS CAST - TOTAL                  Precinct 121                                           00 
00020010007000005000000000002000003000000000000000000000000000000000000000000000000000000000000000000          BALLOTS CAST - TOTAL                                    BALLOTS CAST - TOTAL                  Precinct 202                                           00 
00020010008001274000053000789000432000000000000000000000000000000000000000000000000000000000000000000          BALLOTS CAST - TOTAL                                    BALLOTS CAST - TOTAL                  Precinct 203                                           00 
00020010009001544000064001138000342000000000000000000000000000000000000000000000000000000000000000000          BALLOTS CAST - TOTAL                                    BALLOTS CAST - TOTAL                  Precinct 205                                           00 
00020010010000992000020000695000277000000000000000000000000000000000000000000000000000000000000000000          BALLOTS CAST - TOTAL                                    BALLOTS CAST - TOTAL                  Precinct 208                                           00 
00020010011001080000053000749000278000000000000000000000000000000000000000000000000000000000000000000          BALLOTS CAST - TOTAL                                    BALLOTS CAST - TOTAL                  Precinct 307                                           00 
00020010012000766000038000451000277000000000000000000000000000000000000000000000000000000000000000000          BALLOTS CAST - TOTAL                                    BALLOTS CAST - TOTAL                  Precinct 311                                           00 
00020010013000799000021000540000238000000000000000000000000000000000000000000000000000000000000000000          BALLOTS CAST - TOTAL                                    BALLOTS CAST - TOTAL                  Precinct  312                                          00 
00020010014001268000039000937000292000000000000000000000000000000000000000000000000000000000000000000          BALLOTS CAST - TOTAL                                    BALLOTS CAST - TOTAL                  Precinct 320                                           00 
00020010015000951000037000713000201000000000000000000000000000000000000000000000000000000000000000000          BALLOTS CAST - TOTAL                                    BALLOTS CAST - TOTAL                  Precinct 406                                           00 
00020010016000811000026000417000368000000000000000000000000000000000000000000000000000000000000000000          BALLOTS CAST - TOTAL                                    BALLOTS CAST - TOTAL                  Precinct 410                                           00 
00020010017001155000037000825000293000000000000000000000000000000000000000000000000000000000000000000          BALLOTS CAST - TOTAL                                    BALLOTS CAST - TOTAL                  Precinct 413                                           00 
00020010018000315000007000232000076000000000000000000000000000000000000000000000000000000000000000000          BALLOTS CAST - TOTAL                                    BALLOTS CAST - TOTAL                  Precinct 418                                           00 
00020010019000297000007000226000064000000000000000000000000000000000000000000000000000000000000000000          BALLOTS CAST - TOTAL                                    BALLOTS CAST - TOTAL                  Precinct 419                                           00 
00020010020000006000001000005000000000000000000000000000000000000000000000000000000000000000000000000          BALLOTS CAST - TOTAL                                    BALLOTS CAST - TOTAL                  Austin County 208                                      00 
00030010001000000000000000000000000000000000000000000000000000000000000000000000000000000000000000000          BALLOTS CAST - BLANK                                    BALLOTS CAST - BLANK                  Precinct 101                                           00 
00030010002000000000000000000000000000000000000000000000000000000000000000000000000000000000000000000          BALLOTS CAST - BLANK                                    BALLOTS CAST - BLANK                  Precinct 104                                           00 
00030010003000000000000000000000000000000000000000000000000000000000000000000000000000000000000000000          BALLOTS CAST - BLANK                                    BALLOTS CAST - BLANK                  Precinct 109                                           00 
00030010004000000000000000000000000000000000000000000000000000000000000000000000000000000000000000000          BALLOTS CAST - BLANK                                    BALLOTS CAST - BLANK                  Precinct 115                                           00 
00030010005000000000000000000000000000000000000000000000000000000000000000000000000000000000000000000          BALLOTS CAST - BLANK                                    BALLOTS CAST - BLANK                  Precinct 117                                           00 
00030010006000000000000000000000000000000000000000000000000000000000000000000000000000000000000000000          BALLOTS CAST - BLANK                                    BALLOTS CAST - BLANK                  Precinct 121                                           00 
00030010007000000000000000000000000000000000000000000000000000000000000000000000000000000000000000000          BALLOTS CAST - BLANK                                    BALLOTS CAST - BLANK                  Precinct 202                                           00 
00030010008000000000000000000000000000000000000000000000000000000000000000000000000000000000000000000          BALLOTS CAST - BLANK                                    BALLOTS CAST - BLANK                  Precinct 203                                           00 
00030010009000001000000000000000001000000000000000000000000000000000000000000000000000000000000000000          BALLOTS CAST - BLANK                                    BALLOTS CAST - BLANK                  Precinct 205                                           00 
00030010010000001000000000001000000000000000000000000000000000000000000000000000000000000000000000000          BALLOTS CAST - BLANK                                    BALLOTS CAST - BLANK                  Precinct 208                                           00 
00030010011000000000000000000000000000000000000000000000000000000000000000000000000000000000000000000          BALLOTS CAST - BLANK                                    BALLOTS CAST - BLANK                  Precinct 307                                           00 
00030010012000000000000000000000000000000000000000000000000000000000000000000000000000000000000000000          BALLOTS CAST - BLANK                                    BALLOTS CAST - BLANK                  Precinct 311                                           00 
00030010013000001000000000000000001000000000000000000000000000000000000000000000000000000000000000000          BALLOTS CAST - BLANK                                    BALLOTS CAST - BLANK                  Precinct  312                                          00 
00030010014000000000000000000000000000000000000000000000000000000000000000000000000000000000000000000          BALLOTS CAST - BLANK                                    BALLOTS CAST - BLANK                  Precinct 320                                           00 
00030010015000000000000000000000000000000000000000000000000000000000000000000000000000000000000000000          BALLOTS CAST - BLANK                                    BALLOTS CAST - BLANK                  Precinct 406                                           00 
00030010016000000000000000000000000000000000000000000000000000000000000000000000000000000000000000000          BALLOTS CAST - BLANK                                    BALLOTS CAST - BLANK                  Precinct 410                                           00 
00030010017000001000000000001000000000000000000000000000000000000000000000000000000000000000000000000          BALLOTS CAST - BLANK                                    BALLOTS CAST - BLANK                  Precinct 413                                           00 
00030010018000000000000000000000000000000000000000000000000000000000000000000000000000000000000000000          BALLOTS CAST - BLANK                                    BALLOTS CAST - BLANK                  Precinct 418                                           00 
00030010019000000000000000000000000000000000000000000000000000000000000000000000000000000000000000000          BALLOTS CAST - BLANK                                    BALLOTS CAST - BLANK                  Precinct 419                                           00 
00030010020000000000000000000000000000000000000000000000000000000000000000000000000000000000000000000          BALLOTS CAST - BLANK                                    BALLOTS CAST - BLANK                  Austin County 208                                      00 
00040010001000534000008000275000251000000000000000000000000000000000000000000000000000000000000000000REPWASWASHUS Representative, Dist 10                              REP Michael McCaul                    Precinct 101                  Washington County        01 
00040010002000328000007000217000104000000000000000000000000000000000000000000000000000000000000000000REPWASWASHUS Representative, Dist 10                              REP Michael McCaul                    Precinct 104                  Washington County        01 
00040010003000576000010000363000203000000000000000000000000000000000000000000000000000000000000000000REPWASWASHUS Representative, Dist 10                              REP Michael McCaul                    Precinct 109                  Washington County        01 
00040010004000455000008000337000110000000000000000000000000000000000000000000000000000000000000000000REPWASWASHUS Representative, Dist 10                              REP Michael McCaul                    Precinct 115                  Washington County        01 
00040010005000006000000000002000004000000000000000000000000000000000000000000000000000000000000000000REPWASWASHUS Representative, Dist 10                              REP Michael McCaul                    Precinct 117                  Washington County        01 
00040010006000037000000000029000008000000000000000000000000000000000000000000000000000000000000000000REPWASWASHUS Representative, Dist 10                              REP Michael McCaul                    Precinct 121                  Washington County        01 
00040010007000005000000000002000003000000000000000000000000000000000000000000000000000000000000000000REPWASWASHUS Representative, Dist 10                              REP Michael McCaul                    Precinct 202                  Washington County        01 
00040010008001034000037000657000340000000000000000000000000000000000000000000000000000000000000000000REPWASWASHUS Representative, Dist 10                              REP Michael McCaul                    Precinct 203                  Washington County        01 
00040010009001184000042000875000267000000000000000000000000000000000000000000000000000000000000000000REPWASWASHUS Representative, Dist 10                              REP Michael McCaul                    Precinct 205                  Washington County        01 
00040010010000854000009000604000241000000000000000000000000000000000000000000000000000000000000000000REPWASWASHUS Representative, Dist 10                              REP Michael McCaul                    Precinct 208                  Washington County        01 
00040010011000827000032000582000213000000000000000000000000000000000000000000000000000000000000000000REPWASWASHUS Representative, Dist 10                              REP Michael McCaul                    Precinct 307                  Washington County        01 
00040010012000649000030000377000242000000000000000000000000000000000000000000000000000000000000000000REPWASWASHUS Representative, Dist 10                              REP Michael McCaul                    Precinct 311                  Washington County        01 
00040010013000696000020000472000204000000000000000000000000000000000000000000000000000000000000000000REPWASWASHUS Representative, Dist 10                              REP Michael McCaul                    Precinct  312                 Washington County        01 
00040010014001101000027000815000259000000000000000000000000000000000000000000000000000000000000000000REPWASWASHUS Representative, Dist 10                              REP Michael McCaul                    Precinct 320                  Washington County        01 
00040010015000714000023000548000143000000000000000000000000000000000000000000000000000000000000000000REPWASWASHUS Representative, Dist 10                              REP Michael McCaul                    Precinct 406                  Washington County        01 
00040010016000687000017000351000319000000000000000000000000000000000000000000000000000000000000000000REPWASWASHUS Representative, Dist 10                              REP Michael McCaul                    Precinct 410                  Washington County        01 
00040010017001005000030000717000258000000000000000000000000000000000000000000000000000000000000000000REPWASWASHUS Representative, Dist 10                              REP Michael McCaul                    Precinct 413                  Washington County        01 
00040010018000223000004000168000051000000000000000000000000000000000000000000000000000000000000000000REPWASWASHUS Representative, Dist 10                              REP Michael McCaul                    Precinct 418                  Washington County        01 
00040010019000214000003000168000043000000000000000000000000000000000000000000000000000000000000000000REPWASWASHUS Representative, Dist 10                              REP Michael McCaul                    Precinct 419                  Washington County        01 
00040020001000191000019000077000095000000000000000000000000000000000000000000000000000000000000000000DEMWASWASHUS Representative, Dist 10                              DEM Linda Nuno                        Precinct 101                  Washington County        01 
00040020002000428000028000287000113000000000000000000000000000000000000000000000000000000000000000000DEMWASWASHUS Representative, Dist 10                              DEM Linda Nuno                        Precinct 104                  Washington County        01 
00040020003000078000003000054000021000000000000000000000000000000000000000000000000000000000000000000DEMWASWASHUS Representative, Dist 10                              DEM Linda Nuno                        Precinct 109                  Washington County        01 
00040020004000095000006000060000029000000000000000000000000000000000000000000000000000000000000000000DEMWASWASHUS Representative, Dist 10                              DEM Linda Nuno                        Precinct 115                  Washington County        01 
00040020005000018000003000007000008000000000000000000000000000000000000000000000000000000000000000000DEMWASWASHUS Representative, Dist 10                              DEM Linda Nuno                        Precinct 117                  Washington County        01 
00040020006000012000002000008000002000000000000000000000000000000000000000000000000000000000000000000DEMWASWASHUS Representative, Dist 10                              DEM Linda Nuno                        Precinct 121                  Washington County        01 
00040020007000000000000000000000000000000000000000000000000000000000000000000000000000000000000000000DEMWASWASHUS Representative, Dist 10                              DEM Linda Nuno                        Precinct 202                  Washington County        01 
00040020008000194000013000108000073000000000000000000000000000000000000000000000000000000000000000000DEMWASWASHUS Representative, Dist 10                              DEM Linda Nuno                        Precinct 203                  Washington County        01 
00040020009000288000021000217000050000000000000000000000000000000000000000000000000000000000000000000DEMWASWASHUS Representative, Dist 10                              DEM Linda Nuno                        Precinct 205                  Washington County        01 
00040020010000095000011000059000025000000000000000000000000000000000000000000000000000000000000000000DEMWASWASHUS Representative, Dist 10                              DEM Linda Nuno                        Precinct 208                  Washington County        01 
00040020011000213000020000139000054000000000000000000000000000000000000000000000000000000000000000000DEMWASWASHUS Representative, Dist 10                              DEM Linda Nuno                        Precinct 307                  Washington County        01 
00040020012000088000008000058000022000000000000000000000000000000000000000000000000000000000000000000DEMWASWASHUS Representative, Dist 10                              DEM Linda Nuno                        Precinct 311                  Washington County        01 
00040020013000081000001000054000026000000000000000000000000000000000000000000000000000000000000000000DEMWASWASHUS Representative, Dist 10                              DEM Linda Nuno                        Precinct  312                 Washington County        01 
00040020014000126000012000089000025000000000000000000000000000000000000000000000000000000000000000000DEMWASWASHUS Representative, Dist 10                              DEM Linda Nuno                        Precinct 320                  Washington County        01 
00040020015000197000013000140000044000000000000000000000000000000000000000000000000000000000000000000DEMWASWASHUS Representative, Dist 10                              DEM Linda Nuno                        Precinct 406                  Washington County        01 
00040020016000101000009000054000038000000000000000000000000000000000000000000000000000000000000000000DEMWASWASHUS Representative, Dist 10                              DEM Linda Nuno                        Precinct 410                  Washington County        01 
00040020017000112000007000085000020000000000000000000000000000000000000000000000000000000000000000000DEMWASWASHUS Representative, Dist 10                              DEM Linda Nuno                        Precinct 413                  Washington County        01 
00040020018000079000003000057000019000000000000000000000000000000000000000000000000000000000000000000DEMWASWASHUS Representative, Dist 10                              DEM Linda Nuno                        Precinct 418                  Washington County        01 
00040020019000073000003000052000018000000000000000000000000000000000000000000000000000000000000000000DEMWASWASHUS Representative, Dist 10                              DEM Linda Nuno                        Precinct 419                  Washington County        01 
00040030001000013000001000009000003000000000000000000000000000000000000000000000000000000000000000000LIBWASWASHUS Representative, Dist 10                              LIB Bill Kelsey                       Precinct 101                  Washington County        01 
00040030002000007000001000003000003000000000000000000000000000000000000000000000000000000000000000000LIBWASWASHUS Representative, Dist 10                              LIB Bill Kelsey                       Precinct 104                  Washington County        01 
00040030003000009000000000003000006000000000000000000000000000000000000000000000000000000000000000000LIBWASWASHUS Representative, Dist 10                              LIB Bill Kelsey                       Precinct 109                  Washington County        01 
00040030004000006000000000004000002000000000000000000000000000000000000000000000000000000000000000000LIBWASWASHUS Representative, Dist 10                              LIB Bill Kelsey                       Precinct 115                  Washington County        01 
00040030005000000000000000000000000000000000000000000000000000000000000000000000000000000000000000000LIBWASWASHUS Representative, Dist 10                              LIB Bill Kelsey                       Precinct 117                  Washington County        01 
00040030006000001000000000001000000000000000000000000000000000000000000000000000000000000000000000000LIBWASWASHUS Representative, Dist 10                              LIB Bill Kelsey                       Precinct 121                  Washington County        01 
00040030007000000000000000000000000000000000000000000000000000000000000000000000000000000000000000000LIBWASWASHUS Representative, Dist 10                              LIB Bill Kelsey                       Precinct 202                  Washington County        01 
00040030008000021000002000011000008000000000000000000000000000000000000000000000000000000000000000000LIBWASWASHUS Representative, Dist 10                              LIB Bill Kelsey                       Precinct 203                  Washington County        01 
00040030009000032000001000018000013000000000000000000000000000000000000000000000000000000000000000000LIBWASWASHUS Representative, Dist 10                              LIB Bill Kelsey                       Precinct 205                  Washington County        01 
00040030010000018000000000014000004000000000000000000000000000000000000000000000000000000000000000000LIBWASWASHUS Representative, Dist 10                              LIB Bill Kelsey                       Precinct 208                  Washington County        01 
00040030011000019000000000012000007000000000000000000000000000000000000000000000000000000000000000000LIBWASWASHUS Representative, Dist 10                              LIB Bill Kelsey                       Precinct 307                  Washington County        01 
00040030012000019000000000010000009000000000000000000000000000000000000000000000000000000000000000000LIBWASWASHUS Representative, Dist 10                              LIB Bill Kelsey                       Precinct 311                  Washington County        01 
00040030013000009000000000004000005000000000000000000000000000000000000000000000000000000000000000000LIBWASWASHUS Representative, Dist 10                              LIB Bill Kelsey                       Precinct  312                 Washington County        01 
00040030014000013000000000011000002000000000000000000000000000000000000000000000000000000000000000000LIBWASWASHUS Representative, Dist 10                              LIB Bill Kelsey                       Precinct 320                  Washington County        01 
00040030015000022000001000013000008000000000000000000000000000000000000000000000000000000000000000000LIBWASWASHUS Representative, Dist 10                              LIB Bill Kelsey                       Precinct 406                  Washington County        01 
00040030016000010000000000005000005000000000000000000000000000000000000000000000000000000000000000000LIBWASWASHUS Representative, Dist 10                              LIB Bill Kelsey                       Precinct 410                  Washington County        01 
00040030017000019000000000008000011000000000000000000000000000000000000000000000000000000000000000000LIBWASWASHUS Representative, Dist 10                              LIB Bill Kelsey                       Precinct 413                  Washington County        01 
00040030018000009000000000003000006000000000000000000000000000000000000000000000000000000000000000000LIBWASWASHUS Representative, Dist 10                              LIB Bill Kelsey                       Precinct 418                  Washington County        01 
00040030019000007000001000004000002000000000000000000000000000000000000000000000000000000000000000000LIBWASWASHUS Representative, Dist 10                              LIB Bill Kelsey                       Precinct 419                  Washington County        01 
00040040001000000000000000000000000000000000000000000000000000000000000000000000000000000000000000000   WASWASHUS Representative, Dist 10                              OVER VOTES                            Precinct 101                  Washington County        01 
00040040002000000000000000000000000000000000000000000000000000000000000000000000000000000000000000000   WASWASHUS Representative, Dist 10                              OVER VOTES                            Precinct 104                  Washington County        01 
00040040003000000000000000000000000000000000000000000000000000000000000000000000000000000000000000000   WASWASHUS Representative, Dist 10                              OVER VOTES                            Precinct 109                  Washington County        01 
00040040004000000000000000000000000000000000000000000000000000000000000000000000000000000000000000000   WASWASHUS Representative, Dist 10                              OVER VOTES                            Precinct 115                  Washington County        01 
00040040005000000000000000000000000000000000000000000000000000000000000000000000000000000000000000000   WASWASHUS Representative, Dist 10                              OVER VOTES                            Precinct 117                  Washington County        01 
00040040006000000000000000000000000000000000000000000000000000000000000000000000000000000000000000000   WASWASHUS Representative, Dist 10                              OVER VOTES                            Precinct 121                  Washington County        01 
00040040007000000000000000000000000000000000000000000000000000000000000000000000000000000000000000000   WASWASHUS Representative, Dist 10                              OVER VOTES                            Precinct 202                  Washington County        01 
00040040008000000000000000000000000000000000000000000000000000000000000000000000000000000000000000000   WASWASHUS Representative, Dist 10                              OVER VOTES                            Precinct 203                  Washington County        01 
00040040009000000000000000000000000000000000000000000000000000000000000000000000000000000000000000000   WASWASHUS Representative, Dist 10                              OVER VOTES                            Precinct 205                  Washington County        01 
00040040010000000000000000000000000000000000000000000000000000000000000000000000000000000000000000000   WASWASHUS Representative, Dist 10                              OVER VOTES                            Precinct 208                  Washington County        01 
00040040011000000000000000000000000000000000000000000000000000000000000000000000000000000000000000000   WASWASHUS Representative, Dist 10                              OVER VOTES                            Precinct 307                  Washington County        01 
00040040012000000000000000000000000000000000000000000000000000000000000000000000000000000000000000000   WASWASHUS Representative, Dist 10                              OVER VOTES                            Precinct 311                  Washington County        01 
00040040013000000000000000000000000000000000000000000000000000000000000000000000000000000000000000000   WASWASHUS Representative, Dist 10                              OVER VOTES                            Precinct  312                 Washington County        01 
00040040014000001000000000001000000000000000000000000000000000000000000000000000000000000000000000000   WASWASHUS Representative, Dist 10                              OVER VOTES                            Precinct 320                  Washington County        01 
00040040015000000000000000000000000000000000000000000000000000000000000000000000000000000000000000000   WASWASHUS Representative, Dist 10                              OVER VOTES                            Precinct 406                  Washington County        01 
00040040016000000000000000000000000000000000000000000000000000000000000000000000000000000000000000000   WASWASHUS Representative, Dist 10                              OVER VOTES                            Precinct 410                  Washington County        01 
00040040017000000000000000000000000000000000000000000000000000000000000000000000000000000000000000000   WASWASHUS Representative, Dist 10                              OVER VOTES                            Precinct 413                  Washington County        01 
00040040018000000000000000000000000000000000000000000000000000000000000000000000000000000000000000000   WASWASHUS Representative, Dist 10                              OVER VOTES                            Precinct 418                  Washington County        01 
00040040019000000000000000000000000000000000000000000000000000000000000000000000000000000000000000000   WASWASHUS Representative, Dist 10                              OVER VOTES                            Precinct 419                  Washington County        01 
00040050001000017000001000008000008000000000000000000000000000000000000000000000000000000000000000000   WASWASHUS Representative, Dist 10                              UNDER VOTES                           Precinct 101                  Washington County        01 
00040050002000027000001000018000008000000000000000000000000000000000000000000000000000000000000000000   WASWASHUS Representative, Dist 10                              UNDER VOTES                           Precinct 104                  Washington County        01 
00040050003000019000001000009000009000000000000000000000000000000000000000000000000000000000000000000   WASWASHUS Representative, Dist 10                              UNDER VOTES                           Precinct 109                  Washington County        01 
00040050004000015000001000010000004000000000000000000000000000000000000000000000000000000000000000000   WASWASHUS Representative, Dist 10                              UNDER VOTES                           Precinct 115                  Washington County        01 
00040050005000000000000000000000000000000000000000000000000000000000000000000000000000000000000000000   WASWASHUS Representative, Dist 10                              UNDER VOTES                           Precinct 117                  Washington County        01 
00040050006000001000000000001000000000000000000000000000000000000000000000000000000000000000000000000   WASWASHUS Representative, Dist 10                              UNDER VOTES                           Precinct 121                  Washington County        01 
00040050007000000000000000000000000000000000000000000000000000000000000000000000000000000000000000000   WASWASHUS Representative, Dist 10                              UNDER VOTES                           Precinct 202                  Washington County        01 
00040050008000025000001000013000011000000000000000000000000000000000000000000000000000000000000000000   WASWASHUS Representative, Dist 10                              UNDER VOTES                           Precinct 203                  Washington County        01 
00040050009000040000000000028000012000000000000000000000000000000000000000000000000000000000000000000   WASWASHUS Representative, Dist 10                              UNDER VOTES                           Precinct 205                  Washington County        01 
00040050010000025000000000018000007000000000000000000000000000000000000000000000000000000000000000000   WASWASHUS Representative, Dist 10                              UNDER VOTES                           Precinct 208                  Washington County        01 
00040050011000021000001000016000004000000000000000000000000000000000000000000000000000000000000000000   WASWASHUS Representative, Dist 10                              UNDER VOTES                           Precinct 307                  Washington County        01 
00040050012000010000000000006000004000000000000000000000000000000000000000000000000000000000000000000   WASWASHUS Representative, Dist 10                              UNDER VOTES                           Precinct 311                  Washington County        01 
00040050013000013000000000010000003000000000000000000000000000000000000000000000000000000000000000000   WASWASHUS Representative, Dist 10                              UNDER VOTES                           Precinct  312                 Washington County        01 
00040050014000027000000000021000006000000000000000000000000000000000000000000000000000000000000000000   WASWASHUS Representative, Dist 10                              UNDER VOTES                           Precinct 320                  Washington County        01 
00040050015000018000000000012000006000000000000000000000000000000000000000000000000000000000000000000   WASWASHUS Representative, Dist 10                              UNDER VOTES                           Precinct 406                  Washington County        01 
00040050016000013000000000007000006000000000000000000000000000000000000000000000000000000000000000000   WASWASHUS Representative, Dist 10                              UNDER VOTES                           Precinct 410                  Washington County        01 
00040050017000019000000000015000004000000000000000000000000000000000000000000000000000000000000000000   WASWASHUS Representative, Dist 10                              UNDER VOTES                           Precinct 413                  Washington County        01 
00040050018000004000000000004000000000000000000000000000000000000000000000000000000000000000000000000   WASWASHUS Representative, Dist 10                              UNDER VOTES                           Precinct 418                  Washington County        01 
00040050019000003000000000002000001000000000000000000000000000000000000000000000000000000000000000000   WASWASHUS Representative, Dist 10                              UNDER VOTES                           Precinct 419                  Washington County        01 
00050010001000530000007000274000249000000000000000000000000000000000000000000000000000000000000000000REPWASWASHGovernor                                                REP Greg Abbott                       Precinct 101                  Washington County        01 
00050010002000302000005000201000096000000000000000000000000000000000000000000000000000000000000000000REPWASWASHGovernor                                                REP Greg Abbott                       Precinct 104                  Washington County        01 
00050010003000569000010000352000207000000000000000000000000000000000000000000000000000000000000000000REPWASWASHGovernor                                                REP Greg Abbott                       Precinct 109                  Washington County        01 
00050010004000453000009000334000110000000000000000000000000000000000000000000000000000000000000000000REPWASWASHGovernor                                                REP Greg Abbott                       Precinct 115                  Washington County        01 
00050010005000006000000000002000004000000000000000000000000000000000000000000000000000000000000000000REPWASWASHGovernor                                                REP Greg Abbott                       Precinct 117                  Washington County        01 
00050010006000037000000000029000008000000000000000000000000000000000000000000000000000000000000000000REPWASWASHGovernor                                                REP Greg Abbott                       Precinct 121                  Washington County        01 
00050010007000004000000000002000002000000000000000000000000000000000000000000000000000000000000000000REPWASWASHGovernor                                                REP Greg Abbott                       Precinct 202                  Washington County        01 
00050010008001030000036000652000342000000000000000000000000000000000000000000000000000000000000000000REPWASWASHGovernor                                                REP Greg Abbott                       Precinct 203                  Washington County        01 
00050010009001165000041000860000264000000000000000000000000000000000000000000000000000000000000000000REPWASWASHGovernor                                                REP Greg Abbott                       Precinct 205                  Washington County        01 
00050010010000843000009000595000239000000000000000000000000000000000000000000000000000000000000000000REPWASWASHGovernor                                                REP Greg Abbott                       Precinct 208                  Washington County        01 
00050010011000801000030000558000213000000000000000000000000000000000000000000000000000000000000000000REPWASWASHGovernor                                                REP Greg Abbott                       Precinct 307                  Washington County        01 
00050010012000639000027000370000242000000000000000000000000000000000000000000000000000000000000000000REPWASWASHGovernor                                                REP Greg Abbott                       Precinct 311                  Washington County        01 
00050010013000692000020000466000206000000000000000000000000000000000000000000000000000000000000000000REPWASWASHGovernor                                                REP Greg Abbott                       Precinct  312                 Washington County        01 
00050010014001091000025000806000260000000000000000000000000000000000000000000000000000000000000000000REPWASWASHGovernor                                                REP Greg Abbott                       Precinct 320                  Washington County        01 
00050010015000693000023000532000138000000000000000000000000000000000000000000000000000000000000000000REPWASWASHGovernor                                                REP Greg Abbott                       Precinct 406                  Washington County        01 
00050010016000687000017000354000316000000000000000000000000000000000000000000000000000000000000000000REPWASWASHGovernor                                                REP Greg Abbott                       Precinct 410                  Washington County        01 
00050010017000988000027000709000252000000000000000000000000000000000000000000000000000000000000000000REPWASWASHGovernor                                                REP Greg Abbott                       Precinct 413                  Washington County        01 
00050010018000222000004000162000056000000000000000000000000000000000000000000000000000000000000000000REPWASWASHGovernor                                                REP Greg Abbott                       Precinct 418                  Washington County        01 
00050010019000213000004000166000043000000000000000000000000000000000000000000000000000000000000000000REPWASWASHGovernor                                                REP Greg Abbott                       Precinct 419                  Washington County        01 
00050020001000208000022000089000097000000000000000000000000000000000000000000000000000000000000000000DEMWASWASHGovernor                                                DEM Beto O'Rourke                     Precinct 101                  Washington County        01 
00050020002000471000032000313000126000000000000000000000000000000000000000000000000000000000000000000DEMWASWASHGovernor                                                DEM Beto O'Rourke                     Precinct 104                  Washington County        01 
00050020003000095000003000068000024000000000000000000000000000000000000000000000000000000000000000000DEMWASWASHGovernor                                                DEM Beto O'Rourke                     Precinct 109                  Washington County        01 
00050020004000107000006000068000033000000000000000000000000000000000000000000000000000000000000000000DEMWASWASHGovernor                                                DEM Beto O'Rourke                     Precinct 115                  Washington County        01 
00050020005000018000003000007000008000000000000000000000000000000000000000000000000000000000000000000DEMWASWASHGovernor                                                DEM Beto O'Rourke                     Precinct 117                  Washington County        01 
00050020006000013000002000009000002000000000000000000000000000000000000000000000000000000000000000000DEMWASWASHGovernor                                                DEM Beto O'Rourke                     Precinct 121                  Washington County        01 
00050020007000001000000000000000001000000000000000000000000000000000000000000000000000000000000000000DEMWASWASHGovernor                                                DEM Beto O'Rourke                     Precinct 202                  Washington County        01 
00050020008000221000014000126000081000000000000000000000000000000000000000000000000000000000000000000DEMWASWASHGovernor                                                DEM Beto O'Rourke                     Precinct 203                  Washington County        01 
00050020009000330000022000249000059000000000000000000000000000000000000000000000000000000000000000000DEMWASWASHGovernor                                                DEM Beto O'Rourke                     Precinct 205                  Washington County        01 
00050020010000119000011000077000031000000000000000000000000000000000000000000000000000000000000000000DEMWASWASHGovernor                                                DEM Beto O'Rourke                     Precinct 208                  Washington County        01 
00050020011000252000022000173000057000000000000000000000000000000000000000000000000000000000000000000DEMWASWASHGovernor                                                DEM Beto O'Rourke                     Precinct 307                  Washington County        01 
00050020012000102000010000067000025000000000000000000000000000000000000000000000000000000000000000000DEMWASWASHGovernor                                                DEM Beto O'Rourke                     Precinct 311                  Washington County        01 
00050020013000087000001000062000024000000000000000000000000000000000000000000000000000000000000000000DEMWASWASHGovernor                                                DEM Beto O'Rourke                     Precinct  312                 Washington County        01 
00050020014000148000014000106000028000000000000000000000000000000000000000000000000000000000000000000DEMWASWASHGovernor                                                DEM Beto O'Rourke                     Precinct 320                  Washington County        01 
00050020015000236000014000164000058000000000000000000000000000000000000000000000000000000000000000000DEMWASWASHGovernor                                                DEM Beto O'Rourke                     Precinct 406                  Washington County        01 
00050020016000116000009000060000047000000000000000000000000000000000000000000000000000000000000000000DEMWASWASHGovernor                                                DEM Beto O'Rourke                     Precinct 410                  Washington County        01 
00050020017000138000010000101000027000000000000000000000000000000000000000000000000000000000000000000DEMWASWASHGovernor                                                DEM Beto O'Rourke                     Precinct 413                  Washington County        01 
00050020018000086000003000064000019000000000000000000000000000000000000000000000000000000000000000000DEMWASWASHGovernor                                                DEM Beto O'Rourke                     Precinct 418                  Washington County        01 
00050020019000076000003000054000019000000000000000000000000000000000000000000000000000000000000000000DEMWASWASHGovernor                                                DEM Beto O'Rourke                     Precinct 419                  Washington County        01 
00050030001000006000000000001000005000000000000000000000000000000000000000000000000000000000000000000LIBWASWASHGovernor                                                LIB Mark Tippetts                     Precinct 101                  Washington County        01 
00050030002000005000000000002000003000000000000000000000000000000000000000000000000000000000000000000LIBWASWASHGovernor                                                LIB Mark Tippetts                     Precinct 104                  Washington County        01 
00050030003000005000000000003000002000000000000000000000000000000000000000000000000000000000000000000LIBWASWASHGovernor                                                LIB Mark Tippetts                     Precinct 109                  Washington County        01 
00050030004000003000000000003000000000000000000000000000000000000000000000000000000000000000000000000LIBWASWASHGovernor                                                LIB Mark Tippetts                     Precinct 115                  Washington County        01 
00050030005000000000000000000000000000000000000000000000000000000000000000000000000000000000000000000LIBWASWASHGovernor                                                LIB Mark Tippetts                     Precinct 117                  Washington County        01 
00050030006000001000000000001000000000000000000000000000000000000000000000000000000000000000000000000LIBWASWASHGovernor                                                LIB Mark Tippetts                     Precinct 121                  Washington County        01 
00050030007000000000000000000000000000000000000000000000000000000000000000000000000000000000000000000LIBWASWASHGovernor                                                LIB Mark Tippetts                     Precinct 202                  Washington County        01 
00050030008000013000002000005000006000000000000000000000000000000000000000000000000000000000000000000LIBWASWASHGovernor                                                LIB Mark Tippetts                     Precinct 203                  Washington County        01 
00050030009000025000000000013000012000000000000000000000000000000000000000000000000000000000000000000LIBWASWASHGovernor                                                LIB Mark Tippetts                     Precinct 205                  Washington County        01 
00050030010000012000000000009000003000000000000000000000000000000000000000000000000000000000000000000LIBWASWASHGovernor                                                LIB Mark Tippetts                     Precinct 208                  Washington County        01 
00050030011000011000000000008000003000000000000000000000000000000000000000000000000000000000000000000LIBWASWASHGovernor                                                LIB Mark Tippetts                     Precinct 307                  Washington County        01 
00050030012000016000000000009000007000000000000000000000000000000000000000000000000000000000000000000LIBWASWASHGovernor                                                LIB Mark Tippetts                     Precinct 311                  Washington County        01 
00050030013000012000000000006000006000000000000000000000000000000000000000000000000000000000000000000LIBWASWASHGovernor                                                LIB Mark Tippetts                     Precinct  312                 Washington County        01 
00050030014000008000000000008000000000000000000000000000000000000000000000000000000000000000000000000LIBWASWASHGovernor                                                LIB Mark Tippetts                     Precinct 320                  Washington County        01 
00050030015000009000000000007000002000000000000000000000000000000000000000000000000000000000000000000LIBWASWASHGovernor                                                LIB Mark Tippetts                     Precinct 406                  Washington County        01 
00050030016000003000000000000000003000000000000000000000000000000000000000000000000000000000000000000LIBWASWASHGovernor                                                LIB Mark Tippetts                     Precinct 410                  Washington County        01 
00050030017000017000000000007000010000000000000000000000000000000000000000000000000000000000000000000LIBWASWASHGovernor                                                LIB Mark Tippetts                     Precinct 413                  Washington County        01 
00050030018000004000000000003000001000000000000000000000000000000000000000000000000000000000000000000LIBWASWASHGovernor                                                LIB Mark Tippetts                     Precinct 418                  Washington County        01 
00050030019000005000000000003000002000000000000000000000000000000000000000000000000000000000000000000LIBWASWASHGovernor                                                LIB Mark Tippetts                     Precinct 419                  Washington County        01 
00050040001000001000000000001000000000000000000000000000000000000000000000000000000000000000000000000GRNWASWASHGovernor                                                GRN Delilah Barrios                   Precinct 101                  Washington County        01 
00050040002000001000000000001000000000000000000000000000000000000000000000000000000000000000000000000GRNWASWASHGovernor                                                GRN Delilah Barrios                   Precinct 104                  Washington County        01 
00050040003000001000000000001000000000000000000000000000000000000000000000000000000000000000000000000GRNWASWASHGovernor                                                GRN Delilah Barrios                   Precinct 109                  Washington County        01 
00050040004000000000000000000000000000000000000000000000000000000000000000000000000000000000000000000GRNWASWASHGovernor                                                GRN Delilah Barrios                   Precinct 115                  Washington County        01 
00050040005000000000000000000000000000000000000000000000000000000000000000000000000000000000000000000GRNWASWASHGovernor                                                GRN Delilah Barrios                   Precinct 117                  Washington County        01 
00050040006000000000000000000000000000000000000000000000000000000000000000000000000000000000000000000GRNWASWASHGovernor                                                GRN Delilah Barrios                   Precinct 121                  Washington County        01 
00050040007000000000000000000000000000000000000000000000000000000000000000000000000000000000000000000GRNWASWASHGovernor                                                GRN Delilah Barrios                   Precinct 202                  Washington County        01 
00050040008000003000001000001000001000000000000000000000000000000000000000000000000000000000000000000GRNWASWASHGovernor                                                GRN Delilah Barrios                   Precinct 203                  Washington County        01 
00050040009000002000000000002000000000000000000000000000000000000000000000000000000000000000000000000GRNWASWASHGovernor                                                GRN Delilah Barrios                   Precinct 205                  Washington County        01 
00050040010000001000000000001000000000000000000000000000000000000000000000000000000000000000000000000GRNWASWASHGovernor                                                GRN Delilah Barrios                   Precinct 208                  Washington County        01 
00050040011000004000000000003000001000000000000000000000000000000000000000000000000000000000000000000GRNWASWASHGovernor                                                GRN Delilah Barrios                   Precinct 307                  Washington County        01 
00050040012000002000000000001000001000000000000000000000000000000000000000000000000000000000000000000GRNWASWASHGovernor                                                GRN Delilah Barrios                   Precinct 311                  Washington County        01 
00050040013000001000000000001000000000000000000000000000000000000000000000000000000000000000000000000GRNWASWASHGovernor                                                GRN Delilah Barrios                   Precinct  312                 Washington County        01 
00050040014000002000000000001000001000000000000000000000000000000000000000000000000000000000000000000GRNWASWASHGovernor                                                GRN Delilah Barrios                   Precinct 320                  Washington County        01 
00050040015000004000000000004000000000000000000000000000000000000000000000000000000000000000000000000GRNWASWASHGovernor                                                GRN Delilah Barrios                   Precinct 406                  Washington County        01 
00050040016000001000000000001000000000000000000000000000000000000000000000000000000000000000000000000GRNWASWASHGovernor                                                GRN Delilah Barrios                   Precinct 410                  Washington County        01 
00050040017000000000000000000000000000000000000000000000000000000000000000000000000000000000000000000GRNWASWASHGovernor                                                GRN Delilah Barrios                   Precinct 413                  Washington County        01 
00050040018000001000000000001000000000000000000000000000000000000000000000000000000000000000000000000GRNWASWASHGovernor                                                GRN Delilah Barrios                   Precinct 418                  Washington County        01 
00050040019000001000000000001000000000000000000000000000000000000000000000000000000000000000000000000GRNWASWASHGovernor                                                GRN Delilah Barrios                   Precinct 419                  Washington County        01 
00050060001000000000000000000000000000000000000000000000000000000000000000000000000000000000000000000NONWASWASHGovernor                                                Write-in                              Precinct 101                  Washington County        01 
00050060002000000000000000000000000000000000000000000000000000000000000000000000000000000000000000000NONWASWASHGovernor                                                Write-in                              Precinct 104                  Washington County        01 
00050060003000001000000000000000001000000000000000000000000000000000000000000000000000000000000000000NONWASWASHGovernor                                                Write-in                              Precinct 109                  Washington County        01 
00050060004000000000000000000000000000000000000000000000000000000000000000000000000000000000000000000NONWASWASHGovernor                                                Write-in                              Precinct 115                  Washington County        01 
00050060005000000000000000000000000000000000000000000000000000000000000000000000000000000000000000000NONWASWASHGovernor                                                Write-in                              Precinct 117                  Washington County        01 
00050060006000000000000000000000000000000000000000000000000000000000000000000000000000000000000000000NONWASWASHGovernor                                                Write-in                              Precinct 121                  Washington County        01 
00050060007000000000000000000000000000000000000000000000000000000000000000000000000000000000000000000NONWASWASHGovernor                                                Write-in                              Precinct 202                  Washington County        01 
00050060008000000000000000000000000000000000000000000000000000000000000000000000000000000000000000000NONWASWASHGovernor                                                Write-in                              Precinct 203                  Washington County        01 
00050060009000001000000000001000000000000000000000000000000000000000000000000000000000000000000000000NONWASWASHGovernor                                                Write-in                              Precinct 205                  Washington County        01 
00050060010000001000000000000000001000000000000000000000000000000000000000000000000000000000000000000NONWASWASHGovernor                                                Write-in                              Precinct 208                  Washington County        01 
00050060011000001000000000001000000000000000000000000000000000000000000000000000000000000000000000000NONWASWASHGovernor                                                Write-in                              Precinct 307                  Washington County        01 
00050060012000000000000000000000000000000000000000000000000000000000000000000000000000000000000000000NONWASWASHGovernor                                                Write-in                              Precinct 311                  Washington County        01 
00050060013000000000000000000000000000000000000000000000000000000000000000000000000000000000000000000NONWASWASHGovernor                                                Write-in                              Precinct  312                 Washington County        01 
00050060014000000000000000000000000000000000000000000000000000000000000000000000000000000000000000000NONWASWASHGovernor                                                Write-in                              Precinct 320                  Washington County        01 
00050060015000001000000000001000000000000000000000000000000000000000000000000000000000000000000000000NONWASWASHGovernor                                                Write-in                              Precinct 406                  Washington County        01 
00050060016000000000000000000000000000000000000000000000000000000000000000000000000000000000000000000NONWASWASHGovernor                                                Write-in                              Precinct 410                  Washington County        01 
00050060017000000000000000000000000000000000000000000000000000000000000000000000000000000000000000000NONWASWASHGovernor                                                Write-in                              Precinct 413                  Washington County        01 
00050060018000000000000000000000000000000000000000000000000000000000000000000000000000000000000000000NONWASWASHGovernor                                                Write-in                              Precinct 418                  Washington County        01 
00050060019000000000000000000000000000000000000000000000000000000000000000000000000000000000000000000NONWASWASHGovernor                                                Write-in                              Precinct 419                  Washington County        01 
00050070001000000000000000000000000000000000000000000000000000000000000000000000000000000000000000000   WASWASHGovernor                                                OVER VOTES                            Precinct 101                  Washington County        01 
00050070002000001000000000001000000000000000000000000000000000000000000000000000000000000000000000000   WASWASHGovernor                                                OVER VOTES                            Precinct 104                  Washington County        01 
00050070003000000000000000000000000000000000000000000000000000000000000000000000000000000000000000000   WASWASHGovernor                                                OVER VOTES                            Precinct 109                  Washington County        01 
00050070004000000000000000000000000000000000000000000000000000000000000000000000000000000000000000000   WASWASHGovernor                                                OVER VOTES                            Precinct 115                  Washington County        01 
00050070005000000000000000000000000000000000000000000000000000000000000000000000000000000000000000000   WASWASHGovernor                                                OVER VOTES                            Precinct 117                  Washington County        01 
00050070006000000000000000000000000000000000000000000000000000000000000000000000000000000000000000000   WASWASHGovernor                                                OVER VOTES                            Precinct 121                  Washington County        01 
00050070007000000000000000000000000000000000000000000000000000000000000000000000000000000000000000000   WASWASHGovernor                                                OVER VOTES                            Precinct 202                  Washington County        01 
00050070008000000000000000000000000000000000000000000000000000000000000000000000000000000000000000000   WASWASHGovernor                                                OVER VOTES                            Precinct 203                  Washington County        01 
00050070009000000000000000000000000000000000000000000000000000000000000000000000000000000000000000000   WASWASHGovernor                                                OVER VOTES                            Precinct 205                  Washington County        01 
00050070010000000000000000000000000000000000000000000000000000000000000000000000000000000000000000000   WASWASHGovernor                                                OVER VOTES                            Precinct 208                  Washington County        01 
00050070011000000000000000000000000000000000000000000000000000000000000000000000000000000000000000000   WASWASHGovernor                                                OVER VOTES                            Precinct 307                  Washington County        01 
00050070012000000000000000000000000000000000000000000000000000000000000000000000000000000000000000000   WASWASHGovernor                                                OVER VOTES                            Precinct 311                  Washington County        01 
00050070013000000000000000000000000000000000000000000000000000000000000000000000000000000000000000000   WASWASHGovernor                                                OVER VOTES                            Precinct  312                 Washington County        01 
00050070014000000000000000000000000000000000000000000000000000000000000000000000000000000000000000000   WASWASHGovernor                                                OVER VOTES                            Precinct 320                  Washington County        01 
00050070015000000000000000000000000000000000000000000000000000000000000000000000000000000000000000000   WASWASHGovernor                                                OVER VOTES                            Precinct 406                  Washington County        01 
00050070016000000000000000000000000000000000000000000000000000000000000000000000000000000000000000000   WASWASHGovernor                                                OVER VOTES                            Precinct 410                  Washington County        01 
00050070017000002000000000002000000000000000000000000000000000000000000000000000000000000000000000000   WASWASHGovernor                                                OVER VOTES                            Precinct 413                  Washington County        01 
00050070018000000000000000000000000000000000000000000000000000000000000000000000000000000000000000000   WASWASHGovernor                                                OVER VOTES                            Precinct 418                  Washington County        01 
00050070019000000000000000000000000000000000000000000000000000000000000000000000000000000000000000000   WASWASHGovernor                                                OVER VOTES                            Precinct 419                  Washington County        01 
00050080001000010000000000004000006000000000000000000000000000000000000000000000000000000000000000000   WASWASHGovernor                                                UNDER VOTES                           Precinct 101                  Washington County        01 
00050080002000010000000000007000003000000000000000000000000000000000000000000000000000000000000000000   WASWASHGovernor                                                UNDER VOTES                           Precinct 104                  Washington County        01 
00050080003000011000001000005000005000000000000000000000000000000000000000000000000000000000000000000   WASWASHGovernor                                                UNDER VOTES                           Precinct 109                  Washington County        01 
00050080004000008000000000006000002000000000000000000000000000000000000000000000000000000000000000000   WASWASHGovernor                                                UNDER VOTES                           Precinct 115                  Washington County        01 
00050080005000000000000000000000000000000000000000000000000000000000000000000000000000000000000000000   WASWASHGovernor                                                UNDER VOTES                           Precinct 117                  Washington County        01 
00050080006000000000000000000000000000000000000000000000000000000000000000000000000000000000000000000   WASWASHGovernor                                                UNDER VOTES                           Precinct 121                  Washington County        01 
00050080007000000000000000000000000000000000000000000000000000000000000000000000000000000000000000000   WASWASHGovernor                                                UNDER VOTES                           Precinct 202                  Washington County        01 
00050080008000007000000000005000002000000000000000000000000000000000000000000000000000000000000000000   WASWASHGovernor                                                UNDER VOTES                           Precinct 203                  Washington County        01 
00050080009000021000001000013000007000000000000000000000000000000000000000000000000000000000000000000   WASWASHGovernor                                                UNDER VOTES                           Precinct 205                  Washington County        01 
00050080010000016000000000013000003000000000000000000000000000000000000000000000000000000000000000000   WASWASHGovernor                                                UNDER VOTES                           Precinct 208                  Washington County        01 
00050080011000011000001000006000004000000000000000000000000000000000000000000000000000000000000000000   WASWASHGovernor                                                UNDER VOTES                           Precinct 307                  Washington County        01 
00050080012000007000001000004000002000000000000000000000000000000000000000000000000000000000000000000   WASWASHGovernor                                                UNDER VOTES                           Precinct 311                  Washington County        01 
00050080013000007000000000005000002000000000000000000000000000000000000000000000000000000000000000000   WASWASHGovernor                                                UNDER VOTES                           Precinct  312                 Washington County        01 
00050080014000019000000000016000003000000000000000000000000000000000000000000000000000000000000000000   WASWASHGovernor                                                UNDER VOTES                           Precinct 320                  Washington County        01 
00050080015000008000000000005000003000000000000000000000000000000000000000000000000000000000000000000   WASWASHGovernor                                                UNDER VOTES                           Precinct 406                  Washington County        01 
00050080016000004000000000002000002000000000000000000000000000000000000000000000000000000000000000000   WASWASHGovernor                                                UNDER VOTES                           Precinct 410                  Washington County        01 
00050080017000010000000000006000004000000000000000000000000000000000000000000000000000000000000000000   WASWASHGovernor                                                UNDER VOTES                           Precinct 413                  Washington County        01 
00050080018000002000000000002000000000000000000000000000000000000000000000000000000000000000000000000   WASWASHGovernor                                                UNDER VOTES                           Precinct 418                  Washington County        01 
00050080019000002000000000002000000000000000000000000000000000000000000000000000000000000000000000000   WASWASHGovernor                                                UNDER VOTES                           Precinct 419                  Washington County        01 
00060010001000519000007000271000241000000000000000000000000000000000000000000000000000000000000000000REPWASWASHLieutenant Governor                                     REP Dan Patrick                       Precinct 101                  Washington County        01 
00060010002000301000005000199000097000000000000000000000000000000000000000000000000000000000000000000REPWASWASHLieutenant Governor                                     REP Dan Patrick                       Precinct 104                  Washington County        01 
00060010003000554000010000350000194000000000000000000000000000000000000000000000000000000000000000000REPWASWASHLieutenant Governor                                     REP Dan Patrick                       Precinct 109                  Washington County        01 
00060010004000443000009000327000107000000000000000000000000000000000000000000000000000000000000000000REPWASWASHLieutenant Governor                                     REP Dan Patrick                       Precinct 115                  Washington County        01 
00060010005000006000000000002000004000000000000000000000000000000000000000000000000000000000000000000REPWASWASHLieutenant Governor                                     REP Dan Patrick                       Precinct 117                  Washington County        01 
00060010006000036000000000028000008000000000000000000000000000000000000000000000000000000000000000000REPWASWASHLieutenant Governor                                     REP Dan Patrick                       Precinct 121                  Washington County        01 
00060010007000004000000000002000002000000000000000000000000000000000000000000000000000000000000000000REPWASWASHLieutenant Governor                                     REP Dan Patrick                       Precinct 202                  Washington County        01 
00060010008000997000033000637000327000000000000000000000000000000000000000000000000000000000000000000REPWASWASHLieutenant Governor                                     REP Dan Patrick                       Precinct 203                  Washington County        01 
00060010009001107000039000817000251000000000000000000000000000000000000000000000000000000000000000000REPWASWASHLieutenant Governor                                     REP Dan Patrick                       Precinct 205                  Washington County        01 
00060010010000821000009000579000233000000000000000000000000000000000000000000000000000000000000000000REPWASWASHLieutenant Governor                                     REP Dan Patrick                       Precinct 208                  Washington County        01 
00060010011000775000030000536000209000000000000000000000000000000000000000000000000000000000000000000REPWASWASHLieutenant Governor                                     REP Dan Patrick                       Precinct 307                  Washington County        01 
00060010012000622000023000363000236000000000000000000000000000000000000000000000000000000000000000000REPWASWASHLieutenant Governor                                     REP Dan Patrick                       Precinct 311                  Washington County        01 
00060010013000677000020000454000203000000000000000000000000000000000000000000000000000000000000000000REPWASWASHLieutenant Governor                                     REP Dan Patrick                       Precinct  312                 Washington County        01 
00060010014001063000024000787000252000000000000000000000000000000000000000000000000000000000000000000REPWASWASHLieutenant Governor                                     REP Dan Patrick                       Precinct 320                  Washington County        01 
00060010015000671000020000517000134000000000000000000000000000000000000000000000000000000000000000000REPWASWASHLieutenant Governor                                     REP Dan Patrick                       Precinct 406                  Washington County        01 
00060010016000666000017000342000307000000000000000000000000000000000000000000000000000000000000000000REPWASWASHLieutenant Governor                                     REP Dan Patrick                       Precinct 410                  Washington County        01 
00060010017000956000026000682000248000000000000000000000000000000000000000000000000000000000000000000REPWASWASHLieutenant Governor                                     REP Dan Patrick                       Precinct 413                  Washington County        01 
00060010018000216000004000159000053000000000000000000000000000000000000000000000000000000000000000000REPWASWASHLieutenant Governor                                     REP Dan Patrick                       Precinct 418                  Washington County        01 
00060010019000205000004000160000041000000000000000000000000000000000000000000000000000000000000000000REPWASWASHLieutenant Governor                                     REP Dan Patrick                       Precinct 419                  Washington County        01 
00060020001000217000022000087000108000000000000000000000000000000000000000000000000000000000000000000DEMWASWASHLieutenant Governor                                     DEM Mike Collier                      Precinct 101                  Washington County        01 
00060020002000455000031000305000119000000000000000000000000000000000000000000000000000000000000000000DEMWASWASHLieutenant Governor                                     DEM Mike Collier                      Precinct 104                  Washington County        01 
00060020003000106000004000069000033000000000000000000000000000000000000000000000000000000000000000000DEMWASWASHLieutenant Governor                                     DEM Mike Collier                      Precinct 109                  Washington County        01 
00060020004000110000006000071000033000000000000000000000000000000000000000000000000000000000000000000DEMWASWASHLieutenant Governor                                     DEM Mike Collier                      Precinct 115                  Washington County        01 
00060020005000017000003000006000008000000000000000000000000000000000000000000000000000000000000000000DEMWASWASHLieutenant Governor                                     DEM Mike Collier                      Precinct 117                  Washington County        01 
00060020006000013000002000009000002000000000000000000000000000000000000000000000000000000000000000000DEMWASWASHLieutenant Governor                                     DEM Mike Collier                      Precinct 121                  Washington County        01 
00060020007000000000000000000000000000000000000000000000000000000000000000000000000000000000000000000DEMWASWASHLieutenant Governor                                     DEM Mike Collier                      Precinct 202                  Washington County        01 
00060020008000231000019000130000082000000000000000000000000000000000000000000000000000000000000000000DEMWASWASHLieutenant Governor                                     DEM Mike Collier                      Precinct 203                  Washington County        01 
00060020009000356000024000266000066000000000000000000000000000000000000000000000000000000000000000000DEMWASWASHLieutenant Governor                                     DEM Mike Collier                      Precinct 205                  Washington County        01 
00060020010000129000011000087000031000000000000000000000000000000000000000000000000000000000000000000DEMWASWASHLieutenant Governor                                     DEM Mike Collier                      Precinct 208                  Washington County        01 
00060020011000259000022000178000059000000000000000000000000000000000000000000000000000000000000000000DEMWASWASHLieutenant Governor                                     DEM Mike Collier                      Precinct 307                  Washington County        01 
00060020012000108000011000071000026000000000000000000000000000000000000000000000000000000000000000000DEMWASWASHLieutenant Governor                                     DEM Mike Collier                      Precinct 311                  Washington County        01 
00060020013000097000001000067000029000000000000000000000000000000000000000000000000000000000000000000DEMWASWASHLieutenant Governor                                     DEM Mike Collier                      Precinct  312                 Washington County        01 
00060020014000170000014000126000030000000000000000000000000000000000000000000000000000000000000000000DEMWASWASHLieutenant Governor                                     DEM Mike Collier                      Precinct 320                  Washington County        01 
00060020015000246000017000177000052000000000000000000000000000000000000000000000000000000000000000000DEMWASWASHLieutenant Governor                                     DEM Mike Collier                      Precinct 406                  Washington County        01 
00060020016000125000009000066000050000000000000000000000000000000000000000000000000000000000000000000DEMWASWASHLieutenant Governor                                     DEM Mike Collier                      Precinct 410                  Washington County        01 
00060020017000163000010000121000032000000000000000000000000000000000000000000000000000000000000000000DEMWASWASHLieutenant Governor                                     DEM Mike Collier                      Precinct 413                  Washington County        01 
00060020018000086000003000063000020000000000000000000000000000000000000000000000000000000000000000000DEMWASWASHLieutenant Governor                                     DEM Mike Collier                      Precinct 418                  Washington County        01 
00060020019000080000003000057000020000000000000000000000000000000000000000000000000000000000000000000DEMWASWASHLieutenant Governor                                     DEM Mike Collier                      Precinct 419                  Washington County        01 
00060030001000009000000000006000003000000000000000000000000000000000000000000000000000000000000000000LIBWASWASHLieutenant Governor                                     LIB Shanna Steele                     Precinct 101                  Washington County        01 
00060030002000020000001000013000006000000000000000000000000000000000000000000000000000000000000000000LIBWASWASHLieutenant Governor                                     LIB Shanna Steele                     Precinct 104                  Washington County        01 
00060030003000009000000000006000003000000000000000000000000000000000000000000000000000000000000000000LIBWASWASHLieutenant Governor                                     LIB Shanna Steele                     Precinct 109                  Washington County        01 
00060030004000008000000000005000003000000000000000000000000000000000000000000000000000000000000000000LIBWASWASHLieutenant Governor                                     LIB Shanna Steele                     Precinct 115                  Washington County        01 
00060030005000000000000000000000000000000000000000000000000000000000000000000000000000000000000000000LIBWASWASHLieutenant Governor                                     LIB Shanna Steele                     Precinct 117                  Washington County        01 
00060030006000001000000000001000000000000000000000000000000000000000000000000000000000000000000000000LIBWASWASHLieutenant Governor                                     LIB Shanna Steele                     Precinct 121                  Washington County        01 
00060030007000000000000000000000000000000000000000000000000000000000000000000000000000000000000000000LIBWASWASHLieutenant Governor                                     LIB Shanna Steele                     Precinct 202                  Washington County        01 
00060030008000032000001000015000016000000000000000000000000000000000000000000000000000000000000000000LIBWASWASHLieutenant Governor                                     LIB Shanna Steele                     Precinct 203                  Washington County        01 
00060030009000047000001000031000015000000000000000000000000000000000000000000000000000000000000000000LIBWASWASHLieutenant Governor                                     LIB Shanna Steele                     Precinct 205                  Washington County        01 
00060030010000020000000000015000005000000000000000000000000000000000000000000000000000000000000000000LIBWASWASHLieutenant Governor                                     LIB Shanna Steele                     Precinct 208                  Washington County        01 
00060030011000032000000000026000006000000000000000000000000000000000000000000000000000000000000000000LIBWASWASHLieutenant Governor                                     LIB Shanna Steele                     Precinct 307                  Washington County        01 
00060030012000029000003000014000012000000000000000000000000000000000000000000000000000000000000000000LIBWASWASHLieutenant Governor                                     LIB Shanna Steele                     Precinct 311                  Washington County        01 
00060030013000016000000000012000004000000000000000000000000000000000000000000000000000000000000000000LIBWASWASHLieutenant Governor                                     LIB Shanna Steele                     Precinct  312                 Washington County        01 
00060030014000013000000000011000002000000000000000000000000000000000000000000000000000000000000000000LIBWASWASHLieutenant Governor                                     LIB Shanna Steele                     Precinct 320                  Washington County        01 
00060030015000025000000000014000011000000000000000000000000000000000000000000000000000000000000000000LIBWASWASHLieutenant Governor                                     LIB Shanna Steele                     Precinct 406                  Washington County        01 
00060030016000010000000000005000005000000000000000000000000000000000000000000000000000000000000000000LIBWASWASHLieutenant Governor                                     LIB Shanna Steele                     Precinct 410                  Washington County        01 
00060030017000022000000000013000009000000000000000000000000000000000000000000000000000000000000000000LIBWASWASHLieutenant Governor                                     LIB Shanna Steele                     Precinct 413                  Washington County        01 
00060030018000010000000000007000003000000000000000000000000000000000000000000000000000000000000000000LIBWASWASHLieutenant Governor                                     LIB Shanna Steele                     Precinct 418                  Washington County        01 
00060030019000010000000000007000003000000000000000000000000000000000000000000000000000000000000000000LIBWASWASHLieutenant Governor                                     LIB Shanna Steele                     Precinct 419                  Washington County        01 
00060040001000000000000000000000000000000000000000000000000000000000000000000000000000000000000000000   WASWASHLieutenant Governor                                     OVER VOTES                            Precinct 101                  Washington County        01 
00060040002000000000000000000000000000000000000000000000000000000000000000000000000000000000000000000   WASWASHLieutenant Governor                                     OVER VOTES                            Precinct 104                  Washington County        01 
00060040003000000000000000000000000000000000000000000000000000000000000000000000000000000000000000000   WASWASHLieutenant Governor                                     OVER VOTES                            Precinct 109                  Washington County        01 
00060040004000000000000000000000000000000000000000000000000000000000000000000000000000000000000000000   WASWASHLieutenant Governor                                     OVER VOTES                            Precinct 115                  Washington County        01 
00060040005000000000000000000000000000000000000000000000000000000000000000000000000000000000000000000   WASWASHLieutenant Governor                                     OVER VOTES                            Precinct 117                  Washington County        01 
00060040006000000000000000000000000000000000000000000000000000000000000000000000000000000000000000000   WASWASHLieutenant Governor                                     OVER VOTES                            Precinct 121                  Washington County        01 
00060040007000000000000000000000000000000000000000000000000000000000000000000000000000000000000000000   WASWASHLieutenant Governor                                     OVER VOTES                            Precinct 202                  Washington County        01 
00060040008000000000000000000000000000000000000000000000000000000000000000000000000000000000000000000   WASWASHLieutenant Governor                                     OVER VOTES                            Precinct 203                  Washington County        01 
00060040009000000000000000000000000000000000000000000000000000000000000000000000000000000000000000000   WASWASHLieutenant Governor                                     OVER VOTES                            Precinct 205                  Washington County        01 
00060040010000000000000000000000000000000000000000000000000000000000000000000000000000000000000000000   WASWASHLieutenant Governor                                     OVER VOTES                            Precinct 208                  Washington County        01 
00060040011000000000000000000000000000000000000000000000000000000000000000000000000000000000000000000   WASWASHLieutenant Governor                                     OVER VOTES                            Precinct 307                  Washington County        01 
00060040012000000000000000000000000000000000000000000000000000000000000000000000000000000000000000000   WASWASHLieutenant Governor                                     OVER VOTES                            Precinct 311                  Washington County        01 
00060040013000000000000000000000000000000000000000000000000000000000000000000000000000000000000000000   WASWASHLieutenant Governor                                     OVER VOTES                            Precinct  312                 Washington County        01 
00060040014000000000000000000000000000000000000000000000000000000000000000000000000000000000000000000   WASWASHLieutenant Governor                                     OVER VOTES                            Precinct 320                  Washington County        01 
00060040015000001000000000001000000000000000000000000000000000000000000000000000000000000000000000000   WASWASHLieutenant Governor                                     OVER VOTES                            Precinct 406                  Washington County        01 
00060040016000000000000000000000000000000000000000000000000000000000000000000000000000000000000000000   WASWASHLieutenant Governor                                     OVER VOTES                            Precinct 410                  Washington County        01 
00060040017000000000000000000000000000000000000000000000000000000000000000000000000000000000000000000   WASWASHLieutenant Governor                                     OVER VOTES                            Precinct 413                  Washington County        01 
00060040018000000000000000000000000000000000000000000000000000000000000000000000000000000000000000000   WASWASHLieutenant Governor                                     OVER VOTES                            Precinct 418                  Washington County        01 
00060040019000000000000000000000000000000000000000000000000000000000000000000000000000000000000000000   WASWASHLieutenant Governor                                     OVER VOTES                            Precinct 419                  Washington County        01 
00060050001000010000000000005000005000000000000000000000000000000000000000000000000000000000000000000   WASWASHLieutenant Governor                                     UNDER VOTES                           Precinct 101                  Washington County        01 
00060050002000014000000000008000006000000000000000000000000000000000000000000000000000000000000000000   WASWASHLieutenant Governor                                     UNDER VOTES                           Precinct 104                  Washington County        01 
00060050003000013000000000004000009000000000000000000000000000000000000000000000000000000000000000000   WASWASHLieutenant Governor                                     UNDER VOTES                           Precinct 109                  Washington County        01 
00060050004000010000000000008000002000000000000000000000000000000000000000000000000000000000000000000   WASWASHLieutenant Governor                                     UNDER VOTES                           Precinct 115                  Washington County        01 
00060050005000001000000000001000000000000000000000000000000000000000000000000000000000000000000000000   WASWASHLieutenant Governor                                     UNDER VOTES                           Precinct 117                  Washington County        01 
00060050006000001000000000001000000000000000000000000000000000000000000000000000000000000000000000000   WASWASHLieutenant Governor                                     UNDER VOTES                           Precinct 121                  Washington County        01 
00060050007000001000000000000000001000000000000000000000000000000000000000000000000000000000000000000   WASWASHLieutenant Governor                                     UNDER VOTES                           Precinct 202                  Washington County        01 
00060050008000014000000000007000007000000000000000000000000000000000000000000000000000000000000000000   WASWASHLieutenant Governor                                     UNDER VOTES                           Precinct 203                  Washington County        01 
00060050009000034000000000024000010000000000000000000000000000000000000000000000000000000000000000000   WASWASHLieutenant Governor                                     UNDER VOTES                           Precinct 205                  Washington County        01 
00060050010000022000000000014000008000000000000000000000000000000000000000000000000000000000000000000   WASWASHLieutenant Governor                                     UNDER VOTES                           Precinct 208                  Washington County        01 
00060050011000014000001000009000004000000000000000000000000000000000000000000000000000000000000000000   WASWASHLieutenant Governor                                     UNDER VOTES                           Precinct 307                  Washington County        01 
00060050012000007000001000003000003000000000000000000000000000000000000000000000000000000000000000000   WASWASHLieutenant Governor                                     UNDER VOTES                           Precinct 311                  Washington County        01 
00060050013000009000000000007000002000000000000000000000000000000000000000000000000000000000000000000   WASWASHLieutenant Governor                                     UNDER VOTES                           Precinct  312                 Washington County        01 
