00010010001003684000000000000000000000000000000000000000000000000000000000000000000000000000000000000          REGISTERED VOTERS - TOTAL                               REGISTERED VOTERS - TOTAL             Box 101                                                00 
00010010002002381000000000000000000000000000000000000000000000000000000000000000000000000000000000000          REGISTERED VOTERS - TOTAL                               REGISTERED VOTERS - TOTAL             Box 102                                                00 
00010010003002054000000000000000000000000000000000000000000000000000000000000000000000000000000000000          REGISTERED VOTERS - TOTAL                               REGISTERED VOTERS - TOTAL             Box 103                                                00 
00010010004001313000000000000000000000000000000000000000000000000000000000000000000000000000000000000          REGISTERED VOTERS - TOTAL                               REGISTERED VOTERS - TOTAL             Box 104                                                00 
00010010005003167000000000000000000000000000000000000000000000000000000000000000000000000000000000000          REGISTERED VOTERS - TOTAL                               REGISTERED VOTERS - TOTAL             Box 205                                                00 
00010010006002523000000000000000000000000000000000000000000000000000000000000000000000000000000000000          REGISTERED VOTERS - TOTAL                               REGISTERED VOTERS - TOTAL             Box 206                                                00 
00010010007003434000000000000000000000000000000000000000000000000000000000000000000000000000000000000          REGISTERED VOTERS - TOTAL                               REGISTERED VOTERS - TOTAL             Box 207                                                00 
00010010008002665000000000000000000000000000000000000000000000000000000000000000000000000000000000000          REGISTERED VOTERS - TOTAL                               REGISTERED VOTERS - TOTAL             Box 311                                                00 
00010010009002955000000000000000000000000000000000000000000000000000000000000000000000000000000000000          REGISTERED VOTERS - TOTAL                               REGISTERED VOTERS - TOTAL             Box 312                                                00 
00010010010004064000000000000000000000000000000000000000000000000000000000000000000000000000000000000          REGISTERED VOTERS - TOTAL                               REGISTERED VOTERS - TOTAL             Box 313                                                00 
00010010011003045000000000000000000000000000000000000000000000000000000000000000000000000000000000000          REGISTERED VOTERS - TOTAL                               REGISTERED VOTERS - TOTAL             Box 414                                                00 
00010010012003641000000000000000000000000000000000000000000000000000000000000000000000000000000000000          REGISTERED VOTERS - TOTAL                               REGISTERED VOTERS - TOTAL             Box 415                                                00 
00010010013002147000000000000000000000000000000000000000000000000000000000000000000000000000000000000          REGISTERED VOTERS - TOTAL                               REGISTERED VOTERS - TOTAL             Box 416                                                00 
00020010001002047000090001165000792000000000000000000000000000000000000000000000000000000000000000000          BALLOTS CAST - TOTAL                                    BALLOTS CAST - TOTAL                  Box 101                                                00 
00020010002000928000077000603000248000000000000000000000000000000000000000000000000000000000000000000          BALLOTS CAST - TOTAL                                    BALLOTS CAST - TOTAL                  Box 102                                                00 
00020010003000949000074000506000369000000000000000000000000000000000000000000000000000000000000000000          BALLOTS CAST - TOTAL                                    BALLOTS CAST - TOTAL                  Box 103                                                00 
00020010004000713000026000371000316000000000000000000000000000000000000000000000000000000000000000000          BALLOTS CAST - TOTAL                                    BALLOTS CAST - TOTAL                  Box 104                                                00 
00020010005001726000060000804000862000000000000000000000000000000000000000000000000000000000000000000          BALLOTS CAST - TOTAL                                    BALLOTS CAST - TOTAL                  Box 205                                                00 
00020010006001209000095000770000344000000000000000000000000000000000000000000000000000000000000000000          BALLOTS CAST - TOTAL                                    BALLOTS CAST - TOTAL                  Box 206                                                00 
00020010007001856000070001217000569000000000000000000000000000000000000000000000000000000000000000000          BALLOTS CAST - TOTAL                                    BALLOTS CAST - TOTAL                  Box 207                                                00 
00020010008001562000071000871000620000000000000000000000000000000000000000000000000000000000000000000          BALLOTS CAST - TOTAL                                    BALLOTS CAST - TOTAL                  Box 311                                                00 
00020010009001637000050000951000636000000000000000000000000000000000000000000000000000000000000000000          BALLOTS CAST - TOTAL                                    BALLOTS CAST - TOTAL                  Box 312                                                00 
00020010010002041000050001117000874000000000000000000000000000000000000000000000000000000000000000000          BALLOTS CAST - TOTAL                                    BALLOTS CAST - TOTAL                  Box 313                                                00 
00020010011001562000067000646000849000000000000000000000000000000000000000000000000000000000000000000          BALLOTS CAST - TOTAL                                    BALLOTS CAST - TOTAL                  Box 414                                                00 
00020010012002138000074001315000749000000000000000000000000000000000000000000000000000000000000000000          BALLOTS CAST - TOTAL                                    BALLOTS CAST - TOTAL                  Box 415                                                00 
00020010013001253000063000670000520000000000000000000000000000000000000000000000000000000000000000000          BALLOTS CAST - TOTAL                                    BALLOTS CAST - TOTAL                  Box 416                                                00 
00030010001000002000000000001000001000000000000000000000000000000000000000000000000000000000000000000          BALLOTS CAST - BLANK                                    BALLOTS CAST - BLANK                  Box 101                                                00 
00030010002000003000000000003000000000000000000000000000000000000000000000000000000000000000000000000          BALLOTS CAST - BLANK                                    BALLOTS CAST - BLANK                  Box 102                                                00 
00030010003000002000001000000000001000000000000000000000000000000000000000000000000000000000000000000          BALLOTS CAST - BLANK                                    BALLOTS CAST - BLANK                  Box 103                                                00 
00030010004000004000000000002000002000000000000000000000000000000000000000000000000000000000000000000          BALLOTS CAST - BLANK                                    BALLOTS CAST - BLANK                  Box 104                                                00 
00030010005000007000000000002000005000000000000000000000000000000000000000000000000000000000000000000          BALLOTS CAST - BLANK                                    BALLOTS CAST - BLANK                  Box 205                                                00 
00030010006000004000000000004000000000000000000000000000000000000000000000000000000000000000000000000          BALLOTS CAST - BLANK                                    BALLOTS CAST - BLANK                  Box 206                                                00 
00030010007000004000000000001000003000000000000000000000000000000000000000000000000000000000000000000          BALLOTS CAST - BLANK                                    BALLOTS CAST - BLANK                  Box 207                                                00 
00030010008000004000000000002000002000000000000000000000000000000000000000000000000000000000000000000          BALLOTS CAST - BLANK                                    BALLOTS CAST - BLANK                  Box 311                                                00 
00030010009000007000000000004000003000000000000000000000000000000000000000000000000000000000000000000          BALLOTS CAST - BLANK                                    BALLOTS CAST - BLANK                  Box 312                                                00 
00030010010000008000000000004000004000000000000000000000000000000000000000000000000000000000000000000          BALLOTS CAST - BLANK                                    BALLOTS CAST - BLANK                  Box 313                                                00 
00030010011000008000000000000000008000000000000000000000000000000000000000000000000000000000000000000          BALLOTS CAST - BLANK                                    BALLOTS CAST - BLANK                  Box 414                                                00 
00030010012000005000000000005000000000000000000000000000000000000000000000000000000000000000000000000          BALLOTS CAST - BLANK                                    BALLOTS CAST - BLANK                  Box 415                                                00 
00030010013000001000000000000000001000000000000000000000000000000000000000000000000000000000000000000          BALLOTS CAST - BLANK                                    BALLOTS CAST - BLANK                  Box 416                                                00 
00040010001001344000035000767000542000000000000000000000000000000000000000000000000000000000000000000REP       US Representative, Dist 15                              REP Monica De La Cruz                 Box 101                                                01 
00040010002000412000013000267000132000000000000000000000000000000000000000000000000000000000000000000REP       US Representative, Dist 15                              REP Monica De La Cruz                 Box 102                                                01 
00040010003000612000023000345000244000000000000000000000000000000000000000000000000000000000000000000REP       US Representative, Dist 15                              REP Monica De La Cruz                 Box 103                                                01 
00040010004000529000014000289000226000000000000000000000000000000000000000000000000000000000000000000REP       US Representative, Dist 15                              REP Monica De La Cruz                 Box 104                                                01 
00040010005001439000032000677000730000000000000000000000000000000000000000000000000000000000000000000REP       US Representative, Dist 15                              REP Monica De La Cruz                 Box 205                                                01 
00040010006000777000034000523000220000000000000000000000000000000000000000000000000000000000000000000REP       US Representative, Dist 15                              REP Monica De La Cruz                 Box 206                                                01 
00040010007001358000040000907000411000000000000000000000000000000000000000000000000000000000000000000REP       US Representative, Dist 15                              REP Monica De La Cruz                 Box 207                                                01 
00040010008001321000040000752000529000000000000000000000000000000000000000000000000000000000000000000REP       US Representative, Dist 15                              REP Monica De La Cruz                 Box 311                                                01 
00040010009001382000029000804000549000000000000000000000000000000000000000000000000000000000000000000REP       US Representative, Dist 15                              REP Monica De La Cruz                 Box 312                                                01 
00040010010001679000030000929000720000000000000000000000000000000000000000000000000000000000000000000REP       US Representative, Dist 15                              REP Monica De La Cruz                 Box 313                                                01 
00040010011001310000038000555000717000000000000000000000000000000000000000000000000000000000000000000REP       US Representative, Dist 15                              REP Monica De La Cruz                 Box 414                                                01 
00040010012001672000045001021000606000000000000000000000000000000000000000000000000000000000000000000REP       US Representative, Dist 15                              REP Monica De La Cruz                 Box 415                                                01 
00040010013001003000037000529000437000000000000000000000000000000000000000000000000000000000000000000REP       US Representative, Dist 15                              REP Monica De La Cruz                 Box 416                                                01 
00040020001000653000055000371000227000000000000000000000000000000000000000000000000000000000000000000DEM       US Representative, Dist 15                              DEM Michelle Vallejo                  Box 101                                                01 
00040020002000470000062000300000108000000000000000000000000000000000000000000000000000000000000000000DEM       US Representative, Dist 15                              DEM Michelle Vallejo                  Box 102                                                01 
00040020003000293000046000146000101000000000000000000000000000000000000000000000000000000000000000000DEM       US Representative, Dist 15                              DEM Michelle Vallejo                  Box 103                                                01 
00040020004000162000011000075000076000000000000000000000000000000000000000000000000000000000000000000DEM       US Representative, Dist 15                              DEM Michelle Vallejo                  Box 104                                                01 
00040020005000235000025000111000099000000000000000000000000000000000000000000000000000000000000000000DEM       US Representative, Dist 15                              DEM Michelle Vallejo                  Box 205                                                01 
00040020006000386000059000215000112000000000000000000000000000000000000000000000000000000000000000000DEM       US Representative, Dist 15                              DEM Michelle Vallejo                  Box 206                                                01 
00040020007000434000028000272000134000000000000000000000000000000000000000000000000000000000000000000DEM       US Representative, Dist 15                              DEM Michelle Vallejo                  Box 207                                                01 
00040020008000187000026000090000071000000000000000000000000000000000000000000000000000000000000000000DEM       US Representative, Dist 15                              DEM Michelle Vallejo                  Box 311                                                01 
00040020009000210000021000121000068000000000000000000000000000000000000000000000000000000000000000000DEM       US Representative, Dist 15                              DEM Michelle Vallejo                  Box 312                                                01 
00040020010000288000017000149000122000000000000000000000000000000000000000000000000000000000000000000DEM       US Representative, Dist 15                              DEM Michelle Vallejo                  Box 313                                                01 
00040020011000197000026000075000096000000000000000000000000000000000000000000000000000000000000000000DEM       US Representative, Dist 15                              DEM Michelle Vallejo                  Box 414                                                01 
00040020012000399000027000251000121000000000000000000000000000000000000000000000000000000000000000000DEM       US Representative, Dist 15                              DEM Michelle Vallejo                  Box 415                                                01 
00040020013000219000024000131000064000000000000000000000000000000000000000000000000000000000000000000DEM       US Representative, Dist 15                              DEM Michelle Vallejo                  Box 416                                                01 
00040030001000022000000000008000014000000000000000000000000000000000000000000000000000000000000000000LIB       US Representative, Dist 15                              LIB Ross Lynn Leone, Jr.              Box 101                                                01 
00040030002000009000001000006000002000000000000000000000000000000000000000000000000000000000000000000LIB       US Representative, Dist 15                              LIB Ross Lynn Leone, Jr.              Box 102                                                01 
00040030003000022000001000008000013000000000000000000000000000000000000000000000000000000000000000000LIB       US Representative, Dist 15                              LIB Ross Lynn Leone, Jr.              Box 103                                                01 
00040030004000005000000000002000003000000000000000000000000000000000000000000000000000000000000000000LIB       US Representative, Dist 15                              LIB Ross Lynn Leone, Jr.              Box 104                                                01 
00040030005000016000001000001000014000000000000000000000000000000000000000000000000000000000000000000LIB       US Representative, Dist 15                              LIB Ross Lynn Leone, Jr.              Box 205                                                01 
00040030006000021000002000011000008000000000000000000000000000000000000000000000000000000000000000000LIB       US Representative, Dist 15                              LIB Ross Lynn Leone, Jr.              Box 206                                                01 
00040030007000040000000000023000017000000000000000000000000000000000000000000000000000000000000000000LIB       US Representative, Dist 15                              LIB Ross Lynn Leone, Jr.              Box 207                                                01 
00040030008000024000000000013000011000000000000000000000000000000000000000000000000000000000000000000LIB       US Representative, Dist 15                              LIB Ross Lynn Leone, Jr.              Box 311                                                01 
00040030009000026000000000013000013000000000000000000000000000000000000000000000000000000000000000000LIB       US Representative, Dist 15                              LIB Ross Lynn Leone, Jr.              Box 312                                                01 
00040030010000034000001000016000017000000000000000000000000000000000000000000000000000000000000000000LIB       US Representative, Dist 15                              LIB Ross Lynn Leone, Jr.              Box 313                                                01 
00040030011000028000000000009000019000000000000000000000000000000000000000000000000000000000000000000LIB       US Representative, Dist 15                              LIB Ross Lynn Leone, Jr.              Box 414                                                01 
00040030012000042000001000023000018000000000000000000000000000000000000000000000000000000000000000000LIB       US Representative, Dist 15                              LIB Ross Lynn Leone, Jr.              Box 415                                                01 
00040030013000018000002000003000013000000000000000000000000000000000000000000000000000000000000000000LIB       US Representative, Dist 15                              LIB Ross Lynn Leone, Jr.              Box 416                                                01 
00040040001000000000000000000000000000000000000000000000000000000000000000000000000000000000000000000          US Representative, Dist 15                              OVER VOTES                            Box 101                                                01 
00040040002000000000000000000000000000000000000000000000000000000000000000000000000000000000000000000          US Representative, Dist 15                              OVER VOTES                            Box 102                                                01 
00040040003000000000000000000000000000000000000000000000000000000000000000000000000000000000000000000          US Representative, Dist 15                              OVER VOTES                            Box 103                                                01 
00040040004000000000000000000000000000000000000000000000000000000000000000000000000000000000000000000          US Representative, Dist 15                              OVER VOTES                            Box 104                                                01 
00040040005000000000000000000000000000000000000000000000000000000000000000000000000000000000000000000          US Representative, Dist 15                              OVER VOTES                            Box 205                                                01 
00040040006000000000000000000000000000000000000000000000000000000000000000000000000000000000000000000          US Representative, Dist 15                              OVER VOTES                            Box 206                                                01 
00040040007000000000000000000000000000000000000000000000000000000000000000000000000000000000000000000          US Representative, Dist 15                              OVER VOTES                            Box 207                                                01 
00040040008000000000000000000000000000000000000000000000000000000000000000000000000000000000000000000          US Representative, Dist 15                              OVER VOTES                            Box 311                                                01 
00040040009000000000000000000000000000000000000000000000000000000000000000000000000000000000000000000          US Representative, Dist 15                              OVER VOTES                            Box 312                                                01 
00040040010000000000000000000000000000000000000000000000000000000000000000000000000000000000000000000          US Representative, Dist 15                              OVER VOTES                            Box 313                                                01 
00040040011000001000000000000000001000000000000000000000000000000000000000000000000000000000000000000          US Representative, Dist 15                              OVER VOTES                            Box 414                                                01 
00040040012000001000001000000000000000000000000000000000000000000000000000000000000000000000000000000          US Representative, Dist 15                              OVER VOTES                            Box 415                                                01 
00040040013000000000000000000000000000000000000000000000000000000000000000000000000000000000000000000          US Representative, Dist 15                              OVER VOTES                            Box 416                                                01 
00040050001000028000000000019000009000000000000000000000000000000000000000000000000000000000000000000          US Representative, Dist 15                              UNDER VOTES                           Box 101                                                01 
00040050002000037000001000030000006000000000000000000000000000000000000000000000000000000000000000000          US Representative, Dist 15                              UNDER VOTES                           Box 102                                                01 
00040050003000022000004000007000011000000000000000000000000000000000000000000000000000000000000000000          US Representative, Dist 15                              UNDER VOTES                           Box 103                                                01 
00040050004000017000001000005000011000000000000000000000000000000000000000000000000000000000000000000          US Representative, Dist 15                              UNDER VOTES                           Box 104                                                01 
00040050005000036000002000015000019000000000000000000000000000000000000000000000000000000000000000000          US Representative, Dist 15                              UNDER VOTES                           Box 205                                                01 
00040050006000025000000000021000004000000000000000000000000000000000000000000000000000000000000000000          US Representative, Dist 15                              UNDER VOTES                           Box 206                                                01 
00040050007000024000002000015000007000000000000000000000000000000000000000000000000000000000000000000          US Representative, Dist 15                              UNDER VOTES                           Box 207                                                01 
00040050008000030000005000016000009000000000000000000000000000000000000000000000000000000000000000000          US Representative, Dist 15                              UNDER VOTES                           Box 311                                                01 
00040050009000019000000000013000006000000000000000000000000000000000000000000000000000000000000000000          US Representative, Dist 15                              UNDER VOTES                           Box 312                                                01 
00040050010000040000002000023000015000000000000000000000000000000000000000000000000000000000000000000          US Representative, Dist 15                              UNDER VOTES                           Box 313                                                01 
00040050011000026000003000007000016000000000000000000000000000000000000000000000000000000000000000000          US Representative, Dist 15                              UNDER VOTES                           Box 414                                                01 
00040050012000024000000000020000004000000000000000000000000000000000000000000000000000000000000000000          US Representative, Dist 15                              UNDER VOTES                           Box 415                                                01 
00040050013000013000000000007000006000000000000000000000000000000000000000000000000000000000000000000          US Representative, Dist 15                              UNDER VOTES                           Box 416                                                01 
00050010001001350000035000781000534000000000000000000000000000000000000000000000000000000000000000000REP       Governor                                                REP Greg Abbott                       Box 101                                                01 
00050010002000423000013000277000133000000000000000000000000000000000000000000000000000000000000000000REP       Governor                                                REP Greg Abbott                       Box 102                                                01 
00050010003000610000024000341000245000000000000000000000000000000000000000000000000000000000000000000REP       Governor                                                REP Greg Abbott                       Box 103                                                01 
00050010004000526000015000283000228000000000000000000000000000000000000000000000000000000000000000000REP       Governor                                                REP Greg Abbott                       Box 104                                                01 
00050010005001456000037000688000731000000000000000000000000000000000000000000000000000000000000000000REP       Governor                                                REP Greg Abbott                       Box 205                                                01 
00050010006000791000028000542000221000000000000000000000000000000000000000000000000000000000000000000REP       Governor                                                REP Greg Abbott                       Box 206                                                01 
00050010007001370000041000915000414000000000000000000000000000000000000000000000000000000000000000000REP       Governor                                                REP Greg Abbott                       Box 207                                                01 
00050010008001328000041000757000530000000000000000000000000000000000000000000000000000000000000000000REP       Governor                                                REP Greg Abbott                       Box 311                                                01 
00050010009001394000027000818000549000000000000000000000000000000000000000000000000000000000000000000REP       Governor                                                REP Greg Abbott                       Box 312                                                01 
00050010010001705000030000945000730000000000000000000000000000000000000000000000000000000000000000000REP       Governor                                                REP Greg Abbott                       Box 313                                                01 
00050010011001318000039000561000718000000000000000000000000000000000000000000000000000000000000000000REP       Governor                                                REP Greg Abbott                       Box 414                                                01 
00050010012001677000046001027000604000000000000000000000000000000000000000000000000000000000000000000REP       Governor                                                REP Greg Abbott                       Box 415                                                01 
00050010013001004000036000530000438000000000000000000000000000000000000000000000000000000000000000000REP       Governor                                                REP Greg Abbott                       Box 416                                                01 
00050020001000663000053000371000239000000000000000000000000000000000000000000000000000000000000000000DEM       Governor                                                DEM Beto O'Rourke                     Box 101                                                01 
00050020002000481000061000311000109000000000000000000000000000000000000000000000000000000000000000000DEM       Governor                                                DEM Beto O'Rourke                     Box 102                                                01 
00050020003000308000046000155000107000000000000000000000000000000000000000000000000000000000000000000DEM       Governor                                                DEM Beto O'Rourke                     Box 103                                                01 
00050020004000167000011000080000076000000000000000000000000000000000000000000000000000000000000000000DEM       Governor                                                DEM Beto O'Rourke                     Box 104                                                01 
00050020005000245000021000110000114000000000000000000000000000000000000000000000000000000000000000000DEM       Governor                                                DEM Beto O'Rourke                     Box 205                                                01 
00050020006000401000066000219000116000000000000000000000000000000000000000000000000000000000000000000DEM       Governor                                                DEM Beto O'Rourke                     Box 206                                                01 
00050020007000457000029000286000142000000000000000000000000000000000000000000000000000000000000000000DEM       Governor                                                DEM Beto O'Rourke                     Box 207                                                01 
00050020008000206000030000102000074000000000000000000000000000000000000000000000000000000000000000000DEM       Governor                                                DEM Beto O'Rourke                     Box 311                                                01 
00050020009000215000020000123000072000000000000000000000000000000000000000000000000000000000000000000DEM       Governor                                                DEM Beto O'Rourke                     Box 312                                                01 
00050020010000306000018000160000128000000000000000000000000000000000000000000000000000000000000000000DEM       Governor                                                DEM Beto O'Rourke                     Box 313                                                01 
00050020011000215000026000078000111000000000000000000000000000000000000000000000000000000000000000000DEM       Governor                                                DEM Beto O'Rourke                     Box 414                                                01 
00050020012000423000027000265000131000000000000000000000000000000000000000000000000000000000000000000DEM       Governor                                                DEM Beto O'Rourke                     Box 415                                                01 
00050020013000230000024000131000075000000000000000000000000000000000000000000000000000000000000000000DEM       Governor                                                DEM Beto O'Rourke                     Box 416                                                01 
00050030001000016000002000005000009000000000000000000000000000000000000000000000000000000000000000000LIB       Governor                                                LIB Mark Tippetts                     Box 101                                                01 
00050030002000005000001000003000001000000000000000000000000000000000000000000000000000000000000000000LIB       Governor                                                LIB Mark Tippetts                     Box 102                                                01 
00050030003000011000002000003000006000000000000000000000000000000000000000000000000000000000000000000LIB       Governor                                                LIB Mark Tippetts                     Box 103                                                01 
00050030004000004000000000002000002000000000000000000000000000000000000000000000000000000000000000000LIB       Governor                                                LIB Mark Tippetts                     Box 104                                                01 
00050030005000009000001000002000006000000000000000000000000000000000000000000000000000000000000000000LIB       Governor                                                LIB Mark Tippetts                     Box 205                                                01 
00050030006000007000000000003000004000000000000000000000000000000000000000000000000000000000000000000LIB       Governor                                                LIB Mark Tippetts                     Box 206                                                01 
00050030007000010000000000006000004000000000000000000000000000000000000000000000000000000000000000000LIB       Governor                                                LIB Mark Tippetts                     Box 207                                                01 
00050030008000017000000000008000009000000000000000000000000000000000000000000000000000000000000000000LIB       Governor                                                LIB Mark Tippetts                     Box 311                                                01 
00050030009000012000000000004000008000000000000000000000000000000000000000000000000000000000000000000LIB       Governor                                                LIB Mark Tippetts                     Box 312                                                01 
00050030010000013000001000005000007000000000000000000000000000000000000000000000000000000000000000000LIB       Governor                                                LIB Mark Tippetts                     Box 313                                                01 
00050030011000010000000000003000007000000000000000000000000000000000000000000000000000000000000000000LIB       Governor                                                LIB Mark Tippetts                     Box 414                                                01 
00050030012000018000000000009000009000000000000000000000000000000000000000000000000000000000000000000LIB       Governor                                                LIB Mark Tippetts                     Box 415                                                01 
00050030013000009000001000004000004000000000000000000000000000000000000000000000000000000000000000000LIB       Governor                                                LIB Mark Tippetts                     Box 416                                                01 
00050040001000006000000000002000004000000000000000000000000000000000000000000000000000000000000000000GRN       Governor                                                GRN Delilah Barrios                   Box 101                                                01 
00050040002000002000000000001000001000000000000000000000000000000000000000000000000000000000000000000GRN       Governor                                                GRN Delilah Barrios                   Box 102                                                01 
00050040003000008000000000002000006000000000000000000000000000000000000000000000000000000000000000000GRN       Governor                                                GRN Delilah Barrios                   Box 103                                                01 
00050040004000006000000000002000004000000000000000000000000000000000000000000000000000000000000000000GRN       Governor                                                GRN Delilah Barrios                   Box 104                                                01 
00050040005000005000000000002000003000000000000000000000000000000000000000000000000000000000000000000GRN       Governor                                                GRN Delilah Barrios                   Box 205                                                01 
00050040006000002000000000000000002000000000000000000000000000000000000000000000000000000000000000000GRN       Governor                                                GRN Delilah Barrios                   Box 206                                                01 
00050040007000005000000000005000000000000000000000000000000000000000000000000000000000000000000000000GRN       Governor                                                GRN Delilah Barrios                   Box 207                                                01 
00050040008000001000000000000000001000000000000000000000000000000000000000000000000000000000000000000GRN       Governor                                                GRN Delilah Barrios                   Box 311                                                01 
00050040009000003000000000002000001000000000000000000000000000000000000000000000000000000000000000000GRN       Governor                                                GRN Delilah Barrios                   Box 312                                                01 
00050040010000005000001000001000003000000000000000000000000000000000000000000000000000000000000000000GRN       Governor                                                GRN Delilah Barrios                   Box 313                                                01 
00050040011000002000000000001000001000000000000000000000000000000000000000000000000000000000000000000GRN       Governor                                                GRN Delilah Barrios                   Box 414                                                01 
00050040012000006000000000004000002000000000000000000000000000000000000000000000000000000000000000000GRN       Governor                                                GRN Delilah Barrios                   Box 415                                                01 
00050040013000004000000000003000001000000000000000000000000000000000000000000000000000000000000000000GRN       Governor                                                GRN Delilah Barrios                   Box 416                                                01 
00050060001000000000000000000000000000000000000000000000000000000000000000000000000000000000000000000NON       Governor                                                Write-in                              Box 101                                                01 
00050060002000000000000000000000000000000000000000000000000000000000000000000000000000000000000000000NON       Governor                                                Write-in                              Box 102                                                01 
00050060003000000000000000000000000000000000000000000000000000000000000000000000000000000000000000000NON       Governor                                                Write-in                              Box 103                                                01 
00050060004000000000000000000000000000000000000000000000000000000000000000000000000000000000000000000NON       Governor                                                Write-in                              Box 104                                                01 
00050060005000001000000000000000001000000000000000000000000000000000000000000000000000000000000000000NON       Governor                                                Write-in                              Box 205                                                01 
00050060006000000000000000000000000000000000000000000000000000000000000000000000000000000000000000000NON       Governor                                                Write-in                              Box 206                                                01 
00050060007000001000000000000000001000000000000000000000000000000000000000000000000000000000000000000NON       Governor                                                Write-in                              Box 207                                                01 
00050060008000000000000000000000000000000000000000000000000000000000000000000000000000000000000000000NON       Governor                                                Write-in                              Box 311                                                01 
00050060009000001000000000000000001000000000000000000000000000000000000000000000000000000000000000000NON       Governor                                                Write-in                              Box 312                                                01 
00050060010000001000000000001000000000000000000000000000000000000000000000000000000000000000000000000NON       Governor                                                Write-in                              Box 313                                                01 
00050060011000001000000000000000001000000000000000000000000000000000000000000000000000000000000000000NON       Governor                                                Write-in                              Box 414                                                01 
00050060012000000000000000000000000000000000000000000000000000000000000000000000000000000000000000000NON       Governor                                                Write-in                              Box 415                                                01 
00050060013000000000000000000000000000000000000000000000000000000000000000000000000000000000000000000NON       Governor                                                Write-in                              Box 416                                                01 
00050070001000002000000000000000002000000000000000000000000000000000000000000000000000000000000000000          Governor                                                OVER VOTES                            Box 101                                                01 
00050070002000002000001000001000000000000000000000000000000000000000000000000000000000000000000000000          Governor                                                OVER VOTES                            Box 102                                                01 
00050070003000004000000000003000001000000000000000000000000000000000000000000000000000000000000000000          Governor                                                OVER VOTES                            Box 103                                                01 
00050070004000003000000000001000002000000000000000000000000000000000000000000000000000000000000000000          Governor                                                OVER VOTES                            Box 104                                                01 
00050070005000000000000000000000000000000000000000000000000000000000000000000000000000000000000000000          Governor                                                OVER VOTES                            Box 205                                                01 
00050070006000001000000000000000001000000000000000000000000000000000000000000000000000000000000000000          Governor                                                OVER VOTES                            Box 206                                                01 
00050070007000003000000000001000002000000000000000000000000000000000000000000000000000000000000000000          Governor                                                OVER VOTES                            Box 207                                                01 
00050070008000001000000000000000001000000000000000000000000000000000000000000000000000000000000000000          Governor                                                OVER VOTES                            Box 311                                                01 
00050070009000002000000000000000002000000000000000000000000000000000000000000000000000000000000000000          Governor                                                OVER VOTES                            Box 312                                                01 
00050070010000002000000000000000002000000000000000000000000000000000000000000000000000000000000000000          Governor                                                OVER VOTES                            Box 313                                                01 
00050070011000004000000000001000003000000000000000000000000000000000000000000000000000000000000000000          Governor                                                OVER VOTES                            Box 414                                                01 
00050070012000006000000000003000003000000000000000000000000000000000000000000000000000000000000000000          Governor                                                OVER VOTES                            Box 415                                                01 
00050070013000002000002000000000000000000000000000000000000000000000000000000000000000000000000000000          Governor                                                OVER VOTES                            Box 416                                                01 
00050080001000010000000000006000004000000000000000000000000000000000000000000000000000000000000000000          Governor                                                UNDER VOTES                           Box 101                                                01 
00050080002000015000001000010000004000000000000000000000000000000000000000000000000000000000000000000          Governor                                                UNDER VOTES                           Box 102                                                01 
00050080003000008000002000002000004000000000000000000000000000000000000000000000000000000000000000000          Governor                                                UNDER VOTES                           Box 103                                                01 
00050080004000007000000000003000004000000000000000000000000000000000000000000000000000000000000000000          Governor                                                UNDER VOTES                           Box 104                                                01 
00050080005000010000001000002000007000000000000000000000000000000000000000000000000000000000000000000          Governor                                                UNDER VOTES                           Box 205                                                01 
00050080006000007000001000006000000000000000000000000000000000000000000000000000000000000000000000000          Governor                                                UNDER VOTES                           Box 206                                                01 
00050080007000010000000000004000006000000000000000000000000000000000000000000000000000000000000000000          Governor                                                UNDER VOTES                           Box 207                                                01 
00050080008000009000000000004000005000000000000000000000000000000000000000000000000000000000000000000          Governor                                                UNDER VOTES                           Box 311                                                01 
00050080009000010000003000004000003000000000000000000000000000000000000000000000000000000000000000000          Governor                                                UNDER VOTES                           Box 312                                                01 
00050080010000009000000000005000004000000000000000000000000000000000000000000000000000000000000000000          Governor                                                UNDER VOTES                           Box 313                                                01 
00050080011000012000002000002000008000000000000000000000000000000000000000000000000000000000000000000          Governor                                                UNDER VOTES                           Box 414                                                01 
00050080012000008000001000007000000000000000000000000000000000000000000000000000000000000000000000000          Governor                                                UNDER VOTES                           Box 415                                                01 
00050080013000004000000000002000002000000000000000000000000000000000000000000000000000000000000000000          Governor                                                UNDER VOTES                           Box 416                                                01 
00060010001001351000035000776000540000000000000000000000000000000000000000000000000000000000000000000REP       Lieutenant Governor                                     REP Dan Patrick                       Box 101                                                01 
00060010002000415000011000272000132000000000000000000000000000000000000000000000000000000000000000000REP       Lieutenant Governor                                     REP Dan Patrick                       Box 102                                                01 
00060010003000610000024000341000245000000000000000000000000000000000000000000000000000000000000000000REP       Lieutenant Governor                                     REP Dan Patrick                       Box 103                                                01 
00060010004000520000015000280000225000000000000000000000000000000000000000000000000000000000000000000REP       Lieutenant Governor                                     REP Dan Patrick                       Box 104                                                01 
00060010005001424000031000673000720000000000000000000000000000000000000000000000000000000000000000000REP       Lieutenant Governor                                     REP Dan Patrick                       Box 205                                                01 
00060010006000773000027000525000221000000000000000000000000000000000000000000000000000000000000000000REP       Lieutenant Governor                                     REP Dan Patrick                       Box 206                                                01 
00060010007001359000041000910000408000000000000000000000000000000000000000000000000000000000000000000REP       Lieutenant Governor                                     REP Dan Patrick                       Box 207                                                01 
00060010008001301000042000743000516000000000000000000000000000000000000000000000000000000000000000000REP       Lieutenant Governor                                     REP Dan Patrick                       Box 311                                                01 
00060010009001380000027000809000544000000000000000000000000000000000000000000000000000000000000000000REP       Lieutenant Governor                                     REP Dan Patrick                       Box 312                                                01 
00060010010001678000029000935000714000000000000000000000000000000000000000000000000000000000000000000REP       Lieutenant Governor                                     REP Dan Patrick                       Box 313                                                01 
00060010011001298000039000553000706000000000000000000000000000000000000000000000000000000000000000000REP       Lieutenant Governor                                     REP Dan Patrick                       Box 414                                                01 
00060010012001653000045001014000594000000000000000000000000000000000000000000000000000000000000000000REP       Lieutenant Governor                                     REP Dan Patrick                       Box 415                                                01 
00060010013000995000037000524000434000000000000000000000000000000000000000000000000000000000000000000REP       Lieutenant Governor                                     REP Dan Patrick                       Box 416                                                01 
00060020001000649000055000366000228000000000000000000000000000000000000000000000000000000000000000000DEM       Lieutenant Governor                                     DEM Mike Collier                      Box 101                                                01 
00060020002000468000064000297000107000000000000000000000000000000000000000000000000000000000000000000DEM       Lieutenant Governor                                     DEM Mike Collier                      Box 102                                                01 
00060020003000290000046000149000095000000000000000000000000000000000000000000000000000000000000000000DEM       Lieutenant Governor                                     DEM Mike Collier                      Box 103                                                01 
00060020004000168000011000083000074000000000000000000000000000000000000000000000000000000000000000000DEM       Lieutenant Governor                                     DEM Mike Collier                      Box 104                                                01 
00060020005000256000025000115000116000000000000000000000000000000000000000000000000000000000000000000DEM       Lieutenant Governor                                     DEM Mike Collier                      Box 205                                                01 
00060020006000395000067000219000109000000000000000000000000000000000000000000000000000000000000000000DEM       Lieutenant Governor                                     DEM Mike Collier                      Box 206                                                01 
00060020007000450000029000284000137000000000000000000000000000000000000000000000000000000000000000000DEM       Lieutenant Governor                                     DEM Mike Collier                      Box 207                                                01 
00060020008000207000027000103000077000000000000000000000000000000000000000000000000000000000000000000DEM       Lieutenant Governor                                     DEM Mike Collier                      Box 311                                                01 
00060020009000217000018000126000073000000000000000000000000000000000000000000000000000000000000000000DEM       Lieutenant Governor                                     DEM Mike Collier                      Box 312                                                01 
00060020010000307000019000158000130000000000000000000000000000000000000000000000000000000000000000000DEM       Lieutenant Governor                                     DEM Mike Collier                      Box 313                                                01 
00060020011000222000027000084000111000000000000000000000000000000000000000000000000000000000000000000DEM       Lieutenant Governor                                     DEM Mike Collier                      Box 414                                                01 
00060020012000434000027000272000135000000000000000000000000000000000000000000000000000000000000000000DEM       Lieutenant Governor                                     DEM Mike Collier                      Box 415                                                01 
00060020013000232000024000138000070000000000000000000000000000000000000000000000000000000000000000000DEM       Lieutenant Governor                                     DEM Mike Collier                      Box 416                                                01 
00060030001000037000000000017000020000000000000000000000000000000000000000000000000000000000000000000LIB       Lieutenant Governor                                     LIB Shanna Steele                     Box 101                                                01 
00060030002000020000000000015000005000000000000000000000000000000000000000000000000000000000000000000LIB       Lieutenant Governor                                     LIB Shanna Steele                     Box 102                                                01 
00060030003000036000003000015000018000000000000000000000000000000000000000000000000000000000000000000LIB       Lieutenant Governor                                     LIB Shanna Steele                     Box 103                                                01 
00060030004000012000000000004000008000000000000000000000000000000000000000000000000000000000000000000LIB       Lieutenant Governor                                     LIB Shanna Steele                     Box 104                                                01 
00060030005000024000003000009000012000000000000000000000000000000000000000000000000000000000000000000LIB       Lieutenant Governor                                     LIB Shanna Steele                     Box 205                                                01 
00060030006000022000000000014000008000000000000000000000000000000000000000000000000000000000000000000LIB       Lieutenant Governor                                     LIB Shanna Steele                     Box 206                                                01 
00060030007000031000000000015000016000000000000000000000000000000000000000000000000000000000000000000LIB       Lieutenant Governor                                     LIB Shanna Steele                     Box 207                                                01 
00060030008000032000000000014000018000000000000000000000000000000000000000000000000000000000000000000LIB       Lieutenant Governor                                     LIB Shanna Steele                     Box 311                                                01 
00060030009000023000002000009000012000000000000000000000000000000000000000000000000000000000000000000LIB       Lieutenant Governor                                     LIB Shanna Steele                     Box 312                                                01 
00060030010000034000001000015000018000000000000000000000000000000000000000000000000000000000000000000LIB       Lieutenant Governor                                     LIB Shanna Steele                     Box 313                                                01 
00060030011000027000000000006000021000000000000000000000000000000000000000000000000000000000000000000LIB       Lieutenant Governor                                     LIB Shanna Steele                     Box 414                                                01 
00060030012000038000002000017000019000000000000000000000000000000000000000000000000000000000000000000LIB       Lieutenant Governor                                     LIB Shanna Steele                     Box 415                                                01 
00060030013000022000002000008000012000000000000000000000000000000000000000000000000000000000000000000LIB       Lieutenant Governor                                     LIB Shanna Steele                     Box 416                                                01 
00060040001000001000000000000000001000000000000000000000000000000000000000000000000000000000000000000          Lieutenant Governor                                     OVER VOTES                            Box 101                                                01 
00060040002000000000000000000000000000000000000000000000000000000000000000000000000000000000000000000          Lieutenant Governor                                     OVER VOTES                            Box 102                                                01 
00060040003000000000000000000000000000000000000000000000000000000000000000000000000000000000000000000          Lieutenant Governor                                     OVER VOTES                            Box 103                                                01 
00060040004000000000000000000000000000000000000000000000000000000000000000000000000000000000000000000          Lieutenant Governor                                     OVER VOTES                            Box 104                                                01 
00060040005000000000000000000000000000000000000000000000000000000000000000000000000000000000000000000          Lieutenant Governor                                     OVER VOTES                            Box 205                                                01 
00060040006000001000000000001000000000000000000000000000000000000000000000000000000000000000000000000          Lieutenant Governor                                     OVER VOTES                            Box 206                                                01 
00060040007000000000000000000000000000000000000000000000000000000000000000000000000000000000000000000          Lieutenant Governor                                     OVER VOTES                            Box 207                                                01 
00060040008000000000000000000000000000000000000000000000000000000000000000000000000000000000000000000          Lieutenant Governor                                     OVER VOTES                            Box 311                                                01 
00060040009000000000000000000000000000000000000000000000000000000000000000000000000000000000000000000          Lieutenant Governor                                     OVER VOTES                            Box 312                                                01 
00060040010000001000000000000000001000000000000000000000000000000000000000000000000000000000000000000          Lieutenant Governor                                     OVER VOTES                            Box 313                                                01 
00060040011000000000000000000000000000000000000000000000000000000000000000000000000000000000000000000          Lieutenant Governor                                     OVER VOTES                            Box 414                                                01 
00060040012000001000000000001000000000000000000000000000000000000000000000000000000000000000000000000          Lieutenant Governor                                     OVER VOTES                            Box 415                                                01 
00060040013000000000000000000000000000000000000000000000000000000000000000000000000000000000000000000          Lieutenant Governor                                     OVER VOTES                            Box 416                                                01 
00060050001000009000000000006000003000000000000000000000000000000000000000000000000000000000000000000          Lieutenant Governor                                     UNDER VOTES                           Box 101                                                01 
00060050002000025000002000019000004000000000000000000000000000000000000000000000000000000000000000000          Lieutenant Governor                                     UNDER VOTES                           Box 102                                                01 
00060050003000013000001000001000011000000000000000000000000000000000000000000000000000000000000000000          Lieutenant Governor                                     UNDER VOTES                           Box 103                                                01 
00060050004000013000000000004000009000000000000000000000000000000000000000000000000000000000000000000          Lieutenant Governor                                     UNDER VOTES                           Box 104                                                01 
00060050005000022000001000007000014000000000000000000000000000000000000000000000000000000000000000000          Lieutenant Governor                                     UNDER VOTES                           Box 205                                                01 
00060050006000018000001000011000006000000000000000000000000000000000000000000000000000000000000000000          Lieutenant Governor                                     UNDER VOTES                           Box 206                                                01 
00060050007000016000000000008000008000000000000000000000000000000000000000000000000000000000000000000          Lieutenant Governor                                     UNDER VOTES                           Box 207                                                01 
00060050008000022000002000011000009000000000000000000000000000000000000000000000000000000000000000000          Lieutenant Governor                                     UNDER VOTES                           Box 311                                                01 
00060050009000017000003000007000007000000000000000000000000000000000000000000000000000000000000000000          Lieutenant Governor                                     UNDER VOTES                           Box 312                                                01 
00060050010000021000001000009000011000000000000000000000000000000000000000000000000000000000000000000          Lieutenant Governor                                     UNDER VOTES                           Box 313                                                01 
00060050011000015000001000003000011000000000000000000000000000000000000000000000000000000000000000000          Lieutenant Governor                                     UNDER VOTES                           Box 414                                                01 
00060050012000012000000000011000001000000000000000000000000000000000000000000000000000000000000000000          Lieutenant Governor                                     UNDER VOTES                           Box 415                                                01 
00060050013000004000000000000000004000000000000000000000000000000000000000000000000000000000000000000          Lieutenant Governor                                     UNDER VOTES                           Box 416                                                01 
00070010001001333000033000767000533000000000000000000000000000000000000000000000000000000000000000000REP       Attorney General                                        REP Ken Paxton                        Box 101                                                01 
00070010002000404000011000265000128000000000000000000000000000000000000000000000000000000000000000000REP       Attorney General                                        REP Ken Paxton                        Box 102                                                01 
00070010003000589000022000334000233000000000000000000000000000000000000000000000000000000000000000000REP       Attorney General                                        REP Ken Paxton                        Box 103                                                01 
00070010004000519000015000278000226000000000000000000000000000000000000000000000000000000000000000000REP       Attorney General                                        REP Ken Paxton                        Box 104                                                01 
00070010005001420000034000671000715000000000000000000000000000000000000000000000000000000000000000000REP       Attorney General                                        REP Ken Paxton                        Box 205                                                01 
00070010006000762000025000518000219000000000000000000000000000000000000000000000000000000000000000000REP       Attorney General                                        REP Ken Paxton                        Box 206                                                01 
00070010007001351000041000906000404000000000000000000000000000000000000000000000000000000000000000000REP       Attorney General                                        REP Ken Paxton                        Box 207                                                01 
00070010008001297000039000744000514000000000000000000000000000000000000000000000000000000000000000000REP       Attorney General                                        REP Ken Paxton                        Box 311                                                01 
00070010009001361000025000797000539000000000000000000000000000000000000000000000000000000000000000000REP       Attorney General                                        REP Ken Paxton                        Box 312                                                01 
00070010010001673000029000929000715000000000000000000000000000000000000000000000000000000000000000000REP       Attorney General                                        REP Ken Paxton                        Box 313                                                01 
00070010011001295000038000553000704000000000000000000000000000000000000000000000000000000000000000000REP       Attorney General                                        REP Ken Paxton                        Box 414                                                01 
00070010012001643000045001003000595000000000000000000000000000000000000000000000000000000000000000000REP       Attorney General                                        REP Ken Paxton                        Box 415                                                01 
00070010013000985000036000519000430000000000000000000000000000000000000000000000000000000000000000000REP       Attorney General                                        REP Ken Paxton                        Box 416                                                01 
00070020001000667000056000377000234000000000000000000000000000000000000000000000000000000000000000000DEM       Attorney General                                        DEM Rochelle Mercedes Garza           Box 101                                                01 
00070020002000470000064000299000107000000000000000000000000000000000000000000000000000000000000000000DEM       Attorney General                                        DEM Rochelle Mercedes Garza           Box 102                                                01 
00070020003000303000047000150000106000000000000000000000000000000000000000000000000000000000000000000DEM       Attorney General                                        DEM Rochelle Mercedes Garza           Box 103                                                01 
00070020004000173000011000084000078000000000000000000000000000000000000000000000000000000000000000000DEM       Attorney General                                        DEM Rochelle Mercedes Garza           Box 104                                                01 
00070020005000251000020000115000116000000000000000000000000000000000000000000000000000000000000000000DEM       Attorney General                                        DEM Rochelle Mercedes Garza           Box 205                                                01 
00070020006000403000067000223000113000000000000000000000000000000000000000000000000000000000000000000DEM       Attorney General                                        DEM Rochelle Mercedes Garza           Box 206                                                01 
00070020007000445000029000279000137000000000000000000000000000000000000000000000000000000000000000000DEM       Attorney General                                        DEM Rochelle Mercedes Garza           Box 207                                                01 
00070020008000209000028000109000072000000000000000000000000000000000000000000000000000000000000000000DEM       Attorney General                                        DEM Rochelle Mercedes Garza           Box 311                                                01 
00070020009000214000022000120000072000000000000000000000000000000000000000000000000000000000000000000DEM       Attorney General                                        DEM Rochelle Mercedes Garza           Box 312                                                01 
00070020010000308000019000161000128000000000000000000000000000000000000000000000000000000000000000000DEM       Attorney General                                        DEM Rochelle Mercedes Garza           Box 313                                                01 
00070020011000221000026000084000111000000000000000000000000000000000000000000000000000000000000000000DEM       Attorney General                                        DEM Rochelle Mercedes Garza           Box 414                                                01 
00070020012000431000027000276000128000000000000000000000000000000000000000000000000000000000000000000DEM       Attorney General                                        DEM Rochelle Mercedes Garza           Box 415                                                01 
00070020013000239000024000139000076000000000000000000000000000000000000000000000000000000000000000000DEM       Attorney General                                        DEM Rochelle Mercedes Garza           Box 416                                                01 
00070030001000034000000000014000020000000000000000000000000000000000000000000000000000000000000000000LIB       Attorney General                                        LIB Mark Ash                          Box 101                                                01 
00070030002000023000000000017000006000000000000000000000000000000000000000000000000000000000000000000LIB       Attorney General                                        LIB Mark Ash                          Box 102                                                01 
00070030003000032000001000017000014000000000000000000000000000000000000000000000000000000000000000000LIB       Attorney General                                        LIB Mark Ash                          Box 103                                                01 
00070030004000013000000000005000008000000000000000000000000000000000000000000000000000000000000000000LIB       Attorney General                                        LIB Mark Ash                          Box 104                                                01 
00070030005000029000004000008000017000000000000000000000000000000000000000000000000000000000000000000LIB       Attorney General                                        LIB Mark Ash                          Box 205                                                01 
00070030006000021000000000015000006000000000000000000000000000000000000000000000000000000000000000000LIB       Attorney General                                        LIB Mark Ash                          Box 206                                                01 
00070030007000043000000000023000020000000000000000000000000000000000000000000000000000000000000000000LIB       Attorney General                                        LIB Mark Ash                          Box 207                                                01 
00070030008000033000001000009000023000000000000000000000000000000000000000000000000000000000000000000LIB       Attorney General                                        LIB Mark Ash                          Box 311                                                01 
00070030009000040000001000021000018000000000000000000000000000000000000000000000000000000000000000000LIB       Attorney General                                        LIB Mark Ash                          Box 312                                                01 
00070030010000038000001000020000017000000000000000000000000000000000000000000000000000000000000000000LIB       Attorney General                                        LIB Mark Ash                          Box 313                                                01 
00070030011000030000002000006000022000000000000000000000000000000000000000000000000000000000000000000LIB       Attorney General                                        LIB Mark Ash                          Box 414                                                01 
00070030012000048000001000023000024000000000000000000000000000000000000000000000000000000000000000000LIB       Attorney General                                        LIB Mark Ash                          Box 415                                                01 
00070030013000025000003000011000011000000000000000000000000000000000000000000000000000000000000000000LIB       Attorney General                                        LIB Mark Ash                          Box 416                                                01 
00070040001000000000000000000000000000000000000000000000000000000000000000000000000000000000000000000          Attorney General                                        OVER VOTES                            Box 101                                                01 
00070040002000000000000000000000000000000000000000000000000000000000000000000000000000000000000000000          Attorney General                                        OVER VOTES                            Box 102                                                01 
00070040003000000000000000000000000000000000000000000000000000000000000000000000000000000000000000000          Attorney General                                        OVER VOTES                            Box 103                                                01 
00070040004000000000000000000000000000000000000000000000000000000000000000000000000000000000000000000          Attorney General                                        OVER VOTES                            Box 104                                                01 
00070040005000001000001000000000000000000000000000000000000000000000000000000000000000000000000000000          Attorney General                                        OVER VOTES                            Box 205                                                01 
00070040006000002000001000000000001000000000000000000000000000000000000000000000000000000000000000000          Attorney General                                        OVER VOTES                            Box 206                                                01 
00070040007000000000000000000000000000000000000000000000000000000000000000000000000000000000000000000          Attorney General                                        OVER VOTES                            Box 207                                                01 
00070040008000000000000000000000000000000000000000000000000000000000000000000000000000000000000000000          Attorney General                                        OVER VOTES                            Box 311                                                01 
00070040009000001000000000000000001000000000000000000000000000000000000000000000000000000000000000000          Attorney General                                        OVER VOTES                            Box 312                                                01 
00070040010000000000000000000000000000000000000000000000000000000000000000000000000000000000000000000          Attorney General                                        OVER VOTES                            Box 313                                                01 
00070040011000000000000000000000000000000000000000000000000000000000000000000000000000000000000000000          Attorney General                                        OVER VOTES                            Box 414                                                01 
00070040012000000000000000000000000000000000000000000000000000000000000000000000000000000000000000000          Attorney General                                        OVER VOTES                            Box 415                                                01 
00070040013000000000000000000000000000000000000000000000000000000000000000000000000000000000000000000          Attorney General                                        OVER VOTES                            Box 416                                                01 
00070050001000013000001000007000005000000000000000000000000000000000000000000000000000000000000000000          Attorney General                                        UNDER VOTES                           Box 101                                                01 
00070050002000031000002000022000007000000000000000000000000000000000000000000000000000000000000000000          Attorney General                                        UNDER VOTES                           Box 102                                                01 
00070050003000025000004000005000016000000000000000000000000000000000000000000000000000000000000000000          Attorney General                                        UNDER VOTES                           Box 103                                                01 
00070050004000008000000000004000004000000000000000000000000000000000000000000000000000000000000000000          Attorney General                                        UNDER VOTES                           Box 104                                                01 
00070050005000025000001000010000014000000000000000000000000000000000000000000000000000000000000000000          Attorney General                                        UNDER VOTES                           Box 205                                                01 
00070050006000021000002000014000005000000000000000000000000000000000000000000000000000000000000000000          Attorney General                                        UNDER VOTES                           Box 206                                                01 
00070050007000017000000000009000008000000000000000000000000000000000000000000000000000000000000000000          Attorney General                                        UNDER VOTES                           Box 207                                                01 
00070050008000023000003000009000011000000000000000000000000000000000000000000000000000000000000000000          Attorney General                                        UNDER VOTES                           Box 311                                                01 
00070050009000021000002000013000006000000000000000000000000000000000000000000000000000000000000000000          Attorney General                                        UNDER VOTES                           Box 312                                                01 
00070050010000022000001000007000014000000000000000000000000000000000000000000000000000000000000000000          Attorney General                                        UNDER VOTES                           Box 313                                                01 
00070050011000016000001000003000012000000000000000000000000000000000000000000000000000000000000000000          Attorney General                                        UNDER VOTES                           Box 414                                                01 
00070050012000016000001000013000002000000000000000000000000000000000000000000000000000000000000000000          Attorney General                                        UNDER VOTES                           Box 415                                                01 
00070050013000004000000000001000003000000000000000000000000000000000000000000000000000000000000000000          Attorney General                                        UNDER VOTES                           Box 416                                                01 
00080010001001349000034000773000542000000000000000000000000000000000000000000000000000000000000000000REP       Comptroller of Public Accounts                          REP Glenn Hegar                       Box 101                                                01 
00080010002000403000012000262000129000000000000000000000000000000000000000000000000000000000000000000REP       Comptroller of Public Accounts                          REP Glenn Hegar                       Box 102                                                01 
00080010003000614000024000346000244000000000000000000000000000000000000000000000000000000000000000000REP       Comptroller of Public Accounts                          REP Glenn Hegar                       Box 103                                                01 
00080010004000531000015000288000228000000000000000000000000000000000000000000000000000000000000000000REP       Comptroller of Public Accounts                          REP Glenn Hegar                       Box 104                                                01 
00080010005001443000030000682000731000000000000000000000000000000000000000000000000000000000000000000REP       Comptroller of Public Accounts                          REP Glenn Hegar                       Box 205                                                01 
00080010006000776000028000532000216000000000000000000000000000000000000000000000000000000000000000000REP       Comptroller of Public Accounts                          REP Glenn Hegar                       Box 206                                                01 
00080010007001373000042000918000413000000000000000000000000000000000000000000000000000000000000000000REP       Comptroller of Public Accounts                          REP Glenn Hegar                       Box 207                                                01 
00080010008001319000041000757000521000000000000000000000000000000000000000000000000000000000000000000REP       Comptroller of Public Accounts                          REP Glenn Hegar                       Box 311                                                01 
00080010009001382000028000810000544000000000000000000000000000000000000000000000000000000000000000000REP       Comptroller of Public Accounts                          REP Glenn Hegar                       Box 312                                                01 
00080010010001701000030000942000729000000000000000000000000000000000000000000000000000000000000000000REP       Comptroller of Public Accounts                          REP Glenn Hegar                       Box 313                                                01 
00080010011001302000039000553000710000000000000000000000000000000000000000000000000000000000000000000REP       Comptroller of Public Accounts                          REP Glenn Hegar                       Box 414                                                01 
00080010012001672000047001017000608000000000000000000000000000000000000000000000000000000000000000000REP       Comptroller of Public Accounts                          REP Glenn Hegar                       Box 415                                                01 
00080010013001000000038000527000435000000000000000000000000000000000000000000000000000000000000000000REP       Comptroller of Public Accounts                          REP Glenn Hegar                       Box 416                                                01 
00080020001000629000055000357000217000000000000000000000000000000000000000000000000000000000000000000DEM       Comptroller of Public Accounts                          DEM Janet T. Dudding                  Box 101                                                01 
00080020002000449000058000287000104000000000000000000000000000000000000000000000000000000000000000000DEM       Comptroller of Public Accounts                          DEM Janet T. Dudding                  Box 102                                                01 
00080020003000278000045000140000093000000000000000000000000000000000000000000000000000000000000000000DEM       Comptroller of Public Accounts                          DEM Janet T. Dudding                  Box 103                                                01 
00080020004000152000011000072000069000000000000000000000000000000000000000000000000000000000000000000DEM       Comptroller of Public Accounts                          DEM Janet T. Dudding                  Box 104                                                01 
00080020005000229000025000105000099000000000000000000000000000000000000000000000000000000000000000000DEM       Comptroller of Public Accounts                          DEM Janet T. Dudding                  Box 205                                                01 
00080020006000384000062000211000111000000000000000000000000000000000000000000000000000000000000000000DEM       Comptroller of Public Accounts                          DEM Janet T. Dudding                  Box 206                                                01 
00080020007000414000026000259000129000000000000000000000000000000000000000000000000000000000000000000DEM       Comptroller of Public Accounts                          DEM Janet T. Dudding                  Box 207                                                01 
00080020008000189000026000093000070000000000000000000000000000000000000000000000000000000000000000000DEM       Comptroller of Public Accounts                          DEM Janet T. Dudding                  Box 311                                                01 
00080020009000203000017000120000066000000000000000000000000000000000000000000000000000000000000000000DEM       Comptroller of Public Accounts                          DEM Janet T. Dudding                  Box 312                                                01 
00080020010000282000019000148000115000000000000000000000000000000000000000000000000000000000000000000DEM       Comptroller of Public Accounts                          DEM Janet T. Dudding                  Box 313                                                01 
00080020011000213000026000077000110000000000000000000000000000000000000000000000000000000000000000000DEM       Comptroller of Public Accounts                          DEM Janet T. Dudding                  Box 414                                                01 
00080020012000398000025000257000116000000000000000000000000000000000000000000000000000000000000000000DEM       Comptroller of Public Accounts                          DEM Janet T. Dudding                  Box 415                                                01 
00080020013000224000024000130000070000000000000000000000000000000000000000000000000000000000000000000DEM       Comptroller of Public Accounts                          DEM Janet T. Dudding                  Box 416                                                01 
00080030001000043000000000022000021000000000000000000000000000000000000000000000000000000000000000000LIB       Comptroller of Public Accounts                          LIB V. Alonzo Echevarria-Garza        Box 101                                                01 
00080030002000032000002000024000006000000000000000000000000000000000000000000000000000000000000000000LIB       Comptroller of Public Accounts                          LIB V. Alonzo Echevarria-Garza        Box 102                                                01 
00080030003000031000001000014000016000000000000000000000000000000000000000000000000000000000000000000LIB       Comptroller of Public Accounts                          LIB V. Alonzo Echevarria-Garza        Box 103                                                01 
00080030004000008000000000005000003000000000000000000000000000000000000000000000000000000000000000000LIB       Comptroller of Public Accounts                          LIB V. Alonzo Echevarria-Garza        Box 104                                                01 
00080030005000018000002000005000011000000000000000000000000000000000000000000000000000000000000000000LIB       Comptroller of Public Accounts                          LIB V. Alonzo Echevarria-Garza        Box 205                                                01 
00080030006000026000003000013000010000000000000000000000000000000000000000000000000000000000000000000LIB       Comptroller of Public Accounts                          LIB V. Alonzo Echevarria-Garza        Box 206                                                01 
00080030007000040000001000025000014000000000000000000000000000000000000000000000000000000000000000000LIB       Comptroller of Public Accounts                          LIB V. Alonzo Echevarria-Garza        Box 207                                                01 
00080030008000023000000000007000016000000000000000000000000000000000000000000000000000000000000000000LIB       Comptroller of Public Accounts                          LIB V. Alonzo Echevarria-Garza        Box 311                                                01 
00080030009000026000002000009000015000000000000000000000000000000000000000000000000000000000000000000LIB       Comptroller of Public Accounts                          LIB V. Alonzo Echevarria-Garza        Box 312                                                01 
00080030010000033000000000016000017000000000000000000000000000000000000000000000000000000000000000000LIB       Comptroller of Public Accounts                          LIB V. Alonzo Echevarria-Garza        Box 313                                                01 
00080030011000024000000000009000015000000000000000000000000000000000000000000000000000000000000000000LIB       Comptroller of Public Accounts                          LIB V. Alonzo Echevarria-Garza        Box 414                                                01 
00080030012000045000001000024000020000000000000000000000000000000000000000000000000000000000000000000LIB       Comptroller of Public Accounts                          LIB V. Alonzo Echevarria-Garza        Box 415                                                01 
00080030013000019000001000009000009000000000000000000000000000000000000000000000000000000000000000000LIB       Comptroller of Public Accounts                          LIB V. Alonzo Echevarria-Garza        Box 416                                                01 
00080040001000000000000000000000000000000000000000000000000000000000000000000000000000000000000000000          Comptroller of Public Accounts                          OVER VOTES                            Box 101                                                01 
00080040002000001000000000001000000000000000000000000000000000000000000000000000000000000000000000000          Comptroller of Public Accounts                          OVER VOTES                            Box 102                                                01 
00080040003000000000000000000000000000000000000000000000000000000000000000000000000000000000000000000          Comptroller of Public Accounts                          OVER VOTES                            Box 103                                                01 
00080040004000000000000000000000000000000000000000000000000000000000000000000000000000000000000000000          Comptroller of Public Accounts                          OVER VOTES                            Box 104                                                01 
00080040005000000000000000000000000000000000000000000000000000000000000000000000000000000000000000000          Comptroller of Public Accounts                          OVER VOTES                            Box 205                                                01 
00080040006000000000000000000000000000000000000000000000000000000000000000000000000000000000000000000          Comptroller of Public Accounts                          OVER VOTES                            Box 206                                                01 
00080040007000000000000000000000000000000000000000000000000000000000000000000000000000000000000000000          Comptroller of Public Accounts                          OVER VOTES                            Box 207                                                01 
00080040008000000000000000000000000000000000000000000000000000000000000000000000000000000000000000000          Comptroller of Public Accounts                          OVER VOTES                            Box 311                                                01 
00080040009000000000000000000000000000000000000000000000000000000000000000000000000000000000000000000          Comptroller of Public Accounts                          OVER VOTES                            Box 312                                                01 
00080040010000000000000000000000000000000000000000000000000000000000000000000000000000000000000000000          Comptroller of Public Accounts                          OVER VOTES                            Box 313                                                01 
00080040011000001000001000000000000000000000000000000000000000000000000000000000000000000000000000000          Comptroller of Public Accounts                          OVER VOTES                            Box 414                                                01 
00080040012000000000000000000000000000000000000000000000000000000000000000000000000000000000000000000          Comptroller of Public Accounts                          OVER VOTES                            Box 415                                                01 
00080040013000000000000000000000000000000000000000000000000000000000000000000000000000000000000000000          Comptroller of Public Accounts                          OVER VOTES                            Box 416                                                01 
