00010010001003604000000000000000000000000000000000000000000000000000000000000000000000000000000000000          REGISTERED VOTERS - TOTAL                               REGISTERED VOTERS - TOTAL             Voting Box 1                                           00 
00010010002005342000000000000000000000000000000000000000000000000000000000000000000000000000000000000          REGISTERED VOTERS - TOTAL                               REGISTERED VOTERS - TOTAL             Voting Box 2                                           00 
00010010003002428000000000000000000000000000000000000000000000000000000000000000000000000000000000000          REGISTERED VOTERS - TOTAL                               REGISTERED VOTERS - TOTAL             Voting Box 3                                           00 
00010010004003730000000000000000000000000000000000000000000000000000000000000000000000000000000000000          REGISTERED VOTERS - TOTAL                               REGISTERED VOTERS - TOTAL             Voting Box 4-5                                         00 
00010010005002914000000000000000000000000000000000000000000000000000000000000000000000000000000000000          REGISTERED VOTERS - TOTAL                               REGISTERED VOTERS - TOTAL             Voting Box 6                                           00 
00010010006002714000000000000000000000000000000000000000000000000000000000000000000000000000000000000          REGISTERED VOTERS - TOTAL                               REGISTERED VOTERS - TOTAL             Voting Box 7                                           00 
00010010007000740000000000000000000000000000000000000000000000000000000000000000000000000000000000000          REGISTERED VOTERS - TOTAL                               REGISTERED VOTERS - TOTAL             Voting Box 8                                           00 
00010010008002780000000000000000000000000000000000000000000000000000000000000000000000000000000000000          REGISTERED VOTERS - TOTAL                               REGISTERED VOTERS - TOTAL             Voting Box 9                                           00 
00010010009001150000000000000000000000000000000000000000000000000000000000000000000000000000000000000          REGISTERED VOTERS - TOTAL                               REGISTERED VOTERS - TOTAL             Voting Box 10                                          00 
00010010010002600000000000000000000000000000000000000000000000000000000000000000000000000000000000000          REGISTERED VOTERS - TOTAL                               REGISTERED VOTERS - TOTAL             Voting Box 11                                          00 
00010010011003622000000000000000000000000000000000000000000000000000000000000000000000000000000000000          REGISTERED VOTERS - TOTAL                               REGISTERED VOTERS - TOTAL             Voting Box 13                                          00 
00010010012001852000000000000000000000000000000000000000000000000000000000000000000000000000000000000          REGISTERED VOTERS - TOTAL                               REGISTERED VOTERS - TOTAL             Voting Box 15                                          00 
00010010013001808000000000000000000000000000000000000000000000000000000000000000000000000000000000000          REGISTERED VOTERS - TOTAL                               REGISTERED VOTERS - TOTAL             Voting Box 16                                          00 
00010010014001666000000000000000000000000000000000000000000000000000000000000000000000000000000000000          REGISTERED VOTERS - TOTAL                               REGISTERED VOTERS - TOTAL             Voting Box 17                                          00 
00010010015004264000000000000000000000000000000000000000000000000000000000000000000000000000000000000          REGISTERED VOTERS - TOTAL                               REGISTERED VOTERS - TOTAL             Voting Box 18                                          00 
00010010016004626000000000000000000000000000000000000000000000000000000000000000000000000000000000000          REGISTERED VOTERS - TOTAL                               REGISTERED VOTERS - TOTAL             Voting Box 19                                          00 
00010010017002356000000000000000000000000000000000000000000000000000000000000000000000000000000000000          REGISTERED VOTERS - TOTAL                               REGISTERED VOTERS - TOTAL             Voting Box 20                                          00 
00010010018003730000000000000000000000000000000000000000000000000000000000000000000000000000000000000          REGISTERED VOTERS - TOTAL                               REGISTERED VOTERS - TOTAL             Voting Box 21                                          00 
00010010019002094000000000000000000000000000000000000000000000000000000000000000000000000000000000000          REGISTERED VOTERS - TOTAL                               REGISTERED VOTERS - TOTAL             Voting Box 22                                          00 
00010010020002600000000000000000000000000000000000000000000000000000000000000000000000000000000000000          REGISTERED VOTERS - TOTAL                               REGISTERED VOTERS - TOTAL             Voting Box 23                                          00 
00010010021001738000000000000000000000000000000000000000000000000000000000000000000000000000000000000          REGISTERED VOTERS - TOTAL                               REGISTERED VOTERS - TOTAL             Voting Box 24                                          00 
00020010001001802000000000000000000000000000000000000000000000000000000000000000000000000000000000000REP       REGISTERED VOTERS - Republican Party                    REGISTERED VOTERS - Republican Party  Voting Box 1                                           00 
00020010002002671000000000000000000000000000000000000000000000000000000000000000000000000000000000000REP       REGISTERED VOTERS - Republican Party                    REGISTERED VOTERS - Republican Party  Voting Box 2                                           00 
00020010003001214000000000000000000000000000000000000000000000000000000000000000000000000000000000000REP       REGISTERED VOTERS - Republican Party                    REGISTERED VOTERS - Republican Party  Voting Box 3                                           00 
00020010004001865000000000000000000000000000000000000000000000000000000000000000000000000000000000000REP       REGISTERED VOTERS - Republican Party                    REGISTERED VOTERS - Republican Party  Voting Box 4-5                                         00 
00020010005001457000000000000000000000000000000000000000000000000000000000000000000000000000000000000REP       REGISTERED VOTERS - Republican Party                    REGISTERED VOTERS - Republican Party  Voting Box 6                                           00 
00020010006001357000000000000000000000000000000000000000000000000000000000000000000000000000000000000REP       REGISTERED VOTERS - Republican Party                    REGISTERED VOTERS - Republican Party  Voting Box 7                                           00 
00020010007000370000000000000000000000000000000000000000000000000000000000000000000000000000000000000REP       REGISTERED VOTERS - Republican Party                    REGISTERED VOTERS - Republican Party  Voting Box 8                                           00 
00020010008001390000000000000000000000000000000000000000000000000000000000000000000000000000000000000REP       REGISTERED VOTERS - Republican Party                    REGISTERED VOTERS - Republican Party  Voting Box 9                                           00 
00020010009000575000000000000000000000000000000000000000000000000000000000000000000000000000000000000REP       REGISTERED VOTERS - Republican Party                    REGISTERED VOTERS - Republican Party  Voting Box 10                                          00 
00020010010001300000000000000000000000000000000000000000000000000000000000000000000000000000000000000REP       REGISTERED VOTERS - Republican Party                    REGISTERED VOTERS - Republican Party  Voting Box 11                                          00 
00020010011001811000000000000000000000000000000000000000000000000000000000000000000000000000000000000REP       REGISTERED VOTERS - Republican Party                    REGISTERED VOTERS - Republican Party  Voting Box 13                                          00 
00020010012000926000000000000000000000000000000000000000000000000000000000000000000000000000000000000REP       REGISTERED VOTERS - Republican Party                    REGISTERED VOTERS - Republican Party  Voting Box 15                                          00 
00020010013000904000000000000000000000000000000000000000000000000000000000000000000000000000000000000REP       REGISTERED VOTERS - Republican Party                    REGISTERED VOTERS - Republican Party  Voting Box 16                                          00 
00020010014000833000000000000000000000000000000000000000000000000000000000000000000000000000000000000REP       REGISTERED VOTERS - Republican Party                    REGISTERED VOTERS - Republican Party  Voting Box 17                                          00 
00020010015002132000000000000000000000000000000000000000000000000000000000000000000000000000000000000REP       REGISTERED VOTERS - Republican Party                    REGISTERED VOTERS - Republican Party  Voting Box 18                                          00 
00020010016002313000000000000000000000000000000000000000000000000000000000000000000000000000000000000REP       REGISTERED VOTERS - Republican Party                    REGISTERED VOTERS - Republican Party  Voting Box 19                                          00 
00020010017001178000000000000000000000000000000000000000000000000000000000000000000000000000000000000REP       REGISTERED VOTERS - Republican Party                    REGISTERED VOTERS - Republican Party  Voting Box 20                                          00 
00020010018001865000000000000000000000000000000000000000000000000000000000000000000000000000000000000REP       REGISTERED VOTERS - Republican Party                    REGISTERED VOTERS - Republican Party  Voting Box 21                                          00 
00020010019001047000000000000000000000000000000000000000000000000000000000000000000000000000000000000REP       REGISTERED VOTERS - Republican Party                    REGISTERED VOTERS - Republican Party  Voting Box 22                                          00 
00020010020001300000000000000000000000000000000000000000000000000000000000000000000000000000000000000REP       REGISTERED VOTERS - Republican Party                    REGISTERED VOTERS - Republican Party  Voting Box 23                                          00 
00020010021000869000000000000000000000000000000000000000000000000000000000000000000000000000000000000REP       REGISTERED VOTERS - Republican Party                    REGISTERED VOTERS - Republican Party  Voting Box 24                                          00 
00030010001001802000000000000000000000000000000000000000000000000000000000000000000000000000000000000DEM       REGISTERED VOTERS - Democratic Party                    REGISTERED VOTERS - Democratic Party  Voting Box 1                                           00 
00030010002002671000000000000000000000000000000000000000000000000000000000000000000000000000000000000DEM       REGISTERED VOTERS - Democratic Party                    REGISTERED VOTERS - Democratic Party  Voting Box 2                                           00 
00030010003001214000000000000000000000000000000000000000000000000000000000000000000000000000000000000DEM       REGISTERED VOTERS - Democratic Party                    REGISTERED VOTERS - Democratic Party  Voting Box 3                                           00 
00030010004001865000000000000000000000000000000000000000000000000000000000000000000000000000000000000DEM       REGISTERED VOTERS - Democratic Party                    REGISTERED VOTERS - Democratic Party  Voting Box 4-5                                         00 
00030010005001457000000000000000000000000000000000000000000000000000000000000000000000000000000000000DEM       REGISTERED VOTERS - Democratic Party                    REGISTERED VOTERS - Democratic Party  Voting Box 6                                           00 
00030010006001357000000000000000000000000000000000000000000000000000000000000000000000000000000000000DEM       REGISTERED VOTERS - Democratic Party                    REGISTERED VOTERS - Democratic Party  Voting Box 7                                           00 
00030010007000370000000000000000000000000000000000000000000000000000000000000000000000000000000000000DEM       REGISTERED VOTERS - Democratic Party                    REGISTERED VOTERS - Democratic Party  Voting Box 8                                           00 
00030010008001390000000000000000000000000000000000000000000000000000000000000000000000000000000000000DEM       REGISTERED VOTERS - Democratic Party                    REGISTERED VOTERS - Democratic Party  Voting Box 9                                           00 
00030010009000575000000000000000000000000000000000000000000000000000000000000000000000000000000000000DEM       REGISTERED VOTERS - Democratic Party                    REGISTERED VOTERS - Democratic Party  Voting Box 10                                          00 
00030010010001300000000000000000000000000000000000000000000000000000000000000000000000000000000000000DEM       REGISTERED VOTERS - Democratic Party                    REGISTERED VOTERS - Democratic Party  Voting Box 11                                          00 
00030010011001811000000000000000000000000000000000000000000000000000000000000000000000000000000000000DEM       REGISTERED VOTERS - Democratic Party                    REGISTERED VOTERS - Democratic Party  Voting Box 13                                          00 
00030010012000926000000000000000000000000000000000000000000000000000000000000000000000000000000000000DEM       REGISTERED VOTERS - Democratic Party                    REGISTERED VOTERS - Democratic Party  Voting Box 15                                          00 
00030010013000904000000000000000000000000000000000000000000000000000000000000000000000000000000000000DEM       REGISTERED VOTERS - Democratic Party                    REGISTERED VOTERS - Democratic Party  Voting Box 16                                          00 
00030010014000833000000000000000000000000000000000000000000000000000000000000000000000000000000000000DEM       REGISTERED VOTERS - Democratic Party                    REGISTERED VOTERS - Democratic Party  Voting Box 17                                          00 
00030010015002132000000000000000000000000000000000000000000000000000000000000000000000000000000000000DEM       REGISTERED VOTERS - Democratic Party                    REGISTERED VOTERS - Democratic Party  Voting Box 18                                          00 
00030010016002313000000000000000000000000000000000000000000000000000000000000000000000000000000000000DEM       REGISTERED VOTERS - Democratic Party                    REGISTERED VOTERS - Democratic Party  Voting Box 19                                          00 
00030010017001178000000000000000000000000000000000000000000000000000000000000000000000000000000000000DEM       REGISTERED VOTERS - Democratic Party                    REGISTERED VOTERS - Democratic Party  Voting Box 20                                          00 
00030010018001865000000000000000000000000000000000000000000000000000000000000000000000000000000000000DEM       REGISTERED VOTERS - Democratic Party                    REGISTERED VOTERS - Democratic Party  Voting Box 21                                          00 
00030010019001047000000000000000000000000000000000000000000000000000000000000000000000000000000000000DEM       REGISTERED VOTERS - Democratic Party                    REGISTERED VOTERS - Democratic Party  Voting Box 22                                          00 
00030010020001300000000000000000000000000000000000000000000000000000000000000000000000000000000000000DEM       REGISTERED VOTERS - Democratic Party                    REGISTERED VOTERS - Democratic Party  Voting Box 23                                          00 
00030010021000869000000000000000000000000000000000000000000000000000000000000000000000000000000000000DEM       REGISTERED VOTERS - Democratic Party                    REGISTERED VOTERS - Democratic Party  Voting Box 24                                          00 
00040010001000000000000000000000000000000000000000000000000000000000000000000000000000000000000000000NON       REGISTERED VOTERS - NONPARTISAN                         REGISTERED VOTERS - NONPARTISAN       Voting Box 1                                           00 
00040010002000000000000000000000000000000000000000000000000000000000000000000000000000000000000000000NON       REGISTERED VOTERS - NONPARTISAN                         REGISTERED VOTERS - NONPARTISAN       Voting Box 2                                           00 
00040010003000000000000000000000000000000000000000000000000000000000000000000000000000000000000000000NON       REGISTERED VOTERS - NONPARTISAN                         REGISTERED VOTERS - NONPARTISAN       Voting Box 3                                           00 
00040010004000000000000000000000000000000000000000000000000000000000000000000000000000000000000000000NON       REGISTERED VOTERS - NONPARTISAN                         REGISTERED VOTERS - NONPARTISAN       Voting Box 4-5                                         00 
00040010005000000000000000000000000000000000000000000000000000000000000000000000000000000000000000000NON       REGISTERED VOTERS - NONPARTISAN                         REGISTERED VOTERS - NONPARTISAN       Voting Box 6                                           00 
00040010006000000000000000000000000000000000000000000000000000000000000000000000000000000000000000000NON       REGISTERED VOTERS - NONPARTISAN                         REGISTERED VOTERS - NONPARTISAN       Voting Box 7                                           00 
00040010007000000000000000000000000000000000000000000000000000000000000000000000000000000000000000000NON       REGISTERED VOTERS - NONPARTISAN                         REGISTERED VOTERS - NONPARTISAN       Voting Box 8                                           00 
00040010008000000000000000000000000000000000000000000000000000000000000000000000000000000000000000000NON       REGISTERED VOTERS - NONPARTISAN                         REGISTERED VOTERS - NONPARTISAN       Voting Box 9                                           00 
00040010009000000000000000000000000000000000000000000000000000000000000000000000000000000000000000000NON       REGISTERED VOTERS - NONPARTISAN                         REGISTERED VOTERS - NONPARTISAN       Voting Box 10                                          00 
00040010010000000000000000000000000000000000000000000000000000000000000000000000000000000000000000000NON       REGISTERED VOTERS - NONPARTISAN                         REGISTERED VOTERS - NONPARTISAN       Voting Box 11                                          00 
00040010011000000000000000000000000000000000000000000000000000000000000000000000000000000000000000000NON       REGISTERED VOTERS - NONPARTISAN                         REGISTERED VOTERS - NONPARTISAN       Voting Box 13                                          00 
00040010012000000000000000000000000000000000000000000000000000000000000000000000000000000000000000000NON       REGISTERED VOTERS - NONPARTISAN                         REGISTERED VOTERS - NONPARTISAN       Voting Box 15                                          00 
00040010013000000000000000000000000000000000000000000000000000000000000000000000000000000000000000000NON       REGISTERED VOTERS - NONPARTISAN                         REGISTERED VOTERS - NONPARTISAN       Voting Box 16                                          00 
00040010014000000000000000000000000000000000000000000000000000000000000000000000000000000000000000000NON       REGISTERED VOTERS - NONPARTISAN                         REGISTERED VOTERS - NONPARTISAN       Voting Box 17                                          00 
00040010015000000000000000000000000000000000000000000000000000000000000000000000000000000000000000000NON       REGISTERED VOTERS - NONPARTISAN                         REGISTERED VOTERS - NONPARTISAN       Voting Box 18                                          00 
00040010016000000000000000000000000000000000000000000000000000000000000000000000000000000000000000000NON       REGISTERED VOTERS - NONPARTISAN                         REGISTERED VOTERS - NONPARTISAN       Voting Box 19                                          00 
00040010017000000000000000000000000000000000000000000000000000000000000000000000000000000000000000000NON       REGISTERED VOTERS - NONPARTISAN                         REGISTERED VOTERS - NONPARTISAN       Voting Box 20                                          00 
00040010018000000000000000000000000000000000000000000000000000000000000000000000000000000000000000000NON       REGISTERED VOTERS - NONPARTISAN                         REGISTERED VOTERS - NONPARTISAN       Voting Box 21                                          00 
00040010019000000000000000000000000000000000000000000000000000000000000000000000000000000000000000000NON       REGISTERED VOTERS - NONPARTISAN                         REGISTERED VOTERS - NONPARTISAN       Voting Box 22                                          00 
00040010020000000000000000000000000000000000000000000000000000000000000000000000000000000000000000000NON       REGISTERED VOTERS - NONPARTISAN                         REGISTERED VOTERS - NONPARTISAN       Voting Box 23                                          00 
00040010021000000000000000000000000000000000000000000000000000000000000000000000000000000000000000000NON       REGISTERED VOTERS - NONPARTISAN                         REGISTERED VOTERS - NONPARTISAN       Voting Box 24                                          00 
00050010001000274000005000162000107000000000000000000000000000000000000000000000000000000000000000000          BALLOTS CAST - TOTAL                                    BALLOTS CAST - TOTAL                  Voting Box 1                                           00 
00050010002000439000009000182000248000000000000000000000000000000000000000000000000000000000000000000          BALLOTS CAST - TOTAL                                    BALLOTS CAST - TOTAL                  Voting Box 2                                           00 
00050010003000238000007000142000089000000000000000000000000000000000000000000000000000000000000000000          BALLOTS CAST - TOTAL                                    BALLOTS CAST - TOTAL                  Voting Box 3                                           00 
00050010004000343000010000144000189000000000000000000000000000000000000000000000000000000000000000000          BALLOTS CAST - TOTAL                                    BALLOTS CAST - TOTAL                  Voting Box 4-5                                         00 
00050010005000156000018000095000043000000000000000000000000000000000000000000000000000000000000000000          BALLOTS CAST - TOTAL                                    BALLOTS CAST - TOTAL                  Voting Box 6                                           00 
00050010006000082000015000038000029000000000000000000000000000000000000000000000000000000000000000000          BALLOTS CAST - TOTAL                                    BALLOTS CAST - TOTAL                  Voting Box 7                                           00 
00050010007000062000008000040000014000000000000000000000000000000000000000000000000000000000000000000          BALLOTS CAST - TOTAL                                    BALLOTS CAST - TOTAL                  Voting Box 8                                           00 
00050010008000243000004000127000112000000000000000000000000000000000000000000000000000000000000000000          BALLOTS CAST - TOTAL                                    BALLOTS CAST - TOTAL                  Voting Box 9                                           00 
00050010009000088000001000030000057000000000000000000000000000000000000000000000000000000000000000000          BALLOTS CAST - TOTAL                                    BALLOTS CAST - TOTAL                  Voting Box 10                                          00 
00050010010000218000003000079000136000000000000000000000000000000000000000000000000000000000000000000          BALLOTS CAST - TOTAL                                    BALLOTS CAST - TOTAL                  Voting Box 11                                          00 
00050010011000297000013000182000102000000000000000000000000000000000000000000000000000000000000000000          BALLOTS CAST - TOTAL                                    BALLOTS CAST - TOTAL                  Voting Box 13                                          00 
00050010012000230000007000139000084000000000000000000000000000000000000000000000000000000000000000000          BALLOTS CAST - TOTAL                                    BALLOTS CAST - TOTAL                  Voting Box 15                                          00 
00050010013000138000007000052000079000000000000000000000000000000000000000000000000000000000000000000          BALLOTS CAST - TOTAL                                    BALLOTS CAST - TOTAL                  Voting Box 16                                          00 
00050010014000151000006000092000053000000000000000000000000000000000000000000000000000000000000000000          BALLOTS CAST - TOTAL                                    BALLOTS CAST - TOTAL                  Voting Box 17                                          00 
00050010015000254000012000036000206000000000000000000000000000000000000000000000000000000000000000000          BALLOTS CAST - TOTAL                                    BALLOTS CAST - TOTAL                  Voting Box 18                                          00 
00050010016000353000005000202000146000000000000000000000000000000000000000000000000000000000000000000          BALLOTS CAST - TOTAL                                    BALLOTS CAST - TOTAL                  Voting Box 19                                          00 
00050010017000264000006000180000078000000000000000000000000000000000000000000000000000000000000000000          BALLOTS CAST - TOTAL                                    BALLOTS CAST - TOTAL                  Voting Box 20                                          00 
00050010018000429000009000250000170000000000000000000000000000000000000000000000000000000000000000000          BALLOTS CAST - TOTAL                                    BALLOTS CAST - TOTAL                  Voting Box 21                                          00 
00050010019000333000003000141000189000000000000000000000000000000000000000000000000000000000000000000          BALLOTS CAST - TOTAL                                    BALLOTS CAST - TOTAL                  Voting Box 22                                          00 
00050010020000204000006000083000115000000000000000000000000000000000000000000000000000000000000000000          BALLOTS CAST - TOTAL                                    BALLOTS CAST - TOTAL                  Voting Box 23                                          00 
00050010021000192000007000080000105000000000000000000000000000000000000000000000000000000000000000000          BALLOTS CAST - TOTAL                                    BALLOTS CAST - TOTAL                  Voting Box 24                                          00 
00060010001000248000002000152000094000000000000000000000000000000000000000000000000000000000000000000REP       BALLOTS CAST - Republican Party                         BALLOTS CAST - Republican Party       Voting Box 1                                           00 
00060010002000414000003000177000234000000000000000000000000000000000000000000000000000000000000000000REP       BALLOTS CAST - Republican Party                         BALLOTS CAST - Republican Party       Voting Box 2                                           00 
00060010003000232000005000138000089000000000000000000000000000000000000000000000000000000000000000000REP       BALLOTS CAST - Republican Party                         BALLOTS CAST - Republican Party       Voting Box 3                                           00 
00060010004000336000009000142000185000000000000000000000000000000000000000000000000000000000000000000REP       BALLOTS CAST - Republican Party                         BALLOTS CAST - Republican Party       Voting Box 4-5                                         00 
00060010005000107000004000073000030000000000000000000000000000000000000000000000000000000000000000000REP       BALLOTS CAST - Republican Party                         BALLOTS CAST - Republican Party       Voting Box 6                                           00 
00060010006000039000007000021000011000000000000000000000000000000000000000000000000000000000000000000REP       BALLOTS CAST - Republican Party                         BALLOTS CAST - Republican Party       Voting Box 7                                           00 
00060010007000036000000000031000005000000000000000000000000000000000000000000000000000000000000000000REP       BALLOTS CAST - Republican Party                         BALLOTS CAST - Republican Party       Voting Box 8                                           00 
00060010008000226000002000122000102000000000000000000000000000000000000000000000000000000000000000000REP       BALLOTS CAST - Republican Party                         BALLOTS CAST - Republican Party       Voting Box 9                                           00 
00060010009000087000001000030000056000000000000000000000000000000000000000000000000000000000000000000REP       BALLOTS CAST - Republican Party                         BALLOTS CAST - Republican Party       Voting Box 10                                          00 
00060010010000201000001000074000126000000000000000000000000000000000000000000000000000000000000000000REP       BALLOTS CAST - Republican Party                         BALLOTS CAST - Republican Party       Voting Box 11                                          00 
00060010011000270000006000168000096000000000000000000000000000000000000000000000000000000000000000000REP       BALLOTS CAST - Republican Party                         BALLOTS CAST - Republican Party       Voting Box 13                                          00 
00060010012000221000004000136000081000000000000000000000000000000000000000000000000000000000000000000REP       BALLOTS CAST - Republican Party                         BALLOTS CAST - Republican Party       Voting Box 15                                          00 
00060010013000126000001000049000076000000000000000000000000000000000000000000000000000000000000000000REP       BALLOTS CAST - Republican Party                         BALLOTS CAST - Republican Party       Voting Box 16                                          00 
00060010014000133000005000082000046000000000000000000000000000000000000000000000000000000000000000000REP       BALLOTS CAST - Republican Party                         BALLOTS CAST - Republican Party       Voting Box 17                                          00 
00060010015000240000005000036000199000000000000000000000000000000000000000000000000000000000000000000REP       BALLOTS CAST - Republican Party                         BALLOTS CAST - Republican Party       Voting Box 18                                          00 
00060010016000329000003000196000130000000000000000000000000000000000000000000000000000000000000000000REP       BALLOTS CAST - Republican Party                         BALLOTS CAST - Republican Party       Voting Box 19                                          00 
00060010017000240000002000170000068000000000000000000000000000000000000000000000000000000000000000000REP       BALLOTS CAST - Republican Party                         BALLOTS CAST - Republican Party       Voting Box 20                                          00 
00060010018000417000007000247000163000000000000000000000000000000000000000000000000000000000000000000REP       BALLOTS CAST - Republican Party                         BALLOTS CAST - Republican Party       Voting Box 21                                          00 
00060010019000312000002000129000181000000000000000000000000000000000000000000000000000000000000000000REP       BALLOTS CAST - Republican Party                         BALLOTS CAST - Republican Party       Voting Box 22                                          00 
00060010020000195000003000081000111000000000000000000000000000000000000000000000000000000000000000000REP       BALLOTS CAST - Republican Party                         BALLOTS CAST - Republican Party       Voting Box 23                                          00 
00060010021000186000007000076000103000000000000000000000000000000000000000000000000000000000000000000REP       BALLOTS CAST - Republican Party                         BALLOTS CAST - Republican Party       Voting Box 24                                          00 
00070010001000026000003000010000013000000000000000000000000000000000000000000000000000000000000000000DEM       BALLOTS CAST - Democratic Party                         BALLOTS CAST - Democratic Party       Voting Box 1                                           00 
00070010002000025000006000005000014000000000000000000000000000000000000000000000000000000000000000000DEM       BALLOTS CAST - Democratic Party                         BALLOTS CAST - Democratic Party       Voting Box 2                                           00 
00070010003000006000002000004000000000000000000000000000000000000000000000000000000000000000000000000DEM       BALLOTS CAST - Democratic Party                         BALLOTS CAST - Democratic Party       Voting Box 3                                           00 
00070010004000007000001000002000004000000000000000000000000000000000000000000000000000000000000000000DEM       BALLOTS CAST - Democratic Party                         BALLOTS CAST - Democratic Party       Voting Box 4-5                                         00 
00070010005000049000014000022000013000000000000000000000000000000000000000000000000000000000000000000DEM       BALLOTS CAST - Democratic Party                         BALLOTS CAST - Democratic Party       Voting Box 6                                           00 
00070010006000043000008000017000018000000000000000000000000000000000000000000000000000000000000000000DEM       BALLOTS CAST - Democratic Party                         BALLOTS CAST - Democratic Party       Voting Box 7                                           00 
00070010007000026000008000009000009000000000000000000000000000000000000000000000000000000000000000000DEM       BALLOTS CAST - Democratic Party                         BALLOTS CAST - Democratic Party       Voting Box 8                                           00 
00070010008000017000002000005000010000000000000000000000000000000000000000000000000000000000000000000DEM       BALLOTS CAST - Democratic Party                         BALLOTS CAST - Democratic Party       Voting Box 9                                           00 
00070010009000001000000000000000001000000000000000000000000000000000000000000000000000000000000000000DEM       BALLOTS CAST - Democratic Party                         BALLOTS CAST - Democratic Party       Voting Box 10                                          00 
00070010010000017000002000005000010000000000000000000000000000000000000000000000000000000000000000000DEM       BALLOTS CAST - Democratic Party                         BALLOTS CAST - Democratic Party       Voting Box 11                                          00 
00070010011000027000007000014000006000000000000000000000000000000000000000000000000000000000000000000DEM       BALLOTS CAST - Democratic Party                         BALLOTS CAST - Democratic Party       Voting Box 13                                          00 
00070010012000009000003000003000003000000000000000000000000000000000000000000000000000000000000000000DEM       BALLOTS CAST - Democratic Party                         BALLOTS CAST - Democratic Party       Voting Box 15                                          00 
00070010013000012000006000003000003000000000000000000000000000000000000000000000000000000000000000000DEM       BALLOTS CAST - Democratic Party                         BALLOTS CAST - Democratic Party       Voting Box 16                                          00 
00070010014000018000001000010000007000000000000000000000000000000000000000000000000000000000000000000DEM       BALLOTS CAST - Democratic Party                         BALLOTS CAST - Democratic Party       Voting Box 17                                          00 
00070010015000014000007000000000007000000000000000000000000000000000000000000000000000000000000000000DEM       BALLOTS CAST - Democratic Party                         BALLOTS CAST - Democratic Party       Voting Box 18                                          00 
00070010016000024000002000006000016000000000000000000000000000000000000000000000000000000000000000000DEM       BALLOTS CAST - Democratic Party                         BALLOTS CAST - Democratic Party       Voting Box 19                                          00 
00070010017000024000004000010000010000000000000000000000000000000000000000000000000000000000000000000DEM       BALLOTS CAST - Democratic Party                         BALLOTS CAST - Democratic Party       Voting Box 20                                          00 
00070010018000012000002000003000007000000000000000000000000000000000000000000000000000000000000000000DEM       BALLOTS CAST - Democratic Party                         BALLOTS CAST - Democratic Party       Voting Box 21                                          00 
00070010019000021000001000012000008000000000000000000000000000000000000000000000000000000000000000000DEM       BALLOTS CAST - Democratic Party                         BALLOTS CAST - Democratic Party       Voting Box 22                                          00 
00070010020000009000003000002000004000000000000000000000000000000000000000000000000000000000000000000DEM       BALLOTS CAST - Democratic Party                         BALLOTS CAST - Democratic Party       Voting Box 23                                          00 
00070010021000006000000000004000002000000000000000000000000000000000000000000000000000000000000000000DEM       BALLOTS CAST - Democratic Party                         BALLOTS CAST - Democratic Party       Voting Box 24                                          00 
00080010001000000000000000000000000000000000000000000000000000000000000000000000000000000000000000000NON       BALLOTS CAST - NONPARTISAN                              BALLOTS CAST - NONPARTISAN            Voting Box 1                                           00 
00080010002000000000000000000000000000000000000000000000000000000000000000000000000000000000000000000NON       BALLOTS CAST - NONPARTISAN                              BALLOTS CAST - NONPARTISAN            Voting Box 2                                           00 
00080010003000000000000000000000000000000000000000000000000000000000000000000000000000000000000000000NON       BALLOTS CAST - NONPARTISAN                              BALLOTS CAST - NONPARTISAN            Voting Box 3                                           00 
00080010004000000000000000000000000000000000000000000000000000000000000000000000000000000000000000000NON       BALLOTS CAST - NONPARTISAN                              BALLOTS CAST - NONPARTISAN            Voting Box 4-5                                         00 
00080010005000000000000000000000000000000000000000000000000000000000000000000000000000000000000000000NON       BALLOTS CAST - NONPARTISAN                              BALLOTS CAST - NONPARTISAN            Voting Box 6                                           00 
00080010006000000000000000000000000000000000000000000000000000000000000000000000000000000000000000000NON       BALLOTS CAST - NONPARTISAN                              BALLOTS CAST - NONPARTISAN            Voting Box 7                                           00 
00080010007000000000000000000000000000000000000000000000000000000000000000000000000000000000000000000NON       BALLOTS CAST - NONPARTISAN                              BALLOTS CAST - NONPARTISAN            Voting Box 8                                           00 
00080010008000000000000000000000000000000000000000000000000000000000000000000000000000000000000000000NON       BALLOTS CAST - NONPARTISAN                              BALLOTS CAST - NONPARTISAN            Voting Box 9                                           00 
00080010009000000000000000000000000000000000000000000000000000000000000000000000000000000000000000000NON       BALLOTS CAST - NONPARTISAN                              BALLOTS CAST - NONPARTISAN            Voting Box 10                                          00 
00080010010000000000000000000000000000000000000000000000000000000000000000000000000000000000000000000NON       BALLOTS CAST - NONPARTISAN                              BALLOTS CAST - NONPARTISAN            Voting Box 11                                          00 
00080010011000000000000000000000000000000000000000000000000000000000000000000000000000000000000000000NON       BALLOTS CAST - NONPARTISAN                              BALLOTS CAST - NONPARTISAN            Voting Box 13                                          00 
00080010012000000000000000000000000000000000000000000000000000000000000000000000000000000000000000000NON       BALLOTS CAST - NONPARTISAN                              BALLOTS CAST - NONPARTISAN            Voting Box 15                                          00 
00080010013000000000000000000000000000000000000000000000000000000000000000000000000000000000000000000NON       BALLOTS CAST - NONPARTISAN                              BALLOTS CAST - NONPARTISAN            Voting Box 16                                          00 
00080010014000000000000000000000000000000000000000000000000000000000000000000000000000000000000000000NON       BALLOTS CAST - NONPARTISAN                              BALLOTS CAST - NONPARTISAN            Voting Box 17                                          00 
00080010015000000000000000000000000000000000000000000000000000000000000000000000000000000000000000000NON       BALLOTS CAST - NONPARTISAN                              BALLOTS CAST - NONPARTISAN            Voting Box 18                                          00 
00080010016000000000000000000000000000000000000000000000000000000000000000000000000000000000000000000NON       BALLOTS CAST - NONPARTISAN                              BALLOTS CAST - NONPARTISAN            Voting Box 19                                          00 
00080010017000000000000000000000000000000000000000000000000000000000000000000000000000000000000000000NON       BALLOTS CAST - NONPARTISAN                              BALLOTS CAST - NONPARTISAN            Voting Box 20                                          00 
00080010018000000000000000000000000000000000000000000000000000000000000000000000000000000000000000000NON       BALLOTS CAST - NONPARTISAN                              BALLOTS CAST - NONPARTISAN            Voting Box 21                                          00 
00080010019000000000000000000000000000000000000000000000000000000000000000000000000000000000000000000NON       BALLOTS CAST - NONPARTISAN                              BALLOTS CAST - NONPARTISAN            Voting Box 22                                          00 
00080010020000000000000000000000000000000000000000000000000000000000000000000000000000000000000000000NON       BALLOTS CAST - NONPARTISAN                              BALLOTS CAST - NONPARTISAN            Voting Box 23                                          00 
00080010021000000000000000000000000000000000000000000000000000000000000000000000000000000000000000000NON       BALLOTS CAST - NONPARTISAN                              BALLOTS CAST - NONPARTISAN            Voting Box 24                                          00 
00090010001000000000000000000000000000000000000000000000000000000000000000000000000000000000000000000          BALLOTS CAST - BLANK                                    BALLOTS CAST - BLANK                  Voting Box 1                                           00 
00090010002000000000000000000000000000000000000000000000000000000000000000000000000000000000000000000          BALLOTS CAST - BLANK                                    BALLOTS CAST - BLANK                  Voting Box 2                                           00 
00090010003000000000000000000000000000000000000000000000000000000000000000000000000000000000000000000          BALLOTS CAST - BLANK                                    BALLOTS CAST - BLANK                  Voting Box 3                                           00 
00090010004000000000000000000000000000000000000000000000000000000000000000000000000000000000000000000          BALLOTS CAST - BLANK                                    BALLOTS CAST - BLANK                  Voting Box 4-5                                         00 
00090010005000000000000000000000000000000000000000000000000000000000000000000000000000000000000000000          BALLOTS CAST - BLANK                                    BALLOTS CAST - BLANK                  Voting Box 6                                           00 
00090010006000000000000000000000000000000000000000000000000000000000000000000000000000000000000000000          BALLOTS CAST - BLANK                                    BALLOTS CAST - BLANK                  Voting Box 7                                           00 
00090010007000000000000000000000000000000000000000000000000000000000000000000000000000000000000000000          BALLOTS CAST - BLANK                                    BALLOTS CAST - BLANK                  Voting Box 8                                           00 
00090010008000000000000000000000000000000000000000000000000000000000000000000000000000000000000000000          BALLOTS CAST - BLANK                                    BALLOTS CAST - BLANK                  Voting Box 9                                           00 
00090010009000000000000000000000000000000000000000000000000000000000000000000000000000000000000000000          BALLOTS CAST - BLANK                                    BALLOTS CAST - BLANK                  Voting Box 10                                          00 
00090010010000000000000000000000000000000000000000000000000000000000000000000000000000000000000000000          BALLOTS CAST - BLANK                                    BALLOTS CAST - BLANK                  Voting Box 11                                          00 
00090010011000000000000000000000000000000000000000000000000000000000000000000000000000000000000000000          BALLOTS CAST - BLANK                                    BALLOTS CAST - BLANK                  Voting Box 13                                          00 
00090010012000000000000000000000000000000000000000000000000000000000000000000000000000000000000000000          BALLOTS CAST - BLANK                                    BALLOTS CAST - BLANK                  Voting Box 15                                          00 
00090010013000000000000000000000000000000000000000000000000000000000000000000000000000000000000000000          BALLOTS CAST - BLANK                                    BALLOTS CAST - BLANK                  Voting Box 16                                          00 
00090010014000000000000000000000000000000000000000000000000000000000000000000000000000000000000000000          BALLOTS CAST - BLANK                                    BALLOTS CAST - BLANK                  Voting Box 17                                          00 
00090010015000000000000000000000000000000000000000000000000000000000000000000000000000000000000000000          BALLOTS CAST - BLANK                                    BALLOTS CAST - BLANK                  Voting Box 18                                          00 
00090010016000000000000000000000000000000000000000000000000000000000000000000000000000000000000000000          BALLOTS CAST - BLANK                                    BALLOTS CAST - BLANK                  Voting Box 19                                          00 
00090010017000000000000000000000000000000000000000000000000000000000000000000000000000000000000000000          BALLOTS CAST - BLANK                                    BALLOTS CAST - BLANK                  Voting Box 20                                          00 
00090010018000000000000000000000000000000000000000000000000000000000000000000000000000000000000000000          BALLOTS CAST - BLANK                                    BALLOTS CAST - BLANK                  Voting Box 21                                          00 
00090010019000000000000000000000000000000000000000000000000000000000000000000000000000000000000000000          BALLOTS CAST - BLANK                                    BALLOTS CAST - BLANK                  Voting Box 22                                          00 
00090010020000001000000000000000001000000000000000000000000000000000000000000000000000000000000000000          BALLOTS CAST - BLANK                                    BALLOTS CAST - BLANK                  Voting Box 23                                          00 
00090010021000000000000000000000000000000000000000000000000000000000000000000000000000000000000000000          BALLOTS CAST - BLANK                                    BALLOTS CAST - BLANK                  Voting Box 24                                          00 
00100010001000144000001000085000058000000000000000000000000000000000000000000000000000000000000000000REP       REP Attorney General                                    Ken Paxton                            Voting Box 1                                           01 
00100010002000325000003000133000189000000000000000000000000000000000000000000000000000000000000000000REP       REP Attorney General                                    Ken Paxton                            Voting Box 2                                           01 
00100010003000145000004000082000059000000000000000000000000000000000000000000000000000000000000000000REP       REP Attorney General                                    Ken Paxton                            Voting Box 3                                           01 
00100010004000259000007000107000145000000000000000000000000000000000000000000000000000000000000000000REP       REP Attorney General                                    Ken Paxton                            Voting Box 4-5                                         01 
00100010005000066000004000043000019000000000000000000000000000000000000000000000000000000000000000000REP       REP Attorney General                                    Ken Paxton                            Voting Box 6                                           01 
00100010006000026000007000015000004000000000000000000000000000000000000000000000000000000000000000000REP       REP Attorney General                                    Ken Paxton                            Voting Box 7                                           01 
00100010007000022000000000018000004000000000000000000000000000000000000000000000000000000000000000000REP       REP Attorney General                                    Ken Paxton                            Voting Box 8                                           01 
00100010008000158000002000090000066000000000000000000000000000000000000000000000000000000000000000000REP       REP Attorney General                                    Ken Paxton                            Voting Box 9                                           01 
00100010009000064000001000021000042000000000000000000000000000000000000000000000000000000000000000000REP       REP Attorney General                                    Ken Paxton                            Voting Box 10                                          01 
00100010010000153000001000054000098000000000000000000000000000000000000000000000000000000000000000000REP       REP Attorney General                                    Ken Paxton                            Voting Box 11                                          01 
00100010011000154000005000097000052000000000000000000000000000000000000000000000000000000000000000000REP       REP Attorney General                                    Ken Paxton                            Voting Box 13                                          01 
00100010012000146000002000083000061000000000000000000000000000000000000000000000000000000000000000000REP       REP Attorney General                                    Ken Paxton                            Voting Box 15                                          01 
00100010013000090000001000037000052000000000000000000000000000000000000000000000000000000000000000000REP       REP Attorney General                                    Ken Paxton                            Voting Box 16                                          01 
00100010014000090000001000057000032000000000000000000000000000000000000000000000000000000000000000000REP       REP Attorney General                                    Ken Paxton                            Voting Box 17                                          01 
00100010015000180000002000029000149000000000000000000000000000000000000000000000000000000000000000000REP       REP Attorney General                                    Ken Paxton                            Voting Box 18                                          01 
00100010016000222000003000120000099000000000000000000000000000000000000000000000000000000000000000000REP       REP Attorney General                                    Ken Paxton                            Voting Box 19                                          01 
00100010017000133000001000098000034000000000000000000000000000000000000000000000000000000000000000000REP       REP Attorney General                                    Ken Paxton                            Voting Box 20                                          01 
00100010018000276000003000165000108000000000000000000000000000000000000000000000000000000000000000000REP       REP Attorney General                                    Ken Paxton                            Voting Box 21                                          01 
00100010019000208000002000090000116000000000000000000000000000000000000000000000000000000000000000000REP       REP Attorney General                                    Ken Paxton                            Voting Box 22                                          01 
00100010020000131000002000057000072000000000000000000000000000000000000000000000000000000000000000000REP       REP Attorney General                                    Ken Paxton                            Voting Box 23                                          01 
00100010021000124000006000052000066000000000000000000000000000000000000000000000000000000000000000000REP       REP Attorney General                                    Ken Paxton                            Voting Box 24                                          01 
00100020001000094000001000061000032000000000000000000000000000000000000000000000000000000000000000000REP       REP Attorney General                                    George P. Bush                        Voting Box 1                                           01 
00100020002000077000000000037000040000000000000000000000000000000000000000000000000000000000000000000REP       REP Attorney General                                    George P. Bush                        Voting Box 2                                           01 
00100020003000076000001000052000023000000000000000000000000000000000000000000000000000000000000000000REP       REP Attorney General                                    George P. Bush                        Voting Box 3                                           01 
00100020004000068000002000032000034000000000000000000000000000000000000000000000000000000000000000000REP       REP Attorney General                                    George P. Bush                        Voting Box 4-5                                         01 
00100020005000039000000000028000011000000000000000000000000000000000000000000000000000000000000000000REP       REP Attorney General                                    George P. Bush                        Voting Box 6                                           01 
00100020006000012000000000005000007000000000000000000000000000000000000000000000000000000000000000000REP       REP Attorney General                                    George P. Bush                        Voting Box 7                                           01 
00100020007000014000000000013000001000000000000000000000000000000000000000000000000000000000000000000REP       REP Attorney General                                    George P. Bush                        Voting Box 8                                           01 
00100020008000062000000000030000032000000000000000000000000000000000000000000000000000000000000000000REP       REP Attorney General                                    George P. Bush                        Voting Box 9                                           01 
00100020009000023000000000009000014000000000000000000000000000000000000000000000000000000000000000000REP       REP Attorney General                                    George P. Bush                        Voting Box 10                                          01 
00100020010000045000000000017000028000000000000000000000000000000000000000000000000000000000000000000REP       REP Attorney General                                    George P. Bush                        Voting Box 11                                          01 
00100020011000111000001000069000041000000000000000000000000000000000000000000000000000000000000000000REP       REP Attorney General                                    George P. Bush                        Voting Box 13                                          01 
00100020012000068000002000047000019000000000000000000000000000000000000000000000000000000000000000000REP       REP Attorney General                                    George P. Bush                        Voting Box 15                                          01 
00100020013000035000000000012000023000000000000000000000000000000000000000000000000000000000000000000REP       REP Attorney General                                    George P. Bush                        Voting Box 16                                          01 
00100020014000042000004000024000014000000000000000000000000000000000000000000000000000000000000000000REP       REP Attorney General                                    George P. Bush                        Voting Box 17                                          01 
00100020015000058000003000007000048000000000000000000000000000000000000000000000000000000000000000000REP       REP Attorney General                                    George P. Bush                        Voting Box 18                                          01 
00100020016000098000000000070000028000000000000000000000000000000000000000000000000000000000000000000REP       REP Attorney General                                    George P. Bush                        Voting Box 19                                          01 
00100020017000096000001000063000032000000000000000000000000000000000000000000000000000000000000000000REP       REP Attorney General                                    George P. Bush                        Voting Box 20                                          01 
00100020018000133000004000076000053000000000000000000000000000000000000000000000000000000000000000000REP       REP Attorney General                                    George P. Bush                        Voting Box 21                                          01 
00100020019000097000000000036000061000000000000000000000000000000000000000000000000000000000000000000REP       REP Attorney General                                    George P. Bush                        Voting Box 22                                          01 
00100020020000060000001000021000038000000000000000000000000000000000000000000000000000000000000000000REP       REP Attorney General                                    George P. Bush                        Voting Box 23                                          01 
00100020021000057000001000021000035000000000000000000000000000000000000000000000000000000000000000000REP       REP Attorney General                                    George P. Bush                        Voting Box 24                                          01 
00110010001000108000001000062000045000000000000000000000000000000000000000000000000000000000000000000REP       REP Comm General Land Office                            Tim Westley                           Voting Box 1                                           01 
00110010002000212000003000088000121000000000000000000000000000000000000000000000000000000000000000000REP       REP Comm General Land Office                            Tim Westley                           Voting Box 2                                           01 
00110010003000108000000000070000038000000000000000000000000000000000000000000000000000000000000000000REP       REP Comm General Land Office                            Tim Westley                           Voting Box 3                                           01 
00110010004000146000005000061000080000000000000000000000000000000000000000000000000000000000000000000REP       REP Comm General Land Office                            Tim Westley                           Voting Box 4-5                                         01 
00110010005000050000002000036000012000000000000000000000000000000000000000000000000000000000000000000REP       REP Comm General Land Office                            Tim Westley                           Voting Box 6                                           01 
00110010006000018000003000007000008000000000000000000000000000000000000000000000000000000000000000000REP       REP Comm General Land Office                            Tim Westley                           Voting Box 7                                           01 
00110010007000012000000000010000002000000000000000000000000000000000000000000000000000000000000000000REP       REP Comm General Land Office                            Tim Westley                           Voting Box 8                                           01 
00110010008000111000001000065000045000000000000000000000000000000000000000000000000000000000000000000REP       REP Comm General Land Office                            Tim Westley                           Voting Box 9                                           01 
00110010009000052000000000019000033000000000000000000000000000000000000000000000000000000000000000000REP       REP Comm General Land Office                            Tim Westley                           Voting Box 10                                          01 
00110010010000095000001000036000058000000000000000000000000000000000000000000000000000000000000000000REP       REP Comm General Land Office                            Tim Westley                           Voting Box 11                                          01 
00110010011000130000002000084000044000000000000000000000000000000000000000000000000000000000000000000REP       REP Comm General Land Office                            Tim Westley                           Voting Box 13                                          01 
00110010012000099000003000059000037000000000000000000000000000000000000000000000000000000000000000000REP       REP Comm General Land Office                            Tim Westley                           Voting Box 15                                          01 
00110010013000055000001000019000035000000000000000000000000000000000000000000000000000000000000000000REP       REP Comm General Land Office                            Tim Westley                           Voting Box 16                                          01 
00110010014000064000002000037000025000000000000000000000000000000000000000000000000000000000000000000REP       REP Comm General Land Office                            Tim Westley                           Voting Box 17                                          01 
00110010015000113000004000017000092000000000000000000000000000000000000000000000000000000000000000000REP       REP Comm General Land Office                            Tim Westley                           Voting Box 18                                          01 
00110010016000193000001000119000073000000000000000000000000000000000000000000000000000000000000000000REP       REP Comm General Land Office                            Tim Westley                           Voting Box 19                                          01 
00110010017000092000001000061000030000000000000000000000000000000000000000000000000000000000000000000REP       REP Comm General Land Office                            Tim Westley                           Voting Box 20                                          01 
00110010018000191000004000104000083000000000000000000000000000000000000000000000000000000000000000000REP       REP Comm General Land Office                            Tim Westley                           Voting Box 21                                          01 
00110010019000135000002000048000085000000000000000000000000000000000000000000000000000000000000000000REP       REP Comm General Land Office                            Tim Westley                           Voting Box 22                                          01 
00110010020000089000002000032000055000000000000000000000000000000000000000000000000000000000000000000REP       REP Comm General Land Office                            Tim Westley                           Voting Box 23                                          01 
00110010021000106000004000047000055000000000000000000000000000000000000000000000000000000000000000000REP       REP Comm General Land Office                            Tim Westley                           Voting Box 24                                          01 
00110020001000099000001000066000032000000000000000000000000000000000000000000000000000000000000000000REP       REP Comm General Land Office                            Dawn Buckingham                       Voting Box 1                                           01 
00110020002000134000000000059000075000000000000000000000000000000000000000000000000000000000000000000REP       REP Comm General Land Office                            Dawn Buckingham                       Voting Box 2                                           01 
00110020003000092000003000054000035000000000000000000000000000000000000000000000000000000000000000000REP       REP Comm General Land Office                            Dawn Buckingham                       Voting Box 3                                           01 
00110020004000144000002000064000078000000000000000000000000000000000000000000000000000000000000000000REP       REP Comm General Land Office                            Dawn Buckingham                       Voting Box 4-5                                         01 
00110020005000047000002000030000015000000000000000000000000000000000000000000000000000000000000000000REP       REP Comm General Land Office                            Dawn Buckingham                       Voting Box 6                                           01 
00110020006000017000004000011000002000000000000000000000000000000000000000000000000000000000000000000REP       REP Comm General Land Office                            Dawn Buckingham                       Voting Box 7                                           01 
00110020007000018000000000016000002000000000000000000000000000000000000000000000000000000000000000000REP       REP Comm General Land Office                            Dawn Buckingham                       Voting Box 8                                           01 
00110020008000101000001000052000048000000000000000000000000000000000000000000000000000000000000000000REP       REP Comm General Land Office                            Dawn Buckingham                       Voting Box 9                                           01 
00110020009000030000001000009000020000000000000000000000000000000000000000000000000000000000000000000REP       REP Comm General Land Office                            Dawn Buckingham                       Voting Box 10                                          01 
00110020010000086000000000028000058000000000000000000000000000000000000000000000000000000000000000000REP       REP Comm General Land Office                            Dawn Buckingham                       Voting Box 11                                          01 
00110020011000110000002000064000044000000000000000000000000000000000000000000000000000000000000000000REP       REP Comm General Land Office                            Dawn Buckingham                       Voting Box 13                                          01 
00110020012000087000001000053000033000000000000000000000000000000000000000000000000000000000000000000REP       REP Comm General Land Office                            Dawn Buckingham                       Voting Box 15                                          01 
00110020013000054000000000024000030000000000000000000000000000000000000000000000000000000000000000000REP       REP Comm General Land Office                            Dawn Buckingham                       Voting Box 16                                          01 
00110020014000054000003000034000017000000000000000000000000000000000000000000000000000000000000000000REP       REP Comm General Land Office                            Dawn Buckingham                       Voting Box 17                                          01 
00110020015000106000001000017000088000000000000000000000000000000000000000000000000000000000000000000REP       REP Comm General Land Office                            Dawn Buckingham                       Voting Box 18                                          01 
00110020016000106000002000057000047000000000000000000000000000000000000000000000000000000000000000000REP       REP Comm General Land Office                            Dawn Buckingham                       Voting Box 19                                          01 
00110020017000101000001000075000025000000000000000000000000000000000000000000000000000000000000000000REP       REP Comm General Land Office                            Dawn Buckingham                       Voting Box 20                                          01 
00110020018000172000003000106000063000000000000000000000000000000000000000000000000000000000000000000REP       REP Comm General Land Office                            Dawn Buckingham                       Voting Box 21                                          01 
00110020019000124000000000059000065000000000000000000000000000000000000000000000000000000000000000000REP       REP Comm General Land Office                            Dawn Buckingham                       Voting Box 22                                          01 
00110020020000091000001000039000051000000000000000000000000000000000000000000000000000000000000000000REP       REP Comm General Land Office                            Dawn Buckingham                       Voting Box 23                                          01 
00110020021000060000000000022000038000000000000000000000000000000000000000000000000000000000000000000REP       REP Comm General Land Office                            Dawn Buckingham                       Voting Box 24                                          01 
00120010001000093000000000060000033000000000000000000000000000000000000000000000000000000000000000000REP       REP Railroad Commissioner                               Sarah Stogner                         Voting Box 1                                           01 
00120010002000118000000000040000078000000000000000000000000000000000000000000000000000000000000000000REP       REP Railroad Commissioner                               Sarah Stogner                         Voting Box 2                                           01 
00120010003000094000003000052000039000000000000000000000000000000000000000000000000000000000000000000REP       REP Railroad Commissioner                               Sarah Stogner                         Voting Box 3                                           01 
00120010004000117000006000047000064000000000000000000000000000000000000000000000000000000000000000000REP       REP Railroad Commissioner                               Sarah Stogner                         Voting Box 4-5                                         01 
00120010005000035000001000022000012000000000000000000000000000000000000000000000000000000000000000000REP       REP Railroad Commissioner                               Sarah Stogner                         Voting Box 6                                           01 
00120010006000009000001000007000001000000000000000000000000000000000000000000000000000000000000000000REP       REP Railroad Commissioner                               Sarah Stogner                         Voting Box 7                                           01 
00120010007000010000000000009000001000000000000000000000000000000000000000000000000000000000000000000REP       REP Railroad Commissioner                               Sarah Stogner                         Voting Box 8                                           01 
00120010008000087000001000052000034000000000000000000000000000000000000000000000000000000000000000000REP       REP Railroad Commissioner                               Sarah Stogner                         Voting Box 9                                           01 
00120010009000041000000000015000026000000000000000000000000000000000000000000000000000000000000000000REP       REP Railroad Commissioner                               Sarah Stogner                         Voting Box 10                                          01 
00120010010000073000000000031000042000000000000000000000000000000000000000000000000000000000000000000REP       REP Railroad Commissioner                               Sarah Stogner                         Voting Box 11                                          01 
00120010011000107000001000067000039000000000000000000000000000000000000000000000000000000000000000000REP       REP Railroad Commissioner                               Sarah Stogner                         Voting Box 13                                          01 
00120010012000088000000000054000034000000000000000000000000000000000000000000000000000000000000000000REP       REP Railroad Commissioner                               Sarah Stogner                         Voting Box 15                                          01 
00120010013000047000000000011000036000000000000000000000000000000000000000000000000000000000000000000REP       REP Railroad Commissioner                               Sarah Stogner                         Voting Box 16                                          01 
00120010014000043000001000022000020000000000000000000000000000000000000000000000000000000000000000000REP       REP Railroad Commissioner                               Sarah Stogner                         Voting Box 17                                          01 
00120010015000096000003000014000079000000000000000000000000000000000000000000000000000000000000000000REP       REP Railroad Commissioner                               Sarah Stogner                         Voting Box 18                                          01 
00120010016000127000000000072000055000000000000000000000000000000000000000000000000000000000000000000REP       REP Railroad Commissioner                               Sarah Stogner                         Voting Box 19                                          01 
00120010017000078000000000049000029000000000000000000000000000000000000000000000000000000000000000000REP       REP Railroad Commissioner                               Sarah Stogner                         Voting Box 20                                          01 
00120010018000158000003000085000070000000000000000000000000000000000000000000000000000000000000000000REP       REP Railroad Commissioner                               Sarah Stogner                         Voting Box 21                                          01 
00120010019000111000002000037000072000000000000000000000000000000000000000000000000000000000000000000REP       REP Railroad Commissioner                               Sarah Stogner                         Voting Box 22                                          01 
00120010020000075000001000029000045000000000000000000000000000000000000000000000000000000000000000000REP       REP Railroad Commissioner                               Sarah Stogner                         Voting Box 23                                          01 
00120010021000058000000000019000039000000000000000000000000000000000000000000000000000000000000000000REP       REP Railroad Commissioner                               Sarah Stogner                         Voting Box 24                                          01 
00120020001000124000001000077000046000000000000000000000000000000000000000000000000000000000000000000REP       REP Railroad Commissioner                               Wayne Christian                       Voting Box 1                                           01 
00120020002000244000003000107000134000000000000000000000000000000000000000000000000000000000000000000REP       REP Railroad Commissioner                               Wayne Christian                       Voting Box 2                                           01 
00120020003000111000002000070000039000000000000000000000000000000000000000000000000000000000000000000REP       REP Railroad Commissioner                               Wayne Christian                       Voting Box 3                                           01 
00120020004000179000001000080000098000000000000000000000000000000000000000000000000000000000000000000REP       REP Railroad Commissioner                               Wayne Christian                       Voting Box 4-5                                         01 
00120020005000064000003000044000017000000000000000000000000000000000000000000000000000000000000000000REP       REP Railroad Commissioner                               Wayne Christian                       Voting Box 6                                           01 
00120020006000028000006000013000009000000000000000000000000000000000000000000000000000000000000000000REP       REP Railroad Commissioner                               Wayne Christian                       Voting Box 7                                           01 
00120020007000019000000000016000003000000000000000000000000000000000000000000000000000000000000000000REP       REP Railroad Commissioner                               Wayne Christian                       Voting Box 8                                           01 
00120020008000126000001000066000059000000000000000000000000000000000000000000000000000000000000000000REP       REP Railroad Commissioner                               Wayne Christian                       Voting Box 9                                           01 
00120020009000038000001000012000025000000000000000000000000000000000000000000000000000000000000000000REP       REP Railroad Commissioner                               Wayne Christian                       Voting Box 10                                          01 
00120020010000110000001000032000077000000000000000000000000000000000000000000000000000000000000000000REP       REP Railroad Commissioner                               Wayne Christian                       Voting Box 11                                          01 
00120020011000135000004000081000050000000000000000000000000000000000000000000000000000000000000000000REP       REP Railroad Commissioner                               Wayne Christian                       Voting Box 13                                          01 
00120020012000105000004000060000041000000000000000000000000000000000000000000000000000000000000000000REP       REP Railroad Commissioner                               Wayne Christian                       Voting Box 15                                          01 
00120020013000069000001000034000034000000000000000000000000000000000000000000000000000000000000000000REP       REP Railroad Commissioner                               Wayne Christian                       Voting Box 16                                          01 
00120020014000076000004000051000021000000000000000000000000000000000000000000000000000000000000000000REP       REP Railroad Commissioner                               Wayne Christian                       Voting Box 17                                          01 
00120020015000132000002000021000109000000000000000000000000000000000000000000000000000000000000000000REP       REP Railroad Commissioner                               Wayne Christian                       Voting Box 18                                          01 
00120020016000176000003000108000065000000000000000000000000000000000000000000000000000000000000000000REP       REP Railroad Commissioner                               Wayne Christian                       Voting Box 19                                          01 
00120020017000123000001000093000029000000000000000000000000000000000000000000000000000000000000000000REP       REP Railroad Commissioner                               Wayne Christian                       Voting Box 20                                          01 
00120020018000224000004000140000080000000000000000000000000000000000000000000000000000000000000000000REP       REP Railroad Commissioner                               Wayne Christian                       Voting Box 21                                          01 
00120020019000160000000000069000091000000000000000000000000000000000000000000000000000000000000000000REP       REP Railroad Commissioner                               Wayne Christian                       Voting Box 22                                          01 
00120020020000107000002000046000059000000000000000000000000000000000000000000000000000000000000000000REP       REP Railroad Commissioner                               Wayne Christian                       Voting Box 23                                          01 
00120020021000111000005000050000056000000000000000000000000000000000000000000000000000000000000000000REP       REP Railroad Commissioner                               Wayne Christian                       Voting Box 24                                          01 
00130010001000103000001000068000034000000000000000000000000000000000000000000000000000000000000000000REP       REP District Judge, 87th Judicial District              Dan Scarbrough                        Voting Box 1                                           01 
00130010002000149000002000063000084000000000000000000000000000000000000000000000000000000000000000000REP       REP District Judge, 87th Judicial District              Dan Scarbrough                        Voting Box 2                                           01 
00130010003000086000002000051000033000000000000000000000000000000000000000000000000000000000000000000REP       REP District Judge, 87th Judicial District              Dan Scarbrough                        Voting Box 3                                           01 
00130010004000143000005000059000079000000000000000000000000000000000000000000000000000000000000000000REP       REP District Judge, 87th Judicial District              Dan Scarbrough                        Voting Box 4-5                                         01 
00130010005000046000003000035000008000000000000000000000000000000000000000000000000000000000000000000REP       REP District Judge, 87th Judicial District              Dan Scarbrough                        Voting Box 6                                           01 
00130010006000016000003000008000005000000000000000000000000000000000000000000000000000000000000000000REP       REP District Judge, 87th Judicial District              Dan Scarbrough                        Voting Box 7                                           01 
00130010007000013000000000011000002000000000000000000000000000000000000000000000000000000000000000000REP       REP District Judge, 87th Judicial District              Dan Scarbrough                        Voting Box 8                                           01 
00130010008000080000000000051000029000000000000000000000000000000000000000000000000000000000000000000REP       REP District Judge, 87th Judicial District              Dan Scarbrough                        Voting Box 9                                           01 
00130010009000035000000000014000021000000000000000000000000000000000000000000000000000000000000000000REP       REP District Judge, 87th Judicial District              Dan Scarbrough                        Voting Box 10                                          01 
00130010010000103000000000035000068000000000000000000000000000000000000000000000000000000000000000000REP       REP District Judge, 87th Judicial District              Dan Scarbrough                        Voting Box 11                                          01 
00130010011000107000002000063000042000000000000000000000000000000000000000000000000000000000000000000REP       REP District Judge, 87th Judicial District              Dan Scarbrough                        Voting Box 13                                          01 
00130010012000109000003000064000042000000000000000000000000000000000000000000000000000000000000000000REP       REP District Judge, 87th Judicial District              Dan Scarbrough                        Voting Box 15                                          01 
00130010013000060000001000015000044000000000000000000000000000000000000000000000000000000000000000000REP       REP District Judge, 87th Judicial District              Dan Scarbrough                        Voting Box 16                                          01 
00130010014000057000002000036000019000000000000000000000000000000000000000000000000000000000000000000REP       REP District Judge, 87th Judicial District              Dan Scarbrough                        Voting Box 17                                          01 
00130010015000096000002000006000088000000000000000000000000000000000000000000000000000000000000000000REP       REP District Judge, 87th Judicial District              Dan Scarbrough                        Voting Box 18                                          01 
00130010016000130000002000081000047000000000000000000000000000000000000000000000000000000000000000000REP       REP District Judge, 87th Judicial District              Dan Scarbrough                        Voting Box 19                                          01 
00130010017000088000001000060000027000000000000000000000000000000000000000000000000000000000000000000REP       REP District Judge, 87th Judicial District              Dan Scarbrough                        Voting Box 20                                          01 
00130010018000172000002000096000074000000000000000000000000000000000000000000000000000000000000000000REP       REP District Judge, 87th Judicial District              Dan Scarbrough                        Voting Box 21                                          01 
00130010019000115000000000047000068000000000000000000000000000000000000000000000000000000000000000000REP       REP District Judge, 87th Judicial District              Dan Scarbrough                        Voting Box 22                                          01 
00130010020000090000001000031000058000000000000000000000000000000000000000000000000000000000000000000REP       REP District Judge, 87th Judicial District              Dan Scarbrough                        Voting Box 23                                          01 
00130010021000087000006000040000041000000000000000000000000000000000000000000000000000000000000000000REP       REP District Judge, 87th Judicial District              Dan Scarbrough                        Voting Box 24                                          01 
00130020001000132000001000078000053000000000000000000000000000000000000000000000000000000000000000000REP       REP District Judge, 87th Judicial District              Amy Thomas Ward                       Voting Box 1                                           01 
00130020002000255000001000111000143000000000000000000000000000000000000000000000000000000000000000000REP       REP District Judge, 87th Judicial District              Amy Thomas Ward                       Voting Box 2                                           01 
00130020003000142000003000085000054000000000000000000000000000000000000000000000000000000000000000000REP       REP District Judge, 87th Judicial District              Amy Thomas Ward                       Voting Box 3                                           01 
00130020004000172000001000079000092000000000000000000000000000000000000000000000000000000000000000000REP       REP District Judge, 87th Judicial District              Amy Thomas Ward                       Voting Box 4-5                                         01 
00130020005000059000001000036000022000000000000000000000000000000000000000000000000000000000000000000REP       REP District Judge, 87th Judicial District              Amy Thomas Ward                       Voting Box 6                                           01 
00130020006000021000004000012000005000000000000000000000000000000000000000000000000000000000000000000REP       REP District Judge, 87th Judicial District              Amy Thomas Ward                       Voting Box 7                                           01 
00130020007000023000000000020000003000000000000000000000000000000000000000000000000000000000000000000REP       REP District Judge, 87th Judicial District              Amy Thomas Ward                       Voting Box 8                                           01 
00130020008000140000002000066000072000000000000000000000000000000000000000000000000000000000000000000REP       REP District Judge, 87th Judicial District              Amy Thomas Ward                       Voting Box 9                                           01 
00130020009000048000001000015000032000000000000000000000000000000000000000000000000000000000000000000REP       REP District Judge, 87th Judicial District              Amy Thomas Ward                       Voting Box 10                                          01 
00130020010000091000001000038000052000000000000000000000000000000000000000000000000000000000000000000REP       REP District Judge, 87th Judicial District              Amy Thomas Ward                       Voting Box 11                                          01 
00130020011000160000004000104000052000000000000000000000000000000000000000000000000000000000000000000REP       REP District Judge, 87th Judicial District              Amy Thomas Ward                       Voting Box 13                                          01 
00130020012000103000001000067000035000000000000000000000000000000000000000000000000000000000000000000REP       REP District Judge, 87th Judicial District              Amy Thomas Ward                       Voting Box 15                                          01 
00130020013000063000000000033000030000000000000000000000000000000000000000000000000000000000000000000REP       REP District Judge, 87th Judicial District              Amy Thomas Ward                       Voting Box 16                                          01 
00130020014000069000003000042000024000000000000000000000000000000000000000000000000000000000000000000REP       REP District Judge, 87th Judicial District              Amy Thomas Ward                       Voting Box 17                                          01 
00130020015000129000003000028000098000000000000000000000000000000000000000000000000000000000000000000REP       REP District Judge, 87th Judicial District              Amy Thomas Ward                       Voting Box 18                                          01 
00130020016000188000000000110000078000000000000000000000000000000000000000000000000000000000000000000REP       REP District Judge, 87th Judicial District              Amy Thomas Ward                       Voting Box 19                                          01 
00130020017000142000001000106000035000000000000000000000000000000000000000000000000000000000000000000REP       REP District Judge, 87th Judicial District              Amy Thomas Ward                       Voting Box 20                                          01 
00130020018000236000005000148000083000000000000000000000000000000000000000000000000000000000000000000REP       REP District Judge, 87th Judicial District              Amy Thomas Ward                       Voting Box 21                                          01 
00130020019000183000002000075000106000000000000000000000000000000000000000000000000000000000000000000REP       REP District Judge, 87th Judicial District              Amy Thomas Ward                       Voting Box 22                                          01 
00130020020000097000002000046000049000000000000000000000000000000000000000000000000000000000000000000REP       REP District Judge, 87th Judicial District              Amy Thomas Ward                       Voting Box 23                                          01 
00130020021000084000000000030000054000000000000000000000000000000000000000000000000000000000000000000REP       REP District Judge, 87th Judicial District              Amy Thomas Ward                       Voting Box 24                                          01 
00140010001000124000000000079000045000000000000000000000000000000000000000000000000000000000000000000REP       REP County Judge                                        Robert Johnston                       Voting Box 1                                           01 
00140010002000180000002000062000116000000000000000000000000000000000000000000000000000000000000000000REP       REP County Judge                                        Robert Johnston                       Voting Box 2                                           01 
00140010003000100000005000061000034000000000000000000000000000000000000000000000000000000000000000000REP       REP County Judge                                        Robert Johnston                       Voting Box 3                                           01 
00140010004000158000001000069000088000000000000000000000000000000000000000000000000000000000000000000REP       REP County Judge                                        Robert Johnston                       Voting Box 4-5                                         01 
00140010005000045000001000029000015000000000000000000000000000000000000000000000000000000000000000000REP       REP County Judge                                        Robert Johnston                       Voting Box 6                                           01 
00140010006000016000000000009000007000000000000000000000000000000000000000000000000000000000000000000REP       REP County Judge                                        Robert Johnston                       Voting Box 7                                           01 
00140010007000019000000000015000004000000000000000000000000000000000000000000000000000000000000000000REP       REP County Judge                                        Robert Johnston                       Voting Box 8                                           01 
00140010008000093000001000048000044000000000000000000000000000000000000000000000000000000000000000000REP       REP County Judge                                        Robert Johnston                       Voting Box 9                                           01 
00140010009000044000000000018000026000000000000000000000000000000000000000000000000000000000000000000REP       REP County Judge                                        Robert Johnston                       Voting Box 10                                          01 
00140010010000117000000000043000074000000000000000000000000000000000000000000000000000000000000000000REP       REP County Judge                                        Robert Johnston                       Voting Box 11                                          01 
00140010011000133000003000080000050000000000000000000000000000000000000000000000000000000000000000000REP       REP County Judge                                        Robert Johnston                       Voting Box 13                                          01 
00140010012000129000002000082000045000000000000000000000000000000000000000000000000000000000000000000REP       REP County Judge                                        Robert Johnston                       Voting Box 15                                          01 
00140010013000057000001000018000038000000000000000000000000000000000000000000000000000000000000000000REP       REP County Judge                                        Robert Johnston                       Voting Box 16                                          01 
00140010014000069000002000042000025000000000000000000000000000000000000000000000000000000000000000000REP       REP County Judge                                        Robert Johnston                       Voting Box 17                                          01 
00140010015000131000001000013000117000000000000000000000000000000000000000000000000000000000000000000REP       REP County Judge                                        Robert Johnston                       Voting Box 18                                          01 
00140010016000103000002000059000042000000000000000000000000000000000000000000000000000000000000000000REP       REP County Judge                                        Robert Johnston                       Voting Box 19                                          01 
00140010017000121000002000080000039000000000000000000000000000000000000000000000000000000000000000000REP       REP County Judge                                        Robert Johnston                       Voting Box 20                                          01 
00140010018000189000002000105000082000000000000000000000000000000000000000000000000000000000000000000REP       REP County Judge                                        Robert Johnston                       Voting Box 21                                          01 
00140010019000148000002000055000091000000000000000000000000000000000000000000000000000000000000000000REP       REP County Judge                                        Robert Johnston                       Voting Box 22                                          01 
00140010020000104000002000041000061000000000000000000000000000000000000000000000000000000000000000000REP       REP County Judge                                        Robert Johnston                       Voting Box 23                                          01 
