00010010001001415000000000000000000000000000000000000000000000000000000000000000000000000000000000000          REGISTERED VOTERS - TOTAL                               REGISTERED VOTERS - TOTAL             Precinct 101                                           00 
00010010002001431000000000000000000000000000000000000000000000000000000000000000000000000000000000000          REGISTERED VOTERS - TOTAL                               REGISTERED VOTERS - TOTAL             Precinct 102                                           00 
00010010003001447000000000000000000000000000000000000000000000000000000000000000000000000000000000000          REGISTERED VOTERS - TOTAL                               REGISTERED VOTERS - TOTAL             Precinct 103                                           00 
00010010004000857000000000000000000000000000000000000000000000000000000000000000000000000000000000000          REGISTERED VOTERS - TOTAL                               REGISTERED VOTERS - TOTAL             Precinct 104                                           00 
00010010005002787000000000000000000000000000000000000000000000000000000000000000000000000000000000000          REGISTERED VOTERS - TOTAL                               REGISTERED VOTERS - TOTAL             Precinct 205                                           00 
00010010006001365000000000000000000000000000000000000000000000000000000000000000000000000000000000000          REGISTERED VOTERS - TOTAL                               REGISTERED VOTERS - TOTAL             Precinct 206                                           00 
00010010007000745000000000000000000000000000000000000000000000000000000000000000000000000000000000000          REGISTERED VOTERS - TOTAL                               REGISTERED VOTERS - TOTAL             Precinct 207                                           00 
00010010008000651000000000000000000000000000000000000000000000000000000000000000000000000000000000000          REGISTERED VOTERS - TOTAL                               REGISTERED VOTERS - TOTAL             Precinct 208                                           00 
00010010009000641000000000000000000000000000000000000000000000000000000000000000000000000000000000000          REGISTERED VOTERS - TOTAL                               REGISTERED VOTERS - TOTAL             Precinct 309                                           00 
00010010010002867000000000000000000000000000000000000000000000000000000000000000000000000000000000000          REGISTERED VOTERS - TOTAL                               REGISTERED VOTERS - TOTAL             Precinct 310                                           00 
00010010011001159000000000000000000000000000000000000000000000000000000000000000000000000000000000000          REGISTERED VOTERS - TOTAL                               REGISTERED VOTERS - TOTAL             Precinct 311                                           00 
00010010012000665000000000000000000000000000000000000000000000000000000000000000000000000000000000000          REGISTERED VOTERS - TOTAL                               REGISTERED VOTERS - TOTAL             Precinct 412                                           00 
00010010013001484000000000000000000000000000000000000000000000000000000000000000000000000000000000000          REGISTERED VOTERS - TOTAL                               REGISTERED VOTERS - TOTAL             Precinct 413                                           00 
00010010014001517000000000000000000000000000000000000000000000000000000000000000000000000000000000000          REGISTERED VOTERS - TOTAL                               REGISTERED VOTERS - TOTAL             Precinct 414                                           00 
00010010015001577000000000000000000000000000000000000000000000000000000000000000000000000000000000000          REGISTERED VOTERS - TOTAL                               REGISTERED VOTERS - TOTAL             Precinct 415                                           00 
00020010001000000000000000000000000000000000000000000000000000000000000000000000000000000000000000000REP       REGISTERED VOTERS - Republican Party                    REGISTERED VOTERS - Republican Party  Precinct 101                                           00 
00020010002000000000000000000000000000000000000000000000000000000000000000000000000000000000000000000REP       REGISTERED VOTERS - Republican Party                    REGISTERED VOTERS - Republican Party  Precinct 102                                           00 
00020010003000000000000000000000000000000000000000000000000000000000000000000000000000000000000000000REP       REGISTERED VOTERS - Republican Party                    REGISTERED VOTERS - Republican Party  Precinct 103                                           00 
00020010004000000000000000000000000000000000000000000000000000000000000000000000000000000000000000000REP       REGISTERED VOTERS - Republican Party                    REGISTERED VOTERS - Republican Party  Precinct 104                                           00 
00020010005000000000000000000000000000000000000000000000000000000000000000000000000000000000000000000REP       REGISTERED VOTERS - Republican Party                    REGISTERED VOTERS - Republican Party  Precinct 205                                           00 
00020010006000000000000000000000000000000000000000000000000000000000000000000000000000000000000000000REP       REGISTERED VOTERS - Republican Party                    REGISTERED VOTERS - Republican Party  Precinct 206                                           00 
00020010007000000000000000000000000000000000000000000000000000000000000000000000000000000000000000000REP       REGISTERED VOTERS - Republican Party                    REGISTERED VOTERS - Republican Party  Precinct 207                                           00 
00020010008000000000000000000000000000000000000000000000000000000000000000000000000000000000000000000REP       REGISTERED VOTERS - Republican Party                    REGISTERED VOTERS - Republican Party  Precinct 208                                           00 
00020010009000000000000000000000000000000000000000000000000000000000000000000000000000000000000000000REP       REGISTERED VOTERS - Republican Party                    REGISTERED VOTERS - Republican Party  Precinct 309                                           00 
00020010010000000000000000000000000000000000000000000000000000000000000000000000000000000000000000000REP       REGISTERED VOTERS - Republican Party                    REGISTERED VOTERS - Republican Party  Precinct 310                                           00 
00020010011000000000000000000000000000000000000000000000000000000000000000000000000000000000000000000REP       REGISTERED VOTERS - Republican Party                    REGISTERED VOTERS - Republican Party  Precinct 311                                           00 
00020010012000000000000000000000000000000000000000000000000000000000000000000000000000000000000000000REP       REGISTERED VOTERS - Republican Party                    REGISTERED VOTERS - Republican Party  Precinct 412                                           00 
00020010013000000000000000000000000000000000000000000000000000000000000000000000000000000000000000000REP       REGISTERED VOTERS - Republican Party                    REGISTERED VOTERS - Republican Party  Precinct 413                                           00 
00020010014000000000000000000000000000000000000000000000000000000000000000000000000000000000000000000REP       REGISTERED VOTERS - Republican Party                    REGISTERED VOTERS - Republican Party  Precinct 414                                           00 
00020010015000000000000000000000000000000000000000000000000000000000000000000000000000000000000000000REP       REGISTERED VOTERS - Republican Party                    REGISTERED VOTERS - Republican Party  Precinct 415                                           00 
00030010001000000000000000000000000000000000000000000000000000000000000000000000000000000000000000000DEM       REGISTERED VOTERS - Democratic Party                    REGISTERED VOTERS - Democratic Party  Precinct 101                                           00 
00030010002000000000000000000000000000000000000000000000000000000000000000000000000000000000000000000DEM       REGISTERED VOTERS - Democratic Party                    REGISTERED VOTERS - Democratic Party  Precinct 102                                           00 
00030010003000000000000000000000000000000000000000000000000000000000000000000000000000000000000000000DEM       REGISTERED VOTERS - Democratic Party                    REGISTERED VOTERS - Democratic Party  Precinct 103                                           00 
00030010004000000000000000000000000000000000000000000000000000000000000000000000000000000000000000000DEM       REGISTERED VOTERS - Democratic Party                    REGISTERED VOTERS - Democratic Party  Precinct 104                                           00 
00030010005000000000000000000000000000000000000000000000000000000000000000000000000000000000000000000DEM       REGISTERED VOTERS - Democratic Party                    REGISTERED VOTERS - Democratic Party  Precinct 205                                           00 
00030010006000000000000000000000000000000000000000000000000000000000000000000000000000000000000000000DEM       REGISTERED VOTERS - Democratic Party                    REGISTERED VOTERS - Democratic Party  Precinct 206                                           00 
00030010007000000000000000000000000000000000000000000000000000000000000000000000000000000000000000000DEM       REGISTERED VOTERS - Democratic Party                    REGISTERED VOTERS - Democratic Party  Precinct 207                                           00 
00030010008000000000000000000000000000000000000000000000000000000000000000000000000000000000000000000DEM       REGISTERED VOTERS - Democratic Party                    REGISTERED VOTERS - Democratic Party  Precinct 208                                           00 
00030010009000000000000000000000000000000000000000000000000000000000000000000000000000000000000000000DEM       REGISTERED VOTERS - Democratic Party                    REGISTERED VOTERS - Democratic Party  Precinct 309                                           00 
00030010010000000000000000000000000000000000000000000000000000000000000000000000000000000000000000000DEM       REGISTERED VOTERS - Democratic Party                    REGISTERED VOTERS - Democratic Party  Precinct 310                                           00 
00030010011000000000000000000000000000000000000000000000000000000000000000000000000000000000000000000DEM       REGISTERED VOTERS - Democratic Party                    REGISTERED VOTERS - Democratic Party  Precinct 311                                           00 
00030010012000000000000000000000000000000000000000000000000000000000000000000000000000000000000000000DEM       REGISTERED VOTERS - Democratic Party                    REGISTERED VOTERS - Democratic Party  Precinct 412                                           00 
00030010013000000000000000000000000000000000000000000000000000000000000000000000000000000000000000000DEM       REGISTERED VOTERS - Democratic Party                    REGISTERED VOTERS - Democratic Party  Precinct 413                                           00 
00030010014000000000000000000000000000000000000000000000000000000000000000000000000000000000000000000DEM       REGISTERED VOTERS - Democratic Party                    REGISTERED VOTERS - Democratic Party  Precinct 414                                           00 
00030010015000000000000000000000000000000000000000000000000000000000000000000000000000000000000000000DEM       REGISTERED VOTERS - Democratic Party                    REGISTERED VOTERS - Democratic Party  Precinct 415                                           00 
00040010001001415000000000000000000000000000000000000000000000000000000000000000000000000000000000000NON       REGISTERED VOTERS - NONPARTISAN                         REGISTERED VOTERS - NONPARTISAN       Precinct 101                                           00 
00040010002001431000000000000000000000000000000000000000000000000000000000000000000000000000000000000NON       REGISTERED VOTERS - NONPARTISAN                         REGISTERED VOTERS - NONPARTISAN       Precinct 102                                           00 
00040010003001447000000000000000000000000000000000000000000000000000000000000000000000000000000000000NON       REGISTERED VOTERS - NONPARTISAN                         REGISTERED VOTERS - NONPARTISAN       Precinct 103                                           00 
00040010004000857000000000000000000000000000000000000000000000000000000000000000000000000000000000000NON       REGISTERED VOTERS - NONPARTISAN                         REGISTERED VOTERS - NONPARTISAN       Precinct 104                                           00 
00040010005002787000000000000000000000000000000000000000000000000000000000000000000000000000000000000NON       REGISTERED VOTERS - NONPARTISAN                         REGISTERED VOTERS - NONPARTISAN       Precinct 205                                           00 
00040010006001365000000000000000000000000000000000000000000000000000000000000000000000000000000000000NON       REGISTERED VOTERS - NONPARTISAN                         REGISTERED VOTERS - NONPARTISAN       Precinct 206                                           00 
00040010007000745000000000000000000000000000000000000000000000000000000000000000000000000000000000000NON       REGISTERED VOTERS - NONPARTISAN                         REGISTERED VOTERS - NONPARTISAN       Precinct 207                                           00 
00040010008000651000000000000000000000000000000000000000000000000000000000000000000000000000000000000NON       REGISTERED VOTERS - NONPARTISAN                         REGISTERED VOTERS - NONPARTISAN       Precinct 208                                           00 
00040010009000641000000000000000000000000000000000000000000000000000000000000000000000000000000000000NON       REGISTERED VOTERS - NONPARTISAN                         REGISTERED VOTERS - NONPARTISAN       Precinct 309                                           00 
00040010010002867000000000000000000000000000000000000000000000000000000000000000000000000000000000000NON       REGISTERED VOTERS - NONPARTISAN                         REGISTERED VOTERS - NONPARTISAN       Precinct 310                                           00 
00040010011001159000000000000000000000000000000000000000000000000000000000000000000000000000000000000NON       REGISTERED VOTERS - NONPARTISAN                         REGISTERED VOTERS - NONPARTISAN       Precinct 311                                           00 
00040010012000665000000000000000000000000000000000000000000000000000000000000000000000000000000000000NON       REGISTERED VOTERS - NONPARTISAN                         REGISTERED VOTERS - NONPARTISAN       Precinct 412                                           00 
00040010013001484000000000000000000000000000000000000000000000000000000000000000000000000000000000000NON       REGISTERED VOTERS - NONPARTISAN                         REGISTERED VOTERS - NONPARTISAN       Precinct 413                                           00 
00040010014001517000000000000000000000000000000000000000000000000000000000000000000000000000000000000NON       REGISTERED VOTERS - NONPARTISAN                         REGISTERED VOTERS - NONPARTISAN       Precinct 414                                           00 
00040010015001577000000000000000000000000000000000000000000000000000000000000000000000000000000000000NON       REGISTERED VOTERS - NONPARTISAN                         REGISTERED VOTERS - NONPARTISAN       Precinct 415                                           00 
00050010001000166000012000072000082000000000000000000000000000000000000000000000000000000000000000000          BALLOTS CAST - TOTAL                                    BALLOTS CAST - TOTAL                  Precinct 101                                           00 
00050010002000164000009000061000094000000000000000000000000000000000000000000000000000000000000000000          BALLOTS CAST - TOTAL                                    BALLOTS CAST - TOTAL                  Precinct 102                                           00 
00050010003000237000017000104000116000000000000000000000000000000000000000000000000000000000000000000          BALLOTS CAST - TOTAL                                    BALLOTS CAST - TOTAL                  Precinct 103                                           00 
00050010004000120000008000044000068000000000000000000000000000000000000000000000000000000000000000000          BALLOTS CAST - TOTAL                                    BALLOTS CAST - TOTAL                  Precinct 104                                           00 
00050010005000375000026000158000191000000000000000000000000000000000000000000000000000000000000000000          BALLOTS CAST - TOTAL                                    BALLOTS CAST - TOTAL                  Precinct 205                                           00 
00050010006000192000010000040000142000000000000000000000000000000000000000000000000000000000000000000          BALLOTS CAST - TOTAL                                    BALLOTS CAST - TOTAL                  Precinct 206                                           00 
00050010007000133000011000017000105000000000000000000000000000000000000000000000000000000000000000000          BALLOTS CAST - TOTAL                                    BALLOTS CAST - TOTAL                  Precinct 207                                           00 
00050010008000123000008000020000095000000000000000000000000000000000000000000000000000000000000000000          BALLOTS CAST - TOTAL                                    BALLOTS CAST - TOTAL                  Precinct 208                                           00 
00050010009000111000010000017000084000000000000000000000000000000000000000000000000000000000000000000          BALLOTS CAST - TOTAL                                    BALLOTS CAST - TOTAL                  Precinct 309                                           00 
00050010010000248000025000026000197000000000000000000000000000000000000000000000000000000000000000000          BALLOTS CAST - TOTAL                                    BALLOTS CAST - TOTAL                  Precinct 310                                           00 
00050010011000059000007000008000044000000000000000000000000000000000000000000000000000000000000000000          BALLOTS CAST - TOTAL                                    BALLOTS CAST - TOTAL                  Precinct 311                                           00 
00050010012000069000008000002000059000000000000000000000000000000000000000000000000000000000000000000          BALLOTS CAST - TOTAL                                    BALLOTS CAST - TOTAL                  Precinct 412                                           00 
00050010013000188000017000021000150000000000000000000000000000000000000000000000000000000000000000000          BALLOTS CAST - TOTAL                                    BALLOTS CAST - TOTAL                  Precinct 413                                           00 
00050010014000099000014000016000069000000000000000000000000000000000000000000000000000000000000000000          BALLOTS CAST - TOTAL                                    BALLOTS CAST - TOTAL                  Precinct 414                                           00 
00050010015000135000017000002000116000000000000000000000000000000000000000000000000000000000000000000          BALLOTS CAST - TOTAL                                    BALLOTS CAST - TOTAL                  Precinct 415                                           00 
00060010001000149000008000066000075000000000000000000000000000000000000000000000000000000000000000000REP       BALLOTS CAST - Republican Party                         BALLOTS CAST - Republican Party       Precinct 101                                           00 
00060010002000144000005000057000082000000000000000000000000000000000000000000000000000000000000000000REP       BALLOTS CAST - Republican Party                         BALLOTS CAST - Republican Party       Precinct 102                                           00 
00060010003000223000014000098000111000000000000000000000000000000000000000000000000000000000000000000REP       BALLOTS CAST - Republican Party                         BALLOTS CAST - Republican Party       Precinct 103                                           00 
00060010004000116000008000043000065000000000000000000000000000000000000000000000000000000000000000000REP       BALLOTS CAST - Republican Party                         BALLOTS CAST - Republican Party       Precinct 104                                           00 
00060010005000351000019000150000182000000000000000000000000000000000000000000000000000000000000000000REP       BALLOTS CAST - Republican Party                         BALLOTS CAST - Republican Party       Precinct 205                                           00 
00060010006000176000005000035000136000000000000000000000000000000000000000000000000000000000000000000REP       BALLOTS CAST - Republican Party                         BALLOTS CAST - Republican Party       Precinct 206                                           00 
00060010007000126000010000015000101000000000000000000000000000000000000000000000000000000000000000000REP       BALLOTS CAST - Republican Party                         BALLOTS CAST - Republican Party       Precinct 207                                           00 
00060010008000109000007000016000086000000000000000000000000000000000000000000000000000000000000000000REP       BALLOTS CAST - Republican Party                         BALLOTS CAST - Republican Party       Precinct 208                                           00 
00060010009000106000005000017000084000000000000000000000000000000000000000000000000000000000000000000REP       BALLOTS CAST - Republican Party                         BALLOTS CAST - Republican Party       Precinct 309                                           00 
00060010010000220000014000024000182000000000000000000000000000000000000000000000000000000000000000000REP       BALLOTS CAST - Republican Party                         BALLOTS CAST - Republican Party       Precinct 310                                           00 
00060010011000053000007000008000038000000000000000000000000000000000000000000000000000000000000000000REP       BALLOTS CAST - Republican Party                         BALLOTS CAST - Republican Party       Precinct 311                                           00 
00060010012000061000004000002000055000000000000000000000000000000000000000000000000000000000000000000REP       BALLOTS CAST - Republican Party                         BALLOTS CAST - Republican Party       Precinct 412                                           00 
00060010013000183000015000021000147000000000000000000000000000000000000000000000000000000000000000000REP       BALLOTS CAST - Republican Party                         BALLOTS CAST - Republican Party       Precinct 413                                           00 
00060010014000089000008000015000066000000000000000000000000000000000000000000000000000000000000000000REP       BALLOTS CAST - Republican Party                         BALLOTS CAST - Republican Party       Precinct 414                                           00 
00060010015000117000009000001000107000000000000000000000000000000000000000000000000000000000000000000REP       BALLOTS CAST - Republican Party                         BALLOTS CAST - Republican Party       Precinct 415                                           00 
00070010001000017000004000006000007000000000000000000000000000000000000000000000000000000000000000000DEM       BALLOTS CAST - Democratic Party                         BALLOTS CAST - Democratic Party       Precinct 101                                           00 
00070010002000020000004000004000012000000000000000000000000000000000000000000000000000000000000000000DEM       BALLOTS CAST - Democratic Party                         BALLOTS CAST - Democratic Party       Precinct 102                                           00 
00070010003000014000003000006000005000000000000000000000000000000000000000000000000000000000000000000DEM       BALLOTS CAST - Democratic Party                         BALLOTS CAST - Democratic Party       Precinct 103                                           00 
00070010004000004000000000001000003000000000000000000000000000000000000000000000000000000000000000000DEM       BALLOTS CAST - Democratic Party                         BALLOTS CAST - Democratic Party       Precinct 104                                           00 
00070010005000024000007000008000009000000000000000000000000000000000000000000000000000000000000000000DEM       BALLOTS CAST - Democratic Party                         BALLOTS CAST - Democratic Party       Precinct 205                                           00 
00070010006000016000005000005000006000000000000000000000000000000000000000000000000000000000000000000DEM       BALLOTS CAST - Democratic Party                         BALLOTS CAST - Democratic Party       Precinct 206                                           00 
00070010007000007000001000002000004000000000000000000000000000000000000000000000000000000000000000000DEM       BALLOTS CAST - Democratic Party                         BALLOTS CAST - Democratic Party       Precinct 207                                           00 
00070010008000014000001000004000009000000000000000000000000000000000000000000000000000000000000000000DEM       BALLOTS CAST - Democratic Party                         BALLOTS CAST - Democratic Party       Precinct 208                                           00 
00070010009000005000005000000000000000000000000000000000000000000000000000000000000000000000000000000DEM       BALLOTS CAST - Democratic Party                         BALLOTS CAST - Democratic Party       Precinct 309                                           00 
00070010010000028000011000002000015000000000000000000000000000000000000000000000000000000000000000000DEM       BALLOTS CAST - Democratic Party                         BALLOTS CAST - Democratic Party       Precinct 310                                           00 
00070010011000006000000000000000006000000000000000000000000000000000000000000000000000000000000000000DEM       BALLOTS CAST - Democratic Party                         BALLOTS CAST - Democratic Party       Precinct 311                                           00 
00070010012000008000004000000000004000000000000000000000000000000000000000000000000000000000000000000DEM       BALLOTS CAST - Democratic Party                         BALLOTS CAST - Democratic Party       Precinct 412                                           00 
00070010013000005000002000000000003000000000000000000000000000000000000000000000000000000000000000000DEM       BALLOTS CAST - Democratic Party                         BALLOTS CAST - Democratic Party       Precinct 413                                           00 
00070010014000010000006000001000003000000000000000000000000000000000000000000000000000000000000000000DEM       BALLOTS CAST - Democratic Party                         BALLOTS CAST - Democratic Party       Precinct 414                                           00 
00070010015000018000008000001000009000000000000000000000000000000000000000000000000000000000000000000DEM       BALLOTS CAST - Democratic Party                         BALLOTS CAST - Democratic Party       Precinct 415                                           00 
00080010001000000000000000000000000000000000000000000000000000000000000000000000000000000000000000000NON       BALLOTS CAST - NONPARTISAN                              BALLOTS CAST - NONPARTISAN            Precinct 101                                           00 
00080010002000000000000000000000000000000000000000000000000000000000000000000000000000000000000000000NON       BALLOTS CAST - NONPARTISAN                              BALLOTS CAST - NONPARTISAN            Precinct 102                                           00 
00080010003000000000000000000000000000000000000000000000000000000000000000000000000000000000000000000NON       BALLOTS CAST - NONPARTISAN                              BALLOTS CAST - NONPARTISAN            Precinct 103                                           00 
00080010004000000000000000000000000000000000000000000000000000000000000000000000000000000000000000000NON       BALLOTS CAST - NONPARTISAN                              BALLOTS CAST - NONPARTISAN            Precinct 104                                           00 
00080010005000000000000000000000000000000000000000000000000000000000000000000000000000000000000000000NON       BALLOTS CAST - NONPARTISAN                              BALLOTS CAST - NONPARTISAN            Precinct 205                                           00 
00080010006000000000000000000000000000000000000000000000000000000000000000000000000000000000000000000NON       BALLOTS CAST - NONPARTISAN                              BALLOTS CAST - NONPARTISAN            Precinct 206                                           00 
00080010007000000000000000000000000000000000000000000000000000000000000000000000000000000000000000000NON       BALLOTS CAST - NONPARTISAN                              BALLOTS CAST - NONPARTISAN            Precinct 207                                           00 
00080010008000000000000000000000000000000000000000000000000000000000000000000000000000000000000000000NON       BALLOTS CAST - NONPARTISAN                              BALLOTS CAST - NONPARTISAN            Precinct 208                                           00 
00080010009000000000000000000000000000000000000000000000000000000000000000000000000000000000000000000NON       BALLOTS CAST - NONPARTISAN                              BALLOTS CAST - NONPARTISAN            Precinct 309                                           00 
00080010010000000000000000000000000000000000000000000000000000000000000000000000000000000000000000000NON       BALLOTS CAST - NONPARTISAN                              BALLOTS CAST - NONPARTISAN            Precinct 310                                           00 
00080010011000000000000000000000000000000000000000000000000000000000000000000000000000000000000000000NON       BALLOTS CAST - NONPARTISAN                              BALLOTS CAST - NONPARTISAN            Precinct 311                                           00 
00080010012000000000000000000000000000000000000000000000000000000000000000000000000000000000000000000NON       BALLOTS CAST - NONPARTISAN                              BALLOTS CAST - NONPARTISAN            Precinct 412                                           00 
00080010013000000000000000000000000000000000000000000000000000000000000000000000000000000000000000000NON       BALLOTS CAST - NONPARTISAN                              BALLOTS CAST - NONPARTISAN            Precinct 413                                           00 
00080010014000000000000000000000000000000000000000000000000000000000000000000000000000000000000000000NON       BALLOTS CAST - NONPARTISAN                              BALLOTS CAST - NONPARTISAN            Precinct 414                                           00 
00080010015000000000000000000000000000000000000000000000000000000000000000000000000000000000000000000NON       BALLOTS CAST - NONPARTISAN                              BALLOTS CAST - NONPARTISAN            Precinct 415                                           00 
00090010001000000000000000000000000000000000000000000000000000000000000000000000000000000000000000000          BALLOTS CAST - BLANK                                    BALLOTS CAST - BLANK                  Precinct 101                                           00 
00090010002000000000000000000000000000000000000000000000000000000000000000000000000000000000000000000          BALLOTS CAST - BLANK                                    BALLOTS CAST - BLANK                  Precinct 102                                           00 
00090010003000000000000000000000000000000000000000000000000000000000000000000000000000000000000000000          BALLOTS CAST - BLANK                                    BALLOTS CAST - BLANK                  Precinct 103                                           00 
00090010004000000000000000000000000000000000000000000000000000000000000000000000000000000000000000000          BALLOTS CAST - BLANK                                    BALLOTS CAST - BLANK                  Precinct 104                                           00 
00090010005000001000000000000000001000000000000000000000000000000000000000000000000000000000000000000          BALLOTS CAST - BLANK                                    BALLOTS CAST - BLANK                  Precinct 205                                           00 
00090010006000000000000000000000000000000000000000000000000000000000000000000000000000000000000000000          BALLOTS CAST - BLANK                                    BALLOTS CAST - BLANK                  Precinct 206                                           00 
00090010007000000000000000000000000000000000000000000000000000000000000000000000000000000000000000000          BALLOTS CAST - BLANK                                    BALLOTS CAST - BLANK                  Precinct 207                                           00 
00090010008000000000000000000000000000000000000000000000000000000000000000000000000000000000000000000          BALLOTS CAST - BLANK                                    BALLOTS CAST - BLANK                  Precinct 208                                           00 
00090010009000000000000000000000000000000000000000000000000000000000000000000000000000000000000000000          BALLOTS CAST - BLANK                                    BALLOTS CAST - BLANK                  Precinct 309                                           00 
00090010010000000000000000000000000000000000000000000000000000000000000000000000000000000000000000000          BALLOTS CAST - BLANK                                    BALLOTS CAST - BLANK                  Precinct 310                                           00 
00090010011000000000000000000000000000000000000000000000000000000000000000000000000000000000000000000          BALLOTS CAST - BLANK                                    BALLOTS CAST - BLANK                  Precinct 311                                           00 
00090010012000000000000000000000000000000000000000000000000000000000000000000000000000000000000000000          BALLOTS CAST - BLANK                                    BALLOTS CAST - BLANK                  Precinct 412                                           00 
00090010013000000000000000000000000000000000000000000000000000000000000000000000000000000000000000000          BALLOTS CAST - BLANK                                    BALLOTS CAST - BLANK                  Precinct 413                                           00 
00090010014000000000000000000000000000000000000000000000000000000000000000000000000000000000000000000          BALLOTS CAST - BLANK                                    BALLOTS CAST - BLANK                  Precinct 414                                           00 
00090010015000000000000000000000000000000000000000000000000000000000000000000000000000000000000000000          BALLOTS CAST - BLANK                                    BALLOTS CAST - BLANK                  Precinct 415                                           00 
00100010001000111000004000047000060000000000000000000000000000000000000000000000000000000000000000000REP       REP Attorney General                                    Ken Paxton                            Precinct 101                                           01 
00100010002000111000003000046000062000000000000000000000000000000000000000000000000000000000000000000REP       REP Attorney General                                    Ken Paxton                            Precinct 102                                           01 
00100010003000173000012000080000081000000000000000000000000000000000000000000000000000000000000000000REP       REP Attorney General                                    Ken Paxton                            Precinct 103                                           01 
00100010004000097000004000036000057000000000000000000000000000000000000000000000000000000000000000000REP       REP Attorney General                                    Ken Paxton                            Precinct 104                                           01 
00100010005000281000013000119000149000000000000000000000000000000000000000000000000000000000000000000REP       REP Attorney General                                    Ken Paxton                            Precinct 205                                           01 
00100010006000135000005000027000103000000000000000000000000000000000000000000000000000000000000000000REP       REP Attorney General                                    Ken Paxton                            Precinct 206                                           01 
00100010007000090000007000012000071000000000000000000000000000000000000000000000000000000000000000000REP       REP Attorney General                                    Ken Paxton                            Precinct 207                                           01 
00100010008000078000005000011000062000000000000000000000000000000000000000000000000000000000000000000REP       REP Attorney General                                    Ken Paxton                            Precinct 208                                           01 
00100010009000084000004000014000066000000000000000000000000000000000000000000000000000000000000000000REP       REP Attorney General                                    Ken Paxton                            Precinct 309                                           01 
00100010010000180000008000022000150000000000000000000000000000000000000000000000000000000000000000000REP       REP Attorney General                                    Ken Paxton                            Precinct 310                                           01 
00100010011000036000004000007000025000000000000000000000000000000000000000000000000000000000000000000REP       REP Attorney General                                    Ken Paxton                            Precinct 311                                           01 
00100010012000050000003000002000045000000000000000000000000000000000000000000000000000000000000000000REP       REP Attorney General                                    Ken Paxton                            Precinct 412                                           01 
00100010013000144000013000013000118000000000000000000000000000000000000000000000000000000000000000000REP       REP Attorney General                                    Ken Paxton                            Precinct 413                                           01 
00100010014000073000006000013000054000000000000000000000000000000000000000000000000000000000000000000REP       REP Attorney General                                    Ken Paxton                            Precinct 414                                           01 
00100010015000092000008000001000083000000000000000000000000000000000000000000000000000000000000000000REP       REP Attorney General                                    Ken Paxton                            Precinct 415                                           01 
00100020001000036000004000018000014000000000000000000000000000000000000000000000000000000000000000000REP       REP Attorney General                                    George P. Bush                        Precinct 101                                           01 
00100020002000030000002000010000018000000000000000000000000000000000000000000000000000000000000000000REP       REP Attorney General                                    George P. Bush                        Precinct 102                                           01 
00100020003000050000002000018000030000000000000000000000000000000000000000000000000000000000000000000REP       REP Attorney General                                    George P. Bush                        Precinct 103                                           01 
00100020004000018000004000007000007000000000000000000000000000000000000000000000000000000000000000000REP       REP Attorney General                                    George P. Bush                        Precinct 104                                           01 
00100020005000067000005000031000031000000000000000000000000000000000000000000000000000000000000000000REP       REP Attorney General                                    George P. Bush                        Precinct 205                                           01 
00100020006000040000000000008000032000000000000000000000000000000000000000000000000000000000000000000REP       REP Attorney General                                    George P. Bush                        Precinct 206                                           01 
00100020007000035000003000003000029000000000000000000000000000000000000000000000000000000000000000000REP       REP Attorney General                                    George P. Bush                        Precinct 207                                           01 
00100020008000028000002000005000021000000000000000000000000000000000000000000000000000000000000000000REP       REP Attorney General                                    George P. Bush                        Precinct 208                                           01 
00100020009000021000000000003000018000000000000000000000000000000000000000000000000000000000000000000REP       REP Attorney General                                    George P. Bush                        Precinct 309                                           01 
00100020010000037000005000002000030000000000000000000000000000000000000000000000000000000000000000000REP       REP Attorney General                                    George P. Bush                        Precinct 310                                           01 
00100020011000016000002000001000013000000000000000000000000000000000000000000000000000000000000000000REP       REP Attorney General                                    George P. Bush                        Precinct 311                                           01 
00100020012000011000001000000000010000000000000000000000000000000000000000000000000000000000000000000REP       REP Attorney General                                    George P. Bush                        Precinct 412                                           01 
00100020013000036000002000006000028000000000000000000000000000000000000000000000000000000000000000000REP       REP Attorney General                                    George P. Bush                        Precinct 413                                           01 
00100020014000016000002000002000012000000000000000000000000000000000000000000000000000000000000000000REP       REP Attorney General                                    George P. Bush                        Precinct 414                                           01 
00100020015000024000001000000000023000000000000000000000000000000000000000000000000000000000000000000REP       REP Attorney General                                    George P. Bush                        Precinct 415                                           01 
00100030001000000000000000000000000000000000000000000000000000000000000000000000000000000000000000000          REP Attorney General                                    OVER VOTES                            Precinct 101                                           01 
00100030002000000000000000000000000000000000000000000000000000000000000000000000000000000000000000000          REP Attorney General                                    OVER VOTES                            Precinct 102                                           01 
00100030003000000000000000000000000000000000000000000000000000000000000000000000000000000000000000000          REP Attorney General                                    OVER VOTES                            Precinct 103                                           01 
00100030004000000000000000000000000000000000000000000000000000000000000000000000000000000000000000000          REP Attorney General                                    OVER VOTES                            Precinct 104                                           01 
00100030005000000000000000000000000000000000000000000000000000000000000000000000000000000000000000000          REP Attorney General                                    OVER VOTES                            Precinct 205                                           01 
00100030006000000000000000000000000000000000000000000000000000000000000000000000000000000000000000000          REP Attorney General                                    OVER VOTES                            Precinct 206                                           01 
00100030007000000000000000000000000000000000000000000000000000000000000000000000000000000000000000000          REP Attorney General                                    OVER VOTES                            Precinct 207                                           01 
00100030008000000000000000000000000000000000000000000000000000000000000000000000000000000000000000000          REP Attorney General                                    OVER VOTES                            Precinct 208                                           01 
00100030009000000000000000000000000000000000000000000000000000000000000000000000000000000000000000000          REP Attorney General                                    OVER VOTES                            Precinct 309                                           01 
00100030010000000000000000000000000000000000000000000000000000000000000000000000000000000000000000000          REP Attorney General                                    OVER VOTES                            Precinct 310                                           01 
00100030011000000000000000000000000000000000000000000000000000000000000000000000000000000000000000000          REP Attorney General                                    OVER VOTES                            Precinct 311                                           01 
00100030012000000000000000000000000000000000000000000000000000000000000000000000000000000000000000000          REP Attorney General                                    OVER VOTES                            Precinct 412                                           01 
00100030013000000000000000000000000000000000000000000000000000000000000000000000000000000000000000000          REP Attorney General                                    OVER VOTES                            Precinct 413                                           01 
00100030014000000000000000000000000000000000000000000000000000000000000000000000000000000000000000000          REP Attorney General                                    OVER VOTES                            Precinct 414                                           01 
00100030015000000000000000000000000000000000000000000000000000000000000000000000000000000000000000000          REP Attorney General                                    OVER VOTES                            Precinct 415                                           01 
00100040001000002000000000001000001000000000000000000000000000000000000000000000000000000000000000000          REP Attorney General                                    UNDER VOTES                           Precinct 101                                           01 
00100040002000003000000000001000002000000000000000000000000000000000000000000000000000000000000000000          REP Attorney General                                    UNDER VOTES                           Precinct 102                                           01 
00100040003000000000000000000000000000000000000000000000000000000000000000000000000000000000000000000          REP Attorney General                                    UNDER VOTES                           Precinct 103                                           01 
00100040004000001000000000000000001000000000000000000000000000000000000000000000000000000000000000000          REP Attorney General                                    UNDER VOTES                           Precinct 104                                           01 
00100040005000003000001000000000002000000000000000000000000000000000000000000000000000000000000000000          REP Attorney General                                    UNDER VOTES                           Precinct 205                                           01 
00100040006000001000000000000000001000000000000000000000000000000000000000000000000000000000000000000          REP Attorney General                                    UNDER VOTES                           Precinct 206                                           01 
00100040007000001000000000000000001000000000000000000000000000000000000000000000000000000000000000000          REP Attorney General                                    UNDER VOTES                           Precinct 207                                           01 
00100040008000003000000000000000003000000000000000000000000000000000000000000000000000000000000000000          REP Attorney General                                    UNDER VOTES                           Precinct 208                                           01 
00100040009000001000001000000000000000000000000000000000000000000000000000000000000000000000000000000          REP Attorney General                                    UNDER VOTES                           Precinct 309                                           01 
00100040010000003000001000000000002000000000000000000000000000000000000000000000000000000000000000000          REP Attorney General                                    UNDER VOTES                           Precinct 310                                           01 
00100040011000001000001000000000000000000000000000000000000000000000000000000000000000000000000000000          REP Attorney General                                    UNDER VOTES                           Precinct 311                                           01 
00100040012000000000000000000000000000000000000000000000000000000000000000000000000000000000000000000          REP Attorney General                                    UNDER VOTES                           Precinct 412                                           01 
00100040013000003000000000002000001000000000000000000000000000000000000000000000000000000000000000000          REP Attorney General                                    UNDER VOTES                           Precinct 413                                           01 
00100040014000000000000000000000000000000000000000000000000000000000000000000000000000000000000000000          REP Attorney General                                    UNDER VOTES                           Precinct 414                                           01 
00100040015000001000000000000000001000000000000000000000000000000000000000000000000000000000000000000          REP Attorney General                                    UNDER VOTES                           Precinct 415                                           01 
00110010001000098000005000047000046000000000000000000000000000000000000000000000000000000000000000000REP       REP Comm General Land Office                            Dawn Buckingham                       Precinct 101                                           01 
00110010002000089000003000036000050000000000000000000000000000000000000000000000000000000000000000000REP       REP Comm General Land Office                            Dawn Buckingham                       Precinct 102                                           01 
00110010003000163000013000073000077000000000000000000000000000000000000000000000000000000000000000000REP       REP Comm General Land Office                            Dawn Buckingham                       Precinct 103                                           01 
00110010004000078000003000029000046000000000000000000000000000000000000000000000000000000000000000000REP       REP Comm General Land Office                            Dawn Buckingham                       Precinct 104                                           01 
00110010005000257000014000113000130000000000000000000000000000000000000000000000000000000000000000000REP       REP Comm General Land Office                            Dawn Buckingham                       Precinct 205                                           01 
00110010006000124000004000028000092000000000000000000000000000000000000000000000000000000000000000000REP       REP Comm General Land Office                            Dawn Buckingham                       Precinct 206                                           01 
00110010007000082000004000013000065000000000000000000000000000000000000000000000000000000000000000000REP       REP Comm General Land Office                            Dawn Buckingham                       Precinct 207                                           01 
00110010008000075000006000015000054000000000000000000000000000000000000000000000000000000000000000000REP       REP Comm General Land Office                            Dawn Buckingham                       Precinct 208                                           01 
00110010009000077000004000015000058000000000000000000000000000000000000000000000000000000000000000000REP       REP Comm General Land Office                            Dawn Buckingham                       Precinct 309                                           01 
00110010010000161000007000021000133000000000000000000000000000000000000000000000000000000000000000000REP       REP Comm General Land Office                            Dawn Buckingham                       Precinct 310                                           01 
00110010011000038000003000008000027000000000000000000000000000000000000000000000000000000000000000000REP       REP Comm General Land Office                            Dawn Buckingham                       Precinct 311                                           01 
00110010012000026000002000001000023000000000000000000000000000000000000000000000000000000000000000000REP       REP Comm General Land Office                            Dawn Buckingham                       Precinct 412                                           01 
00110010013000117000007000008000102000000000000000000000000000000000000000000000000000000000000000000REP       REP Comm General Land Office                            Dawn Buckingham                       Precinct 413                                           01 
00110010014000060000002000012000046000000000000000000000000000000000000000000000000000000000000000000REP       REP Comm General Land Office                            Dawn Buckingham                       Precinct 414                                           01 
00110010015000083000009000000000074000000000000000000000000000000000000000000000000000000000000000000REP       REP Comm General Land Office                            Dawn Buckingham                       Precinct 415                                           01 
00110020001000039000003000013000023000000000000000000000000000000000000000000000000000000000000000000REP       REP Comm General Land Office                            Tim Westley                           Precinct 101                                           01 
00110020002000048000002000017000029000000000000000000000000000000000000000000000000000000000000000000REP       REP Comm General Land Office                            Tim Westley                           Precinct 102                                           01 
00110020003000045000001000017000027000000000000000000000000000000000000000000000000000000000000000000REP       REP Comm General Land Office                            Tim Westley                           Precinct 103                                           01 
00110020004000025000004000012000009000000000000000000000000000000000000000000000000000000000000000000REP       REP Comm General Land Office                            Tim Westley                           Precinct 104                                           01 
00110020005000062000004000027000031000000000000000000000000000000000000000000000000000000000000000000REP       REP Comm General Land Office                            Tim Westley                           Precinct 205                                           01 
00110020006000041000000000004000037000000000000000000000000000000000000000000000000000000000000000000REP       REP Comm General Land Office                            Tim Westley                           Precinct 206                                           01 
00110020007000029000005000001000023000000000000000000000000000000000000000000000000000000000000000000REP       REP Comm General Land Office                            Tim Westley                           Precinct 207                                           01 
00110020008000023000001000000000022000000000000000000000000000000000000000000000000000000000000000000REP       REP Comm General Land Office                            Tim Westley                           Precinct 208                                           01 
00110020009000021000001000002000018000000000000000000000000000000000000000000000000000000000000000000REP       REP Comm General Land Office                            Tim Westley                           Precinct 309                                           01 
00110020010000045000005000001000039000000000000000000000000000000000000000000000000000000000000000000REP       REP Comm General Land Office                            Tim Westley                           Precinct 310                                           01 
00110020011000007000002000000000005000000000000000000000000000000000000000000000000000000000000000000REP       REP Comm General Land Office                            Tim Westley                           Precinct 311                                           01 
00110020012000028000002000001000025000000000000000000000000000000000000000000000000000000000000000000REP       REP Comm General Land Office                            Tim Westley                           Precinct 412                                           01 
00110020013000046000007000011000028000000000000000000000000000000000000000000000000000000000000000000REP       REP Comm General Land Office                            Tim Westley                           Precinct 413                                           01 
00110020014000022000006000002000014000000000000000000000000000000000000000000000000000000000000000000REP       REP Comm General Land Office                            Tim Westley                           Precinct 414                                           01 
00110020015000024000000000000000024000000000000000000000000000000000000000000000000000000000000000000REP       REP Comm General Land Office                            Tim Westley                           Precinct 415                                           01 
00110030001000000000000000000000000000000000000000000000000000000000000000000000000000000000000000000          REP Comm General Land Office                            OVER VOTES                            Precinct 101                                           01 
00110030002000000000000000000000000000000000000000000000000000000000000000000000000000000000000000000          REP Comm General Land Office                            OVER VOTES                            Precinct 102                                           01 
00110030003000000000000000000000000000000000000000000000000000000000000000000000000000000000000000000          REP Comm General Land Office                            OVER VOTES                            Precinct 103                                           01 
00110030004000000000000000000000000000000000000000000000000000000000000000000000000000000000000000000          REP Comm General Land Office                            OVER VOTES                            Precinct 104                                           01 
00110030005000000000000000000000000000000000000000000000000000000000000000000000000000000000000000000          REP Comm General Land Office                            OVER VOTES                            Precinct 205                                           01 
00110030006000000000000000000000000000000000000000000000000000000000000000000000000000000000000000000          REP Comm General Land Office                            OVER VOTES                            Precinct 206                                           01 
00110030007000000000000000000000000000000000000000000000000000000000000000000000000000000000000000000          REP Comm General Land Office                            OVER VOTES                            Precinct 207                                           01 
00110030008000000000000000000000000000000000000000000000000000000000000000000000000000000000000000000          REP Comm General Land Office                            OVER VOTES                            Precinct 208                                           01 
00110030009000000000000000000000000000000000000000000000000000000000000000000000000000000000000000000          REP Comm General Land Office                            OVER VOTES                            Precinct 309                                           01 
00110030010000000000000000000000000000000000000000000000000000000000000000000000000000000000000000000          REP Comm General Land Office                            OVER VOTES                            Precinct 310                                           01 
00110030011000000000000000000000000000000000000000000000000000000000000000000000000000000000000000000          REP Comm General Land Office                            OVER VOTES                            Precinct 311                                           01 
00110030012000000000000000000000000000000000000000000000000000000000000000000000000000000000000000000          REP Comm General Land Office                            OVER VOTES                            Precinct 412                                           01 
00110030013000000000000000000000000000000000000000000000000000000000000000000000000000000000000000000          REP Comm General Land Office                            OVER VOTES                            Precinct 413                                           01 
00110030014000000000000000000000000000000000000000000000000000000000000000000000000000000000000000000          REP Comm General Land Office                            OVER VOTES                            Precinct 414                                           01 
00110030015000000000000000000000000000000000000000000000000000000000000000000000000000000000000000000          REP Comm General Land Office                            OVER VOTES                            Precinct 415                                           01 
00110040001000012000000000006000006000000000000000000000000000000000000000000000000000000000000000000          REP Comm General Land Office                            UNDER VOTES                           Precinct 101                                           01 
00110040002000006000000000003000003000000000000000000000000000000000000000000000000000000000000000000          REP Comm General Land Office                            UNDER VOTES                           Precinct 102                                           01 
00110040003000015000000000008000007000000000000000000000000000000000000000000000000000000000000000000          REP Comm General Land Office                            UNDER VOTES                           Precinct 103                                           01 
00110040004000013000001000002000010000000000000000000000000000000000000000000000000000000000000000000          REP Comm General Land Office                            UNDER VOTES                           Precinct 104                                           01 
00110040005000032000001000010000021000000000000000000000000000000000000000000000000000000000000000000          REP Comm General Land Office                            UNDER VOTES                           Precinct 205                                           01 
00110040006000011000001000003000007000000000000000000000000000000000000000000000000000000000000000000          REP Comm General Land Office                            UNDER VOTES                           Precinct 206                                           01 
00110040007000015000001000001000013000000000000000000000000000000000000000000000000000000000000000000          REP Comm General Land Office                            UNDER VOTES                           Precinct 207                                           01 
00110040008000011000000000001000010000000000000000000000000000000000000000000000000000000000000000000          REP Comm General Land Office                            UNDER VOTES                           Precinct 208                                           01 
00110040009000008000000000000000008000000000000000000000000000000000000000000000000000000000000000000          REP Comm General Land Office                            UNDER VOTES                           Precinct 309                                           01 
00110040010000014000002000002000010000000000000000000000000000000000000000000000000000000000000000000          REP Comm General Land Office                            UNDER VOTES                           Precinct 310                                           01 
00110040011000008000002000000000006000000000000000000000000000000000000000000000000000000000000000000          REP Comm General Land Office                            UNDER VOTES                           Precinct 311                                           01 
00110040012000007000000000000000007000000000000000000000000000000000000000000000000000000000000000000          REP Comm General Land Office                            UNDER VOTES                           Precinct 412                                           01 
00110040013000020000001000002000017000000000000000000000000000000000000000000000000000000000000000000          REP Comm General Land Office                            UNDER VOTES                           Precinct 413                                           01 
00110040014000007000000000001000006000000000000000000000000000000000000000000000000000000000000000000          REP Comm General Land Office                            UNDER VOTES                           Precinct 414                                           01 
00110040015000010000000000001000009000000000000000000000000000000000000000000000000000000000000000000          REP Comm General Land Office                            UNDER VOTES                           Precinct 415                                           01 
00120010001000101000005000043000053000000000000000000000000000000000000000000000000000000000000000000REP       REP Railroad Commissioner                               Wayne Christian                       Precinct 101                                           01 
00120010002000078000003000037000038000000000000000000000000000000000000000000000000000000000000000000REP       REP Railroad Commissioner                               Wayne Christian                       Precinct 102                                           01 
00120010003000139000011000064000064000000000000000000000000000000000000000000000000000000000000000000REP       REP Railroad Commissioner                               Wayne Christian                       Precinct 103                                           01 
00120010004000071000006000031000034000000000000000000000000000000000000000000000000000000000000000000REP       REP Railroad Commissioner                               Wayne Christian                       Precinct 104                                           01 
00120010005000233000014000112000107000000000000000000000000000000000000000000000000000000000000000000REP       REP Railroad Commissioner                               Wayne Christian                       Precinct 205                                           01 
00120010006000104000002000020000082000000000000000000000000000000000000000000000000000000000000000000REP       REP Railroad Commissioner                               Wayne Christian                       Precinct 206                                           01 
00120010007000081000009000008000064000000000000000000000000000000000000000000000000000000000000000000REP       REP Railroad Commissioner                               Wayne Christian                       Precinct 207                                           01 
00120010008000059000004000007000048000000000000000000000000000000000000000000000000000000000000000000REP       REP Railroad Commissioner                               Wayne Christian                       Precinct 208                                           01 
00120010009000063000004000014000045000000000000000000000000000000000000000000000000000000000000000000REP       REP Railroad Commissioner                               Wayne Christian                       Precinct 309                                           01 
00120010010000150000012000019000119000000000000000000000000000000000000000000000000000000000000000000REP       REP Railroad Commissioner                               Wayne Christian                       Precinct 310                                           01 
00120010011000027000001000007000019000000000000000000000000000000000000000000000000000000000000000000REP       REP Railroad Commissioner                               Wayne Christian                       Precinct 311                                           01 
00120010012000036000004000002000030000000000000000000000000000000000000000000000000000000000000000000REP       REP Railroad Commissioner                               Wayne Christian                       Precinct 412                                           01 
00120010013000117000008000014000095000000000000000000000000000000000000000000000000000000000000000000REP       REP Railroad Commissioner                               Wayne Christian                       Precinct 413                                           01 
00120010014000059000006000013000040000000000000000000000000000000000000000000000000000000000000000000REP       REP Railroad Commissioner                               Wayne Christian                       Precinct 414                                           01 
00120010015000069000009000001000059000000000000000000000000000000000000000000000000000000000000000000REP       REP Railroad Commissioner                               Wayne Christian                       Precinct 415                                           01 
00120020001000045000003000021000021000000000000000000000000000000000000000000000000000000000000000000REP       REP Railroad Commissioner                               Sarah Stogner                         Precinct 101                                           01 
00120020002000059000002000015000042000000000000000000000000000000000000000000000000000000000000000000REP       REP Railroad Commissioner                               Sarah Stogner                         Precinct 102                                           01 
00120020003000075000003000029000043000000000000000000000000000000000000000000000000000000000000000000REP       REP Railroad Commissioner                               Sarah Stogner                         Precinct 103                                           01 
00120020004000031000001000009000021000000000000000000000000000000000000000000000000000000000000000000REP       REP Railroad Commissioner                               Sarah Stogner                         Precinct 104                                           01 
00120020005000098000004000035000059000000000000000000000000000000000000000000000000000000000000000000REP       REP Railroad Commissioner                               Sarah Stogner                         Precinct 205                                           01 
00120020006000062000002000012000048000000000000000000000000000000000000000000000000000000000000000000REP       REP Railroad Commissioner                               Sarah Stogner                         Precinct 206                                           01 
00120020007000036000000000006000030000000000000000000000000000000000000000000000000000000000000000000REP       REP Railroad Commissioner                               Sarah Stogner                         Precinct 207                                           01 
00120020008000044000003000009000032000000000000000000000000000000000000000000000000000000000000000000REP       REP Railroad Commissioner                               Sarah Stogner                         Precinct 208                                           01 
00120020009000036000001000003000032000000000000000000000000000000000000000000000000000000000000000000REP       REP Railroad Commissioner                               Sarah Stogner                         Precinct 309                                           01 
00120020010000061000000000004000057000000000000000000000000000000000000000000000000000000000000000000REP       REP Railroad Commissioner                               Sarah Stogner                         Precinct 310                                           01 
00120020011000019000004000001000014000000000000000000000000000000000000000000000000000000000000000000REP       REP Railroad Commissioner                               Sarah Stogner                         Precinct 311                                           01 
00120020012000023000000000000000023000000000000000000000000000000000000000000000000000000000000000000REP       REP Railroad Commissioner                               Sarah Stogner                         Precinct 412                                           01 
00120020013000055000005000007000043000000000000000000000000000000000000000000000000000000000000000000REP       REP Railroad Commissioner                               Sarah Stogner                         Precinct 413                                           01 
00120020014000026000002000002000022000000000000000000000000000000000000000000000000000000000000000000REP       REP Railroad Commissioner                               Sarah Stogner                         Precinct 414                                           01 
00120020015000041000000000000000041000000000000000000000000000000000000000000000000000000000000000000REP       REP Railroad Commissioner                               Sarah Stogner                         Precinct 415                                           01 
00120030001000000000000000000000000000000000000000000000000000000000000000000000000000000000000000000          REP Railroad Commissioner                               OVER VOTES                            Precinct 101                                           01 
00120030002000000000000000000000000000000000000000000000000000000000000000000000000000000000000000000          REP Railroad Commissioner                               OVER VOTES                            Precinct 102                                           01 
00120030003000000000000000000000000000000000000000000000000000000000000000000000000000000000000000000          REP Railroad Commissioner                               OVER VOTES                            Precinct 103                                           01 
00120030004000000000000000000000000000000000000000000000000000000000000000000000000000000000000000000          REP Railroad Commissioner                               OVER VOTES                            Precinct 104                                           01 
00120030005000000000000000000000000000000000000000000000000000000000000000000000000000000000000000000          REP Railroad Commissioner                               OVER VOTES                            Precinct 205                                           01 
00120030006000000000000000000000000000000000000000000000000000000000000000000000000000000000000000000          REP Railroad Commissioner                               OVER VOTES                            Precinct 206                                           01 
00120030007000000000000000000000000000000000000000000000000000000000000000000000000000000000000000000          REP Railroad Commissioner                               OVER VOTES                            Precinct 207                                           01 
00120030008000000000000000000000000000000000000000000000000000000000000000000000000000000000000000000          REP Railroad Commissioner                               OVER VOTES                            Precinct 208                                           01 
00120030009000000000000000000000000000000000000000000000000000000000000000000000000000000000000000000          REP Railroad Commissioner                               OVER VOTES                            Precinct 309                                           01 
00120030010000000000000000000000000000000000000000000000000000000000000000000000000000000000000000000          REP Railroad Commissioner                               OVER VOTES                            Precinct 310                                           01 
00120030011000000000000000000000000000000000000000000000000000000000000000000000000000000000000000000          REP Railroad Commissioner                               OVER VOTES                            Precinct 311                                           01 
00120030012000000000000000000000000000000000000000000000000000000000000000000000000000000000000000000          REP Railroad Commissioner                               OVER VOTES                            Precinct 412                                           01 
00120030013000000000000000000000000000000000000000000000000000000000000000000000000000000000000000000          REP Railroad Commissioner                               OVER VOTES                            Precinct 413                                           01 
00120030014000000000000000000000000000000000000000000000000000000000000000000000000000000000000000000          REP Railroad Commissioner                               OVER VOTES                            Precinct 414                                           01 
00120030015000000000000000000000000000000000000000000000000000000000000000000000000000000000000000000          REP Railroad Commissioner                               OVER VOTES                            Precinct 415                                           01 
00120040001000003000000000002000001000000000000000000000000000000000000000000000000000000000000000000          REP Railroad Commissioner                               UNDER VOTES                           Precinct 101                                           01 
00120040002000006000000000004000002000000000000000000000000000000000000000000000000000000000000000000          REP Railroad Commissioner                               UNDER VOTES                           Precinct 102                                           01 
00120040003000009000000000005000004000000000000000000000000000000000000000000000000000000000000000000          REP Railroad Commissioner                               UNDER VOTES                           Precinct 103                                           01 
00120040004000014000001000003000010000000000000000000000000000000000000000000000000000000000000000000          REP Railroad Commissioner                               UNDER VOTES                           Precinct 104                                           01 
00120040005000020000001000003000016000000000000000000000000000000000000000000000000000000000000000000          REP Railroad Commissioner                               UNDER VOTES                           Precinct 205                                           01 
00120040006000010000001000003000006000000000000000000000000000000000000000000000000000000000000000000          REP Railroad Commissioner                               UNDER VOTES                           Precinct 206                                           01 
00120040007000009000001000001000007000000000000000000000000000000000000000000000000000000000000000000          REP Railroad Commissioner                               UNDER VOTES                           Precinct 207                                           01 
00120040008000006000000000000000006000000000000000000000000000000000000000000000000000000000000000000          REP Railroad Commissioner                               UNDER VOTES                           Precinct 208                                           01 
00120040009000007000000000000000007000000000000000000000000000000000000000000000000000000000000000000          REP Railroad Commissioner                               UNDER VOTES                           Precinct 309                                           01 
00120040010000009000002000001000006000000000000000000000000000000000000000000000000000000000000000000          REP Railroad Commissioner                               UNDER VOTES                           Precinct 310                                           01 
00120040011000007000002000000000005000000000000000000000000000000000000000000000000000000000000000000          REP Railroad Commissioner                               UNDER VOTES                           Precinct 311                                           01 
00120040012000002000000000000000002000000000000000000000000000000000000000000000000000000000000000000          REP Railroad Commissioner                               UNDER VOTES                           Precinct 412                                           01 
00120040013000011000002000000000009000000000000000000000000000000000000000000000000000000000000000000          REP Railroad Commissioner                               UNDER VOTES                           Precinct 413                                           01 
00120040014000004000000000000000004000000000000000000000000000000000000000000000000000000000000000000          REP Railroad Commissioner                               UNDER VOTES                           Precinct 414                                           01 
00120040015000007000000000000000007000000000000000000000000000000000000000000000000000000000000000000          REP Railroad Commissioner                               UNDER VOTES                           Precinct 415                                           01 
00130010001000098000007000046000045000000000000000000000000000000000000000000000000000000000000000000REP       REP State Representative, Dist 85                       Stan Kitzman                          Precinct 101                                           01 
00130010002000097000003000046000048000000000000000000000000000000000000000000000000000000000000000000REP       REP State Representative, Dist 85                       Stan Kitzman                          Precinct 102                                           01 
00130010003000139000010000057000072000000000000000000000000000000000000000000000000000000000000000000REP       REP State Representative, Dist 85                       Stan Kitzman                          Precinct 103                                           01 
00130010004000085000004000028000053000000000000000000000000000000000000000000000000000000000000000000REP       REP State Representative, Dist 85                       Stan Kitzman                          Precinct 104                                           01 
00130010005000236000014000103000119000000000000000000000000000000000000000000000000000000000000000000REP       REP State Representative, Dist 85                       Stan Kitzman                          Precinct 205                                           01 
00130010006000130000004000025000101000000000000000000000000000000000000000000000000000000000000000000REP       REP State Representative, Dist 85                       Stan Kitzman                          Precinct 206                                           01 
00130010007000102000008000013000081000000000000000000000000000000000000000000000000000000000000000000REP       REP State Representative, Dist 85                       Stan Kitzman                          Precinct 207                                           01 
00130010008000080000006000013000061000000000000000000000000000000000000000000000000000000000000000000REP       REP State Representative, Dist 85                       Stan Kitzman                          Precinct 208                                           01 
00130010009000076000004000013000059000000000000000000000000000000000000000000000000000000000000000000REP       REP State Representative, Dist 85                       Stan Kitzman                          Precinct 309                                           01 
00130010010000173000011000013000149000000000000000000000000000000000000000000000000000000000000000000REP       REP State Representative, Dist 85                       Stan Kitzman                          Precinct 310                                           01 
00130010011000040000007000005000028000000000000000000000000000000000000000000000000000000000000000000REP       REP State Representative, Dist 85                       Stan Kitzman                          Precinct 311                                           01 
00130010012000043000004000001000038000000000000000000000000000000000000000000000000000000000000000000REP       REP State Representative, Dist 85                       Stan Kitzman                          Precinct 412                                           01 
00130010013000140000011000017000112000000000000000000000000000000000000000000000000000000000000000000REP       REP State Representative, Dist 85                       Stan Kitzman                          Precinct 413                                           01 
00130010014000063000004000010000049000000000000000000000000000000000000000000000000000000000000000000REP       REP State Representative, Dist 85                       Stan Kitzman                          Precinct 414                                           01 
00130010015000064000003000000000061000000000000000000000000000000000000000000000000000000000000000000REP       REP State Representative, Dist 85                       Stan Kitzman                          Precinct 415                                           01 
00130020001000044000000000017000027000000000000000000000000000000000000000000000000000000000000000000REP       REP State Representative, Dist 85                       Phil W. Stephenson                    Precinct 101                                           01 
00130020002000042000000000010000032000000000000000000000000000000000000000000000000000000000000000000REP       REP State Representative, Dist 85                       Phil W. Stephenson                    Precinct 102                                           01 
00130020003000072000004000034000034000000000000000000000000000000000000000000000000000000000000000000REP       REP State Representative, Dist 85                       Phil W. Stephenson                    Precinct 103                                           01 
00130020004000025000003000012000010000000000000000000000000000000000000000000000000000000000000000000REP       REP State Representative, Dist 85                       Phil W. Stephenson                    Precinct 104                                           01 
00130020005000103000004000046000053000000000000000000000000000000000000000000000000000000000000000000REP       REP State Representative, Dist 85                       Phil W. Stephenson                    Precinct 205                                           01 
00130020006000040000001000009000030000000000000000000000000000000000000000000000000000000000000000000REP       REP State Representative, Dist 85                       Phil W. Stephenson                    Precinct 206                                           01 
00130020007000021000001000002000018000000000000000000000000000000000000000000000000000000000000000000REP       REP State Representative, Dist 85                       Phil W. Stephenson                    Precinct 207                                           01 
00130020008000022000001000003000018000000000000000000000000000000000000000000000000000000000000000000REP       REP State Representative, Dist 85                       Phil W. Stephenson                    Precinct 208                                           01 
00130020009000027000001000004000022000000000000000000000000000000000000000000000000000000000000000000REP       REP State Representative, Dist 85                       Phil W. Stephenson                    Precinct 309                                           01 
00130020010000044000003000011000030000000000000000000000000000000000000000000000000000000000000000000REP       REP State Representative, Dist 85                       Phil W. Stephenson                    Precinct 310                                           01 
00130020011000010000000000003000007000000000000000000000000000000000000000000000000000000000000000000REP       REP State Representative, Dist 85                       Phil W. Stephenson                    Precinct 311                                           01 
00130020012000015000000000001000014000000000000000000000000000000000000000000000000000000000000000000REP       REP State Representative, Dist 85                       Phil W. Stephenson                    Precinct 412                                           01 
00130020013000034000003000003000028000000000000000000000000000000000000000000000000000000000000000000REP       REP State Representative, Dist 85                       Phil W. Stephenson                    Precinct 413                                           01 
00130020014000022000003000004000015000000000000000000000000000000000000000000000000000000000000000000REP       REP State Representative, Dist 85                       Phil W. Stephenson                    Precinct 414                                           01 
00130020015000048000006000000000042000000000000000000000000000000000000000000000000000000000000000000REP       REP State Representative, Dist 85                       Phil W. Stephenson                    Precinct 415                                           01 
00130030001000000000000000000000000000000000000000000000000000000000000000000000000000000000000000000          REP State Representative, Dist 85                       OVER VOTES                            Precinct 101                                           01 
00130030002000000000000000000000000000000000000000000000000000000000000000000000000000000000000000000          REP State Representative, Dist 85                       OVER VOTES                            Precinct 102                                           01 
00130030003000000000000000000000000000000000000000000000000000000000000000000000000000000000000000000          REP State Representative, Dist 85                       OVER VOTES                            Precinct 103                                           01 
00130030004000000000000000000000000000000000000000000000000000000000000000000000000000000000000000000          REP State Representative, Dist 85                       OVER VOTES                            Precinct 104                                           01 
00130030005000000000000000000000000000000000000000000000000000000000000000000000000000000000000000000          REP State Representative, Dist 85                       OVER VOTES                            Precinct 205                                           01 
00130030006000000000000000000000000000000000000000000000000000000000000000000000000000000000000000000          REP State Representative, Dist 85                       OVER VOTES                            Precinct 206                                           01 
00130030007000000000000000000000000000000000000000000000000000000000000000000000000000000000000000000          REP State Representative, Dist 85                       OVER VOTES                            Precinct 207                                           01 
00130030008000000000000000000000000000000000000000000000000000000000000000000000000000000000000000000          REP State Representative, Dist 85                       OVER VOTES                            Precinct 208                                           01 
00130030009000000000000000000000000000000000000000000000000000000000000000000000000000000000000000000          REP State Representative, Dist 85                       OVER VOTES                            Precinct 309                                           01 
00130030010000000000000000000000000000000000000000000000000000000000000000000000000000000000000000000          REP State Representative, Dist 85                       OVER VOTES                            Precinct 310                                           01 
00130030011000000000000000000000000000000000000000000000000000000000000000000000000000000000000000000          REP State Representative, Dist 85                       OVER VOTES                            Precinct 311                                           01 
00130030012000000000000000000000000000000000000000000000000000000000000000000000000000000000000000000          REP State Representative, Dist 85                       OVER VOTES                            Precinct 412                                           01 
00130030013000000000000000000000000000000000000000000000000000000000000000000000000000000000000000000          REP State Representative, Dist 85                       OVER VOTES                            Precinct 413                                           01 
00130030014000000000000000000000000000000000000000000000000000000000000000000000000000000000000000000          REP State Representative, Dist 85                       OVER VOTES                            Precinct 414                                           01 
00130030015000000000000000000000000000000000000000000000000000000000000000000000000000000000000000000          REP State Representative, Dist 85                       OVER VOTES                            Precinct 415                                           01 
00130040001000007000001000003000003000000000000000000000000000000000000000000000000000000000000000000          REP State Representative, Dist 85                       UNDER VOTES                           Precinct 101                                           01 
00130040002000005000002000001000002000000000000000000000000000000000000000000000000000000000000000000          REP State Representative, Dist 85                       UNDER VOTES                           Precinct 102                                           01 
00130040003000012000000000007000005000000000000000000000000000000000000000000000000000000000000000000          REP State Representative, Dist 85                       UNDER VOTES                           Precinct 103                                           01 
00130040004000006000001000003000002000000000000000000000000000000000000000000000000000000000000000000          REP State Representative, Dist 85                       UNDER VOTES                           Precinct 104                                           01 
00130040005000012000001000001000010000000000000000000000000000000000000000000000000000000000000000000          REP State Representative, Dist 85                       UNDER VOTES                           Precinct 205                                           01 
00130040006000006000000000001000005000000000000000000000000000000000000000000000000000000000000000000          REP State Representative, Dist 85                       UNDER VOTES                           Precinct 206                                           01 
00130040007000003000001000000000002000000000000000000000000000000000000000000000000000000000000000000          REP State Representative, Dist 85                       UNDER VOTES                           Precinct 207                                           01 
00130040008000007000000000000000007000000000000000000000000000000000000000000000000000000000000000000          REP State Representative, Dist 85                       UNDER VOTES                           Precinct 208                                           01 
00130040009000003000000000000000003000000000000000000000000000000000000000000000000000000000000000000          REP State Representative, Dist 85                       UNDER VOTES                           Precinct 309                                           01 
00130040010000003000000000000000003000000000000000000000000000000000000000000000000000000000000000000          REP State Representative, Dist 85                       UNDER VOTES                           Precinct 310                                           01 
00130040011000003000000000000000003000000000000000000000000000000000000000000000000000000000000000000          REP State Representative, Dist 85                       UNDER VOTES                           Precinct 311                                           01 
00130040012000003000000000000000003000000000000000000000000000000000000000000000000000000000000000000          REP State Representative, Dist 85                       UNDER VOTES                           Precinct 412                                           01 
00130040013000009000001000001000007000000000000000000000000000000000000000000000000000000000000000000          REP State Representative, Dist 85                       UNDER VOTES                           Precinct 413                                           01 
00130040014000004000001000001000002000000000000000000000000000000000000000000000000000000000000000000          REP State Representative, Dist 85                       UNDER VOTES                           Precinct 414                                           01 
00130040015000005000000000001000004000000000000000000000000000000000000000000000000000000000000000000          REP State Representative, Dist 85                       UNDER VOTES                           Precinct 415                                           01 
00140010001000008000002000003000003000000000000000000000000000000000000000000000000000000000000000000DEM       DEM Lieutenant Governor                                 Michelle Beckley                      Precinct 101                                           01 
00140010002000011000002000002000007000000000000000000000000000000000000000000000000000000000000000000DEM       DEM Lieutenant Governor                                 Michelle Beckley                      Precinct 102                                           01 
