00010010001000000000000000000000000000000000000000000000000000000000000000000000000000000000000000000          REGISTERED VOTERS - TOTAL                               REGISTERED VOTERS - TOTAL             101 - Columbus/Glidden                                 00 
00010010002000000000000000000000000000000000000000000000000000000000000000000000000000000000000000000          REGISTERED VOTERS - TOTAL                               REGISTERED VOTERS - TOTAL             102 - Rock Island                                      00 
00010010003000000000000000000000000000000000000000000000000000000000000000000000000000000000000000000          REGISTERED VOTERS - TOTAL                               REGISTERED VOTERS - TOTAL             103 - Garwood/Nada                                     00 
00010010004000000000000000000000000000000000000000000000000000000000000000000000000000000000000000000          REGISTERED VOTERS - TOTAL                               REGISTERED VOTERS - TOTAL             201 - Weimar/Oakland                                   00 
00010010005000000000000000000000000000000000000000000000000000000000000000000000000000000000000000000          REGISTERED VOTERS - TOTAL                               REGISTERED VOTERS - TOTAL             202 - Sheridan                                         00 
00010010006000000000000000000000000000000000000000000000000000000000000000000000000000000000000000000          REGISTERED VOTERS - TOTAL                               REGISTERED VOTERS - TOTAL             302 - Frelsburg/Brushy                                 00 
00010010007000000000000000000000000000000000000000000000000000000000000000000000000000000000000000000          REGISTERED VOTERS - TOTAL                               REGISTERED VOTERS - TOTAL             303 - Mentz                                            00 
00010010008000000000000000000000000000000000000000000000000000000000000000000000000000000000000000000          REGISTERED VOTERS - TOTAL                               REGISTERED VOTERS - TOTAL             304 - Bernardo                                         00 
00010010009000000000000000000000000000000000000000000000000000000000000000000000000000000000000000000          REGISTERED VOTERS - TOTAL                               REGISTERED VOTERS - TOTAL             305 - Columbus/Shaws Bend                              00 
00010010010000000000000000000000000000000000000000000000000000000000000000000000000000000000000000000          REGISTERED VOTERS - TOTAL                               REGISTERED VOTERS - TOTAL             401 - Alleyton/Altair                                  00 
00010010011000000000000000000000000000000000000000000000000000000000000000000000000000000000000000000          REGISTERED VOTERS - TOTAL                               REGISTERED VOTERS - TOTAL             402 Eagle Lake                                         00 
00020010001000000000000000000000000000000000000000000000000000000000000000000000000000000000000000000REP       REGISTERED VOTERS - Republican Party                    REGISTERED VOTERS - Republican Party  101 - Columbus/Glidden                                 00 
00020010002000000000000000000000000000000000000000000000000000000000000000000000000000000000000000000REP       REGISTERED VOTERS - Republican Party                    REGISTERED VOTERS - Republican Party  102 - Rock Island                                      00 
00020010003000000000000000000000000000000000000000000000000000000000000000000000000000000000000000000REP       REGISTERED VOTERS - Republican Party                    REGISTERED VOTERS - Republican Party  103 - Garwood/Nada                                     00 
00020010004000000000000000000000000000000000000000000000000000000000000000000000000000000000000000000REP       REGISTERED VOTERS - Republican Party                    REGISTERED VOTERS - Republican Party  201 - Weimar/Oakland                                   00 
00020010005000000000000000000000000000000000000000000000000000000000000000000000000000000000000000000REP       REGISTERED VOTERS - Republican Party                    REGISTERED VOTERS - Republican Party  202 - Sheridan                                         00 
00020010006000000000000000000000000000000000000000000000000000000000000000000000000000000000000000000REP       REGISTERED VOTERS - Republican Party                    REGISTERED VOTERS - Republican Party  302 - Frelsburg/Brushy                                 00 
00020010007000000000000000000000000000000000000000000000000000000000000000000000000000000000000000000REP       REGISTERED VOTERS - Republican Party                    REGISTERED VOTERS - Republican Party  303 - Mentz                                            00 
00020010008000000000000000000000000000000000000000000000000000000000000000000000000000000000000000000REP       REGISTERED VOTERS - Republican Party                    REGISTERED VOTERS - Republican Party  304 - Bernardo                                         00 
00020010009000000000000000000000000000000000000000000000000000000000000000000000000000000000000000000REP       REGISTERED VOTERS - Republican Party                    REGISTERED VOTERS - Republican Party  305 - Columbus/Shaws Bend                              00 
00020010010000000000000000000000000000000000000000000000000000000000000000000000000000000000000000000REP       REGISTERED VOTERS - Republican Party                    REGISTERED VOTERS - Republican Party  401 - Alleyton/Altair                                  00 
00020010011000000000000000000000000000000000000000000000000000000000000000000000000000000000000000000REP       REGISTERED VOTERS - Republican Party                    REGISTERED VOTERS - Republican Party  402 Eagle Lake                                         00 
00030010001000000000000000000000000000000000000000000000000000000000000000000000000000000000000000000DEM       REGISTERED VOTERS - Democratic Party                    REGISTERED VOTERS - Democratic Party  101 - Columbus/Glidden                                 00 
00030010002000000000000000000000000000000000000000000000000000000000000000000000000000000000000000000DEM       REGISTERED VOTERS - Democratic Party                    REGISTERED VOTERS - Democratic Party  102 - Rock Island                                      00 
00030010003000000000000000000000000000000000000000000000000000000000000000000000000000000000000000000DEM       REGISTERED VOTERS - Democratic Party                    REGISTERED VOTERS - Democratic Party  103 - Garwood/Nada                                     00 
00030010004000000000000000000000000000000000000000000000000000000000000000000000000000000000000000000DEM       REGISTERED VOTERS - Democratic Party                    REGISTERED VOTERS - Democratic Party  201 - Weimar/Oakland                                   00 
00030010005000000000000000000000000000000000000000000000000000000000000000000000000000000000000000000DEM       REGISTERED VOTERS - Democratic Party                    REGISTERED VOTERS - Democratic Party  202 - Sheridan                                         00 
00030010006000000000000000000000000000000000000000000000000000000000000000000000000000000000000000000DEM       REGISTERED VOTERS - Democratic Party                    REGISTERED VOTERS - Democratic Party  302 - Frelsburg/Brushy                                 00 
00030010007000000000000000000000000000000000000000000000000000000000000000000000000000000000000000000DEM       REGISTERED VOTERS - Democratic Party                    REGISTERED VOTERS - Democratic Party  303 - Mentz                                            00 
00030010008000000000000000000000000000000000000000000000000000000000000000000000000000000000000000000DEM       REGISTERED VOTERS - Democratic Party                    REGISTERED VOTERS - Democratic Party  304 - Bernardo                                         00 
00030010009000000000000000000000000000000000000000000000000000000000000000000000000000000000000000000DEM       REGISTERED VOTERS - Democratic Party                    REGISTERED VOTERS - Democratic Party  305 - Columbus/Shaws Bend                              00 
00030010010000000000000000000000000000000000000000000000000000000000000000000000000000000000000000000DEM       REGISTERED VOTERS - Democratic Party                    REGISTERED VOTERS - Democratic Party  401 - Alleyton/Altair                                  00 
00030010011000000000000000000000000000000000000000000000000000000000000000000000000000000000000000000DEM       REGISTERED VOTERS - Democratic Party                    REGISTERED VOTERS - Democratic Party  402 Eagle Lake                                         00 
00040010001000000000000000000000000000000000000000000000000000000000000000000000000000000000000000000NON       REGISTERED VOTERS - NONPARTISAN                         REGISTERED VOTERS - NONPARTISAN       101 - Columbus/Glidden                                 00 
00040010002000000000000000000000000000000000000000000000000000000000000000000000000000000000000000000NON       REGISTERED VOTERS - NONPARTISAN                         REGISTERED VOTERS - NONPARTISAN       102 - Rock Island                                      00 
00040010003000000000000000000000000000000000000000000000000000000000000000000000000000000000000000000NON       REGISTERED VOTERS - NONPARTISAN                         REGISTERED VOTERS - NONPARTISAN       103 - Garwood/Nada                                     00 
00040010004000000000000000000000000000000000000000000000000000000000000000000000000000000000000000000NON       REGISTERED VOTERS - NONPARTISAN                         REGISTERED VOTERS - NONPARTISAN       201 - Weimar/Oakland                                   00 
00040010005000000000000000000000000000000000000000000000000000000000000000000000000000000000000000000NON       REGISTERED VOTERS - NONPARTISAN                         REGISTERED VOTERS - NONPARTISAN       202 - Sheridan                                         00 
00040010006000000000000000000000000000000000000000000000000000000000000000000000000000000000000000000NON       REGISTERED VOTERS - NONPARTISAN                         REGISTERED VOTERS - NONPARTISAN       302 - Frelsburg/Brushy                                 00 
00040010007000000000000000000000000000000000000000000000000000000000000000000000000000000000000000000NON       REGISTERED VOTERS - NONPARTISAN                         REGISTERED VOTERS - NONPARTISAN       303 - Mentz                                            00 
00040010008000000000000000000000000000000000000000000000000000000000000000000000000000000000000000000NON       REGISTERED VOTERS - NONPARTISAN                         REGISTERED VOTERS - NONPARTISAN       304 - Bernardo                                         00 
00040010009000000000000000000000000000000000000000000000000000000000000000000000000000000000000000000NON       REGISTERED VOTERS - NONPARTISAN                         REGISTERED VOTERS - NONPARTISAN       305 - Columbus/Shaws Bend                              00 
00040010010000000000000000000000000000000000000000000000000000000000000000000000000000000000000000000NON       REGISTERED VOTERS - NONPARTISAN                         REGISTERED VOTERS - NONPARTISAN       401 - Alleyton/Altair                                  00 
00040010011000000000000000000000000000000000000000000000000000000000000000000000000000000000000000000NON       REGISTERED VOTERS - NONPARTISAN                         REGISTERED VOTERS - NONPARTISAN       402 Eagle Lake                                         00 
00050010001000275000025000112000138000000000000000000000000000000000000000000000000000000000000000000          BALLOTS CAST - TOTAL                                    BALLOTS CAST - TOTAL                  101 - Columbus/Glidden                                 00 
00050010002000048000001000030000017000000000000000000000000000000000000000000000000000000000000000000          BALLOTS CAST - TOTAL                                    BALLOTS CAST - TOTAL                  102 - Rock Island                                      00 
00050010003000029000003000007000019000000000000000000000000000000000000000000000000000000000000000000          BALLOTS CAST - TOTAL                                    BALLOTS CAST - TOTAL                  103 - Garwood/Nada                                     00 
00050010004000891000040000224000627000000000000000000000000000000000000000000000000000000000000000000          BALLOTS CAST - TOTAL                                    BALLOTS CAST - TOTAL                  201 - Weimar/Oakland                                   00 
00050010005000075000006000033000036000000000000000000000000000000000000000000000000000000000000000000          BALLOTS CAST - TOTAL                                    BALLOTS CAST - TOTAL                  202 - Sheridan                                         00 
00050010006000159000016000068000075000000000000000000000000000000000000000000000000000000000000000000          BALLOTS CAST - TOTAL                                    BALLOTS CAST - TOTAL                  302 - Frelsburg/Brushy                                 00 
00050010007000105000011000048000046000000000000000000000000000000000000000000000000000000000000000000          BALLOTS CAST - TOTAL                                    BALLOTS CAST - TOTAL                  303 - Mentz                                            00 
00050010008000067000005000028000034000000000000000000000000000000000000000000000000000000000000000000          BALLOTS CAST - TOTAL                                    BALLOTS CAST - TOTAL                  304 - Bernardo                                         00 
00050010009000242000030000110000102000000000000000000000000000000000000000000000000000000000000000000          BALLOTS CAST - TOTAL                                    BALLOTS CAST - TOTAL                  305 - Columbus/Shaws Bend                              00 
00050010010000053000006000023000024000000000000000000000000000000000000000000000000000000000000000000          BALLOTS CAST - TOTAL                                    BALLOTS CAST - TOTAL                  401 - Alleyton/Altair                                  00 
00050010011000190000029000033000128000000000000000000000000000000000000000000000000000000000000000000          BALLOTS CAST - TOTAL                                    BALLOTS CAST - TOTAL                  402 Eagle Lake                                         00 
00060010001000236000010000100000126000000000000000000000000000000000000000000000000000000000000000000REP       BALLOTS CAST - Republican Party                         BALLOTS CAST - Republican Party       101 - Columbus/Glidden                                 00 
00060010002000046000001000028000017000000000000000000000000000000000000000000000000000000000000000000REP       BALLOTS CAST - Republican Party                         BALLOTS CAST - Republican Party       102 - Rock Island                                      00 
00060010003000026000000000007000019000000000000000000000000000000000000000000000000000000000000000000REP       BALLOTS CAST - Republican Party                         BALLOTS CAST - Republican Party       103 - Garwood/Nada                                     00 
00060010004000843000023000222000598000000000000000000000000000000000000000000000000000000000000000000REP       BALLOTS CAST - Republican Party                         BALLOTS CAST - Republican Party       201 - Weimar/Oakland                                   00 
00060010005000072000004000032000036000000000000000000000000000000000000000000000000000000000000000000REP       BALLOTS CAST - Republican Party                         BALLOTS CAST - Republican Party       202 - Sheridan                                         00 
00060010006000152000011000067000074000000000000000000000000000000000000000000000000000000000000000000REP       BALLOTS CAST - Republican Party                         BALLOTS CAST - Republican Party       302 - Frelsburg/Brushy                                 00 
00060010007000097000005000046000046000000000000000000000000000000000000000000000000000000000000000000REP       BALLOTS CAST - Republican Party                         BALLOTS CAST - Republican Party       303 - Mentz                                            00 
00060010008000063000002000028000033000000000000000000000000000000000000000000000000000000000000000000REP       BALLOTS CAST - Republican Party                         BALLOTS CAST - Republican Party       304 - Bernardo                                         00 
00060010009000209000016000098000095000000000000000000000000000000000000000000000000000000000000000000REP       BALLOTS CAST - Republican Party                         BALLOTS CAST - Republican Party       305 - Columbus/Shaws Bend                              00 
00060010010000044000000000022000022000000000000000000000000000000000000000000000000000000000000000000REP       BALLOTS CAST - Republican Party                         BALLOTS CAST - Republican Party       401 - Alleyton/Altair                                  00 
00060010011000144000009000029000106000000000000000000000000000000000000000000000000000000000000000000REP       BALLOTS CAST - Republican Party                         BALLOTS CAST - Republican Party       402 Eagle Lake                                         00 
00070010001000039000015000012000012000000000000000000000000000000000000000000000000000000000000000000DEM       BALLOTS CAST - Democratic Party                         BALLOTS CAST - Democratic Party       101 - Columbus/Glidden                                 00 
00070010002000002000000000002000000000000000000000000000000000000000000000000000000000000000000000000DEM       BALLOTS CAST - Democratic Party                         BALLOTS CAST - Democratic Party       102 - Rock Island                                      00 
00070010003000003000003000000000000000000000000000000000000000000000000000000000000000000000000000000DEM       BALLOTS CAST - Democratic Party                         BALLOTS CAST - Democratic Party       103 - Garwood/Nada                                     00 
00070010004000048000017000002000029000000000000000000000000000000000000000000000000000000000000000000DEM       BALLOTS CAST - Democratic Party                         BALLOTS CAST - Democratic Party       201 - Weimar/Oakland                                   00 
00070010005000003000002000001000000000000000000000000000000000000000000000000000000000000000000000000DEM       BALLOTS CAST - Democratic Party                         BALLOTS CAST - Democratic Party       202 - Sheridan                                         00 
00070010006000007000005000001000001000000000000000000000000000000000000000000000000000000000000000000DEM       BALLOTS CAST - Democratic Party                         BALLOTS CAST - Democratic Party       302 - Frelsburg/Brushy                                 00 
00070010007000008000006000002000000000000000000000000000000000000000000000000000000000000000000000000DEM       BALLOTS CAST - Democratic Party                         BALLOTS CAST - Democratic Party       303 - Mentz                                            00 
00070010008000004000003000000000001000000000000000000000000000000000000000000000000000000000000000000DEM       BALLOTS CAST - Democratic Party                         BALLOTS CAST - Democratic Party       304 - Bernardo                                         00 
00070010009000033000014000012000007000000000000000000000000000000000000000000000000000000000000000000DEM       BALLOTS CAST - Democratic Party                         BALLOTS CAST - Democratic Party       305 - Columbus/Shaws Bend                              00 
00070010010000009000006000001000002000000000000000000000000000000000000000000000000000000000000000000DEM       BALLOTS CAST - Democratic Party                         BALLOTS CAST - Democratic Party       401 - Alleyton/Altair                                  00 
00070010011000046000020000004000022000000000000000000000000000000000000000000000000000000000000000000DEM       BALLOTS CAST - Democratic Party                         BALLOTS CAST - Democratic Party       402 Eagle Lake                                         00 
00080010001000000000000000000000000000000000000000000000000000000000000000000000000000000000000000000NON       BALLOTS CAST - NONPARTISAN                              BALLOTS CAST - NONPARTISAN            101 - Columbus/Glidden                                 00 
00080010002000000000000000000000000000000000000000000000000000000000000000000000000000000000000000000NON       BALLOTS CAST - NONPARTISAN                              BALLOTS CAST - NONPARTISAN            102 - Rock Island                                      00 
00080010003000000000000000000000000000000000000000000000000000000000000000000000000000000000000000000NON       BALLOTS CAST - NONPARTISAN                              BALLOTS CAST - NONPARTISAN            103 - Garwood/Nada                                     00 
00080010004000000000000000000000000000000000000000000000000000000000000000000000000000000000000000000NON       BALLOTS CAST - NONPARTISAN                              BALLOTS CAST - NONPARTISAN            201 - Weimar/Oakland                                   00 
00080010005000000000000000000000000000000000000000000000000000000000000000000000000000000000000000000NON       BALLOTS CAST - NONPARTISAN                              BALLOTS CAST - NONPARTISAN            202 - Sheridan                                         00 
00080010006000000000000000000000000000000000000000000000000000000000000000000000000000000000000000000NON       BALLOTS CAST - NONPARTISAN                              BALLOTS CAST - NONPARTISAN            302 - Frelsburg/Brushy                                 00 
00080010007000000000000000000000000000000000000000000000000000000000000000000000000000000000000000000NON       BALLOTS CAST - NONPARTISAN                              BALLOTS CAST - NONPARTISAN            303 - Mentz                                            00 
00080010008000000000000000000000000000000000000000000000000000000000000000000000000000000000000000000NON       BALLOTS CAST - NONPARTISAN                              BALLOTS CAST - NONPARTISAN            304 - Bernardo                                         00 
00080010009000000000000000000000000000000000000000000000000000000000000000000000000000000000000000000NON       BALLOTS CAST - NONPARTISAN                              BALLOTS CAST - NONPARTISAN            305 - Columbus/Shaws Bend                              00 
00080010010000000000000000000000000000000000000000000000000000000000000000000000000000000000000000000NON       BALLOTS CAST - NONPARTISAN                              BALLOTS CAST - NONPARTISAN            401 - Alleyton/Altair                                  00 
00080010011000000000000000000000000000000000000000000000000000000000000000000000000000000000000000000NON       BALLOTS CAST - NONPARTISAN                              BALLOTS CAST - NONPARTISAN            402 Eagle Lake                                         00 
00090010001000000000000000000000000000000000000000000000000000000000000000000000000000000000000000000          BALLOTS CAST - BLANK                                    BALLOTS CAST - BLANK                  101 - Columbus/Glidden                                 00 
00090010002000000000000000000000000000000000000000000000000000000000000000000000000000000000000000000          BALLOTS CAST - BLANK                                    BALLOTS CAST - BLANK                  102 - Rock Island                                      00 
00090010003000000000000000000000000000000000000000000000000000000000000000000000000000000000000000000          BALLOTS CAST - BLANK                                    BALLOTS CAST - BLANK                  103 - Garwood/Nada                                     00 
00090010004000002000000000000000002000000000000000000000000000000000000000000000000000000000000000000          BALLOTS CAST - BLANK                                    BALLOTS CAST - BLANK                  201 - Weimar/Oakland                                   00 
00090010005000000000000000000000000000000000000000000000000000000000000000000000000000000000000000000          BALLOTS CAST - BLANK                                    BALLOTS CAST - BLANK                  202 - Sheridan                                         00 
00090010006000000000000000000000000000000000000000000000000000000000000000000000000000000000000000000          BALLOTS CAST - BLANK                                    BALLOTS CAST - BLANK                  302 - Frelsburg/Brushy                                 00 
00090010007000000000000000000000000000000000000000000000000000000000000000000000000000000000000000000          BALLOTS CAST - BLANK                                    BALLOTS CAST - BLANK                  303 - Mentz                                            00 
00090010008000000000000000000000000000000000000000000000000000000000000000000000000000000000000000000          BALLOTS CAST - BLANK                                    BALLOTS CAST - BLANK                  304 - Bernardo                                         00 
00090010009000000000000000000000000000000000000000000000000000000000000000000000000000000000000000000          BALLOTS CAST - BLANK                                    BALLOTS CAST - BLANK                  305 - Columbus/Shaws Bend                              00 
00090010010000000000000000000000000000000000000000000000000000000000000000000000000000000000000000000          BALLOTS CAST - BLANK                                    BALLOTS CAST - BLANK                  401 - Alleyton/Altair                                  00 
00090010011000000000000000000000000000000000000000000000000000000000000000000000000000000000000000000          BALLOTS CAST - BLANK                                    BALLOTS CAST - BLANK                  402 Eagle Lake                                         00 
00100010001000067000005000031000031000000000000000000000000000000000000000000000000000000000000000000REP       REP Attorney General                                    George P. Bush                        101 - Columbus/Glidden                                 01 
00100010002000009000000000006000003000000000000000000000000000000000000000000000000000000000000000000REP       REP Attorney General                                    George P. Bush                        102 - Rock Island                                      01 
00100010003000005000000000002000003000000000000000000000000000000000000000000000000000000000000000000REP       REP Attorney General                                    George P. Bush                        103 - Garwood/Nada                                     01 
00100010004000332000007000083000242000000000000000000000000000000000000000000000000000000000000000000REP       REP Attorney General                                    George P. Bush                        201 - Weimar/Oakland                                   01 
00100010005000016000001000010000005000000000000000000000000000000000000000000000000000000000000000000REP       REP Attorney General                                    George P. Bush                        202 - Sheridan                                         01 
00100010006000020000001000010000009000000000000000000000000000000000000000000000000000000000000000000REP       REP Attorney General                                    George P. Bush                        302 - Frelsburg/Brushy                                 01 
00100010007000024000003000009000012000000000000000000000000000000000000000000000000000000000000000000REP       REP Attorney General                                    George P. Bush                        303 - Mentz                                            01 
00100010008000010000000000003000007000000000000000000000000000000000000000000000000000000000000000000REP       REP Attorney General                                    George P. Bush                        304 - Bernardo                                         01 
00100010009000044000003000021000020000000000000000000000000000000000000000000000000000000000000000000REP       REP Attorney General                                    George P. Bush                        305 - Columbus/Shaws Bend                              01 
00100010010000011000000000008000003000000000000000000000000000000000000000000000000000000000000000000REP       REP Attorney General                                    George P. Bush                        401 - Alleyton/Altair                                  01 
00100010011000030000004000002000024000000000000000000000000000000000000000000000000000000000000000000REP       REP Attorney General                                    George P. Bush                        402 Eagle Lake                                         01 
00100020001000168000005000068000095000000000000000000000000000000000000000000000000000000000000000000REP       REP Attorney General                                    Ken Paxton                            101 - Columbus/Glidden                                 01 
00100020002000037000001000022000014000000000000000000000000000000000000000000000000000000000000000000REP       REP Attorney General                                    Ken Paxton                            102 - Rock Island                                      01 
00100020003000021000000000005000016000000000000000000000000000000000000000000000000000000000000000000REP       REP Attorney General                                    Ken Paxton                            103 - Garwood/Nada                                     01 
00100020004000481000016000133000332000000000000000000000000000000000000000000000000000000000000000000REP       REP Attorney General                                    Ken Paxton                            201 - Weimar/Oakland                                   01 
00100020005000054000003000022000029000000000000000000000000000000000000000000000000000000000000000000REP       REP Attorney General                                    Ken Paxton                            202 - Sheridan                                         01 
00100020006000131000010000057000064000000000000000000000000000000000000000000000000000000000000000000REP       REP Attorney General                                    Ken Paxton                            302 - Frelsburg/Brushy                                 01 
00100020007000073000002000037000034000000000000000000000000000000000000000000000000000000000000000000REP       REP Attorney General                                    Ken Paxton                            303 - Mentz                                            01 
00100020008000051000002000025000024000000000000000000000000000000000000000000000000000000000000000000REP       REP Attorney General                                    Ken Paxton                            304 - Bernardo                                         01 
00100020009000162000012000077000073000000000000000000000000000000000000000000000000000000000000000000REP       REP Attorney General                                    Ken Paxton                            305 - Columbus/Shaws Bend                              01 
00100020010000033000000000014000019000000000000000000000000000000000000000000000000000000000000000000REP       REP Attorney General                                    Ken Paxton                            401 - Alleyton/Altair                                  01 
00100020011000114000005000027000082000000000000000000000000000000000000000000000000000000000000000000REP       REP Attorney General                                    Ken Paxton                            402 Eagle Lake                                         01 
00100030001000000000000000000000000000000000000000000000000000000000000000000000000000000000000000000          REP Attorney General                                    OVER VOTES                            101 - Columbus/Glidden                                 01 
00100030002000000000000000000000000000000000000000000000000000000000000000000000000000000000000000000          REP Attorney General                                    OVER VOTES                            102 - Rock Island                                      01 
00100030003000000000000000000000000000000000000000000000000000000000000000000000000000000000000000000          REP Attorney General                                    OVER VOTES                            103 - Garwood/Nada                                     01 
00100030004000000000000000000000000000000000000000000000000000000000000000000000000000000000000000000          REP Attorney General                                    OVER VOTES                            201 - Weimar/Oakland                                   01 
00100030005000000000000000000000000000000000000000000000000000000000000000000000000000000000000000000          REP Attorney General                                    OVER VOTES                            202 - Sheridan                                         01 
00100030006000000000000000000000000000000000000000000000000000000000000000000000000000000000000000000          REP Attorney General                                    OVER VOTES                            302 - Frelsburg/Brushy                                 01 
00100030007000000000000000000000000000000000000000000000000000000000000000000000000000000000000000000          REP Attorney General                                    OVER VOTES                            303 - Mentz                                            01 
00100030008000000000000000000000000000000000000000000000000000000000000000000000000000000000000000000          REP Attorney General                                    OVER VOTES                            304 - Bernardo                                         01 
00100030009000000000000000000000000000000000000000000000000000000000000000000000000000000000000000000          REP Attorney General                                    OVER VOTES                            305 - Columbus/Shaws Bend                              01 
00100030010000000000000000000000000000000000000000000000000000000000000000000000000000000000000000000          REP Attorney General                                    OVER VOTES                            401 - Alleyton/Altair                                  01 
00100030011000000000000000000000000000000000000000000000000000000000000000000000000000000000000000000          REP Attorney General                                    OVER VOTES                            402 Eagle Lake                                         01 
00100040001000001000000000001000000000000000000000000000000000000000000000000000000000000000000000000          REP Attorney General                                    UNDER VOTES                           101 - Columbus/Glidden                                 01 
00100040002000000000000000000000000000000000000000000000000000000000000000000000000000000000000000000          REP Attorney General                                    UNDER VOTES                           102 - Rock Island                                      01 
00100040003000000000000000000000000000000000000000000000000000000000000000000000000000000000000000000          REP Attorney General                                    UNDER VOTES                           103 - Garwood/Nada                                     01 
00100040004000030000000000006000024000000000000000000000000000000000000000000000000000000000000000000          REP Attorney General                                    UNDER VOTES                           201 - Weimar/Oakland                                   01 
00100040005000002000000000000000002000000000000000000000000000000000000000000000000000000000000000000          REP Attorney General                                    UNDER VOTES                           202 - Sheridan                                         01 
00100040006000001000000000000000001000000000000000000000000000000000000000000000000000000000000000000          REP Attorney General                                    UNDER VOTES                           302 - Frelsburg/Brushy                                 01 
00100040007000000000000000000000000000000000000000000000000000000000000000000000000000000000000000000          REP Attorney General                                    UNDER VOTES                           303 - Mentz                                            01 
00100040008000002000000000000000002000000000000000000000000000000000000000000000000000000000000000000          REP Attorney General                                    UNDER VOTES                           304 - Bernardo                                         01 
00100040009000003000001000000000002000000000000000000000000000000000000000000000000000000000000000000          REP Attorney General                                    UNDER VOTES                           305 - Columbus/Shaws Bend                              01 
00100040010000000000000000000000000000000000000000000000000000000000000000000000000000000000000000000          REP Attorney General                                    UNDER VOTES                           401 - Alleyton/Altair                                  01 
00100040011000000000000000000000000000000000000000000000000000000000000000000000000000000000000000000          REP Attorney General                                    UNDER VOTES                           402 Eagle Lake                                         01 
00110010001000175000005000071000099000000000000000000000000000000000000000000000000000000000000000000REP       REP Comm General Land Office                            Dawn Buckingham                       101 - Columbus/Glidden                                 01 
00110010002000027000000000018000009000000000000000000000000000000000000000000000000000000000000000000REP       REP Comm General Land Office                            Dawn Buckingham                       102 - Rock Island                                      01 
00110010003000020000000000005000015000000000000000000000000000000000000000000000000000000000000000000REP       REP Comm General Land Office                            Dawn Buckingham                       103 - Garwood/Nada                                     01 
00110010004000428000008000119000301000000000000000000000000000000000000000000000000000000000000000000REP       REP Comm General Land Office                            Dawn Buckingham                       201 - Weimar/Oakland                                   01 
00110010005000036000003000015000018000000000000000000000000000000000000000000000000000000000000000000REP       REP Comm General Land Office                            Dawn Buckingham                       202 - Sheridan                                         01 
00110010006000103000009000050000044000000000000000000000000000000000000000000000000000000000000000000REP       REP Comm General Land Office                            Dawn Buckingham                       302 - Frelsburg/Brushy                                 01 
00110010007000070000003000031000036000000000000000000000000000000000000000000000000000000000000000000REP       REP Comm General Land Office                            Dawn Buckingham                       303 - Mentz                                            01 
00110010008000046000002000022000022000000000000000000000000000000000000000000000000000000000000000000REP       REP Comm General Land Office                            Dawn Buckingham                       304 - Bernardo                                         01 
00110010009000144000010000073000061000000000000000000000000000000000000000000000000000000000000000000REP       REP Comm General Land Office                            Dawn Buckingham                       305 - Columbus/Shaws Bend                              01 
00110010010000026000000000016000010000000000000000000000000000000000000000000000000000000000000000000REP       REP Comm General Land Office                            Dawn Buckingham                       401 - Alleyton/Altair                                  01 
00110010011000093000005000022000066000000000000000000000000000000000000000000000000000000000000000000REP       REP Comm General Land Office                            Dawn Buckingham                       402 Eagle Lake                                         01 
00110020001000052000005000023000024000000000000000000000000000000000000000000000000000000000000000000REP       REP Comm General Land Office                            Tim Westley                           101 - Columbus/Glidden                                 01 
00110020002000019000001000010000008000000000000000000000000000000000000000000000000000000000000000000REP       REP Comm General Land Office                            Tim Westley                           102 - Rock Island                                      01 
00110020003000006000000000002000004000000000000000000000000000000000000000000000000000000000000000000REP       REP Comm General Land Office                            Tim Westley                           103 - Garwood/Nada                                     01 
00110020004000290000010000079000201000000000000000000000000000000000000000000000000000000000000000000REP       REP Comm General Land Office                            Tim Westley                           201 - Weimar/Oakland                                   01 
00110020005000028000001000016000011000000000000000000000000000000000000000000000000000000000000000000REP       REP Comm General Land Office                            Tim Westley                           202 - Sheridan                                         01 
00110020006000039000002000014000023000000000000000000000000000000000000000000000000000000000000000000REP       REP Comm General Land Office                            Tim Westley                           302 - Frelsburg/Brushy                                 01 
00110020007000023000002000012000009000000000000000000000000000000000000000000000000000000000000000000REP       REP Comm General Land Office                            Tim Westley                           303 - Mentz                                            01 
00110020008000017000000000006000011000000000000000000000000000000000000000000000000000000000000000000REP       REP Comm General Land Office                            Tim Westley                           304 - Bernardo                                         01 
00110020009000050000006000020000024000000000000000000000000000000000000000000000000000000000000000000REP       REP Comm General Land Office                            Tim Westley                           305 - Columbus/Shaws Bend                              01 
00110020010000016000000000006000010000000000000000000000000000000000000000000000000000000000000000000REP       REP Comm General Land Office                            Tim Westley                           401 - Alleyton/Altair                                  01 
00110020011000042000004000007000031000000000000000000000000000000000000000000000000000000000000000000REP       REP Comm General Land Office                            Tim Westley                           402 Eagle Lake                                         01 
00110030001000000000000000000000000000000000000000000000000000000000000000000000000000000000000000000          REP Comm General Land Office                            OVER VOTES                            101 - Columbus/Glidden                                 01 
00110030002000000000000000000000000000000000000000000000000000000000000000000000000000000000000000000          REP Comm General Land Office                            OVER VOTES                            102 - Rock Island                                      01 
00110030003000000000000000000000000000000000000000000000000000000000000000000000000000000000000000000          REP Comm General Land Office                            OVER VOTES                            103 - Garwood/Nada                                     01 
00110030004000000000000000000000000000000000000000000000000000000000000000000000000000000000000000000          REP Comm General Land Office                            OVER VOTES                            201 - Weimar/Oakland                                   01 
00110030005000000000000000000000000000000000000000000000000000000000000000000000000000000000000000000          REP Comm General Land Office                            OVER VOTES                            202 - Sheridan                                         01 
00110030006000000000000000000000000000000000000000000000000000000000000000000000000000000000000000000          REP Comm General Land Office                            OVER VOTES                            302 - Frelsburg/Brushy                                 01 
00110030007000000000000000000000000000000000000000000000000000000000000000000000000000000000000000000          REP Comm General Land Office                            OVER VOTES                            303 - Mentz                                            01 
00110030008000000000000000000000000000000000000000000000000000000000000000000000000000000000000000000          REP Comm General Land Office                            OVER VOTES                            304 - Bernardo                                         01 
00110030009000000000000000000000000000000000000000000000000000000000000000000000000000000000000000000          REP Comm General Land Office                            OVER VOTES                            305 - Columbus/Shaws Bend                              01 
00110030010000000000000000000000000000000000000000000000000000000000000000000000000000000000000000000          REP Comm General Land Office                            OVER VOTES                            401 - Alleyton/Altair                                  01 
00110030011000000000000000000000000000000000000000000000000000000000000000000000000000000000000000000          REP Comm General Land Office                            OVER VOTES                            402 Eagle Lake                                         01 
00110040001000009000000000006000003000000000000000000000000000000000000000000000000000000000000000000          REP Comm General Land Office                            UNDER VOTES                           101 - Columbus/Glidden                                 01 
00110040002000000000000000000000000000000000000000000000000000000000000000000000000000000000000000000          REP Comm General Land Office                            UNDER VOTES                           102 - Rock Island                                      01 
00110040003000000000000000000000000000000000000000000000000000000000000000000000000000000000000000000          REP Comm General Land Office                            UNDER VOTES                           103 - Garwood/Nada                                     01 
00110040004000125000005000024000096000000000000000000000000000000000000000000000000000000000000000000          REP Comm General Land Office                            UNDER VOTES                           201 - Weimar/Oakland                                   01 
00110040005000008000000000001000007000000000000000000000000000000000000000000000000000000000000000000          REP Comm General Land Office                            UNDER VOTES                           202 - Sheridan                                         01 
00110040006000010000000000003000007000000000000000000000000000000000000000000000000000000000000000000          REP Comm General Land Office                            UNDER VOTES                           302 - Frelsburg/Brushy                                 01 
00110040007000004000000000003000001000000000000000000000000000000000000000000000000000000000000000000          REP Comm General Land Office                            UNDER VOTES                           303 - Mentz                                            01 
00110040008000000000000000000000000000000000000000000000000000000000000000000000000000000000000000000          REP Comm General Land Office                            UNDER VOTES                           304 - Bernardo                                         01 
00110040009000015000000000005000010000000000000000000000000000000000000000000000000000000000000000000          REP Comm General Land Office                            UNDER VOTES                           305 - Columbus/Shaws Bend                              01 
00110040010000002000000000000000002000000000000000000000000000000000000000000000000000000000000000000          REP Comm General Land Office                            UNDER VOTES                           401 - Alleyton/Altair                                  01 
00110040011000009000000000000000009000000000000000000000000000000000000000000000000000000000000000000          REP Comm General Land Office                            UNDER VOTES                           402 Eagle Lake                                         01 
00120010001000152000009000053000090000000000000000000000000000000000000000000000000000000000000000000REP       REP Railroad Commissioner                               Wayne Christian                       101 - Columbus/Glidden                                 01 
00120010002000033000001000019000013000000000000000000000000000000000000000000000000000000000000000000REP       REP Railroad Commissioner                               Wayne Christian                       102 - Rock Island                                      01 
00120010003000023000000000007000016000000000000000000000000000000000000000000000000000000000000000000REP       REP Railroad Commissioner                               Wayne Christian                       103 - Garwood/Nada                                     01 
00120010004000442000013000110000319000000000000000000000000000000000000000000000000000000000000000000REP       REP Railroad Commissioner                               Wayne Christian                       201 - Weimar/Oakland                                   01 
00120010005000047000002000019000026000000000000000000000000000000000000000000000000000000000000000000REP       REP Railroad Commissioner                               Wayne Christian                       202 - Sheridan                                         01 
00120010006000098000010000040000048000000000000000000000000000000000000000000000000000000000000000000REP       REP Railroad Commissioner                               Wayne Christian                       302 - Frelsburg/Brushy                                 01 
00120010007000069000004000034000031000000000000000000000000000000000000000000000000000000000000000000REP       REP Railroad Commissioner                               Wayne Christian                       303 - Mentz                                            01 
00120010008000042000002000015000025000000000000000000000000000000000000000000000000000000000000000000REP       REP Railroad Commissioner                               Wayne Christian                       304 - Bernardo                                         01 
00120010009000124000011000058000055000000000000000000000000000000000000000000000000000000000000000000REP       REP Railroad Commissioner                               Wayne Christian                       305 - Columbus/Shaws Bend                              01 
00120010010000027000000000014000013000000000000000000000000000000000000000000000000000000000000000000REP       REP Railroad Commissioner                               Wayne Christian                       401 - Alleyton/Altair                                  01 
00120010011000082000006000020000056000000000000000000000000000000000000000000000000000000000000000000REP       REP Railroad Commissioner                               Wayne Christian                       402 Eagle Lake                                         01 
00120020001000078000001000044000033000000000000000000000000000000000000000000000000000000000000000000REP       REP Railroad Commissioner                               Sarah Stogner                         101 - Columbus/Glidden                                 01 
00120020002000012000000000008000004000000000000000000000000000000000000000000000000000000000000000000REP       REP Railroad Commissioner                               Sarah Stogner                         102 - Rock Island                                      01 
00120020003000003000000000000000003000000000000000000000000000000000000000000000000000000000000000000REP       REP Railroad Commissioner                               Sarah Stogner                         103 - Garwood/Nada                                     01 
00120020004000317000008000092000217000000000000000000000000000000000000000000000000000000000000000000REP       REP Railroad Commissioner                               Sarah Stogner                         201 - Weimar/Oakland                                   01 
00120020005000022000002000013000007000000000000000000000000000000000000000000000000000000000000000000REP       REP Railroad Commissioner                               Sarah Stogner                         202 - Sheridan                                         01 
00120020006000049000001000027000021000000000000000000000000000000000000000000000000000000000000000000REP       REP Railroad Commissioner                               Sarah Stogner                         302 - Frelsburg/Brushy                                 01 
00120020007000025000001000011000013000000000000000000000000000000000000000000000000000000000000000000REP       REP Railroad Commissioner                               Sarah Stogner                         303 - Mentz                                            01 
00120020008000020000000000013000007000000000000000000000000000000000000000000000000000000000000000000REP       REP Railroad Commissioner                               Sarah Stogner                         304 - Bernardo                                         01 
00120020009000074000005000035000034000000000000000000000000000000000000000000000000000000000000000000REP       REP Railroad Commissioner                               Sarah Stogner                         305 - Columbus/Shaws Bend                              01 
00120020010000016000000000008000008000000000000000000000000000000000000000000000000000000000000000000REP       REP Railroad Commissioner                               Sarah Stogner                         401 - Alleyton/Altair                                  01 
00120020011000056000003000009000044000000000000000000000000000000000000000000000000000000000000000000REP       REP Railroad Commissioner                               Sarah Stogner                         402 Eagle Lake                                         01 
00120030001000000000000000000000000000000000000000000000000000000000000000000000000000000000000000000          REP Railroad Commissioner                               OVER VOTES                            101 - Columbus/Glidden                                 01 
00120030002000000000000000000000000000000000000000000000000000000000000000000000000000000000000000000          REP Railroad Commissioner                               OVER VOTES                            102 - Rock Island                                      01 
00120030003000000000000000000000000000000000000000000000000000000000000000000000000000000000000000000          REP Railroad Commissioner                               OVER VOTES                            103 - Garwood/Nada                                     01 
00120030004000000000000000000000000000000000000000000000000000000000000000000000000000000000000000000          REP Railroad Commissioner                               OVER VOTES                            201 - Weimar/Oakland                                   01 
00120030005000000000000000000000000000000000000000000000000000000000000000000000000000000000000000000          REP Railroad Commissioner                               OVER VOTES                            202 - Sheridan                                         01 
00120030006000000000000000000000000000000000000000000000000000000000000000000000000000000000000000000          REP Railroad Commissioner                               OVER VOTES                            302 - Frelsburg/Brushy                                 01 
00120030007000000000000000000000000000000000000000000000000000000000000000000000000000000000000000000          REP Railroad Commissioner                               OVER VOTES                            303 - Mentz                                            01 
00120030008000000000000000000000000000000000000000000000000000000000000000000000000000000000000000000          REP Railroad Commissioner                               OVER VOTES                            304 - Bernardo                                         01 
00120030009000000000000000000000000000000000000000000000000000000000000000000000000000000000000000000          REP Railroad Commissioner                               OVER VOTES                            305 - Columbus/Shaws Bend                              01 
00120030010000000000000000000000000000000000000000000000000000000000000000000000000000000000000000000          REP Railroad Commissioner                               OVER VOTES                            401 - Alleyton/Altair                                  01 
00120030011000000000000000000000000000000000000000000000000000000000000000000000000000000000000000000          REP Railroad Commissioner                               OVER VOTES                            402 Eagle Lake                                         01 
00120040001000006000000000003000003000000000000000000000000000000000000000000000000000000000000000000          REP Railroad Commissioner                               UNDER VOTES                           101 - Columbus/Glidden                                 01 
00120040002000001000000000001000000000000000000000000000000000000000000000000000000000000000000000000          REP Railroad Commissioner                               UNDER VOTES                           102 - Rock Island                                      01 
00120040003000000000000000000000000000000000000000000000000000000000000000000000000000000000000000000          REP Railroad Commissioner                               UNDER VOTES                           103 - Garwood/Nada                                     01 
00120040004000084000002000020000062000000000000000000000000000000000000000000000000000000000000000000          REP Railroad Commissioner                               UNDER VOTES                           201 - Weimar/Oakland                                   01 
00120040005000003000000000000000003000000000000000000000000000000000000000000000000000000000000000000          REP Railroad Commissioner                               UNDER VOTES                           202 - Sheridan                                         01 
00120040006000005000000000000000005000000000000000000000000000000000000000000000000000000000000000000          REP Railroad Commissioner                               UNDER VOTES                           302 - Frelsburg/Brushy                                 01 
00120040007000003000000000001000002000000000000000000000000000000000000000000000000000000000000000000          REP Railroad Commissioner                               UNDER VOTES                           303 - Mentz                                            01 
00120040008000001000000000000000001000000000000000000000000000000000000000000000000000000000000000000          REP Railroad Commissioner                               UNDER VOTES                           304 - Bernardo                                         01 
00120040009000011000000000005000006000000000000000000000000000000000000000000000000000000000000000000          REP Railroad Commissioner                               UNDER VOTES                           305 - Columbus/Shaws Bend                              01 
00120040010000001000000000000000001000000000000000000000000000000000000000000000000000000000000000000          REP Railroad Commissioner                               UNDER VOTES                           401 - Alleyton/Altair                                  01 
00120040011000006000000000000000006000000000000000000000000000000000000000000000000000000000000000000          REP Railroad Commissioner                               UNDER VOTES                           402 Eagle Lake                                         01 
00130010001000158000004000068000086000000000000000000000000000000000000000000000000000000000000000000REP       REP State Representative, Dist 85                       Stan Kitzman                          101 - Columbus/Glidden                                 01 
00130010002000025000001000014000010000000000000000000000000000000000000000000000000000000000000000000REP       REP State Representative, Dist 85                       Stan Kitzman                          102 - Rock Island                                      01 
00130010003000011000000000003000008000000000000000000000000000000000000000000000000000000000000000000REP       REP State Representative, Dist 85                       Stan Kitzman                          103 - Garwood/Nada                                     01 
00130010004000426000009000110000307000000000000000000000000000000000000000000000000000000000000000000REP       REP State Representative, Dist 85                       Stan Kitzman                          201 - Weimar/Oakland                                   01 
00130010005000038000003000021000014000000000000000000000000000000000000000000000000000000000000000000REP       REP State Representative, Dist 85                       Stan Kitzman                          202 - Sheridan                                         01 
00130010006000095000004000044000047000000000000000000000000000000000000000000000000000000000000000000REP       REP State Representative, Dist 85                       Stan Kitzman                          302 - Frelsburg/Brushy                                 01 
00130010007000063000001000026000036000000000000000000000000000000000000000000000000000000000000000000REP       REP State Representative, Dist 85                       Stan Kitzman                          303 - Mentz                                            01 
00130010008000039000002000017000020000000000000000000000000000000000000000000000000000000000000000000REP       REP State Representative, Dist 85                       Stan Kitzman                          304 - Bernardo                                         01 
00130010009000128000005000071000052000000000000000000000000000000000000000000000000000000000000000000REP       REP State Representative, Dist 85                       Stan Kitzman                          305 - Columbus/Shaws Bend                              01 
00130010010000023000000000009000014000000000000000000000000000000000000000000000000000000000000000000REP       REP State Representative, Dist 85                       Stan Kitzman                          401 - Alleyton/Altair                                  01 
00130010011000075000006000013000056000000000000000000000000000000000000000000000000000000000000000000REP       REP State Representative, Dist 85                       Stan Kitzman                          402 Eagle Lake                                         01 
00130020001000074000006000029000039000000000000000000000000000000000000000000000000000000000000000000REP       REP State Representative, Dist 85                       Phil W. Stephenson                    101 - Columbus/Glidden                                 01 
00130020002000021000000000014000007000000000000000000000000000000000000000000000000000000000000000000REP       REP State Representative, Dist 85                       Phil W. Stephenson                    102 - Rock Island                                      01 
00130020003000014000000000003000011000000000000000000000000000000000000000000000000000000000000000000REP       REP State Representative, Dist 85                       Phil W. Stephenson                    103 - Garwood/Nada                                     01 
00130020004000328000011000091000226000000000000000000000000000000000000000000000000000000000000000000REP       REP State Representative, Dist 85                       Phil W. Stephenson                    201 - Weimar/Oakland                                   01 
00130020005000028000001000009000018000000000000000000000000000000000000000000000000000000000000000000REP       REP State Representative, Dist 85                       Phil W. Stephenson                    202 - Sheridan                                         01 
00130020006000051000007000022000022000000000000000000000000000000000000000000000000000000000000000000REP       REP State Representative, Dist 85                       Phil W. Stephenson                    302 - Frelsburg/Brushy                                 01 
00130020007000033000004000019000010000000000000000000000000000000000000000000000000000000000000000000REP       REP State Representative, Dist 85                       Phil W. Stephenson                    303 - Mentz                                            01 
00130020008000023000000000010000013000000000000000000000000000000000000000000000000000000000000000000REP       REP State Representative, Dist 85                       Phil W. Stephenson                    304 - Bernardo                                         01 
00130020009000073000011000025000037000000000000000000000000000000000000000000000000000000000000000000REP       REP State Representative, Dist 85                       Phil W. Stephenson                    305 - Columbus/Shaws Bend                              01 
00130020010000019000000000013000006000000000000000000000000000000000000000000000000000000000000000000REP       REP State Representative, Dist 85                       Phil W. Stephenson                    401 - Alleyton/Altair                                  01 
00130020011000062000003000015000044000000000000000000000000000000000000000000000000000000000000000000REP       REP State Representative, Dist 85                       Phil W. Stephenson                    402 Eagle Lake                                         01 
00130030001000000000000000000000000000000000000000000000000000000000000000000000000000000000000000000          REP State Representative, Dist 85                       OVER VOTES                            101 - Columbus/Glidden                                 01 
00130030002000000000000000000000000000000000000000000000000000000000000000000000000000000000000000000          REP State Representative, Dist 85                       OVER VOTES                            102 - Rock Island                                      01 
00130030003000000000000000000000000000000000000000000000000000000000000000000000000000000000000000000          REP State Representative, Dist 85                       OVER VOTES                            103 - Garwood/Nada                                     01 
00130030004000000000000000000000000000000000000000000000000000000000000000000000000000000000000000000          REP State Representative, Dist 85                       OVER VOTES                            201 - Weimar/Oakland                                   01 
00130030005000000000000000000000000000000000000000000000000000000000000000000000000000000000000000000          REP State Representative, Dist 85                       OVER VOTES                            202 - Sheridan                                         01 
00130030006000000000000000000000000000000000000000000000000000000000000000000000000000000000000000000          REP State Representative, Dist 85                       OVER VOTES                            302 - Frelsburg/Brushy                                 01 
00130030007000000000000000000000000000000000000000000000000000000000000000000000000000000000000000000          REP State Representative, Dist 85                       OVER VOTES                            303 - Mentz                                            01 
00130030008000000000000000000000000000000000000000000000000000000000000000000000000000000000000000000          REP State Representative, Dist 85                       OVER VOTES                            304 - Bernardo                                         01 
00130030009000000000000000000000000000000000000000000000000000000000000000000000000000000000000000000          REP State Representative, Dist 85                       OVER VOTES                            305 - Columbus/Shaws Bend                              01 
00130030010000000000000000000000000000000000000000000000000000000000000000000000000000000000000000000          REP State Representative, Dist 85                       OVER VOTES                            401 - Alleyton/Altair                                  01 
00130030011000000000000000000000000000000000000000000000000000000000000000000000000000000000000000000          REP State Representative, Dist 85                       OVER VOTES                            402 Eagle Lake                                         01 
00130040001000004000000000003000001000000000000000000000000000000000000000000000000000000000000000000          REP State Representative, Dist 85                       UNDER VOTES                           101 - Columbus/Glidden                                 01 
00130040002000000000000000000000000000000000000000000000000000000000000000000000000000000000000000000          REP State Representative, Dist 85                       UNDER VOTES                           102 - Rock Island                                      01 
00130040003000001000000000001000000000000000000000000000000000000000000000000000000000000000000000000          REP State Representative, Dist 85                       UNDER VOTES                           103 - Garwood/Nada                                     01 
00130040004000089000003000021000065000000000000000000000000000000000000000000000000000000000000000000          REP State Representative, Dist 85                       UNDER VOTES                           201 - Weimar/Oakland                                   01 
00130040005000006000000000002000004000000000000000000000000000000000000000000000000000000000000000000          REP State Representative, Dist 85                       UNDER VOTES                           202 - Sheridan                                         01 
00130040006000006000000000001000005000000000000000000000000000000000000000000000000000000000000000000          REP State Representative, Dist 85                       UNDER VOTES                           302 - Frelsburg/Brushy                                 01 
00130040007000001000000000001000000000000000000000000000000000000000000000000000000000000000000000000          REP State Representative, Dist 85                       UNDER VOTES                           303 - Mentz                                            01 
00130040008000001000000000001000000000000000000000000000000000000000000000000000000000000000000000000          REP State Representative, Dist 85                       UNDER VOTES                           304 - Bernardo                                         01 
00130040009000008000000000002000006000000000000000000000000000000000000000000000000000000000000000000          REP State Representative, Dist 85                       UNDER VOTES                           305 - Columbus/Shaws Bend                              01 
00130040010000002000000000000000002000000000000000000000000000000000000000000000000000000000000000000          REP State Representative, Dist 85                       UNDER VOTES                           401 - Alleyton/Altair                                  01 
00130040011000007000000000001000006000000000000000000000000000000000000000000000000000000000000000000          REP State Representative, Dist 85                       UNDER VOTES                           402 Eagle Lake                                         01 
00140010004000569000020000168000381000000000000000000000000000000000000000000000000000000000000000000REPCOM1   REP County Commissioner Pct 2                           Ryan P. Brandt                        201 - Weimar/Oakland          Precinct No. 2           01 
00140010005000040000003000018000019000000000000000000000000000000000000000000000000000000000000000000REPCOM1   REP County Commissioner Pct 2                           Ryan P. Brandt                        202 - Sheridan                Precinct No. 2           01 
00140020004000267000003000053000211000000000000000000000000000000000000000000000000000000000000000000REPCOM1   REP County Commissioner Pct 2                           Bob Christen                          201 - Weimar/Oakland          Precinct No. 2           01 
00140020005000027000001000011000015000000000000000000000000000000000000000000000000000000000000000000REPCOM1   REP County Commissioner Pct 2                           Bob Christen                          202 - Sheridan                Precinct No. 2           01 
00140030004000000000000000000000000000000000000000000000000000000000000000000000000000000000000000000   COM1   REP County Commissioner Pct 2                           OVER VOTES                            201 - Weimar/Oakland          Precinct No. 2           01 
00140030005000000000000000000000000000000000000000000000000000000000000000000000000000000000000000000   COM1   REP County Commissioner Pct 2                           OVER VOTES                            202 - Sheridan                Precinct No. 2           01 
00140040004000007000000000001000006000000000000000000000000000000000000000000000000000000000000000000   COM1   REP County Commissioner Pct 2                           UNDER VOTES                           201 - Weimar/Oakland          Precinct No. 2           01 
00140040005000005000000000003000002000000000000000000000000000000000000000000000000000000000000000000   COM1   REP County Commissioner Pct 2                           UNDER VOTES                           202 - Sheridan                Precinct No. 2           01 
00150010001000026000013000007000006000000000000000000000000000000000000000000000000000000000000000000DEM       DEM Lieutenant Governor                                 Mike Collier                          101 - Columbus/Glidden                                 01 
00150010002000002000000000002000000000000000000000000000000000000000000000000000000000000000000000000DEM       DEM Lieutenant Governor                                 Mike Collier                          102 - Rock Island                                      01 
00150010003000000000000000000000000000000000000000000000000000000000000000000000000000000000000000000DEM       DEM Lieutenant Governor                                 Mike Collier                          103 - Garwood/Nada                                     01 
00150010004000022000012000002000008000000000000000000000000000000000000000000000000000000000000000000DEM       DEM Lieutenant Governor                                 Mike Collier                          201 - Weimar/Oakland                                   01 
00150010005000001000000000001000000000000000000000000000000000000000000000000000000000000000000000000DEM       DEM Lieutenant Governor                                 Mike Collier                          202 - Sheridan                                         01 
00150010006000004000004000000000000000000000000000000000000000000000000000000000000000000000000000000DEM       DEM Lieutenant Governor                                 Mike Collier                          302 - Frelsburg/Brushy                                 01 
00150010007000002000002000000000000000000000000000000000000000000000000000000000000000000000000000000DEM       DEM Lieutenant Governor                                 Mike Collier                          303 - Mentz                                            01 
00150010008000004000003000000000001000000000000000000000000000000000000000000000000000000000000000000DEM       DEM Lieutenant Governor                                 Mike Collier                          304 - Bernardo                                         01 
00150010009000016000007000007000002000000000000000000000000000000000000000000000000000000000000000000DEM       DEM Lieutenant Governor                                 Mike Collier                          305 - Columbus/Shaws Bend                              01 
00150010010000006000005000000000001000000000000000000000000000000000000000000000000000000000000000000DEM       DEM Lieutenant Governor                                 Mike Collier                          401 - Alleyton/Altair                                  01 
00150010011000021000007000003000011000000000000000000000000000000000000000000000000000000000000000000DEM       DEM Lieutenant Governor                                 Mike Collier                          402 Eagle Lake                                         01 
00150020001000013000002000005000006000000000000000000000000000000000000000000000000000000000000000000DEM       DEM Lieutenant Governor                                 Michelle Beckley                      101 - Columbus/Glidden                                 01 
00150020002000000000000000000000000000000000000000000000000000000000000000000000000000000000000000000DEM       DEM Lieutenant Governor                                 Michelle Beckley                      102 - Rock Island                                      01 
00150020003000003000003000000000000000000000000000000000000000000000000000000000000000000000000000000DEM       DEM Lieutenant Governor                                 Michelle Beckley                      103 - Garwood/Nada                                     01 
00150020004000023000005000000000018000000000000000000000000000000000000000000000000000000000000000000DEM       DEM Lieutenant Governor                                 Michelle Beckley                      201 - Weimar/Oakland                                   01 
00150020005000002000002000000000000000000000000000000000000000000000000000000000000000000000000000000DEM       DEM Lieutenant Governor                                 Michelle Beckley                      202 - Sheridan                                         01 
00150020006000003000001000001000001000000000000000000000000000000000000000000000000000000000000000000DEM       DEM Lieutenant Governor                                 Michelle Beckley                      302 - Frelsburg/Brushy                                 01 
00150020007000006000004000002000000000000000000000000000000000000000000000000000000000000000000000000DEM       DEM Lieutenant Governor                                 Michelle Beckley                      303 - Mentz                                            01 
00150020008000000000000000000000000000000000000000000000000000000000000000000000000000000000000000000DEM       DEM Lieutenant Governor                                 Michelle Beckley                      304 - Bernardo                                         01 
00150020009000015000006000005000004000000000000000000000000000000000000000000000000000000000000000000DEM       DEM Lieutenant Governor                                 Michelle Beckley                      305 - Columbus/Shaws Bend                              01 
00150020010000003000001000001000001000000000000000000000000000000000000000000000000000000000000000000DEM       DEM Lieutenant Governor                                 Michelle Beckley                      401 - Alleyton/Altair                                  01 
00150020011000024000013000001000010000000000000000000000000000000000000000000000000000000000000000000DEM       DEM Lieutenant Governor                                 Michelle Beckley                      402 Eagle Lake                                         01 
00150030001000000000000000000000000000000000000000000000000000000000000000000000000000000000000000000          DEM Lieutenant Governor                                 OVER VOTES                            101 - Columbus/Glidden                                 01 
00150030002000000000000000000000000000000000000000000000000000000000000000000000000000000000000000000          DEM Lieutenant Governor                                 OVER VOTES                            102 - Rock Island                                      01 
00150030003000000000000000000000000000000000000000000000000000000000000000000000000000000000000000000          DEM Lieutenant Governor                                 OVER VOTES                            103 - Garwood/Nada                                     01 
00150030004000000000000000000000000000000000000000000000000000000000000000000000000000000000000000000          DEM Lieutenant Governor                                 OVER VOTES                            201 - Weimar/Oakland                                   01 
00150030005000000000000000000000000000000000000000000000000000000000000000000000000000000000000000000          DEM Lieutenant Governor                                 OVER VOTES                            202 - Sheridan                                         01 
00150030006000000000000000000000000000000000000000000000000000000000000000000000000000000000000000000          DEM Lieutenant Governor                                 OVER VOTES                            302 - Frelsburg/Brushy                                 01 
00150030007000000000000000000000000000000000000000000000000000000000000000000000000000000000000000000          DEM Lieutenant Governor                                 OVER VOTES                            303 - Mentz                                            01 
00150030008000000000000000000000000000000000000000000000000000000000000000000000000000000000000000000          DEM Lieutenant Governor                                 OVER VOTES                            304 - Bernardo                                         01 
00150030009000000000000000000000000000000000000000000000000000000000000000000000000000000000000000000          DEM Lieutenant Governor                                 OVER VOTES                            305 - Columbus/Shaws Bend                              01 
00150030010000000000000000000000000000000000000000000000000000000000000000000000000000000000000000000          DEM Lieutenant Governor                                 OVER VOTES                            401 - Alleyton/Altair                                  01 
00150030011000000000000000000000000000000000000000000000000000000000000000000000000000000000000000000          DEM Lieutenant Governor                                 OVER VOTES                            402 Eagle Lake                                         01 
00150040001000000000000000000000000000000000000000000000000000000000000000000000000000000000000000000          DEM Lieutenant Governor                                 UNDER VOTES                           101 - Columbus/Glidden                                 01 
00150040002000000000000000000000000000000000000000000000000000000000000000000000000000000000000000000          DEM Lieutenant Governor                                 UNDER VOTES                           102 - Rock Island                                      01 
00150040003000000000000000000000000000000000000000000000000000000000000000000000000000000000000000000          DEM Lieutenant Governor                                 UNDER VOTES                           103 - Garwood/Nada                                     01 
00150040004000003000000000000000003000000000000000000000000000000000000000000000000000000000000000000          DEM Lieutenant Governor                                 UNDER VOTES                           201 - Weimar/Oakland                                   01 
00150040005000000000000000000000000000000000000000000000000000000000000000000000000000000000000000000          DEM Lieutenant Governor                                 UNDER VOTES                           202 - Sheridan                                         01 
00150040006000000000000000000000000000000000000000000000000000000000000000000000000000000000000000000          DEM Lieutenant Governor                                 UNDER VOTES                           302 - Frelsburg/Brushy                                 01 
00150040007000000000000000000000000000000000000000000000000000000000000000000000000000000000000000000          DEM Lieutenant Governor                                 UNDER VOTES                           303 - Mentz                                            01 
00150040008000000000000000000000000000000000000000000000000000000000000000000000000000000000000000000          DEM Lieutenant Governor                                 UNDER VOTES                           304 - Bernardo                                         01 
00150040009000002000001000000000001000000000000000000000000000000000000000000000000000000000000000000          DEM Lieutenant Governor                                 UNDER VOTES                           305 - Columbus/Shaws Bend                              01 
00150040010000000000000000000000000000000000000000000000000000000000000000000000000000000000000000000          DEM Lieutenant Governor                                 UNDER VOTES                           401 - Alleyton/Altair                                  01 
00150040011000001000000000000000001000000000000000000000000000000000000000000000000000000000000000000          DEM Lieutenant Governor                                 UNDER VOTES                           402 Eagle Lake                                         01 
00160010001000024000013000005000006000000000000000000000000000000000000000000000000000000000000000000DEM       DEM Attorney General                                    Joe Jaworski                          101 - Columbus/Glidden                                 01 
00160010002000001000000000001000000000000000000000000000000000000000000000000000000000000000000000000DEM       DEM Attorney General                                    Joe Jaworski                          102 - Rock Island                                      01 
00160010003000001000001000000000000000000000000000000000000000000000000000000000000000000000000000000DEM       DEM Attorney General                                    Joe Jaworski                          103 - Garwood/Nada                                     01 
00160010004000028000012000002000014000000000000000000000000000000000000000000000000000000000000000000DEM       DEM Attorney General                                    Joe Jaworski                          201 - Weimar/Oakland                                   01 
00160010005000001000000000001000000000000000000000000000000000000000000000000000000000000000000000000DEM       DEM Attorney General                                    Joe Jaworski                          202 - Sheridan                                         01 
00160010006000007000005000001000001000000000000000000000000000000000000000000000000000000000000000000DEM       DEM Attorney General                                    Joe Jaworski                          302 - Frelsburg/Brushy                                 01 
00160010007000005000005000000000000000000000000000000000000000000000000000000000000000000000000000000DEM       DEM Attorney General                                    Joe Jaworski                          303 - Mentz                                            01 
00160010008000003000002000000000001000000000000000000000000000000000000000000000000000000000000000000DEM       DEM Attorney General                                    Joe Jaworski                          304 - Bernardo                                         01 
00160010009000015000006000007000002000000000000000000000000000000000000000000000000000000000000000000DEM       DEM Attorney General                                    Joe Jaworski                          305 - Columbus/Shaws Bend                              01 
00160010010000005000003000000000002000000000000000000000000000000000000000000000000000000000000000000DEM       DEM Attorney General                                    Joe Jaworski                          401 - Alleyton/Altair                                  01 
00160010011000021000008000002000011000000000000000000000000000000000000000000000000000000000000000000DEM       DEM Attorney General                                    Joe Jaworski                          402 Eagle Lake                                         01 
00160020001000015000002000007000006000000000000000000000000000000000000000000000000000000000000000000DEM       DEM Attorney General                                    Rochelle Mercedes Garza               101 - Columbus/Glidden                                 01 
00160020002000001000000000001000000000000000000000000000000000000000000000000000000000000000000000000DEM       DEM Attorney General                                    Rochelle Mercedes Garza               102 - Rock Island                                      01 
00160020003000002000002000000000000000000000000000000000000000000000000000000000000000000000000000000DEM       DEM Attorney General                                    Rochelle Mercedes Garza               103 - Garwood/Nada                                     01 
00160020004000018000005000000000013000000000000000000000000000000000000000000000000000000000000000000DEM       DEM Attorney General                                    Rochelle Mercedes Garza               201 - Weimar/Oakland                                   01 
00160020005000002000002000000000000000000000000000000000000000000000000000000000000000000000000000000DEM       DEM Attorney General                                    Rochelle Mercedes Garza               202 - Sheridan                                         01 
00160020006000000000000000000000000000000000000000000000000000000000000000000000000000000000000000000DEM       DEM Attorney General                                    Rochelle Mercedes Garza               302 - Frelsburg/Brushy                                 01 
00160020007000003000001000002000000000000000000000000000000000000000000000000000000000000000000000000DEM       DEM Attorney General                                    Rochelle Mercedes Garza               303 - Mentz                                            01 
00160020008000001000001000000000000000000000000000000000000000000000000000000000000000000000000000000DEM       DEM Attorney General                                    Rochelle Mercedes Garza               304 - Bernardo                                         01 
00160020009000018000008000005000005000000000000000000000000000000000000000000000000000000000000000000DEM       DEM Attorney General                                    Rochelle Mercedes Garza               305 - Columbus/Shaws Bend                              01 
00160020010000004000003000001000000000000000000000000000000000000000000000000000000000000000000000000DEM       DEM Attorney General                                    Rochelle Mercedes Garza               401 - Alleyton/Altair                                  01 
00160020011000025000012000002000011000000000000000000000000000000000000000000000000000000000000000000DEM       DEM Attorney General                                    Rochelle Mercedes Garza               402 Eagle Lake                                         01 
00160030001000000000000000000000000000000000000000000000000000000000000000000000000000000000000000000          DEM Attorney General                                    OVER VOTES                            101 - Columbus/Glidden                                 01 
00160030002000000000000000000000000000000000000000000000000000000000000000000000000000000000000000000          DEM Attorney General                                    OVER VOTES                            102 - Rock Island                                      01 
00160030003000000000000000000000000000000000000000000000000000000000000000000000000000000000000000000          DEM Attorney General                                    OVER VOTES                            103 - Garwood/Nada                                     01 
00160030004000000000000000000000000000000000000000000000000000000000000000000000000000000000000000000          DEM Attorney General                                    OVER VOTES                            201 - Weimar/Oakland                                   01 
00160030005000000000000000000000000000000000000000000000000000000000000000000000000000000000000000000          DEM Attorney General                                    OVER VOTES                            202 - Sheridan                                         01 
00160030006000000000000000000000000000000000000000000000000000000000000000000000000000000000000000000          DEM Attorney General                                    OVER VOTES                            302 - Frelsburg/Brushy                                 01 
00160030007000000000000000000000000000000000000000000000000000000000000000000000000000000000000000000          DEM Attorney General                                    OVER VOTES                            303 - Mentz                                            01 
00160030008000000000000000000000000000000000000000000000000000000000000000000000000000000000000000000          DEM Attorney General                                    OVER VOTES                            304 - Bernardo                                         01 
00160030009000000000000000000000000000000000000000000000000000000000000000000000000000000000000000000          DEM Attorney General                                    OVER VOTES                            305 - Columbus/Shaws Bend                              01 
00160030010000000000000000000000000000000000000000000000000000000000000000000000000000000000000000000          DEM Attorney General                                    OVER VOTES                            401 - Alleyton/Altair                                  01 
00160030011000000000000000000000000000000000000000000000000000000000000000000000000000000000000000000          DEM Attorney General                                    OVER VOTES                            402 Eagle Lake                                         01 
00160040001000000000000000000000000000000000000000000000000000000000000000000000000000000000000000000          DEM Attorney General                                    UNDER VOTES                           101 - Columbus/Glidden                                 01 
00160040002000000000000000000000000000000000000000000000000000000000000000000000000000000000000000000          DEM Attorney General                                    UNDER VOTES                           102 - Rock Island                                      01 
00160040003000000000000000000000000000000000000000000000000000000000000000000000000000000000000000000          DEM Attorney General                                    UNDER VOTES                           103 - Garwood/Nada                                     01 
00160040004000002000000000000000002000000000000000000000000000000000000000000000000000000000000000000          DEM Attorney General                                    UNDER VOTES                           201 - Weimar/Oakland                                   01 
00160040005000000000000000000000000000000000000000000000000000000000000000000000000000000000000000000          DEM Attorney General                                    UNDER VOTES                           202 - Sheridan                                         01 
00160040006000000000000000000000000000000000000000000000000000000000000000000000000000000000000000000          DEM Attorney General                                    UNDER VOTES                           302 - Frelsburg/Brushy                                 01 
00160040007000000000000000000000000000000000000000000000000000000000000000000000000000000000000000000          DEM Attorney General                                    UNDER VOTES                           303 - Mentz                                            01 
00160040008000000000000000000000000000000000000000000000000000000000000000000000000000000000000000000          DEM Attorney General                                    UNDER VOTES                           304 - Bernardo                                         01 
00160040009000000000000000000000000000000000000000000000000000000000000000000000000000000000000000000          DEM Attorney General                                    UNDER VOTES                           305 - Columbus/Shaws Bend                              01 
00160040010000000000000000000000000000000000000000000000000000000000000000000000000000000000000000000          DEM Attorney General                                    UNDER VOTES                           401 - Alleyton/Altair                                  01 
00160040011000000000000000000000000000000000000000000000000000000000000000000000000000000000000000000          DEM Attorney General                                    UNDER VOTES                           402 Eagle Lake                                         01 
00170010001000027000012000007000008000000000000000000000000000000000000000000000000000000000000000000DEM       DEM Comptroller of Public Accounts                      Janet T. Dudding                      101 - Columbus/Glidden                                 01 
00170010002000001000000000001000000000000000000000000000000000000000000000000000000000000000000000000DEM       DEM Comptroller of Public Accounts                      Janet T. Dudding                      102 - Rock Island                                      01 
00170010003000003000003000000000000000000000000000000000000000000000000000000000000000000000000000000DEM       DEM Comptroller of Public Accounts                      Janet T. Dudding                      103 - Garwood/Nada                                     01 
00170010004000035000012000002000021000000000000000000000000000000000000000000000000000000000000000000DEM       DEM Comptroller of Public Accounts                      Janet T. Dudding                      201 - Weimar/Oakland                                   01 
00170010005000003000002000001000000000000000000000000000000000000000000000000000000000000000000000000DEM       DEM Comptroller of Public Accounts                      Janet T. Dudding                      202 - Sheridan                                         01 
00170010006000007000005000001000001000000000000000000000000000000000000000000000000000000000000000000DEM       DEM Comptroller of Public Accounts                      Janet T. Dudding                      302 - Frelsburg/Brushy                                 01 
