00010010001000359000000000000000000000000000000000000000000000000000000000000000000000000000000000000          REGISTERED VOTERS - TOTAL                               REGISTERED VOTERS - TOTAL             Precinct 1                                             00 
00010010002000086000000000000000000000000000000000000000000000000000000000000000000000000000000000000          REGISTERED VOTERS - TOTAL                               REGISTERED VOTERS - TOTAL             Precinct 2                                             00 
00010010003000026000000000000000000000000000000000000000000000000000000000000000000000000000000000000          REGISTERED VOTERS - TOTAL                               REGISTERED VOTERS - TOTAL             Precinct 3                                             00 
00010010004000041000000000000000000000000000000000000000000000000000000000000000000000000000000000000          REGISTERED VOTERS - TOTAL                               REGISTERED VOTERS - TOTAL             Precinct 4                                             00 
00010010005000031000000000000000000000000000000000000000000000000000000000000000000000000000000000000          REGISTERED VOTERS - TOTAL                               REGISTERED VOTERS - TOTAL             Precinct 5                                             00 
00010010006000380000000000000000000000000000000000000000000000000000000000000000000000000000000000000          REGISTERED VOTERS - TOTAL                               REGISTERED VOTERS - TOTAL             Precinct 6                                             00 
00010010007000686000000000000000000000000000000000000000000000000000000000000000000000000000000000000          REGISTERED VOTERS - TOTAL                               REGISTERED VOTERS - TOTAL             Precinct 7                                             00 
00010010008000731000000000000000000000000000000000000000000000000000000000000000000000000000000000000          REGISTERED VOTERS - TOTAL                               REGISTERED VOTERS - TOTAL             Precinct 8                                             00 
00010010009000585000000000000000000000000000000000000000000000000000000000000000000000000000000000000          REGISTERED VOTERS - TOTAL                               REGISTERED VOTERS - TOTAL             Precinct 9                                             00 
00020010001000000000000000000000000000000000000000000000000000000000000000000000000000000000000000000REP       REGISTERED VOTERS - Republican Party                    REGISTERED VOTERS - Republican Party  Precinct 1                                             00 
00020010002000000000000000000000000000000000000000000000000000000000000000000000000000000000000000000REP       REGISTERED VOTERS - Republican Party                    REGISTERED VOTERS - Republican Party  Precinct 2                                             00 
00020010003000000000000000000000000000000000000000000000000000000000000000000000000000000000000000000REP       REGISTERED VOTERS - Republican Party                    REGISTERED VOTERS - Republican Party  Precinct 3                                             00 
00020010004000000000000000000000000000000000000000000000000000000000000000000000000000000000000000000REP       REGISTERED VOTERS - Republican Party                    REGISTERED VOTERS - Republican Party  Precinct 4                                             00 
00020010005000000000000000000000000000000000000000000000000000000000000000000000000000000000000000000REP       REGISTERED VOTERS - Republican Party                    REGISTERED VOTERS - Republican Party  Precinct 5                                             00 
00020010006000000000000000000000000000000000000000000000000000000000000000000000000000000000000000000REP       REGISTERED VOTERS - Republican Party                    REGISTERED VOTERS - Republican Party  Precinct 6                                             00 
00020010007000000000000000000000000000000000000000000000000000000000000000000000000000000000000000000REP       REGISTERED VOTERS - Republican Party                    REGISTERED VOTERS - Republican Party  Precinct 7                                             00 
00020010008000000000000000000000000000000000000000000000000000000000000000000000000000000000000000000REP       REGISTERED VOTERS - Republican Party                    REGISTERED VOTERS - Republican Party  Precinct 8                                             00 
00020010009000000000000000000000000000000000000000000000000000000000000000000000000000000000000000000REP       REGISTERED VOTERS - Republican Party                    REGISTERED VOTERS - Republican Party  Precinct 9                                             00 
00030010001000000000000000000000000000000000000000000000000000000000000000000000000000000000000000000DEM       REGISTERED VOTERS - Democratic Party                    REGISTERED VOTERS - Democratic Party  Precinct 1                                             00 
00030010002000000000000000000000000000000000000000000000000000000000000000000000000000000000000000000DEM       REGISTERED VOTERS - Democratic Party                    REGISTERED VOTERS - Democratic Party  Precinct 2                                             00 
00030010003000000000000000000000000000000000000000000000000000000000000000000000000000000000000000000DEM       REGISTERED VOTERS - Democratic Party                    REGISTERED VOTERS - Democratic Party  Precinct 3                                             00 
00030010004000000000000000000000000000000000000000000000000000000000000000000000000000000000000000000DEM       REGISTERED VOTERS - Democratic Party                    REGISTERED VOTERS - Democratic Party  Precinct 4                                             00 
00030010005000000000000000000000000000000000000000000000000000000000000000000000000000000000000000000DEM       REGISTERED VOTERS - Democratic Party                    REGISTERED VOTERS - Democratic Party  Precinct 5                                             00 
00030010006000000000000000000000000000000000000000000000000000000000000000000000000000000000000000000DEM       REGISTERED VOTERS - Democratic Party                    REGISTERED VOTERS - Democratic Party  Precinct 6                                             00 
00030010007000000000000000000000000000000000000000000000000000000000000000000000000000000000000000000DEM       REGISTERED VOTERS - Democratic Party                    REGISTERED VOTERS - Democratic Party  Precinct 7                                             00 
00030010008000000000000000000000000000000000000000000000000000000000000000000000000000000000000000000DEM       REGISTERED VOTERS - Democratic Party                    REGISTERED VOTERS - Democratic Party  Precinct 8                                             00 
00030010009000000000000000000000000000000000000000000000000000000000000000000000000000000000000000000DEM       REGISTERED VOTERS - Democratic Party                    REGISTERED VOTERS - Democratic Party  Precinct 9                                             00 
00040010001000359000000000000000000000000000000000000000000000000000000000000000000000000000000000000NON       REGISTERED VOTERS - NONPARTISAN                         REGISTERED VOTERS - NONPARTISAN       Precinct 1                                             00 
00040010002000086000000000000000000000000000000000000000000000000000000000000000000000000000000000000NON       REGISTERED VOTERS - NONPARTISAN                         REGISTERED VOTERS - NONPARTISAN       Precinct 2                                             00 
00040010003000026000000000000000000000000000000000000000000000000000000000000000000000000000000000000NON       REGISTERED VOTERS - NONPARTISAN                         REGISTERED VOTERS - NONPARTISAN       Precinct 3                                             00 
00040010004000041000000000000000000000000000000000000000000000000000000000000000000000000000000000000NON       REGISTERED VOTERS - NONPARTISAN                         REGISTERED VOTERS - NONPARTISAN       Precinct 4                                             00 
00040010005000031000000000000000000000000000000000000000000000000000000000000000000000000000000000000NON       REGISTERED VOTERS - NONPARTISAN                         REGISTERED VOTERS - NONPARTISAN       Precinct 5                                             00 
00040010006000380000000000000000000000000000000000000000000000000000000000000000000000000000000000000NON       REGISTERED VOTERS - NONPARTISAN                         REGISTERED VOTERS - NONPARTISAN       Precinct 6                                             00 
00040010007000686000000000000000000000000000000000000000000000000000000000000000000000000000000000000NON       REGISTERED VOTERS - NONPARTISAN                         REGISTERED VOTERS - NONPARTISAN       Precinct 7                                             00 
00040010008000731000000000000000000000000000000000000000000000000000000000000000000000000000000000000NON       REGISTERED VOTERS - NONPARTISAN                         REGISTERED VOTERS - NONPARTISAN       Precinct 8                                             00 
00040010009000585000000000000000000000000000000000000000000000000000000000000000000000000000000000000NON       REGISTERED VOTERS - NONPARTISAN                         REGISTERED VOTERS - NONPARTISAN       Precinct 9                                             00 
00050010001000037000010000003000024000000000000000000000000000000000000000000000000000000000000000000          BALLOTS CAST - TOTAL                                    BALLOTS CAST - TOTAL                  Precinct 1                                             00 
00050010002000003000000000000000003000000000000000000000000000000000000000000000000000000000000000000          BALLOTS CAST - TOTAL                                    BALLOTS CAST - TOTAL                  Precinct 2                                             00 
00050010003000003000000000001000002000000000000000000000000000000000000000000000000000000000000000000          BALLOTS CAST - TOTAL                                    BALLOTS CAST - TOTAL                  Precinct 3                                             00 
00050010004000003000001000002000000000000000000000000000000000000000000000000000000000000000000000000          BALLOTS CAST - TOTAL                                    BALLOTS CAST - TOTAL                  Precinct 4                                             00 
00050010005000002000002000000000000000000000000000000000000000000000000000000000000000000000000000000          BALLOTS CAST - TOTAL                                    BALLOTS CAST - TOTAL                  Precinct 5                                             00 
00050010006000019000008000004000007000000000000000000000000000000000000000000000000000000000000000000          BALLOTS CAST - TOTAL                                    BALLOTS CAST - TOTAL                  Precinct 6                                             00 
00050010007000021000009000001000011000000000000000000000000000000000000000000000000000000000000000000          BALLOTS CAST - TOTAL                                    BALLOTS CAST - TOTAL                  Precinct 7                                             00 
00050010008000043000016000010000017000000000000000000000000000000000000000000000000000000000000000000          BALLOTS CAST - TOTAL                                    BALLOTS CAST - TOTAL                  Precinct 8                                             00 
00050010009000021000009000004000008000000000000000000000000000000000000000000000000000000000000000000          BALLOTS CAST - TOTAL                                    BALLOTS CAST - TOTAL                  Precinct 9                                             00 
00060010001000035000008000003000024000000000000000000000000000000000000000000000000000000000000000000REP       BALLOTS CAST - Republican Party                         BALLOTS CAST - Republican Party       Precinct 1                                             00 
00060010002000003000000000000000003000000000000000000000000000000000000000000000000000000000000000000REP       BALLOTS CAST - Republican Party                         BALLOTS CAST - Republican Party       Precinct 2                                             00 
00060010003000003000000000001000002000000000000000000000000000000000000000000000000000000000000000000REP       BALLOTS CAST - Republican Party                         BALLOTS CAST - Republican Party       Precinct 3                                             00 
00060010004000003000001000002000000000000000000000000000000000000000000000000000000000000000000000000REP       BALLOTS CAST - Republican Party                         BALLOTS CAST - Republican Party       Precinct 4                                             00 
00060010005000002000002000000000000000000000000000000000000000000000000000000000000000000000000000000REP       BALLOTS CAST - Republican Party                         BALLOTS CAST - Republican Party       Precinct 5                                             00 
00060010006000018000008000004000006000000000000000000000000000000000000000000000000000000000000000000REP       BALLOTS CAST - Republican Party                         BALLOTS CAST - Republican Party       Precinct 6                                             00 
00060010007000016000006000001000009000000000000000000000000000000000000000000000000000000000000000000REP       BALLOTS CAST - Republican Party                         BALLOTS CAST - Republican Party       Precinct 7                                             00 
00060010008000040000014000009000017000000000000000000000000000000000000000000000000000000000000000000REP       BALLOTS CAST - Republican Party                         BALLOTS CAST - Republican Party       Precinct 8                                             00 
00060010009000021000009000004000008000000000000000000000000000000000000000000000000000000000000000000REP       BALLOTS CAST - Republican Party                         BALLOTS CAST - Republican Party       Precinct 9                                             00 
00070010001000002000002000000000000000000000000000000000000000000000000000000000000000000000000000000DEM       BALLOTS CAST - Democratic Party                         BALLOTS CAST - Democratic Party       Precinct 1                                             00 
00070010002000000000000000000000000000000000000000000000000000000000000000000000000000000000000000000DEM       BALLOTS CAST - Democratic Party                         BALLOTS CAST - Democratic Party       Precinct 2                                             00 
00070010003000000000000000000000000000000000000000000000000000000000000000000000000000000000000000000DEM       BALLOTS CAST - Democratic Party                         BALLOTS CAST - Democratic Party       Precinct 3                                             00 
00070010004000000000000000000000000000000000000000000000000000000000000000000000000000000000000000000DEM       BALLOTS CAST - Democratic Party                         BALLOTS CAST - Democratic Party       Precinct 4                                             00 
00070010005000000000000000000000000000000000000000000000000000000000000000000000000000000000000000000DEM       BALLOTS CAST - Democratic Party                         BALLOTS CAST - Democratic Party       Precinct 5                                             00 
00070010006000001000000000000000001000000000000000000000000000000000000000000000000000000000000000000DEM       BALLOTS CAST - Democratic Party                         BALLOTS CAST - Democratic Party       Precinct 6                                             00 
00070010007000005000003000000000002000000000000000000000000000000000000000000000000000000000000000000DEM       BALLOTS CAST - Democratic Party                         BALLOTS CAST - Democratic Party       Precinct 7                                             00 
00070010008000003000002000001000000000000000000000000000000000000000000000000000000000000000000000000DEM       BALLOTS CAST - Democratic Party                         BALLOTS CAST - Democratic Party       Precinct 8                                             00 
00070010009000000000000000000000000000000000000000000000000000000000000000000000000000000000000000000DEM       BALLOTS CAST - Democratic Party                         BALLOTS CAST - Democratic Party       Precinct 9                                             00 
00080010001000000000000000000000000000000000000000000000000000000000000000000000000000000000000000000NON       BALLOTS CAST - NONPARTISAN                              BALLOTS CAST - NONPARTISAN            Precinct 1                                             00 
00080010002000000000000000000000000000000000000000000000000000000000000000000000000000000000000000000NON       BALLOTS CAST - NONPARTISAN                              BALLOTS CAST - NONPARTISAN            Precinct 2                                             00 
00080010003000000000000000000000000000000000000000000000000000000000000000000000000000000000000000000NON       BALLOTS CAST - NONPARTISAN                              BALLOTS CAST - NONPARTISAN            Precinct 3                                             00 
00080010004000000000000000000000000000000000000000000000000000000000000000000000000000000000000000000NON       BALLOTS CAST - NONPARTISAN                              BALLOTS CAST - NONPARTISAN            Precinct 4                                             00 
00080010005000000000000000000000000000000000000000000000000000000000000000000000000000000000000000000NON       BALLOTS CAST - NONPARTISAN                              BALLOTS CAST - NONPARTISAN            Precinct 5                                             00 
00080010006000000000000000000000000000000000000000000000000000000000000000000000000000000000000000000NON       BALLOTS CAST - NONPARTISAN                              BALLOTS CAST - NONPARTISAN            Precinct 6                                             00 
00080010007000000000000000000000000000000000000000000000000000000000000000000000000000000000000000000NON       BALLOTS CAST - NONPARTISAN                              BALLOTS CAST - NONPARTISAN            Precinct 7                                             00 
00080010008000000000000000000000000000000000000000000000000000000000000000000000000000000000000000000NON       BALLOTS CAST - NONPARTISAN                              BALLOTS CAST - NONPARTISAN            Precinct 8                                             00 
00080010009000000000000000000000000000000000000000000000000000000000000000000000000000000000000000000NON       BALLOTS CAST - NONPARTISAN                              BALLOTS CAST - NONPARTISAN            Precinct 9                                             00 
00090010001000000000000000000000000000000000000000000000000000000000000000000000000000000000000000000          BALLOTS CAST - BLANK                                    BALLOTS CAST - BLANK                  Precinct 1                                             00 
00090010002000000000000000000000000000000000000000000000000000000000000000000000000000000000000000000          BALLOTS CAST - BLANK                                    BALLOTS CAST - BLANK                  Precinct 2                                             00 
00090010003000000000000000000000000000000000000000000000000000000000000000000000000000000000000000000          BALLOTS CAST - BLANK                                    BALLOTS CAST - BLANK                  Precinct 3                                             00 
00090010004000000000000000000000000000000000000000000000000000000000000000000000000000000000000000000          BALLOTS CAST - BLANK                                    BALLOTS CAST - BLANK                  Precinct 4                                             00 
00090010005000000000000000000000000000000000000000000000000000000000000000000000000000000000000000000          BALLOTS CAST - BLANK                                    BALLOTS CAST - BLANK                  Precinct 5                                             00 
00090010006000000000000000000000000000000000000000000000000000000000000000000000000000000000000000000          BALLOTS CAST - BLANK                                    BALLOTS CAST - BLANK                  Precinct 6                                             00 
00090010007000000000000000000000000000000000000000000000000000000000000000000000000000000000000000000          BALLOTS CAST - BLANK                                    BALLOTS CAST - BLANK                  Precinct 7                                             00 
00090010008000000000000000000000000000000000000000000000000000000000000000000000000000000000000000000          BALLOTS CAST - BLANK                                    BALLOTS CAST - BLANK                  Precinct 8                                             00 
00090010009000000000000000000000000000000000000000000000000000000000000000000000000000000000000000000          BALLOTS CAST - BLANK                                    BALLOTS CAST - BLANK                  Precinct 9                                             00 
00100010001000025000004000001000020000000000000000000000000000000000000000000000000000000000000000000REP       REP Attorney General                                    Ken Paxton                            Precinct 1                                             01 
00100010002000002000000000000000002000000000000000000000000000000000000000000000000000000000000000000REP       REP Attorney General                                    Ken Paxton                            Precinct 2                                             01 
00100010003000002000000000000000002000000000000000000000000000000000000000000000000000000000000000000REP       REP Attorney General                                    Ken Paxton                            Precinct 3                                             01 
00100010004000002000001000001000000000000000000000000000000000000000000000000000000000000000000000000REP       REP Attorney General                                    Ken Paxton                            Precinct 4                                             01 
00100010005000000000000000000000000000000000000000000000000000000000000000000000000000000000000000000REP       REP Attorney General                                    Ken Paxton                            Precinct 5                                             01 
00100010006000015000006000003000006000000000000000000000000000000000000000000000000000000000000000000REP       REP Attorney General                                    Ken Paxton                            Precinct 6                                             01 
00100010007000011000005000001000005000000000000000000000000000000000000000000000000000000000000000000REP       REP Attorney General                                    Ken Paxton                            Precinct 7                                             01 
00100010008000031000012000006000013000000000000000000000000000000000000000000000000000000000000000000REP       REP Attorney General                                    Ken Paxton                            Precinct 8                                             01 
00100010009000015000005000004000006000000000000000000000000000000000000000000000000000000000000000000REP       REP Attorney General                                    Ken Paxton                            Precinct 9                                             01 
00100020001000009000004000001000004000000000000000000000000000000000000000000000000000000000000000000REP       REP Attorney General                                    George P. Bush                        Precinct 1                                             01 
00100020002000001000000000000000001000000000000000000000000000000000000000000000000000000000000000000REP       REP Attorney General                                    George P. Bush                        Precinct 2                                             01 
00100020003000001000000000001000000000000000000000000000000000000000000000000000000000000000000000000REP       REP Attorney General                                    George P. Bush                        Precinct 3                                             01 
00100020004000001000000000001000000000000000000000000000000000000000000000000000000000000000000000000REP       REP Attorney General                                    George P. Bush                        Precinct 4                                             01 
00100020005000002000002000000000000000000000000000000000000000000000000000000000000000000000000000000REP       REP Attorney General                                    George P. Bush                        Precinct 5                                             01 
00100020006000003000002000001000000000000000000000000000000000000000000000000000000000000000000000000REP       REP Attorney General                                    George P. Bush                        Precinct 6                                             01 
00100020007000005000001000000000004000000000000000000000000000000000000000000000000000000000000000000REP       REP Attorney General                                    George P. Bush                        Precinct 7                                             01 
00100020008000009000002000003000004000000000000000000000000000000000000000000000000000000000000000000REP       REP Attorney General                                    George P. Bush                        Precinct 8                                             01 
00100020009000006000004000000000002000000000000000000000000000000000000000000000000000000000000000000REP       REP Attorney General                                    George P. Bush                        Precinct 9                                             01 
00110010001000011000002000000000009000000000000000000000000000000000000000000000000000000000000000000REP       REP Comm General Land Office                            Tim Westley                           Precinct 1                                             01 
00110010002000001000000000000000001000000000000000000000000000000000000000000000000000000000000000000REP       REP Comm General Land Office                            Tim Westley                           Precinct 2                                             01 
00110010003000001000000000000000001000000000000000000000000000000000000000000000000000000000000000000REP       REP Comm General Land Office                            Tim Westley                           Precinct 3                                             01 
00110010004000002000000000002000000000000000000000000000000000000000000000000000000000000000000000000REP       REP Comm General Land Office                            Tim Westley                           Precinct 4                                             01 
00110010005000001000001000000000000000000000000000000000000000000000000000000000000000000000000000000REP       REP Comm General Land Office                            Tim Westley                           Precinct 5                                             01 
00110010006000012000005000003000004000000000000000000000000000000000000000000000000000000000000000000REP       REP Comm General Land Office                            Tim Westley                           Precinct 6                                             01 
00110010007000008000002000001000005000000000000000000000000000000000000000000000000000000000000000000REP       REP Comm General Land Office                            Tim Westley                           Precinct 7                                             01 
00110010008000021000008000005000008000000000000000000000000000000000000000000000000000000000000000000REP       REP Comm General Land Office                            Tim Westley                           Precinct 8                                             01 
00110010009000013000005000002000006000000000000000000000000000000000000000000000000000000000000000000REP       REP Comm General Land Office                            Tim Westley                           Precinct 9                                             01 
00110020001000020000004000003000013000000000000000000000000000000000000000000000000000000000000000000REP       REP Comm General Land Office                            Dawn Buckingham                       Precinct 1                                             01 
00110020002000002000000000000000002000000000000000000000000000000000000000000000000000000000000000000REP       REP Comm General Land Office                            Dawn Buckingham                       Precinct 2                                             01 
00110020003000002000000000001000001000000000000000000000000000000000000000000000000000000000000000000REP       REP Comm General Land Office                            Dawn Buckingham                       Precinct 3                                             01 
00110020004000001000001000000000000000000000000000000000000000000000000000000000000000000000000000000REP       REP Comm General Land Office                            Dawn Buckingham                       Precinct 4                                             01 
00110020005000001000001000000000000000000000000000000000000000000000000000000000000000000000000000000REP       REP Comm General Land Office                            Dawn Buckingham                       Precinct 5                                             01 
00110020006000005000002000001000002000000000000000000000000000000000000000000000000000000000000000000REP       REP Comm General Land Office                            Dawn Buckingham                       Precinct 6                                             01 
00110020007000007000003000000000004000000000000000000000000000000000000000000000000000000000000000000REP       REP Comm General Land Office                            Dawn Buckingham                       Precinct 7                                             01 
00110020008000018000005000004000009000000000000000000000000000000000000000000000000000000000000000000REP       REP Comm General Land Office                            Dawn Buckingham                       Precinct 8                                             01 
00110020009000007000004000001000002000000000000000000000000000000000000000000000000000000000000000000REP       REP Comm General Land Office                            Dawn Buckingham                       Precinct 9                                             01 
00120010001000021000004000001000016000000000000000000000000000000000000000000000000000000000000000000REP       REP Railroad Commissioner                               Wayne Christian                       Precinct 1                                             01 
00120010002000003000000000000000003000000000000000000000000000000000000000000000000000000000000000000REP       REP Railroad Commissioner                               Wayne Christian                       Precinct 2                                             01 
00120010003000001000000000000000001000000000000000000000000000000000000000000000000000000000000000000REP       REP Railroad Commissioner                               Wayne Christian                       Precinct 3                                             01 
00120010004000003000001000002000000000000000000000000000000000000000000000000000000000000000000000000REP       REP Railroad Commissioner                               Wayne Christian                       Precinct 4                                             01 
00120010005000002000002000000000000000000000000000000000000000000000000000000000000000000000000000000REP       REP Railroad Commissioner                               Wayne Christian                       Precinct 5                                             01 
00120010006000013000006000002000005000000000000000000000000000000000000000000000000000000000000000000REP       REP Railroad Commissioner                               Wayne Christian                       Precinct 6                                             01 
00120010007000007000003000001000003000000000000000000000000000000000000000000000000000000000000000000REP       REP Railroad Commissioner                               Wayne Christian                       Precinct 7                                             01 
00120010008000033000013000008000012000000000000000000000000000000000000000000000000000000000000000000REP       REP Railroad Commissioner                               Wayne Christian                       Precinct 8                                             01 
00120010009000013000005000003000005000000000000000000000000000000000000000000000000000000000000000000REP       REP Railroad Commissioner                               Wayne Christian                       Precinct 9                                             01 
00120020001000010000002000002000006000000000000000000000000000000000000000000000000000000000000000000REP       REP Railroad Commissioner                               Sarah Stogner                         Precinct 1                                             01 
00120020002000000000000000000000000000000000000000000000000000000000000000000000000000000000000000000REP       REP Railroad Commissioner                               Sarah Stogner                         Precinct 2                                             01 
00120020003000002000000000001000001000000000000000000000000000000000000000000000000000000000000000000REP       REP Railroad Commissioner                               Sarah Stogner                         Precinct 3                                             01 
00120020004000000000000000000000000000000000000000000000000000000000000000000000000000000000000000000REP       REP Railroad Commissioner                               Sarah Stogner                         Precinct 4                                             01 
00120020005000000000000000000000000000000000000000000000000000000000000000000000000000000000000000000REP       REP Railroad Commissioner                               Sarah Stogner                         Precinct 5                                             01 
00120020006000004000001000002000001000000000000000000000000000000000000000000000000000000000000000000REP       REP Railroad Commissioner                               Sarah Stogner                         Precinct 6                                             01 
00120020007000007000002000000000005000000000000000000000000000000000000000000000000000000000000000000REP       REP Railroad Commissioner                               Sarah Stogner                         Precinct 7                                             01 
00120020008000006000000000001000005000000000000000000000000000000000000000000000000000000000000000000REP       REP Railroad Commissioner                               Sarah Stogner                         Precinct 8                                             01 
00120020009000007000004000000000003000000000000000000000000000000000000000000000000000000000000000000REP       REP Railroad Commissioner                               Sarah Stogner                         Precinct 9                                             01 
00130010001000001000001000000000000000000000000000000000000000000000000000000000000000000000000000000DEM       DEM Lieutenant Governor                                 Mike Collier                          Precinct 1                                             01 
00130010002000000000000000000000000000000000000000000000000000000000000000000000000000000000000000000DEM       DEM Lieutenant Governor                                 Mike Collier                          Precinct 2                                             01 
00130010003000000000000000000000000000000000000000000000000000000000000000000000000000000000000000000DEM       DEM Lieutenant Governor                                 Mike Collier                          Precinct 3                                             01 
00130010004000000000000000000000000000000000000000000000000000000000000000000000000000000000000000000DEM       DEM Lieutenant Governor                                 Mike Collier                          Precinct 4                                             01 
00130010005000000000000000000000000000000000000000000000000000000000000000000000000000000000000000000DEM       DEM Lieutenant Governor                                 Mike Collier                          Precinct 5                                             01 
00130010006000000000000000000000000000000000000000000000000000000000000000000000000000000000000000000DEM       DEM Lieutenant Governor                                 Mike Collier                          Precinct 6                                             01 
00130010007000003000002000000000001000000000000000000000000000000000000000000000000000000000000000000DEM       DEM Lieutenant Governor                                 Mike Collier                          Precinct 7                                             01 
00130010008000002000002000000000000000000000000000000000000000000000000000000000000000000000000000000DEM       DEM Lieutenant Governor                                 Mike Collier                          Precinct 8                                             01 
00130010009000000000000000000000000000000000000000000000000000000000000000000000000000000000000000000DEM       DEM Lieutenant Governor                                 Mike Collier                          Precinct 9                                             01 
00130020001000001000001000000000000000000000000000000000000000000000000000000000000000000000000000000DEM       DEM Lieutenant Governor                                 Michelle Beckley                      Precinct 1                                             01 
00130020002000000000000000000000000000000000000000000000000000000000000000000000000000000000000000000DEM       DEM Lieutenant Governor                                 Michelle Beckley                      Precinct 2                                             01 
00130020003000000000000000000000000000000000000000000000000000000000000000000000000000000000000000000DEM       DEM Lieutenant Governor                                 Michelle Beckley                      Precinct 3                                             01 
00130020004000000000000000000000000000000000000000000000000000000000000000000000000000000000000000000DEM       DEM Lieutenant Governor                                 Michelle Beckley                      Precinct 4                                             01 
00130020005000000000000000000000000000000000000000000000000000000000000000000000000000000000000000000DEM       DEM Lieutenant Governor                                 Michelle Beckley                      Precinct 5                                             01 
00130020006000001000000000000000001000000000000000000000000000000000000000000000000000000000000000000DEM       DEM Lieutenant Governor                                 Michelle Beckley                      Precinct 6                                             01 
00130020007000002000001000000000001000000000000000000000000000000000000000000000000000000000000000000DEM       DEM Lieutenant Governor                                 Michelle Beckley                      Precinct 7                                             01 
00130020008000001000000000001000000000000000000000000000000000000000000000000000000000000000000000000DEM       DEM Lieutenant Governor                                 Michelle Beckley                      Precinct 8                                             01 
00130020009000000000000000000000000000000000000000000000000000000000000000000000000000000000000000000DEM       DEM Lieutenant Governor                                 Michelle Beckley                      Precinct 9                                             01 
00140010001000000000000000000000000000000000000000000000000000000000000000000000000000000000000000000DEM       DEM Attorney General                                    Rochelle Mercedes Garza               Precinct 1                                             01 
00140010002000000000000000000000000000000000000000000000000000000000000000000000000000000000000000000DEM       DEM Attorney General                                    Rochelle Mercedes Garza               Precinct 2                                             01 
00140010003000000000000000000000000000000000000000000000000000000000000000000000000000000000000000000DEM       DEM Attorney General                                    Rochelle Mercedes Garza               Precinct 3                                             01 
00140010004000000000000000000000000000000000000000000000000000000000000000000000000000000000000000000DEM       DEM Attorney General                                    Rochelle Mercedes Garza               Precinct 4                                             01 
00140010005000000000000000000000000000000000000000000000000000000000000000000000000000000000000000000DEM       DEM Attorney General                                    Rochelle Mercedes Garza               Precinct 5                                             01 
00140010006000001000000000000000001000000000000000000000000000000000000000000000000000000000000000000DEM       DEM Attorney General                                    Rochelle Mercedes Garza               Precinct 6                                             01 
00140010007000002000000000000000002000000000000000000000000000000000000000000000000000000000000000000DEM       DEM Attorney General                                    Rochelle Mercedes Garza               Precinct 7                                             01 
00140010008000000000000000000000000000000000000000000000000000000000000000000000000000000000000000000DEM       DEM Attorney General                                    Rochelle Mercedes Garza               Precinct 8                                             01 
00140010009000000000000000000000000000000000000000000000000000000000000000000000000000000000000000000DEM       DEM Attorney General                                    Rochelle Mercedes Garza               Precinct 9                                             01 
00140020001000002000002000000000000000000000000000000000000000000000000000000000000000000000000000000DEM       DEM Attorney General                                    Joe Jaworski                          Precinct 1                                             01 
00140020002000000000000000000000000000000000000000000000000000000000000000000000000000000000000000000DEM       DEM Attorney General                                    Joe Jaworski                          Precinct 2                                             01 
00140020003000000000000000000000000000000000000000000000000000000000000000000000000000000000000000000DEM       DEM Attorney General                                    Joe Jaworski                          Precinct 3                                             01 
00140020004000000000000000000000000000000000000000000000000000000000000000000000000000000000000000000DEM       DEM Attorney General                                    Joe Jaworski                          Precinct 4                                             01 
00140020005000000000000000000000000000000000000000000000000000000000000000000000000000000000000000000DEM       DEM Attorney General                                    Joe Jaworski                          Precinct 5                                             01 
00140020006000000000000000000000000000000000000000000000000000000000000000000000000000000000000000000DEM       DEM Attorney General                                    Joe Jaworski                          Precinct 6                                             01 
00140020007000002000002000000000000000000000000000000000000000000000000000000000000000000000000000000DEM       DEM Attorney General                                    Joe Jaworski                          Precinct 7                                             01 
00140020008000003000002000001000000000000000000000000000000000000000000000000000000000000000000000000DEM       DEM Attorney General                                    Joe Jaworski                          Precinct 8                                             01 
00140020009000000000000000000000000000000000000000000000000000000000000000000000000000000000000000000DEM       DEM Attorney General                                    Joe Jaworski                          Precinct 9                                             01 
00150010001000000000000000000000000000000000000000000000000000000000000000000000000000000000000000000DEM       DEM Comptroller of Public Accounts                      Angel Luis Vega                       Precinct 1                                             01 
00150010002000000000000000000000000000000000000000000000000000000000000000000000000000000000000000000DEM       DEM Comptroller of Public Accounts                      Angel Luis Vega                       Precinct 2                                             01 
00150010003000000000000000000000000000000000000000000000000000000000000000000000000000000000000000000DEM       DEM Comptroller of Public Accounts                      Angel Luis Vega                       Precinct 3                                             01 
00150010004000000000000000000000000000000000000000000000000000000000000000000000000000000000000000000DEM       DEM Comptroller of Public Accounts                      Angel Luis Vega                       Precinct 4                                             01 
00150010005000000000000000000000000000000000000000000000000000000000000000000000000000000000000000000DEM       DEM Comptroller of Public Accounts                      Angel Luis Vega                       Precinct 5                                             01 
00150010006000000000000000000000000000000000000000000000000000000000000000000000000000000000000000000DEM       DEM Comptroller of Public Accounts                      Angel Luis Vega                       Precinct 6                                             01 
00150010007000002000001000000000001000000000000000000000000000000000000000000000000000000000000000000DEM       DEM Comptroller of Public Accounts                      Angel Luis Vega                       Precinct 7                                             01 
00150010008000001000000000001000000000000000000000000000000000000000000000000000000000000000000000000DEM       DEM Comptroller of Public Accounts                      Angel Luis Vega                       Precinct 8                                             01 
00150010009000000000000000000000000000000000000000000000000000000000000000000000000000000000000000000DEM       DEM Comptroller of Public Accounts                      Angel Luis Vega                       Precinct 9                                             01 
00150020001000001000001000000000000000000000000000000000000000000000000000000000000000000000000000000DEM       DEM Comptroller of Public Accounts                      Janet T. Dudding                      Precinct 1                                             01 
00150020002000000000000000000000000000000000000000000000000000000000000000000000000000000000000000000DEM       DEM Comptroller of Public Accounts                      Janet T. Dudding                      Precinct 2                                             01 
00150020003000000000000000000000000000000000000000000000000000000000000000000000000000000000000000000DEM       DEM Comptroller of Public Accounts                      Janet T. Dudding                      Precinct 3                                             01 
00150020004000000000000000000000000000000000000000000000000000000000000000000000000000000000000000000DEM       DEM Comptroller of Public Accounts                      Janet T. Dudding                      Precinct 4                                             01 
00150020005000000000000000000000000000000000000000000000000000000000000000000000000000000000000000000DEM       DEM Comptroller of Public Accounts                      Janet T. Dudding                      Precinct 5                                             01 
00150020006000001000000000000000001000000000000000000000000000000000000000000000000000000000000000000DEM       DEM Comptroller of Public Accounts                      Janet T. Dudding                      Precinct 6                                             01 
00150020007000003000002000000000001000000000000000000000000000000000000000000000000000000000000000000DEM       DEM Comptroller of Public Accounts                      Janet T. Dudding                      Precinct 7                                             01 
00150020008000002000002000000000000000000000000000000000000000000000000000000000000000000000000000000DEM       DEM Comptroller of Public Accounts                      Janet T. Dudding                      Precinct 8                                             01 
00150020009000000000000000000000000000000000000000000000000000000000000000000000000000000000000000000DEM       DEM Comptroller of Public Accounts                      Janet T. Dudding                      Precinct 9                                             01 
00160010001000002000002000000000000000000000000000000000000000000000000000000000000000000000000000000DEM       DEM Comm General Land Office                            Jay Kleberg                           Precinct 1                                             01 
00160010002000000000000000000000000000000000000000000000000000000000000000000000000000000000000000000DEM       DEM Comm General Land Office                            Jay Kleberg                           Precinct 2                                             01 
00160010003000000000000000000000000000000000000000000000000000000000000000000000000000000000000000000DEM       DEM Comm General Land Office                            Jay Kleberg                           Precinct 3                                             01 
00160010004000000000000000000000000000000000000000000000000000000000000000000000000000000000000000000DEM       DEM Comm General Land Office                            Jay Kleberg                           Precinct 4                                             01 
00160010005000000000000000000000000000000000000000000000000000000000000000000000000000000000000000000DEM       DEM Comm General Land Office                            Jay Kleberg                           Precinct 5                                             01 
00160010006000000000000000000000000000000000000000000000000000000000000000000000000000000000000000000DEM       DEM Comm General Land Office                            Jay Kleberg                           Precinct 6                                             01 
00160010007000002000002000000000000000000000000000000000000000000000000000000000000000000000000000000DEM       DEM Comm General Land Office                            Jay Kleberg                           Precinct 7                                             01 
00160010008000002000002000000000000000000000000000000000000000000000000000000000000000000000000000000DEM       DEM Comm General Land Office                            Jay Kleberg                           Precinct 8                                             01 
00160010009000000000000000000000000000000000000000000000000000000000000000000000000000000000000000000DEM       DEM Comm General Land Office                            Jay Kleberg                           Precinct 9                                             01 
00160020001000000000000000000000000000000000000000000000000000000000000000000000000000000000000000000DEM       DEM Comm General Land Office                            Sandragrace Martinez                  Precinct 1                                             01 
00160020002000000000000000000000000000000000000000000000000000000000000000000000000000000000000000000DEM       DEM Comm General Land Office                            Sandragrace Martinez                  Precinct 2                                             01 
00160020003000000000000000000000000000000000000000000000000000000000000000000000000000000000000000000DEM       DEM Comm General Land Office                            Sandragrace Martinez                  Precinct 3                                             01 
00160020004000000000000000000000000000000000000000000000000000000000000000000000000000000000000000000DEM       DEM Comm General Land Office                            Sandragrace Martinez                  Precinct 4                                             01 
00160020005000000000000000000000000000000000000000000000000000000000000000000000000000000000000000000DEM       DEM Comm General Land Office                            Sandragrace Martinez                  Precinct 5                                             01 
00160020006000001000000000000000001000000000000000000000000000000000000000000000000000000000000000000DEM       DEM Comm General Land Office                            Sandragrace Martinez                  Precinct 6                                             01 
00160020007000003000001000000000002000000000000000000000000000000000000000000000000000000000000000000DEM       DEM Comm General Land Office                            Sandragrace Martinez                  Precinct 7                                             01 
00160020008000001000000000001000000000000000000000000000000000000000000000000000000000000000000000000DEM       DEM Comm General Land Office                            Sandragrace Martinez                  Precinct 8                                             01 
00160020009000000000000000000000000000000000000000000000000000000000000000000000000000000000000000000DEM       DEM Comm General Land Office                            Sandragrace Martinez                  Precinct 9                                             01 
