00020010001002238DEM       REGISTERED VOTERS - Democratic Party                    REGISTERED VOTERS - Democratic Party  1001                                                   00 
00020010002000163DEM       REGISTERED VOTERS - Democratic Party                    REGISTERED VOTERS - Democratic Party  1002                                                   00 
00020010003002443DEM       REGISTERED VOTERS - Democratic Party                    REGISTERED VOTERS - Democratic Party  1003                                                   00 
00020010004000013DEM       REGISTERED VOTERS - Democratic Party                    REGISTERED VOTERS - Democratic Party  1004                                                   00 
00020010005003521DEM       REGISTERED VOTERS - Democratic Party                    REGISTERED VOTERS - Democratic Party  1005                                                   00 
00020010006003782DEM       REGISTERED VOTERS - Democratic Party                    REGISTERED VOTERS - Democratic Party  1006                                                   00 
00020010007002016DEM       REGISTERED VOTERS - Democratic Party                    REGISTERED VOTERS - Democratic Party  1007                                                   00 
00020010008000155DEM       REGISTERED VOTERS - Democratic Party                    REGISTERED VOTERS - Democratic Party  1008                                                   00 
00020010009003403DEM       REGISTERED VOTERS - Democratic Party                    REGISTERED VOTERS - Democratic Party  1009                                                   00 
00020010010002096DEM       REGISTERED VOTERS - Democratic Party                    REGISTERED VOTERS - Democratic Party  1010                                                   00 
00020010011002885DEM       REGISTERED VOTERS - Democratic Party                    REGISTERED VOTERS - Democratic Party  1011                                                   00 
00020010012003565DEM       REGISTERED VOTERS - Democratic Party                    REGISTERED VOTERS - Democratic Party  1012                                                   00 
00020010013001858DEM       REGISTERED VOTERS - Democratic Party                    REGISTERED VOTERS - Democratic Party  1013                                                   00 
00020010014001895DEM       REGISTERED VOTERS - Democratic Party                    REGISTERED VOTERS - Democratic Party  1014                                                   00 
00020010015003007DEM       REGISTERED VOTERS - Democratic Party                    REGISTERED VOTERS - Democratic Party  1015                                                   00 
00020010016001910DEM       REGISTERED VOTERS - Democratic Party                    REGISTERED VOTERS - Democratic Party  1016                                                   00 
00020010017002864DEM       REGISTERED VOTERS - Democratic Party                    REGISTERED VOTERS - Democratic Party  1017                                                   00 
00020010018002489DEM       REGISTERED VOTERS - Democratic Party                    REGISTERED VOTERS - Democratic Party  1018                                                   00 
00020010019002423DEM       REGISTERED VOTERS - Democratic Party                    REGISTERED VOTERS - Democratic Party  1019                                                   00 
00020010020001861DEM       REGISTERED VOTERS - Democratic Party                    REGISTERED VOTERS - Democratic Party  1020                                                   00 
00020010021001464DEM       REGISTERED VOTERS - Democratic Party                    REGISTERED VOTERS - Democratic Party  1021                                                   00 
00020010022003056DEM       REGISTERED VOTERS - Democratic Party                    REGISTERED VOTERS - Democratic Party  1022                                                   00 
00020010023000000DEM       REGISTERED VOTERS - Democratic Party                    REGISTERED VOTERS - Democratic Party  1023                                                   00 
00020010024002192DEM       REGISTERED VOTERS - Democratic Party                    REGISTERED VOTERS - Democratic Party  1024                                                   00 
00020010025002801DEM       REGISTERED VOTERS - Democratic Party                    REGISTERED VOTERS - Democratic Party  1025                                                   00 
00020010026002657DEM       REGISTERED VOTERS - Democratic Party                    REGISTERED VOTERS - Democratic Party  1026                                                   00 
00020010027002718DEM       REGISTERED VOTERS - Democratic Party                    REGISTERED VOTERS - Democratic Party  1027                                                   00 
00020010028002771DEM       REGISTERED VOTERS - Democratic Party                    REGISTERED VOTERS - Democratic Party  1028                                                   00 
00020010029000663DEM       REGISTERED VOTERS - Democratic Party                    REGISTERED VOTERS - Democratic Party  1029                                                   00 
00020010030002001DEM       REGISTERED VOTERS - Democratic Party                    REGISTERED VOTERS - Democratic Party  1030                                                   00 
00020010031000689DEM       REGISTERED VOTERS - Democratic Party                    REGISTERED VOTERS - Democratic Party  1031                                                   00 
00020010032003501DEM       REGISTERED VOTERS - Democratic Party                    REGISTERED VOTERS - Democratic Party  1032                                                   00 
00020010033002151DEM       REGISTERED VOTERS - Democratic Party                    REGISTERED VOTERS - Democratic Party  1033                                                   00 
00020010034004120DEM       REGISTERED VOTERS - Democratic Party                    REGISTERED VOTERS - Democratic Party  1034                                                   00 
00020010035001910DEM       REGISTERED VOTERS - Democratic Party                    REGISTERED VOTERS - Democratic Party  1035                                                   00 
00020010036003634DEM       REGISTERED VOTERS - Democratic Party                    REGISTERED VOTERS - Democratic Party  1036                                                   00 
00020010037001830DEM       REGISTERED VOTERS - Democratic Party                    REGISTERED VOTERS - Democratic Party  1037                                                   00 
00020010038004183DEM       REGISTERED VOTERS - Democratic Party                    REGISTERED VOTERS - Democratic Party  1038                                                   00 
00020010039003673DEM       REGISTERED VOTERS - Democratic Party                    REGISTERED VOTERS - Democratic Party  1039                                                   00 
00020010040000368DEM       REGISTERED VOTERS - Democratic Party                    REGISTERED VOTERS - Democratic Party  1040                                                   00 
00020010041002665DEM       REGISTERED VOTERS - Democratic Party                    REGISTERED VOTERS - Democratic Party  1041                                                   00 
00020010042000407DEM       REGISTERED VOTERS - Democratic Party                    REGISTERED VOTERS - Democratic Party  1042                                                   00 
00020010043003875DEM       REGISTERED VOTERS - Democratic Party                    REGISTERED VOTERS - Democratic Party  1043                                                   00 
00020010044000607DEM       REGISTERED VOTERS - Democratic Party                    REGISTERED VOTERS - Democratic Party  1044                                                   00 
00020010045000155DEM       REGISTERED VOTERS - Democratic Party                    REGISTERED VOTERS - Democratic Party  1045                                                   00 
00020010046000411DEM       REGISTERED VOTERS - Democratic Party                    REGISTERED VOTERS - Democratic Party  1046                                                   00 
00020010047000361DEM       REGISTERED VOTERS - Democratic Party                    REGISTERED VOTERS - Democratic Party  1047                                                   00 
00020010048002095DEM       REGISTERED VOTERS - Democratic Party                    REGISTERED VOTERS - Democratic Party  1048                                                   00 
00020010049000648DEM       REGISTERED VOTERS - Democratic Party                    REGISTERED VOTERS - Democratic Party  1049                                                   00 
00020010050003507DEM       REGISTERED VOTERS - Democratic Party                    REGISTERED VOTERS - Democratic Party  1050                                                   00 
00020010051003319DEM       REGISTERED VOTERS - Democratic Party                    REGISTERED VOTERS - Democratic Party  1051                                                   00 
00020010052002526DEM       REGISTERED VOTERS - Democratic Party                    REGISTERED VOTERS - Democratic Party  1052                                                   00 
00020010053002117DEM       REGISTERED VOTERS - Democratic Party                    REGISTERED VOTERS - Democratic Party  1053                                                   00 
00020010054002853DEM       REGISTERED VOTERS - Democratic Party                    REGISTERED VOTERS - Democratic Party  1054                                                   00 
00020010055002871DEM       REGISTERED VOTERS - Democratic Party                    REGISTERED VOTERS - Democratic Party  1055                                                   00 
00020010056002860DEM       REGISTERED VOTERS - Democratic Party                    REGISTERED VOTERS - Democratic Party  1056                                                   00 
00020010057003105DEM       REGISTERED VOTERS - Democratic Party                    REGISTERED VOTERS - Democratic Party  1057                                                   00 
00020010058001300DEM       REGISTERED VOTERS - Democratic Party                    REGISTERED VOTERS - Democratic Party  1058                                                   00 
00020010059000730DEM       REGISTERED VOTERS - Democratic Party                    REGISTERED VOTERS - Democratic Party  1059                                                   00 
00040010001000032DEM       BALLOTS CAST - Democratic Party                         BALLOTS CAST - Democratic Party       1001                                                   00 
00040010002000000DEM       BALLOTS CAST - Democratic Party                         BALLOTS CAST - Democratic Party       1002                                                   00 
00040010003000048DEM       BALLOTS CAST - Democratic Party                         BALLOTS CAST - Democratic Party       1003                                                   00 
00040010004000000DEM       BALLOTS CAST - Democratic Party                         BALLOTS CAST - Democratic Party       1004                                                   00 
00040010005000059DEM       BALLOTS CAST - Democratic Party                         BALLOTS CAST - Democratic Party       1005                                                   00 
00040010006000052DEM       BALLOTS CAST - Democratic Party                         BALLOTS CAST - Democratic Party       1006                                                   00 
00040010007000026DEM       BALLOTS CAST - Democratic Party                         BALLOTS CAST - Democratic Party       1007                                                   00 
00040010008000003DEM       BALLOTS CAST - Democratic Party                         BALLOTS CAST - Democratic Party       1008                                                   00 
00040010009000030DEM       BALLOTS CAST - Democratic Party                         BALLOTS CAST - Democratic Party       1009                                                   00 
00040010010000032DEM       BALLOTS CAST - Democratic Party                         BALLOTS CAST - Democratic Party       1010                                                   00 
00040010011000045DEM       BALLOTS CAST - Democratic Party                         BALLOTS CAST - Democratic Party       1011                                                   00 
00040010012000056DEM       BALLOTS CAST - Democratic Party                         BALLOTS CAST - Democratic Party       1012                                                   00 
00040010013000016DEM       BALLOTS CAST - Democratic Party                         BALLOTS CAST - Democratic Party       1013                                                   00 
00040010014000020DEM       BALLOTS CAST - Democratic Party                         BALLOTS CAST - Democratic Party       1014                                                   00 
00040010015000027DEM       BALLOTS CAST - Democratic Party                         BALLOTS CAST - Democratic Party       1015                                                   00 
00040010016000027DEM       BALLOTS CAST - Democratic Party                         BALLOTS CAST - Democratic Party       1016                                                   00 
00040010017000032DEM       BALLOTS CAST - Democratic Party                         BALLOTS CAST - Democratic Party       1017                                                   00 
00040010018000038DEM       BALLOTS CAST - Democratic Party                         BALLOTS CAST - Democratic Party       1018                                                   00 
00040010019000034DEM       BALLOTS CAST - Democratic Party                         BALLOTS CAST - Democratic Party       1019                                                   00 
00040010020000024DEM       BALLOTS CAST - Democratic Party                         BALLOTS CAST - Democratic Party       1020                                                   00 
00040010021000020DEM       BALLOTS CAST - Democratic Party                         BALLOTS CAST - Democratic Party       1021                                                   00 
00040010022000043DEM       BALLOTS CAST - Democratic Party                         BALLOTS CAST - Democratic Party       1022                                                   00 
00040010023000000DEM       BALLOTS CAST - Democratic Party                         BALLOTS CAST - Democratic Party       1023                                                   00 
00040010024000031DEM       BALLOTS CAST - Democratic Party                         BALLOTS CAST - Democratic Party       1024                                                   00 
00040010025000047DEM       BALLOTS CAST - Democratic Party                         BALLOTS CAST - Democratic Party       1025                                                   00 
00040010026000029DEM       BALLOTS CAST - Democratic Party                         BALLOTS CAST - Democratic Party       1026                                                   00 
00040010027000043DEM       BALLOTS CAST - Democratic Party                         BALLOTS CAST - Democratic Party       1027                                                   00 
00040010028000032DEM       BALLOTS CAST - Democratic Party                         BALLOTS CAST - Democratic Party       1028                                                   00 
00040010029000008DEM       BALLOTS CAST - Democratic Party                         BALLOTS CAST - Democratic Party       1029                                                   00 
00040010030000028DEM       BALLOTS CAST - Democratic Party                         BALLOTS CAST - Democratic Party       1030                                                   00 
00040010031000005DEM       BALLOTS CAST - Democratic Party                         BALLOTS CAST - Democratic Party       1031                                                   00 
00040010032000028DEM       BALLOTS CAST - Democratic Party                         BALLOTS CAST - Democratic Party       1032                                                   00 
00040010033000025DEM       BALLOTS CAST - Democratic Party                         BALLOTS CAST - Democratic Party       1033                                                   00 
00040010034000039DEM       BALLOTS CAST - Democratic Party                         BALLOTS CAST - Democratic Party       1034                                                   00 
00040010035000010DEM       BALLOTS CAST - Democratic Party                         BALLOTS CAST - Democratic Party       1035                                                   00 
00040010036000023DEM       BALLOTS CAST - Democratic Party                         BALLOTS CAST - Democratic Party       1036                                                   00 
00040010037000008DEM       BALLOTS CAST - Democratic Party                         BALLOTS CAST - Democratic Party       1037                                                   00 
00040010038000058DEM       BALLOTS CAST - Democratic Party                         BALLOTS CAST - Democratic Party       1038                                                   00 
00040010039000020DEM       BALLOTS CAST - Democratic Party                         BALLOTS CAST - Democratic Party       1039                                                   00 
00040010040000003DEM       BALLOTS CAST - Democratic Party                         BALLOTS CAST - Democratic Party       1040                                                   00 
00040010041000030DEM       BALLOTS CAST - Democratic Party                         BALLOTS CAST - Democratic Party       1041                                                   00 
00040010042000006DEM       BALLOTS CAST - Democratic Party                         BALLOTS CAST - Democratic Party       1042                                                   00 
00040010043000040DEM       BALLOTS CAST - Democratic Party                         BALLOTS CAST - Democratic Party       1043                                                   00 
00040010044000006DEM       BALLOTS CAST - Democratic Party                         BALLOTS CAST - Democratic Party       1044                                                   00 
00040010045000001DEM       BALLOTS CAST - Democratic Party                         BALLOTS CAST - Democratic Party       1045                                                   00 
00040010046000005DEM       BALLOTS CAST - Democratic Party                         BALLOTS CAST - Democratic Party       1046                                                   00 
00040010047000004DEM       BALLOTS CAST - Democratic Party                         BALLOTS CAST - Democratic Party       1047                                                   00 
00040010048000027DEM       BALLOTS CAST - Democratic Party                         BALLOTS CAST - Democratic Party       1048                                                   00 
00040010049000005DEM       BALLOTS CAST - Democratic Party                         BALLOTS CAST - Democratic Party       1049                                                   00 
00040010050000092DEM       BALLOTS CAST - Democratic Party                         BALLOTS CAST - Democratic Party       1050                                                   00 
00040010051000048DEM       BALLOTS CAST - Democratic Party                         BALLOTS CAST - Democratic Party       1051                                                   00 
00040010052000069DEM       BALLOTS CAST - Democratic Party                         BALLOTS CAST - Democratic Party       1052                                                   00 
00040010053000070DEM       BALLOTS CAST - Democratic Party                         BALLOTS CAST - Democratic Party       1053                                                   00 
00040010054000070DEM       BALLOTS CAST - Democratic Party                         BALLOTS CAST - Democratic Party       1054                                                   00 
00040010055000061DEM       BALLOTS CAST - Democratic Party                         BALLOTS CAST - Democratic Party       1055                                                   00 
00040010056000037DEM       BALLOTS CAST - Democratic Party                         BALLOTS CAST - Democratic Party       1056                                                   00 
00040010057000065DEM       BALLOTS CAST - Democratic Party                         BALLOTS CAST - Democratic Party       1057                                                   00 
00040010058000009DEM       BALLOTS CAST - Democratic Party                         BALLOTS CAST - Democratic Party       1058                                                   00 
00040010059000004DEM       BALLOTS CAST - Democratic Party                         BALLOTS CAST - Democratic Party       1059                                                   00 
00050010001000018DEM       DEM Lieutenant Governor                                 Michelle Beckley                      1001                                                   01 
00050010002000000DEM       DEM Lieutenant Governor                                 Michelle Beckley                      1002                                                   01 
00050010003000025DEM       DEM Lieutenant Governor                                 Michelle Beckley                      1003                                                   01 
00050010004000000DEM       DEM Lieutenant Governor                                 Michelle Beckley                      1004                                                   01 
00050010005000028DEM       DEM Lieutenant Governor                                 Michelle Beckley                      1005                                                   01 
00050010006000030DEM       DEM Lieutenant Governor                                 Michelle Beckley                      1006                                                   01 
00050010007000016DEM       DEM Lieutenant Governor                                 Michelle Beckley                      1007                                                   01 
00050010008000002DEM       DEM Lieutenant Governor                                 Michelle Beckley                      1008                                                   01 
00050010009000020DEM       DEM Lieutenant Governor                                 Michelle Beckley                      1009                                                   01 
00050010010000009DEM       DEM Lieutenant Governor                                 Michelle Beckley                      1010                                                   01 
00050010011000028DEM       DEM Lieutenant Governor                                 Michelle Beckley                      1011                                                   01 
00050010012000029DEM       DEM Lieutenant Governor                                 Michelle Beckley                      1012                                                   01 
00050010013000009DEM       DEM Lieutenant Governor                                 Michelle Beckley                      1013                                                   01 
00050010014000005DEM       DEM Lieutenant Governor                                 Michelle Beckley                      1014                                                   01 
00050010015000009DEM       DEM Lieutenant Governor                                 Michelle Beckley                      1015                                                   01 
00050010016000013DEM       DEM Lieutenant Governor                                 Michelle Beckley                      1016                                                   01 
00050010017000016DEM       DEM Lieutenant Governor                                 Michelle Beckley                      1017                                                   01 
00050010018000015DEM       DEM Lieutenant Governor                                 Michelle Beckley                      1018                                                   01 
00050010019000011DEM       DEM Lieutenant Governor                                 Michelle Beckley                      1019                                                   01 
00050010020000008DEM       DEM Lieutenant Governor                                 Michelle Beckley                      1020                                                   01 
00050010021000009DEM       DEM Lieutenant Governor                                 Michelle Beckley                      1021                                                   01 
00050010022000012DEM       DEM Lieutenant Governor                                 Michelle Beckley                      1022                                                   01 
00050010023000000DEM       DEM Lieutenant Governor                                 Michelle Beckley                      1023                                                   01 
00050010024000016DEM       DEM Lieutenant Governor                                 Michelle Beckley                      1024                                                   01 
00050010025000018DEM       DEM Lieutenant Governor                                 Michelle Beckley                      1025                                                   01 
00050010026000007DEM       DEM Lieutenant Governor                                 Michelle Beckley                      1026                                                   01 
00050010027000030DEM       DEM Lieutenant Governor                                 Michelle Beckley                      1027                                                   01 
00050010028000018DEM       DEM Lieutenant Governor                                 Michelle Beckley                      1028                                                   01 
00050010029000005DEM       DEM Lieutenant Governor                                 Michelle Beckley                      1029                                                   01 
00050010030000015DEM       DEM Lieutenant Governor                                 Michelle Beckley                      1030                                                   01 
00050010031000003DEM       DEM Lieutenant Governor                                 Michelle Beckley                      1031                                                   01 
00050010032000017DEM       DEM Lieutenant Governor                                 Michelle Beckley                      1032                                                   01 
00050010033000015DEM       DEM Lieutenant Governor                                 Michelle Beckley                      1033                                                   01 
00050010034000018DEM       DEM Lieutenant Governor                                 Michelle Beckley                      1034                                                   01 
00050010035000006DEM       DEM Lieutenant Governor                                 Michelle Beckley                      1035                                                   01 
00050010036000009DEM       DEM Lieutenant Governor                                 Michelle Beckley                      1036                                                   01 
00050010037000005DEM       DEM Lieutenant Governor                                 Michelle Beckley                      1037                                                   01 
00050010038000024DEM       DEM Lieutenant Governor                                 Michelle Beckley                      1038                                                   01 
00050010039000012DEM       DEM Lieutenant Governor                                 Michelle Beckley                      1039                                                   01 
00050010040000001DEM       DEM Lieutenant Governor                                 Michelle Beckley                      1040                                                   01 
00050010041000014DEM       DEM Lieutenant Governor                                 Michelle Beckley                      1041                                                   01 
00050010042000002DEM       DEM Lieutenant Governor                                 Michelle Beckley                      1042                                                   01 
00050010043000024DEM       DEM Lieutenant Governor                                 Michelle Beckley                      1043                                                   01 
00050010044000002DEM       DEM Lieutenant Governor                                 Michelle Beckley                      1044                                                   01 
00050010045000000DEM       DEM Lieutenant Governor                                 Michelle Beckley                      1045                                                   01 
00050010046000002DEM       DEM Lieutenant Governor                                 Michelle Beckley                      1046                                                   01 
00050010047000000DEM       DEM Lieutenant Governor                                 Michelle Beckley                      1047                                                   01 
00050010048000016DEM       DEM Lieutenant Governor                                 Michelle Beckley                      1048                                                   01 
00050010049000001DEM       DEM Lieutenant Governor                                 Michelle Beckley                      1049                                                   01 
00050010050000052DEM       DEM Lieutenant Governor                                 Michelle Beckley                      1050                                                   01 
00050010051000028DEM       DEM Lieutenant Governor                                 Michelle Beckley                      1051                                                   01 
00050010052000041DEM       DEM Lieutenant Governor                                 Michelle Beckley                      1052                                                   01 
00050010053000039DEM       DEM Lieutenant Governor                                 Michelle Beckley                      1053                                                   01 
00050010054000046DEM       DEM Lieutenant Governor                                 Michelle Beckley                      1054                                                   01 
00050010055000025DEM       DEM Lieutenant Governor                                 Michelle Beckley                      1055                                                   01 
00050010056000019DEM       DEM Lieutenant Governor                                 Michelle Beckley                      1056                                                   01 
00050010057000025DEM       DEM Lieutenant Governor                                 Michelle Beckley                      1057                                                   01 
00050010058000003DEM       DEM Lieutenant Governor                                 Michelle Beckley                      1058                                                   01 
00050010059000001DEM       DEM Lieutenant Governor                                 Michelle Beckley                      1059                                                   01 
00050020001000013DEM       DEM Lieutenant Governor                                 Mike Collier                          1001                                                   01 
00050020002000000DEM       DEM Lieutenant Governor                                 Mike Collier                          1002                                                   01 
00050020003000023DEM       DEM Lieutenant Governor                                 Mike Collier                          1003                                                   01 
00050020004000000DEM       DEM Lieutenant Governor                                 Mike Collier                          1004                                                   01 
00050020005000029DEM       DEM Lieutenant Governor                                 Mike Collier                          1005                                                   01 
00050020006000022DEM       DEM Lieutenant Governor                                 Mike Collier                          1006                                                   01 
00050020007000008DEM       DEM Lieutenant Governor                                 Mike Collier                          1007                                                   01 
00050020008000001DEM       DEM Lieutenant Governor                                 Mike Collier                          1008                                                   01 
00050020009000010DEM       DEM Lieutenant Governor                                 Mike Collier                          1009                                                   01 
00050020010000023DEM       DEM Lieutenant Governor                                 Mike Collier                          1010                                                   01 
00050020011000017DEM       DEM Lieutenant Governor                                 Mike Collier                          1011                                                   01 
00050020012000027DEM       DEM Lieutenant Governor                                 Mike Collier                          1012                                                   01 
00050020013000006DEM       DEM Lieutenant Governor                                 Mike Collier                          1013                                                   01 
00050020014000015DEM       DEM Lieutenant Governor                                 Mike Collier                          1014                                                   01 
00050020015000018DEM       DEM Lieutenant Governor                                 Mike Collier                          1015                                                   01 
00050020016000014DEM       DEM Lieutenant Governor                                 Mike Collier                          1016                                                   01 
00050020017000016DEM       DEM Lieutenant Governor                                 Mike Collier                          1017                                                   01 
00050020018000022DEM       DEM Lieutenant Governor                                 Mike Collier                          1018                                                   01 
00050020019000023DEM       DEM Lieutenant Governor                                 Mike Collier                          1019                                                   01 
00050020020000016DEM       DEM Lieutenant Governor                                 Mike Collier                          1020                                                   01 
00050020021000011DEM       DEM Lieutenant Governor                                 Mike Collier                          1021                                                   01 
00050020022000030DEM       DEM Lieutenant Governor                                 Mike Collier                          1022                                                   01 
00050020023000000DEM       DEM Lieutenant Governor                                 Mike Collier                          1023                                                   01 
00050020024000013DEM       DEM Lieutenant Governor                                 Mike Collier                          1024                                                   01 
00050020025000026DEM       DEM Lieutenant Governor                                 Mike Collier                          1025                                                   01 
00050020026000020DEM       DEM Lieutenant Governor                                 Mike Collier                          1026                                                   01 
00050020027000013DEM       DEM Lieutenant Governor                                 Mike Collier                          1027                                                   01 
00050020028000014DEM       DEM Lieutenant Governor                                 Mike Collier                          1028                                                   01 
00050020029000003DEM       DEM Lieutenant Governor                                 Mike Collier                          1029                                                   01 
00050020030000013DEM       DEM Lieutenant Governor                                 Mike Collier                          1030                                                   01 
00050020031000002DEM       DEM Lieutenant Governor                                 Mike Collier                          1031                                                   01 
00050020032000011DEM       DEM Lieutenant Governor                                 Mike Collier                          1032                                                   01 
00050020033000009DEM       DEM Lieutenant Governor                                 Mike Collier                          1033                                                   01 
00050020034000021DEM       DEM Lieutenant Governor                                 Mike Collier                          1034                                                   01 
00050020035000004DEM       DEM Lieutenant Governor                                 Mike Collier                          1035                                                   01 
00050020036000013DEM       DEM Lieutenant Governor                                 Mike Collier                          1036                                                   01 
00050020037000002DEM       DEM Lieutenant Governor                                 Mike Collier                          1037                                                   01 
00050020038000034DEM       DEM Lieutenant Governor                                 Mike Collier                          1038                                                   01 
00050020039000008DEM       DEM Lieutenant Governor                                 Mike Collier                          1039                                                   01 
00050020040000002DEM       DEM Lieutenant Governor                                 Mike Collier                          1040                                                   01 
00050020041000015DEM       DEM Lieutenant Governor                                 Mike Collier                          1041                                                   01 
00050020042000004DEM       DEM Lieutenant Governor                                 Mike Collier                          1042                                                   01 
00050020043000015DEM       DEM Lieutenant Governor                                 Mike Collier                          1043                                                   01 
00050020044000004DEM       DEM Lieutenant Governor                                 Mike Collier                          1044                                                   01 
00050020045000001DEM       DEM Lieutenant Governor                                 Mike Collier                          1045                                                   01 
00050020046000003DEM       DEM Lieutenant Governor                                 Mike Collier                          1046                                                   01 
00050020047000004DEM       DEM Lieutenant Governor                                 Mike Collier                          1047                                                   01 
00050020048000011DEM       DEM Lieutenant Governor                                 Mike Collier                          1048                                                   01 
00050020049000004DEM       DEM Lieutenant Governor                                 Mike Collier                          1049                                                   01 
00050020050000036DEM       DEM Lieutenant Governor                                 Mike Collier                          1050                                                   01 
00050020051000018DEM       DEM Lieutenant Governor                                 Mike Collier                          1051                                                   01 
00050020052000027DEM       DEM Lieutenant Governor                                 Mike Collier                          1052                                                   01 
00050020053000029DEM       DEM Lieutenant Governor                                 Mike Collier                          1053                                                   01 
00050020054000024DEM       DEM Lieutenant Governor                                 Mike Collier                          1054                                                   01 
00050020055000033DEM       DEM Lieutenant Governor                                 Mike Collier                          1055                                                   01 
00050020056000017DEM       DEM Lieutenant Governor                                 Mike Collier                          1056                                                   01 
00050020057000037DEM       DEM Lieutenant Governor                                 Mike Collier                          1057                                                   01 
00050020058000006DEM       DEM Lieutenant Governor                                 Mike Collier                          1058                                                   01 
00050020059000003DEM       DEM Lieutenant Governor                                 Mike Collier                          1059                                                   01 
00050030001000000          DEM Lieutenant Governor                                 OVER VOTES                            1001                                                   01 
00050030002000000          DEM Lieutenant Governor                                 OVER VOTES                            1002                                                   01 
00050030003000000          DEM Lieutenant Governor                                 OVER VOTES                            1003                                                   01 
00050030004000000          DEM Lieutenant Governor                                 OVER VOTES                            1004                                                   01 
00050030005000000          DEM Lieutenant Governor                                 OVER VOTES                            1005                                                   01 
00050030006000000          DEM Lieutenant Governor                                 OVER VOTES                            1006                                                   01 
00050030007000000          DEM Lieutenant Governor                                 OVER VOTES                            1007                                                   01 
00050030008000000          DEM Lieutenant Governor                                 OVER VOTES                            1008                                                   01 
00050030009000000          DEM Lieutenant Governor                                 OVER VOTES                            1009                                                   01 
00050030010000000          DEM Lieutenant Governor                                 OVER VOTES                            1010                                                   01 
00050030011000000          DEM Lieutenant Governor                                 OVER VOTES                            1011                                                   01 
00050030012000000          DEM Lieutenant Governor                                 OVER VOTES                            1012                                                   01 
00050030013000000          DEM Lieutenant Governor                                 OVER VOTES                            1013                                                   01 
00050030014000000          DEM Lieutenant Governor                                 OVER VOTES                            1014                                                   01 
00050030015000000          DEM Lieutenant Governor                                 OVER VOTES                            1015                                                   01 
00050030016000000          DEM Lieutenant Governor                                 OVER VOTES                            1016                                                   01 
00050030017000000          DEM Lieutenant Governor                                 OVER VOTES                            1017                                                   01 
00050030018000000          DEM Lieutenant Governor                                 OVER VOTES                            1018                                                   01 
00050030019000000          DEM Lieutenant Governor                                 OVER VOTES                            1019                                                   01 
00050030020000000          DEM Lieutenant Governor                                 OVER VOTES                            1020                                                   01 
00050030021000000          DEM Lieutenant Governor                                 OVER VOTES                            1021                                                   01 
00050030022000000          DEM Lieutenant Governor                                 OVER VOTES                            1022                                                   01 
00050030023000000          DEM Lieutenant Governor                                 OVER VOTES                            1023                                                   01 
00050030024000000          DEM Lieutenant Governor                                 OVER VOTES                            1024                                                   01 
00050030025000000          DEM Lieutenant Governor                                 OVER VOTES                            1025                                                   01 
00050030026000000          DEM Lieutenant Governor                                 OVER VOTES                            1026                                                   01 
00050030027000000          DEM Lieutenant Governor                                 OVER VOTES                            1027                                                   01 
00050030028000000          DEM Lieutenant Governor                                 OVER VOTES                            1028                                                   01 
00050030029000000          DEM Lieutenant Governor                                 OVER VOTES                            1029                                                   01 
00050030030000000          DEM Lieutenant Governor                                 OVER VOTES                            1030                                                   01 
00050030031000000          DEM Lieutenant Governor                                 OVER VOTES                            1031                                                   01 
00050030032000000          DEM Lieutenant Governor                                 OVER VOTES                            1032                                                   01 
00050030033000000          DEM Lieutenant Governor                                 OVER VOTES                            1033                                                   01 
00050030034000000          DEM Lieutenant Governor                                 OVER VOTES                            1034                                                   01 
00050030035000000          DEM Lieutenant Governor                                 OVER VOTES                            1035                                                   01 
00050030036000000          DEM Lieutenant Governor                                 OVER VOTES                            1036                                                   01 
00050030037000000          DEM Lieutenant Governor                                 OVER VOTES                            1037                                                   01 
00050030038000000          DEM Lieutenant Governor                                 OVER VOTES                            1038                                                   01 
00050030039000000          DEM Lieutenant Governor                                 OVER VOTES                            1039                                                   01 
00050030040000000          DEM Lieutenant Governor                                 OVER VOTES                            1040                                                   01 
00050030041000000          DEM Lieutenant Governor                                 OVER VOTES                            1041                                                   01 
00050030042000000          DEM Lieutenant Governor                                 OVER VOTES                            1042                                                   01 
00050030043000000          DEM Lieutenant Governor                                 OVER VOTES                            1043                                                   01 
00050030044000000          DEM Lieutenant Governor                                 OVER VOTES                            1044                                                   01 
00050030045000000          DEM Lieutenant Governor                                 OVER VOTES                            1045                                                   01 
00050030046000000          DEM Lieutenant Governor                                 OVER VOTES                            1046                                                   01 
00050030047000000          DEM Lieutenant Governor                                 OVER VOTES                            1047                                                   01 
00050030048000000          DEM Lieutenant Governor                                 OVER VOTES                            1048                                                   01 
00050030049000000          DEM Lieutenant Governor                                 OVER VOTES                            1049                                                   01 
00050030050000000          DEM Lieutenant Governor                                 OVER VOTES                            1050                                                   01 
00050030051000000          DEM Lieutenant Governor                                 OVER VOTES                            1051                                                   01 
00050030052000000          DEM Lieutenant Governor                                 OVER VOTES                            1052                                                   01 
00050030053000000          DEM Lieutenant Governor                                 OVER VOTES                            1053                                                   01 
00050030054000000          DEM Lieutenant Governor                                 OVER VOTES                            1054                                                   01 
00050030055000000          DEM Lieutenant Governor                                 OVER VOTES                            1055                                                   01 
00050030056000000          DEM Lieutenant Governor                                 OVER VOTES                            1056                                                   01 
00050030057000000          DEM Lieutenant Governor                                 OVER VOTES                            1057                                                   01 
00050030058000000          DEM Lieutenant Governor                                 OVER VOTES                            1058                                                   01 
00050030059000000          DEM Lieutenant Governor                                 OVER VOTES                            1059                                                   01 
00050040001000001          DEM Lieutenant Governor                                 UNDER VOTES                           1001                                                   01 
00050040002000000          DEM Lieutenant Governor                                 UNDER VOTES                           1002                                                   01 
00050040003000000          DEM Lieutenant Governor                                 UNDER VOTES                           1003                                                   01 
00050040004000000          DEM Lieutenant Governor                                 UNDER VOTES                           1004                                                   01 
00050040005000002          DEM Lieutenant Governor                                 UNDER VOTES                           1005                                                   01 
00050040006000000          DEM Lieutenant Governor                                 UNDER VOTES                           1006                                                   01 
00050040007000002          DEM Lieutenant Governor                                 UNDER VOTES                           1007                                                   01 
00050040008000000          DEM Lieutenant Governor                                 UNDER VOTES                           1008                                                   01 
00050040009000000          DEM Lieutenant Governor                                 UNDER VOTES                           1009                                                   01 
00050040010000000          DEM Lieutenant Governor                                 UNDER VOTES                           1010                                                   01 
00050040011000000          DEM Lieutenant Governor                                 UNDER VOTES                           1011                                                   01 
00050040012000000          DEM Lieutenant Governor                                 UNDER VOTES                           1012                                                   01 
00050040013000001          DEM Lieutenant Governor                                 UNDER VOTES                           1013                                                   01 
00050040014000000          DEM Lieutenant Governor                                 UNDER VOTES                           1014                                                   01 
00050040015000000          DEM Lieutenant Governor                                 UNDER VOTES                           1015                                                   01 
00050040016000000          DEM Lieutenant Governor                                 UNDER VOTES                           1016                                                   01 
00050040017000000          DEM Lieutenant Governor                                 UNDER VOTES                           1017                                                   01 
00050040018000001          DEM Lieutenant Governor                                 UNDER VOTES                           1018                                                   01 
00050040019000000          DEM Lieutenant Governor                                 UNDER VOTES                           1019                                                   01 
00050040020000000          DEM Lieutenant Governor                                 UNDER VOTES                           1020                                                   01 
00050040021000000          DEM Lieutenant Governor                                 UNDER VOTES                           1021                                                   01 
00050040022000001          DEM Lieutenant Governor                                 UNDER VOTES                           1022                                                   01 
00050040023000000          DEM Lieutenant Governor                                 UNDER VOTES                           1023                                                   01 
00050040024000002          DEM Lieutenant Governor                                 UNDER VOTES                           1024                                                   01 
00050040025000003          DEM Lieutenant Governor                                 UNDER VOTES                           1025                                                   01 
00050040026000002          DEM Lieutenant Governor                                 UNDER VOTES                           1026                                                   01 
00050040027000000          DEM Lieutenant Governor                                 UNDER VOTES                           1027                                                   01 
00050040028000000          DEM Lieutenant Governor                                 UNDER VOTES                           1028                                                   01 
00050040029000000          DEM Lieutenant Governor                                 UNDER VOTES                           1029                                                   01 
00050040030000000          DEM Lieutenant Governor                                 UNDER VOTES                           1030                                                   01 
00050040031000000          DEM Lieutenant Governor                                 UNDER VOTES                           1031                                                   01 
00050040032000000          DEM Lieutenant Governor                                 UNDER VOTES                           1032                                                   01 
00050040033000001          DEM Lieutenant Governor                                 UNDER VOTES                           1033                                                   01 
00050040034000000          DEM Lieutenant Governor                                 UNDER VOTES                           1034                                                   01 
00050040035000000          DEM Lieutenant Governor                                 UNDER VOTES                           1035                                                   01 
00050040036000001          DEM Lieutenant Governor                                 UNDER VOTES                           1036                                                   01 
00050040037000001          DEM Lieutenant Governor                                 UNDER VOTES                           1037                                                   01 
00050040038000000          DEM Lieutenant Governor                                 UNDER VOTES                           1038                                                   01 
00050040039000000          DEM Lieutenant Governor                                 UNDER VOTES                           1039                                                   01 
00050040040000000          DEM Lieutenant Governor                                 UNDER VOTES                           1040                                                   01 
00050040041000001          DEM Lieutenant Governor                                 UNDER VOTES                           1041                                                   01 
00050040042000000          DEM Lieutenant Governor                                 UNDER VOTES                           1042                                                   01 
00050040043000001          DEM Lieutenant Governor                                 UNDER VOTES                           1043                                                   01 
00050040044000000          DEM Lieutenant Governor                                 UNDER VOTES                           1044                                                   01 
00050040045000000          DEM Lieutenant Governor                                 UNDER VOTES                           1045                                                   01 
00050040046000000          DEM Lieutenant Governor                                 UNDER VOTES                           1046                                                   01 
00050040047000000          DEM Lieutenant Governor                                 UNDER VOTES                           1047                                                   01 
00050040048000000          DEM Lieutenant Governor                                 UNDER VOTES                           1048                                                   01 
00050040049000000          DEM Lieutenant Governor                                 UNDER VOTES                           1049                                                   01 
00050040050000004          DEM Lieutenant Governor                                 UNDER VOTES                           1050                                                   01 
00050040051000002          DEM Lieutenant Governor                                 UNDER VOTES                           1051                                                   01 
00050040052000001          DEM Lieutenant Governor                                 UNDER VOTES                           1052                                                   01 
00050040053000002          DEM Lieutenant Governor                                 UNDER VOTES                           1053                                                   01 
00050040054000000          DEM Lieutenant Governor                                 UNDER VOTES                           1054                                                   01 
00050040055000003          DEM Lieutenant Governor                                 UNDER VOTES                           1055                                                   01 
00050040056000001          DEM Lieutenant Governor                                 UNDER VOTES                           1056                                                   01 
00050040057000003          DEM Lieutenant Governor                                 UNDER VOTES                           1057                                                   01 
00050040058000000          DEM Lieutenant Governor                                 UNDER VOTES                           1058                                                   01 
00050040059000000          DEM Lieutenant Governor                                 UNDER VOTES                           1059                                                   01 
00060010001000019DEM       DEM Attorney General                                    Rochelle Mercedes Garza               1001                                                   01 
00060010002000000DEM       DEM Attorney General                                    Rochelle Mercedes Garza               1002                                                   01 
00060010003000030DEM       DEM Attorney General                                    Rochelle Mercedes Garza               1003                                                   01 
00060010004000000DEM       DEM Attorney General                                    Rochelle Mercedes Garza               1004                                                   01 
00060010005000034DEM       DEM Attorney General                                    Rochelle Mercedes Garza               1005                                                   01 
00060010006000034DEM       DEM Attorney General                                    Rochelle Mercedes Garza               1006                                                   01 
00060010007000016DEM       DEM Attorney General                                    Rochelle Mercedes Garza               1007                                                   01 
00060010008000002DEM       DEM Attorney General                                    Rochelle Mercedes Garza               1008                                                   01 
00060010009000020DEM       DEM Attorney General                                    Rochelle Mercedes Garza               1009                                                   01 
00060010010000013DEM       DEM Attorney General                                    Rochelle Mercedes Garza               1010                                                   01 
00060010011000032DEM       DEM Attorney General                                    Rochelle Mercedes Garza               1011                                                   01 
00060010012000035DEM       DEM Attorney General                                    Rochelle Mercedes Garza               1012                                                   01 
00060010013000009DEM       DEM Attorney General                                    Rochelle Mercedes Garza               1013                                                   01 
00060010014000012DEM       DEM Attorney General                                    Rochelle Mercedes Garza               1014                                                   01 
00060010015000012DEM       DEM Attorney General                                    Rochelle Mercedes Garza               1015                                                   01 
00060010016000020DEM       DEM Attorney General                                    Rochelle Mercedes Garza               1016                                                   01 
00060010017000014DEM       DEM Attorney General                                    Rochelle Mercedes Garza               1017                                                   01 
00060010018000021DEM       DEM Attorney General                                    Rochelle Mercedes Garza               1018                                                   01 
00060010019000015DEM       DEM Attorney General                                    Rochelle Mercedes Garza               1019                                                   01 
00060010020000018DEM       DEM Attorney General                                    Rochelle Mercedes Garza               1020                                                   01 
00060010021000009DEM       DEM Attorney General                                    Rochelle Mercedes Garza               1021                                                   01 
00060010022000018DEM       DEM Attorney General                                    Rochelle Mercedes Garza               1022                                                   01 
00060010023000000DEM       DEM Attorney General                                    Rochelle Mercedes Garza               1023                                                   01 
00060010024000017DEM       DEM Attorney General                                    Rochelle Mercedes Garza               1024                                                   01 
00060010025000018DEM       DEM Attorney General                                    Rochelle Mercedes Garza               1025                                                   01 
00060010026000016DEM       DEM Attorney General                                    Rochelle Mercedes Garza               1026                                                   01 
00060010027000028DEM       DEM Attorney General                                    Rochelle Mercedes Garza               1027                                                   01 
00060010028000019DEM       DEM Attorney General                                    Rochelle Mercedes Garza               1028                                                   01 
00060010029000002DEM       DEM Attorney General                                    Rochelle Mercedes Garza               1029                                                   01 
00060010030000014DEM       DEM Attorney General                                    Rochelle Mercedes Garza               1030                                                   01 
00060010031000004DEM       DEM Attorney General                                    Rochelle Mercedes Garza               1031                                                   01 
00060010032000018DEM       DEM Attorney General                                    Rochelle Mercedes Garza               1032                                                   01 
00060010033000022DEM       DEM Attorney General                                    Rochelle Mercedes Garza               1033                                                   01 
00060010034000022DEM       DEM Attorney General                                    Rochelle Mercedes Garza               1034                                                   01 
00060010035000007DEM       DEM Attorney General                                    Rochelle Mercedes Garza               1035                                                   01 
00060010036000015DEM       DEM Attorney General                                    Rochelle Mercedes Garza               1036                                                   01 
00060010037000006DEM       DEM Attorney General                                    Rochelle Mercedes Garza               1037                                                   01 
00060010038000036DEM       DEM Attorney General                                    Rochelle Mercedes Garza               1038                                                   01 
00060010039000011DEM       DEM Attorney General                                    Rochelle Mercedes Garza               1039                                                   01 
00060010040000002DEM       DEM Attorney General                                    Rochelle Mercedes Garza               1040                                                   01 
00060010041000019DEM       DEM Attorney General                                    Rochelle Mercedes Garza               1041                                                   01 
00060010042000002DEM       DEM Attorney General                                    Rochelle Mercedes Garza               1042                                                   01 
00060010043000024DEM       DEM Attorney General                                    Rochelle Mercedes Garza               1043                                                   01 
00060010044000002DEM       DEM Attorney General                                    Rochelle Mercedes Garza               1044                                                   01 
00060010045000001DEM       DEM Attorney General                                    Rochelle Mercedes Garza               1045                                                   01 
00060010046000003DEM       DEM Attorney General                                    Rochelle Mercedes Garza               1046                                                   01 
00060010047000002DEM       DEM Attorney General                                    Rochelle Mercedes Garza               1047                                                   01 
00060010048000021DEM       DEM Attorney General                                    Rochelle Mercedes Garza               1048                                                   01 
00060010049000002DEM       DEM Attorney General                                    Rochelle Mercedes Garza               1049                                                   01 
00060010050000063DEM       DEM Attorney General                                    Rochelle Mercedes Garza               1050                                                   01 
00060010051000028DEM       DEM Attorney General                                    Rochelle Mercedes Garza               1051                                                   01 
00060010052000045DEM       DEM Attorney General                                    Rochelle Mercedes Garza               1052                                                   01 
00060010053000039DEM       DEM Attorney General                                    Rochelle Mercedes Garza               1053                                                   01 
00060010054000045DEM       DEM Attorney General                                    Rochelle Mercedes Garza               1054                                                   01 
00060010055000037DEM       DEM Attorney General                                    Rochelle Mercedes Garza               1055                                                   01 
00060010056000021DEM       DEM Attorney General                                    Rochelle Mercedes Garza               1056                                                   01 
00060010057000037DEM       DEM Attorney General                                    Rochelle Mercedes Garza               1057                                                   01 
00060010058000006DEM       DEM Attorney General                                    Rochelle Mercedes Garza               1058                                                   01 
00060010059000001DEM       DEM Attorney General                                    Rochelle Mercedes Garza               1059                                                   01 
00060020001000012DEM       DEM Attorney General                                    Joe Jaworski                          1001                                                   01 
00060020002000000DEM       DEM Attorney General                                    Joe Jaworski                          1002                                                   01 
00060020003000017DEM       DEM Attorney General                                    Joe Jaworski                          1003                                                   01 
00060020004000000DEM       DEM Attorney General                                    Joe Jaworski                          1004                                                   01 
00060020005000023DEM       DEM Attorney General                                    Joe Jaworski                          1005                                                   01 
00060020006000016DEM       DEM Attorney General                                    Joe Jaworski                          1006                                                   01 
00060020007000009DEM       DEM Attorney General                                    Joe Jaworski                          1007                                                   01 
00060020008000001DEM       DEM Attorney General                                    Joe Jaworski                          1008                                                   01 
00060020009000010DEM       DEM Attorney General                                    Joe Jaworski                          1009                                                   01 
00060020010000019DEM       DEM Attorney General                                    Joe Jaworski                          1010                                                   01 
00060020011000013DEM       DEM Attorney General                                    Joe Jaworski                          1011                                                   01 
00060020012000021DEM       DEM Attorney General                                    Joe Jaworski                          1012                                                   01 
00060020013000007DEM       DEM Attorney General                                    Joe Jaworski                          1013                                                   01 
00060020014000008DEM       DEM Attorney General                                    Joe Jaworski                          1014                                                   01 
00060020015000015DEM       DEM Attorney General                                    Joe Jaworski                          1015                                                   01 
00060020016000006DEM       DEM Attorney General                                    Joe Jaworski                          1016                                                   01 
00060020017000018DEM       DEM Attorney General                                    Joe Jaworski                          1017                                                   01 
00060020018000017DEM       DEM Attorney General                                    Joe Jaworski                          1018                                                   01 
00060020019000019DEM       DEM Attorney General                                    Joe Jaworski                          1019                                                   01 
00060020020000006DEM       DEM Attorney General                                    Joe Jaworski                          1020                                                   01 
00060020021000011DEM       DEM Attorney General                                    Joe Jaworski                          1021                                                   01 
00060020022000024DEM       DEM Attorney General                                    Joe Jaworski                          1022                                                   01 
00060020023000000DEM       DEM Attorney General                                    Joe Jaworski                          1023                                                   01 
00060020024000013DEM       DEM Attorney General                                    Joe Jaworski                          1024                                                   01 
00060020025000028DEM       DEM Attorney General                                    Joe Jaworski                          1025                                                   01 
00060020026000013DEM       DEM Attorney General                                    Joe Jaworski                          1026                                                   01 
00060020027000015DEM       DEM Attorney General                                    Joe Jaworski                          1027                                                   01 
00060020028000013DEM       DEM Attorney General                                    Joe Jaworski                          1028                                                   01 
00060020029000006DEM       DEM Attorney General                                    Joe Jaworski                          1029                                                   01 
00060020030000014DEM       DEM Attorney General                                    Joe Jaworski                          1030                                                   01 
00060020031000001DEM       DEM Attorney General                                    Joe Jaworski                          1031                                                   01 
00060020032000010DEM       DEM Attorney General                                    Joe Jaworski                          1032                                                   01 
00060020033000002DEM       DEM Attorney General                                    Joe Jaworski                          1033                                                   01 
00060020034000017DEM       DEM Attorney General                                    Joe Jaworski                          1034                                                   01 
00060020035000003DEM       DEM Attorney General                                    Joe Jaworski                          1035                                                   01 
00060020036000008DEM       DEM Attorney General                                    Joe Jaworski                          1036                                                   01 
00060020037000002DEM       DEM Attorney General                                    Joe Jaworski                          1037                                                   01 
00060020038000021DEM       DEM Attorney General                                    Joe Jaworski                          1038                                                   01 
00060020039000009DEM       DEM Attorney General                                    Joe Jaworski                          1039                                                   01 
00060020040000001DEM       DEM Attorney General                                    Joe Jaworski                          1040                                                   01 
00060020041000010DEM       DEM Attorney General                                    Joe Jaworski                          1041                                                   01 
00060020042000004DEM       DEM Attorney General                                    Joe Jaworski                          1042                                                   01 
00060020043000015DEM       DEM Attorney General                                    Joe Jaworski                          1043                                                   01 
00060020044000003DEM       DEM Attorney General                                    Joe Jaworski                          1044                                                   01 
00060020045000000DEM       DEM Attorney General                                    Joe Jaworski                          1045                                                   01 
00060020046000002DEM       DEM Attorney General                                    Joe Jaworski                          1046                                                   01 
00060020047000002DEM       DEM Attorney General                                    Joe Jaworski                          1047                                                   01 
00060020048000006DEM       DEM Attorney General                                    Joe Jaworski                          1048                                                   01 
00060020049000003DEM       DEM Attorney General                                    Joe Jaworski                          1049                                                   01 
00060020050000026DEM       DEM Attorney General                                    Joe Jaworski                          1050                                                   01 
00060020051000020DEM       DEM Attorney General                                    Joe Jaworski                          1051                                                   01 
00060020052000023DEM       DEM Attorney General                                    Joe Jaworski                          1052                                                   01 
00060020053000030DEM       DEM Attorney General                                    Joe Jaworski                          1053                                                   01 
00060020054000024DEM       DEM Attorney General                                    Joe Jaworski                          1054                                                   01 
00060020055000021DEM       DEM Attorney General                                    Joe Jaworski                          1055                                                   01 
00060020056000016DEM       DEM Attorney General                                    Joe Jaworski                          1056                                                   01 
00060020057000028DEM       DEM Attorney General                                    Joe Jaworski                          1057                                                   01 
00060020058000003DEM       DEM Attorney General                                    Joe Jaworski                          1058                                                   01 
00060020059000003DEM       DEM Attorney General                                    Joe Jaworski                          1059                                                   01 
00060030001000000          DEM Attorney General                                    OVER VOTES                            1001                                                   01 
00060030002000000          DEM Attorney General                                    OVER VOTES                            1002                                                   01 
00060030003000000          DEM Attorney General                                    OVER VOTES                            1003                                                   01 
00060030004000000          DEM Attorney General                                    OVER VOTES                            1004                                                   01 
00060030005000000          DEM Attorney General                                    OVER VOTES                            1005                                                   01 
00060030006000000          DEM Attorney General                                    OVER VOTES                            1006                                                   01 
00060030007000000          DEM Attorney General                                    OVER VOTES                            1007                                                   01 
00060030008000000          DEM Attorney General                                    OVER VOTES                            1008                                                   01 
00060030009000000          DEM Attorney General                                    OVER VOTES                            1009                                                   01 
00060030010000000          DEM Attorney General                                    OVER VOTES                            1010                                                   01 
00060030011000000          DEM Attorney General                                    OVER VOTES                            1011                                                   01 
00060030012000000          DEM Attorney General                                    OVER VOTES                            1012                                                   01 
00060030013000000          DEM Attorney General                                    OVER VOTES                            1013                                                   01 
00060030014000000          DEM Attorney General                                    OVER VOTES                            1014                                                   01 
00060030015000000          DEM Attorney General                                    OVER VOTES                            1015                                                   01 
00060030016000000          DEM Attorney General                                    OVER VOTES                            1016                                                   01 
00060030017000000          DEM Attorney General                                    OVER VOTES                            1017                                                   01 
00060030018000000          DEM Attorney General                                    OVER VOTES                            1018                                                   01 
00060030019000000          DEM Attorney General                                    OVER VOTES                            1019                                                   01 
00060030020000000          DEM Attorney General                                    OVER VOTES                            1020                                                   01 
00060030021000000          DEM Attorney General                                    OVER VOTES                            1021                                                   01 
00060030022000000          DEM Attorney General                                    OVER VOTES                            1022                                                   01 
00060030023000000          DEM Attorney General                                    OVER VOTES                            1023                                                   01 
00060030024000000          DEM Attorney General                                    OVER VOTES                            1024                                                   01 
00060030025000000          DEM Attorney General                                    OVER VOTES                            1025                                                   01 
00060030026000000          DEM Attorney General                                    OVER VOTES                            1026                                                   01 
00060030027000000          DEM Attorney General                                    OVER VOTES                            1027                                                   01 
00060030028000000          DEM Attorney General                                    OVER VOTES                            1028                                                   01 
00060030029000000          DEM Attorney General                                    OVER VOTES                            1029                                                   01 
00060030030000000          DEM Attorney General                                    OVER VOTES                            1030                                                   01 
00060030031000000          DEM Attorney General                                    OVER VOTES                            1031                                                   01 
00060030032000000          DEM Attorney General                                    OVER VOTES                            1032                                                   01 
00060030033000000          DEM Attorney General                                    OVER VOTES                            1033                                                   01 
00060030034000000          DEM Attorney General                                    OVER VOTES                            1034                                                   01 
00060030035000000          DEM Attorney General                                    OVER VOTES                            1035                                                   01 
00060030036000000          DEM Attorney General                                    OVER VOTES                            1036                                                   01 
00060030037000000          DEM Attorney General                                    OVER VOTES                            1037                                                   01 
00060030038000000          DEM Attorney General                                    OVER VOTES                            1038                                                   01 
00060030039000000          DEM Attorney General                                    OVER VOTES                            1039                                                   01 
00060030040000000          DEM Attorney General                                    OVER VOTES                            1040                                                   01 
00060030041000000          DEM Attorney General                                    OVER VOTES                            1041                                                   01 
00060030042000000          DEM Attorney General                                    OVER VOTES                            1042                                                   01 
00060030043000000          DEM Attorney General                                    OVER VOTES                            1043                                                   01 
00060030044000000          DEM Attorney General                                    OVER VOTES                            1044                                                   01 
00060030045000000          DEM Attorney General                                    OVER VOTES                            1045                                                   01 
00060030046000000          DEM Attorney General                                    OVER VOTES                            1046                                                   01 
00060030047000000          DEM Attorney General                                    OVER VOTES                            1047                                                   01 
00060030048000000          DEM Attorney General                                    OVER VOTES                            1048                                                   01 
00060030049000000          DEM Attorney General                                    OVER VOTES                            1049                                                   01 
00060030050000000          DEM Attorney General                                    OVER VOTES                            1050                                                   01 
00060030051000000          DEM Attorney General                                    OVER VOTES                            1051                                                   01 
00060030052000000          DEM Attorney General                                    OVER VOTES                            1052                                                   01 
00060030053000000          DEM Attorney General                                    OVER VOTES                            1053                                                   01 
00060030054000000          DEM Attorney General                                    OVER VOTES                            1054                                                   01 
00060030055000000          DEM Attorney General                                    OVER VOTES                            1055                                                   01 
00060030056000000          DEM Attorney General                                    OVER VOTES                            1056                                                   01 
00060030057000000          DEM Attorney General                                    OVER VOTES                            1057                                                   01 
00060030058000000          DEM Attorney General                                    OVER VOTES                            1058                                                   01 
00060030059000000          DEM Attorney General                                    OVER VOTES                            1059                                                   01 
00060040001000001          DEM Attorney General                                    UNDER VOTES                           1001                                                   01 
00060040002000000          DEM Attorney General                                    UNDER VOTES                           1002                                                   01 
00060040003000001          DEM Attorney General                                    UNDER VOTES                           1003                                                   01 
00060040004000000          DEM Attorney General                                    UNDER VOTES                           1004                                                   01 
00060040005000002          DEM Attorney General                                    UNDER VOTES                           1005                                                   01 
00060040006000002          DEM Attorney General                                    UNDER VOTES                           1006                                                   01 
00060040007000001          DEM Attorney General                                    UNDER VOTES                           1007                                                   01 
00060040008000000          DEM Attorney General                                    UNDER VOTES                           1008                                                   01 
00060040009000000          DEM Attorney General                                    UNDER VOTES                           1009                                                   01 
00060040010000000          DEM Attorney General                                    UNDER VOTES                           1010                                                   01 
00060040011000000          DEM Attorney General                                    UNDER VOTES                           1011                                                   01 
00060040012000000          DEM Attorney General                                    UNDER VOTES                           1012                                                   01 
00060040013000000          DEM Attorney General                                    UNDER VOTES                           1013                                                   01 
00060040014000000          DEM Attorney General                                    UNDER VOTES                           1014                                                   01 
00060040015000000          DEM Attorney General                                    UNDER VOTES                           1015                                                   01 
00060040016000001          DEM Attorney General                                    UNDER VOTES                           1016                                                   01 
00060040017000000          DEM Attorney General                                    UNDER VOTES                           1017                                                   01 
00060040018000000          DEM Attorney General                                    UNDER VOTES                           1018                                                   01 
00060040019000000          DEM Attorney General                                    UNDER VOTES                           1019                                                   01 
00060040020000000          DEM Attorney General                                    UNDER VOTES                           1020                                                   01 
00060040021000000          DEM Attorney General                                    UNDER VOTES                           1021                                                   01 
