00010010001002238REP       REGISTERED VOTERS - Republican Party                    REGISTERED VOTERS - Republican Party  1001                                                   00 
00010010002000163REP       REGISTERED VOTERS - Republican Party                    REGISTERED VOTERS - Republican Party  1002                                                   00 
00010010003002443REP       REGISTERED VOTERS - Republican Party                    REGISTERED VOTERS - Republican Party  1003                                                   00 
00010010004000013REP       REGISTERED VOTERS - Republican Party                    REGISTERED VOTERS - Republican Party  1004                                                   00 
00010010005003521REP       REGISTERED VOTERS - Republican Party                    REGISTERED VOTERS - Republican Party  1005                                                   00 
00010010006003782REP       REGISTERED VOTERS - Republican Party                    REGISTERED VOTERS - Republican Party  1006                                                   00 
00010010007002016REP       REGISTERED VOTERS - Republican Party                    REGISTERED VOTERS - Republican Party  1007                                                   00 
00010010008000155REP       REGISTERED VOTERS - Republican Party                    REGISTERED VOTERS - Republican Party  1008                                                   00 
00010010009003403REP       REGISTERED VOTERS - Republican Party                    REGISTERED VOTERS - Republican Party  1009                                                   00 
00010010010002096REP       REGISTERED VOTERS - Republican Party                    REGISTERED VOTERS - Republican Party  1010                                                   00 
00010010011002885REP       REGISTERED VOTERS - Republican Party                    REGISTERED VOTERS - Republican Party  1011                                                   00 
00010010012003565REP       REGISTERED VOTERS - Republican Party                    REGISTERED VOTERS - Republican Party  1012                                                   00 
00010010013001858REP       REGISTERED VOTERS - Republican Party                    REGISTERED VOTERS - Republican Party  1013                                                   00 
00010010014001895REP       REGISTERED VOTERS - Republican Party                    REGISTERED VOTERS - Republican Party  1014                                                   00 
00010010015003007REP       REGISTERED VOTERS - Republican Party                    REGISTERED VOTERS - Republican Party  1015                                                   00 
00010010016001910REP       REGISTERED VOTERS - Republican Party                    REGISTERED VOTERS - Republican Party  1016                                                   00 
00010010017002864REP       REGISTERED VOTERS - Republican Party                    REGISTERED VOTERS - Republican Party  1017                                                   00 
00010010018002489REP       REGISTERED VOTERS - Republican Party                    REGISTERED VOTERS - Republican Party  1018                                                   00 
00010010019002423REP       REGISTERED VOTERS - Republican Party                    REGISTERED VOTERS - Republican Party  1019                                                   00 
00010010020001861REP       REGISTERED VOTERS - Republican Party                    REGISTERED VOTERS - Republican Party  1020                                                   00 
00010010021001464REP       REGISTERED VOTERS - Republican Party                    REGISTERED VOTERS - Republican Party  1021                                                   00 
00010010022003056REP       REGISTERED VOTERS - Republican Party                    REGISTERED VOTERS - Republican Party  1022                                                   00 
00010010023000000REP       REGISTERED VOTERS - Republican Party                    REGISTERED VOTERS - Republican Party  1023                                                   00 
00010010024002192REP       REGISTERED VOTERS - Republican Party                    REGISTERED VOTERS - Republican Party  1024                                                   00 
00010010025002801REP       REGISTERED VOTERS - Republican Party                    REGISTERED VOTERS - Republican Party  1025                                                   00 
00010010026002657REP       REGISTERED VOTERS - Republican Party                    REGISTERED VOTERS - Republican Party  1026                                                   00 
00010010027002718REP       REGISTERED VOTERS - Republican Party                    REGISTERED VOTERS - Republican Party  1027                                                   00 
00010010028002771REP       REGISTERED VOTERS - Republican Party                    REGISTERED VOTERS - Republican Party  1028                                                   00 
00010010029000663REP       REGISTERED VOTERS - Republican Party                    REGISTERED VOTERS - Republican Party  1029                                                   00 
00010010030002001REP       REGISTERED VOTERS - Republican Party                    REGISTERED VOTERS - Republican Party  1030                                                   00 
00010010031000689REP       REGISTERED VOTERS - Republican Party                    REGISTERED VOTERS - Republican Party  1031                                                   00 
00010010032003501REP       REGISTERED VOTERS - Republican Party                    REGISTERED VOTERS - Republican Party  1032                                                   00 
00010010033002151REP       REGISTERED VOTERS - Republican Party                    REGISTERED VOTERS - Republican Party  1033                                                   00 
00010010034004120REP       REGISTERED VOTERS - Republican Party                    REGISTERED VOTERS - Republican Party  1034                                                   00 
00010010035001910REP       REGISTERED VOTERS - Republican Party                    REGISTERED VOTERS - Republican Party  1035                                                   00 
00010010036003634REP       REGISTERED VOTERS - Republican Party                    REGISTERED VOTERS - Republican Party  1036                                                   00 
00010010037001830REP       REGISTERED VOTERS - Republican Party                    REGISTERED VOTERS - Republican Party  1037                                                   00 
00010010038004183REP       REGISTERED VOTERS - Republican Party                    REGISTERED VOTERS - Republican Party  1038                                                   00 
00010010039003673REP       REGISTERED VOTERS - Republican Party                    REGISTERED VOTERS - Republican Party  1039                                                   00 
00010010040000368REP       REGISTERED VOTERS - Republican Party                    REGISTERED VOTERS - Republican Party  1040                                                   00 
00010010041002665REP       REGISTERED VOTERS - Republican Party                    REGISTERED VOTERS - Republican Party  1041                                                   00 
00010010042000407REP       REGISTERED VOTERS - Republican Party                    REGISTERED VOTERS - Republican Party  1042                                                   00 
00010010043003875REP       REGISTERED VOTERS - Republican Party                    REGISTERED VOTERS - Republican Party  1043                                                   00 
00010010044000607REP       REGISTERED VOTERS - Republican Party                    REGISTERED VOTERS - Republican Party  1044                                                   00 
00010010045000155REP       REGISTERED VOTERS - Republican Party                    REGISTERED VOTERS - Republican Party  1045                                                   00 
00010010046000411REP       REGISTERED VOTERS - Republican Party                    REGISTERED VOTERS - Republican Party  1046                                                   00 
00010010047000361REP       REGISTERED VOTERS - Republican Party                    REGISTERED VOTERS - Republican Party  1047                                                   00 
00010010048002095REP       REGISTERED VOTERS - Republican Party                    REGISTERED VOTERS - Republican Party  1048                                                   00 
00010010049000648REP       REGISTERED VOTERS - Republican Party                    REGISTERED VOTERS - Republican Party  1049                                                   00 
00010010050003507REP       REGISTERED VOTERS - Republican Party                    REGISTERED VOTERS - Republican Party  1050                                                   00 
00010010051003319REP       REGISTERED VOTERS - Republican Party                    REGISTERED VOTERS - Republican Party  1051                                                   00 
00010010052002526REP       REGISTERED VOTERS - Republican Party                    REGISTERED VOTERS - Republican Party  1052                                                   00 
00010010053002117REP       REGISTERED VOTERS - Republican Party                    REGISTERED VOTERS - Republican Party  1053                                                   00 
00010010054002853REP       REGISTERED VOTERS - Republican Party                    REGISTERED VOTERS - Republican Party  1054                                                   00 
00010010055002871REP       REGISTERED VOTERS - Republican Party                    REGISTERED VOTERS - Republican Party  1055                                                   00 
00010010056002860REP       REGISTERED VOTERS - Republican Party                    REGISTERED VOTERS - Republican Party  1056                                                   00 
00010010057003105REP       REGISTERED VOTERS - Republican Party                    REGISTERED VOTERS - Republican Party  1057                                                   00 
00010010058001300REP       REGISTERED VOTERS - Republican Party                    REGISTERED VOTERS - Republican Party  1058                                                   00 
00010010059000730REP       REGISTERED VOTERS - Republican Party                    REGISTERED VOTERS - Republican Party  1059                                                   00 
00040010001000022REP       BALLOTS CAST - Republican Party                         BALLOTS CAST - Republican Party       1001                                                   00 
00040010002000010REP       BALLOTS CAST - Republican Party                         BALLOTS CAST - Republican Party       1002                                                   00 
00040010003000096REP       BALLOTS CAST - Republican Party                         BALLOTS CAST - Republican Party       1003                                                   00 
00040010004000000REP       BALLOTS CAST - Republican Party                         BALLOTS CAST - Republican Party       1004                                                   00 
00040010005000252REP       BALLOTS CAST - Republican Party                         BALLOTS CAST - Republican Party       1005                                                   00 
00040010006000136REP       BALLOTS CAST - Republican Party                         BALLOTS CAST - Republican Party       1006                                                   00 
00040010007000137REP       BALLOTS CAST - Republican Party                         BALLOTS CAST - Republican Party       1007                                                   00 
00040010008000011REP       BALLOTS CAST - Republican Party                         BALLOTS CAST - Republican Party       1008                                                   00 
00040010009000238REP       BALLOTS CAST - Republican Party                         BALLOTS CAST - Republican Party       1009                                                   00 
00040010010000112REP       BALLOTS CAST - Republican Party                         BALLOTS CAST - Republican Party       1010                                                   00 
00040010011000135REP       BALLOTS CAST - Republican Party                         BALLOTS CAST - Republican Party       1011                                                   00 
00040010012000128REP       BALLOTS CAST - Republican Party                         BALLOTS CAST - Republican Party       1012                                                   00 
00040010013000110REP       BALLOTS CAST - Republican Party                         BALLOTS CAST - Republican Party       1013                                                   00 
00040010014000159REP       BALLOTS CAST - Republican Party                         BALLOTS CAST - Republican Party       1014                                                   00 
00040010015000166REP       BALLOTS CAST - Republican Party                         BALLOTS CAST - Republican Party       1015                                                   00 
00040010016000027REP       BALLOTS CAST - Republican Party                         BALLOTS CAST - Republican Party       1016                                                   00 
00040010017000168REP       BALLOTS CAST - Republican Party                         BALLOTS CAST - Republican Party       1017                                                   00 
00040010018000035REP       BALLOTS CAST - Republican Party                         BALLOTS CAST - Republican Party       1018                                                   00 
00040010019000183REP       BALLOTS CAST - Republican Party                         BALLOTS CAST - Republican Party       1019                                                   00 
00040010020000133REP       BALLOTS CAST - Republican Party                         BALLOTS CAST - Republican Party       1020                                                   00 
00040010021000074REP       BALLOTS CAST - Republican Party                         BALLOTS CAST - Republican Party       1021                                                   00 
00040010022000157REP       BALLOTS CAST - Republican Party                         BALLOTS CAST - Republican Party       1022                                                   00 
00040010023000000REP       BALLOTS CAST - Republican Party                         BALLOTS CAST - Republican Party       1023                                                   00 
00040010024000124REP       BALLOTS CAST - Republican Party                         BALLOTS CAST - Republican Party       1024                                                   00 
00040010025000228REP       BALLOTS CAST - Republican Party                         BALLOTS CAST - Republican Party       1025                                                   00 
00040010026000153REP       BALLOTS CAST - Republican Party                         BALLOTS CAST - Republican Party       1026                                                   00 
00040010027000198REP       BALLOTS CAST - Republican Party                         BALLOTS CAST - Republican Party       1027                                                   00 
00040010028000198REP       BALLOTS CAST - Republican Party                         BALLOTS CAST - Republican Party       1028                                                   00 
00040010029000037REP       BALLOTS CAST - Republican Party                         BALLOTS CAST - Republican Party       1029                                                   00 
00040010030000106REP       BALLOTS CAST - Republican Party                         BALLOTS CAST - Republican Party       1030                                                   00 
00040010031000059REP       BALLOTS CAST - Republican Party                         BALLOTS CAST - Republican Party       1031                                                   00 
00040010032000242REP       BALLOTS CAST - Republican Party                         BALLOTS CAST - Republican Party       1032                                                   00 
00040010033000131REP       BALLOTS CAST - Republican Party                         BALLOTS CAST - Republican Party       1033                                                   00 
00040010034000270REP       BALLOTS CAST - Republican Party                         BALLOTS CAST - Republican Party       1034                                                   00 
00040010035000057REP       BALLOTS CAST - Republican Party                         BALLOTS CAST - Republican Party       1035                                                   00 
00040010036000156REP       BALLOTS CAST - Republican Party                         BALLOTS CAST - Republican Party       1036                                                   00 
00040010037000070REP       BALLOTS CAST - Republican Party                         BALLOTS CAST - Republican Party       1037                                                   00 
00040010038000335REP       BALLOTS CAST - Republican Party                         BALLOTS CAST - Republican Party       1038                                                   00 
00040010039000179REP       BALLOTS CAST - Republican Party                         BALLOTS CAST - Republican Party       1039                                                   00 
00040010040000017REP       BALLOTS CAST - Republican Party                         BALLOTS CAST - Republican Party       1040                                                   00 
00040010041000223REP       BALLOTS CAST - Republican Party                         BALLOTS CAST - Republican Party       1041                                                   00 
00040010042000037REP       BALLOTS CAST - Republican Party                         BALLOTS CAST - Republican Party       1042                                                   00 
00040010043000219REP       BALLOTS CAST - Republican Party                         BALLOTS CAST - Republican Party       1043                                                   00 
00040010044000048REP       BALLOTS CAST - Republican Party                         BALLOTS CAST - Republican Party       1044                                                   00 
00040010045000018REP       BALLOTS CAST - Republican Party                         BALLOTS CAST - Republican Party       1045                                                   00 
00040010046000038REP       BALLOTS CAST - Republican Party                         BALLOTS CAST - Republican Party       1046                                                   00 
00040010047000032REP       BALLOTS CAST - Republican Party                         BALLOTS CAST - Republican Party       1047                                                   00 
00040010048000154REP       BALLOTS CAST - Republican Party                         BALLOTS CAST - Republican Party       1048                                                   00 
00040010049000061REP       BALLOTS CAST - Republican Party                         BALLOTS CAST - Republican Party       1049                                                   00 
00040010050000108REP       BALLOTS CAST - Republican Party                         BALLOTS CAST - Republican Party       1050                                                   00 
00040010051000120REP       BALLOTS CAST - Republican Party                         BALLOTS CAST - Republican Party       1051                                                   00 
00040010052000102REP       BALLOTS CAST - Republican Party                         BALLOTS CAST - Republican Party       1052                                                   00 
00040010053000150REP       BALLOTS CAST - Republican Party                         BALLOTS CAST - Republican Party       1053                                                   00 
00040010054000037REP       BALLOTS CAST - Republican Party                         BALLOTS CAST - Republican Party       1054                                                   00 
00040010055000325REP       BALLOTS CAST - Republican Party                         BALLOTS CAST - Republican Party       1055                                                   00 
00040010056000205REP       BALLOTS CAST - Republican Party                         BALLOTS CAST - Republican Party       1056                                                   00 
00040010057000152REP       BALLOTS CAST - Republican Party                         BALLOTS CAST - Republican Party       1057                                                   00 
00040010058000041REP       BALLOTS CAST - Republican Party                         BALLOTS CAST - Republican Party       1058                                                   00 
00040010059000040REP       BALLOTS CAST - Republican Party                         BALLOTS CAST - Republican Party       1059                                                   00 
00050010001000017REP       REP Attorney General                                    Ken Paxton                            1001                                                   01 
00050010002000008REP       REP Attorney General                                    Ken Paxton                            1002                                                   01 
00050010003000071REP       REP Attorney General                                    Ken Paxton                            1003                                                   01 
00050010004000000REP       REP Attorney General                                    Ken Paxton                            1004                                                   01 
00050010005000175REP       REP Attorney General                                    Ken Paxton                            1005                                                   01 
00050010006000094REP       REP Attorney General                                    Ken Paxton                            1006                                                   01 
00050010007000107REP       REP Attorney General                                    Ken Paxton                            1007                                                   01 
00050010008000008REP       REP Attorney General                                    Ken Paxton                            1008                                                   01 
00050010009000165REP       REP Attorney General                                    Ken Paxton                            1009                                                   01 
00050010010000078REP       REP Attorney General                                    Ken Paxton                            1010                                                   01 
00050010011000100REP       REP Attorney General                                    Ken Paxton                            1011                                                   01 
00050010012000097REP       REP Attorney General                                    Ken Paxton                            1012                                                   01 
00050010013000085REP       REP Attorney General                                    Ken Paxton                            1013                                                   01 
00050010014000098REP       REP Attorney General                                    Ken Paxton                            1014                                                   01 
00050010015000116REP       REP Attorney General                                    Ken Paxton                            1015                                                   01 
00050010016000017REP       REP Attorney General                                    Ken Paxton                            1016                                                   01 
00050010017000097REP       REP Attorney General                                    Ken Paxton                            1017                                                   01 
00050010018000024REP       REP Attorney General                                    Ken Paxton                            1018                                                   01 
00050010019000125REP       REP Attorney General                                    Ken Paxton                            1019                                                   01 
00050010020000097REP       REP Attorney General                                    Ken Paxton                            1020                                                   01 
00050010021000049REP       REP Attorney General                                    Ken Paxton                            1021                                                   01 
00050010022000106REP       REP Attorney General                                    Ken Paxton                            1022                                                   01 
00050010023000000REP       REP Attorney General                                    Ken Paxton                            1023                                                   01 
00050010024000068REP       REP Attorney General                                    Ken Paxton                            1024                                                   01 
00050010025000129REP       REP Attorney General                                    Ken Paxton                            1025                                                   01 
00050010026000076REP       REP Attorney General                                    Ken Paxton                            1026                                                   01 
00050010027000140REP       REP Attorney General                                    Ken Paxton                            1027                                                   01 
00050010028000147REP       REP Attorney General                                    Ken Paxton                            1028                                                   01 
00050010029000035REP       REP Attorney General                                    Ken Paxton                            1029                                                   01 
00050010030000081REP       REP Attorney General                                    Ken Paxton                            1030                                                   01 
00050010031000046REP       REP Attorney General                                    Ken Paxton                            1031                                                   01 
00050010032000173REP       REP Attorney General                                    Ken Paxton                            1032                                                   01 
00050010033000097REP       REP Attorney General                                    Ken Paxton                            1033                                                   01 
00050010034000186REP       REP Attorney General                                    Ken Paxton                            1034                                                   01 
00050010035000039REP       REP Attorney General                                    Ken Paxton                            1035                                                   01 
00050010036000108REP       REP Attorney General                                    Ken Paxton                            1036                                                   01 
00050010037000049REP       REP Attorney General                                    Ken Paxton                            1037                                                   01 
00050010038000218REP       REP Attorney General                                    Ken Paxton                            1038                                                   01 
00050010039000125REP       REP Attorney General                                    Ken Paxton                            1039                                                   01 
00050010040000013REP       REP Attorney General                                    Ken Paxton                            1040                                                   01 
00050010041000175REP       REP Attorney General                                    Ken Paxton                            1041                                                   01 
00050010042000022REP       REP Attorney General                                    Ken Paxton                            1042                                                   01 
00050010043000162REP       REP Attorney General                                    Ken Paxton                            1043                                                   01 
00050010044000025REP       REP Attorney General                                    Ken Paxton                            1044                                                   01 
00050010045000010REP       REP Attorney General                                    Ken Paxton                            1045                                                   01 
00050010046000019REP       REP Attorney General                                    Ken Paxton                            1046                                                   01 
00050010047000022REP       REP Attorney General                                    Ken Paxton                            1047                                                   01 
00050010048000105REP       REP Attorney General                                    Ken Paxton                            1048                                                   01 
00050010049000042REP       REP Attorney General                                    Ken Paxton                            1049                                                   01 
00050010050000075REP       REP Attorney General                                    Ken Paxton                            1050                                                   01 
00050010051000095REP       REP Attorney General                                    Ken Paxton                            1051                                                   01 
00050010052000073REP       REP Attorney General                                    Ken Paxton                            1052                                                   01 
00050010053000107REP       REP Attorney General                                    Ken Paxton                            1053                                                   01 
00050010054000029REP       REP Attorney General                                    Ken Paxton                            1054                                                   01 
00050010055000232REP       REP Attorney General                                    Ken Paxton                            1055                                                   01 
00050010056000135REP       REP Attorney General                                    Ken Paxton                            1056                                                   01 
00050010057000107REP       REP Attorney General                                    Ken Paxton                            1057                                                   01 
00050010058000031REP       REP Attorney General                                    Ken Paxton                            1058                                                   01 
00050010059000032REP       REP Attorney General                                    Ken Paxton                            1059                                                   01 
00050020001000005REP       REP Attorney General                                    George P. Bush                        1001                                                   01 
00050020002000002REP       REP Attorney General                                    George P. Bush                        1002                                                   01 
00050020003000025REP       REP Attorney General                                    George P. Bush                        1003                                                   01 
00050020004000000REP       REP Attorney General                                    George P. Bush                        1004                                                   01 
00050020005000076REP       REP Attorney General                                    George P. Bush                        1005                                                   01 
00050020006000042REP       REP Attorney General                                    George P. Bush                        1006                                                   01 
00050020007000029REP       REP Attorney General                                    George P. Bush                        1007                                                   01 
00050020008000003REP       REP Attorney General                                    George P. Bush                        1008                                                   01 
00050020009000072REP       REP Attorney General                                    George P. Bush                        1009                                                   01 
00050020010000031REP       REP Attorney General                                    George P. Bush                        1010                                                   01 
00050020011000034REP       REP Attorney General                                    George P. Bush                        1011                                                   01 
00050020012000030REP       REP Attorney General                                    George P. Bush                        1012                                                   01 
00050020013000025REP       REP Attorney General                                    George P. Bush                        1013                                                   01 
00050020014000060REP       REP Attorney General                                    George P. Bush                        1014                                                   01 
00050020015000050REP       REP Attorney General                                    George P. Bush                        1015                                                   01 
00050020016000010REP       REP Attorney General                                    George P. Bush                        1016                                                   01 
00050020017000068REP       REP Attorney General                                    George P. Bush                        1017                                                   01 
00050020018000011REP       REP Attorney General                                    George P. Bush                        1018                                                   01 
00050020019000056REP       REP Attorney General                                    George P. Bush                        1019                                                   01 
00050020020000036REP       REP Attorney General                                    George P. Bush                        1020                                                   01 
00050020021000025REP       REP Attorney General                                    George P. Bush                        1021                                                   01 
00050020022000048REP       REP Attorney General                                    George P. Bush                        1022                                                   01 
00050020023000000REP       REP Attorney General                                    George P. Bush                        1023                                                   01 
00050020024000054REP       REP Attorney General                                    George P. Bush                        1024                                                   01 
00050020025000095REP       REP Attorney General                                    George P. Bush                        1025                                                   01 
00050020026000074REP       REP Attorney General                                    George P. Bush                        1026                                                   01 
00050020027000057REP       REP Attorney General                                    George P. Bush                        1027                                                   01 
00050020028000050REP       REP Attorney General                                    George P. Bush                        1028                                                   01 
00050020029000002REP       REP Attorney General                                    George P. Bush                        1029                                                   01 
00050020030000024REP       REP Attorney General                                    George P. Bush                        1030                                                   01 
00050020031000011REP       REP Attorney General                                    George P. Bush                        1031                                                   01 
00050020032000068REP       REP Attorney General                                    George P. Bush                        1032                                                   01 
00050020033000032REP       REP Attorney General                                    George P. Bush                        1033                                                   01 
00050020034000083REP       REP Attorney General                                    George P. Bush                        1034                                                   01 
00050020035000017REP       REP Attorney General                                    George P. Bush                        1035                                                   01 
00050020036000048REP       REP Attorney General                                    George P. Bush                        1036                                                   01 
00050020037000021REP       REP Attorney General                                    George P. Bush                        1037                                                   01 
00050020038000117REP       REP Attorney General                                    George P. Bush                        1038                                                   01 
00050020039000053REP       REP Attorney General                                    George P. Bush                        1039                                                   01 
00050020040000004REP       REP Attorney General                                    George P. Bush                        1040                                                   01 
00050020041000046REP       REP Attorney General                                    George P. Bush                        1041                                                   01 
00050020042000015REP       REP Attorney General                                    George P. Bush                        1042                                                   01 
00050020043000056REP       REP Attorney General                                    George P. Bush                        1043                                                   01 
00050020044000022REP       REP Attorney General                                    George P. Bush                        1044                                                   01 
00050020045000008REP       REP Attorney General                                    George P. Bush                        1045                                                   01 
00050020046000019REP       REP Attorney General                                    George P. Bush                        1046                                                   01 
00050020047000010REP       REP Attorney General                                    George P. Bush                        1047                                                   01 
00050020048000049REP       REP Attorney General                                    George P. Bush                        1048                                                   01 
00050020049000019REP       REP Attorney General                                    George P. Bush                        1049                                                   01 
00050020050000032REP       REP Attorney General                                    George P. Bush                        1050                                                   01 
00050020051000025REP       REP Attorney General                                    George P. Bush                        1051                                                   01 
00050020052000029REP       REP Attorney General                                    George P. Bush                        1052                                                   01 
00050020053000042REP       REP Attorney General                                    George P. Bush                        1053                                                   01 
00050020054000007REP       REP Attorney General                                    George P. Bush                        1054                                                   01 
00050020055000088REP       REP Attorney General                                    George P. Bush                        1055                                                   01 
00050020056000070REP       REP Attorney General                                    George P. Bush                        1056                                                   01 
00050020057000045REP       REP Attorney General                                    George P. Bush                        1057                                                   01 
00050020058000010REP       REP Attorney General                                    George P. Bush                        1058                                                   01 
00050020059000008REP       REP Attorney General                                    George P. Bush                        1059                                                   01 
00050030001000000          REP Attorney General                                    OVER VOTES                            1001                                                   01 
00050030002000000          REP Attorney General                                    OVER VOTES                            1002                                                   01 
00050030003000000          REP Attorney General                                    OVER VOTES                            1003                                                   01 
00050030004000000          REP Attorney General                                    OVER VOTES                            1004                                                   01 
00050030005000000          REP Attorney General                                    OVER VOTES                            1005                                                   01 
00050030006000000          REP Attorney General                                    OVER VOTES                            1006                                                   01 
00050030007000000          REP Attorney General                                    OVER VOTES                            1007                                                   01 
00050030008000000          REP Attorney General                                    OVER VOTES                            1008                                                   01 
00050030009000000          REP Attorney General                                    OVER VOTES                            1009                                                   01 
00050030010000000          REP Attorney General                                    OVER VOTES                            1010                                                   01 
00050030011000000          REP Attorney General                                    OVER VOTES                            1011                                                   01 
00050030012000000          REP Attorney General                                    OVER VOTES                            1012                                                   01 
00050030013000000          REP Attorney General                                    OVER VOTES                            1013                                                   01 
00050030014000000          REP Attorney General                                    OVER VOTES                            1014                                                   01 
00050030015000000          REP Attorney General                                    OVER VOTES                            1015                                                   01 
00050030016000000          REP Attorney General                                    OVER VOTES                            1016                                                   01 
00050030017000000          REP Attorney General                                    OVER VOTES                            1017                                                   01 
00050030018000000          REP Attorney General                                    OVER VOTES                            1018                                                   01 
00050030019000000          REP Attorney General                                    OVER VOTES                            1019                                                   01 
00050030020000000          REP Attorney General                                    OVER VOTES                            1020                                                   01 
00050030021000000          REP Attorney General                                    OVER VOTES                            1021                                                   01 
00050030022000000          REP Attorney General                                    OVER VOTES                            1022                                                   01 
00050030023000000          REP Attorney General                                    OVER VOTES                            1023                                                   01 
00050030024000000          REP Attorney General                                    OVER VOTES                            1024                                                   01 
00050030025000000          REP Attorney General                                    OVER VOTES                            1025                                                   01 
00050030026000000          REP Attorney General                                    OVER VOTES                            1026                                                   01 
00050030027000000          REP Attorney General                                    OVER VOTES                            1027                                                   01 
00050030028000000          REP Attorney General                                    OVER VOTES                            1028                                                   01 
00050030029000000          REP Attorney General                                    OVER VOTES                            1029                                                   01 
00050030030000000          REP Attorney General                                    OVER VOTES                            1030                                                   01 
00050030031000000          REP Attorney General                                    OVER VOTES                            1031                                                   01 
00050030032000000          REP Attorney General                                    OVER VOTES                            1032                                                   01 
00050030033000000          REP Attorney General                                    OVER VOTES                            1033                                                   01 
00050030034000000          REP Attorney General                                    OVER VOTES                            1034                                                   01 
00050030035000000          REP Attorney General                                    OVER VOTES                            1035                                                   01 
00050030036000000          REP Attorney General                                    OVER VOTES                            1036                                                   01 
00050030037000000          REP Attorney General                                    OVER VOTES                            1037                                                   01 
00050030038000000          REP Attorney General                                    OVER VOTES                            1038                                                   01 
00050030039000000          REP Attorney General                                    OVER VOTES                            1039                                                   01 
00050030040000000          REP Attorney General                                    OVER VOTES                            1040                                                   01 
00050030041000000          REP Attorney General                                    OVER VOTES                            1041                                                   01 
00050030042000000          REP Attorney General                                    OVER VOTES                            1042                                                   01 
00050030043000000          REP Attorney General                                    OVER VOTES                            1043                                                   01 
00050030044000000          REP Attorney General                                    OVER VOTES                            1044                                                   01 
00050030045000000          REP Attorney General                                    OVER VOTES                            1045                                                   01 
00050030046000000          REP Attorney General                                    OVER VOTES                            1046                                                   01 
00050030047000000          REP Attorney General                                    OVER VOTES                            1047                                                   01 
00050030048000000          REP Attorney General                                    OVER VOTES                            1048                                                   01 
00050030049000000          REP Attorney General                                    OVER VOTES                            1049                                                   01 
00050030050000000          REP Attorney General                                    OVER VOTES                            1050                                                   01 
00050030051000000          REP Attorney General                                    OVER VOTES                            1051                                                   01 
00050030052000000          REP Attorney General                                    OVER VOTES                            1052                                                   01 
00050030053000000          REP Attorney General                                    OVER VOTES                            1053                                                   01 
00050030054000000          REP Attorney General                                    OVER VOTES                            1054                                                   01 
00050030055000000          REP Attorney General                                    OVER VOTES                            1055                                                   01 
00050030056000000          REP Attorney General                                    OVER VOTES                            1056                                                   01 
00050030057000000          REP Attorney General                                    OVER VOTES                            1057                                                   01 
00050030058000000          REP Attorney General                                    OVER VOTES                            1058                                                   01 
00050030059000000          REP Attorney General                                    OVER VOTES                            1059                                                   01 
00050040001000000          REP Attorney General                                    UNDER VOTES                           1001                                                   01 
00050040002000000          REP Attorney General                                    UNDER VOTES                           1002                                                   01 
00050040003000000          REP Attorney General                                    UNDER VOTES                           1003                                                   01 
00050040004000000          REP Attorney General                                    UNDER VOTES                           1004                                                   01 
00050040005000001          REP Attorney General                                    UNDER VOTES                           1005                                                   01 
00050040006000000          REP Attorney General                                    UNDER VOTES                           1006                                                   01 
00050040007000001          REP Attorney General                                    UNDER VOTES                           1007                                                   01 
00050040008000000          REP Attorney General                                    UNDER VOTES                           1008                                                   01 
00050040009000001          REP Attorney General                                    UNDER VOTES                           1009                                                   01 
00050040010000003          REP Attorney General                                    UNDER VOTES                           1010                                                   01 
00050040011000001          REP Attorney General                                    UNDER VOTES                           1011                                                   01 
00050040012000001          REP Attorney General                                    UNDER VOTES                           1012                                                   01 
00050040013000000          REP Attorney General                                    UNDER VOTES                           1013                                                   01 
00050040014000001          REP Attorney General                                    UNDER VOTES                           1014                                                   01 
00050040015000000          REP Attorney General                                    UNDER VOTES                           1015                                                   01 
00050040016000000          REP Attorney General                                    UNDER VOTES                           1016                                                   01 
00050040017000003          REP Attorney General                                    UNDER VOTES                           1017                                                   01 
00050040018000000          REP Attorney General                                    UNDER VOTES                           1018                                                   01 
00050040019000002          REP Attorney General                                    UNDER VOTES                           1019                                                   01 
00050040020000000          REP Attorney General                                    UNDER VOTES                           1020                                                   01 
00050040021000000          REP Attorney General                                    UNDER VOTES                           1021                                                   01 
00050040022000003          REP Attorney General                                    UNDER VOTES                           1022                                                   01 
00050040023000000          REP Attorney General                                    UNDER VOTES                           1023                                                   01 
00050040024000002          REP Attorney General                                    UNDER VOTES                           1024                                                   01 
00050040025000004          REP Attorney General                                    UNDER VOTES                           1025                                                   01 
00050040026000003          REP Attorney General                                    UNDER VOTES                           1026                                                   01 
00050040027000001          REP Attorney General                                    UNDER VOTES                           1027                                                   01 
00050040028000001          REP Attorney General                                    UNDER VOTES                           1028                                                   01 
00050040029000000          REP Attorney General                                    UNDER VOTES                           1029                                                   01 
00050040030000001          REP Attorney General                                    UNDER VOTES                           1030                                                   01 
00050040031000002          REP Attorney General                                    UNDER VOTES                           1031                                                   01 
00050040032000001          REP Attorney General                                    UNDER VOTES                           1032                                                   01 
00050040033000002          REP Attorney General                                    UNDER VOTES                           1033                                                   01 
00050040034000001          REP Attorney General                                    UNDER VOTES                           1034                                                   01 
00050040035000001          REP Attorney General                                    UNDER VOTES                           1035                                                   01 
00050040036000000          REP Attorney General                                    UNDER VOTES                           1036                                                   01 
00050040037000000          REP Attorney General                                    UNDER VOTES                           1037                                                   01 
00050040038000000          REP Attorney General                                    UNDER VOTES                           1038                                                   01 
00050040039000001          REP Attorney General                                    UNDER VOTES                           1039                                                   01 
00050040040000000          REP Attorney General                                    UNDER VOTES                           1040                                                   01 
00050040041000002          REP Attorney General                                    UNDER VOTES                           1041                                                   01 
00050040042000000          REP Attorney General                                    UNDER VOTES                           1042                                                   01 
00050040043000001          REP Attorney General                                    UNDER VOTES                           1043                                                   01 
00050040044000001          REP Attorney General                                    UNDER VOTES                           1044                                                   01 
00050040045000000          REP Attorney General                                    UNDER VOTES                           1045                                                   01 
00050040046000000          REP Attorney General                                    UNDER VOTES                           1046                                                   01 
00050040047000000          REP Attorney General                                    UNDER VOTES                           1047                                                   01 
00050040048000000          REP Attorney General                                    UNDER VOTES                           1048                                                   01 
00050040049000000          REP Attorney General                                    UNDER VOTES                           1049                                                   01 
00050040050000001          REP Attorney General                                    UNDER VOTES                           1050                                                   01 
00050040051000000          REP Attorney General                                    UNDER VOTES                           1051                                                   01 
00050040052000000          REP Attorney General                                    UNDER VOTES                           1052                                                   01 
00050040053000001          REP Attorney General                                    UNDER VOTES                           1053                                                   01 
00050040054000001          REP Attorney General                                    UNDER VOTES                           1054                                                   01 
00050040055000005          REP Attorney General                                    UNDER VOTES                           1055                                                   01 
00050040056000000          REP Attorney General                                    UNDER VOTES                           1056                                                   01 
00050040057000000          REP Attorney General                                    UNDER VOTES                           1057                                                   01 
00050040058000000          REP Attorney General                                    UNDER VOTES                           1058                                                   01 
00050040059000000          REP Attorney General                                    UNDER VOTES                           1059                                                   01 
00060010001000015REP       REP Commissioner of the General Land Office             Dawn Buckingham                       1001                                                   01 
00060010002000006REP       REP Commissioner of the General Land Office             Dawn Buckingham                       1002                                                   01 
00060010003000055REP       REP Commissioner of the General Land Office             Dawn Buckingham                       1003                                                   01 
00060010004000000REP       REP Commissioner of the General Land Office             Dawn Buckingham                       1004                                                   01 
00060010005000167REP       REP Commissioner of the General Land Office             Dawn Buckingham                       1005                                                   01 
00060010006000082REP       REP Commissioner of the General Land Office             Dawn Buckingham                       1006                                                   01 
00060010007000096REP       REP Commissioner of the General Land Office             Dawn Buckingham                       1007                                                   01 
00060010008000005REP       REP Commissioner of the General Land Office             Dawn Buckingham                       1008                                                   01 
00060010009000161REP       REP Commissioner of the General Land Office             Dawn Buckingham                       1009                                                   01 
00060010010000064REP       REP Commissioner of the General Land Office             Dawn Buckingham                       1010                                                   01 
00060010011000083REP       REP Commissioner of the General Land Office             Dawn Buckingham                       1011                                                   01 
00060010012000077REP       REP Commissioner of the General Land Office             Dawn Buckingham                       1012                                                   01 
00060010013000068REP       REP Commissioner of the General Land Office             Dawn Buckingham                       1013                                                   01 
00060010014000104REP       REP Commissioner of the General Land Office             Dawn Buckingham                       1014                                                   01 
00060010015000121REP       REP Commissioner of the General Land Office             Dawn Buckingham                       1015                                                   01 
00060010016000011REP       REP Commissioner of the General Land Office             Dawn Buckingham                       1016                                                   01 
00060010017000114REP       REP Commissioner of the General Land Office             Dawn Buckingham                       1017                                                   01 
00060010018000021REP       REP Commissioner of the General Land Office             Dawn Buckingham                       1018                                                   01 
00060010019000120REP       REP Commissioner of the General Land Office             Dawn Buckingham                       1019                                                   01 
00060010020000080REP       REP Commissioner of the General Land Office             Dawn Buckingham                       1020                                                   01 
00060010021000049REP       REP Commissioner of the General Land Office             Dawn Buckingham                       1021                                                   01 
00060010022000091REP       REP Commissioner of the General Land Office             Dawn Buckingham                       1022                                                   01 
00060010023000000REP       REP Commissioner of the General Land Office             Dawn Buckingham                       1023                                                   01 
00060010024000066REP       REP Commissioner of the General Land Office             Dawn Buckingham                       1024                                                   01 
00060010025000129REP       REP Commissioner of the General Land Office             Dawn Buckingham                       1025                                                   01 
00060010026000089REP       REP Commissioner of the General Land Office             Dawn Buckingham                       1026                                                   01 
00060010027000144REP       REP Commissioner of the General Land Office             Dawn Buckingham                       1027                                                   01 
00060010028000142REP       REP Commissioner of the General Land Office             Dawn Buckingham                       1028                                                   01 
00060010029000024REP       REP Commissioner of the General Land Office             Dawn Buckingham                       1029                                                   01 
00060010030000061REP       REP Commissioner of the General Land Office             Dawn Buckingham                       1030                                                   01 
00060010031000038REP       REP Commissioner of the General Land Office             Dawn Buckingham                       1031                                                   01 
00060010032000162REP       REP Commissioner of the General Land Office             Dawn Buckingham                       1032                                                   01 
00060010033000093REP       REP Commissioner of the General Land Office             Dawn Buckingham                       1033                                                   01 
00060010034000173REP       REP Commissioner of the General Land Office             Dawn Buckingham                       1034                                                   01 
00060010035000039REP       REP Commissioner of the General Land Office             Dawn Buckingham                       1035                                                   01 
00060010036000086REP       REP Commissioner of the General Land Office             Dawn Buckingham                       1036                                                   01 
00060010037000052REP       REP Commissioner of the General Land Office             Dawn Buckingham                       1037                                                   01 
00060010038000205REP       REP Commissioner of the General Land Office             Dawn Buckingham                       1038                                                   01 
00060010039000104REP       REP Commissioner of the General Land Office             Dawn Buckingham                       1039                                                   01 
00060010040000013REP       REP Commissioner of the General Land Office             Dawn Buckingham                       1040                                                   01 
00060010041000134REP       REP Commissioner of the General Land Office             Dawn Buckingham                       1041                                                   01 
00060010042000026REP       REP Commissioner of the General Land Office             Dawn Buckingham                       1042                                                   01 
00060010043000141REP       REP Commissioner of the General Land Office             Dawn Buckingham                       1043                                                   01 
00060010044000035REP       REP Commissioner of the General Land Office             Dawn Buckingham                       1044                                                   01 
00060010045000013REP       REP Commissioner of the General Land Office             Dawn Buckingham                       1045                                                   01 
00060010046000025REP       REP Commissioner of the General Land Office             Dawn Buckingham                       1046                                                   01 
00060010047000019REP       REP Commissioner of the General Land Office             Dawn Buckingham                       1047                                                   01 
00060010048000098REP       REP Commissioner of the General Land Office             Dawn Buckingham                       1048                                                   01 
00060010049000041REP       REP Commissioner of the General Land Office             Dawn Buckingham                       1049                                                   01 
00060010050000059REP       REP Commissioner of the General Land Office             Dawn Buckingham                       1050                                                   01 
00060010051000079REP       REP Commissioner of the General Land Office             Dawn Buckingham                       1051                                                   01 
00060010052000068REP       REP Commissioner of the General Land Office             Dawn Buckingham                       1052                                                   01 
00060010053000106REP       REP Commissioner of the General Land Office             Dawn Buckingham                       1053                                                   01 
00060010054000023REP       REP Commissioner of the General Land Office             Dawn Buckingham                       1054                                                   01 
00060010055000210REP       REP Commissioner of the General Land Office             Dawn Buckingham                       1055                                                   01 
00060010056000125REP       REP Commissioner of the General Land Office             Dawn Buckingham                       1056                                                   01 
00060010057000096REP       REP Commissioner of the General Land Office             Dawn Buckingham                       1057                                                   01 
00060010058000029REP       REP Commissioner of the General Land Office             Dawn Buckingham                       1058                                                   01 
00060010059000032REP       REP Commissioner of the General Land Office             Dawn Buckingham                       1059                                                   01 
00060020001000003REP       REP Commissioner of the General Land Office             Tim Westley                           1001                                                   01 
00060020002000002REP       REP Commissioner of the General Land Office             Tim Westley                           1002                                                   01 
00060020003000030REP       REP Commissioner of the General Land Office             Tim Westley                           1003                                                   01 
00060020004000000REP       REP Commissioner of the General Land Office             Tim Westley                           1004                                                   01 
00060020005000067REP       REP Commissioner of the General Land Office             Tim Westley                           1005                                                   01 
00060020006000044REP       REP Commissioner of the General Land Office             Tim Westley                           1006                                                   01 
00060020007000030REP       REP Commissioner of the General Land Office             Tim Westley                           1007                                                   01 
00060020008000006REP       REP Commissioner of the General Land Office             Tim Westley                           1008                                                   01 
00060020009000061REP       REP Commissioner of the General Land Office             Tim Westley                           1009                                                   01 
00060020010000039REP       REP Commissioner of the General Land Office             Tim Westley                           1010                                                   01 
00060020011000036REP       REP Commissioner of the General Land Office             Tim Westley                           1011                                                   01 
00060020012000039REP       REP Commissioner of the General Land Office             Tim Westley                           1012                                                   01 
00060020013000028REP       REP Commissioner of the General Land Office             Tim Westley                           1013                                                   01 
00060020014000038REP       REP Commissioner of the General Land Office             Tim Westley                           1014                                                   01 
00060020015000042REP       REP Commissioner of the General Land Office             Tim Westley                           1015                                                   01 
00060020016000011REP       REP Commissioner of the General Land Office             Tim Westley                           1016                                                   01 
00060020017000043REP       REP Commissioner of the General Land Office             Tim Westley                           1017                                                   01 
00060020018000014REP       REP Commissioner of the General Land Office             Tim Westley                           1018                                                   01 
00060020019000052REP       REP Commissioner of the General Land Office             Tim Westley                           1019                                                   01 
00060020020000047REP       REP Commissioner of the General Land Office             Tim Westley                           1020                                                   01 
00060020021000017REP       REP Commissioner of the General Land Office             Tim Westley                           1021                                                   01 
00060020022000047REP       REP Commissioner of the General Land Office             Tim Westley                           1022                                                   01 
00060020023000000REP       REP Commissioner of the General Land Office             Tim Westley                           1023                                                   01 
00060020024000039REP       REP Commissioner of the General Land Office             Tim Westley                           1024                                                   01 
00060020025000071REP       REP Commissioner of the General Land Office             Tim Westley                           1025                                                   01 
00060020026000047REP       REP Commissioner of the General Land Office             Tim Westley                           1026                                                   01 
00060020027000038REP       REP Commissioner of the General Land Office             Tim Westley                           1027                                                   01 
00060020028000041REP       REP Commissioner of the General Land Office             Tim Westley                           1028                                                   01 
00060020029000006REP       REP Commissioner of the General Land Office             Tim Westley                           1029                                                   01 
00060020030000033REP       REP Commissioner of the General Land Office             Tim Westley                           1030                                                   01 
00060020031000016REP       REP Commissioner of the General Land Office             Tim Westley                           1031                                                   01 
00060020032000057REP       REP Commissioner of the General Land Office             Tim Westley                           1032                                                   01 
00060020033000027REP       REP Commissioner of the General Land Office             Tim Westley                           1033                                                   01 
00060020034000072REP       REP Commissioner of the General Land Office             Tim Westley                           1034                                                   01 
00060020035000015REP       REP Commissioner of the General Land Office             Tim Westley                           1035                                                   01 
00060020036000060REP       REP Commissioner of the General Land Office             Tim Westley                           1036                                                   01 
00060020037000013REP       REP Commissioner of the General Land Office             Tim Westley                           1037                                                   01 
00060020038000095REP       REP Commissioner of the General Land Office             Tim Westley                           1038                                                   01 
00060020039000054REP       REP Commissioner of the General Land Office             Tim Westley                           1039                                                   01 
00060020040000003REP       REP Commissioner of the General Land Office             Tim Westley                           1040                                                   01 
00060020041000065REP       REP Commissioner of the General Land Office             Tim Westley                           1041                                                   01 
00060020042000009REP       REP Commissioner of the General Land Office             Tim Westley                           1042                                                   01 
00060020043000055REP       REP Commissioner of the General Land Office             Tim Westley                           1043                                                   01 
00060020044000008REP       REP Commissioner of the General Land Office             Tim Westley                           1044                                                   01 
00060020045000001REP       REP Commissioner of the General Land Office             Tim Westley                           1045                                                   01 
00060020046000008REP       REP Commissioner of the General Land Office             Tim Westley                           1046                                                   01 
00060020047000010REP       REP Commissioner of the General Land Office             Tim Westley                           1047                                                   01 
00060020048000038REP       REP Commissioner of the General Land Office             Tim Westley                           1048                                                   01 
00060020049000015REP       REP Commissioner of the General Land Office             Tim Westley                           1049                                                   01 
00060020050000034REP       REP Commissioner of the General Land Office             Tim Westley                           1050                                                   01 
00060020051000036REP       REP Commissioner of the General Land Office             Tim Westley                           1051                                                   01 
00060020052000027REP       REP Commissioner of the General Land Office             Tim Westley                           1052                                                   01 
00060020053000031REP       REP Commissioner of the General Land Office             Tim Westley                           1053                                                   01 
00060020054000011REP       REP Commissioner of the General Land Office             Tim Westley                           1054                                                   01 
00060020055000079REP       REP Commissioner of the General Land Office             Tim Westley                           1055                                                   01 
00060020056000051REP       REP Commissioner of the General Land Office             Tim Westley                           1056                                                   01 
00060020057000044REP       REP Commissioner of the General Land Office             Tim Westley                           1057                                                   01 
00060020058000010REP       REP Commissioner of the General Land Office             Tim Westley                           1058                                                   01 
00060020059000005REP       REP Commissioner of the General Land Office             Tim Westley                           1059                                                   01 
00060030001000000          REP Commissioner of the General Land Office             OVER VOTES                            1001                                                   01 
00060030002000000          REP Commissioner of the General Land Office             OVER VOTES                            1002                                                   01 
00060030003000000          REP Commissioner of the General Land Office             OVER VOTES                            1003                                                   01 
00060030004000000          REP Commissioner of the General Land Office             OVER VOTES                            1004                                                   01 
00060030005000000          REP Commissioner of the General Land Office             OVER VOTES                            1005                                                   01 
00060030006000000          REP Commissioner of the General Land Office             OVER VOTES                            1006                                                   01 
00060030007000000          REP Commissioner of the General Land Office             OVER VOTES                            1007                                                   01 
00060030008000000          REP Commissioner of the General Land Office             OVER VOTES                            1008                                                   01 
00060030009000000          REP Commissioner of the General Land Office             OVER VOTES                            1009                                                   01 
00060030010000000          REP Commissioner of the General Land Office             OVER VOTES                            1010                                                   01 
00060030011000000          REP Commissioner of the General Land Office             OVER VOTES                            1011                                                   01 
00060030012000000          REP Commissioner of the General Land Office             OVER VOTES                            1012                                                   01 
00060030013000000          REP Commissioner of the General Land Office             OVER VOTES                            1013                                                   01 
00060030014000000          REP Commissioner of the General Land Office             OVER VOTES                            1014                                                   01 
00060030015000000          REP Commissioner of the General Land Office             OVER VOTES                            1015                                                   01 
00060030016000000          REP Commissioner of the General Land Office             OVER VOTES                            1016                                                   01 
00060030017000000          REP Commissioner of the General Land Office             OVER VOTES                            1017                                                   01 
00060030018000000          REP Commissioner of the General Land Office             OVER VOTES                            1018                                                   01 
00060030019000000          REP Commissioner of the General Land Office             OVER VOTES                            1019                                                   01 
00060030020000000          REP Commissioner of the General Land Office             OVER VOTES                            1020                                                   01 
00060030021000000          REP Commissioner of the General Land Office             OVER VOTES                            1021                                                   01 
00060030022000000          REP Commissioner of the General Land Office             OVER VOTES                            1022                                                   01 
00060030023000000          REP Commissioner of the General Land Office             OVER VOTES                            1023                                                   01 
00060030024000000          REP Commissioner of the General Land Office             OVER VOTES                            1024                                                   01 
00060030025000000          REP Commissioner of the General Land Office             OVER VOTES                            1025                                                   01 
00060030026000000          REP Commissioner of the General Land Office             OVER VOTES                            1026                                                   01 
00060030027000000          REP Commissioner of the General Land Office             OVER VOTES                            1027                                                   01 
00060030028000000          REP Commissioner of the General Land Office             OVER VOTES                            1028                                                   01 
00060030029000000          REP Commissioner of the General Land Office             OVER VOTES                            1029                                                   01 
00060030030000000          REP Commissioner of the General Land Office             OVER VOTES                            1030                                                   01 
00060030031000000          REP Commissioner of the General Land Office             OVER VOTES                            1031                                                   01 
00060030032000000          REP Commissioner of the General Land Office             OVER VOTES                            1032                                                   01 
00060030033000000          REP Commissioner of the General Land Office             OVER VOTES                            1033                                                   01 
00060030034000000          REP Commissioner of the General Land Office             OVER VOTES                            1034                                                   01 
00060030035000000          REP Commissioner of the General Land Office             OVER VOTES                            1035                                                   01 
00060030036000000          REP Commissioner of the General Land Office             OVER VOTES                            1036                                                   01 
00060030037000000          REP Commissioner of the General Land Office             OVER VOTES                            1037                                                   01 
00060030038000000          REP Commissioner of the General Land Office             OVER VOTES                            1038                                                   01 
00060030039000000          REP Commissioner of the General Land Office             OVER VOTES                            1039                                                   01 
00060030040000000          REP Commissioner of the General Land Office             OVER VOTES                            1040                                                   01 
00060030041000000          REP Commissioner of the General Land Office             OVER VOTES                            1041                                                   01 
00060030042000000          REP Commissioner of the General Land Office             OVER VOTES                            1042                                                   01 
00060030043000000          REP Commissioner of the General Land Office             OVER VOTES                            1043                                                   01 
00060030044000000          REP Commissioner of the General Land Office             OVER VOTES                            1044                                                   01 
00060030045000000          REP Commissioner of the General Land Office             OVER VOTES                            1045                                                   01 
00060030046000000          REP Commissioner of the General Land Office             OVER VOTES                            1046                                                   01 
00060030047000000          REP Commissioner of the General Land Office             OVER VOTES                            1047                                                   01 
00060030048000000          REP Commissioner of the General Land Office             OVER VOTES                            1048                                                   01 
00060030049000000          REP Commissioner of the General Land Office             OVER VOTES                            1049                                                   01 
00060030050000000          REP Commissioner of the General Land Office             OVER VOTES                            1050                                                   01 
00060030051000000          REP Commissioner of the General Land Office             OVER VOTES                            1051                                                   01 
00060030052000000          REP Commissioner of the General Land Office             OVER VOTES                            1052                                                   01 
00060030053000000          REP Commissioner of the General Land Office             OVER VOTES                            1053                                                   01 
00060030054000000          REP Commissioner of the General Land Office             OVER VOTES                            1054                                                   01 
00060030055000000          REP Commissioner of the General Land Office             OVER VOTES                            1055                                                   01 
00060030056000000          REP Commissioner of the General Land Office             OVER VOTES                            1056                                                   01 
00060030057000000          REP Commissioner of the General Land Office             OVER VOTES                            1057                                                   01 
00060030058000000          REP Commissioner of the General Land Office             OVER VOTES                            1058                                                   01 
00060030059000000          REP Commissioner of the General Land Office             OVER VOTES                            1059                                                   01 
00060040001000004          REP Commissioner of the General Land Office             UNDER VOTES                           1001                                                   01 
00060040002000002          REP Commissioner of the General Land Office             UNDER VOTES                           1002                                                   01 
00060040003000011          REP Commissioner of the General Land Office             UNDER VOTES                           1003                                                   01 
00060040004000000          REP Commissioner of the General Land Office             UNDER VOTES                           1004                                                   01 
00060040005000018          REP Commissioner of the General Land Office             UNDER VOTES                           1005                                                   01 
00060040006000010          REP Commissioner of the General Land Office             UNDER VOTES                           1006                                                   01 
00060040007000011          REP Commissioner of the General Land Office             UNDER VOTES                           1007                                                   01 
00060040008000000          REP Commissioner of the General Land Office             UNDER VOTES                           1008                                                   01 
00060040009000016          REP Commissioner of the General Land Office             UNDER VOTES                           1009                                                   01 
00060040010000009          REP Commissioner of the General Land Office             UNDER VOTES                           1010                                                   01 
00060040011000016          REP Commissioner of the General Land Office             UNDER VOTES                           1011                                                   01 
00060040012000012          REP Commissioner of the General Land Office             UNDER VOTES                           1012                                                   01 
00060040013000014          REP Commissioner of the General Land Office             UNDER VOTES                           1013                                                   01 
00060040014000017          REP Commissioner of the General Land Office             UNDER VOTES                           1014                                                   01 
00060040015000003          REP Commissioner of the General Land Office             UNDER VOTES                           1015                                                   01 
00060040016000005          REP Commissioner of the General Land Office             UNDER VOTES                           1016                                                   01 
00060040017000011          REP Commissioner of the General Land Office             UNDER VOTES                           1017                                                   01 
00060040018000000          REP Commissioner of the General Land Office             UNDER VOTES                           1018                                                   01 
00060040019000011          REP Commissioner of the General Land Office             UNDER VOTES                           1019                                                   01 
00060040020000006          REP Commissioner of the General Land Office             UNDER VOTES                           1020                                                   01 
00060040021000008          REP Commissioner of the General Land Office             UNDER VOTES                           1021                                                   01 
