00010010001001014000000000000000000000000000000000000000000000000000000000000000000000000000000000000          REGISTERED VOTERS - TOTAL                               REGISTERED VOTERS - TOTAL             Precinct 11                                            00 
00010010002000474000000000000000000000000000000000000000000000000000000000000000000000000000000000000          REGISTERED VOTERS - TOTAL                               REGISTERED VOTERS - TOTAL             Precinct 12                                            00 
00010010003001185000000000000000000000000000000000000000000000000000000000000000000000000000000000000          REGISTERED VOTERS - TOTAL                               REGISTERED VOTERS - TOTAL             Precinct 21                                            00 
00010010004000278000000000000000000000000000000000000000000000000000000000000000000000000000000000000          REGISTERED VOTERS - TOTAL                               REGISTERED VOTERS - TOTAL             Precinct 22                                            00 
00010010005000626000000000000000000000000000000000000000000000000000000000000000000000000000000000000          REGISTERED VOTERS - TOTAL                               REGISTERED VOTERS - TOTAL             Precinct 31                                            00 
00010010006000653000000000000000000000000000000000000000000000000000000000000000000000000000000000000          REGISTERED VOTERS - TOTAL                               REGISTERED VOTERS - TOTAL             Precinct 32                                            00 
00010010007000402000000000000000000000000000000000000000000000000000000000000000000000000000000000000          REGISTERED VOTERS - TOTAL                               REGISTERED VOTERS - TOTAL             Precinct 41                                            00 
00010010008000663000000000000000000000000000000000000000000000000000000000000000000000000000000000000          REGISTERED VOTERS - TOTAL                               REGISTERED VOTERS - TOTAL             Precinct 42                                            00 
00010010009000439000000000000000000000000000000000000000000000000000000000000000000000000000000000000          REGISTERED VOTERS - TOTAL                               REGISTERED VOTERS - TOTAL             Precinct 43                                            00 
00020010001000000000000000000000000000000000000000000000000000000000000000000000000000000000000000000REP       REGISTERED VOTERS - Republican Party                    REGISTERED VOTERS - Republican Party  Precinct 11                                            00 
00020010002000000000000000000000000000000000000000000000000000000000000000000000000000000000000000000REP       REGISTERED VOTERS - Republican Party                    REGISTERED VOTERS - Republican Party  Precinct 12                                            00 
00020010003000000000000000000000000000000000000000000000000000000000000000000000000000000000000000000REP       REGISTERED VOTERS - Republican Party                    REGISTERED VOTERS - Republican Party  Precinct 21                                            00 
00020010004000000000000000000000000000000000000000000000000000000000000000000000000000000000000000000REP       REGISTERED VOTERS - Republican Party                    REGISTERED VOTERS - Republican Party  Precinct 22                                            00 
00020010005000000000000000000000000000000000000000000000000000000000000000000000000000000000000000000REP       REGISTERED VOTERS - Republican Party                    REGISTERED VOTERS - Republican Party  Precinct 31                                            00 
00020010006000000000000000000000000000000000000000000000000000000000000000000000000000000000000000000REP       REGISTERED VOTERS - Republican Party                    REGISTERED VOTERS - Republican Party  Precinct 32                                            00 
00020010007000000000000000000000000000000000000000000000000000000000000000000000000000000000000000000REP       REGISTERED VOTERS - Republican Party                    REGISTERED VOTERS - Republican Party  Precinct 41                                            00 
00020010008000000000000000000000000000000000000000000000000000000000000000000000000000000000000000000REP       REGISTERED VOTERS - Republican Party                    REGISTERED VOTERS - Republican Party  Precinct 42                                            00 
00020010009000000000000000000000000000000000000000000000000000000000000000000000000000000000000000000REP       REGISTERED VOTERS - Republican Party                    REGISTERED VOTERS - Republican Party  Precinct 43                                            00 
00030010001000000000000000000000000000000000000000000000000000000000000000000000000000000000000000000DEM       REGISTERED VOTERS - Democratic Party                    REGISTERED VOTERS - Democratic Party  Precinct 11                                            00 
00030010002000000000000000000000000000000000000000000000000000000000000000000000000000000000000000000DEM       REGISTERED VOTERS - Democratic Party                    REGISTERED VOTERS - Democratic Party  Precinct 12                                            00 
00030010003000000000000000000000000000000000000000000000000000000000000000000000000000000000000000000DEM       REGISTERED VOTERS - Democratic Party                    REGISTERED VOTERS - Democratic Party  Precinct 21                                            00 
00030010004000000000000000000000000000000000000000000000000000000000000000000000000000000000000000000DEM       REGISTERED VOTERS - Democratic Party                    REGISTERED VOTERS - Democratic Party  Precinct 22                                            00 
00030010005000000000000000000000000000000000000000000000000000000000000000000000000000000000000000000DEM       REGISTERED VOTERS - Democratic Party                    REGISTERED VOTERS - Democratic Party  Precinct 31                                            00 
00030010006000000000000000000000000000000000000000000000000000000000000000000000000000000000000000000DEM       REGISTERED VOTERS - Democratic Party                    REGISTERED VOTERS - Democratic Party  Precinct 32                                            00 
00030010007000000000000000000000000000000000000000000000000000000000000000000000000000000000000000000DEM       REGISTERED VOTERS - Democratic Party                    REGISTERED VOTERS - Democratic Party  Precinct 41                                            00 
00030010008000000000000000000000000000000000000000000000000000000000000000000000000000000000000000000DEM       REGISTERED VOTERS - Democratic Party                    REGISTERED VOTERS - Democratic Party  Precinct 42                                            00 
00030010009000000000000000000000000000000000000000000000000000000000000000000000000000000000000000000DEM       REGISTERED VOTERS - Democratic Party                    REGISTERED VOTERS - Democratic Party  Precinct 43                                            00 
00040010001001014000000000000000000000000000000000000000000000000000000000000000000000000000000000000NON       REGISTERED VOTERS - NONPARTISAN                         REGISTERED VOTERS - NONPARTISAN       Precinct 11                                            00 
00040010002000474000000000000000000000000000000000000000000000000000000000000000000000000000000000000NON       REGISTERED VOTERS - NONPARTISAN                         REGISTERED VOTERS - NONPARTISAN       Precinct 12                                            00 
00040010003001185000000000000000000000000000000000000000000000000000000000000000000000000000000000000NON       REGISTERED VOTERS - NONPARTISAN                         REGISTERED VOTERS - NONPARTISAN       Precinct 21                                            00 
00040010004000278000000000000000000000000000000000000000000000000000000000000000000000000000000000000NON       REGISTERED VOTERS - NONPARTISAN                         REGISTERED VOTERS - NONPARTISAN       Precinct 22                                            00 
00040010005000626000000000000000000000000000000000000000000000000000000000000000000000000000000000000NON       REGISTERED VOTERS - NONPARTISAN                         REGISTERED VOTERS - NONPARTISAN       Precinct 31                                            00 
00040010006000653000000000000000000000000000000000000000000000000000000000000000000000000000000000000NON       REGISTERED VOTERS - NONPARTISAN                         REGISTERED VOTERS - NONPARTISAN       Precinct 32                                            00 
00040010007000402000000000000000000000000000000000000000000000000000000000000000000000000000000000000NON       REGISTERED VOTERS - NONPARTISAN                         REGISTERED VOTERS - NONPARTISAN       Precinct 41                                            00 
00040010008000663000000000000000000000000000000000000000000000000000000000000000000000000000000000000NON       REGISTERED VOTERS - NONPARTISAN                         REGISTERED VOTERS - NONPARTISAN       Precinct 42                                            00 
00040010009000439000000000000000000000000000000000000000000000000000000000000000000000000000000000000NON       REGISTERED VOTERS - NONPARTISAN                         REGISTERED VOTERS - NONPARTISAN       Precinct 43                                            00 
00050010001000147000004000072000071000000000000000000000000000000000000000000000000000000000000000000          BALLOTS CAST - TOTAL                                    BALLOTS CAST - TOTAL                  Precinct 11                                            00 
00050010002000119000006000037000076000000000000000000000000000000000000000000000000000000000000000000          BALLOTS CAST - TOTAL                                    BALLOTS CAST - TOTAL                  Precinct 12                                            00 
00050010003000308000018000176000114000000000000000000000000000000000000000000000000000000000000000000          BALLOTS CAST - TOTAL                                    BALLOTS CAST - TOTAL                  Precinct 21                                            00 
00050010004000059000000000013000046000000000000000000000000000000000000000000000000000000000000000000          BALLOTS CAST - TOTAL                                    BALLOTS CAST - TOTAL                  Precinct 22                                            00 
00050010005000066000004000032000030000000000000000000000000000000000000000000000000000000000000000000          BALLOTS CAST - TOTAL                                    BALLOTS CAST - TOTAL                  Precinct 31                                            00 
00050010006000070000005000026000039000000000000000000000000000000000000000000000000000000000000000000          BALLOTS CAST - TOTAL                                    BALLOTS CAST - TOTAL                  Precinct 32                                            00 
00050010007000101000005000038000058000000000000000000000000000000000000000000000000000000000000000000          BALLOTS CAST - TOTAL                                    BALLOTS CAST - TOTAL                  Precinct 41                                            00 
00050010008000154000000000023000131000000000000000000000000000000000000000000000000000000000000000000          BALLOTS CAST - TOTAL                                    BALLOTS CAST - TOTAL                  Precinct 42                                            00 
00050010009000095000001000051000043000000000000000000000000000000000000000000000000000000000000000000          BALLOTS CAST - TOTAL                                    BALLOTS CAST - TOTAL                  Precinct 43                                            00 
00060010001000132000002000069000061000000000000000000000000000000000000000000000000000000000000000000REP       BALLOTS CAST - Republican Party                         BALLOTS CAST - Republican Party       Precinct 11                                            00 
00060010002000115000006000037000072000000000000000000000000000000000000000000000000000000000000000000REP       BALLOTS CAST - Republican Party                         BALLOTS CAST - Republican Party       Precinct 12                                            00 
00060010003000285000012000171000102000000000000000000000000000000000000000000000000000000000000000000REP       BALLOTS CAST - Republican Party                         BALLOTS CAST - Republican Party       Precinct 21                                            00 
00060010004000056000000000013000043000000000000000000000000000000000000000000000000000000000000000000REP       BALLOTS CAST - Republican Party                         BALLOTS CAST - Republican Party       Precinct 22                                            00 
00060010005000059000001000030000028000000000000000000000000000000000000000000000000000000000000000000REP       BALLOTS CAST - Republican Party                         BALLOTS CAST - Republican Party       Precinct 31                                            00 
00060010006000065000004000024000037000000000000000000000000000000000000000000000000000000000000000000REP       BALLOTS CAST - Republican Party                         BALLOTS CAST - Republican Party       Precinct 32                                            00 
00060010007000094000001000038000055000000000000000000000000000000000000000000000000000000000000000000REP       BALLOTS CAST - Republican Party                         BALLOTS CAST - Republican Party       Precinct 41                                            00 
00060010008000148000000000023000125000000000000000000000000000000000000000000000000000000000000000000REP       BALLOTS CAST - Republican Party                         BALLOTS CAST - Republican Party       Precinct 42                                            00 
00060010009000095000001000051000043000000000000000000000000000000000000000000000000000000000000000000REP       BALLOTS CAST - Republican Party                         BALLOTS CAST - Republican Party       Precinct 43                                            00 
00070010001000015000002000003000010000000000000000000000000000000000000000000000000000000000000000000DEM       BALLOTS CAST - Democratic Party                         BALLOTS CAST - Democratic Party       Precinct 11                                            00 
00070010002000004000000000000000004000000000000000000000000000000000000000000000000000000000000000000DEM       BALLOTS CAST - Democratic Party                         BALLOTS CAST - Democratic Party       Precinct 12                                            00 
00070010003000023000006000005000012000000000000000000000000000000000000000000000000000000000000000000DEM       BALLOTS CAST - Democratic Party                         BALLOTS CAST - Democratic Party       Precinct 21                                            00 
00070010004000003000000000000000003000000000000000000000000000000000000000000000000000000000000000000DEM       BALLOTS CAST - Democratic Party                         BALLOTS CAST - Democratic Party       Precinct 22                                            00 
00070010005000007000003000002000002000000000000000000000000000000000000000000000000000000000000000000DEM       BALLOTS CAST - Democratic Party                         BALLOTS CAST - Democratic Party       Precinct 31                                            00 
00070010006000005000001000002000002000000000000000000000000000000000000000000000000000000000000000000DEM       BALLOTS CAST - Democratic Party                         BALLOTS CAST - Democratic Party       Precinct 32                                            00 
00070010007000007000004000000000003000000000000000000000000000000000000000000000000000000000000000000DEM       BALLOTS CAST - Democratic Party                         BALLOTS CAST - Democratic Party       Precinct 41                                            00 
00070010008000006000000000000000006000000000000000000000000000000000000000000000000000000000000000000DEM       BALLOTS CAST - Democratic Party                         BALLOTS CAST - Democratic Party       Precinct 42                                            00 
00070010009000000000000000000000000000000000000000000000000000000000000000000000000000000000000000000DEM       BALLOTS CAST - Democratic Party                         BALLOTS CAST - Democratic Party       Precinct 43                                            00 
00080010001000000000000000000000000000000000000000000000000000000000000000000000000000000000000000000NON       BALLOTS CAST - NONPARTISAN                              BALLOTS CAST - NONPARTISAN            Precinct 11                                            00 
00080010002000000000000000000000000000000000000000000000000000000000000000000000000000000000000000000NON       BALLOTS CAST - NONPARTISAN                              BALLOTS CAST - NONPARTISAN            Precinct 12                                            00 
00080010003000000000000000000000000000000000000000000000000000000000000000000000000000000000000000000NON       BALLOTS CAST - NONPARTISAN                              BALLOTS CAST - NONPARTISAN            Precinct 21                                            00 
00080010004000000000000000000000000000000000000000000000000000000000000000000000000000000000000000000NON       BALLOTS CAST - NONPARTISAN                              BALLOTS CAST - NONPARTISAN            Precinct 22                                            00 
00080010005000000000000000000000000000000000000000000000000000000000000000000000000000000000000000000NON       BALLOTS CAST - NONPARTISAN                              BALLOTS CAST - NONPARTISAN            Precinct 31                                            00 
00080010006000000000000000000000000000000000000000000000000000000000000000000000000000000000000000000NON       BALLOTS CAST - NONPARTISAN                              BALLOTS CAST - NONPARTISAN            Precinct 32                                            00 
00080010007000000000000000000000000000000000000000000000000000000000000000000000000000000000000000000NON       BALLOTS CAST - NONPARTISAN                              BALLOTS CAST - NONPARTISAN            Precinct 41                                            00 
00080010008000000000000000000000000000000000000000000000000000000000000000000000000000000000000000000NON       BALLOTS CAST - NONPARTISAN                              BALLOTS CAST - NONPARTISAN            Precinct 42                                            00 
00080010009000000000000000000000000000000000000000000000000000000000000000000000000000000000000000000NON       BALLOTS CAST - NONPARTISAN                              BALLOTS CAST - NONPARTISAN            Precinct 43                                            00 
00090010001000000000000000000000000000000000000000000000000000000000000000000000000000000000000000000          BALLOTS CAST - BLANK                                    BALLOTS CAST - BLANK                  Precinct 11                                            00 
00090010002000000000000000000000000000000000000000000000000000000000000000000000000000000000000000000          BALLOTS CAST - BLANK                                    BALLOTS CAST - BLANK                  Precinct 12                                            00 
00090010003000000000000000000000000000000000000000000000000000000000000000000000000000000000000000000          BALLOTS CAST - BLANK                                    BALLOTS CAST - BLANK                  Precinct 21                                            00 
00090010004000000000000000000000000000000000000000000000000000000000000000000000000000000000000000000          BALLOTS CAST - BLANK                                    BALLOTS CAST - BLANK                  Precinct 22                                            00 
00090010005000000000000000000000000000000000000000000000000000000000000000000000000000000000000000000          BALLOTS CAST - BLANK                                    BALLOTS CAST - BLANK                  Precinct 31                                            00 
00090010006000000000000000000000000000000000000000000000000000000000000000000000000000000000000000000          BALLOTS CAST - BLANK                                    BALLOTS CAST - BLANK                  Precinct 32                                            00 
00090010007000000000000000000000000000000000000000000000000000000000000000000000000000000000000000000          BALLOTS CAST - BLANK                                    BALLOTS CAST - BLANK                  Precinct 41                                            00 
00090010008000000000000000000000000000000000000000000000000000000000000000000000000000000000000000000          BALLOTS CAST - BLANK                                    BALLOTS CAST - BLANK                  Precinct 42                                            00 
00090010009000000000000000000000000000000000000000000000000000000000000000000000000000000000000000000          BALLOTS CAST - BLANK                                    BALLOTS CAST - BLANK                  Precinct 43                                            00 
00100010001000047000000000028000019000000000000000000000000000000000000000000000000000000000000000000REP       REP Attorney General                                    George P. Bush                        Precinct 11                                            01 
00100010002000034000004000009000021000000000000000000000000000000000000000000000000000000000000000000REP       REP Attorney General                                    George P. Bush                        Precinct 12                                            01 
00100010003000126000006000078000042000000000000000000000000000000000000000000000000000000000000000000REP       REP Attorney General                                    George P. Bush                        Precinct 21                                            01 
00100010004000024000000000005000019000000000000000000000000000000000000000000000000000000000000000000REP       REP Attorney General                                    George P. Bush                        Precinct 22                                            01 
00100010005000021000001000011000009000000000000000000000000000000000000000000000000000000000000000000REP       REP Attorney General                                    George P. Bush                        Precinct 31                                            01 
00100010006000023000002000006000015000000000000000000000000000000000000000000000000000000000000000000REP       REP Attorney General                                    George P. Bush                        Precinct 32                                            01 
00100010007000033000000000010000023000000000000000000000000000000000000000000000000000000000000000000REP       REP Attorney General                                    George P. Bush                        Precinct 41                                            01 
00100010008000058000000000008000050000000000000000000000000000000000000000000000000000000000000000000REP       REP Attorney General                                    George P. Bush                        Precinct 42                                            01 
00100010009000037000000000020000017000000000000000000000000000000000000000000000000000000000000000000REP       REP Attorney General                                    George P. Bush                        Precinct 43                                            01 
00100020001000076000002000034000040000000000000000000000000000000000000000000000000000000000000000000REP       REP Attorney General                                    Ken Paxton                            Precinct 11                                            01 
00100020002000076000000000027000049000000000000000000000000000000000000000000000000000000000000000000REP       REP Attorney General                                    Ken Paxton                            Precinct 12                                            01 
00100020003000136000006000081000049000000000000000000000000000000000000000000000000000000000000000000REP       REP Attorney General                                    Ken Paxton                            Precinct 21                                            01 
00100020004000027000000000007000020000000000000000000000000000000000000000000000000000000000000000000REP       REP Attorney General                                    Ken Paxton                            Precinct 22                                            01 
00100020005000038000000000019000019000000000000000000000000000000000000000000000000000000000000000000REP       REP Attorney General                                    Ken Paxton                            Precinct 31                                            01 
00100020006000042000002000018000022000000000000000000000000000000000000000000000000000000000000000000REP       REP Attorney General                                    Ken Paxton                            Precinct 32                                            01 
00100020007000058000001000027000030000000000000000000000000000000000000000000000000000000000000000000REP       REP Attorney General                                    Ken Paxton                            Precinct 41                                            01 
00100020008000086000000000015000071000000000000000000000000000000000000000000000000000000000000000000REP       REP Attorney General                                    Ken Paxton                            Precinct 42                                            01 
00100020009000055000001000030000024000000000000000000000000000000000000000000000000000000000000000000REP       REP Attorney General                                    Ken Paxton                            Precinct 43                                            01 
00100030001000000000000000000000000000000000000000000000000000000000000000000000000000000000000000000          REP Attorney General                                    OVER VOTES                            Precinct 11                                            01 
00100030002000000000000000000000000000000000000000000000000000000000000000000000000000000000000000000          REP Attorney General                                    OVER VOTES                            Precinct 12                                            01 
00100030003000000000000000000000000000000000000000000000000000000000000000000000000000000000000000000          REP Attorney General                                    OVER VOTES                            Precinct 21                                            01 
00100030004000000000000000000000000000000000000000000000000000000000000000000000000000000000000000000          REP Attorney General                                    OVER VOTES                            Precinct 22                                            01 
00100030005000000000000000000000000000000000000000000000000000000000000000000000000000000000000000000          REP Attorney General                                    OVER VOTES                            Precinct 31                                            01 
00100030006000000000000000000000000000000000000000000000000000000000000000000000000000000000000000000          REP Attorney General                                    OVER VOTES                            Precinct 32                                            01 
00100030007000000000000000000000000000000000000000000000000000000000000000000000000000000000000000000          REP Attorney General                                    OVER VOTES                            Precinct 41                                            01 
00100030008000000000000000000000000000000000000000000000000000000000000000000000000000000000000000000          REP Attorney General                                    OVER VOTES                            Precinct 42                                            01 
00100030009000000000000000000000000000000000000000000000000000000000000000000000000000000000000000000          REP Attorney General                                    OVER VOTES                            Precinct 43                                            01 
00100040001000009000000000007000002000000000000000000000000000000000000000000000000000000000000000000          REP Attorney General                                    UNDER VOTES                           Precinct 11                                            01 
00100040002000005000002000001000002000000000000000000000000000000000000000000000000000000000000000000          REP Attorney General                                    UNDER VOTES                           Precinct 12                                            01 
00100040003000023000000000012000011000000000000000000000000000000000000000000000000000000000000000000          REP Attorney General                                    UNDER VOTES                           Precinct 21                                            01 
00100040004000005000000000001000004000000000000000000000000000000000000000000000000000000000000000000          REP Attorney General                                    UNDER VOTES                           Precinct 22                                            01 
00100040005000000000000000000000000000000000000000000000000000000000000000000000000000000000000000000          REP Attorney General                                    UNDER VOTES                           Precinct 31                                            01 
00100040006000000000000000000000000000000000000000000000000000000000000000000000000000000000000000000          REP Attorney General                                    UNDER VOTES                           Precinct 32                                            01 
00100040007000003000000000001000002000000000000000000000000000000000000000000000000000000000000000000          REP Attorney General                                    UNDER VOTES                           Precinct 41                                            01 
00100040008000004000000000000000004000000000000000000000000000000000000000000000000000000000000000000          REP Attorney General                                    UNDER VOTES                           Precinct 42                                            01 
00100040009000003000000000001000002000000000000000000000000000000000000000000000000000000000000000000          REP Attorney General                                    UNDER VOTES                           Precinct 43                                            01 
00110010001000042000000000020000022000000000000000000000000000000000000000000000000000000000000000000REP       REP Comm General Land Office                            Tim Westley                           Precinct 11                                            01 
00110010002000047000000000017000030000000000000000000000000000000000000000000000000000000000000000000REP       REP Comm General Land Office                            Tim Westley                           Precinct 12                                            01 
00110010003000078000005000046000027000000000000000000000000000000000000000000000000000000000000000000REP       REP Comm General Land Office                            Tim Westley                           Precinct 21                                            01 
00110010004000015000000000003000012000000000000000000000000000000000000000000000000000000000000000000REP       REP Comm General Land Office                            Tim Westley                           Precinct 22                                            01 
00110010005000014000000000008000006000000000000000000000000000000000000000000000000000000000000000000REP       REP Comm General Land Office                            Tim Westley                           Precinct 31                                            01 
00110010006000019000002000007000010000000000000000000000000000000000000000000000000000000000000000000REP       REP Comm General Land Office                            Tim Westley                           Precinct 32                                            01 
00110010007000025000000000014000011000000000000000000000000000000000000000000000000000000000000000000REP       REP Comm General Land Office                            Tim Westley                           Precinct 41                                            01 
00110010008000053000000000006000047000000000000000000000000000000000000000000000000000000000000000000REP       REP Comm General Land Office                            Tim Westley                           Precinct 42                                            01 
00110010009000026000001000013000012000000000000000000000000000000000000000000000000000000000000000000REP       REP Comm General Land Office                            Tim Westley                           Precinct 43                                            01 
00110020001000069000002000036000031000000000000000000000000000000000000000000000000000000000000000000REP       REP Comm General Land Office                            Dawn Buckingham                       Precinct 11                                            01 
00110020002000054000004000014000036000000000000000000000000000000000000000000000000000000000000000000REP       REP Comm General Land Office                            Dawn Buckingham                       Precinct 12                                            01 
00110020003000144000004000090000050000000000000000000000000000000000000000000000000000000000000000000REP       REP Comm General Land Office                            Dawn Buckingham                       Precinct 21                                            01 
00110020004000030000000000009000021000000000000000000000000000000000000000000000000000000000000000000REP       REP Comm General Land Office                            Dawn Buckingham                       Precinct 22                                            01 
00110020005000041000001000020000020000000000000000000000000000000000000000000000000000000000000000000REP       REP Comm General Land Office                            Dawn Buckingham                       Precinct 31                                            01 
00110020006000042000002000014000026000000000000000000000000000000000000000000000000000000000000000000REP       REP Comm General Land Office                            Dawn Buckingham                       Precinct 32                                            01 
00110020007000052000001000016000035000000000000000000000000000000000000000000000000000000000000000000REP       REP Comm General Land Office                            Dawn Buckingham                       Precinct 41                                            01 
00110020008000079000000000015000064000000000000000000000000000000000000000000000000000000000000000000REP       REP Comm General Land Office                            Dawn Buckingham                       Precinct 42                                            01 
00110020009000058000000000033000025000000000000000000000000000000000000000000000000000000000000000000REP       REP Comm General Land Office                            Dawn Buckingham                       Precinct 43                                            01 
00110030001000000000000000000000000000000000000000000000000000000000000000000000000000000000000000000          REP Comm General Land Office                            OVER VOTES                            Precinct 11                                            01 
00110030002000000000000000000000000000000000000000000000000000000000000000000000000000000000000000000          REP Comm General Land Office                            OVER VOTES                            Precinct 12                                            01 
00110030003000000000000000000000000000000000000000000000000000000000000000000000000000000000000000000          REP Comm General Land Office                            OVER VOTES                            Precinct 21                                            01 
00110030004000000000000000000000000000000000000000000000000000000000000000000000000000000000000000000          REP Comm General Land Office                            OVER VOTES                            Precinct 22                                            01 
00110030005000000000000000000000000000000000000000000000000000000000000000000000000000000000000000000          REP Comm General Land Office                            OVER VOTES                            Precinct 31                                            01 
00110030006000000000000000000000000000000000000000000000000000000000000000000000000000000000000000000          REP Comm General Land Office                            OVER VOTES                            Precinct 32                                            01 
00110030007000000000000000000000000000000000000000000000000000000000000000000000000000000000000000000          REP Comm General Land Office                            OVER VOTES                            Precinct 41                                            01 
00110030008000000000000000000000000000000000000000000000000000000000000000000000000000000000000000000          REP Comm General Land Office                            OVER VOTES                            Precinct 42                                            01 
00110030009000000000000000000000000000000000000000000000000000000000000000000000000000000000000000000          REP Comm General Land Office                            OVER VOTES                            Precinct 43                                            01 
00110040001000021000000000013000008000000000000000000000000000000000000000000000000000000000000000000          REP Comm General Land Office                            UNDER VOTES                           Precinct 11                                            01 
00110040002000014000002000006000006000000000000000000000000000000000000000000000000000000000000000000          REP Comm General Land Office                            UNDER VOTES                           Precinct 12                                            01 
00110040003000063000003000035000025000000000000000000000000000000000000000000000000000000000000000000          REP Comm General Land Office                            UNDER VOTES                           Precinct 21                                            01 
00110040004000011000000000001000010000000000000000000000000000000000000000000000000000000000000000000          REP Comm General Land Office                            UNDER VOTES                           Precinct 22                                            01 
00110040005000004000000000002000002000000000000000000000000000000000000000000000000000000000000000000          REP Comm General Land Office                            UNDER VOTES                           Precinct 31                                            01 
00110040006000004000000000003000001000000000000000000000000000000000000000000000000000000000000000000          REP Comm General Land Office                            UNDER VOTES                           Precinct 32                                            01 
00110040007000017000000000008000009000000000000000000000000000000000000000000000000000000000000000000          REP Comm General Land Office                            UNDER VOTES                           Precinct 41                                            01 
00110040008000016000000000002000014000000000000000000000000000000000000000000000000000000000000000000          REP Comm General Land Office                            UNDER VOTES                           Precinct 42                                            01 
00110040009000011000000000005000006000000000000000000000000000000000000000000000000000000000000000000          REP Comm General Land Office                            UNDER VOTES                           Precinct 43                                            01 
00120010001000041000000000023000018000000000000000000000000000000000000000000000000000000000000000000REP       REP Railroad Commissioner                               Sarah Stogner                         Precinct 11                                            01 
00120010002000031000002000010000019000000000000000000000000000000000000000000000000000000000000000000REP       REP Railroad Commissioner                               Sarah Stogner                         Precinct 12                                            01 
00120010003000116000003000064000049000000000000000000000000000000000000000000000000000000000000000000REP       REP Railroad Commissioner                               Sarah Stogner                         Precinct 21                                            01 
00120010004000026000000000007000019000000000000000000000000000000000000000000000000000000000000000000REP       REP Railroad Commissioner                               Sarah Stogner                         Precinct 22                                            01 
00120010005000023000001000013000009000000000000000000000000000000000000000000000000000000000000000000REP       REP Railroad Commissioner                               Sarah Stogner                         Precinct 31                                            01 
00120010006000025000002000006000017000000000000000000000000000000000000000000000000000000000000000000REP       REP Railroad Commissioner                               Sarah Stogner                         Precinct 32                                            01 
00120010007000029000000000011000018000000000000000000000000000000000000000000000000000000000000000000REP       REP Railroad Commissioner                               Sarah Stogner                         Precinct 41                                            01 
00120010008000050000000000010000040000000000000000000000000000000000000000000000000000000000000000000REP       REP Railroad Commissioner                               Sarah Stogner                         Precinct 42                                            01 
00120010009000037000000000025000012000000000000000000000000000000000000000000000000000000000000000000REP       REP Railroad Commissioner                               Sarah Stogner                         Precinct 43                                            01 
00120020001000069000002000032000035000000000000000000000000000000000000000000000000000000000000000000REP       REP Railroad Commissioner                               Wayne Christian                       Precinct 11                                            01 
00120020002000071000002000022000047000000000000000000000000000000000000000000000000000000000000000000REP       REP Railroad Commissioner                               Wayne Christian                       Precinct 12                                            01 
00120020003000115000007000076000032000000000000000000000000000000000000000000000000000000000000000000REP       REP Railroad Commissioner                               Wayne Christian                       Precinct 21                                            01 
00120020004000021000000000005000016000000000000000000000000000000000000000000000000000000000000000000REP       REP Railroad Commissioner                               Wayne Christian                       Precinct 22                                            01 
00120020005000036000000000017000019000000000000000000000000000000000000000000000000000000000000000000REP       REP Railroad Commissioner                               Wayne Christian                       Precinct 31                                            01 
00120020006000036000002000015000019000000000000000000000000000000000000000000000000000000000000000000REP       REP Railroad Commissioner                               Wayne Christian                       Precinct 32                                            01 
00120020007000049000001000019000029000000000000000000000000000000000000000000000000000000000000000000REP       REP Railroad Commissioner                               Wayne Christian                       Precinct 41                                            01 
00120020008000083000000000011000072000000000000000000000000000000000000000000000000000000000000000000REP       REP Railroad Commissioner                               Wayne Christian                       Precinct 42                                            01 
00120020009000047000001000020000026000000000000000000000000000000000000000000000000000000000000000000REP       REP Railroad Commissioner                               Wayne Christian                       Precinct 43                                            01 
00120030001000000000000000000000000000000000000000000000000000000000000000000000000000000000000000000          REP Railroad Commissioner                               OVER VOTES                            Precinct 11                                            01 
00120030002000000000000000000000000000000000000000000000000000000000000000000000000000000000000000000          REP Railroad Commissioner                               OVER VOTES                            Precinct 12                                            01 
00120030003000000000000000000000000000000000000000000000000000000000000000000000000000000000000000000          REP Railroad Commissioner                               OVER VOTES                            Precinct 21                                            01 
00120030004000000000000000000000000000000000000000000000000000000000000000000000000000000000000000000          REP Railroad Commissioner                               OVER VOTES                            Precinct 22                                            01 
00120030005000000000000000000000000000000000000000000000000000000000000000000000000000000000000000000          REP Railroad Commissioner                               OVER VOTES                            Precinct 31                                            01 
00120030006000000000000000000000000000000000000000000000000000000000000000000000000000000000000000000          REP Railroad Commissioner                               OVER VOTES                            Precinct 32                                            01 
00120030007000000000000000000000000000000000000000000000000000000000000000000000000000000000000000000          REP Railroad Commissioner                               OVER VOTES                            Precinct 41                                            01 
00120030008000000000000000000000000000000000000000000000000000000000000000000000000000000000000000000          REP Railroad Commissioner                               OVER VOTES                            Precinct 42                                            01 
00120030009000000000000000000000000000000000000000000000000000000000000000000000000000000000000000000          REP Railroad Commissioner                               OVER VOTES                            Precinct 43                                            01 
00120040001000022000000000014000008000000000000000000000000000000000000000000000000000000000000000000          REP Railroad Commissioner                               UNDER VOTES                           Precinct 11                                            01 
00120040002000013000002000005000006000000000000000000000000000000000000000000000000000000000000000000          REP Railroad Commissioner                               UNDER VOTES                           Precinct 12                                            01 
00120040003000054000002000031000021000000000000000000000000000000000000000000000000000000000000000000          REP Railroad Commissioner                               UNDER VOTES                           Precinct 21                                            01 
00120040004000009000000000001000008000000000000000000000000000000000000000000000000000000000000000000          REP Railroad Commissioner                               UNDER VOTES                           Precinct 22                                            01 
00120040005000000000000000000000000000000000000000000000000000000000000000000000000000000000000000000          REP Railroad Commissioner                               UNDER VOTES                           Precinct 31                                            01 
00120040006000004000000000003000001000000000000000000000000000000000000000000000000000000000000000000          REP Railroad Commissioner                               UNDER VOTES                           Precinct 32                                            01 
00120040007000016000000000008000008000000000000000000000000000000000000000000000000000000000000000000          REP Railroad Commissioner                               UNDER VOTES                           Precinct 41                                            01 
00120040008000015000000000002000013000000000000000000000000000000000000000000000000000000000000000000          REP Railroad Commissioner                               UNDER VOTES                           Precinct 42                                            01 
00120040009000011000000000006000005000000000000000000000000000000000000000000000000000000000000000000          REP Railroad Commissioner                               UNDER VOTES                           Precinct 43                                            01 
00130010003000157000011000106000040000000000000000000000000000000000000000000000000000000000000000000REPCOM002 REP County Commissioner Pct 2                           David Young                           Precinct 21                   Precinct No. 2           01 
00130010004000027000000000009000018000000000000000000000000000000000000000000000000000000000000000000REPCOM002 REP County Commissioner Pct 2                           David Young                           Precinct 22                   Precinct No. 2           01 
00130020003000123000001000063000059000000000000000000000000000000000000000000000000000000000000000000REPCOM002 REP County Commissioner Pct 2                           Lionel Garcia                         Precinct 21                   Precinct No. 2           01 
00130020004000029000000000004000025000000000000000000000000000000000000000000000000000000000000000000REPCOM002 REP County Commissioner Pct 2                           Lionel Garcia                         Precinct 22                   Precinct No. 2           01 
00130030003000000000000000000000000000000000000000000000000000000000000000000000000000000000000000000   COM002 REP County Commissioner Pct 2                           OVER VOTES                            Precinct 21                   Precinct No. 2           01 
00130030004000000000000000000000000000000000000000000000000000000000000000000000000000000000000000000   COM002 REP County Commissioner Pct 2                           OVER VOTES                            Precinct 22                   Precinct No. 2           01 
00130040003000005000000000002000003000000000000000000000000000000000000000000000000000000000000000000   COM002 REP County Commissioner Pct 2                           UNDER VOTES                           Precinct 21                   Precinct No. 2           01 
00130040004000000000000000000000000000000000000000000000000000000000000000000000000000000000000000000   COM002 REP County Commissioner Pct 2                           UNDER VOTES                           Precinct 22                   Precinct No. 2           01 
00140010007000046000000000020000026000000000000000000000000000000000000000000000000000000000000000000REPCOM004 REP County Commissioner Pct 4                           Kevin Fagg                            Precinct 41                   Precinct No. 4           01 
00140010008000071000000000015000056000000000000000000000000000000000000000000000000000000000000000000REPCOM004 REP County Commissioner Pct 4                           Kevin Fagg                            Precinct 42                   Precinct No. 4           01 
00140010009000057000000000035000022000000000000000000000000000000000000000000000000000000000000000000REPCOM004 REP County Commissioner Pct 4                           Kevin Fagg                            Precinct 43                   Precinct No. 4           01 
00140020007000048000001000018000029000000000000000000000000000000000000000000000000000000000000000000REPCOM004 REP County Commissioner Pct 4                           Robert Bone                           Precinct 41                   Precinct No. 4           01 
00140020008000077000000000008000069000000000000000000000000000000000000000000000000000000000000000000REPCOM004 REP County Commissioner Pct 4                           Robert Bone                           Precinct 42                   Precinct No. 4           01 
00140020009000037000000000016000021000000000000000000000000000000000000000000000000000000000000000000REPCOM004 REP County Commissioner Pct 4                           Robert Bone                           Precinct 43                   Precinct No. 4           01 
00140030007000000000000000000000000000000000000000000000000000000000000000000000000000000000000000000   COM004 REP County Commissioner Pct 4                           OVER VOTES                            Precinct 41                   Precinct No. 4           01 
00140030008000000000000000000000000000000000000000000000000000000000000000000000000000000000000000000   COM004 REP County Commissioner Pct 4                           OVER VOTES                            Precinct 42                   Precinct No. 4           01 
00140030009000000000000000000000000000000000000000000000000000000000000000000000000000000000000000000   COM004 REP County Commissioner Pct 4                           OVER VOTES                            Precinct 43                   Precinct No. 4           01 
00140040007000000000000000000000000000000000000000000000000000000000000000000000000000000000000000000   COM004 REP County Commissioner Pct 4                           UNDER VOTES                           Precinct 41                   Precinct No. 4           01 
00140040008000000000000000000000000000000000000000000000000000000000000000000000000000000000000000000   COM004 REP County Commissioner Pct 4                           UNDER VOTES                           Precinct 42                   Precinct No. 4           01 
00140040009000001000001000000000000000000000000000000000000000000000000000000000000000000000000000000   COM004 REP County Commissioner Pct 4                           UNDER VOTES                           Precinct 43                   Precinct No. 4           01 
00150010001000051000002000022000027000000000000000000000000000000000000000000000000000000000000000000REPJOP001 REP JOP Pct 1                                           P.T. (Pat) Calhoun                    Precinct 11                   Precinct No. 1           01 
00150010002000030000000000009000021000000000000000000000000000000000000000000000000000000000000000000REPJOP001 REP JOP Pct 1                                           P.T. (Pat) Calhoun                    Precinct 12                   Precinct No. 1           01 
00150010003000139000004000091000044000000000000000000000000000000000000000000000000000000000000000000REPJOP001 REP JOP Pct 1                                           P.T. (Pat) Calhoun                    Precinct 21                   Precinct No. 1           01 
00150010004000022000000000006000016000000000000000000000000000000000000000000000000000000000000000000REPJOP001 REP JOP Pct 1                                           P.T. (Pat) Calhoun                    Precinct 22                   Precinct No. 1           01 
00150020001000080000000000046000034000000000000000000000000000000000000000000000000000000000000000000REPJOP001 REP JOP Pct 1                                           Herman Roe II                         Precinct 11                   Precinct No. 1           01 
00150020002000081000006000025000050000000000000000000000000000000000000000000000000000000000000000000REPJOP001 REP JOP Pct 1                                           Herman Roe II                         Precinct 12                   Precinct No. 1           01 
00150020003000133000008000075000050000000000000000000000000000000000000000000000000000000000000000000REPJOP001 REP JOP Pct 1                                           Herman Roe II                         Precinct 21                   Precinct No. 1           01 
00150020004000031000000000007000024000000000000000000000000000000000000000000000000000000000000000000REPJOP001 REP JOP Pct 1                                           Herman Roe II                         Precinct 22                   Precinct No. 1           01 
00150030001000000000000000000000000000000000000000000000000000000000000000000000000000000000000000000   JOP001 REP JOP Pct 1                                           OVER VOTES                            Precinct 11                   Precinct No. 1           01 
00150030002000000000000000000000000000000000000000000000000000000000000000000000000000000000000000000   JOP001 REP JOP Pct 1                                           OVER VOTES                            Precinct 12                   Precinct No. 1           01 
00150030003000000000000000000000000000000000000000000000000000000000000000000000000000000000000000000   JOP001 REP JOP Pct 1                                           OVER VOTES                            Precinct 21                   Precinct No. 1           01 
00150030004000000000000000000000000000000000000000000000000000000000000000000000000000000000000000000   JOP001 REP JOP Pct 1                                           OVER VOTES                            Precinct 22                   Precinct No. 1           01 
00150040001000001000000000001000000000000000000000000000000000000000000000000000000000000000000000000   JOP001 REP JOP Pct 1                                           UNDER VOTES                           Precinct 11                   Precinct No. 1           01 
00150040002000004000000000003000001000000000000000000000000000000000000000000000000000000000000000000   JOP001 REP JOP Pct 1                                           UNDER VOTES                           Precinct 12                   Precinct No. 1           01 
00150040003000013000000000005000008000000000000000000000000000000000000000000000000000000000000000000   JOP001 REP JOP Pct 1                                           UNDER VOTES                           Precinct 21                   Precinct No. 1           01 
00150040004000003000000000000000003000000000000000000000000000000000000000000000000000000000000000000   JOP001 REP JOP Pct 1                                           UNDER VOTES                           Precinct 22                   Precinct No. 1           01 
00160010001000009000001000002000006000000000000000000000000000000000000000000000000000000000000000000DEM       DEM Lieutenant Governor                                 Mike Collier                          Precinct 11                                            01 
00160010002000001000000000000000001000000000000000000000000000000000000000000000000000000000000000000DEM       DEM Lieutenant Governor                                 Mike Collier                          Precinct 12                                            01 
00160010003000008000001000002000005000000000000000000000000000000000000000000000000000000000000000000DEM       DEM Lieutenant Governor                                 Mike Collier                          Precinct 21                                            01 
00160010004000003000000000000000003000000000000000000000000000000000000000000000000000000000000000000DEM       DEM Lieutenant Governor                                 Mike Collier                          Precinct 22                                            01 
00160010005000006000002000002000002000000000000000000000000000000000000000000000000000000000000000000DEM       DEM Lieutenant Governor                                 Mike Collier                          Precinct 31                                            01 
00160010006000001000000000000000001000000000000000000000000000000000000000000000000000000000000000000DEM       DEM Lieutenant Governor                                 Mike Collier                          Precinct 32                                            01 
00160010007000005000003000000000002000000000000000000000000000000000000000000000000000000000000000000DEM       DEM Lieutenant Governor                                 Mike Collier                          Precinct 41                                            01 
00160010008000006000000000000000006000000000000000000000000000000000000000000000000000000000000000000DEM       DEM Lieutenant Governor                                 Mike Collier                          Precinct 42                                            01 
00160010009000000000000000000000000000000000000000000000000000000000000000000000000000000000000000000DEM       DEM Lieutenant Governor                                 Mike Collier                          Precinct 43                                            01 
00160020001000004000001000000000003000000000000000000000000000000000000000000000000000000000000000000DEM       DEM Lieutenant Governor                                 Michelle Beckley                      Precinct 11                                            01 
00160020002000002000000000000000002000000000000000000000000000000000000000000000000000000000000000000DEM       DEM Lieutenant Governor                                 Michelle Beckley                      Precinct 12                                            01 
00160020003000014000005000003000006000000000000000000000000000000000000000000000000000000000000000000DEM       DEM Lieutenant Governor                                 Michelle Beckley                      Precinct 21                                            01 
00160020004000000000000000000000000000000000000000000000000000000000000000000000000000000000000000000DEM       DEM Lieutenant Governor                                 Michelle Beckley                      Precinct 22                                            01 
00160020005000001000001000000000000000000000000000000000000000000000000000000000000000000000000000000DEM       DEM Lieutenant Governor                                 Michelle Beckley                      Precinct 31                                            01 
00160020006000003000001000002000000000000000000000000000000000000000000000000000000000000000000000000DEM       DEM Lieutenant Governor                                 Michelle Beckley                      Precinct 32                                            01 
00160020007000002000001000000000001000000000000000000000000000000000000000000000000000000000000000000DEM       DEM Lieutenant Governor                                 Michelle Beckley                      Precinct 41                                            01 
00160020008000000000000000000000000000000000000000000000000000000000000000000000000000000000000000000DEM       DEM Lieutenant Governor                                 Michelle Beckley                      Precinct 42                                            01 
00160020009000000000000000000000000000000000000000000000000000000000000000000000000000000000000000000DEM       DEM Lieutenant Governor                                 Michelle Beckley                      Precinct 43                                            01 
00160030001000000000000000000000000000000000000000000000000000000000000000000000000000000000000000000          DEM Lieutenant Governor                                 OVER VOTES                            Precinct 11                                            01 
00160030002000000000000000000000000000000000000000000000000000000000000000000000000000000000000000000          DEM Lieutenant Governor                                 OVER VOTES                            Precinct 12                                            01 
00160030003000000000000000000000000000000000000000000000000000000000000000000000000000000000000000000          DEM Lieutenant Governor                                 OVER VOTES                            Precinct 21                                            01 
00160030004000000000000000000000000000000000000000000000000000000000000000000000000000000000000000000          DEM Lieutenant Governor                                 OVER VOTES                            Precinct 22                                            01 
00160030005000000000000000000000000000000000000000000000000000000000000000000000000000000000000000000          DEM Lieutenant Governor                                 OVER VOTES                            Precinct 31                                            01 
00160030006000000000000000000000000000000000000000000000000000000000000000000000000000000000000000000          DEM Lieutenant Governor                                 OVER VOTES                            Precinct 32                                            01 
00160030007000000000000000000000000000000000000000000000000000000000000000000000000000000000000000000          DEM Lieutenant Governor                                 OVER VOTES                            Precinct 41                                            01 
00160030008000000000000000000000000000000000000000000000000000000000000000000000000000000000000000000          DEM Lieutenant Governor                                 OVER VOTES                            Precinct 42                                            01 
00160030009000000000000000000000000000000000000000000000000000000000000000000000000000000000000000000          DEM Lieutenant Governor                                 OVER VOTES                            Precinct 43                                            01 
00160040001000002000000000001000001000000000000000000000000000000000000000000000000000000000000000000          DEM Lieutenant Governor                                 UNDER VOTES                           Precinct 11                                            01 
00160040002000001000000000000000001000000000000000000000000000000000000000000000000000000000000000000          DEM Lieutenant Governor                                 UNDER VOTES                           Precinct 12                                            01 
00160040003000001000000000000000001000000000000000000000000000000000000000000000000000000000000000000          DEM Lieutenant Governor                                 UNDER VOTES                           Precinct 21                                            01 
00160040004000000000000000000000000000000000000000000000000000000000000000000000000000000000000000000          DEM Lieutenant Governor                                 UNDER VOTES                           Precinct 22                                            01 
00160040005000000000000000000000000000000000000000000000000000000000000000000000000000000000000000000          DEM Lieutenant Governor                                 UNDER VOTES                           Precinct 31                                            01 
00160040006000001000000000000000001000000000000000000000000000000000000000000000000000000000000000000          DEM Lieutenant Governor                                 UNDER VOTES                           Precinct 32                                            01 
00160040007000000000000000000000000000000000000000000000000000000000000000000000000000000000000000000          DEM Lieutenant Governor                                 UNDER VOTES                           Precinct 41                                            01 
00160040008000000000000000000000000000000000000000000000000000000000000000000000000000000000000000000          DEM Lieutenant Governor                                 UNDER VOTES                           Precinct 42                                            01 
00160040009000000000000000000000000000000000000000000000000000000000000000000000000000000000000000000          DEM Lieutenant Governor                                 UNDER VOTES                           Precinct 43                                            01 
00170010001000013000002000002000009000000000000000000000000000000000000000000000000000000000000000000DEM       DEM Attorney General                                    Rochelle Mercedes Garza               Precinct 11                                            01 
00170010002000003000000000000000003000000000000000000000000000000000000000000000000000000000000000000DEM       DEM Attorney General                                    Rochelle Mercedes Garza               Precinct 12                                            01 
00170010003000022000006000005000011000000000000000000000000000000000000000000000000000000000000000000DEM       DEM Attorney General                                    Rochelle Mercedes Garza               Precinct 21                                            01 
00170010004000002000000000000000002000000000000000000000000000000000000000000000000000000000000000000DEM       DEM Attorney General                                    Rochelle Mercedes Garza               Precinct 22                                            01 
00170010005000002000001000001000000000000000000000000000000000000000000000000000000000000000000000000DEM       DEM Attorney General                                    Rochelle Mercedes Garza               Precinct 31                                            01 
00170010006000004000000000002000002000000000000000000000000000000000000000000000000000000000000000000DEM       DEM Attorney General                                    Rochelle Mercedes Garza               Precinct 32                                            01 
00170010007000002000000000000000002000000000000000000000000000000000000000000000000000000000000000000DEM       DEM Attorney General                                    Rochelle Mercedes Garza               Precinct 41                                            01 
00170010008000001000000000000000001000000000000000000000000000000000000000000000000000000000000000000DEM       DEM Attorney General                                    Rochelle Mercedes Garza               Precinct 42                                            01 
00170010009000000000000000000000000000000000000000000000000000000000000000000000000000000000000000000DEM       DEM Attorney General                                    Rochelle Mercedes Garza               Precinct 43                                            01 
00170020001000002000000000001000001000000000000000000000000000000000000000000000000000000000000000000DEM       DEM Attorney General                                    Joe Jaworski                          Precinct 11                                            01 
00170020002000000000000000000000000000000000000000000000000000000000000000000000000000000000000000000DEM       DEM Attorney General                                    Joe Jaworski                          Precinct 12                                            01 
00170020003000001000000000000000001000000000000000000000000000000000000000000000000000000000000000000DEM       DEM Attorney General                                    Joe Jaworski                          Precinct 21                                            01 
00170020004000001000000000000000001000000000000000000000000000000000000000000000000000000000000000000DEM       DEM Attorney General                                    Joe Jaworski                          Precinct 22                                            01 
00170020005000005000002000001000002000000000000000000000000000000000000000000000000000000000000000000DEM       DEM Attorney General                                    Joe Jaworski                          Precinct 31                                            01 
00170020006000001000001000000000000000000000000000000000000000000000000000000000000000000000000000000DEM       DEM Attorney General                                    Joe Jaworski                          Precinct 32                                            01 
00170020007000005000004000000000001000000000000000000000000000000000000000000000000000000000000000000DEM       DEM Attorney General                                    Joe Jaworski                          Precinct 41                                            01 
00170020008000005000000000000000005000000000000000000000000000000000000000000000000000000000000000000DEM       DEM Attorney General                                    Joe Jaworski                          Precinct 42                                            01 
00170020009000000000000000000000000000000000000000000000000000000000000000000000000000000000000000000DEM       DEM Attorney General                                    Joe Jaworski                          Precinct 43                                            01 
00170030001000000000000000000000000000000000000000000000000000000000000000000000000000000000000000000          DEM Attorney General                                    OVER VOTES                            Precinct 11                                            01 
00170030002000000000000000000000000000000000000000000000000000000000000000000000000000000000000000000          DEM Attorney General                                    OVER VOTES                            Precinct 12                                            01 
00170030003000000000000000000000000000000000000000000000000000000000000000000000000000000000000000000          DEM Attorney General                                    OVER VOTES                            Precinct 21                                            01 
00170030004000000000000000000000000000000000000000000000000000000000000000000000000000000000000000000          DEM Attorney General                                    OVER VOTES                            Precinct 22                                            01 
00170030005000000000000000000000000000000000000000000000000000000000000000000000000000000000000000000          DEM Attorney General                                    OVER VOTES                            Precinct 31                                            01 
00170030006000000000000000000000000000000000000000000000000000000000000000000000000000000000000000000          DEM Attorney General                                    OVER VOTES                            Precinct 32                                            01 
00170030007000000000000000000000000000000000000000000000000000000000000000000000000000000000000000000          DEM Attorney General                                    OVER VOTES                            Precinct 41                                            01 
00170030008000000000000000000000000000000000000000000000000000000000000000000000000000000000000000000          DEM Attorney General                                    OVER VOTES                            Precinct 42                                            01 
00170030009000000000000000000000000000000000000000000000000000000000000000000000000000000000000000000          DEM Attorney General                                    OVER VOTES                            Precinct 43                                            01 
00170040001000000000000000000000000000000000000000000000000000000000000000000000000000000000000000000          DEM Attorney General                                    UNDER VOTES                           Precinct 11                                            01 
00170040002000001000000000000000001000000000000000000000000000000000000000000000000000000000000000000          DEM Attorney General                                    UNDER VOTES                           Precinct 12                                            01 
00170040003000000000000000000000000000000000000000000000000000000000000000000000000000000000000000000          DEM Attorney General                                    UNDER VOTES                           Precinct 21                                            01 
00170040004000000000000000000000000000000000000000000000000000000000000000000000000000000000000000000          DEM Attorney General                                    UNDER VOTES                           Precinct 22                                            01 
00170040005000000000000000000000000000000000000000000000000000000000000000000000000000000000000000000          DEM Attorney General                                    UNDER VOTES                           Precinct 31                                            01 
00170040006000000000000000000000000000000000000000000000000000000000000000000000000000000000000000000          DEM Attorney General                                    UNDER VOTES                           Precinct 32                                            01 
00170040007000000000000000000000000000000000000000000000000000000000000000000000000000000000000000000          DEM Attorney General                                    UNDER VOTES                           Precinct 41                                            01 
00170040008000000000000000000000000000000000000000000000000000000000000000000000000000000000000000000          DEM Attorney General                                    UNDER VOTES                           Precinct 42                                            01 
00170040009000000000000000000000000000000000000000000000000000000000000000000000000000000000000000000          DEM Attorney General                                    UNDER VOTES                           Precinct 43                                            01 
00180010001000001000001000000000000000000000000000000000000000000000000000000000000000000000000000000DEM       DEM Comptroller of Public Accounts                      Janet T. Dudding                      Precinct 11                                            01 
00180010002000002000000000000000002000000000000000000000000000000000000000000000000000000000000000000DEM       DEM Comptroller of Public Accounts                      Janet T. Dudding                      Precinct 12                                            01 
00180010003000010000005000003000002000000000000000000000000000000000000000000000000000000000000000000DEM       DEM Comptroller of Public Accounts                      Janet T. Dudding                      Precinct 21                                            01 
00180010004000002000000000000000002000000000000000000000000000000000000000000000000000000000000000000DEM       DEM Comptroller of Public Accounts                      Janet T. Dudding                      Precinct 22                                            01 
00180010005000004000001000001000002000000000000000000000000000000000000000000000000000000000000000000DEM       DEM Comptroller of Public Accounts                      Janet T. Dudding                      Precinct 31                                            01 
00180010006000003000001000002000000000000000000000000000000000000000000000000000000000000000000000000DEM       DEM Comptroller of Public Accounts                      Janet T. Dudding                      Precinct 32                                            01 
00180010007000004000003000000000001000000000000000000000000000000000000000000000000000000000000000000DEM       DEM Comptroller of Public Accounts                      Janet T. Dudding                      Precinct 41                                            01 
00180010008000005000000000000000005000000000000000000000000000000000000000000000000000000000000000000DEM       DEM Comptroller of Public Accounts                      Janet T. Dudding                      Precinct 42                                            01 
00180010009000000000000000000000000000000000000000000000000000000000000000000000000000000000000000000DEM       DEM Comptroller of Public Accounts                      Janet T. Dudding                      Precinct 43                                            01 
00180020001000014000001000003000010000000000000000000000000000000000000000000000000000000000000000000DEM       DEM Comptroller of Public Accounts                      Angel Luis Vega                       Precinct 11                                            01 
00180020002000001000000000000000001000000000000000000000000000000000000000000000000000000000000000000DEM       DEM Comptroller of Public Accounts                      Angel Luis Vega                       Precinct 12                                            01 
00180020003000012000001000002000009000000000000000000000000000000000000000000000000000000000000000000DEM       DEM Comptroller of Public Accounts                      Angel Luis Vega                       Precinct 21                                            01 
00180020004000001000000000000000001000000000000000000000000000000000000000000000000000000000000000000DEM       DEM Comptroller of Public Accounts                      Angel Luis Vega                       Precinct 22                                            01 
00180020005000002000002000000000000000000000000000000000000000000000000000000000000000000000000000000DEM       DEM Comptroller of Public Accounts                      Angel Luis Vega                       Precinct 31                                            01 
00180020006000002000000000000000002000000000000000000000000000000000000000000000000000000000000000000DEM       DEM Comptroller of Public Accounts                      Angel Luis Vega                       Precinct 32                                            01 
00180020007000003000001000000000002000000000000000000000000000000000000000000000000000000000000000000DEM       DEM Comptroller of Public Accounts                      Angel Luis Vega                       Precinct 41                                            01 
00180020008000001000000000000000001000000000000000000000000000000000000000000000000000000000000000000DEM       DEM Comptroller of Public Accounts                      Angel Luis Vega                       Precinct 42                                            01 
00180020009000000000000000000000000000000000000000000000000000000000000000000000000000000000000000000DEM       DEM Comptroller of Public Accounts                      Angel Luis Vega                       Precinct 43                                            01 
00180030001000000000000000000000000000000000000000000000000000000000000000000000000000000000000000000          DEM Comptroller of Public Accounts                      OVER VOTES                            Precinct 11                                            01 
00180030002000000000000000000000000000000000000000000000000000000000000000000000000000000000000000000          DEM Comptroller of Public Accounts                      OVER VOTES                            Precinct 12                                            01 
00180030003000000000000000000000000000000000000000000000000000000000000000000000000000000000000000000          DEM Comptroller of Public Accounts                      OVER VOTES                            Precinct 21                                            01 
00180030004000000000000000000000000000000000000000000000000000000000000000000000000000000000000000000          DEM Comptroller of Public Accounts                      OVER VOTES                            Precinct 22                                            01 
00180030005000000000000000000000000000000000000000000000000000000000000000000000000000000000000000000          DEM Comptroller of Public Accounts                      OVER VOTES                            Precinct 31                                            01 
00180030006000000000000000000000000000000000000000000000000000000000000000000000000000000000000000000          DEM Comptroller of Public Accounts                      OVER VOTES                            Precinct 32                                            01 
00180030007000000000000000000000000000000000000000000000000000000000000000000000000000000000000000000          DEM Comptroller of Public Accounts                      OVER VOTES                            Precinct 41                                            01 
00180030008000000000000000000000000000000000000000000000000000000000000000000000000000000000000000000          DEM Comptroller of Public Accounts                      OVER VOTES                            Precinct 42                                            01 
00180030009000000000000000000000000000000000000000000000000000000000000000000000000000000000000000000          DEM Comptroller of Public Accounts                      OVER VOTES                            Precinct 43                                            01 
00180040001000000000000000000000000000000000000000000000000000000000000000000000000000000000000000000          DEM Comptroller of Public Accounts                      UNDER VOTES                           Precinct 11                                            01 
00180040002000001000000000000000001000000000000000000000000000000000000000000000000000000000000000000          DEM Comptroller of Public Accounts                      UNDER VOTES                           Precinct 12                                            01 
00180040003000001000000000000000001000000000000000000000000000000000000000000000000000000000000000000          DEM Comptroller of Public Accounts                      UNDER VOTES                           Precinct 21                                            01 
00180040004000000000000000000000000000000000000000000000000000000000000000000000000000000000000000000          DEM Comptroller of Public Accounts                      UNDER VOTES                           Precinct 22                                            01 
00180040005000001000000000001000000000000000000000000000000000000000000000000000000000000000000000000          DEM Comptroller of Public Accounts                      UNDER VOTES                           Precinct 31                                            01 
00180040006000000000000000000000000000000000000000000000000000000000000000000000000000000000000000000          DEM Comptroller of Public Accounts                      UNDER VOTES                           Precinct 32                                            01 
00180040007000000000000000000000000000000000000000000000000000000000000000000000000000000000000000000          DEM Comptroller of Public Accounts                      UNDER VOTES                           Precinct 41                                            01 
00180040008000000000000000000000000000000000000000000000000000000000000000000000000000000000000000000          DEM Comptroller of Public Accounts                      UNDER VOTES                           Precinct 42                                            01 
00180040009000000000000000000000000000000000000000000000000000000000000000000000000000000000000000000          DEM Comptroller of Public Accounts                      UNDER VOTES                           Precinct 43                                            01 
00190010001000012000002000003000007000000000000000000000000000000000000000000000000000000000000000000DEM       DEM Comm General Land Office                            Sandragrace Martinez                  Precinct 11                                            01 
00190010002000001000000000000000001000000000000000000000000000000000000000000000000000000000000000000DEM       DEM Comm General Land Office                            Sandragrace Martinez                  Precinct 12                                            01 
00190010003000017000004000004000009000000000000000000000000000000000000000000000000000000000000000000DEM       DEM Comm General Land Office                            Sandragrace Martinez                  Precinct 21                                            01 
00190010004000001000000000000000001000000000000000000000000000000000000000000000000000000000000000000DEM       DEM Comm General Land Office                            Sandragrace Martinez                  Precinct 22                                            01 
00190010005000003000002000001000000000000000000000000000000000000000000000000000000000000000000000000DEM       DEM Comm General Land Office                            Sandragrace Martinez                  Precinct 31                                            01 
00190010006000004000001000001000002000000000000000000000000000000000000000000000000000000000000000000DEM       DEM Comm General Land Office                            Sandragrace Martinez                  Precinct 32                                            01 
00190010007000003000001000000000002000000000000000000000000000000000000000000000000000000000000000000DEM       DEM Comm General Land Office                            Sandragrace Martinez                  Precinct 41                                            01 
00190010008000000000000000000000000000000000000000000000000000000000000000000000000000000000000000000DEM       DEM Comm General Land Office                            Sandragrace Martinez                  Precinct 42                                            01 
00190010009000000000000000000000000000000000000000000000000000000000000000000000000000000000000000000DEM       DEM Comm General Land Office                            Sandragrace Martinez                  Precinct 43                                            01 
00190020001000003000000000000000003000000000000000000000000000000000000000000000000000000000000000000DEM       DEM Comm General Land Office                            Jay Kleberg                           Precinct 11                                            01 
00190020002000003000000000000000003000000000000000000000000000000000000000000000000000000000000000000DEM       DEM Comm General Land Office                            Jay Kleberg                           Precinct 12                                            01 
00190020003000005000002000001000002000000000000000000000000000000000000000000000000000000000000000000DEM       DEM Comm General Land Office                            Jay Kleberg                           Precinct 21                                            01 
00190020004000002000000000000000002000000000000000000000000000000000000000000000000000000000000000000DEM       DEM Comm General Land Office                            Jay Kleberg                           Precinct 22                                            01 
00190020005000004000001000001000002000000000000000000000000000000000000000000000000000000000000000000DEM       DEM Comm General Land Office                            Jay Kleberg                           Precinct 31                                            01 
00190020006000001000000000001000000000000000000000000000000000000000000000000000000000000000000000000DEM       DEM Comm General Land Office                            Jay Kleberg                           Precinct 32                                            01 
00190020007000004000003000000000001000000000000000000000000000000000000000000000000000000000000000000DEM       DEM Comm General Land Office                            Jay Kleberg                           Precinct 41                                            01 
00190020008000006000000000000000006000000000000000000000000000000000000000000000000000000000000000000DEM       DEM Comm General Land Office                            Jay Kleberg                           Precinct 42                                            01 
00190020009000000000000000000000000000000000000000000000000000000000000000000000000000000000000000000DEM       DEM Comm General Land Office                            Jay Kleberg                           Precinct 43                                            01 
00190030001000000000000000000000000000000000000000000000000000000000000000000000000000000000000000000          DEM Comm General Land Office                            OVER VOTES                            Precinct 11                                            01 
00190030002000000000000000000000000000000000000000000000000000000000000000000000000000000000000000000          DEM Comm General Land Office                            OVER VOTES                            Precinct 12                                            01 
00190030003000000000000000000000000000000000000000000000000000000000000000000000000000000000000000000          DEM Comm General Land Office                            OVER VOTES                            Precinct 21                                            01 
00190030004000000000000000000000000000000000000000000000000000000000000000000000000000000000000000000          DEM Comm General Land Office                            OVER VOTES                            Precinct 22                                            01 
00190030005000000000000000000000000000000000000000000000000000000000000000000000000000000000000000000          DEM Comm General Land Office                            OVER VOTES                            Precinct 31                                            01 
00190030006000000000000000000000000000000000000000000000000000000000000000000000000000000000000000000          DEM Comm General Land Office                            OVER VOTES                            Precinct 32                                            01 
00190030007000000000000000000000000000000000000000000000000000000000000000000000000000000000000000000          DEM Comm General Land Office                            OVER VOTES                            Precinct 41                                            01 
00190030008000000000000000000000000000000000000000000000000000000000000000000000000000000000000000000          DEM Comm General Land Office                            OVER VOTES                            Precinct 42                                            01 
00190030009000000000000000000000000000000000000000000000000000000000000000000000000000000000000000000          DEM Comm General Land Office                            OVER VOTES                            Precinct 43                                            01 
00190040001000000000000000000000000000000000000000000000000000000000000000000000000000000000000000000          DEM Comm General Land Office                            UNDER VOTES                           Precinct 11                                            01 
00190040002000000000000000000000000000000000000000000000000000000000000000000000000000000000000000000          DEM Comm General Land Office                            UNDER VOTES                           Precinct 12                                            01 
00190040003000001000000000000000001000000000000000000000000000000000000000000000000000000000000000000          DEM Comm General Land Office                            UNDER VOTES                           Precinct 21                                            01 
00190040004000000000000000000000000000000000000000000000000000000000000000000000000000000000000000000          DEM Comm General Land Office                            UNDER VOTES                           Precinct 22                                            01 
00190040005000000000000000000000000000000000000000000000000000000000000000000000000000000000000000000          DEM Comm General Land Office                            UNDER VOTES                           Precinct 31                                            01 
00190040006000000000000000000000000000000000000000000000000000000000000000000000000000000000000000000          DEM Comm General Land Office                            UNDER VOTES                           Precinct 32                                            01 
00190040007000000000000000000000000000000000000000000000000000000000000000000000000000000000000000000          DEM Comm General Land Office                            UNDER VOTES                           Precinct 41                                            01 
00190040008000000000000000000000000000000000000000000000000000000000000000000000000000000000000000000          DEM Comm General Land Office                            UNDER VOTES                           Precinct 42                                            01 
00190040009000000000000000000000000000000000000000000000000000000000000000000000000000000000000000000          DEM Comm General Land Office                            UNDER VOTES                           Precinct 43                                            01 
