00010010001000370000000000000000000000000000000000000000000000000000000000000000000000000000000000000          REGISTERED VOTERS - TOTAL                               REGISTERED VOTERS - TOTAL             Precinct 1                                             00 
00010010002000362000000000000000000000000000000000000000000000000000000000000000000000000000000000000          REGISTERED VOTERS - TOTAL                               REGISTERED VOTERS - TOTAL             Precinct 2                                             00 
00010010003000415000000000000000000000000000000000000000000000000000000000000000000000000000000000000          REGISTERED VOTERS - TOTAL                               REGISTERED VOTERS - TOTAL             Precinct 3                                             00 
00010010004000181000000000000000000000000000000000000000000000000000000000000000000000000000000000000          REGISTERED VOTERS - TOTAL                               REGISTERED VOTERS - TOTAL             Precinct 4                                             00 
00010010005000245000000000000000000000000000000000000000000000000000000000000000000000000000000000000          REGISTERED VOTERS - TOTAL                               REGISTERED VOTERS - TOTAL             Precinct 5                                             00 
00040010001000056000005000024000027000000000000000000000000000000000000000000000000000000000000000000REP       BALLOTS CAST - Republican Party                         BALLOTS CAST - Republican Party       Precinct 1                                             00 
00040010002000029000003000011000015000000000000000000000000000000000000000000000000000000000000000000REP       BALLOTS CAST - Republican Party                         BALLOTS CAST - Republican Party       Precinct 2                                             00 
00040010003000047000005000023000019000000000000000000000000000000000000000000000000000000000000000000REP       BALLOTS CAST - Republican Party                         BALLOTS CAST - Republican Party       Precinct 3                                             00 
00040010004000021000001000010000010000000000000000000000000000000000000000000000000000000000000000000REP       BALLOTS CAST - Republican Party                         BALLOTS CAST - Republican Party       Precinct 4                                             00 
00040010005000036000000000002000034000000000000000000000000000000000000000000000000000000000000000000REP       BALLOTS CAST - Republican Party                         BALLOTS CAST - Republican Party       Precinct 5                                             00 
00050010001000026000002000011000013000000000000000000000000000000000000000000000000000000000000000000REP       REP Attorney General                                    George P. Bush                        Precinct 1                                             01 
00050010002000009000000000003000006000000000000000000000000000000000000000000000000000000000000000000REP       REP Attorney General                                    George P. Bush                        Precinct 2                                             01 
00050010003000013000002000006000005000000000000000000000000000000000000000000000000000000000000000000REP       REP Attorney General                                    George P. Bush                        Precinct 3                                             01 
00050010004000008000000000003000005000000000000000000000000000000000000000000000000000000000000000000REP       REP Attorney General                                    George P. Bush                        Precinct 4                                             01 
00050010005000014000000000000000014000000000000000000000000000000000000000000000000000000000000000000REP       REP Attorney General                                    George P. Bush                        Precinct 5                                             01 
00050020001000029000003000013000013000000000000000000000000000000000000000000000000000000000000000000REP       REP Attorney General                                    Ken Paxton                            Precinct 1                                             01 
00050020002000020000003000008000009000000000000000000000000000000000000000000000000000000000000000000REP       REP Attorney General                                    Ken Paxton                            Precinct 2                                             01 
00050020003000034000003000017000014000000000000000000000000000000000000000000000000000000000000000000REP       REP Attorney General                                    Ken Paxton                            Precinct 3                                             01 
00050020004000013000001000007000005000000000000000000000000000000000000000000000000000000000000000000REP       REP Attorney General                                    Ken Paxton                            Precinct 4                                             01 
00050020005000022000000000002000020000000000000000000000000000000000000000000000000000000000000000000REP       REP Attorney General                                    Ken Paxton                            Precinct 5                                             01 
00050030001000000000000000000000000000000000000000000000000000000000000000000000000000000000000000000          REP Attorney General                                    OVER VOTES                            Precinct 1                                             01 
00050030002000000000000000000000000000000000000000000000000000000000000000000000000000000000000000000          REP Attorney General                                    OVER VOTES                            Precinct 2                                             01 
00050030003000000000000000000000000000000000000000000000000000000000000000000000000000000000000000000          REP Attorney General                                    OVER VOTES                            Precinct 3                                             01 
00050030004000000000000000000000000000000000000000000000000000000000000000000000000000000000000000000          REP Attorney General                                    OVER VOTES                            Precinct 4                                             01 
00050030005000000000000000000000000000000000000000000000000000000000000000000000000000000000000000000          REP Attorney General                                    OVER VOTES                            Precinct 5                                             01 
00050040001000001000000000000000001000000000000000000000000000000000000000000000000000000000000000000          REP Attorney General                                    UNDER VOTES                           Precinct 1                                             01 
00050040002000000000000000000000000000000000000000000000000000000000000000000000000000000000000000000          REP Attorney General                                    UNDER VOTES                           Precinct 2                                             01 
00050040003000000000000000000000000000000000000000000000000000000000000000000000000000000000000000000          REP Attorney General                                    UNDER VOTES                           Precinct 3                                             01 
00050040004000000000000000000000000000000000000000000000000000000000000000000000000000000000000000000          REP Attorney General                                    UNDER VOTES                           Precinct 4                                             01 
00050040005000000000000000000000000000000000000000000000000000000000000000000000000000000000000000000          REP Attorney General                                    UNDER VOTES                           Precinct 5                                             01 
00060010001000012000002000003000007000000000000000000000000000000000000000000000000000000000000000000REP       REP Comm General Land Office                            Tim Westley                           Precinct 1                                             01 
00060010002000011000000000002000009000000000000000000000000000000000000000000000000000000000000000000REP       REP Comm General Land Office                            Tim Westley                           Precinct 2                                             01 
00060010003000008000001000002000005000000000000000000000000000000000000000000000000000000000000000000REP       REP Comm General Land Office                            Tim Westley                           Precinct 3                                             01 
00060010004000004000000000002000002000000000000000000000000000000000000000000000000000000000000000000REP       REP Comm General Land Office                            Tim Westley                           Precinct 4                                             01 
00060010005000012000000000000000012000000000000000000000000000000000000000000000000000000000000000000REP       REP Comm General Land Office                            Tim Westley                           Precinct 5                                             01 
00060020001000039000003000020000016000000000000000000000000000000000000000000000000000000000000000000REP       REP Comm General Land Office                            Dawn Buckingham                       Precinct 1                                             01 
00060020002000017000003000009000005000000000000000000000000000000000000000000000000000000000000000000REP       REP Comm General Land Office                            Dawn Buckingham                       Precinct 2                                             01 
00060020003000036000004000021000011000000000000000000000000000000000000000000000000000000000000000000REP       REP Comm General Land Office                            Dawn Buckingham                       Precinct 3                                             01 
00060020004000017000001000008000008000000000000000000000000000000000000000000000000000000000000000000REP       REP Comm General Land Office                            Dawn Buckingham                       Precinct 4                                             01 
00060020005000021000000000002000019000000000000000000000000000000000000000000000000000000000000000000REP       REP Comm General Land Office                            Dawn Buckingham                       Precinct 5                                             01 
00060030001000000000000000000000000000000000000000000000000000000000000000000000000000000000000000000          REP Comm General Land Office                            OVER VOTES                            Precinct 1                                             01 
00060030002000000000000000000000000000000000000000000000000000000000000000000000000000000000000000000          REP Comm General Land Office                            OVER VOTES                            Precinct 2                                             01 
00060030003000000000000000000000000000000000000000000000000000000000000000000000000000000000000000000          REP Comm General Land Office                            OVER VOTES                            Precinct 3                                             01 
00060030004000000000000000000000000000000000000000000000000000000000000000000000000000000000000000000          REP Comm General Land Office                            OVER VOTES                            Precinct 4                                             01 
00060030005000000000000000000000000000000000000000000000000000000000000000000000000000000000000000000          REP Comm General Land Office                            OVER VOTES                            Precinct 5                                             01 
00060040001000005000000000001000004000000000000000000000000000000000000000000000000000000000000000000          REP Comm General Land Office                            UNDER VOTES                           Precinct 1                                             01 
00060040002000001000000000000000001000000000000000000000000000000000000000000000000000000000000000000          REP Comm General Land Office                            UNDER VOTES                           Precinct 2                                             01 
00060040003000003000000000000000003000000000000000000000000000000000000000000000000000000000000000000          REP Comm General Land Office                            UNDER VOTES                           Precinct 3                                             01 
00060040004000000000000000000000000000000000000000000000000000000000000000000000000000000000000000000          REP Comm General Land Office                            UNDER VOTES                           Precinct 4                                             01 
00060040005000003000000000000000003000000000000000000000000000000000000000000000000000000000000000000          REP Comm General Land Office                            UNDER VOTES                           Precinct 5                                             01 
00070010001000029000002000012000015000000000000000000000000000000000000000000000000000000000000000000REP       REP Railroad Commissioner                               Sarah Stogner                         Precinct 1                                             01 
00070010002000015000000000004000011000000000000000000000000000000000000000000000000000000000000000000REP       REP Railroad Commissioner                               Sarah Stogner                         Precinct 2                                             01 
00070010003000016000002000007000007000000000000000000000000000000000000000000000000000000000000000000REP       REP Railroad Commissioner                               Sarah Stogner                         Precinct 3                                             01 
00070010004000009000000000002000007000000000000000000000000000000000000000000000000000000000000000000REP       REP Railroad Commissioner                               Sarah Stogner                         Precinct 4                                             01 
00070010005000020000000000001000019000000000000000000000000000000000000000000000000000000000000000000REP       REP Railroad Commissioner                               Sarah Stogner                         Precinct 5                                             01 
00070020001000026000003000012000011000000000000000000000000000000000000000000000000000000000000000000REP       REP Railroad Commissioner                               Wayne Christian                       Precinct 1                                             01 
00070020002000014000003000007000004000000000000000000000000000000000000000000000000000000000000000000REP       REP Railroad Commissioner                               Wayne Christian                       Precinct 2                                             01 
00070020003000030000003000016000011000000000000000000000000000000000000000000000000000000000000000000REP       REP Railroad Commissioner                               Wayne Christian                       Precinct 3                                             01 
00070020004000012000001000008000003000000000000000000000000000000000000000000000000000000000000000000REP       REP Railroad Commissioner                               Wayne Christian                       Precinct 4                                             01 
00070020005000013000000000001000012000000000000000000000000000000000000000000000000000000000000000000REP       REP Railroad Commissioner                               Wayne Christian                       Precinct 5                                             01 
00070030001000000000000000000000000000000000000000000000000000000000000000000000000000000000000000000          REP Railroad Commissioner                               OVER VOTES                            Precinct 1                                             01 
00070030002000000000000000000000000000000000000000000000000000000000000000000000000000000000000000000          REP Railroad Commissioner                               OVER VOTES                            Precinct 2                                             01 
00070030003000000000000000000000000000000000000000000000000000000000000000000000000000000000000000000          REP Railroad Commissioner                               OVER VOTES                            Precinct 3                                             01 
00070030004000000000000000000000000000000000000000000000000000000000000000000000000000000000000000000          REP Railroad Commissioner                               OVER VOTES                            Precinct 4                                             01 
00070030005000000000000000000000000000000000000000000000000000000000000000000000000000000000000000000          REP Railroad Commissioner                               OVER VOTES                            Precinct 5                                             01 
00070040001000001000000000000000001000000000000000000000000000000000000000000000000000000000000000000          REP Railroad Commissioner                               UNDER VOTES                           Precinct 1                                             01 
00070040002000000000000000000000000000000000000000000000000000000000000000000000000000000000000000000          REP Railroad Commissioner                               UNDER VOTES                           Precinct 2                                             01 
00070040003000001000000000000000001000000000000000000000000000000000000000000000000000000000000000000          REP Railroad Commissioner                               UNDER VOTES                           Precinct 3                                             01 
00070040004000000000000000000000000000000000000000000000000000000000000000000000000000000000000000000          REP Railroad Commissioner                               UNDER VOTES                           Precinct 4                                             01 
00070040005000003000000000000000003000000000000000000000000000000000000000000000000000000000000000000          REP Railroad Commissioner                               UNDER VOTES                           Precinct 5                                             01 
