00010010001000370000000000000000000000000000000000000000000000000000000000000000000000000000000000000          REGISTERED VOTERS - TOTAL                               REGISTERED VOTERS - TOTAL             Precinct 1                                             00 
00010010002000362000000000000000000000000000000000000000000000000000000000000000000000000000000000000          REGISTERED VOTERS - TOTAL                               REGISTERED VOTERS - TOTAL             Precinct 2                                             00 
00010010003000415000000000000000000000000000000000000000000000000000000000000000000000000000000000000          REGISTERED VOTERS - TOTAL                               REGISTERED VOTERS - TOTAL             Precinct 3                                             00 
00010010004000181000000000000000000000000000000000000000000000000000000000000000000000000000000000000          REGISTERED VOTERS - TOTAL                               REGISTERED VOTERS - TOTAL             Precinct 4                                             00 
00010010005000245000000000000000000000000000000000000000000000000000000000000000000000000000000000000          REGISTERED VOTERS - TOTAL                               REGISTERED VOTERS - TOTAL             Precinct 5                                             00 
00040010001000019000004000011000004000000000000000000000000000000000000000000000000000000000000000000DEM       BALLOTS CAST - Democratic Party                         BALLOTS CAST - Democratic Party       Precinct 1                                             00 
00040010002000005000000000001000004000000000000000000000000000000000000000000000000000000000000000000DEM       BALLOTS CAST - Democratic Party                         BALLOTS CAST - Democratic Party       Precinct 2                                             00 
00040010003000007000000000003000004000000000000000000000000000000000000000000000000000000000000000000DEM       BALLOTS CAST - Democratic Party                         BALLOTS CAST - Democratic Party       Precinct 3                                             00 
00040010004000003000000000001000002000000000000000000000000000000000000000000000000000000000000000000DEM       BALLOTS CAST - Democratic Party                         BALLOTS CAST - Democratic Party       Precinct 4                                             00 
00040010005000007000000000004000003000000000000000000000000000000000000000000000000000000000000000000DEM       BALLOTS CAST - Democratic Party                         BALLOTS CAST - Democratic Party       Precinct 5                                             00 
00050010001000014000002000010000002000000000000000000000000000000000000000000000000000000000000000000DEM       DEM Lieutenant Governor                                 Mike Collier                          Precinct 1                                             01 
00050010002000004000000000000000004000000000000000000000000000000000000000000000000000000000000000000DEM       DEM Lieutenant Governor                                 Mike Collier                          Precinct 2                                             01 
00050010003000004000000000002000002000000000000000000000000000000000000000000000000000000000000000000DEM       DEM Lieutenant Governor                                 Mike Collier                          Precinct 3                                             01 
00050010004000003000000000001000002000000000000000000000000000000000000000000000000000000000000000000DEM       DEM Lieutenant Governor                                 Mike Collier                          Precinct 4                                             01 
00050010005000003000000000002000001000000000000000000000000000000000000000000000000000000000000000000DEM       DEM Lieutenant Governor                                 Mike Collier                          Precinct 5                                             01 
00050020001000005000002000001000002000000000000000000000000000000000000000000000000000000000000000000DEM       DEM Lieutenant Governor                                 Michelle Beckley                      Precinct 1                                             01 
00050020002000001000000000001000000000000000000000000000000000000000000000000000000000000000000000000DEM       DEM Lieutenant Governor                                 Michelle Beckley                      Precinct 2                                             01 
00050020003000003000000000001000002000000000000000000000000000000000000000000000000000000000000000000DEM       DEM Lieutenant Governor                                 Michelle Beckley                      Precinct 3                                             01 
00050020004000000000000000000000000000000000000000000000000000000000000000000000000000000000000000000DEM       DEM Lieutenant Governor                                 Michelle Beckley                      Precinct 4                                             01 
00050020005000004000000000002000002000000000000000000000000000000000000000000000000000000000000000000DEM       DEM Lieutenant Governor                                 Michelle Beckley                      Precinct 5                                             01 
00050030001000000000000000000000000000000000000000000000000000000000000000000000000000000000000000000          DEM Lieutenant Governor                                 OVER VOTES                            Precinct 1                                             01 
00050030002000000000000000000000000000000000000000000000000000000000000000000000000000000000000000000          DEM Lieutenant Governor                                 OVER VOTES                            Precinct 2                                             01 
00050030003000000000000000000000000000000000000000000000000000000000000000000000000000000000000000000          DEM Lieutenant Governor                                 OVER VOTES                            Precinct 3                                             01 
00050030004000000000000000000000000000000000000000000000000000000000000000000000000000000000000000000          DEM Lieutenant Governor                                 OVER VOTES                            Precinct 4                                             01 
00050030005000000000000000000000000000000000000000000000000000000000000000000000000000000000000000000          DEM Lieutenant Governor                                 OVER VOTES                            Precinct 5                                             01 
00050040001000000000000000000000000000000000000000000000000000000000000000000000000000000000000000000          DEM Lieutenant Governor                                 UNDER VOTES                           Precinct 1                                             01 
00050040002000000000000000000000000000000000000000000000000000000000000000000000000000000000000000000          DEM Lieutenant Governor                                 UNDER VOTES                           Precinct 2                                             01 
00050040003000000000000000000000000000000000000000000000000000000000000000000000000000000000000000000          DEM Lieutenant Governor                                 UNDER VOTES                           Precinct 3                                             01 
00050040004000000000000000000000000000000000000000000000000000000000000000000000000000000000000000000          DEM Lieutenant Governor                                 UNDER VOTES                           Precinct 4                                             01 
00050040005000000000000000000000000000000000000000000000000000000000000000000000000000000000000000000          DEM Lieutenant Governor                                 UNDER VOTES                           Precinct 5                                             01 
00060010001000003000000000002000001000000000000000000000000000000000000000000000000000000000000000000DEM       DEM Attorney General                                    Joe Jaworski                          Precinct 1                                             01 
00060010002000002000000000000000002000000000000000000000000000000000000000000000000000000000000000000DEM       DEM Attorney General                                    Joe Jaworski                          Precinct 2                                             01 
00060010003000005000000000002000003000000000000000000000000000000000000000000000000000000000000000000DEM       DEM Attorney General                                    Joe Jaworski                          Precinct 3                                             01 
00060010004000002000000000000000002000000000000000000000000000000000000000000000000000000000000000000DEM       DEM Attorney General                                    Joe Jaworski                          Precinct 4                                             01 
00060010005000002000000000001000001000000000000000000000000000000000000000000000000000000000000000000DEM       DEM Attorney General                                    Joe Jaworski                          Precinct 5                                             01 
00060020001000016000004000009000003000000000000000000000000000000000000000000000000000000000000000000DEM       DEM Attorney General                                    Rochelle Mercedes Garza               Precinct 1                                             01 
00060020002000003000000000001000002000000000000000000000000000000000000000000000000000000000000000000DEM       DEM Attorney General                                    Rochelle Mercedes Garza               Precinct 2                                             01 
00060020003000002000000000001000001000000000000000000000000000000000000000000000000000000000000000000DEM       DEM Attorney General                                    Rochelle Mercedes Garza               Precinct 3                                             01 
00060020004000001000000000001000000000000000000000000000000000000000000000000000000000000000000000000DEM       DEM Attorney General                                    Rochelle Mercedes Garza               Precinct 4                                             01 
00060020005000005000000000003000002000000000000000000000000000000000000000000000000000000000000000000DEM       DEM Attorney General                                    Rochelle Mercedes Garza               Precinct 5                                             01 
00060030001000000000000000000000000000000000000000000000000000000000000000000000000000000000000000000          DEM Attorney General                                    OVER VOTES                            Precinct 1                                             01 
00060030002000000000000000000000000000000000000000000000000000000000000000000000000000000000000000000          DEM Attorney General                                    OVER VOTES                            Precinct 2                                             01 
00060030003000000000000000000000000000000000000000000000000000000000000000000000000000000000000000000          DEM Attorney General                                    OVER VOTES                            Precinct 3                                             01 
00060030004000000000000000000000000000000000000000000000000000000000000000000000000000000000000000000          DEM Attorney General                                    OVER VOTES                            Precinct 4                                             01 
00060030005000000000000000000000000000000000000000000000000000000000000000000000000000000000000000000          DEM Attorney General                                    OVER VOTES                            Precinct 5                                             01 
00060040001000000000000000000000000000000000000000000000000000000000000000000000000000000000000000000          DEM Attorney General                                    UNDER VOTES                           Precinct 1                                             01 
00060040002000000000000000000000000000000000000000000000000000000000000000000000000000000000000000000          DEM Attorney General                                    UNDER VOTES                           Precinct 2                                             01 
00060040003000000000000000000000000000000000000000000000000000000000000000000000000000000000000000000          DEM Attorney General                                    UNDER VOTES                           Precinct 3                                             01 
00060040004000000000000000000000000000000000000000000000000000000000000000000000000000000000000000000          DEM Attorney General                                    UNDER VOTES                           Precinct 4                                             01 
00060040005000000000000000000000000000000000000000000000000000000000000000000000000000000000000000000          DEM Attorney General                                    UNDER VOTES                           Precinct 5                                             01 
00070010001000006000002000003000001000000000000000000000000000000000000000000000000000000000000000000DEM       DEM Comptroller of Public Accounts                      Angel Luis Vega                       Precinct 1                                             01 
00070010002000002000000000001000001000000000000000000000000000000000000000000000000000000000000000000DEM       DEM Comptroller of Public Accounts                      Angel Luis Vega                       Precinct 2                                             01 
00070010003000001000000000001000000000000000000000000000000000000000000000000000000000000000000000000DEM       DEM Comptroller of Public Accounts                      Angel Luis Vega                       Precinct 3                                             01 
00070010004000002000000000000000002000000000000000000000000000000000000000000000000000000000000000000DEM       DEM Comptroller of Public Accounts                      Angel Luis Vega                       Precinct 4                                             01 
00070010005000000000000000000000000000000000000000000000000000000000000000000000000000000000000000000DEM       DEM Comptroller of Public Accounts                      Angel Luis Vega                       Precinct 5                                             01 
00070020001000013000002000008000003000000000000000000000000000000000000000000000000000000000000000000DEM       DEM Comptroller of Public Accounts                      Janet T. Dudding                      Precinct 1                                             01 
00070020002000003000000000000000003000000000000000000000000000000000000000000000000000000000000000000DEM       DEM Comptroller of Public Accounts                      Janet T. Dudding                      Precinct 2                                             01 
00070020003000006000000000002000004000000000000000000000000000000000000000000000000000000000000000000DEM       DEM Comptroller of Public Accounts                      Janet T. Dudding                      Precinct 3                                             01 
00070020004000001000000000001000000000000000000000000000000000000000000000000000000000000000000000000DEM       DEM Comptroller of Public Accounts                      Janet T. Dudding                      Precinct 4                                             01 
00070020005000007000000000004000003000000000000000000000000000000000000000000000000000000000000000000DEM       DEM Comptroller of Public Accounts                      Janet T. Dudding                      Precinct 5                                             01 
00070030001000000000000000000000000000000000000000000000000000000000000000000000000000000000000000000          DEM Comptroller of Public Accounts                      OVER VOTES                            Precinct 1                                             01 
00070030002000000000000000000000000000000000000000000000000000000000000000000000000000000000000000000          DEM Comptroller of Public Accounts                      OVER VOTES                            Precinct 2                                             01 
00070030003000000000000000000000000000000000000000000000000000000000000000000000000000000000000000000          DEM Comptroller of Public Accounts                      OVER VOTES                            Precinct 3                                             01 
00070030004000000000000000000000000000000000000000000000000000000000000000000000000000000000000000000          DEM Comptroller of Public Accounts                      OVER VOTES                            Precinct 4                                             01 
00070030005000000000000000000000000000000000000000000000000000000000000000000000000000000000000000000          DEM Comptroller of Public Accounts                      OVER VOTES                            Precinct 5                                             01 
00070040001000000000000000000000000000000000000000000000000000000000000000000000000000000000000000000          DEM Comptroller of Public Accounts                      UNDER VOTES                           Precinct 1                                             01 
00070040002000000000000000000000000000000000000000000000000000000000000000000000000000000000000000000          DEM Comptroller of Public Accounts                      UNDER VOTES                           Precinct 2                                             01 
00070040003000000000000000000000000000000000000000000000000000000000000000000000000000000000000000000          DEM Comptroller of Public Accounts                      UNDER VOTES                           Precinct 3                                             01 
00070040004000000000000000000000000000000000000000000000000000000000000000000000000000000000000000000          DEM Comptroller of Public Accounts                      UNDER VOTES                           Precinct 4                                             01 
00070040005000000000000000000000000000000000000000000000000000000000000000000000000000000000000000000          DEM Comptroller of Public Accounts                      UNDER VOTES                           Precinct 5                                             01 
00080010001000010000002000006000002000000000000000000000000000000000000000000000000000000000000000000DEM       DEM Comm General Land Office                            Jay Kleberg                           Precinct 1                                             01 
00080010002000003000000000000000003000000000000000000000000000000000000000000000000000000000000000000DEM       DEM Comm General Land Office                            Jay Kleberg                           Precinct 2                                             01 
00080010003000005000000000001000004000000000000000000000000000000000000000000000000000000000000000000DEM       DEM Comm General Land Office                            Jay Kleberg                           Precinct 3                                             01 
00080010004000003000000000001000002000000000000000000000000000000000000000000000000000000000000000000DEM       DEM Comm General Land Office                            Jay Kleberg                           Precinct 4                                             01 
00080010005000005000000000003000002000000000000000000000000000000000000000000000000000000000000000000DEM       DEM Comm General Land Office                            Jay Kleberg                           Precinct 5                                             01 
00080020001000009000002000005000002000000000000000000000000000000000000000000000000000000000000000000DEM       DEM Comm General Land Office                            Sandragrace Martinez                  Precinct 1                                             01 
00080020002000002000000000001000001000000000000000000000000000000000000000000000000000000000000000000DEM       DEM Comm General Land Office                            Sandragrace Martinez                  Precinct 2                                             01 
00080020003000002000000000002000000000000000000000000000000000000000000000000000000000000000000000000DEM       DEM Comm General Land Office                            Sandragrace Martinez                  Precinct 3                                             01 
00080020004000000000000000000000000000000000000000000000000000000000000000000000000000000000000000000DEM       DEM Comm General Land Office                            Sandragrace Martinez                  Precinct 4                                             01 
00080020005000002000000000001000001000000000000000000000000000000000000000000000000000000000000000000DEM       DEM Comm General Land Office                            Sandragrace Martinez                  Precinct 5                                             01 
00080030001000000000000000000000000000000000000000000000000000000000000000000000000000000000000000000          DEM Comm General Land Office                            OVER VOTES                            Precinct 1                                             01 
00080030002000000000000000000000000000000000000000000000000000000000000000000000000000000000000000000          DEM Comm General Land Office                            OVER VOTES                            Precinct 2                                             01 
00080030003000000000000000000000000000000000000000000000000000000000000000000000000000000000000000000          DEM Comm General Land Office                            OVER VOTES                            Precinct 3                                             01 
00080030004000000000000000000000000000000000000000000000000000000000000000000000000000000000000000000          DEM Comm General Land Office                            OVER VOTES                            Precinct 4                                             01 
00080030005000000000000000000000000000000000000000000000000000000000000000000000000000000000000000000          DEM Comm General Land Office                            OVER VOTES                            Precinct 5                                             01 
00080040001000000000000000000000000000000000000000000000000000000000000000000000000000000000000000000          DEM Comm General Land Office                            UNDER VOTES                           Precinct 1                                             01 
00080040002000000000000000000000000000000000000000000000000000000000000000000000000000000000000000000          DEM Comm General Land Office                            UNDER VOTES                           Precinct 2                                             01 
00080040003000000000000000000000000000000000000000000000000000000000000000000000000000000000000000000          DEM Comm General Land Office                            UNDER VOTES                           Precinct 3                                             01 
00080040004000000000000000000000000000000000000000000000000000000000000000000000000000000000000000000          DEM Comm General Land Office                            UNDER VOTES                           Precinct 4                                             01 
00080040005000000000000000000000000000000000000000000000000000000000000000000000000000000000000000000          DEM Comm General Land Office                            UNDER VOTES                           Precinct 5                                             01 
00090010001000010000004000005000001000000000000000000000000000000000000000000000000000000000000000000DEM       DEM Member, State BoE, Dist 1                           Laura Marquez                         Precinct 1                                             01 
00090010002000005000000000001000004000000000000000000000000000000000000000000000000000000000000000000DEM       DEM Member, State BoE, Dist 1                           Laura Marquez                         Precinct 2                                             01 
00090010003000004000000000002000002000000000000000000000000000000000000000000000000000000000000000000DEM       DEM Member, State BoE, Dist 1                           Laura Marquez                         Precinct 3                                             01 
00090010004000002000000000000000002000000000000000000000000000000000000000000000000000000000000000000DEM       DEM Member, State BoE, Dist 1                           Laura Marquez                         Precinct 4                                             01 
00090010005000005000000000004000001000000000000000000000000000000000000000000000000000000000000000000DEM       DEM Member, State BoE, Dist 1                           Laura Marquez                         Precinct 5                                             01 
00090020001000009000000000006000003000000000000000000000000000000000000000000000000000000000000000000DEM       DEM Member, State BoE, Dist 1                           Melissa N Ortega                      Precinct 1                                             01 
00090020002000000000000000000000000000000000000000000000000000000000000000000000000000000000000000000DEM       DEM Member, State BoE, Dist 1                           Melissa N Ortega                      Precinct 2                                             01 
00090020003000003000000000001000002000000000000000000000000000000000000000000000000000000000000000000DEM       DEM Member, State BoE, Dist 1                           Melissa N Ortega                      Precinct 3                                             01 
00090020004000001000000000001000000000000000000000000000000000000000000000000000000000000000000000000DEM       DEM Member, State BoE, Dist 1                           Melissa N Ortega                      Precinct 4                                             01 
00090020005000002000000000000000002000000000000000000000000000000000000000000000000000000000000000000DEM       DEM Member, State BoE, Dist 1                           Melissa N Ortega                      Precinct 5                                             01 
00090030001000000000000000000000000000000000000000000000000000000000000000000000000000000000000000000          DEM Member, State BoE, Dist 1                           OVER VOTES                            Precinct 1                                             01 
00090030002000000000000000000000000000000000000000000000000000000000000000000000000000000000000000000          DEM Member, State BoE, Dist 1                           OVER VOTES                            Precinct 2                                             01 
00090030003000000000000000000000000000000000000000000000000000000000000000000000000000000000000000000          DEM Member, State BoE, Dist 1                           OVER VOTES                            Precinct 3                                             01 
00090030004000000000000000000000000000000000000000000000000000000000000000000000000000000000000000000          DEM Member, State BoE, Dist 1                           OVER VOTES                            Precinct 4                                             01 
00090030005000000000000000000000000000000000000000000000000000000000000000000000000000000000000000000          DEM Member, State BoE, Dist 1                           OVER VOTES                            Precinct 5                                             01 
00090040001000000000000000000000000000000000000000000000000000000000000000000000000000000000000000000          DEM Member, State BoE, Dist 1                           UNDER VOTES                           Precinct 1                                             01 
00090040002000000000000000000000000000000000000000000000000000000000000000000000000000000000000000000          DEM Member, State BoE, Dist 1                           UNDER VOTES                           Precinct 2                                             01 
00090040003000000000000000000000000000000000000000000000000000000000000000000000000000000000000000000          DEM Member, State BoE, Dist 1                           UNDER VOTES                           Precinct 3                                             01 
00090040004000000000000000000000000000000000000000000000000000000000000000000000000000000000000000000          DEM Member, State BoE, Dist 1                           UNDER VOTES                           Precinct 4                                             01 
00090040005000000000000000000000000000000000000000000000000000000000000000000000000000000000000000000          DEM Member, State BoE, Dist 1                           UNDER VOTES                           Precinct 5                                             01 
