01020010001000087          BALLOTS CAST - TOTAL                                    BALLOTS CAST - TOTAL                  PRECINCT 1                                             00 
01020010002000183          BALLOTS CAST - TOTAL                                    BALLOTS CAST - TOTAL                  PRECINCT 2                                             00 
01020010003000173          BALLOTS CAST - TOTAL                                    BALLOTS CAST - TOTAL                  PRECINCT 3                                             00 
01020010004000236          BALLOTS CAST - TOTAL                                    BALLOTS CAST - TOTAL                  PRECINCT 4                                             00 
01030010001000065REP       BALLOTS CAST - REPUBLICAN PARTY                         BALLOTS CAST - REPUBLICAN PARTY       PRECINCT 1                                             00 
01030010002000168REP       BALLOTS CAST - REPUBLICAN PARTY                         BALLOTS CAST - REPUBLICAN PARTY       PRECINCT 2                                             00 
01030010003000156REP       BALLOTS CAST - REPUBLICAN PARTY                         BALLOTS CAST - REPUBLICAN PARTY       PRECINCT 3                                             00 
01030010004000220REP       BALLOTS CAST - REPUBLICAN PARTY                         BALLOTS CAST - REPUBLICAN PARTY       PRECINCT 4                                             00 
01040010001000022DEM       BALLOTS CAST - DEMOCRATIC PARTY                         BALLOTS CAST - DEMOCRATIC PARTY       PRECINCT 1                                             00 
01040010002000015DEM       BALLOTS CAST - DEMOCRATIC PARTY                         BALLOTS CAST - DEMOCRATIC PARTY       PRECINCT 2                                             00 
01040010003000017DEM       BALLOTS CAST - DEMOCRATIC PARTY                         BALLOTS CAST - DEMOCRATIC PARTY       PRECINCT 3                                             00 
01040010004000016DEM       BALLOTS CAST - DEMOCRATIC PARTY                         BALLOTS CAST - DEMOCRATIC PARTY       PRECINCT 4                                             00 
01050010001000010REP       Attorney General                                        George P. Bush                        PRECINCT 1                                             01 
01050010002000032REP       Attorney General                                        George P. Bush                        PRECINCT 2                                             01 
01050010003000025REP       Attorney General                                        George P. Bush                        PRECINCT 3                                             01 
01050010004000056REP       Attorney General                                        George P. Bush                        PRECINCT 4                                             01 
01050020001000054REP       Attorney General                                        Ken Paxton                            PRECINCT 1                                             01 
01050020002000135REP       Attorney General                                        Ken Paxton                            PRECINCT 2                                             01 
01050020003000129REP       Attorney General                                        Ken Paxton                            PRECINCT 3                                             01 
01050020004000164REP       Attorney General                                        Ken Paxton                            PRECINCT 4                                             01 
01050030001000000REP       Attorney General                                        OVER VOTES                            PRECINCT 1                                             01 
01050030002000000REP       Attorney General                                        OVER VOTES                            PRECINCT 2                                             01 
01050030003000000REP       Attorney General                                        OVER VOTES                            PRECINCT 3                                             01 
01050030004000000REP       Attorney General                                        OVER VOTES                            PRECINCT 4                                             01 
01050040001000001REP       Attorney General                                        UNDER VOTES                           PRECINCT 1                                             01 
01050040002000001REP       Attorney General                                        UNDER VOTES                           PRECINCT 2                                             01 
01050040003000002REP       Attorney General                                        UNDER VOTES                           PRECINCT 3                                             01 
01050040004000000REP       Attorney General                                        UNDER VOTES                           PRECINCT 4                                             01 
01060010001000047REP       Commissioner of the General Land Office                 Dawn Buckingham                       PRECINCT 1                                             01 
01060010002000128REP       Commissioner of the General Land Office                 Dawn Buckingham                       PRECINCT 2                                             01 
01060010003000119REP       Commissioner of the General Land Office                 Dawn Buckingham                       PRECINCT 3                                             01 
01060010004000156REP       Commissioner of the General Land Office                 Dawn Buckingham                       PRECINCT 4                                             01 
01060020001000013REP       Commissioner of the General Land Office                 Tim Westley                           PRECINCT 1                                             01 
01060020002000036REP       Commissioner of the General Land Office                 Tim Westley                           PRECINCT 2                                             01 
01060020003000030REP       Commissioner of the General Land Office                 Tim Westley                           PRECINCT 3                                             01 
01060020004000057REP       Commissioner of the General Land Office                 Tim Westley                           PRECINCT 4                                             01 
01060030001000000REP       Commissioner of the General Land Office                 OVER VOTES                            PRECINCT 1                                             01 
01060030002000000REP       Commissioner of the General Land Office                 OVER VOTES                            PRECINCT 2                                             01 
01060030003000000REP       Commissioner of the General Land Office                 OVER VOTES                            PRECINCT 3                                             01 
01060030004000000REP       Commissioner of the General Land Office                 OVER VOTES                            PRECINCT 4                                             01 
01060040001000005REP       Commissioner of the General Land Office                 UNDER VOTES                           PRECINCT 1                                             01 
01060040002000004REP       Commissioner of the General Land Office                 UNDER VOTES                           PRECINCT 2                                             01 
01060040003000007REP       Commissioner of the General Land Office                 UNDER VOTES                           PRECINCT 3                                             01 
01060040004000007REP       Commissioner of the General Land Office                 UNDER VOTES                           PRECINCT 4                                             01 
01070010001000045REP       Railroad Commissioner                                   Wayne Christian                       PRECINCT 1                                             01 
01070010002000126REP       Railroad Commissioner                                   Wayne Christian                       PRECINCT 2                                             01 
01070010003000128REP       Railroad Commissioner                                   Wayne Christian                       PRECINCT 3                                             01 
01070010004000164REP       Railroad Commissioner                                   Wayne Christian                       PRECINCT 4                                             01 
01070020001000015REP       Railroad Commissioner                                   Sarah Stogner                         PRECINCT 1                                             01 
01070020002000039REP       Railroad Commissioner                                   Sarah Stogner                         PRECINCT 2                                             01 
01070020003000021REP       Railroad Commissioner                                   Sarah Stogner                         PRECINCT 3                                             01 
01070020004000041REP       Railroad Commissioner                                   Sarah Stogner                         PRECINCT 4                                             01 
01070030001000000REP       Railroad Commissioner                                   OVER VOTES                            PRECINCT 1                                             01 
01070030002000000REP       Railroad Commissioner                                   OVER VOTES                            PRECINCT 2                                             01 
01070030003000000REP       Railroad Commissioner                                   OVER VOTES                            PRECINCT 3                                             01 
01070030004000000REP       Railroad Commissioner                                   OVER VOTES                            PRECINCT 4                                             01 
01070040001000005REP       Railroad Commissioner                                   UNDER VOTES                           PRECINCT 1                                             01 
01070040002000003REP       Railroad Commissioner                                   UNDER VOTES                           PRECINCT 2                                             01 
01070040003000007REP       Railroad Commissioner                                   UNDER VOTES                           PRECINCT 3                                             01 
01070040004000015REP       Railroad Commissioner                                   UNDER VOTES                           PRECINCT 4                                             01 
01080010001000013DEM       Lieutenant Governor                                     Michelle Beckley                      PRECINCT 1                                             01 
01080010002000003DEM       Lieutenant Governor                                     Michelle Beckley                      PRECINCT 2                                             01 
01080010003000011DEM       Lieutenant Governor                                     Michelle Beckley                      PRECINCT 3                                             01 
01080010004000007DEM       Lieutenant Governor                                     Michelle Beckley                      PRECINCT 4                                             01 
01080020001000009DEM       Lieutenant Governor                                     Mike Collier                          PRECINCT 1                                             01 
01080020002000012DEM       Lieutenant Governor                                     Mike Collier                          PRECINCT 2                                             01 
01080020003000006DEM       Lieutenant Governor                                     Mike Collier                          PRECINCT 3                                             01 
01080020004000009DEM       Lieutenant Governor                                     Mike Collier                          PRECINCT 4                                             01 
01080030001000000DEM       Lieutenant Governor                                     OVER VOTES                            PRECINCT 1                                             01 
01080030002000000DEM       Lieutenant Governor                                     OVER VOTES                            PRECINCT 2                                             01 
01080030003000000DEM       Lieutenant Governor                                     OVER VOTES                            PRECINCT 3                                             01 
01080030004000000DEM       Lieutenant Governor                                     OVER VOTES                            PRECINCT 4                                             01 
01080040001000000DEM       Lieutenant Governor                                     UNDER VOTES                           PRECINCT 1                                             01 
01080040002000000DEM       Lieutenant Governor                                     UNDER VOTES                           PRECINCT 2                                             01 
01080040003000000DEM       Lieutenant Governor                                     UNDER VOTES                           PRECINCT 3                                             01 
01080040004000000DEM       Lieutenant Governor                                     UNDER VOTES                           PRECINCT 4                                             01 
01090010001000007DEM       Attorney General                                        Joe Jaworski                          PRECINCT 1                                             01 
01090010002000006DEM       Attorney General                                        Joe Jaworski                          PRECINCT 2                                             01 
01090010003000006DEM       Attorney General                                        Joe Jaworski                          PRECINCT 3                                             01 
01090010004000011DEM       Attorney General                                        Joe Jaworski                          PRECINCT 4                                             01 
01090020001000015DEM       Attorney General                                        Rochelle Mercedes Garza               PRECINCT 1                                             01 
01090020002000009DEM       Attorney General                                        Rochelle Mercedes Garza               PRECINCT 2                                             01 
01090020003000011DEM       Attorney General                                        Rochelle Mercedes Garza               PRECINCT 3                                             01 
01090020004000005DEM       Attorney General                                        Rochelle Mercedes Garza               PRECINCT 4                                             01 
01090030001000000DEM       Attorney General                                        OVER VOTES                            PRECINCT 1                                             01 
01090030002000000DEM       Attorney General                                        OVER VOTES                            PRECINCT 2                                             01 
01090030003000000DEM       Attorney General                                        OVER VOTES                            PRECINCT 3                                             01 
01090030004000000DEM       Attorney General                                        OVER VOTES                            PRECINCT 4                                             01 
01090040001000000DEM       Attorney General                                        UNDER VOTES                           PRECINCT 1                                             01 
01090040002000000DEM       Attorney General                                        UNDER VOTES                           PRECINCT 2                                             01 
01090040003000000DEM       Attorney General                                        UNDER VOTES                           PRECINCT 3                                             01 
01090040004000000DEM       Attorney General                                        UNDER VOTES                           PRECINCT 4                                             01 
01100010001000009DEM       Comptroller of Public Accounts                          Angel Luis Vega                       PRECINCT 1                                             01 
01100010002000005DEM       Comptroller of Public Accounts                          Angel Luis Vega                       PRECINCT 2                                             01 
01100010003000002DEM       Comptroller of Public Accounts                          Angel Luis Vega                       PRECINCT 3                                             01 
01100010004000006DEM       Comptroller of Public Accounts                          Angel Luis Vega                       PRECINCT 4                                             01 
01100020001000012DEM       Comptroller of Public Accounts                          Janet T. Dudding                      PRECINCT 1                                             01 
01100020002000010DEM       Comptroller of Public Accounts                          Janet T. Dudding                      PRECINCT 2                                             01 
01100020003000015DEM       Comptroller of Public Accounts                          Janet T. Dudding                      PRECINCT 3                                             01 
01100020004000010DEM       Comptroller of Public Accounts                          Janet T. Dudding                      PRECINCT 4                                             01 
01100030001000000DEM       Comptroller of Public Accounts                          OVER VOTES                            PRECINCT 1                                             01 
01100030002000000DEM       Comptroller of Public Accounts                          OVER VOTES                            PRECINCT 2                                             01 
01100030003000000DEM       Comptroller of Public Accounts                          OVER VOTES                            PRECINCT 3                                             01 
01100030004000000DEM       Comptroller of Public Accounts                          OVER VOTES                            PRECINCT 4                                             01 
01100040001000001DEM       Comptroller of Public Accounts                          UNDER VOTES                           PRECINCT 1                                             01 
01100040002000000DEM       Comptroller of Public Accounts                          UNDER VOTES                           PRECINCT 2                                             01 
01100040003000000DEM       Comptroller of Public Accounts                          UNDER VOTES                           PRECINCT 3                                             01 
01100040004000000DEM       Comptroller of Public Accounts                          UNDER VOTES                           PRECINCT 4                                             01 
01110010001000011DEM       Commissioner of the General Land Office                 Sandragrace Martinez                  PRECINCT 1                                             01 
01110010002000005DEM       Commissioner of the General Land Office                 Sandragrace Martinez                  PRECINCT 2                                             01 
01110010003000009DEM       Commissioner of the General Land Office                 Sandragrace Martinez                  PRECINCT 3                                             01 
01110010004000006DEM       Commissioner of the General Land Office                 Sandragrace Martinez                  PRECINCT 4                                             01 
01110020001000011DEM       Commissioner of the General Land Office                 Jay Kleberg                           PRECINCT 1                                             01 
01110020002000010DEM       Commissioner of the General Land Office                 Jay Kleberg                           PRECINCT 2                                             01 
01110020003000008DEM       Commissioner of the General Land Office                 Jay Kleberg                           PRECINCT 3                                             01 
01110020004000010DEM       Commissioner of the General Land Office                 Jay Kleberg                           PRECINCT 4                                             01 
01110030001000000DEM       Commissioner of the General Land Office                 OVER VOTES                            PRECINCT 1                                             01 
01110030002000000DEM       Commissioner of the General Land Office                 OVER VOTES                            PRECINCT 2                                             01 
01110030003000000DEM       Commissioner of the General Land Office                 OVER VOTES                            PRECINCT 3                                             01 
01110030004000000DEM       Commissioner of the General Land Office                 OVER VOTES                            PRECINCT 4                                             01 
01110040001000000DEM       Commissioner of the General Land Office                 UNDER VOTES                           PRECINCT 1                                             01 
01110040002000000DEM       Commissioner of the General Land Office                 UNDER VOTES                           PRECINCT 2                                             01 
01110040003000000DEM       Commissioner of the General Land Office                 UNDER VOTES                           PRECINCT 3                                             01 
01110040004000000DEM       Commissioner of the General Land Office                 UNDER VOTES                           PRECINCT 4                                             01 
