00010010001001403000000000000000000000000000000000000000000000000000000000000000000000000000000000000          REGISTERED VOTERS - TOTAL                               REGISTERED VOTERS - TOTAL             Precinct 101                                           00 
00010010002001529000000000000000000000000000000000000000000000000000000000000000000000000000000000000          REGISTERED VOTERS - TOTAL                               REGISTERED VOTERS - TOTAL             Precinct 102                                           00 
00010010003000745000000000000000000000000000000000000000000000000000000000000000000000000000000000000          REGISTERED VOTERS - TOTAL                               REGISTERED VOTERS - TOTAL             Precinct 208                                           00 
00010010004001435000000000000000000000000000000000000000000000000000000000000000000000000000000000000          REGISTERED VOTERS - TOTAL                               REGISTERED VOTERS - TOTAL             Precinct 309                                           00 
00010010005000801000000000000000000000000000000000000000000000000000000000000000000000000000000000000          REGISTERED VOTERS - TOTAL                               REGISTERED VOTERS - TOTAL             Precinct 311                                           00 
00010010006000781000000000000000000000000000000000000000000000000000000000000000000000000000000000000          REGISTERED VOTERS - TOTAL                               REGISTERED VOTERS - TOTAL             Precinct 416                                           00 
00010010007000794000000000000000000000000000000000000000000000000000000000000000000000000000000000000          REGISTERED VOTERS - TOTAL                               REGISTERED VOTERS - TOTAL             Precinct 119                                           00 
00010010008001291000000000000000000000000000000000000000000000000000000000000000000000000000000000000          REGISTERED VOTERS - TOTAL                               REGISTERED VOTERS - TOTAL             Precinct 223                                           00 
00010010009001489000000000000000000000000000000000000000000000000000000000000000000000000000000000000          REGISTERED VOTERS - TOTAL                               REGISTERED VOTERS - TOTAL             Precinct 329                                           00 
00010010010002120000000000000000000000000000000000000000000000000000000000000000000000000000000000000          REGISTERED VOTERS - TOTAL                               REGISTERED VOTERS - TOTAL             Precinct 430                                           00 
00010010011001501000000000000000000000000000000000000000000000000000000000000000000000000000000000000          REGISTERED VOTERS - TOTAL                               REGISTERED VOTERS - TOTAL             Precinct 231                                           00 
00020010001000000000000000000000000000000000000000000000000000000000000000000000000000000000000000000REP       REGISTERED VOTERS - Republican Party                    REGISTERED VOTERS - Republican Party  Precinct 101                                           00 
00020010002000000000000000000000000000000000000000000000000000000000000000000000000000000000000000000REP       REGISTERED VOTERS - Republican Party                    REGISTERED VOTERS - Republican Party  Precinct 102                                           00 
00020010003000000000000000000000000000000000000000000000000000000000000000000000000000000000000000000REP       REGISTERED VOTERS - Republican Party                    REGISTERED VOTERS - Republican Party  Precinct 208                                           00 
00020010004000000000000000000000000000000000000000000000000000000000000000000000000000000000000000000REP       REGISTERED VOTERS - Republican Party                    REGISTERED VOTERS - Republican Party  Precinct 309                                           00 
00020010005000000000000000000000000000000000000000000000000000000000000000000000000000000000000000000REP       REGISTERED VOTERS - Republican Party                    REGISTERED VOTERS - Republican Party  Precinct 311                                           00 
00020010006000000000000000000000000000000000000000000000000000000000000000000000000000000000000000000REP       REGISTERED VOTERS - Republican Party                    REGISTERED VOTERS - Republican Party  Precinct 416                                           00 
00020010007000000000000000000000000000000000000000000000000000000000000000000000000000000000000000000REP       REGISTERED VOTERS - Republican Party                    REGISTERED VOTERS - Republican Party  Precinct 119                                           00 
00020010008000000000000000000000000000000000000000000000000000000000000000000000000000000000000000000REP       REGISTERED VOTERS - Republican Party                    REGISTERED VOTERS - Republican Party  Precinct 223                                           00 
00020010009000000000000000000000000000000000000000000000000000000000000000000000000000000000000000000REP       REGISTERED VOTERS - Republican Party                    REGISTERED VOTERS - Republican Party  Precinct 329                                           00 
00020010010000000000000000000000000000000000000000000000000000000000000000000000000000000000000000000REP       REGISTERED VOTERS - Republican Party                    REGISTERED VOTERS - Republican Party  Precinct 430                                           00 
00020010011000000000000000000000000000000000000000000000000000000000000000000000000000000000000000000REP       REGISTERED VOTERS - Republican Party                    REGISTERED VOTERS - Republican Party  Precinct 231                                           00 
00030010001000000000000000000000000000000000000000000000000000000000000000000000000000000000000000000DEM       REGISTERED VOTERS - Democratic Party                    REGISTERED VOTERS - Democratic Party  Precinct 101                                           00 
00030010002000000000000000000000000000000000000000000000000000000000000000000000000000000000000000000DEM       REGISTERED VOTERS - Democratic Party                    REGISTERED VOTERS - Democratic Party  Precinct 102                                           00 
00030010003000000000000000000000000000000000000000000000000000000000000000000000000000000000000000000DEM       REGISTERED VOTERS - Democratic Party                    REGISTERED VOTERS - Democratic Party  Precinct 208                                           00 
00030010004000000000000000000000000000000000000000000000000000000000000000000000000000000000000000000DEM       REGISTERED VOTERS - Democratic Party                    REGISTERED VOTERS - Democratic Party  Precinct 309                                           00 
00030010005000000000000000000000000000000000000000000000000000000000000000000000000000000000000000000DEM       REGISTERED VOTERS - Democratic Party                    REGISTERED VOTERS - Democratic Party  Precinct 311                                           00 
00030010006000000000000000000000000000000000000000000000000000000000000000000000000000000000000000000DEM       REGISTERED VOTERS - Democratic Party                    REGISTERED VOTERS - Democratic Party  Precinct 416                                           00 
00030010007000000000000000000000000000000000000000000000000000000000000000000000000000000000000000000DEM       REGISTERED VOTERS - Democratic Party                    REGISTERED VOTERS - Democratic Party  Precinct 119                                           00 
00030010008000000000000000000000000000000000000000000000000000000000000000000000000000000000000000000DEM       REGISTERED VOTERS - Democratic Party                    REGISTERED VOTERS - Democratic Party  Precinct 223                                           00 
00030010009000000000000000000000000000000000000000000000000000000000000000000000000000000000000000000DEM       REGISTERED VOTERS - Democratic Party                    REGISTERED VOTERS - Democratic Party  Precinct 329                                           00 
00030010010000000000000000000000000000000000000000000000000000000000000000000000000000000000000000000DEM       REGISTERED VOTERS - Democratic Party                    REGISTERED VOTERS - Democratic Party  Precinct 430                                           00 
00030010011000000000000000000000000000000000000000000000000000000000000000000000000000000000000000000DEM       REGISTERED VOTERS - Democratic Party                    REGISTERED VOTERS - Democratic Party  Precinct 231                                           00 
00040010001001403000000000000000000000000000000000000000000000000000000000000000000000000000000000000NON       REGISTERED VOTERS - NONPARTISAN                         REGISTERED VOTERS - NONPARTISAN       Precinct 101                                           00 
00040010002001529000000000000000000000000000000000000000000000000000000000000000000000000000000000000NON       REGISTERED VOTERS - NONPARTISAN                         REGISTERED VOTERS - NONPARTISAN       Precinct 102                                           00 
00040010003000745000000000000000000000000000000000000000000000000000000000000000000000000000000000000NON       REGISTERED VOTERS - NONPARTISAN                         REGISTERED VOTERS - NONPARTISAN       Precinct 208                                           00 
00040010004001435000000000000000000000000000000000000000000000000000000000000000000000000000000000000NON       REGISTERED VOTERS - NONPARTISAN                         REGISTERED VOTERS - NONPARTISAN       Precinct 309                                           00 
00040010005000801000000000000000000000000000000000000000000000000000000000000000000000000000000000000NON       REGISTERED VOTERS - NONPARTISAN                         REGISTERED VOTERS - NONPARTISAN       Precinct 311                                           00 
00040010006000781000000000000000000000000000000000000000000000000000000000000000000000000000000000000NON       REGISTERED VOTERS - NONPARTISAN                         REGISTERED VOTERS - NONPARTISAN       Precinct 416                                           00 
00040010007000794000000000000000000000000000000000000000000000000000000000000000000000000000000000000NON       REGISTERED VOTERS - NONPARTISAN                         REGISTERED VOTERS - NONPARTISAN       Precinct 119                                           00 
00040010008001291000000000000000000000000000000000000000000000000000000000000000000000000000000000000NON       REGISTERED VOTERS - NONPARTISAN                         REGISTERED VOTERS - NONPARTISAN       Precinct 223                                           00 
00040010009001489000000000000000000000000000000000000000000000000000000000000000000000000000000000000NON       REGISTERED VOTERS - NONPARTISAN                         REGISTERED VOTERS - NONPARTISAN       Precinct 329                                           00 
00040010010002120000000000000000000000000000000000000000000000000000000000000000000000000000000000000NON       REGISTERED VOTERS - NONPARTISAN                         REGISTERED VOTERS - NONPARTISAN       Precinct 430                                           00 
00040010011001501000000000000000000000000000000000000000000000000000000000000000000000000000000000000NON       REGISTERED VOTERS - NONPARTISAN                         REGISTERED VOTERS - NONPARTISAN       Precinct 231                                           00 
00050010001000306000040000153000113000000000000000000000000000000000000000000000000000000000000000000          BALLOTS CAST - TOTAL                                    BALLOTS CAST - TOTAL                  Precinct 101                                           00 
00050010002000286000029000130000127000000000000000000000000000000000000000000000000000000000000000000          BALLOTS CAST - TOTAL                                    BALLOTS CAST - TOTAL                  Precinct 102                                           00 
00050010003000235000013000084000138000000000000000000000000000000000000000000000000000000000000000000          BALLOTS CAST - TOTAL                                    BALLOTS CAST - TOTAL                  Precinct 208                                           00 
00050010004000141000042000019000080000000000000000000000000000000000000000000000000000000000000000000          BALLOTS CAST - TOTAL                                    BALLOTS CAST - TOTAL                  Precinct 309                                           00 
00050010005000107000020000022000065000000000000000000000000000000000000000000000000000000000000000000          BALLOTS CAST - TOTAL                                    BALLOTS CAST - TOTAL                  Precinct 311                                           00 
00050010006000099000009000031000059000000000000000000000000000000000000000000000000000000000000000000          BALLOTS CAST - TOTAL                                    BALLOTS CAST - TOTAL                  Precinct 416                                           00 
00050010007000170000023000077000070000000000000000000000000000000000000000000000000000000000000000000          BALLOTS CAST - TOTAL                                    BALLOTS CAST - TOTAL                  Precinct 119                                           00 
00050010008000244000032000040000172000000000000000000000000000000000000000000000000000000000000000000          BALLOTS CAST - TOTAL                                    BALLOTS CAST - TOTAL                  Precinct 223                                           00 
00050010009000187000039000038000110000000000000000000000000000000000000000000000000000000000000000000          BALLOTS CAST - TOTAL                                    BALLOTS CAST - TOTAL                  Precinct 329                                           00 
00050010010000209000036000025000148000000000000000000000000000000000000000000000000000000000000000000          BALLOTS CAST - TOTAL                                    BALLOTS CAST - TOTAL                  Precinct 430                                           00 
00050010011000323000051000138000134000000000000000000000000000000000000000000000000000000000000000000          BALLOTS CAST - TOTAL                                    BALLOTS CAST - TOTAL                  Precinct 231                                           00 
00060010001000298000032000153000113000000000000000000000000000000000000000000000000000000000000000000REP       BALLOTS CAST - Republican Party                         BALLOTS CAST - Republican Party       Precinct 101                                           00 
00060010002000265000015000124000126000000000000000000000000000000000000000000000000000000000000000000REP       BALLOTS CAST - Republican Party                         BALLOTS CAST - Republican Party       Precinct 102                                           00 
00060010003000229000011000081000137000000000000000000000000000000000000000000000000000000000000000000REP       BALLOTS CAST - Republican Party                         BALLOTS CAST - Republican Party       Precinct 208                                           00 
00060010004000123000027000017000079000000000000000000000000000000000000000000000000000000000000000000REP       BALLOTS CAST - Republican Party                         BALLOTS CAST - Republican Party       Precinct 309                                           00 
00060010005000101000014000022000065000000000000000000000000000000000000000000000000000000000000000000REP       BALLOTS CAST - Republican Party                         BALLOTS CAST - Republican Party       Precinct 311                                           00 
00060010006000098000008000031000059000000000000000000000000000000000000000000000000000000000000000000REP       BALLOTS CAST - Republican Party                         BALLOTS CAST - Republican Party       Precinct 416                                           00 
00060010007000163000019000076000068000000000000000000000000000000000000000000000000000000000000000000REP       BALLOTS CAST - Republican Party                         BALLOTS CAST - Republican Party       Precinct 119                                           00 
00060010008000231000023000040000168000000000000000000000000000000000000000000000000000000000000000000REP       BALLOTS CAST - Republican Party                         BALLOTS CAST - Republican Party       Precinct 223                                           00 
00060010009000166000022000035000109000000000000000000000000000000000000000000000000000000000000000000REP       BALLOTS CAST - Republican Party                         BALLOTS CAST - Republican Party       Precinct 329                                           00 
00060010010000196000032000024000140000000000000000000000000000000000000000000000000000000000000000000REP       BALLOTS CAST - Republican Party                         BALLOTS CAST - Republican Party       Precinct 430                                           00 
00060010011000297000035000132000130000000000000000000000000000000000000000000000000000000000000000000REP       BALLOTS CAST - Republican Party                         BALLOTS CAST - Republican Party       Precinct 231                                           00 
00070010001000008000008000000000000000000000000000000000000000000000000000000000000000000000000000000DEM       BALLOTS CAST - Democratic Party                         BALLOTS CAST - Democratic Party       Precinct 101                                           00 
00070010002000021000014000006000001000000000000000000000000000000000000000000000000000000000000000000DEM       BALLOTS CAST - Democratic Party                         BALLOTS CAST - Democratic Party       Precinct 102                                           00 
00070010003000006000002000003000001000000000000000000000000000000000000000000000000000000000000000000DEM       BALLOTS CAST - Democratic Party                         BALLOTS CAST - Democratic Party       Precinct 208                                           00 
00070010004000018000015000002000001000000000000000000000000000000000000000000000000000000000000000000DEM       BALLOTS CAST - Democratic Party                         BALLOTS CAST - Democratic Party       Precinct 309                                           00 
00070010005000006000006000000000000000000000000000000000000000000000000000000000000000000000000000000DEM       BALLOTS CAST - Democratic Party                         BALLOTS CAST - Democratic Party       Precinct 311                                           00 
00070010006000001000001000000000000000000000000000000000000000000000000000000000000000000000000000000DEM       BALLOTS CAST - Democratic Party                         BALLOTS CAST - Democratic Party       Precinct 416                                           00 
00070010007000007000004000001000002000000000000000000000000000000000000000000000000000000000000000000DEM       BALLOTS CAST - Democratic Party                         BALLOTS CAST - Democratic Party       Precinct 119                                           00 
00070010008000013000009000000000004000000000000000000000000000000000000000000000000000000000000000000DEM       BALLOTS CAST - Democratic Party                         BALLOTS CAST - Democratic Party       Precinct 223                                           00 
00070010009000021000017000003000001000000000000000000000000000000000000000000000000000000000000000000DEM       BALLOTS CAST - Democratic Party                         BALLOTS CAST - Democratic Party       Precinct 329                                           00 
00070010010000013000004000001000008000000000000000000000000000000000000000000000000000000000000000000DEM       BALLOTS CAST - Democratic Party                         BALLOTS CAST - Democratic Party       Precinct 430                                           00 
00070010011000026000016000006000004000000000000000000000000000000000000000000000000000000000000000000DEM       BALLOTS CAST - Democratic Party                         BALLOTS CAST - Democratic Party       Precinct 231                                           00 
00080010001000000000000000000000000000000000000000000000000000000000000000000000000000000000000000000NON       BALLOTS CAST - NONPARTISAN                              BALLOTS CAST - NONPARTISAN            Precinct 101                                           00 
00080010002000000000000000000000000000000000000000000000000000000000000000000000000000000000000000000NON       BALLOTS CAST - NONPARTISAN                              BALLOTS CAST - NONPARTISAN            Precinct 102                                           00 
00080010003000000000000000000000000000000000000000000000000000000000000000000000000000000000000000000NON       BALLOTS CAST - NONPARTISAN                              BALLOTS CAST - NONPARTISAN            Precinct 208                                           00 
00080010004000000000000000000000000000000000000000000000000000000000000000000000000000000000000000000NON       BALLOTS CAST - NONPARTISAN                              BALLOTS CAST - NONPARTISAN            Precinct 309                                           00 
00080010005000000000000000000000000000000000000000000000000000000000000000000000000000000000000000000NON       BALLOTS CAST - NONPARTISAN                              BALLOTS CAST - NONPARTISAN            Precinct 311                                           00 
00080010006000000000000000000000000000000000000000000000000000000000000000000000000000000000000000000NON       BALLOTS CAST - NONPARTISAN                              BALLOTS CAST - NONPARTISAN            Precinct 416                                           00 
00080010007000000000000000000000000000000000000000000000000000000000000000000000000000000000000000000NON       BALLOTS CAST - NONPARTISAN                              BALLOTS CAST - NONPARTISAN            Precinct 119                                           00 
00080010008000000000000000000000000000000000000000000000000000000000000000000000000000000000000000000NON       BALLOTS CAST - NONPARTISAN                              BALLOTS CAST - NONPARTISAN            Precinct 223                                           00 
00080010009000000000000000000000000000000000000000000000000000000000000000000000000000000000000000000NON       BALLOTS CAST - NONPARTISAN                              BALLOTS CAST - NONPARTISAN            Precinct 329                                           00 
00080010010000000000000000000000000000000000000000000000000000000000000000000000000000000000000000000NON       BALLOTS CAST - NONPARTISAN                              BALLOTS CAST - NONPARTISAN            Precinct 430                                           00 
00080010011000000000000000000000000000000000000000000000000000000000000000000000000000000000000000000NON       BALLOTS CAST - NONPARTISAN                              BALLOTS CAST - NONPARTISAN            Precinct 231                                           00 
00090010001000000000000000000000000000000000000000000000000000000000000000000000000000000000000000000          BALLOTS CAST - BLANK                                    BALLOTS CAST - BLANK                  Precinct 101                                           00 
00090010002000000000000000000000000000000000000000000000000000000000000000000000000000000000000000000          BALLOTS CAST - BLANK                                    BALLOTS CAST - BLANK                  Precinct 102                                           00 
00090010003000000000000000000000000000000000000000000000000000000000000000000000000000000000000000000          BALLOTS CAST - BLANK                                    BALLOTS CAST - BLANK                  Precinct 208                                           00 
00090010004000000000000000000000000000000000000000000000000000000000000000000000000000000000000000000          BALLOTS CAST - BLANK                                    BALLOTS CAST - BLANK                  Precinct 309                                           00 
00090010005000000000000000000000000000000000000000000000000000000000000000000000000000000000000000000          BALLOTS CAST - BLANK                                    BALLOTS CAST - BLANK                  Precinct 311                                           00 
00090010006000000000000000000000000000000000000000000000000000000000000000000000000000000000000000000          BALLOTS CAST - BLANK                                    BALLOTS CAST - BLANK                  Precinct 416                                           00 
00090010007000000000000000000000000000000000000000000000000000000000000000000000000000000000000000000          BALLOTS CAST - BLANK                                    BALLOTS CAST - BLANK                  Precinct 119                                           00 
00090010008000000000000000000000000000000000000000000000000000000000000000000000000000000000000000000          BALLOTS CAST - BLANK                                    BALLOTS CAST - BLANK                  Precinct 223                                           00 
00090010009000000000000000000000000000000000000000000000000000000000000000000000000000000000000000000          BALLOTS CAST - BLANK                                    BALLOTS CAST - BLANK                  Precinct 329                                           00 
00090010010000001000000000001000000000000000000000000000000000000000000000000000000000000000000000000          BALLOTS CAST - BLANK                                    BALLOTS CAST - BLANK                  Precinct 430                                           00 
00090010011000000000000000000000000000000000000000000000000000000000000000000000000000000000000000000          BALLOTS CAST - BLANK                                    BALLOTS CAST - BLANK                  Precinct 231                                           00 
00100010001000194000021000104000069000000000000000000000000000000000000000000000000000000000000000000REP       REP Attorney General                                    Ken Paxton                            Precinct 101                                           01 
00100010002000189000010000093000086000000000000000000000000000000000000000000000000000000000000000000REP       REP Attorney General                                    Ken Paxton                            Precinct 102                                           01 
00100010003000159000008000056000095000000000000000000000000000000000000000000000000000000000000000000REP       REP Attorney General                                    Ken Paxton                            Precinct 208                                           01 
00100010004000099000022000011000066000000000000000000000000000000000000000000000000000000000000000000REP       REP Attorney General                                    Ken Paxton                            Precinct 309                                           01 
00100010005000086000011000021000054000000000000000000000000000000000000000000000000000000000000000000REP       REP Attorney General                                    Ken Paxton                            Precinct 311                                           01 
00100010006000074000006000022000046000000000000000000000000000000000000000000000000000000000000000000REP       REP Attorney General                                    Ken Paxton                            Precinct 416                                           01 
00100010007000127000012000058000057000000000000000000000000000000000000000000000000000000000000000000REP       REP Attorney General                                    Ken Paxton                            Precinct 119                                           01 
00100010008000145000013000030000102000000000000000000000000000000000000000000000000000000000000000000REP       REP Attorney General                                    Ken Paxton                            Precinct 223                                           01 
00100010009000134000020000029000085000000000000000000000000000000000000000000000000000000000000000000REP       REP Attorney General                                    Ken Paxton                            Precinct 329                                           01 
00100010010000138000021000019000098000000000000000000000000000000000000000000000000000000000000000000REP       REP Attorney General                                    Ken Paxton                            Precinct 430                                           01 
00100010011000210000023000102000085000000000000000000000000000000000000000000000000000000000000000000REP       REP Attorney General                                    Ken Paxton                            Precinct 231                                           01 
00100020001000093000011000043000039000000000000000000000000000000000000000000000000000000000000000000REP       REP Attorney General                                    George P. Bush                        Precinct 101                                           01 
00100020002000064000005000021000038000000000000000000000000000000000000000000000000000000000000000000REP       REP Attorney General                                    George P. Bush                        Precinct 102                                           01 
00100020003000061000003000021000037000000000000000000000000000000000000000000000000000000000000000000REP       REP Attorney General                                    George P. Bush                        Precinct 208                                           01 
00100020004000024000005000006000013000000000000000000000000000000000000000000000000000000000000000000REP       REP Attorney General                                    George P. Bush                        Precinct 309                                           01 
00100020005000015000003000001000011000000000000000000000000000000000000000000000000000000000000000000REP       REP Attorney General                                    George P. Bush                        Precinct 311                                           01 
00100020006000022000002000009000011000000000000000000000000000000000000000000000000000000000000000000REP       REP Attorney General                                    George P. Bush                        Precinct 416                                           01 
00100020007000036000007000018000011000000000000000000000000000000000000000000000000000000000000000000REP       REP Attorney General                                    George P. Bush                        Precinct 119                                           01 
00100020008000080000009000008000063000000000000000000000000000000000000000000000000000000000000000000REP       REP Attorney General                                    George P. Bush                        Precinct 223                                           01 
00100020009000029000002000006000021000000000000000000000000000000000000000000000000000000000000000000REP       REP Attorney General                                    George P. Bush                        Precinct 329                                           01 
00100020010000053000011000004000038000000000000000000000000000000000000000000000000000000000000000000REP       REP Attorney General                                    George P. Bush                        Precinct 430                                           01 
00100020011000074000010000023000041000000000000000000000000000000000000000000000000000000000000000000REP       REP Attorney General                                    George P. Bush                        Precinct 231                                           01 
00100030001000000000000000000000000000000000000000000000000000000000000000000000000000000000000000000          REP Attorney General                                    OVER VOTES                            Precinct 101                                           01 
00100030002000000000000000000000000000000000000000000000000000000000000000000000000000000000000000000          REP Attorney General                                    OVER VOTES                            Precinct 102                                           01 
00100030003000000000000000000000000000000000000000000000000000000000000000000000000000000000000000000          REP Attorney General                                    OVER VOTES                            Precinct 208                                           01 
00100030004000000000000000000000000000000000000000000000000000000000000000000000000000000000000000000          REP Attorney General                                    OVER VOTES                            Precinct 309                                           01 
00100030005000000000000000000000000000000000000000000000000000000000000000000000000000000000000000000          REP Attorney General                                    OVER VOTES                            Precinct 311                                           01 
00100030006000000000000000000000000000000000000000000000000000000000000000000000000000000000000000000          REP Attorney General                                    OVER VOTES                            Precinct 416                                           01 
00100030007000000000000000000000000000000000000000000000000000000000000000000000000000000000000000000          REP Attorney General                                    OVER VOTES                            Precinct 119                                           01 
00100030008000000000000000000000000000000000000000000000000000000000000000000000000000000000000000000          REP Attorney General                                    OVER VOTES                            Precinct 223                                           01 
00100030009000000000000000000000000000000000000000000000000000000000000000000000000000000000000000000          REP Attorney General                                    OVER VOTES                            Precinct 329                                           01 
00100030010000000000000000000000000000000000000000000000000000000000000000000000000000000000000000000          REP Attorney General                                    OVER VOTES                            Precinct 430                                           01 
00100030011000000000000000000000000000000000000000000000000000000000000000000000000000000000000000000          REP Attorney General                                    OVER VOTES                            Precinct 231                                           01 
00100040001000011000000000006000005000000000000000000000000000000000000000000000000000000000000000000          REP Attorney General                                    UNDER VOTES                           Precinct 101                                           01 
00100040002000012000000000010000002000000000000000000000000000000000000000000000000000000000000000000          REP Attorney General                                    UNDER VOTES                           Precinct 102                                           01 
00100040003000009000000000004000005000000000000000000000000000000000000000000000000000000000000000000          REP Attorney General                                    UNDER VOTES                           Precinct 208                                           01 
00100040004000000000000000000000000000000000000000000000000000000000000000000000000000000000000000000          REP Attorney General                                    UNDER VOTES                           Precinct 309                                           01 
00100040005000000000000000000000000000000000000000000000000000000000000000000000000000000000000000000          REP Attorney General                                    UNDER VOTES                           Precinct 311                                           01 
00100040006000002000000000000000002000000000000000000000000000000000000000000000000000000000000000000          REP Attorney General                                    UNDER VOTES                           Precinct 416                                           01 
00100040007000000000000000000000000000000000000000000000000000000000000000000000000000000000000000000          REP Attorney General                                    UNDER VOTES                           Precinct 119                                           01 
00100040008000006000001000002000003000000000000000000000000000000000000000000000000000000000000000000          REP Attorney General                                    UNDER VOTES                           Precinct 223                                           01 
00100040009000003000000000000000003000000000000000000000000000000000000000000000000000000000000000000          REP Attorney General                                    UNDER VOTES                           Precinct 329                                           01 
00100040010000005000000000001000004000000000000000000000000000000000000000000000000000000000000000000          REP Attorney General                                    UNDER VOTES                           Precinct 430                                           01 
00100040011000013000002000007000004000000000000000000000000000000000000000000000000000000000000000000          REP Attorney General                                    UNDER VOTES                           Precinct 231                                           01 
00110010001000103000015000049000039000000000000000000000000000000000000000000000000000000000000000000REP       REP Comm General Land Office                            Tim Westley                           Precinct 101                                           01 
00110010002000111000003000056000052000000000000000000000000000000000000000000000000000000000000000000REP       REP Comm General Land Office                            Tim Westley                           Precinct 102                                           01 
00110010003000093000006000029000058000000000000000000000000000000000000000000000000000000000000000000REP       REP Comm General Land Office                            Tim Westley                           Precinct 208                                           01 
00110010004000051000014000003000034000000000000000000000000000000000000000000000000000000000000000000REP       REP Comm General Land Office                            Tim Westley                           Precinct 309                                           01 
00110010005000042000006000008000028000000000000000000000000000000000000000000000000000000000000000000REP       REP Comm General Land Office                            Tim Westley                           Precinct 311                                           01 
00110010006000030000001000012000017000000000000000000000000000000000000000000000000000000000000000000REP       REP Comm General Land Office                            Tim Westley                           Precinct 416                                           01 
00110010007000063000010000029000024000000000000000000000000000000000000000000000000000000000000000000REP       REP Comm General Land Office                            Tim Westley                           Precinct 119                                           01 
00110010008000082000013000016000053000000000000000000000000000000000000000000000000000000000000000000REP       REP Comm General Land Office                            Tim Westley                           Precinct 223                                           01 
00110010009000043000007000006000030000000000000000000000000000000000000000000000000000000000000000000REP       REP Comm General Land Office                            Tim Westley                           Precinct 329                                           01 
00110010010000070000013000012000045000000000000000000000000000000000000000000000000000000000000000000REP       REP Comm General Land Office                            Tim Westley                           Precinct 430                                           01 
00110010011000096000011000031000054000000000000000000000000000000000000000000000000000000000000000000REP       REP Comm General Land Office                            Tim Westley                           Precinct 231                                           01 
00110020001000140000013000077000050000000000000000000000000000000000000000000000000000000000000000000REP       REP Comm General Land Office                            Dawn Buckingham                       Precinct 101                                           01 
00110020002000107000010000039000058000000000000000000000000000000000000000000000000000000000000000000REP       REP Comm General Land Office                            Dawn Buckingham                       Precinct 102                                           01 
00110020003000105000004000037000064000000000000000000000000000000000000000000000000000000000000000000REP       REP Comm General Land Office                            Dawn Buckingham                       Precinct 208                                           01 
00110020004000067000012000013000042000000000000000000000000000000000000000000000000000000000000000000REP       REP Comm General Land Office                            Dawn Buckingham                       Precinct 309                                           01 
00110020005000054000008000011000035000000000000000000000000000000000000000000000000000000000000000000REP       REP Comm General Land Office                            Dawn Buckingham                       Precinct 311                                           01 
00110020006000054000006000015000033000000000000000000000000000000000000000000000000000000000000000000REP       REP Comm General Land Office                            Dawn Buckingham                       Precinct 416                                           01 
00110020007000076000007000037000032000000000000000000000000000000000000000000000000000000000000000000REP       REP Comm General Land Office                            Dawn Buckingham                       Precinct 119                                           01 
00110020008000101000007000018000076000000000000000000000000000000000000000000000000000000000000000000REP       REP Comm General Land Office                            Dawn Buckingham                       Precinct 223                                           01 
00110020009000104000015000027000062000000000000000000000000000000000000000000000000000000000000000000REP       REP Comm General Land Office                            Dawn Buckingham                       Precinct 329                                           01 
00110020010000107000016000011000080000000000000000000000000000000000000000000000000000000000000000000REP       REP Comm General Land Office                            Dawn Buckingham                       Precinct 430                                           01 
00110020011000159000021000077000061000000000000000000000000000000000000000000000000000000000000000000REP       REP Comm General Land Office                            Dawn Buckingham                       Precinct 231                                           01 
00110030001000000000000000000000000000000000000000000000000000000000000000000000000000000000000000000          REP Comm General Land Office                            OVER VOTES                            Precinct 101                                           01 
00110030002000000000000000000000000000000000000000000000000000000000000000000000000000000000000000000          REP Comm General Land Office                            OVER VOTES                            Precinct 102                                           01 
00110030003000000000000000000000000000000000000000000000000000000000000000000000000000000000000000000          REP Comm General Land Office                            OVER VOTES                            Precinct 208                                           01 
00110030004000000000000000000000000000000000000000000000000000000000000000000000000000000000000000000          REP Comm General Land Office                            OVER VOTES                            Precinct 309                                           01 
00110030005000000000000000000000000000000000000000000000000000000000000000000000000000000000000000000          REP Comm General Land Office                            OVER VOTES                            Precinct 311                                           01 
00110030006000000000000000000000000000000000000000000000000000000000000000000000000000000000000000000          REP Comm General Land Office                            OVER VOTES                            Precinct 416                                           01 
00110030007000000000000000000000000000000000000000000000000000000000000000000000000000000000000000000          REP Comm General Land Office                            OVER VOTES                            Precinct 119                                           01 
00110030008000000000000000000000000000000000000000000000000000000000000000000000000000000000000000000          REP Comm General Land Office                            OVER VOTES                            Precinct 223                                           01 
00110030009000000000000000000000000000000000000000000000000000000000000000000000000000000000000000000          REP Comm General Land Office                            OVER VOTES                            Precinct 329                                           01 
00110030010000000000000000000000000000000000000000000000000000000000000000000000000000000000000000000          REP Comm General Land Office                            OVER VOTES                            Precinct 430                                           01 
00110030011000000000000000000000000000000000000000000000000000000000000000000000000000000000000000000          REP Comm General Land Office                            OVER VOTES                            Precinct 231                                           01 
00110040001000055000004000027000024000000000000000000000000000000000000000000000000000000000000000000          REP Comm General Land Office                            UNDER VOTES                           Precinct 101                                           01 
00110040002000047000002000029000016000000000000000000000000000000000000000000000000000000000000000000          REP Comm General Land Office                            UNDER VOTES                           Precinct 102                                           01 
00110040003000031000001000015000015000000000000000000000000000000000000000000000000000000000000000000          REP Comm General Land Office                            UNDER VOTES                           Precinct 208                                           01 
00110040004000005000001000001000003000000000000000000000000000000000000000000000000000000000000000000          REP Comm General Land Office                            UNDER VOTES                           Precinct 309                                           01 
00110040005000005000000000003000002000000000000000000000000000000000000000000000000000000000000000000          REP Comm General Land Office                            UNDER VOTES                           Precinct 311                                           01 
00110040006000014000001000004000009000000000000000000000000000000000000000000000000000000000000000000          REP Comm General Land Office                            UNDER VOTES                           Precinct 416                                           01 
00110040007000024000002000010000012000000000000000000000000000000000000000000000000000000000000000000          REP Comm General Land Office                            UNDER VOTES                           Precinct 119                                           01 
00110040008000048000003000006000039000000000000000000000000000000000000000000000000000000000000000000          REP Comm General Land Office                            UNDER VOTES                           Precinct 223                                           01 
00110040009000019000000000002000017000000000000000000000000000000000000000000000000000000000000000000          REP Comm General Land Office                            UNDER VOTES                           Precinct 329                                           01 
00110040010000019000003000001000015000000000000000000000000000000000000000000000000000000000000000000          REP Comm General Land Office                            UNDER VOTES                           Precinct 430                                           01 
00110040011000042000003000024000015000000000000000000000000000000000000000000000000000000000000000000          REP Comm General Land Office                            UNDER VOTES                           Precinct 231                                           01 
00120010001000102000010000049000043000000000000000000000000000000000000000000000000000000000000000000REP       REP Railroad Commissioner                               Sarah Stogner                         Precinct 101                                           01 
00120010002000072000000000034000038000000000000000000000000000000000000000000000000000000000000000000REP       REP Railroad Commissioner                               Sarah Stogner                         Precinct 102                                           01 
00120010003000077000002000025000050000000000000000000000000000000000000000000000000000000000000000000REP       REP Railroad Commissioner                               Sarah Stogner                         Precinct 208                                           01 
00120010004000048000008000005000035000000000000000000000000000000000000000000000000000000000000000000REP       REP Railroad Commissioner                               Sarah Stogner                         Precinct 309                                           01 
00120010005000032000003000005000024000000000000000000000000000000000000000000000000000000000000000000REP       REP Railroad Commissioner                               Sarah Stogner                         Precinct 311                                           01 
00120010006000039000001000009000029000000000000000000000000000000000000000000000000000000000000000000REP       REP Railroad Commissioner                               Sarah Stogner                         Precinct 416                                           01 
00120010007000055000008000025000022000000000000000000000000000000000000000000000000000000000000000000REP       REP Railroad Commissioner                               Sarah Stogner                         Precinct 119                                           01 
00120010008000082000003000015000064000000000000000000000000000000000000000000000000000000000000000000REP       REP Railroad Commissioner                               Sarah Stogner                         Precinct 223                                           01 
00120010009000061000005000012000044000000000000000000000000000000000000000000000000000000000000000000REP       REP Railroad Commissioner                               Sarah Stogner                         Precinct 329                                           01 
00120010010000075000015000006000054000000000000000000000000000000000000000000000000000000000000000000REP       REP Railroad Commissioner                               Sarah Stogner                         Precinct 430                                           01 
00120010011000113000012000053000048000000000000000000000000000000000000000000000000000000000000000000REP       REP Railroad Commissioner                               Sarah Stogner                         Precinct 231                                           01 
00120020001000149000018000080000051000000000000000000000000000000000000000000000000000000000000000000REP       REP Railroad Commissioner                               Wayne Christian                       Precinct 101                                           01 
00120020002000152000012000064000076000000000000000000000000000000000000000000000000000000000000000000REP       REP Railroad Commissioner                               Wayne Christian                       Precinct 102                                           01 
00120020003000122000008000039000075000000000000000000000000000000000000000000000000000000000000000000REP       REP Railroad Commissioner                               Wayne Christian                       Precinct 208                                           01 
00120020004000067000018000011000038000000000000000000000000000000000000000000000000000000000000000000REP       REP Railroad Commissioner                               Wayne Christian                       Precinct 309                                           01 
00120020005000065000011000014000040000000000000000000000000000000000000000000000000000000000000000000REP       REP Railroad Commissioner                               Wayne Christian                       Precinct 311                                           01 
00120020006000054000006000021000027000000000000000000000000000000000000000000000000000000000000000000REP       REP Railroad Commissioner                               Wayne Christian                       Precinct 416                                           01 
00120020007000092000009000043000040000000000000000000000000000000000000000000000000000000000000000000REP       REP Railroad Commissioner                               Wayne Christian                       Precinct 119                                           01 
00120020008000119000017000023000079000000000000000000000000000000000000000000000000000000000000000000REP       REP Railroad Commissioner                               Wayne Christian                       Precinct 223                                           01 
00120020009000094000017000022000055000000000000000000000000000000000000000000000000000000000000000000REP       REP Railroad Commissioner                               Wayne Christian                       Precinct 329                                           01 
00120020010000107000014000017000076000000000000000000000000000000000000000000000000000000000000000000REP       REP Railroad Commissioner                               Wayne Christian                       Precinct 430                                           01 
00120020011000157000021000065000071000000000000000000000000000000000000000000000000000000000000000000REP       REP Railroad Commissioner                               Wayne Christian                       Precinct 231                                           01 
00120030001000000000000000000000000000000000000000000000000000000000000000000000000000000000000000000          REP Railroad Commissioner                               OVER VOTES                            Precinct 101                                           01 
00120030002000000000000000000000000000000000000000000000000000000000000000000000000000000000000000000          REP Railroad Commissioner                               OVER VOTES                            Precinct 102                                           01 
00120030003000000000000000000000000000000000000000000000000000000000000000000000000000000000000000000          REP Railroad Commissioner                               OVER VOTES                            Precinct 208                                           01 
00120030004000000000000000000000000000000000000000000000000000000000000000000000000000000000000000000          REP Railroad Commissioner                               OVER VOTES                            Precinct 309                                           01 
00120030005000000000000000000000000000000000000000000000000000000000000000000000000000000000000000000          REP Railroad Commissioner                               OVER VOTES                            Precinct 311                                           01 
00120030006000000000000000000000000000000000000000000000000000000000000000000000000000000000000000000          REP Railroad Commissioner                               OVER VOTES                            Precinct 416                                           01 
00120030007000000000000000000000000000000000000000000000000000000000000000000000000000000000000000000          REP Railroad Commissioner                               OVER VOTES                            Precinct 119                                           01 
00120030008000000000000000000000000000000000000000000000000000000000000000000000000000000000000000000          REP Railroad Commissioner                               OVER VOTES                            Precinct 223                                           01 
00120030009000000000000000000000000000000000000000000000000000000000000000000000000000000000000000000          REP Railroad Commissioner                               OVER VOTES                            Precinct 329                                           01 
00120030010000000000000000000000000000000000000000000000000000000000000000000000000000000000000000000          REP Railroad Commissioner                               OVER VOTES                            Precinct 430                                           01 
00120030011000000000000000000000000000000000000000000000000000000000000000000000000000000000000000000          REP Railroad Commissioner                               OVER VOTES                            Precinct 231                                           01 
00120040001000047000004000024000019000000000000000000000000000000000000000000000000000000000000000000          REP Railroad Commissioner                               UNDER VOTES                           Precinct 101                                           01 
00120040002000041000003000026000012000000000000000000000000000000000000000000000000000000000000000000          REP Railroad Commissioner                               UNDER VOTES                           Precinct 102                                           01 
00120040003000030000001000017000012000000000000000000000000000000000000000000000000000000000000000000          REP Railroad Commissioner                               UNDER VOTES                           Precinct 208                                           01 
00120040004000008000001000001000006000000000000000000000000000000000000000000000000000000000000000000          REP Railroad Commissioner                               UNDER VOTES                           Precinct 309                                           01 
00120040005000004000000000003000001000000000000000000000000000000000000000000000000000000000000000000          REP Railroad Commissioner                               UNDER VOTES                           Precinct 311                                           01 
00120040006000005000001000001000003000000000000000000000000000000000000000000000000000000000000000000          REP Railroad Commissioner                               UNDER VOTES                           Precinct 416                                           01 
00120040007000016000002000008000006000000000000000000000000000000000000000000000000000000000000000000          REP Railroad Commissioner                               UNDER VOTES                           Precinct 119                                           01 
00120040008000030000003000002000025000000000000000000000000000000000000000000000000000000000000000000          REP Railroad Commissioner                               UNDER VOTES                           Precinct 223                                           01 
00120040009000011000000000001000010000000000000000000000000000000000000000000000000000000000000000000          REP Railroad Commissioner                               UNDER VOTES                           Precinct 329                                           01 
00120040010000014000003000001000010000000000000000000000000000000000000000000000000000000000000000000          REP Railroad Commissioner                               UNDER VOTES                           Precinct 430                                           01 
00120040011000027000002000014000011000000000000000000000000000000000000000000000000000000000000000000          REP Railroad Commissioner                               UNDER VOTES                           Precinct 231                                           01 
00130010003000117000009000037000071000000000000000000000000000000000000000000000000000000000000000000REPCOM1   REP County Commissioner Pct 2                           Steven Jurena                         Precinct 208                  Precinct No. 2           01 
00130010008000100000006000011000083000000000000000000000000000000000000000000000000000000000000000000REPCOM1   REP County Commissioner Pct 2                           Steven Jurena                         Precinct 223                  Precinct No. 2           01 
00130010011000117000015000043000059000000000000000000000000000000000000000000000000000000000000000000REPCOM1   REP County Commissioner Pct 2                           Steven Jurena                         Precinct 231                  Precinct No. 2           01 
00130020003000110000002000042000066000000000000000000000000000000000000000000000000000000000000000000REPCOM1   REP County Commissioner Pct 2                           Wayne Faircloth                       Precinct 208                  Precinct No. 2           01 
00130020008000122000015000027000080000000000000000000000000000000000000000000000000000000000000000000REPCOM1   REP County Commissioner Pct 2                           Wayne Faircloth                       Precinct 223                  Precinct No. 2           01 
00130020011000168000019000084000065000000000000000000000000000000000000000000000000000000000000000000REPCOM1   REP County Commissioner Pct 2                           Wayne Faircloth                       Precinct 231                  Precinct No. 2           01 
00130030003000000000000000000000000000000000000000000000000000000000000000000000000000000000000000000   COM1   REP County Commissioner Pct 2                           OVER VOTES                            Precinct 208                  Precinct No. 2           01 
00130030008000000000000000000000000000000000000000000000000000000000000000000000000000000000000000000   COM1   REP County Commissioner Pct 2                           OVER VOTES                            Precinct 223                  Precinct No. 2           01 
00130030011000000000000000000000000000000000000000000000000000000000000000000000000000000000000000000   COM1   REP County Commissioner Pct 2                           OVER VOTES                            Precinct 231                  Precinct No. 2           01 
00130040003000002000000000002000000000000000000000000000000000000000000000000000000000000000000000000   COM1   REP County Commissioner Pct 2                           UNDER VOTES                           Precinct 208                  Precinct No. 2           01 
00130040008000009000002000002000005000000000000000000000000000000000000000000000000000000000000000000   COM1   REP County Commissioner Pct 2                           UNDER VOTES                           Precinct 223                  Precinct No. 2           01 
00130040011000012000001000005000006000000000000000000000000000000000000000000000000000000000000000000   COM1   REP County Commissioner Pct 2                           UNDER VOTES                           Precinct 231                  Precinct No. 2           01 
00140010001000127000014000068000045000000000000000000000000000000000000000000000000000000000000000000REPJOP3   REP JOP Pct 1                                           Steven E. Greenwell                   Precinct 101                  Precinct No. 1           01 
00140010002000120000003000062000055000000000000000000000000000000000000000000000000000000000000000000REPJOP3   REP JOP Pct 1                                           Steven E. Greenwell                   Precinct 102                  Precinct No. 1           01 
00140010007000116000011000054000051000000000000000000000000000000000000000000000000000000000000000000REPJOP3   REP JOP Pct 1                                           Steven E. Greenwell                   Precinct 119                  Precinct No. 1           01 
00140020001000156000015000079000062000000000000000000000000000000000000000000000000000000000000000000REPJOP3   REP JOP Pct 1                                           James Whited                          Precinct 101                  Precinct No. 1           01 
00140020002000133000012000059000062000000000000000000000000000000000000000000000000000000000000000000REPJOP3   REP JOP Pct 1                                           James Whited                          Precinct 102                  Precinct No. 1           01 
00140020007000041000005000022000014000000000000000000000000000000000000000000000000000000000000000000REPJOP3   REP JOP Pct 1                                           James Whited                          Precinct 119                  Precinct No. 1           01 
00140030001000000000000000000000000000000000000000000000000000000000000000000000000000000000000000000   JOP3   REP JOP Pct 1                                           OVER VOTES                            Precinct 101                  Precinct No. 1           01 
00140030002000000000000000000000000000000000000000000000000000000000000000000000000000000000000000000   JOP3   REP JOP Pct 1                                           OVER VOTES                            Precinct 102                  Precinct No. 1           01 
00140030007000000000000000000000000000000000000000000000000000000000000000000000000000000000000000000   JOP3   REP JOP Pct 1                                           OVER VOTES                            Precinct 119                  Precinct No. 1           01 
00140040001000015000003000006000006000000000000000000000000000000000000000000000000000000000000000000   JOP3   REP JOP Pct 1                                           UNDER VOTES                           Precinct 101                  Precinct No. 1           01 
00140040002000012000000000003000009000000000000000000000000000000000000000000000000000000000000000000   JOP3   REP JOP Pct 1                                           UNDER VOTES                           Precinct 102                  Precinct No. 1           01 
00140040007000006000003000000000003000000000000000000000000000000000000000000000000000000000000000000   JOP3   REP JOP Pct 1                                           UNDER VOTES                           Precinct 119                  Precinct No. 1           01 
00150010001000030000008000014000008000000000000000000000000000000000000000000000000000000000000000000REPPCC7   REP Precinct Chair 101                                  Debbie Hopper                         Precinct 101                  101                      01 
00150020001000259000022000136000101000000000000000000000000000000000000000000000000000000000000000000REPPCC7   REP Precinct Chair 101                                  Carol Migl Rother                     Precinct 101                  101                      01 
00150030001000000000000000000000000000000000000000000000000000000000000000000000000000000000000000000   PCC7   REP Precinct Chair 101                                  OVER VOTES                            Precinct 101                  101                      01 
00150040001000009000002000003000004000000000000000000000000000000000000000000000000000000000000000000   PCC7   REP Precinct Chair 101                                  UNDER VOTES                           Precinct 101                  101                      01 
00160010002000069000012000029000028000000000000000000000000000000000000000000000000000000000000000000REPPCC8   REP Precinct Chair 102                                  Mary L Bright                         Precinct 102                  102                      01 
00160020002000165000003000083000079000000000000000000000000000000000000000000000000000000000000000000REPPCC8   REP Precinct Chair 102                                  Ann Miller                            Precinct 102                  102                      01 
00160030002000000000000000000000000000000000000000000000000000000000000000000000000000000000000000000   PCC8   REP Precinct Chair 102                                  OVER VOTES                            Precinct 102                  102                      01 
00160040002000031000000000012000019000000000000000000000000000000000000000000000000000000000000000000   PCC8   REP Precinct Chair 102                                  UNDER VOTES                           Precinct 102                  102                      01 
00170010007000021000003000010000008000000000000000000000000000000000000000000000000000000000000000000REPPCC9   REP Precinct Chair 119                                  Kristen McGaughey                     Precinct 119                  119                      01 
00170020007000023000001000018000004000000000000000000000000000000000000000000000000000000000000000000REPPCC9   REP Precinct Chair 119                                  Jerry Tanner                          Precinct 119                  119                      01 
00170030007000033000004000018000011000000000000000000000000000000000000000000000000000000000000000000REPPCC9   REP Precinct Chair 119                                  Thomas Foyt                           Precinct 119                  119                      01 
00170040007000071000006000027000038000000000000000000000000000000000000000000000000000000000000000000REPPCC9   REP Precinct Chair 119                                  Tammy Koerth                          Precinct 119                  119                      01 
00170050007000000000000000000000000000000000000000000000000000000000000000000000000000000000000000000   PCC9   REP Precinct Chair 119                                  OVER VOTES                            Precinct 119                  119                      01 
00170060007000015000005000003000007000000000000000000000000000000000000000000000000000000000000000000   PCC9   REP Precinct Chair 119                                  UNDER VOTES                           Precinct 119                  119                      01 
00180010003000172000009000059000104000000000000000000000000000000000000000000000000000000000000000000REPPCC10  REP Precinct Chair 208                                  David Halata Jr.                      Precinct 208                  208                      01 
00180020003000038000001000016000021000000000000000000000000000000000000000000000000000000000000000000REPPCC10  REP Precinct Chair 208                                  Paul Yamarick                         Precinct 208                  208                      01 
00180030003000000000000000000000000000000000000000000000000000000000000000000000000000000000000000000   PCC10  REP Precinct Chair 208                                  OVER VOTES                            Precinct 208                  208                      01 
00180040003000019000001000006000012000000000000000000000000000000000000000000000000000000000000000000   PCC10  REP Precinct Chair 208                                  UNDER VOTES                           Precinct 208                  208                      01 
00190010008000132000012000022000098000000000000000000000000000000000000000000000000000000000000000000REPPCC11  REP Precinct Chair 223                                  Donna Perez                           Precinct 223                  223                      01 
00190020008000086000007000015000064000000000000000000000000000000000000000000000000000000000000000000REPPCC11  REP Precinct Chair 223                                  John Cinadr                           Precinct 223                  223                      01 
00190030008000000000000000000000000000000000000000000000000000000000000000000000000000000000000000000   PCC11  REP Precinct Chair 223                                  OVER VOTES                            Precinct 223                  223                      01 
00190040008000013000004000003000006000000000000000000000000000000000000000000000000000000000000000000   PCC11  REP Precinct Chair 223                                  UNDER VOTES                           Precinct 223                  223                      01 
00200010011000175000017000080000078000000000000000000000000000000000000000000000000000000000000000000REPPCC12  REP Precinct Chair 231                                  Matthew A. Jirkovsky                  Precinct 231                  231                      01 
00200020011000088000014000036000038000000000000000000000000000000000000000000000000000000000000000000REPPCC12  REP Precinct Chair 231                                  Steve Lee                             Precinct 231                  231                      01 
00200030011000000000000000000000000000000000000000000000000000000000000000000000000000000000000000000   PCC12  REP Precinct Chair 231                                  OVER VOTES                            Precinct 231                  231                      01 
00200040011000034000004000016000014000000000000000000000000000000000000000000000000000000000000000000   PCC12  REP Precinct Chair 231                                  UNDER VOTES                           Precinct 231                  231                      01 
00210010005000067000008000013000046000000000000000000000000000000000000000000000000000000000000000000REPPCC13  REP Precinct Chair 311                                  Anthony Harper                        Precinct 311                  311                      01 
00210020005000025000002000008000015000000000000000000000000000000000000000000000000000000000000000000REPPCC13  REP Precinct Chair 311                                  Carroll Sharp                         Precinct 311                  311                      01 
00210030005000000000000000000000000000000000000000000000000000000000000000000000000000000000000000000   PCC13  REP Precinct Chair 311                                  OVER VOTES                            Precinct 311                  311                      01 
00210040005000009000004000001000004000000000000000000000000000000000000000000000000000000000000000000   PCC13  REP Precinct Chair 311                                  UNDER VOTES                           Precinct 311                  311                      01 
00220010009000097000012000020000065000000000000000000000000000000000000000000000000000000000000000000REPPCC14  REP Precinct Chair 329                                  Robert "Skeeter" Pustka               Precinct 329                  329                      01 
00220020009000026000007000006000013000000000000000000000000000000000000000000000000000000000000000000REPPCC14  REP Precinct Chair 329                                  Kathleen Leininger                    Precinct 329                  329                      01 
00220030009000034000003000005000026000000000000000000000000000000000000000000000000000000000000000000REPPCC14  REP Precinct Chair 329                                  Amy Bishop                            Precinct 329                  329                      01 
00220040009000000000000000000000000000000000000000000000000000000000000000000000000000000000000000000   PCC14  REP Precinct Chair 329                                  OVER VOTES                            Precinct 329                  329                      01 
00220050009000009000000000004000005000000000000000000000000000000000000000000000000000000000000000000   PCC14  REP Precinct Chair 329                                  UNDER VOTES                           Precinct 329                  329                      01 
00230010006000047000001000013000033000000000000000000000000000000000000000000000000000000000000000000REPPCC15  REP Precinct Chair 416                                  Robert Loudon                         Precinct 416                  416                      01 
00230020006000031000003000011000017000000000000000000000000000000000000000000000000000000000000000000REPPCC15  REP Precinct Chair 416                                  Judy Garmon                           Precinct 416                  416                      01 
00230030006000000000000000000000000000000000000000000000000000000000000000000000000000000000000000000   PCC15  REP Precinct Chair 416                                  OVER VOTES                            Precinct 416                  416                      01 
00230040006000020000004000007000009000000000000000000000000000000000000000000000000000000000000000000   PCC15  REP Precinct Chair 416                                  UNDER VOTES                           Precinct 416                  416                      01 
00240010010000094000009000015000070000000000000000000000000000000000000000000000000000000000000000000REPPCC16  REP Precinct Chair 430                                  Jordan Sluka                          Precinct 430                  430                      01 
00240020010000092000021000007000064000000000000000000000000000000000000000000000000000000000000000000REPPCC16  REP Precinct Chair 430                                  Tim Faulkner                          Precinct 430                  430                      01 
00240030010000000000000000000000000000000000000000000000000000000000000000000000000000000000000000000   PCC16  REP Precinct Chair 430                                  OVER VOTES                            Precinct 430                  430                      01 
00240040010000010000002000002000006000000000000000000000000000000000000000000000000000000000000000000   PCC16  REP Precinct Chair 430                                  UNDER VOTES                           Precinct 430                  430                      01 
00250010001000007000007000000000000000000000000000000000000000000000000000000000000000000000000000000DEM       DEM Lieutenant Governor                                 Mike Collier                          Precinct 101                                           01 
00250010002000009000008000001000000000000000000000000000000000000000000000000000000000000000000000000DEM       DEM Lieutenant Governor                                 Mike Collier                          Precinct 102                                           01 
00250010003000006000002000003000001000000000000000000000000000000000000000000000000000000000000000000DEM       DEM Lieutenant Governor                                 Mike Collier                          Precinct 208                                           01 
00250010004000013000012000001000000000000000000000000000000000000000000000000000000000000000000000000DEM       DEM Lieutenant Governor                                 Mike Collier                          Precinct 309                                           01 
00250010005000004000004000000000000000000000000000000000000000000000000000000000000000000000000000000DEM       DEM Lieutenant Governor                                 Mike Collier                          Precinct 311                                           01 
00250010006000001000001000000000000000000000000000000000000000000000000000000000000000000000000000000DEM       DEM Lieutenant Governor                                 Mike Collier                          Precinct 416                                           01 
00250010007000006000003000001000002000000000000000000000000000000000000000000000000000000000000000000DEM       DEM Lieutenant Governor                                 Mike Collier                          Precinct 119                                           01 
00250010008000011000009000000000002000000000000000000000000000000000000000000000000000000000000000000DEM       DEM Lieutenant Governor                                 Mike Collier                          Precinct 223                                           01 
00250010009000015000012000002000001000000000000000000000000000000000000000000000000000000000000000000DEM       DEM Lieutenant Governor                                 Mike Collier                          Precinct 329                                           01 
00250010010000006000003000000000003000000000000000000000000000000000000000000000000000000000000000000DEM       DEM Lieutenant Governor                                 Mike Collier                          Precinct 430                                           01 
00250010011000013000009000003000001000000000000000000000000000000000000000000000000000000000000000000DEM       DEM Lieutenant Governor                                 Mike Collier                          Precinct 231                                           01 
00250020001000000000000000000000000000000000000000000000000000000000000000000000000000000000000000000DEM       DEM Lieutenant Governor                                 Michelle Beckley                      Precinct 101                                           01 
00250020002000011000006000005000000000000000000000000000000000000000000000000000000000000000000000000DEM       DEM Lieutenant Governor                                 Michelle Beckley                      Precinct 102                                           01 
00250020003000000000000000000000000000000000000000000000000000000000000000000000000000000000000000000DEM       DEM Lieutenant Governor                                 Michelle Beckley                      Precinct 208                                           01 
00250020004000005000003000001000001000000000000000000000000000000000000000000000000000000000000000000DEM       DEM Lieutenant Governor                                 Michelle Beckley                      Precinct 309                                           01 
00250020005000002000002000000000000000000000000000000000000000000000000000000000000000000000000000000DEM       DEM Lieutenant Governor                                 Michelle Beckley                      Precinct 311                                           01 
00250020006000000000000000000000000000000000000000000000000000000000000000000000000000000000000000000DEM       DEM Lieutenant Governor                                 Michelle Beckley                      Precinct 416                                           01 
00250020007000001000001000000000000000000000000000000000000000000000000000000000000000000000000000000DEM       DEM Lieutenant Governor                                 Michelle Beckley                      Precinct 119                                           01 
00250020008000001000000000000000001000000000000000000000000000000000000000000000000000000000000000000DEM       DEM Lieutenant Governor                                 Michelle Beckley                      Precinct 223                                           01 
00250020009000006000005000001000000000000000000000000000000000000000000000000000000000000000000000000DEM       DEM Lieutenant Governor                                 Michelle Beckley                      Precinct 329                                           01 
00250020010000007000001000001000005000000000000000000000000000000000000000000000000000000000000000000DEM       DEM Lieutenant Governor                                 Michelle Beckley                      Precinct 430                                           01 
00250020011000012000007000003000002000000000000000000000000000000000000000000000000000000000000000000DEM       DEM Lieutenant Governor                                 Michelle Beckley                      Precinct 231                                           01 
00250030001000000000000000000000000000000000000000000000000000000000000000000000000000000000000000000          DEM Lieutenant Governor                                 OVER VOTES                            Precinct 101                                           01 
00250030002000000000000000000000000000000000000000000000000000000000000000000000000000000000000000000          DEM Lieutenant Governor                                 OVER VOTES                            Precinct 102                                           01 
00250030003000000000000000000000000000000000000000000000000000000000000000000000000000000000000000000          DEM Lieutenant Governor                                 OVER VOTES                            Precinct 208                                           01 
00250030004000000000000000000000000000000000000000000000000000000000000000000000000000000000000000000          DEM Lieutenant Governor                                 OVER VOTES                            Precinct 309                                           01 
00250030005000000000000000000000000000000000000000000000000000000000000000000000000000000000000000000          DEM Lieutenant Governor                                 OVER VOTES                            Precinct 311                                           01 
00250030006000000000000000000000000000000000000000000000000000000000000000000000000000000000000000000          DEM Lieutenant Governor                                 OVER VOTES                            Precinct 416                                           01 
00250030007000000000000000000000000000000000000000000000000000000000000000000000000000000000000000000          DEM Lieutenant Governor                                 OVER VOTES                            Precinct 119                                           01 
00250030008000000000000000000000000000000000000000000000000000000000000000000000000000000000000000000          DEM Lieutenant Governor                                 OVER VOTES                            Precinct 223                                           01 
00250030009000000000000000000000000000000000000000000000000000000000000000000000000000000000000000000          DEM Lieutenant Governor                                 OVER VOTES                            Precinct 329                                           01 
00250030010000000000000000000000000000000000000000000000000000000000000000000000000000000000000000000          DEM Lieutenant Governor                                 OVER VOTES                            Precinct 430                                           01 
00250030011000000000000000000000000000000000000000000000000000000000000000000000000000000000000000000          DEM Lieutenant Governor                                 OVER VOTES                            Precinct 231                                           01 
00250040001000001000001000000000000000000000000000000000000000000000000000000000000000000000000000000          DEM Lieutenant Governor                                 UNDER VOTES                           Precinct 101                                           01 
00250040002000001000000000000000001000000000000000000000000000000000000000000000000000000000000000000          DEM Lieutenant Governor                                 UNDER VOTES                           Precinct 102                                           01 
00250040003000000000000000000000000000000000000000000000000000000000000000000000000000000000000000000          DEM Lieutenant Governor                                 UNDER VOTES                           Precinct 208                                           01 
00250040004000000000000000000000000000000000000000000000000000000000000000000000000000000000000000000          DEM Lieutenant Governor                                 UNDER VOTES                           Precinct 309                                           01 
00250040005000000000000000000000000000000000000000000000000000000000000000000000000000000000000000000          DEM Lieutenant Governor                                 UNDER VOTES                           Precinct 311                                           01 
00250040006000000000000000000000000000000000000000000000000000000000000000000000000000000000000000000          DEM Lieutenant Governor                                 UNDER VOTES                           Precinct 416                                           01 
00250040007000000000000000000000000000000000000000000000000000000000000000000000000000000000000000000          DEM Lieutenant Governor                                 UNDER VOTES                           Precinct 119                                           01 
00250040008000001000000000000000001000000000000000000000000000000000000000000000000000000000000000000          DEM Lieutenant Governor                                 UNDER VOTES                           Precinct 223                                           01 
00250040009000000000000000000000000000000000000000000000000000000000000000000000000000000000000000000          DEM Lieutenant Governor                                 UNDER VOTES                           Precinct 329                                           01 
00250040010000000000000000000000000000000000000000000000000000000000000000000000000000000000000000000          DEM Lieutenant Governor                                 UNDER VOTES                           Precinct 430                                           01 
00250040011000001000000000000000001000000000000000000000000000000000000000000000000000000000000000000          DEM Lieutenant Governor                                 UNDER VOTES                           Precinct 231                                           01 
00260010001000001000001000000000000000000000000000000000000000000000000000000000000000000000000000000DEM       DEM Attorney General                                    Rochelle Mercedes Garza               Precinct 101                                           01 
00260010002000011000005000005000001000000000000000000000000000000000000000000000000000000000000000000DEM       DEM Attorney General                                    Rochelle Mercedes Garza               Precinct 102                                           01 
00260010003000003000001000002000000000000000000000000000000000000000000000000000000000000000000000000DEM       DEM Attorney General                                    Rochelle Mercedes Garza               Precinct 208                                           01 
00260010004000008000005000002000001000000000000000000000000000000000000000000000000000000000000000000DEM       DEM Attorney General                                    Rochelle Mercedes Garza               Precinct 309                                           01 
00260010005000000000000000000000000000000000000000000000000000000000000000000000000000000000000000000DEM       DEM Attorney General                                    Rochelle Mercedes Garza               Precinct 311                                           01 
00260010006000000000000000000000000000000000000000000000000000000000000000000000000000000000000000000DEM       DEM Attorney General                                    Rochelle Mercedes Garza               Precinct 416                                           01 
00260010007000001000000000000000001000000000000000000000000000000000000000000000000000000000000000000DEM       DEM Attorney General                                    Rochelle Mercedes Garza               Precinct 119                                           01 
00260010008000006000004000000000002000000000000000000000000000000000000000000000000000000000000000000DEM       DEM Attorney General                                    Rochelle Mercedes Garza               Precinct 223                                           01 
00260010009000007000006000000000001000000000000000000000000000000000000000000000000000000000000000000DEM       DEM Attorney General                                    Rochelle Mercedes Garza               Precinct 329                                           01 
00260010010000009000002000001000006000000000000000000000000000000000000000000000000000000000000000000DEM       DEM Attorney General                                    Rochelle Mercedes Garza               Precinct 430                                           01 
00260010011000009000004000002000003000000000000000000000000000000000000000000000000000000000000000000DEM       DEM Attorney General                                    Rochelle Mercedes Garza               Precinct 231                                           01 
00260020001000007000007000000000000000000000000000000000000000000000000000000000000000000000000000000DEM       DEM Attorney General                                    Joe Jaworski                          Precinct 101                                           01 
00260020002000010000009000001000000000000000000000000000000000000000000000000000000000000000000000000DEM       DEM Attorney General                                    Joe Jaworski                          Precinct 102                                           01 
00260020003000003000001000001000001000000000000000000000000000000000000000000000000000000000000000000DEM       DEM Attorney General                                    Joe Jaworski                          Precinct 208                                           01 
00260020004000010000010000000000000000000000000000000000000000000000000000000000000000000000000000000DEM       DEM Attorney General                                    Joe Jaworski                          Precinct 309                                           01 
00260020005000006000006000000000000000000000000000000000000000000000000000000000000000000000000000000DEM       DEM Attorney General                                    Joe Jaworski                          Precinct 311                                           01 
00260020006000001000001000000000000000000000000000000000000000000000000000000000000000000000000000000DEM       DEM Attorney General                                    Joe Jaworski                          Precinct 416                                           01 
00260020007000006000004000001000001000000000000000000000000000000000000000000000000000000000000000000DEM       DEM Attorney General                                    Joe Jaworski                          Precinct 119                                           01 
00260020008000007000005000000000002000000000000000000000000000000000000000000000000000000000000000000DEM       DEM Attorney General                                    Joe Jaworski                          Precinct 223                                           01 
00260020009000014000011000003000000000000000000000000000000000000000000000000000000000000000000000000DEM       DEM Attorney General                                    Joe Jaworski                          Precinct 329                                           01 
00260020010000004000002000000000002000000000000000000000000000000000000000000000000000000000000000000DEM       DEM Attorney General                                    Joe Jaworski                          Precinct 430                                           01 
00260020011000016000012000004000000000000000000000000000000000000000000000000000000000000000000000000DEM       DEM Attorney General                                    Joe Jaworski                          Precinct 231                                           01 
00260030001000000000000000000000000000000000000000000000000000000000000000000000000000000000000000000          DEM Attorney General                                    OVER VOTES                            Precinct 101                                           01 
00260030002000000000000000000000000000000000000000000000000000000000000000000000000000000000000000000          DEM Attorney General                                    OVER VOTES                            Precinct 102                                           01 
00260030003000000000000000000000000000000000000000000000000000000000000000000000000000000000000000000          DEM Attorney General                                    OVER VOTES                            Precinct 208                                           01 
00260030004000000000000000000000000000000000000000000000000000000000000000000000000000000000000000000          DEM Attorney General                                    OVER VOTES                            Precinct 309                                           01 
00260030005000000000000000000000000000000000000000000000000000000000000000000000000000000000000000000          DEM Attorney General                                    OVER VOTES                            Precinct 311                                           01 
00260030006000000000000000000000000000000000000000000000000000000000000000000000000000000000000000000          DEM Attorney General                                    OVER VOTES                            Precinct 416                                           01 
00260030007000000000000000000000000000000000000000000000000000000000000000000000000000000000000000000          DEM Attorney General                                    OVER VOTES                            Precinct 119                                           01 
00260030008000000000000000000000000000000000000000000000000000000000000000000000000000000000000000000          DEM Attorney General                                    OVER VOTES                            Precinct 223                                           01 
00260030009000000000000000000000000000000000000000000000000000000000000000000000000000000000000000000          DEM Attorney General                                    OVER VOTES                            Precinct 329                                           01 
00260030010000000000000000000000000000000000000000000000000000000000000000000000000000000000000000000          DEM Attorney General                                    OVER VOTES                            Precinct 430                                           01 
00260030011000000000000000000000000000000000000000000000000000000000000000000000000000000000000000000          DEM Attorney General                                    OVER VOTES                            Precinct 231                                           01 
00260040001000000000000000000000000000000000000000000000000000000000000000000000000000000000000000000          DEM Attorney General                                    UNDER VOTES                           Precinct 101                                           01 
00260040002000000000000000000000000000000000000000000000000000000000000000000000000000000000000000000          DEM Attorney General                                    UNDER VOTES                           Precinct 102                                           01 
