01010010001001758000000000000000000000000000000          REGISTERED VOTERS - TOTAL                               REGISTERED VOTERS - TOTAL             Precinct 1                                             00 
01010010002000378000000000000000000000000000000          REGISTERED VOTERS - TOTAL                               REGISTERED VOTERS - TOTAL             Precinct 2                                             00 
01010010003000630000000000000000000000000000000          REGISTERED VOTERS - TOTAL                               REGISTERED VOTERS - TOTAL             Precinct 3                                             00 
01010010004000970000000000000000000000000000000          REGISTERED VOTERS - TOTAL                               REGISTERED VOTERS - TOTAL             Precinct 4                                             00 
01010010005000572000000000000000000000000000000          REGISTERED VOTERS - TOTAL                               REGISTERED VOTERS - TOTAL             Precinct 5                                             00 
01010010006001108000000000000000000000000000000          REGISTERED VOTERS - TOTAL                               REGISTERED VOTERS - TOTAL             Precinct 6                                             00 
01010010007000620000000000000000000000000000000          REGISTERED VOTERS - TOTAL                               REGISTERED VOTERS - TOTAL             Precinct 7                                             00 
01010010008001139000000000000000000000000000000          REGISTERED VOTERS - TOTAL                               REGISTERED VOTERS - TOTAL             Precinct 8                                             00 
01010010009000451000000000000000000000000000000          REGISTERED VOTERS - TOTAL                               REGISTERED VOTERS - TOTAL             Precinct 9                                             00 
01010010010001123000000000000000000000000000000          REGISTERED VOTERS - TOTAL                               REGISTERED VOTERS - TOTAL             Precinct 10                                            00 
01010010011001069000000000000000000000000000000          REGISTERED VOTERS - TOTAL                               REGISTERED VOTERS - TOTAL             Precinct 11                                            00 
01010010012000856000000000000000000000000000000          REGISTERED VOTERS - TOTAL                               REGISTERED VOTERS - TOTAL             Precinct 12                                            00 
01010010013000863000000000000000000000000000000          REGISTERED VOTERS - TOTAL                               REGISTERED VOTERS - TOTAL             Precinct 13                                            00 
01010010014000265000000000000000000000000000000          REGISTERED VOTERS - TOTAL                               REGISTERED VOTERS - TOTAL             Precinct 14                                            00 
01020010001000367000034000165000000000168000000          BALLOTS CAST - TOTAL                                    BALLOTS CAST - TOTAL                  Precinct 1                                             00 
01020010002000070000004000028000000000038000000          BALLOTS CAST - TOTAL                                    BALLOTS CAST - TOTAL                  Precinct 2                                             00 
01020010003000113000005000043000000000065000000          BALLOTS CAST - TOTAL                                    BALLOTS CAST - TOTAL                  Precinct 3                                             00 
01020010004000142000009000012000000000121000000          BALLOTS CAST - TOTAL                                    BALLOTS CAST - TOTAL                  Precinct 4                                             00 
01020010005000137000014000033000000000090000000          BALLOTS CAST - TOTAL                                    BALLOTS CAST - TOTAL                  Precinct 5                                             00 
01020010006000327000023000021000000000283000000          BALLOTS CAST - TOTAL                                    BALLOTS CAST - TOTAL                  Precinct 6                                             00 
01020010007000184000011000026000000000147000000          BALLOTS CAST - TOTAL                                    BALLOTS CAST - TOTAL                  Precinct 7                                             00 
01020010008000126000015000025000000000086000000          BALLOTS CAST - TOTAL                                    BALLOTS CAST - TOTAL                  Precinct 8                                             00 
01020010009000034000005000006000000000023000000          BALLOTS CAST - TOTAL                                    BALLOTS CAST - TOTAL                  Precinct 9                                             00 
01020010010000114000010000023000000000081000000          BALLOTS CAST - TOTAL                                    BALLOTS CAST - TOTAL                  Precinct 10                                            00 
01020010011000099000012000010000000000077000000          BALLOTS CAST - TOTAL                                    BALLOTS CAST - TOTAL                  Precinct 11                                            00 
01020010012000101000016000002000000000083000000          BALLOTS CAST - TOTAL                                    BALLOTS CAST - TOTAL                  Precinct 12                                            00 
01020010013000135000014000047000000000074000000          BALLOTS CAST - TOTAL                                    BALLOTS CAST - TOTAL                  Precinct 13                                            00 
01020010014000046000015000017000000000014000000          BALLOTS CAST - TOTAL                                    BALLOTS CAST - TOTAL                  Precinct 14                                            00 
01030010001000337000026000154000000000157000000REP       BALLOTS CAST - REPUBLICAN PARTY                         BALLOTS CAST - REPUBLICAN PARTY       Precinct 1                                             00 
01030010002000069000004000027000000000038000000REP       BALLOTS CAST - REPUBLICAN PARTY                         BALLOTS CAST - REPUBLICAN PARTY       Precinct 2                                             00 
01030010003000112000005000042000000000065000000REP       BALLOTS CAST - REPUBLICAN PARTY                         BALLOTS CAST - REPUBLICAN PARTY       Precinct 3                                             00 
01030010004000131000008000009000000000114000000REP       BALLOTS CAST - REPUBLICAN PARTY                         BALLOTS CAST - REPUBLICAN PARTY       Precinct 4                                             00 
01030010005000132000013000031000000000088000000REP       BALLOTS CAST - REPUBLICAN PARTY                         BALLOTS CAST - REPUBLICAN PARTY       Precinct 5                                             00 
01030010006000319000020000019000000000280000000REP       BALLOTS CAST - REPUBLICAN PARTY                         BALLOTS CAST - REPUBLICAN PARTY       Precinct 6                                             00 
01030010007000180000008000026000000000146000000REP       BALLOTS CAST - REPUBLICAN PARTY                         BALLOTS CAST - REPUBLICAN PARTY       Precinct 7                                             00 
01030010008000118000010000024000000000084000000REP       BALLOTS CAST - REPUBLICAN PARTY                         BALLOTS CAST - REPUBLICAN PARTY       Precinct 8                                             00 
01030010009000034000005000006000000000023000000REP       BALLOTS CAST - REPUBLICAN PARTY                         BALLOTS CAST - REPUBLICAN PARTY       Precinct 9                                             00 
01030010010000110000009000023000000000078000000REP       BALLOTS CAST - REPUBLICAN PARTY                         BALLOTS CAST - REPUBLICAN PARTY       Precinct 10                                            00 
01030010011000087000007000010000000000070000000REP       BALLOTS CAST - REPUBLICAN PARTY                         BALLOTS CAST - REPUBLICAN PARTY       Precinct 11                                            00 
01030010012000080000010000002000000000068000000REP       BALLOTS CAST - REPUBLICAN PARTY                         BALLOTS CAST - REPUBLICAN PARTY       Precinct 12                                            00 
01030010013000134000013000047000000000074000000REP       BALLOTS CAST - REPUBLICAN PARTY                         BALLOTS CAST - REPUBLICAN PARTY       Precinct 13                                            00 
01030010014000039000009000016000000000014000000REP       BALLOTS CAST - REPUBLICAN PARTY                         BALLOTS CAST - REPUBLICAN PARTY       Precinct 14                                            00 
01040010001000030000008000011000000000011000000DEM       BALLOTS CAST - DEMOCRATIC PARTY                         BALLOTS CAST - DEMOCRATIC PARTY       Precinct 1                                             00 
01040010002000001000000000001000000000000000000DEM       BALLOTS CAST - DEMOCRATIC PARTY                         BALLOTS CAST - DEMOCRATIC PARTY       Precinct 2                                             00 
01040010003000001000000000001000000000000000000DEM       BALLOTS CAST - DEMOCRATIC PARTY                         BALLOTS CAST - DEMOCRATIC PARTY       Precinct 3                                             00 
01040010004000011000001000003000000000007000000DEM       BALLOTS CAST - DEMOCRATIC PARTY                         BALLOTS CAST - DEMOCRATIC PARTY       Precinct 4                                             00 
01040010005000005000001000002000000000002000000DEM       BALLOTS CAST - DEMOCRATIC PARTY                         BALLOTS CAST - DEMOCRATIC PARTY       Precinct 5                                             00 
01040010006000008000003000002000000000003000000DEM       BALLOTS CAST - DEMOCRATIC PARTY                         BALLOTS CAST - DEMOCRATIC PARTY       Precinct 6                                             00 
01040010007000004000003000000000000000001000000DEM       BALLOTS CAST - DEMOCRATIC PARTY                         BALLOTS CAST - DEMOCRATIC PARTY       Precinct 7                                             00 
01040010008000008000005000001000000000002000000DEM       BALLOTS CAST - DEMOCRATIC PARTY                         BALLOTS CAST - DEMOCRATIC PARTY       Precinct 8                                             00 
01040010009000000000000000000000000000000000000DEM       BALLOTS CAST - DEMOCRATIC PARTY                         BALLOTS CAST - DEMOCRATIC PARTY       Precinct 9                                             00 
01040010010000004000001000000000000000003000000DEM       BALLOTS CAST - DEMOCRATIC PARTY                         BALLOTS CAST - DEMOCRATIC PARTY       Precinct 10                                            00 
01040010011000012000005000000000000000007000000DEM       BALLOTS CAST - DEMOCRATIC PARTY                         BALLOTS CAST - DEMOCRATIC PARTY       Precinct 11                                            00 
01040010012000021000006000000000000000015000000DEM       BALLOTS CAST - DEMOCRATIC PARTY                         BALLOTS CAST - DEMOCRATIC PARTY       Precinct 12                                            00 
01040010013000001000001000000000000000000000000DEM       BALLOTS CAST - DEMOCRATIC PARTY                         BALLOTS CAST - DEMOCRATIC PARTY       Precinct 13                                            00 
01040010014000007000006000001000000000000000000DEM       BALLOTS CAST - DEMOCRATIC PARTY                         BALLOTS CAST - DEMOCRATIC PARTY       Precinct 14                                            00 
01050010001000098000003000051000000000044000000REP       Attorney General                                        George P. Bush                        Precinct 1                                             01 
01050010002000032000001000011000000000020000000REP       Attorney General                                        George P. Bush                        Precinct 2                                             01 
01050010003000026000002000013000000000011000000REP       Attorney General                                        George P. Bush                        Precinct 3                                             01 
01050010004000039000003000001000000000035000000REP       Attorney General                                        George P. Bush                        Precinct 4                                             01 
01050010005000038000003000005000000000030000000REP       Attorney General                                        George P. Bush                        Precinct 5                                             01 
01050010006000115000009000004000000000102000000REP       Attorney General                                        George P. Bush                        Precinct 6                                             01 
01050010007000047000003000006000000000038000000REP       Attorney General                                        George P. Bush                        Precinct 7                                             01 
01050010008000024000003000003000000000018000000REP       Attorney General                                        George P. Bush                        Precinct 8                                             01 
01050010009000009000003000003000000000003000000REP       Attorney General                                        George P. Bush                        Precinct 9                                             01 
01050010010000027000002000006000000000019000000REP       Attorney General                                        George P. Bush                        Precinct 10                                            01 
01050010011000029000001000003000000000025000000REP       Attorney General                                        George P. Bush                        Precinct 11                                            01 
01050010012000025000004000000000000000021000000REP       Attorney General                                        George P. Bush                        Precinct 12                                            01 
01050010013000017000000000004000000000013000000REP       Attorney General                                        George P. Bush                        Precinct 13                                            01 
01050010014000008000001000005000000000002000000REP       Attorney General                                        George P. Bush                        Precinct 14                                            01 
01050020001000224000023000097000000000104000000REP       Attorney General                                        Ken Paxton                            Precinct 1                                             01 
01050020002000036000003000015000000000018000000REP       Attorney General                                        Ken Paxton                            Precinct 2                                             01 
01050020003000085000003000029000000000053000000REP       Attorney General                                        Ken Paxton                            Precinct 3                                             01 
01050020004000089000005000007000000000077000000REP       Attorney General                                        Ken Paxton                            Precinct 4                                             01 
01050020005000089000010000025000000000054000000REP       Attorney General                                        Ken Paxton                            Precinct 5                                             01 
01050020006000194000010000015000000000169000000REP       Attorney General                                        Ken Paxton                            Precinct 6                                             01 
01050020007000118000005000016000000000097000000REP       Attorney General                                        Ken Paxton                            Precinct 7                                             01 
01050020008000094000007000021000000000066000000REP       Attorney General                                        Ken Paxton                            Precinct 8                                             01 
01050020009000025000002000003000000000020000000REP       Attorney General                                        Ken Paxton                            Precinct 9                                             01 
01050020010000079000007000017000000000055000000REP       Attorney General                                        Ken Paxton                            Precinct 10                                            01 
01050020011000058000006000007000000000045000000REP       Attorney General                                        Ken Paxton                            Precinct 11                                            01 
01050020012000053000006000002000000000045000000REP       Attorney General                                        Ken Paxton                            Precinct 12                                            01 
01050020013000117000013000043000000000061000000REP       Attorney General                                        Ken Paxton                            Precinct 13                                            01 
01050020014000031000008000011000000000012000000REP       Attorney General                                        Ken Paxton                            Precinct 14                                            01 
01050030001000000000000000000000000000000000000REP       Attorney General                                        OVER VOTES                            Precinct 1                                             01 
01050030002000000000000000000000000000000000000REP       Attorney General                                        OVER VOTES                            Precinct 2                                             01 
01050030003000000000000000000000000000000000000REP       Attorney General                                        OVER VOTES                            Precinct 3                                             01 
01050030004000000000000000000000000000000000000REP       Attorney General                                        OVER VOTES                            Precinct 4                                             01 
01050030005000000000000000000000000000000000000REP       Attorney General                                        OVER VOTES                            Precinct 5                                             01 
01050030006000000000000000000000000000000000000REP       Attorney General                                        OVER VOTES                            Precinct 6                                             01 
01050030007000000000000000000000000000000000000REP       Attorney General                                        OVER VOTES                            Precinct 7                                             01 
01050030008000000000000000000000000000000000000REP       Attorney General                                        OVER VOTES                            Precinct 8                                             01 
01050030009000000000000000000000000000000000000REP       Attorney General                                        OVER VOTES                            Precinct 9                                             01 
01050030010000000000000000000000000000000000000REP       Attorney General                                        OVER VOTES                            Precinct 10                                            01 
01050030011000000000000000000000000000000000000REP       Attorney General                                        OVER VOTES                            Precinct 11                                            01 
01050030012000000000000000000000000000000000000REP       Attorney General                                        OVER VOTES                            Precinct 12                                            01 
01050030013000000000000000000000000000000000000REP       Attorney General                                        OVER VOTES                            Precinct 13                                            01 
01050030014000000000000000000000000000000000000REP       Attorney General                                        OVER VOTES                            Precinct 14                                            01 
01050040001000015000000000006000000000009000000REP       Attorney General                                        UNDER VOTES                           Precinct 1                                             01 
01050040002000001000000000001000000000000000000REP       Attorney General                                        UNDER VOTES                           Precinct 2                                             01 
01050040003000001000000000000000000000001000000REP       Attorney General                                        UNDER VOTES                           Precinct 3                                             01 
01050040004000003000000000001000000000002000000REP       Attorney General                                        UNDER VOTES                           Precinct 4                                             01 
01050040005000005000000000001000000000004000000REP       Attorney General                                        UNDER VOTES                           Precinct 5                                             01 
01050040006000010000001000000000000000009000000REP       Attorney General                                        UNDER VOTES                           Precinct 6                                             01 
01050040007000015000000000004000000000011000000REP       Attorney General                                        UNDER VOTES                           Precinct 7                                             01 
01050040008000000000000000000000000000000000000REP       Attorney General                                        UNDER VOTES                           Precinct 8                                             01 
01050040009000000000000000000000000000000000000REP       Attorney General                                        UNDER VOTES                           Precinct 9                                             01 
01050040010000004000000000000000000000004000000REP       Attorney General                                        UNDER VOTES                           Precinct 10                                            01 
01050040011000000000000000000000000000000000000REP       Attorney General                                        UNDER VOTES                           Precinct 11                                            01 
01050040012000002000000000000000000000002000000REP       Attorney General                                        UNDER VOTES                           Precinct 12                                            01 
01050040013000000000000000000000000000000000000REP       Attorney General                                        UNDER VOTES                           Precinct 13                                            01 
01050040014000000000000000000000000000000000000REP       Attorney General                                        UNDER VOTES                           Precinct 14                                            01 
01060010001000162000018000079000000000065000000REP       Commissioner of the General Land Office                 Dawn Buckingham                       Precinct 1                                             01 
01060010002000037000000000019000000000018000000REP       Commissioner of the General Land Office                 Dawn Buckingham                       Precinct 2                                             01 
01060010003000074000004000031000000000039000000REP       Commissioner of the General Land Office                 Dawn Buckingham                       Precinct 3                                             01 
01060010004000058000004000004000000000050000000REP       Commissioner of the General Land Office                 Dawn Buckingham                       Precinct 4                                             01 
01060010005000074000010000015000000000049000000REP       Commissioner of the General Land Office                 Dawn Buckingham                       Precinct 5                                             01 
01060010006000186000015000013000000000158000000REP       Commissioner of the General Land Office                 Dawn Buckingham                       Precinct 6                                             01 
01060010007000092000005000014000000000073000000REP       Commissioner of the General Land Office                 Dawn Buckingham                       Precinct 7                                             01 
01060010008000066000003000014000000000049000000REP       Commissioner of the General Land Office                 Dawn Buckingham                       Precinct 8                                             01 
01060010009000021000002000004000000000015000000REP       Commissioner of the General Land Office                 Dawn Buckingham                       Precinct 9                                             01 
01060010010000074000005000015000000000054000000REP       Commissioner of the General Land Office                 Dawn Buckingham                       Precinct 10                                            01 
01060010011000054000004000006000000000044000000REP       Commissioner of the General Land Office                 Dawn Buckingham                       Precinct 11                                            01 
01060010012000039000007000002000000000030000000REP       Commissioner of the General Land Office                 Dawn Buckingham                       Precinct 12                                            01 
01060010013000077000005000034000000000038000000REP       Commissioner of the General Land Office                 Dawn Buckingham                       Precinct 13                                            01 
01060010014000018000004000009000000000005000000REP       Commissioner of the General Land Office                 Dawn Buckingham                       Precinct 14                                            01 
01060020001000101000008000037000000000056000000REP       Commissioner of the General Land Office                 Tim Westley                           Precinct 1                                             01 
01060020002000023000002000007000000000014000000REP       Commissioner of the General Land Office                 Tim Westley                           Precinct 2                                             01 
01060020003000028000001000008000000000019000000REP       Commissioner of the General Land Office                 Tim Westley                           Precinct 3                                             01 
01060020004000053000002000003000000000048000000REP       Commissioner of the General Land Office                 Tim Westley                           Precinct 4                                             01 
01060020005000036000002000010000000000024000000REP       Commissioner of the General Land Office                 Tim Westley                           Precinct 5                                             01 
01060020006000086000004000005000000000077000000REP       Commissioner of the General Land Office                 Tim Westley                           Precinct 6                                             01 
01060020007000049000003000004000000000042000000REP       Commissioner of the General Land Office                 Tim Westley                           Precinct 7                                             01 
01060020008000043000004000007000000000032000000REP       Commissioner of the General Land Office                 Tim Westley                           Precinct 8                                             01 
01060020009000008000002000002000000000004000000REP       Commissioner of the General Land Office                 Tim Westley                           Precinct 9                                             01 
01060020010000027000001000006000000000020000000REP       Commissioner of the General Land Office                 Tim Westley                           Precinct 10                                            01 
01060020011000017000000000002000000000015000000REP       Commissioner of the General Land Office                 Tim Westley                           Precinct 11                                            01 
01060020012000029000000000000000000000029000000REP       Commissioner of the General Land Office                 Tim Westley                           Precinct 12                                            01 
01060020013000042000004000011000000000027000000REP       Commissioner of the General Land Office                 Tim Westley                           Precinct 13                                            01 
01060020014000014000003000005000000000006000000REP       Commissioner of the General Land Office                 Tim Westley                           Precinct 14                                            01 
01060030001000000000000000000000000000000000000REP       Commissioner of the General Land Office                 OVER VOTES                            Precinct 1                                             01 
01060030002000000000000000000000000000000000000REP       Commissioner of the General Land Office                 OVER VOTES                            Precinct 2                                             01 
01060030003000000000000000000000000000000000000REP       Commissioner of the General Land Office                 OVER VOTES                            Precinct 3                                             01 
01060030004000000000000000000000000000000000000REP       Commissioner of the General Land Office                 OVER VOTES                            Precinct 4                                             01 
01060030005000000000000000000000000000000000000REP       Commissioner of the General Land Office                 OVER VOTES                            Precinct 5                                             01 
01060030006000000000000000000000000000000000000REP       Commissioner of the General Land Office                 OVER VOTES                            Precinct 6                                             01 
01060030007000000000000000000000000000000000000REP       Commissioner of the General Land Office                 OVER VOTES                            Precinct 7                                             01 
01060030008000000000000000000000000000000000000REP       Commissioner of the General Land Office                 OVER VOTES                            Precinct 8                                             01 
01060030009000000000000000000000000000000000000REP       Commissioner of the General Land Office                 OVER VOTES                            Precinct 9                                             01 
01060030010000000000000000000000000000000000000REP       Commissioner of the General Land Office                 OVER VOTES                            Precinct 10                                            01 
01060030011000000000000000000000000000000000000REP       Commissioner of the General Land Office                 OVER VOTES                            Precinct 11                                            01 
01060030012000000000000000000000000000000000000REP       Commissioner of the General Land Office                 OVER VOTES                            Precinct 12                                            01 
01060030013000000000000000000000000000000000000REP       Commissioner of the General Land Office                 OVER VOTES                            Precinct 13                                            01 
01060030014000000000000000000000000000000000000REP       Commissioner of the General Land Office                 OVER VOTES                            Precinct 14                                            01 
01060040001000074000000000038000000000036000000REP       Commissioner of the General Land Office                 UNDER VOTES                           Precinct 1                                             01 
01060040002000009000002000001000000000006000000REP       Commissioner of the General Land Office                 UNDER VOTES                           Precinct 2                                             01 
01060040003000010000000000003000000000007000000REP       Commissioner of the General Land Office                 UNDER VOTES                           Precinct 3                                             01 
01060040004000020000002000002000000000016000000REP       Commissioner of the General Land Office                 UNDER VOTES                           Precinct 4                                             01 
01060040005000022000001000006000000000015000000REP       Commissioner of the General Land Office                 UNDER VOTES                           Precinct 5                                             01 
01060040006000047000001000001000000000045000000REP       Commissioner of the General Land Office                 UNDER VOTES                           Precinct 6                                             01 
01060040007000039000000000008000000000031000000REP       Commissioner of the General Land Office                 UNDER VOTES                           Precinct 7                                             01 
01060040008000009000003000003000000000003000000REP       Commissioner of the General Land Office                 UNDER VOTES                           Precinct 8                                             01 
01060040009000005000001000000000000000004000000REP       Commissioner of the General Land Office                 UNDER VOTES                           Precinct 9                                             01 
01060040010000009000003000002000000000004000000REP       Commissioner of the General Land Office                 UNDER VOTES                           Precinct 10                                            01 
01060040011000016000003000002000000000011000000REP       Commissioner of the General Land Office                 UNDER VOTES                           Precinct 11                                            01 
01060040012000012000003000000000000000009000000REP       Commissioner of the General Land Office                 UNDER VOTES                           Precinct 12                                            01 
01060040013000015000004000002000000000009000000REP       Commissioner of the General Land Office                 UNDER VOTES                           Precinct 13                                            01 
01060040014000007000002000002000000000003000000REP       Commissioner of the General Land Office                 UNDER VOTES                           Precinct 14                                            01 
01070010001000174000021000075000000000078000000REP       Railroad Commissioner                                   Wayne Christian                       Precinct 1                                             01 
01070010002000040000001000016000000000023000000REP       Railroad Commissioner                                   Wayne Christian                       Precinct 2                                             01 
01070010003000069000003000027000000000039000000REP       Railroad Commissioner                                   Wayne Christian                       Precinct 3                                             01 
01070010004000065000005000003000000000057000000REP       Railroad Commissioner                                   Wayne Christian                       Precinct 4                                             01 
01070010005000069000012000013000000000044000000REP       Railroad Commissioner                                   Wayne Christian                       Precinct 5                                             01 
01070010006000142000007000012000000000123000000REP       Railroad Commissioner                                   Wayne Christian                       Precinct 6                                             01 
01070010007000071000004000011000000000056000000REP       Railroad Commissioner                                   Wayne Christian                       Precinct 7                                             01 
01070010008000068000005000013000000000050000000REP       Railroad Commissioner                                   Wayne Christian                       Precinct 8                                             01 
01070010009000017000004000003000000000010000000REP       Railroad Commissioner                                   Wayne Christian                       Precinct 9                                             01 
01070010010000067000006000012000000000049000000REP       Railroad Commissioner                                   Wayne Christian                       Precinct 10                                            01 
01070010011000053000002000006000000000045000000REP       Railroad Commissioner                                   Wayne Christian                       Precinct 11                                            01 
01070010012000041000004000001000000000036000000REP       Railroad Commissioner                                   Wayne Christian                       Precinct 12                                            01 
01070010013000088000008000030000000000050000000REP       Railroad Commissioner                                   Wayne Christian                       Precinct 13                                            01 
01070010014000014000006000005000000000003000000REP       Railroad Commissioner                                   Wayne Christian                       Precinct 14                                            01 
01070020001000105000005000050000000000050000000REP       Railroad Commissioner                                   Sarah Stogner                         Precinct 1                                             01 
01070020002000019000001000010000000000008000000REP       Railroad Commissioner                                   Sarah Stogner                         Precinct 2                                             01 
01070020003000037000002000013000000000022000000REP       Railroad Commissioner                                   Sarah Stogner                         Precinct 3                                             01 
01070020004000052000000000004000000000048000000REP       Railroad Commissioner                                   Sarah Stogner                         Precinct 4                                             01 
01070020005000048000001000014000000000033000000REP       Railroad Commissioner                                   Sarah Stogner                         Precinct 5                                             01 
01070020006000142000011000007000000000124000000REP       Railroad Commissioner                                   Sarah Stogner                         Precinct 6                                             01 
01070020007000072000001000009000000000062000000REP       Railroad Commissioner                                   Sarah Stogner                         Precinct 7                                             01 
01070020008000041000002000010000000000029000000REP       Railroad Commissioner                                   Sarah Stogner                         Precinct 8                                             01 
01070020009000015000001000003000000000011000000REP       Railroad Commissioner                                   Sarah Stogner                         Precinct 9                                             01 
01070020010000031000000000009000000000022000000REP       Railroad Commissioner                                   Sarah Stogner                         Precinct 10                                            01 
01070020011000023000002000003000000000018000000REP       Railroad Commissioner                                   Sarah Stogner                         Precinct 11                                            01 
01070020012000031000003000001000000000027000000REP       Railroad Commissioner                                   Sarah Stogner                         Precinct 12                                            01 
01070020013000034000001000014000000000019000000REP       Railroad Commissioner                                   Sarah Stogner                         Precinct 13                                            01 
01070020014000022000002000010000000000010000000REP       Railroad Commissioner                                   Sarah Stogner                         Precinct 14                                            01 
01070030001000000000000000000000000000000000000REP       Railroad Commissioner                                   OVER VOTES                            Precinct 1                                             01 
01070030002000000000000000000000000000000000000REP       Railroad Commissioner                                   OVER VOTES                            Precinct 2                                             01 
01070030003000000000000000000000000000000000000REP       Railroad Commissioner                                   OVER VOTES                            Precinct 3                                             01 
01070030004000000000000000000000000000000000000REP       Railroad Commissioner                                   OVER VOTES                            Precinct 4                                             01 
01070030005000000000000000000000000000000000000REP       Railroad Commissioner                                   OVER VOTES                            Precinct 5                                             01 
01070030006000000000000000000000000000000000000REP       Railroad Commissioner                                   OVER VOTES                            Precinct 6                                             01 
01070030007000000000000000000000000000000000000REP       Railroad Commissioner                                   OVER VOTES                            Precinct 7                                             01 
01070030008000000000000000000000000000000000000REP       Railroad Commissioner                                   OVER VOTES                            Precinct 8                                             01 
01070030009000000000000000000000000000000000000REP       Railroad Commissioner                                   OVER VOTES                            Precinct 9                                             01 
01070030010000000000000000000000000000000000000REP       Railroad Commissioner                                   OVER VOTES                            Precinct 10                                            01 
01070030011000000000000000000000000000000000000REP       Railroad Commissioner                                   OVER VOTES                            Precinct 11                                            01 
01070030012000000000000000000000000000000000000REP       Railroad Commissioner                                   OVER VOTES                            Precinct 12                                            01 
01070030013000000000000000000000000000000000000REP       Railroad Commissioner                                   OVER VOTES                            Precinct 13                                            01 
01070030014000000000000000000000000000000000000REP       Railroad Commissioner                                   OVER VOTES                            Precinct 14                                            01 
01070040001000058000000000029000000000029000000REP       Railroad Commissioner                                   UNDER VOTES                           Precinct 1                                             01 
01070040002000010000002000001000000000007000000REP       Railroad Commissioner                                   UNDER VOTES                           Precinct 2                                             01 
01070040003000006000000000002000000000004000000REP       Railroad Commissioner                                   UNDER VOTES                           Precinct 3                                             01 
01070040004000014000003000002000000000009000000REP       Railroad Commissioner                                   UNDER VOTES                           Precinct 4                                             01 
01070040005000015000000000004000000000011000000REP       Railroad Commissioner                                   UNDER VOTES                           Precinct 5                                             01 
01070040006000035000002000000000000000033000000REP       Railroad Commissioner                                   UNDER VOTES                           Precinct 6                                             01 
01070040007000037000003000006000000000028000000REP       Railroad Commissioner                                   UNDER VOTES                           Precinct 7                                             01 
01070040008000009000003000001000000000005000000REP       Railroad Commissioner                                   UNDER VOTES                           Precinct 8                                             01 
01070040009000002000000000000000000000002000000REP       Railroad Commissioner                                   UNDER VOTES                           Precinct 9                                             01 
01070040010000012000003000002000000000007000000REP       Railroad Commissioner                                   UNDER VOTES                           Precinct 10                                            01 
01070040011000011000003000001000000000007000000REP       Railroad Commissioner                                   UNDER VOTES                           Precinct 11                                            01 
01070040012000008000003000000000000000005000000REP       Railroad Commissioner                                   UNDER VOTES                           Precinct 12                                            01 
01070040013000012000004000003000000000005000000REP       Railroad Commissioner                                   UNDER VOTES                           Precinct 13                                            01 
01070040014000003000001000001000000000001000000REP       Railroad Commissioner                                   UNDER VOTES                           Precinct 14                                            01 
01080010001000215000017000102000000000096000000REP       District Judge, 87th Judicial District                  Amy Thomas Ward                       Precinct 1                                             01 
01080010002000045000001000019000000000025000000REP       District Judge, 87th Judicial District                  Amy Thomas Ward                       Precinct 2                                             01 
01080010003000083000003000033000000000047000000REP       District Judge, 87th Judicial District                  Amy Thomas Ward                       Precinct 3                                             01 
01080010004000081000003000006000000000072000000REP       District Judge, 87th Judicial District                  Amy Thomas Ward                       Precinct 4                                             01 
01080010005000092000007000027000000000058000000REP       District Judge, 87th Judicial District                  Amy Thomas Ward                       Precinct 5                                             01 
01080010006000210000013000010000000000187000000REP       District Judge, 87th Judicial District                  Amy Thomas Ward                       Precinct 6                                             01 
01080010007000134000004000015000000000115000000REP       District Judge, 87th Judicial District                  Amy Thomas Ward                       Precinct 7                                             01 
01080010008000089000008000016000000000065000000REP       District Judge, 87th Judicial District                  Amy Thomas Ward                       Precinct 8                                             01 
01080010009000029000004000006000000000019000000REP       District Judge, 87th Judicial District                  Amy Thomas Ward                       Precinct 9                                             01 
01080010010000085000007000019000000000059000000REP       District Judge, 87th Judicial District                  Amy Thomas Ward                       Precinct 10                                            01 
01080010011000066000005000006000000000055000000REP       District Judge, 87th Judicial District                  Amy Thomas Ward                       Precinct 11                                            01 
01080010012000050000007000001000000000042000000REP       District Judge, 87th Judicial District                  Amy Thomas Ward                       Precinct 12                                            01 
01080010013000082000005000028000000000049000000REP       District Judge, 87th Judicial District                  Amy Thomas Ward                       Precinct 13                                            01 
01080010014000025000004000013000000000008000000REP       District Judge, 87th Judicial District                  Amy Thomas Ward                       Precinct 14                                            01 
01080020001000081000008000033000000000040000000REP       District Judge, 87th Judicial District                  Dan Scarbrough                        Precinct 1                                             01 
01080020002000020000002000007000000000011000000REP       District Judge, 87th Judicial District                  Dan Scarbrough                        Precinct 2                                             01 
01080020003000025000002000009000000000014000000REP       District Judge, 87th Judicial District                  Dan Scarbrough                        Precinct 3                                             01 
01080020004000034000003000002000000000029000000REP       District Judge, 87th Judicial District                  Dan Scarbrough                        Precinct 4                                             01 
01080020005000029000005000002000000000022000000REP       District Judge, 87th Judicial District                  Dan Scarbrough                        Precinct 5                                             01 
01080020006000086000006000008000000000072000000REP       District Judge, 87th Judicial District                  Dan Scarbrough                        Precinct 6                                             01 
01080020007000032000003000007000000000022000000REP       District Judge, 87th Judicial District                  Dan Scarbrough                        Precinct 7                                             01 
01080020008000026000002000008000000000016000000REP       District Judge, 87th Judicial District                  Dan Scarbrough                        Precinct 8                                             01 
01080020009000004000001000000000000000003000000REP       District Judge, 87th Judicial District                  Dan Scarbrough                        Precinct 9                                             01 
01080020010000021000002000004000000000015000000REP       District Judge, 87th Judicial District                  Dan Scarbrough                        Precinct 10                                            01 
01080020011000017000002000003000000000012000000REP       District Judge, 87th Judicial District                  Dan Scarbrough                        Precinct 11                                            01 
01080020012000030000003000001000000000026000000REP       District Judge, 87th Judicial District                  Dan Scarbrough                        Precinct 12                                            01 
01080020013000044000004000019000000000021000000REP       District Judge, 87th Judicial District                  Dan Scarbrough                        Precinct 13                                            01 
01080020014000011000004000002000000000005000000REP       District Judge, 87th Judicial District                  Dan Scarbrough                        Precinct 14                                            01 
01080030001000000000000000000000000000000000000REP       District Judge, 87th Judicial District                  OVER VOTES                            Precinct 1                                             01 
01080030002000000000000000000000000000000000000REP       District Judge, 87th Judicial District                  OVER VOTES                            Precinct 2                                             01 
01080030003000000000000000000000000000000000000REP       District Judge, 87th Judicial District                  OVER VOTES                            Precinct 3                                             01 
01080030004000000000000000000000000000000000000REP       District Judge, 87th Judicial District                  OVER VOTES                            Precinct 4                                             01 
01080030005000000000000000000000000000000000000REP       District Judge, 87th Judicial District                  OVER VOTES                            Precinct 5                                             01 
01080030006000000000000000000000000000000000000REP       District Judge, 87th Judicial District                  OVER VOTES                            Precinct 6                                             01 
01080030007000000000000000000000000000000000000REP       District Judge, 87th Judicial District                  OVER VOTES                            Precinct 7                                             01 
01080030008000000000000000000000000000000000000REP       District Judge, 87th Judicial District                  OVER VOTES                            Precinct 8                                             01 
01080030009000000000000000000000000000000000000REP       District Judge, 87th Judicial District                  OVER VOTES                            Precinct 9                                             01 
01080030010000000000000000000000000000000000000REP       District Judge, 87th Judicial District                  OVER VOTES                            Precinct 10                                            01 
01080030011000000000000000000000000000000000000REP       District Judge, 87th Judicial District                  OVER VOTES                            Precinct 11                                            01 
01080030012000000000000000000000000000000000000REP       District Judge, 87th Judicial District                  OVER VOTES                            Precinct 12                                            01 
01080030013000000000000000000000000000000000000REP       District Judge, 87th Judicial District                  OVER VOTES                            Precinct 13                                            01 
01080030014000000000000000000000000000000000000REP       District Judge, 87th Judicial District                  OVER VOTES                            Precinct 14                                            01 
01080040001000041000001000019000000000021000000REP       District Judge, 87th Judicial District                  UNDER VOTES                           Precinct 1                                             01 
01080040002000004000001000001000000000002000000REP       District Judge, 87th Judicial District                  UNDER VOTES                           Precinct 2                                             01 
01080040003000004000000000000000000000004000000REP       District Judge, 87th Judicial District                  UNDER VOTES                           Precinct 3                                             01 
01080040004000016000002000001000000000013000000REP       District Judge, 87th Judicial District                  UNDER VOTES                           Precinct 4                                             01 
01080040005000011000001000002000000000008000000REP       District Judge, 87th Judicial District                  UNDER VOTES                           Precinct 5                                             01 
01080040006000023000001000001000000000021000000REP       District Judge, 87th Judicial District                  UNDER VOTES                           Precinct 6                                             01 
01080040007000014000001000004000000000009000000REP       District Judge, 87th Judicial District                  UNDER VOTES                           Precinct 7                                             01 
01080040008000003000000000000000000000003000000REP       District Judge, 87th Judicial District                  UNDER VOTES                           Precinct 8                                             01 
01080040009000001000000000000000000000001000000REP       District Judge, 87th Judicial District                  UNDER VOTES                           Precinct 9                                             01 
01080040010000004000000000000000000000004000000REP       District Judge, 87th Judicial District                  UNDER VOTES                           Precinct 10                                            01 
01080040011000004000000000001000000000003000000REP       District Judge, 87th Judicial District                  UNDER VOTES                           Precinct 11                                            01 
01080040012000000000000000000000000000000000000REP       District Judge, 87th Judicial District                  UNDER VOTES                           Precinct 12                                            01 
01080040013000008000004000000000000000004000000REP       District Judge, 87th Judicial District                  UNDER VOTES                           Precinct 13                                            01 
01080040014000003000001000001000000000001000000REP       District Judge, 87th Judicial District                  UNDER VOTES                           Precinct 14                                            01 
01090010004000095000003000006000000000086000000REP       County Commissioner, Precinct 4                         (TJ) Thomas Jefferson Foley           Precinct 4                                             01 
01090010005000114000009000027000000000078000000REP       County Commissioner, Precinct 4                         (TJ) Thomas Jefferson Foley           Precinct 5                                             01 
01090010006000064000000000006000000000058000000REP       County Commissioner, Precinct 4                         (TJ) Thomas Jefferson Foley           Precinct 6                                             01 
01090010007000168000007000022000000000139000000REP       County Commissioner, Precinct 4                         (TJ) Thomas Jefferson Foley           Precinct 7                                             01 
01090020004000034000004000003000000000027000000REP       County Commissioner, Precinct 4                         Ronald Ryder                          Precinct 4                                             01 
01090020005000017000004000004000000000009000000REP       County Commissioner, Precinct 4                         Ronald Ryder                          Precinct 5                                             01 
01090020006000254000020000013000000000221000000REP       County Commissioner, Precinct 4                         Ronald Ryder                          Precinct 6                                             01 
01090020007000011000001000003000000000007000000REP       County Commissioner, Precinct 4                         Ronald Ryder                          Precinct 7                                             01 
01090030004000000000000000000000000000000000000REP       County Commissioner, Precinct 4                         OVER VOTES                            Precinct 4                                             01 
01090030005000000000000000000000000000000000000REP       County Commissioner, Precinct 4                         OVER VOTES                            Precinct 5                                             01 
01090030006000000000000000000000000000000000000REP       County Commissioner, Precinct 4                         OVER VOTES                            Precinct 6                                             01 
01090030007000000000000000000000000000000000000REP       County Commissioner, Precinct 4                         OVER VOTES                            Precinct 7                                             01 
01090040004000002000001000000000000000001000000REP       County Commissioner, Precinct 4                         UNDER VOTES                           Precinct 4                                             01 
01090040005000001000000000000000000000001000000REP       County Commissioner, Precinct 4                         UNDER VOTES                           Precinct 5                                             01 
01090040006000001000000000000000000000001000000REP       County Commissioner, Precinct 4                         UNDER VOTES                           Precinct 6                                             01 
01090040007000001000000000001000000000000000000REP       County Commissioner, Precinct 4                         UNDER VOTES                           Precinct 7                                             01 
01100010001000171000009000085000000000077000000REP       Justice of the Peace, Precinct 2                        Randee Doak                           Precinct 1                                             01 
01100010002000040000001000017000000000022000000REP       Justice of the Peace, Precinct 2                        Randee Doak                           Precinct 2                                             01 
01100010003000054000000000018000000000036000000REP       Justice of the Peace, Precinct 2                        Randee Doak                           Precinct 3                                             01 
01100010014000016000003000010000000000003000000REP       Justice of the Peace, Precinct 2                        Randee Doak                           Precinct 14                                            01 
01100020001000158000015000064000000000079000000REP       Justice of the Peace, Precinct 2                        Tommy Page                            Precinct 1                                             01 
01100020002000028000002000010000000000016000000REP       Justice of the Peace, Precinct 2                        Tommy Page                            Precinct 2                                             01 
01100020003000054000004000023000000000027000000REP       Justice of the Peace, Precinct 2                        Tommy Page                            Precinct 3                                             01 
01100020014000021000005000005000000000011000000REP       Justice of the Peace, Precinct 2                        Tommy Page                            Precinct 14                                            01 
01100030001000000000000000000000000000000000000REP       Justice of the Peace, Precinct 2                        OVER VOTES                            Precinct 1                                             01 
01100030002000000000000000000000000000000000000REP       Justice of the Peace, Precinct 2                        OVER VOTES                            Precinct 2                                             01 
01100030003000000000000000000000000000000000000REP       Justice of the Peace, Precinct 2                        OVER VOTES                            Precinct 3                                             01 
01100030014000000000000000000000000000000000000REP       Justice of the Peace, Precinct 2                        OVER VOTES                            Precinct 14                                            01 
01100040001000008000002000005000000000001000000REP       Justice of the Peace, Precinct 2                        UNDER VOTES                           Precinct 1                                             01 
01100040002000001000001000000000000000000000000REP       Justice of the Peace, Precinct 2                        UNDER VOTES                           Precinct 2                                             01 
01100040003000004000001000001000000000002000000REP       Justice of the Peace, Precinct 2                        UNDER VOTES                           Precinct 3                                             01 
01100040014000002000001000001000000000000000000REP       Justice of the Peace, Precinct 2                        UNDER VOTES                           Precinct 14                                            01 
01110010001000018000007000007000000000004000000DEM       Lieutenant Governor                                     Mike Collier                          Precinct 1                                             01 
01110010002000001000000000001000000000000000000DEM       Lieutenant Governor                                     Mike Collier                          Precinct 2                                             01 
01110010003000001000000000001000000000000000000DEM       Lieutenant Governor                                     Mike Collier                          Precinct 3                                             01 
01110010004000005000001000001000000000003000000DEM       Lieutenant Governor                                     Mike Collier                          Precinct 4                                             01 
01110010005000004000001000002000000000001000000DEM       Lieutenant Governor                                     Mike Collier                          Precinct 5                                             01 
01110010006000006000002000002000000000002000000DEM       Lieutenant Governor                                     Mike Collier                          Precinct 6                                             01 
01110010007000004000003000000000000000001000000DEM       Lieutenant Governor                                     Mike Collier                          Precinct 7                                             01 
01110010008000004000001000001000000000002000000DEM       Lieutenant Governor                                     Mike Collier                          Precinct 8                                             01 
01110010009000000000000000000000000000000000000DEM       Lieutenant Governor                                     Mike Collier                          Precinct 9                                             01 
01110010010000001000000000000000000000001000000DEM       Lieutenant Governor                                     Mike Collier                          Precinct 10                                            01 
01110010011000003000002000000000000000001000000DEM       Lieutenant Governor                                     Mike Collier                          Precinct 11                                            01 
01110010012000012000001000000000000000011000000DEM       Lieutenant Governor                                     Mike Collier                          Precinct 12                                            01 
01110010013000000000000000000000000000000000000DEM       Lieutenant Governor                                     Mike Collier                          Precinct 13                                            01 
01110010014000001000001000000000000000000000000DEM       Lieutenant Governor                                     Mike Collier                          Precinct 14                                            01 
01110020001000012000001000004000000000007000000DEM       Lieutenant Governor                                     Michelle Beckley                      Precinct 1                                             01 
01110020002000000000000000000000000000000000000DEM       Lieutenant Governor                                     Michelle Beckley                      Precinct 2                                             01 
01110020003000000000000000000000000000000000000DEM       Lieutenant Governor                                     Michelle Beckley                      Precinct 3                                             01 
01110020004000006000000000002000000000004000000DEM       Lieutenant Governor                                     Michelle Beckley                      Precinct 4                                             01 
01110020005000001000000000000000000000001000000DEM       Lieutenant Governor                                     Michelle Beckley                      Precinct 5                                             01 
01110020006000002000001000000000000000001000000DEM       Lieutenant Governor                                     Michelle Beckley                      Precinct 6                                             01 
01110020007000000000000000000000000000000000000DEM       Lieutenant Governor                                     Michelle Beckley                      Precinct 7                                             01 
01110020008000004000004000000000000000000000000DEM       Lieutenant Governor                                     Michelle Beckley                      Precinct 8                                             01 
01110020009000000000000000000000000000000000000DEM       Lieutenant Governor                                     Michelle Beckley                      Precinct 9                                             01 
01110020010000003000001000000000000000002000000DEM       Lieutenant Governor                                     Michelle Beckley                      Precinct 10                                            01 
01110020011000009000003000000000000000006000000DEM       Lieutenant Governor                                     Michelle Beckley                      Precinct 11                                            01 
01110020012000009000005000000000000000004000000DEM       Lieutenant Governor                                     Michelle Beckley                      Precinct 12                                            01 
01110020013000001000001000000000000000000000000DEM       Lieutenant Governor                                     Michelle Beckley                      Precinct 13                                            01 
01110020014000006000005000001000000000000000000DEM       Lieutenant Governor                                     Michelle Beckley                      Precinct 14                                            01 
01110030001000000000000000000000000000000000000DEM       Lieutenant Governor                                     OVER VOTES                            Precinct 1                                             01 
01110030002000000000000000000000000000000000000DEM       Lieutenant Governor                                     OVER VOTES                            Precinct 2                                             01 
01110030003000000000000000000000000000000000000DEM       Lieutenant Governor                                     OVER VOTES                            Precinct 3                                             01 
01110030004000000000000000000000000000000000000DEM       Lieutenant Governor                                     OVER VOTES                            Precinct 4                                             01 
01110030005000000000000000000000000000000000000DEM       Lieutenant Governor                                     OVER VOTES                            Precinct 5                                             01 
01110030006000000000000000000000000000000000000DEM       Lieutenant Governor                                     OVER VOTES                            Precinct 6                                             01 
01110030007000000000000000000000000000000000000DEM       Lieutenant Governor                                     OVER VOTES                            Precinct 7                                             01 
01110030008000000000000000000000000000000000000DEM       Lieutenant Governor                                     OVER VOTES                            Precinct 8                                             01 
01110030009000000000000000000000000000000000000DEM       Lieutenant Governor                                     OVER VOTES                            Precinct 9                                             01 
01110030010000000000000000000000000000000000000DEM       Lieutenant Governor                                     OVER VOTES                            Precinct 10                                            01 
01110030011000000000000000000000000000000000000DEM       Lieutenant Governor                                     OVER VOTES                            Precinct 11                                            01 
01110030012000000000000000000000000000000000000DEM       Lieutenant Governor                                     OVER VOTES                            Precinct 12                                            01 
01110030013000000000000000000000000000000000000DEM       Lieutenant Governor                                     OVER VOTES                            Precinct 13                                            01 
01110030014000000000000000000000000000000000000DEM       Lieutenant Governor                                     OVER VOTES                            Precinct 14                                            01 
01110040001000000000000000000000000000000000000DEM       Lieutenant Governor                                     UNDER VOTES                           Precinct 1                                             01 
01110040002000000000000000000000000000000000000DEM       Lieutenant Governor                                     UNDER VOTES                           Precinct 2                                             01 
01110040003000000000000000000000000000000000000DEM       Lieutenant Governor                                     UNDER VOTES                           Precinct 3                                             01 
01110040004000000000000000000000000000000000000DEM       Lieutenant Governor                                     UNDER VOTES                           Precinct 4                                             01 
01110040005000000000000000000000000000000000000DEM       Lieutenant Governor                                     UNDER VOTES                           Precinct 5                                             01 
01110040006000000000000000000000000000000000000DEM       Lieutenant Governor                                     UNDER VOTES                           Precinct 6                                             01 
01110040007000000000000000000000000000000000000DEM       Lieutenant Governor                                     UNDER VOTES                           Precinct 7                                             01 
01110040008000000000000000000000000000000000000DEM       Lieutenant Governor                                     UNDER VOTES                           Precinct 8                                             01 
01110040009000000000000000000000000000000000000DEM       Lieutenant Governor                                     UNDER VOTES                           Precinct 9                                             01 
01110040010000000000000000000000000000000000000DEM       Lieutenant Governor                                     UNDER VOTES                           Precinct 10                                            01 
01110040011000000000000000000000000000000000000DEM       Lieutenant Governor                                     UNDER VOTES                           Precinct 11                                            01 
01110040012000000000000000000000000000000000000DEM       Lieutenant Governor                                     UNDER VOTES                           Precinct 12                                            01 
01110040013000000000000000000000000000000000000DEM       Lieutenant Governor                                     UNDER VOTES                           Precinct 13                                            01 
01110040014000000000000000000000000000000000000DEM       Lieutenant Governor                                     UNDER VOTES                           Precinct 14                                            01 
01120010001000018000006000008000000000004000000DEM       Attorney General                                        Joe Jaworski                          Precinct 1                                             01 
01120010002000001000000000001000000000000000000DEM       Attorney General                                        Joe Jaworski                          Precinct 2                                             01 
01120010003000001000000000001000000000000000000DEM       Attorney General                                        Joe Jaworski                          Precinct 3                                             01 
01120010004000007000001000000000000000006000000DEM       Attorney General                                        Joe Jaworski                          Precinct 4                                             01 
01120010005000000000000000000000000000000000000DEM       Attorney General                                        Joe Jaworski                          Precinct 5                                             01 
01120010006000007000002000002000000000003000000DEM       Attorney General                                        Joe Jaworski                          Precinct 6                                             01 
01120010007000004000003000000000000000001000000DEM       Attorney General                                        Joe Jaworski                          Precinct 7                                             01 
01120010008000005000003000000000000000002000000DEM       Attorney General                                        Joe Jaworski                          Precinct 8                                             01 
01120010009000000000000000000000000000000000000DEM       Attorney General                                        Joe Jaworski                          Precinct 9                                             01 
01120010010000001000000000000000000000001000000DEM       Attorney General                                        Joe Jaworski                          Precinct 10                                            01 
01120010011000007000004000000000000000003000000DEM       Attorney General                                        Joe Jaworski                          Precinct 11                                            01 
01120010012000012000001000000000000000011000000DEM       Attorney General                                        Joe Jaworski                          Precinct 12                                            01 
01120010013000001000001000000000000000000000000DEM       Attorney General                                        Joe Jaworski                          Precinct 13                                            01 
01120010014000005000004000001000000000000000000DEM       Attorney General                                        Joe Jaworski                          Precinct 14                                            01 
01120020001000012000002000003000000000007000000DEM       Attorney General                                        Rochelle Mercedes Garza               Precinct 1                                             01 
01120020002000000000000000000000000000000000000DEM       Attorney General                                        Rochelle Mercedes Garza               Precinct 2                                             01 
01120020003000000000000000000000000000000000000DEM       Attorney General                                        Rochelle Mercedes Garza               Precinct 3                                             01 
01120020004000004000000000003000000000001000000DEM       Attorney General                                        Rochelle Mercedes Garza               Precinct 4                                             01 
01120020005000005000001000002000000000002000000DEM       Attorney General                                        Rochelle Mercedes Garza               Precinct 5                                             01 
01120020006000001000001000000000000000000000000DEM       Attorney General                                        Rochelle Mercedes Garza               Precinct 6                                             01 
01120020007000000000000000000000000000000000000DEM       Attorney General                                        Rochelle Mercedes Garza               Precinct 7                                             01 
01120020008000003000002000001000000000000000000DEM       Attorney General                                        Rochelle Mercedes Garza               Precinct 8                                             01 
01120020009000000000000000000000000000000000000DEM       Attorney General                                        Rochelle Mercedes Garza               Precinct 9                                             01 
01120020010000003000001000000000000000002000000DEM       Attorney General                                        Rochelle Mercedes Garza               Precinct 10                                            01 
01120020011000005000001000000000000000004000000DEM       Attorney General                                        Rochelle Mercedes Garza               Precinct 11                                            01 
01120020012000009000005000000000000000004000000DEM       Attorney General                                        Rochelle Mercedes Garza               Precinct 12                                            01 
01120020013000000000000000000000000000000000000DEM       Attorney General                                        Rochelle Mercedes Garza               Precinct 13                                            01 
01120020014000002000002000000000000000000000000DEM       Attorney General                                        Rochelle Mercedes Garza               Precinct 14                                            01 
01120030001000000000000000000000000000000000000DEM       Attorney General                                        OVER VOTES                            Precinct 1                                             01 
01120030002000000000000000000000000000000000000DEM       Attorney General                                        OVER VOTES                            Precinct 2                                             01 
01120030003000000000000000000000000000000000000DEM       Attorney General                                        OVER VOTES                            Precinct 3                                             01 
01120030004000000000000000000000000000000000000DEM       Attorney General                                        OVER VOTES                            Precinct 4                                             01 
01120030005000000000000000000000000000000000000DEM       Attorney General                                        OVER VOTES                            Precinct 5                                             01 
01120030006000000000000000000000000000000000000DEM       Attorney General                                        OVER VOTES                            Precinct 6                                             01 
01120030007000000000000000000000000000000000000DEM       Attorney General                                        OVER VOTES                            Precinct 7                                             01 
01120030008000000000000000000000000000000000000DEM       Attorney General                                        OVER VOTES                            Precinct 8                                             01 
01120030009000000000000000000000000000000000000DEM       Attorney General                                        OVER VOTES                            Precinct 9                                             01 
01120030010000000000000000000000000000000000000DEM       Attorney General                                        OVER VOTES                            Precinct 10                                            01 
01120030011000000000000000000000000000000000000DEM       Attorney General                                        OVER VOTES                            Precinct 11                                            01 
01120030012000000000000000000000000000000000000DEM       Attorney General                                        OVER VOTES                            Precinct 12                                            01 
01120030013000000000000000000000000000000000000DEM       Attorney General                                        OVER VOTES                            Precinct 13                                            01 
01120030014000000000000000000000000000000000000DEM       Attorney General                                        OVER VOTES                            Precinct 14                                            01 
01120040001000000000000000000000000000000000000DEM       Attorney General                                        UNDER VOTES                           Precinct 1                                             01 
01120040002000000000000000000000000000000000000DEM       Attorney General                                        UNDER VOTES                           Precinct 2                                             01 
01120040003000000000000000000000000000000000000DEM       Attorney General                                        UNDER VOTES                           Precinct 3                                             01 
01120040004000000000000000000000000000000000000DEM       Attorney General                                        UNDER VOTES                           Precinct 4                                             01 
01120040005000000000000000000000000000000000000DEM       Attorney General                                        UNDER VOTES                           Precinct 5                                             01 
01120040006000000000000000000000000000000000000DEM       Attorney General                                        UNDER VOTES                           Precinct 6                                             01 
01120040007000000000000000000000000000000000000DEM       Attorney General                                        UNDER VOTES                           Precinct 7                                             01 
01120040008000000000000000000000000000000000000DEM       Attorney General                                        UNDER VOTES                           Precinct 8                                             01 
01120040009000000000000000000000000000000000000DEM       Attorney General                                        UNDER VOTES                           Precinct 9                                             01 
01120040010000000000000000000000000000000000000DEM       Attorney General                                        UNDER VOTES                           Precinct 10                                            01 
01120040011000000000000000000000000000000000000DEM       Attorney General                                        UNDER VOTES                           Precinct 11                                            01 
01120040012000000000000000000000000000000000000DEM       Attorney General                                        UNDER VOTES                           Precinct 12                                            01 
01120040013000000000000000000000000000000000000DEM       Attorney General                                        UNDER VOTES                           Precinct 13                                            01 
01120040014000000000000000000000000000000000000DEM       Attorney General                                        UNDER VOTES                           Precinct 14                                            01 
01130010001000022000007000007000000000008000000DEM       Comptroller of Public Accounts                          Janet T. Dudding                      Precinct 1                                             01 
01130010002000000000000000000000000000000000000DEM       Comptroller of Public Accounts                          Janet T. Dudding                      Precinct 2                                             01 
01130010003000001000000000001000000000000000000DEM       Comptroller of Public Accounts                          Janet T. Dudding                      Precinct 3                                             01 
01130010004000008000001000000000000000007000000DEM       Comptroller of Public Accounts                          Janet T. Dudding                      Precinct 4                                             01 
01130010005000004000001000002000000000001000000DEM       Comptroller of Public Accounts                          Janet T. Dudding                      Precinct 5                                             01 
01130010006000008000003000002000000000003000000DEM       Comptroller of Public Accounts                          Janet T. Dudding                      Precinct 6                                             01 
01130010007000004000003000000000000000001000000DEM       Comptroller of Public Accounts                          Janet T. Dudding                      Precinct 7                                             01 
01130010008000005000002000001000000000002000000DEM       Comptroller of Public Accounts                          Janet T. Dudding                      Precinct 8                                             01 
01130010009000000000000000000000000000000000000DEM       Comptroller of Public Accounts                          Janet T. Dudding                      Precinct 9                                             01 
01130010010000000000000000000000000000000000000DEM       Comptroller of Public Accounts                          Janet T. Dudding                      Precinct 10                                            01 
01130010011000010000005000000000000000005000000DEM       Comptroller of Public Accounts                          Janet T. Dudding                      Precinct 11                                            01 
01130010012000010000002000000000000000008000000DEM       Comptroller of Public Accounts                          Janet T. Dudding                      Precinct 12                                            01 
01130010013000001000001000000000000000000000000DEM       Comptroller of Public Accounts                          Janet T. Dudding                      Precinct 13                                            01 
01130010014000004000003000001000000000000000000DEM       Comptroller of Public Accounts                          Janet T. Dudding                      Precinct 14                                            01 
01130020001000008000001000004000000000003000000DEM       Comptroller of Public Accounts                          Angel Luis Vega                       Precinct 1                                             01 
01130020002000001000000000001000000000000000000DEM       Comptroller of Public Accounts                          Angel Luis Vega                       Precinct 2                                             01 
01130020003000000000000000000000000000000000000DEM       Comptroller of Public Accounts                          Angel Luis Vega                       Precinct 3                                             01 
01130020004000003000000000003000000000000000000DEM       Comptroller of Public Accounts                          Angel Luis Vega                       Precinct 4                                             01 
01130020005000001000000000000000000000001000000DEM       Comptroller of Public Accounts                          Angel Luis Vega                       Precinct 5                                             01 
01130020006000000000000000000000000000000000000DEM       Comptroller of Public Accounts                          Angel Luis Vega                       Precinct 6                                             01 
01130020007000000000000000000000000000000000000DEM       Comptroller of Public Accounts                          Angel Luis Vega                       Precinct 7                                             01 
01130020008000003000003000000000000000000000000DEM       Comptroller of Public Accounts                          Angel Luis Vega                       Precinct 8                                             01 
01130020009000000000000000000000000000000000000DEM       Comptroller of Public Accounts                          Angel Luis Vega                       Precinct 9                                             01 
01130020010000004000001000000000000000003000000DEM       Comptroller of Public Accounts                          Angel Luis Vega                       Precinct 10                                            01 
01130020011000001000000000000000000000001000000DEM       Comptroller of Public Accounts                          Angel Luis Vega                       Precinct 11                                            01 
01130020012000009000003000000000000000006000000DEM       Comptroller of Public Accounts                          Angel Luis Vega                       Precinct 12                                            01 
01130020013000000000000000000000000000000000000DEM       Comptroller of Public Accounts                          Angel Luis Vega                       Precinct 13                                            01 
01130020014000003000003000000000000000000000000DEM       Comptroller of Public Accounts                          Angel Luis Vega                       Precinct 14                                            01 
01130030001000000000000000000000000000000000000DEM       Comptroller of Public Accounts                          OVER VOTES                            Precinct 1                                             01 
01130030002000000000000000000000000000000000000DEM       Comptroller of Public Accounts                          OVER VOTES                            Precinct 2                                             01 
01130030003000000000000000000000000000000000000DEM       Comptroller of Public Accounts                          OVER VOTES                            Precinct 3                                             01 
01130030004000000000000000000000000000000000000DEM       Comptroller of Public Accounts                          OVER VOTES                            Precinct 4                                             01 
01130030005000000000000000000000000000000000000DEM       Comptroller of Public Accounts                          OVER VOTES                            Precinct 5                                             01 
01130030006000000000000000000000000000000000000DEM       Comptroller of Public Accounts                          OVER VOTES                            Precinct 6                                             01 
01130030007000000000000000000000000000000000000DEM       Comptroller of Public Accounts                          OVER VOTES                            Precinct 7                                             01 
01130030008000000000000000000000000000000000000DEM       Comptroller of Public Accounts                          OVER VOTES                            Precinct 8                                             01 
01130030009000000000000000000000000000000000000DEM       Comptroller of Public Accounts                          OVER VOTES                            Precinct 9                                             01 
01130030010000000000000000000000000000000000000DEM       Comptroller of Public Accounts                          OVER VOTES                            Precinct 10                                            01 
01130030011000000000000000000000000000000000000DEM       Comptroller of Public Accounts                          OVER VOTES                            Precinct 11                                            01 
01130030012000000000000000000000000000000000000DEM       Comptroller of Public Accounts                          OVER VOTES                            Precinct 12                                            01 
01130030013000000000000000000000000000000000000DEM       Comptroller of Public Accounts                          OVER VOTES                            Precinct 13                                            01 
01130030014000000000000000000000000000000000000DEM       Comptroller of Public Accounts                          OVER VOTES                            Precinct 14                                            01 
01130040001000000000000000000000000000000000000DEM       Comptroller of Public Accounts                          UNDER VOTES                           Precinct 1                                             01 
01130040002000000000000000000000000000000000000DEM       Comptroller of Public Accounts                          UNDER VOTES                           Precinct 2                                             01 
01130040003000000000000000000000000000000000000DEM       Comptroller of Public Accounts                          UNDER VOTES                           Precinct 3                                             01 
01130040004000000000000000000000000000000000000DEM       Comptroller of Public Accounts                          UNDER VOTES                           Precinct 4                                             01 
01130040005000000000000000000000000000000000000DEM       Comptroller of Public Accounts                          UNDER VOTES                           Precinct 5                                             01 
01130040006000000000000000000000000000000000000DEM       Comptroller of Public Accounts                          UNDER VOTES                           Precinct 6                                             01 
01130040007000000000000000000000000000000000000DEM       Comptroller of Public Accounts                          UNDER VOTES                           Precinct 7                                             01 
