01010010001000000          REGISTERED VOTERS - TOTAL                               REGISTERED VOTERS - TOTAL             Precinct 101                                           00 
01010010002000000          REGISTERED VOTERS - TOTAL                               REGISTERED VOTERS - TOTAL             Precinct 102                                           00 
01010010003000000          REGISTERED VOTERS - TOTAL                               REGISTERED VOTERS - TOTAL             Precinct 103                                           00 
01010010004000000          REGISTERED VOTERS - TOTAL                               REGISTERED VOTERS - TOTAL             Precinct 104                                           00 
01010010005000000          REGISTERED VOTERS - TOTAL                               REGISTERED VOTERS - TOTAL             Precinct 201                                           00 
01010010006000000          REGISTERED VOTERS - TOTAL                               REGISTERED VOTERS - TOTAL             Precinct 202                                           00 
01010010007000000          REGISTERED VOTERS - TOTAL                               REGISTERED VOTERS - TOTAL             Precinct 203                                           00 
01010010008000000          REGISTERED VOTERS - TOTAL                               REGISTERED VOTERS - TOTAL             Precinct 204                                           00 
01010010009000000          REGISTERED VOTERS - TOTAL                               REGISTERED VOTERS - TOTAL             Precinct 205                                           00 
01010010010000000          REGISTERED VOTERS - TOTAL                               REGISTERED VOTERS - TOTAL             Precinct 206                                           00 
01010010011000000          REGISTERED VOTERS - TOTAL                               REGISTERED VOTERS - TOTAL             Precinct 301                                           00 
01010010012000000          REGISTERED VOTERS - TOTAL                               REGISTERED VOTERS - TOTAL             Precinct 302                                           00 
01010010013000000          REGISTERED VOTERS - TOTAL                               REGISTERED VOTERS - TOTAL             Precinct 303                                           00 
01010010014000000          REGISTERED VOTERS - TOTAL                               REGISTERED VOTERS - TOTAL             Precinct 304                                           00 
01010010015000000          REGISTERED VOTERS - TOTAL                               REGISTERED VOTERS - TOTAL             Precinct 305                                           00 
01010010016000000          REGISTERED VOTERS - TOTAL                               REGISTERED VOTERS - TOTAL             Precinct 401                                           00 
01010010017000000          REGISTERED VOTERS - TOTAL                               REGISTERED VOTERS - TOTAL             Precinct 402                                           00 
01010010018000000          REGISTERED VOTERS - TOTAL                               REGISTERED VOTERS - TOTAL             Precinct 403                                           00 
01010010019000000          REGISTERED VOTERS - TOTAL                               REGISTERED VOTERS - TOTAL             Precinct 404                                           00 
01010010020000000          REGISTERED VOTERS - TOTAL                               REGISTERED VOTERS - TOTAL             Precinct 405                                           00 
01010010021000000          REGISTERED VOTERS - TOTAL                               REGISTERED VOTERS - TOTAL             Precinct 406                                           00 
01020010001000189          BALLOTS CAST - TOTAL                                    BALLOTS CAST - TOTAL                  Precinct 101                                           00 
01020010002000085          BALLOTS CAST - TOTAL                                    BALLOTS CAST - TOTAL                  Precinct 102                                           00 
01020010003000092          BALLOTS CAST - TOTAL                                    BALLOTS CAST - TOTAL                  Precinct 103                                           00 
01020010004000113          BALLOTS CAST - TOTAL                                    BALLOTS CAST - TOTAL                  Precinct 104                                           00 
01020010005000093          BALLOTS CAST - TOTAL                                    BALLOTS CAST - TOTAL                  Precinct 201                                           00 
01020010006000086          BALLOTS CAST - TOTAL                                    BALLOTS CAST - TOTAL                  Precinct 202                                           00 
01020010007000020          BALLOTS CAST - TOTAL                                    BALLOTS CAST - TOTAL                  Precinct 203                                           00 
01020010008000069          BALLOTS CAST - TOTAL                                    BALLOTS CAST - TOTAL                  Precinct 204                                           00 
01020010009000106          BALLOTS CAST - TOTAL                                    BALLOTS CAST - TOTAL                  Precinct 205                                           00 
01020010010000128          BALLOTS CAST - TOTAL                                    BALLOTS CAST - TOTAL                  Precinct 206                                           00 
01020010011000151          BALLOTS CAST - TOTAL                                    BALLOTS CAST - TOTAL                  Precinct 301                                           00 
01020010012000062          BALLOTS CAST - TOTAL                                    BALLOTS CAST - TOTAL                  Precinct 302                                           00 
01020010013000019          BALLOTS CAST - TOTAL                                    BALLOTS CAST - TOTAL                  Precinct 303                                           00 
01020010014000120          BALLOTS CAST - TOTAL                                    BALLOTS CAST - TOTAL                  Precinct 304                                           00 
01020010015000069          BALLOTS CAST - TOTAL                                    BALLOTS CAST - TOTAL                  Precinct 305                                           00 
01020010016000158          BALLOTS CAST - TOTAL                                    BALLOTS CAST - TOTAL                  Precinct 401                                           00 
01020010017000058          BALLOTS CAST - TOTAL                                    BALLOTS CAST - TOTAL                  Precinct 402                                           00 
01020010018000045          BALLOTS CAST - TOTAL                                    BALLOTS CAST - TOTAL                  Precinct 403                                           00 
01020010019000064          BALLOTS CAST - TOTAL                                    BALLOTS CAST - TOTAL                  Precinct 404                                           00 
01020010020000051          BALLOTS CAST - TOTAL                                    BALLOTS CAST - TOTAL                  Precinct 405                                           00 
01020010021000031          BALLOTS CAST - TOTAL                                    BALLOTS CAST - TOTAL                  Precinct 406                                           00 
01030010001000176REP       BALLOTS CAST - REPUBLICAN PARTY                         BALLOTS CAST - REPUBLICAN PARTY       Precinct 101                                           00 
01030010002000082REP       BALLOTS CAST - REPUBLICAN PARTY                         BALLOTS CAST - REPUBLICAN PARTY       Precinct 102                                           00 
01030010003000085REP       BALLOTS CAST - REPUBLICAN PARTY                         BALLOTS CAST - REPUBLICAN PARTY       Precinct 103                                           00 
01030010004000097REP       BALLOTS CAST - REPUBLICAN PARTY                         BALLOTS CAST - REPUBLICAN PARTY       Precinct 104                                           00 
01030010005000080REP       BALLOTS CAST - REPUBLICAN PARTY                         BALLOTS CAST - REPUBLICAN PARTY       Precinct 201                                           00 
01030010006000048REP       BALLOTS CAST - REPUBLICAN PARTY                         BALLOTS CAST - REPUBLICAN PARTY       Precinct 202                                           00 
01030010007000015REP       BALLOTS CAST - REPUBLICAN PARTY                         BALLOTS CAST - REPUBLICAN PARTY       Precinct 203                                           00 
01030010008000061REP       BALLOTS CAST - REPUBLICAN PARTY                         BALLOTS CAST - REPUBLICAN PARTY       Precinct 204                                           00 
01030010009000097REP       BALLOTS CAST - REPUBLICAN PARTY                         BALLOTS CAST - REPUBLICAN PARTY       Precinct 205                                           00 
01030010010000123REP       BALLOTS CAST - REPUBLICAN PARTY                         BALLOTS CAST - REPUBLICAN PARTY       Precinct 206                                           00 
01030010011000143REP       BALLOTS CAST - REPUBLICAN PARTY                         BALLOTS CAST - REPUBLICAN PARTY       Precinct 301                                           00 
01030010012000059REP       BALLOTS CAST - REPUBLICAN PARTY                         BALLOTS CAST - REPUBLICAN PARTY       Precinct 302                                           00 
01030010013000017REP       BALLOTS CAST - REPUBLICAN PARTY                         BALLOTS CAST - REPUBLICAN PARTY       Precinct 303                                           00 
01030010014000114REP       BALLOTS CAST - REPUBLICAN PARTY                         BALLOTS CAST - REPUBLICAN PARTY       Precinct 304                                           00 
01030010015000054REP       BALLOTS CAST - REPUBLICAN PARTY                         BALLOTS CAST - REPUBLICAN PARTY       Precinct 305                                           00 
01030010016000123REP       BALLOTS CAST - REPUBLICAN PARTY                         BALLOTS CAST - REPUBLICAN PARTY       Precinct 401                                           00 
01030010017000051REP       BALLOTS CAST - REPUBLICAN PARTY                         BALLOTS CAST - REPUBLICAN PARTY       Precinct 402                                           00 
01030010018000043REP       BALLOTS CAST - REPUBLICAN PARTY                         BALLOTS CAST - REPUBLICAN PARTY       Precinct 403                                           00 
01030010019000060REP       BALLOTS CAST - REPUBLICAN PARTY                         BALLOTS CAST - REPUBLICAN PARTY       Precinct 404                                           00 
01030010020000048REP       BALLOTS CAST - REPUBLICAN PARTY                         BALLOTS CAST - REPUBLICAN PARTY       Precinct 405                                           00 
01030010021000030REP       BALLOTS CAST - REPUBLICAN PARTY                         BALLOTS CAST - REPUBLICAN PARTY       Precinct 406                                           00 
01040010001000013DEM       BALLOTS CAST - DEMOCRATIC PARTY                         BALLOTS CAST - DEMOCRATIC PARTY       Precinct 101                                           00 
01040010002000003DEM       BALLOTS CAST - DEMOCRATIC PARTY                         BALLOTS CAST - DEMOCRATIC PARTY       Precinct 102                                           00 
01040010003000007DEM       BALLOTS CAST - DEMOCRATIC PARTY                         BALLOTS CAST - DEMOCRATIC PARTY       Precinct 103                                           00 
01040010004000016DEM       BALLOTS CAST - DEMOCRATIC PARTY                         BALLOTS CAST - DEMOCRATIC PARTY       Precinct 104                                           00 
01040010005000013DEM       BALLOTS CAST - DEMOCRATIC PARTY                         BALLOTS CAST - DEMOCRATIC PARTY       Precinct 201                                           00 
01040010006000038DEM       BALLOTS CAST - DEMOCRATIC PARTY                         BALLOTS CAST - DEMOCRATIC PARTY       Precinct 202                                           00 
01040010007000005DEM       BALLOTS CAST - DEMOCRATIC PARTY                         BALLOTS CAST - DEMOCRATIC PARTY       Precinct 203                                           00 
01040010008000008DEM       BALLOTS CAST - DEMOCRATIC PARTY                         BALLOTS CAST - DEMOCRATIC PARTY       Precinct 204                                           00 
01040010009000009DEM       BALLOTS CAST - DEMOCRATIC PARTY                         BALLOTS CAST - DEMOCRATIC PARTY       Precinct 205                                           00 
01040010010000005DEM       BALLOTS CAST - DEMOCRATIC PARTY                         BALLOTS CAST - DEMOCRATIC PARTY       Precinct 206                                           00 
01040010011000008DEM       BALLOTS CAST - DEMOCRATIC PARTY                         BALLOTS CAST - DEMOCRATIC PARTY       Precinct 301                                           00 
01040010012000003DEM       BALLOTS CAST - DEMOCRATIC PARTY                         BALLOTS CAST - DEMOCRATIC PARTY       Precinct 302                                           00 
01040010013000002DEM       BALLOTS CAST - DEMOCRATIC PARTY                         BALLOTS CAST - DEMOCRATIC PARTY       Precinct 303                                           00 
01040010014000006DEM       BALLOTS CAST - DEMOCRATIC PARTY                         BALLOTS CAST - DEMOCRATIC PARTY       Precinct 304                                           00 
01040010015000015DEM       BALLOTS CAST - DEMOCRATIC PARTY                         BALLOTS CAST - DEMOCRATIC PARTY       Precinct 305                                           00 
01040010016000035DEM       BALLOTS CAST - DEMOCRATIC PARTY                         BALLOTS CAST - DEMOCRATIC PARTY       Precinct 401                                           00 
01040010017000007DEM       BALLOTS CAST - DEMOCRATIC PARTY                         BALLOTS CAST - DEMOCRATIC PARTY       Precinct 402                                           00 
01040010018000002DEM       BALLOTS CAST - DEMOCRATIC PARTY                         BALLOTS CAST - DEMOCRATIC PARTY       Precinct 403                                           00 
01040010019000004DEM       BALLOTS CAST - DEMOCRATIC PARTY                         BALLOTS CAST - DEMOCRATIC PARTY       Precinct 404                                           00 
01040010020000003DEM       BALLOTS CAST - DEMOCRATIC PARTY                         BALLOTS CAST - DEMOCRATIC PARTY       Precinct 405                                           00 
01040010021000001DEM       BALLOTS CAST - DEMOCRATIC PARTY                         BALLOTS CAST - DEMOCRATIC PARTY       Precinct 406                                           00 
01050010001000113REP       Attorney General                                        Ken Paxton                            Precinct 101                                           01 
01050010002000059REP       Attorney General                                        Ken Paxton                            Precinct 102                                           01 
01050010003000073REP       Attorney General                                        Ken Paxton                            Precinct 103                                           01 
01050010004000057REP       Attorney General                                        Ken Paxton                            Precinct 104                                           01 
01050010005000051REP       Attorney General                                        Ken Paxton                            Precinct 201                                           01 
01050010006000031REP       Attorney General                                        Ken Paxton                            Precinct 202                                           01 
01050010007000008REP       Attorney General                                        Ken Paxton                            Precinct 203                                           01 
01050010008000045REP       Attorney General                                        Ken Paxton                            Precinct 204                                           01 
01050010009000053REP       Attorney General                                        Ken Paxton                            Precinct 205                                           01 
01050010010000072REP       Attorney General                                        Ken Paxton                            Precinct 206                                           01 
01050010011000090REP       Attorney General                                        Ken Paxton                            Precinct 301                                           01 
01050010012000038REP       Attorney General                                        Ken Paxton                            Precinct 302                                           01 
01050010013000015REP       Attorney General                                        Ken Paxton                            Precinct 303                                           01 
01050010014000079REP       Attorney General                                        Ken Paxton                            Precinct 304                                           01 
01050010015000035REP       Attorney General                                        Ken Paxton                            Precinct 305                                           01 
01050010016000075REP       Attorney General                                        Ken Paxton                            Precinct 401                                           01 
01050010017000044REP       Attorney General                                        Ken Paxton                            Precinct 402                                           01 
01050010018000023REP       Attorney General                                        Ken Paxton                            Precinct 403                                           01 
01050010019000038REP       Attorney General                                        Ken Paxton                            Precinct 404                                           01 
01050010020000033REP       Attorney General                                        Ken Paxton                            Precinct 405                                           01 
01050010021000021REP       Attorney General                                        Ken Paxton                            Precinct 406                                           01 
01050020001000059REP       Attorney General                                        George P. Bush                        Precinct 101                                           01 
01050020002000021REP       Attorney General                                        George P. Bush                        Precinct 102                                           01 
01050020003000012REP       Attorney General                                        George P. Bush                        Precinct 103                                           01 
01050020004000038REP       Attorney General                                        George P. Bush                        Precinct 104                                           01 
01050020005000028REP       Attorney General                                        George P. Bush                        Precinct 201                                           01 
01050020006000015REP       Attorney General                                        George P. Bush                        Precinct 202                                           01 
01050020007000005REP       Attorney General                                        George P. Bush                        Precinct 203                                           01 
01050020008000015REP       Attorney General                                        George P. Bush                        Precinct 204                                           01 
01050020009000038REP       Attorney General                                        George P. Bush                        Precinct 205                                           01 
01050020010000041REP       Attorney General                                        George P. Bush                        Precinct 206                                           01 
01050020011000049REP       Attorney General                                        George P. Bush                        Precinct 301                                           01 
01050020012000019REP       Attorney General                                        George P. Bush                        Precinct 302                                           01 
01050020013000002REP       Attorney General                                        George P. Bush                        Precinct 303                                           01 
01050020014000033REP       Attorney General                                        George P. Bush                        Precinct 304                                           01 
01050020015000019REP       Attorney General                                        George P. Bush                        Precinct 305                                           01 
01050020016000045REP       Attorney General                                        George P. Bush                        Precinct 401                                           01 
01050020017000007REP       Attorney General                                        George P. Bush                        Precinct 402                                           01 
01050020018000018REP       Attorney General                                        George P. Bush                        Precinct 403                                           01 
01050020019000021REP       Attorney General                                        George P. Bush                        Precinct 404                                           01 
01050020020000014REP       Attorney General                                        George P. Bush                        Precinct 405                                           01 
01050020021000009REP       Attorney General                                        George P. Bush                        Precinct 406                                           01 
01050030001000000REP       Attorney General                                        OVER VOTES                            Precinct 101                                           01 
01050030002000000REP       Attorney General                                        OVER VOTES                            Precinct 102                                           01 
01050030003000000REP       Attorney General                                        OVER VOTES                            Precinct 103                                           01 
01050030004000000REP       Attorney General                                        OVER VOTES                            Precinct 104                                           01 
01050030005000000REP       Attorney General                                        OVER VOTES                            Precinct 201                                           01 
01050030006000000REP       Attorney General                                        OVER VOTES                            Precinct 202                                           01 
01050030007000000REP       Attorney General                                        OVER VOTES                            Precinct 203                                           01 
01050030008000000REP       Attorney General                                        OVER VOTES                            Precinct 204                                           01 
01050030009000000REP       Attorney General                                        OVER VOTES                            Precinct 205                                           01 
01050030010000000REP       Attorney General                                        OVER VOTES                            Precinct 206                                           01 
01050030011000000REP       Attorney General                                        OVER VOTES                            Precinct 301                                           01 
01050030012000000REP       Attorney General                                        OVER VOTES                            Precinct 302                                           01 
01050030013000000REP       Attorney General                                        OVER VOTES                            Precinct 303                                           01 
01050030014000000REP       Attorney General                                        OVER VOTES                            Precinct 304                                           01 
01050030015000000REP       Attorney General                                        OVER VOTES                            Precinct 305                                           01 
01050030016000000REP       Attorney General                                        OVER VOTES                            Precinct 401                                           01 
01050030017000000REP       Attorney General                                        OVER VOTES                            Precinct 402                                           01 
01050030018000000REP       Attorney General                                        OVER VOTES                            Precinct 403                                           01 
01050030019000000REP       Attorney General                                        OVER VOTES                            Precinct 404                                           01 
01050030020000000REP       Attorney General                                        OVER VOTES                            Precinct 405                                           01 
01050030021000000REP       Attorney General                                        OVER VOTES                            Precinct 406                                           01 
01050040001000004REP       Attorney General                                        UNDER VOTES                           Precinct 101                                           01 
01050040002000002REP       Attorney General                                        UNDER VOTES                           Precinct 102                                           01 
01050040003000000REP       Attorney General                                        UNDER VOTES                           Precinct 103                                           01 
01050040004000002REP       Attorney General                                        UNDER VOTES                           Precinct 104                                           01 
01050040005000001REP       Attorney General                                        UNDER VOTES                           Precinct 201                                           01 
01050040006000002REP       Attorney General                                        UNDER VOTES                           Precinct 202                                           01 
01050040007000002REP       Attorney General                                        UNDER VOTES                           Precinct 203                                           01 
01050040008000001REP       Attorney General                                        UNDER VOTES                           Precinct 204                                           01 
01050040009000006REP       Attorney General                                        UNDER VOTES                           Precinct 205                                           01 
01050040010000010REP       Attorney General                                        UNDER VOTES                           Precinct 206                                           01 
01050040011000004REP       Attorney General                                        UNDER VOTES                           Precinct 301                                           01 
01050040012000002REP       Attorney General                                        UNDER VOTES                           Precinct 302                                           01 
01050040013000000REP       Attorney General                                        UNDER VOTES                           Precinct 303                                           01 
01050040014000002REP       Attorney General                                        UNDER VOTES                           Precinct 304                                           01 
01050040015000000REP       Attorney General                                        UNDER VOTES                           Precinct 305                                           01 
01050040016000003REP       Attorney General                                        UNDER VOTES                           Precinct 401                                           01 
01050040017000000REP       Attorney General                                        UNDER VOTES                           Precinct 402                                           01 
01050040018000002REP       Attorney General                                        UNDER VOTES                           Precinct 403                                           01 
01050040019000001REP       Attorney General                                        UNDER VOTES                           Precinct 404                                           01 
01050040020000001REP       Attorney General                                        UNDER VOTES                           Precinct 405                                           01 
01050040021000000REP       Attorney General                                        UNDER VOTES                           Precinct 406                                           01 
01060010001000112REP       Commissioner of the General Land Office                 Dawn Buckingham                       Precinct 101                                           01 
01060010002000049REP       Commissioner of the General Land Office                 Dawn Buckingham                       Precinct 102                                           01 
01060010003000061REP       Commissioner of the General Land Office                 Dawn Buckingham                       Precinct 103                                           01 
01060010004000068REP       Commissioner of the General Land Office                 Dawn Buckingham                       Precinct 104                                           01 
01060010005000049REP       Commissioner of the General Land Office                 Dawn Buckingham                       Precinct 201                                           01 
01060010006000030REP       Commissioner of the General Land Office                 Dawn Buckingham                       Precinct 202                                           01 
01060010007000005REP       Commissioner of the General Land Office                 Dawn Buckingham                       Precinct 203                                           01 
01060010008000044REP       Commissioner of the General Land Office                 Dawn Buckingham                       Precinct 204                                           01 
01060010009000054REP       Commissioner of the General Land Office                 Dawn Buckingham                       Precinct 205                                           01 
01060010010000067REP       Commissioner of the General Land Office                 Dawn Buckingham                       Precinct 206                                           01 
01060010011000078REP       Commissioner of the General Land Office                 Dawn Buckingham                       Precinct 301                                           01 
01060010012000032REP       Commissioner of the General Land Office                 Dawn Buckingham                       Precinct 302                                           01 
01060010013000011REP       Commissioner of the General Land Office                 Dawn Buckingham                       Precinct 303                                           01 
01060010014000077REP       Commissioner of the General Land Office                 Dawn Buckingham                       Precinct 304                                           01 
01060010015000025REP       Commissioner of the General Land Office                 Dawn Buckingham                       Precinct 305                                           01 
01060010016000080REP       Commissioner of the General Land Office                 Dawn Buckingham                       Precinct 401                                           01 
01060010017000032REP       Commissioner of the General Land Office                 Dawn Buckingham                       Precinct 402                                           01 
01060010018000024REP       Commissioner of the General Land Office                 Dawn Buckingham                       Precinct 403                                           01 
01060010019000041REP       Commissioner of the General Land Office                 Dawn Buckingham                       Precinct 404                                           01 
01060010020000032REP       Commissioner of the General Land Office                 Dawn Buckingham                       Precinct 405                                           01 
01060010021000019REP       Commissioner of the General Land Office                 Dawn Buckingham                       Precinct 406                                           01 
01060020001000043REP       Commissioner of the General Land Office                 Tim Westley                           Precinct 101                                           01 
01060020002000026REP       Commissioner of the General Land Office                 Tim Westley                           Precinct 102                                           01 
01060020003000021REP       Commissioner of the General Land Office                 Tim Westley                           Precinct 103                                           01 
01060020004000017REP       Commissioner of the General Land Office                 Tim Westley                           Precinct 104                                           01 
01060020005000023REP       Commissioner of the General Land Office                 Tim Westley                           Precinct 201                                           01 
01060020006000011REP       Commissioner of the General Land Office                 Tim Westley                           Precinct 202                                           01 
01060020007000004REP       Commissioner of the General Land Office                 Tim Westley                           Precinct 203                                           01 
01060020008000013REP       Commissioner of the General Land Office                 Tim Westley                           Precinct 204                                           01 
01060020009000023REP       Commissioner of the General Land Office                 Tim Westley                           Precinct 205                                           01 
01060020010000032REP       Commissioner of the General Land Office                 Tim Westley                           Precinct 206                                           01 
01060020011000041REP       Commissioner of the General Land Office                 Tim Westley                           Precinct 301                                           01 
01060020012000019REP       Commissioner of the General Land Office                 Tim Westley                           Precinct 302                                           01 
01060020013000005REP       Commissioner of the General Land Office                 Tim Westley                           Precinct 303                                           01 
01060020014000022REP       Commissioner of the General Land Office                 Tim Westley                           Precinct 304                                           01 
01060020015000017REP       Commissioner of the General Land Office                 Tim Westley                           Precinct 305                                           01 
01060020016000027REP       Commissioner of the General Land Office                 Tim Westley                           Precinct 401                                           01 
01060020017000016REP       Commissioner of the General Land Office                 Tim Westley                           Precinct 402                                           01 
01060020018000013REP       Commissioner of the General Land Office                 Tim Westley                           Precinct 403                                           01 
01060020019000014REP       Commissioner of the General Land Office                 Tim Westley                           Precinct 404                                           01 
01060020020000013REP       Commissioner of the General Land Office                 Tim Westley                           Precinct 405                                           01 
01060020021000008REP       Commissioner of the General Land Office                 Tim Westley                           Precinct 406                                           01 
01060030001000000REP       Commissioner of the General Land Office                 OVER VOTES                            Precinct 101                                           01 
01060030002000000REP       Commissioner of the General Land Office                 OVER VOTES                            Precinct 102                                           01 
01060030003000000REP       Commissioner of the General Land Office                 OVER VOTES                            Precinct 103                                           01 
01060030004000000REP       Commissioner of the General Land Office                 OVER VOTES                            Precinct 104                                           01 
01060030005000000REP       Commissioner of the General Land Office                 OVER VOTES                            Precinct 201                                           01 
01060030006000000REP       Commissioner of the General Land Office                 OVER VOTES                            Precinct 202                                           01 
01060030007000000REP       Commissioner of the General Land Office                 OVER VOTES                            Precinct 203                                           01 
01060030008000000REP       Commissioner of the General Land Office                 OVER VOTES                            Precinct 204                                           01 
01060030009000000REP       Commissioner of the General Land Office                 OVER VOTES                            Precinct 205                                           01 
01060030010000000REP       Commissioner of the General Land Office                 OVER VOTES                            Precinct 206                                           01 
01060030011000000REP       Commissioner of the General Land Office                 OVER VOTES                            Precinct 301                                           01 
01060030012000000REP       Commissioner of the General Land Office                 OVER VOTES                            Precinct 302                                           01 
01060030013000000REP       Commissioner of the General Land Office                 OVER VOTES                            Precinct 303                                           01 
01060030014000000REP       Commissioner of the General Land Office                 OVER VOTES                            Precinct 304                                           01 
01060030015000000REP       Commissioner of the General Land Office                 OVER VOTES                            Precinct 305                                           01 
01060030016000000REP       Commissioner of the General Land Office                 OVER VOTES                            Precinct 401                                           01 
01060030017000000REP       Commissioner of the General Land Office                 OVER VOTES                            Precinct 402                                           01 
01060030018000000REP       Commissioner of the General Land Office                 OVER VOTES                            Precinct 403                                           01 
01060030019000000REP       Commissioner of the General Land Office                 OVER VOTES                            Precinct 404                                           01 
01060030020000000REP       Commissioner of the General Land Office                 OVER VOTES                            Precinct 405                                           01 
01060030021000000REP       Commissioner of the General Land Office                 OVER VOTES                            Precinct 406                                           01 
01060040001000021REP       Commissioner of the General Land Office                 UNDER VOTES                           Precinct 101                                           01 
01060040002000007REP       Commissioner of the General Land Office                 UNDER VOTES                           Precinct 102                                           01 
01060040003000003REP       Commissioner of the General Land Office                 UNDER VOTES                           Precinct 103                                           01 
01060040004000012REP       Commissioner of the General Land Office                 UNDER VOTES                           Precinct 104                                           01 
01060040005000008REP       Commissioner of the General Land Office                 UNDER VOTES                           Precinct 201                                           01 
01060040006000007REP       Commissioner of the General Land Office                 UNDER VOTES                           Precinct 202                                           01 
01060040007000006REP       Commissioner of the General Land Office                 UNDER VOTES                           Precinct 203                                           01 
01060040008000004REP       Commissioner of the General Land Office                 UNDER VOTES                           Precinct 204                                           01 
01060040009000020REP       Commissioner of the General Land Office                 UNDER VOTES                           Precinct 205                                           01 
01060040010000024REP       Commissioner of the General Land Office                 UNDER VOTES                           Precinct 206                                           01 
01060040011000024REP       Commissioner of the General Land Office                 UNDER VOTES                           Precinct 301                                           01 
01060040012000008REP       Commissioner of the General Land Office                 UNDER VOTES                           Precinct 302                                           01 
01060040013000001REP       Commissioner of the General Land Office                 UNDER VOTES                           Precinct 303                                           01 
01060040014000015REP       Commissioner of the General Land Office                 UNDER VOTES                           Precinct 304                                           01 
01060040015000012REP       Commissioner of the General Land Office                 UNDER VOTES                           Precinct 305                                           01 
01060040016000016REP       Commissioner of the General Land Office                 UNDER VOTES                           Precinct 401                                           01 
01060040017000003REP       Commissioner of the General Land Office                 UNDER VOTES                           Precinct 402                                           01 
01060040018000006REP       Commissioner of the General Land Office                 UNDER VOTES                           Precinct 403                                           01 
01060040019000005REP       Commissioner of the General Land Office                 UNDER VOTES                           Precinct 404                                           01 
01060040020000003REP       Commissioner of the General Land Office                 UNDER VOTES                           Precinct 405                                           01 
01060040021000003REP       Commissioner of the General Land Office                 UNDER VOTES                           Precinct 406                                           01 
01070010001000087REP       Railroad Commissioner                                   Wayne Christian                       Precinct 101                                           01 
01070010002000049REP       Railroad Commissioner                                   Wayne Christian                       Precinct 102                                           01 
01070010003000059REP       Railroad Commissioner                                   Wayne Christian                       Precinct 103                                           01 
01070010004000051REP       Railroad Commissioner                                   Wayne Christian                       Precinct 104                                           01 
01070010005000052REP       Railroad Commissioner                                   Wayne Christian                       Precinct 201                                           01 
01070010006000028REP       Railroad Commissioner                                   Wayne Christian                       Precinct 202                                           01 
01070010007000004REP       Railroad Commissioner                                   Wayne Christian                       Precinct 203                                           01 
01070010008000035REP       Railroad Commissioner                                   Wayne Christian                       Precinct 204                                           01 
01070010009000055REP       Railroad Commissioner                                   Wayne Christian                       Precinct 205                                           01 
01070010010000066REP       Railroad Commissioner                                   Wayne Christian                       Precinct 206                                           01 
01070010011000072REP       Railroad Commissioner                                   Wayne Christian                       Precinct 301                                           01 
01070010012000039REP       Railroad Commissioner                                   Wayne Christian                       Precinct 302                                           01 
01070010013000010REP       Railroad Commissioner                                   Wayne Christian                       Precinct 303                                           01 
01070010014000052REP       Railroad Commissioner                                   Wayne Christian                       Precinct 304                                           01 
01070010015000030REP       Railroad Commissioner                                   Wayne Christian                       Precinct 305                                           01 
01070010016000067REP       Railroad Commissioner                                   Wayne Christian                       Precinct 401                                           01 
01070010017000032REP       Railroad Commissioner                                   Wayne Christian                       Precinct 402                                           01 
01070010018000021REP       Railroad Commissioner                                   Wayne Christian                       Precinct 403                                           01 
01070010019000037REP       Railroad Commissioner                                   Wayne Christian                       Precinct 404                                           01 
01070010020000025REP       Railroad Commissioner                                   Wayne Christian                       Precinct 405                                           01 
01070010021000014REP       Railroad Commissioner                                   Wayne Christian                       Precinct 406                                           01 
01070020001000073REP       Railroad Commissioner                                   Sarah Stogner                         Precinct 101                                           01 
01070020002000026REP       Railroad Commissioner                                   Sarah Stogner                         Precinct 102                                           01 
01070020003000025REP       Railroad Commissioner                                   Sarah Stogner                         Precinct 103                                           01 
01070020004000039REP       Railroad Commissioner                                   Sarah Stogner                         Precinct 104                                           01 
01070020005000026REP       Railroad Commissioner                                   Sarah Stogner                         Precinct 201                                           01 
01070020006000012REP       Railroad Commissioner                                   Sarah Stogner                         Precinct 202                                           01 
01070020007000004REP       Railroad Commissioner                                   Sarah Stogner                         Precinct 203                                           01 
01070020008000021REP       Railroad Commissioner                                   Sarah Stogner                         Precinct 204                                           01 
01070020009000030REP       Railroad Commissioner                                   Sarah Stogner                         Precinct 205                                           01 
01070020010000034REP       Railroad Commissioner                                   Sarah Stogner                         Precinct 206                                           01 
01070020011000052REP       Railroad Commissioner                                   Sarah Stogner                         Precinct 301                                           01 
01070020012000015REP       Railroad Commissioner                                   Sarah Stogner                         Precinct 302                                           01 
01070020013000007REP       Railroad Commissioner                                   Sarah Stogner                         Precinct 303                                           01 
01070020014000051REP       Railroad Commissioner                                   Sarah Stogner                         Precinct 304                                           01 
01070020015000018REP       Railroad Commissioner                                   Sarah Stogner                         Precinct 305                                           01 
01070020016000045REP       Railroad Commissioner                                   Sarah Stogner                         Precinct 401                                           01 
01070020017000016REP       Railroad Commissioner                                   Sarah Stogner                         Precinct 402                                           01 
01070020018000020REP       Railroad Commissioner                                   Sarah Stogner                         Precinct 403                                           01 
01070020019000020REP       Railroad Commissioner                                   Sarah Stogner                         Precinct 404                                           01 
01070020020000020REP       Railroad Commissioner                                   Sarah Stogner                         Precinct 405                                           01 
01070020021000013REP       Railroad Commissioner                                   Sarah Stogner                         Precinct 406                                           01 
01070030001000000REP       Railroad Commissioner                                   OVER VOTES                            Precinct 101                                           01 
01070030002000000REP       Railroad Commissioner                                   OVER VOTES                            Precinct 102                                           01 
01070030003000000REP       Railroad Commissioner                                   OVER VOTES                            Precinct 103                                           01 
01070030004000000REP       Railroad Commissioner                                   OVER VOTES                            Precinct 104                                           01 
01070030005000000REP       Railroad Commissioner                                   OVER VOTES                            Precinct 201                                           01 
01070030006000000REP       Railroad Commissioner                                   OVER VOTES                            Precinct 202                                           01 
01070030007000000REP       Railroad Commissioner                                   OVER VOTES                            Precinct 203                                           01 
01070030008000000REP       Railroad Commissioner                                   OVER VOTES                            Precinct 204                                           01 
01070030009000000REP       Railroad Commissioner                                   OVER VOTES                            Precinct 205                                           01 
01070030010000000REP       Railroad Commissioner                                   OVER VOTES                            Precinct 206                                           01 
01070030011000000REP       Railroad Commissioner                                   OVER VOTES                            Precinct 301                                           01 
01070030012000000REP       Railroad Commissioner                                   OVER VOTES                            Precinct 302                                           01 
01070030013000000REP       Railroad Commissioner                                   OVER VOTES                            Precinct 303                                           01 
01070030014000000REP       Railroad Commissioner                                   OVER VOTES                            Precinct 304                                           01 
01070030015000000REP       Railroad Commissioner                                   OVER VOTES                            Precinct 305                                           01 
01070030016000000REP       Railroad Commissioner                                   OVER VOTES                            Precinct 401                                           01 
01070030017000000REP       Railroad Commissioner                                   OVER VOTES                            Precinct 402                                           01 
01070030018000000REP       Railroad Commissioner                                   OVER VOTES                            Precinct 403                                           01 
01070030019000000REP       Railroad Commissioner                                   OVER VOTES                            Precinct 404                                           01 
01070030020000000REP       Railroad Commissioner                                   OVER VOTES                            Precinct 405                                           01 
01070030021000000REP       Railroad Commissioner                                   OVER VOTES                            Precinct 406                                           01 
01070040001000016REP       Railroad Commissioner                                   UNDER VOTES                           Precinct 101                                           01 
01070040002000007REP       Railroad Commissioner                                   UNDER VOTES                           Precinct 102                                           01 
01070040003000001REP       Railroad Commissioner                                   UNDER VOTES                           Precinct 103                                           01 
01070040004000007REP       Railroad Commissioner                                   UNDER VOTES                           Precinct 104                                           01 
01070040005000002REP       Railroad Commissioner                                   UNDER VOTES                           Precinct 201                                           01 
01070040006000008REP       Railroad Commissioner                                   UNDER VOTES                           Precinct 202                                           01 
01070040007000007REP       Railroad Commissioner                                   UNDER VOTES                           Precinct 203                                           01 
01070040008000005REP       Railroad Commissioner                                   UNDER VOTES                           Precinct 204                                           01 
01070040009000012REP       Railroad Commissioner                                   UNDER VOTES                           Precinct 205                                           01 
01070040010000023REP       Railroad Commissioner                                   UNDER VOTES                           Precinct 206                                           01 
01070040011000019REP       Railroad Commissioner                                   UNDER VOTES                           Precinct 301                                           01 
01070040012000005REP       Railroad Commissioner                                   UNDER VOTES                           Precinct 302                                           01 
01070040013000000REP       Railroad Commissioner                                   UNDER VOTES                           Precinct 303                                           01 
01070040014000011REP       Railroad Commissioner                                   UNDER VOTES                           Precinct 304                                           01 
01070040015000006REP       Railroad Commissioner                                   UNDER VOTES                           Precinct 305                                           01 
01070040016000011REP       Railroad Commissioner                                   UNDER VOTES                           Precinct 401                                           01 
01070040017000003REP       Railroad Commissioner                                   UNDER VOTES                           Precinct 402                                           01 
01070040018000002REP       Railroad Commissioner                                   UNDER VOTES                           Precinct 403                                           01 
01070040019000003REP       Railroad Commissioner                                   UNDER VOTES                           Precinct 404                                           01 
01070040020000003REP       Railroad Commissioner                                   UNDER VOTES                           Precinct 405                                           01 
01070040021000003REP       Railroad Commissioner                                   UNDER VOTES                           Precinct 406                                           01 
01080010001000135REP       District Judge, 87th Judicial District                  Amy Thomas Ward                       Precinct 101                                           01 
01080010002000071REP       District Judge, 87th Judicial District                  Amy Thomas Ward                       Precinct 102                                           01 
01080010003000061REP       District Judge, 87th Judicial District                  Amy Thomas Ward                       Precinct 103                                           01 
01080010004000076REP       District Judge, 87th Judicial District                  Amy Thomas Ward                       Precinct 104                                           01 
01080010005000069REP       District Judge, 87th Judicial District                  Amy Thomas Ward                       Precinct 201                                           01 
01080010006000038REP       District Judge, 87th Judicial District                  Amy Thomas Ward                       Precinct 202                                           01 
01080010007000011REP       District Judge, 87th Judicial District                  Amy Thomas Ward                       Precinct 203                                           01 
01080010008000042REP       District Judge, 87th Judicial District                  Amy Thomas Ward                       Precinct 204                                           01 
01080010009000084REP       District Judge, 87th Judicial District                  Amy Thomas Ward                       Precinct 205                                           01 
01080010010000107REP       District Judge, 87th Judicial District                  Amy Thomas Ward                       Precinct 206                                           01 
01080010011000116REP       District Judge, 87th Judicial District                  Amy Thomas Ward                       Precinct 301                                           01 
01080010012000057REP       District Judge, 87th Judicial District                  Amy Thomas Ward                       Precinct 302                                           01 
01080010013000007REP       District Judge, 87th Judicial District                  Amy Thomas Ward                       Precinct 303                                           01 
01080010014000107REP       District Judge, 87th Judicial District                  Amy Thomas Ward                       Precinct 304                                           01 
01080010015000047REP       District Judge, 87th Judicial District                  Amy Thomas Ward                       Precinct 305                                           01 
01080010016000108REP       District Judge, 87th Judicial District                  Amy Thomas Ward                       Precinct 401                                           01 
01080010017000045REP       District Judge, 87th Judicial District                  Amy Thomas Ward                       Precinct 402                                           01 
01080010018000039REP       District Judge, 87th Judicial District                  Amy Thomas Ward                       Precinct 403                                           01 
01080010019000053REP       District Judge, 87th Judicial District                  Amy Thomas Ward                       Precinct 404                                           01 
01080010020000041REP       District Judge, 87th Judicial District                  Amy Thomas Ward                       Precinct 405                                           01 
01080010021000024REP       District Judge, 87th Judicial District                  Amy Thomas Ward                       Precinct 406                                           01 
01080020001000030REP       District Judge, 87th Judicial District                  Dan Scarbrough                        Precinct 101                                           01 
01080020002000010REP       District Judge, 87th Judicial District                  Dan Scarbrough                        Precinct 102                                           01 
01080020003000022REP       District Judge, 87th Judicial District                  Dan Scarbrough                        Precinct 103                                           01 
01080020004000016REP       District Judge, 87th Judicial District                  Dan Scarbrough                        Precinct 104                                           01 
01080020005000011REP       District Judge, 87th Judicial District                  Dan Scarbrough                        Precinct 201                                           01 
01080020006000008REP       District Judge, 87th Judicial District                  Dan Scarbrough                        Precinct 202                                           01 
01080020007000003REP       District Judge, 87th Judicial District                  Dan Scarbrough                        Precinct 203                                           01 
01080020008000016REP       District Judge, 87th Judicial District                  Dan Scarbrough                        Precinct 204                                           01 
01080020009000007REP       District Judge, 87th Judicial District                  Dan Scarbrough                        Precinct 205                                           01 
01080020010000014REP       District Judge, 87th Judicial District                  Dan Scarbrough                        Precinct 206                                           01 
01080020011000022REP       District Judge, 87th Judicial District                  Dan Scarbrough                        Precinct 301                                           01 
01080020012000001REP       District Judge, 87th Judicial District                  Dan Scarbrough                        Precinct 302                                           01 
01080020013000008REP       District Judge, 87th Judicial District                  Dan Scarbrough                        Precinct 303                                           01 
01080020014000006REP       District Judge, 87th Judicial District                  Dan Scarbrough                        Precinct 304                                           01 
01080020015000007REP       District Judge, 87th Judicial District                  Dan Scarbrough                        Precinct 305                                           01 
01080020016000015REP       District Judge, 87th Judicial District                  Dan Scarbrough                        Precinct 401                                           01 
01080020017000006REP       District Judge, 87th Judicial District                  Dan Scarbrough                        Precinct 402                                           01 
01080020018000004REP       District Judge, 87th Judicial District                  Dan Scarbrough                        Precinct 403                                           01 
01080020019000007REP       District Judge, 87th Judicial District                  Dan Scarbrough                        Precinct 404                                           01 
01080020020000006REP       District Judge, 87th Judicial District                  Dan Scarbrough                        Precinct 405                                           01 
01080020021000005REP       District Judge, 87th Judicial District                  Dan Scarbrough                        Precinct 406                                           01 
01080030001000000REP       District Judge, 87th Judicial District                  OVER VOTES                            Precinct 101                                           01 
01080030002000000REP       District Judge, 87th Judicial District                  OVER VOTES                            Precinct 102                                           01 
01080030003000000REP       District Judge, 87th Judicial District                  OVER VOTES                            Precinct 103                                           01 
01080030004000000REP       District Judge, 87th Judicial District                  OVER VOTES                            Precinct 104                                           01 
01080030005000000REP       District Judge, 87th Judicial District                  OVER VOTES                            Precinct 201                                           01 
01080030006000000REP       District Judge, 87th Judicial District                  OVER VOTES                            Precinct 202                                           01 
01080030007000000REP       District Judge, 87th Judicial District                  OVER VOTES                            Precinct 203                                           01 
01080030008000000REP       District Judge, 87th Judicial District                  OVER VOTES                            Precinct 204                                           01 
01080030009000000REP       District Judge, 87th Judicial District                  OVER VOTES                            Precinct 205                                           01 
01080030010000000REP       District Judge, 87th Judicial District                  OVER VOTES                            Precinct 206                                           01 
01080030011000000REP       District Judge, 87th Judicial District                  OVER VOTES                            Precinct 301                                           01 
01080030012000000REP       District Judge, 87th Judicial District                  OVER VOTES                            Precinct 302                                           01 
01080030013000000REP       District Judge, 87th Judicial District                  OVER VOTES                            Precinct 303                                           01 
01080030014000000REP       District Judge, 87th Judicial District                  OVER VOTES                            Precinct 304                                           01 
01080030015000000REP       District Judge, 87th Judicial District                  OVER VOTES                            Precinct 305                                           01 
01080030016000000REP       District Judge, 87th Judicial District                  OVER VOTES                            Precinct 401                                           01 
01080030017000000REP       District Judge, 87th Judicial District                  OVER VOTES                            Precinct 402                                           01 
01080030018000000REP       District Judge, 87th Judicial District                  OVER VOTES                            Precinct 403                                           01 
01080030019000000REP       District Judge, 87th Judicial District                  OVER VOTES                            Precinct 404                                           01 
01080030020000000REP       District Judge, 87th Judicial District                  OVER VOTES                            Precinct 405                                           01 
01080030021000000REP       District Judge, 87th Judicial District                  OVER VOTES                            Precinct 406                                           01 
01080040001000011REP       District Judge, 87th Judicial District                  UNDER VOTES                           Precinct 101                                           01 
01080040002000001REP       District Judge, 87th Judicial District                  UNDER VOTES                           Precinct 102                                           01 
01080040003000002REP       District Judge, 87th Judicial District                  UNDER VOTES                           Precinct 103                                           01 
01080040004000005REP       District Judge, 87th Judicial District                  UNDER VOTES                           Precinct 104                                           01 
01080040005000000REP       District Judge, 87th Judicial District                  UNDER VOTES                           Precinct 201                                           01 
01080040006000002REP       District Judge, 87th Judicial District                  UNDER VOTES                           Precinct 202                                           01 
01080040007000001REP       District Judge, 87th Judicial District                  UNDER VOTES                           Precinct 203                                           01 
01080040008000003REP       District Judge, 87th Judicial District                  UNDER VOTES                           Precinct 204                                           01 
01080040009000006REP       District Judge, 87th Judicial District                  UNDER VOTES                           Precinct 205                                           01 
01080040010000002REP       District Judge, 87th Judicial District                  UNDER VOTES                           Precinct 206                                           01 
01080040011000005REP       District Judge, 87th Judicial District                  UNDER VOTES                           Precinct 301                                           01 
01080040012000001REP       District Judge, 87th Judicial District                  UNDER VOTES                           Precinct 302                                           01 
01080040013000002REP       District Judge, 87th Judicial District                  UNDER VOTES                           Precinct 303                                           01 
01080040014000001REP       District Judge, 87th Judicial District                  UNDER VOTES                           Precinct 304                                           01 
01080040015000000REP       District Judge, 87th Judicial District                  UNDER VOTES                           Precinct 305                                           01 
01080040016000000REP       District Judge, 87th Judicial District                  UNDER VOTES                           Precinct 401                                           01 
01080040017000000REP       District Judge, 87th Judicial District                  UNDER VOTES                           Precinct 402                                           01 
01080040018000000REP       District Judge, 87th Judicial District                  UNDER VOTES                           Precinct 403                                           01 
01080040019000000REP       District Judge, 87th Judicial District                  UNDER VOTES                           Precinct 404                                           01 
01080040020000001REP       District Judge, 87th Judicial District                  UNDER VOTES                           Precinct 405                                           01 
01080040021000001REP       District Judge, 87th Judicial District                  UNDER VOTES                           Precinct 406                                           01 
01090010005000016REP       County Commissioner, Precinct 2                         Randall Jacobs                        Precinct 201                                           01 
01090010006000008REP       County Commissioner, Precinct 2                         Randall Jacobs                        Precinct 202                                           01 
01090010007000012REP       County Commissioner, Precinct 2                         Randall Jacobs                        Precinct 203                                           01 
01090010008000043REP       County Commissioner, Precinct 2                         Randall Jacobs                        Precinct 204                                           01 
01090010009000066REP       County Commissioner, Precinct 2                         Randall Jacobs                        Precinct 205                                           01 
01090010010000029REP       County Commissioner, Precinct 2                         Randall Jacobs                        Precinct 206                                           01 
01090020005000063REP       County Commissioner, Precinct 2                         Micah Anderson                        Precinct 201                                           01 
01090020006000040REP       County Commissioner, Precinct 2                         Micah Anderson                        Precinct 202                                           01 
01090020007000005REP       County Commissioner, Precinct 2                         Micah Anderson                        Precinct 203                                           01 
01090020008000018REP       County Commissioner, Precinct 2                         Micah Anderson                        Precinct 204                                           01 
01090020009000031REP       County Commissioner, Precinct 2                         Micah Anderson                        Precinct 205                                           01 
01090020010000093REP       County Commissioner, Precinct 2                         Micah Anderson                        Precinct 206                                           01 
01090030005000000REP       County Commissioner, Precinct 2                         OVER VOTES                            Precinct 201                                           01 
01090030006000000REP       County Commissioner, Precinct 2                         OVER VOTES                            Precinct 202                                           01 
01090030007000000REP       County Commissioner, Precinct 2                         OVER VOTES                            Precinct 203                                           01 
01090030008000000REP       County Commissioner, Precinct 2                         OVER VOTES                            Precinct 204                                           01 
01090030009000000REP       County Commissioner, Precinct 2                         OVER VOTES                            Precinct 205                                           01 
01090030010000000REP       County Commissioner, Precinct 2                         OVER VOTES                            Precinct 206                                           01 
01090040005000001REP       County Commissioner, Precinct 2                         UNDER VOTES                           Precinct 201                                           01 
01090040006000000REP       County Commissioner, Precinct 2                         UNDER VOTES                           Precinct 202                                           01 
01090040007000000REP       County Commissioner, Precinct 2                         UNDER VOTES                           Precinct 203                                           01 
01090040008000000REP       County Commissioner, Precinct 2                         UNDER VOTES                           Precinct 204                                           01 
01090040009000000REP       County Commissioner, Precinct 2                         UNDER VOTES                           Precinct 205                                           01 
01090040010000001REP       County Commissioner, Precinct 2                         UNDER VOTES                           Precinct 206                                           01 
01100010001000006DEM       Lieutenant Governor                                     Mike Collier                          Precinct 101                                           01 
01100010002000002DEM       Lieutenant Governor                                     Mike Collier                          Precinct 102                                           01 
01100010003000006DEM       Lieutenant Governor                                     Mike Collier                          Precinct 103                                           01 
01100010004000009DEM       Lieutenant Governor                                     Mike Collier                          Precinct 104                                           01 
01100010005000011DEM       Lieutenant Governor                                     Mike Collier                          Precinct 201                                           01 
01100010006000027DEM       Lieutenant Governor                                     Mike Collier                          Precinct 202                                           01 
01100010007000004DEM       Lieutenant Governor                                     Mike Collier                          Precinct 203                                           01 
01100010008000004DEM       Lieutenant Governor                                     Mike Collier                          Precinct 204                                           01 
01100010009000006DEM       Lieutenant Governor                                     Mike Collier                          Precinct 205                                           01 
01100010010000003DEM       Lieutenant Governor                                     Mike Collier                          Precinct 206                                           01 
01100010011000004DEM       Lieutenant Governor                                     Mike Collier                          Precinct 301                                           01 
01100010012000002DEM       Lieutenant Governor                                     Mike Collier                          Precinct 302                                           01 
01100010013000002DEM       Lieutenant Governor                                     Mike Collier                          Precinct 303                                           01 
01100010014000005DEM       Lieutenant Governor                                     Mike Collier                          Precinct 304                                           01 
01100010015000010DEM       Lieutenant Governor                                     Mike Collier                          Precinct 305                                           01 
01100010016000015DEM       Lieutenant Governor                                     Mike Collier                          Precinct 401                                           01 
01100010017000003DEM       Lieutenant Governor                                     Mike Collier                          Precinct 402                                           01 
01100010018000001DEM       Lieutenant Governor                                     Mike Collier                          Precinct 403                                           01 
01100010019000000DEM       Lieutenant Governor                                     Mike Collier                          Precinct 404                                           01 
01100010020000001DEM       Lieutenant Governor                                     Mike Collier                          Precinct 405                                           01 
01100010021000001DEM       Lieutenant Governor                                     Mike Collier                          Precinct 406                                           01 
01100020001000006DEM       Lieutenant Governor                                     Michelle Beckley                      Precinct 101                                           01 
01100020002000001DEM       Lieutenant Governor                                     Michelle Beckley                      Precinct 102                                           01 
01100020003000001DEM       Lieutenant Governor                                     Michelle Beckley                      Precinct 103                                           01 
01100020004000006DEM       Lieutenant Governor                                     Michelle Beckley                      Precinct 104                                           01 
01100020005000002DEM       Lieutenant Governor                                     Michelle Beckley                      Precinct 201                                           01 
01100020006000011DEM       Lieutenant Governor                                     Michelle Beckley                      Precinct 202                                           01 
01100020007000001DEM       Lieutenant Governor                                     Michelle Beckley                      Precinct 203                                           01 
01100020008000004DEM       Lieutenant Governor                                     Michelle Beckley                      Precinct 204                                           01 
01100020009000003DEM       Lieutenant Governor                                     Michelle Beckley                      Precinct 205                                           01 
01100020010000002DEM       Lieutenant Governor                                     Michelle Beckley                      Precinct 206                                           01 
01100020011000004DEM       Lieutenant Governor                                     Michelle Beckley                      Precinct 301                                           01 
01100020012000001DEM       Lieutenant Governor                                     Michelle Beckley                      Precinct 302                                           01 
01100020013000000DEM       Lieutenant Governor                                     Michelle Beckley                      Precinct 303                                           01 
01100020014000001DEM       Lieutenant Governor                                     Michelle Beckley                      Precinct 304                                           01 
01100020015000005DEM       Lieutenant Governor                                     Michelle Beckley                      Precinct 305                                           01 
01100020016000020DEM       Lieutenant Governor                                     Michelle Beckley                      Precinct 401                                           01 
01100020017000004DEM       Lieutenant Governor                                     Michelle Beckley                      Precinct 402                                           01 
01100020018000001DEM       Lieutenant Governor                                     Michelle Beckley                      Precinct 403                                           01 
01100020019000004DEM       Lieutenant Governor                                     Michelle Beckley                      Precinct 404                                           01 
01100020020000002DEM       Lieutenant Governor                                     Michelle Beckley                      Precinct 405                                           01 
01100020021000000DEM       Lieutenant Governor                                     Michelle Beckley                      Precinct 406                                           01 
01100030001000000DEM       Lieutenant Governor                                     OVER VOTES                            Precinct 101                                           01 
01100030002000000DEM       Lieutenant Governor                                     OVER VOTES                            Precinct 102                                           01 
01100030003000000DEM       Lieutenant Governor                                     OVER VOTES                            Precinct 103                                           01 
01100030004000000DEM       Lieutenant Governor                                     OVER VOTES                            Precinct 104                                           01 
01100030005000000DEM       Lieutenant Governor                                     OVER VOTES                            Precinct 201                                           01 
01100030006000000DEM       Lieutenant Governor                                     OVER VOTES                            Precinct 202                                           01 
01100030007000000DEM       Lieutenant Governor                                     OVER VOTES                            Precinct 203                                           01 
01100030008000000DEM       Lieutenant Governor                                     OVER VOTES                            Precinct 204                                           01 
01100030009000000DEM       Lieutenant Governor                                     OVER VOTES                            Precinct 205                                           01 
01100030010000000DEM       Lieutenant Governor                                     OVER VOTES                            Precinct 206                                           01 
01100030011000000DEM       Lieutenant Governor                                     OVER VOTES                            Precinct 301                                           01 
01100030012000000DEM       Lieutenant Governor                                     OVER VOTES                            Precinct 302                                           01 
01100030013000000DEM       Lieutenant Governor                                     OVER VOTES                            Precinct 303                                           01 
01100030014000000DEM       Lieutenant Governor                                     OVER VOTES                            Precinct 304                                           01 
01100030015000000DEM       Lieutenant Governor                                     OVER VOTES                            Precinct 305                                           01 
01100030016000000DEM       Lieutenant Governor                                     OVER VOTES                            Precinct 401                                           01 
01100030017000000DEM       Lieutenant Governor                                     OVER VOTES                            Precinct 402                                           01 
01100030018000000DEM       Lieutenant Governor                                     OVER VOTES                            Precinct 403                                           01 
01100030019000000DEM       Lieutenant Governor                                     OVER VOTES                            Precinct 404                                           01 
01100030020000000DEM       Lieutenant Governor                                     OVER VOTES                            Precinct 405                                           01 
01100030021000000DEM       Lieutenant Governor                                     OVER VOTES                            Precinct 406                                           01 
01100040001000001DEM       Lieutenant Governor                                     UNDER VOTES                           Precinct 101                                           01 
01100040002000000DEM       Lieutenant Governor                                     UNDER VOTES                           Precinct 102                                           01 
01100040003000000DEM       Lieutenant Governor                                     UNDER VOTES                           Precinct 103                                           01 
01100040004000001DEM       Lieutenant Governor                                     UNDER VOTES                           Precinct 104                                           01 
01100040005000000DEM       Lieutenant Governor                                     UNDER VOTES                           Precinct 201                                           01 
01100040006000000DEM       Lieutenant Governor                                     UNDER VOTES                           Precinct 202                                           01 
01100040007000000DEM       Lieutenant Governor                                     UNDER VOTES                           Precinct 203                                           01 
01100040008000000DEM       Lieutenant Governor                                     UNDER VOTES                           Precinct 204                                           01 
01100040009000000DEM       Lieutenant Governor                                     UNDER VOTES                           Precinct 205                                           01 
01100040010000000DEM       Lieutenant Governor                                     UNDER VOTES                           Precinct 206                                           01 
01100040011000000DEM       Lieutenant Governor                                     UNDER VOTES                           Precinct 301                                           01 
01100040012000000DEM       Lieutenant Governor                                     UNDER VOTES                           Precinct 302                                           01 
01100040013000000DEM       Lieutenant Governor                                     UNDER VOTES                           Precinct 303                                           01 
01100040014000000DEM       Lieutenant Governor                                     UNDER VOTES                           Precinct 304                                           01 
01100040015000000DEM       Lieutenant Governor                                     UNDER VOTES                           Precinct 305                                           01 
01100040016000000DEM       Lieutenant Governor                                     UNDER VOTES                           Precinct 401                                           01 
01100040017000000DEM       Lieutenant Governor                                     UNDER VOTES                           Precinct 402                                           01 
01100040018000000DEM       Lieutenant Governor                                     UNDER VOTES                           Precinct 403                                           01 
01100040019000000DEM       Lieutenant Governor                                     UNDER VOTES                           Precinct 404                                           01 
01100040020000000DEM       Lieutenant Governor                                     UNDER VOTES                           Precinct 405                                           01 
01100040021000000DEM       Lieutenant Governor                                     UNDER VOTES                           Precinct 406                                           01 
01110010001000006DEM       Attorney General                                        Joe Jaworski                          Precinct 101                                           01 
01110010002000002DEM       Attorney General                                        Joe Jaworski                          Precinct 102                                           01 
01110010003000006DEM       Attorney General                                        Joe Jaworski                          Precinct 103                                           01 
01110010004000008DEM       Attorney General                                        Joe Jaworski                          Precinct 104                                           01 
01110010005000009DEM       Attorney General                                        Joe Jaworski                          Precinct 201                                           01 
01110010006000022DEM       Attorney General                                        Joe Jaworski                          Precinct 202                                           01 
01110010007000002DEM       Attorney General                                        Joe Jaworski                          Precinct 203                                           01 
01110010008000003DEM       Attorney General                                        Joe Jaworski                          Precinct 204                                           01 
01110010009000003DEM       Attorney General                                        Joe Jaworski                          Precinct 205                                           01 
01110010010000002DEM       Attorney General                                        Joe Jaworski                          Precinct 206                                           01 
01110010011000002DEM       Attorney General                                        Joe Jaworski                          Precinct 301                                           01 
01110010012000001DEM       Attorney General                                        Joe Jaworski                          Precinct 302                                           01 
01110010013000002DEM       Attorney General                                        Joe Jaworski                          Precinct 303                                           01 
01110010014000005DEM       Attorney General                                        Joe Jaworski                          Precinct 304                                           01 
01110010015000007DEM       Attorney General                                        Joe Jaworski                          Precinct 305                                           01 
01110010016000020DEM       Attorney General                                        Joe Jaworski                          Precinct 401                                           01 
01110010017000005DEM       Attorney General                                        Joe Jaworski                          Precinct 402                                           01 
01110010018000001DEM       Attorney General                                        Joe Jaworski                          Precinct 403                                           01 
01110010019000003DEM       Attorney General                                        Joe Jaworski                          Precinct 404                                           01 
01110010020000001DEM       Attorney General                                        Joe Jaworski                          Precinct 405                                           01 
01110010021000000DEM       Attorney General                                        Joe Jaworski                          Precinct 406                                           01 
01110020001000007DEM       Attorney General                                        Rochelle Mercedes Garza               Precinct 101                                           01 
01110020002000001DEM       Attorney General                                        Rochelle Mercedes Garza               Precinct 102                                           01 
01110020003000001DEM       Attorney General                                        Rochelle Mercedes Garza               Precinct 103                                           01 
