00010010001002508000000000000000000000000000000000000000000000000000000000000000000000000000000000000          REGISTERED VOTERS - TOTAL                               REGISTERED VOTERS - TOTAL             Precinct 101                                           00 
00010010002001468000000000000000000000000000000000000000000000000000000000000000000000000000000000000          REGISTERED VOTERS - TOTAL                               REGISTERED VOTERS - TOTAL             Precinct 201                                           00 
00010010003001667000000000000000000000000000000000000000000000000000000000000000000000000000000000000          REGISTERED VOTERS - TOTAL                               REGISTERED VOTERS - TOTAL             Precinct 202                                           00 
00010010004000072000000000000000000000000000000000000000000000000000000000000000000000000000000000000          REGISTERED VOTERS - TOTAL                               REGISTERED VOTERS - TOTAL             Precinct 203                                           00 
00010010005002263000000000000000000000000000000000000000000000000000000000000000000000000000000000000          REGISTERED VOTERS - TOTAL                               REGISTERED VOTERS - TOTAL             Precinct 301                                           00 
00010010006001198000000000000000000000000000000000000000000000000000000000000000000000000000000000000          REGISTERED VOTERS - TOTAL                               REGISTERED VOTERS - TOTAL             Precinct 401                                           00 
00010010007000723000000000000000000000000000000000000000000000000000000000000000000000000000000000000          REGISTERED VOTERS - TOTAL                               REGISTERED VOTERS - TOTAL             Precinct 402                                           00 
00040010001000080000010000030000040000000000000000000000000000000000000000000000000000000000000000000          BALLOTS CAST - TOTAL                                    BALLOTS CAST - TOTAL                  Precinct 101                                           00 
00040010002000083000016000026000041000000000000000000000000000000000000000000000000000000000000000000          BALLOTS CAST - TOTAL                                    BALLOTS CAST - TOTAL                  Precinct 201                                           00 
00040010003000095000014000046000035000000000000000000000000000000000000000000000000000000000000000000          BALLOTS CAST - TOTAL                                    BALLOTS CAST - TOTAL                  Precinct 202                                           00 
00040010004000004000002000000000002000000000000000000000000000000000000000000000000000000000000000000          BALLOTS CAST - TOTAL                                    BALLOTS CAST - TOTAL                  Precinct 203                                           00 
00040010005000054000011000012000031000000000000000000000000000000000000000000000000000000000000000000          BALLOTS CAST - TOTAL                                    BALLOTS CAST - TOTAL                  Precinct 301                                           00 
00040010006000320000008000197000115000000000000000000000000000000000000000000000000000000000000000000          BALLOTS CAST - TOTAL                                    BALLOTS CAST - TOTAL                  Precinct 401                                           00 
00040010007000002000000000002000000000000000000000000000000000000000000000000000000000000000000000000          BALLOTS CAST - TOTAL                                    BALLOTS CAST - TOTAL                  Precinct 402                                           00 
00050010001000002000000000000000002000000000000000000000000000000000000000000000000000000000000000000DEM       BALLOTS CAST - Democratic Party                         BALLOTS CAST - Democratic Party       Precinct 101                                           00 
00050010002000001000001000000000000000000000000000000000000000000000000000000000000000000000000000000DEM       BALLOTS CAST - Democratic Party                         BALLOTS CAST - Democratic Party       Precinct 201                                           00 
00050010003000003000001000002000000000000000000000000000000000000000000000000000000000000000000000000DEM       BALLOTS CAST - Democratic Party                         BALLOTS CAST - Democratic Party       Precinct 202                                           00 
00050010004000000000000000000000000000000000000000000000000000000000000000000000000000000000000000000DEM       BALLOTS CAST - Democratic Party                         BALLOTS CAST - Democratic Party       Precinct 203                                           00 
00050010005000005000003000000000002000000000000000000000000000000000000000000000000000000000000000000DEM       BALLOTS CAST - Democratic Party                         BALLOTS CAST - Democratic Party       Precinct 301                                           00 
00050010006000004000000000003000001000000000000000000000000000000000000000000000000000000000000000000DEM       BALLOTS CAST - Democratic Party                         BALLOTS CAST - Democratic Party       Precinct 401                                           00 
00050010007000000000000000000000000000000000000000000000000000000000000000000000000000000000000000000DEM       BALLOTS CAST - Democratic Party                         BALLOTS CAST - Democratic Party       Precinct 402                                           00 
00060010001000001000000000000000001000000000000000000000000000000000000000000000000000000000000000000DEM       DEM Lieutenant Governor                                 Michelle Beckley                      Precinct 101                                           01 
00060010002000001000001000000000000000000000000000000000000000000000000000000000000000000000000000000DEM       DEM Lieutenant Governor                                 Michelle Beckley                      Precinct 201                                           01 
00060010003000002000001000001000000000000000000000000000000000000000000000000000000000000000000000000DEM       DEM Lieutenant Governor                                 Michelle Beckley                      Precinct 202                                           01 
00060010004000000000000000000000000000000000000000000000000000000000000000000000000000000000000000000DEM       DEM Lieutenant Governor                                 Michelle Beckley                      Precinct 203                                           01 
00060010005000003000002000000000001000000000000000000000000000000000000000000000000000000000000000000DEM       DEM Lieutenant Governor                                 Michelle Beckley                      Precinct 301                                           01 
00060010006000001000000000001000000000000000000000000000000000000000000000000000000000000000000000000DEM       DEM Lieutenant Governor                                 Michelle Beckley                      Precinct 401                                           01 
00060010007000000000000000000000000000000000000000000000000000000000000000000000000000000000000000000DEM       DEM Lieutenant Governor                                 Michelle Beckley                      Precinct 402                                           01 
00060020001000001000000000000000001000000000000000000000000000000000000000000000000000000000000000000DEM       DEM Lieutenant Governor                                 Mike Collier                          Precinct 101                                           01 
00060020002000000000000000000000000000000000000000000000000000000000000000000000000000000000000000000DEM       DEM Lieutenant Governor                                 Mike Collier                          Precinct 201                                           01 
00060020003000001000000000001000000000000000000000000000000000000000000000000000000000000000000000000DEM       DEM Lieutenant Governor                                 Mike Collier                          Precinct 202                                           01 
00060020004000000000000000000000000000000000000000000000000000000000000000000000000000000000000000000DEM       DEM Lieutenant Governor                                 Mike Collier                          Precinct 203                                           01 
00060020005000002000001000000000001000000000000000000000000000000000000000000000000000000000000000000DEM       DEM Lieutenant Governor                                 Mike Collier                          Precinct 301                                           01 
00060020006000003000000000002000001000000000000000000000000000000000000000000000000000000000000000000DEM       DEM Lieutenant Governor                                 Mike Collier                          Precinct 401                                           01 
00060020007000000000000000000000000000000000000000000000000000000000000000000000000000000000000000000DEM       DEM Lieutenant Governor                                 Mike Collier                          Precinct 402                                           01 
00070010001000002000000000000000002000000000000000000000000000000000000000000000000000000000000000000DEM       DEM Attorney General                                    Rochelle Mercedes Garza               Precinct 101                                           01 
00070010002000000000000000000000000000000000000000000000000000000000000000000000000000000000000000000DEM       DEM Attorney General                                    Rochelle Mercedes Garza               Precinct 201                                           01 
00070010003000003000001000002000000000000000000000000000000000000000000000000000000000000000000000000DEM       DEM Attorney General                                    Rochelle Mercedes Garza               Precinct 202                                           01 
00070010004000000000000000000000000000000000000000000000000000000000000000000000000000000000000000000DEM       DEM Attorney General                                    Rochelle Mercedes Garza               Precinct 203                                           01 
00070010005000003000002000000000001000000000000000000000000000000000000000000000000000000000000000000DEM       DEM Attorney General                                    Rochelle Mercedes Garza               Precinct 301                                           01 
00070010006000002000000000001000001000000000000000000000000000000000000000000000000000000000000000000DEM       DEM Attorney General                                    Rochelle Mercedes Garza               Precinct 401                                           01 
00070010007000000000000000000000000000000000000000000000000000000000000000000000000000000000000000000DEM       DEM Attorney General                                    Rochelle Mercedes Garza               Precinct 402                                           01 
00070020001000000000000000000000000000000000000000000000000000000000000000000000000000000000000000000DEM       DEM Attorney General                                    Joe Jaworski                          Precinct 101                                           01 
00070020002000001000001000000000000000000000000000000000000000000000000000000000000000000000000000000DEM       DEM Attorney General                                    Joe Jaworski                          Precinct 201                                           01 
00070020003000000000000000000000000000000000000000000000000000000000000000000000000000000000000000000DEM       DEM Attorney General                                    Joe Jaworski                          Precinct 202                                           01 
00070020004000000000000000000000000000000000000000000000000000000000000000000000000000000000000000000DEM       DEM Attorney General                                    Joe Jaworski                          Precinct 203                                           01 
00070020005000002000001000000000001000000000000000000000000000000000000000000000000000000000000000000DEM       DEM Attorney General                                    Joe Jaworski                          Precinct 301                                           01 
00070020006000002000000000002000000000000000000000000000000000000000000000000000000000000000000000000DEM       DEM Attorney General                                    Joe Jaworski                          Precinct 401                                           01 
00070020007000000000000000000000000000000000000000000000000000000000000000000000000000000000000000000DEM       DEM Attorney General                                    Joe Jaworski                          Precinct 402                                           01 
00080010001000000000000000000000000000000000000000000000000000000000000000000000000000000000000000000DEM       DEM Comptroller of Public Accounts                      Janet T. Dudding                      Precinct 101                                           01 
00080010002000001000001000000000000000000000000000000000000000000000000000000000000000000000000000000DEM       DEM Comptroller of Public Accounts                      Janet T. Dudding                      Precinct 201                                           01 
00080010003000002000000000002000000000000000000000000000000000000000000000000000000000000000000000000DEM       DEM Comptroller of Public Accounts                      Janet T. Dudding                      Precinct 202                                           01 
00080010004000000000000000000000000000000000000000000000000000000000000000000000000000000000000000000DEM       DEM Comptroller of Public Accounts                      Janet T. Dudding                      Precinct 203                                           01 
00080010005000003000002000000000001000000000000000000000000000000000000000000000000000000000000000000DEM       DEM Comptroller of Public Accounts                      Janet T. Dudding                      Precinct 301                                           01 
00080010006000000000000000000000000000000000000000000000000000000000000000000000000000000000000000000DEM       DEM Comptroller of Public Accounts                      Janet T. Dudding                      Precinct 401                                           01 
00080010007000000000000000000000000000000000000000000000000000000000000000000000000000000000000000000DEM       DEM Comptroller of Public Accounts                      Janet T. Dudding                      Precinct 402                                           01 
00080020001000002000000000000000002000000000000000000000000000000000000000000000000000000000000000000DEM       DEM Comptroller of Public Accounts                      Angel Luis Vega                       Precinct 101                                           01 
00080020002000000000000000000000000000000000000000000000000000000000000000000000000000000000000000000DEM       DEM Comptroller of Public Accounts                      Angel Luis Vega                       Precinct 201                                           01 
00080020003000001000001000000000000000000000000000000000000000000000000000000000000000000000000000000DEM       DEM Comptroller of Public Accounts                      Angel Luis Vega                       Precinct 202                                           01 
00080020004000000000000000000000000000000000000000000000000000000000000000000000000000000000000000000DEM       DEM Comptroller of Public Accounts                      Angel Luis Vega                       Precinct 203                                           01 
00080020005000002000001000000000001000000000000000000000000000000000000000000000000000000000000000000DEM       DEM Comptroller of Public Accounts                      Angel Luis Vega                       Precinct 301                                           01 
00080020006000004000000000003000001000000000000000000000000000000000000000000000000000000000000000000DEM       DEM Comptroller of Public Accounts                      Angel Luis Vega                       Precinct 401                                           01 
00080020007000000000000000000000000000000000000000000000000000000000000000000000000000000000000000000DEM       DEM Comptroller of Public Accounts                      Angel Luis Vega                       Precinct 402                                           01 
00090010001000002000000000000000002000000000000000000000000000000000000000000000000000000000000000000DEM       DEM Comm General Land Office                            Sandragrace Martinez                  Precinct 101                                           01 
00090010002000000000000000000000000000000000000000000000000000000000000000000000000000000000000000000DEM       DEM Comm General Land Office                            Sandragrace Martinez                  Precinct 201                                           01 
00090010003000003000001000002000000000000000000000000000000000000000000000000000000000000000000000000DEM       DEM Comm General Land Office                            Sandragrace Martinez                  Precinct 202                                           01 
00090010004000000000000000000000000000000000000000000000000000000000000000000000000000000000000000000DEM       DEM Comm General Land Office                            Sandragrace Martinez                  Precinct 203                                           01 
00090010005000003000002000000000001000000000000000000000000000000000000000000000000000000000000000000DEM       DEM Comm General Land Office                            Sandragrace Martinez                  Precinct 301                                           01 
00090010006000003000000000002000001000000000000000000000000000000000000000000000000000000000000000000DEM       DEM Comm General Land Office                            Sandragrace Martinez                  Precinct 401                                           01 
00090010007000000000000000000000000000000000000000000000000000000000000000000000000000000000000000000DEM       DEM Comm General Land Office                            Sandragrace Martinez                  Precinct 402                                           01 
00090020001000000000000000000000000000000000000000000000000000000000000000000000000000000000000000000DEM       DEM Comm General Land Office                            Jay Kleberg                           Precinct 101                                           01 
00090020002000001000001000000000000000000000000000000000000000000000000000000000000000000000000000000DEM       DEM Comm General Land Office                            Jay Kleberg                           Precinct 201                                           01 
00090020003000000000000000000000000000000000000000000000000000000000000000000000000000000000000000000DEM       DEM Comm General Land Office                            Jay Kleberg                           Precinct 202                                           01 
00090020004000000000000000000000000000000000000000000000000000000000000000000000000000000000000000000DEM       DEM Comm General Land Office                            Jay Kleberg                           Precinct 203                                           01 
00090020005000002000001000000000001000000000000000000000000000000000000000000000000000000000000000000DEM       DEM Comm General Land Office                            Jay Kleberg                           Precinct 301                                           01 
00090020006000000000000000000000000000000000000000000000000000000000000000000000000000000000000000000DEM       DEM Comm General Land Office                            Jay Kleberg                           Precinct 401                                           01 
00090020007000000000000000000000000000000000000000000000000000000000000000000000000000000000000000000DEM       DEM Comm General Land Office                            Jay Kleberg                           Precinct 402                                           01 
