00010010001000000000000000000000000000000000000000000000000000000000000000000000000000000000000000000          REGISTERED VOTERS - TOTAL                               REGISTERED VOTERS - TOTAL             Precinct 1                                             00 
00010010002000000000000000000000000000000000000000000000000000000000000000000000000000000000000000000          REGISTERED VOTERS - TOTAL                               REGISTERED VOTERS - TOTAL             Precinct 2                                             00 
00010010003000000000000000000000000000000000000000000000000000000000000000000000000000000000000000000          REGISTERED VOTERS - TOTAL                               REGISTERED VOTERS - TOTAL             Precinct 3                                             00 
00010010004000000000000000000000000000000000000000000000000000000000000000000000000000000000000000000          REGISTERED VOTERS - TOTAL                               REGISTERED VOTERS - TOTAL             Precinct 4                                             00 
00020010001000000000000000000000000000000000000000000000000000000000000000000000000000000000000000000REP       REGISTERED VOTERS - Republican Party                    REGISTERED VOTERS - Republican Party  Precinct 1                                             00 
00020010002000000000000000000000000000000000000000000000000000000000000000000000000000000000000000000REP       REGISTERED VOTERS - Republican Party                    REGISTERED VOTERS - Republican Party  Precinct 2                                             00 
00020010003000000000000000000000000000000000000000000000000000000000000000000000000000000000000000000REP       REGISTERED VOTERS - Republican Party                    REGISTERED VOTERS - Republican Party  Precinct 3                                             00 
00020010004000000000000000000000000000000000000000000000000000000000000000000000000000000000000000000REP       REGISTERED VOTERS - Republican Party                    REGISTERED VOTERS - Republican Party  Precinct 4                                             00 
00030010001000000000000000000000000000000000000000000000000000000000000000000000000000000000000000000DEM       REGISTERED VOTERS - Democratic Party                    REGISTERED VOTERS - Democratic Party  Precinct 1                                             00 
00030010002000000000000000000000000000000000000000000000000000000000000000000000000000000000000000000DEM       REGISTERED VOTERS - Democratic Party                    REGISTERED VOTERS - Democratic Party  Precinct 2                                             00 
00030010003000000000000000000000000000000000000000000000000000000000000000000000000000000000000000000DEM       REGISTERED VOTERS - Democratic Party                    REGISTERED VOTERS - Democratic Party  Precinct 3                                             00 
00030010004000000000000000000000000000000000000000000000000000000000000000000000000000000000000000000DEM       REGISTERED VOTERS - Democratic Party                    REGISTERED VOTERS - Democratic Party  Precinct 4                                             00 
00040010001000000000000000000000000000000000000000000000000000000000000000000000000000000000000000000NON       REGISTERED VOTERS - NONPARTISAN                         REGISTERED VOTERS - NONPARTISAN       Precinct 1                                             00 
00040010002000000000000000000000000000000000000000000000000000000000000000000000000000000000000000000NON       REGISTERED VOTERS - NONPARTISAN                         REGISTERED VOTERS - NONPARTISAN       Precinct 2                                             00 
00040010003000000000000000000000000000000000000000000000000000000000000000000000000000000000000000000NON       REGISTERED VOTERS - NONPARTISAN                         REGISTERED VOTERS - NONPARTISAN       Precinct 3                                             00 
00040010004000000000000000000000000000000000000000000000000000000000000000000000000000000000000000000NON       REGISTERED VOTERS - NONPARTISAN                         REGISTERED VOTERS - NONPARTISAN       Precinct 4                                             00 
00050010001000499000169000110000220000000000000000000000000000000000000000000000000000000000000000000          BALLOTS CAST - TOTAL                                    BALLOTS CAST - TOTAL                  Precinct 1                                             00 
00050010002000485000136000093000256000000000000000000000000000000000000000000000000000000000000000000          BALLOTS CAST - TOTAL                                    BALLOTS CAST - TOTAL                  Precinct 2                                             00 
00050010003000421000130000087000204000000000000000000000000000000000000000000000000000000000000000000          BALLOTS CAST - TOTAL                                    BALLOTS CAST - TOTAL                  Precinct 3                                             00 
00050010004000450000066000136000248000000000000000000000000000000000000000000000000000000000000000000          BALLOTS CAST - TOTAL                                    BALLOTS CAST - TOTAL                  Precinct 4                                             00 
00060010001000320000054000089000177000000000000000000000000000000000000000000000000000000000000000000REP       BALLOTS CAST - Republican Party                         BALLOTS CAST - Republican Party       Precinct 1                                             00 
00060010002000418000090000087000241000000000000000000000000000000000000000000000000000000000000000000REP       BALLOTS CAST - Republican Party                         BALLOTS CAST - Republican Party       Precinct 2                                             00 
00060010003000343000072000077000194000000000000000000000000000000000000000000000000000000000000000000REP       BALLOTS CAST - Republican Party                         BALLOTS CAST - Republican Party       Precinct 3                                             00 
00060010004000397000038000120000239000000000000000000000000000000000000000000000000000000000000000000REP       BALLOTS CAST - Republican Party                         BALLOTS CAST - Republican Party       Precinct 4                                             00 
00070010001000179000115000021000043000000000000000000000000000000000000000000000000000000000000000000DEM       BALLOTS CAST - Democratic Party                         BALLOTS CAST - Democratic Party       Precinct 1                                             00 
00070010002000067000046000006000015000000000000000000000000000000000000000000000000000000000000000000DEM       BALLOTS CAST - Democratic Party                         BALLOTS CAST - Democratic Party       Precinct 2                                             00 
00070010003000078000058000010000010000000000000000000000000000000000000000000000000000000000000000000DEM       BALLOTS CAST - Democratic Party                         BALLOTS CAST - Democratic Party       Precinct 3                                             00 
00070010004000053000028000016000009000000000000000000000000000000000000000000000000000000000000000000DEM       BALLOTS CAST - Democratic Party                         BALLOTS CAST - Democratic Party       Precinct 4                                             00 
00080010001000000000000000000000000000000000000000000000000000000000000000000000000000000000000000000NON       BALLOTS CAST - NONPARTISAN                              BALLOTS CAST - NONPARTISAN            Precinct 1                                             00 
00080010002000000000000000000000000000000000000000000000000000000000000000000000000000000000000000000NON       BALLOTS CAST - NONPARTISAN                              BALLOTS CAST - NONPARTISAN            Precinct 2                                             00 
00080010003000000000000000000000000000000000000000000000000000000000000000000000000000000000000000000NON       BALLOTS CAST - NONPARTISAN                              BALLOTS CAST - NONPARTISAN            Precinct 3                                             00 
00080010004000000000000000000000000000000000000000000000000000000000000000000000000000000000000000000NON       BALLOTS CAST - NONPARTISAN                              BALLOTS CAST - NONPARTISAN            Precinct 4                                             00 
00090010001000000000000000000000000000000000000000000000000000000000000000000000000000000000000000000          BALLOTS CAST - BLANK                                    BALLOTS CAST - BLANK                  Precinct 1                                             00 
00090010002000000000000000000000000000000000000000000000000000000000000000000000000000000000000000000          BALLOTS CAST - BLANK                                    BALLOTS CAST - BLANK                  Precinct 2                                             00 
00090010003000000000000000000000000000000000000000000000000000000000000000000000000000000000000000000          BALLOTS CAST - BLANK                                    BALLOTS CAST - BLANK                  Precinct 3                                             00 
00090010004000001000000000001000000000000000000000000000000000000000000000000000000000000000000000000          BALLOTS CAST - BLANK                                    BALLOTS CAST - BLANK                  Precinct 4                                             00 
00100010001000262000039000075000148000000000000000000000000000000000000000000000000000000000000000000REP       REP Attorney General                                    Ken Paxton                            Precinct 1                                             01 
00100010002000358000059000075000224000000000000000000000000000000000000000000000000000000000000000000REP       REP Attorney General                                    Ken Paxton                            Precinct 2                                             01 
00100010003000291000056000065000170000000000000000000000000000000000000000000000000000000000000000000REP       REP Attorney General                                    Ken Paxton                            Precinct 3                                             01 
00100010004000341000024000100000217000000000000000000000000000000000000000000000000000000000000000000REP       REP Attorney General                                    Ken Paxton                            Precinct 4                                             01 
00100020001000058000015000014000029000000000000000000000000000000000000000000000000000000000000000000REP       REP Attorney General                                    George P. Bush                        Precinct 1                                             01 
00100020002000060000031000012000017000000000000000000000000000000000000000000000000000000000000000000REP       REP Attorney General                                    George P. Bush                        Precinct 2                                             01 
00100020003000052000016000012000024000000000000000000000000000000000000000000000000000000000000000000REP       REP Attorney General                                    George P. Bush                        Precinct 3                                             01 
00100020004000055000014000019000022000000000000000000000000000000000000000000000000000000000000000000REP       REP Attorney General                                    George P. Bush                        Precinct 4                                             01 
00100030001000000000000000000000000000000000000000000000000000000000000000000000000000000000000000000          REP Attorney General                                    OVER VOTES                            Precinct 1                                             01 
00100030002000000000000000000000000000000000000000000000000000000000000000000000000000000000000000000          REP Attorney General                                    OVER VOTES                            Precinct 2                                             01 
00100030003000000000000000000000000000000000000000000000000000000000000000000000000000000000000000000          REP Attorney General                                    OVER VOTES                            Precinct 3                                             01 
00100030004000000000000000000000000000000000000000000000000000000000000000000000000000000000000000000          REP Attorney General                                    OVER VOTES                            Precinct 4                                             01 
00100040001000000000000000000000000000000000000000000000000000000000000000000000000000000000000000000          REP Attorney General                                    UNDER VOTES                           Precinct 1                                             01 
00100040002000000000000000000000000000000000000000000000000000000000000000000000000000000000000000000          REP Attorney General                                    UNDER VOTES                           Precinct 2                                             01 
00100040003000000000000000000000000000000000000000000000000000000000000000000000000000000000000000000          REP Attorney General                                    UNDER VOTES                           Precinct 3                                             01 
00100040004000001000000000001000000000000000000000000000000000000000000000000000000000000000000000000          REP Attorney General                                    UNDER VOTES                           Precinct 4                                             01 
00110010001000241000041000069000131000000000000000000000000000000000000000000000000000000000000000000REP       REP Comm of the General Land Office                     Dawn Buckingham                       Precinct 1                                             01 
00110010002000267000047000064000156000000000000000000000000000000000000000000000000000000000000000000REP       REP Comm of the General Land Office                     Dawn Buckingham                       Precinct 2                                             01 
00110010003000238000041000056000141000000000000000000000000000000000000000000000000000000000000000000REP       REP Comm of the General Land Office                     Dawn Buckingham                       Precinct 3                                             01 
00110010004000287000019000089000179000000000000000000000000000000000000000000000000000000000000000000REP       REP Comm of the General Land Office                     Dawn Buckingham                       Precinct 4                                             01 
00110020001000067000010000018000039000000000000000000000000000000000000000000000000000000000000000000REP       REP Comm of the General Land Office                     Tim Westley                           Precinct 1                                             01 
00110020002000114000031000018000065000000000000000000000000000000000000000000000000000000000000000000REP       REP Comm of the General Land Office                     Tim Westley                           Precinct 2                                             01 
00110020003000072000021000018000033000000000000000000000000000000000000000000000000000000000000000000REP       REP Comm of the General Land Office                     Tim Westley                           Precinct 3                                             01 
00110020004000081000012000021000048000000000000000000000000000000000000000000000000000000000000000000REP       REP Comm of the General Land Office                     Tim Westley                           Precinct 4                                             01 
00110030001000000000000000000000000000000000000000000000000000000000000000000000000000000000000000000          REP Comm of the General Land Office                     OVER VOTES                            Precinct 1                                             01 
00110030002000000000000000000000000000000000000000000000000000000000000000000000000000000000000000000          REP Comm of the General Land Office                     OVER VOTES                            Precinct 2                                             01 
00110030003000000000000000000000000000000000000000000000000000000000000000000000000000000000000000000          REP Comm of the General Land Office                     OVER VOTES                            Precinct 3                                             01 
00110030004000000000000000000000000000000000000000000000000000000000000000000000000000000000000000000          REP Comm of the General Land Office                     OVER VOTES                            Precinct 4                                             01 
00110040001000012000003000002000007000000000000000000000000000000000000000000000000000000000000000000          REP Comm of the General Land Office                     UNDER VOTES                           Precinct 1                                             01 
00110040002000037000012000005000020000000000000000000000000000000000000000000000000000000000000000000          REP Comm of the General Land Office                     UNDER VOTES                           Precinct 2                                             01 
00110040003000033000010000003000020000000000000000000000000000000000000000000000000000000000000000000          REP Comm of the General Land Office                     UNDER VOTES                           Precinct 3                                             01 
00110040004000029000007000010000012000000000000000000000000000000000000000000000000000000000000000000          REP Comm of the General Land Office                     UNDER VOTES                           Precinct 4                                             01 
00120010001000247000040000073000134000000000000000000000000000000000000000000000000000000000000000000REP       REP Railroad Commissioner                               Wayne Christian                       Precinct 1                                             01 
00120010002000325000068000071000186000000000000000000000000000000000000000000000000000000000000000000REP       REP Railroad Commissioner                               Wayne Christian                       Precinct 2                                             01 
00120010003000255000055000063000137000000000000000000000000000000000000000000000000000000000000000000REP       REP Railroad Commissioner                               Wayne Christian                       Precinct 3                                             01 
00120010004000299000025000087000187000000000000000000000000000000000000000000000000000000000000000000REP       REP Railroad Commissioner                               Wayne Christian                       Precinct 4                                             01 
00120020001000067000014000015000038000000000000000000000000000000000000000000000000000000000000000000REP       REP Railroad Commissioner                               Sarah Stogner                         Precinct 1                                             01 
00120020002000070000017000011000042000000000000000000000000000000000000000000000000000000000000000000REP       REP Railroad Commissioner                               Sarah Stogner                         Precinct 2                                             01 
00120020003000071000015000011000045000000000000000000000000000000000000000000000000000000000000000000REP       REP Railroad Commissioner                               Sarah Stogner                         Precinct 3                                             01 
00120020004000075000011000026000038000000000000000000000000000000000000000000000000000000000000000000REP       REP Railroad Commissioner                               Sarah Stogner                         Precinct 4                                             01 
00120030001000000000000000000000000000000000000000000000000000000000000000000000000000000000000000000          REP Railroad Commissioner                               OVER VOTES                            Precinct 1                                             01 
00120030002000000000000000000000000000000000000000000000000000000000000000000000000000000000000000000          REP Railroad Commissioner                               OVER VOTES                            Precinct 2                                             01 
00120030003000000000000000000000000000000000000000000000000000000000000000000000000000000000000000000          REP Railroad Commissioner                               OVER VOTES                            Precinct 3                                             01 
00120030004000000000000000000000000000000000000000000000000000000000000000000000000000000000000000000          REP Railroad Commissioner                               OVER VOTES                            Precinct 4                                             01 
00120040001000006000000000001000005000000000000000000000000000000000000000000000000000000000000000000          REP Railroad Commissioner                               UNDER VOTES                           Precinct 1                                             01 
00120040002000023000005000005000013000000000000000000000000000000000000000000000000000000000000000000          REP Railroad Commissioner                               UNDER VOTES                           Precinct 2                                             01 
00120040003000017000002000003000012000000000000000000000000000000000000000000000000000000000000000000          REP Railroad Commissioner                               UNDER VOTES                           Precinct 3                                             01 
00120040004000023000002000007000014000000000000000000000000000000000000000000000000000000000000000000          REP Railroad Commissioner                               UNDER VOTES                           Precinct 4                                             01 
00130010001000096000062000011000023000000000000000000000000000000000000000000000000000000000000000000DEM       DEM Lieutenant Governor                                 Mike Collier                          Precinct 1                                             01 
00130010002000034000022000004000008000000000000000000000000000000000000000000000000000000000000000000DEM       DEM Lieutenant Governor                                 Mike Collier                          Precinct 2                                             01 
00130010003000045000033000004000008000000000000000000000000000000000000000000000000000000000000000000DEM       DEM Lieutenant Governor                                 Mike Collier                          Precinct 3                                             01 
00130010004000027000012000011000004000000000000000000000000000000000000000000000000000000000000000000DEM       DEM Lieutenant Governor                                 Mike Collier                          Precinct 4                                             01 
00130020001000081000052000009000020000000000000000000000000000000000000000000000000000000000000000000DEM       DEM Lieutenant Governor                                 Michelle Beckley                      Precinct 1                                             01 
00130020002000033000024000002000007000000000000000000000000000000000000000000000000000000000000000000DEM       DEM Lieutenant Governor                                 Michelle Beckley                      Precinct 2                                             01 
00130020003000032000025000006000001000000000000000000000000000000000000000000000000000000000000000000DEM       DEM Lieutenant Governor                                 Michelle Beckley                      Precinct 3                                             01 
00130020004000026000016000005000005000000000000000000000000000000000000000000000000000000000000000000DEM       DEM Lieutenant Governor                                 Michelle Beckley                      Precinct 4                                             01 
00130030001000000000000000000000000000000000000000000000000000000000000000000000000000000000000000000          DEM Lieutenant Governor                                 OVER VOTES                            Precinct 1                                             01 
00130030002000000000000000000000000000000000000000000000000000000000000000000000000000000000000000000          DEM Lieutenant Governor                                 OVER VOTES                            Precinct 2                                             01 
00130030003000000000000000000000000000000000000000000000000000000000000000000000000000000000000000000          DEM Lieutenant Governor                                 OVER VOTES                            Precinct 3                                             01 
00130030004000000000000000000000000000000000000000000000000000000000000000000000000000000000000000000          DEM Lieutenant Governor                                 OVER VOTES                            Precinct 4                                             01 
00130040001000002000001000001000000000000000000000000000000000000000000000000000000000000000000000000          DEM Lieutenant Governor                                 UNDER VOTES                           Precinct 1                                             01 
00130040002000000000000000000000000000000000000000000000000000000000000000000000000000000000000000000          DEM Lieutenant Governor                                 UNDER VOTES                           Precinct 2                                             01 
00130040003000001000000000000000001000000000000000000000000000000000000000000000000000000000000000000          DEM Lieutenant Governor                                 UNDER VOTES                           Precinct 3                                             01 
00130040004000000000000000000000000000000000000000000000000000000000000000000000000000000000000000000          DEM Lieutenant Governor                                 UNDER VOTES                           Precinct 4                                             01 
00140010001000087000058000012000017000000000000000000000000000000000000000000000000000000000000000000DEM       DEM Attorney General                                    Joe Jaworski                          Precinct 1                                             01 
00140010002000031000022000004000005000000000000000000000000000000000000000000000000000000000000000000DEM       DEM Attorney General                                    Joe Jaworski                          Precinct 2                                             01 
00140010003000046000036000005000005000000000000000000000000000000000000000000000000000000000000000000DEM       DEM Attorney General                                    Joe Jaworski                          Precinct 3                                             01 
00140010004000032000018000010000004000000000000000000000000000000000000000000000000000000000000000000DEM       DEM Attorney General                                    Joe Jaworski                          Precinct 4                                             01 
00140020001000087000053000008000026000000000000000000000000000000000000000000000000000000000000000000DEM       DEM Attorney General                                    Rochelle Mercedes Garza               Precinct 1                                             01 
00140020002000035000023000002000010000000000000000000000000000000000000000000000000000000000000000000DEM       DEM Attorney General                                    Rochelle Mercedes Garza               Precinct 2                                             01 
00140020003000032000022000005000005000000000000000000000000000000000000000000000000000000000000000000DEM       DEM Attorney General                                    Rochelle Mercedes Garza               Precinct 3                                             01 
00140020004000020000009000006000005000000000000000000000000000000000000000000000000000000000000000000DEM       DEM Attorney General                                    Rochelle Mercedes Garza               Precinct 4                                             01 
00140030001000000000000000000000000000000000000000000000000000000000000000000000000000000000000000000          DEM Attorney General                                    OVER VOTES                            Precinct 1                                             01 
00140030002000000000000000000000000000000000000000000000000000000000000000000000000000000000000000000          DEM Attorney General                                    OVER VOTES                            Precinct 2                                             01 
00140030003000000000000000000000000000000000000000000000000000000000000000000000000000000000000000000          DEM Attorney General                                    OVER VOTES                            Precinct 3                                             01 
00140030004000000000000000000000000000000000000000000000000000000000000000000000000000000000000000000          DEM Attorney General                                    OVER VOTES                            Precinct 4                                             01 
00140040001000005000004000001000000000000000000000000000000000000000000000000000000000000000000000000          DEM Attorney General                                    UNDER VOTES                           Precinct 1                                             01 
00140040002000001000001000000000000000000000000000000000000000000000000000000000000000000000000000000          DEM Attorney General                                    UNDER VOTES                           Precinct 2                                             01 
00140040003000000000000000000000000000000000000000000000000000000000000000000000000000000000000000000          DEM Attorney General                                    UNDER VOTES                           Precinct 3                                             01 
00140040004000001000001000000000000000000000000000000000000000000000000000000000000000000000000000000          DEM Attorney General                                    UNDER VOTES                           Precinct 4                                             01 
00150010001000067000031000012000024000000000000000000000000000000000000000000000000000000000000000000DEM       DEM Comptroller of Public Accounts                      Angel Luis Vega                       Precinct 1                                             01 
00150010002000021000014000001000006000000000000000000000000000000000000000000000000000000000000000000DEM       DEM Comptroller of Public Accounts                      Angel Luis Vega                       Precinct 2                                             01 
00150010003000024000015000004000005000000000000000000000000000000000000000000000000000000000000000000DEM       DEM Comptroller of Public Accounts                      Angel Luis Vega                       Precinct 3                                             01 
00150010004000020000010000007000003000000000000000000000000000000000000000000000000000000000000000000DEM       DEM Comptroller of Public Accounts                      Angel Luis Vega                       Precinct 4                                             01 
00150020001000107000080000008000019000000000000000000000000000000000000000000000000000000000000000000DEM       DEM Comptroller of Public Accounts                      Janet T. Dudding                      Precinct 1                                             01 
00150020002000042000029000004000009000000000000000000000000000000000000000000000000000000000000000000DEM       DEM Comptroller of Public Accounts                      Janet T. Dudding                      Precinct 2                                             01 
00150020003000052000042000006000004000000000000000000000000000000000000000000000000000000000000000000DEM       DEM Comptroller of Public Accounts                      Janet T. Dudding                      Precinct 3                                             01 
00150020004000032000018000009000005000000000000000000000000000000000000000000000000000000000000000000DEM       DEM Comptroller of Public Accounts                      Janet T. Dudding                      Precinct 4                                             01 
00150030001000000000000000000000000000000000000000000000000000000000000000000000000000000000000000000          DEM Comptroller of Public Accounts                      OVER VOTES                            Precinct 1                                             01 
00150030002000000000000000000000000000000000000000000000000000000000000000000000000000000000000000000          DEM Comptroller of Public Accounts                      OVER VOTES                            Precinct 2                                             01 
00150030003000000000000000000000000000000000000000000000000000000000000000000000000000000000000000000          DEM Comptroller of Public Accounts                      OVER VOTES                            Precinct 3                                             01 
00150030004000000000000000000000000000000000000000000000000000000000000000000000000000000000000000000          DEM Comptroller of Public Accounts                      OVER VOTES                            Precinct 4                                             01 
00150040001000005000004000001000000000000000000000000000000000000000000000000000000000000000000000000          DEM Comptroller of Public Accounts                      UNDER VOTES                           Precinct 1                                             01 
00150040002000004000003000001000000000000000000000000000000000000000000000000000000000000000000000000          DEM Comptroller of Public Accounts                      UNDER VOTES                           Precinct 2                                             01 
00150040003000002000001000000000001000000000000000000000000000000000000000000000000000000000000000000          DEM Comptroller of Public Accounts                      UNDER VOTES                           Precinct 3                                             01 
00150040004000001000000000000000001000000000000000000000000000000000000000000000000000000000000000000          DEM Comptroller of Public Accounts                      UNDER VOTES                           Precinct 4                                             01 
00160010001000090000053000008000029000000000000000000000000000000000000000000000000000000000000000000DEM       DEM Comm of the General Land Office                     Sandragrace Martinez                  Precinct 1                                             01 
00160010002000031000023000001000007000000000000000000000000000000000000000000000000000000000000000000DEM       DEM Comm of the General Land Office                     Sandragrace Martinez                  Precinct 2                                             01 
00160010003000034000027000004000003000000000000000000000000000000000000000000000000000000000000000000DEM       DEM Comm of the General Land Office                     Sandragrace Martinez                  Precinct 3                                             01 
00160010004000022000010000008000004000000000000000000000000000000000000000000000000000000000000000000DEM       DEM Comm of the General Land Office                     Sandragrace Martinez                  Precinct 4                                             01 
00160020001000085000059000012000014000000000000000000000000000000000000000000000000000000000000000000DEM       DEM Comm of the General Land Office                     Jay Kleberg                           Precinct 1                                             01 
00160020002000035000023000004000008000000000000000000000000000000000000000000000000000000000000000000DEM       DEM Comm of the General Land Office                     Jay Kleberg                           Precinct 2                                             01 
00160020003000043000031000006000006000000000000000000000000000000000000000000000000000000000000000000DEM       DEM Comm of the General Land Office                     Jay Kleberg                           Precinct 3                                             01 
00160020004000030000018000008000004000000000000000000000000000000000000000000000000000000000000000000DEM       DEM Comm of the General Land Office                     Jay Kleberg                           Precinct 4                                             01 
00160030001000000000000000000000000000000000000000000000000000000000000000000000000000000000000000000          DEM Comm of the General Land Office                     OVER VOTES                            Precinct 1                                             01 
00160030002000000000000000000000000000000000000000000000000000000000000000000000000000000000000000000          DEM Comm of the General Land Office                     OVER VOTES                            Precinct 2                                             01 
00160030003000000000000000000000000000000000000000000000000000000000000000000000000000000000000000000          DEM Comm of the General Land Office                     OVER VOTES                            Precinct 3                                             01 
00160030004000000000000000000000000000000000000000000000000000000000000000000000000000000000000000000          DEM Comm of the General Land Office                     OVER VOTES                            Precinct 4                                             01 
00160040001000004000003000001000000000000000000000000000000000000000000000000000000000000000000000000          DEM Comm of the General Land Office                     UNDER VOTES                           Precinct 1                                             01 
00160040002000001000000000001000000000000000000000000000000000000000000000000000000000000000000000000          DEM Comm of the General Land Office                     UNDER VOTES                           Precinct 2                                             01 
00160040003000001000000000000000001000000000000000000000000000000000000000000000000000000000000000000          DEM Comm of the General Land Office                     UNDER VOTES                           Precinct 3                                             01 
00160040004000001000000000000000001000000000000000000000000000000000000000000000000000000000000000000          DEM Comm of the General Land Office                     UNDER VOTES                           Precinct 4                                             01 
