00010010001000000000000000000000000000000000000000000000000000000000000000000000000000000000000000000          REGISTERED VOTERS - TOTAL                               REGISTERED VOTERS - TOTAL             Pct. 101                                               00 
00010010002000000000000000000000000000000000000000000000000000000000000000000000000000000000000000000          REGISTERED VOTERS - TOTAL                               REGISTERED VOTERS - TOTAL             Pct. 201                                               00 
00010010003000000000000000000000000000000000000000000000000000000000000000000000000000000000000000000          REGISTERED VOTERS - TOTAL                               REGISTERED VOTERS - TOTAL             Pct. 202                                               00 
00010010004000000000000000000000000000000000000000000000000000000000000000000000000000000000000000000          REGISTERED VOTERS - TOTAL                               REGISTERED VOTERS - TOTAL             Pct. 301                                               00 
00010010005000000000000000000000000000000000000000000000000000000000000000000000000000000000000000000          REGISTERED VOTERS - TOTAL                               REGISTERED VOTERS - TOTAL             Pct. 303                                               00 
00010010006000000000000000000000000000000000000000000000000000000000000000000000000000000000000000000          REGISTERED VOTERS - TOTAL                               REGISTERED VOTERS - TOTAL             Pct. 401                                               00 
00010010007000000000000000000000000000000000000000000000000000000000000000000000000000000000000000000          REGISTERED VOTERS - TOTAL                               REGISTERED VOTERS - TOTAL             Pct. 402                                               00 
00020010001000000000000000000000000000000000000000000000000000000000000000000000000000000000000000000REP       REGISTERED VOTERS - Republican Party                    REGISTERED VOTERS - Republican Party  Pct. 101                                               00 
00020010002000000000000000000000000000000000000000000000000000000000000000000000000000000000000000000REP       REGISTERED VOTERS - Republican Party                    REGISTERED VOTERS - Republican Party  Pct. 201                                               00 
00020010003000000000000000000000000000000000000000000000000000000000000000000000000000000000000000000REP       REGISTERED VOTERS - Republican Party                    REGISTERED VOTERS - Republican Party  Pct. 202                                               00 
00020010004000000000000000000000000000000000000000000000000000000000000000000000000000000000000000000REP       REGISTERED VOTERS - Republican Party                    REGISTERED VOTERS - Republican Party  Pct. 301                                               00 
00020010005000000000000000000000000000000000000000000000000000000000000000000000000000000000000000000REP       REGISTERED VOTERS - Republican Party                    REGISTERED VOTERS - Republican Party  Pct. 303                                               00 
00020010006000000000000000000000000000000000000000000000000000000000000000000000000000000000000000000REP       REGISTERED VOTERS - Republican Party                    REGISTERED VOTERS - Republican Party  Pct. 401                                               00 
00020010007000000000000000000000000000000000000000000000000000000000000000000000000000000000000000000REP       REGISTERED VOTERS - Republican Party                    REGISTERED VOTERS - Republican Party  Pct. 402                                               00 
00030010001000000000000000000000000000000000000000000000000000000000000000000000000000000000000000000DEM       REGISTERED VOTERS - Democratic Party                    REGISTERED VOTERS - Democratic Party  Pct. 101                                               00 
00030010002000000000000000000000000000000000000000000000000000000000000000000000000000000000000000000DEM       REGISTERED VOTERS - Democratic Party                    REGISTERED VOTERS - Democratic Party  Pct. 201                                               00 
00030010003000000000000000000000000000000000000000000000000000000000000000000000000000000000000000000DEM       REGISTERED VOTERS - Democratic Party                    REGISTERED VOTERS - Democratic Party  Pct. 202                                               00 
00030010004000000000000000000000000000000000000000000000000000000000000000000000000000000000000000000DEM       REGISTERED VOTERS - Democratic Party                    REGISTERED VOTERS - Democratic Party  Pct. 301                                               00 
00030010005000000000000000000000000000000000000000000000000000000000000000000000000000000000000000000DEM       REGISTERED VOTERS - Democratic Party                    REGISTERED VOTERS - Democratic Party  Pct. 303                                               00 
00030010006000000000000000000000000000000000000000000000000000000000000000000000000000000000000000000DEM       REGISTERED VOTERS - Democratic Party                    REGISTERED VOTERS - Democratic Party  Pct. 401                                               00 
00030010007000000000000000000000000000000000000000000000000000000000000000000000000000000000000000000DEM       REGISTERED VOTERS - Democratic Party                    REGISTERED VOTERS - Democratic Party  Pct. 402                                               00 
00040010001000000000000000000000000000000000000000000000000000000000000000000000000000000000000000000NON       REGISTERED VOTERS - NONPARTISAN                         REGISTERED VOTERS - NONPARTISAN       Pct. 101                                               00 
00040010002000000000000000000000000000000000000000000000000000000000000000000000000000000000000000000NON       REGISTERED VOTERS - NONPARTISAN                         REGISTERED VOTERS - NONPARTISAN       Pct. 201                                               00 
00040010003000000000000000000000000000000000000000000000000000000000000000000000000000000000000000000NON       REGISTERED VOTERS - NONPARTISAN                         REGISTERED VOTERS - NONPARTISAN       Pct. 202                                               00 
00040010004000000000000000000000000000000000000000000000000000000000000000000000000000000000000000000NON       REGISTERED VOTERS - NONPARTISAN                         REGISTERED VOTERS - NONPARTISAN       Pct. 301                                               00 
00040010005000000000000000000000000000000000000000000000000000000000000000000000000000000000000000000NON       REGISTERED VOTERS - NONPARTISAN                         REGISTERED VOTERS - NONPARTISAN       Pct. 303                                               00 
00040010006000000000000000000000000000000000000000000000000000000000000000000000000000000000000000000NON       REGISTERED VOTERS - NONPARTISAN                         REGISTERED VOTERS - NONPARTISAN       Pct. 401                                               00 
00040010007000000000000000000000000000000000000000000000000000000000000000000000000000000000000000000NON       REGISTERED VOTERS - NONPARTISAN                         REGISTERED VOTERS - NONPARTISAN       Pct. 402                                               00 
00050010001000081000012000004000065000000000000000000000000000000000000000000000000000000000000000000          BALLOTS CAST - TOTAL                                    BALLOTS CAST - TOTAL                  Pct. 101                                               00 
00050010002000024000010000000000014000000000000000000000000000000000000000000000000000000000000000000          BALLOTS CAST - TOTAL                                    BALLOTS CAST - TOTAL                  Pct. 201                                               00 
00050010003000034000002000003000029000000000000000000000000000000000000000000000000000000000000000000          BALLOTS CAST - TOTAL                                    BALLOTS CAST - TOTAL                  Pct. 202                                               00 
00050010004000064000009000007000048000000000000000000000000000000000000000000000000000000000000000000          BALLOTS CAST - TOTAL                                    BALLOTS CAST - TOTAL                  Pct. 301                                               00 
00050010005000003000001000000000002000000000000000000000000000000000000000000000000000000000000000000          BALLOTS CAST - TOTAL                                    BALLOTS CAST - TOTAL                  Pct. 303                                               00 
00050010006000025000003000000000022000000000000000000000000000000000000000000000000000000000000000000          BALLOTS CAST - TOTAL                                    BALLOTS CAST - TOTAL                  Pct. 401                                               00 
00050010007000005000001000000000004000000000000000000000000000000000000000000000000000000000000000000          BALLOTS CAST - TOTAL                                    BALLOTS CAST - TOTAL                  Pct. 402                                               00 
00060010001000079000012000004000063000000000000000000000000000000000000000000000000000000000000000000REP       BALLOTS CAST - Republican Party                         BALLOTS CAST - Republican Party       Pct. 101                                               00 
00060010002000022000008000000000014000000000000000000000000000000000000000000000000000000000000000000REP       BALLOTS CAST - Republican Party                         BALLOTS CAST - Republican Party       Pct. 201                                               00 
00060010003000034000002000003000029000000000000000000000000000000000000000000000000000000000000000000REP       BALLOTS CAST - Republican Party                         BALLOTS CAST - Republican Party       Pct. 202                                               00 
00060010004000057000003000007000047000000000000000000000000000000000000000000000000000000000000000000REP       BALLOTS CAST - Republican Party                         BALLOTS CAST - Republican Party       Pct. 301                                               00 
00060010005000003000001000000000002000000000000000000000000000000000000000000000000000000000000000000REP       BALLOTS CAST - Republican Party                         BALLOTS CAST - Republican Party       Pct. 303                                               00 
00060010006000025000003000000000022000000000000000000000000000000000000000000000000000000000000000000REP       BALLOTS CAST - Republican Party                         BALLOTS CAST - Republican Party       Pct. 401                                               00 
00060010007000004000001000000000003000000000000000000000000000000000000000000000000000000000000000000REP       BALLOTS CAST - Republican Party                         BALLOTS CAST - Republican Party       Pct. 402                                               00 
00070010001000002000000000000000002000000000000000000000000000000000000000000000000000000000000000000DEM       BALLOTS CAST - Democratic Party                         BALLOTS CAST - Democratic Party       Pct. 101                                               00 
00070010002000002000002000000000000000000000000000000000000000000000000000000000000000000000000000000DEM       BALLOTS CAST - Democratic Party                         BALLOTS CAST - Democratic Party       Pct. 201                                               00 
00070010003000000000000000000000000000000000000000000000000000000000000000000000000000000000000000000DEM       BALLOTS CAST - Democratic Party                         BALLOTS CAST - Democratic Party       Pct. 202                                               00 
00070010004000007000006000000000001000000000000000000000000000000000000000000000000000000000000000000DEM       BALLOTS CAST - Democratic Party                         BALLOTS CAST - Democratic Party       Pct. 301                                               00 
00070010005000000000000000000000000000000000000000000000000000000000000000000000000000000000000000000DEM       BALLOTS CAST - Democratic Party                         BALLOTS CAST - Democratic Party       Pct. 303                                               00 
00070010006000000000000000000000000000000000000000000000000000000000000000000000000000000000000000000DEM       BALLOTS CAST - Democratic Party                         BALLOTS CAST - Democratic Party       Pct. 401                                               00 
00070010007000001000000000000000001000000000000000000000000000000000000000000000000000000000000000000DEM       BALLOTS CAST - Democratic Party                         BALLOTS CAST - Democratic Party       Pct. 402                                               00 
00080010001000000000000000000000000000000000000000000000000000000000000000000000000000000000000000000NON       BALLOTS CAST - NONPARTISAN                              BALLOTS CAST - NONPARTISAN            Pct. 101                                               00 
00080010002000000000000000000000000000000000000000000000000000000000000000000000000000000000000000000NON       BALLOTS CAST - NONPARTISAN                              BALLOTS CAST - NONPARTISAN            Pct. 201                                               00 
00080010003000000000000000000000000000000000000000000000000000000000000000000000000000000000000000000NON       BALLOTS CAST - NONPARTISAN                              BALLOTS CAST - NONPARTISAN            Pct. 202                                               00 
00080010004000000000000000000000000000000000000000000000000000000000000000000000000000000000000000000NON       BALLOTS CAST - NONPARTISAN                              BALLOTS CAST - NONPARTISAN            Pct. 301                                               00 
00080010005000000000000000000000000000000000000000000000000000000000000000000000000000000000000000000NON       BALLOTS CAST - NONPARTISAN                              BALLOTS CAST - NONPARTISAN            Pct. 303                                               00 
00080010006000000000000000000000000000000000000000000000000000000000000000000000000000000000000000000NON       BALLOTS CAST - NONPARTISAN                              BALLOTS CAST - NONPARTISAN            Pct. 401                                               00 
00080010007000000000000000000000000000000000000000000000000000000000000000000000000000000000000000000NON       BALLOTS CAST - NONPARTISAN                              BALLOTS CAST - NONPARTISAN            Pct. 402                                               00 
00090010001000000000000000000000000000000000000000000000000000000000000000000000000000000000000000000          BALLOTS CAST - BLANK                                    BALLOTS CAST - BLANK                  Pct. 101                                               00 
00090010002000000000000000000000000000000000000000000000000000000000000000000000000000000000000000000          BALLOTS CAST - BLANK                                    BALLOTS CAST - BLANK                  Pct. 201                                               00 
00090010003000000000000000000000000000000000000000000000000000000000000000000000000000000000000000000          BALLOTS CAST - BLANK                                    BALLOTS CAST - BLANK                  Pct. 202                                               00 
00090010004000000000000000000000000000000000000000000000000000000000000000000000000000000000000000000          BALLOTS CAST - BLANK                                    BALLOTS CAST - BLANK                  Pct. 301                                               00 
00090010005000000000000000000000000000000000000000000000000000000000000000000000000000000000000000000          BALLOTS CAST - BLANK                                    BALLOTS CAST - BLANK                  Pct. 303                                               00 
00090010006000000000000000000000000000000000000000000000000000000000000000000000000000000000000000000          BALLOTS CAST - BLANK                                    BALLOTS CAST - BLANK                  Pct. 401                                               00 
00090010007000000000000000000000000000000000000000000000000000000000000000000000000000000000000000000          BALLOTS CAST - BLANK                                    BALLOTS CAST - BLANK                  Pct. 402                                               00 
00100010001000058000011000002000045000000000000000000000000000000000000000000000000000000000000000000REP       REP Attorney General                                    Ken Paxton                            Pct. 101                                               01 
00100010002000019000008000000000011000000000000000000000000000000000000000000000000000000000000000000REP       REP Attorney General                                    Ken Paxton                            Pct. 201                                               01 
00100010003000028000001000003000024000000000000000000000000000000000000000000000000000000000000000000REP       REP Attorney General                                    Ken Paxton                            Pct. 202                                               01 
00100010004000049000003000006000040000000000000000000000000000000000000000000000000000000000000000000REP       REP Attorney General                                    Ken Paxton                            Pct. 301                                               01 
00100010005000003000001000000000002000000000000000000000000000000000000000000000000000000000000000000REP       REP Attorney General                                    Ken Paxton                            Pct. 303                                               01 
00100010006000021000003000000000018000000000000000000000000000000000000000000000000000000000000000000REP       REP Attorney General                                    Ken Paxton                            Pct. 401                                               01 
00100010007000002000001000000000001000000000000000000000000000000000000000000000000000000000000000000REP       REP Attorney General                                    Ken Paxton                            Pct. 402                                               01 
00100020001000021000001000002000018000000000000000000000000000000000000000000000000000000000000000000REP       REP Attorney General                                    George P. Bush                        Pct. 101                                               01 
00100020002000003000000000000000003000000000000000000000000000000000000000000000000000000000000000000REP       REP Attorney General                                    George P. Bush                        Pct. 201                                               01 
00100020003000006000001000000000005000000000000000000000000000000000000000000000000000000000000000000REP       REP Attorney General                                    George P. Bush                        Pct. 202                                               01 
00100020004000008000000000001000007000000000000000000000000000000000000000000000000000000000000000000REP       REP Attorney General                                    George P. Bush                        Pct. 301                                               01 
00100020005000000000000000000000000000000000000000000000000000000000000000000000000000000000000000000REP       REP Attorney General                                    George P. Bush                        Pct. 303                                               01 
00100020006000004000000000000000004000000000000000000000000000000000000000000000000000000000000000000REP       REP Attorney General                                    George P. Bush                        Pct. 401                                               01 
00100020007000001000000000000000001000000000000000000000000000000000000000000000000000000000000000000REP       REP Attorney General                                    George P. Bush                        Pct. 402                                               01 
00100030001000000000000000000000000000000000000000000000000000000000000000000000000000000000000000000          REP Attorney General                                    OVER VOTES                            Pct. 101                                               01 
00100030002000000000000000000000000000000000000000000000000000000000000000000000000000000000000000000          REP Attorney General                                    OVER VOTES                            Pct. 201                                               01 
00100030003000000000000000000000000000000000000000000000000000000000000000000000000000000000000000000          REP Attorney General                                    OVER VOTES                            Pct. 202                                               01 
00100030004000000000000000000000000000000000000000000000000000000000000000000000000000000000000000000          REP Attorney General                                    OVER VOTES                            Pct. 301                                               01 
00100030005000000000000000000000000000000000000000000000000000000000000000000000000000000000000000000          REP Attorney General                                    OVER VOTES                            Pct. 303                                               01 
00100030006000000000000000000000000000000000000000000000000000000000000000000000000000000000000000000          REP Attorney General                                    OVER VOTES                            Pct. 401                                               01 
00100030007000001000000000000000001000000000000000000000000000000000000000000000000000000000000000000          REP Attorney General                                    OVER VOTES                            Pct. 402                                               01 
00100040001000000000000000000000000000000000000000000000000000000000000000000000000000000000000000000          REP Attorney General                                    UNDER VOTES                           Pct. 101                                               01 
00100040002000000000000000000000000000000000000000000000000000000000000000000000000000000000000000000          REP Attorney General                                    UNDER VOTES                           Pct. 201                                               01 
00100040003000000000000000000000000000000000000000000000000000000000000000000000000000000000000000000          REP Attorney General                                    UNDER VOTES                           Pct. 202                                               01 
00100040004000000000000000000000000000000000000000000000000000000000000000000000000000000000000000000          REP Attorney General                                    UNDER VOTES                           Pct. 301                                               01 
00100040005000000000000000000000000000000000000000000000000000000000000000000000000000000000000000000          REP Attorney General                                    UNDER VOTES                           Pct. 303                                               01 
00100040006000000000000000000000000000000000000000000000000000000000000000000000000000000000000000000          REP Attorney General                                    UNDER VOTES                           Pct. 401                                               01 
00100040007000000000000000000000000000000000000000000000000000000000000000000000000000000000000000000          REP Attorney General                                    UNDER VOTES                           Pct. 402                                               01 
00110010001000030000009000001000020000000000000000000000000000000000000000000000000000000000000000000REP       REP Comm General Land Office                            Tim Westley                           Pct. 101                                               01 
00110010002000013000004000000000009000000000000000000000000000000000000000000000000000000000000000000REP       REP Comm General Land Office                            Tim Westley                           Pct. 201                                               01 
00110010003000019000001000000000018000000000000000000000000000000000000000000000000000000000000000000REP       REP Comm General Land Office                            Tim Westley                           Pct. 202                                               01 
00110010004000019000000000004000015000000000000000000000000000000000000000000000000000000000000000000REP       REP Comm General Land Office                            Tim Westley                           Pct. 301                                               01 
00110010005000002000001000000000001000000000000000000000000000000000000000000000000000000000000000000REP       REP Comm General Land Office                            Tim Westley                           Pct. 303                                               01 
00110010006000016000002000000000014000000000000000000000000000000000000000000000000000000000000000000REP       REP Comm General Land Office                            Tim Westley                           Pct. 401                                               01 
00110010007000003000000000000000003000000000000000000000000000000000000000000000000000000000000000000REP       REP Comm General Land Office                            Tim Westley                           Pct. 402                                               01 
00110020001000046000003000003000040000000000000000000000000000000000000000000000000000000000000000000REP       REP Comm General Land Office                            Dawn Buckingham                       Pct. 101                                               01 
00110020002000009000004000000000005000000000000000000000000000000000000000000000000000000000000000000REP       REP Comm General Land Office                            Dawn Buckingham                       Pct. 201                                               01 
00110020003000015000001000003000011000000000000000000000000000000000000000000000000000000000000000000REP       REP Comm General Land Office                            Dawn Buckingham                       Pct. 202                                               01 
00110020004000037000003000003000031000000000000000000000000000000000000000000000000000000000000000000REP       REP Comm General Land Office                            Dawn Buckingham                       Pct. 301                                               01 
00110020005000001000000000000000001000000000000000000000000000000000000000000000000000000000000000000REP       REP Comm General Land Office                            Dawn Buckingham                       Pct. 303                                               01 
00110020006000007000000000000000007000000000000000000000000000000000000000000000000000000000000000000REP       REP Comm General Land Office                            Dawn Buckingham                       Pct. 401                                               01 
00110020007000001000001000000000000000000000000000000000000000000000000000000000000000000000000000000REP       REP Comm General Land Office                            Dawn Buckingham                       Pct. 402                                               01 
00110030001000000000000000000000000000000000000000000000000000000000000000000000000000000000000000000          REP Comm General Land Office                            OVER VOTES                            Pct. 101                                               01 
00110030002000000000000000000000000000000000000000000000000000000000000000000000000000000000000000000          REP Comm General Land Office                            OVER VOTES                            Pct. 201                                               01 
00110030003000000000000000000000000000000000000000000000000000000000000000000000000000000000000000000          REP Comm General Land Office                            OVER VOTES                            Pct. 202                                               01 
00110030004000000000000000000000000000000000000000000000000000000000000000000000000000000000000000000          REP Comm General Land Office                            OVER VOTES                            Pct. 301                                               01 
00110030005000000000000000000000000000000000000000000000000000000000000000000000000000000000000000000          REP Comm General Land Office                            OVER VOTES                            Pct. 303                                               01 
00110030006000000000000000000000000000000000000000000000000000000000000000000000000000000000000000000          REP Comm General Land Office                            OVER VOTES                            Pct. 401                                               01 
00110030007000000000000000000000000000000000000000000000000000000000000000000000000000000000000000000          REP Comm General Land Office                            OVER VOTES                            Pct. 402                                               01 
00110040001000003000000000000000003000000000000000000000000000000000000000000000000000000000000000000          REP Comm General Land Office                            UNDER VOTES                           Pct. 101                                               01 
00110040002000000000000000000000000000000000000000000000000000000000000000000000000000000000000000000          REP Comm General Land Office                            UNDER VOTES                           Pct. 201                                               01 
00110040003000000000000000000000000000000000000000000000000000000000000000000000000000000000000000000          REP Comm General Land Office                            UNDER VOTES                           Pct. 202                                               01 
00110040004000001000000000000000001000000000000000000000000000000000000000000000000000000000000000000          REP Comm General Land Office                            UNDER VOTES                           Pct. 301                                               01 
00110040005000000000000000000000000000000000000000000000000000000000000000000000000000000000000000000          REP Comm General Land Office                            UNDER VOTES                           Pct. 303                                               01 
00110040006000002000001000000000001000000000000000000000000000000000000000000000000000000000000000000          REP Comm General Land Office                            UNDER VOTES                           Pct. 401                                               01 
00110040007000000000000000000000000000000000000000000000000000000000000000000000000000000000000000000          REP Comm General Land Office                            UNDER VOTES                           Pct. 402                                               01 
00120010001000016000002000001000013000000000000000000000000000000000000000000000000000000000000000000REP       REP Railroad Commissioner                               Sarah Stogner                         Pct. 101                                               01 
00120010002000004000000000000000004000000000000000000000000000000000000000000000000000000000000000000REP       REP Railroad Commissioner                               Sarah Stogner                         Pct. 201                                               01 
00120010003000003000000000000000003000000000000000000000000000000000000000000000000000000000000000000REP       REP Railroad Commissioner                               Sarah Stogner                         Pct. 202                                               01 
00120010004000010000000000002000008000000000000000000000000000000000000000000000000000000000000000000REP       REP Railroad Commissioner                               Sarah Stogner                         Pct. 301                                               01 
00120010005000000000000000000000000000000000000000000000000000000000000000000000000000000000000000000REP       REP Railroad Commissioner                               Sarah Stogner                         Pct. 303                                               01 
00120010006000007000000000000000007000000000000000000000000000000000000000000000000000000000000000000REP       REP Railroad Commissioner                               Sarah Stogner                         Pct. 401                                               01 
00120010007000000000000000000000000000000000000000000000000000000000000000000000000000000000000000000REP       REP Railroad Commissioner                               Sarah Stogner                         Pct. 402                                               01 
00120020001000059000009000003000047000000000000000000000000000000000000000000000000000000000000000000REP       REP Railroad Commissioner                               Wayne Christian                       Pct. 101                                               01 
00120020002000018000008000000000010000000000000000000000000000000000000000000000000000000000000000000REP       REP Railroad Commissioner                               Wayne Christian                       Pct. 201                                               01 
00120020003000031000002000003000026000000000000000000000000000000000000000000000000000000000000000000REP       REP Railroad Commissioner                               Wayne Christian                       Pct. 202                                               01 
00120020004000044000003000005000036000000000000000000000000000000000000000000000000000000000000000000REP       REP Railroad Commissioner                               Wayne Christian                       Pct. 301                                               01 
00120020005000002000000000000000002000000000000000000000000000000000000000000000000000000000000000000REP       REP Railroad Commissioner                               Wayne Christian                       Pct. 303                                               01 
00120020006000018000003000000000015000000000000000000000000000000000000000000000000000000000000000000REP       REP Railroad Commissioner                               Wayne Christian                       Pct. 401                                               01 
00120020007000004000001000000000003000000000000000000000000000000000000000000000000000000000000000000REP       REP Railroad Commissioner                               Wayne Christian                       Pct. 402                                               01 
00120030001000000000000000000000000000000000000000000000000000000000000000000000000000000000000000000          REP Railroad Commissioner                               OVER VOTES                            Pct. 101                                               01 
00120030002000000000000000000000000000000000000000000000000000000000000000000000000000000000000000000          REP Railroad Commissioner                               OVER VOTES                            Pct. 201                                               01 
00120030003000000000000000000000000000000000000000000000000000000000000000000000000000000000000000000          REP Railroad Commissioner                               OVER VOTES                            Pct. 202                                               01 
00120030004000000000000000000000000000000000000000000000000000000000000000000000000000000000000000000          REP Railroad Commissioner                               OVER VOTES                            Pct. 301                                               01 
00120030005000000000000000000000000000000000000000000000000000000000000000000000000000000000000000000          REP Railroad Commissioner                               OVER VOTES                            Pct. 303                                               01 
00120030006000000000000000000000000000000000000000000000000000000000000000000000000000000000000000000          REP Railroad Commissioner                               OVER VOTES                            Pct. 401                                               01 
00120030007000000000000000000000000000000000000000000000000000000000000000000000000000000000000000000          REP Railroad Commissioner                               OVER VOTES                            Pct. 402                                               01 
00120040001000004000001000000000003000000000000000000000000000000000000000000000000000000000000000000          REP Railroad Commissioner                               UNDER VOTES                           Pct. 101                                               01 
00120040002000000000000000000000000000000000000000000000000000000000000000000000000000000000000000000          REP Railroad Commissioner                               UNDER VOTES                           Pct. 201                                               01 
00120040003000000000000000000000000000000000000000000000000000000000000000000000000000000000000000000          REP Railroad Commissioner                               UNDER VOTES                           Pct. 202                                               01 
00120040004000003000000000000000003000000000000000000000000000000000000000000000000000000000000000000          REP Railroad Commissioner                               UNDER VOTES                           Pct. 301                                               01 
00120040005000001000001000000000000000000000000000000000000000000000000000000000000000000000000000000          REP Railroad Commissioner                               UNDER VOTES                           Pct. 303                                               01 
00120040006000000000000000000000000000000000000000000000000000000000000000000000000000000000000000000          REP Railroad Commissioner                               UNDER VOTES                           Pct. 401                                               01 
00120040007000000000000000000000000000000000000000000000000000000000000000000000000000000000000000000          REP Railroad Commissioner                               UNDER VOTES                           Pct. 402                                               01 
00130010001000001000000000000000001000000000000000000000000000000000000000000000000000000000000000000DEM       DEM Lieutenant Governor                                 Michelle Beckley                      Pct. 101                                               01 
00130010002000001000001000000000000000000000000000000000000000000000000000000000000000000000000000000DEM       DEM Lieutenant Governor                                 Michelle Beckley                      Pct. 201                                               01 
00130010003000000000000000000000000000000000000000000000000000000000000000000000000000000000000000000DEM       DEM Lieutenant Governor                                 Michelle Beckley                      Pct. 202                                               01 
00130010004000004000004000000000000000000000000000000000000000000000000000000000000000000000000000000DEM       DEM Lieutenant Governor                                 Michelle Beckley                      Pct. 301                                               01 
00130010005000000000000000000000000000000000000000000000000000000000000000000000000000000000000000000DEM       DEM Lieutenant Governor                                 Michelle Beckley                      Pct. 303                                               01 
00130010006000000000000000000000000000000000000000000000000000000000000000000000000000000000000000000DEM       DEM Lieutenant Governor                                 Michelle Beckley                      Pct. 401                                               01 
00130010007000000000000000000000000000000000000000000000000000000000000000000000000000000000000000000DEM       DEM Lieutenant Governor                                 Michelle Beckley                      Pct. 402                                               01 
00130020001000001000000000000000001000000000000000000000000000000000000000000000000000000000000000000DEM       DEM Lieutenant Governor                                 Mike Collier                          Pct. 101                                               01 
00130020002000001000001000000000000000000000000000000000000000000000000000000000000000000000000000000DEM       DEM Lieutenant Governor                                 Mike Collier                          Pct. 201                                               01 
00130020003000000000000000000000000000000000000000000000000000000000000000000000000000000000000000000DEM       DEM Lieutenant Governor                                 Mike Collier                          Pct. 202                                               01 
00130020004000003000002000000000001000000000000000000000000000000000000000000000000000000000000000000DEM       DEM Lieutenant Governor                                 Mike Collier                          Pct. 301                                               01 
00130020005000000000000000000000000000000000000000000000000000000000000000000000000000000000000000000DEM       DEM Lieutenant Governor                                 Mike Collier                          Pct. 303                                               01 
00130020006000000000000000000000000000000000000000000000000000000000000000000000000000000000000000000DEM       DEM Lieutenant Governor                                 Mike Collier                          Pct. 401                                               01 
00130020007000001000000000000000001000000000000000000000000000000000000000000000000000000000000000000DEM       DEM Lieutenant Governor                                 Mike Collier                          Pct. 402                                               01 
00130030001000000000000000000000000000000000000000000000000000000000000000000000000000000000000000000          DEM Lieutenant Governor                                 OVER VOTES                            Pct. 101                                               01 
00130030002000000000000000000000000000000000000000000000000000000000000000000000000000000000000000000          DEM Lieutenant Governor                                 OVER VOTES                            Pct. 201                                               01 
00130030003000000000000000000000000000000000000000000000000000000000000000000000000000000000000000000          DEM Lieutenant Governor                                 OVER VOTES                            Pct. 202                                               01 
00130030004000000000000000000000000000000000000000000000000000000000000000000000000000000000000000000          DEM Lieutenant Governor                                 OVER VOTES                            Pct. 301                                               01 
00130030005000000000000000000000000000000000000000000000000000000000000000000000000000000000000000000          DEM Lieutenant Governor                                 OVER VOTES                            Pct. 303                                               01 
00130030006000000000000000000000000000000000000000000000000000000000000000000000000000000000000000000          DEM Lieutenant Governor                                 OVER VOTES                            Pct. 401                                               01 
00130030007000000000000000000000000000000000000000000000000000000000000000000000000000000000000000000          DEM Lieutenant Governor                                 OVER VOTES                            Pct. 402                                               01 
00130040001000000000000000000000000000000000000000000000000000000000000000000000000000000000000000000          DEM Lieutenant Governor                                 UNDER VOTES                           Pct. 101                                               01 
00130040002000000000000000000000000000000000000000000000000000000000000000000000000000000000000000000          DEM Lieutenant Governor                                 UNDER VOTES                           Pct. 201                                               01 
00130040003000000000000000000000000000000000000000000000000000000000000000000000000000000000000000000          DEM Lieutenant Governor                                 UNDER VOTES                           Pct. 202                                               01 
00130040004000000000000000000000000000000000000000000000000000000000000000000000000000000000000000000          DEM Lieutenant Governor                                 UNDER VOTES                           Pct. 301                                               01 
00130040005000000000000000000000000000000000000000000000000000000000000000000000000000000000000000000          DEM Lieutenant Governor                                 UNDER VOTES                           Pct. 303                                               01 
00130040006000000000000000000000000000000000000000000000000000000000000000000000000000000000000000000          DEM Lieutenant Governor                                 UNDER VOTES                           Pct. 401                                               01 
00130040007000000000000000000000000000000000000000000000000000000000000000000000000000000000000000000          DEM Lieutenant Governor                                 UNDER VOTES                           Pct. 402                                               01 
00140010001000000000000000000000000000000000000000000000000000000000000000000000000000000000000000000DEM       DEM Attorney General                                    Joe Jaworski                          Pct. 101                                               01 
00140010002000000000000000000000000000000000000000000000000000000000000000000000000000000000000000000DEM       DEM Attorney General                                    Joe Jaworski                          Pct. 201                                               01 
00140010003000000000000000000000000000000000000000000000000000000000000000000000000000000000000000000DEM       DEM Attorney General                                    Joe Jaworski                          Pct. 202                                               01 
00140010004000003000002000000000001000000000000000000000000000000000000000000000000000000000000000000DEM       DEM Attorney General                                    Joe Jaworski                          Pct. 301                                               01 
00140010005000000000000000000000000000000000000000000000000000000000000000000000000000000000000000000DEM       DEM Attorney General                                    Joe Jaworski                          Pct. 303                                               01 
00140010006000000000000000000000000000000000000000000000000000000000000000000000000000000000000000000DEM       DEM Attorney General                                    Joe Jaworski                          Pct. 401                                               01 
00140010007000001000000000000000001000000000000000000000000000000000000000000000000000000000000000000DEM       DEM Attorney General                                    Joe Jaworski                          Pct. 402                                               01 
00140020001000002000000000000000002000000000000000000000000000000000000000000000000000000000000000000DEM       DEM Attorney General                                    Rochelle Mercedes Garza               Pct. 101                                               01 
00140020002000002000002000000000000000000000000000000000000000000000000000000000000000000000000000000DEM       DEM Attorney General                                    Rochelle Mercedes Garza               Pct. 201                                               01 
00140020003000000000000000000000000000000000000000000000000000000000000000000000000000000000000000000DEM       DEM Attorney General                                    Rochelle Mercedes Garza               Pct. 202                                               01 
00140020004000003000003000000000000000000000000000000000000000000000000000000000000000000000000000000DEM       DEM Attorney General                                    Rochelle Mercedes Garza               Pct. 301                                               01 
00140020005000000000000000000000000000000000000000000000000000000000000000000000000000000000000000000DEM       DEM Attorney General                                    Rochelle Mercedes Garza               Pct. 303                                               01 
00140020006000000000000000000000000000000000000000000000000000000000000000000000000000000000000000000DEM       DEM Attorney General                                    Rochelle Mercedes Garza               Pct. 401                                               01 
00140020007000000000000000000000000000000000000000000000000000000000000000000000000000000000000000000DEM       DEM Attorney General                                    Rochelle Mercedes Garza               Pct. 402                                               01 
00140030001000000000000000000000000000000000000000000000000000000000000000000000000000000000000000000          DEM Attorney General                                    OVER VOTES                            Pct. 101                                               01 
00140030002000000000000000000000000000000000000000000000000000000000000000000000000000000000000000000          DEM Attorney General                                    OVER VOTES                            Pct. 201                                               01 
00140030003000000000000000000000000000000000000000000000000000000000000000000000000000000000000000000          DEM Attorney General                                    OVER VOTES                            Pct. 202                                               01 
00140030004000000000000000000000000000000000000000000000000000000000000000000000000000000000000000000          DEM Attorney General                                    OVER VOTES                            Pct. 301                                               01 
00140030005000000000000000000000000000000000000000000000000000000000000000000000000000000000000000000          DEM Attorney General                                    OVER VOTES                            Pct. 303                                               01 
00140030006000000000000000000000000000000000000000000000000000000000000000000000000000000000000000000          DEM Attorney General                                    OVER VOTES                            Pct. 401                                               01 
00140030007000000000000000000000000000000000000000000000000000000000000000000000000000000000000000000          DEM Attorney General                                    OVER VOTES                            Pct. 402                                               01 
00140040001000000000000000000000000000000000000000000000000000000000000000000000000000000000000000000          DEM Attorney General                                    UNDER VOTES                           Pct. 101                                               01 
00140040002000000000000000000000000000000000000000000000000000000000000000000000000000000000000000000          DEM Attorney General                                    UNDER VOTES                           Pct. 201                                               01 
00140040003000000000000000000000000000000000000000000000000000000000000000000000000000000000000000000          DEM Attorney General                                    UNDER VOTES                           Pct. 202                                               01 
00140040004000001000001000000000000000000000000000000000000000000000000000000000000000000000000000000          DEM Attorney General                                    UNDER VOTES                           Pct. 301                                               01 
00140040005000000000000000000000000000000000000000000000000000000000000000000000000000000000000000000          DEM Attorney General                                    UNDER VOTES                           Pct. 303                                               01 
00140040006000000000000000000000000000000000000000000000000000000000000000000000000000000000000000000          DEM Attorney General                                    UNDER VOTES                           Pct. 401                                               01 
00140040007000000000000000000000000000000000000000000000000000000000000000000000000000000000000000000          DEM Attorney General                                    UNDER VOTES                           Pct. 402                                               01 
00150010001000002000000000000000002000000000000000000000000000000000000000000000000000000000000000000DEM       DEM Comptroller of Public Accounts                      Angel Luis Vega                       Pct. 101                                               01 
00150010002000002000002000000000000000000000000000000000000000000000000000000000000000000000000000000DEM       DEM Comptroller of Public Accounts                      Angel Luis Vega                       Pct. 201                                               01 
00150010003000000000000000000000000000000000000000000000000000000000000000000000000000000000000000000DEM       DEM Comptroller of Public Accounts                      Angel Luis Vega                       Pct. 202                                               01 
00150010004000004000004000000000000000000000000000000000000000000000000000000000000000000000000000000DEM       DEM Comptroller of Public Accounts                      Angel Luis Vega                       Pct. 301                                               01 
00150010005000000000000000000000000000000000000000000000000000000000000000000000000000000000000000000DEM       DEM Comptroller of Public Accounts                      Angel Luis Vega                       Pct. 303                                               01 
00150010006000000000000000000000000000000000000000000000000000000000000000000000000000000000000000000DEM       DEM Comptroller of Public Accounts                      Angel Luis Vega                       Pct. 401                                               01 
00150010007000001000000000000000001000000000000000000000000000000000000000000000000000000000000000000DEM       DEM Comptroller of Public Accounts                      Angel Luis Vega                       Pct. 402                                               01 
00150020001000000000000000000000000000000000000000000000000000000000000000000000000000000000000000000DEM       DEM Comptroller of Public Accounts                      Janet T. Dudding                      Pct. 101                                               01 
00150020002000000000000000000000000000000000000000000000000000000000000000000000000000000000000000000DEM       DEM Comptroller of Public Accounts                      Janet T. Dudding                      Pct. 201                                               01 
00150020003000000000000000000000000000000000000000000000000000000000000000000000000000000000000000000DEM       DEM Comptroller of Public Accounts                      Janet T. Dudding                      Pct. 202                                               01 
00150020004000003000002000000000001000000000000000000000000000000000000000000000000000000000000000000DEM       DEM Comptroller of Public Accounts                      Janet T. Dudding                      Pct. 301                                               01 
00150020005000000000000000000000000000000000000000000000000000000000000000000000000000000000000000000DEM       DEM Comptroller of Public Accounts                      Janet T. Dudding                      Pct. 303                                               01 
00150020006000000000000000000000000000000000000000000000000000000000000000000000000000000000000000000DEM       DEM Comptroller of Public Accounts                      Janet T. Dudding                      Pct. 401                                               01 
00150020007000000000000000000000000000000000000000000000000000000000000000000000000000000000000000000DEM       DEM Comptroller of Public Accounts                      Janet T. Dudding                      Pct. 402                                               01 
00150030001000000000000000000000000000000000000000000000000000000000000000000000000000000000000000000          DEM Comptroller of Public Accounts                      OVER VOTES                            Pct. 101                                               01 
00150030002000000000000000000000000000000000000000000000000000000000000000000000000000000000000000000          DEM Comptroller of Public Accounts                      OVER VOTES                            Pct. 201                                               01 
00150030003000000000000000000000000000000000000000000000000000000000000000000000000000000000000000000          DEM Comptroller of Public Accounts                      OVER VOTES                            Pct. 202                                               01 
00150030004000000000000000000000000000000000000000000000000000000000000000000000000000000000000000000          DEM Comptroller of Public Accounts                      OVER VOTES                            Pct. 301                                               01 
00150030005000000000000000000000000000000000000000000000000000000000000000000000000000000000000000000          DEM Comptroller of Public Accounts                      OVER VOTES                            Pct. 303                                               01 
00150030006000000000000000000000000000000000000000000000000000000000000000000000000000000000000000000          DEM Comptroller of Public Accounts                      OVER VOTES                            Pct. 401                                               01 
00150030007000000000000000000000000000000000000000000000000000000000000000000000000000000000000000000          DEM Comptroller of Public Accounts                      OVER VOTES                            Pct. 402                                               01 
00150040001000000000000000000000000000000000000000000000000000000000000000000000000000000000000000000          DEM Comptroller of Public Accounts                      UNDER VOTES                           Pct. 101                                               01 
00150040002000000000000000000000000000000000000000000000000000000000000000000000000000000000000000000          DEM Comptroller of Public Accounts                      UNDER VOTES                           Pct. 201                                               01 
00150040003000000000000000000000000000000000000000000000000000000000000000000000000000000000000000000          DEM Comptroller of Public Accounts                      UNDER VOTES                           Pct. 202                                               01 
00150040004000000000000000000000000000000000000000000000000000000000000000000000000000000000000000000          DEM Comptroller of Public Accounts                      UNDER VOTES                           Pct. 301                                               01 
00150040005000000000000000000000000000000000000000000000000000000000000000000000000000000000000000000          DEM Comptroller of Public Accounts                      UNDER VOTES                           Pct. 303                                               01 
00150040006000000000000000000000000000000000000000000000000000000000000000000000000000000000000000000          DEM Comptroller of Public Accounts                      UNDER VOTES                           Pct. 401                                               01 
00150040007000000000000000000000000000000000000000000000000000000000000000000000000000000000000000000          DEM Comptroller of Public Accounts                      UNDER VOTES                           Pct. 402                                               01 
00160010001000002000000000000000002000000000000000000000000000000000000000000000000000000000000000000DEM       DEM Comm General Land Office                            Sandragrace Martinez                  Pct. 101                                               01 
00160010002000002000002000000000000000000000000000000000000000000000000000000000000000000000000000000DEM       DEM Comm General Land Office                            Sandragrace Martinez                  Pct. 201                                               01 
00160010003000000000000000000000000000000000000000000000000000000000000000000000000000000000000000000DEM       DEM Comm General Land Office                            Sandragrace Martinez                  Pct. 202                                               01 
00160010004000003000003000000000000000000000000000000000000000000000000000000000000000000000000000000DEM       DEM Comm General Land Office                            Sandragrace Martinez                  Pct. 301                                               01 
00160010005000000000000000000000000000000000000000000000000000000000000000000000000000000000000000000DEM       DEM Comm General Land Office                            Sandragrace Martinez                  Pct. 303                                               01 
00160010006000000000000000000000000000000000000000000000000000000000000000000000000000000000000000000DEM       DEM Comm General Land Office                            Sandragrace Martinez                  Pct. 401                                               01 
00160010007000001000000000000000001000000000000000000000000000000000000000000000000000000000000000000DEM       DEM Comm General Land Office                            Sandragrace Martinez                  Pct. 402                                               01 
00160020001000000000000000000000000000000000000000000000000000000000000000000000000000000000000000000DEM       DEM Comm General Land Office                            Jay Kleberg                           Pct. 101                                               01 
00160020002000000000000000000000000000000000000000000000000000000000000000000000000000000000000000000DEM       DEM Comm General Land Office                            Jay Kleberg                           Pct. 201                                               01 
00160020003000000000000000000000000000000000000000000000000000000000000000000000000000000000000000000DEM       DEM Comm General Land Office                            Jay Kleberg                           Pct. 202                                               01 
00160020004000003000002000000000001000000000000000000000000000000000000000000000000000000000000000000DEM       DEM Comm General Land Office                            Jay Kleberg                           Pct. 301                                               01 
00160020005000000000000000000000000000000000000000000000000000000000000000000000000000000000000000000DEM       DEM Comm General Land Office                            Jay Kleberg                           Pct. 303                                               01 
00160020006000000000000000000000000000000000000000000000000000000000000000000000000000000000000000000DEM       DEM Comm General Land Office                            Jay Kleberg                           Pct. 401                                               01 
00160020007000000000000000000000000000000000000000000000000000000000000000000000000000000000000000000DEM       DEM Comm General Land Office                            Jay Kleberg                           Pct. 402                                               01 
00160030001000000000000000000000000000000000000000000000000000000000000000000000000000000000000000000          DEM Comm General Land Office                            OVER VOTES                            Pct. 101                                               01 
00160030002000000000000000000000000000000000000000000000000000000000000000000000000000000000000000000          DEM Comm General Land Office                            OVER VOTES                            Pct. 201                                               01 
00160030003000000000000000000000000000000000000000000000000000000000000000000000000000000000000000000          DEM Comm General Land Office                            OVER VOTES                            Pct. 202                                               01 
00160030004000000000000000000000000000000000000000000000000000000000000000000000000000000000000000000          DEM Comm General Land Office                            OVER VOTES                            Pct. 301                                               01 
00160030005000000000000000000000000000000000000000000000000000000000000000000000000000000000000000000          DEM Comm General Land Office                            OVER VOTES                            Pct. 303                                               01 
00160030006000000000000000000000000000000000000000000000000000000000000000000000000000000000000000000          DEM Comm General Land Office                            OVER VOTES                            Pct. 401                                               01 
00160030007000000000000000000000000000000000000000000000000000000000000000000000000000000000000000000          DEM Comm General Land Office                            OVER VOTES                            Pct. 402                                               01 
00160040001000000000000000000000000000000000000000000000000000000000000000000000000000000000000000000          DEM Comm General Land Office                            UNDER VOTES                           Pct. 101                                               01 
00160040002000000000000000000000000000000000000000000000000000000000000000000000000000000000000000000          DEM Comm General Land Office                            UNDER VOTES                           Pct. 201                                               01 
00160040003000000000000000000000000000000000000000000000000000000000000000000000000000000000000000000          DEM Comm General Land Office                            UNDER VOTES                           Pct. 202                                               01 
00160040004000001000001000000000000000000000000000000000000000000000000000000000000000000000000000000          DEM Comm General Land Office                            UNDER VOTES                           Pct. 301                                               01 
00160040005000000000000000000000000000000000000000000000000000000000000000000000000000000000000000000          DEM Comm General Land Office                            UNDER VOTES                           Pct. 303                                               01 
00160040006000000000000000000000000000000000000000000000000000000000000000000000000000000000000000000          DEM Comm General Land Office                            UNDER VOTES                           Pct. 401                                               01 
00160040007000000000000000000000000000000000000000000000000000000000000000000000000000000000000000000          DEM Comm General Land Office                            UNDER VOTES                           Pct. 402                                               01 
