00010010001001992000000000000000000000000000000000000000000000000000000000000000000000000000000000000          REGISTERED VOTERS - TOTAL                               REGISTERED VOTERS - TOTAL             Precinct 1                                             00 
00010010002002036000000000000000000000000000000000000000000000000000000000000000000000000000000000000          REGISTERED VOTERS - TOTAL                               REGISTERED VOTERS - TOTAL             Precinct 2                                             00 
00010010003000213000000000000000000000000000000000000000000000000000000000000000000000000000000000000          REGISTERED VOTERS - TOTAL                               REGISTERED VOTERS - TOTAL             Precinct 3                                             00 
00010010004000667000000000000000000000000000000000000000000000000000000000000000000000000000000000000          REGISTERED VOTERS - TOTAL                               REGISTERED VOTERS - TOTAL             Precinct 4                                             00 
00010010005000061000000000000000000000000000000000000000000000000000000000000000000000000000000000000          REGISTERED VOTERS - TOTAL                               REGISTERED VOTERS - TOTAL             Precinct 5                                             00 
00010010006000138000000000000000000000000000000000000000000000000000000000000000000000000000000000000          REGISTERED VOTERS - TOTAL                               REGISTERED VOTERS - TOTAL             Precinct 6                                             00 
00010010007001748000000000000000000000000000000000000000000000000000000000000000000000000000000000000          REGISTERED VOTERS - TOTAL                               REGISTERED VOTERS - TOTAL             Precinct 7                                             00 
00010010008000231000000000000000000000000000000000000000000000000000000000000000000000000000000000000          REGISTERED VOTERS - TOTAL                               REGISTERED VOTERS - TOTAL             Precinct 9                                             00 
00010010009000954000000000000000000000000000000000000000000000000000000000000000000000000000000000000          REGISTERED VOTERS - TOTAL                               REGISTERED VOTERS - TOTAL             Precinct 10                                            00 
00020010001000175000040000056000079000000000000000000000000000000000000000000000000000000000000000000          BALLOTS CAST - TOTAL                                    BALLOTS CAST - TOTAL                  Precinct 1                                             00 
00020010002000166000032000069000065000000000000000000000000000000000000000000000000000000000000000000          BALLOTS CAST - TOTAL                                    BALLOTS CAST - TOTAL                  Precinct 2                                             00 
00020010003000032000000000004000028000000000000000000000000000000000000000000000000000000000000000000          BALLOTS CAST - TOTAL                                    BALLOTS CAST - TOTAL                  Precinct 3                                             00 
00020010004000072000000000041000031000000000000000000000000000000000000000000000000000000000000000000          BALLOTS CAST - TOTAL                                    BALLOTS CAST - TOTAL                  Precinct 4                                             00 
00020010005000012000000000006000006000000000000000000000000000000000000000000000000000000000000000000          BALLOTS CAST - TOTAL                                    BALLOTS CAST - TOTAL                  Precinct 5                                             00 
00020010006000018000000000003000015000000000000000000000000000000000000000000000000000000000000000000          BALLOTS CAST - TOTAL                                    BALLOTS CAST - TOTAL                  Precinct 6                                             00 
00020010007000089000032000026000031000000000000000000000000000000000000000000000000000000000000000000          BALLOTS CAST - TOTAL                                    BALLOTS CAST - TOTAL                  Precinct 7                                             00 
00020010008000038000000000015000023000000000000000000000000000000000000000000000000000000000000000000          BALLOTS CAST - TOTAL                                    BALLOTS CAST - TOTAL                  Precinct 9                                             00 
00020010009000040000009000013000018000000000000000000000000000000000000000000000000000000000000000000          BALLOTS CAST - TOTAL                                    BALLOTS CAST - TOTAL                  Precinct 10                                            00 
00030010001000000000000000000000000000000000000000000000000000000000000000000000000000000000000000000          BALLOTS CAST - BLANK                                    BALLOTS CAST - BLANK                  Precinct 1                                             00 
00030010002000000000000000000000000000000000000000000000000000000000000000000000000000000000000000000          BALLOTS CAST - BLANK                                    BALLOTS CAST - BLANK                  Precinct 2                                             00 
00030010003000001000000000000000001000000000000000000000000000000000000000000000000000000000000000000          BALLOTS CAST - BLANK                                    BALLOTS CAST - BLANK                  Precinct 3                                             00 
00030010004000000000000000000000000000000000000000000000000000000000000000000000000000000000000000000          BALLOTS CAST - BLANK                                    BALLOTS CAST - BLANK                  Precinct 4                                             00 
00030010005000000000000000000000000000000000000000000000000000000000000000000000000000000000000000000          BALLOTS CAST - BLANK                                    BALLOTS CAST - BLANK                  Precinct 5                                             00 
00030010006000000000000000000000000000000000000000000000000000000000000000000000000000000000000000000          BALLOTS CAST - BLANK                                    BALLOTS CAST - BLANK                  Precinct 6                                             00 
00030010007000000000000000000000000000000000000000000000000000000000000000000000000000000000000000000          BALLOTS CAST - BLANK                                    BALLOTS CAST - BLANK                  Precinct 7                                             00 
00030010008000000000000000000000000000000000000000000000000000000000000000000000000000000000000000000          BALLOTS CAST - BLANK                                    BALLOTS CAST - BLANK                  Precinct 9                                             00 
00030010009000000000000000000000000000000000000000000000000000000000000000000000000000000000000000000          BALLOTS CAST - BLANK                                    BALLOTS CAST - BLANK                  Precinct 10                                            00 
00040010001000150000032000052000066000000000000000000000000000000000000000000000000000000000000000000NON       STATE PROP 1                                            For                                   Precinct 1                                             01Y
00040010002000141000028000060000053000000000000000000000000000000000000000000000000000000000000000000NON       STATE PROP 1                                            For                                   Precinct 2                                             01Y
00040010003000020000000000001000019000000000000000000000000000000000000000000000000000000000000000000NON       STATE PROP 1                                            For                                   Precinct 3                                             01Y
00040010004000066000000000040000026000000000000000000000000000000000000000000000000000000000000000000NON       STATE PROP 1                                            For                                   Precinct 4                                             01Y
00040010005000012000000000006000006000000000000000000000000000000000000000000000000000000000000000000NON       STATE PROP 1                                            For                                   Precinct 5                                             01Y
00040010006000013000000000002000011000000000000000000000000000000000000000000000000000000000000000000NON       STATE PROP 1                                            For                                   Precinct 6                                             01Y
00040010007000070000025000021000024000000000000000000000000000000000000000000000000000000000000000000NON       STATE PROP 1                                            For                                   Precinct 7                                             01Y
00040010008000035000000000013000022000000000000000000000000000000000000000000000000000000000000000000NON       STATE PROP 1                                            For                                   Precinct 9                                             01Y
00040010009000031000005000010000016000000000000000000000000000000000000000000000000000000000000000000NON       STATE PROP 1                                            For                                   Precinct 10                                            01Y
00040020001000024000007000004000013000000000000000000000000000000000000000000000000000000000000000000NON       STATE PROP 1                                            Against                               Precinct 1                                             01Y
00040020002000022000004000006000012000000000000000000000000000000000000000000000000000000000000000000NON       STATE PROP 1                                            Against                               Precinct 2                                             01Y
00040020003000010000000000002000008000000000000000000000000000000000000000000000000000000000000000000NON       STATE PROP 1                                            Against                               Precinct 3                                             01Y
00040020004000006000000000001000005000000000000000000000000000000000000000000000000000000000000000000NON       STATE PROP 1                                            Against                               Precinct 4                                             01Y
00040020005000000000000000000000000000000000000000000000000000000000000000000000000000000000000000000NON       STATE PROP 1                                            Against                               Precinct 5                                             01Y
00040020006000005000000000001000004000000000000000000000000000000000000000000000000000000000000000000NON       STATE PROP 1                                            Against                               Precinct 6                                             01Y
00040020007000019000007000005000007000000000000000000000000000000000000000000000000000000000000000000NON       STATE PROP 1                                            Against                               Precinct 7                                             01Y
00040020008000002000000000001000001000000000000000000000000000000000000000000000000000000000000000000NON       STATE PROP 1                                            Against                               Precinct 9                                             01Y
00040020009000007000003000002000002000000000000000000000000000000000000000000000000000000000000000000NON       STATE PROP 1                                            Against                               Precinct 10                                            01Y
00050010001000117000029000043000045000000000000000000000000000000000000000000000000000000000000000000NON       STATE PROP 2                                            For                                   Precinct 1                                             01Y
00050010002000107000024000043000040000000000000000000000000000000000000000000000000000000000000000000NON       STATE PROP 2                                            For                                   Precinct 2                                             01Y
00050010003000013000000000003000010000000000000000000000000000000000000000000000000000000000000000000NON       STATE PROP 2                                            For                                   Precinct 3                                             01Y
00050010004000036000000000024000012000000000000000000000000000000000000000000000000000000000000000000NON       STATE PROP 2                                            For                                   Precinct 4                                             01Y
00050010005000007000000000004000003000000000000000000000000000000000000000000000000000000000000000000NON       STATE PROP 2                                            For                                   Precinct 5                                             01Y
00050010006000012000000000001000011000000000000000000000000000000000000000000000000000000000000000000NON       STATE PROP 2                                            For                                   Precinct 6                                             01Y
00050010007000048000026000013000009000000000000000000000000000000000000000000000000000000000000000000NON       STATE PROP 2                                            For                                   Precinct 7                                             01Y
00050010008000018000000000008000010000000000000000000000000000000000000000000000000000000000000000000NON       STATE PROP 2                                            For                                   Precinct 9                                             01Y
00050010009000031000008000009000014000000000000000000000000000000000000000000000000000000000000000000NON       STATE PROP 2                                            For                                   Precinct 10                                            01Y
00050020001000058000011000013000034000000000000000000000000000000000000000000000000000000000000000000NON       STATE PROP 2                                            Against                               Precinct 1                                             01Y
00050020002000055000008000023000024000000000000000000000000000000000000000000000000000000000000000000NON       STATE PROP 2                                            Against                               Precinct 2                                             01Y
00050020003000018000000000001000017000000000000000000000000000000000000000000000000000000000000000000NON       STATE PROP 2                                            Against                               Precinct 3                                             01Y
00050020004000036000000000017000019000000000000000000000000000000000000000000000000000000000000000000NON       STATE PROP 2                                            Against                               Precinct 4                                             01Y
00050020005000004000000000002000002000000000000000000000000000000000000000000000000000000000000000000NON       STATE PROP 2                                            Against                               Precinct 5                                             01Y
00050020006000006000000000002000004000000000000000000000000000000000000000000000000000000000000000000NON       STATE PROP 2                                            Against                               Precinct 6                                             01Y
00050020007000040000006000013000021000000000000000000000000000000000000000000000000000000000000000000NON       STATE PROP 2                                            Against                               Precinct 7                                             01Y
00050020008000020000000000007000013000000000000000000000000000000000000000000000000000000000000000000NON       STATE PROP 2                                            Against                               Precinct 9                                             01Y
00050020009000009000001000004000004000000000000000000000000000000000000000000000000000000000000000000NON       STATE PROP 2                                            Against                               Precinct 10                                            01Y
00060010001000129000028000041000060000000000000000000000000000000000000000000000000000000000000000000NON       STATE PROP 3                                            For                                   Precinct 1                                             01Y
00060010002000115000022000049000044000000000000000000000000000000000000000000000000000000000000000000NON       STATE PROP 3                                            For                                   Precinct 2                                             01Y
00060010003000023000000000003000020000000000000000000000000000000000000000000000000000000000000000000NON       STATE PROP 3                                            For                                   Precinct 3                                             01Y
00060010004000061000000000032000029000000000000000000000000000000000000000000000000000000000000000000NON       STATE PROP 3                                            For                                   Precinct 4                                             01Y
00060010005000010000000000006000004000000000000000000000000000000000000000000000000000000000000000000NON       STATE PROP 3                                            For                                   Precinct 5                                             01Y
00060010006000009000000000002000007000000000000000000000000000000000000000000000000000000000000000000NON       STATE PROP 3                                            For                                   Precinct 6                                             01Y
00060010007000054000016000017000021000000000000000000000000000000000000000000000000000000000000000000NON       STATE PROP 3                                            For                                   Precinct 7                                             01Y
00060010008000032000000000013000019000000000000000000000000000000000000000000000000000000000000000000NON       STATE PROP 3                                            For                                   Precinct 9                                             01Y
00060010009000024000005000010000009000000000000000000000000000000000000000000000000000000000000000000NON       STATE PROP 3                                            For                                   Precinct 10                                            01Y
00060020001000044000010000015000019000000000000000000000000000000000000000000000000000000000000000000NON       STATE PROP 3                                            Against                               Precinct 1                                             01Y
00060020002000049000010000018000021000000000000000000000000000000000000000000000000000000000000000000NON       STATE PROP 3                                            Against                               Precinct 2                                             01Y
00060020003000007000000000000000007000000000000000000000000000000000000000000000000000000000000000000NON       STATE PROP 3                                            Against                               Precinct 3                                             01Y
00060020004000011000000000009000002000000000000000000000000000000000000000000000000000000000000000000NON       STATE PROP 3                                            Against                               Precinct 4                                             01Y
00060020005000002000000000000000002000000000000000000000000000000000000000000000000000000000000000000NON       STATE PROP 3                                            Against                               Precinct 5                                             01Y
00060020006000009000000000001000008000000000000000000000000000000000000000000000000000000000000000000NON       STATE PROP 3                                            Against                               Precinct 6                                             01Y
00060020007000034000015000009000010000000000000000000000000000000000000000000000000000000000000000000NON       STATE PROP 3                                            Against                               Precinct 7                                             01Y
00060020008000005000000000002000003000000000000000000000000000000000000000000000000000000000000000000NON       STATE PROP 3                                            Against                               Precinct 9                                             01Y
00060020009000016000004000003000009000000000000000000000000000000000000000000000000000000000000000000NON       STATE PROP 3                                            Against                               Precinct 10                                            01Y
00070010001000113000021000041000051000000000000000000000000000000000000000000000000000000000000000000NON       STATE PROP 4                                            For                                   Precinct 1                                             01Y
00070010002000097000014000044000039000000000000000000000000000000000000000000000000000000000000000000NON       STATE PROP 4                                            For                                   Precinct 2                                             01Y
00070010003000013000000000002000011000000000000000000000000000000000000000000000000000000000000000000NON       STATE PROP 4                                            For                                   Precinct 3                                             01Y
00070010004000032000000000017000015000000000000000000000000000000000000000000000000000000000000000000NON       STATE PROP 4                                            For                                   Precinct 4                                             01Y
00070010005000006000000000004000002000000000000000000000000000000000000000000000000000000000000000000NON       STATE PROP 4                                            For                                   Precinct 5                                             01Y
00070010006000005000000000000000005000000000000000000000000000000000000000000000000000000000000000000NON       STATE PROP 4                                            For                                   Precinct 6                                             01Y
00070010007000057000020000014000023000000000000000000000000000000000000000000000000000000000000000000NON       STATE PROP 4                                            For                                   Precinct 7                                             01Y
00070010008000012000000000004000008000000000000000000000000000000000000000000000000000000000000000000NON       STATE PROP 4                                            For                                   Precinct 9                                             01Y
00070010009000031000008000009000014000000000000000000000000000000000000000000000000000000000000000000NON       STATE PROP 4                                            For                                   Precinct 10                                            01Y
00070020001000053000013000013000027000000000000000000000000000000000000000000000000000000000000000000NON       STATE PROP 4                                            Against                               Precinct 1                                             01Y
00070020002000063000017000022000024000000000000000000000000000000000000000000000000000000000000000000NON       STATE PROP 4                                            Against                               Precinct 2                                             01Y
00070020003000018000000000002000016000000000000000000000000000000000000000000000000000000000000000000NON       STATE PROP 4                                            Against                               Precinct 3                                             01Y
00070020004000038000000000023000015000000000000000000000000000000000000000000000000000000000000000000NON       STATE PROP 4                                            Against                               Precinct 4                                             01Y
00070020005000005000000000002000003000000000000000000000000000000000000000000000000000000000000000000NON       STATE PROP 4                                            Against                               Precinct 5                                             01Y
00070020006000013000000000003000010000000000000000000000000000000000000000000000000000000000000000000NON       STATE PROP 4                                            Against                               Precinct 6                                             01Y
00070020007000030000011000012000007000000000000000000000000000000000000000000000000000000000000000000NON       STATE PROP 4                                            Against                               Precinct 7                                             01Y
00070020008000026000000000011000015000000000000000000000000000000000000000000000000000000000000000000NON       STATE PROP 4                                            Against                               Precinct 9                                             01Y
00070020009000009000001000004000004000000000000000000000000000000000000000000000000000000000000000000NON       STATE PROP 4                                            Against                               Precinct 10                                            01Y
00080010001000110000028000036000046000000000000000000000000000000000000000000000000000000000000000000NON       STATE PROP 5                                            For                                   Precinct 1                                             01Y
00080010002000099000019000046000034000000000000000000000000000000000000000000000000000000000000000000NON       STATE PROP 5                                            For                                   Precinct 2                                             01Y
00080010003000016000000000003000013000000000000000000000000000000000000000000000000000000000000000000NON       STATE PROP 5                                            For                                   Precinct 3                                             01Y
00080010004000042000000000022000020000000000000000000000000000000000000000000000000000000000000000000NON       STATE PROP 5                                            For                                   Precinct 4                                             01Y
00080010005000006000000000004000002000000000000000000000000000000000000000000000000000000000000000000NON       STATE PROP 5                                            For                                   Precinct 5                                             01Y
00080010006000003000000000000000003000000000000000000000000000000000000000000000000000000000000000000NON       STATE PROP 5                                            For                                   Precinct 6                                             01Y
00080010007000051000018000015000018000000000000000000000000000000000000000000000000000000000000000000NON       STATE PROP 5                                            For                                   Precinct 7                                             01Y
00080010008000014000000000008000006000000000000000000000000000000000000000000000000000000000000000000NON       STATE PROP 5                                            For                                   Precinct 9                                             01Y
00080010009000024000003000009000012000000000000000000000000000000000000000000000000000000000000000000NON       STATE PROP 5                                            For                                   Precinct 10                                            01Y
00080020001000059000010000017000032000000000000000000000000000000000000000000000000000000000000000000NON       STATE PROP 5                                            Against                               Precinct 1                                             01Y
00080020002000059000012000020000027000000000000000000000000000000000000000000000000000000000000000000NON       STATE PROP 5                                            Against                               Precinct 2                                             01Y
00080020003000015000000000001000014000000000000000000000000000000000000000000000000000000000000000000NON       STATE PROP 5                                            Against                               Precinct 3                                             01Y
00080020004000028000000000017000011000000000000000000000000000000000000000000000000000000000000000000NON       STATE PROP 5                                            Against                               Precinct 4                                             01Y
00080020005000006000000000002000004000000000000000000000000000000000000000000000000000000000000000000NON       STATE PROP 5                                            Against                               Precinct 5                                             01Y
00080020006000015000000000003000012000000000000000000000000000000000000000000000000000000000000000000NON       STATE PROP 5                                            Against                               Precinct 6                                             01Y
00080020007000036000013000011000012000000000000000000000000000000000000000000000000000000000000000000NON       STATE PROP 5                                            Against                               Precinct 7                                             01Y
00080020008000024000000000007000017000000000000000000000000000000000000000000000000000000000000000000NON       STATE PROP 5                                            Against                               Precinct 9                                             01Y
00080020009000016000006000004000006000000000000000000000000000000000000000000000000000000000000000000NON       STATE PROP 5                                            Against                               Precinct 10                                            01Y
00090010001000145000026000051000068000000000000000000000000000000000000000000000000000000000000000000NON       STATE PROP 6                                            For                                   Precinct 1                                             01Y
00090010002000140000028000055000057000000000000000000000000000000000000000000000000000000000000000000NON       STATE PROP 6                                            For                                   Precinct 2                                             01Y
00090010003000026000000000003000023000000000000000000000000000000000000000000000000000000000000000000NON       STATE PROP 6                                            For                                   Precinct 3                                             01Y
00090010004000066000000000036000030000000000000000000000000000000000000000000000000000000000000000000NON       STATE PROP 6                                            For                                   Precinct 4                                             01Y
00090010005000010000000000005000005000000000000000000000000000000000000000000000000000000000000000000NON       STATE PROP 6                                            For                                   Precinct 5                                             01Y
00090010006000015000000000001000014000000000000000000000000000000000000000000000000000000000000000000NON       STATE PROP 6                                            For                                   Precinct 6                                             01Y
00090010007000075000024000021000030000000000000000000000000000000000000000000000000000000000000000000NON       STATE PROP 6                                            For                                   Precinct 7                                             01Y
00090010008000030000000000011000019000000000000000000000000000000000000000000000000000000000000000000NON       STATE PROP 6                                            For                                   Precinct 9                                             01Y
00090010009000037000008000012000017000000000000000000000000000000000000000000000000000000000000000000NON       STATE PROP 6                                            For                                   Precinct 10                                            01Y
00090020001000026000012000004000010000000000000000000000000000000000000000000000000000000000000000000NON       STATE PROP 6                                            Against                               Precinct 1                                             01Y
00090020002000023000003000012000008000000000000000000000000000000000000000000000000000000000000000000NON       STATE PROP 6                                            Against                               Precinct 2                                             01Y
00090020003000005000000000001000004000000000000000000000000000000000000000000000000000000000000000000NON       STATE PROP 6                                            Against                               Precinct 3                                             01Y
00090020004000005000000000004000001000000000000000000000000000000000000000000000000000000000000000000NON       STATE PROP 6                                            Against                               Precinct 4                                             01Y
00090020005000000000000000000000000000000000000000000000000000000000000000000000000000000000000000000NON       STATE PROP 6                                            Against                               Precinct 5                                             01Y
00090020006000003000000000002000001000000000000000000000000000000000000000000000000000000000000000000NON       STATE PROP 6                                            Against                               Precinct 6                                             01Y
00090020007000014000008000005000001000000000000000000000000000000000000000000000000000000000000000000NON       STATE PROP 6                                            Against                               Precinct 7                                             01Y
00090020008000008000000000004000004000000000000000000000000000000000000000000000000000000000000000000NON       STATE PROP 6                                            Against                               Precinct 9                                             01Y
00090020009000003000001000001000001000000000000000000000000000000000000000000000000000000000000000000NON       STATE PROP 6                                            Against                               Precinct 10                                            01Y
00100010001000164000035000055000074000000000000000000000000000000000000000000000000000000000000000000NON       STATE PROP 7                                            For                                   Precinct 1                                             01Y
00100010002000147000028000064000055000000000000000000000000000000000000000000000000000000000000000000NON       STATE PROP 7                                            For                                   Precinct 2                                             01Y
00100010003000024000000000002000022000000000000000000000000000000000000000000000000000000000000000000NON       STATE PROP 7                                            For                                   Precinct 3                                             01Y
00100010004000067000000000038000029000000000000000000000000000000000000000000000000000000000000000000NON       STATE PROP 7                                            For                                   Precinct 4                                             01Y
00100010005000011000000000006000005000000000000000000000000000000000000000000000000000000000000000000NON       STATE PROP 7                                            For                                   Precinct 5                                             01Y
00100010006000017000000000002000015000000000000000000000000000000000000000000000000000000000000000000NON       STATE PROP 7                                            For                                   Precinct 6                                             01Y
00100010007000079000031000022000026000000000000000000000000000000000000000000000000000000000000000000NON       STATE PROP 7                                            For                                   Precinct 7                                             01Y
00100010008000036000000000015000021000000000000000000000000000000000000000000000000000000000000000000NON       STATE PROP 7                                            For                                   Precinct 9                                             01Y
00100010009000034000007000011000016000000000000000000000000000000000000000000000000000000000000000000NON       STATE PROP 7                                            For                                   Precinct 10                                            01Y
00100020001000009000003000001000005000000000000000000000000000000000000000000000000000000000000000000NON       STATE PROP 7                                            Against                               Precinct 1                                             01Y
00100020002000017000004000004000009000000000000000000000000000000000000000000000000000000000000000000NON       STATE PROP 7                                            Against                               Precinct 2                                             01Y
00100020003000006000000000001000005000000000000000000000000000000000000000000000000000000000000000000NON       STATE PROP 7                                            Against                               Precinct 3                                             01Y
00100020004000005000000000003000002000000000000000000000000000000000000000000000000000000000000000000NON       STATE PROP 7                                            Against                               Precinct 4                                             01Y
00100020005000000000000000000000000000000000000000000000000000000000000000000000000000000000000000000NON       STATE PROP 7                                            Against                               Precinct 5                                             01Y
00100020006000001000000000001000000000000000000000000000000000000000000000000000000000000000000000000NON       STATE PROP 7                                            Against                               Precinct 6                                             01Y
00100020007000009000001000004000004000000000000000000000000000000000000000000000000000000000000000000NON       STATE PROP 7                                            Against                               Precinct 7                                             01Y
00100020008000002000000000000000002000000000000000000000000000000000000000000000000000000000000000000NON       STATE PROP 7                                            Against                               Precinct 9                                             01Y
00100020009000006000002000002000002000000000000000000000000000000000000000000000000000000000000000000NON       STATE PROP 7                                            Against                               Precinct 10                                            01Y
00110010001000164000035000055000074000000000000000000000000000000000000000000000000000000000000000000NON       STATE PROP 8                                            For                                   Precinct 1                                             01Y
00110010002000150000028000062000060000000000000000000000000000000000000000000000000000000000000000000NON       STATE PROP 8                                            For                                   Precinct 2                                             01Y
00110010003000023000000000002000021000000000000000000000000000000000000000000000000000000000000000000NON       STATE PROP 8                                            For                                   Precinct 3                                             01Y
00110010004000067000000000037000030000000000000000000000000000000000000000000000000000000000000000000NON       STATE PROP 8                                            For                                   Precinct 4                                             01Y
00110010005000011000000000006000005000000000000000000000000000000000000000000000000000000000000000000NON       STATE PROP 8                                            For                                   Precinct 5                                             01Y
00110010006000017000000000002000015000000000000000000000000000000000000000000000000000000000000000000NON       STATE PROP 8                                            For                                   Precinct 6                                             01Y
00110010007000083000031000023000029000000000000000000000000000000000000000000000000000000000000000000NON       STATE PROP 8                                            For                                   Precinct 7                                             01Y
00110010008000035000000000014000021000000000000000000000000000000000000000000000000000000000000000000NON       STATE PROP 8                                            For                                   Precinct 9                                             01Y
00110010009000033000007000011000015000000000000000000000000000000000000000000000000000000000000000000NON       STATE PROP 8                                            For                                   Precinct 10                                            01Y
00110020001000009000003000001000005000000000000000000000000000000000000000000000000000000000000000000NON       STATE PROP 8                                            Against                               Precinct 1                                             01Y
00110020002000015000004000006000005000000000000000000000000000000000000000000000000000000000000000000NON       STATE PROP 8                                            Against                               Precinct 2                                             01Y
00110020003000008000000000002000006000000000000000000000000000000000000000000000000000000000000000000NON       STATE PROP 8                                            Against                               Precinct 3                                             01Y
00110020004000005000000000004000001000000000000000000000000000000000000000000000000000000000000000000NON       STATE PROP 8                                            Against                               Precinct 4                                             01Y
00110020005000001000000000000000001000000000000000000000000000000000000000000000000000000000000000000NON       STATE PROP 8                                            Against                               Precinct 5                                             01Y
00110020006000001000000000001000000000000000000000000000000000000000000000000000000000000000000000000NON       STATE PROP 8                                            Against                               Precinct 6                                             01Y
00110020007000006000001000003000002000000000000000000000000000000000000000000000000000000000000000000NON       STATE PROP 8                                            Against                               Precinct 7                                             01Y
00110020008000003000000000001000002000000000000000000000000000000000000000000000000000000000000000000NON       STATE PROP 8                                            Against                               Precinct 9                                             01Y
00110020009000006000001000002000003000000000000000000000000000000000000000000000000000000000000000000NON       STATE PROP 8                                            Against                               Precinct 10                                            01Y
00120010001000080000024000028000028000000000000000000000000000000000000000000000000000000000000000000NONCTY001 Proposition City of Fort Stockton                       For                                   Precinct 1                    City of Fort Stockton    01Y
00120010002000076000020000028000028000000000000000000000000000000000000000000000000000000000000000000NONCTY001 Proposition City of Fort Stockton                       For                                   Precinct 2                    City of Fort Stockton    01Y
00120010007000025000013000006000006000000000000000000000000000000000000000000000000000000000000000000NONCTY001 Proposition City of Fort Stockton                       For                                   Precinct 7                    City of Fort Stockton    01Y
00120010009000025000005000010000010000000000000000000000000000000000000000000000000000000000000000000NONCTY001 Proposition City of Fort Stockton                       For                                   Precinct 10                   City of Fort Stockton    01Y
00120020001000055000010000014000031000000000000000000000000000000000000000000000000000000000000000000NONCTY001 Proposition City of Fort Stockton                       Against                               Precinct 1                    City of Fort Stockton    01Y
00120020002000060000006000024000030000000000000000000000000000000000000000000000000000000000000000000NONCTY001 Proposition City of Fort Stockton                       Against                               Precinct 2                    City of Fort Stockton    01Y
00120020007000014000006000005000003000000000000000000000000000000000000000000000000000000000000000000NONCTY001 Proposition City of Fort Stockton                       Against                               Precinct 7                    City of Fort Stockton    01Y
00120020009000014000004000002000008000000000000000000000000000000000000000000000000000000000000000000NONCTY001 Proposition City of Fort Stockton                       Against                               Precinct 10                   City of Fort Stockton    01Y
