00010010001001301000000000000000000000000000000000000000000000000000000000000000000000000000000000000          REGISTERED VOTERS - TOTAL                               REGISTERED VOTERS - TOTAL             Calvert 1                                              00 
00010010002001338000000000000000000000000000000000000000000000000000000000000000000000000000000000000          REGISTERED VOTERS - TOTAL                               REGISTERED VOTERS - TOTAL             Hearne 2                                               00 
00010010003000595000000000000000000000000000000000000000000000000000000000000000000000000000000000000          REGISTERED VOTERS - TOTAL                               REGISTERED VOTERS - TOTAL             Wheelock 3                                             00 
00010010004000718000000000000000000000000000000000000000000000000000000000000000000000000000000000000          REGISTERED VOTERS - TOTAL                               REGISTERED VOTERS - TOTAL             Bald Prairie 4                                         00 
00010010005001487000000000000000000000000000000000000000000000000000000000000000000000000000000000000          REGISTERED VOTERS - TOTAL                               REGISTERED VOTERS - TOTAL             Bremond 5                                              00 
00010010006001572000000000000000000000000000000000000000000000000000000000000000000000000000000000000          REGISTERED VOTERS - TOTAL                               REGISTERED VOTERS - TOTAL             Franklin 6                                             00 
00010010007000252000000000000000000000000000000000000000000000000000000000000000000000000000000000000          REGISTERED VOTERS - TOTAL                               REGISTERED VOTERS - TOTAL             Seale 8                                                00 
00010010008001252000000000000000000000000000000000000000000000000000000000000000000000000000000000000          REGISTERED VOTERS - TOTAL                               REGISTERED VOTERS - TOTAL             Benchley 11                                            00 
00010010009000228000000000000000000000000000000000000000000000000000000000000000000000000000000000000          REGISTERED VOTERS - TOTAL                               REGISTERED VOTERS - TOTAL             Elliott 13                                             00 
00010010010000284000000000000000000000000000000000000000000000000000000000000000000000000000000000000          REGISTERED VOTERS - TOTAL                               REGISTERED VOTERS - TOTAL             Easterly 16                                            00 
00010010011000600000000000000000000000000000000000000000000000000000000000000000000000000000000000000          REGISTERED VOTERS - TOTAL                               REGISTERED VOTERS - TOTAL             New Baden 19                                           00 
00010010012001505000000000000000000000000000000000000000000000000000000000000000000000000000000000000          REGISTERED VOTERS - TOTAL                               REGISTERED VOTERS - TOTAL             Teal Center 22                                         00 
00010010013000748000000000000000000000000000000000000000000000000000000000000000000000000000000000000          REGISTERED VOTERS - TOTAL                               REGISTERED VOTERS - TOTAL             Christian Faith 23                                     00 
00020010001000000000000000000000000000000000000000000000000000000000000000000000000000000000000000000REP       REGISTERED VOTERS - Republican Party                    REGISTERED VOTERS - Republican Party  Calvert 1                                              00 
00020010002000000000000000000000000000000000000000000000000000000000000000000000000000000000000000000REP       REGISTERED VOTERS - Republican Party                    REGISTERED VOTERS - Republican Party  Hearne 2                                               00 
00020010003000000000000000000000000000000000000000000000000000000000000000000000000000000000000000000REP       REGISTERED VOTERS - Republican Party                    REGISTERED VOTERS - Republican Party  Wheelock 3                                             00 
00020010004000000000000000000000000000000000000000000000000000000000000000000000000000000000000000000REP       REGISTERED VOTERS - Republican Party                    REGISTERED VOTERS - Republican Party  Bald Prairie 4                                         00 
00020010005000000000000000000000000000000000000000000000000000000000000000000000000000000000000000000REP       REGISTERED VOTERS - Republican Party                    REGISTERED VOTERS - Republican Party  Bremond 5                                              00 
00020010006000000000000000000000000000000000000000000000000000000000000000000000000000000000000000000REP       REGISTERED VOTERS - Republican Party                    REGISTERED VOTERS - Republican Party  Franklin 6                                             00 
00020010007000000000000000000000000000000000000000000000000000000000000000000000000000000000000000000REP       REGISTERED VOTERS - Republican Party                    REGISTERED VOTERS - Republican Party  Seale 8                                                00 
00020010008000000000000000000000000000000000000000000000000000000000000000000000000000000000000000000REP       REGISTERED VOTERS - Republican Party                    REGISTERED VOTERS - Republican Party  Benchley 11                                            00 
00020010009000000000000000000000000000000000000000000000000000000000000000000000000000000000000000000REP       REGISTERED VOTERS - Republican Party                    REGISTERED VOTERS - Republican Party  Elliott 13                                             00 
00020010010000000000000000000000000000000000000000000000000000000000000000000000000000000000000000000REP       REGISTERED VOTERS - Republican Party                    REGISTERED VOTERS - Republican Party  Easterly 16                                            00 
00020010011000000000000000000000000000000000000000000000000000000000000000000000000000000000000000000REP       REGISTERED VOTERS - Republican Party                    REGISTERED VOTERS - Republican Party  New Baden 19                                           00 
00020010012000000000000000000000000000000000000000000000000000000000000000000000000000000000000000000REP       REGISTERED VOTERS - Republican Party                    REGISTERED VOTERS - Republican Party  Teal Center 22                                         00 
00020010013000000000000000000000000000000000000000000000000000000000000000000000000000000000000000000REP       REGISTERED VOTERS - Republican Party                    REGISTERED VOTERS - Republican Party  Christian Faith 23                                     00 
00030010001000000000000000000000000000000000000000000000000000000000000000000000000000000000000000000DEM       REGISTERED VOTERS - Democratic Party                    REGISTERED VOTERS - Democratic Party  Calvert 1                                              00 
00030010002000000000000000000000000000000000000000000000000000000000000000000000000000000000000000000DEM       REGISTERED VOTERS - Democratic Party                    REGISTERED VOTERS - Democratic Party  Hearne 2                                               00 
00030010003000000000000000000000000000000000000000000000000000000000000000000000000000000000000000000DEM       REGISTERED VOTERS - Democratic Party                    REGISTERED VOTERS - Democratic Party  Wheelock 3                                             00 
00030010004000000000000000000000000000000000000000000000000000000000000000000000000000000000000000000DEM       REGISTERED VOTERS - Democratic Party                    REGISTERED VOTERS - Democratic Party  Bald Prairie 4                                         00 
00030010005000000000000000000000000000000000000000000000000000000000000000000000000000000000000000000DEM       REGISTERED VOTERS - Democratic Party                    REGISTERED VOTERS - Democratic Party  Bremond 5                                              00 
00030010006000000000000000000000000000000000000000000000000000000000000000000000000000000000000000000DEM       REGISTERED VOTERS - Democratic Party                    REGISTERED VOTERS - Democratic Party  Franklin 6                                             00 
00030010007000000000000000000000000000000000000000000000000000000000000000000000000000000000000000000DEM       REGISTERED VOTERS - Democratic Party                    REGISTERED VOTERS - Democratic Party  Seale 8                                                00 
00030010008000000000000000000000000000000000000000000000000000000000000000000000000000000000000000000DEM       REGISTERED VOTERS - Democratic Party                    REGISTERED VOTERS - Democratic Party  Benchley 11                                            00 
00030010009000000000000000000000000000000000000000000000000000000000000000000000000000000000000000000DEM       REGISTERED VOTERS - Democratic Party                    REGISTERED VOTERS - Democratic Party  Elliott 13                                             00 
00030010010000000000000000000000000000000000000000000000000000000000000000000000000000000000000000000DEM       REGISTERED VOTERS - Democratic Party                    REGISTERED VOTERS - Democratic Party  Easterly 16                                            00 
00030010011000000000000000000000000000000000000000000000000000000000000000000000000000000000000000000DEM       REGISTERED VOTERS - Democratic Party                    REGISTERED VOTERS - Democratic Party  New Baden 19                                           00 
00030010012000000000000000000000000000000000000000000000000000000000000000000000000000000000000000000DEM       REGISTERED VOTERS - Democratic Party                    REGISTERED VOTERS - Democratic Party  Teal Center 22                                         00 
00030010013000000000000000000000000000000000000000000000000000000000000000000000000000000000000000000DEM       REGISTERED VOTERS - Democratic Party                    REGISTERED VOTERS - Democratic Party  Christian Faith 23                                     00 
00040010001001301000000000000000000000000000000000000000000000000000000000000000000000000000000000000NON       REGISTERED VOTERS - NONPARTISAN                         REGISTERED VOTERS - NONPARTISAN       Calvert 1                                              00 
00040010002001338000000000000000000000000000000000000000000000000000000000000000000000000000000000000NON       REGISTERED VOTERS - NONPARTISAN                         REGISTERED VOTERS - NONPARTISAN       Hearne 2                                               00 
00040010003000595000000000000000000000000000000000000000000000000000000000000000000000000000000000000NON       REGISTERED VOTERS - NONPARTISAN                         REGISTERED VOTERS - NONPARTISAN       Wheelock 3                                             00 
00040010004000718000000000000000000000000000000000000000000000000000000000000000000000000000000000000NON       REGISTERED VOTERS - NONPARTISAN                         REGISTERED VOTERS - NONPARTISAN       Bald Prairie 4                                         00 
00040010005001487000000000000000000000000000000000000000000000000000000000000000000000000000000000000NON       REGISTERED VOTERS - NONPARTISAN                         REGISTERED VOTERS - NONPARTISAN       Bremond 5                                              00 
00040010006001572000000000000000000000000000000000000000000000000000000000000000000000000000000000000NON       REGISTERED VOTERS - NONPARTISAN                         REGISTERED VOTERS - NONPARTISAN       Franklin 6                                             00 
00040010007000252000000000000000000000000000000000000000000000000000000000000000000000000000000000000NON       REGISTERED VOTERS - NONPARTISAN                         REGISTERED VOTERS - NONPARTISAN       Seale 8                                                00 
00040010008001252000000000000000000000000000000000000000000000000000000000000000000000000000000000000NON       REGISTERED VOTERS - NONPARTISAN                         REGISTERED VOTERS - NONPARTISAN       Benchley 11                                            00 
00040010009000228000000000000000000000000000000000000000000000000000000000000000000000000000000000000NON       REGISTERED VOTERS - NONPARTISAN                         REGISTERED VOTERS - NONPARTISAN       Elliott 13                                             00 
00040010010000284000000000000000000000000000000000000000000000000000000000000000000000000000000000000NON       REGISTERED VOTERS - NONPARTISAN                         REGISTERED VOTERS - NONPARTISAN       Easterly 16                                            00 
00040010011000600000000000000000000000000000000000000000000000000000000000000000000000000000000000000NON       REGISTERED VOTERS - NONPARTISAN                         REGISTERED VOTERS - NONPARTISAN       New Baden 19                                           00 
00040010012001505000000000000000000000000000000000000000000000000000000000000000000000000000000000000NON       REGISTERED VOTERS - NONPARTISAN                         REGISTERED VOTERS - NONPARTISAN       Teal Center 22                                         00 
00040010013000748000000000000000000000000000000000000000000000000000000000000000000000000000000000000NON       REGISTERED VOTERS - NONPARTISAN                         REGISTERED VOTERS - NONPARTISAN       Christian Faith 23                                     00 
00050010001000168000008000039000121000000000000000000000000000000000000000000000000000000000000000000          BALLOTS CAST - TOTAL                                    BALLOTS CAST - TOTAL                  Calvert 1                                              00 
00050010002000159000014000072000073000000000000000000000000000000000000000000000000000000000000000000          BALLOTS CAST - TOTAL                                    BALLOTS CAST - TOTAL                  Hearne 2                                               00 
00050010003000140000004000032000104000000000000000000000000000000000000000000000000000000000000000000          BALLOTS CAST - TOTAL                                    BALLOTS CAST - TOTAL                  Wheelock 3                                             00 
00050010004000130000004000073000053000000000000000000000000000000000000000000000000000000000000000000          BALLOTS CAST - TOTAL                                    BALLOTS CAST - TOTAL                  Bald Prairie 4                                         00 
00050010005000237000015000027000195000000000000000000000000000000000000000000000000000000000000000000          BALLOTS CAST - TOTAL                                    BALLOTS CAST - TOTAL                  Bremond 5                                              00 
00050010006000217000011000096000110000000000000000000000000000000000000000000000000000000000000000000          BALLOTS CAST - TOTAL                                    BALLOTS CAST - TOTAL                  Franklin 6                                             00 
00050010007000092000004000012000076000000000000000000000000000000000000000000000000000000000000000000          BALLOTS CAST - TOTAL                                    BALLOTS CAST - TOTAL                  Seale 8                                                00 
00050010008000196000018000080000098000000000000000000000000000000000000000000000000000000000000000000          BALLOTS CAST - TOTAL                                    BALLOTS CAST - TOTAL                  Benchley 11                                            00 
00050010009000045000001000021000023000000000000000000000000000000000000000000000000000000000000000000          BALLOTS CAST - TOTAL                                    BALLOTS CAST - TOTAL                  Elliott 13                                             00 
00050010010000040000002000022000016000000000000000000000000000000000000000000000000000000000000000000          BALLOTS CAST - TOTAL                                    BALLOTS CAST - TOTAL                  Easterly 16                                            00 
00050010011000129000009000069000051000000000000000000000000000000000000000000000000000000000000000000          BALLOTS CAST - TOTAL                                    BALLOTS CAST - TOTAL                  New Baden 19                                           00 
00050010012000073000018000024000031000000000000000000000000000000000000000000000000000000000000000000          BALLOTS CAST - TOTAL                                    BALLOTS CAST - TOTAL                  Teal Center 22                                         00 
00050010013000049000004000030000015000000000000000000000000000000000000000000000000000000000000000000          BALLOTS CAST - TOTAL                                    BALLOTS CAST - TOTAL                  Christian Faith 23                                     00 
00060010001000151000005000038000108000000000000000000000000000000000000000000000000000000000000000000REP       BALLOTS CAST - Republican Party                         BALLOTS CAST - Republican Party       Calvert 1                                              00 
00060010002000141000012000064000065000000000000000000000000000000000000000000000000000000000000000000REP       BALLOTS CAST - Republican Party                         BALLOTS CAST - Republican Party       Hearne 2                                               00 
00060010003000135000003000031000101000000000000000000000000000000000000000000000000000000000000000000REP       BALLOTS CAST - Republican Party                         BALLOTS CAST - Republican Party       Wheelock 3                                             00 
00060010004000127000001000073000053000000000000000000000000000000000000000000000000000000000000000000REP       BALLOTS CAST - Republican Party                         BALLOTS CAST - Republican Party       Bald Prairie 4                                         00 
00060010005000213000006000025000182000000000000000000000000000000000000000000000000000000000000000000REP       BALLOTS CAST - Republican Party                         BALLOTS CAST - Republican Party       Bremond 5                                              00 
00060010006000209000007000092000110000000000000000000000000000000000000000000000000000000000000000000REP       BALLOTS CAST - Republican Party                         BALLOTS CAST - Republican Party       Franklin 6                                             00 
00060010007000086000004000012000070000000000000000000000000000000000000000000000000000000000000000000REP       BALLOTS CAST - Republican Party                         BALLOTS CAST - Republican Party       Seale 8                                                00 
00060010008000181000007000077000097000000000000000000000000000000000000000000000000000000000000000000REP       BALLOTS CAST - Republican Party                         BALLOTS CAST - Republican Party       Benchley 11                                            00 
00060010009000044000001000021000022000000000000000000000000000000000000000000000000000000000000000000REP       BALLOTS CAST - Republican Party                         BALLOTS CAST - Republican Party       Elliott 13                                             00 
00060010010000040000002000022000016000000000000000000000000000000000000000000000000000000000000000000REP       BALLOTS CAST - Republican Party                         BALLOTS CAST - Republican Party       Easterly 16                                            00 
00060010011000125000006000068000051000000000000000000000000000000000000000000000000000000000000000000REP       BALLOTS CAST - Republican Party                         BALLOTS CAST - Republican Party       New Baden 19                                           00 
00060010012000030000000000016000014000000000000000000000000000000000000000000000000000000000000000000REP       BALLOTS CAST - Republican Party                         BALLOTS CAST - Republican Party       Teal Center 22                                         00 
00060010013000039000001000024000014000000000000000000000000000000000000000000000000000000000000000000REP       BALLOTS CAST - Republican Party                         BALLOTS CAST - Republican Party       Christian Faith 23                                     00 
00070010001000017000003000001000013000000000000000000000000000000000000000000000000000000000000000000DEM       BALLOTS CAST - Democratic Party                         BALLOTS CAST - Democratic Party       Calvert 1                                              00 
00070010002000018000002000008000008000000000000000000000000000000000000000000000000000000000000000000DEM       BALLOTS CAST - Democratic Party                         BALLOTS CAST - Democratic Party       Hearne 2                                               00 
00070010003000005000001000001000003000000000000000000000000000000000000000000000000000000000000000000DEM       BALLOTS CAST - Democratic Party                         BALLOTS CAST - Democratic Party       Wheelock 3                                             00 
00070010004000003000003000000000000000000000000000000000000000000000000000000000000000000000000000000DEM       BALLOTS CAST - Democratic Party                         BALLOTS CAST - Democratic Party       Bald Prairie 4                                         00 
00070010005000024000009000002000013000000000000000000000000000000000000000000000000000000000000000000DEM       BALLOTS CAST - Democratic Party                         BALLOTS CAST - Democratic Party       Bremond 5                                              00 
00070010006000008000004000004000000000000000000000000000000000000000000000000000000000000000000000000DEM       BALLOTS CAST - Democratic Party                         BALLOTS CAST - Democratic Party       Franklin 6                                             00 
00070010007000006000000000000000006000000000000000000000000000000000000000000000000000000000000000000DEM       BALLOTS CAST - Democratic Party                         BALLOTS CAST - Democratic Party       Seale 8                                                00 
00070010008000015000011000003000001000000000000000000000000000000000000000000000000000000000000000000DEM       BALLOTS CAST - Democratic Party                         BALLOTS CAST - Democratic Party       Benchley 11                                            00 
00070010009000001000000000000000001000000000000000000000000000000000000000000000000000000000000000000DEM       BALLOTS CAST - Democratic Party                         BALLOTS CAST - Democratic Party       Elliott 13                                             00 
00070010010000000000000000000000000000000000000000000000000000000000000000000000000000000000000000000DEM       BALLOTS CAST - Democratic Party                         BALLOTS CAST - Democratic Party       Easterly 16                                            00 
00070010011000004000003000001000000000000000000000000000000000000000000000000000000000000000000000000DEM       BALLOTS CAST - Democratic Party                         BALLOTS CAST - Democratic Party       New Baden 19                                           00 
00070010012000043000018000008000017000000000000000000000000000000000000000000000000000000000000000000DEM       BALLOTS CAST - Democratic Party                         BALLOTS CAST - Democratic Party       Teal Center 22                                         00 
00070010013000010000003000006000001000000000000000000000000000000000000000000000000000000000000000000DEM       BALLOTS CAST - Democratic Party                         BALLOTS CAST - Democratic Party       Christian Faith 23                                     00 
00080010001000000000000000000000000000000000000000000000000000000000000000000000000000000000000000000NON       BALLOTS CAST - NONPARTISAN                              BALLOTS CAST - NONPARTISAN            Calvert 1                                              00 
00080010002000000000000000000000000000000000000000000000000000000000000000000000000000000000000000000NON       BALLOTS CAST - NONPARTISAN                              BALLOTS CAST - NONPARTISAN            Hearne 2                                               00 
00080010003000000000000000000000000000000000000000000000000000000000000000000000000000000000000000000NON       BALLOTS CAST - NONPARTISAN                              BALLOTS CAST - NONPARTISAN            Wheelock 3                                             00 
00080010004000000000000000000000000000000000000000000000000000000000000000000000000000000000000000000NON       BALLOTS CAST - NONPARTISAN                              BALLOTS CAST - NONPARTISAN            Bald Prairie 4                                         00 
00080010005000000000000000000000000000000000000000000000000000000000000000000000000000000000000000000NON       BALLOTS CAST - NONPARTISAN                              BALLOTS CAST - NONPARTISAN            Bremond 5                                              00 
00080010006000000000000000000000000000000000000000000000000000000000000000000000000000000000000000000NON       BALLOTS CAST - NONPARTISAN                              BALLOTS CAST - NONPARTISAN            Franklin 6                                             00 
00080010007000000000000000000000000000000000000000000000000000000000000000000000000000000000000000000NON       BALLOTS CAST - NONPARTISAN                              BALLOTS CAST - NONPARTISAN            Seale 8                                                00 
00080010008000000000000000000000000000000000000000000000000000000000000000000000000000000000000000000NON       BALLOTS CAST - NONPARTISAN                              BALLOTS CAST - NONPARTISAN            Benchley 11                                            00 
00080010009000000000000000000000000000000000000000000000000000000000000000000000000000000000000000000NON       BALLOTS CAST - NONPARTISAN                              BALLOTS CAST - NONPARTISAN            Elliott 13                                             00 
00080010010000000000000000000000000000000000000000000000000000000000000000000000000000000000000000000NON       BALLOTS CAST - NONPARTISAN                              BALLOTS CAST - NONPARTISAN            Easterly 16                                            00 
00080010011000000000000000000000000000000000000000000000000000000000000000000000000000000000000000000NON       BALLOTS CAST - NONPARTISAN                              BALLOTS CAST - NONPARTISAN            New Baden 19                                           00 
00080010012000000000000000000000000000000000000000000000000000000000000000000000000000000000000000000NON       BALLOTS CAST - NONPARTISAN                              BALLOTS CAST - NONPARTISAN            Teal Center 22                                         00 
00080010013000000000000000000000000000000000000000000000000000000000000000000000000000000000000000000NON       BALLOTS CAST - NONPARTISAN                              BALLOTS CAST - NONPARTISAN            Christian Faith 23                                     00 
00090010001000001000000000001000000000000000000000000000000000000000000000000000000000000000000000000          BALLOTS CAST - BLANK                                    BALLOTS CAST - BLANK                  Calvert 1                                              00 
00090010002000000000000000000000000000000000000000000000000000000000000000000000000000000000000000000          BALLOTS CAST - BLANK                                    BALLOTS CAST - BLANK                  Hearne 2                                               00 
00090010003000000000000000000000000000000000000000000000000000000000000000000000000000000000000000000          BALLOTS CAST - BLANK                                    BALLOTS CAST - BLANK                  Wheelock 3                                             00 
00090010004000000000000000000000000000000000000000000000000000000000000000000000000000000000000000000          BALLOTS CAST - BLANK                                    BALLOTS CAST - BLANK                  Bald Prairie 4                                         00 
00090010005000000000000000000000000000000000000000000000000000000000000000000000000000000000000000000          BALLOTS CAST - BLANK                                    BALLOTS CAST - BLANK                  Bremond 5                                              00 
00090010006000000000000000000000000000000000000000000000000000000000000000000000000000000000000000000          BALLOTS CAST - BLANK                                    BALLOTS CAST - BLANK                  Franklin 6                                             00 
00090010007000000000000000000000000000000000000000000000000000000000000000000000000000000000000000000          BALLOTS CAST - BLANK                                    BALLOTS CAST - BLANK                  Seale 8                                                00 
00090010008000000000000000000000000000000000000000000000000000000000000000000000000000000000000000000          BALLOTS CAST - BLANK                                    BALLOTS CAST - BLANK                  Benchley 11                                            00 
00090010009000000000000000000000000000000000000000000000000000000000000000000000000000000000000000000          BALLOTS CAST - BLANK                                    BALLOTS CAST - BLANK                  Elliott 13                                             00 
00090010010000000000000000000000000000000000000000000000000000000000000000000000000000000000000000000          BALLOTS CAST - BLANK                                    BALLOTS CAST - BLANK                  Easterly 16                                            00 
00090010011000000000000000000000000000000000000000000000000000000000000000000000000000000000000000000          BALLOTS CAST - BLANK                                    BALLOTS CAST - BLANK                  New Baden 19                                           00 
00090010012000000000000000000000000000000000000000000000000000000000000000000000000000000000000000000          BALLOTS CAST - BLANK                                    BALLOTS CAST - BLANK                  Teal Center 22                                         00 
00090010013000000000000000000000000000000000000000000000000000000000000000000000000000000000000000000          BALLOTS CAST - BLANK                                    BALLOTS CAST - BLANK                  Christian Faith 23                                     00 
00100010001000049000000000011000038000000000000000000000000000000000000000000000000000000000000000000REP       REP Attorney General                                    George P. Bush                        Calvert 1                                              01 
00100010002000041000002000016000023000000000000000000000000000000000000000000000000000000000000000000REP       REP Attorney General                                    George P. Bush                        Hearne 2                                               01 
00100010003000047000003000014000030000000000000000000000000000000000000000000000000000000000000000000REP       REP Attorney General                                    George P. Bush                        Wheelock 3                                             01 
00100010004000036000000000017000019000000000000000000000000000000000000000000000000000000000000000000REP       REP Attorney General                                    George P. Bush                        Bald Prairie 4                                         01 
00100010005000054000001000012000041000000000000000000000000000000000000000000000000000000000000000000REP       REP Attorney General                                    George P. Bush                        Bremond 5                                              01 
00100010006000060000003000023000034000000000000000000000000000000000000000000000000000000000000000000REP       REP Attorney General                                    George P. Bush                        Franklin 6                                             01 
00100010007000032000002000004000026000000000000000000000000000000000000000000000000000000000000000000REP       REP Attorney General                                    George P. Bush                        Seale 8                                                01 
00100010008000031000000000014000017000000000000000000000000000000000000000000000000000000000000000000REP       REP Attorney General                                    George P. Bush                        Benchley 11                                            01 
00100010009000015000001000007000007000000000000000000000000000000000000000000000000000000000000000000REP       REP Attorney General                                    George P. Bush                        Elliott 13                                             01 
00100010010000008000002000003000003000000000000000000000000000000000000000000000000000000000000000000REP       REP Attorney General                                    George P. Bush                        Easterly 16                                            01 
00100010011000042000005000019000018000000000000000000000000000000000000000000000000000000000000000000REP       REP Attorney General                                    George P. Bush                        New Baden 19                                           01 
00100010012000006000000000003000003000000000000000000000000000000000000000000000000000000000000000000REP       REP Attorney General                                    George P. Bush                        Teal Center 22                                         01 
00100010013000012000000000010000002000000000000000000000000000000000000000000000000000000000000000000REP       REP Attorney General                                    George P. Bush                        Christian Faith 23                                     01 
00100020001000102000005000027000070000000000000000000000000000000000000000000000000000000000000000000REP       REP Attorney General                                    Ken Paxton                            Calvert 1                                              01 
00100020002000100000010000048000042000000000000000000000000000000000000000000000000000000000000000000REP       REP Attorney General                                    Ken Paxton                            Hearne 2                                               01 
00100020003000086000000000016000070000000000000000000000000000000000000000000000000000000000000000000REP       REP Attorney General                                    Ken Paxton                            Wheelock 3                                             01 
00100020004000090000001000056000033000000000000000000000000000000000000000000000000000000000000000000REP       REP Attorney General                                    Ken Paxton                            Bald Prairie 4                                         01 
00100020005000158000005000012000141000000000000000000000000000000000000000000000000000000000000000000REP       REP Attorney General                                    Ken Paxton                            Bremond 5                                              01 
00100020006000146000004000067000075000000000000000000000000000000000000000000000000000000000000000000REP       REP Attorney General                                    Ken Paxton                            Franklin 6                                             01 
00100020007000054000002000008000044000000000000000000000000000000000000000000000000000000000000000000REP       REP Attorney General                                    Ken Paxton                            Seale 8                                                01 
00100020008000149000007000063000079000000000000000000000000000000000000000000000000000000000000000000REP       REP Attorney General                                    Ken Paxton                            Benchley 11                                            01 
00100020009000029000000000014000015000000000000000000000000000000000000000000000000000000000000000000REP       REP Attorney General                                    Ken Paxton                            Elliott 13                                             01 
00100020010000032000000000019000013000000000000000000000000000000000000000000000000000000000000000000REP       REP Attorney General                                    Ken Paxton                            Easterly 16                                            01 
00100020011000083000001000049000033000000000000000000000000000000000000000000000000000000000000000000REP       REP Attorney General                                    Ken Paxton                            New Baden 19                                           01 
00100020012000023000000000012000011000000000000000000000000000000000000000000000000000000000000000000REP       REP Attorney General                                    Ken Paxton                            Teal Center 22                                         01 
00100020013000026000001000014000011000000000000000000000000000000000000000000000000000000000000000000REP       REP Attorney General                                    Ken Paxton                            Christian Faith 23                                     01 
00100030001000000000000000000000000000000000000000000000000000000000000000000000000000000000000000000          REP Attorney General                                    OVER VOTES                            Calvert 1                                              01 
00100030002000000000000000000000000000000000000000000000000000000000000000000000000000000000000000000          REP Attorney General                                    OVER VOTES                            Hearne 2                                               01 
00100030003000000000000000000000000000000000000000000000000000000000000000000000000000000000000000000          REP Attorney General                                    OVER VOTES                            Wheelock 3                                             01 
00100030004000000000000000000000000000000000000000000000000000000000000000000000000000000000000000000          REP Attorney General                                    OVER VOTES                            Bald Prairie 4                                         01 
00100030005000000000000000000000000000000000000000000000000000000000000000000000000000000000000000000          REP Attorney General                                    OVER VOTES                            Bremond 5                                              01 
00100030006000000000000000000000000000000000000000000000000000000000000000000000000000000000000000000          REP Attorney General                                    OVER VOTES                            Franklin 6                                             01 
00100030007000000000000000000000000000000000000000000000000000000000000000000000000000000000000000000          REP Attorney General                                    OVER VOTES                            Seale 8                                                01 
00100030008000000000000000000000000000000000000000000000000000000000000000000000000000000000000000000          REP Attorney General                                    OVER VOTES                            Benchley 11                                            01 
00100030009000000000000000000000000000000000000000000000000000000000000000000000000000000000000000000          REP Attorney General                                    OVER VOTES                            Elliott 13                                             01 
00100030010000000000000000000000000000000000000000000000000000000000000000000000000000000000000000000          REP Attorney General                                    OVER VOTES                            Easterly 16                                            01 
00100030011000000000000000000000000000000000000000000000000000000000000000000000000000000000000000000          REP Attorney General                                    OVER VOTES                            New Baden 19                                           01 
00100030012000000000000000000000000000000000000000000000000000000000000000000000000000000000000000000          REP Attorney General                                    OVER VOTES                            Teal Center 22                                         01 
00100030013000000000000000000000000000000000000000000000000000000000000000000000000000000000000000000          REP Attorney General                                    OVER VOTES                            Christian Faith 23                                     01 
00100040001000000000000000000000000000000000000000000000000000000000000000000000000000000000000000000          REP Attorney General                                    UNDER VOTES                           Calvert 1                                              01 
00100040002000000000000000000000000000000000000000000000000000000000000000000000000000000000000000000          REP Attorney General                                    UNDER VOTES                           Hearne 2                                               01 
00100040003000002000000000001000001000000000000000000000000000000000000000000000000000000000000000000          REP Attorney General                                    UNDER VOTES                           Wheelock 3                                             01 
00100040004000001000000000000000001000000000000000000000000000000000000000000000000000000000000000000          REP Attorney General                                    UNDER VOTES                           Bald Prairie 4                                         01 
00100040005000001000000000001000000000000000000000000000000000000000000000000000000000000000000000000          REP Attorney General                                    UNDER VOTES                           Bremond 5                                              01 
00100040006000003000000000002000001000000000000000000000000000000000000000000000000000000000000000000          REP Attorney General                                    UNDER VOTES                           Franklin 6                                             01 
00100040007000000000000000000000000000000000000000000000000000000000000000000000000000000000000000000          REP Attorney General                                    UNDER VOTES                           Seale 8                                                01 
00100040008000001000000000000000001000000000000000000000000000000000000000000000000000000000000000000          REP Attorney General                                    UNDER VOTES                           Benchley 11                                            01 
00100040009000000000000000000000000000000000000000000000000000000000000000000000000000000000000000000          REP Attorney General                                    UNDER VOTES                           Elliott 13                                             01 
00100040010000000000000000000000000000000000000000000000000000000000000000000000000000000000000000000          REP Attorney General                                    UNDER VOTES                           Easterly 16                                            01 
00100040011000000000000000000000000000000000000000000000000000000000000000000000000000000000000000000          REP Attorney General                                    UNDER VOTES                           New Baden 19                                           01 
00100040012000001000000000001000000000000000000000000000000000000000000000000000000000000000000000000          REP Attorney General                                    UNDER VOTES                           Teal Center 22                                         01 
00100040013000001000000000000000001000000000000000000000000000000000000000000000000000000000000000000          REP Attorney General                                    UNDER VOTES                           Christian Faith 23                                     01 
00110010001000044000002000010000032000000000000000000000000000000000000000000000000000000000000000000REP       REP Comm General Land Office                            Tim Westley                           Calvert 1                                              01 
00110010002000042000005000020000017000000000000000000000000000000000000000000000000000000000000000000REP       REP Comm General Land Office                            Tim Westley                           Hearne 2                                               01 
00110010003000057000003000010000044000000000000000000000000000000000000000000000000000000000000000000REP       REP Comm General Land Office                            Tim Westley                           Wheelock 3                                             01 
00110010004000039000000000024000015000000000000000000000000000000000000000000000000000000000000000000REP       REP Comm General Land Office                            Tim Westley                           Bald Prairie 4                                         01 
00110010005000063000004000006000053000000000000000000000000000000000000000000000000000000000000000000REP       REP Comm General Land Office                            Tim Westley                           Bremond 5                                              01 
00110010006000073000003000030000040000000000000000000000000000000000000000000000000000000000000000000REP       REP Comm General Land Office                            Tim Westley                           Franklin 6                                             01 
00110010007000031000001000002000028000000000000000000000000000000000000000000000000000000000000000000REP       REP Comm General Land Office                            Tim Westley                           Seale 8                                                01 
00110010008000054000004000015000035000000000000000000000000000000000000000000000000000000000000000000REP       REP Comm General Land Office                            Tim Westley                           Benchley 11                                            01 
00110010009000010000000000008000002000000000000000000000000000000000000000000000000000000000000000000REP       REP Comm General Land Office                            Tim Westley                           Elliott 13                                             01 
00110010010000012000000000005000007000000000000000000000000000000000000000000000000000000000000000000REP       REP Comm General Land Office                            Tim Westley                           Easterly 16                                            01 
00110010011000038000001000022000015000000000000000000000000000000000000000000000000000000000000000000REP       REP Comm General Land Office                            Tim Westley                           New Baden 19                                           01 
00110010012000004000000000003000001000000000000000000000000000000000000000000000000000000000000000000REP       REP Comm General Land Office                            Tim Westley                           Teal Center 22                                         01 
00110010013000012000001000002000009000000000000000000000000000000000000000000000000000000000000000000REP       REP Comm General Land Office                            Tim Westley                           Christian Faith 23                                     01 
00110020001000096000003000028000065000000000000000000000000000000000000000000000000000000000000000000REP       REP Comm General Land Office                            Dawn Buckingham                       Calvert 1                                              01 
00110020002000081000005000040000036000000000000000000000000000000000000000000000000000000000000000000REP       REP Comm General Land Office                            Dawn Buckingham                       Hearne 2                                               01 
00110020003000064000000000015000049000000000000000000000000000000000000000000000000000000000000000000REP       REP Comm General Land Office                            Dawn Buckingham                       Wheelock 3                                             01 
00110020004000080000001000045000034000000000000000000000000000000000000000000000000000000000000000000REP       REP Comm General Land Office                            Dawn Buckingham                       Bald Prairie 4                                         01 
00110020005000131000002000015000114000000000000000000000000000000000000000000000000000000000000000000REP       REP Comm General Land Office                            Dawn Buckingham                       Bremond 5                                              01 
00110020006000114000001000050000063000000000000000000000000000000000000000000000000000000000000000000REP       REP Comm General Land Office                            Dawn Buckingham                       Franklin 6                                             01 
00110020007000050000003000010000037000000000000000000000000000000000000000000000000000000000000000000REP       REP Comm General Land Office                            Dawn Buckingham                       Seale 8                                                01 
00110020008000105000003000059000043000000000000000000000000000000000000000000000000000000000000000000REP       REP Comm General Land Office                            Dawn Buckingham                       Benchley 11                                            01 
00110020009000033000001000013000019000000000000000000000000000000000000000000000000000000000000000000REP       REP Comm General Land Office                            Dawn Buckingham                       Elliott 13                                             01 
00110020010000025000002000015000008000000000000000000000000000000000000000000000000000000000000000000REP       REP Comm General Land Office                            Dawn Buckingham                       Easterly 16                                            01 
00110020011000085000005000045000035000000000000000000000000000000000000000000000000000000000000000000REP       REP Comm General Land Office                            Dawn Buckingham                       New Baden 19                                           01 
00110020012000024000000000013000011000000000000000000000000000000000000000000000000000000000000000000REP       REP Comm General Land Office                            Dawn Buckingham                       Teal Center 22                                         01 
00110020013000027000000000022000005000000000000000000000000000000000000000000000000000000000000000000REP       REP Comm General Land Office                            Dawn Buckingham                       Christian Faith 23                                     01 
00110030001000000000000000000000000000000000000000000000000000000000000000000000000000000000000000000          REP Comm General Land Office                            OVER VOTES                            Calvert 1                                              01 
00110030002000000000000000000000000000000000000000000000000000000000000000000000000000000000000000000          REP Comm General Land Office                            OVER VOTES                            Hearne 2                                               01 
00110030003000000000000000000000000000000000000000000000000000000000000000000000000000000000000000000          REP Comm General Land Office                            OVER VOTES                            Wheelock 3                                             01 
00110030004000000000000000000000000000000000000000000000000000000000000000000000000000000000000000000          REP Comm General Land Office                            OVER VOTES                            Bald Prairie 4                                         01 
00110030005000002000000000000000002000000000000000000000000000000000000000000000000000000000000000000          REP Comm General Land Office                            OVER VOTES                            Bremond 5                                              01 
00110030006000000000000000000000000000000000000000000000000000000000000000000000000000000000000000000          REP Comm General Land Office                            OVER VOTES                            Franklin 6                                             01 
00110030007000000000000000000000000000000000000000000000000000000000000000000000000000000000000000000          REP Comm General Land Office                            OVER VOTES                            Seale 8                                                01 
00110030008000000000000000000000000000000000000000000000000000000000000000000000000000000000000000000          REP Comm General Land Office                            OVER VOTES                            Benchley 11                                            01 
00110030009000000000000000000000000000000000000000000000000000000000000000000000000000000000000000000          REP Comm General Land Office                            OVER VOTES                            Elliott 13                                             01 
00110030010000000000000000000000000000000000000000000000000000000000000000000000000000000000000000000          REP Comm General Land Office                            OVER VOTES                            Easterly 16                                            01 
00110030011000000000000000000000000000000000000000000000000000000000000000000000000000000000000000000          REP Comm General Land Office                            OVER VOTES                            New Baden 19                                           01 
00110030012000000000000000000000000000000000000000000000000000000000000000000000000000000000000000000          REP Comm General Land Office                            OVER VOTES                            Teal Center 22                                         01 
00110030013000000000000000000000000000000000000000000000000000000000000000000000000000000000000000000          REP Comm General Land Office                            OVER VOTES                            Christian Faith 23                                     01 
00110040001000011000000000000000011000000000000000000000000000000000000000000000000000000000000000000          REP Comm General Land Office                            UNDER VOTES                           Calvert 1                                              01 
00110040002000018000002000004000012000000000000000000000000000000000000000000000000000000000000000000          REP Comm General Land Office                            UNDER VOTES                           Hearne 2                                               01 
00110040003000014000000000006000008000000000000000000000000000000000000000000000000000000000000000000          REP Comm General Land Office                            UNDER VOTES                           Wheelock 3                                             01 
00110040004000008000000000004000004000000000000000000000000000000000000000000000000000000000000000000          REP Comm General Land Office                            UNDER VOTES                           Bald Prairie 4                                         01 
00110040005000017000000000004000013000000000000000000000000000000000000000000000000000000000000000000          REP Comm General Land Office                            UNDER VOTES                           Bremond 5                                              01 
00110040006000022000003000012000007000000000000000000000000000000000000000000000000000000000000000000          REP Comm General Land Office                            UNDER VOTES                           Franklin 6                                             01 
00110040007000005000000000000000005000000000000000000000000000000000000000000000000000000000000000000          REP Comm General Land Office                            UNDER VOTES                           Seale 8                                                01 
00110040008000022000000000003000019000000000000000000000000000000000000000000000000000000000000000000          REP Comm General Land Office                            UNDER VOTES                           Benchley 11                                            01 
00110040009000001000000000000000001000000000000000000000000000000000000000000000000000000000000000000          REP Comm General Land Office                            UNDER VOTES                           Elliott 13                                             01 
00110040010000003000000000002000001000000000000000000000000000000000000000000000000000000000000000000          REP Comm General Land Office                            UNDER VOTES                           Easterly 16                                            01 
00110040011000002000000000001000001000000000000000000000000000000000000000000000000000000000000000000          REP Comm General Land Office                            UNDER VOTES                           New Baden 19                                           01 
00110040012000002000000000000000002000000000000000000000000000000000000000000000000000000000000000000          REP Comm General Land Office                            UNDER VOTES                           Teal Center 22                                         01 
00110040013000000000000000000000000000000000000000000000000000000000000000000000000000000000000000000          REP Comm General Land Office                            UNDER VOTES                           Christian Faith 23                                     01 
00120010001000088000004000027000057000000000000000000000000000000000000000000000000000000000000000000REP       REP Railroad Commissioner                               Wayne Christian                       Calvert 1                                              01 
00120010002000070000008000036000026000000000000000000000000000000000000000000000000000000000000000000REP       REP Railroad Commissioner                               Wayne Christian                       Hearne 2                                               01 
00120010003000086000002000015000069000000000000000000000000000000000000000000000000000000000000000000REP       REP Railroad Commissioner                               Wayne Christian                       Wheelock 3                                             01 
00120010004000060000001000041000018000000000000000000000000000000000000000000000000000000000000000000REP       REP Railroad Commissioner                               Wayne Christian                       Bald Prairie 4                                         01 
00120010005000121000006000016000099000000000000000000000000000000000000000000000000000000000000000000REP       REP Railroad Commissioner                               Wayne Christian                       Bremond 5                                              01 
00120010006000121000004000052000065000000000000000000000000000000000000000000000000000000000000000000REP       REP Railroad Commissioner                               Wayne Christian                       Franklin 6                                             01 
00120010007000054000001000008000045000000000000000000000000000000000000000000000000000000000000000000REP       REP Railroad Commissioner                               Wayne Christian                       Seale 8                                                01 
00120010008000105000006000046000053000000000000000000000000000000000000000000000000000000000000000000REP       REP Railroad Commissioner                               Wayne Christian                       Benchley 11                                            01 
00120010009000026000000000013000013000000000000000000000000000000000000000000000000000000000000000000REP       REP Railroad Commissioner                               Wayne Christian                       Elliott 13                                             01 
00120010010000025000000000015000010000000000000000000000000000000000000000000000000000000000000000000REP       REP Railroad Commissioner                               Wayne Christian                       Easterly 16                                            01 
00120010011000071000004000043000024000000000000000000000000000000000000000000000000000000000000000000REP       REP Railroad Commissioner                               Wayne Christian                       New Baden 19                                           01 
00120010012000017000000000010000007000000000000000000000000000000000000000000000000000000000000000000REP       REP Railroad Commissioner                               Wayne Christian                       Teal Center 22                                         01 
00120010013000025000001000015000009000000000000000000000000000000000000000000000000000000000000000000REP       REP Railroad Commissioner                               Wayne Christian                       Christian Faith 23                                     01 
00120020001000053000001000009000043000000000000000000000000000000000000000000000000000000000000000000REP       REP Railroad Commissioner                               Sarah Stogner                         Calvert 1                                              01 
00120020002000061000002000026000033000000000000000000000000000000000000000000000000000000000000000000REP       REP Railroad Commissioner                               Sarah Stogner                         Hearne 2                                               01 
00120020003000044000001000013000030000000000000000000000000000000000000000000000000000000000000000000REP       REP Railroad Commissioner                               Sarah Stogner                         Wheelock 3                                             01 
00120020004000059000000000025000034000000000000000000000000000000000000000000000000000000000000000000REP       REP Railroad Commissioner                               Sarah Stogner                         Bald Prairie 4                                         01 
00120020005000080000000000007000073000000000000000000000000000000000000000000000000000000000000000000REP       REP Railroad Commissioner                               Sarah Stogner                         Bremond 5                                              01 
00120020006000070000001000030000039000000000000000000000000000000000000000000000000000000000000000000REP       REP Railroad Commissioner                               Sarah Stogner                         Franklin 6                                             01 
00120020007000025000003000004000018000000000000000000000000000000000000000000000000000000000000000000REP       REP Railroad Commissioner                               Sarah Stogner                         Seale 8                                                01 
00120020008000061000001000029000031000000000000000000000000000000000000000000000000000000000000000000REP       REP Railroad Commissioner                               Sarah Stogner                         Benchley 11                                            01 
00120020009000015000001000008000006000000000000000000000000000000000000000000000000000000000000000000REP       REP Railroad Commissioner                               Sarah Stogner                         Elliott 13                                             01 
00120020010000014000002000006000006000000000000000000000000000000000000000000000000000000000000000000REP       REP Railroad Commissioner                               Sarah Stogner                         Easterly 16                                            01 
00120020011000050000002000023000025000000000000000000000000000000000000000000000000000000000000000000REP       REP Railroad Commissioner                               Sarah Stogner                         New Baden 19                                           01 
00120020012000011000000000006000005000000000000000000000000000000000000000000000000000000000000000000REP       REP Railroad Commissioner                               Sarah Stogner                         Teal Center 22                                         01 
00120020013000012000000000007000005000000000000000000000000000000000000000000000000000000000000000000REP       REP Railroad Commissioner                               Sarah Stogner                         Christian Faith 23                                     01 
00120030001000000000000000000000000000000000000000000000000000000000000000000000000000000000000000000          REP Railroad Commissioner                               OVER VOTES                            Calvert 1                                              01 
00120030002000000000000000000000000000000000000000000000000000000000000000000000000000000000000000000          REP Railroad Commissioner                               OVER VOTES                            Hearne 2                                               01 
00120030003000000000000000000000000000000000000000000000000000000000000000000000000000000000000000000          REP Railroad Commissioner                               OVER VOTES                            Wheelock 3                                             01 
00120030004000000000000000000000000000000000000000000000000000000000000000000000000000000000000000000          REP Railroad Commissioner                               OVER VOTES                            Bald Prairie 4                                         01 
00120030005000000000000000000000000000000000000000000000000000000000000000000000000000000000000000000          REP Railroad Commissioner                               OVER VOTES                            Bremond 5                                              01 
00120030006000000000000000000000000000000000000000000000000000000000000000000000000000000000000000000          REP Railroad Commissioner                               OVER VOTES                            Franklin 6                                             01 
00120030007000000000000000000000000000000000000000000000000000000000000000000000000000000000000000000          REP Railroad Commissioner                               OVER VOTES                            Seale 8                                                01 
00120030008000000000000000000000000000000000000000000000000000000000000000000000000000000000000000000          REP Railroad Commissioner                               OVER VOTES                            Benchley 11                                            01 
00120030009000000000000000000000000000000000000000000000000000000000000000000000000000000000000000000          REP Railroad Commissioner                               OVER VOTES                            Elliott 13                                             01 
00120030010000000000000000000000000000000000000000000000000000000000000000000000000000000000000000000          REP Railroad Commissioner                               OVER VOTES                            Easterly 16                                            01 
00120030011000000000000000000000000000000000000000000000000000000000000000000000000000000000000000000          REP Railroad Commissioner                               OVER VOTES                            New Baden 19                                           01 
00120030012000000000000000000000000000000000000000000000000000000000000000000000000000000000000000000          REP Railroad Commissioner                               OVER VOTES                            Teal Center 22                                         01 
00120030013000000000000000000000000000000000000000000000000000000000000000000000000000000000000000000          REP Railroad Commissioner                               OVER VOTES                            Christian Faith 23                                     01 
00120040001000010000000000002000008000000000000000000000000000000000000000000000000000000000000000000          REP Railroad Commissioner                               UNDER VOTES                           Calvert 1                                              01 
00120040002000010000002000002000006000000000000000000000000000000000000000000000000000000000000000000          REP Railroad Commissioner                               UNDER VOTES                           Hearne 2                                               01 
00120040003000005000000000003000002000000000000000000000000000000000000000000000000000000000000000000          REP Railroad Commissioner                               UNDER VOTES                           Wheelock 3                                             01 
00120040004000008000000000007000001000000000000000000000000000000000000000000000000000000000000000000          REP Railroad Commissioner                               UNDER VOTES                           Bald Prairie 4                                         01 
00120040005000012000000000002000010000000000000000000000000000000000000000000000000000000000000000000          REP Railroad Commissioner                               UNDER VOTES                           Bremond 5                                              01 
00120040006000018000002000010000006000000000000000000000000000000000000000000000000000000000000000000          REP Railroad Commissioner                               UNDER VOTES                           Franklin 6                                             01 
00120040007000007000000000000000007000000000000000000000000000000000000000000000000000000000000000000          REP Railroad Commissioner                               UNDER VOTES                           Seale 8                                                01 
00120040008000015000000000002000013000000000000000000000000000000000000000000000000000000000000000000          REP Railroad Commissioner                               UNDER VOTES                           Benchley 11                                            01 
00120040009000003000000000000000003000000000000000000000000000000000000000000000000000000000000000000          REP Railroad Commissioner                               UNDER VOTES                           Elliott 13                                             01 
00120040010000001000000000001000000000000000000000000000000000000000000000000000000000000000000000000          REP Railroad Commissioner                               UNDER VOTES                           Easterly 16                                            01 
00120040011000004000000000002000002000000000000000000000000000000000000000000000000000000000000000000          REP Railroad Commissioner                               UNDER VOTES                           New Baden 19                                           01 
00120040012000002000000000000000002000000000000000000000000000000000000000000000000000000000000000000          REP Railroad Commissioner                               UNDER VOTES                           Teal Center 22                                         01 
00120040013000002000000000002000000000000000000000000000000000000000000000000000000000000000000000000          REP Railroad Commissioner                               UNDER VOTES                           Christian Faith 23                                     01 
00130010001000117000003000032000082000000000000000000000000000000000000000000000000000000000000000000REP       REP State Representative, Dist 12                       Kyle Kacal                            Calvert 1                                              01 
00130010002000101000007000044000050000000000000000000000000000000000000000000000000000000000000000000REP       REP State Representative, Dist 12                       Kyle Kacal                            Hearne 2                                               01 
00130010003000095000001000017000077000000000000000000000000000000000000000000000000000000000000000000REP       REP State Representative, Dist 12                       Kyle Kacal                            Wheelock 3                                             01 
00130010004000102000000000055000047000000000000000000000000000000000000000000000000000000000000000000REP       REP State Representative, Dist 12                       Kyle Kacal                            Bald Prairie 4                                         01 
00130010005000149000006000019000124000000000000000000000000000000000000000000000000000000000000000000REP       REP State Representative, Dist 12                       Kyle Kacal                            Bremond 5                                              01 
00130010006000151000005000069000077000000000000000000000000000000000000000000000000000000000000000000REP       REP State Representative, Dist 12                       Kyle Kacal                            Franklin 6                                             01 
00130010007000069000002000009000058000000000000000000000000000000000000000000000000000000000000000000REP       REP State Representative, Dist 12                       Kyle Kacal                            Seale 8                                                01 
00130010008000101000005000046000050000000000000000000000000000000000000000000000000000000000000000000REP       REP State Representative, Dist 12                       Kyle Kacal                            Benchley 11                                            01 
00130010009000023000000000011000012000000000000000000000000000000000000000000000000000000000000000000REP       REP State Representative, Dist 12                       Kyle Kacal                            Elliott 13                                             01 
00130010010000022000000000009000013000000000000000000000000000000000000000000000000000000000000000000REP       REP State Representative, Dist 12                       Kyle Kacal                            Easterly 16                                            01 
00130010011000090000006000050000034000000000000000000000000000000000000000000000000000000000000000000REP       REP State Representative, Dist 12                       Kyle Kacal                            New Baden 19                                           01 
00130010012000023000000000012000011000000000000000000000000000000000000000000000000000000000000000000REP       REP State Representative, Dist 12                       Kyle Kacal                            Teal Center 22                                         01 
00130010013000025000001000017000007000000000000000000000000000000000000000000000000000000000000000000REP       REP State Representative, Dist 12                       Kyle Kacal                            Christian Faith 23                                     01 
00130020001000034000002000006000026000000000000000000000000000000000000000000000000000000000000000000REP       REP State Representative, Dist 12                       Ben Bius                              Calvert 1                                              01 
00130020002000040000005000020000015000000000000000000000000000000000000000000000000000000000000000000REP       REP State Representative, Dist 12                       Ben Bius                              Hearne 2                                               01 
00130020003000038000002000012000024000000000000000000000000000000000000000000000000000000000000000000REP       REP State Representative, Dist 12                       Ben Bius                              Wheelock 3                                             01 
00130020004000025000001000018000006000000000000000000000000000000000000000000000000000000000000000000REP       REP State Representative, Dist 12                       Ben Bius                              Bald Prairie 4                                         01 
00130020005000063000000000006000057000000000000000000000000000000000000000000000000000000000000000000REP       REP State Representative, Dist 12                       Ben Bius                              Bremond 5                                              01 
00130020006000058000002000023000033000000000000000000000000000000000000000000000000000000000000000000REP       REP State Representative, Dist 12                       Ben Bius                              Franklin 6                                             01 
00130020007000015000002000003000010000000000000000000000000000000000000000000000000000000000000000000REP       REP State Representative, Dist 12                       Ben Bius                              Seale 8                                                01 
00130020008000079000002000031000046000000000000000000000000000000000000000000000000000000000000000000REP       REP State Representative, Dist 12                       Ben Bius                              Benchley 11                                            01 
00130020009000020000001000010000009000000000000000000000000000000000000000000000000000000000000000000REP       REP State Representative, Dist 12                       Ben Bius                              Elliott 13                                             01 
00130020010000018000002000013000003000000000000000000000000000000000000000000000000000000000000000000REP       REP State Representative, Dist 12                       Ben Bius                              Easterly 16                                            01 
00130020011000035000000000018000017000000000000000000000000000000000000000000000000000000000000000000REP       REP State Representative, Dist 12                       Ben Bius                              New Baden 19                                           01 
00130020012000007000000000004000003000000000000000000000000000000000000000000000000000000000000000000REP       REP State Representative, Dist 12                       Ben Bius                              Teal Center 22                                         01 
00130020013000014000000000007000007000000000000000000000000000000000000000000000000000000000000000000REP       REP State Representative, Dist 12                       Ben Bius                              Christian Faith 23                                     01 
00130030001000000000000000000000000000000000000000000000000000000000000000000000000000000000000000000          REP State Representative, Dist 12                       OVER VOTES                            Calvert 1                                              01 
00130030002000000000000000000000000000000000000000000000000000000000000000000000000000000000000000000          REP State Representative, Dist 12                       OVER VOTES                            Hearne 2                                               01 
00130030003000000000000000000000000000000000000000000000000000000000000000000000000000000000000000000          REP State Representative, Dist 12                       OVER VOTES                            Wheelock 3                                             01 
00130030004000000000000000000000000000000000000000000000000000000000000000000000000000000000000000000          REP State Representative, Dist 12                       OVER VOTES                            Bald Prairie 4                                         01 
00130030005000000000000000000000000000000000000000000000000000000000000000000000000000000000000000000          REP State Representative, Dist 12                       OVER VOTES                            Bremond 5                                              01 
00130030006000000000000000000000000000000000000000000000000000000000000000000000000000000000000000000          REP State Representative, Dist 12                       OVER VOTES                            Franklin 6                                             01 
00130030007000000000000000000000000000000000000000000000000000000000000000000000000000000000000000000          REP State Representative, Dist 12                       OVER VOTES                            Seale 8                                                01 
00130030008000000000000000000000000000000000000000000000000000000000000000000000000000000000000000000          REP State Representative, Dist 12                       OVER VOTES                            Benchley 11                                            01 
00130030009000000000000000000000000000000000000000000000000000000000000000000000000000000000000000000          REP State Representative, Dist 12                       OVER VOTES                            Elliott 13                                             01 
00130030010000000000000000000000000000000000000000000000000000000000000000000000000000000000000000000          REP State Representative, Dist 12                       OVER VOTES                            Easterly 16                                            01 
00130030011000000000000000000000000000000000000000000000000000000000000000000000000000000000000000000          REP State Representative, Dist 12                       OVER VOTES                            New Baden 19                                           01 
00130030012000000000000000000000000000000000000000000000000000000000000000000000000000000000000000000          REP State Representative, Dist 12                       OVER VOTES                            Teal Center 22                                         01 
00130030013000000000000000000000000000000000000000000000000000000000000000000000000000000000000000000          REP State Representative, Dist 12                       OVER VOTES                            Christian Faith 23                                     01 
00130040001000000000000000000000000000000000000000000000000000000000000000000000000000000000000000000          REP State Representative, Dist 12                       UNDER VOTES                           Calvert 1                                              01 
00130040002000000000000000000000000000000000000000000000000000000000000000000000000000000000000000000          REP State Representative, Dist 12                       UNDER VOTES                           Hearne 2                                               01 
00130040003000002000000000002000000000000000000000000000000000000000000000000000000000000000000000000          REP State Representative, Dist 12                       UNDER VOTES                           Wheelock 3                                             01 
00130040004000000000000000000000000000000000000000000000000000000000000000000000000000000000000000000          REP State Representative, Dist 12                       UNDER VOTES                           Bald Prairie 4                                         01 
00130040005000001000000000000000001000000000000000000000000000000000000000000000000000000000000000000          REP State Representative, Dist 12                       UNDER VOTES                           Bremond 5                                              01 
00130040006000000000000000000000000000000000000000000000000000000000000000000000000000000000000000000          REP State Representative, Dist 12                       UNDER VOTES                           Franklin 6                                             01 
00130040007000002000000000000000002000000000000000000000000000000000000000000000000000000000000000000          REP State Representative, Dist 12                       UNDER VOTES                           Seale 8                                                01 
00130040008000001000000000000000001000000000000000000000000000000000000000000000000000000000000000000          REP State Representative, Dist 12                       UNDER VOTES                           Benchley 11                                            01 
00130040009000001000000000000000001000000000000000000000000000000000000000000000000000000000000000000          REP State Representative, Dist 12                       UNDER VOTES                           Elliott 13                                             01 
00130040010000000000000000000000000000000000000000000000000000000000000000000000000000000000000000000          REP State Representative, Dist 12                       UNDER VOTES                           Easterly 16                                            01 
00130040011000000000000000000000000000000000000000000000000000000000000000000000000000000000000000000          REP State Representative, Dist 12                       UNDER VOTES                           New Baden 19                                           01 
00130040012000000000000000000000000000000000000000000000000000000000000000000000000000000000000000000          REP State Representative, Dist 12                       UNDER VOTES                           Teal Center 22                                         01 
00130040013000000000000000000000000000000000000000000000000000000000000000000000000000000000000000000          REP State Representative, Dist 12                       UNDER VOTES                           Christian Faith 23                                     01 
00140010001000009000002000000000007000000000000000000000000000000000000000000000000000000000000000000DEM       DEM Lieutenant Governor                                 Michelle Beckley                      Calvert 1                                              01 
00140010002000012000001000004000007000000000000000000000000000000000000000000000000000000000000000000DEM       DEM Lieutenant Governor                                 Michelle Beckley                      Hearne 2                                               01 
00140010003000001000000000001000000000000000000000000000000000000000000000000000000000000000000000000DEM       DEM Lieutenant Governor                                 Michelle Beckley                      Wheelock 3                                             01 
00140010004000000000000000000000000000000000000000000000000000000000000000000000000000000000000000000DEM       DEM Lieutenant Governor                                 Michelle Beckley                      Bald Prairie 4                                         01 
00140010005000012000005000001000006000000000000000000000000000000000000000000000000000000000000000000DEM       DEM Lieutenant Governor                                 Michelle Beckley                      Bremond 5                                              01 
00140010006000002000000000002000000000000000000000000000000000000000000000000000000000000000000000000DEM       DEM Lieutenant Governor                                 Michelle Beckley                      Franklin 6                                             01 
00140010007000002000000000000000002000000000000000000000000000000000000000000000000000000000000000000DEM       DEM Lieutenant Governor                                 Michelle Beckley                      Seale 8                                                01 
00140010008000006000004000001000001000000000000000000000000000000000000000000000000000000000000000000DEM       DEM Lieutenant Governor                                 Michelle Beckley                      Benchley 11                                            01 
00140010009000001000000000000000001000000000000000000000000000000000000000000000000000000000000000000DEM       DEM Lieutenant Governor                                 Michelle Beckley                      Elliott 13                                             01 
00140010010000000000000000000000000000000000000000000000000000000000000000000000000000000000000000000DEM       DEM Lieutenant Governor                                 Michelle Beckley                      Easterly 16                                            01 
00140010011000002000002000000000000000000000000000000000000000000000000000000000000000000000000000000DEM       DEM Lieutenant Governor                                 Michelle Beckley                      New Baden 19                                           01 
00140010012000031000013000006000012000000000000000000000000000000000000000000000000000000000000000000DEM       DEM Lieutenant Governor                                 Michelle Beckley                      Teal Center 22                                         01 
00140010013000004000000000003000001000000000000000000000000000000000000000000000000000000000000000000DEM       DEM Lieutenant Governor                                 Michelle Beckley                      Christian Faith 23                                     01 
00140020001000007000001000000000006000000000000000000000000000000000000000000000000000000000000000000DEM       DEM Lieutenant Governor                                 Mike Collier                          Calvert 1                                              01 
00140020002000006000001000004000001000000000000000000000000000000000000000000000000000000000000000000DEM       DEM Lieutenant Governor                                 Mike Collier                          Hearne 2                                               01 
00140020003000004000001000000000003000000000000000000000000000000000000000000000000000000000000000000DEM       DEM Lieutenant Governor                                 Mike Collier                          Wheelock 3                                             01 
00140020004000003000003000000000000000000000000000000000000000000000000000000000000000000000000000000DEM       DEM Lieutenant Governor                                 Mike Collier                          Bald Prairie 4                                         01 
00140020005000011000003000001000007000000000000000000000000000000000000000000000000000000000000000000DEM       DEM Lieutenant Governor                                 Mike Collier                          Bremond 5                                              01 
00140020006000004000002000002000000000000000000000000000000000000000000000000000000000000000000000000DEM       DEM Lieutenant Governor                                 Mike Collier                          Franklin 6                                             01 
00140020007000004000000000000000004000000000000000000000000000000000000000000000000000000000000000000DEM       DEM Lieutenant Governor                                 Mike Collier                          Seale 8                                                01 
00140020008000008000007000001000000000000000000000000000000000000000000000000000000000000000000000000DEM       DEM Lieutenant Governor                                 Mike Collier                          Benchley 11                                            01 
00140020009000000000000000000000000000000000000000000000000000000000000000000000000000000000000000000DEM       DEM Lieutenant Governor                                 Mike Collier                          Elliott 13                                             01 
00140020010000000000000000000000000000000000000000000000000000000000000000000000000000000000000000000DEM       DEM Lieutenant Governor                                 Mike Collier                          Easterly 16                                            01 
00140020011000002000001000001000000000000000000000000000000000000000000000000000000000000000000000000DEM       DEM Lieutenant Governor                                 Mike Collier                          New Baden 19                                           01 
00140020012000012000005000002000005000000000000000000000000000000000000000000000000000000000000000000DEM       DEM Lieutenant Governor                                 Mike Collier                          Teal Center 22                                         01 
00140020013000006000003000003000000000000000000000000000000000000000000000000000000000000000000000000DEM       DEM Lieutenant Governor                                 Mike Collier                          Christian Faith 23                                     01 
00140030001000000000000000000000000000000000000000000000000000000000000000000000000000000000000000000          DEM Lieutenant Governor                                 OVER VOTES                            Calvert 1                                              01 
00140030002000000000000000000000000000000000000000000000000000000000000000000000000000000000000000000          DEM Lieutenant Governor                                 OVER VOTES                            Hearne 2                                               01 
00140030003000000000000000000000000000000000000000000000000000000000000000000000000000000000000000000          DEM Lieutenant Governor                                 OVER VOTES                            Wheelock 3                                             01 
00140030004000000000000000000000000000000000000000000000000000000000000000000000000000000000000000000          DEM Lieutenant Governor                                 OVER VOTES                            Bald Prairie 4                                         01 
00140030005000000000000000000000000000000000000000000000000000000000000000000000000000000000000000000          DEM Lieutenant Governor                                 OVER VOTES                            Bremond 5                                              01 
00140030006000000000000000000000000000000000000000000000000000000000000000000000000000000000000000000          DEM Lieutenant Governor                                 OVER VOTES                            Franklin 6                                             01 
00140030007000000000000000000000000000000000000000000000000000000000000000000000000000000000000000000          DEM Lieutenant Governor                                 OVER VOTES                            Seale 8                                                01 
00140030008000000000000000000000000000000000000000000000000000000000000000000000000000000000000000000          DEM Lieutenant Governor                                 OVER VOTES                            Benchley 11                                            01 
00140030009000000000000000000000000000000000000000000000000000000000000000000000000000000000000000000          DEM Lieutenant Governor                                 OVER VOTES                            Elliott 13                                             01 
00140030010000000000000000000000000000000000000000000000000000000000000000000000000000000000000000000          DEM Lieutenant Governor                                 OVER VOTES                            Easterly 16                                            01 
00140030011000000000000000000000000000000000000000000000000000000000000000000000000000000000000000000          DEM Lieutenant Governor                                 OVER VOTES                            New Baden 19                                           01 
00140030012000000000000000000000000000000000000000000000000000000000000000000000000000000000000000000          DEM Lieutenant Governor                                 OVER VOTES                            Teal Center 22                                         01 
00140030013000000000000000000000000000000000000000000000000000000000000000000000000000000000000000000          DEM Lieutenant Governor                                 OVER VOTES                            Christian Faith 23                                     01 
00140040001000001000000000001000000000000000000000000000000000000000000000000000000000000000000000000          DEM Lieutenant Governor                                 UNDER VOTES                           Calvert 1                                              01 
00140040002000000000000000000000000000000000000000000000000000000000000000000000000000000000000000000          DEM Lieutenant Governor                                 UNDER VOTES                           Hearne 2                                               01 
00140040003000000000000000000000000000000000000000000000000000000000000000000000000000000000000000000          DEM Lieutenant Governor                                 UNDER VOTES                           Wheelock 3                                             01 
00140040004000000000000000000000000000000000000000000000000000000000000000000000000000000000000000000          DEM Lieutenant Governor                                 UNDER VOTES                           Bald Prairie 4                                         01 
00140040005000001000001000000000000000000000000000000000000000000000000000000000000000000000000000000          DEM Lieutenant Governor                                 UNDER VOTES                           Bremond 5                                              01 
00140040006000002000002000000000000000000000000000000000000000000000000000000000000000000000000000000          DEM Lieutenant Governor                                 UNDER VOTES                           Franklin 6                                             01 
00140040007000000000000000000000000000000000000000000000000000000000000000000000000000000000000000000          DEM Lieutenant Governor                                 UNDER VOTES                           Seale 8                                                01 
00140040008000001000000000001000000000000000000000000000000000000000000000000000000000000000000000000          DEM Lieutenant Governor                                 UNDER VOTES                           Benchley 11                                            01 
00140040009000000000000000000000000000000000000000000000000000000000000000000000000000000000000000000          DEM Lieutenant Governor                                 UNDER VOTES                           Elliott 13                                             01 
00140040010000000000000000000000000000000000000000000000000000000000000000000000000000000000000000000          DEM Lieutenant Governor                                 UNDER VOTES                           Easterly 16                                            01 
00140040011000000000000000000000000000000000000000000000000000000000000000000000000000000000000000000          DEM Lieutenant Governor                                 UNDER VOTES                           New Baden 19                                           01 
00140040012000000000000000000000000000000000000000000000000000000000000000000000000000000000000000000          DEM Lieutenant Governor                                 UNDER VOTES                           Teal Center 22                                         01 
00140040013000000000000000000000000000000000000000000000000000000000000000000000000000000000000000000          DEM Lieutenant Governor                                 UNDER VOTES                           Christian Faith 23                                     01 
