00010010001000941000000000000000000000000000000000000000000000000000000000000000000000000000000000000          REGISTERED VOTERS - TOTAL                               REGISTERED VOTERS - TOTAL             Precinct 111                                           00 
00010010002002200000000000000000000000000000000000000000000000000000000000000000000000000000000000000          REGISTERED VOTERS - TOTAL                               REGISTERED VOTERS - TOTAL             Precinct 112                                           00 
00010010003003143000000000000000000000000000000000000000000000000000000000000000000000000000000000000          REGISTERED VOTERS - TOTAL                               REGISTERED VOTERS - TOTAL             Precinct 113                                           00 
00010010004001612000000000000000000000000000000000000000000000000000000000000000000000000000000000000          REGISTERED VOTERS - TOTAL                               REGISTERED VOTERS - TOTAL             Precinct 114                                           00 
00010010005001021000000000000000000000000000000000000000000000000000000000000000000000000000000000000          REGISTERED VOTERS - TOTAL                               REGISTERED VOTERS - TOTAL             Precinct 201                                           00 
00010010006000931000000000000000000000000000000000000000000000000000000000000000000000000000000000000          REGISTERED VOTERS - TOTAL                               REGISTERED VOTERS - TOTAL             Precinct 212                                           00 
00010010007002029000000000000000000000000000000000000000000000000000000000000000000000000000000000000          REGISTERED VOTERS - TOTAL                               REGISTERED VOTERS - TOTAL             Precinct 213                                           00 
00010010008002547000000000000000000000000000000000000000000000000000000000000000000000000000000000000          REGISTERED VOTERS - TOTAL                               REGISTERED VOTERS - TOTAL             Precinct 214                                           00 
00010010009002316000000000000000000000000000000000000000000000000000000000000000000000000000000000000          REGISTERED VOTERS - TOTAL                               REGISTERED VOTERS - TOTAL             Precinct 215                                           00 
00010010010001179000000000000000000000000000000000000000000000000000000000000000000000000000000000000          REGISTERED VOTERS - TOTAL                               REGISTERED VOTERS - TOTAL             Precinct 302                                           00 
00010010011001770000000000000000000000000000000000000000000000000000000000000000000000000000000000000          REGISTERED VOTERS - TOTAL                               REGISTERED VOTERS - TOTAL             Precinct 303                                           00 
00010010012001124000000000000000000000000000000000000000000000000000000000000000000000000000000000000          REGISTERED VOTERS - TOTAL                               REGISTERED VOTERS - TOTAL             Precinct 314                                           00 
00010010013000852000000000000000000000000000000000000000000000000000000000000000000000000000000000000          REGISTERED VOTERS - TOTAL                               REGISTERED VOTERS - TOTAL             Precinct 315                                           00 
00010010014000507000000000000000000000000000000000000000000000000000000000000000000000000000000000000          REGISTERED VOTERS - TOTAL                               REGISTERED VOTERS - TOTAL             Precinct 316                                           00 
00010010015000789000000000000000000000000000000000000000000000000000000000000000000000000000000000000          REGISTERED VOTERS - TOTAL                               REGISTERED VOTERS - TOTAL             Precinct 317                                           00 
00010010016001161000000000000000000000000000000000000000000000000000000000000000000000000000000000000          REGISTERED VOTERS - TOTAL                               REGISTERED VOTERS - TOTAL             Precinct 318                                           00 
00010010017000404000000000000000000000000000000000000000000000000000000000000000000000000000000000000          REGISTERED VOTERS - TOTAL                               REGISTERED VOTERS - TOTAL             Precinct 319                                           00 
00010010018001702000000000000000000000000000000000000000000000000000000000000000000000000000000000000          REGISTERED VOTERS - TOTAL                               REGISTERED VOTERS - TOTAL             Precinct 404                                           00 
00010010019001286000000000000000000000000000000000000000000000000000000000000000000000000000000000000          REGISTERED VOTERS - TOTAL                               REGISTERED VOTERS - TOTAL             Precinct 405                                           00 
00010010020001007000000000000000000000000000000000000000000000000000000000000000000000000000000000000          REGISTERED VOTERS - TOTAL                               REGISTERED VOTERS - TOTAL             Precinct 416                                           00 
00010010021001630000000000000000000000000000000000000000000000000000000000000000000000000000000000000          REGISTERED VOTERS - TOTAL                               REGISTERED VOTERS - TOTAL             Precinct 417                                           00 
00010010022002337000000000000000000000000000000000000000000000000000000000000000000000000000000000000          REGISTERED VOTERS - TOTAL                               REGISTERED VOTERS - TOTAL             Precinct 418                                           00 
00040010001000062000008000019000035000000000000000000000000000000000000000000000000000000000000000000          BALLOTS CAST - TOTAL                                    BALLOTS CAST - TOTAL                  Precinct 111                                           00 
00040010002000093000025000019000049000000000000000000000000000000000000000000000000000000000000000000          BALLOTS CAST - TOTAL                                    BALLOTS CAST - TOTAL                  Precinct 112                                           00 
00040010003000189000033000011000145000000000000000000000000000000000000000000000000000000000000000000          BALLOTS CAST - TOTAL                                    BALLOTS CAST - TOTAL                  Precinct 113                                           00 
00040010004000106000008000016000082000000000000000000000000000000000000000000000000000000000000000000          BALLOTS CAST - TOTAL                                    BALLOTS CAST - TOTAL                  Precinct 114                                           00 
00040010005000067000017000029000021000000000000000000000000000000000000000000000000000000000000000000          BALLOTS CAST - TOTAL                                    BALLOTS CAST - TOTAL                  Precinct 201                                           00 
00040010006000082000010000036000036000000000000000000000000000000000000000000000000000000000000000000          BALLOTS CAST - TOTAL                                    BALLOTS CAST - TOTAL                  Precinct 212                                           00 
00040010007000132000025000027000080000000000000000000000000000000000000000000000000000000000000000000          BALLOTS CAST - TOTAL                                    BALLOTS CAST - TOTAL                  Precinct 213                                           00 
00040010008000246000037000046000163000000000000000000000000000000000000000000000000000000000000000000          BALLOTS CAST - TOTAL                                    BALLOTS CAST - TOTAL                  Precinct 214                                           00 
00040010009000208000011000042000155000000000000000000000000000000000000000000000000000000000000000000          BALLOTS CAST - TOTAL                                    BALLOTS CAST - TOTAL                  Precinct 215                                           00 
00040010010000069000016000032000021000000000000000000000000000000000000000000000000000000000000000000          BALLOTS CAST - TOTAL                                    BALLOTS CAST - TOTAL                  Precinct 302                                           00 
00040010011000093000023000031000039000000000000000000000000000000000000000000000000000000000000000000          BALLOTS CAST - TOTAL                                    BALLOTS CAST - TOTAL                  Precinct 303                                           00 
00040010012000084000006000032000046000000000000000000000000000000000000000000000000000000000000000000          BALLOTS CAST - TOTAL                                    BALLOTS CAST - TOTAL                  Precinct 314                                           00 
00040010013000070000009000027000034000000000000000000000000000000000000000000000000000000000000000000          BALLOTS CAST - TOTAL                                    BALLOTS CAST - TOTAL                  Precinct 315                                           00 
00040010014000033000007000006000020000000000000000000000000000000000000000000000000000000000000000000          BALLOTS CAST - TOTAL                                    BALLOTS CAST - TOTAL                  Precinct 316                                           00 
00040010015000034000017000000000017000000000000000000000000000000000000000000000000000000000000000000          BALLOTS CAST - TOTAL                                    BALLOTS CAST - TOTAL                  Precinct 317                                           00 
00040010016000102000019000010000073000000000000000000000000000000000000000000000000000000000000000000          BALLOTS CAST - TOTAL                                    BALLOTS CAST - TOTAL                  Precinct 318                                           00 
00040010017000038000008000009000021000000000000000000000000000000000000000000000000000000000000000000          BALLOTS CAST - TOTAL                                    BALLOTS CAST - TOTAL                  Precinct 319                                           00 
00040010018000146000022000063000061000000000000000000000000000000000000000000000000000000000000000000          BALLOTS CAST - TOTAL                                    BALLOTS CAST - TOTAL                  Precinct 404                                           00 
00040010019000108000028000045000035000000000000000000000000000000000000000000000000000000000000000000          BALLOTS CAST - TOTAL                                    BALLOTS CAST - TOTAL                  Precinct 405                                           00 
00040010020000078000007000041000030000000000000000000000000000000000000000000000000000000000000000000          BALLOTS CAST - TOTAL                                    BALLOTS CAST - TOTAL                  Precinct 416                                           00 
00040010021000101000011000032000058000000000000000000000000000000000000000000000000000000000000000000          BALLOTS CAST - TOTAL                                    BALLOTS CAST - TOTAL                  Precinct 417                                           00 
00040010022000188000017000062000109000000000000000000000000000000000000000000000000000000000000000000          BALLOTS CAST - TOTAL                                    BALLOTS CAST - TOTAL                  Precinct 418                                           00 
00050010001000005000001000001000003000000000000000000000000000000000000000000000000000000000000000000DEM       BALLOTS CAST - Democratic Party                         BALLOTS CAST - Democratic Party       Precinct 111                                           00 
00050010002000022000012000000000010000000000000000000000000000000000000000000000000000000000000000000DEM       BALLOTS CAST - Democratic Party                         BALLOTS CAST - Democratic Party       Precinct 112                                           00 
00050010003000020000009000001000010000000000000000000000000000000000000000000000000000000000000000000DEM       BALLOTS CAST - Democratic Party                         BALLOTS CAST - Democratic Party       Precinct 113                                           00 
00050010004000010000003000000000007000000000000000000000000000000000000000000000000000000000000000000DEM       BALLOTS CAST - Democratic Party                         BALLOTS CAST - Democratic Party       Precinct 114                                           00 
00050010005000011000008000000000003000000000000000000000000000000000000000000000000000000000000000000DEM       BALLOTS CAST - Democratic Party                         BALLOTS CAST - Democratic Party       Precinct 201                                           00 
00050010006000010000006000003000001000000000000000000000000000000000000000000000000000000000000000000DEM       BALLOTS CAST - Democratic Party                         BALLOTS CAST - Democratic Party       Precinct 212                                           00 
00050010007000020000008000007000005000000000000000000000000000000000000000000000000000000000000000000DEM       BALLOTS CAST - Democratic Party                         BALLOTS CAST - Democratic Party       Precinct 213                                           00 
00050010008000056000012000013000031000000000000000000000000000000000000000000000000000000000000000000DEM       BALLOTS CAST - Democratic Party                         BALLOTS CAST - Democratic Party       Precinct 214                                           00 
00050010009000045000008000011000026000000000000000000000000000000000000000000000000000000000000000000DEM       BALLOTS CAST - Democratic Party                         BALLOTS CAST - Democratic Party       Precinct 215                                           00 
00050010010000016000010000004000002000000000000000000000000000000000000000000000000000000000000000000DEM       BALLOTS CAST - Democratic Party                         BALLOTS CAST - Democratic Party       Precinct 302                                           00 
00050010011000043000012000013000018000000000000000000000000000000000000000000000000000000000000000000DEM       BALLOTS CAST - Democratic Party                         BALLOTS CAST - Democratic Party       Precinct 303                                           00 
00050010012000005000000000001000004000000000000000000000000000000000000000000000000000000000000000000DEM       BALLOTS CAST - Democratic Party                         BALLOTS CAST - Democratic Party       Precinct 314                                           00 
00050010013000003000001000001000001000000000000000000000000000000000000000000000000000000000000000000DEM       BALLOTS CAST - Democratic Party                         BALLOTS CAST - Democratic Party       Precinct 315                                           00 
00050010014000000000000000000000000000000000000000000000000000000000000000000000000000000000000000000DEM       BALLOTS CAST - Democratic Party                         BALLOTS CAST - Democratic Party       Precinct 316                                           00 
00050010015000011000008000000000003000000000000000000000000000000000000000000000000000000000000000000DEM       BALLOTS CAST - Democratic Party                         BALLOTS CAST - Democratic Party       Precinct 317                                           00 
00050010016000021000006000004000011000000000000000000000000000000000000000000000000000000000000000000DEM       BALLOTS CAST - Democratic Party                         BALLOTS CAST - Democratic Party       Precinct 318                                           00 
00050010017000012000005000003000004000000000000000000000000000000000000000000000000000000000000000000DEM       BALLOTS CAST - Democratic Party                         BALLOTS CAST - Democratic Party       Precinct 319                                           00 
00050010018000009000003000003000003000000000000000000000000000000000000000000000000000000000000000000DEM       BALLOTS CAST - Democratic Party                         BALLOTS CAST - Democratic Party       Precinct 404                                           00 
00050010019000008000006000002000000000000000000000000000000000000000000000000000000000000000000000000DEM       BALLOTS CAST - Democratic Party                         BALLOTS CAST - Democratic Party       Precinct 405                                           00 
00050010020000009000001000004000004000000000000000000000000000000000000000000000000000000000000000000DEM       BALLOTS CAST - Democratic Party                         BALLOTS CAST - Democratic Party       Precinct 416                                           00 
00050010021000011000003000004000004000000000000000000000000000000000000000000000000000000000000000000DEM       BALLOTS CAST - Democratic Party                         BALLOTS CAST - Democratic Party       Precinct 417                                           00 
00050010022000011000004000002000005000000000000000000000000000000000000000000000000000000000000000000DEM       BALLOTS CAST - Democratic Party                         BALLOTS CAST - Democratic Party       Precinct 418                                           00 
00060010001000005000001000001000003000000000000000000000000000000000000000000000000000000000000000000DEM       DEM US Representative, District 1                       Jrmar (JJ) Jefferson                  Precinct 111                                           01 
00060010002000015000009000000000006000000000000000000000000000000000000000000000000000000000000000000DEM       DEM US Representative, District 1                       Jrmar (JJ) Jefferson                  Precinct 112                                           01 
00060010003000011000005000000000006000000000000000000000000000000000000000000000000000000000000000000DEM       DEM US Representative, District 1                       Jrmar (JJ) Jefferson                  Precinct 113                                           01 
00060010004000003000001000000000002000000000000000000000000000000000000000000000000000000000000000000DEM       DEM US Representative, District 1                       Jrmar (JJ) Jefferson                  Precinct 114                                           01 
00060010005000007000004000000000003000000000000000000000000000000000000000000000000000000000000000000DEM       DEM US Representative, District 1                       Jrmar (JJ) Jefferson                  Precinct 201                                           01 
00060010006000004000002000002000000000000000000000000000000000000000000000000000000000000000000000000DEM       DEM US Representative, District 1                       Jrmar (JJ) Jefferson                  Precinct 212                                           01 
00060010007000012000004000004000004000000000000000000000000000000000000000000000000000000000000000000DEM       DEM US Representative, District 1                       Jrmar (JJ) Jefferson                  Precinct 213                                           01 
00060010008000052000010000011000031000000000000000000000000000000000000000000000000000000000000000000DEM       DEM US Representative, District 1                       Jrmar (JJ) Jefferson                  Precinct 214                                           01 
00060010009000040000004000011000025000000000000000000000000000000000000000000000000000000000000000000DEM       DEM US Representative, District 1                       Jrmar (JJ) Jefferson                  Precinct 215                                           01 
00060010010000011000006000003000002000000000000000000000000000000000000000000000000000000000000000000DEM       DEM US Representative, District 1                       Jrmar (JJ) Jefferson                  Precinct 302                                           01 
00060010011000037000010000009000018000000000000000000000000000000000000000000000000000000000000000000DEM       DEM US Representative, District 1                       Jrmar (JJ) Jefferson                  Precinct 303                                           01 
00060010012000005000000000001000004000000000000000000000000000000000000000000000000000000000000000000DEM       DEM US Representative, District 1                       Jrmar (JJ) Jefferson                  Precinct 314                                           01 
00060010013000001000000000001000000000000000000000000000000000000000000000000000000000000000000000000DEM       DEM US Representative, District 1                       Jrmar (JJ) Jefferson                  Precinct 315                                           01 
00060010014000000000000000000000000000000000000000000000000000000000000000000000000000000000000000000DEM       DEM US Representative, District 1                       Jrmar (JJ) Jefferson                  Precinct 316                                           01 
00060010015000006000004000000000002000000000000000000000000000000000000000000000000000000000000000000DEM       DEM US Representative, District 1                       Jrmar (JJ) Jefferson                  Precinct 317                                           01 
00060010016000017000004000004000009000000000000000000000000000000000000000000000000000000000000000000DEM       DEM US Representative, District 1                       Jrmar (JJ) Jefferson                  Precinct 318                                           01 
00060010017000008000003000003000002000000000000000000000000000000000000000000000000000000000000000000DEM       DEM US Representative, District 1                       Jrmar (JJ) Jefferson                  Precinct 319                                           01 
00060010018000007000001000003000003000000000000000000000000000000000000000000000000000000000000000000DEM       DEM US Representative, District 1                       Jrmar (JJ) Jefferson                  Precinct 404                                           01 
00060010019000007000005000002000000000000000000000000000000000000000000000000000000000000000000000000DEM       DEM US Representative, District 1                       Jrmar (JJ) Jefferson                  Precinct 405                                           01 
00060010020000008000000000004000004000000000000000000000000000000000000000000000000000000000000000000DEM       DEM US Representative, District 1                       Jrmar (JJ) Jefferson                  Precinct 416                                           01 
00060010021000005000001000001000003000000000000000000000000000000000000000000000000000000000000000000DEM       DEM US Representative, District 1                       Jrmar (JJ) Jefferson                  Precinct 417                                           01 
00060010022000009000002000002000005000000000000000000000000000000000000000000000000000000000000000000DEM       DEM US Representative, District 1                       Jrmar (JJ) Jefferson                  Precinct 418                                           01 
00060020001000000000000000000000000000000000000000000000000000000000000000000000000000000000000000000DEM       DEM US Representative, District 1                       Victor D. Dunn                        Precinct 111                                           01 
00060020002000007000003000000000004000000000000000000000000000000000000000000000000000000000000000000DEM       DEM US Representative, District 1                       Victor D. Dunn                        Precinct 112                                           01 
00060020003000009000004000001000004000000000000000000000000000000000000000000000000000000000000000000DEM       DEM US Representative, District 1                       Victor D. Dunn                        Precinct 113                                           01 
00060020004000006000002000000000004000000000000000000000000000000000000000000000000000000000000000000DEM       DEM US Representative, District 1                       Victor D. Dunn                        Precinct 114                                           01 
00060020005000003000003000000000000000000000000000000000000000000000000000000000000000000000000000000DEM       DEM US Representative, District 1                       Victor D. Dunn                        Precinct 201                                           01 
00060020006000006000004000001000001000000000000000000000000000000000000000000000000000000000000000000DEM       DEM US Representative, District 1                       Victor D. Dunn                        Precinct 212                                           01 
00060020007000008000004000003000001000000000000000000000000000000000000000000000000000000000000000000DEM       DEM US Representative, District 1                       Victor D. Dunn                        Precinct 213                                           01 
00060020008000003000001000002000000000000000000000000000000000000000000000000000000000000000000000000DEM       DEM US Representative, District 1                       Victor D. Dunn                        Precinct 214                                           01 
00060020009000005000004000000000001000000000000000000000000000000000000000000000000000000000000000000DEM       DEM US Representative, District 1                       Victor D. Dunn                        Precinct 215                                           01 
00060020010000005000004000001000000000000000000000000000000000000000000000000000000000000000000000000DEM       DEM US Representative, District 1                       Victor D. Dunn                        Precinct 302                                           01 
00060020011000006000002000004000000000000000000000000000000000000000000000000000000000000000000000000DEM       DEM US Representative, District 1                       Victor D. Dunn                        Precinct 303                                           01 
00060020012000000000000000000000000000000000000000000000000000000000000000000000000000000000000000000DEM       DEM US Representative, District 1                       Victor D. Dunn                        Precinct 314                                           01 
00060020013000002000001000000000001000000000000000000000000000000000000000000000000000000000000000000DEM       DEM US Representative, District 1                       Victor D. Dunn                        Precinct 315                                           01 
00060020014000000000000000000000000000000000000000000000000000000000000000000000000000000000000000000DEM       DEM US Representative, District 1                       Victor D. Dunn                        Precinct 316                                           01 
00060020015000005000004000000000001000000000000000000000000000000000000000000000000000000000000000000DEM       DEM US Representative, District 1                       Victor D. Dunn                        Precinct 317                                           01 
00060020016000004000002000000000002000000000000000000000000000000000000000000000000000000000000000000DEM       DEM US Representative, District 1                       Victor D. Dunn                        Precinct 318                                           01 
00060020017000002000001000000000001000000000000000000000000000000000000000000000000000000000000000000DEM       DEM US Representative, District 1                       Victor D. Dunn                        Precinct 319                                           01 
00060020018000002000002000000000000000000000000000000000000000000000000000000000000000000000000000000DEM       DEM US Representative, District 1                       Victor D. Dunn                        Precinct 404                                           01 
00060020019000001000001000000000000000000000000000000000000000000000000000000000000000000000000000000DEM       DEM US Representative, District 1                       Victor D. Dunn                        Precinct 405                                           01 
00060020020000000000000000000000000000000000000000000000000000000000000000000000000000000000000000000DEM       DEM US Representative, District 1                       Victor D. Dunn                        Precinct 416                                           01 
00060020021000006000002000003000001000000000000000000000000000000000000000000000000000000000000000000DEM       DEM US Representative, District 1                       Victor D. Dunn                        Precinct 417                                           01 
00060020022000002000002000000000000000000000000000000000000000000000000000000000000000000000000000000DEM       DEM US Representative, District 1                       Victor D. Dunn                        Precinct 418                                           01 
00060030001000000000000000000000000000000000000000000000000000000000000000000000000000000000000000000          DEM US Representative, District 1                       OVER VOTES                            Precinct 111                                           01 
00060030002000000000000000000000000000000000000000000000000000000000000000000000000000000000000000000          DEM US Representative, District 1                       OVER VOTES                            Precinct 112                                           01 
00060030003000000000000000000000000000000000000000000000000000000000000000000000000000000000000000000          DEM US Representative, District 1                       OVER VOTES                            Precinct 113                                           01 
00060030004000000000000000000000000000000000000000000000000000000000000000000000000000000000000000000          DEM US Representative, District 1                       OVER VOTES                            Precinct 114                                           01 
00060030005000000000000000000000000000000000000000000000000000000000000000000000000000000000000000000          DEM US Representative, District 1                       OVER VOTES                            Precinct 201                                           01 
00060030006000000000000000000000000000000000000000000000000000000000000000000000000000000000000000000          DEM US Representative, District 1                       OVER VOTES                            Precinct 212                                           01 
00060030007000000000000000000000000000000000000000000000000000000000000000000000000000000000000000000          DEM US Representative, District 1                       OVER VOTES                            Precinct 213                                           01 
00060030008000000000000000000000000000000000000000000000000000000000000000000000000000000000000000000          DEM US Representative, District 1                       OVER VOTES                            Precinct 214                                           01 
00060030009000000000000000000000000000000000000000000000000000000000000000000000000000000000000000000          DEM US Representative, District 1                       OVER VOTES                            Precinct 215                                           01 
00060030010000000000000000000000000000000000000000000000000000000000000000000000000000000000000000000          DEM US Representative, District 1                       OVER VOTES                            Precinct 302                                           01 
00060030011000000000000000000000000000000000000000000000000000000000000000000000000000000000000000000          DEM US Representative, District 1                       OVER VOTES                            Precinct 303                                           01 
00060030012000000000000000000000000000000000000000000000000000000000000000000000000000000000000000000          DEM US Representative, District 1                       OVER VOTES                            Precinct 314                                           01 
00060030013000000000000000000000000000000000000000000000000000000000000000000000000000000000000000000          DEM US Representative, District 1                       OVER VOTES                            Precinct 315                                           01 
00060030014000000000000000000000000000000000000000000000000000000000000000000000000000000000000000000          DEM US Representative, District 1                       OVER VOTES                            Precinct 316                                           01 
00060030015000000000000000000000000000000000000000000000000000000000000000000000000000000000000000000          DEM US Representative, District 1                       OVER VOTES                            Precinct 317                                           01 
00060030016000000000000000000000000000000000000000000000000000000000000000000000000000000000000000000          DEM US Representative, District 1                       OVER VOTES                            Precinct 318                                           01 
00060030017000000000000000000000000000000000000000000000000000000000000000000000000000000000000000000          DEM US Representative, District 1                       OVER VOTES                            Precinct 319                                           01 
00060030018000000000000000000000000000000000000000000000000000000000000000000000000000000000000000000          DEM US Representative, District 1                       OVER VOTES                            Precinct 404                                           01 
00060030019000000000000000000000000000000000000000000000000000000000000000000000000000000000000000000          DEM US Representative, District 1                       OVER VOTES                            Precinct 405                                           01 
00060030020000000000000000000000000000000000000000000000000000000000000000000000000000000000000000000          DEM US Representative, District 1                       OVER VOTES                            Precinct 416                                           01 
00060030021000000000000000000000000000000000000000000000000000000000000000000000000000000000000000000          DEM US Representative, District 1                       OVER VOTES                            Precinct 417                                           01 
00060030022000000000000000000000000000000000000000000000000000000000000000000000000000000000000000000          DEM US Representative, District 1                       OVER VOTES                            Precinct 418                                           01 
00060040001000000000000000000000000000000000000000000000000000000000000000000000000000000000000000000          DEM US Representative, District 1                       UNDER VOTES                           Precinct 111                                           01 
00060040002000000000000000000000000000000000000000000000000000000000000000000000000000000000000000000          DEM US Representative, District 1                       UNDER VOTES                           Precinct 112                                           01 
00060040003000000000000000000000000000000000000000000000000000000000000000000000000000000000000000000          DEM US Representative, District 1                       UNDER VOTES                           Precinct 113                                           01 
00060040004000001000000000000000001000000000000000000000000000000000000000000000000000000000000000000          DEM US Representative, District 1                       UNDER VOTES                           Precinct 114                                           01 
00060040005000001000001000000000000000000000000000000000000000000000000000000000000000000000000000000          DEM US Representative, District 1                       UNDER VOTES                           Precinct 201                                           01 
00060040006000000000000000000000000000000000000000000000000000000000000000000000000000000000000000000          DEM US Representative, District 1                       UNDER VOTES                           Precinct 212                                           01 
00060040007000000000000000000000000000000000000000000000000000000000000000000000000000000000000000000          DEM US Representative, District 1                       UNDER VOTES                           Precinct 213                                           01 
00060040008000001000001000000000000000000000000000000000000000000000000000000000000000000000000000000          DEM US Representative, District 1                       UNDER VOTES                           Precinct 214                                           01 
00060040009000000000000000000000000000000000000000000000000000000000000000000000000000000000000000000          DEM US Representative, District 1                       UNDER VOTES                           Precinct 215                                           01 
00060040010000000000000000000000000000000000000000000000000000000000000000000000000000000000000000000          DEM US Representative, District 1                       UNDER VOTES                           Precinct 302                                           01 
00060040011000000000000000000000000000000000000000000000000000000000000000000000000000000000000000000          DEM US Representative, District 1                       UNDER VOTES                           Precinct 303                                           01 
00060040012000000000000000000000000000000000000000000000000000000000000000000000000000000000000000000          DEM US Representative, District 1                       UNDER VOTES                           Precinct 314                                           01 
00060040013000000000000000000000000000000000000000000000000000000000000000000000000000000000000000000          DEM US Representative, District 1                       UNDER VOTES                           Precinct 315                                           01 
00060040014000000000000000000000000000000000000000000000000000000000000000000000000000000000000000000          DEM US Representative, District 1                       UNDER VOTES                           Precinct 316                                           01 
00060040015000000000000000000000000000000000000000000000000000000000000000000000000000000000000000000          DEM US Representative, District 1                       UNDER VOTES                           Precinct 317                                           01 
00060040016000000000000000000000000000000000000000000000000000000000000000000000000000000000000000000          DEM US Representative, District 1                       UNDER VOTES                           Precinct 318                                           01 
00060040017000002000001000000000001000000000000000000000000000000000000000000000000000000000000000000          DEM US Representative, District 1                       UNDER VOTES                           Precinct 319                                           01 
00060040018000000000000000000000000000000000000000000000000000000000000000000000000000000000000000000          DEM US Representative, District 1                       UNDER VOTES                           Precinct 404                                           01 
00060040019000000000000000000000000000000000000000000000000000000000000000000000000000000000000000000          DEM US Representative, District 1                       UNDER VOTES                           Precinct 405                                           01 
00060040020000001000001000000000000000000000000000000000000000000000000000000000000000000000000000000          DEM US Representative, District 1                       UNDER VOTES                           Precinct 416                                           01 
00060040021000000000000000000000000000000000000000000000000000000000000000000000000000000000000000000          DEM US Representative, District 1                       UNDER VOTES                           Precinct 417                                           01 
00060040022000000000000000000000000000000000000000000000000000000000000000000000000000000000000000000          DEM US Representative, District 1                       UNDER VOTES                           Precinct 418                                           01 
00070010001000004000000000001000003000000000000000000000000000000000000000000000000000000000000000000DEM       DEM Lieutenant Governor                                 Mike Collier                          Precinct 111                                           01 
00070010002000010000004000000000006000000000000000000000000000000000000000000000000000000000000000000DEM       DEM Lieutenant Governor                                 Mike Collier                          Precinct 112                                           01 
00070010003000006000003000000000003000000000000000000000000000000000000000000000000000000000000000000DEM       DEM Lieutenant Governor                                 Mike Collier                          Precinct 113                                           01 
00070010004000001000000000000000001000000000000000000000000000000000000000000000000000000000000000000DEM       DEM Lieutenant Governor                                 Mike Collier                          Precinct 114                                           01 
00070010005000004000004000000000000000000000000000000000000000000000000000000000000000000000000000000DEM       DEM Lieutenant Governor                                 Mike Collier                          Precinct 201                                           01 
00070010006000007000003000003000001000000000000000000000000000000000000000000000000000000000000000000DEM       DEM Lieutenant Governor                                 Mike Collier                          Precinct 212                                           01 
00070010007000010000005000003000002000000000000000000000000000000000000000000000000000000000000000000DEM       DEM Lieutenant Governor                                 Mike Collier                          Precinct 213                                           01 
00070010008000042000008000010000024000000000000000000000000000000000000000000000000000000000000000000DEM       DEM Lieutenant Governor                                 Mike Collier                          Precinct 214                                           01 
00070010009000031000006000007000018000000000000000000000000000000000000000000000000000000000000000000DEM       DEM Lieutenant Governor                                 Mike Collier                          Precinct 215                                           01 
00070010010000013000009000003000001000000000000000000000000000000000000000000000000000000000000000000DEM       DEM Lieutenant Governor                                 Mike Collier                          Precinct 302                                           01 
00070010011000025000007000010000008000000000000000000000000000000000000000000000000000000000000000000DEM       DEM Lieutenant Governor                                 Mike Collier                          Precinct 303                                           01 
00070010012000001000000000000000001000000000000000000000000000000000000000000000000000000000000000000DEM       DEM Lieutenant Governor                                 Mike Collier                          Precinct 314                                           01 
00070010013000001000000000000000001000000000000000000000000000000000000000000000000000000000000000000DEM       DEM Lieutenant Governor                                 Mike Collier                          Precinct 315                                           01 
00070010014000000000000000000000000000000000000000000000000000000000000000000000000000000000000000000DEM       DEM Lieutenant Governor                                 Mike Collier                          Precinct 316                                           01 
00070010015000008000006000000000002000000000000000000000000000000000000000000000000000000000000000000DEM       DEM Lieutenant Governor                                 Mike Collier                          Precinct 317                                           01 
00070010016000011000002000002000007000000000000000000000000000000000000000000000000000000000000000000DEM       DEM Lieutenant Governor                                 Mike Collier                          Precinct 318                                           01 
00070010017000009000003000003000003000000000000000000000000000000000000000000000000000000000000000000DEM       DEM Lieutenant Governor                                 Mike Collier                          Precinct 319                                           01 
00070010018000005000002000001000002000000000000000000000000000000000000000000000000000000000000000000DEM       DEM Lieutenant Governor                                 Mike Collier                          Precinct 404                                           01 
00070010019000005000004000001000000000000000000000000000000000000000000000000000000000000000000000000DEM       DEM Lieutenant Governor                                 Mike Collier                          Precinct 405                                           01 
00070010020000005000000000002000003000000000000000000000000000000000000000000000000000000000000000000DEM       DEM Lieutenant Governor                                 Mike Collier                          Precinct 416                                           01 
00070010021000006000002000002000002000000000000000000000000000000000000000000000000000000000000000000DEM       DEM Lieutenant Governor                                 Mike Collier                          Precinct 417                                           01 
00070010022000006000002000001000003000000000000000000000000000000000000000000000000000000000000000000DEM       DEM Lieutenant Governor                                 Mike Collier                          Precinct 418                                           01 
00070020001000001000001000000000000000000000000000000000000000000000000000000000000000000000000000000DEM       DEM Lieutenant Governor                                 Michelle Beckley                      Precinct 111                                           01 
00070020002000012000008000000000004000000000000000000000000000000000000000000000000000000000000000000DEM       DEM Lieutenant Governor                                 Michelle Beckley                      Precinct 112                                           01 
00070020003000014000006000001000007000000000000000000000000000000000000000000000000000000000000000000DEM       DEM Lieutenant Governor                                 Michelle Beckley                      Precinct 113                                           01 
00070020004000009000003000000000006000000000000000000000000000000000000000000000000000000000000000000DEM       DEM Lieutenant Governor                                 Michelle Beckley                      Precinct 114                                           01 
00070020005000007000004000000000003000000000000000000000000000000000000000000000000000000000000000000DEM       DEM Lieutenant Governor                                 Michelle Beckley                      Precinct 201                                           01 
00070020006000003000003000000000000000000000000000000000000000000000000000000000000000000000000000000DEM       DEM Lieutenant Governor                                 Michelle Beckley                      Precinct 212                                           01 
00070020007000010000003000004000003000000000000000000000000000000000000000000000000000000000000000000DEM       DEM Lieutenant Governor                                 Michelle Beckley                      Precinct 213                                           01 
00070020008000013000004000003000006000000000000000000000000000000000000000000000000000000000000000000DEM       DEM Lieutenant Governor                                 Michelle Beckley                      Precinct 214                                           01 
00070020009000013000002000003000008000000000000000000000000000000000000000000000000000000000000000000DEM       DEM Lieutenant Governor                                 Michelle Beckley                      Precinct 215                                           01 
00070020010000003000001000001000001000000000000000000000000000000000000000000000000000000000000000000DEM       DEM Lieutenant Governor                                 Michelle Beckley                      Precinct 302                                           01 
00070020011000016000005000003000008000000000000000000000000000000000000000000000000000000000000000000DEM       DEM Lieutenant Governor                                 Michelle Beckley                      Precinct 303                                           01 
00070020012000003000000000000000003000000000000000000000000000000000000000000000000000000000000000000DEM       DEM Lieutenant Governor                                 Michelle Beckley                      Precinct 314                                           01 
00070020013000002000001000001000000000000000000000000000000000000000000000000000000000000000000000000DEM       DEM Lieutenant Governor                                 Michelle Beckley                      Precinct 315                                           01 
00070020014000000000000000000000000000000000000000000000000000000000000000000000000000000000000000000DEM       DEM Lieutenant Governor                                 Michelle Beckley                      Precinct 316                                           01 
00070020015000003000002000000000001000000000000000000000000000000000000000000000000000000000000000000DEM       DEM Lieutenant Governor                                 Michelle Beckley                      Precinct 317                                           01 
00070020016000010000004000002000004000000000000000000000000000000000000000000000000000000000000000000DEM       DEM Lieutenant Governor                                 Michelle Beckley                      Precinct 318                                           01 
00070020017000003000002000000000001000000000000000000000000000000000000000000000000000000000000000000DEM       DEM Lieutenant Governor                                 Michelle Beckley                      Precinct 319                                           01 
00070020018000004000001000002000001000000000000000000000000000000000000000000000000000000000000000000DEM       DEM Lieutenant Governor                                 Michelle Beckley                      Precinct 404                                           01 
00070020019000003000002000001000000000000000000000000000000000000000000000000000000000000000000000000DEM       DEM Lieutenant Governor                                 Michelle Beckley                      Precinct 405                                           01 
00070020020000004000001000002000001000000000000000000000000000000000000000000000000000000000000000000DEM       DEM Lieutenant Governor                                 Michelle Beckley                      Precinct 416                                           01 
00070020021000005000001000002000002000000000000000000000000000000000000000000000000000000000000000000DEM       DEM Lieutenant Governor                                 Michelle Beckley                      Precinct 417                                           01 
00070020022000005000002000001000002000000000000000000000000000000000000000000000000000000000000000000DEM       DEM Lieutenant Governor                                 Michelle Beckley                      Precinct 418                                           01 
00070030001000000000000000000000000000000000000000000000000000000000000000000000000000000000000000000          DEM Lieutenant Governor                                 OVER VOTES                            Precinct 111                                           01 
00070030002000000000000000000000000000000000000000000000000000000000000000000000000000000000000000000          DEM Lieutenant Governor                                 OVER VOTES                            Precinct 112                                           01 
00070030003000000000000000000000000000000000000000000000000000000000000000000000000000000000000000000          DEM Lieutenant Governor                                 OVER VOTES                            Precinct 113                                           01 
00070030004000000000000000000000000000000000000000000000000000000000000000000000000000000000000000000          DEM Lieutenant Governor                                 OVER VOTES                            Precinct 114                                           01 
00070030005000000000000000000000000000000000000000000000000000000000000000000000000000000000000000000          DEM Lieutenant Governor                                 OVER VOTES                            Precinct 201                                           01 
00070030006000000000000000000000000000000000000000000000000000000000000000000000000000000000000000000          DEM Lieutenant Governor                                 OVER VOTES                            Precinct 212                                           01 
00070030007000000000000000000000000000000000000000000000000000000000000000000000000000000000000000000          DEM Lieutenant Governor                                 OVER VOTES                            Precinct 213                                           01 
00070030008000000000000000000000000000000000000000000000000000000000000000000000000000000000000000000          DEM Lieutenant Governor                                 OVER VOTES                            Precinct 214                                           01 
00070030009000000000000000000000000000000000000000000000000000000000000000000000000000000000000000000          DEM Lieutenant Governor                                 OVER VOTES                            Precinct 215                                           01 
00070030010000000000000000000000000000000000000000000000000000000000000000000000000000000000000000000          DEM Lieutenant Governor                                 OVER VOTES                            Precinct 302                                           01 
00070030011000000000000000000000000000000000000000000000000000000000000000000000000000000000000000000          DEM Lieutenant Governor                                 OVER VOTES                            Precinct 303                                           01 
00070030012000000000000000000000000000000000000000000000000000000000000000000000000000000000000000000          DEM Lieutenant Governor                                 OVER VOTES                            Precinct 314                                           01 
00070030013000000000000000000000000000000000000000000000000000000000000000000000000000000000000000000          DEM Lieutenant Governor                                 OVER VOTES                            Precinct 315                                           01 
00070030014000000000000000000000000000000000000000000000000000000000000000000000000000000000000000000          DEM Lieutenant Governor                                 OVER VOTES                            Precinct 316                                           01 
00070030015000000000000000000000000000000000000000000000000000000000000000000000000000000000000000000          DEM Lieutenant Governor                                 OVER VOTES                            Precinct 317                                           01 
00070030016000000000000000000000000000000000000000000000000000000000000000000000000000000000000000000          DEM Lieutenant Governor                                 OVER VOTES                            Precinct 318                                           01 
00070030017000000000000000000000000000000000000000000000000000000000000000000000000000000000000000000          DEM Lieutenant Governor                                 OVER VOTES                            Precinct 319                                           01 
00070030018000000000000000000000000000000000000000000000000000000000000000000000000000000000000000000          DEM Lieutenant Governor                                 OVER VOTES                            Precinct 404                                           01 
00070030019000000000000000000000000000000000000000000000000000000000000000000000000000000000000000000          DEM Lieutenant Governor                                 OVER VOTES                            Precinct 405                                           01 
00070030020000000000000000000000000000000000000000000000000000000000000000000000000000000000000000000          DEM Lieutenant Governor                                 OVER VOTES                            Precinct 416                                           01 
00070030021000000000000000000000000000000000000000000000000000000000000000000000000000000000000000000          DEM Lieutenant Governor                                 OVER VOTES                            Precinct 417                                           01 
00070030022000000000000000000000000000000000000000000000000000000000000000000000000000000000000000000          DEM Lieutenant Governor                                 OVER VOTES                            Precinct 418                                           01 
00070040001000000000000000000000000000000000000000000000000000000000000000000000000000000000000000000          DEM Lieutenant Governor                                 UNDER VOTES                           Precinct 111                                           01 
00070040002000000000000000000000000000000000000000000000000000000000000000000000000000000000000000000          DEM Lieutenant Governor                                 UNDER VOTES                           Precinct 112                                           01 
00070040003000000000000000000000000000000000000000000000000000000000000000000000000000000000000000000          DEM Lieutenant Governor                                 UNDER VOTES                           Precinct 113                                           01 
00070040004000000000000000000000000000000000000000000000000000000000000000000000000000000000000000000          DEM Lieutenant Governor                                 UNDER VOTES                           Precinct 114                                           01 
00070040005000000000000000000000000000000000000000000000000000000000000000000000000000000000000000000          DEM Lieutenant Governor                                 UNDER VOTES                           Precinct 201                                           01 
00070040006000000000000000000000000000000000000000000000000000000000000000000000000000000000000000000          DEM Lieutenant Governor                                 UNDER VOTES                           Precinct 212                                           01 
00070040007000000000000000000000000000000000000000000000000000000000000000000000000000000000000000000          DEM Lieutenant Governor                                 UNDER VOTES                           Precinct 213                                           01 
00070040008000001000000000000000001000000000000000000000000000000000000000000000000000000000000000000          DEM Lieutenant Governor                                 UNDER VOTES                           Precinct 214                                           01 
00070040009000001000000000001000000000000000000000000000000000000000000000000000000000000000000000000          DEM Lieutenant Governor                                 UNDER VOTES                           Precinct 215                                           01 
00070040010000000000000000000000000000000000000000000000000000000000000000000000000000000000000000000          DEM Lieutenant Governor                                 UNDER VOTES                           Precinct 302                                           01 
00070040011000002000000000000000002000000000000000000000000000000000000000000000000000000000000000000          DEM Lieutenant Governor                                 UNDER VOTES                           Precinct 303                                           01 
00070040012000001000000000001000000000000000000000000000000000000000000000000000000000000000000000000          DEM Lieutenant Governor                                 UNDER VOTES                           Precinct 314                                           01 
00070040013000000000000000000000000000000000000000000000000000000000000000000000000000000000000000000          DEM Lieutenant Governor                                 UNDER VOTES                           Precinct 315                                           01 
00070040014000000000000000000000000000000000000000000000000000000000000000000000000000000000000000000          DEM Lieutenant Governor                                 UNDER VOTES                           Precinct 316                                           01 
00070040015000000000000000000000000000000000000000000000000000000000000000000000000000000000000000000          DEM Lieutenant Governor                                 UNDER VOTES                           Precinct 317                                           01 
00070040016000000000000000000000000000000000000000000000000000000000000000000000000000000000000000000          DEM Lieutenant Governor                                 UNDER VOTES                           Precinct 318                                           01 
00070040017000000000000000000000000000000000000000000000000000000000000000000000000000000000000000000          DEM Lieutenant Governor                                 UNDER VOTES                           Precinct 319                                           01 
00070040018000000000000000000000000000000000000000000000000000000000000000000000000000000000000000000          DEM Lieutenant Governor                                 UNDER VOTES                           Precinct 404                                           01 
00070040019000000000000000000000000000000000000000000000000000000000000000000000000000000000000000000          DEM Lieutenant Governor                                 UNDER VOTES                           Precinct 405                                           01 
00070040020000000000000000000000000000000000000000000000000000000000000000000000000000000000000000000          DEM Lieutenant Governor                                 UNDER VOTES                           Precinct 416                                           01 
00070040021000000000000000000000000000000000000000000000000000000000000000000000000000000000000000000          DEM Lieutenant Governor                                 UNDER VOTES                           Precinct 417                                           01 
00070040022000000000000000000000000000000000000000000000000000000000000000000000000000000000000000000          DEM Lieutenant Governor                                 UNDER VOTES                           Precinct 418                                           01 
00080010001000003000000000001000002000000000000000000000000000000000000000000000000000000000000000000DEM       DEM Attorney General                                    Joe Jaworski                          Precinct 111                                           01 
00080010002000011000008000000000003000000000000000000000000000000000000000000000000000000000000000000DEM       DEM Attorney General                                    Joe Jaworski                          Precinct 112                                           01 
00080010003000009000005000000000004000000000000000000000000000000000000000000000000000000000000000000DEM       DEM Attorney General                                    Joe Jaworski                          Precinct 113                                           01 
00080010004000002000001000000000001000000000000000000000000000000000000000000000000000000000000000000DEM       DEM Attorney General                                    Joe Jaworski                          Precinct 114                                           01 
00080010005000009000007000000000002000000000000000000000000000000000000000000000000000000000000000000DEM       DEM Attorney General                                    Joe Jaworski                          Precinct 201                                           01 
00080010006000005000001000003000001000000000000000000000000000000000000000000000000000000000000000000DEM       DEM Attorney General                                    Joe Jaworski                          Precinct 212                                           01 
00080010007000000000000000000000000000000000000000000000000000000000000000000000000000000000000000000DEM       DEM Attorney General                                    Joe Jaworski                          Precinct 213                                           01 
00080010008000037000008000006000023000000000000000000000000000000000000000000000000000000000000000000DEM       DEM Attorney General                                    Joe Jaworski                          Precinct 214                                           01 
00080010009000026000004000004000018000000000000000000000000000000000000000000000000000000000000000000DEM       DEM Attorney General                                    Joe Jaworski                          Precinct 215                                           01 
00080010010000011000006000003000002000000000000000000000000000000000000000000000000000000000000000000DEM       DEM Attorney General                                    Joe Jaworski                          Precinct 302                                           01 
00080010011000030000011000010000009000000000000000000000000000000000000000000000000000000000000000000DEM       DEM Attorney General                                    Joe Jaworski                          Precinct 303                                           01 
00080010012000001000000000000000001000000000000000000000000000000000000000000000000000000000000000000DEM       DEM Attorney General                                    Joe Jaworski                          Precinct 314                                           01 
00080010013000000000000000000000000000000000000000000000000000000000000000000000000000000000000000000DEM       DEM Attorney General                                    Joe Jaworski                          Precinct 315                                           01 
00080010014000000000000000000000000000000000000000000000000000000000000000000000000000000000000000000DEM       DEM Attorney General                                    Joe Jaworski                          Precinct 316                                           01 
00080010015000005000003000000000002000000000000000000000000000000000000000000000000000000000000000000DEM       DEM Attorney General                                    Joe Jaworski                          Precinct 317                                           01 
00080010016000008000000000003000005000000000000000000000000000000000000000000000000000000000000000000DEM       DEM Attorney General                                    Joe Jaworski                          Precinct 318                                           01 
00080010017000007000003000002000002000000000000000000000000000000000000000000000000000000000000000000DEM       DEM Attorney General                                    Joe Jaworski                          Precinct 319                                           01 
00080010018000005000003000001000001000000000000000000000000000000000000000000000000000000000000000000DEM       DEM Attorney General                                    Joe Jaworski                          Precinct 404                                           01 
00080010019000005000004000001000000000000000000000000000000000000000000000000000000000000000000000000DEM       DEM Attorney General                                    Joe Jaworski                          Precinct 405                                           01 
00080010020000005000001000003000001000000000000000000000000000000000000000000000000000000000000000000DEM       DEM Attorney General                                    Joe Jaworski                          Precinct 416                                           01 
00080010021000005000002000001000002000000000000000000000000000000000000000000000000000000000000000000DEM       DEM Attorney General                                    Joe Jaworski                          Precinct 417                                           01 
00080010022000006000003000001000002000000000000000000000000000000000000000000000000000000000000000000DEM       DEM Attorney General                                    Joe Jaworski                          Precinct 418                                           01 
00080020001000002000001000000000001000000000000000000000000000000000000000000000000000000000000000000DEM       DEM Attorney General                                    Rochelle Mercedes Garza               Precinct 111                                           01 
00080020002000010000004000000000006000000000000000000000000000000000000000000000000000000000000000000DEM       DEM Attorney General                                    Rochelle Mercedes Garza               Precinct 112                                           01 
00080020003000011000004000001000006000000000000000000000000000000000000000000000000000000000000000000DEM       DEM Attorney General                                    Rochelle Mercedes Garza               Precinct 113                                           01 
00080020004000008000002000000000006000000000000000000000000000000000000000000000000000000000000000000DEM       DEM Attorney General                                    Rochelle Mercedes Garza               Precinct 114                                           01 
00080020005000002000001000000000001000000000000000000000000000000000000000000000000000000000000000000DEM       DEM Attorney General                                    Rochelle Mercedes Garza               Precinct 201                                           01 
00080020006000005000005000000000000000000000000000000000000000000000000000000000000000000000000000000DEM       DEM Attorney General                                    Rochelle Mercedes Garza               Precinct 212                                           01 
00080020007000020000008000007000005000000000000000000000000000000000000000000000000000000000000000000DEM       DEM Attorney General                                    Rochelle Mercedes Garza               Precinct 213                                           01 
00080020008000017000004000006000007000000000000000000000000000000000000000000000000000000000000000000DEM       DEM Attorney General                                    Rochelle Mercedes Garza               Precinct 214                                           01 
00080020009000018000004000006000008000000000000000000000000000000000000000000000000000000000000000000DEM       DEM Attorney General                                    Rochelle Mercedes Garza               Precinct 215                                           01 
00080020010000005000004000001000000000000000000000000000000000000000000000000000000000000000000000000DEM       DEM Attorney General                                    Rochelle Mercedes Garza               Precinct 302                                           01 
00080020011000013000001000003000009000000000000000000000000000000000000000000000000000000000000000000DEM       DEM Attorney General                                    Rochelle Mercedes Garza               Precinct 303                                           01 
00080020012000003000000000000000003000000000000000000000000000000000000000000000000000000000000000000DEM       DEM Attorney General                                    Rochelle Mercedes Garza               Precinct 314                                           01 
00080020013000003000001000001000001000000000000000000000000000000000000000000000000000000000000000000DEM       DEM Attorney General                                    Rochelle Mercedes Garza               Precinct 315                                           01 
00080020014000000000000000000000000000000000000000000000000000000000000000000000000000000000000000000DEM       DEM Attorney General                                    Rochelle Mercedes Garza               Precinct 316                                           01 
00080020015000006000005000000000001000000000000000000000000000000000000000000000000000000000000000000DEM       DEM Attorney General                                    Rochelle Mercedes Garza               Precinct 317                                           01 
00080020016000012000006000001000005000000000000000000000000000000000000000000000000000000000000000000DEM       DEM Attorney General                                    Rochelle Mercedes Garza               Precinct 318                                           01 
00080020017000005000002000001000002000000000000000000000000000000000000000000000000000000000000000000DEM       DEM Attorney General                                    Rochelle Mercedes Garza               Precinct 319                                           01 
00080020018000004000000000002000002000000000000000000000000000000000000000000000000000000000000000000DEM       DEM Attorney General                                    Rochelle Mercedes Garza               Precinct 404                                           01 
00080020019000003000002000001000000000000000000000000000000000000000000000000000000000000000000000000DEM       DEM Attorney General                                    Rochelle Mercedes Garza               Precinct 405                                           01 
00080020020000004000000000001000003000000000000000000000000000000000000000000000000000000000000000000DEM       DEM Attorney General                                    Rochelle Mercedes Garza               Precinct 416                                           01 
00080020021000005000001000003000001000000000000000000000000000000000000000000000000000000000000000000DEM       DEM Attorney General                                    Rochelle Mercedes Garza               Precinct 417                                           01 
00080020022000005000001000001000003000000000000000000000000000000000000000000000000000000000000000000DEM       DEM Attorney General                                    Rochelle Mercedes Garza               Precinct 418                                           01 
00080030001000000000000000000000000000000000000000000000000000000000000000000000000000000000000000000          DEM Attorney General                                    OVER VOTES                            Precinct 111                                           01 
00080030002000000000000000000000000000000000000000000000000000000000000000000000000000000000000000000          DEM Attorney General                                    OVER VOTES                            Precinct 112                                           01 
00080030003000000000000000000000000000000000000000000000000000000000000000000000000000000000000000000          DEM Attorney General                                    OVER VOTES                            Precinct 113                                           01 
00080030004000000000000000000000000000000000000000000000000000000000000000000000000000000000000000000          DEM Attorney General                                    OVER VOTES                            Precinct 114                                           01 
00080030005000000000000000000000000000000000000000000000000000000000000000000000000000000000000000000          DEM Attorney General                                    OVER VOTES                            Precinct 201                                           01 
00080030006000000000000000000000000000000000000000000000000000000000000000000000000000000000000000000          DEM Attorney General                                    OVER VOTES                            Precinct 212                                           01 
00080030007000000000000000000000000000000000000000000000000000000000000000000000000000000000000000000          DEM Attorney General                                    OVER VOTES                            Precinct 213                                           01 
00080030008000000000000000000000000000000000000000000000000000000000000000000000000000000000000000000          DEM Attorney General                                    OVER VOTES                            Precinct 214                                           01 
00080030009000000000000000000000000000000000000000000000000000000000000000000000000000000000000000000          DEM Attorney General                                    OVER VOTES                            Precinct 215                                           01 
00080030010000000000000000000000000000000000000000000000000000000000000000000000000000000000000000000          DEM Attorney General                                    OVER VOTES                            Precinct 302                                           01 
00080030011000000000000000000000000000000000000000000000000000000000000000000000000000000000000000000          DEM Attorney General                                    OVER VOTES                            Precinct 303                                           01 
00080030012000000000000000000000000000000000000000000000000000000000000000000000000000000000000000000          DEM Attorney General                                    OVER VOTES                            Precinct 314                                           01 
00080030013000000000000000000000000000000000000000000000000000000000000000000000000000000000000000000          DEM Attorney General                                    OVER VOTES                            Precinct 315                                           01 
00080030014000000000000000000000000000000000000000000000000000000000000000000000000000000000000000000          DEM Attorney General                                    OVER VOTES                            Precinct 316                                           01 
00080030015000000000000000000000000000000000000000000000000000000000000000000000000000000000000000000          DEM Attorney General                                    OVER VOTES                            Precinct 317                                           01 
00080030016000000000000000000000000000000000000000000000000000000000000000000000000000000000000000000          DEM Attorney General                                    OVER VOTES                            Precinct 318                                           01 
00080030017000000000000000000000000000000000000000000000000000000000000000000000000000000000000000000          DEM Attorney General                                    OVER VOTES                            Precinct 319                                           01 
00080030018000000000000000000000000000000000000000000000000000000000000000000000000000000000000000000          DEM Attorney General                                    OVER VOTES                            Precinct 404                                           01 
00080030019000000000000000000000000000000000000000000000000000000000000000000000000000000000000000000          DEM Attorney General                                    OVER VOTES                            Precinct 405                                           01 
00080030020000000000000000000000000000000000000000000000000000000000000000000000000000000000000000000          DEM Attorney General                                    OVER VOTES                            Precinct 416                                           01 
00080030021000000000000000000000000000000000000000000000000000000000000000000000000000000000000000000          DEM Attorney General                                    OVER VOTES                            Precinct 417                                           01 
00080030022000000000000000000000000000000000000000000000000000000000000000000000000000000000000000000          DEM Attorney General                                    OVER VOTES                            Precinct 418                                           01 
00080040001000000000000000000000000000000000000000000000000000000000000000000000000000000000000000000          DEM Attorney General                                    UNDER VOTES                           Precinct 111                                           01 
00080040002000001000000000000000001000000000000000000000000000000000000000000000000000000000000000000          DEM Attorney General                                    UNDER VOTES                           Precinct 112                                           01 
00080040003000000000000000000000000000000000000000000000000000000000000000000000000000000000000000000          DEM Attorney General                                    UNDER VOTES                           Precinct 113                                           01 
00080040004000000000000000000000000000000000000000000000000000000000000000000000000000000000000000000          DEM Attorney General                                    UNDER VOTES                           Precinct 114                                           01 
00080040005000000000000000000000000000000000000000000000000000000000000000000000000000000000000000000          DEM Attorney General                                    UNDER VOTES                           Precinct 201                                           01 
00080040006000000000000000000000000000000000000000000000000000000000000000000000000000000000000000000          DEM Attorney General                                    UNDER VOTES                           Precinct 212                                           01 
00080040007000000000000000000000000000000000000000000000000000000000000000000000000000000000000000000          DEM Attorney General                                    UNDER VOTES                           Precinct 213                                           01 
00080040008000002000000000001000001000000000000000000000000000000000000000000000000000000000000000000          DEM Attorney General                                    UNDER VOTES                           Precinct 214                                           01 
00080040009000001000000000001000000000000000000000000000000000000000000000000000000000000000000000000          DEM Attorney General                                    UNDER VOTES                           Precinct 215                                           01 
00080040010000000000000000000000000000000000000000000000000000000000000000000000000000000000000000000          DEM Attorney General                                    UNDER VOTES                           Precinct 302                                           01 
00080040011000000000000000000000000000000000000000000000000000000000000000000000000000000000000000000          DEM Attorney General                                    UNDER VOTES                           Precinct 303                                           01 
00080040012000001000000000001000000000000000000000000000000000000000000000000000000000000000000000000          DEM Attorney General                                    UNDER VOTES                           Precinct 314                                           01 
00080040013000000000000000000000000000000000000000000000000000000000000000000000000000000000000000000          DEM Attorney General                                    UNDER VOTES                           Precinct 315                                           01 
00080040014000000000000000000000000000000000000000000000000000000000000000000000000000000000000000000          DEM Attorney General                                    UNDER VOTES                           Precinct 316                                           01 
00080040015000000000000000000000000000000000000000000000000000000000000000000000000000000000000000000          DEM Attorney General                                    UNDER VOTES                           Precinct 317                                           01 
00080040016000001000000000000000001000000000000000000000000000000000000000000000000000000000000000000          DEM Attorney General                                    UNDER VOTES                           Precinct 318                                           01 
00080040017000000000000000000000000000000000000000000000000000000000000000000000000000000000000000000          DEM Attorney General                                    UNDER VOTES                           Precinct 319                                           01 
00080040018000000000000000000000000000000000000000000000000000000000000000000000000000000000000000000          DEM Attorney General                                    UNDER VOTES                           Precinct 404                                           01 
00080040019000000000000000000000000000000000000000000000000000000000000000000000000000000000000000000          DEM Attorney General                                    UNDER VOTES                           Precinct 405                                           01 
00080040020000000000000000000000000000000000000000000000000000000000000000000000000000000000000000000          DEM Attorney General                                    UNDER VOTES                           Precinct 416                                           01 
00080040021000001000000000000000001000000000000000000000000000000000000000000000000000000000000000000          DEM Attorney General                                    UNDER VOTES                           Precinct 417                                           01 
00080040022000000000000000000000000000000000000000000000000000000000000000000000000000000000000000000          DEM Attorney General                                    UNDER VOTES                           Precinct 418                                           01 
00090010001000004000001000001000002000000000000000000000000000000000000000000000000000000000000000000DEM       DEM Comptroller of Public Accounts                      Janet T. Dudding                      Precinct 111                                           01 
00090010002000016000009000000000007000000000000000000000000000000000000000000000000000000000000000000DEM       DEM Comptroller of Public Accounts                      Janet T. Dudding                      Precinct 112                                           01 
00090010003000010000005000001000004000000000000000000000000000000000000000000000000000000000000000000DEM       DEM Comptroller of Public Accounts                      Janet T. Dudding                      Precinct 113                                           01 
00090010004000007000003000000000004000000000000000000000000000000000000000000000000000000000000000000DEM       DEM Comptroller of Public Accounts                      Janet T. Dudding                      Precinct 114                                           01 
00090010005000009000007000000000002000000000000000000000000000000000000000000000000000000000000000000DEM       DEM Comptroller of Public Accounts                      Janet T. Dudding                      Precinct 201                                           01 
00090010006000007000006000001000000000000000000000000000000000000000000000000000000000000000000000000DEM       DEM Comptroller of Public Accounts                      Janet T. Dudding                      Precinct 212                                           01 
00090010007000009000004000003000002000000000000000000000000000000000000000000000000000000000000000000DEM       DEM Comptroller of Public Accounts                      Janet T. Dudding                      Precinct 213                                           01 
00090010008000040000010000008000022000000000000000000000000000000000000000000000000000000000000000000DEM       DEM Comptroller of Public Accounts                      Janet T. Dudding                      Precinct 214                                           01 
00090010009000038000006000008000024000000000000000000000000000000000000000000000000000000000000000000DEM       DEM Comptroller of Public Accounts                      Janet T. Dudding                      Precinct 215                                           01 
00090010010000009000005000003000001000000000000000000000000000000000000000000000000000000000000000000DEM       DEM Comptroller of Public Accounts                      Janet T. Dudding                      Precinct 302                                           01 
00090010011000029000009000009000011000000000000000000000000000000000000000000000000000000000000000000DEM       DEM Comptroller of Public Accounts                      Janet T. Dudding                      Precinct 303                                           01 
00090010012000003000000000000000003000000000000000000000000000000000000000000000000000000000000000000DEM       DEM Comptroller of Public Accounts                      Janet T. Dudding                      Precinct 314                                           01 
00090010013000002000001000000000001000000000000000000000000000000000000000000000000000000000000000000DEM       DEM Comptroller of Public Accounts                      Janet T. Dudding                      Precinct 315                                           01 
00090010014000000000000000000000000000000000000000000000000000000000000000000000000000000000000000000DEM       DEM Comptroller of Public Accounts                      Janet T. Dudding                      Precinct 316                                           01 
00090010015000009000006000000000003000000000000000000000000000000000000000000000000000000000000000000DEM       DEM Comptroller of Public Accounts                      Janet T. Dudding                      Precinct 317                                           01 
00090010016000016000005000002000009000000000000000000000000000000000000000000000000000000000000000000DEM       DEM Comptroller of Public Accounts                      Janet T. Dudding                      Precinct 318                                           01 
00090010017000006000003000000000003000000000000000000000000000000000000000000000000000000000000000000DEM       DEM Comptroller of Public Accounts                      Janet T. Dudding                      Precinct 319                                           01 
00090010018000006000003000001000002000000000000000000000000000000000000000000000000000000000000000000DEM       DEM Comptroller of Public Accounts                      Janet T. Dudding                      Precinct 404                                           01 
00090010019000008000006000002000000000000000000000000000000000000000000000000000000000000000000000000DEM       DEM Comptroller of Public Accounts                      Janet T. Dudding                      Precinct 405                                           01 
00090010020000004000000000002000002000000000000000000000000000000000000000000000000000000000000000000DEM       DEM Comptroller of Public Accounts                      Janet T. Dudding                      Precinct 416                                           01 
00090010021000005000000000001000004000000000000000000000000000000000000000000000000000000000000000000DEM       DEM Comptroller of Public Accounts                      Janet T. Dudding                      Precinct 417                                           01 
00090010022000009000004000001000004000000000000000000000000000000000000000000000000000000000000000000DEM       DEM Comptroller of Public Accounts                      Janet T. Dudding                      Precinct 418                                           01 
00090020001000001000000000000000001000000000000000000000000000000000000000000000000000000000000000000DEM       DEM Comptroller of Public Accounts                      Angel Luis Vega                       Precinct 111                                           01 
00090020002000006000003000000000003000000000000000000000000000000000000000000000000000000000000000000DEM       DEM Comptroller of Public Accounts                      Angel Luis Vega                       Precinct 112                                           01 
00090020003000009000003000000000006000000000000000000000000000000000000000000000000000000000000000000DEM       DEM Comptroller of Public Accounts                      Angel Luis Vega                       Precinct 113                                           01 
00090020004000003000000000000000003000000000000000000000000000000000000000000000000000000000000000000DEM       DEM Comptroller of Public Accounts                      Angel Luis Vega                       Precinct 114                                           01 
00090020005000002000001000000000001000000000000000000000000000000000000000000000000000000000000000000DEM       DEM Comptroller of Public Accounts                      Angel Luis Vega                       Precinct 201                                           01 
00090020006000003000000000002000001000000000000000000000000000000000000000000000000000000000000000000DEM       DEM Comptroller of Public Accounts                      Angel Luis Vega                       Precinct 212                                           01 
00090020007000011000004000004000003000000000000000000000000000000000000000000000000000000000000000000DEM       DEM Comptroller of Public Accounts                      Angel Luis Vega                       Precinct 213                                           01 
00090020008000011000001000003000007000000000000000000000000000000000000000000000000000000000000000000DEM       DEM Comptroller of Public Accounts                      Angel Luis Vega                       Precinct 214                                           01 
00090020009000006000002000002000002000000000000000000000000000000000000000000000000000000000000000000DEM       DEM Comptroller of Public Accounts                      Angel Luis Vega                       Precinct 215                                           01 
00090020010000007000005000001000001000000000000000000000000000000000000000000000000000000000000000000DEM       DEM Comptroller of Public Accounts                      Angel Luis Vega                       Precinct 302                                           01 
00090020011000013000003000004000006000000000000000000000000000000000000000000000000000000000000000000DEM       DEM Comptroller of Public Accounts                      Angel Luis Vega                       Precinct 303                                           01 
00090020012000001000000000000000001000000000000000000000000000000000000000000000000000000000000000000DEM       DEM Comptroller of Public Accounts                      Angel Luis Vega                       Precinct 314                                           01 
00090020013000001000000000001000000000000000000000000000000000000000000000000000000000000000000000000DEM       DEM Comptroller of Public Accounts                      Angel Luis Vega                       Precinct 315                                           01 
00090020014000000000000000000000000000000000000000000000000000000000000000000000000000000000000000000DEM       DEM Comptroller of Public Accounts                      Angel Luis Vega                       Precinct 316                                           01 
00090020015000002000002000000000000000000000000000000000000000000000000000000000000000000000000000000DEM       DEM Comptroller of Public Accounts                      Angel Luis Vega                       Precinct 317                                           01 
00090020016000005000001000002000002000000000000000000000000000000000000000000000000000000000000000000DEM       DEM Comptroller of Public Accounts                      Angel Luis Vega                       Precinct 318                                           01 
00090020017000005000001000003000001000000000000000000000000000000000000000000000000000000000000000000DEM       DEM Comptroller of Public Accounts                      Angel Luis Vega                       Precinct 319                                           01 
00090020018000003000000000002000001000000000000000000000000000000000000000000000000000000000000000000DEM       DEM Comptroller of Public Accounts                      Angel Luis Vega                       Precinct 404                                           01 
00090020019000000000000000000000000000000000000000000000000000000000000000000000000000000000000000000DEM       DEM Comptroller of Public Accounts                      Angel Luis Vega                       Precinct 405                                           01 
00090020020000004000000000002000002000000000000000000000000000000000000000000000000000000000000000000DEM       DEM Comptroller of Public Accounts                      Angel Luis Vega                       Precinct 416                                           01 
00090020021000006000003000003000000000000000000000000000000000000000000000000000000000000000000000000DEM       DEM Comptroller of Public Accounts                      Angel Luis Vega                       Precinct 417                                           01 
00090020022000002000000000001000001000000000000000000000000000000000000000000000000000000000000000000DEM       DEM Comptroller of Public Accounts                      Angel Luis Vega                       Precinct 418                                           01 
00090030001000000000000000000000000000000000000000000000000000000000000000000000000000000000000000000          DEM Comptroller of Public Accounts                      OVER VOTES                            Precinct 111                                           01 
00090030002000000000000000000000000000000000000000000000000000000000000000000000000000000000000000000          DEM Comptroller of Public Accounts                      OVER VOTES                            Precinct 112                                           01 
00090030003000000000000000000000000000000000000000000000000000000000000000000000000000000000000000000          DEM Comptroller of Public Accounts                      OVER VOTES                            Precinct 113                                           01 
