00010010001005716          REGISTERED VOTERS - TOTAL                               REGISTERED VOTERS - TOTAL             Commissioner Precinct 1                                00 
00010010002006020          REGISTERED VOTERS - TOTAL                               REGISTERED VOTERS - TOTAL             Commissioner Precinct 2                                00 
00010010003006195          REGISTERED VOTERS - TOTAL                               REGISTERED VOTERS - TOTAL             Commissioner Precinct 3                                00 
00010010004006206          REGISTERED VOTERS - TOTAL                               REGISTERED VOTERS - TOTAL             Commissioner Precinct 4                                00 
00020010001000000REP       REGISTERED VOTERS - Republican Party                    REGISTERED VOTERS - Republican Party  Commissioner Precinct 1                                00 
00020010002000000REP       REGISTERED VOTERS - Republican Party                    REGISTERED VOTERS - Republican Party  Commissioner Precinct 2                                00 
00020010003000000REP       REGISTERED VOTERS - Republican Party                    REGISTERED VOTERS - Republican Party  Commissioner Precinct 3                                00 
00020010004000000REP       REGISTERED VOTERS - Republican Party                    REGISTERED VOTERS - Republican Party  Commissioner Precinct 4                                00 
00030010001005716DEM       REGISTERED VOTERS - Democratic Party                    REGISTERED VOTERS - Democratic Party  Commissioner Precinct 1                                00 
00030010002006020DEM       REGISTERED VOTERS - Democratic Party                    REGISTERED VOTERS - Democratic Party  Commissioner Precinct 2                                00 
00030010003006195DEM       REGISTERED VOTERS - Democratic Party                    REGISTERED VOTERS - Democratic Party  Commissioner Precinct 3                                00 
00030010004006206DEM       REGISTERED VOTERS - Democratic Party                    REGISTERED VOTERS - Democratic Party  Commissioner Precinct 4                                00 
00040010001000000NON       REGISTERED VOTERS - NONPARTISAN                         REGISTERED VOTERS - NONPARTISAN       Commissioner Precinct 1                                00 
00040010002000000NON       REGISTERED VOTERS - NONPARTISAN                         REGISTERED VOTERS - NONPARTISAN       Commissioner Precinct 2                                00 
00040010003000000NON       REGISTERED VOTERS - NONPARTISAN                         REGISTERED VOTERS - NONPARTISAN       Commissioner Precinct 3                                00 
00040010004000000NON       REGISTERED VOTERS - NONPARTISAN                         REGISTERED VOTERS - NONPARTISAN       Commissioner Precinct 4                                00 
00050010001000688          BALLOTS CAST - TOTAL                                    BALLOTS CAST - TOTAL                  Commissioner Precinct 1                                00 
00050010002001112          BALLOTS CAST - TOTAL                                    BALLOTS CAST - TOTAL                  Commissioner Precinct 2                                00 
00050010003001088          BALLOTS CAST - TOTAL                                    BALLOTS CAST - TOTAL                  Commissioner Precinct 3                                00 
00050010004000861          BALLOTS CAST - TOTAL                                    BALLOTS CAST - TOTAL                  Commissioner Precinct 4                                00 
00060010001000574REP       BALLOTS CAST - Republican Party                         BALLOTS CAST - Republican Party       Commissioner Precinct 1                                00 
00060010002001036REP       BALLOTS CAST - Republican Party                         BALLOTS CAST - Republican Party       Commissioner Precinct 2                                00 
00060010003001023REP       BALLOTS CAST - Republican Party                         BALLOTS CAST - Republican Party       Commissioner Precinct 3                                00 
00060010004000774REP       BALLOTS CAST - Republican Party                         BALLOTS CAST - Republican Party       Commissioner Precinct 4                                00 
00070010001000114DEM       BALLOTS CAST - Democratic Party                         BALLOTS CAST - Democratic Party       Commissioner Precinct 1                                00 
00070010002000076DEM       BALLOTS CAST - Democratic Party                         BALLOTS CAST - Democratic Party       Commissioner Precinct 2                                00 
00070010003000065DEM       BALLOTS CAST - Democratic Party                         BALLOTS CAST - Democratic Party       Commissioner Precinct 3                                00 
00070010004000087DEM       BALLOTS CAST - Democratic Party                         BALLOTS CAST - Democratic Party       Commissioner Precinct 4                                00 
00080010001000000NON       BALLOTS CAST - NONPARTISAN                              BALLOTS CAST - NONPARTISAN            Commissioner Precinct 1                                00 
00080010002000000NON       BALLOTS CAST - NONPARTISAN                              BALLOTS CAST - NONPARTISAN            Commissioner Precinct 2                                00 
00080010003000000NON       BALLOTS CAST - NONPARTISAN                              BALLOTS CAST - NONPARTISAN            Commissioner Precinct 3                                00 
00080010004000000NON       BALLOTS CAST - NONPARTISAN                              BALLOTS CAST - NONPARTISAN            Commissioner Precinct 4                                00 
00090010001000000          BALLOTS CAST - BLANK                                    BALLOTS CAST - BLANK                  Commissioner Precinct 1                                00 
00090010002000000          BALLOTS CAST - BLANK                                    BALLOTS CAST - BLANK                  Commissioner Precinct 2                                00 
00090010003000000          BALLOTS CAST - BLANK                                    BALLOTS CAST - BLANK                  Commissioner Precinct 3                                00 
00090010004000002          BALLOTS CAST - BLANK                                    BALLOTS CAST - BLANK                  Commissioner Precinct 4                                00 
00100010001000133REP       REP Attorney General                                    George P. Bush                        Commissioner Precinct 1                                01 
00100010002000298REP       REP Attorney General                                    George P. Bush                        Commissioner Precinct 2                                01 
00100010003000335REP       REP Attorney General                                    George P. Bush                        Commissioner Precinct 3                                01 
00100010004000235REP       REP Attorney General                                    George P. Bush                        Commissioner Precinct 4                                01 
00100020001000437REP       REP Attorney General                                    Ken Paxton                            Commissioner Precinct 1                                01 
00100020002000732REP       REP Attorney General                                    Ken Paxton                            Commissioner Precinct 2                                01 
00100020003000677REP       REP Attorney General                                    Ken Paxton                            Commissioner Precinct 3                                01 
00100020004000531REP       REP Attorney General                                    Ken Paxton                            Commissioner Precinct 4                                01 
00110010001000156REP       REP Comm of the General Land Office                     Tim Westley                           Commissioner Precinct 1                                01 
00110010002000261REP       REP Comm of the General Land Office                     Tim Westley                           Commissioner Precinct 2                                01 
00110010003000304REP       REP Comm of the General Land Office                     Tim Westley                           Commissioner Precinct 3                                01 
00110010004000222REP       REP Comm of the General Land Office                     Tim Westley                           Commissioner Precinct 4                                01 
00110020001000378REP       REP Comm of the General Land Office                     Dawn Buckingham                       Commissioner Precinct 1                                01 
00110020002000676REP       REP Comm of the General Land Office                     Dawn Buckingham                       Commissioner Precinct 2                                01 
00110020003000623REP       REP Comm of the General Land Office                     Dawn Buckingham                       Commissioner Precinct 3                                01 
00110020004000485REP       REP Comm of the General Land Office                     Dawn Buckingham                       Commissioner Precinct 4                                01 
00120010001000205REP       REP Railroad Commissioner                               Sarah Stogner                         Commissioner Precinct 1                                01 
00120010002000364REP       REP Railroad Commissioner                               Sarah Stogner                         Commissioner Precinct 2                                01 
00120010003000349REP       REP Railroad Commissioner                               Sarah Stogner                         Commissioner Precinct 3                                01 
00120010004000289REP       REP Railroad Commissioner                               Sarah Stogner                         Commissioner Precinct 4                                01 
00120020001000352REP       REP Railroad Commissioner                               Wayne Christian                       Commissioner Precinct 1                                01 
00120020002000618REP       REP Railroad Commissioner                               Wayne Christian                       Commissioner Precinct 2                                01 
00120020003000606REP       REP Railroad Commissioner                               Wayne Christian                       Commissioner Precinct 3                                01 
00120020004000441REP       REP Railroad Commissioner                               Wayne Christian                       Commissioner Precinct 4                                01 
00130010001000254REP       REP State Representative, District 12                   Kyle Kacal                            Commissioner Precinct 1                                01 
00130010002000441REP       REP State Representative, District 12                   Kyle Kacal                            Commissioner Precinct 2                                01 
00130010003000480REP       REP State Representative, District 12                   Kyle Kacal                            Commissioner Precinct 3                                01 
00130010004000342REP       REP State Representative, District 12                   Kyle Kacal                            Commissioner Precinct 4                                01 
00130020001000312REP       REP State Representative, District 12                   Ben Bius                              Commissioner Precinct 1                                01 
00130020002000583REP       REP State Representative, District 12                   Ben Bius                              Commissioner Precinct 2                                01 
00130020003000535REP       REP State Representative, District 12                   Ben Bius                              Commissioner Precinct 3                                01 
00130020004000425REP       REP State Representative, District 12                   Ben Bius                              Commissioner Precinct 4                                01 
00140010001000079DEM       DEM Lieutenant Governor                                 Mike Collier                          Commissioner Precinct 1                                01 
00140010002000056DEM       DEM Lieutenant Governor                                 Mike Collier                          Commissioner Precinct 2                                01 
00140010003000045DEM       DEM Lieutenant Governor                                 Mike Collier                          Commissioner Precinct 3                                01 
00140010004000066DEM       DEM Lieutenant Governor                                 Mike Collier                          Commissioner Precinct 4                                01 
00140020001000035DEM       DEM Lieutenant Governor                                 Michelle Beckley                      Commissioner Precinct 1                                01 
00140020002000020DEM       DEM Lieutenant Governor                                 Michelle Beckley                      Commissioner Precinct 2                                01 
00140020003000020DEM       DEM Lieutenant Governor                                 Michelle Beckley                      Commissioner Precinct 3                                01 
00140020004000019DEM       DEM Lieutenant Governor                                 Michelle Beckley                      Commissioner Precinct 4                                01 
00150010001000066DEM       DEM Attorney General                                    Joe Jaworski                          Commissioner Precinct 1                                01 
00150010002000055DEM       DEM Attorney General                                    Joe Jaworski                          Commissioner Precinct 2                                01 
00150010003000046DEM       DEM Attorney General                                    Joe Jaworski                          Commissioner Precinct 3                                01 
00150010004000060DEM       DEM Attorney General                                    Joe Jaworski                          Commissioner Precinct 4                                01 
00150020001000047DEM       DEM Attorney General                                    Rochelle Mercedes Garza               Commissioner Precinct 1                                01 
00150020002000020DEM       DEM Attorney General                                    Rochelle Mercedes Garza               Commissioner Precinct 2                                01 
00150020003000018DEM       DEM Attorney General                                    Rochelle Mercedes Garza               Commissioner Precinct 3                                01 
00150020004000025DEM       DEM Attorney General                                    Rochelle Mercedes Garza               Commissioner Precinct 4                                01 
00160010001000031DEM       DEM Comptroller of Public Accounts                      Angel Luis Vega                       Commissioner Precinct 1                                01 
00160010002000022DEM       DEM Comptroller of Public Accounts                      Angel Luis Vega                       Commissioner Precinct 2                                01 
00160010003000012DEM       DEM Comptroller of Public Accounts                      Angel Luis Vega                       Commissioner Precinct 3                                01 
00160010004000013DEM       DEM Comptroller of Public Accounts                      Angel Luis Vega                       Commissioner Precinct 4                                01 
00160020001000080DEM       DEM Comptroller of Public Accounts                      Janet T. Dudding                      Commissioner Precinct 1                                01 
00160020002000053DEM       DEM Comptroller of Public Accounts                      Janet T. Dudding                      Commissioner Precinct 2                                01 
00160020003000053DEM       DEM Comptroller of Public Accounts                      Janet T. Dudding                      Commissioner Precinct 3                                01 
00160020004000068DEM       DEM Comptroller of Public Accounts                      Janet T. Dudding                      Commissioner Precinct 4                                01 
00170010001000037DEM       DEM Comm of the General Land Office                     Sandragrace Martinez                  Commissioner Precinct 1                                01 
00170010002000019DEM       DEM Comm of the General Land Office                     Sandragrace Martinez                  Commissioner Precinct 2                                01 
00170010003000023DEM       DEM Comm of the General Land Office                     Sandragrace Martinez                  Commissioner Precinct 3                                01 
00170010004000019DEM       DEM Comm of the General Land Office                     Sandragrace Martinez                  Commissioner Precinct 4                                01 
00170020001000075DEM       DEM Comm of the General Land Office                     Jay Kleberg                           Commissioner Precinct 1                                01 
00170020002000056DEM       DEM Comm of the General Land Office                     Jay Kleberg                           Commissioner Precinct 2                                01 
00170020003000041DEM       DEM Comm of the General Land Office                     Jay Kleberg                           Commissioner Precinct 3                                01 
00170020004000064DEM       DEM Comm of the General Land Office                     Jay Kleberg                           Commissioner Precinct 4                                01 
