01010010001006923          REGISTERED VOTERS - TOTAL                               REGISTERED VOTERS - TOTAL             101 102 103 104 205 206                                00 
01010010007002479          REGISTERED VOTERS - TOTAL                               REGISTERED VOTERS - TOTAL             207-208-209-210-211                                    00 
01010010012006951          REGISTERED VOTERS - TOTAL                               REGISTERED VOTERS - TOTAL             312-313-314-416-417-418                                00 
01010010015001480          REGISTERED VOTERS - TOTAL                               REGISTERED VOTERS - TOTAL             415                                                    00 
01040010001001235          BALLOTS CAST - TOTAL                                    BALLOTS CAST - TOTAL                  101 102 103 104 205 206                                00 
01040010007000454          BALLOTS CAST - TOTAL                                    BALLOTS CAST - TOTAL                  207-208-209-210-211                                    00 
01040010012000891          BALLOTS CAST - TOTAL                                    BALLOTS CAST - TOTAL                  312-313-314-416-417-418                                00 
01040010015000158          BALLOTS CAST - TOTAL                                    BALLOTS CAST - TOTAL                  415                                                    00 
01050010001001184REP       BALLOTS CAST - REPUBLICAN PARTY                         BALLOTS CAST - REPUBLICAN PARTY       101 102 103 104 205 206                                00 
01050010007000454REP       BALLOTS CAST - REPUBLICAN PARTY                         BALLOTS CAST - REPUBLICAN PARTY       207-208-209-210-211                                    00 
01050010012000891REP       BALLOTS CAST - REPUBLICAN PARTY                         BALLOTS CAST - REPUBLICAN PARTY       312-313-314-416-417-418                                00 
01050010015000158REP       BALLOTS CAST - REPUBLICAN PARTY                         BALLOTS CAST - REPUBLICAN PARTY       415                                                    00 
01060010001000051DEM       BALLOTS CAST - DEMOCRATIC PARTY                         BALLOTS CAST - DEMOCRATIC PARTY       101 102 103 104 205 206                                00 
01060010007000000DEM       BALLOTS CAST - DEMOCRATIC PARTY                         BALLOTS CAST - DEMOCRATIC PARTY       207-208-209-210-211                                    00 
01060010012000000DEM       BALLOTS CAST - DEMOCRATIC PARTY                         BALLOTS CAST - DEMOCRATIC PARTY       312-313-314-416-417-418                                00 
01060010015000000DEM       BALLOTS CAST - DEMOCRATIC PARTY                         BALLOTS CAST - DEMOCRATIC PARTY       415                                                    00 
01070010001000484REP       United States Senator                                   David Dewhurst                        101 102 103 104 205 206                                01 
01070010007000203REP       United States Senator                                   David Dewhurst                        207-208-209-210-211                                    01 
01070010012000322REP       United States Senator                                   David Dewhurst                        312-313-314-416-417-418                                01 
01070010015000046REP       United States Senator                                   David Dewhurst                        415                                                    01 
01070020001000698REP       United States Senator                                   Ted Cruz                              101 102 103 104 205 206                                01 
01070020007000247REP       United States Senator                                   Ted Cruz                              207-208-209-210-211                                    01 
01070020012000568REP       United States Senator                                   Ted Cruz                              312-313-314-416-417-418                                01 
01070020015000112REP       United States Senator                                   Ted Cruz                              415                                                    01 
01080010001000424REP       Railroad Commissioner                                   Warren Chisum                         101 102 103 104 205 206                                01 
01080010007000164REP       Railroad Commissioner                                   Warren Chisum                         207-208-209-210-211                                    01 
01080010012000243REP       Railroad Commissioner                                   Warren Chisum                         312-313-314-416-417-418                                01 
01080010015000050REP       Railroad Commissioner                                   Warren Chisum                         415                                                    01 
01080020001000647REP       Railroad Commissioner                                   Christi Craddick                      101 102 103 104 205 206                                01 
01080020007000230REP       Railroad Commissioner                                   Christi Craddick                      207-208-209-210-211                                    01 
01080020012000552REP       Railroad Commissioner                                   Christi Craddick                      312-313-314-416-417-418                                01 
01080020015000088REP       Railroad Commissioner                                   Christi Craddick                      415                                                    01 
01090010001000690REP       Railroad Commissioner, Unexpired Term                   Barry Smitherman                      101 102 103 104 205 206                                01 
01090010007000264REP       Railroad Commissioner, Unexpired Term                   Barry Smitherman                      207-208-209-210-211                                    01 
01090010012000516REP       Railroad Commissioner, Unexpired Term                   Barry Smitherman                      312-313-314-416-417-418                                01 
01090010015000090REP       Railroad Commissioner, Unexpired Term                   Barry Smitherman                      415                                                    01 
01090020001000323REP       Railroad Commissioner, Unexpired Term                   Greg Parker                           101 102 103 104 205 206                                01 
01090020007000124REP       Railroad Commissioner, Unexpired Term                   Greg Parker                           207-208-209-210-211                                    01 
01090020012000249REP       Railroad Commissioner, Unexpired Term                   Greg Parker                           312-313-314-416-417-418                                01 
01090020015000048REP       Railroad Commissioner, Unexpired Term                   Greg Parker                           415                                                    01 
01100010001000527REP       Justice, Supreme Court, Place 4                         David Medina                          101 102 103 104 205 206                                01 
01100010007000201REP       Justice, Supreme Court, Place 4                         David Medina                          207-208-209-210-211                                    01 
01100010012000404REP       Justice, Supreme Court, Place 4                         David Medina                          312-313-314-416-417-418                                01 
01100010015000072REP       Justice, Supreme Court, Place 4                         David Medina                          415                                                    01 
01100020001000488REP       Justice, Supreme Court, Place 4                         John Devine                           101 102 103 104 205 206                                01 
01100020007000166REP       Justice, Supreme Court, Place 4                         John Devine                           207-208-209-210-211                                    01 
01100020012000366REP       Justice, Supreme Court, Place 4                         John Devine                           312-313-314-416-417-418                                01 
01100020015000063REP       Justice, Supreme Court, Place 4                         John Devine                           415                                                    01 
01110010001000414REP       Member, State BOE Dist 10                               Tom Maynard                           101 102 103 104 205 206                                01 
01110010007000198REP       Member, State BOE Dist 10                               Tom Maynard                           207-208-209-210-211                                    01 
01110010012000409REP       Member, State BOE Dist 10                               Tom Maynard                           312-313-314-416-417-418                                01 
01110010015000060REP       Member, State BOE Dist 10                               Tom Maynard                           415                                                    01 
01110020001000620REP       Member, State BOE Dist 10                               Rebecca Osborne                       101 102 103 104 205 206                                01 
01110020007000184REP       Member, State BOE Dist 10                               Rebecca Osborne                       207-208-209-210-211                                    01 
01110020012000350REP       Member, State BOE Dist 10                               Rebecca Osborne                       312-313-314-416-417-418                                01 
01110020015000078REP       Member, State BOE Dist 10                               Rebecca Osborne                       415                                                    01 
01120010001000040DEM       United States Senator                                   Paul Sadler                           101 102 103 104 205 206                                01 
01120020001000010DEM       United States Senator                                   Grady Yarbrough                       101 102 103 104 205 206                                01 
