01010010001002894          REGISTERED VOTERS - TOTAL                               REGISTERED VOTERS - TOTAL             #1 FAIRFIELD                                           00 
01010010002002572          REGISTERED VOTERS - TOTAL                               REGISTERED VOTERS - TOTAL             #2 FAIRFIELD                                           00 
01010010003002877          REGISTERED VOTERS - TOTAL                               REGISTERED VOTERS - TOTAL             #3 DONIE                                               00 
01010010004002334          REGISTERED VOTERS - TOTAL                               REGISTERED VOTERS - TOTAL             #4 COTTON GIN                                          00 
01010010005000000          REGISTERED VOTERS - TOTAL                               REGISTERED VOTERS - TOTAL             #5 TEAGUE                                              00 
01010010006000000          REGISTERED VOTERS - TOTAL                               REGISTERED VOTERS - TOTAL             #6 KIRVIN                                              00 
01010010007000000          REGISTERED VOTERS - TOTAL                               REGISTERED VOTERS - TOTAL             #7 WORTHAM                                             00 
01010010008000472          REGISTERED VOTERS - TOTAL                               REGISTERED VOTERS - TOTAL             #8 ST ELMO                                             00 
01010010009000000          REGISTERED VOTERS - TOTAL                               REGISTERED VOTERS - TOTAL             #9 TEAGUE                                              00 
01010010010000000          REGISTERED VOTERS - TOTAL                               REGISTERED VOTERS - TOTAL             #10 FREESTONE                                          00 
01010010011000000          REGISTERED VOTERS - TOTAL                               REGISTERED VOTERS - TOTAL             #11 BUTLER                                             00 
01010010012000000          REGISTERED VOTERS - TOTAL                               REGISTERED VOTERS - TOTAL             #12 LIBERTY                                            00 
01010010013000000          REGISTERED VOTERS - TOTAL                               REGISTERED VOTERS - TOTAL             #13 DEW                                                00 
01010010014000000          REGISTERED VOTERS - TOTAL                               REGISTERED VOTERS - TOTAL             #14 LANELY                                             00 
01010010015000000          REGISTERED VOTERS - TOTAL                               REGISTERED VOTERS - TOTAL             #15 STREETMAN COUNTY                                   00 
01020010001000405          BALLOTS CAST - TOTAL                                    BALLOTS CAST - TOTAL                  #1 FAIRFIELD                                           00 
01020010002000321          BALLOTS CAST - TOTAL                                    BALLOTS CAST - TOTAL                  #2 FAIRFIELD                                           00 
01020010003000011          BALLOTS CAST - TOTAL                                    BALLOTS CAST - TOTAL                  #3 DONIE                                               00 
01020010004000037          BALLOTS CAST - TOTAL                                    BALLOTS CAST - TOTAL                  #4 COTTON GIN                                          00 
01020010005000165          BALLOTS CAST - TOTAL                                    BALLOTS CAST - TOTAL                  #5 TEAGUE                                              00 
01020010006000044          BALLOTS CAST - TOTAL                                    BALLOTS CAST - TOTAL                  #6 KIRVIN                                              00 
01020010007000083          BALLOTS CAST - TOTAL                                    BALLOTS CAST - TOTAL                  #7 WORTHAM                                             00 
01020010008000106          BALLOTS CAST - TOTAL                                    BALLOTS CAST - TOTAL                  #8 ST ELMO                                             00 
01020010009000033          BALLOTS CAST - TOTAL                                    BALLOTS CAST - TOTAL                  #9 TEAGUE                                              00 
01020010010000049          BALLOTS CAST - TOTAL                                    BALLOTS CAST - TOTAL                  #10 FREESTONE                                          00 
01020010011000145          BALLOTS CAST - TOTAL                                    BALLOTS CAST - TOTAL                  #11 BUTLER                                             00 
01020010012000011          BALLOTS CAST - TOTAL                                    BALLOTS CAST - TOTAL                  #12 LIBERTY                                            00 
01020010013000035          BALLOTS CAST - TOTAL                                    BALLOTS CAST - TOTAL                  #13 DEW                                                00 
01020010014000056          BALLOTS CAST - TOTAL                                    BALLOTS CAST - TOTAL                  #14 LANELY                                             00 
01020010015000023          BALLOTS CAST - TOTAL                                    BALLOTS CAST - TOTAL                  #15 STREETMAN COUNTY                                   00 
01030010001000385REP       BALLOTS CAST - REPUBLICAN PARTY                         BALLOTS CAST - REPUBLICAN PARTY       #1 FAIRFIELD                                           00 
01030010002000133REP       BALLOTS CAST - REPUBLICAN PARTY                         BALLOTS CAST - REPUBLICAN PARTY       #2 FAIRFIELD                                           00 
01030010003000010REP       BALLOTS CAST - REPUBLICAN PARTY                         BALLOTS CAST - REPUBLICAN PARTY       #3 DONIE                                               00 
01030010004000036REP       BALLOTS CAST - REPUBLICAN PARTY                         BALLOTS CAST - REPUBLICAN PARTY       #4 COTTON GIN                                          00 
01030010005000151REP       BALLOTS CAST - REPUBLICAN PARTY                         BALLOTS CAST - REPUBLICAN PARTY       #5 TEAGUE                                              00 
01030010006000039REP       BALLOTS CAST - REPUBLICAN PARTY                         BALLOTS CAST - REPUBLICAN PARTY       #6 KIRVIN                                              00 
01030010007000073REP       BALLOTS CAST - REPUBLICAN PARTY                         BALLOTS CAST - REPUBLICAN PARTY       #7 WORTHAM                                             00 
01030010008000104REP       BALLOTS CAST - REPUBLICAN PARTY                         BALLOTS CAST - REPUBLICAN PARTY       #8 ST ELMO                                             00 
01030010009000030REP       BALLOTS CAST - REPUBLICAN PARTY                         BALLOTS CAST - REPUBLICAN PARTY       #9 TEAGUE                                              00 
01030010010000049REP       BALLOTS CAST - REPUBLICAN PARTY                         BALLOTS CAST - REPUBLICAN PARTY       #10 FREESTONE                                          00 
01030010011000025REP       BALLOTS CAST - REPUBLICAN PARTY                         BALLOTS CAST - REPUBLICAN PARTY       #11 BUTLER                                             00 
01030010012000006REP       BALLOTS CAST - REPUBLICAN PARTY                         BALLOTS CAST - REPUBLICAN PARTY       #12 LIBERTY                                            00 
01030010013000030REP       BALLOTS CAST - REPUBLICAN PARTY                         BALLOTS CAST - REPUBLICAN PARTY       #13 DEW                                                00 
01030010014000042REP       BALLOTS CAST - REPUBLICAN PARTY                         BALLOTS CAST - REPUBLICAN PARTY       #14 LANELY                                             00 
01030010015000022REP       BALLOTS CAST - REPUBLICAN PARTY                         BALLOTS CAST - REPUBLICAN PARTY       #15 STREETMAN COUNTY                                   00 
01040010001000020DEM       BALLOTS CAST - DEMOCRATIC PARTY                         BALLOTS CAST - DEMOCRATIC PARTY       #1 FAIRFIELD                                           00 
01040010002000188DEM       BALLOTS CAST - DEMOCRATIC PARTY                         BALLOTS CAST - DEMOCRATIC PARTY       #2 FAIRFIELD                                           00 
01040010003000001DEM       BALLOTS CAST - DEMOCRATIC PARTY                         BALLOTS CAST - DEMOCRATIC PARTY       #3 DONIE                                               00 
01040010004000001DEM       BALLOTS CAST - DEMOCRATIC PARTY                         BALLOTS CAST - DEMOCRATIC PARTY       #4 COTTON GIN                                          00 
01040010005000014DEM       BALLOTS CAST - DEMOCRATIC PARTY                         BALLOTS CAST - DEMOCRATIC PARTY       #5 TEAGUE                                              00 
01040010006000005DEM       BALLOTS CAST - DEMOCRATIC PARTY                         BALLOTS CAST - DEMOCRATIC PARTY       #6 KIRVIN                                              00 
01040010007000010DEM       BALLOTS CAST - DEMOCRATIC PARTY                         BALLOTS CAST - DEMOCRATIC PARTY       #7 WORTHAM                                             00 
01040010008000002DEM       BALLOTS CAST - DEMOCRATIC PARTY                         BALLOTS CAST - DEMOCRATIC PARTY       #8 ST ELMO                                             00 
01040010009000003DEM       BALLOTS CAST - DEMOCRATIC PARTY                         BALLOTS CAST - DEMOCRATIC PARTY       #9 TEAGUE                                              00 
01040010010000000DEM       BALLOTS CAST - DEMOCRATIC PARTY                         BALLOTS CAST - DEMOCRATIC PARTY       #10 FREESTONE                                          00 
01040010011000120DEM       BALLOTS CAST - DEMOCRATIC PARTY                         BALLOTS CAST - DEMOCRATIC PARTY       #11 BUTLER                                             00 
01040010012000005DEM       BALLOTS CAST - DEMOCRATIC PARTY                         BALLOTS CAST - DEMOCRATIC PARTY       #12 LIBERTY                                            00 
01040010013000005DEM       BALLOTS CAST - DEMOCRATIC PARTY                         BALLOTS CAST - DEMOCRATIC PARTY       #13 DEW                                                00 
01040010014000014DEM       BALLOTS CAST - DEMOCRATIC PARTY                         BALLOTS CAST - DEMOCRATIC PARTY       #14 LANELY                                             00 
01040010015000001DEM       BALLOTS CAST - DEMOCRATIC PARTY                         BALLOTS CAST - DEMOCRATIC PARTY       #15 STREETMAN COUNTY                                   00 
01050010001000154REP       US Senator FREESTONE COUNTYWIDE                         David Dewhurst                        #1 FAIRFIELD                                           01 
01050010002000049REP       US Senator FREESTONE COUNTYWIDE                         David Dewhurst                        #2 FAIRFIELD                                           01 
01050010003000006REP       US Senator FREESTONE COUNTYWIDE                         David Dewhurst                        #3 DONIE                                               01 
01050010004000012REP       US Senator FREESTONE COUNTYWIDE                         David Dewhurst                        #4 COTTON GIN                                          01 
01050010005000060REP       US Senator FREESTONE COUNTYWIDE                         David Dewhurst                        #5 TEAGUE                                              01 
01050010006000013REP       US Senator FREESTONE COUNTYWIDE                         David Dewhurst                        #6 KIRVIN                                              01 
01050010007000019REP       US Senator FREESTONE COUNTYWIDE                         David Dewhurst                        #7 WORTHAM                                             01 
01050010008000045REP       US Senator FREESTONE COUNTYWIDE                         David Dewhurst                        #8 ST ELMO                                             01 
01050010009000007REP       US Senator FREESTONE COUNTYWIDE                         David Dewhurst                        #9 TEAGUE                                              01 
01050010010000023REP       US Senator FREESTONE COUNTYWIDE                         David Dewhurst                        #10 FREESTONE                                          01 
01050010011000009REP       US Senator FREESTONE COUNTYWIDE                         David Dewhurst                        #11 BUTLER                                             01 
01050010012000005REP       US Senator FREESTONE COUNTYWIDE                         David Dewhurst                        #12 LIBERTY                                            01 
01050010013000013REP       US Senator FREESTONE COUNTYWIDE                         David Dewhurst                        #13 DEW                                                01 
01050010014000015REP       US Senator FREESTONE COUNTYWIDE                         David Dewhurst                        #14 LANELY                                             01 
01050010015000009REP       US Senator FREESTONE COUNTYWIDE                         David Dewhurst                        #15 STREETMAN COUNTY                                   01 
01050020001000231REP       US Senator FREESTONE COUNTYWIDE                         Ted Cruz                              #1 FAIRFIELD                                           01 
01050020002000084REP       US Senator FREESTONE COUNTYWIDE                         Ted Cruz                              #2 FAIRFIELD                                           01 
01050020003000004REP       US Senator FREESTONE COUNTYWIDE                         Ted Cruz                              #3 DONIE                                               01 
01050020004000024REP       US Senator FREESTONE COUNTYWIDE                         Ted Cruz                              #4 COTTON GIN                                          01 
01050020005000091REP       US Senator FREESTONE COUNTYWIDE                         Ted Cruz                              #5 TEAGUE                                              01 
01050020006000026REP       US Senator FREESTONE COUNTYWIDE                         Ted Cruz                              #6 KIRVIN                                              01 
01050020007000054REP       US Senator FREESTONE COUNTYWIDE                         Ted Cruz                              #7 WORTHAM                                             01 
01050020008000059REP       US Senator FREESTONE COUNTYWIDE                         Ted Cruz                              #8 ST ELMO                                             01 
01050020009000023REP       US Senator FREESTONE COUNTYWIDE                         Ted Cruz                              #9 TEAGUE                                              01 
01050020010000026REP       US Senator FREESTONE COUNTYWIDE                         Ted Cruz                              #10 FREESTONE                                          01 
01050020011000016REP       US Senator FREESTONE COUNTYWIDE                         Ted Cruz                              #11 BUTLER                                             01 
01050020012000001REP       US Senator FREESTONE COUNTYWIDE                         Ted Cruz                              #12 LIBERTY                                            01 
01050020013000017REP       US Senator FREESTONE COUNTYWIDE                         Ted Cruz                              #13 DEW                                                01 
01050020014000027REP       US Senator FREESTONE COUNTYWIDE                         Ted Cruz                              #14 LANELY                                             01 
01050020015000013REP       US Senator FREESTONE COUNTYWIDE                         Ted Cruz                              #15 STREETMAN COUNTY                                   01 
01050030001000000REP       US Senator FREESTONE COUNTYWIDE                         OVER VOTES                            #1 FAIRFIELD                                           01 
01050030002000000REP       US Senator FREESTONE COUNTYWIDE                         OVER VOTES                            #2 FAIRFIELD                                           01 
01050030003000000REP       US Senator FREESTONE COUNTYWIDE                         OVER VOTES                            #3 DONIE                                               01 
01050030004000000REP       US Senator FREESTONE COUNTYWIDE                         OVER VOTES                            #4 COTTON GIN                                          01 
01050030005000000REP       US Senator FREESTONE COUNTYWIDE                         OVER VOTES                            #5 TEAGUE                                              01 
01050030006000000REP       US Senator FREESTONE COUNTYWIDE                         OVER VOTES                            #6 KIRVIN                                              01 
01050030007000000REP       US Senator FREESTONE COUNTYWIDE                         OVER VOTES                            #7 WORTHAM                                             01 
01050030008000000REP       US Senator FREESTONE COUNTYWIDE                         OVER VOTES                            #8 ST ELMO                                             01 
01050030009000000REP       US Senator FREESTONE COUNTYWIDE                         OVER VOTES                            #9 TEAGUE                                              01 
01050030010000000REP       US Senator FREESTONE COUNTYWIDE                         OVER VOTES                            #10 FREESTONE                                          01 
01050030011000000REP       US Senator FREESTONE COUNTYWIDE                         OVER VOTES                            #11 BUTLER                                             01 
01050030012000000REP       US Senator FREESTONE COUNTYWIDE                         OVER VOTES                            #12 LIBERTY                                            01 
01050030013000000REP       US Senator FREESTONE COUNTYWIDE                         OVER VOTES                            #13 DEW                                                01 
01050030014000000REP       US Senator FREESTONE COUNTYWIDE                         OVER VOTES                            #14 LANELY                                             01 
01050030015000000REP       US Senator FREESTONE COUNTYWIDE                         OVER VOTES                            #15 STREETMAN COUNTY                                   01 
01050040001000000REP       US Senator FREESTONE COUNTYWIDE                         UNDER VOTES                           #1 FAIRFIELD                                           01 
01050040002000000REP       US Senator FREESTONE COUNTYWIDE                         UNDER VOTES                           #2 FAIRFIELD                                           01 
01050040003000000REP       US Senator FREESTONE COUNTYWIDE                         UNDER VOTES                           #3 DONIE                                               01 
01050040004000000REP       US Senator FREESTONE COUNTYWIDE                         UNDER VOTES                           #4 COTTON GIN                                          01 
01050040005000000REP       US Senator FREESTONE COUNTYWIDE                         UNDER VOTES                           #5 TEAGUE                                              01 
01050040006000000REP       US Senator FREESTONE COUNTYWIDE                         UNDER VOTES                           #6 KIRVIN                                              01 
01050040007000000REP       US Senator FREESTONE COUNTYWIDE                         UNDER VOTES                           #7 WORTHAM                                             01 
01050040008000000REP       US Senator FREESTONE COUNTYWIDE                         UNDER VOTES                           #8 ST ELMO                                             01 
01050040009000000REP       US Senator FREESTONE COUNTYWIDE                         UNDER VOTES                           #9 TEAGUE                                              01 
01050040010000000REP       US Senator FREESTONE COUNTYWIDE                         UNDER VOTES                           #10 FREESTONE                                          01 
01050040011000000REP       US Senator FREESTONE COUNTYWIDE                         UNDER VOTES                           #11 BUTLER                                             01 
01050040012000000REP       US Senator FREESTONE COUNTYWIDE                         UNDER VOTES                           #12 LIBERTY                                            01 
01050040013000000REP       US Senator FREESTONE COUNTYWIDE                         UNDER VOTES                           #13 DEW                                                01 
01050040014000000REP       US Senator FREESTONE COUNTYWIDE                         UNDER VOTES                           #14 LANELY                                             01 
01050040015000000REP       US Senator FREESTONE COUNTYWIDE                         UNDER VOTES                           #15 STREETMAN COUNTY                                   01 
01060010001000227REP       Railroad Commissioner FREESTONE COUNTYWIDE              Christi Craddick                      #1 FAIRFIELD                                           01 
01060010002000086REP       Railroad Commissioner FREESTONE COUNTYWIDE              Christi Craddick                      #2 FAIRFIELD                                           01 
01060010003000006REP       Railroad Commissioner FREESTONE COUNTYWIDE              Christi Craddick                      #3 DONIE                                               01 
01060010004000021REP       Railroad Commissioner FREESTONE COUNTYWIDE              Christi Craddick                      #4 COTTON GIN                                          01 
01060010005000091REP       Railroad Commissioner FREESTONE COUNTYWIDE              Christi Craddick                      #5 TEAGUE                                              01 
01060010006000021REP       Railroad Commissioner FREESTONE COUNTYWIDE              Christi Craddick                      #6 KIRVIN                                              01 
01060010007000043REP       Railroad Commissioner FREESTONE COUNTYWIDE              Christi Craddick                      #7 WORTHAM                                             01 
01060010008000069REP       Railroad Commissioner FREESTONE COUNTYWIDE              Christi Craddick                      #8 ST ELMO                                             01 
01060010009000012REP       Railroad Commissioner FREESTONE COUNTYWIDE              Christi Craddick                      #9 TEAGUE                                              01 
01060010010000028REP       Railroad Commissioner FREESTONE COUNTYWIDE              Christi Craddick                      #10 FREESTONE                                          01 
01060010011000017REP       Railroad Commissioner FREESTONE COUNTYWIDE              Christi Craddick                      #11 BUTLER                                             01 
01060010012000005REP       Railroad Commissioner FREESTONE COUNTYWIDE              Christi Craddick                      #12 LIBERTY                                            01 
01060010013000015REP       Railroad Commissioner FREESTONE COUNTYWIDE              Christi Craddick                      #13 DEW                                                01 
01060010014000026REP       Railroad Commissioner FREESTONE COUNTYWIDE              Christi Craddick                      #14 LANELY                                             01 
01060010015000013REP       Railroad Commissioner FREESTONE COUNTYWIDE              Christi Craddick                      #15 STREETMAN COUNTY                                   01 
01060020001000123REP       Railroad Commissioner FREESTONE COUNTYWIDE              Warren Chisum                         #1 FAIRFIELD                                           01 
01060020002000044REP       Railroad Commissioner FREESTONE COUNTYWIDE              Warren Chisum                         #2 FAIRFIELD                                           01 
01060020003000004REP       Railroad Commissioner FREESTONE COUNTYWIDE              Warren Chisum                         #3 DONIE                                               01 
01060020004000012REP       Railroad Commissioner FREESTONE COUNTYWIDE              Warren Chisum                         #4 COTTON GIN                                          01 
01060020005000044REP       Railroad Commissioner FREESTONE COUNTYWIDE              Warren Chisum                         #5 TEAGUE                                              01 
01060020006000011REP       Railroad Commissioner FREESTONE COUNTYWIDE              Warren Chisum                         #6 KIRVIN                                              01 
01060020007000018REP       Railroad Commissioner FREESTONE COUNTYWIDE              Warren Chisum                         #7 WORTHAM                                             01 
01060020008000034REP       Railroad Commissioner FREESTONE COUNTYWIDE              Warren Chisum                         #8 ST ELMO                                             01 
01060020009000016REP       Railroad Commissioner FREESTONE COUNTYWIDE              Warren Chisum                         #9 TEAGUE                                              01 
01060020010000019REP       Railroad Commissioner FREESTONE COUNTYWIDE              Warren Chisum                         #10 FREESTONE                                          01 
01060020011000007REP       Railroad Commissioner FREESTONE COUNTYWIDE              Warren Chisum                         #11 BUTLER                                             01 
01060020012000001REP       Railroad Commissioner FREESTONE COUNTYWIDE              Warren Chisum                         #12 LIBERTY                                            01 
01060020013000011REP       Railroad Commissioner FREESTONE COUNTYWIDE              Warren Chisum                         #13 DEW                                                01 
01060020014000010REP       Railroad Commissioner FREESTONE COUNTYWIDE              Warren Chisum                         #14 LANELY                                             01 
01060020015000006REP       Railroad Commissioner FREESTONE COUNTYWIDE              Warren Chisum                         #15 STREETMAN COUNTY                                   01 
01060030001000000REP       Railroad Commissioner FREESTONE COUNTYWIDE              OVER VOTES                            #1 FAIRFIELD                                           01 
01060030002000000REP       Railroad Commissioner FREESTONE COUNTYWIDE              OVER VOTES                            #2 FAIRFIELD                                           01 
01060030003000000REP       Railroad Commissioner FREESTONE COUNTYWIDE              OVER VOTES                            #3 DONIE                                               01 
01060030004000000REP       Railroad Commissioner FREESTONE COUNTYWIDE              OVER VOTES                            #4 COTTON GIN                                          01 
01060030005000000REP       Railroad Commissioner FREESTONE COUNTYWIDE              OVER VOTES                            #5 TEAGUE                                              01 
01060030006000000REP       Railroad Commissioner FREESTONE COUNTYWIDE              OVER VOTES                            #6 KIRVIN                                              01 
01060030007000000REP       Railroad Commissioner FREESTONE COUNTYWIDE              OVER VOTES                            #7 WORTHAM                                             01 
01060030008000000REP       Railroad Commissioner FREESTONE COUNTYWIDE              OVER VOTES                            #8 ST ELMO                                             01 
01060030009000000REP       Railroad Commissioner FREESTONE COUNTYWIDE              OVER VOTES                            #9 TEAGUE                                              01 
01060030010000000REP       Railroad Commissioner FREESTONE COUNTYWIDE              OVER VOTES                            #10 FREESTONE                                          01 
01060030011000000REP       Railroad Commissioner FREESTONE COUNTYWIDE              OVER VOTES                            #11 BUTLER                                             01 
01060030012000000REP       Railroad Commissioner FREESTONE COUNTYWIDE              OVER VOTES                            #12 LIBERTY                                            01 
01060030013000000REP       Railroad Commissioner FREESTONE COUNTYWIDE              OVER VOTES                            #13 DEW                                                01 
01060030014000000REP       Railroad Commissioner FREESTONE COUNTYWIDE              OVER VOTES                            #14 LANELY                                             01 
01060030015000000REP       Railroad Commissioner FREESTONE COUNTYWIDE              OVER VOTES                            #15 STREETMAN COUNTY                                   01 
01060040001000035REP       Railroad Commissioner FREESTONE COUNTYWIDE              UNDER VOTES                           #1 FAIRFIELD                                           01 
01060040002000003REP       Railroad Commissioner FREESTONE COUNTYWIDE              UNDER VOTES                           #2 FAIRFIELD                                           01 
01060040003000000REP       Railroad Commissioner FREESTONE COUNTYWIDE              UNDER VOTES                           #3 DONIE                                               01 
01060040004000003REP       Railroad Commissioner FREESTONE COUNTYWIDE              UNDER VOTES                           #4 COTTON GIN                                          01 
01060040005000016REP       Railroad Commissioner FREESTONE COUNTYWIDE              UNDER VOTES                           #5 TEAGUE                                              01 
01060040006000007REP       Railroad Commissioner FREESTONE COUNTYWIDE              UNDER VOTES                           #6 KIRVIN                                              01 
01060040007000012REP       Railroad Commissioner FREESTONE COUNTYWIDE              UNDER VOTES                           #7 WORTHAM                                             01 
01060040008000001REP       Railroad Commissioner FREESTONE COUNTYWIDE              UNDER VOTES                           #8 ST ELMO                                             01 
01060040009000002REP       Railroad Commissioner FREESTONE COUNTYWIDE              UNDER VOTES                           #9 TEAGUE                                              01 
01060040010000002REP       Railroad Commissioner FREESTONE COUNTYWIDE              UNDER VOTES                           #10 FREESTONE                                          01 
01060040011000001REP       Railroad Commissioner FREESTONE COUNTYWIDE              UNDER VOTES                           #11 BUTLER                                             01 
01060040012000000REP       Railroad Commissioner FREESTONE COUNTYWIDE              UNDER VOTES                           #12 LIBERTY                                            01 
01060040013000004REP       Railroad Commissioner FREESTONE COUNTYWIDE              UNDER VOTES                           #13 DEW                                                01 
01060040014000006REP       Railroad Commissioner FREESTONE COUNTYWIDE              UNDER VOTES                           #14 LANELY                                             01 
01060040015000003REP       Railroad Commissioner FREESTONE COUNTYWIDE              UNDER VOTES                           #15 STREETMAN COUNTY                                   01 
01070010001000229REP       Railroad Commissioner, UNEXP FREESTONE COUNTYWIDE       Barry Smitherman                      #1 FAIRFIELD                                           01 
01070010002000107REP       Railroad Commissioner, UNEXP FREESTONE COUNTYWIDE       Barry Smitherman                      #2 FAIRFIELD                                           01 
01070010003000006REP       Railroad Commissioner, UNEXP FREESTONE COUNTYWIDE       Barry Smitherman                      #3 DONIE                                               01 
01070010004000020REP       Railroad Commissioner, UNEXP FREESTONE COUNTYWIDE       Barry Smitherman                      #4 COTTON GIN                                          01 
01070010005000078REP       Railroad Commissioner, UNEXP FREESTONE COUNTYWIDE       Barry Smitherman                      #5 TEAGUE                                              01 
01070010006000022REP       Railroad Commissioner, UNEXP FREESTONE COUNTYWIDE       Barry Smitherman                      #6 KIRVIN                                              01 
01070010007000034REP       Railroad Commissioner, UNEXP FREESTONE COUNTYWIDE       Barry Smitherman                      #7 WORTHAM                                             01 
01070010008000069REP       Railroad Commissioner, UNEXP FREESTONE COUNTYWIDE       Barry Smitherman                      #8 ST ELMO                                             01 
01070010009000020REP       Railroad Commissioner, UNEXP FREESTONE COUNTYWIDE       Barry Smitherman                      #9 TEAGUE                                              01 
01070010010000037REP       Railroad Commissioner, UNEXP FREESTONE COUNTYWIDE       Barry Smitherman                      #10 FREESTONE                                          01 
01070010011000014REP       Railroad Commissioner, UNEXP FREESTONE COUNTYWIDE       Barry Smitherman                      #11 BUTLER                                             01 
01070010012000004REP       Railroad Commissioner, UNEXP FREESTONE COUNTYWIDE       Barry Smitherman                      #12 LIBERTY                                            01 
01070010013000019REP       Railroad Commissioner, UNEXP FREESTONE COUNTYWIDE       Barry Smitherman                      #13 DEW                                                01 
01070010014000023REP       Railroad Commissioner, UNEXP FREESTONE COUNTYWIDE       Barry Smitherman                      #14 LANELY                                             01 
01070010015000014REP       Railroad Commissioner, UNEXP FREESTONE COUNTYWIDE       Barry Smitherman                      #15 STREETMAN COUNTY                                   01 
01070020001000109REP       Railroad Commissioner, UNEXP FREESTONE COUNTYWIDE       Greg Parker                           #1 FAIRFIELD                                           01 
01070020002000020REP       Railroad Commissioner, UNEXP FREESTONE COUNTYWIDE       Greg Parker                           #2 FAIRFIELD                                           01 
01070020003000003REP       Railroad Commissioner, UNEXP FREESTONE COUNTYWIDE       Greg Parker                           #3 DONIE                                               01 
01070020004000010REP       Railroad Commissioner, UNEXP FREESTONE COUNTYWIDE       Greg Parker                           #4 COTTON GIN                                          01 
01070020005000050REP       Railroad Commissioner, UNEXP FREESTONE COUNTYWIDE       Greg Parker                           #5 TEAGUE                                              01 
01070020006000008REP       Railroad Commissioner, UNEXP FREESTONE COUNTYWIDE       Greg Parker                           #6 KIRVIN                                              01 
01070020007000028REP       Railroad Commissioner, UNEXP FREESTONE COUNTYWIDE       Greg Parker                           #7 WORTHAM                                             01 
01070020008000029REP       Railroad Commissioner, UNEXP FREESTONE COUNTYWIDE       Greg Parker                           #8 ST ELMO                                             01 
01070020009000005REP       Railroad Commissioner, UNEXP FREESTONE COUNTYWIDE       Greg Parker                           #9 TEAGUE                                              01 
01070020010000009REP       Railroad Commissioner, UNEXP FREESTONE COUNTYWIDE       Greg Parker                           #10 FREESTONE                                          01 
01070020011000011REP       Railroad Commissioner, UNEXP FREESTONE COUNTYWIDE       Greg Parker                           #11 BUTLER                                             01 
01070020012000002REP       Railroad Commissioner, UNEXP FREESTONE COUNTYWIDE       Greg Parker                           #12 LIBERTY                                            01 
01070020013000010REP       Railroad Commissioner, UNEXP FREESTONE COUNTYWIDE       Greg Parker                           #13 DEW                                                01 
01070020014000014REP       Railroad Commissioner, UNEXP FREESTONE COUNTYWIDE       Greg Parker                           #14 LANELY                                             01 
01070020015000004REP       Railroad Commissioner, UNEXP FREESTONE COUNTYWIDE       Greg Parker                           #15 STREETMAN COUNTY                                   01 
01070030001000000REP       Railroad Commissioner, UNEXP FREESTONE COUNTYWIDE       OVER VOTES                            #1 FAIRFIELD                                           01 
01070030002000000REP       Railroad Commissioner, UNEXP FREESTONE COUNTYWIDE       OVER VOTES                            #2 FAIRFIELD                                           01 
01070030003000000REP       Railroad Commissioner, UNEXP FREESTONE COUNTYWIDE       OVER VOTES                            #3 DONIE                                               01 
01070030004000000REP       Railroad Commissioner, UNEXP FREESTONE COUNTYWIDE       OVER VOTES                            #4 COTTON GIN                                          01 
01070030005000000REP       Railroad Commissioner, UNEXP FREESTONE COUNTYWIDE       OVER VOTES                            #5 TEAGUE                                              01 
01070030006000000REP       Railroad Commissioner, UNEXP FREESTONE COUNTYWIDE       OVER VOTES                            #6 KIRVIN                                              01 
01070030007000000REP       Railroad Commissioner, UNEXP FREESTONE COUNTYWIDE       OVER VOTES                            #7 WORTHAM                                             01 
01070030008000000REP       Railroad Commissioner, UNEXP FREESTONE COUNTYWIDE       OVER VOTES                            #8 ST ELMO                                             01 
01070030009000000REP       Railroad Commissioner, UNEXP FREESTONE COUNTYWIDE       OVER VOTES                            #9 TEAGUE                                              01 
01070030010000000REP       Railroad Commissioner, UNEXP FREESTONE COUNTYWIDE       OVER VOTES                            #10 FREESTONE                                          01 
01070030011000000REP       Railroad Commissioner, UNEXP FREESTONE COUNTYWIDE       OVER VOTES                            #11 BUTLER                                             01 
01070030012000000REP       Railroad Commissioner, UNEXP FREESTONE COUNTYWIDE       OVER VOTES                            #12 LIBERTY                                            01 
01070030013000000REP       Railroad Commissioner, UNEXP FREESTONE COUNTYWIDE       OVER VOTES                            #13 DEW                                                01 
01070030014000000REP       Railroad Commissioner, UNEXP FREESTONE COUNTYWIDE       OVER VOTES                            #14 LANELY                                             01 
01070030015000000REP       Railroad Commissioner, UNEXP FREESTONE COUNTYWIDE       OVER VOTES                            #15 STREETMAN COUNTY                                   01 
01070040001000047REP       Railroad Commissioner, UNEXP FREESTONE COUNTYWIDE       UNDER VOTES                           #1 FAIRFIELD                                           01 
01070040002000006REP       Railroad Commissioner, UNEXP FREESTONE COUNTYWIDE       UNDER VOTES                           #2 FAIRFIELD                                           01 
01070040003000001REP       Railroad Commissioner, UNEXP FREESTONE COUNTYWIDE       UNDER VOTES                           #3 DONIE                                               01 
01070040004000006REP       Railroad Commissioner, UNEXP FREESTONE COUNTYWIDE       UNDER VOTES                           #4 COTTON GIN                                          01 
01070040005000023REP       Railroad Commissioner, UNEXP FREESTONE COUNTYWIDE       UNDER VOTES                           #5 TEAGUE                                              01 
01070040006000009REP       Railroad Commissioner, UNEXP FREESTONE COUNTYWIDE       UNDER VOTES                           #6 KIRVIN                                              01 
01070040007000011REP       Railroad Commissioner, UNEXP FREESTONE COUNTYWIDE       UNDER VOTES                           #7 WORTHAM                                             01 
01070040008000006REP       Railroad Commissioner, UNEXP FREESTONE COUNTYWIDE       UNDER VOTES                           #8 ST ELMO                                             01 
01070040009000005REP       Railroad Commissioner, UNEXP FREESTONE COUNTYWIDE       UNDER VOTES                           #9 TEAGUE                                              01 
01070040010000003REP       Railroad Commissioner, UNEXP FREESTONE COUNTYWIDE       UNDER VOTES                           #10 FREESTONE                                          01 
01070040011000000REP       Railroad Commissioner, UNEXP FREESTONE COUNTYWIDE       UNDER VOTES                           #11 BUTLER                                             01 
01070040012000000REP       Railroad Commissioner, UNEXP FREESTONE COUNTYWIDE       UNDER VOTES                           #12 LIBERTY                                            01 
01070040013000001REP       Railroad Commissioner, UNEXP FREESTONE COUNTYWIDE       UNDER VOTES                           #13 DEW                                                01 
01070040014000005REP       Railroad Commissioner, UNEXP FREESTONE COUNTYWIDE       UNDER VOTES                           #14 LANELY                                             01 
01070040015000004REP       Railroad Commissioner, UNEXP FREESTONE COUNTYWIDE       UNDER VOTES                           #15 STREETMAN COUNTY                                   01 
01080010001000192REP       Justice, Supreme Court, Place 4 FREESTONE COUNTYWIDE    John Devine                           #1 FAIRFIELD                                           01 
01080010002000081REP       Justice, Supreme Court, Place 4 FREESTONE COUNTYWIDE    John Devine                           #2 FAIRFIELD                                           01 
01080010003000006REP       Justice, Supreme Court, Place 4 FREESTONE COUNTYWIDE    John Devine                           #3 DONIE                                               01 
01080010004000021REP       Justice, Supreme Court, Place 4 FREESTONE COUNTYWIDE    John Devine                           #4 COTTON GIN                                          01 
01080010005000076REP       Justice, Supreme Court, Place 4 FREESTONE COUNTYWIDE    John Devine                           #5 TEAGUE                                              01 
01080010006000013REP       Justice, Supreme Court, Place 4 FREESTONE COUNTYWIDE    John Devine                           #6 KIRVIN                                              01 
01080010007000034REP       Justice, Supreme Court, Place 4 FREESTONE COUNTYWIDE    John Devine                           #7 WORTHAM                                             01 
01080010008000064REP       Justice, Supreme Court, Place 4 FREESTONE COUNTYWIDE    John Devine                           #8 ST ELMO                                             01 
01080010009000019REP       Justice, Supreme Court, Place 4 FREESTONE COUNTYWIDE    John Devine                           #9 TEAGUE                                              01 
01080010010000020REP       Justice, Supreme Court, Place 4 FREESTONE COUNTYWIDE    John Devine                           #10 FREESTONE                                          01 
01080010011000011REP       Justice, Supreme Court, Place 4 FREESTONE COUNTYWIDE    John Devine                           #11 BUTLER                                             01 
01080010012000001REP       Justice, Supreme Court, Place 4 FREESTONE COUNTYWIDE    John Devine                           #12 LIBERTY                                            01 
01080010013000017REP       Justice, Supreme Court, Place 4 FREESTONE COUNTYWIDE    John Devine                           #13 DEW                                                01 
01080010014000020REP       Justice, Supreme Court, Place 4 FREESTONE COUNTYWIDE    John Devine                           #14 LANELY                                             01 
01080010015000009REP       Justice, Supreme Court, Place 4 FREESTONE COUNTYWIDE    John Devine                           #15 STREETMAN COUNTY                                   01 
01080020001000141REP       Justice, Supreme Court, Place 4 FREESTONE COUNTYWIDE    David Medina                          #1 FAIRFIELD                                           01 
01080020002000043REP       Justice, Supreme Court, Place 4 FREESTONE COUNTYWIDE    David Medina                          #2 FAIRFIELD                                           01 
01080020003000003REP       Justice, Supreme Court, Place 4 FREESTONE COUNTYWIDE    David Medina                          #3 DONIE                                               01 
01080020004000010REP       Justice, Supreme Court, Place 4 FREESTONE COUNTYWIDE    David Medina                          #4 COTTON GIN                                          01 
01080020005000051REP       Justice, Supreme Court, Place 4 FREESTONE COUNTYWIDE    David Medina                          #5 TEAGUE                                              01 
01080020006000018REP       Justice, Supreme Court, Place 4 FREESTONE COUNTYWIDE    David Medina                          #6 KIRVIN                                              01 
01080020007000027REP       Justice, Supreme Court, Place 4 FREESTONE COUNTYWIDE    David Medina                          #7 WORTHAM                                             01 
01080020008000030REP       Justice, Supreme Court, Place 4 FREESTONE COUNTYWIDE    David Medina                          #8 ST ELMO                                             01 
01080020009000008REP       Justice, Supreme Court, Place 4 FREESTONE COUNTYWIDE    David Medina                          #9 TEAGUE                                              01 
01080020010000029REP       Justice, Supreme Court, Place 4 FREESTONE COUNTYWIDE    David Medina                          #10 FREESTONE                                          01 
01080020011000014REP       Justice, Supreme Court, Place 4 FREESTONE COUNTYWIDE    David Medina                          #11 BUTLER                                             01 
01080020012000005REP       Justice, Supreme Court, Place 4 FREESTONE COUNTYWIDE    David Medina                          #12 LIBERTY                                            01 
01080020013000011REP       Justice, Supreme Court, Place 4 FREESTONE COUNTYWIDE    David Medina                          #13 DEW                                                01 
01080020014000014REP       Justice, Supreme Court, Place 4 FREESTONE COUNTYWIDE    David Medina                          #14 LANELY                                             01 
01080020015000009REP       Justice, Supreme Court, Place 4 FREESTONE COUNTYWIDE    David Medina                          #15 STREETMAN COUNTY                                   01 
01080030001000000REP       Justice, Supreme Court, Place 4 FREESTONE COUNTYWIDE    OVER VOTES                            #1 FAIRFIELD                                           01 
01080030002000000REP       Justice, Supreme Court, Place 4 FREESTONE COUNTYWIDE    OVER VOTES                            #2 FAIRFIELD                                           01 
01080030003000000REP       Justice, Supreme Court, Place 4 FREESTONE COUNTYWIDE    OVER VOTES                            #3 DONIE                                               01 
01080030004000000REP       Justice, Supreme Court, Place 4 FREESTONE COUNTYWIDE    OVER VOTES                            #4 COTTON GIN                                          01 
01080030005000000REP       Justice, Supreme Court, Place 4 FREESTONE COUNTYWIDE    OVER VOTES                            #5 TEAGUE                                              01 
01080030006000000REP       Justice, Supreme Court, Place 4 FREESTONE COUNTYWIDE    OVER VOTES                            #6 KIRVIN                                              01 
01080030007000000REP       Justice, Supreme Court, Place 4 FREESTONE COUNTYWIDE    OVER VOTES                            #7 WORTHAM                                             01 
01080030008000000REP       Justice, Supreme Court, Place 4 FREESTONE COUNTYWIDE    OVER VOTES                            #8 ST ELMO                                             01 
01080030009000000REP       Justice, Supreme Court, Place 4 FREESTONE COUNTYWIDE    OVER VOTES                            #9 TEAGUE                                              01 
01080030010000000REP       Justice, Supreme Court, Place 4 FREESTONE COUNTYWIDE    OVER VOTES                            #10 FREESTONE                                          01 
01080030011000000REP       Justice, Supreme Court, Place 4 FREESTONE COUNTYWIDE    OVER VOTES                            #11 BUTLER                                             01 
01080030012000000REP       Justice, Supreme Court, Place 4 FREESTONE COUNTYWIDE    OVER VOTES                            #12 LIBERTY                                            01 
01080030013000000REP       Justice, Supreme Court, Place 4 FREESTONE COUNTYWIDE    OVER VOTES                            #13 DEW                                                01 
01080030014000000REP       Justice, Supreme Court, Place 4 FREESTONE COUNTYWIDE    OVER VOTES                            #14 LANELY                                             01 
01080030015000000REP       Justice, Supreme Court, Place 4 FREESTONE COUNTYWIDE    OVER VOTES                            #15 STREETMAN COUNTY                                   01 
01080040001000052REP       Justice, Supreme Court, Place 4 FREESTONE COUNTYWIDE    UNDER VOTES                           #1 FAIRFIELD                                           01 
01080040002000009REP       Justice, Supreme Court, Place 4 FREESTONE COUNTYWIDE    UNDER VOTES                           #2 FAIRFIELD                                           01 
01080040003000001REP       Justice, Supreme Court, Place 4 FREESTONE COUNTYWIDE    UNDER VOTES                           #3 DONIE                                               01 
01080040004000005REP       Justice, Supreme Court, Place 4 FREESTONE COUNTYWIDE    UNDER VOTES                           #4 COTTON GIN                                          01 
01080040005000024REP       Justice, Supreme Court, Place 4 FREESTONE COUNTYWIDE    UNDER VOTES                           #5 TEAGUE                                              01 
01080040006000008REP       Justice, Supreme Court, Place 4 FREESTONE COUNTYWIDE    UNDER VOTES                           #6 KIRVIN                                              01 
01080040007000012REP       Justice, Supreme Court, Place 4 FREESTONE COUNTYWIDE    UNDER VOTES                           #7 WORTHAM                                             01 
01080040008000010REP       Justice, Supreme Court, Place 4 FREESTONE COUNTYWIDE    UNDER VOTES                           #8 ST ELMO                                             01 
01080040009000003REP       Justice, Supreme Court, Place 4 FREESTONE COUNTYWIDE    UNDER VOTES                           #9 TEAGUE                                              01 
01080040010000000REP       Justice, Supreme Court, Place 4 FREESTONE COUNTYWIDE    UNDER VOTES                           #10 FREESTONE                                          01 
01080040011000000REP       Justice, Supreme Court, Place 4 FREESTONE COUNTYWIDE    UNDER VOTES                           #11 BUTLER                                             01 
01080040012000000REP       Justice, Supreme Court, Place 4 FREESTONE COUNTYWIDE    UNDER VOTES                           #12 LIBERTY                                            01 
01080040013000002REP       Justice, Supreme Court, Place 4 FREESTONE COUNTYWIDE    UNDER VOTES                           #13 DEW                                                01 
01080040014000008REP       Justice, Supreme Court, Place 4 FREESTONE COUNTYWIDE    UNDER VOTES                           #14 LANELY                                             01 
01080040015000004REP       Justice, Supreme Court, Place 4 FREESTONE COUNTYWIDE    UNDER VOTES                           #15 STREETMAN COUNTY                                   01 
01090010001000215REP       Member, State BoE, DIST 10 FREESTONE COUNTYWIDE         Tom Maynard                           #1 FAIRFIELD                                           01 
01090010002000082REP       Member, State BoE, DIST 10 FREESTONE COUNTYWIDE         Tom Maynard                           #2 FAIRFIELD                                           01 
01090010003000006REP       Member, State BoE, DIST 10 FREESTONE COUNTYWIDE         Tom Maynard                           #3 DONIE                                               01 
01090010004000011REP       Member, State BoE, DIST 10 FREESTONE COUNTYWIDE         Tom Maynard                           #4 COTTON GIN                                          01 
01090010005000066REP       Member, State BoE, DIST 10 FREESTONE COUNTYWIDE         Tom Maynard                           #5 TEAGUE                                              01 
01090010006000021REP       Member, State BoE, DIST 10 FREESTONE COUNTYWIDE         Tom Maynard                           #6 KIRVIN                                              01 
01090010007000033REP       Member, State BoE, DIST 10 FREESTONE COUNTYWIDE         Tom Maynard                           #7 WORTHAM                                             01 
01090010008000043REP       Member, State BoE, DIST 10 FREESTONE COUNTYWIDE         Tom Maynard                           #8 ST ELMO                                             01 
01090010009000018REP       Member, State BoE, DIST 10 FREESTONE COUNTYWIDE         Tom Maynard                           #9 TEAGUE                                              01 
01090010010000030REP       Member, State BoE, DIST 10 FREESTONE COUNTYWIDE         Tom Maynard                           #10 FREESTONE                                          01 
01090010011000012REP       Member, State BoE, DIST 10 FREESTONE COUNTYWIDE         Tom Maynard                           #11 BUTLER                                             01 
01090010012000001REP       Member, State BoE, DIST 10 FREESTONE COUNTYWIDE         Tom Maynard                           #12 LIBERTY                                            01 
01090010013000018REP       Member, State BoE, DIST 10 FREESTONE COUNTYWIDE         Tom Maynard                           #13 DEW                                                01 
01090010014000020REP       Member, State BoE, DIST 10 FREESTONE COUNTYWIDE         Tom Maynard                           #14 LANELY                                             01 
01090010015000013REP       Member, State BoE, DIST 10 FREESTONE COUNTYWIDE         Tom Maynard                           #15 STREETMAN COUNTY                                   01 
01090020001000117REP       Member, State BoE, DIST 10 FREESTONE COUNTYWIDE         Rebecca Osborne                       #1 FAIRFIELD                                           01 
01090020002000045REP       Member, State BoE, DIST 10 FREESTONE COUNTYWIDE         Rebecca Osborne                       #2 FAIRFIELD                                           01 
01090020003000004REP       Member, State BoE, DIST 10 FREESTONE COUNTYWIDE         Rebecca Osborne                       #3 DONIE                                               01 
01090020004000018REP       Member, State BoE, DIST 10 FREESTONE COUNTYWIDE         Rebecca Osborne                       #4 COTTON GIN                                          01 
01090020005000060REP       Member, State BoE, DIST 10 FREESTONE COUNTYWIDE         Rebecca Osborne                       #5 TEAGUE                                              01 
01090020006000008REP       Member, State BoE, DIST 10 FREESTONE COUNTYWIDE         Rebecca Osborne                       #6 KIRVIN                                              01 
01090020007000029REP       Member, State BoE, DIST 10 FREESTONE COUNTYWIDE         Rebecca Osborne                       #7 WORTHAM                                             01 
01090020008000046REP       Member, State BoE, DIST 10 FREESTONE COUNTYWIDE         Rebecca Osborne                       #8 ST ELMO                                             01 
01090020009000009REP       Member, State BoE, DIST 10 FREESTONE COUNTYWIDE         Rebecca Osborne                       #9 TEAGUE                                              01 
01090020010000015REP       Member, State BoE, DIST 10 FREESTONE COUNTYWIDE         Rebecca Osborne                       #10 FREESTONE                                          01 
01090020011000011REP       Member, State BoE, DIST 10 FREESTONE COUNTYWIDE         Rebecca Osborne                       #11 BUTLER                                             01 
01090020012000003REP       Member, State BoE, DIST 10 FREESTONE COUNTYWIDE         Rebecca Osborne                       #12 LIBERTY                                            01 
01090020013000010REP       Member, State BoE, DIST 10 FREESTONE COUNTYWIDE         Rebecca Osborne                       #13 DEW                                                01 
01090020014000012REP       Member, State BoE, DIST 10 FREESTONE COUNTYWIDE         Rebecca Osborne                       #14 LANELY                                             01 
01090020015000006REP       Member, State BoE, DIST 10 FREESTONE COUNTYWIDE         Rebecca Osborne                       #15 STREETMAN COUNTY                                   01 
01090030001000000REP       Member, State BoE, DIST 10 FREESTONE COUNTYWIDE         OVER VOTES                            #1 FAIRFIELD                                           01 
01090030002000000REP       Member, State BoE, DIST 10 FREESTONE COUNTYWIDE         OVER VOTES                            #2 FAIRFIELD                                           01 
01090030003000000REP       Member, State BoE, DIST 10 FREESTONE COUNTYWIDE         OVER VOTES                            #3 DONIE                                               01 
01090030004000000REP       Member, State BoE, DIST 10 FREESTONE COUNTYWIDE         OVER VOTES                            #4 COTTON GIN                                          01 
01090030005000000REP       Member, State BoE, DIST 10 FREESTONE COUNTYWIDE         OVER VOTES                            #5 TEAGUE                                              01 
01090030006000000REP       Member, State BoE, DIST 10 FREESTONE COUNTYWIDE         OVER VOTES                            #6 KIRVIN                                              01 
01090030007000000REP       Member, State BoE, DIST 10 FREESTONE COUNTYWIDE         OVER VOTES                            #7 WORTHAM                                             01 
01090030008000000REP       Member, State BoE, DIST 10 FREESTONE COUNTYWIDE         OVER VOTES                            #8 ST ELMO                                             01 
01090030009000000REP       Member, State BoE, DIST 10 FREESTONE COUNTYWIDE         OVER VOTES                            #9 TEAGUE                                              01 
01090030010000000REP       Member, State BoE, DIST 10 FREESTONE COUNTYWIDE         OVER VOTES                            #10 FREESTONE                                          01 
01090030011000000REP       Member, State BoE, DIST 10 FREESTONE COUNTYWIDE         OVER VOTES                            #11 BUTLER                                             01 
01090030012000000REP       Member, State BoE, DIST 10 FREESTONE COUNTYWIDE         OVER VOTES                            #12 LIBERTY                                            01 
01090030013000000REP       Member, State BoE, DIST 10 FREESTONE COUNTYWIDE         OVER VOTES                            #13 DEW                                                01 
01090030014000000REP       Member, State BoE, DIST 10 FREESTONE COUNTYWIDE         OVER VOTES                            #14 LANELY                                             01 
01090030015000000REP       Member, State BoE, DIST 10 FREESTONE COUNTYWIDE         OVER VOTES                            #15 STREETMAN COUNTY                                   01 
01090040001000053REP       Member, State BoE, DIST 10 FREESTONE COUNTYWIDE         UNDER VOTES                           #1 FAIRFIELD                                           01 
01090040002000006REP       Member, State BoE, DIST 10 FREESTONE COUNTYWIDE         UNDER VOTES                           #2 FAIRFIELD                                           01 
01090040003000000REP       Member, State BoE, DIST 10 FREESTONE COUNTYWIDE         UNDER VOTES                           #3 DONIE                                               01 
01090040004000007REP       Member, State BoE, DIST 10 FREESTONE COUNTYWIDE         UNDER VOTES                           #4 COTTON GIN                                          01 
01090040005000025REP       Member, State BoE, DIST 10 FREESTONE COUNTYWIDE         UNDER VOTES                           #5 TEAGUE                                              01 
01090040006000010REP       Member, State BoE, DIST 10 FREESTONE COUNTYWIDE         UNDER VOTES                           #6 KIRVIN                                              01 
01090040007000011REP       Member, State BoE, DIST 10 FREESTONE COUNTYWIDE         UNDER VOTES                           #7 WORTHAM                                             01 
01090040008000015REP       Member, State BoE, DIST 10 FREESTONE COUNTYWIDE         UNDER VOTES                           #8 ST ELMO                                             01 
01090040009000003REP       Member, State BoE, DIST 10 FREESTONE COUNTYWIDE         UNDER VOTES                           #9 TEAGUE                                              01 
01090040010000004REP       Member, State BoE, DIST 10 FREESTONE COUNTYWIDE         UNDER VOTES                           #10 FREESTONE                                          01 
01090040011000002REP       Member, State BoE, DIST 10 FREESTONE COUNTYWIDE         UNDER VOTES                           #11 BUTLER                                             01 
01090040012000002REP       Member, State BoE, DIST 10 FREESTONE COUNTYWIDE         UNDER VOTES                           #12 LIBERTY                                            01 
01090040013000002REP       Member, State BoE, DIST 10 FREESTONE COUNTYWIDE         UNDER VOTES                           #13 DEW                                                01 
01090040014000010REP       Member, State BoE, DIST 10 FREESTONE COUNTYWIDE         UNDER VOTES                           #14 LANELY                                             01 
01090040015000003REP       Member, State BoE, DIST 10 FREESTONE COUNTYWIDE         UNDER VOTES                           #15 STREETMAN COUNTY                                   01 
01100010001000014DEM       US Senator FREESTONE COUNTYWIDE                         Paul Sadler                           #1 FAIRFIELD                                           01 
01100010002000065DEM       US Senator FREESTONE COUNTYWIDE                         Paul Sadler                           #2 FAIRFIELD                                           01 
01100010003000000DEM       US Senator FREESTONE COUNTYWIDE                         Paul Sadler                           #3 DONIE                                               01 
01100010004000001DEM       US Senator FREESTONE COUNTYWIDE                         Paul Sadler                           #4 COTTON GIN                                          01 
01100010005000011DEM       US Senator FREESTONE COUNTYWIDE                         Paul Sadler                           #5 TEAGUE                                              01 
01100010006000004DEM       US Senator FREESTONE COUNTYWIDE                         Paul Sadler                           #6 KIRVIN                                              01 
01100010007000008DEM       US Senator FREESTONE COUNTYWIDE                         Paul Sadler                           #7 WORTHAM                                             01 
01100010008000001DEM       US Senator FREESTONE COUNTYWIDE                         Paul Sadler                           #8 ST ELMO                                             01 
01100010009000003DEM       US Senator FREESTONE COUNTYWIDE                         Paul Sadler                           #9 TEAGUE                                              01 
01100010010000000DEM       US Senator FREESTONE COUNTYWIDE                         Paul Sadler                           #10 FREESTONE                                          01 
01100010011000028DEM       US Senator FREESTONE COUNTYWIDE                         Paul Sadler                           #11 BUTLER                                             01 
01100010012000003DEM       US Senator FREESTONE COUNTYWIDE                         Paul Sadler                           #12 LIBERTY                                            01 
01100010013000002DEM       US Senator FREESTONE COUNTYWIDE                         Paul Sadler                           #13 DEW                                                01 
01100010014000007DEM       US Senator FREESTONE COUNTYWIDE                         Paul Sadler                           #14 LANELY                                             01 
01100010015000000DEM       US Senator FREESTONE COUNTYWIDE                         Paul Sadler                           #15 STREETMAN COUNTY                                   01 
01100020001000006DEM       US Senator FREESTONE COUNTYWIDE                         Grady Yarbrough                       #1 FAIRFIELD                                           01 
01100020002000056DEM       US Senator FREESTONE COUNTYWIDE                         Grady Yarbrough                       #2 FAIRFIELD                                           01 
01100020003000001DEM       US Senator FREESTONE COUNTYWIDE                         Grady Yarbrough                       #3 DONIE                                               01 
01100020004000000DEM       US Senator FREESTONE COUNTYWIDE                         Grady Yarbrough                       #4 COTTON GIN                                          01 
01100020005000003DEM       US Senator FREESTONE COUNTYWIDE                         Grady Yarbrough                       #5 TEAGUE                                              01 
01100020006000001DEM       US Senator FREESTONE COUNTYWIDE                         Grady Yarbrough                       #6 KIRVIN                                              01 
01100020007000002DEM       US Senator FREESTONE COUNTYWIDE                         Grady Yarbrough                       #7 WORTHAM                                             01 
01100020008000001DEM       US Senator FREESTONE COUNTYWIDE                         Grady Yarbrough                       #8 ST ELMO                                             01 
01100020009000000DEM       US Senator FREESTONE COUNTYWIDE                         Grady Yarbrough                       #9 TEAGUE                                              01 
01100020010000000DEM       US Senator FREESTONE COUNTYWIDE                         Grady Yarbrough                       #10 FREESTONE                                          01 
01100020011000054DEM       US Senator FREESTONE COUNTYWIDE                         Grady Yarbrough                       #11 BUTLER                                             01 
01100020012000002DEM       US Senator FREESTONE COUNTYWIDE                         Grady Yarbrough                       #12 LIBERTY                                            01 
01100020013000002DEM       US Senator FREESTONE COUNTYWIDE                         Grady Yarbrough                       #13 DEW                                                01 
01100020014000007DEM       US Senator FREESTONE COUNTYWIDE                         Grady Yarbrough                       #14 LANELY                                             01 
01100020015000001DEM       US Senator FREESTONE COUNTYWIDE                         Grady Yarbrough                       #15 STREETMAN COUNTY                                   01 
01100030001000000DEM       US Senator FREESTONE COUNTYWIDE                         OVER VOTES                            #1 FAIRFIELD                                           01 
01100030002000000DEM       US Senator FREESTONE COUNTYWIDE                         OVER VOTES                            #2 FAIRFIELD                                           01 
01100030003000000DEM       US Senator FREESTONE COUNTYWIDE                         OVER VOTES                            #3 DONIE                                               01 
01100030004000000DEM       US Senator FREESTONE COUNTYWIDE                         OVER VOTES                            #4 COTTON GIN                                          01 
01100030005000000DEM       US Senator FREESTONE COUNTYWIDE                         OVER VOTES                            #5 TEAGUE                                              01 
01100030006000000DEM       US Senator FREESTONE COUNTYWIDE                         OVER VOTES                            #6 KIRVIN                                              01 
01100030007000000DEM       US Senator FREESTONE COUNTYWIDE                         OVER VOTES                            #7 WORTHAM                                             01 
01100030008000000DEM       US Senator FREESTONE COUNTYWIDE                         OVER VOTES                            #8 ST ELMO                                             01 
01100030009000000DEM       US Senator FREESTONE COUNTYWIDE                         OVER VOTES                            #9 TEAGUE                                              01 
01100030010000000DEM       US Senator FREESTONE COUNTYWIDE                         OVER VOTES                            #10 FREESTONE                                          01 
01100030011000000DEM       US Senator FREESTONE COUNTYWIDE                         OVER VOTES                            #11 BUTLER                                             01 
01100030012000000DEM       US Senator FREESTONE COUNTYWIDE                         OVER VOTES                            #12 LIBERTY                                            01 
01100030013000000DEM       US Senator FREESTONE COUNTYWIDE                         OVER VOTES                            #13 DEW                                                01 
01100030014000000DEM       US Senator FREESTONE COUNTYWIDE                         OVER VOTES                            #14 LANELY                                             01 
01100030015000000DEM       US Senator FREESTONE COUNTYWIDE                         OVER VOTES                            #15 STREETMAN COUNTY                                   01 
01100040001000000DEM       US Senator FREESTONE COUNTYWIDE                         UNDER VOTES                           #1 FAIRFIELD                                           01 
01100040002000067DEM       US Senator FREESTONE COUNTYWIDE                         UNDER VOTES                           #2 FAIRFIELD                                           01 
01100040003000000DEM       US Senator FREESTONE COUNTYWIDE                         UNDER VOTES                           #3 DONIE                                               01 
01100040004000000DEM       US Senator FREESTONE COUNTYWIDE                         UNDER VOTES                           #4 COTTON GIN                                          01 
01100040005000000DEM       US Senator FREESTONE COUNTYWIDE                         UNDER VOTES                           #5 TEAGUE                                              01 
01100040006000000DEM       US Senator FREESTONE COUNTYWIDE                         UNDER VOTES                           #6 KIRVIN                                              01 
01100040007000000DEM       US Senator FREESTONE COUNTYWIDE                         UNDER VOTES                           #7 WORTHAM                                             01 
01100040008000000DEM       US Senator FREESTONE COUNTYWIDE                         UNDER VOTES                           #8 ST ELMO                                             01 
01100040009000000DEM       US Senator FREESTONE COUNTYWIDE                         UNDER VOTES                           #9 TEAGUE                                              01 
01100040010000000DEM       US Senator FREESTONE COUNTYWIDE                         UNDER VOTES                           #10 FREESTONE                                          01 
01100040011000038DEM       US Senator FREESTONE COUNTYWIDE                         UNDER VOTES                           #11 BUTLER                                             01 
01100040012000000DEM       US Senator FREESTONE COUNTYWIDE                         UNDER VOTES                           #12 LIBERTY                                            01 
01100040013000001DEM       US Senator FREESTONE COUNTYWIDE                         UNDER VOTES                           #13 DEW                                                01 
01100040014000000DEM       US Senator FREESTONE COUNTYWIDE                         UNDER VOTES                           #14 LANELY                                             01 
01100040015000000DEM       US Senator FREESTONE COUNTYWIDE                         UNDER VOTES                           #15 STREETMAN COUNTY                                   01 
01110010002000062DEM       County Commissioner, PCT 3 COMM 3                       Keith Brackens                        #2 FAIRFIELD                                           01 
01110010011000027DEM       County Commissioner, PCT 3 COMM 3                       Keith Brackens                        #11 BUTLER                                             01 
01110010013000001DEM       County Commissioner, PCT 3 COMM 3                       Keith Brackens                        #13 DEW                                                01 
01110010014000004DEM       County Commissioner, PCT 3 COMM 3                       Keith Brackens                        #14 LANELY                                             01 
01110020002000125DEM       County Commissioner, PCT 3 COMM 3                       Michael Daniels                       #2 FAIRFIELD                                           01 
01110020011000090DEM       County Commissioner, PCT 3 COMM 3                       Michael Daniels                       #11 BUTLER                                             01 
01110020013000004DEM       County Commissioner, PCT 3 COMM 3                       Michael Daniels                       #13 DEW                                                01 
01110020014000010DEM       County Commissioner, PCT 3 COMM 3                       Michael Daniels                       #14 LANELY                                             01 
01110030002000000DEM       County Commissioner, PCT 3 COMM 3                       OVER VOTES                            #2 FAIRFIELD                                           01 
01110030011000000DEM       County Commissioner, PCT 3 COMM 3                       OVER VOTES                            #11 BUTLER                                             01 
01110030013000000DEM       County Commissioner, PCT 3 COMM 3                       OVER VOTES                            #13 DEW                                                01 
01110030014000000DEM       County Commissioner, PCT 3 COMM 3                       OVER VOTES                            #14 LANELY                                             01 
01110040002000001DEM       County Commissioner, PCT 3 COMM 3                       UNDER VOTES                           #2 FAIRFIELD                                           01 
01110040011000003DEM       County Commissioner, PCT 3 COMM 3                       UNDER VOTES                           #11 BUTLER                                             01 
01110040013000000DEM       County Commissioner, PCT 3 COMM 3                       UNDER VOTES                           #13 DEW                                                01 
01110040014000000DEM       County Commissioner, PCT 3 COMM 3                       UNDER VOTES                           #14 LANELY                                             01 
