01130010001000014DEM       US Senator GRAYSON COUNTYWIDE                           Paul Sadler                           PRECINCT 101                                           01 
01130010002000007DEM       US Senator GRAYSON COUNTYWIDE                           Paul Sadler                           PRECINCT 102                                           01 
01130010003000002DEM       US Senator GRAYSON COUNTYWIDE                           Paul Sadler                           PRECINCT 103                                           01 
01130010004000000DEM       US Senator GRAYSON COUNTYWIDE                           Paul Sadler                           PRECINCT 104                                           01 
01130010005000009DEM       US Senator GRAYSON COUNTYWIDE                           Paul Sadler                           PRECINCT 105                                           01 
01130010006000004DEM       US Senator GRAYSON COUNTYWIDE                           Paul Sadler                           PRECINCT 106                                           01 
01130010007000004DEM       US Senator GRAYSON COUNTYWIDE                           Paul Sadler                           PRECINCT 107                                           01 
01130010008000004DEM       US Senator GRAYSON COUNTYWIDE                           Paul Sadler                           PRECINCT 108                                           01 
01130010009000008DEM       US Senator GRAYSON COUNTYWIDE                           Paul Sadler                           PRECINCT 201                                           01 
01130010010000005DEM       US Senator GRAYSON COUNTYWIDE                           Paul Sadler                           PRECINCT 202                                           01 
01130010011000003DEM       US Senator GRAYSON COUNTYWIDE                           Paul Sadler                           PRECINCT 203                                           01 
01130010012000000DEM       US Senator GRAYSON COUNTYWIDE                           Paul Sadler                           PRECINCT 204                                           01 
01130010013000009DEM       US Senator GRAYSON COUNTYWIDE                           Paul Sadler                           PRECINCT 205                                           01 
01130010014000014DEM       US Senator GRAYSON COUNTYWIDE                           Paul Sadler                           PRECINCT 206                                           01 
01130010015000002DEM       US Senator GRAYSON COUNTYWIDE                           Paul Sadler                           PRECINCT 207                                           01 
01130010016000003DEM       US Senator GRAYSON COUNTYWIDE                           Paul Sadler                           PRECINCT 208                                           01 
01130010017000002DEM       US Senator GRAYSON COUNTYWIDE                           Paul Sadler                           PRECINCT 209                                           01 
01130010018000002DEM       US Senator GRAYSON COUNTYWIDE                           Paul Sadler                           PRECINCT 210                                           01 
01130010019000003DEM       US Senator GRAYSON COUNTYWIDE                           Paul Sadler                           PRECINCT 301                                           01 
01130010020000019DEM       US Senator GRAYSON COUNTYWIDE                           Paul Sadler                           PRECINCT 302                                           01 
01130010021000001DEM       US Senator GRAYSON COUNTYWIDE                           Paul Sadler                           PRECINCT 303                                           01 
01130010022000017DEM       US Senator GRAYSON COUNTYWIDE                           Paul Sadler                           PRECINCT 304                                           01 
01130010023000007DEM       US Senator GRAYSON COUNTYWIDE                           Paul Sadler                           PRECINCT 305                                           01 
01130010024000013DEM       US Senator GRAYSON COUNTYWIDE                           Paul Sadler                           PRECINCT 306                                           01 
01130010025000002DEM       US Senator GRAYSON COUNTYWIDE                           Paul Sadler                           PRECINCT 307                                           01 
01130010026000000DEM       US Senator GRAYSON COUNTYWIDE                           Paul Sadler                           PRECINCT 308                                           01 
01130010027000002DEM       US Senator GRAYSON COUNTYWIDE                           Paul Sadler                           PRECINCT 309                                           01 
01130010028000012DEM       US Senator GRAYSON COUNTYWIDE                           Paul Sadler                           PRECINCT 401                                           01 
01130010029000011DEM       US Senator GRAYSON COUNTYWIDE                           Paul Sadler                           PRECINCT 402                                           01 
01130010030000007DEM       US Senator GRAYSON COUNTYWIDE                           Paul Sadler                           PRECINCT 403                                           01 
01130010031000018DEM       US Senator GRAYSON COUNTYWIDE                           Paul Sadler                           PRECINCT 404                                           01 
01130010032000000DEM       US Senator GRAYSON COUNTYWIDE                           Paul Sadler                           PRECINCT 405                                           01 
01130010033000009DEM       US Senator GRAYSON COUNTYWIDE                           Paul Sadler                           PRECINCT 406                                           01 
01130010034000000DEM       US Senator GRAYSON COUNTYWIDE                           Paul Sadler                           PRECINCT 407                                           01 
01130010035000000DEM       US Senator GRAYSON COUNTYWIDE                           Paul Sadler                           PRECINCT 408                                           01 
01130010036000027DEM       US Senator GRAYSON COUNTYWIDE                           Paul Sadler                           PRECINCT 409                                           01 
01130020001000012DEM       US Senator GRAYSON COUNTYWIDE                           Grady Yarbrough                       PRECINCT 101                                           01 
01130020002000001DEM       US Senator GRAYSON COUNTYWIDE                           Grady Yarbrough                       PRECINCT 102                                           01 
01130020003000001DEM       US Senator GRAYSON COUNTYWIDE                           Grady Yarbrough                       PRECINCT 103                                           01 
01130020004000002DEM       US Senator GRAYSON COUNTYWIDE                           Grady Yarbrough                       PRECINCT 104                                           01 
01130020005000004DEM       US Senator GRAYSON COUNTYWIDE                           Grady Yarbrough                       PRECINCT 105                                           01 
01130020006000008DEM       US Senator GRAYSON COUNTYWIDE                           Grady Yarbrough                       PRECINCT 106                                           01 
01130020007000004DEM       US Senator GRAYSON COUNTYWIDE                           Grady Yarbrough                       PRECINCT 107                                           01 
01130020008000001DEM       US Senator GRAYSON COUNTYWIDE                           Grady Yarbrough                       PRECINCT 108                                           01 
01130020009000015DEM       US Senator GRAYSON COUNTYWIDE                           Grady Yarbrough                       PRECINCT 201                                           01 
01130020010000006DEM       US Senator GRAYSON COUNTYWIDE                           Grady Yarbrough                       PRECINCT 202                                           01 
01130020011000007DEM       US Senator GRAYSON COUNTYWIDE                           Grady Yarbrough                       PRECINCT 203                                           01 
01130020012000000DEM       US Senator GRAYSON COUNTYWIDE                           Grady Yarbrough                       PRECINCT 204                                           01 
01130020013000006DEM       US Senator GRAYSON COUNTYWIDE                           Grady Yarbrough                       PRECINCT 205                                           01 
01130020014000005DEM       US Senator GRAYSON COUNTYWIDE                           Grady Yarbrough                       PRECINCT 206                                           01 
01130020015000000DEM       US Senator GRAYSON COUNTYWIDE                           Grady Yarbrough                       PRECINCT 207                                           01 
01130020016000003DEM       US Senator GRAYSON COUNTYWIDE                           Grady Yarbrough                       PRECINCT 208                                           01 
01130020017000003DEM       US Senator GRAYSON COUNTYWIDE                           Grady Yarbrough                       PRECINCT 209                                           01 
01130020018000002DEM       US Senator GRAYSON COUNTYWIDE                           Grady Yarbrough                       PRECINCT 210                                           01 
01130020019000002DEM       US Senator GRAYSON COUNTYWIDE                           Grady Yarbrough                       PRECINCT 301                                           01 
01130020020000004DEM       US Senator GRAYSON COUNTYWIDE                           Grady Yarbrough                       PRECINCT 302                                           01 
01130020021000001DEM       US Senator GRAYSON COUNTYWIDE                           Grady Yarbrough                       PRECINCT 303                                           01 
01130020022000007DEM       US Senator GRAYSON COUNTYWIDE                           Grady Yarbrough                       PRECINCT 304                                           01 
01130020023000001DEM       US Senator GRAYSON COUNTYWIDE                           Grady Yarbrough                       PRECINCT 305                                           01 
01130020024000004DEM       US Senator GRAYSON COUNTYWIDE                           Grady Yarbrough                       PRECINCT 306                                           01 
01130020025000003DEM       US Senator GRAYSON COUNTYWIDE                           Grady Yarbrough                       PRECINCT 307                                           01 
01130020026000000DEM       US Senator GRAYSON COUNTYWIDE                           Grady Yarbrough                       PRECINCT 308                                           01 
01130020027000001DEM       US Senator GRAYSON COUNTYWIDE                           Grady Yarbrough                       PRECINCT 309                                           01 
01130020028000002DEM       US Senator GRAYSON COUNTYWIDE                           Grady Yarbrough                       PRECINCT 401                                           01 
01130020029000003DEM       US Senator GRAYSON COUNTYWIDE                           Grady Yarbrough                       PRECINCT 402                                           01 
01130020030000000DEM       US Senator GRAYSON COUNTYWIDE                           Grady Yarbrough                       PRECINCT 403                                           01 
01130020031000006DEM       US Senator GRAYSON COUNTYWIDE                           Grady Yarbrough                       PRECINCT 404                                           01 
01130020032000001DEM       US Senator GRAYSON COUNTYWIDE                           Grady Yarbrough                       PRECINCT 405                                           01 
01130020033000006DEM       US Senator GRAYSON COUNTYWIDE                           Grady Yarbrough                       PRECINCT 406                                           01 
01130020034000001DEM       US Senator GRAYSON COUNTYWIDE                           Grady Yarbrough                       PRECINCT 407                                           01 
01130020035000002DEM       US Senator GRAYSON COUNTYWIDE                           Grady Yarbrough                       PRECINCT 408                                           01 
01130020036000011DEM       US Senator GRAYSON COUNTYWIDE                           Grady Yarbrough                       PRECINCT 409                                           01 
01130030001000000DEM       US Senator GRAYSON COUNTYWIDE                           OVER VOTES                            PRECINCT 101                                           01 
01130030002000000DEM       US Senator GRAYSON COUNTYWIDE                           OVER VOTES                            PRECINCT 102                                           01 
01130030003000000DEM       US Senator GRAYSON COUNTYWIDE                           OVER VOTES                            PRECINCT 103                                           01 
01130030004000000DEM       US Senator GRAYSON COUNTYWIDE                           OVER VOTES                            PRECINCT 104                                           01 
01130030005000000DEM       US Senator GRAYSON COUNTYWIDE                           OVER VOTES                            PRECINCT 105                                           01 
01130030006000000DEM       US Senator GRAYSON COUNTYWIDE                           OVER VOTES                            PRECINCT 106                                           01 
01130030007000000DEM       US Senator GRAYSON COUNTYWIDE                           OVER VOTES                            PRECINCT 107                                           01 
01130030008000000DEM       US Senator GRAYSON COUNTYWIDE                           OVER VOTES                            PRECINCT 108                                           01 
01130030009000000DEM       US Senator GRAYSON COUNTYWIDE                           OVER VOTES                            PRECINCT 201                                           01 
01130030010000000DEM       US Senator GRAYSON COUNTYWIDE                           OVER VOTES                            PRECINCT 202                                           01 
01130030011000000DEM       US Senator GRAYSON COUNTYWIDE                           OVER VOTES                            PRECINCT 203                                           01 
01130030012000000DEM       US Senator GRAYSON COUNTYWIDE                           OVER VOTES                            PRECINCT 204                                           01 
01130030013000000DEM       US Senator GRAYSON COUNTYWIDE                           OVER VOTES                            PRECINCT 205                                           01 
01130030014000000DEM       US Senator GRAYSON COUNTYWIDE                           OVER VOTES                            PRECINCT 206                                           01 
01130030015000000DEM       US Senator GRAYSON COUNTYWIDE                           OVER VOTES                            PRECINCT 207                                           01 
01130030016000000DEM       US Senator GRAYSON COUNTYWIDE                           OVER VOTES                            PRECINCT 208                                           01 
01130030017000000DEM       US Senator GRAYSON COUNTYWIDE                           OVER VOTES                            PRECINCT 209                                           01 
01130030018000000DEM       US Senator GRAYSON COUNTYWIDE                           OVER VOTES                            PRECINCT 210                                           01 
01130030019000000DEM       US Senator GRAYSON COUNTYWIDE                           OVER VOTES                            PRECINCT 301                                           01 
01130030020000000DEM       US Senator GRAYSON COUNTYWIDE                           OVER VOTES                            PRECINCT 302                                           01 
01130030021000000DEM       US Senator GRAYSON COUNTYWIDE                           OVER VOTES                            PRECINCT 303                                           01 
01130030022000000DEM       US Senator GRAYSON COUNTYWIDE                           OVER VOTES                            PRECINCT 304                                           01 
01130030023000000DEM       US Senator GRAYSON COUNTYWIDE                           OVER VOTES                            PRECINCT 305                                           01 
01130030024000000DEM       US Senator GRAYSON COUNTYWIDE                           OVER VOTES                            PRECINCT 306                                           01 
01130030025000000DEM       US Senator GRAYSON COUNTYWIDE                           OVER VOTES                            PRECINCT 307                                           01 
01130030026000000DEM       US Senator GRAYSON COUNTYWIDE                           OVER VOTES                            PRECINCT 308                                           01 
01130030027000000DEM       US Senator GRAYSON COUNTYWIDE                           OVER VOTES                            PRECINCT 309                                           01 
01130030028000000DEM       US Senator GRAYSON COUNTYWIDE                           OVER VOTES                            PRECINCT 401                                           01 
01130030029000000DEM       US Senator GRAYSON COUNTYWIDE                           OVER VOTES                            PRECINCT 402                                           01 
01130030030000000DEM       US Senator GRAYSON COUNTYWIDE                           OVER VOTES                            PRECINCT 403                                           01 
01130030031000000DEM       US Senator GRAYSON COUNTYWIDE                           OVER VOTES                            PRECINCT 404                                           01 
01130030032000000DEM       US Senator GRAYSON COUNTYWIDE                           OVER VOTES                            PRECINCT 405                                           01 
01130030033000000DEM       US Senator GRAYSON COUNTYWIDE                           OVER VOTES                            PRECINCT 406                                           01 
01130030034000000DEM       US Senator GRAYSON COUNTYWIDE                           OVER VOTES                            PRECINCT 407                                           01 
01130030035000000DEM       US Senator GRAYSON COUNTYWIDE                           OVER VOTES                            PRECINCT 408                                           01 
01130030036000000DEM       US Senator GRAYSON COUNTYWIDE                           OVER VOTES                            PRECINCT 409                                           01 
01130040001000000DEM       US Senator GRAYSON COUNTYWIDE                           UNDER VOTES                           PRECINCT 101                                           01 
01130040002000001DEM       US Senator GRAYSON COUNTYWIDE                           UNDER VOTES                           PRECINCT 102                                           01 
01130040003000000DEM       US Senator GRAYSON COUNTYWIDE                           UNDER VOTES                           PRECINCT 103                                           01 
01130040004000000DEM       US Senator GRAYSON COUNTYWIDE                           UNDER VOTES                           PRECINCT 104                                           01 
01130040005000000DEM       US Senator GRAYSON COUNTYWIDE                           UNDER VOTES                           PRECINCT 105                                           01 
01130040006000001DEM       US Senator GRAYSON COUNTYWIDE                           UNDER VOTES                           PRECINCT 106                                           01 
01130040007000000DEM       US Senator GRAYSON COUNTYWIDE                           UNDER VOTES                           PRECINCT 107                                           01 
01130040008000000DEM       US Senator GRAYSON COUNTYWIDE                           UNDER VOTES                           PRECINCT 108                                           01 
01130040009000001DEM       US Senator GRAYSON COUNTYWIDE                           UNDER VOTES                           PRECINCT 201                                           01 
01130040010000000DEM       US Senator GRAYSON COUNTYWIDE                           UNDER VOTES                           PRECINCT 202                                           01 
01130040011000000DEM       US Senator GRAYSON COUNTYWIDE                           UNDER VOTES                           PRECINCT 203                                           01 
01130040012000000DEM       US Senator GRAYSON COUNTYWIDE                           UNDER VOTES                           PRECINCT 204                                           01 
01130040013000000DEM       US Senator GRAYSON COUNTYWIDE                           UNDER VOTES                           PRECINCT 205                                           01 
01130040014000000DEM       US Senator GRAYSON COUNTYWIDE                           UNDER VOTES                           PRECINCT 206                                           01 
01130040015000000DEM       US Senator GRAYSON COUNTYWIDE                           UNDER VOTES                           PRECINCT 207                                           01 
01130040016000000DEM       US Senator GRAYSON COUNTYWIDE                           UNDER VOTES                           PRECINCT 208                                           01 
01130040017000000DEM       US Senator GRAYSON COUNTYWIDE                           UNDER VOTES                           PRECINCT 209                                           01 
01130040018000000DEM       US Senator GRAYSON COUNTYWIDE                           UNDER VOTES                           PRECINCT 210                                           01 
01130040019000000DEM       US Senator GRAYSON COUNTYWIDE                           UNDER VOTES                           PRECINCT 301                                           01 
01130040020000001DEM       US Senator GRAYSON COUNTYWIDE                           UNDER VOTES                           PRECINCT 302                                           01 
01130040021000000DEM       US Senator GRAYSON COUNTYWIDE                           UNDER VOTES                           PRECINCT 303                                           01 
01130040022000000DEM       US Senator GRAYSON COUNTYWIDE                           UNDER VOTES                           PRECINCT 304                                           01 
01130040023000001DEM       US Senator GRAYSON COUNTYWIDE                           UNDER VOTES                           PRECINCT 305                                           01 
01130040024000001DEM       US Senator GRAYSON COUNTYWIDE                           UNDER VOTES                           PRECINCT 306                                           01 
01130040025000000DEM       US Senator GRAYSON COUNTYWIDE                           UNDER VOTES                           PRECINCT 307                                           01 
01130040026000000DEM       US Senator GRAYSON COUNTYWIDE                           UNDER VOTES                           PRECINCT 308                                           01 
01130040027000002DEM       US Senator GRAYSON COUNTYWIDE                           UNDER VOTES                           PRECINCT 309                                           01 
01130040028000001DEM       US Senator GRAYSON COUNTYWIDE                           UNDER VOTES                           PRECINCT 401                                           01 
01130040029000002DEM       US Senator GRAYSON COUNTYWIDE                           UNDER VOTES                           PRECINCT 402                                           01 
01130040030000000DEM       US Senator GRAYSON COUNTYWIDE                           UNDER VOTES                           PRECINCT 403                                           01 
01130040031000001DEM       US Senator GRAYSON COUNTYWIDE                           UNDER VOTES                           PRECINCT 404                                           01 
01130040032000001DEM       US Senator GRAYSON COUNTYWIDE                           UNDER VOTES                           PRECINCT 405                                           01 
01130040033000000DEM       US Senator GRAYSON COUNTYWIDE                           UNDER VOTES                           PRECINCT 406                                           01 
01130040034000000DEM       US Senator GRAYSON COUNTYWIDE                           UNDER VOTES                           PRECINCT 407                                           01 
01130040035000000DEM       US Senator GRAYSON COUNTYWIDE                           UNDER VOTES                           PRECINCT 408                                           01 
01130040036000001DEM       US Senator GRAYSON COUNTYWIDE                           UNDER VOTES                           PRECINCT 409                                           01 
