01020010001000000          BALLOTS CAST - TOTAL                                    BALLOTS CAST - TOTAL                  PRECINCT 101                                           00 
01020010002000000          BALLOTS CAST - TOTAL                                    BALLOTS CAST - TOTAL                  PRECINCT 201                                           00 
01020010003000000          BALLOTS CAST - TOTAL                                    BALLOTS CAST - TOTAL                  PRECINCT 202                                           00 
01020010004000000          BALLOTS CAST - TOTAL                                    BALLOTS CAST - TOTAL                  PRECINCT 301                                           00 
01020010005000000          BALLOTS CAST - TOTAL                                    BALLOTS CAST - TOTAL                  PRECINCT 302                                           00 
01020010006000000          BALLOTS CAST - TOTAL                                    BALLOTS CAST - TOTAL                  PRECINCT 303                                           00 
01020010007000000          BALLOTS CAST - TOTAL                                    BALLOTS CAST - TOTAL                  PRECINCT 401                                           00 
01020010008000000          BALLOTS CAST - TOTAL                                    BALLOTS CAST - TOTAL                  PRECINCT 402                                           00 
01030010001000000REP       President                                               Michele Bachmann                      PRECINCT 101                                           01 
01030010002000000REP       President                                               Michele Bachmann                      PRECINCT 201                                           01 
01030010003000000REP       President                                               Michele Bachmann                      PRECINCT 202                                           01 
01030010004000000REP       President                                               Michele Bachmann                      PRECINCT 301                                           01 
01030010005000000REP       President                                               Michele Bachmann                      PRECINCT 302                                           01 
01030010006000000REP       President                                               Michele Bachmann                      PRECINCT 303                                           01 
01030010007000000REP       President                                               Michele Bachmann                      PRECINCT 401                                           01 
01030010008000000REP       President                                               Michele Bachmann                      PRECINCT 402                                           01 
01030020001000000REP       President                                               John Davis                            PRECINCT 101                                           01 
01030020002000000REP       President                                               John Davis                            PRECINCT 201                                           01 
01030020003000000REP       President                                               John Davis                            PRECINCT 202                                           01 
01030020004000000REP       President                                               John Davis                            PRECINCT 301                                           01 
01030020005000000REP       President                                               John Davis                            PRECINCT 302                                           01 
01030020006000000REP       President                                               John Davis                            PRECINCT 303                                           01 
01030020007000000REP       President                                               John Davis                            PRECINCT 401                                           01 
01030020008000000REP       President                                               John Davis                            PRECINCT 402                                           01 
01030030001000000REP       President                                               Newt Gingrich                         PRECINCT 101                                           01 
01030030002000000REP       President                                               Newt Gingrich                         PRECINCT 201                                           01 
01030030003000000REP       President                                               Newt Gingrich                         PRECINCT 202                                           01 
01030030004000000REP       President                                               Newt Gingrich                         PRECINCT 301                                           01 
01030030005000000REP       President                                               Newt Gingrich                         PRECINCT 302                                           01 
01030030006000000REP       President                                               Newt Gingrich                         PRECINCT 303                                           01 
01030030007000000REP       President                                               Newt Gingrich                         PRECINCT 401                                           01 
01030030008000000REP       President                                               Newt Gingrich                         PRECINCT 402                                           01 
01030040001000000REP       President                                               Jon Huntsman                          PRECINCT 101                                           01 
01030040002000000REP       President                                               Jon Huntsman                          PRECINCT 201                                           01 
01030040003000000REP       President                                               Jon Huntsman                          PRECINCT 202                                           01 
01030040004000000REP       President                                               Jon Huntsman                          PRECINCT 301                                           01 
01030040005000000REP       President                                               Jon Huntsman                          PRECINCT 302                                           01 
01030040006000000REP       President                                               Jon Huntsman                          PRECINCT 303                                           01 
01030040007000000REP       President                                               Jon Huntsman                          PRECINCT 401                                           01 
01030040008000000REP       President                                               Jon Huntsman                          PRECINCT 402                                           01 
01030050001000000REP       President                                               Ron Paul                              PRECINCT 101                                           01 
01030050002000000REP       President                                               Ron Paul                              PRECINCT 201                                           01 
01030050003000000REP       President                                               Ron Paul                              PRECINCT 202                                           01 
01030050004000000REP       President                                               Ron Paul                              PRECINCT 301                                           01 
01030050005000000REP       President                                               Ron Paul                              PRECINCT 302                                           01 
01030050006000000REP       President                                               Ron Paul                              PRECINCT 303                                           01 
01030050007000000REP       President                                               Ron Paul                              PRECINCT 401                                           01 
01030050008000000REP       President                                               Ron Paul                              PRECINCT 402                                           01 
01030060001000000REP       President                                               Charles "Buddy" Roemer                PRECINCT 101                                           01 
01030060002000000REP       President                                               Charles "Buddy" Roemer                PRECINCT 201                                           01 
01030060003000000REP       President                                               Charles "Buddy" Roemer                PRECINCT 202                                           01 
01030060004000000REP       President                                               Charles "Buddy" Roemer                PRECINCT 301                                           01 
01030060005000000REP       President                                               Charles "Buddy" Roemer                PRECINCT 302                                           01 
01030060006000000REP       President                                               Charles "Buddy" Roemer                PRECINCT 303                                           01 
01030060007000000REP       President                                               Charles "Buddy" Roemer                PRECINCT 401                                           01 
01030060008000000REP       President                                               Charles "Buddy" Roemer                PRECINCT 402                                           01 
01030070001000000REP       President                                               Mitt Romney                           PRECINCT 101                                           01 
01030070002000000REP       President                                               Mitt Romney                           PRECINCT 201                                           01 
01030070003000000REP       President                                               Mitt Romney                           PRECINCT 202                                           01 
01030070004000000REP       President                                               Mitt Romney                           PRECINCT 301                                           01 
01030070005000000REP       President                                               Mitt Romney                           PRECINCT 302                                           01 
01030070006000000REP       President                                               Mitt Romney                           PRECINCT 303                                           01 
01030070007000000REP       President                                               Mitt Romney                           PRECINCT 401                                           01 
01030070008000000REP       President                                               Mitt Romney                           PRECINCT 402                                           01 
01030080001000000REP       President                                               Rick Santorum                         PRECINCT 101                                           01 
01030080002000000REP       President                                               Rick Santorum                         PRECINCT 201                                           01 
01030080003000000REP       President                                               Rick Santorum                         PRECINCT 202                                           01 
01030080004000000REP       President                                               Rick Santorum                         PRECINCT 301                                           01 
01030080005000000REP       President                                               Rick Santorum                         PRECINCT 302                                           01 
01030080006000000REP       President                                               Rick Santorum                         PRECINCT 303                                           01 
01030080007000000REP       President                                               Rick Santorum                         PRECINCT 401                                           01 
01030080008000000REP       President                                               Rick Santorum                         PRECINCT 402                                           01 
01030090001000000REP       President                                               Uncommitted (No Comprometido)         PRECINCT 101                                           01 
01030090002000000REP       President                                               Uncommitted (No Comprometido)         PRECINCT 201                                           01 
01030090003000000REP       President                                               Uncommitted (No Comprometido)         PRECINCT 202                                           01 
01030090004000000REP       President                                               Uncommitted (No Comprometido)         PRECINCT 301                                           01 
01030090005000000REP       President                                               Uncommitted (No Comprometido)         PRECINCT 302                                           01 
01030090006000000REP       President                                               Uncommitted (No Comprometido)         PRECINCT 303                                           01 
01030090007000000REP       President                                               Uncommitted (No Comprometido)         PRECINCT 401                                           01 
01030090008000000REP       President                                               Uncommitted (No Comprometido)         PRECINCT 402                                           01 
01030100001000000REP       President                                               OVER VOTES                            PRECINCT 101                                           01 
01030100002000000REP       President                                               OVER VOTES                            PRECINCT 201                                           01 
01030100003000000REP       President                                               OVER VOTES                            PRECINCT 202                                           01 
01030100004000000REP       President                                               OVER VOTES                            PRECINCT 301                                           01 
01030100005000000REP       President                                               OVER VOTES                            PRECINCT 302                                           01 
01030100006000000REP       President                                               OVER VOTES                            PRECINCT 303                                           01 
01030100007000000REP       President                                               OVER VOTES                            PRECINCT 401                                           01 
01030100008000000REP       President                                               OVER VOTES                            PRECINCT 402                                           01 
01030110001000000REP       President                                               UNDER VOTES                           PRECINCT 101                                           01 
01030110002000000REP       President                                               UNDER VOTES                           PRECINCT 201                                           01 
01030110003000000REP       President                                               UNDER VOTES                           PRECINCT 202                                           01 
01030110004000000REP       President                                               UNDER VOTES                           PRECINCT 301                                           01 
01030110005000000REP       President                                               UNDER VOTES                           PRECINCT 302                                           01 
01030110006000000REP       President                                               UNDER VOTES                           PRECINCT 303                                           01 
01030110007000000REP       President                                               UNDER VOTES                           PRECINCT 401                                           01 
01030110008000000REP       President                                               UNDER VOTES                           PRECINCT 402                                           01 
01040010001000000REP       United States Senator                                   Glenn Addison                         PRECINCT 101                                           01 
01040010002000000REP       United States Senator                                   Glenn Addison                         PRECINCT 201                                           01 
01040010003000000REP       United States Senator                                   Glenn Addison                         PRECINCT 202                                           01 
01040010004000000REP       United States Senator                                   Glenn Addison                         PRECINCT 301                                           01 
01040010005000000REP       United States Senator                                   Glenn Addison                         PRECINCT 302                                           01 
01040010006000000REP       United States Senator                                   Glenn Addison                         PRECINCT 303                                           01 
01040010007000000REP       United States Senator                                   Glenn Addison                         PRECINCT 401                                           01 
01040010008000000REP       United States Senator                                   Glenn Addison                         PRECINCT 402                                           01 
01040020001000000REP       United States Senator                                   Joe Agris                             PRECINCT 101                                           01 
01040020002000000REP       United States Senator                                   Joe Agris                             PRECINCT 201                                           01 
01040020003000000REP       United States Senator                                   Joe Agris                             PRECINCT 202                                           01 
01040020004000000REP       United States Senator                                   Joe Agris                             PRECINCT 301                                           01 
01040020005000000REP       United States Senator                                   Joe Agris                             PRECINCT 302                                           01 
01040020006000000REP       United States Senator                                   Joe Agris                             PRECINCT 303                                           01 
01040020007000000REP       United States Senator                                   Joe Agris                             PRECINCT 401                                           01 
01040020008000000REP       United States Senator                                   Joe Agris                             PRECINCT 402                                           01 
01040030001000000REP       United States Senator                                   Curt Cleaver                          PRECINCT 101                                           01 
01040030002000000REP       United States Senator                                   Curt Cleaver                          PRECINCT 201                                           01 
01040030003000000REP       United States Senator                                   Curt Cleaver                          PRECINCT 202                                           01 
01040030004000000REP       United States Senator                                   Curt Cleaver                          PRECINCT 301                                           01 
01040030005000000REP       United States Senator                                   Curt Cleaver                          PRECINCT 302                                           01 
01040030006000000REP       United States Senator                                   Curt Cleaver                          PRECINCT 303                                           01 
01040030007000000REP       United States Senator                                   Curt Cleaver                          PRECINCT 401                                           01 
01040030008000000REP       United States Senator                                   Curt Cleaver                          PRECINCT 402                                           01 
01040040001000000REP       United States Senator                                   Ted Cruz                              PRECINCT 101                                           01 
01040040002000000REP       United States Senator                                   Ted Cruz                              PRECINCT 201                                           01 
01040040003000000REP       United States Senator                                   Ted Cruz                              PRECINCT 202                                           01 
01040040004000000REP       United States Senator                                   Ted Cruz                              PRECINCT 301                                           01 
01040040005000000REP       United States Senator                                   Ted Cruz                              PRECINCT 302                                           01 
01040040006000000REP       United States Senator                                   Ted Cruz                              PRECINCT 303                                           01 
01040040007000000REP       United States Senator                                   Ted Cruz                              PRECINCT 401                                           01 
01040040008000000REP       United States Senator                                   Ted Cruz                              PRECINCT 402                                           01 
01040050001000000REP       United States Senator                                   David Dewhurst                        PRECINCT 101                                           01 
01040050002000000REP       United States Senator                                   David Dewhurst                        PRECINCT 201                                           01 
01040050003000000REP       United States Senator                                   David Dewhurst                        PRECINCT 202                                           01 
01040050004000000REP       United States Senator                                   David Dewhurst                        PRECINCT 301                                           01 
01040050005000000REP       United States Senator                                   David Dewhurst                        PRECINCT 302                                           01 
01040050006000000REP       United States Senator                                   David Dewhurst                        PRECINCT 303                                           01 
01040050007000000REP       United States Senator                                   David Dewhurst                        PRECINCT 401                                           01 
01040050008000000REP       United States Senator                                   David Dewhurst                        PRECINCT 402                                           01 
01040060001000000REP       United States Senator                                   Ben Gambini                           PRECINCT 101                                           01 
01040060002000000REP       United States Senator                                   Ben Gambini                           PRECINCT 201                                           01 
01040060003000000REP       United States Senator                                   Ben Gambini                           PRECINCT 202                                           01 
01040060004000000REP       United States Senator                                   Ben Gambini                           PRECINCT 301                                           01 
01040060005000000REP       United States Senator                                   Ben Gambini                           PRECINCT 302                                           01 
01040060006000000REP       United States Senator                                   Ben Gambini                           PRECINCT 303                                           01 
01040060007000000REP       United States Senator                                   Ben Gambini                           PRECINCT 401                                           01 
01040060008000000REP       United States Senator                                   Ben Gambini                           PRECINCT 402                                           01 
01040070001000000REP       United States Senator                                   Craig James                           PRECINCT 101                                           01 
01040070002000000REP       United States Senator                                   Craig James                           PRECINCT 201                                           01 
01040070003000000REP       United States Senator                                   Craig James                           PRECINCT 202                                           01 
01040070004000000REP       United States Senator                                   Craig James                           PRECINCT 301                                           01 
01040070005000000REP       United States Senator                                   Craig James                           PRECINCT 302                                           01 
01040070006000000REP       United States Senator                                   Craig James                           PRECINCT 303                                           01 
01040070007000000REP       United States Senator                                   Craig James                           PRECINCT 401                                           01 
01040070008000000REP       United States Senator                                   Craig James                           PRECINCT 402                                           01 
01040080001000000REP       United States Senator                                   Tom Leppert                           PRECINCT 101                                           01 
01040080002000000REP       United States Senator                                   Tom Leppert                           PRECINCT 201                                           01 
01040080003000000REP       United States Senator                                   Tom Leppert                           PRECINCT 202                                           01 
01040080004000000REP       United States Senator                                   Tom Leppert                           PRECINCT 301                                           01 
01040080005000000REP       United States Senator                                   Tom Leppert                           PRECINCT 302                                           01 
01040080006000000REP       United States Senator                                   Tom Leppert                           PRECINCT 303                                           01 
01040080007000000REP       United States Senator                                   Tom Leppert                           PRECINCT 401                                           01 
01040080008000000REP       United States Senator                                   Tom Leppert                           PRECINCT 402                                           01 
01040090001000000REP       United States Senator                                   Lela Pittenger                        PRECINCT 101                                           01 
01040090002000000REP       United States Senator                                   Lela Pittenger                        PRECINCT 201                                           01 
01040090003000000REP       United States Senator                                   Lela Pittenger                        PRECINCT 202                                           01 
01040090004000000REP       United States Senator                                   Lela Pittenger                        PRECINCT 301                                           01 
01040090005000000REP       United States Senator                                   Lela Pittenger                        PRECINCT 302                                           01 
01040090006000000REP       United States Senator                                   Lela Pittenger                        PRECINCT 303                                           01 
01040090007000000REP       United States Senator                                   Lela Pittenger                        PRECINCT 401                                           01 
01040090008000000REP       United States Senator                                   Lela Pittenger                        PRECINCT 402                                           01 
01040100001000000REP       United States Senator                                   OVER VOTES                            PRECINCT 101                                           01 
01040100002000000REP       United States Senator                                   OVER VOTES                            PRECINCT 201                                           01 
01040100003000000REP       United States Senator                                   OVER VOTES                            PRECINCT 202                                           01 
01040100004000000REP       United States Senator                                   OVER VOTES                            PRECINCT 301                                           01 
01040100005000000REP       United States Senator                                   OVER VOTES                            PRECINCT 302                                           01 
01040100006000000REP       United States Senator                                   OVER VOTES                            PRECINCT 303                                           01 
01040100007000000REP       United States Senator                                   OVER VOTES                            PRECINCT 401                                           01 
01040100008000000REP       United States Senator                                   OVER VOTES                            PRECINCT 402                                           01 
01040110001000000REP       United States Senator                                   UNDER VOTES                           PRECINCT 101                                           01 
01040110002000000REP       United States Senator                                   UNDER VOTES                           PRECINCT 201                                           01 
01040110003000000REP       United States Senator                                   UNDER VOTES                           PRECINCT 202                                           01 
01040110004000000REP       United States Senator                                   UNDER VOTES                           PRECINCT 301                                           01 
01040110005000000REP       United States Senator                                   UNDER VOTES                           PRECINCT 302                                           01 
01040110006000000REP       United States Senator                                   UNDER VOTES                           PRECINCT 303                                           01 
01040110007000000REP       United States Senator                                   UNDER VOTES                           PRECINCT 401                                           01 
01040110008000000REP       United States Senator                                   UNDER VOTES                           PRECINCT 402                                           01 
01050010001000000REP       US Representative, District 13                          Pamela Lee Barlow                     PRECINCT 101                                           01 
01050010002000000REP       US Representative, District 13                          Pamela Lee Barlow                     PRECINCT 201                                           01 
01050010003000000REP       US Representative, District 13                          Pamela Lee Barlow                     PRECINCT 202                                           01 
01050010004000000REP       US Representative, District 13                          Pamela Lee Barlow                     PRECINCT 301                                           01 
01050010005000000REP       US Representative, District 13                          Pamela Lee Barlow                     PRECINCT 302                                           01 
01050010006000000REP       US Representative, District 13                          Pamela Lee Barlow                     PRECINCT 303                                           01 
01050010007000000REP       US Representative, District 13                          Pamela Lee Barlow                     PRECINCT 401                                           01 
01050010008000000REP       US Representative, District 13                          Pamela Lee Barlow                     PRECINCT 402                                           01 
01050020001000000REP       US Representative, District 13                          Mac Thornberry                        PRECINCT 101                                           01 
01050020002000000REP       US Representative, District 13                          Mac Thornberry                        PRECINCT 201                                           01 
01050020003000000REP       US Representative, District 13                          Mac Thornberry                        PRECINCT 202                                           01 
01050020004000000REP       US Representative, District 13                          Mac Thornberry                        PRECINCT 301                                           01 
01050020005000000REP       US Representative, District 13                          Mac Thornberry                        PRECINCT 302                                           01 
01050020006000000REP       US Representative, District 13                          Mac Thornberry                        PRECINCT 303                                           01 
01050020007000000REP       US Representative, District 13                          Mac Thornberry                        PRECINCT 401                                           01 
01050020008000000REP       US Representative, District 13                          Mac Thornberry                        PRECINCT 402                                           01 
01050030001000000REP       US Representative, District 13                          OVER VOTES                            PRECINCT 101                                           01 
01050030002000000REP       US Representative, District 13                          OVER VOTES                            PRECINCT 201                                           01 
01050030003000000REP       US Representative, District 13                          OVER VOTES                            PRECINCT 202                                           01 
01050030004000000REP       US Representative, District 13                          OVER VOTES                            PRECINCT 301                                           01 
01050030005000000REP       US Representative, District 13                          OVER VOTES                            PRECINCT 302                                           01 
01050030006000000REP       US Representative, District 13                          OVER VOTES                            PRECINCT 303                                           01 
01050030007000000REP       US Representative, District 13                          OVER VOTES                            PRECINCT 401                                           01 
01050030008000000REP       US Representative, District 13                          OVER VOTES                            PRECINCT 402                                           01 
01050040001000000REP       US Representative, District 13                          UNDER VOTES                           PRECINCT 101                                           01 
01050040002000000REP       US Representative, District 13                          UNDER VOTES                           PRECINCT 201                                           01 
01050040003000000REP       US Representative, District 13                          UNDER VOTES                           PRECINCT 202                                           01 
01050040004000000REP       US Representative, District 13                          UNDER VOTES                           PRECINCT 301                                           01 
01050040005000000REP       US Representative, District 13                          UNDER VOTES                           PRECINCT 302                                           01 
01050040006000000REP       US Representative, District 13                          UNDER VOTES                           PRECINCT 303                                           01 
01050040007000000REP       US Representative, District 13                          UNDER VOTES                           PRECINCT 401                                           01 
01050040008000000REP       US Representative, District 13                          UNDER VOTES                           PRECINCT 402                                           01 
01060010001000000REP       Railroad Commissioner                                   Becky Berger                          PRECINCT 101                                           01 
01060010002000000REP       Railroad Commissioner                                   Becky Berger                          PRECINCT 201                                           01 
01060010003000000REP       Railroad Commissioner                                   Becky Berger                          PRECINCT 202                                           01 
01060010004000000REP       Railroad Commissioner                                   Becky Berger                          PRECINCT 301                                           01 
01060010005000000REP       Railroad Commissioner                                   Becky Berger                          PRECINCT 302                                           01 
01060010006000000REP       Railroad Commissioner                                   Becky Berger                          PRECINCT 303                                           01 
01060010007000000REP       Railroad Commissioner                                   Becky Berger                          PRECINCT 401                                           01 
01060010008000000REP       Railroad Commissioner                                   Becky Berger                          PRECINCT 402                                           01 
01060020001000000REP       Railroad Commissioner                                   Beryl Burgess                         PRECINCT 101                                           01 
01060020002000000REP       Railroad Commissioner                                   Beryl Burgess                         PRECINCT 201                                           01 
01060020003000000REP       Railroad Commissioner                                   Beryl Burgess                         PRECINCT 202                                           01 
01060020004000000REP       Railroad Commissioner                                   Beryl Burgess                         PRECINCT 301                                           01 
01060020005000000REP       Railroad Commissioner                                   Beryl Burgess                         PRECINCT 302                                           01 
01060020006000000REP       Railroad Commissioner                                   Beryl Burgess                         PRECINCT 303                                           01 
01060020007000000REP       Railroad Commissioner                                   Beryl Burgess                         PRECINCT 401                                           01 
01060020008000000REP       Railroad Commissioner                                   Beryl Burgess                         PRECINCT 402                                           01 
01060030001000000REP       Railroad Commissioner                                   Warren Chisum                         PRECINCT 101                                           01 
01060030002000000REP       Railroad Commissioner                                   Warren Chisum                         PRECINCT 201                                           01 
01060030003000000REP       Railroad Commissioner                                   Warren Chisum                         PRECINCT 202                                           01 
01060030004000000REP       Railroad Commissioner                                   Warren Chisum                         PRECINCT 301                                           01 
01060030005000000REP       Railroad Commissioner                                   Warren Chisum                         PRECINCT 302                                           01 
01060030006000000REP       Railroad Commissioner                                   Warren Chisum                         PRECINCT 303                                           01 
01060030007000000REP       Railroad Commissioner                                   Warren Chisum                         PRECINCT 401                                           01 
01060030008000000REP       Railroad Commissioner                                   Warren Chisum                         PRECINCT 402                                           01 
01060040001000000REP       Railroad Commissioner                                   Joe Cotten                            PRECINCT 101                                           01 
01060040002000000REP       Railroad Commissioner                                   Joe Cotten                            PRECINCT 201                                           01 
01060040003000000REP       Railroad Commissioner                                   Joe Cotten                            PRECINCT 202                                           01 
01060040004000000REP       Railroad Commissioner                                   Joe Cotten                            PRECINCT 301                                           01 
01060040005000000REP       Railroad Commissioner                                   Joe Cotten                            PRECINCT 302                                           01 
01060040006000000REP       Railroad Commissioner                                   Joe Cotten                            PRECINCT 303                                           01 
01060040007000000REP       Railroad Commissioner                                   Joe Cotten                            PRECINCT 401                                           01 
01060040008000000REP       Railroad Commissioner                                   Joe Cotten                            PRECINCT 402                                           01 
01060050001000000REP       Railroad Commissioner                                   Christi Craddick                      PRECINCT 101                                           01 
01060050002000000REP       Railroad Commissioner                                   Christi Craddick                      PRECINCT 201                                           01 
01060050003000000REP       Railroad Commissioner                                   Christi Craddick                      PRECINCT 202                                           01 
01060050004000000REP       Railroad Commissioner                                   Christi Craddick                      PRECINCT 301                                           01 
01060050005000000REP       Railroad Commissioner                                   Christi Craddick                      PRECINCT 302                                           01 
01060050006000000REP       Railroad Commissioner                                   Christi Craddick                      PRECINCT 303                                           01 
01060050007000000REP       Railroad Commissioner                                   Christi Craddick                      PRECINCT 401                                           01 
01060050008000000REP       Railroad Commissioner                                   Christi Craddick                      PRECINCT 402                                           01 
01060060001000000REP       Railroad Commissioner                                   Roland Sledge                         PRECINCT 101                                           01 
01060060002000000REP       Railroad Commissioner                                   Roland Sledge                         PRECINCT 201                                           01 
01060060003000000REP       Railroad Commissioner                                   Roland Sledge                         PRECINCT 202                                           01 
01060060004000000REP       Railroad Commissioner                                   Roland Sledge                         PRECINCT 301                                           01 
01060060005000000REP       Railroad Commissioner                                   Roland Sledge                         PRECINCT 302                                           01 
01060060006000000REP       Railroad Commissioner                                   Roland Sledge                         PRECINCT 303                                           01 
01060060007000000REP       Railroad Commissioner                                   Roland Sledge                         PRECINCT 401                                           01 
01060060008000000REP       Railroad Commissioner                                   Roland Sledge                         PRECINCT 402                                           01 
01060070001000000REP       Railroad Commissioner                                   OVER VOTES                            PRECINCT 101                                           01 
01060070002000000REP       Railroad Commissioner                                   OVER VOTES                            PRECINCT 201                                           01 
01060070003000000REP       Railroad Commissioner                                   OVER VOTES                            PRECINCT 202                                           01 
01060070004000000REP       Railroad Commissioner                                   OVER VOTES                            PRECINCT 301                                           01 
01060070005000000REP       Railroad Commissioner                                   OVER VOTES                            PRECINCT 302                                           01 
01060070006000000REP       Railroad Commissioner                                   OVER VOTES                            PRECINCT 303                                           01 
01060070007000000REP       Railroad Commissioner                                   OVER VOTES                            PRECINCT 401                                           01 
01060070008000000REP       Railroad Commissioner                                   OVER VOTES                            PRECINCT 402                                           01 
01060080001000000REP       Railroad Commissioner                                   UNDER VOTES                           PRECINCT 101                                           01 
01060080002000000REP       Railroad Commissioner                                   UNDER VOTES                           PRECINCT 201                                           01 
01060080003000000REP       Railroad Commissioner                                   UNDER VOTES                           PRECINCT 202                                           01 
01060080004000000REP       Railroad Commissioner                                   UNDER VOTES                           PRECINCT 301                                           01 
01060080005000000REP       Railroad Commissioner                                   UNDER VOTES                           PRECINCT 302                                           01 
01060080006000000REP       Railroad Commissioner                                   UNDER VOTES                           PRECINCT 303                                           01 
01060080007000000REP       Railroad Commissioner                                   UNDER VOTES                           PRECINCT 401                                           01 
01060080008000000REP       Railroad Commissioner                                   UNDER VOTES                           PRECINCT 402                                           01 
01070010001000000REP       Railroad Commissioner, Unexpired Term                   Al Lee                                PRECINCT 101                                           01 
01070010002000000REP       Railroad Commissioner, Unexpired Term                   Al Lee                                PRECINCT 201                                           01 
01070010003000000REP       Railroad Commissioner, Unexpired Term                   Al Lee                                PRECINCT 202                                           01 
01070010004000000REP       Railroad Commissioner, Unexpired Term                   Al Lee                                PRECINCT 301                                           01 
01070010005000000REP       Railroad Commissioner, Unexpired Term                   Al Lee                                PRECINCT 302                                           01 
01070010006000000REP       Railroad Commissioner, Unexpired Term                   Al Lee                                PRECINCT 303                                           01 
01070010007000000REP       Railroad Commissioner, Unexpired Term                   Al Lee                                PRECINCT 401                                           01 
01070010008000000REP       Railroad Commissioner, Unexpired Term                   Al Lee                                PRECINCT 402                                           01 
01070020001000000REP       Railroad Commissioner, Unexpired Term                   Elizabeth Murray-Kolb                 PRECINCT 101                                           01 
01070020002000000REP       Railroad Commissioner, Unexpired Term                   Elizabeth Murray-Kolb                 PRECINCT 201                                           01 
01070020003000000REP       Railroad Commissioner, Unexpired Term                   Elizabeth Murray-Kolb                 PRECINCT 202                                           01 
01070020004000000REP       Railroad Commissioner, Unexpired Term                   Elizabeth Murray-Kolb                 PRECINCT 301                                           01 
01070020005000000REP       Railroad Commissioner, Unexpired Term                   Elizabeth Murray-Kolb                 PRECINCT 302                                           01 
01070020006000000REP       Railroad Commissioner, Unexpired Term                   Elizabeth Murray-Kolb                 PRECINCT 303                                           01 
01070020007000000REP       Railroad Commissioner, Unexpired Term                   Elizabeth Murray-Kolb                 PRECINCT 401                                           01 
01070020008000000REP       Railroad Commissioner, Unexpired Term                   Elizabeth Murray-Kolb                 PRECINCT 402                                           01 
01070030001000000REP       Railroad Commissioner, Unexpired Term                   Greg Parker                           PRECINCT 101                                           01 
01070030002000000REP       Railroad Commissioner, Unexpired Term                   Greg Parker                           PRECINCT 201                                           01 
01070030003000000REP       Railroad Commissioner, Unexpired Term                   Greg Parker                           PRECINCT 202                                           01 
01070030004000000REP       Railroad Commissioner, Unexpired Term                   Greg Parker                           PRECINCT 301                                           01 
01070030005000000REP       Railroad Commissioner, Unexpired Term                   Greg Parker                           PRECINCT 302                                           01 
01070030006000000REP       Railroad Commissioner, Unexpired Term                   Greg Parker                           PRECINCT 303                                           01 
01070030007000000REP       Railroad Commissioner, Unexpired Term                   Greg Parker                           PRECINCT 401                                           01 
01070030008000000REP       Railroad Commissioner, Unexpired Term                   Greg Parker                           PRECINCT 402                                           01 
01070040001000000REP       Railroad Commissioner, Unexpired Term                   Barry Smitherman                      PRECINCT 101                                           01 
01070040002000000REP       Railroad Commissioner, Unexpired Term                   Barry Smitherman                      PRECINCT 201                                           01 
01070040003000000REP       Railroad Commissioner, Unexpired Term                   Barry Smitherman                      PRECINCT 202                                           01 
01070040004000000REP       Railroad Commissioner, Unexpired Term                   Barry Smitherman                      PRECINCT 301                                           01 
01070040005000000REP       Railroad Commissioner, Unexpired Term                   Barry Smitherman                      PRECINCT 302                                           01 
01070040006000000REP       Railroad Commissioner, Unexpired Term                   Barry Smitherman                      PRECINCT 303                                           01 
01070040007000000REP       Railroad Commissioner, Unexpired Term                   Barry Smitherman                      PRECINCT 401                                           01 
01070040008000000REP       Railroad Commissioner, Unexpired Term                   Barry Smitherman                      PRECINCT 402                                           01 
01070050001000000REP       Railroad Commissioner, Unexpired Term                   OVER VOTES                            PRECINCT 101                                           01 
01070050002000000REP       Railroad Commissioner, Unexpired Term                   OVER VOTES                            PRECINCT 201                                           01 
01070050003000000REP       Railroad Commissioner, Unexpired Term                   OVER VOTES                            PRECINCT 202                                           01 
01070050004000000REP       Railroad Commissioner, Unexpired Term                   OVER VOTES                            PRECINCT 301                                           01 
01070050005000000REP       Railroad Commissioner, Unexpired Term                   OVER VOTES                            PRECINCT 302                                           01 
01070050006000000REP       Railroad Commissioner, Unexpired Term                   OVER VOTES                            PRECINCT 303                                           01 
01070050007000000REP       Railroad Commissioner, Unexpired Term                   OVER VOTES                            PRECINCT 401                                           01 
01070050008000000REP       Railroad Commissioner, Unexpired Term                   OVER VOTES                            PRECINCT 402                                           01 
01070060001000000REP       Railroad Commissioner, Unexpired Term                   UNDER VOTES                           PRECINCT 101                                           01 
01070060002000000REP       Railroad Commissioner, Unexpired Term                   UNDER VOTES                           PRECINCT 201                                           01 
01070060003000000REP       Railroad Commissioner, Unexpired Term                   UNDER VOTES                           PRECINCT 202                                           01 
01070060004000000REP       Railroad Commissioner, Unexpired Term                   UNDER VOTES                           PRECINCT 301                                           01 
01070060005000000REP       Railroad Commissioner, Unexpired Term                   UNDER VOTES                           PRECINCT 302                                           01 
01070060006000000REP       Railroad Commissioner, Unexpired Term                   UNDER VOTES                           PRECINCT 303                                           01 
01070060007000000REP       Railroad Commissioner, Unexpired Term                   UNDER VOTES                           PRECINCT 401                                           01 
01070060008000000REP       Railroad Commissioner, Unexpired Term                   UNDER VOTES                           PRECINCT 402                                           01 
01080010001000000REP       Justice, Supreme Court, Place 2                         Steve Smith                           PRECINCT 101                                           01 
01080010002000000REP       Justice, Supreme Court, Place 2                         Steve Smith                           PRECINCT 201                                           01 
01080010003000000REP       Justice, Supreme Court, Place 2                         Steve Smith                           PRECINCT 202                                           01 
01080010004000000REP       Justice, Supreme Court, Place 2                         Steve Smith                           PRECINCT 301                                           01 
01080010005000000REP       Justice, Supreme Court, Place 2                         Steve Smith                           PRECINCT 302                                           01 
01080010006000000REP       Justice, Supreme Court, Place 2                         Steve Smith                           PRECINCT 303                                           01 
01080010007000000REP       Justice, Supreme Court, Place 2                         Steve Smith                           PRECINCT 401                                           01 
01080010008000000REP       Justice, Supreme Court, Place 2                         Steve Smith                           PRECINCT 402                                           01 
01080020001000000REP       Justice, Supreme Court, Place 2                         Don Willett                           PRECINCT 101                                           01 
01080020002000000REP       Justice, Supreme Court, Place 2                         Don Willett                           PRECINCT 201                                           01 
01080020003000000REP       Justice, Supreme Court, Place 2                         Don Willett                           PRECINCT 202                                           01 
01080020004000000REP       Justice, Supreme Court, Place 2                         Don Willett                           PRECINCT 301                                           01 
01080020005000000REP       Justice, Supreme Court, Place 2                         Don Willett                           PRECINCT 302                                           01 
01080020006000000REP       Justice, Supreme Court, Place 2                         Don Willett                           PRECINCT 303                                           01 
01080020007000000REP       Justice, Supreme Court, Place 2                         Don Willett                           PRECINCT 401                                           01 
01080020008000000REP       Justice, Supreme Court, Place 2                         Don Willett                           PRECINCT 402                                           01 
01080030001000000REP       Justice, Supreme Court, Place 2                         OVER VOTES                            PRECINCT 101                                           01 
01080030002000000REP       Justice, Supreme Court, Place 2                         OVER VOTES                            PRECINCT 201                                           01 
01080030003000000REP       Justice, Supreme Court, Place 2                         OVER VOTES                            PRECINCT 202                                           01 
01080030004000000REP       Justice, Supreme Court, Place 2                         OVER VOTES                            PRECINCT 301                                           01 
01080030005000000REP       Justice, Supreme Court, Place 2                         OVER VOTES                            PRECINCT 302                                           01 
01080030006000000REP       Justice, Supreme Court, Place 2                         OVER VOTES                            PRECINCT 303                                           01 
01080030007000000REP       Justice, Supreme Court, Place 2                         OVER VOTES                            PRECINCT 401                                           01 
01080030008000000REP       Justice, Supreme Court, Place 2                         OVER VOTES                            PRECINCT 402                                           01 
01080040001000000REP       Justice, Supreme Court, Place 2                         UNDER VOTES                           PRECINCT 101                                           01 
01080040002000000REP       Justice, Supreme Court, Place 2                         UNDER VOTES                           PRECINCT 201                                           01 
01080040003000000REP       Justice, Supreme Court, Place 2                         UNDER VOTES                           PRECINCT 202                                           01 
01080040004000000REP       Justice, Supreme Court, Place 2                         UNDER VOTES                           PRECINCT 301                                           01 
01080040005000000REP       Justice, Supreme Court, Place 2                         UNDER VOTES                           PRECINCT 302                                           01 
01080040006000000REP       Justice, Supreme Court, Place 2                         UNDER VOTES                           PRECINCT 303                                           01 
01080040007000000REP       Justice, Supreme Court, Place 2                         UNDER VOTES                           PRECINCT 401                                           01 
01080040008000000REP       Justice, Supreme Court, Place 2                         UNDER VOTES                           PRECINCT 402                                           01 
01090010001000000REP       Justice, Supreme Court, Place 4                         John Devine                           PRECINCT 101                                           01 
01090010002000000REP       Justice, Supreme Court, Place 4                         John Devine                           PRECINCT 201                                           01 
01090010003000000REP       Justice, Supreme Court, Place 4                         John Devine                           PRECINCT 202                                           01 
01090010004000000REP       Justice, Supreme Court, Place 4                         John Devine                           PRECINCT 301                                           01 
01090010005000000REP       Justice, Supreme Court, Place 4                         John Devine                           PRECINCT 302                                           01 
01090010006000000REP       Justice, Supreme Court, Place 4                         John Devine                           PRECINCT 303                                           01 
01090010007000000REP       Justice, Supreme Court, Place 4                         John Devine                           PRECINCT 401                                           01 
01090010008000000REP       Justice, Supreme Court, Place 4                         John Devine                           PRECINCT 402                                           01 
01090020001000000REP       Justice, Supreme Court, Place 4                         David Medina                          PRECINCT 101                                           01 
01090020002000000REP       Justice, Supreme Court, Place 4                         David Medina                          PRECINCT 201                                           01 
01090020003000000REP       Justice, Supreme Court, Place 4                         David Medina                          PRECINCT 202                                           01 
01090020004000000REP       Justice, Supreme Court, Place 4                         David Medina                          PRECINCT 301                                           01 
01090020005000000REP       Justice, Supreme Court, Place 4                         David Medina                          PRECINCT 302                                           01 
01090020006000000REP       Justice, Supreme Court, Place 4                         David Medina                          PRECINCT 303                                           01 
01090020007000000REP       Justice, Supreme Court, Place 4                         David Medina                          PRECINCT 401                                           01 
01090020008000000REP       Justice, Supreme Court, Place 4                         David Medina                          PRECINCT 402                                           01 
01090030001000000REP       Justice, Supreme Court, Place 4                         Joe Pool, Jr.                         PRECINCT 101                                           01 
01090030002000000REP       Justice, Supreme Court, Place 4                         Joe Pool, Jr.                         PRECINCT 201                                           01 
01090030003000000REP       Justice, Supreme Court, Place 4                         Joe Pool, Jr.                         PRECINCT 202                                           01 
01090030004000000REP       Justice, Supreme Court, Place 4                         Joe Pool, Jr.                         PRECINCT 301                                           01 
01090030005000000REP       Justice, Supreme Court, Place 4                         Joe Pool, Jr.                         PRECINCT 302                                           01 
01090030006000000REP       Justice, Supreme Court, Place 4                         Joe Pool, Jr.                         PRECINCT 303                                           01 
01090030007000000REP       Justice, Supreme Court, Place 4                         Joe Pool, Jr.                         PRECINCT 401                                           01 
01090030008000000REP       Justice, Supreme Court, Place 4                         Joe Pool, Jr.                         PRECINCT 402                                           01 
01090040001000000REP       Justice, Supreme Court, Place 4                         OVER VOTES                            PRECINCT 101                                           01 
01090040002000000REP       Justice, Supreme Court, Place 4                         OVER VOTES                            PRECINCT 201                                           01 
01090040003000000REP       Justice, Supreme Court, Place 4                         OVER VOTES                            PRECINCT 202                                           01 
01090040004000000REP       Justice, Supreme Court, Place 4                         OVER VOTES                            PRECINCT 301                                           01 
01090040005000000REP       Justice, Supreme Court, Place 4                         OVER VOTES                            PRECINCT 302                                           01 
01090040006000000REP       Justice, Supreme Court, Place 4                         OVER VOTES                            PRECINCT 303                                           01 
01090040007000000REP       Justice, Supreme Court, Place 4                         OVER VOTES                            PRECINCT 401                                           01 
01090040008000000REP       Justice, Supreme Court, Place 4                         OVER VOTES                            PRECINCT 402                                           01 
01090050001000000REP       Justice, Supreme Court, Place 4                         UNDER VOTES                           PRECINCT 101                                           01 
01090050002000000REP       Justice, Supreme Court, Place 4                         UNDER VOTES                           PRECINCT 201                                           01 
01090050003000000REP       Justice, Supreme Court, Place 4                         UNDER VOTES                           PRECINCT 202                                           01 
01090050004000000REP       Justice, Supreme Court, Place 4                         UNDER VOTES                           PRECINCT 301                                           01 
01090050005000000REP       Justice, Supreme Court, Place 4                         UNDER VOTES                           PRECINCT 302                                           01 
01090050006000000REP       Justice, Supreme Court, Place 4                         UNDER VOTES                           PRECINCT 303                                           01 
01090050007000000REP       Justice, Supreme Court, Place 4                         UNDER VOTES                           PRECINCT 401                                           01 
01090050008000000REP       Justice, Supreme Court, Place 4                         UNDER VOTES                           PRECINCT 402                                           01 
01100010001000000REP       Justice, Supreme Court, Place 6                         Nathan Hecht                          PRECINCT 101                                           01 
01100010002000000REP       Justice, Supreme Court, Place 6                         Nathan Hecht                          PRECINCT 201                                           01 
01100010003000000REP       Justice, Supreme Court, Place 6                         Nathan Hecht                          PRECINCT 202                                           01 
01100010004000000REP       Justice, Supreme Court, Place 6                         Nathan Hecht                          PRECINCT 301                                           01 
01100010005000000REP       Justice, Supreme Court, Place 6                         Nathan Hecht                          PRECINCT 302                                           01 
01100010006000000REP       Justice, Supreme Court, Place 6                         Nathan Hecht                          PRECINCT 303                                           01 
01100010007000000REP       Justice, Supreme Court, Place 6                         Nathan Hecht                          PRECINCT 401                                           01 
01100010008000000REP       Justice, Supreme Court, Place 6                         Nathan Hecht                          PRECINCT 402                                           01 
01100020001000000REP       Justice, Supreme Court, Place 6                         OVER VOTES                            PRECINCT 101                                           01 
01100020002000000REP       Justice, Supreme Court, Place 6                         OVER VOTES                            PRECINCT 201                                           01 
01100020003000000REP       Justice, Supreme Court, Place 6                         OVER VOTES                            PRECINCT 202                                           01 
01100020004000000REP       Justice, Supreme Court, Place 6                         OVER VOTES                            PRECINCT 301                                           01 
01100020005000000REP       Justice, Supreme Court, Place 6                         OVER VOTES                            PRECINCT 302                                           01 
01100020006000000REP       Justice, Supreme Court, Place 6                         OVER VOTES                            PRECINCT 303                                           01 
01100020007000000REP       Justice, Supreme Court, Place 6                         OVER VOTES                            PRECINCT 401                                           01 
01100020008000000REP       Justice, Supreme Court, Place 6                         OVER VOTES                            PRECINCT 402                                           01 
01100030001000000REP       Justice, Supreme Court, Place 6                         UNDER VOTES                           PRECINCT 101                                           01 
01100030002000000REP       Justice, Supreme Court, Place 6                         UNDER VOTES                           PRECINCT 201                                           01 
01100030003000000REP       Justice, Supreme Court, Place 6                         UNDER VOTES                           PRECINCT 202                                           01 
01100030004000000REP       Justice, Supreme Court, Place 6                         UNDER VOTES                           PRECINCT 301                                           01 
01100030005000000REP       Justice, Supreme Court, Place 6                         UNDER VOTES                           PRECINCT 302                                           01 
01100030006000000REP       Justice, Supreme Court, Place 6                         UNDER VOTES                           PRECINCT 303                                           01 
01100030007000000REP       Justice, Supreme Court, Place 6                         UNDER VOTES                           PRECINCT 401                                           01 
01100030008000000REP       Justice, Supreme Court, Place 6                         UNDER VOTES                           PRECINCT 402                                           01 
01110010001000000REP       Presiding Judge, CT of Criminal Appeals                 Sharon  Keller                        PRECINCT 101                                           01 
01110010002000000REP       Presiding Judge, CT of Criminal Appeals                 Sharon  Keller                        PRECINCT 201                                           01 
01110010003000000REP       Presiding Judge, CT of Criminal Appeals                 Sharon  Keller                        PRECINCT 202                                           01 
01110010004000000REP       Presiding Judge, CT of Criminal Appeals                 Sharon  Keller                        PRECINCT 301                                           01 
01110010005000000REP       Presiding Judge, CT of Criminal Appeals                 Sharon  Keller                        PRECINCT 302                                           01 
01110010006000000REP       Presiding Judge, CT of Criminal Appeals                 Sharon  Keller                        PRECINCT 303                                           01 
01110010007000000REP       Presiding Judge, CT of Criminal Appeals                 Sharon  Keller                        PRECINCT 401                                           01 
01110010008000000REP       Presiding Judge, CT of Criminal Appeals                 Sharon  Keller                        PRECINCT 402                                           01 
01110020001000000REP       Presiding Judge, CT of Criminal Appeals                 OVER VOTES                            PRECINCT 101                                           01 
01110020002000000REP       Presiding Judge, CT of Criminal Appeals                 OVER VOTES                            PRECINCT 201                                           01 
01110020003000000REP       Presiding Judge, CT of Criminal Appeals                 OVER VOTES                            PRECINCT 202                                           01 
01110020004000000REP       Presiding Judge, CT of Criminal Appeals                 OVER VOTES                            PRECINCT 301                                           01 
01110020005000000REP       Presiding Judge, CT of Criminal Appeals                 OVER VOTES                            PRECINCT 302                                           01 
01110020006000000REP       Presiding Judge, CT of Criminal Appeals                 OVER VOTES                            PRECINCT 303                                           01 
01110020007000000REP       Presiding Judge, CT of Criminal Appeals                 OVER VOTES                            PRECINCT 401                                           01 
01110020008000000REP       Presiding Judge, CT of Criminal Appeals                 OVER VOTES                            PRECINCT 402                                           01 
01110030001000000REP       Presiding Judge, CT of Criminal Appeals                 UNDER VOTES                           PRECINCT 101                                           01 
01110030002000000REP       Presiding Judge, CT of Criminal Appeals                 UNDER VOTES                           PRECINCT 201                                           01 
01110030003000000REP       Presiding Judge, CT of Criminal Appeals                 UNDER VOTES                           PRECINCT 202                                           01 
01110030004000000REP       Presiding Judge, CT of Criminal Appeals                 UNDER VOTES                           PRECINCT 301                                           01 
01110030005000000REP       Presiding Judge, CT of Criminal Appeals                 UNDER VOTES                           PRECINCT 302                                           01 
01110030006000000REP       Presiding Judge, CT of Criminal Appeals                 UNDER VOTES                           PRECINCT 303                                           01 
01110030007000000REP       Presiding Judge, CT of Criminal Appeals                 UNDER VOTES                           PRECINCT 401                                           01 
01110030008000000REP       Presiding Judge, CT of Criminal Appeals                 UNDER VOTES                           PRECINCT 402                                           01 
01120010001000000REP       Judge, Court of Criminal Appeals, Pl 7                  Barbara Parker Hervey                 PRECINCT 101                                           01 
01120010002000000REP       Judge, Court of Criminal Appeals, Pl 7                  Barbara Parker Hervey                 PRECINCT 201                                           01 
01120010003000000REP       Judge, Court of Criminal Appeals, Pl 7                  Barbara Parker Hervey                 PRECINCT 202                                           01 
01120010004000000REP       Judge, Court of Criminal Appeals, Pl 7                  Barbara Parker Hervey                 PRECINCT 301                                           01 
01120010005000000REP       Judge, Court of Criminal Appeals, Pl 7                  Barbara Parker Hervey                 PRECINCT 302                                           01 
01120010006000000REP       Judge, Court of Criminal Appeals, Pl 7                  Barbara Parker Hervey                 PRECINCT 303                                           01 
01120010007000000REP       Judge, Court of Criminal Appeals, Pl 7                  Barbara Parker Hervey                 PRECINCT 401                                           01 
01120010008000000REP       Judge, Court of Criminal Appeals, Pl 7                  Barbara Parker Hervey                 PRECINCT 402                                           01 
01120020001000000REP       Judge, Court of Criminal Appeals, Pl 7                  OVER VOTES                            PRECINCT 101                                           01 
01120020002000000REP       Judge, Court of Criminal Appeals, Pl 7                  OVER VOTES                            PRECINCT 201                                           01 
01120020003000000REP       Judge, Court of Criminal Appeals, Pl 7                  OVER VOTES                            PRECINCT 202                                           01 
01120020004000000REP       Judge, Court of Criminal Appeals, Pl 7                  OVER VOTES                            PRECINCT 301                                           01 
01120020005000000REP       Judge, Court of Criminal Appeals, Pl 7                  OVER VOTES                            PRECINCT 302                                           01 
01120020006000000REP       Judge, Court of Criminal Appeals, Pl 7                  OVER VOTES                            PRECINCT 303                                           01 
01120020007000000REP       Judge, Court of Criminal Appeals, Pl 7                  OVER VOTES                            PRECINCT 401                                           01 
01120020008000000REP       Judge, Court of Criminal Appeals, Pl 7                  OVER VOTES                            PRECINCT 402                                           01 
01120030001000000REP       Judge, Court of Criminal Appeals, Pl 7                  UNDER VOTES                           PRECINCT 101                                           01 
01120030002000000REP       Judge, Court of Criminal Appeals, Pl 7                  UNDER VOTES                           PRECINCT 201                                           01 
01120030003000000REP       Judge, Court of Criminal Appeals, Pl 7                  UNDER VOTES                           PRECINCT 202                                           01 
01120030004000000REP       Judge, Court of Criminal Appeals, Pl 7                  UNDER VOTES                           PRECINCT 301                                           01 
01120030005000000REP       Judge, Court of Criminal Appeals, Pl 7                  UNDER VOTES                           PRECINCT 302                                           01 
01120030006000000REP       Judge, Court of Criminal Appeals, Pl 7                  UNDER VOTES                           PRECINCT 303                                           01 
01120030007000000REP       Judge, Court of Criminal Appeals, Pl 7                  UNDER VOTES                           PRECINCT 401                                           01 
01120030008000000REP       Judge, Court of Criminal Appeals, Pl 7                  UNDER VOTES                           PRECINCT 402                                           01 
01130010001000000REP       Judge, Court of Criminal Appeals, Pl 8                  Elsa Alcala                           PRECINCT 101                                           01 
01130010002000000REP       Judge, Court of Criminal Appeals, Pl 8                  Elsa Alcala                           PRECINCT 201                                           01 
01130010003000000REP       Judge, Court of Criminal Appeals, Pl 8                  Elsa Alcala                           PRECINCT 202                                           01 
01130010004000000REP       Judge, Court of Criminal Appeals, Pl 8                  Elsa Alcala                           PRECINCT 301                                           01 
01130010005000000REP       Judge, Court of Criminal Appeals, Pl 8                  Elsa Alcala                           PRECINCT 302                                           01 
01130010006000000REP       Judge, Court of Criminal Appeals, Pl 8                  Elsa Alcala                           PRECINCT 303                                           01 
01130010007000000REP       Judge, Court of Criminal Appeals, Pl 8                  Elsa Alcala                           PRECINCT 401                                           01 
01130010008000000REP       Judge, Court of Criminal Appeals, Pl 8                  Elsa Alcala                           PRECINCT 402                                           01 
01130020001000000REP       Judge, Court of Criminal Appeals, Pl 8                  OVER VOTES                            PRECINCT 101                                           01 
01130020002000000REP       Judge, Court of Criminal Appeals, Pl 8                  OVER VOTES                            PRECINCT 201                                           01 
01130020003000000REP       Judge, Court of Criminal Appeals, Pl 8                  OVER VOTES                            PRECINCT 202                                           01 
01130020004000000REP       Judge, Court of Criminal Appeals, Pl 8                  OVER VOTES                            PRECINCT 301                                           01 
01130020005000000REP       Judge, Court of Criminal Appeals, Pl 8                  OVER VOTES                            PRECINCT 302                                           01 
01130020006000000REP       Judge, Court of Criminal Appeals, Pl 8                  OVER VOTES                            PRECINCT 303                                           01 
01130020007000000REP       Judge, Court of Criminal Appeals, Pl 8                  OVER VOTES                            PRECINCT 401                                           01 
01130020008000000REP       Judge, Court of Criminal Appeals, Pl 8                  OVER VOTES                            PRECINCT 402                                           01 
01130030001000000REP       Judge, Court of Criminal Appeals, Pl 8                  UNDER VOTES                           PRECINCT 101                                           01 
01130030002000000REP       Judge, Court of Criminal Appeals, Pl 8                  UNDER VOTES                           PRECINCT 201                                           01 
01130030003000000REP       Judge, Court of Criminal Appeals, Pl 8                  UNDER VOTES                           PRECINCT 202                                           01 
01130030004000000REP       Judge, Court of Criminal Appeals, Pl 8                  UNDER VOTES                           PRECINCT 301                                           01 
01130030005000000REP       Judge, Court of Criminal Appeals, Pl 8                  UNDER VOTES                           PRECINCT 302                                           01 
01130030006000000REP       Judge, Court of Criminal Appeals, Pl 8                  UNDER VOTES                           PRECINCT 303                                           01 
01130030007000000REP       Judge, Court of Criminal Appeals, Pl 8                  UNDER VOTES                           PRECINCT 401                                           01 
01130030008000000REP       Judge, Court of Criminal Appeals, Pl 8                  UNDER VOTES                           PRECINCT 402                                           01 
01140010001000000REP       Member, State BoE, District 15                          Annette Carlisle                      PRECINCT 101                                           01 
01140010002000000REP       Member, State BoE, District 15                          Annette Carlisle                      PRECINCT 201                                           01 
01140010003000000REP       Member, State BoE, District 15                          Annette Carlisle                      PRECINCT 202                                           01 
01140010004000000REP       Member, State BoE, District 15                          Annette Carlisle                      PRECINCT 301                                           01 
01140010005000000REP       Member, State BoE, District 15                          Annette Carlisle                      PRECINCT 302                                           01 
01140010006000000REP       Member, State BoE, District 15                          Annette Carlisle                      PRECINCT 303                                           01 
01140010007000000REP       Member, State BoE, District 15                          Annette Carlisle                      PRECINCT 401                                           01 
01140010008000000REP       Member, State BoE, District 15                          Annette Carlisle                      PRECINCT 402                                           01 
01140020001000000REP       Member, State BoE, District 15                          Marty Rowley                          PRECINCT 101                                           01 
01140020002000000REP       Member, State BoE, District 15                          Marty Rowley                          PRECINCT 201                                           01 
01140020003000000REP       Member, State BoE, District 15                          Marty Rowley                          PRECINCT 202                                           01 
01140020004000000REP       Member, State BoE, District 15                          Marty Rowley                          PRECINCT 301                                           01 
01140020005000000REP       Member, State BoE, District 15                          Marty Rowley                          PRECINCT 302                                           01 
01140020006000000REP       Member, State BoE, District 15                          Marty Rowley                          PRECINCT 303                                           01 
01140020007000000REP       Member, State BoE, District 15                          Marty Rowley                          PRECINCT 401                                           01 
01140020008000000REP       Member, State BoE, District 15                          Marty Rowley                          PRECINCT 402                                           01 
01140030001000000REP       Member, State BoE, District 15                          OVER VOTES                            PRECINCT 101                                           01 
01140030002000000REP       Member, State BoE, District 15                          OVER VOTES                            PRECINCT 201                                           01 
01140030003000000REP       Member, State BoE, District 15                          OVER VOTES                            PRECINCT 202                                           01 
01140030004000000REP       Member, State BoE, District 15                          OVER VOTES                            PRECINCT 301                                           01 
01140030005000000REP       Member, State BoE, District 15                          OVER VOTES                            PRECINCT 302                                           01 
01140030006000000REP       Member, State BoE, District 15                          OVER VOTES                            PRECINCT 303                                           01 
01140030007000000REP       Member, State BoE, District 15                          OVER VOTES                            PRECINCT 401                                           01 
01140030008000000REP       Member, State BoE, District 15                          OVER VOTES                            PRECINCT 402                                           01 
01140040001000000REP       Member, State BoE, District 15                          UNDER VOTES                           PRECINCT 101                                           01 
01140040002000000REP       Member, State BoE, District 15                          UNDER VOTES                           PRECINCT 201                                           01 
01140040003000000REP       Member, State BoE, District 15                          UNDER VOTES                           PRECINCT 202                                           01 
01140040004000000REP       Member, State BoE, District 15                          UNDER VOTES                           PRECINCT 301                                           01 
01140040005000000REP       Member, State BoE, District 15                          UNDER VOTES                           PRECINCT 302                                           01 
01140040006000000REP       Member, State BoE, District 15                          UNDER VOTES                           PRECINCT 303                                           01 
01140040007000000REP       Member, State BoE, District 15                          UNDER VOTES                           PRECINCT 401                                           01 
01140040008000000REP       Member, State BoE, District 15                          UNDER VOTES                           PRECINCT 402                                           01 
01150010001000000REP       State Senator, District 31                              Randy Rives                           PRECINCT 101                                           01 
01150010002000000REP       State Senator, District 31                              Randy Rives                           PRECINCT 201                                           01 
01150010003000000REP       State Senator, District 31                              Randy Rives                           PRECINCT 202                                           01 
01150010004000000REP       State Senator, District 31                              Randy Rives                           PRECINCT 301                                           01 
01150010005000000REP       State Senator, District 31                              Randy Rives                           PRECINCT 302                                           01 
01150010006000000REP       State Senator, District 31                              Randy Rives                           PRECINCT 303                                           01 
01150010007000000REP       State Senator, District 31                              Randy Rives                           PRECINCT 401                                           01 
01150010008000000REP       State Senator, District 31                              Randy Rives                           PRECINCT 402                                           01 
01150020001000000REP       State Senator, District 31                              Kel Seliger                           PRECINCT 101                                           01 
01150020002000000REP       State Senator, District 31                              Kel Seliger                           PRECINCT 201                                           01 
01150020003000000REP       State Senator, District 31                              Kel Seliger                           PRECINCT 202                                           01 
01150020004000000REP       State Senator, District 31                              Kel Seliger                           PRECINCT 301                                           01 
01150020005000000REP       State Senator, District 31                              Kel Seliger                           PRECINCT 302                                           01 
01150020006000000REP       State Senator, District 31                              Kel Seliger                           PRECINCT 303                                           01 
01150020007000000REP       State Senator, District 31                              Kel Seliger                           PRECINCT 401                                           01 
01150020008000000REP       State Senator, District 31                              Kel Seliger                           PRECINCT 402                                           01 
01150030001000000REP       State Senator, District 31                              OVER VOTES                            PRECINCT 101                                           01 
01150030002000000REP       State Senator, District 31                              OVER VOTES                            PRECINCT 201                                           01 
01150030003000000REP       State Senator, District 31                              OVER VOTES                            PRECINCT 202                                           01 
01150030004000000REP       State Senator, District 31                              OVER VOTES                            PRECINCT 301                                           01 
01150030005000000REP       State Senator, District 31                              OVER VOTES                            PRECINCT 302                                           01 
01150030006000000REP       State Senator, District 31                              OVER VOTES                            PRECINCT 303                                           01 
01150030007000000REP       State Senator, District 31                              OVER VOTES                            PRECINCT 401                                           01 
01150030008000000REP       State Senator, District 31                              OVER VOTES                            PRECINCT 402                                           01 
