01040010001000001NON       United States Senator                                   TED CRUZ                              PCT 001                                                01 
01040010002000016NON       United States Senator                                   TED CRUZ                              PCT 002                                                01 
01040010003000000NON       United States Senator                                   TED CRUZ                              PCT 003                                                01 
01040010004000023NON       United States Senator                                   TED CRUZ                              PCT 004                                                01 
01040010005000002NON       United States Senator                                   TED CRUZ                              PCT 005                                                01 
01040010006000015NON       United States Senator                                   TED CRUZ                              PCT 006                                                01 
01040010007000067NON       United States Senator                                   TED CRUZ                              PCT 007                                                01 
01040010008000028NON       United States Senator                                   TED CRUZ                              PCT 008                                                01 
01040010009000015NON       United States Senator                                   TED CRUZ                              PCT 009                                                01 
01040010010000015NON       United States Senator                                   TED CRUZ                              PCT 010                                                01 
01040010011000005NON       United States Senator                                   TED CRUZ                              PCT 011                                                01 
01040010012000000NON       United States Senator                                   TED CRUZ                              PCT 012                                                01 
01040010013000027NON       United States Senator                                   TED CRUZ                              PCT 013                                                01 
01040010014000010NON       United States Senator                                   TED CRUZ                              PCT 014                                                01 
01040010015000000NON       United States Senator                                   TED CRUZ                              PCT 015                                                01 
01040010016000001NON       United States Senator                                   TED CRUZ                              PCT 016                                                01 
01040010017000000NON       United States Senator                                   TED CRUZ                              PCT 017                                                01 
01040010018000000NON       United States Senator                                   TED CRUZ                              PCT 018                                                01 
01040010019000001NON       United States Senator                                   TED CRUZ                              PCT 019                                                01 
01040010020000000NON       United States Senator                                   TED CRUZ                              PCT 020                                                01 
01040010021000004NON       United States Senator                                   TED CRUZ                              PCT 021                                                01 
01040010022000006NON       United States Senator                                   TED CRUZ                              PCT 022                                                01 
01040010023000006NON       United States Senator                                   TED CRUZ                              PCT 023                                                01 
01040010024000002NON       United States Senator                                   TED CRUZ                              PCT 024                                                01 
01040010025000038NON       United States Senator                                   TED CRUZ                              PCT 025                                                01 
01040010026000004NON       United States Senator                                   TED CRUZ                              PCT 026                                                01 
01040010027000003NON       United States Senator                                   TED CRUZ                              PCT 027                                                01 
01040010028000006NON       United States Senator                                   TED CRUZ                              PCT 028                                                01 
01040010029000014NON       United States Senator                                   TED CRUZ                              PCT 029                                                01 
01040010030000012NON       United States Senator                                   TED CRUZ                              PCT 030                                                01 
01040010031000009NON       United States Senator                                   TED CRUZ                              PCT 031                                                01 
01040010032000014NON       United States Senator                                   TED CRUZ                              PCT 032                                                01 
01040010033000004NON       United States Senator                                   TED CRUZ                              PCT 033                                                01 
01040010034000014NON       United States Senator                                   TED CRUZ                              PCT 034                                                01 
01040010035000023NON       United States Senator                                   TED CRUZ                              PCT 035                                                01 
01040010036000024NON       United States Senator                                   TED CRUZ                              PCT 036                                                01 
01040010037000008NON       United States Senator                                   TED CRUZ                              PCT 037                                                01 
01040010038000030NON       United States Senator                                   TED CRUZ                              PCT 038                                                01 
01040010039000003NON       United States Senator                                   TED CRUZ                              PCT 039                                                01 
01040010040000000NON       United States Senator                                   TED CRUZ                              PCT 040                                                01 
01040010041000006NON       United States Senator                                   TED CRUZ                              PCT 041                                                01 
01040010042000007NON       United States Senator                                   TED CRUZ                              PCT 042                                                01 
01040010043000009NON       United States Senator                                   TED CRUZ                              PCT 043                                                01 
01040010044000000NON       United States Senator                                   TED CRUZ                              PCT 044                                                01 
01040010045000010NON       United States Senator                                   TED CRUZ                              PCT 045                                                01 
01040010046000000NON       United States Senator                                   TED CRUZ                              PCT 046                                                01 
01040010047000006NON       United States Senator                                   TED CRUZ                              PCT 047                                                01 
01040010048000011NON       United States Senator                                   TED CRUZ                              PCT 048                                                01 
01040010049000011NON       United States Senator                                   TED CRUZ                              PCT 049                                                01 
01040010050000001NON       United States Senator                                   TED CRUZ                              PCT 050                                                01 
01040010051000000NON       United States Senator                                   TED CRUZ                              PCT 051                                                01 
01040010052000016NON       United States Senator                                   TED CRUZ                              PCT 052                                                01 
01040010053000026NON       United States Senator                                   TED CRUZ                              PCT 053                                                01 
01040010054000016NON       United States Senator                                   TED CRUZ                              PCT 054                                                01 
01040010055000011NON       United States Senator                                   TED CRUZ                              PCT 055                                                01 
01040010056000009NON       United States Senator                                   TED CRUZ                              PCT 056                                                01 
01040010057000004NON       United States Senator                                   TED CRUZ                              PCT 057                                                01 
01040010058000005NON       United States Senator                                   TED CRUZ                              PCT 058                                                01 
01040010059000006NON       United States Senator                                   TED CRUZ                              PCT 059                                                01 
01040010060000013NON       United States Senator                                   TED CRUZ                              PCT 060                                                01 
01040010061000005NON       United States Senator                                   TED CRUZ                              PCT 061                                                01 
01040010062000082NON       United States Senator                                   TED CRUZ                              PCT 062                                                01 
01040010063000004NON       United States Senator                                   TED CRUZ                              PCT 063                                                01 
01040010064000003NON       United States Senator                                   TED CRUZ                              PCT 064                                                01 
01040010065000005NON       United States Senator                                   TED CRUZ                              PCT 065                                                01 
01040010066000011NON       United States Senator                                   TED CRUZ                              PCT 066                                                01 
01040010067000043NON       United States Senator                                   TED CRUZ                              PCT 067                                                01 
01040010068000012NON       United States Senator                                   TED CRUZ                              PCT 068                                                01 
01040010069000011NON       United States Senator                                   TED CRUZ                              PCT 069                                                01 
01040010070000000NON       United States Senator                                   TED CRUZ                              PCT 070                                                01 
01040010071000021NON       United States Senator                                   TED CRUZ                              PCT 071                                                01 
01040010072000015NON       United States Senator                                   TED CRUZ                              PCT 072                                                01 
01040010073000050NON       United States Senator                                   TED CRUZ                              PCT 073                                                01 
01040010074000008NON       United States Senator                                   TED CRUZ                              PCT 074                                                01 
01040010075000000NON       United States Senator                                   TED CRUZ                              PCT 075                                                01 
01040010076000000NON       United States Senator                                   TED CRUZ                              PCT 076                                                01 
01040010077000005NON       United States Senator                                   TED CRUZ                              PCT 077                                                01 
01040010078000004NON       United States Senator                                   TED CRUZ                              PCT 078                                                01 
01040010079000000NON       United States Senator                                   TED CRUZ                              PCT 079                                                01 
01040010080000000NON       United States Senator                                   TED CRUZ                              PCT 080                                                01 
01040010081000056NON       United States Senator                                   TED CRUZ                              PCT 081                                                01 
01040010082000000NON       United States Senator                                   TED CRUZ                              PCT 082                                                01 
01040010083000065NON       United States Senator                                   TED CRUZ                              PCT 083                                                01 
01040010084000019NON       United States Senator                                   TED CRUZ                              PCT 084                                                01 
01040010085000013NON       United States Senator                                   TED CRUZ                              PCT 085                                                01 
01040010086000009NON       United States Senator                                   TED CRUZ                              PCT 086                                                01 
01040010087000009NON       United States Senator                                   TED CRUZ                              PCT 087                                                01 
01040010088000010NON       United States Senator                                   TED CRUZ                              PCT 088                                                01 
01040010089000000NON       United States Senator                                   TED CRUZ                              PCT 089                                                01 
01040010090000011NON       United States Senator                                   TED CRUZ                              PCT 090                                                01 
01040010091000001NON       United States Senator                                   TED CRUZ                              PCT 091                                                01 
01040010092000000NON       United States Senator                                   TED CRUZ                              PCT 092                                                01 
01040010093000005NON       United States Senator                                   TED CRUZ                              PCT 093                                                01 
01040010094000006NON       United States Senator                                   TED CRUZ                              PCT 094                                                01 
01040010095000003NON       United States Senator                                   TED CRUZ                              PCT 095                                                01 
01040010096000058NON       United States Senator                                   TED CRUZ                              PT 096                                                 01 
01040010097000028NON       United States Senator                                   TED CRUZ                              PCT 097                                                01 
01040010098000013NON       United States Senator                                   TED CRUZ                              PCT 098                                                01 
01040010099000015NON       United States Senator                                   TED CRUZ                              PCT 099                                                01 
01040010100000005NON       United States Senator                                   TED CRUZ                              PCT 100                                                01 
01040010101000023NON       United States Senator                                   TED CRUZ                              PCT 101                                                01 
01040010102000014NON       United States Senator                                   TED CRUZ                              PCT 102                                                01 
01040010103000038NON       United States Senator                                   TED CRUZ                              PCT 103                                                01 
01040010104000006NON       United States Senator                                   TED CRUZ                              PCT 104                                                01 
01040010105000029NON       United States Senator                                   TED CRUZ                              PCT 105                                                01 
01040010106000051NON       United States Senator                                   TED CRUZ                              PCT 106                                                01 
01040010107000015NON       United States Senator                                   TED CRUZ                              PCT 107                                                01 
01040010108000009NON       United States Senator                                   TED CRUZ                              PCT 108                                                01 
01040010109000005NON       United States Senator                                   TED CRUZ                              PCT 109                                                01 
01040010110000000NON       United States Senator                                   TED CRUZ                              PCT 110                                                01 
01040010111000020NON       United States Senator                                   TED CRUZ                              PCT 111                                                01 
01040010112000005NON       United States Senator                                   TED CRUZ                              PCT 112                                                01 
01040010113000024NON       United States Senator                                   TED CRUZ                              PCT 113                                                01 
01040010114000035NON       United States Senator                                   TED CRUZ                              PCT 114                                                01 
01040010115000020NON       United States Senator                                   TED CRUZ                              PCT 115                                                01 
01040010116000017NON       United States Senator                                   TED CRUZ                              PCT 116                                                01 
01040010117000010NON       United States Senator                                   TED CRUZ                              PCT 117                                                01 
01040010118000009NON       United States Senator                                   TED CRUZ                              PCT 118                                                01 
01040010119000002NON       United States Senator                                   TED CRUZ                              PCT 119                                                01 
01040010120000005NON       United States Senator                                   TED CRUZ                              PCT 120                                                01 
01040010121000000NON       United States Senator                                   TED CRUZ                              PCT 121                                                01 
01040010122000003NON       United States Senator                                   TED CRUZ                              PCT 122                                                01 
01040010123000011NON       United States Senator                                   TED CRUZ                              PCT 123                                                01 
01040010124000031NON       United States Senator                                   TED CRUZ                              PCT 124                                                01 
01040010125000002NON       United States Senator                                   TED CRUZ                              PCT 125                                                01 
01040010126000007NON       United States Senator                                   TED CRUZ                              PCT 126                                                01 
01040010127000000NON       United States Senator                                   TED CRUZ                              PCT 127                                                01 
01040010128000000NON       United States Senator                                   TED CRUZ                              PCT 128                                                01 
01040010129000001NON       United States Senator                                   TED CRUZ                              PCT 129                                                01 
01040010130000017NON       United States Senator                                   TED CRUZ                              PCT 130                                                01 
01040010131000000NON       United States Senator                                   TED CRUZ                              PCT 131                                                01 
01040010132000000NON       United States Senator                                   TED CRUZ                              PCT 132                                                01 
01040010133000000NON       United States Senator                                   TED CRUZ                              PCT 133                                                01 
01040010134000067NON       United States Senator                                   TED CRUZ                              PCT 134                                                01 
01040010135000020NON       United States Senator                                   TED CRUZ                              PCT 135                                                01 
01040010136000029NON       United States Senator                                   TED CRUZ                              PCT 136                                                01 
01040010137000000NON       United States Senator                                   TED CRUZ                              PCT 137                                                01 
01040010138000002NON       United States Senator                                   TED CRUZ                              PCT 138                                                01 
01040010139000006NON       United States Senator                                   TED CRUZ                              PCT 139                                                01 
01040010140000000NON       United States Senator                                   TED CRUZ                              PCT 140                                                01 
01040010141000000NON       United States Senator                                   TED CRUZ                              PCT 141                                                01 
01040010142000000NON       United States Senator                                   TED CRUZ                              PCT 142                                                01 
01040010143000000NON       United States Senator                                   TED CRUZ                              PCT 143                                                01 
01040010144000000NON       United States Senator                                   TED CRUZ                              PCT 144                                                01 
01040010145000005NON       United States Senator                                   TED CRUZ                              PCT 145                                                01 
01040010146000004NON       United States Senator                                   TED CRUZ                              PCT 146                                                01 
01040010147000001NON       United States Senator                                   TED CRUZ                              PCT 147                                                01 
01040010148000000NON       United States Senator                                   TED CRUZ                              PCT 148                                                01 
01040010149000000NON       United States Senator                                   TED CRUZ                              PCT 149                                                01 
01040010150000009NON       United States Senator                                   TED CRUZ                              PCT 150                                                01 
01040010151000001NON       United States Senator                                   TED CRUZ                              PCT 151                                                01 
01040010152000028NON       United States Senator                                   TED CRUZ                              PCT 152                                                01 
01040010153000000NON       United States Senator                                   TED CRUZ                              PCT 153                                                01 
01040010154000017NON       United States Senator                                   TED CRUZ                              PCT 154                                                01 
01040010155000002NON       United States Senator                                   TED CRUZ                              PCT 155                                                01 
01040010156000007NON       United States Senator                                   TED CRUZ                              PCT 156                                                01 
01040010157000002NON       United States Senator                                   TED CRUZ                              PCT 157                                                01 
01040010158000009NON       United States Senator                                   TED CRUZ                              PCT 158                                                01 
01040010159000000NON       United States Senator                                   TED CRUZ                              PCT 159                                                01 
01040010160000000NON       United States Senator                                   TED CRUZ                              PCT 160                                                01 
01040010161000012NON       United States Senator                                   TED CRUZ                              PCT 161                                                01 
01040010162000004NON       United States Senator                                   TED CRUZ                              PCT 162                                                01 
01040010163000002NON       United States Senator                                   TED CRUZ                              PCT 163                                                01 
01040010164000013NON       United States Senator                                   TED CRUZ                              PCT 164                                                01 
01040010165000014NON       United States Senator                                   TED CRUZ                              PCT 165                                                01 
01040010166000007NON       United States Senator                                   TED CRUZ                              PCT 166                                                01 
01040010167000013NON       United States Senator                                   TED CRUZ                              PCT 167                                                01 
01040010168000017NON       United States Senator                                   TED CRUZ                              PCT 168                                                01 
01040010169000000NON       United States Senator                                   TED CRUZ                              PCT 169                                                01 
01040010170000000NON       United States Senator                                   TED CRUZ                              PCT 170                                                01 
01040010171000000NON       United States Senator                                   TED CRUZ                              PCT 171                                                01 
01040010172000000NON       United States Senator                                   TED CRUZ                              PCT 172                                                01 
01040010173000010NON       United States Senator                                   TED CRUZ                              PCT 173                                                01 
01040010174000001NON       United States Senator                                   TED CRUZ                              PCT 174                                                01 
01040010175000007NON       United States Senator                                   TED CRUZ                              PCT 175                                                01 
01040010176000008NON       United States Senator                                   TED CRUZ                              PCT 176                                                01 
01040010177000003NON       United States Senator                                   TED CRUZ                              PCT 177                                                01 
01040010178000001NON       United States Senator                                   TED CRUZ                              PCT 178                                                01 
01040010179000000NON       United States Senator                                   TED CRUZ                              PCT 179                                                01 
01040010180000000NON       United States Senator                                   TED CRUZ                              PCT 180                                                01 
01040010181000023NON       United States Senator                                   TED CRUZ                              PCT 181                                                01 
01040010182000001NON       United States Senator                                   TED CRUZ                              PCT 182                                                01 
01040010183000000NON       United States Senator                                   TED CRUZ                              PCT 183                                                01 
01040010184000003NON       United States Senator                                   TED CRUZ                              PCT 184                                                01 
01040010185000000NON       United States Senator                                   TED CRUZ                              PCT 185                                                01 
01040010186000000NON       United States Senator                                   TED CRUZ                              PCT 186                                                01 
01040010187000022NON       United States Senator                                   TED CRUZ                              PCT 187                                                01 
01040010188000032NON       United States Senator                                   TED CRUZ                              PCT 188                                                01 
01040010189000002NON       United States Senator                                   TED CRUZ                              PCT 189                                                01 
01040010190000002NON       United States Senator                                   TED CRUZ                              PCT 190                                                01 
01040010191000001NON       United States Senator                                   TED CRUZ                              PCT 191                                                01 
01040010192000007NON       United States Senator                                   TED CRUZ                              PCT 192                                                01 
01040010193000000NON       United States Senator                                   TED CRUZ                              PCT 193                                                01 
01040010194000004NON       United States Senator                                   TED CRUZ                              PCT 194                                                01 
01040010195000010NON       United States Senator                                   TED CRUZ                              PCT 195                                                01 
01040010196000001NON       United States Senator                                   TED CRUZ                              PCT 196                                                01 
01040010197000000NON       United States Senator                                   TED CRUZ                              PCT 197                                                01 
01040010198000000NON       United States Senator                                   TED CRUZ                              PCT 198                                                01 
01040010199000029NON       United States Senator                                   TED CRUZ                              PCT 199                                                01 
01040010200000040NON       United States Senator                                   TED CRUZ                              PCT 200                                                01 
01040010201000011NON       United States Senator                                   TED CRUZ                              PCT 201                                                01 
01040010202000008NON       United States Senator                                   TED CRUZ                              PCT 202                                                01 
01040010203000035NON       United States Senator                                   TED CRUZ                              PCT 203                                                01 
01040010204000005NON       United States Senator                                   TED CRUZ                              PCT 204                                                01 
01040010205000000NON       United States Senator                                   TED CRUZ                              PCT 205                                                01 
01040010206000012NON       United States Senator                                   TED CRUZ                              PCT 206                                                01 
01040010207000045NON       United States Senator                                   TED CRUZ                              PCT 207                                                01 
01040010208000000NON       United States Senator                                   TED CRUZ                              PCT 208                                                01 
01040010209000008NON       United States Senator                                   TED CRUZ                              PCT 209                                                01 
01040010210000000NON       United States Senator                                   TED CRUZ                              PCT 210                                                01 
01040010211000004NON       United States Senator                                   TED CRUZ                              PCT 211                                                01 
01040010212000006NON       United States Senator                                   TED CRUZ                              PCT 212                                                01 
01040010213000001NON       United States Senator                                   TED CRUZ                              PCT 213                                                01 
01040010214000000NON       United States Senator                                   TED CRUZ                              PCT 214                                                01 
01040010215000003NON       United States Senator                                   TED CRUZ                              PCT 215                                                01 
01040010216000008NON       United States Senator                                   TED CRUZ                              PCT 216                                                01 
01040010217000001NON       United States Senator                                   TED CRUZ                              PCT 217                                                01 
01040010218000000NON       United States Senator                                   TED CRUZ                              PCT 218                                                01 
01040010219000005NON       United States Senator                                   TED CRUZ                              PCT 219                                                01 
01040010220000002NON       United States Senator                                   TED CRUZ                              PCT 220                                                01 
01040010221000003NON       United States Senator                                   TED CRUZ                              PCT 221                                                01 
01040010222000000NON       United States Senator                                   TED CRUZ                              PCT 222                                                01 
01040010223000003NON       United States Senator                                   TED CRUZ                              PCT 223                                                01 
01040010224000007NON       United States Senator                                   TED CRUZ                              PCT 224                                                01 
01040010225000000NON       United States Senator                                   TED CRUZ                              PCT 225                                                01 
01040010226000000NON       United States Senator                                   TED CRUZ                              PCT 226                                                01 
01040010227000002NON       United States Senator                                   TED CRUZ                              PCT 227                                                01 
01040010228000011NON       United States Senator                                   TED CRUZ                              PCT 228                                                01 
01040010229000001NON       United States Senator                                   TED CRUZ                              PCT 229                                                01 
01040010230000001NON       United States Senator                                   TED CRUZ                              PCT 230                                                01 
01040010231000005NON       United States Senator                                   TED CRUZ                              PCT 231                                                01 
01040010232000003NON       United States Senator                                   TED CRUZ                              PCT 232                                                01 
01040010233000000NON       United States Senator                                   TED CRUZ                              PCT 233                                                01 
01040010234000004NON       United States Senator                                   TED CRUZ                              PCT 234                                                01 
01040010235000012NON       United States Senator                                   TED CRUZ                              PCT 235                                                01 
01040010236000013NON       United States Senator                                   TED CRUZ                              PCT 236                                                01 
01040010237000000NON       United States Senator                                   TED CRUZ                              PCT 237                                                01 
01040010238000000NON       United States Senator                                   TED CRUZ                              PCT 238                                                01 
01040010239000007NON       United States Senator                                   TED CRUZ                              PCT 239                                                01 
01040010240000001NON       United States Senator                                   TED CRUZ                              PCT 240                                                01 
01040010241000000NON       United States Senator                                   TED CRUZ                              PCT 241                                                01 
01040010242000000NON       United States Senator                                   TED CRUZ                              PCT 242                                                01 
01040010243000000NON       United States Senator                                   TED CRUZ                              PCT 243                                                01 
01040010244000004NON       United States Senator                                   TED CRUZ                              PCT 244                                                01 
01040010245000000NON       United States Senator                                   TED CRUZ                              PCT 245                                                01 
01040010246000000NON       United States Senator                                   TED CRUZ                              PCT 246                                                01 
01040010247000004NON       United States Senator                                   TED CRUZ                              PCT 247                                                01 
01040010248000001NON       United States Senator                                   TED CRUZ                              PCT 248                                                01 
01040010249000006NON       United States Senator                                   TED CRUZ                              PCT 249                                                01 
01040010250000000NON       United States Senator                                   TED CRUZ                              PCT 250                                                01 
01040010251000000NON       United States Senator                                   TED CRUZ                              PCT 251                                                01 
01040010252000000NON       United States Senator                                   TED CRUZ                              PCT 252                                                01 
01040010253000000NON       United States Senator                                   TED CRUZ                              PCT 253                                                01 
01040010254000000NON       United States Senator                                   TED CRUZ                              PCT 254                                                01 
01040010255000008NON       United States Senator                                   TED CRUZ                              PCT 255                                                01 
01040010256000002NON       United States Senator                                   TED CRUZ                              PCT 256                                                01 
01040010257000000NON       United States Senator                                   TED CRUZ                              PCT 257                                                01 
01040020001000005NON       United States Senator                                   DAVID DEWHURST                        PCT 001                                                01 
01040020002000017NON       United States Senator                                   DAVID DEWHURST                        PCT 002                                                01 
01040020003000001NON       United States Senator                                   DAVID DEWHURST                        PCT 003                                                01 
01040020004000014NON       United States Senator                                   DAVID DEWHURST                        PCT 004                                                01 
01040020005000002NON       United States Senator                                   DAVID DEWHURST                        PCT 005                                                01 
01040020006000010NON       United States Senator                                   DAVID DEWHURST                        PCT 006                                                01 
01040020007000030NON       United States Senator                                   DAVID DEWHURST                        PCT 007                                                01 
01040020008000030NON       United States Senator                                   DAVID DEWHURST                        PCT 008                                                01 
01040020009000010NON       United States Senator                                   DAVID DEWHURST                        PCT 009                                                01 
01040020010000004NON       United States Senator                                   DAVID DEWHURST                        PCT 010                                                01 
01040020011000001NON       United States Senator                                   DAVID DEWHURST                        PCT 011                                                01 
01040020012000000NON       United States Senator                                   DAVID DEWHURST                        PCT 012                                                01 
01040020013000019NON       United States Senator                                   DAVID DEWHURST                        PCT 013                                                01 
01040020014000005NON       United States Senator                                   DAVID DEWHURST                        PCT 014                                                01 
01040020015000000NON       United States Senator                                   DAVID DEWHURST                        PCT 015                                                01 
01040020016000000NON       United States Senator                                   DAVID DEWHURST                        PCT 016                                                01 
01040020017000000NON       United States Senator                                   DAVID DEWHURST                        PCT 017                                                01 
01040020018000000NON       United States Senator                                   DAVID DEWHURST                        PCT 018                                                01 
01040020019000001NON       United States Senator                                   DAVID DEWHURST                        PCT 019                                                01 
01040020020000000NON       United States Senator                                   DAVID DEWHURST                        PCT 020                                                01 
01040020021000000NON       United States Senator                                   DAVID DEWHURST                        PCT 021                                                01 
01040020022000001NON       United States Senator                                   DAVID DEWHURST                        PCT 022                                                01 
01040020023000005NON       United States Senator                                   DAVID DEWHURST                        PCT 023                                                01 
01040020024000001NON       United States Senator                                   DAVID DEWHURST                        PCT 024                                                01 
01040020025000019NON       United States Senator                                   DAVID DEWHURST                        PCT 025                                                01 
01040020026000004NON       United States Senator                                   DAVID DEWHURST                        PCT 026                                                01 
01040020027000002NON       United States Senator                                   DAVID DEWHURST                        PCT 027                                                01 
01040020028000005NON       United States Senator                                   DAVID DEWHURST                        PCT 028                                                01 
01040020029000000NON       United States Senator                                   DAVID DEWHURST                        PCT 029                                                01 
01040020030000005NON       United States Senator                                   DAVID DEWHURST                        PCT 030                                                01 
01040020031000005NON       United States Senator                                   DAVID DEWHURST                        PCT 031                                                01 
01040020032000005NON       United States Senator                                   DAVID DEWHURST                        PCT 032                                                01 
01040020033000002NON       United States Senator                                   DAVID DEWHURST                        PCT 033                                                01 
01040020034000004NON       United States Senator                                   DAVID DEWHURST                        PCT 034                                                01 
01040020035000013NON       United States Senator                                   DAVID DEWHURST                        PCT 035                                                01 
01040020036000007NON       United States Senator                                   DAVID DEWHURST                        PCT 036                                                01 
01040020037000003NON       United States Senator                                   DAVID DEWHURST                        PCT 037                                                01 
01040020038000017NON       United States Senator                                   DAVID DEWHURST                        PCT 038                                                01 
01040020039000003NON       United States Senator                                   DAVID DEWHURST                        PCT 039                                                01 
01040020040000004NON       United States Senator                                   DAVID DEWHURST                        PCT 040                                                01 
01040020041000001NON       United States Senator                                   DAVID DEWHURST                        PCT 041                                                01 
01040020042000003NON       United States Senator                                   DAVID DEWHURST                        PCT 042                                                01 
01040020043000002NON       United States Senator                                   DAVID DEWHURST                        PCT 043                                                01 
01040020044000003NON       United States Senator                                   DAVID DEWHURST                        PCT 044                                                01 
01040020045000003NON       United States Senator                                   DAVID DEWHURST                        PCT 045                                                01 
01040020046000000NON       United States Senator                                   DAVID DEWHURST                        PCT 046                                                01 
01040020047000005NON       United States Senator                                   DAVID DEWHURST                        PCT 047                                                01 
01040020048000002NON       United States Senator                                   DAVID DEWHURST                        PCT 048                                                01 
01040020049000006NON       United States Senator                                   DAVID DEWHURST                        PCT 049                                                01 
01040020050000001NON       United States Senator                                   DAVID DEWHURST                        PCT 050                                                01 
01040020051000000NON       United States Senator                                   DAVID DEWHURST                        PCT 051                                                01 
01040020052000008NON       United States Senator                                   DAVID DEWHURST                        PCT 052                                                01 
01040020053000012NON       United States Senator                                   DAVID DEWHURST                        PCT 053                                                01 
01040020054000010NON       United States Senator                                   DAVID DEWHURST                        PCT 054                                                01 
01040020055000001NON       United States Senator                                   DAVID DEWHURST                        PCT 055                                                01 
01040020056000006NON       United States Senator                                   DAVID DEWHURST                        PCT 056                                                01 
01040020057000003NON       United States Senator                                   DAVID DEWHURST                        PCT 057                                                01 
01040020058000001NON       United States Senator                                   DAVID DEWHURST                        PCT 058                                                01 
01040020059000008NON       United States Senator                                   DAVID DEWHURST                        PCT 059                                                01 
01040020060000012NON       United States Senator                                   DAVID DEWHURST                        PCT 060                                                01 
01040020061000004NON       United States Senator                                   DAVID DEWHURST                        PCT 061                                                01 
01040020062000047NON       United States Senator                                   DAVID DEWHURST                        PCT 062                                                01 
01040020063000003NON       United States Senator                                   DAVID DEWHURST                        PCT 063                                                01 
01040020064000003NON       United States Senator                                   DAVID DEWHURST                        PCT 064                                                01 
01040020065000002NON       United States Senator                                   DAVID DEWHURST                        PCT 065                                                01 
01040020066000004NON       United States Senator                                   DAVID DEWHURST                        PCT 066                                                01 
01040020067000028NON       United States Senator                                   DAVID DEWHURST                        PCT 067                                                01 
01040020068000002NON       United States Senator                                   DAVID DEWHURST                        PCT 068                                                01 
01040020069000002NON       United States Senator                                   DAVID DEWHURST                        PCT 069                                                01 
01040020070000001NON       United States Senator                                   DAVID DEWHURST                        PCT 070                                                01 
01040020071000009NON       United States Senator                                   DAVID DEWHURST                        PCT 071                                                01 
01040020072000006NON       United States Senator                                   DAVID DEWHURST                        PCT 072                                                01 
01040020073000015NON       United States Senator                                   DAVID DEWHURST                        PCT 073                                                01 
01040020074000002NON       United States Senator                                   DAVID DEWHURST                        PCT 074                                                01 
01040020075000001NON       United States Senator                                   DAVID DEWHURST                        PCT 075                                                01 
01040020076000000NON       United States Senator                                   DAVID DEWHURST                        PCT 076                                                01 
01040020077000003NON       United States Senator                                   DAVID DEWHURST                        PCT 077                                                01 
01040020078000001NON       United States Senator                                   DAVID DEWHURST                        PCT 078                                                01 
01040020079000004NON       United States Senator                                   DAVID DEWHURST                        PCT 079                                                01 
01040020080000000NON       United States Senator                                   DAVID DEWHURST                        PCT 080                                                01 
01040020081000025NON       United States Senator                                   DAVID DEWHURST                        PCT 081                                                01 
01040020082000000NON       United States Senator                                   DAVID DEWHURST                        PCT 082                                                01 
01040020083000036NON       United States Senator                                   DAVID DEWHURST                        PCT 083                                                01 
01040020084000005NON       United States Senator                                   DAVID DEWHURST                        PCT 084                                                01 
01040020085000004NON       United States Senator                                   DAVID DEWHURST                        PCT 085                                                01 
01040020086000005NON       United States Senator                                   DAVID DEWHURST                        PCT 086                                                01 
01040020087000000NON       United States Senator                                   DAVID DEWHURST                        PCT 087                                                01 
01040020088000002NON       United States Senator                                   DAVID DEWHURST                        PCT 088                                                01 
01040020089000000NON       United States Senator                                   DAVID DEWHURST                        PCT 089                                                01 
01040020090000003NON       United States Senator                                   DAVID DEWHURST                        PCT 090                                                01 
01040020091000001NON       United States Senator                                   DAVID DEWHURST                        PCT 091                                                01 
01040020092000000NON       United States Senator                                   DAVID DEWHURST                        PCT 092                                                01 
01040020093000005NON       United States Senator                                   DAVID DEWHURST                        PCT 093                                                01 
01040020094000004NON       United States Senator                                   DAVID DEWHURST                        PCT 094                                                01 
01040020095000002NON       United States Senator                                   DAVID DEWHURST                        PCT 095                                                01 
01040020096000012NON       United States Senator                                   DAVID DEWHURST                        PT 096                                                 01 
01040020097000006NON       United States Senator                                   DAVID DEWHURST                        PCT 097                                                01 
01040020098000009NON       United States Senator                                   DAVID DEWHURST                        PCT 098                                                01 
01040020099000011NON       United States Senator                                   DAVID DEWHURST                        PCT 099                                                01 
01040020100000004NON       United States Senator                                   DAVID DEWHURST                        PCT 100                                                01 
01040020101000010NON       United States Senator                                   DAVID DEWHURST                        PCT 101                                                01 
01040020102000025NON       United States Senator                                   DAVID DEWHURST                        PCT 102                                                01 
01040020103000034NON       United States Senator                                   DAVID DEWHURST                        PCT 103                                                01 
01040020104000005NON       United States Senator                                   DAVID DEWHURST                        PCT 104                                                01 
01040020105000008NON       United States Senator                                   DAVID DEWHURST                        PCT 105                                                01 
01040020106000020NON       United States Senator                                   DAVID DEWHURST                        PCT 106                                                01 
01040020107000004NON       United States Senator                                   DAVID DEWHURST                        PCT 107                                                01 
01040020108000001NON       United States Senator                                   DAVID DEWHURST                        PCT 108                                                01 
01040020109000003NON       United States Senator                                   DAVID DEWHURST                        PCT 109                                                01 
01040020110000003NON       United States Senator                                   DAVID DEWHURST                        PCT 110                                                01 
01040020111000016NON       United States Senator                                   DAVID DEWHURST                        PCT 111                                                01 
01040020112000001NON       United States Senator                                   DAVID DEWHURST                        PCT 112                                                01 
01040020113000007NON       United States Senator                                   DAVID DEWHURST                        PCT 113                                                01 
01040020114000034NON       United States Senator                                   DAVID DEWHURST                        PCT 114                                                01 
01040020115000004NON       United States Senator                                   DAVID DEWHURST                        PCT 115                                                01 
01040020116000007NON       United States Senator                                   DAVID DEWHURST                        PCT 116                                                01 
01040020117000003NON       United States Senator                                   DAVID DEWHURST                        PCT 117                                                01 
01040020118000006NON       United States Senator                                   DAVID DEWHURST                        PCT 118                                                01 
01040020119000001NON       United States Senator                                   DAVID DEWHURST                        PCT 119                                                01 
01040020120000000NON       United States Senator                                   DAVID DEWHURST                        PCT 120                                                01 
01040020121000001NON       United States Senator                                   DAVID DEWHURST                        PCT 121                                                01 
01040020122000000NON       United States Senator                                   DAVID DEWHURST                        PCT 122                                                01 
01040020123000005NON       United States Senator                                   DAVID DEWHURST                        PCT 123                                                01 
01040020124000010NON       United States Senator                                   DAVID DEWHURST                        PCT 124                                                01 
01040020125000001NON       United States Senator                                   DAVID DEWHURST                        PCT 125                                                01 
01040020126000004NON       United States Senator                                   DAVID DEWHURST                        PCT 126                                                01 
01040020127000000NON       United States Senator                                   DAVID DEWHURST                        PCT 127                                                01 
01040020128000001NON       United States Senator                                   DAVID DEWHURST                        PCT 128                                                01 
01040020129000001NON       United States Senator                                   DAVID DEWHURST                        PCT 129                                                01 
01040020130000002NON       United States Senator                                   DAVID DEWHURST                        PCT 130                                                01 
01040020131000000NON       United States Senator                                   DAVID DEWHURST                        PCT 131                                                01 
01040020132000000NON       United States Senator                                   DAVID DEWHURST                        PCT 132                                                01 
01040020133000002NON       United States Senator                                   DAVID DEWHURST                        PCT 133                                                01 
01040020134000032NON       United States Senator                                   DAVID DEWHURST                        PCT 134                                                01 
01040020135000013NON       United States Senator                                   DAVID DEWHURST                        PCT 135                                                01 
01040020136000008NON       United States Senator                                   DAVID DEWHURST                        PCT 136                                                01 
01040020137000000NON       United States Senator                                   DAVID DEWHURST                        PCT 137                                                01 
01040020138000001NON       United States Senator                                   DAVID DEWHURST                        PCT 138                                                01 
01040020139000001NON       United States Senator                                   DAVID DEWHURST                        PCT 139                                                01 
01040020140000000NON       United States Senator                                   DAVID DEWHURST                        PCT 140                                                01 
01040020141000000NON       United States Senator                                   DAVID DEWHURST                        PCT 141                                                01 
01040020142000000NON       United States Senator                                   DAVID DEWHURST                        PCT 142                                                01 
01040020143000000NON       United States Senator                                   DAVID DEWHURST                        PCT 143                                                01 
01040020144000000NON       United States Senator                                   DAVID DEWHURST                        PCT 144                                                01 
01040020145000002NON       United States Senator                                   DAVID DEWHURST                        PCT 145                                                01 
01040020146000000NON       United States Senator                                   DAVID DEWHURST                        PCT 146                                                01 
01040020147000000NON       United States Senator                                   DAVID DEWHURST                        PCT 147                                                01 
01040020148000000NON       United States Senator                                   DAVID DEWHURST                        PCT 148                                                01 
01040020149000001NON       United States Senator                                   DAVID DEWHURST                        PCT 149                                                01 
01040020150000006NON       United States Senator                                   DAVID DEWHURST                        PCT 150                                                01 
01040020151000000NON       United States Senator                                   DAVID DEWHURST                        PCT 151                                                01 
01040020152000016NON       United States Senator                                   DAVID DEWHURST                        PCT 152                                                01 
01040020153000000NON       United States Senator                                   DAVID DEWHURST                        PCT 153                                                01 
01040020154000000NON       United States Senator                                   DAVID DEWHURST                        PCT 154                                                01 
01040020155000002NON       United States Senator                                   DAVID DEWHURST                        PCT 155                                                01 
01040020156000003NON       United States Senator                                   DAVID DEWHURST                        PCT 156                                                01 
01040020157000001NON       United States Senator                                   DAVID DEWHURST                        PCT 157                                                01 
01040020158000001NON       United States Senator                                   DAVID DEWHURST                        PCT 158                                                01 
01040020159000000NON       United States Senator                                   DAVID DEWHURST                        PCT 159                                                01 
01040020160000000NON       United States Senator                                   DAVID DEWHURST                        PCT 160                                                01 
01040020161000006NON       United States Senator                                   DAVID DEWHURST                        PCT 161                                                01 
01040020162000000NON       United States Senator                                   DAVID DEWHURST                        PCT 162                                                01 
01040020163000000NON       United States Senator                                   DAVID DEWHURST                        PCT 163                                                01 
01040020164000004NON       United States Senator                                   DAVID DEWHURST                        PCT 164                                                01 
01040020165000002NON       United States Senator                                   DAVID DEWHURST                        PCT 165                                                01 
01040020166000002NON       United States Senator                                   DAVID DEWHURST                        PCT 166                                                01 
01040020167000001NON       United States Senator                                   DAVID DEWHURST                        PCT 167                                                01 
01040020168000001NON       United States Senator                                   DAVID DEWHURST                        PCT 168                                                01 
01040020169000000NON       United States Senator                                   DAVID DEWHURST                        PCT 169                                                01 
01040020170000000NON       United States Senator                                   DAVID DEWHURST                        PCT 170                                                01 
01040020171000000NON       United States Senator                                   DAVID DEWHURST                        PCT 171                                                01 
01040020172000000NON       United States Senator                                   DAVID DEWHURST                        PCT 172                                                01 
01040020173000006NON       United States Senator                                   DAVID DEWHURST                        PCT 173                                                01 
01040020174000000NON       United States Senator                                   DAVID DEWHURST                        PCT 174                                                01 
01040020175000000NON       United States Senator                                   DAVID DEWHURST                        PCT 175                                                01 
01040020176000005NON       United States Senator                                   DAVID DEWHURST                        PCT 176                                                01 
01040020177000000NON       United States Senator                                   DAVID DEWHURST                        PCT 177                                                01 
01040020178000000NON       United States Senator                                   DAVID DEWHURST                        PCT 178                                                01 
01040020179000000NON       United States Senator                                   DAVID DEWHURST                        PCT 179                                                01 
01040020180000000NON       United States Senator                                   DAVID DEWHURST                        PCT 180                                                01 
01040020181000025NON       United States Senator                                   DAVID DEWHURST                        PCT 181                                                01 
01040020182000000NON       United States Senator                                   DAVID DEWHURST                        PCT 182                                                01 
01040020183000000NON       United States Senator                                   DAVID DEWHURST                        PCT 183                                                01 
01040020184000000NON       United States Senator                                   DAVID DEWHURST                        PCT 184                                                01 
01040020185000000NON       United States Senator                                   DAVID DEWHURST                        PCT 185                                                01 
01040020186000000NON       United States Senator                                   DAVID DEWHURST                        PCT 186                                                01 
01040020187000009NON       United States Senator                                   DAVID DEWHURST                        PCT 187                                                01 
01040020188000019NON       United States Senator                                   DAVID DEWHURST                        PCT 188                                                01 
01040020189000000NON       United States Senator                                   DAVID DEWHURST                        PCT 189                                                01 
01040020190000000NON       United States Senator                                   DAVID DEWHURST                        PCT 190                                                01 
01040020191000000NON       United States Senator                                   DAVID DEWHURST                        PCT 191                                                01 
01040020192000000NON       United States Senator                                   DAVID DEWHURST                        PCT 192                                                01 
01040020193000000NON       United States Senator                                   DAVID DEWHURST                        PCT 193                                                01 
01040020194000019NON       United States Senator                                   DAVID DEWHURST                        PCT 194                                                01 
01040020195000011NON       United States Senator                                   DAVID DEWHURST                        PCT 195                                                01 
01040020196000000NON       United States Senator                                   DAVID DEWHURST                        PCT 196                                                01 
01040020197000000NON       United States Senator                                   DAVID DEWHURST                        PCT 197                                                01 
01040020198000000NON       United States Senator                                   DAVID DEWHURST                        PCT 198                                                01 
01040020199000006NON       United States Senator                                   DAVID DEWHURST                        PCT 199                                                01 
01040020200000009NON       United States Senator                                   DAVID DEWHURST                        PCT 200                                                01 
01040020201000000NON       United States Senator                                   DAVID DEWHURST                        PCT 201                                                01 
01040020202000004NON       United States Senator                                   DAVID DEWHURST                        PCT 202                                                01 
01040020203000014NON       United States Senator                                   DAVID DEWHURST                        PCT 203                                                01 
01040020204000003NON       United States Senator                                   DAVID DEWHURST                        PCT 204                                                01 
01040020205000002NON       United States Senator                                   DAVID DEWHURST                        PCT 205                                                01 
01040020206000000NON       United States Senator                                   DAVID DEWHURST                        PCT 206                                                01 
01040020207000005NON       United States Senator                                   DAVID DEWHURST                        PCT 207                                                01 
01040020208000000NON       United States Senator                                   DAVID DEWHURST                        PCT 208                                                01 
01040020209000000NON       United States Senator                                   DAVID DEWHURST                        PCT 209                                                01 
01040020210000001NON       United States Senator                                   DAVID DEWHURST                        PCT 210                                                01 
01040020211000000NON       United States Senator                                   DAVID DEWHURST                        PCT 211                                                01 
01040020212000005NON       United States Senator                                   DAVID DEWHURST                        PCT 212                                                01 
01040020213000000NON       United States Senator                                   DAVID DEWHURST                        PCT 213                                                01 
01040020214000000NON       United States Senator                                   DAVID DEWHURST                        PCT 214                                                01 
01040020215000001NON       United States Senator                                   DAVID DEWHURST                        PCT 215                                                01 
01040020216000003NON       United States Senator                                   DAVID DEWHURST                        PCT 216                                                01 
01040020217000000NON       United States Senator                                   DAVID DEWHURST                        PCT 217                                                01 
01040020218000000NON       United States Senator                                   DAVID DEWHURST                        PCT 218                                                01 
01040020219000000NON       United States Senator                                   DAVID DEWHURST                        PCT 219                                                01 
01040020220000001NON       United States Senator                                   DAVID DEWHURST                        PCT 220                                                01 
01040020221000001NON       United States Senator                                   DAVID DEWHURST                        PCT 221                                                01 
01040020222000000NON       United States Senator                                   DAVID DEWHURST                        PCT 222                                                01 
01040020223000001NON       United States Senator                                   DAVID DEWHURST                        PCT 223                                                01 
01040020224000003NON       United States Senator                                   DAVID DEWHURST                        PCT 224                                                01 
01040020225000000NON       United States Senator                                   DAVID DEWHURST                        PCT 225                                                01 
01040020226000000NON       United States Senator                                   DAVID DEWHURST                        PCT 226                                                01 
01040020227000001NON       United States Senator                                   DAVID DEWHURST                        PCT 227                                                01 
01040020228000001NON       United States Senator                                   DAVID DEWHURST                        PCT 228                                                01 
01040020229000004NON       United States Senator                                   DAVID DEWHURST                        PCT 229                                                01 
01040020230000000NON       United States Senator                                   DAVID DEWHURST                        PCT 230                                                01 
01040020231000000NON       United States Senator                                   DAVID DEWHURST                        PCT 231                                                01 
01040020232000001NON       United States Senator                                   DAVID DEWHURST                        PCT 232                                                01 
01040020233000000NON       United States Senator                                   DAVID DEWHURST                        PCT 233                                                01 
01040020234000003NON       United States Senator                                   DAVID DEWHURST                        PCT 234                                                01 
01040020235000001NON       United States Senator                                   DAVID DEWHURST                        PCT 235                                                01 
01040020236000003NON       United States Senator                                   DAVID DEWHURST                        PCT 236                                                01 
01040020237000000NON       United States Senator                                   DAVID DEWHURST                        PCT 237                                                01 
01040020238000000NON       United States Senator                                   DAVID DEWHURST                        PCT 238                                                01 
01040020239000001NON       United States Senator                                   DAVID DEWHURST                        PCT 239                                                01 
01040020240000001NON       United States Senator                                   DAVID DEWHURST                        PCT 240                                                01 
01040020241000000NON       United States Senator                                   DAVID DEWHURST                        PCT 241                                                01 
01040020242000000NON       United States Senator                                   DAVID DEWHURST                        PCT 242                                                01 
01040020243000000NON       United States Senator                                   DAVID DEWHURST                        PCT 243                                                01 
01040020244000000NON       United States Senator                                   DAVID DEWHURST                        PCT 244                                                01 
01040020245000000NON       United States Senator                                   DAVID DEWHURST                        PCT 245                                                01 
01040020246000000NON       United States Senator                                   DAVID DEWHURST                        PCT 246                                                01 
01040020247000000NON       United States Senator                                   DAVID DEWHURST                        PCT 247                                                01 
01040020248000000NON       United States Senator                                   DAVID DEWHURST                        PCT 248                                                01 
01040020249000002NON       United States Senator                                   DAVID DEWHURST                        PCT 249                                                01 
01040020250000000NON       United States Senator                                   DAVID DEWHURST                        PCT 250                                                01 
01040020251000000NON       United States Senator                                   DAVID DEWHURST                        PCT 251                                                01 
01040020252000000NON       United States Senator                                   DAVID DEWHURST                        PCT 252                                                01 
01040020253000000NON       United States Senator                                   DAVID DEWHURST                        PCT 253                                                01 
01040020254000000NON       United States Senator                                   DAVID DEWHURST                        PCT 254                                                01 
01040020255000001NON       United States Senator                                   DAVID DEWHURST                        PCT 255                                                01 
01040020256000000NON       United States Senator                                   DAVID DEWHURST                        PCT 256                                                01 
01040020257000001NON       United States Senator                                   DAVID DEWHURST                        PCT 257                                                01 
01040030001000000          United States Senator                                   OVER VOTES                            PCT 001                                                01 
01040030002000000          United States Senator                                   OVER VOTES                            PCT 002                                                01 
01040030003000000          United States Senator                                   OVER VOTES                            PCT 003                                                01 
01040030004000000          United States Senator                                   OVER VOTES                            PCT 004                                                01 
01040030005000000          United States Senator                                   OVER VOTES                            PCT 005                                                01 
01040030006000000          United States Senator                                   OVER VOTES                            PCT 006                                                01 
01040030007000000          United States Senator                                   OVER VOTES                            PCT 007                                                01 
01040030008000000          United States Senator                                   OVER VOTES                            PCT 008                                                01 
01040030009000000          United States Senator                                   OVER VOTES                            PCT 009                                                01 
01040030010000000          United States Senator                                   OVER VOTES                            PCT 010                                                01 
01040030011000000          United States Senator                                   OVER VOTES                            PCT 011                                                01 
01040030012000000          United States Senator                                   OVER VOTES                            PCT 012                                                01 
01040030013000000          United States Senator                                   OVER VOTES                            PCT 013                                                01 
01040030014000000          United States Senator                                   OVER VOTES                            PCT 014                                                01 
01040030015000000          United States Senator                                   OVER VOTES                            PCT 015                                                01 
01040030016000000          United States Senator                                   OVER VOTES                            PCT 016                                                01 
01040030017000000          United States Senator                                   OVER VOTES                            PCT 017                                                01 
01040030018000000          United States Senator                                   OVER VOTES                            PCT 018                                                01 
01040030019000000          United States Senator                                   OVER VOTES                            PCT 019                                                01 
01040030020000000          United States Senator                                   OVER VOTES                            PCT 020                                                01 
01040030021000000          United States Senator                                   OVER VOTES                            PCT 021                                                01 
01040030022000000          United States Senator                                   OVER VOTES                            PCT 022                                                01 
01040030023000000          United States Senator                                   OVER VOTES                            PCT 023                                                01 
01040030024000000          United States Senator                                   OVER VOTES                            PCT 024                                                01 
01040030025000000          United States Senator                                   OVER VOTES                            PCT 025                                                01 
01040030026000000          United States Senator                                   OVER VOTES                            PCT 026                                                01 
01040030027000000          United States Senator                                   OVER VOTES                            PCT 027                                                01 
01040030028000000          United States Senator                                   OVER VOTES                            PCT 028                                                01 
01040030029000000          United States Senator                                   OVER VOTES                            PCT 029                                                01 
01040030030000000          United States Senator                                   OVER VOTES                            PCT 030                                                01 
01040030031000000          United States Senator                                   OVER VOTES                            PCT 031                                                01 
01040030032000000          United States Senator                                   OVER VOTES                            PCT 032                                                01 
01040030033000000          United States Senator                                   OVER VOTES                            PCT 033                                                01 
01040030034000000          United States Senator                                   OVER VOTES                            PCT 034                                                01 
01040030035000000          United States Senator                                   OVER VOTES                            PCT 035                                                01 
01040030036000000          United States Senator                                   OVER VOTES                            PCT 036                                                01 
01040030037000000          United States Senator                                   OVER VOTES                            PCT 037                                                01 
01040030038000000          United States Senator                                   OVER VOTES                            PCT 038                                                01 
