01130010001000022DEM       United States Senator                                   Paul Sadler                           Calvert                                                01 
01130010002000012DEM       United States Senator                                   Paul Sadler                           Hearne                                                 01 
01130010003000043DEM       United States Senator                                   Paul Sadler                           Franklin                                               01 
01130010004000018DEM       United States Senator                                   Paul Sadler                           Bremond                                                01 
01130010005000005DEM       United States Senator                                   Paul Sadler                           Seale                                                  01 
01130010006000013DEM       United States Senator                                   Paul Sadler                           Benchley                                               01 
01130020001000019DEM       United States Senator                                   Grady Yarbrough                       Calvert                                                01 
01130020002000012DEM       United States Senator                                   Grady Yarbrough                       Hearne                                                 01 
01130020003000018DEM       United States Senator                                   Grady Yarbrough                       Franklin                                               01 
01130020004000006DEM       United States Senator                                   Grady Yarbrough                       Bremond                                                01 
01130020005000005DEM       United States Senator                                   Grady Yarbrough                       Seale                                                  01 
01130020006000005DEM       United States Senator                                   Grady Yarbrough                       Benchley                                               01 
01130030001000000DEM       United States Senator                                   OVER VOTES                            Calvert                                                01 
01130030002000001DEM       United States Senator                                   OVER VOTES                            Hearne                                                 01 
01130030003000000DEM       United States Senator                                   OVER VOTES                            Franklin                                               01 
01130030004000000DEM       United States Senator                                   OVER VOTES                            Bremond                                                01 
01130030005000000DEM       United States Senator                                   OVER VOTES                            Seale                                                  01 
01130030006000000DEM       United States Senator                                   OVER VOTES                            Benchley                                               01 
01130040001000000DEM       United States Senator                                   UNDER VOTES                           Calvert                                                01 
01130040002000000DEM       United States Senator                                   UNDER VOTES                           Hearne                                                 01 
01130040003000000DEM       United States Senator                                   UNDER VOTES                           Franklin                                               01 
01130040004000000DEM       United States Senator                                   UNDER VOTES                           Bremond                                                01 
01130040005000000DEM       United States Senator                                   UNDER VOTES                           Seale                                                  01 
01130040006000000DEM       United States Senator                                   UNDER VOTES                           Benchley                                               01 
