01010010001003674000000000000000000000000000000          REGISTERED VOTERS - TOTAL                               REGISTERED VOTERS - TOTAL             BOX 1                                                  00 
01010010002004819000000000000000000000000000000          REGISTERED VOTERS - TOTAL                               REGISTERED VOTERS - TOTAL             BOX 2                                                  00 
01010010003002096000000000000000000000000000000          REGISTERED VOTERS - TOTAL                               REGISTERED VOTERS - TOTAL             BOX 3                                                  00 
01010010004002233000000000000000000000000000000          REGISTERED VOTERS - TOTAL                               REGISTERED VOTERS - TOTAL             BOX 4                                                  00 
01010010005002611000000000000000000000000000000          REGISTERED VOTERS - TOTAL                               REGISTERED VOTERS - TOTAL             BOX 5                                                  00 
01010010006003489000000000000000000000000000000          REGISTERED VOTERS - TOTAL                               REGISTERED VOTERS - TOTAL             BOX 6                                                  00 
01010010007011368000000000000000000000000000000          REGISTERED VOTERS - TOTAL                               REGISTERED VOTERS - TOTAL             BOX 7                                                  00 
01020010001000483000066000083000000000334000000          BALLOTS CAST - TOTAL                                    BALLOTS CAST - TOTAL                  BOX 1                                                  00 
01020010002000656000098000079000002000477000000          BALLOTS CAST - TOTAL                                    BALLOTS CAST - TOTAL                  BOX 2                                                  00 
01020010003000329000031000078000002000218000000          BALLOTS CAST - TOTAL                                    BALLOTS CAST - TOTAL                  BOX 3                                                  00 
01020010004000391000049000067000000000275000000          BALLOTS CAST - TOTAL                                    BALLOTS CAST - TOTAL                  BOX 4                                                  00 
01020010005000411000042000073000000000296000000          BALLOTS CAST - TOTAL                                    BALLOTS CAST - TOTAL                  BOX 5                                                  00 
01020010006000666000072000259000000000335000000          BALLOTS CAST - TOTAL                                    BALLOTS CAST - TOTAL                  BOX 6                                                  00 
01020010007002986000339001690000002000955000000          BALLOTS CAST - TOTAL                                    BALLOTS CAST - TOTAL                  BOX 7                                                  00 
01030010001000465000065000082000000000318000000REP       BALLOTS CAST - REPUBLICAN PARTY                         BALLOTS CAST - REPUBLICAN PARTY       BOX 1                                                  00 
01030010002000636000098000074000002000462000000REP       BALLOTS CAST - REPUBLICAN PARTY                         BALLOTS CAST - REPUBLICAN PARTY       BOX 2                                                  00 
01030010003000302000028000077000002000195000000REP       BALLOTS CAST - REPUBLICAN PARTY                         BALLOTS CAST - REPUBLICAN PARTY       BOX 3                                                  00 
01030010004000372000049000062000000000261000000REP       BALLOTS CAST - REPUBLICAN PARTY                         BALLOTS CAST - REPUBLICAN PARTY       BOX 4                                                  00 
01030010005000382000041000072000000000269000000REP       BALLOTS CAST - REPUBLICAN PARTY                         BALLOTS CAST - REPUBLICAN PARTY       BOX 5                                                  00 
01030010006000634000070000240000000000324000000REP       BALLOTS CAST - REPUBLICAN PARTY                         BALLOTS CAST - REPUBLICAN PARTY       BOX 6                                                  00 
01030010007002824000321001597000002000904000000REP       BALLOTS CAST - REPUBLICAN PARTY                         BALLOTS CAST - REPUBLICAN PARTY       BOX 7                                                  00 
01040010001000018000001000001000000000016000000DEM       BALLOTS CAST - DEMOCRATIC PARTY                         BALLOTS CAST - DEMOCRATIC PARTY       BOX 1                                                  00 
01040010002000020000000000005000000000015000000DEM       BALLOTS CAST - DEMOCRATIC PARTY                         BALLOTS CAST - DEMOCRATIC PARTY       BOX 2                                                  00 
01040010003000027000003000001000000000023000000DEM       BALLOTS CAST - DEMOCRATIC PARTY                         BALLOTS CAST - DEMOCRATIC PARTY       BOX 3                                                  00 
01040010004000019000000000005000000000014000000DEM       BALLOTS CAST - DEMOCRATIC PARTY                         BALLOTS CAST - DEMOCRATIC PARTY       BOX 4                                                  00 
01040010005000029000001000001000000000027000000DEM       BALLOTS CAST - DEMOCRATIC PARTY                         BALLOTS CAST - DEMOCRATIC PARTY       BOX 5                                                  00 
01040010006000032000002000019000000000011000000DEM       BALLOTS CAST - DEMOCRATIC PARTY                         BALLOTS CAST - DEMOCRATIC PARTY       BOX 6                                                  00 
01040010007000162000018000093000000000051000000DEM       BALLOTS CAST - DEMOCRATIC PARTY                         BALLOTS CAST - DEMOCRATIC PARTY       BOX 7                                                  00 
01050010001000188000014000033000000000141000000REP       US Senator RUSK COUNTYWIDE                              Ted Cruz                              BOX 1                                                  01 
01050010002000289000029000040000002000218000000REP       US Senator RUSK COUNTYWIDE                              Ted Cruz                              BOX 2                                                  01 
01050010003000138000010000032000002000094000000REP       US Senator RUSK COUNTYWIDE                              Ted Cruz                              BOX 3                                                  01 
01050010004000184000012000024000000000148000000REP       US Senator RUSK COUNTYWIDE                              Ted Cruz                              BOX 4                                                  01 
01050010005000202000011000036000000000155000000REP       US Senator RUSK COUNTYWIDE                              Ted Cruz                              BOX 5                                                  01 
01050010006000293000018000098000000000177000000REP       US Senator RUSK COUNTYWIDE                              Ted Cruz                              BOX 6                                                  01 
01050010007001033000068000533000002000430000000REP       US Senator RUSK COUNTYWIDE                              Ted Cruz                              BOX 7                                                  01 
01050020001000261000051000047000000000163000000REP       US Senator RUSK COUNTYWIDE                              David Dewhurst                        BOX 1                                                  01 
01050020002000333000069000034000000000230000000REP       US Senator RUSK COUNTYWIDE                              David Dewhurst                        BOX 2                                                  01 
01050020003000153000017000041000000000095000000REP       US Senator RUSK COUNTYWIDE                              David Dewhurst                        BOX 3                                                  01 
01050020004000181000037000038000000000106000000REP       US Senator RUSK COUNTYWIDE                              David Dewhurst                        BOX 4                                                  01 
01050020005000165000029000033000000000103000000REP       US Senator RUSK COUNTYWIDE                              David Dewhurst                        BOX 5                                                  01 
01050020006000301000051000122000000000128000000REP       US Senator RUSK COUNTYWIDE                              David Dewhurst                        BOX 6                                                  01 
01050020007001602000227000942000000000433000000REP       US Senator RUSK COUNTYWIDE                              David Dewhurst                        BOX 7                                                  01 
01050030001000000000000000000000000000000000000REP       US Senator RUSK COUNTYWIDE                              OVER VOTES                            BOX 1                                                  01 
01050030002000000000000000000000000000000000000REP       US Senator RUSK COUNTYWIDE                              OVER VOTES                            BOX 2                                                  01 
01050030003000000000000000000000000000000000000REP       US Senator RUSK COUNTYWIDE                              OVER VOTES                            BOX 3                                                  01 
01050030004000000000000000000000000000000000000REP       US Senator RUSK COUNTYWIDE                              OVER VOTES                            BOX 4                                                  01 
01050030005000000000000000000000000000000000000REP       US Senator RUSK COUNTYWIDE                              OVER VOTES                            BOX 5                                                  01 
01050030006000000000000000000000000000000000000REP       US Senator RUSK COUNTYWIDE                              OVER VOTES                            BOX 6                                                  01 
01050030007000000000000000000000000000000000000REP       US Senator RUSK COUNTYWIDE                              OVER VOTES                            BOX 7                                                  01 
01050040001000016000000000002000000000014000000REP       US Senator RUSK COUNTYWIDE                              UNDER VOTES                           BOX 1                                                  01 
01050040002000014000000000000000000000014000000REP       US Senator RUSK COUNTYWIDE                              UNDER VOTES                           BOX 2                                                  01 
01050040003000011000001000004000000000006000000REP       US Senator RUSK COUNTYWIDE                              UNDER VOTES                           BOX 3                                                  01 
01050040004000007000000000000000000000007000000REP       US Senator RUSK COUNTYWIDE                              UNDER VOTES                           BOX 4                                                  01 
01050040005000015000001000003000000000011000000REP       US Senator RUSK COUNTYWIDE                              UNDER VOTES                           BOX 5                                                  01 
01050040006000040000001000020000000000019000000REP       US Senator RUSK COUNTYWIDE                              UNDER VOTES                           BOX 6                                                  01 
01050040007000189000026000122000000000041000000REP       US Senator RUSK COUNTYWIDE                              UNDER VOTES                           BOX 7                                                  01 
01060010001000156000030000025000000000101000000REP       Railroad Commissioner RUSK COUNTYWIDE                   Warren Chisum                         BOX 1                                                  01 
01060010002000198000030000022000002000144000000REP       Railroad Commissioner RUSK COUNTYWIDE                   Warren Chisum                         BOX 2                                                  01 
01060010003000096000010000025000000000061000000REP       Railroad Commissioner RUSK COUNTYWIDE                   Warren Chisum                         BOX 3                                                  01 
01060010004000128000023000022000000000083000000REP       Railroad Commissioner RUSK COUNTYWIDE                   Warren Chisum                         BOX 4                                                  01 
01060010005000114000010000021000000000083000000REP       Railroad Commissioner RUSK COUNTYWIDE                   Warren Chisum                         BOX 5                                                  01 
01060010006000218000028000082000000000108000000REP       Railroad Commissioner RUSK COUNTYWIDE                   Warren Chisum                         BOX 6                                                  01 
01060010007000890000093000487000001000309000000REP       Railroad Commissioner RUSK COUNTYWIDE                   Warren Chisum                         BOX 7                                                  01 
01060020001000249000030000046000000000173000000REP       Railroad Commissioner RUSK COUNTYWIDE                   Christi Craddick                      BOX 1                                                  01 
01060020002000358000061000046000000000251000000REP       Railroad Commissioner RUSK COUNTYWIDE                   Christi Craddick                      BOX 2                                                  01 
01060020003000164000014000040000002000108000000REP       Railroad Commissioner RUSK COUNTYWIDE                   Christi Craddick                      BOX 3                                                  01 
01060020004000206000026000035000000000145000000REP       Railroad Commissioner RUSK COUNTYWIDE                   Christi Craddick                      BOX 4                                                  01 
01060020005000199000021000041000000000137000000REP       Railroad Commissioner RUSK COUNTYWIDE                   Christi Craddick                      BOX 5                                                  01 
01060020006000293000028000119000000000146000000REP       Railroad Commissioner RUSK COUNTYWIDE                   Christi Craddick                      BOX 6                                                  01 
01060020007001330000144000777000001000408000000REP       Railroad Commissioner RUSK COUNTYWIDE                   Christi Craddick                      BOX 7                                                  01 
01060030001000000000000000000000000000000000000REP       Railroad Commissioner RUSK COUNTYWIDE                   OVER VOTES                            BOX 1                                                  01 
01060030002000000000000000000000000000000000000REP       Railroad Commissioner RUSK COUNTYWIDE                   OVER VOTES                            BOX 2                                                  01 
01060030003000000000000000000000000000000000000REP       Railroad Commissioner RUSK COUNTYWIDE                   OVER VOTES                            BOX 3                                                  01 
01060030004000000000000000000000000000000000000REP       Railroad Commissioner RUSK COUNTYWIDE                   OVER VOTES                            BOX 4                                                  01 
01060030005000000000000000000000000000000000000REP       Railroad Commissioner RUSK COUNTYWIDE                   OVER VOTES                            BOX 5                                                  01 
01060030006000000000000000000000000000000000000REP       Railroad Commissioner RUSK COUNTYWIDE                   OVER VOTES                            BOX 6                                                  01 
01060030007000000000000000000000000000000000000REP       Railroad Commissioner RUSK COUNTYWIDE                   OVER VOTES                            BOX 7                                                  01 
01060040001000060000005000011000000000044000000REP       Railroad Commissioner RUSK COUNTYWIDE                   UNDER VOTES                           BOX 1                                                  01 
01060040002000080000007000006000000000067000000REP       Railroad Commissioner RUSK COUNTYWIDE                   UNDER VOTES                           BOX 2                                                  01 
01060040003000042000004000012000000000026000000REP       Railroad Commissioner RUSK COUNTYWIDE                   UNDER VOTES                           BOX 3                                                  01 
01060040004000038000000000005000000000033000000REP       Railroad Commissioner RUSK COUNTYWIDE                   UNDER VOTES                           BOX 4                                                  01 
01060040005000069000010000010000000000049000000REP       Railroad Commissioner RUSK COUNTYWIDE                   UNDER VOTES                           BOX 5                                                  01 
01060040006000123000014000039000000000070000000REP       Railroad Commissioner RUSK COUNTYWIDE                   UNDER VOTES                           BOX 6                                                  01 
01060040007000604000084000333000000000187000000REP       Railroad Commissioner RUSK COUNTYWIDE                   UNDER VOTES                           BOX 7                                                  01 
01070010001000172000027000027000000000118000000REP       Railroad Commissioner, UNEXP RUSK COUNTYWIDE            Greg Parker                           BOX 1                                                  01 
01070010002000249000038000033000000000178000000REP       Railroad Commissioner, UNEXP RUSK COUNTYWIDE            Greg Parker                           BOX 2                                                  01 
01070010003000130000013000036000002000079000000REP       Railroad Commissioner, UNEXP RUSK COUNTYWIDE            Greg Parker                           BOX 3                                                  01 
01070010004000166000029000027000000000110000000REP       Railroad Commissioner, UNEXP RUSK COUNTYWIDE            Greg Parker                           BOX 4                                                  01 
01070010005000137000012000025000000000100000000REP       Railroad Commissioner, UNEXP RUSK COUNTYWIDE            Greg Parker                           BOX 5                                                  01 
01070010006000252000032000100000000000120000000REP       Railroad Commissioner, UNEXP RUSK COUNTYWIDE            Greg Parker                           BOX 6                                                  01 
01070010007001108000119000605000000000384000000REP       Railroad Commissioner, UNEXP RUSK COUNTYWIDE            Greg Parker                           BOX 7                                                  01 
01070020001000216000032000044000000000140000000REP       Railroad Commissioner, UNEXP RUSK COUNTYWIDE            Barry Smitherman                      BOX 1                                                  01 
01070020002000283000049000032000002000200000000REP       Railroad Commissioner, UNEXP RUSK COUNTYWIDE            Barry Smitherman                      BOX 2                                                  01 
01070020003000121000011000026000000000084000000REP       Railroad Commissioner, UNEXP RUSK COUNTYWIDE            Barry Smitherman                      BOX 3                                                  01 
01070020004000142000017000024000000000101000000REP       Railroad Commissioner, UNEXP RUSK COUNTYWIDE            Barry Smitherman                      BOX 4                                                  01 
01070020005000126000011000027000000000088000000REP       Railroad Commissioner, UNEXP RUSK COUNTYWIDE            Barry Smitherman                      BOX 5                                                  01 
01070020006000236000025000091000000000120000000REP       Railroad Commissioner, UNEXP RUSK COUNTYWIDE            Barry Smitherman                      BOX 6                                                  01 
01070020007000892000091000528000002000271000000REP       Railroad Commissioner, UNEXP RUSK COUNTYWIDE            Barry Smitherman                      BOX 7                                                  01 
01070030001000000000000000000000000000000000000REP       Railroad Commissioner, UNEXP RUSK COUNTYWIDE            OVER VOTES                            BOX 1                                                  01 
01070030002000000000000000000000000000000000000REP       Railroad Commissioner, UNEXP RUSK COUNTYWIDE            OVER VOTES                            BOX 2                                                  01 
01070030003000000000000000000000000000000000000REP       Railroad Commissioner, UNEXP RUSK COUNTYWIDE            OVER VOTES                            BOX 3                                                  01 
01070030004000000000000000000000000000000000000REP       Railroad Commissioner, UNEXP RUSK COUNTYWIDE            OVER VOTES                            BOX 4                                                  01 
01070030005000000000000000000000000000000000000REP       Railroad Commissioner, UNEXP RUSK COUNTYWIDE            OVER VOTES                            BOX 5                                                  01 
01070030006000000000000000000000000000000000000REP       Railroad Commissioner, UNEXP RUSK COUNTYWIDE            OVER VOTES                            BOX 6                                                  01 
01070030007000000000000000000000000000000000000REP       Railroad Commissioner, UNEXP RUSK COUNTYWIDE            OVER VOTES                            BOX 7                                                  01 
01070040001000077000006000011000000000060000000REP       Railroad Commissioner, UNEXP RUSK COUNTYWIDE            UNDER VOTES                           BOX 1                                                  01 
01070040002000104000011000009000000000084000000REP       Railroad Commissioner, UNEXP RUSK COUNTYWIDE            UNDER VOTES                           BOX 2                                                  01 
01070040003000051000004000015000000000032000000REP       Railroad Commissioner, UNEXP RUSK COUNTYWIDE            UNDER VOTES                           BOX 3                                                  01 
01070040004000064000003000011000000000050000000REP       Railroad Commissioner, UNEXP RUSK COUNTYWIDE            UNDER VOTES                           BOX 4                                                  01 
01070040005000119000018000020000000000081000000REP       Railroad Commissioner, UNEXP RUSK COUNTYWIDE            UNDER VOTES                           BOX 5                                                  01 
01070040006000146000013000049000000000084000000REP       Railroad Commissioner, UNEXP RUSK COUNTYWIDE            UNDER VOTES                           BOX 6                                                  01 
01070040007000824000111000464000000000249000000REP       Railroad Commissioner, UNEXP RUSK COUNTYWIDE            UNDER VOTES                           BOX 7                                                  01 
01080010001000219000034000039000000000146000000REP       Justice, Supreme Court, Place 4 RUSK COUNTYWIDE         John Devine                           BOX 1                                                  01 
01080010002000273000049000027000000000197000000REP       Justice, Supreme Court, Place 4 RUSK COUNTYWIDE         John Devine                           BOX 2                                                  01 
01080010003000124000012000032000000000080000000REP       Justice, Supreme Court, Place 4 RUSK COUNTYWIDE         John Devine                           BOX 3                                                  01 
01080010004000176000033000027000000000116000000REP       Justice, Supreme Court, Place 4 RUSK COUNTYWIDE         John Devine                           BOX 4                                                  01 
01080010005000135000016000023000000000096000000REP       Justice, Supreme Court, Place 4 RUSK COUNTYWIDE         John Devine                           BOX 5                                                  01 
01080010006000270000036000102000000000132000000REP       Justice, Supreme Court, Place 4 RUSK COUNTYWIDE         John Devine                           BOX 6                                                  01 
01080010007001102000125000620000001000356000000REP       Justice, Supreme Court, Place 4 RUSK COUNTYWIDE         John Devine                           BOX 7                                                  01 
01080020001000172000027000030000000000115000000REP       Justice, Supreme Court, Place 4 RUSK COUNTYWIDE         David Medina                          BOX 1                                                  01 
01080020002000239000032000034000002000171000000REP       Justice, Supreme Court, Place 4 RUSK COUNTYWIDE         David Medina                          BOX 2                                                  01 
01080020003000126000011000032000002000081000000REP       Justice, Supreme Court, Place 4 RUSK COUNTYWIDE         David Medina                          BOX 3                                                  01 
01080020004000133000013000022000000000098000000REP       Justice, Supreme Court, Place 4 RUSK COUNTYWIDE         David Medina                          BOX 4                                                  01 
01080020005000132000009000027000000000096000000REP       Justice, Supreme Court, Place 4 RUSK COUNTYWIDE         David Medina                          BOX 5                                                  01 
01080020006000213000019000088000000000106000000REP       Justice, Supreme Court, Place 4 RUSK COUNTYWIDE         David Medina                          BOX 6                                                  01 
01080020007000899000084000509000001000305000000REP       Justice, Supreme Court, Place 4 RUSK COUNTYWIDE         David Medina                          BOX 7                                                  01 
01080030001000000000000000000000000000000000000REP       Justice, Supreme Court, Place 4 RUSK COUNTYWIDE         OVER VOTES                            BOX 1                                                  01 
01080030002000000000000000000000000000000000000REP       Justice, Supreme Court, Place 4 RUSK COUNTYWIDE         OVER VOTES                            BOX 2                                                  01 
01080030003000000000000000000000000000000000000REP       Justice, Supreme Court, Place 4 RUSK COUNTYWIDE         OVER VOTES                            BOX 3                                                  01 
01080030004000000000000000000000000000000000000REP       Justice, Supreme Court, Place 4 RUSK COUNTYWIDE         OVER VOTES                            BOX 4                                                  01 
01080030005000000000000000000000000000000000000REP       Justice, Supreme Court, Place 4 RUSK COUNTYWIDE         OVER VOTES                            BOX 5                                                  01 
01080030006000000000000000000000000000000000000REP       Justice, Supreme Court, Place 4 RUSK COUNTYWIDE         OVER VOTES                            BOX 6                                                  01 
01080030007000000000000000000000000000000000000REP       Justice, Supreme Court, Place 4 RUSK COUNTYWIDE         OVER VOTES                            BOX 7                                                  01 
01080040001000074000004000013000000000057000000REP       Justice, Supreme Court, Place 4 RUSK COUNTYWIDE         UNDER VOTES                           BOX 1                                                  01 
01080040002000124000017000013000000000094000000REP       Justice, Supreme Court, Place 4 RUSK COUNTYWIDE         UNDER VOTES                           BOX 2                                                  01 
01080040003000052000005000013000000000034000000REP       Justice, Supreme Court, Place 4 RUSK COUNTYWIDE         UNDER VOTES                           BOX 3                                                  01 
01080040004000063000003000013000000000047000000REP       Justice, Supreme Court, Place 4 RUSK COUNTYWIDE         UNDER VOTES                           BOX 4                                                  01 
01080040005000115000016000022000000000077000000REP       Justice, Supreme Court, Place 4 RUSK COUNTYWIDE         UNDER VOTES                           BOX 5                                                  01 
01080040006000151000015000050000000000086000000REP       Justice, Supreme Court, Place 4 RUSK COUNTYWIDE         UNDER VOTES                           BOX 6                                                  01 
01080040007000823000112000468000000000243000000REP       Justice, Supreme Court, Place 4 RUSK COUNTYWIDE         UNDER VOTES                           BOX 7                                                  01 
01090010001000296000046000055000000000195000000REP       State Representative, District 11 RUSK COUNTYWIDE       Chuck Hopson                          BOX 1                                                  01 
01090010002000385000076000044000002000263000000REP       State Representative, District 11 RUSK COUNTYWIDE       Chuck Hopson                          BOX 2                                                  01 
01090010003000176000019000046000000000111000000REP       State Representative, District 11 RUSK COUNTYWIDE       Chuck Hopson                          BOX 3                                                  01 
01090010004000225000041000037000000000147000000REP       State Representative, District 11 RUSK COUNTYWIDE       Chuck Hopson                          BOX 4                                                  01 
01090010005000177000024000032000000000121000000REP       State Representative, District 11 RUSK COUNTYWIDE       Chuck Hopson                          BOX 5                                                  01 
01090010006000420000061000156000000000203000000REP       State Representative, District 11 RUSK COUNTYWIDE       Chuck Hopson                          BOX 6                                                  01 
01090010007001900000252001086000000000562000000REP       State Representative, District 11 RUSK COUNTYWIDE       Chuck Hopson                          BOX 7                                                  01 
01090020001000163000019000027000000000117000000REP       State Representative, District 11 RUSK COUNTYWIDE       Travis Clardy                         BOX 1                                                  01 
01090020002000241000022000029000000000190000000REP       State Representative, District 11 RUSK COUNTYWIDE       Travis Clardy                         BOX 2                                                  01 
01090020003000125000009000030000002000084000000REP       State Representative, District 11 RUSK COUNTYWIDE       Travis Clardy                         BOX 3                                                  01 
01090020004000146000008000025000000000113000000REP       State Representative, District 11 RUSK COUNTYWIDE       Travis Clardy                         BOX 4                                                  01 
01090020005000199000016000040000000000143000000REP       State Representative, District 11 RUSK COUNTYWIDE       Travis Clardy                         BOX 5                                                  01 
01090020006000200000009000079000000000112000000REP       State Representative, District 11 RUSK COUNTYWIDE       Travis Clardy                         BOX 6                                                  01 
01090020007000873000064000481000002000326000000REP       State Representative, District 11 RUSK COUNTYWIDE       Travis Clardy                         BOX 7                                                  01 
01090030001000000000000000000000000000000000000REP       State Representative, District 11 RUSK COUNTYWIDE       OVER VOTES                            BOX 1                                                  01 
01090030002000000000000000000000000000000000000REP       State Representative, District 11 RUSK COUNTYWIDE       OVER VOTES                            BOX 2                                                  01 
01090030003000000000000000000000000000000000000REP       State Representative, District 11 RUSK COUNTYWIDE       OVER VOTES                            BOX 3                                                  01 
01090030004000000000000000000000000000000000000REP       State Representative, District 11 RUSK COUNTYWIDE       OVER VOTES                            BOX 4                                                  01 
01090030005000000000000000000000000000000000000REP       State Representative, District 11 RUSK COUNTYWIDE       OVER VOTES                            BOX 5                                                  01 
01090030006000000000000000000000000000000000000REP       State Representative, District 11 RUSK COUNTYWIDE       OVER VOTES                            BOX 6                                                  01 
01090030007000000000000000000000000000000000000REP       State Representative, District 11 RUSK COUNTYWIDE       OVER VOTES                            BOX 7                                                  01 
01090040001000006000000000000000000000006000000REP       State Representative, District 11 RUSK COUNTYWIDE       UNDER VOTES                           BOX 1                                                  01 
01090040002000010000000000001000000000009000000REP       State Representative, District 11 RUSK COUNTYWIDE       UNDER VOTES                           BOX 2                                                  01 
01090040003000001000000000001000000000000000000REP       State Representative, District 11 RUSK COUNTYWIDE       UNDER VOTES                           BOX 3                                                  01 
01090040004000001000000000000000000000001000000REP       State Representative, District 11 RUSK COUNTYWIDE       UNDER VOTES                           BOX 4                                                  01 
01090040005000006000001000000000000000005000000REP       State Representative, District 11 RUSK COUNTYWIDE       UNDER VOTES                           BOX 5                                                  01 
01090040006000014000000000005000000000009000000REP       State Representative, District 11 RUSK COUNTYWIDE       UNDER VOTES                           BOX 6                                                  01 
01090040007000051000005000030000000000016000000REP       State Representative, District 11 RUSK COUNTYWIDE       UNDER VOTES                           BOX 7                                                  01 
01100010001000183000029000023000000000131000000REP       Sheriff RUSK COUNTYWIDE                                 Jeff Price                            BOX 1                                                  01 
01100010002000306000032000041000001000232000000REP       Sheriff RUSK COUNTYWIDE                                 Jeff Price                            BOX 2                                                  01 
01100010003000155000015000045000000000095000000REP       Sheriff RUSK COUNTYWIDE                                 Jeff Price                            BOX 3                                                  01 
01100010004000182000024000028000000000130000000REP       Sheriff RUSK COUNTYWIDE                                 Jeff Price                            BOX 4                                                  01 
01100010005000155000017000031000000000107000000REP       Sheriff RUSK COUNTYWIDE                                 Jeff Price                            BOX 5                                                  01 
01100010006000308000029000112000000000167000000REP       Sheriff RUSK COUNTYWIDE                                 Jeff Price                            BOX 6                                                  01 
01100010007001661000174000946000002000539000000REP       Sheriff RUSK COUNTYWIDE                                 Jeff Price                            BOX 7                                                  01 
01100020001000260000032000056000000000172000000REP       Sheriff RUSK COUNTYWIDE                                 Darryl Norris                         BOX 1                                                  01 
01100020002000304000062000032000001000209000000REP       Sheriff RUSK COUNTYWIDE                                 Darryl Norris                         BOX 2                                                  01 
01100020003000134000012000030000002000090000000REP       Sheriff RUSK COUNTYWIDE                                 Darryl Norris                         BOX 3                                                  01 
01100020004000177000024000032000000000121000000REP       Sheriff RUSK COUNTYWIDE                                 Darryl Norris                         BOX 4                                                  01 
01100020005000212000021000040000000000151000000REP       Sheriff RUSK COUNTYWIDE                                 Darryl Norris                         BOX 5                                                  01 
01100020006000305000035000122000000000148000000REP       Sheriff RUSK COUNTYWIDE                                 Darryl Norris                         BOX 6                                                  01 
01100020007001132000140000635000000000357000000REP       Sheriff RUSK COUNTYWIDE                                 Darryl Norris                         BOX 7                                                  01 
01100030001000000000000000000000000000000000000REP       Sheriff RUSK COUNTYWIDE                                 OVER VOTES                            BOX 1                                                  01 
01100030002000000000000000000000000000000000000REP       Sheriff RUSK COUNTYWIDE                                 OVER VOTES                            BOX 2                                                  01 
01100030003000000000000000000000000000000000000REP       Sheriff RUSK COUNTYWIDE                                 OVER VOTES                            BOX 3                                                  01 
01100030004000000000000000000000000000000000000REP       Sheriff RUSK COUNTYWIDE                                 OVER VOTES                            BOX 4                                                  01 
01100030005000000000000000000000000000000000000REP       Sheriff RUSK COUNTYWIDE                                 OVER VOTES                            BOX 5                                                  01 
01100030006000000000000000000000000000000000000REP       Sheriff RUSK COUNTYWIDE                                 OVER VOTES                            BOX 6                                                  01 
01100030007000000000000000000000000000000000000REP       Sheriff RUSK COUNTYWIDE                                 OVER VOTES                            BOX 7                                                  01 
01100040001000022000004000003000000000015000000REP       Sheriff RUSK COUNTYWIDE                                 UNDER VOTES                           BOX 1                                                  01 
01100040002000026000004000001000000000021000000REP       Sheriff RUSK COUNTYWIDE                                 UNDER VOTES                           BOX 2                                                  01 
01100040003000013000001000002000000000010000000REP       Sheriff RUSK COUNTYWIDE                                 UNDER VOTES                           BOX 3                                                  01 
01100040004000013000001000002000000000010000000REP       Sheriff RUSK COUNTYWIDE                                 UNDER VOTES                           BOX 4                                                  01 
01100040005000015000003000001000000000011000000REP       Sheriff RUSK COUNTYWIDE                                 UNDER VOTES                           BOX 5                                                  01 
01100040006000021000006000006000000000009000000REP       Sheriff RUSK COUNTYWIDE                                 UNDER VOTES                           BOX 6                                                  01 
01100040007000031000007000016000000000008000000REP       Sheriff RUSK COUNTYWIDE                                 UNDER VOTES                           BOX 7                                                  01 
01110010001000018000001000001000000000016000000DEM       US Senator RUSK COUNTYWIDE                              Paul Sadler                           BOX 1                                                  01 
01110010002000018000000000004000000000014000000DEM       US Senator RUSK COUNTYWIDE                              Paul Sadler                           BOX 2                                                  01 
01110010003000027000003000001000000000023000000DEM       US Senator RUSK COUNTYWIDE                              Paul Sadler                           BOX 3                                                  01 
01110010004000019000000000005000000000014000000DEM       US Senator RUSK COUNTYWIDE                              Paul Sadler                           BOX 4                                                  01 
01110010005000023000001000001000000000021000000DEM       US Senator RUSK COUNTYWIDE                              Paul Sadler                           BOX 5                                                  01 
01110010006000030000002000018000000000010000000DEM       US Senator RUSK COUNTYWIDE                              Paul Sadler                           BOX 6                                                  01 
01110010007000148000015000085000000000048000000DEM       US Senator RUSK COUNTYWIDE                              Paul Sadler                           BOX 7                                                  01 
01110020001000000000000000000000000000000000000DEM       US Senator RUSK COUNTYWIDE                              Grady Yarbrough                       BOX 1                                                  01 
01110020002000002000000000001000000000001000000DEM       US Senator RUSK COUNTYWIDE                              Grady Yarbrough                       BOX 2                                                  01 
01110020003000000000000000000000000000000000000DEM       US Senator RUSK COUNTYWIDE                              Grady Yarbrough                       BOX 3                                                  01 
01110020004000000000000000000000000000000000000DEM       US Senator RUSK COUNTYWIDE                              Grady Yarbrough                       BOX 4                                                  01 
01110020005000006000000000000000000000006000000DEM       US Senator RUSK COUNTYWIDE                              Grady Yarbrough                       BOX 5                                                  01 
01110020006000002000000000001000000000001000000DEM       US Senator RUSK COUNTYWIDE                              Grady Yarbrough                       BOX 6                                                  01 
01110020007000013000003000007000000000003000000DEM       US Senator RUSK COUNTYWIDE                              Grady Yarbrough                       BOX 7                                                  01 
01110030001000000000000000000000000000000000000DEM       US Senator RUSK COUNTYWIDE                              OVER VOTES                            BOX 1                                                  01 
01110030002000000000000000000000000000000000000DEM       US Senator RUSK COUNTYWIDE                              OVER VOTES                            BOX 2                                                  01 
01110030003000000000000000000000000000000000000DEM       US Senator RUSK COUNTYWIDE                              OVER VOTES                            BOX 3                                                  01 
01110030004000000000000000000000000000000000000DEM       US Senator RUSK COUNTYWIDE                              OVER VOTES                            BOX 4                                                  01 
01110030005000000000000000000000000000000000000DEM       US Senator RUSK COUNTYWIDE                              OVER VOTES                            BOX 5                                                  01 
01110030006000000000000000000000000000000000000DEM       US Senator RUSK COUNTYWIDE                              OVER VOTES                            BOX 6                                                  01 
01110030007000000000000000000000000000000000000DEM       US Senator RUSK COUNTYWIDE                              OVER VOTES                            BOX 7                                                  01 
01110040001000000000000000000000000000000000000DEM       US Senator RUSK COUNTYWIDE                              UNDER VOTES                           BOX 1                                                  01 
01110040002000000000000000000000000000000000000DEM       US Senator RUSK COUNTYWIDE                              UNDER VOTES                           BOX 2                                                  01 
01110040003000000000000000000000000000000000000DEM       US Senator RUSK COUNTYWIDE                              UNDER VOTES                           BOX 3                                                  01 
01110040004000000000000000000000000000000000000DEM       US Senator RUSK COUNTYWIDE                              UNDER VOTES                           BOX 4                                                  01 
01110040005000000000000000000000000000000000000DEM       US Senator RUSK COUNTYWIDE                              UNDER VOTES                           BOX 5                                                  01 
01110040006000000000000000000000000000000000000DEM       US Senator RUSK COUNTYWIDE                              UNDER VOTES                           BOX 6                                                  01 
01110040007000001000000000001000000000000000000DEM       US Senator RUSK COUNTYWIDE                              UNDER VOTES                           BOX 7                                                  01 
