01040010001000016          BALLOTS CAST - TOTAL                                    BALLOTS CAST - TOTAL                  PRECINCT 5                                             00 
01040010002000026          BALLOTS CAST - TOTAL                                    BALLOTS CAST - TOTAL                  PRECINCT 6                                             00 
01040010003000234          BALLOTS CAST - TOTAL                                    BALLOTS CAST - TOTAL                  PRECINCT 7                                             00 
01040010004000109          BALLOTS CAST - TOTAL                                    BALLOTS CAST - TOTAL                  PRECINCT 8                                             00 
01040010005000036          BALLOTS CAST - TOTAL                                    BALLOTS CAST - TOTAL                  PRECINCT 9                                             00 
01040010006000175          BALLOTS CAST - TOTAL                                    BALLOTS CAST - TOTAL                  PRECINCT 10                                            00 
01040010007000009          BALLOTS CAST - TOTAL                                    BALLOTS CAST - TOTAL                  PRECINCT 11                                            00 
01040010008000084          BALLOTS CAST - TOTAL                                    BALLOTS CAST - TOTAL                  PRECINCT 12                                            00 
01040010009000037          BALLOTS CAST - TOTAL                                    BALLOTS CAST - TOTAL                  PRECINCT 13                                            00 
01040010010000005          BALLOTS CAST - TOTAL                                    BALLOTS CAST - TOTAL                  PRECINCT 14                                            00 
01040010011000061          BALLOTS CAST - TOTAL                                    BALLOTS CAST - TOTAL                  PRECINCT 15                                            00 
01050010001000015REP       BALLOTS CAST - REPUBLICAN PARTY                         BALLOTS CAST - REPUBLICAN PARTY       PRECINCT 5                                             00 
01050010002000026REP       BALLOTS CAST - REPUBLICAN PARTY                         BALLOTS CAST - REPUBLICAN PARTY       PRECINCT 6                                             00 
01050010003000229REP       BALLOTS CAST - REPUBLICAN PARTY                         BALLOTS CAST - REPUBLICAN PARTY       PRECINCT 7                                             00 
01050010004000109REP       BALLOTS CAST - REPUBLICAN PARTY                         BALLOTS CAST - REPUBLICAN PARTY       PRECINCT 8                                             00 
01050010005000035REP       BALLOTS CAST - REPUBLICAN PARTY                         BALLOTS CAST - REPUBLICAN PARTY       PRECINCT 9                                             00 
01050010006000172REP       BALLOTS CAST - REPUBLICAN PARTY                         BALLOTS CAST - REPUBLICAN PARTY       PRECINCT 10                                            00 
01050010007000009REP       BALLOTS CAST - REPUBLICAN PARTY                         BALLOTS CAST - REPUBLICAN PARTY       PRECINCT 11                                            00 
01050010008000082REP       BALLOTS CAST - REPUBLICAN PARTY                         BALLOTS CAST - REPUBLICAN PARTY       PRECINCT 12                                            00 
01050010009000034REP       BALLOTS CAST - REPUBLICAN PARTY                         BALLOTS CAST - REPUBLICAN PARTY       PRECINCT 13                                            00 
01050010010000005REP       BALLOTS CAST - REPUBLICAN PARTY                         BALLOTS CAST - REPUBLICAN PARTY       PRECINCT 14                                            00 
01050010011000058REP       BALLOTS CAST - REPUBLICAN PARTY                         BALLOTS CAST - REPUBLICAN PARTY       PRECINCT 15                                            00 
01060010001000001DEM       BALLOTS CAST - DEMOCRATIC PARTY                         BALLOTS CAST - DEMOCRATIC PARTY       PRECINCT 5                                             00 
01060010002000000DEM       BALLOTS CAST - DEMOCRATIC PARTY                         BALLOTS CAST - DEMOCRATIC PARTY       PRECINCT 6                                             00 
01060010003000005DEM       BALLOTS CAST - DEMOCRATIC PARTY                         BALLOTS CAST - DEMOCRATIC PARTY       PRECINCT 7                                             00 
01060010004000000DEM       BALLOTS CAST - DEMOCRATIC PARTY                         BALLOTS CAST - DEMOCRATIC PARTY       PRECINCT 8                                             00 
01060010005000001DEM       BALLOTS CAST - DEMOCRATIC PARTY                         BALLOTS CAST - DEMOCRATIC PARTY       PRECINCT 9                                             00 
01060010006000003DEM       BALLOTS CAST - DEMOCRATIC PARTY                         BALLOTS CAST - DEMOCRATIC PARTY       PRECINCT 10                                            00 
01060010007000000DEM       BALLOTS CAST - DEMOCRATIC PARTY                         BALLOTS CAST - DEMOCRATIC PARTY       PRECINCT 11                                            00 
01060010008000002DEM       BALLOTS CAST - DEMOCRATIC PARTY                         BALLOTS CAST - DEMOCRATIC PARTY       PRECINCT 12                                            00 
01060010009000003DEM       BALLOTS CAST - DEMOCRATIC PARTY                         BALLOTS CAST - DEMOCRATIC PARTY       PRECINCT 13                                            00 
01060010010000000DEM       BALLOTS CAST - DEMOCRATIC PARTY                         BALLOTS CAST - DEMOCRATIC PARTY       PRECINCT 14                                            00 
01060010011000003DEM       BALLOTS CAST - DEMOCRATIC PARTY                         BALLOTS CAST - DEMOCRATIC PARTY       PRECINCT 15                                            00 
01070010001000013REP       US Senator SCURRY COUNTYWIDE                            Ted Cruz                              PRECINCT 5                                             01 
01070010002000010REP       US Senator SCURRY COUNTYWIDE                            Ted Cruz                              PRECINCT 6                                             01 
01070010003000116REP       US Senator SCURRY COUNTYWIDE                            Ted Cruz                              PRECINCT 7                                             01 
01070010004000052REP       US Senator SCURRY COUNTYWIDE                            Ted Cruz                              PRECINCT 8                                             01 
01070010005000021REP       US Senator SCURRY COUNTYWIDE                            Ted Cruz                              PRECINCT 9                                             01 
01070010006000105REP       US Senator SCURRY COUNTYWIDE                            Ted Cruz                              PRECINCT 10                                            01 
01070010007000007REP       US Senator SCURRY COUNTYWIDE                            Ted Cruz                              PRECINCT 11                                            01 
01070010008000042REP       US Senator SCURRY COUNTYWIDE                            Ted Cruz                              PRECINCT 12                                            01 
01070010009000023REP       US Senator SCURRY COUNTYWIDE                            Ted Cruz                              PRECINCT 13                                            01 
01070010010000002REP       US Senator SCURRY COUNTYWIDE                            Ted Cruz                              PRECINCT 14                                            01 
01070010011000029REP       US Senator SCURRY COUNTYWIDE                            Ted Cruz                              PRECINCT 15                                            01 
01070020001000002REP       US Senator SCURRY COUNTYWIDE                            David Dewhurst                        PRECINCT 5                                             01 
01070020002000016REP       US Senator SCURRY COUNTYWIDE                            David Dewhurst                        PRECINCT 6                                             01 
01070020003000113REP       US Senator SCURRY COUNTYWIDE                            David Dewhurst                        PRECINCT 7                                             01 
01070020004000056REP       US Senator SCURRY COUNTYWIDE                            David Dewhurst                        PRECINCT 8                                             01 
01070020005000013REP       US Senator SCURRY COUNTYWIDE                            David Dewhurst                        PRECINCT 9                                             01 
01070020006000067REP       US Senator SCURRY COUNTYWIDE                            David Dewhurst                        PRECINCT 10                                            01 
01070020007000002REP       US Senator SCURRY COUNTYWIDE                            David Dewhurst                        PRECINCT 11                                            01 
01070020008000040REP       US Senator SCURRY COUNTYWIDE                            David Dewhurst                        PRECINCT 12                                            01 
01070020009000011REP       US Senator SCURRY COUNTYWIDE                            David Dewhurst                        PRECINCT 13                                            01 
01070020010000003REP       US Senator SCURRY COUNTYWIDE                            David Dewhurst                        PRECINCT 14                                            01 
01070020011000029REP       US Senator SCURRY COUNTYWIDE                            David Dewhurst                        PRECINCT 15                                            01 
01070030001000000REP       US Senator SCURRY COUNTYWIDE                            OVER VOTES                            PRECINCT 5                                             01 
01070030002000000REP       US Senator SCURRY COUNTYWIDE                            OVER VOTES                            PRECINCT 6                                             01 
01070030003000000REP       US Senator SCURRY COUNTYWIDE                            OVER VOTES                            PRECINCT 7                                             01 
01070030004000000REP       US Senator SCURRY COUNTYWIDE                            OVER VOTES                            PRECINCT 8                                             01 
01070030005000000REP       US Senator SCURRY COUNTYWIDE                            OVER VOTES                            PRECINCT 9                                             01 
01070030006000000REP       US Senator SCURRY COUNTYWIDE                            OVER VOTES                            PRECINCT 10                                            01 
01070030007000000REP       US Senator SCURRY COUNTYWIDE                            OVER VOTES                            PRECINCT 11                                            01 
01070030008000000REP       US Senator SCURRY COUNTYWIDE                            OVER VOTES                            PRECINCT 12                                            01 
01070030009000000REP       US Senator SCURRY COUNTYWIDE                            OVER VOTES                            PRECINCT 13                                            01 
01070030010000000REP       US Senator SCURRY COUNTYWIDE                            OVER VOTES                            PRECINCT 14                                            01 
01070030011000000REP       US Senator SCURRY COUNTYWIDE                            OVER VOTES                            PRECINCT 15                                            01 
01070040001000000REP       US Senator SCURRY COUNTYWIDE                            UNDER VOTES                           PRECINCT 5                                             01 
01070040002000000REP       US Senator SCURRY COUNTYWIDE                            UNDER VOTES                           PRECINCT 6                                             01 
01070040003000000REP       US Senator SCURRY COUNTYWIDE                            UNDER VOTES                           PRECINCT 7                                             01 
01070040004000001REP       US Senator SCURRY COUNTYWIDE                            UNDER VOTES                           PRECINCT 8                                             01 
01070040005000001REP       US Senator SCURRY COUNTYWIDE                            UNDER VOTES                           PRECINCT 9                                             01 
01070040006000000REP       US Senator SCURRY COUNTYWIDE                            UNDER VOTES                           PRECINCT 10                                            01 
01070040007000000REP       US Senator SCURRY COUNTYWIDE                            UNDER VOTES                           PRECINCT 11                                            01 
01070040008000000REP       US Senator SCURRY COUNTYWIDE                            UNDER VOTES                           PRECINCT 12                                            01 
01070040009000000REP       US Senator SCURRY COUNTYWIDE                            UNDER VOTES                           PRECINCT 13                                            01 
01070040010000000REP       US Senator SCURRY COUNTYWIDE                            UNDER VOTES                           PRECINCT 14                                            01 
01070040011000000REP       US Senator SCURRY COUNTYWIDE                            UNDER VOTES                           PRECINCT 15                                            01 
01080010001000003REP       Railroad Commissioner SCURRY COUNTYWIDE                 Warren Chisum                         PRECINCT 5                                             01 
01080010002000011REP       Railroad Commissioner SCURRY COUNTYWIDE                 Warren Chisum                         PRECINCT 6                                             01 
01080010003000081REP       Railroad Commissioner SCURRY COUNTYWIDE                 Warren Chisum                         PRECINCT 7                                             01 
01080010004000044REP       Railroad Commissioner SCURRY COUNTYWIDE                 Warren Chisum                         PRECINCT 8                                             01 
01080010005000012REP       Railroad Commissioner SCURRY COUNTYWIDE                 Warren Chisum                         PRECINCT 9                                             01 
01080010006000064REP       Railroad Commissioner SCURRY COUNTYWIDE                 Warren Chisum                         PRECINCT 10                                            01 
01080010007000007REP       Railroad Commissioner SCURRY COUNTYWIDE                 Warren Chisum                         PRECINCT 11                                            01 
01080010008000030REP       Railroad Commissioner SCURRY COUNTYWIDE                 Warren Chisum                         PRECINCT 12                                            01 
01080010009000014REP       Railroad Commissioner SCURRY COUNTYWIDE                 Warren Chisum                         PRECINCT 13                                            01 
01080010010000002REP       Railroad Commissioner SCURRY COUNTYWIDE                 Warren Chisum                         PRECINCT 14                                            01 
01080010011000030REP       Railroad Commissioner SCURRY COUNTYWIDE                 Warren Chisum                         PRECINCT 15                                            01 
01080020001000010REP       Railroad Commissioner SCURRY COUNTYWIDE                 Christi Craddick                      PRECINCT 5                                             01 
01080020002000014REP       Railroad Commissioner SCURRY COUNTYWIDE                 Christi Craddick                      PRECINCT 6                                             01 
01080020003000139REP       Railroad Commissioner SCURRY COUNTYWIDE                 Christi Craddick                      PRECINCT 7                                             01 
01080020004000056REP       Railroad Commissioner SCURRY COUNTYWIDE                 Christi Craddick                      PRECINCT 8                                             01 
01080020005000021REP       Railroad Commissioner SCURRY COUNTYWIDE                 Christi Craddick                      PRECINCT 9                                             01 
01080020006000098REP       Railroad Commissioner SCURRY COUNTYWIDE                 Christi Craddick                      PRECINCT 10                                            01 
01080020007000002REP       Railroad Commissioner SCURRY COUNTYWIDE                 Christi Craddick                      PRECINCT 11                                            01 
01080020008000041REP       Railroad Commissioner SCURRY COUNTYWIDE                 Christi Craddick                      PRECINCT 12                                            01 
01080020009000019REP       Railroad Commissioner SCURRY COUNTYWIDE                 Christi Craddick                      PRECINCT 13                                            01 
01080020010000003REP       Railroad Commissioner SCURRY COUNTYWIDE                 Christi Craddick                      PRECINCT 14                                            01 
01080020011000022REP       Railroad Commissioner SCURRY COUNTYWIDE                 Christi Craddick                      PRECINCT 15                                            01 
01080030001000000REP       Railroad Commissioner SCURRY COUNTYWIDE                 OVER VOTES                            PRECINCT 5                                             01 
01080030002000000REP       Railroad Commissioner SCURRY COUNTYWIDE                 OVER VOTES                            PRECINCT 6                                             01 
01080030003000000REP       Railroad Commissioner SCURRY COUNTYWIDE                 OVER VOTES                            PRECINCT 7                                             01 
01080030004000000REP       Railroad Commissioner SCURRY COUNTYWIDE                 OVER VOTES                            PRECINCT 8                                             01 
01080030005000000REP       Railroad Commissioner SCURRY COUNTYWIDE                 OVER VOTES                            PRECINCT 9                                             01 
01080030006000000REP       Railroad Commissioner SCURRY COUNTYWIDE                 OVER VOTES                            PRECINCT 10                                            01 
01080030007000000REP       Railroad Commissioner SCURRY COUNTYWIDE                 OVER VOTES                            PRECINCT 11                                            01 
01080030008000000REP       Railroad Commissioner SCURRY COUNTYWIDE                 OVER VOTES                            PRECINCT 12                                            01 
01080030009000000REP       Railroad Commissioner SCURRY COUNTYWIDE                 OVER VOTES                            PRECINCT 13                                            01 
01080030010000000REP       Railroad Commissioner SCURRY COUNTYWIDE                 OVER VOTES                            PRECINCT 14                                            01 
01080030011000000REP       Railroad Commissioner SCURRY COUNTYWIDE                 OVER VOTES                            PRECINCT 15                                            01 
01080040001000002REP       Railroad Commissioner SCURRY COUNTYWIDE                 UNDER VOTES                           PRECINCT 5                                             01 
01080040002000001REP       Railroad Commissioner SCURRY COUNTYWIDE                 UNDER VOTES                           PRECINCT 6                                             01 
01080040003000009REP       Railroad Commissioner SCURRY COUNTYWIDE                 UNDER VOTES                           PRECINCT 7                                             01 
01080040004000009REP       Railroad Commissioner SCURRY COUNTYWIDE                 UNDER VOTES                           PRECINCT 8                                             01 
01080040005000002REP       Railroad Commissioner SCURRY COUNTYWIDE                 UNDER VOTES                           PRECINCT 9                                             01 
01080040006000010REP       Railroad Commissioner SCURRY COUNTYWIDE                 UNDER VOTES                           PRECINCT 10                                            01 
01080040007000000REP       Railroad Commissioner SCURRY COUNTYWIDE                 UNDER VOTES                           PRECINCT 11                                            01 
01080040008000011REP       Railroad Commissioner SCURRY COUNTYWIDE                 UNDER VOTES                           PRECINCT 12                                            01 
01080040009000001REP       Railroad Commissioner SCURRY COUNTYWIDE                 UNDER VOTES                           PRECINCT 13                                            01 
01080040010000000REP       Railroad Commissioner SCURRY COUNTYWIDE                 UNDER VOTES                           PRECINCT 14                                            01 
01080040011000006REP       Railroad Commissioner SCURRY COUNTYWIDE                 UNDER VOTES                           PRECINCT 15                                            01 
01090010001000005REP       Railroad Commissioner, UNEXP SCURRY COUNTYWIDE          Greg Parker                           PRECINCT 5                                             01 
01090010002000013REP       Railroad Commissioner, UNEXP SCURRY COUNTYWIDE          Greg Parker                           PRECINCT 6                                             01 
01090010003000071REP       Railroad Commissioner, UNEXP SCURRY COUNTYWIDE          Greg Parker                           PRECINCT 7                                             01 
01090010004000040REP       Railroad Commissioner, UNEXP SCURRY COUNTYWIDE          Greg Parker                           PRECINCT 8                                             01 
01090010005000020REP       Railroad Commissioner, UNEXP SCURRY COUNTYWIDE          Greg Parker                           PRECINCT 9                                             01 
01090010006000069REP       Railroad Commissioner, UNEXP SCURRY COUNTYWIDE          Greg Parker                           PRECINCT 10                                            01 
01090010007000003REP       Railroad Commissioner, UNEXP SCURRY COUNTYWIDE          Greg Parker                           PRECINCT 11                                            01 
01090010008000030REP       Railroad Commissioner, UNEXP SCURRY COUNTYWIDE          Greg Parker                           PRECINCT 12                                            01 
01090010009000012REP       Railroad Commissioner, UNEXP SCURRY COUNTYWIDE          Greg Parker                           PRECINCT 13                                            01 
01090010010000002REP       Railroad Commissioner, UNEXP SCURRY COUNTYWIDE          Greg Parker                           PRECINCT 14                                            01 
01090010011000018REP       Railroad Commissioner, UNEXP SCURRY COUNTYWIDE          Greg Parker                           PRECINCT 15                                            01 
01090020001000008REP       Railroad Commissioner, UNEXP SCURRY COUNTYWIDE          Barry Smitherman                      PRECINCT 5                                             01 
01090020002000011REP       Railroad Commissioner, UNEXP SCURRY COUNTYWIDE          Barry Smitherman                      PRECINCT 6                                             01 
01090020003000134REP       Railroad Commissioner, UNEXP SCURRY COUNTYWIDE          Barry Smitherman                      PRECINCT 7                                             01 
01090020004000055REP       Railroad Commissioner, UNEXP SCURRY COUNTYWIDE          Barry Smitherman                      PRECINCT 8                                             01 
01090020005000014REP       Railroad Commissioner, UNEXP SCURRY COUNTYWIDE          Barry Smitherman                      PRECINCT 9                                             01 
01090020006000084REP       Railroad Commissioner, UNEXP SCURRY COUNTYWIDE          Barry Smitherman                      PRECINCT 10                                            01 
01090020007000006REP       Railroad Commissioner, UNEXP SCURRY COUNTYWIDE          Barry Smitherman                      PRECINCT 11                                            01 
01090020008000036REP       Railroad Commissioner, UNEXP SCURRY COUNTYWIDE          Barry Smitherman                      PRECINCT 12                                            01 
01090020009000018REP       Railroad Commissioner, UNEXP SCURRY COUNTYWIDE          Barry Smitherman                      PRECINCT 13                                            01 
01090020010000003REP       Railroad Commissioner, UNEXP SCURRY COUNTYWIDE          Barry Smitherman                      PRECINCT 14                                            01 
01090020011000031REP       Railroad Commissioner, UNEXP SCURRY COUNTYWIDE          Barry Smitherman                      PRECINCT 15                                            01 
01090030001000000REP       Railroad Commissioner, UNEXP SCURRY COUNTYWIDE          OVER VOTES                            PRECINCT 5                                             01 
01090030002000000REP       Railroad Commissioner, UNEXP SCURRY COUNTYWIDE          OVER VOTES                            PRECINCT 6                                             01 
01090030003000000REP       Railroad Commissioner, UNEXP SCURRY COUNTYWIDE          OVER VOTES                            PRECINCT 7                                             01 
01090030004000000REP       Railroad Commissioner, UNEXP SCURRY COUNTYWIDE          OVER VOTES                            PRECINCT 8                                             01 
01090030005000000REP       Railroad Commissioner, UNEXP SCURRY COUNTYWIDE          OVER VOTES                            PRECINCT 9                                             01 
01090030006000000REP       Railroad Commissioner, UNEXP SCURRY COUNTYWIDE          OVER VOTES                            PRECINCT 10                                            01 
01090030007000000REP       Railroad Commissioner, UNEXP SCURRY COUNTYWIDE          OVER VOTES                            PRECINCT 11                                            01 
01090030008000000REP       Railroad Commissioner, UNEXP SCURRY COUNTYWIDE          OVER VOTES                            PRECINCT 12                                            01 
01090030009000000REP       Railroad Commissioner, UNEXP SCURRY COUNTYWIDE          OVER VOTES                            PRECINCT 13                                            01 
01090030010000000REP       Railroad Commissioner, UNEXP SCURRY COUNTYWIDE          OVER VOTES                            PRECINCT 14                                            01 
01090030011000000REP       Railroad Commissioner, UNEXP SCURRY COUNTYWIDE          OVER VOTES                            PRECINCT 15                                            01 
01090040001000002REP       Railroad Commissioner, UNEXP SCURRY COUNTYWIDE          UNDER VOTES                           PRECINCT 5                                             01 
01090040002000002REP       Railroad Commissioner, UNEXP SCURRY COUNTYWIDE          UNDER VOTES                           PRECINCT 6                                             01 
01090040003000024REP       Railroad Commissioner, UNEXP SCURRY COUNTYWIDE          UNDER VOTES                           PRECINCT 7                                             01 
01090040004000014REP       Railroad Commissioner, UNEXP SCURRY COUNTYWIDE          UNDER VOTES                           PRECINCT 8                                             01 
01090040005000001REP       Railroad Commissioner, UNEXP SCURRY COUNTYWIDE          UNDER VOTES                           PRECINCT 9                                             01 
01090040006000019REP       Railroad Commissioner, UNEXP SCURRY COUNTYWIDE          UNDER VOTES                           PRECINCT 10                                            01 
01090040007000000REP       Railroad Commissioner, UNEXP SCURRY COUNTYWIDE          UNDER VOTES                           PRECINCT 11                                            01 
01090040008000016REP       Railroad Commissioner, UNEXP SCURRY COUNTYWIDE          UNDER VOTES                           PRECINCT 12                                            01 
01090040009000004REP       Railroad Commissioner, UNEXP SCURRY COUNTYWIDE          UNDER VOTES                           PRECINCT 13                                            01 
01090040010000000REP       Railroad Commissioner, UNEXP SCURRY COUNTYWIDE          UNDER VOTES                           PRECINCT 14                                            01 
01090040011000009REP       Railroad Commissioner, UNEXP SCURRY COUNTYWIDE          UNDER VOTES                           PRECINCT 15                                            01 
01100010001000003REP       Justice, Supreme Court, Place 4 SCURRY COUNTYWIDE       John Devine                           PRECINCT 5                                             01 
01100010002000017REP       Justice, Supreme Court, Place 4 SCURRY COUNTYWIDE       John Devine                           PRECINCT 6                                             01 
01100010003000115REP       Justice, Supreme Court, Place 4 SCURRY COUNTYWIDE       John Devine                           PRECINCT 7                                             01 
01100010004000062REP       Justice, Supreme Court, Place 4 SCURRY COUNTYWIDE       John Devine                           PRECINCT 8                                             01 
01100010005000019REP       Justice, Supreme Court, Place 4 SCURRY COUNTYWIDE       John Devine                           PRECINCT 9                                             01 
01100010006000094REP       Justice, Supreme Court, Place 4 SCURRY COUNTYWIDE       John Devine                           PRECINCT 10                                            01 
01100010007000005REP       Justice, Supreme Court, Place 4 SCURRY COUNTYWIDE       John Devine                           PRECINCT 11                                            01 
01100010008000040REP       Justice, Supreme Court, Place 4 SCURRY COUNTYWIDE       John Devine                           PRECINCT 12                                            01 
01100010009000012REP       Justice, Supreme Court, Place 4 SCURRY COUNTYWIDE       John Devine                           PRECINCT 13                                            01 
01100010010000003REP       Justice, Supreme Court, Place 4 SCURRY COUNTYWIDE       John Devine                           PRECINCT 14                                            01 
01100010011000021REP       Justice, Supreme Court, Place 4 SCURRY COUNTYWIDE       John Devine                           PRECINCT 15                                            01 
01100020001000009REP       Justice, Supreme Court, Place 4 SCURRY COUNTYWIDE       David Medina                          PRECINCT 5                                             01 
01100020002000008REP       Justice, Supreme Court, Place 4 SCURRY COUNTYWIDE       David Medina                          PRECINCT 6                                             01 
01100020003000091REP       Justice, Supreme Court, Place 4 SCURRY COUNTYWIDE       David Medina                          PRECINCT 7                                             01 
01100020004000032REP       Justice, Supreme Court, Place 4 SCURRY COUNTYWIDE       David Medina                          PRECINCT 8                                             01 
01100020005000015REP       Justice, Supreme Court, Place 4 SCURRY COUNTYWIDE       David Medina                          PRECINCT 9                                             01 
01100020006000060REP       Justice, Supreme Court, Place 4 SCURRY COUNTYWIDE       David Medina                          PRECINCT 10                                            01 
01100020007000004REP       Justice, Supreme Court, Place 4 SCURRY COUNTYWIDE       David Medina                          PRECINCT 11                                            01 
01100020008000029REP       Justice, Supreme Court, Place 4 SCURRY COUNTYWIDE       David Medina                          PRECINCT 12                                            01 
01100020009000017REP       Justice, Supreme Court, Place 4 SCURRY COUNTYWIDE       David Medina                          PRECINCT 13                                            01 
01100020010000002REP       Justice, Supreme Court, Place 4 SCURRY COUNTYWIDE       David Medina                          PRECINCT 14                                            01 
01100020011000033REP       Justice, Supreme Court, Place 4 SCURRY COUNTYWIDE       David Medina                          PRECINCT 15                                            01 
01100030001000000REP       Justice, Supreme Court, Place 4 SCURRY COUNTYWIDE       OVER VOTES                            PRECINCT 5                                             01 
01100030002000000REP       Justice, Supreme Court, Place 4 SCURRY COUNTYWIDE       OVER VOTES                            PRECINCT 6                                             01 
01100030003000000REP       Justice, Supreme Court, Place 4 SCURRY COUNTYWIDE       OVER VOTES                            PRECINCT 7                                             01 
01100030004000000REP       Justice, Supreme Court, Place 4 SCURRY COUNTYWIDE       OVER VOTES                            PRECINCT 8                                             01 
01100030005000000REP       Justice, Supreme Court, Place 4 SCURRY COUNTYWIDE       OVER VOTES                            PRECINCT 9                                             01 
01100030006000000REP       Justice, Supreme Court, Place 4 SCURRY COUNTYWIDE       OVER VOTES                            PRECINCT 10                                            01 
01100030007000000REP       Justice, Supreme Court, Place 4 SCURRY COUNTYWIDE       OVER VOTES                            PRECINCT 11                                            01 
01100030008000000REP       Justice, Supreme Court, Place 4 SCURRY COUNTYWIDE       OVER VOTES                            PRECINCT 12                                            01 
01100030009000000REP       Justice, Supreme Court, Place 4 SCURRY COUNTYWIDE       OVER VOTES                            PRECINCT 13                                            01 
01100030010000000REP       Justice, Supreme Court, Place 4 SCURRY COUNTYWIDE       OVER VOTES                            PRECINCT 14                                            01 
01100030011000000REP       Justice, Supreme Court, Place 4 SCURRY COUNTYWIDE       OVER VOTES                            PRECINCT 15                                            01 
01100040001000003REP       Justice, Supreme Court, Place 4 SCURRY COUNTYWIDE       UNDER VOTES                           PRECINCT 5                                             01 
01100040002000001REP       Justice, Supreme Court, Place 4 SCURRY COUNTYWIDE       UNDER VOTES                           PRECINCT 6                                             01 
01100040003000023REP       Justice, Supreme Court, Place 4 SCURRY COUNTYWIDE       UNDER VOTES                           PRECINCT 7                                             01 
01100040004000015REP       Justice, Supreme Court, Place 4 SCURRY COUNTYWIDE       UNDER VOTES                           PRECINCT 8                                             01 
01100040005000001REP       Justice, Supreme Court, Place 4 SCURRY COUNTYWIDE       UNDER VOTES                           PRECINCT 9                                             01 
01100040006000018REP       Justice, Supreme Court, Place 4 SCURRY COUNTYWIDE       UNDER VOTES                           PRECINCT 10                                            01 
01100040007000000REP       Justice, Supreme Court, Place 4 SCURRY COUNTYWIDE       UNDER VOTES                           PRECINCT 11                                            01 
01100040008000013REP       Justice, Supreme Court, Place 4 SCURRY COUNTYWIDE       UNDER VOTES                           PRECINCT 12                                            01 
01100040009000005REP       Justice, Supreme Court, Place 4 SCURRY COUNTYWIDE       UNDER VOTES                           PRECINCT 13                                            01 
01100040010000000REP       Justice, Supreme Court, Place 4 SCURRY COUNTYWIDE       UNDER VOTES                           PRECINCT 14                                            01 
01100040011000004REP       Justice, Supreme Court, Place 4 SCURRY COUNTYWIDE       UNDER VOTES                           PRECINCT 15                                            01 
01110010001000000DEM       US Senator SCURRY COUNTYWIDE                            Paul Sadler                           PRECINCT 5                                             01 
01110010002000000DEM       US Senator SCURRY COUNTYWIDE                            Paul Sadler                           PRECINCT 6                                             01 
01110010003000004DEM       US Senator SCURRY COUNTYWIDE                            Paul Sadler                           PRECINCT 7                                             01 
01110010004000000DEM       US Senator SCURRY COUNTYWIDE                            Paul Sadler                           PRECINCT 8                                             01 
01110010005000000DEM       US Senator SCURRY COUNTYWIDE                            Paul Sadler                           PRECINCT 9                                             01 
01110010006000002DEM       US Senator SCURRY COUNTYWIDE                            Paul Sadler                           PRECINCT 10                                            01 
01110010007000000DEM       US Senator SCURRY COUNTYWIDE                            Paul Sadler                           PRECINCT 11                                            01 
01110010008000000DEM       US Senator SCURRY COUNTYWIDE                            Paul Sadler                           PRECINCT 12                                            01 
01110010009000001DEM       US Senator SCURRY COUNTYWIDE                            Paul Sadler                           PRECINCT 13                                            01 
01110010010000000DEM       US Senator SCURRY COUNTYWIDE                            Paul Sadler                           PRECINCT 14                                            01 
01110010011000003DEM       US Senator SCURRY COUNTYWIDE                            Paul Sadler                           PRECINCT 15                                            01 
01110020001000001DEM       US Senator SCURRY COUNTYWIDE                            Grady Yarbrough                       PRECINCT 5                                             01 
01110020002000000DEM       US Senator SCURRY COUNTYWIDE                            Grady Yarbrough                       PRECINCT 6                                             01 
01110020003000001DEM       US Senator SCURRY COUNTYWIDE                            Grady Yarbrough                       PRECINCT 7                                             01 
01110020004000000DEM       US Senator SCURRY COUNTYWIDE                            Grady Yarbrough                       PRECINCT 8                                             01 
01110020005000001DEM       US Senator SCURRY COUNTYWIDE                            Grady Yarbrough                       PRECINCT 9                                             01 
01110020006000001DEM       US Senator SCURRY COUNTYWIDE                            Grady Yarbrough                       PRECINCT 10                                            01 
01110020007000000DEM       US Senator SCURRY COUNTYWIDE                            Grady Yarbrough                       PRECINCT 11                                            01 
01110020008000002DEM       US Senator SCURRY COUNTYWIDE                            Grady Yarbrough                       PRECINCT 12                                            01 
01110020009000002DEM       US Senator SCURRY COUNTYWIDE                            Grady Yarbrough                       PRECINCT 13                                            01 
01110020010000000DEM       US Senator SCURRY COUNTYWIDE                            Grady Yarbrough                       PRECINCT 14                                            01 
01110020011000000DEM       US Senator SCURRY COUNTYWIDE                            Grady Yarbrough                       PRECINCT 15                                            01 
01110030001000000DEM       US Senator SCURRY COUNTYWIDE                            OVER VOTES                            PRECINCT 5                                             01 
01110030002000000DEM       US Senator SCURRY COUNTYWIDE                            OVER VOTES                            PRECINCT 6                                             01 
01110030003000000DEM       US Senator SCURRY COUNTYWIDE                            OVER VOTES                            PRECINCT 7                                             01 
01110030004000000DEM       US Senator SCURRY COUNTYWIDE                            OVER VOTES                            PRECINCT 8                                             01 
01110030005000000DEM       US Senator SCURRY COUNTYWIDE                            OVER VOTES                            PRECINCT 9                                             01 
01110030006000000DEM       US Senator SCURRY COUNTYWIDE                            OVER VOTES                            PRECINCT 10                                            01 
01110030007000000DEM       US Senator SCURRY COUNTYWIDE                            OVER VOTES                            PRECINCT 11                                            01 
01110030008000000DEM       US Senator SCURRY COUNTYWIDE                            OVER VOTES                            PRECINCT 12                                            01 
01110030009000000DEM       US Senator SCURRY COUNTYWIDE                            OVER VOTES                            PRECINCT 13                                            01 
01110030010000000DEM       US Senator SCURRY COUNTYWIDE                            OVER VOTES                            PRECINCT 14                                            01 
01110030011000000DEM       US Senator SCURRY COUNTYWIDE                            OVER VOTES                            PRECINCT 15                                            01 
01110040001000000DEM       US Senator SCURRY COUNTYWIDE                            UNDER VOTES                           PRECINCT 5                                             01 
01110040002000000DEM       US Senator SCURRY COUNTYWIDE                            UNDER VOTES                           PRECINCT 6                                             01 
01110040003000000DEM       US Senator SCURRY COUNTYWIDE                            UNDER VOTES                           PRECINCT 7                                             01 
01110040004000000DEM       US Senator SCURRY COUNTYWIDE                            UNDER VOTES                           PRECINCT 8                                             01 
01110040005000000DEM       US Senator SCURRY COUNTYWIDE                            UNDER VOTES                           PRECINCT 9                                             01 
01110040006000000DEM       US Senator SCURRY COUNTYWIDE                            UNDER VOTES                           PRECINCT 10                                            01 
01110040007000000DEM       US Senator SCURRY COUNTYWIDE                            UNDER VOTES                           PRECINCT 11                                            01 
01110040008000000DEM       US Senator SCURRY COUNTYWIDE                            UNDER VOTES                           PRECINCT 12                                            01 
01110040009000000DEM       US Senator SCURRY COUNTYWIDE                            UNDER VOTES                           PRECINCT 13                                            01 
01110040010000000DEM       US Senator SCURRY COUNTYWIDE                            UNDER VOTES                           PRECINCT 14                                            01 
01110040011000000DEM       US Senator SCURRY COUNTYWIDE                            UNDER VOTES                           PRECINCT 15                                            01 
