01010010001000000000000000000000000000000000000          REGISTERED VOTERS - TOTAL                               REGISTERED VOTERS - TOTAL             Precinct 1A                                            00 
01010010002000000000000000000000000000000000000          REGISTERED VOTERS - TOTAL                               REGISTERED VOTERS - TOTAL             Precinct 1B                                            00 
01010010003000000000000000000000000000000000000          REGISTERED VOTERS - TOTAL                               REGISTERED VOTERS - TOTAL             Precinct 1C                                            00 
01010010004000000000000000000000000000000000000          REGISTERED VOTERS - TOTAL                               REGISTERED VOTERS - TOTAL             Precinct 1D                                            00 
01010010005000000000000000000000000000000000000          REGISTERED VOTERS - TOTAL                               REGISTERED VOTERS - TOTAL             Precinct 1E                                            00 
01010010006000000000000000000000000000000000000          REGISTERED VOTERS - TOTAL                               REGISTERED VOTERS - TOTAL             Precinct 2A                                            00 
01010010007000000000000000000000000000000000000          REGISTERED VOTERS - TOTAL                               REGISTERED VOTERS - TOTAL             Precinct 2B                                            00 
01010010008000000000000000000000000000000000000          REGISTERED VOTERS - TOTAL                               REGISTERED VOTERS - TOTAL             Precinct 2C                                            00 
01010010009000000000000000000000000000000000000          REGISTERED VOTERS - TOTAL                               REGISTERED VOTERS - TOTAL             Precinct 2D                                            00 
01010010010000000000000000000000000000000000000          REGISTERED VOTERS - TOTAL                               REGISTERED VOTERS - TOTAL             Precinct 3A                                            00 
01010010011000000000000000000000000000000000000          REGISTERED VOTERS - TOTAL                               REGISTERED VOTERS - TOTAL             Precinct 3B                                            00 
01010010012000000000000000000000000000000000000          REGISTERED VOTERS - TOTAL                               REGISTERED VOTERS - TOTAL             Precinct 3C                                            00 
01010010013000000000000000000000000000000000000          REGISTERED VOTERS - TOTAL                               REGISTERED VOTERS - TOTAL             Precinct 3D                                            00 
01010010014000000000000000000000000000000000000          REGISTERED VOTERS - TOTAL                               REGISTERED VOTERS - TOTAL             Precinct 4A                                            00 
01010010015000000000000000000000000000000000000          REGISTERED VOTERS - TOTAL                               REGISTERED VOTERS - TOTAL             Precinct 4B                                            00 
01010010016000000000000000000000000000000000000          REGISTERED VOTERS - TOTAL                               REGISTERED VOTERS - TOTAL             Precinct 4C                                            00 
01010010017000000000000000000000000000000000000          REGISTERED VOTERS - TOTAL                               REGISTERED VOTERS - TOTAL             Precinct 4D                                            00 
01010010018000000000000000000000000000000000000          REGISTERED VOTERS - TOTAL                               REGISTERED VOTERS - TOTAL             Precinct 4E                                            00 
01040010001000380000194000006000032000148000000          BALLOTS CAST - TOTAL                                    BALLOTS CAST - TOTAL                  Precinct 1A                                            00 
01040010002000834000214000586000034000000000000          BALLOTS CAST - TOTAL                                    BALLOTS CAST - TOTAL                  Precinct 1B                                            00 
01040010003000376000095000000000009000000000272          BALLOTS CAST - TOTAL                                    BALLOTS CAST - TOTAL                  Precinct 1C                                            00 
01040010004000327000070000232000025000000000000          BALLOTS CAST - TOTAL                                    BALLOTS CAST - TOTAL                  Precinct 1D                                            00 
01040010005000194000031000155000008000000000000          BALLOTS CAST - TOTAL                                    BALLOTS CAST - TOTAL                  Precinct 1E                                            00 
01040010006000735000359000351000025000000000000          BALLOTS CAST - TOTAL                                    BALLOTS CAST - TOTAL                  Precinct 2A                                            00 
01040010007000274000103000150000021000000000000          BALLOTS CAST - TOTAL                                    BALLOTS CAST - TOTAL                  Precinct 2B                                            00 
01040010008000312000072000222000018000000000000          BALLOTS CAST - TOTAL                                    BALLOTS CAST - TOTAL                  Precinct 2C                                            00 
01040010009000377000162000189000026000000000000          BALLOTS CAST - TOTAL                                    BALLOTS CAST - TOTAL                  Precinct 2D                                            00 
01040010010000240000121000112000007000000000000          BALLOTS CAST - TOTAL                                    BALLOTS CAST - TOTAL                  Precinct 3A                                            00 
01040010011000296000062000218000016000000000000          BALLOTS CAST - TOTAL                                    BALLOTS CAST - TOTAL                  Precinct 3B                                            00 
01040010012000663000164000473000026000000000000          BALLOTS CAST - TOTAL                                    BALLOTS CAST - TOTAL                  Precinct 3C                                            00 
01040010013000681000230000432000019000000000000          BALLOTS CAST - TOTAL                                    BALLOTS CAST - TOTAL                  Precinct 3D                                            00 
01040010014000317000192000000000012000000000113          BALLOTS CAST - TOTAL                                    BALLOTS CAST - TOTAL                  Precinct 4A                                            00 
01040010015000344000051000270000023000000000000          BALLOTS CAST - TOTAL                                    BALLOTS CAST - TOTAL                  Precinct 4B                                            00 
01040010016000315000069000237000009000000000000          BALLOTS CAST - TOTAL                                    BALLOTS CAST - TOTAL                  Precinct 4C                                            00 
01040010017000665000123000516000026000000000000          BALLOTS CAST - TOTAL                                    BALLOTS CAST - TOTAL                  Precinct 4D                                            00 
01040010018000231000078000141000012000000000000          BALLOTS CAST - TOTAL                                    BALLOTS CAST - TOTAL                  Precinct 4E                                            00 
01050010001000374000191000006000032000145000000REP       BALLOTS CAST - REPUBLICAN PARTY                         BALLOTS CAST - REPUBLICAN PARTY       Precinct 1A                                            00 
01050010002000820000211000577000032000000000000REP       BALLOTS CAST - REPUBLICAN PARTY                         BALLOTS CAST - REPUBLICAN PARTY       Precinct 1B                                            00 
01050010003000372000094000000000009000000000269REP       BALLOTS CAST - REPUBLICAN PARTY                         BALLOTS CAST - REPUBLICAN PARTY       Precinct 1C                                            00 
01050010004000315000069000221000025000000000000REP       BALLOTS CAST - REPUBLICAN PARTY                         BALLOTS CAST - REPUBLICAN PARTY       Precinct 1D                                            00 
01050010005000192000031000153000008000000000000REP       BALLOTS CAST - REPUBLICAN PARTY                         BALLOTS CAST - REPUBLICAN PARTY       Precinct 1E                                            00 
01050010006000726000358000346000022000000000000REP       BALLOTS CAST - REPUBLICAN PARTY                         BALLOTS CAST - REPUBLICAN PARTY       Precinct 2A                                            00 
01050010007000264000103000140000021000000000000REP       BALLOTS CAST - REPUBLICAN PARTY                         BALLOTS CAST - REPUBLICAN PARTY       Precinct 2B                                            00 
01050010008000311000072000221000018000000000000REP       BALLOTS CAST - REPUBLICAN PARTY                         BALLOTS CAST - REPUBLICAN PARTY       Precinct 2C                                            00 
01050010009000368000159000184000025000000000000REP       BALLOTS CAST - REPUBLICAN PARTY                         BALLOTS CAST - REPUBLICAN PARTY       Precinct 2D                                            00 
01050010010000237000121000109000007000000000000REP       BALLOTS CAST - REPUBLICAN PARTY                         BALLOTS CAST - REPUBLICAN PARTY       Precinct 3A                                            00 
01050010011000274000062000197000015000000000000REP       BALLOTS CAST - REPUBLICAN PARTY                         BALLOTS CAST - REPUBLICAN PARTY       Precinct 3B                                            00 
01050010012000637000161000450000026000000000000REP       BALLOTS CAST - REPUBLICAN PARTY                         BALLOTS CAST - REPUBLICAN PARTY       Precinct 3C                                            00 
01050010013000662000229000417000016000000000000REP       BALLOTS CAST - REPUBLICAN PARTY                         BALLOTS CAST - REPUBLICAN PARTY       Precinct 3D                                            00 
01050010014000311000192000000000012000000000107REP       BALLOTS CAST - REPUBLICAN PARTY                         BALLOTS CAST - REPUBLICAN PARTY       Precinct 4A                                            00 
01050010015000340000051000266000023000000000000REP       BALLOTS CAST - REPUBLICAN PARTY                         BALLOTS CAST - REPUBLICAN PARTY       Precinct 4B                                            00 
01050010016000303000066000228000009000000000000REP       BALLOTS CAST - REPUBLICAN PARTY                         BALLOTS CAST - REPUBLICAN PARTY       Precinct 4C                                            00 
01050010017000646000122000498000026000000000000REP       BALLOTS CAST - REPUBLICAN PARTY                         BALLOTS CAST - REPUBLICAN PARTY       Precinct 4D                                            00 
01050010018000225000076000137000012000000000000REP       BALLOTS CAST - REPUBLICAN PARTY                         BALLOTS CAST - REPUBLICAN PARTY       Precinct 4E                                            00 
01060010001000006000003000000000000000003000000DEM       BALLOTS CAST - DEMOCRATIC PARTY                         BALLOTS CAST - DEMOCRATIC PARTY       Precinct 1A                                            00 
01060010002000014000003000009000002000000000000DEM       BALLOTS CAST - DEMOCRATIC PARTY                         BALLOTS CAST - DEMOCRATIC PARTY       Precinct 1B                                            00 
01060010003000004000001000000000000000000000003DEM       BALLOTS CAST - DEMOCRATIC PARTY                         BALLOTS CAST - DEMOCRATIC PARTY       Precinct 1C                                            00 
01060010004000012000001000011000000000000000000DEM       BALLOTS CAST - DEMOCRATIC PARTY                         BALLOTS CAST - DEMOCRATIC PARTY       Precinct 1D                                            00 
01060010005000002000000000002000000000000000000DEM       BALLOTS CAST - DEMOCRATIC PARTY                         BALLOTS CAST - DEMOCRATIC PARTY       Precinct 1E                                            00 
01060010006000009000001000005000003000000000000DEM       BALLOTS CAST - DEMOCRATIC PARTY                         BALLOTS CAST - DEMOCRATIC PARTY       Precinct 2A                                            00 
01060010007000010000000000010000000000000000000DEM       BALLOTS CAST - DEMOCRATIC PARTY                         BALLOTS CAST - DEMOCRATIC PARTY       Precinct 2B                                            00 
01060010008000001000000000001000000000000000000DEM       BALLOTS CAST - DEMOCRATIC PARTY                         BALLOTS CAST - DEMOCRATIC PARTY       Precinct 2C                                            00 
01060010009000009000003000005000001000000000000DEM       BALLOTS CAST - DEMOCRATIC PARTY                         BALLOTS CAST - DEMOCRATIC PARTY       Precinct 2D                                            00 
01060010010000003000000000003000000000000000000DEM       BALLOTS CAST - DEMOCRATIC PARTY                         BALLOTS CAST - DEMOCRATIC PARTY       Precinct 3A                                            00 
01060010011000022000000000021000001000000000000DEM       BALLOTS CAST - DEMOCRATIC PARTY                         BALLOTS CAST - DEMOCRATIC PARTY       Precinct 3B                                            00 
01060010012000026000003000023000000000000000000DEM       BALLOTS CAST - DEMOCRATIC PARTY                         BALLOTS CAST - DEMOCRATIC PARTY       Precinct 3C                                            00 
01060010013000019000001000015000003000000000000DEM       BALLOTS CAST - DEMOCRATIC PARTY                         BALLOTS CAST - DEMOCRATIC PARTY       Precinct 3D                                            00 
01060010014000006000000000000000000000000000006DEM       BALLOTS CAST - DEMOCRATIC PARTY                         BALLOTS CAST - DEMOCRATIC PARTY       Precinct 4A                                            00 
01060010015000004000000000004000000000000000000DEM       BALLOTS CAST - DEMOCRATIC PARTY                         BALLOTS CAST - DEMOCRATIC PARTY       Precinct 4B                                            00 
01060010016000012000003000009000000000000000000DEM       BALLOTS CAST - DEMOCRATIC PARTY                         BALLOTS CAST - DEMOCRATIC PARTY       Precinct 4C                                            00 
01060010017000019000001000018000000000000000000DEM       BALLOTS CAST - DEMOCRATIC PARTY                         BALLOTS CAST - DEMOCRATIC PARTY       Precinct 4D                                            00 
01060010018000006000002000004000000000000000000DEM       BALLOTS CAST - DEMOCRATIC PARTY                         BALLOTS CAST - DEMOCRATIC PARTY       Precinct 4E                                            00 
01070010001000161000080000001000013000067000000REP       United States Senator                                   Ted Cruz                              Precinct 1A                                            01 
01070010002000313000081000224000008000000000000REP       United States Senator                                   Ted Cruz                              Precinct 1B                                            01 
01070010003000183000054000000000003000000000126REP       United States Senator                                   Ted Cruz                              Precinct 1C                                            01 
01070010004000127000036000086000005000000000000REP       United States Senator                                   Ted Cruz                              Precinct 1D                                            01 
01070010005000093000012000080000001000000000000REP       United States Senator                                   Ted Cruz                              Precinct 1E                                            01 
01070010006000346000157000183000006000000000000REP       United States Senator                                   Ted Cruz                              Precinct 2A                                            01 
01070010007000133000053000073000007000000000000REP       United States Senator                                   Ted Cruz                              Precinct 2B                                            01 
01070010008000156000030000122000004000000000000REP       United States Senator                                   Ted Cruz                              Precinct 2C                                            01 
01070010009000162000072000085000005000000000000REP       United States Senator                                   Ted Cruz                              Precinct 2D                                            01 
01070010010000116000055000058000003000000000000REP       United States Senator                                   Ted Cruz                              Precinct 3A                                            01 
01070010011000120000021000096000003000000000000REP       United States Senator                                   Ted Cruz                              Precinct 3B                                            01 
01070010012000275000064000204000007000000000000REP       United States Senator                                   Ted Cruz                              Precinct 3C                                            01 
01070010013000298000086000207000005000000000000REP       United States Senator                                   Ted Cruz                              Precinct 3D                                            01 
01070010014000139000090000000000003000000000046REP       United States Senator                                   Ted Cruz                              Precinct 4A                                            01 
01070010015000162000020000133000009000000000000REP       United States Senator                                   Ted Cruz                              Precinct 4B                                            01 
01070010016000156000042000110000004000000000000REP       United States Senator                                   Ted Cruz                              Precinct 4C                                            01 
01070010017000353000073000274000006000000000000REP       United States Senator                                   Ted Cruz                              Precinct 4D                                            01 
01070010018000110000033000075000002000000000000REP       United States Senator                                   Ted Cruz                              Precinct 4E                                            01 
01070020001000202000104000005000018000075000000REP       United States Senator                                   David Dewhurst                        Precinct 1A                                            01 
01070020002000475000124000325000026000000000000REP       United States Senator                                   David Dewhurst                        Precinct 1B                                            01 
01070020003000172000038000000000005000000000129REP       United States Senator                                   David Dewhurst                        Precinct 1C                                            01 
01070020004000173000029000125000019000000000000REP       United States Senator                                   David Dewhurst                        Precinct 1D                                            01 
01070020005000090000019000064000007000000000000REP       United States Senator                                   David Dewhurst                        Precinct 1E                                            01 
01070020006000367000197000155000015000000000000REP       United States Senator                                   David Dewhurst                        Precinct 2A                                            01 
01070020007000126000047000065000014000000000000REP       United States Senator                                   David Dewhurst                        Precinct 2B                                            01 
01070020008000147000040000093000014000000000000REP       United States Senator                                   David Dewhurst                        Precinct 2C                                            01 
01070020009000202000084000098000020000000000000REP       United States Senator                                   David Dewhurst                        Precinct 2D                                            01 
01070020010000112000061000047000004000000000000REP       United States Senator                                   David Dewhurst                        Precinct 3A                                            01 
01070020011000145000041000093000011000000000000REP       United States Senator                                   David Dewhurst                        Precinct 3B                                            01 
01070020012000338000096000224000018000000000000REP       United States Senator                                   David Dewhurst                        Precinct 3C                                            01 
01070020013000348000137000200000011000000000000REP       United States Senator                                   David Dewhurst                        Precinct 3D                                            01 
01070020014000166000098000000000007000000000061REP       United States Senator                                   David Dewhurst                        Precinct 4A                                            01 
01070020015000167000031000122000014000000000000REP       United States Senator                                   David Dewhurst                        Precinct 4B                                            01 
01070020016000142000022000114000006000000000000REP       United States Senator                                   David Dewhurst                        Precinct 4C                                            01 
01070020017000278000048000210000020000000000000REP       United States Senator                                   David Dewhurst                        Precinct 4D                                            01 
01070020018000115000043000062000010000000000000REP       United States Senator                                   David Dewhurst                        Precinct 4E                                            01 
01070030001000000000000000000000000000000000000REP       United States Senator                                   OVER VOTES                            Precinct 1A                                            01 
01070030002000000000000000000000000000000000000REP       United States Senator                                   OVER VOTES                            Precinct 1B                                            01 
01070030003000001000000000000000000000000000001REP       United States Senator                                   OVER VOTES                            Precinct 1C                                            01 
01070030004000000000000000000000000000000000000REP       United States Senator                                   OVER VOTES                            Precinct 1D                                            01 
01070030005000000000000000000000000000000000000REP       United States Senator                                   OVER VOTES                            Precinct 1E                                            01 
01070030006000001000000000000000001000000000000REP       United States Senator                                   OVER VOTES                            Precinct 2A                                            01 
01070030007000000000000000000000000000000000000REP       United States Senator                                   OVER VOTES                            Precinct 2B                                            01 
01070030008000000000000000000000000000000000000REP       United States Senator                                   OVER VOTES                            Precinct 2C                                            01 
01070030009000000000000000000000000000000000000REP       United States Senator                                   OVER VOTES                            Precinct 2D                                            01 
01070030010000000000000000000000000000000000000REP       United States Senator                                   OVER VOTES                            Precinct 3A                                            01 
01070030011000000000000000000000000000000000000REP       United States Senator                                   OVER VOTES                            Precinct 3B                                            01 
01070030012000000000000000000000000000000000000REP       United States Senator                                   OVER VOTES                            Precinct 3C                                            01 
01070030013000000000000000000000000000000000000REP       United States Senator                                   OVER VOTES                            Precinct 3D                                            01 
01070030014000000000000000000000000000000000000REP       United States Senator                                   OVER VOTES                            Precinct 4A                                            01 
01070030015000000000000000000000000000000000000REP       United States Senator                                   OVER VOTES                            Precinct 4B                                            01 
01070030016000000000000000000000000000000000000REP       United States Senator                                   OVER VOTES                            Precinct 4C                                            01 
01070030017000000000000000000000000000000000000REP       United States Senator                                   OVER VOTES                            Precinct 4D                                            01 
01070030018000000000000000000000000000000000000REP       United States Senator                                   OVER VOTES                            Precinct 4E                                            01 
01070040001000008000007000000000001000000000000REP       United States Senator                                   UNDER VOTES                           Precinct 1A                                            01 
01070040002000034000006000028000000000000000000REP       United States Senator                                   UNDER VOTES                           Precinct 1B                                            01 
01070040003000016000002000000000001000000000013REP       United States Senator                                   UNDER VOTES                           Precinct 1C                                            01 
01070040004000015000004000010000001000000000000REP       United States Senator                                   UNDER VOTES                           Precinct 1D                                            01 
01070040005000008000000000008000000000000000000REP       United States Senator                                   UNDER VOTES                           Precinct 1E                                            01 
01070040006000012000004000008000000000000000000REP       United States Senator                                   UNDER VOTES                           Precinct 2A                                            01 
01070040007000005000003000002000000000000000000REP       United States Senator                                   UNDER VOTES                           Precinct 2B                                            01 
01070040008000008000002000006000000000000000000REP       United States Senator                                   UNDER VOTES                           Precinct 2C                                            01 
01070040009000005000003000002000000000000000000REP       United States Senator                                   UNDER VOTES                           Precinct 2D                                            01 
01070040010000009000005000004000000000000000000REP       United States Senator                                   UNDER VOTES                           Precinct 3A                                            01 
01070040011000009000000000008000001000000000000REP       United States Senator                                   UNDER VOTES                           Precinct 3B                                            01 
01070040012000024000001000022000001000000000000REP       United States Senator                                   UNDER VOTES                           Precinct 3C                                            01 
01070040013000016000006000010000000000000000000REP       United States Senator                                   UNDER VOTES                           Precinct 3D                                            01 
01070040014000007000004000000000002000000000001REP       United States Senator                                   UNDER VOTES                           Precinct 4A                                            01 
01070040015000011000000000011000000000000000000REP       United States Senator                                   UNDER VOTES                           Precinct 4B                                            01 
01070040016000006000002000004000000000000000000REP       United States Senator                                   UNDER VOTES                           Precinct 4C                                            01 
01070040017000016000001000014000001000000000000REP       United States Senator                                   UNDER VOTES                           Precinct 4D                                            01 
01070040018000000000000000000000000000000000000REP       United States Senator                                   UNDER VOTES                           Precinct 4E                                            01 
01080010001000201000114000002000017000068000000REP       Railroad Commissioner                                   Christi Craddick                      Precinct 1A                                            01 
01080010002000456000132000308000016000000000000REP       Railroad Commissioner                                   Christi Craddick                      Precinct 1B                                            01 
01080010003000213000058000000000004000000000151REP       Railroad Commissioner                                   Christi Craddick                      Precinct 1C                                            01 
01080010004000167000040000109000018000000000000REP       Railroad Commissioner                                   Christi Craddick                      Precinct 1D                                            01 
01080010005000102000022000072000008000000000000REP       Railroad Commissioner                                   Christi Craddick                      Precinct 1E                                            01 
01080010006000427000226000189000012000000000000REP       Railroad Commissioner                                   Christi Craddick                      Precinct 2A                                            01 
01080010007000130000053000071000006000000000000REP       Railroad Commissioner                                   Christi Craddick                      Precinct 2B                                            01 
01080010008000170000042000120000008000000000000REP       Railroad Commissioner                                   Christi Craddick                      Precinct 2C                                            01 
01080010009000224000097000112000015000000000000REP       Railroad Commissioner                                   Christi Craddick                      Precinct 2D                                            01 
01080010010000139000076000058000005000000000000REP       Railroad Commissioner                                   Christi Craddick                      Precinct 3A                                            01 
01080010011000146000043000099000004000000000000REP       Railroad Commissioner                                   Christi Craddick                      Precinct 3B                                            01 
01080010012000347000098000236000013000000000000REP       Railroad Commissioner                                   Christi Craddick                      Precinct 3C                                            01 
01080010013000367000136000224000007000000000000REP       Railroad Commissioner                                   Christi Craddick                      Precinct 3D                                            01 
01080010014000191000123000000000008000000000060REP       Railroad Commissioner                                   Christi Craddick                      Precinct 4A                                            01 
01080010015000188000028000145000015000000000000REP       Railroad Commissioner                                   Christi Craddick                      Precinct 4B                                            01 
01080010016000194000047000141000006000000000000REP       Railroad Commissioner                                   Christi Craddick                      Precinct 4C                                            01 
01080010017000385000076000295000014000000000000REP       Railroad Commissioner                                   Christi Craddick                      Precinct 4D                                            01 
01080010018000125000040000078000007000000000000REP       Railroad Commissioner                                   Christi Craddick                      Precinct 4E                                            01 
01080020001000117000058000003000012000044000000REP       Railroad Commissioner                                   Warren Chisum                         Precinct 1A                                            01 
01080020002000244000056000175000013000000000000REP       Railroad Commissioner                                   Warren Chisum                         Precinct 1B                                            01 
01080020003000110000027000000000002000000000081REP       Railroad Commissioner                                   Warren Chisum                         Precinct 1C                                            01 
01080020004000107000021000079000007000000000000REP       Railroad Commissioner                                   Warren Chisum                         Precinct 1D                                            01 
01080020005000058000006000052000000000000000000REP       Railroad Commissioner                                   Warren Chisum                         Precinct 1E                                            01 
01080020006000213000095000110000008000000000000REP       Railroad Commissioner                                   Warren Chisum                         Precinct 2A                                            01 
01080020007000103000039000053000011000000000000REP       Railroad Commissioner                                   Warren Chisum                         Precinct 2B                                            01 
01080020008000109000026000075000008000000000000REP       Railroad Commissioner                                   Warren Chisum                         Precinct 2C                                            01 
01080020009000114000051000054000009000000000000REP       Railroad Commissioner                                   Warren Chisum                         Precinct 2D                                            01 
01080020010000065000034000031000000000000000000REP       Railroad Commissioner                                   Warren Chisum                         Precinct 3A                                            01 
01080020011000087000011000066000010000000000000REP       Railroad Commissioner                                   Warren Chisum                         Precinct 3B                                            01 
01080020012000195000046000138000011000000000000REP       Railroad Commissioner                                   Warren Chisum                         Precinct 3C                                            01 
01080020013000204000064000134000006000000000000REP       Railroad Commissioner                                   Warren Chisum                         Precinct 3D                                            01 
01080020014000084000048000000000001000000000035REP       Railroad Commissioner                                   Warren Chisum                         Precinct 4A                                            01 
01080020015000109000020000082000007000000000000REP       Railroad Commissioner                                   Warren Chisum                         Precinct 4B                                            01 
01080020016000089000013000072000004000000000000REP       Railroad Commissioner                                   Warren Chisum                         Precinct 4C                                            01 
01080020017000199000041000146000012000000000000REP       Railroad Commissioner                                   Warren Chisum                         Precinct 4D                                            01 
01080020018000080000032000045000003000000000000REP       Railroad Commissioner                                   Warren Chisum                         Precinct 4E                                            01 
01080030001000000000000000000000000000000000000REP       Railroad Commissioner                                   OVER VOTES                            Precinct 1A                                            01 
01080030002000000000000000000000000000000000000REP       Railroad Commissioner                                   OVER VOTES                            Precinct 1B                                            01 
01080030003000000000000000000000000000000000000REP       Railroad Commissioner                                   OVER VOTES                            Precinct 1C                                            01 
01080030004000000000000000000000000000000000000REP       Railroad Commissioner                                   OVER VOTES                            Precinct 1D                                            01 
01080030005000000000000000000000000000000000000REP       Railroad Commissioner                                   OVER VOTES                            Precinct 1E                                            01 
01080030006000000000000000000000000000000000000REP       Railroad Commissioner                                   OVER VOTES                            Precinct 2A                                            01 
01080030007000000000000000000000000000000000000REP       Railroad Commissioner                                   OVER VOTES                            Precinct 2B                                            01 
01080030008000000000000000000000000000000000000REP       Railroad Commissioner                                   OVER VOTES                            Precinct 2C                                            01 
01080030009000000000000000000000000000000000000REP       Railroad Commissioner                                   OVER VOTES                            Precinct 2D                                            01 
01080030010000000000000000000000000000000000000REP       Railroad Commissioner                                   OVER VOTES                            Precinct 3A                                            01 
01080030011000000000000000000000000000000000000REP       Railroad Commissioner                                   OVER VOTES                            Precinct 3B                                            01 
01080030012000000000000000000000000000000000000REP       Railroad Commissioner                                   OVER VOTES                            Precinct 3C                                            01 
01080030013000000000000000000000000000000000000REP       Railroad Commissioner                                   OVER VOTES                            Precinct 3D                                            01 
01080030014000000000000000000000000000000000000REP       Railroad Commissioner                                   OVER VOTES                            Precinct 4A                                            01 
01080030015000000000000000000000000000000000000REP       Railroad Commissioner                                   OVER VOTES                            Precinct 4B                                            01 
01080030016000000000000000000000000000000000000REP       Railroad Commissioner                                   OVER VOTES                            Precinct 4C                                            01 
01080030017000000000000000000000000000000000000REP       Railroad Commissioner                                   OVER VOTES                            Precinct 4D                                            01 
01080030018000000000000000000000000000000000000REP       Railroad Commissioner                                   OVER VOTES                            Precinct 4E                                            01 
01080040001000022000019000000000003000000000000REP       Railroad Commissioner                                   UNDER VOTES                           Precinct 1A                                            01 
01080040002000122000023000094000005000000000000REP       Railroad Commissioner                                   UNDER VOTES                           Precinct 1B                                            01 
01080040003000049000009000000000003000000000037REP       Railroad Commissioner                                   UNDER VOTES                           Precinct 1C                                            01 
01080040004000041000008000033000000000000000000REP       Railroad Commissioner                                   UNDER VOTES                           Precinct 1D                                            01 
01080040005000028000003000025000000000000000000REP       Railroad Commissioner                                   UNDER VOTES                           Precinct 1E                                            01 
01080040006000086000037000047000002000000000000REP       Railroad Commissioner                                   UNDER VOTES                           Precinct 2A                                            01 
01080040007000031000011000016000004000000000000REP       Railroad Commissioner                                   UNDER VOTES                           Precinct 2B                                            01 
01080040008000032000004000026000002000000000000REP       Railroad Commissioner                                   UNDER VOTES                           Precinct 2C                                            01 
01080040009000031000011000019000001000000000000REP       Railroad Commissioner                                   UNDER VOTES                           Precinct 2D                                            01 
01080040010000033000011000020000002000000000000REP       Railroad Commissioner                                   UNDER VOTES                           Precinct 3A                                            01 
01080040011000041000008000032000001000000000000REP       Railroad Commissioner                                   UNDER VOTES                           Precinct 3B                                            01 
01080040012000095000017000076000002000000000000REP       Railroad Commissioner                                   UNDER VOTES                           Precinct 3C                                            01 
01080040013000080000029000048000003000000000000REP       Railroad Commissioner                                   UNDER VOTES                           Precinct 3D                                            01 
01080040014000036000021000000000003000000000012REP       Railroad Commissioner                                   UNDER VOTES                           Precinct 4A                                            01 
01080040015000043000003000039000001000000000000REP       Railroad Commissioner                                   UNDER VOTES                           Precinct 4B                                            01 
01080040016000021000006000015000000000000000000REP       Railroad Commissioner                                   UNDER VOTES                           Precinct 4C                                            01 
01080040017000063000005000057000001000000000000REP       Railroad Commissioner                                   UNDER VOTES                           Precinct 4D                                            01 
01080040018000020000004000014000002000000000000REP       Railroad Commissioner                                   UNDER VOTES                           Precinct 4E                                            01 
01090010001000139000073000001000012000053000000REP       Railroad Commissioner, Unexpired Term                   Greg Parker                           Precinct 1A                                            01 
01090010002000344000078000245000021000000000000REP       Railroad Commissioner, Unexpired Term                   Greg Parker                           Precinct 1B                                            01 
01090010003000139000030000000000004000000000105REP       Railroad Commissioner, Unexpired Term                   Greg Parker                           Precinct 1C                                            01 
01090010004000142000039000094000009000000000000REP       Railroad Commissioner, Unexpired Term                   Greg Parker                           Precinct 1D                                            01 
01090010005000091000015000071000005000000000000REP       Railroad Commissioner, Unexpired Term                   Greg Parker                           Precinct 1E                                            01 
01090010006000284000125000145000014000000000000REP       Railroad Commissioner, Unexpired Term                   Greg Parker                           Precinct 2A                                            01 
01090010007000094000040000045000009000000000000REP       Railroad Commissioner, Unexpired Term                   Greg Parker                           Precinct 2B                                            01 
01090010008000111000022000080000009000000000000REP       Railroad Commissioner, Unexpired Term                   Greg Parker                           Precinct 2C                                            01 
01090010009000143000051000079000013000000000000REP       Railroad Commissioner, Unexpired Term                   Greg Parker                           Precinct 2D                                            01 
01090010010000102000049000049000004000000000000REP       Railroad Commissioner, Unexpired Term                   Greg Parker                           Precinct 3A                                            01 
01090010011000110000027000075000008000000000000REP       Railroad Commissioner, Unexpired Term                   Greg Parker                           Precinct 3B                                            01 
01090010012000237000061000163000013000000000000REP       Railroad Commissioner, Unexpired Term                   Greg Parker                           Precinct 3C                                            01 
01090010013000254000078000171000005000000000000REP       Railroad Commissioner, Unexpired Term                   Greg Parker                           Precinct 3D                                            01 
01090010014000122000077000000000003000000000042REP       Railroad Commissioner, Unexpired Term                   Greg Parker                           Precinct 4A                                            01 
01090010015000147000019000116000012000000000000REP       Railroad Commissioner, Unexpired Term                   Greg Parker                           Precinct 4B                                            01 
01090010016000135000030000096000009000000000000REP       Railroad Commissioner, Unexpired Term                   Greg Parker                           Precinct 4C                                            01 
01090010017000272000050000206000016000000000000REP       Railroad Commissioner, Unexpired Term                   Greg Parker                           Precinct 4D                                            01 
01090010018000105000036000063000006000000000000REP       Railroad Commissioner, Unexpired Term                   Greg Parker                           Precinct 4E                                            01 
01090020001000156000087000005000018000046000000REP       Railroad Commissioner, Unexpired Term                   Barry Smitherman                      Precinct 1A                                            01 
01090020002000295000091000197000007000000000000REP       Railroad Commissioner, Unexpired Term                   Barry Smitherman                      Precinct 1B                                            01 
01090020003000154000048000000000002000000000104REP       Railroad Commissioner, Unexpired Term                   Barry Smitherman                      Precinct 1C                                            01 
01090020004000116000019000082000015000000000000REP       Railroad Commissioner, Unexpired Term                   Barry Smitherman                      Precinct 1D                                            01 
01090020005000059000010000046000003000000000000REP       Railroad Commissioner, Unexpired Term                   Barry Smitherman                      Precinct 1E                                            01 
01090020006000307000165000135000007000000000000REP       Railroad Commissioner, Unexpired Term                   Barry Smitherman                      Precinct 2A                                            01 
01090020007000125000047000069000009000000000000REP       Railroad Commissioner, Unexpired Term                   Barry Smitherman                      Precinct 2B                                            01 
01090020008000149000037000107000005000000000000REP       Railroad Commissioner, Unexpired Term                   Barry Smitherman                      Precinct 2C                                            01 
01090020009000174000087000078000009000000000000REP       Railroad Commissioner, Unexpired Term                   Barry Smitherman                      Precinct 2D                                            01 
01090020010000083000052000031000000000000000000REP       Railroad Commissioner, Unexpired Term                   Barry Smitherman                      Precinct 3A                                            01 
01090020011000114000025000082000007000000000000REP       Railroad Commissioner, Unexpired Term                   Barry Smitherman                      Precinct 3B                                            01 
01090020012000271000074000190000007000000000000REP       Railroad Commissioner, Unexpired Term                   Barry Smitherman                      Precinct 3C                                            01 
01090020013000289000112000169000008000000000000REP       Railroad Commissioner, Unexpired Term                   Barry Smitherman                      Precinct 3D                                            01 
01090020014000126000080000000000006000000000040REP       Railroad Commissioner, Unexpired Term                   Barry Smitherman                      Precinct 4A                                            01 
01090020015000137000028000099000010000000000000REP       Railroad Commissioner, Unexpired Term                   Barry Smitherman                      Precinct 4B                                            01 
01090020016000129000024000104000001000000000000REP       Railroad Commissioner, Unexpired Term                   Barry Smitherman                      Precinct 4C                                            01 
01090020017000275000055000212000008000000000000REP       Railroad Commissioner, Unexpired Term                   Barry Smitherman                      Precinct 4D                                            01 
01090020018000086000031000054000001000000000000REP       Railroad Commissioner, Unexpired Term                   Barry Smitherman                      Precinct 4E                                            01 
01090030001000000000000000000000000000000000000REP       Railroad Commissioner, Unexpired Term                   OVER VOTES                            Precinct 1A                                            01 
01090030002000000000000000000000000000000000000REP       Railroad Commissioner, Unexpired Term                   OVER VOTES                            Precinct 1B                                            01 
01090030003000000000000000000000000000000000000REP       Railroad Commissioner, Unexpired Term                   OVER VOTES                            Precinct 1C                                            01 
01090030004000000000000000000000000000000000000REP       Railroad Commissioner, Unexpired Term                   OVER VOTES                            Precinct 1D                                            01 
01090030005000000000000000000000000000000000000REP       Railroad Commissioner, Unexpired Term                   OVER VOTES                            Precinct 1E                                            01 
01090030006000000000000000000000000000000000000REP       Railroad Commissioner, Unexpired Term                   OVER VOTES                            Precinct 2A                                            01 
01090030007000000000000000000000000000000000000REP       Railroad Commissioner, Unexpired Term                   OVER VOTES                            Precinct 2B                                            01 
01090030008000000000000000000000000000000000000REP       Railroad Commissioner, Unexpired Term                   OVER VOTES                            Precinct 2C                                            01 
01090030009000000000000000000000000000000000000REP       Railroad Commissioner, Unexpired Term                   OVER VOTES                            Precinct 2D                                            01 
01090030010000000000000000000000000000000000000REP       Railroad Commissioner, Unexpired Term                   OVER VOTES                            Precinct 3A                                            01 
01090030011000000000000000000000000000000000000REP       Railroad Commissioner, Unexpired Term                   OVER VOTES                            Precinct 3B                                            01 
01090030012000000000000000000000000000000000000REP       Railroad Commissioner, Unexpired Term                   OVER VOTES                            Precinct 3C                                            01 
01090030013000000000000000000000000000000000000REP       Railroad Commissioner, Unexpired Term                   OVER VOTES                            Precinct 3D                                            01 
01090030014000000000000000000000000000000000000REP       Railroad Commissioner, Unexpired Term                   OVER VOTES                            Precinct 4A                                            01 
01090030015000000000000000000000000000000000000REP       Railroad Commissioner, Unexpired Term                   OVER VOTES                            Precinct 4B                                            01 
01090030016000000000000000000000000000000000000REP       Railroad Commissioner, Unexpired Term                   OVER VOTES                            Precinct 4C                                            01 
01090030017000000000000000000000000000000000000REP       Railroad Commissioner, Unexpired Term                   OVER VOTES                            Precinct 4D                                            01 
01090030018000000000000000000000000000000000000REP       Railroad Commissioner, Unexpired Term                   OVER VOTES                            Precinct 4E                                            01 
01090040001000033000031000000000002000000000000REP       Railroad Commissioner, Unexpired Term                   UNDER VOTES                           Precinct 1A                                            01 
01090040002000183000042000135000006000000000000REP       Railroad Commissioner, Unexpired Term                   UNDER VOTES                           Precinct 1B                                            01 
01090040003000079000016000000000003000000000060REP       Railroad Commissioner, Unexpired Term                   UNDER VOTES                           Precinct 1C                                            01 
01090040004000057000011000045000001000000000000REP       Railroad Commissioner, Unexpired Term                   UNDER VOTES                           Precinct 1D                                            01 
01090040005000037000006000031000000000000000000REP       Railroad Commissioner, Unexpired Term                   UNDER VOTES                           Precinct 1E                                            01 
01090040006000135000068000066000001000000000000REP       Railroad Commissioner, Unexpired Term                   UNDER VOTES                           Precinct 2A                                            01 
01090040007000045000016000026000003000000000000REP       Railroad Commissioner, Unexpired Term                   UNDER VOTES                           Precinct 2B                                            01 
01090040008000051000013000034000004000000000000REP       Railroad Commissioner, Unexpired Term                   UNDER VOTES                           Precinct 2C                                            01 
01090040009000052000021000028000003000000000000REP       Railroad Commissioner, Unexpired Term                   UNDER VOTES                           Precinct 2D                                            01 
01090040010000052000020000029000003000000000000REP       Railroad Commissioner, Unexpired Term                   UNDER VOTES                           Precinct 3A                                            01 
01090040011000050000010000040000000000000000000REP       Railroad Commissioner, Unexpired Term                   UNDER VOTES                           Precinct 3B                                            01 
01090040012000129000026000097000006000000000000REP       Railroad Commissioner, Unexpired Term                   UNDER VOTES                           Precinct 3C                                            01 
01090040013000104000039000062000003000000000000REP       Railroad Commissioner, Unexpired Term                   UNDER VOTES                           Precinct 3D                                            01 
01090040014000063000035000000000003000000000025REP       Railroad Commissioner, Unexpired Term                   UNDER VOTES                           Precinct 4A                                            01 
01090040015000056000004000051000001000000000000REP       Railroad Commissioner, Unexpired Term                   UNDER VOTES                           Precinct 4B                                            01 
01090040016000040000012000028000000000000000000REP       Railroad Commissioner, Unexpired Term                   UNDER VOTES                           Precinct 4C                                            01 
01090040017000100000017000080000003000000000000REP       Railroad Commissioner, Unexpired Term                   UNDER VOTES                           Precinct 4D                                            01 
01090040018000034000009000020000005000000000000REP       Railroad Commissioner, Unexpired Term                   UNDER VOTES                           Precinct 4E                                            01 
01100010001000176000090000004000024000058000000REP       Justice, Supreme Court, Place 4                         John Devine                           Precinct 1A                                            01 
01100010002000353000099000239000015000000000000REP       Justice, Supreme Court, Place 4                         John Devine                           Precinct 1B                                            01 
01100010003000183000055000000000003000000000125REP       Justice, Supreme Court, Place 4                         John Devine                           Precinct 1C                                            01 
01100010004000126000033000082000011000000000000REP       Justice, Supreme Court, Place 4                         John Devine                           Precinct 1D                                            01 
01100010005000086000016000070000000000000000000REP       Justice, Supreme Court, Place 4                         John Devine                           Precinct 1E                                            01 
01100010006000334000165000158000011000000000000REP       Justice, Supreme Court, Place 4                         John Devine                           Precinct 2A                                            01 
01100010007000131000052000065000014000000000000REP       Justice, Supreme Court, Place 4                         John Devine                           Precinct 2B                                            01 
01100010008000145000031000107000007000000000000REP       Justice, Supreme Court, Place 4                         John Devine                           Precinct 2C                                            01 
01100010009000189000087000090000012000000000000REP       Justice, Supreme Court, Place 4                         John Devine                           Precinct 2D                                            01 
01100010010000126000065000059000002000000000000REP       Justice, Supreme Court, Place 4                         John Devine                           Precinct 3A                                            01 
01100010011000127000026000093000008000000000000REP       Justice, Supreme Court, Place 4                         John Devine                           Precinct 3B                                            01 
01100010012000298000089000197000012000000000000REP       Justice, Supreme Court, Place 4                         John Devine                           Precinct 3C                                            01 
01100010013000334000122000199000013000000000000REP       Justice, Supreme Court, Place 4                         John Devine                           Precinct 3D                                            01 
01100010014000164000107000000000005000000000052REP       Justice, Supreme Court, Place 4                         John Devine                           Precinct 4A                                            01 
01100010015000162000025000124000013000000000000REP       Justice, Supreme Court, Place 4                         John Devine                           Precinct 4B                                            01 
01100010016000171000044000122000005000000000000REP       Justice, Supreme Court, Place 4                         John Devine                           Precinct 4C                                            01 
01100010017000345000072000258000015000000000000REP       Justice, Supreme Court, Place 4                         John Devine                           Precinct 4D                                            01 
01100010018000120000041000071000008000000000000REP       Justice, Supreme Court, Place 4                         John Devine                           Precinct 4E                                            01 
01100020001000120000068000001000006000045000000REP       Justice, Supreme Court, Place 4                         David Medina                          Precinct 1A                                            01 
01100020002000293000079000201000013000000000000REP       Justice, Supreme Court, Place 4                         David Medina                          Precinct 1B                                            01 
01100020003000110000026000000000003000000000081REP       Justice, Supreme Court, Place 4                         David Medina                          Precinct 1C                                            01 
01100020004000132000023000096000013000000000000REP       Justice, Supreme Court, Place 4                         David Medina                          Precinct 1D                                            01 
01100020005000065000009000048000008000000000000REP       Justice, Supreme Court, Place 4                         David Medina                          Precinct 1E                                            01 
01100020006000248000116000123000009000000000000REP       Justice, Supreme Court, Place 4                         David Medina                          Precinct 2A                                            01 
01100020007000087000030000052000005000000000000REP       Justice, Supreme Court, Place 4                         David Medina                          Precinct 2B                                            01 
01100020008000109000031000073000005000000000000REP       Justice, Supreme Court, Place 4                         David Medina                          Precinct 2C                                            01 
01100020009000121000046000064000011000000000000REP       Justice, Supreme Court, Place 4                         David Medina                          Precinct 2D                                            01 
01100020010000071000040000030000001000000000000REP       Justice, Supreme Court, Place 4                         David Medina                          Precinct 3A                                            01 
01100020011000090000023000060000007000000000000REP       Justice, Supreme Court, Place 4                         David Medina                          Precinct 3B                                            01 
01100020012000214000046000160000008000000000000REP       Justice, Supreme Court, Place 4                         David Medina                          Precinct 3C                                            01 
01100020013000204000066000138000000000000000000REP       Justice, Supreme Court, Place 4                         David Medina                          Precinct 3D                                            01 
01100020014000082000044000000000005000000000033REP       Justice, Supreme Court, Place 4                         David Medina                          Precinct 4A                                            01 
01100020015000120000017000093000010000000000000REP       Justice, Supreme Court, Place 4                         David Medina                          Precinct 4B                                            01 
01100020016000098000015000079000004000000000000REP       Justice, Supreme Court, Place 4                         David Medina                          Precinct 4C                                            01 
01100020017000208000033000166000009000000000000REP       Justice, Supreme Court, Place 4                         David Medina                          Precinct 4D                                            01 
01100020018000073000026000045000002000000000000REP       Justice, Supreme Court, Place 4                         David Medina                          Precinct 4E                                            01 
01100030001000000000000000000000000000000000000REP       Justice, Supreme Court, Place 4                         OVER VOTES                            Precinct 1A                                            01 
01100030002000000000000000000000000000000000000REP       Justice, Supreme Court, Place 4                         OVER VOTES                            Precinct 1B                                            01 
01100030003000000000000000000000000000000000000REP       Justice, Supreme Court, Place 4                         OVER VOTES                            Precinct 1C                                            01 
01100030004000000000000000000000000000000000000REP       Justice, Supreme Court, Place 4                         OVER VOTES                            Precinct 1D                                            01 
01100030005000000000000000000000000000000000000REP       Justice, Supreme Court, Place 4                         OVER VOTES                            Precinct 1E                                            01 
01100030006000000000000000000000000000000000000REP       Justice, Supreme Court, Place 4                         OVER VOTES                            Precinct 2A                                            01 
01100030007000000000000000000000000000000000000REP       Justice, Supreme Court, Place 4                         OVER VOTES                            Precinct 2B                                            01 
01100030008000000000000000000000000000000000000REP       Justice, Supreme Court, Place 4                         OVER VOTES                            Precinct 2C                                            01 
01100030009000000000000000000000000000000000000REP       Justice, Supreme Court, Place 4                         OVER VOTES                            Precinct 2D                                            01 
01100030010000000000000000000000000000000000000REP       Justice, Supreme Court, Place 4                         OVER VOTES                            Precinct 3A                                            01 
01100030011000000000000000000000000000000000000REP       Justice, Supreme Court, Place 4                         OVER VOTES                            Precinct 3B                                            01 
01100030012000000000000000000000000000000000000REP       Justice, Supreme Court, Place 4                         OVER VOTES                            Precinct 3C                                            01 
01100030013000000000000000000000000000000000000REP       Justice, Supreme Court, Place 4                         OVER VOTES                            Precinct 3D                                            01 
01100030014000001000001000000000000000000000000REP       Justice, Supreme Court, Place 4                         OVER VOTES                            Precinct 4A                                            01 
01100030015000000000000000000000000000000000000REP       Justice, Supreme Court, Place 4                         OVER VOTES                            Precinct 4B                                            01 
01100030016000000000000000000000000000000000000REP       Justice, Supreme Court, Place 4                         OVER VOTES                            Precinct 4C                                            01 
01100030017000000000000000000000000000000000000REP       Justice, Supreme Court, Place 4                         OVER VOTES                            Precinct 4D                                            01 
01100030018000000000000000000000000000000000000REP       Justice, Supreme Court, Place 4                         OVER VOTES                            Precinct 4E                                            01 
01100040001000035000033000000000002000000000000REP       Justice, Supreme Court, Place 4                         UNDER VOTES                           Precinct 1A                                            01 
01100040002000176000033000137000006000000000000REP       Justice, Supreme Court, Place 4                         UNDER VOTES                           Precinct 1B                                            01 
01100040003000079000013000000000003000000000063REP       Justice, Supreme Court, Place 4                         UNDER VOTES                           Precinct 1C                                            01 
01100040004000057000013000043000001000000000000REP       Justice, Supreme Court, Place 4                         UNDER VOTES                           Precinct 1D                                            01 
01100040005000036000006000030000000000000000000REP       Justice, Supreme Court, Place 4                         UNDER VOTES                           Precinct 1E                                            01 
01100040006000144000077000065000002000000000000REP       Justice, Supreme Court, Place 4                         UNDER VOTES                           Precinct 2A                                            01 
01100040007000046000021000023000002000000000000REP       Justice, Supreme Court, Place 4                         UNDER VOTES                           Precinct 2B                                            01 
01100040008000057000010000041000006000000000000REP       Justice, Supreme Court, Place 4                         UNDER VOTES                           Precinct 2C                                            01 
01100040009000059000026000031000002000000000000REP       Justice, Supreme Court, Place 4                         UNDER VOTES                           Precinct 2D                                            01 
01100040010000040000016000020000004000000000000REP       Justice, Supreme Court, Place 4                         UNDER VOTES                           Precinct 3A                                            01 
01100040011000055000013000042000000000000000000REP       Justice, Supreme Court, Place 4                         UNDER VOTES                           Precinct 3B                                            01 
01100040012000125000026000093000006000000000000REP       Justice, Supreme Court, Place 4                         UNDER VOTES                           Precinct 3C                                            01 
01100040013000110000041000066000003000000000000REP       Justice, Supreme Court, Place 4                         UNDER VOTES                           Precinct 3D                                            01 
01100040014000064000040000000000002000000000022REP       Justice, Supreme Court, Place 4                         UNDER VOTES                           Precinct 4A                                            01 
01100040015000058000009000049000000000000000000REP       Justice, Supreme Court, Place 4                         UNDER VOTES                           Precinct 4B                                            01 
01100040016000034000007000027000000000000000000REP       Justice, Supreme Court, Place 4                         UNDER VOTES                           Precinct 4C                                            01 
01100040017000094000017000074000003000000000000REP       Justice, Supreme Court, Place 4                         UNDER VOTES                           Precinct 4D                                            01 
01100040018000032000009000021000002000000000000REP       Justice, Supreme Court, Place 4                         UNDER VOTES                           Precinct 4E                                            01 
01110010001000121000062000001000011000047000000REP       Sheriff                                                 R.P. "Pat" Burnett, Jr.               Precinct 1A                                            01 
01110010002000119000028000081000010000000000000REP       Sheriff                                                 R.P. "Pat" Burnett, Jr.               Precinct 1B                                            01 
01110010003000107000026000000000006000000000075REP       Sheriff                                                 R.P. "Pat" Burnett, Jr.               Precinct 1C                                            01 
01110010004000069000013000049000007000000000000REP       Sheriff                                                 R.P. "Pat" Burnett, Jr.               Precinct 1D                                            01 
01110010005000077000013000062000002000000000000REP       Sheriff                                                 R.P. "Pat" Burnett, Jr.               Precinct 1E                                            01 
01110010006000319000161000146000012000000000000REP       Sheriff                                                 R.P. "Pat" Burnett, Jr.               Precinct 2A                                            01 
01110010007000126000058000058000010000000000000REP       Sheriff                                                 R.P. "Pat" Burnett, Jr.               Precinct 2B                                            01 
01110010008000134000024000099000011000000000000REP       Sheriff                                                 R.P. "Pat" Burnett, Jr.               Precinct 2C                                            01 
01110010009000159000060000088000011000000000000REP       Sheriff                                                 R.P. "Pat" Burnett, Jr.               Precinct 2D                                            01 
01110010010000089000047000042000000000000000000REP       Sheriff                                                 R.P. "Pat" Burnett, Jr.               Precinct 3A                                            01 
01110010011000159000031000119000009000000000000REP       Sheriff                                                 R.P. "Pat" Burnett, Jr.               Precinct 3B                                            01 
01110010012000375000097000261000017000000000000REP       Sheriff                                                 R.P. "Pat" Burnett, Jr.               Precinct 3C                                            01 
01110010013000314000110000195000009000000000000REP       Sheriff                                                 R.P. "Pat" Burnett, Jr.               Precinct 3D                                            01 
01110010014000131000090000000000004000000000037REP       Sheriff                                                 R.P. "Pat" Burnett, Jr.               Precinct 4A                                            01 
01110010015000097000025000061000011000000000000REP       Sheriff                                                 R.P. "Pat" Burnett, Jr.               Precinct 4B                                            01 
01110010016000097000017000076000004000000000000REP       Sheriff                                                 R.P. "Pat" Burnett, Jr.               Precinct 4C                                            01 
01110010017000178000038000124000016000000000000REP       Sheriff                                                 R.P. "Pat" Burnett, Jr.               Precinct 4D                                            01 
01110010018000095000036000054000005000000000000REP       Sheriff                                                 R.P. "Pat" Burnett, Jr.               Precinct 4E                                            01 
01110020001000250000127000005000021000097000000REP       Sheriff                                                 Lindsey Ray                           Precinct 1A                                            01 
01110020002000702000183000495000024000000000000REP       Sheriff                                                 Lindsey Ray                           Precinct 1B                                            01 
01110020003000258000068000000000002000000000188REP       Sheriff                                                 Lindsey Ray                           Precinct 1C                                            01 
01110020004000246000056000172000018000000000000REP       Sheriff                                                 Lindsey Ray                           Precinct 1D                                            01 
01110020005000115000018000091000006000000000000REP       Sheriff                                                 Lindsey Ray                           Precinct 1E                                            01 
01110020006000405000197000198000010000000000000REP       Sheriff                                                 Lindsey Ray                           Precinct 2A                                            01 
01110020007000135000045000080000010000000000000REP       Sheriff                                                 Lindsey Ray                           Precinct 2B                                            01 
01110020008000173000048000118000007000000000000REP       Sheriff                                                 Lindsey Ray                           Precinct 2C                                            01 
01110020009000210000099000097000014000000000000REP       Sheriff                                                 Lindsey Ray                           Precinct 2D                                            01 
01110020010000147000074000066000007000000000000REP       Sheriff                                                 Lindsey Ray                           Precinct 3A                                            01 
01110020011000113000031000076000006000000000000REP       Sheriff                                                 Lindsey Ray                           Precinct 3B                                            01 
01110020012000257000064000184000009000000000000REP       Sheriff                                                 Lindsey Ray                           Precinct 3C                                            01 
01110020013000345000118000220000007000000000000REP       Sheriff                                                 Lindsey Ray                           Precinct 3D                                            01 
01110020014000181000102000000000008000000000071REP       Sheriff                                                 Lindsey Ray                           Precinct 4A                                            01 
01110020015000241000026000203000012000000000000REP       Sheriff                                                 Lindsey Ray                           Precinct 4B                                            01 
01110020016000205000049000150000006000000000000REP       Sheriff                                                 Lindsey Ray                           Precinct 4C                                            01 
01110020017000467000084000372000011000000000000REP       Sheriff                                                 Lindsey Ray                           Precinct 4D                                            01 
01110020018000130000040000083000007000000000000REP       Sheriff                                                 Lindsey Ray                           Precinct 4E                                            01 
01110030001000000000000000000000000000000000000REP       Sheriff                                                 OVER VOTES                            Precinct 1A                                            01 
01110030002000000000000000000000000000000000000REP       Sheriff                                                 OVER VOTES                            Precinct 1B                                            01 
01110030003000000000000000000000000000000000000REP       Sheriff                                                 OVER VOTES                            Precinct 1C                                            01 
01110030004000000000000000000000000000000000000REP       Sheriff                                                 OVER VOTES                            Precinct 1D                                            01 
01110030005000000000000000000000000000000000000REP       Sheriff                                                 OVER VOTES                            Precinct 1E                                            01 
01110030006000000000000000000000000000000000000REP       Sheriff                                                 OVER VOTES                            Precinct 2A                                            01 
01110030007000000000000000000000000000000000000REP       Sheriff                                                 OVER VOTES                            Precinct 2B                                            01 
01110030008000000000000000000000000000000000000REP       Sheriff                                                 OVER VOTES                            Precinct 2C                                            01 
01110030009000000000000000000000000000000000000REP       Sheriff                                                 OVER VOTES                            Precinct 2D                                            01 
01110030010000000000000000000000000000000000000REP       Sheriff                                                 OVER VOTES                            Precinct 3A                                            01 
01110030011000000000000000000000000000000000000REP       Sheriff                                                 OVER VOTES                            Precinct 3B                                            01 
01110030012000000000000000000000000000000000000REP       Sheriff                                                 OVER VOTES                            Precinct 3C                                            01 
01110030013000000000000000000000000000000000000REP       Sheriff                                                 OVER VOTES                            Precinct 3D                                            01 
01110030014000000000000000000000000000000000000REP       Sheriff                                                 OVER VOTES                            Precinct 4A                                            01 
01110030015000000000000000000000000000000000000REP       Sheriff                                                 OVER VOTES                            Precinct 4B                                            01 
01110030016000000000000000000000000000000000000REP       Sheriff                                                 OVER VOTES                            Precinct 4C                                            01 
01110030017000000000000000000000000000000000000REP       Sheriff                                                 OVER VOTES                            Precinct 4D                                            01 
01110030018000000000000000000000000000000000000REP       Sheriff                                                 OVER VOTES                            Precinct 4E                                            01 
01110040001000002000002000000000000000000000000REP       Sheriff                                                 UNDER VOTES                           Precinct 1A                                            01 
01110040002000001000000000001000000000000000000REP       Sheriff                                                 UNDER VOTES                           Precinct 1B                                            01 
01110040003000007000000000000000001000000000006REP       Sheriff                                                 UNDER VOTES                           Precinct 1C                                            01 
01110040004000000000000000000000000000000000000REP       Sheriff                                                 UNDER VOTES                           Precinct 1D                                            01 
01110040005000000000000000000000000000000000000REP       Sheriff                                                 UNDER VOTES                           Precinct 1E                                            01 
01110040006000002000000000002000000000000000000REP       Sheriff                                                 UNDER VOTES                           Precinct 2A                                            01 
01110040007000003000000000002000001000000000000REP       Sheriff                                                 UNDER VOTES                           Precinct 2B                                            01 
01110040008000004000000000004000000000000000000REP       Sheriff                                                 UNDER VOTES                           Precinct 2C                                            01 
01110040009000000000000000000000000000000000000REP       Sheriff                                                 UNDER VOTES                           Precinct 2D                                            01 
01110040010000001000000000001000000000000000000REP       Sheriff                                                 UNDER VOTES                           Precinct 3A                                            01 
01110040011000002000000000002000000000000000000REP       Sheriff                                                 UNDER VOTES                           Precinct 3B                                            01 
01110040012000005000000000005000000000000000000REP       Sheriff                                                 UNDER VOTES                           Precinct 3C                                            01 
01110040013000003000001000002000000000000000000REP       Sheriff                                                 UNDER VOTES                           Precinct 3D                                            01 
01110040014000000000000000000000000000000000000REP       Sheriff                                                 UNDER VOTES                           Precinct 4A                                            01 
01110040015000002000000000002000000000000000000REP       Sheriff                                                 UNDER VOTES                           Precinct 4B                                            01 
01110040016000002000000000002000000000000000000REP       Sheriff                                                 UNDER VOTES                           Precinct 4C                                            01 
01110040017000002000000000002000000000000000000REP       Sheriff                                                 UNDER VOTES                           Precinct 4D                                            01 
01110040018000000000000000000000000000000000000REP       Sheriff                                                 UNDER VOTES                           Precinct 4E                                            01 
01120010001000218000124000003000016000075000000REP       County Commissioner, Precinct No. 1 COMMISSIONER, PREC 1Brandon Brown                         Precinct 1A                                            01 
01120010002000448000114000313000021000000000000REP       County Commissioner, Precinct No. 1 COMMISSIONER, PREC 1Brandon Brown                         Precinct 1B                                            01 
01120010003000249000069000000000005000000000175REP       County Commissioner, Precinct No. 1 COMMISSIONER, PREC 1Brandon Brown                         Precinct 1C                                            01 
01120010004000150000026000115000009000000000000REP       County Commissioner, Precinct No. 1 COMMISSIONER, PREC 1Brandon Brown                         Precinct 1D                                            01 
01120010005000094000009000081000004000000000000REP       County Commissioner, Precinct No. 1 COMMISSIONER, PREC 1Brandon Brown                         Precinct 1E                                            01 
01120020001000141000063000003000012000063000000REP       County Commissioner, Precinct No. 1 COMMISSIONER, PREC 1Tony Miller                           Precinct 1A                                            01 
01120020002000360000093000254000013000000000000REP       County Commissioner, Precinct No. 1 COMMISSIONER, PREC 1Tony Miller                           Precinct 1B                                            01 
01120020003000107000023000000000003000000000081REP       County Commissioner, Precinct No. 1 COMMISSIONER, PREC 1Tony Miller                           Precinct 1C                                            01 
01120020004000148000041000091000016000000000000REP       County Commissioner, Precinct No. 1 COMMISSIONER, PREC 1Tony Miller                           Precinct 1D                                            01 
01120020005000082000021000057000004000000000000REP       County Commissioner, Precinct No. 1 COMMISSIONER, PREC 1Tony Miller                           Precinct 1E                                            01 
01120030001000000000000000000000000000000000000REP       County Commissioner, Precinct No. 1 COMMISSIONER, PREC 1OVER VOTES                            Precinct 1A                                            01 
01120030002000001000000000001000000000000000000REP       County Commissioner, Precinct No. 1 COMMISSIONER, PREC 1OVER VOTES                            Precinct 1B                                            01 
01120030003000000000000000000000000000000000000REP       County Commissioner, Precinct No. 1 COMMISSIONER, PREC 1OVER VOTES                            Precinct 1C                                            01 
01120030004000000000000000000000000000000000000REP       County Commissioner, Precinct No. 1 COMMISSIONER, PREC 1OVER VOTES                            Precinct 1D                                            01 
01120030005000000000000000000000000000000000000REP       County Commissioner, Precinct No. 1 COMMISSIONER, PREC 1OVER VOTES                            Precinct 1E                                            01 
01120040001000008000004000000000004000000000000REP       County Commissioner, Precinct No. 1 COMMISSIONER, PREC 1UNDER VOTES                           Precinct 1A                                            01 
01120040002000013000004000009000000000000000000REP       County Commissioner, Precinct No. 1 COMMISSIONER, PREC 1UNDER VOTES                           Precinct 1B                                            01 
01120040003000016000002000000000001000000000013REP       County Commissioner, Precinct No. 1 COMMISSIONER, PREC 1UNDER VOTES                           Precinct 1C                                            01 
01120040004000017000002000015000000000000000000REP       County Commissioner, Precinct No. 1 COMMISSIONER, PREC 1UNDER VOTES                           Precinct 1D                                            01 
01120040005000013000001000012000000000000000000REP       County Commissioner, Precinct No. 1 COMMISSIONER, PREC 1UNDER VOTES                           Precinct 1E                                            01 
01130010010000058000033000024000001000000000000REP       County Commissioner, Precinct No. 3 COMMISSIONER, PREC 3Ronnie Cavin                          Precinct 3A                                            01 
01130010011000134000035000091000008000000000000REP       County Commissioner, Precinct No. 3 COMMISSIONER, PREC 3Ronnie Cavin                          Precinct 3B                                            01 
01130010012000396000100000288000008000000000000REP       County Commissioner, Precinct No. 3 COMMISSIONER, PREC 3Ronnie Cavin                          Precinct 3C                                            01 
01130010013000182000068000109000005000000000000REP       County Commissioner, Precinct No. 3 COMMISSIONER, PREC 3Ronnie Cavin                          Precinct 3D                                            01 
01130020010000170000086000078000006000000000000REP       County Commissioner, Precinct No. 3 COMMISSIONER, PREC 3Bobby Chaney                          Precinct 3A                                            01 
01130020011000134000026000102000006000000000000REP       County Commissioner, Precinct No. 3 COMMISSIONER, PREC 3Bobby Chaney                          Precinct 3B                                            01 
01130020012000228000060000152000016000000000000REP       County Commissioner, Precinct No. 3 COMMISSIONER, PREC 3Bobby Chaney                          Precinct 3C                                            01 
01130020013000466000156000301000009000000000000REP       County Commissioner, Precinct No. 3 COMMISSIONER, PREC 3Bobby Chaney                          Precinct 3D                                            01 
01130030010000000000000000000000000000000000000REP       County Commissioner, Precinct No. 3 COMMISSIONER, PREC 3OVER VOTES                            Precinct 3A                                            01 
01130030011000000000000000000000000000000000000REP       County Commissioner, Precinct No. 3 COMMISSIONER, PREC 3OVER VOTES                            Precinct 3B                                            01 
01130030012000000000000000000000000000000000000REP       County Commissioner, Precinct No. 3 COMMISSIONER, PREC 3OVER VOTES                            Precinct 3C                                            01 
01130030013000000000000000000000000000000000000REP       County Commissioner, Precinct No. 3 COMMISSIONER, PREC 3OVER VOTES                            Precinct 3D                                            01 
01130040010000009000002000007000000000000000000REP       County Commissioner, Precinct No. 3 COMMISSIONER, PREC 3UNDER VOTES                           Precinct 3A                                            01 
01130040011000006000001000004000001000000000000REP       County Commissioner, Precinct No. 3 COMMISSIONER, PREC 3UNDER VOTES                           Precinct 3B                                            01 
01130040012000013000001000010000002000000000000REP       County Commissioner, Precinct No. 3 COMMISSIONER, PREC 3UNDER VOTES                           Precinct 3C                                            01 
01130040013000013000005000006000002000000000000REP       County Commissioner, Precinct No. 3 COMMISSIONER, PREC 3UNDER VOTES                           Precinct 3D                                            01 
01140010001000004000003000000000000000001000000DEM       United States Senator                                   Paul Sadler                           Precinct 1A                                            01 
01140010002000012000002000008000002000000000000DEM       United States Senator                                   Paul Sadler                           Precinct 1B                                            01 
01140010003000002000001000000000000000000000001DEM       United States Senator                                   Paul Sadler                           Precinct 1C                                            01 
01140010004000010000001000009000000000000000000DEM       United States Senator                                   Paul Sadler                           Precinct 1D                                            01 
01140010005000001000000000001000000000000000000DEM       United States Senator                                   Paul Sadler                           Precinct 1E                                            01 
