00010010001000000000000000000000000000000000000000000000000000000000000000000000000000000000000000000          REGISTERED VOTERS - TOTAL                               REGISTERED VOTERS - TOTAL             PRECINCT 1                                             00 
00010010002000000000000000000000000000000000000000000000000000000000000000000000000000000000000000000          REGISTERED VOTERS - TOTAL                               REGISTERED VOTERS - TOTAL             PRECINCT 1A                                            00 
00010010003000000000000000000000000000000000000000000000000000000000000000000000000000000000000000000          REGISTERED VOTERS - TOTAL                               REGISTERED VOTERS - TOTAL             PRECINCT 1B                                            00 
00010010004000000000000000000000000000000000000000000000000000000000000000000000000000000000000000000          REGISTERED VOTERS - TOTAL                               REGISTERED VOTERS - TOTAL             PRECINCT 1C                                            00 
00010010005000000000000000000000000000000000000000000000000000000000000000000000000000000000000000000          REGISTERED VOTERS - TOTAL                               REGISTERED VOTERS - TOTAL             PRECINCT 2                                             00 
00010010006000000000000000000000000000000000000000000000000000000000000000000000000000000000000000000          REGISTERED VOTERS - TOTAL                               REGISTERED VOTERS - TOTAL             PRECINCT 2A                                            00 
00010010007000000000000000000000000000000000000000000000000000000000000000000000000000000000000000000          REGISTERED VOTERS - TOTAL                               REGISTERED VOTERS - TOTAL             PRECINCT 2B                                            00 
00010010008000000000000000000000000000000000000000000000000000000000000000000000000000000000000000000          REGISTERED VOTERS - TOTAL                               REGISTERED VOTERS - TOTAL             PRECINCT 2C                                            00 
00010010009000000000000000000000000000000000000000000000000000000000000000000000000000000000000000000          REGISTERED VOTERS - TOTAL                               REGISTERED VOTERS - TOTAL             PRECINCT 3                                             00 
00010010010000000000000000000000000000000000000000000000000000000000000000000000000000000000000000000          REGISTERED VOTERS - TOTAL                               REGISTERED VOTERS - TOTAL             PRECINCT 3A                                            00 
00010010011000000000000000000000000000000000000000000000000000000000000000000000000000000000000000000          REGISTERED VOTERS - TOTAL                               REGISTERED VOTERS - TOTAL             PRECINCT 3B                                            00 
00010010012000000000000000000000000000000000000000000000000000000000000000000000000000000000000000000          REGISTERED VOTERS - TOTAL                               REGISTERED VOTERS - TOTAL             PRECINCT 3C                                            00 
00010010013000000000000000000000000000000000000000000000000000000000000000000000000000000000000000000          REGISTERED VOTERS - TOTAL                               REGISTERED VOTERS - TOTAL             PRECINCT 3D                                            00 
00010010014000000000000000000000000000000000000000000000000000000000000000000000000000000000000000000          REGISTERED VOTERS - TOTAL                               REGISTERED VOTERS - TOTAL             PRECINCT 4                                             00 
00010010015000000000000000000000000000000000000000000000000000000000000000000000000000000000000000000          REGISTERED VOTERS - TOTAL                               REGISTERED VOTERS - TOTAL             PRECINCT 4A                                            00 
00010010016000000000000000000000000000000000000000000000000000000000000000000000000000000000000000000          REGISTERED VOTERS - TOTAL                               REGISTERED VOTERS - TOTAL             PRECINCT 4B                                            00 
00010010017000000000000000000000000000000000000000000000000000000000000000000000000000000000000000000          REGISTERED VOTERS - TOTAL                               REGISTERED VOTERS - TOTAL             PRECINCT 4C                                            00 
00020010001000003000001000002000000000000000000000000000000000000000000000000000000000000000000000000          BALLOTS CAST - TOTAL                                    BALLOTS CAST - TOTAL                  PRECINCT 1                                             00 
00020010002000003000001000002000000000000000000000000000000000000000000000000000000000000000000000000          BALLOTS CAST - TOTAL                                    BALLOTS CAST - TOTAL                  PRECINCT 1A                                            00 
00020010003000003000001000002000000000000000000000000000000000000000000000000000000000000000000000000          BALLOTS CAST - TOTAL                                    BALLOTS CAST - TOTAL                  PRECINCT 1B                                            00 
00020010004000003000001000002000000000000000000000000000000000000000000000000000000000000000000000000          BALLOTS CAST - TOTAL                                    BALLOTS CAST - TOTAL                  PRECINCT 1C                                            00 
00020010005000003000001000002000000000000000000000000000000000000000000000000000000000000000000000000          BALLOTS CAST - TOTAL                                    BALLOTS CAST - TOTAL                  PRECINCT 2                                             00 
00020010006000003000001000002000000000000000000000000000000000000000000000000000000000000000000000000          BALLOTS CAST - TOTAL                                    BALLOTS CAST - TOTAL                  PRECINCT 2A                                            00 
00020010007000001000000000001000000000000000000000000000000000000000000000000000000000000000000000000          BALLOTS CAST - TOTAL                                    BALLOTS CAST - TOTAL                  PRECINCT 2B                                            00 
00020010008000002000000000002000000000000000000000000000000000000000000000000000000000000000000000000          BALLOTS CAST - TOTAL                                    BALLOTS CAST - TOTAL                  PRECINCT 2C                                            00 
00020010009000001000000000001000000000000000000000000000000000000000000000000000000000000000000000000          BALLOTS CAST - TOTAL                                    BALLOTS CAST - TOTAL                  PRECINCT 3                                             00 
00020010010000003000001000002000000000000000000000000000000000000000000000000000000000000000000000000          BALLOTS CAST - TOTAL                                    BALLOTS CAST - TOTAL                  PRECINCT 3A                                            00 
00020010011000002000000000002000000000000000000000000000000000000000000000000000000000000000000000000          BALLOTS CAST - TOTAL                                    BALLOTS CAST - TOTAL                  PRECINCT 3B                                            00 
00020010012000002000000000002000000000000000000000000000000000000000000000000000000000000000000000000          BALLOTS CAST - TOTAL                                    BALLOTS CAST - TOTAL                  PRECINCT 3C                                            00 
00020010013000002000000000002000000000000000000000000000000000000000000000000000000000000000000000000          BALLOTS CAST - TOTAL                                    BALLOTS CAST - TOTAL                  PRECINCT 3D                                            00 
00020010014000001000000000001000000000000000000000000000000000000000000000000000000000000000000000000          BALLOTS CAST - TOTAL                                    BALLOTS CAST - TOTAL                  PRECINCT 4                                             00 
00020010015000003000001000002000000000000000000000000000000000000000000000000000000000000000000000000          BALLOTS CAST - TOTAL                                    BALLOTS CAST - TOTAL                  PRECINCT 4A                                            00 
00020010016000001000000000001000000000000000000000000000000000000000000000000000000000000000000000000          BALLOTS CAST - TOTAL                                    BALLOTS CAST - TOTAL                  PRECINCT 4B                                            00 
00020010017000002000001000001000000000000000000000000000000000000000000000000000000000000000000000000          BALLOTS CAST - TOTAL                                    BALLOTS CAST - TOTAL                  PRECINCT 4C                                            00 
00030010001000000000000000000000000000000000000000000000000000000000000000000000000000000000000000000          BALLOTS CAST - BLANK                                    BALLOTS CAST - BLANK                  PRECINCT 1                                             00 
00030010002000000000000000000000000000000000000000000000000000000000000000000000000000000000000000000          BALLOTS CAST - BLANK                                    BALLOTS CAST - BLANK                  PRECINCT 1A                                            00 
00030010003000000000000000000000000000000000000000000000000000000000000000000000000000000000000000000          BALLOTS CAST - BLANK                                    BALLOTS CAST - BLANK                  PRECINCT 1B                                            00 
00030010004000000000000000000000000000000000000000000000000000000000000000000000000000000000000000000          BALLOTS CAST - BLANK                                    BALLOTS CAST - BLANK                  PRECINCT 1C                                            00 
00030010005000000000000000000000000000000000000000000000000000000000000000000000000000000000000000000          BALLOTS CAST - BLANK                                    BALLOTS CAST - BLANK                  PRECINCT 2                                             00 
00030010006000000000000000000000000000000000000000000000000000000000000000000000000000000000000000000          BALLOTS CAST - BLANK                                    BALLOTS CAST - BLANK                  PRECINCT 2A                                            00 
00030010007000000000000000000000000000000000000000000000000000000000000000000000000000000000000000000          BALLOTS CAST - BLANK                                    BALLOTS CAST - BLANK                  PRECINCT 2B                                            00 
00030010008000000000000000000000000000000000000000000000000000000000000000000000000000000000000000000          BALLOTS CAST - BLANK                                    BALLOTS CAST - BLANK                  PRECINCT 2C                                            00 
00030010009000000000000000000000000000000000000000000000000000000000000000000000000000000000000000000          BALLOTS CAST - BLANK                                    BALLOTS CAST - BLANK                  PRECINCT 3                                             00 
00030010010000000000000000000000000000000000000000000000000000000000000000000000000000000000000000000          BALLOTS CAST - BLANK                                    BALLOTS CAST - BLANK                  PRECINCT 3A                                            00 
00030010011000000000000000000000000000000000000000000000000000000000000000000000000000000000000000000          BALLOTS CAST - BLANK                                    BALLOTS CAST - BLANK                  PRECINCT 3B                                            00 
00030010012000000000000000000000000000000000000000000000000000000000000000000000000000000000000000000          BALLOTS CAST - BLANK                                    BALLOTS CAST - BLANK                  PRECINCT 3C                                            00 
00030010013000000000000000000000000000000000000000000000000000000000000000000000000000000000000000000          BALLOTS CAST - BLANK                                    BALLOTS CAST - BLANK                  PRECINCT 3D                                            00 
00030010014000000000000000000000000000000000000000000000000000000000000000000000000000000000000000000          BALLOTS CAST - BLANK                                    BALLOTS CAST - BLANK                  PRECINCT 4                                             00 
00030010015000000000000000000000000000000000000000000000000000000000000000000000000000000000000000000          BALLOTS CAST - BLANK                                    BALLOTS CAST - BLANK                  PRECINCT 4A                                            00 
00030010016000000000000000000000000000000000000000000000000000000000000000000000000000000000000000000          BALLOTS CAST - BLANK                                    BALLOTS CAST - BLANK                  PRECINCT 4B                                            00 
00030010017000000000000000000000000000000000000000000000000000000000000000000000000000000000000000000          BALLOTS CAST - BLANK                                    BALLOTS CAST - BLANK                  PRECINCT 4C                                            00 
03010010001000001000000000001000000000000000000000000000000000000000000000000000000000000000000000000NON       US Senator                                              Edward Kimbrough                      PRECINCT 1                                             01 
03010010002000002000000000002000000000000000000000000000000000000000000000000000000000000000000000000NON       US Senator                                              Edward Kimbrough                      PRECINCT 1A                                            01 
03010010003000001000000000001000000000000000000000000000000000000000000000000000000000000000000000000NON       US Senator                                              Edward Kimbrough                      PRECINCT 1B                                            01 
03010010004000001000000000001000000000000000000000000000000000000000000000000000000000000000000000000NON       US Senator                                              Edward Kimbrough                      PRECINCT 1C                                            01 
03010010005000000000000000000000000000000000000000000000000000000000000000000000000000000000000000000NON       US Senator                                              Edward Kimbrough                      PRECINCT 2                                             01 
03010010006000000000000000000000000000000000000000000000000000000000000000000000000000000000000000000NON       US Senator                                              Edward Kimbrough                      PRECINCT 2A                                            01 
03010010007000000000000000000000000000000000000000000000000000000000000000000000000000000000000000000NON       US Senator                                              Edward Kimbrough                      PRECINCT 2B                                            01 
03010010008000001000000000001000000000000000000000000000000000000000000000000000000000000000000000000NON       US Senator                                              Edward Kimbrough                      PRECINCT 2C                                            01 
03010010009000001000000000001000000000000000000000000000000000000000000000000000000000000000000000000NON       US Senator                                              Edward Kimbrough                      PRECINCT 3                                             01 
03010010010000001000000000001000000000000000000000000000000000000000000000000000000000000000000000000NON       US Senator                                              Edward Kimbrough                      PRECINCT 3A                                            01 
03010010011000000000000000000000000000000000000000000000000000000000000000000000000000000000000000000NON       US Senator                                              Edward Kimbrough                      PRECINCT 3B                                            01 
03010010012000000000000000000000000000000000000000000000000000000000000000000000000000000000000000000NON       US Senator                                              Edward Kimbrough                      PRECINCT 3C                                            01 
03010010013000000000000000000000000000000000000000000000000000000000000000000000000000000000000000000NON       US Senator                                              Edward Kimbrough                      PRECINCT 3D                                            01 
03010010014000000000000000000000000000000000000000000000000000000000000000000000000000000000000000000NON       US Senator                                              Edward Kimbrough                      PRECINCT 4                                             01 
03010010015000001000000000001000000000000000000000000000000000000000000000000000000000000000000000000NON       US Senator                                              Edward Kimbrough                      PRECINCT 4A                                            01 
03010010016000000000000000000000000000000000000000000000000000000000000000000000000000000000000000000NON       US Senator                                              Edward Kimbrough                      PRECINCT 4B                                            01 
03010010017000001000000000001000000000000000000000000000000000000000000000000000000000000000000000000NON       US Senator                                              Edward Kimbrough                      PRECINCT 4C                                            01 
03010020001000002000001000001000000000000000000000000000000000000000000000000000000000000000000000000NON       US Senator                                              Beto O'Rourke                         PRECINCT 1                                             01 
03010020002000001000001000000000000000000000000000000000000000000000000000000000000000000000000000000NON       US Senator                                              Beto O'Rourke                         PRECINCT 1A                                            01 
03010020003000002000001000001000000000000000000000000000000000000000000000000000000000000000000000000NON       US Senator                                              Beto O'Rourke                         PRECINCT 1B                                            01 
03010020004000002000001000001000000000000000000000000000000000000000000000000000000000000000000000000NON       US Senator                                              Beto O'Rourke                         PRECINCT 1C                                            01 
03010020005000002000001000001000000000000000000000000000000000000000000000000000000000000000000000000NON       US Senator                                              Beto O'Rourke                         PRECINCT 2                                             01 
03010020006000003000001000002000000000000000000000000000000000000000000000000000000000000000000000000NON       US Senator                                              Beto O'Rourke                         PRECINCT 2A                                            01 
03010020007000001000000000001000000000000000000000000000000000000000000000000000000000000000000000000NON       US Senator                                              Beto O'Rourke                         PRECINCT 2B                                            01 
03010020008000000000000000000000000000000000000000000000000000000000000000000000000000000000000000000NON       US Senator                                              Beto O'Rourke                         PRECINCT 2C                                            01 
03010020009000000000000000000000000000000000000000000000000000000000000000000000000000000000000000000NON       US Senator                                              Beto O'Rourke                         PRECINCT 3                                             01 
03010020010000001000001000000000000000000000000000000000000000000000000000000000000000000000000000000NON       US Senator                                              Beto O'Rourke                         PRECINCT 3A                                            01 
03010020011000002000000000002000000000000000000000000000000000000000000000000000000000000000000000000NON       US Senator                                              Beto O'Rourke                         PRECINCT 3B                                            01 
03010020012000001000000000001000000000000000000000000000000000000000000000000000000000000000000000000NON       US Senator                                              Beto O'Rourke                         PRECINCT 3C                                            01 
03010020013000002000000000002000000000000000000000000000000000000000000000000000000000000000000000000NON       US Senator                                              Beto O'Rourke                         PRECINCT 3D                                            01 
03010020014000001000000000001000000000000000000000000000000000000000000000000000000000000000000000000NON       US Senator                                              Beto O'Rourke                         PRECINCT 4                                             01 
03010020015000002000001000001000000000000000000000000000000000000000000000000000000000000000000000000NON       US Senator                                              Beto O'Rourke                         PRECINCT 4A                                            01 
03010020016000000000000000000000000000000000000000000000000000000000000000000000000000000000000000000NON       US Senator                                              Beto O'Rourke                         PRECINCT 4B                                            01 
03010020017000000000000000000000000000000000000000000000000000000000000000000000000000000000000000000NON       US Senator                                              Beto O'Rourke                         PRECINCT 4C                                            01 
03010030001000000000000000000000000000000000000000000000000000000000000000000000000000000000000000000NON       US Senator                                              Sema Hernandez                        PRECINCT 1                                             01 
03010030002000000000000000000000000000000000000000000000000000000000000000000000000000000000000000000NON       US Senator                                              Sema Hernandez                        PRECINCT 1A                                            01 
03010030003000000000000000000000000000000000000000000000000000000000000000000000000000000000000000000NON       US Senator                                              Sema Hernandez                        PRECINCT 1B                                            01 
03010030004000000000000000000000000000000000000000000000000000000000000000000000000000000000000000000NON       US Senator                                              Sema Hernandez                        PRECINCT 1C                                            01 
03010030005000001000000000001000000000000000000000000000000000000000000000000000000000000000000000000NON       US Senator                                              Sema Hernandez                        PRECINCT 2                                             01 
03010030006000000000000000000000000000000000000000000000000000000000000000000000000000000000000000000NON       US Senator                                              Sema Hernandez                        PRECINCT 2A                                            01 
03010030007000000000000000000000000000000000000000000000000000000000000000000000000000000000000000000NON       US Senator                                              Sema Hernandez                        PRECINCT 2B                                            01 
03010030008000001000000000001000000000000000000000000000000000000000000000000000000000000000000000000NON       US Senator                                              Sema Hernandez                        PRECINCT 2C                                            01 
03010030009000000000000000000000000000000000000000000000000000000000000000000000000000000000000000000NON       US Senator                                              Sema Hernandez                        PRECINCT 3                                             01 
03010030010000001000000000001000000000000000000000000000000000000000000000000000000000000000000000000NON       US Senator                                              Sema Hernandez                        PRECINCT 3A                                            01 
03010030011000000000000000000000000000000000000000000000000000000000000000000000000000000000000000000NON       US Senator                                              Sema Hernandez                        PRECINCT 3B                                            01 
03010030012000001000000000001000000000000000000000000000000000000000000000000000000000000000000000000NON       US Senator                                              Sema Hernandez                        PRECINCT 3C                                            01 
03010030013000000000000000000000000000000000000000000000000000000000000000000000000000000000000000000NON       US Senator                                              Sema Hernandez                        PRECINCT 3D                                            01 
03010030014000000000000000000000000000000000000000000000000000000000000000000000000000000000000000000NON       US Senator                                              Sema Hernandez                        PRECINCT 4                                             01 
03010030015000000000000000000000000000000000000000000000000000000000000000000000000000000000000000000NON       US Senator                                              Sema Hernandez                        PRECINCT 4A                                            01 
03010030016000001000000000001000000000000000000000000000000000000000000000000000000000000000000000000NON       US Senator                                              Sema Hernandez                        PRECINCT 4B                                            01 
03010030017000000000000000000000000000000000000000000000000000000000000000000000000000000000000000000NON       US Senator                                              Sema Hernandez                        PRECINCT 4C                                            01 
03010040001000000000000000000000000000000000000000000000000000000000000000000000000000000000000000000          US Senator                                              OVER VOTES                            PRECINCT 1                                             01 
03010040002000000000000000000000000000000000000000000000000000000000000000000000000000000000000000000          US Senator                                              OVER VOTES                            PRECINCT 1A                                            01 
03010040003000000000000000000000000000000000000000000000000000000000000000000000000000000000000000000          US Senator                                              OVER VOTES                            PRECINCT 1B                                            01 
03010040004000000000000000000000000000000000000000000000000000000000000000000000000000000000000000000          US Senator                                              OVER VOTES                            PRECINCT 1C                                            01 
03010040005000000000000000000000000000000000000000000000000000000000000000000000000000000000000000000          US Senator                                              OVER VOTES                            PRECINCT 2                                             01 
03010040006000000000000000000000000000000000000000000000000000000000000000000000000000000000000000000          US Senator                                              OVER VOTES                            PRECINCT 2A                                            01 
03010040007000000000000000000000000000000000000000000000000000000000000000000000000000000000000000000          US Senator                                              OVER VOTES                            PRECINCT 2B                                            01 
03010040008000000000000000000000000000000000000000000000000000000000000000000000000000000000000000000          US Senator                                              OVER VOTES                            PRECINCT 2C                                            01 
03010040009000000000000000000000000000000000000000000000000000000000000000000000000000000000000000000          US Senator                                              OVER VOTES                            PRECINCT 3                                             01 
03010040010000000000000000000000000000000000000000000000000000000000000000000000000000000000000000000          US Senator                                              OVER VOTES                            PRECINCT 3A                                            01 
03010040011000000000000000000000000000000000000000000000000000000000000000000000000000000000000000000          US Senator                                              OVER VOTES                            PRECINCT 3B                                            01 
03010040012000000000000000000000000000000000000000000000000000000000000000000000000000000000000000000          US Senator                                              OVER VOTES                            PRECINCT 3C                                            01 
03010040013000000000000000000000000000000000000000000000000000000000000000000000000000000000000000000          US Senator                                              OVER VOTES                            PRECINCT 3D                                            01 
03010040014000000000000000000000000000000000000000000000000000000000000000000000000000000000000000000          US Senator                                              OVER VOTES                            PRECINCT 4                                             01 
03010040015000000000000000000000000000000000000000000000000000000000000000000000000000000000000000000          US Senator                                              OVER VOTES                            PRECINCT 4A                                            01 
03010040016000000000000000000000000000000000000000000000000000000000000000000000000000000000000000000          US Senator                                              OVER VOTES                            PRECINCT 4B                                            01 
03010040017000000000000000000000000000000000000000000000000000000000000000000000000000000000000000000          US Senator                                              OVER VOTES                            PRECINCT 4C                                            01 
03010050001000000000000000000000000000000000000000000000000000000000000000000000000000000000000000000          US Senator                                              UNDER VOTES                           PRECINCT 1                                             01 
03010050002000000000000000000000000000000000000000000000000000000000000000000000000000000000000000000          US Senator                                              UNDER VOTES                           PRECINCT 1A                                            01 
03010050003000000000000000000000000000000000000000000000000000000000000000000000000000000000000000000          US Senator                                              UNDER VOTES                           PRECINCT 1B                                            01 
03010050004000000000000000000000000000000000000000000000000000000000000000000000000000000000000000000          US Senator                                              UNDER VOTES                           PRECINCT 1C                                            01 
03010050005000000000000000000000000000000000000000000000000000000000000000000000000000000000000000000          US Senator                                              UNDER VOTES                           PRECINCT 2                                             01 
03010050006000000000000000000000000000000000000000000000000000000000000000000000000000000000000000000          US Senator                                              UNDER VOTES                           PRECINCT 2A                                            01 
03010050007000000000000000000000000000000000000000000000000000000000000000000000000000000000000000000          US Senator                                              UNDER VOTES                           PRECINCT 2B                                            01 
03010050008000000000000000000000000000000000000000000000000000000000000000000000000000000000000000000          US Senator                                              UNDER VOTES                           PRECINCT 2C                                            01 
03010050009000000000000000000000000000000000000000000000000000000000000000000000000000000000000000000          US Senator                                              UNDER VOTES                           PRECINCT 3                                             01 
03010050010000000000000000000000000000000000000000000000000000000000000000000000000000000000000000000          US Senator                                              UNDER VOTES                           PRECINCT 3A                                            01 
03010050011000000000000000000000000000000000000000000000000000000000000000000000000000000000000000000          US Senator                                              UNDER VOTES                           PRECINCT 3B                                            01 
03010050012000000000000000000000000000000000000000000000000000000000000000000000000000000000000000000          US Senator                                              UNDER VOTES                           PRECINCT 3C                                            01 
03010050013000000000000000000000000000000000000000000000000000000000000000000000000000000000000000000          US Senator                                              UNDER VOTES                           PRECINCT 3D                                            01 
03010050014000000000000000000000000000000000000000000000000000000000000000000000000000000000000000000          US Senator                                              UNDER VOTES                           PRECINCT 4                                             01 
03010050015000000000000000000000000000000000000000000000000000000000000000000000000000000000000000000          US Senator                                              UNDER VOTES                           PRECINCT 4A                                            01 
03010050016000000000000000000000000000000000000000000000000000000000000000000000000000000000000000000          US Senator                                              UNDER VOTES                           PRECINCT 4B                                            01 
03010050017000001000001000000000000000000000000000000000000000000000000000000000000000000000000000000          US Senator                                              UNDER VOTES                           PRECINCT 4C                                            01 
03020010001000000000000000000000000000000000000000000000000000000000000000000000000000000000000000000NON       US Representative, Dist 4                               Lander Bethel                         PRECINCT 1                                             01 
03020010002000000000000000000000000000000000000000000000000000000000000000000000000000000000000000000NON       US Representative, Dist 4                               Lander Bethel                         PRECINCT 1A                                            01 
03020010003000001000000000001000000000000000000000000000000000000000000000000000000000000000000000000NON       US Representative, Dist 4                               Lander Bethel                         PRECINCT 1B                                            01 
03020010004000000000000000000000000000000000000000000000000000000000000000000000000000000000000000000NON       US Representative, Dist 4                               Lander Bethel                         PRECINCT 1C                                            01 
03020010005000000000000000000000000000000000000000000000000000000000000000000000000000000000000000000NON       US Representative, Dist 4                               Lander Bethel                         PRECINCT 2                                             01 
03020010006000000000000000000000000000000000000000000000000000000000000000000000000000000000000000000NON       US Representative, Dist 4                               Lander Bethel                         PRECINCT 2A                                            01 
03020010007000000000000000000000000000000000000000000000000000000000000000000000000000000000000000000NON       US Representative, Dist 4                               Lander Bethel                         PRECINCT 2B                                            01 
03020010008000000000000000000000000000000000000000000000000000000000000000000000000000000000000000000NON       US Representative, Dist 4                               Lander Bethel                         PRECINCT 2C                                            01 
03020010009000000000000000000000000000000000000000000000000000000000000000000000000000000000000000000NON       US Representative, Dist 4                               Lander Bethel                         PRECINCT 3                                             01 
03020010010000002000000000002000000000000000000000000000000000000000000000000000000000000000000000000NON       US Representative, Dist 4                               Lander Bethel                         PRECINCT 3A                                            01 
03020010011000000000000000000000000000000000000000000000000000000000000000000000000000000000000000000NON       US Representative, Dist 4                               Lander Bethel                         PRECINCT 3B                                            01 
03020010012000000000000000000000000000000000000000000000000000000000000000000000000000000000000000000NON       US Representative, Dist 4                               Lander Bethel                         PRECINCT 3C                                            01 
03020010013000000000000000000000000000000000000000000000000000000000000000000000000000000000000000000NON       US Representative, Dist 4                               Lander Bethel                         PRECINCT 3D                                            01 
03020010014000000000000000000000000000000000000000000000000000000000000000000000000000000000000000000NON       US Representative, Dist 4                               Lander Bethel                         PRECINCT 4                                             01 
03020010015000000000000000000000000000000000000000000000000000000000000000000000000000000000000000000NON       US Representative, Dist 4                               Lander Bethel                         PRECINCT 4A                                            01 
03020010016000000000000000000000000000000000000000000000000000000000000000000000000000000000000000000NON       US Representative, Dist 4                               Lander Bethel                         PRECINCT 4B                                            01 
03020010017000000000000000000000000000000000000000000000000000000000000000000000000000000000000000000NON       US Representative, Dist 4                               Lander Bethel                         PRECINCT 4C                                            01 
03020020001000002000001000001000000000000000000000000000000000000000000000000000000000000000000000000NON       US Representative, Dist 4                               Catherine Krantz                      PRECINCT 1                                             01 
03020020002000001000001000000000000000000000000000000000000000000000000000000000000000000000000000000NON       US Representative, Dist 4                               Catherine Krantz                      PRECINCT 1A                                            01 
03020020003000002000001000001000000000000000000000000000000000000000000000000000000000000000000000000NON       US Representative, Dist 4                               Catherine Krantz                      PRECINCT 1B                                            01 
03020020004000003000001000002000000000000000000000000000000000000000000000000000000000000000000000000NON       US Representative, Dist 4                               Catherine Krantz                      PRECINCT 1C                                            01 
03020020005000003000001000002000000000000000000000000000000000000000000000000000000000000000000000000NON       US Representative, Dist 4                               Catherine Krantz                      PRECINCT 2                                             01 
03020020006000001000001000000000000000000000000000000000000000000000000000000000000000000000000000000NON       US Representative, Dist 4                               Catherine Krantz                      PRECINCT 2A                                            01 
03020020007000000000000000000000000000000000000000000000000000000000000000000000000000000000000000000NON       US Representative, Dist 4                               Catherine Krantz                      PRECINCT 2B                                            01 
03020020008000000000000000000000000000000000000000000000000000000000000000000000000000000000000000000NON       US Representative, Dist 4                               Catherine Krantz                      PRECINCT 2C                                            01 
03020020009000000000000000000000000000000000000000000000000000000000000000000000000000000000000000000NON       US Representative, Dist 4                               Catherine Krantz                      PRECINCT 3                                             01 
03020020010000001000001000000000000000000000000000000000000000000000000000000000000000000000000000000NON       US Representative, Dist 4                               Catherine Krantz                      PRECINCT 3A                                            01 
03020020011000002000000000002000000000000000000000000000000000000000000000000000000000000000000000000NON       US Representative, Dist 4                               Catherine Krantz                      PRECINCT 3B                                            01 
03020020012000002000000000002000000000000000000000000000000000000000000000000000000000000000000000000NON       US Representative, Dist 4                               Catherine Krantz                      PRECINCT 3C                                            01 
03020020013000002000000000002000000000000000000000000000000000000000000000000000000000000000000000000NON       US Representative, Dist 4                               Catherine Krantz                      PRECINCT 3D                                            01 
03020020014000001000000000001000000000000000000000000000000000000000000000000000000000000000000000000NON       US Representative, Dist 4                               Catherine Krantz                      PRECINCT 4                                             01 
03020020015000002000001000001000000000000000000000000000000000000000000000000000000000000000000000000NON       US Representative, Dist 4                               Catherine Krantz                      PRECINCT 4A                                            01 
03020020016000000000000000000000000000000000000000000000000000000000000000000000000000000000000000000NON       US Representative, Dist 4                               Catherine Krantz                      PRECINCT 4B                                            01 
03020020017000000000000000000000000000000000000000000000000000000000000000000000000000000000000000000NON       US Representative, Dist 4                               Catherine Krantz                      PRECINCT 4C                                            01 
03020030001000000000000000000000000000000000000000000000000000000000000000000000000000000000000000000          US Representative, Dist 4                               OVER VOTES                            PRECINCT 1                                             01 
03020030002000000000000000000000000000000000000000000000000000000000000000000000000000000000000000000          US Representative, Dist 4                               OVER VOTES                            PRECINCT 1A                                            01 
03020030003000000000000000000000000000000000000000000000000000000000000000000000000000000000000000000          US Representative, Dist 4                               OVER VOTES                            PRECINCT 1B                                            01 
03020030004000000000000000000000000000000000000000000000000000000000000000000000000000000000000000000          US Representative, Dist 4                               OVER VOTES                            PRECINCT 1C                                            01 
03020030005000000000000000000000000000000000000000000000000000000000000000000000000000000000000000000          US Representative, Dist 4                               OVER VOTES                            PRECINCT 2                                             01 
03020030006000000000000000000000000000000000000000000000000000000000000000000000000000000000000000000          US Representative, Dist 4                               OVER VOTES                            PRECINCT 2A                                            01 
03020030007000000000000000000000000000000000000000000000000000000000000000000000000000000000000000000          US Representative, Dist 4                               OVER VOTES                            PRECINCT 2B                                            01 
03020030008000000000000000000000000000000000000000000000000000000000000000000000000000000000000000000          US Representative, Dist 4                               OVER VOTES                            PRECINCT 2C                                            01 
03020030009000000000000000000000000000000000000000000000000000000000000000000000000000000000000000000          US Representative, Dist 4                               OVER VOTES                            PRECINCT 3                                             01 
03020030010000000000000000000000000000000000000000000000000000000000000000000000000000000000000000000          US Representative, Dist 4                               OVER VOTES                            PRECINCT 3A                                            01 
03020030011000000000000000000000000000000000000000000000000000000000000000000000000000000000000000000          US Representative, Dist 4                               OVER VOTES                            PRECINCT 3B                                            01 
03020030012000000000000000000000000000000000000000000000000000000000000000000000000000000000000000000          US Representative, Dist 4                               OVER VOTES                            PRECINCT 3C                                            01 
03020030013000000000000000000000000000000000000000000000000000000000000000000000000000000000000000000          US Representative, Dist 4                               OVER VOTES                            PRECINCT 3D                                            01 
03020030014000000000000000000000000000000000000000000000000000000000000000000000000000000000000000000          US Representative, Dist 4                               OVER VOTES                            PRECINCT 4                                             01 
03020030015000000000000000000000000000000000000000000000000000000000000000000000000000000000000000000          US Representative, Dist 4                               OVER VOTES                            PRECINCT 4A                                            01 
03020030016000000000000000000000000000000000000000000000000000000000000000000000000000000000000000000          US Representative, Dist 4                               OVER VOTES                            PRECINCT 4B                                            01 
03020030017000000000000000000000000000000000000000000000000000000000000000000000000000000000000000000          US Representative, Dist 4                               OVER VOTES                            PRECINCT 4C                                            01 
03020040001000001000000000001000000000000000000000000000000000000000000000000000000000000000000000000          US Representative, Dist 4                               UNDER VOTES                           PRECINCT 1                                             01 
03020040002000002000000000002000000000000000000000000000000000000000000000000000000000000000000000000          US Representative, Dist 4                               UNDER VOTES                           PRECINCT 1A                                            01 
03020040003000000000000000000000000000000000000000000000000000000000000000000000000000000000000000000          US Representative, Dist 4                               UNDER VOTES                           PRECINCT 1B                                            01 
03020040004000000000000000000000000000000000000000000000000000000000000000000000000000000000000000000          US Representative, Dist 4                               UNDER VOTES                           PRECINCT 1C                                            01 
03020040005000000000000000000000000000000000000000000000000000000000000000000000000000000000000000000          US Representative, Dist 4                               UNDER VOTES                           PRECINCT 2                                             01 
03020040006000002000000000002000000000000000000000000000000000000000000000000000000000000000000000000          US Representative, Dist 4                               UNDER VOTES                           PRECINCT 2A                                            01 
03020040007000001000000000001000000000000000000000000000000000000000000000000000000000000000000000000          US Representative, Dist 4                               UNDER VOTES                           PRECINCT 2B                                            01 
03020040008000002000000000002000000000000000000000000000000000000000000000000000000000000000000000000          US Representative, Dist 4                               UNDER VOTES                           PRECINCT 2C                                            01 
03020040009000001000000000001000000000000000000000000000000000000000000000000000000000000000000000000          US Representative, Dist 4                               UNDER VOTES                           PRECINCT 3                                             01 
03020040010000000000000000000000000000000000000000000000000000000000000000000000000000000000000000000          US Representative, Dist 4                               UNDER VOTES                           PRECINCT 3A                                            01 
03020040011000000000000000000000000000000000000000000000000000000000000000000000000000000000000000000          US Representative, Dist 4                               UNDER VOTES                           PRECINCT 3B                                            01 
03020040012000000000000000000000000000000000000000000000000000000000000000000000000000000000000000000          US Representative, Dist 4                               UNDER VOTES                           PRECINCT 3C                                            01 
03020040013000000000000000000000000000000000000000000000000000000000000000000000000000000000000000000          US Representative, Dist 4                               UNDER VOTES                           PRECINCT 3D                                            01 
03020040014000000000000000000000000000000000000000000000000000000000000000000000000000000000000000000          US Representative, Dist 4                               UNDER VOTES                           PRECINCT 4                                             01 
03020040015000001000000000001000000000000000000000000000000000000000000000000000000000000000000000000          US Representative, Dist 4                               UNDER VOTES                           PRECINCT 4A                                            01 
03020040016000001000000000001000000000000000000000000000000000000000000000000000000000000000000000000          US Representative, Dist 4                               UNDER VOTES                           PRECINCT 4B                                            01 
03020040017000002000001000001000000000000000000000000000000000000000000000000000000000000000000000000          US Representative, Dist 4                               UNDER VOTES                           PRECINCT 4C                                            01 
03030010001000000000000000000000000000000000000000000000000000000000000000000000000000000000000000000NON       Governor                                                Lupe Valdez                           PRECINCT 1                                             01 
03030010002000000000000000000000000000000000000000000000000000000000000000000000000000000000000000000NON       Governor                                                Lupe Valdez                           PRECINCT 1A                                            01 
03030010003000001000000000001000000000000000000000000000000000000000000000000000000000000000000000000NON       Governor                                                Lupe Valdez                           PRECINCT 1B                                            01 
03030010004000001000000000001000000000000000000000000000000000000000000000000000000000000000000000000NON       Governor                                                Lupe Valdez                           PRECINCT 1C                                            01 
03030010005000000000000000000000000000000000000000000000000000000000000000000000000000000000000000000NON       Governor                                                Lupe Valdez                           PRECINCT 2                                             01 
03030010006000000000000000000000000000000000000000000000000000000000000000000000000000000000000000000NON       Governor                                                Lupe Valdez                           PRECINCT 2A                                            01 
03030010007000000000000000000000000000000000000000000000000000000000000000000000000000000000000000000NON       Governor                                                Lupe Valdez                           PRECINCT 2B                                            01 
03030010008000001000000000001000000000000000000000000000000000000000000000000000000000000000000000000NON       Governor                                                Lupe Valdez                           PRECINCT 2C                                            01 
03030010009000000000000000000000000000000000000000000000000000000000000000000000000000000000000000000NON       Governor                                                Lupe Valdez                           PRECINCT 3                                             01 
03030010010000000000000000000000000000000000000000000000000000000000000000000000000000000000000000000NON       Governor                                                Lupe Valdez                           PRECINCT 3A                                            01 
03030010011000000000000000000000000000000000000000000000000000000000000000000000000000000000000000000NON       Governor                                                Lupe Valdez                           PRECINCT 3B                                            01 
03030010012000000000000000000000000000000000000000000000000000000000000000000000000000000000000000000NON       Governor                                                Lupe Valdez                           PRECINCT 3C                                            01 
03030010013000000000000000000000000000000000000000000000000000000000000000000000000000000000000000000NON       Governor                                                Lupe Valdez                           PRECINCT 3D                                            01 
03030010014000000000000000000000000000000000000000000000000000000000000000000000000000000000000000000NON       Governor                                                Lupe Valdez                           PRECINCT 4                                             01 
03030010015000000000000000000000000000000000000000000000000000000000000000000000000000000000000000000NON       Governor                                                Lupe Valdez                           PRECINCT 4A                                            01 
03030010016000000000000000000000000000000000000000000000000000000000000000000000000000000000000000000NON       Governor                                                Lupe Valdez                           PRECINCT 4B                                            01 
03030010017000000000000000000000000000000000000000000000000000000000000000000000000000000000000000000NON       Governor                                                Lupe Valdez                           PRECINCT 4C                                            01 
03030020001000000000000000000000000000000000000000000000000000000000000000000000000000000000000000000NON       Governor                                                Tom Wakely                            PRECINCT 1                                             01 
03030020002000000000000000000000000000000000000000000000000000000000000000000000000000000000000000000NON       Governor                                                Tom Wakely                            PRECINCT 1A                                            01 
03030020003000000000000000000000000000000000000000000000000000000000000000000000000000000000000000000NON       Governor                                                Tom Wakely                            PRECINCT 1B                                            01 
03030020004000000000000000000000000000000000000000000000000000000000000000000000000000000000000000000NON       Governor                                                Tom Wakely                            PRECINCT 1C                                            01 
03030020005000000000000000000000000000000000000000000000000000000000000000000000000000000000000000000NON       Governor                                                Tom Wakely                            PRECINCT 2                                             01 
03030020006000000000000000000000000000000000000000000000000000000000000000000000000000000000000000000NON       Governor                                                Tom Wakely                            PRECINCT 2A                                            01 
03030020007000000000000000000000000000000000000000000000000000000000000000000000000000000000000000000NON       Governor                                                Tom Wakely                            PRECINCT 2B                                            01 
03030020008000000000000000000000000000000000000000000000000000000000000000000000000000000000000000000NON       Governor                                                Tom Wakely                            PRECINCT 2C                                            01 
03030020009000000000000000000000000000000000000000000000000000000000000000000000000000000000000000000NON       Governor                                                Tom Wakely                            PRECINCT 3                                             01 
03030020010000000000000000000000000000000000000000000000000000000000000000000000000000000000000000000NON       Governor                                                Tom Wakely                            PRECINCT 3A                                            01 
03030020011000000000000000000000000000000000000000000000000000000000000000000000000000000000000000000NON       Governor                                                Tom Wakely                            PRECINCT 3B                                            01 
03030020012000000000000000000000000000000000000000000000000000000000000000000000000000000000000000000NON       Governor                                                Tom Wakely                            PRECINCT 3C                                            01 
03030020013000000000000000000000000000000000000000000000000000000000000000000000000000000000000000000NON       Governor                                                Tom Wakely                            PRECINCT 3D                                            01 
03030020014000000000000000000000000000000000000000000000000000000000000000000000000000000000000000000NON       Governor                                                Tom Wakely                            PRECINCT 4                                             01 
03030020015000000000000000000000000000000000000000000000000000000000000000000000000000000000000000000NON       Governor                                                Tom Wakely                            PRECINCT 4A                                            01 
03030020016000000000000000000000000000000000000000000000000000000000000000000000000000000000000000000NON       Governor                                                Tom Wakely                            PRECINCT 4B                                            01 
03030020017000000000000000000000000000000000000000000000000000000000000000000000000000000000000000000NON       Governor                                                Tom Wakely                            PRECINCT 4C                                            01 
03030030001000000000000000000000000000000000000000000000000000000000000000000000000000000000000000000NON       Governor                                                Cedric Davis, Sr.                     PRECINCT 1                                             01 
03030030002000000000000000000000000000000000000000000000000000000000000000000000000000000000000000000NON       Governor                                                Cedric Davis, Sr.                     PRECINCT 1A                                            01 
03030030003000001000000000001000000000000000000000000000000000000000000000000000000000000000000000000NON       Governor                                                Cedric Davis, Sr.                     PRECINCT 1B                                            01 
03030030004000000000000000000000000000000000000000000000000000000000000000000000000000000000000000000NON       Governor                                                Cedric Davis, Sr.                     PRECINCT 1C                                            01 
03030030005000000000000000000000000000000000000000000000000000000000000000000000000000000000000000000NON       Governor                                                Cedric Davis, Sr.                     PRECINCT 2                                             01 
03030030006000000000000000000000000000000000000000000000000000000000000000000000000000000000000000000NON       Governor                                                Cedric Davis, Sr.                     PRECINCT 2A                                            01 
03030030007000000000000000000000000000000000000000000000000000000000000000000000000000000000000000000NON       Governor                                                Cedric Davis, Sr.                     PRECINCT 2B                                            01 
03030030008000000000000000000000000000000000000000000000000000000000000000000000000000000000000000000NON       Governor                                                Cedric Davis, Sr.                     PRECINCT 2C                                            01 
03030030009000000000000000000000000000000000000000000000000000000000000000000000000000000000000000000NON       Governor                                                Cedric Davis, Sr.                     PRECINCT 3                                             01 
03030030010000000000000000000000000000000000000000000000000000000000000000000000000000000000000000000NON       Governor                                                Cedric Davis, Sr.                     PRECINCT 3A                                            01 
03030030011000000000000000000000000000000000000000000000000000000000000000000000000000000000000000000NON       Governor                                                Cedric Davis, Sr.                     PRECINCT 3B                                            01 
03030030012000000000000000000000000000000000000000000000000000000000000000000000000000000000000000000NON       Governor                                                Cedric Davis, Sr.                     PRECINCT 3C                                            01 
03030030013000000000000000000000000000000000000000000000000000000000000000000000000000000000000000000NON       Governor                                                Cedric Davis, Sr.                     PRECINCT 3D                                            01 
03030030014000000000000000000000000000000000000000000000000000000000000000000000000000000000000000000NON       Governor                                                Cedric Davis, Sr.                     PRECINCT 4                                             01 
03030030015000000000000000000000000000000000000000000000000000000000000000000000000000000000000000000NON       Governor                                                Cedric Davis, Sr.                     PRECINCT 4A                                            01 
03030030016000000000000000000000000000000000000000000000000000000000000000000000000000000000000000000NON       Governor                                                Cedric Davis, Sr.                     PRECINCT 4B                                            01 
03030030017000000000000000000000000000000000000000000000000000000000000000000000000000000000000000000NON       Governor                                                Cedric Davis, Sr.                     PRECINCT 4C                                            01 
03030040001000000000000000000000000000000000000000000000000000000000000000000000000000000000000000000NON       Governor                                                James Jolly Clark                     PRECINCT 1                                             01 
03030040002000000000000000000000000000000000000000000000000000000000000000000000000000000000000000000NON       Governor                                                James Jolly Clark                     PRECINCT 1A                                            01 
03030040003000000000000000000000000000000000000000000000000000000000000000000000000000000000000000000NON       Governor                                                James Jolly Clark                     PRECINCT 1B                                            01 
03030040004000000000000000000000000000000000000000000000000000000000000000000000000000000000000000000NON       Governor                                                James Jolly Clark                     PRECINCT 1C                                            01 
03030040005000000000000000000000000000000000000000000000000000000000000000000000000000000000000000000NON       Governor                                                James Jolly Clark                     PRECINCT 2                                             01 
03030040006000000000000000000000000000000000000000000000000000000000000000000000000000000000000000000NON       Governor                                                James Jolly Clark                     PRECINCT 2A                                            01 
03030040007000000000000000000000000000000000000000000000000000000000000000000000000000000000000000000NON       Governor                                                James Jolly Clark                     PRECINCT 2B                                            01 
03030040008000000000000000000000000000000000000000000000000000000000000000000000000000000000000000000NON       Governor                                                James Jolly Clark                     PRECINCT 2C                                            01 
03030040009000000000000000000000000000000000000000000000000000000000000000000000000000000000000000000NON       Governor                                                James Jolly Clark                     PRECINCT 3                                             01 
03030040010000001000000000001000000000000000000000000000000000000000000000000000000000000000000000000NON       Governor                                                James Jolly Clark                     PRECINCT 3A                                            01 
03030040011000000000000000000000000000000000000000000000000000000000000000000000000000000000000000000NON       Governor                                                James Jolly Clark                     PRECINCT 3B                                            01 
03030040012000000000000000000000000000000000000000000000000000000000000000000000000000000000000000000NON       Governor                                                James Jolly Clark                     PRECINCT 3C                                            01 
03030040013000000000000000000000000000000000000000000000000000000000000000000000000000000000000000000NON       Governor                                                James Jolly Clark                     PRECINCT 3D                                            01 
03030040014000000000000000000000000000000000000000000000000000000000000000000000000000000000000000000NON       Governor                                                James Jolly Clark                     PRECINCT 4                                             01 
03030040015000000000000000000000000000000000000000000000000000000000000000000000000000000000000000000NON       Governor                                                James Jolly Clark                     PRECINCT 4A                                            01 
03030040016000000000000000000000000000000000000000000000000000000000000000000000000000000000000000000NON       Governor                                                James Jolly Clark                     PRECINCT 4B                                            01 
03030040017000000000000000000000000000000000000000000000000000000000000000000000000000000000000000000NON       Governor                                                James Jolly Clark                     PRECINCT 4C                                            01 
03030050001000002000001000001000000000000000000000000000000000000000000000000000000000000000000000000NON       Governor                                                Adrian Ocegueda                       PRECINCT 1                                             01 
03030050002000001000001000000000000000000000000000000000000000000000000000000000000000000000000000000NON       Governor                                                Adrian Ocegueda                       PRECINCT 1A                                            01 
03030050003000001000001000000000000000000000000000000000000000000000000000000000000000000000000000000NON       Governor                                                Adrian Ocegueda                       PRECINCT 1B                                            01 
03030050004000002000001000001000000000000000000000000000000000000000000000000000000000000000000000000NON       Governor                                                Adrian Ocegueda                       PRECINCT 1C                                            01 
03030050005000001000001000000000000000000000000000000000000000000000000000000000000000000000000000000NON       Governor                                                Adrian Ocegueda                       PRECINCT 2                                             01 
03030050006000001000001000000000000000000000000000000000000000000000000000000000000000000000000000000NON       Governor                                                Adrian Ocegueda                       PRECINCT 2A                                            01 
03030050007000000000000000000000000000000000000000000000000000000000000000000000000000000000000000000NON       Governor                                                Adrian Ocegueda                       PRECINCT 2B                                            01 
03030050008000000000000000000000000000000000000000000000000000000000000000000000000000000000000000000NON       Governor                                                Adrian Ocegueda                       PRECINCT 2C                                            01 
03030050009000000000000000000000000000000000000000000000000000000000000000000000000000000000000000000NON       Governor                                                Adrian Ocegueda                       PRECINCT 3                                             01 
03030050010000001000001000000000000000000000000000000000000000000000000000000000000000000000000000000NON       Governor                                                Adrian Ocegueda                       PRECINCT 3A                                            01 
03030050011000000000000000000000000000000000000000000000000000000000000000000000000000000000000000000NON       Governor                                                Adrian Ocegueda                       PRECINCT 3B                                            01 
03030050012000000000000000000000000000000000000000000000000000000000000000000000000000000000000000000NON       Governor                                                Adrian Ocegueda                       PRECINCT 3C                                            01 
03030050013000002000000000002000000000000000000000000000000000000000000000000000000000000000000000000NON       Governor                                                Adrian Ocegueda                       PRECINCT 3D                                            01 
03030050014000001000000000001000000000000000000000000000000000000000000000000000000000000000000000000NON       Governor                                                Adrian Ocegueda                       PRECINCT 4                                             01 
03030050015000002000001000001000000000000000000000000000000000000000000000000000000000000000000000000NON       Governor                                                Adrian Ocegueda                       PRECINCT 4A                                            01 
03030050016000000000000000000000000000000000000000000000000000000000000000000000000000000000000000000NON       Governor                                                Adrian Ocegueda                       PRECINCT 4B                                            01 
03030050017000000000000000000000000000000000000000000000000000000000000000000000000000000000000000000NON       Governor                                                Adrian Ocegueda                       PRECINCT 4C                                            01 
03030060001000000000000000000000000000000000000000000000000000000000000000000000000000000000000000000NON       Governor                                                Joe Mumbach                           PRECINCT 1                                             01 
03030060002000000000000000000000000000000000000000000000000000000000000000000000000000000000000000000NON       Governor                                                Joe Mumbach                           PRECINCT 1A                                            01 
03030060003000000000000000000000000000000000000000000000000000000000000000000000000000000000000000000NON       Governor                                                Joe Mumbach                           PRECINCT 1B                                            01 
03030060004000000000000000000000000000000000000000000000000000000000000000000000000000000000000000000NON       Governor                                                Joe Mumbach                           PRECINCT 1C                                            01 
03030060005000001000000000001000000000000000000000000000000000000000000000000000000000000000000000000NON       Governor                                                Joe Mumbach                           PRECINCT 2                                             01 
03030060006000000000000000000000000000000000000000000000000000000000000000000000000000000000000000000NON       Governor                                                Joe Mumbach                           PRECINCT 2A                                            01 
03030060007000000000000000000000000000000000000000000000000000000000000000000000000000000000000000000NON       Governor                                                Joe Mumbach                           PRECINCT 2B                                            01 
03030060008000000000000000000000000000000000000000000000000000000000000000000000000000000000000000000NON       Governor                                                Joe Mumbach                           PRECINCT 2C                                            01 
03030060009000000000000000000000000000000000000000000000000000000000000000000000000000000000000000000NON       Governor                                                Joe Mumbach                           PRECINCT 3                                             01 
03030060010000000000000000000000000000000000000000000000000000000000000000000000000000000000000000000NON       Governor                                                Joe Mumbach                           PRECINCT 3A                                            01 
03030060011000000000000000000000000000000000000000000000000000000000000000000000000000000000000000000NON       Governor                                                Joe Mumbach                           PRECINCT 3B                                            01 
03030060012000000000000000000000000000000000000000000000000000000000000000000000000000000000000000000NON       Governor                                                Joe Mumbach                           PRECINCT 3C                                            01 
03030060013000000000000000000000000000000000000000000000000000000000000000000000000000000000000000000NON       Governor                                                Joe Mumbach                           PRECINCT 3D                                            01 
03030060014000000000000000000000000000000000000000000000000000000000000000000000000000000000000000000NON       Governor                                                Joe Mumbach                           PRECINCT 4                                             01 
03030060015000000000000000000000000000000000000000000000000000000000000000000000000000000000000000000NON       Governor                                                Joe Mumbach                           PRECINCT 4A                                            01 
03030060016000000000000000000000000000000000000000000000000000000000000000000000000000000000000000000NON       Governor                                                Joe Mumbach                           PRECINCT 4B                                            01 
03030060017000000000000000000000000000000000000000000000000000000000000000000000000000000000000000000NON       Governor                                                Joe Mumbach                           PRECINCT 4C                                            01 
03030070001000000000000000000000000000000000000000000000000000000000000000000000000000000000000000000NON       Governor                                                Andrew White                          PRECINCT 1                                             01 
03030070002000000000000000000000000000000000000000000000000000000000000000000000000000000000000000000NON       Governor                                                Andrew White                          PRECINCT 1A                                            01 
03030070003000000000000000000000000000000000000000000000000000000000000000000000000000000000000000000NON       Governor                                                Andrew White                          PRECINCT 1B                                            01 
03030070004000000000000000000000000000000000000000000000000000000000000000000000000000000000000000000NON       Governor                                                Andrew White                          PRECINCT 1C                                            01 
03030070005000000000000000000000000000000000000000000000000000000000000000000000000000000000000000000NON       Governor                                                Andrew White                          PRECINCT 2                                             01 
03030070006000000000000000000000000000000000000000000000000000000000000000000000000000000000000000000NON       Governor                                                Andrew White                          PRECINCT 2A                                            01 
03030070007000000000000000000000000000000000000000000000000000000000000000000000000000000000000000000NON       Governor                                                Andrew White                          PRECINCT 2B                                            01 
03030070008000000000000000000000000000000000000000000000000000000000000000000000000000000000000000000NON       Governor                                                Andrew White                          PRECINCT 2C                                            01 
03030070009000000000000000000000000000000000000000000000000000000000000000000000000000000000000000000NON       Governor                                                Andrew White                          PRECINCT 3                                             01 
03030070010000000000000000000000000000000000000000000000000000000000000000000000000000000000000000000NON       Governor                                                Andrew White                          PRECINCT 3A                                            01 
03030070011000000000000000000000000000000000000000000000000000000000000000000000000000000000000000000NON       Governor                                                Andrew White                          PRECINCT 3B                                            01 
03030070012000000000000000000000000000000000000000000000000000000000000000000000000000000000000000000NON       Governor                                                Andrew White                          PRECINCT 3C                                            01 
03030070013000000000000000000000000000000000000000000000000000000000000000000000000000000000000000000NON       Governor                                                Andrew White                          PRECINCT 3D                                            01 
03030070014000000000000000000000000000000000000000000000000000000000000000000000000000000000000000000NON       Governor                                                Andrew White                          PRECINCT 4                                             01 
03030070015000000000000000000000000000000000000000000000000000000000000000000000000000000000000000000NON       Governor                                                Andrew White                          PRECINCT 4A                                            01 
03030070016000000000000000000000000000000000000000000000000000000000000000000000000000000000000000000NON       Governor                                                Andrew White                          PRECINCT 4B                                            01 
03030070017000000000000000000000000000000000000000000000000000000000000000000000000000000000000000000NON       Governor                                                Andrew White                          PRECINCT 4C                                            01 
03030080001000000000000000000000000000000000000000000000000000000000000000000000000000000000000000000NON       Governor                                                Jeffrey Payne                         PRECINCT 1                                             01 
03030080002000000000000000000000000000000000000000000000000000000000000000000000000000000000000000000NON       Governor                                                Jeffrey Payne                         PRECINCT 1A                                            01 
03030080003000000000000000000000000000000000000000000000000000000000000000000000000000000000000000000NON       Governor                                                Jeffrey Payne                         PRECINCT 1B                                            01 
03030080004000000000000000000000000000000000000000000000000000000000000000000000000000000000000000000NON       Governor                                                Jeffrey Payne                         PRECINCT 1C                                            01 
03030080005000001000000000001000000000000000000000000000000000000000000000000000000000000000000000000NON       Governor                                                Jeffrey Payne                         PRECINCT 2                                             01 
03030080006000002000000000002000000000000000000000000000000000000000000000000000000000000000000000000NON       Governor                                                Jeffrey Payne                         PRECINCT 2A                                            01 
03030080007000000000000000000000000000000000000000000000000000000000000000000000000000000000000000000NON       Governor                                                Jeffrey Payne                         PRECINCT 2B                                            01 
03030080008000000000000000000000000000000000000000000000000000000000000000000000000000000000000000000NON       Governor                                                Jeffrey Payne                         PRECINCT 2C                                            01 
03030080009000000000000000000000000000000000000000000000000000000000000000000000000000000000000000000NON       Governor                                                Jeffrey Payne                         PRECINCT 3                                             01 
03030080010000000000000000000000000000000000000000000000000000000000000000000000000000000000000000000NON       Governor                                                Jeffrey Payne                         PRECINCT 3A                                            01 
03030080011000002000000000002000000000000000000000000000000000000000000000000000000000000000000000000NON       Governor                                                Jeffrey Payne                         PRECINCT 3B                                            01 
03030080012000001000000000001000000000000000000000000000000000000000000000000000000000000000000000000NON       Governor                                                Jeffrey Payne                         PRECINCT 3C                                            01 
03030080013000000000000000000000000000000000000000000000000000000000000000000000000000000000000000000NON       Governor                                                Jeffrey Payne                         PRECINCT 3D                                            01 
03030080014000000000000000000000000000000000000000000000000000000000000000000000000000000000000000000NON       Governor                                                Jeffrey Payne                         PRECINCT 4                                             01 
03030080015000001000000000001000000000000000000000000000000000000000000000000000000000000000000000000NON       Governor                                                Jeffrey Payne                         PRECINCT 4A                                            01 
03030080016000001000000000001000000000000000000000000000000000000000000000000000000000000000000000000NON       Governor                                                Jeffrey Payne                         PRECINCT 4B                                            01 
03030080017000001000000000001000000000000000000000000000000000000000000000000000000000000000000000000NON       Governor                                                Jeffrey Payne                         PRECINCT 4C                                            01 
03030090001000000000000000000000000000000000000000000000000000000000000000000000000000000000000000000NON       Governor                                                Grady Yarbrough                       PRECINCT 1                                             01 
03030090002000000000000000000000000000000000000000000000000000000000000000000000000000000000000000000NON       Governor                                                Grady Yarbrough                       PRECINCT 1A                                            01 
03030090003000000000000000000000000000000000000000000000000000000000000000000000000000000000000000000NON       Governor                                                Grady Yarbrough                       PRECINCT 1B                                            01 
03030090004000000000000000000000000000000000000000000000000000000000000000000000000000000000000000000NON       Governor                                                Grady Yarbrough                       PRECINCT 1C                                            01 
03030090005000000000000000000000000000000000000000000000000000000000000000000000000000000000000000000NON       Governor                                                Grady Yarbrough                       PRECINCT 2                                             01 
03030090006000000000000000000000000000000000000000000000000000000000000000000000000000000000000000000NON       Governor                                                Grady Yarbrough                       PRECINCT 2A                                            01 
03030090007000000000000000000000000000000000000000000000000000000000000000000000000000000000000000000NON       Governor                                                Grady Yarbrough                       PRECINCT 2B                                            01 
03030090008000000000000000000000000000000000000000000000000000000000000000000000000000000000000000000NON       Governor                                                Grady Yarbrough                       PRECINCT 2C                                            01 
03030090009000001000000000001000000000000000000000000000000000000000000000000000000000000000000000000NON       Governor                                                Grady Yarbrough                       PRECINCT 3                                             01 
03030090010000000000000000000000000000000000000000000000000000000000000000000000000000000000000000000NON       Governor                                                Grady Yarbrough                       PRECINCT 3A                                            01 
03030090011000000000000000000000000000000000000000000000000000000000000000000000000000000000000000000NON       Governor                                                Grady Yarbrough                       PRECINCT 3B                                            01 
03030090012000000000000000000000000000000000000000000000000000000000000000000000000000000000000000000NON       Governor                                                Grady Yarbrough                       PRECINCT 3C                                            01 
03030090013000000000000000000000000000000000000000000000000000000000000000000000000000000000000000000NON       Governor                                                Grady Yarbrough                       PRECINCT 3D                                            01 
03030090014000000000000000000000000000000000000000000000000000000000000000000000000000000000000000000NON       Governor                                                Grady Yarbrough                       PRECINCT 4                                             01 
03030090015000000000000000000000000000000000000000000000000000000000000000000000000000000000000000000NON       Governor                                                Grady Yarbrough                       PRECINCT 4A                                            01 
03030090016000000000000000000000000000000000000000000000000000000000000000000000000000000000000000000NON       Governor                                                Grady Yarbrough                       PRECINCT 4B                                            01 
03030090017000000000000000000000000000000000000000000000000000000000000000000000000000000000000000000NON       Governor                                                Grady Yarbrough                       PRECINCT 4C                                            01 
03030100001000000000000000000000000000000000000000000000000000000000000000000000000000000000000000000          Governor                                                OVER VOTES                            PRECINCT 1                                             01 
03030100002000000000000000000000000000000000000000000000000000000000000000000000000000000000000000000          Governor                                                OVER VOTES                            PRECINCT 1A                                            01 
03030100003000000000000000000000000000000000000000000000000000000000000000000000000000000000000000000          Governor                                                OVER VOTES                            PRECINCT 1B                                            01 
03030100004000000000000000000000000000000000000000000000000000000000000000000000000000000000000000000          Governor                                                OVER VOTES                            PRECINCT 1C                                            01 
03030100005000000000000000000000000000000000000000000000000000000000000000000000000000000000000000000          Governor                                                OVER VOTES                            PRECINCT 2                                             01 
03030100006000000000000000000000000000000000000000000000000000000000000000000000000000000000000000000          Governor                                                OVER VOTES                            PRECINCT 2A                                            01 
03030100007000000000000000000000000000000000000000000000000000000000000000000000000000000000000000000          Governor                                                OVER VOTES                            PRECINCT 2B                                            01 
03030100008000000000000000000000000000000000000000000000000000000000000000000000000000000000000000000          Governor                                                OVER VOTES                            PRECINCT 2C                                            01 
03030100009000000000000000000000000000000000000000000000000000000000000000000000000000000000000000000          Governor                                                OVER VOTES                            PRECINCT 3                                             01 
03030100010000000000000000000000000000000000000000000000000000000000000000000000000000000000000000000          Governor                                                OVER VOTES                            PRECINCT 3A                                            01 
03030100011000000000000000000000000000000000000000000000000000000000000000000000000000000000000000000          Governor                                                OVER VOTES                            PRECINCT 3B                                            01 
03030100012000000000000000000000000000000000000000000000000000000000000000000000000000000000000000000          Governor                                                OVER VOTES                            PRECINCT 3C                                            01 
03030100013000000000000000000000000000000000000000000000000000000000000000000000000000000000000000000          Governor                                                OVER VOTES                            PRECINCT 3D                                            01 
03030100014000000000000000000000000000000000000000000000000000000000000000000000000000000000000000000          Governor                                                OVER VOTES                            PRECINCT 4                                             01 
03030100015000000000000000000000000000000000000000000000000000000000000000000000000000000000000000000          Governor                                                OVER VOTES                            PRECINCT 4A                                            01 
03030100016000000000000000000000000000000000000000000000000000000000000000000000000000000000000000000          Governor                                                OVER VOTES                            PRECINCT 4B                                            01 
03030100017000001000001000000000000000000000000000000000000000000000000000000000000000000000000000000          Governor                                                OVER VOTES                            PRECINCT 4C                                            01 
03030110001000001000000000001000000000000000000000000000000000000000000000000000000000000000000000000          Governor                                                UNDER VOTES                           PRECINCT 1                                             01 
03030110002000002000000000002000000000000000000000000000000000000000000000000000000000000000000000000          Governor                                                UNDER VOTES                           PRECINCT 1A                                            01 
03030110003000000000000000000000000000000000000000000000000000000000000000000000000000000000000000000          Governor                                                UNDER VOTES                           PRECINCT 1B                                            01 
