00010010001000000000000000000000000000000000000000000000000000000000000000000000000000000000000000000          REGISTERED VOTERS - TOTAL                               REGISTERED VOTERS - TOTAL             PRECINCT 1                                             00 
00010010002000000000000000000000000000000000000000000000000000000000000000000000000000000000000000000          REGISTERED VOTERS - TOTAL                               REGISTERED VOTERS - TOTAL             PRECINCT 1A                                            00 
00010010003000000000000000000000000000000000000000000000000000000000000000000000000000000000000000000          REGISTERED VOTERS - TOTAL                               REGISTERED VOTERS - TOTAL             PRECINCT 1B                                            00 
00010010004000000000000000000000000000000000000000000000000000000000000000000000000000000000000000000          REGISTERED VOTERS - TOTAL                               REGISTERED VOTERS - TOTAL             PRECINCT 1C                                            00 
00010010005000000000000000000000000000000000000000000000000000000000000000000000000000000000000000000          REGISTERED VOTERS - TOTAL                               REGISTERED VOTERS - TOTAL             PRECINCT 2                                             00 
00010010006000000000000000000000000000000000000000000000000000000000000000000000000000000000000000000          REGISTERED VOTERS - TOTAL                               REGISTERED VOTERS - TOTAL             PRECINCT 2A                                            00 
00010010007000000000000000000000000000000000000000000000000000000000000000000000000000000000000000000          REGISTERED VOTERS - TOTAL                               REGISTERED VOTERS - TOTAL             PRECINCT 2B                                            00 
00010010008000000000000000000000000000000000000000000000000000000000000000000000000000000000000000000          REGISTERED VOTERS - TOTAL                               REGISTERED VOTERS - TOTAL             PRECINCT 2C                                            00 
00010010009000000000000000000000000000000000000000000000000000000000000000000000000000000000000000000          REGISTERED VOTERS - TOTAL                               REGISTERED VOTERS - TOTAL             PRECINCT 3                                             00 
00010010010000000000000000000000000000000000000000000000000000000000000000000000000000000000000000000          REGISTERED VOTERS - TOTAL                               REGISTERED VOTERS - TOTAL             PRECINCT 3A                                            00 
00010010011000000000000000000000000000000000000000000000000000000000000000000000000000000000000000000          REGISTERED VOTERS - TOTAL                               REGISTERED VOTERS - TOTAL             PRECINCT 3B                                            00 
00010010012000000000000000000000000000000000000000000000000000000000000000000000000000000000000000000          REGISTERED VOTERS - TOTAL                               REGISTERED VOTERS - TOTAL             PRECINCT 3C                                            00 
00010010013000000000000000000000000000000000000000000000000000000000000000000000000000000000000000000          REGISTERED VOTERS - TOTAL                               REGISTERED VOTERS - TOTAL             PRECINCT 3D                                            00 
00010010014000000000000000000000000000000000000000000000000000000000000000000000000000000000000000000          REGISTERED VOTERS - TOTAL                               REGISTERED VOTERS - TOTAL             PRECINCT 4                                             00 
00010010015000000000000000000000000000000000000000000000000000000000000000000000000000000000000000000          REGISTERED VOTERS - TOTAL                               REGISTERED VOTERS - TOTAL             PRECINCT 4A                                            00 
00010010016000000000000000000000000000000000000000000000000000000000000000000000000000000000000000000          REGISTERED VOTERS - TOTAL                               REGISTERED VOTERS - TOTAL             PRECINCT 4B                                            00 
00010010017000000000000000000000000000000000000000000000000000000000000000000000000000000000000000000          REGISTERED VOTERS - TOTAL                               REGISTERED VOTERS - TOTAL             PRECINCT 4C                                            00 
00020010001000005000003000002000000000000000000000000000000000000000000000000000000000000000000000000          BALLOTS CAST - TOTAL                                    BALLOTS CAST - TOTAL                  PRECINCT 1                                             00 
00020010002000005000003000002000000000000000000000000000000000000000000000000000000000000000000000000          BALLOTS CAST - TOTAL                                    BALLOTS CAST - TOTAL                  PRECINCT 1A                                            00 
00020010003000005000003000002000000000000000000000000000000000000000000000000000000000000000000000000          BALLOTS CAST - TOTAL                                    BALLOTS CAST - TOTAL                  PRECINCT 1B                                            00 
00020010004000005000003000002000000000000000000000000000000000000000000000000000000000000000000000000          BALLOTS CAST - TOTAL                                    BALLOTS CAST - TOTAL                  PRECINCT 1C                                            00 
00020010005000006000004000002000000000000000000000000000000000000000000000000000000000000000000000000          BALLOTS CAST - TOTAL                                    BALLOTS CAST - TOTAL                  PRECINCT 2                                             00 
00020010006000000000000000000000000000000000000000000000000000000000000000000000000000000000000000000          BALLOTS CAST - TOTAL                                    BALLOTS CAST - TOTAL                  PRECINCT 2A                                            00 
00020010007000006000004000002000000000000000000000000000000000000000000000000000000000000000000000000          BALLOTS CAST - TOTAL                                    BALLOTS CAST - TOTAL                  PRECINCT 2B                                            00 
00020010008000005000004000001000000000000000000000000000000000000000000000000000000000000000000000000          BALLOTS CAST - TOTAL                                    BALLOTS CAST - TOTAL                  PRECINCT 2C                                            00 
00020010009000006000004000002000000000000000000000000000000000000000000000000000000000000000000000000          BALLOTS CAST - TOTAL                                    BALLOTS CAST - TOTAL                  PRECINCT 3                                             00 
00020010010000006000004000002000000000000000000000000000000000000000000000000000000000000000000000000          BALLOTS CAST - TOTAL                                    BALLOTS CAST - TOTAL                  PRECINCT 3A                                            00 
00020010011000006000004000002000000000000000000000000000000000000000000000000000000000000000000000000          BALLOTS CAST - TOTAL                                    BALLOTS CAST - TOTAL                  PRECINCT 3B                                            00 
00020010012000006000004000002000000000000000000000000000000000000000000000000000000000000000000000000          BALLOTS CAST - TOTAL                                    BALLOTS CAST - TOTAL                  PRECINCT 3C                                            00 
00020010013000006000004000002000000000000000000000000000000000000000000000000000000000000000000000000          BALLOTS CAST - TOTAL                                    BALLOTS CAST - TOTAL                  PRECINCT 3D                                            00 
00020010014000005000003000002000000000000000000000000000000000000000000000000000000000000000000000000          BALLOTS CAST - TOTAL                                    BALLOTS CAST - TOTAL                  PRECINCT 4                                             00 
00020010015000005000003000002000000000000000000000000000000000000000000000000000000000000000000000000          BALLOTS CAST - TOTAL                                    BALLOTS CAST - TOTAL                  PRECINCT 4A                                            00 
00020010016000005000003000002000000000000000000000000000000000000000000000000000000000000000000000000          BALLOTS CAST - TOTAL                                    BALLOTS CAST - TOTAL                  PRECINCT 4B                                            00 
00020010017000004000002000002000000000000000000000000000000000000000000000000000000000000000000000000          BALLOTS CAST - TOTAL                                    BALLOTS CAST - TOTAL                  PRECINCT 4C                                            00 
00030010001000000000000000000000000000000000000000000000000000000000000000000000000000000000000000000          BALLOTS CAST - BLANK                                    BALLOTS CAST - BLANK                  PRECINCT 1                                             00 
00030010002000000000000000000000000000000000000000000000000000000000000000000000000000000000000000000          BALLOTS CAST - BLANK                                    BALLOTS CAST - BLANK                  PRECINCT 1A                                            00 
00030010003000000000000000000000000000000000000000000000000000000000000000000000000000000000000000000          BALLOTS CAST - BLANK                                    BALLOTS CAST - BLANK                  PRECINCT 1B                                            00 
00030010004000000000000000000000000000000000000000000000000000000000000000000000000000000000000000000          BALLOTS CAST - BLANK                                    BALLOTS CAST - BLANK                  PRECINCT 1C                                            00 
00030010005000000000000000000000000000000000000000000000000000000000000000000000000000000000000000000          BALLOTS CAST - BLANK                                    BALLOTS CAST - BLANK                  PRECINCT 2                                             00 
00030010006000000000000000000000000000000000000000000000000000000000000000000000000000000000000000000          BALLOTS CAST - BLANK                                    BALLOTS CAST - BLANK                  PRECINCT 2A                                            00 
00030010007000000000000000000000000000000000000000000000000000000000000000000000000000000000000000000          BALLOTS CAST - BLANK                                    BALLOTS CAST - BLANK                  PRECINCT 2B                                            00 
00030010008000000000000000000000000000000000000000000000000000000000000000000000000000000000000000000          BALLOTS CAST - BLANK                                    BALLOTS CAST - BLANK                  PRECINCT 2C                                            00 
00030010009000000000000000000000000000000000000000000000000000000000000000000000000000000000000000000          BALLOTS CAST - BLANK                                    BALLOTS CAST - BLANK                  PRECINCT 3                                             00 
00030010010000000000000000000000000000000000000000000000000000000000000000000000000000000000000000000          BALLOTS CAST - BLANK                                    BALLOTS CAST - BLANK                  PRECINCT 3A                                            00 
00030010011000000000000000000000000000000000000000000000000000000000000000000000000000000000000000000          BALLOTS CAST - BLANK                                    BALLOTS CAST - BLANK                  PRECINCT 3B                                            00 
00030010012000000000000000000000000000000000000000000000000000000000000000000000000000000000000000000          BALLOTS CAST - BLANK                                    BALLOTS CAST - BLANK                  PRECINCT 3C                                            00 
00030010013000000000000000000000000000000000000000000000000000000000000000000000000000000000000000000          BALLOTS CAST - BLANK                                    BALLOTS CAST - BLANK                  PRECINCT 3D                                            00 
00030010014000000000000000000000000000000000000000000000000000000000000000000000000000000000000000000          BALLOTS CAST - BLANK                                    BALLOTS CAST - BLANK                  PRECINCT 4                                             00 
00030010015000000000000000000000000000000000000000000000000000000000000000000000000000000000000000000          BALLOTS CAST - BLANK                                    BALLOTS CAST - BLANK                  PRECINCT 4A                                            00 
00030010016000000000000000000000000000000000000000000000000000000000000000000000000000000000000000000          BALLOTS CAST - BLANK                                    BALLOTS CAST - BLANK                  PRECINCT 4B                                            00 
00030010017000000000000000000000000000000000000000000000000000000000000000000000000000000000000000000          BALLOTS CAST - BLANK                                    BALLOTS CAST - BLANK                  PRECINCT 4C                                            00 
03010010001000000000000000000000000000000000000000000000000000000000000000000000000000000000000000000NON       United States Senator                                   Ted Cruz                              PRECINCT 1                                             01 
03010010002000000000000000000000000000000000000000000000000000000000000000000000000000000000000000000NON       United States Senator                                   Ted Cruz                              PRECINCT 1A                                            01 
03010010003000000000000000000000000000000000000000000000000000000000000000000000000000000000000000000NON       United States Senator                                   Ted Cruz                              PRECINCT 1B                                            01 
03010010004000000000000000000000000000000000000000000000000000000000000000000000000000000000000000000NON       United States Senator                                   Ted Cruz                              PRECINCT 1C                                            01 
03010010005000000000000000000000000000000000000000000000000000000000000000000000000000000000000000000NON       United States Senator                                   Ted Cruz                              PRECINCT 2                                             01 
03010010006000000000000000000000000000000000000000000000000000000000000000000000000000000000000000000NON       United States Senator                                   Ted Cruz                              PRECINCT 2A                                            01 
03010010007000000000000000000000000000000000000000000000000000000000000000000000000000000000000000000NON       United States Senator                                   Ted Cruz                              PRECINCT 2B                                            01 
03010010008000000000000000000000000000000000000000000000000000000000000000000000000000000000000000000NON       United States Senator                                   Ted Cruz                              PRECINCT 2C                                            01 
03010010009000005000004000001000000000000000000000000000000000000000000000000000000000000000000000000NON       United States Senator                                   Ted Cruz                              PRECINCT 3                                             01 
03010010010000002000000000002000000000000000000000000000000000000000000000000000000000000000000000000NON       United States Senator                                   Ted Cruz                              PRECINCT 3A                                            01 
03010010011000000000000000000000000000000000000000000000000000000000000000000000000000000000000000000NON       United States Senator                                   Ted Cruz                              PRECINCT 3B                                            01 
03010010012000005000004000001000000000000000000000000000000000000000000000000000000000000000000000000NON       United States Senator                                   Ted Cruz                              PRECINCT 3C                                            01 
03010010013000000000000000000000000000000000000000000000000000000000000000000000000000000000000000000NON       United States Senator                                   Ted Cruz                              PRECINCT 3D                                            01 
03010010014000001000000000001000000000000000000000000000000000000000000000000000000000000000000000000NON       United States Senator                                   Ted Cruz                              PRECINCT 4                                             01 
03010010015000000000000000000000000000000000000000000000000000000000000000000000000000000000000000000NON       United States Senator                                   Ted Cruz                              PRECINCT 4A                                            01 
03010010016000001000000000001000000000000000000000000000000000000000000000000000000000000000000000000NON       United States Senator                                   Ted Cruz                              PRECINCT 4B                                            01 
03010010017000002000000000002000000000000000000000000000000000000000000000000000000000000000000000000NON       United States Senator                                   Ted Cruz                              PRECINCT 4C                                            01 
03010020001000000000000000000000000000000000000000000000000000000000000000000000000000000000000000000NON       United States Senator                                   Bruce Jacobson, Jr.                   PRECINCT 1                                             01 
03010020002000001000000000001000000000000000000000000000000000000000000000000000000000000000000000000NON       United States Senator                                   Bruce Jacobson, Jr.                   PRECINCT 1A                                            01 
03010020003000000000000000000000000000000000000000000000000000000000000000000000000000000000000000000NON       United States Senator                                   Bruce Jacobson, Jr.                   PRECINCT 1B                                            01 
03010020004000000000000000000000000000000000000000000000000000000000000000000000000000000000000000000NON       United States Senator                                   Bruce Jacobson, Jr.                   PRECINCT 1C                                            01 
03010020005000000000000000000000000000000000000000000000000000000000000000000000000000000000000000000NON       United States Senator                                   Bruce Jacobson, Jr.                   PRECINCT 2                                             01 
03010020006000000000000000000000000000000000000000000000000000000000000000000000000000000000000000000NON       United States Senator                                   Bruce Jacobson, Jr.                   PRECINCT 2A                                            01 
03010020007000000000000000000000000000000000000000000000000000000000000000000000000000000000000000000NON       United States Senator                                   Bruce Jacobson, Jr.                   PRECINCT 2B                                            01 
03010020008000000000000000000000000000000000000000000000000000000000000000000000000000000000000000000NON       United States Senator                                   Bruce Jacobson, Jr.                   PRECINCT 2C                                            01 
03010020009000000000000000000000000000000000000000000000000000000000000000000000000000000000000000000NON       United States Senator                                   Bruce Jacobson, Jr.                   PRECINCT 3                                             01 
03010020010000000000000000000000000000000000000000000000000000000000000000000000000000000000000000000NON       United States Senator                                   Bruce Jacobson, Jr.                   PRECINCT 3A                                            01 
03010020011000000000000000000000000000000000000000000000000000000000000000000000000000000000000000000NON       United States Senator                                   Bruce Jacobson, Jr.                   PRECINCT 3B                                            01 
03010020012000000000000000000000000000000000000000000000000000000000000000000000000000000000000000000NON       United States Senator                                   Bruce Jacobson, Jr.                   PRECINCT 3C                                            01 
03010020013000000000000000000000000000000000000000000000000000000000000000000000000000000000000000000NON       United States Senator                                   Bruce Jacobson, Jr.                   PRECINCT 3D                                            01 
03010020014000000000000000000000000000000000000000000000000000000000000000000000000000000000000000000NON       United States Senator                                   Bruce Jacobson, Jr.                   PRECINCT 4                                             01 
03010020015000000000000000000000000000000000000000000000000000000000000000000000000000000000000000000NON       United States Senator                                   Bruce Jacobson, Jr.                   PRECINCT 4A                                            01 
03010020016000000000000000000000000000000000000000000000000000000000000000000000000000000000000000000NON       United States Senator                                   Bruce Jacobson, Jr.                   PRECINCT 4B                                            01 
03010020017000000000000000000000000000000000000000000000000000000000000000000000000000000000000000000NON       United States Senator                                   Bruce Jacobson, Jr.                   PRECINCT 4C                                            01 
03010030001000000000000000000000000000000000000000000000000000000000000000000000000000000000000000000NON       United States Senator                                   Mary Miller                           PRECINCT 1                                             01 
03010030002000000000000000000000000000000000000000000000000000000000000000000000000000000000000000000NON       United States Senator                                   Mary Miller                           PRECINCT 1A                                            01 
03010030003000000000000000000000000000000000000000000000000000000000000000000000000000000000000000000NON       United States Senator                                   Mary Miller                           PRECINCT 1B                                            01 
03010030004000000000000000000000000000000000000000000000000000000000000000000000000000000000000000000NON       United States Senator                                   Mary Miller                           PRECINCT 1C                                            01 
03010030005000005000004000001000000000000000000000000000000000000000000000000000000000000000000000000NON       United States Senator                                   Mary Miller                           PRECINCT 2                                             01 
03010030006000000000000000000000000000000000000000000000000000000000000000000000000000000000000000000NON       United States Senator                                   Mary Miller                           PRECINCT 2A                                            01 
03010030007000000000000000000000000000000000000000000000000000000000000000000000000000000000000000000NON       United States Senator                                   Mary Miller                           PRECINCT 2B                                            01 
03010030008000000000000000000000000000000000000000000000000000000000000000000000000000000000000000000NON       United States Senator                                   Mary Miller                           PRECINCT 2C                                            01 
03010030009000000000000000000000000000000000000000000000000000000000000000000000000000000000000000000NON       United States Senator                                   Mary Miller                           PRECINCT 3                                             01 
03010030010000004000004000000000000000000000000000000000000000000000000000000000000000000000000000000NON       United States Senator                                   Mary Miller                           PRECINCT 3A                                            01 
03010030011000000000000000000000000000000000000000000000000000000000000000000000000000000000000000000NON       United States Senator                                   Mary Miller                           PRECINCT 3B                                            01 
03010030012000000000000000000000000000000000000000000000000000000000000000000000000000000000000000000NON       United States Senator                                   Mary Miller                           PRECINCT 3C                                            01 
03010030013000000000000000000000000000000000000000000000000000000000000000000000000000000000000000000NON       United States Senator                                   Mary Miller                           PRECINCT 3D                                            01 
03010030014000000000000000000000000000000000000000000000000000000000000000000000000000000000000000000NON       United States Senator                                   Mary Miller                           PRECINCT 4                                             01 
03010030015000000000000000000000000000000000000000000000000000000000000000000000000000000000000000000NON       United States Senator                                   Mary Miller                           PRECINCT 4A                                            01 
03010030016000000000000000000000000000000000000000000000000000000000000000000000000000000000000000000NON       United States Senator                                   Mary Miller                           PRECINCT 4B                                            01 
03010030017000000000000000000000000000000000000000000000000000000000000000000000000000000000000000000NON       United States Senator                                   Mary Miller                           PRECINCT 4C                                            01 
03010040001000000000000000000000000000000000000000000000000000000000000000000000000000000000000000000NON       United States Senator                                   Geraldine Sam                         PRECINCT 1                                             01 
03010040002000000000000000000000000000000000000000000000000000000000000000000000000000000000000000000NON       United States Senator                                   Geraldine Sam                         PRECINCT 1A                                            01 
03010040003000000000000000000000000000000000000000000000000000000000000000000000000000000000000000000NON       United States Senator                                   Geraldine Sam                         PRECINCT 1B                                            01 
03010040004000000000000000000000000000000000000000000000000000000000000000000000000000000000000000000NON       United States Senator                                   Geraldine Sam                         PRECINCT 1C                                            01 
03010040005000001000000000001000000000000000000000000000000000000000000000000000000000000000000000000NON       United States Senator                                   Geraldine Sam                         PRECINCT 2                                             01 
03010040006000000000000000000000000000000000000000000000000000000000000000000000000000000000000000000NON       United States Senator                                   Geraldine Sam                         PRECINCT 2A                                            01 
03010040007000000000000000000000000000000000000000000000000000000000000000000000000000000000000000000NON       United States Senator                                   Geraldine Sam                         PRECINCT 2B                                            01 
03010040008000000000000000000000000000000000000000000000000000000000000000000000000000000000000000000NON       United States Senator                                   Geraldine Sam                         PRECINCT 2C                                            01 
03010040009000000000000000000000000000000000000000000000000000000000000000000000000000000000000000000NON       United States Senator                                   Geraldine Sam                         PRECINCT 3                                             01 
03010040010000000000000000000000000000000000000000000000000000000000000000000000000000000000000000000NON       United States Senator                                   Geraldine Sam                         PRECINCT 3A                                            01 
03010040011000000000000000000000000000000000000000000000000000000000000000000000000000000000000000000NON       United States Senator                                   Geraldine Sam                         PRECINCT 3B                                            01 
03010040012000000000000000000000000000000000000000000000000000000000000000000000000000000000000000000NON       United States Senator                                   Geraldine Sam                         PRECINCT 3C                                            01 
03010040013000000000000000000000000000000000000000000000000000000000000000000000000000000000000000000NON       United States Senator                                   Geraldine Sam                         PRECINCT 3D                                            01 
03010040014000000000000000000000000000000000000000000000000000000000000000000000000000000000000000000NON       United States Senator                                   Geraldine Sam                         PRECINCT 4                                             01 
03010040015000000000000000000000000000000000000000000000000000000000000000000000000000000000000000000NON       United States Senator                                   Geraldine Sam                         PRECINCT 4A                                            01 
03010040016000000000000000000000000000000000000000000000000000000000000000000000000000000000000000000NON       United States Senator                                   Geraldine Sam                         PRECINCT 4B                                            01 
03010040017000000000000000000000000000000000000000000000000000000000000000000000000000000000000000000NON       United States Senator                                   Geraldine Sam                         PRECINCT 4C                                            01 
03010050001000004000003000001000000000000000000000000000000000000000000000000000000000000000000000000NON       United States Senator                                   Stefano de Stefano                    PRECINCT 1                                             01 
03010050002000004000003000001000000000000000000000000000000000000000000000000000000000000000000000000NON       United States Senator                                   Stefano de Stefano                    PRECINCT 1A                                            01 
03010050003000002000000000002000000000000000000000000000000000000000000000000000000000000000000000000NON       United States Senator                                   Stefano de Stefano                    PRECINCT 1B                                            01 
03010050004000001000000000001000000000000000000000000000000000000000000000000000000000000000000000000NON       United States Senator                                   Stefano de Stefano                    PRECINCT 1C                                            01 
03010050005000000000000000000000000000000000000000000000000000000000000000000000000000000000000000000NON       United States Senator                                   Stefano de Stefano                    PRECINCT 2                                             01 
03010050006000000000000000000000000000000000000000000000000000000000000000000000000000000000000000000NON       United States Senator                                   Stefano de Stefano                    PRECINCT 2A                                            01 
03010050007000006000004000002000000000000000000000000000000000000000000000000000000000000000000000000NON       United States Senator                                   Stefano de Stefano                    PRECINCT 2B                                            01 
03010050008000000000000000000000000000000000000000000000000000000000000000000000000000000000000000000NON       United States Senator                                   Stefano de Stefano                    PRECINCT 2C                                            01 
03010050009000001000000000001000000000000000000000000000000000000000000000000000000000000000000000000NON       United States Senator                                   Stefano de Stefano                    PRECINCT 3                                             01 
03010050010000000000000000000000000000000000000000000000000000000000000000000000000000000000000000000NON       United States Senator                                   Stefano de Stefano                    PRECINCT 3A                                            01 
03010050011000001000000000001000000000000000000000000000000000000000000000000000000000000000000000000NON       United States Senator                                   Stefano de Stefano                    PRECINCT 3B                                            01 
03010050012000001000000000001000000000000000000000000000000000000000000000000000000000000000000000000NON       United States Senator                                   Stefano de Stefano                    PRECINCT 3C                                            01 
03010050013000006000004000002000000000000000000000000000000000000000000000000000000000000000000000000NON       United States Senator                                   Stefano de Stefano                    PRECINCT 3D                                            01 
03010050014000004000003000001000000000000000000000000000000000000000000000000000000000000000000000000NON       United States Senator                                   Stefano de Stefano                    PRECINCT 4                                             01 
03010050015000004000003000001000000000000000000000000000000000000000000000000000000000000000000000000NON       United States Senator                                   Stefano de Stefano                    PRECINCT 4A                                            01 
03010050016000004000003000001000000000000000000000000000000000000000000000000000000000000000000000000NON       United States Senator                                   Stefano de Stefano                    PRECINCT 4B                                            01 
03010050017000002000002000000000000000000000000000000000000000000000000000000000000000000000000000000NON       United States Senator                                   Stefano de Stefano                    PRECINCT 4C                                            01 
03010060001000000000000000000000000000000000000000000000000000000000000000000000000000000000000000000          United States Senator                                   OVER VOTES                            PRECINCT 1                                             01 
03010060002000000000000000000000000000000000000000000000000000000000000000000000000000000000000000000          United States Senator                                   OVER VOTES                            PRECINCT 1A                                            01 
03010060003000000000000000000000000000000000000000000000000000000000000000000000000000000000000000000          United States Senator                                   OVER VOTES                            PRECINCT 1B                                            01 
03010060004000000000000000000000000000000000000000000000000000000000000000000000000000000000000000000          United States Senator                                   OVER VOTES                            PRECINCT 1C                                            01 
03010060005000000000000000000000000000000000000000000000000000000000000000000000000000000000000000000          United States Senator                                   OVER VOTES                            PRECINCT 2                                             01 
03010060006000000000000000000000000000000000000000000000000000000000000000000000000000000000000000000          United States Senator                                   OVER VOTES                            PRECINCT 2A                                            01 
03010060007000000000000000000000000000000000000000000000000000000000000000000000000000000000000000000          United States Senator                                   OVER VOTES                            PRECINCT 2B                                            01 
03010060008000000000000000000000000000000000000000000000000000000000000000000000000000000000000000000          United States Senator                                   OVER VOTES                            PRECINCT 2C                                            01 
03010060009000000000000000000000000000000000000000000000000000000000000000000000000000000000000000000          United States Senator                                   OVER VOTES                            PRECINCT 3                                             01 
03010060010000000000000000000000000000000000000000000000000000000000000000000000000000000000000000000          United States Senator                                   OVER VOTES                            PRECINCT 3A                                            01 
03010060011000000000000000000000000000000000000000000000000000000000000000000000000000000000000000000          United States Senator                                   OVER VOTES                            PRECINCT 3B                                            01 
03010060012000000000000000000000000000000000000000000000000000000000000000000000000000000000000000000          United States Senator                                   OVER VOTES                            PRECINCT 3C                                            01 
03010060013000000000000000000000000000000000000000000000000000000000000000000000000000000000000000000          United States Senator                                   OVER VOTES                            PRECINCT 3D                                            01 
03010060014000000000000000000000000000000000000000000000000000000000000000000000000000000000000000000          United States Senator                                   OVER VOTES                            PRECINCT 4                                             01 
03010060015000000000000000000000000000000000000000000000000000000000000000000000000000000000000000000          United States Senator                                   OVER VOTES                            PRECINCT 4A                                            01 
03010060016000000000000000000000000000000000000000000000000000000000000000000000000000000000000000000          United States Senator                                   OVER VOTES                            PRECINCT 4B                                            01 
03010060017000000000000000000000000000000000000000000000000000000000000000000000000000000000000000000          United States Senator                                   OVER VOTES                            PRECINCT 4C                                            01 
03010070001000001000000000001000000000000000000000000000000000000000000000000000000000000000000000000          United States Senator                                   UNDER VOTES                           PRECINCT 1                                             01 
03010070002000000000000000000000000000000000000000000000000000000000000000000000000000000000000000000          United States Senator                                   UNDER VOTES                           PRECINCT 1A                                            01 
03010070003000003000003000000000000000000000000000000000000000000000000000000000000000000000000000000          United States Senator                                   UNDER VOTES                           PRECINCT 1B                                            01 
03010070004000004000003000001000000000000000000000000000000000000000000000000000000000000000000000000          United States Senator                                   UNDER VOTES                           PRECINCT 1C                                            01 
03010070005000000000000000000000000000000000000000000000000000000000000000000000000000000000000000000          United States Senator                                   UNDER VOTES                           PRECINCT 2                                             01 
03010070006000000000000000000000000000000000000000000000000000000000000000000000000000000000000000000          United States Senator                                   UNDER VOTES                           PRECINCT 2A                                            01 
03010070007000000000000000000000000000000000000000000000000000000000000000000000000000000000000000000          United States Senator                                   UNDER VOTES                           PRECINCT 2B                                            01 
03010070008000005000004000001000000000000000000000000000000000000000000000000000000000000000000000000          United States Senator                                   UNDER VOTES                           PRECINCT 2C                                            01 
03010070009000000000000000000000000000000000000000000000000000000000000000000000000000000000000000000          United States Senator                                   UNDER VOTES                           PRECINCT 3                                             01 
03010070010000000000000000000000000000000000000000000000000000000000000000000000000000000000000000000          United States Senator                                   UNDER VOTES                           PRECINCT 3A                                            01 
03010070011000005000004000001000000000000000000000000000000000000000000000000000000000000000000000000          United States Senator                                   UNDER VOTES                           PRECINCT 3B                                            01 
03010070012000000000000000000000000000000000000000000000000000000000000000000000000000000000000000000          United States Senator                                   UNDER VOTES                           PRECINCT 3C                                            01 
03010070013000000000000000000000000000000000000000000000000000000000000000000000000000000000000000000          United States Senator                                   UNDER VOTES                           PRECINCT 3D                                            01 
03010070014000000000000000000000000000000000000000000000000000000000000000000000000000000000000000000          United States Senator                                   UNDER VOTES                           PRECINCT 4                                             01 
03010070015000001000000000001000000000000000000000000000000000000000000000000000000000000000000000000          United States Senator                                   UNDER VOTES                           PRECINCT 4A                                            01 
03010070016000000000000000000000000000000000000000000000000000000000000000000000000000000000000000000          United States Senator                                   UNDER VOTES                           PRECINCT 4B                                            01 
03010070017000000000000000000000000000000000000000000000000000000000000000000000000000000000000000000          United States Senator                                   UNDER VOTES                           PRECINCT 4C                                            01 
03020010001000000000000000000000000000000000000000000000000000000000000000000000000000000000000000000NON       US Representative, District 4                           John Ratcliffe                        PRECINCT 1                                             01 
03020010002000000000000000000000000000000000000000000000000000000000000000000000000000000000000000000NON       US Representative, District 4                           John Ratcliffe                        PRECINCT 1A                                            01 
03020010003000000000000000000000000000000000000000000000000000000000000000000000000000000000000000000NON       US Representative, District 4                           John Ratcliffe                        PRECINCT 1B                                            01 
03020010004000000000000000000000000000000000000000000000000000000000000000000000000000000000000000000NON       US Representative, District 4                           John Ratcliffe                        PRECINCT 1C                                            01 
03020010005000001000000000001000000000000000000000000000000000000000000000000000000000000000000000000NON       US Representative, District 4                           John Ratcliffe                        PRECINCT 2                                             01 
03020010006000000000000000000000000000000000000000000000000000000000000000000000000000000000000000000NON       US Representative, District 4                           John Ratcliffe                        PRECINCT 2A                                            01 
03020010007000000000000000000000000000000000000000000000000000000000000000000000000000000000000000000NON       US Representative, District 4                           John Ratcliffe                        PRECINCT 2B                                            01 
03020010008000000000000000000000000000000000000000000000000000000000000000000000000000000000000000000NON       US Representative, District 4                           John Ratcliffe                        PRECINCT 2C                                            01 
03020010009000000000000000000000000000000000000000000000000000000000000000000000000000000000000000000NON       US Representative, District 4                           John Ratcliffe                        PRECINCT 3                                             01 
03020010010000002000000000002000000000000000000000000000000000000000000000000000000000000000000000000NON       US Representative, District 4                           John Ratcliffe                        PRECINCT 3A                                            01 
03020010011000000000000000000000000000000000000000000000000000000000000000000000000000000000000000000NON       US Representative, District 4                           John Ratcliffe                        PRECINCT 3B                                            01 
03020010012000005000004000001000000000000000000000000000000000000000000000000000000000000000000000000NON       US Representative, District 4                           John Ratcliffe                        PRECINCT 3C                                            01 
03020010013000000000000000000000000000000000000000000000000000000000000000000000000000000000000000000NON       US Representative, District 4                           John Ratcliffe                        PRECINCT 3D                                            01 
03020010014000000000000000000000000000000000000000000000000000000000000000000000000000000000000000000NON       US Representative, District 4                           John Ratcliffe                        PRECINCT 4                                             01 
03020010015000000000000000000000000000000000000000000000000000000000000000000000000000000000000000000NON       US Representative, District 4                           John Ratcliffe                        PRECINCT 4A                                            01 
03020010016000001000000000001000000000000000000000000000000000000000000000000000000000000000000000000NON       US Representative, District 4                           John Ratcliffe                        PRECINCT 4B                                            01 
03020010017000002000000000002000000000000000000000000000000000000000000000000000000000000000000000000NON       US Representative, District 4                           John Ratcliffe                        PRECINCT 4C                                            01 
03020020001000004000003000001000000000000000000000000000000000000000000000000000000000000000000000000NON       US Representative, District 4                           John Cooper                           PRECINCT 1                                             01 
03020020002000004000003000001000000000000000000000000000000000000000000000000000000000000000000000000NON       US Representative, District 4                           John Cooper                           PRECINCT 1A                                            01 
03020020003000000000000000000000000000000000000000000000000000000000000000000000000000000000000000000NON       US Representative, District 4                           John Cooper                           PRECINCT 1B                                            01 
03020020004000004000003000001000000000000000000000000000000000000000000000000000000000000000000000000NON       US Representative, District 4                           John Cooper                           PRECINCT 1C                                            01 
03020020005000000000000000000000000000000000000000000000000000000000000000000000000000000000000000000NON       US Representative, District 4                           John Cooper                           PRECINCT 2                                             01 
03020020006000000000000000000000000000000000000000000000000000000000000000000000000000000000000000000NON       US Representative, District 4                           John Cooper                           PRECINCT 2A                                            01 
03020020007000005000004000001000000000000000000000000000000000000000000000000000000000000000000000000NON       US Representative, District 4                           John Cooper                           PRECINCT 2B                                            01 
03020020008000005000004000001000000000000000000000000000000000000000000000000000000000000000000000000NON       US Representative, District 4                           John Cooper                           PRECINCT 2C                                            01 
03020020009000006000004000002000000000000000000000000000000000000000000000000000000000000000000000000NON       US Representative, District 4                           John Cooper                           PRECINCT 3                                             01 
03020020010000004000004000000000000000000000000000000000000000000000000000000000000000000000000000000NON       US Representative, District 4                           John Cooper                           PRECINCT 3A                                            01 
03020020011000001000000000001000000000000000000000000000000000000000000000000000000000000000000000000NON       US Representative, District 4                           John Cooper                           PRECINCT 3B                                            01 
03020020012000001000000000001000000000000000000000000000000000000000000000000000000000000000000000000NON       US Representative, District 4                           John Cooper                           PRECINCT 3C                                            01 
03020020013000006000004000002000000000000000000000000000000000000000000000000000000000000000000000000NON       US Representative, District 4                           John Cooper                           PRECINCT 3D                                            01 
03020020014000004000003000001000000000000000000000000000000000000000000000000000000000000000000000000NON       US Representative, District 4                           John Cooper                           PRECINCT 4                                             01 
03020020015000004000003000001000000000000000000000000000000000000000000000000000000000000000000000000NON       US Representative, District 4                           John Cooper                           PRECINCT 4A                                            01 
03020020016000004000003000001000000000000000000000000000000000000000000000000000000000000000000000000NON       US Representative, District 4                           John Cooper                           PRECINCT 4B                                            01 
03020020017000002000002000000000000000000000000000000000000000000000000000000000000000000000000000000NON       US Representative, District 4                           John Cooper                           PRECINCT 4C                                            01 
03020030001000000000000000000000000000000000000000000000000000000000000000000000000000000000000000000          US Representative, District 4                           OVER VOTES                            PRECINCT 1                                             01 
03020030002000000000000000000000000000000000000000000000000000000000000000000000000000000000000000000          US Representative, District 4                           OVER VOTES                            PRECINCT 1A                                            01 
03020030003000000000000000000000000000000000000000000000000000000000000000000000000000000000000000000          US Representative, District 4                           OVER VOTES                            PRECINCT 1B                                            01 
03020030004000000000000000000000000000000000000000000000000000000000000000000000000000000000000000000          US Representative, District 4                           OVER VOTES                            PRECINCT 1C                                            01 
03020030005000000000000000000000000000000000000000000000000000000000000000000000000000000000000000000          US Representative, District 4                           OVER VOTES                            PRECINCT 2                                             01 
03020030006000000000000000000000000000000000000000000000000000000000000000000000000000000000000000000          US Representative, District 4                           OVER VOTES                            PRECINCT 2A                                            01 
03020030007000000000000000000000000000000000000000000000000000000000000000000000000000000000000000000          US Representative, District 4                           OVER VOTES                            PRECINCT 2B                                            01 
03020030008000000000000000000000000000000000000000000000000000000000000000000000000000000000000000000          US Representative, District 4                           OVER VOTES                            PRECINCT 2C                                            01 
03020030009000000000000000000000000000000000000000000000000000000000000000000000000000000000000000000          US Representative, District 4                           OVER VOTES                            PRECINCT 3                                             01 
03020030010000000000000000000000000000000000000000000000000000000000000000000000000000000000000000000          US Representative, District 4                           OVER VOTES                            PRECINCT 3A                                            01 
03020030011000000000000000000000000000000000000000000000000000000000000000000000000000000000000000000          US Representative, District 4                           OVER VOTES                            PRECINCT 3B                                            01 
03020030012000000000000000000000000000000000000000000000000000000000000000000000000000000000000000000          US Representative, District 4                           OVER VOTES                            PRECINCT 3C                                            01 
03020030013000000000000000000000000000000000000000000000000000000000000000000000000000000000000000000          US Representative, District 4                           OVER VOTES                            PRECINCT 3D                                            01 
03020030014000000000000000000000000000000000000000000000000000000000000000000000000000000000000000000          US Representative, District 4                           OVER VOTES                            PRECINCT 4                                             01 
03020030015000000000000000000000000000000000000000000000000000000000000000000000000000000000000000000          US Representative, District 4                           OVER VOTES                            PRECINCT 4A                                            01 
03020030016000000000000000000000000000000000000000000000000000000000000000000000000000000000000000000          US Representative, District 4                           OVER VOTES                            PRECINCT 4B                                            01 
03020030017000000000000000000000000000000000000000000000000000000000000000000000000000000000000000000          US Representative, District 4                           OVER VOTES                            PRECINCT 4C                                            01 
03020040001000001000000000001000000000000000000000000000000000000000000000000000000000000000000000000          US Representative, District 4                           UNDER VOTES                           PRECINCT 1                                             01 
03020040002000001000000000001000000000000000000000000000000000000000000000000000000000000000000000000          US Representative, District 4                           UNDER VOTES                           PRECINCT 1A                                            01 
03020040003000005000003000002000000000000000000000000000000000000000000000000000000000000000000000000          US Representative, District 4                           UNDER VOTES                           PRECINCT 1B                                            01 
03020040004000001000000000001000000000000000000000000000000000000000000000000000000000000000000000000          US Representative, District 4                           UNDER VOTES                           PRECINCT 1C                                            01 
03020040005000005000004000001000000000000000000000000000000000000000000000000000000000000000000000000          US Representative, District 4                           UNDER VOTES                           PRECINCT 2                                             01 
03020040006000000000000000000000000000000000000000000000000000000000000000000000000000000000000000000          US Representative, District 4                           UNDER VOTES                           PRECINCT 2A                                            01 
03020040007000001000000000001000000000000000000000000000000000000000000000000000000000000000000000000          US Representative, District 4                           UNDER VOTES                           PRECINCT 2B                                            01 
03020040008000000000000000000000000000000000000000000000000000000000000000000000000000000000000000000          US Representative, District 4                           UNDER VOTES                           PRECINCT 2C                                            01 
03020040009000000000000000000000000000000000000000000000000000000000000000000000000000000000000000000          US Representative, District 4                           UNDER VOTES                           PRECINCT 3                                             01 
03020040010000000000000000000000000000000000000000000000000000000000000000000000000000000000000000000          US Representative, District 4                           UNDER VOTES                           PRECINCT 3A                                            01 
03020040011000005000004000001000000000000000000000000000000000000000000000000000000000000000000000000          US Representative, District 4                           UNDER VOTES                           PRECINCT 3B                                            01 
03020040012000000000000000000000000000000000000000000000000000000000000000000000000000000000000000000          US Representative, District 4                           UNDER VOTES                           PRECINCT 3C                                            01 
03020040013000000000000000000000000000000000000000000000000000000000000000000000000000000000000000000          US Representative, District 4                           UNDER VOTES                           PRECINCT 3D                                            01 
03020040014000001000000000001000000000000000000000000000000000000000000000000000000000000000000000000          US Representative, District 4                           UNDER VOTES                           PRECINCT 4                                             01 
03020040015000001000000000001000000000000000000000000000000000000000000000000000000000000000000000000          US Representative, District 4                           UNDER VOTES                           PRECINCT 4A                                            01 
03020040016000000000000000000000000000000000000000000000000000000000000000000000000000000000000000000          US Representative, District 4                           UNDER VOTES                           PRECINCT 4B                                            01 
03020040017000000000000000000000000000000000000000000000000000000000000000000000000000000000000000000          US Representative, District 4                           UNDER VOTES                           PRECINCT 4C                                            01 
03030010001000001000000000001000000000000000000000000000000000000000000000000000000000000000000000000NON       Governor                                                SECEDE Kilgore                        PRECINCT 1                                             01 
03030010002000001000000000001000000000000000000000000000000000000000000000000000000000000000000000000NON       Governor                                                SECEDE Kilgore                        PRECINCT 1A                                            01 
03030010003000003000003000000000000000000000000000000000000000000000000000000000000000000000000000000NON       Governor                                                SECEDE Kilgore                        PRECINCT 1B                                            01 
03030010004000000000000000000000000000000000000000000000000000000000000000000000000000000000000000000NON       Governor                                                SECEDE Kilgore                        PRECINCT 1C                                            01 
03030010005000001000000000001000000000000000000000000000000000000000000000000000000000000000000000000NON       Governor                                                SECEDE Kilgore                        PRECINCT 2                                             01 
03030010006000000000000000000000000000000000000000000000000000000000000000000000000000000000000000000NON       Governor                                                SECEDE Kilgore                        PRECINCT 2A                                            01 
03030010007000000000000000000000000000000000000000000000000000000000000000000000000000000000000000000NON       Governor                                                SECEDE Kilgore                        PRECINCT 2B                                            01 
03030010008000000000000000000000000000000000000000000000000000000000000000000000000000000000000000000NON       Governor                                                SECEDE Kilgore                        PRECINCT 2C                                            01 
03030010009000000000000000000000000000000000000000000000000000000000000000000000000000000000000000000NON       Governor                                                SECEDE Kilgore                        PRECINCT 3                                             01 
03030010010000002000000000002000000000000000000000000000000000000000000000000000000000000000000000000NON       Governor                                                SECEDE Kilgore                        PRECINCT 3A                                            01 
03030010011000000000000000000000000000000000000000000000000000000000000000000000000000000000000000000NON       Governor                                                SECEDE Kilgore                        PRECINCT 3B                                            01 
03030010012000000000000000000000000000000000000000000000000000000000000000000000000000000000000000000NON       Governor                                                SECEDE Kilgore                        PRECINCT 3C                                            01 
03030010013000000000000000000000000000000000000000000000000000000000000000000000000000000000000000000NON       Governor                                                SECEDE Kilgore                        PRECINCT 3D                                            01 
03030010014000000000000000000000000000000000000000000000000000000000000000000000000000000000000000000NON       Governor                                                SECEDE Kilgore                        PRECINCT 4                                             01 
03030010015000000000000000000000000000000000000000000000000000000000000000000000000000000000000000000NON       Governor                                                SECEDE Kilgore                        PRECINCT 4A                                            01 
03030010016000000000000000000000000000000000000000000000000000000000000000000000000000000000000000000NON       Governor                                                SECEDE Kilgore                        PRECINCT 4B                                            01 
03030010017000000000000000000000000000000000000000000000000000000000000000000000000000000000000000000NON       Governor                                                SECEDE Kilgore                        PRECINCT 4C                                            01 
03030020001000000000000000000000000000000000000000000000000000000000000000000000000000000000000000000NON       Governor                                                Barbara Krueger                       PRECINCT 1                                             01 
03030020002000000000000000000000000000000000000000000000000000000000000000000000000000000000000000000NON       Governor                                                Barbara Krueger                       PRECINCT 1A                                            01 
03030020003000000000000000000000000000000000000000000000000000000000000000000000000000000000000000000NON       Governor                                                Barbara Krueger                       PRECINCT 1B                                            01 
03030020004000000000000000000000000000000000000000000000000000000000000000000000000000000000000000000NON       Governor                                                Barbara Krueger                       PRECINCT 1C                                            01 
03030020005000000000000000000000000000000000000000000000000000000000000000000000000000000000000000000NON       Governor                                                Barbara Krueger                       PRECINCT 2                                             01 
03030020006000000000000000000000000000000000000000000000000000000000000000000000000000000000000000000NON       Governor                                                Barbara Krueger                       PRECINCT 2A                                            01 
03030020007000000000000000000000000000000000000000000000000000000000000000000000000000000000000000000NON       Governor                                                Barbara Krueger                       PRECINCT 2B                                            01 
03030020008000005000004000001000000000000000000000000000000000000000000000000000000000000000000000000NON       Governor                                                Barbara Krueger                       PRECINCT 2C                                            01 
03030020009000000000000000000000000000000000000000000000000000000000000000000000000000000000000000000NON       Governor                                                Barbara Krueger                       PRECINCT 3                                             01 
03030020010000004000004000000000000000000000000000000000000000000000000000000000000000000000000000000NON       Governor                                                Barbara Krueger                       PRECINCT 3A                                            01 
03030020011000000000000000000000000000000000000000000000000000000000000000000000000000000000000000000NON       Governor                                                Barbara Krueger                       PRECINCT 3B                                            01 
03030020012000000000000000000000000000000000000000000000000000000000000000000000000000000000000000000NON       Governor                                                Barbara Krueger                       PRECINCT 3C                                            01 
03030020013000000000000000000000000000000000000000000000000000000000000000000000000000000000000000000NON       Governor                                                Barbara Krueger                       PRECINCT 3D                                            01 
03030020014000001000000000001000000000000000000000000000000000000000000000000000000000000000000000000NON       Governor                                                Barbara Krueger                       PRECINCT 4                                             01 
03030020015000000000000000000000000000000000000000000000000000000000000000000000000000000000000000000NON       Governor                                                Barbara Krueger                       PRECINCT 4A                                            01 
03030020016000000000000000000000000000000000000000000000000000000000000000000000000000000000000000000NON       Governor                                                Barbara Krueger                       PRECINCT 4B                                            01 
03030020017000000000000000000000000000000000000000000000000000000000000000000000000000000000000000000NON       Governor                                                Barbara Krueger                       PRECINCT 4C                                            01 
03030030001000004000003000001000000000000000000000000000000000000000000000000000000000000000000000000NON       Governor                                                Greg Abbott                           PRECINCT 1                                             01 
03030030002000004000003000001000000000000000000000000000000000000000000000000000000000000000000000000NON       Governor                                                Greg Abbott                           PRECINCT 1A                                            01 
03030030003000000000000000000000000000000000000000000000000000000000000000000000000000000000000000000NON       Governor                                                Greg Abbott                           PRECINCT 1B                                            01 
03030030004000000000000000000000000000000000000000000000000000000000000000000000000000000000000000000NON       Governor                                                Greg Abbott                           PRECINCT 1C                                            01 
03030030005000000000000000000000000000000000000000000000000000000000000000000000000000000000000000000NON       Governor                                                Greg Abbott                           PRECINCT 2                                             01 
03030030006000000000000000000000000000000000000000000000000000000000000000000000000000000000000000000NON       Governor                                                Greg Abbott                           PRECINCT 2A                                            01 
03030030007000005000004000001000000000000000000000000000000000000000000000000000000000000000000000000NON       Governor                                                Greg Abbott                           PRECINCT 2B                                            01 
03030030008000000000000000000000000000000000000000000000000000000000000000000000000000000000000000000NON       Governor                                                Greg Abbott                           PRECINCT 2C                                            01 
03030030009000001000000000001000000000000000000000000000000000000000000000000000000000000000000000000NON       Governor                                                Greg Abbott                           PRECINCT 3                                             01 
03030030010000000000000000000000000000000000000000000000000000000000000000000000000000000000000000000NON       Governor                                                Greg Abbott                           PRECINCT 3A                                            01 
03030030011000001000000000001000000000000000000000000000000000000000000000000000000000000000000000000NON       Governor                                                Greg Abbott                           PRECINCT 3B                                            01 
03030030012000001000000000001000000000000000000000000000000000000000000000000000000000000000000000000NON       Governor                                                Greg Abbott                           PRECINCT 3C                                            01 
03030030013000006000004000002000000000000000000000000000000000000000000000000000000000000000000000000NON       Governor                                                Greg Abbott                           PRECINCT 3D                                            01 
03030030014000004000003000001000000000000000000000000000000000000000000000000000000000000000000000000NON       Governor                                                Greg Abbott                           PRECINCT 4                                             01 
03030030015000004000003000001000000000000000000000000000000000000000000000000000000000000000000000000NON       Governor                                                Greg Abbott                           PRECINCT 4A                                            01 
03030030016000005000003000002000000000000000000000000000000000000000000000000000000000000000000000000NON       Governor                                                Greg Abbott                           PRECINCT 4B                                            01 
03030030017000003000002000001000000000000000000000000000000000000000000000000000000000000000000000000NON       Governor                                                Greg Abbott                           PRECINCT 4C                                            01 
03030040001000000000000000000000000000000000000000000000000000000000000000000000000000000000000000000          Governor                                                OVER VOTES                            PRECINCT 1                                             01 
03030040002000000000000000000000000000000000000000000000000000000000000000000000000000000000000000000          Governor                                                OVER VOTES                            PRECINCT 1A                                            01 
03030040003000000000000000000000000000000000000000000000000000000000000000000000000000000000000000000          Governor                                                OVER VOTES                            PRECINCT 1B                                            01 
03030040004000000000000000000000000000000000000000000000000000000000000000000000000000000000000000000          Governor                                                OVER VOTES                            PRECINCT 1C                                            01 
03030040005000000000000000000000000000000000000000000000000000000000000000000000000000000000000000000          Governor                                                OVER VOTES                            PRECINCT 2                                             01 
03030040006000000000000000000000000000000000000000000000000000000000000000000000000000000000000000000          Governor                                                OVER VOTES                            PRECINCT 2A                                            01 
03030040007000000000000000000000000000000000000000000000000000000000000000000000000000000000000000000          Governor                                                OVER VOTES                            PRECINCT 2B                                            01 
03030040008000000000000000000000000000000000000000000000000000000000000000000000000000000000000000000          Governor                                                OVER VOTES                            PRECINCT 2C                                            01 
03030040009000000000000000000000000000000000000000000000000000000000000000000000000000000000000000000          Governor                                                OVER VOTES                            PRECINCT 3                                             01 
03030040010000000000000000000000000000000000000000000000000000000000000000000000000000000000000000000          Governor                                                OVER VOTES                            PRECINCT 3A                                            01 
03030040011000000000000000000000000000000000000000000000000000000000000000000000000000000000000000000          Governor                                                OVER VOTES                            PRECINCT 3B                                            01 
03030040012000000000000000000000000000000000000000000000000000000000000000000000000000000000000000000          Governor                                                OVER VOTES                            PRECINCT 3C                                            01 
03030040013000000000000000000000000000000000000000000000000000000000000000000000000000000000000000000          Governor                                                OVER VOTES                            PRECINCT 3D                                            01 
03030040014000000000000000000000000000000000000000000000000000000000000000000000000000000000000000000          Governor                                                OVER VOTES                            PRECINCT 4                                             01 
03030040015000000000000000000000000000000000000000000000000000000000000000000000000000000000000000000          Governor                                                OVER VOTES                            PRECINCT 4A                                            01 
03030040016000000000000000000000000000000000000000000000000000000000000000000000000000000000000000000          Governor                                                OVER VOTES                            PRECINCT 4B                                            01 
03030040017000000000000000000000000000000000000000000000000000000000000000000000000000000000000000000          Governor                                                OVER VOTES                            PRECINCT 4C                                            01 
03030050001000000000000000000000000000000000000000000000000000000000000000000000000000000000000000000          Governor                                                UNDER VOTES                           PRECINCT 1                                             01 
03030050002000000000000000000000000000000000000000000000000000000000000000000000000000000000000000000          Governor                                                UNDER VOTES                           PRECINCT 1A                                            01 
03030050003000002000000000002000000000000000000000000000000000000000000000000000000000000000000000000          Governor                                                UNDER VOTES                           PRECINCT 1B                                            01 
03030050004000005000003000002000000000000000000000000000000000000000000000000000000000000000000000000          Governor                                                UNDER VOTES                           PRECINCT 1C                                            01 
03030050005000005000004000001000000000000000000000000000000000000000000000000000000000000000000000000          Governor                                                UNDER VOTES                           PRECINCT 2                                             01 
03030050006000000000000000000000000000000000000000000000000000000000000000000000000000000000000000000          Governor                                                UNDER VOTES                           PRECINCT 2A                                            01 
03030050007000001000000000001000000000000000000000000000000000000000000000000000000000000000000000000          Governor                                                UNDER VOTES                           PRECINCT 2B                                            01 
03030050008000000000000000000000000000000000000000000000000000000000000000000000000000000000000000000          Governor                                                UNDER VOTES                           PRECINCT 2C                                            01 
03030050009000005000004000001000000000000000000000000000000000000000000000000000000000000000000000000          Governor                                                UNDER VOTES                           PRECINCT 3                                             01 
03030050010000000000000000000000000000000000000000000000000000000000000000000000000000000000000000000          Governor                                                UNDER VOTES                           PRECINCT 3A                                            01 
03030050011000005000004000001000000000000000000000000000000000000000000000000000000000000000000000000          Governor                                                UNDER VOTES                           PRECINCT 3B                                            01 
03030050012000005000004000001000000000000000000000000000000000000000000000000000000000000000000000000          Governor                                                UNDER VOTES                           PRECINCT 3C                                            01 
03030050013000000000000000000000000000000000000000000000000000000000000000000000000000000000000000000          Governor                                                UNDER VOTES                           PRECINCT 3D                                            01 
03030050014000000000000000000000000000000000000000000000000000000000000000000000000000000000000000000          Governor                                                UNDER VOTES                           PRECINCT 4                                             01 
03030050015000001000000000001000000000000000000000000000000000000000000000000000000000000000000000000          Governor                                                UNDER VOTES                           PRECINCT 4A                                            01 
03030050016000000000000000000000000000000000000000000000000000000000000000000000000000000000000000000          Governor                                                UNDER VOTES                           PRECINCT 4B                                            01 
03030050017000001000000000001000000000000000000000000000000000000000000000000000000000000000000000000          Governor                                                UNDER VOTES                           PRECINCT 4C                                            01 
03040010001000000000000000000000000000000000000000000000000000000000000000000000000000000000000000000NON       Lieutenant Governor                                     Dan Patrick                           PRECINCT 1                                             01 
03040010002000000000000000000000000000000000000000000000000000000000000000000000000000000000000000000NON       Lieutenant Governor                                     Dan Patrick                           PRECINCT 1A                                            01 
03040010003000000000000000000000000000000000000000000000000000000000000000000000000000000000000000000NON       Lieutenant Governor                                     Dan Patrick                           PRECINCT 1B                                            01 
03040010004000004000003000001000000000000000000000000000000000000000000000000000000000000000000000000NON       Lieutenant Governor                                     Dan Patrick                           PRECINCT 1C                                            01 
03040010005000000000000000000000000000000000000000000000000000000000000000000000000000000000000000000NON       Lieutenant Governor                                     Dan Patrick                           PRECINCT 2                                             01 
03040010006000000000000000000000000000000000000000000000000000000000000000000000000000000000000000000NON       Lieutenant Governor                                     Dan Patrick                           PRECINCT 2A                                            01 
03040010007000000000000000000000000000000000000000000000000000000000000000000000000000000000000000000NON       Lieutenant Governor                                     Dan Patrick                           PRECINCT 2B                                            01 
03040010008000000000000000000000000000000000000000000000000000000000000000000000000000000000000000000NON       Lieutenant Governor                                     Dan Patrick                           PRECINCT 2C                                            01 
03040010009000000000000000000000000000000000000000000000000000000000000000000000000000000000000000000NON       Lieutenant Governor                                     Dan Patrick                           PRECINCT 3                                             01 
03040010010000002000000000002000000000000000000000000000000000000000000000000000000000000000000000000NON       Lieutenant Governor                                     Dan Patrick                           PRECINCT 3A                                            01 
03040010011000000000000000000000000000000000000000000000000000000000000000000000000000000000000000000NON       Lieutenant Governor                                     Dan Patrick                           PRECINCT 3B                                            01 
03040010012000005000004000001000000000000000000000000000000000000000000000000000000000000000000000000NON       Lieutenant Governor                                     Dan Patrick                           PRECINCT 3C                                            01 
03040010013000000000000000000000000000000000000000000000000000000000000000000000000000000000000000000NON       Lieutenant Governor                                     Dan Patrick                           PRECINCT 3D                                            01 
03040010014000000000000000000000000000000000000000000000000000000000000000000000000000000000000000000NON       Lieutenant Governor                                     Dan Patrick                           PRECINCT 4                                             01 
03040010015000000000000000000000000000000000000000000000000000000000000000000000000000000000000000000NON       Lieutenant Governor                                     Dan Patrick                           PRECINCT 4A                                            01 
03040010016000000000000000000000000000000000000000000000000000000000000000000000000000000000000000000NON       Lieutenant Governor                                     Dan Patrick                           PRECINCT 4B                                            01 
03040010017000000000000000000000000000000000000000000000000000000000000000000000000000000000000000000NON       Lieutenant Governor                                     Dan Patrick                           PRECINCT 4C                                            01 
03040020001000004000003000001000000000000000000000000000000000000000000000000000000000000000000000000NON       Lieutenant Governor                                     Scott Milder                          PRECINCT 1                                             01 
03040020002000005000003000002000000000000000000000000000000000000000000000000000000000000000000000000NON       Lieutenant Governor                                     Scott Milder                          PRECINCT 1A                                            01 
03040020003000000000000000000000000000000000000000000000000000000000000000000000000000000000000000000NON       Lieutenant Governor                                     Scott Milder                          PRECINCT 1B                                            01 
03040020004000000000000000000000000000000000000000000000000000000000000000000000000000000000000000000NON       Lieutenant Governor                                     Scott Milder                          PRECINCT 1C                                            01 
03040020005000001000000000001000000000000000000000000000000000000000000000000000000000000000000000000NON       Lieutenant Governor                                     Scott Milder                          PRECINCT 2                                             01 
03040020006000000000000000000000000000000000000000000000000000000000000000000000000000000000000000000NON       Lieutenant Governor                                     Scott Milder                          PRECINCT 2A                                            01 
03040020007000006000004000002000000000000000000000000000000000000000000000000000000000000000000000000NON       Lieutenant Governor                                     Scott Milder                          PRECINCT 2B                                            01 
03040020008000000000000000000000000000000000000000000000000000000000000000000000000000000000000000000NON       Lieutenant Governor                                     Scott Milder                          PRECINCT 2C                                            01 
03040020009000006000004000002000000000000000000000000000000000000000000000000000000000000000000000000NON       Lieutenant Governor                                     Scott Milder                          PRECINCT 3                                             01 
03040020010000004000004000000000000000000000000000000000000000000000000000000000000000000000000000000NON       Lieutenant Governor                                     Scott Milder                          PRECINCT 3A                                            01 
03040020011000001000000000001000000000000000000000000000000000000000000000000000000000000000000000000NON       Lieutenant Governor                                     Scott Milder                          PRECINCT 3B                                            01 
03040020012000001000000000001000000000000000000000000000000000000000000000000000000000000000000000000NON       Lieutenant Governor                                     Scott Milder                          PRECINCT 3C                                            01 
03040020013000006000004000002000000000000000000000000000000000000000000000000000000000000000000000000NON       Lieutenant Governor                                     Scott Milder                          PRECINCT 3D                                            01 
03040020014000004000003000001000000000000000000000000000000000000000000000000000000000000000000000000NON       Lieutenant Governor                                     Scott Milder                          PRECINCT 4                                             01 
03040020015000004000003000001000000000000000000000000000000000000000000000000000000000000000000000000NON       Lieutenant Governor                                     Scott Milder                          PRECINCT 4A                                            01 
03040020016000005000003000002000000000000000000000000000000000000000000000000000000000000000000000000NON       Lieutenant Governor                                     Scott Milder                          PRECINCT 4B                                            01 
03040020017000003000002000001000000000000000000000000000000000000000000000000000000000000000000000000NON       Lieutenant Governor                                     Scott Milder                          PRECINCT 4C                                            01 
03040030001000000000000000000000000000000000000000000000000000000000000000000000000000000000000000000          Lieutenant Governor                                     OVER VOTES                            PRECINCT 1                                             01 
03040030002000000000000000000000000000000000000000000000000000000000000000000000000000000000000000000          Lieutenant Governor                                     OVER VOTES                            PRECINCT 1A                                            01 
03040030003000000000000000000000000000000000000000000000000000000000000000000000000000000000000000000          Lieutenant Governor                                     OVER VOTES                            PRECINCT 1B                                            01 
03040030004000000000000000000000000000000000000000000000000000000000000000000000000000000000000000000          Lieutenant Governor                                     OVER VOTES                            PRECINCT 1C                                            01 
03040030005000000000000000000000000000000000000000000000000000000000000000000000000000000000000000000          Lieutenant Governor                                     OVER VOTES                            PRECINCT 2                                             01 
03040030006000000000000000000000000000000000000000000000000000000000000000000000000000000000000000000          Lieutenant Governor                                     OVER VOTES                            PRECINCT 2A                                            01 
03040030007000000000000000000000000000000000000000000000000000000000000000000000000000000000000000000          Lieutenant Governor                                     OVER VOTES                            PRECINCT 2B                                            01 
03040030008000000000000000000000000000000000000000000000000000000000000000000000000000000000000000000          Lieutenant Governor                                     OVER VOTES                            PRECINCT 2C                                            01 
03040030009000000000000000000000000000000000000000000000000000000000000000000000000000000000000000000          Lieutenant Governor                                     OVER VOTES                            PRECINCT 3                                             01 
03040030010000000000000000000000000000000000000000000000000000000000000000000000000000000000000000000          Lieutenant Governor                                     OVER VOTES                            PRECINCT 3A                                            01 
03040030011000000000000000000000000000000000000000000000000000000000000000000000000000000000000000000          Lieutenant Governor                                     OVER VOTES                            PRECINCT 3B                                            01 
03040030012000000000000000000000000000000000000000000000000000000000000000000000000000000000000000000          Lieutenant Governor                                     OVER VOTES                            PRECINCT 3C                                            01 
03040030013000000000000000000000000000000000000000000000000000000000000000000000000000000000000000000          Lieutenant Governor                                     OVER VOTES                            PRECINCT 3D                                            01 
03040030014000000000000000000000000000000000000000000000000000000000000000000000000000000000000000000          Lieutenant Governor                                     OVER VOTES                            PRECINCT 4                                             01 
03040030015000000000000000000000000000000000000000000000000000000000000000000000000000000000000000000          Lieutenant Governor                                     OVER VOTES                            PRECINCT 4A                                            01 
03040030016000000000000000000000000000000000000000000000000000000000000000000000000000000000000000000          Lieutenant Governor                                     OVER VOTES                            PRECINCT 4B                                            01 
03040030017000000000000000000000000000000000000000000000000000000000000000000000000000000000000000000          Lieutenant Governor                                     OVER VOTES                            PRECINCT 4C                                            01 
03040040001000001000000000001000000000000000000000000000000000000000000000000000000000000000000000000          Lieutenant Governor                                     UNDER VOTES                           PRECINCT 1                                             01 
03040040002000000000000000000000000000000000000000000000000000000000000000000000000000000000000000000          Lieutenant Governor                                     UNDER VOTES                           PRECINCT 1A                                            01 
03040040003000005000003000002000000000000000000000000000000000000000000000000000000000000000000000000          Lieutenant Governor                                     UNDER VOTES                           PRECINCT 1B                                            01 
