01010010001001806000000000000000000000000000000          REGISTERED VOTERS - TOTAL                               REGISTERED VOTERS - TOTAL             Voting Box 1                                           00 
01010010002002467000000000000000000000000000000          REGISTERED VOTERS - TOTAL                               REGISTERED VOTERS - TOTAL             Voting Box 2                                           00 
01010010003001171000000000000000000000000000000          REGISTERED VOTERS - TOTAL                               REGISTERED VOTERS - TOTAL             Voting Box 3                                           00 
01010010004001531000000000000000000000000000000          REGISTERED VOTERS - TOTAL                               REGISTERED VOTERS - TOTAL             Voting Box 4                                           00 
01010010005000294000000000000000000000000000000          REGISTERED VOTERS - TOTAL                               REGISTERED VOTERS - TOTAL             Voting Box 5                                           00 
01010010006001385000000000000000000000000000000          REGISTERED VOTERS - TOTAL                               REGISTERED VOTERS - TOTAL             Voting Box 6                                           00 
01010010007001359000000000000000000000000000000          REGISTERED VOTERS - TOTAL                               REGISTERED VOTERS - TOTAL             Voting Box 7                                           00 
01010010008000345000000000000000000000000000000          REGISTERED VOTERS - TOTAL                               REGISTERED VOTERS - TOTAL             Voting Box 8                                           00 
01010010009001296000000000000000000000000000000          REGISTERED VOTERS - TOTAL                               REGISTERED VOTERS - TOTAL             Voting Box 9                                           00 
01010010010000533000000000000000000000000000000          REGISTERED VOTERS - TOTAL                               REGISTERED VOTERS - TOTAL             Voting Box 10                                          00 
01010010011001232000000000000000000000000000000          REGISTERED VOTERS - TOTAL                               REGISTERED VOTERS - TOTAL             Voting Box 11-12                                       00 
01010010012001711000000000000000000000000000000          REGISTERED VOTERS - TOTAL                               REGISTERED VOTERS - TOTAL             Voting Box 13-14                                       00 
01010010013000905000000000000000000000000000000          REGISTERED VOTERS - TOTAL                               REGISTERED VOTERS - TOTAL             Voting Box 15                                          00 
01010010014000794000000000000000000000000000000          REGISTERED VOTERS - TOTAL                               REGISTERED VOTERS - TOTAL             Voting Box 16                                          00 
01010010015000816000000000000000000000000000000          REGISTERED VOTERS - TOTAL                               REGISTERED VOTERS - TOTAL             Voting Box 17                                          00 
01010010016002012000000000000000000000000000000          REGISTERED VOTERS - TOTAL                               REGISTERED VOTERS - TOTAL             Voting Box 18                                          00 
01010010017002174000000000000000000000000000000          REGISTERED VOTERS - TOTAL                               REGISTERED VOTERS - TOTAL             Voting Box 19                                          00 
01010010018001143000000000000000000000000000000          REGISTERED VOTERS - TOTAL                               REGISTERED VOTERS - TOTAL             Voting Box 20                                          00 
01010010019001796000000000000000000000000000000          REGISTERED VOTERS - TOTAL                               REGISTERED VOTERS - TOTAL             Voting Box 21                                          00 
01010010020000974000000000000000000000000000000          REGISTERED VOTERS - TOTAL                               REGISTERED VOTERS - TOTAL             Voting Box 22                                          00 
01010010021001263000000000000000000000000000000          REGISTERED VOTERS - TOTAL                               REGISTERED VOTERS - TOTAL             Voting Box 23                                          00 
01010010022000814000000000000000000000000000000          REGISTERED VOTERS - TOTAL                               REGISTERED VOTERS - TOTAL             Voting Box 24                                          00 
01020010001000336000336000182000000000004000000          BALLOTS CAST - TOTAL                                    BALLOTS CAST - TOTAL                  Voting Box 1                                           00 
01020010002000313000313000390000000000001000000          BALLOTS CAST - TOTAL                                    BALLOTS CAST - TOTAL                  Voting Box 2                                           00 
01020010003000247000247000010000121000001000000          BALLOTS CAST - TOTAL                                    BALLOTS CAST - TOTAL                  Voting Box 3                                           00 
01020010004000211000211000018000200000004000000          BALLOTS CAST - TOTAL                                    BALLOTS CAST - TOTAL                  Voting Box 4                                           00 
01020010005000052000052000055000000000002000000          BALLOTS CAST - TOTAL                                    BALLOTS CAST - TOTAL                  Voting Box 5                                           00 
01020010006000170000170000074000000000004000000          BALLOTS CAST - TOTAL                                    BALLOTS CAST - TOTAL                  Voting Box 6                                           00 
01020010007000103000103000042000017000000000000          BALLOTS CAST - TOTAL                                    BALLOTS CAST - TOTAL                  Voting Box 7                                           00 
01020010008000045000045000017000000000000000000          BALLOTS CAST - TOTAL                                    BALLOTS CAST - TOTAL                  Voting Box 8                                           00 
01020010009000182000182000029000134000001000000          BALLOTS CAST - TOTAL                                    BALLOTS CAST - TOTAL                  Voting Box 9                                           00 
01020010010000054000054000005000070000001000000          BALLOTS CAST - TOTAL                                    BALLOTS CAST - TOTAL                  Voting Box 10                                          00 
01020010011000110000110000038000171000000000000          BALLOTS CAST - TOTAL                                    BALLOTS CAST - TOTAL                  Voting Box 11-12                                       00 
01020010012000327000327000032000120000000000000          BALLOTS CAST - TOTAL                                    BALLOTS CAST - TOTAL                  Voting Box 13-14                                       00 
01020010013000179000179000010000113000003000000          BALLOTS CAST - TOTAL                                    BALLOTS CAST - TOTAL                  Voting Box 15                                          00 
01020010014000089000089000123000000000001000000          BALLOTS CAST - TOTAL                                    BALLOTS CAST - TOTAL                  Voting Box 16                                          00 
01020010015000138000138000085000000000002000000          BALLOTS CAST - TOTAL                                    BALLOTS CAST - TOTAL                  Voting Box 17                                          00 
01020010016000098000098000032000317000002000000          BALLOTS CAST - TOTAL                                    BALLOTS CAST - TOTAL                  Voting Box 18                                          00 
01020010017000299000299000039000187000002000000          BALLOTS CAST - TOTAL                                    BALLOTS CAST - TOTAL                  Voting Box 19                                          00 
01020010018000253000253000016000078000001000000          BALLOTS CAST - TOTAL                                    BALLOTS CAST - TOTAL                  Voting Box 20                                          00 
01020010019000313000313000013000219000004000000          BALLOTS CAST - TOTAL                                    BALLOTS CAST - TOTAL                  Voting Box 21                                          00 
01020010020000171000171000020000188000003000000          BALLOTS CAST - TOTAL                                    BALLOTS CAST - TOTAL                  Voting Box 22                                          00 
01020010021000161000161000011000155000014000000          BALLOTS CAST - TOTAL                                    BALLOTS CAST - TOTAL                  Voting Box 23                                          00 
01020010022000122000122000008000122000000000000          BALLOTS CAST - TOTAL                                    BALLOTS CAST - TOTAL                  Voting Box 24                                          00 
01030010001000304000304000159000000000002000000REP       BALLOTS CAST - REPUBLICAN PARTY                         BALLOTS CAST - REPUBLICAN PARTY       Voting Box 1                                           00 
01030010002000290000290000364000000000001000000REP       BALLOTS CAST - REPUBLICAN PARTY                         BALLOTS CAST - REPUBLICAN PARTY       Voting Box 2                                           00 
01030010003000221000221000001000121000001000000REP       BALLOTS CAST - REPUBLICAN PARTY                         BALLOTS CAST - REPUBLICAN PARTY       Voting Box 3                                           00 
01030010004000189000189000002000200000003000000REP       BALLOTS CAST - REPUBLICAN PARTY                         BALLOTS CAST - REPUBLICAN PARTY       Voting Box 4                                           00 
01030010005000051000051000055000000000002000000REP       BALLOTS CAST - REPUBLICAN PARTY                         BALLOTS CAST - REPUBLICAN PARTY       Voting Box 5                                           00 
01030010006000113000113000035000000000001000000REP       BALLOTS CAST - REPUBLICAN PARTY                         BALLOTS CAST - REPUBLICAN PARTY       Voting Box 6                                           00 
01030010007000034000034000001000017000000000000REP       BALLOTS CAST - REPUBLICAN PARTY                         BALLOTS CAST - REPUBLICAN PARTY       Voting Box 7                                           00 
01030010008000024000024000004000000000000000000REP       BALLOTS CAST - REPUBLICAN PARTY                         BALLOTS CAST - REPUBLICAN PARTY       Voting Box 8                                           00 
01030010009000156000156000000000134000001000000REP       BALLOTS CAST - REPUBLICAN PARTY                         BALLOTS CAST - REPUBLICAN PARTY       Voting Box 9                                           00 
01030010010000047000047000000000070000001000000REP       BALLOTS CAST - REPUBLICAN PARTY                         BALLOTS CAST - REPUBLICAN PARTY       Voting Box 10                                          00 
01030010011000089000089000000000171000000000000REP       BALLOTS CAST - REPUBLICAN PARTY                         BALLOTS CAST - REPUBLICAN PARTY       Voting Box 11-12                                       00 
01030010012000293000293000001000120000000000000REP       BALLOTS CAST - REPUBLICAN PARTY                         BALLOTS CAST - REPUBLICAN PARTY       Voting Box 13-14                                       00 
01030010013000166000166000000000113000003000000REP       BALLOTS CAST - REPUBLICAN PARTY                         BALLOTS CAST - REPUBLICAN PARTY       Voting Box 15                                          00 
01030010014000080000080000107000000000001000000REP       BALLOTS CAST - REPUBLICAN PARTY                         BALLOTS CAST - REPUBLICAN PARTY       Voting Box 16                                          00 
01030010015000116000116000075000000000001000000REP       BALLOTS CAST - REPUBLICAN PARTY                         BALLOTS CAST - REPUBLICAN PARTY       Voting Box 17                                          00 
01030010016000088000088000001000316000002000000REP       BALLOTS CAST - REPUBLICAN PARTY                         BALLOTS CAST - REPUBLICAN PARTY       Voting Box 18                                          00 
01030010017000269000269000003000186000002000000REP       BALLOTS CAST - REPUBLICAN PARTY                         BALLOTS CAST - REPUBLICAN PARTY       Voting Box 19                                          00 
01030010018000238000238000000000078000000000000REP       BALLOTS CAST - REPUBLICAN PARTY                         BALLOTS CAST - REPUBLICAN PARTY       Voting Box 20                                          00 
01030010019000288000288000000000219000003000000REP       BALLOTS CAST - REPUBLICAN PARTY                         BALLOTS CAST - REPUBLICAN PARTY       Voting Box 21                                          00 
01030010020000156000156000000000188000003000000REP       BALLOTS CAST - REPUBLICAN PARTY                         BALLOTS CAST - REPUBLICAN PARTY       Voting Box 22                                          00 
01030010021000154000154000000000155000014000000REP       BALLOTS CAST - REPUBLICAN PARTY                         BALLOTS CAST - REPUBLICAN PARTY       Voting Box 23                                          00 
01030010022000115000115000000000122000000000000REP       BALLOTS CAST - REPUBLICAN PARTY                         BALLOTS CAST - REPUBLICAN PARTY       Voting Box 24                                          00 
01040010001000032000032000023000000000002000000DEM       BALLOTS CAST - DEMOCRATIC PARTY                         BALLOTS CAST - DEMOCRATIC PARTY       Voting Box 1                                           00 
01040010002000023000023000026000000000000000000DEM       BALLOTS CAST - DEMOCRATIC PARTY                         BALLOTS CAST - DEMOCRATIC PARTY       Voting Box 2                                           00 
01040010003000026000026000009000000000000000000DEM       BALLOTS CAST - DEMOCRATIC PARTY                         BALLOTS CAST - DEMOCRATIC PARTY       Voting Box 3                                           00 
01040010004000022000022000016000000000001000000DEM       BALLOTS CAST - DEMOCRATIC PARTY                         BALLOTS CAST - DEMOCRATIC PARTY       Voting Box 4                                           00 
01040010005000001000001000000000000000000000000DEM       BALLOTS CAST - DEMOCRATIC PARTY                         BALLOTS CAST - DEMOCRATIC PARTY       Voting Box 5                                           00 
01040010006000057000057000039000000000003000000DEM       BALLOTS CAST - DEMOCRATIC PARTY                         BALLOTS CAST - DEMOCRATIC PARTY       Voting Box 6                                           00 
01040010007000069000069000041000000000000000000DEM       BALLOTS CAST - DEMOCRATIC PARTY                         BALLOTS CAST - DEMOCRATIC PARTY       Voting Box 7                                           00 
01040010008000021000021000013000000000000000000DEM       BALLOTS CAST - DEMOCRATIC PARTY                         BALLOTS CAST - DEMOCRATIC PARTY       Voting Box 8                                           00 
01040010009000026000026000029000000000000000000DEM       BALLOTS CAST - DEMOCRATIC PARTY                         BALLOTS CAST - DEMOCRATIC PARTY       Voting Box 9                                           00 
01040010010000007000007000005000000000000000000DEM       BALLOTS CAST - DEMOCRATIC PARTY                         BALLOTS CAST - DEMOCRATIC PARTY       Voting Box 10                                          00 
01040010011000021000021000038000000000000000000DEM       BALLOTS CAST - DEMOCRATIC PARTY                         BALLOTS CAST - DEMOCRATIC PARTY       Voting Box 11-12                                       00 
01040010012000034000034000031000000000000000000DEM       BALLOTS CAST - DEMOCRATIC PARTY                         BALLOTS CAST - DEMOCRATIC PARTY       Voting Box 13-14                                       00 
01040010013000013000013000010000000000000000000DEM       BALLOTS CAST - DEMOCRATIC PARTY                         BALLOTS CAST - DEMOCRATIC PARTY       Voting Box 15                                          00 
01040010014000009000009000016000000000000000000DEM       BALLOTS CAST - DEMOCRATIC PARTY                         BALLOTS CAST - DEMOCRATIC PARTY       Voting Box 16                                          00 
01040010015000022000022000010000000000001000000DEM       BALLOTS CAST - DEMOCRATIC PARTY                         BALLOTS CAST - DEMOCRATIC PARTY       Voting Box 17                                          00 
01040010016000010000010000031000001000000000000DEM       BALLOTS CAST - DEMOCRATIC PARTY                         BALLOTS CAST - DEMOCRATIC PARTY       Voting Box 18                                          00 
01040010017000030000030000036000001000000000000DEM       BALLOTS CAST - DEMOCRATIC PARTY                         BALLOTS CAST - DEMOCRATIC PARTY       Voting Box 19                                          00 
01040010018000015000015000016000000000001000000DEM       BALLOTS CAST - DEMOCRATIC PARTY                         BALLOTS CAST - DEMOCRATIC PARTY       Voting Box 20                                          00 
01040010019000025000025000013000000000001000000DEM       BALLOTS CAST - DEMOCRATIC PARTY                         BALLOTS CAST - DEMOCRATIC PARTY       Voting Box 21                                          00 
01040010020000015000015000020000000000000000000DEM       BALLOTS CAST - DEMOCRATIC PARTY                         BALLOTS CAST - DEMOCRATIC PARTY       Voting Box 22                                          00 
01040010021000007000007000011000000000000000000DEM       BALLOTS CAST - DEMOCRATIC PARTY                         BALLOTS CAST - DEMOCRATIC PARTY       Voting Box 23                                          00 
01040010022000007000007000008000000000000000000DEM       BALLOTS CAST - DEMOCRATIC PARTY                         BALLOTS CAST - DEMOCRATIC PARTY       Voting Box 24                                          00 
01050010001000016000016000003000000000000000000REP       United States Senator                                   Bruce Jacobson, Jr.                   Voting Box 1                                           01 
01050010002000013000013000013000000000000000000REP       United States Senator                                   Bruce Jacobson, Jr.                   Voting Box 2                                           01 
01050010003000014000014000000000004000000000000REP       United States Senator                                   Bruce Jacobson, Jr.                   Voting Box 3                                           01 
01050010004000011000011000000000005000000000000REP       United States Senator                                   Bruce Jacobson, Jr.                   Voting Box 4                                           01 
01050010005000008000008000003000000000000000000REP       United States Senator                                   Bruce Jacobson, Jr.                   Voting Box 5                                           01 
01050010006000005000005000000000000000000000000REP       United States Senator                                   Bruce Jacobson, Jr.                   Voting Box 6                                           01 
01050010007000002000002000000000000000000000000REP       United States Senator                                   Bruce Jacobson, Jr.                   Voting Box 7                                           01 
01050010008000000000000000000000000000000000000REP       United States Senator                                   Bruce Jacobson, Jr.                   Voting Box 8                                           01 
01050010009000004000004000000000003000000000000REP       United States Senator                                   Bruce Jacobson, Jr.                   Voting Box 9                                           01 
01050010010000000000000000000000000000000000000REP       United States Senator                                   Bruce Jacobson, Jr.                   Voting Box 10                                          01 
01050010011000002000002000000000009000000000000REP       United States Senator                                   Bruce Jacobson, Jr.                   Voting Box 11-12                                       01 
01050010012000016000016000000000008000000000000REP       United States Senator                                   Bruce Jacobson, Jr.                   Voting Box 13-14                                       01 
01050010013000009000009000000000001000000000000REP       United States Senator                                   Bruce Jacobson, Jr.                   Voting Box 15                                          01 
01050010014000007000007000008000000000000000000REP       United States Senator                                   Bruce Jacobson, Jr.                   Voting Box 16                                          01 
01050010015000005000005000001000000000000000000REP       United States Senator                                   Bruce Jacobson, Jr.                   Voting Box 17                                          01 
01050010016000009000009000001000014000000000000REP       United States Senator                                   Bruce Jacobson, Jr.                   Voting Box 18                                          01 
01050010017000016000016000001000004000000000000REP       United States Senator                                   Bruce Jacobson, Jr.                   Voting Box 19                                          01 
01050010018000013000013000000000004000000000000REP       United States Senator                                   Bruce Jacobson, Jr.                   Voting Box 20                                          01 
01050010019000021000021000000000012000001000000REP       United States Senator                                   Bruce Jacobson, Jr.                   Voting Box 21                                          01 
01050010020000003000003000000000011000000000000REP       United States Senator                                   Bruce Jacobson, Jr.                   Voting Box 22                                          01 
01050010021000006000006000000000004000000000000REP       United States Senator                                   Bruce Jacobson, Jr.                   Voting Box 23                                          01 
01050010022000003000003000000000008000000000000REP       United States Senator                                   Bruce Jacobson, Jr.                   Voting Box 24                                          01 
01050020001000016000016000004000000000000000000REP       United States Senator                                   Mary Miller                           Voting Box 1                                           01 
01050020002000014000014000015000000000000000000REP       United States Senator                                   Mary Miller                           Voting Box 2                                           01 
01050020003000009000009000000000003000000000000REP       United States Senator                                   Mary Miller                           Voting Box 3                                           01 
01050020004000005000005000000000003000000000000REP       United States Senator                                   Mary Miller                           Voting Box 4                                           01 
01050020005000002000002000003000000000000000000REP       United States Senator                                   Mary Miller                           Voting Box 5                                           01 
01050020006000005000005000002000000000000000000REP       United States Senator                                   Mary Miller                           Voting Box 6                                           01 
01050020007000002000002000000000001000000000000REP       United States Senator                                   Mary Miller                           Voting Box 7                                           01 
01050020008000006000006000000000000000000000000REP       United States Senator                                   Mary Miller                           Voting Box 8                                           01 
01050020009000003000003000000000005000000000000REP       United States Senator                                   Mary Miller                           Voting Box 9                                           01 
01050020010000002000002000000000001000000000000REP       United States Senator                                   Mary Miller                           Voting Box 10                                          01 
01050020011000003000003000000000006000000000000REP       United States Senator                                   Mary Miller                           Voting Box 11-12                                       01 
01050020012000018000018000001000004000000000000REP       United States Senator                                   Mary Miller                           Voting Box 13-14                                       01 
01050020013000007000007000000000005000000000000REP       United States Senator                                   Mary Miller                           Voting Box 15                                          01 
01050020014000002000002000004000000000000000000REP       United States Senator                                   Mary Miller                           Voting Box 16                                          01 
01050020015000004000004000003000000000000000000REP       United States Senator                                   Mary Miller                           Voting Box 17                                          01 
01050020016000005000005000000000008000000000000REP       United States Senator                                   Mary Miller                           Voting Box 18                                          01 
01050020017000005000005000000000009000001000000REP       United States Senator                                   Mary Miller                           Voting Box 19                                          01 
01050020018000015000015000000000002000000000000REP       United States Senator                                   Mary Miller                           Voting Box 20                                          01 
01050020019000010000010000000000008000000000000REP       United States Senator                                   Mary Miller                           Voting Box 21                                          01 
01050020020000006000006000000000005000000000000REP       United States Senator                                   Mary Miller                           Voting Box 22                                          01 
01050020021000006000006000000000003000000000000REP       United States Senator                                   Mary Miller                           Voting Box 23                                          01 
01050020022000004000004000000000004000000000000REP       United States Senator                                   Mary Miller                           Voting Box 24                                          01 
01050030001000243000243000143000000000001000000REP       United States Senator                                   Ted Cruz                              Voting Box 1                                           01 
01050030002000242000242000313000000000001000000REP       United States Senator                                   Ted Cruz                              Voting Box 2                                           01 
01050030003000193000193000001000104000001000000REP       United States Senator                                   Ted Cruz                              Voting Box 3                                           01 
01050030004000163000163000002000180000003000000REP       United States Senator                                   Ted Cruz                              Voting Box 4                                           01 
01050030005000041000041000046000000000002000000REP       United States Senator                                   Ted Cruz                              Voting Box 5                                           01 
01050030006000092000092000031000000000001000000REP       United States Senator                                   Ted Cruz                              Voting Box 6                                           01 
01050030007000026000026000001000016000000000000REP       United States Senator                                   Ted Cruz                              Voting Box 7                                           01 
01050030008000013000013000003000000000000000000REP       United States Senator                                   Ted Cruz                              Voting Box 8                                           01 
01050030009000143000143000000000120000001000000REP       United States Senator                                   Ted Cruz                              Voting Box 9                                           01 
01050030010000045000045000000000067000001000000REP       United States Senator                                   Ted Cruz                              Voting Box 10                                          01 
01050030011000082000082000000000154000000000000REP       United States Senator                                   Ted Cruz                              Voting Box 11-12                                       01 
01050030012000236000236000000000093000000000000REP       United States Senator                                   Ted Cruz                              Voting Box 13-14                                       01 
01050030013000145000145000000000102000003000000REP       United States Senator                                   Ted Cruz                              Voting Box 15                                          01 
01050030014000069000069000090000000000001000000REP       United States Senator                                   Ted Cruz                              Voting Box 16                                          01 
01050030015000105000105000068000000000001000000REP       United States Senator                                   Ted Cruz                              Voting Box 17                                          01 
01050030016000071000071000000000281000002000000REP       United States Senator                                   Ted Cruz                              Voting Box 18                                          01 
01050030017000232000232000002000164000001000000REP       United States Senator                                   Ted Cruz                              Voting Box 19                                          01 
01050030018000188000188000000000065000000000000REP       United States Senator                                   Ted Cruz                              Voting Box 20                                          01 
01050030019000243000243000000000190000002000000REP       United States Senator                                   Ted Cruz                              Voting Box 21                                          01 
01050030020000136000136000000000161000003000000REP       United States Senator                                   Ted Cruz                              Voting Box 22                                          01 
01050030021000134000134000000000145000012000000REP       United States Senator                                   Ted Cruz                              Voting Box 23                                          01 
01050030022000107000107000000000102000000000000REP       United States Senator                                   Ted Cruz                              Voting Box 24                                          01 
01050040001000009000009000005000000000000000000REP       United States Senator                                   Stefano de Stefano                    Voting Box 1                                           01 
01050040002000004000004000005000000000000000000REP       United States Senator                                   Stefano de Stefano                    Voting Box 2                                           01 
01050040003000002000002000000000005000000000000REP       United States Senator                                   Stefano de Stefano                    Voting Box 3                                           01 
01050040004000000000000000000000000000000000000REP       United States Senator                                   Stefano de Stefano                    Voting Box 4                                           01 
01050040005000000000000000000000000000000000000REP       United States Senator                                   Stefano de Stefano                    Voting Box 5                                           01 
01050040006000003000003000000000000000000000000REP       United States Senator                                   Stefano de Stefano                    Voting Box 6                                           01 
01050040007000000000000000000000000000000000000REP       United States Senator                                   Stefano de Stefano                    Voting Box 7                                           01 
01050040008000003000003000000000000000000000000REP       United States Senator                                   Stefano de Stefano                    Voting Box 8                                           01 
01050040009000001000001000000000002000000000000REP       United States Senator                                   Stefano de Stefano                    Voting Box 9                                           01 
01050040010000000000000000000000000000000000000REP       United States Senator                                   Stefano de Stefano                    Voting Box 10                                          01 
01050040011000001000001000000000000000000000000REP       United States Senator                                   Stefano de Stefano                    Voting Box 11-12                                       01 
01050040012000010000010000000000002000000000000REP       United States Senator                                   Stefano de Stefano                    Voting Box 13-14                                       01 
01050040013000004000004000000000000000000000000REP       United States Senator                                   Stefano de Stefano                    Voting Box 15                                          01 
01050040014000000000000000000000000000000000000REP       United States Senator                                   Stefano de Stefano                    Voting Box 16                                          01 
01050040015000000000000000001000000000000000000REP       United States Senator                                   Stefano de Stefano                    Voting Box 17                                          01 
01050040016000000000000000000000003000000000000REP       United States Senator                                   Stefano de Stefano                    Voting Box 18                                          01 
01050040017000006000006000000000003000000000000REP       United States Senator                                   Stefano de Stefano                    Voting Box 19                                          01 
01050040018000004000004000000000003000000000000REP       United States Senator                                   Stefano de Stefano                    Voting Box 20                                          01 
01050040019000000000000000000000004000000000000REP       United States Senator                                   Stefano de Stefano                    Voting Box 21                                          01 
01050040020000001000001000000000000000000000000REP       United States Senator                                   Stefano de Stefano                    Voting Box 22                                          01 
01050040021000003000003000000000000000000000000REP       United States Senator                                   Stefano de Stefano                    Voting Box 23                                          01 
01050040022000000000000000000000000000000000000REP       United States Senator                                   Stefano de Stefano                    Voting Box 24                                          01 
01050050001000004000004000000000000000000000000REP       United States Senator                                   Geraldine Sam                         Voting Box 1                                           01 
01050050002000003000003000001000000000000000000REP       United States Senator                                   Geraldine Sam                         Voting Box 2                                           01 
01050050003000001000001000000000002000000000000REP       United States Senator                                   Geraldine Sam                         Voting Box 3                                           01 
01050050004000001000001000000000001000000000000REP       United States Senator                                   Geraldine Sam                         Voting Box 4                                           01 
01050050005000000000000000001000000000000000000REP       United States Senator                                   Geraldine Sam                         Voting Box 5                                           01 
01050050006000000000000000000000000000000000000REP       United States Senator                                   Geraldine Sam                         Voting Box 6                                           01 
01050050007000002000002000000000000000000000000REP       United States Senator                                   Geraldine Sam                         Voting Box 7                                           01 
01050050008000000000000000001000000000000000000REP       United States Senator                                   Geraldine Sam                         Voting Box 8                                           01 
01050050009000002000002000000000000000000000000REP       United States Senator                                   Geraldine Sam                         Voting Box 9                                           01 
01050050010000000000000000000000001000000000000REP       United States Senator                                   Geraldine Sam                         Voting Box 10                                          01 
01050050011000000000000000000000000000000000000REP       United States Senator                                   Geraldine Sam                         Voting Box 11-12                                       01 
01050050012000002000002000000000004000000000000REP       United States Senator                                   Geraldine Sam                         Voting Box 13-14                                       01 
01050050013000000000000000000000000000000000000REP       United States Senator                                   Geraldine Sam                         Voting Box 15                                          01 
01050050014000001000001000000000000000000000000REP       United States Senator                                   Geraldine Sam                         Voting Box 16                                          01 
01050050015000001000001000001000000000000000000REP       United States Senator                                   Geraldine Sam                         Voting Box 17                                          01 
01050050016000000000000000000000002000000000000REP       United States Senator                                   Geraldine Sam                         Voting Box 18                                          01 
01050050017000001000001000000000001000000000000REP       United States Senator                                   Geraldine Sam                         Voting Box 19                                          01 
01050050018000001000001000000000001000000000000REP       United States Senator                                   Geraldine Sam                         Voting Box 20                                          01 
01050050019000003000003000000000000000000000000REP       United States Senator                                   Geraldine Sam                         Voting Box 21                                          01 
01050050020000000000000000000000002000000000000REP       United States Senator                                   Geraldine Sam                         Voting Box 22                                          01 
01050050021000001000001000000000002000002000000REP       United States Senator                                   Geraldine Sam                         Voting Box 23                                          01 
01050050022000000000000000000000001000000000000REP       United States Senator                                   Geraldine Sam                         Voting Box 24                                          01 
01050060001000000000000000000000000000000000000REP       United States Senator                                   OVER VOTES                            Voting Box 1                                           01 
01050060002000000000000000000000000000000000000REP       United States Senator                                   OVER VOTES                            Voting Box 2                                           01 
01050060003000000000000000000000000000000000000REP       United States Senator                                   OVER VOTES                            Voting Box 3                                           01 
01050060004000000000000000000000000000000000000REP       United States Senator                                   OVER VOTES                            Voting Box 4                                           01 
01050060005000000000000000000000000000000000000REP       United States Senator                                   OVER VOTES                            Voting Box 5                                           01 
01050060006000000000000000000000000000000000000REP       United States Senator                                   OVER VOTES                            Voting Box 6                                           01 
01050060007000000000000000000000000000000000000REP       United States Senator                                   OVER VOTES                            Voting Box 7                                           01 
01050060008000000000000000000000000000000000000REP       United States Senator                                   OVER VOTES                            Voting Box 8                                           01 
01050060009000000000000000000000000000000000000REP       United States Senator                                   OVER VOTES                            Voting Box 9                                           01 
01050060010000000000000000000000000000000000000REP       United States Senator                                   OVER VOTES                            Voting Box 10                                          01 
01050060011000000000000000000000000000000000000REP       United States Senator                                   OVER VOTES                            Voting Box 11-12                                       01 
01050060012000000000000000000000000000000000000REP       United States Senator                                   OVER VOTES                            Voting Box 13-14                                       01 
01050060013000000000000000000000000000000000000REP       United States Senator                                   OVER VOTES                            Voting Box 15                                          01 
01050060014000000000000000000000000000000000000REP       United States Senator                                   OVER VOTES                            Voting Box 16                                          01 
01050060015000001000001000000000000000000000000REP       United States Senator                                   OVER VOTES                            Voting Box 17                                          01 
01050060016000000000000000000000000000000000000REP       United States Senator                                   OVER VOTES                            Voting Box 18                                          01 
01050060017000000000000000000000000000000000000REP       United States Senator                                   OVER VOTES                            Voting Box 19                                          01 
01050060018000000000000000000000000000000000000REP       United States Senator                                   OVER VOTES                            Voting Box 20                                          01 
01050060019000000000000000000000000000000000000REP       United States Senator                                   OVER VOTES                            Voting Box 21                                          01 
01050060020000000000000000000000000000000000000REP       United States Senator                                   OVER VOTES                            Voting Box 22                                          01 
01050060021000000000000000000000000000000000000REP       United States Senator                                   OVER VOTES                            Voting Box 23                                          01 
01050060022000000000000000000000000000000000000REP       United States Senator                                   OVER VOTES                            Voting Box 24                                          01 
01050070001000016000016000004000000000001000000REP       United States Senator                                   UNDER VOTES                           Voting Box 1                                           01 
01050070002000014000014000017000000000000000000REP       United States Senator                                   UNDER VOTES                           Voting Box 2                                           01 
01050070003000002000002000000000003000000000000REP       United States Senator                                   UNDER VOTES                           Voting Box 3                                           01 
01050070004000009000009000000000011000000000000REP       United States Senator                                   UNDER VOTES                           Voting Box 4                                           01 
01050070005000000000000000002000000000000000000REP       United States Senator                                   UNDER VOTES                           Voting Box 5                                           01 
01050070006000008000008000002000000000000000000REP       United States Senator                                   UNDER VOTES                           Voting Box 6                                           01 
01050070007000002000002000000000000000000000000REP       United States Senator                                   UNDER VOTES                           Voting Box 7                                           01 
01050070008000002000002000000000000000000000000REP       United States Senator                                   UNDER VOTES                           Voting Box 8                                           01 
01050070009000003000003000000000004000000000000REP       United States Senator                                   UNDER VOTES                           Voting Box 9                                           01 
01050070010000000000000000000000001000000000000REP       United States Senator                                   UNDER VOTES                           Voting Box 10                                          01 
01050070011000001000001000000000002000000000000REP       United States Senator                                   UNDER VOTES                           Voting Box 11-12                                       01 
01050070012000011000011000000000009000000000000REP       United States Senator                                   UNDER VOTES                           Voting Box 13-14                                       01 
01050070013000001000001000000000005000000000000REP       United States Senator                                   UNDER VOTES                           Voting Box 15                                          01 
01050070014000001000001000005000000000000000000REP       United States Senator                                   UNDER VOTES                           Voting Box 16                                          01 
01050070015000000000000000001000000000000000000REP       United States Senator                                   UNDER VOTES                           Voting Box 17                                          01 
01050070016000003000003000000000008000000000000REP       United States Senator                                   UNDER VOTES                           Voting Box 18                                          01 
01050070017000009000009000000000005000000000000REP       United States Senator                                   UNDER VOTES                           Voting Box 19                                          01 
01050070018000017000017000000000003000000000000REP       United States Senator                                   UNDER VOTES                           Voting Box 20                                          01 
01050070019000011000011000000000005000000000000REP       United States Senator                                   UNDER VOTES                           Voting Box 21                                          01 
01050070020000010000010000000000009000000000000REP       United States Senator                                   UNDER VOTES                           Voting Box 22                                          01 
01050070021000004000004000000000001000000000000REP       United States Senator                                   UNDER VOTES                           Voting Box 23                                          01 
01050070022000001000001000000000007000000000000REP       United States Senator                                   UNDER VOTES                           Voting Box 24                                          01 
01060010001000100000100000048000000000000000000REP       United States Representative, District 5                Lance Gooden                          Voting Box 1                                           01 
01060010002000078000078000097000000000001000000REP       United States Representative, District 5                Lance Gooden                          Voting Box 2                                           01 
01060010003000057000057000000000027000000000000REP       United States Representative, District 5                Lance Gooden                          Voting Box 3                                           01 
01060010004000048000048000000000052000001000000REP       United States Representative, District 5                Lance Gooden                          Voting Box 4                                           01 
01060010005000016000016000016000000000001000000REP       United States Representative, District 5                Lance Gooden                          Voting Box 5                                           01 
01060010006000027000027000007000000000000000000REP       United States Representative, District 5                Lance Gooden                          Voting Box 6                                           01 
01060010007000002000002000000000003000000000000REP       United States Representative, District 5                Lance Gooden                          Voting Box 7                                           01 
01060010008000000000000000001000000000000000000REP       United States Representative, District 5                Lance Gooden                          Voting Box 8                                           01 
01060010009000019000019000000000038000001000000REP       United States Representative, District 5                Lance Gooden                          Voting Box 9                                           01 
01060010010000010000010000000000018000000000000REP       United States Representative, District 5                Lance Gooden                          Voting Box 10                                          01 
01060010011000021000021000000000045000000000000REP       United States Representative, District 5                Lance Gooden                          Voting Box 11-12                                       01 
01060010012000069000069000000000028000000000000REP       United States Representative, District 5                Lance Gooden                          Voting Box 13-14                                       01 
01060010013000033000033000000000023000001000000REP       United States Representative, District 5                Lance Gooden                          Voting Box 15                                          01 
01060010014000017000017000022000000000000000000REP       United States Representative, District 5                Lance Gooden                          Voting Box 16                                          01 
01060010015000013000013000019000000000000000000REP       United States Representative, District 5                Lance Gooden                          Voting Box 17                                          01 
01060010016000016000016000000000094000000000000REP       United States Representative, District 5                Lance Gooden                          Voting Box 18                                          01 
01060010017000067000067000001000050000000000000REP       United States Representative, District 5                Lance Gooden                          Voting Box 19                                          01 
01060010018000048000048000000000015000000000000REP       United States Representative, District 5                Lance Gooden                          Voting Box 20                                          01 
01060010019000058000058000000000041000001000000REP       United States Representative, District 5                Lance Gooden                          Voting Box 21                                          01 
01060010020000026000026000000000048000000000000REP       United States Representative, District 5                Lance Gooden                          Voting Box 22                                          01 
01060010021000027000027000000000045000004000000REP       United States Representative, District 5                Lance Gooden                          Voting Box 23                                          01 
01060010022000032000032000000000044000000000000REP       United States Representative, District 5                Lance Gooden                          Voting Box 24                                          01 
01060020001000013000013000011000000000001000000REP       United States Representative, District 5                David Williams                        Voting Box 1                                           01 
01060020002000024000024000025000000000000000000REP       United States Representative, District 5                David Williams                        Voting Box 2                                           01 
01060020003000013000013000000000004000000000000REP       United States Representative, District 5                David Williams                        Voting Box 3                                           01 
01060020004000012000012000000000013000002000000REP       United States Representative, District 5                David Williams                        Voting Box 4                                           01 
01060020005000005000005000010000000000000000000REP       United States Representative, District 5                David Williams                        Voting Box 5                                           01 
01060020006000007000007000002000000000000000000REP       United States Representative, District 5                David Williams                        Voting Box 6                                           01 
01060020007000001000001000000000000000000000000REP       United States Representative, District 5                David Williams                        Voting Box 7                                           01 
01060020008000002000002000001000000000000000000REP       United States Representative, District 5                David Williams                        Voting Box 8                                           01 
01060020009000004000004000000000002000000000000REP       United States Representative, District 5                David Williams                        Voting Box 9                                           01 
01060020010000001000001000000000005000000000000REP       United States Representative, District 5                David Williams                        Voting Box 10                                          01 
01060020011000004000004000000000010000000000000REP       United States Representative, District 5                David Williams                        Voting Box 11-12                                       01 
01060020012000011000011000000000007000000000000REP       United States Representative, District 5                David Williams                        Voting Box 13-14                                       01 
01060020013000005000005000000000011000000000000REP       United States Representative, District 5                David Williams                        Voting Box 15                                          01 
01060020014000001000001000013000000000000000000REP       United States Representative, District 5                David Williams                        Voting Box 16                                          01 
01060020015000004000004000003000000000000000000REP       United States Representative, District 5                David Williams                        Voting Box 17                                          01 
01060020016000005000005000001000016000000000000REP       United States Representative, District 5                David Williams                        Voting Box 18                                          01 
01060020017000013000013000000000007000000000000REP       United States Representative, District 5                David Williams                        Voting Box 19                                          01 
01060020018000010000010000000000001000000000000REP       United States Representative, District 5                David Williams                        Voting Box 20                                          01 
01060020019000010000010000000000011000000000000REP       United States Representative, District 5                David Williams                        Voting Box 21                                          01 
01060020020000006000006000000000003000001000000REP       United States Representative, District 5                David Williams                        Voting Box 22                                          01 
01060020021000009000009000000000008000001000000REP       United States Representative, District 5                David Williams                        Voting Box 23                                          01 
01060020022000002000002000000000003000000000000REP       United States Representative, District 5                David Williams                        Voting Box 24                                          01 
01060030001000008000008000010000000000000000000REP       United States Representative, District 5                Danny Campbell                        Voting Box 1                                           01 
01060030002000006000006000016000000000000000000REP       United States Representative, District 5                Danny Campbell                        Voting Box 2                                           01 
01060030003000005000005000000000007000000000000REP       United States Representative, District 5                Danny Campbell                        Voting Box 3                                           01 
01060030004000012000012000000000006000000000000REP       United States Representative, District 5                Danny Campbell                        Voting Box 4                                           01 
01060030005000000000000000004000000000000000000REP       United States Representative, District 5                Danny Campbell                        Voting Box 5                                           01 
01060030006000005000005000001000000000000000000REP       United States Representative, District 5                Danny Campbell                        Voting Box 6                                           01 
01060030007000002000002000000000001000000000000REP       United States Representative, District 5                Danny Campbell                        Voting Box 7                                           01 
01060030008000001000001000000000000000000000000REP       United States Representative, District 5                Danny Campbell                        Voting Box 8                                           01 
01060030009000005000005000000000004000000000000REP       United States Representative, District 5                Danny Campbell                        Voting Box 9                                           01 
01060030010000003000003000000000003000000000000REP       United States Representative, District 5                Danny Campbell                        Voting Box 10                                          01 
01060030011000004000004000000000005000000000000REP       United States Representative, District 5                Danny Campbell                        Voting Box 11-12                                       01 
01060030012000004000004000000000004000000000000REP       United States Representative, District 5                Danny Campbell                        Voting Box 13-14                                       01 
01060030013000007000007000000000003000000000000REP       United States Representative, District 5                Danny Campbell                        Voting Box 15                                          01 
01060030014000004000004000003000000000000000000REP       United States Representative, District 5                Danny Campbell                        Voting Box 16                                          01 
01060030015000002000002000003000000000000000000REP       United States Representative, District 5                Danny Campbell                        Voting Box 17                                          01 
01060030016000004000004000000000015000000000000REP       United States Representative, District 5                Danny Campbell                        Voting Box 18                                          01 
01060030017000003000003000000000003000000000000REP       United States Representative, District 5                Danny Campbell                        Voting Box 19                                          01 
01060030018000009000009000000000002000000000000REP       United States Representative, District 5                Danny Campbell                        Voting Box 20                                          01 
01060030019000003000003000000000003000000000000REP       United States Representative, District 5                Danny Campbell                        Voting Box 21                                          01 
01060030020000004000004000000000006000000000000REP       United States Representative, District 5                Danny Campbell                        Voting Box 22                                          01 
01060030021000005000005000000000004000000000000REP       United States Representative, District 5                Danny Campbell                        Voting Box 23                                          01 
01060030022000000000000000000000002000000000000REP       United States Representative, District 5                Danny Campbell                        Voting Box 24                                          01 
01060040001000034000034000005000000000000000000REP       United States Representative, District 5                Jason Wright                          Voting Box 1                                           01 
01060040002000022000022000050000000000000000000REP       United States Representative, District 5                Jason Wright                          Voting Box 2                                           01 
01060040003000030000030000000000017000000000000REP       United States Representative, District 5                Jason Wright                          Voting Box 3                                           01 
01060040004000023000023000001000014000000000000REP       United States Representative, District 5                Jason Wright                          Voting Box 4                                           01 
01060040005000002000002000005000000000000000000REP       United States Representative, District 5                Jason Wright                          Voting Box 5                                           01 
01060040006000011000011000003000000000001000000REP       United States Representative, District 5                Jason Wright                          Voting Box 6                                           01 
01060040007000003000003000000000004000000000000REP       United States Representative, District 5                Jason Wright                          Voting Box 7                                           01 
01060040008000005000005000001000000000000000000REP       United States Representative, District 5                Jason Wright                          Voting Box 8                                           01 
01060040009000020000020000000000009000000000000REP       United States Representative, District 5                Jason Wright                          Voting Box 9                                           01 
01060040010000008000008000000000005000000000000REP       United States Representative, District 5                Jason Wright                          Voting Box 10                                          01 
01060040011000013000013000000000026000000000000REP       United States Representative, District 5                Jason Wright                          Voting Box 11-12                                       01 
01060040012000040000040000000000023000000000000REP       United States Representative, District 5                Jason Wright                          Voting Box 13-14                                       01 
01060040013000028000028000000000010000000000000REP       United States Representative, District 5                Jason Wright                          Voting Box 15                                          01 
01060040014000012000012000005000000000000000000REP       United States Representative, District 5                Jason Wright                          Voting Box 16                                          01 
01060040015000011000011000003000000000000000000REP       United States Representative, District 5                Jason Wright                          Voting Box 17                                          01 
01060040016000014000014000000000040000000000000REP       United States Representative, District 5                Jason Wright                          Voting Box 18                                          01 
01060040017000037000037000000000021000000000000REP       United States Representative, District 5                Jason Wright                          Voting Box 19                                          01 
01060040018000035000035000000000009000000000000REP       United States Representative, District 5                Jason Wright                          Voting Box 20                                          01 
01060040019000029000029000000000022000000000000REP       United States Representative, District 5                Jason Wright                          Voting Box 21                                          01 
01060040020000017000017000000000013000001000000REP       United States Representative, District 5                Jason Wright                          Voting Box 22                                          01 
01060040021000010000010000000000020000006000000REP       United States Representative, District 5                Jason Wright                          Voting Box 23                                          01 
01060040022000009000009000000000014000000000000REP       United States Representative, District 5                Jason Wright                          Voting Box 24                                          01 
01060050001000023000023000011000000000000000000REP       United States Representative, District 5                Kenneth Sheets                        Voting Box 1                                           01 
01060050002000022000022000017000000000000000000REP       United States Representative, District 5                Kenneth Sheets                        Voting Box 2                                           01 
01060050003000009000009000000000018000000000000REP       United States Representative, District 5                Kenneth Sheets                        Voting Box 3                                           01 
01060050004000006000006000000000009000000000000REP       United States Representative, District 5                Kenneth Sheets                        Voting Box 4                                           01 
01060050005000005000005000003000000000000000000REP       United States Representative, District 5                Kenneth Sheets                        Voting Box 5                                           01 
01060050006000009000009000003000000000000000000REP       United States Representative, District 5                Kenneth Sheets                        Voting Box 6                                           01 
01060050007000000000000000001000002000000000000REP       United States Representative, District 5                Kenneth Sheets                        Voting Box 7                                           01 
01060050008000003000003000000000000000000000000REP       United States Representative, District 5                Kenneth Sheets                        Voting Box 8                                           01 
01060050009000021000021000000000007000000000000REP       United States Representative, District 5                Kenneth Sheets                        Voting Box 9                                           01 
01060050010000002000002000000000007000000000000REP       United States Representative, District 5                Kenneth Sheets                        Voting Box 10                                          01 
01060050011000006000006000000000010000000000000REP       United States Representative, District 5                Kenneth Sheets                        Voting Box 11-12                                       01 
01060050012000024000024000000000003000000000000REP       United States Representative, District 5                Kenneth Sheets                        Voting Box 13-14                                       01 
01060050013000010000010000000000005000001000000REP       United States Representative, District 5                Kenneth Sheets                        Voting Box 15                                          01 
01060050014000004000004000008000000000000000000REP       United States Representative, District 5                Kenneth Sheets                        Voting Box 16                                          01 
01060050015000014000014000006000000000000000000REP       United States Representative, District 5                Kenneth Sheets                        Voting Box 17                                          01 
01060050016000006000006000000000019000000000000REP       United States Representative, District 5                Kenneth Sheets                        Voting Box 18                                          01 
01060050017000020000020000001000020000001000000REP       United States Representative, District 5                Kenneth Sheets                        Voting Box 19                                          01 
01060050018000015000015000000000007000000000000REP       United States Representative, District 5                Kenneth Sheets                        Voting Box 20                                          01 
01060050019000026000026000000000022000000000000REP       United States Representative, District 5                Kenneth Sheets                        Voting Box 21                                          01 
01060050020000011000011000000000012000000000000REP       United States Representative, District 5                Kenneth Sheets                        Voting Box 22                                          01 
01060050021000006000006000000000013000000000000REP       United States Representative, District 5                Kenneth Sheets                        Voting Box 23                                          01 
01060050022000004000004000000000008000000000000REP       United States Representative, District 5                Kenneth Sheets                        Voting Box 24                                          01 
01060060001000058000058000039000000000000000000REP       United States Representative, District 5                Bunni Pounds                          Voting Box 1                                           01 
01060060002000064000064000076000000000000000000REP       United States Representative, District 5                Bunni Pounds                          Voting Box 2                                           01 
01060060003000060000060000000000020000000000000REP       United States Representative, District 5                Bunni Pounds                          Voting Box 3                                           01 
01060060004000053000053000001000064000000000000REP       United States Representative, District 5                Bunni Pounds                          Voting Box 4                                           01 
01060060005000017000017000010000000000001000000REP       United States Representative, District 5                Bunni Pounds                          Voting Box 5                                           01 
01060060006000029000029000011000000000000000000REP       United States Representative, District 5                Bunni Pounds                          Voting Box 6                                           01 
01060060007000013000013000000000000000000000000REP       United States Representative, District 5                Bunni Pounds                          Voting Box 7                                           01 
01060060008000006000006000000000000000000000000REP       United States Representative, District 5                Bunni Pounds                          Voting Box 8                                           01 
01060060009000042000042000000000037000000000000REP       United States Representative, District 5                Bunni Pounds                          Voting Box 9                                           01 
01060060010000011000011000000000017000001000000REP       United States Representative, District 5                Bunni Pounds                          Voting Box 10                                          01 
01060060011000026000026000000000034000000000000REP       United States Representative, District 5                Bunni Pounds                          Voting Box 11-12                                       01 
01060060012000056000056000001000029000000000000REP       United States Representative, District 5                Bunni Pounds                          Voting Box 13-14                                       01 
01060060013000048000048000000000032000000000000REP       United States Representative, District 5                Bunni Pounds                          Voting Box 15                                          01 
01060060014000026000026000027000000000001000000REP       United States Representative, District 5                Bunni Pounds                          Voting Box 16                                          01 
01060060015000043000043000024000000000001000000REP       United States Representative, District 5                Bunni Pounds                          Voting Box 17                                          01 
01060060016000024000024000000000072000001000000REP       United States Representative, District 5                Bunni Pounds                          Voting Box 18                                          01 
01060060017000062000062000000000042000000000000REP       United States Representative, District 5                Bunni Pounds                          Voting Box 19                                          01 
01060060018000057000057000000000024000000000000REP       United States Representative, District 5                Bunni Pounds                          Voting Box 20                                          01 
01060060019000072000072000000000055000001000000REP       United States Representative, District 5                Bunni Pounds                          Voting Box 21                                          01 
01060060020000039000039000000000059000001000000REP       United States Representative, District 5                Bunni Pounds                          Voting Box 22                                          01 
01060060021000048000048000000000032000002000000REP       United States Representative, District 5                Bunni Pounds                          Voting Box 23                                          01 
01060060022000030000030000000000019000000000000REP       United States Representative, District 5                Bunni Pounds                          Voting Box 24                                          01 
01060070001000003000003000000000000000000000000REP       United States Representative, District 5                Charles Lingerfelt                    Voting Box 1                                           01 
01060070002000006000006000003000000000000000000REP       United States Representative, District 5                Charles Lingerfelt                    Voting Box 2                                           01 
01060070003000004000004000000000000000000000000REP       United States Representative, District 5                Charles Lingerfelt                    Voting Box 3                                           01 
01060070004000002000002000000000003000000000000REP       United States Representative, District 5                Charles Lingerfelt                    Voting Box 4                                           01 
01060070005000000000000000000000000000000000000REP       United States Representative, District 5                Charles Lingerfelt                    Voting Box 5                                           01 
01060070006000001000001000001000000000000000000REP       United States Representative, District 5                Charles Lingerfelt                    Voting Box 6                                           01 
01060070007000003000003000000000000000000000000REP       United States Representative, District 5                Charles Lingerfelt                    Voting Box 7                                           01 
01060070008000001000001000000000000000000000000REP       United States Representative, District 5                Charles Lingerfelt                    Voting Box 8                                           01 
01060070009000000000000000000000001000000000000REP       United States Representative, District 5                Charles Lingerfelt                    Voting Box 9                                           01 
01060070010000000000000000000000000000000000000REP       United States Representative, District 5                Charles Lingerfelt                    Voting Box 10                                          01 
01060070011000000000000000000000000000000000000REP       United States Representative, District 5                Charles Lingerfelt                    Voting Box 11-12                                       01 
01060070012000004000004000000000000000000000000REP       United States Representative, District 5                Charles Lingerfelt                    Voting Box 13-14                                       01 
01060070013000000000000000000000000000000000000REP       United States Representative, District 5                Charles Lingerfelt                    Voting Box 15                                          01 
01060070014000003000003000001000000000000000000REP       United States Representative, District 5                Charles Lingerfelt                    Voting Box 16                                          01 
01060070015000000000000000002000000000000000000REP       United States Representative, District 5                Charles Lingerfelt                    Voting Box 17                                          01 
01060070016000001000001000000000005000000000000REP       United States Representative, District 5                Charles Lingerfelt                    Voting Box 18                                          01 
01060070017000001000001000000000001000000000000REP       United States Representative, District 5                Charles Lingerfelt                    Voting Box 19                                          01 
01060070018000007000007000000000000000000000000REP       United States Representative, District 5                Charles Lingerfelt                    Voting Box 20                                          01 
01060070019000002000002000000000000000000000000REP       United States Representative, District 5                Charles Lingerfelt                    Voting Box 21                                          01 
01060070020000003000003000000000000000000000000REP       United States Representative, District 5                Charles Lingerfelt                    Voting Box 22                                          01 
01060070021000000000000000000000000000000000000REP       United States Representative, District 5                Charles Lingerfelt                    Voting Box 23                                          01 
01060070022000001000001000000000000000000000000REP       United States Representative, District 5                Charles Lingerfelt                    Voting Box 24                                          01 
01060080001000039000039000020000000000000000000REP       United States Representative, District 5                Sam Deen                              Voting Box 1                                           01 
01060080002000035000035000032000000000000000000REP       United States Representative, District 5                Sam Deen                              Voting Box 2                                           01 
01060080003000029000029000001000017000000000000REP       United States Representative, District 5                Sam Deen                              Voting Box 3                                           01 
01060080004000016000016000000000010000000000000REP       United States Representative, District 5                Sam Deen                              Voting Box 4                                           01 
01060080005000005000005000001000000000000000000REP       United States Representative, District 5                Sam Deen                              Voting Box 5                                           01 
01060080006000009000009000003000000000000000000REP       United States Representative, District 5                Sam Deen                              Voting Box 6                                           01 
01060080007000007000007000000000005000000000000REP       United States Representative, District 5                Sam Deen                              Voting Box 7                                           01 
01060080008000006000006000001000000000000000000REP       United States Representative, District 5                Sam Deen                              Voting Box 8                                           01 
01060080009000034000034000000000024000000000000REP       United States Representative, District 5                Sam Deen                              Voting Box 9                                           01 
01060080010000008000008000000000007000000000000REP       United States Representative, District 5                Sam Deen                              Voting Box 10                                          01 
01060080011000011000011000000000035000000000000REP       United States Representative, District 5                Sam Deen                              Voting Box 11-12                                       01 
01060080012000054000054000000000016000000000000REP       United States Representative, District 5                Sam Deen                              Voting Box 13-14                                       01 
01060080013000018000018000000000022000001000000REP       United States Representative, District 5                Sam Deen                              Voting Box 15                                          01 
01060080014000002000002000013000000000000000000REP       United States Representative, District 5                Sam Deen                              Voting Box 16                                          01 
01060080015000018000018000010000000000000000000REP       United States Representative, District 5                Sam Deen                              Voting Box 17                                          01 
01060080016000008000008000000000022000001000000REP       United States Representative, District 5                Sam Deen                              Voting Box 18                                          01 
01060080017000046000046000000000030000001000000REP       United States Representative, District 5                Sam Deen                              Voting Box 19                                          01 
01060080018000038000038000000000016000000000000REP       United States Representative, District 5                Sam Deen                              Voting Box 20                                          01 
01060080019000059000059000000000042000000000000REP       United States Representative, District 5                Sam Deen                              Voting Box 21                                          01 
01060080020000030000030000000000028000000000000REP       United States Representative, District 5                Sam Deen                              Voting Box 22                                          01 
01060080021000039000039000000000022000001000000REP       United States Representative, District 5                Sam Deen                              Voting Box 23                                          01 
01060080022000034000034000000000024000000000000REP       United States Representative, District 5                Sam Deen                              Voting Box 24                                          01 
01060090001000001000001000000000000000000000000REP       United States Representative, District 5                OVER VOTES                            Voting Box 1                                           01 
01060090002000000000000000000000000000000000000REP       United States Representative, District 5                OVER VOTES                            Voting Box 2                                           01 
01060090003000000000000000000000000000000000000REP       United States Representative, District 5                OVER VOTES                            Voting Box 3                                           01 
01060090004000000000000000000000000000000000000REP       United States Representative, District 5                OVER VOTES                            Voting Box 4                                           01 
01060090005000000000000000000000000000000000000REP       United States Representative, District 5                OVER VOTES                            Voting Box 5                                           01 
01060090006000000000000000000000000000000000000REP       United States Representative, District 5                OVER VOTES                            Voting Box 6                                           01 
01060090007000000000000000000000000000000000000REP       United States Representative, District 5                OVER VOTES                            Voting Box 7                                           01 
01060090008000000000000000000000000000000000000REP       United States Representative, District 5                OVER VOTES                            Voting Box 8                                           01 
01060090009000000000000000000000001000000000000REP       United States Representative, District 5                OVER VOTES                            Voting Box 9                                           01 
01060090010000000000000000000000000000000000000REP       United States Representative, District 5                OVER VOTES                            Voting Box 10                                          01 
01060090011000000000000000000000000000000000000REP       United States Representative, District 5                OVER VOTES                            Voting Box 11-12                                       01 
01060090012000000000000000000000000000000000000REP       United States Representative, District 5                OVER VOTES                            Voting Box 13-14                                       01 
01060090013000000000000000000000000000000000000REP       United States Representative, District 5                OVER VOTES                            Voting Box 15                                          01 
01060090014000000000000000000000000000000000000REP       United States Representative, District 5                OVER VOTES                            Voting Box 16                                          01 
01060090015000000000000000000000000000000000000REP       United States Representative, District 5                OVER VOTES                            Voting Box 17                                          01 
01060090016000000000000000000000000000000000000REP       United States Representative, District 5                OVER VOTES                            Voting Box 18                                          01 
01060090017000000000000000000000000000000000000REP       United States Representative, District 5                OVER VOTES                            Voting Box 19                                          01 
01060090018000000000000000000000000000000000000REP       United States Representative, District 5                OVER VOTES                            Voting Box 20                                          01 
01060090019000000000000000000000000000000000000REP       United States Representative, District 5                OVER VOTES                            Voting Box 21                                          01 
01060090020000000000000000000000000000000000000REP       United States Representative, District 5                OVER VOTES                            Voting Box 22                                          01 
01060090021000000000000000000000000000000000000REP       United States Representative, District 5                OVER VOTES                            Voting Box 23                                          01 
01060090022000000000000000000000000000000000000REP       United States Representative, District 5                OVER VOTES                            Voting Box 24                                          01 
01060100001000025000025000015000000000001000000REP       United States Representative, District 5                UNDER VOTES                           Voting Box 1                                           01 
01060100002000033000033000048000000000000000000REP       United States Representative, District 5                UNDER VOTES                           Voting Box 2                                           01 
01060100003000014000014000000000011000001000000REP       United States Representative, District 5                UNDER VOTES                           Voting Box 3                                           01 
01060100004000017000017000000000029000000000000REP       United States Representative, District 5                UNDER VOTES                           Voting Box 4                                           01 
01060100005000001000001000006000000000000000000REP       United States Representative, District 5                UNDER VOTES                           Voting Box 5                                           01 
01060100006000015000015000004000000000000000000REP       United States Representative, District 5                UNDER VOTES                           Voting Box 6                                           01 
01060100007000003000003000000000002000000000000REP       United States Representative, District 5                UNDER VOTES                           Voting Box 7                                           01 
01060100008000000000000000000000000000000000000REP       United States Representative, District 5                UNDER VOTES                           Voting Box 8                                           01 
01060100009000011000011000000000011000000000000REP       United States Representative, District 5                UNDER VOTES                           Voting Box 9                                           01 
01060100010000004000004000000000008000000000000REP       United States Representative, District 5                UNDER VOTES                           Voting Box 10                                          01 
01060100011000004000004000000000006000000000000REP       United States Representative, District 5                UNDER VOTES                           Voting Box 11-12                                       01 
01060100012000031000031000000000010000000000000REP       United States Representative, District 5                UNDER VOTES                           Voting Box 13-14                                       01 
01060100013000017000017000000000007000000000000REP       United States Representative, District 5                UNDER VOTES                           Voting Box 15                                          01 
01060100014000011000011000015000000000000000000REP       United States Representative, District 5                UNDER VOTES                           Voting Box 16                                          01 
01060100015000011000011000005000000000000000000REP       United States Representative, District 5                UNDER VOTES                           Voting Box 17                                          01 
01060100016000010000010000000000033000000000000REP       United States Representative, District 5                UNDER VOTES                           Voting Box 18                                          01 
01060100017000020000020000001000012000000000000REP       United States Representative, District 5                UNDER VOTES                           Voting Box 19                                          01 
01060100018000019000019000000000004000000000000REP       United States Representative, District 5                UNDER VOTES                           Voting Box 20                                          01 
01060100019000029000029000000000023000001000000REP       United States Representative, District 5                UNDER VOTES                           Voting Box 21                                          01 
01060100020000020000020000000000019000000000000REP       United States Representative, District 5                UNDER VOTES                           Voting Box 22                                          01 
01060100021000010000010000000000011000000000000REP       United States Representative, District 5                UNDER VOTES                           Voting Box 23                                          01 
01060100022000003000003000000000008000000000000REP       United States Representative, District 5                UNDER VOTES                           Voting Box 24                                          01 
01070010001000027000027000008000000000000000000REP       Governor                                                Barbara Krueger                       Voting Box 1                                           01 
01070010002000016000016000016000000000000000000REP       Governor                                                Barbara Krueger                       Voting Box 2                                           01 
01070010003000009000009000000000007000000000000REP       Governor                                                Barbara Krueger                       Voting Box 3                                           01 
01070010004000004000004000000000004000000000000REP       Governor                                                Barbara Krueger                       Voting Box 4                                           01 
01070010005000003000003000003000000000000000000REP       Governor                                                Barbara Krueger                       Voting Box 5                                           01 
01070010006000007000007000002000000000000000000REP       Governor                                                Barbara Krueger                       Voting Box 6                                           01 
01070010007000002000002000000000000000000000000REP       Governor                                                Barbara Krueger                       Voting Box 7                                           01 
01070010008000006000006000001000000000000000000REP       Governor                                                Barbara Krueger                       Voting Box 8                                           01 
01070010009000004000004000000000006000000000000REP       Governor                                                Barbara Krueger                       Voting Box 9                                           01 
01070010010000000000000000000000002000000000000REP       Governor                                                Barbara Krueger                       Voting Box 10                                          01 
01070010011000001000001000000000007000000000000REP       Governor                                                Barbara Krueger                       Voting Box 11-12                                       01 
