01010010001002879000000000000000000000000000000          REGISTERED VOTERS - TOTAL                               REGISTERED VOTERS - TOTAL             PRECINCT 1001                                          00 
01010010002002428000000000000000000000000000000          REGISTERED VOTERS - TOTAL                               REGISTERED VOTERS - TOTAL             PRECINCT 1002                                          00 
01010010003005597000000000000000000000000000000          REGISTERED VOTERS - TOTAL                               REGISTERED VOTERS - TOTAL             PRECINCT 1003                                          00 
01010010004002524000000000000000000000000000000          REGISTERED VOTERS - TOTAL                               REGISTERED VOTERS - TOTAL             PRECINCT 1004                                          00 
01010010005002614000000000000000000000000000000          REGISTERED VOTERS - TOTAL                               REGISTERED VOTERS - TOTAL             PRECINCT 2005                                          00 
01010010006001397000000000000000000000000000000          REGISTERED VOTERS - TOTAL                               REGISTERED VOTERS - TOTAL             PRECINCT 2006                                          00 
01010010007001996000000000000000000000000000000          REGISTERED VOTERS - TOTAL                               REGISTERED VOTERS - TOTAL             PRECINCT 2007                                          00 
01010010008000982000000000000000000000000000000          REGISTERED VOTERS - TOTAL                               REGISTERED VOTERS - TOTAL             PRECINCT 2008                                          00 
01010010009001219000000000000000000000000000000          REGISTERED VOTERS - TOTAL                               REGISTERED VOTERS - TOTAL             PRECINCT 2009                                          00 
01010010010001311000000000000000000000000000000          REGISTERED VOTERS - TOTAL                               REGISTERED VOTERS - TOTAL             PRECINCT 2010                                          00 
01010010011002269000000000000000000000000000000          REGISTERED VOTERS - TOTAL                               REGISTERED VOTERS - TOTAL             PRECINCT 2011                                          00 
01010010012000925000000000000000000000000000000          REGISTERED VOTERS - TOTAL                               REGISTERED VOTERS - TOTAL             PRECINCT 3012                                          00 
01010010013001442000000000000000000000000000000          REGISTERED VOTERS - TOTAL                               REGISTERED VOTERS - TOTAL             PRECINCT 3013                                          00 
01010010014002385000000000000000000000000000000          REGISTERED VOTERS - TOTAL                               REGISTERED VOTERS - TOTAL             PRECINCT 3014                                          00 
01010010015002498000000000000000000000000000000          REGISTERED VOTERS - TOTAL                               REGISTERED VOTERS - TOTAL             PRECINCT 3015                                          00 
01010010016002627000000000000000000000000000000          REGISTERED VOTERS - TOTAL                               REGISTERED VOTERS - TOTAL             PRECINCT 3016                                          00 
01010010017002490000000000000000000000000000000          REGISTERED VOTERS - TOTAL                               REGISTERED VOTERS - TOTAL             PRECINCT 4017                                          00 
01010010018000611000000000000000000000000000000          REGISTERED VOTERS - TOTAL                               REGISTERED VOTERS - TOTAL             PRECINCT 4018                                          00 
01010010019002333000000000000000000000000000000          REGISTERED VOTERS - TOTAL                               REGISTERED VOTERS - TOTAL             PRECINCT 4019                                          00 
01010010020003533000000000000000000000000000000          REGISTERED VOTERS - TOTAL                               REGISTERED VOTERS - TOTAL             PRECINCT 4020                                          00 
01010010021001248000000000000000000000000000000          REGISTERED VOTERS - TOTAL                               REGISTERED VOTERS - TOTAL             PRECINCT 4021                                          00 
01020010001000881000485000396000000000000000000          BALLOTS CAST - TOTAL                                    BALLOTS CAST - TOTAL                  PRECINCT 1001                                          00 
01020010002000691000417000273000001000000000000          BALLOTS CAST - TOTAL                                    BALLOTS CAST - TOTAL                  PRECINCT 1002                                          00 
01020010003001455000868000586000001000000000000          BALLOTS CAST - TOTAL                                    BALLOTS CAST - TOTAL                  PRECINCT 1003                                          00 
01020010004000393000202000190000001000000000000          BALLOTS CAST - TOTAL                                    BALLOTS CAST - TOTAL                  PRECINCT 1004                                          00 
01020010005000663000379000284000000000000000000          BALLOTS CAST - TOTAL                                    BALLOTS CAST - TOTAL                  PRECINCT 2005                                          00 
01020010006000359000184000175000000000000000000          BALLOTS CAST - TOTAL                                    BALLOTS CAST - TOTAL                  PRECINCT 2006                                          00 
01020010007000560000273000287000000000000000000          BALLOTS CAST - TOTAL                                    BALLOTS CAST - TOTAL                  PRECINCT 2007                                          00 
01020010008000261000157000103000001000000000000          BALLOTS CAST - TOTAL                                    BALLOTS CAST - TOTAL                  PRECINCT 2008                                          00 
01020010009000279000150000129000000000000000000          BALLOTS CAST - TOTAL                                    BALLOTS CAST - TOTAL                  PRECINCT 2009                                          00 
01020010010000278000124000154000000000000000000          BALLOTS CAST - TOTAL                                    BALLOTS CAST - TOTAL                  PRECINCT 2010                                          00 
01020010011000619000347000272000000000000000000          BALLOTS CAST - TOTAL                                    BALLOTS CAST - TOTAL                  PRECINCT 2011                                          00 
01020010012000211000113000098000000000000000000          BALLOTS CAST - TOTAL                                    BALLOTS CAST - TOTAL                  PRECINCT 3012                                          00 
01020010013000374000112000262000000000000000000          BALLOTS CAST - TOTAL                                    BALLOTS CAST - TOTAL                  PRECINCT 3013                                          00 
01020010014000418000246000172000000000000000000          BALLOTS CAST - TOTAL                                    BALLOTS CAST - TOTAL                  PRECINCT 3014                                          00 
01020010015000391000229000162000000000000000000          BALLOTS CAST - TOTAL                                    BALLOTS CAST - TOTAL                  PRECINCT 3015                                          00 
01020010016000575000317000257000001000000000000          BALLOTS CAST - TOTAL                                    BALLOTS CAST - TOTAL                  PRECINCT 3016                                          00 
01020010017000549000332000217000000000000000000          BALLOTS CAST - TOTAL                                    BALLOTS CAST - TOTAL                  PRECINCT 4017                                          00 
01020010018000173000108000065000000000000000000          BALLOTS CAST - TOTAL                                    BALLOTS CAST - TOTAL                  PRECINCT 4018                                          00 
01020010019000579000281000297000001000000000000          BALLOTS CAST - TOTAL                                    BALLOTS CAST - TOTAL                  PRECINCT 4019                                          00 
01020010020000719000439000279000001000000000000          BALLOTS CAST - TOTAL                                    BALLOTS CAST - TOTAL                  PRECINCT 4020                                          00 
01020010021000316000122000194000000000000000000          BALLOTS CAST - TOTAL                                    BALLOTS CAST - TOTAL                  PRECINCT 4021                                          00 
01030010001000622000318000304000000000000000000REP       BALLOTS CAST - REPUBLICAN PARTY                         BALLOTS CAST - REPUBLICAN PARTY       PRECINCT 1001                                          00 
01030010002000404000236000168000000000000000000REP       BALLOTS CAST - REPUBLICAN PARTY                         BALLOTS CAST - REPUBLICAN PARTY       PRECINCT 1002                                          00 
01030010003000941000536000405000000000000000000REP       BALLOTS CAST - REPUBLICAN PARTY                         BALLOTS CAST - REPUBLICAN PARTY       PRECINCT 1003                                          00 
01030010004000241000124000116000001000000000000REP       BALLOTS CAST - REPUBLICAN PARTY                         BALLOTS CAST - REPUBLICAN PARTY       PRECINCT 1004                                          00 
01030010005000421000251000170000000000000000000REP       BALLOTS CAST - REPUBLICAN PARTY                         BALLOTS CAST - REPUBLICAN PARTY       PRECINCT 2005                                          00 
01030010006000257000137000120000000000000000000REP       BALLOTS CAST - REPUBLICAN PARTY                         BALLOTS CAST - REPUBLICAN PARTY       PRECINCT 2006                                          00 
01030010007000448000210000238000000000000000000REP       BALLOTS CAST - REPUBLICAN PARTY                         BALLOTS CAST - REPUBLICAN PARTY       PRECINCT 2007                                          00 
01030010008000193000122000071000000000000000000REP       BALLOTS CAST - REPUBLICAN PARTY                         BALLOTS CAST - REPUBLICAN PARTY       PRECINCT 2008                                          00 
01030010009000202000102000100000000000000000000REP       BALLOTS CAST - REPUBLICAN PARTY                         BALLOTS CAST - REPUBLICAN PARTY       PRECINCT 2009                                          00 
01030010010000207000081000126000000000000000000REP       BALLOTS CAST - REPUBLICAN PARTY                         BALLOTS CAST - REPUBLICAN PARTY       PRECINCT 2010                                          00 
01030010011000407000212000195000000000000000000REP       BALLOTS CAST - REPUBLICAN PARTY                         BALLOTS CAST - REPUBLICAN PARTY       PRECINCT 2011                                          00 
01030010012000163000091000072000000000000000000REP       BALLOTS CAST - REPUBLICAN PARTY                         BALLOTS CAST - REPUBLICAN PARTY       PRECINCT 3012                                          00 
01030010013000261000081000180000000000000000000REP       BALLOTS CAST - REPUBLICAN PARTY                         BALLOTS CAST - REPUBLICAN PARTY       PRECINCT 3013                                          00 
01030010014000271000158000113000000000000000000REP       BALLOTS CAST - REPUBLICAN PARTY                         BALLOTS CAST - REPUBLICAN PARTY       PRECINCT 3014                                          00 
01030010015000210000114000096000000000000000000REP       BALLOTS CAST - REPUBLICAN PARTY                         BALLOTS CAST - REPUBLICAN PARTY       PRECINCT 3015                                          00 
01030010016000372000206000166000000000000000000REP       BALLOTS CAST - REPUBLICAN PARTY                         BALLOTS CAST - REPUBLICAN PARTY       PRECINCT 3016                                          00 
01030010017000294000181000113000000000000000000REP       BALLOTS CAST - REPUBLICAN PARTY                         BALLOTS CAST - REPUBLICAN PARTY       PRECINCT 4017                                          00 
01030010018000130000078000052000000000000000000REP       BALLOTS CAST - REPUBLICAN PARTY                         BALLOTS CAST - REPUBLICAN PARTY       PRECINCT 4018                                          00 
01030010019000373000179000194000000000000000000REP       BALLOTS CAST - REPUBLICAN PARTY                         BALLOTS CAST - REPUBLICAN PARTY       PRECINCT 4019                                          00 
01030010020000426000255000171000000000000000000REP       BALLOTS CAST - REPUBLICAN PARTY                         BALLOTS CAST - REPUBLICAN PARTY       PRECINCT 4020                                          00 
01030010021000223000078000145000000000000000000REP       BALLOTS CAST - REPUBLICAN PARTY                         BALLOTS CAST - REPUBLICAN PARTY       PRECINCT 4021                                          00 
01040010001000259000167000092000000000000000000DEM       BALLOTS CAST - DEMOCRATIC PARTY                         BALLOTS CAST - DEMOCRATIC PARTY       PRECINCT 1001                                          00 
01040010002000287000181000105000001000000000000DEM       BALLOTS CAST - DEMOCRATIC PARTY                         BALLOTS CAST - DEMOCRATIC PARTY       PRECINCT 1002                                          00 
01040010003000514000332000181000001000000000000DEM       BALLOTS CAST - DEMOCRATIC PARTY                         BALLOTS CAST - DEMOCRATIC PARTY       PRECINCT 1003                                          00 
01040010004000152000078000074000000000000000000DEM       BALLOTS CAST - DEMOCRATIC PARTY                         BALLOTS CAST - DEMOCRATIC PARTY       PRECINCT 1004                                          00 
01040010005000242000128000114000000000000000000DEM       BALLOTS CAST - DEMOCRATIC PARTY                         BALLOTS CAST - DEMOCRATIC PARTY       PRECINCT 2005                                          00 
01040010006000102000047000055000000000000000000DEM       BALLOTS CAST - DEMOCRATIC PARTY                         BALLOTS CAST - DEMOCRATIC PARTY       PRECINCT 2006                                          00 
01040010007000112000063000049000000000000000000DEM       BALLOTS CAST - DEMOCRATIC PARTY                         BALLOTS CAST - DEMOCRATIC PARTY       PRECINCT 2007                                          00 
01040010008000068000035000032000001000000000000DEM       BALLOTS CAST - DEMOCRATIC PARTY                         BALLOTS CAST - DEMOCRATIC PARTY       PRECINCT 2008                                          00 
01040010009000077000048000029000000000000000000DEM       BALLOTS CAST - DEMOCRATIC PARTY                         BALLOTS CAST - DEMOCRATIC PARTY       PRECINCT 2009                                          00 
01040010010000071000043000028000000000000000000DEM       BALLOTS CAST - DEMOCRATIC PARTY                         BALLOTS CAST - DEMOCRATIC PARTY       PRECINCT 2010                                          00 
01040010011000212000135000077000000000000000000DEM       BALLOTS CAST - DEMOCRATIC PARTY                         BALLOTS CAST - DEMOCRATIC PARTY       PRECINCT 2011                                          00 
01040010012000048000022000026000000000000000000DEM       BALLOTS CAST - DEMOCRATIC PARTY                         BALLOTS CAST - DEMOCRATIC PARTY       PRECINCT 3012                                          00 
01040010013000113000031000082000000000000000000DEM       BALLOTS CAST - DEMOCRATIC PARTY                         BALLOTS CAST - DEMOCRATIC PARTY       PRECINCT 3013                                          00 
01040010014000147000088000059000000000000000000DEM       BALLOTS CAST - DEMOCRATIC PARTY                         BALLOTS CAST - DEMOCRATIC PARTY       PRECINCT 3014                                          00 
01040010015000181000115000066000000000000000000DEM       BALLOTS CAST - DEMOCRATIC PARTY                         BALLOTS CAST - DEMOCRATIC PARTY       PRECINCT 3015                                          00 
01040010016000203000111000091000001000000000000DEM       BALLOTS CAST - DEMOCRATIC PARTY                         BALLOTS CAST - DEMOCRATIC PARTY       PRECINCT 3016                                          00 
01040010017000255000151000104000000000000000000DEM       BALLOTS CAST - DEMOCRATIC PARTY                         BALLOTS CAST - DEMOCRATIC PARTY       PRECINCT 4017                                          00 
01040010018000043000030000013000000000000000000DEM       BALLOTS CAST - DEMOCRATIC PARTY                         BALLOTS CAST - DEMOCRATIC PARTY       PRECINCT 4018                                          00 
01040010019000206000102000103000001000000000000DEM       BALLOTS CAST - DEMOCRATIC PARTY                         BALLOTS CAST - DEMOCRATIC PARTY       PRECINCT 4019                                          00 
01040010020000293000184000108000001000000000000DEM       BALLOTS CAST - DEMOCRATIC PARTY                         BALLOTS CAST - DEMOCRATIC PARTY       PRECINCT 4020                                          00 
01040010021000093000044000049000000000000000000DEM       BALLOTS CAST - DEMOCRATIC PARTY                         BALLOTS CAST - DEMOCRATIC PARTY       PRECINCT 4021                                          00 
01050010001000024000019000005000000000000000000REP       United States Senator                                   Stefano de Stefano                    PRECINCT 1001                                          01 
01050010002000021000015000006000000000000000000REP       United States Senator                                   Stefano de Stefano                    PRECINCT 1002                                          01 
01050010003000032000018000014000000000000000000REP       United States Senator                                   Stefano de Stefano                    PRECINCT 1003                                          01 
01050010004000008000006000002000000000000000000REP       United States Senator                                   Stefano de Stefano                    PRECINCT 1004                                          01 
01050010005000011000006000005000000000000000000REP       United States Senator                                   Stefano de Stefano                    PRECINCT 2005                                          01 
01050010006000007000003000004000000000000000000REP       United States Senator                                   Stefano de Stefano                    PRECINCT 2006                                          01 
01050010007000011000003000008000000000000000000REP       United States Senator                                   Stefano de Stefano                    PRECINCT 2007                                          01 
01050010008000006000004000002000000000000000000REP       United States Senator                                   Stefano de Stefano                    PRECINCT 2008                                          01 
01050010009000003000001000002000000000000000000REP       United States Senator                                   Stefano de Stefano                    PRECINCT 2009                                          01 
01050010010000004000001000003000000000000000000REP       United States Senator                                   Stefano de Stefano                    PRECINCT 2010                                          01 
01050010011000017000006000011000000000000000000REP       United States Senator                                   Stefano de Stefano                    PRECINCT 2011                                          01 
01050010012000004000003000001000000000000000000REP       United States Senator                                   Stefano de Stefano                    PRECINCT 3012                                          01 
01050010013000007000004000003000000000000000000REP       United States Senator                                   Stefano de Stefano                    PRECINCT 3013                                          01 
01050010014000002000002000000000000000000000000REP       United States Senator                                   Stefano de Stefano                    PRECINCT 3014                                          01 
01050010015000009000005000004000000000000000000REP       United States Senator                                   Stefano de Stefano                    PRECINCT 3015                                          01 
01050010016000005000003000002000000000000000000REP       United States Senator                                   Stefano de Stefano                    PRECINCT 3016                                          01 
01050010017000016000012000004000000000000000000REP       United States Senator                                   Stefano de Stefano                    PRECINCT 4017                                          01 
01050010018000002000002000000000000000000000000REP       United States Senator                                   Stefano de Stefano                    PRECINCT 4018                                          01 
01050010019000011000006000005000000000000000000REP       United States Senator                                   Stefano de Stefano                    PRECINCT 4019                                          01 
01050010020000021000011000010000000000000000000REP       United States Senator                                   Stefano de Stefano                    PRECINCT 4020                                          01 
01050010021000006000002000004000000000000000000REP       United States Senator                                   Stefano de Stefano                    PRECINCT 4021                                          01 
01050020001000454000225000229000000000000000000REP       United States Senator                                   Ted Cruz                              PRECINCT 1001                                          01 
01050020002000282000167000115000000000000000000REP       United States Senator                                   Ted Cruz                              PRECINCT 1002                                          01 
01050020003000703000397000306000000000000000000REP       United States Senator                                   Ted Cruz                              PRECINCT 1003                                          01 
01050020004000188000094000093000001000000000000REP       United States Senator                                   Ted Cruz                              PRECINCT 1004                                          01 
01050020005000332000200000132000000000000000000REP       United States Senator                                   Ted Cruz                              PRECINCT 2005                                          01 
01050020006000206000113000093000000000000000000REP       United States Senator                                   Ted Cruz                              PRECINCT 2006                                          01 
01050020007000350000164000186000000000000000000REP       United States Senator                                   Ted Cruz                              PRECINCT 2007                                          01 
01050020008000147000092000055000000000000000000REP       United States Senator                                   Ted Cruz                              PRECINCT 2008                                          01 
01050020009000161000083000078000000000000000000REP       United States Senator                                   Ted Cruz                              PRECINCT 2009                                          01 
01050020010000178000064000114000000000000000000REP       United States Senator                                   Ted Cruz                              PRECINCT 2010                                          01 
01050020011000301000154000147000000000000000000REP       United States Senator                                   Ted Cruz                              PRECINCT 2011                                          01 
01050020012000127000069000058000000000000000000REP       United States Senator                                   Ted Cruz                              PRECINCT 3012                                          01 
01050020013000198000049000149000000000000000000REP       United States Senator                                   Ted Cruz                              PRECINCT 3013                                          01 
01050020014000231000133000098000000000000000000REP       United States Senator                                   Ted Cruz                              PRECINCT 3014                                          01 
01050020015000153000084000069000000000000000000REP       United States Senator                                   Ted Cruz                              PRECINCT 3015                                          01 
01050020016000302000164000138000000000000000000REP       United States Senator                                   Ted Cruz                              PRECINCT 3016                                          01 
01050020017000218000130000088000000000000000000REP       United States Senator                                   Ted Cruz                              PRECINCT 4017                                          01 
01050020018000099000056000043000000000000000000REP       United States Senator                                   Ted Cruz                              PRECINCT 4018                                          01 
01050020019000290000142000148000000000000000000REP       United States Senator                                   Ted Cruz                              PRECINCT 4019                                          01 
01050020020000321000193000128000000000000000000REP       United States Senator                                   Ted Cruz                              PRECINCT 4020                                          01 
01050020021000174000060000114000000000000000000REP       United States Senator                                   Ted Cruz                              PRECINCT 4021                                          01 
01050030001000036000015000021000000000000000000REP       United States Senator                                   Bruce Jacobson, Jr.                   PRECINCT 1001                                          01 
01050030002000019000009000010000000000000000000REP       United States Senator                                   Bruce Jacobson, Jr.                   PRECINCT 1002                                          01 
01050030003000072000043000029000000000000000000REP       United States Senator                                   Bruce Jacobson, Jr.                   PRECINCT 1003                                          01 
01050030004000016000008000008000000000000000000REP       United States Senator                                   Bruce Jacobson, Jr.                   PRECINCT 1004                                          01 
01050030005000027000017000010000000000000000000REP       United States Senator                                   Bruce Jacobson, Jr.                   PRECINCT 2005                                          01 
01050030006000017000013000004000000000000000000REP       United States Senator                                   Bruce Jacobson, Jr.                   PRECINCT 2006                                          01 
01050030007000024000017000007000000000000000000REP       United States Senator                                   Bruce Jacobson, Jr.                   PRECINCT 2007                                          01 
01050030008000010000005000005000000000000000000REP       United States Senator                                   Bruce Jacobson, Jr.                   PRECINCT 2008                                          01 
01050030009000009000004000005000000000000000000REP       United States Senator                                   Bruce Jacobson, Jr.                   PRECINCT 2009                                          01 
01050030010000006000003000003000000000000000000REP       United States Senator                                   Bruce Jacobson, Jr.                   PRECINCT 2010                                          01 
01050030011000028000017000011000000000000000000REP       United States Senator                                   Bruce Jacobson, Jr.                   PRECINCT 2011                                          01 
01050030012000011000009000002000000000000000000REP       United States Senator                                   Bruce Jacobson, Jr.                   PRECINCT 3012                                          01 
01050030013000023000010000013000000000000000000REP       United States Senator                                   Bruce Jacobson, Jr.                   PRECINCT 3013                                          01 
01050030014000014000007000007000000000000000000REP       United States Senator                                   Bruce Jacobson, Jr.                   PRECINCT 3014                                          01 
01050030015000016000010000006000000000000000000REP       United States Senator                                   Bruce Jacobson, Jr.                   PRECINCT 3015                                          01 
01050030016000017000010000007000000000000000000REP       United States Senator                                   Bruce Jacobson, Jr.                   PRECINCT 3016                                          01 
01050030017000016000010000006000000000000000000REP       United States Senator                                   Bruce Jacobson, Jr.                   PRECINCT 4017                                          01 
01050030018000016000011000005000000000000000000REP       United States Senator                                   Bruce Jacobson, Jr.                   PRECINCT 4018                                          01 
01050030019000032000014000018000000000000000000REP       United States Senator                                   Bruce Jacobson, Jr.                   PRECINCT 4019                                          01 
01050030020000035000019000016000000000000000000REP       United States Senator                                   Bruce Jacobson, Jr.                   PRECINCT 4020                                          01 
01050030021000014000005000009000000000000000000REP       United States Senator                                   Bruce Jacobson, Jr.                   PRECINCT 4021                                          01 
01050040001000063000033000030000000000000000000REP       United States Senator                                   Mary Miller                           PRECINCT 1001                                          01 
01050040002000042000022000020000000000000000000REP       United States Senator                                   Mary Miller                           PRECINCT 1002                                          01 
01050040003000071000044000027000000000000000000REP       United States Senator                                   Mary Miller                           PRECINCT 1003                                          01 
01050040004000022000012000010000000000000000000REP       United States Senator                                   Mary Miller                           PRECINCT 1004                                          01 
01050040005000027000016000011000000000000000000REP       United States Senator                                   Mary Miller                           PRECINCT 2005                                          01 
01050040006000012000004000008000000000000000000REP       United States Senator                                   Mary Miller                           PRECINCT 2006                                          01 
01050040007000038000015000023000000000000000000REP       United States Senator                                   Mary Miller                           PRECINCT 2007                                          01 
01050040008000012000007000005000000000000000000REP       United States Senator                                   Mary Miller                           PRECINCT 2008                                          01 
01050040009000016000009000007000000000000000000REP       United States Senator                                   Mary Miller                           PRECINCT 2009                                          01 
01050040010000010000007000003000000000000000000REP       United States Senator                                   Mary Miller                           PRECINCT 2010                                          01 
01050040011000033000020000013000000000000000000REP       United States Senator                                   Mary Miller                           PRECINCT 2011                                          01 
01050040012000011000004000007000000000000000000REP       United States Senator                                   Mary Miller                           PRECINCT 3012                                          01 
01050040013000020000013000007000000000000000000REP       United States Senator                                   Mary Miller                           PRECINCT 3013                                          01 
01050040014000013000008000005000000000000000000REP       United States Senator                                   Mary Miller                           PRECINCT 3014                                          01 
01050040015000019000012000007000000000000000000REP       United States Senator                                   Mary Miller                           PRECINCT 3015                                          01 
01050040016000024000013000011000000000000000000REP       United States Senator                                   Mary Miller                           PRECINCT 3016                                          01 
01050040017000021000011000010000000000000000000REP       United States Senator                                   Mary Miller                           PRECINCT 4017                                          01 
01050040018000004000003000001000000000000000000REP       United States Senator                                   Mary Miller                           PRECINCT 4018                                          01 
01050040019000028000013000015000000000000000000REP       United States Senator                                   Mary Miller                           PRECINCT 4019                                          01 
01050040020000024000015000009000000000000000000REP       United States Senator                                   Mary Miller                           PRECINCT 4020                                          01 
01050040021000018000009000009000000000000000000REP       United States Senator                                   Mary Miller                           PRECINCT 4021                                          01 
01050050001000010000005000005000000000000000000REP       United States Senator                                   Geraldine Sam                         PRECINCT 1001                                          01 
01050050002000018000010000008000000000000000000REP       United States Senator                                   Geraldine Sam                         PRECINCT 1002                                          01 
01050050003000014000006000008000000000000000000REP       United States Senator                                   Geraldine Sam                         PRECINCT 1003                                          01 
01050050004000000000000000000000000000000000000REP       United States Senator                                   Geraldine Sam                         PRECINCT 1004                                          01 
01050050005000002000001000001000000000000000000REP       United States Senator                                   Geraldine Sam                         PRECINCT 2005                                          01 
01050050006000004000001000003000000000000000000REP       United States Senator                                   Geraldine Sam                         PRECINCT 2006                                          01 
01050050007000007000003000004000000000000000000REP       United States Senator                                   Geraldine Sam                         PRECINCT 2007                                          01 
01050050008000004000003000001000000000000000000REP       United States Senator                                   Geraldine Sam                         PRECINCT 2008                                          01 
01050050009000002000001000001000000000000000000REP       United States Senator                                   Geraldine Sam                         PRECINCT 2009                                          01 
01050050010000003000002000001000000000000000000REP       United States Senator                                   Geraldine Sam                         PRECINCT 2010                                          01 
01050050011000012000005000007000000000000000000REP       United States Senator                                   Geraldine Sam                         PRECINCT 2011                                          01 
01050050012000000000000000000000000000000000000REP       United States Senator                                   Geraldine Sam                         PRECINCT 3012                                          01 
01050050013000002000000000002000000000000000000REP       United States Senator                                   Geraldine Sam                         PRECINCT 3013                                          01 
01050050014000001000001000000000000000000000000REP       United States Senator                                   Geraldine Sam                         PRECINCT 3014                                          01 
01050050015000003000001000002000000000000000000REP       United States Senator                                   Geraldine Sam                         PRECINCT 3015                                          01 
01050050016000007000006000001000000000000000000REP       United States Senator                                   Geraldine Sam                         PRECINCT 3016                                          01 
01050050017000009000007000002000000000000000000REP       United States Senator                                   Geraldine Sam                         PRECINCT 4017                                          01 
01050050018000001000001000000000000000000000000REP       United States Senator                                   Geraldine Sam                         PRECINCT 4018                                          01 
01050050019000003000000000003000000000000000000REP       United States Senator                                   Geraldine Sam                         PRECINCT 4019                                          01 
01050050020000003000001000002000000000000000000REP       United States Senator                                   Geraldine Sam                         PRECINCT 4020                                          01 
01050050021000002000001000001000000000000000000REP       United States Senator                                   Geraldine Sam                         PRECINCT 4021                                          01 
01050060001000000000000000000000000000000000000REP       United States Senator                                   OVER VOTES                            PRECINCT 1001                                          01 
01050060002000000000000000000000000000000000000REP       United States Senator                                   OVER VOTES                            PRECINCT 1002                                          01 
01050060003000000000000000000000000000000000000REP       United States Senator                                   OVER VOTES                            PRECINCT 1003                                          01 
01050060004000000000000000000000000000000000000REP       United States Senator                                   OVER VOTES                            PRECINCT 1004                                          01 
01050060005000000000000000000000000000000000000REP       United States Senator                                   OVER VOTES                            PRECINCT 2005                                          01 
01050060006000000000000000000000000000000000000REP       United States Senator                                   OVER VOTES                            PRECINCT 2006                                          01 
01050060007000000000000000000000000000000000000REP       United States Senator                                   OVER VOTES                            PRECINCT 2007                                          01 
01050060008000000000000000000000000000000000000REP       United States Senator                                   OVER VOTES                            PRECINCT 2008                                          01 
01050060009000000000000000000000000000000000000REP       United States Senator                                   OVER VOTES                            PRECINCT 2009                                          01 
01050060010000000000000000000000000000000000000REP       United States Senator                                   OVER VOTES                            PRECINCT 2010                                          01 
01050060011000000000000000000000000000000000000REP       United States Senator                                   OVER VOTES                            PRECINCT 2011                                          01 
01050060012000000000000000000000000000000000000REP       United States Senator                                   OVER VOTES                            PRECINCT 3012                                          01 
01050060013000000000000000000000000000000000000REP       United States Senator                                   OVER VOTES                            PRECINCT 3013                                          01 
01050060014000000000000000000000000000000000000REP       United States Senator                                   OVER VOTES                            PRECINCT 3014                                          01 
01050060015000000000000000000000000000000000000REP       United States Senator                                   OVER VOTES                            PRECINCT 3015                                          01 
01050060016000000000000000000000000000000000000REP       United States Senator                                   OVER VOTES                            PRECINCT 3016                                          01 
01050060017000000000000000000000000000000000000REP       United States Senator                                   OVER VOTES                            PRECINCT 4017                                          01 
01050060018000000000000000000000000000000000000REP       United States Senator                                   OVER VOTES                            PRECINCT 4018                                          01 
01050060019000000000000000000000000000000000000REP       United States Senator                                   OVER VOTES                            PRECINCT 4019                                          01 
01050060020000000000000000000000000000000000000REP       United States Senator                                   OVER VOTES                            PRECINCT 4020                                          01 
01050060021000000000000000000000000000000000000REP       United States Senator                                   OVER VOTES                            PRECINCT 4021                                          01 
01050070001000035000021000014000000000000000000REP       United States Senator                                   UNDER VOTES                           PRECINCT 1001                                          01 
01050070002000022000013000009000000000000000000REP       United States Senator                                   UNDER VOTES                           PRECINCT 1002                                          01 
01050070003000049000028000021000000000000000000REP       United States Senator                                   UNDER VOTES                           PRECINCT 1003                                          01 
01050070004000007000004000003000000000000000000REP       United States Senator                                   UNDER VOTES                           PRECINCT 1004                                          01 
01050070005000022000011000011000000000000000000REP       United States Senator                                   UNDER VOTES                           PRECINCT 2005                                          01 
01050070006000011000003000008000000000000000000REP       United States Senator                                   UNDER VOTES                           PRECINCT 2006                                          01 
01050070007000018000008000010000000000000000000REP       United States Senator                                   UNDER VOTES                           PRECINCT 2007                                          01 
01050070008000014000011000003000000000000000000REP       United States Senator                                   UNDER VOTES                           PRECINCT 2008                                          01 
01050070009000011000004000007000000000000000000REP       United States Senator                                   UNDER VOTES                           PRECINCT 2009                                          01 
01050070010000006000004000002000000000000000000REP       United States Senator                                   UNDER VOTES                           PRECINCT 2010                                          01 
01050070011000016000010000006000000000000000000REP       United States Senator                                   UNDER VOTES                           PRECINCT 2011                                          01 
01050070012000010000006000004000000000000000000REP       United States Senator                                   UNDER VOTES                           PRECINCT 3012                                          01 
01050070013000011000005000006000000000000000000REP       United States Senator                                   UNDER VOTES                           PRECINCT 3013                                          01 
01050070014000010000007000003000000000000000000REP       United States Senator                                   UNDER VOTES                           PRECINCT 3014                                          01 
01050070015000010000002000008000000000000000000REP       United States Senator                                   UNDER VOTES                           PRECINCT 3015                                          01 
01050070016000017000010000007000000000000000000REP       United States Senator                                   UNDER VOTES                           PRECINCT 3016                                          01 
01050070017000014000011000003000000000000000000REP       United States Senator                                   UNDER VOTES                           PRECINCT 4017                                          01 
01050070018000008000005000003000000000000000000REP       United States Senator                                   UNDER VOTES                           PRECINCT 4018                                          01 
01050070019000009000004000005000000000000000000REP       United States Senator                                   UNDER VOTES                           PRECINCT 4019                                          01 
01050070020000022000016000006000000000000000000REP       United States Senator                                   UNDER VOTES                           PRECINCT 4020                                          01 
01050070021000009000001000008000000000000000000REP       United States Senator                                   UNDER VOTES                           PRECINCT 4021                                          01 
01060010001000193000076000117000000000000000000REP       United States Representative, Dist 10                   John W. Cook                          PRECINCT 1001                                          01 
01060010002000100000056000044000000000000000000REP       United States Representative, Dist 10                   John W. Cook                          PRECINCT 1002                                          01 
01060010004000074000033000041000000000000000000REP       United States Representative, Dist 10                   John W. Cook                          PRECINCT 1004                                          01 
01060010005000122000071000051000000000000000000REP       United States Representative, Dist 10                   John W. Cook                          PRECINCT 2005                                          01 
01060010006000064000031000033000000000000000000REP       United States Representative, Dist 10                   John W. Cook                          PRECINCT 2006                                          01 
01060010009000057000027000030000000000000000000REP       United States Representative, Dist 10                   John W. Cook                          PRECINCT 2009                                          01 
01060010010000039000016000023000000000000000000REP       United States Representative, Dist 10                   John W. Cook                          PRECINCT 2010                                          01 
01060010011000120000057000063000000000000000000REP       United States Representative, Dist 10                   John W. Cook                          PRECINCT 2011                                          01 
01060010017000080000054000026000000000000000000REP       United States Representative, Dist 10                   John W. Cook                          PRECINCT 4017                                          01 
01060010019000097000041000056000000000000000000REP       United States Representative, Dist 10                   John W. Cook                          PRECINCT 4019                                          01 
01060010020000064000037000027000000000000000000REP       United States Representative, Dist 10                   John W. Cook                          PRECINCT 4020                                          01 
01060010021000048000024000024000000000000000000REP       United States Representative, Dist 10                   John W. Cook                          PRECINCT 4021                                          01 
01060020001000358000207000151000000000000000000REP       United States Representative, Dist 10                   Michael T. McCaul                     PRECINCT 1001                                          01 
01060020002000249000152000097000000000000000000REP       United States Representative, Dist 10                   Michael T. McCaul                     PRECINCT 1002                                          01 
01060020004000154000085000068000001000000000000REP       United States Representative, Dist 10                   Michael T. McCaul                     PRECINCT 1004                                          01 
01060020005000256000158000098000000000000000000REP       United States Representative, Dist 10                   Michael T. McCaul                     PRECINCT 2005                                          01 
01060020006000166000094000072000000000000000000REP       United States Representative, Dist 10                   Michael T. McCaul                     PRECINCT 2006                                          01 
01060020009000115000062000053000000000000000000REP       United States Representative, Dist 10                   Michael T. McCaul                     PRECINCT 2009                                          01 
01060020010000155000060000095000000000000000000REP       United States Representative, Dist 10                   Michael T. McCaul                     PRECINCT 2010                                          01 
01060020011000251000137000114000000000000000000REP       United States Representative, Dist 10                   Michael T. McCaul                     PRECINCT 2011                                          01 
01060020017000195000116000079000000000000000000REP       United States Representative, Dist 10                   Michael T. McCaul                     PRECINCT 4017                                          01 
01060020019000242000120000122000000000000000000REP       United States Representative, Dist 10                   Michael T. McCaul                     PRECINCT 4019                                          01 
01060020020000319000191000128000000000000000000REP       United States Representative, Dist 10                   Michael T. McCaul                     PRECINCT 4020                                          01 
01060020021000156000053000103000000000000000000REP       United States Representative, Dist 10                   Michael T. McCaul                     PRECINCT 4021                                          01 
01060030001000000000000000000000000000000000000REP       United States Representative, Dist 10                   OVER VOTES                            PRECINCT 1001                                          01 
01060030002000000000000000000000000000000000000REP       United States Representative, Dist 10                   OVER VOTES                            PRECINCT 1002                                          01 
01060030004000000000000000000000000000000000000REP       United States Representative, Dist 10                   OVER VOTES                            PRECINCT 1004                                          01 
01060030005000001000001000000000000000000000000REP       United States Representative, Dist 10                   OVER VOTES                            PRECINCT 2005                                          01 
01060030006000000000000000000000000000000000000REP       United States Representative, Dist 10                   OVER VOTES                            PRECINCT 2006                                          01 
01060030009000000000000000000000000000000000000REP       United States Representative, Dist 10                   OVER VOTES                            PRECINCT 2009                                          01 
01060030010000000000000000000000000000000000000REP       United States Representative, Dist 10                   OVER VOTES                            PRECINCT 2010                                          01 
01060030011000000000000000000000000000000000000REP       United States Representative, Dist 10                   OVER VOTES                            PRECINCT 2011                                          01 
01060030017000000000000000000000000000000000000REP       United States Representative, Dist 10                   OVER VOTES                            PRECINCT 4017                                          01 
01060030019000000000000000000000000000000000000REP       United States Representative, Dist 10                   OVER VOTES                            PRECINCT 4019                                          01 
01060030020000000000000000000000000000000000000REP       United States Representative, Dist 10                   OVER VOTES                            PRECINCT 4020                                          01 
01060030021000000000000000000000000000000000000REP       United States Representative, Dist 10                   OVER VOTES                            PRECINCT 4021                                          01 
01060040001000071000035000036000000000000000000REP       United States Representative, Dist 10                   UNDER VOTES                           PRECINCT 1001                                          01 
01060040002000055000028000027000000000000000000REP       United States Representative, Dist 10                   UNDER VOTES                           PRECINCT 1002                                          01 
01060040004000013000006000007000000000000000000REP       United States Representative, Dist 10                   UNDER VOTES                           PRECINCT 1004                                          01 
01060040005000042000021000021000000000000000000REP       United States Representative, Dist 10                   UNDER VOTES                           PRECINCT 2005                                          01 
01060040006000027000012000015000000000000000000REP       United States Representative, Dist 10                   UNDER VOTES                           PRECINCT 2006                                          01 
01060040009000030000013000017000000000000000000REP       United States Representative, Dist 10                   UNDER VOTES                           PRECINCT 2009                                          01 
01060040010000013000005000008000000000000000000REP       United States Representative, Dist 10                   UNDER VOTES                           PRECINCT 2010                                          01 
01060040011000036000018000018000000000000000000REP       United States Representative, Dist 10                   UNDER VOTES                           PRECINCT 2011                                          01 
01060040017000019000011000008000000000000000000REP       United States Representative, Dist 10                   UNDER VOTES                           PRECINCT 4017                                          01 
01060040019000034000018000016000000000000000000REP       United States Representative, Dist 10                   UNDER VOTES                           PRECINCT 4019                                          01 
01060040020000043000027000016000000000000000000REP       United States Representative, Dist 10                   UNDER VOTES                           PRECINCT 4020                                          01 
01060040021000019000001000018000000000000000000REP       United States Representative, Dist 10                   UNDER VOTES                           PRECINCT 4021                                          01 
01070010018000091000056000035000000000000000000REP       United States Representative, Dist 17                   Bill Flores                           PRECINCT 4018                                          01 
01070020018000000000000000000000000000000000000REP       United States Representative, Dist 17                   OVER VOTES                            PRECINCT 4018                                          01 
01070030018000039000022000017000000000000000000REP       United States Representative, Dist 17                   UNDER VOTES                           PRECINCT 4018                                          01 
01080010003000094000046000048000000000000000000REP       United States Representative, Dist 27                   John Grunwald                         PRECINCT 1003                                          01 
01080010007000036000013000023000000000000000000REP       United States Representative, Dist 27                   John Grunwald                         PRECINCT 2007                                          01 
01080010008000018000013000005000000000000000000REP       United States Representative, Dist 27                   John Grunwald                         PRECINCT 2008                                          01 
01080010012000023000009000014000000000000000000REP       United States Representative, Dist 27                   John Grunwald                         PRECINCT 3012                                          01 
01080010013000027000007000020000000000000000000REP       United States Representative, Dist 27                   John Grunwald                         PRECINCT 3013                                          01 
01080010014000041000028000013000000000000000000REP       United States Representative, Dist 27                   John Grunwald                         PRECINCT 3014                                          01 
01080010015000028000011000017000000000000000000REP       United States Representative, Dist 27                   John Grunwald                         PRECINCT 3015                                          01 
01080010016000048000015000033000000000000000000REP       United States Representative, Dist 27                   John Grunwald                         PRECINCT 3016                                          01 
01080020003000162000097000065000000000000000000REP       United States Representative, Dist 27                   Jerry Hall                            PRECINCT 1003                                          01 
01080020007000082000036000046000000000000000000REP       United States Representative, Dist 27                   Jerry Hall                            PRECINCT 2007                                          01 
01080020008000025000017000008000000000000000000REP       United States Representative, Dist 27                   Jerry Hall                            PRECINCT 2008                                          01 
01080020012000026000016000010000000000000000000REP       United States Representative, Dist 27                   Jerry Hall                            PRECINCT 3012                                          01 
01080020013000029000009000020000000000000000000REP       United States Representative, Dist 27                   Jerry Hall                            PRECINCT 3013                                          01 
01080020014000043000023000020000000000000000000REP       United States Representative, Dist 27                   Jerry Hall                            PRECINCT 3014                                          01 
01080020015000031000017000014000000000000000000REP       United States Representative, Dist 27                   Jerry Hall                            PRECINCT 3015                                          01 
01080020016000052000031000021000000000000000000REP       United States Representative, Dist 27                   Jerry Hall                            PRECINCT 3016                                          01 
01080030003000180000098000082000000000000000000REP       United States Representative, Dist 27                   Michael Cloud                         PRECINCT 1003                                          01 
01080030007000102000055000047000000000000000000REP       United States Representative, Dist 27                   Michael Cloud                         PRECINCT 2007                                          01 
01080030008000032000018000014000000000000000000REP       United States Representative, Dist 27                   Michael Cloud                         PRECINCT 2008                                          01 
01080030012000026000019000007000000000000000000REP       United States Representative, Dist 27                   Michael Cloud                         PRECINCT 3012                                          01 
01080030013000030000009000021000000000000000000REP       United States Representative, Dist 27                   Michael Cloud                         PRECINCT 3013                                          01 
01080030014000046000022000024000000000000000000REP       United States Representative, Dist 27                   Michael Cloud                         PRECINCT 3014                                          01 
01080030015000030000021000009000000000000000000REP       United States Representative, Dist 27                   Michael Cloud                         PRECINCT 3015                                          01 
01080030016000071000040000031000000000000000000REP       United States Representative, Dist 27                   Michael Cloud                         PRECINCT 3016                                          01 
01080040003000226000146000080000000000000000000REP       United States Representative, Dist 27                   Bech Bruun                            PRECINCT 1003                                          01 
01080040007000095000046000049000000000000000000REP       United States Representative, Dist 27                   Bech Bruun                            PRECINCT 2007                                          01 
01080040008000044000030000014000000000000000000REP       United States Representative, Dist 27                   Bech Bruun                            PRECINCT 2008                                          01 
01080040012000038000020000018000000000000000000REP       United States Representative, Dist 27                   Bech Bruun                            PRECINCT 3012                                          01 
01080040013000080000023000057000000000000000000REP       United States Representative, Dist 27                   Bech Bruun                            PRECINCT 3013                                          01 
01080040014000069000044000025000000000000000000REP       United States Representative, Dist 27                   Bech Bruun                            PRECINCT 3014                                          01 
01080040015000047000031000016000000000000000000REP       United States Representative, Dist 27                   Bech Bruun                            PRECINCT 3015                                          01 
01080040016000085000055000030000000000000000000REP       United States Representative, Dist 27                   Bech Bruun                            PRECINCT 3016                                          01 
01080050003000074000037000037000000000000000000REP       United States Representative, Dist 27                   Christopher K. Mapp                   PRECINCT 1003                                          01 
01080050007000027000013000014000000000000000000REP       United States Representative, Dist 27                   Christopher K. Mapp                   PRECINCT 2007                                          01 
01080050008000021000012000009000000000000000000REP       United States Representative, Dist 27                   Christopher K. Mapp                   PRECINCT 2008                                          01 
01080050012000012000005000007000000000000000000REP       United States Representative, Dist 27                   Christopher K. Mapp                   PRECINCT 3012                                          01 
01080050013000030000014000016000000000000000000REP       United States Representative, Dist 27                   Christopher K. Mapp                   PRECINCT 3013                                          01 
01080050014000017000008000009000000000000000000REP       United States Representative, Dist 27                   Christopher K. Mapp                   PRECINCT 3014                                          01 
01080050015000022000014000008000000000000000000REP       United States Representative, Dist 27                   Christopher K. Mapp                   PRECINCT 3015                                          01 
01080050016000027000017000010000000000000000000REP       United States Representative, Dist 27                   Christopher K. Mapp                   PRECINCT 3016                                          01 
01080060003000023000013000010000000000000000000REP       United States Representative, Dist 27                   Eddie Gassman                         PRECINCT 1003                                          01 
01080060007000022000010000012000000000000000000REP       United States Representative, Dist 27                   Eddie Gassman                         PRECINCT 2007                                          01 
01080060008000007000003000004000000000000000000REP       United States Representative, Dist 27                   Eddie Gassman                         PRECINCT 2008                                          01 
01080060012000009000006000003000000000000000000REP       United States Representative, Dist 27                   Eddie Gassman                         PRECINCT 3012                                          01 
01080060013000006000001000005000000000000000000REP       United States Representative, Dist 27                   Eddie Gassman                         PRECINCT 3013                                          01 
01080060014000014000008000006000000000000000000REP       United States Representative, Dist 27                   Eddie Gassman                         PRECINCT 3014                                          01 
01080060015000012000008000004000000000000000000REP       United States Representative, Dist 27                   Eddie Gassman                         PRECINCT 3015                                          01 
01080060016000012000008000004000000000000000000REP       United States Representative, Dist 27                   Eddie Gassman                         PRECINCT 3016                                          01 
01080070003000003000003000000000000000000000000REP       United States Representative, Dist 27                   OVER VOTES                            PRECINCT 1003                                          01 
01080070007000000000000000000000000000000000000REP       United States Representative, Dist 27                   OVER VOTES                            PRECINCT 2007                                          01 
01080070008000000000000000000000000000000000000REP       United States Representative, Dist 27                   OVER VOTES                            PRECINCT 2008                                          01 
01080070012000000000000000000000000000000000000REP       United States Representative, Dist 27                   OVER VOTES                            PRECINCT 3012                                          01 
01080070013000001000001000000000000000000000000REP       United States Representative, Dist 27                   OVER VOTES                            PRECINCT 3013                                          01 
01080070014000000000000000000000000000000000000REP       United States Representative, Dist 27                   OVER VOTES                            PRECINCT 3014                                          01 
01080070015000000000000000000000000000000000000REP       United States Representative, Dist 27                   OVER VOTES                            PRECINCT 3015                                          01 
01080070016000000000000000000000000000000000000REP       United States Representative, Dist 27                   OVER VOTES                            PRECINCT 3016                                          01 
01080080003000179000096000083000000000000000000REP       United States Representative, Dist 27                   UNDER VOTES                           PRECINCT 1003                                          01 
01080080007000084000037000047000000000000000000REP       United States Representative, Dist 27                   UNDER VOTES                           PRECINCT 2007                                          01 
01080080008000046000029000017000000000000000000REP       United States Representative, Dist 27                   UNDER VOTES                           PRECINCT 2008                                          01 
01080080012000029000016000013000000000000000000REP       United States Representative, Dist 27                   UNDER VOTES                           PRECINCT 3012                                          01 
01080080013000058000017000041000000000000000000REP       United States Representative, Dist 27                   UNDER VOTES                           PRECINCT 3013                                          01 
01080080014000041000025000016000000000000000000REP       United States Representative, Dist 27                   UNDER VOTES                           PRECINCT 3014                                          01 
01080080015000040000012000028000000000000000000REP       United States Representative, Dist 27                   UNDER VOTES                           PRECINCT 3015                                          01 
01080080016000077000040000037000000000000000000REP       United States Representative, Dist 27                   UNDER VOTES                           PRECINCT 3016                                          01 
01090010001000009000003000006000000000000000000REP       Governor                                                SECEDE Kilgore                        PRECINCT 1001                                          01 
01090010002000013000007000006000000000000000000REP       Governor                                                SECEDE Kilgore                        PRECINCT 1002                                          01 
01090010003000018000009000009000000000000000000REP       Governor                                                SECEDE Kilgore                        PRECINCT 1003                                          01 
01090010004000005000003000002000000000000000000REP       Governor                                                SECEDE Kilgore                        PRECINCT 1004                                          01 
01090010005000009000005000004000000000000000000REP       Governor                                                SECEDE Kilgore                        PRECINCT 2005                                          01 
01090010006000005000002000003000000000000000000REP       Governor                                                SECEDE Kilgore                        PRECINCT 2006                                          01 
01090010007000007000003000004000000000000000000REP       Governor                                                SECEDE Kilgore                        PRECINCT 2007                                          01 
01090010008000002000002000000000000000000000000REP       Governor                                                SECEDE Kilgore                        PRECINCT 2008                                          01 
01090010009000004000000000004000000000000000000REP       Governor                                                SECEDE Kilgore                        PRECINCT 2009                                          01 
01090010010000004000000000004000000000000000000REP       Governor                                                SECEDE Kilgore                        PRECINCT 2010                                          01 
01090010011000007000004000003000000000000000000REP       Governor                                                SECEDE Kilgore                        PRECINCT 2011                                          01 
01090010012000002000001000001000000000000000000REP       Governor                                                SECEDE Kilgore                        PRECINCT 3012                                          01 
01090010013000007000002000005000000000000000000REP       Governor                                                SECEDE Kilgore                        PRECINCT 3013                                          01 
01090010014000004000002000002000000000000000000REP       Governor                                                SECEDE Kilgore                        PRECINCT 3014                                          01 
01090010015000007000005000002000000000000000000REP       Governor                                                SECEDE Kilgore                        PRECINCT 3015                                          01 
01090010016000003000002000001000000000000000000REP       Governor                                                SECEDE Kilgore                        PRECINCT 3016                                          01 
01090010017000008000003000005000000000000000000REP       Governor                                                SECEDE Kilgore                        PRECINCT 4017                                          01 
01090010018000002000001000001000000000000000000REP       Governor                                                SECEDE Kilgore                        PRECINCT 4018                                          01 
01090010019000008000003000005000000000000000000REP       Governor                                                SECEDE Kilgore                        PRECINCT 4019                                          01 
01090010020000006000005000001000000000000000000REP       Governor                                                SECEDE Kilgore                        PRECINCT 4020                                          01 
01090010021000002000000000002000000000000000000REP       Governor                                                SECEDE Kilgore                        PRECINCT 4021                                          01 
01090020001000076000038000038000000000000000000REP       Governor                                                Barbara Krueger                       PRECINCT 1001                                          01 
01090020002000062000036000026000000000000000000REP       Governor                                                Barbara Krueger                       PRECINCT 1002                                          01 
01090020003000109000063000046000000000000000000REP       Governor                                                Barbara Krueger                       PRECINCT 1003                                          01 
01090020004000028000014000014000000000000000000REP       Governor                                                Barbara Krueger                       PRECINCT 1004                                          01 
01090020005000040000025000015000000000000000000REP       Governor                                                Barbara Krueger                       PRECINCT 2005                                          01 
01090020006000019000009000010000000000000000000REP       Governor                                                Barbara Krueger                       PRECINCT 2006                                          01 
01090020007000044000018000026000000000000000000REP       Governor                                                Barbara Krueger                       PRECINCT 2007                                          01 
01090020008000021000016000005000000000000000000REP       Governor                                                Barbara Krueger                       PRECINCT 2008                                          01 
01090020009000017000008000009000000000000000000REP       Governor                                                Barbara Krueger                       PRECINCT 2009                                          01 
01090020010000010000006000004000000000000000000REP       Governor                                                Barbara Krueger                       PRECINCT 2010                                          01 
01090020011000055000025000030000000000000000000REP       Governor                                                Barbara Krueger                       PRECINCT 2011                                          01 
01090020012000012000009000003000000000000000000REP       Governor                                                Barbara Krueger                       PRECINCT 3012                                          01 
01090020013000025000017000008000000000000000000REP       Governor                                                Barbara Krueger                       PRECINCT 3013                                          01 
01090020014000017000012000005000000000000000000REP       Governor                                                Barbara Krueger                       PRECINCT 3014                                          01 
01090020015000033000017000016000000000000000000REP       Governor                                                Barbara Krueger                       PRECINCT 3015                                          01 
01090020016000033000023000010000000000000000000REP       Governor                                                Barbara Krueger                       PRECINCT 3016                                          01 
01090020017000038000023000015000000000000000000REP       Governor                                                Barbara Krueger                       PRECINCT 4017                                          01 
01090020018000008000004000004000000000000000000REP       Governor                                                Barbara Krueger                       PRECINCT 4018                                          01 
01090020019000048000026000022000000000000000000REP       Governor                                                Barbara Krueger                       PRECINCT 4019                                          01 
01090020020000047000029000018000000000000000000REP       Governor                                                Barbara Krueger                       PRECINCT 4020                                          01 
01090020021000024000013000011000000000000000000REP       Governor                                                Barbara Krueger                       PRECINCT 4021                                          01 
01090030001000513000262000251000000000000000000REP       Governor                                                Greg Abbott                           PRECINCT 1001                                          01 
01090030002000309000179000130000000000000000000REP       Governor                                                Greg Abbott                           PRECINCT 1002                                          01 
01090030003000772000439000333000000000000000000REP       Governor                                                Greg Abbott                           PRECINCT 1003                                          01 
01090030004000205000105000099000001000000000000REP       Governor                                                Greg Abbott                           PRECINCT 1004                                          01 
01090030005000358000213000145000000000000000000REP       Governor                                                Greg Abbott                           PRECINCT 2005                                          01 
01090030006000225000123000102000000000000000000REP       Governor                                                Greg Abbott                           PRECINCT 2006                                          01 
01090030007000389000185000204000000000000000000REP       Governor                                                Greg Abbott                           PRECINCT 2007                                          01 
01090030008000159000097000062000000000000000000REP       Governor                                                Greg Abbott                           PRECINCT 2008                                          01 
01090030009000167000088000079000000000000000000REP       Governor                                                Greg Abbott                           PRECINCT 2009                                          01 
01090030010000187000069000118000000000000000000REP       Governor                                                Greg Abbott                           PRECINCT 2010                                          01 
01090030011000329000172000157000000000000000000REP       Governor                                                Greg Abbott                           PRECINCT 2011                                          01 
01090030012000141000078000063000000000000000000REP       Governor                                                Greg Abbott                           PRECINCT 3012                                          01 
01090030013000219000057000162000000000000000000REP       Governor                                                Greg Abbott                           PRECINCT 3013                                          01 
01090030014000244000139000105000000000000000000REP       Governor                                                Greg Abbott                           PRECINCT 3014                                          01 
01090030015000161000090000071000000000000000000REP       Governor                                                Greg Abbott                           PRECINCT 3015                                          01 
01090030016000324000175000149000000000000000000REP       Governor                                                Greg Abbott                           PRECINCT 3016                                          01 
01090030017000237000147000090000000000000000000REP       Governor                                                Greg Abbott                           PRECINCT 4017                                          01 
01090030018000115000071000044000000000000000000REP       Governor                                                Greg Abbott                           PRECINCT 4018                                          01 
01090030019000306000145000161000000000000000000REP       Governor                                                Greg Abbott                           PRECINCT 4019                                          01 
01090030020000353000209000144000000000000000000REP       Governor                                                Greg Abbott                           PRECINCT 4020                                          01 
01090030021000192000064000128000000000000000000REP       Governor                                                Greg Abbott                           PRECINCT 4021                                          01 
01090040001000000000000000000000000000000000000REP       Governor                                                OVER VOTES                            PRECINCT 1001                                          01 
01090040002000000000000000000000000000000000000REP       Governor                                                OVER VOTES                            PRECINCT 1002                                          01 
01090040003000000000000000000000000000000000000REP       Governor                                                OVER VOTES                            PRECINCT 1003                                          01 
01090040004000000000000000000000000000000000000REP       Governor                                                OVER VOTES                            PRECINCT 1004                                          01 
01090040005000000000000000000000000000000000000REP       Governor                                                OVER VOTES                            PRECINCT 2005                                          01 
01090040006000000000000000000000000000000000000REP       Governor                                                OVER VOTES                            PRECINCT 2006                                          01 
01090040007000000000000000000000000000000000000REP       Governor                                                OVER VOTES                            PRECINCT 2007                                          01 
01090040008000000000000000000000000000000000000REP       Governor                                                OVER VOTES                            PRECINCT 2008                                          01 
01090040009000000000000000000000000000000000000REP       Governor                                                OVER VOTES                            PRECINCT 2009                                          01 
01090040010000000000000000000000000000000000000REP       Governor                                                OVER VOTES                            PRECINCT 2010                                          01 
01090040011000000000000000000000000000000000000REP       Governor                                                OVER VOTES                            PRECINCT 2011                                          01 
01090040012000000000000000000000000000000000000REP       Governor                                                OVER VOTES                            PRECINCT 3012                                          01 
01090040013000000000000000000000000000000000000REP       Governor                                                OVER VOTES                            PRECINCT 3013                                          01 
01090040014000000000000000000000000000000000000REP       Governor                                                OVER VOTES                            PRECINCT 3014                                          01 
01090040015000000000000000000000000000000000000REP       Governor                                                OVER VOTES                            PRECINCT 3015                                          01 
01090040016000000000000000000000000000000000000REP       Governor                                                OVER VOTES                            PRECINCT 3016                                          01 
01090040017000000000000000000000000000000000000REP       Governor                                                OVER VOTES                            PRECINCT 4017                                          01 
01090040018000000000000000000000000000000000000REP       Governor                                                OVER VOTES                            PRECINCT 4018                                          01 
01090040019000000000000000000000000000000000000REP       Governor                                                OVER VOTES                            PRECINCT 4019                                          01 
01090040020000000000000000000000000000000000000REP       Governor                                                OVER VOTES                            PRECINCT 4020                                          01 
01090040021000000000000000000000000000000000000REP       Governor                                                OVER VOTES                            PRECINCT 4021                                          01 
01090050001000024000015000009000000000000000000REP       Governor                                                UNDER VOTES                           PRECINCT 1001                                          01 
01090050002000020000014000006000000000000000000REP       Governor                                                UNDER VOTES                           PRECINCT 1002                                          01 
01090050003000042000025000017000000000000000000REP       Governor                                                UNDER VOTES                           PRECINCT 1003                                          01 
01090050004000003000002000001000000000000000000REP       Governor                                                UNDER VOTES                           PRECINCT 1004                                          01 
01090050005000014000008000006000000000000000000REP       Governor                                                UNDER VOTES                           PRECINCT 2005                                          01 
01090050006000008000003000005000000000000000000REP       Governor                                                UNDER VOTES                           PRECINCT 2006                                          01 
01090050007000008000004000004000000000000000000REP       Governor                                                UNDER VOTES                           PRECINCT 2007                                          01 
01090050008000011000007000004000000000000000000REP       Governor                                                UNDER VOTES                           PRECINCT 2008                                          01 
01090050009000014000006000008000000000000000000REP       Governor                                                UNDER VOTES                           PRECINCT 2009                                          01 
01090050010000006000006000000000000000000000000REP       Governor                                                UNDER VOTES                           PRECINCT 2010                                          01 
01090050011000016000011000005000000000000000000REP       Governor                                                UNDER VOTES                           PRECINCT 2011                                          01 
01090050012000008000003000005000000000000000000REP       Governor                                                UNDER VOTES                           PRECINCT 3012                                          01 
01090050013000010000005000005000000000000000000REP       Governor                                                UNDER VOTES                           PRECINCT 3013                                          01 
01090050014000006000005000001000000000000000000REP       Governor                                                UNDER VOTES                           PRECINCT 3014                                          01 
01090050015000009000002000007000000000000000000REP       Governor                                                UNDER VOTES                           PRECINCT 3015                                          01 
01090050016000012000006000006000000000000000000REP       Governor                                                UNDER VOTES                           PRECINCT 3016                                          01 
01090050017000011000008000003000000000000000000REP       Governor                                                UNDER VOTES                           PRECINCT 4017                                          01 
01090050018000005000002000003000000000000000000REP       Governor                                                UNDER VOTES                           PRECINCT 4018                                          01 
01090050019000011000005000006000000000000000000REP       Governor                                                UNDER VOTES                           PRECINCT 4019                                          01 
01090050020000020000012000008000000000000000000REP       Governor                                                UNDER VOTES                           PRECINCT 4020                                          01 
01090050021000005000001000004000000000000000000REP       Governor                                                UNDER VOTES                           PRECINCT 4021                                          01 
01100010001000429000219000210000000000000000000REP       Lieutenant Governor                                     Dan Patrick                           PRECINCT 1001                                          01 
01100010002000253000152000101000000000000000000REP       Lieutenant Governor                                     Dan Patrick                           PRECINCT 1002                                          01 
01100010003000648000373000275000000000000000000REP       Lieutenant Governor                                     Dan Patrick                           PRECINCT 1003                                          01 
01100010004000184000092000091000001000000000000REP       Lieutenant Governor                                     Dan Patrick                           PRECINCT 1004                                          01 
01100010005000300000187000113000000000000000000REP       Lieutenant Governor                                     Dan Patrick                           PRECINCT 2005                                          01 
01100010006000191000107000084000000000000000000REP       Lieutenant Governor                                     Dan Patrick                           PRECINCT 2006                                          01 
01100010007000318000157000161000000000000000000REP       Lieutenant Governor                                     Dan Patrick                           PRECINCT 2007                                          01 
01100010008000126000076000050000000000000000000REP       Lieutenant Governor                                     Dan Patrick                           PRECINCT 2008                                          01 
01100010009000136000073000063000000000000000000REP       Lieutenant Governor                                     Dan Patrick                           PRECINCT 2009                                          01 
01100010010000160000061000099000000000000000000REP       Lieutenant Governor                                     Dan Patrick                           PRECINCT 2010                                          01 
01100010011000282000147000135000000000000000000REP       Lieutenant Governor                                     Dan Patrick                           PRECINCT 2011                                          01 
01100010012000129000072000057000000000000000000REP       Lieutenant Governor                                     Dan Patrick                           PRECINCT 3012                                          01 
01100010013000191000053000138000000000000000000REP       Lieutenant Governor                                     Dan Patrick                           PRECINCT 3013                                          01 
01100010014000227000128000099000000000000000000REP       Lieutenant Governor                                     Dan Patrick                           PRECINCT 3014                                          01 
01100010015000146000081000065000000000000000000REP       Lieutenant Governor                                     Dan Patrick                           PRECINCT 3015                                          01 
01100010016000295000161000134000000000000000000REP       Lieutenant Governor                                     Dan Patrick                           PRECINCT 3016                                          01 
01100010017000192000115000077000000000000000000REP       Lieutenant Governor                                     Dan Patrick                           PRECINCT 4017                                          01 
01100010018000095000060000035000000000000000000REP       Lieutenant Governor                                     Dan Patrick                           PRECINCT 4018                                          01 
01100010019000272000131000141000000000000000000REP       Lieutenant Governor                                     Dan Patrick                           PRECINCT 4019                                          01 
01100010020000304000185000119000000000000000000REP       Lieutenant Governor                                     Dan Patrick                           PRECINCT 4020                                          01 
01100010021000169000054000115000000000000000000REP       Lieutenant Governor                                     Dan Patrick                           PRECINCT 4021                                          01 
01100020001000168000086000082000000000000000000REP       Lieutenant Governor                                     Scott Milder                          PRECINCT 1001                                          01 
