01020010001000000          BALLOTS CAST - TOTAL                                    BALLOTS CAST - TOTAL                  PRECINCT 1                                             00 
01020010002000000          BALLOTS CAST - TOTAL                                    BALLOTS CAST - TOTAL                  PRECINCT 2                                             00 
01020010003000000          BALLOTS CAST - TOTAL                                    BALLOTS CAST - TOTAL                  PRECINCT 3                                             00 
01020010004000000          BALLOTS CAST - TOTAL                                    BALLOTS CAST - TOTAL                  PRECINCT 4                                             00 
01020010005000000          BALLOTS CAST - TOTAL                                    BALLOTS CAST - TOTAL                  PRECINCT 6                                             00 
01030010001000000REP       BALLOTS CAST - REPUBLICAN PARTY                         BALLOTS CAST - REPUBLICAN PARTY       PRECINCT 1                                             00 
01030010002000000REP       BALLOTS CAST - REPUBLICAN PARTY                         BALLOTS CAST - REPUBLICAN PARTY       PRECINCT 2                                             00 
01030010003000000REP       BALLOTS CAST - REPUBLICAN PARTY                         BALLOTS CAST - REPUBLICAN PARTY       PRECINCT 3                                             00 
01030010004000000REP       BALLOTS CAST - REPUBLICAN PARTY                         BALLOTS CAST - REPUBLICAN PARTY       PRECINCT 4                                             00 
01030010005000000REP       BALLOTS CAST - REPUBLICAN PARTY                         BALLOTS CAST - REPUBLICAN PARTY       PRECINCT 6                                             00 
01040010001000000DEM       BALLOTS CAST - DEMOCRATIC PARTY                         BALLOTS CAST - DEMOCRATIC PARTY       PRECINCT 1                                             00 
01040010002000000DEM       BALLOTS CAST - DEMOCRATIC PARTY                         BALLOTS CAST - DEMOCRATIC PARTY       PRECINCT 2                                             00 
01040010003000000DEM       BALLOTS CAST - DEMOCRATIC PARTY                         BALLOTS CAST - DEMOCRATIC PARTY       PRECINCT 3                                             00 
01040010004000000DEM       BALLOTS CAST - DEMOCRATIC PARTY                         BALLOTS CAST - DEMOCRATIC PARTY       PRECINCT 4                                             00 
01040010005000000DEM       BALLOTS CAST - DEMOCRATIC PARTY                         BALLOTS CAST - DEMOCRATIC PARTY       PRECINCT 6                                             00 
01050010001000000REP       United States Senator                                   Ted Cruz                              PRECINCT 1                                             01 
01050010002000000REP       United States Senator                                   Ted Cruz                              PRECINCT 2                                             01 
01050010003000000REP       United States Senator                                   Ted Cruz                              PRECINCT 3                                             01 
01050010004000000REP       United States Senator                                   Ted Cruz                              PRECINCT 4                                             01 
01050010005000000REP       United States Senator                                   Ted Cruz                              PRECINCT 6                                             01 
01050020001000000REP       United States Senator                                   Mary Miller                           PRECINCT 1                                             01 
01050020002000000REP       United States Senator                                   Mary Miller                           PRECINCT 2                                             01 
01050020003000000REP       United States Senator                                   Mary Miller                           PRECINCT 3                                             01 
01050020004000000REP       United States Senator                                   Mary Miller                           PRECINCT 4                                             01 
01050020005000000REP       United States Senator                                   Mary Miller                           PRECINCT 6                                             01 
01050030001000000REP       United States Senator                                   Geraldine Sam                         PRECINCT 1                                             01 
01050030002000000REP       United States Senator                                   Geraldine Sam                         PRECINCT 2                                             01 
01050030003000000REP       United States Senator                                   Geraldine Sam                         PRECINCT 3                                             01 
01050030004000000REP       United States Senator                                   Geraldine Sam                         PRECINCT 4                                             01 
01050030005000000REP       United States Senator                                   Geraldine Sam                         PRECINCT 6                                             01 
01050040001000000REP       United States Senator                                   Stefano de Stefano                    PRECINCT 1                                             01 
01050040002000000REP       United States Senator                                   Stefano de Stefano                    PRECINCT 2                                             01 
01050040003000000REP       United States Senator                                   Stefano de Stefano                    PRECINCT 3                                             01 
01050040004000000REP       United States Senator                                   Stefano de Stefano                    PRECINCT 4                                             01 
01050040005000000REP       United States Senator                                   Stefano de Stefano                    PRECINCT 6                                             01 
01050050001000000REP       United States Senator                                   Bruce Jacobson, Jr.                   PRECINCT 1                                             01 
01050050002000000REP       United States Senator                                   Bruce Jacobson, Jr.                   PRECINCT 2                                             01 
01050050003000000REP       United States Senator                                   Bruce Jacobson, Jr.                   PRECINCT 3                                             01 
01050050004000000REP       United States Senator                                   Bruce Jacobson, Jr.                   PRECINCT 4                                             01 
01050050005000000REP       United States Senator                                   Bruce Jacobson, Jr.                   PRECINCT 6                                             01 
01050060001000000REP       United States Senator                                   OVER VOTES                            PRECINCT 1                                             01 
01050060002000000REP       United States Senator                                   OVER VOTES                            PRECINCT 2                                             01 
01050060003000000REP       United States Senator                                   OVER VOTES                            PRECINCT 3                                             01 
01050060004000000REP       United States Senator                                   OVER VOTES                            PRECINCT 4                                             01 
01050060005000000REP       United States Senator                                   OVER VOTES                            PRECINCT 6                                             01 
01050070001000000REP       United States Senator                                   UNDER VOTES                           PRECINCT 1                                             01 
01050070002000000REP       United States Senator                                   UNDER VOTES                           PRECINCT 2                                             01 
01050070003000000REP       United States Senator                                   UNDER VOTES                           PRECINCT 3                                             01 
01050070004000000REP       United States Senator                                   UNDER VOTES                           PRECINCT 4                                             01 
01050070005000000REP       United States Senator                                   UNDER VOTES                           PRECINCT 6                                             01 
01060010001000000REP       United States Representative, Dist 13                   Mac Thornberry                        PRECINCT 1                                             01 
01060010002000000REP       United States Representative, Dist 13                   Mac Thornberry                        PRECINCT 2                                             01 
01060010003000000REP       United States Representative, Dist 13                   Mac Thornberry                        PRECINCT 3                                             01 
01060010004000000REP       United States Representative, Dist 13                   Mac Thornberry                        PRECINCT 4                                             01 
01060010005000000REP       United States Representative, Dist 13                   Mac Thornberry                        PRECINCT 6                                             01 
01060020001000000REP       United States Representative, Dist 13                   OVER VOTES                            PRECINCT 1                                             01 
01060020002000000REP       United States Representative, Dist 13                   OVER VOTES                            PRECINCT 2                                             01 
01060020003000000REP       United States Representative, Dist 13                   OVER VOTES                            PRECINCT 3                                             01 
01060020004000000REP       United States Representative, Dist 13                   OVER VOTES                            PRECINCT 4                                             01 
01060020005000000REP       United States Representative, Dist 13                   OVER VOTES                            PRECINCT 6                                             01 
01060030001000000REP       United States Representative, Dist 13                   UNDER VOTES                           PRECINCT 1                                             01 
01060030002000000REP       United States Representative, Dist 13                   UNDER VOTES                           PRECINCT 2                                             01 
01060030003000000REP       United States Representative, Dist 13                   UNDER VOTES                           PRECINCT 3                                             01 
01060030004000000REP       United States Representative, Dist 13                   UNDER VOTES                           PRECINCT 4                                             01 
01060030005000000REP       United States Representative, Dist 13                   UNDER VOTES                           PRECINCT 6                                             01 
01070010001000000REP       Governor                                                Greg Abbott                           PRECINCT 1                                             01 
01070010002000000REP       Governor                                                Greg Abbott                           PRECINCT 2                                             01 
01070010003000000REP       Governor                                                Greg Abbott                           PRECINCT 3                                             01 
01070010004000000REP       Governor                                                Greg Abbott                           PRECINCT 4                                             01 
01070010005000000REP       Governor                                                Greg Abbott                           PRECINCT 6                                             01 
01070020001000000REP       Governor                                                SECEDE Kilgore                        PRECINCT 1                                             01 
01070020002000000REP       Governor                                                SECEDE Kilgore                        PRECINCT 2                                             01 
01070020003000000REP       Governor                                                SECEDE Kilgore                        PRECINCT 3                                             01 
01070020004000000REP       Governor                                                SECEDE Kilgore                        PRECINCT 4                                             01 
01070020005000000REP       Governor                                                SECEDE Kilgore                        PRECINCT 6                                             01 
01070030001000000REP       Governor                                                Barbara Krueger                       PRECINCT 1                                             01 
01070030002000000REP       Governor                                                Barbara Krueger                       PRECINCT 2                                             01 
01070030003000000REP       Governor                                                Barbara Krueger                       PRECINCT 3                                             01 
01070030004000000REP       Governor                                                Barbara Krueger                       PRECINCT 4                                             01 
01070030005000000REP       Governor                                                Barbara Krueger                       PRECINCT 6                                             01 
01070040001000000REP       Governor                                                OVER VOTES                            PRECINCT 1                                             01 
01070040002000000REP       Governor                                                OVER VOTES                            PRECINCT 2                                             01 
01070040003000000REP       Governor                                                OVER VOTES                            PRECINCT 3                                             01 
01070040004000000REP       Governor                                                OVER VOTES                            PRECINCT 4                                             01 
01070040005000000REP       Governor                                                OVER VOTES                            PRECINCT 6                                             01 
01070050001000000REP       Governor                                                UNDER VOTES                           PRECINCT 1                                             01 
01070050002000000REP       Governor                                                UNDER VOTES                           PRECINCT 2                                             01 
01070050003000000REP       Governor                                                UNDER VOTES                           PRECINCT 3                                             01 
01070050004000000REP       Governor                                                UNDER VOTES                           PRECINCT 4                                             01 
01070050005000000REP       Governor                                                UNDER VOTES                           PRECINCT 6                                             01 
01080010001000000REP       Lieutenant Governor                                     Scott Milder                          PRECINCT 1                                             01 
01080010002000000REP       Lieutenant Governor                                     Scott Milder                          PRECINCT 2                                             01 
01080010003000000REP       Lieutenant Governor                                     Scott Milder                          PRECINCT 3                                             01 
01080010004000000REP       Lieutenant Governor                                     Scott Milder                          PRECINCT 4                                             01 
01080010005000000REP       Lieutenant Governor                                     Scott Milder                          PRECINCT 6                                             01 
01080020001000000REP       Lieutenant Governor                                     Dan Patrick                           PRECINCT 1                                             01 
01080020002000000REP       Lieutenant Governor                                     Dan Patrick                           PRECINCT 2                                             01 
01080020003000000REP       Lieutenant Governor                                     Dan Patrick                           PRECINCT 3                                             01 
01080020004000000REP       Lieutenant Governor                                     Dan Patrick                           PRECINCT 4                                             01 
01080020005000000REP       Lieutenant Governor                                     Dan Patrick                           PRECINCT 6                                             01 
01080030001000000REP       Lieutenant Governor                                     OVER VOTES                            PRECINCT 1                                             01 
01080030002000000REP       Lieutenant Governor                                     OVER VOTES                            PRECINCT 2                                             01 
01080030003000000REP       Lieutenant Governor                                     OVER VOTES                            PRECINCT 3                                             01 
01080030004000000REP       Lieutenant Governor                                     OVER VOTES                            PRECINCT 4                                             01 
01080030005000000REP       Lieutenant Governor                                     OVER VOTES                            PRECINCT 6                                             01 
01080040001000000REP       Lieutenant Governor                                     UNDER VOTES                           PRECINCT 1                                             01 
01080040002000000REP       Lieutenant Governor                                     UNDER VOTES                           PRECINCT 2                                             01 
01080040003000000REP       Lieutenant Governor                                     UNDER VOTES                           PRECINCT 3                                             01 
01080040004000000REP       Lieutenant Governor                                     UNDER VOTES                           PRECINCT 4                                             01 
01080040005000000REP       Lieutenant Governor                                     UNDER VOTES                           PRECINCT 6                                             01 
01090010001000000REP       Attorney General                                        Ken Paxton                            PRECINCT 1                                             01 
01090010002000000REP       Attorney General                                        Ken Paxton                            PRECINCT 2                                             01 
01090010003000000REP       Attorney General                                        Ken Paxton                            PRECINCT 3                                             01 
01090010004000000REP       Attorney General                                        Ken Paxton                            PRECINCT 4                                             01 
01090010005000000REP       Attorney General                                        Ken Paxton                            PRECINCT 6                                             01 
01090020001000000REP       Attorney General                                        OVER VOTES                            PRECINCT 1                                             01 
01090020002000000REP       Attorney General                                        OVER VOTES                            PRECINCT 2                                             01 
01090020003000000REP       Attorney General                                        OVER VOTES                            PRECINCT 3                                             01 
01090020004000000REP       Attorney General                                        OVER VOTES                            PRECINCT 4                                             01 
01090020005000000REP       Attorney General                                        OVER VOTES                            PRECINCT 6                                             01 
01090030001000000REP       Attorney General                                        UNDER VOTES                           PRECINCT 1                                             01 
01090030002000000REP       Attorney General                                        UNDER VOTES                           PRECINCT 2                                             01 
01090030003000000REP       Attorney General                                        UNDER VOTES                           PRECINCT 3                                             01 
01090030004000000REP       Attorney General                                        UNDER VOTES                           PRECINCT 4                                             01 
01090030005000000REP       Attorney General                                        UNDER VOTES                           PRECINCT 6                                             01 
01100010001000000REP       Comptroller of Public Accounts                          Glenn Hegar                           PRECINCT 1                                             01 
01100010002000000REP       Comptroller of Public Accounts                          Glenn Hegar                           PRECINCT 2                                             01 
01100010003000000REP       Comptroller of Public Accounts                          Glenn Hegar                           PRECINCT 3                                             01 
01100010004000000REP       Comptroller of Public Accounts                          Glenn Hegar                           PRECINCT 4                                             01 
01100010005000000REP       Comptroller of Public Accounts                          Glenn Hegar                           PRECINCT 6                                             01 
01100020001000000REP       Comptroller of Public Accounts                          OVER VOTES                            PRECINCT 1                                             01 
01100020002000000REP       Comptroller of Public Accounts                          OVER VOTES                            PRECINCT 2                                             01 
01100020003000000REP       Comptroller of Public Accounts                          OVER VOTES                            PRECINCT 3                                             01 
01100020004000000REP       Comptroller of Public Accounts                          OVER VOTES                            PRECINCT 4                                             01 
01100020005000000REP       Comptroller of Public Accounts                          OVER VOTES                            PRECINCT 6                                             01 
01100030001000000REP       Comptroller of Public Accounts                          UNDER VOTES                           PRECINCT 1                                             01 
01100030002000000REP       Comptroller of Public Accounts                          UNDER VOTES                           PRECINCT 2                                             01 
01100030003000000REP       Comptroller of Public Accounts                          UNDER VOTES                           PRECINCT 3                                             01 
01100030004000000REP       Comptroller of Public Accounts                          UNDER VOTES                           PRECINCT 4                                             01 
01100030005000000REP       Comptroller of Public Accounts                          UNDER VOTES                           PRECINCT 6                                             01 
01110010001000000REP       Commissioner of the General Land Office                 George P. Bush                        PRECINCT 1                                             01 
01110010002000000REP       Commissioner of the General Land Office                 George P. Bush                        PRECINCT 2                                             01 
01110010003000000REP       Commissioner of the General Land Office                 George P. Bush                        PRECINCT 3                                             01 
01110010004000000REP       Commissioner of the General Land Office                 George P. Bush                        PRECINCT 4                                             01 
01110010005000000REP       Commissioner of the General Land Office                 George P. Bush                        PRECINCT 6                                             01 
01110020001000000REP       Commissioner of the General Land Office                 Rick Range                            PRECINCT 1                                             01 
01110020002000000REP       Commissioner of the General Land Office                 Rick Range                            PRECINCT 2                                             01 
01110020003000000REP       Commissioner of the General Land Office                 Rick Range                            PRECINCT 3                                             01 
01110020004000000REP       Commissioner of the General Land Office                 Rick Range                            PRECINCT 4                                             01 
01110020005000000REP       Commissioner of the General Land Office                 Rick Range                            PRECINCT 6                                             01 
01110030001000000REP       Commissioner of the General Land Office                 Davey Edwards                         PRECINCT 1                                             01 
01110030002000000REP       Commissioner of the General Land Office                 Davey Edwards                         PRECINCT 2                                             01 
01110030003000000REP       Commissioner of the General Land Office                 Davey Edwards                         PRECINCT 3                                             01 
01110030004000000REP       Commissioner of the General Land Office                 Davey Edwards                         PRECINCT 4                                             01 
01110030005000000REP       Commissioner of the General Land Office                 Davey Edwards                         PRECINCT 6                                             01 
01110040001000000REP       Commissioner of the General Land Office                 Jerry Patterson                       PRECINCT 1                                             01 
01110040002000000REP       Commissioner of the General Land Office                 Jerry Patterson                       PRECINCT 2                                             01 
01110040003000000REP       Commissioner of the General Land Office                 Jerry Patterson                       PRECINCT 3                                             01 
01110040004000000REP       Commissioner of the General Land Office                 Jerry Patterson                       PRECINCT 4                                             01 
01110040005000000REP       Commissioner of the General Land Office                 Jerry Patterson                       PRECINCT 6                                             01 
01110050001000000REP       Commissioner of the General Land Office                 OVER VOTES                            PRECINCT 1                                             01 
01110050002000000REP       Commissioner of the General Land Office                 OVER VOTES                            PRECINCT 2                                             01 
01110050003000000REP       Commissioner of the General Land Office                 OVER VOTES                            PRECINCT 3                                             01 
01110050004000000REP       Commissioner of the General Land Office                 OVER VOTES                            PRECINCT 4                                             01 
01110050005000000REP       Commissioner of the General Land Office                 OVER VOTES                            PRECINCT 6                                             01 
01110060001000000REP       Commissioner of the General Land Office                 UNDER VOTES                           PRECINCT 1                                             01 
01110060002000000REP       Commissioner of the General Land Office                 UNDER VOTES                           PRECINCT 2                                             01 
01110060003000000REP       Commissioner of the General Land Office                 UNDER VOTES                           PRECINCT 3                                             01 
01110060004000000REP       Commissioner of the General Land Office                 UNDER VOTES                           PRECINCT 4                                             01 
01110060005000000REP       Commissioner of the General Land Office                 UNDER VOTES                           PRECINCT 6                                             01 
01120010001000000REP       Commissioner of Agriculture                             Trey Blocker                          PRECINCT 1                                             01 
01120010002000000REP       Commissioner of Agriculture                             Trey Blocker                          PRECINCT 2                                             01 
01120010003000000REP       Commissioner of Agriculture                             Trey Blocker                          PRECINCT 3                                             01 
01120010004000000REP       Commissioner of Agriculture                             Trey Blocker                          PRECINCT 4                                             01 
01120010005000000REP       Commissioner of Agriculture                             Trey Blocker                          PRECINCT 6                                             01 
01120020001000000REP       Commissioner of Agriculture                             Jim Hogan                             PRECINCT 1                                             01 
01120020002000000REP       Commissioner of Agriculture                             Jim Hogan                             PRECINCT 2                                             01 
01120020003000000REP       Commissioner of Agriculture                             Jim Hogan                             PRECINCT 3                                             01 
01120020004000000REP       Commissioner of Agriculture                             Jim Hogan                             PRECINCT 4                                             01 
01120020005000000REP       Commissioner of Agriculture                             Jim Hogan                             PRECINCT 6                                             01 
01120030001000000REP       Commissioner of Agriculture                             Sid Miller                            PRECINCT 1                                             01 
01120030002000000REP       Commissioner of Agriculture                             Sid Miller                            PRECINCT 2                                             01 
01120030003000000REP       Commissioner of Agriculture                             Sid Miller                            PRECINCT 3                                             01 
01120030004000000REP       Commissioner of Agriculture                             Sid Miller                            PRECINCT 4                                             01 
01120030005000000REP       Commissioner of Agriculture                             Sid Miller                            PRECINCT 6                                             01 
01120040001000000REP       Commissioner of Agriculture                             OVER VOTES                            PRECINCT 1                                             01 
01120040002000000REP       Commissioner of Agriculture                             OVER VOTES                            PRECINCT 2                                             01 
01120040003000000REP       Commissioner of Agriculture                             OVER VOTES                            PRECINCT 3                                             01 
01120040004000000REP       Commissioner of Agriculture                             OVER VOTES                            PRECINCT 4                                             01 
01120040005000000REP       Commissioner of Agriculture                             OVER VOTES                            PRECINCT 6                                             01 
01120050001000000REP       Commissioner of Agriculture                             UNDER VOTES                           PRECINCT 1                                             01 
01120050002000000REP       Commissioner of Agriculture                             UNDER VOTES                           PRECINCT 2                                             01 
01120050003000000REP       Commissioner of Agriculture                             UNDER VOTES                           PRECINCT 3                                             01 
01120050004000000REP       Commissioner of Agriculture                             UNDER VOTES                           PRECINCT 4                                             01 
01120050005000000REP       Commissioner of Agriculture                             UNDER VOTES                           PRECINCT 6                                             01 
01130010001000000REP       Railroad Commissioner                                   Christi Craddick                      PRECINCT 1                                             01 
01130010002000000REP       Railroad Commissioner                                   Christi Craddick                      PRECINCT 2                                             01 
01130010003000000REP       Railroad Commissioner                                   Christi Craddick                      PRECINCT 3                                             01 
01130010004000000REP       Railroad Commissioner                                   Christi Craddick                      PRECINCT 4                                             01 
01130010005000000REP       Railroad Commissioner                                   Christi Craddick                      PRECINCT 6                                             01 
01130020001000000REP       Railroad Commissioner                                   Weston Martinez                       PRECINCT 1                                             01 
01130020002000000REP       Railroad Commissioner                                   Weston Martinez                       PRECINCT 2                                             01 
01130020003000000REP       Railroad Commissioner                                   Weston Martinez                       PRECINCT 3                                             01 
01130020004000000REP       Railroad Commissioner                                   Weston Martinez                       PRECINCT 4                                             01 
01130020005000000REP       Railroad Commissioner                                   Weston Martinez                       PRECINCT 6                                             01 
01130030001000000REP       Railroad Commissioner                                   OVER VOTES                            PRECINCT 1                                             01 
01130030002000000REP       Railroad Commissioner                                   OVER VOTES                            PRECINCT 2                                             01 
01130030003000000REP       Railroad Commissioner                                   OVER VOTES                            PRECINCT 3                                             01 
01130030004000000REP       Railroad Commissioner                                   OVER VOTES                            PRECINCT 4                                             01 
01130030005000000REP       Railroad Commissioner                                   OVER VOTES                            PRECINCT 6                                             01 
01130040001000000REP       Railroad Commissioner                                   UNDER VOTES                           PRECINCT 1                                             01 
01130040002000000REP       Railroad Commissioner                                   UNDER VOTES                           PRECINCT 2                                             01 
01130040003000000REP       Railroad Commissioner                                   UNDER VOTES                           PRECINCT 3                                             01 
01130040004000000REP       Railroad Commissioner                                   UNDER VOTES                           PRECINCT 4                                             01 
01130040005000000REP       Railroad Commissioner                                   UNDER VOTES                           PRECINCT 6                                             01 
01140010001000000REP       Justice, Supreme Court, Place 2                         Jimmy Blacklock                       PRECINCT 1                                             01 
01140010002000000REP       Justice, Supreme Court, Place 2                         Jimmy Blacklock                       PRECINCT 2                                             01 
01140010003000000REP       Justice, Supreme Court, Place 2                         Jimmy Blacklock                       PRECINCT 3                                             01 
01140010004000000REP       Justice, Supreme Court, Place 2                         Jimmy Blacklock                       PRECINCT 4                                             01 
01140010005000000REP       Justice, Supreme Court, Place 2                         Jimmy Blacklock                       PRECINCT 6                                             01 
01140020001000000REP       Justice, Supreme Court, Place 2                         OVER VOTES                            PRECINCT 1                                             01 
01140020002000000REP       Justice, Supreme Court, Place 2                         OVER VOTES                            PRECINCT 2                                             01 
01140020003000000REP       Justice, Supreme Court, Place 2                         OVER VOTES                            PRECINCT 3                                             01 
01140020004000000REP       Justice, Supreme Court, Place 2                         OVER VOTES                            PRECINCT 4                                             01 
01140020005000000REP       Justice, Supreme Court, Place 2                         OVER VOTES                            PRECINCT 6                                             01 
01140030001000000REP       Justice, Supreme Court, Place 2                         UNDER VOTES                           PRECINCT 1                                             01 
01140030002000000REP       Justice, Supreme Court, Place 2                         UNDER VOTES                           PRECINCT 2                                             01 
01140030003000000REP       Justice, Supreme Court, Place 2                         UNDER VOTES                           PRECINCT 3                                             01 
01140030004000000REP       Justice, Supreme Court, Place 2                         UNDER VOTES                           PRECINCT 4                                             01 
01140030005000000REP       Justice, Supreme Court, Place 2                         UNDER VOTES                           PRECINCT 6                                             01 
01150010001000000REP       Justice, Supreme Court, Place 4                         John Devine                           PRECINCT 1                                             01 
01150010002000000REP       Justice, Supreme Court, Place 4                         John Devine                           PRECINCT 2                                             01 
01150010003000000REP       Justice, Supreme Court, Place 4                         John Devine                           PRECINCT 3                                             01 
01150010004000000REP       Justice, Supreme Court, Place 4                         John Devine                           PRECINCT 4                                             01 
01150010005000000REP       Justice, Supreme Court, Place 4                         John Devine                           PRECINCT 6                                             01 
01150020001000000REP       Justice, Supreme Court, Place 4                         OVER VOTES                            PRECINCT 1                                             01 
01150020002000000REP       Justice, Supreme Court, Place 4                         OVER VOTES                            PRECINCT 2                                             01 
01150020003000000REP       Justice, Supreme Court, Place 4                         OVER VOTES                            PRECINCT 3                                             01 
01150020004000000REP       Justice, Supreme Court, Place 4                         OVER VOTES                            PRECINCT 4                                             01 
01150020005000000REP       Justice, Supreme Court, Place 4                         OVER VOTES                            PRECINCT 6                                             01 
01150030001000000REP       Justice, Supreme Court, Place 4                         UNDER VOTES                           PRECINCT 1                                             01 
01150030002000000REP       Justice, Supreme Court, Place 4                         UNDER VOTES                           PRECINCT 2                                             01 
01150030003000000REP       Justice, Supreme Court, Place 4                         UNDER VOTES                           PRECINCT 3                                             01 
01150030004000000REP       Justice, Supreme Court, Place 4                         UNDER VOTES                           PRECINCT 4                                             01 
01150030005000000REP       Justice, Supreme Court, Place 4                         UNDER VOTES                           PRECINCT 6                                             01 
01160010001000000REP       Supreme Court, Place 6                                  Jeff Brown                            PRECINCT 1                                             01 
01160010002000000REP       Supreme Court, Place 6                                  Jeff Brown                            PRECINCT 2                                             01 
01160010003000000REP       Supreme Court, Place 6                                  Jeff Brown                            PRECINCT 3                                             01 
01160010004000000REP       Supreme Court, Place 6                                  Jeff Brown                            PRECINCT 4                                             01 
01160010005000000REP       Supreme Court, Place 6                                  Jeff Brown                            PRECINCT 6                                             01 
01160020001000000REP       Supreme Court, Place 6                                  OVER VOTES                            PRECINCT 1                                             01 
01160020002000000REP       Supreme Court, Place 6                                  OVER VOTES                            PRECINCT 2                                             01 
01160020003000000REP       Supreme Court, Place 6                                  OVER VOTES                            PRECINCT 3                                             01 
01160020004000000REP       Supreme Court, Place 6                                  OVER VOTES                            PRECINCT 4                                             01 
01160020005000000REP       Supreme Court, Place 6                                  OVER VOTES                            PRECINCT 6                                             01 
01160030001000000REP       Supreme Court, Place 6                                  UNDER VOTES                           PRECINCT 1                                             01 
01160030002000000REP       Supreme Court, Place 6                                  UNDER VOTES                           PRECINCT 2                                             01 
01160030003000000REP       Supreme Court, Place 6                                  UNDER VOTES                           PRECINCT 3                                             01 
01160030004000000REP       Supreme Court, Place 6                                  UNDER VOTES                           PRECINCT 4                                             01 
01160030005000000REP       Supreme Court, Place 6                                  UNDER VOTES                           PRECINCT 6                                             01 
01170010001000000REP       Presiding Judge, Court of Crim Appeals                  David Bridges                         PRECINCT 1                                             01 
01170010002000000REP       Presiding Judge, Court of Crim Appeals                  David Bridges                         PRECINCT 2                                             01 
01170010003000000REP       Presiding Judge, Court of Crim Appeals                  David Bridges                         PRECINCT 3                                             01 
01170010004000000REP       Presiding Judge, Court of Crim Appeals                  David Bridges                         PRECINCT 4                                             01 
01170010005000000REP       Presiding Judge, Court of Crim Appeals                  David Bridges                         PRECINCT 6                                             01 
01170020001000000REP       Presiding Judge, Court of Crim Appeals                  Sharon Keller                         PRECINCT 1                                             01 
01170020002000000REP       Presiding Judge, Court of Crim Appeals                  Sharon Keller                         PRECINCT 2                                             01 
01170020003000000REP       Presiding Judge, Court of Crim Appeals                  Sharon Keller                         PRECINCT 3                                             01 
01170020004000000REP       Presiding Judge, Court of Crim Appeals                  Sharon Keller                         PRECINCT 4                                             01 
01170020005000000REP       Presiding Judge, Court of Crim Appeals                  Sharon Keller                         PRECINCT 6                                             01 
01170030001000000REP       Presiding Judge, Court of Crim Appeals                  OVER VOTES                            PRECINCT 1                                             01 
01170030002000000REP       Presiding Judge, Court of Crim Appeals                  OVER VOTES                            PRECINCT 2                                             01 
01170030003000000REP       Presiding Judge, Court of Crim Appeals                  OVER VOTES                            PRECINCT 3                                             01 
01170030004000000REP       Presiding Judge, Court of Crim Appeals                  OVER VOTES                            PRECINCT 4                                             01 
01170030005000000REP       Presiding Judge, Court of Crim Appeals                  OVER VOTES                            PRECINCT 6                                             01 
01170040001000000REP       Presiding Judge, Court of Crim Appeals                  UNDER VOTES                           PRECINCT 1                                             01 
01170040002000000REP       Presiding Judge, Court of Crim Appeals                  UNDER VOTES                           PRECINCT 2                                             01 
01170040003000000REP       Presiding Judge, Court of Crim Appeals                  UNDER VOTES                           PRECINCT 3                                             01 
01170040004000000REP       Presiding Judge, Court of Crim Appeals                  UNDER VOTES                           PRECINCT 4                                             01 
01170040005000000REP       Presiding Judge, Court of Crim Appeals                  UNDER VOTES                           PRECINCT 6                                             01 
01180010001000000REP       Judge, CT of Criminal AP, P7                            Barbara Parker Hervey                 PRECINCT 1                                             01 
01180010002000000REP       Judge, CT of Criminal AP, P7                            Barbara Parker Hervey                 PRECINCT 2                                             01 
01180010003000000REP       Judge, CT of Criminal AP, P7                            Barbara Parker Hervey                 PRECINCT 3                                             01 
01180010004000000REP       Judge, CT of Criminal AP, P7                            Barbara Parker Hervey                 PRECINCT 4                                             01 
01180010005000000REP       Judge, CT of Criminal AP, P7                            Barbara Parker Hervey                 PRECINCT 6                                             01 
01180020001000000REP       Judge, CT of Criminal AP, P7                            OVER VOTES                            PRECINCT 1                                             01 
01180020002000000REP       Judge, CT of Criminal AP, P7                            OVER VOTES                            PRECINCT 2                                             01 
01180020003000000REP       Judge, CT of Criminal AP, P7                            OVER VOTES                            PRECINCT 3                                             01 
01180020004000000REP       Judge, CT of Criminal AP, P7                            OVER VOTES                            PRECINCT 4                                             01 
01180020005000000REP       Judge, CT of Criminal AP, P7                            OVER VOTES                            PRECINCT 6                                             01 
01180030001000000REP       Judge, CT of Criminal AP, P7                            UNDER VOTES                           PRECINCT 1                                             01 
01180030002000000REP       Judge, CT of Criminal AP, P7                            UNDER VOTES                           PRECINCT 2                                             01 
01180030003000000REP       Judge, CT of Criminal AP, P7                            UNDER VOTES                           PRECINCT 3                                             01 
01180030004000000REP       Judge, CT of Criminal AP, P7                            UNDER VOTES                           PRECINCT 4                                             01 
01180030005000000REP       Judge, CT of Criminal AP, P7                            UNDER VOTES                           PRECINCT 6                                             01 
01190010001000000REP       Judge, CT of Criminal AP, P8                            Michelle Slaughter                    PRECINCT 1                                             01 
01190010002000000REP       Judge, CT of Criminal AP, P8                            Michelle Slaughter                    PRECINCT 2                                             01 
01190010003000000REP       Judge, CT of Criminal AP, P8                            Michelle Slaughter                    PRECINCT 3                                             01 
01190010004000000REP       Judge, CT of Criminal AP, P8                            Michelle Slaughter                    PRECINCT 4                                             01 
01190010005000000REP       Judge, CT of Criminal AP, P8                            Michelle Slaughter                    PRECINCT 6                                             01 
01190020001000000REP       Judge, CT of Criminal AP, P8                            Jay Brandon                           PRECINCT 1                                             01 
01190020002000000REP       Judge, CT of Criminal AP, P8                            Jay Brandon                           PRECINCT 2                                             01 
01190020003000000REP       Judge, CT of Criminal AP, P8                            Jay Brandon                           PRECINCT 3                                             01 
01190020004000000REP       Judge, CT of Criminal AP, P8                            Jay Brandon                           PRECINCT 4                                             01 
01190020005000000REP       Judge, CT of Criminal AP, P8                            Jay Brandon                           PRECINCT 6                                             01 
01190030001000000REP       Judge, CT of Criminal AP, P8                            Dib Waldrip                           PRECINCT 1                                             01 
01190030002000000REP       Judge, CT of Criminal AP, P8                            Dib Waldrip                           PRECINCT 2                                             01 
01190030003000000REP       Judge, CT of Criminal AP, P8                            Dib Waldrip                           PRECINCT 3                                             01 
01190030004000000REP       Judge, CT of Criminal AP, P8                            Dib Waldrip                           PRECINCT 4                                             01 
01190030005000000REP       Judge, CT of Criminal AP, P8                            Dib Waldrip                           PRECINCT 6                                             01 
01190040001000000REP       Judge, CT of Criminal AP, P8                            OVER VOTES                            PRECINCT 1                                             01 
01190040002000000REP       Judge, CT of Criminal AP, P8                            OVER VOTES                            PRECINCT 2                                             01 
01190040003000000REP       Judge, CT of Criminal AP, P8                            OVER VOTES                            PRECINCT 3                                             01 
01190040004000000REP       Judge, CT of Criminal AP, P8                            OVER VOTES                            PRECINCT 4                                             01 
01190040005000000REP       Judge, CT of Criminal AP, P8                            OVER VOTES                            PRECINCT 6                                             01 
01190050001000000REP       Judge, CT of Criminal AP, P8                            UNDER VOTES                           PRECINCT 1                                             01 
01190050002000000REP       Judge, CT of Criminal AP, P8                            UNDER VOTES                           PRECINCT 2                                             01 
01190050003000000REP       Judge, CT of Criminal AP, P8                            UNDER VOTES                           PRECINCT 3                                             01 
01190050004000000REP       Judge, CT of Criminal AP, P8                            UNDER VOTES                           PRECINCT 4                                             01 
01190050005000000REP       Judge, CT of Criminal AP, P8                            UNDER VOTES                           PRECINCT 6                                             01 
01200010001000000REP       State Senator, District 31                              Kel Seliger                           PRECINCT 1                                             01 
01200010002000000REP       State Senator, District 31                              Kel Seliger                           PRECINCT 2                                             01 
01200010003000000REP       State Senator, District 31                              Kel Seliger                           PRECINCT 3                                             01 
01200010004000000REP       State Senator, District 31                              Kel Seliger                           PRECINCT 4                                             01 
01200010005000000REP       State Senator, District 31                              Kel Seliger                           PRECINCT 6                                             01 
01200020001000000REP       State Senator, District 31                              Victor Leal                           PRECINCT 1                                             01 
01200020002000000REP       State Senator, District 31                              Victor Leal                           PRECINCT 2                                             01 
01200020003000000REP       State Senator, District 31                              Victor Leal                           PRECINCT 3                                             01 
01200020004000000REP       State Senator, District 31                              Victor Leal                           PRECINCT 4                                             01 
01200020005000000REP       State Senator, District 31                              Victor Leal                           PRECINCT 6                                             01 
01200030001000000REP       State Senator, District 31                              Mike Canon                            PRECINCT 1                                             01 
01200030002000000REP       State Senator, District 31                              Mike Canon                            PRECINCT 2                                             01 
01200030003000000REP       State Senator, District 31                              Mike Canon                            PRECINCT 3                                             01 
01200030004000000REP       State Senator, District 31                              Mike Canon                            PRECINCT 4                                             01 
01200030005000000REP       State Senator, District 31                              Mike Canon                            PRECINCT 6                                             01 
01200040001000000REP       State Senator, District 31                              OVER VOTES                            PRECINCT 1                                             01 
01200040002000000REP       State Senator, District 31                              OVER VOTES                            PRECINCT 2                                             01 
01200040003000000REP       State Senator, District 31                              OVER VOTES                            PRECINCT 3                                             01 
01200040004000000REP       State Senator, District 31                              OVER VOTES                            PRECINCT 4                                             01 
01200040005000000REP       State Senator, District 31                              OVER VOTES                            PRECINCT 6                                             01 
01200050001000000REP       State Senator, District 31                              UNDER VOTES                           PRECINCT 1                                             01 
01200050002000000REP       State Senator, District 31                              UNDER VOTES                           PRECINCT 2                                             01 
01200050003000000REP       State Senator, District 31                              UNDER VOTES                           PRECINCT 3                                             01 
01200050004000000REP       State Senator, District 31                              UNDER VOTES                           PRECINCT 4                                             01 
01200050005000000REP       State Senator, District 31                              UNDER VOTES                           PRECINCT 6                                             01 
01210010001000000REP       State Representative, District 88                       Jason Huddleston                      PRECINCT 1                                             01 
01210010002000000REP       State Representative, District 88                       Jason Huddleston                      PRECINCT 2                                             01 
01210010003000000REP       State Representative, District 88                       Jason Huddleston                      PRECINCT 3                                             01 
01210010004000000REP       State Representative, District 88                       Jason Huddleston                      PRECINCT 4                                             01 
01210010005000000REP       State Representative, District 88                       Jason Huddleston                      PRECINCT 6                                             01 
01210020001000000REP       State Representative, District 88                       Richard Beyea                         PRECINCT 1                                             01 
01210020002000000REP       State Representative, District 88                       Richard Beyea                         PRECINCT 2                                             01 
01210020003000000REP       State Representative, District 88                       Richard Beyea                         PRECINCT 3                                             01 
01210020004000000REP       State Representative, District 88                       Richard Beyea                         PRECINCT 4                                             01 
01210020005000000REP       State Representative, District 88                       Richard Beyea                         PRECINCT 6                                             01 
01210030001000000REP       State Representative, District 88                       Ken King                              PRECINCT 1                                             01 
01210030002000000REP       State Representative, District 88                       Ken King                              PRECINCT 2                                             01 
01210030003000000REP       State Representative, District 88                       Ken King                              PRECINCT 3                                             01 
01210030004000000REP       State Representative, District 88                       Ken King                              PRECINCT 4                                             01 
01210030005000000REP       State Representative, District 88                       Ken King                              PRECINCT 6                                             01 
01210040001000000REP       State Representative, District 88                       OVER VOTES                            PRECINCT 1                                             01 
01210040002000000REP       State Representative, District 88                       OVER VOTES                            PRECINCT 2                                             01 
01210040003000000REP       State Representative, District 88                       OVER VOTES                            PRECINCT 3                                             01 
01210040004000000REP       State Representative, District 88                       OVER VOTES                            PRECINCT 4                                             01 
01210040005000000REP       State Representative, District 88                       OVER VOTES                            PRECINCT 6                                             01 
01210050001000000REP       State Representative, District 88                       UNDER VOTES                           PRECINCT 1                                             01 
01210050002000000REP       State Representative, District 88                       UNDER VOTES                           PRECINCT 2                                             01 
01210050003000000REP       State Representative, District 88                       UNDER VOTES                           PRECINCT 3                                             01 
01210050004000000REP       State Representative, District 88                       UNDER VOTES                           PRECINCT 4                                             01 
01210050005000000REP       State Representative, District 88                       UNDER VOTES                           PRECINCT 6                                             01 
01220010001000000REP       Appeals Court Justice DIST 7, P2                        Judy Parker                           PRECINCT 1                                             01 
01220010002000000REP       Appeals Court Justice DIST 7, P2                        Judy Parker                           PRECINCT 2                                             01 
01220010003000000REP       Appeals Court Justice DIST 7, P2                        Judy Parker                           PRECINCT 3                                             01 
01220010004000000REP       Appeals Court Justice DIST 7, P2                        Judy Parker                           PRECINCT 4                                             01 
01220010005000000REP       Appeals Court Justice DIST 7, P2                        Judy Parker                           PRECINCT 6                                             01 
01220020001000000REP       Appeals Court Justice DIST 7, P2                        OVER VOTES                            PRECINCT 1                                             01 
01220020002000000REP       Appeals Court Justice DIST 7, P2                        OVER VOTES                            PRECINCT 2                                             01 
01220020003000000REP       Appeals Court Justice DIST 7, P2                        OVER VOTES                            PRECINCT 3                                             01 
01220020004000000REP       Appeals Court Justice DIST 7, P2                        OVER VOTES                            PRECINCT 4                                             01 
01220020005000000REP       Appeals Court Justice DIST 7, P2                        OVER VOTES                            PRECINCT 6                                             01 
01220030001000000REP       Appeals Court Justice DIST 7, P2                        UNDER VOTES                           PRECINCT 1                                             01 
01220030002000000REP       Appeals Court Justice DIST 7, P2                        UNDER VOTES                           PRECINCT 2                                             01 
01220030003000000REP       Appeals Court Justice DIST 7, P2                        UNDER VOTES                           PRECINCT 3                                             01 
01220030004000000REP       Appeals Court Justice DIST 7, P2                        UNDER VOTES                           PRECINCT 4                                             01 
01220030005000000REP       Appeals Court Justice DIST 7, P2                        UNDER VOTES                           PRECINCT 6                                             01 
01230010001000000REP       Appeals Court Justice DIST 7, P3                        Pat Pirtle                            PRECINCT 1                                             01 
01230010002000000REP       Appeals Court Justice DIST 7, P3                        Pat Pirtle                            PRECINCT 2                                             01 
01230010003000000REP       Appeals Court Justice DIST 7, P3                        Pat Pirtle                            PRECINCT 3                                             01 
01230010004000000REP       Appeals Court Justice DIST 7, P3                        Pat Pirtle                            PRECINCT 4                                             01 
01230010005000000REP       Appeals Court Justice DIST 7, P3                        Pat Pirtle                            PRECINCT 6                                             01 
01230020001000000REP       Appeals Court Justice DIST 7, P3                        OVER VOTES                            PRECINCT 1                                             01 
01230020002000000REP       Appeals Court Justice DIST 7, P3                        OVER VOTES                            PRECINCT 2                                             01 
01230020003000000REP       Appeals Court Justice DIST 7, P3                        OVER VOTES                            PRECINCT 3                                             01 
01230020004000000REP       Appeals Court Justice DIST 7, P3                        OVER VOTES                            PRECINCT 4                                             01 
01230020005000000REP       Appeals Court Justice DIST 7, P3                        OVER VOTES                            PRECINCT 6                                             01 
01230030001000000REP       Appeals Court Justice DIST 7, P3                        UNDER VOTES                           PRECINCT 1                                             01 
01230030002000000REP       Appeals Court Justice DIST 7, P3                        UNDER VOTES                           PRECINCT 2                                             01 
01230030003000000REP       Appeals Court Justice DIST 7, P3                        UNDER VOTES                           PRECINCT 3                                             01 
01230030004000000REP       Appeals Court Justice DIST 7, P3                        UNDER VOTES                           PRECINCT 4                                             01 
01230030005000000REP       Appeals Court Justice DIST 7, P3                        UNDER VOTES                           PRECINCT 6                                             01 
01240010001000000REP       District Judge, 110th Judicial District                 William P. Smith                      PRECINCT 1                                             01 
01240010002000000REP       District Judge, 110th Judicial District                 William P. Smith                      PRECINCT 2                                             01 
01240010003000000REP       District Judge, 110th Judicial District                 William P. Smith                      PRECINCT 3                                             01 
01240010004000000REP       District Judge, 110th Judicial District                 William P. Smith                      PRECINCT 4                                             01 
01240010005000000REP       District Judge, 110th Judicial District                 William P. Smith                      PRECINCT 6                                             01 
01240020001000000REP       District Judge, 110th Judicial District                 OVER VOTES                            PRECINCT 1                                             01 
01240020002000000REP       District Judge, 110th Judicial District                 OVER VOTES                            PRECINCT 2                                             01 
01240020003000000REP       District Judge, 110th Judicial District                 OVER VOTES                            PRECINCT 3                                             01 
01240020004000000REP       District Judge, 110th Judicial District                 OVER VOTES                            PRECINCT 4                                             01 
01240020005000000REP       District Judge, 110th Judicial District                 OVER VOTES                            PRECINCT 6                                             01 
01240030001000000REP       District Judge, 110th Judicial District                 UNDER VOTES                           PRECINCT 1                                             01 
01240030002000000REP       District Judge, 110th Judicial District                 UNDER VOTES                           PRECINCT 2                                             01 
01240030003000000REP       District Judge, 110th Judicial District                 UNDER VOTES                           PRECINCT 3                                             01 
01240030004000000REP       District Judge, 110th Judicial District                 UNDER VOTES                           PRECINCT 4                                             01 
01240030005000000REP       District Judge, 110th Judicial District                 UNDER VOTES                           PRECINCT 6                                             01 
01250010001000000REP       County Judge                                            Wayne Nance                           PRECINCT 1                                             01 
01250010002000000REP       County Judge                                            Wayne Nance                           PRECINCT 2                                             01 
01250010003000000REP       County Judge                                            Wayne Nance                           PRECINCT 3                                             01 
01250010004000000REP       County Judge                                            Wayne Nance                           PRECINCT 4                                             01 
01250010005000000REP       County Judge                                            Wayne Nance                           PRECINCT 6                                             01 
01250020001000000REP       County Judge                                            Rick Hutsell                          PRECINCT 1                                             01 
01250020002000000REP       County Judge                                            Rick Hutsell                          PRECINCT 2                                             01 
01250020003000000REP       County Judge                                            Rick Hutsell                          PRECINCT 3                                             01 
01250020004000000REP       County Judge                                            Rick Hutsell                          PRECINCT 4                                             01 
01250020005000000REP       County Judge                                            Rick Hutsell                          PRECINCT 6                                             01 
01250030001000000REP       County Judge                                            OVER VOTES                            PRECINCT 1                                             01 
01250030002000000REP       County Judge                                            OVER VOTES                            PRECINCT 2                                             01 
01250030003000000REP       County Judge                                            OVER VOTES                            PRECINCT 3                                             01 
01250030004000000REP       County Judge                                            OVER VOTES                            PRECINCT 4                                             01 
01250030005000000REP       County Judge                                            OVER VOTES                            PRECINCT 6                                             01 
01250040001000000REP       County Judge                                            UNDER VOTES                           PRECINCT 1                                             01 
01250040002000000REP       County Judge                                            UNDER VOTES                           PRECINCT 2                                             01 
01250040003000000REP       County Judge                                            UNDER VOTES                           PRECINCT 3                                             01 
01250040004000000REP       County Judge                                            UNDER VOTES                           PRECINCT 4                                             01 
01250040005000000REP       County Judge                                            UNDER VOTES                           PRECINCT 6                                             01 
01260010001000000REP       District and County Clerk                               Bena Hester                           PRECINCT 1                                             01 
01260010002000000REP       District and County Clerk                               Bena Hester                           PRECINCT 2                                             01 
01260010003000000REP       District and County Clerk                               Bena Hester                           PRECINCT 3                                             01 
01260010004000000REP       District and County Clerk                               Bena Hester                           PRECINCT 4                                             01 
01260010005000000REP       District and County Clerk                               Bena Hester                           PRECINCT 6                                             01 
01260020001000000REP       District and County Clerk                               OVER VOTES                            PRECINCT 1                                             01 
01260020002000000REP       District and County Clerk                               OVER VOTES                            PRECINCT 2                                             01 
01260020003000000REP       District and County Clerk                               OVER VOTES                            PRECINCT 3                                             01 
01260020004000000REP       District and County Clerk                               OVER VOTES                            PRECINCT 4                                             01 
01260020005000000REP       District and County Clerk                               OVER VOTES                            PRECINCT 6                                             01 
01260030001000000REP       District and County Clerk                               UNDER VOTES                           PRECINCT 1                                             01 
01260030002000000REP       District and County Clerk                               UNDER VOTES                           PRECINCT 2                                             01 
01260030003000000REP       District and County Clerk                               UNDER VOTES                           PRECINCT 3                                             01 
01260030004000000REP       District and County Clerk                               UNDER VOTES                           PRECINCT 4                                             01 
01260030005000000REP       District and County Clerk                               UNDER VOTES                           PRECINCT 6                                             01 
01270010001000000REP       County Treasurer                                        Mary Jo Brannon                       PRECINCT 1                                             01 
01270010002000000REP       County Treasurer                                        Mary Jo Brannon                       PRECINCT 2                                             01 
01270010003000000REP       County Treasurer                                        Mary Jo Brannon                       PRECINCT 3                                             01 
01270010004000000REP       County Treasurer                                        Mary Jo Brannon                       PRECINCT 4                                             01 
01270010005000000REP       County Treasurer                                        Mary Jo Brannon                       PRECINCT 6                                             01 
01270020001000000REP       County Treasurer                                        OVER VOTES                            PRECINCT 1                                             01 
01270020002000000REP       County Treasurer                                        OVER VOTES                            PRECINCT 2                                             01 
01270020003000000REP       County Treasurer                                        OVER VOTES                            PRECINCT 3                                             01 
01270020004000000REP       County Treasurer                                        OVER VOTES                            PRECINCT 4                                             01 
01270020005000000REP       County Treasurer                                        OVER VOTES                            PRECINCT 6                                             01 
01270030001000000REP       County Treasurer                                        UNDER VOTES                           PRECINCT 1                                             01 
01270030002000000REP       County Treasurer                                        UNDER VOTES                           PRECINCT 2                                             01 
01270030003000000REP       County Treasurer                                        UNDER VOTES                           PRECINCT 3                                             01 
01270030004000000REP       County Treasurer                                        UNDER VOTES                           PRECINCT 4                                             01 
01270030005000000REP       County Treasurer                                        UNDER VOTES                           PRECINCT 6                                             01 
01280010002000000REP       County Commissioner, Precinct No. 2                     Jack Wellman                          PRECINCT 2                                             01 
01280020002000000REP       County Commissioner, Precinct No. 2                     Jimmy D. Messer                       PRECINCT 2                                             01 
01280030002000000REP       County Commissioner, Precinct No. 2                     OVER VOTES                            PRECINCT 2                                             01 
01280040002000000REP       County Commissioner, Precinct No. 2                     UNDER VOTES                           PRECINCT 2                                             01 
01290010004000000REP       County Commissioner, Precinct No. 4                     John Burson                           PRECINCT 4                                             01 
01290020004000000REP       County Commissioner, Precinct No. 4                     Rickey Minyard                        PRECINCT 4                                             01 
01290030004000000REP       County Commissioner, Precinct No. 4                     George Reed                           PRECINCT 4                                             01 
01290040004000000REP       County Commissioner, Precinct No. 4                     OVER VOTES                            PRECINCT 4                                             01 
01290050004000000REP       County Commissioner, Precinct No. 4                     UNDER VOTES                           PRECINCT 4                                             01 
01300010001000000REP       Justice of the Peace, Precinct No. 1                    H. B. Simpson                         PRECINCT 1                                             01 
01300010003000000REP       Justice of the Peace, Precinct No. 1                    H. B. Simpson                         PRECINCT 3                                             01 
01300010004000000REP       Justice of the Peace, Precinct No. 1                    H. B. Simpson                         PRECINCT 4                                             01 
01300020001000000REP       Justice of the Peace, Precinct No. 1                    OVER VOTES                            PRECINCT 1                                             01 
01300020003000000REP       Justice of the Peace, Precinct No. 1                    OVER VOTES                            PRECINCT 3                                             01 
01300020004000000REP       Justice of the Peace, Precinct No. 1                    OVER VOTES                            PRECINCT 4                                             01 
01300030001000000REP       Justice of the Peace, Precinct No. 1                    UNDER VOTES                           PRECINCT 1                                             01 
01300030003000000REP       Justice of the Peace, Precinct No. 1                    UNDER VOTES                           PRECINCT 3                                             01 
01300030004000000REP       Justice of the Peace, Precinct No. 1                    UNDER VOTES                           PRECINCT 4                                             01 
01310010002000000REP       Justice of the Peace, Precinct No. 2                    Dale Ramsey                           PRECINCT 2                                             01 
01310010005000000REP       Justice of the Peace, Precinct No. 2                    Dale Ramsey                           PRECINCT 6                                             01 
01310020002000000REP       Justice of the Peace, Precinct No. 2                    OVER VOTES                            PRECINCT 2                                             01 
01310020005000000REP       Justice of the Peace, Precinct No. 2                    OVER VOTES                            PRECINCT 6                                             01 
01310030002000000REP       Justice of the Peace, Precinct No. 2                    UNDER VOTES                           PRECINCT 2                                             01 
01310030005000000REP       Justice of the Peace, Precinct No. 2                    UNDER VOTES                           PRECINCT 6                                             01 
01320010001000000DEM       United States Senator                                   Beto O'Rourke                         PRECINCT 1                                             01 
01320010002000000DEM       United States Senator                                   Beto O'Rourke                         PRECINCT 2                                             01 
01320010003000000DEM       United States Senator                                   Beto O'Rourke                         PRECINCT 3                                             01 
01320010004000000DEM       United States Senator                                   Beto O'Rourke                         PRECINCT 4                                             01 
01320010005000000DEM       United States Senator                                   Beto O'Rourke                         PRECINCT 6                                             01 
01320020001000000DEM       United States Senator                                   Sema Hernandez                        PRECINCT 1                                             01 
01320020002000000DEM       United States Senator                                   Sema Hernandez                        PRECINCT 2                                             01 
01320020003000000DEM       United States Senator                                   Sema Hernandez                        PRECINCT 3                                             01 
01320020004000000DEM       United States Senator                                   Sema Hernandez                        PRECINCT 4                                             01 
01320020005000000DEM       United States Senator                                   Sema Hernandez                        PRECINCT 6                                             01 
01320030001000000DEM       United States Senator                                   Edward Kimbrough                      PRECINCT 1                                             01 
01320030002000000DEM       United States Senator                                   Edward Kimbrough                      PRECINCT 2                                             01 
01320030003000000DEM       United States Senator                                   Edward Kimbrough                      PRECINCT 3                                             01 
01320030004000000DEM       United States Senator                                   Edward Kimbrough                      PRECINCT 4                                             01 
01320030005000000DEM       United States Senator                                   Edward Kimbrough                      PRECINCT 6                                             01 
01320040001000000DEM       United States Senator                                   OVER VOTES                            PRECINCT 1                                             01 
01320040002000000DEM       United States Senator                                   OVER VOTES                            PRECINCT 2                                             01 
01320040003000000DEM       United States Senator                                   OVER VOTES                            PRECINCT 3                                             01 
01320040004000000DEM       United States Senator                                   OVER VOTES                            PRECINCT 4                                             01 
01320040005000000DEM       United States Senator                                   OVER VOTES                            PRECINCT 6                                             01 
01320050001000000DEM       United States Senator                                   UNDER VOTES                           PRECINCT 1                                             01 
01320050002000000DEM       United States Senator                                   UNDER VOTES                           PRECINCT 2                                             01 
01320050003000000DEM       United States Senator                                   UNDER VOTES                           PRECINCT 3                                             01 
01320050004000000DEM       United States Senator                                   UNDER VOTES                           PRECINCT 4                                             01 
01320050005000000DEM       United States Senator                                   UNDER VOTES                           PRECINCT 6                                             01 
01330010001000000DEM       United States Representative, Dist 13                   Greg Sagan                            PRECINCT 1                                             01 
01330010002000000DEM       United States Representative, Dist 13                   Greg Sagan                            PRECINCT 2                                             01 
01330010003000000DEM       United States Representative, Dist 13                   Greg Sagan                            PRECINCT 3                                             01 
01330010004000000DEM       United States Representative, Dist 13                   Greg Sagan                            PRECINCT 4                                             01 
01330010005000000DEM       United States Representative, Dist 13                   Greg Sagan                            PRECINCT 6                                             01 
01330020001000000DEM       United States Representative, Dist 13                   OVER VOTES                            PRECINCT 1                                             01 
01330020002000000DEM       United States Representative, Dist 13                   OVER VOTES                            PRECINCT 2                                             01 
01330020003000000DEM       United States Representative, Dist 13                   OVER VOTES                            PRECINCT 3                                             01 
01330020004000000DEM       United States Representative, Dist 13                   OVER VOTES                            PRECINCT 4                                             01 
01330020005000000DEM       United States Representative, Dist 13                   OVER VOTES                            PRECINCT 6                                             01 
01330030001000000DEM       United States Representative, Dist 13                   UNDER VOTES                           PRECINCT 1                                             01 
01330030002000000DEM       United States Representative, Dist 13                   UNDER VOTES                           PRECINCT 2                                             01 
01330030003000000DEM       United States Representative, Dist 13                   UNDER VOTES                           PRECINCT 3                                             01 
01330030004000000DEM       United States Representative, Dist 13                   UNDER VOTES                           PRECINCT 4                                             01 
01330030005000000DEM       United States Representative, Dist 13                   UNDER VOTES                           PRECINCT 6                                             01 
01340010001000000DEM       Governor                                                Tom Wakely                            PRECINCT 1                                             01 
01340010002000000DEM       Governor                                                Tom Wakely                            PRECINCT 2                                             01 
01340010003000000DEM       Governor                                                Tom Wakely                            PRECINCT 3                                             01 
01340010004000000DEM       Governor                                                Tom Wakely                            PRECINCT 4                                             01 
01340010005000000DEM       Governor                                                Tom Wakely                            PRECINCT 6                                             01 
01340020001000000DEM       Governor                                                Joe Mumbach                           PRECINCT 1                                             01 
01340020002000000DEM       Governor                                                Joe Mumbach                           PRECINCT 2                                             01 
01340020003000000DEM       Governor                                                Joe Mumbach                           PRECINCT 3                                             01 
01340020004000000DEM       Governor                                                Joe Mumbach                           PRECINCT 4                                             01 
01340020005000000DEM       Governor                                                Joe Mumbach                           PRECINCT 6                                             01 
01340030001000000DEM       Governor                                                Jeffrey Payne                         PRECINCT 1                                             01 
01340030002000000DEM       Governor                                                Jeffrey Payne                         PRECINCT 2                                             01 
01340030003000000DEM       Governor                                                Jeffrey Payne                         PRECINCT 3                                             01 
01340030004000000DEM       Governor                                                Jeffrey Payne                         PRECINCT 4                                             01 
01340030005000000DEM       Governor                                                Jeffrey Payne                         PRECINCT 6                                             01 
01340040001000000DEM       Governor                                                Andrew White                          PRECINCT 1                                             01 
01340040002000000DEM       Governor                                                Andrew White                          PRECINCT 2                                             01 
01340040003000000DEM       Governor                                                Andrew White                          PRECINCT 3                                             01 
01340040004000000DEM       Governor                                                Andrew White                          PRECINCT 4                                             01 
01340040005000000DEM       Governor                                                Andrew White                          PRECINCT 6                                             01 
01340050001000000DEM       Governor                                                Lupe Valdez                           PRECINCT 1                                             01 
01340050002000000DEM       Governor                                                Lupe Valdez                           PRECINCT 2                                             01 
01340050003000000DEM       Governor                                                Lupe Valdez                           PRECINCT 3                                             01 
