01050010001000005REP       United States Senator                                   Geraldine Sam                         Precinct 1                                             01 
01050010002000006REP       United States Senator                                   Geraldine Sam                         Precinct 2                                             01 
01050010003000005REP       United States Senator                                   Geraldine Sam                         Precinct 3                                             01 
01050010004000004REP       United States Senator                                   Geraldine Sam                         Precinct 4                                             01 
01050020001000225REP       United States Senator                                   Ted Cruz                              Precinct 1                                             01 
01050020002000205REP       United States Senator                                   Ted Cruz                              Precinct 2                                             01 
01050020003000103REP       United States Senator                                   Ted Cruz                              Precinct 3                                             01 
01050020004000130REP       United States Senator                                   Ted Cruz                              Precinct 4                                             01 
01050030001000003REP       United States Senator                                   Stefano de Stefano                    Precinct 1                                             01 
01050030002000005REP       United States Senator                                   Stefano de Stefano                    Precinct 2                                             01 
01050030003000008REP       United States Senator                                   Stefano de Stefano                    Precinct 3                                             01 
01050030004000005REP       United States Senator                                   Stefano de Stefano                    Precinct 4                                             01 
01050040001000012REP       United States Senator                                   Bruce Jacobson, Jr.                   Precinct 1                                             01 
01050040002000008REP       United States Senator                                   Bruce Jacobson, Jr.                   Precinct 2                                             01 
01050040003000011REP       United States Senator                                   Bruce Jacobson, Jr.                   Precinct 3                                             01 
01050040004000008REP       United States Senator                                   Bruce Jacobson, Jr.                   Precinct 4                                             01 
01050050001000013REP       United States Senator                                   Mary Miller                           Precinct 1                                             01 
01050050002000014REP       United States Senator                                   Mary Miller                           Precinct 2                                             01 
01050050003000011REP       United States Senator                                   Mary Miller                           Precinct 3                                             01 
01050050004000011REP       United States Senator                                   Mary Miller                           Precinct 4                                             01 
01050060001000000REP       United States Senator                                   OVER VOTES                            Precinct 1                                             01 
01050060002000000REP       United States Senator                                   OVER VOTES                            Precinct 2                                             01 
01050060003000000REP       United States Senator                                   OVER VOTES                            Precinct 3                                             01 
01050060004000000REP       United States Senator                                   OVER VOTES                            Precinct 4                                             01 
01050070001000023REP       United States Senator                                   UNDER VOTES                           Precinct 1                                             01 
01050070002000029REP       United States Senator                                   UNDER VOTES                           Precinct 2                                             01 
01050070003000020REP       United States Senator                                   UNDER VOTES                           Precinct 3                                             01 
01050070004000014REP       United States Senator                                   UNDER VOTES                           Precinct 4                                             01 
01060010001000186REP       United States Representative, Dist 23                   Will Hurd                             Precinct 1                                             01 
01060010002000172REP       United States Representative, Dist 23                   Will Hurd                             Precinct 2                                             01 
01060010003000083REP       United States Representative, Dist 23                   Will Hurd                             Precinct 3                                             01 
01060010004000113REP       United States Representative, Dist 23                   Will Hurd                             Precinct 4                                             01 
01060020001000057REP       United States Representative, Dist 23                   Alma Arredondo-Lynch                  Precinct 1                                             01 
01060020002000055REP       United States Representative, Dist 23                   Alma Arredondo-Lynch                  Precinct 2                                             01 
01060020003000045REP       United States Representative, Dist 23                   Alma Arredondo-Lynch                  Precinct 3                                             01 
01060020004000031REP       United States Representative, Dist 23                   Alma Arredondo-Lynch                  Precinct 4                                             01 
01060030001000000REP       United States Representative, Dist 23                   OVER VOTES                            Precinct 1                                             01 
01060030002000000REP       United States Representative, Dist 23                   OVER VOTES                            Precinct 2                                             01 
01060030003000000REP       United States Representative, Dist 23                   OVER VOTES                            Precinct 3                                             01 
01060030004000000REP       United States Representative, Dist 23                   OVER VOTES                            Precinct 4                                             01 
01060040001000038REP       United States Representative, Dist 23                   UNDER VOTES                           Precinct 1                                             01 
01060040002000040REP       United States Representative, Dist 23                   UNDER VOTES                           Precinct 2                                             01 
01060040003000030REP       United States Representative, Dist 23                   UNDER VOTES                           Precinct 3                                             01 
01060040004000028REP       United States Representative, Dist 23                   UNDER VOTES                           Precinct 4                                             01 
01070010001000031REP       Governor                                                Barbara Krueger                       Precinct 1                                             01 
01070010002000025REP       Governor                                                Barbara Krueger                       Precinct 2                                             01 
01070010003000032REP       Governor                                                Barbara Krueger                       Precinct 3                                             01 
01070010004000021REP       Governor                                                Barbara Krueger                       Precinct 4                                             01 
01070020001000218REP       Governor                                                Greg Abbott                           Precinct 1                                             01 
01070020002000207REP       Governor                                                Greg Abbott                           Precinct 2                                             01 
01070020003000101REP       Governor                                                Greg Abbott                           Precinct 3                                             01 
01070020004000131REP       Governor                                                Greg Abbott                           Precinct 4                                             01 
01070030001000002REP       Governor                                                SECEDE Kilgore                        Precinct 1                                             01 
01070030002000011REP       Governor                                                SECEDE Kilgore                        Precinct 2                                             01 
01070030003000003REP       Governor                                                SECEDE Kilgore                        Precinct 3                                             01 
01070030004000003REP       Governor                                                SECEDE Kilgore                        Precinct 4                                             01 
01070040001000000REP       Governor                                                OVER VOTES                            Precinct 1                                             01 
01070040002000000REP       Governor                                                OVER VOTES                            Precinct 2                                             01 
01070040003000000REP       Governor                                                OVER VOTES                            Precinct 3                                             01 
01070040004000000REP       Governor                                                OVER VOTES                            Precinct 4                                             01 
01070050001000030REP       Governor                                                UNDER VOTES                           Precinct 1                                             01 
01070050002000024REP       Governor                                                UNDER VOTES                           Precinct 2                                             01 
01070050003000022REP       Governor                                                UNDER VOTES                           Precinct 3                                             01 
01070050004000017REP       Governor                                                UNDER VOTES                           Precinct 4                                             01 
01080010001000137REP       Lieutenant Governor                                     Dan Patrick                           Precinct 1                                             01 
01080010002000139REP       Lieutenant Governor                                     Dan Patrick                           Precinct 2                                             01 
01080010003000078REP       Lieutenant Governor                                     Dan Patrick                           Precinct 3                                             01 
01080010004000094REP       Lieutenant Governor                                     Dan Patrick                           Precinct 4                                             01 
01080020001000108REP       Lieutenant Governor                                     Scott Milder                          Precinct 1                                             01 
01080020002000089REP       Lieutenant Governor                                     Scott Milder                          Precinct 2                                             01 
01080020003000043REP       Lieutenant Governor                                     Scott Milder                          Precinct 3                                             01 
01080020004000058REP       Lieutenant Governor                                     Scott Milder                          Precinct 4                                             01 
01080030001000000REP       Lieutenant Governor                                     OVER VOTES                            Precinct 1                                             01 
01080030002000000REP       Lieutenant Governor                                     OVER VOTES                            Precinct 2                                             01 
01080030003000000REP       Lieutenant Governor                                     OVER VOTES                            Precinct 3                                             01 
01080030004000000REP       Lieutenant Governor                                     OVER VOTES                            Precinct 4                                             01 
01080040001000036REP       Lieutenant Governor                                     UNDER VOTES                           Precinct 1                                             01 
01080040002000039REP       Lieutenant Governor                                     UNDER VOTES                           Precinct 2                                             01 
01080040003000037REP       Lieutenant Governor                                     UNDER VOTES                           Precinct 3                                             01 
01080040004000020REP       Lieutenant Governor                                     UNDER VOTES                           Precinct 4                                             01 
01090010001000209REP       Attorney General                                        Ken Paxton                            Precinct 1                                             01 
01090010002000190REP       Attorney General                                        Ken Paxton                            Precinct 2                                             01 
01090010003000104REP       Attorney General                                        Ken Paxton                            Precinct 3                                             01 
01090010004000129REP       Attorney General                                        Ken Paxton                            Precinct 4                                             01 
01090020001000000REP       Attorney General                                        OVER VOTES                            Precinct 1                                             01 
01090020002000000REP       Attorney General                                        OVER VOTES                            Precinct 2                                             01 
01090020003000000REP       Attorney General                                        OVER VOTES                            Precinct 3                                             01 
01090020004000000REP       Attorney General                                        OVER VOTES                            Precinct 4                                             01 
01090030001000072REP       Attorney General                                        UNDER VOTES                           Precinct 1                                             01 
01090030002000077REP       Attorney General                                        UNDER VOTES                           Precinct 2                                             01 
01090030003000054REP       Attorney General                                        UNDER VOTES                           Precinct 3                                             01 
01090030004000043REP       Attorney General                                        UNDER VOTES                           Precinct 4                                             01 
01100010001000202REP       Comptroller of Public Accounts                          Glenn Hegar                           Precinct 1                                             01 
01100010002000183REP       Comptroller of Public Accounts                          Glenn Hegar                           Precinct 2                                             01 
01100010003000101REP       Comptroller of Public Accounts                          Glenn Hegar                           Precinct 3                                             01 
01100010004000121REP       Comptroller of Public Accounts                          Glenn Hegar                           Precinct 4                                             01 
01100020001000000REP       Comptroller of Public Accounts                          OVER VOTES                            Precinct 1                                             01 
01100020002000000REP       Comptroller of Public Accounts                          OVER VOTES                            Precinct 2                                             01 
01100020003000000REP       Comptroller of Public Accounts                          OVER VOTES                            Precinct 3                                             01 
01100020004000000REP       Comptroller of Public Accounts                          OVER VOTES                            Precinct 4                                             01 
01100030001000079REP       Comptroller of Public Accounts                          UNDER VOTES                           Precinct 1                                             01 
01100030002000084REP       Comptroller of Public Accounts                          UNDER VOTES                           Precinct 2                                             01 
01100030003000057REP       Comptroller of Public Accounts                          UNDER VOTES                           Precinct 3                                             01 
01100030004000051REP       Comptroller of Public Accounts                          UNDER VOTES                           Precinct 4                                             01 
01110010001000023REP       Commissioner of the General Land Office                 Rick Range                            Precinct 1                                             01 
01110010002000026REP       Commissioner of the General Land Office                 Rick Range                            Precinct 2                                             01 
01110010003000015REP       Commissioner of the General Land Office                 Rick Range                            Precinct 3                                             01 
01110010004000019REP       Commissioner of the General Land Office                 Rick Range                            Precinct 4                                             01 
01110020001000165REP       Commissioner of the General Land Office                 George P. Bush                        Precinct 1                                             01 
01110020002000132REP       Commissioner of the General Land Office                 George P. Bush                        Precinct 2                                             01 
01110020003000078REP       Commissioner of the General Land Office                 George P. Bush                        Precinct 3                                             01 
01110020004000094REP       Commissioner of the General Land Office                 George P. Bush                        Precinct 4                                             01 
01110030001000015REP       Commissioner of the General Land Office                 Davey Edwards                         Precinct 1                                             01 
01110030002000018REP       Commissioner of the General Land Office                 Davey Edwards                         Precinct 2                                             01 
01110030003000013REP       Commissioner of the General Land Office                 Davey Edwards                         Precinct 3                                             01 
01110030004000007REP       Commissioner of the General Land Office                 Davey Edwards                         Precinct 4                                             01 
01110040001000039REP       Commissioner of the General Land Office                 Jerry Patterson                       Precinct 1                                             01 
01110040002000042REP       Commissioner of the General Land Office                 Jerry Patterson                       Precinct 2                                             01 
01110040003000021REP       Commissioner of the General Land Office                 Jerry Patterson                       Precinct 3                                             01 
01110040004000018REP       Commissioner of the General Land Office                 Jerry Patterson                       Precinct 4                                             01 
01110050001000000REP       Commissioner of the General Land Office                 OVER VOTES                            Precinct 1                                             01 
01110050002000000REP       Commissioner of the General Land Office                 OVER VOTES                            Precinct 2                                             01 
01110050003000000REP       Commissioner of the General Land Office                 OVER VOTES                            Precinct 3                                             01 
01110050004000000REP       Commissioner of the General Land Office                 OVER VOTES                            Precinct 4                                             01 
01110060001000039REP       Commissioner of the General Land Office                 UNDER VOTES                           Precinct 1                                             01 
01110060002000049REP       Commissioner of the General Land Office                 UNDER VOTES                           Precinct 2                                             01 
01110060003000031REP       Commissioner of the General Land Office                 UNDER VOTES                           Precinct 3                                             01 
01110060004000034REP       Commissioner of the General Land Office                 UNDER VOTES                           Precinct 4                                             01 
01120010001000045REP       Commissioner of Agriculture                             Trey Blocker                          Precinct 1                                             01 
01120010002000055REP       Commissioner of Agriculture                             Trey Blocker                          Precinct 2                                             01 
01120010003000030REP       Commissioner of Agriculture                             Trey Blocker                          Precinct 3                                             01 
01120010004000030REP       Commissioner of Agriculture                             Trey Blocker                          Precinct 4                                             01 
01120020001000072REP       Commissioner of Agriculture                             Jim Hogan                             Precinct 1                                             01 
01120020002000081REP       Commissioner of Agriculture                             Jim Hogan                             Precinct 2                                             01 
01120020003000041REP       Commissioner of Agriculture                             Jim Hogan                             Precinct 3                                             01 
01120020004000054REP       Commissioner of Agriculture                             Jim Hogan                             Precinct 4                                             01 
01120030001000096REP       Commissioner of Agriculture                             Sid Miller                            Precinct 1                                             01 
01120030002000069REP       Commissioner of Agriculture                             Sid Miller                            Precinct 2                                             01 
01120030003000036REP       Commissioner of Agriculture                             Sid Miller                            Precinct 3                                             01 
01120030004000045REP       Commissioner of Agriculture                             Sid Miller                            Precinct 4                                             01 
01120040001000000REP       Commissioner of Agriculture                             OVER VOTES                            Precinct 1                                             01 
01120040002000000REP       Commissioner of Agriculture                             OVER VOTES                            Precinct 2                                             01 
01120040003000000REP       Commissioner of Agriculture                             OVER VOTES                            Precinct 3                                             01 
01120040004000000REP       Commissioner of Agriculture                             OVER VOTES                            Precinct 4                                             01 
01120050001000068REP       Commissioner of Agriculture                             UNDER VOTES                           Precinct 1                                             01 
01120050002000062REP       Commissioner of Agriculture                             UNDER VOTES                           Precinct 2                                             01 
01120050003000051REP       Commissioner of Agriculture                             UNDER VOTES                           Precinct 3                                             01 
01120050004000043REP       Commissioner of Agriculture                             UNDER VOTES                           Precinct 4                                             01 
01130010001000072REP       Railroad Commissioner                                   Weston Martinez                       Precinct 1                                             01 
01130010002000082REP       Railroad Commissioner                                   Weston Martinez                       Precinct 2                                             01 
01130010003000055REP       Railroad Commissioner                                   Weston Martinez                       Precinct 3                                             01 
01130010004000064REP       Railroad Commissioner                                   Weston Martinez                       Precinct 4                                             01 
01130020001000161REP       Railroad Commissioner                                   Christi Craddick                      Precinct 1                                             01 
01130020002000133REP       Railroad Commissioner                                   Christi Craddick                      Precinct 2                                             01 
01130020003000067REP       Railroad Commissioner                                   Christi Craddick                      Precinct 3                                             01 
01130020004000074REP       Railroad Commissioner                                   Christi Craddick                      Precinct 4                                             01 
01130030001000000REP       Railroad Commissioner                                   OVER VOTES                            Precinct 1                                             01 
01130030002000000REP       Railroad Commissioner                                   OVER VOTES                            Precinct 2                                             01 
01130030003000000REP       Railroad Commissioner                                   OVER VOTES                            Precinct 3                                             01 
01130030004000000REP       Railroad Commissioner                                   OVER VOTES                            Precinct 4                                             01 
01130040001000048REP       Railroad Commissioner                                   UNDER VOTES                           Precinct 1                                             01 
01130040002000052REP       Railroad Commissioner                                   UNDER VOTES                           Precinct 2                                             01 
01130040003000036REP       Railroad Commissioner                                   UNDER VOTES                           Precinct 3                                             01 
01130040004000034REP       Railroad Commissioner                                   UNDER VOTES                           Precinct 4                                             01 
01140010001000200REP       Justice, Supreme Court, Place 2                         Jimmy Blacklock                       Precinct 1                                             01 
01140010002000172REP       Justice, Supreme Court, Place 2                         Jimmy Blacklock                       Precinct 2                                             01 
01140010003000100REP       Justice, Supreme Court, Place 2                         Jimmy Blacklock                       Precinct 3                                             01 
01140010004000108REP       Justice, Supreme Court, Place 2                         Jimmy Blacklock                       Precinct 4                                             01 
01140020001000000REP       Justice, Supreme Court, Place 2                         OVER VOTES                            Precinct 1                                             01 
01140020002000000REP       Justice, Supreme Court, Place 2                         OVER VOTES                            Precinct 2                                             01 
01140020003000000REP       Justice, Supreme Court, Place 2                         OVER VOTES                            Precinct 3                                             01 
01140020004000000REP       Justice, Supreme Court, Place 2                         OVER VOTES                            Precinct 4                                             01 
01140030001000081REP       Justice, Supreme Court, Place 2                         UNDER VOTES                           Precinct 1                                             01 
01140030002000095REP       Justice, Supreme Court, Place 2                         UNDER VOTES                           Precinct 2                                             01 
01140030003000058REP       Justice, Supreme Court, Place 2                         UNDER VOTES                           Precinct 3                                             01 
01140030004000064REP       Justice, Supreme Court, Place 2                         UNDER VOTES                           Precinct 4                                             01 
01150010001000198REP       Justice, Supreme Court, Place 4                         John Devine                           Precinct 1                                             01 
01150010002000172REP       Justice, Supreme Court, Place 4                         John Devine                           Precinct 2                                             01 
01150010003000099REP       Justice, Supreme Court, Place 4                         John Devine                           Precinct 3                                             01 
01150010004000109REP       Justice, Supreme Court, Place 4                         John Devine                           Precinct 4                                             01 
01150020001000000REP       Justice, Supreme Court, Place 4                         OVER VOTES                            Precinct 1                                             01 
01150020002000000REP       Justice, Supreme Court, Place 4                         OVER VOTES                            Precinct 2                                             01 
01150020003000000REP       Justice, Supreme Court, Place 4                         OVER VOTES                            Precinct 3                                             01 
01150020004000000REP       Justice, Supreme Court, Place 4                         OVER VOTES                            Precinct 4                                             01 
01150030001000083REP       Justice, Supreme Court, Place 4                         UNDER VOTES                           Precinct 1                                             01 
01150030002000095REP       Justice, Supreme Court, Place 4                         UNDER VOTES                           Precinct 2                                             01 
01150030003000059REP       Justice, Supreme Court, Place 4                         UNDER VOTES                           Precinct 3                                             01 
01150030004000063REP       Justice, Supreme Court, Place 4                         UNDER VOTES                           Precinct 4                                             01 
01160010001000197REP       Justice, Supreme Court, Place 6                         Jeff Brown                            Precinct 1                                             01 
01160010002000176REP       Justice, Supreme Court, Place 6                         Jeff Brown                            Precinct 2                                             01 
01160010003000100REP       Justice, Supreme Court, Place 6                         Jeff Brown                            Precinct 3                                             01 
01160010004000109REP       Justice, Supreme Court, Place 6                         Jeff Brown                            Precinct 4                                             01 
01160020001000000REP       Justice, Supreme Court, Place 6                         OVER VOTES                            Precinct 1                                             01 
01160020002000000REP       Justice, Supreme Court, Place 6                         OVER VOTES                            Precinct 2                                             01 
01160020003000000REP       Justice, Supreme Court, Place 6                         OVER VOTES                            Precinct 3                                             01 
01160020004000000REP       Justice, Supreme Court, Place 6                         OVER VOTES                            Precinct 4                                             01 
01160030001000084REP       Justice, Supreme Court, Place 6                         UNDER VOTES                           Precinct 1                                             01 
01160030002000091REP       Justice, Supreme Court, Place 6                         UNDER VOTES                           Precinct 2                                             01 
01160030003000058REP       Justice, Supreme Court, Place 6                         UNDER VOTES                           Precinct 3                                             01 
01160030004000063REP       Justice, Supreme Court, Place 6                         UNDER VOTES                           Precinct 4                                             01 
01170010001000106REP       Presiding Judge, Court of Crim Appeals                  Sharon Keller                         Precinct 1                                             01 
01170010002000091REP       Presiding Judge, Court of Crim Appeals                  Sharon Keller                         Precinct 2                                             01 
01170010003000048REP       Presiding Judge, Court of Crim Appeals                  Sharon Keller                         Precinct 3                                             01 
01170010004000060REP       Presiding Judge, Court of Crim Appeals                  Sharon Keller                         Precinct 4                                             01 
01170020001000104REP       Presiding Judge, Court of Crim Appeals                  David Bridges                         Precinct 1                                             01 
01170020002000097REP       Presiding Judge, Court of Crim Appeals                  David Bridges                         Precinct 2                                             01 
01170020003000063REP       Presiding Judge, Court of Crim Appeals                  David Bridges                         Precinct 3                                             01 
01170020004000057REP       Presiding Judge, Court of Crim Appeals                  David Bridges                         Precinct 4                                             01 
01170030001000000REP       Presiding Judge, Court of Crim Appeals                  OVER VOTES                            Precinct 1                                             01 
01170030002000000REP       Presiding Judge, Court of Crim Appeals                  OVER VOTES                            Precinct 2                                             01 
01170030003000000REP       Presiding Judge, Court of Crim Appeals                  OVER VOTES                            Precinct 3                                             01 
01170030004000000REP       Presiding Judge, Court of Crim Appeals                  OVER VOTES                            Precinct 4                                             01 
01170040001000071REP       Presiding Judge, Court of Crim Appeals                  UNDER VOTES                           Precinct 1                                             01 
01170040002000079REP       Presiding Judge, Court of Crim Appeals                  UNDER VOTES                           Precinct 2                                             01 
01170040003000047REP       Presiding Judge, Court of Crim Appeals                  UNDER VOTES                           Precinct 3                                             01 
01170040004000055REP       Presiding Judge, Court of Crim Appeals                  UNDER VOTES                           Precinct 4                                             01 
01180010001000181REP       Judge, CT of Criminal Appeals, P7                       Barbara Parker Hervey                 Precinct 1                                             01 
01180010002000167REP       Judge, CT of Criminal Appeals, P7                       Barbara Parker Hervey                 Precinct 2                                             01 
01180010003000095REP       Judge, CT of Criminal Appeals, P7                       Barbara Parker Hervey                 Precinct 3                                             01 
01180010004000105REP       Judge, CT of Criminal Appeals, P7                       Barbara Parker Hervey                 Precinct 4                                             01 
01180020001000000REP       Judge, CT of Criminal Appeals, P7                       OVER VOTES                            Precinct 1                                             01 
01180020002000000REP       Judge, CT of Criminal Appeals, P7                       OVER VOTES                            Precinct 2                                             01 
01180020003000000REP       Judge, CT of Criminal Appeals, P7                       OVER VOTES                            Precinct 3                                             01 
01180020004000000REP       Judge, CT of Criminal Appeals, P7                       OVER VOTES                            Precinct 4                                             01 
01180030001000100REP       Judge, CT of Criminal Appeals, P7                       UNDER VOTES                           Precinct 1                                             01 
01180030002000100REP       Judge, CT of Criminal Appeals, P7                       UNDER VOTES                           Precinct 2                                             01 
01180030003000063REP       Judge, CT of Criminal Appeals, P7                       UNDER VOTES                           Precinct 3                                             01 
01180030004000067REP       Judge, CT of Criminal Appeals, P7                       UNDER VOTES                           Precinct 4                                             01 
01190010001000092REP       Judge, Court of Criminal Appeals, P8                    Michelle Slaughter                    Precinct 1                                             01 
01190010002000077REP       Judge, Court of Criminal Appeals, P8                    Michelle Slaughter                    Precinct 2                                             01 
01190010003000041REP       Judge, Court of Criminal Appeals, P8                    Michelle Slaughter                    Precinct 3                                             01 
01190010004000045REP       Judge, Court of Criminal Appeals, P8                    Michelle Slaughter                    Precinct 4                                             01 
01190020001000031REP       Judge, Court of Criminal Appeals, P8                    Dib Waldrip                           Precinct 1                                             01 
01190020002000034REP       Judge, Court of Criminal Appeals, P8                    Dib Waldrip                           Precinct 2                                             01 
01190020003000019REP       Judge, Court of Criminal Appeals, P8                    Dib Waldrip                           Precinct 3                                             01 
01190020004000025REP       Judge, Court of Criminal Appeals, P8                    Dib Waldrip                           Precinct 4                                             01 
01190030001000076REP       Judge, Court of Criminal Appeals, P8                    Jay Brandon                           Precinct 1                                             01 
01190030002000070REP       Judge, Court of Criminal Appeals, P8                    Jay Brandon                           Precinct 2                                             01 
01190030003000048REP       Judge, Court of Criminal Appeals, P8                    Jay Brandon                           Precinct 3                                             01 
01190030004000043REP       Judge, Court of Criminal Appeals, P8                    Jay Brandon                           Precinct 4                                             01 
01190040001000000REP       Judge, Court of Criminal Appeals, P8                    OVER VOTES                            Precinct 1                                             01 
01190040002000000REP       Judge, Court of Criminal Appeals, P8                    OVER VOTES                            Precinct 2                                             01 
01190040003000000REP       Judge, Court of Criminal Appeals, P8                    OVER VOTES                            Precinct 3                                             01 
01190040004000000REP       Judge, Court of Criminal Appeals, P8                    OVER VOTES                            Precinct 4                                             01 
01190050001000082REP       Judge, Court of Criminal Appeals, P8                    UNDER VOTES                           Precinct 1                                             01 
01190050002000086REP       Judge, Court of Criminal Appeals, P8                    UNDER VOTES                           Precinct 2                                             01 
01190050003000050REP       Judge, Court of Criminal Appeals, P8                    UNDER VOTES                           Precinct 3                                             01 
01190050004000059REP       Judge, Court of Criminal Appeals, P8                    UNDER VOTES                           Precinct 4                                             01 
01200010001000221REP       State Representative, District 82                       Tom Craddick                          Precinct 1                                             01 
01200010002000198REP       State Representative, District 82                       Tom Craddick                          Precinct 2                                             01 
01200010003000107REP       State Representative, District 82                       Tom Craddick                          Precinct 3                                             01 
01200010004000123REP       State Representative, District 82                       Tom Craddick                          Precinct 4                                             01 
01200020001000000REP       State Representative, District 82                       OVER VOTES                            Precinct 1                                             01 
01200020002000000REP       State Representative, District 82                       OVER VOTES                            Precinct 2                                             01 
01200020003000000REP       State Representative, District 82                       OVER VOTES                            Precinct 3                                             01 
01200020004000000REP       State Representative, District 82                       OVER VOTES                            Precinct 4                                             01 
01200030001000060REP       State Representative, District 82                       UNDER VOTES                           Precinct 1                                             01 
01200030002000069REP       State Representative, District 82                       UNDER VOTES                           Precinct 2                                             01 
01200030003000051REP       State Representative, District 82                       UNDER VOTES                           Precinct 3                                             01 
01200030004000049REP       State Representative, District 82                       UNDER VOTES                           Precinct 4                                             01 
01210010001000201REP       District Judge, 109th Judicial District                 John L. Pool                          Precinct 1                                             01 
01210010002000174REP       District Judge, 109th Judicial District                 John L. Pool                          Precinct 2                                             01 
01210010003000099REP       District Judge, 109th Judicial District                 John L. Pool                          Precinct 3                                             01 
01210010004000110REP       District Judge, 109th Judicial District                 John L. Pool                          Precinct 4                                             01 
01210020001000000REP       District Judge, 109th Judicial District                 OVER VOTES                            Precinct 1                                             01 
01210020002000000REP       District Judge, 109th Judicial District                 OVER VOTES                            Precinct 2                                             01 
01210020003000000REP       District Judge, 109th Judicial District                 OVER VOTES                            Precinct 3                                             01 
01210020004000000REP       District Judge, 109th Judicial District                 OVER VOTES                            Precinct 4                                             01 
01210030001000080REP       District Judge, 109th Judicial District                 UNDER VOTES                           Precinct 1                                             01 
01210030002000093REP       District Judge, 109th Judicial District                 UNDER VOTES                           Precinct 2                                             01 
01210030003000059REP       District Judge, 109th Judicial District                 UNDER VOTES                           Precinct 3                                             01 
01210030004000062REP       District Judge, 109th Judicial District                 UNDER VOTES                           Precinct 4                                             01 
01220010001000015REP       County Judge                                            Artha "Cookie" Lane Jones             Precinct 1                                             01 
01220010002000014REP       County Judge                                            Artha "Cookie" Lane Jones             Precinct 2                                             01 
01220010003000039REP       County Judge                                            Artha "Cookie" Lane Jones             Precinct 3                                             01 
01220010004000008REP       County Judge                                            Artha "Cookie" Lane Jones             Precinct 4                                             01 
01220020001000111REP       County Judge                                            Roy Hodges                            Precinct 1                                             01 
01220020002000131REP       County Judge                                            Roy Hodges                            Precinct 2                                             01 
01220020003000046REP       County Judge                                            Roy Hodges                            Precinct 3                                             01 
01220020004000076REP       County Judge                                            Roy Hodges                            Precinct 4                                             01 
01220030001000033REP       County Judge                                            Roy Wright                            Precinct 1                                             01 
01220030002000035REP       County Judge                                            Roy Wright                            Precinct 2                                             01 
01220030003000016REP       County Judge                                            Roy Wright                            Precinct 3                                             01 
01220030004000018REP       County Judge                                            Roy Wright                            Precinct 4                                             01 
01220040001000119REP       County Judge                                            Jimmy R. Heath, Jr.                   Precinct 1                                             01 
01220040002000075REP       County Judge                                            Jimmy R. Heath, Jr.                   Precinct 2                                             01 
01220040003000055REP       County Judge                                            Jimmy R. Heath, Jr.                   Precinct 3                                             01 
01220040004000066REP       County Judge                                            Jimmy R. Heath, Jr.                   Precinct 4                                             01 
01220050001000000REP       County Judge                                            OVER VOTES                            Precinct 1                                             01 
01220050002000000REP       County Judge                                            OVER VOTES                            Precinct 2                                             01 
01220050003000000REP       County Judge                                            OVER VOTES                            Precinct 3                                             01 
01220050004000000REP       County Judge                                            OVER VOTES                            Precinct 4                                             01 
01220060001000003REP       County Judge                                            UNDER VOTES                           Precinct 1                                             01 
01220060002000012REP       County Judge                                            UNDER VOTES                           Precinct 2                                             01 
01220060003000002REP       County Judge                                            UNDER VOTES                           Precinct 3                                             01 
01220060004000004REP       County Judge                                            UNDER VOTES                           Precinct 4                                             01 
01230010001000152REP       County Attorney, Unexpired                              Austin Rawls                          Precinct 1                                             01 
01230010002000135REP       County Attorney, Unexpired                              Austin Rawls                          Precinct 2                                             01 
01230010003000074REP       County Attorney, Unexpired                              Austin Rawls                          Precinct 3                                             01 
01230010004000096REP       County Attorney, Unexpired                              Austin Rawls                          Precinct 4                                             01 
01230020001000114REP       County Attorney, Unexpired                              Carlos Rodriguez                      Precinct 1                                             01 
01230020002000116REP       County Attorney, Unexpired                              Carlos Rodriguez                      Precinct 2                                             01 
01230020003000078REP       County Attorney, Unexpired                              Carlos Rodriguez                      Precinct 3                                             01 
01230020004000066REP       County Attorney, Unexpired                              Carlos Rodriguez                      Precinct 4                                             01 
01230030001000000REP       County Attorney, Unexpired                              OVER VOTES                            Precinct 1                                             01 
01230030002000000REP       County Attorney, Unexpired                              OVER VOTES                            Precinct 2                                             01 
01230030003000000REP       County Attorney, Unexpired                              OVER VOTES                            Precinct 3                                             01 
01230030004000000REP       County Attorney, Unexpired                              OVER VOTES                            Precinct 4                                             01 
01230040001000015REP       County Attorney, Unexpired                              UNDER VOTES                           Precinct 1                                             01 
01230040002000016REP       County Attorney, Unexpired                              UNDER VOTES                           Precinct 2                                             01 
01230040003000006REP       County Attorney, Unexpired                              UNDER VOTES                           Precinct 3                                             01 
01230040004000010REP       County Attorney, Unexpired                              UNDER VOTES                           Precinct 4                                             01 
01240010001000222REP       District and County Clerk                               Judy Crawford                         Precinct 1                                             01 
01240010002000210REP       District and County Clerk                               Judy Crawford                         Precinct 2                                             01 
01240010003000121REP       District and County Clerk                               Judy Crawford                         Precinct 3                                             01 
01240010004000144REP       District and County Clerk                               Judy Crawford                         Precinct 4                                             01 
01240020001000000REP       District and County Clerk                               OVER VOTES                            Precinct 1                                             01 
01240020002000000REP       District and County Clerk                               OVER VOTES                            Precinct 2                                             01 
01240020003000000REP       District and County Clerk                               OVER VOTES                            Precinct 3                                             01 
01240020004000000REP       District and County Clerk                               OVER VOTES                            Precinct 4                                             01 
01240030001000059REP       District and County Clerk                               UNDER VOTES                           Precinct 1                                             01 
01240030002000057REP       District and County Clerk                               UNDER VOTES                           Precinct 2                                             01 
01240030003000037REP       District and County Clerk                               UNDER VOTES                           Precinct 3                                             01 
01240030004000028REP       District and County Clerk                               UNDER VOTES                           Precinct 4                                             01 
01250010001000105REP       County Treasurer                                        Cristy Tarin                          Precinct 1                                             01 
01250010002000100REP       County Treasurer                                        Cristy Tarin                          Precinct 2                                             01 
01250010003000075REP       County Treasurer                                        Cristy Tarin                          Precinct 3                                             01 
01250010004000059REP       County Treasurer                                        Cristy Tarin                          Precinct 4                                             01 
01250020001000167REP       County Treasurer                                        Sheila Pahl                           Precinct 1                                             01 
01250020002000154REP       County Treasurer                                        Sheila Pahl                           Precinct 2                                             01 
01250020003000076REP       County Treasurer                                        Sheila Pahl                           Precinct 3                                             01 
01250020004000106REP       County Treasurer                                        Sheila Pahl                           Precinct 4                                             01 
01250030001000000REP       County Treasurer                                        OVER VOTES                            Precinct 1                                             01 
01250030002000000REP       County Treasurer                                        OVER VOTES                            Precinct 2                                             01 
01250030003000000REP       County Treasurer                                        OVER VOTES                            Precinct 3                                             01 
01250030004000000REP       County Treasurer                                        OVER VOTES                            Precinct 4                                             01 
01250040001000009REP       County Treasurer                                        UNDER VOTES                           Precinct 1                                             01 
01250040002000013REP       County Treasurer                                        UNDER VOTES                           Precinct 2                                             01 
01250040003000007REP       County Treasurer                                        UNDER VOTES                           Precinct 3                                             01 
01250040004000007REP       County Treasurer                                        UNDER VOTES                           Precinct 4                                             01 
01260010002000099REP       County Commissioner, Precinct No. 2 PRECINCT 2          Dennis Young                          Precinct 2                                             01 
01260020002000032REP       County Commissioner, Precinct No. 2 PRECINCT 2          Betty Damron                          Precinct 2                                             01 
01260030002000036REP       County Commissioner, Precinct No. 2 PRECINCT 2          Frank De La Torre                     Precinct 2                                             01 
01260040002000100REP       County Commissioner, Precinct No. 2 PRECINCT 2          Brian M. Brents                       Precinct 2                                             01 
01260050002000000REP       County Commissioner, Precinct No. 2 PRECINCT 2          OVER VOTES                            Precinct 2                                             01 
01260060002000000REP       County Commissioner, Precinct No. 2 PRECINCT 2          UNDER VOTES                           Precinct 2                                             01 
01270010004000098REP       County Commissioner, Precinct No. 4 PRECINCT 4          Cody Bob Harrelson                    Precinct 4                                             01 
01270020004000071REP       County Commissioner, Precinct No. 4 PRECINCT 4          Ruby Martinez                         Precinct 4                                             01 
01270030004000000REP       County Commissioner, Precinct No. 4 PRECINCT 4          OVER VOTES                            Precinct 4                                             01 
01270040004000003REP       County Commissioner, Precinct No. 4 PRECINCT 4          UNDER VOTES                           Precinct 4                                             01 
01280010001000243REP       Justice of the Peace                                    Twilah Ward                           Precinct 1                                             01 
01280010002000220REP       Justice of the Peace                                    Twilah Ward                           Precinct 2                                             01 
01280010003000129REP       Justice of the Peace                                    Twilah Ward                           Precinct 3                                             01 
01280010004000151REP       Justice of the Peace                                    Twilah Ward                           Precinct 4                                             01 
01280020001000000REP       Justice of the Peace                                    OVER VOTES                            Precinct 1                                             01 
01280020002000000REP       Justice of the Peace                                    OVER VOTES                            Precinct 2                                             01 
01280020003000000REP       Justice of the Peace                                    OVER VOTES                            Precinct 3                                             01 
01280020004000000REP       Justice of the Peace                                    OVER VOTES                            Precinct 4                                             01 
01280030001000038REP       Justice of the Peace                                    UNDER VOTES                           Precinct 1                                             01 
01280030002000047REP       Justice of the Peace                                    UNDER VOTES                           Precinct 2                                             01 
01280030003000029REP       Justice of the Peace                                    UNDER VOTES                           Precinct 3                                             01 
01280030004000021REP       Justice of the Peace                                    UNDER VOTES                           Precinct 4                                             01 
01290010001000235REP       County Chairman                                         Tom Currie                            Precinct 1                                             01 
01290010002000205REP       County Chairman                                         Tom Currie                            Precinct 2                                             01 
01290010003000121REP       County Chairman                                         Tom Currie                            Precinct 3                                             01 
01290010004000136REP       County Chairman                                         Tom Currie                            Precinct 4                                             01 
01290020001000000REP       County Chairman                                         OVER VOTES                            Precinct 1                                             01 
01290020002000000REP       County Chairman                                         OVER VOTES                            Precinct 2                                             01 
01290020003000000REP       County Chairman                                         OVER VOTES                            Precinct 3                                             01 
01290020004000000REP       County Chairman                                         OVER VOTES                            Precinct 4                                             01 
01290030001000046REP       County Chairman                                         UNDER VOTES                           Precinct 1                                             01 
01290030002000062REP       County Chairman                                         UNDER VOTES                           Precinct 2                                             01 
01290030003000037REP       County Chairman                                         UNDER VOTES                           Precinct 3                                             01 
01290030004000036REP       County Chairman                                         UNDER VOTES                           Precinct 4                                             01 
01300010001000006DEM       United States Senator                                   Sema Hernandez                        Precinct 1                                             01 
01300010002000003DEM       United States Senator                                   Sema Hernandez                        Precinct 2                                             01 
01300010003000009DEM       United States Senator                                   Sema Hernandez                        Precinct 3                                             01 
01300010004000004DEM       United States Senator                                   Sema Hernandez                        Precinct 4                                             01 
01300020001000002DEM       United States Senator                                   Beto O'Rourke                         Precinct 1                                             01 
01300020002000006DEM       United States Senator                                   Beto O'Rourke                         Precinct 2                                             01 
01300020003000001DEM       United States Senator                                   Beto O'Rourke                         Precinct 3                                             01 
01300020004000004DEM       United States Senator                                   Beto O'Rourke                         Precinct 4                                             01 
01300030001000004DEM       United States Senator                                   Edward Kimbrough                      Precinct 1                                             01 
01300030002000003DEM       United States Senator                                   Edward Kimbrough                      Precinct 2                                             01 
01300030003000005DEM       United States Senator                                   Edward Kimbrough                      Precinct 3                                             01 
01300030004000000DEM       United States Senator                                   Edward Kimbrough                      Precinct 4                                             01 
01300040001000000DEM       United States Senator                                   OVER VOTES                            Precinct 1                                             01 
01300040002000000DEM       United States Senator                                   OVER VOTES                            Precinct 2                                             01 
01300040003000000DEM       United States Senator                                   OVER VOTES                            Precinct 3                                             01 
01300040004000000DEM       United States Senator                                   OVER VOTES                            Precinct 4                                             01 
01300050001000000DEM       United States Senator                                   UNDER VOTES                           Precinct 1                                             01 
01300050002000001DEM       United States Senator                                   UNDER VOTES                           Precinct 2                                             01 
01300050003000000DEM       United States Senator                                   UNDER VOTES                           Precinct 3                                             01 
01300050004000002DEM       United States Senator                                   UNDER VOTES                           Precinct 4                                             01 
01310010001000001DEM       United States Representative, Dist 23                   Jay Hulings                           Precinct 1                                             01 
01310010002000002DEM       United States Representative, Dist 23                   Jay Hulings                           Precinct 2                                             01 
01310010003000001DEM       United States Representative, Dist 23                   Jay Hulings                           Precinct 3                                             01 
01310010004000001DEM       United States Representative, Dist 23                   Jay Hulings                           Precinct 4                                             01 
01310020001000003DEM       United States Representative, Dist 23                   Judy Canales                          Precinct 1                                             01 
01310020002000002DEM       United States Representative, Dist 23                   Judy Canales                          Precinct 2                                             01 
01310020003000002DEM       United States Representative, Dist 23                   Judy Canales                          Precinct 3                                             01 
01310020004000001DEM       United States Representative, Dist 23                   Judy Canales                          Precinct 4                                             01 
01310030001000000DEM       United States Representative, Dist 23                   Angela "Angie" Villescaz              Precinct 1                                             01 
01310030002000000DEM       United States Representative, Dist 23                   Angela "Angie" Villescaz              Precinct 2                                             01 
01310030003000000DEM       United States Representative, Dist 23                   Angela "Angie" Villescaz              Precinct 3                                             01 
01310030004000001DEM       United States Representative, Dist 23                   Angela "Angie" Villescaz              Precinct 4                                             01 
01310040001000003DEM       United States Representative, Dist 23                   Rick Trevio                          Precinct 1                                             01 
01310040002000000DEM       United States Representative, Dist 23                   Rick Trevio                          Precinct 2                                             01 
01310040003000006DEM       United States Representative, Dist 23                   Rick Trevio                          Precinct 3                                             01 
01310040004000003DEM       United States Representative, Dist 23                   Rick Trevio                          Precinct 4                                             01 
01310050001000005DEM       United States Representative, Dist 23                   Gina Ortiz Jones                      Precinct 1                                             01 
01310050002000009DEM       United States Representative, Dist 23                   Gina Ortiz Jones                      Precinct 2                                             01 
01310050003000006DEM       United States Representative, Dist 23                   Gina Ortiz Jones                      Precinct 3                                             01 
01310050004000003DEM       United States Representative, Dist 23                   Gina Ortiz Jones                      Precinct 4                                             01 
01310060001000000DEM       United States Representative, Dist 23                   OVER VOTES                            Precinct 1                                             01 
01310060002000000DEM       United States Representative, Dist 23                   OVER VOTES                            Precinct 2                                             01 
01310060003000000DEM       United States Representative, Dist 23                   OVER VOTES                            Precinct 3                                             01 
01310060004000000DEM       United States Representative, Dist 23                   OVER VOTES                            Precinct 4                                             01 
01310070001000000DEM       United States Representative, Dist 23                   UNDER VOTES                           Precinct 1                                             01 
01310070002000000DEM       United States Representative, Dist 23                   UNDER VOTES                           Precinct 2                                             01 
01310070003000000DEM       United States Representative, Dist 23                   UNDER VOTES                           Precinct 3                                             01 
01310070004000001DEM       United States Representative, Dist 23                   UNDER VOTES                           Precinct 4                                             01 
01320010001000001DEM       Governor                                                Adrian Ocegueda                       Precinct 1                                             01 
01320010002000001DEM       Governor                                                Adrian Ocegueda                       Precinct 2                                             01 
01320010003000003DEM       Governor                                                Adrian Ocegueda                       Precinct 3                                             01 
01320010004000002DEM       Governor                                                Adrian Ocegueda                       Precinct 4                                             01 
01320020001000000DEM       Governor                                                James Jolly Clark                     Precinct 1                                             01 
01320020002000000DEM       Governor                                                James Jolly Clark                     Precinct 2                                             01 
01320020003000000DEM       Governor                                                James Jolly Clark                     Precinct 3                                             01 
01320020004000001DEM       Governor                                                James Jolly Clark                     Precinct 4                                             01 
01320030001000001DEM       Governor                                                Tom Wakely                            Precinct 1                                             01 
01320030002000001DEM       Governor                                                Tom Wakely                            Precinct 2                                             01 
01320030003000001DEM       Governor                                                Tom Wakely                            Precinct 3                                             01 
01320030004000000DEM       Governor                                                Tom Wakely                            Precinct 4                                             01 
01320040001000004DEM       Governor                                                Lupe Valdez                           Precinct 1                                             01 
01320040002000004DEM       Governor                                                Lupe Valdez                           Precinct 2                                             01 
01320040003000005DEM       Governor                                                Lupe Valdez                           Precinct 3                                             01 
01320040004000004DEM       Governor                                                Lupe Valdez                           Precinct 4                                             01 
01320050001000001DEM       Governor                                                Jeffrey Payne                         Precinct 1                                             01 
01320050002000001DEM       Governor                                                Jeffrey Payne                         Precinct 2                                             01 
01320050003000000DEM       Governor                                                Jeffrey Payne                         Precinct 3                                             01 
01320050004000000DEM       Governor                                                Jeffrey Payne                         Precinct 4                                             01 
01320060001000000DEM       Governor                                                Cedric Davis, Sr.                     Precinct 1                                             01 
01320060002000000DEM       Governor                                                Cedric Davis, Sr.                     Precinct 2                                             01 
01320060003000002DEM       Governor                                                Cedric Davis, Sr.                     Precinct 3                                             01 
01320060004000000DEM       Governor                                                Cedric Davis, Sr.                     Precinct 4                                             01 
01320070001000002DEM       Governor                                                Grady Yarbrough                       Precinct 1                                             01 
01320070002000003DEM       Governor                                                Grady Yarbrough                       Precinct 2                                             01 
01320070003000002DEM       Governor                                                Grady Yarbrough                       Precinct 3                                             01 
01320070004000000DEM       Governor                                                Grady Yarbrough                       Precinct 4                                             01 
01320080001000000DEM       Governor                                                Joe Mumbach                           Precinct 1                                             01 
01320080002000000DEM       Governor                                                Joe Mumbach                           Precinct 2                                             01 
01320080003000000DEM       Governor                                                Joe Mumbach                           Precinct 3                                             01 
01320080004000000DEM       Governor                                                Joe Mumbach                           Precinct 4                                             01 
01320090001000002DEM       Governor                                                Andrew White                          Precinct 1                                             01 
01320090002000002DEM       Governor                                                Andrew White                          Precinct 2                                             01 
01320090003000002DEM       Governor                                                Andrew White                          Precinct 3                                             01 
01320090004000002DEM       Governor                                                Andrew White                          Precinct 4                                             01 
01320100001000000DEM       Governor                                                OVER VOTES                            Precinct 1                                             01 
01320100002000000DEM       Governor                                                OVER VOTES                            Precinct 2                                             01 
01320100003000000DEM       Governor                                                OVER VOTES                            Precinct 3                                             01 
01320100004000000DEM       Governor                                                OVER VOTES                            Precinct 4                                             01 
01320110001000001DEM       Governor                                                UNDER VOTES                           Precinct 1                                             01 
01320110002000001DEM       Governor                                                UNDER VOTES                           Precinct 2                                             01 
01320110003000000DEM       Governor                                                UNDER VOTES                           Precinct 3                                             01 
01320110004000001DEM       Governor                                                UNDER VOTES                           Precinct 4                                             01 
01330010001000006DEM       Lieutenant Governor                                     Michael Cooper                        Precinct 1                                             01 
01330010002000007DEM       Lieutenant Governor                                     Michael Cooper                        Precinct 2                                             01 
01330010003000011DEM       Lieutenant Governor                                     Michael Cooper                        Precinct 3                                             01 
01330010004000004DEM       Lieutenant Governor                                     Michael Cooper                        Precinct 4                                             01 
01330020001000006DEM       Lieutenant Governor                                     Mike Collier                          Precinct 1                                             01 
01330020002000005DEM       Lieutenant Governor                                     Mike Collier                          Precinct 2                                             01 
01330020003000002DEM       Lieutenant Governor                                     Mike Collier                          Precinct 3                                             01 
01330020004000003DEM       Lieutenant Governor                                     Mike Collier                          Precinct 4                                             01 
01330030001000000DEM       Lieutenant Governor                                     OVER VOTES                            Precinct 1                                             01 
01330030002000000DEM       Lieutenant Governor                                     OVER VOTES                            Precinct 2                                             01 
01330030003000000DEM       Lieutenant Governor                                     OVER VOTES                            Precinct 3                                             01 
01330030004000000DEM       Lieutenant Governor                                     OVER VOTES                            Precinct 4                                             01 
01330040001000000DEM       Lieutenant Governor                                     UNDER VOTES                           Precinct 1                                             01 
01330040002000001DEM       Lieutenant Governor                                     UNDER VOTES                           Precinct 2                                             01 
01330040003000002DEM       Lieutenant Governor                                     UNDER VOTES                           Precinct 3                                             01 
01330040004000003DEM       Lieutenant Governor                                     UNDER VOTES                           Precinct 4                                             01 
01340010001000010DEM       Attorney General                                        Justin Nelson                         Precinct 1                                             01 
01340010002000012DEM       Attorney General                                        Justin Nelson                         Precinct 2                                             01 
01340010003000014DEM       Attorney General                                        Justin Nelson                         Precinct 3                                             01 
01340010004000005DEM       Attorney General                                        Justin Nelson                         Precinct 4                                             01 
01340020001000000DEM       Attorney General                                        OVER VOTES                            Precinct 1                                             01 
01340020002000000DEM       Attorney General                                        OVER VOTES                            Precinct 2                                             01 
01340020003000000DEM       Attorney General                                        OVER VOTES                            Precinct 3                                             01 
01340020004000000DEM       Attorney General                                        OVER VOTES                            Precinct 4                                             01 
01340030001000002DEM       Attorney General                                        UNDER VOTES                           Precinct 1                                             01 
01340030002000001DEM       Attorney General                                        UNDER VOTES                           Precinct 2                                             01 
01340030003000001DEM       Attorney General                                        UNDER VOTES                           Precinct 3                                             01 
01340030004000005DEM       Attorney General                                        UNDER VOTES                           Precinct 4                                             01 
01350010001000009DEM       Comptroller of Public Accounts                          Tim Mahoney                           Precinct 1                                             01 
01350010002000004DEM       Comptroller of Public Accounts                          Tim Mahoney                           Precinct 2                                             01 
01350010003000009DEM       Comptroller of Public Accounts                          Tim Mahoney                           Precinct 3                                             01 
01350010004000003DEM       Comptroller of Public Accounts                          Tim Mahoney                           Precinct 4                                             01 
01350020001000002DEM       Comptroller of Public Accounts                          Joi Chevalier                         Precinct 1                                             01 
01350020002000007DEM       Comptroller of Public Accounts                          Joi Chevalier                         Precinct 2                                             01 
01350020003000002DEM       Comptroller of Public Accounts                          Joi Chevalier                         Precinct 3                                             01 
01350020004000004DEM       Comptroller of Public Accounts                          Joi Chevalier                         Precinct 4                                             01 
01350030001000000DEM       Comptroller of Public Accounts                          OVER VOTES                            Precinct 1                                             01 
01350030002000000DEM       Comptroller of Public Accounts                          OVER VOTES                            Precinct 2                                             01 
01350030003000000DEM       Comptroller of Public Accounts                          OVER VOTES                            Precinct 3                                             01 
01350030004000000DEM       Comptroller of Public Accounts                          OVER VOTES                            Precinct 4                                             01 
01350040001000001DEM       Comptroller of Public Accounts                          UNDER VOTES                           Precinct 1                                             01 
01350040002000002DEM       Comptroller of Public Accounts                          UNDER VOTES                           Precinct 2                                             01 
01350040003000004DEM       Comptroller of Public Accounts                          UNDER VOTES                           Precinct 3                                             01 
01350040004000003DEM       Comptroller of Public Accounts                          UNDER VOTES                           Precinct 4                                             01 
01360010001000008DEM       Commissioner of the General Land Office                 Miguel Suazo                          Precinct 1                                             01 
01360010002000006DEM       Commissioner of the General Land Office                 Miguel Suazo                          Precinct 2                                             01 
01360010003000010DEM       Commissioner of the General Land Office                 Miguel Suazo                          Precinct 3                                             01 
01360010004000007DEM       Commissioner of the General Land Office                 Miguel Suazo                          Precinct 4                                             01 
01360020001000003DEM       Commissioner of the General Land Office                 Tex Morgan                            Precinct 1                                             01 
01360020002000006DEM       Commissioner of the General Land Office                 Tex Morgan                            Precinct 2                                             01 
01360020003000004DEM       Commissioner of the General Land Office                 Tex Morgan                            Precinct 3                                             01 
01360020004000001DEM       Commissioner of the General Land Office                 Tex Morgan                            Precinct 4                                             01 
01360030001000000DEM       Commissioner of the General Land Office                 OVER VOTES                            Precinct 1                                             01 
01360030002000000DEM       Commissioner of the General Land Office                 OVER VOTES                            Precinct 2                                             01 
01360030003000000DEM       Commissioner of the General Land Office                 OVER VOTES                            Precinct 3                                             01 
01360030004000000DEM       Commissioner of the General Land Office                 OVER VOTES                            Precinct 4                                             01 
01360040001000001DEM       Commissioner of the General Land Office                 UNDER VOTES                           Precinct 1                                             01 
01360040002000001DEM       Commissioner of the General Land Office                 UNDER VOTES                           Precinct 2                                             01 
01360040003000001DEM       Commissioner of the General Land Office                 UNDER VOTES                           Precinct 3                                             01 
01360040004000002DEM       Commissioner of the General Land Office                 UNDER VOTES                           Precinct 4                                             01 
01370010001000010DEM       Commissioner of Agriculture                             Kim Olson                             Precinct 1                                             01 
01370010002000011DEM       Commissioner of Agriculture                             Kim Olson                             Precinct 2                                             01 
01370010003000011DEM       Commissioner of Agriculture                             Kim Olson                             Precinct 3                                             01 
01370010004000004DEM       Commissioner of Agriculture                             Kim Olson                             Precinct 4                                             01 
01370020001000000DEM       Commissioner of Agriculture                             OVER VOTES                            Precinct 1                                             01 
01370020002000000DEM       Commissioner of Agriculture                             OVER VOTES                            Precinct 2                                             01 
01370020003000000DEM       Commissioner of Agriculture                             OVER VOTES                            Precinct 3                                             01 
01370020004000000DEM       Commissioner of Agriculture                             OVER VOTES                            Precinct 4                                             01 
01370030001000002DEM       Commissioner of Agriculture                             UNDER VOTES                           Precinct 1                                             01 
01370030002000002DEM       Commissioner of Agriculture                             UNDER VOTES                           Precinct 2                                             01 
01370030003000004DEM       Commissioner of Agriculture                             UNDER VOTES                           Precinct 3                                             01 
01370030004000006DEM       Commissioner of Agriculture                             UNDER VOTES                           Precinct 4                                             01 
01380010001000007DEM       Railroad Commissioner                                   Roman McAllen                         Precinct 1                                             01 
01380010002000009DEM       Railroad Commissioner                                   Roman McAllen                         Precinct 2                                             01 
01380010003000008DEM       Railroad Commissioner                                   Roman McAllen                         Precinct 3                                             01 
01380010004000005DEM       Railroad Commissioner                                   Roman McAllen                         Precinct 4                                             01 
01380020001000003DEM       Railroad Commissioner                                   Chris Spellmon                        Precinct 1                                             01 
01380020002000002DEM       Railroad Commissioner                                   Chris Spellmon                        Precinct 2                                             01 
01380020003000006DEM       Railroad Commissioner                                   Chris Spellmon                        Precinct 3                                             01 
01380020004000002DEM       Railroad Commissioner                                   Chris Spellmon                        Precinct 4                                             01 
01380030001000000DEM       Railroad Commissioner                                   OVER VOTES                            Precinct 1                                             01 
01380030002000000DEM       Railroad Commissioner                                   OVER VOTES                            Precinct 2                                             01 
01380030003000000DEM       Railroad Commissioner                                   OVER VOTES                            Precinct 3                                             01 
01380030004000000DEM       Railroad Commissioner                                   OVER VOTES                            Precinct 4                                             01 
01380040001000002DEM       Railroad Commissioner                                   UNDER VOTES                           Precinct 1                                             01 
01380040002000002DEM       Railroad Commissioner                                   UNDER VOTES                           Precinct 2                                             01 
