01010010001001036000000000000000000000000000000          REGISTERED VOTERS - TOTAL                               REGISTERED VOTERS - TOTAL             PRECINCT 11                                            00 
01010010002000401000000000000000000000000000000          REGISTERED VOTERS - TOTAL                               REGISTERED VOTERS - TOTAL             PRECINCT 12                                            00 
01010010003001012000000000000000000000000000000          REGISTERED VOTERS - TOTAL                               REGISTERED VOTERS - TOTAL             PRECINCT 21                                            00 
01010010004000278000000000000000000000000000000          REGISTERED VOTERS - TOTAL                               REGISTERED VOTERS - TOTAL             PRECINCT 22                                            00 
01010010005000818000000000000000000000000000000          REGISTERED VOTERS - TOTAL                               REGISTERED VOTERS - TOTAL             PRECINCT 31                                            00 
01010010006000600000000000000000000000000000000          REGISTERED VOTERS - TOTAL                               REGISTERED VOTERS - TOTAL             PRECINCT 32                                            00 
01010010007000365000000000000000000000000000000          REGISTERED VOTERS - TOTAL                               REGISTERED VOTERS - TOTAL             PRECINCT 41                                            00 
01010010008000568000000000000000000000000000000          REGISTERED VOTERS - TOTAL                               REGISTERED VOTERS - TOTAL             PRECINCT 42                                            00 
01010010009000401000000000000000000000000000000          REGISTERED VOTERS - TOTAL                               REGISTERED VOTERS - TOTAL             PRECINCT 43                                            00 
01020010001000195000116000079000000000000000000          BALLOTS CAST - TOTAL                                    BALLOTS CAST - TOTAL                  PRECINCT 11                                            00 
01020010002000080000027000053000000000000000000          BALLOTS CAST - TOTAL                                    BALLOTS CAST - TOTAL                  PRECINCT 12                                            00 
01020010003000271000154000117000000000000000000          BALLOTS CAST - TOTAL                                    BALLOTS CAST - TOTAL                  PRECINCT 21                                            00 
01020010004000064000014000050000000000000000000          BALLOTS CAST - TOTAL                                    BALLOTS CAST - TOTAL                  PRECINCT 22                                            00 
01020010005000231000141000090000000000000000000          BALLOTS CAST - TOTAL                                    BALLOTS CAST - TOTAL                  PRECINCT 31                                            00 
01020010006000192000076000116000000000000000000          BALLOTS CAST - TOTAL                                    BALLOTS CAST - TOTAL                  PRECINCT 32                                            00 
01020010007000143000058000085000000000000000000          BALLOTS CAST - TOTAL                                    BALLOTS CAST - TOTAL                  PRECINCT 41                                            00 
01020010008000134000028000106000000000000000000          BALLOTS CAST - TOTAL                                    BALLOTS CAST - TOTAL                  PRECINCT 42                                            00 
01020010009000111000057000054000000000000000000          BALLOTS CAST - TOTAL                                    BALLOTS CAST - TOTAL                  PRECINCT 43                                            00 
01030010001000124000078000046000000000000000000REP       BALLOTS CAST - REPUBLICAN PARTY                         BALLOTS CAST - REPUBLICAN PARTY       PRECINCT 11                                            00 
01030010002000077000025000052000000000000000000REP       BALLOTS CAST - REPUBLICAN PARTY                         BALLOTS CAST - REPUBLICAN PARTY       PRECINCT 12                                            00 
01030010003000187000109000078000000000000000000REP       BALLOTS CAST - REPUBLICAN PARTY                         BALLOTS CAST - REPUBLICAN PARTY       PRECINCT 21                                            00 
01030010004000048000010000038000000000000000000REP       BALLOTS CAST - REPUBLICAN PARTY                         BALLOTS CAST - REPUBLICAN PARTY       PRECINCT 22                                            00 
01030010005000202000123000079000000000000000000REP       BALLOTS CAST - REPUBLICAN PARTY                         BALLOTS CAST - REPUBLICAN PARTY       PRECINCT 31                                            00 
01030010006000186000073000113000000000000000000REP       BALLOTS CAST - REPUBLICAN PARTY                         BALLOTS CAST - REPUBLICAN PARTY       PRECINCT 32                                            00 
01030010007000134000052000082000000000000000000REP       BALLOTS CAST - REPUBLICAN PARTY                         BALLOTS CAST - REPUBLICAN PARTY       PRECINCT 41                                            00 
01030010008000124000023000101000000000000000000REP       BALLOTS CAST - REPUBLICAN PARTY                         BALLOTS CAST - REPUBLICAN PARTY       PRECINCT 42                                            00 
01030010009000104000053000051000000000000000000REP       BALLOTS CAST - REPUBLICAN PARTY                         BALLOTS CAST - REPUBLICAN PARTY       PRECINCT 43                                            00 
01040010001000071000038000033000000000000000000DEM       BALLOTS CAST - DEMOCRATIC PARTY                         BALLOTS CAST - DEMOCRATIC PARTY       PRECINCT 11                                            00 
01040010002000003000002000001000000000000000000DEM       BALLOTS CAST - DEMOCRATIC PARTY                         BALLOTS CAST - DEMOCRATIC PARTY       PRECINCT 12                                            00 
01040010003000084000045000039000000000000000000DEM       BALLOTS CAST - DEMOCRATIC PARTY                         BALLOTS CAST - DEMOCRATIC PARTY       PRECINCT 21                                            00 
01040010004000016000004000012000000000000000000DEM       BALLOTS CAST - DEMOCRATIC PARTY                         BALLOTS CAST - DEMOCRATIC PARTY       PRECINCT 22                                            00 
01040010005000029000018000011000000000000000000DEM       BALLOTS CAST - DEMOCRATIC PARTY                         BALLOTS CAST - DEMOCRATIC PARTY       PRECINCT 31                                            00 
01040010006000007000003000004000000000000000000DEM       BALLOTS CAST - DEMOCRATIC PARTY                         BALLOTS CAST - DEMOCRATIC PARTY       PRECINCT 32                                            00 
01040010007000009000006000003000000000000000000DEM       BALLOTS CAST - DEMOCRATIC PARTY                         BALLOTS CAST - DEMOCRATIC PARTY       PRECINCT 41                                            00 
01040010008000010000005000005000000000000000000DEM       BALLOTS CAST - DEMOCRATIC PARTY                         BALLOTS CAST - DEMOCRATIC PARTY       PRECINCT 42                                            00 
01040010009000007000004000003000000000000000000DEM       BALLOTS CAST - DEMOCRATIC PARTY                         BALLOTS CAST - DEMOCRATIC PARTY       PRECINCT 43                                            00 
01050010001000004000003000001000000000000000000REP       United States Senator                                   Bruce Jacobson, Jr.                   PRECINCT 11                                            01 
01050010002000003000000000003000000000000000000REP       United States Senator                                   Bruce Jacobson, Jr.                   PRECINCT 12                                            01 
01050010003000013000006000007000000000000000000REP       United States Senator                                   Bruce Jacobson, Jr.                   PRECINCT 21                                            01 
01050010004000002000000000002000000000000000000REP       United States Senator                                   Bruce Jacobson, Jr.                   PRECINCT 22                                            01 
01050010005000010000006000004000000000000000000REP       United States Senator                                   Bruce Jacobson, Jr.                   PRECINCT 31                                            01 
01050010006000016000006000010000000000000000000REP       United States Senator                                   Bruce Jacobson, Jr.                   PRECINCT 32                                            01 
01050010007000009000003000006000000000000000000REP       United States Senator                                   Bruce Jacobson, Jr.                   PRECINCT 41                                            01 
01050010008000008000000000008000000000000000000REP       United States Senator                                   Bruce Jacobson, Jr.                   PRECINCT 42                                            01 
01050010009000003000002000001000000000000000000REP       United States Senator                                   Bruce Jacobson, Jr.                   PRECINCT 43                                            01 
01050020001000001000001000000000000000000000000REP       United States Senator                                   Geraldine Sam                         PRECINCT 11                                            01 
01050020002000001000000000001000000000000000000REP       United States Senator                                   Geraldine Sam                         PRECINCT 12                                            01 
01050020003000003000001000002000000000000000000REP       United States Senator                                   Geraldine Sam                         PRECINCT 21                                            01 
01050020004000000000000000000000000000000000000REP       United States Senator                                   Geraldine Sam                         PRECINCT 22                                            01 
01050020005000005000003000002000000000000000000REP       United States Senator                                   Geraldine Sam                         PRECINCT 31                                            01 
01050020006000006000004000002000000000000000000REP       United States Senator                                   Geraldine Sam                         PRECINCT 32                                            01 
01050020007000003000000000003000000000000000000REP       United States Senator                                   Geraldine Sam                         PRECINCT 41                                            01 
01050020008000002000001000001000000000000000000REP       United States Senator                                   Geraldine Sam                         PRECINCT 42                                            01 
01050020009000002000002000000000000000000000000REP       United States Senator                                   Geraldine Sam                         PRECINCT 43                                            01 
01050030001000091000053000038000000000000000000REP       United States Senator                                   Ted Cruz                              PRECINCT 11                                            01 
01050030002000068000024000044000000000000000000REP       United States Senator                                   Ted Cruz                              PRECINCT 12                                            01 
01050030003000143000083000060000000000000000000REP       United States Senator                                   Ted Cruz                              PRECINCT 21                                            01 
01050030004000030000008000022000000000000000000REP       United States Senator                                   Ted Cruz                              PRECINCT 22                                            01 
01050030005000153000086000067000000000000000000REP       United States Senator                                   Ted Cruz                              PRECINCT 31                                            01 
01050030006000141000051000090000000000000000000REP       United States Senator                                   Ted Cruz                              PRECINCT 32                                            01 
01050030007000103000038000065000000000000000000REP       United States Senator                                   Ted Cruz                              PRECINCT 41                                            01 
01050030008000104000018000086000000000000000000REP       United States Senator                                   Ted Cruz                              PRECINCT 42                                            01 
01050030009000082000034000048000000000000000000REP       United States Senator                                   Ted Cruz                              PRECINCT 43                                            01 
01050040001000001000001000000000000000000000000REP       United States Senator                                   Stefano de Stefano                    PRECINCT 11                                            01 
01050040002000000000000000000000000000000000000REP       United States Senator                                   Stefano de Stefano                    PRECINCT 12                                            01 
01050040003000003000002000001000000000000000000REP       United States Senator                                   Stefano de Stefano                    PRECINCT 21                                            01 
01050040004000002000001000001000000000000000000REP       United States Senator                                   Stefano de Stefano                    PRECINCT 22                                            01 
01050040005000011000010000001000000000000000000REP       United States Senator                                   Stefano de Stefano                    PRECINCT 31                                            01 
01050040006000000000000000000000000000000000000REP       United States Senator                                   Stefano de Stefano                    PRECINCT 32                                            01 
01050040007000004000003000001000000000000000000REP       United States Senator                                   Stefano de Stefano                    PRECINCT 41                                            01 
01050040008000001000001000000000000000000000000REP       United States Senator                                   Stefano de Stefano                    PRECINCT 42                                            01 
01050040009000003000003000000000000000000000000REP       United States Senator                                   Stefano de Stefano                    PRECINCT 43                                            01 
01050050001000011000008000003000000000000000000REP       United States Senator                                   Mary Miller                           PRECINCT 11                                            01 
01050050002000002000001000001000000000000000000REP       United States Senator                                   Mary Miller                           PRECINCT 12                                            01 
01050050003000009000007000002000000000000000000REP       United States Senator                                   Mary Miller                           PRECINCT 21                                            01 
01050050004000001000000000001000000000000000000REP       United States Senator                                   Mary Miller                           PRECINCT 22                                            01 
01050050005000010000008000002000000000000000000REP       United States Senator                                   Mary Miller                           PRECINCT 31                                            01 
01050050006000007000004000003000000000000000000REP       United States Senator                                   Mary Miller                           PRECINCT 32                                            01 
01050050007000007000004000003000000000000000000REP       United States Senator                                   Mary Miller                           PRECINCT 41                                            01 
01050050008000005000001000004000000000000000000REP       United States Senator                                   Mary Miller                           PRECINCT 42                                            01 
01050050009000006000005000001000000000000000000REP       United States Senator                                   Mary Miller                           PRECINCT 43                                            01 
01050060001000000000000000000000000000000000000REP       United States Senator                                   OVER VOTES                            PRECINCT 11                                            01 
01050060002000000000000000000000000000000000000REP       United States Senator                                   OVER VOTES                            PRECINCT 12                                            01 
01050060003000000000000000000000000000000000000REP       United States Senator                                   OVER VOTES                            PRECINCT 21                                            01 
01050060004000000000000000000000000000000000000REP       United States Senator                                   OVER VOTES                            PRECINCT 22                                            01 
01050060005000000000000000000000000000000000000REP       United States Senator                                   OVER VOTES                            PRECINCT 31                                            01 
01050060006000000000000000000000000000000000000REP       United States Senator                                   OVER VOTES                            PRECINCT 32                                            01 
01050060007000000000000000000000000000000000000REP       United States Senator                                   OVER VOTES                            PRECINCT 41                                            01 
01050060008000000000000000000000000000000000000REP       United States Senator                                   OVER VOTES                            PRECINCT 42                                            01 
01050060009000000000000000000000000000000000000REP       United States Senator                                   OVER VOTES                            PRECINCT 43                                            01 
01050070001000016000012000004000000000000000000REP       United States Senator                                   UNDER VOTES                           PRECINCT 11                                            01 
01050070002000003000000000003000000000000000000REP       United States Senator                                   UNDER VOTES                           PRECINCT 12                                            01 
01050070003000016000010000006000000000000000000REP       United States Senator                                   UNDER VOTES                           PRECINCT 21                                            01 
01050070004000012000001000011000000000000000000REP       United States Senator                                   UNDER VOTES                           PRECINCT 22                                            01 
01050070005000013000010000003000000000000000000REP       United States Senator                                   UNDER VOTES                           PRECINCT 31                                            01 
01050070006000016000008000008000000000000000000REP       United States Senator                                   UNDER VOTES                           PRECINCT 32                                            01 
01050070007000008000004000004000000000000000000REP       United States Senator                                   UNDER VOTES                           PRECINCT 41                                            01 
01050070008000004000002000002000000000000000000REP       United States Senator                                   UNDER VOTES                           PRECINCT 42                                            01 
01050070009000008000007000001000000000000000000REP       United States Senator                                   UNDER VOTES                           PRECINCT 43                                            01 
01060010001000074000042000032000000000000000000REP       United States Representative, Dist 34                   Rey Gonzalez                          PRECINCT 11                                            01 
01060010002000055000022000033000000000000000000REP       United States Representative, Dist 34                   Rey Gonzalez                          PRECINCT 12                                            01 
01060010003000123000072000051000000000000000000REP       United States Representative, Dist 34                   Rey Gonzalez                          PRECINCT 21                                            01 
01060010004000022000005000017000000000000000000REP       United States Representative, Dist 34                   Rey Gonzalez                          PRECINCT 22                                            01 
01060010005000116000067000049000000000000000000REP       United States Representative, Dist 34                   Rey Gonzalez                          PRECINCT 31                                            01 
01060010006000117000052000065000000000000000000REP       United States Representative, Dist 34                   Rey Gonzalez                          PRECINCT 32                                            01 
01060010007000076000028000048000000000000000000REP       United States Representative, Dist 34                   Rey Gonzalez                          PRECINCT 41                                            01 
01060010008000087000016000071000000000000000000REP       United States Representative, Dist 34                   Rey Gonzalez                          PRECINCT 42                                            01 
01060010009000064000033000031000000000000000000REP       United States Representative, Dist 34                   Rey Gonzalez                          PRECINCT 43                                            01 
01060020001000000000000000000000000000000000000REP       United States Representative, Dist 34                   OVER VOTES                            PRECINCT 11                                            01 
01060020002000000000000000000000000000000000000REP       United States Representative, Dist 34                   OVER VOTES                            PRECINCT 12                                            01 
01060020003000000000000000000000000000000000000REP       United States Representative, Dist 34                   OVER VOTES                            PRECINCT 21                                            01 
01060020004000000000000000000000000000000000000REP       United States Representative, Dist 34                   OVER VOTES                            PRECINCT 22                                            01 
01060020005000000000000000000000000000000000000REP       United States Representative, Dist 34                   OVER VOTES                            PRECINCT 31                                            01 
01060020006000000000000000000000000000000000000REP       United States Representative, Dist 34                   OVER VOTES                            PRECINCT 32                                            01 
01060020007000000000000000000000000000000000000REP       United States Representative, Dist 34                   OVER VOTES                            PRECINCT 41                                            01 
01060020008000000000000000000000000000000000000REP       United States Representative, Dist 34                   OVER VOTES                            PRECINCT 42                                            01 
01060020009000000000000000000000000000000000000REP       United States Representative, Dist 34                   OVER VOTES                            PRECINCT 43                                            01 
01060030001000050000036000014000000000000000000REP       United States Representative, Dist 34                   UNDER VOTES                           PRECINCT 11                                            01 
01060030002000022000003000019000000000000000000REP       United States Representative, Dist 34                   UNDER VOTES                           PRECINCT 12                                            01 
01060030003000064000037000027000000000000000000REP       United States Representative, Dist 34                   UNDER VOTES                           PRECINCT 21                                            01 
01060030004000025000005000020000000000000000000REP       United States Representative, Dist 34                   UNDER VOTES                           PRECINCT 22                                            01 
01060030005000086000056000030000000000000000000REP       United States Representative, Dist 34                   UNDER VOTES                           PRECINCT 31                                            01 
01060030006000068000021000047000000000000000000REP       United States Representative, Dist 34                   UNDER VOTES                           PRECINCT 32                                            01 
01060030007000058000024000034000000000000000000REP       United States Representative, Dist 34                   UNDER VOTES                           PRECINCT 41                                            01 
01060030008000037000007000030000000000000000000REP       United States Representative, Dist 34                   UNDER VOTES                           PRECINCT 42                                            01 
01060030009000040000020000020000000000000000000REP       United States Representative, Dist 34                   UNDER VOTES                           PRECINCT 43                                            01 
01070010001000095000057000038000000000000000000REP       Governor                                                Greg Abbott                           PRECINCT 11                                            01 
01070010002000065000023000042000000000000000000REP       Governor                                                Greg Abbott                           PRECINCT 12                                            01 
01070010003000153000087000066000000000000000000REP       Governor                                                Greg Abbott                           PRECINCT 21                                            01 
01070010004000032000006000026000000000000000000REP       Governor                                                Greg Abbott                           PRECINCT 22                                            01 
01070010005000162000097000065000000000000000000REP       Governor                                                Greg Abbott                           PRECINCT 31                                            01 
01070010006000151000060000091000000000000000000REP       Governor                                                Greg Abbott                           PRECINCT 32                                            01 
01070010007000105000038000067000000000000000000REP       Governor                                                Greg Abbott                           PRECINCT 41                                            01 
01070010008000117000020000097000000000000000000REP       Governor                                                Greg Abbott                           PRECINCT 42                                            01 
01070010009000091000041000050000000000000000000REP       Governor                                                Greg Abbott                           PRECINCT 43                                            01 
01070020001000012000009000003000000000000000000REP       Governor                                                Barbara Krueger                       PRECINCT 11                                            01 
01070020002000004000001000003000000000000000000REP       Governor                                                Barbara Krueger                       PRECINCT 12                                            01 
01070020003000015000009000006000000000000000000REP       Governor                                                Barbara Krueger                       PRECINCT 21                                            01 
01070020004000002000002000000000000000000000000REP       Governor                                                Barbara Krueger                       PRECINCT 22                                            01 
01070020005000019000010000009000000000000000000REP       Governor                                                Barbara Krueger                       PRECINCT 31                                            01 
01070020006000023000008000015000000000000000000REP       Governor                                                Barbara Krueger                       PRECINCT 32                                            01 
01070020007000016000008000008000000000000000000REP       Governor                                                Barbara Krueger                       PRECINCT 41                                            01 
01070020008000003000000000003000000000000000000REP       Governor                                                Barbara Krueger                       PRECINCT 42                                            01 
01070020009000007000007000000000000000000000000REP       Governor                                                Barbara Krueger                       PRECINCT 43                                            01 
01070030001000001000001000000000000000000000000REP       Governor                                                SECEDE Kilgore                        PRECINCT 11                                            01 
01070030002000002000000000002000000000000000000REP       Governor                                                SECEDE Kilgore                        PRECINCT 12                                            01 
01070030003000004000003000001000000000000000000REP       Governor                                                SECEDE Kilgore                        PRECINCT 21                                            01 
01070030004000002000001000001000000000000000000REP       Governor                                                SECEDE Kilgore                        PRECINCT 22                                            01 
01070030005000004000002000002000000000000000000REP       Governor                                                SECEDE Kilgore                        PRECINCT 31                                            01 
01070030006000001000000000001000000000000000000REP       Governor                                                SECEDE Kilgore                        PRECINCT 32                                            01 
01070030007000003000003000000000000000000000000REP       Governor                                                SECEDE Kilgore                        PRECINCT 41                                            01 
01070030008000000000000000000000000000000000000REP       Governor                                                SECEDE Kilgore                        PRECINCT 42                                            01 
01070030009000000000000000000000000000000000000REP       Governor                                                SECEDE Kilgore                        PRECINCT 43                                            01 
01070040001000000000000000000000000000000000000REP       Governor                                                OVER VOTES                            PRECINCT 11                                            01 
01070040002000000000000000000000000000000000000REP       Governor                                                OVER VOTES                            PRECINCT 12                                            01 
01070040003000000000000000000000000000000000000REP       Governor                                                OVER VOTES                            PRECINCT 21                                            01 
01070040004000000000000000000000000000000000000REP       Governor                                                OVER VOTES                            PRECINCT 22                                            01 
01070040005000000000000000000000000000000000000REP       Governor                                                OVER VOTES                            PRECINCT 31                                            01 
01070040006000000000000000000000000000000000000REP       Governor                                                OVER VOTES                            PRECINCT 32                                            01 
01070040007000000000000000000000000000000000000REP       Governor                                                OVER VOTES                            PRECINCT 41                                            01 
01070040008000000000000000000000000000000000000REP       Governor                                                OVER VOTES                            PRECINCT 42                                            01 
01070040009000000000000000000000000000000000000REP       Governor                                                OVER VOTES                            PRECINCT 43                                            01 
01070050001000016000011000005000000000000000000REP       Governor                                                UNDER VOTES                           PRECINCT 11                                            01 
01070050002000006000001000005000000000000000000REP       Governor                                                UNDER VOTES                           PRECINCT 12                                            01 
01070050003000015000010000005000000000000000000REP       Governor                                                UNDER VOTES                           PRECINCT 21                                            01 
01070050004000011000001000010000000000000000000REP       Governor                                                UNDER VOTES                           PRECINCT 22                                            01 
01070050005000017000014000003000000000000000000REP       Governor                                                UNDER VOTES                           PRECINCT 31                                            01 
01070050006000011000005000006000000000000000000REP       Governor                                                UNDER VOTES                           PRECINCT 32                                            01 
01070050007000010000003000007000000000000000000REP       Governor                                                UNDER VOTES                           PRECINCT 41                                            01 
01070050008000004000003000001000000000000000000REP       Governor                                                UNDER VOTES                           PRECINCT 42                                            01 
01070050009000006000005000001000000000000000000REP       Governor                                                UNDER VOTES                           PRECINCT 43                                            01 
01080010001000030000019000011000000000000000000REP       Lieutenant Governor                                     Scott Milder                          PRECINCT 11                                            01 
01080010002000024000007000017000000000000000000REP       Lieutenant Governor                                     Scott Milder                          PRECINCT 12                                            01 
01080010003000053000029000024000000000000000000REP       Lieutenant Governor                                     Scott Milder                          PRECINCT 21                                            01 
01080010004000011000003000008000000000000000000REP       Lieutenant Governor                                     Scott Milder                          PRECINCT 22                                            01 
01080010005000069000043000026000000000000000000REP       Lieutenant Governor                                     Scott Milder                          PRECINCT 31                                            01 
01080010006000053000021000032000000000000000000REP       Lieutenant Governor                                     Scott Milder                          PRECINCT 32                                            01 
01080010007000030000012000018000000000000000000REP       Lieutenant Governor                                     Scott Milder                          PRECINCT 41                                            01 
01080010008000023000005000018000000000000000000REP       Lieutenant Governor                                     Scott Milder                          PRECINCT 42                                            01 
01080010009000017000010000007000000000000000000REP       Lieutenant Governor                                     Scott Milder                          PRECINCT 43                                            01 
01080020001000076000045000031000000000000000000REP       Lieutenant Governor                                     Dan Patrick                           PRECINCT 11                                            01 
01080020002000049000018000031000000000000000000REP       Lieutenant Governor                                     Dan Patrick                           PRECINCT 12                                            01 
01080020003000119000070000049000000000000000000REP       Lieutenant Governor                                     Dan Patrick                           PRECINCT 21                                            01 
01080020004000023000007000016000000000000000000REP       Lieutenant Governor                                     Dan Patrick                           PRECINCT 22                                            01 
01080020005000113000065000048000000000000000000REP       Lieutenant Governor                                     Dan Patrick                           PRECINCT 31                                            01 
01080020006000118000047000071000000000000000000REP       Lieutenant Governor                                     Dan Patrick                           PRECINCT 32                                            01 
01080020007000091000035000056000000000000000000REP       Lieutenant Governor                                     Dan Patrick                           PRECINCT 41                                            01 
01080020008000091000014000077000000000000000000REP       Lieutenant Governor                                     Dan Patrick                           PRECINCT 42                                            01 
01080020009000079000038000041000000000000000000REP       Lieutenant Governor                                     Dan Patrick                           PRECINCT 43                                            01 
01080030001000000000000000000000000000000000000REP       Lieutenant Governor                                     OVER VOTES                            PRECINCT 11                                            01 
01080030002000000000000000000000000000000000000REP       Lieutenant Governor                                     OVER VOTES                            PRECINCT 12                                            01 
01080030003000000000000000000000000000000000000REP       Lieutenant Governor                                     OVER VOTES                            PRECINCT 21                                            01 
01080030004000000000000000000000000000000000000REP       Lieutenant Governor                                     OVER VOTES                            PRECINCT 22                                            01 
01080030005000000000000000000000000000000000000REP       Lieutenant Governor                                     OVER VOTES                            PRECINCT 31                                            01 
01080030006000000000000000000000000000000000000REP       Lieutenant Governor                                     OVER VOTES                            PRECINCT 32                                            01 
01080030007000000000000000000000000000000000000REP       Lieutenant Governor                                     OVER VOTES                            PRECINCT 41                                            01 
01080030008000000000000000000000000000000000000REP       Lieutenant Governor                                     OVER VOTES                            PRECINCT 42                                            01 
01080030009000000000000000000000000000000000000REP       Lieutenant Governor                                     OVER VOTES                            PRECINCT 43                                            01 
01080040001000018000014000004000000000000000000REP       Lieutenant Governor                                     UNDER VOTES                           PRECINCT 11                                            01 
01080040002000004000000000004000000000000000000REP       Lieutenant Governor                                     UNDER VOTES                           PRECINCT 12                                            01 
01080040003000015000010000005000000000000000000REP       Lieutenant Governor                                     UNDER VOTES                           PRECINCT 21                                            01 
01080040004000013000000000013000000000000000000REP       Lieutenant Governor                                     UNDER VOTES                           PRECINCT 22                                            01 
01080040005000020000015000005000000000000000000REP       Lieutenant Governor                                     UNDER VOTES                           PRECINCT 31                                            01 
01080040006000014000005000009000000000000000000REP       Lieutenant Governor                                     UNDER VOTES                           PRECINCT 32                                            01 
01080040007000013000005000008000000000000000000REP       Lieutenant Governor                                     UNDER VOTES                           PRECINCT 41                                            01 
01080040008000010000004000006000000000000000000REP       Lieutenant Governor                                     UNDER VOTES                           PRECINCT 42                                            01 
01080040009000008000005000003000000000000000000REP       Lieutenant Governor                                     UNDER VOTES                           PRECINCT 43                                            01 
01090010001000081000048000033000000000000000000REP       Attorney General                                        Ken Paxton                            PRECINCT 11                                            01 
01090010002000062000023000039000000000000000000REP       Attorney General                                        Ken Paxton                            PRECINCT 12                                            01 
01090010003000128000073000055000000000000000000REP       Attorney General                                        Ken Paxton                            PRECINCT 21                                            01 
01090010004000028000006000022000000000000000000REP       Attorney General                                        Ken Paxton                            PRECINCT 22                                            01 
01090010005000136000081000055000000000000000000REP       Attorney General                                        Ken Paxton                            PRECINCT 31                                            01 
01090010006000126000053000073000000000000000000REP       Attorney General                                        Ken Paxton                            PRECINCT 32                                            01 
01090010007000088000034000054000000000000000000REP       Attorney General                                        Ken Paxton                            PRECINCT 41                                            01 
01090010008000095000016000079000000000000000000REP       Attorney General                                        Ken Paxton                            PRECINCT 42                                            01 
01090010009000076000036000040000000000000000000REP       Attorney General                                        Ken Paxton                            PRECINCT 43                                            01 
01090020001000000000000000000000000000000000000REP       Attorney General                                        OVER VOTES                            PRECINCT 11                                            01 
01090020002000000000000000000000000000000000000REP       Attorney General                                        OVER VOTES                            PRECINCT 12                                            01 
01090020003000000000000000000000000000000000000REP       Attorney General                                        OVER VOTES                            PRECINCT 21                                            01 
01090020004000000000000000000000000000000000000REP       Attorney General                                        OVER VOTES                            PRECINCT 22                                            01 
01090020005000000000000000000000000000000000000REP       Attorney General                                        OVER VOTES                            PRECINCT 31                                            01 
01090020006000000000000000000000000000000000000REP       Attorney General                                        OVER VOTES                            PRECINCT 32                                            01 
01090020007000000000000000000000000000000000000REP       Attorney General                                        OVER VOTES                            PRECINCT 41                                            01 
01090020008000000000000000000000000000000000000REP       Attorney General                                        OVER VOTES                            PRECINCT 42                                            01 
01090020009000000000000000000000000000000000000REP       Attorney General                                        OVER VOTES                            PRECINCT 43                                            01 
01090030001000043000030000013000000000000000000REP       Attorney General                                        UNDER VOTES                           PRECINCT 11                                            01 
01090030002000015000002000013000000000000000000REP       Attorney General                                        UNDER VOTES                           PRECINCT 12                                            01 
01090030003000059000036000023000000000000000000REP       Attorney General                                        UNDER VOTES                           PRECINCT 21                                            01 
01090030004000019000004000015000000000000000000REP       Attorney General                                        UNDER VOTES                           PRECINCT 22                                            01 
01090030005000066000042000024000000000000000000REP       Attorney General                                        UNDER VOTES                           PRECINCT 31                                            01 
01090030006000059000020000039000000000000000000REP       Attorney General                                        UNDER VOTES                           PRECINCT 32                                            01 
01090030007000046000018000028000000000000000000REP       Attorney General                                        UNDER VOTES                           PRECINCT 41                                            01 
01090030008000029000007000022000000000000000000REP       Attorney General                                        UNDER VOTES                           PRECINCT 42                                            01 
01090030009000028000017000011000000000000000000REP       Attorney General                                        UNDER VOTES                           PRECINCT 43                                            01 
01100010001000079000047000032000000000000000000REP       Comptroller of Public Accounts                          Glenn Hegar                           PRECINCT 11                                            01 
01100010002000062000022000040000000000000000000REP       Comptroller of Public Accounts                          Glenn Hegar                           PRECINCT 12                                            01 
01100010003000131000075000056000000000000000000REP       Comptroller of Public Accounts                          Glenn Hegar                           PRECINCT 21                                            01 
01100010004000027000006000021000000000000000000REP       Comptroller of Public Accounts                          Glenn Hegar                           PRECINCT 22                                            01 
01100010005000133000075000058000000000000000000REP       Comptroller of Public Accounts                          Glenn Hegar                           PRECINCT 31                                            01 
01100010006000129000053000076000000000000000000REP       Comptroller of Public Accounts                          Glenn Hegar                           PRECINCT 32                                            01 
01100010007000094000039000055000000000000000000REP       Comptroller of Public Accounts                          Glenn Hegar                           PRECINCT 41                                            01 
01100010008000099000017000082000000000000000000REP       Comptroller of Public Accounts                          Glenn Hegar                           PRECINCT 42                                            01 
01100010009000073000036000037000000000000000000REP       Comptroller of Public Accounts                          Glenn Hegar                           PRECINCT 43                                            01 
01100020001000000000000000000000000000000000000REP       Comptroller of Public Accounts                          OVER VOTES                            PRECINCT 11                                            01 
01100020002000000000000000000000000000000000000REP       Comptroller of Public Accounts                          OVER VOTES                            PRECINCT 12                                            01 
01100020003000000000000000000000000000000000000REP       Comptroller of Public Accounts                          OVER VOTES                            PRECINCT 21                                            01 
01100020004000000000000000000000000000000000000REP       Comptroller of Public Accounts                          OVER VOTES                            PRECINCT 22                                            01 
01100020005000000000000000000000000000000000000REP       Comptroller of Public Accounts                          OVER VOTES                            PRECINCT 31                                            01 
01100020006000000000000000000000000000000000000REP       Comptroller of Public Accounts                          OVER VOTES                            PRECINCT 32                                            01 
01100020007000000000000000000000000000000000000REP       Comptroller of Public Accounts                          OVER VOTES                            PRECINCT 41                                            01 
01100020008000000000000000000000000000000000000REP       Comptroller of Public Accounts                          OVER VOTES                            PRECINCT 42                                            01 
01100020009000000000000000000000000000000000000REP       Comptroller of Public Accounts                          OVER VOTES                            PRECINCT 43                                            01 
01100030001000045000031000014000000000000000000REP       Comptroller of Public Accounts                          UNDER VOTES                           PRECINCT 11                                            01 
01100030002000015000003000012000000000000000000REP       Comptroller of Public Accounts                          UNDER VOTES                           PRECINCT 12                                            01 
01100030003000056000034000022000000000000000000REP       Comptroller of Public Accounts                          UNDER VOTES                           PRECINCT 21                                            01 
01100030004000020000004000016000000000000000000REP       Comptroller of Public Accounts                          UNDER VOTES                           PRECINCT 22                                            01 
01100030005000069000048000021000000000000000000REP       Comptroller of Public Accounts                          UNDER VOTES                           PRECINCT 31                                            01 
01100030006000056000020000036000000000000000000REP       Comptroller of Public Accounts                          UNDER VOTES                           PRECINCT 32                                            01 
01100030007000040000013000027000000000000000000REP       Comptroller of Public Accounts                          UNDER VOTES                           PRECINCT 41                                            01 
01100030008000025000006000019000000000000000000REP       Comptroller of Public Accounts                          UNDER VOTES                           PRECINCT 42                                            01 
01100030009000031000017000014000000000000000000REP       Comptroller of Public Accounts                          UNDER VOTES                           PRECINCT 43                                            01 
01110010001000007000004000003000000000000000000REP       Commissioner of the General Land Office                 Rick Range                            PRECINCT 11                                            01 
01110010002000006000003000003000000000000000000REP       Commissioner of the General Land Office                 Rick Range                            PRECINCT 12                                            01 
01110010003000017000014000003000000000000000000REP       Commissioner of the General Land Office                 Rick Range                            PRECINCT 21                                            01 
01110010004000003000000000003000000000000000000REP       Commissioner of the General Land Office                 Rick Range                            PRECINCT 22                                            01 
01110010005000020000011000009000000000000000000REP       Commissioner of the General Land Office                 Rick Range                            PRECINCT 31                                            01 
01110010006000012000003000009000000000000000000REP       Commissioner of the General Land Office                 Rick Range                            PRECINCT 32                                            01 
01110010007000007000004000003000000000000000000REP       Commissioner of the General Land Office                 Rick Range                            PRECINCT 41                                            01 
01110010008000015000001000014000000000000000000REP       Commissioner of the General Land Office                 Rick Range                            PRECINCT 42                                            01 
01110010009000008000004000004000000000000000000REP       Commissioner of the General Land Office                 Rick Range                            PRECINCT 43                                            01 
01110020001000051000030000021000000000000000000REP       Commissioner of the General Land Office                 George P. Bush                        PRECINCT 11                                            01 
01110020002000044000018000026000000000000000000REP       Commissioner of the General Land Office                 George P. Bush                        PRECINCT 12                                            01 
01110020003000101000062000039000000000000000000REP       Commissioner of the General Land Office                 George P. Bush                        PRECINCT 21                                            01 
01110020004000021000007000014000000000000000000REP       Commissioner of the General Land Office                 George P. Bush                        PRECINCT 22                                            01 
01110020005000119000070000049000000000000000000REP       Commissioner of the General Land Office                 George P. Bush                        PRECINCT 31                                            01 
01110020006000116000050000066000000000000000000REP       Commissioner of the General Land Office                 George P. Bush                        PRECINCT 32                                            01 
01110020007000072000030000042000000000000000000REP       Commissioner of the General Land Office                 George P. Bush                        PRECINCT 41                                            01 
01110020008000074000009000065000000000000000000REP       Commissioner of the General Land Office                 George P. Bush                        PRECINCT 42                                            01 
01110020009000067000034000033000000000000000000REP       Commissioner of the General Land Office                 George P. Bush                        PRECINCT 43                                            01 
01110030001000033000019000014000000000000000000REP       Commissioner of the General Land Office                 Jerry Patterson                       PRECINCT 11                                            01 
01110030002000017000003000014000000000000000000REP       Commissioner of the General Land Office                 Jerry Patterson                       PRECINCT 12                                            01 
01110030003000038000018000020000000000000000000REP       Commissioner of the General Land Office                 Jerry Patterson                       PRECINCT 21                                            01 
01110030004000006000001000005000000000000000000REP       Commissioner of the General Land Office                 Jerry Patterson                       PRECINCT 22                                            01 
01110030005000034000018000016000000000000000000REP       Commissioner of the General Land Office                 Jerry Patterson                       PRECINCT 31                                            01 
01110030006000032000012000020000000000000000000REP       Commissioner of the General Land Office                 Jerry Patterson                       PRECINCT 32                                            01 
01110030007000031000009000022000000000000000000REP       Commissioner of the General Land Office                 Jerry Patterson                       PRECINCT 41                                            01 
01110030008000025000009000016000000000000000000REP       Commissioner of the General Land Office                 Jerry Patterson                       PRECINCT 42                                            01 
01110030009000016000008000008000000000000000000REP       Commissioner of the General Land Office                 Jerry Patterson                       PRECINCT 43                                            01 
01110040001000009000008000001000000000000000000REP       Commissioner of the General Land Office                 Davey Edwards                         PRECINCT 11                                            01 
01110040002000002000000000002000000000000000000REP       Commissioner of the General Land Office                 Davey Edwards                         PRECINCT 12                                            01 
01110040003000007000001000006000000000000000000REP       Commissioner of the General Land Office                 Davey Edwards                         PRECINCT 21                                            01 
01110040004000004000002000002000000000000000000REP       Commissioner of the General Land Office                 Davey Edwards                         PRECINCT 22                                            01 
01110040005000006000003000003000000000000000000REP       Commissioner of the General Land Office                 Davey Edwards                         PRECINCT 31                                            01 
01110040006000008000003000005000000000000000000REP       Commissioner of the General Land Office                 Davey Edwards                         PRECINCT 32                                            01 
01110040007000008000003000005000000000000000000REP       Commissioner of the General Land Office                 Davey Edwards                         PRECINCT 41                                            01 
01110040008000005000000000005000000000000000000REP       Commissioner of the General Land Office                 Davey Edwards                         PRECINCT 42                                            01 
01110040009000005000001000004000000000000000000REP       Commissioner of the General Land Office                 Davey Edwards                         PRECINCT 43                                            01 
01110050001000000000000000000000000000000000000REP       Commissioner of the General Land Office                 OVER VOTES                            PRECINCT 11                                            01 
01110050002000000000000000000000000000000000000REP       Commissioner of the General Land Office                 OVER VOTES                            PRECINCT 12                                            01 
01110050003000000000000000000000000000000000000REP       Commissioner of the General Land Office                 OVER VOTES                            PRECINCT 21                                            01 
01110050004000000000000000000000000000000000000REP       Commissioner of the General Land Office                 OVER VOTES                            PRECINCT 22                                            01 
01110050005000000000000000000000000000000000000REP       Commissioner of the General Land Office                 OVER VOTES                            PRECINCT 31                                            01 
01110050006000000000000000000000000000000000000REP       Commissioner of the General Land Office                 OVER VOTES                            PRECINCT 32                                            01 
01110050007000000000000000000000000000000000000REP       Commissioner of the General Land Office                 OVER VOTES                            PRECINCT 41                                            01 
01110050008000000000000000000000000000000000000REP       Commissioner of the General Land Office                 OVER VOTES                            PRECINCT 42                                            01 
01110050009000000000000000000000000000000000000REP       Commissioner of the General Land Office                 OVER VOTES                            PRECINCT 43                                            01 
01110060001000024000017000007000000000000000000REP       Commissioner of the General Land Office                 UNDER VOTES                           PRECINCT 11                                            01 
01110060002000008000001000007000000000000000000REP       Commissioner of the General Land Office                 UNDER VOTES                           PRECINCT 12                                            01 
01110060003000024000014000010000000000000000000REP       Commissioner of the General Land Office                 UNDER VOTES                           PRECINCT 21                                            01 
01110060004000013000000000013000000000000000000REP       Commissioner of the General Land Office                 UNDER VOTES                           PRECINCT 22                                            01 
01110060005000023000021000002000000000000000000REP       Commissioner of the General Land Office                 UNDER VOTES                           PRECINCT 31                                            01 
01110060006000018000005000013000000000000000000REP       Commissioner of the General Land Office                 UNDER VOTES                           PRECINCT 32                                            01 
01110060007000016000006000010000000000000000000REP       Commissioner of the General Land Office                 UNDER VOTES                           PRECINCT 41                                            01 
01110060008000005000004000001000000000000000000REP       Commissioner of the General Land Office                 UNDER VOTES                           PRECINCT 42                                            01 
01110060009000008000006000002000000000000000000REP       Commissioner of the General Land Office                 UNDER VOTES                           PRECINCT 43                                            01 
01120010001000022000012000010000000000000000000REP       Commissioner of Agriculture                             Jim Hogan                             PRECINCT 11                                            01 
01120010002000026000011000015000000000000000000REP       Commissioner of Agriculture                             Jim Hogan                             PRECINCT 12                                            01 
01120010003000044000025000019000000000000000000REP       Commissioner of Agriculture                             Jim Hogan                             PRECINCT 21                                            01 
01120010004000007000000000007000000000000000000REP       Commissioner of Agriculture                             Jim Hogan                             PRECINCT 22                                            01 
01120010005000039000024000015000000000000000000REP       Commissioner of Agriculture                             Jim Hogan                             PRECINCT 31                                            01 
01120010006000056000018000038000000000000000000REP       Commissioner of Agriculture                             Jim Hogan                             PRECINCT 32                                            01 
01120010007000030000012000018000000000000000000REP       Commissioner of Agriculture                             Jim Hogan                             PRECINCT 41                                            01 
01120010008000039000004000035000000000000000000REP       Commissioner of Agriculture                             Jim Hogan                             PRECINCT 42                                            01 
01120010009000024000010000014000000000000000000REP       Commissioner of Agriculture                             Jim Hogan                             PRECINCT 43                                            01 
01120020001000019000011000008000000000000000000REP       Commissioner of Agriculture                             Trey Blocker                          PRECINCT 11                                            01 
01120020002000012000002000010000000000000000000REP       Commissioner of Agriculture                             Trey Blocker                          PRECINCT 12                                            01 
01120020003000032000018000014000000000000000000REP       Commissioner of Agriculture                             Trey Blocker                          PRECINCT 21                                            01 
01120020004000005000003000002000000000000000000REP       Commissioner of Agriculture                             Trey Blocker                          PRECINCT 22                                            01 
01120020005000036000024000012000000000000000000REP       Commissioner of Agriculture                             Trey Blocker                          PRECINCT 31                                            01 
01120020006000030000015000015000000000000000000REP       Commissioner of Agriculture                             Trey Blocker                          PRECINCT 32                                            01 
01120020007000027000009000018000000000000000000REP       Commissioner of Agriculture                             Trey Blocker                          PRECINCT 41                                            01 
01120020008000020000002000018000000000000000000REP       Commissioner of Agriculture                             Trey Blocker                          PRECINCT 42                                            01 
01120020009000021000010000011000000000000000000REP       Commissioner of Agriculture                             Trey Blocker                          PRECINCT 43                                            01 
01120030001000044000027000017000000000000000000REP       Commissioner of Agriculture                             Sid Miller                            PRECINCT 11                                            01 
01120030002000029000011000018000000000000000000REP       Commissioner of Agriculture                             Sid Miller                            PRECINCT 12                                            01 
01120030003000072000040000032000000000000000000REP       Commissioner of Agriculture                             Sid Miller                            PRECINCT 21                                            01 
01120030004000013000004000009000000000000000000REP       Commissioner of Agriculture                             Sid Miller                            PRECINCT 22                                            01 
01120030005000089000045000044000000000000000000REP       Commissioner of Agriculture                             Sid Miller                            PRECINCT 31                                            01 
01120030006000069000028000041000000000000000000REP       Commissioner of Agriculture                             Sid Miller                            PRECINCT 32                                            01 
01120030007000043000016000027000000000000000000REP       Commissioner of Agriculture                             Sid Miller                            PRECINCT 41                                            01 
01120030008000052000013000039000000000000000000REP       Commissioner of Agriculture                             Sid Miller                            PRECINCT 42                                            01 
01120030009000042000022000020000000000000000000REP       Commissioner of Agriculture                             Sid Miller                            PRECINCT 43                                            01 
01120040001000000000000000000000000000000000000REP       Commissioner of Agriculture                             OVER VOTES                            PRECINCT 11                                            01 
01120040002000000000000000000000000000000000000REP       Commissioner of Agriculture                             OVER VOTES                            PRECINCT 12                                            01 
01120040003000000000000000000000000000000000000REP       Commissioner of Agriculture                             OVER VOTES                            PRECINCT 21                                            01 
01120040004000000000000000000000000000000000000REP       Commissioner of Agriculture                             OVER VOTES                            PRECINCT 22                                            01 
01120040005000000000000000000000000000000000000REP       Commissioner of Agriculture                             OVER VOTES                            PRECINCT 31                                            01 
01120040006000000000000000000000000000000000000REP       Commissioner of Agriculture                             OVER VOTES                            PRECINCT 32                                            01 
01120040007000000000000000000000000000000000000REP       Commissioner of Agriculture                             OVER VOTES                            PRECINCT 41                                            01 
01120040008000000000000000000000000000000000000REP       Commissioner of Agriculture                             OVER VOTES                            PRECINCT 42                                            01 
01120040009000000000000000000000000000000000000REP       Commissioner of Agriculture                             OVER VOTES                            PRECINCT 43                                            01 
01120050001000039000028000011000000000000000000REP       Commissioner of Agriculture                             UNDER VOTES                           PRECINCT 11                                            01 
01120050002000010000001000009000000000000000000REP       Commissioner of Agriculture                             UNDER VOTES                           PRECINCT 12                                            01 
01120050003000039000026000013000000000000000000REP       Commissioner of Agriculture                             UNDER VOTES                           PRECINCT 21                                            01 
01120050004000022000003000019000000000000000000REP       Commissioner of Agriculture                             UNDER VOTES                           PRECINCT 22                                            01 
01120050005000038000030000008000000000000000000REP       Commissioner of Agriculture                             UNDER VOTES                           PRECINCT 31                                            01 
01120050006000031000012000019000000000000000000REP       Commissioner of Agriculture                             UNDER VOTES                           PRECINCT 32                                            01 
01120050007000034000015000019000000000000000000REP       Commissioner of Agriculture                             UNDER VOTES                           PRECINCT 41                                            01 
01120050008000013000004000009000000000000000000REP       Commissioner of Agriculture                             UNDER VOTES                           PRECINCT 42                                            01 
01120050009000017000011000006000000000000000000REP       Commissioner of Agriculture                             UNDER VOTES                           PRECINCT 43                                            01 
01130010001000017000009000008000000000000000000REP       Railroad Commissioner                                   Weston Martinez                       PRECINCT 11                                            01 
01130010002000014000004000010000000000000000000REP       Railroad Commissioner                                   Weston Martinez                       PRECINCT 12                                            01 
01130010003000038000022000016000000000000000000REP       Railroad Commissioner                                   Weston Martinez                       PRECINCT 21                                            01 
01130010004000011000004000007000000000000000000REP       Railroad Commissioner                                   Weston Martinez                       PRECINCT 22                                            01 
01130010005000033000022000011000000000000000000REP       Railroad Commissioner                                   Weston Martinez                       PRECINCT 31                                            01 
01130010006000038000015000023000000000000000000REP       Railroad Commissioner                                   Weston Martinez                       PRECINCT 32                                            01 
01130010007000029000012000017000000000000000000REP       Railroad Commissioner                                   Weston Martinez                       PRECINCT 41                                            01 
01130010008000032000005000027000000000000000000REP       Railroad Commissioner                                   Weston Martinez                       PRECINCT 42                                            01 
01130010009000010000006000004000000000000000000REP       Railroad Commissioner                                   Weston Martinez                       PRECINCT 43                                            01 
01130020001000069000042000027000000000000000000REP       Railroad Commissioner                                   Christi Craddick                      PRECINCT 11                                            01 
01130020002000052000020000032000000000000000000REP       Railroad Commissioner                                   Christi Craddick                      PRECINCT 12                                            01 
01130020003000106000059000047000000000000000000REP       Railroad Commissioner                                   Christi Craddick                      PRECINCT 21                                            01 
01130020004000018000004000014000000000000000000REP       Railroad Commissioner                                   Christi Craddick                      PRECINCT 22                                            01 
01130020005000124000067000057000000000000000000REP       Railroad Commissioner                                   Christi Craddick                      PRECINCT 31                                            01 
01130020006000109000045000064000000000000000000REP       Railroad Commissioner                                   Christi Craddick                      PRECINCT 32                                            01 
01130020007000073000027000046000000000000000000REP       Railroad Commissioner                                   Christi Craddick                      PRECINCT 41                                            01 
01130020008000073000013000060000000000000000000REP       Railroad Commissioner                                   Christi Craddick                      PRECINCT 42                                            01 
01130020009000068000032000036000000000000000000REP       Railroad Commissioner                                   Christi Craddick                      PRECINCT 43                                            01 
01130030001000000000000000000000000000000000000REP       Railroad Commissioner                                   OVER VOTES                            PRECINCT 11                                            01 
01130030002000000000000000000000000000000000000REP       Railroad Commissioner                                   OVER VOTES                            PRECINCT 12                                            01 
01130030003000000000000000000000000000000000000REP       Railroad Commissioner                                   OVER VOTES                            PRECINCT 21                                            01 
01130030004000000000000000000000000000000000000REP       Railroad Commissioner                                   OVER VOTES                            PRECINCT 22                                            01 
01130030005000000000000000000000000000000000000REP       Railroad Commissioner                                   OVER VOTES                            PRECINCT 31                                            01 
01130030006000000000000000000000000000000000000REP       Railroad Commissioner                                   OVER VOTES                            PRECINCT 32                                            01 
01130030007000000000000000000000000000000000000REP       Railroad Commissioner                                   OVER VOTES                            PRECINCT 41                                            01 
01130030008000000000000000000000000000000000000REP       Railroad Commissioner                                   OVER VOTES                            PRECINCT 42                                            01 
01130030009000000000000000000000000000000000000REP       Railroad Commissioner                                   OVER VOTES                            PRECINCT 43                                            01 
01130040001000038000027000011000000000000000000REP       Railroad Commissioner                                   UNDER VOTES                           PRECINCT 11                                            01 
01130040002000011000001000010000000000000000000REP       Railroad Commissioner                                   UNDER VOTES                           PRECINCT 12                                            01 
01130040003000043000028000015000000000000000000REP       Railroad Commissioner                                   UNDER VOTES                           PRECINCT 21                                            01 
01130040004000018000002000016000000000000000000REP       Railroad Commissioner                                   UNDER VOTES                           PRECINCT 22                                            01 
01130040005000045000034000011000000000000000000REP       Railroad Commissioner                                   UNDER VOTES                           PRECINCT 31                                            01 
01130040006000038000013000025000000000000000000REP       Railroad Commissioner                                   UNDER VOTES                           PRECINCT 32                                            01 
01130040007000032000013000019000000000000000000REP       Railroad Commissioner                                   UNDER VOTES                           PRECINCT 41                                            01 
01130040008000019000005000014000000000000000000REP       Railroad Commissioner                                   UNDER VOTES                           PRECINCT 42                                            01 
01130040009000026000015000011000000000000000000REP       Railroad Commissioner                                   UNDER VOTES                           PRECINCT 43                                            01 
01140010001000067000037000030000000000000000000REP       Justice, Supreme Court, Place 2                         Jimmy Blacklock                       PRECINCT 11                                            01 
01140010002000055000020000035000000000000000000REP       Justice, Supreme Court, Place 2                         Jimmy Blacklock                       PRECINCT 12                                            01 
01140010003000114000065000049000000000000000000REP       Justice, Supreme Court, Place 2                         Jimmy Blacklock                       PRECINCT 21                                            01 
01140010004000025000007000018000000000000000000REP       Justice, Supreme Court, Place 2                         Jimmy Blacklock                       PRECINCT 22                                            01 
01140010005000122000070000052000000000000000000REP       Justice, Supreme Court, Place 2                         Jimmy Blacklock                       PRECINCT 31                                            01 
01140010006000111000044000067000000000000000000REP       Justice, Supreme Court, Place 2                         Jimmy Blacklock                       PRECINCT 32                                            01 
01140010007000076000030000046000000000000000000REP       Justice, Supreme Court, Place 2                         Jimmy Blacklock                       PRECINCT 41                                            01 
01140010008000089000016000073000000000000000000REP       Justice, Supreme Court, Place 2                         Jimmy Blacklock                       PRECINCT 42                                            01 
01140010009000057000029000028000000000000000000REP       Justice, Supreme Court, Place 2                         Jimmy Blacklock                       PRECINCT 43                                            01 
01140020001000000000000000000000000000000000000REP       Justice, Supreme Court, Place 2                         OVER VOTES                            PRECINCT 11                                            01 
01140020002000000000000000000000000000000000000REP       Justice, Supreme Court, Place 2                         OVER VOTES                            PRECINCT 12                                            01 
01140020003000000000000000000000000000000000000REP       Justice, Supreme Court, Place 2                         OVER VOTES                            PRECINCT 21                                            01 
01140020004000000000000000000000000000000000000REP       Justice, Supreme Court, Place 2                         OVER VOTES                            PRECINCT 22                                            01 
01140020005000000000000000000000000000000000000REP       Justice, Supreme Court, Place 2                         OVER VOTES                            PRECINCT 31                                            01 
01140020006000000000000000000000000000000000000REP       Justice, Supreme Court, Place 2                         OVER VOTES                            PRECINCT 32                                            01 
01140020007000000000000000000000000000000000000REP       Justice, Supreme Court, Place 2                         OVER VOTES                            PRECINCT 41                                            01 
01140020008000000000000000000000000000000000000REP       Justice, Supreme Court, Place 2                         OVER VOTES                            PRECINCT 42                                            01 
01140020009000000000000000000000000000000000000REP       Justice, Supreme Court, Place 2                         OVER VOTES                            PRECINCT 43                                            01 
01140030001000057000041000016000000000000000000REP       Justice, Supreme Court, Place 2                         UNDER VOTES                           PRECINCT 11                                            01 
01140030002000022000005000017000000000000000000REP       Justice, Supreme Court, Place 2                         UNDER VOTES                           PRECINCT 12                                            01 
01140030003000073000044000029000000000000000000REP       Justice, Supreme Court, Place 2                         UNDER VOTES                           PRECINCT 21                                            01 
01140030004000022000003000019000000000000000000REP       Justice, Supreme Court, Place 2                         UNDER VOTES                           PRECINCT 22                                            01 
01140030005000080000053000027000000000000000000REP       Justice, Supreme Court, Place 2                         UNDER VOTES                           PRECINCT 31                                            01 
01140030006000075000029000046000000000000000000REP       Justice, Supreme Court, Place 2                         UNDER VOTES                           PRECINCT 32                                            01 
01140030007000058000022000036000000000000000000REP       Justice, Supreme Court, Place 2                         UNDER VOTES                           PRECINCT 41                                            01 
01140030008000035000007000028000000000000000000REP       Justice, Supreme Court, Place 2                         UNDER VOTES                           PRECINCT 42                                            01 
01140030009000047000024000023000000000000000000REP       Justice, Supreme Court, Place 2                         UNDER VOTES                           PRECINCT 43                                            01 
01150010001000069000040000029000000000000000000REP       Justice, Supreme Court, Place 4                         John Devine                           PRECINCT 11                                            01 
01150010002000057000021000036000000000000000000REP       Justice, Supreme Court, Place 4                         John Devine                           PRECINCT 12                                            01 
01150010003000112000064000048000000000000000000REP       Justice, Supreme Court, Place 4                         John Devine                           PRECINCT 21                                            01 
01150010004000022000006000016000000000000000000REP       Justice, Supreme Court, Place 4                         John Devine                           PRECINCT 22                                            01 
01150010005000122000069000053000000000000000000REP       Justice, Supreme Court, Place 4                         John Devine                           PRECINCT 31                                            01 
01150010006000110000044000066000000000000000000REP       Justice, Supreme Court, Place 4                         John Devine                           PRECINCT 32                                            01 
01150010007000073000028000045000000000000000000REP       Justice, Supreme Court, Place 4                         John Devine                           PRECINCT 41                                            01 
01150010008000089000016000073000000000000000000REP       Justice, Supreme Court, Place 4                         John Devine                           PRECINCT 42                                            01 
01150010009000059000029000030000000000000000000REP       Justice, Supreme Court, Place 4                         John Devine                           PRECINCT 43                                            01 
01150020001000000000000000000000000000000000000REP       Justice, Supreme Court, Place 4                         OVER VOTES                            PRECINCT 11                                            01 
01150020002000000000000000000000000000000000000REP       Justice, Supreme Court, Place 4                         OVER VOTES                            PRECINCT 12                                            01 
01150020003000000000000000000000000000000000000REP       Justice, Supreme Court, Place 4                         OVER VOTES                            PRECINCT 21                                            01 
01150020004000000000000000000000000000000000000REP       Justice, Supreme Court, Place 4                         OVER VOTES                            PRECINCT 22                                            01 
01150020005000000000000000000000000000000000000REP       Justice, Supreme Court, Place 4                         OVER VOTES                            PRECINCT 31                                            01 
01150020006000000000000000000000000000000000000REP       Justice, Supreme Court, Place 4                         OVER VOTES                            PRECINCT 32                                            01 
01150020007000000000000000000000000000000000000REP       Justice, Supreme Court, Place 4                         OVER VOTES                            PRECINCT 41                                            01 
01150020008000000000000000000000000000000000000REP       Justice, Supreme Court, Place 4                         OVER VOTES                            PRECINCT 42                                            01 
01150020009000000000000000000000000000000000000REP       Justice, Supreme Court, Place 4                         OVER VOTES                            PRECINCT 43                                            01 
01150030001000055000038000017000000000000000000REP       Justice, Supreme Court, Place 4                         UNDER VOTES                           PRECINCT 11                                            01 
01150030002000020000004000016000000000000000000REP       Justice, Supreme Court, Place 4                         UNDER VOTES                           PRECINCT 12                                            01 
01150030003000075000045000030000000000000000000REP       Justice, Supreme Court, Place 4                         UNDER VOTES                           PRECINCT 21                                            01 
01150030004000025000004000021000000000000000000REP       Justice, Supreme Court, Place 4                         UNDER VOTES                           PRECINCT 22                                            01 
01150030005000080000054000026000000000000000000REP       Justice, Supreme Court, Place 4                         UNDER VOTES                           PRECINCT 31                                            01 
01150030006000076000029000047000000000000000000REP       Justice, Supreme Court, Place 4                         UNDER VOTES                           PRECINCT 32                                            01 
01150030007000061000024000037000000000000000000REP       Justice, Supreme Court, Place 4                         UNDER VOTES                           PRECINCT 41                                            01 
01150030008000035000007000028000000000000000000REP       Justice, Supreme Court, Place 4                         UNDER VOTES                           PRECINCT 42                                            01 
01150030009000045000024000021000000000000000000REP       Justice, Supreme Court, Place 4                         UNDER VOTES                           PRECINCT 43                                            01 
01160010001000066000038000028000000000000000000REP       Justice, Supreme Court, Place 6                         Jeff Brown                            PRECINCT 11                                            01 
01160010002000057000021000036000000000000000000REP       Justice, Supreme Court, Place 6                         Jeff Brown                            PRECINCT 12                                            01 
01160010003000110000062000048000000000000000000REP       Justice, Supreme Court, Place 6                         Jeff Brown                            PRECINCT 21                                            01 
01160010004000023000007000016000000000000000000REP       Justice, Supreme Court, Place 6                         Jeff Brown                            PRECINCT 22                                            01 
01160010005000122000070000052000000000000000000REP       Justice, Supreme Court, Place 6                         Jeff Brown                            PRECINCT 31                                            01 
01160010006000107000043000064000000000000000000REP       Justice, Supreme Court, Place 6                         Jeff Brown                            PRECINCT 32                                            01 
01160010007000070000025000045000000000000000000REP       Justice, Supreme Court, Place 6                         Jeff Brown                            PRECINCT 41                                            01 
01160010008000089000016000073000000000000000000REP       Justice, Supreme Court, Place 6                         Jeff Brown                            PRECINCT 42                                            01 
01160010009000059000030000029000000000000000000REP       Justice, Supreme Court, Place 6                         Jeff Brown                            PRECINCT 43                                            01 
01160020001000000000000000000000000000000000000REP       Justice, Supreme Court, Place 6                         OVER VOTES                            PRECINCT 11                                            01 
01160020002000000000000000000000000000000000000REP       Justice, Supreme Court, Place 6                         OVER VOTES                            PRECINCT 12                                            01 
01160020003000000000000000000000000000000000000REP       Justice, Supreme Court, Place 6                         OVER VOTES                            PRECINCT 21                                            01 
01160020004000000000000000000000000000000000000REP       Justice, Supreme Court, Place 6                         OVER VOTES                            PRECINCT 22                                            01 
01160020005000000000000000000000000000000000000REP       Justice, Supreme Court, Place 6                         OVER VOTES                            PRECINCT 31                                            01 
01160020006000000000000000000000000000000000000REP       Justice, Supreme Court, Place 6                         OVER VOTES                            PRECINCT 32                                            01 
01160020007000000000000000000000000000000000000REP       Justice, Supreme Court, Place 6                         OVER VOTES                            PRECINCT 41                                            01 
01160020008000000000000000000000000000000000000REP       Justice, Supreme Court, Place 6                         OVER VOTES                            PRECINCT 42                                            01 
01160020009000000000000000000000000000000000000REP       Justice, Supreme Court, Place 6                         OVER VOTES                            PRECINCT 43                                            01 
01160030001000058000040000018000000000000000000REP       Justice, Supreme Court, Place 6                         UNDER VOTES                           PRECINCT 11                                            01 
01160030002000020000004000016000000000000000000REP       Justice, Supreme Court, Place 6                         UNDER VOTES                           PRECINCT 12                                            01 
01160030003000077000047000030000000000000000000REP       Justice, Supreme Court, Place 6                         UNDER VOTES                           PRECINCT 21                                            01 
01160030004000024000003000021000000000000000000REP       Justice, Supreme Court, Place 6                         UNDER VOTES                           PRECINCT 22                                            01 
01160030005000080000053000027000000000000000000REP       Justice, Supreme Court, Place 6                         UNDER VOTES                           PRECINCT 31                                            01 
