01010010001000000          REGISTERED VOTERS - TOTAL                               REGISTERED VOTERS - TOTAL             PRECINCT 101                                           00 
01010010002000000          REGISTERED VOTERS - TOTAL                               REGISTERED VOTERS - TOTAL             PRECINCT 102                                           00 
01010010003000000          REGISTERED VOTERS - TOTAL                               REGISTERED VOTERS - TOTAL             PRECINCT 103                                           00 
01010010004000000          REGISTERED VOTERS - TOTAL                               REGISTERED VOTERS - TOTAL             PRECINCT 104                                           00 
01010010005000000          REGISTERED VOTERS - TOTAL                               REGISTERED VOTERS - TOTAL             PRECINCT 105                                           00 
01010010006000000          REGISTERED VOTERS - TOTAL                               REGISTERED VOTERS - TOTAL             PRECINCT 106                                           00 
01010010007000000          REGISTERED VOTERS - TOTAL                               REGISTERED VOTERS - TOTAL             PRECINCT 107                                           00 
01010010008000000          REGISTERED VOTERS - TOTAL                               REGISTERED VOTERS - TOTAL             PRECINCT 108                                           00 
01010010009000000          REGISTERED VOTERS - TOTAL                               REGISTERED VOTERS - TOTAL             PRECINCT 201                                           00 
01010010010000000          REGISTERED VOTERS - TOTAL                               REGISTERED VOTERS - TOTAL             PRECINCT 202                                           00 
01010010011000000          REGISTERED VOTERS - TOTAL                               REGISTERED VOTERS - TOTAL             PRECINCT 203                                           00 
01010010012000000          REGISTERED VOTERS - TOTAL                               REGISTERED VOTERS - TOTAL             PRECINCT 204                                           00 
01010010013000000          REGISTERED VOTERS - TOTAL                               REGISTERED VOTERS - TOTAL             PRECINCT 205                                           00 
01010010014000000          REGISTERED VOTERS - TOTAL                               REGISTERED VOTERS - TOTAL             PRECINCT 206                                           00 
01010010015000000          REGISTERED VOTERS - TOTAL                               REGISTERED VOTERS - TOTAL             PRECINCT 207                                           00 
01010010016000000          REGISTERED VOTERS - TOTAL                               REGISTERED VOTERS - TOTAL             PRECINCT 208                                           00 
01010010017000000          REGISTERED VOTERS - TOTAL                               REGISTERED VOTERS - TOTAL             PRECINCT 209                                           00 
01010010018000000          REGISTERED VOTERS - TOTAL                               REGISTERED VOTERS - TOTAL             PRECINCT 210                                           00 
01010010019000000          REGISTERED VOTERS - TOTAL                               REGISTERED VOTERS - TOTAL             PRECINCT 301                                           00 
01010010020000000          REGISTERED VOTERS - TOTAL                               REGISTERED VOTERS - TOTAL             PRECINCT 302                                           00 
01010010021000000          REGISTERED VOTERS - TOTAL                               REGISTERED VOTERS - TOTAL             PRECINCT 303                                           00 
01010010022000000          REGISTERED VOTERS - TOTAL                               REGISTERED VOTERS - TOTAL             PRECINCT 304                                           00 
01010010023000000          REGISTERED VOTERS - TOTAL                               REGISTERED VOTERS - TOTAL             PRECINCT 305                                           00 
01010010024000000          REGISTERED VOTERS - TOTAL                               REGISTERED VOTERS - TOTAL             PRECINCT 306                                           00 
01010010025000000          REGISTERED VOTERS - TOTAL                               REGISTERED VOTERS - TOTAL             PRECINCT 307                                           00 
01010010026000000          REGISTERED VOTERS - TOTAL                               REGISTERED VOTERS - TOTAL             PRECINCT 308                                           00 
01010010027000000          REGISTERED VOTERS - TOTAL                               REGISTERED VOTERS - TOTAL             PRECINCT 309                                           00 
01010010028000000          REGISTERED VOTERS - TOTAL                               REGISTERED VOTERS - TOTAL             PRECINCT 401                                           00 
01010010029000000          REGISTERED VOTERS - TOTAL                               REGISTERED VOTERS - TOTAL             PRECINCT 402                                           00 
01010010030000000          REGISTERED VOTERS - TOTAL                               REGISTERED VOTERS - TOTAL             PRECINCT 403                                           00 
01010010031000000          REGISTERED VOTERS - TOTAL                               REGISTERED VOTERS - TOTAL             PRECINCT 404                                           00 
01010010032000000          REGISTERED VOTERS - TOTAL                               REGISTERED VOTERS - TOTAL             PRECINCT 405                                           00 
01010010033000000          REGISTERED VOTERS - TOTAL                               REGISTERED VOTERS - TOTAL             PRECINCT 406                                           00 
01010010034000000          REGISTERED VOTERS - TOTAL                               REGISTERED VOTERS - TOTAL             PRECINCT 407                                           00 
01010010035000000          REGISTERED VOTERS - TOTAL                               REGISTERED VOTERS - TOTAL             PRECINCT 408                                           00 
01010010036000000          REGISTERED VOTERS - TOTAL                               REGISTERED VOTERS - TOTAL             PRECINCT 409                                           00 
01020010001000564          BALLOTS CAST - TOTAL                                    BALLOTS CAST - TOTAL                  PRECINCT 101                                           00 
01020010002000236          BALLOTS CAST - TOTAL                                    BALLOTS CAST - TOTAL                  PRECINCT 102                                           00 
01020010003000109          BALLOTS CAST - TOTAL                                    BALLOTS CAST - TOTAL                  PRECINCT 103                                           00 
01020010004000196          BALLOTS CAST - TOTAL                                    BALLOTS CAST - TOTAL                  PRECINCT 104                                           00 
01020010005000892          BALLOTS CAST - TOTAL                                    BALLOTS CAST - TOTAL                  PRECINCT 105                                           00 
01020010006000437          BALLOTS CAST - TOTAL                                    BALLOTS CAST - TOTAL                  PRECINCT 106                                           00 
01020010007000407          BALLOTS CAST - TOTAL                                    BALLOTS CAST - TOTAL                  PRECINCT 107                                           00 
01020010008000323          BALLOTS CAST - TOTAL                                    BALLOTS CAST - TOTAL                  PRECINCT 108                                           00 
01020010009000571          BALLOTS CAST - TOTAL                                    BALLOTS CAST - TOTAL                  PRECINCT 201                                           00 
01020010010000517          BALLOTS CAST - TOTAL                                    BALLOTS CAST - TOTAL                  PRECINCT 202                                           00 
01020010011000109          BALLOTS CAST - TOTAL                                    BALLOTS CAST - TOTAL                  PRECINCT 203                                           00 
01020010012000221          BALLOTS CAST - TOTAL                                    BALLOTS CAST - TOTAL                  PRECINCT 204                                           00 
01020010013000763          BALLOTS CAST - TOTAL                                    BALLOTS CAST - TOTAL                  PRECINCT 205                                           00 
01020010014000295          BALLOTS CAST - TOTAL                                    BALLOTS CAST - TOTAL                  PRECINCT 206                                           00 
01020010015000227          BALLOTS CAST - TOTAL                                    BALLOTS CAST - TOTAL                  PRECINCT 207                                           00 
01020010016000259          BALLOTS CAST - TOTAL                                    BALLOTS CAST - TOTAL                  PRECINCT 208                                           00 
01020010017000259          BALLOTS CAST - TOTAL                                    BALLOTS CAST - TOTAL                  PRECINCT 209                                           00 
01020010018000408          BALLOTS CAST - TOTAL                                    BALLOTS CAST - TOTAL                  PRECINCT 210                                           00 
01020010019000280          BALLOTS CAST - TOTAL                                    BALLOTS CAST - TOTAL                  PRECINCT 301                                           00 
01020010020000916          BALLOTS CAST - TOTAL                                    BALLOTS CAST - TOTAL                  PRECINCT 302                                           00 
01020010021000215          BALLOTS CAST - TOTAL                                    BALLOTS CAST - TOTAL                  PRECINCT 303                                           00 
01020010022000700          BALLOTS CAST - TOTAL                                    BALLOTS CAST - TOTAL                  PRECINCT 304                                           00 
01020010023000310          BALLOTS CAST - TOTAL                                    BALLOTS CAST - TOTAL                  PRECINCT 305                                           00 
01020010024000836          BALLOTS CAST - TOTAL                                    BALLOTS CAST - TOTAL                  PRECINCT 306                                           00 
01020010025000398          BALLOTS CAST - TOTAL                                    BALLOTS CAST - TOTAL                  PRECINCT 307                                           00 
01020010026000222          BALLOTS CAST - TOTAL                                    BALLOTS CAST - TOTAL                  PRECINCT 308                                           00 
01020010027000126          BALLOTS CAST - TOTAL                                    BALLOTS CAST - TOTAL                  PRECINCT 309                                           00 
01020010028000231          BALLOTS CAST - TOTAL                                    BALLOTS CAST - TOTAL                  PRECINCT 401                                           00 
01020010029000407          BALLOTS CAST - TOTAL                                    BALLOTS CAST - TOTAL                  PRECINCT 402                                           00 
01020010030000642          BALLOTS CAST - TOTAL                                    BALLOTS CAST - TOTAL                  PRECINCT 403                                           00 
01020010031000927          BALLOTS CAST - TOTAL                                    BALLOTS CAST - TOTAL                  PRECINCT 404                                           00 
01020010032000081          BALLOTS CAST - TOTAL                                    BALLOTS CAST - TOTAL                  PRECINCT 405                                           00 
01020010033000605          BALLOTS CAST - TOTAL                                    BALLOTS CAST - TOTAL                  PRECINCT 406                                           00 
01020010034000011          BALLOTS CAST - TOTAL                                    BALLOTS CAST - TOTAL                  PRECINCT 407                                           00 
01020010035000305          BALLOTS CAST - TOTAL                                    BALLOTS CAST - TOTAL                  PRECINCT 408                                           00 
01020010036001119          BALLOTS CAST - TOTAL                                    BALLOTS CAST - TOTAL                  PRECINCT 409                                           00 
01030010001000379REP       BALLOTS CAST - REPUBLICAN PARTY                         BALLOTS CAST - REPUBLICAN PARTY       PRECINCT 101                                           00 
01030010002000111REP       BALLOTS CAST - REPUBLICAN PARTY                         BALLOTS CAST - REPUBLICAN PARTY       PRECINCT 102                                           00 
01030010003000099REP       BALLOTS CAST - REPUBLICAN PARTY                         BALLOTS CAST - REPUBLICAN PARTY       PRECINCT 103                                           00 
01030010004000171REP       BALLOTS CAST - REPUBLICAN PARTY                         BALLOTS CAST - REPUBLICAN PARTY       PRECINCT 104                                           00 
01030010005000778REP       BALLOTS CAST - REPUBLICAN PARTY                         BALLOTS CAST - REPUBLICAN PARTY       PRECINCT 105                                           00 
01030010006000379REP       BALLOTS CAST - REPUBLICAN PARTY                         BALLOTS CAST - REPUBLICAN PARTY       PRECINCT 106                                           00 
01030010007000374REP       BALLOTS CAST - REPUBLICAN PARTY                         BALLOTS CAST - REPUBLICAN PARTY       PRECINCT 107                                           00 
01030010008000292REP       BALLOTS CAST - REPUBLICAN PARTY                         BALLOTS CAST - REPUBLICAN PARTY       PRECINCT 108                                           00 
01030010009000460REP       BALLOTS CAST - REPUBLICAN PARTY                         BALLOTS CAST - REPUBLICAN PARTY       PRECINCT 201                                           00 
01030010010000398REP       BALLOTS CAST - REPUBLICAN PARTY                         BALLOTS CAST - REPUBLICAN PARTY       PRECINCT 202                                           00 
01030010011000067REP       BALLOTS CAST - REPUBLICAN PARTY                         BALLOTS CAST - REPUBLICAN PARTY       PRECINCT 203                                           00 
01030010012000178REP       BALLOTS CAST - REPUBLICAN PARTY                         BALLOTS CAST - REPUBLICAN PARTY       PRECINCT 204                                           00 
01030010013000672REP       BALLOTS CAST - REPUBLICAN PARTY                         BALLOTS CAST - REPUBLICAN PARTY       PRECINCT 205                                           00 
01030010014000242REP       BALLOTS CAST - REPUBLICAN PARTY                         BALLOTS CAST - REPUBLICAN PARTY       PRECINCT 206                                           00 
01030010015000204REP       BALLOTS CAST - REPUBLICAN PARTY                         BALLOTS CAST - REPUBLICAN PARTY       PRECINCT 207                                           00 
01030010016000223REP       BALLOTS CAST - REPUBLICAN PARTY                         BALLOTS CAST - REPUBLICAN PARTY       PRECINCT 208                                           00 
01030010017000235REP       BALLOTS CAST - REPUBLICAN PARTY                         BALLOTS CAST - REPUBLICAN PARTY       PRECINCT 209                                           00 
01030010018000374REP       BALLOTS CAST - REPUBLICAN PARTY                         BALLOTS CAST - REPUBLICAN PARTY       PRECINCT 210                                           00 
01030010019000209REP       BALLOTS CAST - REPUBLICAN PARTY                         BALLOTS CAST - REPUBLICAN PARTY       PRECINCT 301                                           00 
01030010020000703REP       BALLOTS CAST - REPUBLICAN PARTY                         BALLOTS CAST - REPUBLICAN PARTY       PRECINCT 302                                           00 
01030010021000193REP       BALLOTS CAST - REPUBLICAN PARTY                         BALLOTS CAST - REPUBLICAN PARTY       PRECINCT 303                                           00 
01030010022000558REP       BALLOTS CAST - REPUBLICAN PARTY                         BALLOTS CAST - REPUBLICAN PARTY       PRECINCT 304                                           00 
01030010023000280REP       BALLOTS CAST - REPUBLICAN PARTY                         BALLOTS CAST - REPUBLICAN PARTY       PRECINCT 305                                           00 
01030010024000755REP       BALLOTS CAST - REPUBLICAN PARTY                         BALLOTS CAST - REPUBLICAN PARTY       PRECINCT 306                                           00 
01030010025000368REP       BALLOTS CAST - REPUBLICAN PARTY                         BALLOTS CAST - REPUBLICAN PARTY       PRECINCT 307                                           00 
01030010026000206REP       BALLOTS CAST - REPUBLICAN PARTY                         BALLOTS CAST - REPUBLICAN PARTY       PRECINCT 308                                           00 
01030010027000109REP       BALLOTS CAST - REPUBLICAN PARTY                         BALLOTS CAST - REPUBLICAN PARTY       PRECINCT 309                                           00 
01030010028000129REP       BALLOTS CAST - REPUBLICAN PARTY                         BALLOTS CAST - REPUBLICAN PARTY       PRECINCT 401                                           00 
01030010029000309REP       BALLOTS CAST - REPUBLICAN PARTY                         BALLOTS CAST - REPUBLICAN PARTY       PRECINCT 402                                           00 
01030010030000575REP       BALLOTS CAST - REPUBLICAN PARTY                         BALLOTS CAST - REPUBLICAN PARTY       PRECINCT 403                                           00 
01030010031000819REP       BALLOTS CAST - REPUBLICAN PARTY                         BALLOTS CAST - REPUBLICAN PARTY       PRECINCT 404                                           00 
01030010032000065REP       BALLOTS CAST - REPUBLICAN PARTY                         BALLOTS CAST - REPUBLICAN PARTY       PRECINCT 405                                           00 
01030010033000542REP       BALLOTS CAST - REPUBLICAN PARTY                         BALLOTS CAST - REPUBLICAN PARTY       PRECINCT 406                                           00 
01030010034000008REP       BALLOTS CAST - REPUBLICAN PARTY                         BALLOTS CAST - REPUBLICAN PARTY       PRECINCT 407                                           00 
01030010035000269REP       BALLOTS CAST - REPUBLICAN PARTY                         BALLOTS CAST - REPUBLICAN PARTY       PRECINCT 408                                           00 
01030010036000946REP       BALLOTS CAST - REPUBLICAN PARTY                         BALLOTS CAST - REPUBLICAN PARTY       PRECINCT 409                                           00 
01050010001000007REP       US Senator                                              Stefano de Stefano                    PRECINCT 101                                           01 
01050010002000004REP       US Senator                                              Stefano de Stefano                    PRECINCT 102                                           01 
01050010003000002REP       US Senator                                              Stefano de Stefano                    PRECINCT 103                                           01 
01050010004000001REP       US Senator                                              Stefano de Stefano                    PRECINCT 104                                           01 
01050010005000021REP       US Senator                                              Stefano de Stefano                    PRECINCT 105                                           01 
01050010006000008REP       US Senator                                              Stefano de Stefano                    PRECINCT 106                                           01 
01050010007000011REP       US Senator                                              Stefano de Stefano                    PRECINCT 107                                           01 
01050010008000004REP       US Senator                                              Stefano de Stefano                    PRECINCT 108                                           01 
01050010009000015REP       US Senator                                              Stefano de Stefano                    PRECINCT 201                                           01 
01050010010000006REP       US Senator                                              Stefano de Stefano                    PRECINCT 202                                           01 
01050010011000006REP       US Senator                                              Stefano de Stefano                    PRECINCT 203                                           01 
01050010012000001REP       US Senator                                              Stefano de Stefano                    PRECINCT 204                                           01 
01050010013000013REP       US Senator                                              Stefano de Stefano                    PRECINCT 205                                           01 
01050010014000003REP       US Senator                                              Stefano de Stefano                    PRECINCT 206                                           01 
01050010015000001REP       US Senator                                              Stefano de Stefano                    PRECINCT 207                                           01 
01050010016000010REP       US Senator                                              Stefano de Stefano                    PRECINCT 208                                           01 
01050010017000006REP       US Senator                                              Stefano de Stefano                    PRECINCT 209                                           01 
01050010018000006REP       US Senator                                              Stefano de Stefano                    PRECINCT 210                                           01 
01050010019000002REP       US Senator                                              Stefano de Stefano                    PRECINCT 301                                           01 
01050010020000023REP       US Senator                                              Stefano de Stefano                    PRECINCT 302                                           01 
01050010021000003REP       US Senator                                              Stefano de Stefano                    PRECINCT 303                                           01 
01050010022000020REP       US Senator                                              Stefano de Stefano                    PRECINCT 304                                           01 
01050010023000004REP       US Senator                                              Stefano de Stefano                    PRECINCT 305                                           01 
01050010024000017REP       US Senator                                              Stefano de Stefano                    PRECINCT 306                                           01 
01050010025000006REP       US Senator                                              Stefano de Stefano                    PRECINCT 307                                           01 
01050010026000003REP       US Senator                                              Stefano de Stefano                    PRECINCT 308                                           01 
01050010027000005REP       US Senator                                              Stefano de Stefano                    PRECINCT 309                                           01 
01050010028000007REP       US Senator                                              Stefano de Stefano                    PRECINCT 401                                           01 
01050010029000004REP       US Senator                                              Stefano de Stefano                    PRECINCT 402                                           01 
01050010030000013REP       US Senator                                              Stefano de Stefano                    PRECINCT 403                                           01 
01050010031000013REP       US Senator                                              Stefano de Stefano                    PRECINCT 404                                           01 
01050010032000002REP       US Senator                                              Stefano de Stefano                    PRECINCT 405                                           01 
01050010033000004REP       US Senator                                              Stefano de Stefano                    PRECINCT 406                                           01 
01050010034000000REP       US Senator                                              Stefano de Stefano                    PRECINCT 407                                           01 
01050010035000006REP       US Senator                                              Stefano de Stefano                    PRECINCT 408                                           01 
01050010036000032REP       US Senator                                              Stefano de Stefano                    PRECINCT 409                                           01 
01050020001000309REP       US Senator                                              Ted Cruz                              PRECINCT 101                                           01 
01050020002000083REP       US Senator                                              Ted Cruz                              PRECINCT 102                                           01 
01050020003000092REP       US Senator                                              Ted Cruz                              PRECINCT 103                                           01 
01050020004000142REP       US Senator                                              Ted Cruz                              PRECINCT 104                                           01 
01050020005000667REP       US Senator                                              Ted Cruz                              PRECINCT 105                                           01 
01050020006000329REP       US Senator                                              Ted Cruz                              PRECINCT 106                                           01 
01050020007000322REP       US Senator                                              Ted Cruz                              PRECINCT 107                                           01 
01050020008000244REP       US Senator                                              Ted Cruz                              PRECINCT 108                                           01 
01050020009000377REP       US Senator                                              Ted Cruz                              PRECINCT 201                                           01 
01050020010000325REP       US Senator                                              Ted Cruz                              PRECINCT 202                                           01 
01050020011000050REP       US Senator                                              Ted Cruz                              PRECINCT 203                                           01 
01050020012000145REP       US Senator                                              Ted Cruz                              PRECINCT 204                                           01 
01050020013000558REP       US Senator                                              Ted Cruz                              PRECINCT 205                                           01 
01050020014000195REP       US Senator                                              Ted Cruz                              PRECINCT 206                                           01 
01050020015000173REP       US Senator                                              Ted Cruz                              PRECINCT 207                                           01 
01050020016000178REP       US Senator                                              Ted Cruz                              PRECINCT 208                                           01 
01050020017000202REP       US Senator                                              Ted Cruz                              PRECINCT 209                                           01 
01050020018000310REP       US Senator                                              Ted Cruz                              PRECINCT 210                                           01 
01050020019000168REP       US Senator                                              Ted Cruz                              PRECINCT 301                                           01 
01050020020000555REP       US Senator                                              Ted Cruz                              PRECINCT 302                                           01 
01050020021000165REP       US Senator                                              Ted Cruz                              PRECINCT 303                                           01 
01050020022000427REP       US Senator                                              Ted Cruz                              PRECINCT 304                                           01 
01050020023000235REP       US Senator                                              Ted Cruz                              PRECINCT 305                                           01 
01050020024000626REP       US Senator                                              Ted Cruz                              PRECINCT 306                                           01 
01050020025000307REP       US Senator                                              Ted Cruz                              PRECINCT 307                                           01 
01050020026000181REP       US Senator                                              Ted Cruz                              PRECINCT 308                                           01 
01050020027000090REP       US Senator                                              Ted Cruz                              PRECINCT 309                                           01 
01050020028000107REP       US Senator                                              Ted Cruz                              PRECINCT 401                                           01 
01050020029000256REP       US Senator                                              Ted Cruz                              PRECINCT 402                                           01 
01050020030000487REP       US Senator                                              Ted Cruz                              PRECINCT 403                                           01 
01050020031000670REP       US Senator                                              Ted Cruz                              PRECINCT 404                                           01 
01050020032000055REP       US Senator                                              Ted Cruz                              PRECINCT 405                                           01 
01050020033000455REP       US Senator                                              Ted Cruz                              PRECINCT 406                                           01 
01050020034000005REP       US Senator                                              Ted Cruz                              PRECINCT 407                                           01 
01050020035000222REP       US Senator                                              Ted Cruz                              PRECINCT 408                                           01 
01050020036000762REP       US Senator                                              Ted Cruz                              PRECINCT 409                                           01 
01050030001000016REP       US Senator                                              Bruce Jacobson, Jr.                   PRECINCT 101                                           01 
01050030002000008REP       US Senator                                              Bruce Jacobson, Jr.                   PRECINCT 102                                           01 
01050030003000003REP       US Senator                                              Bruce Jacobson, Jr.                   PRECINCT 103                                           01 
01050030004000011REP       US Senator                                              Bruce Jacobson, Jr.                   PRECINCT 104                                           01 
01050030005000032REP       US Senator                                              Bruce Jacobson, Jr.                   PRECINCT 105                                           01 
01050030006000016REP       US Senator                                              Bruce Jacobson, Jr.                   PRECINCT 106                                           01 
01050030007000011REP       US Senator                                              Bruce Jacobson, Jr.                   PRECINCT 107                                           01 
01050030008000012REP       US Senator                                              Bruce Jacobson, Jr.                   PRECINCT 108                                           01 
01050030009000024REP       US Senator                                              Bruce Jacobson, Jr.                   PRECINCT 201                                           01 
01050030010000014REP       US Senator                                              Bruce Jacobson, Jr.                   PRECINCT 202                                           01 
01050030011000002REP       US Senator                                              Bruce Jacobson, Jr.                   PRECINCT 203                                           01 
01050030012000018REP       US Senator                                              Bruce Jacobson, Jr.                   PRECINCT 204                                           01 
01050030013000030REP       US Senator                                              Bruce Jacobson, Jr.                   PRECINCT 205                                           01 
01050030014000018REP       US Senator                                              Bruce Jacobson, Jr.                   PRECINCT 206                                           01 
01050030015000007REP       US Senator                                              Bruce Jacobson, Jr.                   PRECINCT 207                                           01 
01050030016000016REP       US Senator                                              Bruce Jacobson, Jr.                   PRECINCT 208                                           01 
01050030017000011REP       US Senator                                              Bruce Jacobson, Jr.                   PRECINCT 209                                           01 
01050030018000017REP       US Senator                                              Bruce Jacobson, Jr.                   PRECINCT 210                                           01 
01050030019000014REP       US Senator                                              Bruce Jacobson, Jr.                   PRECINCT 301                                           01 
01050030020000030REP       US Senator                                              Bruce Jacobson, Jr.                   PRECINCT 302                                           01 
01050030021000006REP       US Senator                                              Bruce Jacobson, Jr.                   PRECINCT 303                                           01 
01050030022000032REP       US Senator                                              Bruce Jacobson, Jr.                   PRECINCT 304                                           01 
01050030023000015REP       US Senator                                              Bruce Jacobson, Jr.                   PRECINCT 305                                           01 
01050030024000022REP       US Senator                                              Bruce Jacobson, Jr.                   PRECINCT 306                                           01 
01050030025000020REP       US Senator                                              Bruce Jacobson, Jr.                   PRECINCT 307                                           01 
01050030026000010REP       US Senator                                              Bruce Jacobson, Jr.                   PRECINCT 308                                           01 
01050030027000004REP       US Senator                                              Bruce Jacobson, Jr.                   PRECINCT 309                                           01 
01050030028000004REP       US Senator                                              Bruce Jacobson, Jr.                   PRECINCT 401                                           01 
01050030029000020REP       US Senator                                              Bruce Jacobson, Jr.                   PRECINCT 402                                           01 
01050030030000035REP       US Senator                                              Bruce Jacobson, Jr.                   PRECINCT 403                                           01 
01050030031000043REP       US Senator                                              Bruce Jacobson, Jr.                   PRECINCT 404                                           01 
01050030032000003REP       US Senator                                              Bruce Jacobson, Jr.                   PRECINCT 405                                           01 
01050030033000028REP       US Senator                                              Bruce Jacobson, Jr.                   PRECINCT 406                                           01 
01050030034000003REP       US Senator                                              Bruce Jacobson, Jr.                   PRECINCT 407                                           01 
01050030035000011REP       US Senator                                              Bruce Jacobson, Jr.                   PRECINCT 408                                           01 
01050030036000043REP       US Senator                                              Bruce Jacobson, Jr.                   PRECINCT 409                                           01 
01050040001000005REP       US Senator                                              Geraldine Sam                         PRECINCT 101                                           01 
01050040002000003REP       US Senator                                              Geraldine Sam                         PRECINCT 102                                           01 
01050040003000000REP       US Senator                                              Geraldine Sam                         PRECINCT 103                                           01 
01050040004000001REP       US Senator                                              Geraldine Sam                         PRECINCT 104                                           01 
01050040005000006REP       US Senator                                              Geraldine Sam                         PRECINCT 105                                           01 
01050040006000002REP       US Senator                                              Geraldine Sam                         PRECINCT 106                                           01 
01050040007000002REP       US Senator                                              Geraldine Sam                         PRECINCT 107                                           01 
01050040008000001REP       US Senator                                              Geraldine Sam                         PRECINCT 108                                           01 
01050040009000004REP       US Senator                                              Geraldine Sam                         PRECINCT 201                                           01 
01050040010000003REP       US Senator                                              Geraldine Sam                         PRECINCT 202                                           01 
01050040011000002REP       US Senator                                              Geraldine Sam                         PRECINCT 203                                           01 
01050040012000002REP       US Senator                                              Geraldine Sam                         PRECINCT 204                                           01 
01050040013000003REP       US Senator                                              Geraldine Sam                         PRECINCT 205                                           01 
01050040014000004REP       US Senator                                              Geraldine Sam                         PRECINCT 206                                           01 
01050040015000002REP       US Senator                                              Geraldine Sam                         PRECINCT 207                                           01 
01050040016000003REP       US Senator                                              Geraldine Sam                         PRECINCT 208                                           01 
01050040017000002REP       US Senator                                              Geraldine Sam                         PRECINCT 209                                           01 
01050040018000004REP       US Senator                                              Geraldine Sam                         PRECINCT 210                                           01 
01050040019000003REP       US Senator                                              Geraldine Sam                         PRECINCT 301                                           01 
01050040020000014REP       US Senator                                              Geraldine Sam                         PRECINCT 302                                           01 
01050040021000000REP       US Senator                                              Geraldine Sam                         PRECINCT 303                                           01 
01050040022000011REP       US Senator                                              Geraldine Sam                         PRECINCT 304                                           01 
01050040023000001REP       US Senator                                              Geraldine Sam                         PRECINCT 305                                           01 
01050040024000011REP       US Senator                                              Geraldine Sam                         PRECINCT 306                                           01 
01050040025000005REP       US Senator                                              Geraldine Sam                         PRECINCT 307                                           01 
01050040026000003REP       US Senator                                              Geraldine Sam                         PRECINCT 308                                           01 
01050040027000001REP       US Senator                                              Geraldine Sam                         PRECINCT 309                                           01 
01050040028000003REP       US Senator                                              Geraldine Sam                         PRECINCT 401                                           01 
01050040029000002REP       US Senator                                              Geraldine Sam                         PRECINCT 402                                           01 
01050040030000006REP       US Senator                                              Geraldine Sam                         PRECINCT 403                                           01 
01050040031000011REP       US Senator                                              Geraldine Sam                         PRECINCT 404                                           01 
01050040032000000REP       US Senator                                              Geraldine Sam                         PRECINCT 405                                           01 
01050040033000011REP       US Senator                                              Geraldine Sam                         PRECINCT 406                                           01 
01050040034000000REP       US Senator                                              Geraldine Sam                         PRECINCT 407                                           01 
01050040035000003REP       US Senator                                              Geraldine Sam                         PRECINCT 408                                           01 
01050040036000008REP       US Senator                                              Geraldine Sam                         PRECINCT 409                                           01 
01050050001000028REP       US Senator                                              Mary Miller                           PRECINCT 101                                           01 
01050050002000005REP       US Senator                                              Mary Miller                           PRECINCT 102                                           01 
01050050003000002REP       US Senator                                              Mary Miller                           PRECINCT 103                                           01 
01050050004000008REP       US Senator                                              Mary Miller                           PRECINCT 104                                           01 
01050050005000025REP       US Senator                                              Mary Miller                           PRECINCT 105                                           01 
01050050006000013REP       US Senator                                              Mary Miller                           PRECINCT 106                                           01 
01050050007000019REP       US Senator                                              Mary Miller                           PRECINCT 107                                           01 
01050050008000017REP       US Senator                                              Mary Miller                           PRECINCT 108                                           01 
01050050009000024REP       US Senator                                              Mary Miller                           PRECINCT 201                                           01 
01050050010000025REP       US Senator                                              Mary Miller                           PRECINCT 202                                           01 
01050050011000004REP       US Senator                                              Mary Miller                           PRECINCT 203                                           01 
01050050012000005REP       US Senator                                              Mary Miller                           PRECINCT 204                                           01 
01050050013000036REP       US Senator                                              Mary Miller                           PRECINCT 205                                           01 
01050050014000006REP       US Senator                                              Mary Miller                           PRECINCT 206                                           01 
01050050015000014REP       US Senator                                              Mary Miller                           PRECINCT 207                                           01 
01050050016000008REP       US Senator                                              Mary Miller                           PRECINCT 208                                           01 
01050050017000009REP       US Senator                                              Mary Miller                           PRECINCT 209                                           01 
01050050018000022REP       US Senator                                              Mary Miller                           PRECINCT 210                                           01 
01050050019000017REP       US Senator                                              Mary Miller                           PRECINCT 301                                           01 
01050050020000039REP       US Senator                                              Mary Miller                           PRECINCT 302                                           01 
01050050021000010REP       US Senator                                              Mary Miller                           PRECINCT 303                                           01 
01050050022000040REP       US Senator                                              Mary Miller                           PRECINCT 304                                           01 
01050050023000016REP       US Senator                                              Mary Miller                           PRECINCT 305                                           01 
01050050024000042REP       US Senator                                              Mary Miller                           PRECINCT 306                                           01 
01050050025000014REP       US Senator                                              Mary Miller                           PRECINCT 307                                           01 
01050050026000003REP       US Senator                                              Mary Miller                           PRECINCT 308                                           01 
01050050027000004REP       US Senator                                              Mary Miller                           PRECINCT 309                                           01 
01050050028000004REP       US Senator                                              Mary Miller                           PRECINCT 401                                           01 
01050050029000014REP       US Senator                                              Mary Miller                           PRECINCT 402                                           01 
01050050030000021REP       US Senator                                              Mary Miller                           PRECINCT 403                                           01 
01050050031000044REP       US Senator                                              Mary Miller                           PRECINCT 404                                           01 
01050050032000004REP       US Senator                                              Mary Miller                           PRECINCT 405                                           01 
01050050033000030REP       US Senator                                              Mary Miller                           PRECINCT 406                                           01 
01050050034000000REP       US Senator                                              Mary Miller                           PRECINCT 407                                           01 
01050050035000014REP       US Senator                                              Mary Miller                           PRECINCT 408                                           01 
01050050036000060REP       US Senator                                              Mary Miller                           PRECINCT 409                                           01 
01050060001000000REP       US Senator                                              OVER VOTES                            PRECINCT 101                                           01 
01050060002000000REP       US Senator                                              OVER VOTES                            PRECINCT 102                                           01 
01050060003000000REP       US Senator                                              OVER VOTES                            PRECINCT 103                                           01 
01050060004000000REP       US Senator                                              OVER VOTES                            PRECINCT 104                                           01 
01050060005000000REP       US Senator                                              OVER VOTES                            PRECINCT 105                                           01 
01050060006000000REP       US Senator                                              OVER VOTES                            PRECINCT 106                                           01 
01050060007000000REP       US Senator                                              OVER VOTES                            PRECINCT 107                                           01 
01050060008000000REP       US Senator                                              OVER VOTES                            PRECINCT 108                                           01 
01050060009000000REP       US Senator                                              OVER VOTES                            PRECINCT 201                                           01 
01050060010000000REP       US Senator                                              OVER VOTES                            PRECINCT 202                                           01 
01050060011000000REP       US Senator                                              OVER VOTES                            PRECINCT 203                                           01 
01050060012000000REP       US Senator                                              OVER VOTES                            PRECINCT 204                                           01 
01050060013000000REP       US Senator                                              OVER VOTES                            PRECINCT 205                                           01 
01050060014000000REP       US Senator                                              OVER VOTES                            PRECINCT 206                                           01 
01050060015000000REP       US Senator                                              OVER VOTES                            PRECINCT 207                                           01 
01050060016000000REP       US Senator                                              OVER VOTES                            PRECINCT 208                                           01 
01050060017000000REP       US Senator                                              OVER VOTES                            PRECINCT 209                                           01 
01050060018000000REP       US Senator                                              OVER VOTES                            PRECINCT 210                                           01 
01050060019000000REP       US Senator                                              OVER VOTES                            PRECINCT 301                                           01 
01050060020000000REP       US Senator                                              OVER VOTES                            PRECINCT 302                                           01 
01050060021000000REP       US Senator                                              OVER VOTES                            PRECINCT 303                                           01 
01050060022000000REP       US Senator                                              OVER VOTES                            PRECINCT 304                                           01 
01050060023000000REP       US Senator                                              OVER VOTES                            PRECINCT 305                                           01 
01050060024000000REP       US Senator                                              OVER VOTES                            PRECINCT 306                                           01 
01050060025000000REP       US Senator                                              OVER VOTES                            PRECINCT 307                                           01 
01050060026000000REP       US Senator                                              OVER VOTES                            PRECINCT 308                                           01 
01050060027000000REP       US Senator                                              OVER VOTES                            PRECINCT 309                                           01 
01050060028000000REP       US Senator                                              OVER VOTES                            PRECINCT 401                                           01 
01050060029000000REP       US Senator                                              OVER VOTES                            PRECINCT 402                                           01 
01050060030000000REP       US Senator                                              OVER VOTES                            PRECINCT 403                                           01 
01050060031000000REP       US Senator                                              OVER VOTES                            PRECINCT 404                                           01 
01050060032000000REP       US Senator                                              OVER VOTES                            PRECINCT 405                                           01 
01050060033000000REP       US Senator                                              OVER VOTES                            PRECINCT 406                                           01 
01050060034000000REP       US Senator                                              OVER VOTES                            PRECINCT 407                                           01 
01050060035000000REP       US Senator                                              OVER VOTES                            PRECINCT 408                                           01 
01050060036000000REP       US Senator                                              OVER VOTES                            PRECINCT 409                                           01 
01050070001000014REP       US Senator                                              UNDER VOTES                           PRECINCT 101                                           01 
01050070002000008REP       US Senator                                              UNDER VOTES                           PRECINCT 102                                           01 
01050070003000000REP       US Senator                                              UNDER VOTES                           PRECINCT 103                                           01 
01050070004000008REP       US Senator                                              UNDER VOTES                           PRECINCT 104                                           01 
01050070005000027REP       US Senator                                              UNDER VOTES                           PRECINCT 105                                           01 
01050070006000011REP       US Senator                                              UNDER VOTES                           PRECINCT 106                                           01 
01050070007000009REP       US Senator                                              UNDER VOTES                           PRECINCT 107                                           01 
01050070008000014REP       US Senator                                              UNDER VOTES                           PRECINCT 108                                           01 
01050070009000016REP       US Senator                                              UNDER VOTES                           PRECINCT 201                                           01 
01050070010000025REP       US Senator                                              UNDER VOTES                           PRECINCT 202                                           01 
01050070011000003REP       US Senator                                              UNDER VOTES                           PRECINCT 203                                           01 
01050070012000007REP       US Senator                                              UNDER VOTES                           PRECINCT 204                                           01 
01050070013000032REP       US Senator                                              UNDER VOTES                           PRECINCT 205                                           01 
01050070014000016REP       US Senator                                              UNDER VOTES                           PRECINCT 206                                           01 
01050070015000007REP       US Senator                                              UNDER VOTES                           PRECINCT 207                                           01 
01050070016000008REP       US Senator                                              UNDER VOTES                           PRECINCT 208                                           01 
01050070017000005REP       US Senator                                              UNDER VOTES                           PRECINCT 209                                           01 
01050070018000015REP       US Senator                                              UNDER VOTES                           PRECINCT 210                                           01 
01050070019000005REP       US Senator                                              UNDER VOTES                           PRECINCT 301                                           01 
01050070020000042REP       US Senator                                              UNDER VOTES                           PRECINCT 302                                           01 
01050070021000009REP       US Senator                                              UNDER VOTES                           PRECINCT 303                                           01 
01050070022000028REP       US Senator                                              UNDER VOTES                           PRECINCT 304                                           01 
01050070023000009REP       US Senator                                              UNDER VOTES                           PRECINCT 305                                           01 
01050070024000037REP       US Senator                                              UNDER VOTES                           PRECINCT 306                                           01 
01050070025000016REP       US Senator                                              UNDER VOTES                           PRECINCT 307                                           01 
01050070026000006REP       US Senator                                              UNDER VOTES                           PRECINCT 308                                           01 
01050070027000005REP       US Senator                                              UNDER VOTES                           PRECINCT 309                                           01 
01050070028000004REP       US Senator                                              UNDER VOTES                           PRECINCT 401                                           01 
01050070029000013REP       US Senator                                              UNDER VOTES                           PRECINCT 402                                           01 
01050070030000013REP       US Senator                                              UNDER VOTES                           PRECINCT 403                                           01 
01050070031000038REP       US Senator                                              UNDER VOTES                           PRECINCT 404                                           01 
01050070032000001REP       US Senator                                              UNDER VOTES                           PRECINCT 405                                           01 
01050070033000014REP       US Senator                                              UNDER VOTES                           PRECINCT 406                                           01 
01050070034000000REP       US Senator                                              UNDER VOTES                           PRECINCT 407                                           01 
01050070035000013REP       US Senator                                              UNDER VOTES                           PRECINCT 408                                           01 
01050070036000041REP       US Senator                                              UNDER VOTES                           PRECINCT 409                                           01 
01060010001000053REP       US Representative, District 4                           John Cooper                           PRECINCT 101                                           01 
01060010002000022REP       US Representative, District 4                           John Cooper                           PRECINCT 102                                           01 
01060010003000013REP       US Representative, District 4                           John Cooper                           PRECINCT 103                                           01 
01060010004000012REP       US Representative, District 4                           John Cooper                           PRECINCT 104                                           01 
01060010005000084REP       US Representative, District 4                           John Cooper                           PRECINCT 105                                           01 
01060010006000051REP       US Representative, District 4                           John Cooper                           PRECINCT 106                                           01 
01060010007000060REP       US Representative, District 4                           John Cooper                           PRECINCT 107                                           01 
01060010008000044REP       US Representative, District 4                           John Cooper                           PRECINCT 108                                           01 
01060010009000070REP       US Representative, District 4                           John Cooper                           PRECINCT 201                                           01 
01060010010000056REP       US Representative, District 4                           John Cooper                           PRECINCT 202                                           01 
01060010011000012REP       US Representative, District 4                           John Cooper                           PRECINCT 203                                           01 
01060010012000025REP       US Representative, District 4                           John Cooper                           PRECINCT 204                                           01 
01060010013000092REP       US Representative, District 4                           John Cooper                           PRECINCT 205                                           01 
01060010014000038REP       US Representative, District 4                           John Cooper                           PRECINCT 206                                           01 
01060010015000023REP       US Representative, District 4                           John Cooper                           PRECINCT 207                                           01 
01060010016000033REP       US Representative, District 4                           John Cooper                           PRECINCT 208                                           01 
01060010017000041REP       US Representative, District 4                           John Cooper                           PRECINCT 209                                           01 
01060010018000058REP       US Representative, District 4                           John Cooper                           PRECINCT 210                                           01 
01060010019000031REP       US Representative, District 4                           John Cooper                           PRECINCT 301                                           01 
01060010020000098REP       US Representative, District 4                           John Cooper                           PRECINCT 302                                           01 
01060010021000029REP       US Representative, District 4                           John Cooper                           PRECINCT 303                                           01 
01060010022000075REP       US Representative, District 4                           John Cooper                           PRECINCT 304                                           01 
01060010023000039REP       US Representative, District 4                           John Cooper                           PRECINCT 305                                           01 
01060010024000092REP       US Representative, District 4                           John Cooper                           PRECINCT 306                                           01 
01060010025000058REP       US Representative, District 4                           John Cooper                           PRECINCT 307                                           01 
01060010026000038REP       US Representative, District 4                           John Cooper                           PRECINCT 308                                           01 
01060010027000012REP       US Representative, District 4                           John Cooper                           PRECINCT 309                                           01 
01060010028000023REP       US Representative, District 4                           John Cooper                           PRECINCT 401                                           01 
01060010029000039REP       US Representative, District 4                           John Cooper                           PRECINCT 402                                           01 
01060010030000082REP       US Representative, District 4                           John Cooper                           PRECINCT 403                                           01 
01060010031000106REP       US Representative, District 4                           John Cooper                           PRECINCT 404                                           01 
01060010032000011REP       US Representative, District 4                           John Cooper                           PRECINCT 405                                           01 
01060010033000087REP       US Representative, District 4                           John Cooper                           PRECINCT 406                                           01 
01060010034000003REP       US Representative, District 4                           John Cooper                           PRECINCT 407                                           01 
01060010035000033REP       US Representative, District 4                           John Cooper                           PRECINCT 408                                           01 
01060010036000131REP       US Representative, District 4                           John Cooper                           PRECINCT 409                                           01 
01060020001000306REP       US Representative, District 4                           John Ratcliffe                        PRECINCT 101                                           01 
01060020002000073REP       US Representative, District 4                           John Ratcliffe                        PRECINCT 102                                           01 
01060020003000084REP       US Representative, District 4                           John Ratcliffe                        PRECINCT 103                                           01 
01060020004000147REP       US Representative, District 4                           John Ratcliffe                        PRECINCT 104                                           01 
01060020005000616REP       US Representative, District 4                           John Ratcliffe                        PRECINCT 105                                           01 
01060020006000303REP       US Representative, District 4                           John Ratcliffe                        PRECINCT 106                                           01 
01060020007000293REP       US Representative, District 4                           John Ratcliffe                        PRECINCT 107                                           01 
01060020008000228REP       US Representative, District 4                           John Ratcliffe                        PRECINCT 108                                           01 
01060020009000365REP       US Representative, District 4                           John Ratcliffe                        PRECINCT 201                                           01 
01060020010000317REP       US Representative, District 4                           John Ratcliffe                        PRECINCT 202                                           01 
01060020011000050REP       US Representative, District 4                           John Ratcliffe                        PRECINCT 203                                           01 
01060020012000144REP       US Representative, District 4                           John Ratcliffe                        PRECINCT 204                                           01 
01060020013000535REP       US Representative, District 4                           John Ratcliffe                        PRECINCT 205                                           01 
01060020014000185REP       US Representative, District 4                           John Ratcliffe                        PRECINCT 206                                           01 
01060020015000163REP       US Representative, District 4                           John Ratcliffe                        PRECINCT 207                                           01 
01060020016000176REP       US Representative, District 4                           John Ratcliffe                        PRECINCT 208                                           01 
01060020017000187REP       US Representative, District 4                           John Ratcliffe                        PRECINCT 209                                           01 
01060020018000292REP       US Representative, District 4                           John Ratcliffe                        PRECINCT 210                                           01 
01060020019000163REP       US Representative, District 4                           John Ratcliffe                        PRECINCT 301                                           01 
01060020020000556REP       US Representative, District 4                           John Ratcliffe                        PRECINCT 302                                           01 
01060020021000154REP       US Representative, District 4                           John Ratcliffe                        PRECINCT 303                                           01 
01060020022000448REP       US Representative, District 4                           John Ratcliffe                        PRECINCT 304                                           01 
01060020023000225REP       US Representative, District 4                           John Ratcliffe                        PRECINCT 305                                           01 
01060020024000575REP       US Representative, District 4                           John Ratcliffe                        PRECINCT 306                                           01 
01060020025000276REP       US Representative, District 4                           John Ratcliffe                        PRECINCT 307                                           01 
01060020026000150REP       US Representative, District 4                           John Ratcliffe                        PRECINCT 308                                           01 
01060020027000078REP       US Representative, District 4                           John Ratcliffe                        PRECINCT 309                                           01 
01060020028000098REP       US Representative, District 4                           John Ratcliffe                        PRECINCT 401                                           01 
01060020029000250REP       US Representative, District 4                           John Ratcliffe                        PRECINCT 402                                           01 
01060020030000456REP       US Representative, District 4                           John Ratcliffe                        PRECINCT 403                                           01 
01060020031000654REP       US Representative, District 4                           John Ratcliffe                        PRECINCT 404                                           01 
01060020032000053REP       US Representative, District 4                           John Ratcliffe                        PRECINCT 405                                           01 
01060020033000420REP       US Representative, District 4                           John Ratcliffe                        PRECINCT 406                                           01 
01060020034000005REP       US Representative, District 4                           John Ratcliffe                        PRECINCT 407                                           01 
01060020035000213REP       US Representative, District 4                           John Ratcliffe                        PRECINCT 408                                           01 
01060020036000755REP       US Representative, District 4                           John Ratcliffe                        PRECINCT 409                                           01 
01060030001000000REP       US Representative, District 4                           OVER VOTES                            PRECINCT 101                                           01 
01060030002000000REP       US Representative, District 4                           OVER VOTES                            PRECINCT 102                                           01 
01060030003000000REP       US Representative, District 4                           OVER VOTES                            PRECINCT 103                                           01 
01060030004000000REP       US Representative, District 4                           OVER VOTES                            PRECINCT 104                                           01 
01060030005000000REP       US Representative, District 4                           OVER VOTES                            PRECINCT 105                                           01 
01060030006000000REP       US Representative, District 4                           OVER VOTES                            PRECINCT 106                                           01 
01060030007000000REP       US Representative, District 4                           OVER VOTES                            PRECINCT 107                                           01 
01060030008000000REP       US Representative, District 4                           OVER VOTES                            PRECINCT 108                                           01 
01060030009000000REP       US Representative, District 4                           OVER VOTES                            PRECINCT 201                                           01 
01060030010000000REP       US Representative, District 4                           OVER VOTES                            PRECINCT 202                                           01 
01060030011000000REP       US Representative, District 4                           OVER VOTES                            PRECINCT 203                                           01 
01060030012000000REP       US Representative, District 4                           OVER VOTES                            PRECINCT 204                                           01 
01060030013000000REP       US Representative, District 4                           OVER VOTES                            PRECINCT 205                                           01 
01060030014000000REP       US Representative, District 4                           OVER VOTES                            PRECINCT 206                                           01 
01060030015000000REP       US Representative, District 4                           OVER VOTES                            PRECINCT 207                                           01 
01060030016000000REP       US Representative, District 4                           OVER VOTES                            PRECINCT 208                                           01 
01060030017000000REP       US Representative, District 4                           OVER VOTES                            PRECINCT 209                                           01 
01060030018000000REP       US Representative, District 4                           OVER VOTES                            PRECINCT 210                                           01 
01060030019000000REP       US Representative, District 4                           OVER VOTES                            PRECINCT 301                                           01 
01060030020000000REP       US Representative, District 4                           OVER VOTES                            PRECINCT 302                                           01 
01060030021000000REP       US Representative, District 4                           OVER VOTES                            PRECINCT 303                                           01 
01060030022000000REP       US Representative, District 4                           OVER VOTES                            PRECINCT 304                                           01 
01060030023000000REP       US Representative, District 4                           OVER VOTES                            PRECINCT 305                                           01 
01060030024000000REP       US Representative, District 4                           OVER VOTES                            PRECINCT 306                                           01 
01060030025000000REP       US Representative, District 4                           OVER VOTES                            PRECINCT 307                                           01 
01060030026000000REP       US Representative, District 4                           OVER VOTES                            PRECINCT 308                                           01 
01060030027000000REP       US Representative, District 4                           OVER VOTES                            PRECINCT 309                                           01 
01060030028000000REP       US Representative, District 4                           OVER VOTES                            PRECINCT 401                                           01 
01060030029000000REP       US Representative, District 4                           OVER VOTES                            PRECINCT 402                                           01 
01060030030000000REP       US Representative, District 4                           OVER VOTES                            PRECINCT 403                                           01 
01060030031000000REP       US Representative, District 4                           OVER VOTES                            PRECINCT 404                                           01 
01060030032000000REP       US Representative, District 4                           OVER VOTES                            PRECINCT 405                                           01 
01060030033000000REP       US Representative, District 4                           OVER VOTES                            PRECINCT 406                                           01 
01060030034000000REP       US Representative, District 4                           OVER VOTES                            PRECINCT 407                                           01 
01060030035000000REP       US Representative, District 4                           OVER VOTES                            PRECINCT 408                                           01 
01060030036000000REP       US Representative, District 4                           OVER VOTES                            PRECINCT 409                                           01 
01060040001000020REP       US Representative, District 4                           UNDER VOTES                           PRECINCT 101                                           01 
01060040002000016REP       US Representative, District 4                           UNDER VOTES                           PRECINCT 102                                           01 
01060040003000002REP       US Representative, District 4                           UNDER VOTES                           PRECINCT 103                                           01 
01060040004000012REP       US Representative, District 4                           UNDER VOTES                           PRECINCT 104                                           01 
01060040005000078REP       US Representative, District 4                           UNDER VOTES                           PRECINCT 105                                           01 
01060040006000025REP       US Representative, District 4                           UNDER VOTES                           PRECINCT 106                                           01 
01060040007000021REP       US Representative, District 4                           UNDER VOTES                           PRECINCT 107                                           01 
01060040008000020REP       US Representative, District 4                           UNDER VOTES                           PRECINCT 108                                           01 
01060040009000025REP       US Representative, District 4                           UNDER VOTES                           PRECINCT 201                                           01 
01060040010000025REP       US Representative, District 4                           UNDER VOTES                           PRECINCT 202                                           01 
01060040011000005REP       US Representative, District 4                           UNDER VOTES                           PRECINCT 203                                           01 
01060040012000009REP       US Representative, District 4                           UNDER VOTES                           PRECINCT 204                                           01 
01060040013000045REP       US Representative, District 4                           UNDER VOTES                           PRECINCT 205                                           01 
01060040014000019REP       US Representative, District 4                           UNDER VOTES                           PRECINCT 206                                           01 
01060040015000018REP       US Representative, District 4                           UNDER VOTES                           PRECINCT 207                                           01 
01060040016000014REP       US Representative, District 4                           UNDER VOTES                           PRECINCT 208                                           01 
01060040017000007REP       US Representative, District 4                           UNDER VOTES                           PRECINCT 209                                           01 
01060040018000024REP       US Representative, District 4                           UNDER VOTES                           PRECINCT 210                                           01 
01060040019000015REP       US Representative, District 4                           UNDER VOTES                           PRECINCT 301                                           01 
01060040020000049REP       US Representative, District 4                           UNDER VOTES                           PRECINCT 302                                           01 
01060040021000010REP       US Representative, District 4                           UNDER VOTES                           PRECINCT 303                                           01 
01060040022000035REP       US Representative, District 4                           UNDER VOTES                           PRECINCT 304                                           01 
01060040023000016REP       US Representative, District 4                           UNDER VOTES                           PRECINCT 305                                           01 
01060040024000088REP       US Representative, District 4                           UNDER VOTES                           PRECINCT 306                                           01 
01060040025000034REP       US Representative, District 4                           UNDER VOTES                           PRECINCT 307                                           01 
01060040026000018REP       US Representative, District 4                           UNDER VOTES                           PRECINCT 308                                           01 
01060040027000019REP       US Representative, District 4                           UNDER VOTES                           PRECINCT 309                                           01 
01060040028000008REP       US Representative, District 4                           UNDER VOTES                           PRECINCT 401                                           01 
01060040029000020REP       US Representative, District 4                           UNDER VOTES                           PRECINCT 402                                           01 
01060040030000037REP       US Representative, District 4                           UNDER VOTES                           PRECINCT 403                                           01 
01060040031000059REP       US Representative, District 4                           UNDER VOTES                           PRECINCT 404                                           01 
01060040032000001REP       US Representative, District 4                           UNDER VOTES                           PRECINCT 405                                           01 
01060040033000035REP       US Representative, District 4                           UNDER VOTES                           PRECINCT 406                                           01 
01060040034000000REP       US Representative, District 4                           UNDER VOTES                           PRECINCT 407                                           01 
01060040035000023REP       US Representative, District 4                           UNDER VOTES                           PRECINCT 408                                           01 
01060040036000060REP       US Representative, District 4                           UNDER VOTES                           PRECINCT 409                                           01 
01070010001000334REP       Governor                                                Greg Abbott                           PRECINCT 101                                           01 
01070010002000085REP       Governor                                                Greg Abbott                           PRECINCT 102                                           01 
01070010003000094REP       Governor                                                Greg Abbott                           PRECINCT 103                                           01 
01070010004000143REP       Governor                                                Greg Abbott                           PRECINCT 104                                           01 
01070010005000710REP       Governor                                                Greg Abbott                           PRECINCT 105                                           01 
01070010006000345REP       Governor                                                Greg Abbott                           PRECINCT 106                                           01 
01070010007000323REP       Governor                                                Greg Abbott                           PRECINCT 107                                           01 
01070010008000246REP       Governor                                                Greg Abbott                           PRECINCT 108                                           01 
01070010009000398REP       Governor                                                Greg Abbott                           PRECINCT 201                                           01 
01070010010000345REP       Governor                                                Greg Abbott                           PRECINCT 202                                           01 
01070010011000055REP       Governor                                                Greg Abbott                           PRECINCT 203                                           01 
01070010012000161REP       Governor                                                Greg Abbott                           PRECINCT 204                                           01 
01070010013000590REP       Governor                                                Greg Abbott                           PRECINCT 205                                           01 
01070010014000207REP       Governor                                                Greg Abbott                           PRECINCT 206                                           01 
01070010015000178REP       Governor                                                Greg Abbott                           PRECINCT 207                                           01 
01070010016000192REP       Governor                                                Greg Abbott                           PRECINCT 208                                           01 
01070010017000212REP       Governor                                                Greg Abbott                           PRECINCT 209                                           01 
01070010018000334REP       Governor                                                Greg Abbott                           PRECINCT 210                                           01 
01070010019000179REP       Governor                                                Greg Abbott                           PRECINCT 301                                           01 
01070010020000609REP       Governor                                                Greg Abbott                           PRECINCT 302                                           01 
01070010021000174REP       Governor                                                Greg Abbott                           PRECINCT 303                                           01 
01070010022000472REP       Governor                                                Greg Abbott                           PRECINCT 304                                           01 
01070010023000246REP       Governor                                                Greg Abbott                           PRECINCT 305                                           01 
01070010024000635REP       Governor                                                Greg Abbott                           PRECINCT 306                                           01 
01070010025000329REP       Governor                                                Greg Abbott                           PRECINCT 307                                           01 
01070010026000189REP       Governor                                                Greg Abbott                           PRECINCT 308                                           01 
01070010027000099REP       Governor                                                Greg Abbott                           PRECINCT 309                                           01 
01070010028000105REP       Governor                                                Greg Abbott                           PRECINCT 401                                           01 
01070010029000269REP       Governor                                                Greg Abbott                           PRECINCT 402                                           01 
01070010030000513REP       Governor                                                Greg Abbott                           PRECINCT 403                                           01 
01070010031000714REP       Governor                                                Greg Abbott                           PRECINCT 404                                           01 
01070010032000052REP       Governor                                                Greg Abbott                           PRECINCT 405                                           01 
01070010033000481REP       Governor                                                Greg Abbott                           PRECINCT 406                                           01 
01070010034000007REP       Governor                                                Greg Abbott                           PRECINCT 407                                           01 
01070010035000233REP       Governor                                                Greg Abbott                           PRECINCT 408                                           01 
01070010036000809REP       Governor                                                Greg Abbott                           PRECINCT 409                                           01 
01070020001000027REP       Governor                                                Barbara Krueger                       PRECINCT 101                                           01 
01070020002000014REP       Governor                                                Barbara Krueger                       PRECINCT 102                                           01 
01070020003000004REP       Governor                                                Barbara Krueger                       PRECINCT 103                                           01 
01070020004000012REP       Governor                                                Barbara Krueger                       PRECINCT 104                                           01 
01070020005000036REP       Governor                                                Barbara Krueger                       PRECINCT 105                                           01 
01070020006000020REP       Governor                                                Barbara Krueger                       PRECINCT 106                                           01 
01070020007000031REP       Governor                                                Barbara Krueger                       PRECINCT 107                                           01 
01070020008000022REP       Governor                                                Barbara Krueger                       PRECINCT 108                                           01 
01070020009000042REP       Governor                                                Barbara Krueger                       PRECINCT 201                                           01 
01070020010000026REP       Governor                                                Barbara Krueger                       PRECINCT 202                                           01 
01070020011000007REP       Governor                                                Barbara Krueger                       PRECINCT 203                                           01 
01070020012000013REP       Governor                                                Barbara Krueger                       PRECINCT 204                                           01 
