01010010001000000          REGISTERED VOTERS - TOTAL                               REGISTERED VOTERS - TOTAL             PRECINCT 101                                           00 
01010010002000000          REGISTERED VOTERS - TOTAL                               REGISTERED VOTERS - TOTAL             PRECINCT 102                                           00 
01010010003000000          REGISTERED VOTERS - TOTAL                               REGISTERED VOTERS - TOTAL             PRECINCT 103                                           00 
01010010004000000          REGISTERED VOTERS - TOTAL                               REGISTERED VOTERS - TOTAL             PRECINCT 104                                           00 
01010010005000000          REGISTERED VOTERS - TOTAL                               REGISTERED VOTERS - TOTAL             PRECINCT 105                                           00 
01010010006000000          REGISTERED VOTERS - TOTAL                               REGISTERED VOTERS - TOTAL             PRECINCT 106                                           00 
01010010007000000          REGISTERED VOTERS - TOTAL                               REGISTERED VOTERS - TOTAL             PRECINCT 107                                           00 
01010010008000000          REGISTERED VOTERS - TOTAL                               REGISTERED VOTERS - TOTAL             PRECINCT 108                                           00 
01010010009000000          REGISTERED VOTERS - TOTAL                               REGISTERED VOTERS - TOTAL             PRECINCT 201                                           00 
01010010010000000          REGISTERED VOTERS - TOTAL                               REGISTERED VOTERS - TOTAL             PRECINCT 202                                           00 
01010010011000000          REGISTERED VOTERS - TOTAL                               REGISTERED VOTERS - TOTAL             PRECINCT 203                                           00 
01010010012000000          REGISTERED VOTERS - TOTAL                               REGISTERED VOTERS - TOTAL             PRECINCT 204                                           00 
01010010013000000          REGISTERED VOTERS - TOTAL                               REGISTERED VOTERS - TOTAL             PRECINCT 205                                           00 
01010010014000000          REGISTERED VOTERS - TOTAL                               REGISTERED VOTERS - TOTAL             PRECINCT 206                                           00 
01010010015000000          REGISTERED VOTERS - TOTAL                               REGISTERED VOTERS - TOTAL             PRECINCT 207                                           00 
01010010016000000          REGISTERED VOTERS - TOTAL                               REGISTERED VOTERS - TOTAL             PRECINCT 208                                           00 
01010010017000000          REGISTERED VOTERS - TOTAL                               REGISTERED VOTERS - TOTAL             PRECINCT 209                                           00 
01010010018000000          REGISTERED VOTERS - TOTAL                               REGISTERED VOTERS - TOTAL             PRECINCT 210                                           00 
01010010019000000          REGISTERED VOTERS - TOTAL                               REGISTERED VOTERS - TOTAL             PRECINCT 301                                           00 
01010010020000000          REGISTERED VOTERS - TOTAL                               REGISTERED VOTERS - TOTAL             PRECINCT 302                                           00 
01010010021000000          REGISTERED VOTERS - TOTAL                               REGISTERED VOTERS - TOTAL             PRECINCT 303                                           00 
01010010022000000          REGISTERED VOTERS - TOTAL                               REGISTERED VOTERS - TOTAL             PRECINCT 304                                           00 
01010010023000000          REGISTERED VOTERS - TOTAL                               REGISTERED VOTERS - TOTAL             PRECINCT 305                                           00 
01010010024000000          REGISTERED VOTERS - TOTAL                               REGISTERED VOTERS - TOTAL             PRECINCT 306                                           00 
01010010025000000          REGISTERED VOTERS - TOTAL                               REGISTERED VOTERS - TOTAL             PRECINCT 307                                           00 
01010010026000000          REGISTERED VOTERS - TOTAL                               REGISTERED VOTERS - TOTAL             PRECINCT 308                                           00 
01010010027000000          REGISTERED VOTERS - TOTAL                               REGISTERED VOTERS - TOTAL             PRECINCT 309                                           00 
01010010028000000          REGISTERED VOTERS - TOTAL                               REGISTERED VOTERS - TOTAL             PRECINCT 401                                           00 
01010010029000000          REGISTERED VOTERS - TOTAL                               REGISTERED VOTERS - TOTAL             PRECINCT 402                                           00 
01010010030000000          REGISTERED VOTERS - TOTAL                               REGISTERED VOTERS - TOTAL             PRECINCT 403                                           00 
01010010031000000          REGISTERED VOTERS - TOTAL                               REGISTERED VOTERS - TOTAL             PRECINCT 404                                           00 
01010010032000000          REGISTERED VOTERS - TOTAL                               REGISTERED VOTERS - TOTAL             PRECINCT 405                                           00 
01010010033000000          REGISTERED VOTERS - TOTAL                               REGISTERED VOTERS - TOTAL             PRECINCT 406                                           00 
01010010034000000          REGISTERED VOTERS - TOTAL                               REGISTERED VOTERS - TOTAL             PRECINCT 407                                           00 
01010010035000000          REGISTERED VOTERS - TOTAL                               REGISTERED VOTERS - TOTAL             PRECINCT 408                                           00 
01010010036000000          REGISTERED VOTERS - TOTAL                               REGISTERED VOTERS - TOTAL             PRECINCT 409                                           00 
01020010001000564          BALLOTS CAST - TOTAL                                    BALLOTS CAST - TOTAL                  PRECINCT 101                                           00 
01020010002000236          BALLOTS CAST - TOTAL                                    BALLOTS CAST - TOTAL                  PRECINCT 102                                           00 
01020010003000109          BALLOTS CAST - TOTAL                                    BALLOTS CAST - TOTAL                  PRECINCT 103                                           00 
01020010004000196          BALLOTS CAST - TOTAL                                    BALLOTS CAST - TOTAL                  PRECINCT 104                                           00 
01020010005000892          BALLOTS CAST - TOTAL                                    BALLOTS CAST - TOTAL                  PRECINCT 105                                           00 
01020010006000437          BALLOTS CAST - TOTAL                                    BALLOTS CAST - TOTAL                  PRECINCT 106                                           00 
01020010007000407          BALLOTS CAST - TOTAL                                    BALLOTS CAST - TOTAL                  PRECINCT 107                                           00 
01020010008000323          BALLOTS CAST - TOTAL                                    BALLOTS CAST - TOTAL                  PRECINCT 108                                           00 
01020010009000571          BALLOTS CAST - TOTAL                                    BALLOTS CAST - TOTAL                  PRECINCT 201                                           00 
01020010010000517          BALLOTS CAST - TOTAL                                    BALLOTS CAST - TOTAL                  PRECINCT 202                                           00 
01020010011000109          BALLOTS CAST - TOTAL                                    BALLOTS CAST - TOTAL                  PRECINCT 203                                           00 
01020010012000221          BALLOTS CAST - TOTAL                                    BALLOTS CAST - TOTAL                  PRECINCT 204                                           00 
01020010013000763          BALLOTS CAST - TOTAL                                    BALLOTS CAST - TOTAL                  PRECINCT 205                                           00 
01020010014000295          BALLOTS CAST - TOTAL                                    BALLOTS CAST - TOTAL                  PRECINCT 206                                           00 
01020010015000227          BALLOTS CAST - TOTAL                                    BALLOTS CAST - TOTAL                  PRECINCT 207                                           00 
01020010016000259          BALLOTS CAST - TOTAL                                    BALLOTS CAST - TOTAL                  PRECINCT 208                                           00 
01020010017000259          BALLOTS CAST - TOTAL                                    BALLOTS CAST - TOTAL                  PRECINCT 209                                           00 
01020010018000408          BALLOTS CAST - TOTAL                                    BALLOTS CAST - TOTAL                  PRECINCT 210                                           00 
01020010019000280          BALLOTS CAST - TOTAL                                    BALLOTS CAST - TOTAL                  PRECINCT 301                                           00 
01020010020000916          BALLOTS CAST - TOTAL                                    BALLOTS CAST - TOTAL                  PRECINCT 302                                           00 
01020010021000215          BALLOTS CAST - TOTAL                                    BALLOTS CAST - TOTAL                  PRECINCT 303                                           00 
01020010022000700          BALLOTS CAST - TOTAL                                    BALLOTS CAST - TOTAL                  PRECINCT 304                                           00 
01020010023000310          BALLOTS CAST - TOTAL                                    BALLOTS CAST - TOTAL                  PRECINCT 305                                           00 
01020010024000836          BALLOTS CAST - TOTAL                                    BALLOTS CAST - TOTAL                  PRECINCT 306                                           00 
01020010025000398          BALLOTS CAST - TOTAL                                    BALLOTS CAST - TOTAL                  PRECINCT 307                                           00 
01020010026000222          BALLOTS CAST - TOTAL                                    BALLOTS CAST - TOTAL                  PRECINCT 308                                           00 
01020010027000126          BALLOTS CAST - TOTAL                                    BALLOTS CAST - TOTAL                  PRECINCT 309                                           00 
01020010028000231          BALLOTS CAST - TOTAL                                    BALLOTS CAST - TOTAL                  PRECINCT 401                                           00 
01020010029000407          BALLOTS CAST - TOTAL                                    BALLOTS CAST - TOTAL                  PRECINCT 402                                           00 
01020010030000642          BALLOTS CAST - TOTAL                                    BALLOTS CAST - TOTAL                  PRECINCT 403                                           00 
01020010031000927          BALLOTS CAST - TOTAL                                    BALLOTS CAST - TOTAL                  PRECINCT 404                                           00 
01020010032000081          BALLOTS CAST - TOTAL                                    BALLOTS CAST - TOTAL                  PRECINCT 405                                           00 
01020010033000605          BALLOTS CAST - TOTAL                                    BALLOTS CAST - TOTAL                  PRECINCT 406                                           00 
01020010034000011          BALLOTS CAST - TOTAL                                    BALLOTS CAST - TOTAL                  PRECINCT 407                                           00 
01020010035000305          BALLOTS CAST - TOTAL                                    BALLOTS CAST - TOTAL                  PRECINCT 408                                           00 
01020010036001119          BALLOTS CAST - TOTAL                                    BALLOTS CAST - TOTAL                  PRECINCT 409                                           00 
01040010001000185DEM       BALLOTS CAST - DEMOCRATIC PARTY                         BALLOTS CAST - DEMOCRATIC PARTY       PRECINCT 101                                           00 
01040010002000125DEM       BALLOTS CAST - DEMOCRATIC PARTY                         BALLOTS CAST - DEMOCRATIC PARTY       PRECINCT 102                                           00 
01040010003000010DEM       BALLOTS CAST - DEMOCRATIC PARTY                         BALLOTS CAST - DEMOCRATIC PARTY       PRECINCT 103                                           00 
01040010004000025DEM       BALLOTS CAST - DEMOCRATIC PARTY                         BALLOTS CAST - DEMOCRATIC PARTY       PRECINCT 104                                           00 
01040010005000114DEM       BALLOTS CAST - DEMOCRATIC PARTY                         BALLOTS CAST - DEMOCRATIC PARTY       PRECINCT 105                                           00 
01040010006000058DEM       BALLOTS CAST - DEMOCRATIC PARTY                         BALLOTS CAST - DEMOCRATIC PARTY       PRECINCT 106                                           00 
01040010007000033DEM       BALLOTS CAST - DEMOCRATIC PARTY                         BALLOTS CAST - DEMOCRATIC PARTY       PRECINCT 107                                           00 
01040010008000031DEM       BALLOTS CAST - DEMOCRATIC PARTY                         BALLOTS CAST - DEMOCRATIC PARTY       PRECINCT 108                                           00 
01040010009000111DEM       BALLOTS CAST - DEMOCRATIC PARTY                         BALLOTS CAST - DEMOCRATIC PARTY       PRECINCT 201                                           00 
01040010010000119DEM       BALLOTS CAST - DEMOCRATIC PARTY                         BALLOTS CAST - DEMOCRATIC PARTY       PRECINCT 202                                           00 
01040010011000042DEM       BALLOTS CAST - DEMOCRATIC PARTY                         BALLOTS CAST - DEMOCRATIC PARTY       PRECINCT 203                                           00 
01040010012000043DEM       BALLOTS CAST - DEMOCRATIC PARTY                         BALLOTS CAST - DEMOCRATIC PARTY       PRECINCT 204                                           00 
01040010013000091DEM       BALLOTS CAST - DEMOCRATIC PARTY                         BALLOTS CAST - DEMOCRATIC PARTY       PRECINCT 205                                           00 
01040010014000053DEM       BALLOTS CAST - DEMOCRATIC PARTY                         BALLOTS CAST - DEMOCRATIC PARTY       PRECINCT 206                                           00 
01040010015000023DEM       BALLOTS CAST - DEMOCRATIC PARTY                         BALLOTS CAST - DEMOCRATIC PARTY       PRECINCT 207                                           00 
01040010016000036DEM       BALLOTS CAST - DEMOCRATIC PARTY                         BALLOTS CAST - DEMOCRATIC PARTY       PRECINCT 208                                           00 
01040010017000024DEM       BALLOTS CAST - DEMOCRATIC PARTY                         BALLOTS CAST - DEMOCRATIC PARTY       PRECINCT 209                                           00 
01040010018000034DEM       BALLOTS CAST - DEMOCRATIC PARTY                         BALLOTS CAST - DEMOCRATIC PARTY       PRECINCT 210                                           00 
01040010019000071DEM       BALLOTS CAST - DEMOCRATIC PARTY                         BALLOTS CAST - DEMOCRATIC PARTY       PRECINCT 301                                           00 
01040010020000213DEM       BALLOTS CAST - DEMOCRATIC PARTY                         BALLOTS CAST - DEMOCRATIC PARTY       PRECINCT 302                                           00 
01040010021000022DEM       BALLOTS CAST - DEMOCRATIC PARTY                         BALLOTS CAST - DEMOCRATIC PARTY       PRECINCT 303                                           00 
01040010022000142DEM       BALLOTS CAST - DEMOCRATIC PARTY                         BALLOTS CAST - DEMOCRATIC PARTY       PRECINCT 304                                           00 
01040010023000030DEM       BALLOTS CAST - DEMOCRATIC PARTY                         BALLOTS CAST - DEMOCRATIC PARTY       PRECINCT 305                                           00 
01040010024000081DEM       BALLOTS CAST - DEMOCRATIC PARTY                         BALLOTS CAST - DEMOCRATIC PARTY       PRECINCT 306                                           00 
01040010025000030DEM       BALLOTS CAST - DEMOCRATIC PARTY                         BALLOTS CAST - DEMOCRATIC PARTY       PRECINCT 307                                           00 
01040010026000016DEM       BALLOTS CAST - DEMOCRATIC PARTY                         BALLOTS CAST - DEMOCRATIC PARTY       PRECINCT 308                                           00 
01040010027000017DEM       BALLOTS CAST - DEMOCRATIC PARTY                         BALLOTS CAST - DEMOCRATIC PARTY       PRECINCT 309                                           00 
01040010028000102DEM       BALLOTS CAST - DEMOCRATIC PARTY                         BALLOTS CAST - DEMOCRATIC PARTY       PRECINCT 401                                           00 
01040010029000098DEM       BALLOTS CAST - DEMOCRATIC PARTY                         BALLOTS CAST - DEMOCRATIC PARTY       PRECINCT 402                                           00 
01040010030000067DEM       BALLOTS CAST - DEMOCRATIC PARTY                         BALLOTS CAST - DEMOCRATIC PARTY       PRECINCT 403                                           00 
01040010031000108DEM       BALLOTS CAST - DEMOCRATIC PARTY                         BALLOTS CAST - DEMOCRATIC PARTY       PRECINCT 404                                           00 
01040010032000016DEM       BALLOTS CAST - DEMOCRATIC PARTY                         BALLOTS CAST - DEMOCRATIC PARTY       PRECINCT 405                                           00 
01040010033000063DEM       BALLOTS CAST - DEMOCRATIC PARTY                         BALLOTS CAST - DEMOCRATIC PARTY       PRECINCT 406                                           00 
01040010034000003DEM       BALLOTS CAST - DEMOCRATIC PARTY                         BALLOTS CAST - DEMOCRATIC PARTY       PRECINCT 407                                           00 
01040010035000036DEM       BALLOTS CAST - DEMOCRATIC PARTY                         BALLOTS CAST - DEMOCRATIC PARTY       PRECINCT 408                                           00 
01040010036000173DEM       BALLOTS CAST - DEMOCRATIC PARTY                         BALLOTS CAST - DEMOCRATIC PARTY       PRECINCT 409                                           00 
01600010001000085DEM       US Senator                                              Beto O'Rourke                         PRECINCT 101                                           01 
01600010002000071DEM       US Senator                                              Beto O'Rourke                         PRECINCT 102                                           01 
01600010003000003DEM       US Senator                                              Beto O'Rourke                         PRECINCT 103                                           01 
01600010004000014DEM       US Senator                                              Beto O'Rourke                         PRECINCT 104                                           01 
01600010005000072DEM       US Senator                                              Beto O'Rourke                         PRECINCT 105                                           01 
01600010006000028DEM       US Senator                                              Beto O'Rourke                         PRECINCT 106                                           01 
01600010007000021DEM       US Senator                                              Beto O'Rourke                         PRECINCT 107                                           01 
01600010008000017DEM       US Senator                                              Beto O'Rourke                         PRECINCT 108                                           01 
01600010009000070DEM       US Senator                                              Beto O'Rourke                         PRECINCT 201                                           01 
01600010010000069DEM       US Senator                                              Beto O'Rourke                         PRECINCT 202                                           01 
01600010011000019DEM       US Senator                                              Beto O'Rourke                         PRECINCT 203                                           01 
01600010012000029DEM       US Senator                                              Beto O'Rourke                         PRECINCT 204                                           01 
01600010013000056DEM       US Senator                                              Beto O'Rourke                         PRECINCT 205                                           01 
01600010014000032DEM       US Senator                                              Beto O'Rourke                         PRECINCT 206                                           01 
01600010015000014DEM       US Senator                                              Beto O'Rourke                         PRECINCT 207                                           01 
01600010016000021DEM       US Senator                                              Beto O'Rourke                         PRECINCT 208                                           01 
01600010017000010DEM       US Senator                                              Beto O'Rourke                         PRECINCT 209                                           01 
01600010018000013DEM       US Senator                                              Beto O'Rourke                         PRECINCT 210                                           01 
01600010019000038DEM       US Senator                                              Beto O'Rourke                         PRECINCT 301                                           01 
01600010020000118DEM       US Senator                                              Beto O'Rourke                         PRECINCT 302                                           01 
01600010021000014DEM       US Senator                                              Beto O'Rourke                         PRECINCT 303                                           01 
01600010022000097DEM       US Senator                                              Beto O'Rourke                         PRECINCT 304                                           01 
01600010023000018DEM       US Senator                                              Beto O'Rourke                         PRECINCT 305                                           01 
01600010024000041DEM       US Senator                                              Beto O'Rourke                         PRECINCT 306                                           01 
01600010025000016DEM       US Senator                                              Beto O'Rourke                         PRECINCT 307                                           01 
01600010026000008DEM       US Senator                                              Beto O'Rourke                         PRECINCT 308                                           01 
01600010027000011DEM       US Senator                                              Beto O'Rourke                         PRECINCT 309                                           01 
01600010028000047DEM       US Senator                                              Beto O'Rourke                         PRECINCT 401                                           01 
01600010029000056DEM       US Senator                                              Beto O'Rourke                         PRECINCT 402                                           01 
01600010030000042DEM       US Senator                                              Beto O'Rourke                         PRECINCT 403                                           01 
01600010031000064DEM       US Senator                                              Beto O'Rourke                         PRECINCT 404                                           01 
01600010032000013DEM       US Senator                                              Beto O'Rourke                         PRECINCT 405                                           01 
01600010033000034DEM       US Senator                                              Beto O'Rourke                         PRECINCT 406                                           01 
01600010034000003DEM       US Senator                                              Beto O'Rourke                         PRECINCT 407                                           01 
01600010035000020DEM       US Senator                                              Beto O'Rourke                         PRECINCT 408                                           01 
01600010036000108DEM       US Senator                                              Beto O'Rourke                         PRECINCT 409                                           01 
01600020001000060DEM       US Senator                                              Sema Hernandez                        PRECINCT 101                                           01 
01600020002000030DEM       US Senator                                              Sema Hernandez                        PRECINCT 102                                           01 
01600020003000005DEM       US Senator                                              Sema Hernandez                        PRECINCT 103                                           01 
01600020004000006DEM       US Senator                                              Sema Hernandez                        PRECINCT 104                                           01 
01600020005000023DEM       US Senator                                              Sema Hernandez                        PRECINCT 105                                           01 
01600020006000013DEM       US Senator                                              Sema Hernandez                        PRECINCT 106                                           01 
01600020007000005DEM       US Senator                                              Sema Hernandez                        PRECINCT 107                                           01 
01600020008000008DEM       US Senator                                              Sema Hernandez                        PRECINCT 108                                           01 
01600020009000023DEM       US Senator                                              Sema Hernandez                        PRECINCT 201                                           01 
01600020010000028DEM       US Senator                                              Sema Hernandez                        PRECINCT 202                                           01 
01600020011000013DEM       US Senator                                              Sema Hernandez                        PRECINCT 203                                           01 
01600020012000005DEM       US Senator                                              Sema Hernandez                        PRECINCT 204                                           01 
01600020013000017DEM       US Senator                                              Sema Hernandez                        PRECINCT 205                                           01 
01600020014000012DEM       US Senator                                              Sema Hernandez                        PRECINCT 206                                           01 
01600020015000009DEM       US Senator                                              Sema Hernandez                        PRECINCT 207                                           01 
01600020016000008DEM       US Senator                                              Sema Hernandez                        PRECINCT 208                                           01 
01600020017000010DEM       US Senator                                              Sema Hernandez                        PRECINCT 209                                           01 
01600020018000007DEM       US Senator                                              Sema Hernandez                        PRECINCT 210                                           01 
01600020019000019DEM       US Senator                                              Sema Hernandez                        PRECINCT 301                                           01 
01600020020000053DEM       US Senator                                              Sema Hernandez                        PRECINCT 302                                           01 
01600020021000002DEM       US Senator                                              Sema Hernandez                        PRECINCT 303                                           01 
01600020022000023DEM       US Senator                                              Sema Hernandez                        PRECINCT 304                                           01 
01600020023000004DEM       US Senator                                              Sema Hernandez                        PRECINCT 305                                           01 
01600020024000013DEM       US Senator                                              Sema Hernandez                        PRECINCT 306                                           01 
01600020025000006DEM       US Senator                                              Sema Hernandez                        PRECINCT 307                                           01 
01600020026000004DEM       US Senator                                              Sema Hernandez                        PRECINCT 308                                           01 
01600020027000002DEM       US Senator                                              Sema Hernandez                        PRECINCT 309                                           01 
01600020028000033DEM       US Senator                                              Sema Hernandez                        PRECINCT 401                                           01 
01600020029000024DEM       US Senator                                              Sema Hernandez                        PRECINCT 402                                           01 
01600020030000014DEM       US Senator                                              Sema Hernandez                        PRECINCT 403                                           01 
01600020031000020DEM       US Senator                                              Sema Hernandez                        PRECINCT 404                                           01 
01600020032000003DEM       US Senator                                              Sema Hernandez                        PRECINCT 405                                           01 
01600020033000006DEM       US Senator                                              Sema Hernandez                        PRECINCT 406                                           01 
01600020034000000DEM       US Senator                                              Sema Hernandez                        PRECINCT 407                                           01 
01600020035000010DEM       US Senator                                              Sema Hernandez                        PRECINCT 408                                           01 
01600020036000036DEM       US Senator                                              Sema Hernandez                        PRECINCT 409                                           01 
01600030001000032DEM       US Senator                                              Edward Kimbrough                      PRECINCT 101                                           01 
01600030002000014DEM       US Senator                                              Edward Kimbrough                      PRECINCT 102                                           01 
01600030003000002DEM       US Senator                                              Edward Kimbrough                      PRECINCT 103                                           01 
01600030004000005DEM       US Senator                                              Edward Kimbrough                      PRECINCT 104                                           01 
01600030005000017DEM       US Senator                                              Edward Kimbrough                      PRECINCT 105                                           01 
01600030006000012DEM       US Senator                                              Edward Kimbrough                      PRECINCT 106                                           01 
01600030007000005DEM       US Senator                                              Edward Kimbrough                      PRECINCT 107                                           01 
01600030008000005DEM       US Senator                                              Edward Kimbrough                      PRECINCT 108                                           01 
01600030009000012DEM       US Senator                                              Edward Kimbrough                      PRECINCT 201                                           01 
01600030010000021DEM       US Senator                                              Edward Kimbrough                      PRECINCT 202                                           01 
01600030011000010DEM       US Senator                                              Edward Kimbrough                      PRECINCT 203                                           01 
01600030012000007DEM       US Senator                                              Edward Kimbrough                      PRECINCT 204                                           01 
01600030013000015DEM       US Senator                                              Edward Kimbrough                      PRECINCT 205                                           01 
01600030014000007DEM       US Senator                                              Edward Kimbrough                      PRECINCT 206                                           01 
01600030015000000DEM       US Senator                                              Edward Kimbrough                      PRECINCT 207                                           01 
01600030016000004DEM       US Senator                                              Edward Kimbrough                      PRECINCT 208                                           01 
01600030017000004DEM       US Senator                                              Edward Kimbrough                      PRECINCT 209                                           01 
01600030018000009DEM       US Senator                                              Edward Kimbrough                      PRECINCT 210                                           01 
01600030019000011DEM       US Senator                                              Edward Kimbrough                      PRECINCT 301                                           01 
01600030020000035DEM       US Senator                                              Edward Kimbrough                      PRECINCT 302                                           01 
01600030021000005DEM       US Senator                                              Edward Kimbrough                      PRECINCT 303                                           01 
01600030022000019DEM       US Senator                                              Edward Kimbrough                      PRECINCT 304                                           01 
01600030023000008DEM       US Senator                                              Edward Kimbrough                      PRECINCT 305                                           01 
01600030024000020DEM       US Senator                                              Edward Kimbrough                      PRECINCT 306                                           01 
01600030025000007DEM       US Senator                                              Edward Kimbrough                      PRECINCT 307                                           01 
01600030026000003DEM       US Senator                                              Edward Kimbrough                      PRECINCT 308                                           01 
01600030027000004DEM       US Senator                                              Edward Kimbrough                      PRECINCT 309                                           01 
01600030028000017DEM       US Senator                                              Edward Kimbrough                      PRECINCT 401                                           01 
01600030029000015DEM       US Senator                                              Edward Kimbrough                      PRECINCT 402                                           01 
01600030030000009DEM       US Senator                                              Edward Kimbrough                      PRECINCT 403                                           01 
01600030031000015DEM       US Senator                                              Edward Kimbrough                      PRECINCT 404                                           01 
01600030032000000DEM       US Senator                                              Edward Kimbrough                      PRECINCT 405                                           01 
01600030033000021DEM       US Senator                                              Edward Kimbrough                      PRECINCT 406                                           01 
01600030034000000DEM       US Senator                                              Edward Kimbrough                      PRECINCT 407                                           01 
01600030035000006DEM       US Senator                                              Edward Kimbrough                      PRECINCT 408                                           01 
01600030036000022DEM       US Senator                                              Edward Kimbrough                      PRECINCT 409                                           01 
01600040001000000DEM       US Senator                                              OVER VOTES                            PRECINCT 101                                           01 
01600040002000000DEM       US Senator                                              OVER VOTES                            PRECINCT 102                                           01 
01600040003000000DEM       US Senator                                              OVER VOTES                            PRECINCT 103                                           01 
01600040004000000DEM       US Senator                                              OVER VOTES                            PRECINCT 104                                           01 
01600040005000000DEM       US Senator                                              OVER VOTES                            PRECINCT 105                                           01 
01600040006000000DEM       US Senator                                              OVER VOTES                            PRECINCT 106                                           01 
01600040007000000DEM       US Senator                                              OVER VOTES                            PRECINCT 107                                           01 
01600040008000000DEM       US Senator                                              OVER VOTES                            PRECINCT 108                                           01 
01600040009000000DEM       US Senator                                              OVER VOTES                            PRECINCT 201                                           01 
01600040010000000DEM       US Senator                                              OVER VOTES                            PRECINCT 202                                           01 
01600040011000000DEM       US Senator                                              OVER VOTES                            PRECINCT 203                                           01 
01600040012000000DEM       US Senator                                              OVER VOTES                            PRECINCT 204                                           01 
01600040013000000DEM       US Senator                                              OVER VOTES                            PRECINCT 205                                           01 
01600040014000000DEM       US Senator                                              OVER VOTES                            PRECINCT 206                                           01 
01600040015000000DEM       US Senator                                              OVER VOTES                            PRECINCT 207                                           01 
01600040016000000DEM       US Senator                                              OVER VOTES                            PRECINCT 208                                           01 
01600040017000000DEM       US Senator                                              OVER VOTES                            PRECINCT 209                                           01 
01600040018000000DEM       US Senator                                              OVER VOTES                            PRECINCT 210                                           01 
01600040019000000DEM       US Senator                                              OVER VOTES                            PRECINCT 301                                           01 
01600040020000000DEM       US Senator                                              OVER VOTES                            PRECINCT 302                                           01 
01600040021000000DEM       US Senator                                              OVER VOTES                            PRECINCT 303                                           01 
01600040022000000DEM       US Senator                                              OVER VOTES                            PRECINCT 304                                           01 
01600040023000000DEM       US Senator                                              OVER VOTES                            PRECINCT 305                                           01 
01600040024000000DEM       US Senator                                              OVER VOTES                            PRECINCT 306                                           01 
01600040025000000DEM       US Senator                                              OVER VOTES                            PRECINCT 307                                           01 
01600040026000000DEM       US Senator                                              OVER VOTES                            PRECINCT 308                                           01 
01600040027000000DEM       US Senator                                              OVER VOTES                            PRECINCT 309                                           01 
01600040028000000DEM       US Senator                                              OVER VOTES                            PRECINCT 401                                           01 
01600040029000000DEM       US Senator                                              OVER VOTES                            PRECINCT 402                                           01 
01600040030000000DEM       US Senator                                              OVER VOTES                            PRECINCT 403                                           01 
01600040031000000DEM       US Senator                                              OVER VOTES                            PRECINCT 404                                           01 
01600040032000000DEM       US Senator                                              OVER VOTES                            PRECINCT 405                                           01 
01600040033000000DEM       US Senator                                              OVER VOTES                            PRECINCT 406                                           01 
01600040034000000DEM       US Senator                                              OVER VOTES                            PRECINCT 407                                           01 
01600040035000000DEM       US Senator                                              OVER VOTES                            PRECINCT 408                                           01 
01600040036000000DEM       US Senator                                              OVER VOTES                            PRECINCT 409                                           01 
01600050001000008DEM       US Senator                                              UNDER VOTES                           PRECINCT 101                                           01 
01600050002000010DEM       US Senator                                              UNDER VOTES                           PRECINCT 102                                           01 
01600050003000000DEM       US Senator                                              UNDER VOTES                           PRECINCT 103                                           01 
01600050004000000DEM       US Senator                                              UNDER VOTES                           PRECINCT 104                                           01 
01600050005000002DEM       US Senator                                              UNDER VOTES                           PRECINCT 105                                           01 
01600050006000005DEM       US Senator                                              UNDER VOTES                           PRECINCT 106                                           01 
01600050007000002DEM       US Senator                                              UNDER VOTES                           PRECINCT 107                                           01 
01600050008000001DEM       US Senator                                              UNDER VOTES                           PRECINCT 108                                           01 
01600050009000006DEM       US Senator                                              UNDER VOTES                           PRECINCT 201                                           01 
01600050010000001DEM       US Senator                                              UNDER VOTES                           PRECINCT 202                                           01 
01600050011000000DEM       US Senator                                              UNDER VOTES                           PRECINCT 203                                           01 
01600050012000002DEM       US Senator                                              UNDER VOTES                           PRECINCT 204                                           01 
01600050013000003DEM       US Senator                                              UNDER VOTES                           PRECINCT 205                                           01 
01600050014000002DEM       US Senator                                              UNDER VOTES                           PRECINCT 206                                           01 
01600050015000000DEM       US Senator                                              UNDER VOTES                           PRECINCT 207                                           01 
01600050016000003DEM       US Senator                                              UNDER VOTES                           PRECINCT 208                                           01 
01600050017000000DEM       US Senator                                              UNDER VOTES                           PRECINCT 209                                           01 
01600050018000005DEM       US Senator                                              UNDER VOTES                           PRECINCT 210                                           01 
01600050019000003DEM       US Senator                                              UNDER VOTES                           PRECINCT 301                                           01 
01600050020000007DEM       US Senator                                              UNDER VOTES                           PRECINCT 302                                           01 
01600050021000001DEM       US Senator                                              UNDER VOTES                           PRECINCT 303                                           01 
01600050022000003DEM       US Senator                                              UNDER VOTES                           PRECINCT 304                                           01 
01600050023000000DEM       US Senator                                              UNDER VOTES                           PRECINCT 305                                           01 
01600050024000007DEM       US Senator                                              UNDER VOTES                           PRECINCT 306                                           01 
01600050025000001DEM       US Senator                                              UNDER VOTES                           PRECINCT 307                                           01 
01600050026000001DEM       US Senator                                              UNDER VOTES                           PRECINCT 308                                           01 
01600050027000000DEM       US Senator                                              UNDER VOTES                           PRECINCT 309                                           01 
01600050028000005DEM       US Senator                                              UNDER VOTES                           PRECINCT 401                                           01 
01600050029000003DEM       US Senator                                              UNDER VOTES                           PRECINCT 402                                           01 
01600050030000002DEM       US Senator                                              UNDER VOTES                           PRECINCT 403                                           01 
01600050031000009DEM       US Senator                                              UNDER VOTES                           PRECINCT 404                                           01 
01600050032000000DEM       US Senator                                              UNDER VOTES                           PRECINCT 405                                           01 
01600050033000002DEM       US Senator                                              UNDER VOTES                           PRECINCT 406                                           01 
01600050034000000DEM       US Senator                                              UNDER VOTES                           PRECINCT 407                                           01 
01600050035000000DEM       US Senator                                              UNDER VOTES                           PRECINCT 408                                           01 
01600050036000007DEM       US Senator                                              UNDER VOTES                           PRECINCT 409                                           01 
01610010001000093DEM       US Representative, District 4                           Catherine Krantz                      PRECINCT 101                                           01 
01610010002000051DEM       US Representative, District 4                           Catherine Krantz                      PRECINCT 102                                           01 
01610010003000004DEM       US Representative, District 4                           Catherine Krantz                      PRECINCT 103                                           01 
01610010004000016DEM       US Representative, District 4                           Catherine Krantz                      PRECINCT 104                                           01 
01610010005000061DEM       US Representative, District 4                           Catherine Krantz                      PRECINCT 105                                           01 
01610010006000032DEM       US Representative, District 4                           Catherine Krantz                      PRECINCT 106                                           01 
01610010007000016DEM       US Representative, District 4                           Catherine Krantz                      PRECINCT 107                                           01 
01610010008000019DEM       US Representative, District 4                           Catherine Krantz                      PRECINCT 108                                           01 
01610010009000063DEM       US Representative, District 4                           Catherine Krantz                      PRECINCT 201                                           01 
01610010010000065DEM       US Representative, District 4                           Catherine Krantz                      PRECINCT 202                                           01 
01610010011000023DEM       US Representative, District 4                           Catherine Krantz                      PRECINCT 203                                           01 
01610010012000021DEM       US Representative, District 4                           Catherine Krantz                      PRECINCT 204                                           01 
01610010013000041DEM       US Representative, District 4                           Catherine Krantz                      PRECINCT 205                                           01 
01610010014000026DEM       US Representative, District 4                           Catherine Krantz                      PRECINCT 206                                           01 
01610010015000015DEM       US Representative, District 4                           Catherine Krantz                      PRECINCT 207                                           01 
01610010016000020DEM       US Representative, District 4                           Catherine Krantz                      PRECINCT 208                                           01 
01610010017000013DEM       US Representative, District 4                           Catherine Krantz                      PRECINCT 209                                           01 
01610010018000016DEM       US Representative, District 4                           Catherine Krantz                      PRECINCT 210                                           01 
01610010019000038DEM       US Representative, District 4                           Catherine Krantz                      PRECINCT 301                                           01 
01610010020000093DEM       US Representative, District 4                           Catherine Krantz                      PRECINCT 302                                           01 
01610010021000007DEM       US Representative, District 4                           Catherine Krantz                      PRECINCT 303                                           01 
01610010022000052DEM       US Representative, District 4                           Catherine Krantz                      PRECINCT 304                                           01 
01610010023000018DEM       US Representative, District 4                           Catherine Krantz                      PRECINCT 305                                           01 
01610010024000058DEM       US Representative, District 4                           Catherine Krantz                      PRECINCT 306                                           01 
01610010025000021DEM       US Representative, District 4                           Catherine Krantz                      PRECINCT 307                                           01 
01610010026000006DEM       US Representative, District 4                           Catherine Krantz                      PRECINCT 308                                           01 
01610010027000010DEM       US Representative, District 4                           Catherine Krantz                      PRECINCT 309                                           01 
01610010028000053DEM       US Representative, District 4                           Catherine Krantz                      PRECINCT 401                                           01 
01610010029000062DEM       US Representative, District 4                           Catherine Krantz                      PRECINCT 402                                           01 
01610010030000045DEM       US Representative, District 4                           Catherine Krantz                      PRECINCT 403                                           01 
01610010031000048DEM       US Representative, District 4                           Catherine Krantz                      PRECINCT 404                                           01 
01610010032000013DEM       US Representative, District 4                           Catherine Krantz                      PRECINCT 405                                           01 
01610010033000043DEM       US Representative, District 4                           Catherine Krantz                      PRECINCT 406                                           01 
01610010034000001DEM       US Representative, District 4                           Catherine Krantz                      PRECINCT 407                                           01 
01610010035000018DEM       US Representative, District 4                           Catherine Krantz                      PRECINCT 408                                           01 
01610010036000060DEM       US Representative, District 4                           Catherine Krantz                      PRECINCT 409                                           01 
01610020001000083DEM       US Representative, District 4                           Lander Bethel                         PRECINCT 101                                           01 
01610020002000061DEM       US Representative, District 4                           Lander Bethel                         PRECINCT 102                                           01 
01610020003000006DEM       US Representative, District 4                           Lander Bethel                         PRECINCT 103                                           01 
01610020004000007DEM       US Representative, District 4                           Lander Bethel                         PRECINCT 104                                           01 
01610020005000049DEM       US Representative, District 4                           Lander Bethel                         PRECINCT 105                                           01 
01610020006000023DEM       US Representative, District 4                           Lander Bethel                         PRECINCT 106                                           01 
01610020007000014DEM       US Representative, District 4                           Lander Bethel                         PRECINCT 107                                           01 
01610020008000010DEM       US Representative, District 4                           Lander Bethel                         PRECINCT 108                                           01 
01610020009000044DEM       US Representative, District 4                           Lander Bethel                         PRECINCT 201                                           01 
01610020010000050DEM       US Representative, District 4                           Lander Bethel                         PRECINCT 202                                           01 
01610020011000017DEM       US Representative, District 4                           Lander Bethel                         PRECINCT 203                                           01 
01610020012000021DEM       US Representative, District 4                           Lander Bethel                         PRECINCT 204                                           01 
01610020013000044DEM       US Representative, District 4                           Lander Bethel                         PRECINCT 205                                           01 
01610020014000026DEM       US Representative, District 4                           Lander Bethel                         PRECINCT 206                                           01 
01610020015000007DEM       US Representative, District 4                           Lander Bethel                         PRECINCT 207                                           01 
01610020016000012DEM       US Representative, District 4                           Lander Bethel                         PRECINCT 208                                           01 
01610020017000011DEM       US Representative, District 4                           Lander Bethel                         PRECINCT 209                                           01 
01610020018000013DEM       US Representative, District 4                           Lander Bethel                         PRECINCT 210                                           01 
01610020019000031DEM       US Representative, District 4                           Lander Bethel                         PRECINCT 301                                           01 
01610020020000113DEM       US Representative, District 4                           Lander Bethel                         PRECINCT 302                                           01 
01610020021000013DEM       US Representative, District 4                           Lander Bethel                         PRECINCT 303                                           01 
01610020022000086DEM       US Representative, District 4                           Lander Bethel                         PRECINCT 304                                           01 
01610020023000012DEM       US Representative, District 4                           Lander Bethel                         PRECINCT 305                                           01 
01610020024000019DEM       US Representative, District 4                           Lander Bethel                         PRECINCT 306                                           01 
01610020025000008DEM       US Representative, District 4                           Lander Bethel                         PRECINCT 307                                           01 
01610020026000008DEM       US Representative, District 4                           Lander Bethel                         PRECINCT 308                                           01 
01610020027000006DEM       US Representative, District 4                           Lander Bethel                         PRECINCT 309                                           01 
01610020028000046DEM       US Representative, District 4                           Lander Bethel                         PRECINCT 401                                           01 
01610020029000030DEM       US Representative, District 4                           Lander Bethel                         PRECINCT 402                                           01 
01610020030000019DEM       US Representative, District 4                           Lander Bethel                         PRECINCT 403                                           01 
01610020031000053DEM       US Representative, District 4                           Lander Bethel                         PRECINCT 404                                           01 
01610020032000002DEM       US Representative, District 4                           Lander Bethel                         PRECINCT 405                                           01 
01610020033000017DEM       US Representative, District 4                           Lander Bethel                         PRECINCT 406                                           01 
01610020034000002DEM       US Representative, District 4                           Lander Bethel                         PRECINCT 407                                           01 
01610020035000016DEM       US Representative, District 4                           Lander Bethel                         PRECINCT 408                                           01 
01610020036000109DEM       US Representative, District 4                           Lander Bethel                         PRECINCT 409                                           01 
01610030001000000DEM       US Representative, District 4                           OVER VOTES                            PRECINCT 101                                           01 
01610030002000000DEM       US Representative, District 4                           OVER VOTES                            PRECINCT 102                                           01 
01610030003000000DEM       US Representative, District 4                           OVER VOTES                            PRECINCT 103                                           01 
01610030004000000DEM       US Representative, District 4                           OVER VOTES                            PRECINCT 104                                           01 
01610030005000000DEM       US Representative, District 4                           OVER VOTES                            PRECINCT 105                                           01 
01610030006000000DEM       US Representative, District 4                           OVER VOTES                            PRECINCT 106                                           01 
01610030007000000DEM       US Representative, District 4                           OVER VOTES                            PRECINCT 107                                           01 
01610030008000000DEM       US Representative, District 4                           OVER VOTES                            PRECINCT 108                                           01 
01610030009000000DEM       US Representative, District 4                           OVER VOTES                            PRECINCT 201                                           01 
01610030010000000DEM       US Representative, District 4                           OVER VOTES                            PRECINCT 202                                           01 
01610030011000000DEM       US Representative, District 4                           OVER VOTES                            PRECINCT 203                                           01 
01610030012000000DEM       US Representative, District 4                           OVER VOTES                            PRECINCT 204                                           01 
01610030013000000DEM       US Representative, District 4                           OVER VOTES                            PRECINCT 205                                           01 
01610030014000000DEM       US Representative, District 4                           OVER VOTES                            PRECINCT 206                                           01 
01610030015000000DEM       US Representative, District 4                           OVER VOTES                            PRECINCT 207                                           01 
01610030016000000DEM       US Representative, District 4                           OVER VOTES                            PRECINCT 208                                           01 
01610030017000000DEM       US Representative, District 4                           OVER VOTES                            PRECINCT 209                                           01 
01610030018000000DEM       US Representative, District 4                           OVER VOTES                            PRECINCT 210                                           01 
01610030019000000DEM       US Representative, District 4                           OVER VOTES                            PRECINCT 301                                           01 
01610030020000000DEM       US Representative, District 4                           OVER VOTES                            PRECINCT 302                                           01 
01610030021000000DEM       US Representative, District 4                           OVER VOTES                            PRECINCT 303                                           01 
01610030022000000DEM       US Representative, District 4                           OVER VOTES                            PRECINCT 304                                           01 
01610030023000000DEM       US Representative, District 4                           OVER VOTES                            PRECINCT 305                                           01 
01610030024000000DEM       US Representative, District 4                           OVER VOTES                            PRECINCT 306                                           01 
01610030025000000DEM       US Representative, District 4                           OVER VOTES                            PRECINCT 307                                           01 
01610030026000000DEM       US Representative, District 4                           OVER VOTES                            PRECINCT 308                                           01 
01610030027000000DEM       US Representative, District 4                           OVER VOTES                            PRECINCT 309                                           01 
01610030028000000DEM       US Representative, District 4                           OVER VOTES                            PRECINCT 401                                           01 
01610030029000000DEM       US Representative, District 4                           OVER VOTES                            PRECINCT 402                                           01 
01610030030000000DEM       US Representative, District 4                           OVER VOTES                            PRECINCT 403                                           01 
01610030031000000DEM       US Representative, District 4                           OVER VOTES                            PRECINCT 404                                           01 
01610030032000000DEM       US Representative, District 4                           OVER VOTES                            PRECINCT 405                                           01 
01610030033000000DEM       US Representative, District 4                           OVER VOTES                            PRECINCT 406                                           01 
01610030034000000DEM       US Representative, District 4                           OVER VOTES                            PRECINCT 407                                           01 
01610030035000000DEM       US Representative, District 4                           OVER VOTES                            PRECINCT 408                                           01 
01610030036000000DEM       US Representative, District 4                           OVER VOTES                            PRECINCT 409                                           01 
01610040001000009DEM       US Representative, District 4                           UNDER VOTES                           PRECINCT 101                                           01 
01610040002000013DEM       US Representative, District 4                           UNDER VOTES                           PRECINCT 102                                           01 
01610040003000000DEM       US Representative, District 4                           UNDER VOTES                           PRECINCT 103                                           01 
01610040004000002DEM       US Representative, District 4                           UNDER VOTES                           PRECINCT 104                                           01 
01610040005000004DEM       US Representative, District 4                           UNDER VOTES                           PRECINCT 105                                           01 
01610040006000003DEM       US Representative, District 4                           UNDER VOTES                           PRECINCT 106                                           01 
01610040007000003DEM       US Representative, District 4                           UNDER VOTES                           PRECINCT 107                                           01 
01610040008000002DEM       US Representative, District 4                           UNDER VOTES                           PRECINCT 108                                           01 
01610040009000004DEM       US Representative, District 4                           UNDER VOTES                           PRECINCT 201                                           01 
01610040010000004DEM       US Representative, District 4                           UNDER VOTES                           PRECINCT 202                                           01 
01610040011000002DEM       US Representative, District 4                           UNDER VOTES                           PRECINCT 203                                           01 
01610040012000001DEM       US Representative, District 4                           UNDER VOTES                           PRECINCT 204                                           01 
01610040013000006DEM       US Representative, District 4                           UNDER VOTES                           PRECINCT 205                                           01 
01610040014000001DEM       US Representative, District 4                           UNDER VOTES                           PRECINCT 206                                           01 
01610040015000001DEM       US Representative, District 4                           UNDER VOTES                           PRECINCT 207                                           01 
01610040016000004DEM       US Representative, District 4                           UNDER VOTES                           PRECINCT 208                                           01 
01610040017000000DEM       US Representative, District 4                           UNDER VOTES                           PRECINCT 209                                           01 
01610040018000005DEM       US Representative, District 4                           UNDER VOTES                           PRECINCT 210                                           01 
01610040019000002DEM       US Representative, District 4                           UNDER VOTES                           PRECINCT 301                                           01 
01610040020000007DEM       US Representative, District 4                           UNDER VOTES                           PRECINCT 302                                           01 
01610040021000002DEM       US Representative, District 4                           UNDER VOTES                           PRECINCT 303                                           01 
01610040022000004DEM       US Representative, District 4                           UNDER VOTES                           PRECINCT 304                                           01 
01610040023000000DEM       US Representative, District 4                           UNDER VOTES                           PRECINCT 305                                           01 
01610040024000004DEM       US Representative, District 4                           UNDER VOTES                           PRECINCT 306                                           01 
01610040025000001DEM       US Representative, District 4                           UNDER VOTES                           PRECINCT 307                                           01 
01610040026000002DEM       US Representative, District 4                           UNDER VOTES                           PRECINCT 308                                           01 
01610040027000001DEM       US Representative, District 4                           UNDER VOTES                           PRECINCT 309                                           01 
01610040028000003DEM       US Representative, District 4                           UNDER VOTES                           PRECINCT 401                                           01 
01610040029000006DEM       US Representative, District 4                           UNDER VOTES                           PRECINCT 402                                           01 
01610040030000003DEM       US Representative, District 4                           UNDER VOTES                           PRECINCT 403                                           01 
01610040031000007DEM       US Representative, District 4                           UNDER VOTES                           PRECINCT 404                                           01 
01610040032000001DEM       US Representative, District 4                           UNDER VOTES                           PRECINCT 405                                           01 
01610040033000003DEM       US Representative, District 4                           UNDER VOTES                           PRECINCT 406                                           01 
01610040034000000DEM       US Representative, District 4                           UNDER VOTES                           PRECINCT 407                                           01 
01610040035000002DEM       US Representative, District 4                           UNDER VOTES                           PRECINCT 408                                           01 
01610040036000004DEM       US Representative, District 4                           UNDER VOTES                           PRECINCT 409                                           01 
01620010001000015DEM       Governor                                                Adrian Ocegueda                       PRECINCT 101                                           01 
01620010002000004DEM       Governor                                                Adrian Ocegueda                       PRECINCT 102                                           01 
01620010003000004DEM       Governor                                                Adrian Ocegueda                       PRECINCT 103                                           01 
01620010004000005DEM       Governor                                                Adrian Ocegueda                       PRECINCT 104                                           01 
01620010005000005DEM       Governor                                                Adrian Ocegueda                       PRECINCT 105                                           01 
01620010006000004DEM       Governor                                                Adrian Ocegueda                       PRECINCT 106                                           01 
01620010007000002DEM       Governor                                                Adrian Ocegueda                       PRECINCT 107                                           01 
01620010008000002DEM       Governor                                                Adrian Ocegueda                       PRECINCT 108                                           01 
01620010009000013DEM       Governor                                                Adrian Ocegueda                       PRECINCT 201                                           01 
01620010010000008DEM       Governor                                                Adrian Ocegueda                       PRECINCT 202                                           01 
01620010011000002DEM       Governor                                                Adrian Ocegueda                       PRECINCT 203                                           01 
01620010012000001DEM       Governor                                                Adrian Ocegueda                       PRECINCT 204                                           01 
01620010013000008DEM       Governor                                                Adrian Ocegueda                       PRECINCT 205                                           01 
01620010014000004DEM       Governor                                                Adrian Ocegueda                       PRECINCT 206                                           01 
01620010015000002DEM       Governor                                                Adrian Ocegueda                       PRECINCT 207                                           01 
01620010016000001DEM       Governor                                                Adrian Ocegueda                       PRECINCT 208                                           01 
01620010017000002DEM       Governor                                                Adrian Ocegueda                       PRECINCT 209                                           01 
01620010018000002DEM       Governor                                                Adrian Ocegueda                       PRECINCT 210                                           01 
01620010019000006DEM       Governor                                                Adrian Ocegueda                       PRECINCT 301                                           01 
01620010020000012DEM       Governor                                                Adrian Ocegueda                       PRECINCT 302                                           01 
01620010021000002DEM       Governor                                                Adrian Ocegueda                       PRECINCT 303                                           01 
01620010022000008DEM       Governor                                                Adrian Ocegueda                       PRECINCT 304                                           01 
01620010023000001DEM       Governor                                                Adrian Ocegueda                       PRECINCT 305                                           01 
01620010024000004DEM       Governor                                                Adrian Ocegueda                       PRECINCT 306                                           01 
01620010025000000DEM       Governor                                                Adrian Ocegueda                       PRECINCT 307                                           01 
01620010026000001DEM       Governor                                                Adrian Ocegueda                       PRECINCT 308                                           01 
01620010027000000DEM       Governor                                                Adrian Ocegueda                       PRECINCT 309                                           01 
01620010028000007DEM       Governor                                                Adrian Ocegueda                       PRECINCT 401                                           01 
01620010029000007DEM       Governor                                                Adrian Ocegueda                       PRECINCT 402                                           01 
01620010030000005DEM       Governor                                                Adrian Ocegueda                       PRECINCT 403                                           01 
01620010031000006DEM       Governor                                                Adrian Ocegueda                       PRECINCT 404                                           01 
01620010032000003DEM       Governor                                                Adrian Ocegueda                       PRECINCT 405                                           01 
01620010033000004DEM       Governor                                                Adrian Ocegueda                       PRECINCT 406                                           01 
01620010034000000DEM       Governor                                                Adrian Ocegueda                       PRECINCT 407                                           01 
01620010035000002DEM       Governor                                                Adrian Ocegueda                       PRECINCT 408                                           01 
01620010036000012DEM       Governor                                                Adrian Ocegueda                       PRECINCT 409                                           01 
01620020001000010DEM       Governor                                                James Jolly Clark                     PRECINCT 101                                           01 
01620020002000002DEM       Governor                                                James Jolly Clark                     PRECINCT 102                                           01 
01620020003000000DEM       Governor                                                James Jolly Clark                     PRECINCT 103                                           01 
01620020004000001DEM       Governor                                                James Jolly Clark                     PRECINCT 104                                           01 
01620020005000003DEM       Governor                                                James Jolly Clark                     PRECINCT 105                                           01 
01620020006000002DEM       Governor                                                James Jolly Clark                     PRECINCT 106                                           01 
01620020007000002DEM       Governor                                                James Jolly Clark                     PRECINCT 107                                           01 
01620020008000000DEM       Governor                                                James Jolly Clark                     PRECINCT 108                                           01 
01620020009000004DEM       Governor                                                James Jolly Clark                     PRECINCT 201                                           01 
01620020010000007DEM       Governor                                                James Jolly Clark                     PRECINCT 202                                           01 
01620020011000001DEM       Governor                                                James Jolly Clark                     PRECINCT 203                                           01 
01620020012000002DEM       Governor                                                James Jolly Clark                     PRECINCT 204                                           01 
01620020013000002DEM       Governor                                                James Jolly Clark                     PRECINCT 205                                           01 
01620020014000003DEM       Governor                                                James Jolly Clark                     PRECINCT 206                                           01 
01620020015000001DEM       Governor                                                James Jolly Clark                     PRECINCT 207                                           01 
01620020016000000DEM       Governor                                                James Jolly Clark                     PRECINCT 208                                           01 
01620020017000001DEM       Governor                                                James Jolly Clark                     PRECINCT 209                                           01 
01620020018000000DEM       Governor                                                James Jolly Clark                     PRECINCT 210                                           01 
01620020019000004DEM       Governor                                                James Jolly Clark                     PRECINCT 301                                           01 
01620020020000006DEM       Governor                                                James Jolly Clark                     PRECINCT 302                                           01 
01620020021000002DEM       Governor                                                James Jolly Clark                     PRECINCT 303                                           01 
01620020022000002DEM       Governor                                                James Jolly Clark                     PRECINCT 304                                           01 
01620020023000001DEM       Governor                                                James Jolly Clark                     PRECINCT 305                                           01 
01620020024000003DEM       Governor                                                James Jolly Clark                     PRECINCT 306                                           01 
01620020025000000DEM       Governor                                                James Jolly Clark                     PRECINCT 307                                           01 
01620020026000002DEM       Governor                                                James Jolly Clark                     PRECINCT 308                                           01 
01620020027000000DEM       Governor                                                James Jolly Clark                     PRECINCT 309                                           01 
01620020028000003DEM       Governor                                                James Jolly Clark                     PRECINCT 401                                           01 
01620020029000004DEM       Governor                                                James Jolly Clark                     PRECINCT 402                                           01 
01620020030000004DEM       Governor                                                James Jolly Clark                     PRECINCT 403                                           01 
01620020031000004DEM       Governor                                                James Jolly Clark                     PRECINCT 404                                           01 
01620020032000000DEM       Governor                                                James Jolly Clark                     PRECINCT 405                                           01 
01620020033000003DEM       Governor                                                James Jolly Clark                     PRECINCT 406                                           01 
01620020034000001DEM       Governor                                                James Jolly Clark                     PRECINCT 407                                           01 
01620020035000003DEM       Governor                                                James Jolly Clark                     PRECINCT 408                                           01 
01620020036000003DEM       Governor                                                James Jolly Clark                     PRECINCT 409                                           01 
01620030001000062DEM       Governor                                                Lupe Valdez                           PRECINCT 101                                           01 
01620030002000045DEM       Governor                                                Lupe Valdez                           PRECINCT 102                                           01 
01620030003000000DEM       Governor                                                Lupe Valdez                           PRECINCT 103                                           01 
01620030004000007DEM       Governor                                                Lupe Valdez                           PRECINCT 104                                           01 
01620030005000062DEM       Governor                                                Lupe Valdez                           PRECINCT 105                                           01 
01620030006000022DEM       Governor                                                Lupe Valdez                           PRECINCT 106                                           01 
01620030007000011DEM       Governor                                                Lupe Valdez                           PRECINCT 107                                           01 
01620030008000016DEM       Governor                                                Lupe Valdez                           PRECINCT 108                                           01 
01620030009000043DEM       Governor                                                Lupe Valdez                           PRECINCT 201                                           01 
01620030010000039DEM       Governor                                                Lupe Valdez                           PRECINCT 202                                           01 
01620030011000015DEM       Governor                                                Lupe Valdez                           PRECINCT 203                                           01 
01620030012000018DEM       Governor                                                Lupe Valdez                           PRECINCT 204                                           01 
01620030013000032DEM       Governor                                                Lupe Valdez                           PRECINCT 205                                           01 
01620030014000014DEM       Governor                                                Lupe Valdez                           PRECINCT 206                                           01 
01620030015000016DEM       Governor                                                Lupe Valdez                           PRECINCT 207                                           01 
01620030016000014DEM       Governor                                                Lupe Valdez                           PRECINCT 208                                           01 
01620030017000006DEM       Governor                                                Lupe Valdez                           PRECINCT 209                                           01 
01620030018000010DEM       Governor                                                Lupe Valdez                           PRECINCT 210                                           01 
01620030019000027DEM       Governor                                                Lupe Valdez                           PRECINCT 301                                           01 
01620030020000083DEM       Governor                                                Lupe Valdez                           PRECINCT 302                                           01 
01620030021000009DEM       Governor                                                Lupe Valdez                           PRECINCT 303                                           01 
01620030022000053DEM       Governor                                                Lupe Valdez                           PRECINCT 304                                           01 
01620030023000008DEM       Governor                                                Lupe Valdez                           PRECINCT 305                                           01 
01620030024000028DEM       Governor                                                Lupe Valdez                           PRECINCT 306                                           01 
01620030025000010DEM       Governor                                                Lupe Valdez                           PRECINCT 307                                           01 
01620030026000010DEM       Governor                                                Lupe Valdez                           PRECINCT 308                                           01 
01620030027000009DEM       Governor                                                Lupe Valdez                           PRECINCT 309                                           01 
01620030028000038DEM       Governor                                                Lupe Valdez                           PRECINCT 401                                           01 
01620030029000039DEM       Governor                                                Lupe Valdez                           PRECINCT 402                                           01 
01620030030000028DEM       Governor                                                Lupe Valdez                           PRECINCT 403                                           01 
01620030031000032DEM       Governor                                                Lupe Valdez                           PRECINCT 404                                           01 
01620030032000003DEM       Governor                                                Lupe Valdez                           PRECINCT 405                                           01 
01620030033000018DEM       Governor                                                Lupe Valdez                           PRECINCT 406                                           01 
01620030034000001DEM       Governor                                                Lupe Valdez                           PRECINCT 407                                           01 
01620030035000016DEM       Governor                                                Lupe Valdez                           PRECINCT 408                                           01 
01620030036000050DEM       Governor                                                Lupe Valdez                           PRECINCT 409                                           01 
01620040001000032DEM       Governor                                                Andrew White                          PRECINCT 101                                           01 
01620040002000025DEM       Governor                                                Andrew White                          PRECINCT 102                                           01 
01620040003000001DEM       Governor                                                Andrew White                          PRECINCT 103                                           01 
01620040004000006DEM       Governor                                                Andrew White                          PRECINCT 104                                           01 
01620040005000021DEM       Governor                                                Andrew White                          PRECINCT 105                                           01 
01620040006000012DEM       Governor                                                Andrew White                          PRECINCT 106                                           01 
01620040007000005DEM       Governor                                                Andrew White                          PRECINCT 107                                           01 
01620040008000004DEM       Governor                                                Andrew White                          PRECINCT 108                                           01 
01620040009000020DEM       Governor                                                Andrew White                          PRECINCT 201                                           01 
01620040010000022DEM       Governor                                                Andrew White                          PRECINCT 202                                           01 
01620040011000007DEM       Governor                                                Andrew White                          PRECINCT 203                                           01 
01620040012000014DEM       Governor                                                Andrew White                          PRECINCT 204                                           01 
