01010010001000000          REGISTERED VOTERS - TOTAL                               REGISTERED VOTERS - TOTAL             Precinct 101                                           00 
01010010002000000          REGISTERED VOTERS - TOTAL                               REGISTERED VOTERS - TOTAL             Precinct 102                                           00 
01010010003000000          REGISTERED VOTERS - TOTAL                               REGISTERED VOTERS - TOTAL             Precinct 201                                           00 
01010010004000000          REGISTERED VOTERS - TOTAL                               REGISTERED VOTERS - TOTAL             Precinct 202                                           00 
01010010005000000          REGISTERED VOTERS - TOTAL                               REGISTERED VOTERS - TOTAL             Precinct 301                                           00 
01010010006000000          REGISTERED VOTERS - TOTAL                               REGISTERED VOTERS - TOTAL             Precinct 401                                           00 
01020010001000083          BALLOTS CAST - TOTAL                                    BALLOTS CAST - TOTAL                  Precinct 101                                           00 
01020010002000052          BALLOTS CAST - TOTAL                                    BALLOTS CAST - TOTAL                  Precinct 102                                           00 
01020010003000073          BALLOTS CAST - TOTAL                                    BALLOTS CAST - TOTAL                  Precinct 201                                           00 
01020010004000138          BALLOTS CAST - TOTAL                                    BALLOTS CAST - TOTAL                  Precinct 202                                           00 
01020010005000219          BALLOTS CAST - TOTAL                                    BALLOTS CAST - TOTAL                  Precinct 301                                           00 
01020010006000150          BALLOTS CAST - TOTAL                                    BALLOTS CAST - TOTAL                  Precinct 401                                           00 
01030010001000081REP       BALLOTS CAST - REPUBLICAN PARTY                         BALLOTS CAST - REPUBLICAN PARTY       Precinct 101                                           00 
01030010002000052REP       BALLOTS CAST - REPUBLICAN PARTY                         BALLOTS CAST - REPUBLICAN PARTY       Precinct 102                                           00 
01030010003000066REP       BALLOTS CAST - REPUBLICAN PARTY                         BALLOTS CAST - REPUBLICAN PARTY       Precinct 201                                           00 
01030010004000135REP       BALLOTS CAST - REPUBLICAN PARTY                         BALLOTS CAST - REPUBLICAN PARTY       Precinct 202                                           00 
01030010005000210REP       BALLOTS CAST - REPUBLICAN PARTY                         BALLOTS CAST - REPUBLICAN PARTY       Precinct 301                                           00 
01030010006000133REP       BALLOTS CAST - REPUBLICAN PARTY                         BALLOTS CAST - REPUBLICAN PARTY       Precinct 401                                           00 
01040010001000002DEM       BALLOTS CAST - DEMOCRATIC PARTY                         BALLOTS CAST - DEMOCRATIC PARTY       Precinct 101                                           00 
01040010002000000DEM       BALLOTS CAST - DEMOCRATIC PARTY                         BALLOTS CAST - DEMOCRATIC PARTY       Precinct 102                                           00 
01040010003000007DEM       BALLOTS CAST - DEMOCRATIC PARTY                         BALLOTS CAST - DEMOCRATIC PARTY       Precinct 201                                           00 
01040010004000003DEM       BALLOTS CAST - DEMOCRATIC PARTY                         BALLOTS CAST - DEMOCRATIC PARTY       Precinct 202                                           00 
01040010005000009DEM       BALLOTS CAST - DEMOCRATIC PARTY                         BALLOTS CAST - DEMOCRATIC PARTY       Precinct 301                                           00 
01040010006000017DEM       BALLOTS CAST - DEMOCRATIC PARTY                         BALLOTS CAST - DEMOCRATIC PARTY       Precinct 401                                           00 
01050010001000003REP       United States Senator                                   Mary Miller                           Precinct 101                                           01 
01050010002000004REP       United States Senator                                   Mary Miller                           Precinct 102                                           01 
01050010003000007REP       United States Senator                                   Mary Miller                           Precinct 201                                           01 
01050010004000004REP       United States Senator                                   Mary Miller                           Precinct 202                                           01 
01050010005000011REP       United States Senator                                   Mary Miller                           Precinct 301                                           01 
01050010006000004REP       United States Senator                                   Mary Miller                           Precinct 401                                           01 
01050020001000071REP       United States Senator                                   Ted Cruz                              Precinct 101                                           01 
01050020002000046REP       United States Senator                                   Ted Cruz                              Precinct 102                                           01 
01050020003000049REP       United States Senator                                   Ted Cruz                              Precinct 201                                           01 
01050020004000121REP       United States Senator                                   Ted Cruz                              Precinct 202                                           01 
01050020005000192REP       United States Senator                                   Ted Cruz                              Precinct 301                                           01 
01050020006000121REP       United States Senator                                   Ted Cruz                              Precinct 401                                           01 
01050030001000004REP       United States Senator                                   Bruce Jacobson, Jr.                   Precinct 101                                           01 
01050030002000000REP       United States Senator                                   Bruce Jacobson, Jr.                   Precinct 102                                           01 
01050030003000004REP       United States Senator                                   Bruce Jacobson, Jr.                   Precinct 201                                           01 
01050030004000008REP       United States Senator                                   Bruce Jacobson, Jr.                   Precinct 202                                           01 
01050030005000001REP       United States Senator                                   Bruce Jacobson, Jr.                   Precinct 301                                           01 
01050030006000004REP       United States Senator                                   Bruce Jacobson, Jr.                   Precinct 401                                           01 
01050040001000001REP       United States Senator                                   Geraldine Sam                         Precinct 101                                           01 
01050040002000000REP       United States Senator                                   Geraldine Sam                         Precinct 102                                           01 
01050040003000002REP       United States Senator                                   Geraldine Sam                         Precinct 201                                           01 
01050040004000000REP       United States Senator                                   Geraldine Sam                         Precinct 202                                           01 
01050040005000002REP       United States Senator                                   Geraldine Sam                         Precinct 301                                           01 
01050040006000003REP       United States Senator                                   Geraldine Sam                         Precinct 401                                           01 
01050050001000000REP       United States Senator                                   Stefano de Stefano                    Precinct 101                                           01 
01050050002000001REP       United States Senator                                   Stefano de Stefano                    Precinct 102                                           01 
01050050003000002REP       United States Senator                                   Stefano de Stefano                    Precinct 201                                           01 
01050050004000001REP       United States Senator                                   Stefano de Stefano                    Precinct 202                                           01 
01050050005000001REP       United States Senator                                   Stefano de Stefano                    Precinct 301                                           01 
01050050006000000REP       United States Senator                                   Stefano de Stefano                    Precinct 401                                           01 
01050060001000000REP       United States Senator                                   OVER VOTES                            Precinct 101                                           01 
01050060002000000REP       United States Senator                                   OVER VOTES                            Precinct 102                                           01 
01050060003000000REP       United States Senator                                   OVER VOTES                            Precinct 201                                           01 
01050060004000000REP       United States Senator                                   OVER VOTES                            Precinct 202                                           01 
01050060005000000REP       United States Senator                                   OVER VOTES                            Precinct 301                                           01 
01050060006000000REP       United States Senator                                   OVER VOTES                            Precinct 401                                           01 
01050070001000002REP       United States Senator                                   UNDER VOTES                           Precinct 101                                           01 
01050070002000001REP       United States Senator                                   UNDER VOTES                           Precinct 102                                           01 
01050070003000002REP       United States Senator                                   UNDER VOTES                           Precinct 201                                           01 
01050070004000001REP       United States Senator                                   UNDER VOTES                           Precinct 202                                           01 
01050070005000003REP       United States Senator                                   UNDER VOTES                           Precinct 301                                           01 
01050070006000001REP       United States Senator                                   UNDER VOTES                           Precinct 401                                           01 
01060010001000070REP       US Representative, District 13                          Mac Thornberry                        Precinct 101                                           01 
01060010002000047REP       US Representative, District 13                          Mac Thornberry                        Precinct 102                                           01 
01060010003000062REP       US Representative, District 13                          Mac Thornberry                        Precinct 201                                           01 
01060010004000120REP       US Representative, District 13                          Mac Thornberry                        Precinct 202                                           01 
01060010005000190REP       US Representative, District 13                          Mac Thornberry                        Precinct 301                                           01 
01060010006000117REP       US Representative, District 13                          Mac Thornberry                        Precinct 401                                           01 
01060020001000000REP       US Representative, District 13                          OVER VOTES                            Precinct 101                                           01 
01060020002000000REP       US Representative, District 13                          OVER VOTES                            Precinct 102                                           01 
01060020003000000REP       US Representative, District 13                          OVER VOTES                            Precinct 201                                           01 
01060020004000000REP       US Representative, District 13                          OVER VOTES                            Precinct 202                                           01 
01060020005000000REP       US Representative, District 13                          OVER VOTES                            Precinct 301                                           01 
01060020006000000REP       US Representative, District 13                          OVER VOTES                            Precinct 401                                           01 
01060030001000011REP       US Representative, District 13                          UNDER VOTES                           Precinct 101                                           01 
01060030002000005REP       US Representative, District 13                          UNDER VOTES                           Precinct 102                                           01 
01060030003000004REP       US Representative, District 13                          UNDER VOTES                           Precinct 201                                           01 
01060030004000015REP       US Representative, District 13                          UNDER VOTES                           Precinct 202                                           01 
01060030005000020REP       US Representative, District 13                          UNDER VOTES                           Precinct 301                                           01 
01060030006000016REP       US Representative, District 13                          UNDER VOTES                           Precinct 401                                           01 
01070010001000001REP       Govenor                                                 SECEDE Kilgore                        Precinct 101                                           01 
01070010002000000REP       Govenor                                                 SECEDE Kilgore                        Precinct 102                                           01 
01070010003000003REP       Govenor                                                 SECEDE Kilgore                        Precinct 201                                           01 
01070010004000002REP       Govenor                                                 SECEDE Kilgore                        Precinct 202                                           01 
01070010005000002REP       Govenor                                                 SECEDE Kilgore                        Precinct 301                                           01 
01070010006000003REP       Govenor                                                 SECEDE Kilgore                        Precinct 401                                           01 
01070020001000074REP       Govenor                                                 Greg Abbott                           Precinct 101                                           01 
01070020002000047REP       Govenor                                                 Greg Abbott                           Precinct 102                                           01 
01070020003000051REP       Govenor                                                 Greg Abbott                           Precinct 201                                           01 
01070020004000127REP       Govenor                                                 Greg Abbott                           Precinct 202                                           01 
01070020005000190REP       Govenor                                                 Greg Abbott                           Precinct 301                                           01 
01070020006000123REP       Govenor                                                 Greg Abbott                           Precinct 401                                           01 
01070030001000003REP       Govenor                                                 Barbara Krueger                       Precinct 101                                           01 
01070030002000005REP       Govenor                                                 Barbara Krueger                       Precinct 102                                           01 
01070030003000009REP       Govenor                                                 Barbara Krueger                       Precinct 201                                           01 
01070030004000004REP       Govenor                                                 Barbara Krueger                       Precinct 202                                           01 
01070030005000013REP       Govenor                                                 Barbara Krueger                       Precinct 301                                           01 
01070030006000005REP       Govenor                                                 Barbara Krueger                       Precinct 401                                           01 
01070040001000000REP       Govenor                                                 OVER VOTES                            Precinct 101                                           01 
01070040002000000REP       Govenor                                                 OVER VOTES                            Precinct 102                                           01 
01070040003000000REP       Govenor                                                 OVER VOTES                            Precinct 201                                           01 
01070040004000000REP       Govenor                                                 OVER VOTES                            Precinct 202                                           01 
01070040005000000REP       Govenor                                                 OVER VOTES                            Precinct 301                                           01 
01070040006000000REP       Govenor                                                 OVER VOTES                            Precinct 401                                           01 
01070050001000003REP       Govenor                                                 UNDER VOTES                           Precinct 101                                           01 
01070050002000000REP       Govenor                                                 UNDER VOTES                           Precinct 102                                           01 
01070050003000003REP       Govenor                                                 UNDER VOTES                           Precinct 201                                           01 
01070050004000002REP       Govenor                                                 UNDER VOTES                           Precinct 202                                           01 
01070050005000005REP       Govenor                                                 UNDER VOTES                           Precinct 301                                           01 
01070050006000002REP       Govenor                                                 UNDER VOTES                           Precinct 401                                           01 
01080010001000022REP       Lieutenant Governor                                     Scott Milder                          Precinct 101                                           01 
01080010002000013REP       Lieutenant Governor                                     Scott Milder                          Precinct 102                                           01 
01080010003000034REP       Lieutenant Governor                                     Scott Milder                          Precinct 201                                           01 
01080010004000021REP       Lieutenant Governor                                     Scott Milder                          Precinct 202                                           01 
01080010005000053REP       Lieutenant Governor                                     Scott Milder                          Precinct 301                                           01 
01080010006000028REP       Lieutenant Governor                                     Scott Milder                          Precinct 401                                           01 
01080020001000055REP       Lieutenant Governor                                     Dan Patrick                           Precinct 101                                           01 
01080020002000034REP       Lieutenant Governor                                     Dan Patrick                           Precinct 102                                           01 
01080020003000029REP       Lieutenant Governor                                     Dan Patrick                           Precinct 201                                           01 
01080020004000104REP       Lieutenant Governor                                     Dan Patrick                           Precinct 202                                           01 
01080020005000143REP       Lieutenant Governor                                     Dan Patrick                           Precinct 301                                           01 
01080020006000096REP       Lieutenant Governor                                     Dan Patrick                           Precinct 401                                           01 
01080030001000000REP       Lieutenant Governor                                     OVER VOTES                            Precinct 101                                           01 
01080030002000000REP       Lieutenant Governor                                     OVER VOTES                            Precinct 102                                           01 
01080030003000000REP       Lieutenant Governor                                     OVER VOTES                            Precinct 201                                           01 
01080030004000001REP       Lieutenant Governor                                     OVER VOTES                            Precinct 202                                           01 
01080030005000000REP       Lieutenant Governor                                     OVER VOTES                            Precinct 301                                           01 
01080030006000000REP       Lieutenant Governor                                     OVER VOTES                            Precinct 401                                           01 
01080040001000004REP       Lieutenant Governor                                     UNDER VOTES                           Precinct 101                                           01 
01080040002000005REP       Lieutenant Governor                                     UNDER VOTES                           Precinct 102                                           01 
01080040003000003REP       Lieutenant Governor                                     UNDER VOTES                           Precinct 201                                           01 
01080040004000009REP       Lieutenant Governor                                     UNDER VOTES                           Precinct 202                                           01 
01080040005000014REP       Lieutenant Governor                                     UNDER VOTES                           Precinct 301                                           01 
01080040006000009REP       Lieutenant Governor                                     UNDER VOTES                           Precinct 401                                           01 
01090010001000073REP       Attorney General                                        Ken Paxton                            Precinct 101                                           01 
01090010002000044REP       Attorney General                                        Ken Paxton                            Precinct 102                                           01 
01090010003000054REP       Attorney General                                        Ken Paxton                            Precinct 201                                           01 
01090010004000110REP       Attorney General                                        Ken Paxton                            Precinct 202                                           01 
01090010005000178REP       Attorney General                                        Ken Paxton                            Precinct 301                                           01 
01090010006000112REP       Attorney General                                        Ken Paxton                            Precinct 401                                           01 
01090020001000000REP       Attorney General                                        OVER VOTES                            Precinct 101                                           01 
01090020002000000REP       Attorney General                                        OVER VOTES                            Precinct 102                                           01 
01090020003000000REP       Attorney General                                        OVER VOTES                            Precinct 201                                           01 
01090020004000000REP       Attorney General                                        OVER VOTES                            Precinct 202                                           01 
01090020005000000REP       Attorney General                                        OVER VOTES                            Precinct 301                                           01 
01090020006000000REP       Attorney General                                        OVER VOTES                            Precinct 401                                           01 
01090030001000008REP       Attorney General                                        UNDER VOTES                           Precinct 101                                           01 
01090030002000008REP       Attorney General                                        UNDER VOTES                           Precinct 102                                           01 
01090030003000012REP       Attorney General                                        UNDER VOTES                           Precinct 201                                           01 
01090030004000025REP       Attorney General                                        UNDER VOTES                           Precinct 202                                           01 
01090030005000032REP       Attorney General                                        UNDER VOTES                           Precinct 301                                           01 
01090030006000021REP       Attorney General                                        UNDER VOTES                           Precinct 401                                           01 
01100010001000067REP       Comptroller of Public Accounts                          Glenn Hegar                           Precinct 101                                           01 
01100010002000040REP       Comptroller of Public Accounts                          Glenn Hegar                           Precinct 102                                           01 
01100010003000050REP       Comptroller of Public Accounts                          Glenn Hegar                           Precinct 201                                           01 
01100010004000106REP       Comptroller of Public Accounts                          Glenn Hegar                           Precinct 202                                           01 
01100010005000161REP       Comptroller of Public Accounts                          Glenn Hegar                           Precinct 301                                           01 
01100010006000103REP       Comptroller of Public Accounts                          Glenn Hegar                           Precinct 401                                           01 
01100020001000000REP       Comptroller of Public Accounts                          OVER VOTES                            Precinct 101                                           01 
01100020002000000REP       Comptroller of Public Accounts                          OVER VOTES                            Precinct 102                                           01 
01100020003000000REP       Comptroller of Public Accounts                          OVER VOTES                            Precinct 201                                           01 
01100020004000000REP       Comptroller of Public Accounts                          OVER VOTES                            Precinct 202                                           01 
01100020005000000REP       Comptroller of Public Accounts                          OVER VOTES                            Precinct 301                                           01 
01100020006000000REP       Comptroller of Public Accounts                          OVER VOTES                            Precinct 401                                           01 
01100030001000014REP       Comptroller of Public Accounts                          UNDER VOTES                           Precinct 101                                           01 
01100030002000012REP       Comptroller of Public Accounts                          UNDER VOTES                           Precinct 102                                           01 
01100030003000016REP       Comptroller of Public Accounts                          UNDER VOTES                           Precinct 201                                           01 
01100030004000029REP       Comptroller of Public Accounts                          UNDER VOTES                           Precinct 202                                           01 
01100030005000049REP       Comptroller of Public Accounts                          UNDER VOTES                           Precinct 301                                           01 
01100030006000030REP       Comptroller of Public Accounts                          UNDER VOTES                           Precinct 401                                           01 
01110010001000052REP       Commissioner of the General Land Office                 George P. Bush                        Precinct 101                                           01 
01110010002000033REP       Commissioner of the General Land Office                 George P. Bush                        Precinct 102                                           01 
01110010003000038REP       Commissioner of the General Land Office                 George P. Bush                        Precinct 201                                           01 
01110010004000094REP       Commissioner of the General Land Office                 George P. Bush                        Precinct 202                                           01 
01110010005000143REP       Commissioner of the General Land Office                 George P. Bush                        Precinct 301                                           01 
01110010006000086REP       Commissioner of the General Land Office                 George P. Bush                        Precinct 401                                           01 
01110020001000014REP       Commissioner of the General Land Office                 Jerry Patterson                       Precinct 101                                           01 
01110020002000011REP       Commissioner of the General Land Office                 Jerry Patterson                       Precinct 102                                           01 
01110020003000014REP       Commissioner of the General Land Office                 Jerry Patterson                       Precinct 201                                           01 
01110020004000023REP       Commissioner of the General Land Office                 Jerry Patterson                       Precinct 202                                           01 
01110020005000031REP       Commissioner of the General Land Office                 Jerry Patterson                       Precinct 301                                           01 
01110020006000026REP       Commissioner of the General Land Office                 Jerry Patterson                       Precinct 401                                           01 
01110030001000005REP       Commissioner of the General Land Office                 Davey Edwards                         Precinct 101                                           01 
01110030002000002REP       Commissioner of the General Land Office                 Davey Edwards                         Precinct 102                                           01 
01110030003000001REP       Commissioner of the General Land Office                 Davey Edwards                         Precinct 201                                           01 
01110030004000004REP       Commissioner of the General Land Office                 Davey Edwards                         Precinct 202                                           01 
01110030005000006REP       Commissioner of the General Land Office                 Davey Edwards                         Precinct 301                                           01 
01110030006000003REP       Commissioner of the General Land Office                 Davey Edwards                         Precinct 401                                           01 
01110040001000004REP       Commissioner of the General Land Office                 Rick Range                            Precinct 101                                           01 
01110040002000003REP       Commissioner of the General Land Office                 Rick Range                            Precinct 102                                           01 
01110040003000004REP       Commissioner of the General Land Office                 Rick Range                            Precinct 201                                           01 
01110040004000004REP       Commissioner of the General Land Office                 Rick Range                            Precinct 202                                           01 
01110040005000007REP       Commissioner of the General Land Office                 Rick Range                            Precinct 301                                           01 
01110040006000011REP       Commissioner of the General Land Office                 Rick Range                            Precinct 401                                           01 
01110050001000000REP       Commissioner of the General Land Office                 OVER VOTES                            Precinct 101                                           01 
01110050002000000REP       Commissioner of the General Land Office                 OVER VOTES                            Precinct 102                                           01 
01110050003000000REP       Commissioner of the General Land Office                 OVER VOTES                            Precinct 201                                           01 
01110050004000000REP       Commissioner of the General Land Office                 OVER VOTES                            Precinct 202                                           01 
01110050005000000REP       Commissioner of the General Land Office                 OVER VOTES                            Precinct 301                                           01 
01110050006000000REP       Commissioner of the General Land Office                 OVER VOTES                            Precinct 401                                           01 
01110060001000006REP       Commissioner of the General Land Office                 UNDER VOTES                           Precinct 101                                           01 
01110060002000003REP       Commissioner of the General Land Office                 UNDER VOTES                           Precinct 102                                           01 
01110060003000009REP       Commissioner of the General Land Office                 UNDER VOTES                           Precinct 201                                           01 
01110060004000010REP       Commissioner of the General Land Office                 UNDER VOTES                           Precinct 202                                           01 
01110060005000023REP       Commissioner of the General Land Office                 UNDER VOTES                           Precinct 301                                           01 
01110060006000007REP       Commissioner of the General Land Office                 UNDER VOTES                           Precinct 401                                           01 
01120010001000012REP       Commissioner of Agriculture                             Jim Hogan                             Precinct 101                                           01 
01120010002000014REP       Commissioner of Agriculture                             Jim Hogan                             Precinct 102                                           01 
01120010003000014REP       Commissioner of Agriculture                             Jim Hogan                             Precinct 201                                           01 
01120010004000037REP       Commissioner of Agriculture                             Jim Hogan                             Precinct 202                                           01 
01120010005000045REP       Commissioner of Agriculture                             Jim Hogan                             Precinct 301                                           01 
01120010006000027REP       Commissioner of Agriculture                             Jim Hogan                             Precinct 401                                           01 
01120020001000049REP       Commissioner of Agriculture                             Sid Miller                            Precinct 101                                           01 
01120020002000021REP       Commissioner of Agriculture                             Sid Miller                            Precinct 102                                           01 
01120020003000030REP       Commissioner of Agriculture                             Sid Miller                            Precinct 201                                           01 
01120020004000052REP       Commissioner of Agriculture                             Sid Miller                            Precinct 202                                           01 
01120020005000100REP       Commissioner of Agriculture                             Sid Miller                            Precinct 301                                           01 
01120020006000056REP       Commissioner of Agriculture                             Sid Miller                            Precinct 401                                           01 
01120030001000010REP       Commissioner of Agriculture                             Trey Blocker                          Precinct 101                                           01 
01120030002000013REP       Commissioner of Agriculture                             Trey Blocker                          Precinct 102                                           01 
01120030003000012REP       Commissioner of Agriculture                             Trey Blocker                          Precinct 201                                           01 
01120030004000025REP       Commissioner of Agriculture                             Trey Blocker                          Precinct 202                                           01 
01120030005000021REP       Commissioner of Agriculture                             Trey Blocker                          Precinct 301                                           01 
01120030006000025REP       Commissioner of Agriculture                             Trey Blocker                          Precinct 401                                           01 
01120040001000000REP       Commissioner of Agriculture                             OVER VOTES                            Precinct 101                                           01 
01120040002000000REP       Commissioner of Agriculture                             OVER VOTES                            Precinct 102                                           01 
01120040003000000REP       Commissioner of Agriculture                             OVER VOTES                            Precinct 201                                           01 
01120040004000000REP       Commissioner of Agriculture                             OVER VOTES                            Precinct 202                                           01 
01120040005000000REP       Commissioner of Agriculture                             OVER VOTES                            Precinct 301                                           01 
01120040006000000REP       Commissioner of Agriculture                             OVER VOTES                            Precinct 401                                           01 
01120050001000010REP       Commissioner of Agriculture                             UNDER VOTES                           Precinct 101                                           01 
01120050002000004REP       Commissioner of Agriculture                             UNDER VOTES                           Precinct 102                                           01 
01120050003000010REP       Commissioner of Agriculture                             UNDER VOTES                           Precinct 201                                           01 
01120050004000021REP       Commissioner of Agriculture                             UNDER VOTES                           Precinct 202                                           01 
01120050005000044REP       Commissioner of Agriculture                             UNDER VOTES                           Precinct 301                                           01 
01120050006000025REP       Commissioner of Agriculture                             UNDER VOTES                           Precinct 401                                           01 
01130010001000057REP       Railroad Commissioner                                   Christi Craddick                      Precinct 101                                           01 
01130010002000031REP       Railroad Commissioner                                   Christi Craddick                      Precinct 102                                           01 
01130010003000038REP       Railroad Commissioner                                   Christi Craddick                      Precinct 201                                           01 
01130010004000087REP       Railroad Commissioner                                   Christi Craddick                      Precinct 202                                           01 
01130010005000128REP       Railroad Commissioner                                   Christi Craddick                      Precinct 301                                           01 
01130010006000072REP       Railroad Commissioner                                   Christi Craddick                      Precinct 401                                           01 
01130020001000013REP       Railroad Commissioner                                   Weston Martinez                       Precinct 101                                           01 
01130020002000014REP       Railroad Commissioner                                   Weston Martinez                       Precinct 102                                           01 
01130020003000015REP       Railroad Commissioner                                   Weston Martinez                       Precinct 201                                           01 
01130020004000029REP       Railroad Commissioner                                   Weston Martinez                       Precinct 202                                           01 
01130020005000038REP       Railroad Commissioner                                   Weston Martinez                       Precinct 301                                           01 
01130020006000030REP       Railroad Commissioner                                   Weston Martinez                       Precinct 401                                           01 
01130030001000000REP       Railroad Commissioner                                   OVER VOTES                            Precinct 101                                           01 
01130030002000000REP       Railroad Commissioner                                   OVER VOTES                            Precinct 102                                           01 
01130030003000000REP       Railroad Commissioner                                   OVER VOTES                            Precinct 201                                           01 
01130030004000000REP       Railroad Commissioner                                   OVER VOTES                            Precinct 202                                           01 
01130030005000000REP       Railroad Commissioner                                   OVER VOTES                            Precinct 301                                           01 
01130030006000000REP       Railroad Commissioner                                   OVER VOTES                            Precinct 401                                           01 
01130040001000011REP       Railroad Commissioner                                   UNDER VOTES                           Precinct 101                                           01 
01130040002000007REP       Railroad Commissioner                                   UNDER VOTES                           Precinct 102                                           01 
01130040003000013REP       Railroad Commissioner                                   UNDER VOTES                           Precinct 201                                           01 
01130040004000019REP       Railroad Commissioner                                   UNDER VOTES                           Precinct 202                                           01 
01130040005000044REP       Railroad Commissioner                                   UNDER VOTES                           Precinct 301                                           01 
01130040006000031REP       Railroad Commissioner                                   UNDER VOTES                           Precinct 401                                           01 
01140010001000066REP       Justice, Supreme Court, Place 2                         Jimmy Blacklock                       Precinct 101                                           01 
01140010002000040REP       Justice, Supreme Court, Place 2                         Jimmy Blacklock                       Precinct 102                                           01 
01140010003000051REP       Justice, Supreme Court, Place 2                         Jimmy Blacklock                       Precinct 201                                           01 
01140010004000100REP       Justice, Supreme Court, Place 2                         Jimmy Blacklock                       Precinct 202                                           01 
01140010005000152REP       Justice, Supreme Court, Place 2                         Jimmy Blacklock                       Precinct 301                                           01 
01140010006000098REP       Justice, Supreme Court, Place 2                         Jimmy Blacklock                       Precinct 401                                           01 
01140020001000000REP       Justice, Supreme Court, Place 2                         OVER VOTES                            Precinct 101                                           01 
01140020002000000REP       Justice, Supreme Court, Place 2                         OVER VOTES                            Precinct 102                                           01 
01140020003000000REP       Justice, Supreme Court, Place 2                         OVER VOTES                            Precinct 201                                           01 
01140020004000000REP       Justice, Supreme Court, Place 2                         OVER VOTES                            Precinct 202                                           01 
01140020005000000REP       Justice, Supreme Court, Place 2                         OVER VOTES                            Precinct 301                                           01 
01140020006000000REP       Justice, Supreme Court, Place 2                         OVER VOTES                            Precinct 401                                           01 
01140030001000015REP       Justice, Supreme Court, Place 2                         UNDER VOTES                           Precinct 101                                           01 
01140030002000012REP       Justice, Supreme Court, Place 2                         UNDER VOTES                           Precinct 102                                           01 
01140030003000015REP       Justice, Supreme Court, Place 2                         UNDER VOTES                           Precinct 201                                           01 
01140030004000035REP       Justice, Supreme Court, Place 2                         UNDER VOTES                           Precinct 202                                           01 
01140030005000058REP       Justice, Supreme Court, Place 2                         UNDER VOTES                           Precinct 301                                           01 
01140030006000035REP       Justice, Supreme Court, Place 2                         UNDER VOTES                           Precinct 401                                           01 
01150010001000067REP       Justice, Supreme Court, Place 4                         John Devine                           Precinct 101                                           01 
01150010002000040REP       Justice, Supreme Court, Place 4                         John Devine                           Precinct 102                                           01 
01150010003000050REP       Justice, Supreme Court, Place 4                         John Devine                           Precinct 201                                           01 
01150010004000099REP       Justice, Supreme Court, Place 4                         John Devine                           Precinct 202                                           01 
01150010005000151REP       Justice, Supreme Court, Place 4                         John Devine                           Precinct 301                                           01 
01150010006000096REP       Justice, Supreme Court, Place 4                         John Devine                           Precinct 401                                           01 
01150020001000000REP       Justice, Supreme Court, Place 4                         OVER VOTES                            Precinct 101                                           01 
01150020002000000REP       Justice, Supreme Court, Place 4                         OVER VOTES                            Precinct 102                                           01 
01150020003000000REP       Justice, Supreme Court, Place 4                         OVER VOTES                            Precinct 201                                           01 
01150020004000000REP       Justice, Supreme Court, Place 4                         OVER VOTES                            Precinct 202                                           01 
01150020005000000REP       Justice, Supreme Court, Place 4                         OVER VOTES                            Precinct 301                                           01 
01150020006000000REP       Justice, Supreme Court, Place 4                         OVER VOTES                            Precinct 401                                           01 
01150030001000014REP       Justice, Supreme Court, Place 4                         UNDER VOTES                           Precinct 101                                           01 
01150030002000012REP       Justice, Supreme Court, Place 4                         UNDER VOTES                           Precinct 102                                           01 
01150030003000016REP       Justice, Supreme Court, Place 4                         UNDER VOTES                           Precinct 201                                           01 
01150030004000036REP       Justice, Supreme Court, Place 4                         UNDER VOTES                           Precinct 202                                           01 
01150030005000059REP       Justice, Supreme Court, Place 4                         UNDER VOTES                           Precinct 301                                           01 
01150030006000037REP       Justice, Supreme Court, Place 4                         UNDER VOTES                           Precinct 401                                           01 
01160010001000066REP       Justice, Supreme Court, Place 6                         Jeff Brown                            Precinct 101                                           01 
01160010002000042REP       Justice, Supreme Court, Place 6                         Jeff Brown                            Precinct 102                                           01 
01160010003000049REP       Justice, Supreme Court, Place 6                         Jeff Brown                            Precinct 201                                           01 
01160010004000100REP       Justice, Supreme Court, Place 6                         Jeff Brown                            Precinct 202                                           01 
01160010005000153REP       Justice, Supreme Court, Place 6                         Jeff Brown                            Precinct 301                                           01 
01160010006000100REP       Justice, Supreme Court, Place 6                         Jeff Brown                            Precinct 401                                           01 
01160020001000000REP       Justice, Supreme Court, Place 6                         OVER VOTES                            Precinct 101                                           01 
01160020002000000REP       Justice, Supreme Court, Place 6                         OVER VOTES                            Precinct 102                                           01 
01160020003000000REP       Justice, Supreme Court, Place 6                         OVER VOTES                            Precinct 201                                           01 
01160020004000000REP       Justice, Supreme Court, Place 6                         OVER VOTES                            Precinct 202                                           01 
01160020005000000REP       Justice, Supreme Court, Place 6                         OVER VOTES                            Precinct 301                                           01 
01160020006000000REP       Justice, Supreme Court, Place 6                         OVER VOTES                            Precinct 401                                           01 
01160030001000015REP       Justice, Supreme Court, Place 6                         UNDER VOTES                           Precinct 101                                           01 
01160030002000010REP       Justice, Supreme Court, Place 6                         UNDER VOTES                           Precinct 102                                           01 
01160030003000017REP       Justice, Supreme Court, Place 6                         UNDER VOTES                           Precinct 201                                           01 
01160030004000035REP       Justice, Supreme Court, Place 6                         UNDER VOTES                           Precinct 202                                           01 
01160030005000057REP       Justice, Supreme Court, Place 6                         UNDER VOTES                           Precinct 301                                           01 
01160030006000033REP       Justice, Supreme Court, Place 6                         UNDER VOTES                           Precinct 401                                           01 
01170010001000031REP       Presiding Judge, Ct of Criminal Appeals                 Sharon Keller                         Precinct 101                                           01 
01170010002000024REP       Presiding Judge, Ct of Criminal Appeals                 Sharon Keller                         Precinct 102                                           01 
01170010003000026REP       Presiding Judge, Ct of Criminal Appeals                 Sharon Keller                         Precinct 201                                           01 
01170010004000051REP       Presiding Judge, Ct of Criminal Appeals                 Sharon Keller                         Precinct 202                                           01 
01170010005000077REP       Presiding Judge, Ct of Criminal Appeals                 Sharon Keller                         Precinct 301                                           01 
01170010006000042REP       Presiding Judge, Ct of Criminal Appeals                 Sharon Keller                         Precinct 401                                           01 
01170020001000037REP       Presiding Judge, Ct of Criminal Appeals                 David Bridges                         Precinct 101                                           01 
01170020002000020REP       Presiding Judge, Ct of Criminal Appeals                 David Bridges                         Precinct 102                                           01 
01170020003000025REP       Presiding Judge, Ct of Criminal Appeals                 David Bridges                         Precinct 201                                           01 
01170020004000053REP       Presiding Judge, Ct of Criminal Appeals                 David Bridges                         Precinct 202                                           01 
01170020005000081REP       Presiding Judge, Ct of Criminal Appeals                 David Bridges                         Precinct 301                                           01 
01170020006000061REP       Presiding Judge, Ct of Criminal Appeals                 David Bridges                         Precinct 401                                           01 
01170030001000000REP       Presiding Judge, Ct of Criminal Appeals                 OVER VOTES                            Precinct 101                                           01 
01170030002000000REP       Presiding Judge, Ct of Criminal Appeals                 OVER VOTES                            Precinct 102                                           01 
01170030003000000REP       Presiding Judge, Ct of Criminal Appeals                 OVER VOTES                            Precinct 201                                           01 
01170030004000000REP       Presiding Judge, Ct of Criminal Appeals                 OVER VOTES                            Precinct 202                                           01 
01170030005000000REP       Presiding Judge, Ct of Criminal Appeals                 OVER VOTES                            Precinct 301                                           01 
01170030006000000REP       Presiding Judge, Ct of Criminal Appeals                 OVER VOTES                            Precinct 401                                           01 
01170040001000013REP       Presiding Judge, Ct of Criminal Appeals                 UNDER VOTES                           Precinct 101                                           01 
01170040002000008REP       Presiding Judge, Ct of Criminal Appeals                 UNDER VOTES                           Precinct 102                                           01 
01170040003000015REP       Presiding Judge, Ct of Criminal Appeals                 UNDER VOTES                           Precinct 201                                           01 
01170040004000031REP       Presiding Judge, Ct of Criminal Appeals                 UNDER VOTES                           Precinct 202                                           01 
01170040005000052REP       Presiding Judge, Ct of Criminal Appeals                 UNDER VOTES                           Precinct 301                                           01 
01170040006000030REP       Presiding Judge, Ct of Criminal Appeals                 UNDER VOTES                           Precinct 401                                           01 
01180010001000061REP       Judge, Court of Criminal Appeals, Pl 7                  Barbara Parker Hervey                 Precinct 101                                           01 
01180010002000040REP       Judge, Court of Criminal Appeals, Pl 7                  Barbara Parker Hervey                 Precinct 102                                           01 
01180010003000047REP       Judge, Court of Criminal Appeals, Pl 7                  Barbara Parker Hervey                 Precinct 201                                           01 
01180010004000096REP       Judge, Court of Criminal Appeals, Pl 7                  Barbara Parker Hervey                 Precinct 202                                           01 
01180010005000143REP       Judge, Court of Criminal Appeals, Pl 7                  Barbara Parker Hervey                 Precinct 301                                           01 
01180010006000100REP       Judge, Court of Criminal Appeals, Pl 7                  Barbara Parker Hervey                 Precinct 401                                           01 
01180020001000000REP       Judge, Court of Criminal Appeals, Pl 7                  OVER VOTES                            Precinct 101                                           01 
01180020002000000REP       Judge, Court of Criminal Appeals, Pl 7                  OVER VOTES                            Precinct 102                                           01 
01180020003000000REP       Judge, Court of Criminal Appeals, Pl 7                  OVER VOTES                            Precinct 201                                           01 
01180020004000000REP       Judge, Court of Criminal Appeals, Pl 7                  OVER VOTES                            Precinct 202                                           01 
01180020005000000REP       Judge, Court of Criminal Appeals, Pl 7                  OVER VOTES                            Precinct 301                                           01 
01180020006000000REP       Judge, Court of Criminal Appeals, Pl 7                  OVER VOTES                            Precinct 401                                           01 
01180030001000020REP       Judge, Court of Criminal Appeals, Pl 7                  UNDER VOTES                           Precinct 101                                           01 
01180030002000012REP       Judge, Court of Criminal Appeals, Pl 7                  UNDER VOTES                           Precinct 102                                           01 
01180030003000019REP       Judge, Court of Criminal Appeals, Pl 7                  UNDER VOTES                           Precinct 201                                           01 
01180030004000039REP       Judge, Court of Criminal Appeals, Pl 7                  UNDER VOTES                           Precinct 202                                           01 
01180030005000067REP       Judge, Court of Criminal Appeals, Pl 7                  UNDER VOTES                           Precinct 301                                           01 
01180030006000033REP       Judge, Court of Criminal Appeals, Pl 7                  UNDER VOTES                           Precinct 401                                           01 
01190010001000024REP       Judge, Court of Criminal Appeals, Pl 8                  Dib Waldrip                           Precinct 101                                           01 
01190010002000007REP       Judge, Court of Criminal Appeals, Pl 8                  Dib Waldrip                           Precinct 102                                           01 
01190010003000015REP       Judge, Court of Criminal Appeals, Pl 8                  Dib Waldrip                           Precinct 201                                           01 
01190010004000029REP       Judge, Court of Criminal Appeals, Pl 8                  Dib Waldrip                           Precinct 202                                           01 
01190010005000040REP       Judge, Court of Criminal Appeals, Pl 8                  Dib Waldrip                           Precinct 301                                           01 
01190010006000016REP       Judge, Court of Criminal Appeals, Pl 8                  Dib Waldrip                           Precinct 401                                           01 
01190020001000016REP       Judge, Court of Criminal Appeals, Pl 8                  Jay Brandon                           Precinct 101                                           01 
01190020002000014REP       Judge, Court of Criminal Appeals, Pl 8                  Jay Brandon                           Precinct 102                                           01 
01190020003000021REP       Judge, Court of Criminal Appeals, Pl 8                  Jay Brandon                           Precinct 201                                           01 
01190020004000033REP       Judge, Court of Criminal Appeals, Pl 8                  Jay Brandon                           Precinct 202                                           01 
01190020005000049REP       Judge, Court of Criminal Appeals, Pl 8                  Jay Brandon                           Precinct 301                                           01 
01190020006000042REP       Judge, Court of Criminal Appeals, Pl 8                  Jay Brandon                           Precinct 401                                           01 
01190030001000025REP       Judge, Court of Criminal Appeals, Pl 8                  Michelle Slaughter                    Precinct 101                                           01 
01190030002000021REP       Judge, Court of Criminal Appeals, Pl 8                  Michelle Slaughter                    Precinct 102                                           01 
01190030003000017REP       Judge, Court of Criminal Appeals, Pl 8                  Michelle Slaughter                    Precinct 201                                           01 
01190030004000040REP       Judge, Court of Criminal Appeals, Pl 8                  Michelle Slaughter                    Precinct 202                                           01 
01190030005000053REP       Judge, Court of Criminal Appeals, Pl 8                  Michelle Slaughter                    Precinct 301                                           01 
01190030006000045REP       Judge, Court of Criminal Appeals, Pl 8                  Michelle Slaughter                    Precinct 401                                           01 
01190040001000000REP       Judge, Court of Criminal Appeals, Pl 8                  OVER VOTES                            Precinct 101                                           01 
01190040002000000REP       Judge, Court of Criminal Appeals, Pl 8                  OVER VOTES                            Precinct 102                                           01 
01190040003000000REP       Judge, Court of Criminal Appeals, Pl 8                  OVER VOTES                            Precinct 201                                           01 
01190040004000000REP       Judge, Court of Criminal Appeals, Pl 8                  OVER VOTES                            Precinct 202                                           01 
01190040005000000REP       Judge, Court of Criminal Appeals, Pl 8                  OVER VOTES                            Precinct 301                                           01 
01190040006000000REP       Judge, Court of Criminal Appeals, Pl 8                  OVER VOTES                            Precinct 401                                           01 
01190050001000016REP       Judge, Court of Criminal Appeals, Pl 8                  UNDER VOTES                           Precinct 101                                           01 
01190050002000010REP       Judge, Court of Criminal Appeals, Pl 8                  UNDER VOTES                           Precinct 102                                           01 
01190050003000013REP       Judge, Court of Criminal Appeals, Pl 8                  UNDER VOTES                           Precinct 201                                           01 
01190050004000033REP       Judge, Court of Criminal Appeals, Pl 8                  UNDER VOTES                           Precinct 202                                           01 
01190050005000068REP       Judge, Court of Criminal Appeals, Pl 8                  UNDER VOTES                           Precinct 301                                           01 
01190050006000030REP       Judge, Court of Criminal Appeals, Pl 8                  UNDER VOTES                           Precinct 401                                           01 
01200010001000012REP       State Senator, District 31                              Victor Leal                           Precinct 101                                           01 
01200010002000012REP       State Senator, District 31                              Victor Leal                           Precinct 102                                           01 
01200010003000016REP       State Senator, District 31                              Victor Leal                           Precinct 201                                           01 
01200010004000026REP       State Senator, District 31                              Victor Leal                           Precinct 202                                           01 
01200010005000044REP       State Senator, District 31                              Victor Leal                           Precinct 301                                           01 
01200010006000028REP       State Senator, District 31                              Victor Leal                           Precinct 401                                           01 
01200020001000021REP       State Senator, District 31                              Mike Canon                            Precinct 101                                           01 
01200020002000016REP       State Senator, District 31                              Mike Canon                            Precinct 102                                           01 
01200020003000011REP       State Senator, District 31                              Mike Canon                            Precinct 201                                           01 
01200020004000036REP       State Senator, District 31                              Mike Canon                            Precinct 202                                           01 
01200020005000044REP       State Senator, District 31                              Mike Canon                            Precinct 301                                           01 
01200020006000028REP       State Senator, District 31                              Mike Canon                            Precinct 401                                           01 
01200030001000046REP       State Senator, District 31                              Kel Seliger                           Precinct 101                                           01 
01200030002000023REP       State Senator, District 31                              Kel Seliger                           Precinct 102                                           01 
01200030003000039REP       State Senator, District 31                              Kel Seliger                           Precinct 201                                           01 
01200030004000068REP       State Senator, District 31                              Kel Seliger                           Precinct 202                                           01 
01200030005000122REP       State Senator, District 31                              Kel Seliger                           Precinct 301                                           01 
01200030006000077REP       State Senator, District 31                              Kel Seliger                           Precinct 401                                           01 
01200040001000000REP       State Senator, District 31                              OVER VOTES                            Precinct 101                                           01 
01200040002000000REP       State Senator, District 31                              OVER VOTES                            Precinct 102                                           01 
01200040003000000REP       State Senator, District 31                              OVER VOTES                            Precinct 201                                           01 
01200040004000000REP       State Senator, District 31                              OVER VOTES                            Precinct 202                                           01 
01200040005000000REP       State Senator, District 31                              OVER VOTES                            Precinct 301                                           01 
01200040006000000REP       State Senator, District 31                              OVER VOTES                            Precinct 401                                           01 
01200050001000002REP       State Senator, District 31                              UNDER VOTES                           Precinct 101                                           01 
01200050002000001REP       State Senator, District 31                              UNDER VOTES                           Precinct 102                                           01 
01200050003000000REP       State Senator, District 31                              UNDER VOTES                           Precinct 201                                           01 
01200050004000005REP       State Senator, District 31                              UNDER VOTES                           Precinct 202                                           01 
01200050005000000REP       State Senator, District 31                              UNDER VOTES                           Precinct 301                                           01 
01200050006000000REP       State Senator, District 31                              UNDER VOTES                           Precinct 401                                           01 
01210010001000070REP       State Representative, District 86                       John Smithee                          Precinct 101                                           01 
01210010002000044REP       State Representative, District 86                       John Smithee                          Precinct 102                                           01 
01210010003000057REP       State Representative, District 86                       John Smithee                          Precinct 201                                           01 
01210010004000111REP       State Representative, District 86                       John Smithee                          Precinct 202                                           01 
01210010005000164REP       State Representative, District 86                       John Smithee                          Precinct 301                                           01 
01210010006000110REP       State Representative, District 86                       John Smithee                          Precinct 401                                           01 
01210020001000000REP       State Representative, District 86                       OVER VOTES                            Precinct 101                                           01 
01210020002000000REP       State Representative, District 86                       OVER VOTES                            Precinct 102                                           01 
01210020003000000REP       State Representative, District 86                       OVER VOTES                            Precinct 201                                           01 
01210020004000000REP       State Representative, District 86                       OVER VOTES                            Precinct 202                                           01 
01210020005000000REP       State Representative, District 86                       OVER VOTES                            Precinct 301                                           01 
01210020006000000REP       State Representative, District 86                       OVER VOTES                            Precinct 401                                           01 
01210030001000011REP       State Representative, District 86                       UNDER VOTES                           Precinct 101                                           01 
01210030002000008REP       State Representative, District 86                       UNDER VOTES                           Precinct 102                                           01 
01210030003000009REP       State Representative, District 86                       UNDER VOTES                           Precinct 201                                           01 
01210030004000024REP       State Representative, District 86                       UNDER VOTES                           Precinct 202                                           01 
01210030005000046REP       State Representative, District 86                       UNDER VOTES                           Precinct 301                                           01 
01210030006000023REP       State Representative, District 86                       UNDER VOTES                           Precinct 401                                           01 
01220010001000068REP       Justice, 7th Ct of Appeals Dist, Pl 2                   Judy Parker                           Precinct 101                                           01 
01220010002000040REP       Justice, 7th Ct of Appeals Dist, Pl 2                   Judy Parker                           Precinct 102                                           01 
01220010003000048REP       Justice, 7th Ct of Appeals Dist, Pl 2                   Judy Parker                           Precinct 201                                           01 
01220010004000100REP       Justice, 7th Ct of Appeals Dist, Pl 2                   Judy Parker                           Precinct 202                                           01 
01220010005000149REP       Justice, 7th Ct of Appeals Dist, Pl 2                   Judy Parker                           Precinct 301                                           01 
01220010006000098REP       Justice, 7th Ct of Appeals Dist, Pl 2                   Judy Parker                           Precinct 401                                           01 
01220020001000000REP       Justice, 7th Ct of Appeals Dist, Pl 2                   OVER VOTES                            Precinct 101                                           01 
01220020002000000REP       Justice, 7th Ct of Appeals Dist, Pl 2                   OVER VOTES                            Precinct 102                                           01 
01220020003000000REP       Justice, 7th Ct of Appeals Dist, Pl 2                   OVER VOTES                            Precinct 201                                           01 
01220020004000000REP       Justice, 7th Ct of Appeals Dist, Pl 2                   OVER VOTES                            Precinct 202                                           01 
01220020005000000REP       Justice, 7th Ct of Appeals Dist, Pl 2                   OVER VOTES                            Precinct 301                                           01 
01220020006000000REP       Justice, 7th Ct of Appeals Dist, Pl 2                   OVER VOTES                            Precinct 401                                           01 
01220030001000013REP       Justice, 7th Ct of Appeals Dist, Pl 2                   UNDER VOTES                           Precinct 101                                           01 
01220030002000012REP       Justice, 7th Ct of Appeals Dist, Pl 2                   UNDER VOTES                           Precinct 102                                           01 
01220030003000018REP       Justice, 7th Ct of Appeals Dist, Pl 2                   UNDER VOTES                           Precinct 201                                           01 
01220030004000035REP       Justice, 7th Ct of Appeals Dist, Pl 2                   UNDER VOTES                           Precinct 202                                           01 
01220030005000061REP       Justice, 7th Ct of Appeals Dist, Pl 2                   UNDER VOTES                           Precinct 301                                           01 
01220030006000035REP       Justice, 7th Ct of Appeals Dist, Pl 2                   UNDER VOTES                           Precinct 401                                           01 
01230010001000068REP       Justice, 7th Ct of Appeals Dist, Pl 3                   Pat Pirtle                            Precinct 101                                           01 
01230010002000038REP       Justice, 7th Ct of Appeals Dist, Pl 3                   Pat Pirtle                            Precinct 102                                           01 
01230010003000046REP       Justice, 7th Ct of Appeals Dist, Pl 3                   Pat Pirtle                            Precinct 201                                           01 
01230010004000099REP       Justice, 7th Ct of Appeals Dist, Pl 3                   Pat Pirtle                            Precinct 202                                           01 
01230010005000148REP       Justice, 7th Ct of Appeals Dist, Pl 3                   Pat Pirtle                            Precinct 301                                           01 
01230010006000098REP       Justice, 7th Ct of Appeals Dist, Pl 3                   Pat Pirtle                            Precinct 401                                           01 
01230020001000000REP       Justice, 7th Ct of Appeals Dist, Pl 3                   OVER VOTES                            Precinct 101                                           01 
01230020002000000REP       Justice, 7th Ct of Appeals Dist, Pl 3                   OVER VOTES                            Precinct 102                                           01 
01230020003000000REP       Justice, 7th Ct of Appeals Dist, Pl 3                   OVER VOTES                            Precinct 201                                           01 
01230020004000000REP       Justice, 7th Ct of Appeals Dist, Pl 3                   OVER VOTES                            Precinct 202                                           01 
01230020005000000REP       Justice, 7th Ct of Appeals Dist, Pl 3                   OVER VOTES                            Precinct 301                                           01 
01230020006000000REP       Justice, 7th Ct of Appeals Dist, Pl 3                   OVER VOTES                            Precinct 401                                           01 
01230030001000013REP       Justice, 7th Ct of Appeals Dist, Pl 3                   UNDER VOTES                           Precinct 101                                           01 
01230030002000014REP       Justice, 7th Ct of Appeals Dist, Pl 3                   UNDER VOTES                           Precinct 102                                           01 
01230030003000020REP       Justice, 7th Ct of Appeals Dist, Pl 3                   UNDER VOTES                           Precinct 201                                           01 
01230030004000036REP       Justice, 7th Ct of Appeals Dist, Pl 3                   UNDER VOTES                           Precinct 202                                           01 
01230030005000062REP       Justice, 7th Ct of Appeals Dist, Pl 3                   UNDER VOTES                           Precinct 301                                           01 
01230030006000035REP       Justice, 7th Ct of Appeals Dist, Pl 3                   UNDER VOTES                           Precinct 401                                           01 
01240010001000075REP       District Judge, 69th Judicial District                  Ron Enns                              Precinct 101                                           01 
01240010002000048REP       District Judge, 69th Judicial District                  Ron Enns                              Precinct 102                                           01 
01240010003000057REP       District Judge, 69th Judicial District                  Ron Enns                              Precinct 201                                           01 
01240010004000116REP       District Judge, 69th Judicial District                  Ron Enns                              Precinct 202                                           01 
01240010005000181REP       District Judge, 69th Judicial District                  Ron Enns                              Precinct 301                                           01 
01240010006000121REP       District Judge, 69th Judicial District                  Ron Enns                              Precinct 401                                           01 
01240020001000000REP       District Judge, 69th Judicial District                  OVER VOTES                            Precinct 101                                           01 
01240020002000000REP       District Judge, 69th Judicial District                  OVER VOTES                            Precinct 102                                           01 
01240020003000000REP       District Judge, 69th Judicial District                  OVER VOTES                            Precinct 201                                           01 
01240020004000000REP       District Judge, 69th Judicial District                  OVER VOTES                            Precinct 202                                           01 
01240020005000000REP       District Judge, 69th Judicial District                  OVER VOTES                            Precinct 301                                           01 
01240020006000000REP       District Judge, 69th Judicial District                  OVER VOTES                            Precinct 401                                           01 
01240030001000006REP       District Judge, 69th Judicial District                  UNDER VOTES                           Precinct 101                                           01 
01240030002000004REP       District Judge, 69th Judicial District                  UNDER VOTES                           Precinct 102                                           01 
01240030003000009REP       District Judge, 69th Judicial District                  UNDER VOTES                           Precinct 201                                           01 
01240030004000019REP       District Judge, 69th Judicial District                  UNDER VOTES                           Precinct 202                                           01 
01240030005000029REP       District Judge, 69th Judicial District                  UNDER VOTES                           Precinct 301                                           01 
01240030006000012REP       District Judge, 69th Judicial District                  UNDER VOTES                           Precinct 401                                           01 
01250010001000076REP       County Judge                                            Ronnie Gordon                         Precinct 101                                           01 
01250010002000042REP       County Judge                                            Ronnie Gordon                         Precinct 102                                           01 
01250010003000061REP       County Judge                                            Ronnie Gordon                         Precinct 201                                           01 
01250010004000117REP       County Judge                                            Ronnie Gordon                         Precinct 202                                           01 
01250010005000168REP       County Judge                                            Ronnie Gordon                         Precinct 301                                           01 
01250010006000121REP       County Judge                                            Ronnie Gordon                         Precinct 401                                           01 
01250020001000000REP       County Judge                                            OVER VOTES                            Precinct 101                                           01 
01250020002000000REP       County Judge                                            OVER VOTES                            Precinct 102                                           01 
01250020003000000REP       County Judge                                            OVER VOTES                            Precinct 201                                           01 
01250020004000000REP       County Judge                                            OVER VOTES                            Precinct 202                                           01 
01250020005000000REP       County Judge                                            OVER VOTES                            Precinct 301                                           01 
01250020006000000REP       County Judge                                            OVER VOTES                            Precinct 401                                           01 
01250030001000005REP       County Judge                                            UNDER VOTES                           Precinct 101                                           01 
01250030002000010REP       County Judge                                            UNDER VOTES                           Precinct 102                                           01 
01250030003000005REP       County Judge                                            UNDER VOTES                           Precinct 201                                           01 
01250030004000018REP       County Judge                                            UNDER VOTES                           Precinct 202                                           01 
01250030005000042REP       County Judge                                            UNDER VOTES                           Precinct 301                                           01 
01250030006000012REP       County Judge                                            UNDER VOTES                           Precinct 401                                           01 
01260010001000075REP       County Clerk                                            Melissa Mead                          Precinct 101                                           01 
01260010002000040REP       County Clerk                                            Melissa Mead                          Precinct 102                                           01 
01260010003000057REP       County Clerk                                            Melissa Mead                          Precinct 201                                           01 
01260010004000110REP       County Clerk                                            Melissa Mead                          Precinct 202                                           01 
01260010005000166REP       County Clerk                                            Melissa Mead                          Precinct 301                                           01 
01260010006000119REP       County Clerk                                            Melissa Mead                          Precinct 401                                           01 
01260020001000000REP       County Clerk                                            OVER VOTES                            Precinct 101                                           01 
01260020002000000REP       County Clerk                                            OVER VOTES                            Precinct 102                                           01 
01260020003000000REP       County Clerk                                            OVER VOTES                            Precinct 201                                           01 
01260020004000000REP       County Clerk                                            OVER VOTES                            Precinct 202                                           01 
01260020005000000REP       County Clerk                                            OVER VOTES                            Precinct 301                                           01 
01260020006000000REP       County Clerk                                            OVER VOTES                            Precinct 401                                           01 
01260030001000006REP       County Clerk                                            UNDER VOTES                           Precinct 101                                           01 
01260030002000012REP       County Clerk                                            UNDER VOTES                           Precinct 102                                           01 
01260030003000009REP       County Clerk                                            UNDER VOTES                           Precinct 201                                           01 
01260030004000025REP       County Clerk                                            UNDER VOTES                           Precinct 202                                           01 
01260030005000044REP       County Clerk                                            UNDER VOTES                           Precinct 301                                           01 
01260030006000014REP       County Clerk                                            UNDER VOTES                           Precinct 401                                           01 
01270010001000072REP       County Treasurer                                        Dinkie Parman                         Precinct 101                                           01 
01270010002000044REP       County Treasurer                                        Dinkie Parman                         Precinct 102                                           01 
01270010003000059REP       County Treasurer                                        Dinkie Parman                         Precinct 201                                           01 
01270010004000109REP       County Treasurer                                        Dinkie Parman                         Precinct 202                                           01 
01270010005000166REP       County Treasurer                                        Dinkie Parman                         Precinct 301                                           01 
01270010006000110REP       County Treasurer                                        Dinkie Parman                         Precinct 401                                           01 
01270020001000000REP       County Treasurer                                        OVER VOTES                            Precinct 101                                           01 
01270020002000000REP       County Treasurer                                        OVER VOTES                            Precinct 102                                           01 
01270020003000000REP       County Treasurer                                        OVER VOTES                            Precinct 201                                           01 
01270020004000000REP       County Treasurer                                        OVER VOTES                            Precinct 202                                           01 
01270020005000000REP       County Treasurer                                        OVER VOTES                            Precinct 301                                           01 
01270020006000000REP       County Treasurer                                        OVER VOTES                            Precinct 401                                           01 
01270030001000009REP       County Treasurer                                        UNDER VOTES                           Precinct 101                                           01 
01270030002000008REP       County Treasurer                                        UNDER VOTES                           Precinct 102                                           01 
01270030003000007REP       County Treasurer                                        UNDER VOTES                           Precinct 201                                           01 
01270030004000026REP       County Treasurer                                        UNDER VOTES                           Precinct 202                                           01 
01270030005000044REP       County Treasurer                                        UNDER VOTES                           Precinct 301                                           01 
01270030006000023REP       County Treasurer                                        UNDER VOTES                           Precinct 401                                           01 
01280010003000056REP       County Commissioner, Precinct No. 2                     David Ford                            Precinct 201                                           01 
01280010004000104REP       County Commissioner, Precinct No. 2                     David Ford                            Precinct 202                                           01 
01280020003000000REP       County Commissioner, Precinct No. 2                     OVER VOTES                            Precinct 201                                           01 
01280020004000000REP       County Commissioner, Precinct No. 2                     OVER VOTES                            Precinct 202                                           01 
01280030003000010REP       County Commissioner, Precinct No. 2                     UNDER VOTES                           Precinct 201                                           01 
01280030004000031REP       County Commissioner, Precinct No. 2                     UNDER VOTES                           Precinct 202                                           01 
