01010010001001242000000000000000000000000000000          REGISTERED VOTERS - TOTAL                               REGISTERED VOTERS - TOTAL             PRECINCT 1                                             00 
01010010002003418000000000000000000000000000000          REGISTERED VOTERS - TOTAL                               REGISTERED VOTERS - TOTAL             PRECINCT 2                                             00 
01010010003002796000000000000000000000000000000          REGISTERED VOTERS - TOTAL                               REGISTERED VOTERS - TOTAL             PRECINCT 3                                             00 
01010010004002339000000000000000000000000000000          REGISTERED VOTERS - TOTAL                               REGISTERED VOTERS - TOTAL             PRECINCT 4                                             00 
01010010005002163000000000000000000000000000000          REGISTERED VOTERS - TOTAL                               REGISTERED VOTERS - TOTAL             PRECINCT 5/6                                           00 
01010010006000811000000000000000000000000000000          REGISTERED VOTERS - TOTAL                               REGISTERED VOTERS - TOTAL             PRECINCT 7                                             00 
01010010007002706000000000000000000000000000000          REGISTERED VOTERS - TOTAL                               REGISTERED VOTERS - TOTAL             PRECINCT 8                                             00 
01010010008004028000000000000000000000000000000          REGISTERED VOTERS - TOTAL                               REGISTERED VOTERS - TOTAL             PRECINCT 9                                             00 
01010010009004245000000000000000000000000000000          REGISTERED VOTERS - TOTAL                               REGISTERED VOTERS - TOTAL             PRECINCT 10                                            00 
01010010010001633000000000000000000000000000000          REGISTERED VOTERS - TOTAL                               REGISTERED VOTERS - TOTAL             PRECINCT 11                                            00 
01010010011001661000000000000000000000000000000          REGISTERED VOTERS - TOTAL                               REGISTERED VOTERS - TOTAL             PRECINCT 12                                            00 
01010010012003196000000000000000000000000000000          REGISTERED VOTERS - TOTAL                               REGISTERED VOTERS - TOTAL             PRECINCT 13                                            00 
01010010013003266000000000000000000000000000000          REGISTERED VOTERS - TOTAL                               REGISTERED VOTERS - TOTAL             PRECINCT 14                                            00 
01010010014000378000000000000000000000000000000          REGISTERED VOTERS - TOTAL                               REGISTERED VOTERS - TOTAL             PRECINCT 15                                            00 
01010010015005215000000000000000000000000000000          REGISTERED VOTERS - TOTAL                               REGISTERED VOTERS - TOTAL             PRECINCT 16                                            00 
01020010001000357000037000200000120000000000000          BALLOTS CAST - TOTAL                                    BALLOTS CAST - TOTAL                  PRECINCT 1                                             00 
01020010002000813000081000442000290000000000000          BALLOTS CAST - TOTAL                                    BALLOTS CAST - TOTAL                  PRECINCT 2                                             00 
01020010003000623000077000290000256000000000000          BALLOTS CAST - TOTAL                                    BALLOTS CAST - TOTAL                  PRECINCT 3                                             00 
01020010004000560000053000275000232000000000000          BALLOTS CAST - TOTAL                                    BALLOTS CAST - TOTAL                  PRECINCT 4                                             00 
01020010005000549000033000182000334000000000000          BALLOTS CAST - TOTAL                                    BALLOTS CAST - TOTAL                  PRECINCT 5/6                                           00 
01020010006000171000012000014000145000000000000          BALLOTS CAST - TOTAL                                    BALLOTS CAST - TOTAL                  PRECINCT 7                                             00 
01020010007000850000075000413000362000000000000          BALLOTS CAST - TOTAL                                    BALLOTS CAST - TOTAL                  PRECINCT 8                                             00 
01020010008001095000078000554000463000000000000          BALLOTS CAST - TOTAL                                    BALLOTS CAST - TOTAL                  PRECINCT 9                                             00 
01020010009001369000137000504000728000000000000          BALLOTS CAST - TOTAL                                    BALLOTS CAST - TOTAL                  PRECINCT 10                                            00 
01020010010000331000022000148000161000000000000          BALLOTS CAST - TOTAL                                    BALLOTS CAST - TOTAL                  PRECINCT 11                                            00 
01020010011000309000031000126000152000000000000          BALLOTS CAST - TOTAL                                    BALLOTS CAST - TOTAL                  PRECINCT 12                                            00 
01020010012001076000111000641000324000000000000          BALLOTS CAST - TOTAL                                    BALLOTS CAST - TOTAL                  PRECINCT 13                                            00 
01020010013000905000097000387000421000000000000          BALLOTS CAST - TOTAL                                    BALLOTS CAST - TOTAL                  PRECINCT 14                                            00 
01020010014000064000009000025000030000000000000          BALLOTS CAST - TOTAL                                    BALLOTS CAST - TOTAL                  PRECINCT 15                                            00 
01020010015002112000299000756001057000000000000          BALLOTS CAST - TOTAL                                    BALLOTS CAST - TOTAL                  PRECINCT 16                                            00 
01030010001000321000027000182000112000000000000REP       BALLOTS CAST - REPUBLICAN PARTY                         BALLOTS CAST - REPUBLICAN PARTY       PRECINCT 1                                             00 
01030010002000729000065000403000261000000000000REP       BALLOTS CAST - REPUBLICAN PARTY                         BALLOTS CAST - REPUBLICAN PARTY       PRECINCT 2                                             00 
01030010003000546000053000259000234000000000000REP       BALLOTS CAST - REPUBLICAN PARTY                         BALLOTS CAST - REPUBLICAN PARTY       PRECINCT 3                                             00 
01030010004000502000039000256000207000000000000REP       BALLOTS CAST - REPUBLICAN PARTY                         BALLOTS CAST - REPUBLICAN PARTY       PRECINCT 4                                             00 
01030010005000495000026000166000303000000000000REP       BALLOTS CAST - REPUBLICAN PARTY                         BALLOTS CAST - REPUBLICAN PARTY       PRECINCT 5/6                                           00 
01030010006000156000011000011000134000000000000REP       BALLOTS CAST - REPUBLICAN PARTY                         BALLOTS CAST - REPUBLICAN PARTY       PRECINCT 7                                             00 
01030010007000779000058000387000334000000000000REP       BALLOTS CAST - REPUBLICAN PARTY                         BALLOTS CAST - REPUBLICAN PARTY       PRECINCT 8                                             00 
01030010008000987000067000508000412000000000000REP       BALLOTS CAST - REPUBLICAN PARTY                         BALLOTS CAST - REPUBLICAN PARTY       PRECINCT 9                                             00 
01030010009001255000116000462000677000000000000REP       BALLOTS CAST - REPUBLICAN PARTY                         BALLOTS CAST - REPUBLICAN PARTY       PRECINCT 10                                            00 
01030010010000293000018000131000144000000000000REP       BALLOTS CAST - REPUBLICAN PARTY                         BALLOTS CAST - REPUBLICAN PARTY       PRECINCT 11                                            00 
01030010011000274000028000110000136000000000000REP       BALLOTS CAST - REPUBLICAN PARTY                         BALLOTS CAST - REPUBLICAN PARTY       PRECINCT 12                                            00 
01030010012000998000096000612000290000000000000REP       BALLOTS CAST - REPUBLICAN PARTY                         BALLOTS CAST - REPUBLICAN PARTY       PRECINCT 13                                            00 
01030010013000834000082000369000383000000000000REP       BALLOTS CAST - REPUBLICAN PARTY                         BALLOTS CAST - REPUBLICAN PARTY       PRECINCT 14                                            00 
01030010014000055000005000024000026000000000000REP       BALLOTS CAST - REPUBLICAN PARTY                         BALLOTS CAST - REPUBLICAN PARTY       PRECINCT 15                                            00 
01030010015001986000270000713001003000000000000REP       BALLOTS CAST - REPUBLICAN PARTY                         BALLOTS CAST - REPUBLICAN PARTY       PRECINCT 16                                            00 
01040010001000036000010000018000008000000000000DEM       BALLOTS CAST - DEMOCRATIC PARTY                         BALLOTS CAST - DEMOCRATIC PARTY       PRECINCT 1                                             00 
01040010002000084000016000039000029000000000000DEM       BALLOTS CAST - DEMOCRATIC PARTY                         BALLOTS CAST - DEMOCRATIC PARTY       PRECINCT 2                                             00 
01040010003000077000024000031000022000000000000DEM       BALLOTS CAST - DEMOCRATIC PARTY                         BALLOTS CAST - DEMOCRATIC PARTY       PRECINCT 3                                             00 
01040010004000058000014000019000025000000000000DEM       BALLOTS CAST - DEMOCRATIC PARTY                         BALLOTS CAST - DEMOCRATIC PARTY       PRECINCT 4                                             00 
01040010005000054000007000016000031000000000000DEM       BALLOTS CAST - DEMOCRATIC PARTY                         BALLOTS CAST - DEMOCRATIC PARTY       PRECINCT 5/6                                           00 
01040010006000015000001000003000011000000000000DEM       BALLOTS CAST - DEMOCRATIC PARTY                         BALLOTS CAST - DEMOCRATIC PARTY       PRECINCT 7                                             00 
01040010007000071000017000026000028000000000000DEM       BALLOTS CAST - DEMOCRATIC PARTY                         BALLOTS CAST - DEMOCRATIC PARTY       PRECINCT 8                                             00 
01040010008000108000011000046000051000000000000DEM       BALLOTS CAST - DEMOCRATIC PARTY                         BALLOTS CAST - DEMOCRATIC PARTY       PRECINCT 9                                             00 
01040010009000114000021000042000051000000000000DEM       BALLOTS CAST - DEMOCRATIC PARTY                         BALLOTS CAST - DEMOCRATIC PARTY       PRECINCT 10                                            00 
01040010010000038000004000017000017000000000000DEM       BALLOTS CAST - DEMOCRATIC PARTY                         BALLOTS CAST - DEMOCRATIC PARTY       PRECINCT 11                                            00 
01040010011000035000003000016000016000000000000DEM       BALLOTS CAST - DEMOCRATIC PARTY                         BALLOTS CAST - DEMOCRATIC PARTY       PRECINCT 12                                            00 
01040010012000078000015000029000034000000000000DEM       BALLOTS CAST - DEMOCRATIC PARTY                         BALLOTS CAST - DEMOCRATIC PARTY       PRECINCT 13                                            00 
01040010013000071000015000018000038000000000000DEM       BALLOTS CAST - DEMOCRATIC PARTY                         BALLOTS CAST - DEMOCRATIC PARTY       PRECINCT 14                                            00 
01040010014000009000004000001000004000000000000DEM       BALLOTS CAST - DEMOCRATIC PARTY                         BALLOTS CAST - DEMOCRATIC PARTY       PRECINCT 15                                            00 
01040010015000126000029000043000054000000000000DEM       BALLOTS CAST - DEMOCRATIC PARTY                         BALLOTS CAST - DEMOCRATIC PARTY       PRECINCT 16                                            00 
01050010001000025000000000015000010000000000000REP       United States Senator                                   Bruce Jacobson, Jr.                   PRECINCT 1                                             01 
01050010002000043000004000028000011000000000000REP       United States Senator                                   Bruce Jacobson, Jr.                   PRECINCT 2                                             01 
01050010003000026000002000013000011000000000000REP       United States Senator                                   Bruce Jacobson, Jr.                   PRECINCT 3                                             01 
01050010004000030000002000019000009000000000000REP       United States Senator                                   Bruce Jacobson, Jr.                   PRECINCT 4                                             01 
01050010005000034000000000013000021000000000000REP       United States Senator                                   Bruce Jacobson, Jr.                   PRECINCT 5/6                                           01 
01050010006000008000000000001000007000000000000REP       United States Senator                                   Bruce Jacobson, Jr.                   PRECINCT 7                                             01 
01050010007000041000004000021000016000000000000REP       United States Senator                                   Bruce Jacobson, Jr.                   PRECINCT 8                                             01 
01050010008000051000002000032000017000000000000REP       United States Senator                                   Bruce Jacobson, Jr.                   PRECINCT 9                                             01 
01050010009000054000007000023000024000000000000REP       United States Senator                                   Bruce Jacobson, Jr.                   PRECINCT 10                                            01 
01050010010000013000000000008000005000000000000REP       United States Senator                                   Bruce Jacobson, Jr.                   PRECINCT 11                                            01 
01050010011000016000002000004000010000000000000REP       United States Senator                                   Bruce Jacobson, Jr.                   PRECINCT 12                                            01 
01050010012000075000012000047000016000000000000REP       United States Senator                                   Bruce Jacobson, Jr.                   PRECINCT 13                                            01 
01050010013000045000007000020000018000000000000REP       United States Senator                                   Bruce Jacobson, Jr.                   PRECINCT 14                                            01 
01050010014000002000000000001000001000000000000REP       United States Senator                                   Bruce Jacobson, Jr.                   PRECINCT 15                                            01 
01050010015000106000018000047000041000000000000REP       United States Senator                                   Bruce Jacobson, Jr.                   PRECINCT 16                                            01 
01050020001000031000000000021000010000000000000REP       United States Senator                                   Mary Miller                           PRECINCT 1                                             01 
01050020002000059000006000042000011000000000000REP       United States Senator                                   Mary Miller                           PRECINCT 2                                             01 
01050020003000040000000000027000013000000000000REP       United States Senator                                   Mary Miller                           PRECINCT 3                                             01 
01050020004000038000004000026000008000000000000REP       United States Senator                                   Mary Miller                           PRECINCT 4                                             01 
01050020005000031000003000014000014000000000000REP       United States Senator                                   Mary Miller                           PRECINCT 5/6                                           01 
01050020006000008000000000001000007000000000000REP       United States Senator                                   Mary Miller                           PRECINCT 7                                             01 
01050020007000051000003000030000018000000000000REP       United States Senator                                   Mary Miller                           PRECINCT 8                                             01 
01050020008000057000002000032000023000000000000REP       United States Senator                                   Mary Miller                           PRECINCT 9                                             01 
01050020009000076000006000034000036000000000000REP       United States Senator                                   Mary Miller                           PRECINCT 10                                            01 
01050020010000017000001000006000010000000000000REP       United States Senator                                   Mary Miller                           PRECINCT 11                                            01 
01050020011000018000004000006000008000000000000REP       United States Senator                                   Mary Miller                           PRECINCT 12                                            01 
01050020012000076000004000049000023000000000000REP       United States Senator                                   Mary Miller                           PRECINCT 13                                            01 
01050020013000050000002000024000024000000000000REP       United States Senator                                   Mary Miller                           PRECINCT 14                                            01 
01050020014000001000000000001000000000000000000REP       United States Senator                                   Mary Miller                           PRECINCT 15                                            01 
01050020015000120000011000052000057000000000000REP       United States Senator                                   Mary Miller                           PRECINCT 16                                            01 
01050030001000004000002000002000000000000000000REP       United States Senator                                   Geraldine Sam                         PRECINCT 1                                             01 
01050030002000010000000000009000001000000000000REP       United States Senator                                   Geraldine Sam                         PRECINCT 2                                             01 
01050030003000011000000000006000005000000000000REP       United States Senator                                   Geraldine Sam                         PRECINCT 3                                             01 
01050030004000007000001000003000003000000000000REP       United States Senator                                   Geraldine Sam                         PRECINCT 4                                             01 
01050030005000008000000000005000003000000000000REP       United States Senator                                   Geraldine Sam                         PRECINCT 5/6                                           01 
01050030006000002000000000000000002000000000000REP       United States Senator                                   Geraldine Sam                         PRECINCT 7                                             01 
01050030007000010000001000007000002000000000000REP       United States Senator                                   Geraldine Sam                         PRECINCT 8                                             01 
01050030008000011000000000008000003000000000000REP       United States Senator                                   Geraldine Sam                         PRECINCT 9                                             01 
01050030009000015000001000010000004000000000000REP       United States Senator                                   Geraldine Sam                         PRECINCT 10                                            01 
01050030010000002000000000002000000000000000000REP       United States Senator                                   Geraldine Sam                         PRECINCT 11                                            01 
01050030011000006000000000003000003000000000000REP       United States Senator                                   Geraldine Sam                         PRECINCT 12                                            01 
01050030012000009000001000006000002000000000000REP       United States Senator                                   Geraldine Sam                         PRECINCT 13                                            01 
01050030013000010000002000004000004000000000000REP       United States Senator                                   Geraldine Sam                         PRECINCT 14                                            01 
01050030014000000000000000000000000000000000000REP       United States Senator                                   Geraldine Sam                         PRECINCT 15                                            01 
01050030015000015000000000008000007000000000000REP       United States Senator                                   Geraldine Sam                         PRECINCT 16                                            01 
01050040001000238000023000131000084000000000000REP       United States Senator                                   Ted Cruz                              PRECINCT 1                                             01 
01050040002000552000052000279000221000000000000REP       United States Senator                                   Ted Cruz                              PRECINCT 2                                             01 
01050040003000439000050000195000194000000000000REP       United States Senator                                   Ted Cruz                              PRECINCT 3                                             01 
01050040004000387000032000187000168000000000000REP       United States Senator                                   Ted Cruz                              PRECINCT 4                                             01 
01050040005000386000022000118000246000000000000REP       United States Senator                                   Ted Cruz                              PRECINCT 5/6                                           01 
01050040006000129000010000009000110000000000000REP       United States Senator                                   Ted Cruz                              PRECINCT 7                                             01 
01050040007000619000049000290000280000000000000REP       United States Senator                                   Ted Cruz                              PRECINCT 8                                             01 
01050040008000808000058000398000352000000000000REP       United States Senator                                   Ted Cruz                              PRECINCT 9                                             01 
01050040009000996000099000325000572000000000000REP       United States Senator                                   Ted Cruz                              PRECINCT 10                                            01 
01050040010000246000016000107000123000000000000REP       United States Senator                                   Ted Cruz                              PRECINCT 11                                            01 
01050040011000219000021000093000105000000000000REP       United States Senator                                   Ted Cruz                              PRECINCT 12                                            01 
01050040012000775000079000463000233000000000000REP       United States Senator                                   Ted Cruz                              PRECINCT 13                                            01 
01050040013000669000067000288000314000000000000REP       United States Senator                                   Ted Cruz                              PRECINCT 14                                            01 
01050040014000049000005000020000024000000000000REP       United States Senator                                   Ted Cruz                              PRECINCT 15                                            01 
01050040015001616000227000554000835000000000000REP       United States Senator                                   Ted Cruz                              PRECINCT 16                                            01 
01050050001000004000000000004000000000000000000REP       United States Senator                                   Stefano de Stefano                    PRECINCT 1                                             01 
01050050002000025000002000018000005000000000000REP       United States Senator                                   Stefano de Stefano                    PRECINCT 2                                             01 
01050050003000015000000000008000007000000000000REP       United States Senator                                   Stefano de Stefano                    PRECINCT 3                                             01 
01050050004000017000000000011000006000000000000REP       United States Senator                                   Stefano de Stefano                    PRECINCT 4                                             01 
01050050005000012000000000007000005000000000000REP       United States Senator                                   Stefano de Stefano                    PRECINCT 5/6                                           01 
01050050006000003000001000000000002000000000000REP       United States Senator                                   Stefano de Stefano                    PRECINCT 7                                             01 
01050050007000023000000000018000005000000000000REP       United States Senator                                   Stefano de Stefano                    PRECINCT 8                                             01 
01050050008000018000002000011000005000000000000REP       United States Senator                                   Stefano de Stefano                    PRECINCT 9                                             01 
01050050009000039000000000024000015000000000000REP       United States Senator                                   Stefano de Stefano                    PRECINCT 10                                            01 
01050050010000005000001000002000002000000000000REP       United States Senator                                   Stefano de Stefano                    PRECINCT 11                                            01 
01050050011000005000001000000000004000000000000REP       United States Senator                                   Stefano de Stefano                    PRECINCT 12                                            01 
01050050012000031000000000024000007000000000000REP       United States Senator                                   Stefano de Stefano                    PRECINCT 13                                            01 
01050050013000017000001000010000006000000000000REP       United States Senator                                   Stefano de Stefano                    PRECINCT 14                                            01 
01050050014000002000000000001000001000000000000REP       United States Senator                                   Stefano de Stefano                    PRECINCT 15                                            01 
01050050015000038000003000015000020000000000000REP       United States Senator                                   Stefano de Stefano                    PRECINCT 16                                            01 
01050060001000000000000000000000000000000000000REP       United States Senator                                   OVER VOTES                            PRECINCT 1                                             01 
01050060002000000000000000000000000000000000000REP       United States Senator                                   OVER VOTES                            PRECINCT 2                                             01 
01050060003000000000000000000000000000000000000REP       United States Senator                                   OVER VOTES                            PRECINCT 3                                             01 
01050060004000000000000000000000000000000000000REP       United States Senator                                   OVER VOTES                            PRECINCT 4                                             01 
01050060005000000000000000000000000000000000000REP       United States Senator                                   OVER VOTES                            PRECINCT 5/6                                           01 
01050060006000000000000000000000000000000000000REP       United States Senator                                   OVER VOTES                            PRECINCT 7                                             01 
01050060007000000000000000000000000000000000000REP       United States Senator                                   OVER VOTES                            PRECINCT 8                                             01 
01050060008000000000000000000000000000000000000REP       United States Senator                                   OVER VOTES                            PRECINCT 9                                             01 
01050060009000000000000000000000000000000000000REP       United States Senator                                   OVER VOTES                            PRECINCT 10                                            01 
01050060010000000000000000000000000000000000000REP       United States Senator                                   OVER VOTES                            PRECINCT 11                                            01 
01050060011000000000000000000000000000000000000REP       United States Senator                                   OVER VOTES                            PRECINCT 12                                            01 
01050060012000000000000000000000000000000000000REP       United States Senator                                   OVER VOTES                            PRECINCT 13                                            01 
01050060013000000000000000000000000000000000000REP       United States Senator                                   OVER VOTES                            PRECINCT 14                                            01 
01050060014000000000000000000000000000000000000REP       United States Senator                                   OVER VOTES                            PRECINCT 15                                            01 
01050060015000001000001000000000000000000000000REP       United States Senator                                   OVER VOTES                            PRECINCT 16                                            01 
01050070001000019000002000009000008000000000000REP       United States Senator                                   UNDER VOTES                           PRECINCT 1                                             01 
01050070002000040000001000027000012000000000000REP       United States Senator                                   UNDER VOTES                           PRECINCT 2                                             01 
01050070003000015000001000010000004000000000000REP       United States Senator                                   UNDER VOTES                           PRECINCT 3                                             01 
01050070004000023000000000010000013000000000000REP       United States Senator                                   UNDER VOTES                           PRECINCT 4                                             01 
01050070005000024000001000009000014000000000000REP       United States Senator                                   UNDER VOTES                           PRECINCT 5/6                                           01 
01050070006000006000000000000000006000000000000REP       United States Senator                                   UNDER VOTES                           PRECINCT 7                                             01 
01050070007000035000001000021000013000000000000REP       United States Senator                                   UNDER VOTES                           PRECINCT 8                                             01 
01050070008000042000003000027000012000000000000REP       United States Senator                                   UNDER VOTES                           PRECINCT 9                                             01 
01050070009000075000003000046000026000000000000REP       United States Senator                                   UNDER VOTES                           PRECINCT 10                                            01 
01050070010000010000000000006000004000000000000REP       United States Senator                                   UNDER VOTES                           PRECINCT 11                                            01 
01050070011000010000000000004000006000000000000REP       United States Senator                                   UNDER VOTES                           PRECINCT 12                                            01 
01050070012000032000000000023000009000000000000REP       United States Senator                                   UNDER VOTES                           PRECINCT 13                                            01 
01050070013000043000003000023000017000000000000REP       United States Senator                                   UNDER VOTES                           PRECINCT 14                                            01 
01050070014000001000000000001000000000000000000REP       United States Senator                                   UNDER VOTES                           PRECINCT 15                                            01 
01050070015000090000010000037000043000000000000REP       United States Senator                                   UNDER VOTES                           PRECINCT 16                                            01 
01060010001000205000015000118000072000000000000REP       US Representative, District 11                          Mike Conaway                          PRECINCT 1                                             01 
01060010002000468000045000242000181000000000000REP       US Representative, District 11                          Mike Conaway                          PRECINCT 2                                             01 
01060010003000354000037000175000142000000000000REP       US Representative, District 11                          Mike Conaway                          PRECINCT 3                                             01 
01060010004000315000022000154000139000000000000REP       US Representative, District 11                          Mike Conaway                          PRECINCT 4                                             01 
01060010005000298000019000094000185000000000000REP       US Representative, District 11                          Mike Conaway                          PRECINCT 5/6                                           01 
01060010006000109000010000010000089000000000000REP       US Representative, District 11                          Mike Conaway                          PRECINCT 7                                             01 
01060010007000465000039000220000206000000000000REP       US Representative, District 11                          Mike Conaway                          PRECINCT 8                                             01 
01060010008000642000044000305000293000000000000REP       US Representative, District 11                          Mike Conaway                          PRECINCT 9                                             01 
01060010009000805000085000277000443000000000000REP       US Representative, District 11                          Mike Conaway                          PRECINCT 10                                            01 
01060010010000194000013000084000097000000000000REP       US Representative, District 11                          Mike Conaway                          PRECINCT 11                                            01 
01060010011000182000018000067000097000000000000REP       US Representative, District 11                          Mike Conaway                          PRECINCT 12                                            01 
01060010012000663000064000393000206000000000000REP       US Representative, District 11                          Mike Conaway                          PRECINCT 13                                            01 
01060010013000562000058000249000255000000000000REP       US Representative, District 11                          Mike Conaway                          PRECINCT 14                                            01 
01060010014000038000004000016000018000000000000REP       US Representative, District 11                          Mike Conaway                          PRECINCT 15                                            01 
01060010015001396000196000493000707000000000000REP       US Representative, District 11                          Mike Conaway                          PRECINCT 16                                            01 
01060020001000087000010000049000028000000000000REP       US Representative, District 11                          Paul Myers                            PRECINCT 1                                             01 
01060020002000168000014000108000046000000000000REP       US Representative, District 11                          Paul Myers                            PRECINCT 2                                             01 
01060020003000136000011000059000066000000000000REP       US Representative, District 11                          Paul Myers                            PRECINCT 3                                             01 
01060020004000121000011000072000038000000000000REP       US Representative, District 11                          Paul Myers                            PRECINCT 4                                             01 
01060020005000138000004000049000085000000000000REP       US Representative, District 11                          Paul Myers                            PRECINCT 5/6                                           01 
01060020006000034000000000001000033000000000000REP       US Representative, District 11                          Paul Myers                            PRECINCT 7                                             01 
01060020007000250000015000134000101000000000000REP       US Representative, District 11                          Paul Myers                            PRECINCT 8                                             01 
01060020008000255000017000148000090000000000000REP       US Representative, District 11                          Paul Myers                            PRECINCT 9                                             01 
01060020009000309000024000121000164000000000000REP       US Representative, District 11                          Paul Myers                            PRECINCT 10                                            01 
01060020010000070000004000033000033000000000000REP       US Representative, District 11                          Paul Myers                            PRECINCT 11                                            01 
01060020011000073000010000032000031000000000000REP       US Representative, District 11                          Paul Myers                            PRECINCT 12                                            01 
01060020012000257000025000167000065000000000000REP       US Representative, District 11                          Paul Myers                            PRECINCT 13                                            01 
01060020013000174000014000077000083000000000000REP       US Representative, District 11                          Paul Myers                            PRECINCT 14                                            01 
01060020014000011000001000005000005000000000000REP       US Representative, District 11                          Paul Myers                            PRECINCT 15                                            01 
01060020015000390000039000154000197000000000000REP       US Representative, District 11                          Paul Myers                            PRECINCT 16                                            01 
01060030001000000000000000000000000000000000000REP       US Representative, District 11                          OVER VOTES                            PRECINCT 1                                             01 
01060030002000000000000000000000000000000000000REP       US Representative, District 11                          OVER VOTES                            PRECINCT 2                                             01 
01060030003000000000000000000000000000000000000REP       US Representative, District 11                          OVER VOTES                            PRECINCT 3                                             01 
01060030004000000000000000000000000000000000000REP       US Representative, District 11                          OVER VOTES                            PRECINCT 4                                             01 
01060030005000000000000000000000000000000000000REP       US Representative, District 11                          OVER VOTES                            PRECINCT 5/6                                           01 
01060030006000000000000000000000000000000000000REP       US Representative, District 11                          OVER VOTES                            PRECINCT 7                                             01 
01060030007000000000000000000000000000000000000REP       US Representative, District 11                          OVER VOTES                            PRECINCT 8                                             01 
01060030008000000000000000000000000000000000000REP       US Representative, District 11                          OVER VOTES                            PRECINCT 9                                             01 
01060030009000000000000000000000000000000000000REP       US Representative, District 11                          OVER VOTES                            PRECINCT 10                                            01 
01060030010000000000000000000000000000000000000REP       US Representative, District 11                          OVER VOTES                            PRECINCT 11                                            01 
01060030011000000000000000000000000000000000000REP       US Representative, District 11                          OVER VOTES                            PRECINCT 12                                            01 
01060030012000000000000000000000000000000000000REP       US Representative, District 11                          OVER VOTES                            PRECINCT 13                                            01 
01060030013000000000000000000000000000000000000REP       US Representative, District 11                          OVER VOTES                            PRECINCT 14                                            01 
01060030014000000000000000000000000000000000000REP       US Representative, District 11                          OVER VOTES                            PRECINCT 15                                            01 
01060030015000000000000000000000000000000000000REP       US Representative, District 11                          OVER VOTES                            PRECINCT 16                                            01 
01060040001000029000002000015000012000000000000REP       US Representative, District 11                          UNDER VOTES                           PRECINCT 1                                             01 
01060040002000093000006000053000034000000000000REP       US Representative, District 11                          UNDER VOTES                           PRECINCT 2                                             01 
01060040003000056000005000025000026000000000000REP       US Representative, District 11                          UNDER VOTES                           PRECINCT 3                                             01 
01060040004000066000006000030000030000000000000REP       US Representative, District 11                          UNDER VOTES                           PRECINCT 4                                             01 
01060040005000059000003000023000033000000000000REP       US Representative, District 11                          UNDER VOTES                           PRECINCT 5/6                                           01 
01060040006000013000001000000000012000000000000REP       US Representative, District 11                          UNDER VOTES                           PRECINCT 7                                             01 
01060040007000064000004000033000027000000000000REP       US Representative, District 11                          UNDER VOTES                           PRECINCT 8                                             01 
01060040008000090000006000055000029000000000000REP       US Representative, District 11                          UNDER VOTES                           PRECINCT 9                                             01 
01060040009000141000007000064000070000000000000REP       US Representative, District 11                          UNDER VOTES                           PRECINCT 10                                            01 
01060040010000029000001000014000014000000000000REP       US Representative, District 11                          UNDER VOTES                           PRECINCT 11                                            01 
01060040011000019000000000011000008000000000000REP       US Representative, District 11                          UNDER VOTES                           PRECINCT 12                                            01 
01060040012000078000007000052000019000000000000REP       US Representative, District 11                          UNDER VOTES                           PRECINCT 13                                            01 
01060040013000098000010000043000045000000000000REP       US Representative, District 11                          UNDER VOTES                           PRECINCT 14                                            01 
01060040014000006000000000003000003000000000000REP       US Representative, District 11                          UNDER VOTES                           PRECINCT 15                                            01 
01060040015000200000035000066000099000000000000REP       US Representative, District 11                          UNDER VOTES                           PRECINCT 16                                            01 
01070010001000259000023000145000091000000000000REP       Governor                                                Greg Abbott                           PRECINCT 1                                             01 
01070010002000573000061000285000227000000000000REP       Governor                                                Greg Abbott                           PRECINCT 2                                             01 
01070010003000475000050000216000209000000000000REP       Governor                                                Greg Abbott                           PRECINCT 3                                             01 
01070010004000413000035000202000176000000000000REP       Governor                                                Greg Abbott                           PRECINCT 4                                             01 
01070010005000416000025000132000259000000000000REP       Governor                                                Greg Abbott                           PRECINCT 5/6                                           01 
01070010006000135000011000010000114000000000000REP       Governor                                                Greg Abbott                           PRECINCT 7                                             01 
01070010007000652000056000302000294000000000000REP       Governor                                                Greg Abbott                           PRECINCT 8                                             01 
01070010008000848000064000404000380000000000000REP       Governor                                                Greg Abbott                           PRECINCT 9                                             01 
01070010009001046000108000337000601000000000000REP       Governor                                                Greg Abbott                           PRECINCT 10                                            01 
01070010010000262000017000115000130000000000000REP       Governor                                                Greg Abbott                           PRECINCT 11                                            01 
01070010011000236000025000092000119000000000000REP       Governor                                                Greg Abbott                           PRECINCT 12                                            01 
01070010012000837000090000493000254000000000000REP       Governor                                                Greg Abbott                           PRECINCT 13                                            01 
01070010013000710000078000292000340000000000000REP       Governor                                                Greg Abbott                           PRECINCT 14                                            01 
01070010014000052000005000022000025000000000000REP       Governor                                                Greg Abbott                           PRECINCT 15                                            01 
01070010015001725000248000594000883000000000000REP       Governor                                                Greg Abbott                           PRECINCT 16                                            01 
01070020001000046000003000029000014000000000000REP       Governor                                                Barbara Krueger                       PRECINCT 1                                             01 
01070020002000092000002000072000018000000000000REP       Governor                                                Barbara Krueger                       PRECINCT 2                                             01 
01070020003000046000002000027000017000000000000REP       Governor                                                Barbara Krueger                       PRECINCT 3                                             01 
01070020004000051000003000036000012000000000000REP       Governor                                                Barbara Krueger                       PRECINCT 4                                             01 
01070020005000052000001000024000027000000000000REP       Governor                                                Barbara Krueger                       PRECINCT 5/6                                           01 
01070020006000014000000000001000013000000000000REP       Governor                                                Barbara Krueger                       PRECINCT 7                                             01 
01070020007000087000000000058000029000000000000REP       Governor                                                Barbara Krueger                       PRECINCT 8                                             01 
01070020008000082000003000059000020000000000000REP       Governor                                                Barbara Krueger                       PRECINCT 9                                             01 
01070020009000114000004000060000050000000000000REP       Governor                                                Barbara Krueger                       PRECINCT 10                                            01 
01070020010000017000001000008000008000000000000REP       Governor                                                Barbara Krueger                       PRECINCT 11                                            01 
01070020011000023000003000011000009000000000000REP       Governor                                                Barbara Krueger                       PRECINCT 12                                            01 
01070020012000114000005000084000025000000000000REP       Governor                                                Barbara Krueger                       PRECINCT 13                                            01 
01070020013000078000003000046000029000000000000REP       Governor                                                Barbara Krueger                       PRECINCT 14                                            01 
01070020014000003000000000002000001000000000000REP       Governor                                                Barbara Krueger                       PRECINCT 15                                            01 
01070020015000179000013000082000084000000000000REP       Governor                                                Barbara Krueger                       PRECINCT 16                                            01 
01070030001000005000000000003000002000000000000REP       Governor                                                SECEDE Kilgore                        PRECINCT 1                                             01 
01070030002000011000000000008000003000000000000REP       Governor                                                SECEDE Kilgore                        PRECINCT 2                                             01 
01070030003000006000000000004000002000000000000REP       Governor                                                SECEDE Kilgore                        PRECINCT 3                                             01 
01070030004000008000001000003000004000000000000REP       Governor                                                SECEDE Kilgore                        PRECINCT 4                                             01 
01070030005000006000000000001000005000000000000REP       Governor                                                SECEDE Kilgore                        PRECINCT 5/6                                           01 
01070030006000005000000000000000005000000000000REP       Governor                                                SECEDE Kilgore                        PRECINCT 7                                             01 
01070030007000007000001000004000002000000000000REP       Governor                                                SECEDE Kilgore                        PRECINCT 8                                             01 
01070030008000010000000000008000002000000000000REP       Governor                                                SECEDE Kilgore                        PRECINCT 9                                             01 
01070030009000013000001000005000007000000000000REP       Governor                                                SECEDE Kilgore                        PRECINCT 10                                            01 
01070030010000002000000000001000001000000000000REP       Governor                                                SECEDE Kilgore                        PRECINCT 11                                            01 
01070030011000004000000000002000002000000000000REP       Governor                                                SECEDE Kilgore                        PRECINCT 12                                            01 
01070030012000015000001000011000003000000000000REP       Governor                                                SECEDE Kilgore                        PRECINCT 13                                            01 
01070030013000003000000000001000002000000000000REP       Governor                                                SECEDE Kilgore                        PRECINCT 14                                            01 
01070030014000000000000000000000000000000000000REP       Governor                                                SECEDE Kilgore                        PRECINCT 15                                            01 
01070030015000007000000000003000004000000000000REP       Governor                                                SECEDE Kilgore                        PRECINCT 16                                            01 
01070040001000000000000000000000000000000000000REP       Governor                                                OVER VOTES                            PRECINCT 1                                             01 
01070040002000000000000000000000000000000000000REP       Governor                                                OVER VOTES                            PRECINCT 2                                             01 
01070040003000000000000000000000000000000000000REP       Governor                                                OVER VOTES                            PRECINCT 3                                             01 
01070040004000000000000000000000000000000000000REP       Governor                                                OVER VOTES                            PRECINCT 4                                             01 
01070040005000000000000000000000000000000000000REP       Governor                                                OVER VOTES                            PRECINCT 5/6                                           01 
01070040006000000000000000000000000000000000000REP       Governor                                                OVER VOTES                            PRECINCT 7                                             01 
01070040007000000000000000000000000000000000000REP       Governor                                                OVER VOTES                            PRECINCT 8                                             01 
01070040008000000000000000000000000000000000000REP       Governor                                                OVER VOTES                            PRECINCT 9                                             01 
01070040009000000000000000000000000000000000000REP       Governor                                                OVER VOTES                            PRECINCT 10                                            01 
01070040010000000000000000000000000000000000000REP       Governor                                                OVER VOTES                            PRECINCT 11                                            01 
01070040011000000000000000000000000000000000000REP       Governor                                                OVER VOTES                            PRECINCT 12                                            01 
01070040012000000000000000000000000000000000000REP       Governor                                                OVER VOTES                            PRECINCT 13                                            01 
01070040013000000000000000000000000000000000000REP       Governor                                                OVER VOTES                            PRECINCT 14                                            01 
01070040014000000000000000000000000000000000000REP       Governor                                                OVER VOTES                            PRECINCT 15                                            01 
01070040015000000000000000000000000000000000000REP       Governor                                                OVER VOTES                            PRECINCT 16                                            01 
01070050001000011000001000005000005000000000000REP       Governor                                                UNDER VOTES                           PRECINCT 1                                             01 
01070050002000053000002000038000013000000000000REP       Governor                                                UNDER VOTES                           PRECINCT 2                                             01 
01070050003000019000001000012000006000000000000REP       Governor                                                UNDER VOTES                           PRECINCT 3                                             01 
01070050004000030000000000015000015000000000000REP       Governor                                                UNDER VOTES                           PRECINCT 4                                             01 
01070050005000021000000000009000012000000000000REP       Governor                                                UNDER VOTES                           PRECINCT 5/6                                           01 
01070050006000002000000000000000002000000000000REP       Governor                                                UNDER VOTES                           PRECINCT 7                                             01 
01070050007000033000001000023000009000000000000REP       Governor                                                UNDER VOTES                           PRECINCT 8                                             01 
01070050008000047000000000037000010000000000000REP       Governor                                                UNDER VOTES                           PRECINCT 9                                             01 
01070050009000082000003000060000019000000000000REP       Governor                                                UNDER VOTES                           PRECINCT 10                                            01 
01070050010000012000000000007000005000000000000REP       Governor                                                UNDER VOTES                           PRECINCT 11                                            01 
01070050011000011000000000005000006000000000000REP       Governor                                                UNDER VOTES                           PRECINCT 12                                            01 
01070050012000032000000000024000008000000000000REP       Governor                                                UNDER VOTES                           PRECINCT 13                                            01 
01070050013000043000001000030000012000000000000REP       Governor                                                UNDER VOTES                           PRECINCT 14                                            01 
01070050014000000000000000000000000000000000000REP       Governor                                                UNDER VOTES                           PRECINCT 15                                            01 
01070050015000075000009000034000032000000000000REP       Governor                                                UNDER VOTES                           PRECINCT 16                                            01 
01080010001000224000021000125000078000000000000REP       Lieutenant Governor                                     Dan Patrick                           PRECINCT 1                                             01 
01080010002000506000057000242000207000000000000REP       Lieutenant Governor                                     Dan Patrick                           PRECINCT 2                                             01 
01080010003000406000039000185000182000000000000REP       Lieutenant Governor                                     Dan Patrick                           PRECINCT 3                                             01 
01080010004000346000036000154000156000000000000REP       Lieutenant Governor                                     Dan Patrick                           PRECINCT 4                                             01 
01080010005000338000025000095000218000000000000REP       Lieutenant Governor                                     Dan Patrick                           PRECINCT 5/6                                           01 
01080010006000101000009000010000082000000000000REP       Lieutenant Governor                                     Dan Patrick                           PRECINCT 7                                             01 
01080010007000542000050000242000250000000000000REP       Lieutenant Governor                                     Dan Patrick                           PRECINCT 8                                             01 
01080010008000697000054000330000313000000000000REP       Lieutenant Governor                                     Dan Patrick                           PRECINCT 9                                             01 
01080010009000871000096000280000495000000000000REP       Lieutenant Governor                                     Dan Patrick                           PRECINCT 10                                            01 
01080010010000234000016000105000113000000000000REP       Lieutenant Governor                                     Dan Patrick                           PRECINCT 11                                            01 
01080010011000215000022000082000111000000000000REP       Lieutenant Governor                                     Dan Patrick                           PRECINCT 12                                            01 
01080010012000727000080000422000225000000000000REP       Lieutenant Governor                                     Dan Patrick                           PRECINCT 13                                            01 
01080010013000572000068000237000267000000000000REP       Lieutenant Governor                                     Dan Patrick                           PRECINCT 14                                            01 
01080010014000045000004000020000021000000000000REP       Lieutenant Governor                                     Dan Patrick                           PRECINCT 15                                            01 
01080010015001437000204000494000739000000000000REP       Lieutenant Governor                                     Dan Patrick                           PRECINCT 16                                            01 
01080020001000083000006000049000028000000000000REP       Lieutenant Governor                                     Scott Milder                          PRECINCT 1                                             01 
01080020002000181000008000135000038000000000000REP       Lieutenant Governor                                     Scott Milder                          PRECINCT 2                                             01 
01080020003000115000011000065000039000000000000REP       Lieutenant Governor                                     Scott Milder                          PRECINCT 3                                             01 
01080020004000131000003000090000038000000000000REP       Lieutenant Governor                                     Scott Milder                          PRECINCT 4                                             01 
01080020005000140000001000066000073000000000000REP       Lieutenant Governor                                     Scott Milder                          PRECINCT 5/6                                           01 
01080020006000048000001000001000046000000000000REP       Lieutenant Governor                                     Scott Milder                          PRECINCT 7                                             01 
01080020007000214000007000132000075000000000000REP       Lieutenant Governor                                     Scott Milder                          PRECINCT 8                                             01 
01080020008000252000012000159000081000000000000REP       Lieutenant Governor                                     Scott Milder                          PRECINCT 9                                             01 
01080020009000326000017000157000152000000000000REP       Lieutenant Governor                                     Scott Milder                          PRECINCT 10                                            01 
01080020010000050000002000021000027000000000000REP       Lieutenant Governor                                     Scott Milder                          PRECINCT 11                                            01 
01080020011000052000006000024000022000000000000REP       Lieutenant Governor                                     Scott Milder                          PRECINCT 12                                            01 
01080020012000236000015000165000056000000000000REP       Lieutenant Governor                                     Scott Milder                          PRECINCT 13                                            01 
01080020013000216000012000113000091000000000000REP       Lieutenant Governor                                     Scott Milder                          PRECINCT 14                                            01 
01080020014000008000001000003000004000000000000REP       Lieutenant Governor                                     Scott Milder                          PRECINCT 15                                            01 
01080020015000488000057000199000232000000000000REP       Lieutenant Governor                                     Scott Milder                          PRECINCT 16                                            01 
01080030001000000000000000000000000000000000000REP       Lieutenant Governor                                     OVER VOTES                            PRECINCT 1                                             01 
01080030002000000000000000000000000000000000000REP       Lieutenant Governor                                     OVER VOTES                            PRECINCT 2                                             01 
01080030003000000000000000000000000000000000000REP       Lieutenant Governor                                     OVER VOTES                            PRECINCT 3                                             01 
01080030004000000000000000000000000000000000000REP       Lieutenant Governor                                     OVER VOTES                            PRECINCT 4                                             01 
01080030005000000000000000000000000000000000000REP       Lieutenant Governor                                     OVER VOTES                            PRECINCT 5/6                                           01 
01080030006000000000000000000000000000000000000REP       Lieutenant Governor                                     OVER VOTES                            PRECINCT 7                                             01 
01080030007000000000000000000000000000000000000REP       Lieutenant Governor                                     OVER VOTES                            PRECINCT 8                                             01 
01080030008000000000000000000000000000000000000REP       Lieutenant Governor                                     OVER VOTES                            PRECINCT 9                                             01 
01080030009000000000000000000000000000000000000REP       Lieutenant Governor                                     OVER VOTES                            PRECINCT 10                                            01 
01080030010000000000000000000000000000000000000REP       Lieutenant Governor                                     OVER VOTES                            PRECINCT 11                                            01 
01080030011000000000000000000000000000000000000REP       Lieutenant Governor                                     OVER VOTES                            PRECINCT 12                                            01 
01080030012000000000000000000000000000000000000REP       Lieutenant Governor                                     OVER VOTES                            PRECINCT 13                                            01 
01080030013000000000000000000000000000000000000REP       Lieutenant Governor                                     OVER VOTES                            PRECINCT 14                                            01 
01080030014000000000000000000000000000000000000REP       Lieutenant Governor                                     OVER VOTES                            PRECINCT 15                                            01 
01080030015000000000000000000000000000000000000REP       Lieutenant Governor                                     OVER VOTES                            PRECINCT 16                                            01 
01080040001000014000000000008000006000000000000REP       Lieutenant Governor                                     UNDER VOTES                           PRECINCT 1                                             01 
01080040002000042000000000026000016000000000000REP       Lieutenant Governor                                     UNDER VOTES                           PRECINCT 2                                             01 
01080040003000025000003000009000013000000000000REP       Lieutenant Governor                                     UNDER VOTES                           PRECINCT 3                                             01 
01080040004000025000000000012000013000000000000REP       Lieutenant Governor                                     UNDER VOTES                           PRECINCT 4                                             01 
01080040005000017000000000005000012000000000000REP       Lieutenant Governor                                     UNDER VOTES                           PRECINCT 5/6                                           01 
01080040006000007000001000000000006000000000000REP       Lieutenant Governor                                     UNDER VOTES                           PRECINCT 7                                             01 
01080040007000023000001000013000009000000000000REP       Lieutenant Governor                                     UNDER VOTES                           PRECINCT 8                                             01 
01080040008000038000001000019000018000000000000REP       Lieutenant Governor                                     UNDER VOTES                           PRECINCT 9                                             01 
01080040009000058000003000025000030000000000000REP       Lieutenant Governor                                     UNDER VOTES                           PRECINCT 10                                            01 
01080040010000009000000000005000004000000000000REP       Lieutenant Governor                                     UNDER VOTES                           PRECINCT 11                                            01 
01080040011000007000000000004000003000000000000REP       Lieutenant Governor                                     UNDER VOTES                           PRECINCT 12                                            01 
01080040012000035000001000025000009000000000000REP       Lieutenant Governor                                     UNDER VOTES                           PRECINCT 13                                            01 
01080040013000046000002000019000025000000000000REP       Lieutenant Governor                                     UNDER VOTES                           PRECINCT 14                                            01 
01080040014000002000000000001000001000000000000REP       Lieutenant Governor                                     UNDER VOTES                           PRECINCT 15                                            01 
01080040015000061000009000020000032000000000000REP       Lieutenant Governor                                     UNDER VOTES                           PRECINCT 16                                            01 
01090010001000239000023000133000083000000000000REP       Attorney General                                        Ken Paxton                            PRECINCT 1                                             01 
01090010002000536000054000271000211000000000000REP       Attorney General                                        Ken Paxton                            PRECINCT 2                                             01 
01090010003000450000043000208000199000000000000REP       Attorney General                                        Ken Paxton                            PRECINCT 3                                             01 
01090010004000401000028000201000172000000000000REP       Attorney General                                        Ken Paxton                            PRECINCT 4                                             01 
01090010005000382000023000117000242000000000000REP       Attorney General                                        Ken Paxton                            PRECINCT 5/6                                           01 
01090010006000126000009000008000109000000000000REP       Attorney General                                        Ken Paxton                            PRECINCT 7                                             01 
01090010007000601000049000277000275000000000000REP       Attorney General                                        Ken Paxton                            PRECINCT 8                                             01 
01090010008000791000055000388000348000000000000REP       Attorney General                                        Ken Paxton                            PRECINCT 9                                             01 
01090010009000971000101000326000544000000000000REP       Attorney General                                        Ken Paxton                            PRECINCT 10                                            01 
01090010010000248000015000107000126000000000000REP       Attorney General                                        Ken Paxton                            PRECINCT 11                                            01 
01090010011000231000025000086000120000000000000REP       Attorney General                                        Ken Paxton                            PRECINCT 12                                            01 
01090010012000800000076000484000240000000000000REP       Attorney General                                        Ken Paxton                            PRECINCT 13                                            01 
01090010013000655000068000283000304000000000000REP       Attorney General                                        Ken Paxton                            PRECINCT 14                                            01 
01090010014000050000005000021000024000000000000REP       Attorney General                                        Ken Paxton                            PRECINCT 15                                            01 
01090010015001596000220000548000828000000000000REP       Attorney General                                        Ken Paxton                            PRECINCT 16                                            01 
01090020001000000000000000000000000000000000000REP       Attorney General                                        OVER VOTES                            PRECINCT 1                                             01 
01090020002000000000000000000000000000000000000REP       Attorney General                                        OVER VOTES                            PRECINCT 2                                             01 
01090020003000000000000000000000000000000000000REP       Attorney General                                        OVER VOTES                            PRECINCT 3                                             01 
01090020004000000000000000000000000000000000000REP       Attorney General                                        OVER VOTES                            PRECINCT 4                                             01 
01090020005000000000000000000000000000000000000REP       Attorney General                                        OVER VOTES                            PRECINCT 5/6                                           01 
01090020006000000000000000000000000000000000000REP       Attorney General                                        OVER VOTES                            PRECINCT 7                                             01 
01090020007000000000000000000000000000000000000REP       Attorney General                                        OVER VOTES                            PRECINCT 8                                             01 
01090020008000000000000000000000000000000000000REP       Attorney General                                        OVER VOTES                            PRECINCT 9                                             01 
01090020009000000000000000000000000000000000000REP       Attorney General                                        OVER VOTES                            PRECINCT 10                                            01 
01090020010000000000000000000000000000000000000REP       Attorney General                                        OVER VOTES                            PRECINCT 11                                            01 
01090020011000000000000000000000000000000000000REP       Attorney General                                        OVER VOTES                            PRECINCT 12                                            01 
01090020012000000000000000000000000000000000000REP       Attorney General                                        OVER VOTES                            PRECINCT 13                                            01 
01090020013000000000000000000000000000000000000REP       Attorney General                                        OVER VOTES                            PRECINCT 14                                            01 
01090020014000000000000000000000000000000000000REP       Attorney General                                        OVER VOTES                            PRECINCT 15                                            01 
01090020015000000000000000000000000000000000000REP       Attorney General                                        OVER VOTES                            PRECINCT 16                                            01 
01090030001000082000004000049000029000000000000REP       Attorney General                                        UNDER VOTES                           PRECINCT 1                                             01 
01090030002000193000011000132000050000000000000REP       Attorney General                                        UNDER VOTES                           PRECINCT 2                                             01 
01090030003000096000010000051000035000000000000REP       Attorney General                                        UNDER VOTES                           PRECINCT 3                                             01 
01090030004000101000011000055000035000000000000REP       Attorney General                                        UNDER VOTES                           PRECINCT 4                                             01 
01090030005000113000003000049000061000000000000REP       Attorney General                                        UNDER VOTES                           PRECINCT 5/6                                           01 
01090030006000030000002000003000025000000000000REP       Attorney General                                        UNDER VOTES                           PRECINCT 7                                             01 
01090030007000178000009000110000059000000000000REP       Attorney General                                        UNDER VOTES                           PRECINCT 8                                             01 
01090030008000196000012000120000064000000000000REP       Attorney General                                        UNDER VOTES                           PRECINCT 9                                             01 
01090030009000284000015000136000133000000000000REP       Attorney General                                        UNDER VOTES                           PRECINCT 10                                            01 
01090030010000045000003000024000018000000000000REP       Attorney General                                        UNDER VOTES                           PRECINCT 11                                            01 
01090030011000043000003000024000016000000000000REP       Attorney General                                        UNDER VOTES                           PRECINCT 12                                            01 
01090030012000198000020000128000050000000000000REP       Attorney General                                        UNDER VOTES                           PRECINCT 13                                            01 
01090030013000179000014000086000079000000000000REP       Attorney General                                        UNDER VOTES                           PRECINCT 14                                            01 
01090030014000005000000000003000002000000000000REP       Attorney General                                        UNDER VOTES                           PRECINCT 15                                            01 
01090030015000390000050000165000175000000000000REP       Attorney General                                        UNDER VOTES                           PRECINCT 16                                            01 
01100010001000226000023000127000076000000000000REP       Comptroller of Public Accounts                          Glenn Hegar                           PRECINCT 1                                             01 
01100010002000517000050000266000201000000000000REP       Comptroller of Public Accounts                          Glenn Hegar                           PRECINCT 2                                             01 
01100010003000435000043000204000188000000000000REP       Comptroller of Public Accounts                          Glenn Hegar                           PRECINCT 3                                             01 
01100010004000379000029000188000162000000000000REP       Comptroller of Public Accounts                          Glenn Hegar                           PRECINCT 4                                             01 
01100010005000374000022000118000234000000000000REP       Comptroller of Public Accounts                          Glenn Hegar                           PRECINCT 5/6                                           01 
01100010006000125000008000010000107000000000000REP       Comptroller of Public Accounts                          Glenn Hegar                           PRECINCT 7                                             01 
01100010007000570000048000269000253000000000000REP       Comptroller of Public Accounts                          Glenn Hegar                           PRECINCT 8                                             01 
01100010008000755000055000365000335000000000000REP       Comptroller of Public Accounts                          Glenn Hegar                           PRECINCT 9                                             01 
01100010009000909000092000314000503000000000000REP       Comptroller of Public Accounts                          Glenn Hegar                           PRECINCT 10                                            01 
01100010010000228000013000098000117000000000000REP       Comptroller of Public Accounts                          Glenn Hegar                           PRECINCT 11                                            01 
01100010011000222000023000086000113000000000000REP       Comptroller of Public Accounts                          Glenn Hegar                           PRECINCT 12                                            01 
01100010012000771000074000469000228000000000000REP       Comptroller of Public Accounts                          Glenn Hegar                           PRECINCT 13                                            01 
01100010013000629000066000277000286000000000000REP       Comptroller of Public Accounts                          Glenn Hegar                           PRECINCT 14                                            01 
01100010014000045000005000019000021000000000000REP       Comptroller of Public Accounts                          Glenn Hegar                           PRECINCT 15                                            01 
01100010015001514000210000518000786000000000000REP       Comptroller of Public Accounts                          Glenn Hegar                           PRECINCT 16                                            01 
01100020001000000000000000000000000000000000000REP       Comptroller of Public Accounts                          OVER VOTES                            PRECINCT 1                                             01 
01100020002000000000000000000000000000000000000REP       Comptroller of Public Accounts                          OVER VOTES                            PRECINCT 2                                             01 
01100020003000000000000000000000000000000000000REP       Comptroller of Public Accounts                          OVER VOTES                            PRECINCT 3                                             01 
01100020004000000000000000000000000000000000000REP       Comptroller of Public Accounts                          OVER VOTES                            PRECINCT 4                                             01 
01100020005000000000000000000000000000000000000REP       Comptroller of Public Accounts                          OVER VOTES                            PRECINCT 5/6                                           01 
01100020006000000000000000000000000000000000000REP       Comptroller of Public Accounts                          OVER VOTES                            PRECINCT 7                                             01 
01100020007000000000000000000000000000000000000REP       Comptroller of Public Accounts                          OVER VOTES                            PRECINCT 8                                             01 
01100020008000000000000000000000000000000000000REP       Comptroller of Public Accounts                          OVER VOTES                            PRECINCT 9                                             01 
01100020009000000000000000000000000000000000000REP       Comptroller of Public Accounts                          OVER VOTES                            PRECINCT 10                                            01 
01100020010000000000000000000000000000000000000REP       Comptroller of Public Accounts                          OVER VOTES                            PRECINCT 11                                            01 
01100020011000000000000000000000000000000000000REP       Comptroller of Public Accounts                          OVER VOTES                            PRECINCT 12                                            01 
01100020012000000000000000000000000000000000000REP       Comptroller of Public Accounts                          OVER VOTES                            PRECINCT 13                                            01 
01100020013000000000000000000000000000000000000REP       Comptroller of Public Accounts                          OVER VOTES                            PRECINCT 14                                            01 
01100020014000000000000000000000000000000000000REP       Comptroller of Public Accounts                          OVER VOTES                            PRECINCT 15                                            01 
01100020015000000000000000000000000000000000000REP       Comptroller of Public Accounts                          OVER VOTES                            PRECINCT 16                                            01 
01100030001000095000004000055000036000000000000REP       Comptroller of Public Accounts                          UNDER VOTES                           PRECINCT 1                                             01 
01100030002000212000015000137000060000000000000REP       Comptroller of Public Accounts                          UNDER VOTES                           PRECINCT 2                                             01 
01100030003000111000010000055000046000000000000REP       Comptroller of Public Accounts                          UNDER VOTES                           PRECINCT 3                                             01 
01100030004000123000010000068000045000000000000REP       Comptroller of Public Accounts                          UNDER VOTES                           PRECINCT 4                                             01 
01100030005000121000004000048000069000000000000REP       Comptroller of Public Accounts                          UNDER VOTES                           PRECINCT 5/6                                           01 
01100030006000031000003000001000027000000000000REP       Comptroller of Public Accounts                          UNDER VOTES                           PRECINCT 7                                             01 
01100030007000209000010000118000081000000000000REP       Comptroller of Public Accounts                          UNDER VOTES                           PRECINCT 8                                             01 
01100030008000232000012000143000077000000000000REP       Comptroller of Public Accounts                          UNDER VOTES                           PRECINCT 9                                             01 
01100030009000346000024000148000174000000000000REP       Comptroller of Public Accounts                          UNDER VOTES                           PRECINCT 10                                            01 
01100030010000065000005000033000027000000000000REP       Comptroller of Public Accounts                          UNDER VOTES                           PRECINCT 11                                            01 
01100030011000052000005000024000023000000000000REP       Comptroller of Public Accounts                          UNDER VOTES                           PRECINCT 12                                            01 
01100030012000227000022000143000062000000000000REP       Comptroller of Public Accounts                          UNDER VOTES                           PRECINCT 13                                            01 
01100030013000205000016000092000097000000000000REP       Comptroller of Public Accounts                          UNDER VOTES                           PRECINCT 14                                            01 
01100030014000010000000000005000005000000000000REP       Comptroller of Public Accounts                          UNDER VOTES                           PRECINCT 15                                            01 
01100030015000472000060000195000217000000000000REP       Comptroller of Public Accounts                          UNDER VOTES                           PRECINCT 16                                            01 
01110010001000180000020000103000057000000000000REP       Commissioner of the General Land Office                 George P. Bush                        PRECINCT 1                                             01 
01110010002000423000034000228000161000000000000REP       Commissioner of the General Land Office                 George P. Bush                        PRECINCT 2                                             01 
01110010003000333000033000152000148000000000000REP       Commissioner of the General Land Office                 George P. Bush                        PRECINCT 3                                             01 
01110010004000291000020000143000128000000000000REP       Commissioner of the General Land Office                 George P. Bush                        PRECINCT 4                                             01 
01110010005000290000007000094000189000000000000REP       Commissioner of the General Land Office                 George P. Bush                        PRECINCT 5/6                                           01 
01110010006000097000009000005000083000000000000REP       Commissioner of the General Land Office                 George P. Bush                        PRECINCT 7                                             01 
01110010007000427000035000196000196000000000000REP       Commissioner of the General Land Office                 George P. Bush                        PRECINCT 8                                             01 
01110010008000566000044000273000249000000000000REP       Commissioner of the General Land Office                 George P. Bush                        PRECINCT 9                                             01 
01110010009000737000073000249000415000000000000REP       Commissioner of the General Land Office                 George P. Bush                        PRECINCT 10                                            01 
01110010010000150000011000054000085000000000000REP       Commissioner of the General Land Office                 George P. Bush                        PRECINCT 11                                            01 
01110010011000150000013000063000074000000000000REP       Commissioner of the General Land Office                 George P. Bush                        PRECINCT 12                                            01 
01110010012000607000051000376000180000000000000REP       Commissioner of the General Land Office                 George P. Bush                        PRECINCT 13                                            01 
01110010013000495000060000207000228000000000000REP       Commissioner of the General Land Office                 George P. Bush                        PRECINCT 14                                            01 
01110010014000033000005000014000014000000000000REP       Commissioner of the General Land Office                 George P. Bush                        PRECINCT 15                                            01 
01110010015001271000177000426000668000000000000REP       Commissioner of the General Land Office                 George P. Bush                        PRECINCT 16                                            01 
01110020001000058000002000036000020000000000000REP       Commissioner of the General Land Office                 Jerry Patterson                       PRECINCT 1                                             01 
01110020002000130000011000072000047000000000000REP       Commissioner of the General Land Office                 Jerry Patterson                       PRECINCT 2                                             01 
01110020003000088000007000046000035000000000000REP       Commissioner of the General Land Office                 Jerry Patterson                       PRECINCT 3                                             01 
01110020004000107000007000063000037000000000000REP       Commissioner of the General Land Office                 Jerry Patterson                       PRECINCT 4                                             01 
01110020005000080000009000022000049000000000000REP       Commissioner of the General Land Office                 Jerry Patterson                       PRECINCT 5/6                                           01 
01110020006000034000002000001000031000000000000REP       Commissioner of the General Land Office                 Jerry Patterson                       PRECINCT 7                                             01 
01110020007000124000011000063000050000000000000REP       Commissioner of the General Land Office                 Jerry Patterson                       PRECINCT 8                                             01 
01110020008000171000015000089000067000000000000REP       Commissioner of the General Land Office                 Jerry Patterson                       PRECINCT 9                                             01 
