01050010001000468REP       US Senator                                              Ted Cruz                              PRECINCT 1010                                          01 
01050010002000896REP       US Senator                                              Ted Cruz                              PRECINCT 1110                                          01 
01050010003000543REP       US Senator                                              Ted Cruz                              PRECINCT 2020                                          01 
01050010004000661REP       US Senator                                              Ted Cruz                              PRECINCT 2080                                          01 
01050010005000772REP       US Senator                                              Ted Cruz                              PRECINCT 2120                                          01 
01050010006000517REP       US Senator                                              Ted Cruz                              PRECINCT 3030                                          01 
01050010007000833REP       US Senator                                              Ted Cruz                              PRECINCT 3040                                          01 
01050010008000142REP       US Senator                                              Ted Cruz                              PRECINCT 3060                                          01 
01050010009000511REP       US Senator                                              Ted Cruz                              PRECINCT 4050                                          01 
01050010010000083REP       US Senator                                              Ted Cruz                              PRECINCT 4070                                          01 
01050010011000723REP       US Senator                                              Ted Cruz                              PRECINCT 4100                                          01 
01050020001000005REP       US Senator                                              Geraldine Sam                         PRECINCT 1010                                          01 
01050020002000022REP       US Senator                                              Geraldine Sam                         PRECINCT 1110                                          01 
01050020003000007REP       US Senator                                              Geraldine Sam                         PRECINCT 2020                                          01 
01050020004000011REP       US Senator                                              Geraldine Sam                         PRECINCT 2080                                          01 
01050020005000018REP       US Senator                                              Geraldine Sam                         PRECINCT 2120                                          01 
01050020006000007REP       US Senator                                              Geraldine Sam                         PRECINCT 3030                                          01 
01050020007000014REP       US Senator                                              Geraldine Sam                         PRECINCT 3040                                          01 
01050020008000003REP       US Senator                                              Geraldine Sam                         PRECINCT 3060                                          01 
01050020009000014REP       US Senator                                              Geraldine Sam                         PRECINCT 4050                                          01 
01050020010000003REP       US Senator                                              Geraldine Sam                         PRECINCT 4070                                          01 
01050020011000014REP       US Senator                                              Geraldine Sam                         PRECINCT 4100                                          01 
01050030001000011REP       US Senator                                              Stefano de Stefano                    PRECINCT 1010                                          01 
01050030002000016REP       US Senator                                              Stefano de Stefano                    PRECINCT 1110                                          01 
01050030003000007REP       US Senator                                              Stefano de Stefano                    PRECINCT 2020                                          01 
01050030004000019REP       US Senator                                              Stefano de Stefano                    PRECINCT 2080                                          01 
01050030005000016REP       US Senator                                              Stefano de Stefano                    PRECINCT 2120                                          01 
01050030006000010REP       US Senator                                              Stefano de Stefano                    PRECINCT 3030                                          01 
01050030007000019REP       US Senator                                              Stefano de Stefano                    PRECINCT 3040                                          01 
01050030008000001REP       US Senator                                              Stefano de Stefano                    PRECINCT 3060                                          01 
01050030009000005REP       US Senator                                              Stefano de Stefano                    PRECINCT 4050                                          01 
01050030010000000REP       US Senator                                              Stefano de Stefano                    PRECINCT 4070                                          01 
01050030011000006REP       US Senator                                              Stefano de Stefano                    PRECINCT 4100                                          01 
01050040001000051REP       US Senator                                              Mary Miller                           PRECINCT 1010                                          01 
01050040002000067REP       US Senator                                              Mary Miller                           PRECINCT 1110                                          01 
01050040003000017REP       US Senator                                              Mary Miller                           PRECINCT 2020                                          01 
01050040004000030REP       US Senator                                              Mary Miller                           PRECINCT 2080                                          01 
01050040005000055REP       US Senator                                              Mary Miller                           PRECINCT 2120                                          01 
01050040006000031REP       US Senator                                              Mary Miller                           PRECINCT 3030                                          01 
01050040007000069REP       US Senator                                              Mary Miller                           PRECINCT 3040                                          01 
01050040008000009REP       US Senator                                              Mary Miller                           PRECINCT 3060                                          01 
01050040009000044REP       US Senator                                              Mary Miller                           PRECINCT 4050                                          01 
01050040010000005REP       US Senator                                              Mary Miller                           PRECINCT 4070                                          01 
01050040011000053REP       US Senator                                              Mary Miller                           PRECINCT 4100                                          01 
01050050001000022REP       US Senator                                              Bruce Jacobson, Jr.                   PRECINCT 1010                                          01 
01050050002000047REP       US Senator                                              Bruce Jacobson, Jr.                   PRECINCT 1110                                          01 
01050050003000016REP       US Senator                                              Bruce Jacobson, Jr.                   PRECINCT 2020                                          01 
01050050004000022REP       US Senator                                              Bruce Jacobson, Jr.                   PRECINCT 2080                                          01 
01050050005000033REP       US Senator                                              Bruce Jacobson, Jr.                   PRECINCT 2120                                          01 
01050050006000016REP       US Senator                                              Bruce Jacobson, Jr.                   PRECINCT 3030                                          01 
01050050007000031REP       US Senator                                              Bruce Jacobson, Jr.                   PRECINCT 3040                                          01 
01050050008000008REP       US Senator                                              Bruce Jacobson, Jr.                   PRECINCT 3060                                          01 
01050050009000023REP       US Senator                                              Bruce Jacobson, Jr.                   PRECINCT 4050                                          01 
01050050010000002REP       US Senator                                              Bruce Jacobson, Jr.                   PRECINCT 4070                                          01 
01050050011000023REP       US Senator                                              Bruce Jacobson, Jr.                   PRECINCT 4100                                          01 
01050060001000000REP       US Senator                                              OVER VOTES                            PRECINCT 1010                                          01 
01050060002000000REP       US Senator                                              OVER VOTES                            PRECINCT 1110                                          01 
01050060003000000REP       US Senator                                              OVER VOTES                            PRECINCT 2020                                          01 
01050060004000000REP       US Senator                                              OVER VOTES                            PRECINCT 2080                                          01 
01050060005000000REP       US Senator                                              OVER VOTES                            PRECINCT 2120                                          01 
01050060006000000REP       US Senator                                              OVER VOTES                            PRECINCT 3030                                          01 
01050060007000000REP       US Senator                                              OVER VOTES                            PRECINCT 3040                                          01 
01050060008000000REP       US Senator                                              OVER VOTES                            PRECINCT 3060                                          01 
01050060009000000REP       US Senator                                              OVER VOTES                            PRECINCT 4050                                          01 
01050060010000000REP       US Senator                                              OVER VOTES                            PRECINCT 4070                                          01 
01050060011000000REP       US Senator                                              OVER VOTES                            PRECINCT 4100                                          01 
01050070001000043REP       US Senator                                              UNDER VOTES                           PRECINCT 1010                                          01 
01050070002000032REP       US Senator                                              UNDER VOTES                           PRECINCT 1110                                          01 
01050070003000011REP       US Senator                                              UNDER VOTES                           PRECINCT 2020                                          01 
01050070004000017REP       US Senator                                              UNDER VOTES                           PRECINCT 2080                                          01 
01050070005000028REP       US Senator                                              UNDER VOTES                           PRECINCT 2120                                          01 
01050070006000017REP       US Senator                                              UNDER VOTES                           PRECINCT 3030                                          01 
01050070007000052REP       US Senator                                              UNDER VOTES                           PRECINCT 3040                                          01 
01050070008000004REP       US Senator                                              UNDER VOTES                           PRECINCT 3060                                          01 
01050070009000008REP       US Senator                                              UNDER VOTES                           PRECINCT 4050                                          01 
01050070010000001REP       US Senator                                              UNDER VOTES                           PRECINCT 4070                                          01 
01050070011000030REP       US Senator                                              UNDER VOTES                           PRECINCT 4100                                          01 
01060010001000009REP       US Representative, District 21                          Samuel Temple                         PRECINCT 1010                                          01 
01060010002000013REP       US Representative, District 21                          Samuel Temple                         PRECINCT 1110                                          01 
01060010003000010REP       US Representative, District 21                          Samuel Temple                         PRECINCT 2020                                          01 
01060010004000010REP       US Representative, District 21                          Samuel Temple                         PRECINCT 2080                                          01 
01060010005000017REP       US Representative, District 21                          Samuel Temple                         PRECINCT 2120                                          01 
01060010006000014REP       US Representative, District 21                          Samuel Temple                         PRECINCT 3030                                          01 
01060010007000014REP       US Representative, District 21                          Samuel Temple                         PRECINCT 3040                                          01 
01060010008000004REP       US Representative, District 21                          Samuel Temple                         PRECINCT 3060                                          01 
01060010009000014REP       US Representative, District 21                          Samuel Temple                         PRECINCT 4050                                          01 
01060010010000000REP       US Representative, District 21                          Samuel Temple                         PRECINCT 4070                                          01 
01060010011000014REP       US Representative, District 21                          Samuel Temple                         PRECINCT 4100                                          01 
01060020001000057REP       US Representative, District 21                          Jason Isaac                           PRECINCT 1010                                          01 
01060020002000099REP       US Representative, District 21                          Jason Isaac                           PRECINCT 1110                                          01 
01060020003000030REP       US Representative, District 21                          Jason Isaac                           PRECINCT 2020                                          01 
01060020004000065REP       US Representative, District 21                          Jason Isaac                           PRECINCT 2080                                          01 
01060020005000085REP       US Representative, District 21                          Jason Isaac                           PRECINCT 2120                                          01 
01060020006000070REP       US Representative, District 21                          Jason Isaac                           PRECINCT 3030                                          01 
01060020007000107REP       US Representative, District 21                          Jason Isaac                           PRECINCT 3040                                          01 
01060020008000014REP       US Representative, District 21                          Jason Isaac                           PRECINCT 3060                                          01 
01060020009000050REP       US Representative, District 21                          Jason Isaac                           PRECINCT 4050                                          01 
01060020010000004REP       US Representative, District 21                          Jason Isaac                           PRECINCT 4070                                          01 
01060020011000069REP       US Representative, District 21                          Jason Isaac                           PRECINCT 4100                                          01 
01060030001000022REP       US Representative, District 21                          Jenifer Sarver                        PRECINCT 1010                                          01 
01060030002000041REP       US Representative, District 21                          Jenifer Sarver                        PRECINCT 1110                                          01 
01060030003000024REP       US Representative, District 21                          Jenifer Sarver                        PRECINCT 2020                                          01 
01060030004000028REP       US Representative, District 21                          Jenifer Sarver                        PRECINCT 2080                                          01 
01060030005000027REP       US Representative, District 21                          Jenifer Sarver                        PRECINCT 2120                                          01 
01060030006000011REP       US Representative, District 21                          Jenifer Sarver                        PRECINCT 3030                                          01 
01060030007000031REP       US Representative, District 21                          Jenifer Sarver                        PRECINCT 3040                                          01 
01060030008000007REP       US Representative, District 21                          Jenifer Sarver                        PRECINCT 3060                                          01 
01060030009000024REP       US Representative, District 21                          Jenifer Sarver                        PRECINCT 4050                                          01 
01060030010000001REP       US Representative, District 21                          Jenifer Sarver                        PRECINCT 4070                                          01 
01060030011000024REP       US Representative, District 21                          Jenifer Sarver                        PRECINCT 4100                                          01 
01060040001000015REP       US Representative, District 21                          Ryan Krause                           PRECINCT 1010                                          01 
01060040002000019REP       US Representative, District 21                          Ryan Krause                           PRECINCT 1110                                          01 
01060040003000006REP       US Representative, District 21                          Ryan Krause                           PRECINCT 2020                                          01 
01060040004000018REP       US Representative, District 21                          Ryan Krause                           PRECINCT 2080                                          01 
01060040005000016REP       US Representative, District 21                          Ryan Krause                           PRECINCT 2120                                          01 
01060040006000012REP       US Representative, District 21                          Ryan Krause                           PRECINCT 3030                                          01 
01060040007000022REP       US Representative, District 21                          Ryan Krause                           PRECINCT 3040                                          01 
01060040008000005REP       US Representative, District 21                          Ryan Krause                           PRECINCT 3060                                          01 
01060040009000009REP       US Representative, District 21                          Ryan Krause                           PRECINCT 4050                                          01 
01060040010000004REP       US Representative, District 21                          Ryan Krause                           PRECINCT 4070                                          01 
01060040011000018REP       US Representative, District 21                          Ryan Krause                           PRECINCT 4100                                          01 
01060050001000171REP       US Representative, District 21                          Matt McCall                           PRECINCT 1010                                          01 
01060050002000267REP       US Representative, District 21                          Matt McCall                           PRECINCT 1110                                          01 
01060050003000192REP       US Representative, District 21                          Matt McCall                           PRECINCT 2020                                          01 
01060050004000189REP       US Representative, District 21                          Matt McCall                           PRECINCT 2080                                          01 
01060050005000271REP       US Representative, District 21                          Matt McCall                           PRECINCT 2120                                          01 
01060050006000153REP       US Representative, District 21                          Matt McCall                           PRECINCT 3030                                          01 
01060050007000330REP       US Representative, District 21                          Matt McCall                           PRECINCT 3040                                          01 
01060050008000055REP       US Representative, District 21                          Matt McCall                           PRECINCT 3060                                          01 
01060050009000192REP       US Representative, District 21                          Matt McCall                           PRECINCT 4050                                          01 
01060050010000035REP       US Representative, District 21                          Matt McCall                           PRECINCT 4070                                          01 
01060050011000268REP       US Representative, District 21                          Matt McCall                           PRECINCT 4100                                          01 
01060060001000011REP       US Representative, District 21                          Francisco "Quico" Canseco             PRECINCT 1010                                          01 
01060060002000030REP       US Representative, District 21                          Francisco "Quico" Canseco             PRECINCT 1110                                          01 
01060060003000015REP       US Representative, District 21                          Francisco "Quico" Canseco             PRECINCT 2020                                          01 
01060060004000027REP       US Representative, District 21                          Francisco "Quico" Canseco             PRECINCT 2080                                          01 
01060060005000021REP       US Representative, District 21                          Francisco "Quico" Canseco             PRECINCT 2120                                          01 
01060060006000014REP       US Representative, District 21                          Francisco "Quico" Canseco             PRECINCT 3030                                          01 
01060060007000024REP       US Representative, District 21                          Francisco "Quico" Canseco             PRECINCT 3040                                          01 
01060060008000004REP       US Representative, District 21                          Francisco "Quico" Canseco             PRECINCT 3060                                          01 
01060060009000009REP       US Representative, District 21                          Francisco "Quico" Canseco             PRECINCT 4050                                          01 
01060060010000001REP       US Representative, District 21                          Francisco "Quico" Canseco             PRECINCT 4070                                          01 
01060060011000022REP       US Representative, District 21                          Francisco "Quico" Canseco             PRECINCT 4100                                          01 
01060070001000001REP       US Representative, District 21                          Foster Hagen                          PRECINCT 1010                                          01 
01060070002000001REP       US Representative, District 21                          Foster Hagen                          PRECINCT 1110                                          01 
01060070003000003REP       US Representative, District 21                          Foster Hagen                          PRECINCT 2020                                          01 
01060070004000003REP       US Representative, District 21                          Foster Hagen                          PRECINCT 2080                                          01 
01060070005000001REP       US Representative, District 21                          Foster Hagen                          PRECINCT 2120                                          01 
01060070006000001REP       US Representative, District 21                          Foster Hagen                          PRECINCT 3030                                          01 
01060070007000004REP       US Representative, District 21                          Foster Hagen                          PRECINCT 3040                                          01 
01060070008000000REP       US Representative, District 21                          Foster Hagen                          PRECINCT 3060                                          01 
01060070009000003REP       US Representative, District 21                          Foster Hagen                          PRECINCT 4050                                          01 
01060070010000000REP       US Representative, District 21                          Foster Hagen                          PRECINCT 4070                                          01 
01060070011000000REP       US Representative, District 21                          Foster Hagen                          PRECINCT 4100                                          01 
01060080001000003REP       US Representative, District 21                          Mauro Garza                           PRECINCT 1010                                          01 
01060080002000009REP       US Representative, District 21                          Mauro Garza                           PRECINCT 1110                                          01 
01060080003000003REP       US Representative, District 21                          Mauro Garza                           PRECINCT 2020                                          01 
01060080004000003REP       US Representative, District 21                          Mauro Garza                           PRECINCT 2080                                          01 
01060080005000008REP       US Representative, District 21                          Mauro Garza                           PRECINCT 2120                                          01 
01060080006000001REP       US Representative, District 21                          Mauro Garza                           PRECINCT 3030                                          01 
01060080007000006REP       US Representative, District 21                          Mauro Garza                           PRECINCT 3040                                          01 
01060080008000000REP       US Representative, District 21                          Mauro Garza                           PRECINCT 3060                                          01 
01060080009000003REP       US Representative, District 21                          Mauro Garza                           PRECINCT 4050                                          01 
01060080010000000REP       US Representative, District 21                          Mauro Garza                           PRECINCT 4070                                          01 
01060080011000004REP       US Representative, District 21                          Mauro Garza                           PRECINCT 4100                                          01 
01060090001000012REP       US Representative, District 21                          Peggy Wardlaw                         PRECINCT 1010                                          01 
01060090002000030REP       US Representative, District 21                          Peggy Wardlaw                         PRECINCT 1110                                          01 
01060090003000007REP       US Representative, District 21                          Peggy Wardlaw                         PRECINCT 2020                                          01 
01060090004000007REP       US Representative, District 21                          Peggy Wardlaw                         PRECINCT 2080                                          01 
01060090005000020REP       US Representative, District 21                          Peggy Wardlaw                         PRECINCT 2120                                          01 
01060090006000004REP       US Representative, District 21                          Peggy Wardlaw                         PRECINCT 3030                                          01 
01060090007000014REP       US Representative, District 21                          Peggy Wardlaw                         PRECINCT 3040                                          01 
01060090008000000REP       US Representative, District 21                          Peggy Wardlaw                         PRECINCT 3060                                          01 
01060090009000013REP       US Representative, District 21                          Peggy Wardlaw                         PRECINCT 4050                                          01 
01060090010000004REP       US Representative, District 21                          Peggy Wardlaw                         PRECINCT 4070                                          01 
01060090011000015REP       US Representative, District 21                          Peggy Wardlaw                         PRECINCT 4100                                          01 
01060100001000001REP       US Representative, District 21                          Ivan Andarza                          PRECINCT 1010                                          01 
01060100002000001REP       US Representative, District 21                          Ivan Andarza                          PRECINCT 1110                                          01 
01060100003000000REP       US Representative, District 21                          Ivan Andarza                          PRECINCT 2020                                          01 
01060100004000001REP       US Representative, District 21                          Ivan Andarza                          PRECINCT 2080                                          01 
01060100005000002REP       US Representative, District 21                          Ivan Andarza                          PRECINCT 2120                                          01 
01060100006000001REP       US Representative, District 21                          Ivan Andarza                          PRECINCT 3030                                          01 
01060100007000000REP       US Representative, District 21                          Ivan Andarza                          PRECINCT 3040                                          01 
01060100008000000REP       US Representative, District 21                          Ivan Andarza                          PRECINCT 3060                                          01 
01060100009000000REP       US Representative, District 21                          Ivan Andarza                          PRECINCT 4050                                          01 
01060100010000000REP       US Representative, District 21                          Ivan Andarza                          PRECINCT 4070                                          01 
01060100011000000REP       US Representative, District 21                          Ivan Andarza                          PRECINCT 4100                                          01 
01060110001000122REP       US Representative, District 21                          Chip Roy                              PRECINCT 1010                                          01 
01060110002000259REP       US Representative, District 21                          Chip Roy                              PRECINCT 1110                                          01 
01060110003000126REP       US Representative, District 21                          Chip Roy                              PRECINCT 2020                                          01 
01060110004000179REP       US Representative, District 21                          Chip Roy                              PRECINCT 2080                                          01 
01060110005000186REP       US Representative, District 21                          Chip Roy                              PRECINCT 2120                                          01 
01060110006000153REP       US Representative, District 21                          Chip Roy                              PRECINCT 3030                                          01 
01060110007000188REP       US Representative, District 21                          Chip Roy                              PRECINCT 3040                                          01 
01060110008000022REP       US Representative, District 21                          Chip Roy                              PRECINCT 3060                                          01 
01060110009000129REP       US Representative, District 21                          Chip Roy                              PRECINCT 4050                                          01 
01060110010000020REP       US Representative, District 21                          Chip Roy                              PRECINCT 4070                                          01 
01060110011000183REP       US Representative, District 21                          Chip Roy                              PRECINCT 4100                                          01 
01060120001000004REP       US Representative, District 21                          Anthony J. White                      PRECINCT 1010                                          01 
01060120002000006REP       US Representative, District 21                          Anthony J. White                      PRECINCT 1110                                          01 
01060120003000005REP       US Representative, District 21                          Anthony J. White                      PRECINCT 2020                                          01 
01060120004000017REP       US Representative, District 21                          Anthony J. White                      PRECINCT 2080                                          01 
01060120005000019REP       US Representative, District 21                          Anthony J. White                      PRECINCT 2120                                          01 
01060120006000007REP       US Representative, District 21                          Anthony J. White                      PRECINCT 3030                                          01 
01060120007000012REP       US Representative, District 21                          Anthony J. White                      PRECINCT 3040                                          01 
01060120008000002REP       US Representative, District 21                          Anthony J. White                      PRECINCT 3060                                          01 
01060120009000004REP       US Representative, District 21                          Anthony J. White                      PRECINCT 4050                                          01 
01060120010000000REP       US Representative, District 21                          Anthony J. White                      PRECINCT 4070                                          01 
01060120011000012REP       US Representative, District 21                          Anthony J. White                      PRECINCT 4100                                          01 
01060130001000007REP       US Representative, District 21                          Eric Burkhart                         PRECINCT 1010                                          01 
01060130002000021REP       US Representative, District 21                          Eric Burkhart                         PRECINCT 1110                                          01 
01060130003000006REP       US Representative, District 21                          Eric Burkhart                         PRECINCT 2020                                          01 
01060130004000013REP       US Representative, District 21                          Eric Burkhart                         PRECINCT 2080                                          01 
01060130005000019REP       US Representative, District 21                          Eric Burkhart                         PRECINCT 2120                                          01 
01060130006000010REP       US Representative, District 21                          Eric Burkhart                         PRECINCT 3030                                          01 
01060130007000012REP       US Representative, District 21                          Eric Burkhart                         PRECINCT 3040                                          01 
01060130008000002REP       US Representative, District 21                          Eric Burkhart                         PRECINCT 3060                                          01 
01060130009000013REP       US Representative, District 21                          Eric Burkhart                         PRECINCT 4050                                          01 
01060130010000000REP       US Representative, District 21                          Eric Burkhart                         PRECINCT 4070                                          01 
01060130011000012REP       US Representative, District 21                          Eric Burkhart                         PRECINCT 4100                                          01 
01060140001000007REP       US Representative, District 21                          Al M. Poteet                          PRECINCT 1010                                          01 
01060140002000013REP       US Representative, District 21                          Al M. Poteet                          PRECINCT 1110                                          01 
01060140003000010REP       US Representative, District 21                          Al M. Poteet                          PRECINCT 2020                                          01 
01060140004000017REP       US Representative, District 21                          Al M. Poteet                          PRECINCT 2080                                          01 
01060140005000019REP       US Representative, District 21                          Al M. Poteet                          PRECINCT 2120                                          01 
01060140006000006REP       US Representative, District 21                          Al M. Poteet                          PRECINCT 3030                                          01 
01060140007000010REP       US Representative, District 21                          Al M. Poteet                          PRECINCT 3040                                          01 
01060140008000005REP       US Representative, District 21                          Al M. Poteet                          PRECINCT 3060                                          01 
01060140009000016REP       US Representative, District 21                          Al M. Poteet                          PRECINCT 4050                                          01 
01060140010000003REP       US Representative, District 21                          Al M. Poteet                          PRECINCT 4070                                          01 
01060140011000025REP       US Representative, District 21                          Al M. Poteet                          PRECINCT 4100                                          01 
01060150001000025REP       US Representative, District 21                          Robert Stovall                        PRECINCT 1010                                          01 
01060150002000036REP       US Representative, District 21                          Robert Stovall                        PRECINCT 1110                                          01 
01060150003000023REP       US Representative, District 21                          Robert Stovall                        PRECINCT 2020                                          01 
01060150004000031REP       US Representative, District 21                          Robert Stovall                        PRECINCT 2080                                          01 
01060150005000032REP       US Representative, District 21                          Robert Stovall                        PRECINCT 2120                                          01 
01060150006000019REP       US Representative, District 21                          Robert Stovall                        PRECINCT 3030                                          01 
01060150007000035REP       US Representative, District 21                          Robert Stovall                        PRECINCT 3040                                          01 
01060150008000005REP       US Representative, District 21                          Robert Stovall                        PRECINCT 3060                                          01 
01060150009000021REP       US Representative, District 21                          Robert Stovall                        PRECINCT 4050                                          01 
01060150010000000REP       US Representative, District 21                          Robert Stovall                        PRECINCT 4070                                          01 
01060150011000028REP       US Representative, District 21                          Robert Stovall                        PRECINCT 4100                                          01 
01060160001000001REP       US Representative, District 21                          Autry J. Pruitt                       PRECINCT 1010                                          01 
01060160002000004REP       US Representative, District 21                          Autry J. Pruitt                       PRECINCT 1110                                          01 
01060160003000002REP       US Representative, District 21                          Autry J. Pruitt                       PRECINCT 2020                                          01 
01060160004000001REP       US Representative, District 21                          Autry J. Pruitt                       PRECINCT 2080                                          01 
01060160005000005REP       US Representative, District 21                          Autry J. Pruitt                       PRECINCT 2120                                          01 
01060160006000002REP       US Representative, District 21                          Autry J. Pruitt                       PRECINCT 3030                                          01 
01060160007000004REP       US Representative, District 21                          Autry J. Pruitt                       PRECINCT 3040                                          01 
01060160008000001REP       US Representative, District 21                          Autry J. Pruitt                       PRECINCT 3060                                          01 
01060160009000003REP       US Representative, District 21                          Autry J. Pruitt                       PRECINCT 4050                                          01 
01060160010000002REP       US Representative, District 21                          Autry J. Pruitt                       PRECINCT 4070                                          01 
01060160011000003REP       US Representative, District 21                          Autry J. Pruitt                       PRECINCT 4100                                          01 
01060170001000015REP       US Representative, District 21                          Susan Narvaiz                         PRECINCT 1010                                          01 
01060170002000007REP       US Representative, District 21                          Susan Narvaiz                         PRECINCT 1110                                          01 
01060170003000012REP       US Representative, District 21                          Susan Narvaiz                         PRECINCT 2020                                          01 
01060170004000010REP       US Representative, District 21                          Susan Narvaiz                         PRECINCT 2080                                          01 
01060170005000016REP       US Representative, District 21                          Susan Narvaiz                         PRECINCT 2120                                          01 
01060170006000016REP       US Representative, District 21                          Susan Narvaiz                         PRECINCT 3030                                          01 
01060170007000020REP       US Representative, District 21                          Susan Narvaiz                         PRECINCT 3040                                          01 
01060170008000002REP       US Representative, District 21                          Susan Narvaiz                         PRECINCT 3060                                          01 
01060170009000011REP       US Representative, District 21                          Susan Narvaiz                         PRECINCT 4050                                          01 
01060170010000002REP       US Representative, District 21                          Susan Narvaiz                         PRECINCT 4070                                          01 
01060170011000018REP       US Representative, District 21                          Susan Narvaiz                         PRECINCT 4100                                          01 
01060180001000057REP       US Representative, District 21                          William Negley                        PRECINCT 1010                                          01 
01060180002000129REP       US Representative, District 21                          William Negley                        PRECINCT 1110                                          01 
01060180003000089REP       US Representative, District 21                          William Negley                        PRECINCT 2020                                          01 
01060180004000073REP       US Representative, District 21                          William Negley                        PRECINCT 2080                                          01 
01060180005000070REP       US Representative, District 21                          William Negley                        PRECINCT 2120                                          01 
01060180006000065REP       US Representative, District 21                          William Negley                        PRECINCT 3030                                          01 
01060180007000100REP       US Representative, District 21                          William Negley                        PRECINCT 3040                                          01 
01060180008000023REP       US Representative, District 21                          William Negley                        PRECINCT 3060                                          01 
01060180009000053REP       US Representative, District 21                          William Negley                        PRECINCT 4050                                          01 
01060180010000010REP       US Representative, District 21                          William Negley                        PRECINCT 4070                                          01 
01060180011000070REP       US Representative, District 21                          William Negley                        PRECINCT 4100                                          01 
01060190001000000REP       US Representative, District 21                          OVER VOTES                            PRECINCT 1010                                          01 
01060190002000000REP       US Representative, District 21                          OVER VOTES                            PRECINCT 1110                                          01 
01060190003000000REP       US Representative, District 21                          OVER VOTES                            PRECINCT 2020                                          01 
01060190004000000REP       US Representative, District 21                          OVER VOTES                            PRECINCT 2080                                          01 
01060190005000000REP       US Representative, District 21                          OVER VOTES                            PRECINCT 2120                                          01 
01060190006000000REP       US Representative, District 21                          OVER VOTES                            PRECINCT 3030                                          01 
01060190007000000REP       US Representative, District 21                          OVER VOTES                            PRECINCT 3040                                          01 
01060190008000000REP       US Representative, District 21                          OVER VOTES                            PRECINCT 3060                                          01 
01060190009000000REP       US Representative, District 21                          OVER VOTES                            PRECINCT 4050                                          01 
01060190010000000REP       US Representative, District 21                          OVER VOTES                            PRECINCT 4070                                          01 
01060190011000000REP       US Representative, District 21                          OVER VOTES                            PRECINCT 4100                                          01 
01060200001000060REP       US Representative, District 21                          UNDER VOTES                           PRECINCT 1010                                          01 
01060200002000095REP       US Representative, District 21                          UNDER VOTES                           PRECINCT 1110                                          01 
01060200003000038REP       US Representative, District 21                          UNDER VOTES                           PRECINCT 2020                                          01 
01060200004000068REP       US Representative, District 21                          UNDER VOTES                           PRECINCT 2080                                          01 
01060200005000088REP       US Representative, District 21                          UNDER VOTES                           PRECINCT 2120                                          01 
01060200006000039REP       US Representative, District 21                          UNDER VOTES                           PRECINCT 3030                                          01 
01060200007000085REP       US Representative, District 21                          UNDER VOTES                           PRECINCT 3040                                          01 
01060200008000016REP       US Representative, District 21                          UNDER VOTES                           PRECINCT 3060                                          01 
01060200009000038REP       US Representative, District 21                          UNDER VOTES                           PRECINCT 4050                                          01 
01060200010000008REP       US Representative, District 21                          UNDER VOTES                           PRECINCT 4070                                          01 
01060200011000064REP       US Representative, District 21                          UNDER VOTES                           PRECINCT 4100                                          01 
01070010001000012REP       Governor                                                SECEDE Kilgore                        PRECINCT 1010                                          01 
01070010002000013REP       Governor                                                SECEDE Kilgore                        PRECINCT 1110                                          01 
01070010003000003REP       Governor                                                SECEDE Kilgore                        PRECINCT 2020                                          01 
01070010004000011REP       Governor                                                SECEDE Kilgore                        PRECINCT 2080                                          01 
01070010005000017REP       Governor                                                SECEDE Kilgore                        PRECINCT 2120                                          01 
01070010006000009REP       Governor                                                SECEDE Kilgore                        PRECINCT 3030                                          01 
01070010007000017REP       Governor                                                SECEDE Kilgore                        PRECINCT 3040                                          01 
01070010008000001REP       Governor                                                SECEDE Kilgore                        PRECINCT 3060                                          01 
01070010009000015REP       Governor                                                SECEDE Kilgore                        PRECINCT 4050                                          01 
01070010010000001REP       Governor                                                SECEDE Kilgore                        PRECINCT 4070                                          01 
01070010011000012REP       Governor                                                SECEDE Kilgore                        PRECINCT 4100                                          01 
01070020001000051REP       Governor                                                Barbara Krueger                       PRECINCT 1010                                          01 
01070020002000090REP       Governor                                                Barbara Krueger                       PRECINCT 1110                                          01 
01070020003000032REP       Governor                                                Barbara Krueger                       PRECINCT 2020                                          01 
01070020004000048REP       Governor                                                Barbara Krueger                       PRECINCT 2080                                          01 
01070020005000074REP       Governor                                                Barbara Krueger                       PRECINCT 2120                                          01 
01070020006000026REP       Governor                                                Barbara Krueger                       PRECINCT 3030                                          01 
01070020007000086REP       Governor                                                Barbara Krueger                       PRECINCT 3040                                          01 
01070020008000010REP       Governor                                                Barbara Krueger                       PRECINCT 3060                                          01 
01070020009000049REP       Governor                                                Barbara Krueger                       PRECINCT 4050                                          01 
01070020010000008REP       Governor                                                Barbara Krueger                       PRECINCT 4070                                          01 
01070020011000064REP       Governor                                                Barbara Krueger                       PRECINCT 4100                                          01 
01070030001000497REP       Governor                                                Greg Abbott                           PRECINCT 1010                                          01 
01070030002000923REP       Governor                                                Greg Abbott                           PRECINCT 1110                                          01 
01070030003000545REP       Governor                                                Greg Abbott                           PRECINCT 2020                                          01 
01070030004000668REP       Governor                                                Greg Abbott                           PRECINCT 2080                                          01 
01070030005000784REP       Governor                                                Greg Abbott                           PRECINCT 2120                                          01 
01070030006000536REP       Governor                                                Greg Abbott                           PRECINCT 3030                                          01 
01070030007000846REP       Governor                                                Greg Abbott                           PRECINCT 3040                                          01 
01070030008000151REP       Governor                                                Greg Abbott                           PRECINCT 3060                                          01 
01070030009000510REP       Governor                                                Greg Abbott                           PRECINCT 4050                                          01 
01070030010000083REP       Governor                                                Greg Abbott                           PRECINCT 4070                                          01 
01070030011000714REP       Governor                                                Greg Abbott                           PRECINCT 4100                                          01 
01070040001000000REP       Governor                                                OVER VOTES                            PRECINCT 1010                                          01 
01070040002000000REP       Governor                                                OVER VOTES                            PRECINCT 1110                                          01 
01070040003000000REP       Governor                                                OVER VOTES                            PRECINCT 2020                                          01 
01070040004000000REP       Governor                                                OVER VOTES                            PRECINCT 2080                                          01 
01070040005000000REP       Governor                                                OVER VOTES                            PRECINCT 2120                                          01 
01070040006000000REP       Governor                                                OVER VOTES                            PRECINCT 3030                                          01 
01070040007000000REP       Governor                                                OVER VOTES                            PRECINCT 3040                                          01 
01070040008000000REP       Governor                                                OVER VOTES                            PRECINCT 3060                                          01 
01070040009000000REP       Governor                                                OVER VOTES                            PRECINCT 4050                                          01 
01070040010000000REP       Governor                                                OVER VOTES                            PRECINCT 4070                                          01 
01070040011000000REP       Governor                                                OVER VOTES                            PRECINCT 4100                                          01 
01070050001000040REP       Governor                                                UNDER VOTES                           PRECINCT 1010                                          01 
01070050002000054REP       Governor                                                UNDER VOTES                           PRECINCT 1110                                          01 
01070050003000021REP       Governor                                                UNDER VOTES                           PRECINCT 2020                                          01 
01070050004000033REP       Governor                                                UNDER VOTES                           PRECINCT 2080                                          01 
01070050005000047REP       Governor                                                UNDER VOTES                           PRECINCT 2120                                          01 
01070050006000027REP       Governor                                                UNDER VOTES                           PRECINCT 3030                                          01 
01070050007000069REP       Governor                                                UNDER VOTES                           PRECINCT 3040                                          01 
01070050008000005REP       Governor                                                UNDER VOTES                           PRECINCT 3060                                          01 
01070050009000031REP       Governor                                                UNDER VOTES                           PRECINCT 4050                                          01 
01070050010000002REP       Governor                                                UNDER VOTES                           PRECINCT 4070                                          01 
01070050011000059REP       Governor                                                UNDER VOTES                           PRECINCT 4100                                          01 
01080010001000441REP       Lieutenant Governor                                     Dan Patrick                           PRECINCT 1010                                          01 
01080010002000797REP       Lieutenant Governor                                     Dan Patrick                           PRECINCT 1110                                          01 
01080010003000482REP       Lieutenant Governor                                     Dan Patrick                           PRECINCT 2020                                          01 
01080010004000605REP       Lieutenant Governor                                     Dan Patrick                           PRECINCT 2080                                          01 
01080010005000669REP       Lieutenant Governor                                     Dan Patrick                           PRECINCT 2120                                          01 
01080010006000484REP       Lieutenant Governor                                     Dan Patrick                           PRECINCT 3030                                          01 
01080010007000783REP       Lieutenant Governor                                     Dan Patrick                           PRECINCT 3040                                          01 
01080010008000127REP       Lieutenant Governor                                     Dan Patrick                           PRECINCT 3060                                          01 
01080010009000452REP       Lieutenant Governor                                     Dan Patrick                           PRECINCT 4050                                          01 
01080010010000076REP       Lieutenant Governor                                     Dan Patrick                           PRECINCT 4070                                          01 
01080010011000626REP       Lieutenant Governor                                     Dan Patrick                           PRECINCT 4100                                          01 
01080020001000105REP       Lieutenant Governor                                     Scott Milder                          PRECINCT 1010                                          01 
01080020002000198REP       Lieutenant Governor                                     Scott Milder                          PRECINCT 1110                                          01 
01080020003000083REP       Lieutenant Governor                                     Scott Milder                          PRECINCT 2020                                          01 
01080020004000106REP       Lieutenant Governor                                     Scott Milder                          PRECINCT 2080                                          01 
01080020005000177REP       Lieutenant Governor                                     Scott Milder                          PRECINCT 2120                                          01 
01080020006000073REP       Lieutenant Governor                                     Scott Milder                          PRECINCT 3030                                          01 
01080020007000149REP       Lieutenant Governor                                     Scott Milder                          PRECINCT 3040                                          01 
01080020008000027REP       Lieutenant Governor                                     Scott Milder                          PRECINCT 3060                                          01 
01080020009000115REP       Lieutenant Governor                                     Scott Milder                          PRECINCT 4050                                          01 
01080020010000014REP       Lieutenant Governor                                     Scott Milder                          PRECINCT 4070                                          01 
01080020011000146REP       Lieutenant Governor                                     Scott Milder                          PRECINCT 4100                                          01 
01080030001000000REP       Lieutenant Governor                                     OVER VOTES                            PRECINCT 1010                                          01 
01080030002000000REP       Lieutenant Governor                                     OVER VOTES                            PRECINCT 1110                                          01 
01080030003000000REP       Lieutenant Governor                                     OVER VOTES                            PRECINCT 2020                                          01 
01080030004000000REP       Lieutenant Governor                                     OVER VOTES                            PRECINCT 2080                                          01 
01080030005000000REP       Lieutenant Governor                                     OVER VOTES                            PRECINCT 2120                                          01 
01080030006000000REP       Lieutenant Governor                                     OVER VOTES                            PRECINCT 3030                                          01 
01080030007000000REP       Lieutenant Governor                                     OVER VOTES                            PRECINCT 3040                                          01 
01080030008000000REP       Lieutenant Governor                                     OVER VOTES                            PRECINCT 3060                                          01 
01080030009000000REP       Lieutenant Governor                                     OVER VOTES                            PRECINCT 4050                                          01 
01080030010000000REP       Lieutenant Governor                                     OVER VOTES                            PRECINCT 4070                                          01 
01080030011000000REP       Lieutenant Governor                                     OVER VOTES                            PRECINCT 4100                                          01 
01080040001000054REP       Lieutenant Governor                                     UNDER VOTES                           PRECINCT 1010                                          01 
01080040002000085REP       Lieutenant Governor                                     UNDER VOTES                           PRECINCT 1110                                          01 
01080040003000036REP       Lieutenant Governor                                     UNDER VOTES                           PRECINCT 2020                                          01 
01080040004000049REP       Lieutenant Governor                                     UNDER VOTES                           PRECINCT 2080                                          01 
01080040005000076REP       Lieutenant Governor                                     UNDER VOTES                           PRECINCT 2120                                          01 
01080040006000041REP       Lieutenant Governor                                     UNDER VOTES                           PRECINCT 3030                                          01 
01080040007000086REP       Lieutenant Governor                                     UNDER VOTES                           PRECINCT 3040                                          01 
01080040008000013REP       Lieutenant Governor                                     UNDER VOTES                           PRECINCT 3060                                          01 
01080040009000038REP       Lieutenant Governor                                     UNDER VOTES                           PRECINCT 4050                                          01 
01080040010000004REP       Lieutenant Governor                                     UNDER VOTES                           PRECINCT 4070                                          01 
01080040011000077REP       Lieutenant Governor                                     UNDER VOTES                           PRECINCT 4100                                          01 
01090010001000472REP       Attorney General                                        Ken Paxton                            PRECINCT 1010                                          01 
01090010002000869REP       Attorney General                                        Ken Paxton                            PRECINCT 1110                                          01 
01090010003000503REP       Attorney General                                        Ken Paxton                            PRECINCT 2020                                          01 
01090010004000645REP       Attorney General                                        Ken Paxton                            PRECINCT 2080                                          01 
01090010005000740REP       Attorney General                                        Ken Paxton                            PRECINCT 2120                                          01 
01090010006000496REP       Attorney General                                        Ken Paxton                            PRECINCT 3030                                          01 
01090010007000820REP       Attorney General                                        Ken Paxton                            PRECINCT 3040                                          01 
01090010008000135REP       Attorney General                                        Ken Paxton                            PRECINCT 3060                                          01 
01090010009000503REP       Attorney General                                        Ken Paxton                            PRECINCT 4050                                          01 
01090010010000079REP       Attorney General                                        Ken Paxton                            PRECINCT 4070                                          01 
01090010011000669REP       Attorney General                                        Ken Paxton                            PRECINCT 4100                                          01 
01090020001000000REP       Attorney General                                        OVER VOTES                            PRECINCT 1010                                          01 
01090020002000000REP       Attorney General                                        OVER VOTES                            PRECINCT 1110                                          01 
01090020003000000REP       Attorney General                                        OVER VOTES                            PRECINCT 2020                                          01 
01090020004000000REP       Attorney General                                        OVER VOTES                            PRECINCT 2080                                          01 
01090020005000000REP       Attorney General                                        OVER VOTES                            PRECINCT 2120                                          01 
01090020006000000REP       Attorney General                                        OVER VOTES                            PRECINCT 3030                                          01 
01090020007000000REP       Attorney General                                        OVER VOTES                            PRECINCT 3040                                          01 
01090020008000000REP       Attorney General                                        OVER VOTES                            PRECINCT 3060                                          01 
01090020009000000REP       Attorney General                                        OVER VOTES                            PRECINCT 4050                                          01 
01090020010000000REP       Attorney General                                        OVER VOTES                            PRECINCT 4070                                          01 
01090020011000000REP       Attorney General                                        OVER VOTES                            PRECINCT 4100                                          01 
01090030001000128REP       Attorney General                                        UNDER VOTES                           PRECINCT 1010                                          01 
01090030002000211REP       Attorney General                                        UNDER VOTES                           PRECINCT 1110                                          01 
01090030003000098REP       Attorney General                                        UNDER VOTES                           PRECINCT 2020                                          01 
01090030004000115REP       Attorney General                                        UNDER VOTES                           PRECINCT 2080                                          01 
01090030005000182REP       Attorney General                                        UNDER VOTES                           PRECINCT 2120                                          01 
01090030006000102REP       Attorney General                                        UNDER VOTES                           PRECINCT 3030                                          01 
01090030007000198REP       Attorney General                                        UNDER VOTES                           PRECINCT 3040                                          01 
01090030008000032REP       Attorney General                                        UNDER VOTES                           PRECINCT 3060                                          01 
01090030009000102REP       Attorney General                                        UNDER VOTES                           PRECINCT 4050                                          01 
01090030010000015REP       Attorney General                                        UNDER VOTES                           PRECINCT 4070                                          01 
01090030011000180REP       Attorney General                                        UNDER VOTES                           PRECINCT 4100                                          01 
01100010001000418REP       Comptroller of Public Accounts                          Glenn Hegar                           PRECINCT 1010                                          01 
01100010002000788REP       Comptroller of Public Accounts                          Glenn Hegar                           PRECINCT 1110                                          01 
01100010003000433REP       Comptroller of Public Accounts                          Glenn Hegar                           PRECINCT 2020                                          01 
01100010004000588REP       Comptroller of Public Accounts                          Glenn Hegar                           PRECINCT 2080                                          01 
01100010005000670REP       Comptroller of Public Accounts                          Glenn Hegar                           PRECINCT 2120                                          01 
01100010006000454REP       Comptroller of Public Accounts                          Glenn Hegar                           PRECINCT 3030                                          01 
01100010007000729REP       Comptroller of Public Accounts                          Glenn Hegar                           PRECINCT 3040                                          01 
01100010008000126REP       Comptroller of Public Accounts                          Glenn Hegar                           PRECINCT 3060                                          01 
01100010009000462REP       Comptroller of Public Accounts                          Glenn Hegar                           PRECINCT 4050                                          01 
01100010010000060REP       Comptroller of Public Accounts                          Glenn Hegar                           PRECINCT 4070                                          01 
01100010011000609REP       Comptroller of Public Accounts                          Glenn Hegar                           PRECINCT 4100                                          01 
01100020001000000REP       Comptroller of Public Accounts                          OVER VOTES                            PRECINCT 1010                                          01 
01100020002000000REP       Comptroller of Public Accounts                          OVER VOTES                            PRECINCT 1110                                          01 
01100020003000000REP       Comptroller of Public Accounts                          OVER VOTES                            PRECINCT 2020                                          01 
01100020004000000REP       Comptroller of Public Accounts                          OVER VOTES                            PRECINCT 2080                                          01 
01100020005000000REP       Comptroller of Public Accounts                          OVER VOTES                            PRECINCT 2120                                          01 
01100020006000000REP       Comptroller of Public Accounts                          OVER VOTES                            PRECINCT 3030                                          01 
01100020007000000REP       Comptroller of Public Accounts                          OVER VOTES                            PRECINCT 3040                                          01 
01100020008000000REP       Comptroller of Public Accounts                          OVER VOTES                            PRECINCT 3060                                          01 
01100020009000000REP       Comptroller of Public Accounts                          OVER VOTES                            PRECINCT 4050                                          01 
01100020010000000REP       Comptroller of Public Accounts                          OVER VOTES                            PRECINCT 4070                                          01 
01100020011000000REP       Comptroller of Public Accounts                          OVER VOTES                            PRECINCT 4100                                          01 
01100030001000182REP       Comptroller of Public Accounts                          UNDER VOTES                           PRECINCT 1010                                          01 
01100030002000292REP       Comptroller of Public Accounts                          UNDER VOTES                           PRECINCT 1110                                          01 
01100030003000168REP       Comptroller of Public Accounts                          UNDER VOTES                           PRECINCT 2020                                          01 
01100030004000172REP       Comptroller of Public Accounts                          UNDER VOTES                           PRECINCT 2080                                          01 
01100030005000252REP       Comptroller of Public Accounts                          UNDER VOTES                           PRECINCT 2120                                          01 
01100030006000144REP       Comptroller of Public Accounts                          UNDER VOTES                           PRECINCT 3030                                          01 
01100030007000289REP       Comptroller of Public Accounts                          UNDER VOTES                           PRECINCT 3040                                          01 
01100030008000041REP       Comptroller of Public Accounts                          UNDER VOTES                           PRECINCT 3060                                          01 
01100030009000143REP       Comptroller of Public Accounts                          UNDER VOTES                           PRECINCT 4050                                          01 
01100030010000034REP       Comptroller of Public Accounts                          UNDER VOTES                           PRECINCT 4070                                          01 
01100030011000240REP       Comptroller of Public Accounts                          UNDER VOTES                           PRECINCT 4100                                          01 
01110010001000330REP       Commissioner of the General Land Office                 George P. Bush                        PRECINCT 1010                                          01 
01110010002000653REP       Commissioner of the General Land Office                 George P. Bush                        PRECINCT 1110                                          01 
01110010003000385REP       Commissioner of the General Land Office                 George P. Bush                        PRECINCT 2020                                          01 
01110010004000454REP       Commissioner of the General Land Office                 George P. Bush                        PRECINCT 2080                                          01 
01110010005000538REP       Commissioner of the General Land Office                 George P. Bush                        PRECINCT 2120                                          01 
01110010006000315REP       Commissioner of the General Land Office                 George P. Bush                        PRECINCT 3030                                          01 
01110010007000572REP       Commissioner of the General Land Office                 George P. Bush                        PRECINCT 3040                                          01 
01110010008000082REP       Commissioner of the General Land Office                 George P. Bush                        PRECINCT 3060                                          01 
01110010009000339REP       Commissioner of the General Land Office                 George P. Bush                        PRECINCT 4050                                          01 
01110010010000044REP       Commissioner of the General Land Office                 George P. Bush                        PRECINCT 4070                                          01 
01110010011000417REP       Commissioner of the General Land Office                 George P. Bush                        PRECINCT 4100                                          01 
01110020001000030REP       Commissioner of the General Land Office                 Davey Edwards                         PRECINCT 1010                                          01 
01110020002000059REP       Commissioner of the General Land Office                 Davey Edwards                         PRECINCT 1110                                          01 
01110020003000033REP       Commissioner of the General Land Office                 Davey Edwards                         PRECINCT 2020                                          01 
01110020004000033REP       Commissioner of the General Land Office                 Davey Edwards                         PRECINCT 2080                                          01 
01110020005000061REP       Commissioner of the General Land Office                 Davey Edwards                         PRECINCT 2120                                          01 
01110020006000034REP       Commissioner of the General Land Office                 Davey Edwards                         PRECINCT 3030                                          01 
01110020007000061REP       Commissioner of the General Land Office                 Davey Edwards                         PRECINCT 3040                                          01 
01110020008000016REP       Commissioner of the General Land Office                 Davey Edwards                         PRECINCT 3060                                          01 
01110020009000032REP       Commissioner of the General Land Office                 Davey Edwards                         PRECINCT 4050                                          01 
01110020010000008REP       Commissioner of the General Land Office                 Davey Edwards                         PRECINCT 4070                                          01 
01110020011000059REP       Commissioner of the General Land Office                 Davey Edwards                         PRECINCT 4100                                          01 
01110030001000119REP       Commissioner of the General Land Office                 Jerry Patterson                       PRECINCT 1010                                          01 
01110030002000219REP       Commissioner of the General Land Office                 Jerry Patterson                       PRECINCT 1110                                          01 
01110030003000123REP       Commissioner of the General Land Office                 Jerry Patterson                       PRECINCT 2020                                          01 
01110030004000167REP       Commissioner of the General Land Office                 Jerry Patterson                       PRECINCT 2080                                          01 
01110030005000180REP       Commissioner of the General Land Office                 Jerry Patterson                       PRECINCT 2120                                          01 
01110030006000163REP       Commissioner of the General Land Office                 Jerry Patterson                       PRECINCT 3030                                          01 
01110030007000206REP       Commissioner of the General Land Office                 Jerry Patterson                       PRECINCT 3040                                          01 
01110030008000042REP       Commissioner of the General Land Office                 Jerry Patterson                       PRECINCT 3060                                          01 
01110030009000150REP       Commissioner of the General Land Office                 Jerry Patterson                       PRECINCT 4050                                          01 
01110030010000022REP       Commissioner of the General Land Office                 Jerry Patterson                       PRECINCT 4070                                          01 
01110030011000232REP       Commissioner of the General Land Office                 Jerry Patterson                       PRECINCT 4100                                          01 
01110040001000031REP       Commissioner of the General Land Office                 Rick Range                            PRECINCT 1010                                          01 
01110040002000058REP       Commissioner of the General Land Office                 Rick Range                            PRECINCT 1110                                          01 
01110040003000010REP       Commissioner of the General Land Office                 Rick Range                            PRECINCT 2020                                          01 
01110040004000028REP       Commissioner of the General Land Office                 Rick Range                            PRECINCT 2080                                          01 
01110040005000053REP       Commissioner of the General Land Office                 Rick Range                            PRECINCT 2120                                          01 
01110040006000038REP       Commissioner of the General Land Office                 Rick Range                            PRECINCT 3030                                          01 
01110040007000049REP       Commissioner of the General Land Office                 Rick Range                            PRECINCT 3040                                          01 
01110040008000007REP       Commissioner of the General Land Office                 Rick Range                            PRECINCT 3060                                          01 
01110040009000030REP       Commissioner of the General Land Office                 Rick Range                            PRECINCT 4050                                          01 
01110040010000009REP       Commissioner of the General Land Office                 Rick Range                            PRECINCT 4070                                          01 
01110040011000042REP       Commissioner of the General Land Office                 Rick Range                            PRECINCT 4100                                          01 
01110050001000000REP       Commissioner of the General Land Office                 OVER VOTES                            PRECINCT 1010                                          01 
01110050002000000REP       Commissioner of the General Land Office                 OVER VOTES                            PRECINCT 1110                                          01 
01110050003000000REP       Commissioner of the General Land Office                 OVER VOTES                            PRECINCT 2020                                          01 
01110050004000000REP       Commissioner of the General Land Office                 OVER VOTES                            PRECINCT 2080                                          01 
01110050005000000REP       Commissioner of the General Land Office                 OVER VOTES                            PRECINCT 2120                                          01 
01110050006000000REP       Commissioner of the General Land Office                 OVER VOTES                            PRECINCT 3030                                          01 
01110050007000000REP       Commissioner of the General Land Office                 OVER VOTES                            PRECINCT 3040                                          01 
01110050008000000REP       Commissioner of the General Land Office                 OVER VOTES                            PRECINCT 3060                                          01 
01110050009000000REP       Commissioner of the General Land Office                 OVER VOTES                            PRECINCT 4050                                          01 
01110050010000000REP       Commissioner of the General Land Office                 OVER VOTES                            PRECINCT 4070                                          01 
01110050011000000REP       Commissioner of the General Land Office                 OVER VOTES                            PRECINCT 4100                                          01 
01110060001000090REP       Commissioner of the General Land Office                 UNDER VOTES                           PRECINCT 1010                                          01 
01110060002000091REP       Commissioner of the General Land Office                 UNDER VOTES                           PRECINCT 1110                                          01 
01110060003000050REP       Commissioner of the General Land Office                 UNDER VOTES                           PRECINCT 2020                                          01 
01110060004000078REP       Commissioner of the General Land Office                 UNDER VOTES                           PRECINCT 2080                                          01 
01110060005000090REP       Commissioner of the General Land Office                 UNDER VOTES                           PRECINCT 2120                                          01 
01110060006000048REP       Commissioner of the General Land Office                 UNDER VOTES                           PRECINCT 3030                                          01 
01110060007000130REP       Commissioner of the General Land Office                 UNDER VOTES                           PRECINCT 3040                                          01 
01110060008000020REP       Commissioner of the General Land Office                 UNDER VOTES                           PRECINCT 3060                                          01 
01110060009000054REP       Commissioner of the General Land Office                 UNDER VOTES                           PRECINCT 4050                                          01 
01110060010000011REP       Commissioner of the General Land Office                 UNDER VOTES                           PRECINCT 4070                                          01 
01110060011000099REP       Commissioner of the General Land Office                 UNDER VOTES                           PRECINCT 4100                                          01 
01120010001000136REP       Commissioner of Agriculture                             Trey Blocker                          PRECINCT 1010                                          01 
01120010002000248REP       Commissioner of Agriculture                             Trey Blocker                          PRECINCT 1110                                          01 
01120010003000144REP       Commissioner of Agriculture                             Trey Blocker                          PRECINCT 2020                                          01 
01120010004000161REP       Commissioner of Agriculture                             Trey Blocker                          PRECINCT 2080                                          01 
01120010005000188REP       Commissioner of Agriculture                             Trey Blocker                          PRECINCT 2120                                          01 
01120010006000150REP       Commissioner of Agriculture                             Trey Blocker                          PRECINCT 3030                                          01 
01120010007000208REP       Commissioner of Agriculture                             Trey Blocker                          PRECINCT 3040                                          01 
01120010008000035REP       Commissioner of Agriculture                             Trey Blocker                          PRECINCT 3060                                          01 
01120010009000156REP       Commissioner of Agriculture                             Trey Blocker                          PRECINCT 4050                                          01 
01120010010000024REP       Commissioner of Agriculture                             Trey Blocker                          PRECINCT 4070                                          01 
01120010011000176REP       Commissioner of Agriculture                             Trey Blocker                          PRECINCT 4100                                          01 
01120020001000101REP       Commissioner of Agriculture                             Jim Hogan                             PRECINCT 1010                                          01 
01120020002000178REP       Commissioner of Agriculture                             Jim Hogan                             PRECINCT 1110                                          01 
01120020003000091REP       Commissioner of Agriculture                             Jim Hogan                             PRECINCT 2020                                          01 
01120020004000112REP       Commissioner of Agriculture                             Jim Hogan                             PRECINCT 2080                                          01 
01120020005000173REP       Commissioner of Agriculture                             Jim Hogan                             PRECINCT 2120                                          01 
01120020006000082REP       Commissioner of Agriculture                             Jim Hogan                             PRECINCT 3030                                          01 
01120020007000165REP       Commissioner of Agriculture                             Jim Hogan                             PRECINCT 3040                                          01 
01120020008000027REP       Commissioner of Agriculture                             Jim Hogan                             PRECINCT 3060                                          01 
01120020009000108REP       Commissioner of Agriculture                             Jim Hogan                             PRECINCT 4050                                          01 
01120020010000015REP       Commissioner of Agriculture                             Jim Hogan                             PRECINCT 4070                                          01 
01120020011000123REP       Commissioner of Agriculture                             Jim Hogan                             PRECINCT 4100                                          01 
01120030001000236REP       Commissioner of Agriculture                             Sid Miller                            PRECINCT 1010                                          01 
01120030002000464REP       Commissioner of Agriculture                             Sid Miller                            PRECINCT 1110                                          01 
