01410010001000002DEM       US Senator                                              Edward Kimbrough                      PRECINCT 1010                                          01 
01410010002000002DEM       US Senator                                              Edward Kimbrough                      PRECINCT 1110                                          01 
01410010003000002DEM       US Senator                                              Edward Kimbrough                      PRECINCT 2020                                          01 
01410010004000001DEM       US Senator                                              Edward Kimbrough                      PRECINCT 2080                                          01 
01410010005000002DEM       US Senator                                              Edward Kimbrough                      PRECINCT 2120                                          01 
01410010006000002DEM       US Senator                                              Edward Kimbrough                      PRECINCT 3030                                          01 
01410010007000001DEM       US Senator                                              Edward Kimbrough                      PRECINCT 3040                                          01 
01410010008000001DEM       US Senator                                              Edward Kimbrough                      PRECINCT 3060                                          01 
01410010009000002DEM       US Senator                                              Edward Kimbrough                      PRECINCT 4050                                          01 
01410010010000001DEM       US Senator                                              Edward Kimbrough                      PRECINCT 4070                                          01 
01410010011000001DEM       US Senator                                              Edward Kimbrough                      PRECINCT 4100                                          01 
01410020001000002DEM       US Senator                                              Beto O'Rourke                         PRECINCT 1010                                          01 
01410020002000002DEM       US Senator                                              Beto O'Rourke                         PRECINCT 1110                                          01 
01410020003000002DEM       US Senator                                              Beto O'Rourke                         PRECINCT 2020                                          01 
01410020004000001DEM       US Senator                                              Beto O'Rourke                         PRECINCT 2080                                          01 
01410020005000001DEM       US Senator                                              Beto O'Rourke                         PRECINCT 2120                                          01 
01410020006000001DEM       US Senator                                              Beto O'Rourke                         PRECINCT 3030                                          01 
01410020007000001DEM       US Senator                                              Beto O'Rourke                         PRECINCT 3040                                          01 
01410020008000000DEM       US Senator                                              Beto O'Rourke                         PRECINCT 3060                                          01 
01410020009000002DEM       US Senator                                              Beto O'Rourke                         PRECINCT 4050                                          01 
01410020010000001DEM       US Senator                                              Beto O'Rourke                         PRECINCT 4070                                          01 
01410020011000000DEM       US Senator                                              Beto O'Rourke                         PRECINCT 4100                                          01 
01410030001000001DEM       US Senator                                              Sema Hernandez                        PRECINCT 1010                                          01 
01410030002000001DEM       US Senator                                              Sema Hernandez                        PRECINCT 1110                                          01 
01410030003000001DEM       US Senator                                              Sema Hernandez                        PRECINCT 2020                                          01 
01410030004000000DEM       US Senator                                              Sema Hernandez                        PRECINCT 2080                                          01 
01410030005000002DEM       US Senator                                              Sema Hernandez                        PRECINCT 2120                                          01 
01410030006000002DEM       US Senator                                              Sema Hernandez                        PRECINCT 3030                                          01 
01410030007000000DEM       US Senator                                              Sema Hernandez                        PRECINCT 3040                                          01 
01410030008000001DEM       US Senator                                              Sema Hernandez                        PRECINCT 3060                                          01 
01410030009000001DEM       US Senator                                              Sema Hernandez                        PRECINCT 4050                                          01 
01410030010000000DEM       US Senator                                              Sema Hernandez                        PRECINCT 4070                                          01 
01410030011000001DEM       US Senator                                              Sema Hernandez                        PRECINCT 4100                                          01 
01410040001000000DEM       US Senator                                              OVER VOTES                            PRECINCT 1010                                          01 
01410040002000000DEM       US Senator                                              OVER VOTES                            PRECINCT 1110                                          01 
01410040003000000DEM       US Senator                                              OVER VOTES                            PRECINCT 2020                                          01 
01410040004000000DEM       US Senator                                              OVER VOTES                            PRECINCT 2080                                          01 
01410040005000001DEM       US Senator                                              OVER VOTES                            PRECINCT 2120                                          01 
01410040006000000DEM       US Senator                                              OVER VOTES                            PRECINCT 3030                                          01 
01410040007000000DEM       US Senator                                              OVER VOTES                            PRECINCT 3040                                          01 
01410040008000000DEM       US Senator                                              OVER VOTES                            PRECINCT 3060                                          01 
01410040009000000DEM       US Senator                                              OVER VOTES                            PRECINCT 4050                                          01 
01410040010000000DEM       US Senator                                              OVER VOTES                            PRECINCT 4070                                          01 
01410040011000000DEM       US Senator                                              OVER VOTES                            PRECINCT 4100                                          01 
01410050001000008DEM       US Senator                                              UNDER VOTES                           PRECINCT 1010                                          01 
01410050002000007DEM       US Senator                                              UNDER VOTES                           PRECINCT 1110                                          01 
01410050003000008DEM       US Senator                                              UNDER VOTES                           PRECINCT 2020                                          01 
01410050004000001DEM       US Senator                                              UNDER VOTES                           PRECINCT 2080                                          01 
01410050005000009DEM       US Senator                                              UNDER VOTES                           PRECINCT 2120                                          01 
01410050006000008DEM       US Senator                                              UNDER VOTES                           PRECINCT 3030                                          01 
01410050007000001DEM       US Senator                                              UNDER VOTES                           PRECINCT 3040                                          01 
01410050008000001DEM       US Senator                                              UNDER VOTES                           PRECINCT 3060                                          01 
01410050009000008DEM       US Senator                                              UNDER VOTES                           PRECINCT 4050                                          01 
01410050010000001DEM       US Senator                                              UNDER VOTES                           PRECINCT 4070                                          01 
01410050011000001DEM       US Senator                                              UNDER VOTES                           PRECINCT 4100                                          01 
01420010001000002DEM       US Representative, District 21                          Derrick Crowe                         PRECINCT 1010                                          01 
01420010002000002DEM       US Representative, District 21                          Derrick Crowe                         PRECINCT 1110                                          01 
01420010003000002DEM       US Representative, District 21                          Derrick Crowe                         PRECINCT 2020                                          01 
01420010004000001DEM       US Representative, District 21                          Derrick Crowe                         PRECINCT 2080                                          01 
01420010005000002DEM       US Representative, District 21                          Derrick Crowe                         PRECINCT 2120                                          01 
01420010006000002DEM       US Representative, District 21                          Derrick Crowe                         PRECINCT 3030                                          01 
01420010007000001DEM       US Representative, District 21                          Derrick Crowe                         PRECINCT 3040                                          01 
01420010008000001DEM       US Representative, District 21                          Derrick Crowe                         PRECINCT 3060                                          01 
01420010009000002DEM       US Representative, District 21                          Derrick Crowe                         PRECINCT 4050                                          01 
01420010010000001DEM       US Representative, District 21                          Derrick Crowe                         PRECINCT 4070                                          01 
01420010011000001DEM       US Representative, District 21                          Derrick Crowe                         PRECINCT 4100                                          01 
01420020001000002DEM       US Representative, District 21                          Elliott McFadden                      PRECINCT 1010                                          01 
01420020002000002DEM       US Representative, District 21                          Elliott McFadden                      PRECINCT 1110                                          01 
01420020003000001DEM       US Representative, District 21                          Elliott McFadden                      PRECINCT 2020                                          01 
01420020004000000DEM       US Representative, District 21                          Elliott McFadden                      PRECINCT 2080                                          01 
01420020005000002DEM       US Representative, District 21                          Elliott McFadden                      PRECINCT 2120                                          01 
01420020006000001DEM       US Representative, District 21                          Elliott McFadden                      PRECINCT 3030                                          01 
01420020007000000DEM       US Representative, District 21                          Elliott McFadden                      PRECINCT 3040                                          01 
01420020008000001DEM       US Representative, District 21                          Elliott McFadden                      PRECINCT 3060                                          01 
01420020009000002DEM       US Representative, District 21                          Elliott McFadden                      PRECINCT 4050                                          01 
01420020010000000DEM       US Representative, District 21                          Elliott McFadden                      PRECINCT 4070                                          01 
01420020011000000DEM       US Representative, District 21                          Elliott McFadden                      PRECINCT 4100                                          01 
01420030001000001DEM       US Representative, District 21                          Mary Street Wilson                    PRECINCT 1010                                          01 
01420030002000001DEM       US Representative, District 21                          Mary Street Wilson                    PRECINCT 1110                                          01 
01420030003000002DEM       US Representative, District 21                          Mary Street Wilson                    PRECINCT 2020                                          01 
01420030004000001DEM       US Representative, District 21                          Mary Street Wilson                    PRECINCT 2080                                          01 
01420030005000001DEM       US Representative, District 21                          Mary Street Wilson                    PRECINCT 2120                                          01 
01420030006000002DEM       US Representative, District 21                          Mary Street Wilson                    PRECINCT 3030                                          01 
01420030007000000DEM       US Representative, District 21                          Mary Street Wilson                    PRECINCT 3040                                          01 
01420030008000000DEM       US Representative, District 21                          Mary Street Wilson                    PRECINCT 3060                                          01 
01420030009000001DEM       US Representative, District 21                          Mary Street Wilson                    PRECINCT 4050                                          01 
01420030010000001DEM       US Representative, District 21                          Mary Street Wilson                    PRECINCT 4070                                          01 
01420030011000000DEM       US Representative, District 21                          Mary Street Wilson                    PRECINCT 4100                                          01 
01420040001000001DEM       US Representative, District 21                          Joseph Kopser                         PRECINCT 1010                                          01 
01420040002000001DEM       US Representative, District 21                          Joseph Kopser                         PRECINCT 1110                                          01 
01420040003000001DEM       US Representative, District 21                          Joseph Kopser                         PRECINCT 2020                                          01 
01420040004000000DEM       US Representative, District 21                          Joseph Kopser                         PRECINCT 2080                                          01 
01420040005000001DEM       US Representative, District 21                          Joseph Kopser                         PRECINCT 2120                                          01 
01420040006000001DEM       US Representative, District 21                          Joseph Kopser                         PRECINCT 3030                                          01 
01420040007000001DEM       US Representative, District 21                          Joseph Kopser                         PRECINCT 3040                                          01 
01420040008000000DEM       US Representative, District 21                          Joseph Kopser                         PRECINCT 3060                                          01 
01420040009000001DEM       US Representative, District 21                          Joseph Kopser                         PRECINCT 4050                                          01 
01420040010000000DEM       US Representative, District 21                          Joseph Kopser                         PRECINCT 4070                                          01 
01420040011000001DEM       US Representative, District 21                          Joseph Kopser                         PRECINCT 4100                                          01 
01420050001000000DEM       US Representative, District 21                          OVER VOTES                            PRECINCT 1010                                          01 
01420050002000000DEM       US Representative, District 21                          OVER VOTES                            PRECINCT 1110                                          01 
01420050003000000DEM       US Representative, District 21                          OVER VOTES                            PRECINCT 2020                                          01 
01420050004000000DEM       US Representative, District 21                          OVER VOTES                            PRECINCT 2080                                          01 
01420050005000001DEM       US Representative, District 21                          OVER VOTES                            PRECINCT 2120                                          01 
01420050006000000DEM       US Representative, District 21                          OVER VOTES                            PRECINCT 3030                                          01 
01420050007000000DEM       US Representative, District 21                          OVER VOTES                            PRECINCT 3040                                          01 
01420050008000000DEM       US Representative, District 21                          OVER VOTES                            PRECINCT 3060                                          01 
01420050009000000DEM       US Representative, District 21                          OVER VOTES                            PRECINCT 4050                                          01 
01420050010000000DEM       US Representative, District 21                          OVER VOTES                            PRECINCT 4070                                          01 
01420050011000000DEM       US Representative, District 21                          OVER VOTES                            PRECINCT 4100                                          01 
01420060001000007DEM       US Representative, District 21                          UNDER VOTES                           PRECINCT 1010                                          01 
01420060002000006DEM       US Representative, District 21                          UNDER VOTES                           PRECINCT 1110                                          01 
01420060003000007DEM       US Representative, District 21                          UNDER VOTES                           PRECINCT 2020                                          01 
01420060004000001DEM       US Representative, District 21                          UNDER VOTES                           PRECINCT 2080                                          01 
01420060005000008DEM       US Representative, District 21                          UNDER VOTES                           PRECINCT 2120                                          01 
01420060006000007DEM       US Representative, District 21                          UNDER VOTES                           PRECINCT 3030                                          01 
01420060007000001DEM       US Representative, District 21                          UNDER VOTES                           PRECINCT 3040                                          01 
01420060008000001DEM       US Representative, District 21                          UNDER VOTES                           PRECINCT 3060                                          01 
01420060009000007DEM       US Representative, District 21                          UNDER VOTES                           PRECINCT 4050                                          01 
01420060010000001DEM       US Representative, District 21                          UNDER VOTES                           PRECINCT 4070                                          01 
01420060011000001DEM       US Representative, District 21                          UNDER VOTES                           PRECINCT 4100                                          01 
01430010001000002DEM       Governor                                                Adrian Ocegueda                       PRECINCT 1010                                          01 
01430010002000002DEM       Governor                                                Adrian Ocegueda                       PRECINCT 1110                                          01 
01430010003000002DEM       Governor                                                Adrian Ocegueda                       PRECINCT 2020                                          01 
01430010004000001DEM       Governor                                                Adrian Ocegueda                       PRECINCT 2080                                          01 
01430010005000002DEM       Governor                                                Adrian Ocegueda                       PRECINCT 2120                                          01 
01430010006000002DEM       Governor                                                Adrian Ocegueda                       PRECINCT 3030                                          01 
01430010007000001DEM       Governor                                                Adrian Ocegueda                       PRECINCT 3040                                          01 
01430010008000001DEM       Governor                                                Adrian Ocegueda                       PRECINCT 3060                                          01 
01430010009000002DEM       Governor                                                Adrian Ocegueda                       PRECINCT 4050                                          01 
01430010010000001DEM       Governor                                                Adrian Ocegueda                       PRECINCT 4070                                          01 
01430010011000001DEM       Governor                                                Adrian Ocegueda                       PRECINCT 4100                                          01 
01430020001000001DEM       Governor                                                Joe Mumbach                           PRECINCT 1010                                          01 
01430020002000001DEM       Governor                                                Joe Mumbach                           PRECINCT 1110                                          01 
01430020003000001DEM       Governor                                                Joe Mumbach                           PRECINCT 2020                                          01 
01430020004000000DEM       Governor                                                Joe Mumbach                           PRECINCT 2080                                          01 
01430020005000001DEM       Governor                                                Joe Mumbach                           PRECINCT 2120                                          01 
01430020006000001DEM       Governor                                                Joe Mumbach                           PRECINCT 3030                                          01 
01430020007000000DEM       Governor                                                Joe Mumbach                           PRECINCT 3040                                          01 
01430020008000000DEM       Governor                                                Joe Mumbach                           PRECINCT 3060                                          01 
01430020009000002DEM       Governor                                                Joe Mumbach                           PRECINCT 4050                                          01 
01430020010000000DEM       Governor                                                Joe Mumbach                           PRECINCT 4070                                          01 
01430020011000000DEM       Governor                                                Joe Mumbach                           PRECINCT 4100                                          01 
01430030001000001DEM       Governor                                                Jeffrey Payne                         PRECINCT 1010                                          01 
01430030002000001DEM       Governor                                                Jeffrey Payne                         PRECINCT 1110                                          01 
01430030003000001DEM       Governor                                                Jeffrey Payne                         PRECINCT 2020                                          01 
01430030004000000DEM       Governor                                                Jeffrey Payne                         PRECINCT 2080                                          01 
01430030005000001DEM       Governor                                                Jeffrey Payne                         PRECINCT 2120                                          01 
01430030006000001DEM       Governor                                                Jeffrey Payne                         PRECINCT 3030                                          01 
01430030007000000DEM       Governor                                                Jeffrey Payne                         PRECINCT 3040                                          01 
01430030008000000DEM       Governor                                                Jeffrey Payne                         PRECINCT 3060                                          01 
01430030009000001DEM       Governor                                                Jeffrey Payne                         PRECINCT 4050                                          01 
01430030010000001DEM       Governor                                                Jeffrey Payne                         PRECINCT 4070                                          01 
01430030011000000DEM       Governor                                                Jeffrey Payne                         PRECINCT 4100                                          01 
01430040001000002DEM       Governor                                                Grady Yarbrough                       PRECINCT 1010                                          01 
01430040002000002DEM       Governor                                                Grady Yarbrough                       PRECINCT 1110                                          01 
01430040003000001DEM       Governor                                                Grady Yarbrough                       PRECINCT 2020                                          01 
01430040004000001DEM       Governor                                                Grady Yarbrough                       PRECINCT 2080                                          01 
01430040005000001DEM       Governor                                                Grady Yarbrough                       PRECINCT 2120                                          01 
01430040006000001DEM       Governor                                                Grady Yarbrough                       PRECINCT 3030                                          01 
01430040007000000DEM       Governor                                                Grady Yarbrough                       PRECINCT 3040                                          01 
01430040008000000DEM       Governor                                                Grady Yarbrough                       PRECINCT 3060                                          01 
01430040009000001DEM       Governor                                                Grady Yarbrough                       PRECINCT 4050                                          01 
01430040010000000DEM       Governor                                                Grady Yarbrough                       PRECINCT 4070                                          01 
01430040011000000DEM       Governor                                                Grady Yarbrough                       PRECINCT 4100                                          01 
01430050001000001DEM       Governor                                                Lupe Valdez                           PRECINCT 1010                                          01 
01430050002000001DEM       Governor                                                Lupe Valdez                           PRECINCT 1110                                          01 
01430050003000001DEM       Governor                                                Lupe Valdez                           PRECINCT 2020                                          01 
01430050004000000DEM       Governor                                                Lupe Valdez                           PRECINCT 2080                                          01 
01430050005000001DEM       Governor                                                Lupe Valdez                           PRECINCT 2120                                          01 
01430050006000002DEM       Governor                                                Lupe Valdez                           PRECINCT 3030                                          01 
01430050007000000DEM       Governor                                                Lupe Valdez                           PRECINCT 3040                                          01 
01430050008000000DEM       Governor                                                Lupe Valdez                           PRECINCT 3060                                          01 
01430050009000001DEM       Governor                                                Lupe Valdez                           PRECINCT 4050                                          01 
01430050010000000DEM       Governor                                                Lupe Valdez                           PRECINCT 4070                                          01 
01430050011000000DEM       Governor                                                Lupe Valdez                           PRECINCT 4100                                          01 
01430060001000001DEM       Governor                                                Andrew White                          PRECINCT 1010                                          01 
01430060002000001DEM       Governor                                                Andrew White                          PRECINCT 1110                                          01 
01430060003000001DEM       Governor                                                Andrew White                          PRECINCT 2020                                          01 
01430060004000000DEM       Governor                                                Andrew White                          PRECINCT 2080                                          01 
01430060005000001DEM       Governor                                                Andrew White                          PRECINCT 2120                                          01 
01430060006000001DEM       Governor                                                Andrew White                          PRECINCT 3030                                          01 
01430060007000000DEM       Governor                                                Andrew White                          PRECINCT 3040                                          01 
01430060008000000DEM       Governor                                                Andrew White                          PRECINCT 3060                                          01 
01430060009000001DEM       Governor                                                Andrew White                          PRECINCT 4050                                          01 
01430060010000000DEM       Governor                                                Andrew White                          PRECINCT 4070                                          01 
01430060011000001DEM       Governor                                                Andrew White                          PRECINCT 4100                                          01 
01430070001000001DEM       Governor                                                Cedric Davis, Sr.                     PRECINCT 1010                                          01 
01430070002000001DEM       Governor                                                Cedric Davis, Sr.                     PRECINCT 1110                                          01 
01430070003000001DEM       Governor                                                Cedric Davis, Sr.                     PRECINCT 2020                                          01 
01430070004000000DEM       Governor                                                Cedric Davis, Sr.                     PRECINCT 2080                                          01 
01430070005000001DEM       Governor                                                Cedric Davis, Sr.                     PRECINCT 2120                                          01 
01430070006000001DEM       Governor                                                Cedric Davis, Sr.                     PRECINCT 3030                                          01 
01430070007000001DEM       Governor                                                Cedric Davis, Sr.                     PRECINCT 3040                                          01 
01430070008000000DEM       Governor                                                Cedric Davis, Sr.                     PRECINCT 3060                                          01 
01430070009000001DEM       Governor                                                Cedric Davis, Sr.                     PRECINCT 4050                                          01 
01430070010000000DEM       Governor                                                Cedric Davis, Sr.                     PRECINCT 4070                                          01 
01430070011000000DEM       Governor                                                Cedric Davis, Sr.                     PRECINCT 4100                                          01 
01430080001000001DEM       Governor                                                James Jolly Clark                     PRECINCT 1010                                          01 
01430080002000001DEM       Governor                                                James Jolly Clark                     PRECINCT 1110                                          01 
01430080003000002DEM       Governor                                                James Jolly Clark                     PRECINCT 2020                                          01 
01430080004000000DEM       Governor                                                James Jolly Clark                     PRECINCT 2080                                          01 
01430080005000001DEM       Governor                                                James Jolly Clark                     PRECINCT 2120                                          01 
01430080006000001DEM       Governor                                                James Jolly Clark                     PRECINCT 3030                                          01 
01430080007000000DEM       Governor                                                James Jolly Clark                     PRECINCT 3040                                          01 
01430080008000001DEM       Governor                                                James Jolly Clark                     PRECINCT 3060                                          01 
01430080009000001DEM       Governor                                                James Jolly Clark                     PRECINCT 4050                                          01 
01430080010000000DEM       Governor                                                James Jolly Clark                     PRECINCT 4070                                          01 
01430080011000000DEM       Governor                                                James Jolly Clark                     PRECINCT 4100                                          01 
01430090001000001DEM       Governor                                                Tom Wakely                            PRECINCT 1010                                          01 
01430090002000001DEM       Governor                                                Tom Wakely                            PRECINCT 1110                                          01 
01430090003000001DEM       Governor                                                Tom Wakely                            PRECINCT 2020                                          01 
01430090004000000DEM       Governor                                                Tom Wakely                            PRECINCT 2080                                          01 
01430090005000002DEM       Governor                                                Tom Wakely                            PRECINCT 2120                                          01 
01430090006000001DEM       Governor                                                Tom Wakely                            PRECINCT 3030                                          01 
01430090007000000DEM       Governor                                                Tom Wakely                            PRECINCT 3040                                          01 
01430090008000000DEM       Governor                                                Tom Wakely                            PRECINCT 3060                                          01 
01430090009000001DEM       Governor                                                Tom Wakely                            PRECINCT 4050                                          01 
01430090010000000DEM       Governor                                                Tom Wakely                            PRECINCT 4070                                          01 
01430090011000000DEM       Governor                                                Tom Wakely                            PRECINCT 4100                                          01 
01430100001000000DEM       Governor                                                OVER VOTES                            PRECINCT 1010                                          01 
01430100002000000DEM       Governor                                                OVER VOTES                            PRECINCT 1110                                          01 
01430100003000000DEM       Governor                                                OVER VOTES                            PRECINCT 2020                                          01 
01430100004000000DEM       Governor                                                OVER VOTES                            PRECINCT 2080                                          01 
01430100005000001DEM       Governor                                                OVER VOTES                            PRECINCT 2120                                          01 
01430100006000000DEM       Governor                                                OVER VOTES                            PRECINCT 3030                                          01 
01430100007000000DEM       Governor                                                OVER VOTES                            PRECINCT 3040                                          01 
01430100008000000DEM       Governor                                                OVER VOTES                            PRECINCT 3060                                          01 
01430100009000000DEM       Governor                                                OVER VOTES                            PRECINCT 4050                                          01 
01430100010000000DEM       Governor                                                OVER VOTES                            PRECINCT 4070                                          01 
01430100011000000DEM       Governor                                                OVER VOTES                            PRECINCT 4100                                          01 
01430110001000002DEM       Governor                                                UNDER VOTES                           PRECINCT 1010                                          01 
01430110002000001DEM       Governor                                                UNDER VOTES                           PRECINCT 1110                                          01 
01430110003000002DEM       Governor                                                UNDER VOTES                           PRECINCT 2020                                          01 
01430110004000001DEM       Governor                                                UNDER VOTES                           PRECINCT 2080                                          01 
01430110005000003DEM       Governor                                                UNDER VOTES                           PRECINCT 2120                                          01 
01430110006000002DEM       Governor                                                UNDER VOTES                           PRECINCT 3030                                          01 
01430110007000001DEM       Governor                                                UNDER VOTES                           PRECINCT 3040                                          01 
01430110008000001DEM       Governor                                                UNDER VOTES                           PRECINCT 3060                                          01 
01430110009000002DEM       Governor                                                UNDER VOTES                           PRECINCT 4050                                          01 
01430110010000001DEM       Governor                                                UNDER VOTES                           PRECINCT 4070                                          01 
01430110011000001DEM       Governor                                                UNDER VOTES                           PRECINCT 4100                                          01 
01440010001000002DEM       Lieutenant Governor                                     Michael Cooper                        PRECINCT 1010                                          01 
01440010002000002DEM       Lieutenant Governor                                     Michael Cooper                        PRECINCT 1110                                          01 
01440010003000002DEM       Lieutenant Governor                                     Michael Cooper                        PRECINCT 2020                                          01 
01440010004000001DEM       Lieutenant Governor                                     Michael Cooper                        PRECINCT 2080                                          01 
01440010005000002DEM       Lieutenant Governor                                     Michael Cooper                        PRECINCT 2120                                          01 
01440010006000002DEM       Lieutenant Governor                                     Michael Cooper                        PRECINCT 3030                                          01 
01440010007000001DEM       Lieutenant Governor                                     Michael Cooper                        PRECINCT 3040                                          01 
01440010008000001DEM       Lieutenant Governor                                     Michael Cooper                        PRECINCT 3060                                          01 
01440010009000002DEM       Lieutenant Governor                                     Michael Cooper                        PRECINCT 4050                                          01 
01440010010000001DEM       Lieutenant Governor                                     Michael Cooper                        PRECINCT 4070                                          01 
01440010011000001DEM       Lieutenant Governor                                     Michael Cooper                        PRECINCT 4100                                          01 
01440020001000003DEM       Lieutenant Governor                                     Mike Collier                          PRECINCT 1010                                          01 
01440020002000003DEM       Lieutenant Governor                                     Mike Collier                          PRECINCT 1110                                          01 
01440020003000003DEM       Lieutenant Governor                                     Mike Collier                          PRECINCT 2020                                          01 
01440020004000002DEM       Lieutenant Governor                                     Mike Collier                          PRECINCT 2080                                          01 
01440020005000003DEM       Lieutenant Governor                                     Mike Collier                          PRECINCT 2120                                          01 
01440020006000003DEM       Lieutenant Governor                                     Mike Collier                          PRECINCT 3030                                          01 
01440020007000002DEM       Lieutenant Governor                                     Mike Collier                          PRECINCT 3040                                          01 
01440020008000002DEM       Lieutenant Governor                                     Mike Collier                          PRECINCT 3060                                          01 
01440020009000003DEM       Lieutenant Governor                                     Mike Collier                          PRECINCT 4050                                          01 
01440020010000002DEM       Lieutenant Governor                                     Mike Collier                          PRECINCT 4070                                          01 
01440020011000002DEM       Lieutenant Governor                                     Mike Collier                          PRECINCT 4100                                          01 
01440030001000000DEM       Lieutenant Governor                                     OVER VOTES                            PRECINCT 1010                                          01 
01440030002000000DEM       Lieutenant Governor                                     OVER VOTES                            PRECINCT 1110                                          01 
01440030003000000DEM       Lieutenant Governor                                     OVER VOTES                            PRECINCT 2020                                          01 
01440030004000000DEM       Lieutenant Governor                                     OVER VOTES                            PRECINCT 2080                                          01 
01440030005000001DEM       Lieutenant Governor                                     OVER VOTES                            PRECINCT 2120                                          01 
01440030006000000DEM       Lieutenant Governor                                     OVER VOTES                            PRECINCT 3030                                          01 
01440030007000000DEM       Lieutenant Governor                                     OVER VOTES                            PRECINCT 3040                                          01 
01440030008000000DEM       Lieutenant Governor                                     OVER VOTES                            PRECINCT 3060                                          01 
01440030009000000DEM       Lieutenant Governor                                     OVER VOTES                            PRECINCT 4050                                          01 
01440030010000000DEM       Lieutenant Governor                                     OVER VOTES                            PRECINCT 4070                                          01 
01440030011000000DEM       Lieutenant Governor                                     OVER VOTES                            PRECINCT 4100                                          01 
01440040001000008DEM       Lieutenant Governor                                     UNDER VOTES                           PRECINCT 1010                                          01 
01440040002000007DEM       Lieutenant Governor                                     UNDER VOTES                           PRECINCT 1110                                          01 
01440040003000008DEM       Lieutenant Governor                                     UNDER VOTES                           PRECINCT 2020                                          01 
01440040004000000DEM       Lieutenant Governor                                     UNDER VOTES                           PRECINCT 2080                                          01 
01440040005000009DEM       Lieutenant Governor                                     UNDER VOTES                           PRECINCT 2120                                          01 
01440040006000008DEM       Lieutenant Governor                                     UNDER VOTES                           PRECINCT 3030                                          01 
01440040007000000DEM       Lieutenant Governor                                     UNDER VOTES                           PRECINCT 3040                                          01 
01440040008000000DEM       Lieutenant Governor                                     UNDER VOTES                           PRECINCT 3060                                          01 
01440040009000008DEM       Lieutenant Governor                                     UNDER VOTES                           PRECINCT 4050                                          01 
01440040010000000DEM       Lieutenant Governor                                     UNDER VOTES                           PRECINCT 4070                                          01 
01440040011000000DEM       Lieutenant Governor                                     UNDER VOTES                           PRECINCT 4100                                          01 
01450010001000002DEM       Attorney General                                        Justin Nelson                         PRECINCT 1010                                          01 
01450010002000002DEM       Attorney General                                        Justin Nelson                         PRECINCT 1110                                          01 
01450010003000002DEM       Attorney General                                        Justin Nelson                         PRECINCT 2020                                          01 
01450010004000001DEM       Attorney General                                        Justin Nelson                         PRECINCT 2080                                          01 
01450010005000002DEM       Attorney General                                        Justin Nelson                         PRECINCT 2120                                          01 
01450010006000002DEM       Attorney General                                        Justin Nelson                         PRECINCT 3030                                          01 
01450010007000001DEM       Attorney General                                        Justin Nelson                         PRECINCT 3040                                          01 
01450010008000001DEM       Attorney General                                        Justin Nelson                         PRECINCT 3060                                          01 
01450010009000002DEM       Attorney General                                        Justin Nelson                         PRECINCT 4050                                          01 
01450010010000001DEM       Attorney General                                        Justin Nelson                         PRECINCT 4070                                          01 
01450010011000001DEM       Attorney General                                        Justin Nelson                         PRECINCT 4100                                          01 
01450020001000000DEM       Attorney General                                        OVER VOTES                            PRECINCT 1010                                          01 
01450020002000000DEM       Attorney General                                        OVER VOTES                            PRECINCT 1110                                          01 
01450020003000000DEM       Attorney General                                        OVER VOTES                            PRECINCT 2020                                          01 
01450020004000000DEM       Attorney General                                        OVER VOTES                            PRECINCT 2080                                          01 
01450020005000000DEM       Attorney General                                        OVER VOTES                            PRECINCT 2120                                          01 
01450020006000000DEM       Attorney General                                        OVER VOTES                            PRECINCT 3030                                          01 
01450020007000000DEM       Attorney General                                        OVER VOTES                            PRECINCT 3040                                          01 
01450020008000000DEM       Attorney General                                        OVER VOTES                            PRECINCT 3060                                          01 
01450020009000000DEM       Attorney General                                        OVER VOTES                            PRECINCT 4050                                          01 
01450020010000000DEM       Attorney General                                        OVER VOTES                            PRECINCT 4070                                          01 
01450020011000000DEM       Attorney General                                        OVER VOTES                            PRECINCT 4100                                          01 
01450030001000011DEM       Attorney General                                        UNDER VOTES                           PRECINCT 1010                                          01 
01450030002000010DEM       Attorney General                                        UNDER VOTES                           PRECINCT 1110                                          01 
01450030003000011DEM       Attorney General                                        UNDER VOTES                           PRECINCT 2020                                          01 
01450030004000002DEM       Attorney General                                        UNDER VOTES                           PRECINCT 2080                                          01 
01450030005000013DEM       Attorney General                                        UNDER VOTES                           PRECINCT 2120                                          01 
01450030006000011DEM       Attorney General                                        UNDER VOTES                           PRECINCT 3030                                          01 
01450030007000002DEM       Attorney General                                        UNDER VOTES                           PRECINCT 3040                                          01 
01450030008000002DEM       Attorney General                                        UNDER VOTES                           PRECINCT 3060                                          01 
01450030009000011DEM       Attorney General                                        UNDER VOTES                           PRECINCT 4050                                          01 
01450030010000002DEM       Attorney General                                        UNDER VOTES                           PRECINCT 4070                                          01 
01450030011000002DEM       Attorney General                                        UNDER VOTES                           PRECINCT 4100                                          01 
01460010001000002DEM       Comptroller of Public Accounts                          Joi Chevalier                         PRECINCT 1010                                          01 
01460010002000002DEM       Comptroller of Public Accounts                          Joi Chevalier                         PRECINCT 1110                                          01 
01460010003000002DEM       Comptroller of Public Accounts                          Joi Chevalier                         PRECINCT 2020                                          01 
01460010004000001DEM       Comptroller of Public Accounts                          Joi Chevalier                         PRECINCT 2080                                          01 
01460010005000002DEM       Comptroller of Public Accounts                          Joi Chevalier                         PRECINCT 2120                                          01 
01460010006000002DEM       Comptroller of Public Accounts                          Joi Chevalier                         PRECINCT 3030                                          01 
01460010007000001DEM       Comptroller of Public Accounts                          Joi Chevalier                         PRECINCT 3040                                          01 
01460010008000001DEM       Comptroller of Public Accounts                          Joi Chevalier                         PRECINCT 3060                                          01 
01460010009000002DEM       Comptroller of Public Accounts                          Joi Chevalier                         PRECINCT 4050                                          01 
01460010010000001DEM       Comptroller of Public Accounts                          Joi Chevalier                         PRECINCT 4070                                          01 
01460010011000001DEM       Comptroller of Public Accounts                          Joi Chevalier                         PRECINCT 4100                                          01 
01460020001000003DEM       Comptroller of Public Accounts                          Tim Mahoney                           PRECINCT 1010                                          01 
01460020002000003DEM       Comptroller of Public Accounts                          Tim Mahoney                           PRECINCT 1110                                          01 
01460020003000003DEM       Comptroller of Public Accounts                          Tim Mahoney                           PRECINCT 2020                                          01 
01460020004000002DEM       Comptroller of Public Accounts                          Tim Mahoney                           PRECINCT 2080                                          01 
01460020005000003DEM       Comptroller of Public Accounts                          Tim Mahoney                           PRECINCT 2120                                          01 
01460020006000003DEM       Comptroller of Public Accounts                          Tim Mahoney                           PRECINCT 3030                                          01 
01460020007000002DEM       Comptroller of Public Accounts                          Tim Mahoney                           PRECINCT 3040                                          01 
01460020008000002DEM       Comptroller of Public Accounts                          Tim Mahoney                           PRECINCT 3060                                          01 
01460020009000003DEM       Comptroller of Public Accounts                          Tim Mahoney                           PRECINCT 4050                                          01 
01460020010000002DEM       Comptroller of Public Accounts                          Tim Mahoney                           PRECINCT 4070                                          01 
01460020011000002DEM       Comptroller of Public Accounts                          Tim Mahoney                           PRECINCT 4100                                          01 
01460030001000000DEM       Comptroller of Public Accounts                          OVER VOTES                            PRECINCT 1010                                          01 
01460030002000000DEM       Comptroller of Public Accounts                          OVER VOTES                            PRECINCT 1110                                          01 
01460030003000000DEM       Comptroller of Public Accounts                          OVER VOTES                            PRECINCT 2020                                          01 
01460030004000000DEM       Comptroller of Public Accounts                          OVER VOTES                            PRECINCT 2080                                          01 
01460030005000001DEM       Comptroller of Public Accounts                          OVER VOTES                            PRECINCT 2120                                          01 
01460030006000000DEM       Comptroller of Public Accounts                          OVER VOTES                            PRECINCT 3030                                          01 
01460030007000000DEM       Comptroller of Public Accounts                          OVER VOTES                            PRECINCT 3040                                          01 
01460030008000000DEM       Comptroller of Public Accounts                          OVER VOTES                            PRECINCT 3060                                          01 
01460030009000000DEM       Comptroller of Public Accounts                          OVER VOTES                            PRECINCT 4050                                          01 
01460030010000000DEM       Comptroller of Public Accounts                          OVER VOTES                            PRECINCT 4070                                          01 
01460030011000000DEM       Comptroller of Public Accounts                          OVER VOTES                            PRECINCT 4100                                          01 
01460040001000008DEM       Comptroller of Public Accounts                          UNDER VOTES                           PRECINCT 1010                                          01 
01460040002000007DEM       Comptroller of Public Accounts                          UNDER VOTES                           PRECINCT 1110                                          01 
01460040003000008DEM       Comptroller of Public Accounts                          UNDER VOTES                           PRECINCT 2020                                          01 
01460040004000000DEM       Comptroller of Public Accounts                          UNDER VOTES                           PRECINCT 2080                                          01 
01460040005000009DEM       Comptroller of Public Accounts                          UNDER VOTES                           PRECINCT 2120                                          01 
01460040006000008DEM       Comptroller of Public Accounts                          UNDER VOTES                           PRECINCT 3030                                          01 
01460040007000000DEM       Comptroller of Public Accounts                          UNDER VOTES                           PRECINCT 3040                                          01 
01460040008000000DEM       Comptroller of Public Accounts                          UNDER VOTES                           PRECINCT 3060                                          01 
01460040009000008DEM       Comptroller of Public Accounts                          UNDER VOTES                           PRECINCT 4050                                          01 
01460040010000000DEM       Comptroller of Public Accounts                          UNDER VOTES                           PRECINCT 4070                                          01 
01460040011000000DEM       Comptroller of Public Accounts                          UNDER VOTES                           PRECINCT 4100                                          01 
01470010001000002DEM       Commissioner of the General Land Office                 Miguel Suazo                          PRECINCT 1010                                          01 
01470010002000002DEM       Commissioner of the General Land Office                 Miguel Suazo                          PRECINCT 1110                                          01 
01470010003000002DEM       Commissioner of the General Land Office                 Miguel Suazo                          PRECINCT 2020                                          01 
01470010004000001DEM       Commissioner of the General Land Office                 Miguel Suazo                          PRECINCT 2080                                          01 
01470010005000002DEM       Commissioner of the General Land Office                 Miguel Suazo                          PRECINCT 2120                                          01 
01470010006000002DEM       Commissioner of the General Land Office                 Miguel Suazo                          PRECINCT 3030                                          01 
01470010007000001DEM       Commissioner of the General Land Office                 Miguel Suazo                          PRECINCT 3040                                          01 
01470010008000001DEM       Commissioner of the General Land Office                 Miguel Suazo                          PRECINCT 3060                                          01 
01470010009000002DEM       Commissioner of the General Land Office                 Miguel Suazo                          PRECINCT 4050                                          01 
01470010010000001DEM       Commissioner of the General Land Office                 Miguel Suazo                          PRECINCT 4070                                          01 
01470010011000001DEM       Commissioner of the General Land Office                 Miguel Suazo                          PRECINCT 4100                                          01 
01470020001000003DEM       Commissioner of the General Land Office                 Tex Morgan                            PRECINCT 1010                                          01 
01470020002000003DEM       Commissioner of the General Land Office                 Tex Morgan                            PRECINCT 1110                                          01 
01470020003000003DEM       Commissioner of the General Land Office                 Tex Morgan                            PRECINCT 2020                                          01 
01470020004000002DEM       Commissioner of the General Land Office                 Tex Morgan                            PRECINCT 2080                                          01 
01470020005000003DEM       Commissioner of the General Land Office                 Tex Morgan                            PRECINCT 2120                                          01 
01470020006000003DEM       Commissioner of the General Land Office                 Tex Morgan                            PRECINCT 3030                                          01 
01470020007000002DEM       Commissioner of the General Land Office                 Tex Morgan                            PRECINCT 3040                                          01 
01470020008000002DEM       Commissioner of the General Land Office                 Tex Morgan                            PRECINCT 3060                                          01 
01470020009000003DEM       Commissioner of the General Land Office                 Tex Morgan                            PRECINCT 4050                                          01 
01470020010000002DEM       Commissioner of the General Land Office                 Tex Morgan                            PRECINCT 4070                                          01 
01470020011000002DEM       Commissioner of the General Land Office                 Tex Morgan                            PRECINCT 4100                                          01 
01470030001000000DEM       Commissioner of the General Land Office                 OVER VOTES                            PRECINCT 1010                                          01 
01470030002000000DEM       Commissioner of the General Land Office                 OVER VOTES                            PRECINCT 1110                                          01 
01470030003000000DEM       Commissioner of the General Land Office                 OVER VOTES                            PRECINCT 2020                                          01 
01470030004000000DEM       Commissioner of the General Land Office                 OVER VOTES                            PRECINCT 2080                                          01 
01470030005000001DEM       Commissioner of the General Land Office                 OVER VOTES                            PRECINCT 2120                                          01 
01470030006000000DEM       Commissioner of the General Land Office                 OVER VOTES                            PRECINCT 3030                                          01 
01470030007000000DEM       Commissioner of the General Land Office                 OVER VOTES                            PRECINCT 3040                                          01 
01470030008000000DEM       Commissioner of the General Land Office                 OVER VOTES                            PRECINCT 3060                                          01 
01470030009000000DEM       Commissioner of the General Land Office                 OVER VOTES                            PRECINCT 4050                                          01 
01470030010000000DEM       Commissioner of the General Land Office                 OVER VOTES                            PRECINCT 4070                                          01 
01470030011000000DEM       Commissioner of the General Land Office                 OVER VOTES                            PRECINCT 4100                                          01 
01470040001000008DEM       Commissioner of the General Land Office                 UNDER VOTES                           PRECINCT 1010                                          01 
01470040002000007DEM       Commissioner of the General Land Office                 UNDER VOTES                           PRECINCT 1110                                          01 
01470040003000008DEM       Commissioner of the General Land Office                 UNDER VOTES                           PRECINCT 2020                                          01 
01470040004000000DEM       Commissioner of the General Land Office                 UNDER VOTES                           PRECINCT 2080                                          01 
01470040005000009DEM       Commissioner of the General Land Office                 UNDER VOTES                           PRECINCT 2120                                          01 
01470040006000008DEM       Commissioner of the General Land Office                 UNDER VOTES                           PRECINCT 3030                                          01 
01470040007000000DEM       Commissioner of the General Land Office                 UNDER VOTES                           PRECINCT 3040                                          01 
01470040008000000DEM       Commissioner of the General Land Office                 UNDER VOTES                           PRECINCT 3060                                          01 
01470040009000008DEM       Commissioner of the General Land Office                 UNDER VOTES                           PRECINCT 4050                                          01 
01470040010000000DEM       Commissioner of the General Land Office                 UNDER VOTES                           PRECINCT 4070                                          01 
01470040011000000DEM       Commissioner of the General Land Office                 UNDER VOTES                           PRECINCT 4100                                          01 
01480010001000002DEM       Commissioner of Agriculture                             Kim Olson                             PRECINCT 1010                                          01 
01480010002000002DEM       Commissioner of Agriculture                             Kim Olson                             PRECINCT 1110                                          01 
01480010003000002DEM       Commissioner of Agriculture                             Kim Olson                             PRECINCT 2020                                          01 
01480010004000001DEM       Commissioner of Agriculture                             Kim Olson                             PRECINCT 2080                                          01 
01480010005000002DEM       Commissioner of Agriculture                             Kim Olson                             PRECINCT 2120                                          01 
01480010006000002DEM       Commissioner of Agriculture                             Kim Olson                             PRECINCT 3030                                          01 
01480010007000001DEM       Commissioner of Agriculture                             Kim Olson                             PRECINCT 3040                                          01 
01480010008000001DEM       Commissioner of Agriculture                             Kim Olson                             PRECINCT 3060                                          01 
01480010009000002DEM       Commissioner of Agriculture                             Kim Olson                             PRECINCT 4050                                          01 
01480010010000001DEM       Commissioner of Agriculture                             Kim Olson                             PRECINCT 4070                                          01 
01480010011000001DEM       Commissioner of Agriculture                             Kim Olson                             PRECINCT 4100                                          01 
01480020001000000DEM       Commissioner of Agriculture                             OVER VOTES                            PRECINCT 1010                                          01 
01480020002000000DEM       Commissioner of Agriculture                             OVER VOTES                            PRECINCT 1110                                          01 
01480020003000000DEM       Commissioner of Agriculture                             OVER VOTES                            PRECINCT 2020                                          01 
01480020004000000DEM       Commissioner of Agriculture                             OVER VOTES                            PRECINCT 2080                                          01 
01480020005000000DEM       Commissioner of Agriculture                             OVER VOTES                            PRECINCT 2120                                          01 
01480020006000000DEM       Commissioner of Agriculture                             OVER VOTES                            PRECINCT 3030                                          01 
01480020007000000DEM       Commissioner of Agriculture                             OVER VOTES                            PRECINCT 3040                                          01 
01480020008000000DEM       Commissioner of Agriculture                             OVER VOTES                            PRECINCT 3060                                          01 
01480020009000000DEM       Commissioner of Agriculture                             OVER VOTES                            PRECINCT 4050                                          01 
01480020010000000DEM       Commissioner of Agriculture                             OVER VOTES                            PRECINCT 4070                                          01 
01480020011000000DEM       Commissioner of Agriculture                             OVER VOTES                            PRECINCT 4100                                          01 
01480030001000011DEM       Commissioner of Agriculture                             UNDER VOTES                           PRECINCT 1010                                          01 
01480030002000010DEM       Commissioner of Agriculture                             UNDER VOTES                           PRECINCT 1110                                          01 
01480030003000011DEM       Commissioner of Agriculture                             UNDER VOTES                           PRECINCT 2020                                          01 
01480030004000002DEM       Commissioner of Agriculture                             UNDER VOTES                           PRECINCT 2080                                          01 
01480030005000013DEM       Commissioner of Agriculture                             UNDER VOTES                           PRECINCT 2120                                          01 
01480030006000011DEM       Commissioner of Agriculture                             UNDER VOTES                           PRECINCT 3030                                          01 
01480030007000002DEM       Commissioner of Agriculture                             UNDER VOTES                           PRECINCT 3040                                          01 
01480030008000002DEM       Commissioner of Agriculture                             UNDER VOTES                           PRECINCT 3060                                          01 
01480030009000011DEM       Commissioner of Agriculture                             UNDER VOTES                           PRECINCT 4050                                          01 
01480030010000002DEM       Commissioner of Agriculture                             UNDER VOTES                           PRECINCT 4070                                          01 
01480030011000002DEM       Commissioner of Agriculture                             UNDER VOTES                           PRECINCT 4100                                          01 
01490010001000002DEM       Railroad Commissioner                                   Chris Spellmon                        PRECINCT 1010                                          01 
01490010002000002DEM       Railroad Commissioner                                   Chris Spellmon                        PRECINCT 1110                                          01 
01490010003000002DEM       Railroad Commissioner                                   Chris Spellmon                        PRECINCT 2020                                          01 
01490010004000001DEM       Railroad Commissioner                                   Chris Spellmon                        PRECINCT 2080                                          01 
01490010005000002DEM       Railroad Commissioner                                   Chris Spellmon                        PRECINCT 2120                                          01 
01490010006000002DEM       Railroad Commissioner                                   Chris Spellmon                        PRECINCT 3030                                          01 
01490010007000001DEM       Railroad Commissioner                                   Chris Spellmon                        PRECINCT 3040                                          01 
01490010008000001DEM       Railroad Commissioner                                   Chris Spellmon                        PRECINCT 3060                                          01 
01490010009000002DEM       Railroad Commissioner                                   Chris Spellmon                        PRECINCT 4050                                          01 
01490010010000001DEM       Railroad Commissioner                                   Chris Spellmon                        PRECINCT 4070                                          01 
01490010011000001DEM       Railroad Commissioner                                   Chris Spellmon                        PRECINCT 4100                                          01 
01490020001000003DEM       Railroad Commissioner                                   Roman McAllen                         PRECINCT 1010                                          01 
01490020002000003DEM       Railroad Commissioner                                   Roman McAllen                         PRECINCT 1110                                          01 
01490020003000003DEM       Railroad Commissioner                                   Roman McAllen                         PRECINCT 2020                                          01 
01490020004000002DEM       Railroad Commissioner                                   Roman McAllen                         PRECINCT 2080                                          01 
01490020005000003DEM       Railroad Commissioner                                   Roman McAllen                         PRECINCT 2120                                          01 
01490020006000003DEM       Railroad Commissioner                                   Roman McAllen                         PRECINCT 3030                                          01 
01490020007000002DEM       Railroad Commissioner                                   Roman McAllen                         PRECINCT 3040                                          01 
01490020008000002DEM       Railroad Commissioner                                   Roman McAllen                         PRECINCT 3060                                          01 
01490020009000003DEM       Railroad Commissioner                                   Roman McAllen                         PRECINCT 4050                                          01 
01490020010000002DEM       Railroad Commissioner                                   Roman McAllen                         PRECINCT 4070                                          01 
01490020011000002DEM       Railroad Commissioner                                   Roman McAllen                         PRECINCT 4100                                          01 
01490030001000000DEM       Railroad Commissioner                                   OVER VOTES                            PRECINCT 1010                                          01 
01490030002000000DEM       Railroad Commissioner                                   OVER VOTES                            PRECINCT 1110                                          01 
01490030003000000DEM       Railroad Commissioner                                   OVER VOTES                            PRECINCT 2020                                          01 
01490030004000000DEM       Railroad Commissioner                                   OVER VOTES                            PRECINCT 2080                                          01 
01490030005000001DEM       Railroad Commissioner                                   OVER VOTES                            PRECINCT 2120                                          01 
01490030006000000DEM       Railroad Commissioner                                   OVER VOTES                            PRECINCT 3030                                          01 
01490030007000000DEM       Railroad Commissioner                                   OVER VOTES                            PRECINCT 3040                                          01 
01490030008000000DEM       Railroad Commissioner                                   OVER VOTES                            PRECINCT 3060                                          01 
01490030009000000DEM       Railroad Commissioner                                   OVER VOTES                            PRECINCT 4050                                          01 
01490030010000000DEM       Railroad Commissioner                                   OVER VOTES                            PRECINCT 4070                                          01 
01490030011000000DEM       Railroad Commissioner                                   OVER VOTES                            PRECINCT 4100                                          01 
01490040001000008DEM       Railroad Commissioner                                   UNDER VOTES                           PRECINCT 1010                                          01 
01490040002000007DEM       Railroad Commissioner                                   UNDER VOTES                           PRECINCT 1110                                          01 
01490040003000008DEM       Railroad Commissioner                                   UNDER VOTES                           PRECINCT 2020                                          01 
01490040004000000DEM       Railroad Commissioner                                   UNDER VOTES                           PRECINCT 2080                                          01 
01490040005000009DEM       Railroad Commissioner                                   UNDER VOTES                           PRECINCT 2120                                          01 
01490040006000008DEM       Railroad Commissioner                                   UNDER VOTES                           PRECINCT 3030                                          01 
01490040007000000DEM       Railroad Commissioner                                   UNDER VOTES                           PRECINCT 3040                                          01 
01490040008000000DEM       Railroad Commissioner                                   UNDER VOTES                           PRECINCT 3060                                          01 
01490040009000008DEM       Railroad Commissioner                                   UNDER VOTES                           PRECINCT 4050                                          01 
01490040010000000DEM       Railroad Commissioner                                   UNDER VOTES                           PRECINCT 4070                                          01 
01490040011000000DEM       Railroad Commissioner                                   UNDER VOTES                           PRECINCT 4100                                          01 
01500010001000002DEM       Justice, Supreme Court, Place 2                         Steven Kirkland                       PRECINCT 1010                                          01 
01500010002000002DEM       Justice, Supreme Court, Place 2                         Steven Kirkland                       PRECINCT 1110                                          01 
01500010003000002DEM       Justice, Supreme Court, Place 2                         Steven Kirkland                       PRECINCT 2020                                          01 
01500010004000001DEM       Justice, Supreme Court, Place 2                         Steven Kirkland                       PRECINCT 2080                                          01 
01500010005000002DEM       Justice, Supreme Court, Place 2                         Steven Kirkland                       PRECINCT 2120                                          01 
01500010006000002DEM       Justice, Supreme Court, Place 2                         Steven Kirkland                       PRECINCT 3030                                          01 
01500010007000001DEM       Justice, Supreme Court, Place 2                         Steven Kirkland                       PRECINCT 3040                                          01 
01500010008000001DEM       Justice, Supreme Court, Place 2                         Steven Kirkland                       PRECINCT 3060                                          01 
01500010009000002DEM       Justice, Supreme Court, Place 2                         Steven Kirkland                       PRECINCT 4050                                          01 
01500010010000001DEM       Justice, Supreme Court, Place 2                         Steven Kirkland                       PRECINCT 4070                                          01 
01500010011000001DEM       Justice, Supreme Court, Place 2                         Steven Kirkland                       PRECINCT 4100                                          01 
01500020001000000DEM       Justice, Supreme Court, Place 2                         OVER VOTES                            PRECINCT 1010                                          01 
01500020002000000DEM       Justice, Supreme Court, Place 2                         OVER VOTES                            PRECINCT 1110                                          01 
01500020003000000DEM       Justice, Supreme Court, Place 2                         OVER VOTES                            PRECINCT 2020                                          01 
01500020004000000DEM       Justice, Supreme Court, Place 2                         OVER VOTES                            PRECINCT 2080                                          01 
01500020005000000DEM       Justice, Supreme Court, Place 2                         OVER VOTES                            PRECINCT 2120                                          01 
01500020006000000DEM       Justice, Supreme Court, Place 2                         OVER VOTES                            PRECINCT 3030                                          01 
01500020007000000DEM       Justice, Supreme Court, Place 2                         OVER VOTES                            PRECINCT 3040                                          01 
01500020008000000DEM       Justice, Supreme Court, Place 2                         OVER VOTES                            PRECINCT 3060                                          01 
01500020009000000DEM       Justice, Supreme Court, Place 2                         OVER VOTES                            PRECINCT 4050                                          01 
01500020010000000DEM       Justice, Supreme Court, Place 2                         OVER VOTES                            PRECINCT 4070                                          01 
01500020011000000DEM       Justice, Supreme Court, Place 2                         OVER VOTES                            PRECINCT 4100                                          01 
01500030001000011DEM       Justice, Supreme Court, Place 2                         UNDER VOTES                           PRECINCT 1010                                          01 
01500030002000010DEM       Justice, Supreme Court, Place 2                         UNDER VOTES                           PRECINCT 1110                                          01 
01500030003000011DEM       Justice, Supreme Court, Place 2                         UNDER VOTES                           PRECINCT 2020                                          01 
01500030004000002DEM       Justice, Supreme Court, Place 2                         UNDER VOTES                           PRECINCT 2080                                          01 
01500030005000013DEM       Justice, Supreme Court, Place 2                         UNDER VOTES                           PRECINCT 2120                                          01 
01500030006000011DEM       Justice, Supreme Court, Place 2                         UNDER VOTES                           PRECINCT 3030                                          01 
01500030007000002DEM       Justice, Supreme Court, Place 2                         UNDER VOTES                           PRECINCT 3040                                          01 
01500030008000002DEM       Justice, Supreme Court, Place 2                         UNDER VOTES                           PRECINCT 3060                                          01 
01500030009000011DEM       Justice, Supreme Court, Place 2                         UNDER VOTES                           PRECINCT 4050                                          01 
01500030010000002DEM       Justice, Supreme Court, Place 2                         UNDER VOTES                           PRECINCT 4070                                          01 
01500030011000002DEM       Justice, Supreme Court, Place 2                         UNDER VOTES                           PRECINCT 4100                                          01 
01510010001000002DEM       Justice, Supreme Court, Place 4                         R.K. Sandill                          PRECINCT 1010                                          01 
01510010002000002DEM       Justice, Supreme Court, Place 4                         R.K. Sandill                          PRECINCT 1110                                          01 
01510010003000002DEM       Justice, Supreme Court, Place 4                         R.K. Sandill                          PRECINCT 2020                                          01 
01510010004000001DEM       Justice, Supreme Court, Place 4                         R.K. Sandill                          PRECINCT 2080                                          01 
01510010005000002DEM       Justice, Supreme Court, Place 4                         R.K. Sandill                          PRECINCT 2120                                          01 
01510010006000002DEM       Justice, Supreme Court, Place 4                         R.K. Sandill                          PRECINCT 3030                                          01 
01510010007000001DEM       Justice, Supreme Court, Place 4                         R.K. Sandill                          PRECINCT 3040                                          01 
01510010008000001DEM       Justice, Supreme Court, Place 4                         R.K. Sandill                          PRECINCT 3060                                          01 
01510010009000002DEM       Justice, Supreme Court, Place 4                         R.K. Sandill                          PRECINCT 4050                                          01 
01510010010000001DEM       Justice, Supreme Court, Place 4                         R.K. Sandill                          PRECINCT 4070                                          01 
01510010011000001DEM       Justice, Supreme Court, Place 4                         R.K. Sandill                          PRECINCT 4100                                          01 
01510020001000000DEM       Justice, Supreme Court, Place 4                         OVER VOTES                            PRECINCT 1010                                          01 
01510020002000000DEM       Justice, Supreme Court, Place 4                         OVER VOTES                            PRECINCT 1110                                          01 
01510020003000000DEM       Justice, Supreme Court, Place 4                         OVER VOTES                            PRECINCT 2020                                          01 
01510020004000000DEM       Justice, Supreme Court, Place 4                         OVER VOTES                            PRECINCT 2080                                          01 
01510020005000000DEM       Justice, Supreme Court, Place 4                         OVER VOTES                            PRECINCT 2120                                          01 
01510020006000000DEM       Justice, Supreme Court, Place 4                         OVER VOTES                            PRECINCT 3030                                          01 
01510020007000000DEM       Justice, Supreme Court, Place 4                         OVER VOTES                            PRECINCT 3040                                          01 
01510020008000000DEM       Justice, Supreme Court, Place 4                         OVER VOTES                            PRECINCT 3060                                          01 
01510020009000000DEM       Justice, Supreme Court, Place 4                         OVER VOTES                            PRECINCT 4050                                          01 
01510020010000000DEM       Justice, Supreme Court, Place 4                         OVER VOTES                            PRECINCT 4070                                          01 
01510020011000000DEM       Justice, Supreme Court, Place 4                         OVER VOTES                            PRECINCT 4100                                          01 
01510030001000011DEM       Justice, Supreme Court, Place 4                         UNDER VOTES                           PRECINCT 1010                                          01 
01510030002000010DEM       Justice, Supreme Court, Place 4                         UNDER VOTES                           PRECINCT 1110                                          01 
01510030003000011DEM       Justice, Supreme Court, Place 4                         UNDER VOTES                           PRECINCT 2020                                          01 
01510030004000002DEM       Justice, Supreme Court, Place 4                         UNDER VOTES                           PRECINCT 2080                                          01 
01510030005000013DEM       Justice, Supreme Court, Place 4                         UNDER VOTES                           PRECINCT 2120                                          01 
01510030006000011DEM       Justice, Supreme Court, Place 4                         UNDER VOTES                           PRECINCT 3030                                          01 
01510030007000002DEM       Justice, Supreme Court, Place 4                         UNDER VOTES                           PRECINCT 3040                                          01 
01510030008000002DEM       Justice, Supreme Court, Place 4                         UNDER VOTES                           PRECINCT 3060                                          01 
01510030009000011DEM       Justice, Supreme Court, Place 4                         UNDER VOTES                           PRECINCT 4050                                          01 
01510030010000002DEM       Justice, Supreme Court, Place 4                         UNDER VOTES                           PRECINCT 4070                                          01 
01510030011000002DEM       Justice, Supreme Court, Place 4                         UNDER VOTES                           PRECINCT 4100                                          01 
01520010001000002DEM       Justice, Supreme Court, Place 6                         Kathy Cheng                           PRECINCT 1010                                          01 
01520010002000002DEM       Justice, Supreme Court, Place 6                         Kathy Cheng                           PRECINCT 1110                                          01 
