01410010001000006DEM       US Senator                                              Edward Kimbrough                      PRECINCT 1010                                          01 
01410010002000012DEM       US Senator                                              Edward Kimbrough                      PRECINCT 1110                                          01 
01410010003000005DEM       US Senator                                              Edward Kimbrough                      PRECINCT 2020                                          01 
01410010004000011DEM       US Senator                                              Edward Kimbrough                      PRECINCT 2080                                          01 
01410010005000005DEM       US Senator                                              Edward Kimbrough                      PRECINCT 2120                                          01 
01410010006000008DEM       US Senator                                              Edward Kimbrough                      PRECINCT 3030                                          01 
01410010007000011DEM       US Senator                                              Edward Kimbrough                      PRECINCT 3040                                          01 
01410010008000000DEM       US Senator                                              Edward Kimbrough                      PRECINCT 3060                                          01 
01410010009000012DEM       US Senator                                              Edward Kimbrough                      PRECINCT 4050                                          01 
01410010010000000DEM       US Senator                                              Edward Kimbrough                      PRECINCT 4070                                          01 
01410010011000007DEM       US Senator                                              Edward Kimbrough                      PRECINCT 4100                                          01 
01410020001000082DEM       US Senator                                              Beto O'Rourke                         PRECINCT 1010                                          01 
01410020002000112DEM       US Senator                                              Beto O'Rourke                         PRECINCT 1110                                          01 
01410020003000053DEM       US Senator                                              Beto O'Rourke                         PRECINCT 2020                                          01 
01410020004000079DEM       US Senator                                              Beto O'Rourke                         PRECINCT 2080                                          01 
01410020005000112DEM       US Senator                                              Beto O'Rourke                         PRECINCT 2120                                          01 
01410020006000056DEM       US Senator                                              Beto O'Rourke                         PRECINCT 3030                                          01 
01410020007000087DEM       US Senator                                              Beto O'Rourke                         PRECINCT 3040                                          01 
01410020008000011DEM       US Senator                                              Beto O'Rourke                         PRECINCT 3060                                          01 
01410020009000079DEM       US Senator                                              Beto O'Rourke                         PRECINCT 4050                                          01 
01410020010000013DEM       US Senator                                              Beto O'Rourke                         PRECINCT 4070                                          01 
01410020011000121DEM       US Senator                                              Beto O'Rourke                         PRECINCT 4100                                          01 
01410030001000012DEM       US Senator                                              Sema Hernandez                        PRECINCT 1010                                          01 
01410030002000023DEM       US Senator                                              Sema Hernandez                        PRECINCT 1110                                          01 
01410030003000007DEM       US Senator                                              Sema Hernandez                        PRECINCT 2020                                          01 
01410030004000009DEM       US Senator                                              Sema Hernandez                        PRECINCT 2080                                          01 
01410030005000026DEM       US Senator                                              Sema Hernandez                        PRECINCT 2120                                          01 
01410030006000005DEM       US Senator                                              Sema Hernandez                        PRECINCT 3030                                          01 
01410030007000012DEM       US Senator                                              Sema Hernandez                        PRECINCT 3040                                          01 
01410030008000001DEM       US Senator                                              Sema Hernandez                        PRECINCT 3060                                          01 
01410030009000018DEM       US Senator                                              Sema Hernandez                        PRECINCT 4050                                          01 
01410030010000004DEM       US Senator                                              Sema Hernandez                        PRECINCT 4070                                          01 
01410030011000011DEM       US Senator                                              Sema Hernandez                        PRECINCT 4100                                          01 
01410040001000000DEM       US Senator                                              OVER VOTES                            PRECINCT 1010                                          01 
01410040002000000DEM       US Senator                                              OVER VOTES                            PRECINCT 1110                                          01 
01410040003000000DEM       US Senator                                              OVER VOTES                            PRECINCT 2020                                          01 
01410040004000000DEM       US Senator                                              OVER VOTES                            PRECINCT 2080                                          01 
01410040005000000DEM       US Senator                                              OVER VOTES                            PRECINCT 2120                                          01 
01410040006000000DEM       US Senator                                              OVER VOTES                            PRECINCT 3030                                          01 
01410040007000000DEM       US Senator                                              OVER VOTES                            PRECINCT 3040                                          01 
01410040008000000DEM       US Senator                                              OVER VOTES                            PRECINCT 3060                                          01 
01410040009000000DEM       US Senator                                              OVER VOTES                            PRECINCT 4050                                          01 
01410040010000000DEM       US Senator                                              OVER VOTES                            PRECINCT 4070                                          01 
01410040011000000DEM       US Senator                                              OVER VOTES                            PRECINCT 4100                                          01 
01410050001000004DEM       US Senator                                              UNDER VOTES                           PRECINCT 1010                                          01 
01410050002000003DEM       US Senator                                              UNDER VOTES                           PRECINCT 1110                                          01 
01410050003000000DEM       US Senator                                              UNDER VOTES                           PRECINCT 2020                                          01 
01410050004000001DEM       US Senator                                              UNDER VOTES                           PRECINCT 2080                                          01 
01410050005000001DEM       US Senator                                              UNDER VOTES                           PRECINCT 2120                                          01 
01410050006000000DEM       US Senator                                              UNDER VOTES                           PRECINCT 3030                                          01 
01410050007000002DEM       US Senator                                              UNDER VOTES                           PRECINCT 3040                                          01 
01410050008000001DEM       US Senator                                              UNDER VOTES                           PRECINCT 3060                                          01 
01410050009000005DEM       US Senator                                              UNDER VOTES                           PRECINCT 4050                                          01 
01410050010000000DEM       US Senator                                              UNDER VOTES                           PRECINCT 4070                                          01 
01410050011000004DEM       US Senator                                              UNDER VOTES                           PRECINCT 4100                                          01 
01420010001000021DEM       US Representative, District 21                          Derrick Crowe                         PRECINCT 1010                                          01 
01420010002000029DEM       US Representative, District 21                          Derrick Crowe                         PRECINCT 1110                                          01 
01420010003000013DEM       US Representative, District 21                          Derrick Crowe                         PRECINCT 2020                                          01 
01420010004000016DEM       US Representative, District 21                          Derrick Crowe                         PRECINCT 2080                                          01 
01420010005000016DEM       US Representative, District 21                          Derrick Crowe                         PRECINCT 2120                                          01 
01420010006000016DEM       US Representative, District 21                          Derrick Crowe                         PRECINCT 3030                                          01 
01420010007000021DEM       US Representative, District 21                          Derrick Crowe                         PRECINCT 3040                                          01 
01420010008000004DEM       US Representative, District 21                          Derrick Crowe                         PRECINCT 3060                                          01 
01420010009000027DEM       US Representative, District 21                          Derrick Crowe                         PRECINCT 4050                                          01 
01420010010000003DEM       US Representative, District 21                          Derrick Crowe                         PRECINCT 4070                                          01 
01420010011000028DEM       US Representative, District 21                          Derrick Crowe                         PRECINCT 4100                                          01 
01420020001000012DEM       US Representative, District 21                          Elliott McFadden                      PRECINCT 1010                                          01 
01420020002000016DEM       US Representative, District 21                          Elliott McFadden                      PRECINCT 1110                                          01 
01420020003000008DEM       US Representative, District 21                          Elliott McFadden                      PRECINCT 2020                                          01 
01420020004000012DEM       US Representative, District 21                          Elliott McFadden                      PRECINCT 2080                                          01 
01420020005000019DEM       US Representative, District 21                          Elliott McFadden                      PRECINCT 2120                                          01 
01420020006000009DEM       US Representative, District 21                          Elliott McFadden                      PRECINCT 3030                                          01 
01420020007000010DEM       US Representative, District 21                          Elliott McFadden                      PRECINCT 3040                                          01 
01420020008000001DEM       US Representative, District 21                          Elliott McFadden                      PRECINCT 3060                                          01 
01420020009000015DEM       US Representative, District 21                          Elliott McFadden                      PRECINCT 4050                                          01 
01420020010000002DEM       US Representative, District 21                          Elliott McFadden                      PRECINCT 4070                                          01 
01420020011000021DEM       US Representative, District 21                          Elliott McFadden                      PRECINCT 4100                                          01 
01420030001000024DEM       US Representative, District 21                          Mary Street Wilson                    PRECINCT 1010                                          01 
01420030002000039DEM       US Representative, District 21                          Mary Street Wilson                    PRECINCT 1110                                          01 
01420030003000019DEM       US Representative, District 21                          Mary Street Wilson                    PRECINCT 2020                                          01 
01420030004000035DEM       US Representative, District 21                          Mary Street Wilson                    PRECINCT 2080                                          01 
01420030005000054DEM       US Representative, District 21                          Mary Street Wilson                    PRECINCT 2120                                          01 
01420030006000015DEM       US Representative, District 21                          Mary Street Wilson                    PRECINCT 3030                                          01 
01420030007000045DEM       US Representative, District 21                          Mary Street Wilson                    PRECINCT 3040                                          01 
01420030008000002DEM       US Representative, District 21                          Mary Street Wilson                    PRECINCT 3060                                          01 
01420030009000040DEM       US Representative, District 21                          Mary Street Wilson                    PRECINCT 4050                                          01 
01420030010000006DEM       US Representative, District 21                          Mary Street Wilson                    PRECINCT 4070                                          01 
01420030011000040DEM       US Representative, District 21                          Mary Street Wilson                    PRECINCT 4100                                          01 
01420040001000045DEM       US Representative, District 21                          Joseph Kopser                         PRECINCT 1010                                          01 
01420040002000057DEM       US Representative, District 21                          Joseph Kopser                         PRECINCT 1110                                          01 
01420040003000023DEM       US Representative, District 21                          Joseph Kopser                         PRECINCT 2020                                          01 
01420040004000035DEM       US Representative, District 21                          Joseph Kopser                         PRECINCT 2080                                          01 
01420040005000045DEM       US Representative, District 21                          Joseph Kopser                         PRECINCT 2120                                          01 
01420040006000027DEM       US Representative, District 21                          Joseph Kopser                         PRECINCT 3030                                          01 
01420040007000032DEM       US Representative, District 21                          Joseph Kopser                         PRECINCT 3040                                          01 
01420040008000005DEM       US Representative, District 21                          Joseph Kopser                         PRECINCT 3060                                          01 
01420040009000027DEM       US Representative, District 21                          Joseph Kopser                         PRECINCT 4050                                          01 
01420040010000006DEM       US Representative, District 21                          Joseph Kopser                         PRECINCT 4070                                          01 
01420040011000044DEM       US Representative, District 21                          Joseph Kopser                         PRECINCT 4100                                          01 
01420050001000000DEM       US Representative, District 21                          OVER VOTES                            PRECINCT 1010                                          01 
01420050002000000DEM       US Representative, District 21                          OVER VOTES                            PRECINCT 1110                                          01 
01420050003000000DEM       US Representative, District 21                          OVER VOTES                            PRECINCT 2020                                          01 
01420050004000000DEM       US Representative, District 21                          OVER VOTES                            PRECINCT 2080                                          01 
01420050005000000DEM       US Representative, District 21                          OVER VOTES                            PRECINCT 2120                                          01 
01420050006000000DEM       US Representative, District 21                          OVER VOTES                            PRECINCT 3030                                          01 
01420050007000000DEM       US Representative, District 21                          OVER VOTES                            PRECINCT 3040                                          01 
01420050008000000DEM       US Representative, District 21                          OVER VOTES                            PRECINCT 3060                                          01 
01420050009000000DEM       US Representative, District 21                          OVER VOTES                            PRECINCT 4050                                          01 
01420050010000000DEM       US Representative, District 21                          OVER VOTES                            PRECINCT 4070                                          01 
01420050011000000DEM       US Representative, District 21                          OVER VOTES                            PRECINCT 4100                                          01 
01420060001000002DEM       US Representative, District 21                          UNDER VOTES                           PRECINCT 1010                                          01 
01420060002000009DEM       US Representative, District 21                          UNDER VOTES                           PRECINCT 1110                                          01 
01420060003000002DEM       US Representative, District 21                          UNDER VOTES                           PRECINCT 2020                                          01 
01420060004000002DEM       US Representative, District 21                          UNDER VOTES                           PRECINCT 2080                                          01 
01420060005000010DEM       US Representative, District 21                          UNDER VOTES                           PRECINCT 2120                                          01 
01420060006000002DEM       US Representative, District 21                          UNDER VOTES                           PRECINCT 3030                                          01 
01420060007000004DEM       US Representative, District 21                          UNDER VOTES                           PRECINCT 3040                                          01 
01420060008000001DEM       US Representative, District 21                          UNDER VOTES                           PRECINCT 3060                                          01 
01420060009000005DEM       US Representative, District 21                          UNDER VOTES                           PRECINCT 4050                                          01 
01420060010000000DEM       US Representative, District 21                          UNDER VOTES                           PRECINCT 4070                                          01 
01420060011000010DEM       US Representative, District 21                          UNDER VOTES                           PRECINCT 4100                                          01 
01430010001000004DEM       Governor                                                Adrian Ocegueda                       PRECINCT 1010                                          01 
01430010002000004DEM       Governor                                                Adrian Ocegueda                       PRECINCT 1110                                          01 
01430010003000003DEM       Governor                                                Adrian Ocegueda                       PRECINCT 2020                                          01 
01430010004000004DEM       Governor                                                Adrian Ocegueda                       PRECINCT 2080                                          01 
01430010005000009DEM       Governor                                                Adrian Ocegueda                       PRECINCT 2120                                          01 
01430010006000000DEM       Governor                                                Adrian Ocegueda                       PRECINCT 3030                                          01 
01430010007000011DEM       Governor                                                Adrian Ocegueda                       PRECINCT 3040                                          01 
01430010008000001DEM       Governor                                                Adrian Ocegueda                       PRECINCT 3060                                          01 
01430010009000007DEM       Governor                                                Adrian Ocegueda                       PRECINCT 4050                                          01 
01430010010000000DEM       Governor                                                Adrian Ocegueda                       PRECINCT 4070                                          01 
01430010011000004DEM       Governor                                                Adrian Ocegueda                       PRECINCT 4100                                          01 
01430020001000003DEM       Governor                                                Joe Mumbach                           PRECINCT 1010                                          01 
01430020002000003DEM       Governor                                                Joe Mumbach                           PRECINCT 1110                                          01 
01430020003000003DEM       Governor                                                Joe Mumbach                           PRECINCT 2020                                          01 
01430020004000001DEM       Governor                                                Joe Mumbach                           PRECINCT 2080                                          01 
01430020005000000DEM       Governor                                                Joe Mumbach                           PRECINCT 2120                                          01 
01430020006000001DEM       Governor                                                Joe Mumbach                           PRECINCT 3030                                          01 
01430020007000003DEM       Governor                                                Joe Mumbach                           PRECINCT 3040                                          01 
01430020008000000DEM       Governor                                                Joe Mumbach                           PRECINCT 3060                                          01 
01430020009000004DEM       Governor                                                Joe Mumbach                           PRECINCT 4050                                          01 
01430020010000000DEM       Governor                                                Joe Mumbach                           PRECINCT 4070                                          01 
01430020011000001DEM       Governor                                                Joe Mumbach                           PRECINCT 4100                                          01 
01430030001000004DEM       Governor                                                Jeffrey Payne                         PRECINCT 1010                                          01 
01430030002000002DEM       Governor                                                Jeffrey Payne                         PRECINCT 1110                                          01 
01430030003000003DEM       Governor                                                Jeffrey Payne                         PRECINCT 2020                                          01 
01430030004000008DEM       Governor                                                Jeffrey Payne                         PRECINCT 2080                                          01 
01430030005000017DEM       Governor                                                Jeffrey Payne                         PRECINCT 2120                                          01 
01430030006000004DEM       Governor                                                Jeffrey Payne                         PRECINCT 3030                                          01 
01430030007000009DEM       Governor                                                Jeffrey Payne                         PRECINCT 3040                                          01 
01430030008000000DEM       Governor                                                Jeffrey Payne                         PRECINCT 3060                                          01 
01430030009000007DEM       Governor                                                Jeffrey Payne                         PRECINCT 4050                                          01 
01430030010000003DEM       Governor                                                Jeffrey Payne                         PRECINCT 4070                                          01 
01430030011000002DEM       Governor                                                Jeffrey Payne                         PRECINCT 4100                                          01 
01430040001000011DEM       Governor                                                Grady Yarbrough                       PRECINCT 1010                                          01 
01430040002000010DEM       Governor                                                Grady Yarbrough                       PRECINCT 1110                                          01 
01430040003000002DEM       Governor                                                Grady Yarbrough                       PRECINCT 2020                                          01 
01430040004000001DEM       Governor                                                Grady Yarbrough                       PRECINCT 2080                                          01 
01430040005000003DEM       Governor                                                Grady Yarbrough                       PRECINCT 2120                                          01 
01430040006000005DEM       Governor                                                Grady Yarbrough                       PRECINCT 3030                                          01 
01430040007000006DEM       Governor                                                Grady Yarbrough                       PRECINCT 3040                                          01 
01430040008000000DEM       Governor                                                Grady Yarbrough                       PRECINCT 3060                                          01 
01430040009000009DEM       Governor                                                Grady Yarbrough                       PRECINCT 4050                                          01 
01430040010000002DEM       Governor                                                Grady Yarbrough                       PRECINCT 4070                                          01 
01430040011000008DEM       Governor                                                Grady Yarbrough                       PRECINCT 4100                                          01 
01430050001000030DEM       Governor                                                Lupe Valdez                           PRECINCT 1010                                          01 
01430050002000041DEM       Governor                                                Lupe Valdez                           PRECINCT 1110                                          01 
01430050003000014DEM       Governor                                                Lupe Valdez                           PRECINCT 2020                                          01 
01430050004000043DEM       Governor                                                Lupe Valdez                           PRECINCT 2080                                          01 
01430050005000047DEM       Governor                                                Lupe Valdez                           PRECINCT 2120                                          01 
01430050006000026DEM       Governor                                                Lupe Valdez                           PRECINCT 3030                                          01 
01430050007000033DEM       Governor                                                Lupe Valdez                           PRECINCT 3040                                          01 
01430050008000006DEM       Governor                                                Lupe Valdez                           PRECINCT 3060                                          01 
01430050009000032DEM       Governor                                                Lupe Valdez                           PRECINCT 4050                                          01 
01430050010000008DEM       Governor                                                Lupe Valdez                           PRECINCT 4070                                          01 
01430050011000038DEM       Governor                                                Lupe Valdez                           PRECINCT 4100                                          01 
01430060001000033DEM       Governor                                                Andrew White                          PRECINCT 1010                                          01 
01430060002000062DEM       Governor                                                Andrew White                          PRECINCT 1110                                          01 
01430060003000034DEM       Governor                                                Andrew White                          PRECINCT 2020                                          01 
01430060004000029DEM       Governor                                                Andrew White                          PRECINCT 2080                                          01 
01430060005000047DEM       Governor                                                Andrew White                          PRECINCT 2120                                          01 
01430060006000022DEM       Governor                                                Andrew White                          PRECINCT 3030                                          01 
01430060007000037DEM       Governor                                                Andrew White                          PRECINCT 3040                                          01 
01430060008000005DEM       Governor                                                Andrew White                          PRECINCT 3060                                          01 
01430060009000037DEM       Governor                                                Andrew White                          PRECINCT 4050                                          01 
01430060010000004DEM       Governor                                                Andrew White                          PRECINCT 4070                                          01 
01430060011000064DEM       Governor                                                Andrew White                          PRECINCT 4100                                          01 
01430070001000000DEM       Governor                                                Cedric Davis, Sr.                     PRECINCT 1010                                          01 
01430070002000004DEM       Governor                                                Cedric Davis, Sr.                     PRECINCT 1110                                          01 
01430070003000001DEM       Governor                                                Cedric Davis, Sr.                     PRECINCT 2020                                          01 
01430070004000002DEM       Governor                                                Cedric Davis, Sr.                     PRECINCT 2080                                          01 
01430070005000003DEM       Governor                                                Cedric Davis, Sr.                     PRECINCT 2120                                          01 
01430070006000002DEM       Governor                                                Cedric Davis, Sr.                     PRECINCT 3030                                          01 
01430070007000000DEM       Governor                                                Cedric Davis, Sr.                     PRECINCT 3040                                          01 
01430070008000000DEM       Governor                                                Cedric Davis, Sr.                     PRECINCT 3060                                          01 
01430070009000001DEM       Governor                                                Cedric Davis, Sr.                     PRECINCT 4050                                          01 
01430070010000000DEM       Governor                                                Cedric Davis, Sr.                     PRECINCT 4070                                          01 
01430070011000005DEM       Governor                                                Cedric Davis, Sr.                     PRECINCT 4100                                          01 
01430080001000001DEM       Governor                                                James Jolly Clark                     PRECINCT 1010                                          01 
01430080002000002DEM       Governor                                                James Jolly Clark                     PRECINCT 1110                                          01 
01430080003000000DEM       Governor                                                James Jolly Clark                     PRECINCT 2020                                          01 
01430080004000001DEM       Governor                                                James Jolly Clark                     PRECINCT 2080                                          01 
01430080005000001DEM       Governor                                                James Jolly Clark                     PRECINCT 2120                                          01 
01430080006000001DEM       Governor                                                James Jolly Clark                     PRECINCT 3030                                          01 
01430080007000000DEM       Governor                                                James Jolly Clark                     PRECINCT 3040                                          01 
01430080008000000DEM       Governor                                                James Jolly Clark                     PRECINCT 3060                                          01 
01430080009000002DEM       Governor                                                James Jolly Clark                     PRECINCT 4050                                          01 
01430080010000000DEM       Governor                                                James Jolly Clark                     PRECINCT 4070                                          01 
01430080011000004DEM       Governor                                                James Jolly Clark                     PRECINCT 4100                                          01 
01430090001000012DEM       Governor                                                Tom Wakely                            PRECINCT 1010                                          01 
01430090002000010DEM       Governor                                                Tom Wakely                            PRECINCT 1110                                          01 
01430090003000003DEM       Governor                                                Tom Wakely                            PRECINCT 2020                                          01 
01430090004000009DEM       Governor                                                Tom Wakely                            PRECINCT 2080                                          01 
01430090005000007DEM       Governor                                                Tom Wakely                            PRECINCT 2120                                          01 
01430090006000004DEM       Governor                                                Tom Wakely                            PRECINCT 3030                                          01 
01430090007000005DEM       Governor                                                Tom Wakely                            PRECINCT 3040                                          01 
01430090008000000DEM       Governor                                                Tom Wakely                            PRECINCT 3060                                          01 
01430090009000008DEM       Governor                                                Tom Wakely                            PRECINCT 4050                                          01 
01430090010000000DEM       Governor                                                Tom Wakely                            PRECINCT 4070                                          01 
01430090011000007DEM       Governor                                                Tom Wakely                            PRECINCT 4100                                          01 
01430100001000000DEM       Governor                                                OVER VOTES                            PRECINCT 1010                                          01 
01430100002000000DEM       Governor                                                OVER VOTES                            PRECINCT 1110                                          01 
01430100003000000DEM       Governor                                                OVER VOTES                            PRECINCT 2020                                          01 
01430100004000000DEM       Governor                                                OVER VOTES                            PRECINCT 2080                                          01 
01430100005000000DEM       Governor                                                OVER VOTES                            PRECINCT 2120                                          01 
01430100006000000DEM       Governor                                                OVER VOTES                            PRECINCT 3030                                          01 
01430100007000000DEM       Governor                                                OVER VOTES                            PRECINCT 3040                                          01 
01430100008000000DEM       Governor                                                OVER VOTES                            PRECINCT 3060                                          01 
01430100009000000DEM       Governor                                                OVER VOTES                            PRECINCT 4050                                          01 
01430100010000000DEM       Governor                                                OVER VOTES                            PRECINCT 4070                                          01 
01430100011000000DEM       Governor                                                OVER VOTES                            PRECINCT 4100                                          01 
01430110001000006DEM       Governor                                                UNDER VOTES                           PRECINCT 1010                                          01 
01430110002000012DEM       Governor                                                UNDER VOTES                           PRECINCT 1110                                          01 
01430110003000002DEM       Governor                                                UNDER VOTES                           PRECINCT 2020                                          01 
01430110004000002DEM       Governor                                                UNDER VOTES                           PRECINCT 2080                                          01 
01430110005000010DEM       Governor                                                UNDER VOTES                           PRECINCT 2120                                          01 
01430110006000004DEM       Governor                                                UNDER VOTES                           PRECINCT 3030                                          01 
01430110007000008DEM       Governor                                                UNDER VOTES                           PRECINCT 3040                                          01 
01430110008000001DEM       Governor                                                UNDER VOTES                           PRECINCT 3060                                          01 
01430110009000007DEM       Governor                                                UNDER VOTES                           PRECINCT 4050                                          01 
01430110010000000DEM       Governor                                                UNDER VOTES                           PRECINCT 4070                                          01 
01430110011000010DEM       Governor                                                UNDER VOTES                           PRECINCT 4100                                          01 
01440010001000034DEM       Lieutenant Governor                                     Michael Cooper                        PRECINCT 1010                                          01 
01440010002000043DEM       Lieutenant Governor                                     Michael Cooper                        PRECINCT 1110                                          01 
01440010003000020DEM       Lieutenant Governor                                     Michael Cooper                        PRECINCT 2020                                          01 
01440010004000023DEM       Lieutenant Governor                                     Michael Cooper                        PRECINCT 2080                                          01 
01440010005000054DEM       Lieutenant Governor                                     Michael Cooper                        PRECINCT 2120                                          01 
01440010006000022DEM       Lieutenant Governor                                     Michael Cooper                        PRECINCT 3030                                          01 
01440010007000034DEM       Lieutenant Governor                                     Michael Cooper                        PRECINCT 3040                                          01 
01440010008000003DEM       Lieutenant Governor                                     Michael Cooper                        PRECINCT 3060                                          01 
01440010009000044DEM       Lieutenant Governor                                     Michael Cooper                        PRECINCT 4050                                          01 
01440010010000006DEM       Lieutenant Governor                                     Michael Cooper                        PRECINCT 4070                                          01 
01440010011000039DEM       Lieutenant Governor                                     Michael Cooper                        PRECINCT 4100                                          01 
01440020001000057DEM       Lieutenant Governor                                     Mike Collier                          PRECINCT 1010                                          01 
01440020002000086DEM       Lieutenant Governor                                     Mike Collier                          PRECINCT 1110                                          01 
01440020003000043DEM       Lieutenant Governor                                     Mike Collier                          PRECINCT 2020                                          01 
01440020004000072DEM       Lieutenant Governor                                     Mike Collier                          PRECINCT 2080                                          01 
01440020005000075DEM       Lieutenant Governor                                     Mike Collier                          PRECINCT 2120                                          01 
01440020006000042DEM       Lieutenant Governor                                     Mike Collier                          PRECINCT 3030                                          01 
01440020007000067DEM       Lieutenant Governor                                     Mike Collier                          PRECINCT 3040                                          01 
01440020008000008DEM       Lieutenant Governor                                     Mike Collier                          PRECINCT 3060                                          01 
01440020009000062DEM       Lieutenant Governor                                     Mike Collier                          PRECINCT 4050                                          01 
01440020010000009DEM       Lieutenant Governor                                     Mike Collier                          PRECINCT 4070                                          01 
01440020011000086DEM       Lieutenant Governor                                     Mike Collier                          PRECINCT 4100                                          01 
01440030001000000DEM       Lieutenant Governor                                     OVER VOTES                            PRECINCT 1010                                          01 
01440030002000000DEM       Lieutenant Governor                                     OVER VOTES                            PRECINCT 1110                                          01 
01440030003000000DEM       Lieutenant Governor                                     OVER VOTES                            PRECINCT 2020                                          01 
01440030004000000DEM       Lieutenant Governor                                     OVER VOTES                            PRECINCT 2080                                          01 
01440030005000000DEM       Lieutenant Governor                                     OVER VOTES                            PRECINCT 2120                                          01 
01440030006000000DEM       Lieutenant Governor                                     OVER VOTES                            PRECINCT 3030                                          01 
01440030007000000DEM       Lieutenant Governor                                     OVER VOTES                            PRECINCT 3040                                          01 
01440030008000000DEM       Lieutenant Governor                                     OVER VOTES                            PRECINCT 3060                                          01 
01440030009000000DEM       Lieutenant Governor                                     OVER VOTES                            PRECINCT 4050                                          01 
01440030010000000DEM       Lieutenant Governor                                     OVER VOTES                            PRECINCT 4070                                          01 
01440030011000000DEM       Lieutenant Governor                                     OVER VOTES                            PRECINCT 4100                                          01 
01440040001000013DEM       Lieutenant Governor                                     UNDER VOTES                           PRECINCT 1010                                          01 
01440040002000021DEM       Lieutenant Governor                                     UNDER VOTES                           PRECINCT 1110                                          01 
01440040003000002DEM       Lieutenant Governor                                     UNDER VOTES                           PRECINCT 2020                                          01 
01440040004000005DEM       Lieutenant Governor                                     UNDER VOTES                           PRECINCT 2080                                          01 
01440040005000015DEM       Lieutenant Governor                                     UNDER VOTES                           PRECINCT 2120                                          01 
01440040006000005DEM       Lieutenant Governor                                     UNDER VOTES                           PRECINCT 3030                                          01 
01440040007000011DEM       Lieutenant Governor                                     UNDER VOTES                           PRECINCT 3040                                          01 
01440040008000002DEM       Lieutenant Governor                                     UNDER VOTES                           PRECINCT 3060                                          01 
01440040009000008DEM       Lieutenant Governor                                     UNDER VOTES                           PRECINCT 4050                                          01 
01440040010000002DEM       Lieutenant Governor                                     UNDER VOTES                           PRECINCT 4070                                          01 
01440040011000018DEM       Lieutenant Governor                                     UNDER VOTES                           PRECINCT 4100                                          01 
01450010001000085DEM       Attorney General                                        Justin Nelson                         PRECINCT 1010                                          01 
01450010002000119DEM       Attorney General                                        Justin Nelson                         PRECINCT 1110                                          01 
01450010003000060DEM       Attorney General                                        Justin Nelson                         PRECINCT 2020                                          01 
01450010004000087DEM       Attorney General                                        Justin Nelson                         PRECINCT 2080                                          01 
01450010005000126DEM       Attorney General                                        Justin Nelson                         PRECINCT 2120                                          01 
01450010006000060DEM       Attorney General                                        Justin Nelson                         PRECINCT 3030                                          01 
01450010007000090DEM       Attorney General                                        Justin Nelson                         PRECINCT 3040                                          01 
01450010008000012DEM       Attorney General                                        Justin Nelson                         PRECINCT 3060                                          01 
01450010009000101DEM       Attorney General                                        Justin Nelson                         PRECINCT 4050                                          01 
01450010010000016DEM       Attorney General                                        Justin Nelson                         PRECINCT 4070                                          01 
01450010011000115DEM       Attorney General                                        Justin Nelson                         PRECINCT 4100                                          01 
01450020001000000DEM       Attorney General                                        OVER VOTES                            PRECINCT 1010                                          01 
01450020002000000DEM       Attorney General                                        OVER VOTES                            PRECINCT 1110                                          01 
01450020003000000DEM       Attorney General                                        OVER VOTES                            PRECINCT 2020                                          01 
01450020004000000DEM       Attorney General                                        OVER VOTES                            PRECINCT 2080                                          01 
01450020005000000DEM       Attorney General                                        OVER VOTES                            PRECINCT 2120                                          01 
01450020006000000DEM       Attorney General                                        OVER VOTES                            PRECINCT 3030                                          01 
01450020007000000DEM       Attorney General                                        OVER VOTES                            PRECINCT 3040                                          01 
01450020008000000DEM       Attorney General                                        OVER VOTES                            PRECINCT 3060                                          01 
01450020009000000DEM       Attorney General                                        OVER VOTES                            PRECINCT 4050                                          01 
01450020010000000DEM       Attorney General                                        OVER VOTES                            PRECINCT 4070                                          01 
01450020011000000DEM       Attorney General                                        OVER VOTES                            PRECINCT 4100                                          01 
01450030001000019DEM       Attorney General                                        UNDER VOTES                           PRECINCT 1010                                          01 
01450030002000031DEM       Attorney General                                        UNDER VOTES                           PRECINCT 1110                                          01 
01450030003000005DEM       Attorney General                                        UNDER VOTES                           PRECINCT 2020                                          01 
01450030004000013DEM       Attorney General                                        UNDER VOTES                           PRECINCT 2080                                          01 
01450030005000018DEM       Attorney General                                        UNDER VOTES                           PRECINCT 2120                                          01 
01450030006000009DEM       Attorney General                                        UNDER VOTES                           PRECINCT 3030                                          01 
01450030007000022DEM       Attorney General                                        UNDER VOTES                           PRECINCT 3040                                          01 
01450030008000001DEM       Attorney General                                        UNDER VOTES                           PRECINCT 3060                                          01 
01450030009000013DEM       Attorney General                                        UNDER VOTES                           PRECINCT 4050                                          01 
01450030010000001DEM       Attorney General                                        UNDER VOTES                           PRECINCT 4070                                          01 
01450030011000028DEM       Attorney General                                        UNDER VOTES                           PRECINCT 4100                                          01 
01460010001000051DEM       Comptroller of Public Accounts                          Joi Chevalier                         PRECINCT 1010                                          01 
01460010002000078DEM       Comptroller of Public Accounts                          Joi Chevalier                         PRECINCT 1110                                          01 
01460010003000036DEM       Comptroller of Public Accounts                          Joi Chevalier                         PRECINCT 2020                                          01 
01460010004000050DEM       Comptroller of Public Accounts                          Joi Chevalier                         PRECINCT 2080                                          01 
01460010005000072DEM       Comptroller of Public Accounts                          Joi Chevalier                         PRECINCT 2120                                          01 
01460010006000035DEM       Comptroller of Public Accounts                          Joi Chevalier                         PRECINCT 3030                                          01 
01460010007000053DEM       Comptroller of Public Accounts                          Joi Chevalier                         PRECINCT 3040                                          01 
01460010008000007DEM       Comptroller of Public Accounts                          Joi Chevalier                         PRECINCT 3060                                          01 
01460010009000058DEM       Comptroller of Public Accounts                          Joi Chevalier                         PRECINCT 4050                                          01 
01460010010000008DEM       Comptroller of Public Accounts                          Joi Chevalier                         PRECINCT 4070                                          01 
01460010011000071DEM       Comptroller of Public Accounts                          Joi Chevalier                         PRECINCT 4100                                          01 
01460020001000038DEM       Comptroller of Public Accounts                          Tim Mahoney                           PRECINCT 1010                                          01 
01460020002000046DEM       Comptroller of Public Accounts                          Tim Mahoney                           PRECINCT 1110                                          01 
01460020003000025DEM       Comptroller of Public Accounts                          Tim Mahoney                           PRECINCT 2020                                          01 
01460020004000034DEM       Comptroller of Public Accounts                          Tim Mahoney                           PRECINCT 2080                                          01 
01460020005000051DEM       Comptroller of Public Accounts                          Tim Mahoney                           PRECINCT 2120                                          01 
01460020006000029DEM       Comptroller of Public Accounts                          Tim Mahoney                           PRECINCT 3030                                          01 
01460020007000044DEM       Comptroller of Public Accounts                          Tim Mahoney                           PRECINCT 3040                                          01 
01460020008000004DEM       Comptroller of Public Accounts                          Tim Mahoney                           PRECINCT 3060                                          01 
01460020009000044DEM       Comptroller of Public Accounts                          Tim Mahoney                           PRECINCT 4050                                          01 
01460020010000007DEM       Comptroller of Public Accounts                          Tim Mahoney                           PRECINCT 4070                                          01 
01460020011000045DEM       Comptroller of Public Accounts                          Tim Mahoney                           PRECINCT 4100                                          01 
01460030001000000DEM       Comptroller of Public Accounts                          OVER VOTES                            PRECINCT 1010                                          01 
01460030002000000DEM       Comptroller of Public Accounts                          OVER VOTES                            PRECINCT 1110                                          01 
01460030003000000DEM       Comptroller of Public Accounts                          OVER VOTES                            PRECINCT 2020                                          01 
01460030004000000DEM       Comptroller of Public Accounts                          OVER VOTES                            PRECINCT 2080                                          01 
01460030005000000DEM       Comptroller of Public Accounts                          OVER VOTES                            PRECINCT 2120                                          01 
01460030006000000DEM       Comptroller of Public Accounts                          OVER VOTES                            PRECINCT 3030                                          01 
01460030007000000DEM       Comptroller of Public Accounts                          OVER VOTES                            PRECINCT 3040                                          01 
01460030008000000DEM       Comptroller of Public Accounts                          OVER VOTES                            PRECINCT 3060                                          01 
01460030009000000DEM       Comptroller of Public Accounts                          OVER VOTES                            PRECINCT 4050                                          01 
01460030010000000DEM       Comptroller of Public Accounts                          OVER VOTES                            PRECINCT 4070                                          01 
01460030011000000DEM       Comptroller of Public Accounts                          OVER VOTES                            PRECINCT 4100                                          01 
01460040001000015DEM       Comptroller of Public Accounts                          UNDER VOTES                           PRECINCT 1010                                          01 
01460040002000026DEM       Comptroller of Public Accounts                          UNDER VOTES                           PRECINCT 1110                                          01 
01460040003000004DEM       Comptroller of Public Accounts                          UNDER VOTES                           PRECINCT 2020                                          01 
01460040004000016DEM       Comptroller of Public Accounts                          UNDER VOTES                           PRECINCT 2080                                          01 
01460040005000021DEM       Comptroller of Public Accounts                          UNDER VOTES                           PRECINCT 2120                                          01 
01460040006000005DEM       Comptroller of Public Accounts                          UNDER VOTES                           PRECINCT 3030                                          01 
01460040007000015DEM       Comptroller of Public Accounts                          UNDER VOTES                           PRECINCT 3040                                          01 
01460040008000002DEM       Comptroller of Public Accounts                          UNDER VOTES                           PRECINCT 3060                                          01 
01460040009000012DEM       Comptroller of Public Accounts                          UNDER VOTES                           PRECINCT 4050                                          01 
01460040010000002DEM       Comptroller of Public Accounts                          UNDER VOTES                           PRECINCT 4070                                          01 
01460040011000027DEM       Comptroller of Public Accounts                          UNDER VOTES                           PRECINCT 4100                                          01 
01470010001000060DEM       Commissioner of the General Land Office                 Miguel Suazo                          PRECINCT 1010                                          01 
01470010002000094DEM       Commissioner of the General Land Office                 Miguel Suazo                          PRECINCT 1110                                          01 
01470010003000041DEM       Commissioner of the General Land Office                 Miguel Suazo                          PRECINCT 2020                                          01 
01470010004000063DEM       Commissioner of the General Land Office                 Miguel Suazo                          PRECINCT 2080                                          01 
01470010005000093DEM       Commissioner of the General Land Office                 Miguel Suazo                          PRECINCT 2120                                          01 
01470010006000034DEM       Commissioner of the General Land Office                 Miguel Suazo                          PRECINCT 3030                                          01 
01470010007000069DEM       Commissioner of the General Land Office                 Miguel Suazo                          PRECINCT 3040                                          01 
01470010008000008DEM       Commissioner of the General Land Office                 Miguel Suazo                          PRECINCT 3060                                          01 
01470010009000071DEM       Commissioner of the General Land Office                 Miguel Suazo                          PRECINCT 4050                                          01 
01470010010000012DEM       Commissioner of the General Land Office                 Miguel Suazo                          PRECINCT 4070                                          01 
01470010011000085DEM       Commissioner of the General Land Office                 Miguel Suazo                          PRECINCT 4100                                          01 
01470020001000031DEM       Commissioner of the General Land Office                 Tex Morgan                            PRECINCT 1010                                          01 
01470020002000032DEM       Commissioner of the General Land Office                 Tex Morgan                            PRECINCT 1110                                          01 
01470020003000019DEM       Commissioner of the General Land Office                 Tex Morgan                            PRECINCT 2020                                          01 
01470020004000022DEM       Commissioner of the General Land Office                 Tex Morgan                            PRECINCT 2080                                          01 
01470020005000031DEM       Commissioner of the General Land Office                 Tex Morgan                            PRECINCT 2120                                          01 
01470020006000030DEM       Commissioner of the General Land Office                 Tex Morgan                            PRECINCT 3030                                          01 
01470020007000027DEM       Commissioner of the General Land Office                 Tex Morgan                            PRECINCT 3040                                          01 
01470020008000003DEM       Commissioner of the General Land Office                 Tex Morgan                            PRECINCT 3060                                          01 
01470020009000033DEM       Commissioner of the General Land Office                 Tex Morgan                            PRECINCT 4050                                          01 
01470020010000003DEM       Commissioner of the General Land Office                 Tex Morgan                            PRECINCT 4070                                          01 
01470020011000033DEM       Commissioner of the General Land Office                 Tex Morgan                            PRECINCT 4100                                          01 
01470030001000000DEM       Commissioner of the General Land Office                 OVER VOTES                            PRECINCT 1010                                          01 
01470030002000000DEM       Commissioner of the General Land Office                 OVER VOTES                            PRECINCT 1110                                          01 
01470030003000000DEM       Commissioner of the General Land Office                 OVER VOTES                            PRECINCT 2020                                          01 
01470030004000000DEM       Commissioner of the General Land Office                 OVER VOTES                            PRECINCT 2080                                          01 
01470030005000000DEM       Commissioner of the General Land Office                 OVER VOTES                            PRECINCT 2120                                          01 
01470030006000000DEM       Commissioner of the General Land Office                 OVER VOTES                            PRECINCT 3030                                          01 
01470030007000000DEM       Commissioner of the General Land Office                 OVER VOTES                            PRECINCT 3040                                          01 
01470030008000000DEM       Commissioner of the General Land Office                 OVER VOTES                            PRECINCT 3060                                          01 
01470030009000000DEM       Commissioner of the General Land Office                 OVER VOTES                            PRECINCT 4050                                          01 
01470030010000000DEM       Commissioner of the General Land Office                 OVER VOTES                            PRECINCT 4070                                          01 
01470030011000000DEM       Commissioner of the General Land Office                 OVER VOTES                            PRECINCT 4100                                          01 
01470040001000013DEM       Commissioner of the General Land Office                 UNDER VOTES                           PRECINCT 1010                                          01 
01470040002000024DEM       Commissioner of the General Land Office                 UNDER VOTES                           PRECINCT 1110                                          01 
01470040003000005DEM       Commissioner of the General Land Office                 UNDER VOTES                           PRECINCT 2020                                          01 
01470040004000015DEM       Commissioner of the General Land Office                 UNDER VOTES                           PRECINCT 2080                                          01 
01470040005000020DEM       Commissioner of the General Land Office                 UNDER VOTES                           PRECINCT 2120                                          01 
01470040006000005DEM       Commissioner of the General Land Office                 UNDER VOTES                           PRECINCT 3030                                          01 
01470040007000016DEM       Commissioner of the General Land Office                 UNDER VOTES                           PRECINCT 3040                                          01 
01470040008000002DEM       Commissioner of the General Land Office                 UNDER VOTES                           PRECINCT 3060                                          01 
01470040009000010DEM       Commissioner of the General Land Office                 UNDER VOTES                           PRECINCT 4050                                          01 
01470040010000002DEM       Commissioner of the General Land Office                 UNDER VOTES                           PRECINCT 4070                                          01 
01470040011000025DEM       Commissioner of the General Land Office                 UNDER VOTES                           PRECINCT 4100                                          01 
01480010001000082DEM       Commissioner of Agriculture                             Kim Olson                             PRECINCT 1010                                          01 
01480010002000116DEM       Commissioner of Agriculture                             Kim Olson                             PRECINCT 1110                                          01 
01480010003000061DEM       Commissioner of Agriculture                             Kim Olson                             PRECINCT 2020                                          01 
01480010004000083DEM       Commissioner of Agriculture                             Kim Olson                             PRECINCT 2080                                          01 
01480010005000124DEM       Commissioner of Agriculture                             Kim Olson                             PRECINCT 2120                                          01 
01480010006000062DEM       Commissioner of Agriculture                             Kim Olson                             PRECINCT 3030                                          01 
01480010007000096DEM       Commissioner of Agriculture                             Kim Olson                             PRECINCT 3040                                          01 
01480010008000012DEM       Commissioner of Agriculture                             Kim Olson                             PRECINCT 3060                                          01 
01480010009000100DEM       Commissioner of Agriculture                             Kim Olson                             PRECINCT 4050                                          01 
01480010010000016DEM       Commissioner of Agriculture                             Kim Olson                             PRECINCT 4070                                          01 
01480010011000115DEM       Commissioner of Agriculture                             Kim Olson                             PRECINCT 4100                                          01 
01480020001000000DEM       Commissioner of Agriculture                             OVER VOTES                            PRECINCT 1010                                          01 
01480020002000000DEM       Commissioner of Agriculture                             OVER VOTES                            PRECINCT 1110                                          01 
01480020003000000DEM       Commissioner of Agriculture                             OVER VOTES                            PRECINCT 2020                                          01 
01480020004000000DEM       Commissioner of Agriculture                             OVER VOTES                            PRECINCT 2080                                          01 
01480020005000000DEM       Commissioner of Agriculture                             OVER VOTES                            PRECINCT 2120                                          01 
01480020006000000DEM       Commissioner of Agriculture                             OVER VOTES                            PRECINCT 3030                                          01 
01480020007000000DEM       Commissioner of Agriculture                             OVER VOTES                            PRECINCT 3040                                          01 
01480020008000000DEM       Commissioner of Agriculture                             OVER VOTES                            PRECINCT 3060                                          01 
01480020009000000DEM       Commissioner of Agriculture                             OVER VOTES                            PRECINCT 4050                                          01 
01480020010000000DEM       Commissioner of Agriculture                             OVER VOTES                            PRECINCT 4070                                          01 
01480020011000000DEM       Commissioner of Agriculture                             OVER VOTES                            PRECINCT 4100                                          01 
01480030001000022DEM       Commissioner of Agriculture                             UNDER VOTES                           PRECINCT 1010                                          01 
01480030002000034DEM       Commissioner of Agriculture                             UNDER VOTES                           PRECINCT 1110                                          01 
01480030003000004DEM       Commissioner of Agriculture                             UNDER VOTES                           PRECINCT 2020                                          01 
01480030004000017DEM       Commissioner of Agriculture                             UNDER VOTES                           PRECINCT 2080                                          01 
01480030005000020DEM       Commissioner of Agriculture                             UNDER VOTES                           PRECINCT 2120                                          01 
01480030006000007DEM       Commissioner of Agriculture                             UNDER VOTES                           PRECINCT 3030                                          01 
01480030007000016DEM       Commissioner of Agriculture                             UNDER VOTES                           PRECINCT 3040                                          01 
01480030008000001DEM       Commissioner of Agriculture                             UNDER VOTES                           PRECINCT 3060                                          01 
01480030009000014DEM       Commissioner of Agriculture                             UNDER VOTES                           PRECINCT 4050                                          01 
01480030010000001DEM       Commissioner of Agriculture                             UNDER VOTES                           PRECINCT 4070                                          01 
01480030011000028DEM       Commissioner of Agriculture                             UNDER VOTES                           PRECINCT 4100                                          01 
01490010001000041DEM       Railroad Commissioner                                   Chris Spellmon                        PRECINCT 1010                                          01 
01490010002000049DEM       Railroad Commissioner                                   Chris Spellmon                        PRECINCT 1110                                          01 
01490010003000027DEM       Railroad Commissioner                                   Chris Spellmon                        PRECINCT 2020                                          01 
01490010004000041DEM       Railroad Commissioner                                   Chris Spellmon                        PRECINCT 2080                                          01 
01490010005000065DEM       Railroad Commissioner                                   Chris Spellmon                        PRECINCT 2120                                          01 
01490010006000027DEM       Railroad Commissioner                                   Chris Spellmon                        PRECINCT 3030                                          01 
01490010007000039DEM       Railroad Commissioner                                   Chris Spellmon                        PRECINCT 3040                                          01 
01490010008000003DEM       Railroad Commissioner                                   Chris Spellmon                        PRECINCT 3060                                          01 
01490010009000047DEM       Railroad Commissioner                                   Chris Spellmon                        PRECINCT 4050                                          01 
01490010010000008DEM       Railroad Commissioner                                   Chris Spellmon                        PRECINCT 4070                                          01 
01490010011000047DEM       Railroad Commissioner                                   Chris Spellmon                        PRECINCT 4100                                          01 
01490020001000051DEM       Railroad Commissioner                                   Roman McAllen                         PRECINCT 1010                                          01 
01490020002000074DEM       Railroad Commissioner                                   Roman McAllen                         PRECINCT 1110                                          01 
01490020003000032DEM       Railroad Commissioner                                   Roman McAllen                         PRECINCT 2020                                          01 
01490020004000040DEM       Railroad Commissioner                                   Roman McAllen                         PRECINCT 2080                                          01 
01490020005000060DEM       Railroad Commissioner                                   Roman McAllen                         PRECINCT 2120                                          01 
01490020006000036DEM       Railroad Commissioner                                   Roman McAllen                         PRECINCT 3030                                          01 
01490020007000053DEM       Railroad Commissioner                                   Roman McAllen                         PRECINCT 3040                                          01 
01490020008000008DEM       Railroad Commissioner                                   Roman McAllen                         PRECINCT 3060                                          01 
01490020009000053DEM       Railroad Commissioner                                   Roman McAllen                         PRECINCT 4050                                          01 
01490020010000007DEM       Railroad Commissioner                                   Roman McAllen                         PRECINCT 4070                                          01 
01490020011000069DEM       Railroad Commissioner                                   Roman McAllen                         PRECINCT 4100                                          01 
01490030001000000DEM       Railroad Commissioner                                   OVER VOTES                            PRECINCT 1010                                          01 
01490030002000000DEM       Railroad Commissioner                                   OVER VOTES                            PRECINCT 1110                                          01 
01490030003000000DEM       Railroad Commissioner                                   OVER VOTES                            PRECINCT 2020                                          01 
01490030004000000DEM       Railroad Commissioner                                   OVER VOTES                            PRECINCT 2080                                          01 
01490030005000000DEM       Railroad Commissioner                                   OVER VOTES                            PRECINCT 2120                                          01 
01490030006000000DEM       Railroad Commissioner                                   OVER VOTES                            PRECINCT 3030                                          01 
01490030007000000DEM       Railroad Commissioner                                   OVER VOTES                            PRECINCT 3040                                          01 
01490030008000000DEM       Railroad Commissioner                                   OVER VOTES                            PRECINCT 3060                                          01 
01490030009000000DEM       Railroad Commissioner                                   OVER VOTES                            PRECINCT 4050                                          01 
01490030010000000DEM       Railroad Commissioner                                   OVER VOTES                            PRECINCT 4070                                          01 
01490030011000000DEM       Railroad Commissioner                                   OVER VOTES                            PRECINCT 4100                                          01 
01490040001000012DEM       Railroad Commissioner                                   UNDER VOTES                           PRECINCT 1010                                          01 
01490040002000027DEM       Railroad Commissioner                                   UNDER VOTES                           PRECINCT 1110                                          01 
01490040003000006DEM       Railroad Commissioner                                   UNDER VOTES                           PRECINCT 2020                                          01 
01490040004000019DEM       Railroad Commissioner                                   UNDER VOTES                           PRECINCT 2080                                          01 
01490040005000019DEM       Railroad Commissioner                                   UNDER VOTES                           PRECINCT 2120                                          01 
01490040006000006DEM       Railroad Commissioner                                   UNDER VOTES                           PRECINCT 3030                                          01 
01490040007000020DEM       Railroad Commissioner                                   UNDER VOTES                           PRECINCT 3040                                          01 
01490040008000002DEM       Railroad Commissioner                                   UNDER VOTES                           PRECINCT 3060                                          01 
01490040009000014DEM       Railroad Commissioner                                   UNDER VOTES                           PRECINCT 4050                                          01 
01490040010000002DEM       Railroad Commissioner                                   UNDER VOTES                           PRECINCT 4070                                          01 
01490040011000027DEM       Railroad Commissioner                                   UNDER VOTES                           PRECINCT 4100                                          01 
01500010001000084DEM       Justice, Supreme Court, Place 2                         Steven Kirkland                       PRECINCT 1010                                          01 
01500010002000110DEM       Justice, Supreme Court, Place 2                         Steven Kirkland                       PRECINCT 1110                                          01 
01500010003000059DEM       Justice, Supreme Court, Place 2                         Steven Kirkland                       PRECINCT 2020                                          01 
01500010004000085DEM       Justice, Supreme Court, Place 2                         Steven Kirkland                       PRECINCT 2080                                          01 
01500010005000124DEM       Justice, Supreme Court, Place 2                         Steven Kirkland                       PRECINCT 2120                                          01 
01500010006000063DEM       Justice, Supreme Court, Place 2                         Steven Kirkland                       PRECINCT 3030                                          01 
01500010007000092DEM       Justice, Supreme Court, Place 2                         Steven Kirkland                       PRECINCT 3040                                          01 
01500010008000012DEM       Justice, Supreme Court, Place 2                         Steven Kirkland                       PRECINCT 3060                                          01 
01500010009000099DEM       Justice, Supreme Court, Place 2                         Steven Kirkland                       PRECINCT 4050                                          01 
01500010010000015DEM       Justice, Supreme Court, Place 2                         Steven Kirkland                       PRECINCT 4070                                          01 
01500010011000110DEM       Justice, Supreme Court, Place 2                         Steven Kirkland                       PRECINCT 4100                                          01 
01500020001000000DEM       Justice, Supreme Court, Place 2                         OVER VOTES                            PRECINCT 1010                                          01 
01500020002000000DEM       Justice, Supreme Court, Place 2                         OVER VOTES                            PRECINCT 1110                                          01 
01500020003000000DEM       Justice, Supreme Court, Place 2                         OVER VOTES                            PRECINCT 2020                                          01 
01500020004000000DEM       Justice, Supreme Court, Place 2                         OVER VOTES                            PRECINCT 2080                                          01 
01500020005000000DEM       Justice, Supreme Court, Place 2                         OVER VOTES                            PRECINCT 2120                                          01 
01500020006000000DEM       Justice, Supreme Court, Place 2                         OVER VOTES                            PRECINCT 3030                                          01 
01500020007000000DEM       Justice, Supreme Court, Place 2                         OVER VOTES                            PRECINCT 3040                                          01 
01500020008000000DEM       Justice, Supreme Court, Place 2                         OVER VOTES                            PRECINCT 3060                                          01 
01500020009000000DEM       Justice, Supreme Court, Place 2                         OVER VOTES                            PRECINCT 4050                                          01 
01500020010000000DEM       Justice, Supreme Court, Place 2                         OVER VOTES                            PRECINCT 4070                                          01 
01500020011000000DEM       Justice, Supreme Court, Place 2                         OVER VOTES                            PRECINCT 4100                                          01 
01500030001000020DEM       Justice, Supreme Court, Place 2                         UNDER VOTES                           PRECINCT 1010                                          01 
01500030002000040DEM       Justice, Supreme Court, Place 2                         UNDER VOTES                           PRECINCT 1110                                          01 
01500030003000006DEM       Justice, Supreme Court, Place 2                         UNDER VOTES                           PRECINCT 2020                                          01 
01500030004000015DEM       Justice, Supreme Court, Place 2                         UNDER VOTES                           PRECINCT 2080                                          01 
01500030005000020DEM       Justice, Supreme Court, Place 2                         UNDER VOTES                           PRECINCT 2120                                          01 
01500030006000006DEM       Justice, Supreme Court, Place 2                         UNDER VOTES                           PRECINCT 3030                                          01 
01500030007000020DEM       Justice, Supreme Court, Place 2                         UNDER VOTES                           PRECINCT 3040                                          01 
01500030008000001DEM       Justice, Supreme Court, Place 2                         UNDER VOTES                           PRECINCT 3060                                          01 
01500030009000015DEM       Justice, Supreme Court, Place 2                         UNDER VOTES                           PRECINCT 4050                                          01 
01500030010000002DEM       Justice, Supreme Court, Place 2                         UNDER VOTES                           PRECINCT 4070                                          01 
01500030011000033DEM       Justice, Supreme Court, Place 2                         UNDER VOTES                           PRECINCT 4100                                          01 
01510010001000083DEM       Justice, Supreme Court, Place 4                         R.K. Sandill                          PRECINCT 1010                                          01 
01510010002000114DEM       Justice, Supreme Court, Place 4                         R.K. Sandill                          PRECINCT 1110                                          01 
01510010003000059DEM       Justice, Supreme Court, Place 4                         R.K. Sandill                          PRECINCT 2020                                          01 
01510010004000087DEM       Justice, Supreme Court, Place 4                         R.K. Sandill                          PRECINCT 2080                                          01 
01510010005000121DEM       Justice, Supreme Court, Place 4                         R.K. Sandill                          PRECINCT 2120                                          01 
01510010006000062DEM       Justice, Supreme Court, Place 4                         R.K. Sandill                          PRECINCT 3030                                          01 
01510010007000091DEM       Justice, Supreme Court, Place 4                         R.K. Sandill                          PRECINCT 3040                                          01 
01510010008000012DEM       Justice, Supreme Court, Place 4                         R.K. Sandill                          PRECINCT 3060                                          01 
01510010009000094DEM       Justice, Supreme Court, Place 4                         R.K. Sandill                          PRECINCT 4050                                          01 
01510010010000015DEM       Justice, Supreme Court, Place 4                         R.K. Sandill                          PRECINCT 4070                                          01 
01510010011000112DEM       Justice, Supreme Court, Place 4                         R.K. Sandill                          PRECINCT 4100                                          01 
01510020001000000DEM       Justice, Supreme Court, Place 4                         OVER VOTES                            PRECINCT 1010                                          01 
01510020002000000DEM       Justice, Supreme Court, Place 4                         OVER VOTES                            PRECINCT 1110                                          01 
01510020003000000DEM       Justice, Supreme Court, Place 4                         OVER VOTES                            PRECINCT 2020                                          01 
01510020004000000DEM       Justice, Supreme Court, Place 4                         OVER VOTES                            PRECINCT 2080                                          01 
01510020005000000DEM       Justice, Supreme Court, Place 4                         OVER VOTES                            PRECINCT 2120                                          01 
01510020006000000DEM       Justice, Supreme Court, Place 4                         OVER VOTES                            PRECINCT 3030                                          01 
01510020007000000DEM       Justice, Supreme Court, Place 4                         OVER VOTES                            PRECINCT 3040                                          01 
01510020008000000DEM       Justice, Supreme Court, Place 4                         OVER VOTES                            PRECINCT 3060                                          01 
01510020009000000DEM       Justice, Supreme Court, Place 4                         OVER VOTES                            PRECINCT 4050                                          01 
01510020010000000DEM       Justice, Supreme Court, Place 4                         OVER VOTES                            PRECINCT 4070                                          01 
01510020011000000DEM       Justice, Supreme Court, Place 4                         OVER VOTES                            PRECINCT 4100                                          01 
01510030001000021DEM       Justice, Supreme Court, Place 4                         UNDER VOTES                           PRECINCT 1010                                          01 
01510030002000036DEM       Justice, Supreme Court, Place 4                         UNDER VOTES                           PRECINCT 1110                                          01 
01510030003000006DEM       Justice, Supreme Court, Place 4                         UNDER VOTES                           PRECINCT 2020                                          01 
01510030004000013DEM       Justice, Supreme Court, Place 4                         UNDER VOTES                           PRECINCT 2080                                          01 
01510030005000023DEM       Justice, Supreme Court, Place 4                         UNDER VOTES                           PRECINCT 2120                                          01 
01510030006000007DEM       Justice, Supreme Court, Place 4                         UNDER VOTES                           PRECINCT 3030                                          01 
01510030007000021DEM       Justice, Supreme Court, Place 4                         UNDER VOTES                           PRECINCT 3040                                          01 
01510030008000001DEM       Justice, Supreme Court, Place 4                         UNDER VOTES                           PRECINCT 3060                                          01 
01510030009000020DEM       Justice, Supreme Court, Place 4                         UNDER VOTES                           PRECINCT 4050                                          01 
01510030010000002DEM       Justice, Supreme Court, Place 4                         UNDER VOTES                           PRECINCT 4070                                          01 
01510030011000031DEM       Justice, Supreme Court, Place 4                         UNDER VOTES                           PRECINCT 4100                                          01 
01520010001000084DEM       Justice, Supreme Court, Place 6                         Kathy Cheng                           PRECINCT 1010                                          01 
01520010002000116DEM       Justice, Supreme Court, Place 6                         Kathy Cheng                           PRECINCT 1110                                          01 
