01050010001000002REP       US Senator                                              Ted Cruz                              PRECINCT 1010                                          01 
01050010002000001REP       US Senator                                              Ted Cruz                              PRECINCT 1110                                          01 
01050010003000002REP       US Senator                                              Ted Cruz                              PRECINCT 2020                                          01 
01050010004000001REP       US Senator                                              Ted Cruz                              PRECINCT 2080                                          01 
01050010005000001REP       US Senator                                              Ted Cruz                              PRECINCT 2120                                          01 
01050010006000002REP       US Senator                                              Ted Cruz                              PRECINCT 3030                                          01 
01050010007000001REP       US Senator                                              Ted Cruz                              PRECINCT 3040                                          01 
01050010008000001REP       US Senator                                              Ted Cruz                              PRECINCT 3060                                          01 
01050010009000002REP       US Senator                                              Ted Cruz                              PRECINCT 4050                                          01 
01050010010000001REP       US Senator                                              Ted Cruz                              PRECINCT 4070                                          01 
01050010011000001REP       US Senator                                              Ted Cruz                              PRECINCT 4100                                          01 
01050020001000001REP       US Senator                                              Geraldine Sam                         PRECINCT 1010                                          01 
01050020002000000REP       US Senator                                              Geraldine Sam                         PRECINCT 1110                                          01 
01050020003000002REP       US Senator                                              Geraldine Sam                         PRECINCT 2020                                          01 
01050020004000000REP       US Senator                                              Geraldine Sam                         PRECINCT 2080                                          01 
01050020005000000REP       US Senator                                              Geraldine Sam                         PRECINCT 2120                                          01 
01050020006000001REP       US Senator                                              Geraldine Sam                         PRECINCT 3030                                          01 
01050020007000001REP       US Senator                                              Geraldine Sam                         PRECINCT 3040                                          01 
01050020008000000REP       US Senator                                              Geraldine Sam                         PRECINCT 3060                                          01 
01050020009000002REP       US Senator                                              Geraldine Sam                         PRECINCT 4050                                          01 
01050020010000000REP       US Senator                                              Geraldine Sam                         PRECINCT 4070                                          01 
01050020011000000REP       US Senator                                              Geraldine Sam                         PRECINCT 4100                                          01 
01050030001000001REP       US Senator                                              Stefano de Stefano                    PRECINCT 1010                                          01 
01050030002000000REP       US Senator                                              Stefano de Stefano                    PRECINCT 1110                                          01 
01050030003000001REP       US Senator                                              Stefano de Stefano                    PRECINCT 2020                                          01 
01050030004000000REP       US Senator                                              Stefano de Stefano                    PRECINCT 2080                                          01 
01050030005000000REP       US Senator                                              Stefano de Stefano                    PRECINCT 2120                                          01 
01050030006000002REP       US Senator                                              Stefano de Stefano                    PRECINCT 3030                                          01 
01050030007000000REP       US Senator                                              Stefano de Stefano                    PRECINCT 3040                                          01 
01050030008000001REP       US Senator                                              Stefano de Stefano                    PRECINCT 3060                                          01 
01050030009000001REP       US Senator                                              Stefano de Stefano                    PRECINCT 4050                                          01 
01050030010000000REP       US Senator                                              Stefano de Stefano                    PRECINCT 4070                                          01 
01050030011000000REP       US Senator                                              Stefano de Stefano                    PRECINCT 4100                                          01 
01050040001000001REP       US Senator                                              Mary Miller                           PRECINCT 1010                                          01 
01050040002000000REP       US Senator                                              Mary Miller                           PRECINCT 1110                                          01 
01050040003000001REP       US Senator                                              Mary Miller                           PRECINCT 2020                                          01 
01050040004000000REP       US Senator                                              Mary Miller                           PRECINCT 2080                                          01 
01050040005000000REP       US Senator                                              Mary Miller                           PRECINCT 2120                                          01 
01050040006000001REP       US Senator                                              Mary Miller                           PRECINCT 3030                                          01 
01050040007000000REP       US Senator                                              Mary Miller                           PRECINCT 3040                                          01 
01050040008000000REP       US Senator                                              Mary Miller                           PRECINCT 3060                                          01 
01050040009000001REP       US Senator                                              Mary Miller                           PRECINCT 4050                                          01 
01050040010000001REP       US Senator                                              Mary Miller                           PRECINCT 4070                                          01 
01050040011000000REP       US Senator                                              Mary Miller                           PRECINCT 4100                                          01 
01050050001000002REP       US Senator                                              Bruce Jacobson, Jr.                   PRECINCT 1010                                          01 
01050050002000001REP       US Senator                                              Bruce Jacobson, Jr.                   PRECINCT 1110                                          01 
01050050003000001REP       US Senator                                              Bruce Jacobson, Jr.                   PRECINCT 2020                                          01 
01050050004000001REP       US Senator                                              Bruce Jacobson, Jr.                   PRECINCT 2080                                          01 
01050050005000001REP       US Senator                                              Bruce Jacobson, Jr.                   PRECINCT 2120                                          01 
01050050006000001REP       US Senator                                              Bruce Jacobson, Jr.                   PRECINCT 3030                                          01 
01050050007000000REP       US Senator                                              Bruce Jacobson, Jr.                   PRECINCT 3040                                          01 
01050050008000000REP       US Senator                                              Bruce Jacobson, Jr.                   PRECINCT 3060                                          01 
01050050009000001REP       US Senator                                              Bruce Jacobson, Jr.                   PRECINCT 4050                                          01 
01050050010000000REP       US Senator                                              Bruce Jacobson, Jr.                   PRECINCT 4070                                          01 
01050050011000001REP       US Senator                                              Bruce Jacobson, Jr.                   PRECINCT 4100                                          01 
01050060001000000REP       US Senator                                              OVER VOTES                            PRECINCT 1010                                          01 
01050060002000000REP       US Senator                                              OVER VOTES                            PRECINCT 1110                                          01 
01050060003000000REP       US Senator                                              OVER VOTES                            PRECINCT 2020                                          01 
01050060004000000REP       US Senator                                              OVER VOTES                            PRECINCT 2080                                          01 
01050060005000001REP       US Senator                                              OVER VOTES                            PRECINCT 2120                                          01 
01050060006000000REP       US Senator                                              OVER VOTES                            PRECINCT 3030                                          01 
01050060007000000REP       US Senator                                              OVER VOTES                            PRECINCT 3040                                          01 
01050060008000000REP       US Senator                                              OVER VOTES                            PRECINCT 3060                                          01 
01050060009000000REP       US Senator                                              OVER VOTES                            PRECINCT 4050                                          01 
01050060010000000REP       US Senator                                              OVER VOTES                            PRECINCT 4070                                          01 
01050060011000000REP       US Senator                                              OVER VOTES                            PRECINCT 4100                                          01 
01050070001000015REP       US Senator                                              UNDER VOTES                           PRECINCT 1010                                          01 
01050070002000001REP       US Senator                                              UNDER VOTES                           PRECINCT 1110                                          01 
01050070003000015REP       US Senator                                              UNDER VOTES                           PRECINCT 2020                                          01 
01050070004000001REP       US Senator                                              UNDER VOTES                           PRECINCT 2080                                          01 
01050070005000002REP       US Senator                                              UNDER VOTES                           PRECINCT 2120                                          01 
01050070006000015REP       US Senator                                              UNDER VOTES                           PRECINCT 3030                                          01 
01050070007000001REP       US Senator                                              UNDER VOTES                           PRECINCT 3040                                          01 
01050070008000001REP       US Senator                                              UNDER VOTES                           PRECINCT 3060                                          01 
01050070009000015REP       US Senator                                              UNDER VOTES                           PRECINCT 4050                                          01 
01050070010000001REP       US Senator                                              UNDER VOTES                           PRECINCT 4070                                          01 
01050070011000001REP       US Senator                                              UNDER VOTES                           PRECINCT 4100                                          01 
01060010001000002REP       US Representative, District 21                          Samuel Temple                         PRECINCT 1010                                          01 
01060010002000001REP       US Representative, District 21                          Samuel Temple                         PRECINCT 1110                                          01 
01060010003000002REP       US Representative, District 21                          Samuel Temple                         PRECINCT 2020                                          01 
01060010004000001REP       US Representative, District 21                          Samuel Temple                         PRECINCT 2080                                          01 
01060010005000001REP       US Representative, District 21                          Samuel Temple                         PRECINCT 2120                                          01 
01060010006000002REP       US Representative, District 21                          Samuel Temple                         PRECINCT 3030                                          01 
01060010007000001REP       US Representative, District 21                          Samuel Temple                         PRECINCT 3040                                          01 
01060010008000001REP       US Representative, District 21                          Samuel Temple                         PRECINCT 3060                                          01 
01060010009000002REP       US Representative, District 21                          Samuel Temple                         PRECINCT 4050                                          01 
01060010010000001REP       US Representative, District 21                          Samuel Temple                         PRECINCT 4070                                          01 
01060010011000001REP       US Representative, District 21                          Samuel Temple                         PRECINCT 4100                                          01 
01060020001000001REP       US Representative, District 21                          Jason Isaac                           PRECINCT 1010                                          01 
01060020002000000REP       US Representative, District 21                          Jason Isaac                           PRECINCT 1110                                          01 
01060020003000001REP       US Representative, District 21                          Jason Isaac                           PRECINCT 2020                                          01 
01060020004000000REP       US Representative, District 21                          Jason Isaac                           PRECINCT 2080                                          01 
01060020005000000REP       US Representative, District 21                          Jason Isaac                           PRECINCT 2120                                          01 
01060020006000001REP       US Representative, District 21                          Jason Isaac                           PRECINCT 3030                                          01 
01060020007000000REP       US Representative, District 21                          Jason Isaac                           PRECINCT 3040                                          01 
01060020008000000REP       US Representative, District 21                          Jason Isaac                           PRECINCT 3060                                          01 
01060020009000002REP       US Representative, District 21                          Jason Isaac                           PRECINCT 4050                                          01 
01060020010000000REP       US Representative, District 21                          Jason Isaac                           PRECINCT 4070                                          01 
01060020011000000REP       US Representative, District 21                          Jason Isaac                           PRECINCT 4100                                          01 
01060030001000001REP       US Representative, District 21                          Jenifer Sarver                        PRECINCT 1010                                          01 
01060030002000000REP       US Representative, District 21                          Jenifer Sarver                        PRECINCT 1110                                          01 
01060030003000001REP       US Representative, District 21                          Jenifer Sarver                        PRECINCT 2020                                          01 
01060030004000000REP       US Representative, District 21                          Jenifer Sarver                        PRECINCT 2080                                          01 
01060030005000000REP       US Representative, District 21                          Jenifer Sarver                        PRECINCT 2120                                          01 
01060030006000001REP       US Representative, District 21                          Jenifer Sarver                        PRECINCT 3030                                          01 
01060030007000001REP       US Representative, District 21                          Jenifer Sarver                        PRECINCT 3040                                          01 
01060030008000000REP       US Representative, District 21                          Jenifer Sarver                        PRECINCT 3060                                          01 
01060030009000001REP       US Representative, District 21                          Jenifer Sarver                        PRECINCT 4050                                          01 
01060030010000000REP       US Representative, District 21                          Jenifer Sarver                        PRECINCT 4070                                          01 
01060030011000000REP       US Representative, District 21                          Jenifer Sarver                        PRECINCT 4100                                          01 
01060040001000001REP       US Representative, District 21                          Ryan Krause                           PRECINCT 1010                                          01 
01060040002000000REP       US Representative, District 21                          Ryan Krause                           PRECINCT 1110                                          01 
01060040003000001REP       US Representative, District 21                          Ryan Krause                           PRECINCT 2020                                          01 
01060040004000001REP       US Representative, District 21                          Ryan Krause                           PRECINCT 2080                                          01 
01060040005000000REP       US Representative, District 21                          Ryan Krause                           PRECINCT 2120                                          01 
01060040006000001REP       US Representative, District 21                          Ryan Krause                           PRECINCT 3030                                          01 
01060040007000000REP       US Representative, District 21                          Ryan Krause                           PRECINCT 3040                                          01 
01060040008000000REP       US Representative, District 21                          Ryan Krause                           PRECINCT 3060                                          01 
01060040009000001REP       US Representative, District 21                          Ryan Krause                           PRECINCT 4050                                          01 
01060040010000000REP       US Representative, District 21                          Ryan Krause                           PRECINCT 4070                                          01 
01060040011000000REP       US Representative, District 21                          Ryan Krause                           PRECINCT 4100                                          01 
01060050001000001REP       US Representative, District 21                          Matt McCall                           PRECINCT 1010                                          01 
01060050002000000REP       US Representative, District 21                          Matt McCall                           PRECINCT 1110                                          01 
01060050003000001REP       US Representative, District 21                          Matt McCall                           PRECINCT 2020                                          01 
01060050004000000REP       US Representative, District 21                          Matt McCall                           PRECINCT 2080                                          01 
01060050005000000REP       US Representative, District 21                          Matt McCall                           PRECINCT 2120                                          01 
01060050006000001REP       US Representative, District 21                          Matt McCall                           PRECINCT 3030                                          01 
01060050007000000REP       US Representative, District 21                          Matt McCall                           PRECINCT 3040                                          01 
01060050008000000REP       US Representative, District 21                          Matt McCall                           PRECINCT 3060                                          01 
01060050009000001REP       US Representative, District 21                          Matt McCall                           PRECINCT 4050                                          01 
01060050010000000REP       US Representative, District 21                          Matt McCall                           PRECINCT 4070                                          01 
01060050011000000REP       US Representative, District 21                          Matt McCall                           PRECINCT 4100                                          01 
01060060001000001REP       US Representative, District 21                          Francisco "Quico" Canseco             PRECINCT 1010                                          01 
01060060002000001REP       US Representative, District 21                          Francisco "Quico" Canseco             PRECINCT 1110                                          01 
01060060003000001REP       US Representative, District 21                          Francisco "Quico" Canseco             PRECINCT 2020                                          01 
01060060004000000REP       US Representative, District 21                          Francisco "Quico" Canseco             PRECINCT 2080                                          01 
01060060005000000REP       US Representative, District 21                          Francisco "Quico" Canseco             PRECINCT 2120                                          01 
01060060006000001REP       US Representative, District 21                          Francisco "Quico" Canseco             PRECINCT 3030                                          01 
01060060007000000REP       US Representative, District 21                          Francisco "Quico" Canseco             PRECINCT 3040                                          01 
01060060008000000REP       US Representative, District 21                          Francisco "Quico" Canseco             PRECINCT 3060                                          01 
01060060009000001REP       US Representative, District 21                          Francisco "Quico" Canseco             PRECINCT 4050                                          01 
01060060010000000REP       US Representative, District 21                          Francisco "Quico" Canseco             PRECINCT 4070                                          01 
01060060011000000REP       US Representative, District 21                          Francisco "Quico" Canseco             PRECINCT 4100                                          01 
01060070001000001REP       US Representative, District 21                          Foster Hagen                          PRECINCT 1010                                          01 
01060070002000000REP       US Representative, District 21                          Foster Hagen                          PRECINCT 1110                                          01 
01060070003000001REP       US Representative, District 21                          Foster Hagen                          PRECINCT 2020                                          01 
01060070004000000REP       US Representative, District 21                          Foster Hagen                          PRECINCT 2080                                          01 
01060070005000000REP       US Representative, District 21                          Foster Hagen                          PRECINCT 2120                                          01 
01060070006000001REP       US Representative, District 21                          Foster Hagen                          PRECINCT 3030                                          01 
01060070007000000REP       US Representative, District 21                          Foster Hagen                          PRECINCT 3040                                          01 
01060070008000000REP       US Representative, District 21                          Foster Hagen                          PRECINCT 3060                                          01 
01060070009000001REP       US Representative, District 21                          Foster Hagen                          PRECINCT 4050                                          01 
01060070010000000REP       US Representative, District 21                          Foster Hagen                          PRECINCT 4070                                          01 
01060070011000000REP       US Representative, District 21                          Foster Hagen                          PRECINCT 4100                                          01 
01060080001000000REP       US Representative, District 21                          Mauro Garza                           PRECINCT 1010                                          01 
01060080002000000REP       US Representative, District 21                          Mauro Garza                           PRECINCT 1110                                          01 
01060080003000001REP       US Representative, District 21                          Mauro Garza                           PRECINCT 2020                                          01 
01060080004000000REP       US Representative, District 21                          Mauro Garza                           PRECINCT 2080                                          01 
01060080005000000REP       US Representative, District 21                          Mauro Garza                           PRECINCT 2120                                          01 
01060080006000001REP       US Representative, District 21                          Mauro Garza                           PRECINCT 3030                                          01 
01060080007000000REP       US Representative, District 21                          Mauro Garza                           PRECINCT 3040                                          01 
01060080008000000REP       US Representative, District 21                          Mauro Garza                           PRECINCT 3060                                          01 
01060080009000001REP       US Representative, District 21                          Mauro Garza                           PRECINCT 4050                                          01 
01060080010000000REP       US Representative, District 21                          Mauro Garza                           PRECINCT 4070                                          01 
01060080011000000REP       US Representative, District 21                          Mauro Garza                           PRECINCT 4100                                          01 
01060090001000001REP       US Representative, District 21                          Peggy Wardlaw                         PRECINCT 1010                                          01 
01060090002000000REP       US Representative, District 21                          Peggy Wardlaw                         PRECINCT 1110                                          01 
01060090003000001REP       US Representative, District 21                          Peggy Wardlaw                         PRECINCT 2020                                          01 
01060090004000000REP       US Representative, District 21                          Peggy Wardlaw                         PRECINCT 2080                                          01 
01060090005000000REP       US Representative, District 21                          Peggy Wardlaw                         PRECINCT 2120                                          01 
01060090006000001REP       US Representative, District 21                          Peggy Wardlaw                         PRECINCT 3030                                          01 
01060090007000000REP       US Representative, District 21                          Peggy Wardlaw                         PRECINCT 3040                                          01 
01060090008000000REP       US Representative, District 21                          Peggy Wardlaw                         PRECINCT 3060                                          01 
01060090009000001REP       US Representative, District 21                          Peggy Wardlaw                         PRECINCT 4050                                          01 
01060090010000001REP       US Representative, District 21                          Peggy Wardlaw                         PRECINCT 4070                                          01 
01060090011000000REP       US Representative, District 21                          Peggy Wardlaw                         PRECINCT 4100                                          01 
01060100001000001REP       US Representative, District 21                          Ivan Andarza                          PRECINCT 1010                                          01 
01060100002000000REP       US Representative, District 21                          Ivan Andarza                          PRECINCT 1110                                          01 
01060100003000001REP       US Representative, District 21                          Ivan Andarza                          PRECINCT 2020                                          01 
01060100004000000REP       US Representative, District 21                          Ivan Andarza                          PRECINCT 2080                                          01 
01060100005000000REP       US Representative, District 21                          Ivan Andarza                          PRECINCT 2120                                          01 
01060100006000001REP       US Representative, District 21                          Ivan Andarza                          PRECINCT 3030                                          01 
01060100007000000REP       US Representative, District 21                          Ivan Andarza                          PRECINCT 3040                                          01 
01060100008000001REP       US Representative, District 21                          Ivan Andarza                          PRECINCT 3060                                          01 
01060100009000001REP       US Representative, District 21                          Ivan Andarza                          PRECINCT 4050                                          01 
01060100010000000REP       US Representative, District 21                          Ivan Andarza                          PRECINCT 4070                                          01 
01060100011000000REP       US Representative, District 21                          Ivan Andarza                          PRECINCT 4100                                          01 
01060110001000001REP       US Representative, District 21                          Chip Roy                              PRECINCT 1010                                          01 
01060110002000000REP       US Representative, District 21                          Chip Roy                              PRECINCT 1110                                          01 
01060110003000001REP       US Representative, District 21                          Chip Roy                              PRECINCT 2020                                          01 
01060110004000000REP       US Representative, District 21                          Chip Roy                              PRECINCT 2080                                          01 
01060110005000000REP       US Representative, District 21                          Chip Roy                              PRECINCT 2120                                          01 
01060110006000001REP       US Representative, District 21                          Chip Roy                              PRECINCT 3030                                          01 
01060110007000000REP       US Representative, District 21                          Chip Roy                              PRECINCT 3040                                          01 
01060110008000000REP       US Representative, District 21                          Chip Roy                              PRECINCT 3060                                          01 
01060110009000001REP       US Representative, District 21                          Chip Roy                              PRECINCT 4050                                          01 
01060110010000000REP       US Representative, District 21                          Chip Roy                              PRECINCT 4070                                          01 
01060110011000000REP       US Representative, District 21                          Chip Roy                              PRECINCT 4100                                          01 
01060120001000001REP       US Representative, District 21                          Anthony J. White                      PRECINCT 1010                                          01 
01060120002000000REP       US Representative, District 21                          Anthony J. White                      PRECINCT 1110                                          01 
01060120003000001REP       US Representative, District 21                          Anthony J. White                      PRECINCT 2020                                          01 
01060120004000000REP       US Representative, District 21                          Anthony J. White                      PRECINCT 2080                                          01 
01060120005000000REP       US Representative, District 21                          Anthony J. White                      PRECINCT 2120                                          01 
01060120006000001REP       US Representative, District 21                          Anthony J. White                      PRECINCT 3030                                          01 
01060120007000000REP       US Representative, District 21                          Anthony J. White                      PRECINCT 3040                                          01 
01060120008000000REP       US Representative, District 21                          Anthony J. White                      PRECINCT 3060                                          01 
01060120009000001REP       US Representative, District 21                          Anthony J. White                      PRECINCT 4050                                          01 
01060120010000000REP       US Representative, District 21                          Anthony J. White                      PRECINCT 4070                                          01 
01060120011000000REP       US Representative, District 21                          Anthony J. White                      PRECINCT 4100                                          01 
01060130001000001REP       US Representative, District 21                          Eric Burkhart                         PRECINCT 1010                                          01 
01060130002000000REP       US Representative, District 21                          Eric Burkhart                         PRECINCT 1110                                          01 
01060130003000001REP       US Representative, District 21                          Eric Burkhart                         PRECINCT 2020                                          01 
01060130004000000REP       US Representative, District 21                          Eric Burkhart                         PRECINCT 2080                                          01 
01060130005000000REP       US Representative, District 21                          Eric Burkhart                         PRECINCT 2120                                          01 
01060130006000001REP       US Representative, District 21                          Eric Burkhart                         PRECINCT 3030                                          01 
01060130007000000REP       US Representative, District 21                          Eric Burkhart                         PRECINCT 3040                                          01 
01060130008000000REP       US Representative, District 21                          Eric Burkhart                         PRECINCT 3060                                          01 
01060130009000001REP       US Representative, District 21                          Eric Burkhart                         PRECINCT 4050                                          01 
01060130010000000REP       US Representative, District 21                          Eric Burkhart                         PRECINCT 4070                                          01 
01060130011000001REP       US Representative, District 21                          Eric Burkhart                         PRECINCT 4100                                          01 
01060140001000001REP       US Representative, District 21                          Al M. Poteet                          PRECINCT 1010                                          01 
01060140002000000REP       US Representative, District 21                          Al M. Poteet                          PRECINCT 1110                                          01 
01060140003000001REP       US Representative, District 21                          Al M. Poteet                          PRECINCT 2020                                          01 
01060140004000000REP       US Representative, District 21                          Al M. Poteet                          PRECINCT 2080                                          01 
01060140005000000REP       US Representative, District 21                          Al M. Poteet                          PRECINCT 2120                                          01 
01060140006000002REP       US Representative, District 21                          Al M. Poteet                          PRECINCT 3030                                          01 
01060140007000000REP       US Representative, District 21                          Al M. Poteet                          PRECINCT 3040                                          01 
01060140008000000REP       US Representative, District 21                          Al M. Poteet                          PRECINCT 3060                                          01 
01060140009000001REP       US Representative, District 21                          Al M. Poteet                          PRECINCT 4050                                          01 
01060140010000000REP       US Representative, District 21                          Al M. Poteet                          PRECINCT 4070                                          01 
01060140011000000REP       US Representative, District 21                          Al M. Poteet                          PRECINCT 4100                                          01 
01060150001000002REP       US Representative, District 21                          Robert Stovall                        PRECINCT 1010                                          01 
01060150002000000REP       US Representative, District 21                          Robert Stovall                        PRECINCT 1110                                          01 
01060150003000001REP       US Representative, District 21                          Robert Stovall                        PRECINCT 2020                                          01 
01060150004000000REP       US Representative, District 21                          Robert Stovall                        PRECINCT 2080                                          01 
01060150005000000REP       US Representative, District 21                          Robert Stovall                        PRECINCT 2120                                          01 
01060150006000001REP       US Representative, District 21                          Robert Stovall                        PRECINCT 3030                                          01 
01060150007000000REP       US Representative, District 21                          Robert Stovall                        PRECINCT 3040                                          01 
01060150008000000REP       US Representative, District 21                          Robert Stovall                        PRECINCT 3060                                          01 
01060150009000001REP       US Representative, District 21                          Robert Stovall                        PRECINCT 4050                                          01 
01060150010000000REP       US Representative, District 21                          Robert Stovall                        PRECINCT 4070                                          01 
01060150011000000REP       US Representative, District 21                          Robert Stovall                        PRECINCT 4100                                          01 
01060160001000001REP       US Representative, District 21                          Autry J. Pruitt                       PRECINCT 1010                                          01 
01060160002000000REP       US Representative, District 21                          Autry J. Pruitt                       PRECINCT 1110                                          01 
01060160003000001REP       US Representative, District 21                          Autry J. Pruitt                       PRECINCT 2020                                          01 
01060160004000000REP       US Representative, District 21                          Autry J. Pruitt                       PRECINCT 2080                                          01 
01060160005000000REP       US Representative, District 21                          Autry J. Pruitt                       PRECINCT 2120                                          01 
01060160006000001REP       US Representative, District 21                          Autry J. Pruitt                       PRECINCT 3030                                          01 
01060160007000000REP       US Representative, District 21                          Autry J. Pruitt                       PRECINCT 3040                                          01 
01060160008000000REP       US Representative, District 21                          Autry J. Pruitt                       PRECINCT 3060                                          01 
01060160009000001REP       US Representative, District 21                          Autry J. Pruitt                       PRECINCT 4050                                          01 
01060160010000000REP       US Representative, District 21                          Autry J. Pruitt                       PRECINCT 4070                                          01 
01060160011000000REP       US Representative, District 21                          Autry J. Pruitt                       PRECINCT 4100                                          01 
01060170001000001REP       US Representative, District 21                          Susan Narvaiz                         PRECINCT 1010                                          01 
01060170002000000REP       US Representative, District 21                          Susan Narvaiz                         PRECINCT 1110                                          01 
01060170003000002REP       US Representative, District 21                          Susan Narvaiz                         PRECINCT 2020                                          01 
01060170004000000REP       US Representative, District 21                          Susan Narvaiz                         PRECINCT 2080                                          01 
01060170005000000REP       US Representative, District 21                          Susan Narvaiz                         PRECINCT 2120                                          01 
01060170006000001REP       US Representative, District 21                          Susan Narvaiz                         PRECINCT 3030                                          01 
01060170007000000REP       US Representative, District 21                          Susan Narvaiz                         PRECINCT 3040                                          01 
01060170008000000REP       US Representative, District 21                          Susan Narvaiz                         PRECINCT 3060                                          01 
01060170009000001REP       US Representative, District 21                          Susan Narvaiz                         PRECINCT 4050                                          01 
01060170010000000REP       US Representative, District 21                          Susan Narvaiz                         PRECINCT 4070                                          01 
01060170011000000REP       US Representative, District 21                          Susan Narvaiz                         PRECINCT 4100                                          01 
01060180001000001REP       US Representative, District 21                          William Negley                        PRECINCT 1010                                          01 
01060180002000000REP       US Representative, District 21                          William Negley                        PRECINCT 1110                                          01 
01060180003000001REP       US Representative, District 21                          William Negley                        PRECINCT 2020                                          01 
01060180004000000REP       US Representative, District 21                          William Negley                        PRECINCT 2080                                          01 
01060180005000001REP       US Representative, District 21                          William Negley                        PRECINCT 2120                                          01 
01060180006000001REP       US Representative, District 21                          William Negley                        PRECINCT 3030                                          01 
01060180007000000REP       US Representative, District 21                          William Negley                        PRECINCT 3040                                          01 
01060180008000000REP       US Representative, District 21                          William Negley                        PRECINCT 3060                                          01 
01060180009000001REP       US Representative, District 21                          William Negley                        PRECINCT 4050                                          01 
01060180010000000REP       US Representative, District 21                          William Negley                        PRECINCT 4070                                          01 
01060180011000000REP       US Representative, District 21                          William Negley                        PRECINCT 4100                                          01 
01060190001000000REP       US Representative, District 21                          OVER VOTES                            PRECINCT 1010                                          01 
01060190002000000REP       US Representative, District 21                          OVER VOTES                            PRECINCT 1110                                          01 
01060190003000000REP       US Representative, District 21                          OVER VOTES                            PRECINCT 2020                                          01 
01060190004000000REP       US Representative, District 21                          OVER VOTES                            PRECINCT 2080                                          01 
01060190005000001REP       US Representative, District 21                          OVER VOTES                            PRECINCT 2120                                          01 
01060190006000000REP       US Representative, District 21                          OVER VOTES                            PRECINCT 3030                                          01 
01060190007000000REP       US Representative, District 21                          OVER VOTES                            PRECINCT 3040                                          01 
01060190008000000REP       US Representative, District 21                          OVER VOTES                            PRECINCT 3060                                          01 
01060190009000000REP       US Representative, District 21                          OVER VOTES                            PRECINCT 4050                                          01 
01060190010000000REP       US Representative, District 21                          OVER VOTES                            PRECINCT 4070                                          01 
01060190011000000REP       US Representative, District 21                          OVER VOTES                            PRECINCT 4100                                          01 
01060200001000003REP       US Representative, District 21                          UNDER VOTES                           PRECINCT 1010                                          01 
01060200002000001REP       US Representative, District 21                          UNDER VOTES                           PRECINCT 1110                                          01 
01060200003000002REP       US Representative, District 21                          UNDER VOTES                           PRECINCT 2020                                          01 
01060200004000001REP       US Representative, District 21                          UNDER VOTES                           PRECINCT 2080                                          01 
01060200005000002REP       US Representative, District 21                          UNDER VOTES                           PRECINCT 2120                                          01 
01060200006000002REP       US Representative, District 21                          UNDER VOTES                           PRECINCT 3030                                          01 
01060200007000001REP       US Representative, District 21                          UNDER VOTES                           PRECINCT 3040                                          01 
01060200008000001REP       US Representative, District 21                          UNDER VOTES                           PRECINCT 3060                                          01 
01060200009000002REP       US Representative, District 21                          UNDER VOTES                           PRECINCT 4050                                          01 
01060200010000001REP       US Representative, District 21                          UNDER VOTES                           PRECINCT 4070                                          01 
01060200011000001REP       US Representative, District 21                          UNDER VOTES                           PRECINCT 4100                                          01 
01070010001000002REP       Governor                                                SECEDE Kilgore                        PRECINCT 1010                                          01 
01070010002000001REP       Governor                                                SECEDE Kilgore                        PRECINCT 1110                                          01 
01070010003000002REP       Governor                                                SECEDE Kilgore                        PRECINCT 2020                                          01 
01070010004000001REP       Governor                                                SECEDE Kilgore                        PRECINCT 2080                                          01 
01070010005000001REP       Governor                                                SECEDE Kilgore                        PRECINCT 2120                                          01 
01070010006000002REP       Governor                                                SECEDE Kilgore                        PRECINCT 3030                                          01 
01070010007000001REP       Governor                                                SECEDE Kilgore                        PRECINCT 3040                                          01 
01070010008000001REP       Governor                                                SECEDE Kilgore                        PRECINCT 3060                                          01 
01070010009000002REP       Governor                                                SECEDE Kilgore                        PRECINCT 4050                                          01 
01070010010000001REP       Governor                                                SECEDE Kilgore                        PRECINCT 4070                                          01 
01070010011000001REP       Governor                                                SECEDE Kilgore                        PRECINCT 4100                                          01 
01070020001000002REP       Governor                                                Barbara Krueger                       PRECINCT 1010                                          01 
01070020002000001REP       Governor                                                Barbara Krueger                       PRECINCT 1110                                          01 
01070020003000002REP       Governor                                                Barbara Krueger                       PRECINCT 2020                                          01 
01070020004000001REP       Governor                                                Barbara Krueger                       PRECINCT 2080                                          01 
01070020005000001REP       Governor                                                Barbara Krueger                       PRECINCT 2120                                          01 
01070020006000002REP       Governor                                                Barbara Krueger                       PRECINCT 3030                                          01 
01070020007000000REP       Governor                                                Barbara Krueger                       PRECINCT 3040                                          01 
01070020008000000REP       Governor                                                Barbara Krueger                       PRECINCT 3060                                          01 
01070020009000002REP       Governor                                                Barbara Krueger                       PRECINCT 4050                                          01 
01070020010000000REP       Governor                                                Barbara Krueger                       PRECINCT 4070                                          01 
01070020011000001REP       Governor                                                Barbara Krueger                       PRECINCT 4100                                          01 
01070030001000001REP       Governor                                                Greg Abbott                           PRECINCT 1010                                          01 
01070030002000000REP       Governor                                                Greg Abbott                           PRECINCT 1110                                          01 
01070030003000001REP       Governor                                                Greg Abbott                           PRECINCT 2020                                          01 
01070030004000000REP       Governor                                                Greg Abbott                           PRECINCT 2080                                          01 
01070030005000000REP       Governor                                                Greg Abbott                           PRECINCT 2120                                          01 
01070030006000001REP       Governor                                                Greg Abbott                           PRECINCT 3030                                          01 
01070030007000001REP       Governor                                                Greg Abbott                           PRECINCT 3040                                          01 
01070030008000001REP       Governor                                                Greg Abbott                           PRECINCT 3060                                          01 
01070030009000001REP       Governor                                                Greg Abbott                           PRECINCT 4050                                          01 
01070030010000001REP       Governor                                                Greg Abbott                           PRECINCT 4070                                          01 
01070030011000000REP       Governor                                                Greg Abbott                           PRECINCT 4100                                          01 
01070040001000000REP       Governor                                                OVER VOTES                            PRECINCT 1010                                          01 
01070040002000000REP       Governor                                                OVER VOTES                            PRECINCT 1110                                          01 
01070040003000000REP       Governor                                                OVER VOTES                            PRECINCT 2020                                          01 
01070040004000000REP       Governor                                                OVER VOTES                            PRECINCT 2080                                          01 
01070040005000001REP       Governor                                                OVER VOTES                            PRECINCT 2120                                          01 
01070040006000000REP       Governor                                                OVER VOTES                            PRECINCT 3030                                          01 
01070040007000000REP       Governor                                                OVER VOTES                            PRECINCT 3040                                          01 
01070040008000000REP       Governor                                                OVER VOTES                            PRECINCT 3060                                          01 
01070040009000000REP       Governor                                                OVER VOTES                            PRECINCT 4050                                          01 
01070040010000000REP       Governor                                                OVER VOTES                            PRECINCT 4070                                          01 
01070040011000000REP       Governor                                                OVER VOTES                            PRECINCT 4100                                          01 
01070050001000017REP       Governor                                                UNDER VOTES                           PRECINCT 1010                                          01 
01070050002000001REP       Governor                                                UNDER VOTES                           PRECINCT 1110                                          01 
01070050003000017REP       Governor                                                UNDER VOTES                           PRECINCT 2020                                          01 
01070050004000001REP       Governor                                                UNDER VOTES                           PRECINCT 2080                                          01 
01070050005000002REP       Governor                                                UNDER VOTES                           PRECINCT 2120                                          01 
01070050006000017REP       Governor                                                UNDER VOTES                           PRECINCT 3030                                          01 
01070050007000001REP       Governor                                                UNDER VOTES                           PRECINCT 3040                                          01 
01070050008000001REP       Governor                                                UNDER VOTES                           PRECINCT 3060                                          01 
01070050009000017REP       Governor                                                UNDER VOTES                           PRECINCT 4050                                          01 
01070050010000001REP       Governor                                                UNDER VOTES                           PRECINCT 4070                                          01 
01070050011000001REP       Governor                                                UNDER VOTES                           PRECINCT 4100                                          01 
01080010001000002REP       Lieutenant Governor                                     Dan Patrick                           PRECINCT 1010                                          01 
01080010002000001REP       Lieutenant Governor                                     Dan Patrick                           PRECINCT 1110                                          01 
01080010003000002REP       Lieutenant Governor                                     Dan Patrick                           PRECINCT 2020                                          01 
01080010004000001REP       Lieutenant Governor                                     Dan Patrick                           PRECINCT 2080                                          01 
01080010005000001REP       Lieutenant Governor                                     Dan Patrick                           PRECINCT 2120                                          01 
01080010006000002REP       Lieutenant Governor                                     Dan Patrick                           PRECINCT 3030                                          01 
01080010007000001REP       Lieutenant Governor                                     Dan Patrick                           PRECINCT 3040                                          01 
01080010008000001REP       Lieutenant Governor                                     Dan Patrick                           PRECINCT 3060                                          01 
01080010009000002REP       Lieutenant Governor                                     Dan Patrick                           PRECINCT 4050                                          01 
01080010010000001REP       Lieutenant Governor                                     Dan Patrick                           PRECINCT 4070                                          01 
01080010011000001REP       Lieutenant Governor                                     Dan Patrick                           PRECINCT 4100                                          01 
01080020001000003REP       Lieutenant Governor                                     Scott Milder                          PRECINCT 1010                                          01 
01080020002000002REP       Lieutenant Governor                                     Scott Milder                          PRECINCT 1110                                          01 
01080020003000003REP       Lieutenant Governor                                     Scott Milder                          PRECINCT 2020                                          01 
01080020004000002REP       Lieutenant Governor                                     Scott Milder                          PRECINCT 2080                                          01 
01080020005000002REP       Lieutenant Governor                                     Scott Milder                          PRECINCT 2120                                          01 
01080020006000003REP       Lieutenant Governor                                     Scott Milder                          PRECINCT 3030                                          01 
01080020007000002REP       Lieutenant Governor                                     Scott Milder                          PRECINCT 3040                                          01 
01080020008000002REP       Lieutenant Governor                                     Scott Milder                          PRECINCT 3060                                          01 
01080020009000003REP       Lieutenant Governor                                     Scott Milder                          PRECINCT 4050                                          01 
01080020010000002REP       Lieutenant Governor                                     Scott Milder                          PRECINCT 4070                                          01 
01080020011000002REP       Lieutenant Governor                                     Scott Milder                          PRECINCT 4100                                          01 
01080030001000000REP       Lieutenant Governor                                     OVER VOTES                            PRECINCT 1010                                          01 
01080030002000000REP       Lieutenant Governor                                     OVER VOTES                            PRECINCT 1110                                          01 
01080030003000000REP       Lieutenant Governor                                     OVER VOTES                            PRECINCT 2020                                          01 
01080030004000000REP       Lieutenant Governor                                     OVER VOTES                            PRECINCT 2080                                          01 
01080030005000001REP       Lieutenant Governor                                     OVER VOTES                            PRECINCT 2120                                          01 
01080030006000000REP       Lieutenant Governor                                     OVER VOTES                            PRECINCT 3030                                          01 
01080030007000000REP       Lieutenant Governor                                     OVER VOTES                            PRECINCT 3040                                          01 
01080030008000000REP       Lieutenant Governor                                     OVER VOTES                            PRECINCT 3060                                          01 
01080030009000000REP       Lieutenant Governor                                     OVER VOTES                            PRECINCT 4050                                          01 
01080030010000000REP       Lieutenant Governor                                     OVER VOTES                            PRECINCT 4070                                          01 
01080030011000000REP       Lieutenant Governor                                     OVER VOTES                            PRECINCT 4100                                          01 
01080040001000017REP       Lieutenant Governor                                     UNDER VOTES                           PRECINCT 1010                                          01 
01080040002000000REP       Lieutenant Governor                                     UNDER VOTES                           PRECINCT 1110                                          01 
01080040003000017REP       Lieutenant Governor                                     UNDER VOTES                           PRECINCT 2020                                          01 
01080040004000000REP       Lieutenant Governor                                     UNDER VOTES                           PRECINCT 2080                                          01 
01080040005000001REP       Lieutenant Governor                                     UNDER VOTES                           PRECINCT 2120                                          01 
01080040006000017REP       Lieutenant Governor                                     UNDER VOTES                           PRECINCT 3030                                          01 
01080040007000000REP       Lieutenant Governor                                     UNDER VOTES                           PRECINCT 3040                                          01 
01080040008000000REP       Lieutenant Governor                                     UNDER VOTES                           PRECINCT 3060                                          01 
01080040009000017REP       Lieutenant Governor                                     UNDER VOTES                           PRECINCT 4050                                          01 
01080040010000000REP       Lieutenant Governor                                     UNDER VOTES                           PRECINCT 4070                                          01 
01080040011000000REP       Lieutenant Governor                                     UNDER VOTES                           PRECINCT 4100                                          01 
01090010001000002REP       Attorney General                                        Ken Paxton                            PRECINCT 1010                                          01 
01090010002000001REP       Attorney General                                        Ken Paxton                            PRECINCT 1110                                          01 
01090010003000002REP       Attorney General                                        Ken Paxton                            PRECINCT 2020                                          01 
01090010004000001REP       Attorney General                                        Ken Paxton                            PRECINCT 2080                                          01 
01090010005000001REP       Attorney General                                        Ken Paxton                            PRECINCT 2120                                          01 
01090010006000002REP       Attorney General                                        Ken Paxton                            PRECINCT 3030                                          01 
01090010007000001REP       Attorney General                                        Ken Paxton                            PRECINCT 3040                                          01 
01090010008000001REP       Attorney General                                        Ken Paxton                            PRECINCT 3060                                          01 
01090010009000002REP       Attorney General                                        Ken Paxton                            PRECINCT 4050                                          01 
01090010010000001REP       Attorney General                                        Ken Paxton                            PRECINCT 4070                                          01 
01090010011000001REP       Attorney General                                        Ken Paxton                            PRECINCT 4100                                          01 
01090020001000000REP       Attorney General                                        OVER VOTES                            PRECINCT 1010                                          01 
01090020002000000REP       Attorney General                                        OVER VOTES                            PRECINCT 1110                                          01 
01090020003000000REP       Attorney General                                        OVER VOTES                            PRECINCT 2020                                          01 
01090020004000000REP       Attorney General                                        OVER VOTES                            PRECINCT 2080                                          01 
01090020005000000REP       Attorney General                                        OVER VOTES                            PRECINCT 2120                                          01 
01090020006000000REP       Attorney General                                        OVER VOTES                            PRECINCT 3030                                          01 
01090020007000000REP       Attorney General                                        OVER VOTES                            PRECINCT 3040                                          01 
01090020008000000REP       Attorney General                                        OVER VOTES                            PRECINCT 3060                                          01 
01090020009000000REP       Attorney General                                        OVER VOTES                            PRECINCT 4050                                          01 
01090020010000000REP       Attorney General                                        OVER VOTES                            PRECINCT 4070                                          01 
01090020011000000REP       Attorney General                                        OVER VOTES                            PRECINCT 4100                                          01 
01090030001000020REP       Attorney General                                        UNDER VOTES                           PRECINCT 1010                                          01 
01090030002000002REP       Attorney General                                        UNDER VOTES                           PRECINCT 1110                                          01 
01090030003000020REP       Attorney General                                        UNDER VOTES                           PRECINCT 2020                                          01 
01090030004000002REP       Attorney General                                        UNDER VOTES                           PRECINCT 2080                                          01 
01090030005000004REP       Attorney General                                        UNDER VOTES                           PRECINCT 2120                                          01 
01090030006000020REP       Attorney General                                        UNDER VOTES                           PRECINCT 3030                                          01 
01090030007000002REP       Attorney General                                        UNDER VOTES                           PRECINCT 3040                                          01 
01090030008000002REP       Attorney General                                        UNDER VOTES                           PRECINCT 3060                                          01 
01090030009000020REP       Attorney General                                        UNDER VOTES                           PRECINCT 4050                                          01 
01090030010000002REP       Attorney General                                        UNDER VOTES                           PRECINCT 4070                                          01 
01090030011000002REP       Attorney General                                        UNDER VOTES                           PRECINCT 4100                                          01 
01100010001000002REP       Comptroller of Public Accounts                          Glenn Hegar                           PRECINCT 1010                                          01 
01100010002000001REP       Comptroller of Public Accounts                          Glenn Hegar                           PRECINCT 1110                                          01 
01100010003000002REP       Comptroller of Public Accounts                          Glenn Hegar                           PRECINCT 2020                                          01 
01100010004000001REP       Comptroller of Public Accounts                          Glenn Hegar                           PRECINCT 2080                                          01 
01100010005000001REP       Comptroller of Public Accounts                          Glenn Hegar                           PRECINCT 2120                                          01 
01100010006000002REP       Comptroller of Public Accounts                          Glenn Hegar                           PRECINCT 3030                                          01 
01100010007000001REP       Comptroller of Public Accounts                          Glenn Hegar                           PRECINCT 3040                                          01 
01100010008000001REP       Comptroller of Public Accounts                          Glenn Hegar                           PRECINCT 3060                                          01 
01100010009000002REP       Comptroller of Public Accounts                          Glenn Hegar                           PRECINCT 4050                                          01 
01100010010000001REP       Comptroller of Public Accounts                          Glenn Hegar                           PRECINCT 4070                                          01 
01100010011000001REP       Comptroller of Public Accounts                          Glenn Hegar                           PRECINCT 4100                                          01 
01100020001000000REP       Comptroller of Public Accounts                          OVER VOTES                            PRECINCT 1010                                          01 
01100020002000000REP       Comptroller of Public Accounts                          OVER VOTES                            PRECINCT 1110                                          01 
01100020003000000REP       Comptroller of Public Accounts                          OVER VOTES                            PRECINCT 2020                                          01 
01100020004000000REP       Comptroller of Public Accounts                          OVER VOTES                            PRECINCT 2080                                          01 
01100020005000000REP       Comptroller of Public Accounts                          OVER VOTES                            PRECINCT 2120                                          01 
01100020006000000REP       Comptroller of Public Accounts                          OVER VOTES                            PRECINCT 3030                                          01 
01100020007000000REP       Comptroller of Public Accounts                          OVER VOTES                            PRECINCT 3040                                          01 
01100020008000000REP       Comptroller of Public Accounts                          OVER VOTES                            PRECINCT 3060                                          01 
01100020009000000REP       Comptroller of Public Accounts                          OVER VOTES                            PRECINCT 4050                                          01 
01100020010000000REP       Comptroller of Public Accounts                          OVER VOTES                            PRECINCT 4070                                          01 
01100020011000000REP       Comptroller of Public Accounts                          OVER VOTES                            PRECINCT 4100                                          01 
01100030001000020REP       Comptroller of Public Accounts                          UNDER VOTES                           PRECINCT 1010                                          01 
01100030002000002REP       Comptroller of Public Accounts                          UNDER VOTES                           PRECINCT 1110                                          01 
01100030003000020REP       Comptroller of Public Accounts                          UNDER VOTES                           PRECINCT 2020                                          01 
01100030004000002REP       Comptroller of Public Accounts                          UNDER VOTES                           PRECINCT 2080                                          01 
01100030005000004REP       Comptroller of Public Accounts                          UNDER VOTES                           PRECINCT 2120                                          01 
01100030006000020REP       Comptroller of Public Accounts                          UNDER VOTES                           PRECINCT 3030                                          01 
01100030007000002REP       Comptroller of Public Accounts                          UNDER VOTES                           PRECINCT 3040                                          01 
01100030008000002REP       Comptroller of Public Accounts                          UNDER VOTES                           PRECINCT 3060                                          01 
01100030009000020REP       Comptroller of Public Accounts                          UNDER VOTES                           PRECINCT 4050                                          01 
01100030010000002REP       Comptroller of Public Accounts                          UNDER VOTES                           PRECINCT 4070                                          01 
01100030011000002REP       Comptroller of Public Accounts                          UNDER VOTES                           PRECINCT 4100                                          01 
01110010001000002REP       Commissioner of the General Land Office                 George P. Bush                        PRECINCT 1010                                          01 
01110010002000001REP       Commissioner of the General Land Office                 George P. Bush                        PRECINCT 1110                                          01 
01110010003000002REP       Commissioner of the General Land Office                 George P. Bush                        PRECINCT 2020                                          01 
01110010004000001REP       Commissioner of the General Land Office                 George P. Bush                        PRECINCT 2080                                          01 
01110010005000001REP       Commissioner of the General Land Office                 George P. Bush                        PRECINCT 2120                                          01 
01110010006000002REP       Commissioner of the General Land Office                 George P. Bush                        PRECINCT 3030                                          01 
01110010007000001REP       Commissioner of the General Land Office                 George P. Bush                        PRECINCT 3040                                          01 
01110010008000001REP       Commissioner of the General Land Office                 George P. Bush                        PRECINCT 3060                                          01 
01110010009000002REP       Commissioner of the General Land Office                 George P. Bush                        PRECINCT 4050                                          01 
01110010010000001REP       Commissioner of the General Land Office                 George P. Bush                        PRECINCT 4070                                          01 
01110010011000001REP       Commissioner of the General Land Office                 George P. Bush                        PRECINCT 4100                                          01 
01110020001000002REP       Commissioner of the General Land Office                 Davey Edwards                         PRECINCT 1010                                          01 
01110020002000000REP       Commissioner of the General Land Office                 Davey Edwards                         PRECINCT 1110                                          01 
01110020003000002REP       Commissioner of the General Land Office                 Davey Edwards                         PRECINCT 2020                                          01 
01110020004000001REP       Commissioner of the General Land Office                 Davey Edwards                         PRECINCT 2080                                          01 
01110020005000000REP       Commissioner of the General Land Office                 Davey Edwards                         PRECINCT 2120                                          01 
01110020006000001REP       Commissioner of the General Land Office                 Davey Edwards                         PRECINCT 3030                                          01 
01110020007000001REP       Commissioner of the General Land Office                 Davey Edwards                         PRECINCT 3040                                          01 
01110020008000000REP       Commissioner of the General Land Office                 Davey Edwards                         PRECINCT 3060                                          01 
01110020009000001REP       Commissioner of the General Land Office                 Davey Edwards                         PRECINCT 4050                                          01 
01110020010000001REP       Commissioner of the General Land Office                 Davey Edwards                         PRECINCT 4070                                          01 
01110020011000000REP       Commissioner of the General Land Office                 Davey Edwards                         PRECINCT 4100                                          01 
01110030001000001REP       Commissioner of the General Land Office                 Jerry Patterson                       PRECINCT 1010                                          01 
01110030002000000REP       Commissioner of the General Land Office                 Jerry Patterson                       PRECINCT 1110                                          01 
01110030003000001REP       Commissioner of the General Land Office                 Jerry Patterson                       PRECINCT 2020                                          01 
01110030004000000REP       Commissioner of the General Land Office                 Jerry Patterson                       PRECINCT 2080                                          01 
01110030005000000REP       Commissioner of the General Land Office                 Jerry Patterson                       PRECINCT 2120                                          01 
01110030006000002REP       Commissioner of the General Land Office                 Jerry Patterson                       PRECINCT 3030                                          01 
01110030007000000REP       Commissioner of the General Land Office                 Jerry Patterson                       PRECINCT 3040                                          01 
01110030008000000REP       Commissioner of the General Land Office                 Jerry Patterson                       PRECINCT 3060                                          01 
01110030009000002REP       Commissioner of the General Land Office                 Jerry Patterson                       PRECINCT 4050                                          01 
01110030010000000REP       Commissioner of the General Land Office                 Jerry Patterson                       PRECINCT 4070                                          01 
01110030011000000REP       Commissioner of the General Land Office                 Jerry Patterson                       PRECINCT 4100                                          01 
01110040001000001REP       Commissioner of the General Land Office                 Rick Range                            PRECINCT 1010                                          01 
01110040002000001REP       Commissioner of the General Land Office                 Rick Range                            PRECINCT 1110                                          01 
01110040003000001REP       Commissioner of the General Land Office                 Rick Range                            PRECINCT 2020                                          01 
01110040004000000REP       Commissioner of the General Land Office                 Rick Range                            PRECINCT 2080                                          01 
01110040005000001REP       Commissioner of the General Land Office                 Rick Range                            PRECINCT 2120                                          01 
01110040006000001REP       Commissioner of the General Land Office                 Rick Range                            PRECINCT 3030                                          01 
01110040007000000REP       Commissioner of the General Land Office                 Rick Range                            PRECINCT 3040                                          01 
01110040008000001REP       Commissioner of the General Land Office                 Rick Range                            PRECINCT 3060                                          01 
01110040009000001REP       Commissioner of the General Land Office                 Rick Range                            PRECINCT 4050                                          01 
01110040010000000REP       Commissioner of the General Land Office                 Rick Range                            PRECINCT 4070                                          01 
01110040011000001REP       Commissioner of the General Land Office                 Rick Range                            PRECINCT 4100                                          01 
01110050001000000REP       Commissioner of the General Land Office                 OVER VOTES                            PRECINCT 1010                                          01 
01110050002000000REP       Commissioner of the General Land Office                 OVER VOTES                            PRECINCT 1110                                          01 
01110050003000000REP       Commissioner of the General Land Office                 OVER VOTES                            PRECINCT 2020                                          01 
01110050004000000REP       Commissioner of the General Land Office                 OVER VOTES                            PRECINCT 2080                                          01 
01110050005000001REP       Commissioner of the General Land Office                 OVER VOTES                            PRECINCT 2120                                          01 
01110050006000000REP       Commissioner of the General Land Office                 OVER VOTES                            PRECINCT 3030                                          01 
01110050007000000REP       Commissioner of the General Land Office                 OVER VOTES                            PRECINCT 3040                                          01 
01110050008000000REP       Commissioner of the General Land Office                 OVER VOTES                            PRECINCT 3060                                          01 
01110050009000000REP       Commissioner of the General Land Office                 OVER VOTES                            PRECINCT 4050                                          01 
01110050010000000REP       Commissioner of the General Land Office                 OVER VOTES                            PRECINCT 4070                                          01 
01110050011000000REP       Commissioner of the General Land Office                 OVER VOTES                            PRECINCT 4100                                          01 
01110060001000016REP       Commissioner of the General Land Office                 UNDER VOTES                           PRECINCT 1010                                          01 
01110060002000001REP       Commissioner of the General Land Office                 UNDER VOTES                           PRECINCT 1110                                          01 
01110060003000016REP       Commissioner of the General Land Office                 UNDER VOTES                           PRECINCT 2020                                          01 
01110060004000001REP       Commissioner of the General Land Office                 UNDER VOTES                           PRECINCT 2080                                          01 
01110060005000002REP       Commissioner of the General Land Office                 UNDER VOTES                           PRECINCT 2120                                          01 
01110060006000016REP       Commissioner of the General Land Office                 UNDER VOTES                           PRECINCT 3030                                          01 
01110060007000001REP       Commissioner of the General Land Office                 UNDER VOTES                           PRECINCT 3040                                          01 
01110060008000001REP       Commissioner of the General Land Office                 UNDER VOTES                           PRECINCT 3060                                          01 
01110060009000016REP       Commissioner of the General Land Office                 UNDER VOTES                           PRECINCT 4050                                          01 
01110060010000001REP       Commissioner of the General Land Office                 UNDER VOTES                           PRECINCT 4070                                          01 
01110060011000001REP       Commissioner of the General Land Office                 UNDER VOTES                           PRECINCT 4100                                          01 
01120010001000002REP       Commissioner of Agriculture                             Trey Blocker                          PRECINCT 1010                                          01 
01120010002000001REP       Commissioner of Agriculture                             Trey Blocker                          PRECINCT 1110                                          01 
01120010003000002REP       Commissioner of Agriculture                             Trey Blocker                          PRECINCT 2020                                          01 
01120010004000001REP       Commissioner of Agriculture                             Trey Blocker                          PRECINCT 2080                                          01 
01120010005000001REP       Commissioner of Agriculture                             Trey Blocker                          PRECINCT 2120                                          01 
01120010006000002REP       Commissioner of Agriculture                             Trey Blocker                          PRECINCT 3030                                          01 
01120010007000001REP       Commissioner of Agriculture                             Trey Blocker                          PRECINCT 3040                                          01 
01120010008000001REP       Commissioner of Agriculture                             Trey Blocker                          PRECINCT 3060                                          01 
01120010009000002REP       Commissioner of Agriculture                             Trey Blocker                          PRECINCT 4050                                          01 
01120010010000001REP       Commissioner of Agriculture                             Trey Blocker                          PRECINCT 4070                                          01 
01120010011000001REP       Commissioner of Agriculture                             Trey Blocker                          PRECINCT 4100                                          01 
01120020001000002REP       Commissioner of Agriculture                             Jim Hogan                             PRECINCT 1010                                          01 
01120020002000001REP       Commissioner of Agriculture                             Jim Hogan                             PRECINCT 1110                                          01 
01120020003000002REP       Commissioner of Agriculture                             Jim Hogan                             PRECINCT 2020                                          01 
01120020004000001REP       Commissioner of Agriculture                             Jim Hogan                             PRECINCT 2080                                          01 
01120020005000000REP       Commissioner of Agriculture                             Jim Hogan                             PRECINCT 2120                                          01 
01120020006000002REP       Commissioner of Agriculture                             Jim Hogan                             PRECINCT 3030                                          01 
01120020007000000REP       Commissioner of Agriculture                             Jim Hogan                             PRECINCT 3040                                          01 
01120020008000001REP       Commissioner of Agriculture                             Jim Hogan                             PRECINCT 3060                                          01 
01120020009000001REP       Commissioner of Agriculture                             Jim Hogan                             PRECINCT 4050                                          01 
01120020010000001REP       Commissioner of Agriculture                             Jim Hogan                             PRECINCT 4070                                          01 
01120020011000000REP       Commissioner of Agriculture                             Jim Hogan                             PRECINCT 4100                                          01 
01120030001000001REP       Commissioner of Agriculture                             Sid Miller                            PRECINCT 1010                                          01 
01120030002000000REP       Commissioner of Agriculture                             Sid Miller                            PRECINCT 1110                                          01 
