01010010001002378000000000000000000000000000000          REGISTERED VOTERS - TOTAL                               REGISTERED VOTERS - TOTAL             PRECINCT 1A3B                                          00 
01010010002001750000000000000000000000000000000          REGISTERED VOTERS - TOTAL                               REGISTERED VOTERS - TOTAL             PRECINCT 1A5A                                          00 
01010010004000289000000000000000000000000000000          REGISTERED VOTERS - TOTAL                               REGISTERED VOTERS - TOTAL             PRECINCT 1C                                            00 
01010010006000773000000000000000000000000000000          REGISTERED VOTERS - TOTAL                               REGISTERED VOTERS - TOTAL             PRECINCT 1E                                            00 
01010010008001335000000000000000000000000000000          REGISTERED VOTERS - TOTAL                               REGISTERED VOTERS - TOTAL             PRECINCT 1F                                            00 
01010010010000541000000000000000000000000000000          REGISTERED VOTERS - TOTAL                               REGISTERED VOTERS - TOTAL             PRECINCT 1H                                            00 
01010010011000321000000000000000000000000000000          REGISTERED VOTERS - TOTAL                               REGISTERED VOTERS - TOTAL             PRECINCT 1I                                            00 
01010010012001298000000000000000000000000000000          REGISTERED VOTERS - TOTAL                               REGISTERED VOTERS - TOTAL             PRECINCT 2A1A                                          00 
01010010014003342000000000000000000000000000000          REGISTERED VOTERS - TOTAL                               REGISTERED VOTERS - TOTAL             PRECINCT 2C3A                                          00 
01010010015000644000000000000000000000000000000          REGISTERED VOTERS - TOTAL                               REGISTERED VOTERS - TOTAL             PRECINCT 2D                                            00 
01010010016000582000000000000000000000000000000          REGISTERED VOTERS - TOTAL                               REGISTERED VOTERS - TOTAL             PRECINCT 2E                                            00 
01010010017000207000000000000000000000000000000          REGISTERED VOTERS - TOTAL                               REGISTERED VOTERS - TOTAL             PRECINCT 2F                                            00 
01010010018000640000000000000000000000000000000          REGISTERED VOTERS - TOTAL                               REGISTERED VOTERS - TOTAL             PRECINCT 2G                                            00 
01010010019002919000000000000000000000000000000          REGISTERED VOTERS - TOTAL                               REGISTERED VOTERS - TOTAL             PRECINCT 3C7G                                          00 
01010010020000803000000000000000000000000000000          REGISTERED VOTERS - TOTAL                               REGISTERED VOTERS - TOTAL             PRECINCT 3D                                            00 
01010010021001136000000000000000000000000000000          REGISTERED VOTERS - TOTAL                               REGISTERED VOTERS - TOTAL             PRECINCT 3E                                            00 
01010010022000517000000000000000000000000000000          REGISTERED VOTERS - TOTAL                               REGISTERED VOTERS - TOTAL             PRECINCT 3F                                            00 
01010010023000530000000000000000000000000000000          REGISTERED VOTERS - TOTAL                               REGISTERED VOTERS - TOTAL             PRECINCT 3G                                            00 
01010010024000790000000000000000000000000000000          REGISTERED VOTERS - TOTAL                               REGISTERED VOTERS - TOTAL             PRECINCT 3H3C                                          00 
01010010025001248000000000000000000000000000000          REGISTERED VOTERS - TOTAL                               REGISTERED VOTERS - TOTAL             PRECINCT 3I                                            00 
01010010026001377000000000000000000000000000000          REGISTERED VOTERS - TOTAL                               REGISTERED VOTERS - TOTAL             PRECINCT 4A6E                                          00 
01010010027001681000000000000000000000000000000          REGISTERED VOTERS - TOTAL                               REGISTERED VOTERS - TOTAL             PRECINCT 4B                                            00 
01010010029001427000000000000000000000000000000          REGISTERED VOTERS - TOTAL                               REGISTERED VOTERS - TOTAL             PRECINCT 4D                                            00 
01010010030000989000000000000000000000000000000          REGISTERED VOTERS - TOTAL                               REGISTERED VOTERS - TOTAL             PRECINCT 4E                                            00 
01010010031001714000000000000000000000000000000          REGISTERED VOTERS - TOTAL                               REGISTERED VOTERS - TOTAL             PRECINCT 4F                                            00 
01010010032001719000000000000000000000000000000          REGISTERED VOTERS - TOTAL                               REGISTERED VOTERS - TOTAL             PRECINCT 4G                                            00 
01020010001000502000241000202000059000000000000          BALLOTS CAST - TOTAL                                    BALLOTS CAST - TOTAL                  PRECINCT 1A3B                                          00 
01020010002000180000091000065000024000000000000          BALLOTS CAST - TOTAL                                    BALLOTS CAST - TOTAL                  PRECINCT 1A5A                                          00 
01020010004000078000032000043000003000000000000          BALLOTS CAST - TOTAL                                    BALLOTS CAST - TOTAL                  PRECINCT 1C                                            00 
01020010006000205000054000135000016000000000000          BALLOTS CAST - TOTAL                                    BALLOTS CAST - TOTAL                  PRECINCT 1E                                            00 
01020010008000319000093000205000021000000000000          BALLOTS CAST - TOTAL                                    BALLOTS CAST - TOTAL                  PRECINCT 1F                                            00 
01020010010000059000046000009000004000000000000          BALLOTS CAST - TOTAL                                    BALLOTS CAST - TOTAL                  PRECINCT 1H                                            00 
01020010011000090000027000058000005000000000000          BALLOTS CAST - TOTAL                                    BALLOTS CAST - TOTAL                  PRECINCT 1I                                            00 
01020010012000107000051000040000016000000000000          BALLOTS CAST - TOTAL                                    BALLOTS CAST - TOTAL                  PRECINCT 2A1A                                          00 
01020010014000292000097000149000046000000000000          BALLOTS CAST - TOTAL                                    BALLOTS CAST - TOTAL                  PRECINCT 2C3A                                          00 
01020010015000207000044000154000009000000000000          BALLOTS CAST - TOTAL                                    BALLOTS CAST - TOTAL                  PRECINCT 2D                                            00 
01020010016000149000040000095000014000000000000          BALLOTS CAST - TOTAL                                    BALLOTS CAST - TOTAL                  PRECINCT 2E                                            00 
01020010017000061000013000045000003000000000000          BALLOTS CAST - TOTAL                                    BALLOTS CAST - TOTAL                  PRECINCT 2F                                            00 
01020010018000117000040000069000008000000000000          BALLOTS CAST - TOTAL                                    BALLOTS CAST - TOTAL                  PRECINCT 2G                                            00 
01020010019000572000254000243000075000000000000          BALLOTS CAST - TOTAL                                    BALLOTS CAST - TOTAL                  PRECINCT 3C7G                                          00 
01020010020000161000041000106000014000000000000          BALLOTS CAST - TOTAL                                    BALLOTS CAST - TOTAL                  PRECINCT 3D                                            00 
01020010021000298000092000180000026000000000000          BALLOTS CAST - TOTAL                                    BALLOTS CAST - TOTAL                  PRECINCT 3E                                            00 
01020010022000129000034000086000009000000000000          BALLOTS CAST - TOTAL                                    BALLOTS CAST - TOTAL                  PRECINCT 3F                                            00 
01020010023000148000049000091000008000000000000          BALLOTS CAST - TOTAL                                    BALLOTS CAST - TOTAL                  PRECINCT 3G                                            00 
01020010024000116000053000048000015000000000000          BALLOTS CAST - TOTAL                                    BALLOTS CAST - TOTAL                  PRECINCT 3H3C                                          00 
01020010025000294000133000136000025000000000000          BALLOTS CAST - TOTAL                                    BALLOTS CAST - TOTAL                  PRECINCT 3I                                            00 
01020010026000329000169000123000037000000000000          BALLOTS CAST - TOTAL                                    BALLOTS CAST - TOTAL                  PRECINCT 4A6E                                          00 
01020010027000449000153000256000040000000000000          BALLOTS CAST - TOTAL                                    BALLOTS CAST - TOTAL                  PRECINCT 4B                                            00 
01020010029000425000130000278000017000000000000          BALLOTS CAST - TOTAL                                    BALLOTS CAST - TOTAL                  PRECINCT 4D                                            00 
01020010030000258000078000171000009000000000000          BALLOTS CAST - TOTAL                                    BALLOTS CAST - TOTAL                  PRECINCT 4E                                            00 
01020010031000375000158000174000043000000000000          BALLOTS CAST - TOTAL                                    BALLOTS CAST - TOTAL                  PRECINCT 4F                                            00 
01020010032000458000219000216000023000000000000          BALLOTS CAST - TOTAL                                    BALLOTS CAST - TOTAL                  PRECINCT 4G                                            00 
01030010001000398000202000159000037000000000000REP       BALLOTS CAST - REPUBLICAN PARTY                         BALLOTS CAST - REPUBLICAN PARTY       PRECINCT 1A3B                                          00 
01030010002000122000064000041000017000000000000REP       BALLOTS CAST - REPUBLICAN PARTY                         BALLOTS CAST - REPUBLICAN PARTY       PRECINCT 1A5A                                          00 
01030010004000071000028000040000003000000000000REP       BALLOTS CAST - REPUBLICAN PARTY                         BALLOTS CAST - REPUBLICAN PARTY       PRECINCT 1C                                            00 
01030010006000185000050000126000009000000000000REP       BALLOTS CAST - REPUBLICAN PARTY                         BALLOTS CAST - REPUBLICAN PARTY       PRECINCT 1E                                            00 
01030010008000289000089000180000020000000000000REP       BALLOTS CAST - REPUBLICAN PARTY                         BALLOTS CAST - REPUBLICAN PARTY       PRECINCT 1F                                            00 
01030010010000056000043000009000004000000000000REP       BALLOTS CAST - REPUBLICAN PARTY                         BALLOTS CAST - REPUBLICAN PARTY       PRECINCT 1H                                            00 
01030010011000088000026000057000005000000000000REP       BALLOTS CAST - REPUBLICAN PARTY                         BALLOTS CAST - REPUBLICAN PARTY       PRECINCT 1I                                            00 
01030010012000042000023000014000005000000000000REP       BALLOTS CAST - REPUBLICAN PARTY                         BALLOTS CAST - REPUBLICAN PARTY       PRECINCT 2A1A                                          00 
01030010014000173000060000089000024000000000000REP       BALLOTS CAST - REPUBLICAN PARTY                         BALLOTS CAST - REPUBLICAN PARTY       PRECINCT 2C3A                                          00 
01030010015000177000039000132000006000000000000REP       BALLOTS CAST - REPUBLICAN PARTY                         BALLOTS CAST - REPUBLICAN PARTY       PRECINCT 2D                                            00 
01030010016000138000039000087000012000000000000REP       BALLOTS CAST - REPUBLICAN PARTY                         BALLOTS CAST - REPUBLICAN PARTY       PRECINCT 2E                                            00 
01030010017000055000011000042000002000000000000REP       BALLOTS CAST - REPUBLICAN PARTY                         BALLOTS CAST - REPUBLICAN PARTY       PRECINCT 2F                                            00 
01030010018000100000033000061000006000000000000REP       BALLOTS CAST - REPUBLICAN PARTY                         BALLOTS CAST - REPUBLICAN PARTY       PRECINCT 2G                                            00 
01030010019000465000210000202000053000000000000REP       BALLOTS CAST - REPUBLICAN PARTY                         BALLOTS CAST - REPUBLICAN PARTY       PRECINCT 3C7G                                          00 
01030010020000147000037000097000013000000000000REP       BALLOTS CAST - REPUBLICAN PARTY                         BALLOTS CAST - REPUBLICAN PARTY       PRECINCT 3D                                            00 
01030010021000270000086000163000021000000000000REP       BALLOTS CAST - REPUBLICAN PARTY                         BALLOTS CAST - REPUBLICAN PARTY       PRECINCT 3E                                            00 
01030010022000114000032000074000008000000000000REP       BALLOTS CAST - REPUBLICAN PARTY                         BALLOTS CAST - REPUBLICAN PARTY       PRECINCT 3F                                            00 
01030010023000131000044000082000005000000000000REP       BALLOTS CAST - REPUBLICAN PARTY                         BALLOTS CAST - REPUBLICAN PARTY       PRECINCT 3G                                            00 
01030010024000100000046000040000014000000000000REP       BALLOTS CAST - REPUBLICAN PARTY                         BALLOTS CAST - REPUBLICAN PARTY       PRECINCT 3H3C                                          00 
01030010025000269000120000130000019000000000000REP       BALLOTS CAST - REPUBLICAN PARTY                         BALLOTS CAST - REPUBLICAN PARTY       PRECINCT 3I                                            00 
01030010026000272000146000103000023000000000000REP       BALLOTS CAST - REPUBLICAN PARTY                         BALLOTS CAST - REPUBLICAN PARTY       PRECINCT 4A6E                                          00 
01030010027000402000139000234000029000000000000REP       BALLOTS CAST - REPUBLICAN PARTY                         BALLOTS CAST - REPUBLICAN PARTY       PRECINCT 4B                                            00 
01030010029000409000126000268000015000000000000REP       BALLOTS CAST - REPUBLICAN PARTY                         BALLOTS CAST - REPUBLICAN PARTY       PRECINCT 4D                                            00 
01030010030000236000076000151000009000000000000REP       BALLOTS CAST - REPUBLICAN PARTY                         BALLOTS CAST - REPUBLICAN PARTY       PRECINCT 4E                                            00 
01030010031000330000149000154000027000000000000REP       BALLOTS CAST - REPUBLICAN PARTY                         BALLOTS CAST - REPUBLICAN PARTY       PRECINCT 4F                                            00 
01030010032000413000203000196000014000000000000REP       BALLOTS CAST - REPUBLICAN PARTY                         BALLOTS CAST - REPUBLICAN PARTY       PRECINCT 4G                                            00 
01040010001000104000039000043000022000000000000DEM       BALLOTS CAST - DEMOCRATIC PARTY                         BALLOTS CAST - DEMOCRATIC PARTY       PRECINCT 1A3B                                          00 
01040010002000058000027000024000007000000000000DEM       BALLOTS CAST - DEMOCRATIC PARTY                         BALLOTS CAST - DEMOCRATIC PARTY       PRECINCT 1A5A                                          00 
01040010004000007000004000003000000000000000000DEM       BALLOTS CAST - DEMOCRATIC PARTY                         BALLOTS CAST - DEMOCRATIC PARTY       PRECINCT 1C                                            00 
01040010006000020000004000009000007000000000000DEM       BALLOTS CAST - DEMOCRATIC PARTY                         BALLOTS CAST - DEMOCRATIC PARTY       PRECINCT 1E                                            00 
01040010008000030000004000025000001000000000000DEM       BALLOTS CAST - DEMOCRATIC PARTY                         BALLOTS CAST - DEMOCRATIC PARTY       PRECINCT 1F                                            00 
01040010010000003000003000000000000000000000000DEM       BALLOTS CAST - DEMOCRATIC PARTY                         BALLOTS CAST - DEMOCRATIC PARTY       PRECINCT 1H                                            00 
01040010011000002000001000001000000000000000000DEM       BALLOTS CAST - DEMOCRATIC PARTY                         BALLOTS CAST - DEMOCRATIC PARTY       PRECINCT 1I                                            00 
01040010012000065000028000026000011000000000000DEM       BALLOTS CAST - DEMOCRATIC PARTY                         BALLOTS CAST - DEMOCRATIC PARTY       PRECINCT 2A1A                                          00 
01040010014000119000037000060000022000000000000DEM       BALLOTS CAST - DEMOCRATIC PARTY                         BALLOTS CAST - DEMOCRATIC PARTY       PRECINCT 2C3A                                          00 
01040010015000030000005000022000003000000000000DEM       BALLOTS CAST - DEMOCRATIC PARTY                         BALLOTS CAST - DEMOCRATIC PARTY       PRECINCT 2D                                            00 
01040010016000011000001000008000002000000000000DEM       BALLOTS CAST - DEMOCRATIC PARTY                         BALLOTS CAST - DEMOCRATIC PARTY       PRECINCT 2E                                            00 
01040010017000006000002000003000001000000000000DEM       BALLOTS CAST - DEMOCRATIC PARTY                         BALLOTS CAST - DEMOCRATIC PARTY       PRECINCT 2F                                            00 
01040010018000017000007000008000002000000000000DEM       BALLOTS CAST - DEMOCRATIC PARTY                         BALLOTS CAST - DEMOCRATIC PARTY       PRECINCT 2G                                            00 
01040010019000107000044000041000022000000000000DEM       BALLOTS CAST - DEMOCRATIC PARTY                         BALLOTS CAST - DEMOCRATIC PARTY       PRECINCT 3C7G                                          00 
01040010020000014000004000009000001000000000000DEM       BALLOTS CAST - DEMOCRATIC PARTY                         BALLOTS CAST - DEMOCRATIC PARTY       PRECINCT 3D                                            00 
01040010021000028000006000017000005000000000000DEM       BALLOTS CAST - DEMOCRATIC PARTY                         BALLOTS CAST - DEMOCRATIC PARTY       PRECINCT 3E                                            00 
01040010022000015000002000012000001000000000000DEM       BALLOTS CAST - DEMOCRATIC PARTY                         BALLOTS CAST - DEMOCRATIC PARTY       PRECINCT 3F                                            00 
01040010023000017000005000009000003000000000000DEM       BALLOTS CAST - DEMOCRATIC PARTY                         BALLOTS CAST - DEMOCRATIC PARTY       PRECINCT 3G                                            00 
01040010024000016000007000008000001000000000000DEM       BALLOTS CAST - DEMOCRATIC PARTY                         BALLOTS CAST - DEMOCRATIC PARTY       PRECINCT 3H3C                                          00 
01040010025000025000013000006000006000000000000DEM       BALLOTS CAST - DEMOCRATIC PARTY                         BALLOTS CAST - DEMOCRATIC PARTY       PRECINCT 3I                                            00 
01040010026000057000023000020000014000000000000DEM       BALLOTS CAST - DEMOCRATIC PARTY                         BALLOTS CAST - DEMOCRATIC PARTY       PRECINCT 4A6E                                          00 
01040010027000047000014000022000011000000000000DEM       BALLOTS CAST - DEMOCRATIC PARTY                         BALLOTS CAST - DEMOCRATIC PARTY       PRECINCT 4B                                            00 
01040010029000016000004000010000002000000000000DEM       BALLOTS CAST - DEMOCRATIC PARTY                         BALLOTS CAST - DEMOCRATIC PARTY       PRECINCT 4D                                            00 
01040010030000022000002000020000000000000000000DEM       BALLOTS CAST - DEMOCRATIC PARTY                         BALLOTS CAST - DEMOCRATIC PARTY       PRECINCT 4E                                            00 
01040010031000045000009000020000016000000000000DEM       BALLOTS CAST - DEMOCRATIC PARTY                         BALLOTS CAST - DEMOCRATIC PARTY       PRECINCT 4F                                            00 
01040010032000045000016000020000009000000000000DEM       BALLOTS CAST - DEMOCRATIC PARTY                         BALLOTS CAST - DEMOCRATIC PARTY       PRECINCT 4G                                            00 
01050010001000012000004000008000000000000000000REP       United States Senator                                   Bruce Jacobson, Jr.                   PRECINCT 1A3B                                          01 
01050010002000009000003000006000000000000000000REP       United States Senator                                   Bruce Jacobson, Jr.                   PRECINCT 1A5A                                          01 
01050010004000005000003000002000000000000000000REP       United States Senator                                   Bruce Jacobson, Jr.                   PRECINCT 1C                                            01 
01050010006000010000004000006000000000000000000REP       United States Senator                                   Bruce Jacobson, Jr.                   PRECINCT 1E                                            01 
01050010008000012000001000008000003000000000000REP       United States Senator                                   Bruce Jacobson, Jr.                   PRECINCT 1F                                            01 
01050010010000004000004000000000000000000000000REP       United States Senator                                   Bruce Jacobson, Jr.                   PRECINCT 1H                                            01 
01050010011000003000001000002000000000000000000REP       United States Senator                                   Bruce Jacobson, Jr.                   PRECINCT 1I                                            01 
01050010012000003000002000000000001000000000000REP       United States Senator                                   Bruce Jacobson, Jr.                   PRECINCT 2A1A                                          01 
01050010014000010000002000006000002000000000000REP       United States Senator                                   Bruce Jacobson, Jr.                   PRECINCT 2C3A                                          01 
01050010015000006000003000002000001000000000000REP       United States Senator                                   Bruce Jacobson, Jr.                   PRECINCT 2D                                            01 
01050010016000007000003000004000000000000000000REP       United States Senator                                   Bruce Jacobson, Jr.                   PRECINCT 2E                                            01 
01050010017000000000000000000000000000000000000REP       United States Senator                                   Bruce Jacobson, Jr.                   PRECINCT 2F                                            01 
01050010018000007000003000004000000000000000000REP       United States Senator                                   Bruce Jacobson, Jr.                   PRECINCT 2G                                            01 
01050010019000033000018000015000000000000000000REP       United States Senator                                   Bruce Jacobson, Jr.                   PRECINCT 3C7G                                          01 
01050010020000002000000000002000000000000000000REP       United States Senator                                   Bruce Jacobson, Jr.                   PRECINCT 3D                                            01 
01050010021000006000002000004000000000000000000REP       United States Senator                                   Bruce Jacobson, Jr.                   PRECINCT 3E                                            01 
01050010022000003000001000002000000000000000000REP       United States Senator                                   Bruce Jacobson, Jr.                   PRECINCT 3F                                            01 
01050010023000005000003000001000001000000000000REP       United States Senator                                   Bruce Jacobson, Jr.                   PRECINCT 3G                                            01 
01050010024000002000001000001000000000000000000REP       United States Senator                                   Bruce Jacobson, Jr.                   PRECINCT 3H3C                                          01 
01050010025000005000002000002000001000000000000REP       United States Senator                                   Bruce Jacobson, Jr.                   PRECINCT 3I                                            01 
01050010026000017000008000009000000000000000000REP       United States Senator                                   Bruce Jacobson, Jr.                   PRECINCT 4A6E                                          01 
01050010027000021000007000012000002000000000000REP       United States Senator                                   Bruce Jacobson, Jr.                   PRECINCT 4B                                            01 
01050010029000023000011000012000000000000000000REP       United States Senator                                   Bruce Jacobson, Jr.                   PRECINCT 4D                                            01 
01050010030000010000004000004000002000000000000REP       United States Senator                                   Bruce Jacobson, Jr.                   PRECINCT 4E                                            01 
01050010031000016000010000005000001000000000000REP       United States Senator                                   Bruce Jacobson, Jr.                   PRECINCT 4F                                            01 
01050010032000019000011000006000002000000000000REP       United States Senator                                   Bruce Jacobson, Jr.                   PRECINCT 4G                                            01 
01050020001000324000165000126000033000000000000REP       United States Senator                                   Ted Cruz                              PRECINCT 1A3B                                          01 
01050020002000092000044000031000017000000000000REP       United States Senator                                   Ted Cruz                              PRECINCT 1A5A                                          01 
01050020004000054000020000031000003000000000000REP       United States Senator                                   Ted Cruz                              PRECINCT 1C                                            01 
01050020006000143000035000100000008000000000000REP       United States Senator                                   Ted Cruz                              PRECINCT 1E                                            01 
01050020008000252000080000158000014000000000000REP       United States Senator                                   Ted Cruz                              PRECINCT 1F                                            01 
01050020010000042000029000009000004000000000000REP       United States Senator                                   Ted Cruz                              PRECINCT 1H                                            01 
01050020011000067000016000046000005000000000000REP       United States Senator                                   Ted Cruz                              PRECINCT 1I                                            01 
01050020012000034000018000012000004000000000000REP       United States Senator                                   Ted Cruz                              PRECINCT 2A1A                                          01 
01050020014000141000048000073000020000000000000REP       United States Senator                                   Ted Cruz                              PRECINCT 2C3A                                          01 
01050020015000118000026000088000004000000000000REP       United States Senator                                   Ted Cruz                              PRECINCT 2D                                            01 
01050020016000105000031000063000011000000000000REP       United States Senator                                   Ted Cruz                              PRECINCT 2E                                            01 
01050020017000042000008000032000002000000000000REP       United States Senator                                   Ted Cruz                              PRECINCT 2F                                            01 
01050020018000075000025000044000006000000000000REP       United States Senator                                   Ted Cruz                              PRECINCT 2G                                            01 
01050020019000333000136000153000044000000000000REP       United States Senator                                   Ted Cruz                              PRECINCT 3C7G                                          01 
01050020020000132000033000086000013000000000000REP       United States Senator                                   Ted Cruz                              PRECINCT 3D                                            01 
01050020021000241000075000147000019000000000000REP       United States Senator                                   Ted Cruz                              PRECINCT 3E                                            01 
01050020022000100000027000067000006000000000000REP       United States Senator                                   Ted Cruz                              PRECINCT 3F                                            01 
01050020023000108000036000068000004000000000000REP       United States Senator                                   Ted Cruz                              PRECINCT 3G                                            01 
01050020024000082000039000029000014000000000000REP       United States Senator                                   Ted Cruz                              PRECINCT 3H3C                                          01 
01050020025000236000099000121000016000000000000REP       United States Senator                                   Ted Cruz                              PRECINCT 3I                                            01 
01050020026000215000115000077000023000000000000REP       United States Senator                                   Ted Cruz                              PRECINCT 4A6E                                          01 
01050020027000321000102000196000023000000000000REP       United States Senator                                   Ted Cruz                              PRECINCT 4B                                            01 
01050020029000336000091000230000015000000000000REP       United States Senator                                   Ted Cruz                              PRECINCT 4D                                            01 
01050020030000190000056000127000007000000000000REP       United States Senator                                   Ted Cruz                              PRECINCT 4E                                            01 
01050020031000260000105000130000025000000000000REP       United States Senator                                   Ted Cruz                              PRECINCT 4F                                            01 
01050020032000340000168000163000009000000000000REP       United States Senator                                   Ted Cruz                              PRECINCT 4G                                            01 
01050030001000024000012000008000004000000000000REP       United States Senator                                   Mary Miller                           PRECINCT 1A3B                                          01 
01050030002000008000007000001000000000000000000REP       United States Senator                                   Mary Miller                           PRECINCT 1A5A                                          01 
01050030004000003000001000002000000000000000000REP       United States Senator                                   Mary Miller                           PRECINCT 1C                                            01 
01050030006000008000003000004000001000000000000REP       United States Senator                                   Mary Miller                           PRECINCT 1E                                            01 
01050030008000006000002000003000001000000000000REP       United States Senator                                   Mary Miller                           PRECINCT 1F                                            01 
01050030010000004000004000000000000000000000000REP       United States Senator                                   Mary Miller                           PRECINCT 1H                                            01 
01050030011000006000003000003000000000000000000REP       United States Senator                                   Mary Miller                           PRECINCT 1I                                            01 
01050030012000004000002000002000000000000000000REP       United States Senator                                   Mary Miller                           PRECINCT 2A1A                                          01 
01050030014000009000005000004000000000000000000REP       United States Senator                                   Mary Miller                           PRECINCT 2C3A                                          01 
01050030015000008000001000007000000000000000000REP       United States Senator                                   Mary Miller                           PRECINCT 2D                                            01 
01050030016000006000001000005000000000000000000REP       United States Senator                                   Mary Miller                           PRECINCT 2E                                            01 
01050030017000002000002000000000000000000000000REP       United States Senator                                   Mary Miller                           PRECINCT 2F                                            01 
01050030018000009000004000005000000000000000000REP       United States Senator                                   Mary Miller                           PRECINCT 2G                                            01 
01050030019000034000020000012000002000000000000REP       United States Senator                                   Mary Miller                           PRECINCT 3C7G                                          01 
01050030020000008000003000005000000000000000000REP       United States Senator                                   Mary Miller                           PRECINCT 3D                                            01 
01050030021000010000002000006000002000000000000REP       United States Senator                                   Mary Miller                           PRECINCT 3E                                            01 
01050030022000003000000000003000000000000000000REP       United States Senator                                   Mary Miller                           PRECINCT 3F                                            01 
01050030023000004000001000003000000000000000000REP       United States Senator                                   Mary Miller                           PRECINCT 3G                                            01 
01050030024000003000002000001000000000000000000REP       United States Senator                                   Mary Miller                           PRECINCT 3H3C                                          01 
01050030025000005000002000002000001000000000000REP       United States Senator                                   Mary Miller                           PRECINCT 3I                                            01 
01050030026000020000011000009000000000000000000REP       United States Senator                                   Mary Miller                           PRECINCT 4A6E                                          01 
01050030027000021000011000008000002000000000000REP       United States Senator                                   Mary Miller                           PRECINCT 4B                                            01 
01050030029000012000006000006000000000000000000REP       United States Senator                                   Mary Miller                           PRECINCT 4D                                            01 
01050030030000008000006000002000000000000000000REP       United States Senator                                   Mary Miller                           PRECINCT 4E                                            01 
01050030031000012000008000004000000000000000000REP       United States Senator                                   Mary Miller                           PRECINCT 4F                                            01 
01050030032000014000005000007000002000000000000REP       United States Senator                                   Mary Miller                           PRECINCT 4G                                            01 
01050040001000004000001000003000000000000000000REP       United States Senator                                   Geraldine Sam                         PRECINCT 1A3B                                          01 
01050040002000000000000000000000000000000000000REP       United States Senator                                   Geraldine Sam                         PRECINCT 1A5A                                          01 
01050040004000002000000000002000000000000000000REP       United States Senator                                   Geraldine Sam                         PRECINCT 1C                                            01 
01050040006000001000000000001000000000000000000REP       United States Senator                                   Geraldine Sam                         PRECINCT 1E                                            01 
01050040008000002000000000001000001000000000000REP       United States Senator                                   Geraldine Sam                         PRECINCT 1F                                            01 
01050040010000001000001000000000000000000000000REP       United States Senator                                   Geraldine Sam                         PRECINCT 1H                                            01 
01050040011000001000001000000000000000000000000REP       United States Senator                                   Geraldine Sam                         PRECINCT 1I                                            01 
01050040012000000000000000000000000000000000000REP       United States Senator                                   Geraldine Sam                         PRECINCT 2A1A                                          01 
01050040014000001000000000001000000000000000000REP       United States Senator                                   Geraldine Sam                         PRECINCT 2C3A                                          01 
01050040015000003000000000002000001000000000000REP       United States Senator                                   Geraldine Sam                         PRECINCT 2D                                            01 
01050040016000003000001000002000000000000000000REP       United States Senator                                   Geraldine Sam                         PRECINCT 2E                                            01 
01050040017000000000000000000000000000000000000REP       United States Senator                                   Geraldine Sam                         PRECINCT 2F                                            01 
01050040018000000000000000000000000000000000000REP       United States Senator                                   Geraldine Sam                         PRECINCT 2G                                            01 
01050040019000006000003000002000001000000000000REP       United States Senator                                   Geraldine Sam                         PRECINCT 3C7G                                          01 
01050040020000001000000000001000000000000000000REP       United States Senator                                   Geraldine Sam                         PRECINCT 3D                                            01 
01050040021000002000000000002000000000000000000REP       United States Senator                                   Geraldine Sam                         PRECINCT 3E                                            01 
01050040022000000000000000000000000000000000000REP       United States Senator                                   Geraldine Sam                         PRECINCT 3F                                            01 
01050040023000000000000000000000000000000000000REP       United States Senator                                   Geraldine Sam                         PRECINCT 3G                                            01 
01050040024000001000000000001000000000000000000REP       United States Senator                                   Geraldine Sam                         PRECINCT 3H3C                                          01 
01050040025000001000000000000000001000000000000REP       United States Senator                                   Geraldine Sam                         PRECINCT 3I                                            01 
01050040026000001000000000001000000000000000000REP       United States Senator                                   Geraldine Sam                         PRECINCT 4A6E                                          01 
01050040027000003000003000000000000000000000000REP       United States Senator                                   Geraldine Sam                         PRECINCT 4B                                            01 
01050040029000003000000000003000000000000000000REP       United States Senator                                   Geraldine Sam                         PRECINCT 4D                                            01 
01050040030000003000000000003000000000000000000REP       United States Senator                                   Geraldine Sam                         PRECINCT 4E                                            01 
01050040031000002000001000000000001000000000000REP       United States Senator                                   Geraldine Sam                         PRECINCT 4F                                            01 
01050040032000002000001000001000000000000000000REP       United States Senator                                   Geraldine Sam                         PRECINCT 4G                                            01 
01050050001000009000006000003000000000000000000REP       United States Senator                                   Stefano de Stefano                    PRECINCT 1A3B                                          01 
01050050002000005000003000002000000000000000000REP       United States Senator                                   Stefano de Stefano                    PRECINCT 1A5A                                          01 
01050050004000001000000000001000000000000000000REP       United States Senator                                   Stefano de Stefano                    PRECINCT 1C                                            01 
01050050006000001000000000001000000000000000000REP       United States Senator                                   Stefano de Stefano                    PRECINCT 1E                                            01 
01050050008000003000002000000000001000000000000REP       United States Senator                                   Stefano de Stefano                    PRECINCT 1F                                            01 
01050050010000002000002000000000000000000000000REP       United States Senator                                   Stefano de Stefano                    PRECINCT 1H                                            01 
01050050011000001000001000000000000000000000000REP       United States Senator                                   Stefano de Stefano                    PRECINCT 1I                                            01 
01050050012000000000000000000000000000000000000REP       United States Senator                                   Stefano de Stefano                    PRECINCT 2A1A                                          01 
01050050014000005000003000000000002000000000000REP       United States Senator                                   Stefano de Stefano                    PRECINCT 2C3A                                          01 
01050050015000000000000000000000000000000000000REP       United States Senator                                   Stefano de Stefano                    PRECINCT 2D                                            01 
01050050016000001000001000000000000000000000000REP       United States Senator                                   Stefano de Stefano                    PRECINCT 2E                                            01 
01050050017000001000000000001000000000000000000REP       United States Senator                                   Stefano de Stefano                    PRECINCT 2F                                            01 
01050050018000002000000000002000000000000000000REP       United States Senator                                   Stefano de Stefano                    PRECINCT 2G                                            01 
01050050019000010000004000004000002000000000000REP       United States Senator                                   Stefano de Stefano                    PRECINCT 3C7G                                          01 
01050050020000001000001000000000000000000000000REP       United States Senator                                   Stefano de Stefano                    PRECINCT 3D                                            01 
01050050021000000000000000000000000000000000000REP       United States Senator                                   Stefano de Stefano                    PRECINCT 3E                                            01 
01050050022000004000002000000000002000000000000REP       United States Senator                                   Stefano de Stefano                    PRECINCT 3F                                            01 
01050050023000001000000000001000000000000000000REP       United States Senator                                   Stefano de Stefano                    PRECINCT 3G                                            01 
01050050024000002000002000000000000000000000000REP       United States Senator                                   Stefano de Stefano                    PRECINCT 3H3C                                          01 
01050050025000004000003000001000000000000000000REP       United States Senator                                   Stefano de Stefano                    PRECINCT 3I                                            01 
01050050026000007000005000002000000000000000000REP       United States Senator                                   Stefano de Stefano                    PRECINCT 4A6E                                          01 
01050050027000004000002000002000000000000000000REP       United States Senator                                   Stefano de Stefano                    PRECINCT 4B                                            01 
01050050029000001000000000001000000000000000000REP       United States Senator                                   Stefano de Stefano                    PRECINCT 4D                                            01 
01050050030000000000000000000000000000000000000REP       United States Senator                                   Stefano de Stefano                    PRECINCT 4E                                            01 
01050050031000005000003000002000000000000000000REP       United States Senator                                   Stefano de Stefano                    PRECINCT 4F                                            01 
01050050032000004000000000004000000000000000000REP       United States Senator                                   Stefano de Stefano                    PRECINCT 4G                                            01 
01050060001000000000000000000000000000000000000REP       United States Senator                                   OVER VOTES                            PRECINCT 1A3B                                          01 
01050060002000000000000000000000000000000000000REP       United States Senator                                   OVER VOTES                            PRECINCT 1A5A                                          01 
01050060004000000000000000000000000000000000000REP       United States Senator                                   OVER VOTES                            PRECINCT 1C                                            01 
01050060006000000000000000000000000000000000000REP       United States Senator                                   OVER VOTES                            PRECINCT 1E                                            01 
01050060008000000000000000000000000000000000000REP       United States Senator                                   OVER VOTES                            PRECINCT 1F                                            01 
01050060010000000000000000000000000000000000000REP       United States Senator                                   OVER VOTES                            PRECINCT 1H                                            01 
01050060011000000000000000000000000000000000000REP       United States Senator                                   OVER VOTES                            PRECINCT 1I                                            01 
01050060012000000000000000000000000000000000000REP       United States Senator                                   OVER VOTES                            PRECINCT 2A1A                                          01 
01050060014000000000000000000000000000000000000REP       United States Senator                                   OVER VOTES                            PRECINCT 2C3A                                          01 
01050060015000000000000000000000000000000000000REP       United States Senator                                   OVER VOTES                            PRECINCT 2D                                            01 
01050060016000000000000000000000000000000000000REP       United States Senator                                   OVER VOTES                            PRECINCT 2E                                            01 
01050060017000000000000000000000000000000000000REP       United States Senator                                   OVER VOTES                            PRECINCT 2F                                            01 
01050060018000000000000000000000000000000000000REP       United States Senator                                   OVER VOTES                            PRECINCT 2G                                            01 
01050060019000000000000000000000000000000000000REP       United States Senator                                   OVER VOTES                            PRECINCT 3C7G                                          01 
01050060020000000000000000000000000000000000000REP       United States Senator                                   OVER VOTES                            PRECINCT 3D                                            01 
01050060021000000000000000000000000000000000000REP       United States Senator                                   OVER VOTES                            PRECINCT 3E                                            01 
01050060022000000000000000000000000000000000000REP       United States Senator                                   OVER VOTES                            PRECINCT 3F                                            01 
01050060023000000000000000000000000000000000000REP       United States Senator                                   OVER VOTES                            PRECINCT 3G                                            01 
01050060024000000000000000000000000000000000000REP       United States Senator                                   OVER VOTES                            PRECINCT 3H3C                                          01 
01050060025000000000000000000000000000000000000REP       United States Senator                                   OVER VOTES                            PRECINCT 3I                                            01 
01050060026000000000000000000000000000000000000REP       United States Senator                                   OVER VOTES                            PRECINCT 4A6E                                          01 
01050060027000001000000000001000000000000000000REP       United States Senator                                   OVER VOTES                            PRECINCT 4B                                            01 
01050060029000000000000000000000000000000000000REP       United States Senator                                   OVER VOTES                            PRECINCT 4D                                            01 
01050060030000000000000000000000000000000000000REP       United States Senator                                   OVER VOTES                            PRECINCT 4E                                            01 
01050060031000000000000000000000000000000000000REP       United States Senator                                   OVER VOTES                            PRECINCT 4F                                            01 
01050060032000000000000000000000000000000000000REP       United States Senator                                   OVER VOTES                            PRECINCT 4G                                            01 
01050070001000025000014000011000000000000000000REP       United States Senator                                   UNDER VOTES                           PRECINCT 1A3B                                          01 
01050070002000008000007000001000000000000000000REP       United States Senator                                   UNDER VOTES                           PRECINCT 1A5A                                          01 
01050070004000006000004000002000000000000000000REP       United States Senator                                   UNDER VOTES                           PRECINCT 1C                                            01 
01050070006000022000008000014000000000000000000REP       United States Senator                                   UNDER VOTES                           PRECINCT 1E                                            01 
01050070008000014000004000010000000000000000000REP       United States Senator                                   UNDER VOTES                           PRECINCT 1F                                            01 
01050070010000003000003000000000000000000000000REP       United States Senator                                   UNDER VOTES                           PRECINCT 1H                                            01 
01050070011000010000004000006000000000000000000REP       United States Senator                                   UNDER VOTES                           PRECINCT 1I                                            01 
01050070012000001000001000000000000000000000000REP       United States Senator                                   UNDER VOTES                           PRECINCT 2A1A                                          01 
01050070014000007000002000005000000000000000000REP       United States Senator                                   UNDER VOTES                           PRECINCT 2C3A                                          01 
01050070015000042000009000033000000000000000000REP       United States Senator                                   UNDER VOTES                           PRECINCT 2D                                            01 
01050070016000016000002000013000001000000000000REP       United States Senator                                   UNDER VOTES                           PRECINCT 2E                                            01 
01050070017000010000001000009000000000000000000REP       United States Senator                                   UNDER VOTES                           PRECINCT 2F                                            01 
01050070018000007000001000006000000000000000000REP       United States Senator                                   UNDER VOTES                           PRECINCT 2G                                            01 
01050070019000049000029000016000004000000000000REP       United States Senator                                   UNDER VOTES                           PRECINCT 3C7G                                          01 
01050070020000003000000000003000000000000000000REP       United States Senator                                   UNDER VOTES                           PRECINCT 3D                                            01 
01050070021000011000007000004000000000000000000REP       United States Senator                                   UNDER VOTES                           PRECINCT 3E                                            01 
01050070022000004000002000002000000000000000000REP       United States Senator                                   UNDER VOTES                           PRECINCT 3F                                            01 
01050070023000013000004000009000000000000000000REP       United States Senator                                   UNDER VOTES                           PRECINCT 3G                                            01 
01050070024000010000002000008000000000000000000REP       United States Senator                                   UNDER VOTES                           PRECINCT 3H3C                                          01 
01050070025000018000014000004000000000000000000REP       United States Senator                                   UNDER VOTES                           PRECINCT 3I                                            01 
01050070026000012000007000005000000000000000000REP       United States Senator                                   UNDER VOTES                           PRECINCT 4A6E                                          01 
01050070027000031000014000015000002000000000000REP       United States Senator                                   UNDER VOTES                           PRECINCT 4B                                            01 
01050070029000034000018000016000000000000000000REP       United States Senator                                   UNDER VOTES                           PRECINCT 4D                                            01 
01050070030000025000010000015000000000000000000REP       United States Senator                                   UNDER VOTES                           PRECINCT 4E                                            01 
01050070031000035000022000013000000000000000000REP       United States Senator                                   UNDER VOTES                           PRECINCT 4F                                            01 
01050070032000034000018000015000001000000000000REP       United States Senator                                   UNDER VOTES                           PRECINCT 4G                                            01 
01060010001000046000024000019000003000000000000REP       United States Representative, District 4                John Cooper                           PRECINCT 1A3B                                          01 
01060010002000021000010000007000004000000000000REP       United States Representative, District 4                John Cooper                           PRECINCT 1A5A                                          01 
01060010004000012000006000006000000000000000000REP       United States Representative, District 4                John Cooper                           PRECINCT 1C                                            01 
01060010006000026000007000019000000000000000000REP       United States Representative, District 4                John Cooper                           PRECINCT 1E                                            01 
01060010008000037000011000021000005000000000000REP       United States Representative, District 4                John Cooper                           PRECINCT 1F                                            01 
01060010010000011000010000000000001000000000000REP       United States Representative, District 4                John Cooper                           PRECINCT 1H                                            01 
01060010011000009000001000008000000000000000000REP       United States Representative, District 4                John Cooper                           PRECINCT 1I                                            01 
01060010012000007000005000002000000000000000000REP       United States Representative, District 4                John Cooper                           PRECINCT 2A1A                                          01 
01060010014000022000010000011000001000000000000REP       United States Representative, District 4                John Cooper                           PRECINCT 2C3A                                          01 
01060010015000027000004000022000001000000000000REP       United States Representative, District 4                John Cooper                           PRECINCT 2D                                            01 
01060010016000017000003000011000003000000000000REP       United States Representative, District 4                John Cooper                           PRECINCT 2E                                            01 
01060010017000010000001000009000000000000000000REP       United States Representative, District 4                John Cooper                           PRECINCT 2F                                            01 
01060010018000018000005000013000000000000000000REP       United States Representative, District 4                John Cooper                           PRECINCT 2G                                            01 
01060010019000052000029000021000002000000000000REP       United States Representative, District 4                John Cooper                           PRECINCT 3C7G                                          01 
01060010020000016000002000014000000000000000000REP       United States Representative, District 4                John Cooper                           PRECINCT 3D                                            01 
01060010021000035000009000024000002000000000000REP       United States Representative, District 4                John Cooper                           PRECINCT 3E                                            01 
01060010022000012000004000006000002000000000000REP       United States Representative, District 4                John Cooper                           PRECINCT 3F                                            01 
01060010023000015000008000007000000000000000000REP       United States Representative, District 4                John Cooper                           PRECINCT 3G                                            01 
01060010024000007000004000002000001000000000000REP       United States Representative, District 4                John Cooper                           PRECINCT 3H3C                                          01 
01060010025000041000015000022000004000000000000REP       United States Representative, District 4                John Cooper                           PRECINCT 3I                                            01 
01060010026000028000018000010000000000000000000REP       United States Representative, District 4                John Cooper                           PRECINCT 4A6E                                          01 
01060010027000069000024000036000009000000000000REP       United States Representative, District 4                John Cooper                           PRECINCT 4B                                            01 
01060010029000049000017000030000002000000000000REP       United States Representative, District 4                John Cooper                           PRECINCT 4D                                            01 
01060010030000029000006000023000000000000000000REP       United States Representative, District 4                John Cooper                           PRECINCT 4E                                            01 
01060010031000042000021000018000003000000000000REP       United States Representative, District 4                John Cooper                           PRECINCT 4F                                            01 
01060010032000030000016000013000001000000000000REP       United States Representative, District 4                John Cooper                           PRECINCT 4G                                            01 
01060020001000321000163000126000032000000000000REP       United States Representative, District 4                John Ratcliffe                        PRECINCT 1A3B                                          01 
01060020002000093000048000032000013000000000000REP       United States Representative, District 4                John Ratcliffe                        PRECINCT 1A5A                                          01 
01060020004000053000020000030000003000000000000REP       United States Representative, District 4                John Ratcliffe                        PRECINCT 1C                                            01 
01060020006000131000037000085000009000000000000REP       United States Representative, District 4                John Ratcliffe                        PRECINCT 1E                                            01 
01060020008000229000070000144000015000000000000REP       United States Representative, District 4                John Ratcliffe                        PRECINCT 1F                                            01 
01060020010000043000031000009000003000000000000REP       United States Representative, District 4                John Ratcliffe                        PRECINCT 1H                                            01 
01060020011000067000021000041000005000000000000REP       United States Representative, District 4                John Ratcliffe                        PRECINCT 1I                                            01 
01060020012000032000015000012000005000000000000REP       United States Representative, District 4                John Ratcliffe                        PRECINCT 2A1A                                          01 
01060020014000138000046000070000022000000000000REP       United States Representative, District 4                John Ratcliffe                        PRECINCT 2C3A                                          01 
01060020015000110000025000080000005000000000000REP       United States Representative, District 4                John Ratcliffe                        PRECINCT 2D                                            01 
01060020016000105000034000062000009000000000000REP       United States Representative, District 4                John Ratcliffe                        PRECINCT 2E                                            01 
01060020017000037000010000025000002000000000000REP       United States Representative, District 4                John Ratcliffe                        PRECINCT 2F                                            01 
01060020018000073000026000041000006000000000000REP       United States Representative, District 4                John Ratcliffe                        PRECINCT 2G                                            01 
01060020019000365000158000159000048000000000000REP       United States Representative, District 4                John Ratcliffe                        PRECINCT 3C7G                                          01 
01060020020000124000033000080000011000000000000REP       United States Representative, District 4                John Ratcliffe                        PRECINCT 3D                                            01 
01060020021000220000068000133000019000000000000REP       United States Representative, District 4                John Ratcliffe                        PRECINCT 3E                                            01 
01060020022000090000026000058000006000000000000REP       United States Representative, District 4                John Ratcliffe                        PRECINCT 3F                                            01 
01060020023000103000033000065000005000000000000REP       United States Representative, District 4                John Ratcliffe                        PRECINCT 3G                                            01 
01060020024000083000037000034000012000000000000REP       United States Representative, District 4                John Ratcliffe                        PRECINCT 3H3C                                          01 
01060020025000202000090000098000014000000000000REP       United States Representative, District 4                John Ratcliffe                        PRECINCT 3I                                            01 
01060020026000226000123000080000023000000000000REP       United States Representative, District 4                John Ratcliffe                        PRECINCT 4A6E                                          01 
01060020027000294000101000173000020000000000000REP       United States Representative, District 4                John Ratcliffe                        PRECINCT 4B                                            01 
01060020029000307000089000205000013000000000000REP       United States Representative, District 4                John Ratcliffe                        PRECINCT 4D                                            01 
01060020030000172000057000107000008000000000000REP       United States Representative, District 4                John Ratcliffe                        PRECINCT 4E                                            01 
01060020031000252000108000120000024000000000000REP       United States Representative, District 4                John Ratcliffe                        PRECINCT 4F                                            01 
01060020032000346000169000167000010000000000000REP       United States Representative, District 4                John Ratcliffe                        PRECINCT 4G                                            01 
01060030001000000000000000000000000000000000000REP       United States Representative, District 4                OVER VOTES                            PRECINCT 1A3B                                          01 
01060030002000001000001000000000000000000000000REP       United States Representative, District 4                OVER VOTES                            PRECINCT 1A5A                                          01 
01060030004000000000000000000000000000000000000REP       United States Representative, District 4                OVER VOTES                            PRECINCT 1C                                            01 
01060030006000000000000000000000000000000000000REP       United States Representative, District 4                OVER VOTES                            PRECINCT 1E                                            01 
01060030008000000000000000000000000000000000000REP       United States Representative, District 4                OVER VOTES                            PRECINCT 1F                                            01 
01060030010000000000000000000000000000000000000REP       United States Representative, District 4                OVER VOTES                            PRECINCT 1H                                            01 
01060030011000000000000000000000000000000000000REP       United States Representative, District 4                OVER VOTES                            PRECINCT 1I                                            01 
01060030012000000000000000000000000000000000000REP       United States Representative, District 4                OVER VOTES                            PRECINCT 2A1A                                          01 
01060030014000000000000000000000000000000000000REP       United States Representative, District 4                OVER VOTES                            PRECINCT 2C3A                                          01 
01060030015000000000000000000000000000000000000REP       United States Representative, District 4                OVER VOTES                            PRECINCT 2D                                            01 
01060030016000000000000000000000000000000000000REP       United States Representative, District 4                OVER VOTES                            PRECINCT 2E                                            01 
01060030017000000000000000000000000000000000000REP       United States Representative, District 4                OVER VOTES                            PRECINCT 2F                                            01 
01060030018000000000000000000000000000000000000REP       United States Representative, District 4                OVER VOTES                            PRECINCT 2G                                            01 
01060030019000000000000000000000000000000000000REP       United States Representative, District 4                OVER VOTES                            PRECINCT 3C7G                                          01 
01060030020000000000000000000000000000000000000REP       United States Representative, District 4                OVER VOTES                            PRECINCT 3D                                            01 
01060030021000000000000000000000000000000000000REP       United States Representative, District 4                OVER VOTES                            PRECINCT 3E                                            01 
01060030022000000000000000000000000000000000000REP       United States Representative, District 4                OVER VOTES                            PRECINCT 3F                                            01 
01060030023000000000000000000000000000000000000REP       United States Representative, District 4                OVER VOTES                            PRECINCT 3G                                            01 
01060030024000000000000000000000000000000000000REP       United States Representative, District 4                OVER VOTES                            PRECINCT 3H3C                                          01 
01060030025000000000000000000000000000000000000REP       United States Representative, District 4                OVER VOTES                            PRECINCT 3I                                            01 
01060030026000000000000000000000000000000000000REP       United States Representative, District 4                OVER VOTES                            PRECINCT 4A6E                                          01 
01060030027000000000000000000000000000000000000REP       United States Representative, District 4                OVER VOTES                            PRECINCT 4B                                            01 
01060030029000000000000000000000000000000000000REP       United States Representative, District 4                OVER VOTES                            PRECINCT 4D                                            01 
01060030030000000000000000000000000000000000000REP       United States Representative, District 4                OVER VOTES                            PRECINCT 4E                                            01 
01060030031000000000000000000000000000000000000REP       United States Representative, District 4                OVER VOTES                            PRECINCT 4F                                            01 
01060030032000000000000000000000000000000000000REP       United States Representative, District 4                OVER VOTES                            PRECINCT 4G                                            01 
01060040001000031000015000014000002000000000000REP       United States Representative, District 4                UNDER VOTES                           PRECINCT 1A3B                                          01 
01060040002000007000005000002000000000000000000REP       United States Representative, District 4                UNDER VOTES                           PRECINCT 1A5A                                          01 
01060040004000006000002000004000000000000000000REP       United States Representative, District 4                UNDER VOTES                           PRECINCT 1C                                            01 
01060040006000028000006000022000000000000000000REP       United States Representative, District 4                UNDER VOTES                           PRECINCT 1E                                            01 
01060040008000023000008000015000000000000000000REP       United States Representative, District 4                UNDER VOTES                           PRECINCT 1F                                            01 
01060040010000002000002000000000000000000000000REP       United States Representative, District 4                UNDER VOTES                           PRECINCT 1H                                            01 
01060040011000012000004000008000000000000000000REP       United States Representative, District 4                UNDER VOTES                           PRECINCT 1I                                            01 
01060040012000003000003000000000000000000000000REP       United States Representative, District 4                UNDER VOTES                           PRECINCT 2A1A                                          01 
01060040014000013000004000008000001000000000000REP       United States Representative, District 4                UNDER VOTES                           PRECINCT 2C3A                                          01 
01060040015000040000010000030000000000000000000REP       United States Representative, District 4                UNDER VOTES                           PRECINCT 2D                                            01 
01060040016000016000002000014000000000000000000REP       United States Representative, District 4                UNDER VOTES                           PRECINCT 2E                                            01 
01060040017000008000000000008000000000000000000REP       United States Representative, District 4                UNDER VOTES                           PRECINCT 2F                                            01 
01060040018000009000002000007000000000000000000REP       United States Representative, District 4                UNDER VOTES                           PRECINCT 2G                                            01 
01060040019000048000023000022000003000000000000REP       United States Representative, District 4                UNDER VOTES                           PRECINCT 3C7G                                          01 
01060040020000007000002000003000002000000000000REP       United States Representative, District 4                UNDER VOTES                           PRECINCT 3D                                            01 
01060040021000015000009000006000000000000000000REP       United States Representative, District 4                UNDER VOTES                           PRECINCT 3E                                            01 
01060040022000012000002000010000000000000000000REP       United States Representative, District 4                UNDER VOTES                           PRECINCT 3F                                            01 
01060040023000013000003000010000000000000000000REP       United States Representative, District 4                UNDER VOTES                           PRECINCT 3G                                            01 
01060040024000010000005000004000001000000000000REP       United States Representative, District 4                UNDER VOTES                           PRECINCT 3H3C                                          01 
01060040025000026000015000010000001000000000000REP       United States Representative, District 4                UNDER VOTES                           PRECINCT 3I                                            01 
01060040026000018000005000013000000000000000000REP       United States Representative, District 4                UNDER VOTES                           PRECINCT 4A6E                                          01 
01060040027000039000014000025000000000000000000REP       United States Representative, District 4                UNDER VOTES                           PRECINCT 4B                                            01 
01060040029000053000020000033000000000000000000REP       United States Representative, District 4                UNDER VOTES                           PRECINCT 4D                                            01 
01060040030000035000013000021000001000000000000REP       United States Representative, District 4                UNDER VOTES                           PRECINCT 4E                                            01 
01060040031000036000020000016000000000000000000REP       United States Representative, District 4                UNDER VOTES                           PRECINCT 4F                                            01 
01060040032000037000018000016000003000000000000REP       United States Representative, District 4                UNDER VOTES                           PRECINCT 4G                                            01 
01070010001000042000024000017000001000000000000REP       Governor                                                Barbara Krueger                       PRECINCT 1A3B                                          01 
01070010002000014000008000006000000000000000000REP       Governor                                                Barbara Krueger                       PRECINCT 1A5A                                          01 
01070010004000007000003000004000000000000000000REP       Governor                                                Barbara Krueger                       PRECINCT 1C                                            01 
01070010006000019000007000011000001000000000000REP       Governor                                                Barbara Krueger                       PRECINCT 1E                                            01 
01070010008000021000012000007000002000000000000REP       Governor                                                Barbara Krueger                       PRECINCT 1F                                            01 
01070010010000010000009000000000001000000000000REP       Governor                                                Barbara Krueger                       PRECINCT 1H                                            01 
01070010011000013000007000006000000000000000000REP       Governor                                                Barbara Krueger                       PRECINCT 1I                                            01 
01070010012000009000005000003000001000000000000REP       Governor                                                Barbara Krueger                       PRECINCT 2A1A                                          01 
01070010014000010000002000007000001000000000000REP       Governor                                                Barbara Krueger                       PRECINCT 2C3A                                          01 
01070010015000022000005000016000001000000000000REP       Governor                                                Barbara Krueger                       PRECINCT 2D                                            01 
01070010016000013000004000009000000000000000000REP       Governor                                                Barbara Krueger                       PRECINCT 2E                                            01 
01070010017000006000002000004000000000000000000REP       Governor                                                Barbara Krueger                       PRECINCT 2F                                            01 
01070010018000012000006000006000000000000000000REP       Governor                                                Barbara Krueger                       PRECINCT 2G                                            01 
01070010019000060000039000018000003000000000000REP       Governor                                                Barbara Krueger                       PRECINCT 3C7G                                          01 
01070010020000009000002000007000000000000000000REP       Governor                                                Barbara Krueger                       PRECINCT 3D                                            01 
01070010021000012000005000007000000000000000000REP       Governor                                                Barbara Krueger                       PRECINCT 3E                                            01 
01070010022000012000005000007000000000000000000REP       Governor                                                Barbara Krueger                       PRECINCT 3F                                            01 
01070010023000010000004000006000000000000000000REP       Governor                                                Barbara Krueger                       PRECINCT 3G                                            01 
01070010024000008000004000002000002000000000000REP       Governor                                                Barbara Krueger                       PRECINCT 3H3C                                          01 
01070010025000024000016000008000000000000000000REP       Governor                                                Barbara Krueger                       PRECINCT 3I                                            01 
01070010026000043000026000017000000000000000000REP       Governor                                                Barbara Krueger                       PRECINCT 4A6E                                          01 
01070010027000033000014000017000002000000000000REP       Governor                                                Barbara Krueger                       PRECINCT 4B                                            01 
01070010029000015000006000009000000000000000000REP       Governor                                                Barbara Krueger                       PRECINCT 4D                                            01 
01070010030000023000008000013000002000000000000REP       Governor                                                Barbara Krueger                       PRECINCT 4E                                            01 
01070010031000028000019000007000002000000000000REP       Governor                                                Barbara Krueger                       PRECINCT 4F                                            01 
01070010032000034000015000017000002000000000000REP       Governor                                                Barbara Krueger                       PRECINCT 4G                                            01 
01070020001000323000159000128000036000000000000REP       Governor                                                Greg Abbott                           PRECINCT 1A3B                                          01 
01070020002000097000048000032000017000000000000REP       Governor                                                Greg Abbott                           PRECINCT 1A5A                                          01 
01070020004000059000021000035000003000000000000REP       Governor                                                Greg Abbott                           PRECINCT 1C                                            01 
01070020006000143000036000099000008000000000000REP       Governor                                                Greg Abbott                           PRECINCT 1E                                            01 
01070020008000251000068000166000017000000000000REP       Governor                                                Greg Abbott                           PRECINCT 1F                                            01 
01070020010000044000032000009000003000000000000REP       Governor                                                Greg Abbott                           PRECINCT 1H                                            01 
01070020011000068000017000046000005000000000000REP       Governor                                                Greg Abbott                           PRECINCT 1I                                            01 
01070020012000033000018000011000004000000000000REP       Governor                                                Greg Abbott                           PRECINCT 2A1A                                          01 
01070020014000153000054000076000023000000000000REP       Governor                                                Greg Abbott                           PRECINCT 2C3A                                          01 
01070020015000118000026000087000005000000000000REP       Governor                                                Greg Abbott                           PRECINCT 2D                                            01 
01070020016000109000031000066000012000000000000REP       Governor                                                Greg Abbott                           PRECINCT 2E                                            01 
01070020017000040000008000030000002000000000000REP       Governor                                                Greg Abbott                           PRECINCT 2F                                            01 
01070020018000079000024000049000006000000000000REP       Governor                                                Greg Abbott                           PRECINCT 2G                                            01 
01070020019000363000146000167000050000000000000REP       Governor                                                Greg Abbott                           PRECINCT 3C7G                                          01 
01070020020000136000035000088000013000000000000REP       Governor                                                Greg Abbott                           PRECINCT 3D                                            01 
01070020021000243000072000150000021000000000000REP       Governor                                                Greg Abbott                           PRECINCT 3E                                            01 
01070020022000092000025000061000006000000000000REP       Governor                                                Greg Abbott                           PRECINCT 3F                                            01 
01070020023000111000039000067000005000000000000REP       Governor                                                Greg Abbott                           PRECINCT 3G                                            01 
01070020024000083000040000031000012000000000000REP       Governor                                                Greg Abbott                           PRECINCT 3H3C                                          01 
01070020025000229000094000116000019000000000000REP       Governor                                                Greg Abbott                           PRECINCT 3I                                            01 
01070020026000215000112000080000023000000000000REP       Governor                                                Greg Abbott                           PRECINCT 4A6E                                          01 
01070020027000329000104000200000025000000000000REP       Governor                                                Greg Abbott                           PRECINCT 4B                                            01 
01070020029000356000102000239000015000000000000REP       Governor                                                Greg Abbott                           PRECINCT 4D                                            01 
01070020030000183000058000118000007000000000000REP       Governor                                                Greg Abbott                           PRECINCT 4E                                            01 
01070020031000272000110000137000025000000000000REP       Governor                                                Greg Abbott                           PRECINCT 4F                                            01 
01070020032000348000166000170000012000000000000REP       Governor                                                Greg Abbott                           PRECINCT 4G                                            01 
01070030001000002000002000000000000000000000000REP       Governor                                                SECEDE Kilgore                        PRECINCT 1A3B                                          01 
01070030002000003000001000002000000000000000000REP       Governor                                                SECEDE Kilgore                        PRECINCT 1A5A                                          01 
01070030004000000000000000000000000000000000000REP       Governor                                                SECEDE Kilgore                        PRECINCT 1C                                            01 
01070030006000000000000000000000000000000000000REP       Governor                                                SECEDE Kilgore                        PRECINCT 1E                                            01 
01070030008000003000000000002000001000000000000REP       Governor                                                SECEDE Kilgore                        PRECINCT 1F                                            01 
01070030010000000000000000000000000000000000000REP       Governor                                                SECEDE Kilgore                        PRECINCT 1H                                            01 
01070030011000000000000000000000000000000000000REP       Governor                                                SECEDE Kilgore                        PRECINCT 1I                                            01 
01070030012000000000000000000000000000000000000REP       Governor                                                SECEDE Kilgore                        PRECINCT 2A1A                                          01 
01070030014000001000000000001000000000000000000REP       Governor                                                SECEDE Kilgore                        PRECINCT 2C3A                                          01 
01070030015000000000000000000000000000000000000REP       Governor                                                SECEDE Kilgore                        PRECINCT 2D                                            01 
01070030016000001000001000000000000000000000000REP       Governor                                                SECEDE Kilgore                        PRECINCT 2E                                            01 
01070030017000000000000000000000000000000000000REP       Governor                                                SECEDE Kilgore                        PRECINCT 2F                                            01 
01070030018000002000001000001000000000000000000REP       Governor                                                SECEDE Kilgore                        PRECINCT 2G                                            01 
01070030019000005000001000004000000000000000000REP       Governor                                                SECEDE Kilgore                        PRECINCT 3C7G                                          01 
01070030020000000000000000000000000000000000000REP       Governor                                                SECEDE Kilgore                        PRECINCT 3D                                            01 
01070030021000004000002000002000000000000000000REP       Governor                                                SECEDE Kilgore                        PRECINCT 3E                                            01 
01070030022000000000000000000000000000000000000REP       Governor                                                SECEDE Kilgore                        PRECINCT 3F                                            01 
01070030023000001000000000001000000000000000000REP       Governor                                                SECEDE Kilgore                        PRECINCT 3G                                            01 
01070030024000000000000000000000000000000000000REP       Governor                                                SECEDE Kilgore                        PRECINCT 3H3C                                          01 
01070030025000000000000000000000000000000000000REP       Governor                                                SECEDE Kilgore                        PRECINCT 3I                                            01 
01070030026000003000003000000000000000000000000REP       Governor                                                SECEDE Kilgore                        PRECINCT 4A6E                                          01 
01070030027000003000001000002000000000000000000REP       Governor                                                SECEDE Kilgore                        PRECINCT 4B                                            01 
01070030029000003000001000002000000000000000000REP       Governor                                                SECEDE Kilgore                        PRECINCT 4D                                            01 
01070030030000005000001000004000000000000000000REP       Governor                                                SECEDE Kilgore                        PRECINCT 4E                                            01 
01070030031000001000001000000000000000000000000REP       Governor                                                SECEDE Kilgore                        PRECINCT 4F                                            01 
01070030032000003000001000002000000000000000000REP       Governor                                                SECEDE Kilgore                        PRECINCT 4G                                            01 
01070040001000000000000000000000000000000000000REP       Governor                                                OVER VOTES                            PRECINCT 1A3B                                          01 
01070040002000000000000000000000000000000000000REP       Governor                                                OVER VOTES                            PRECINCT 1A5A                                          01 
01070040004000000000000000000000000000000000000REP       Governor                                                OVER VOTES                            PRECINCT 1C                                            01 
01070040006000000000000000000000000000000000000REP       Governor                                                OVER VOTES                            PRECINCT 1E                                            01 
01070040008000000000000000000000000000000000000REP       Governor                                                OVER VOTES                            PRECINCT 1F                                            01 
