01010010001000000          REGISTERED VOTERS - TOTAL                               REGISTERED VOTERS - TOTAL             1 - Olton Community Cente                              00 
01010010002000000          REGISTERED VOTERS - TOTAL                               REGISTERED VOTERS - TOTAL             2 - Lamb County Ag Center                              00 
01010010003000000          REGISTERED VOTERS - TOTAL                               REGISTERED VOTERS - TOTAL             3 -Earth Community Center                              00 
01010010004000000          REGISTERED VOTERS - TOTAL                               REGISTERED VOTERS - TOTAL             4 -Sudan Community Ce                                  00 
01010010005000000          REGISTERED VOTERS - TOTAL                               REGISTERED VOTERS - TOTAL             5 -Olton Community Center                              00 
01010010006000000          REGISTERED VOTERS - TOTAL                               REGISTERED VOTERS - TOTAL             6 -Lamb County Ag Center                               00 
01010010007000000          REGISTERED VOTERS - TOTAL                               REGISTERED VOTERS - TOTAL             7 & 8-Lamb County Ag Cent                              00 
01010010008000000          REGISTERED VOTERS - TOTAL                               REGISTERED VOTERS - TOTAL             9 - Lamb County Ag Center                              00 
01010010009000000          REGISTERED VOTERS - TOTAL                               REGISTERED VOTERS - TOTAL             10-Amherst Community Cent                              00 
01010010010000000          REGISTERED VOTERS - TOTAL                               REGISTERED VOTERS - TOTAL             11 - Sudan Comm. Ctr                                   00 
01010010011000000          REGISTERED VOTERS - TOTAL                               REGISTERED VOTERS - TOTAL             12-1st Babtist Church                                  00 
01020010001000121          BALLOTS CAST - TOTAL                                    BALLOTS CAST - TOTAL                  1 - Olton Community Cente                              00 
01020010002000069          BALLOTS CAST - TOTAL                                    BALLOTS CAST - TOTAL                  2 - Lamb County Ag Center                              00 
01020010003000152          BALLOTS CAST - TOTAL                                    BALLOTS CAST - TOTAL                  3 -Earth Community Center                              00 
01020010004000027          BALLOTS CAST - TOTAL                                    BALLOTS CAST - TOTAL                  4 -Sudan Community Ce                                  00 
01020010005000071          BALLOTS CAST - TOTAL                                    BALLOTS CAST - TOTAL                  5 -Olton Community Center                              00 
01020010006000073          BALLOTS CAST - TOTAL                                    BALLOTS CAST - TOTAL                  6 -Lamb County Ag Center                               00 
01020010007000609          BALLOTS CAST - TOTAL                                    BALLOTS CAST - TOTAL                  7 & 8-Lamb County Ag Cent                              00 
01020010008000277          BALLOTS CAST - TOTAL                                    BALLOTS CAST - TOTAL                  9 - Lamb County Ag Center                              00 
01020010009000144          BALLOTS CAST - TOTAL                                    BALLOTS CAST - TOTAL                  10-Amherst Community Cent                              00 
01020010010000286          BALLOTS CAST - TOTAL                                    BALLOTS CAST - TOTAL                  11 - Sudan Comm. Ctr                                   00 
01020010011000042          BALLOTS CAST - TOTAL                                    BALLOTS CAST - TOTAL                  12-1st Babtist Church                                  00 
01030010001000114REP       BALLOTS CAST - REPUBLICAN PARTY                         BALLOTS CAST - REPUBLICAN PARTY       1 - Olton Community Cente                              00 
01030010002000050REP       BALLOTS CAST - REPUBLICAN PARTY                         BALLOTS CAST - REPUBLICAN PARTY       2 - Lamb County Ag Center                              00 
01030010003000144REP       BALLOTS CAST - REPUBLICAN PARTY                         BALLOTS CAST - REPUBLICAN PARTY       3 -Earth Community Center                              00 
01030010004000025REP       BALLOTS CAST - REPUBLICAN PARTY                         BALLOTS CAST - REPUBLICAN PARTY       4 -Sudan Community Ce                                  00 
01030010005000068REP       BALLOTS CAST - REPUBLICAN PARTY                         BALLOTS CAST - REPUBLICAN PARTY       5 -Olton Community Center                              00 
01030010006000069REP       BALLOTS CAST - REPUBLICAN PARTY                         BALLOTS CAST - REPUBLICAN PARTY       6 -Lamb County Ag Center                               00 
01030010007000562REP       BALLOTS CAST - REPUBLICAN PARTY                         BALLOTS CAST - REPUBLICAN PARTY       7 & 8-Lamb County Ag Cent                              00 
01030010008000237REP       BALLOTS CAST - REPUBLICAN PARTY                         BALLOTS CAST - REPUBLICAN PARTY       9 - Lamb County Ag Center                              00 
01030010009000133REP       BALLOTS CAST - REPUBLICAN PARTY                         BALLOTS CAST - REPUBLICAN PARTY       10-Amherst Community Cent                              00 
01030010010000272REP       BALLOTS CAST - REPUBLICAN PARTY                         BALLOTS CAST - REPUBLICAN PARTY       11 - Sudan Comm. Ctr                                   00 
01030010011000041REP       BALLOTS CAST - REPUBLICAN PARTY                         BALLOTS CAST - REPUBLICAN PARTY       12-1st Babtist Church                                  00 
01040010001000007DEM       BALLOTS CAST - DEMOCRATIC PARTY                         BALLOTS CAST - DEMOCRATIC PARTY       1 - Olton Community Cente                              00 
01040010002000019DEM       BALLOTS CAST - DEMOCRATIC PARTY                         BALLOTS CAST - DEMOCRATIC PARTY       2 - Lamb County Ag Center                              00 
01040010003000008DEM       BALLOTS CAST - DEMOCRATIC PARTY                         BALLOTS CAST - DEMOCRATIC PARTY       3 -Earth Community Center                              00 
01040010004000002DEM       BALLOTS CAST - DEMOCRATIC PARTY                         BALLOTS CAST - DEMOCRATIC PARTY       4 -Sudan Community Ce                                  00 
01040010005000003DEM       BALLOTS CAST - DEMOCRATIC PARTY                         BALLOTS CAST - DEMOCRATIC PARTY       5 -Olton Community Center                              00 
01040010006000004DEM       BALLOTS CAST - DEMOCRATIC PARTY                         BALLOTS CAST - DEMOCRATIC PARTY       6 -Lamb County Ag Center                               00 
01040010007000047DEM       BALLOTS CAST - DEMOCRATIC PARTY                         BALLOTS CAST - DEMOCRATIC PARTY       7 & 8-Lamb County Ag Cent                              00 
01040010008000040DEM       BALLOTS CAST - DEMOCRATIC PARTY                         BALLOTS CAST - DEMOCRATIC PARTY       9 - Lamb County Ag Center                              00 
01040010009000011DEM       BALLOTS CAST - DEMOCRATIC PARTY                         BALLOTS CAST - DEMOCRATIC PARTY       10-Amherst Community Cent                              00 
01040010010000014DEM       BALLOTS CAST - DEMOCRATIC PARTY                         BALLOTS CAST - DEMOCRATIC PARTY       11 - Sudan Comm. Ctr                                   00 
01040010011000001DEM       BALLOTS CAST - DEMOCRATIC PARTY                         BALLOTS CAST - DEMOCRATIC PARTY       12-1st Babtist Church                                  00 
01050010001000102REP       United States Senator                                   Ted Cruz                              1 - Olton Community Cente                              01 
01050010002000041REP       United States Senator                                   Ted Cruz                              2 - Lamb County Ag Center                              01 
01050010003000128REP       United States Senator                                   Ted Cruz                              3 -Earth Community Center                              01 
01050010004000018REP       United States Senator                                   Ted Cruz                              4 -Sudan Community Ce                                  01 
01050010005000062REP       United States Senator                                   Ted Cruz                              5 -Olton Community Center                              01 
01050010006000063REP       United States Senator                                   Ted Cruz                              6 -Lamb County Ag Center                               01 
01050010007000503REP       United States Senator                                   Ted Cruz                              7 & 8-Lamb County Ag Cent                              01 
01050010008000204REP       United States Senator                                   Ted Cruz                              9 - Lamb County Ag Center                              01 
01050010009000119REP       United States Senator                                   Ted Cruz                              10-Amherst Community Cent                              01 
01050010010000239REP       United States Senator                                   Ted Cruz                              11 - Sudan Comm. Ctr                                   01 
01050010011000037REP       United States Senator                                   Ted Cruz                              12-1st Babtist Church                                  01 
01050020001000002REP       United States Senator                                   Geraldine Sam                         1 - Olton Community Cente                              01 
01050020002000000REP       United States Senator                                   Geraldine Sam                         2 - Lamb County Ag Center                              01 
01050020003000000REP       United States Senator                                   Geraldine Sam                         3 -Earth Community Center                              01 
01050020004000000REP       United States Senator                                   Geraldine Sam                         4 -Sudan Community Ce                                  01 
01050020005000002REP       United States Senator                                   Geraldine Sam                         5 -Olton Community Center                              01 
01050020006000001REP       United States Senator                                   Geraldine Sam                         6 -Lamb County Ag Center                               01 
01050020007000007REP       United States Senator                                   Geraldine Sam                         7 & 8-Lamb County Ag Cent                              01 
01050020008000002REP       United States Senator                                   Geraldine Sam                         9 - Lamb County Ag Center                              01 
01050020009000000REP       United States Senator                                   Geraldine Sam                         10-Amherst Community Cent                              01 
01050020010000004REP       United States Senator                                   Geraldine Sam                         11 - Sudan Comm. Ctr                                   01 
01050020011000001REP       United States Senator                                   Geraldine Sam                         12-1st Babtist Church                                  01 
01050030001000003REP       United States Senator                                   Bruce Jacobson, Jr.                   1 - Olton Community Cente                              01 
01050030002000001REP       United States Senator                                   Bruce Jacobson, Jr.                   2 - Lamb County Ag Center                              01 
01050030003000003REP       United States Senator                                   Bruce Jacobson, Jr.                   3 -Earth Community Center                              01 
01050030004000000REP       United States Senator                                   Bruce Jacobson, Jr.                   4 -Sudan Community Ce                                  01 
01050030005000001REP       United States Senator                                   Bruce Jacobson, Jr.                   5 -Olton Community Center                              01 
01050030006000001REP       United States Senator                                   Bruce Jacobson, Jr.                   6 -Lamb County Ag Center                               01 
01050030007000019REP       United States Senator                                   Bruce Jacobson, Jr.                   7 & 8-Lamb County Ag Cent                              01 
01050030008000012REP       United States Senator                                   Bruce Jacobson, Jr.                   9 - Lamb County Ag Center                              01 
01050030009000002REP       United States Senator                                   Bruce Jacobson, Jr.                   10-Amherst Community Cent                              01 
01050030010000012REP       United States Senator                                   Bruce Jacobson, Jr.                   11 - Sudan Comm. Ctr                                   01 
01050030011000002REP       United States Senator                                   Bruce Jacobson, Jr.                   12-1st Babtist Church                                  01 
01050040001000005REP       United States Senator                                   Mary Miller                           1 - Olton Community Cente                              01 
01050040002000002REP       United States Senator                                   Mary Miller                           2 - Lamb County Ag Center                              01 
01050040003000003REP       United States Senator                                   Mary Miller                           3 -Earth Community Center                              01 
01050040004000000REP       United States Senator                                   Mary Miller                           4 -Sudan Community Ce                                  01 
01050040005000000REP       United States Senator                                   Mary Miller                           5 -Olton Community Center                              01 
01050040006000001REP       United States Senator                                   Mary Miller                           6 -Lamb County Ag Center                               01 
01050040007000011REP       United States Senator                                   Mary Miller                           7 & 8-Lamb County Ag Cent                              01 
01050040008000006REP       United States Senator                                   Mary Miller                           9 - Lamb County Ag Center                              01 
01050040009000005REP       United States Senator                                   Mary Miller                           10-Amherst Community Cent                              01 
01050040010000005REP       United States Senator                                   Mary Miller                           11 - Sudan Comm. Ctr                                   01 
01050040011000000REP       United States Senator                                   Mary Miller                           12-1st Babtist Church                                  01 
01050050001000000REP       United States Senator                                   Stefano de Stefano                    1 - Olton Community Cente                              01 
01050050002000001REP       United States Senator                                   Stefano de Stefano                    2 - Lamb County Ag Center                              01 
01050050003000002REP       United States Senator                                   Stefano de Stefano                    3 -Earth Community Center                              01 
01050050004000001REP       United States Senator                                   Stefano de Stefano                    4 -Sudan Community Ce                                  01 
01050050005000001REP       United States Senator                                   Stefano de Stefano                    5 -Olton Community Center                              01 
01050050006000000REP       United States Senator                                   Stefano de Stefano                    6 -Lamb County Ag Center                               01 
01050050007000006REP       United States Senator                                   Stefano de Stefano                    7 & 8-Lamb County Ag Cent                              01 
01050050008000003REP       United States Senator                                   Stefano de Stefano                    9 - Lamb County Ag Center                              01 
01050050009000002REP       United States Senator                                   Stefano de Stefano                    10-Amherst Community Cent                              01 
01050050010000001REP       United States Senator                                   Stefano de Stefano                    11 - Sudan Comm. Ctr                                   01 
01050050011000001REP       United States Senator                                   Stefano de Stefano                    12-1st Babtist Church                                  01 
01050060001000000REP       United States Senator                                   OVER VOTES                            1 - Olton Community Cente                              01 
01050060002000001REP       United States Senator                                   OVER VOTES                            2 - Lamb County Ag Center                              01 
01050060003000000REP       United States Senator                                   OVER VOTES                            3 -Earth Community Center                              01 
01050060004000000REP       United States Senator                                   OVER VOTES                            4 -Sudan Community Ce                                  01 
01050060005000000REP       United States Senator                                   OVER VOTES                            5 -Olton Community Center                              01 
01050060006000000REP       United States Senator                                   OVER VOTES                            6 -Lamb County Ag Center                               01 
01050060007000000REP       United States Senator                                   OVER VOTES                            7 & 8-Lamb County Ag Cent                              01 
01050060008000000REP       United States Senator                                   OVER VOTES                            9 - Lamb County Ag Center                              01 
01050060009000000REP       United States Senator                                   OVER VOTES                            10-Amherst Community Cent                              01 
01050060010000000REP       United States Senator                                   OVER VOTES                            11 - Sudan Comm. Ctr                                   01 
01050060011000000REP       United States Senator                                   OVER VOTES                            12-1st Babtist Church                                  01 
01050070001000002REP       United States Senator                                   UNDER VOTES                           1 - Olton Community Cente                              01 
01050070002000004REP       United States Senator                                   UNDER VOTES                           2 - Lamb County Ag Center                              01 
01050070003000007REP       United States Senator                                   UNDER VOTES                           3 -Earth Community Center                              01 
01050070004000006REP       United States Senator                                   UNDER VOTES                           4 -Sudan Community Ce                                  01 
01050070005000002REP       United States Senator                                   UNDER VOTES                           5 -Olton Community Center                              01 
01050070006000003REP       United States Senator                                   UNDER VOTES                           6 -Lamb County Ag Center                               01 
01050070007000013REP       United States Senator                                   UNDER VOTES                           7 & 8-Lamb County Ag Cent                              01 
01050070008000010REP       United States Senator                                   UNDER VOTES                           9 - Lamb County Ag Center                              01 
01050070009000005REP       United States Senator                                   UNDER VOTES                           10-Amherst Community Cent                              01 
01050070010000011REP       United States Senator                                   UNDER VOTES                           11 - Sudan Comm. Ctr                                   01 
01050070011000000REP       United States Senator                                   UNDER VOTES                           12-1st Babtist Church                                  01 
01060010001000095REP       US Representative, District 19                          Jodey Arrington                       1 - Olton Community Cente                              01 
01060010002000042REP       US Representative, District 19                          Jodey Arrington                       2 - Lamb County Ag Center                              01 
01060010003000123REP       US Representative, District 19                          Jodey Arrington                       3 -Earth Community Center                              01 
01060010004000021REP       US Representative, District 19                          Jodey Arrington                       4 -Sudan Community Ce                                  01 
01060010005000067REP       US Representative, District 19                          Jodey Arrington                       5 -Olton Community Center                              01 
01060010006000062REP       US Representative, District 19                          Jodey Arrington                       6 -Lamb County Ag Center                               01 
01060010007000497REP       US Representative, District 19                          Jodey Arrington                       7 & 8-Lamb County Ag Cent                              01 
01060010008000203REP       US Representative, District 19                          Jodey Arrington                       9 - Lamb County Ag Center                              01 
01060010009000112REP       US Representative, District 19                          Jodey Arrington                       10-Amherst Community Cent                              01 
01060010010000247REP       US Representative, District 19                          Jodey Arrington                       11 - Sudan Comm. Ctr                                   01 
01060010011000034REP       US Representative, District 19                          Jodey Arrington                       12-1st Babtist Church                                  01 
01060020001000000REP       US Representative, District 19                          OVER VOTES                            1 - Olton Community Cente                              01 
01060020002000000REP       US Representative, District 19                          OVER VOTES                            2 - Lamb County Ag Center                              01 
01060020003000000REP       US Representative, District 19                          OVER VOTES                            3 -Earth Community Center                              01 
01060020004000000REP       US Representative, District 19                          OVER VOTES                            4 -Sudan Community Ce                                  01 
01060020005000000REP       US Representative, District 19                          OVER VOTES                            5 -Olton Community Center                              01 
01060020006000000REP       US Representative, District 19                          OVER VOTES                            6 -Lamb County Ag Center                               01 
01060020007000000REP       US Representative, District 19                          OVER VOTES                            7 & 8-Lamb County Ag Cent                              01 
01060020008000000REP       US Representative, District 19                          OVER VOTES                            9 - Lamb County Ag Center                              01 
01060020009000000REP       US Representative, District 19                          OVER VOTES                            10-Amherst Community Cent                              01 
01060020010000000REP       US Representative, District 19                          OVER VOTES                            11 - Sudan Comm. Ctr                                   01 
01060020011000000REP       US Representative, District 19                          OVER VOTES                            12-1st Babtist Church                                  01 
01060030001000019REP       US Representative, District 19                          UNDER VOTES                           1 - Olton Community Cente                              01 
01060030002000008REP       US Representative, District 19                          UNDER VOTES                           2 - Lamb County Ag Center                              01 
01060030003000021REP       US Representative, District 19                          UNDER VOTES                           3 -Earth Community Center                              01 
01060030004000004REP       US Representative, District 19                          UNDER VOTES                           4 -Sudan Community Ce                                  01 
01060030005000001REP       US Representative, District 19                          UNDER VOTES                           5 -Olton Community Center                              01 
01060030006000007REP       US Representative, District 19                          UNDER VOTES                           6 -Lamb County Ag Center                               01 
01060030007000058REP       US Representative, District 19                          UNDER VOTES                           7 & 8-Lamb County Ag Cent                              01 
01060030008000031REP       US Representative, District 19                          UNDER VOTES                           9 - Lamb County Ag Center                              01 
01060030009000021REP       US Representative, District 19                          UNDER VOTES                           10-Amherst Community Cent                              01 
01060030010000025REP       US Representative, District 19                          UNDER VOTES                           11 - Sudan Comm. Ctr                                   01 
01060030011000007REP       US Representative, District 19                          UNDER VOTES                           12-1st Babtist Church                                  01 
01070010001000101REP       Governor                                                Greg Abbott                           1 - Olton Community Cente                              01 
01070010002000039REP       Governor                                                Greg Abbott                           2 - Lamb County Ag Center                              01 
01070010003000119REP       Governor                                                Greg Abbott                           3 -Earth Community Center                              01 
01070010004000020REP       Governor                                                Greg Abbott                           4 -Sudan Community Ce                                  01 
01070010005000061REP       Governor                                                Greg Abbott                           5 -Olton Community Center                              01 
01070010006000063REP       Governor                                                Greg Abbott                           6 -Lamb County Ag Center                               01 
01070010007000503REP       Governor                                                Greg Abbott                           7 & 8-Lamb County Ag Cent                              01 
01070010008000211REP       Governor                                                Greg Abbott                           9 - Lamb County Ag Center                              01 
01070010009000116REP       Governor                                                Greg Abbott                           10-Amherst Community Cent                              01 
01070010010000244REP       Governor                                                Greg Abbott                           11 - Sudan Comm. Ctr                                   01 
01070010011000034REP       Governor                                                Greg Abbott                           12-1st Babtist Church                                  01 
01070020001000001REP       Governor                                                SECEDE Kilgore                        1 - Olton Community Cente                              01 
01070020002000002REP       Governor                                                SECEDE Kilgore                        2 - Lamb County Ag Center                              01 
01070020003000003REP       Governor                                                SECEDE Kilgore                        3 -Earth Community Center                              01 
01070020004000000REP       Governor                                                SECEDE Kilgore                        4 -Sudan Community Ce                                  01 
01070020005000001REP       Governor                                                SECEDE Kilgore                        5 -Olton Community Center                              01 
01070020006000001REP       Governor                                                SECEDE Kilgore                        6 -Lamb County Ag Center                               01 
01070020007000008REP       Governor                                                SECEDE Kilgore                        7 & 8-Lamb County Ag Cent                              01 
01070020008000004REP       Governor                                                SECEDE Kilgore                        9 - Lamb County Ag Center                              01 
01070020009000002REP       Governor                                                SECEDE Kilgore                        10-Amherst Community Cent                              01 
01070020010000003REP       Governor                                                SECEDE Kilgore                        11 - Sudan Comm. Ctr                                   01 
01070020011000003REP       Governor                                                SECEDE Kilgore                        12-1st Babtist Church                                  01 
01070030001000007REP       Governor                                                Barbara Krueger                       1 - Olton Community Cente                              01 
01070030002000006REP       Governor                                                Barbara Krueger                       2 - Lamb County Ag Center                              01 
01070030003000007REP       Governor                                                Barbara Krueger                       3 -Earth Community Center                              01 
01070030004000000REP       Governor                                                Barbara Krueger                       4 -Sudan Community Ce                                  01 
01070030005000004REP       Governor                                                Barbara Krueger                       5 -Olton Community Center                              01 
01070030006000005REP       Governor                                                Barbara Krueger                       6 -Lamb County Ag Center                               01 
01070030007000030REP       Governor                                                Barbara Krueger                       7 & 8-Lamb County Ag Cent                              01 
01070030008000014REP       Governor                                                Barbara Krueger                       9 - Lamb County Ag Center                              01 
01070030009000007REP       Governor                                                Barbara Krueger                       10-Amherst Community Cent                              01 
01070030010000005REP       Governor                                                Barbara Krueger                       11 - Sudan Comm. Ctr                                   01 
01070030011000001REP       Governor                                                Barbara Krueger                       12-1st Babtist Church                                  01 
01070040001000000REP       Governor                                                OVER VOTES                            1 - Olton Community Cente                              01 
01070040002000000REP       Governor                                                OVER VOTES                            2 - Lamb County Ag Center                              01 
01070040003000000REP       Governor                                                OVER VOTES                            3 -Earth Community Center                              01 
01070040004000000REP       Governor                                                OVER VOTES                            4 -Sudan Community Ce                                  01 
01070040005000000REP       Governor                                                OVER VOTES                            5 -Olton Community Center                              01 
01070040006000000REP       Governor                                                OVER VOTES                            6 -Lamb County Ag Center                               01 
01070040007000000REP       Governor                                                OVER VOTES                            7 & 8-Lamb County Ag Cent                              01 
01070040008000000REP       Governor                                                OVER VOTES                            9 - Lamb County Ag Center                              01 
01070040009000000REP       Governor                                                OVER VOTES                            10-Amherst Community Cent                              01 
01070040010000000REP       Governor                                                OVER VOTES                            11 - Sudan Comm. Ctr                                   01 
01070040011000000REP       Governor                                                OVER VOTES                            12-1st Babtist Church                                  01 
01070050001000005REP       Governor                                                UNDER VOTES                           1 - Olton Community Cente                              01 
01070050002000003REP       Governor                                                UNDER VOTES                           2 - Lamb County Ag Center                              01 
01070050003000014REP       Governor                                                UNDER VOTES                           3 -Earth Community Center                              01 
01070050004000005REP       Governor                                                UNDER VOTES                           4 -Sudan Community Ce                                  01 
01070050005000002REP       Governor                                                UNDER VOTES                           5 -Olton Community Center                              01 
01070050006000000REP       Governor                                                UNDER VOTES                           6 -Lamb County Ag Center                               01 
01070050007000018REP       Governor                                                UNDER VOTES                           7 & 8-Lamb County Ag Cent                              01 
01070050008000008REP       Governor                                                UNDER VOTES                           9 - Lamb County Ag Center                              01 
01070050009000008REP       Governor                                                UNDER VOTES                           10-Amherst Community Cent                              01 
01070050010000020REP       Governor                                                UNDER VOTES                           11 - Sudan Comm. Ctr                                   01 
01070050011000003REP       Governor                                                UNDER VOTES                           12-1st Babtist Church                                  01 
01080010001000057REP       Lieutenant Governor                                     Scott Milder                          1 - Olton Community Cente                              01 
01080010002000007REP       Lieutenant Governor                                     Scott Milder                          2 - Lamb County Ag Center                              01 
01080010003000061REP       Lieutenant Governor                                     Scott Milder                          3 -Earth Community Center                              01 
01080010004000010REP       Lieutenant Governor                                     Scott Milder                          4 -Sudan Community Ce                                  01 
01080010005000033REP       Lieutenant Governor                                     Scott Milder                          5 -Olton Community Center                              01 
01080010006000016REP       Lieutenant Governor                                     Scott Milder                          6 -Lamb County Ag Center                               01 
01080010007000165REP       Lieutenant Governor                                     Scott Milder                          7 & 8-Lamb County Ag Cent                              01 
01080010008000072REP       Lieutenant Governor                                     Scott Milder                          9 - Lamb County Ag Center                              01 
01080010009000030REP       Lieutenant Governor                                     Scott Milder                          10-Amherst Community Cent                              01 
01080010010000113REP       Lieutenant Governor                                     Scott Milder                          11 - Sudan Comm. Ctr                                   01 
01080010011000015REP       Lieutenant Governor                                     Scott Milder                          12-1st Babtist Church                                  01 
01080020001000052REP       Lieutenant Governor                                     Dan Patrick                           1 - Olton Community Cente                              01 
01080020002000035REP       Lieutenant Governor                                     Dan Patrick                           2 - Lamb County Ag Center                              01 
01080020003000076REP       Lieutenant Governor                                     Dan Patrick                           3 -Earth Community Center                              01 
01080020004000011REP       Lieutenant Governor                                     Dan Patrick                           4 -Sudan Community Ce                                  01 
01080020005000035REP       Lieutenant Governor                                     Dan Patrick                           5 -Olton Community Center                              01 
01080020006000050REP       Lieutenant Governor                                     Dan Patrick                           6 -Lamb County Ag Center                               01 
01080020007000358REP       Lieutenant Governor                                     Dan Patrick                           7 & 8-Lamb County Ag Cent                              01 
01080020008000151REP       Lieutenant Governor                                     Dan Patrick                           9 - Lamb County Ag Center                              01 
01080020009000086REP       Lieutenant Governor                                     Dan Patrick                           10-Amherst Community Cent                              01 
01080020010000142REP       Lieutenant Governor                                     Dan Patrick                           11 - Sudan Comm. Ctr                                   01 
01080020011000026REP       Lieutenant Governor                                     Dan Patrick                           12-1st Babtist Church                                  01 
01080030001000000REP       Lieutenant Governor                                     OVER VOTES                            1 - Olton Community Cente                              01 
01080030002000001REP       Lieutenant Governor                                     OVER VOTES                            2 - Lamb County Ag Center                              01 
01080030003000000REP       Lieutenant Governor                                     OVER VOTES                            3 -Earth Community Center                              01 
01080030004000000REP       Lieutenant Governor                                     OVER VOTES                            4 -Sudan Community Ce                                  01 
01080030005000000REP       Lieutenant Governor                                     OVER VOTES                            5 -Olton Community Center                              01 
01080030006000000REP       Lieutenant Governor                                     OVER VOTES                            6 -Lamb County Ag Center                               01 
01080030007000000REP       Lieutenant Governor                                     OVER VOTES                            7 & 8-Lamb County Ag Cent                              01 
01080030008000000REP       Lieutenant Governor                                     OVER VOTES                            9 - Lamb County Ag Center                              01 
01080030009000000REP       Lieutenant Governor                                     OVER VOTES                            10-Amherst Community Cent                              01 
01080030010000000REP       Lieutenant Governor                                     OVER VOTES                            11 - Sudan Comm. Ctr                                   01 
01080030011000000REP       Lieutenant Governor                                     OVER VOTES                            12-1st Babtist Church                                  01 
01080040001000005REP       Lieutenant Governor                                     UNDER VOTES                           1 - Olton Community Cente                              01 
01080040002000007REP       Lieutenant Governor                                     UNDER VOTES                           2 - Lamb County Ag Center                              01 
01080040003000007REP       Lieutenant Governor                                     UNDER VOTES                           3 -Earth Community Center                              01 
01080040004000004REP       Lieutenant Governor                                     UNDER VOTES                           4 -Sudan Community Ce                                  01 
01080040005000000REP       Lieutenant Governor                                     UNDER VOTES                           5 -Olton Community Center                              01 
01080040006000003REP       Lieutenant Governor                                     UNDER VOTES                           6 -Lamb County Ag Center                               01 
01080040007000036REP       Lieutenant Governor                                     UNDER VOTES                           7 & 8-Lamb County Ag Cent                              01 
01080040008000014REP       Lieutenant Governor                                     UNDER VOTES                           9 - Lamb County Ag Center                              01 
01080040009000017REP       Lieutenant Governor                                     UNDER VOTES                           10-Amherst Community Cent                              01 
01080040010000017REP       Lieutenant Governor                                     UNDER VOTES                           11 - Sudan Comm. Ctr                                   01 
01080040011000000REP       Lieutenant Governor                                     UNDER VOTES                           12-1st Babtist Church                                  01 
01090010001000091REP       Attorney General                                        Ken Paxton                            1 - Olton Community Cente                              01 
01090010002000040REP       Attorney General                                        Ken Paxton                            2 - Lamb County Ag Center                              01 
01090010003000117REP       Attorney General                                        Ken Paxton                            3 -Earth Community Center                              01 
01090010004000015REP       Attorney General                                        Ken Paxton                            4 -Sudan Community Ce                                  01 
01090010005000063REP       Attorney General                                        Ken Paxton                            5 -Olton Community Center                              01 
01090010006000055REP       Attorney General                                        Ken Paxton                            6 -Lamb County Ag Center                               01 
01090010007000463REP       Attorney General                                        Ken Paxton                            7 & 8-Lamb County Ag Cent                              01 
01090010008000189REP       Attorney General                                        Ken Paxton                            9 - Lamb County Ag Center                              01 
01090010009000099REP       Attorney General                                        Ken Paxton                            10-Amherst Community Cent                              01 
01090010010000218REP       Attorney General                                        Ken Paxton                            11 - Sudan Comm. Ctr                                   01 
01090010011000035REP       Attorney General                                        Ken Paxton                            12-1st Babtist Church                                  01 
01090020001000000REP       Attorney General                                        OVER VOTES                            1 - Olton Community Cente                              01 
01090020002000000REP       Attorney General                                        OVER VOTES                            2 - Lamb County Ag Center                              01 
01090020003000000REP       Attorney General                                        OVER VOTES                            3 -Earth Community Center                              01 
01090020004000000REP       Attorney General                                        OVER VOTES                            4 -Sudan Community Ce                                  01 
01090020005000000REP       Attorney General                                        OVER VOTES                            5 -Olton Community Center                              01 
01090020006000000REP       Attorney General                                        OVER VOTES                            6 -Lamb County Ag Center                               01 
01090020007000000REP       Attorney General                                        OVER VOTES                            7 & 8-Lamb County Ag Cent                              01 
01090020008000000REP       Attorney General                                        OVER VOTES                            9 - Lamb County Ag Center                              01 
01090020009000000REP       Attorney General                                        OVER VOTES                            10-Amherst Community Cent                              01 
01090020010000000REP       Attorney General                                        OVER VOTES                            11 - Sudan Comm. Ctr                                   01 
01090020011000000REP       Attorney General                                        OVER VOTES                            12-1st Babtist Church                                  01 
01090030001000023REP       Attorney General                                        UNDER VOTES                           1 - Olton Community Cente                              01 
01090030002000010REP       Attorney General                                        UNDER VOTES                           2 - Lamb County Ag Center                              01 
01090030003000026REP       Attorney General                                        UNDER VOTES                           3 -Earth Community Center                              01 
01090030004000010REP       Attorney General                                        UNDER VOTES                           4 -Sudan Community Ce                                  01 
01090030005000005REP       Attorney General                                        UNDER VOTES                           5 -Olton Community Center                              01 
01090030006000014REP       Attorney General                                        UNDER VOTES                           6 -Lamb County Ag Center                               01 
01090030007000092REP       Attorney General                                        UNDER VOTES                           7 & 8-Lamb County Ag Cent                              01 
01090030008000045REP       Attorney General                                        UNDER VOTES                           9 - Lamb County Ag Center                              01 
01090030009000034REP       Attorney General                                        UNDER VOTES                           10-Amherst Community Cent                              01 
01090030010000053REP       Attorney General                                        UNDER VOTES                           11 - Sudan Comm. Ctr                                   01 
01090030011000006REP       Attorney General                                        UNDER VOTES                           12-1st Babtist Church                                  01 
01100010001000089REP       Comptroller of Public Accounts                          Glenn Hegar                           1 - Olton Community Cente                              01 
01100010002000037REP       Comptroller of Public Accounts                          Glenn Hegar                           2 - Lamb County Ag Center                              01 
01100010003000110REP       Comptroller of Public Accounts                          Glenn Hegar                           3 -Earth Community Center                              01 
01100010004000014REP       Comptroller of Public Accounts                          Glenn Hegar                           4 -Sudan Community Ce                                  01 
01100010005000064REP       Comptroller of Public Accounts                          Glenn Hegar                           5 -Olton Community Center                              01 
01100010006000051REP       Comptroller of Public Accounts                          Glenn Hegar                           6 -Lamb County Ag Center                               01 
01100010007000457REP       Comptroller of Public Accounts                          Glenn Hegar                           7 & 8-Lamb County Ag Cent                              01 
01100010008000176REP       Comptroller of Public Accounts                          Glenn Hegar                           9 - Lamb County Ag Center                              01 
01100010009000094REP       Comptroller of Public Accounts                          Glenn Hegar                           10-Amherst Community Cent                              01 
01100010010000209REP       Comptroller of Public Accounts                          Glenn Hegar                           11 - Sudan Comm. Ctr                                   01 
01100010011000032REP       Comptroller of Public Accounts                          Glenn Hegar                           12-1st Babtist Church                                  01 
01100020001000000REP       Comptroller of Public Accounts                          OVER VOTES                            1 - Olton Community Cente                              01 
01100020002000000REP       Comptroller of Public Accounts                          OVER VOTES                            2 - Lamb County Ag Center                              01 
01100020003000000REP       Comptroller of Public Accounts                          OVER VOTES                            3 -Earth Community Center                              01 
01100020004000000REP       Comptroller of Public Accounts                          OVER VOTES                            4 -Sudan Community Ce                                  01 
01100020005000000REP       Comptroller of Public Accounts                          OVER VOTES                            5 -Olton Community Center                              01 
01100020006000000REP       Comptroller of Public Accounts                          OVER VOTES                            6 -Lamb County Ag Center                               01 
01100020007000000REP       Comptroller of Public Accounts                          OVER VOTES                            7 & 8-Lamb County Ag Cent                              01 
01100020008000000REP       Comptroller of Public Accounts                          OVER VOTES                            9 - Lamb County Ag Center                              01 
01100020009000000REP       Comptroller of Public Accounts                          OVER VOTES                            10-Amherst Community Cent                              01 
01100020010000000REP       Comptroller of Public Accounts                          OVER VOTES                            11 - Sudan Comm. Ctr                                   01 
01100020011000000REP       Comptroller of Public Accounts                          OVER VOTES                            12-1st Babtist Church                                  01 
01100030001000025REP       Comptroller of Public Accounts                          UNDER VOTES                           1 - Olton Community Cente                              01 
01100030002000013REP       Comptroller of Public Accounts                          UNDER VOTES                           2 - Lamb County Ag Center                              01 
01100030003000033REP       Comptroller of Public Accounts                          UNDER VOTES                           3 -Earth Community Center                              01 
01100030004000011REP       Comptroller of Public Accounts                          UNDER VOTES                           4 -Sudan Community Ce                                  01 
01100030005000004REP       Comptroller of Public Accounts                          UNDER VOTES                           5 -Olton Community Center                              01 
01100030006000018REP       Comptroller of Public Accounts                          UNDER VOTES                           6 -Lamb County Ag Center                               01 
01100030007000100REP       Comptroller of Public Accounts                          UNDER VOTES                           7 & 8-Lamb County Ag Cent                              01 
01100030008000058REP       Comptroller of Public Accounts                          UNDER VOTES                           9 - Lamb County Ag Center                              01 
01100030009000039REP       Comptroller of Public Accounts                          UNDER VOTES                           10-Amherst Community Cent                              01 
01100030010000062REP       Comptroller of Public Accounts                          UNDER VOTES                           11 - Sudan Comm. Ctr                                   01 
01100030011000009REP       Comptroller of Public Accounts                          UNDER VOTES                           12-1st Babtist Church                                  01 
01110010001000034REP       Commissioner of the General Land Office                 Jerry Patterson                       1 - Olton Community Cente                              01 
01110010002000007REP       Commissioner of the General Land Office                 Jerry Patterson                       2 - Lamb County Ag Center                              01 
01110010003000045REP       Commissioner of the General Land Office                 Jerry Patterson                       3 -Earth Community Center                              01 
01110010004000006REP       Commissioner of the General Land Office                 Jerry Patterson                       4 -Sudan Community Ce                                  01 
01110010005000017REP       Commissioner of the General Land Office                 Jerry Patterson                       5 -Olton Community Center                              01 
01110010006000015REP       Commissioner of the General Land Office                 Jerry Patterson                       6 -Lamb County Ag Center                               01 
01110010007000171REP       Commissioner of the General Land Office                 Jerry Patterson                       7 & 8-Lamb County Ag Cent                              01 
01110010008000054REP       Commissioner of the General Land Office                 Jerry Patterson                       9 - Lamb County Ag Center                              01 
01110010009000034REP       Commissioner of the General Land Office                 Jerry Patterson                       10-Amherst Community Cent                              01 
01110010010000065REP       Commissioner of the General Land Office                 Jerry Patterson                       11 - Sudan Comm. Ctr                                   01 
01110010011000009REP       Commissioner of the General Land Office                 Jerry Patterson                       12-1st Babtist Church                                  01 
01110020001000065REP       Commissioner of the General Land Office                 George P. Bush                        1 - Olton Community Cente                              01 
01110020002000022REP       Commissioner of the General Land Office                 George P. Bush                        2 - Lamb County Ag Center                              01 
01110020003000081REP       Commissioner of the General Land Office                 George P. Bush                        3 -Earth Community Center                              01 
01110020004000014REP       Commissioner of the General Land Office                 George P. Bush                        4 -Sudan Community Ce                                  01 
01110020005000037REP       Commissioner of the General Land Office                 George P. Bush                        5 -Olton Community Center                              01 
01110020006000040REP       Commissioner of the General Land Office                 George P. Bush                        6 -Lamb County Ag Center                               01 
01110020007000298REP       Commissioner of the General Land Office                 George P. Bush                        7 & 8-Lamb County Ag Cent                              01 
01110020008000136REP       Commissioner of the General Land Office                 George P. Bush                        9 - Lamb County Ag Center                              01 
01110020009000066REP       Commissioner of the General Land Office                 George P. Bush                        10-Amherst Community Cent                              01 
01110020010000166REP       Commissioner of the General Land Office                 George P. Bush                        11 - Sudan Comm. Ctr                                   01 
01110020011000021REP       Commissioner of the General Land Office                 George P. Bush                        12-1st Babtist Church                                  01 
01110030001000001REP       Commissioner of the General Land Office                 Davey Edwards                         1 - Olton Community Cente                              01 
01110030002000012REP       Commissioner of the General Land Office                 Davey Edwards                         2 - Lamb County Ag Center                              01 
01110030003000005REP       Commissioner of the General Land Office                 Davey Edwards                         3 -Earth Community Center                              01 
01110030004000000REP       Commissioner of the General Land Office                 Davey Edwards                         4 -Sudan Community Ce                                  01 
01110030005000005REP       Commissioner of the General Land Office                 Davey Edwards                         5 -Olton Community Center                              01 
01110030006000005REP       Commissioner of the General Land Office                 Davey Edwards                         6 -Lamb County Ag Center                               01 
01110030007000021REP       Commissioner of the General Land Office                 Davey Edwards                         7 & 8-Lamb County Ag Cent                              01 
01110030008000008REP       Commissioner of the General Land Office                 Davey Edwards                         9 - Lamb County Ag Center                              01 
01110030009000005REP       Commissioner of the General Land Office                 Davey Edwards                         10-Amherst Community Cent                              01 
01110030010000007REP       Commissioner of the General Land Office                 Davey Edwards                         11 - Sudan Comm. Ctr                                   01 
01110030011000002REP       Commissioner of the General Land Office                 Davey Edwards                         12-1st Babtist Church                                  01 
01110040001000001REP       Commissioner of the General Land Office                 Rick Range                            1 - Olton Community Cente                              01 
01110040002000000REP       Commissioner of the General Land Office                 Rick Range                            2 - Lamb County Ag Center                              01 
01110040003000003REP       Commissioner of the General Land Office                 Rick Range                            3 -Earth Community Center                              01 
01110040004000000REP       Commissioner of the General Land Office                 Rick Range                            4 -Sudan Community Ce                                  01 
01110040005000001REP       Commissioner of the General Land Office                 Rick Range                            5 -Olton Community Center                              01 
01110040006000004REP       Commissioner of the General Land Office                 Rick Range                            6 -Lamb County Ag Center                               01 
01110040007000022REP       Commissioner of the General Land Office                 Rick Range                            7 & 8-Lamb County Ag Cent                              01 
01110040008000016REP       Commissioner of the General Land Office                 Rick Range                            9 - Lamb County Ag Center                              01 
01110040009000005REP       Commissioner of the General Land Office                 Rick Range                            10-Amherst Community Cent                              01 
01110040010000006REP       Commissioner of the General Land Office                 Rick Range                            11 - Sudan Comm. Ctr                                   01 
01110040011000006REP       Commissioner of the General Land Office                 Rick Range                            12-1st Babtist Church                                  01 
01110050001000000REP       Commissioner of the General Land Office                 OVER VOTES                            1 - Olton Community Cente                              01 
01110050002000000REP       Commissioner of the General Land Office                 OVER VOTES                            2 - Lamb County Ag Center                              01 
01110050003000000REP       Commissioner of the General Land Office                 OVER VOTES                            3 -Earth Community Center                              01 
01110050004000000REP       Commissioner of the General Land Office                 OVER VOTES                            4 -Sudan Community Ce                                  01 
01110050005000000REP       Commissioner of the General Land Office                 OVER VOTES                            5 -Olton Community Center                              01 
01110050006000000REP       Commissioner of the General Land Office                 OVER VOTES                            6 -Lamb County Ag Center                               01 
01110050007000000REP       Commissioner of the General Land Office                 OVER VOTES                            7 & 8-Lamb County Ag Cent                              01 
01110050008000000REP       Commissioner of the General Land Office                 OVER VOTES                            9 - Lamb County Ag Center                              01 
01110050009000000REP       Commissioner of the General Land Office                 OVER VOTES                            10-Amherst Community Cent                              01 
01110050010000001REP       Commissioner of the General Land Office                 OVER VOTES                            11 - Sudan Comm. Ctr                                   01 
01110050011000000REP       Commissioner of the General Land Office                 OVER VOTES                            12-1st Babtist Church                                  01 
01110060001000013REP       Commissioner of the General Land Office                 UNDER VOTES                           1 - Olton Community Cente                              01 
01110060002000009REP       Commissioner of the General Land Office                 UNDER VOTES                           2 - Lamb County Ag Center                              01 
01110060003000010REP       Commissioner of the General Land Office                 UNDER VOTES                           3 -Earth Community Center                              01 
01110060004000005REP       Commissioner of the General Land Office                 UNDER VOTES                           4 -Sudan Community Ce                                  01 
01110060005000008REP       Commissioner of the General Land Office                 UNDER VOTES                           5 -Olton Community Center                              01 
01110060006000005REP       Commissioner of the General Land Office                 UNDER VOTES                           6 -Lamb County Ag Center                               01 
01110060007000047REP       Commissioner of the General Land Office                 UNDER VOTES                           7 & 8-Lamb County Ag Cent                              01 
01110060008000022REP       Commissioner of the General Land Office                 UNDER VOTES                           9 - Lamb County Ag Center                              01 
01110060009000023REP       Commissioner of the General Land Office                 UNDER VOTES                           10-Amherst Community Cent                              01 
01110060010000026REP       Commissioner of the General Land Office                 UNDER VOTES                           11 - Sudan Comm. Ctr                                   01 
01110060011000003REP       Commissioner of the General Land Office                 UNDER VOTES                           12-1st Babtist Church                                  01 
01120010001000040REP       Commissioner of Agriculture                             Trey Blocker                          1 - Olton Community Cente                              01 
01120010002000008REP       Commissioner of Agriculture                             Trey Blocker                          2 - Lamb County Ag Center                              01 
01120010003000035REP       Commissioner of Agriculture                             Trey Blocker                          3 -Earth Community Center                              01 
01120010004000007REP       Commissioner of Agriculture                             Trey Blocker                          4 -Sudan Community Ce                                  01 
01120010005000021REP       Commissioner of Agriculture                             Trey Blocker                          5 -Olton Community Center                              01 
01120010006000015REP       Commissioner of Agriculture                             Trey Blocker                          6 -Lamb County Ag Center                               01 
01120010007000114REP       Commissioner of Agriculture                             Trey Blocker                          7 & 8-Lamb County Ag Cent                              01 
01120010008000047REP       Commissioner of Agriculture                             Trey Blocker                          9 - Lamb County Ag Center                              01 
01120010009000028REP       Commissioner of Agriculture                             Trey Blocker                          10-Amherst Community Cent                              01 
01120010010000048REP       Commissioner of Agriculture                             Trey Blocker                          11 - Sudan Comm. Ctr                                   01 
01120010011000007REP       Commissioner of Agriculture                             Trey Blocker                          12-1st Babtist Church                                  01 
01120020001000012REP       Commissioner of Agriculture                             Jim Hogan                             1 - Olton Community Cente                              01 
01120020002000008REP       Commissioner of Agriculture                             Jim Hogan                             2 - Lamb County Ag Center                              01 
01120020003000024REP       Commissioner of Agriculture                             Jim Hogan                             3 -Earth Community Center                              01 
01120020004000000REP       Commissioner of Agriculture                             Jim Hogan                             4 -Sudan Community Ce                                  01 
01120020005000008REP       Commissioner of Agriculture                             Jim Hogan                             5 -Olton Community Center                              01 
01120020006000022REP       Commissioner of Agriculture                             Jim Hogan                             6 -Lamb County Ag Center                               01 
01120020007000121REP       Commissioner of Agriculture                             Jim Hogan                             7 & 8-Lamb County Ag Cent                              01 
01120020008000048REP       Commissioner of Agriculture                             Jim Hogan                             9 - Lamb County Ag Center                              01 
01120020009000019REP       Commissioner of Agriculture                             Jim Hogan                             10-Amherst Community Cent                              01 
01120020010000046REP       Commissioner of Agriculture                             Jim Hogan                             11 - Sudan Comm. Ctr                                   01 
01120020011000007REP       Commissioner of Agriculture                             Jim Hogan                             12-1st Babtist Church                                  01 
01120030001000050REP       Commissioner of Agriculture                             Sid Miller                            1 - Olton Community Cente                              01 
01120030002000023REP       Commissioner of Agriculture                             Sid Miller                            2 - Lamb County Ag Center                              01 
01120030003000072REP       Commissioner of Agriculture                             Sid Miller                            3 -Earth Community Center                              01 
01120030004000013REP       Commissioner of Agriculture                             Sid Miller                            4 -Sudan Community Ce                                  01 
01120030005000037REP       Commissioner of Agriculture                             Sid Miller                            5 -Olton Community Center                              01 
01120030006000025REP       Commissioner of Agriculture                             Sid Miller                            6 -Lamb County Ag Center                               01 
01120030007000246REP       Commissioner of Agriculture                             Sid Miller                            7 & 8-Lamb County Ag Cent                              01 
01120030008000106REP       Commissioner of Agriculture                             Sid Miller                            9 - Lamb County Ag Center                              01 
01120030009000053REP       Commissioner of Agriculture                             Sid Miller                            10-Amherst Community Cent                              01 
01120030010000128REP       Commissioner of Agriculture                             Sid Miller                            11 - Sudan Comm. Ctr                                   01 
01120030011000025REP       Commissioner of Agriculture                             Sid Miller                            12-1st Babtist Church                                  01 
01120040001000000REP       Commissioner of Agriculture                             OVER VOTES                            1 - Olton Community Cente                              01 
01120040002000000REP       Commissioner of Agriculture                             OVER VOTES                            2 - Lamb County Ag Center                              01 
01120040003000000REP       Commissioner of Agriculture                             OVER VOTES                            3 -Earth Community Center                              01 
01120040004000000REP       Commissioner of Agriculture                             OVER VOTES                            4 -Sudan Community Ce                                  01 
01120040005000000REP       Commissioner of Agriculture                             OVER VOTES                            5 -Olton Community Center                              01 
01120040006000000REP       Commissioner of Agriculture                             OVER VOTES                            6 -Lamb County Ag Center                               01 
01120040007000002REP       Commissioner of Agriculture                             OVER VOTES                            7 & 8-Lamb County Ag Cent                              01 
01120040008000000REP       Commissioner of Agriculture                             OVER VOTES                            9 - Lamb County Ag Center                              01 
01120040009000000REP       Commissioner of Agriculture                             OVER VOTES                            10-Amherst Community Cent                              01 
01120040010000000REP       Commissioner of Agriculture                             OVER VOTES                            11 - Sudan Comm. Ctr                                   01 
01120040011000000REP       Commissioner of Agriculture                             OVER VOTES                            12-1st Babtist Church                                  01 
01120050001000012REP       Commissioner of Agriculture                             UNDER VOTES                           1 - Olton Community Cente                              01 
01120050002000011REP       Commissioner of Agriculture                             UNDER VOTES                           2 - Lamb County Ag Center                              01 
01120050003000013REP       Commissioner of Agriculture                             UNDER VOTES                           3 -Earth Community Center                              01 
01120050004000005REP       Commissioner of Agriculture                             UNDER VOTES                           4 -Sudan Community Ce                                  01 
01120050005000002REP       Commissioner of Agriculture                             UNDER VOTES                           5 -Olton Community Center                              01 
01120050006000007REP       Commissioner of Agriculture                             UNDER VOTES                           6 -Lamb County Ag Center                               01 
01120050007000074REP       Commissioner of Agriculture                             UNDER VOTES                           7 & 8-Lamb County Ag Cent                              01 
01120050008000035REP       Commissioner of Agriculture                             UNDER VOTES                           9 - Lamb County Ag Center                              01 
01120050009000032REP       Commissioner of Agriculture                             UNDER VOTES                           10-Amherst Community Cent                              01 
01120050010000050REP       Commissioner of Agriculture                             UNDER VOTES                           11 - Sudan Comm. Ctr                                   01 
01120050011000002REP       Commissioner of Agriculture                             UNDER VOTES                           12-1st Babtist Church                                  01 
01130010001000082REP       Railroad Commissioner                                   Christi Craddick                      1 - Olton Community Cente                              01 
01130010002000027REP       Railroad Commissioner                                   Christi Craddick                      2 - Lamb County Ag Center                              01 
01130010003000106REP       Railroad Commissioner                                   Christi Craddick                      3 -Earth Community Center                              01 
01130010004000016REP       Railroad Commissioner                                   Christi Craddick                      4 -Sudan Community Ce                                  01 
01130010005000054REP       Railroad Commissioner                                   Christi Craddick                      5 -Olton Community Center                              01 
01130010006000050REP       Railroad Commissioner                                   Christi Craddick                      6 -Lamb County Ag Center                               01 
01130010007000378REP       Railroad Commissioner                                   Christi Craddick                      7 & 8-Lamb County Ag Cent                              01 
01130010008000160REP       Railroad Commissioner                                   Christi Craddick                      9 - Lamb County Ag Center                              01 
01130010009000086REP       Railroad Commissioner                                   Christi Craddick                      10-Amherst Community Cent                              01 
01130010010000188REP       Railroad Commissioner                                   Christi Craddick                      11 - Sudan Comm. Ctr                                   01 
01130010011000033REP       Railroad Commissioner                                   Christi Craddick                      12-1st Babtist Church                                  01 
01130020001000019REP       Railroad Commissioner                                   Weston Martinez                       1 - Olton Community Cente                              01 
01130020002000013REP       Railroad Commissioner                                   Weston Martinez                       2 - Lamb County Ag Center                              01 
01130020003000020REP       Railroad Commissioner                                   Weston Martinez                       3 -Earth Community Center                              01 
01130020004000002REP       Railroad Commissioner                                   Weston Martinez                       4 -Sudan Community Ce                                  01 
01130020005000010REP       Railroad Commissioner                                   Weston Martinez                       5 -Olton Community Center                              01 
01130020006000010REP       Railroad Commissioner                                   Weston Martinez                       6 -Lamb County Ag Center                               01 
01130020007000098REP       Railroad Commissioner                                   Weston Martinez                       7 & 8-Lamb County Ag Cent                              01 
01130020008000031REP       Railroad Commissioner                                   Weston Martinez                       9 - Lamb County Ag Center                              01 
01130020009000013REP       Railroad Commissioner                                   Weston Martinez                       10-Amherst Community Cent                              01 
01130020010000032REP       Railroad Commissioner                                   Weston Martinez                       11 - Sudan Comm. Ctr                                   01 
01130020011000006REP       Railroad Commissioner                                   Weston Martinez                       12-1st Babtist Church                                  01 
01130030001000000REP       Railroad Commissioner                                   OVER VOTES                            1 - Olton Community Cente                              01 
01130030002000000REP       Railroad Commissioner                                   OVER VOTES                            2 - Lamb County Ag Center                              01 
01130030003000000REP       Railroad Commissioner                                   OVER VOTES                            3 -Earth Community Center                              01 
01130030004000000REP       Railroad Commissioner                                   OVER VOTES                            4 -Sudan Community Ce                                  01 
01130030005000000REP       Railroad Commissioner                                   OVER VOTES                            5 -Olton Community Center                              01 
01130030006000000REP       Railroad Commissioner                                   OVER VOTES                            6 -Lamb County Ag Center                               01 
01130030007000000REP       Railroad Commissioner                                   OVER VOTES                            7 & 8-Lamb County Ag Cent                              01 
01130030008000000REP       Railroad Commissioner                                   OVER VOTES                            9 - Lamb County Ag Center                              01 
01130030009000000REP       Railroad Commissioner                                   OVER VOTES                            10-Amherst Community Cent                              01 
01130030010000000REP       Railroad Commissioner                                   OVER VOTES                            11 - Sudan Comm. Ctr                                   01 
01130030011000000REP       Railroad Commissioner                                   OVER VOTES                            12-1st Babtist Church                                  01 
01130040001000013REP       Railroad Commissioner                                   UNDER VOTES                           1 - Olton Community Cente                              01 
01130040002000010REP       Railroad Commissioner                                   UNDER VOTES                           2 - Lamb County Ag Center                              01 
01130040003000017REP       Railroad Commissioner                                   UNDER VOTES                           3 -Earth Community Center                              01 
01130040004000007REP       Railroad Commissioner                                   UNDER VOTES                           4 -Sudan Community Ce                                  01 
01130040005000004REP       Railroad Commissioner                                   UNDER VOTES                           5 -Olton Community Center                              01 
01130040006000009REP       Railroad Commissioner                                   UNDER VOTES                           6 -Lamb County Ag Center                               01 
01130040007000082REP       Railroad Commissioner                                   UNDER VOTES                           7 & 8-Lamb County Ag Cent                              01 
01130040008000044REP       Railroad Commissioner                                   UNDER VOTES                           9 - Lamb County Ag Center                              01 
01130040009000034REP       Railroad Commissioner                                   UNDER VOTES                           10-Amherst Community Cent                              01 
01130040010000051REP       Railroad Commissioner                                   UNDER VOTES                           11 - Sudan Comm. Ctr                                   01 
01130040011000002REP       Railroad Commissioner                                   UNDER VOTES                           12-1st Babtist Church                                  01 
01140010001000080REP       Justice, Supreme Court, Place 2                         Jimmy Blacklock                       1 - Olton Community Cente                              01 
01140010002000038REP       Justice, Supreme Court, Place 2                         Jimmy Blacklock                       2 - Lamb County Ag Center                              01 
01140010003000103REP       Justice, Supreme Court, Place 2                         Jimmy Blacklock                       3 -Earth Community Center                              01 
01140010004000015REP       Justice, Supreme Court, Place 2                         Jimmy Blacklock                       4 -Sudan Community Ce                                  01 
01140010005000059REP       Justice, Supreme Court, Place 2                         Jimmy Blacklock                       5 -Olton Community Center                              01 
01140010006000050REP       Justice, Supreme Court, Place 2                         Jimmy Blacklock                       6 -Lamb County Ag Center                               01 
01140010007000432REP       Justice, Supreme Court, Place 2                         Jimmy Blacklock                       7 & 8-Lamb County Ag Cent                              01 
01140010008000167REP       Justice, Supreme Court, Place 2                         Jimmy Blacklock                       9 - Lamb County Ag Center                              01 
01140010009000083REP       Justice, Supreme Court, Place 2                         Jimmy Blacklock                       10-Amherst Community Cent                              01 
01140010010000203REP       Justice, Supreme Court, Place 2                         Jimmy Blacklock                       11 - Sudan Comm. Ctr                                   01 
01140010011000031REP       Justice, Supreme Court, Place 2                         Jimmy Blacklock                       12-1st Babtist Church                                  01 
01140020001000000REP       Justice, Supreme Court, Place 2                         OVER VOTES                            1 - Olton Community Cente                              01 
01140020002000000REP       Justice, Supreme Court, Place 2                         OVER VOTES                            2 - Lamb County Ag Center                              01 
01140020003000000REP       Justice, Supreme Court, Place 2                         OVER VOTES                            3 -Earth Community Center                              01 
01140020004000000REP       Justice, Supreme Court, Place 2                         OVER VOTES                            4 -Sudan Community Ce                                  01 
01140020005000000REP       Justice, Supreme Court, Place 2                         OVER VOTES                            5 -Olton Community Center                              01 
01140020006000000REP       Justice, Supreme Court, Place 2                         OVER VOTES                            6 -Lamb County Ag Center                               01 
01140020007000000REP       Justice, Supreme Court, Place 2                         OVER VOTES                            7 & 8-Lamb County Ag Cent                              01 
01140020008000000REP       Justice, Supreme Court, Place 2                         OVER VOTES                            9 - Lamb County Ag Center                              01 
01140020009000000REP       Justice, Supreme Court, Place 2                         OVER VOTES                            10-Amherst Community Cent                              01 
01140020010000000REP       Justice, Supreme Court, Place 2                         OVER VOTES                            11 - Sudan Comm. Ctr                                   01 
01140020011000000REP       Justice, Supreme Court, Place 2                         OVER VOTES                            12-1st Babtist Church                                  01 
01140030001000033REP       Justice, Supreme Court, Place 2                         UNDER VOTES                           1 - Olton Community Cente                              01 
01140030002000012REP       Justice, Supreme Court, Place 2                         UNDER VOTES                           2 - Lamb County Ag Center                              01 
01140030003000040REP       Justice, Supreme Court, Place 2                         UNDER VOTES                           3 -Earth Community Center                              01 
01140030004000010REP       Justice, Supreme Court, Place 2                         UNDER VOTES                           4 -Sudan Community Ce                                  01 
01140030005000009REP       Justice, Supreme Court, Place 2                         UNDER VOTES                           5 -Olton Community Center                              01 
01140030006000019REP       Justice, Supreme Court, Place 2                         UNDER VOTES                           6 -Lamb County Ag Center                               01 
01140030007000124REP       Justice, Supreme Court, Place 2                         UNDER VOTES                           7 & 8-Lamb County Ag Cent                              01 
01140030008000066REP       Justice, Supreme Court, Place 2                         UNDER VOTES                           9 - Lamb County Ag Center                              01 
01140030009000050REP       Justice, Supreme Court, Place 2                         UNDER VOTES                           10-Amherst Community Cent                              01 
01140030010000068REP       Justice, Supreme Court, Place 2                         UNDER VOTES                           11 - Sudan Comm. Ctr                                   01 
01140030011000010REP       Justice, Supreme Court, Place 2                         UNDER VOTES                           12-1st Babtist Church                                  01 
01150010001000084REP       Justice, Supreme Court, Place 4                         John Devine                           1 - Olton Community Cente                              01 
01150010002000038REP       Justice, Supreme Court, Place 4                         John Devine                           2 - Lamb County Ag Center                              01 
01150010003000105REP       Justice, Supreme Court, Place 4                         John Devine                           3 -Earth Community Center                              01 
01150010004000014REP       Justice, Supreme Court, Place 4                         John Devine                           4 -Sudan Community Ce                                  01 
01150010005000061REP       Justice, Supreme Court, Place 4                         John Devine                           5 -Olton Community Center                              01 
01150010006000050REP       Justice, Supreme Court, Place 4                         John Devine                           6 -Lamb County Ag Center                               01 
01150010007000429REP       Justice, Supreme Court, Place 4                         John Devine                           7 & 8-Lamb County Ag Cent                              01 
01150010008000165REP       Justice, Supreme Court, Place 4                         John Devine                           9 - Lamb County Ag Center                              01 
01150010009000084REP       Justice, Supreme Court, Place 4                         John Devine                           10-Amherst Community Cent                              01 
01150010010000203REP       Justice, Supreme Court, Place 4                         John Devine                           11 - Sudan Comm. Ctr                                   01 
01150010011000031REP       Justice, Supreme Court, Place 4                         John Devine                           12-1st Babtist Church                                  01 
01150020001000000REP       Justice, Supreme Court, Place 4                         OVER VOTES                            1 - Olton Community Cente                              01 
01150020002000000REP       Justice, Supreme Court, Place 4                         OVER VOTES                            2 - Lamb County Ag Center                              01 
01150020003000000REP       Justice, Supreme Court, Place 4                         OVER VOTES                            3 -Earth Community Center                              01 
01150020004000000REP       Justice, Supreme Court, Place 4                         OVER VOTES                            4 -Sudan Community Ce                                  01 
01150020005000000REP       Justice, Supreme Court, Place 4                         OVER VOTES                            5 -Olton Community Center                              01 
01150020006000000REP       Justice, Supreme Court, Place 4                         OVER VOTES                            6 -Lamb County Ag Center                               01 
01150020007000000REP       Justice, Supreme Court, Place 4                         OVER VOTES                            7 & 8-Lamb County Ag Cent                              01 
01150020008000000REP       Justice, Supreme Court, Place 4                         OVER VOTES                            9 - Lamb County Ag Center                              01 
01150020009000000REP       Justice, Supreme Court, Place 4                         OVER VOTES                            10-Amherst Community Cent                              01 
01150020010000000REP       Justice, Supreme Court, Place 4                         OVER VOTES                            11 - Sudan Comm. Ctr                                   01 
01150020011000000REP       Justice, Supreme Court, Place 4                         OVER VOTES                            12-1st Babtist Church                                  01 
01150030001000030REP       Justice, Supreme Court, Place 4                         UNDER VOTES                           1 - Olton Community Cente                              01 
01150030002000012REP       Justice, Supreme Court, Place 4                         UNDER VOTES                           2 - Lamb County Ag Center                              01 
01150030003000037REP       Justice, Supreme Court, Place 4                         UNDER VOTES                           3 -Earth Community Center                              01 
01150030004000011REP       Justice, Supreme Court, Place 4                         UNDER VOTES                           4 -Sudan Community Ce                                  01 
01150030005000007REP       Justice, Supreme Court, Place 4                         UNDER VOTES                           5 -Olton Community Center                              01 
01150030006000019REP       Justice, Supreme Court, Place 4                         UNDER VOTES                           6 -Lamb County Ag Center                               01 
01150030007000128REP       Justice, Supreme Court, Place 4                         UNDER VOTES                           7 & 8-Lamb County Ag Cent                              01 
01150030008000068REP       Justice, Supreme Court, Place 4                         UNDER VOTES                           9 - Lamb County Ag Center                              01 
01150030009000049REP       Justice, Supreme Court, Place 4                         UNDER VOTES                           10-Amherst Community Cent                              01 
01150030010000068REP       Justice, Supreme Court, Place 4                         UNDER VOTES                           11 - Sudan Comm. Ctr                                   01 
01150030011000010REP       Justice, Supreme Court, Place 4                         UNDER VOTES                           12-1st Babtist Church                                  01 
01160010001000081REP       Justice, Supreme Court, Place 6                         Jeff Brown                            1 - Olton Community Cente                              01 
01160010002000037REP       Justice, Supreme Court, Place 6                         Jeff Brown                            2 - Lamb County Ag Center                              01 
