01010010001001520000000000000000000000000000000          REGISTERED VOTERS - TOTAL                               REGISTERED VOTERS - TOTAL             Precinct 1                                             00 
01010010002000200000000000000000000000000000000          REGISTERED VOTERS - TOTAL                               REGISTERED VOTERS - TOTAL             Precinct 1A                                            00 
01010010003000343000000000000000000000000000000          REGISTERED VOTERS - TOTAL                               REGISTERED VOTERS - TOTAL             Precinct 2                                             00 
01010010004000576000000000000000000000000000000          REGISTERED VOTERS - TOTAL                               REGISTERED VOTERS - TOTAL             Precinct 3                                             00 
01010010005000855000000000000000000000000000000          REGISTERED VOTERS - TOTAL                               REGISTERED VOTERS - TOTAL             Precinct 4                                             00 
01010010006000515000000000000000000000000000000          REGISTERED VOTERS - TOTAL                               REGISTERED VOTERS - TOTAL             Precinct 5                                             00 
01010010007000060000000000000000000000000000000          REGISTERED VOTERS - TOTAL                               REGISTERED VOTERS - TOTAL             Precinct 5A                                            00 
01010010008001059000000000000000000000000000000          REGISTERED VOTERS - TOTAL                               REGISTERED VOTERS - TOTAL             Precinct 6                                             00 
01010010009000625000000000000000000000000000000          REGISTERED VOTERS - TOTAL                               REGISTERED VOTERS - TOTAL             Precinct 7                                             00 
01010010010001032000000000000000000000000000000          REGISTERED VOTERS - TOTAL                               REGISTERED VOTERS - TOTAL             Precinct 8                                             00 
01010010011000337000000000000000000000000000000          REGISTERED VOTERS - TOTAL                               REGISTERED VOTERS - TOTAL             Precinct 9                                             00 
01010010012000992000000000000000000000000000000          REGISTERED VOTERS - TOTAL                               REGISTERED VOTERS - TOTAL             Precinct 10                                            00 
01010010013000975000000000000000000000000000000          REGISTERED VOTERS - TOTAL                               REGISTERED VOTERS - TOTAL             Precinct 11                                            00 
01010010014000804000000000000000000000000000000          REGISTERED VOTERS - TOTAL                               REGISTERED VOTERS - TOTAL             Precinct 12                                            00 
01010010015000650000000000000000000000000000000          REGISTERED VOTERS - TOTAL                               REGISTERED VOTERS - TOTAL             Precinct 13                                            00 
01010010016000208000000000000000000000000000000          REGISTERED VOTERS - TOTAL                               REGISTERED VOTERS - TOTAL             Precinct 14                                            00 
01010010017000199000000000000000000000000000000          REGISTERED VOTERS - TOTAL                               REGISTERED VOTERS - TOTAL             Precinct 14A                                           00 
01020010001000407000223000145000039000000000000          BALLOTS CAST - TOTAL                                    BALLOTS CAST - TOTAL                  Precinct 1                                             00 
01020010002000065000038000024000003000000000000          BALLOTS CAST - TOTAL                                    BALLOTS CAST - TOTAL                  Precinct 1A                                            00 
01020010003000134000041000085000008000000000000          BALLOTS CAST - TOTAL                                    BALLOTS CAST - TOTAL                  Precinct 2                                             00 
01020010004000183000052000094000037000000000000          BALLOTS CAST - TOTAL                                    BALLOTS CAST - TOTAL                  Precinct 3                                             00 
01020010005000236000021000185000030000000000000          BALLOTS CAST - TOTAL                                    BALLOTS CAST - TOTAL                  Precinct 4                                             00 
01020010006000190000064000112000014000000000000          BALLOTS CAST - TOTAL                                    BALLOTS CAST - TOTAL                  Precinct 5                                             00 
01020010007000013000007000006000000000000000000          BALLOTS CAST - TOTAL                                    BALLOTS CAST - TOTAL                  Precinct 5A                                            00 
01020010008000410000049000298000063000000000000          BALLOTS CAST - TOTAL                                    BALLOTS CAST - TOTAL                  Precinct 6                                             00 
01020010009000240000050000173000017000000000000          BALLOTS CAST - TOTAL                                    BALLOTS CAST - TOTAL                  Precinct 7                                             00 
01020010010000290000067000203000020000000000000          BALLOTS CAST - TOTAL                                    BALLOTS CAST - TOTAL                  Precinct 8                                             00 
01020010011000119000044000063000012000000000000          BALLOTS CAST - TOTAL                                    BALLOTS CAST - TOTAL                  Precinct 9                                             00 
01020010012000356000094000239000023000000000000          BALLOTS CAST - TOTAL                                    BALLOTS CAST - TOTAL                  Precinct 10                                            00 
01020010013000351000081000252000018000000000000          BALLOTS CAST - TOTAL                                    BALLOTS CAST - TOTAL                  Precinct 11                                            00 
01020010014000208000025000165000018000000000000          BALLOTS CAST - TOTAL                                    BALLOTS CAST - TOTAL                  Precinct 12                                            00 
01020010015000296000096000171000029000000000000          BALLOTS CAST - TOTAL                                    BALLOTS CAST - TOTAL                  Precinct 13                                            00 
01020010016000061000029000023000009000000000000          BALLOTS CAST - TOTAL                                    BALLOTS CAST - TOTAL                  Precinct 14                                            00 
01020010017000064000017000040000007000000000000          BALLOTS CAST - TOTAL                                    BALLOTS CAST - TOTAL                  Precinct 14A                                           00 
01030010001000380000209000134000037000000000000REP       BALLOTS CAST - REPUBLICAN PARTY                         BALLOTS CAST - REPUBLICAN PARTY       Precinct 1                                             00 
01030010002000061000035000023000003000000000000REP       BALLOTS CAST - REPUBLICAN PARTY                         BALLOTS CAST - REPUBLICAN PARTY       Precinct 1A                                            00 
01030010003000125000037000081000007000000000000REP       BALLOTS CAST - REPUBLICAN PARTY                         BALLOTS CAST - REPUBLICAN PARTY       Precinct 2                                             00 
01030010004000168000049000087000032000000000000REP       BALLOTS CAST - REPUBLICAN PARTY                         BALLOTS CAST - REPUBLICAN PARTY       Precinct 3                                             00 
01030010005000219000019000170000030000000000000REP       BALLOTS CAST - REPUBLICAN PARTY                         BALLOTS CAST - REPUBLICAN PARTY       Precinct 4                                             00 
01030010006000177000057000106000014000000000000REP       BALLOTS CAST - REPUBLICAN PARTY                         BALLOTS CAST - REPUBLICAN PARTY       Precinct 5                                             00 
01030010007000013000007000006000000000000000000REP       BALLOTS CAST - REPUBLICAN PARTY                         BALLOTS CAST - REPUBLICAN PARTY       Precinct 5A                                            00 
01030010008000390000047000280000063000000000000REP       BALLOTS CAST - REPUBLICAN PARTY                         BALLOTS CAST - REPUBLICAN PARTY       Precinct 6                                             00 
01030010009000233000049000169000015000000000000REP       BALLOTS CAST - REPUBLICAN PARTY                         BALLOTS CAST - REPUBLICAN PARTY       Precinct 7                                             00 
01030010010000269000065000186000018000000000000REP       BALLOTS CAST - REPUBLICAN PARTY                         BALLOTS CAST - REPUBLICAN PARTY       Precinct 8                                             00 
01030010011000111000042000058000011000000000000REP       BALLOTS CAST - REPUBLICAN PARTY                         BALLOTS CAST - REPUBLICAN PARTY       Precinct 9                                             00 
01030010012000351000093000236000022000000000000REP       BALLOTS CAST - REPUBLICAN PARTY                         BALLOTS CAST - REPUBLICAN PARTY       Precinct 10                                            00 
01030010013000333000079000238000016000000000000REP       BALLOTS CAST - REPUBLICAN PARTY                         BALLOTS CAST - REPUBLICAN PARTY       Precinct 11                                            00 
01030010014000172000022000136000014000000000000REP       BALLOTS CAST - REPUBLICAN PARTY                         BALLOTS CAST - REPUBLICAN PARTY       Precinct 12                                            00 
01030010015000284000092000164000028000000000000REP       BALLOTS CAST - REPUBLICAN PARTY                         BALLOTS CAST - REPUBLICAN PARTY       Precinct 13                                            00 
01030010016000050000025000017000008000000000000REP       BALLOTS CAST - REPUBLICAN PARTY                         BALLOTS CAST - REPUBLICAN PARTY       Precinct 14                                            00 
01030010017000061000016000040000005000000000000REP       BALLOTS CAST - REPUBLICAN PARTY                         BALLOTS CAST - REPUBLICAN PARTY       Precinct 14A                                           00 
01040010001000027000014000011000002000000000000DEM       BALLOTS CAST - DEMOCRATIC PARTY                         BALLOTS CAST - DEMOCRATIC PARTY       Precinct 1                                             00 
01040010002000004000003000001000000000000000000DEM       BALLOTS CAST - DEMOCRATIC PARTY                         BALLOTS CAST - DEMOCRATIC PARTY       Precinct 1A                                            00 
01040010003000009000004000004000001000000000000DEM       BALLOTS CAST - DEMOCRATIC PARTY                         BALLOTS CAST - DEMOCRATIC PARTY       Precinct 2                                             00 
01040010004000015000003000007000005000000000000DEM       BALLOTS CAST - DEMOCRATIC PARTY                         BALLOTS CAST - DEMOCRATIC PARTY       Precinct 3                                             00 
01040010005000017000002000015000000000000000000DEM       BALLOTS CAST - DEMOCRATIC PARTY                         BALLOTS CAST - DEMOCRATIC PARTY       Precinct 4                                             00 
01040010006000013000007000006000000000000000000DEM       BALLOTS CAST - DEMOCRATIC PARTY                         BALLOTS CAST - DEMOCRATIC PARTY       Precinct 5                                             00 
01040010007000000000000000000000000000000000000DEM       BALLOTS CAST - DEMOCRATIC PARTY                         BALLOTS CAST - DEMOCRATIC PARTY       Precinct 5A                                            00 
01040010008000020000002000018000000000000000000DEM       BALLOTS CAST - DEMOCRATIC PARTY                         BALLOTS CAST - DEMOCRATIC PARTY       Precinct 6                                             00 
01040010009000007000001000004000002000000000000DEM       BALLOTS CAST - DEMOCRATIC PARTY                         BALLOTS CAST - DEMOCRATIC PARTY       Precinct 7                                             00 
01040010010000021000002000017000002000000000000DEM       BALLOTS CAST - DEMOCRATIC PARTY                         BALLOTS CAST - DEMOCRATIC PARTY       Precinct 8                                             00 
01040010011000008000002000005000001000000000000DEM       BALLOTS CAST - DEMOCRATIC PARTY                         BALLOTS CAST - DEMOCRATIC PARTY       Precinct 9                                             00 
01040010012000005000001000003000001000000000000DEM       BALLOTS CAST - DEMOCRATIC PARTY                         BALLOTS CAST - DEMOCRATIC PARTY       Precinct 10                                            00 
01040010013000018000002000014000002000000000000DEM       BALLOTS CAST - DEMOCRATIC PARTY                         BALLOTS CAST - DEMOCRATIC PARTY       Precinct 11                                            00 
01040010014000036000003000029000004000000000000DEM       BALLOTS CAST - DEMOCRATIC PARTY                         BALLOTS CAST - DEMOCRATIC PARTY       Precinct 12                                            00 
01040010015000012000004000007000001000000000000DEM       BALLOTS CAST - DEMOCRATIC PARTY                         BALLOTS CAST - DEMOCRATIC PARTY       Precinct 13                                            00 
01040010016000011000004000006000001000000000000DEM       BALLOTS CAST - DEMOCRATIC PARTY                         BALLOTS CAST - DEMOCRATIC PARTY       Precinct 14                                            00 
01040010017000003000001000000000002000000000000DEM       BALLOTS CAST - DEMOCRATIC PARTY                         BALLOTS CAST - DEMOCRATIC PARTY       Precinct 14A                                           00 
01050010001000004000000000004000000000000000000REP       United States Senator                                   Geraldine Sam                         Precinct 1                                             01 
01050010002000001000000000000000001000000000000REP       United States Senator                                   Geraldine Sam                         Precinct 1A                                            01 
01050010003000001000000000001000000000000000000REP       United States Senator                                   Geraldine Sam                         Precinct 2                                             01 
01050010004000000000000000000000000000000000000REP       United States Senator                                   Geraldine Sam                         Precinct 3                                             01 
01050010005000006000003000003000000000000000000REP       United States Senator                                   Geraldine Sam                         Precinct 4                                             01 
01050010006000004000000000004000000000000000000REP       United States Senator                                   Geraldine Sam                         Precinct 5                                             01 
01050010007000000000000000000000000000000000000REP       United States Senator                                   Geraldine Sam                         Precinct 5A                                            01 
01050010008000005000001000003000001000000000000REP       United States Senator                                   Geraldine Sam                         Precinct 6                                             01 
01050010009000005000000000005000000000000000000REP       United States Senator                                   Geraldine Sam                         Precinct 7                                             01 
01050010010000008000001000005000002000000000000REP       United States Senator                                   Geraldine Sam                         Precinct 8                                             01 
01050010011000001000000000000000001000000000000REP       United States Senator                                   Geraldine Sam                         Precinct 9                                             01 
01050010012000007000000000005000002000000000000REP       United States Senator                                   Geraldine Sam                         Precinct 10                                            01 
01050010013000004000001000002000001000000000000REP       United States Senator                                   Geraldine Sam                         Precinct 11                                            01 
01050010014000003000000000003000000000000000000REP       United States Senator                                   Geraldine Sam                         Precinct 12                                            01 
01050010015000001000000000001000000000000000000REP       United States Senator                                   Geraldine Sam                         Precinct 13                                            01 
01050010016000001000000000001000000000000000000REP       United States Senator                                   Geraldine Sam                         Precinct 14                                            01 
01050010017000002000000000002000000000000000000REP       United States Senator                                   Geraldine Sam                         Precinct 14A                                           01 
01050020001000016000011000003000002000000000000REP       United States Senator                                   Bruce Jacobson, Jr.                   Precinct 1                                             01 
01050020002000003000002000001000000000000000000REP       United States Senator                                   Bruce Jacobson, Jr.                   Precinct 1A                                            01 
01050020003000005000002000003000000000000000000REP       United States Senator                                   Bruce Jacobson, Jr.                   Precinct 2                                             01 
01050020004000012000003000005000004000000000000REP       United States Senator                                   Bruce Jacobson, Jr.                   Precinct 3                                             01 
01050020005000006000001000005000000000000000000REP       United States Senator                                   Bruce Jacobson, Jr.                   Precinct 4                                             01 
01050020006000007000003000004000000000000000000REP       United States Senator                                   Bruce Jacobson, Jr.                   Precinct 5                                             01 
01050020007000002000002000000000000000000000000REP       United States Senator                                   Bruce Jacobson, Jr.                   Precinct 5A                                            01 
01050020008000015000003000011000001000000000000REP       United States Senator                                   Bruce Jacobson, Jr.                   Precinct 6                                             01 
01050020009000003000000000003000000000000000000REP       United States Senator                                   Bruce Jacobson, Jr.                   Precinct 7                                             01 
01050020010000008000002000003000003000000000000REP       United States Senator                                   Bruce Jacobson, Jr.                   Precinct 8                                             01 
01050020011000003000002000001000000000000000000REP       United States Senator                                   Bruce Jacobson, Jr.                   Precinct 9                                             01 
01050020012000007000003000004000000000000000000REP       United States Senator                                   Bruce Jacobson, Jr.                   Precinct 10                                            01 
01050020013000008000003000004000001000000000000REP       United States Senator                                   Bruce Jacobson, Jr.                   Precinct 11                                            01 
01050020014000007000000000007000000000000000000REP       United States Senator                                   Bruce Jacobson, Jr.                   Precinct 12                                            01 
01050020015000002000000000002000000000000000000REP       United States Senator                                   Bruce Jacobson, Jr.                   Precinct 13                                            01 
01050020016000001000001000000000000000000000000REP       United States Senator                                   Bruce Jacobson, Jr.                   Precinct 14                                            01 
01050020017000001000000000001000000000000000000REP       United States Senator                                   Bruce Jacobson, Jr.                   Precinct 14A                                           01 
01050030001000317000171000112000034000000000000REP       United States Senator                                   Ted Cruz                              Precinct 1                                             01 
01050030002000050000029000019000002000000000000REP       United States Senator                                   Ted Cruz                              Precinct 1A                                            01 
01050030003000101000029000068000004000000000000REP       United States Senator                                   Ted Cruz                              Precinct 2                                             01 
01050030004000138000040000071000027000000000000REP       United States Senator                                   Ted Cruz                              Precinct 3                                             01 
01050030005000177000013000136000028000000000000REP       United States Senator                                   Ted Cruz                              Precinct 4                                             01 
01050030006000154000047000093000014000000000000REP       United States Senator                                   Ted Cruz                              Precinct 5                                             01 
01050030007000009000005000004000000000000000000REP       United States Senator                                   Ted Cruz                              Precinct 5A                                            01 
01050030008000340000040000243000057000000000000REP       United States Senator                                   Ted Cruz                              Precinct 6                                             01 
01050030009000191000044000134000013000000000000REP       United States Senator                                   Ted Cruz                              Precinct 7                                             01 
01050030010000227000053000161000013000000000000REP       United States Senator                                   Ted Cruz                              Precinct 8                                             01 
01050030011000091000036000048000007000000000000REP       United States Senator                                   Ted Cruz                              Precinct 9                                             01 
01050030012000311000084000209000018000000000000REP       United States Senator                                   Ted Cruz                              Precinct 10                                            01 
01050030013000283000069000202000012000000000000REP       United States Senator                                   Ted Cruz                              Precinct 11                                            01 
01050030014000135000016000106000013000000000000REP       United States Senator                                   Ted Cruz                              Precinct 12                                            01 
01050030015000261000090000144000027000000000000REP       United States Senator                                   Ted Cruz                              Precinct 13                                            01 
01050030016000043000022000013000008000000000000REP       United States Senator                                   Ted Cruz                              Precinct 14                                            01 
01050030017000053000013000035000005000000000000REP       United States Senator                                   Ted Cruz                              Precinct 14A                                           01 
01050040001000005000004000001000000000000000000REP       United States Senator                                   Stefano de Stefano                    Precinct 1                                             01 
01050040002000001000001000000000000000000000000REP       United States Senator                                   Stefano de Stefano                    Precinct 1A                                            01 
01050040003000005000002000000000003000000000000REP       United States Senator                                   Stefano de Stefano                    Precinct 2                                             01 
01050040004000004000002000001000001000000000000REP       United States Senator                                   Stefano de Stefano                    Precinct 3                                             01 
01050040005000004000000000004000000000000000000REP       United States Senator                                   Stefano de Stefano                    Precinct 4                                             01 
01050040006000004000003000001000000000000000000REP       United States Senator                                   Stefano de Stefano                    Precinct 5                                             01 
01050040007000000000000000000000000000000000000REP       United States Senator                                   Stefano de Stefano                    Precinct 5A                                            01 
01050040008000004000000000003000001000000000000REP       United States Senator                                   Stefano de Stefano                    Precinct 6                                             01 
01050040009000002000001000001000000000000000000REP       United States Senator                                   Stefano de Stefano                    Precinct 7                                             01 
01050040010000004000001000003000000000000000000REP       United States Senator                                   Stefano de Stefano                    Precinct 8                                             01 
01050040011000002000001000001000000000000000000REP       United States Senator                                   Stefano de Stefano                    Precinct 9                                             01 
01050040012000002000000000001000001000000000000REP       United States Senator                                   Stefano de Stefano                    Precinct 10                                            01 
01050040013000001000000000000000001000000000000REP       United States Senator                                   Stefano de Stefano                    Precinct 11                                            01 
01050040014000004000002000002000000000000000000REP       United States Senator                                   Stefano de Stefano                    Precinct 12                                            01 
01050040015000002000000000002000000000000000000REP       United States Senator                                   Stefano de Stefano                    Precinct 13                                            01 
01050040016000001000000000001000000000000000000REP       United States Senator                                   Stefano de Stefano                    Precinct 14                                            01 
01050040017000000000000000000000000000000000000REP       United States Senator                                   Stefano de Stefano                    Precinct 14A                                           01 
01050050001000015000010000005000000000000000000REP       United States Senator                                   Mary Miller                           Precinct 1                                             01 
01050050002000003000002000001000000000000000000REP       United States Senator                                   Mary Miller                           Precinct 1A                                            01 
01050050003000002000000000002000000000000000000REP       United States Senator                                   Mary Miller                           Precinct 2                                             01 
01050050004000001000000000001000000000000000000REP       United States Senator                                   Mary Miller                           Precinct 3                                             01 
01050050005000008000001000005000002000000000000REP       United States Senator                                   Mary Miller                           Precinct 4                                             01 
01050050006000003000002000001000000000000000000REP       United States Senator                                   Mary Miller                           Precinct 5                                             01 
01050050007000001000000000001000000000000000000REP       United States Senator                                   Mary Miller                           Precinct 5A                                            01 
01050050008000014000003000011000000000000000000REP       United States Senator                                   Mary Miller                           Precinct 6                                             01 
01050050009000009000002000007000000000000000000REP       United States Senator                                   Mary Miller                           Precinct 7                                             01 
01050050010000011000003000008000000000000000000REP       United States Senator                                   Mary Miller                           Precinct 8                                             01 
01050050011000007000001000004000002000000000000REP       United States Senator                                   Mary Miller                           Precinct 9                                             01 
01050050012000012000005000006000001000000000000REP       United States Senator                                   Mary Miller                           Precinct 10                                            01 
01050050013000009000003000006000000000000000000REP       United States Senator                                   Mary Miller                           Precinct 11                                            01 
01050050014000009000002000006000001000000000000REP       United States Senator                                   Mary Miller                           Precinct 12                                            01 
01050050015000007000001000006000000000000000000REP       United States Senator                                   Mary Miller                           Precinct 13                                            01 
01050050016000004000002000002000000000000000000REP       United States Senator                                   Mary Miller                           Precinct 14                                            01 
01050050017000004000002000002000000000000000000REP       United States Senator                                   Mary Miller                           Precinct 14A                                           01 
01050060001000000000000000000000000000000000000REP       United States Senator                                   OVER VOTES                            Precinct 1                                             01 
01050060002000000000000000000000000000000000000REP       United States Senator                                   OVER VOTES                            Precinct 1A                                            01 
01050060003000000000000000000000000000000000000REP       United States Senator                                   OVER VOTES                            Precinct 2                                             01 
01050060004000000000000000000000000000000000000REP       United States Senator                                   OVER VOTES                            Precinct 3                                             01 
01050060005000000000000000000000000000000000000REP       United States Senator                                   OVER VOTES                            Precinct 4                                             01 
01050060006000000000000000000000000000000000000REP       United States Senator                                   OVER VOTES                            Precinct 5                                             01 
01050060007000000000000000000000000000000000000REP       United States Senator                                   OVER VOTES                            Precinct 5A                                            01 
01050060008000000000000000000000000000000000000REP       United States Senator                                   OVER VOTES                            Precinct 6                                             01 
01050060009000000000000000000000000000000000000REP       United States Senator                                   OVER VOTES                            Precinct 7                                             01 
01050060010000000000000000000000000000000000000REP       United States Senator                                   OVER VOTES                            Precinct 8                                             01 
01050060011000000000000000000000000000000000000REP       United States Senator                                   OVER VOTES                            Precinct 9                                             01 
01050060012000000000000000000000000000000000000REP       United States Senator                                   OVER VOTES                            Precinct 10                                            01 
01050060013000000000000000000000000000000000000REP       United States Senator                                   OVER VOTES                            Precinct 11                                            01 
01050060014000000000000000000000000000000000000REP       United States Senator                                   OVER VOTES                            Precinct 12                                            01 
01050060015000000000000000000000000000000000000REP       United States Senator                                   OVER VOTES                            Precinct 13                                            01 
01050060016000000000000000000000000000000000000REP       United States Senator                                   OVER VOTES                            Precinct 14                                            01 
01050060017000000000000000000000000000000000000REP       United States Senator                                   OVER VOTES                            Precinct 14A                                           01 
01050070001000023000013000009000001000000000000REP       United States Senator                                   UNDER VOTES                           Precinct 1                                             01 
01050070002000003000001000002000000000000000000REP       United States Senator                                   UNDER VOTES                           Precinct 1A                                            01 
01050070003000011000004000007000000000000000000REP       United States Senator                                   UNDER VOTES                           Precinct 2                                             01 
01050070004000013000004000009000000000000000000REP       United States Senator                                   UNDER VOTES                           Precinct 3                                             01 
01050070005000018000001000017000000000000000000REP       United States Senator                                   UNDER VOTES                           Precinct 4                                             01 
01050070006000005000002000003000000000000000000REP       United States Senator                                   UNDER VOTES                           Precinct 5                                             01 
01050070007000001000000000001000000000000000000REP       United States Senator                                   UNDER VOTES                           Precinct 5A                                            01 
01050070008000012000000000009000003000000000000REP       United States Senator                                   UNDER VOTES                           Precinct 6                                             01 
01050070009000023000002000019000002000000000000REP       United States Senator                                   UNDER VOTES                           Precinct 7                                             01 
01050070010000011000005000006000000000000000000REP       United States Senator                                   UNDER VOTES                           Precinct 8                                             01 
01050070011000007000002000004000001000000000000REP       United States Senator                                   UNDER VOTES                           Precinct 9                                             01 
01050070012000012000001000011000000000000000000REP       United States Senator                                   UNDER VOTES                           Precinct 10                                            01 
01050070013000028000003000024000001000000000000REP       United States Senator                                   UNDER VOTES                           Precinct 11                                            01 
01050070014000014000002000012000000000000000000REP       United States Senator                                   UNDER VOTES                           Precinct 12                                            01 
01050070015000011000001000009000001000000000000REP       United States Senator                                   UNDER VOTES                           Precinct 13                                            01 
01050070016000000000000000000000000000000000000REP       United States Senator                                   UNDER VOTES                           Precinct 14                                            01 
01050070017000001000001000000000000000000000000REP       United States Senator                                   UNDER VOTES                           Precinct 14A                                           01 
01060010001000313000172000110000031000000000000REP       US Representative, District 8                           Kevin Brady                           Precinct 1                                             01 
01060010003000099000027000065000007000000000000REP       US Representative, District 8                           Kevin Brady                           Precinct 2                                             01 
01060010004000151000045000080000026000000000000REP       US Representative, District 8                           Kevin Brady                           Precinct 3                                             01 
01060010005000181000014000139000028000000000000REP       US Representative, District 8                           Kevin Brady                           Precinct 4                                             01 
01060010006000149000047000090000012000000000000REP       US Representative, District 8                           Kevin Brady                           Precinct 5                                             01 
01060010008000324000039000234000051000000000000REP       US Representative, District 8                           Kevin Brady                           Precinct 6                                             01 
01060010016000045000023000014000008000000000000REP       US Representative, District 8                           Kevin Brady                           Precinct 14                                            01 
01060020001000000000000000000000000000000000000REP       US Representative, District 8                           OVER VOTES                            Precinct 1                                             01 
01060020003000000000000000000000000000000000000REP       US Representative, District 8                           OVER VOTES                            Precinct 2                                             01 
01060020004000000000000000000000000000000000000REP       US Representative, District 8                           OVER VOTES                            Precinct 3                                             01 
01060020005000000000000000000000000000000000000REP       US Representative, District 8                           OVER VOTES                            Precinct 4                                             01 
01060020006000000000000000000000000000000000000REP       US Representative, District 8                           OVER VOTES                            Precinct 5                                             01 
01060020008000000000000000000000000000000000000REP       US Representative, District 8                           OVER VOTES                            Precinct 6                                             01 
01060020016000000000000000000000000000000000000REP       US Representative, District 8                           OVER VOTES                            Precinct 14                                            01 
01060030001000067000037000024000006000000000000REP       US Representative, District 8                           UNDER VOTES                           Precinct 1                                             01 
01060030003000026000010000016000000000000000000REP       US Representative, District 8                           UNDER VOTES                           Precinct 2                                             01 
01060030004000017000004000007000006000000000000REP       US Representative, District 8                           UNDER VOTES                           Precinct 3                                             01 
01060030005000038000005000031000002000000000000REP       US Representative, District 8                           UNDER VOTES                           Precinct 4                                             01 
01060030006000028000010000016000002000000000000REP       US Representative, District 8                           UNDER VOTES                           Precinct 5                                             01 
01060030008000066000008000046000012000000000000REP       US Representative, District 8                           UNDER VOTES                           Precinct 6                                             01 
01060030016000005000002000003000000000000000000REP       US Representative, District 8                           UNDER VOTES                           Precinct 14                                            01 
01070010002000052000030000019000003000000000000REP       US Representative, District 17                          Bill Flores                           Precinct 1A                                            01 
01070010007000012000007000005000000000000000000REP       US Representative, District 17                          Bill Flores                           Precinct 5A                                            01 
01070010009000177000041000124000012000000000000REP       US Representative, District 17                          Bill Flores                           Precinct 7                                             01 
01070010010000230000054000162000014000000000000REP       US Representative, District 17                          Bill Flores                           Precinct 8                                             01 
01070010011000093000037000045000011000000000000REP       US Representative, District 17                          Bill Flores                           Precinct 9                                             01 
01070010012000284000082000186000016000000000000REP       US Representative, District 17                          Bill Flores                           Precinct 10                                            01 
01070010013000268000063000192000013000000000000REP       US Representative, District 17                          Bill Flores                           Precinct 11                                            01 
01070010014000129000016000100000013000000000000REP       US Representative, District 17                          Bill Flores                           Precinct 12                                            01 
01070010015000227000081000127000019000000000000REP       US Representative, District 17                          Bill Flores                           Precinct 13                                            01 
01070010017000047000010000032000005000000000000REP       US Representative, District 17                          Bill Flores                           Precinct 14A                                           01 
01070020002000000000000000000000000000000000000REP       US Representative, District 17                          OVER VOTES                            Precinct 1A                                            01 
01070020007000000000000000000000000000000000000REP       US Representative, District 17                          OVER VOTES                            Precinct 5A                                            01 
01070020009000000000000000000000000000000000000REP       US Representative, District 17                          OVER VOTES                            Precinct 7                                             01 
01070020010000000000000000000000000000000000000REP       US Representative, District 17                          OVER VOTES                            Precinct 8                                             01 
01070020011000000000000000000000000000000000000REP       US Representative, District 17                          OVER VOTES                            Precinct 9                                             01 
01070020012000000000000000000000000000000000000REP       US Representative, District 17                          OVER VOTES                            Precinct 10                                            01 
01070020013000000000000000000000000000000000000REP       US Representative, District 17                          OVER VOTES                            Precinct 11                                            01 
01070020014000000000000000000000000000000000000REP       US Representative, District 17                          OVER VOTES                            Precinct 12                                            01 
01070020015000000000000000000000000000000000000REP       US Representative, District 17                          OVER VOTES                            Precinct 13                                            01 
01070020017000000000000000000000000000000000000REP       US Representative, District 17                          OVER VOTES                            Precinct 14A                                           01 
01070030002000009000005000004000000000000000000REP       US Representative, District 17                          UNDER VOTES                           Precinct 1A                                            01 
01070030007000001000000000001000000000000000000REP       US Representative, District 17                          UNDER VOTES                           Precinct 5A                                            01 
01070030009000056000008000045000003000000000000REP       US Representative, District 17                          UNDER VOTES                           Precinct 7                                             01 
01070030010000039000011000024000004000000000000REP       US Representative, District 17                          UNDER VOTES                           Precinct 8                                             01 
01070030011000018000005000013000000000000000000REP       US Representative, District 17                          UNDER VOTES                           Precinct 9                                             01 
01070030012000067000011000050000006000000000000REP       US Representative, District 17                          UNDER VOTES                           Precinct 10                                            01 
01070030013000065000016000046000003000000000000REP       US Representative, District 17                          UNDER VOTES                           Precinct 11                                            01 
01070030014000043000006000036000001000000000000REP       US Representative, District 17                          UNDER VOTES                           Precinct 12                                            01 
01070030015000057000011000037000009000000000000REP       US Representative, District 17                          UNDER VOTES                           Precinct 13                                            01 
01070030017000014000006000008000000000000000000REP       US Representative, District 17                          UNDER VOTES                           Precinct 14A                                           01 
01080010001000336000184000116000036000000000000REP       Governor                                                Greg Abbott                           Precinct 1                                             01 
01080010002000056000033000020000003000000000000REP       Governor                                                Greg Abbott                           Precinct 1A                                            01 
01080010003000104000030000067000007000000000000REP       Governor                                                Greg Abbott                           Precinct 2                                             01 
01080010004000157000045000082000030000000000000REP       Governor                                                Greg Abbott                           Precinct 3                                             01 
01080010005000182000015000138000029000000000000REP       Governor                                                Greg Abbott                           Precinct 4                                             01 
01080010006000160000047000099000014000000000000REP       Governor                                                Greg Abbott                           Precinct 5                                             01 
01080010007000010000005000005000000000000000000REP       Governor                                                Greg Abbott                           Precinct 5A                                            01 
01080010008000353000041000251000061000000000000REP       Governor                                                Greg Abbott                           Precinct 6                                             01 
01080010009000208000043000150000015000000000000REP       Governor                                                Greg Abbott                           Precinct 7                                             01 
01080010010000245000057000170000018000000000000REP       Governor                                                Greg Abbott                           Precinct 8                                             01 
01080010011000101000038000053000010000000000000REP       Governor                                                Greg Abbott                           Precinct 9                                             01 
01080010012000319000083000216000020000000000000REP       Governor                                                Greg Abbott                           Precinct 10                                            01 
01080010013000301000071000215000015000000000000REP       Governor                                                Greg Abbott                           Precinct 11                                            01 
01080010014000150000017000119000014000000000000REP       Governor                                                Greg Abbott                           Precinct 12                                            01 
01080010015000264000088000148000028000000000000REP       Governor                                                Greg Abbott                           Precinct 13                                            01 
01080010016000045000022000015000008000000000000REP       Governor                                                Greg Abbott                           Precinct 14                                            01 
01080010017000056000013000038000005000000000000REP       Governor                                                Greg Abbott                           Precinct 14A                                           01 
01080020001000019000010000008000001000000000000REP       Governor                                                Barbara Krueger                       Precinct 1                                             01 
01080020002000004000002000002000000000000000000REP       Governor                                                Barbara Krueger                       Precinct 1A                                            01 
01080020003000007000002000005000000000000000000REP       Governor                                                Barbara Krueger                       Precinct 2                                             01 
01080020004000001000000000001000000000000000000REP       Governor                                                Barbara Krueger                       Precinct 3                                             01 
01080020005000008000001000006000001000000000000REP       Governor                                                Barbara Krueger                       Precinct 4                                             01 
01080020006000007000005000002000000000000000000REP       Governor                                                Barbara Krueger                       Precinct 5                                             01 
01080020007000000000000000000000000000000000000REP       Governor                                                Barbara Krueger                       Precinct 5A                                            01 
01080020008000019000005000014000000000000000000REP       Governor                                                Barbara Krueger                       Precinct 6                                             01 
01080020009000006000002000004000000000000000000REP       Governor                                                Barbara Krueger                       Precinct 7                                             01 
01080020010000011000003000008000000000000000000REP       Governor                                                Barbara Krueger                       Precinct 8                                             01 
01080020011000007000002000004000001000000000000REP       Governor                                                Barbara Krueger                       Precinct 9                                             01 
01080020012000011000002000008000001000000000000REP       Governor                                                Barbara Krueger                       Precinct 10                                            01 
01080020013000007000002000005000000000000000000REP       Governor                                                Barbara Krueger                       Precinct 11                                            01 
01080020014000013000003000010000000000000000000REP       Governor                                                Barbara Krueger                       Precinct 12                                            01 
01080020015000009000003000006000000000000000000REP       Governor                                                Barbara Krueger                       Precinct 13                                            01 
01080020016000003000003000000000000000000000000REP       Governor                                                Barbara Krueger                       Precinct 14                                            01 
01080020017000003000002000001000000000000000000REP       Governor                                                Barbara Krueger                       Precinct 14A                                           01 
01080030001000001000001000000000000000000000000REP       Governor                                                SECEDE Kilgore                        Precinct 1                                             01 
01080030002000000000000000000000000000000000000REP       Governor                                                SECEDE Kilgore                        Precinct 1A                                            01 
01080030003000000000000000000000000000000000000REP       Governor                                                SECEDE Kilgore                        Precinct 2                                             01 
01080030004000000000000000000000000000000000000REP       Governor                                                SECEDE Kilgore                        Precinct 3                                             01 
01080030005000005000001000004000000000000000000REP       Governor                                                SECEDE Kilgore                        Precinct 4                                             01 
01080030006000004000002000002000000000000000000REP       Governor                                                SECEDE Kilgore                        Precinct 5                                             01 
01080030007000002000002000000000000000000000000REP       Governor                                                SECEDE Kilgore                        Precinct 5A                                            01 
01080030008000001000000000001000000000000000000REP       Governor                                                SECEDE Kilgore                        Precinct 6                                             01 
01080030009000002000001000001000000000000000000REP       Governor                                                SECEDE Kilgore                        Precinct 7                                             01 
01080030010000001000001000000000000000000000000REP       Governor                                                SECEDE Kilgore                        Precinct 8                                             01 
01080030011000001000001000000000000000000000000REP       Governor                                                SECEDE Kilgore                        Precinct 9                                             01 
01080030012000005000004000001000000000000000000REP       Governor                                                SECEDE Kilgore                        Precinct 10                                            01 
01080030013000002000000000002000000000000000000REP       Governor                                                SECEDE Kilgore                        Precinct 11                                            01 
01080030014000002000000000002000000000000000000REP       Governor                                                SECEDE Kilgore                        Precinct 12                                            01 
01080030015000003000000000003000000000000000000REP       Governor                                                SECEDE Kilgore                        Precinct 13                                            01 
01080030016000000000000000000000000000000000000REP       Governor                                                SECEDE Kilgore                        Precinct 14                                            01 
01080030017000000000000000000000000000000000000REP       Governor                                                SECEDE Kilgore                        Precinct 14A                                           01 
01080040001000000000000000000000000000000000000REP       Governor                                                OVER VOTES                            Precinct 1                                             01 
01080040002000000000000000000000000000000000000REP       Governor                                                OVER VOTES                            Precinct 1A                                            01 
01080040003000000000000000000000000000000000000REP       Governor                                                OVER VOTES                            Precinct 2                                             01 
01080040004000000000000000000000000000000000000REP       Governor                                                OVER VOTES                            Precinct 3                                             01 
01080040005000000000000000000000000000000000000REP       Governor                                                OVER VOTES                            Precinct 4                                             01 
01080040006000000000000000000000000000000000000REP       Governor                                                OVER VOTES                            Precinct 5                                             01 
01080040007000000000000000000000000000000000000REP       Governor                                                OVER VOTES                            Precinct 5A                                            01 
01080040008000000000000000000000000000000000000REP       Governor                                                OVER VOTES                            Precinct 6                                             01 
01080040009000000000000000000000000000000000000REP       Governor                                                OVER VOTES                            Precinct 7                                             01 
01080040010000000000000000000000000000000000000REP       Governor                                                OVER VOTES                            Precinct 8                                             01 
01080040011000000000000000000000000000000000000REP       Governor                                                OVER VOTES                            Precinct 9                                             01 
01080040012000000000000000000000000000000000000REP       Governor                                                OVER VOTES                            Precinct 10                                            01 
01080040013000000000000000000000000000000000000REP       Governor                                                OVER VOTES                            Precinct 11                                            01 
01080040014000000000000000000000000000000000000REP       Governor                                                OVER VOTES                            Precinct 12                                            01 
01080040015000000000000000000000000000000000000REP       Governor                                                OVER VOTES                            Precinct 13                                            01 
01080040016000000000000000000000000000000000000REP       Governor                                                OVER VOTES                            Precinct 14                                            01 
01080040017000000000000000000000000000000000000REP       Governor                                                OVER VOTES                            Precinct 14A                                           01 
01080050001000024000014000010000000000000000000REP       Governor                                                UNDER VOTES                           Precinct 1                                             01 
01080050002000001000000000001000000000000000000REP       Governor                                                UNDER VOTES                           Precinct 1A                                            01 
01080050003000014000005000009000000000000000000REP       Governor                                                UNDER VOTES                           Precinct 2                                             01 
01080050004000010000004000004000002000000000000REP       Governor                                                UNDER VOTES                           Precinct 3                                             01 
01080050005000024000002000022000000000000000000REP       Governor                                                UNDER VOTES                           Precinct 4                                             01 
01080050006000006000003000003000000000000000000REP       Governor                                                UNDER VOTES                           Precinct 5                                             01 
01080050007000001000000000001000000000000000000REP       Governor                                                UNDER VOTES                           Precinct 5A                                            01 
01080050008000017000001000014000002000000000000REP       Governor                                                UNDER VOTES                           Precinct 6                                             01 
01080050009000017000003000014000000000000000000REP       Governor                                                UNDER VOTES                           Precinct 7                                             01 
01080050010000012000004000008000000000000000000REP       Governor                                                UNDER VOTES                           Precinct 8                                             01 
01080050011000002000001000001000000000000000000REP       Governor                                                UNDER VOTES                           Precinct 9                                             01 
01080050012000016000004000011000001000000000000REP       Governor                                                UNDER VOTES                           Precinct 10                                            01 
01080050013000023000006000016000001000000000000REP       Governor                                                UNDER VOTES                           Precinct 11                                            01 
01080050014000007000002000005000000000000000000REP       Governor                                                UNDER VOTES                           Precinct 12                                            01 
01080050015000008000001000007000000000000000000REP       Governor                                                UNDER VOTES                           Precinct 13                                            01 
01080050016000002000000000002000000000000000000REP       Governor                                                UNDER VOTES                           Precinct 14                                            01 
01080050017000002000001000001000000000000000000REP       Governor                                                UNDER VOTES                           Precinct 14A                                           01 
01090010001000103000055000047000001000000000000REP       Lieutenant Governor                                     Scott Milder                          Precinct 1                                             01 
01090010002000014000008000006000000000000000000REP       Lieutenant Governor                                     Scott Milder                          Precinct 1A                                            01 
01090010003000037000013000024000000000000000000REP       Lieutenant Governor                                     Scott Milder                          Precinct 2                                             01 
01090010004000046000016000027000003000000000000REP       Lieutenant Governor                                     Scott Milder                          Precinct 3                                             01 
01090010005000066000009000051000006000000000000REP       Lieutenant Governor                                     Scott Milder                          Precinct 4                                             01 
01090010006000042000019000022000001000000000000REP       Lieutenant Governor                                     Scott Milder                          Precinct 5                                             01 
01090010007000005000004000001000000000000000000REP       Lieutenant Governor                                     Scott Milder                          Precinct 5A                                            01 
01090010008000076000009000061000006000000000000REP       Lieutenant Governor                                     Scott Milder                          Precinct 6                                             01 
01090010009000056000015000039000002000000000000REP       Lieutenant Governor                                     Scott Milder                          Precinct 7                                             01 
01090010010000060000008000049000003000000000000REP       Lieutenant Governor                                     Scott Milder                          Precinct 8                                             01 
01090010011000020000008000011000001000000000000REP       Lieutenant Governor                                     Scott Milder                          Precinct 9                                             01 
01090010012000075000010000062000003000000000000REP       Lieutenant Governor                                     Scott Milder                          Precinct 10                                            01 
01090010013000086000017000063000006000000000000REP       Lieutenant Governor                                     Scott Milder                          Precinct 11                                            01 
01090010014000043000006000034000003000000000000REP       Lieutenant Governor                                     Scott Milder                          Precinct 12                                            01 
01090010015000050000017000029000004000000000000REP       Lieutenant Governor                                     Scott Milder                          Precinct 13                                            01 
01090010016000005000004000001000000000000000000REP       Lieutenant Governor                                     Scott Milder                          Precinct 14                                            01 
01090010017000013000004000009000000000000000000REP       Lieutenant Governor                                     Scott Milder                          Precinct 14A                                           01 
01090020001000249000139000077000033000000000000REP       Lieutenant Governor                                     Dan Patrick                           Precinct 1                                             01 
01090020002000045000026000016000003000000000000REP       Lieutenant Governor                                     Dan Patrick                           Precinct 1A                                            01 
01090020003000076000022000047000007000000000000REP       Lieutenant Governor                                     Dan Patrick                           Precinct 2                                             01 
01090020004000117000030000058000029000000000000REP       Lieutenant Governor                                     Dan Patrick                           Precinct 3                                             01 
01090020005000135000010000101000024000000000000REP       Lieutenant Governor                                     Dan Patrick                           Precinct 4                                             01 
01090020006000124000035000076000013000000000000REP       Lieutenant Governor                                     Dan Patrick                           Precinct 5                                             01 
01090020007000007000003000004000000000000000000REP       Lieutenant Governor                                     Dan Patrick                           Precinct 5A                                            01 
01090020008000298000038000209000051000000000000REP       Lieutenant Governor                                     Dan Patrick                           Precinct 6                                             01 
01090020009000147000029000107000011000000000000REP       Lieutenant Governor                                     Dan Patrick                           Precinct 7                                             01 
01090020010000184000050000120000014000000000000REP       Lieutenant Governor                                     Dan Patrick                           Precinct 8                                             01 
01090020011000081000030000041000010000000000000REP       Lieutenant Governor                                     Dan Patrick                           Precinct 9                                             01 
01090020012000243000077000148000018000000000000REP       Lieutenant Governor                                     Dan Patrick                           Precinct 10                                            01 
01090020013000202000055000138000009000000000000REP       Lieutenant Governor                                     Dan Patrick                           Precinct 11                                            01 
01090020014000111000014000086000011000000000000REP       Lieutenant Governor                                     Dan Patrick                           Precinct 12                                            01 
01090020015000209000073000115000021000000000000REP       Lieutenant Governor                                     Dan Patrick                           Precinct 13                                            01 
01090020016000045000021000016000008000000000000REP       Lieutenant Governor                                     Dan Patrick                           Precinct 14                                            01 
01090020017000044000009000030000005000000000000REP       Lieutenant Governor                                     Dan Patrick                           Precinct 14A                                           01 
01090030001000000000000000000000000000000000000REP       Lieutenant Governor                                     OVER VOTES                            Precinct 1                                             01 
01090030002000000000000000000000000000000000000REP       Lieutenant Governor                                     OVER VOTES                            Precinct 1A                                            01 
01090030003000000000000000000000000000000000000REP       Lieutenant Governor                                     OVER VOTES                            Precinct 2                                             01 
01090030004000000000000000000000000000000000000REP       Lieutenant Governor                                     OVER VOTES                            Precinct 3                                             01 
01090030005000000000000000000000000000000000000REP       Lieutenant Governor                                     OVER VOTES                            Precinct 4                                             01 
01090030006000000000000000000000000000000000000REP       Lieutenant Governor                                     OVER VOTES                            Precinct 5                                             01 
01090030007000000000000000000000000000000000000REP       Lieutenant Governor                                     OVER VOTES                            Precinct 5A                                            01 
01090030008000000000000000000000000000000000000REP       Lieutenant Governor                                     OVER VOTES                            Precinct 6                                             01 
01090030009000000000000000000000000000000000000REP       Lieutenant Governor                                     OVER VOTES                            Precinct 7                                             01 
01090030010000000000000000000000000000000000000REP       Lieutenant Governor                                     OVER VOTES                            Precinct 8                                             01 
01090030011000000000000000000000000000000000000REP       Lieutenant Governor                                     OVER VOTES                            Precinct 9                                             01 
01090030012000000000000000000000000000000000000REP       Lieutenant Governor                                     OVER VOTES                            Precinct 10                                            01 
01090030013000000000000000000000000000000000000REP       Lieutenant Governor                                     OVER VOTES                            Precinct 11                                            01 
01090030014000000000000000000000000000000000000REP       Lieutenant Governor                                     OVER VOTES                            Precinct 12                                            01 
01090030015000000000000000000000000000000000000REP       Lieutenant Governor                                     OVER VOTES                            Precinct 13                                            01 
01090030016000000000000000000000000000000000000REP       Lieutenant Governor                                     OVER VOTES                            Precinct 14                                            01 
01090030017000000000000000000000000000000000000REP       Lieutenant Governor                                     OVER VOTES                            Precinct 14A                                           01 
01090040001000028000015000010000003000000000000REP       Lieutenant Governor                                     UNDER VOTES                           Precinct 1                                             01 
01090040002000002000001000001000000000000000000REP       Lieutenant Governor                                     UNDER VOTES                           Precinct 1A                                            01 
01090040003000012000002000010000000000000000000REP       Lieutenant Governor                                     UNDER VOTES                           Precinct 2                                             01 
01090040004000005000003000002000000000000000000REP       Lieutenant Governor                                     UNDER VOTES                           Precinct 3                                             01 
01090040005000018000000000018000000000000000000REP       Lieutenant Governor                                     UNDER VOTES                           Precinct 4                                             01 
01090040006000011000003000008000000000000000000REP       Lieutenant Governor                                     UNDER VOTES                           Precinct 5                                             01 
01090040007000001000000000001000000000000000000REP       Lieutenant Governor                                     UNDER VOTES                           Precinct 5A                                            01 
01090040008000016000000000010000006000000000000REP       Lieutenant Governor                                     UNDER VOTES                           Precinct 6                                             01 
01090040009000030000005000023000002000000000000REP       Lieutenant Governor                                     UNDER VOTES                           Precinct 7                                             01 
01090040010000025000007000017000001000000000000REP       Lieutenant Governor                                     UNDER VOTES                           Precinct 8                                             01 
01090040011000010000004000006000000000000000000REP       Lieutenant Governor                                     UNDER VOTES                           Precinct 9                                             01 
01090040012000033000006000026000001000000000000REP       Lieutenant Governor                                     UNDER VOTES                           Precinct 10                                            01 
01090040013000045000007000037000001000000000000REP       Lieutenant Governor                                     UNDER VOTES                           Precinct 11                                            01 
01090040014000018000002000016000000000000000000REP       Lieutenant Governor                                     UNDER VOTES                           Precinct 12                                            01 
01090040015000025000002000020000003000000000000REP       Lieutenant Governor                                     UNDER VOTES                           Precinct 13                                            01 
01090040016000000000000000000000000000000000000REP       Lieutenant Governor                                     UNDER VOTES                           Precinct 14                                            01 
01090040017000004000003000001000000000000000000REP       Lieutenant Governor                                     UNDER VOTES                           Precinct 14A                                           01 
01100010001000303000166000104000033000000000000REP       Attorney General                                        Ken Paxton                            Precinct 1                                             01 
01100010002000054000031000020000003000000000000REP       Attorney General                                        Ken Paxton                            Precinct 1A                                            01 
01100010003000091000027000058000006000000000000REP       Attorney General                                        Ken Paxton                            Precinct 2                                             01 
01100010004000146000043000076000027000000000000REP       Attorney General                                        Ken Paxton                            Precinct 3                                             01 
01100010005000167000013000125000029000000000000REP       Attorney General                                        Ken Paxton                            Precinct 4                                             01 
01100010006000150000049000090000011000000000000REP       Attorney General                                        Ken Paxton                            Precinct 5                                             01 
01100010007000011000007000004000000000000000000REP       Attorney General                                        Ken Paxton                            Precinct 5A                                            01 
01100010008000327000042000235000050000000000000REP       Attorney General                                        Ken Paxton                            Precinct 6                                             01 
01100010009000182000041000129000012000000000000REP       Attorney General                                        Ken Paxton                            Precinct 7                                             01 
01100010010000231000055000160000016000000000000REP       Attorney General                                        Ken Paxton                            Precinct 8                                             01 
01100010011000088000035000044000009000000000000REP       Attorney General                                        Ken Paxton                            Precinct 9                                             01 
01100010012000283000083000180000020000000000000REP       Attorney General                                        Ken Paxton                            Precinct 10                                            01 
01100010013000261000066000183000012000000000000REP       Attorney General                                        Ken Paxton                            Precinct 11                                            01 
01100010014000128000015000101000012000000000000REP       Attorney General                                        Ken Paxton                            Precinct 12                                            01 
01100010015000230000086000122000022000000000000REP       Attorney General                                        Ken Paxton                            Precinct 13                                            01 
01100010016000043000022000013000008000000000000REP       Attorney General                                        Ken Paxton                            Precinct 14                                            01 
01100010017000048000010000034000004000000000000REP       Attorney General                                        Ken Paxton                            Precinct 14A                                           01 
01100020001000000000000000000000000000000000000REP       Attorney General                                        OVER VOTES                            Precinct 1                                             01 
01100020002000000000000000000000000000000000000REP       Attorney General                                        OVER VOTES                            Precinct 1A                                            01 
01100020003000000000000000000000000000000000000REP       Attorney General                                        OVER VOTES                            Precinct 2                                             01 
01100020004000000000000000000000000000000000000REP       Attorney General                                        OVER VOTES                            Precinct 3                                             01 
01100020005000000000000000000000000000000000000REP       Attorney General                                        OVER VOTES                            Precinct 4                                             01 
01100020006000000000000000000000000000000000000REP       Attorney General                                        OVER VOTES                            Precinct 5                                             01 
01100020007000000000000000000000000000000000000REP       Attorney General                                        OVER VOTES                            Precinct 5A                                            01 
01100020008000000000000000000000000000000000000REP       Attorney General                                        OVER VOTES                            Precinct 6                                             01 
01100020009000000000000000000000000000000000000REP       Attorney General                                        OVER VOTES                            Precinct 7                                             01 
01100020010000000000000000000000000000000000000REP       Attorney General                                        OVER VOTES                            Precinct 8                                             01 
01100020011000000000000000000000000000000000000REP       Attorney General                                        OVER VOTES                            Precinct 9                                             01 
01100020012000000000000000000000000000000000000REP       Attorney General                                        OVER VOTES                            Precinct 10                                            01 
01100020013000000000000000000000000000000000000REP       Attorney General                                        OVER VOTES                            Precinct 11                                            01 
01100020014000000000000000000000000000000000000REP       Attorney General                                        OVER VOTES                            Precinct 12                                            01 
01100020015000000000000000000000000000000000000REP       Attorney General                                        OVER VOTES                            Precinct 13                                            01 
01100020016000000000000000000000000000000000000REP       Attorney General                                        OVER VOTES                            Precinct 14                                            01 
01100020017000000000000000000000000000000000000REP       Attorney General                                        OVER VOTES                            Precinct 14A                                           01 
01100030001000077000043000030000004000000000000REP       Attorney General                                        UNDER VOTES                           Precinct 1                                             01 
01100030002000007000004000003000000000000000000REP       Attorney General                                        UNDER VOTES                           Precinct 1A                                            01 
01100030003000034000010000023000001000000000000REP       Attorney General                                        UNDER VOTES                           Precinct 2                                             01 
01100030004000022000006000011000005000000000000REP       Attorney General                                        UNDER VOTES                           Precinct 3                                             01 
01100030005000052000006000045000001000000000000REP       Attorney General                                        UNDER VOTES                           Precinct 4                                             01 
01100030006000027000008000016000003000000000000REP       Attorney General                                        UNDER VOTES                           Precinct 5                                             01 
01100030007000002000000000002000000000000000000REP       Attorney General                                        UNDER VOTES                           Precinct 5A                                            01 
01100030008000063000005000045000013000000000000REP       Attorney General                                        UNDER VOTES                           Precinct 6                                             01 
01100030009000051000008000040000003000000000000REP       Attorney General                                        UNDER VOTES                           Precinct 7                                             01 
01100030010000038000010000026000002000000000000REP       Attorney General                                        UNDER VOTES                           Precinct 8                                             01 
01100030011000023000007000014000002000000000000REP       Attorney General                                        UNDER VOTES                           Precinct 9                                             01 
01100030012000068000010000056000002000000000000REP       Attorney General                                        UNDER VOTES                           Precinct 10                                            01 
01100030013000072000013000055000004000000000000REP       Attorney General                                        UNDER VOTES                           Precinct 11                                            01 
01100030014000044000007000035000002000000000000REP       Attorney General                                        UNDER VOTES                           Precinct 12                                            01 
01100030015000054000006000042000006000000000000REP       Attorney General                                        UNDER VOTES                           Precinct 13                                            01 
01100030016000007000003000004000000000000000000REP       Attorney General                                        UNDER VOTES                           Precinct 14                                            01 
01100030017000013000006000006000001000000000000REP       Attorney General                                        UNDER VOTES                           Precinct 14A                                           01 
01110010001000286000158000100000028000000000000REP       Comptroller of Public Accounts                          Glenn Hegar                           Precinct 1                                             01 
01110010002000054000031000020000003000000000000REP       Comptroller of Public Accounts                          Glenn Hegar                           Precinct 1A                                            01 
01110010003000085000024000055000006000000000000REP       Comptroller of Public Accounts                          Glenn Hegar                           Precinct 2                                             01 
01110010004000138000042000068000028000000000000REP       Comptroller of Public Accounts                          Glenn Hegar                           Precinct 3                                             01 
01110010005000166000013000123000030000000000000REP       Comptroller of Public Accounts                          Glenn Hegar                           Precinct 4                                             01 
01110010006000139000046000082000011000000000000REP       Comptroller of Public Accounts                          Glenn Hegar                           Precinct 5                                             01 
01110010007000011000007000004000000000000000000REP       Comptroller of Public Accounts                          Glenn Hegar                           Precinct 5A                                            01 
01110010008000316000039000228000049000000000000REP       Comptroller of Public Accounts                          Glenn Hegar                           Precinct 6                                             01 
01110010009000171000042000118000011000000000000REP       Comptroller of Public Accounts                          Glenn Hegar                           Precinct 7                                             01 
01110010010000217000052000150000015000000000000REP       Comptroller of Public Accounts                          Glenn Hegar                           Precinct 8                                             01 
01110010011000089000034000044000011000000000000REP       Comptroller of Public Accounts                          Glenn Hegar                           Precinct 9                                             01 
01110010012000268000081000169000018000000000000REP       Comptroller of Public Accounts                          Glenn Hegar                           Precinct 10                                            01 
01110010013000244000058000172000014000000000000REP       Comptroller of Public Accounts                          Glenn Hegar                           Precinct 11                                            01 
01110010014000123000015000096000012000000000000REP       Comptroller of Public Accounts                          Glenn Hegar                           Precinct 12                                            01 
01110010015000214000079000114000021000000000000REP       Comptroller of Public Accounts                          Glenn Hegar                           Precinct 13                                            01 
01110010016000039000020000011000008000000000000REP       Comptroller of Public Accounts                          Glenn Hegar                           Precinct 14                                            01 
01110010017000045000011000029000005000000000000REP       Comptroller of Public Accounts                          Glenn Hegar                           Precinct 14A                                           01 
01110020001000000000000000000000000000000000000REP       Comptroller of Public Accounts                          OVER VOTES                            Precinct 1                                             01 
01110020002000000000000000000000000000000000000REP       Comptroller of Public Accounts                          OVER VOTES                            Precinct 1A                                            01 
01110020003000000000000000000000000000000000000REP       Comptroller of Public Accounts                          OVER VOTES                            Precinct 2                                             01 
01110020004000000000000000000000000000000000000REP       Comptroller of Public Accounts                          OVER VOTES                            Precinct 3                                             01 
01110020005000000000000000000000000000000000000REP       Comptroller of Public Accounts                          OVER VOTES                            Precinct 4                                             01 
01110020006000000000000000000000000000000000000REP       Comptroller of Public Accounts                          OVER VOTES                            Precinct 5                                             01 
01110020007000000000000000000000000000000000000REP       Comptroller of Public Accounts                          OVER VOTES                            Precinct 5A                                            01 
01110020008000000000000000000000000000000000000REP       Comptroller of Public Accounts                          OVER VOTES                            Precinct 6                                             01 
01110020009000000000000000000000000000000000000REP       Comptroller of Public Accounts                          OVER VOTES                            Precinct 7                                             01 
01110020010000000000000000000000000000000000000REP       Comptroller of Public Accounts                          OVER VOTES                            Precinct 8                                             01 
01110020011000000000000000000000000000000000000REP       Comptroller of Public Accounts                          OVER VOTES                            Precinct 9                                             01 
01110020012000000000000000000000000000000000000REP       Comptroller of Public Accounts                          OVER VOTES                            Precinct 10                                            01 
01110020013000000000000000000000000000000000000REP       Comptroller of Public Accounts                          OVER VOTES                            Precinct 11                                            01 
01110020014000000000000000000000000000000000000REP       Comptroller of Public Accounts                          OVER VOTES                            Precinct 12                                            01 
