01010010001001127000000000000000000000000000000          REGISTERED VOTERS - TOTAL                               REGISTERED VOTERS - TOTAL             PRECINCT 1                                             00 
01010010002000302000000000000000000000000000000          REGISTERED VOTERS - TOTAL                               REGISTERED VOTERS - TOTAL             PRECINCT 2                                             00 
01010010003000763000000000000000000000000000000          REGISTERED VOTERS - TOTAL                               REGISTERED VOTERS - TOTAL             PRECINCT 025                                           00 
01010010004001119000000000000000000000000000000          REGISTERED VOTERS - TOTAL                               REGISTERED VOTERS - TOTAL             PRECINCT 3                                             00 
01010010005000717000000000000000000000000000000          REGISTERED VOTERS - TOTAL                               REGISTERED VOTERS - TOTAL             PRECINCT 4                                             00 
01010010006000462000000000000000000000000000000          REGISTERED VOTERS - TOTAL                               REGISTERED VOTERS - TOTAL             PRECINCT 046                                           00 
01020010001000261000140000121000000000000000000          BALLOTS CAST - TOTAL                                    BALLOTS CAST - TOTAL                  PRECINCT 1                                             00 
01020010002000076000017000059000000000000000000          BALLOTS CAST - TOTAL                                    BALLOTS CAST - TOTAL                  PRECINCT 2                                             00 
01020010003000094000055000039000000000000000000          BALLOTS CAST - TOTAL                                    BALLOTS CAST - TOTAL                  PRECINCT 025                                           00 
01020010004000200000078000122000000000000000000          BALLOTS CAST - TOTAL                                    BALLOTS CAST - TOTAL                  PRECINCT 3                                             00 
01020010005000260000077000183000000000000000000          BALLOTS CAST - TOTAL                                    BALLOTS CAST - TOTAL                  PRECINCT 4                                             00 
01020010006000145000063000082000000000000000000          BALLOTS CAST - TOTAL                                    BALLOTS CAST - TOTAL                  PRECINCT 046                                           00 
01030010001000246000131000115000000000000000000REP       BALLOTS CAST - REPUBLICAN PARTY                         BALLOTS CAST - REPUBLICAN PARTY       PRECINCT 1                                             00 
01030010002000074000016000058000000000000000000REP       BALLOTS CAST - REPUBLICAN PARTY                         BALLOTS CAST - REPUBLICAN PARTY       PRECINCT 2                                             00 
01030010003000083000051000032000000000000000000REP       BALLOTS CAST - REPUBLICAN PARTY                         BALLOTS CAST - REPUBLICAN PARTY       PRECINCT 025                                           00 
01030010004000177000068000109000000000000000000REP       BALLOTS CAST - REPUBLICAN PARTY                         BALLOTS CAST - REPUBLICAN PARTY       PRECINCT 3                                             00 
01030010005000230000070000160000000000000000000REP       BALLOTS CAST - REPUBLICAN PARTY                         BALLOTS CAST - REPUBLICAN PARTY       PRECINCT 4                                             00 
01030010006000135000061000074000000000000000000REP       BALLOTS CAST - REPUBLICAN PARTY                         BALLOTS CAST - REPUBLICAN PARTY       PRECINCT 046                                           00 
01040010001000015000009000006000000000000000000DEM       BALLOTS CAST - DEMOCRATIC PARTY                         BALLOTS CAST - DEMOCRATIC PARTY       PRECINCT 1                                             00 
01040010002000002000001000001000000000000000000DEM       BALLOTS CAST - DEMOCRATIC PARTY                         BALLOTS CAST - DEMOCRATIC PARTY       PRECINCT 2                                             00 
01040010003000011000004000007000000000000000000DEM       BALLOTS CAST - DEMOCRATIC PARTY                         BALLOTS CAST - DEMOCRATIC PARTY       PRECINCT 025                                           00 
01040010004000023000010000013000000000000000000DEM       BALLOTS CAST - DEMOCRATIC PARTY                         BALLOTS CAST - DEMOCRATIC PARTY       PRECINCT 3                                             00 
01040010005000030000007000023000000000000000000DEM       BALLOTS CAST - DEMOCRATIC PARTY                         BALLOTS CAST - DEMOCRATIC PARTY       PRECINCT 4                                             00 
01040010006000010000002000008000000000000000000DEM       BALLOTS CAST - DEMOCRATIC PARTY                         BALLOTS CAST - DEMOCRATIC PARTY       PRECINCT 046                                           00 
01050010001000201000106000095000000000000000000REP       United States Senator                                   Ted Cruz                              PRECINCT 1                                             01 
01050010002000072000014000058000000000000000000REP       United States Senator                                   Ted Cruz                              PRECINCT 2                                             01 
01050010003000064000035000029000000000000000000REP       United States Senator                                   Ted Cruz                              PRECINCT 025                                           01 
01050010004000150000053000097000000000000000000REP       United States Senator                                   Ted Cruz                              PRECINCT 3                                             01 
01050010005000176000053000123000000000000000000REP       United States Senator                                   Ted Cruz                              PRECINCT 4                                             01 
01050010006000120000053000067000000000000000000REP       United States Senator                                   Ted Cruz                              PRECINCT 046                                           01 
01050020001000006000003000003000000000000000000REP       United States Senator                                   Geraldine Sam                         PRECINCT 1                                             01 
01050020002000000000000000000000000000000000000REP       United States Senator                                   Geraldine Sam                         PRECINCT 2                                             01 
01050020003000002000002000000000000000000000000REP       United States Senator                                   Geraldine Sam                         PRECINCT 025                                           01 
01050020004000003000001000002000000000000000000REP       United States Senator                                   Geraldine Sam                         PRECINCT 3                                             01 
01050020005000006000000000006000000000000000000REP       United States Senator                                   Geraldine Sam                         PRECINCT 4                                             01 
01050020006000003000001000002000000000000000000REP       United States Senator                                   Geraldine Sam                         PRECINCT 046                                           01 
01050030001000008000005000003000000000000000000REP       United States Senator                                   Bruce Jacobson, Jr.                   PRECINCT 1                                             01 
01050030002000002000002000000000000000000000000REP       United States Senator                                   Bruce Jacobson, Jr.                   PRECINCT 2                                             01 
01050030003000003000003000000000000000000000000REP       United States Senator                                   Bruce Jacobson, Jr.                   PRECINCT 025                                           01 
01050030004000005000004000001000000000000000000REP       United States Senator                                   Bruce Jacobson, Jr.                   PRECINCT 3                                             01 
01050030005000007000003000004000000000000000000REP       United States Senator                                   Bruce Jacobson, Jr.                   PRECINCT 4                                             01 
01050030006000002000002000000000000000000000000REP       United States Senator                                   Bruce Jacobson, Jr.                   PRECINCT 046                                           01 
01050040001000013000007000006000000000000000000REP       United States Senator                                   Mary Miller                           PRECINCT 1                                             01 
01050040002000000000000000000000000000000000000REP       United States Senator                                   Mary Miller                           PRECINCT 2                                             01 
01050040003000003000002000001000000000000000000REP       United States Senator                                   Mary Miller                           PRECINCT 025                                           01 
01050040004000006000004000002000000000000000000REP       United States Senator                                   Mary Miller                           PRECINCT 3                                             01 
01050040005000009000003000006000000000000000000REP       United States Senator                                   Mary Miller                           PRECINCT 4                                             01 
01050040006000002000001000001000000000000000000REP       United States Senator                                   Mary Miller                           PRECINCT 046                                           01 
01050050001000001000001000000000000000000000000REP       United States Senator                                   Stefano de Stefano                    PRECINCT 1                                             01 
01050050002000000000000000000000000000000000000REP       United States Senator                                   Stefano de Stefano                    PRECINCT 2                                             01 
01050050003000004000003000001000000000000000000REP       United States Senator                                   Stefano de Stefano                    PRECINCT 025                                           01 
01050050004000000000000000000000000000000000000REP       United States Senator                                   Stefano de Stefano                    PRECINCT 3                                             01 
01050050005000004000000000004000000000000000000REP       United States Senator                                   Stefano de Stefano                    PRECINCT 4                                             01 
01050050006000000000000000000000000000000000000REP       United States Senator                                   Stefano de Stefano                    PRECINCT 046                                           01 
01050060001000000000000000000000000000000000000REP       United States Senator                                   OVER VOTES                            PRECINCT 1                                             01 
01050060002000000000000000000000000000000000000REP       United States Senator                                   OVER VOTES                            PRECINCT 2                                             01 
01050060003000000000000000000000000000000000000REP       United States Senator                                   OVER VOTES                            PRECINCT 025                                           01 
01050060004000000000000000000000000000000000000REP       United States Senator                                   OVER VOTES                            PRECINCT 3                                             01 
01050060005000000000000000000000000000000000000REP       United States Senator                                   OVER VOTES                            PRECINCT 4                                             01 
01050060006000000000000000000000000000000000000REP       United States Senator                                   OVER VOTES                            PRECINCT 046                                           01 
01050070001000017000009000008000000000000000000REP       United States Senator                                   UNDER VOTES                           PRECINCT 1                                             01 
01050070002000000000000000000000000000000000000REP       United States Senator                                   UNDER VOTES                           PRECINCT 2                                             01 
01050070003000007000006000001000000000000000000REP       United States Senator                                   UNDER VOTES                           PRECINCT 025                                           01 
01050070004000013000006000007000000000000000000REP       United States Senator                                   UNDER VOTES                           PRECINCT 3                                             01 
01050070005000028000011000017000000000000000000REP       United States Senator                                   UNDER VOTES                           PRECINCT 4                                             01 
01050070006000008000004000004000000000000000000REP       United States Senator                                   UNDER VOTES                           PRECINCT 046                                           01 
01060010001000020000011000009000000000000000000REP       United States Representative, Dist 11                   Paul Myers                            PRECINCT 1                                             01 
01060010002000013000001000012000000000000000000REP       United States Representative, Dist 11                   Paul Myers                            PRECINCT 2                                             01 
01060010003000007000004000003000000000000000000REP       United States Representative, Dist 11                   Paul Myers                            PRECINCT 025                                           01 
01060010004000027000013000014000000000000000000REP       United States Representative, Dist 11                   Paul Myers                            PRECINCT 3                                             01 
01060010005000034000012000022000000000000000000REP       United States Representative, Dist 11                   Paul Myers                            PRECINCT 4                                             01 
01060010006000011000006000005000000000000000000REP       United States Representative, Dist 11                   Paul Myers                            PRECINCT 046                                           01 
01060020001000212000112000100000000000000000000REP       United States Representative, Dist 11                   Mike Conaway                          PRECINCT 1                                             01 
01060020002000058000015000043000000000000000000REP       United States Representative, Dist 11                   Mike Conaway                          PRECINCT 2                                             01 
01060020003000071000043000028000000000000000000REP       United States Representative, Dist 11                   Mike Conaway                          PRECINCT 025                                           01 
01060020004000142000052000090000000000000000000REP       United States Representative, Dist 11                   Mike Conaway                          PRECINCT 3                                             01 
01060020005000164000048000116000000000000000000REP       United States Representative, Dist 11                   Mike Conaway                          PRECINCT 4                                             01 
01060020006000114000050000064000000000000000000REP       United States Representative, Dist 11                   Mike Conaway                          PRECINCT 046                                           01 
01060030001000000000000000000000000000000000000REP       United States Representative, Dist 11                   OVER VOTES                            PRECINCT 1                                             01 
01060030002000000000000000000000000000000000000REP       United States Representative, Dist 11                   OVER VOTES                            PRECINCT 2                                             01 
01060030003000000000000000000000000000000000000REP       United States Representative, Dist 11                   OVER VOTES                            PRECINCT 025                                           01 
01060030004000000000000000000000000000000000000REP       United States Representative, Dist 11                   OVER VOTES                            PRECINCT 3                                             01 
01060030005000000000000000000000000000000000000REP       United States Representative, Dist 11                   OVER VOTES                            PRECINCT 4                                             01 
01060030006000000000000000000000000000000000000REP       United States Representative, Dist 11                   OVER VOTES                            PRECINCT 046                                           01 
01060040001000014000008000006000000000000000000REP       United States Representative, Dist 11                   UNDER VOTES                           PRECINCT 1                                             01 
01060040002000003000000000003000000000000000000REP       United States Representative, Dist 11                   UNDER VOTES                           PRECINCT 2                                             01 
01060040003000005000004000001000000000000000000REP       United States Representative, Dist 11                   UNDER VOTES                           PRECINCT 025                                           01 
01060040004000008000003000005000000000000000000REP       United States Representative, Dist 11                   UNDER VOTES                           PRECINCT 3                                             01 
01060040005000032000010000022000000000000000000REP       United States Representative, Dist 11                   UNDER VOTES                           PRECINCT 4                                             01 
01060040006000010000005000005000000000000000000REP       United States Representative, Dist 11                   UNDER VOTES                           PRECINCT 046                                           01 
01070010001000006000003000003000000000000000000REP       Governor                                                SECEDE Kilgore                        PRECINCT 1                                             01 
01070010002000001000001000000000000000000000000REP       Governor                                                SECEDE Kilgore                        PRECINCT 2                                             01 
01070010003000002000001000001000000000000000000REP       Governor                                                SECEDE Kilgore                        PRECINCT 025                                           01 
01070010004000003000000000003000000000000000000REP       Governor                                                SECEDE Kilgore                        PRECINCT 3                                             01 
01070010005000004000001000003000000000000000000REP       Governor                                                SECEDE Kilgore                        PRECINCT 4                                             01 
01070010006000000000000000000000000000000000000REP       Governor                                                SECEDE Kilgore                        PRECINCT 046                                           01 
01070020001000214000115000099000000000000000000REP       Governor                                                Greg Abbott                           PRECINCT 1                                             01 
01070020002000069000015000054000000000000000000REP       Governor                                                Greg Abbott                           PRECINCT 2                                             01 
01070020003000068000039000029000000000000000000REP       Governor                                                Greg Abbott                           PRECINCT 025                                           01 
01070020004000151000054000097000000000000000000REP       Governor                                                Greg Abbott                           PRECINCT 3                                             01 
01070020005000193000060000133000000000000000000REP       Governor                                                Greg Abbott                           PRECINCT 4                                             01 
01070020006000119000053000066000000000000000000REP       Governor                                                Greg Abbott                           PRECINCT 046                                           01 
01070030001000012000008000004000000000000000000REP       Governor                                                Barbara Krueger                       PRECINCT 1                                             01 
01070030002000002000000000002000000000000000000REP       Governor                                                Barbara Krueger                       PRECINCT 2                                             01 
01070030003000006000005000001000000000000000000REP       Governor                                                Barbara Krueger                       PRECINCT 025                                           01 
01070030004000011000007000004000000000000000000REP       Governor                                                Barbara Krueger                       PRECINCT 3                                             01 
01070030005000012000002000010000000000000000000REP       Governor                                                Barbara Krueger                       PRECINCT 4                                             01 
01070030006000008000004000004000000000000000000REP       Governor                                                Barbara Krueger                       PRECINCT 046                                           01 
01070040001000000000000000000000000000000000000REP       Governor                                                OVER VOTES                            PRECINCT 1                                             01 
01070040002000000000000000000000000000000000000REP       Governor                                                OVER VOTES                            PRECINCT 2                                             01 
01070040003000000000000000000000000000000000000REP       Governor                                                OVER VOTES                            PRECINCT 025                                           01 
01070040004000000000000000000000000000000000000REP       Governor                                                OVER VOTES                            PRECINCT 3                                             01 
01070040005000000000000000000000000000000000000REP       Governor                                                OVER VOTES                            PRECINCT 4                                             01 
01070040006000000000000000000000000000000000000REP       Governor                                                OVER VOTES                            PRECINCT 046                                           01 
01070050001000014000005000009000000000000000000REP       Governor                                                UNDER VOTES                           PRECINCT 1                                             01 
01070050002000002000000000002000000000000000000REP       Governor                                                UNDER VOTES                           PRECINCT 2                                             01 
01070050003000007000006000001000000000000000000REP       Governor                                                UNDER VOTES                           PRECINCT 025                                           01 
01070050004000012000007000005000000000000000000REP       Governor                                                UNDER VOTES                           PRECINCT 3                                             01 
01070050005000021000007000014000000000000000000REP       Governor                                                UNDER VOTES                           PRECINCT 4                                             01 
01070050006000008000004000004000000000000000000REP       Governor                                                UNDER VOTES                           PRECINCT 046                                           01 
01080010001000084000043000041000000000000000000REP       Lieutenant Governor                                     Scott Milder                          PRECINCT 1                                             01 
01080010002000026000006000020000000000000000000REP       Lieutenant Governor                                     Scott Milder                          PRECINCT 2                                             01 
01080010003000028000016000012000000000000000000REP       Lieutenant Governor                                     Scott Milder                          PRECINCT 025                                           01 
01080010004000043000019000024000000000000000000REP       Lieutenant Governor                                     Scott Milder                          PRECINCT 3                                             01 
01080010005000060000009000051000000000000000000REP       Lieutenant Governor                                     Scott Milder                          PRECINCT 4                                             01 
01080010006000041000013000028000000000000000000REP       Lieutenant Governor                                     Scott Milder                          PRECINCT 046                                           01 
01080020001000152000084000068000000000000000000REP       Lieutenant Governor                                     Dan Patrick                           PRECINCT 1                                             01 
01080020002000044000010000034000000000000000000REP       Lieutenant Governor                                     Dan Patrick                           PRECINCT 2                                             01 
01080020003000047000030000017000000000000000000REP       Lieutenant Governor                                     Dan Patrick                           PRECINCT 025                                           01 
01080020004000121000042000079000000000000000000REP       Lieutenant Governor                                     Dan Patrick                           PRECINCT 3                                             01 
01080020005000140000051000089000000000000000000REP       Lieutenant Governor                                     Dan Patrick                           PRECINCT 4                                             01 
01080020006000084000043000041000000000000000000REP       Lieutenant Governor                                     Dan Patrick                           PRECINCT 046                                           01 
01080030001000000000000000000000000000000000000REP       Lieutenant Governor                                     OVER VOTES                            PRECINCT 1                                             01 
01080030002000000000000000000000000000000000000REP       Lieutenant Governor                                     OVER VOTES                            PRECINCT 2                                             01 
01080030003000000000000000000000000000000000000REP       Lieutenant Governor                                     OVER VOTES                            PRECINCT 025                                           01 
01080030004000000000000000000000000000000000000REP       Lieutenant Governor                                     OVER VOTES                            PRECINCT 3                                             01 
01080030005000000000000000000000000000000000000REP       Lieutenant Governor                                     OVER VOTES                            PRECINCT 4                                             01 
01080030006000000000000000000000000000000000000REP       Lieutenant Governor                                     OVER VOTES                            PRECINCT 046                                           01 
01080040001000010000004000006000000000000000000REP       Lieutenant Governor                                     UNDER VOTES                           PRECINCT 1                                             01 
01080040002000004000000000004000000000000000000REP       Lieutenant Governor                                     UNDER VOTES                           PRECINCT 2                                             01 
01080040003000008000005000003000000000000000000REP       Lieutenant Governor                                     UNDER VOTES                           PRECINCT 025                                           01 
01080040004000013000007000006000000000000000000REP       Lieutenant Governor                                     UNDER VOTES                           PRECINCT 3                                             01 
01080040005000030000010000020000000000000000000REP       Lieutenant Governor                                     UNDER VOTES                           PRECINCT 4                                             01 
01080040006000010000005000005000000000000000000REP       Lieutenant Governor                                     UNDER VOTES                           PRECINCT 046                                           01 
01090010001000204000110000094000000000000000000REP       Attorney General                                        Ken Paxton                            PRECINCT 1                                             01 
01090010002000063000013000050000000000000000000REP       Attorney General                                        Ken Paxton                            PRECINCT 2                                             01 
01090010003000069000039000030000000000000000000REP       Attorney General                                        Ken Paxton                            PRECINCT 025                                           01 
01090010004000143000048000095000000000000000000REP       Attorney General                                        Ken Paxton                            PRECINCT 3                                             01 
01090010005000165000055000110000000000000000000REP       Attorney General                                        Ken Paxton                            PRECINCT 4                                             01 
01090010006000106000049000057000000000000000000REP       Attorney General                                        Ken Paxton                            PRECINCT 046                                           01 
01090020001000000000000000000000000000000000000REP       Attorney General                                        OVER VOTES                            PRECINCT 1                                             01 
01090020002000000000000000000000000000000000000REP       Attorney General                                        OVER VOTES                            PRECINCT 2                                             01 
01090020003000000000000000000000000000000000000REP       Attorney General                                        OVER VOTES                            PRECINCT 025                                           01 
01090020004000000000000000000000000000000000000REP       Attorney General                                        OVER VOTES                            PRECINCT 3                                             01 
01090020005000000000000000000000000000000000000REP       Attorney General                                        OVER VOTES                            PRECINCT 4                                             01 
01090020006000000000000000000000000000000000000REP       Attorney General                                        OVER VOTES                            PRECINCT 046                                           01 
01090030001000042000021000021000000000000000000REP       Attorney General                                        UNDER VOTES                           PRECINCT 1                                             01 
01090030002000011000003000008000000000000000000REP       Attorney General                                        UNDER VOTES                           PRECINCT 2                                             01 
01090030003000014000012000002000000000000000000REP       Attorney General                                        UNDER VOTES                           PRECINCT 025                                           01 
01090030004000034000020000014000000000000000000REP       Attorney General                                        UNDER VOTES                           PRECINCT 3                                             01 
01090030005000065000015000050000000000000000000REP       Attorney General                                        UNDER VOTES                           PRECINCT 4                                             01 
01090030006000029000012000017000000000000000000REP       Attorney General                                        UNDER VOTES                           PRECINCT 046                                           01 
01100010001000196000104000092000000000000000000REP       Comptroller of Public Accounts                          Glenn Hegar                           PRECINCT 1                                             01 
01100010002000062000014000048000000000000000000REP       Comptroller of Public Accounts                          Glenn Hegar                           PRECINCT 2                                             01 
01100010003000070000040000030000000000000000000REP       Comptroller of Public Accounts                          Glenn Hegar                           PRECINCT 025                                           01 
01100010004000132000046000086000000000000000000REP       Comptroller of Public Accounts                          Glenn Hegar                           PRECINCT 3                                             01 
01100010005000154000051000103000000000000000000REP       Comptroller of Public Accounts                          Glenn Hegar                           PRECINCT 4                                             01 
01100010006000096000045000051000000000000000000REP       Comptroller of Public Accounts                          Glenn Hegar                           PRECINCT 046                                           01 
01100020001000000000000000000000000000000000000REP       Comptroller of Public Accounts                          OVER VOTES                            PRECINCT 1                                             01 
01100020002000000000000000000000000000000000000REP       Comptroller of Public Accounts                          OVER VOTES                            PRECINCT 2                                             01 
01100020003000000000000000000000000000000000000REP       Comptroller of Public Accounts                          OVER VOTES                            PRECINCT 025                                           01 
01100020004000000000000000000000000000000000000REP       Comptroller of Public Accounts                          OVER VOTES                            PRECINCT 3                                             01 
01100020005000000000000000000000000000000000000REP       Comptroller of Public Accounts                          OVER VOTES                            PRECINCT 4                                             01 
01100020006000000000000000000000000000000000000REP       Comptroller of Public Accounts                          OVER VOTES                            PRECINCT 046                                           01 
01100030001000050000027000023000000000000000000REP       Comptroller of Public Accounts                          UNDER VOTES                           PRECINCT 1                                             01 
01100030002000012000002000010000000000000000000REP       Comptroller of Public Accounts                          UNDER VOTES                           PRECINCT 2                                             01 
01100030003000013000011000002000000000000000000REP       Comptroller of Public Accounts                          UNDER VOTES                           PRECINCT 025                                           01 
01100030004000045000022000023000000000000000000REP       Comptroller of Public Accounts                          UNDER VOTES                           PRECINCT 3                                             01 
01100030005000076000019000057000000000000000000REP       Comptroller of Public Accounts                          UNDER VOTES                           PRECINCT 4                                             01 
01100030006000039000016000023000000000000000000REP       Comptroller of Public Accounts                          UNDER VOTES                           PRECINCT 046                                           01 
01110010001000012000008000004000000000000000000REP       Commissioner of the General Land Office                 Davey Edwards                         PRECINCT 1                                             01 
01110010002000007000002000005000000000000000000REP       Commissioner of the General Land Office                 Davey Edwards                         PRECINCT 2                                             01 
01110010003000006000004000002000000000000000000REP       Commissioner of the General Land Office                 Davey Edwards                         PRECINCT 025                                           01 
01110010004000014000005000009000000000000000000REP       Commissioner of the General Land Office                 Davey Edwards                         PRECINCT 3                                             01 
01110010005000016000007000009000000000000000000REP       Commissioner of the General Land Office                 Davey Edwards                         PRECINCT 4                                             01 
01110010006000016000011000005000000000000000000REP       Commissioner of the General Land Office                 Davey Edwards                         PRECINCT 046                                           01 
01110020001000052000029000023000000000000000000REP       Commissioner of the General Land Office                 Jerry Patterson                       PRECINCT 1                                             01 
01110020002000026000005000021000000000000000000REP       Commissioner of the General Land Office                 Jerry Patterson                       PRECINCT 2                                             01 
01110020003000021000011000010000000000000000000REP       Commissioner of the General Land Office                 Jerry Patterson                       PRECINCT 025                                           01 
01110020004000042000019000023000000000000000000REP       Commissioner of the General Land Office                 Jerry Patterson                       PRECINCT 3                                             01 
01110020005000056000019000037000000000000000000REP       Commissioner of the General Land Office                 Jerry Patterson                       PRECINCT 4                                             01 
01110020006000031000014000017000000000000000000REP       Commissioner of the General Land Office                 Jerry Patterson                       PRECINCT 046                                           01 
01110030001000144000076000068000000000000000000REP       Commissioner of the General Land Office                 George P. Bush                        PRECINCT 1                                             01 
01110030002000030000006000024000000000000000000REP       Commissioner of the General Land Office                 George P. Bush                        PRECINCT 2                                             01 
01110030003000041000023000018000000000000000000REP       Commissioner of the General Land Office                 George P. Bush                        PRECINCT 025                                           01 
01110030004000087000025000062000000000000000000REP       Commissioner of the General Land Office                 George P. Bush                        PRECINCT 3                                             01 
01110030005000111000029000082000000000000000000REP       Commissioner of the General Land Office                 George P. Bush                        PRECINCT 4                                             01 
01110030006000066000031000035000000000000000000REP       Commissioner of the General Land Office                 George P. Bush                        PRECINCT 046                                           01 
01110040001000012000006000006000000000000000000REP       Commissioner of the General Land Office                 Rick Range                            PRECINCT 1                                             01 
01110040002000003000002000001000000000000000000REP       Commissioner of the General Land Office                 Rick Range                            PRECINCT 2                                             01 
01110040003000004000002000002000000000000000000REP       Commissioner of the General Land Office                 Rick Range                            PRECINCT 025                                           01 
01110040004000012000007000005000000000000000000REP       Commissioner of the General Land Office                 Rick Range                            PRECINCT 3                                             01 
01110040005000009000004000005000000000000000000REP       Commissioner of the General Land Office                 Rick Range                            PRECINCT 4                                             01 
01110040006000005000001000004000000000000000000REP       Commissioner of the General Land Office                 Rick Range                            PRECINCT 046                                           01 
01110050001000000000000000000000000000000000000REP       Commissioner of the General Land Office                 OVER VOTES                            PRECINCT 1                                             01 
01110050002000000000000000000000000000000000000REP       Commissioner of the General Land Office                 OVER VOTES                            PRECINCT 2                                             01 
01110050003000000000000000000000000000000000000REP       Commissioner of the General Land Office                 OVER VOTES                            PRECINCT 025                                           01 
01110050004000000000000000000000000000000000000REP       Commissioner of the General Land Office                 OVER VOTES                            PRECINCT 3                                             01 
01110050005000000000000000000000000000000000000REP       Commissioner of the General Land Office                 OVER VOTES                            PRECINCT 4                                             01 
01110050006000000000000000000000000000000000000REP       Commissioner of the General Land Office                 OVER VOTES                            PRECINCT 046                                           01 
01110060001000026000012000014000000000000000000REP       Commissioner of the General Land Office                 UNDER VOTES                           PRECINCT 1                                             01 
01110060002000008000001000007000000000000000000REP       Commissioner of the General Land Office                 UNDER VOTES                           PRECINCT 2                                             01 
01110060003000011000011000000000000000000000000REP       Commissioner of the General Land Office                 UNDER VOTES                           PRECINCT 025                                           01 
01110060004000022000012000010000000000000000000REP       Commissioner of the General Land Office                 UNDER VOTES                           PRECINCT 3                                             01 
01110060005000038000011000027000000000000000000REP       Commissioner of the General Land Office                 UNDER VOTES                           PRECINCT 4                                             01 
01110060006000017000004000013000000000000000000REP       Commissioner of the General Land Office                 UNDER VOTES                           PRECINCT 046                                           01 
01120010001000047000028000019000000000000000000REP       Commissioner of Agriculture                             Jim Hogan                             PRECINCT 1                                             01 
01120010002000009000001000008000000000000000000REP       Commissioner of Agriculture                             Jim Hogan                             PRECINCT 2                                             01 
01120010003000015000011000004000000000000000000REP       Commissioner of Agriculture                             Jim Hogan                             PRECINCT 025                                           01 
01120010004000030000010000020000000000000000000REP       Commissioner of Agriculture                             Jim Hogan                             PRECINCT 3                                             01 
01120010005000052000014000038000000000000000000REP       Commissioner of Agriculture                             Jim Hogan                             PRECINCT 4                                             01 
01120010006000017000011000006000000000000000000REP       Commissioner of Agriculture                             Jim Hogan                             PRECINCT 046                                           01 
01120020001000122000067000055000000000000000000REP       Commissioner of Agriculture                             Sid Miller                            PRECINCT 1                                             01 
01120020002000056000014000042000000000000000000REP       Commissioner of Agriculture                             Sid Miller                            PRECINCT 2                                             01 
01120020003000042000024000018000000000000000000REP       Commissioner of Agriculture                             Sid Miller                            PRECINCT 025                                           01 
01120020004000092000039000053000000000000000000REP       Commissioner of Agriculture                             Sid Miller                            PRECINCT 3                                             01 
01120020005000103000034000069000000000000000000REP       Commissioner of Agriculture                             Sid Miller                            PRECINCT 4                                             01 
01120020006000073000027000046000000000000000000REP       Commissioner of Agriculture                             Sid Miller                            PRECINCT 046                                           01 
01120030001000035000014000021000000000000000000REP       Commissioner of Agriculture                             Trey Blocker                          PRECINCT 1                                             01 
01120030002000008000001000007000000000000000000REP       Commissioner of Agriculture                             Trey Blocker                          PRECINCT 2                                             01 
01120030003000010000004000006000000000000000000REP       Commissioner of Agriculture                             Trey Blocker                          PRECINCT 025                                           01 
01120030004000026000005000021000000000000000000REP       Commissioner of Agriculture                             Trey Blocker                          PRECINCT 3                                             01 
01120030005000027000008000019000000000000000000REP       Commissioner of Agriculture                             Trey Blocker                          PRECINCT 4                                             01 
01120030006000013000007000006000000000000000000REP       Commissioner of Agriculture                             Trey Blocker                          PRECINCT 046                                           01 
01120040001000000000000000000000000000000000000REP       Commissioner of Agriculture                             OVER VOTES                            PRECINCT 1                                             01 
01120040002000000000000000000000000000000000000REP       Commissioner of Agriculture                             OVER VOTES                            PRECINCT 2                                             01 
01120040003000000000000000000000000000000000000REP       Commissioner of Agriculture                             OVER VOTES                            PRECINCT 025                                           01 
01120040004000000000000000000000000000000000000REP       Commissioner of Agriculture                             OVER VOTES                            PRECINCT 3                                             01 
01120040005000000000000000000000000000000000000REP       Commissioner of Agriculture                             OVER VOTES                            PRECINCT 4                                             01 
01120040006000000000000000000000000000000000000REP       Commissioner of Agriculture                             OVER VOTES                            PRECINCT 046                                           01 
01120050001000042000022000020000000000000000000REP       Commissioner of Agriculture                             UNDER VOTES                           PRECINCT 1                                             01 
01120050002000001000000000001000000000000000000REP       Commissioner of Agriculture                             UNDER VOTES                           PRECINCT 2                                             01 
01120050003000016000012000004000000000000000000REP       Commissioner of Agriculture                             UNDER VOTES                           PRECINCT 025                                           01 
01120050004000029000014000015000000000000000000REP       Commissioner of Agriculture                             UNDER VOTES                           PRECINCT 3                                             01 
01120050005000048000014000034000000000000000000REP       Commissioner of Agriculture                             UNDER VOTES                           PRECINCT 4                                             01 
01120050006000032000016000016000000000000000000REP       Commissioner of Agriculture                             UNDER VOTES                           PRECINCT 046                                           01 
01130010001000046000020000026000000000000000000REP       Railroad Commissioner                                   Weston Martinez                       PRECINCT 1                                             01 
01130010002000012000003000009000000000000000000REP       Railroad Commissioner                                   Weston Martinez                       PRECINCT 2                                             01 
01130010003000023000012000011000000000000000000REP       Railroad Commissioner                                   Weston Martinez                       PRECINCT 025                                           01 
01130010004000040000019000021000000000000000000REP       Railroad Commissioner                                   Weston Martinez                       PRECINCT 3                                             01 
01130010005000079000020000059000000000000000000REP       Railroad Commissioner                                   Weston Martinez                       PRECINCT 4                                             01 
01130010006000040000017000023000000000000000000REP       Railroad Commissioner                                   Weston Martinez                       PRECINCT 046                                           01 
01130020001000148000080000068000000000000000000REP       Railroad Commissioner                                   Christi Craddick                      PRECINCT 1                                             01 
01130020002000055000011000044000000000000000000REP       Railroad Commissioner                                   Christi Craddick                      PRECINCT 2                                             01 
01130020003000047000029000018000000000000000000REP       Railroad Commissioner                                   Christi Craddick                      PRECINCT 025                                           01 
01130020004000103000034000069000000000000000000REP       Railroad Commissioner                                   Christi Craddick                      PRECINCT 3                                             01 
01130020005000102000037000065000000000000000000REP       Railroad Commissioner                                   Christi Craddick                      PRECINCT 4                                             01 
01130020006000058000028000030000000000000000000REP       Railroad Commissioner                                   Christi Craddick                      PRECINCT 046                                           01 
01130030001000000000000000000000000000000000000REP       Railroad Commissioner                                   OVER VOTES                            PRECINCT 1                                             01 
01130030002000000000000000000000000000000000000REP       Railroad Commissioner                                   OVER VOTES                            PRECINCT 2                                             01 
01130030003000000000000000000000000000000000000REP       Railroad Commissioner                                   OVER VOTES                            PRECINCT 025                                           01 
01130030004000000000000000000000000000000000000REP       Railroad Commissioner                                   OVER VOTES                            PRECINCT 3                                             01 
01130030005000000000000000000000000000000000000REP       Railroad Commissioner                                   OVER VOTES                            PRECINCT 4                                             01 
01130030006000000000000000000000000000000000000REP       Railroad Commissioner                                   OVER VOTES                            PRECINCT 046                                           01 
01130040001000052000031000021000000000000000000REP       Railroad Commissioner                                   UNDER VOTES                           PRECINCT 1                                             01 
01130040002000007000002000005000000000000000000REP       Railroad Commissioner                                   UNDER VOTES                           PRECINCT 2                                             01 
01130040003000013000010000003000000000000000000REP       Railroad Commissioner                                   UNDER VOTES                           PRECINCT 025                                           01 
01130040004000034000015000019000000000000000000REP       Railroad Commissioner                                   UNDER VOTES                           PRECINCT 3                                             01 
01130040005000049000013000036000000000000000000REP       Railroad Commissioner                                   UNDER VOTES                           PRECINCT 4                                             01 
01130040006000037000016000021000000000000000000REP       Railroad Commissioner                                   UNDER VOTES                           PRECINCT 046                                           01 
01140010001000171000095000076000000000000000000REP       Justice, Supreme Court, Place 2                         Jimmy Blacklock                       PRECINCT 1                                             01 
01140010002000065000013000052000000000000000000REP       Justice, Supreme Court, Place 2                         Jimmy Blacklock                       PRECINCT 2                                             01 
01140010003000063000035000028000000000000000000REP       Justice, Supreme Court, Place 2                         Jimmy Blacklock                       PRECINCT 025                                           01 
01140010004000121000041000080000000000000000000REP       Justice, Supreme Court, Place 2                         Jimmy Blacklock                       PRECINCT 3                                             01 
01140010005000150000048000102000000000000000000REP       Justice, Supreme Court, Place 2                         Jimmy Blacklock                       PRECINCT 4                                             01 
01140010006000089000041000048000000000000000000REP       Justice, Supreme Court, Place 2                         Jimmy Blacklock                       PRECINCT 046                                           01 
01140020001000000000000000000000000000000000000REP       Justice, Supreme Court, Place 2                         OVER VOTES                            PRECINCT 1                                             01 
01140020002000000000000000000000000000000000000REP       Justice, Supreme Court, Place 2                         OVER VOTES                            PRECINCT 2                                             01 
01140020003000000000000000000000000000000000000REP       Justice, Supreme Court, Place 2                         OVER VOTES                            PRECINCT 025                                           01 
01140020004000000000000000000000000000000000000REP       Justice, Supreme Court, Place 2                         OVER VOTES                            PRECINCT 3                                             01 
01140020005000000000000000000000000000000000000REP       Justice, Supreme Court, Place 2                         OVER VOTES                            PRECINCT 4                                             01 
01140020006000000000000000000000000000000000000REP       Justice, Supreme Court, Place 2                         OVER VOTES                            PRECINCT 046                                           01 
01140030001000075000036000039000000000000000000REP       Justice, Supreme Court, Place 2                         UNDER VOTES                           PRECINCT 1                                             01 
01140030002000009000003000006000000000000000000REP       Justice, Supreme Court, Place 2                         UNDER VOTES                           PRECINCT 2                                             01 
01140030003000020000016000004000000000000000000REP       Justice, Supreme Court, Place 2                         UNDER VOTES                           PRECINCT 025                                           01 
01140030004000056000027000029000000000000000000REP       Justice, Supreme Court, Place 2                         UNDER VOTES                           PRECINCT 3                                             01 
01140030005000080000022000058000000000000000000REP       Justice, Supreme Court, Place 2                         UNDER VOTES                           PRECINCT 4                                             01 
01140030006000046000020000026000000000000000000REP       Justice, Supreme Court, Place 2                         UNDER VOTES                           PRECINCT 046                                           01 
01150010001000170000094000076000000000000000000REP       Justice, Supreme Court, Place 4                         John Devine                           PRECINCT 1                                             01 
01150010002000062000012000050000000000000000000REP       Justice, Supreme Court, Place 4                         John Devine                           PRECINCT 2                                             01 
01150010003000063000035000028000000000000000000REP       Justice, Supreme Court, Place 4                         John Devine                           PRECINCT 025                                           01 
01150010004000123000041000082000000000000000000REP       Justice, Supreme Court, Place 4                         John Devine                           PRECINCT 3                                             01 
01150010005000145000049000096000000000000000000REP       Justice, Supreme Court, Place 4                         John Devine                           PRECINCT 4                                             01 
01150010006000086000040000046000000000000000000REP       Justice, Supreme Court, Place 4                         John Devine                           PRECINCT 046                                           01 
01150020001000000000000000000000000000000000000REP       Justice, Supreme Court, Place 4                         OVER VOTES                            PRECINCT 1                                             01 
01150020002000000000000000000000000000000000000REP       Justice, Supreme Court, Place 4                         OVER VOTES                            PRECINCT 2                                             01 
01150020003000000000000000000000000000000000000REP       Justice, Supreme Court, Place 4                         OVER VOTES                            PRECINCT 025                                           01 
01150020004000000000000000000000000000000000000REP       Justice, Supreme Court, Place 4                         OVER VOTES                            PRECINCT 3                                             01 
01150020005000000000000000000000000000000000000REP       Justice, Supreme Court, Place 4                         OVER VOTES                            PRECINCT 4                                             01 
01150020006000000000000000000000000000000000000REP       Justice, Supreme Court, Place 4                         OVER VOTES                            PRECINCT 046                                           01 
01150030001000076000037000039000000000000000000REP       Justice, Supreme Court, Place 4                         UNDER VOTES                           PRECINCT 1                                             01 
01150030002000012000004000008000000000000000000REP       Justice, Supreme Court, Place 4                         UNDER VOTES                           PRECINCT 2                                             01 
01150030003000020000016000004000000000000000000REP       Justice, Supreme Court, Place 4                         UNDER VOTES                           PRECINCT 025                                           01 
01150030004000054000027000027000000000000000000REP       Justice, Supreme Court, Place 4                         UNDER VOTES                           PRECINCT 3                                             01 
01150030005000085000021000064000000000000000000REP       Justice, Supreme Court, Place 4                         UNDER VOTES                           PRECINCT 4                                             01 
01150030006000049000021000028000000000000000000REP       Justice, Supreme Court, Place 4                         UNDER VOTES                           PRECINCT 046                                           01 
01160010001000167000093000074000000000000000000REP       Supreme Court, Place 6                                  Jeff Brown                            PRECINCT 1                                             01 
01160010002000062000011000051000000000000000000REP       Supreme Court, Place 6                                  Jeff Brown                            PRECINCT 2                                             01 
01160010003000063000035000028000000000000000000REP       Supreme Court, Place 6                                  Jeff Brown                            PRECINCT 025                                           01 
01160010004000123000041000082000000000000000000REP       Supreme Court, Place 6                                  Jeff Brown                            PRECINCT 3                                             01 
01160010005000147000050000097000000000000000000REP       Supreme Court, Place 6                                  Jeff Brown                            PRECINCT 4                                             01 
01160010006000087000041000046000000000000000000REP       Supreme Court, Place 6                                  Jeff Brown                            PRECINCT 046                                           01 
01160020001000000000000000000000000000000000000REP       Supreme Court, Place 6                                  OVER VOTES                            PRECINCT 1                                             01 
01160020002000000000000000000000000000000000000REP       Supreme Court, Place 6                                  OVER VOTES                            PRECINCT 2                                             01 
01160020003000000000000000000000000000000000000REP       Supreme Court, Place 6                                  OVER VOTES                            PRECINCT 025                                           01 
01160020004000000000000000000000000000000000000REP       Supreme Court, Place 6                                  OVER VOTES                            PRECINCT 3                                             01 
01160020005000000000000000000000000000000000000REP       Supreme Court, Place 6                                  OVER VOTES                            PRECINCT 4                                             01 
01160020006000000000000000000000000000000000000REP       Supreme Court, Place 6                                  OVER VOTES                            PRECINCT 046                                           01 
01160030001000079000038000041000000000000000000REP       Supreme Court, Place 6                                  UNDER VOTES                           PRECINCT 1                                             01 
01160030002000012000005000007000000000000000000REP       Supreme Court, Place 6                                  UNDER VOTES                           PRECINCT 2                                             01 
01160030003000020000016000004000000000000000000REP       Supreme Court, Place 6                                  UNDER VOTES                           PRECINCT 025                                           01 
01160030004000054000027000027000000000000000000REP       Supreme Court, Place 6                                  UNDER VOTES                           PRECINCT 3                                             01 
01160030005000083000020000063000000000000000000REP       Supreme Court, Place 6                                  UNDER VOTES                           PRECINCT 4                                             01 
01160030006000048000020000028000000000000000000REP       Supreme Court, Place 6                                  UNDER VOTES                           PRECINCT 046                                           01 
01170010001000066000037000029000000000000000000REP       Presiding Judge, CT of Criminal Appeals                 Sharon Keller                         PRECINCT 1                                             01 
01170010002000027000006000021000000000000000000REP       Presiding Judge, CT of Criminal Appeals                 Sharon Keller                         PRECINCT 2                                             01 
01170010003000030000017000013000000000000000000REP       Presiding Judge, CT of Criminal Appeals                 Sharon Keller                         PRECINCT 025                                           01 
01170010004000055000023000032000000000000000000REP       Presiding Judge, CT of Criminal Appeals                 Sharon Keller                         PRECINCT 3                                             01 
01170010005000076000015000061000000000000000000REP       Presiding Judge, CT of Criminal Appeals                 Sharon Keller                         PRECINCT 4                                             01 
01170010006000044000025000019000000000000000000REP       Presiding Judge, CT of Criminal Appeals                 Sharon Keller                         PRECINCT 046                                           01 
01170020001000122000062000060000000000000000000REP       Presiding Judge, CT of Criminal Appeals                 David Bridges                         PRECINCT 1                                             01 
01170020002000034000006000028000000000000000000REP       Presiding Judge, CT of Criminal Appeals                 David Bridges                         PRECINCT 2                                             01 
01170020003000034000018000016000000000000000000REP       Presiding Judge, CT of Criminal Appeals                 David Bridges                         PRECINCT 025                                           01 
01170020004000076000027000049000000000000000000REP       Presiding Judge, CT of Criminal Appeals                 David Bridges                         PRECINCT 3                                             01 
01170020005000091000035000056000000000000000000REP       Presiding Judge, CT of Criminal Appeals                 David Bridges                         PRECINCT 4                                             01 
01170020006000044000018000026000000000000000000REP       Presiding Judge, CT of Criminal Appeals                 David Bridges                         PRECINCT 046                                           01 
01170030001000000000000000000000000000000000000REP       Presiding Judge, CT of Criminal Appeals                 OVER VOTES                            PRECINCT 1                                             01 
01170030002000000000000000000000000000000000000REP       Presiding Judge, CT of Criminal Appeals                 OVER VOTES                            PRECINCT 2                                             01 
01170030003000000000000000000000000000000000000REP       Presiding Judge, CT of Criminal Appeals                 OVER VOTES                            PRECINCT 025                                           01 
01170030004000000000000000000000000000000000000REP       Presiding Judge, CT of Criminal Appeals                 OVER VOTES                            PRECINCT 3                                             01 
01170030005000000000000000000000000000000000000REP       Presiding Judge, CT of Criminal Appeals                 OVER VOTES                            PRECINCT 4                                             01 
01170030006000000000000000000000000000000000000REP       Presiding Judge, CT of Criminal Appeals                 OVER VOTES                            PRECINCT 046                                           01 
01170040001000058000032000026000000000000000000REP       Presiding Judge, CT of Criminal Appeals                 UNDER VOTES                           PRECINCT 1                                             01 
01170040002000013000004000009000000000000000000REP       Presiding Judge, CT of Criminal Appeals                 UNDER VOTES                           PRECINCT 2                                             01 
01170040003000019000016000003000000000000000000REP       Presiding Judge, CT of Criminal Appeals                 UNDER VOTES                           PRECINCT 025                                           01 
01170040004000046000018000028000000000000000000REP       Presiding Judge, CT of Criminal Appeals                 UNDER VOTES                           PRECINCT 3                                             01 
01170040005000063000020000043000000000000000000REP       Presiding Judge, CT of Criminal Appeals                 UNDER VOTES                           PRECINCT 4                                             01 
01170040006000047000018000029000000000000000000REP       Presiding Judge, CT of Criminal Appeals                 UNDER VOTES                           PRECINCT 046                                           01 
01180010001000171000093000078000000000000000000REP       Judge, Court of Criminal Appeals, Pl 7                  Barbara Parker Hervey                 PRECINCT 1                                             01 
01180010002000063000012000051000000000000000000REP       Judge, Court of Criminal Appeals, Pl 7                  Barbara Parker Hervey                 PRECINCT 2                                             01 
01180010003000064000038000026000000000000000000REP       Judge, Court of Criminal Appeals, Pl 7                  Barbara Parker Hervey                 PRECINCT 025                                           01 
01180010004000118000040000078000000000000000000REP       Judge, Court of Criminal Appeals, Pl 7                  Barbara Parker Hervey                 PRECINCT 3                                             01 
01180010005000143000048000095000000000000000000REP       Judge, Court of Criminal Appeals, Pl 7                  Barbara Parker Hervey                 PRECINCT 4                                             01 
01180010006000082000039000043000000000000000000REP       Judge, Court of Criminal Appeals, Pl 7                  Barbara Parker Hervey                 PRECINCT 046                                           01 
01180020001000000000000000000000000000000000000REP       Judge, Court of Criminal Appeals, Pl 7                  OVER VOTES                            PRECINCT 1                                             01 
01180020002000000000000000000000000000000000000REP       Judge, Court of Criminal Appeals, Pl 7                  OVER VOTES                            PRECINCT 2                                             01 
01180020003000000000000000000000000000000000000REP       Judge, Court of Criminal Appeals, Pl 7                  OVER VOTES                            PRECINCT 025                                           01 
01180020004000000000000000000000000000000000000REP       Judge, Court of Criminal Appeals, Pl 7                  OVER VOTES                            PRECINCT 3                                             01 
01180020005000000000000000000000000000000000000REP       Judge, Court of Criminal Appeals, Pl 7                  OVER VOTES                            PRECINCT 4                                             01 
01180020006000000000000000000000000000000000000REP       Judge, Court of Criminal Appeals, Pl 7                  OVER VOTES                            PRECINCT 046                                           01 
01180030001000075000038000037000000000000000000REP       Judge, Court of Criminal Appeals, Pl 7                  UNDER VOTES                           PRECINCT 1                                             01 
01180030002000011000004000007000000000000000000REP       Judge, Court of Criminal Appeals, Pl 7                  UNDER VOTES                           PRECINCT 2                                             01 
01180030003000019000013000006000000000000000000REP       Judge, Court of Criminal Appeals, Pl 7                  UNDER VOTES                           PRECINCT 025                                           01 
01180030004000059000028000031000000000000000000REP       Judge, Court of Criminal Appeals, Pl 7                  UNDER VOTES                           PRECINCT 3                                             01 
01180030005000087000022000065000000000000000000REP       Judge, Court of Criminal Appeals, Pl 7                  UNDER VOTES                           PRECINCT 4                                             01 
01180030006000053000022000031000000000000000000REP       Judge, Court of Criminal Appeals, Pl 7                  UNDER VOTES                           PRECINCT 046                                           01 
01190010001000069000037000032000000000000000000REP       Judge, Court of Criminal Appeals, Pl 8                  Dib Waldrip                           PRECINCT 1                                             01 
01190010002000016000004000012000000000000000000REP       Judge, Court of Criminal Appeals, Pl 8                  Dib Waldrip                           PRECINCT 2                                             01 
01190010003000020000012000008000000000000000000REP       Judge, Court of Criminal Appeals, Pl 8                  Dib Waldrip                           PRECINCT 025                                           01 
01190010004000049000018000031000000000000000000REP       Judge, Court of Criminal Appeals, Pl 8                  Dib Waldrip                           PRECINCT 3                                             01 
01190010005000037000013000024000000000000000000REP       Judge, Court of Criminal Appeals, Pl 8                  Dib Waldrip                           PRECINCT 4                                             01 
01190010006000026000007000019000000000000000000REP       Judge, Court of Criminal Appeals, Pl 8                  Dib Waldrip                           PRECINCT 046                                           01 
01190020001000067000041000026000000000000000000REP       Judge, Court of Criminal Appeals, Pl 8                  Jay Brandon                           PRECINCT 1                                             01 
01190020002000028000005000023000000000000000000REP       Judge, Court of Criminal Appeals, Pl 8                  Jay Brandon                           PRECINCT 2                                             01 
01190020003000019000012000007000000000000000000REP       Judge, Court of Criminal Appeals, Pl 8                  Jay Brandon                           PRECINCT 025                                           01 
01190020004000040000013000027000000000000000000REP       Judge, Court of Criminal Appeals, Pl 8                  Jay Brandon                           PRECINCT 3                                             01 
01190020005000062000020000042000000000000000000REP       Judge, Court of Criminal Appeals, Pl 8                  Jay Brandon                           PRECINCT 4                                             01 
01190020006000032000015000017000000000000000000REP       Judge, Court of Criminal Appeals, Pl 8                  Jay Brandon                           PRECINCT 046                                           01 
01190030001000044000018000026000000000000000000REP       Judge, Court of Criminal Appeals, Pl 8                  Michelle Slaughter                    PRECINCT 1                                             01 
01190030002000019000003000016000000000000000000REP       Judge, Court of Criminal Appeals, Pl 8                  Michelle Slaughter                    PRECINCT 2                                             01 
01190030003000021000009000012000000000000000000REP       Judge, Court of Criminal Appeals, Pl 8                  Michelle Slaughter                    PRECINCT 025                                           01 
01190030004000038000018000020000000000000000000REP       Judge, Court of Criminal Appeals, Pl 8                  Michelle Slaughter                    PRECINCT 3                                             01 
01190030005000061000019000042000000000000000000REP       Judge, Court of Criminal Appeals, Pl 8                  Michelle Slaughter                    PRECINCT 4                                             01 
01190030006000031000017000014000000000000000000REP       Judge, Court of Criminal Appeals, Pl 8                  Michelle Slaughter                    PRECINCT 046                                           01 
01190040001000000000000000000000000000000000000REP       Judge, Court of Criminal Appeals, Pl 8                  OVER VOTES                            PRECINCT 1                                             01 
01190040002000000000000000000000000000000000000REP       Judge, Court of Criminal Appeals, Pl 8                  OVER VOTES                            PRECINCT 2                                             01 
01190040003000000000000000000000000000000000000REP       Judge, Court of Criminal Appeals, Pl 8                  OVER VOTES                            PRECINCT 025                                           01 
01190040004000000000000000000000000000000000000REP       Judge, Court of Criminal Appeals, Pl 8                  OVER VOTES                            PRECINCT 3                                             01 
01190040005000000000000000000000000000000000000REP       Judge, Court of Criminal Appeals, Pl 8                  OVER VOTES                            PRECINCT 4                                             01 
01190040006000000000000000000000000000000000000REP       Judge, Court of Criminal Appeals, Pl 8                  OVER VOTES                            PRECINCT 046                                           01 
01190050001000066000035000031000000000000000000REP       Judge, Court of Criminal Appeals, Pl 8                  UNDER VOTES                           PRECINCT 1                                             01 
01190050002000011000004000007000000000000000000REP       Judge, Court of Criminal Appeals, Pl 8                  UNDER VOTES                           PRECINCT 2                                             01 
01190050003000023000018000005000000000000000000REP       Judge, Court of Criminal Appeals, Pl 8                  UNDER VOTES                           PRECINCT 025                                           01 
01190050004000050000019000031000000000000000000REP       Judge, Court of Criminal Appeals, Pl 8                  UNDER VOTES                           PRECINCT 3                                             01 
01190050005000070000018000052000000000000000000REP       Judge, Court of Criminal Appeals, Pl 8                  UNDER VOTES                           PRECINCT 4                                             01 
01190050006000046000022000024000000000000000000REP       Judge, Court of Criminal Appeals, Pl 8                  UNDER VOTES                           PRECINCT 046                                           01 
01200010001000181000103000078000000000000000000REP       State Representative, District 83                       Dustin Burrows                        PRECINCT 1                                             01 
01200010002000063000013000050000000000000000000REP       State Representative, District 83                       Dustin Burrows                        PRECINCT 2                                             01 
01200010003000069000040000029000000000000000000REP       State Representative, District 83                       Dustin Burrows                        PRECINCT 025                                           01 
01200010004000128000043000085000000000000000000REP       State Representative, District 83                       Dustin Burrows                        PRECINCT 3                                             01 
01200010005000149000052000097000000000000000000REP       State Representative, District 83                       Dustin Burrows                        PRECINCT 4                                             01 
01200010006000098000046000052000000000000000000REP       State Representative, District 83                       Dustin Burrows                        PRECINCT 046                                           01 
01200020001000000000000000000000000000000000000REP       State Representative, District 83                       OVER VOTES                            PRECINCT 1                                             01 
01200020002000000000000000000000000000000000000REP       State Representative, District 83                       OVER VOTES                            PRECINCT 2                                             01 
01200020003000000000000000000000000000000000000REP       State Representative, District 83                       OVER VOTES                            PRECINCT 025                                           01 
01200020004000000000000000000000000000000000000REP       State Representative, District 83                       OVER VOTES                            PRECINCT 3                                             01 
01200020005000000000000000000000000000000000000REP       State Representative, District 83                       OVER VOTES                            PRECINCT 4                                             01 
01200020006000000000000000000000000000000000000REP       State Representative, District 83                       OVER VOTES                            PRECINCT 046                                           01 
01200030001000065000028000037000000000000000000REP       State Representative, District 83                       UNDER VOTES                           PRECINCT 1                                             01 
01200030002000011000003000008000000000000000000REP       State Representative, District 83                       UNDER VOTES                           PRECINCT 2                                             01 
01200030003000014000011000003000000000000000000REP       State Representative, District 83                       UNDER VOTES                           PRECINCT 025                                           01 
01200030004000049000025000024000000000000000000REP       State Representative, District 83                       UNDER VOTES                           PRECINCT 3                                             01 
01200030005000081000018000063000000000000000000REP       State Representative, District 83                       UNDER VOTES                           PRECINCT 4                                             01 
01200030006000037000015000022000000000000000000REP       State Representative, District 83                       UNDER VOTES                           PRECINCT 046                                           01 
01210010001000178000098000080000000000000000000REP       Chief Justice, 11th Court of Appeals                    John Bailey                           PRECINCT 1                                             01 
01210010002000063000011000052000000000000000000REP       Chief Justice, 11th Court of Appeals                    John Bailey                           PRECINCT 2                                             01 
01210010003000066000038000028000000000000000000REP       Chief Justice, 11th Court of Appeals                    John Bailey                           PRECINCT 025                                           01 
01210010004000125000043000082000000000000000000REP       Chief Justice, 11th Court of Appeals                    John Bailey                           PRECINCT 3                                             01 
01210010005000151000049000102000000000000000000REP       Chief Justice, 11th Court of Appeals                    John Bailey                           PRECINCT 4                                             01 
01210010006000085000041000044000000000000000000REP       Chief Justice, 11th Court of Appeals                    John Bailey                           PRECINCT 046                                           01 
01210020001000000000000000000000000000000000000REP       Chief Justice, 11th Court of Appeals                    OVER VOTES                            PRECINCT 1                                             01 
01210020002000000000000000000000000000000000000REP       Chief Justice, 11th Court of Appeals                    OVER VOTES                            PRECINCT 2                                             01 
01210020003000000000000000000000000000000000000REP       Chief Justice, 11th Court of Appeals                    OVER VOTES                            PRECINCT 025                                           01 
01210020004000000000000000000000000000000000000REP       Chief Justice, 11th Court of Appeals                    OVER VOTES                            PRECINCT 3                                             01 
01210020005000000000000000000000000000000000000REP       Chief Justice, 11th Court of Appeals                    OVER VOTES                            PRECINCT 4                                             01 
01210020006000000000000000000000000000000000000REP       Chief Justice, 11th Court of Appeals                    OVER VOTES                            PRECINCT 046                                           01 
01210030001000068000033000035000000000000000000REP       Chief Justice, 11th Court of Appeals                    UNDER VOTES                           PRECINCT 1                                             01 
01210030002000011000005000006000000000000000000REP       Chief Justice, 11th Court of Appeals                    UNDER VOTES                           PRECINCT 2                                             01 
01210030003000017000013000004000000000000000000REP       Chief Justice, 11th Court of Appeals                    UNDER VOTES                           PRECINCT 025                                           01 
01210030004000052000025000027000000000000000000REP       Chief Justice, 11th Court of Appeals                    UNDER VOTES                           PRECINCT 3                                             01 
01210030005000079000021000058000000000000000000REP       Chief Justice, 11th Court of Appeals                    UNDER VOTES                           PRECINCT 4                                             01 
01210030006000050000020000030000000000000000000REP       Chief Justice, 11th Court of Appeals                    UNDER VOTES                           PRECINCT 046                                           01 
01220010001000043000019000024000000000000000000REP       County Judge                                            George R. Tyson                       PRECINCT 1                                             01 
01220010002000009000003000006000000000000000000REP       County Judge                                            George R. Tyson                       PRECINCT 2                                             01 
01220010003000019000015000004000000000000000000REP       County Judge                                            George R. Tyson                       PRECINCT 025                                           01 
01220010004000039000016000023000000000000000000REP       County Judge                                            George R. Tyson                       PRECINCT 3                                             01 
01220010005000053000014000039000000000000000000REP       County Judge                                            George R. Tyson                       PRECINCT 4                                             01 
01220010006000011000006000005000000000000000000REP       County Judge                                            George R. Tyson                       PRECINCT 046                                           01 
01220020001000203000112000091000000000000000000REP       County Judge                                            Mark Merrell                          PRECINCT 1                                             01 
01220020002000062000013000049000000000000000000REP       County Judge                                            Mark Merrell                          PRECINCT 2                                             01 
01220020003000063000035000028000000000000000000REP       County Judge                                            Mark Merrell                          PRECINCT 025                                           01 
01220020004000134000048000086000000000000000000REP       County Judge                                            Mark Merrell                          PRECINCT 3                                             01 
01220020005000159000051000108000000000000000000REP       County Judge                                            Mark Merrell                          PRECINCT 4                                             01 
01220020006000123000054000069000000000000000000REP       County Judge                                            Mark Merrell                          PRECINCT 046                                           01 
01220030001000000000000000000000000000000000000REP       County Judge                                            OVER VOTES                            PRECINCT 1                                             01 
01220030002000000000000000000000000000000000000REP       County Judge                                            OVER VOTES                            PRECINCT 2                                             01 
01220030003000000000000000000000000000000000000REP       County Judge                                            OVER VOTES                            PRECINCT 025                                           01 
01220030004000000000000000000000000000000000000REP       County Judge                                            OVER VOTES                            PRECINCT 3                                             01 
01220030005000000000000000000000000000000000000REP       County Judge                                            OVER VOTES                            PRECINCT 4                                             01 
01220030006000000000000000000000000000000000000REP       County Judge                                            OVER VOTES                            PRECINCT 046                                           01 
01220040001000000000000000000000000000000000000REP       County Judge                                            UNDER VOTES                           PRECINCT 1                                             01 
01220040002000003000000000003000000000000000000REP       County Judge                                            UNDER VOTES                           PRECINCT 2                                             01 
01220040003000001000001000000000000000000000000REP       County Judge                                            UNDER VOTES                           PRECINCT 025                                           01 
01220040004000004000004000000000000000000000000REP       County Judge                                            UNDER VOTES                           PRECINCT 3                                             01 
01220040005000018000005000013000000000000000000REP       County Judge                                            UNDER VOTES                           PRECINCT 4                                             01 
01220040006000001000001000000000000000000000000REP       County Judge                                            UNDER VOTES                           PRECINCT 046                                           01 
01230010001000207000114000093000000000000000000REP       District Clerk                                          Belinda Blassingame                   PRECINCT 1                                             01 
01230010002000064000012000052000000000000000000REP       District Clerk                                          Belinda Blassingame                   PRECINCT 2                                             01 
01230010003000076000045000031000000000000000000REP       District Clerk                                          Belinda Blassingame                   PRECINCT 025                                           01 
01230010004000146000051000095000000000000000000REP       District Clerk                                          Belinda Blassingame                   PRECINCT 3                                             01 
01230010005000178000061000117000000000000000000REP       District Clerk                                          Belinda Blassingame                   PRECINCT 4                                             01 
01230010006000112000052000060000000000000000000REP       District Clerk                                          Belinda Blassingame                   PRECINCT 046                                           01 
01230020001000000000000000000000000000000000000REP       District Clerk                                          OVER VOTES                            PRECINCT 1                                             01 
01230020002000000000000000000000000000000000000REP       District Clerk                                          OVER VOTES                            PRECINCT 2                                             01 
01230020003000000000000000000000000000000000000REP       District Clerk                                          OVER VOTES                            PRECINCT 025                                           01 
01230020004000000000000000000000000000000000000REP       District Clerk                                          OVER VOTES                            PRECINCT 3                                             01 
01230020005000000000000000000000000000000000000REP       District Clerk                                          OVER VOTES                            PRECINCT 4                                             01 
01230020006000000000000000000000000000000000000REP       District Clerk                                          OVER VOTES                            PRECINCT 046                                           01 
01230030001000039000017000022000000000000000000REP       District Clerk                                          UNDER VOTES                           PRECINCT 1                                             01 
01230030002000010000004000006000000000000000000REP       District Clerk                                          UNDER VOTES                           PRECINCT 2                                             01 
01230030003000007000006000001000000000000000000REP       District Clerk                                          UNDER VOTES                           PRECINCT 025                                           01 
01230030004000031000017000014000000000000000000REP       District Clerk                                          UNDER VOTES                           PRECINCT 3                                             01 
01230030005000052000009000043000000000000000000REP       District Clerk                                          UNDER VOTES                           PRECINCT 4                                             01 
