01010010001000000          REGISTERED VOTERS - TOTAL                               REGISTERED VOTERS - TOTAL             PCT 2                                                  00 
01010010002000000          REGISTERED VOTERS - TOTAL                               REGISTERED VOTERS - TOTAL             PCT 3                                                  00 
01010010003000000          REGISTERED VOTERS - TOTAL                               REGISTERED VOTERS - TOTAL             PCT 4                                                  00 
01010010004000000          REGISTERED VOTERS - TOTAL                               REGISTERED VOTERS - TOTAL             PCT 5                                                  00 
01010010005000000          REGISTERED VOTERS - TOTAL                               REGISTERED VOTERS - TOTAL             PCT 6                                                  00 
01010010006000000          REGISTERED VOTERS - TOTAL                               REGISTERED VOTERS - TOTAL             PCT 7                                                  00 
01010010007000000          REGISTERED VOTERS - TOTAL                               REGISTERED VOTERS - TOTAL             PCT 8                                                  00 
01010010008000000          REGISTERED VOTERS - TOTAL                               REGISTERED VOTERS - TOTAL             PCT 9                                                  00 
01010010009000000          REGISTERED VOTERS - TOTAL                               REGISTERED VOTERS - TOTAL             PCT 10                                                 00 
01010010010000000          REGISTERED VOTERS - TOTAL                               REGISTERED VOTERS - TOTAL             PCT 11                                                 00 
01010010011000000          REGISTERED VOTERS - TOTAL                               REGISTERED VOTERS - TOTAL             PCT 12                                                 00 
01010010012000000          REGISTERED VOTERS - TOTAL                               REGISTERED VOTERS - TOTAL             PCT 13                                                 00 
01010010013000000          REGISTERED VOTERS - TOTAL                               REGISTERED VOTERS - TOTAL             PCT 14                                                 00 
01010010014000000          REGISTERED VOTERS - TOTAL                               REGISTERED VOTERS - TOTAL             PCT 15                                                 00 
01010010015000000          REGISTERED VOTERS - TOTAL                               REGISTERED VOTERS - TOTAL             PCT 16                                                 00 
01020010001000518          BALLOTS CAST - TOTAL                                    BALLOTS CAST - TOTAL                  PCT 2                                                  00 
01020010002000269          BALLOTS CAST - TOTAL                                    BALLOTS CAST - TOTAL                  PCT 3                                                  00 
01020010003000083          BALLOTS CAST - TOTAL                                    BALLOTS CAST - TOTAL                  PCT 4                                                  00 
01020010004000203          BALLOTS CAST - TOTAL                                    BALLOTS CAST - TOTAL                  PCT 5                                                  00 
01020010005000197          BALLOTS CAST - TOTAL                                    BALLOTS CAST - TOTAL                  PCT 6                                                  00 
01020010006000323          BALLOTS CAST - TOTAL                                    BALLOTS CAST - TOTAL                  PCT 7                                                  00 
01020010007000157          BALLOTS CAST - TOTAL                                    BALLOTS CAST - TOTAL                  PCT 8                                                  00 
01020010008000285          BALLOTS CAST - TOTAL                                    BALLOTS CAST - TOTAL                  PCT 9                                                  00 
01020010009000265          BALLOTS CAST - TOTAL                                    BALLOTS CAST - TOTAL                  PCT 10                                                 00 
01020010010000294          BALLOTS CAST - TOTAL                                    BALLOTS CAST - TOTAL                  PCT 11                                                 00 
01020010011000041          BALLOTS CAST - TOTAL                                    BALLOTS CAST - TOTAL                  PCT 12                                                 00 
01020010012000229          BALLOTS CAST - TOTAL                                    BALLOTS CAST - TOTAL                  PCT 13                                                 00 
01020010013000080          BALLOTS CAST - TOTAL                                    BALLOTS CAST - TOTAL                  PCT 14                                                 00 
01020010014000115          BALLOTS CAST - TOTAL                                    BALLOTS CAST - TOTAL                  PCT 15                                                 00 
01020010015000059          BALLOTS CAST - TOTAL                                    BALLOTS CAST - TOTAL                  PCT 16                                                 00 
01030010001000473REP       BALLOTS CAST - REPUBLICAN PARTY                         BALLOTS CAST - REPUBLICAN PARTY       PCT 2                                                  00 
01030010002000252REP       BALLOTS CAST - REPUBLICAN PARTY                         BALLOTS CAST - REPUBLICAN PARTY       PCT 3                                                  00 
01030010003000078REP       BALLOTS CAST - REPUBLICAN PARTY                         BALLOTS CAST - REPUBLICAN PARTY       PCT 4                                                  00 
01030010004000195REP       BALLOTS CAST - REPUBLICAN PARTY                         BALLOTS CAST - REPUBLICAN PARTY       PCT 5                                                  00 
01030010005000182REP       BALLOTS CAST - REPUBLICAN PARTY                         BALLOTS CAST - REPUBLICAN PARTY       PCT 6                                                  00 
01030010006000316REP       BALLOTS CAST - REPUBLICAN PARTY                         BALLOTS CAST - REPUBLICAN PARTY       PCT 7                                                  00 
01030010007000147REP       BALLOTS CAST - REPUBLICAN PARTY                         BALLOTS CAST - REPUBLICAN PARTY       PCT 8                                                  00 
01030010008000262REP       BALLOTS CAST - REPUBLICAN PARTY                         BALLOTS CAST - REPUBLICAN PARTY       PCT 9                                                  00 
01030010009000248REP       BALLOTS CAST - REPUBLICAN PARTY                         BALLOTS CAST - REPUBLICAN PARTY       PCT 10                                                 00 
01030010010000280REP       BALLOTS CAST - REPUBLICAN PARTY                         BALLOTS CAST - REPUBLICAN PARTY       PCT 11                                                 00 
01030010011000038REP       BALLOTS CAST - REPUBLICAN PARTY                         BALLOTS CAST - REPUBLICAN PARTY       PCT 12                                                 00 
01030010012000218REP       BALLOTS CAST - REPUBLICAN PARTY                         BALLOTS CAST - REPUBLICAN PARTY       PCT 13                                                 00 
01030010013000079REP       BALLOTS CAST - REPUBLICAN PARTY                         BALLOTS CAST - REPUBLICAN PARTY       PCT 14                                                 00 
01030010014000111REP       BALLOTS CAST - REPUBLICAN PARTY                         BALLOTS CAST - REPUBLICAN PARTY       PCT 15                                                 00 
01030010015000056REP       BALLOTS CAST - REPUBLICAN PARTY                         BALLOTS CAST - REPUBLICAN PARTY       PCT 16                                                 00 
01040010001000045DEM       BALLOTS CAST - DEMOCRATIC PARTY                         BALLOTS CAST - DEMOCRATIC PARTY       PCT 2                                                  00 
01040010002000017DEM       BALLOTS CAST - DEMOCRATIC PARTY                         BALLOTS CAST - DEMOCRATIC PARTY       PCT 3                                                  00 
01040010003000005DEM       BALLOTS CAST - DEMOCRATIC PARTY                         BALLOTS CAST - DEMOCRATIC PARTY       PCT 4                                                  00 
01040010004000008DEM       BALLOTS CAST - DEMOCRATIC PARTY                         BALLOTS CAST - DEMOCRATIC PARTY       PCT 5                                                  00 
01040010005000015DEM       BALLOTS CAST - DEMOCRATIC PARTY                         BALLOTS CAST - DEMOCRATIC PARTY       PCT 6                                                  00 
01040010006000007DEM       BALLOTS CAST - DEMOCRATIC PARTY                         BALLOTS CAST - DEMOCRATIC PARTY       PCT 7                                                  00 
01040010007000010DEM       BALLOTS CAST - DEMOCRATIC PARTY                         BALLOTS CAST - DEMOCRATIC PARTY       PCT 8                                                  00 
01040010008000023DEM       BALLOTS CAST - DEMOCRATIC PARTY                         BALLOTS CAST - DEMOCRATIC PARTY       PCT 9                                                  00 
01040010009000017DEM       BALLOTS CAST - DEMOCRATIC PARTY                         BALLOTS CAST - DEMOCRATIC PARTY       PCT 10                                                 00 
01040010010000014DEM       BALLOTS CAST - DEMOCRATIC PARTY                         BALLOTS CAST - DEMOCRATIC PARTY       PCT 11                                                 00 
01040010011000003DEM       BALLOTS CAST - DEMOCRATIC PARTY                         BALLOTS CAST - DEMOCRATIC PARTY       PCT 12                                                 00 
01040010012000011DEM       BALLOTS CAST - DEMOCRATIC PARTY                         BALLOTS CAST - DEMOCRATIC PARTY       PCT 13                                                 00 
01040010013000001DEM       BALLOTS CAST - DEMOCRATIC PARTY                         BALLOTS CAST - DEMOCRATIC PARTY       PCT 14                                                 00 
01040010014000004DEM       BALLOTS CAST - DEMOCRATIC PARTY                         BALLOTS CAST - DEMOCRATIC PARTY       PCT 15                                                 00 
01040010015000003DEM       BALLOTS CAST - DEMOCRATIC PARTY                         BALLOTS CAST - DEMOCRATIC PARTY       PCT 16                                                 00 
01050010001000020REP       US Senator                                              Mary Miller                           PCT 2                                                  01 
01050010002000012REP       US Senator                                              Mary Miller                           PCT 3                                                  01 
01050010003000004REP       US Senator                                              Mary Miller                           PCT 4                                                  01 
01050010004000010REP       US Senator                                              Mary Miller                           PCT 5                                                  01 
01050010005000007REP       US Senator                                              Mary Miller                           PCT 6                                                  01 
01050010006000011REP       US Senator                                              Mary Miller                           PCT 7                                                  01 
01050010007000007REP       US Senator                                              Mary Miller                           PCT 8                                                  01 
01050010008000014REP       US Senator                                              Mary Miller                           PCT 9                                                  01 
01050010009000020REP       US Senator                                              Mary Miller                           PCT 10                                                 01 
01050010010000024REP       US Senator                                              Mary Miller                           PCT 11                                                 01 
01050010011000005REP       US Senator                                              Mary Miller                           PCT 12                                                 01 
01050010012000006REP       US Senator                                              Mary Miller                           PCT 13                                                 01 
01050010013000004REP       US Senator                                              Mary Miller                           PCT 14                                                 01 
01050010014000013REP       US Senator                                              Mary Miller                           PCT 15                                                 01 
01050010015000007REP       US Senator                                              Mary Miller                           PCT 16                                                 01 
01050020001000005REP       US Senator                                              Geraldine Sam                         PCT 2                                                  01 
01050020002000002REP       US Senator                                              Geraldine Sam                         PCT 3                                                  01 
01050020003000000REP       US Senator                                              Geraldine Sam                         PCT 4                                                  01 
01050020004000003REP       US Senator                                              Geraldine Sam                         PCT 5                                                  01 
01050020005000004REP       US Senator                                              Geraldine Sam                         PCT 6                                                  01 
01050020006000002REP       US Senator                                              Geraldine Sam                         PCT 7                                                  01 
01050020007000001REP       US Senator                                              Geraldine Sam                         PCT 8                                                  01 
01050020008000004REP       US Senator                                              Geraldine Sam                         PCT 9                                                  01 
01050020009000004REP       US Senator                                              Geraldine Sam                         PCT 10                                                 01 
01050020010000002REP       US Senator                                              Geraldine Sam                         PCT 11                                                 01 
01050020011000000REP       US Senator                                              Geraldine Sam                         PCT 12                                                 01 
01050020012000001REP       US Senator                                              Geraldine Sam                         PCT 13                                                 01 
01050020013000001REP       US Senator                                              Geraldine Sam                         PCT 14                                                 01 
01050020014000001REP       US Senator                                              Geraldine Sam                         PCT 15                                                 01 
01050020015000000REP       US Senator                                              Geraldine Sam                         PCT 16                                                 01 
01050030001000012REP       US Senator                                              Stefano de Stefano                    PCT 2                                                  01 
01050030002000003REP       US Senator                                              Stefano de Stefano                    PCT 3                                                  01 
01050030003000001REP       US Senator                                              Stefano de Stefano                    PCT 4                                                  01 
01050030004000002REP       US Senator                                              Stefano de Stefano                    PCT 5                                                  01 
01050030005000003REP       US Senator                                              Stefano de Stefano                    PCT 6                                                  01 
01050030006000007REP       US Senator                                              Stefano de Stefano                    PCT 7                                                  01 
01050030007000001REP       US Senator                                              Stefano de Stefano                    PCT 8                                                  01 
01050030008000002REP       US Senator                                              Stefano de Stefano                    PCT 9                                                  01 
01050030009000003REP       US Senator                                              Stefano de Stefano                    PCT 10                                                 01 
01050030010000007REP       US Senator                                              Stefano de Stefano                    PCT 11                                                 01 
01050030011000000REP       US Senator                                              Stefano de Stefano                    PCT 12                                                 01 
01050030012000004REP       US Senator                                              Stefano de Stefano                    PCT 13                                                 01 
01050030013000000REP       US Senator                                              Stefano de Stefano                    PCT 14                                                 01 
01050030014000001REP       US Senator                                              Stefano de Stefano                    PCT 15                                                 01 
01050030015000000REP       US Senator                                              Stefano de Stefano                    PCT 16                                                 01 
01050040001000403REP       US Senator                                              Ted Cruz                              PCT 2                                                  01 
01050040002000210REP       US Senator                                              Ted Cruz                              PCT 3                                                  01 
01050040003000068REP       US Senator                                              Ted Cruz                              PCT 4                                                  01 
01050040004000162REP       US Senator                                              Ted Cruz                              PCT 5                                                  01 
01050040005000162REP       US Senator                                              Ted Cruz                              PCT 6                                                  01 
01050040006000261REP       US Senator                                              Ted Cruz                              PCT 7                                                  01 
01050040007000125REP       US Senator                                              Ted Cruz                              PCT 8                                                  01 
01050040008000220REP       US Senator                                              Ted Cruz                              PCT 9                                                  01 
01050040009000194REP       US Senator                                              Ted Cruz                              PCT 10                                                 01 
01050040010000212REP       US Senator                                              Ted Cruz                              PCT 11                                                 01 
01050040011000028REP       US Senator                                              Ted Cruz                              PCT 12                                                 01 
01050040012000194REP       US Senator                                              Ted Cruz                              PCT 13                                                 01 
01050040013000070REP       US Senator                                              Ted Cruz                              PCT 14                                                 01 
01050040014000084REP       US Senator                                              Ted Cruz                              PCT 15                                                 01 
01050040015000044REP       US Senator                                              Ted Cruz                              PCT 16                                                 01 
01050050001000012REP       US Senator                                              Bruce Jacobson, Jr.                   PCT 2                                                  01 
01050050002000006REP       US Senator                                              Bruce Jacobson, Jr.                   PCT 3                                                  01 
01050050003000005REP       US Senator                                              Bruce Jacobson, Jr.                   PCT 4                                                  01 
01050050004000005REP       US Senator                                              Bruce Jacobson, Jr.                   PCT 5                                                  01 
01050050005000001REP       US Senator                                              Bruce Jacobson, Jr.                   PCT 6                                                  01 
01050050006000010REP       US Senator                                              Bruce Jacobson, Jr.                   PCT 7                                                  01 
01050050007000004REP       US Senator                                              Bruce Jacobson, Jr.                   PCT 8                                                  01 
01050050008000009REP       US Senator                                              Bruce Jacobson, Jr.                   PCT 9                                                  01 
01050050009000011REP       US Senator                                              Bruce Jacobson, Jr.                   PCT 10                                                 01 
01050050010000011REP       US Senator                                              Bruce Jacobson, Jr.                   PCT 11                                                 01 
01050050011000002REP       US Senator                                              Bruce Jacobson, Jr.                   PCT 12                                                 01 
01050050012000008REP       US Senator                                              Bruce Jacobson, Jr.                   PCT 13                                                 01 
01050050013000002REP       US Senator                                              Bruce Jacobson, Jr.                   PCT 14                                                 01 
01050050014000004REP       US Senator                                              Bruce Jacobson, Jr.                   PCT 15                                                 01 
01050050015000002REP       US Senator                                              Bruce Jacobson, Jr.                   PCT 16                                                 01 
01050060001000000REP       US Senator                                              OVER VOTES                            PCT 2                                                  01 
01050060002000000REP       US Senator                                              OVER VOTES                            PCT 3                                                  01 
01050060003000000REP       US Senator                                              OVER VOTES                            PCT 4                                                  01 
01050060004000000REP       US Senator                                              OVER VOTES                            PCT 5                                                  01 
01050060005000000REP       US Senator                                              OVER VOTES                            PCT 6                                                  01 
01050060006000000REP       US Senator                                              OVER VOTES                            PCT 7                                                  01 
01050060007000000REP       US Senator                                              OVER VOTES                            PCT 8                                                  01 
01050060008000000REP       US Senator                                              OVER VOTES                            PCT 9                                                  01 
01050060009000000REP       US Senator                                              OVER VOTES                            PCT 10                                                 01 
01050060010000000REP       US Senator                                              OVER VOTES                            PCT 11                                                 01 
01050060011000000REP       US Senator                                              OVER VOTES                            PCT 12                                                 01 
01050060012000000REP       US Senator                                              OVER VOTES                            PCT 13                                                 01 
01050060013000000REP       US Senator                                              OVER VOTES                            PCT 14                                                 01 
01050060014000000REP       US Senator                                              OVER VOTES                            PCT 15                                                 01 
01050060015000000REP       US Senator                                              OVER VOTES                            PCT 16                                                 01 
01050070001000021REP       US Senator                                              UNDER VOTES                           PCT 2                                                  01 
01050070002000019REP       US Senator                                              UNDER VOTES                           PCT 3                                                  01 
01050070003000000REP       US Senator                                              UNDER VOTES                           PCT 4                                                  01 
01050070004000013REP       US Senator                                              UNDER VOTES                           PCT 5                                                  01 
01050070005000005REP       US Senator                                              UNDER VOTES                           PCT 6                                                  01 
01050070006000025REP       US Senator                                              UNDER VOTES                           PCT 7                                                  01 
01050070007000009REP       US Senator                                              UNDER VOTES                           PCT 8                                                  01 
01050070008000013REP       US Senator                                              UNDER VOTES                           PCT 9                                                  01 
01050070009000016REP       US Senator                                              UNDER VOTES                           PCT 10                                                 01 
01050070010000024REP       US Senator                                              UNDER VOTES                           PCT 11                                                 01 
01050070011000003REP       US Senator                                              UNDER VOTES                           PCT 12                                                 01 
01050070012000005REP       US Senator                                              UNDER VOTES                           PCT 13                                                 01 
01050070013000002REP       US Senator                                              UNDER VOTES                           PCT 14                                                 01 
01050070014000008REP       US Senator                                              UNDER VOTES                           PCT 15                                                 01 
01050070015000003REP       US Senator                                              UNDER VOTES                           PCT 16                                                 01 
01060010001000404REP       US Representative, District 13                          Mac Thornberry                        PCT 2                                                  01 
01060010002000215REP       US Representative, District 13                          Mac Thornberry                        PCT 3                                                  01 
01060010003000072REP       US Representative, District 13                          Mac Thornberry                        PCT 4                                                  01 
01060010004000151REP       US Representative, District 13                          Mac Thornberry                        PCT 5                                                  01 
01060010005000160REP       US Representative, District 13                          Mac Thornberry                        PCT 6                                                  01 
01060010006000244REP       US Representative, District 13                          Mac Thornberry                        PCT 7                                                  01 
01060010007000122REP       US Representative, District 13                          Mac Thornberry                        PCT 8                                                  01 
01060010008000212REP       US Representative, District 13                          Mac Thornberry                        PCT 9                                                  01 
01060010009000195REP       US Representative, District 13                          Mac Thornberry                        PCT 10                                                 01 
01060010010000228REP       US Representative, District 13                          Mac Thornberry                        PCT 11                                                 01 
01060010011000030REP       US Representative, District 13                          Mac Thornberry                        PCT 12                                                 01 
01060010012000184REP       US Representative, District 13                          Mac Thornberry                        PCT 13                                                 01 
01060010013000071REP       US Representative, District 13                          Mac Thornberry                        PCT 14                                                 01 
01060010014000091REP       US Representative, District 13                          Mac Thornberry                        PCT 15                                                 01 
01060010015000051REP       US Representative, District 13                          Mac Thornberry                        PCT 16                                                 01 
01060020001000000REP       US Representative, District 13                          OVER VOTES                            PCT 2                                                  01 
01060020002000000REP       US Representative, District 13                          OVER VOTES                            PCT 3                                                  01 
01060020003000000REP       US Representative, District 13                          OVER VOTES                            PCT 4                                                  01 
01060020004000000REP       US Representative, District 13                          OVER VOTES                            PCT 5                                                  01 
01060020005000000REP       US Representative, District 13                          OVER VOTES                            PCT 6                                                  01 
01060020006000000REP       US Representative, District 13                          OVER VOTES                            PCT 7                                                  01 
01060020007000000REP       US Representative, District 13                          OVER VOTES                            PCT 8                                                  01 
01060020008000000REP       US Representative, District 13                          OVER VOTES                            PCT 9                                                  01 
01060020009000000REP       US Representative, District 13                          OVER VOTES                            PCT 10                                                 01 
01060020010000000REP       US Representative, District 13                          OVER VOTES                            PCT 11                                                 01 
01060020011000000REP       US Representative, District 13                          OVER VOTES                            PCT 12                                                 01 
01060020012000000REP       US Representative, District 13                          OVER VOTES                            PCT 13                                                 01 
01060020013000000REP       US Representative, District 13                          OVER VOTES                            PCT 14                                                 01 
01060020014000000REP       US Representative, District 13                          OVER VOTES                            PCT 15                                                 01 
01060020015000000REP       US Representative, District 13                          OVER VOTES                            PCT 16                                                 01 
01060030001000069REP       US Representative, District 13                          UNDER VOTES                           PCT 2                                                  01 
01060030002000037REP       US Representative, District 13                          UNDER VOTES                           PCT 3                                                  01 
01060030003000006REP       US Representative, District 13                          UNDER VOTES                           PCT 4                                                  01 
01060030004000044REP       US Representative, District 13                          UNDER VOTES                           PCT 5                                                  01 
01060030005000022REP       US Representative, District 13                          UNDER VOTES                           PCT 6                                                  01 
01060030006000072REP       US Representative, District 13                          UNDER VOTES                           PCT 7                                                  01 
01060030007000025REP       US Representative, District 13                          UNDER VOTES                           PCT 8                                                  01 
01060030008000050REP       US Representative, District 13                          UNDER VOTES                           PCT 9                                                  01 
01060030009000053REP       US Representative, District 13                          UNDER VOTES                           PCT 10                                                 01 
01060030010000052REP       US Representative, District 13                          UNDER VOTES                           PCT 11                                                 01 
01060030011000008REP       US Representative, District 13                          UNDER VOTES                           PCT 12                                                 01 
01060030012000034REP       US Representative, District 13                          UNDER VOTES                           PCT 13                                                 01 
01060030013000008REP       US Representative, District 13                          UNDER VOTES                           PCT 14                                                 01 
01060030014000020REP       US Representative, District 13                          UNDER VOTES                           PCT 15                                                 01 
01060030015000005REP       US Representative, District 13                          UNDER VOTES                           PCT 16                                                 01 
01070010001000428REP       Governor                                                Greg Abbott                           PCT 2                                                  01 
01070010002000230REP       Governor                                                Greg Abbott                           PCT 3                                                  01 
01070010003000071REP       Governor                                                Greg Abbott                           PCT 4                                                  01 
01070010004000176REP       Governor                                                Greg Abbott                           PCT 5                                                  01 
01070010005000169REP       Governor                                                Greg Abbott                           PCT 6                                                  01 
01070010006000277REP       Governor                                                Greg Abbott                           PCT 7                                                  01 
01070010007000135REP       Governor                                                Greg Abbott                           PCT 8                                                  01 
01070010008000231REP       Governor                                                Greg Abbott                           PCT 9                                                  01 
01070010009000198REP       Governor                                                Greg Abbott                           PCT 10                                                 01 
01070010010000234REP       Governor                                                Greg Abbott                           PCT 11                                                 01 
01070010011000034REP       Governor                                                Greg Abbott                           PCT 12                                                 01 
01070010012000200REP       Governor                                                Greg Abbott                           PCT 13                                                 01 
01070010013000069REP       Governor                                                Greg Abbott                           PCT 14                                                 01 
01070010014000094REP       Governor                                                Greg Abbott                           PCT 15                                                 01 
01070010015000050REP       Governor                                                Greg Abbott                           PCT 16                                                 01 
01070020001000006REP       Governor                                                SECEDE Kilgore                        PCT 2                                                  01 
01070020002000002REP       Governor                                                SECEDE Kilgore                        PCT 3                                                  01 
01070020003000001REP       Governor                                                SECEDE Kilgore                        PCT 4                                                  01 
01070020004000003REP       Governor                                                SECEDE Kilgore                        PCT 5                                                  01 
01070020005000000REP       Governor                                                SECEDE Kilgore                        PCT 6                                                  01 
01070020006000007REP       Governor                                                SECEDE Kilgore                        PCT 7                                                  01 
01070020007000003REP       Governor                                                SECEDE Kilgore                        PCT 8                                                  01 
01070020008000005REP       Governor                                                SECEDE Kilgore                        PCT 9                                                  01 
01070020009000009REP       Governor                                                SECEDE Kilgore                        PCT 10                                                 01 
01070020010000007REP       Governor                                                SECEDE Kilgore                        PCT 11                                                 01 
01070020011000001REP       Governor                                                SECEDE Kilgore                        PCT 12                                                 01 
01070020012000003REP       Governor                                                SECEDE Kilgore                        PCT 13                                                 01 
01070020013000000REP       Governor                                                SECEDE Kilgore                        PCT 14                                                 01 
01070020014000002REP       Governor                                                SECEDE Kilgore                        PCT 15                                                 01 
01070020015000000REP       Governor                                                SECEDE Kilgore                        PCT 16                                                 01 
01070030001000022REP       Governor                                                Barbara Krueger                       PCT 2                                                  01 
01070030002000007REP       Governor                                                Barbara Krueger                       PCT 3                                                  01 
01070030003000005REP       Governor                                                Barbara Krueger                       PCT 4                                                  01 
01070030004000008REP       Governor                                                Barbara Krueger                       PCT 5                                                  01 
01070030005000007REP       Governor                                                Barbara Krueger                       PCT 6                                                  01 
01070030006000016REP       Governor                                                Barbara Krueger                       PCT 7                                                  01 
01070030007000007REP       Governor                                                Barbara Krueger                       PCT 8                                                  01 
01070030008000014REP       Governor                                                Barbara Krueger                       PCT 9                                                  01 
01070030009000025REP       Governor                                                Barbara Krueger                       PCT 10                                                 01 
01070030010000024REP       Governor                                                Barbara Krueger                       PCT 11                                                 01 
01070030011000003REP       Governor                                                Barbara Krueger                       PCT 12                                                 01 
01070030012000009REP       Governor                                                Barbara Krueger                       PCT 13                                                 01 
01070030013000005REP       Governor                                                Barbara Krueger                       PCT 14                                                 01 
01070030014000012REP       Governor                                                Barbara Krueger                       PCT 15                                                 01 
01070030015000003REP       Governor                                                Barbara Krueger                       PCT 16                                                 01 
01070040001000000REP       Governor                                                OVER VOTES                            PCT 2                                                  01 
01070040002000000REP       Governor                                                OVER VOTES                            PCT 3                                                  01 
01070040003000000REP       Governor                                                OVER VOTES                            PCT 4                                                  01 
01070040004000000REP       Governor                                                OVER VOTES                            PCT 5                                                  01 
01070040005000000REP       Governor                                                OVER VOTES                            PCT 6                                                  01 
01070040006000000REP       Governor                                                OVER VOTES                            PCT 7                                                  01 
01070040007000000REP       Governor                                                OVER VOTES                            PCT 8                                                  01 
01070040008000000REP       Governor                                                OVER VOTES                            PCT 9                                                  01 
01070040009000000REP       Governor                                                OVER VOTES                            PCT 10                                                 01 
01070040010000000REP       Governor                                                OVER VOTES                            PCT 11                                                 01 
01070040011000000REP       Governor                                                OVER VOTES                            PCT 12                                                 01 
01070040012000000REP       Governor                                                OVER VOTES                            PCT 13                                                 01 
01070040013000000REP       Governor                                                OVER VOTES                            PCT 14                                                 01 
01070040014000000REP       Governor                                                OVER VOTES                            PCT 15                                                 01 
01070040015000000REP       Governor                                                OVER VOTES                            PCT 16                                                 01 
01070050001000017REP       Governor                                                UNDER VOTES                           PCT 2                                                  01 
01070050002000013REP       Governor                                                UNDER VOTES                           PCT 3                                                  01 
01070050003000001REP       Governor                                                UNDER VOTES                           PCT 4                                                  01 
01070050004000008REP       Governor                                                UNDER VOTES                           PCT 5                                                  01 
01070050005000006REP       Governor                                                UNDER VOTES                           PCT 6                                                  01 
01070050006000016REP       Governor                                                UNDER VOTES                           PCT 7                                                  01 
01070050007000002REP       Governor                                                UNDER VOTES                           PCT 8                                                  01 
01070050008000012REP       Governor                                                UNDER VOTES                           PCT 9                                                  01 
01070050009000016REP       Governor                                                UNDER VOTES                           PCT 10                                                 01 
01070050010000015REP       Governor                                                UNDER VOTES                           PCT 11                                                 01 
01070050011000000REP       Governor                                                UNDER VOTES                           PCT 12                                                 01 
01070050012000006REP       Governor                                                UNDER VOTES                           PCT 13                                                 01 
01070050013000005REP       Governor                                                UNDER VOTES                           PCT 14                                                 01 
01070050014000003REP       Governor                                                UNDER VOTES                           PCT 15                                                 01 
01070050015000003REP       Governor                                                UNDER VOTES                           PCT 16                                                 01 
01080010001000103REP       Lieutenant Governor                                     Scott Milder                          PCT 2                                                  01 
01080010002000052REP       Lieutenant Governor                                     Scott Milder                          PCT 3                                                  01 
01080010003000013REP       Lieutenant Governor                                     Scott Milder                          PCT 4                                                  01 
01080010004000039REP       Lieutenant Governor                                     Scott Milder                          PCT 5                                                  01 
01080010005000039REP       Lieutenant Governor                                     Scott Milder                          PCT 6                                                  01 
01080010006000074REP       Lieutenant Governor                                     Scott Milder                          PCT 7                                                  01 
01080010007000024REP       Lieutenant Governor                                     Scott Milder                          PCT 8                                                  01 
01080010008000054REP       Lieutenant Governor                                     Scott Milder                          PCT 9                                                  01 
01080010009000067REP       Lieutenant Governor                                     Scott Milder                          PCT 10                                                 01 
01080010010000085REP       Lieutenant Governor                                     Scott Milder                          PCT 11                                                 01 
01080010011000011REP       Lieutenant Governor                                     Scott Milder                          PCT 12                                                 01 
01080010012000058REP       Lieutenant Governor                                     Scott Milder                          PCT 13                                                 01 
01080010013000019REP       Lieutenant Governor                                     Scott Milder                          PCT 14                                                 01 
01080010014000026REP       Lieutenant Governor                                     Scott Milder                          PCT 15                                                 01 
01080010015000015REP       Lieutenant Governor                                     Scott Milder                          PCT 16                                                 01 
01080020001000347REP       Lieutenant Governor                                     Dan Patrick                           PCT 2                                                  01 
01080020002000178REP       Lieutenant Governor                                     Dan Patrick                           PCT 3                                                  01 
01080020003000061REP       Lieutenant Governor                                     Dan Patrick                           PCT 4                                                  01 
01080020004000142REP       Lieutenant Governor                                     Dan Patrick                           PCT 5                                                  01 
01080020005000132REP       Lieutenant Governor                                     Dan Patrick                           PCT 6                                                  01 
01080020006000210REP       Lieutenant Governor                                     Dan Patrick                           PCT 7                                                  01 
01080020007000111REP       Lieutenant Governor                                     Dan Patrick                           PCT 8                                                  01 
01080020008000186REP       Lieutenant Governor                                     Dan Patrick                           PCT 9                                                  01 
01080020009000151REP       Lieutenant Governor                                     Dan Patrick                           PCT 10                                                 01 
01080020010000166REP       Lieutenant Governor                                     Dan Patrick                           PCT 11                                                 01 
01080020011000021REP       Lieutenant Governor                                     Dan Patrick                           PCT 12                                                 01 
01080020012000150REP       Lieutenant Governor                                     Dan Patrick                           PCT 13                                                 01 
01080020013000053REP       Lieutenant Governor                                     Dan Patrick                           PCT 14                                                 01 
01080020014000074REP       Lieutenant Governor                                     Dan Patrick                           PCT 15                                                 01 
01080020015000038REP       Lieutenant Governor                                     Dan Patrick                           PCT 16                                                 01 
01080030001000000REP       Lieutenant Governor                                     OVER VOTES                            PCT 2                                                  01 
01080030002000000REP       Lieutenant Governor                                     OVER VOTES                            PCT 3                                                  01 
01080030003000000REP       Lieutenant Governor                                     OVER VOTES                            PCT 4                                                  01 
01080030004000000REP       Lieutenant Governor                                     OVER VOTES                            PCT 5                                                  01 
01080030005000000REP       Lieutenant Governor                                     OVER VOTES                            PCT 6                                                  01 
01080030006000000REP       Lieutenant Governor                                     OVER VOTES                            PCT 7                                                  01 
01080030007000000REP       Lieutenant Governor                                     OVER VOTES                            PCT 8                                                  01 
01080030008000000REP       Lieutenant Governor                                     OVER VOTES                            PCT 9                                                  01 
01080030009000000REP       Lieutenant Governor                                     OVER VOTES                            PCT 10                                                 01 
01080030010000000REP       Lieutenant Governor                                     OVER VOTES                            PCT 11                                                 01 
01080030011000000REP       Lieutenant Governor                                     OVER VOTES                            PCT 12                                                 01 
01080030012000000REP       Lieutenant Governor                                     OVER VOTES                            PCT 13                                                 01 
01080030013000000REP       Lieutenant Governor                                     OVER VOTES                            PCT 14                                                 01 
01080030014000000REP       Lieutenant Governor                                     OVER VOTES                            PCT 15                                                 01 
01080030015000000REP       Lieutenant Governor                                     OVER VOTES                            PCT 16                                                 01 
01080040001000023REP       Lieutenant Governor                                     UNDER VOTES                           PCT 2                                                  01 
01080040002000022REP       Lieutenant Governor                                     UNDER VOTES                           PCT 3                                                  01 
01080040003000004REP       Lieutenant Governor                                     UNDER VOTES                           PCT 4                                                  01 
01080040004000014REP       Lieutenant Governor                                     UNDER VOTES                           PCT 5                                                  01 
01080040005000011REP       Lieutenant Governor                                     UNDER VOTES                           PCT 6                                                  01 
01080040006000032REP       Lieutenant Governor                                     UNDER VOTES                           PCT 7                                                  01 
01080040007000012REP       Lieutenant Governor                                     UNDER VOTES                           PCT 8                                                  01 
01080040008000022REP       Lieutenant Governor                                     UNDER VOTES                           PCT 9                                                  01 
01080040009000030REP       Lieutenant Governor                                     UNDER VOTES                           PCT 10                                                 01 
01080040010000029REP       Lieutenant Governor                                     UNDER VOTES                           PCT 11                                                 01 
01080040011000006REP       Lieutenant Governor                                     UNDER VOTES                           PCT 12                                                 01 
01080040012000010REP       Lieutenant Governor                                     UNDER VOTES                           PCT 13                                                 01 
01080040013000007REP       Lieutenant Governor                                     UNDER VOTES                           PCT 14                                                 01 
01080040014000011REP       Lieutenant Governor                                     UNDER VOTES                           PCT 15                                                 01 
01080040015000003REP       Lieutenant Governor                                     UNDER VOTES                           PCT 16                                                 01 
01090010001000405REP       Attorney General                                        Ken Paxton                            PCT 2                                                  01 
01090010002000193REP       Attorney General                                        Ken Paxton                            PCT 3                                                  01 
01090010003000069REP       Attorney General                                        Ken Paxton                            PCT 4                                                  01 
01090010004000149REP       Attorney General                                        Ken Paxton                            PCT 5                                                  01 
01090010005000154REP       Attorney General                                        Ken Paxton                            PCT 6                                                  01 
01090010006000237REP       Attorney General                                        Ken Paxton                            PCT 7                                                  01 
01090010007000124REP       Attorney General                                        Ken Paxton                            PCT 8                                                  01 
01090010008000213REP       Attorney General                                        Ken Paxton                            PCT 9                                                  01 
01090010009000189REP       Attorney General                                        Ken Paxton                            PCT 10                                                 01 
01090010010000204REP       Attorney General                                        Ken Paxton                            PCT 11                                                 01 
01090010011000028REP       Attorney General                                        Ken Paxton                            PCT 12                                                 01 
01090010012000177REP       Attorney General                                        Ken Paxton                            PCT 13                                                 01 
01090010013000066REP       Attorney General                                        Ken Paxton                            PCT 14                                                 01 
01090010014000081REP       Attorney General                                        Ken Paxton                            PCT 15                                                 01 
01090010015000048REP       Attorney General                                        Ken Paxton                            PCT 16                                                 01 
01090020001000000REP       Attorney General                                        OVER VOTES                            PCT 2                                                  01 
01090020002000000REP       Attorney General                                        OVER VOTES                            PCT 3                                                  01 
01090020003000000REP       Attorney General                                        OVER VOTES                            PCT 4                                                  01 
01090020004000000REP       Attorney General                                        OVER VOTES                            PCT 5                                                  01 
01090020005000000REP       Attorney General                                        OVER VOTES                            PCT 6                                                  01 
01090020006000000REP       Attorney General                                        OVER VOTES                            PCT 7                                                  01 
01090020007000000REP       Attorney General                                        OVER VOTES                            PCT 8                                                  01 
01090020008000000REP       Attorney General                                        OVER VOTES                            PCT 9                                                  01 
01090020009000000REP       Attorney General                                        OVER VOTES                            PCT 10                                                 01 
01090020010000000REP       Attorney General                                        OVER VOTES                            PCT 11                                                 01 
01090020011000000REP       Attorney General                                        OVER VOTES                            PCT 12                                                 01 
01090020012000000REP       Attorney General                                        OVER VOTES                            PCT 13                                                 01 
01090020013000000REP       Attorney General                                        OVER VOTES                            PCT 14                                                 01 
01090020014000000REP       Attorney General                                        OVER VOTES                            PCT 15                                                 01 
01090020015000000REP       Attorney General                                        OVER VOTES                            PCT 16                                                 01 
01090030001000068REP       Attorney General                                        UNDER VOTES                           PCT 2                                                  01 
01090030002000059REP       Attorney General                                        UNDER VOTES                           PCT 3                                                  01 
01090030003000009REP       Attorney General                                        UNDER VOTES                           PCT 4                                                  01 
01090030004000046REP       Attorney General                                        UNDER VOTES                           PCT 5                                                  01 
01090030005000028REP       Attorney General                                        UNDER VOTES                           PCT 6                                                  01 
01090030006000079REP       Attorney General                                        UNDER VOTES                           PCT 7                                                  01 
01090030007000023REP       Attorney General                                        UNDER VOTES                           PCT 8                                                  01 
01090030008000049REP       Attorney General                                        UNDER VOTES                           PCT 9                                                  01 
01090030009000059REP       Attorney General                                        UNDER VOTES                           PCT 10                                                 01 
01090030010000076REP       Attorney General                                        UNDER VOTES                           PCT 11                                                 01 
01090030011000010REP       Attorney General                                        UNDER VOTES                           PCT 12                                                 01 
01090030012000041REP       Attorney General                                        UNDER VOTES                           PCT 13                                                 01 
01090030013000013REP       Attorney General                                        UNDER VOTES                           PCT 14                                                 01 
01090030014000030REP       Attorney General                                        UNDER VOTES                           PCT 15                                                 01 
01090030015000008REP       Attorney General                                        UNDER VOTES                           PCT 16                                                 01 
01100010001000370REP       Comptroller of Public Accounts                          Glenn Hegar                           PCT 2                                                  01 
01100010002000186REP       Comptroller of Public Accounts                          Glenn Hegar                           PCT 3                                                  01 
01100010003000069REP       Comptroller of Public Accounts                          Glenn Hegar                           PCT 4                                                  01 
01100010004000137REP       Comptroller of Public Accounts                          Glenn Hegar                           PCT 5                                                  01 
01100010005000141REP       Comptroller of Public Accounts                          Glenn Hegar                           PCT 6                                                  01 
01100010006000227REP       Comptroller of Public Accounts                          Glenn Hegar                           PCT 7                                                  01 
01100010007000115REP       Comptroller of Public Accounts                          Glenn Hegar                           PCT 8                                                  01 
01100010008000202REP       Comptroller of Public Accounts                          Glenn Hegar                           PCT 9                                                  01 
01100010009000183REP       Comptroller of Public Accounts                          Glenn Hegar                           PCT 10                                                 01 
01100010010000184REP       Comptroller of Public Accounts                          Glenn Hegar                           PCT 11                                                 01 
01100010011000025REP       Comptroller of Public Accounts                          Glenn Hegar                           PCT 12                                                 01 
01100010012000159REP       Comptroller of Public Accounts                          Glenn Hegar                           PCT 13                                                 01 
01100010013000060REP       Comptroller of Public Accounts                          Glenn Hegar                           PCT 14                                                 01 
01100010014000074REP       Comptroller of Public Accounts                          Glenn Hegar                           PCT 15                                                 01 
01100010015000043REP       Comptroller of Public Accounts                          Glenn Hegar                           PCT 16                                                 01 
01100020001000000REP       Comptroller of Public Accounts                          OVER VOTES                            PCT 2                                                  01 
01100020002000000REP       Comptroller of Public Accounts                          OVER VOTES                            PCT 3                                                  01 
01100020003000000REP       Comptroller of Public Accounts                          OVER VOTES                            PCT 4                                                  01 
01100020004000000REP       Comptroller of Public Accounts                          OVER VOTES                            PCT 5                                                  01 
01100020005000000REP       Comptroller of Public Accounts                          OVER VOTES                            PCT 6                                                  01 
01100020006000000REP       Comptroller of Public Accounts                          OVER VOTES                            PCT 7                                                  01 
01100020007000000REP       Comptroller of Public Accounts                          OVER VOTES                            PCT 8                                                  01 
01100020008000000REP       Comptroller of Public Accounts                          OVER VOTES                            PCT 9                                                  01 
01100020009000000REP       Comptroller of Public Accounts                          OVER VOTES                            PCT 10                                                 01 
01100020010000000REP       Comptroller of Public Accounts                          OVER VOTES                            PCT 11                                                 01 
01100020011000000REP       Comptroller of Public Accounts                          OVER VOTES                            PCT 12                                                 01 
01100020012000000REP       Comptroller of Public Accounts                          OVER VOTES                            PCT 13                                                 01 
01100020013000000REP       Comptroller of Public Accounts                          OVER VOTES                            PCT 14                                                 01 
01100020014000000REP       Comptroller of Public Accounts                          OVER VOTES                            PCT 15                                                 01 
01100020015000000REP       Comptroller of Public Accounts                          OVER VOTES                            PCT 16                                                 01 
01100030001000103REP       Comptroller of Public Accounts                          UNDER VOTES                           PCT 2                                                  01 
01100030002000066REP       Comptroller of Public Accounts                          UNDER VOTES                           PCT 3                                                  01 
01100030003000009REP       Comptroller of Public Accounts                          UNDER VOTES                           PCT 4                                                  01 
01100030004000058REP       Comptroller of Public Accounts                          UNDER VOTES                           PCT 5                                                  01 
01100030005000041REP       Comptroller of Public Accounts                          UNDER VOTES                           PCT 6                                                  01 
01100030006000089REP       Comptroller of Public Accounts                          UNDER VOTES                           PCT 7                                                  01 
01100030007000032REP       Comptroller of Public Accounts                          UNDER VOTES                           PCT 8                                                  01 
01100030008000060REP       Comptroller of Public Accounts                          UNDER VOTES                           PCT 9                                                  01 
01100030009000065REP       Comptroller of Public Accounts                          UNDER VOTES                           PCT 10                                                 01 
01100030010000096REP       Comptroller of Public Accounts                          UNDER VOTES                           PCT 11                                                 01 
01100030011000013REP       Comptroller of Public Accounts                          UNDER VOTES                           PCT 12                                                 01 
01100030012000059REP       Comptroller of Public Accounts                          UNDER VOTES                           PCT 13                                                 01 
01100030013000019REP       Comptroller of Public Accounts                          UNDER VOTES                           PCT 14                                                 01 
01100030014000037REP       Comptroller of Public Accounts                          UNDER VOTES                           PCT 15                                                 01 
01100030015000013REP       Comptroller of Public Accounts                          UNDER VOTES                           PCT 16                                                 01 
01110010001000051REP       Commissioner of the General Land Office                 Davey Edwards                         PCT 2                                                  01 
01110010002000036REP       Commissioner of the General Land Office                 Davey Edwards                         PCT 3                                                  01 
01110010003000008REP       Commissioner of the General Land Office                 Davey Edwards                         PCT 4                                                  01 
01110010004000014REP       Commissioner of the General Land Office                 Davey Edwards                         PCT 5                                                  01 
01110010005000024REP       Commissioner of the General Land Office                 Davey Edwards                         PCT 6                                                  01 
01110010006000026REP       Commissioner of the General Land Office                 Davey Edwards                         PCT 7                                                  01 
01110010007000025REP       Commissioner of the General Land Office                 Davey Edwards                         PCT 8                                                  01 
01110010008000027REP       Commissioner of the General Land Office                 Davey Edwards                         PCT 9                                                  01 
01110010009000016REP       Commissioner of the General Land Office                 Davey Edwards                         PCT 10                                                 01 
01110010010000023REP       Commissioner of the General Land Office                 Davey Edwards                         PCT 11                                                 01 
01110010011000007REP       Commissioner of the General Land Office                 Davey Edwards                         PCT 12                                                 01 
01110010012000020REP       Commissioner of the General Land Office                 Davey Edwards                         PCT 13                                                 01 
01110010013000007REP       Commissioner of the General Land Office                 Davey Edwards                         PCT 14                                                 01 
01110010014000006REP       Commissioner of the General Land Office                 Davey Edwards                         PCT 15                                                 01 
01110010015000016REP       Commissioner of the General Land Office                 Davey Edwards                         PCT 16                                                 01 
01110020001000107REP       Commissioner of the General Land Office                 Jerry Patterson                       PCT 2                                                  01 
01110020002000046REP       Commissioner of the General Land Office                 Jerry Patterson                       PCT 3                                                  01 
01110020003000017REP       Commissioner of the General Land Office                 Jerry Patterson                       PCT 4                                                  01 
01110020004000034REP       Commissioner of the General Land Office                 Jerry Patterson                       PCT 5                                                  01 
01110020005000034REP       Commissioner of the General Land Office                 Jerry Patterson                       PCT 6                                                  01 
01110020006000077REP       Commissioner of the General Land Office                 Jerry Patterson                       PCT 7                                                  01 
01110020007000032REP       Commissioner of the General Land Office                 Jerry Patterson                       PCT 8                                                  01 
01110020008000063REP       Commissioner of the General Land Office                 Jerry Patterson                       PCT 9                                                  01 
01110020009000048REP       Commissioner of the General Land Office                 Jerry Patterson                       PCT 10                                                 01 
01110020010000063REP       Commissioner of the General Land Office                 Jerry Patterson                       PCT 11                                                 01 
01110020011000003REP       Commissioner of the General Land Office                 Jerry Patterson                       PCT 12                                                 01 
01110020012000041REP       Commissioner of the General Land Office                 Jerry Patterson                       PCT 13                                                 01 
01110020013000019REP       Commissioner of the General Land Office                 Jerry Patterson                       PCT 14                                                 01 
01110020014000021REP       Commissioner of the General Land Office                 Jerry Patterson                       PCT 15                                                 01 
01110020015000010REP       Commissioner of the General Land Office                 Jerry Patterson                       PCT 16                                                 01 
01110030001000035REP       Commissioner of the General Land Office                 Rick Range                            PCT 2                                                  01 
01110030002000025REP       Commissioner of the General Land Office                 Rick Range                            PCT 3                                                  01 
01110030003000006REP       Commissioner of the General Land Office                 Rick Range                            PCT 4                                                  01 
01110030004000012REP       Commissioner of the General Land Office                 Rick Range                            PCT 5                                                  01 
01110030005000014REP       Commissioner of the General Land Office                 Rick Range                            PCT 6                                                  01 
01110030006000023REP       Commissioner of the General Land Office                 Rick Range                            PCT 7                                                  01 
01110030007000013REP       Commissioner of the General Land Office                 Rick Range                            PCT 8                                                  01 
01110030008000022REP       Commissioner of the General Land Office                 Rick Range                            PCT 9                                                  01 
01110030009000022REP       Commissioner of the General Land Office                 Rick Range                            PCT 10                                                 01 
01110030010000014REP       Commissioner of the General Land Office                 Rick Range                            PCT 11                                                 01 
01110030011000002REP       Commissioner of the General Land Office                 Rick Range                            PCT 12                                                 01 
01110030012000016REP       Commissioner of the General Land Office                 Rick Range                            PCT 13                                                 01 
01110030013000008REP       Commissioner of the General Land Office                 Rick Range                            PCT 14                                                 01 
01110030014000009REP       Commissioner of the General Land Office                 Rick Range                            PCT 15                                                 01 
01110030015000004REP       Commissioner of the General Land Office                 Rick Range                            PCT 16                                                 01 
01110040001000241REP       Commissioner of the General Land Office                 George P. Bush                        PCT 2                                                  01 
01110040002000117REP       Commissioner of the General Land Office                 George P. Bush                        PCT 3                                                  01 
01110040003000045REP       Commissioner of the General Land Office                 George P. Bush                        PCT 4                                                  01 
01110040004000102REP       Commissioner of the General Land Office                 George P. Bush                        PCT 5                                                  01 
01110040005000095REP       Commissioner of the General Land Office                 George P. Bush                        PCT 6                                                  01 
01110040006000152REP       Commissioner of the General Land Office                 George P. Bush                        PCT 7                                                  01 
01110040007000065REP       Commissioner of the General Land Office                 George P. Bush                        PCT 8                                                  01 
01110040008000115REP       Commissioner of the General Land Office                 George P. Bush                        PCT 9                                                  01 
01110040009000128REP       Commissioner of the General Land Office                 George P. Bush                        PCT 10                                                 01 
01110040010000139REP       Commissioner of the General Land Office                 George P. Bush                        PCT 11                                                 01 
01110040011000021REP       Commissioner of the General Land Office                 George P. Bush                        PCT 12                                                 01 
01110040012000126REP       Commissioner of the General Land Office                 George P. Bush                        PCT 13                                                 01 
01110040013000031REP       Commissioner of the General Land Office                 George P. Bush                        PCT 14                                                 01 
01110040014000061REP       Commissioner of the General Land Office                 George P. Bush                        PCT 15                                                 01 
01110040015000020REP       Commissioner of the General Land Office                 George P. Bush                        PCT 16                                                 01 
01110050001000000REP       Commissioner of the General Land Office                 OVER VOTES                            PCT 2                                                  01 
01110050002000000REP       Commissioner of the General Land Office                 OVER VOTES                            PCT 3                                                  01 
01110050003000000REP       Commissioner of the General Land Office                 OVER VOTES                            PCT 4                                                  01 
01110050004000000REP       Commissioner of the General Land Office                 OVER VOTES                            PCT 5                                                  01 
01110050005000000REP       Commissioner of the General Land Office                 OVER VOTES                            PCT 6                                                  01 
01110050006000000REP       Commissioner of the General Land Office                 OVER VOTES                            PCT 7                                                  01 
01110050007000000REP       Commissioner of the General Land Office                 OVER VOTES                            PCT 8                                                  01 
01110050008000000REP       Commissioner of the General Land Office                 OVER VOTES                            PCT 9                                                  01 
01110050009000000REP       Commissioner of the General Land Office                 OVER VOTES                            PCT 10                                                 01 
01110050010000000REP       Commissioner of the General Land Office                 OVER VOTES                            PCT 11                                                 01 
01110050011000000REP       Commissioner of the General Land Office                 OVER VOTES                            PCT 12                                                 01 
01110050012000000REP       Commissioner of the General Land Office                 OVER VOTES                            PCT 13                                                 01 
01110050013000000REP       Commissioner of the General Land Office                 OVER VOTES                            PCT 14                                                 01 
01110050014000000REP       Commissioner of the General Land Office                 OVER VOTES                            PCT 15                                                 01 
01110050015000000REP       Commissioner of the General Land Office                 OVER VOTES                            PCT 16                                                 01 
01110060001000039REP       Commissioner of the General Land Office                 UNDER VOTES                           PCT 2                                                  01 
01110060002000028REP       Commissioner of the General Land Office                 UNDER VOTES                           PCT 3                                                  01 
01110060003000002REP       Commissioner of the General Land Office                 UNDER VOTES                           PCT 4                                                  01 
01110060004000033REP       Commissioner of the General Land Office                 UNDER VOTES                           PCT 5                                                  01 
01110060005000015REP       Commissioner of the General Land Office                 UNDER VOTES                           PCT 6                                                  01 
01110060006000038REP       Commissioner of the General Land Office                 UNDER VOTES                           PCT 7                                                  01 
01110060007000012REP       Commissioner of the General Land Office                 UNDER VOTES                           PCT 8                                                  01 
01110060008000035REP       Commissioner of the General Land Office                 UNDER VOTES                           PCT 9                                                  01 
01110060009000034REP       Commissioner of the General Land Office                 UNDER VOTES                           PCT 10                                                 01 
01110060010000041REP       Commissioner of the General Land Office                 UNDER VOTES                           PCT 11                                                 01 
01110060011000005REP       Commissioner of the General Land Office                 UNDER VOTES                           PCT 12                                                 01 
01110060012000015REP       Commissioner of the General Land Office                 UNDER VOTES                           PCT 13                                                 01 
01110060013000014REP       Commissioner of the General Land Office                 UNDER VOTES                           PCT 14                                                 01 
01110060014000014REP       Commissioner of the General Land Office                 UNDER VOTES                           PCT 15                                                 01 
01110060015000006REP       Commissioner of the General Land Office                 UNDER VOTES                           PCT 16                                                 01 
01120010001000081REP       Commissioner of Agriculture                             Jim Hogan                             PCT 2                                                  01 
01120010002000054REP       Commissioner of Agriculture                             Jim Hogan                             PCT 3                                                  01 
01120010003000026REP       Commissioner of Agriculture                             Jim Hogan                             PCT 4                                                  01 
01120010004000040REP       Commissioner of Agriculture                             Jim Hogan                             PCT 5                                                  01 
01120010005000045REP       Commissioner of Agriculture                             Jim Hogan                             PCT 6                                                  01 
01120010006000066REP       Commissioner of Agriculture                             Jim Hogan                             PCT 7                                                  01 
01120010007000031REP       Commissioner of Agriculture                             Jim Hogan                             PCT 8                                                  01 
01120010008000061REP       Commissioner of Agriculture                             Jim Hogan                             PCT 9                                                  01 
01120010009000045REP       Commissioner of Agriculture                             Jim Hogan                             PCT 10                                                 01 
01120010010000052REP       Commissioner of Agriculture                             Jim Hogan                             PCT 11                                                 01 
01120010011000010REP       Commissioner of Agriculture                             Jim Hogan                             PCT 12                                                 01 
01120010012000038REP       Commissioner of Agriculture                             Jim Hogan                             PCT 13                                                 01 
01120010013000018REP       Commissioner of Agriculture                             Jim Hogan                             PCT 14                                                 01 
01120010014000024REP       Commissioner of Agriculture                             Jim Hogan                             PCT 15                                                 01 
01120010015000012REP       Commissioner of Agriculture                             Jim Hogan                             PCT 16                                                 01 
01120020001000079REP       Commissioner of Agriculture                             Trey Blocker                          PCT 2                                                  01 
01120020002000050REP       Commissioner of Agriculture                             Trey Blocker                          PCT 3                                                  01 
01120020003000010REP       Commissioner of Agriculture                             Trey Blocker                          PCT 4                                                  01 
01120020004000026REP       Commissioner of Agriculture                             Trey Blocker                          PCT 5                                                  01 
01120020005000029REP       Commissioner of Agriculture                             Trey Blocker                          PCT 6                                                  01 
01120020006000046REP       Commissioner of Agriculture                             Trey Blocker                          PCT 7                                                  01 
01120020007000024REP       Commissioner of Agriculture                             Trey Blocker                          PCT 8                                                  01 
01120020008000031REP       Commissioner of Agriculture                             Trey Blocker                          PCT 9                                                  01 
01120020009000045REP       Commissioner of Agriculture                             Trey Blocker                          PCT 10                                                 01 
01120020010000031REP       Commissioner of Agriculture                             Trey Blocker                          PCT 11                                                 01 
01120020011000009REP       Commissioner of Agriculture                             Trey Blocker                          PCT 12                                                 01 
01120020012000037REP       Commissioner of Agriculture                             Trey Blocker                          PCT 13                                                 01 
