01350010001000013DEM       United States Senator                                   Beto O'Rourke                         Precinct 101                                           01 
01350010002000003DEM       United States Senator                                   Beto O'Rourke                         Precinct 201                                           01 
01350010003000006DEM       United States Senator                                   Beto O'Rourke                         Precinct 202                                           01 
01350010004000000DEM       United States Senator                                   Beto O'Rourke                         Precinct 203                                           01 
01350010005000004DEM       United States Senator                                   Beto O'Rourke                         Precinct 301                                           01 
01350010006000004DEM       United States Senator                                   Beto O'Rourke                         Precinct 401                                           01 
01350010007000002DEM       United States Senator                                   Beto O'Rourke                         Precinct 402                                           01 
01350020001000006DEM       United States Senator                                   Edward Kimbrough                      Precinct 101                                           01 
01350020002000000DEM       United States Senator                                   Edward Kimbrough                      Precinct 201                                           01 
01350020003000002DEM       United States Senator                                   Edward Kimbrough                      Precinct 202                                           01 
01350020004000001DEM       United States Senator                                   Edward Kimbrough                      Precinct 203                                           01 
01350020005000003DEM       United States Senator                                   Edward Kimbrough                      Precinct 301                                           01 
01350020006000003DEM       United States Senator                                   Edward Kimbrough                      Precinct 401                                           01 
01350020007000000DEM       United States Senator                                   Edward Kimbrough                      Precinct 402                                           01 
01350030001000008DEM       United States Senator                                   Sema Hernandez                        Precinct 101                                           01 
01350030002000007DEM       United States Senator                                   Sema Hernandez                        Precinct 201                                           01 
01350030003000006DEM       United States Senator                                   Sema Hernandez                        Precinct 202                                           01 
01350030004000000DEM       United States Senator                                   Sema Hernandez                        Precinct 203                                           01 
01350030005000007DEM       United States Senator                                   Sema Hernandez                        Precinct 301                                           01 
01350030006000002DEM       United States Senator                                   Sema Hernandez                        Precinct 401                                           01 
01350030007000002DEM       United States Senator                                   Sema Hernandez                        Precinct 402                                           01 
01350040001000000DEM       United States Senator                                   OVER VOTES                            Precinct 101                                           01 
01350040002000000DEM       United States Senator                                   OVER VOTES                            Precinct 201                                           01 
01350040003000000DEM       United States Senator                                   OVER VOTES                            Precinct 202                                           01 
01350040004000000DEM       United States Senator                                   OVER VOTES                            Precinct 203                                           01 
01350040005000000DEM       United States Senator                                   OVER VOTES                            Precinct 301                                           01 
01350040006000000DEM       United States Senator                                   OVER VOTES                            Precinct 401                                           01 
01350040007000000DEM       United States Senator                                   OVER VOTES                            Precinct 402                                           01 
01350050001000001DEM       United States Senator                                   UNDER VOTES                           Precinct 101                                           01 
01350050002000000DEM       United States Senator                                   UNDER VOTES                           Precinct 201                                           01 
01350050003000002DEM       United States Senator                                   UNDER VOTES                           Precinct 202                                           01 
01350050004000000DEM       United States Senator                                   UNDER VOTES                           Precinct 203                                           01 
01350050005000001DEM       United States Senator                                   UNDER VOTES                           Precinct 301                                           01 
01350050006000003DEM       United States Senator                                   UNDER VOTES                           Precinct 401                                           01 
01350050007000000DEM       United States Senator                                   UNDER VOTES                           Precinct 402                                           01 
01360010001000024DEM       United States Rep, District 13                          Greg Sagan                            Precinct 101                                           01 
01360010002000007DEM       United States Rep, District 13                          Greg Sagan                            Precinct 201                                           01 
01360010003000011DEM       United States Rep, District 13                          Greg Sagan                            Precinct 202                                           01 
01360010004000000DEM       United States Rep, District 13                          Greg Sagan                            Precinct 203                                           01 
01360010005000013DEM       United States Rep, District 13                          Greg Sagan                            Precinct 301                                           01 
01360010006000005DEM       United States Rep, District 13                          Greg Sagan                            Precinct 401                                           01 
01360010007000004DEM       United States Rep, District 13                          Greg Sagan                            Precinct 402                                           01 
01360020001000000DEM       United States Rep, District 13                          OVER VOTES                            Precinct 101                                           01 
01360020002000000DEM       United States Rep, District 13                          OVER VOTES                            Precinct 201                                           01 
01360020003000000DEM       United States Rep, District 13                          OVER VOTES                            Precinct 202                                           01 
01360020004000000DEM       United States Rep, District 13                          OVER VOTES                            Precinct 203                                           01 
01360020005000000DEM       United States Rep, District 13                          OVER VOTES                            Precinct 301                                           01 
01360020006000000DEM       United States Rep, District 13                          OVER VOTES                            Precinct 401                                           01 
01360020007000000DEM       United States Rep, District 13                          OVER VOTES                            Precinct 402                                           01 
01360030001000004DEM       United States Rep, District 13                          UNDER VOTES                           Precinct 101                                           01 
01360030002000003DEM       United States Rep, District 13                          UNDER VOTES                           Precinct 201                                           01 
01360030003000005DEM       United States Rep, District 13                          UNDER VOTES                           Precinct 202                                           01 
01360030004000001DEM       United States Rep, District 13                          UNDER VOTES                           Precinct 203                                           01 
01360030005000002DEM       United States Rep, District 13                          UNDER VOTES                           Precinct 301                                           01 
01360030006000007DEM       United States Rep, District 13                          UNDER VOTES                           Precinct 401                                           01 
01360030007000000DEM       United States Rep, District 13                          UNDER VOTES                           Precinct 402                                           01 
01370010001000008DEM       Governor                                                Grady Yarbrough                       Precinct 101                                           01 
01370010002000001DEM       Governor                                                Grady Yarbrough                       Precinct 201                                           01 
01370010003000003DEM       Governor                                                Grady Yarbrough                       Precinct 202                                           01 
01370010004000000DEM       Governor                                                Grady Yarbrough                       Precinct 203                                           01 
01370010005000004DEM       Governor                                                Grady Yarbrough                       Precinct 301                                           01 
01370010006000001DEM       Governor                                                Grady Yarbrough                       Precinct 401                                           01 
01370010007000000DEM       Governor                                                Grady Yarbrough                       Precinct 402                                           01 
01370020001000004DEM       Governor                                                Adrian Ocegueda                       Precinct 101                                           01 
01370020002000002DEM       Governor                                                Adrian Ocegueda                       Precinct 201                                           01 
01370020003000002DEM       Governor                                                Adrian Ocegueda                       Precinct 202                                           01 
01370020004000000DEM       Governor                                                Adrian Ocegueda                       Precinct 203                                           01 
01370020005000002DEM       Governor                                                Adrian Ocegueda                       Precinct 301                                           01 
01370020006000000DEM       Governor                                                Adrian Ocegueda                       Precinct 401                                           01 
01370020007000001DEM       Governor                                                Adrian Ocegueda                       Precinct 402                                           01 
01370030001000000DEM       Governor                                                James Jolly Clark                     Precinct 101                                           01 
01370030002000000DEM       Governor                                                James Jolly Clark                     Precinct 201                                           01 
01370030003000000DEM       Governor                                                James Jolly Clark                     Precinct 202                                           01 
01370030004000000DEM       Governor                                                James Jolly Clark                     Precinct 203                                           01 
01370030005000000DEM       Governor                                                James Jolly Clark                     Precinct 301                                           01 
01370030006000001DEM       Governor                                                James Jolly Clark                     Precinct 401                                           01 
01370030007000000DEM       Governor                                                James Jolly Clark                     Precinct 402                                           01 
01370040001000002DEM       Governor                                                Tom Wakely                            Precinct 101                                           01 
01370040002000000DEM       Governor                                                Tom Wakely                            Precinct 201                                           01 
01370040003000000DEM       Governor                                                Tom Wakely                            Precinct 202                                           01 
01370040004000000DEM       Governor                                                Tom Wakely                            Precinct 203                                           01 
01370040005000001DEM       Governor                                                Tom Wakely                            Precinct 301                                           01 
01370040006000000DEM       Governor                                                Tom Wakely                            Precinct 401                                           01 
01370040007000000DEM       Governor                                                Tom Wakely                            Precinct 402                                           01 
01370050001000000DEM       Governor                                                Joe Mumbach                           Precinct 101                                           01 
01370050002000000DEM       Governor                                                Joe Mumbach                           Precinct 201                                           01 
01370050003000000DEM       Governor                                                Joe Mumbach                           Precinct 202                                           01 
01370050004000000DEM       Governor                                                Joe Mumbach                           Precinct 203                                           01 
01370050005000000DEM       Governor                                                Joe Mumbach                           Precinct 301                                           01 
01370050006000001DEM       Governor                                                Joe Mumbach                           Precinct 401                                           01 
01370050007000001DEM       Governor                                                Joe Mumbach                           Precinct 402                                           01 
01370060001000002DEM       Governor                                                Jeffrey Payne                         Precinct 101                                           01 
01370060002000002DEM       Governor                                                Jeffrey Payne                         Precinct 201                                           01 
01370060003000002DEM       Governor                                                Jeffrey Payne                         Precinct 202                                           01 
01370060004000000DEM       Governor                                                Jeffrey Payne                         Precinct 203                                           01 
01370060005000000DEM       Governor                                                Jeffrey Payne                         Precinct 301                                           01 
01370060006000001DEM       Governor                                                Jeffrey Payne                         Precinct 401                                           01 
01370060007000000DEM       Governor                                                Jeffrey Payne                         Precinct 402                                           01 
01370070001000001DEM       Governor                                                Cedric Davis, Sr.                     Precinct 101                                           01 
01370070002000001DEM       Governor                                                Cedric Davis, Sr.                     Precinct 201                                           01 
01370070003000000DEM       Governor                                                Cedric Davis, Sr.                     Precinct 202                                           01 
01370070004000000DEM       Governor                                                Cedric Davis, Sr.                     Precinct 203                                           01 
01370070005000000DEM       Governor                                                Cedric Davis, Sr.                     Precinct 301                                           01 
01370070006000001DEM       Governor                                                Cedric Davis, Sr.                     Precinct 401                                           01 
01370070007000000DEM       Governor                                                Cedric Davis, Sr.                     Precinct 402                                           01 
01370080001000002DEM       Governor                                                Andrew White                          Precinct 101                                           01 
01370080002000000DEM       Governor                                                Andrew White                          Precinct 201                                           01 
01370080003000004DEM       Governor                                                Andrew White                          Precinct 202                                           01 
01370080004000001DEM       Governor                                                Andrew White                          Precinct 203                                           01 
01370080005000001DEM       Governor                                                Andrew White                          Precinct 301                                           01 
01370080006000002DEM       Governor                                                Andrew White                          Precinct 401                                           01 
01370080007000000DEM       Governor                                                Andrew White                          Precinct 402                                           01 
01370090001000007DEM       Governor                                                Lupe Valdez                           Precinct 101                                           01 
01370090002000004DEM       Governor                                                Lupe Valdez                           Precinct 201                                           01 
01370090003000004DEM       Governor                                                Lupe Valdez                           Precinct 202                                           01 
01370090004000000DEM       Governor                                                Lupe Valdez                           Precinct 203                                           01 
01370090005000004DEM       Governor                                                Lupe Valdez                           Precinct 301                                           01 
01370090006000004DEM       Governor                                                Lupe Valdez                           Precinct 401                                           01 
01370090007000002DEM       Governor                                                Lupe Valdez                           Precinct 402                                           01 
01370100001000000DEM       Governor                                                OVER VOTES                            Precinct 101                                           01 
01370100002000000DEM       Governor                                                OVER VOTES                            Precinct 201                                           01 
01370100003000000DEM       Governor                                                OVER VOTES                            Precinct 202                                           01 
01370100004000000DEM       Governor                                                OVER VOTES                            Precinct 203                                           01 
01370100005000000DEM       Governor                                                OVER VOTES                            Precinct 301                                           01 
01370100006000000DEM       Governor                                                OVER VOTES                            Precinct 401                                           01 
01370100007000000DEM       Governor                                                OVER VOTES                            Precinct 402                                           01 
01370110001000002DEM       Governor                                                UNDER VOTES                           Precinct 101                                           01 
01370110002000000DEM       Governor                                                UNDER VOTES                           Precinct 201                                           01 
01370110003000001DEM       Governor                                                UNDER VOTES                           Precinct 202                                           01 
01370110004000000DEM       Governor                                                UNDER VOTES                           Precinct 203                                           01 
01370110005000003DEM       Governor                                                UNDER VOTES                           Precinct 301                                           01 
01370110006000001DEM       Governor                                                UNDER VOTES                           Precinct 401                                           01 
01370110007000000DEM       Governor                                                UNDER VOTES                           Precinct 402                                           01 
01380010001000015DEM       Lieutenant Governor                                     Mike Collier                          Precinct 101                                           01 
01380010002000007DEM       Lieutenant Governor                                     Mike Collier                          Precinct 201                                           01 
01380010003000009DEM       Lieutenant Governor                                     Mike Collier                          Precinct 202                                           01 
01380010004000001DEM       Lieutenant Governor                                     Mike Collier                          Precinct 203                                           01 
01380010005000006DEM       Lieutenant Governor                                     Mike Collier                          Precinct 301                                           01 
01380010006000005DEM       Lieutenant Governor                                     Mike Collier                          Precinct 401                                           01 
01380010007000002DEM       Lieutenant Governor                                     Mike Collier                          Precinct 402                                           01 
01380020001000011DEM       Lieutenant Governor                                     Michael Cooper                        Precinct 101                                           01 
01380020002000002DEM       Lieutenant Governor                                     Michael Cooper                        Precinct 201                                           01 
01380020003000004DEM       Lieutenant Governor                                     Michael Cooper                        Precinct 202                                           01 
01380020004000000DEM       Lieutenant Governor                                     Michael Cooper                        Precinct 203                                           01 
01380020005000007DEM       Lieutenant Governor                                     Michael Cooper                        Precinct 301                                           01 
01380020006000006DEM       Lieutenant Governor                                     Michael Cooper                        Precinct 401                                           01 
01380020007000002DEM       Lieutenant Governor                                     Michael Cooper                        Precinct 402                                           01 
01380030001000000DEM       Lieutenant Governor                                     OVER VOTES                            Precinct 101                                           01 
01380030002000000DEM       Lieutenant Governor                                     OVER VOTES                            Precinct 201                                           01 
01380030003000000DEM       Lieutenant Governor                                     OVER VOTES                            Precinct 202                                           01 
01380030004000000DEM       Lieutenant Governor                                     OVER VOTES                            Precinct 203                                           01 
01380030005000000DEM       Lieutenant Governor                                     OVER VOTES                            Precinct 301                                           01 
01380030006000000DEM       Lieutenant Governor                                     OVER VOTES                            Precinct 401                                           01 
01380030007000000DEM       Lieutenant Governor                                     OVER VOTES                            Precinct 402                                           01 
01380040001000002DEM       Lieutenant Governor                                     UNDER VOTES                           Precinct 101                                           01 
01380040002000001DEM       Lieutenant Governor                                     UNDER VOTES                           Precinct 201                                           01 
01380040003000003DEM       Lieutenant Governor                                     UNDER VOTES                           Precinct 202                                           01 
01380040004000000DEM       Lieutenant Governor                                     UNDER VOTES                           Precinct 203                                           01 
01380040005000002DEM       Lieutenant Governor                                     UNDER VOTES                           Precinct 301                                           01 
01380040006000001DEM       Lieutenant Governor                                     UNDER VOTES                           Precinct 401                                           01 
01380040007000000DEM       Lieutenant Governor                                     UNDER VOTES                           Precinct 402                                           01 
01390010001000023DEM       Attorney General                                        Justin Nelson                         Precinct 101                                           01 
01390010002000008DEM       Attorney General                                        Justin Nelson                         Precinct 201                                           01 
01390010003000013DEM       Attorney General                                        Justin Nelson                         Precinct 202                                           01 
01390010004000001DEM       Attorney General                                        Justin Nelson                         Precinct 203                                           01 
01390010005000012DEM       Attorney General                                        Justin Nelson                         Precinct 301                                           01 
01390010006000007DEM       Attorney General                                        Justin Nelson                         Precinct 401                                           01 
01390010007000004DEM       Attorney General                                        Justin Nelson                         Precinct 402                                           01 
01390020001000000DEM       Attorney General                                        OVER VOTES                            Precinct 101                                           01 
01390020002000000DEM       Attorney General                                        OVER VOTES                            Precinct 201                                           01 
01390020003000000DEM       Attorney General                                        OVER VOTES                            Precinct 202                                           01 
01390020004000000DEM       Attorney General                                        OVER VOTES                            Precinct 203                                           01 
01390020005000000DEM       Attorney General                                        OVER VOTES                            Precinct 301                                           01 
01390020006000000DEM       Attorney General                                        OVER VOTES                            Precinct 401                                           01 
01390020007000000DEM       Attorney General                                        OVER VOTES                            Precinct 402                                           01 
01390030001000005DEM       Attorney General                                        UNDER VOTES                           Precinct 101                                           01 
01390030002000002DEM       Attorney General                                        UNDER VOTES                           Precinct 201                                           01 
01390030003000003DEM       Attorney General                                        UNDER VOTES                           Precinct 202                                           01 
01390030004000000DEM       Attorney General                                        UNDER VOTES                           Precinct 203                                           01 
01390030005000003DEM       Attorney General                                        UNDER VOTES                           Precinct 301                                           01 
01390030006000005DEM       Attorney General                                        UNDER VOTES                           Precinct 401                                           01 
01390030007000000DEM       Attorney General                                        UNDER VOTES                           Precinct 402                                           01 
01400010001000010DEM       Comptroller of Public Accounts                          Joi Chevalier                         Precinct 101                                           01 
01400010002000003DEM       Comptroller of Public Accounts                          Joi Chevalier                         Precinct 201                                           01 
01400010003000004DEM       Comptroller of Public Accounts                          Joi Chevalier                         Precinct 202                                           01 
01400010004000000DEM       Comptroller of Public Accounts                          Joi Chevalier                         Precinct 203                                           01 
01400010005000004DEM       Comptroller of Public Accounts                          Joi Chevalier                         Precinct 301                                           01 
01400010006000003DEM       Comptroller of Public Accounts                          Joi Chevalier                         Precinct 401                                           01 
01400010007000004DEM       Comptroller of Public Accounts                          Joi Chevalier                         Precinct 402                                           01 
01400020001000014DEM       Comptroller of Public Accounts                          Tim Mahoney                           Precinct 101                                           01 
01400020002000007DEM       Comptroller of Public Accounts                          Tim Mahoney                           Precinct 201                                           01 
01400020003000009DEM       Comptroller of Public Accounts                          Tim Mahoney                           Precinct 202                                           01 
01400020004000001DEM       Comptroller of Public Accounts                          Tim Mahoney                           Precinct 203                                           01 
01400020005000009DEM       Comptroller of Public Accounts                          Tim Mahoney                           Precinct 301                                           01 
01400020006000007DEM       Comptroller of Public Accounts                          Tim Mahoney                           Precinct 401                                           01 
01400020007000000DEM       Comptroller of Public Accounts                          Tim Mahoney                           Precinct 402                                           01 
01400030001000000DEM       Comptroller of Public Accounts                          OVER VOTES                            Precinct 101                                           01 
01400030002000000DEM       Comptroller of Public Accounts                          OVER VOTES                            Precinct 201                                           01 
01400030003000000DEM       Comptroller of Public Accounts                          OVER VOTES                            Precinct 202                                           01 
01400030004000000DEM       Comptroller of Public Accounts                          OVER VOTES                            Precinct 203                                           01 
01400030005000000DEM       Comptroller of Public Accounts                          OVER VOTES                            Precinct 301                                           01 
01400030006000000DEM       Comptroller of Public Accounts                          OVER VOTES                            Precinct 401                                           01 
01400030007000000DEM       Comptroller of Public Accounts                          OVER VOTES                            Precinct 402                                           01 
01400040001000004DEM       Comptroller of Public Accounts                          UNDER VOTES                           Precinct 101                                           01 
01400040002000000DEM       Comptroller of Public Accounts                          UNDER VOTES                           Precinct 201                                           01 
01400040003000003DEM       Comptroller of Public Accounts                          UNDER VOTES                           Precinct 202                                           01 
01400040004000000DEM       Comptroller of Public Accounts                          UNDER VOTES                           Precinct 203                                           01 
01400040005000002DEM       Comptroller of Public Accounts                          UNDER VOTES                           Precinct 301                                           01 
01400040006000002DEM       Comptroller of Public Accounts                          UNDER VOTES                           Precinct 401                                           01 
01400040007000000DEM       Comptroller of Public Accounts                          UNDER VOTES                           Precinct 402                                           01 
01410010001000013DEM       Commissioner of the General Land Office                 Tex Morgan                            Precinct 101                                           01 
01410010002000002DEM       Commissioner of the General Land Office                 Tex Morgan                            Precinct 201                                           01 
01410010003000007DEM       Commissioner of the General Land Office                 Tex Morgan                            Precinct 202                                           01 
01410010004000001DEM       Commissioner of the General Land Office                 Tex Morgan                            Precinct 203                                           01 
01410010005000005DEM       Commissioner of the General Land Office                 Tex Morgan                            Precinct 301                                           01 
01410010006000004DEM       Commissioner of the General Land Office                 Tex Morgan                            Precinct 401                                           01 
01410010007000001DEM       Commissioner of the General Land Office                 Tex Morgan                            Precinct 402                                           01 
01410020001000012DEM       Commissioner of the General Land Office                 Miguel Suazo                          Precinct 101                                           01 
01410020002000008DEM       Commissioner of the General Land Office                 Miguel Suazo                          Precinct 201                                           01 
01410020003000008DEM       Commissioner of the General Land Office                 Miguel Suazo                          Precinct 202                                           01 
01410020004000000DEM       Commissioner of the General Land Office                 Miguel Suazo                          Precinct 203                                           01 
01410020005000008DEM       Commissioner of the General Land Office                 Miguel Suazo                          Precinct 301                                           01 
01410020006000007DEM       Commissioner of the General Land Office                 Miguel Suazo                          Precinct 401                                           01 
01410020007000003DEM       Commissioner of the General Land Office                 Miguel Suazo                          Precinct 402                                           01 
01410030001000000DEM       Commissioner of the General Land Office                 OVER VOTES                            Precinct 101                                           01 
01410030002000000DEM       Commissioner of the General Land Office                 OVER VOTES                            Precinct 201                                           01 
01410030003000000DEM       Commissioner of the General Land Office                 OVER VOTES                            Precinct 202                                           01 
01410030004000000DEM       Commissioner of the General Land Office                 OVER VOTES                            Precinct 203                                           01 
01410030005000000DEM       Commissioner of the General Land Office                 OVER VOTES                            Precinct 301                                           01 
01410030006000000DEM       Commissioner of the General Land Office                 OVER VOTES                            Precinct 401                                           01 
01410030007000000DEM       Commissioner of the General Land Office                 OVER VOTES                            Precinct 402                                           01 
01410040001000003DEM       Commissioner of the General Land Office                 UNDER VOTES                           Precinct 101                                           01 
01410040002000000DEM       Commissioner of the General Land Office                 UNDER VOTES                           Precinct 201                                           01 
01410040003000001DEM       Commissioner of the General Land Office                 UNDER VOTES                           Precinct 202                                           01 
01410040004000000DEM       Commissioner of the General Land Office                 UNDER VOTES                           Precinct 203                                           01 
01410040005000002DEM       Commissioner of the General Land Office                 UNDER VOTES                           Precinct 301                                           01 
01410040006000001DEM       Commissioner of the General Land Office                 UNDER VOTES                           Precinct 401                                           01 
01410040007000000DEM       Commissioner of the General Land Office                 UNDER VOTES                           Precinct 402                                           01 
01420010001000025DEM       Commissioner of Agriculture                             Kim Olson                             Precinct 101                                           01 
01420010002000008DEM       Commissioner of Agriculture                             Kim Olson                             Precinct 201                                           01 
01420010003000011DEM       Commissioner of Agriculture                             Kim Olson                             Precinct 202                                           01 
01420010004000001DEM       Commissioner of Agriculture                             Kim Olson                             Precinct 203                                           01 
01420010005000011DEM       Commissioner of Agriculture                             Kim Olson                             Precinct 301                                           01 
01420010006000008DEM       Commissioner of Agriculture                             Kim Olson                             Precinct 401                                           01 
01420010007000004DEM       Commissioner of Agriculture                             Kim Olson                             Precinct 402                                           01 
01420020001000000DEM       Commissioner of Agriculture                             OVER VOTES                            Precinct 101                                           01 
01420020002000000DEM       Commissioner of Agriculture                             OVER VOTES                            Precinct 201                                           01 
01420020003000000DEM       Commissioner of Agriculture                             OVER VOTES                            Precinct 202                                           01 
01420020004000000DEM       Commissioner of Agriculture                             OVER VOTES                            Precinct 203                                           01 
01420020005000000DEM       Commissioner of Agriculture                             OVER VOTES                            Precinct 301                                           01 
01420020006000000DEM       Commissioner of Agriculture                             OVER VOTES                            Precinct 401                                           01 
01420020007000000DEM       Commissioner of Agriculture                             OVER VOTES                            Precinct 402                                           01 
01420030001000003DEM       Commissioner of Agriculture                             UNDER VOTES                           Precinct 101                                           01 
01420030002000002DEM       Commissioner of Agriculture                             UNDER VOTES                           Precinct 201                                           01 
01420030003000005DEM       Commissioner of Agriculture                             UNDER VOTES                           Precinct 202                                           01 
01420030004000000DEM       Commissioner of Agriculture                             UNDER VOTES                           Precinct 203                                           01 
01420030005000004DEM       Commissioner of Agriculture                             UNDER VOTES                           Precinct 301                                           01 
01420030006000004DEM       Commissioner of Agriculture                             UNDER VOTES                           Precinct 401                                           01 
01420030007000000DEM       Commissioner of Agriculture                             UNDER VOTES                           Precinct 402                                           01 
01430010001000011DEM       Railroad Commissioner                                   Chris Spellmon                        Precinct 101                                           01 
01430010002000002DEM       Railroad Commissioner                                   Chris Spellmon                        Precinct 201                                           01 
01430010003000009DEM       Railroad Commissioner                                   Chris Spellmon                        Precinct 202                                           01 
01430010004000001DEM       Railroad Commissioner                                   Chris Spellmon                        Precinct 203                                           01 
01430010005000007DEM       Railroad Commissioner                                   Chris Spellmon                        Precinct 301                                           01 
01430010006000003DEM       Railroad Commissioner                                   Chris Spellmon                        Precinct 401                                           01 
01430010007000001DEM       Railroad Commissioner                                   Chris Spellmon                        Precinct 402                                           01 
01430020001000014DEM       Railroad Commissioner                                   Roman McAllen                         Precinct 101                                           01 
01430020002000008DEM       Railroad Commissioner                                   Roman McAllen                         Precinct 201                                           01 
01430020003000004DEM       Railroad Commissioner                                   Roman McAllen                         Precinct 202                                           01 
01430020004000000DEM       Railroad Commissioner                                   Roman McAllen                         Precinct 203                                           01 
01430020005000006DEM       Railroad Commissioner                                   Roman McAllen                         Precinct 301                                           01 
01430020006000008DEM       Railroad Commissioner                                   Roman McAllen                         Precinct 401                                           01 
01430020007000003DEM       Railroad Commissioner                                   Roman McAllen                         Precinct 402                                           01 
01430030001000000DEM       Railroad Commissioner                                   OVER VOTES                            Precinct 101                                           01 
01430030002000000DEM       Railroad Commissioner                                   OVER VOTES                            Precinct 201                                           01 
01430030003000000DEM       Railroad Commissioner                                   OVER VOTES                            Precinct 202                                           01 
01430030004000000DEM       Railroad Commissioner                                   OVER VOTES                            Precinct 203                                           01 
01430030005000000DEM       Railroad Commissioner                                   OVER VOTES                            Precinct 301                                           01 
01430030006000000DEM       Railroad Commissioner                                   OVER VOTES                            Precinct 401                                           01 
01430030007000000DEM       Railroad Commissioner                                   OVER VOTES                            Precinct 402                                           01 
01430040001000003DEM       Railroad Commissioner                                   UNDER VOTES                           Precinct 101                                           01 
01430040002000000DEM       Railroad Commissioner                                   UNDER VOTES                           Precinct 201                                           01 
01430040003000003DEM       Railroad Commissioner                                   UNDER VOTES                           Precinct 202                                           01 
01430040004000000DEM       Railroad Commissioner                                   UNDER VOTES                           Precinct 203                                           01 
01430040005000002DEM       Railroad Commissioner                                   UNDER VOTES                           Precinct 301                                           01 
01430040006000001DEM       Railroad Commissioner                                   UNDER VOTES                           Precinct 401                                           01 
01430040007000000DEM       Railroad Commissioner                                   UNDER VOTES                           Precinct 402                                           01 
01440010001000024DEM       Justice, Supreme Court, Place 2                         Steven Kirkland                       Precinct 101                                           01 
01440010002000008DEM       Justice, Supreme Court, Place 2                         Steven Kirkland                       Precinct 201                                           01 
01440010003000011DEM       Justice, Supreme Court, Place 2                         Steven Kirkland                       Precinct 202                                           01 
01440010004000001DEM       Justice, Supreme Court, Place 2                         Steven Kirkland                       Precinct 203                                           01 
01440010005000013DEM       Justice, Supreme Court, Place 2                         Steven Kirkland                       Precinct 301                                           01 
01440010006000008DEM       Justice, Supreme Court, Place 2                         Steven Kirkland                       Precinct 401                                           01 
01440010007000004DEM       Justice, Supreme Court, Place 2                         Steven Kirkland                       Precinct 402                                           01 
01440020001000000DEM       Justice, Supreme Court, Place 2                         OVER VOTES                            Precinct 101                                           01 
01440020002000000DEM       Justice, Supreme Court, Place 2                         OVER VOTES                            Precinct 201                                           01 
01440020003000000DEM       Justice, Supreme Court, Place 2                         OVER VOTES                            Precinct 202                                           01 
01440020004000000DEM       Justice, Supreme Court, Place 2                         OVER VOTES                            Precinct 203                                           01 
01440020005000000DEM       Justice, Supreme Court, Place 2                         OVER VOTES                            Precinct 301                                           01 
01440020006000000DEM       Justice, Supreme Court, Place 2                         OVER VOTES                            Precinct 401                                           01 
01440020007000000DEM       Justice, Supreme Court, Place 2                         OVER VOTES                            Precinct 402                                           01 
01440030001000004DEM       Justice, Supreme Court, Place 2                         UNDER VOTES                           Precinct 101                                           01 
01440030002000002DEM       Justice, Supreme Court, Place 2                         UNDER VOTES                           Precinct 201                                           01 
01440030003000005DEM       Justice, Supreme Court, Place 2                         UNDER VOTES                           Precinct 202                                           01 
01440030004000000DEM       Justice, Supreme Court, Place 2                         UNDER VOTES                           Precinct 203                                           01 
01440030005000002DEM       Justice, Supreme Court, Place 2                         UNDER VOTES                           Precinct 301                                           01 
01440030006000004DEM       Justice, Supreme Court, Place 2                         UNDER VOTES                           Precinct 401                                           01 
01440030007000000DEM       Justice, Supreme Court, Place 2                         UNDER VOTES                           Precinct 402                                           01 
01450010001000024DEM       Justice, Supreme Court, Place 4                         R.K. Sandill                          Precinct 101                                           01 
01450010002000008DEM       Justice, Supreme Court, Place 4                         R.K. Sandill                          Precinct 201                                           01 
01450010003000012DEM       Justice, Supreme Court, Place 4                         R.K. Sandill                          Precinct 202                                           01 
01450010004000001DEM       Justice, Supreme Court, Place 4                         R.K. Sandill                          Precinct 203                                           01 
01450010005000012DEM       Justice, Supreme Court, Place 4                         R.K. Sandill                          Precinct 301                                           01 
01450010006000008DEM       Justice, Supreme Court, Place 4                         R.K. Sandill                          Precinct 401                                           01 
01450010007000004DEM       Justice, Supreme Court, Place 4                         R.K. Sandill                          Precinct 402                                           01 
01450020001000000DEM       Justice, Supreme Court, Place 4                         OVER VOTES                            Precinct 101                                           01 
01450020002000000DEM       Justice, Supreme Court, Place 4                         OVER VOTES                            Precinct 201                                           01 
01450020003000000DEM       Justice, Supreme Court, Place 4                         OVER VOTES                            Precinct 202                                           01 
01450020004000000DEM       Justice, Supreme Court, Place 4                         OVER VOTES                            Precinct 203                                           01 
01450020005000000DEM       Justice, Supreme Court, Place 4                         OVER VOTES                            Precinct 301                                           01 
01450020006000000DEM       Justice, Supreme Court, Place 4                         OVER VOTES                            Precinct 401                                           01 
01450020007000000DEM       Justice, Supreme Court, Place 4                         OVER VOTES                            Precinct 402                                           01 
01450030001000004DEM       Justice, Supreme Court, Place 4                         UNDER VOTES                           Precinct 101                                           01 
01450030002000002DEM       Justice, Supreme Court, Place 4                         UNDER VOTES                           Precinct 201                                           01 
01450030003000004DEM       Justice, Supreme Court, Place 4                         UNDER VOTES                           Precinct 202                                           01 
01450030004000000DEM       Justice, Supreme Court, Place 4                         UNDER VOTES                           Precinct 203                                           01 
01450030005000003DEM       Justice, Supreme Court, Place 4                         UNDER VOTES                           Precinct 301                                           01 
01450030006000004DEM       Justice, Supreme Court, Place 4                         UNDER VOTES                           Precinct 401                                           01 
01450030007000000DEM       Justice, Supreme Court, Place 4                         UNDER VOTES                           Precinct 402                                           01 
01460010001000022DEM       Justice, Supreme Court, Place 6                         Kathy Cheng                           Precinct 101                                           01 
01460010002000008DEM       Justice, Supreme Court, Place 6                         Kathy Cheng                           Precinct 201                                           01 
01460010003000013DEM       Justice, Supreme Court, Place 6                         Kathy Cheng                           Precinct 202                                           01 
01460010004000001DEM       Justice, Supreme Court, Place 6                         Kathy Cheng                           Precinct 203                                           01 
01460010005000015DEM       Justice, Supreme Court, Place 6                         Kathy Cheng                           Precinct 301                                           01 
01460010006000008DEM       Justice, Supreme Court, Place 6                         Kathy Cheng                           Precinct 401                                           01 
01460010007000004DEM       Justice, Supreme Court, Place 6                         Kathy Cheng                           Precinct 402                                           01 
01460020001000000DEM       Justice, Supreme Court, Place 6                         OVER VOTES                            Precinct 101                                           01 
01460020002000000DEM       Justice, Supreme Court, Place 6                         OVER VOTES                            Precinct 201                                           01 
01460020003000000DEM       Justice, Supreme Court, Place 6                         OVER VOTES                            Precinct 202                                           01 
01460020004000000DEM       Justice, Supreme Court, Place 6                         OVER VOTES                            Precinct 203                                           01 
01460020005000000DEM       Justice, Supreme Court, Place 6                         OVER VOTES                            Precinct 301                                           01 
01460020006000000DEM       Justice, Supreme Court, Place 6                         OVER VOTES                            Precinct 401                                           01 
01460020007000000DEM       Justice, Supreme Court, Place 6                         OVER VOTES                            Precinct 402                                           01 
01460030001000006DEM       Justice, Supreme Court, Place 6                         UNDER VOTES                           Precinct 101                                           01 
01460030002000002DEM       Justice, Supreme Court, Place 6                         UNDER VOTES                           Precinct 201                                           01 
01460030003000003DEM       Justice, Supreme Court, Place 6                         UNDER VOTES                           Precinct 202                                           01 
01460030004000000DEM       Justice, Supreme Court, Place 6                         UNDER VOTES                           Precinct 203                                           01 
01460030005000000DEM       Justice, Supreme Court, Place 6                         UNDER VOTES                           Precinct 301                                           01 
01460030006000004DEM       Justice, Supreme Court, Place 6                         UNDER VOTES                           Precinct 401                                           01 
01460030007000000DEM       Justice, Supreme Court, Place 6                         UNDER VOTES                           Precinct 402                                           01 
01470010001000025DEM       Presiding Judge, Court of Crim Appeals                  Maria T. (Terri) Jackson              Precinct 101                                           01 
01470010002000008DEM       Presiding Judge, Court of Crim Appeals                  Maria T. (Terri) Jackson              Precinct 201                                           01 
01470010003000012DEM       Presiding Judge, Court of Crim Appeals                  Maria T. (Terri) Jackson              Precinct 202                                           01 
01470010004000001DEM       Presiding Judge, Court of Crim Appeals                  Maria T. (Terri) Jackson              Precinct 203                                           01 
01470010005000012DEM       Presiding Judge, Court of Crim Appeals                  Maria T. (Terri) Jackson              Precinct 301                                           01 
01470010006000008DEM       Presiding Judge, Court of Crim Appeals                  Maria T. (Terri) Jackson              Precinct 401                                           01 
01470010007000004DEM       Presiding Judge, Court of Crim Appeals                  Maria T. (Terri) Jackson              Precinct 402                                           01 
01470020001000000DEM       Presiding Judge, Court of Crim Appeals                  OVER VOTES                            Precinct 101                                           01 
01470020002000000DEM       Presiding Judge, Court of Crim Appeals                  OVER VOTES                            Precinct 201                                           01 
01470020003000000DEM       Presiding Judge, Court of Crim Appeals                  OVER VOTES                            Precinct 202                                           01 
01470020004000000DEM       Presiding Judge, Court of Crim Appeals                  OVER VOTES                            Precinct 203                                           01 
01470020005000000DEM       Presiding Judge, Court of Crim Appeals                  OVER VOTES                            Precinct 301                                           01 
01470020006000000DEM       Presiding Judge, Court of Crim Appeals                  OVER VOTES                            Precinct 401                                           01 
01470020007000000DEM       Presiding Judge, Court of Crim Appeals                  OVER VOTES                            Precinct 402                                           01 
01470030001000003DEM       Presiding Judge, Court of Crim Appeals                  UNDER VOTES                           Precinct 101                                           01 
01470030002000002DEM       Presiding Judge, Court of Crim Appeals                  UNDER VOTES                           Precinct 201                                           01 
01470030003000004DEM       Presiding Judge, Court of Crim Appeals                  UNDER VOTES                           Precinct 202                                           01 
01470030004000000DEM       Presiding Judge, Court of Crim Appeals                  UNDER VOTES                           Precinct 203                                           01 
01470030005000003DEM       Presiding Judge, Court of Crim Appeals                  UNDER VOTES                           Precinct 301                                           01 
01470030006000004DEM       Presiding Judge, Court of Crim Appeals                  UNDER VOTES                           Precinct 401                                           01 
01470030007000000DEM       Presiding Judge, Court of Crim Appeals                  UNDER VOTES                           Precinct 402                                           01 
01480010001000024DEM       Judge, Court of Criminal Appeals, Pl 7                  Ramona Franklin                       Precinct 101                                           01 
01480010002000008DEM       Judge, Court of Criminal Appeals, Pl 7                  Ramona Franklin                       Precinct 201                                           01 
01480010003000014DEM       Judge, Court of Criminal Appeals, Pl 7                  Ramona Franklin                       Precinct 202                                           01 
01480010004000001DEM       Judge, Court of Criminal Appeals, Pl 7                  Ramona Franklin                       Precinct 203                                           01 
01480010005000012DEM       Judge, Court of Criminal Appeals, Pl 7                  Ramona Franklin                       Precinct 301                                           01 
01480010006000008DEM       Judge, Court of Criminal Appeals, Pl 7                  Ramona Franklin                       Precinct 401                                           01 
01480010007000004DEM       Judge, Court of Criminal Appeals, Pl 7                  Ramona Franklin                       Precinct 402                                           01 
01480020001000000DEM       Judge, Court of Criminal Appeals, Pl 7                  OVER VOTES                            Precinct 101                                           01 
01480020002000000DEM       Judge, Court of Criminal Appeals, Pl 7                  OVER VOTES                            Precinct 201                                           01 
01480020003000000DEM       Judge, Court of Criminal Appeals, Pl 7                  OVER VOTES                            Precinct 202                                           01 
01480020004000000DEM       Judge, Court of Criminal Appeals, Pl 7                  OVER VOTES                            Precinct 203                                           01 
01480020005000000DEM       Judge, Court of Criminal Appeals, Pl 7                  OVER VOTES                            Precinct 301                                           01 
01480020006000000DEM       Judge, Court of Criminal Appeals, Pl 7                  OVER VOTES                            Precinct 401                                           01 
01480020007000000DEM       Judge, Court of Criminal Appeals, Pl 7                  OVER VOTES                            Precinct 402                                           01 
01480030001000004DEM       Judge, Court of Criminal Appeals, Pl 7                  UNDER VOTES                           Precinct 101                                           01 
01480030002000002DEM       Judge, Court of Criminal Appeals, Pl 7                  UNDER VOTES                           Precinct 201                                           01 
01480030003000002DEM       Judge, Court of Criminal Appeals, Pl 7                  UNDER VOTES                           Precinct 202                                           01 
01480030004000000DEM       Judge, Court of Criminal Appeals, Pl 7                  UNDER VOTES                           Precinct 203                                           01 
01480030005000003DEM       Judge, Court of Criminal Appeals, Pl 7                  UNDER VOTES                           Precinct 301                                           01 
01480030006000004DEM       Judge, Court of Criminal Appeals, Pl 7                  UNDER VOTES                           Precinct 401                                           01 
01480030007000000DEM       Judge, Court of Criminal Appeals, Pl 7                  UNDER VOTES                           Precinct 402                                           01 
01490010001000223REP       Proposition 1 REP                                       YES                                   Precinct 101                                           01Y
01490010002000296REP       Proposition 1 REP                                       YES                                   Precinct 201                                           01Y
01490010003000306REP       Proposition 1 REP                                       YES                                   Precinct 202                                           01Y
01490010004000010REP       Proposition 1 REP                                       YES                                   Precinct 203                                           01Y
01490010005000094REP       Proposition 1 REP                                       YES                                   Precinct 301                                           01Y
01490010006000126REP       Proposition 1 REP                                       YES                                   Precinct 401                                           01Y
01490010007000002REP       Proposition 1 REP                                       YES                                   Precinct 402                                           01Y
01490020001000134REP       Proposition 1 REP                                       NO                                    Precinct 101                                           01Y
01490020002000147REP       Proposition 1 REP                                       NO                                    Precinct 201                                           01Y
01490020003000180REP       Proposition 1 REP                                       NO                                    Precinct 202                                           01Y
01490020004000009REP       Proposition 1 REP                                       NO                                    Precinct 203                                           01Y
01490020005000055REP       Proposition 1 REP                                       NO                                    Precinct 301                                           01Y
01490020006000061REP       Proposition 1 REP                                       NO                                    Precinct 401                                           01Y
01490020007000005REP       Proposition 1 REP                                       NO                                    Precinct 402                                           01Y
01490030001000000REP       Proposition 1 REP                                       OVER VOTES                            Precinct 101                                           01Y
01490030002000000REP       Proposition 1 REP                                       OVER VOTES                            Precinct 201                                           01Y
01490030003000000REP       Proposition 1 REP                                       OVER VOTES                            Precinct 202                                           01Y
01490030004000000REP       Proposition 1 REP                                       OVER VOTES                            Precinct 203                                           01Y
01490030005000000REP       Proposition 1 REP                                       OVER VOTES                            Precinct 301                                           01Y
01490030006000000REP       Proposition 1 REP                                       OVER VOTES                            Precinct 401                                           01Y
01490030007000000REP       Proposition 1 REP                                       OVER VOTES                            Precinct 402                                           01Y
01490040001000021REP       Proposition 1 REP                                       UNDER VOTES                           Precinct 101                                           01Y
01490040002000032REP       Proposition 1 REP                                       UNDER VOTES                           Precinct 201                                           01Y
01490040003000037REP       Proposition 1 REP                                       UNDER VOTES                           Precinct 202                                           01Y
01490040004000002REP       Proposition 1 REP                                       UNDER VOTES                           Precinct 203                                           01Y
01490040005000015REP       Proposition 1 REP                                       UNDER VOTES                           Precinct 301                                           01Y
01490040006000020REP       Proposition 1 REP                                       UNDER VOTES                           Precinct 401                                           01Y
01490040007000000REP       Proposition 1 REP                                       UNDER VOTES                           Precinct 402                                           01Y
01500010001000347REP       Proposition 2 REP                                       YES                                   Precinct 101                                           01Y
01500010002000424REP       Proposition 2 REP                                       YES                                   Precinct 201                                           01Y
01500010003000458REP       Proposition 2 REP                                       YES                                   Precinct 202                                           01Y
01500010004000011REP       Proposition 2 REP                                       YES                                   Precinct 203                                           01Y
01500010005000140REP       Proposition 2 REP                                       YES                                   Precinct 301                                           01Y
01500010006000180REP       Proposition 2 REP                                       YES                                   Precinct 401                                           01Y
01500010007000006REP       Proposition 2 REP                                       YES                                   Precinct 402                                           01Y
01500020001000022REP       Proposition 2 REP                                       NO                                    Precinct 101                                           01Y
01500020002000030REP       Proposition 2 REP                                       NO                                    Precinct 201                                           01Y
01500020003000048REP       Proposition 2 REP                                       NO                                    Precinct 202                                           01Y
01500020004000005REP       Proposition 2 REP                                       NO                                    Precinct 203                                           01Y
01500020005000017REP       Proposition 2 REP                                       NO                                    Precinct 301                                           01Y
01500020006000019REP       Proposition 2 REP                                       NO                                    Precinct 401                                           01Y
01500020007000001REP       Proposition 2 REP                                       NO                                    Precinct 402                                           01Y
01500030001000000REP       Proposition 2 REP                                       OVER VOTES                            Precinct 101                                           01Y
01500030002000000REP       Proposition 2 REP                                       OVER VOTES                            Precinct 201                                           01Y
01500030003000000REP       Proposition 2 REP                                       OVER VOTES                            Precinct 202                                           01Y
01500030004000001REP       Proposition 2 REP                                       OVER VOTES                            Precinct 203                                           01Y
01500030005000000REP       Proposition 2 REP                                       OVER VOTES                            Precinct 301                                           01Y
01500030006000000REP       Proposition 2 REP                                       OVER VOTES                            Precinct 401                                           01Y
01500030007000000REP       Proposition 2 REP                                       OVER VOTES                            Precinct 402                                           01Y
01500040001000009REP       Proposition 2 REP                                       UNDER VOTES                           Precinct 101                                           01Y
01500040002000021REP       Proposition 2 REP                                       UNDER VOTES                           Precinct 201                                           01Y
01500040003000017REP       Proposition 2 REP                                       UNDER VOTES                           Precinct 202                                           01Y
01500040004000004REP       Proposition 2 REP                                       UNDER VOTES                           Precinct 203                                           01Y
01500040005000007REP       Proposition 2 REP                                       UNDER VOTES                           Precinct 301                                           01Y
01500040006000008REP       Proposition 2 REP                                       UNDER VOTES                           Precinct 401                                           01Y
01500040007000000REP       Proposition 2 REP                                       UNDER VOTES                           Precinct 402                                           01Y
01510010001000317REP       Proposition 3 REP                                       YES                                   Precinct 101                                           01Y
01510010002000388REP       Proposition 3 REP                                       YES                                   Precinct 201                                           01Y
01510010003000429REP       Proposition 3 REP                                       YES                                   Precinct 202                                           01Y
01510010004000014REP       Proposition 3 REP                                       YES                                   Precinct 203                                           01Y
01510010005000133REP       Proposition 3 REP                                       YES                                   Precinct 301                                           01Y
01510010006000175REP       Proposition 3 REP                                       YES                                   Precinct 401                                           01Y
01510010007000004REP       Proposition 3 REP                                       YES                                   Precinct 402                                           01Y
01510020001000047REP       Proposition 3 REP                                       NO                                    Precinct 101                                           01Y
01510020002000058REP       Proposition 3 REP                                       NO                                    Precinct 201                                           01Y
01510020003000070REP       Proposition 3 REP                                       NO                                    Precinct 202                                           01Y
01510020004000003REP       Proposition 3 REP                                       NO                                    Precinct 203                                           01Y
01510020005000023REP       Proposition 3 REP                                       NO                                    Precinct 301                                           01Y
01510020006000021REP       Proposition 3 REP                                       NO                                    Precinct 401                                           01Y
01510020007000003REP       Proposition 3 REP                                       NO                                    Precinct 402                                           01Y
01510030001000000REP       Proposition 3 REP                                       OVER VOTES                            Precinct 101                                           01Y
01510030002000000REP       Proposition 3 REP                                       OVER VOTES                            Precinct 201                                           01Y
01510030003000000REP       Proposition 3 REP                                       OVER VOTES                            Precinct 202                                           01Y
01510030004000000REP       Proposition 3 REP                                       OVER VOTES                            Precinct 203                                           01Y
01510030005000000REP       Proposition 3 REP                                       OVER VOTES                            Precinct 301                                           01Y
01510030006000000REP       Proposition 3 REP                                       OVER VOTES                            Precinct 401                                           01Y
01510030007000000REP       Proposition 3 REP                                       OVER VOTES                            Precinct 402                                           01Y
01510040001000014REP       Proposition 3 REP                                       UNDER VOTES                           Precinct 101                                           01Y
01510040002000029REP       Proposition 3 REP                                       UNDER VOTES                           Precinct 201                                           01Y
01510040003000024REP       Proposition 3 REP                                       UNDER VOTES                           Precinct 202                                           01Y
01510040004000004REP       Proposition 3 REP                                       UNDER VOTES                           Precinct 203                                           01Y
01510040005000008REP       Proposition 3 REP                                       UNDER VOTES                           Precinct 301                                           01Y
01510040006000011REP       Proposition 3 REP                                       UNDER VOTES                           Precinct 401                                           01Y
01510040007000000REP       Proposition 3 REP                                       UNDER VOTES                           Precinct 402                                           01Y
01520010001000338REP       Proposition 4 REP                                       YES                                   Precinct 101                                           01Y
01520010002000413REP       Proposition 4 REP                                       YES                                   Precinct 201                                           01Y
01520010003000462REP       Proposition 4 REP                                       YES                                   Precinct 202                                           01Y
01520010004000015REP       Proposition 4 REP                                       YES                                   Precinct 203                                           01Y
01520010005000144REP       Proposition 4 REP                                       YES                                   Precinct 301                                           01Y
01520010006000178REP       Proposition 4 REP                                       YES                                   Precinct 401                                           01Y
01520010007000005REP       Proposition 4 REP                                       YES                                   Precinct 402                                           01Y
01520020001000027REP       Proposition 4 REP                                       NO                                    Precinct 101                                           01Y
01520020002000039REP       Proposition 4 REP                                       NO                                    Precinct 201                                           01Y
01520020003000041REP       Proposition 4 REP                                       NO                                    Precinct 202                                           01Y
01520020004000003REP       Proposition 4 REP                                       NO                                    Precinct 203                                           01Y
01520020005000016REP       Proposition 4 REP                                       NO                                    Precinct 301                                           01Y
01520020006000019REP       Proposition 4 REP                                       NO                                    Precinct 401                                           01Y
01520020007000002REP       Proposition 4 REP                                       NO                                    Precinct 402                                           01Y
01520030001000000REP       Proposition 4 REP                                       OVER VOTES                            Precinct 101                                           01Y
01520030002000000REP       Proposition 4 REP                                       OVER VOTES                            Precinct 201                                           01Y
01520030003000000REP       Proposition 4 REP                                       OVER VOTES                            Precinct 202                                           01Y
01520030004000000REP       Proposition 4 REP                                       OVER VOTES                            Precinct 203                                           01Y
01520030005000000REP       Proposition 4 REP                                       OVER VOTES                            Precinct 301                                           01Y
01520030006000000REP       Proposition 4 REP                                       OVER VOTES                            Precinct 401                                           01Y
01520030007000000REP       Proposition 4 REP                                       OVER VOTES                            Precinct 402                                           01Y
01520040001000013REP       Proposition 4 REP                                       UNDER VOTES                           Precinct 101                                           01Y
01520040002000023REP       Proposition 4 REP                                       UNDER VOTES                           Precinct 201                                           01Y
01520040003000020REP       Proposition 4 REP                                       UNDER VOTES                           Precinct 202                                           01Y
01520040004000003REP       Proposition 4 REP                                       UNDER VOTES                           Precinct 203                                           01Y
01520040005000004REP       Proposition 4 REP                                       UNDER VOTES                           Precinct 301                                           01Y
01520040006000010REP       Proposition 4 REP                                       UNDER VOTES                           Precinct 401                                           01Y
01520040007000000REP       Proposition 4 REP                                       UNDER VOTES                           Precinct 402                                           01Y
01530010001000255REP       Proposition 5 REP                                       YES                                   Precinct 101                                           01Y
01530010002000288REP       Proposition 5 REP                                       YES                                   Precinct 201                                           01Y
01530010003000319REP       Proposition 5 REP                                       YES                                   Precinct 202                                           01Y
01530010004000013REP       Proposition 5 REP                                       YES                                   Precinct 203                                           01Y
01530010005000108REP       Proposition 5 REP                                       YES                                   Precinct 301                                           01Y
01530010006000128REP       Proposition 5 REP                                       YES                                   Precinct 401                                           01Y
01530010007000002REP       Proposition 5 REP                                       YES                                   Precinct 402                                           01Y
01530020001000111REP       Proposition 5 REP                                       NO                                    Precinct 101                                           01Y
01530020002000167REP       Proposition 5 REP                                       NO                                    Precinct 201                                           01Y
01530020003000190REP       Proposition 5 REP                                       NO                                    Precinct 202                                           01Y
01530020004000005REP       Proposition 5 REP                                       NO                                    Precinct 203                                           01Y
01530020005000053REP       Proposition 5 REP                                       NO                                    Precinct 301                                           01Y
01530020006000067REP       Proposition 5 REP                                       NO                                    Precinct 401                                           01Y
01530020007000004REP       Proposition 5 REP                                       NO                                    Precinct 402                                           01Y
01530030001000000REP       Proposition 5 REP                                       OVER VOTES                            Precinct 101                                           01Y
01530030002000000REP       Proposition 5 REP                                       OVER VOTES                            Precinct 201                                           01Y
01530030003000000REP       Proposition 5 REP                                       OVER VOTES                            Precinct 202                                           01Y
01530030004000000REP       Proposition 5 REP                                       OVER VOTES                            Precinct 203                                           01Y
01530030005000000REP       Proposition 5 REP                                       OVER VOTES                            Precinct 301                                           01Y
01530030006000000REP       Proposition 5 REP                                       OVER VOTES                            Precinct 401                                           01Y
01530030007000000REP       Proposition 5 REP                                       OVER VOTES                            Precinct 402                                           01Y
01530040001000012REP       Proposition 5 REP                                       UNDER VOTES                           Precinct 101                                           01Y
01530040002000020REP       Proposition 5 REP                                       UNDER VOTES                           Precinct 201                                           01Y
01530040003000014REP       Proposition 5 REP                                       UNDER VOTES                           Precinct 202                                           01Y
01530040004000003REP       Proposition 5 REP                                       UNDER VOTES                           Precinct 203                                           01Y
01530040005000003REP       Proposition 5 REP                                       UNDER VOTES                           Precinct 301                                           01Y
01530040006000012REP       Proposition 5 REP                                       UNDER VOTES                           Precinct 401                                           01Y
01530040007000001REP       Proposition 5 REP                                       UNDER VOTES                           Precinct 402                                           01Y
01540010001000357REP       Proposition 6 REP                                       YES                                   Precinct 101                                           01Y
01540010002000442REP       Proposition 6 REP                                       YES                                   Precinct 201                                           01Y
01540010003000484REP       Proposition 6 REP                                       YES                                   Precinct 202                                           01Y
01540010004000018REP       Proposition 6 REP                                       YES                                   Precinct 203                                           01Y
01540010005000151REP       Proposition 6 REP                                       YES                                   Precinct 301                                           01Y
01540010006000189REP       Proposition 6 REP                                       YES                                   Precinct 401                                           01Y
01540010007000004REP       Proposition 6 REP                                       YES                                   Precinct 402                                           01Y
01540020001000013REP       Proposition 6 REP                                       NO                                    Precinct 101                                           01Y
01540020002000021REP       Proposition 6 REP                                       NO                                    Precinct 201                                           01Y
01540020003000021REP       Proposition 6 REP                                       NO                                    Precinct 202                                           01Y
01540020004000002REP       Proposition 6 REP                                       NO                                    Precinct 203                                           01Y
01540020005000008REP       Proposition 6 REP                                       NO                                    Precinct 301                                           01Y
01540020006000011REP       Proposition 6 REP                                       NO                                    Precinct 401                                           01Y
01540020007000002REP       Proposition 6 REP                                       NO                                    Precinct 402                                           01Y
01540030001000000REP       Proposition 6 REP                                       OVER VOTES                            Precinct 101                                           01Y
01540030002000000REP       Proposition 6 REP                                       OVER VOTES                            Precinct 201                                           01Y
01540030003000000REP       Proposition 6 REP                                       OVER VOTES                            Precinct 202                                           01Y
01540030004000000REP       Proposition 6 REP                                       OVER VOTES                            Precinct 203                                           01Y
01540030005000000REP       Proposition 6 REP                                       OVER VOTES                            Precinct 301                                           01Y
01540030006000000REP       Proposition 6 REP                                       OVER VOTES                            Precinct 401                                           01Y
