01010010001000000000000000000000000000000000000          REGISTERED VOTERS - TOTAL                               REGISTERED VOTERS - TOTAL             PRECINCT 1                                             00 
01010010002000000000000000000000000000000000000          REGISTERED VOTERS - TOTAL                               REGISTERED VOTERS - TOTAL             PRECINCT 2                                             00 
01010010003000000000000000000000000000000000000          REGISTERED VOTERS - TOTAL                               REGISTERED VOTERS - TOTAL             PRECINCT 3                                             00 
01010010004000000000000000000000000000000000000          REGISTERED VOTERS - TOTAL                               REGISTERED VOTERS - TOTAL             PRECINCT 4                                             00 
01010010005000000000000000000000000000000000000          REGISTERED VOTERS - TOTAL                               REGISTERED VOTERS - TOTAL             PRECINCT 5                                             00 
01010010006000000000000000000000000000000000000          REGISTERED VOTERS - TOTAL                               REGISTERED VOTERS - TOTAL             PRECINCT 6                                             00 
01010010007000000000000000000000000000000000000          REGISTERED VOTERS - TOTAL                               REGISTERED VOTERS - TOTAL             PRECINCT 7                                             00 
01010010008000000000000000000000000000000000000          REGISTERED VOTERS - TOTAL                               REGISTERED VOTERS - TOTAL             PRECINCT 8                                             00 
01010010009000000000000000000000000000000000000          REGISTERED VOTERS - TOTAL                               REGISTERED VOTERS - TOTAL             PRECINCT 9                                             00 
01010010011000000000000000000000000000000000000          REGISTERED VOTERS - TOTAL                               REGISTERED VOTERS - TOTAL             PRECINCT 11                                            00 
01010010012000000000000000000000000000000000000          REGISTERED VOTERS - TOTAL                               REGISTERED VOTERS - TOTAL             PRECINCT 12                                            00 
01010010013000000000000000000000000000000000000          REGISTERED VOTERS - TOTAL                               REGISTERED VOTERS - TOTAL             PRECINCT 13                                            00 
01010010014000000000000000000000000000000000000          REGISTERED VOTERS - TOTAL                               REGISTERED VOTERS - TOTAL             PRECINCT 14                                            00 
01010010015000000000000000000000000000000000000          REGISTERED VOTERS - TOTAL                               REGISTERED VOTERS - TOTAL             PRECINCT 15                                            00 
01010010016000000000000000000000000000000000000          REGISTERED VOTERS - TOTAL                               REGISTERED VOTERS - TOTAL             PRECINCT 16                                            00 
01010010017000000000000000000000000000000000000          REGISTERED VOTERS - TOTAL                               REGISTERED VOTERS - TOTAL             PRECINCT 17                                            00 
01010010018000000000000000000000000000000000000          REGISTERED VOTERS - TOTAL                               REGISTERED VOTERS - TOTAL             PRECINCT 18                                            00 
01010010020000000000000000000000000000000000000          REGISTERED VOTERS - TOTAL                               REGISTERED VOTERS - TOTAL             PRECINCT 20                                            00 
01010010021000000000000000000000000000000000000          REGISTERED VOTERS - TOTAL                               REGISTERED VOTERS - TOTAL             PRECINCT 21                                            00 
01010010022000000000000000000000000000000000000          REGISTERED VOTERS - TOTAL                               REGISTERED VOTERS - TOTAL             PRECINCT 22                                            00 
01010010023000000000000000000000000000000000000          REGISTERED VOTERS - TOTAL                               REGISTERED VOTERS - TOTAL             PRECINCT 23                                            00 
01010010024000000000000000000000000000000000000          REGISTERED VOTERS - TOTAL                               REGISTERED VOTERS - TOTAL             PRECINCT 24                                            00 
01010010025000000000000000000000000000000000000          REGISTERED VOTERS - TOTAL                               REGISTERED VOTERS - TOTAL             PRECINCT 25                                            00 
01010010026000000000000000000000000000000000000          REGISTERED VOTERS - TOTAL                               REGISTERED VOTERS - TOTAL             PRECINCT 26                                            00 
01010010027000000000000000000000000000000000000          REGISTERED VOTERS - TOTAL                               REGISTERED VOTERS - TOTAL             PRECINCT 27                                            00 
01010010028000000000000000000000000000000000000          REGISTERED VOTERS - TOTAL                               REGISTERED VOTERS - TOTAL             PRECINCT 28                                            00 
01010010029000000000000000000000000000000000000          REGISTERED VOTERS - TOTAL                               REGISTERED VOTERS - TOTAL             PRECINCT 29                                            00 
01010010030000000000000000000000000000000000000          REGISTERED VOTERS - TOTAL                               REGISTERED VOTERS - TOTAL             PRECINCT 30                                            00 
01020010001000182000016000055000111000000000000          BALLOTS CAST - TOTAL                                    BALLOTS CAST - TOTAL                  PRECINCT 1                                             00 
01020010002000005000001000000000004000000000000          BALLOTS CAST - TOTAL                                    BALLOTS CAST - TOTAL                  PRECINCT 2                                             00 
01020010003000247000029000044000174000000000000          BALLOTS CAST - TOTAL                                    BALLOTS CAST - TOTAL                  PRECINCT 3                                             00 
01020010004000082000003000036000043000000000000          BALLOTS CAST - TOTAL                                    BALLOTS CAST - TOTAL                  PRECINCT 4                                             00 
01020010005000135000010000012000113000000000000          BALLOTS CAST - TOTAL                                    BALLOTS CAST - TOTAL                  PRECINCT 5                                             00 
01020010006000261000040000039000182000000000000          BALLOTS CAST - TOTAL                                    BALLOTS CAST - TOTAL                  PRECINCT 6                                             00 
01020010007000238000008000059000171000000000000          BALLOTS CAST - TOTAL                                    BALLOTS CAST - TOTAL                  PRECINCT 7                                             00 
01020010008000381000048000079000254000000000000          BALLOTS CAST - TOTAL                                    BALLOTS CAST - TOTAL                  PRECINCT 8                                             00 
01020010009000103000005000022000076000000000000          BALLOTS CAST - TOTAL                                    BALLOTS CAST - TOTAL                  PRECINCT 9                                             00 
01020010011000067000004000028000035000000000000          BALLOTS CAST - TOTAL                                    BALLOTS CAST - TOTAL                  PRECINCT 11                                            00 
01020010012000109000006000056000047000000000000          BALLOTS CAST - TOTAL                                    BALLOTS CAST - TOTAL                  PRECINCT 12                                            00 
01020010013000191000022000077000092000000000000          BALLOTS CAST - TOTAL                                    BALLOTS CAST - TOTAL                  PRECINCT 13                                            00 
01020010014000043000003000020000020000000000000          BALLOTS CAST - TOTAL                                    BALLOTS CAST - TOTAL                  PRECINCT 14                                            00 
01020010015000212000017000074000121000000000000          BALLOTS CAST - TOTAL                                    BALLOTS CAST - TOTAL                  PRECINCT 15                                            00 
01020010016000114000014000033000067000000000000          BALLOTS CAST - TOTAL                                    BALLOTS CAST - TOTAL                  PRECINCT 16                                            00 
01020010017000099000011000048000040000000000000          BALLOTS CAST - TOTAL                                    BALLOTS CAST - TOTAL                  PRECINCT 17                                            00 
01020010018000038000008000004000026000000000000          BALLOTS CAST - TOTAL                                    BALLOTS CAST - TOTAL                  PRECINCT 18                                            00 
01020010020000059000005000001000053000000000000          BALLOTS CAST - TOTAL                                    BALLOTS CAST - TOTAL                  PRECINCT 20                                            00 
01020010021000232000032000104000096000000000000          BALLOTS CAST - TOTAL                                    BALLOTS CAST - TOTAL                  PRECINCT 21                                            00 
01020010022000236000019000091000126000000000000          BALLOTS CAST - TOTAL                                    BALLOTS CAST - TOTAL                  PRECINCT 22                                            00 
01020010023000334000027000169000138000000000000          BALLOTS CAST - TOTAL                                    BALLOTS CAST - TOTAL                  PRECINCT 23                                            00 
01020010024000039000004000019000016000000000000          BALLOTS CAST - TOTAL                                    BALLOTS CAST - TOTAL                  PRECINCT 24                                            00 
01020010025000029000003000016000010000000000000          BALLOTS CAST - TOTAL                                    BALLOTS CAST - TOTAL                  PRECINCT 25                                            00 
01020010026000029000004000014000011000000000000          BALLOTS CAST - TOTAL                                    BALLOTS CAST - TOTAL                  PRECINCT 26                                            00 
01020010027000453000032000235000186000000000000          BALLOTS CAST - TOTAL                                    BALLOTS CAST - TOTAL                  PRECINCT 27                                            00 
01020010028000138000021000047000070000000000000          BALLOTS CAST - TOTAL                                    BALLOTS CAST - TOTAL                  PRECINCT 28                                            00 
01020010029000186000012000077000097000000000000          BALLOTS CAST - TOTAL                                    BALLOTS CAST - TOTAL                  PRECINCT 29                                            00 
01020010030000111000008000045000058000000000000          BALLOTS CAST - TOTAL                                    BALLOTS CAST - TOTAL                  PRECINCT 30                                            00 
01030010001000152000009000043000100000000000000REP       BALLOTS CAST - REPUBLICAN PARTY                         BALLOTS CAST - REPUBLICAN PARTY       PRECINCT 1                                             00 
01030010002000004000001000000000003000000000000REP       BALLOTS CAST - REPUBLICAN PARTY                         BALLOTS CAST - REPUBLICAN PARTY       PRECINCT 2                                             00 
01030010003000229000028000039000162000000000000REP       BALLOTS CAST - REPUBLICAN PARTY                         BALLOTS CAST - REPUBLICAN PARTY       PRECINCT 3                                             00 
01030010004000076000003000034000039000000000000REP       BALLOTS CAST - REPUBLICAN PARTY                         BALLOTS CAST - REPUBLICAN PARTY       PRECINCT 4                                             00 
01030010005000112000009000009000094000000000000REP       BALLOTS CAST - REPUBLICAN PARTY                         BALLOTS CAST - REPUBLICAN PARTY       PRECINCT 5                                             00 
01030010006000232000035000033000164000000000000REP       BALLOTS CAST - REPUBLICAN PARTY                         BALLOTS CAST - REPUBLICAN PARTY       PRECINCT 6                                             00 
01030010007000226000008000053000165000000000000REP       BALLOTS CAST - REPUBLICAN PARTY                         BALLOTS CAST - REPUBLICAN PARTY       PRECINCT 7                                             00 
01030010008000357000044000072000241000000000000REP       BALLOTS CAST - REPUBLICAN PARTY                         BALLOTS CAST - REPUBLICAN PARTY       PRECINCT 8                                             00 
01030010009000094000003000018000073000000000000REP       BALLOTS CAST - REPUBLICAN PARTY                         BALLOTS CAST - REPUBLICAN PARTY       PRECINCT 9                                             00 
01030010011000061000004000026000031000000000000REP       BALLOTS CAST - REPUBLICAN PARTY                         BALLOTS CAST - REPUBLICAN PARTY       PRECINCT 11                                            00 
01030010012000106000006000054000046000000000000REP       BALLOTS CAST - REPUBLICAN PARTY                         BALLOTS CAST - REPUBLICAN PARTY       PRECINCT 12                                            00 
01030010013000166000016000062000088000000000000REP       BALLOTS CAST - REPUBLICAN PARTY                         BALLOTS CAST - REPUBLICAN PARTY       PRECINCT 13                                            00 
01030010014000039000001000018000020000000000000REP       BALLOTS CAST - REPUBLICAN PARTY                         BALLOTS CAST - REPUBLICAN PARTY       PRECINCT 14                                            00 
01030010015000199000012000071000116000000000000REP       BALLOTS CAST - REPUBLICAN PARTY                         BALLOTS CAST - REPUBLICAN PARTY       PRECINCT 15                                            00 
01030010016000105000011000030000064000000000000REP       BALLOTS CAST - REPUBLICAN PARTY                         BALLOTS CAST - REPUBLICAN PARTY       PRECINCT 16                                            00 
01030010017000078000006000041000031000000000000REP       BALLOTS CAST - REPUBLICAN PARTY                         BALLOTS CAST - REPUBLICAN PARTY       PRECINCT 17                                            00 
01030010018000029000005000004000020000000000000REP       BALLOTS CAST - REPUBLICAN PARTY                         BALLOTS CAST - REPUBLICAN PARTY       PRECINCT 18                                            00 
01030010020000058000005000001000052000000000000REP       BALLOTS CAST - REPUBLICAN PARTY                         BALLOTS CAST - REPUBLICAN PARTY       PRECINCT 20                                            00 
01030010021000207000030000096000081000000000000REP       BALLOTS CAST - REPUBLICAN PARTY                         BALLOTS CAST - REPUBLICAN PARTY       PRECINCT 21                                            00 
01030010022000215000013000083000119000000000000REP       BALLOTS CAST - REPUBLICAN PARTY                         BALLOTS CAST - REPUBLICAN PARTY       PRECINCT 22                                            00 
01030010023000300000022000151000127000000000000REP       BALLOTS CAST - REPUBLICAN PARTY                         BALLOTS CAST - REPUBLICAN PARTY       PRECINCT 23                                            00 
01030010024000033000003000017000013000000000000REP       BALLOTS CAST - REPUBLICAN PARTY                         BALLOTS CAST - REPUBLICAN PARTY       PRECINCT 24                                            00 
01030010025000026000003000014000009000000000000REP       BALLOTS CAST - REPUBLICAN PARTY                         BALLOTS CAST - REPUBLICAN PARTY       PRECINCT 25                                            00 
01030010026000024000004000013000007000000000000REP       BALLOTS CAST - REPUBLICAN PARTY                         BALLOTS CAST - REPUBLICAN PARTY       PRECINCT 26                                            00 
01030010027000417000027000220000170000000000000REP       BALLOTS CAST - REPUBLICAN PARTY                         BALLOTS CAST - REPUBLICAN PARTY       PRECINCT 27                                            00 
01030010028000120000016000043000061000000000000REP       BALLOTS CAST - REPUBLICAN PARTY                         BALLOTS CAST - REPUBLICAN PARTY       PRECINCT 28                                            00 
01030010029000162000008000073000081000000000000REP       BALLOTS CAST - REPUBLICAN PARTY                         BALLOTS CAST - REPUBLICAN PARTY       PRECINCT 29                                            00 
01030010030000079000006000034000039000000000000REP       BALLOTS CAST - REPUBLICAN PARTY                         BALLOTS CAST - REPUBLICAN PARTY       PRECINCT 30                                            00 
01040010001000030000007000012000011000000000000DEM       BALLOTS CAST - DEMOCRATIC PARTY                         BALLOTS CAST - DEMOCRATIC PARTY       PRECINCT 1                                             00 
01040010002000001000000000000000001000000000000DEM       BALLOTS CAST - DEMOCRATIC PARTY                         BALLOTS CAST - DEMOCRATIC PARTY       PRECINCT 2                                             00 
01040010003000018000001000005000012000000000000DEM       BALLOTS CAST - DEMOCRATIC PARTY                         BALLOTS CAST - DEMOCRATIC PARTY       PRECINCT 3                                             00 
01040010004000006000000000002000004000000000000DEM       BALLOTS CAST - DEMOCRATIC PARTY                         BALLOTS CAST - DEMOCRATIC PARTY       PRECINCT 4                                             00 
01040010005000023000001000003000019000000000000DEM       BALLOTS CAST - DEMOCRATIC PARTY                         BALLOTS CAST - DEMOCRATIC PARTY       PRECINCT 5                                             00 
01040010006000029000005000006000018000000000000DEM       BALLOTS CAST - DEMOCRATIC PARTY                         BALLOTS CAST - DEMOCRATIC PARTY       PRECINCT 6                                             00 
01040010007000012000000000006000006000000000000DEM       BALLOTS CAST - DEMOCRATIC PARTY                         BALLOTS CAST - DEMOCRATIC PARTY       PRECINCT 7                                             00 
01040010008000024000004000007000013000000000000DEM       BALLOTS CAST - DEMOCRATIC PARTY                         BALLOTS CAST - DEMOCRATIC PARTY       PRECINCT 8                                             00 
01040010009000009000002000004000003000000000000DEM       BALLOTS CAST - DEMOCRATIC PARTY                         BALLOTS CAST - DEMOCRATIC PARTY       PRECINCT 9                                             00 
01040010011000006000000000002000004000000000000DEM       BALLOTS CAST - DEMOCRATIC PARTY                         BALLOTS CAST - DEMOCRATIC PARTY       PRECINCT 11                                            00 
01040010012000003000000000002000001000000000000DEM       BALLOTS CAST - DEMOCRATIC PARTY                         BALLOTS CAST - DEMOCRATIC PARTY       PRECINCT 12                                            00 
01040010013000025000006000015000004000000000000DEM       BALLOTS CAST - DEMOCRATIC PARTY                         BALLOTS CAST - DEMOCRATIC PARTY       PRECINCT 13                                            00 
01040010014000004000002000002000000000000000000DEM       BALLOTS CAST - DEMOCRATIC PARTY                         BALLOTS CAST - DEMOCRATIC PARTY       PRECINCT 14                                            00 
01040010015000013000005000003000005000000000000DEM       BALLOTS CAST - DEMOCRATIC PARTY                         BALLOTS CAST - DEMOCRATIC PARTY       PRECINCT 15                                            00 
01040010016000009000003000003000003000000000000DEM       BALLOTS CAST - DEMOCRATIC PARTY                         BALLOTS CAST - DEMOCRATIC PARTY       PRECINCT 16                                            00 
01040010017000021000005000007000009000000000000DEM       BALLOTS CAST - DEMOCRATIC PARTY                         BALLOTS CAST - DEMOCRATIC PARTY       PRECINCT 17                                            00 
01040010018000009000003000000000006000000000000DEM       BALLOTS CAST - DEMOCRATIC PARTY                         BALLOTS CAST - DEMOCRATIC PARTY       PRECINCT 18                                            00 
01040010020000001000000000000000001000000000000DEM       BALLOTS CAST - DEMOCRATIC PARTY                         BALLOTS CAST - DEMOCRATIC PARTY       PRECINCT 20                                            00 
01040010021000025000002000008000015000000000000DEM       BALLOTS CAST - DEMOCRATIC PARTY                         BALLOTS CAST - DEMOCRATIC PARTY       PRECINCT 21                                            00 
01040010022000021000006000008000007000000000000DEM       BALLOTS CAST - DEMOCRATIC PARTY                         BALLOTS CAST - DEMOCRATIC PARTY       PRECINCT 22                                            00 
01040010023000034000005000018000011000000000000DEM       BALLOTS CAST - DEMOCRATIC PARTY                         BALLOTS CAST - DEMOCRATIC PARTY       PRECINCT 23                                            00 
01040010024000006000001000002000003000000000000DEM       BALLOTS CAST - DEMOCRATIC PARTY                         BALLOTS CAST - DEMOCRATIC PARTY       PRECINCT 24                                            00 
01040010025000003000000000002000001000000000000DEM       BALLOTS CAST - DEMOCRATIC PARTY                         BALLOTS CAST - DEMOCRATIC PARTY       PRECINCT 25                                            00 
01040010026000005000000000001000004000000000000DEM       BALLOTS CAST - DEMOCRATIC PARTY                         BALLOTS CAST - DEMOCRATIC PARTY       PRECINCT 26                                            00 
01040010027000036000005000015000016000000000000DEM       BALLOTS CAST - DEMOCRATIC PARTY                         BALLOTS CAST - DEMOCRATIC PARTY       PRECINCT 27                                            00 
01040010028000018000005000004000009000000000000DEM       BALLOTS CAST - DEMOCRATIC PARTY                         BALLOTS CAST - DEMOCRATIC PARTY       PRECINCT 28                                            00 
01040010029000024000004000004000016000000000000DEM       BALLOTS CAST - DEMOCRATIC PARTY                         BALLOTS CAST - DEMOCRATIC PARTY       PRECINCT 29                                            00 
01040010030000032000002000011000019000000000000DEM       BALLOTS CAST - DEMOCRATIC PARTY                         BALLOTS CAST - DEMOCRATIC PARTY       PRECINCT 30                                            00 
01050010001000127000008000035000084000000000000REP       US Senator                                              Ted Cruz                              PRECINCT 1                                             01 
01050010002000003000001000000000002000000000000REP       US Senator                                              Ted Cruz                              PRECINCT 2                                             01 
01050010003000189000022000033000134000000000000REP       US Senator                                              Ted Cruz                              PRECINCT 3                                             01 
01050010004000063000003000028000032000000000000REP       US Senator                                              Ted Cruz                              PRECINCT 4                                             01 
01050010005000089000008000006000075000000000000REP       US Senator                                              Ted Cruz                              PRECINCT 5                                             01 
01050010006000168000027000024000117000000000000REP       US Senator                                              Ted Cruz                              PRECINCT 6                                             01 
01050010007000192000006000042000144000000000000REP       US Senator                                              Ted Cruz                              PRECINCT 7                                             01 
01050010008000314000038000066000210000000000000REP       US Senator                                              Ted Cruz                              PRECINCT 8                                             01 
01050010009000077000003000017000057000000000000REP       US Senator                                              Ted Cruz                              PRECINCT 9                                             01 
01050010011000051000004000022000025000000000000REP       US Senator                                              Ted Cruz                              PRECINCT 11                                            01 
01050010012000089000006000045000038000000000000REP       US Senator                                              Ted Cruz                              PRECINCT 12                                            01 
01050010013000143000016000049000078000000000000REP       US Senator                                              Ted Cruz                              PRECINCT 13                                            01 
01050010014000031000001000014000016000000000000REP       US Senator                                              Ted Cruz                              PRECINCT 14                                            01 
01050010015000165000011000056000098000000000000REP       US Senator                                              Ted Cruz                              PRECINCT 15                                            01 
01050010016000091000009000026000056000000000000REP       US Senator                                              Ted Cruz                              PRECINCT 16                                            01 
01050010017000064000003000033000028000000000000REP       US Senator                                              Ted Cruz                              PRECINCT 17                                            01 
01050010018000023000005000002000016000000000000REP       US Senator                                              Ted Cruz                              PRECINCT 18                                            01 
01050010020000049000005000001000043000000000000REP       US Senator                                              Ted Cruz                              PRECINCT 20                                            01 
01050010021000164000025000071000068000000000000REP       US Senator                                              Ted Cruz                              PRECINCT 21                                            01 
01050010022000182000013000063000106000000000000REP       US Senator                                              Ted Cruz                              PRECINCT 22                                            01 
01050010023000223000020000104000099000000000000REP       US Senator                                              Ted Cruz                              PRECINCT 23                                            01 
01050010024000026000003000015000008000000000000REP       US Senator                                              Ted Cruz                              PRECINCT 24                                            01 
01050010025000023000002000012000009000000000000REP       US Senator                                              Ted Cruz                              PRECINCT 25                                            01 
01050010026000019000003000010000006000000000000REP       US Senator                                              Ted Cruz                              PRECINCT 26                                            01 
01050010027000312000019000174000119000000000000REP       US Senator                                              Ted Cruz                              PRECINCT 27                                            01 
01050010028000102000011000042000049000000000000REP       US Senator                                              Ted Cruz                              PRECINCT 28                                            01 
01050010029000127000005000058000064000000000000REP       US Senator                                              Ted Cruz                              PRECINCT 29                                            01 
01050010030000070000005000031000034000000000000REP       US Senator                                              Ted Cruz                              PRECINCT 30                                            01 
01050020001000008000001000001000006000000000000REP       US Senator                                              Bruce Jacobson, Jr.                   PRECINCT 1                                             01 
01050020002000000000000000000000000000000000000REP       US Senator                                              Bruce Jacobson, Jr.                   PRECINCT 2                                             01 
01050020003000016000002000001000013000000000000REP       US Senator                                              Bruce Jacobson, Jr.                   PRECINCT 3                                             01 
01050020004000007000000000004000003000000000000REP       US Senator                                              Bruce Jacobson, Jr.                   PRECINCT 4                                             01 
01050020005000004000000000000000004000000000000REP       US Senator                                              Bruce Jacobson, Jr.                   PRECINCT 5                                             01 
01050020006000024000002000003000019000000000000REP       US Senator                                              Bruce Jacobson, Jr.                   PRECINCT 6                                             01 
01050020007000008000000000004000004000000000000REP       US Senator                                              Bruce Jacobson, Jr.                   PRECINCT 7                                             01 
01050020008000009000002000001000006000000000000REP       US Senator                                              Bruce Jacobson, Jr.                   PRECINCT 8                                             01 
01050020009000005000000000000000005000000000000REP       US Senator                                              Bruce Jacobson, Jr.                   PRECINCT 9                                             01 
01050020011000004000000000002000002000000000000REP       US Senator                                              Bruce Jacobson, Jr.                   PRECINCT 11                                            01 
01050020012000004000000000001000003000000000000REP       US Senator                                              Bruce Jacobson, Jr.                   PRECINCT 12                                            01 
01050020013000008000000000005000003000000000000REP       US Senator                                              Bruce Jacobson, Jr.                   PRECINCT 13                                            01 
01050020014000001000000000000000001000000000000REP       US Senator                                              Bruce Jacobson, Jr.                   PRECINCT 14                                            01 
01050020015000011000001000005000005000000000000REP       US Senator                                              Bruce Jacobson, Jr.                   PRECINCT 15                                            01 
01050020016000007000002000002000003000000000000REP       US Senator                                              Bruce Jacobson, Jr.                   PRECINCT 16                                            01 
01050020017000008000003000003000002000000000000REP       US Senator                                              Bruce Jacobson, Jr.                   PRECINCT 17                                            01 
01050020018000000000000000000000000000000000000REP       US Senator                                              Bruce Jacobson, Jr.                   PRECINCT 18                                            01 
01050020020000005000000000000000005000000000000REP       US Senator                                              Bruce Jacobson, Jr.                   PRECINCT 20                                            01 
01050020021000015000004000007000004000000000000REP       US Senator                                              Bruce Jacobson, Jr.                   PRECINCT 21                                            01 
01050020022000008000000000007000001000000000000REP       US Senator                                              Bruce Jacobson, Jr.                   PRECINCT 22                                            01 
01050020023000027000000000014000013000000000000REP       US Senator                                              Bruce Jacobson, Jr.                   PRECINCT 23                                            01 
01050020024000001000000000001000000000000000000REP       US Senator                                              Bruce Jacobson, Jr.                   PRECINCT 24                                            01 
01050020025000000000000000000000000000000000000REP       US Senator                                              Bruce Jacobson, Jr.                   PRECINCT 25                                            01 
01050020026000001000000000001000000000000000000REP       US Senator                                              Bruce Jacobson, Jr.                   PRECINCT 26                                            01 
01050020027000035000003000015000017000000000000REP       US Senator                                              Bruce Jacobson, Jr.                   PRECINCT 27                                            01 
01050020028000007000003000000000004000000000000REP       US Senator                                              Bruce Jacobson, Jr.                   PRECINCT 28                                            01 
01050020029000009000002000002000005000000000000REP       US Senator                                              Bruce Jacobson, Jr.                   PRECINCT 29                                            01 
01050020030000005000001000001000003000000000000REP       US Senator                                              Bruce Jacobson, Jr.                   PRECINCT 30                                            01 
01050030001000004000000000000000004000000000000REP       US Senator                                              Stefano de Stefano                    PRECINCT 1                                             01 
01050030002000000000000000000000000000000000000REP       US Senator                                              Stefano de Stefano                    PRECINCT 2                                             01 
01050030003000002000000000001000001000000000000REP       US Senator                                              Stefano de Stefano                    PRECINCT 3                                             01 
01050030004000000000000000000000000000000000000REP       US Senator                                              Stefano de Stefano                    PRECINCT 4                                             01 
01050030005000002000000000001000001000000000000REP       US Senator                                              Stefano de Stefano                    PRECINCT 5                                             01 
01050030006000009000001000004000004000000000000REP       US Senator                                              Stefano de Stefano                    PRECINCT 6                                             01 
01050030007000006000002000001000003000000000000REP       US Senator                                              Stefano de Stefano                    PRECINCT 7                                             01 
01050030008000002000001000001000000000000000000REP       US Senator                                              Stefano de Stefano                    PRECINCT 8                                             01 
01050030009000003000000000001000002000000000000REP       US Senator                                              Stefano de Stefano                    PRECINCT 9                                             01 
01050030011000001000000000000000001000000000000REP       US Senator                                              Stefano de Stefano                    PRECINCT 11                                            01 
01050030012000000000000000000000000000000000000REP       US Senator                                              Stefano de Stefano                    PRECINCT 12                                            01 
01050030013000000000000000000000000000000000000REP       US Senator                                              Stefano de Stefano                    PRECINCT 13                                            01 
01050030014000000000000000000000000000000000000REP       US Senator                                              Stefano de Stefano                    PRECINCT 14                                            01 
01050030015000000000000000000000000000000000000REP       US Senator                                              Stefano de Stefano                    PRECINCT 15                                            01 
01050030016000000000000000000000000000000000000REP       US Senator                                              Stefano de Stefano                    PRECINCT 16                                            01 
01050030017000001000000000000000001000000000000REP       US Senator                                              Stefano de Stefano                    PRECINCT 17                                            01 
01050030018000001000000000000000001000000000000REP       US Senator                                              Stefano de Stefano                    PRECINCT 18                                            01 
01050030020000001000000000000000001000000000000REP       US Senator                                              Stefano de Stefano                    PRECINCT 20                                            01 
01050030021000004000000000002000002000000000000REP       US Senator                                              Stefano de Stefano                    PRECINCT 21                                            01 
01050030022000001000000000000000001000000000000REP       US Senator                                              Stefano de Stefano                    PRECINCT 22                                            01 
01050030023000007000000000005000002000000000000REP       US Senator                                              Stefano de Stefano                    PRECINCT 23                                            01 
01050030024000001000000000000000001000000000000REP       US Senator                                              Stefano de Stefano                    PRECINCT 24                                            01 
01050030025000000000000000000000000000000000000REP       US Senator                                              Stefano de Stefano                    PRECINCT 25                                            01 
01050030026000000000000000000000000000000000000REP       US Senator                                              Stefano de Stefano                    PRECINCT 26                                            01 
01050030027000012000001000005000006000000000000REP       US Senator                                              Stefano de Stefano                    PRECINCT 27                                            01 
01050030028000002000001000000000001000000000000REP       US Senator                                              Stefano de Stefano                    PRECINCT 28                                            01 
01050030029000002000000000002000000000000000000REP       US Senator                                              Stefano de Stefano                    PRECINCT 29                                            01 
01050030030000000000000000000000000000000000000REP       US Senator                                              Stefano de Stefano                    PRECINCT 30                                            01 
01050040001000008000000000004000004000000000000REP       US Senator                                              Mary Miller                           PRECINCT 1                                             01 
01050040002000000000000000000000000000000000000REP       US Senator                                              Mary Miller                           PRECINCT 2                                             01 
01050040003000009000002000002000005000000000000REP       US Senator                                              Mary Miller                           PRECINCT 3                                             01 
01050040004000004000000000001000003000000000000REP       US Senator                                              Mary Miller                           PRECINCT 4                                             01 
01050040005000010000001000002000007000000000000REP       US Senator                                              Mary Miller                           PRECINCT 5                                             01 
01050040006000016000001000002000013000000000000REP       US Senator                                              Mary Miller                           PRECINCT 6                                             01 
01050040007000011000000000004000007000000000000REP       US Senator                                              Mary Miller                           PRECINCT 7                                             01 
01050040008000015000000000002000013000000000000REP       US Senator                                              Mary Miller                           PRECINCT 8                                             01 
01050040009000006000000000000000006000000000000REP       US Senator                                              Mary Miller                           PRECINCT 9                                             01 
01050040011000002000000000001000001000000000000REP       US Senator                                              Mary Miller                           PRECINCT 11                                            01 
01050040012000007000000000006000001000000000000REP       US Senator                                              Mary Miller                           PRECINCT 12                                            01 
01050040013000009000000000004000005000000000000REP       US Senator                                              Mary Miller                           PRECINCT 13                                            01 
01050040014000003000000000003000000000000000000REP       US Senator                                              Mary Miller                           PRECINCT 14                                            01 
01050040015000012000000000005000007000000000000REP       US Senator                                              Mary Miller                           PRECINCT 15                                            01 
01050040016000004000000000000000004000000000000REP       US Senator                                              Mary Miller                           PRECINCT 16                                            01 
01050040017000004000000000004000000000000000000REP       US Senator                                              Mary Miller                           PRECINCT 17                                            01 
01050040018000002000000000001000001000000000000REP       US Senator                                              Mary Miller                           PRECINCT 18                                            01 
01050040020000003000000000000000003000000000000REP       US Senator                                              Mary Miller                           PRECINCT 20                                            01 
01050040021000015000000000010000005000000000000REP       US Senator                                              Mary Miller                           PRECINCT 21                                            01 
01050040022000012000000000003000009000000000000REP       US Senator                                              Mary Miller                           PRECINCT 22                                            01 
01050040023000019000002000010000007000000000000REP       US Senator                                              Mary Miller                           PRECINCT 23                                            01 
01050040024000003000000000000000003000000000000REP       US Senator                                              Mary Miller                           PRECINCT 24                                            01 
01050040025000001000000000001000000000000000000REP       US Senator                                              Mary Miller                           PRECINCT 25                                            01 
01050040026000003000000000002000001000000000000REP       US Senator                                              Mary Miller                           PRECINCT 26                                            01 
01050040027000030000002000013000015000000000000REP       US Senator                                              Mary Miller                           PRECINCT 27                                            01 
01050040028000003000001000001000001000000000000REP       US Senator                                              Mary Miller                           PRECINCT 28                                            01 
01050040029000011000001000006000004000000000000REP       US Senator                                              Mary Miller                           PRECINCT 29                                            01 
01050040030000003000000000001000002000000000000REP       US Senator                                              Mary Miller                           PRECINCT 30                                            01 
01050050001000000000000000000000000000000000000REP       US Senator                                              Geraldine Sam                         PRECINCT 1                                             01 
01050050002000000000000000000000000000000000000REP       US Senator                                              Geraldine Sam                         PRECINCT 2                                             01 
01050050003000004000002000000000002000000000000REP       US Senator                                              Geraldine Sam                         PRECINCT 3                                             01 
01050050004000001000000000000000001000000000000REP       US Senator                                              Geraldine Sam                         PRECINCT 4                                             01 
01050050005000002000000000000000002000000000000REP       US Senator                                              Geraldine Sam                         PRECINCT 5                                             01 
01050050006000007000003000000000004000000000000REP       US Senator                                              Geraldine Sam                         PRECINCT 6                                             01 
01050050007000001000000000001000000000000000000REP       US Senator                                              Geraldine Sam                         PRECINCT 7                                             01 
01050050008000001000000000000000001000000000000REP       US Senator                                              Geraldine Sam                         PRECINCT 8                                             01 
01050050009000000000000000000000000000000000000REP       US Senator                                              Geraldine Sam                         PRECINCT 9                                             01 
01050050011000000000000000000000000000000000000REP       US Senator                                              Geraldine Sam                         PRECINCT 11                                            01 
01050050012000000000000000000000000000000000000REP       US Senator                                              Geraldine Sam                         PRECINCT 12                                            01 
01050050013000002000000000001000001000000000000REP       US Senator                                              Geraldine Sam                         PRECINCT 13                                            01 
01050050014000001000000000000000001000000000000REP       US Senator                                              Geraldine Sam                         PRECINCT 14                                            01 
01050050015000002000000000001000001000000000000REP       US Senator                                              Geraldine Sam                         PRECINCT 15                                            01 
01050050016000000000000000000000000000000000000REP       US Senator                                              Geraldine Sam                         PRECINCT 16                                            01 
01050050017000000000000000000000000000000000000REP       US Senator                                              Geraldine Sam                         PRECINCT 17                                            01 
01050050018000000000000000000000000000000000000REP       US Senator                                              Geraldine Sam                         PRECINCT 18                                            01 
01050050020000000000000000000000000000000000000REP       US Senator                                              Geraldine Sam                         PRECINCT 20                                            01 
01050050021000003000001000000000002000000000000REP       US Senator                                              Geraldine Sam                         PRECINCT 21                                            01 
01050050022000001000000000001000000000000000000REP       US Senator                                              Geraldine Sam                         PRECINCT 22                                            01 
01050050023000002000000000002000000000000000000REP       US Senator                                              Geraldine Sam                         PRECINCT 23                                            01 
01050050024000000000000000000000000000000000000REP       US Senator                                              Geraldine Sam                         PRECINCT 24                                            01 
01050050025000001000001000000000000000000000000REP       US Senator                                              Geraldine Sam                         PRECINCT 25                                            01 
01050050026000000000000000000000000000000000000REP       US Senator                                              Geraldine Sam                         PRECINCT 26                                            01 
01050050027000006000001000003000002000000000000REP       US Senator                                              Geraldine Sam                         PRECINCT 27                                            01 
01050050028000002000000000000000002000000000000REP       US Senator                                              Geraldine Sam                         PRECINCT 28                                            01 
01050050029000003000000000001000002000000000000REP       US Senator                                              Geraldine Sam                         PRECINCT 29                                            01 
01050050030000000000000000000000000000000000000REP       US Senator                                              Geraldine Sam                         PRECINCT 30                                            01 
01050060001000000000000000000000000000000000000REP       US Senator                                              OVER VOTES                            PRECINCT 1                                             01 
01050060002000000000000000000000000000000000000REP       US Senator                                              OVER VOTES                            PRECINCT 2                                             01 
01050060003000000000000000000000000000000000000REP       US Senator                                              OVER VOTES                            PRECINCT 3                                             01 
01050060004000000000000000000000000000000000000REP       US Senator                                              OVER VOTES                            PRECINCT 4                                             01 
01050060005000000000000000000000000000000000000REP       US Senator                                              OVER VOTES                            PRECINCT 5                                             01 
01050060006000000000000000000000000000000000000REP       US Senator                                              OVER VOTES                            PRECINCT 6                                             01 
01050060007000000000000000000000000000000000000REP       US Senator                                              OVER VOTES                            PRECINCT 7                                             01 
01050060008000000000000000000000000000000000000REP       US Senator                                              OVER VOTES                            PRECINCT 8                                             01 
01050060009000000000000000000000000000000000000REP       US Senator                                              OVER VOTES                            PRECINCT 9                                             01 
01050060011000000000000000000000000000000000000REP       US Senator                                              OVER VOTES                            PRECINCT 11                                            01 
01050060012000000000000000000000000000000000000REP       US Senator                                              OVER VOTES                            PRECINCT 12                                            01 
01050060013000000000000000000000000000000000000REP       US Senator                                              OVER VOTES                            PRECINCT 13                                            01 
01050060014000000000000000000000000000000000000REP       US Senator                                              OVER VOTES                            PRECINCT 14                                            01 
01050060015000000000000000000000000000000000000REP       US Senator                                              OVER VOTES                            PRECINCT 15                                            01 
01050060016000000000000000000000000000000000000REP       US Senator                                              OVER VOTES                            PRECINCT 16                                            01 
01050060017000000000000000000000000000000000000REP       US Senator                                              OVER VOTES                            PRECINCT 17                                            01 
01050060018000000000000000000000000000000000000REP       US Senator                                              OVER VOTES                            PRECINCT 18                                            01 
01050060020000000000000000000000000000000000000REP       US Senator                                              OVER VOTES                            PRECINCT 20                                            01 
01050060021000000000000000000000000000000000000REP       US Senator                                              OVER VOTES                            PRECINCT 21                                            01 
01050060022000000000000000000000000000000000000REP       US Senator                                              OVER VOTES                            PRECINCT 22                                            01 
01050060023000000000000000000000000000000000000REP       US Senator                                              OVER VOTES                            PRECINCT 23                                            01 
01050060024000000000000000000000000000000000000REP       US Senator                                              OVER VOTES                            PRECINCT 24                                            01 
01050060025000000000000000000000000000000000000REP       US Senator                                              OVER VOTES                            PRECINCT 25                                            01 
01050060026000000000000000000000000000000000000REP       US Senator                                              OVER VOTES                            PRECINCT 26                                            01 
01050060027000000000000000000000000000000000000REP       US Senator                                              OVER VOTES                            PRECINCT 27                                            01 
01050060028000000000000000000000000000000000000REP       US Senator                                              OVER VOTES                            PRECINCT 28                                            01 
01050060029000000000000000000000000000000000000REP       US Senator                                              OVER VOTES                            PRECINCT 29                                            01 
01050060030000000000000000000000000000000000000REP       US Senator                                              OVER VOTES                            PRECINCT 30                                            01 
01050070001000005000000000003000002000000000000REP       US Senator                                              UNDER VOTES                           PRECINCT 1                                             01 
01050070002000001000000000000000001000000000000REP       US Senator                                              UNDER VOTES                           PRECINCT 2                                             01 
01050070003000009000000000002000007000000000000REP       US Senator                                              UNDER VOTES                           PRECINCT 3                                             01 
01050070004000001000000000001000000000000000000REP       US Senator                                              UNDER VOTES                           PRECINCT 4                                             01 
01050070005000005000000000000000005000000000000REP       US Senator                                              UNDER VOTES                           PRECINCT 5                                             01 
01050070006000008000001000000000007000000000000REP       US Senator                                              UNDER VOTES                           PRECINCT 6                                             01 
01050070007000008000000000001000007000000000000REP       US Senator                                              UNDER VOTES                           PRECINCT 7                                             01 
01050070008000016000003000002000011000000000000REP       US Senator                                              UNDER VOTES                           PRECINCT 8                                             01 
01050070009000003000000000000000003000000000000REP       US Senator                                              UNDER VOTES                           PRECINCT 9                                             01 
01050070011000003000000000001000002000000000000REP       US Senator                                              UNDER VOTES                           PRECINCT 11                                            01 
01050070012000006000000000002000004000000000000REP       US Senator                                              UNDER VOTES                           PRECINCT 12                                            01 
01050070013000004000000000003000001000000000000REP       US Senator                                              UNDER VOTES                           PRECINCT 13                                            01 
01050070014000003000000000001000002000000000000REP       US Senator                                              UNDER VOTES                           PRECINCT 14                                            01 
01050070015000009000000000004000005000000000000REP       US Senator                                              UNDER VOTES                           PRECINCT 15                                            01 
01050070016000003000000000002000001000000000000REP       US Senator                                              UNDER VOTES                           PRECINCT 16                                            01 
01050070017000001000000000001000000000000000000REP       US Senator                                              UNDER VOTES                           PRECINCT 17                                            01 
01050070018000003000000000001000002000000000000REP       US Senator                                              UNDER VOTES                           PRECINCT 18                                            01 
01050070020000000000000000000000000000000000000REP       US Senator                                              UNDER VOTES                           PRECINCT 20                                            01 
01050070021000006000000000006000000000000000000REP       US Senator                                              UNDER VOTES                           PRECINCT 21                                            01 
01050070022000011000000000009000002000000000000REP       US Senator                                              UNDER VOTES                           PRECINCT 22                                            01 
01050070023000022000000000016000006000000000000REP       US Senator                                              UNDER VOTES                           PRECINCT 23                                            01 
01050070024000002000000000001000001000000000000REP       US Senator                                              UNDER VOTES                           PRECINCT 24                                            01 
01050070025000001000000000001000000000000000000REP       US Senator                                              UNDER VOTES                           PRECINCT 25                                            01 
01050070026000001000001000000000000000000000000REP       US Senator                                              UNDER VOTES                           PRECINCT 26                                            01 
01050070027000022000001000010000011000000000000REP       US Senator                                              UNDER VOTES                           PRECINCT 27                                            01 
01050070028000004000000000000000004000000000000REP       US Senator                                              UNDER VOTES                           PRECINCT 28                                            01 
01050070029000010000000000004000006000000000000REP       US Senator                                              UNDER VOTES                           PRECINCT 29                                            01 
01050070030000001000000000001000000000000000000REP       US Senator                                              UNDER VOTES                           PRECINCT 30                                            01 
01060010001000109000003000031000075000000000000REP       US Representative, District 11                          Mike Conaway                          PRECINCT 1                                             01 
01060010002000001000000000000000001000000000000REP       US Representative, District 11                          Mike Conaway                          PRECINCT 2                                             01 
01060010003000152000021000031000100000000000000REP       US Representative, District 11                          Mike Conaway                          PRECINCT 3                                             01 
01060010004000057000003000025000029000000000000REP       US Representative, District 11                          Mike Conaway                          PRECINCT 4                                             01 
01060010005000085000007000008000070000000000000REP       US Representative, District 11                          Mike Conaway                          PRECINCT 5                                             01 
01060010006000143000017000024000102000000000000REP       US Representative, District 11                          Mike Conaway                          PRECINCT 6                                             01 
01060010007000156000007000034000115000000000000REP       US Representative, District 11                          Mike Conaway                          PRECINCT 7                                             01 
01060010008000234000028000049000157000000000000REP       US Representative, District 11                          Mike Conaway                          PRECINCT 8                                             01 
01060010009000067000001000015000051000000000000REP       US Representative, District 11                          Mike Conaway                          PRECINCT 9                                             01 
01060010011000042000004000019000019000000000000REP       US Representative, District 11                          Mike Conaway                          PRECINCT 11                                            01 
01060010012000080000006000042000032000000000000REP       US Representative, District 11                          Mike Conaway                          PRECINCT 12                                            01 
01060010013000131000015000050000066000000000000REP       US Representative, District 11                          Mike Conaway                          PRECINCT 13                                            01 
01060010014000026000001000012000013000000000000REP       US Representative, District 11                          Mike Conaway                          PRECINCT 14                                            01 
01060010015000148000010000051000087000000000000REP       US Representative, District 11                          Mike Conaway                          PRECINCT 15                                            01 
01060010016000071000007000020000044000000000000REP       US Representative, District 11                          Mike Conaway                          PRECINCT 16                                            01 
01060010017000054000000000030000024000000000000REP       US Representative, District 11                          Mike Conaway                          PRECINCT 17                                            01 
01060010018000020000004000002000014000000000000REP       US Representative, District 11                          Mike Conaway                          PRECINCT 18                                            01 
01060010020000039000001000001000037000000000000REP       US Representative, District 11                          Mike Conaway                          PRECINCT 20                                            01 
01060010021000151000019000071000061000000000000REP       US Representative, District 11                          Mike Conaway                          PRECINCT 21                                            01 
01060010022000154000008000054000092000000000000REP       US Representative, District 11                          Mike Conaway                          PRECINCT 22                                            01 
01060010023000198000013000099000086000000000000REP       US Representative, District 11                          Mike Conaway                          PRECINCT 23                                            01 
01060010024000021000003000012000006000000000000REP       US Representative, District 11                          Mike Conaway                          PRECINCT 24                                            01 
01060010025000020000002000009000009000000000000REP       US Representative, District 11                          Mike Conaway                          PRECINCT 25                                            01 
01060010026000015000001000012000002000000000000REP       US Representative, District 11                          Mike Conaway                          PRECINCT 26                                            01 
01060010027000284000020000157000107000000000000REP       US Representative, District 11                          Mike Conaway                          PRECINCT 27                                            01 
01060010028000093000012000039000042000000000000REP       US Representative, District 11                          Mike Conaway                          PRECINCT 28                                            01 
01060010029000115000005000054000056000000000000REP       US Representative, District 11                          Mike Conaway                          PRECINCT 29                                            01 
01060010030000054000006000022000026000000000000REP       US Representative, District 11                          Mike Conaway                          PRECINCT 30                                            01 
01060020001000027000004000005000018000000000000REP       US Representative, District 11                          Paul Myers                            PRECINCT 1                                             01 
01060020002000000000000000000000000000000000000REP       US Representative, District 11                          Paul Myers                            PRECINCT 2                                             01 
01060020003000045000003000005000037000000000000REP       US Representative, District 11                          Paul Myers                            PRECINCT 3                                             01 
01060020004000012000000000006000006000000000000REP       US Representative, District 11                          Paul Myers                            PRECINCT 4                                             01 
01060020005000015000001000000000014000000000000REP       US Representative, District 11                          Paul Myers                            PRECINCT 5                                             01 
01060020006000053000006000008000039000000000000REP       US Representative, District 11                          Paul Myers                            PRECINCT 6                                             01 
01060020007000037000000000011000026000000000000REP       US Representative, District 11                          Paul Myers                            PRECINCT 7                                             01 
01060020008000073000009000012000052000000000000REP       US Representative, District 11                          Paul Myers                            PRECINCT 8                                             01 
01060020009000017000002000003000012000000000000REP       US Representative, District 11                          Paul Myers                            PRECINCT 9                                             01 
01060020011000009000000000005000004000000000000REP       US Representative, District 11                          Paul Myers                            PRECINCT 11                                            01 
01060020012000017000000000010000007000000000000REP       US Representative, District 11                          Paul Myers                            PRECINCT 12                                            01 
01060020013000019000000000007000012000000000000REP       US Representative, District 11                          Paul Myers                            PRECINCT 13                                            01 
01060020014000008000000000004000004000000000000REP       US Representative, District 11                          Paul Myers                            PRECINCT 14                                            01 
01060020015000033000002000014000017000000000000REP       US Representative, District 11                          Paul Myers                            PRECINCT 15                                            01 
01060020016000028000003000009000016000000000000REP       US Representative, District 11                          Paul Myers                            PRECINCT 16                                            01 
01060020017000017000004000008000005000000000000REP       US Representative, District 11                          Paul Myers                            PRECINCT 17                                            01 
01060020018000004000001000000000003000000000000REP       US Representative, District 11                          Paul Myers                            PRECINCT 18                                            01 
01060020020000014000002000000000012000000000000REP       US Representative, District 11                          Paul Myers                            PRECINCT 20                                            01 
01060020021000039000009000015000015000000000000REP       US Representative, District 11                          Paul Myers                            PRECINCT 21                                            01 
01060020022000036000003000016000017000000000000REP       US Representative, District 11                          Paul Myers                            PRECINCT 22                                            01 
01060020023000060000007000025000028000000000000REP       US Representative, District 11                          Paul Myers                            PRECINCT 23                                            01 
01060020024000008000000000003000005000000000000REP       US Representative, District 11                          Paul Myers                            PRECINCT 24                                            01 
01060020025000005000001000004000000000000000000REP       US Representative, District 11                          Paul Myers                            PRECINCT 25                                            01 
01060020026000004000001000001000002000000000000REP       US Representative, District 11                          Paul Myers                            PRECINCT 26                                            01 
01060020027000086000005000042000039000000000000REP       US Representative, District 11                          Paul Myers                            PRECINCT 27                                            01 
01060020028000013000003000001000009000000000000REP       US Representative, District 11                          Paul Myers                            PRECINCT 28                                            01 
01060020029000023000002000009000012000000000000REP       US Representative, District 11                          Paul Myers                            PRECINCT 29                                            01 
01060020030000014000000000004000010000000000000REP       US Representative, District 11                          Paul Myers                            PRECINCT 30                                            01 
01060030001000000000000000000000000000000000000REP       US Representative, District 11                          OVER VOTES                            PRECINCT 1                                             01 
01060030002000000000000000000000000000000000000REP       US Representative, District 11                          OVER VOTES                            PRECINCT 2                                             01 
01060030003000000000000000000000000000000000000REP       US Representative, District 11                          OVER VOTES                            PRECINCT 3                                             01 
01060030004000000000000000000000000000000000000REP       US Representative, District 11                          OVER VOTES                            PRECINCT 4                                             01 
01060030005000000000000000000000000000000000000REP       US Representative, District 11                          OVER VOTES                            PRECINCT 5                                             01 
01060030006000000000000000000000000000000000000REP       US Representative, District 11                          OVER VOTES                            PRECINCT 6                                             01 
01060030007000000000000000000000000000000000000REP       US Representative, District 11                          OVER VOTES                            PRECINCT 7                                             01 
01060030008000001000001000000000000000000000000REP       US Representative, District 11                          OVER VOTES                            PRECINCT 8                                             01 
01060030009000000000000000000000000000000000000REP       US Representative, District 11                          OVER VOTES                            PRECINCT 9                                             01 
01060030011000000000000000000000000000000000000REP       US Representative, District 11                          OVER VOTES                            PRECINCT 11                                            01 
01060030012000000000000000000000000000000000000REP       US Representative, District 11                          OVER VOTES                            PRECINCT 12                                            01 
01060030013000000000000000000000000000000000000REP       US Representative, District 11                          OVER VOTES                            PRECINCT 13                                            01 
01060030014000000000000000000000000000000000000REP       US Representative, District 11                          OVER VOTES                            PRECINCT 14                                            01 
01060030015000000000000000000000000000000000000REP       US Representative, District 11                          OVER VOTES                            PRECINCT 15                                            01 
01060030016000000000000000000000000000000000000REP       US Representative, District 11                          OVER VOTES                            PRECINCT 16                                            01 
01060030017000000000000000000000000000000000000REP       US Representative, District 11                          OVER VOTES                            PRECINCT 17                                            01 
01060030018000000000000000000000000000000000000REP       US Representative, District 11                          OVER VOTES                            PRECINCT 18                                            01 
01060030020000000000000000000000000000000000000REP       US Representative, District 11                          OVER VOTES                            PRECINCT 20                                            01 
01060030021000000000000000000000000000000000000REP       US Representative, District 11                          OVER VOTES                            PRECINCT 21                                            01 
01060030022000000000000000000000000000000000000REP       US Representative, District 11                          OVER VOTES                            PRECINCT 22                                            01 
01060030023000000000000000000000000000000000000REP       US Representative, District 11                          OVER VOTES                            PRECINCT 23                                            01 
01060030024000000000000000000000000000000000000REP       US Representative, District 11                          OVER VOTES                            PRECINCT 24                                            01 
01060030025000000000000000000000000000000000000REP       US Representative, District 11                          OVER VOTES                            PRECINCT 25                                            01 
01060030026000000000000000000000000000000000000REP       US Representative, District 11                          OVER VOTES                            PRECINCT 26                                            01 
01060030027000000000000000000000000000000000000REP       US Representative, District 11                          OVER VOTES                            PRECINCT 27                                            01 
01060030028000000000000000000000000000000000000REP       US Representative, District 11                          OVER VOTES                            PRECINCT 28                                            01 
01060030029000000000000000000000000000000000000REP       US Representative, District 11                          OVER VOTES                            PRECINCT 29                                            01 
01060030030000000000000000000000000000000000000REP       US Representative, District 11                          OVER VOTES                            PRECINCT 30                                            01 
01060040001000016000002000007000007000000000000REP       US Representative, District 11                          UNDER VOTES                           PRECINCT 1                                             01 
01060040002000003000001000000000002000000000000REP       US Representative, District 11                          UNDER VOTES                           PRECINCT 2                                             01 
01060040003000032000004000003000025000000000000REP       US Representative, District 11                          UNDER VOTES                           PRECINCT 3                                             01 
01060040004000007000000000003000004000000000000REP       US Representative, District 11                          UNDER VOTES                           PRECINCT 4                                             01 
01060040005000012000001000001000010000000000000REP       US Representative, District 11                          UNDER VOTES                           PRECINCT 5                                             01 
01060040006000036000012000001000023000000000000REP       US Representative, District 11                          UNDER VOTES                           PRECINCT 6                                             01 
01060040007000033000001000008000024000000000000REP       US Representative, District 11                          UNDER VOTES                           PRECINCT 7                                             01 
01060040008000049000006000011000032000000000000REP       US Representative, District 11                          UNDER VOTES                           PRECINCT 8                                             01 
01060040009000010000000000000000010000000000000REP       US Representative, District 11                          UNDER VOTES                           PRECINCT 9                                             01 
01060040011000010000000000002000008000000000000REP       US Representative, District 11                          UNDER VOTES                           PRECINCT 11                                            01 
01060040012000009000000000002000007000000000000REP       US Representative, District 11                          UNDER VOTES                           PRECINCT 12                                            01 
01060040013000016000001000005000010000000000000REP       US Representative, District 11                          UNDER VOTES                           PRECINCT 13                                            01 
01060040014000005000000000002000003000000000000REP       US Representative, District 11                          UNDER VOTES                           PRECINCT 14                                            01 
01060040015000018000000000006000012000000000000REP       US Representative, District 11                          UNDER VOTES                           PRECINCT 15                                            01 
01060040016000006000001000001000004000000000000REP       US Representative, District 11                          UNDER VOTES                           PRECINCT 16                                            01 
01060040017000007000002000003000002000000000000REP       US Representative, District 11                          UNDER VOTES                           PRECINCT 17                                            01 
01060040018000005000000000002000003000000000000REP       US Representative, District 11                          UNDER VOTES                           PRECINCT 18                                            01 
01060040020000005000002000000000003000000000000REP       US Representative, District 11                          UNDER VOTES                           PRECINCT 20                                            01 
01060040021000017000002000010000005000000000000REP       US Representative, District 11                          UNDER VOTES                           PRECINCT 21                                            01 
01060040022000025000002000013000010000000000000REP       US Representative, District 11                          UNDER VOTES                           PRECINCT 22                                            01 
01060040023000042000002000027000013000000000000REP       US Representative, District 11                          UNDER VOTES                           PRECINCT 23                                            01 
01060040024000004000000000002000002000000000000REP       US Representative, District 11                          UNDER VOTES                           PRECINCT 24                                            01 
01060040025000001000000000001000000000000000000REP       US Representative, District 11                          UNDER VOTES                           PRECINCT 25                                            01 
01060040026000005000002000000000003000000000000REP       US Representative, District 11                          UNDER VOTES                           PRECINCT 26                                            01 
01060040027000047000002000021000024000000000000REP       US Representative, District 11                          UNDER VOTES                           PRECINCT 27                                            01 
01060040028000014000001000003000010000000000000REP       US Representative, District 11                          UNDER VOTES                           PRECINCT 28                                            01 
01060040029000024000001000010000013000000000000REP       US Representative, District 11                          UNDER VOTES                           PRECINCT 29                                            01 
01060040030000011000000000008000003000000000000REP       US Representative, District 11                          UNDER VOTES                           PRECINCT 30                                            01 
01070010001000129000009000033000087000000000000REP       Govenor                                                 Greg Abbott                           PRECINCT 1                                             01 
01070010002000004000001000000000003000000000000REP       Govenor                                                 Greg Abbott                           PRECINCT 2                                             01 
01070010003000207000027000038000142000000000000REP       Govenor                                                 Greg Abbott                           PRECINCT 3                                             01 
01070010004000068000003000029000036000000000000REP       Govenor                                                 Greg Abbott                           PRECINCT 4                                             01 
01070010005000093000008000006000079000000000000REP       Govenor                                                 Greg Abbott                           PRECINCT 5                                             01 
01070010006000181000028000027000126000000000000REP       Govenor                                                 Greg Abbott                           PRECINCT 6                                             01 
01070010007000192000006000048000138000000000000REP       Govenor                                                 Greg Abbott                           PRECINCT 7                                             01 
01070010008000325000044000065000216000000000000REP       Govenor                                                 Greg Abbott                           PRECINCT 8                                             01 
01070010009000090000003000018000069000000000000REP       Govenor                                                 Greg Abbott                           PRECINCT 9                                             01 
01070010011000053000004000022000027000000000000REP       Govenor                                                 Greg Abbott                           PRECINCT 11                                            01 
01070010012000094000006000047000041000000000000REP       Govenor                                                 Greg Abbott                           PRECINCT 12                                            01 
01070010013000148000016000054000078000000000000REP       Govenor                                                 Greg Abbott                           PRECINCT 13                                            01 
01070010014000032000001000013000018000000000000REP       Govenor                                                 Greg Abbott                           PRECINCT 14                                            01 
01070010015000181000012000061000108000000000000REP       Govenor                                                 Greg Abbott                           PRECINCT 15                                            01 
01070010016000098000011000028000059000000000000REP       Govenor                                                 Greg Abbott                           PRECINCT 16                                            01 
01070010017000070000005000037000028000000000000REP       Govenor                                                 Greg Abbott                           PRECINCT 17                                            01 
01070010018000025000005000002000018000000000000REP       Govenor                                                 Greg Abbott                           PRECINCT 18                                            01 
01070010020000053000005000001000047000000000000REP       Govenor                                                 Greg Abbott                           PRECINCT 20                                            01 
01070010021000171000029000073000069000000000000REP       Govenor                                                 Greg Abbott                           PRECINCT 21                                            01 
01070010022000190000010000070000110000000000000REP       Govenor                                                 Greg Abbott                           PRECINCT 22                                            01 
01070010023000244000020000116000108000000000000REP       Govenor                                                 Greg Abbott                           PRECINCT 23                                            01 
01070010024000029000003000016000010000000000000REP       Govenor                                                 Greg Abbott                           PRECINCT 24                                            01 
01070010025000023000002000012000009000000000000REP       Govenor                                                 Greg Abbott                           PRECINCT 25                                            01 
01070010026000018000004000008000006000000000000REP       Govenor                                                 Greg Abbott                           PRECINCT 26                                            01 
01070010027000331000025000175000131000000000000REP       Govenor                                                 Greg Abbott                           PRECINCT 27                                            01 
01070010028000106000016000038000052000000000000REP       Govenor                                                 Greg Abbott                           PRECINCT 28                                            01 
01070010029000133000008000056000069000000000000REP       Govenor                                                 Greg Abbott                           PRECINCT 29                                            01 
01070010030000072000006000031000035000000000000REP       Govenor                                                 Greg Abbott                           PRECINCT 30                                            01 
01070020001000002000000000001000001000000000000REP       Govenor                                                 SECEDE Kilgore                        PRECINCT 1                                             01 
01070020002000000000000000000000000000000000000REP       Govenor                                                 SECEDE Kilgore                        PRECINCT 2                                             01 
01070020003000004000000000000000004000000000000REP       Govenor                                                 SECEDE Kilgore                        PRECINCT 3                                             01 
01070020004000002000000000001000001000000000000REP       Govenor                                                 SECEDE Kilgore                        PRECINCT 4                                             01 
01070020005000001000000000000000001000000000000REP       Govenor                                                 SECEDE Kilgore                        PRECINCT 5                                             01 
01070020006000006000001000001000004000000000000REP       Govenor                                                 SECEDE Kilgore                        PRECINCT 6                                             01 
01070020007000004000000000000000004000000000000REP       Govenor                                                 SECEDE Kilgore                        PRECINCT 7                                             01 
01070020008000001000000000000000001000000000000REP       Govenor                                                 SECEDE Kilgore                        PRECINCT 8                                             01 
01070020009000000000000000000000000000000000000REP       Govenor                                                 SECEDE Kilgore                        PRECINCT 9                                             01 
01070020011000002000000000000000002000000000000REP       Govenor                                                 SECEDE Kilgore                        PRECINCT 11                                            01 
01070020012000002000000000001000001000000000000REP       Govenor                                                 SECEDE Kilgore                        PRECINCT 12                                            01 
01070020013000006000000000002000004000000000000REP       Govenor                                                 SECEDE Kilgore                        PRECINCT 13                                            01 
01070020014000001000000000000000001000000000000REP       Govenor                                                 SECEDE Kilgore                        PRECINCT 14                                            01 
01070020015000006000000000004000002000000000000REP       Govenor                                                 SECEDE Kilgore                        PRECINCT 15                                            01 
01070020016000001000000000000000001000000000000REP       Govenor                                                 SECEDE Kilgore                        PRECINCT 16                                            01 
01070020017000001000000000000000001000000000000REP       Govenor                                                 SECEDE Kilgore                        PRECINCT 17                                            01 
01070020018000000000000000000000000000000000000REP       Govenor                                                 SECEDE Kilgore                        PRECINCT 18                                            01 
01070020020000000000000000000000000000000000000REP       Govenor                                                 SECEDE Kilgore                        PRECINCT 20                                            01 
01070020021000003000000000002000001000000000000REP       Govenor                                                 SECEDE Kilgore                        PRECINCT 21                                            01 
01070020022000002000000000002000000000000000000REP       Govenor                                                 SECEDE Kilgore                        PRECINCT 22                                            01 
01070020023000002000000000001000001000000000000REP       Govenor                                                 SECEDE Kilgore                        PRECINCT 23                                            01 
01070020024000001000000000001000000000000000000REP       Govenor                                                 SECEDE Kilgore                        PRECINCT 24                                            01 
01070020025000001000000000001000000000000000000REP       Govenor                                                 SECEDE Kilgore                        PRECINCT 25                                            01 
01070020026000001000000000001000000000000000000REP       Govenor                                                 SECEDE Kilgore                        PRECINCT 26                                            01 
01070020027000012000000000008000004000000000000REP       Govenor                                                 SECEDE Kilgore                        PRECINCT 27                                            01 
