01010010001000573          REGISTERED VOTERS - TOTAL                               REGISTERED VOTERS - TOTAL             PRECINCT 1                                             00 
01010010002001000          REGISTERED VOTERS - TOTAL                               REGISTERED VOTERS - TOTAL             PRECINCT 2                                             00 
01010010003000741          REGISTERED VOTERS - TOTAL                               REGISTERED VOTERS - TOTAL             PRECINCT 3                                             00 
01010010004000449          REGISTERED VOTERS - TOTAL                               REGISTERED VOTERS - TOTAL             PRECINCT 4                                             00 
01010010005000371          REGISTERED VOTERS - TOTAL                               REGISTERED VOTERS - TOTAL             PRECINCT 6                                             00 
01010010006000438          REGISTERED VOTERS - TOTAL                               REGISTERED VOTERS - TOTAL             PRECINCT 7                                             00 
01010010007000037          REGISTERED VOTERS - TOTAL                               REGISTERED VOTERS - TOTAL             PRECINCT 9                                             00 
01010010008000321          REGISTERED VOTERS - TOTAL                               REGISTERED VOTERS - TOTAL             PRECINCT 11                                            00 
01040010001000027DEM       BALLOTS CAST - DEMOCRATIC PARTY                         BALLOTS CAST - DEMOCRATIC PARTY       PRECINCT 1                                             00 
01040010002000037DEM       BALLOTS CAST - DEMOCRATIC PARTY                         BALLOTS CAST - DEMOCRATIC PARTY       PRECINCT 2                                             00 
01040010003000028DEM       BALLOTS CAST - DEMOCRATIC PARTY                         BALLOTS CAST - DEMOCRATIC PARTY       PRECINCT 3                                             00 
01040010004000014DEM       BALLOTS CAST - DEMOCRATIC PARTY                         BALLOTS CAST - DEMOCRATIC PARTY       PRECINCT 4                                             00 
01040010005000011DEM       BALLOTS CAST - DEMOCRATIC PARTY                         BALLOTS CAST - DEMOCRATIC PARTY       PRECINCT 6                                             00 
01040010006000012DEM       BALLOTS CAST - DEMOCRATIC PARTY                         BALLOTS CAST - DEMOCRATIC PARTY       PRECINCT 7                                             00 
01040010007000001DEM       BALLOTS CAST - DEMOCRATIC PARTY                         BALLOTS CAST - DEMOCRATIC PARTY       PRECINCT 9                                             00 
01040010008000007DEM       BALLOTS CAST - DEMOCRATIC PARTY                         BALLOTS CAST - DEMOCRATIC PARTY       PRECINCT 11                                            00 
01330010001000014DEM       United States Senator                                   Sema Hernandez                        PRECINCT 1                                             01 
01330010002000010DEM       United States Senator                                   Sema Hernandez                        PRECINCT 2                                             01 
01330010003000005DEM       United States Senator                                   Sema Hernandez                        PRECINCT 3                                             01 
01330010004000005DEM       United States Senator                                   Sema Hernandez                        PRECINCT 4                                             01 
01330010005000006DEM       United States Senator                                   Sema Hernandez                        PRECINCT 6                                             01 
01330010006000002DEM       United States Senator                                   Sema Hernandez                        PRECINCT 7                                             01 
01330010007000000DEM       United States Senator                                   Sema Hernandez                        PRECINCT 9                                             01 
01330010008000002DEM       United States Senator                                   Sema Hernandez                        PRECINCT 11                                            01 
01330020001000007DEM       United States Senator                                   Edward Kimbrough                      PRECINCT 1                                             01 
01330020002000011DEM       United States Senator                                   Edward Kimbrough                      PRECINCT 2                                             01 
01330020003000015DEM       United States Senator                                   Edward Kimbrough                      PRECINCT 3                                             01 
01330020004000005DEM       United States Senator                                   Edward Kimbrough                      PRECINCT 4                                             01 
01330020005000002DEM       United States Senator                                   Edward Kimbrough                      PRECINCT 6                                             01 
01330020006000007DEM       United States Senator                                   Edward Kimbrough                      PRECINCT 7                                             01 
01330020007000001DEM       United States Senator                                   Edward Kimbrough                      PRECINCT 9                                             01 
01330020008000002DEM       United States Senator                                   Edward Kimbrough                      PRECINCT 11                                            01 
01330030001000003DEM       United States Senator                                   Beto O'Rourke                         PRECINCT 1                                             01 
01330030002000008DEM       United States Senator                                   Beto O'Rourke                         PRECINCT 2                                             01 
01330030003000007DEM       United States Senator                                   Beto O'Rourke                         PRECINCT 3                                             01 
01330030004000001DEM       United States Senator                                   Beto O'Rourke                         PRECINCT 4                                             01 
01330030005000001DEM       United States Senator                                   Beto O'Rourke                         PRECINCT 6                                             01 
01330030006000002DEM       United States Senator                                   Beto O'Rourke                         PRECINCT 7                                             01 
01330030007000000DEM       United States Senator                                   Beto O'Rourke                         PRECINCT 9                                             01 
01330030008000002DEM       United States Senator                                   Beto O'Rourke                         PRECINCT 11                                            01 
01330040001000000DEM       United States Senator                                   OVER VOTES                            PRECINCT 1                                             01 
01330040002000000DEM       United States Senator                                   OVER VOTES                            PRECINCT 2                                             01 
01330040003000000DEM       United States Senator                                   OVER VOTES                            PRECINCT 3                                             01 
01330040004000000DEM       United States Senator                                   OVER VOTES                            PRECINCT 4                                             01 
01330040005000000DEM       United States Senator                                   OVER VOTES                            PRECINCT 6                                             01 
01330040006000000DEM       United States Senator                                   OVER VOTES                            PRECINCT 7                                             01 
01330040007000000DEM       United States Senator                                   OVER VOTES                            PRECINCT 9                                             01 
01330040008000000DEM       United States Senator                                   OVER VOTES                            PRECINCT 11                                            01 
01330050001000003DEM       United States Senator                                   UNDER VOTES                           PRECINCT 1                                             01 
01330050002000008DEM       United States Senator                                   UNDER VOTES                           PRECINCT 2                                             01 
01330050003000001DEM       United States Senator                                   UNDER VOTES                           PRECINCT 3                                             01 
01330050004000003DEM       United States Senator                                   UNDER VOTES                           PRECINCT 4                                             01 
01330050005000002DEM       United States Senator                                   UNDER VOTES                           PRECINCT 6                                             01 
01330050006000001DEM       United States Senator                                   UNDER VOTES                           PRECINCT 7                                             01 
01330050007000000DEM       United States Senator                                   UNDER VOTES                           PRECINCT 9                                             01 
01330050008000001DEM       United States Senator                                   UNDER VOTES                           PRECINCT 11                                            01 
01340010001000017DEM       United States Rep, District 13                          Greg Sagan                            PRECINCT 1                                             01 
01340010002000027DEM       United States Rep, District 13                          Greg Sagan                            PRECINCT 2                                             01 
01340010003000026DEM       United States Rep, District 13                          Greg Sagan                            PRECINCT 3                                             01 
01340010004000009DEM       United States Rep, District 13                          Greg Sagan                            PRECINCT 4                                             01 
01340010005000007DEM       United States Rep, District 13                          Greg Sagan                            PRECINCT 6                                             01 
01340010006000009DEM       United States Rep, District 13                          Greg Sagan                            PRECINCT 7                                             01 
01340010007000000DEM       United States Rep, District 13                          Greg Sagan                            PRECINCT 9                                             01 
01340010008000005DEM       United States Rep, District 13                          Greg Sagan                            PRECINCT 11                                            01 
01340020001000000DEM       United States Rep, District 13                          OVER VOTES                            PRECINCT 1                                             01 
01340020002000000DEM       United States Rep, District 13                          OVER VOTES                            PRECINCT 2                                             01 
01340020003000000DEM       United States Rep, District 13                          OVER VOTES                            PRECINCT 3                                             01 
01340020004000000DEM       United States Rep, District 13                          OVER VOTES                            PRECINCT 4                                             01 
01340020005000000DEM       United States Rep, District 13                          OVER VOTES                            PRECINCT 6                                             01 
01340020006000000DEM       United States Rep, District 13                          OVER VOTES                            PRECINCT 7                                             01 
01340020007000000DEM       United States Rep, District 13                          OVER VOTES                            PRECINCT 9                                             01 
01340020008000000DEM       United States Rep, District 13                          OVER VOTES                            PRECINCT 11                                            01 
01340030001000010DEM       United States Rep, District 13                          UNDER VOTES                           PRECINCT 1                                             01 
01340030002000010DEM       United States Rep, District 13                          UNDER VOTES                           PRECINCT 2                                             01 
01340030003000002DEM       United States Rep, District 13                          UNDER VOTES                           PRECINCT 3                                             01 
01340030004000005DEM       United States Rep, District 13                          UNDER VOTES                           PRECINCT 4                                             01 
01340030005000004DEM       United States Rep, District 13                          UNDER VOTES                           PRECINCT 6                                             01 
01340030006000003DEM       United States Rep, District 13                          UNDER VOTES                           PRECINCT 7                                             01 
01340030007000001DEM       United States Rep, District 13                          UNDER VOTES                           PRECINCT 9                                             01 
01340030008000002DEM       United States Rep, District 13                          UNDER VOTES                           PRECINCT 11                                            01 
01350010001000003DEM       Governor                                                Grady Yarbrough                       PRECINCT 1                                             01 
01350010002000015DEM       Governor                                                Grady Yarbrough                       PRECINCT 2                                             01 
01350010003000009DEM       Governor                                                Grady Yarbrough                       PRECINCT 3                                             01 
01350010004000005DEM       Governor                                                Grady Yarbrough                       PRECINCT 4                                             01 
01350010005000001DEM       Governor                                                Grady Yarbrough                       PRECINCT 6                                             01 
01350010006000003DEM       Governor                                                Grady Yarbrough                       PRECINCT 7                                             01 
01350010007000001DEM       Governor                                                Grady Yarbrough                       PRECINCT 9                                             01 
01350010008000001DEM       Governor                                                Grady Yarbrough                       PRECINCT 11                                            01 
01350020001000000DEM       Governor                                                James Jolly Clark                     PRECINCT 1                                             01 
01350020002000000DEM       Governor                                                James Jolly Clark                     PRECINCT 2                                             01 
01350020003000001DEM       Governor                                                James Jolly Clark                     PRECINCT 3                                             01 
01350020004000000DEM       Governor                                                James Jolly Clark                     PRECINCT 4                                             01 
01350020005000002DEM       Governor                                                James Jolly Clark                     PRECINCT 6                                             01 
01350020006000000DEM       Governor                                                James Jolly Clark                     PRECINCT 7                                             01 
01350020007000000DEM       Governor                                                James Jolly Clark                     PRECINCT 9                                             01 
01350020008000000DEM       Governor                                                James Jolly Clark                     PRECINCT 11                                            01 
01350030001000001DEM       Governor                                                Adrian Ocegueda                       PRECINCT 1                                             01 
01350030002000000DEM       Governor                                                Adrian Ocegueda                       PRECINCT 2                                             01 
01350030003000001DEM       Governor                                                Adrian Ocegueda                       PRECINCT 3                                             01 
01350030004000000DEM       Governor                                                Adrian Ocegueda                       PRECINCT 4                                             01 
01350030005000002DEM       Governor                                                Adrian Ocegueda                       PRECINCT 6                                             01 
01350030006000000DEM       Governor                                                Adrian Ocegueda                       PRECINCT 7                                             01 
01350030007000000DEM       Governor                                                Adrian Ocegueda                       PRECINCT 9                                             01 
01350030008000000DEM       Governor                                                Adrian Ocegueda                       PRECINCT 11                                            01 
01350040001000002DEM       Governor                                                Cedric Davis, Sr.                     PRECINCT 1                                             01 
01350040002000000DEM       Governor                                                Cedric Davis, Sr.                     PRECINCT 2                                             01 
01350040003000000DEM       Governor                                                Cedric Davis, Sr.                     PRECINCT 3                                             01 
01350040004000000DEM       Governor                                                Cedric Davis, Sr.                     PRECINCT 4                                             01 
01350040005000000DEM       Governor                                                Cedric Davis, Sr.                     PRECINCT 6                                             01 
01350040006000000DEM       Governor                                                Cedric Davis, Sr.                     PRECINCT 7                                             01 
01350040007000000DEM       Governor                                                Cedric Davis, Sr.                     PRECINCT 9                                             01 
01350040008000000DEM       Governor                                                Cedric Davis, Sr.                     PRECINCT 11                                            01 
01350050001000002DEM       Governor                                                Jeffrey Payne                         PRECINCT 1                                             01 
01350050002000003DEM       Governor                                                Jeffrey Payne                         PRECINCT 2                                             01 
01350050003000004DEM       Governor                                                Jeffrey Payne                         PRECINCT 3                                             01 
01350050004000000DEM       Governor                                                Jeffrey Payne                         PRECINCT 4                                             01 
01350050005000000DEM       Governor                                                Jeffrey Payne                         PRECINCT 6                                             01 
01350050006000002DEM       Governor                                                Jeffrey Payne                         PRECINCT 7                                             01 
01350050007000000DEM       Governor                                                Jeffrey Payne                         PRECINCT 9                                             01 
01350050008000000DEM       Governor                                                Jeffrey Payne                         PRECINCT 11                                            01 
01350060001000000DEM       Governor                                                Joe Mumbach                           PRECINCT 1                                             01 
01350060002000001DEM       Governor                                                Joe Mumbach                           PRECINCT 2                                             01 
01350060003000000DEM       Governor                                                Joe Mumbach                           PRECINCT 3                                             01 
01350060004000000DEM       Governor                                                Joe Mumbach                           PRECINCT 4                                             01 
01350060005000000DEM       Governor                                                Joe Mumbach                           PRECINCT 6                                             01 
01350060006000000DEM       Governor                                                Joe Mumbach                           PRECINCT 7                                             01 
01350060007000000DEM       Governor                                                Joe Mumbach                           PRECINCT 9                                             01 
01350060008000000DEM       Governor                                                Joe Mumbach                           PRECINCT 11                                            01 
01350070001000003DEM       Governor                                                Tom Wakely                            PRECINCT 1                                             01 
01350070002000001DEM       Governor                                                Tom Wakely                            PRECINCT 2                                             01 
01350070003000000DEM       Governor                                                Tom Wakely                            PRECINCT 3                                             01 
01350070004000000DEM       Governor                                                Tom Wakely                            PRECINCT 4                                             01 
01350070005000000DEM       Governor                                                Tom Wakely                            PRECINCT 6                                             01 
01350070006000003DEM       Governor                                                Tom Wakely                            PRECINCT 7                                             01 
01350070007000000DEM       Governor                                                Tom Wakely                            PRECINCT 9                                             01 
01350070008000001DEM       Governor                                                Tom Wakely                            PRECINCT 11                                            01 
01350080001000008DEM       Governor                                                Lupe Valdez                           PRECINCT 1                                             01 
01350080002000006DEM       Governor                                                Lupe Valdez                           PRECINCT 2                                             01 
01350080003000003DEM       Governor                                                Lupe Valdez                           PRECINCT 3                                             01 
01350080004000003DEM       Governor                                                Lupe Valdez                           PRECINCT 4                                             01 
01350080005000004DEM       Governor                                                Lupe Valdez                           PRECINCT 6                                             01 
01350080006000002DEM       Governor                                                Lupe Valdez                           PRECINCT 7                                             01 
01350080007000000DEM       Governor                                                Lupe Valdez                           PRECINCT 9                                             01 
01350080008000002DEM       Governor                                                Lupe Valdez                           PRECINCT 11                                            01 
01350090001000004DEM       Governor                                                Andrew White                          PRECINCT 1                                             01 
01350090002000007DEM       Governor                                                Andrew White                          PRECINCT 2                                             01 
01350090003000005DEM       Governor                                                Andrew White                          PRECINCT 3                                             01 
01350090004000003DEM       Governor                                                Andrew White                          PRECINCT 4                                             01 
01350090005000000DEM       Governor                                                Andrew White                          PRECINCT 6                                             01 
01350090006000001DEM       Governor                                                Andrew White                          PRECINCT 7                                             01 
01350090007000000DEM       Governor                                                Andrew White                          PRECINCT 9                                             01 
01350090008000002DEM       Governor                                                Andrew White                          PRECINCT 11                                            01 
01350100001000000DEM       Governor                                                OVER VOTES                            PRECINCT 1                                             01 
01350100002000000DEM       Governor                                                OVER VOTES                            PRECINCT 2                                             01 
01350100003000000DEM       Governor                                                OVER VOTES                            PRECINCT 3                                             01 
01350100004000000DEM       Governor                                                OVER VOTES                            PRECINCT 4                                             01 
01350100005000000DEM       Governor                                                OVER VOTES                            PRECINCT 6                                             01 
01350100006000000DEM       Governor                                                OVER VOTES                            PRECINCT 7                                             01 
01350100007000000DEM       Governor                                                OVER VOTES                            PRECINCT 9                                             01 
01350100008000000DEM       Governor                                                OVER VOTES                            PRECINCT 11                                            01 
01350110001000004DEM       Governor                                                UNDER VOTES                           PRECINCT 1                                             01 
01350110002000004DEM       Governor                                                UNDER VOTES                           PRECINCT 2                                             01 
01350110003000005DEM       Governor                                                UNDER VOTES                           PRECINCT 3                                             01 
01350110004000003DEM       Governor                                                UNDER VOTES                           PRECINCT 4                                             01 
01350110005000002DEM       Governor                                                UNDER VOTES                           PRECINCT 6                                             01 
01350110006000001DEM       Governor                                                UNDER VOTES                           PRECINCT 7                                             01 
01350110007000000DEM       Governor                                                UNDER VOTES                           PRECINCT 9                                             01 
01350110008000001DEM       Governor                                                UNDER VOTES                           PRECINCT 11                                            01 
01360010001000013DEM       Lieutenant Governor                                     Mike Collier                          PRECINCT 1                                             01 
01360010002000018DEM       Lieutenant Governor                                     Mike Collier                          PRECINCT 2                                             01 
01360010003000016DEM       Lieutenant Governor                                     Mike Collier                          PRECINCT 3                                             01 
01360010004000005DEM       Lieutenant Governor                                     Mike Collier                          PRECINCT 4                                             01 
01360010005000004DEM       Lieutenant Governor                                     Mike Collier                          PRECINCT 6                                             01 
01360010006000005DEM       Lieutenant Governor                                     Mike Collier                          PRECINCT 7                                             01 
01360010007000001DEM       Lieutenant Governor                                     Mike Collier                          PRECINCT 9                                             01 
01360010008000001DEM       Lieutenant Governor                                     Mike Collier                          PRECINCT 11                                            01 
01360020001000010DEM       Lieutenant Governor                                     Michael Cooper                        PRECINCT 1                                             01 
01360020002000013DEM       Lieutenant Governor                                     Michael Cooper                        PRECINCT 2                                             01 
01360020003000011DEM       Lieutenant Governor                                     Michael Cooper                        PRECINCT 3                                             01 
01360020004000004DEM       Lieutenant Governor                                     Michael Cooper                        PRECINCT 4                                             01 
01360020005000006DEM       Lieutenant Governor                                     Michael Cooper                        PRECINCT 6                                             01 
01360020006000006DEM       Lieutenant Governor                                     Michael Cooper                        PRECINCT 7                                             01 
01360020007000000DEM       Lieutenant Governor                                     Michael Cooper                        PRECINCT 9                                             01 
01360020008000004DEM       Lieutenant Governor                                     Michael Cooper                        PRECINCT 11                                            01 
01360030001000000DEM       Lieutenant Governor                                     OVER VOTES                            PRECINCT 1                                             01 
01360030002000000DEM       Lieutenant Governor                                     OVER VOTES                            PRECINCT 2                                             01 
01360030003000000DEM       Lieutenant Governor                                     OVER VOTES                            PRECINCT 3                                             01 
01360030004000000DEM       Lieutenant Governor                                     OVER VOTES                            PRECINCT 4                                             01 
01360030005000000DEM       Lieutenant Governor                                     OVER VOTES                            PRECINCT 6                                             01 
01360030006000000DEM       Lieutenant Governor                                     OVER VOTES                            PRECINCT 7                                             01 
01360030007000000DEM       Lieutenant Governor                                     OVER VOTES                            PRECINCT 9                                             01 
01360030008000000DEM       Lieutenant Governor                                     OVER VOTES                            PRECINCT 11                                            01 
01360040001000004DEM       Lieutenant Governor                                     UNDER VOTES                           PRECINCT 1                                             01 
01360040002000006DEM       Lieutenant Governor                                     UNDER VOTES                           PRECINCT 2                                             01 
01360040003000001DEM       Lieutenant Governor                                     UNDER VOTES                           PRECINCT 3                                             01 
01360040004000005DEM       Lieutenant Governor                                     UNDER VOTES                           PRECINCT 4                                             01 
01360040005000001DEM       Lieutenant Governor                                     UNDER VOTES                           PRECINCT 6                                             01 
01360040006000001DEM       Lieutenant Governor                                     UNDER VOTES                           PRECINCT 7                                             01 
01360040007000000DEM       Lieutenant Governor                                     UNDER VOTES                           PRECINCT 9                                             01 
01360040008000002DEM       Lieutenant Governor                                     UNDER VOTES                           PRECINCT 11                                            01 
01370010001000022DEM       Attorney General                                        Justin Nelson                         PRECINCT 1                                             01 
01370010002000029DEM       Attorney General                                        Justin Nelson                         PRECINCT 2                                             01 
01370010003000023DEM       Attorney General                                        Justin Nelson                         PRECINCT 3                                             01 
01370010004000009DEM       Attorney General                                        Justin Nelson                         PRECINCT 4                                             01 
01370010005000006DEM       Attorney General                                        Justin Nelson                         PRECINCT 6                                             01 
01370010006000009DEM       Attorney General                                        Justin Nelson                         PRECINCT 7                                             01 
01370010007000001DEM       Attorney General                                        Justin Nelson                         PRECINCT 9                                             01 
01370010008000005DEM       Attorney General                                        Justin Nelson                         PRECINCT 11                                            01 
01370020001000000DEM       Attorney General                                        OVER VOTES                            PRECINCT 1                                             01 
01370020002000000DEM       Attorney General                                        OVER VOTES                            PRECINCT 2                                             01 
01370020003000000DEM       Attorney General                                        OVER VOTES                            PRECINCT 3                                             01 
01370020004000000DEM       Attorney General                                        OVER VOTES                            PRECINCT 4                                             01 
01370020005000000DEM       Attorney General                                        OVER VOTES                            PRECINCT 6                                             01 
01370020006000000DEM       Attorney General                                        OVER VOTES                            PRECINCT 7                                             01 
01370020007000000DEM       Attorney General                                        OVER VOTES                            PRECINCT 9                                             01 
01370020008000000DEM       Attorney General                                        OVER VOTES                            PRECINCT 11                                            01 
01370030001000005DEM       Attorney General                                        UNDER VOTES                           PRECINCT 1                                             01 
01370030002000008DEM       Attorney General                                        UNDER VOTES                           PRECINCT 2                                             01 
01370030003000005DEM       Attorney General                                        UNDER VOTES                           PRECINCT 3                                             01 
01370030004000005DEM       Attorney General                                        UNDER VOTES                           PRECINCT 4                                             01 
01370030005000005DEM       Attorney General                                        UNDER VOTES                           PRECINCT 6                                             01 
01370030006000003DEM       Attorney General                                        UNDER VOTES                           PRECINCT 7                                             01 
01370030007000000DEM       Attorney General                                        UNDER VOTES                           PRECINCT 9                                             01 
01370030008000002DEM       Attorney General                                        UNDER VOTES                           PRECINCT 11                                            01 
01380010001000008DEM       Comptroller of Public Accounts                          Joi Chevalier                         PRECINCT 1                                             01 
01380010002000009DEM       Comptroller of Public Accounts                          Joi Chevalier                         PRECINCT 2                                             01 
01380010003000004DEM       Comptroller of Public Accounts                          Joi Chevalier                         PRECINCT 3                                             01 
01380010004000003DEM       Comptroller of Public Accounts                          Joi Chevalier                         PRECINCT 4                                             01 
01380010005000006DEM       Comptroller of Public Accounts                          Joi Chevalier                         PRECINCT 6                                             01 
01380010006000004DEM       Comptroller of Public Accounts                          Joi Chevalier                         PRECINCT 7                                             01 
01380010007000000DEM       Comptroller of Public Accounts                          Joi Chevalier                         PRECINCT 9                                             01 
01380010008000002DEM       Comptroller of Public Accounts                          Joi Chevalier                         PRECINCT 11                                            01 
01380020001000015DEM       Comptroller of Public Accounts                          Tim Mahoney                           PRECINCT 1                                             01 
01380020002000021DEM       Comptroller of Public Accounts                          Tim Mahoney                           PRECINCT 2                                             01 
01380020003000022DEM       Comptroller of Public Accounts                          Tim Mahoney                           PRECINCT 3                                             01 
01380020004000006DEM       Comptroller of Public Accounts                          Tim Mahoney                           PRECINCT 4                                             01 
01380020005000003DEM       Comptroller of Public Accounts                          Tim Mahoney                           PRECINCT 6                                             01 
01380020006000006DEM       Comptroller of Public Accounts                          Tim Mahoney                           PRECINCT 7                                             01 
01380020007000001DEM       Comptroller of Public Accounts                          Tim Mahoney                           PRECINCT 9                                             01 
01380020008000003DEM       Comptroller of Public Accounts                          Tim Mahoney                           PRECINCT 11                                            01 
01380030001000000DEM       Comptroller of Public Accounts                          OVER VOTES                            PRECINCT 1                                             01 
01380030002000000DEM       Comptroller of Public Accounts                          OVER VOTES                            PRECINCT 2                                             01 
01380030003000000DEM       Comptroller of Public Accounts                          OVER VOTES                            PRECINCT 3                                             01 
01380030004000000DEM       Comptroller of Public Accounts                          OVER VOTES                            PRECINCT 4                                             01 
01380030005000000DEM       Comptroller of Public Accounts                          OVER VOTES                            PRECINCT 6                                             01 
01380030006000000DEM       Comptroller of Public Accounts                          OVER VOTES                            PRECINCT 7                                             01 
01380030007000000DEM       Comptroller of Public Accounts                          OVER VOTES                            PRECINCT 9                                             01 
01380030008000000DEM       Comptroller of Public Accounts                          OVER VOTES                            PRECINCT 11                                            01 
01380040001000004DEM       Comptroller of Public Accounts                          UNDER VOTES                           PRECINCT 1                                             01 
01380040002000007DEM       Comptroller of Public Accounts                          UNDER VOTES                           PRECINCT 2                                             01 
01380040003000002DEM       Comptroller of Public Accounts                          UNDER VOTES                           PRECINCT 3                                             01 
01380040004000005DEM       Comptroller of Public Accounts                          UNDER VOTES                           PRECINCT 4                                             01 
01380040005000002DEM       Comptroller of Public Accounts                          UNDER VOTES                           PRECINCT 6                                             01 
01380040006000002DEM       Comptroller of Public Accounts                          UNDER VOTES                           PRECINCT 7                                             01 
01380040007000000DEM       Comptroller of Public Accounts                          UNDER VOTES                           PRECINCT 9                                             01 
01380040008000002DEM       Comptroller of Public Accounts                          UNDER VOTES                           PRECINCT 11                                            01 
01390010001000014DEM       Commissioner of the General Land Office                 Miguel Suazo                          PRECINCT 1                                             01 
01390010002000014DEM       Commissioner of the General Land Office                 Miguel Suazo                          PRECINCT 2                                             01 
01390010003000004DEM       Commissioner of the General Land Office                 Miguel Suazo                          PRECINCT 3                                             01 
01390010004000005DEM       Commissioner of the General Land Office                 Miguel Suazo                          PRECINCT 4                                             01 
01390010005000009DEM       Commissioner of the General Land Office                 Miguel Suazo                          PRECINCT 6                                             01 
01390010006000003DEM       Commissioner of the General Land Office                 Miguel Suazo                          PRECINCT 7                                             01 
01390010007000000DEM       Commissioner of the General Land Office                 Miguel Suazo                          PRECINCT 9                                             01 
01390010008000002DEM       Commissioner of the General Land Office                 Miguel Suazo                          PRECINCT 11                                            01 
01390020001000011DEM       Commissioner of the General Land Office                 Tex Morgan                            PRECINCT 1                                             01 
01390020002000018DEM       Commissioner of the General Land Office                 Tex Morgan                            PRECINCT 2                                             01 
01390020003000022DEM       Commissioner of the General Land Office                 Tex Morgan                            PRECINCT 3                                             01 
01390020004000006DEM       Commissioner of the General Land Office                 Tex Morgan                            PRECINCT 4                                             01 
01390020005000001DEM       Commissioner of the General Land Office                 Tex Morgan                            PRECINCT 6                                             01 
01390020006000008DEM       Commissioner of the General Land Office                 Tex Morgan                            PRECINCT 7                                             01 
01390020007000001DEM       Commissioner of the General Land Office                 Tex Morgan                            PRECINCT 9                                             01 
01390020008000003DEM       Commissioner of the General Land Office                 Tex Morgan                            PRECINCT 11                                            01 
01390030001000000DEM       Commissioner of the General Land Office                 OVER VOTES                            PRECINCT 1                                             01 
01390030002000000DEM       Commissioner of the General Land Office                 OVER VOTES                            PRECINCT 2                                             01 
01390030003000000DEM       Commissioner of the General Land Office                 OVER VOTES                            PRECINCT 3                                             01 
01390030004000000DEM       Commissioner of the General Land Office                 OVER VOTES                            PRECINCT 4                                             01 
01390030005000000DEM       Commissioner of the General Land Office                 OVER VOTES                            PRECINCT 6                                             01 
01390030006000000DEM       Commissioner of the General Land Office                 OVER VOTES                            PRECINCT 7                                             01 
01390030007000000DEM       Commissioner of the General Land Office                 OVER VOTES                            PRECINCT 9                                             01 
01390030008000000DEM       Commissioner of the General Land Office                 OVER VOTES                            PRECINCT 11                                            01 
01390040001000002DEM       Commissioner of the General Land Office                 UNDER VOTES                           PRECINCT 1                                             01 
01390040002000005DEM       Commissioner of the General Land Office                 UNDER VOTES                           PRECINCT 2                                             01 
01390040003000002DEM       Commissioner of the General Land Office                 UNDER VOTES                           PRECINCT 3                                             01 
01390040004000003DEM       Commissioner of the General Land Office                 UNDER VOTES                           PRECINCT 4                                             01 
01390040005000001DEM       Commissioner of the General Land Office                 UNDER VOTES                           PRECINCT 6                                             01 
01390040006000001DEM       Commissioner of the General Land Office                 UNDER VOTES                           PRECINCT 7                                             01 
01390040007000000DEM       Commissioner of the General Land Office                 UNDER VOTES                           PRECINCT 9                                             01 
01390040008000002DEM       Commissioner of the General Land Office                 UNDER VOTES                           PRECINCT 11                                            01 
01400010001000023DEM       Commissioner of Agriculture                             Kim Olson                             PRECINCT 1                                             01 
01400010002000028DEM       Commissioner of Agriculture                             Kim Olson                             PRECINCT 2                                             01 
01400010003000026DEM       Commissioner of Agriculture                             Kim Olson                             PRECINCT 3                                             01 
01400010004000008DEM       Commissioner of Agriculture                             Kim Olson                             PRECINCT 4                                             01 
01400010005000005DEM       Commissioner of Agriculture                             Kim Olson                             PRECINCT 6                                             01 
01400010006000010DEM       Commissioner of Agriculture                             Kim Olson                             PRECINCT 7                                             01 
01400010007000001DEM       Commissioner of Agriculture                             Kim Olson                             PRECINCT 9                                             01 
01400010008000005DEM       Commissioner of Agriculture                             Kim Olson                             PRECINCT 11                                            01 
01400020001000000DEM       Commissioner of Agriculture                             OVER VOTES                            PRECINCT 1                                             01 
01400020002000000DEM       Commissioner of Agriculture                             OVER VOTES                            PRECINCT 2                                             01 
01400020003000000DEM       Commissioner of Agriculture                             OVER VOTES                            PRECINCT 3                                             01 
01400020004000000DEM       Commissioner of Agriculture                             OVER VOTES                            PRECINCT 4                                             01 
01400020005000000DEM       Commissioner of Agriculture                             OVER VOTES                            PRECINCT 6                                             01 
01400020006000000DEM       Commissioner of Agriculture                             OVER VOTES                            PRECINCT 7                                             01 
01400020007000000DEM       Commissioner of Agriculture                             OVER VOTES                            PRECINCT 9                                             01 
01400020008000000DEM       Commissioner of Agriculture                             OVER VOTES                            PRECINCT 11                                            01 
01400030001000004DEM       Commissioner of Agriculture                             UNDER VOTES                           PRECINCT 1                                             01 
01400030002000009DEM       Commissioner of Agriculture                             UNDER VOTES                           PRECINCT 2                                             01 
01400030003000002DEM       Commissioner of Agriculture                             UNDER VOTES                           PRECINCT 3                                             01 
01400030004000006DEM       Commissioner of Agriculture                             UNDER VOTES                           PRECINCT 4                                             01 
01400030005000006DEM       Commissioner of Agriculture                             UNDER VOTES                           PRECINCT 6                                             01 
01400030006000002DEM       Commissioner of Agriculture                             UNDER VOTES                           PRECINCT 7                                             01 
01400030007000000DEM       Commissioner of Agriculture                             UNDER VOTES                           PRECINCT 9                                             01 
01400030008000002DEM       Commissioner of Agriculture                             UNDER VOTES                           PRECINCT 11                                            01 
01410010001000015DEM       Railroad Commissioner                                   Chris Spellmon                        PRECINCT 1                                             01 
01410010002000017DEM       Railroad Commissioner                                   Chris Spellmon                        PRECINCT 2                                             01 
01410010003000018DEM       Railroad Commissioner                                   Chris Spellmon                        PRECINCT 3                                             01 
01410010004000007DEM       Railroad Commissioner                                   Chris Spellmon                        PRECINCT 4                                             01 
01410010005000004DEM       Railroad Commissioner                                   Chris Spellmon                        PRECINCT 6                                             01 
01410010006000005DEM       Railroad Commissioner                                   Chris Spellmon                        PRECINCT 7                                             01 
01410010007000001DEM       Railroad Commissioner                                   Chris Spellmon                        PRECINCT 9                                             01 
01410010008000001DEM       Railroad Commissioner                                   Chris Spellmon                        PRECINCT 11                                            01 
01410020001000009DEM       Railroad Commissioner                                   Roman McAllen                         PRECINCT 1                                             01 
01410020002000015DEM       Railroad Commissioner                                   Roman McAllen                         PRECINCT 2                                             01 
01410020003000007DEM       Railroad Commissioner                                   Roman McAllen                         PRECINCT 3                                             01 
01410020004000002DEM       Railroad Commissioner                                   Roman McAllen                         PRECINCT 4                                             01 
01410020005000005DEM       Railroad Commissioner                                   Roman McAllen                         PRECINCT 6                                             01 
01410020006000006DEM       Railroad Commissioner                                   Roman McAllen                         PRECINCT 7                                             01 
01410020007000000DEM       Railroad Commissioner                                   Roman McAllen                         PRECINCT 9                                             01 
01410020008000005DEM       Railroad Commissioner                                   Roman McAllen                         PRECINCT 11                                            01 
01410030001000000DEM       Railroad Commissioner                                   OVER VOTES                            PRECINCT 1                                             01 
01410030002000000DEM       Railroad Commissioner                                   OVER VOTES                            PRECINCT 2                                             01 
01410030003000000DEM       Railroad Commissioner                                   OVER VOTES                            PRECINCT 3                                             01 
01410030004000000DEM       Railroad Commissioner                                   OVER VOTES                            PRECINCT 4                                             01 
01410030005000000DEM       Railroad Commissioner                                   OVER VOTES                            PRECINCT 6                                             01 
01410030006000000DEM       Railroad Commissioner                                   OVER VOTES                            PRECINCT 7                                             01 
01410030007000000DEM       Railroad Commissioner                                   OVER VOTES                            PRECINCT 9                                             01 
01410030008000000DEM       Railroad Commissioner                                   OVER VOTES                            PRECINCT 11                                            01 
01410040001000003DEM       Railroad Commissioner                                   UNDER VOTES                           PRECINCT 1                                             01 
01410040002000005DEM       Railroad Commissioner                                   UNDER VOTES                           PRECINCT 2                                             01 
01410040003000003DEM       Railroad Commissioner                                   UNDER VOTES                           PRECINCT 3                                             01 
01410040004000005DEM       Railroad Commissioner                                   UNDER VOTES                           PRECINCT 4                                             01 
01410040005000002DEM       Railroad Commissioner                                   UNDER VOTES                           PRECINCT 6                                             01 
01410040006000001DEM       Railroad Commissioner                                   UNDER VOTES                           PRECINCT 7                                             01 
01410040007000000DEM       Railroad Commissioner                                   UNDER VOTES                           PRECINCT 9                                             01 
01410040008000001DEM       Railroad Commissioner                                   UNDER VOTES                           PRECINCT 11                                            01 
01420010001000022DEM       Justice, Supreme Court, Place 2                         Steven Kirkland                       PRECINCT 1                                             01 
01420010002000029DEM       Justice, Supreme Court, Place 2                         Steven Kirkland                       PRECINCT 2                                             01 
01420010003000025DEM       Justice, Supreme Court, Place 2                         Steven Kirkland                       PRECINCT 3                                             01 
01420010004000009DEM       Justice, Supreme Court, Place 2                         Steven Kirkland                       PRECINCT 4                                             01 
01420010005000005DEM       Justice, Supreme Court, Place 2                         Steven Kirkland                       PRECINCT 6                                             01 
01420010006000010DEM       Justice, Supreme Court, Place 2                         Steven Kirkland                       PRECINCT 7                                             01 
01420010007000001DEM       Justice, Supreme Court, Place 2                         Steven Kirkland                       PRECINCT 9                                             01 
01420010008000005DEM       Justice, Supreme Court, Place 2                         Steven Kirkland                       PRECINCT 11                                            01 
01420020001000000DEM       Justice, Supreme Court, Place 2                         OVER VOTES                            PRECINCT 1                                             01 
01420020002000000DEM       Justice, Supreme Court, Place 2                         OVER VOTES                            PRECINCT 2                                             01 
01420020003000000DEM       Justice, Supreme Court, Place 2                         OVER VOTES                            PRECINCT 3                                             01 
01420020004000000DEM       Justice, Supreme Court, Place 2                         OVER VOTES                            PRECINCT 4                                             01 
01420020005000000DEM       Justice, Supreme Court, Place 2                         OVER VOTES                            PRECINCT 6                                             01 
01420020006000000DEM       Justice, Supreme Court, Place 2                         OVER VOTES                            PRECINCT 7                                             01 
01420020007000000DEM       Justice, Supreme Court, Place 2                         OVER VOTES                            PRECINCT 9                                             01 
01420020008000000DEM       Justice, Supreme Court, Place 2                         OVER VOTES                            PRECINCT 11                                            01 
01420030001000005DEM       Justice, Supreme Court, Place 2                         UNDER VOTES                           PRECINCT 1                                             01 
01420030002000008DEM       Justice, Supreme Court, Place 2                         UNDER VOTES                           PRECINCT 2                                             01 
01420030003000003DEM       Justice, Supreme Court, Place 2                         UNDER VOTES                           PRECINCT 3                                             01 
01420030004000005DEM       Justice, Supreme Court, Place 2                         UNDER VOTES                           PRECINCT 4                                             01 
01420030005000006DEM       Justice, Supreme Court, Place 2                         UNDER VOTES                           PRECINCT 6                                             01 
01420030006000002DEM       Justice, Supreme Court, Place 2                         UNDER VOTES                           PRECINCT 7                                             01 
01420030007000000DEM       Justice, Supreme Court, Place 2                         UNDER VOTES                           PRECINCT 9                                             01 
01420030008000002DEM       Justice, Supreme Court, Place 2                         UNDER VOTES                           PRECINCT 11                                            01 
01430010001000019DEM       Justice, Supreme Court, Place 4                         R.K. Sandill                          PRECINCT 1                                             01 
01430010002000026DEM       Justice, Supreme Court, Place 4                         R.K. Sandill                          PRECINCT 2                                             01 
01430010003000025DEM       Justice, Supreme Court, Place 4                         R.K. Sandill                          PRECINCT 3                                             01 
01430010004000009DEM       Justice, Supreme Court, Place 4                         R.K. Sandill                          PRECINCT 4                                             01 
01430010005000005DEM       Justice, Supreme Court, Place 4                         R.K. Sandill                          PRECINCT 6                                             01 
01430010006000010DEM       Justice, Supreme Court, Place 4                         R.K. Sandill                          PRECINCT 7                                             01 
01430010007000001DEM       Justice, Supreme Court, Place 4                         R.K. Sandill                          PRECINCT 9                                             01 
01430010008000004DEM       Justice, Supreme Court, Place 4                         R.K. Sandill                          PRECINCT 11                                            01 
01430020001000000DEM       Justice, Supreme Court, Place 4                         OVER VOTES                            PRECINCT 1                                             01 
01430020002000000DEM       Justice, Supreme Court, Place 4                         OVER VOTES                            PRECINCT 2                                             01 
01430020003000000DEM       Justice, Supreme Court, Place 4                         OVER VOTES                            PRECINCT 3                                             01 
01430020004000000DEM       Justice, Supreme Court, Place 4                         OVER VOTES                            PRECINCT 4                                             01 
01430020005000000DEM       Justice, Supreme Court, Place 4                         OVER VOTES                            PRECINCT 6                                             01 
01430020006000000DEM       Justice, Supreme Court, Place 4                         OVER VOTES                            PRECINCT 7                                             01 
01430020007000000DEM       Justice, Supreme Court, Place 4                         OVER VOTES                            PRECINCT 9                                             01 
01430020008000000DEM       Justice, Supreme Court, Place 4                         OVER VOTES                            PRECINCT 11                                            01 
01430030001000008DEM       Justice, Supreme Court, Place 4                         UNDER VOTES                           PRECINCT 1                                             01 
01430030002000011DEM       Justice, Supreme Court, Place 4                         UNDER VOTES                           PRECINCT 2                                             01 
01430030003000003DEM       Justice, Supreme Court, Place 4                         UNDER VOTES                           PRECINCT 3                                             01 
01430030004000005DEM       Justice, Supreme Court, Place 4                         UNDER VOTES                           PRECINCT 4                                             01 
01430030005000006DEM       Justice, Supreme Court, Place 4                         UNDER VOTES                           PRECINCT 6                                             01 
01430030006000002DEM       Justice, Supreme Court, Place 4                         UNDER VOTES                           PRECINCT 7                                             01 
01430030007000000DEM       Justice, Supreme Court, Place 4                         UNDER VOTES                           PRECINCT 9                                             01 
01430030008000003DEM       Justice, Supreme Court, Place 4                         UNDER VOTES                           PRECINCT 11                                            01 
01440010001000019DEM       Justice, Supreme Court, Place 6                         Kathy Cheng                           PRECINCT 1                                             01 
01440010002000030DEM       Justice, Supreme Court, Place 6                         Kathy Cheng                           PRECINCT 2                                             01 
01440010003000023DEM       Justice, Supreme Court, Place 6                         Kathy Cheng                           PRECINCT 3                                             01 
01440010004000009DEM       Justice, Supreme Court, Place 6                         Kathy Cheng                           PRECINCT 4                                             01 
01440010005000007DEM       Justice, Supreme Court, Place 6                         Kathy Cheng                           PRECINCT 6                                             01 
01440010006000010DEM       Justice, Supreme Court, Place 6                         Kathy Cheng                           PRECINCT 7                                             01 
01440010007000001DEM       Justice, Supreme Court, Place 6                         Kathy Cheng                           PRECINCT 9                                             01 
01440010008000004DEM       Justice, Supreme Court, Place 6                         Kathy Cheng                           PRECINCT 11                                            01 
01440020001000000DEM       Justice, Supreme Court, Place 6                         OVER VOTES                            PRECINCT 1                                             01 
01440020002000000DEM       Justice, Supreme Court, Place 6                         OVER VOTES                            PRECINCT 2                                             01 
01440020003000000DEM       Justice, Supreme Court, Place 6                         OVER VOTES                            PRECINCT 3                                             01 
01440020004000000DEM       Justice, Supreme Court, Place 6                         OVER VOTES                            PRECINCT 4                                             01 
01440020005000000DEM       Justice, Supreme Court, Place 6                         OVER VOTES                            PRECINCT 6                                             01 
01440020006000000DEM       Justice, Supreme Court, Place 6                         OVER VOTES                            PRECINCT 7                                             01 
01440020007000000DEM       Justice, Supreme Court, Place 6                         OVER VOTES                            PRECINCT 9                                             01 
01440020008000000DEM       Justice, Supreme Court, Place 6                         OVER VOTES                            PRECINCT 11                                            01 
01440030001000008DEM       Justice, Supreme Court, Place 6                         UNDER VOTES                           PRECINCT 1                                             01 
01440030002000007DEM       Justice, Supreme Court, Place 6                         UNDER VOTES                           PRECINCT 2                                             01 
01440030003000005DEM       Justice, Supreme Court, Place 6                         UNDER VOTES                           PRECINCT 3                                             01 
01440030004000005DEM       Justice, Supreme Court, Place 6                         UNDER VOTES                           PRECINCT 4                                             01 
01440030005000004DEM       Justice, Supreme Court, Place 6                         UNDER VOTES                           PRECINCT 6                                             01 
01440030006000002DEM       Justice, Supreme Court, Place 6                         UNDER VOTES                           PRECINCT 7                                             01 
01440030007000000DEM       Justice, Supreme Court, Place 6                         UNDER VOTES                           PRECINCT 9                                             01 
01440030008000003DEM       Justice, Supreme Court, Place 6                         UNDER VOTES                           PRECINCT 11                                            01 
01450010001000020DEM       Presiding Judge, Ct of Crim Ap                          Maria T. (Terri) Jackson              PRECINCT 1                                             01 
01450010002000029DEM       Presiding Judge, Ct of Crim Ap                          Maria T. (Terri) Jackson              PRECINCT 2                                             01 
01450010003000024DEM       Presiding Judge, Ct of Crim Ap                          Maria T. (Terri) Jackson              PRECINCT 3                                             01 
01450010004000009DEM       Presiding Judge, Ct of Crim Ap                          Maria T. (Terri) Jackson              PRECINCT 4                                             01 
01450010005000004DEM       Presiding Judge, Ct of Crim Ap                          Maria T. (Terri) Jackson              PRECINCT 6                                             01 
01450010006000009DEM       Presiding Judge, Ct of Crim Ap                          Maria T. (Terri) Jackson              PRECINCT 7                                             01 
01450010007000001DEM       Presiding Judge, Ct of Crim Ap                          Maria T. (Terri) Jackson              PRECINCT 9                                             01 
01450010008000004DEM       Presiding Judge, Ct of Crim Ap                          Maria T. (Terri) Jackson              PRECINCT 11                                            01 
01450020001000000DEM       Presiding Judge, Ct of Crim Ap                          OVER VOTES                            PRECINCT 1                                             01 
01450020002000000DEM       Presiding Judge, Ct of Crim Ap                          OVER VOTES                            PRECINCT 2                                             01 
01450020003000000DEM       Presiding Judge, Ct of Crim Ap                          OVER VOTES                            PRECINCT 3                                             01 
01450020004000000DEM       Presiding Judge, Ct of Crim Ap                          OVER VOTES                            PRECINCT 4                                             01 
01450020005000000DEM       Presiding Judge, Ct of Crim Ap                          OVER VOTES                            PRECINCT 6                                             01 
01450020006000000DEM       Presiding Judge, Ct of Crim Ap                          OVER VOTES                            PRECINCT 7                                             01 
01450020007000000DEM       Presiding Judge, Ct of Crim Ap                          OVER VOTES                            PRECINCT 9                                             01 
01450020008000000DEM       Presiding Judge, Ct of Crim Ap                          OVER VOTES                            PRECINCT 11                                            01 
01450030001000007DEM       Presiding Judge, Ct of Crim Ap                          UNDER VOTES                           PRECINCT 1                                             01 
01450030002000008DEM       Presiding Judge, Ct of Crim Ap                          UNDER VOTES                           PRECINCT 2                                             01 
01450030003000004DEM       Presiding Judge, Ct of Crim Ap                          UNDER VOTES                           PRECINCT 3                                             01 
01450030004000005DEM       Presiding Judge, Ct of Crim Ap                          UNDER VOTES                           PRECINCT 4                                             01 
01450030005000007DEM       Presiding Judge, Ct of Crim Ap                          UNDER VOTES                           PRECINCT 6                                             01 
01450030006000003DEM       Presiding Judge, Ct of Crim Ap                          UNDER VOTES                           PRECINCT 7                                             01 
01450030007000000DEM       Presiding Judge, Ct of Crim Ap                          UNDER VOTES                           PRECINCT 9                                             01 
01450030008000003DEM       Presiding Judge, Ct of Crim Ap                          UNDER VOTES                           PRECINCT 11                                            01 
01460010001000019DEM       Judge, CT of Criminal CT, P7                            Ramona Franklin                       PRECINCT 1                                             01 
01460010002000030DEM       Judge, CT of Criminal CT, P7                            Ramona Franklin                       PRECINCT 2                                             01 
01460010003000022DEM       Judge, CT of Criminal CT, P7                            Ramona Franklin                       PRECINCT 3                                             01 
01460010004000008DEM       Judge, CT of Criminal CT, P7                            Ramona Franklin                       PRECINCT 4                                             01 
01460010005000004DEM       Judge, CT of Criminal CT, P7                            Ramona Franklin                       PRECINCT 6                                             01 
01460010006000010DEM       Judge, CT of Criminal CT, P7                            Ramona Franklin                       PRECINCT 7                                             01 
01460010007000000DEM       Judge, CT of Criminal CT, P7                            Ramona Franklin                       PRECINCT 9                                             01 
01460010008000004DEM       Judge, CT of Criminal CT, P7                            Ramona Franklin                       PRECINCT 11                                            01 
01460020001000000DEM       Judge, CT of Criminal CT, P7                            OVER VOTES                            PRECINCT 1                                             01 
01460020002000000DEM       Judge, CT of Criminal CT, P7                            OVER VOTES                            PRECINCT 2                                             01 
01460020003000000DEM       Judge, CT of Criminal CT, P7                            OVER VOTES                            PRECINCT 3                                             01 
01460020004000000DEM       Judge, CT of Criminal CT, P7                            OVER VOTES                            PRECINCT 4                                             01 
01460020005000000DEM       Judge, CT of Criminal CT, P7                            OVER VOTES                            PRECINCT 6                                             01 
01460020006000000DEM       Judge, CT of Criminal CT, P7                            OVER VOTES                            PRECINCT 7                                             01 
01460020007000000DEM       Judge, CT of Criminal CT, P7                            OVER VOTES                            PRECINCT 9                                             01 
01460020008000000DEM       Judge, CT of Criminal CT, P7                            OVER VOTES                            PRECINCT 11                                            01 
01460030001000008DEM       Judge, CT of Criminal CT, P7                            UNDER VOTES                           PRECINCT 1                                             01 
01460030002000007DEM       Judge, CT of Criminal CT, P7                            UNDER VOTES                           PRECINCT 2                                             01 
01460030003000006DEM       Judge, CT of Criminal CT, P7                            UNDER VOTES                           PRECINCT 3                                             01 
01460030004000006DEM       Judge, CT of Criminal CT, P7                            UNDER VOTES                           PRECINCT 4                                             01 
01460030005000007DEM       Judge, CT of Criminal CT, P7                            UNDER VOTES                           PRECINCT 6                                             01 
01460030006000002DEM       Judge, CT of Criminal CT, P7                            UNDER VOTES                           PRECINCT 7                                             01 
01460030007000001DEM       Judge, CT of Criminal CT, P7                            UNDER VOTES                           PRECINCT 9                                             01 
01460030008000003DEM       Judge, CT of Criminal CT, P7                            UNDER VOTES                           PRECINCT 11                                            01 
01470010001000020DEM       State Representative District 88                        Ezekiel Barron                        PRECINCT 1                                             01 
01470010002000029DEM       State Representative District 88                        Ezekiel Barron                        PRECINCT 2                                             01 
01470010003000024DEM       State Representative District 88                        Ezekiel Barron                        PRECINCT 3                                             01 
01470010004000009DEM       State Representative District 88                        Ezekiel Barron                        PRECINCT 4                                             01 
01470010005000005DEM       State Representative District 88                        Ezekiel Barron                        PRECINCT 6                                             01 
01470010006000011DEM       State Representative District 88                        Ezekiel Barron                        PRECINCT 7                                             01 
01470010007000001DEM       State Representative District 88                        Ezekiel Barron                        PRECINCT 9                                             01 
01470010008000005DEM       State Representative District 88                        Ezekiel Barron                        PRECINCT 11                                            01 
01470020001000000DEM       State Representative District 88                        OVER VOTES                            PRECINCT 1                                             01 
01470020002000000DEM       State Representative District 88                        OVER VOTES                            PRECINCT 2                                             01 
01470020003000000DEM       State Representative District 88                        OVER VOTES                            PRECINCT 3                                             01 
01470020004000000DEM       State Representative District 88                        OVER VOTES                            PRECINCT 4                                             01 
01470020005000000DEM       State Representative District 88                        OVER VOTES                            PRECINCT 6                                             01 
01470020006000000DEM       State Representative District 88                        OVER VOTES                            PRECINCT 7                                             01 
01470020007000000DEM       State Representative District 88                        OVER VOTES                            PRECINCT 9                                             01 
01470020008000000DEM       State Representative District 88                        OVER VOTES                            PRECINCT 11                                            01 
01470030001000007DEM       State Representative District 88                        UNDER VOTES                           PRECINCT 1                                             01 
01470030002000008DEM       State Representative District 88                        UNDER VOTES                           PRECINCT 2                                             01 
01470030003000004DEM       State Representative District 88                        UNDER VOTES                           PRECINCT 3                                             01 
01470030004000005DEM       State Representative District 88                        UNDER VOTES                           PRECINCT 4                                             01 
01470030005000006DEM       State Representative District 88                        UNDER VOTES                           PRECINCT 6                                             01 
01470030006000001DEM       State Representative District 88                        UNDER VOTES                           PRECINCT 7                                             01 
01470030007000000DEM       State Representative District 88                        UNDER VOTES                           PRECINCT 9                                             01 
01470030008000002DEM       State Representative District 88                        UNDER VOTES                           PRECINCT 11                                            01 
01480010001000021DEM       County Judge                                            Priscilla Sanders                     PRECINCT 1                                             01 
01480010002000029DEM       County Judge                                            Priscilla Sanders                     PRECINCT 2                                             01 
01480010003000017DEM       County Judge                                            Priscilla Sanders                     PRECINCT 3                                             01 
01480010004000011DEM       County Judge                                            Priscilla Sanders                     PRECINCT 4                                             01 
01480010005000008DEM       County Judge                                            Priscilla Sanders                     PRECINCT 6                                             01 
01480010006000007DEM       County Judge                                            Priscilla Sanders                     PRECINCT 7                                             01 
01480010007000000DEM       County Judge                                            Priscilla Sanders                     PRECINCT 9                                             01 
01480010008000005DEM       County Judge                                            Priscilla Sanders                     PRECINCT 11                                            01 
01480020001000000DEM       County Judge                                            OVER VOTES                            PRECINCT 1                                             01 
01480020002000000DEM       County Judge                                            OVER VOTES                            PRECINCT 2                                             01 
01480020003000000DEM       County Judge                                            OVER VOTES                            PRECINCT 3                                             01 
01480020004000000DEM       County Judge                                            OVER VOTES                            PRECINCT 4                                             01 
01480020005000000DEM       County Judge                                            OVER VOTES                            PRECINCT 6                                             01 
01480020006000000DEM       County Judge                                            OVER VOTES                            PRECINCT 7                                             01 
01480020007000000DEM       County Judge                                            OVER VOTES                            PRECINCT 9                                             01 
01480020008000000DEM       County Judge                                            OVER VOTES                            PRECINCT 11                                            01 
01480030001000006DEM       County Judge                                            UNDER VOTES                           PRECINCT 1                                             01 
01480030002000008DEM       County Judge                                            UNDER VOTES                           PRECINCT 2                                             01 
01480030003000011DEM       County Judge                                            UNDER VOTES                           PRECINCT 3                                             01 
01480030004000003DEM       County Judge                                            UNDER VOTES                           PRECINCT 4                                             01 
01480030005000003DEM       County Judge                                            UNDER VOTES                           PRECINCT 6                                             01 
01480030006000005DEM       County Judge                                            UNDER VOTES                           PRECINCT 7                                             01 
01480030007000001DEM       County Judge                                            UNDER VOTES                           PRECINCT 9                                             01 
01480030008000002DEM       County Judge                                            UNDER VOTES                           PRECINCT 11                                            01 
01600010001000020DEM       Proposition #1 DEM                                      For                                   PRECINCT 1                                             01Y
01600010002000033DEM       Proposition #1 DEM                                      For                                   PRECINCT 2                                             01Y
01600010003000022DEM       Proposition #1 DEM                                      For                                   PRECINCT 3                                             01Y
01600010004000010DEM       Proposition #1 DEM                                      For                                   PRECINCT 4                                             01Y
01600010005000009DEM       Proposition #1 DEM                                      For                                   PRECINCT 6                                             01Y
01600010006000009DEM       Proposition #1 DEM                                      For                                   PRECINCT 7                                             01Y
01600010007000001DEM       Proposition #1 DEM                                      For                                   PRECINCT 9                                             01Y
01600010008000007DEM       Proposition #1 DEM                                      For                                   PRECINCT 11                                            01Y
01600020001000006DEM       Proposition #1 DEM                                      Against                               PRECINCT 1                                             01Y
01600020002000002DEM       Proposition #1 DEM                                      Against                               PRECINCT 2                                             01Y
01600020003000005DEM       Proposition #1 DEM                                      Against                               PRECINCT 3                                             01Y
01600020004000003DEM       Proposition #1 DEM                                      Against                               PRECINCT 4                                             01Y
01600020005000001DEM       Proposition #1 DEM                                      Against                               PRECINCT 6                                             01Y
01600020006000003DEM       Proposition #1 DEM                                      Against                               PRECINCT 7                                             01Y
01600020007000000DEM       Proposition #1 DEM                                      Against                               PRECINCT 9                                             01Y
01600020008000000DEM       Proposition #1 DEM                                      Against                               PRECINCT 11                                            01Y
01600030001000000DEM       Proposition #1 DEM                                      OVER VOTES                            PRECINCT 1                                             01Y
01600030002000000DEM       Proposition #1 DEM                                      OVER VOTES                            PRECINCT 2                                             01Y
01600030003000000DEM       Proposition #1 DEM                                      OVER VOTES                            PRECINCT 3                                             01Y
01600030004000000DEM       Proposition #1 DEM                                      OVER VOTES                            PRECINCT 4                                             01Y
01600030005000000DEM       Proposition #1 DEM                                      OVER VOTES                            PRECINCT 6                                             01Y
01600030006000000DEM       Proposition #1 DEM                                      OVER VOTES                            PRECINCT 7                                             01Y
01600030007000000DEM       Proposition #1 DEM                                      OVER VOTES                            PRECINCT 9                                             01Y
01600030008000000DEM       Proposition #1 DEM                                      OVER VOTES                            PRECINCT 11                                            01Y
01600040001000001DEM       Proposition #1 DEM                                      UNDER VOTES                           PRECINCT 1                                             01Y
01600040002000002DEM       Proposition #1 DEM                                      UNDER VOTES                           PRECINCT 2                                             01Y
01600040003000001DEM       Proposition #1 DEM                                      UNDER VOTES                           PRECINCT 3                                             01Y
01600040004000001DEM       Proposition #1 DEM                                      UNDER VOTES                           PRECINCT 4                                             01Y
01600040005000001DEM       Proposition #1 DEM                                      UNDER VOTES                           PRECINCT 6                                             01Y
01600040006000000DEM       Proposition #1 DEM                                      UNDER VOTES                           PRECINCT 7                                             01Y
01600040007000000DEM       Proposition #1 DEM                                      UNDER VOTES                           PRECINCT 9                                             01Y
01600040008000000DEM       Proposition #1 DEM                                      UNDER VOTES                           PRECINCT 11                                            01Y
01610010001000025DEM       Proposition #2 DEM                                      For                                   PRECINCT 1                                             01Y
01610010002000035DEM       Proposition #2 DEM                                      For                                   PRECINCT 2                                             01Y
01610010003000021DEM       Proposition #2 DEM                                      For                                   PRECINCT 3                                             01Y
01610010004000008DEM       Proposition #2 DEM                                      For                                   PRECINCT 4                                             01Y
01610010005000010DEM       Proposition #2 DEM                                      For                                   PRECINCT 6                                             01Y
01610010006000009DEM       Proposition #2 DEM                                      For                                   PRECINCT 7                                             01Y
01610010007000001DEM       Proposition #2 DEM                                      For                                   PRECINCT 9                                             01Y
01610010008000005DEM       Proposition #2 DEM                                      For                                   PRECINCT 11                                            01Y
