01010010001000611000000000000000000000000000000          REGISTERED VOTERS - TOTAL                               REGISTERED VOTERS - TOTAL             PRECINCT 1                                             00 
01010010002000938000000000000000000000000000000          REGISTERED VOTERS - TOTAL                               REGISTERED VOTERS - TOTAL             PRECINCT 2                                             00 
01010010003001182000000000000000000000000000000          REGISTERED VOTERS - TOTAL                               REGISTERED VOTERS - TOTAL             PRECINCT 3                                             00 
01010010004001564000000000000000000000000000000          REGISTERED VOTERS - TOTAL                               REGISTERED VOTERS - TOTAL             PRECINCT 4                                             00 
01010010005002603000000000000000000000000000000          REGISTERED VOTERS - TOTAL                               REGISTERED VOTERS - TOTAL             PRECINCT 5                                             00 
01010010006000344000000000000000000000000000000          REGISTERED VOTERS - TOTAL                               REGISTERED VOTERS - TOTAL             PRECINCT 6                                             00 
01010010007002139000000000000000000000000000000          REGISTERED VOTERS - TOTAL                               REGISTERED VOTERS - TOTAL             PRECINCT 7                                             00 
01010010008002236000000000000000000000000000000          REGISTERED VOTERS - TOTAL                               REGISTERED VOTERS - TOTAL             PRECINCT 8                                             00 
01010010009001212000000000000000000000000000000          REGISTERED VOTERS - TOTAL                               REGISTERED VOTERS - TOTAL             PRECINCT 9                                             00 
01010010010001632000000000000000000000000000000          REGISTERED VOTERS - TOTAL                               REGISTERED VOTERS - TOTAL             PRECINCT 10                                            00 
01010010011000386000000000000000000000000000000          REGISTERED VOTERS - TOTAL                               REGISTERED VOTERS - TOTAL             PRECINCT 11                                            00 
01010010012000745000000000000000000000000000000          REGISTERED VOTERS - TOTAL                               REGISTERED VOTERS - TOTAL             PRECINCT 12                                            00 
01010010013001734000000000000000000000000000000          REGISTERED VOTERS - TOTAL                               REGISTERED VOTERS - TOTAL             PRECINCT 13                                            00 
01010010014001368000000000000000000000000000000          REGISTERED VOTERS - TOTAL                               REGISTERED VOTERS - TOTAL             PRECINCT 14                                            00 
01010010015000115000000000000000000000000000000          REGISTERED VOTERS - TOTAL                               REGISTERED VOTERS - TOTAL             PRECINCT 15                                            00 
01010010016000459000000000000000000000000000000          REGISTERED VOTERS - TOTAL                               REGISTERED VOTERS - TOTAL             PRECINCT 16                                            00 
01010010017000704000000000000000000000000000000          REGISTERED VOTERS - TOTAL                               REGISTERED VOTERS - TOTAL             PRECINCT 17                                            00 
01010010018003935000000000000000000000000000000          REGISTERED VOTERS - TOTAL                               REGISTERED VOTERS - TOTAL             PRECINCT 18                                            00 
01010010019002746000000000000000000000000000000          REGISTERED VOTERS - TOTAL                               REGISTERED VOTERS - TOTAL             PRECINCT 19                                            00 
01010010020001323000000000000000000000000000000          REGISTERED VOTERS - TOTAL                               REGISTERED VOTERS - TOTAL             PRECINCT 20                                            00 
01010010021003683000000000000000000000000000000          REGISTERED VOTERS - TOTAL                               REGISTERED VOTERS - TOTAL             PRECINCT 21                                            00 
01010010022001566000000000000000000000000000000          REGISTERED VOTERS - TOTAL                               REGISTERED VOTERS - TOTAL             PRECINCT 22                                            00 
01010010023001549000000000000000000000000000000          REGISTERED VOTERS - TOTAL                               REGISTERED VOTERS - TOTAL             PRECINCT 23                                            00 
01010010024001372000000000000000000000000000000          REGISTERED VOTERS - TOTAL                               REGISTERED VOTERS - TOTAL             PRECINCT 24                                            00 
01010010025003866000000000000000000000000000000          REGISTERED VOTERS - TOTAL                               REGISTERED VOTERS - TOTAL             PRECINCT 25                                            00 
01010010026001078000000000000000000000000000000          REGISTERED VOTERS - TOTAL                               REGISTERED VOTERS - TOTAL             PRECINCT 26                                            00 
01010010027001506000000000000000000000000000000          REGISTERED VOTERS - TOTAL                               REGISTERED VOTERS - TOTAL             PRECINCT 27                                            00 
01010010028000515000000000000000000000000000000          REGISTERED VOTERS - TOTAL                               REGISTERED VOTERS - TOTAL             PRECINCT 28                                            00 
01010010029002492000000000000000000000000000000          REGISTERED VOTERS - TOTAL                               REGISTERED VOTERS - TOTAL             PRECINCT 29                                            00 
01010010030000515000000000000000000000000000000          REGISTERED VOTERS - TOTAL                               REGISTERED VOTERS - TOTAL             PRECINCT 30                                            00 
01010010031000859000000000000000000000000000000          REGISTERED VOTERS - TOTAL                               REGISTERED VOTERS - TOTAL             PRECINCT 31                                            00 
01010010032001402000000000000000000000000000000          REGISTERED VOTERS - TOTAL                               REGISTERED VOTERS - TOTAL             PRECINCT 32                                            00 
01010010033004210000000000000000000000000000000          REGISTERED VOTERS - TOTAL                               REGISTERED VOTERS - TOTAL             PRECINCT 33                                            00 
01010010034001299000000000000000000000000000000          REGISTERED VOTERS - TOTAL                               REGISTERED VOTERS - TOTAL             PRECINCT 34                                            00 
01010010035000611000000000000000000000000000000          REGISTERED VOTERS - TOTAL                               REGISTERED VOTERS - TOTAL             PRECINCT 35                                            00 
01020010001000072000021000012000039000000000000          BALLOTS CAST - TOTAL                                    BALLOTS CAST - TOTAL                  PRECINCT 1                                             00 
01020010002000241000023000095000123000000000000          BALLOTS CAST - TOTAL                                    BALLOTS CAST - TOTAL                  PRECINCT 2                                             00 
01020010003000319000040000124000155000000000000          BALLOTS CAST - TOTAL                                    BALLOTS CAST - TOTAL                  PRECINCT 3                                             00 
01020010004000156000038000030000088000000000000          BALLOTS CAST - TOTAL                                    BALLOTS CAST - TOTAL                  PRECINCT 4                                             00 
01020010005000336000058000107000171000000000000          BALLOTS CAST - TOTAL                                    BALLOTS CAST - TOTAL                  PRECINCT 5                                             00 
01020010006000028000010000005000013000000000000          BALLOTS CAST - TOTAL                                    BALLOTS CAST - TOTAL                  PRECINCT 6                                             00 
01020010007000227000054000064000109000000000000          BALLOTS CAST - TOTAL                                    BALLOTS CAST - TOTAL                  PRECINCT 7                                             00 
01020010008000259000043000098000118000000000000          BALLOTS CAST - TOTAL                                    BALLOTS CAST - TOTAL                  PRECINCT 8                                             00 
01020010009000157000032000043000082000000000000          BALLOTS CAST - TOTAL                                    BALLOTS CAST - TOTAL                  PRECINCT 9                                             00 
01020010010000381000059000162000160000000000000          BALLOTS CAST - TOTAL                                    BALLOTS CAST - TOTAL                  PRECINCT 10                                            00 
01020010011000122000012000044000066000000000000          BALLOTS CAST - TOTAL                                    BALLOTS CAST - TOTAL                  PRECINCT 11                                            00 
01020010012000091000002000019000070000000000000          BALLOTS CAST - TOTAL                                    BALLOTS CAST - TOTAL                  PRECINCT 12                                            00 
01020010013000148000029000015000104000000000000          BALLOTS CAST - TOTAL                                    BALLOTS CAST - TOTAL                  PRECINCT 13                                            00 
01020010014000283000031000060000192000000000000          BALLOTS CAST - TOTAL                                    BALLOTS CAST - TOTAL                  PRECINCT 14                                            00 
01020010015000028000007000006000015000000000000          BALLOTS CAST - TOTAL                                    BALLOTS CAST - TOTAL                  PRECINCT 15                                            00 
01020010016000093000011000029000053000000000000          BALLOTS CAST - TOTAL                                    BALLOTS CAST - TOTAL                  PRECINCT 16                                            00 
01020010017000104000010000025000069000000000000          BALLOTS CAST - TOTAL                                    BALLOTS CAST - TOTAL                  PRECINCT 17                                            00 
01020010018000746000120000257000369000000000000          BALLOTS CAST - TOTAL                                    BALLOTS CAST - TOTAL                  PRECINCT 18                                            00 
01020010019000518000080000181000257000000000000          BALLOTS CAST - TOTAL                                    BALLOTS CAST - TOTAL                  PRECINCT 19                                            00 
01020010020000339000037000149000153000000000000          BALLOTS CAST - TOTAL                                    BALLOTS CAST - TOTAL                  PRECINCT 20                                            00 
01020010021000986000157000312000517000000000000          BALLOTS CAST - TOTAL                                    BALLOTS CAST - TOTAL                  PRECINCT 21                                            00 
01020010022000447000057000116000274000000000000          BALLOTS CAST - TOTAL                                    BALLOTS CAST - TOTAL                  PRECINCT 22                                            00 
01020010023000377000047000121000209000000000000          BALLOTS CAST - TOTAL                                    BALLOTS CAST - TOTAL                  PRECINCT 23                                            00 
01020010024000387000046000137000204000000000000          BALLOTS CAST - TOTAL                                    BALLOTS CAST - TOTAL                  PRECINCT 24                                            00 
01020010025000814000166000301000347000000000000          BALLOTS CAST - TOTAL                                    BALLOTS CAST - TOTAL                  PRECINCT 25                                            00 
01020010026000255000032000064000159000000000000          BALLOTS CAST - TOTAL                                    BALLOTS CAST - TOTAL                  PRECINCT 26                                            00 
01020010027000456000034000083000339000000000000          BALLOTS CAST - TOTAL                                    BALLOTS CAST - TOTAL                  PRECINCT 27                                            00 
01020010028000154000022000034000098000000000000          BALLOTS CAST - TOTAL                                    BALLOTS CAST - TOTAL                  PRECINCT 28                                            00 
01020010029000805000103000283000419000000000000          BALLOTS CAST - TOTAL                                    BALLOTS CAST - TOTAL                  PRECINCT 29                                            00 
01020010030000121000027000024000070000000000000          BALLOTS CAST - TOTAL                                    BALLOTS CAST - TOTAL                  PRECINCT 30                                            00 
01020010031000141000023000042000076000000000000          BALLOTS CAST - TOTAL                                    BALLOTS CAST - TOTAL                  PRECINCT 31                                            00 
01020010032000123000036000033000054000000000000          BALLOTS CAST - TOTAL                                    BALLOTS CAST - TOTAL                  PRECINCT 32                                            00 
01020010033001306000198000549000559000000000000          BALLOTS CAST - TOTAL                                    BALLOTS CAST - TOTAL                  PRECINCT 33                                            00 
01020010034000077000020000016000041000000000000          BALLOTS CAST - TOTAL                                    BALLOTS CAST - TOTAL                  PRECINCT 34                                            00 
01020010035000042000006000011000025000000000000          BALLOTS CAST - TOTAL                                    BALLOTS CAST - TOTAL                  PRECINCT 35                                            00 
01030010001000032000005000003000024000000000000REP       BALLOTS CAST - REPUBLICAN                               BALLOTS CAST - REPUBLICAN             PRECINCT 1                                             00 
01030010002000188000015000074000099000000000000REP       BALLOTS CAST - REPUBLICAN                               BALLOTS CAST - REPUBLICAN             PRECINCT 2                                             00 
01030010003000261000030000109000122000000000000REP       BALLOTS CAST - REPUBLICAN                               BALLOTS CAST - REPUBLICAN             PRECINCT 3                                             00 
01030010004000087000017000014000056000000000000REP       BALLOTS CAST - REPUBLICAN                               BALLOTS CAST - REPUBLICAN             PRECINCT 4                                             00 
01030010005000225000035000077000113000000000000REP       BALLOTS CAST - REPUBLICAN                               BALLOTS CAST - REPUBLICAN             PRECINCT 5                                             00 
01030010006000010000001000002000007000000000000REP       BALLOTS CAST - REPUBLICAN                               BALLOTS CAST - REPUBLICAN             PRECINCT 6                                             00 
01030010007000100000017000032000051000000000000REP       BALLOTS CAST - REPUBLICAN                               BALLOTS CAST - REPUBLICAN             PRECINCT 7                                             00 
01030010008000176000023000068000085000000000000REP       BALLOTS CAST - REPUBLICAN                               BALLOTS CAST - REPUBLICAN             PRECINCT 8                                             00 
01030010009000114000019000029000066000000000000REP       BALLOTS CAST - REPUBLICAN                               BALLOTS CAST - REPUBLICAN             PRECINCT 9                                             00 
01030010010000309000045000135000129000000000000REP       BALLOTS CAST - REPUBLICAN                               BALLOTS CAST - REPUBLICAN             PRECINCT 10                                            00 
01030010011000102000006000038000058000000000000REP       BALLOTS CAST - REPUBLICAN                               BALLOTS CAST - REPUBLICAN             PRECINCT 11                                            00 
01030010012000072000001000013000058000000000000REP       BALLOTS CAST - REPUBLICAN                               BALLOTS CAST - REPUBLICAN             PRECINCT 12                                            00 
01030010013000086000009000010000067000000000000REP       BALLOTS CAST - REPUBLICAN                               BALLOTS CAST - REPUBLICAN             PRECINCT 13                                            00 
01030010014000234000024000050000160000000000000REP       BALLOTS CAST - REPUBLICAN                               BALLOTS CAST - REPUBLICAN             PRECINCT 14                                            00 
01030010015000025000005000006000014000000000000REP       BALLOTS CAST - REPUBLICAN                               BALLOTS CAST - REPUBLICAN             PRECINCT 15                                            00 
01030010016000082000009000026000047000000000000REP       BALLOTS CAST - REPUBLICAN                               BALLOTS CAST - REPUBLICAN             PRECINCT 16                                            00 
01030010017000086000005000022000059000000000000REP       BALLOTS CAST - REPUBLICAN                               BALLOTS CAST - REPUBLICAN             PRECINCT 17                                            00 
01030010018000659000089000233000337000000000000REP       BALLOTS CAST - REPUBLICAN                               BALLOTS CAST - REPUBLICAN             PRECINCT 18                                            00 
01030010019000396000049000151000196000000000000REP       BALLOTS CAST - REPUBLICAN                               BALLOTS CAST - REPUBLICAN             PRECINCT 19                                            00 
01030010020000299000031000129000139000000000000REP       BALLOTS CAST - REPUBLICAN                               BALLOTS CAST - REPUBLICAN             PRECINCT 20                                            00 
01030010021000855000126000269000460000000000000REP       BALLOTS CAST - REPUBLICAN                               BALLOTS CAST - REPUBLICAN             PRECINCT 21                                            00 
01030010022000424000049000110000265000000000000REP       BALLOTS CAST - REPUBLICAN                               BALLOTS CAST - REPUBLICAN             PRECINCT 22                                            00 
01030010023000330000030000108000192000000000000REP       BALLOTS CAST - REPUBLICAN                               BALLOTS CAST - REPUBLICAN             PRECINCT 23                                            00 
01030010024000354000039000127000188000000000000REP       BALLOTS CAST - REPUBLICAN                               BALLOTS CAST - REPUBLICAN             PRECINCT 24                                            00 
01030010025000647000117000241000289000000000000REP       BALLOTS CAST - REPUBLICAN                               BALLOTS CAST - REPUBLICAN             PRECINCT 25                                            00 
01030010026000227000027000057000143000000000000REP       BALLOTS CAST - REPUBLICAN                               BALLOTS CAST - REPUBLICAN             PRECINCT 26                                            00 
01030010027000432000029000076000327000000000000REP       BALLOTS CAST - REPUBLICAN                               BALLOTS CAST - REPUBLICAN             PRECINCT 27                                            00 
01030010028000151000021000034000096000000000000REP       BALLOTS CAST - REPUBLICAN                               BALLOTS CAST - REPUBLICAN             PRECINCT 28                                            00 
01030010029000710000091000247000372000000000000REP       BALLOTS CAST - REPUBLICAN                               BALLOTS CAST - REPUBLICAN             PRECINCT 29                                            00 
01030010030000092000019000018000055000000000000REP       BALLOTS CAST - REPUBLICAN                               BALLOTS CAST - REPUBLICAN             PRECINCT 30                                            00 
01030010031000099000011000035000053000000000000REP       BALLOTS CAST - REPUBLICAN                               BALLOTS CAST - REPUBLICAN             PRECINCT 31                                            00 
01030010032000071000017000023000031000000000000REP       BALLOTS CAST - REPUBLICAN                               BALLOTS CAST - REPUBLICAN             PRECINCT 32                                            00 
01030010033001180000174000506000500000000000000REP       BALLOTS CAST - REPUBLICAN                               BALLOTS CAST - REPUBLICAN             PRECINCT 33                                            00 
01030010034000027000002000010000015000000000000REP       BALLOTS CAST - REPUBLICAN                               BALLOTS CAST - REPUBLICAN             PRECINCT 34                                            00 
01030010035000019000001000007000011000000000000REP       BALLOTS CAST - REPUBLICAN                               BALLOTS CAST - REPUBLICAN             PRECINCT 35                                            00 
01040010001000040000016000009000015000000000000DEM       BALLOTS CAST - DEMOCRATIC                               BALLOTS CAST - DEMOCRATIC             PRECINCT 1                                             00 
01040010002000053000008000021000024000000000000DEM       BALLOTS CAST - DEMOCRATIC                               BALLOTS CAST - DEMOCRATIC             PRECINCT 2                                             00 
01040010003000058000010000015000033000000000000DEM       BALLOTS CAST - DEMOCRATIC                               BALLOTS CAST - DEMOCRATIC             PRECINCT 3                                             00 
01040010004000069000021000016000032000000000000DEM       BALLOTS CAST - DEMOCRATIC                               BALLOTS CAST - DEMOCRATIC             PRECINCT 4                                             00 
01040010005000111000023000030000058000000000000DEM       BALLOTS CAST - DEMOCRATIC                               BALLOTS CAST - DEMOCRATIC             PRECINCT 5                                             00 
01040010006000018000009000003000006000000000000DEM       BALLOTS CAST - DEMOCRATIC                               BALLOTS CAST - DEMOCRATIC             PRECINCT 6                                             00 
01040010007000127000037000032000058000000000000DEM       BALLOTS CAST - DEMOCRATIC                               BALLOTS CAST - DEMOCRATIC             PRECINCT 7                                             00 
01040010008000083000020000030000033000000000000DEM       BALLOTS CAST - DEMOCRATIC                               BALLOTS CAST - DEMOCRATIC             PRECINCT 8                                             00 
01040010009000043000013000014000016000000000000DEM       BALLOTS CAST - DEMOCRATIC                               BALLOTS CAST - DEMOCRATIC             PRECINCT 9                                             00 
01040010010000072000014000027000031000000000000DEM       BALLOTS CAST - DEMOCRATIC                               BALLOTS CAST - DEMOCRATIC             PRECINCT 10                                            00 
01040010011000020000006000006000008000000000000DEM       BALLOTS CAST - DEMOCRATIC                               BALLOTS CAST - DEMOCRATIC             PRECINCT 11                                            00 
01040010012000019000001000006000012000000000000DEM       BALLOTS CAST - DEMOCRATIC                               BALLOTS CAST - DEMOCRATIC             PRECINCT 12                                            00 
01040010013000062000020000005000037000000000000DEM       BALLOTS CAST - DEMOCRATIC                               BALLOTS CAST - DEMOCRATIC             PRECINCT 13                                            00 
01040010014000049000007000010000032000000000000DEM       BALLOTS CAST - DEMOCRATIC                               BALLOTS CAST - DEMOCRATIC             PRECINCT 14                                            00 
01040010015000003000002000000000001000000000000DEM       BALLOTS CAST - DEMOCRATIC                               BALLOTS CAST - DEMOCRATIC             PRECINCT 15                                            00 
01040010016000011000002000003000006000000000000DEM       BALLOTS CAST - DEMOCRATIC                               BALLOTS CAST - DEMOCRATIC             PRECINCT 16                                            00 
01040010017000018000005000003000010000000000000DEM       BALLOTS CAST - DEMOCRATIC                               BALLOTS CAST - DEMOCRATIC             PRECINCT 17                                            00 
01040010018000087000031000024000032000000000000DEM       BALLOTS CAST - DEMOCRATIC                               BALLOTS CAST - DEMOCRATIC             PRECINCT 18                                            00 
01040010019000122000031000030000061000000000000DEM       BALLOTS CAST - DEMOCRATIC                               BALLOTS CAST - DEMOCRATIC             PRECINCT 19                                            00 
01040010020000040000006000020000014000000000000DEM       BALLOTS CAST - DEMOCRATIC                               BALLOTS CAST - DEMOCRATIC             PRECINCT 20                                            00 
01040010021000131000031000043000057000000000000DEM       BALLOTS CAST - DEMOCRATIC                               BALLOTS CAST - DEMOCRATIC             PRECINCT 21                                            00 
01040010022000023000008000006000009000000000000DEM       BALLOTS CAST - DEMOCRATIC                               BALLOTS CAST - DEMOCRATIC             PRECINCT 22                                            00 
01040010023000047000017000013000017000000000000DEM       BALLOTS CAST - DEMOCRATIC                               BALLOTS CAST - DEMOCRATIC             PRECINCT 23                                            00 
01040010024000033000007000010000016000000000000DEM       BALLOTS CAST - DEMOCRATIC                               BALLOTS CAST - DEMOCRATIC             PRECINCT 24                                            00 
01040010025000167000049000060000058000000000000DEM       BALLOTS CAST - DEMOCRATIC                               BALLOTS CAST - DEMOCRATIC             PRECINCT 25                                            00 
01040010026000028000005000007000016000000000000DEM       BALLOTS CAST - DEMOCRATIC                               BALLOTS CAST - DEMOCRATIC             PRECINCT 26                                            00 
01040010027000024000005000007000012000000000000DEM       BALLOTS CAST - DEMOCRATIC                               BALLOTS CAST - DEMOCRATIC             PRECINCT 27                                            00 
01040010028000003000001000000000002000000000000DEM       BALLOTS CAST - DEMOCRATIC                               BALLOTS CAST - DEMOCRATIC             PRECINCT 28                                            00 
01040010029000095000012000036000047000000000000DEM       BALLOTS CAST - DEMOCRATIC                               BALLOTS CAST - DEMOCRATIC             PRECINCT 29                                            00 
01040010030000029000008000006000015000000000000DEM       BALLOTS CAST - DEMOCRATIC                               BALLOTS CAST - DEMOCRATIC             PRECINCT 30                                            00 
01040010031000042000012000007000023000000000000DEM       BALLOTS CAST - DEMOCRATIC                               BALLOTS CAST - DEMOCRATIC             PRECINCT 31                                            00 
01040010032000052000019000010000023000000000000DEM       BALLOTS CAST - DEMOCRATIC                               BALLOTS CAST - DEMOCRATIC             PRECINCT 32                                            00 
01040010033000126000024000043000059000000000000DEM       BALLOTS CAST - DEMOCRATIC                               BALLOTS CAST - DEMOCRATIC             PRECINCT 33                                            00 
01040010034000050000018000006000026000000000000DEM       BALLOTS CAST - DEMOCRATIC                               BALLOTS CAST - DEMOCRATIC             PRECINCT 34                                            00 
01040010035000023000005000004000014000000000000DEM       BALLOTS CAST - DEMOCRATIC                               BALLOTS CAST - DEMOCRATIC             PRECINCT 35                                            00 
01050010001000001000000000000000001000000000000REP       United States Senator VICTORIA COUNTY                   Geraldine Sam                         PRECINCT 1                                             01 
01050010002000005000000000002000003000000000000REP       United States Senator VICTORIA COUNTY                   Geraldine Sam                         PRECINCT 2                                             01 
01050010003000004000000000001000003000000000000REP       United States Senator VICTORIA COUNTY                   Geraldine Sam                         PRECINCT 3                                             01 
01050010004000004000000000000000004000000000000REP       United States Senator VICTORIA COUNTY                   Geraldine Sam                         PRECINCT 4                                             01 
01050010005000008000000000004000004000000000000REP       United States Senator VICTORIA COUNTY                   Geraldine Sam                         PRECINCT 5                                             01 
01050010006000001000000000001000000000000000000REP       United States Senator VICTORIA COUNTY                   Geraldine Sam                         PRECINCT 6                                             01 
01050010007000003000000000001000002000000000000REP       United States Senator VICTORIA COUNTY                   Geraldine Sam                         PRECINCT 7                                             01 
01050010008000002000000000001000001000000000000REP       United States Senator VICTORIA COUNTY                   Geraldine Sam                         PRECINCT 8                                             01 
01050010009000002000000000000000002000000000000REP       United States Senator VICTORIA COUNTY                   Geraldine Sam                         PRECINCT 9                                             01 
01050010010000011000002000004000005000000000000REP       United States Senator VICTORIA COUNTY                   Geraldine Sam                         PRECINCT 10                                            01 
01050010011000000000000000000000000000000000000REP       United States Senator VICTORIA COUNTY                   Geraldine Sam                         PRECINCT 11                                            01 
01050010012000002000000000001000001000000000000REP       United States Senator VICTORIA COUNTY                   Geraldine Sam                         PRECINCT 12                                            01 
01050010013000002000000000000000002000000000000REP       United States Senator VICTORIA COUNTY                   Geraldine Sam                         PRECINCT 13                                            01 
01050010014000005000000000000000005000000000000REP       United States Senator VICTORIA COUNTY                   Geraldine Sam                         PRECINCT 14                                            01 
01050010015000001000000000000000001000000000000REP       United States Senator VICTORIA COUNTY                   Geraldine Sam                         PRECINCT 15                                            01 
01050010016000002000000000000000002000000000000REP       United States Senator VICTORIA COUNTY                   Geraldine Sam                         PRECINCT 16                                            01 
01050010017000002000000000002000000000000000000REP       United States Senator VICTORIA COUNTY                   Geraldine Sam                         PRECINCT 17                                            01 
01050010018000021000001000009000011000000000000REP       United States Senator VICTORIA COUNTY                   Geraldine Sam                         PRECINCT 18                                            01 
01050010019000003000000000002000001000000000000REP       United States Senator VICTORIA COUNTY                   Geraldine Sam                         PRECINCT 19                                            01 
01050010020000002000000000001000001000000000000REP       United States Senator VICTORIA COUNTY                   Geraldine Sam                         PRECINCT 20                                            01 
01050010021000013000000000007000006000000000000REP       United States Senator VICTORIA COUNTY                   Geraldine Sam                         PRECINCT 21                                            01 
01050010022000010000000000002000008000000000000REP       United States Senator VICTORIA COUNTY                   Geraldine Sam                         PRECINCT 22                                            01 
01050010023000006000000000002000004000000000000REP       United States Senator VICTORIA COUNTY                   Geraldine Sam                         PRECINCT 23                                            01 
01050010024000002000000000000000002000000000000REP       United States Senator VICTORIA COUNTY                   Geraldine Sam                         PRECINCT 24                                            01 
01050010025000017000001000008000008000000000000REP       United States Senator VICTORIA COUNTY                   Geraldine Sam                         PRECINCT 25                                            01 
01050010026000005000000000002000003000000000000REP       United States Senator VICTORIA COUNTY                   Geraldine Sam                         PRECINCT 26                                            01 
01050010027000003000001000000000002000000000000REP       United States Senator VICTORIA COUNTY                   Geraldine Sam                         PRECINCT 27                                            01 
01050010028000006000000000003000003000000000000REP       United States Senator VICTORIA COUNTY                   Geraldine Sam                         PRECINCT 28                                            01 
01050010029000008000003000001000004000000000000REP       United States Senator VICTORIA COUNTY                   Geraldine Sam                         PRECINCT 29                                            01 
01050010030000001000001000000000000000000000000REP       United States Senator VICTORIA COUNTY                   Geraldine Sam                         PRECINCT 30                                            01 
01050010031000003000000000001000002000000000000REP       United States Senator VICTORIA COUNTY                   Geraldine Sam                         PRECINCT 31                                            01 
01050010032000005000000000001000004000000000000REP       United States Senator VICTORIA COUNTY                   Geraldine Sam                         PRECINCT 32                                            01 
01050010033000027000001000018000008000000000000REP       United States Senator VICTORIA COUNTY                   Geraldine Sam                         PRECINCT 33                                            01 
01050010034000000000000000000000000000000000000REP       United States Senator VICTORIA COUNTY                   Geraldine Sam                         PRECINCT 34                                            01 
01050010035000001000000000001000000000000000000REP       United States Senator VICTORIA COUNTY                   Geraldine Sam                         PRECINCT 35                                            01 
01050020001000000000000000000000000000000000000REP       United States Senator VICTORIA COUNTY                   Stefano de Stefano                    PRECINCT 1                                             01 
01050020002000014000000000008000006000000000000REP       United States Senator VICTORIA COUNTY                   Stefano de Stefano                    PRECINCT 2                                             01 
01050020003000008000000000006000002000000000000REP       United States Senator VICTORIA COUNTY                   Stefano de Stefano                    PRECINCT 3                                             01 
01050020004000004000002000000000002000000000000REP       United States Senator VICTORIA COUNTY                   Stefano de Stefano                    PRECINCT 4                                             01 
01050020005000006000000000003000003000000000000REP       United States Senator VICTORIA COUNTY                   Stefano de Stefano                    PRECINCT 5                                             01 
01050020006000000000000000000000000000000000000REP       United States Senator VICTORIA COUNTY                   Stefano de Stefano                    PRECINCT 6                                             01 
01050020007000003000001000001000001000000000000REP       United States Senator VICTORIA COUNTY                   Stefano de Stefano                    PRECINCT 7                                             01 
01050020008000004000000000000000004000000000000REP       United States Senator VICTORIA COUNTY                   Stefano de Stefano                    PRECINCT 8                                             01 
01050020009000002000000000000000002000000000000REP       United States Senator VICTORIA COUNTY                   Stefano de Stefano                    PRECINCT 9                                             01 
01050020010000005000000000003000002000000000000REP       United States Senator VICTORIA COUNTY                   Stefano de Stefano                    PRECINCT 10                                            01 
01050020011000000000000000000000000000000000000REP       United States Senator VICTORIA COUNTY                   Stefano de Stefano                    PRECINCT 11                                            01 
01050020012000000000000000000000000000000000000REP       United States Senator VICTORIA COUNTY                   Stefano de Stefano                    PRECINCT 12                                            01 
01050020013000000000000000000000000000000000000REP       United States Senator VICTORIA COUNTY                   Stefano de Stefano                    PRECINCT 13                                            01 
01050020014000007000000000001000006000000000000REP       United States Senator VICTORIA COUNTY                   Stefano de Stefano                    PRECINCT 14                                            01 
01050020015000000000000000000000000000000000000REP       United States Senator VICTORIA COUNTY                   Stefano de Stefano                    PRECINCT 15                                            01 
01050020016000000000000000000000000000000000000REP       United States Senator VICTORIA COUNTY                   Stefano de Stefano                    PRECINCT 16                                            01 
01050020017000002000000000001000001000000000000REP       United States Senator VICTORIA COUNTY                   Stefano de Stefano                    PRECINCT 17                                            01 
01050020018000009000004000003000002000000000000REP       United States Senator VICTORIA COUNTY                   Stefano de Stefano                    PRECINCT 18                                            01 
01050020019000004000000000001000003000000000000REP       United States Senator VICTORIA COUNTY                   Stefano de Stefano                    PRECINCT 19                                            01 
01050020020000002000000000001000001000000000000REP       United States Senator VICTORIA COUNTY                   Stefano de Stefano                    PRECINCT 20                                            01 
01050020021000014000001000004000009000000000000REP       United States Senator VICTORIA COUNTY                   Stefano de Stefano                    PRECINCT 21                                            01 
01050020022000003000000000000000003000000000000REP       United States Senator VICTORIA COUNTY                   Stefano de Stefano                    PRECINCT 22                                            01 
01050020023000003000000000002000001000000000000REP       United States Senator VICTORIA COUNTY                   Stefano de Stefano                    PRECINCT 23                                            01 
01050020024000003000000000001000002000000000000REP       United States Senator VICTORIA COUNTY                   Stefano de Stefano                    PRECINCT 24                                            01 
01050020025000012000001000005000006000000000000REP       United States Senator VICTORIA COUNTY                   Stefano de Stefano                    PRECINCT 25                                            01 
01050020026000006000000000001000005000000000000REP       United States Senator VICTORIA COUNTY                   Stefano de Stefano                    PRECINCT 26                                            01 
01050020027000000000000000000000000000000000000REP       United States Senator VICTORIA COUNTY                   Stefano de Stefano                    PRECINCT 27                                            01 
01050020028000000000000000000000000000000000000REP       United States Senator VICTORIA COUNTY                   Stefano de Stefano                    PRECINCT 28                                            01 
01050020029000021000001000011000009000000000000REP       United States Senator VICTORIA COUNTY                   Stefano de Stefano                    PRECINCT 29                                            01 
01050020030000001000000000000000001000000000000REP       United States Senator VICTORIA COUNTY                   Stefano de Stefano                    PRECINCT 30                                            01 
01050020031000001000000000000000001000000000000REP       United States Senator VICTORIA COUNTY                   Stefano de Stefano                    PRECINCT 31                                            01 
01050020032000001000000000001000000000000000000REP       United States Senator VICTORIA COUNTY                   Stefano de Stefano                    PRECINCT 32                                            01 
01050020033000014000000000009000005000000000000REP       United States Senator VICTORIA COUNTY                   Stefano de Stefano                    PRECINCT 33                                            01 
01050020034000000000000000000000000000000000000REP       United States Senator VICTORIA COUNTY                   Stefano de Stefano                    PRECINCT 34                                            01 
01050020035000001000000000001000000000000000000REP       United States Senator VICTORIA COUNTY                   Stefano de Stefano                    PRECINCT 35                                            01 
01050030001000000000000000000000000000000000000REP       United States Senator VICTORIA COUNTY                   Mary Miller                           PRECINCT 1                                             01 
01050030002000019000000000008000011000000000000REP       United States Senator VICTORIA COUNTY                   Mary Miller                           PRECINCT 2                                             01 
01050030003000021000002000006000013000000000000REP       United States Senator VICTORIA COUNTY                   Mary Miller                           PRECINCT 3                                             01 
01050030004000003000000000001000002000000000000REP       United States Senator VICTORIA COUNTY                   Mary Miller                           PRECINCT 4                                             01 
01050030005000013000001000004000008000000000000REP       United States Senator VICTORIA COUNTY                   Mary Miller                           PRECINCT 5                                             01 
01050030006000001000000000000000001000000000000REP       United States Senator VICTORIA COUNTY                   Mary Miller                           PRECINCT 6                                             01 
01050030007000005000000000001000004000000000000REP       United States Senator VICTORIA COUNTY                   Mary Miller                           PRECINCT 7                                             01 
01050030008000010000000000005000005000000000000REP       United States Senator VICTORIA COUNTY                   Mary Miller                           PRECINCT 8                                             01 
01050030009000004000001000001000002000000000000REP       United States Senator VICTORIA COUNTY                   Mary Miller                           PRECINCT 9                                             01 
01050030010000012000001000006000005000000000000REP       United States Senator VICTORIA COUNTY                   Mary Miller                           PRECINCT 10                                            01 
01050030011000002000000000002000000000000000000REP       United States Senator VICTORIA COUNTY                   Mary Miller                           PRECINCT 11                                            01 
01050030012000003000000000002000001000000000000REP       United States Senator VICTORIA COUNTY                   Mary Miller                           PRECINCT 12                                            01 
01050030013000004000001000001000002000000000000REP       United States Senator VICTORIA COUNTY                   Mary Miller                           PRECINCT 13                                            01 
01050030014000014000000000005000009000000000000REP       United States Senator VICTORIA COUNTY                   Mary Miller                           PRECINCT 14                                            01 
01050030015000002000000000000000002000000000000REP       United States Senator VICTORIA COUNTY                   Mary Miller                           PRECINCT 15                                            01 
01050030016000004000000000000000004000000000000REP       United States Senator VICTORIA COUNTY                   Mary Miller                           PRECINCT 16                                            01 
01050030017000007000000000002000005000000000000REP       United States Senator VICTORIA COUNTY                   Mary Miller                           PRECINCT 17                                            01 
01050030018000027000001000011000015000000000000REP       United States Senator VICTORIA COUNTY                   Mary Miller                           PRECINCT 18                                            01 
01050030019000022000001000010000011000000000000REP       United States Senator VICTORIA COUNTY                   Mary Miller                           PRECINCT 19                                            01 
01050030020000009000001000006000002000000000000REP       United States Senator VICTORIA COUNTY                   Mary Miller                           PRECINCT 20                                            01 
01050030021000027000004000011000012000000000000REP       United States Senator VICTORIA COUNTY                   Mary Miller                           PRECINCT 21                                            01 
01050030022000013000001000004000008000000000000REP       United States Senator VICTORIA COUNTY                   Mary Miller                           PRECINCT 22                                            01 
01050030023000008000000000003000005000000000000REP       United States Senator VICTORIA COUNTY                   Mary Miller                           PRECINCT 23                                            01 
01050030024000010000000000003000007000000000000REP       United States Senator VICTORIA COUNTY                   Mary Miller                           PRECINCT 24                                            01 
01050030025000024000002000009000013000000000000REP       United States Senator VICTORIA COUNTY                   Mary Miller                           PRECINCT 25                                            01 
01050030026000006000000000002000004000000000000REP       United States Senator VICTORIA COUNTY                   Mary Miller                           PRECINCT 26                                            01 
01050030027000008000001000001000006000000000000REP       United States Senator VICTORIA COUNTY                   Mary Miller                           PRECINCT 27                                            01 
01050030028000007000000000003000004000000000000REP       United States Senator VICTORIA COUNTY                   Mary Miller                           PRECINCT 28                                            01 
01050030029000035000003000017000015000000000000REP       United States Senator VICTORIA COUNTY                   Mary Miller                           PRECINCT 29                                            01 
01050030030000004000000000001000003000000000000REP       United States Senator VICTORIA COUNTY                   Mary Miller                           PRECINCT 30                                            01 
01050030031000010000004000003000003000000000000REP       United States Senator VICTORIA COUNTY                   Mary Miller                           PRECINCT 31                                            01 
01050030032000008000000000004000004000000000000REP       United States Senator VICTORIA COUNTY                   Mary Miller                           PRECINCT 32                                            01 
01050030033000058000007000024000027000000000000REP       United States Senator VICTORIA COUNTY                   Mary Miller                           PRECINCT 33                                            01 
01050030034000003000001000001000001000000000000REP       United States Senator VICTORIA COUNTY                   Mary Miller                           PRECINCT 34                                            01 
01050030035000001000000000000000001000000000000REP       United States Senator VICTORIA COUNTY                   Mary Miller                           PRECINCT 35                                            01 
01050040001000000000000000000000000000000000000REP       United States Senator VICTORIA COUNTY                   Bruce Jacobson, Jr.                   PRECINCT 1                                             01 
01050040002000010000001000004000005000000000000REP       United States Senator VICTORIA COUNTY                   Bruce Jacobson, Jr.                   PRECINCT 2                                             01 
01050040003000006000002000002000002000000000000REP       United States Senator VICTORIA COUNTY                   Bruce Jacobson, Jr.                   PRECINCT 3                                             01 
01050040004000003000000000003000000000000000000REP       United States Senator VICTORIA COUNTY                   Bruce Jacobson, Jr.                   PRECINCT 4                                             01 
01050040005000009000002000002000005000000000000REP       United States Senator VICTORIA COUNTY                   Bruce Jacobson, Jr.                   PRECINCT 5                                             01 
01050040006000000000000000000000000000000000000REP       United States Senator VICTORIA COUNTY                   Bruce Jacobson, Jr.                   PRECINCT 6                                             01 
01050040007000003000000000002000001000000000000REP       United States Senator VICTORIA COUNTY                   Bruce Jacobson, Jr.                   PRECINCT 7                                             01 
01050040008000003000000000000000003000000000000REP       United States Senator VICTORIA COUNTY                   Bruce Jacobson, Jr.                   PRECINCT 8                                             01 
01050040009000004000001000002000001000000000000REP       United States Senator VICTORIA COUNTY                   Bruce Jacobson, Jr.                   PRECINCT 9                                             01 
01050040010000016000004000003000009000000000000REP       United States Senator VICTORIA COUNTY                   Bruce Jacobson, Jr.                   PRECINCT 10                                            01 
01050040011000001000000000000000001000000000000REP       United States Senator VICTORIA COUNTY                   Bruce Jacobson, Jr.                   PRECINCT 11                                            01 
01050040012000003000001000000000002000000000000REP       United States Senator VICTORIA COUNTY                   Bruce Jacobson, Jr.                   PRECINCT 12                                            01 
01050040013000003000000000002000001000000000000REP       United States Senator VICTORIA COUNTY                   Bruce Jacobson, Jr.                   PRECINCT 13                                            01 
01050040014000011000000000003000008000000000000REP       United States Senator VICTORIA COUNTY                   Bruce Jacobson, Jr.                   PRECINCT 14                                            01 
01050040015000002000000000000000002000000000000REP       United States Senator VICTORIA COUNTY                   Bruce Jacobson, Jr.                   PRECINCT 15                                            01 
01050040016000002000001000000000001000000000000REP       United States Senator VICTORIA COUNTY                   Bruce Jacobson, Jr.                   PRECINCT 16                                            01 
01050040017000003000001000000000002000000000000REP       United States Senator VICTORIA COUNTY                   Bruce Jacobson, Jr.                   PRECINCT 17                                            01 
01050040018000025000003000009000013000000000000REP       United States Senator VICTORIA COUNTY                   Bruce Jacobson, Jr.                   PRECINCT 18                                            01 
01050040019000019000003000004000012000000000000REP       United States Senator VICTORIA COUNTY                   Bruce Jacobson, Jr.                   PRECINCT 19                                            01 
01050040020000007000002000003000002000000000000REP       United States Senator VICTORIA COUNTY                   Bruce Jacobson, Jr.                   PRECINCT 20                                            01 
01050040021000035000006000010000019000000000000REP       United States Senator VICTORIA COUNTY                   Bruce Jacobson, Jr.                   PRECINCT 21                                            01 
01050040022000024000008000009000007000000000000REP       United States Senator VICTORIA COUNTY                   Bruce Jacobson, Jr.                   PRECINCT 22                                            01 
01050040023000010000002000003000005000000000000REP       United States Senator VICTORIA COUNTY                   Bruce Jacobson, Jr.                   PRECINCT 23                                            01 
01050040024000013000003000005000005000000000000REP       United States Senator VICTORIA COUNTY                   Bruce Jacobson, Jr.                   PRECINCT 24                                            01 
01050040025000025000006000005000014000000000000REP       United States Senator VICTORIA COUNTY                   Bruce Jacobson, Jr.                   PRECINCT 25                                            01 
01050040026000011000000000003000008000000000000REP       United States Senator VICTORIA COUNTY                   Bruce Jacobson, Jr.                   PRECINCT 26                                            01 
01050040027000013000002000002000009000000000000REP       United States Senator VICTORIA COUNTY                   Bruce Jacobson, Jr.                   PRECINCT 27                                            01 
01050040028000004000000000002000002000000000000REP       United States Senator VICTORIA COUNTY                   Bruce Jacobson, Jr.                   PRECINCT 28                                            01 
01050040029000034000005000016000013000000000000REP       United States Senator VICTORIA COUNTY                   Bruce Jacobson, Jr.                   PRECINCT 29                                            01 
01050040030000004000000000001000003000000000000REP       United States Senator VICTORIA COUNTY                   Bruce Jacobson, Jr.                   PRECINCT 30                                            01 
01050040031000000000000000000000000000000000000REP       United States Senator VICTORIA COUNTY                   Bruce Jacobson, Jr.                   PRECINCT 31                                            01 
01050040032000003000001000001000001000000000000REP       United States Senator VICTORIA COUNTY                   Bruce Jacobson, Jr.                   PRECINCT 32                                            01 
01050040033000037000007000017000013000000000000REP       United States Senator VICTORIA COUNTY                   Bruce Jacobson, Jr.                   PRECINCT 33                                            01 
01050040034000001000000000000000001000000000000REP       United States Senator VICTORIA COUNTY                   Bruce Jacobson, Jr.                   PRECINCT 34                                            01 
01050040035000001000000000000000001000000000000REP       United States Senator VICTORIA COUNTY                   Bruce Jacobson, Jr.                   PRECINCT 35                                            01 
01050050001000028000005000003000020000000000000REP       United States Senator VICTORIA COUNTY                   Ted Cruz                              PRECINCT 1                                             01 
01050050002000126000013000048000065000000000000REP       United States Senator VICTORIA COUNTY                   Ted Cruz                              PRECINCT 2                                             01 
01050050003000196000024000077000095000000000000REP       United States Senator VICTORIA COUNTY                   Ted Cruz                              PRECINCT 3                                             01 
01050050004000066000015000009000042000000000000REP       United States Senator VICTORIA COUNTY                   Ted Cruz                              PRECINCT 4                                             01 
01050050005000171000032000057000082000000000000REP       United States Senator VICTORIA COUNTY                   Ted Cruz                              PRECINCT 5                                             01 
01050050006000007000001000001000005000000000000REP       United States Senator VICTORIA COUNTY                   Ted Cruz                              PRECINCT 6                                             01 
01050050007000078000016000023000039000000000000REP       United States Senator VICTORIA COUNTY                   Ted Cruz                              PRECINCT 7                                             01 
01050050008000147000023000056000068000000000000REP       United States Senator VICTORIA COUNTY                   Ted Cruz                              PRECINCT 8                                             01 
01050050009000098000017000025000056000000000000REP       United States Senator VICTORIA COUNTY                   Ted Cruz                              PRECINCT 9                                             01 
01050050010000252000037000114000101000000000000REP       United States Senator VICTORIA COUNTY                   Ted Cruz                              PRECINCT 10                                            01 
01050050011000093000006000034000053000000000000REP       United States Senator VICTORIA COUNTY                   Ted Cruz                              PRECINCT 11                                            01 
01050050012000058000000000009000049000000000000REP       United States Senator VICTORIA COUNTY                   Ted Cruz                              PRECINCT 12                                            01 
01050050013000071000008000006000057000000000000REP       United States Senator VICTORIA COUNTY                   Ted Cruz                              PRECINCT 13                                            01 
01050050014000190000024000041000125000000000000REP       United States Senator VICTORIA COUNTY                   Ted Cruz                              PRECINCT 14                                            01 
01050050015000019000005000006000008000000000000REP       United States Senator VICTORIA COUNTY                   Ted Cruz                              PRECINCT 15                                            01 
01050050016000067000007000025000035000000000000REP       United States Senator VICTORIA COUNTY                   Ted Cruz                              PRECINCT 16                                            01 
01050050017000067000004000016000047000000000000REP       United States Senator VICTORIA COUNTY                   Ted Cruz                              PRECINCT 17                                            01 
01050050018000549000076000187000286000000000000REP       United States Senator VICTORIA COUNTY                   Ted Cruz                              PRECINCT 18                                            01 
01050050019000329000044000122000163000000000000REP       United States Senator VICTORIA COUNTY                   Ted Cruz                              PRECINCT 19                                            01 
01050050020000269000028000114000127000000000000REP       United States Senator VICTORIA COUNTY                   Ted Cruz                              PRECINCT 20                                            01 
01050050021000720000113000217000390000000000000REP       United States Senator VICTORIA COUNTY                   Ted Cruz                              PRECINCT 21                                            01 
01050050022000360000039000088000233000000000000REP       United States Senator VICTORIA COUNTY                   Ted Cruz                              PRECINCT 22                                            01 
01050050023000288000028000093000167000000000000REP       United States Senator VICTORIA COUNTY                   Ted Cruz                              PRECINCT 23                                            01 
01050050024000313000034000116000163000000000000REP       United States Senator VICTORIA COUNTY                   Ted Cruz                              PRECINCT 24                                            01 
01050050025000541000103000201000237000000000000REP       United States Senator VICTORIA COUNTY                   Ted Cruz                              PRECINCT 25                                            01 
01050050026000194000027000047000120000000000000REP       United States Senator VICTORIA COUNTY                   Ted Cruz                              PRECINCT 26                                            01 
01050050027000390000025000069000296000000000000REP       United States Senator VICTORIA COUNTY                   Ted Cruz                              PRECINCT 27                                            01 
01050050028000126000021000022000083000000000000REP       United States Senator VICTORIA COUNTY                   Ted Cruz                              PRECINCT 28                                            01 
01050050029000586000078000191000317000000000000REP       United States Senator VICTORIA COUNTY                   Ted Cruz                              PRECINCT 29                                            01 
01050050030000076000018000015000043000000000000REP       United States Senator VICTORIA COUNTY                   Ted Cruz                              PRECINCT 30                                            01 
01050050031000082000007000028000047000000000000REP       United States Senator VICTORIA COUNTY                   Ted Cruz                              PRECINCT 31                                            01 
01050050032000050000016000015000019000000000000REP       United States Senator VICTORIA COUNTY                   Ted Cruz                              PRECINCT 32                                            01 
01050050033000996000155000416000425000000000000REP       United States Senator VICTORIA COUNTY                   Ted Cruz                              PRECINCT 33                                            01 
01050050034000022000001000008000013000000000000REP       United States Senator VICTORIA COUNTY                   Ted Cruz                              PRECINCT 34                                            01 
01050050035000015000001000005000009000000000000REP       United States Senator VICTORIA COUNTY                   Ted Cruz                              PRECINCT 35                                            01 
01050060001000000000000000000000000000000000000REP       United States Senator VICTORIA COUNTY                   OVER VOTES                            PRECINCT 1                                             01 
01050060002000000000000000000000000000000000000REP       United States Senator VICTORIA COUNTY                   OVER VOTES                            PRECINCT 2                                             01 
01050060003000000000000000000000000000000000000REP       United States Senator VICTORIA COUNTY                   OVER VOTES                            PRECINCT 3                                             01 
01050060004000000000000000000000000000000000000REP       United States Senator VICTORIA COUNTY                   OVER VOTES                            PRECINCT 4                                             01 
01050060005000000000000000000000000000000000000REP       United States Senator VICTORIA COUNTY                   OVER VOTES                            PRECINCT 5                                             01 
01050060006000000000000000000000000000000000000REP       United States Senator VICTORIA COUNTY                   OVER VOTES                            PRECINCT 6                                             01 
01050060007000000000000000000000000000000000000REP       United States Senator VICTORIA COUNTY                   OVER VOTES                            PRECINCT 7                                             01 
01050060008000000000000000000000000000000000000REP       United States Senator VICTORIA COUNTY                   OVER VOTES                            PRECINCT 8                                             01 
01050060009000000000000000000000000000000000000REP       United States Senator VICTORIA COUNTY                   OVER VOTES                            PRECINCT 9                                             01 
01050060010000000000000000000000000000000000000REP       United States Senator VICTORIA COUNTY                   OVER VOTES                            PRECINCT 10                                            01 
01050060011000000000000000000000000000000000000REP       United States Senator VICTORIA COUNTY                   OVER VOTES                            PRECINCT 11                                            01 
01050060012000000000000000000000000000000000000REP       United States Senator VICTORIA COUNTY                   OVER VOTES                            PRECINCT 12                                            01 
01050060013000000000000000000000000000000000000REP       United States Senator VICTORIA COUNTY                   OVER VOTES                            PRECINCT 13                                            01 
01050060014000000000000000000000000000000000000REP       United States Senator VICTORIA COUNTY                   OVER VOTES                            PRECINCT 14                                            01 
01050060015000000000000000000000000000000000000REP       United States Senator VICTORIA COUNTY                   OVER VOTES                            PRECINCT 15                                            01 
01050060016000000000000000000000000000000000000REP       United States Senator VICTORIA COUNTY                   OVER VOTES                            PRECINCT 16                                            01 
01050060017000000000000000000000000000000000000REP       United States Senator VICTORIA COUNTY                   OVER VOTES                            PRECINCT 17                                            01 
01050060018000000000000000000000000000000000000REP       United States Senator VICTORIA COUNTY                   OVER VOTES                            PRECINCT 18                                            01 
01050060019000000000000000000000000000000000000REP       United States Senator VICTORIA COUNTY                   OVER VOTES                            PRECINCT 19                                            01 
01050060020000000000000000000000000000000000000REP       United States Senator VICTORIA COUNTY                   OVER VOTES                            PRECINCT 20                                            01 
01050060021000000000000000000000000000000000000REP       United States Senator VICTORIA COUNTY                   OVER VOTES                            PRECINCT 21                                            01 
01050060022000000000000000000000000000000000000REP       United States Senator VICTORIA COUNTY                   OVER VOTES                            PRECINCT 22                                            01 
01050060023000000000000000000000000000000000000REP       United States Senator VICTORIA COUNTY                   OVER VOTES                            PRECINCT 23                                            01 
01050060024000000000000000000000000000000000000REP       United States Senator VICTORIA COUNTY                   OVER VOTES                            PRECINCT 24                                            01 
01050060025000000000000000000000000000000000000REP       United States Senator VICTORIA COUNTY                   OVER VOTES                            PRECINCT 25                                            01 
01050060026000000000000000000000000000000000000REP       United States Senator VICTORIA COUNTY                   OVER VOTES                            PRECINCT 26                                            01 
01050060027000000000000000000000000000000000000REP       United States Senator VICTORIA COUNTY                   OVER VOTES                            PRECINCT 27                                            01 
01050060028000000000000000000000000000000000000REP       United States Senator VICTORIA COUNTY                   OVER VOTES                            PRECINCT 28                                            01 
01050060029000000000000000000000000000000000000REP       United States Senator VICTORIA COUNTY                   OVER VOTES                            PRECINCT 29                                            01 
01050060030000000000000000000000000000000000000REP       United States Senator VICTORIA COUNTY                   OVER VOTES                            PRECINCT 30                                            01 
01050060031000000000000000000000000000000000000REP       United States Senator VICTORIA COUNTY                   OVER VOTES                            PRECINCT 31                                            01 
01050060032000000000000000000000000000000000000REP       United States Senator VICTORIA COUNTY                   OVER VOTES                            PRECINCT 32                                            01 
01050060033000000000000000000000000000000000000REP       United States Senator VICTORIA COUNTY                   OVER VOTES                            PRECINCT 33                                            01 
01050060034000000000000000000000000000000000000REP       United States Senator VICTORIA COUNTY                   OVER VOTES                            PRECINCT 34                                            01 
01050060035000000000000000000000000000000000000REP       United States Senator VICTORIA COUNTY                   OVER VOTES                            PRECINCT 35                                            01 
01050070001000003000000000000000003000000000000REP       United States Senator VICTORIA COUNTY                   UNDER VOTES                           PRECINCT 1                                             01 
01050070002000014000001000004000009000000000000REP       United States Senator VICTORIA COUNTY                   UNDER VOTES                           PRECINCT 2                                             01 
01050070003000026000002000017000007000000000000REP       United States Senator VICTORIA COUNTY                   UNDER VOTES                           PRECINCT 3                                             01 
01050070004000007000000000001000006000000000000REP       United States Senator VICTORIA COUNTY                   UNDER VOTES                           PRECINCT 4                                             01 
01050070005000018000000000007000011000000000000REP       United States Senator VICTORIA COUNTY                   UNDER VOTES                           PRECINCT 5                                             01 
01050070006000001000000000000000001000000000000REP       United States Senator VICTORIA COUNTY                   UNDER VOTES                           PRECINCT 6                                             01 
01050070007000008000000000004000004000000000000REP       United States Senator VICTORIA COUNTY                   UNDER VOTES                           PRECINCT 7                                             01 
01050070008000010000000000006000004000000000000REP       United States Senator VICTORIA COUNTY                   UNDER VOTES                           PRECINCT 8                                             01 
01050070009000004000000000001000003000000000000REP       United States Senator VICTORIA COUNTY                   UNDER VOTES                           PRECINCT 9                                             01 
01050070010000013000001000005000007000000000000REP       United States Senator VICTORIA COUNTY                   UNDER VOTES                           PRECINCT 10                                            01 
01050070011000006000000000002000004000000000000REP       United States Senator VICTORIA COUNTY                   UNDER VOTES                           PRECINCT 11                                            01 
01050070012000006000000000001000005000000000000REP       United States Senator VICTORIA COUNTY                   UNDER VOTES                           PRECINCT 12                                            01 
01050070013000006000000000001000005000000000000REP       United States Senator VICTORIA COUNTY                   UNDER VOTES                           PRECINCT 13                                            01 
01050070014000007000000000000000007000000000000REP       United States Senator VICTORIA COUNTY                   UNDER VOTES                           PRECINCT 14                                            01 
01050070015000001000000000000000001000000000000REP       United States Senator VICTORIA COUNTY                   UNDER VOTES                           PRECINCT 15                                            01 
01050070016000007000001000001000005000000000000REP       United States Senator VICTORIA COUNTY                   UNDER VOTES                           PRECINCT 16                                            01 
01050070017000005000000000001000004000000000000REP       United States Senator VICTORIA COUNTY                   UNDER VOTES                           PRECINCT 17                                            01 
01050070018000028000004000014000010000000000000REP       United States Senator VICTORIA COUNTY                   UNDER VOTES                           PRECINCT 18                                            01 
01050070019000019000001000012000006000000000000REP       United States Senator VICTORIA COUNTY                   UNDER VOTES                           PRECINCT 19                                            01 
01050070020000010000000000004000006000000000000REP       United States Senator VICTORIA COUNTY                   UNDER VOTES                           PRECINCT 20                                            01 
01050070021000046000002000020000024000000000000REP       United States Senator VICTORIA COUNTY                   UNDER VOTES                           PRECINCT 21                                            01 
01050070022000014000001000007000006000000000000REP       United States Senator VICTORIA COUNTY                   UNDER VOTES                           PRECINCT 22                                            01 
01050070023000015000000000005000010000000000000REP       United States Senator VICTORIA COUNTY                   UNDER VOTES                           PRECINCT 23                                            01 
01050070024000013000002000002000009000000000000REP       United States Senator VICTORIA COUNTY                   UNDER VOTES                           PRECINCT 24                                            01 
01050070025000028000004000013000011000000000000REP       United States Senator VICTORIA COUNTY                   UNDER VOTES                           PRECINCT 25                                            01 
01050070026000005000000000002000003000000000000REP       United States Senator VICTORIA COUNTY                   UNDER VOTES                           PRECINCT 26                                            01 
01050070027000018000000000004000014000000000000REP       United States Senator VICTORIA COUNTY                   UNDER VOTES                           PRECINCT 27                                            01 
01050070028000008000000000004000004000000000000REP       United States Senator VICTORIA COUNTY                   UNDER VOTES                           PRECINCT 28                                            01 
01050070029000026000001000011000014000000000000REP       United States Senator VICTORIA COUNTY                   UNDER VOTES                           PRECINCT 29                                            01 
01050070030000006000000000001000005000000000000REP       United States Senator VICTORIA COUNTY                   UNDER VOTES                           PRECINCT 30                                            01 
01050070031000003000000000003000000000000000000REP       United States Senator VICTORIA COUNTY                   UNDER VOTES                           PRECINCT 31                                            01 
01050070032000004000000000001000003000000000000REP       United States Senator VICTORIA COUNTY                   UNDER VOTES                           PRECINCT 32                                            01 
01050070033000048000004000022000022000000000000REP       United States Senator VICTORIA COUNTY                   UNDER VOTES                           PRECINCT 33                                            01 
01050070034000001000000000001000000000000000000REP       United States Senator VICTORIA COUNTY                   UNDER VOTES                           PRECINCT 34                                            01 
01050070035000000000000000000000000000000000000REP       United States Senator VICTORIA COUNTY                   UNDER VOTES                           PRECINCT 35                                            01 
01060010001000002000000000000000002000000000000REP       United States Representative District 27 VICTORIA COUNTYEddie Gassman                         PRECINCT 1                                             01 
01060010002000003000000000002000001000000000000REP       United States Representative District 27 VICTORIA COUNTYEddie Gassman                         PRECINCT 2                                             01 
01060010003000001000000000000000001000000000000REP       United States Representative District 27 VICTORIA COUNTYEddie Gassman                         PRECINCT 3                                             01 
01060010004000004000000000001000003000000000000REP       United States Representative District 27 VICTORIA COUNTYEddie Gassman                         PRECINCT 4                                             01 
01060010005000008000000000001000007000000000000REP       United States Representative District 27 VICTORIA COUNTYEddie Gassman                         PRECINCT 5                                             01 
01060010006000000000000000000000000000000000000REP       United States Representative District 27 VICTORIA COUNTYEddie Gassman                         PRECINCT 6                                             01 
01060010007000002000000000001000001000000000000REP       United States Representative District 27 VICTORIA COUNTYEddie Gassman                         PRECINCT 7                                             01 
01060010008000005000000000002000003000000000000REP       United States Representative District 27 VICTORIA COUNTYEddie Gassman                         PRECINCT 8                                             01 
01060010009000001000000000000000001000000000000REP       United States Representative District 27 VICTORIA COUNTYEddie Gassman                         PRECINCT 9                                             01 
01060010010000002000000000000000002000000000000REP       United States Representative District 27 VICTORIA COUNTYEddie Gassman                         PRECINCT 10                                            01 
01060010011000000000000000000000000000000000000REP       United States Representative District 27 VICTORIA COUNTYEddie Gassman                         PRECINCT 11                                            01 
01060010012000001000000000000000001000000000000REP       United States Representative District 27 VICTORIA COUNTYEddie Gassman                         PRECINCT 12                                            01 
01060010013000001000000000000000001000000000000REP       United States Representative District 27 VICTORIA COUNTYEddie Gassman                         PRECINCT 13                                            01 
01060010014000004000000000000000004000000000000REP       United States Representative District 27 VICTORIA COUNTYEddie Gassman                         PRECINCT 14                                            01 
01060010015000001000000000000000001000000000000REP       United States Representative District 27 VICTORIA COUNTYEddie Gassman                         PRECINCT 15                                            01 
01060010016000002000000000002000000000000000000REP       United States Representative District 27 VICTORIA COUNTYEddie Gassman                         PRECINCT 16                                            01 
01060010017000003000000000000000003000000000000REP       United States Representative District 27 VICTORIA COUNTYEddie Gassman                         PRECINCT 17                                            01 
01060010018000019000003000008000008000000000000REP       United States Representative District 27 VICTORIA COUNTYEddie Gassman                         PRECINCT 18                                            01 
01060010019000009000001000006000002000000000000REP       United States Representative District 27 VICTORIA COUNTYEddie Gassman                         PRECINCT 19                                            01 
01060010020000001000000000000000001000000000000REP       United States Representative District 27 VICTORIA COUNTYEddie Gassman                         PRECINCT 20                                            01 
01060010021000009000004000004000001000000000000REP       United States Representative District 27 VICTORIA COUNTYEddie Gassman                         PRECINCT 21                                            01 
01060010022000012000002000002000008000000000000REP       United States Representative District 27 VICTORIA COUNTYEddie Gassman                         PRECINCT 22                                            01 
01060010023000006000000000003000003000000000000REP       United States Representative District 27 VICTORIA COUNTYEddie Gassman                         PRECINCT 23                                            01 
01060010024000003000000000001000002000000000000REP       United States Representative District 27 VICTORIA COUNTYEddie Gassman                         PRECINCT 24                                            01 
01060010025000011000000000005000006000000000000REP       United States Representative District 27 VICTORIA COUNTYEddie Gassman                         PRECINCT 25                                            01 
01060010026000007000002000000000005000000000000REP       United States Representative District 27 VICTORIA COUNTYEddie Gassman                         PRECINCT 26                                            01 
01060010027000014000001000001000012000000000000REP       United States Representative District 27 VICTORIA COUNTYEddie Gassman                         PRECINCT 27                                            01 
01060010028000003000002000000000001000000000000REP       United States Representative District 27 VICTORIA COUNTYEddie Gassman                         PRECINCT 28                                            01 
01060010029000005000001000003000001000000000000REP       United States Representative District 27 VICTORIA COUNTYEddie Gassman                         PRECINCT 29                                            01 
01060010030000003000000000001000002000000000000REP       United States Representative District 27 VICTORIA COUNTYEddie Gassman                         PRECINCT 30                                            01 
01060010031000002000000000001000001000000000000REP       United States Representative District 27 VICTORIA COUNTYEddie Gassman                         PRECINCT 31                                            01 
01060010032000000000000000000000000000000000000REP       United States Representative District 27 VICTORIA COUNTYEddie Gassman                         PRECINCT 32                                            01 
01060010033000006000000000001000005000000000000REP       United States Representative District 27 VICTORIA COUNTYEddie Gassman                         PRECINCT 33                                            01 
01060010034000003000000000001000002000000000000REP       United States Representative District 27 VICTORIA COUNTYEddie Gassman                         PRECINCT 34                                            01 
01060010035000000000000000000000000000000000000REP       United States Representative District 27 VICTORIA COUNTYEddie Gassman                         PRECINCT 35                                            01 
01060020001000005000000000001000004000000000000REP       United States Representative District 27 VICTORIA COUNTYBech Bruun                            PRECINCT 1                                             01 
01060020002000046000003000021000022000000000000REP       United States Representative District 27 VICTORIA COUNTYBech Bruun                            PRECINCT 2                                             01 
01060020003000083000009000027000047000000000000REP       United States Representative District 27 VICTORIA COUNTYBech Bruun                            PRECINCT 3                                             01 
01060020004000014000002000003000009000000000000REP       United States Representative District 27 VICTORIA COUNTYBech Bruun                            PRECINCT 4                                             01 
01060020005000037000007000014000016000000000000REP       United States Representative District 27 VICTORIA COUNTYBech Bruun                            PRECINCT 5                                             01 
01060020006000002000001000001000000000000000000REP       United States Representative District 27 VICTORIA COUNTYBech Bruun                            PRECINCT 6                                             01 
01060020007000007000001000000000006000000000000REP       United States Representative District 27 VICTORIA COUNTYBech Bruun                            PRECINCT 7                                             01 
01060020008000033000005000016000012000000000000REP       United States Representative District 27 VICTORIA COUNTYBech Bruun                            PRECINCT 8                                             01 
01060020009000008000001000002000005000000000000REP       United States Representative District 27 VICTORIA COUNTYBech Bruun                            PRECINCT 9                                             01 
01060020010000044000006000020000018000000000000REP       United States Representative District 27 VICTORIA COUNTYBech Bruun                            PRECINCT 10                                            01 
01060020011000016000003000004000009000000000000REP       United States Representative District 27 VICTORIA COUNTYBech Bruun                            PRECINCT 11                                            01 
01060020012000010000000000004000006000000000000REP       United States Representative District 27 VICTORIA COUNTYBech Bruun                            PRECINCT 12                                            01 
01060020013000018000004000001000013000000000000REP       United States Representative District 27 VICTORIA COUNTYBech Bruun                            PRECINCT 13                                            01 
01060020014000058000007000017000034000000000000REP       United States Representative District 27 VICTORIA COUNTYBech Bruun                            PRECINCT 14                                            01 
01060020015000006000001000002000003000000000000REP       United States Representative District 27 VICTORIA COUNTYBech Bruun                            PRECINCT 15                                            01 
01060020016000018000003000006000009000000000000REP       United States Representative District 27 VICTORIA COUNTYBech Bruun                            PRECINCT 16                                            01 
01060020017000008000000000001000007000000000000REP       United States Representative District 27 VICTORIA COUNTYBech Bruun                            PRECINCT 17                                            01 
01060020018000130000015000055000060000000000000REP       United States Representative District 27 VICTORIA COUNTYBech Bruun                            PRECINCT 18                                            01 
01060020019000058000010000020000028000000000000REP       United States Representative District 27 VICTORIA COUNTYBech Bruun                            PRECINCT 19                                            01 
01060020020000052000004000023000025000000000000REP       United States Representative District 27 VICTORIA COUNTYBech Bruun                            PRECINCT 20                                            01 
01060020021000171000023000056000092000000000000REP       United States Representative District 27 VICTORIA COUNTYBech Bruun                            PRECINCT 21                                            01 
01060020022000080000015000022000043000000000000REP       United States Representative District 27 VICTORIA COUNTYBech Bruun                            PRECINCT 22                                            01 
01060020023000070000005000022000043000000000000REP       United States Representative District 27 VICTORIA COUNTYBech Bruun                            PRECINCT 23                                            01 
01060020024000069000006000036000027000000000000REP       United States Representative District 27 VICTORIA COUNTYBech Bruun                            PRECINCT 24                                            01 
01060020025000105000022000041000042000000000000REP       United States Representative District 27 VICTORIA COUNTYBech Bruun                            PRECINCT 25                                            01 
01060020026000030000003000010000017000000000000REP       United States Representative District 27 VICTORIA COUNTYBech Bruun                            PRECINCT 26                                            01 
01060020027000085000011000019000055000000000000REP       United States Representative District 27 VICTORIA COUNTYBech Bruun                            PRECINCT 27                                            01 
01060020028000029000002000007000020000000000000REP       United States Representative District 27 VICTORIA COUNTYBech Bruun                            PRECINCT 28                                            01 
01060020029000090000009000037000044000000000000REP       United States Representative District 27 VICTORIA COUNTYBech Bruun                            PRECINCT 29                                            01 
01060020030000021000001000003000017000000000000REP       United States Representative District 27 VICTORIA COUNTYBech Bruun                            PRECINCT 30                                            01 
01060020031000016000002000006000008000000000000REP       United States Representative District 27 VICTORIA COUNTYBech Bruun                            PRECINCT 31                                            01 
01060020032000008000002000005000001000000000000REP       United States Representative District 27 VICTORIA COUNTYBech Bruun                            PRECINCT 32                                            01 
01060020033000246000027000113000106000000000000REP       United States Representative District 27 VICTORIA COUNTYBech Bruun                            PRECINCT 33                                            01 
01060020034000004000000000001000003000000000000REP       United States Representative District 27 VICTORIA COUNTYBech Bruun                            PRECINCT 34                                            01 
01060020035000005000000000003000002000000000000REP       United States Representative District 27 VICTORIA COUNTYBech Bruun                            PRECINCT 35                                            01 
01060030001000016000004000001000011000000000000REP       United States Representative District 27 VICTORIA COUNTYMichael Cloud                         PRECINCT 1                                             01 
01060030002000097000009000031000057000000000000REP       United States Representative District 27 VICTORIA COUNTYMichael Cloud                         PRECINCT 2                                             01 
01060030003000121000011000057000053000000000000REP       United States Representative District 27 VICTORIA COUNTYMichael Cloud                         PRECINCT 3                                             01 
01060030004000044000008000009000027000000000000REP       United States Representative District 27 VICTORIA COUNTYMichael Cloud                         PRECINCT 4                                             01 
01060030005000120000019000047000054000000000000REP       United States Representative District 27 VICTORIA COUNTYMichael Cloud                         PRECINCT 5                                             01 
01060030006000006000000000001000005000000000000REP       United States Representative District 27 VICTORIA COUNTYMichael Cloud                         PRECINCT 6                                             01 
01060030007000059000009000020000030000000000000REP       United States Representative District 27 VICTORIA COUNTYMichael Cloud                         PRECINCT 7                                             01 
01060030008000095000011000034000050000000000000REP       United States Representative District 27 VICTORIA COUNTYMichael Cloud                         PRECINCT 8                                             01 
01060030009000071000012000020000039000000000000REP       United States Representative District 27 VICTORIA COUNTYMichael Cloud                         PRECINCT 9                                             01 
01060030010000217000034000098000085000000000000REP       United States Representative District 27 VICTORIA COUNTYMichael Cloud                         PRECINCT 10                                            01 
01060030011000066000003000030000033000000000000REP       United States Representative District 27 VICTORIA COUNTYMichael Cloud                         PRECINCT 11                                            01 
01060030012000034000001000007000026000000000000REP       United States Representative District 27 VICTORIA COUNTYMichael Cloud                         PRECINCT 12                                            01 
01060030013000035000001000008000026000000000000REP       United States Representative District 27 VICTORIA COUNTYMichael Cloud                         PRECINCT 13                                            01 
01060030014000109000012000024000073000000000000REP       United States Representative District 27 VICTORIA COUNTYMichael Cloud                         PRECINCT 14                                            01 
01060030015000014000003000003000008000000000000REP       United States Representative District 27 VICTORIA COUNTYMichael Cloud                         PRECINCT 15                                            01 
01060030016000037000004000013000020000000000000REP       United States Representative District 27 VICTORIA COUNTYMichael Cloud                         PRECINCT 16                                            01 
01060030017000050000004000012000034000000000000REP       United States Representative District 27 VICTORIA COUNTYMichael Cloud                         PRECINCT 17                                            01 
01060030018000369000056000124000189000000000000REP       United States Representative District 27 VICTORIA COUNTYMichael Cloud                         PRECINCT 18                                            01 
