01010010001001205000000000000000000000000000000          REGISTERED VOTERS - TOTAL                               REGISTERED VOTERS - TOTAL             PRECINCT 101                                           00 
01010010002001869000000000000000000000000000000          REGISTERED VOTERS - TOTAL                               REGISTERED VOTERS - TOTAL             PRECINCT 104                                           00 
01010010003001013000000000000000000000000000000          REGISTERED VOTERS - TOTAL                               REGISTERED VOTERS - TOTAL             PRECINCT 109                                           00 
01010010004000892000000000000000000000000000000          REGISTERED VOTERS - TOTAL                               REGISTERED VOTERS - TOTAL             PRECINCT 115                                           00 
01010010005000094000000000000000000000000000000          REGISTERED VOTERS - TOTAL                               REGISTERED VOTERS - TOTAL             PRECINCT 117                                           00 
01010010006000105000000000000000000000000000000          REGISTERED VOTERS - TOTAL                               REGISTERED VOTERS - TOTAL             PRECINCT 121                                           00 
01010010007000284000000000000000000000000000000          REGISTERED VOTERS - TOTAL                               REGISTERED VOTERS - TOTAL             PRECINCT 202                                           00 
01010010008001786000000000000000000000000000000          REGISTERED VOTERS - TOTAL                               REGISTERED VOTERS - TOTAL             PRECINCT 203                                           00 
01010010009002389000000000000000000000000000000          REGISTERED VOTERS - TOTAL                               REGISTERED VOTERS - TOTAL             PRECINCT 205                                           00 
01010010010001419000000000000000000000000000000          REGISTERED VOTERS - TOTAL                               REGISTERED VOTERS - TOTAL             PRECINCT 208                                           00 
01010010011001567000000000000000000000000000000          REGISTERED VOTERS - TOTAL                               REGISTERED VOTERS - TOTAL             PRECINCT 307                                           00 
01010010012001165000000000000000000000000000000          REGISTERED VOTERS - TOTAL                               REGISTERED VOTERS - TOTAL             PRECINCT 311                                           00 
01010010013001160000000000000000000000000000000          REGISTERED VOTERS - TOTAL                               REGISTERED VOTERS - TOTAL             PRECINCT 312                                           00 
01010010014000249000000000000000000000000000000          REGISTERED VOTERS - TOTAL                               REGISTERED VOTERS - TOTAL             PRECINCT 316                                           00 
01010010015001820000000000000000000000000000000          REGISTERED VOTERS - TOTAL                               REGISTERED VOTERS - TOTAL             PRECINCT 320                                           00 
01010010016001669000000000000000000000000000000          REGISTERED VOTERS - TOTAL                               REGISTERED VOTERS - TOTAL             PRECINCT 406                                           00 
01010010017001155000000000000000000000000000000          REGISTERED VOTERS - TOTAL                               REGISTERED VOTERS - TOTAL             PRECINCT 410                                           00 
01010010018000812000000000000000000000000000000          REGISTERED VOTERS - TOTAL                               REGISTERED VOTERS - TOTAL             PRECINCT 413                                           00 
01010010019000813000000000000000000000000000000          REGISTERED VOTERS - TOTAL                               REGISTERED VOTERS - TOTAL             PRECINCT 414                                           00 
01010010020000665000000000000000000000000000000          REGISTERED VOTERS - TOTAL                               REGISTERED VOTERS - TOTAL             PRECINCT 418                                           00 
01010010021000558000000000000000000000000000000          REGISTERED VOTERS - TOTAL                               REGISTERED VOTERS - TOTAL             PRECINCT 419                                           00 
01020010001000296000134000162000000000000000000          BALLOTS CAST - TOTAL                                    BALLOTS CAST - TOTAL                  PRECINCT 101                                           00 
01020010002000258000149000109000000000000000000          BALLOTS CAST - TOTAL                                    BALLOTS CAST - TOTAL                  PRECINCT 104                                           00 
01020010003000298000187000111000000000000000000          BALLOTS CAST - TOTAL                                    BALLOTS CAST - TOTAL                  PRECINCT 109                                           00 
01020010004000254000159000095000000000000000000          BALLOTS CAST - TOTAL                                    BALLOTS CAST - TOTAL                  PRECINCT 115                                           00 
01020010005000003000002000001000000000000000000          BALLOTS CAST - TOTAL                                    BALLOTS CAST - TOTAL                  PRECINCT 117                                           00 
01020010006000027000016000011000000000000000000          BALLOTS CAST - TOTAL                                    BALLOTS CAST - TOTAL                  PRECINCT 121                                           00 
01020010007000025000018000007000000000000000000          BALLOTS CAST - TOTAL                                    BALLOTS CAST - TOTAL                  PRECINCT 202                                           00 
01020010008000564000305000259000000000000000000          BALLOTS CAST - TOTAL                                    BALLOTS CAST - TOTAL                  PRECINCT 203                                           00 
01020010009000808000500000308000000000000000000          BALLOTS CAST - TOTAL                                    BALLOTS CAST - TOTAL                  PRECINCT 205                                           00 
01020010010000524000313000211000000000000000000          BALLOTS CAST - TOTAL                                    BALLOTS CAST - TOTAL                  PRECINCT 208                                           00 
01020010011000376000228000148000000000000000000          BALLOTS CAST - TOTAL                                    BALLOTS CAST - TOTAL                  PRECINCT 307                                           00 
01020010012000298000175000123000000000000000000          BALLOTS CAST - TOTAL                                    BALLOTS CAST - TOTAL                  PRECINCT 311                                           00 
01020010013000368000213000155000000000000000000          BALLOTS CAST - TOTAL                                    BALLOTS CAST - TOTAL                  PRECINCT 312                                           00 
01020010014000044000035000009000000000000000000          BALLOTS CAST - TOTAL                                    BALLOTS CAST - TOTAL                  PRECINCT 316                                           00 
01020010015000674000428000246000000000000000000          BALLOTS CAST - TOTAL                                    BALLOTS CAST - TOTAL                  PRECINCT 320                                           00 
01020010016000462000292000170000000000000000000          BALLOTS CAST - TOTAL                                    BALLOTS CAST - TOTAL                  PRECINCT 406                                           00 
01020010017000391000161000230000000000000000000          BALLOTS CAST - TOTAL                                    BALLOTS CAST - TOTAL                  PRECINCT 410                                           00 
01020010018000286000149000137000000000000000000          BALLOTS CAST - TOTAL                                    BALLOTS CAST - TOTAL                  PRECINCT 413                                           00 
01020010019000259000187000072000000000000000000          BALLOTS CAST - TOTAL                                    BALLOTS CAST - TOTAL                  PRECINCT 414                                           00 
01020010020000130000088000042000000000000000000          BALLOTS CAST - TOTAL                                    BALLOTS CAST - TOTAL                  PRECINCT 418                                           00 
01020010021000168000135000033000000000000000000          BALLOTS CAST - TOTAL                                    BALLOTS CAST - TOTAL                  PRECINCT 419                                           00 
01030010001000230000103000127000000000000000000REP       BALLOTS CAST - REPUBLICAN PARTY                         BALLOTS CAST - REPUBLICAN PARTY       PRECINCT 101                                           00 
01030010002000110000062000048000000000000000000REP       BALLOTS CAST - REPUBLICAN PARTY                         BALLOTS CAST - REPUBLICAN PARTY       PRECINCT 104                                           00 
01030010003000278000172000106000000000000000000REP       BALLOTS CAST - REPUBLICAN PARTY                         BALLOTS CAST - REPUBLICAN PARTY       PRECINCT 109                                           00 
01030010004000220000146000074000000000000000000REP       BALLOTS CAST - REPUBLICAN PARTY                         BALLOTS CAST - REPUBLICAN PARTY       PRECINCT 115                                           00 
01030010005000002000002000000000000000000000000REP       BALLOTS CAST - REPUBLICAN PARTY                         BALLOTS CAST - REPUBLICAN PARTY       PRECINCT 117                                           00 
01030010006000020000010000010000000000000000000REP       BALLOTS CAST - REPUBLICAN PARTY                         BALLOTS CAST - REPUBLICAN PARTY       PRECINCT 121                                           00 
01030010007000021000014000007000000000000000000REP       BALLOTS CAST - REPUBLICAN PARTY                         BALLOTS CAST - REPUBLICAN PARTY       PRECINCT 202                                           00 
01030010008000507000276000231000000000000000000REP       BALLOTS CAST - REPUBLICAN PARTY                         BALLOTS CAST - REPUBLICAN PARTY       PRECINCT 203                                           00 
01030010009000718000449000269000000000000000000REP       BALLOTS CAST - REPUBLICAN PARTY                         BALLOTS CAST - REPUBLICAN PARTY       PRECINCT 205                                           00 
01030010010000488000293000195000000000000000000REP       BALLOTS CAST - REPUBLICAN PARTY                         BALLOTS CAST - REPUBLICAN PARTY       PRECINCT 208                                           00 
01030010011000323000199000124000000000000000000REP       BALLOTS CAST - REPUBLICAN PARTY                         BALLOTS CAST - REPUBLICAN PARTY       PRECINCT 307                                           00 
01030010012000276000159000117000000000000000000REP       BALLOTS CAST - REPUBLICAN PARTY                         BALLOTS CAST - REPUBLICAN PARTY       PRECINCT 311                                           00 
01030010013000343000196000147000000000000000000REP       BALLOTS CAST - REPUBLICAN PARTY                         BALLOTS CAST - REPUBLICAN PARTY       PRECINCT 312                                           00 
01030010014000032000026000006000000000000000000REP       BALLOTS CAST - REPUBLICAN PARTY                         BALLOTS CAST - REPUBLICAN PARTY       PRECINCT 316                                           00 
01030010015000639000403000236000000000000000000REP       BALLOTS CAST - REPUBLICAN PARTY                         BALLOTS CAST - REPUBLICAN PARTY       PRECINCT 320                                           00 
01030010016000405000256000149000000000000000000REP       BALLOTS CAST - REPUBLICAN PARTY                         BALLOTS CAST - REPUBLICAN PARTY       PRECINCT 406                                           00 
01030010017000350000143000207000000000000000000REP       BALLOTS CAST - REPUBLICAN PARTY                         BALLOTS CAST - REPUBLICAN PARTY       PRECINCT 410                                           00 
01030010018000261000131000130000000000000000000REP       BALLOTS CAST - REPUBLICAN PARTY                         BALLOTS CAST - REPUBLICAN PARTY       PRECINCT 413                                           00 
01030010019000245000177000068000000000000000000REP       BALLOTS CAST - REPUBLICAN PARTY                         BALLOTS CAST - REPUBLICAN PARTY       PRECINCT 414                                           00 
01030010020000094000069000025000000000000000000REP       BALLOTS CAST - REPUBLICAN PARTY                         BALLOTS CAST - REPUBLICAN PARTY       PRECINCT 418                                           00 
01030010021000133000107000026000000000000000000REP       BALLOTS CAST - REPUBLICAN PARTY                         BALLOTS CAST - REPUBLICAN PARTY       PRECINCT 419                                           00 
01040010001000066000031000035000000000000000000DEM       BALLOTS CAST - DEMOCRATIC PARTY                         BALLOTS CAST - DEMOCRATIC PARTY       PRECINCT 101                                           00 
01040010002000148000087000061000000000000000000DEM       BALLOTS CAST - DEMOCRATIC PARTY                         BALLOTS CAST - DEMOCRATIC PARTY       PRECINCT 104                                           00 
01040010003000020000015000005000000000000000000DEM       BALLOTS CAST - DEMOCRATIC PARTY                         BALLOTS CAST - DEMOCRATIC PARTY       PRECINCT 109                                           00 
01040010004000034000013000021000000000000000000DEM       BALLOTS CAST - DEMOCRATIC PARTY                         BALLOTS CAST - DEMOCRATIC PARTY       PRECINCT 115                                           00 
01040010005000001000000000001000000000000000000DEM       BALLOTS CAST - DEMOCRATIC PARTY                         BALLOTS CAST - DEMOCRATIC PARTY       PRECINCT 117                                           00 
01040010006000007000006000001000000000000000000DEM       BALLOTS CAST - DEMOCRATIC PARTY                         BALLOTS CAST - DEMOCRATIC PARTY       PRECINCT 121                                           00 
01040010007000004000004000000000000000000000000DEM       BALLOTS CAST - DEMOCRATIC PARTY                         BALLOTS CAST - DEMOCRATIC PARTY       PRECINCT 202                                           00 
01040010008000057000029000028000000000000000000DEM       BALLOTS CAST - DEMOCRATIC PARTY                         BALLOTS CAST - DEMOCRATIC PARTY       PRECINCT 203                                           00 
01040010009000090000051000039000000000000000000DEM       BALLOTS CAST - DEMOCRATIC PARTY                         BALLOTS CAST - DEMOCRATIC PARTY       PRECINCT 205                                           00 
01040010010000036000020000016000000000000000000DEM       BALLOTS CAST - DEMOCRATIC PARTY                         BALLOTS CAST - DEMOCRATIC PARTY       PRECINCT 208                                           00 
01040010011000053000029000024000000000000000000DEM       BALLOTS CAST - DEMOCRATIC PARTY                         BALLOTS CAST - DEMOCRATIC PARTY       PRECINCT 307                                           00 
01040010012000022000016000006000000000000000000DEM       BALLOTS CAST - DEMOCRATIC PARTY                         BALLOTS CAST - DEMOCRATIC PARTY       PRECINCT 311                                           00 
01040010013000025000017000008000000000000000000DEM       BALLOTS CAST - DEMOCRATIC PARTY                         BALLOTS CAST - DEMOCRATIC PARTY       PRECINCT 312                                           00 
01040010014000012000009000003000000000000000000DEM       BALLOTS CAST - DEMOCRATIC PARTY                         BALLOTS CAST - DEMOCRATIC PARTY       PRECINCT 316                                           00 
01040010015000035000025000010000000000000000000DEM       BALLOTS CAST - DEMOCRATIC PARTY                         BALLOTS CAST - DEMOCRATIC PARTY       PRECINCT 320                                           00 
01040010016000057000036000021000000000000000000DEM       BALLOTS CAST - DEMOCRATIC PARTY                         BALLOTS CAST - DEMOCRATIC PARTY       PRECINCT 406                                           00 
01040010017000041000018000023000000000000000000DEM       BALLOTS CAST - DEMOCRATIC PARTY                         BALLOTS CAST - DEMOCRATIC PARTY       PRECINCT 410                                           00 
01040010018000025000018000007000000000000000000DEM       BALLOTS CAST - DEMOCRATIC PARTY                         BALLOTS CAST - DEMOCRATIC PARTY       PRECINCT 413                                           00 
01040010019000014000010000004000000000000000000DEM       BALLOTS CAST - DEMOCRATIC PARTY                         BALLOTS CAST - DEMOCRATIC PARTY       PRECINCT 414                                           00 
01040010020000036000019000017000000000000000000DEM       BALLOTS CAST - DEMOCRATIC PARTY                         BALLOTS CAST - DEMOCRATIC PARTY       PRECINCT 418                                           00 
01040010021000035000028000007000000000000000000DEM       BALLOTS CAST - DEMOCRATIC PARTY                         BALLOTS CAST - DEMOCRATIC PARTY       PRECINCT 419                                           00 
01050010001000004000000000004000000000000000000REP       United States Senator                                   Bruce Jacobson, Jr.                   PRECINCT 101                                           01 
01050010002000003000001000002000000000000000000REP       United States Senator                                   Bruce Jacobson, Jr.                   PRECINCT 104                                           01 
01050010003000019000014000005000000000000000000REP       United States Senator                                   Bruce Jacobson, Jr.                   PRECINCT 109                                           01 
01050010004000007000005000002000000000000000000REP       United States Senator                                   Bruce Jacobson, Jr.                   PRECINCT 115                                           01 
01050010005000000000000000000000000000000000000REP       United States Senator                                   Bruce Jacobson, Jr.                   PRECINCT 117                                           01 
01050010006000000000000000000000000000000000000REP       United States Senator                                   Bruce Jacobson, Jr.                   PRECINCT 121                                           01 
01050010007000000000000000000000000000000000000REP       United States Senator                                   Bruce Jacobson, Jr.                   PRECINCT 202                                           01 
01050010008000024000016000008000000000000000000REP       United States Senator                                   Bruce Jacobson, Jr.                   PRECINCT 203                                           01 
01050010009000022000010000012000000000000000000REP       United States Senator                                   Bruce Jacobson, Jr.                   PRECINCT 205                                           01 
01050010010000021000012000009000000000000000000REP       United States Senator                                   Bruce Jacobson, Jr.                   PRECINCT 208                                           01 
01050010011000007000003000004000000000000000000REP       United States Senator                                   Bruce Jacobson, Jr.                   PRECINCT 307                                           01 
01050010012000010000005000005000000000000000000REP       United States Senator                                   Bruce Jacobson, Jr.                   PRECINCT 311                                           01 
01050010013000015000012000003000000000000000000REP       United States Senator                                   Bruce Jacobson, Jr.                   PRECINCT 312                                           01 
01050010014000003000003000000000000000000000000REP       United States Senator                                   Bruce Jacobson, Jr.                   PRECINCT 316                                           01 
01050010015000031000020000011000000000000000000REP       United States Senator                                   Bruce Jacobson, Jr.                   PRECINCT 320                                           01 
01050010016000027000018000009000000000000000000REP       United States Senator                                   Bruce Jacobson, Jr.                   PRECINCT 406                                           01 
01050010017000017000006000011000000000000000000REP       United States Senator                                   Bruce Jacobson, Jr.                   PRECINCT 410                                           01 
01050010018000018000009000009000000000000000000REP       United States Senator                                   Bruce Jacobson, Jr.                   PRECINCT 413                                           01 
01050010019000005000003000002000000000000000000REP       United States Senator                                   Bruce Jacobson, Jr.                   PRECINCT 414                                           01 
01050010020000004000004000000000000000000000000REP       United States Senator                                   Bruce Jacobson, Jr.                   PRECINCT 418                                           01 
01050010021000007000007000000000000000000000000REP       United States Senator                                   Bruce Jacobson, Jr.                   PRECINCT 419                                           01 
01050020001000210000094000116000000000000000000REP       United States Senator                                   Ted Cruz                              PRECINCT 101                                           01 
01050020002000087000052000035000000000000000000REP       United States Senator                                   Ted Cruz                              PRECINCT 104                                           01 
01050020003000235000141000094000000000000000000REP       United States Senator                                   Ted Cruz                              PRECINCT 109                                           01 
01050020004000192000132000060000000000000000000REP       United States Senator                                   Ted Cruz                              PRECINCT 115                                           01 
01050020005000001000001000000000000000000000000REP       United States Senator                                   Ted Cruz                              PRECINCT 117                                           01 
01050020006000013000006000007000000000000000000REP       United States Senator                                   Ted Cruz                              PRECINCT 121                                           01 
01050020007000020000013000007000000000000000000REP       United States Senator                                   Ted Cruz                              PRECINCT 202                                           01 
01050020008000437000231000206000000000000000000REP       United States Senator                                   Ted Cruz                              PRECINCT 203                                           01 
01050020009000583000372000211000000000000000000REP       United States Senator                                   Ted Cruz                              PRECINCT 205                                           01 
01050020010000422000252000170000000000000000000REP       United States Senator                                   Ted Cruz                              PRECINCT 208                                           01 
01050020011000282000172000110000000000000000000REP       United States Senator                                   Ted Cruz                              PRECINCT 307                                           01 
01050020012000218000129000089000000000000000000REP       United States Senator                                   Ted Cruz                              PRECINCT 311                                           01 
01050020013000300000168000132000000000000000000REP       United States Senator                                   Ted Cruz                              PRECINCT 312                                           01 
01050020014000026000021000005000000000000000000REP       United States Senator                                   Ted Cruz                              PRECINCT 316                                           01 
01050020015000534000334000200000000000000000000REP       United States Senator                                   Ted Cruz                              PRECINCT 320                                           01 
01050020016000332000213000119000000000000000000REP       United States Senator                                   Ted Cruz                              PRECINCT 406                                           01 
01050020017000297000121000176000000000000000000REP       United States Senator                                   Ted Cruz                              PRECINCT 410                                           01 
01050020018000215000109000106000000000000000000REP       United States Senator                                   Ted Cruz                              PRECINCT 413                                           01 
01050020019000222000164000058000000000000000000REP       United States Senator                                   Ted Cruz                              PRECINCT 414                                           01 
01050020020000077000055000022000000000000000000REP       United States Senator                                   Ted Cruz                              PRECINCT 418                                           01 
01050020021000106000085000021000000000000000000REP       United States Senator                                   Ted Cruz                              PRECINCT 419                                           01 
01050030001000000000000000000000000000000000000REP       United States Senator                                   Geraldine Sam                         PRECINCT 101                                           01 
01050030002000004000002000002000000000000000000REP       United States Senator                                   Geraldine Sam                         PRECINCT 104                                           01 
01050030003000005000004000001000000000000000000REP       United States Senator                                   Geraldine Sam                         PRECINCT 109                                           01 
01050030004000004000001000003000000000000000000REP       United States Senator                                   Geraldine Sam                         PRECINCT 115                                           01 
01050030005000000000000000000000000000000000000REP       United States Senator                                   Geraldine Sam                         PRECINCT 117                                           01 
01050030006000000000000000000000000000000000000REP       United States Senator                                   Geraldine Sam                         PRECINCT 121                                           01 
01050030007000000000000000000000000000000000000REP       United States Senator                                   Geraldine Sam                         PRECINCT 202                                           01 
01050030008000005000003000002000000000000000000REP       United States Senator                                   Geraldine Sam                         PRECINCT 203                                           01 
01050030009000010000004000006000000000000000000REP       United States Senator                                   Geraldine Sam                         PRECINCT 205                                           01 
01050030010000003000001000002000000000000000000REP       United States Senator                                   Geraldine Sam                         PRECINCT 208                                           01 
01050030011000005000004000001000000000000000000REP       United States Senator                                   Geraldine Sam                         PRECINCT 307                                           01 
01050030012000007000002000005000000000000000000REP       United States Senator                                   Geraldine Sam                         PRECINCT 311                                           01 
01050030013000004000001000003000000000000000000REP       United States Senator                                   Geraldine Sam                         PRECINCT 312                                           01 
01050030014000000000000000000000000000000000000REP       United States Senator                                   Geraldine Sam                         PRECINCT 316                                           01 
01050030015000006000003000003000000000000000000REP       United States Senator                                   Geraldine Sam                         PRECINCT 320                                           01 
01050030016000001000001000000000000000000000000REP       United States Senator                                   Geraldine Sam                         PRECINCT 406                                           01 
01050030017000011000006000005000000000000000000REP       United States Senator                                   Geraldine Sam                         PRECINCT 410                                           01 
01050030018000004000001000003000000000000000000REP       United States Senator                                   Geraldine Sam                         PRECINCT 413                                           01 
01050030019000001000001000000000000000000000000REP       United States Senator                                   Geraldine Sam                         PRECINCT 414                                           01 
01050030020000000000000000000000000000000000000REP       United States Senator                                   Geraldine Sam                         PRECINCT 418                                           01 
01050030021000002000002000000000000000000000000REP       United States Senator                                   Geraldine Sam                         PRECINCT 419                                           01 
01050040001000007000004000003000000000000000000REP       United States Senator                                   Mary Miller                           PRECINCT 101                                           01 
01050040002000009000005000004000000000000000000REP       United States Senator                                   Mary Miller                           PRECINCT 104                                           01 
01050040003000008000007000001000000000000000000REP       United States Senator                                   Mary Miller                           PRECINCT 109                                           01 
01050040004000007000004000003000000000000000000REP       United States Senator                                   Mary Miller                           PRECINCT 115                                           01 
01050040005000000000000000000000000000000000000REP       United States Senator                                   Mary Miller                           PRECINCT 117                                           01 
01050040006000003000002000001000000000000000000REP       United States Senator                                   Mary Miller                           PRECINCT 121                                           01 
01050040007000000000000000000000000000000000000REP       United States Senator                                   Mary Miller                           PRECINCT 202                                           01 
01050040008000018000010000008000000000000000000REP       United States Senator                                   Mary Miller                           PRECINCT 203                                           01 
01050040009000035000020000015000000000000000000REP       United States Senator                                   Mary Miller                           PRECINCT 205                                           01 
01050040010000014000010000004000000000000000000REP       United States Senator                                   Mary Miller                           PRECINCT 208                                           01 
01050040011000012000008000004000000000000000000REP       United States Senator                                   Mary Miller                           PRECINCT 307                                           01 
01050040012000014000007000007000000000000000000REP       United States Senator                                   Mary Miller                           PRECINCT 311                                           01 
01050040013000009000005000004000000000000000000REP       United States Senator                                   Mary Miller                           PRECINCT 312                                           01 
01050040014000000000000000000000000000000000000REP       United States Senator                                   Mary Miller                           PRECINCT 316                                           01 
01050040015000031000020000011000000000000000000REP       United States Senator                                   Mary Miller                           PRECINCT 320                                           01 
01050040016000019000013000006000000000000000000REP       United States Senator                                   Mary Miller                           PRECINCT 406                                           01 
01050040017000014000008000006000000000000000000REP       United States Senator                                   Mary Miller                           PRECINCT 410                                           01 
01050040018000016000009000007000000000000000000REP       United States Senator                                   Mary Miller                           PRECINCT 413                                           01 
01050040019000007000005000002000000000000000000REP       United States Senator                                   Mary Miller                           PRECINCT 414                                           01 
01050040020000004000002000002000000000000000000REP       United States Senator                                   Mary Miller                           PRECINCT 418                                           01 
01050040021000008000005000003000000000000000000REP       United States Senator                                   Mary Miller                           PRECINCT 419                                           01 
01050050001000003000003000000000000000000000000REP       United States Senator                                   Stefano de Stefano                    PRECINCT 101                                           01 
01050050002000002000001000001000000000000000000REP       United States Senator                                   Stefano de Stefano                    PRECINCT 104                                           01 
01050050003000001000001000000000000000000000000REP       United States Senator                                   Stefano de Stefano                    PRECINCT 109                                           01 
01050050004000001000001000000000000000000000000REP       United States Senator                                   Stefano de Stefano                    PRECINCT 115                                           01 
01050050005000000000000000000000000000000000000REP       United States Senator                                   Stefano de Stefano                    PRECINCT 117                                           01 
01050050006000001000000000001000000000000000000REP       United States Senator                                   Stefano de Stefano                    PRECINCT 121                                           01 
01050050007000001000001000000000000000000000000REP       United States Senator                                   Stefano de Stefano                    PRECINCT 202                                           01 
01050050008000002000002000000000000000000000000REP       United States Senator                                   Stefano de Stefano                    PRECINCT 203                                           01 
01050050009000009000005000004000000000000000000REP       United States Senator                                   Stefano de Stefano                    PRECINCT 205                                           01 
01050050010000010000009000001000000000000000000REP       United States Senator                                   Stefano de Stefano                    PRECINCT 208                                           01 
01050050011000005000003000002000000000000000000REP       United States Senator                                   Stefano de Stefano                    PRECINCT 307                                           01 
01050050012000006000004000002000000000000000000REP       United States Senator                                   Stefano de Stefano                    PRECINCT 311                                           01 
01050050013000002000002000000000000000000000000REP       United States Senator                                   Stefano de Stefano                    PRECINCT 312                                           01 
01050050014000000000000000000000000000000000000REP       United States Senator                                   Stefano de Stefano                    PRECINCT 316                                           01 
01050050015000007000005000002000000000000000000REP       United States Senator                                   Stefano de Stefano                    PRECINCT 320                                           01 
01050050016000002000000000002000000000000000000REP       United States Senator                                   Stefano de Stefano                    PRECINCT 406                                           01 
01050050017000001000001000000000000000000000000REP       United States Senator                                   Stefano de Stefano                    PRECINCT 410                                           01 
01050050018000001000001000000000000000000000000REP       United States Senator                                   Stefano de Stefano                    PRECINCT 413                                           01 
01050050019000002000001000001000000000000000000REP       United States Senator                                   Stefano de Stefano                    PRECINCT 414                                           01 
01050050020000002000002000000000000000000000000REP       United States Senator                                   Stefano de Stefano                    PRECINCT 418                                           01 
01050050021000000000000000000000000000000000000REP       United States Senator                                   Stefano de Stefano                    PRECINCT 419                                           01 
01050060001000000000000000000000000000000000000REP       United States Senator                                   OVER VOTES                            PRECINCT 101                                           01 
01050060002000000000000000000000000000000000000REP       United States Senator                                   OVER VOTES                            PRECINCT 104                                           01 
01050060003000000000000000000000000000000000000REP       United States Senator                                   OVER VOTES                            PRECINCT 109                                           01 
01050060004000000000000000000000000000000000000REP       United States Senator                                   OVER VOTES                            PRECINCT 115                                           01 
01050060005000000000000000000000000000000000000REP       United States Senator                                   OVER VOTES                            PRECINCT 117                                           01 
01050060006000000000000000000000000000000000000REP       United States Senator                                   OVER VOTES                            PRECINCT 121                                           01 
01050060007000000000000000000000000000000000000REP       United States Senator                                   OVER VOTES                            PRECINCT 202                                           01 
01050060008000000000000000000000000000000000000REP       United States Senator                                   OVER VOTES                            PRECINCT 203                                           01 
01050060009000000000000000000000000000000000000REP       United States Senator                                   OVER VOTES                            PRECINCT 205                                           01 
01050060010000000000000000000000000000000000000REP       United States Senator                                   OVER VOTES                            PRECINCT 208                                           01 
01050060011000000000000000000000000000000000000REP       United States Senator                                   OVER VOTES                            PRECINCT 307                                           01 
01050060012000000000000000000000000000000000000REP       United States Senator                                   OVER VOTES                            PRECINCT 311                                           01 
01050060013000000000000000000000000000000000000REP       United States Senator                                   OVER VOTES                            PRECINCT 312                                           01 
01050060014000000000000000000000000000000000000REP       United States Senator                                   OVER VOTES                            PRECINCT 316                                           01 
01050060015000000000000000000000000000000000000REP       United States Senator                                   OVER VOTES                            PRECINCT 320                                           01 
01050060016000000000000000000000000000000000000REP       United States Senator                                   OVER VOTES                            PRECINCT 406                                           01 
01050060017000000000000000000000000000000000000REP       United States Senator                                   OVER VOTES                            PRECINCT 410                                           01 
01050060018000000000000000000000000000000000000REP       United States Senator                                   OVER VOTES                            PRECINCT 413                                           01 
01050060019000000000000000000000000000000000000REP       United States Senator                                   OVER VOTES                            PRECINCT 414                                           01 
01050060020000000000000000000000000000000000000REP       United States Senator                                   OVER VOTES                            PRECINCT 418                                           01 
01050060021000000000000000000000000000000000000REP       United States Senator                                   OVER VOTES                            PRECINCT 419                                           01 
01050070001000006000002000004000000000000000000REP       United States Senator                                   UNDER VOTES                           PRECINCT 101                                           01 
01050070002000005000001000004000000000000000000REP       United States Senator                                   UNDER VOTES                           PRECINCT 104                                           01 
01050070003000010000005000005000000000000000000REP       United States Senator                                   UNDER VOTES                           PRECINCT 109                                           01 
01050070004000009000003000006000000000000000000REP       United States Senator                                   UNDER VOTES                           PRECINCT 115                                           01 
01050070005000001000001000000000000000000000000REP       United States Senator                                   UNDER VOTES                           PRECINCT 117                                           01 
01050070006000003000002000001000000000000000000REP       United States Senator                                   UNDER VOTES                           PRECINCT 121                                           01 
01050070007000000000000000000000000000000000000REP       United States Senator                                   UNDER VOTES                           PRECINCT 202                                           01 
01050070008000021000014000007000000000000000000REP       United States Senator                                   UNDER VOTES                           PRECINCT 203                                           01 
01050070009000059000038000021000000000000000000REP       United States Senator                                   UNDER VOTES                           PRECINCT 205                                           01 
01050070010000018000009000009000000000000000000REP       United States Senator                                   UNDER VOTES                           PRECINCT 208                                           01 
01050070011000012000009000003000000000000000000REP       United States Senator                                   UNDER VOTES                           PRECINCT 307                                           01 
01050070012000021000012000009000000000000000000REP       United States Senator                                   UNDER VOTES                           PRECINCT 311                                           01 
01050070013000013000008000005000000000000000000REP       United States Senator                                   UNDER VOTES                           PRECINCT 312                                           01 
01050070014000003000002000001000000000000000000REP       United States Senator                                   UNDER VOTES                           PRECINCT 316                                           01 
01050070015000030000021000009000000000000000000REP       United States Senator                                   UNDER VOTES                           PRECINCT 320                                           01 
01050070016000024000011000013000000000000000000REP       United States Senator                                   UNDER VOTES                           PRECINCT 406                                           01 
01050070017000010000001000009000000000000000000REP       United States Senator                                   UNDER VOTES                           PRECINCT 410                                           01 
01050070018000007000002000005000000000000000000REP       United States Senator                                   UNDER VOTES                           PRECINCT 413                                           01 
01050070019000008000003000005000000000000000000REP       United States Senator                                   UNDER VOTES                           PRECINCT 414                                           01 
01050070020000007000006000001000000000000000000REP       United States Senator                                   UNDER VOTES                           PRECINCT 418                                           01 
01050070021000010000008000002000000000000000000REP       United States Senator                                   UNDER VOTES                           PRECINCT 419                                           01 
01060010001000023000008000015000000000000000000REP       United States Representative, Dist 10                   John W. Cook                          PRECINCT 101                                           01 
01060010002000015000010000005000000000000000000REP       United States Representative, Dist 10                   John W. Cook                          PRECINCT 104                                           01 
01060010003000030000013000017000000000000000000REP       United States Representative, Dist 10                   John W. Cook                          PRECINCT 109                                           01 
01060010004000020000009000011000000000000000000REP       United States Representative, Dist 10                   John W. Cook                          PRECINCT 115                                           01 
01060010005000002000002000000000000000000000000REP       United States Representative, Dist 10                   John W. Cook                          PRECINCT 117                                           01 
01060010006000003000001000002000000000000000000REP       United States Representative, Dist 10                   John W. Cook                          PRECINCT 121                                           01 
01060010007000005000003000002000000000000000000REP       United States Representative, Dist 10                   John W. Cook                          PRECINCT 202                                           01 
01060010008000060000031000029000000000000000000REP       United States Representative, Dist 10                   John W. Cook                          PRECINCT 203                                           01 
01060010009000076000038000038000000000000000000REP       United States Representative, Dist 10                   John W. Cook                          PRECINCT 205                                           01 
01060010010000052000022000030000000000000000000REP       United States Representative, Dist 10                   John W. Cook                          PRECINCT 208                                           01 
01060010011000035000019000016000000000000000000REP       United States Representative, Dist 10                   John W. Cook                          PRECINCT 307                                           01 
01060010012000041000021000020000000000000000000REP       United States Representative, Dist 10                   John W. Cook                          PRECINCT 311                                           01 
01060010013000028000013000015000000000000000000REP       United States Representative, Dist 10                   John W. Cook                          PRECINCT 312                                           01 
01060010014000003000002000001000000000000000000REP       United States Representative, Dist 10                   John W. Cook                          PRECINCT 316                                           01 
01060010015000073000045000028000000000000000000REP       United States Representative, Dist 10                   John W. Cook                          PRECINCT 320                                           01 
01060010016000046000031000015000000000000000000REP       United States Representative, Dist 10                   John W. Cook                          PRECINCT 406                                           01 
01060010017000035000011000024000000000000000000REP       United States Representative, Dist 10                   John W. Cook                          PRECINCT 410                                           01 
01060010018000032000012000020000000000000000000REP       United States Representative, Dist 10                   John W. Cook                          PRECINCT 413                                           01 
01060010019000021000015000006000000000000000000REP       United States Representative, Dist 10                   John W. Cook                          PRECINCT 414                                           01 
01060010020000011000006000005000000000000000000REP       United States Representative, Dist 10                   John W. Cook                          PRECINCT 418                                           01 
01060010021000013000012000001000000000000000000REP       United States Representative, Dist 10                   John W. Cook                          PRECINCT 419                                           01 
01060020001000199000093000106000000000000000000REP       United States Representative, Dist 10                   Michael T. McCaul                     PRECINCT 101                                           01 
01060020002000090000051000039000000000000000000REP       United States Representative, Dist 10                   Michael T. McCaul                     PRECINCT 104                                           01 
01060020003000227000148000079000000000000000000REP       United States Representative, Dist 10                   Michael T. McCaul                     PRECINCT 109                                           01 
01060020004000187000130000057000000000000000000REP       United States Representative, Dist 10                   Michael T. McCaul                     PRECINCT 115                                           01 
01060020005000000000000000000000000000000000000REP       United States Representative, Dist 10                   Michael T. McCaul                     PRECINCT 117                                           01 
01060020006000013000006000007000000000000000000REP       United States Representative, Dist 10                   Michael T. McCaul                     PRECINCT 121                                           01 
01060020007000014000010000004000000000000000000REP       United States Representative, Dist 10                   Michael T. McCaul                     PRECINCT 202                                           01 
01060020008000409000224000185000000000000000000REP       United States Representative, Dist 10                   Michael T. McCaul                     PRECINCT 203                                           01 
01060020009000603000384000219000000000000000000REP       United States Representative, Dist 10                   Michael T. McCaul                     PRECINCT 205                                           01 
01060020010000421000262000159000000000000000000REP       United States Representative, Dist 10                   Michael T. McCaul                     PRECINCT 208                                           01 
01060020011000270000168000102000000000000000000REP       United States Representative, Dist 10                   Michael T. McCaul                     PRECINCT 307                                           01 
01060020012000214000130000084000000000000000000REP       United States Representative, Dist 10                   Michael T. McCaul                     PRECINCT 311                                           01 
01060020013000301000175000126000000000000000000REP       United States Representative, Dist 10                   Michael T. McCaul                     PRECINCT 312                                           01 
01060020014000026000022000004000000000000000000REP       United States Representative, Dist 10                   Michael T. McCaul                     PRECINCT 316                                           01 
01060020015000543000347000196000000000000000000REP       United States Representative, Dist 10                   Michael T. McCaul                     PRECINCT 320                                           01 
01060020016000336000215000121000000000000000000REP       United States Representative, Dist 10                   Michael T. McCaul                     PRECINCT 406                                           01 
01060020017000298000129000169000000000000000000REP       United States Representative, Dist 10                   Michael T. McCaul                     PRECINCT 410                                           01 
01060020018000218000113000105000000000000000000REP       United States Representative, Dist 10                   Michael T. McCaul                     PRECINCT 413                                           01 
01060020019000210000156000054000000000000000000REP       United States Representative, Dist 10                   Michael T. McCaul                     PRECINCT 414                                           01 
01060020020000074000054000020000000000000000000REP       United States Representative, Dist 10                   Michael T. McCaul                     PRECINCT 418                                           01 
01060020021000107000084000023000000000000000000REP       United States Representative, Dist 10                   Michael T. McCaul                     PRECINCT 419                                           01 
01060030001000000000000000000000000000000000000REP       United States Representative, Dist 10                   OVER VOTES                            PRECINCT 101                                           01 
01060030002000000000000000000000000000000000000REP       United States Representative, Dist 10                   OVER VOTES                            PRECINCT 104                                           01 
01060030003000000000000000000000000000000000000REP       United States Representative, Dist 10                   OVER VOTES                            PRECINCT 109                                           01 
01060030004000000000000000000000000000000000000REP       United States Representative, Dist 10                   OVER VOTES                            PRECINCT 115                                           01 
01060030005000000000000000000000000000000000000REP       United States Representative, Dist 10                   OVER VOTES                            PRECINCT 117                                           01 
01060030006000000000000000000000000000000000000REP       United States Representative, Dist 10                   OVER VOTES                            PRECINCT 121                                           01 
01060030007000000000000000000000000000000000000REP       United States Representative, Dist 10                   OVER VOTES                            PRECINCT 202                                           01 
01060030008000000000000000000000000000000000000REP       United States Representative, Dist 10                   OVER VOTES                            PRECINCT 203                                           01 
01060030009000000000000000000000000000000000000REP       United States Representative, Dist 10                   OVER VOTES                            PRECINCT 205                                           01 
01060030010000000000000000000000000000000000000REP       United States Representative, Dist 10                   OVER VOTES                            PRECINCT 208                                           01 
01060030011000000000000000000000000000000000000REP       United States Representative, Dist 10                   OVER VOTES                            PRECINCT 307                                           01 
01060030012000000000000000000000000000000000000REP       United States Representative, Dist 10                   OVER VOTES                            PRECINCT 311                                           01 
01060030013000000000000000000000000000000000000REP       United States Representative, Dist 10                   OVER VOTES                            PRECINCT 312                                           01 
01060030014000000000000000000000000000000000000REP       United States Representative, Dist 10                   OVER VOTES                            PRECINCT 316                                           01 
01060030015000000000000000000000000000000000000REP       United States Representative, Dist 10                   OVER VOTES                            PRECINCT 320                                           01 
01060030016000000000000000000000000000000000000REP       United States Representative, Dist 10                   OVER VOTES                            PRECINCT 406                                           01 
01060030017000000000000000000000000000000000000REP       United States Representative, Dist 10                   OVER VOTES                            PRECINCT 410                                           01 
01060030018000000000000000000000000000000000000REP       United States Representative, Dist 10                   OVER VOTES                            PRECINCT 413                                           01 
01060030019000000000000000000000000000000000000REP       United States Representative, Dist 10                   OVER VOTES                            PRECINCT 414                                           01 
01060030020000000000000000000000000000000000000REP       United States Representative, Dist 10                   OVER VOTES                            PRECINCT 418                                           01 
01060030021000000000000000000000000000000000000REP       United States Representative, Dist 10                   OVER VOTES                            PRECINCT 419                                           01 
01060040001000008000002000006000000000000000000REP       United States Representative, Dist 10                   UNDER VOTES                           PRECINCT 101                                           01 
01060040002000005000001000004000000000000000000REP       United States Representative, Dist 10                   UNDER VOTES                           PRECINCT 104                                           01 
01060040003000021000011000010000000000000000000REP       United States Representative, Dist 10                   UNDER VOTES                           PRECINCT 109                                           01 
01060040004000013000007000006000000000000000000REP       United States Representative, Dist 10                   UNDER VOTES                           PRECINCT 115                                           01 
01060040005000000000000000000000000000000000000REP       United States Representative, Dist 10                   UNDER VOTES                           PRECINCT 117                                           01 
01060040006000004000003000001000000000000000000REP       United States Representative, Dist 10                   UNDER VOTES                           PRECINCT 121                                           01 
01060040007000002000001000001000000000000000000REP       United States Representative, Dist 10                   UNDER VOTES                           PRECINCT 202                                           01 
01060040008000038000021000017000000000000000000REP       United States Representative, Dist 10                   UNDER VOTES                           PRECINCT 203                                           01 
01060040009000039000027000012000000000000000000REP       United States Representative, Dist 10                   UNDER VOTES                           PRECINCT 205                                           01 
01060040010000015000009000006000000000000000000REP       United States Representative, Dist 10                   UNDER VOTES                           PRECINCT 208                                           01 
01060040011000018000012000006000000000000000000REP       United States Representative, Dist 10                   UNDER VOTES                           PRECINCT 307                                           01 
01060040012000021000008000013000000000000000000REP       United States Representative, Dist 10                   UNDER VOTES                           PRECINCT 311                                           01 
01060040013000014000008000006000000000000000000REP       United States Representative, Dist 10                   UNDER VOTES                           PRECINCT 312                                           01 
01060040014000003000002000001000000000000000000REP       United States Representative, Dist 10                   UNDER VOTES                           PRECINCT 316                                           01 
01060040015000023000011000012000000000000000000REP       United States Representative, Dist 10                   UNDER VOTES                           PRECINCT 320                                           01 
01060040016000023000010000013000000000000000000REP       United States Representative, Dist 10                   UNDER VOTES                           PRECINCT 406                                           01 
01060040017000017000003000014000000000000000000REP       United States Representative, Dist 10                   UNDER VOTES                           PRECINCT 410                                           01 
01060040018000011000006000005000000000000000000REP       United States Representative, Dist 10                   UNDER VOTES                           PRECINCT 413                                           01 
01060040019000014000006000008000000000000000000REP       United States Representative, Dist 10                   UNDER VOTES                           PRECINCT 414                                           01 
01060040020000009000009000000000000000000000000REP       United States Representative, Dist 10                   UNDER VOTES                           PRECINCT 418                                           01 
01060040021000013000011000002000000000000000000REP       United States Representative, Dist 10                   UNDER VOTES                           PRECINCT 419                                           01 
01070010001000211000094000117000000000000000000REP       Governor                                                Greg Abbott                           PRECINCT 101                                           01 
01070010002000093000055000038000000000000000000REP       Governor                                                Greg Abbott                           PRECINCT 104                                           01 
01070010003000253000155000098000000000000000000REP       Governor                                                Greg Abbott                           PRECINCT 109                                           01 
01070010004000201000138000063000000000000000000REP       Governor                                                Greg Abbott                           PRECINCT 115                                           01 
01070010005000002000002000000000000000000000000REP       Governor                                                Greg Abbott                           PRECINCT 117                                           01 
01070010006000015000006000009000000000000000000REP       Governor                                                Greg Abbott                           PRECINCT 121                                           01 
01070010007000019000013000006000000000000000000REP       Governor                                                Greg Abbott                           PRECINCT 202                                           01 
01070010008000461000245000216000000000000000000REP       Governor                                                Greg Abbott                           PRECINCT 203                                           01 
01070010009000623000388000235000000000000000000REP       Governor                                                Greg Abbott                           PRECINCT 205                                           01 
01070010010000442000268000174000000000000000000REP       Governor                                                Greg Abbott                           PRECINCT 208                                           01 
01070010011000288000176000112000000000000000000REP       Governor                                                Greg Abbott                           PRECINCT 307                                           01 
01070010012000244000138000106000000000000000000REP       Governor                                                Greg Abbott                           PRECINCT 311                                           01 
01070010013000322000182000140000000000000000000REP       Governor                                                Greg Abbott                           PRECINCT 312                                           01 
01070010014000030000025000005000000000000000000REP       Governor                                                Greg Abbott                           PRECINCT 316                                           01 
01070010015000569000362000207000000000000000000REP       Governor                                                Greg Abbott                           PRECINCT 320                                           01 
01070010016000354000227000127000000000000000000REP       Governor                                                Greg Abbott                           PRECINCT 406                                           01 
01070010017000327000133000194000000000000000000REP       Governor                                                Greg Abbott                           PRECINCT 410                                           01 
01070010018000230000115000115000000000000000000REP       Governor                                                Greg Abbott                           PRECINCT 413                                           01 
01070010019000229000165000064000000000000000000REP       Governor                                                Greg Abbott                           PRECINCT 414                                           01 
01070010020000079000057000022000000000000000000REP       Governor                                                Greg Abbott                           PRECINCT 418                                           01 
01070010021000114000091000023000000000000000000REP       Governor                                                Greg Abbott                           PRECINCT 419                                           01 
01070020001000001000001000000000000000000000000REP       Governor                                                SECEDE Kilgore                        PRECINCT 101                                           01 
01070020002000000000000000000000000000000000000REP       Governor                                                SECEDE Kilgore                        PRECINCT 104                                           01 
01070020003000001000000000001000000000000000000REP       Governor                                                SECEDE Kilgore                        PRECINCT 109                                           01 
01070020004000001000001000000000000000000000000REP       Governor                                                SECEDE Kilgore                        PRECINCT 115                                           01 
01070020005000000000000000000000000000000000000REP       Governor                                                SECEDE Kilgore                        PRECINCT 117                                           01 
01070020006000000000000000000000000000000000000REP       Governor                                                SECEDE Kilgore                        PRECINCT 121                                           01 
01070020007000000000000000000000000000000000000REP       Governor                                                SECEDE Kilgore                        PRECINCT 202                                           01 
01070020008000006000005000001000000000000000000REP       Governor                                                SECEDE Kilgore                        PRECINCT 203                                           01 
01070020009000006000002000004000000000000000000REP       Governor                                                SECEDE Kilgore                        PRECINCT 205                                           01 
01070020010000007000003000004000000000000000000REP       Governor                                                SECEDE Kilgore                        PRECINCT 208                                           01 
01070020011000004000002000002000000000000000000REP       Governor                                                SECEDE Kilgore                        PRECINCT 307                                           01 
01070020012000005000004000001000000000000000000REP       Governor                                                SECEDE Kilgore                        PRECINCT 311                                           01 
01070020013000003000001000002000000000000000000REP       Governor                                                SECEDE Kilgore                        PRECINCT 312                                           01 
01070020014000000000000000000000000000000000000REP       Governor                                                SECEDE Kilgore                        PRECINCT 316                                           01 
01070020015000007000003000004000000000000000000REP       Governor                                                SECEDE Kilgore                        PRECINCT 320                                           01 
01070020016000001000001000000000000000000000000REP       Governor                                                SECEDE Kilgore                        PRECINCT 406                                           01 
01070020017000002000001000001000000000000000000REP       Governor                                                SECEDE Kilgore                        PRECINCT 410                                           01 
01070020018000005000003000002000000000000000000REP       Governor                                                SECEDE Kilgore                        PRECINCT 413                                           01 
01070020019000006000006000000000000000000000000REP       Governor                                                SECEDE Kilgore                        PRECINCT 414                                           01 
01070020020000003000002000001000000000000000000REP       Governor                                                SECEDE Kilgore                        PRECINCT 418                                           01 
01070020021000001000001000000000000000000000000REP       Governor                                                SECEDE Kilgore                        PRECINCT 419                                           01 
01070030001000012000005000007000000000000000000REP       Governor                                                Barbara Krueger                       PRECINCT 101                                           01 
01070030002000014000007000007000000000000000000REP       Governor                                                Barbara Krueger                       PRECINCT 104                                           01 
01070030003000016000013000003000000000000000000REP       Governor                                                Barbara Krueger                       PRECINCT 109                                           01 
01070030004000014000005000009000000000000000000REP       Governor                                                Barbara Krueger                       PRECINCT 115                                           01 
01070030005000000000000000000000000000000000000REP       Governor                                                Barbara Krueger                       PRECINCT 117                                           01 
01070030006000000000000000000000000000000000000REP       Governor                                                Barbara Krueger                       PRECINCT 121                                           01 
01070030007000002000001000001000000000000000000REP       Governor                                                Barbara Krueger                       PRECINCT 202                                           01 
01070030008000024000012000012000000000000000000REP       Governor                                                Barbara Krueger                       PRECINCT 203                                           01 
01070030009000046000031000015000000000000000000REP       Governor                                                Barbara Krueger                       PRECINCT 205                                           01 
01070030010000026000014000012000000000000000000REP       Governor                                                Barbara Krueger                       PRECINCT 208                                           01 
01070030011000023000016000007000000000000000000REP       Governor                                                Barbara Krueger                       PRECINCT 307                                           01 
01070030012000014000009000005000000000000000000REP       Governor                                                Barbara Krueger                       PRECINCT 311                                           01 
01070030013000012000008000004000000000000000000REP       Governor                                                Barbara Krueger                       PRECINCT 312                                           01 
01070030014000000000000000000000000000000000000REP       Governor                                                Barbara Krueger                       PRECINCT 316                                           01 
01070030015000046000026000020000000000000000000REP       Governor                                                Barbara Krueger                       PRECINCT 320                                           01 
01070030016000031000020000011000000000000000000REP       Governor                                                Barbara Krueger                       PRECINCT 406                                           01 
01070030017000015000009000006000000000000000000REP       Governor                                                Barbara Krueger                       PRECINCT 410                                           01 
01070030018000020000008000012000000000000000000REP       Governor                                                Barbara Krueger                       PRECINCT 413                                           01 
01070030019000003000002000001000000000000000000REP       Governor                                                Barbara Krueger                       PRECINCT 414                                           01 
01070030020000005000003000002000000000000000000REP       Governor                                                Barbara Krueger                       PRECINCT 418                                           01 
01070030021000013000010000003000000000000000000REP       Governor                                                Barbara Krueger                       PRECINCT 419                                           01 
01070040001000000000000000000000000000000000000REP       Governor                                                OVER VOTES                            PRECINCT 101                                           01 
01070040002000000000000000000000000000000000000REP       Governor                                                OVER VOTES                            PRECINCT 104                                           01 
01070040003000000000000000000000000000000000000REP       Governor                                                OVER VOTES                            PRECINCT 109                                           01 
01070040004000000000000000000000000000000000000REP       Governor                                                OVER VOTES                            PRECINCT 115                                           01 
01070040005000000000000000000000000000000000000REP       Governor                                                OVER VOTES                            PRECINCT 117                                           01 
01070040006000000000000000000000000000000000000REP       Governor                                                OVER VOTES                            PRECINCT 121                                           01 
01070040007000000000000000000000000000000000000REP       Governor                                                OVER VOTES                            PRECINCT 202                                           01 
01070040008000000000000000000000000000000000000REP       Governor                                                OVER VOTES                            PRECINCT 203                                           01 
01070040009000000000000000000000000000000000000REP       Governor                                                OVER VOTES                            PRECINCT 205                                           01 
01070040010000000000000000000000000000000000000REP       Governor                                                OVER VOTES                            PRECINCT 208                                           01 
01070040011000000000000000000000000000000000000REP       Governor                                                OVER VOTES                            PRECINCT 307                                           01 
01070040012000000000000000000000000000000000000REP       Governor                                                OVER VOTES                            PRECINCT 311                                           01 
01070040013000000000000000000000000000000000000REP       Governor                                                OVER VOTES                            PRECINCT 312                                           01 
01070040014000000000000000000000000000000000000REP       Governor                                                OVER VOTES                            PRECINCT 316                                           01 
01070040015000000000000000000000000000000000000REP       Governor                                                OVER VOTES                            PRECINCT 320                                           01 
01070040016000000000000000000000000000000000000REP       Governor                                                OVER VOTES                            PRECINCT 406                                           01 
01070040017000000000000000000000000000000000000REP       Governor                                                OVER VOTES                            PRECINCT 410                                           01 
01070040018000000000000000000000000000000000000REP       Governor                                                OVER VOTES                            PRECINCT 413                                           01 
01070040019000000000000000000000000000000000000REP       Governor                                                OVER VOTES                            PRECINCT 414                                           01 
01070040020000000000000000000000000000000000000REP       Governor                                                OVER VOTES                            PRECINCT 418                                           01 
01070040021000000000000000000000000000000000000REP       Governor                                                OVER VOTES                            PRECINCT 419                                           01 
01070050001000006000003000003000000000000000000REP       Governor                                                UNDER VOTES                           PRECINCT 101                                           01 
01070050002000003000000000003000000000000000000REP       Governor                                                UNDER VOTES                           PRECINCT 104                                           01 
01070050003000008000004000004000000000000000000REP       Governor                                                UNDER VOTES                           PRECINCT 109                                           01 
01070050004000004000002000002000000000000000000REP       Governor                                                UNDER VOTES                           PRECINCT 115                                           01 
01070050005000000000000000000000000000000000000REP       Governor                                                UNDER VOTES                           PRECINCT 117                                           01 
01070050006000005000004000001000000000000000000REP       Governor                                                UNDER VOTES                           PRECINCT 121                                           01 
01070050007000000000000000000000000000000000000REP       Governor                                                UNDER VOTES                           PRECINCT 202                                           01 
01070050008000016000014000002000000000000000000REP       Governor                                                UNDER VOTES                           PRECINCT 203                                           01 
01070050009000043000028000015000000000000000000REP       Governor                                                UNDER VOTES                           PRECINCT 205                                           01 
01070050010000013000008000005000000000000000000REP       Governor                                                UNDER VOTES                           PRECINCT 208                                           01 
01070050011000008000005000003000000000000000000REP       Governor                                                UNDER VOTES                           PRECINCT 307                                           01 
01070050012000013000008000005000000000000000000REP       Governor                                                UNDER VOTES                           PRECINCT 311                                           01 
01070050013000006000005000001000000000000000000REP       Governor                                                UNDER VOTES                           PRECINCT 312                                           01 
01070050014000002000001000001000000000000000000REP       Governor                                                UNDER VOTES                           PRECINCT 316                                           01 
01070050015000017000012000005000000000000000000REP       Governor                                                UNDER VOTES                           PRECINCT 320                                           01 
01070050016000019000008000011000000000000000000REP       Governor                                                UNDER VOTES                           PRECINCT 406                                           01 
01070050017000006000000000006000000000000000000REP       Governor                                                UNDER VOTES                           PRECINCT 410                                           01 
01070050018000006000005000001000000000000000000REP       Governor                                                UNDER VOTES                           PRECINCT 413                                           01 
01070050019000007000004000003000000000000000000REP       Governor                                                UNDER VOTES                           PRECINCT 414                                           01 
01070050020000007000007000000000000000000000000REP       Governor                                                UNDER VOTES                           PRECINCT 418                                           01 
01070050021000005000005000000000000000000000000REP       Governor                                                UNDER VOTES                           PRECINCT 419                                           01 
01080010001000185000079000106000000000000000000REP       Lieutenant Governor                                     Dan Patrick                           PRECINCT 101                                           01 
01080010002000080000046000034000000000000000000REP       Lieutenant Governor                                     Dan Patrick                           PRECINCT 104                                           01 
01080010003000210000133000077000000000000000000REP       Lieutenant Governor                                     Dan Patrick                           PRECINCT 109                                           01 
01080010004000167000112000055000000000000000000REP       Lieutenant Governor                                     Dan Patrick                           PRECINCT 115                                           01 
01080010005000000000000000000000000000000000000REP       Lieutenant Governor                                     Dan Patrick                           PRECINCT 117                                           01 
01080010006000009000004000005000000000000000000REP       Lieutenant Governor                                     Dan Patrick                           PRECINCT 121                                           01 
01080010007000017000010000007000000000000000000REP       Lieutenant Governor                                     Dan Patrick                           PRECINCT 202                                           01 
01080010008000405000213000192000000000000000000REP       Lieutenant Governor                                     Dan Patrick                           PRECINCT 203                                           01 
01080010009000464000305000159000000000000000000REP       Lieutenant Governor                                     Dan Patrick                           PRECINCT 205                                           01 
01080010010000343000195000148000000000000000000REP       Lieutenant Governor                                     Dan Patrick                           PRECINCT 208                                           01 
01080010011000245000153000092000000000000000000REP       Lieutenant Governor                                     Dan Patrick                           PRECINCT 307                                           01 
01080010012000206000119000087000000000000000000REP       Lieutenant Governor                                     Dan Patrick                           PRECINCT 311                                           01 
01080010013000270000147000123000000000000000000REP       Lieutenant Governor                                     Dan Patrick                           PRECINCT 312                                           01 
01080010014000024000020000004000000000000000000REP       Lieutenant Governor                                     Dan Patrick                           PRECINCT 316                                           01 
01080010015000463000303000160000000000000000000REP       Lieutenant Governor                                     Dan Patrick                           PRECINCT 320                                           01 
01080010016000296000190000106000000000000000000REP       Lieutenant Governor                                     Dan Patrick                           PRECINCT 406                                           01 
01080010017000268000116000152000000000000000000REP       Lieutenant Governor                                     Dan Patrick                           PRECINCT 410                                           01 
01080010018000190000095000095000000000000000000REP       Lieutenant Governor                                     Dan Patrick                           PRECINCT 413                                           01 
01080010019000201000148000053000000000000000000REP       Lieutenant Governor                                     Dan Patrick                           PRECINCT 414                                           01 
01080010020000064000044000020000000000000000000REP       Lieutenant Governor                                     Dan Patrick                           PRECINCT 418                                           01 
01080010021000092000079000013000000000000000000REP       Lieutenant Governor                                     Dan Patrick                           PRECINCT 419                                           01 
01080020001000041000022000019000000000000000000REP       Lieutenant Governor                                     Scott Milder                          PRECINCT 101                                           01 
01080020002000026000014000012000000000000000000REP       Lieutenant Governor                                     Scott Milder                          PRECINCT 104                                           01 
01080020003000052000029000023000000000000000000REP       Lieutenant Governor                                     Scott Milder                          PRECINCT 109                                           01 
01080020004000046000029000017000000000000000000REP       Lieutenant Governor                                     Scott Milder                          PRECINCT 115                                           01 
01080020005000002000002000000000000000000000000REP       Lieutenant Governor                                     Scott Milder                          PRECINCT 117                                           01 
01080020006000007000004000003000000000000000000REP       Lieutenant Governor                                     Scott Milder                          PRECINCT 121                                           01 
01080020007000003000003000000000000000000000000REP       Lieutenant Governor                                     Scott Milder                          PRECINCT 202                                           01 
01080020008000076000048000028000000000000000000REP       Lieutenant Governor                                     Scott Milder                          PRECINCT 203                                           01 
01080020009000216000122000094000000000000000000REP       Lieutenant Governor                                     Scott Milder                          PRECINCT 205                                           01 
01080020010000132000090000042000000000000000000REP       Lieutenant Governor                                     Scott Milder                          PRECINCT 208                                           01 
01080020011000067000041000026000000000000000000REP       Lieutenant Governor                                     Scott Milder                          PRECINCT 307                                           01 
01080020012000052000032000020000000000000000000REP       Lieutenant Governor                                     Scott Milder                          PRECINCT 311                                           01 
01080020013000061000042000019000000000000000000REP       Lieutenant Governor                                     Scott Milder                          PRECINCT 312                                           01 
01080020014000006000005000001000000000000000000REP       Lieutenant Governor                                     Scott Milder                          PRECINCT 316                                           01 
01080020015000156000087000069000000000000000000REP       Lieutenant Governor                                     Scott Milder                          PRECINCT 320                                           01 
01080020016000090000060000030000000000000000000REP       Lieutenant Governor                                     Scott Milder                          PRECINCT 406                                           01 
01080020017000072000026000046000000000000000000REP       Lieutenant Governor                                     Scott Milder                          PRECINCT 410                                           01 
01080020018000066000035000031000000000000000000REP       Lieutenant Governor                                     Scott Milder                          PRECINCT 413                                           01 
01080020019000037000028000009000000000000000000REP       Lieutenant Governor                                     Scott Milder                          PRECINCT 414                                           01 
01080020020000027000023000004000000000000000000REP       Lieutenant Governor                                     Scott Milder                          PRECINCT 418                                           01 
01080020021000035000023000012000000000000000000REP       Lieutenant Governor                                     Scott Milder                          PRECINCT 419                                           01 
01080030001000000000000000000000000000000000000REP       Lieutenant Governor                                     OVER VOTES                            PRECINCT 101                                           01 
01080030002000000000000000000000000000000000000REP       Lieutenant Governor                                     OVER VOTES                            PRECINCT 104                                           01 
01080030003000000000000000000000000000000000000REP       Lieutenant Governor                                     OVER VOTES                            PRECINCT 109                                           01 
01080030004000000000000000000000000000000000000REP       Lieutenant Governor                                     OVER VOTES                            PRECINCT 115                                           01 
01080030005000000000000000000000000000000000000REP       Lieutenant Governor                                     OVER VOTES                            PRECINCT 117                                           01 
01080030006000000000000000000000000000000000000REP       Lieutenant Governor                                     OVER VOTES                            PRECINCT 121                                           01 
01080030007000000000000000000000000000000000000REP       Lieutenant Governor                                     OVER VOTES                            PRECINCT 202                                           01 
01080030008000000000000000000000000000000000000REP       Lieutenant Governor                                     OVER VOTES                            PRECINCT 203                                           01 
01080030009000000000000000000000000000000000000REP       Lieutenant Governor                                     OVER VOTES                            PRECINCT 205                                           01 
01080030010000000000000000000000000000000000000REP       Lieutenant Governor                                     OVER VOTES                            PRECINCT 208                                           01 
01080030011000000000000000000000000000000000000REP       Lieutenant Governor                                     OVER VOTES                            PRECINCT 307                                           01 
