00010010001000000000000000000000000000000000000000000000000000000000000000000000000000000000000000000          REGISTERED VOTERS - TOTAL                               REGISTERED VOTERS - TOTAL             Precinct 1                                             00 
00010010002000000000000000000000000000000000000000000000000000000000000000000000000000000000000000000          REGISTERED VOTERS - TOTAL                               REGISTERED VOTERS - TOTAL             Precinct 2                                             00 
00010010003000000000000000000000000000000000000000000000000000000000000000000000000000000000000000000          REGISTERED VOTERS - TOTAL                               REGISTERED VOTERS - TOTAL             Precinct 3                                             00 
00010010004000000000000000000000000000000000000000000000000000000000000000000000000000000000000000000          REGISTERED VOTERS - TOTAL                               REGISTERED VOTERS - TOTAL             Precinct 4                                             00 
00020010001000000000000000000000000000000000000000000000000000000000000000000000000000000000000000000REP       REGISTERED VOTERS - Republican Party                    REGISTERED VOTERS - Republican Party  Precinct 1                                             00 
00020010002000000000000000000000000000000000000000000000000000000000000000000000000000000000000000000REP       REGISTERED VOTERS - Republican Party                    REGISTERED VOTERS - Republican Party  Precinct 2                                             00 
00020010003000000000000000000000000000000000000000000000000000000000000000000000000000000000000000000REP       REGISTERED VOTERS - Republican Party                    REGISTERED VOTERS - Republican Party  Precinct 3                                             00 
00020010004000000000000000000000000000000000000000000000000000000000000000000000000000000000000000000REP       REGISTERED VOTERS - Republican Party                    REGISTERED VOTERS - Republican Party  Precinct 4                                             00 
00030010001000000000000000000000000000000000000000000000000000000000000000000000000000000000000000000DEM       REGISTERED VOTERS - Democratic Party                    REGISTERED VOTERS - Democratic Party  Precinct 1                                             00 
00030010002000000000000000000000000000000000000000000000000000000000000000000000000000000000000000000DEM       REGISTERED VOTERS - Democratic Party                    REGISTERED VOTERS - Democratic Party  Precinct 2                                             00 
00030010003000000000000000000000000000000000000000000000000000000000000000000000000000000000000000000DEM       REGISTERED VOTERS - Democratic Party                    REGISTERED VOTERS - Democratic Party  Precinct 3                                             00 
00030010004000000000000000000000000000000000000000000000000000000000000000000000000000000000000000000DEM       REGISTERED VOTERS - Democratic Party                    REGISTERED VOTERS - Democratic Party  Precinct 4                                             00 
00040010001000000000000000000000000000000000000000000000000000000000000000000000000000000000000000000NON       REGISTERED VOTERS - NONPARTISAN                         REGISTERED VOTERS - NONPARTISAN       Precinct 1                                             00 
00040010002000000000000000000000000000000000000000000000000000000000000000000000000000000000000000000NON       REGISTERED VOTERS - NONPARTISAN                         REGISTERED VOTERS - NONPARTISAN       Precinct 2                                             00 
00040010003000000000000000000000000000000000000000000000000000000000000000000000000000000000000000000NON       REGISTERED VOTERS - NONPARTISAN                         REGISTERED VOTERS - NONPARTISAN       Precinct 3                                             00 
00040010004000000000000000000000000000000000000000000000000000000000000000000000000000000000000000000NON       REGISTERED VOTERS - NONPARTISAN                         REGISTERED VOTERS - NONPARTISAN       Precinct 4                                             00 
00050010001000503000004000240000259000000000000000000000000000000000000000000000000000000000000000000          BALLOTS CAST - TOTAL                                    BALLOTS CAST - TOTAL                  Precinct 1                                             00 
00050010002000788000025000386000377000000000000000000000000000000000000000000000000000000000000000000          BALLOTS CAST - TOTAL                                    BALLOTS CAST - TOTAL                  Precinct 2                                             00 
00050010003000551000007000276000268000000000000000000000000000000000000000000000000000000000000000000          BALLOTS CAST - TOTAL                                    BALLOTS CAST - TOTAL                  Precinct 3                                             00 
00050010004000376000009000177000190000000000000000000000000000000000000000000000000000000000000000000          BALLOTS CAST - TOTAL                                    BALLOTS CAST - TOTAL                  Precinct 4                                             00 
00060010001000477000002000230000245000000000000000000000000000000000000000000000000000000000000000000REP       BALLOTS CAST - Republican Party                         BALLOTS CAST - Republican Party       Precinct 1                                             00 
00060010002000768000024000378000366000000000000000000000000000000000000000000000000000000000000000000REP       BALLOTS CAST - Republican Party                         BALLOTS CAST - Republican Party       Precinct 2                                             00 
00060010003000533000007000267000259000000000000000000000000000000000000000000000000000000000000000000REP       BALLOTS CAST - Republican Party                         BALLOTS CAST - Republican Party       Precinct 3                                             00 
00060010004000352000009000166000177000000000000000000000000000000000000000000000000000000000000000000REP       BALLOTS CAST - Republican Party                         BALLOTS CAST - Republican Party       Precinct 4                                             00 
00070010001000026000002000010000014000000000000000000000000000000000000000000000000000000000000000000DEM       BALLOTS CAST - Democratic Party                         BALLOTS CAST - Democratic Party       Precinct 1                                             00 
00070010002000020000001000008000011000000000000000000000000000000000000000000000000000000000000000000DEM       BALLOTS CAST - Democratic Party                         BALLOTS CAST - Democratic Party       Precinct 2                                             00 
00070010003000018000000000009000009000000000000000000000000000000000000000000000000000000000000000000DEM       BALLOTS CAST - Democratic Party                         BALLOTS CAST - Democratic Party       Precinct 3                                             00 
00070010004000024000000000011000013000000000000000000000000000000000000000000000000000000000000000000DEM       BALLOTS CAST - Democratic Party                         BALLOTS CAST - Democratic Party       Precinct 4                                             00 
00080010001000000000000000000000000000000000000000000000000000000000000000000000000000000000000000000NON       BALLOTS CAST - NONPARTISAN                              BALLOTS CAST - NONPARTISAN            Precinct 1                                             00 
00080010002000000000000000000000000000000000000000000000000000000000000000000000000000000000000000000NON       BALLOTS CAST - NONPARTISAN                              BALLOTS CAST - NONPARTISAN            Precinct 2                                             00 
00080010003000000000000000000000000000000000000000000000000000000000000000000000000000000000000000000NON       BALLOTS CAST - NONPARTISAN                              BALLOTS CAST - NONPARTISAN            Precinct 3                                             00 
00080010004000000000000000000000000000000000000000000000000000000000000000000000000000000000000000000NON       BALLOTS CAST - NONPARTISAN                              BALLOTS CAST - NONPARTISAN            Precinct 4                                             00 
00090010001000001000000000000000001000000000000000000000000000000000000000000000000000000000000000000          BALLOTS CAST - BLANK                                    BALLOTS CAST - BLANK                  Precinct 1                                             00 
00090010002000000000000000000000000000000000000000000000000000000000000000000000000000000000000000000          BALLOTS CAST - BLANK                                    BALLOTS CAST - BLANK                  Precinct 2                                             00 
00090010003000000000000000000000000000000000000000000000000000000000000000000000000000000000000000000          BALLOTS CAST - BLANK                                    BALLOTS CAST - BLANK                  Precinct 3                                             00 
00090010004000000000000000000000000000000000000000000000000000000000000000000000000000000000000000000          BALLOTS CAST - BLANK                                    BALLOTS CAST - BLANK                  Precinct 4                                             00 
00100010001000355000001000170000184000000000000000000000000000000000000000000000000000000000000000000REP       REP US Representative, District 19                      Jodey C. Arrington                    Precinct 1                                             01 
00100010002000595000023000298000274000000000000000000000000000000000000000000000000000000000000000000REP       REP US Representative, District 19                      Jodey C. Arrington                    Precinct 2                                             01 
00100010003000408000006000207000195000000000000000000000000000000000000000000000000000000000000000000REP       REP US Representative, District 19                      Jodey C. Arrington                    Precinct 3                                             01 
00100010004000237000005000109000123000000000000000000000000000000000000000000000000000000000000000000REP       REP US Representative, District 19                      Jodey C. Arrington                    Precinct 4                                             01 
00110010001000029000000000012000017000000000000000000000000000000000000000000000000000000000000000000REP       REP Governor                                            Rick Perry                            Precinct 1                                             01 
00110010002000037000002000020000015000000000000000000000000000000000000000000000000000000000000000000REP       REP Governor                                            Rick Perry                            Precinct 2                                             01 
00110010003000029000000000014000015000000000000000000000000000000000000000000000000000000000000000000REP       REP Governor                                            Rick Perry                            Precinct 3                                             01 
00110010004000018000000000008000010000000000000000000000000000000000000000000000000000000000000000000REP       REP Governor                                            Rick Perry                            Precinct 4                                             01 
00110020001000043000000000019000024000000000000000000000000000000000000000000000000000000000000000000REP       REP Governor                                            Chad Prather                          Precinct 1                                             01 
00110020002000050000001000029000020000000000000000000000000000000000000000000000000000000000000000000REP       REP Governor                                            Chad Prather                          Precinct 2                                             01 
00110020003000037000000000011000026000000000000000000000000000000000000000000000000000000000000000000REP       REP Governor                                            Chad Prather                          Precinct 3                                             01 
00110020004000025000000000006000019000000000000000000000000000000000000000000000000000000000000000000REP       REP Governor                                            Chad Prather                          Precinct 4                                             01 
00110030001000002000000000000000002000000000000000000000000000000000000000000000000000000000000000000REP       REP Governor                                            Paul Belew                            Precinct 1                                             01 
00110030002000000000000000000000000000000000000000000000000000000000000000000000000000000000000000000REP       REP Governor                                            Paul Belew                            Precinct 2                                             01 
00110030003000001000000000000000001000000000000000000000000000000000000000000000000000000000000000000REP       REP Governor                                            Paul Belew                            Precinct 3                                             01 
00110030004000001000000000000000001000000000000000000000000000000000000000000000000000000000000000000REP       REP Governor                                            Paul Belew                            Precinct 4                                             01 
00110040001000008000000000003000005000000000000000000000000000000000000000000000000000000000000000000REP       REP Governor                                            Kandy Kaye Horn                       Precinct 1                                             01 
00110040002000010000000000007000003000000000000000000000000000000000000000000000000000000000000000000REP       REP Governor                                            Kandy Kaye Horn                       Precinct 2                                             01 
00110040003000003000000000001000002000000000000000000000000000000000000000000000000000000000000000000REP       REP Governor                                            Kandy Kaye Horn                       Precinct 3                                             01 
00110040004000003000000000002000001000000000000000000000000000000000000000000000000000000000000000000REP       REP Governor                                            Kandy Kaye Horn                       Precinct 4                                             01 
00110050001000002000000000002000000000000000000000000000000000000000000000000000000000000000000000000REP       REP Governor                                            Danny Harrison                        Precinct 1                                             01 
00110050002000001000000000000000001000000000000000000000000000000000000000000000000000000000000000000REP       REP Governor                                            Danny Harrison                        Precinct 2                                             01 
00110050003000004000001000001000002000000000000000000000000000000000000000000000000000000000000000000REP       REP Governor                                            Danny Harrison                        Precinct 3                                             01 
00110050004000003000000000002000001000000000000000000000000000000000000000000000000000000000000000000REP       REP Governor                                            Danny Harrison                        Precinct 4                                             01 
00110060001000041000000000022000019000000000000000000000000000000000000000000000000000000000000000000REP       REP Governor                                            Don Huffines                          Precinct 1                                             01 
00110060002000065000003000028000034000000000000000000000000000000000000000000000000000000000000000000REP       REP Governor                                            Don Huffines                          Precinct 2                                             01 
00110060003000052000000000033000019000000000000000000000000000000000000000000000000000000000000000000REP       REP Governor                                            Don Huffines                          Precinct 3                                             01 
00110060004000033000000000017000016000000000000000000000000000000000000000000000000000000000000000000REP       REP Governor                                            Don Huffines                          Precinct 4                                             01 
00110070001000298000002000149000147000000000000000000000000000000000000000000000000000000000000000000REP       REP Governor                                            Greg Abbott                           Precinct 1                                             01 
00110070002000496000017000236000243000000000000000000000000000000000000000000000000000000000000000000REP       REP Governor                                            Greg Abbott                           Precinct 2                                             01 
00110070003000331000004000173000154000000000000000000000000000000000000000000000000000000000000000000REP       REP Governor                                            Greg Abbott                           Precinct 3                                             01 
00110070004000233000008000112000113000000000000000000000000000000000000000000000000000000000000000000REP       REP Governor                                            Greg Abbott                           Precinct 4                                             01 
00110080001000044000000000021000023000000000000000000000000000000000000000000000000000000000000000000REP       REP Governor                                            Allen B. West                         Precinct 1                                             01 
00110080002000089000001000049000039000000000000000000000000000000000000000000000000000000000000000000REP       REP Governor                                            Allen B. West                         Precinct 2                                             01 
00110080003000063000002000029000032000000000000000000000000000000000000000000000000000000000000000000REP       REP Governor                                            Allen B. West                         Precinct 3                                             01 
00110080004000022000001000012000009000000000000000000000000000000000000000000000000000000000000000000REP       REP Governor                                            Allen B. West                         Precinct 4                                             01 
00120010001000033000000000013000020000000000000000000000000000000000000000000000000000000000000000000REP       REP Lieutenant Governor                                 Daniel Miller                         Precinct 1                                             01 
00120010002000044000001000018000025000000000000000000000000000000000000000000000000000000000000000000REP       REP Lieutenant Governor                                 Daniel Miller                         Precinct 2                                             01 
00120010003000036000000000016000020000000000000000000000000000000000000000000000000000000000000000000REP       REP Lieutenant Governor                                 Daniel Miller                         Precinct 3                                             01 
00120010004000032000001000014000017000000000000000000000000000000000000000000000000000000000000000000REP       REP Lieutenant Governor                                 Daniel Miller                         Precinct 4                                             01 
00120020001000020000000000006000014000000000000000000000000000000000000000000000000000000000000000000REP       REP Lieutenant Governor                                 Aaron Sorrells                        Precinct 1                                             01 
00120020002000030000001000015000014000000000000000000000000000000000000000000000000000000000000000000REP       REP Lieutenant Governor                                 Aaron Sorrells                        Precinct 2                                             01 
00120020003000022000000000010000012000000000000000000000000000000000000000000000000000000000000000000REP       REP Lieutenant Governor                                 Aaron Sorrells                        Precinct 3                                             01 
00120020004000018000000000011000007000000000000000000000000000000000000000000000000000000000000000000REP       REP Lieutenant Governor                                 Aaron Sorrells                        Precinct 4                                             01 
00120030001000010000000000003000007000000000000000000000000000000000000000000000000000000000000000000REP       REP Lieutenant Governor                                 Todd M. Bullis                        Precinct 1                                             01 
00120030002000025000000000011000014000000000000000000000000000000000000000000000000000000000000000000REP       REP Lieutenant Governor                                 Todd M. Bullis                        Precinct 2                                             01 
00120030003000006000000000003000003000000000000000000000000000000000000000000000000000000000000000000REP       REP Lieutenant Governor                                 Todd M. Bullis                        Precinct 3                                             01 
00120030004000009000000000002000007000000000000000000000000000000000000000000000000000000000000000000REP       REP Lieutenant Governor                                 Todd M. Bullis                        Precinct 4                                             01 
00120040001000035000000000020000015000000000000000000000000000000000000000000000000000000000000000000REP       REP Lieutenant Governor                                 Trayce Bradford                       Precinct 1                                             01 
00120040002000050000000000028000022000000000000000000000000000000000000000000000000000000000000000000REP       REP Lieutenant Governor                                 Trayce Bradford                       Precinct 2                                             01 
00120040003000036000003000016000017000000000000000000000000000000000000000000000000000000000000000000REP       REP Lieutenant Governor                                 Trayce Bradford                       Precinct 3                                             01 
00120040004000019000000000007000012000000000000000000000000000000000000000000000000000000000000000000REP       REP Lieutenant Governor                                 Trayce Bradford                       Precinct 4                                             01 
00120050001000018000000000009000009000000000000000000000000000000000000000000000000000000000000000000REP       REP Lieutenant Governor                                 Zach Vance                            Precinct 1                                             01 
00120050002000028000000000015000013000000000000000000000000000000000000000000000000000000000000000000REP       REP Lieutenant Governor                                 Zach Vance                            Precinct 2                                             01 
00120050003000017000000000009000008000000000000000000000000000000000000000000000000000000000000000000REP       REP Lieutenant Governor                                 Zach Vance                            Precinct 3                                             01 
00120050004000014000000000003000011000000000000000000000000000000000000000000000000000000000000000000REP       REP Lieutenant Governor                                 Zach Vance                            Precinct 4                                             01 
00120060001000300000002000155000143000000000000000000000000000000000000000000000000000000000000000000REP       REP Lieutenant Governor                                 Dan Patrick                           Precinct 1                                             01 
00120060002000502000021000255000226000000000000000000000000000000000000000000000000000000000000000000REP       REP Lieutenant Governor                                 Dan Patrick                           Precinct 2                                             01 
00120060003000354000004000194000156000000000000000000000000000000000000000000000000000000000000000000REP       REP Lieutenant Governor                                 Dan Patrick                           Precinct 3                                             01 
00120060004000195000006000098000091000000000000000000000000000000000000000000000000000000000000000000REP       REP Lieutenant Governor                                 Dan Patrick                           Precinct 4                                             01 
00130010001000044000000000016000028000000000000000000000000000000000000000000000000000000000000000000REP       REP Attorney General                                    Louie Gohmert                         Precinct 1                                             01 
00130010002000074000005000038000031000000000000000000000000000000000000000000000000000000000000000000REP       REP Attorney General                                    Louie Gohmert                         Precinct 2                                             01 
00130010003000055000001000030000024000000000000000000000000000000000000000000000000000000000000000000REP       REP Attorney General                                    Louie Gohmert                         Precinct 3                                             01 
00130010004000027000001000011000015000000000000000000000000000000000000000000000000000000000000000000REP       REP Attorney General                                    Louie Gohmert                         Precinct 4                                             01 
00130020001000240000001000124000115000000000000000000000000000000000000000000000000000000000000000000REP       REP Attorney General                                    Ken Paxton                            Precinct 1                                             01 
00130020002000365000010000194000161000000000000000000000000000000000000000000000000000000000000000000REP       REP Attorney General                                    Ken Paxton                            Precinct 2                                             01 
00130020003000269000003000145000121000000000000000000000000000000000000000000000000000000000000000000REP       REP Attorney General                                    Ken Paxton                            Precinct 3                                             01 
00130020004000167000006000082000079000000000000000000000000000000000000000000000000000000000000000000REP       REP Attorney General                                    Ken Paxton                            Precinct 4                                             01 
00130030001000098000000000044000054000000000000000000000000000000000000000000000000000000000000000000REP       REP Attorney General                                    George P. Bush                        Precinct 1                                             01 
00130030002000157000001000069000087000000000000000000000000000000000000000000000000000000000000000000REP       REP Attorney General                                    George P. Bush                        Precinct 2                                             01 
00130030003000087000000000035000052000000000000000000000000000000000000000000000000000000000000000000REP       REP Attorney General                                    George P. Bush                        Precinct 3                                             01 
00130030004000074000001000029000044000000000000000000000000000000000000000000000000000000000000000000REP       REP Attorney General                                    George P. Bush                        Precinct 4                                             01 
00130040001000063000001000034000028000000000000000000000000000000000000000000000000000000000000000000REP       REP Attorney General                                    Eva Guzman                            Precinct 1                                             01 
00130040002000123000008000058000057000000000000000000000000000000000000000000000000000000000000000000REP       REP Attorney General                                    Eva Guzman                            Precinct 2                                             01 
00130040003000087000003000043000041000000000000000000000000000000000000000000000000000000000000000000REP       REP Attorney General                                    Eva Guzman                            Precinct 3                                             01 
00130040004000056000001000028000027000000000000000000000000000000000000000000000000000000000000000000REP       REP Attorney General                                    Eva Guzman                            Precinct 4                                             01 
00140010001000317000002000154000161000000000000000000000000000000000000000000000000000000000000000000REP       REP Comptroller of Public Accounts                      Glenn Hegar                           Precinct 1                                             01 
00140010002000519000016000272000231000000000000000000000000000000000000000000000000000000000000000000REP       REP Comptroller of Public Accounts                      Glenn Hegar                           Precinct 2                                             01 
00140010003000370000005000198000167000000000000000000000000000000000000000000000000000000000000000000REP       REP Comptroller of Public Accounts                      Glenn Hegar                           Precinct 3                                             01 
00140010004000215000004000101000110000000000000000000000000000000000000000000000000000000000000000000REP       REP Comptroller of Public Accounts                      Glenn Hegar                           Precinct 4                                             01 
00140020001000057000000000032000025000000000000000000000000000000000000000000000000000000000000000000REP       REP Comptroller of Public Accounts                      Mark V. Goloby                        Precinct 1                                             01 
00140020002000077000003000036000038000000000000000000000000000000000000000000000000000000000000000000REP       REP Comptroller of Public Accounts                      Mark V. Goloby                        Precinct 2                                             01 
00140020003000045000000000016000029000000000000000000000000000000000000000000000000000000000000000000REP       REP Comptroller of Public Accounts                      Mark V. Goloby                        Precinct 3                                             01 
00140020004000043000002000017000024000000000000000000000000000000000000000000000000000000000000000000REP       REP Comptroller of Public Accounts                      Mark V. Goloby                        Precinct 4                                             01 
00150010001000079000000000034000045000000000000000000000000000000000000000000000000000000000000000000REP       REP Comm General Land Office                            Jon Spiers                            Precinct 1                                             01 
00150010002000131000004000065000062000000000000000000000000000000000000000000000000000000000000000000REP       REP Comm General Land Office                            Jon Spiers                            Precinct 2                                             01 
00150010003000111000000000060000051000000000000000000000000000000000000000000000000000000000000000000REP       REP Comm General Land Office                            Jon Spiers                            Precinct 3                                             01 
00150010004000052000003000022000027000000000000000000000000000000000000000000000000000000000000000000REP       REP Comm General Land Office                            Jon Spiers                            Precinct 4                                             01 
00150020001000020000000000009000011000000000000000000000000000000000000000000000000000000000000000000REP       REP Comm General Land Office                            Rufus Lopez                           Precinct 1                                             01 
00150020002000033000000000012000021000000000000000000000000000000000000000000000000000000000000000000REP       REP Comm General Land Office                            Rufus Lopez                           Precinct 2                                             01 
00150020003000022000000000006000016000000000000000000000000000000000000000000000000000000000000000000REP       REP Comm General Land Office                            Rufus Lopez                           Precinct 3                                             01 
00150020004000011000000000003000008000000000000000000000000000000000000000000000000000000000000000000REP       REP Comm General Land Office                            Rufus Lopez                           Precinct 4                                             01 
00150030001000101000000000062000039000000000000000000000000000000000000000000000000000000000000000000REP       REP Comm General Land Office                            Dawn Buckingham                       Precinct 1                                             01 
00150030002000170000011000096000063000000000000000000000000000000000000000000000000000000000000000000REP       REP Comm General Land Office                            Dawn Buckingham                       Precinct 2                                             01 
00150030003000122000003000075000044000000000000000000000000000000000000000000000000000000000000000000REP       REP Comm General Land Office                            Dawn Buckingham                       Precinct 3                                             01 
00150030004000090000003000046000041000000000000000000000000000000000000000000000000000000000000000000REP       REP Comm General Land Office                            Dawn Buckingham                       Precinct 4                                             01 
00150040001000036000000000024000012000000000000000000000000000000000000000000000000000000000000000000REP       REP Comm General Land Office                            Don W. Minton                         Precinct 1                                             01 
00150040002000049000002000027000020000000000000000000000000000000000000000000000000000000000000000000REP       REP Comm General Land Office                            Don W. Minton                         Precinct 2                                             01 
00150040003000034000004000017000013000000000000000000000000000000000000000000000000000000000000000000REP       REP Comm General Land Office                            Don W. Minton                         Precinct 3                                             01 
00150040004000022000000000013000009000000000000000000000000000000000000000000000000000000000000000000REP       REP Comm General Land Office                            Don W. Minton                         Precinct 4                                             01 
00150050001000015000000000007000008000000000000000000000000000000000000000000000000000000000000000000REP       REP Comm General Land Office                            Weston Martinez                       Precinct 1                                             01 
00150050002000030000000000016000014000000000000000000000000000000000000000000000000000000000000000000REP       REP Comm General Land Office                            Weston Martinez                       Precinct 2                                             01 
00150050003000013000000000003000010000000000000000000000000000000000000000000000000000000000000000000REP       REP Comm General Land Office                            Weston Martinez                       Precinct 3                                             01 
00150050004000015000000000004000011000000000000000000000000000000000000000000000000000000000000000000REP       REP Comm General Land Office                            Weston Martinez                       Precinct 4                                             01 
00150060001000028000001000013000014000000000000000000000000000000000000000000000000000000000000000000REP       REP Comm General Land Office                            Victor Avila                          Precinct 1                                             01 
00150060002000045000000000023000022000000000000000000000000000000000000000000000000000000000000000000REP       REP Comm General Land Office                            Victor Avila                          Precinct 2                                             01 
00150060003000032000000000012000020000000000000000000000000000000000000000000000000000000000000000000REP       REP Comm General Land Office                            Victor Avila                          Precinct 3                                             01 
00150060004000024000001000004000019000000000000000000000000000000000000000000000000000000000000000000REP       REP Comm General Land Office                            Victor Avila                          Precinct 4                                             01 
00150070001000082000000000031000051000000000000000000000000000000000000000000000000000000000000000000REP       REP Comm General Land Office                            Tim Westley                           Precinct 1                                             01 
00150070002000111000002000057000052000000000000000000000000000000000000000000000000000000000000000000REP       REP Comm General Land Office                            Tim Westley                           Precinct 2                                             01 
00150070003000065000000000035000030000000000000000000000000000000000000000000000000000000000000000000REP       REP Comm General Land Office                            Tim Westley                           Precinct 3                                             01 
00150070004000037000000000021000016000000000000000000000000000000000000000000000000000000000000000000REP       REP Comm General Land Office                            Tim Westley                           Precinct 4                                             01 
00150080001000008000000000005000003000000000000000000000000000000000000000000000000000000000000000000REP       REP Comm General Land Office                            Ben Armenta                           Precinct 1                                             01 
00150080002000009000000000002000007000000000000000000000000000000000000000000000000000000000000000000REP       REP Comm General Land Office                            Ben Armenta                           Precinct 2                                             01 
00150080003000008000000000004000004000000000000000000000000000000000000000000000000000000000000000000REP       REP Comm General Land Office                            Ben Armenta                           Precinct 3                                             01 
00150080004000004000000000002000002000000000000000000000000000000000000000000000000000000000000000000REP       REP Comm General Land Office                            Ben Armenta                           Precinct 4                                             01 
00160010001000066000000000026000040000000000000000000000000000000000000000000000000000000000000000000REP       REP Commissioner of Agriculture                         Carey A. Counsil                      Precinct 1                                             01 
00160010002000072000000000033000039000000000000000000000000000000000000000000000000000000000000000000REP       REP Commissioner of Agriculture                         Carey A. Counsil                      Precinct 2                                             01 
00160010003000069000000000032000037000000000000000000000000000000000000000000000000000000000000000000REP       REP Commissioner of Agriculture                         Carey A. Counsil                      Precinct 3                                             01 
00160010004000039000000000016000023000000000000000000000000000000000000000000000000000000000000000000REP       REP Commissioner of Agriculture                         Carey A. Counsil                      Precinct 4                                             01 
00160020001000248000002000133000113000000000000000000000000000000000000000000000000000000000000000000REP       REP Commissioner of Agriculture                         Sid Miller                            Precinct 1                                             01 
00160020002000383000019000196000168000000000000000000000000000000000000000000000000000000000000000000REP       REP Commissioner of Agriculture                         Sid Miller                            Precinct 2                                             01 
00160020003000262000004000130000128000000000000000000000000000000000000000000000000000000000000000000REP       REP Commissioner of Agriculture                         Sid Miller                            Precinct 3                                             01 
00160020004000153000006000073000074000000000000000000000000000000000000000000000000000000000000000000REP       REP Commissioner of Agriculture                         Sid Miller                            Precinct 4                                             01 
00160030001000086000000000043000043000000000000000000000000000000000000000000000000000000000000000000REP       REP Commissioner of Agriculture                         James White                           Precinct 1                                             01 
00160030002000154000005000083000066000000000000000000000000000000000000000000000000000000000000000000REP       REP Commissioner of Agriculture                         James White                           Precinct 2                                             01 
00160030003000102000003000059000040000000000000000000000000000000000000000000000000000000000000000000REP       REP Commissioner of Agriculture                         James White                           Precinct 3                                             01 
00160030004000070000001000032000037000000000000000000000000000000000000000000000000000000000000000000REP       REP Commissioner of Agriculture                         James White                           Precinct 4                                             01 
00170010001000101000000000045000056000000000000000000000000000000000000000000000000000000000000000000REP       REP Railroad Commissioner                               Sarah Stogner                         Precinct 1                                             01 
00170010002000137000000000072000065000000000000000000000000000000000000000000000000000000000000000000REP       REP Railroad Commissioner                               Sarah Stogner                         Precinct 2                                             01 
00170010003000108000000000055000053000000000000000000000000000000000000000000000000000000000000000000REP       REP Railroad Commissioner                               Sarah Stogner                         Precinct 3                                             01 
00170010004000073000000000029000044000000000000000000000000000000000000000000000000000000000000000000REP       REP Railroad Commissioner                               Sarah Stogner                         Precinct 4                                             01 
00170020001000143000001000076000066000000000000000000000000000000000000000000000000000000000000000000REP       REP Railroad Commissioner                               Wayne Christian                       Precinct 1                                             01 
00170020002000227000012000127000088000000000000000000000000000000000000000000000000000000000000000000REP       REP Railroad Commissioner                               Wayne Christian                       Precinct 2                                             01 
00170020003000166000007000094000065000000000000000000000000000000000000000000000000000000000000000000REP       REP Railroad Commissioner                               Wayne Christian                       Precinct 3                                             01 
00170020004000084000004000042000038000000000000000000000000000000000000000000000000000000000000000000REP       REP Railroad Commissioner                               Wayne Christian                       Precinct 4                                             01 
00170030001000062000000000031000031000000000000000000000000000000000000000000000000000000000000000000REP       REP Railroad Commissioner                               Dawayne Tipton                        Precinct 1                                             01 
00170030002000076000002000038000036000000000000000000000000000000000000000000000000000000000000000000REP       REP Railroad Commissioner                               Dawayne Tipton                        Precinct 2                                             01 
00170030003000047000000000014000033000000000000000000000000000000000000000000000000000000000000000000REP       REP Railroad Commissioner                               Dawayne Tipton                        Precinct 3                                             01 
00170030004000043000000000023000020000000000000000000000000000000000000000000000000000000000000000000REP       REP Railroad Commissioner                               Dawayne Tipton                        Precinct 4                                             01 
00170040001000048000000000023000025000000000000000000000000000000000000000000000000000000000000000000REP       REP Railroad Commissioner                               Marvin "Sarge" Summers                Precinct 1                                             01 
00170040002000062000000000031000031000000000000000000000000000000000000000000000000000000000000000000REP       REP Railroad Commissioner                               Marvin "Sarge" Summers                Precinct 2                                             01 
00170040003000058000000000021000037000000000000000000000000000000000000000000000000000000000000000000REP       REP Railroad Commissioner                               Marvin "Sarge" Summers                Precinct 3                                             01 
00170040004000026000002000009000015000000000000000000000000000000000000000000000000000000000000000000REP       REP Railroad Commissioner                               Marvin "Sarge" Summers                Precinct 4                                             01 
00170050001000037000001000022000014000000000000000000000000000000000000000000000000000000000000000000REP       REP Railroad Commissioner                               Tom Slocum Jr                         Precinct 1                                             01 
00170050002000091000005000034000052000000000000000000000000000000000000000000000000000000000000000000REP       REP Railroad Commissioner                               Tom Slocum Jr                         Precinct 2                                             01 
00170050003000050000000000032000018000000000000000000000000000000000000000000000000000000000000000000REP       REP Railroad Commissioner                               Tom Slocum Jr                         Precinct 3                                             01 
00170050004000037000000000013000024000000000000000000000000000000000000000000000000000000000000000000REP       REP Railroad Commissioner                               Tom Slocum Jr                         Precinct 4                                             01 
00180010001000352000001000175000176000000000000000000000000000000000000000000000000000000000000000000REP       REP Justice, Supreme Court, Pl 3                        Debra Lehrmann                        Precinct 1                                             01 
00180010002000569000018000280000271000000000000000000000000000000000000000000000000000000000000000000REP       REP Justice, Supreme Court, Pl 3                        Debra Lehrmann                        Precinct 2                                             01 
00180010003000382000007000192000183000000000000000000000000000000000000000000000000000000000000000000REP       REP Justice, Supreme Court, Pl 3                        Debra Lehrmann                        Precinct 3                                             01 
00180010004000246000006000106000134000000000000000000000000000000000000000000000000000000000000000000REP       REP Justice, Supreme Court, Pl 3                        Debra Lehrmann                        Precinct 4                                             01 
00190010001000355000001000177000177000000000000000000000000000000000000000000000000000000000000000000REP       REP Justice, Supreme Court, Pl 5                        Rebeca Huddle                         Precinct 1                                             01 
00190010002000563000018000276000269000000000000000000000000000000000000000000000000000000000000000000REP       REP Justice, Supreme Court, Pl 5                        Rebeca Huddle                         Precinct 2                                             01 
00190010003000379000007000188000184000000000000000000000000000000000000000000000000000000000000000000REP       REP Justice, Supreme Court, Pl 5                        Rebeca Huddle                         Precinct 3                                             01 
00190010004000242000006000107000129000000000000000000000000000000000000000000000000000000000000000000REP       REP Justice, Supreme Court, Pl 5                        Rebeca Huddle                         Precinct 4                                             01 
00200010001000161000000000085000076000000000000000000000000000000000000000000000000000000000000000000REP       REP Justice, Supreme Court, Pl 9                        David J. Schenck                      Precinct 1                                             01 
00200010002000257000011000130000116000000000000000000000000000000000000000000000000000000000000000000REP       REP Justice, Supreme Court, Pl 9                        David J. Schenck                      Precinct 2                                             01 
00200010003000181000005000092000084000000000000000000000000000000000000000000000000000000000000000000REP       REP Justice, Supreme Court, Pl 9                        David J. Schenck                      Precinct 3                                             01 
00200010004000117000002000053000062000000000000000000000000000000000000000000000000000000000000000000REP       REP Justice, Supreme Court, Pl 9                        David J. Schenck                      Precinct 4                                             01 
00200020001000195000001000094000100000000000000000000000000000000000000000000000000000000000000000000REP       REP Justice, Supreme Court, Pl 9                        Evan Young                            Precinct 1                                             01 
00200020002000281000006000147000128000000000000000000000000000000000000000000000000000000000000000000REP       REP Justice, Supreme Court, Pl 9                        Evan Young                            Precinct 2                                             01 
00200020003000195000000000096000099000000000000000000000000000000000000000000000000000000000000000000REP       REP Justice, Supreme Court, Pl 9                        Evan Young                            Precinct 3                                             01 
00200020004000127000002000053000072000000000000000000000000000000000000000000000000000000000000000000REP       REP Justice, Supreme Court, Pl 9                        Evan Young                            Precinct 4                                             01 
00210010001000333000000000165000168000000000000000000000000000000000000000000000000000000000000000000REP       REP Judge, Ct of Crim App, Pl 2                         Mary Lou Keel                         Precinct 1                                             01 
00210010002000501000018000245000238000000000000000000000000000000000000000000000000000000000000000000REP       REP Judge, Ct of Crim App, Pl 2                         Mary Lou Keel                         Precinct 2                                             01 
00210010003000350000007000172000171000000000000000000000000000000000000000000000000000000000000000000REP       REP Judge, Ct of Crim App, Pl 2                         Mary Lou Keel                         Precinct 3                                             01 
00210010004000226000006000100000120000000000000000000000000000000000000000000000000000000000000000000REP       REP Judge, Ct of Crim App, Pl 2                         Mary Lou Keel                         Precinct 4                                             01 
00220010001000232000001000115000116000000000000000000000000000000000000000000000000000000000000000000REP       REP Judge, Ct of Crim App, Pl 5                         Scott Walker                          Precinct 1                                             01 
00220010002000349000013000182000154000000000000000000000000000000000000000000000000000000000000000000REP       REP Judge, Ct of Crim App, Pl 5                         Scott Walker                          Precinct 2                                             01 
00220010003000248000001000124000123000000000000000000000000000000000000000000000000000000000000000000REP       REP Judge, Ct of Crim App, Pl 5                         Scott Walker                          Precinct 3                                             01 
00220010004000155000003000073000079000000000000000000000000000000000000000000000000000000000000000000REP       REP Judge, Ct of Crim App, Pl 5                         Scott Walker                          Precinct 4                                             01 
00220020001000129000001000064000064000000000000000000000000000000000000000000000000000000000000000000REP       REP Judge, Ct of Crim App, Pl 5                         Clint Morgan                          Precinct 1                                             01 
00220020002000197000008000096000093000000000000000000000000000000000000000000000000000000000000000000REP       REP Judge, Ct of Crim App, Pl 5                         Clint Morgan                          Precinct 2                                             01 
00220020003000142000006000077000059000000000000000000000000000000000000000000000000000000000000000000REP       REP Judge, Ct of Crim App, Pl 5                         Clint Morgan                          Precinct 3                                             01 
00220020004000090000003000038000049000000000000000000000000000000000000000000000000000000000000000000REP       REP Judge, Ct of Crim App, Pl 5                         Clint Morgan                          Precinct 4                                             01 
00230010001000337000001000166000170000000000000000000000000000000000000000000000000000000000000000000REP       REP Judge, Ct of Crim App, Pl 6                         Jesse F. McClure, III                 Precinct 1                                             01 
00230010002000525000017000256000252000000000000000000000000000000000000000000000000000000000000000000REP       REP Judge, Ct of Crim App, Pl 6                         Jesse F. McClure, III                 Precinct 2                                             01 
00230010003000362000007000182000173000000000000000000000000000000000000000000000000000000000000000000REP       REP Judge, Ct of Crim App, Pl 6                         Jesse F. McClure, III                 Precinct 3                                             01 
00230010004000221000007000096000118000000000000000000000000000000000000000000000000000000000000000000REP       REP Judge, Ct of Crim App, Pl 6                         Jesse F. McClure, III                 Precinct 4                                             01 
00240010001000227000000000110000117000000000000000000000000000000000000000000000000000000000000000000REP       REP Member, State BoE, Dist 15                          Jay Johnson                           Precinct 1                                             01 
00240010002000313000009000168000136000000000000000000000000000000000000000000000000000000000000000000REP       REP Member, State BoE, Dist 15                          Jay Johnson                           Precinct 2                                             01 
00240010003000233000001000135000097000000000000000000000000000000000000000000000000000000000000000000REP       REP Member, State BoE, Dist 15                          Jay Johnson                           Precinct 3                                             01 
00240010004000124000002000060000062000000000000000000000000000000000000000000000000000000000000000000REP       REP Member, State BoE, Dist 15                          Jay Johnson                           Precinct 4                                             01 
00240020001000134000001000074000059000000000000000000000000000000000000000000000000000000000000000000REP       REP Member, State BoE, Dist 15                          Aaron Kinsey                          Precinct 1                                             01 
00240020002000254000012000117000125000000000000000000000000000000000000000000000000000000000000000000REP       REP Member, State BoE, Dist 15                          Aaron Kinsey                          Precinct 2                                             01 
00240020003000161000004000064000093000000000000000000000000000000000000000000000000000000000000000000REP       REP Member, State BoE, Dist 15                          Aaron Kinsey                          Precinct 3                                             01 
00240020004000121000003000045000073000000000000000000000000000000000000000000000000000000000000000000REP       REP Member, State BoE, Dist 15                          Aaron Kinsey                          Precinct 4                                             01 
00250010001000088000000000038000050000000000000000000000000000000000000000000000000000000000000000000REP       REP State Senator, Dist 31                              Stormy Bradley                        Precinct 1                                             01 
00250010002000109000003000048000058000000000000000000000000000000000000000000000000000000000000000000REP       REP State Senator, Dist 31                              Stormy Bradley                        Precinct 2                                             01 
00250010003000100000003000051000046000000000000000000000000000000000000000000000000000000000000000000REP       REP State Senator, Dist 31                              Stormy Bradley                        Precinct 3                                             01 
00250010004000070000002000034000034000000000000000000000000000000000000000000000000000000000000000000REP       REP State Senator, Dist 31                              Stormy Bradley                        Precinct 4                                             01 
00250020001000252000002000133000117000000000000000000000000000000000000000000000000000000000000000000REP       REP State Senator, Dist 31                              Kevin Sparks                          Precinct 1                                             01 
00250020002000438000018000233000187000000000000000000000000000000000000000000000000000000000000000000REP       REP State Senator, Dist 31                              Kevin Sparks                          Precinct 2                                             01 
00250020003000285000004000154000127000000000000000000000000000000000000000000000000000000000000000000REP       REP State Senator, Dist 31                              Kevin Sparks                          Precinct 3                                             01 
00250020004000172000007000081000084000000000000000000000000000000000000000000000000000000000000000000REP       REP State Senator, Dist 31                              Kevin Sparks                          Precinct 4                                             01 
00250030001000052000000000021000031000000000000000000000000000000000000000000000000000000000000000000REP       REP State Senator, Dist 31                              Tim Reid                              Precinct 1                                             01 
00250030002000099000003000040000056000000000000000000000000000000000000000000000000000000000000000000REP       REP State Senator, Dist 31                              Tim Reid                              Precinct 2                                             01 
00250030003000058000000000024000034000000000000000000000000000000000000000000000000000000000000000000REP       REP State Senator, Dist 31                              Tim Reid                              Precinct 3                                             01 
00250030004000040000000000014000026000000000000000000000000000000000000000000000000000000000000000000REP       REP State Senator, Dist 31                              Tim Reid                              Precinct 4                                             01 
00250040001000014000000000009000005000000000000000000000000000000000000000000000000000000000000000000REP       REP State Senator, Dist 31                              Jesse Quackenbush                     Precinct 1                                             01 
00250040002000015000000000010000005000000000000000000000000000000000000000000000000000000000000000000REP       REP State Senator, Dist 31                              Jesse Quackenbush                     Precinct 2                                             01 
00250040003000011000000000005000006000000000000000000000000000000000000000000000000000000000000000000REP       REP State Senator, Dist 31                              Jesse Quackenbush                     Precinct 3                                             01 
00250040004000009000000000003000006000000000000000000000000000000000000000000000000000000000000000000REP       REP State Senator, Dist 31                              Jesse Quackenbush                     Precinct 4                                             01 
00260010001000152000001000062000089000000000000000000000000000000000000000000000000000000000000000000REP       REP State Representative, Dist 88                       Ted Hutto                             Precinct 1                                             01 
00260010002000236000009000115000112000000000000000000000000000000000000000000000000000000000000000000REP       REP State Representative, Dist 88                       Ted Hutto                             Precinct 2                                             01 
00260010003000163000003000080000080000000000000000000000000000000000000000000000000000000000000000000REP       REP State Representative, Dist 88                       Ted Hutto                             Precinct 3                                             01 
00260010004000105000000000042000063000000000000000000000000000000000000000000000000000000000000000000REP       REP State Representative, Dist 88                       Ted Hutto                             Precinct 4                                             01 
00260020001000257000001000139000117000000000000000000000000000000000000000000000000000000000000000000REP       REP State Representative, Dist 88                       Ken King                              Precinct 1                                             01 
00260020002000430000015000220000195000000000000000000000000000000000000000000000000000000000000000000REP       REP State Representative, Dist 88                       Ken King                              Precinct 2                                             01 
00260020003000288000004000154000130000000000000000000000000000000000000000000000000000000000000000000REP       REP State Representative, Dist 88                       Ken King                              Precinct 3                                             01 
00260020004000188000008000095000085000000000000000000000000000000000000000000000000000000000000000000REP       REP State Representative, Dist 88                       Ken King                              Precinct 4                                             01 
00270010001000352000002000167000183000000000000000000000000000000000000000000000000000000000000000000REP       REP Justice, 8th Ct of App Dist, Pl 2                   Jeff Alley                            Precinct 1                                             01 
00270010002000533000018000259000256000000000000000000000000000000000000000000000000000000000000000000REP       REP Justice, 8th Ct of App Dist, Pl 2                   Jeff Alley                            Precinct 2                                             01 
00270010003000369000007000187000175000000000000000000000000000000000000000000000000000000000000000000REP       REP Justice, 8th Ct of App Dist, Pl 2                   Jeff Alley                            Precinct 3                                             01 
00270010004000227000004000102000121000000000000000000000000000000000000000000000000000000000000000000REP       REP Justice, 8th Ct of App Dist, Pl 2                   Jeff Alley                            Precinct 4                                             01 
00280010001000379000002000173000204000000000000000000000000000000000000000000000000000000000000000000REP       REP Dist Judge, 109th Judicial Dist                     John L. Pool                          Precinct 1                                             01 
00280010002000634000023000309000302000000000000000000000000000000000000000000000000000000000000000000REP       REP Dist Judge, 109th Judicial Dist                     John L. Pool                          Precinct 2                                             01 
00280010003000427000006000220000201000000000000000000000000000000000000000000000000000000000000000000REP       REP Dist Judge, 109th Judicial Dist                     John L. Pool                          Precinct 3                                             01 
00280010004000265000004000127000134000000000000000000000000000000000000000000000000000000000000000000REP       REP Dist Judge, 109th Judicial Dist                     John L. Pool                          Precinct 4                                             01 
00290010001000238000001000116000121000000000000000000000000000000000000000000000000000000000000000000REP       REP County Judge                                        Charlie Falcon                        Precinct 1                                             01 
00290010002000466000018000225000223000000000000000000000000000000000000000000000000000000000000000000REP       REP County Judge                                        Charlie Falcon                        Precinct 2                                             01 
00290010003000316000003000163000150000000000000000000000000000000000000000000000000000000000000000000REP       REP County Judge                                        Charlie Falcon                        Precinct 3                                             01 
00290010004000198000007000089000102000000000000000000000000000000000000000000000000000000000000000000REP       REP County Judge                                        Charlie Falcon                        Precinct 4                                             01 
00290020001000134000000000061000073000000000000000000000000000000000000000000000000000000000000000000REP       REP County Judge                                        Cody Moore                            Precinct 1                                             01 
00290020002000194000003000094000097000000000000000000000000000000000000000000000000000000000000000000REP       REP County Judge                                        Cody Moore                            Precinct 2                                             01 
00290020003000131000004000054000073000000000000000000000000000000000000000000000000000000000000000000REP       REP County Judge                                        Cody Moore                            Precinct 3                                             01 
00290020004000098000001000055000042000000000000000000000000000000000000000000000000000000000000000000REP       REP County Judge                                        Cody Moore                            Precinct 4                                             01 
00290030001000095000001000049000045000000000000000000000000000000000000000000000000000000000000000000REP       REP County Judge                                        Lex K. Crawford                       Precinct 1                                             01 
00290030002000090000001000050000039000000000000000000000000000000000000000000000000000000000000000000REP       REP County Judge                                        Lex K. Crawford                       Precinct 2                                             01 
00290030003000074000000000043000031000000000000000000000000000000000000000000000000000000000000000000REP       REP County Judge                                        Lex K. Crawford                       Precinct 3                                             01 
00290030004000043000000000016000027000000000000000000000000000000000000000000000000000000000000000000REP       REP County Judge                                        Lex K. Crawford                       Precinct 4                                             01 
00300010001000382000002000183000197000000000000000000000000000000000000000000000000000000000000000000REP       REP District Clerk                                      Sherry Dushane                        Precinct 1                                             01 
00300010002000640000021000317000302000000000000000000000000000000000000000000000000000000000000000000REP       REP District Clerk                                      Sherry Dushane                        Precinct 2                                             01 
00300010003000436000007000224000205000000000000000000000000000000000000000000000000000000000000000000REP       REP District Clerk                                      Sherry Dushane                        Precinct 3                                             01 
00300010004000280000008000127000145000000000000000000000000000000000000000000000000000000000000000000REP       REP District Clerk                                      Sherry Dushane                        Precinct 4                                             01 
00310010001000390000002000189000199000000000000000000000000000000000000000000000000000000000000000000REP       REP County Clerk                                        Vicki Scott                           Precinct 1                                             01 
00310010002000642000021000315000306000000000000000000000000000000000000000000000000000000000000000000REP       REP County Clerk                                        Vicki Scott                           Precinct 2                                             01 
00310010003000439000006000222000211000000000000000000000000000000000000000000000000000000000000000000REP       REP County Clerk                                        Vicki Scott                           Precinct 3                                             01 
00310010004000275000008000128000139000000000000000000000000000000000000000000000000000000000000000000REP       REP County Clerk                                        Vicki Scott                           Precinct 4                                             01 
00320010002000135000004000063000068000000000000000000000000000000000000000000000000000000000000000000REPCOM0002REP County Commissioner Pct 2                           Coy Irwin                             Precinct 2                    Precinct No. 2           01 
00320020002000104000004000052000048000000000000000000000000000000000000000000000000000000000000000000REPCOM0002REP County Commissioner Pct 2                           Wayne Bramley                         Precinct 2                    Precinct No. 2           01 
00320030002000505000015000255000235000000000000000000000000000000000000000000000000000000000000000000REPCOM0002REP County Commissioner Pct 2                           Mark Savell                           Precinct 2                    Precinct No. 2           01 
00330010004000285000007000132000146000000000000000000000000000000000000000000000000000000000000000000REPCOM0004REP County Commissioner Pct 4                           Jim Waldrop                           Precinct 4                    Precinct No. 4           01 
00340010001000384000002000180000202000000000000000000000000000000000000000000000000000000000000000000REPJOP0001REP JOP Pct 1                                           Mary Jane Baeza                       Precinct 1                    Precinct No. 1           01 
00340010004000274000007000128000139000000000000000000000000000000000000000000000000000000000000000000REPJOP0001REP JOP Pct 1                                           Mary Jane Baeza                       Precinct 4                    Precinct No. 1           01 
00350010002000652000024000318000310000000000000000000000000000000000000000000000000000000000000000000REPJOP0002REP JOP Pct 2                                           Neri Flores                           Precinct 2                    Precinct No. 2           01 
00350010003000432000007000217000208000000000000000000000000000000000000000000000000000000000000000000REPJOP0002REP JOP Pct 2                                           Neri Flores                           Precinct 3                    Precinct No. 2           01 
00360010001000386000002000190000194000000000000000000000000000000000000000000000000000000000000000000REP       REP County Chair                                        Randy Rowe                            Precinct 1                                             01 
00360010002000624000016000302000306000000000000000000000000000000000000000000000000000000000000000000REP       REP County Chair                                        Randy Rowe                            Precinct 2                                             01 
00360010003000435000006000222000207000000000000000000000000000000000000000000000000000000000000000000REP       REP County Chair                                        Randy Rowe                            Precinct 3                                             01 
00360010004000259000004000122000133000000000000000000000000000000000000000000000000000000000000000000REP       REP County Chair                                        Randy Rowe                            Precinct 4                                             01 
00370010001000430000001000215000214000000000000000000000000000000000000000000000000000000000000000000REP       REP Proposition 1                                       YES                                   Precinct 1                                             01Y
00370010002000682000023000335000324000000000000000000000000000000000000000000000000000000000000000000REP       REP Proposition 1                                       YES                                   Precinct 2                                             01Y
00370010003000474000004000248000222000000000000000000000000000000000000000000000000000000000000000000REP       REP Proposition 1                                       YES                                   Precinct 3                                             01Y
00370010004000302000009000146000147000000000000000000000000000000000000000000000000000000000000000000REP       REP Proposition 1                                       YES                                   Precinct 4                                             01Y
00370020001000029000001000009000019000000000000000000000000000000000000000000000000000000000000000000REP       REP Proposition 1                                       NO                                    Precinct 1                                             01Y
00370020002000063000001000032000030000000000000000000000000000000000000000000000000000000000000000000REP       REP Proposition 1                                       NO                                    Precinct 2                                             01Y
00370020003000035000003000011000021000000000000000000000000000000000000000000000000000000000000000000REP       REP Proposition 1                                       NO                                    Precinct 3                                             01Y
00370020004000027000000000009000018000000000000000000000000000000000000000000000000000000000000000000REP       REP Proposition 1                                       NO                                    Precinct 4                                             01Y
00380010001000393000002000189000202000000000000000000000000000000000000000000000000000000000000000000REP       REP Proposition 2                                       YES                                   Precinct 1                                             01Y
00380010002000578000019000284000275000000000000000000000000000000000000000000000000000000000000000000REP       REP Proposition 2                                       YES                                   Precinct 2                                             01Y
00380010003000406000004000204000198000000000000000000000000000000000000000000000000000000000000000000REP       REP Proposition 2                                       YES                                   Precinct 3                                             01Y
00380010004000261000009000120000132000000000000000000000000000000000000000000000000000000000000000000REP       REP Proposition 2                                       YES                                   Precinct 4                                             01Y
00380020001000058000000000029000029000000000000000000000000000000000000000000000000000000000000000000REP       REP Proposition 2                                       NO                                    Precinct 1                                             01Y
00380020002000146000003000080000063000000000000000000000000000000000000000000000000000000000000000000REP       REP Proposition 2                                       NO                                    Precinct 2                                             01Y
00380020003000085000003000042000040000000000000000000000000000000000000000000000000000000000000000000REP       REP Proposition 2                                       NO                                    Precinct 3                                             01Y
00380020004000060000000000031000029000000000000000000000000000000000000000000000000000000000000000000REP       REP Proposition 2                                       NO                                    Precinct 4                                             01Y
00390010001000415000002000201000212000000000000000000000000000000000000000000000000000000000000000000REP       REP Proposition 3                                       YES                                   Precinct 1                                             01Y
00390010002000671000023000331000317000000000000000000000000000000000000000000000000000000000000000000REP       REP Proposition 3                                       YES                                   Precinct 2                                             01Y
00390010003000459000004000235000220000000000000000000000000000000000000000000000000000000000000000000REP       REP Proposition 3                                       YES                                   Precinct 3                                             01Y
00390010004000294000009000135000150000000000000000000000000000000000000000000000000000000000000000000REP       REP Proposition 3                                       YES                                   Precinct 4                                             01Y
00390020001000048000000000024000024000000000000000000000000000000000000000000000000000000000000000000REP       REP Proposition 3                                       NO                                    Precinct 1                                             01Y
00390020002000080000001000036000043000000000000000000000000000000000000000000000000000000000000000000REP       REP Proposition 3                                       NO                                    Precinct 2                                             01Y
00390020003000051000003000021000027000000000000000000000000000000000000000000000000000000000000000000REP       REP Proposition 3                                       NO                                    Precinct 3                                             01Y
00390020004000039000000000022000017000000000000000000000000000000000000000000000000000000000000000000REP       REP Proposition 3                                       NO                                    Precinct 4                                             01Y
00400010001000421000002000208000211000000000000000000000000000000000000000000000000000000000000000000REP       REP Proposition 4                                       YES                                   Precinct 1                                             01Y
00400010002000684000023000340000321000000000000000000000000000000000000000000000000000000000000000000REP       REP Proposition 4                                       YES                                   Precinct 2                                             01Y
00400010003000456000007000238000211000000000000000000000000000000000000000000000000000000000000000000REP       REP Proposition 4                                       YES                                   Precinct 3                                             01Y
00400010004000289000009000140000140000000000000000000000000000000000000000000000000000000000000000000REP       REP Proposition 4                                       YES                                   Precinct 4                                             01Y
00400020001000034000000000011000023000000000000000000000000000000000000000000000000000000000000000000REP       REP Proposition 4                                       NO                                    Precinct 1                                             01Y
00400020002000057000001000027000029000000000000000000000000000000000000000000000000000000000000000000REP       REP Proposition 4                                       NO                                    Precinct 2                                             01Y
00400020003000048000000000017000031000000000000000000000000000000000000000000000000000000000000000000REP       REP Proposition 4                                       NO                                    Precinct 3                                             01Y
00400020004000036000000000012000024000000000000000000000000000000000000000000000000000000000000000000REP       REP Proposition 4                                       NO                                    Precinct 4                                             01Y
00410010001000403000001000190000212000000000000000000000000000000000000000000000000000000000000000000REP       REP Proposition 5                                       YES                                   Precinct 1                                             01Y
00410010002000640000019000311000310000000000000000000000000000000000000000000000000000000000000000000REP       REP Proposition 5                                       YES                                   Precinct 2                                             01Y
00410010003000454000004000233000217000000000000000000000000000000000000000000000000000000000000000000REP       REP Proposition 5                                       YES                                   Precinct 3                                             01Y
00410010004000286000008000136000142000000000000000000000000000000000000000000000000000000000000000000REP       REP Proposition 5                                       YES                                   Precinct 4                                             01Y
00410020001000045000000000025000020000000000000000000000000000000000000000000000000000000000000000000REP       REP Proposition 5                                       NO                                    Precinct 1                                             01Y
00410020002000087000005000042000040000000000000000000000000000000000000000000000000000000000000000000REP       REP Proposition 5                                       NO                                    Precinct 2                                             01Y
00410020003000053000003000023000027000000000000000000000000000000000000000000000000000000000000000000REP       REP Proposition 5                                       NO                                    Precinct 3                                             01Y
00410020004000043000001000020000022000000000000000000000000000000000000000000000000000000000000000000REP       REP Proposition 5                                       NO                                    Precinct 4                                             01Y
00420010001000370000002000178000190000000000000000000000000000000000000000000000000000000000000000000REP       REP Proposition 6                                       YES                                   Precinct 1                                             01Y
00420010002000579000020000286000273000000000000000000000000000000000000000000000000000000000000000000REP       REP Proposition 6                                       YES                                   Precinct 2                                             01Y
00420010003000415000002000212000201000000000000000000000000000000000000000000000000000000000000000000REP       REP Proposition 6                                       YES                                   Precinct 3                                             01Y
00420010004000262000008000125000129000000000000000000000000000000000000000000000000000000000000000000REP       REP Proposition 6                                       YES                                   Precinct 4                                             01Y
00420020001000068000000000035000033000000000000000000000000000000000000000000000000000000000000000000REP       REP Proposition 6                                       NO                                    Precinct 1                                             01Y
00420020002000130000002000064000064000000000000000000000000000000000000000000000000000000000000000000REP       REP Proposition 6                                       NO                                    Precinct 2                                             01Y
00420020003000083000005000037000041000000000000000000000000000000000000000000000000000000000000000000REP       REP Proposition 6                                       NO                                    Precinct 3                                             01Y
00420020004000061000001000026000034000000000000000000000000000000000000000000000000000000000000000000REP       REP Proposition 6                                       NO                                    Precinct 4                                             01Y
00430010001000455000002000224000229000000000000000000000000000000000000000000000000000000000000000000REP       REP Proposition 7                                       YES                                   Precinct 1                                             01Y
00430010002000715000024000349000342000000000000000000000000000000000000000000000000000000000000000000REP       REP Proposition 7                                       YES                                   Precinct 2                                             01Y
00430010003000498000007000254000237000000000000000000000000000000000000000000000000000000000000000000REP       REP Proposition 7                                       YES                                   Precinct 3                                             01Y
00430010004000320000009000152000159000000000000000000000000000000000000000000000000000000000000000000REP       REP Proposition 7                                       YES                                   Precinct 4                                             01Y
00430020001000006000000000002000004000000000000000000000000000000000000000000000000000000000000000000REP       REP Proposition 7                                       NO                                    Precinct 1                                             01Y
00430020002000022000000000012000010000000000000000000000000000000000000000000000000000000000000000000REP       REP Proposition 7                                       NO                                    Precinct 2                                             01Y
00430020003000014000000000005000009000000000000000000000000000000000000000000000000000000000000000000REP       REP Proposition 7                                       NO                                    Precinct 3                                             01Y
00430020004000015000000000007000008000000000000000000000000000000000000000000000000000000000000000000REP       REP Proposition 7                                       NO                                    Precinct 4                                             01Y
00440010001000432000002000210000220000000000000000000000000000000000000000000000000000000000000000000REP       REP Proposition 8                                       YES                                   Precinct 1                                             01Y
00440010002000696000024000343000329000000000000000000000000000000000000000000000000000000000000000000REP       REP Proposition 8                                       YES                                   Precinct 2                                             01Y
00440010003000488000007000249000232000000000000000000000000000000000000000000000000000000000000000000REP       REP Proposition 8                                       YES                                   Precinct 3                                             01Y
00440010004000294000009000140000145000000000000000000000000000000000000000000000000000000000000000000REP       REP Proposition 8                                       YES                                   Precinct 4                                             01Y
00440020001000027000000000014000013000000000000000000000000000000000000000000000000000000000000000000REP       REP Proposition 8                                       NO                                    Precinct 1                                             01Y
00440020002000036000000000015000021000000000000000000000000000000000000000000000000000000000000000000REP       REP Proposition 8                                       NO                                    Precinct 2                                             01Y
00440020003000021000000000008000013000000000000000000000000000000000000000000000000000000000000000000REP       REP Proposition 8                                       NO                                    Precinct 3                                             01Y
00440020004000034000000000013000021000000000000000000000000000000000000000000000000000000000000000000REP       REP Proposition 8                                       NO                                    Precinct 4                                             01Y
00450010001000426000001000209000216000000000000000000000000000000000000000000000000000000000000000000REP       REP Proposition 9                                       YES                                   Precinct 1                                             01Y
00450010002000612000022000298000292000000000000000000000000000000000000000000000000000000000000000000REP       REP Proposition 9                                       YES                                   Precinct 2                                             01Y
00450010003000445000004000223000218000000000000000000000000000000000000000000000000000000000000000000REP       REP Proposition 9                                       YES                                   Precinct 3                                             01Y
00450010004000295000009000140000146000000000000000000000000000000000000000000000000000000000000000000REP       REP Proposition 9                                       YES                                   Precinct 4                                             01Y
00450020001000032000001000015000016000000000000000000000000000000000000000000000000000000000000000000REP       REP Proposition 9                                       NO                                    Precinct 1                                             01Y
00450020002000129000002000065000062000000000000000000000000000000000000000000000000000000000000000000REP       REP Proposition 9                                       NO                                    Precinct 2                                             01Y
00450020003000065000003000033000029000000000000000000000000000000000000000000000000000000000000000000REP       REP Proposition 9                                       NO                                    Precinct 3                                             01Y
00450020004000042000000000018000024000000000000000000000000000000000000000000000000000000000000000000REP       REP Proposition 9                                       NO                                    Precinct 4                                             01Y
00460010001000436000001000216000219000000000000000000000000000000000000000000000000000000000000000000REP       REP Proposition 10                                      YES                                   Precinct 1                                             01Y
00460010002000684000022000331000331000000000000000000000000000000000000000000000000000000000000000000REP       REP Proposition 10                                      YES                                   Precinct 2                                             01Y
00460010003000482000007000242000233000000000000000000000000000000000000000000000000000000000000000000REP       REP Proposition 10                                      YES                                   Precinct 3                                             01Y
00460010004000309000009000142000158000000000000000000000000000000000000000000000000000000000000000000REP       REP Proposition 10                                      YES                                   Precinct 4                                             01Y
00460020001000018000001000006000011000000000000000000000000000000000000000000000000000000000000000000REP       REP Proposition 10                                      NO                                    Precinct 1                                             01Y
00460020002000047000002000027000018000000000000000000000000000000000000000000000000000000000000000000REP       REP Proposition 10                                      NO                                    Precinct 2                                             01Y
00460020003000029000000000016000013000000000000000000000000000000000000000000000000000000000000000000REP       REP Proposition 10                                      NO                                    Precinct 3                                             01Y
00460020004000023000000000011000012000000000000000000000000000000000000000000000000000000000000000000REP       REP Proposition 10                                      NO                                    Precinct 4                                             01Y
