00470010001000000000000000000000000000000000000000000000000000000000000000000000000000000000000000000DEM       DEM Governor                                            Michael Cooper                        Precinct 1                                             01 
00470010002000001000000000001000000000000000000000000000000000000000000000000000000000000000000000000DEM       DEM Governor                                            Michael Cooper                        Precinct 2                                             01 
00470010003000000000000000000000000000000000000000000000000000000000000000000000000000000000000000000DEM       DEM Governor                                            Michael Cooper                        Precinct 3                                             01 
00470010004000001000000000001000000000000000000000000000000000000000000000000000000000000000000000000DEM       DEM Governor                                            Michael Cooper                        Precinct 4                                             01 
00470020001000003000000000000000003000000000000000000000000000000000000000000000000000000000000000000DEM       DEM Governor                                            Joy Diaz                              Precinct 1                                             01 
00470020002000000000000000000000000000000000000000000000000000000000000000000000000000000000000000000DEM       DEM Governor                                            Joy Diaz                              Precinct 2                                             01 
00470020003000000000000000000000000000000000000000000000000000000000000000000000000000000000000000000DEM       DEM Governor                                            Joy Diaz                              Precinct 3                                             01 
00470020004000002000000000001000001000000000000000000000000000000000000000000000000000000000000000000DEM       DEM Governor                                            Joy Diaz                              Precinct 4                                             01 
00470030001000023000002000010000011000000000000000000000000000000000000000000000000000000000000000000DEM       DEM Governor                                            Beto O'Rourke                         Precinct 1                                             01 
00470030002000019000001000007000011000000000000000000000000000000000000000000000000000000000000000000DEM       DEM Governor                                            Beto O'Rourke                         Precinct 2                                             01 
00470030003000015000000000007000008000000000000000000000000000000000000000000000000000000000000000000DEM       DEM Governor                                            Beto O'Rourke                         Precinct 3                                             01 
00470030004000020000000000009000011000000000000000000000000000000000000000000000000000000000000000000DEM       DEM Governor                                            Beto O'Rourke                         Precinct 4                                             01 
00470040001000000000000000000000000000000000000000000000000000000000000000000000000000000000000000000DEM       DEM Governor                                            Rich Wakeland                         Precinct 1                                             01 
00470040002000000000000000000000000000000000000000000000000000000000000000000000000000000000000000000DEM       DEM Governor                                            Rich Wakeland                         Precinct 2                                             01 
00470040003000001000000000000000001000000000000000000000000000000000000000000000000000000000000000000DEM       DEM Governor                                            Rich Wakeland                         Precinct 3                                             01 
00470040004000001000000000000000001000000000000000000000000000000000000000000000000000000000000000000DEM       DEM Governor                                            Rich Wakeland                         Precinct 4                                             01 
00470050001000000000000000000000000000000000000000000000000000000000000000000000000000000000000000000DEM       DEM Governor                                            Inocencio (Inno) Barrientez           Precinct 1                                             01 
00470050002000000000000000000000000000000000000000000000000000000000000000000000000000000000000000000DEM       DEM Governor                                            Inocencio (Inno) Barrientez           Precinct 2                                             01 
00470050003000002000000000002000000000000000000000000000000000000000000000000000000000000000000000000DEM       DEM Governor                                            Inocencio (Inno) Barrientez           Precinct 3                                             01 
00470050004000000000000000000000000000000000000000000000000000000000000000000000000000000000000000000DEM       DEM Governor                                            Inocencio (Inno) Barrientez           Precinct 4                                             01 
00480010001000010000000000003000007000000000000000000000000000000000000000000000000000000000000000000DEM       DEM Lieutenant Governor                                 Carla Brailey                         Precinct 1                                             01 
00480010002000007000000000004000003000000000000000000000000000000000000000000000000000000000000000000DEM       DEM Lieutenant Governor                                 Carla Brailey                         Precinct 2                                             01 
00480010003000003000000000003000000000000000000000000000000000000000000000000000000000000000000000000DEM       DEM Lieutenant Governor                                 Carla Brailey                         Precinct 3                                             01 
00480010004000014000000000005000009000000000000000000000000000000000000000000000000000000000000000000DEM       DEM Lieutenant Governor                                 Carla Brailey                         Precinct 4                                             01 
00480020001000003000000000001000002000000000000000000000000000000000000000000000000000000000000000000DEM       DEM Lieutenant Governor                                 Michelle Beckley                      Precinct 1                                             01 
00480020002000006000001000002000003000000000000000000000000000000000000000000000000000000000000000000DEM       DEM Lieutenant Governor                                 Michelle Beckley                      Precinct 2                                             01 
00480020003000008000000000004000004000000000000000000000000000000000000000000000000000000000000000000DEM       DEM Lieutenant Governor                                 Michelle Beckley                      Precinct 3                                             01 
00480020004000002000000000001000001000000000000000000000000000000000000000000000000000000000000000000DEM       DEM Lieutenant Governor                                 Michelle Beckley                      Precinct 4                                             01 
00480030001000007000002000003000002000000000000000000000000000000000000000000000000000000000000000000DEM       DEM Lieutenant Governor                                 Mike Collier                          Precinct 1                                             01 
00480030002000007000000000002000005000000000000000000000000000000000000000000000000000000000000000000DEM       DEM Lieutenant Governor                                 Mike Collier                          Precinct 2                                             01 
00480030003000006000000000002000004000000000000000000000000000000000000000000000000000000000000000000DEM       DEM Lieutenant Governor                                 Mike Collier                          Precinct 3                                             01 
00480030004000008000000000005000003000000000000000000000000000000000000000000000000000000000000000000DEM       DEM Lieutenant Governor                                 Mike Collier                          Precinct 4                                             01 
00490010001000003000001000000000002000000000000000000000000000000000000000000000000000000000000000000DEM       DEM Attorney General                                    Lee Merritt                           Precinct 1                                             01 
00490010002000004000000000002000002000000000000000000000000000000000000000000000000000000000000000000DEM       DEM Attorney General                                    Lee Merritt                           Precinct 2                                             01 
00490010003000001000000000000000001000000000000000000000000000000000000000000000000000000000000000000DEM       DEM Attorney General                                    Lee Merritt                           Precinct 3                                             01 
00490010004000004000000000002000002000000000000000000000000000000000000000000000000000000000000000000DEM       DEM Attorney General                                    Lee Merritt                           Precinct 4                                             01 
00490020001000014000000000007000007000000000000000000000000000000000000000000000000000000000000000000DEM       DEM Attorney General                                    Rochelle Mercedes Garza               Precinct 1                                             01 
00490020002000010000001000003000006000000000000000000000000000000000000000000000000000000000000000000DEM       DEM Attorney General                                    Rochelle Mercedes Garza               Precinct 2                                             01 
00490020003000009000000000005000004000000000000000000000000000000000000000000000000000000000000000000DEM       DEM Attorney General                                    Rochelle Mercedes Garza               Precinct 3                                             01 
00490020004000017000000000007000010000000000000000000000000000000000000000000000000000000000000000000DEM       DEM Attorney General                                    Rochelle Mercedes Garza               Precinct 4                                             01 
00490030001000001000000000000000001000000000000000000000000000000000000000000000000000000000000000000DEM       DEM Attorney General                                    Mike Fields                           Precinct 1                                             01 
00490030002000003000000000002000001000000000000000000000000000000000000000000000000000000000000000000DEM       DEM Attorney General                                    Mike Fields                           Precinct 2                                             01 
00490030003000002000000000002000000000000000000000000000000000000000000000000000000000000000000000000DEM       DEM Attorney General                                    Mike Fields                           Precinct 3                                             01 
00490030004000000000000000000000000000000000000000000000000000000000000000000000000000000000000000000DEM       DEM Attorney General                                    Mike Fields                           Precinct 4                                             01 
00490040001000002000000000001000001000000000000000000000000000000000000000000000000000000000000000000DEM       DEM Attorney General                                    Joe Jaworski                          Precinct 1                                             01 
00490040002000003000000000001000002000000000000000000000000000000000000000000000000000000000000000000DEM       DEM Attorney General                                    Joe Jaworski                          Precinct 2                                             01 
00490040003000002000000000002000000000000000000000000000000000000000000000000000000000000000000000000DEM       DEM Attorney General                                    Joe Jaworski                          Precinct 3                                             01 
00490040004000002000000000001000001000000000000000000000000000000000000000000000000000000000000000000DEM       DEM Attorney General                                    Joe Jaworski                          Precinct 4                                             01 
00490050001000004000001000001000002000000000000000000000000000000000000000000000000000000000000000000DEM       DEM Attorney General                                    S. "TBONE" Raynor                     Precinct 1                                             01 
00490050002000000000000000000000000000000000000000000000000000000000000000000000000000000000000000000DEM       DEM Attorney General                                    S. "TBONE" Raynor                     Precinct 2                                             01 
00490050003000001000000000000000001000000000000000000000000000000000000000000000000000000000000000000DEM       DEM Attorney General                                    S. "TBONE" Raynor                     Precinct 3                                             01 
00490050004000001000000000001000000000000000000000000000000000000000000000000000000000000000000000000DEM       DEM Attorney General                                    S. "TBONE" Raynor                     Precinct 4                                             01 
00500010001000005000000000001000004000000000000000000000000000000000000000000000000000000000000000000DEM       DEM Comptroller of Public Accounts                      Janet T. Dudding                      Precinct 1                                             01 
00500010002000010000001000005000004000000000000000000000000000000000000000000000000000000000000000000DEM       DEM Comptroller of Public Accounts                      Janet T. Dudding                      Precinct 2                                             01 
00500010003000002000000000000000002000000000000000000000000000000000000000000000000000000000000000000DEM       DEM Comptroller of Public Accounts                      Janet T. Dudding                      Precinct 3                                             01 
00500010004000007000000000002000005000000000000000000000000000000000000000000000000000000000000000000DEM       DEM Comptroller of Public Accounts                      Janet T. Dudding                      Precinct 4                                             01 
00500020001000003000000000002000001000000000000000000000000000000000000000000000000000000000000000000DEM       DEM Comptroller of Public Accounts                      Tim Mahoney                           Precinct 1                                             01 
00500020002000004000000000000000004000000000000000000000000000000000000000000000000000000000000000000DEM       DEM Comptroller of Public Accounts                      Tim Mahoney                           Precinct 2                                             01 
00500020003000005000000000003000002000000000000000000000000000000000000000000000000000000000000000000DEM       DEM Comptroller of Public Accounts                      Tim Mahoney                           Precinct 3                                             01 
00500020004000008000000000005000003000000000000000000000000000000000000000000000000000000000000000000DEM       DEM Comptroller of Public Accounts                      Tim Mahoney                           Precinct 4                                             01 
00500030001000013000002000004000007000000000000000000000000000000000000000000000000000000000000000000DEM       DEM Comptroller of Public Accounts                      Angel Luis Vega                       Precinct 1                                             01 
00500030002000006000000000003000003000000000000000000000000000000000000000000000000000000000000000000DEM       DEM Comptroller of Public Accounts                      Angel Luis Vega                       Precinct 2                                             01 
00500030003000010000000000006000004000000000000000000000000000000000000000000000000000000000000000000DEM       DEM Comptroller of Public Accounts                      Angel Luis Vega                       Precinct 3                                             01 
00500030004000009000000000004000005000000000000000000000000000000000000000000000000000000000000000000DEM       DEM Comptroller of Public Accounts                      Angel Luis Vega                       Precinct 4                                             01 
00510010001000015000002000006000007000000000000000000000000000000000000000000000000000000000000000000DEM       DEM Comm General Land Office                            Sandragrace Martinez                  Precinct 1                                             01 
00510010002000002000000000001000001000000000000000000000000000000000000000000000000000000000000000000DEM       DEM Comm General Land Office                            Sandragrace Martinez                  Precinct 2                                             01 
00510010003000011000000000005000006000000000000000000000000000000000000000000000000000000000000000000DEM       DEM Comm General Land Office                            Sandragrace Martinez                  Precinct 3                                             01 
00510010004000016000000000007000009000000000000000000000000000000000000000000000000000000000000000000DEM       DEM Comm General Land Office                            Sandragrace Martinez                  Precinct 4                                             01 
00510020001000001000000000001000000000000000000000000000000000000000000000000000000000000000000000000DEM       DEM Comm General Land Office                            Jay Kleberg                           Precinct 1                                             01 
00510020002000004000001000001000002000000000000000000000000000000000000000000000000000000000000000000DEM       DEM Comm General Land Office                            Jay Kleberg                           Precinct 2                                             01 
00510020003000003000000000002000001000000000000000000000000000000000000000000000000000000000000000000DEM       DEM Comm General Land Office                            Jay Kleberg                           Precinct 3                                             01 
00510020004000005000000000001000004000000000000000000000000000000000000000000000000000000000000000000DEM       DEM Comm General Land Office                            Jay Kleberg                           Precinct 4                                             01 
00510030001000002000000000001000001000000000000000000000000000000000000000000000000000000000000000000DEM       DEM Comm General Land Office                            Michael Lange                         Precinct 1                                             01 
00510030002000005000000000002000003000000000000000000000000000000000000000000000000000000000000000000DEM       DEM Comm General Land Office                            Michael Lange                         Precinct 2                                             01 
00510030003000003000000000002000001000000000000000000000000000000000000000000000000000000000000000000DEM       DEM Comm General Land Office                            Michael Lange                         Precinct 3                                             01 
00510030004000002000000000002000000000000000000000000000000000000000000000000000000000000000000000000DEM       DEM Comm General Land Office                            Michael Lange                         Precinct 4                                             01 
00510040001000004000000000000000004000000000000000000000000000000000000000000000000000000000000000000DEM       DEM Comm General Land Office                            Jinny Suh                             Precinct 1                                             01 
00510040002000008000000000004000004000000000000000000000000000000000000000000000000000000000000000000DEM       DEM Comm General Land Office                            Jinny Suh                             Precinct 2                                             01 
00510040003000000000000000000000000000000000000000000000000000000000000000000000000000000000000000000DEM       DEM Comm General Land Office                            Jinny Suh                             Precinct 3                                             01 
00510040004000001000000000001000000000000000000000000000000000000000000000000000000000000000000000000DEM       DEM Comm General Land Office                            Jinny Suh                             Precinct 4                                             01 
00520010001000022000002000008000012000000000000000000000000000000000000000000000000000000000000000000DEM       DEM Commissioner of Agriculture                         Susan Hays                            Precinct 1                                             01 
00520010002000020000001000008000011000000000000000000000000000000000000000000000000000000000000000000DEM       DEM Commissioner of Agriculture                         Susan Hays                            Precinct 2                                             01 
00520010003000015000000000009000006000000000000000000000000000000000000000000000000000000000000000000DEM       DEM Commissioner of Agriculture                         Susan Hays                            Precinct 3                                             01 
00520010004000019000000000009000010000000000000000000000000000000000000000000000000000000000000000000DEM       DEM Commissioner of Agriculture                         Susan Hays                            Precinct 4                                             01 
00520020001000001000000000001000000000000000000000000000000000000000000000000000000000000000000000000DEM       DEM Commissioner of Agriculture                         Ed Ireson                             Precinct 1                                             01 
00520020002000000000000000000000000000000000000000000000000000000000000000000000000000000000000000000DEM       DEM Commissioner of Agriculture                         Ed Ireson                             Precinct 2                                             01 
00520020003000001000000000000000001000000000000000000000000000000000000000000000000000000000000000000DEM       DEM Commissioner of Agriculture                         Ed Ireson                             Precinct 3                                             01 
00520020004000004000000000002000002000000000000000000000000000000000000000000000000000000000000000000DEM       DEM Commissioner of Agriculture                         Ed Ireson                             Precinct 4                                             01 
00530010001000019000002000007000010000000000000000000000000000000000000000000000000000000000000000000DEM       DEM Railroad Commissioner                               Luke Warford                          Precinct 1                                             01 
00530010002000019000001000008000010000000000000000000000000000000000000000000000000000000000000000000DEM       DEM Railroad Commissioner                               Luke Warford                          Precinct 2                                             01 
00530010003000015000000000008000007000000000000000000000000000000000000000000000000000000000000000000DEM       DEM Railroad Commissioner                               Luke Warford                          Precinct 3                                             01 
00530010004000021000000000010000011000000000000000000000000000000000000000000000000000000000000000000DEM       DEM Railroad Commissioner                               Luke Warford                          Precinct 4                                             01 
00540010001000021000002000009000010000000000000000000000000000000000000000000000000000000000000000000DEM       DEM Justice, Supreme Court, Pl 3                        Erin A Nowell                         Precinct 1                                             01 
00540010002000019000001000008000010000000000000000000000000000000000000000000000000000000000000000000DEM       DEM Justice, Supreme Court, Pl 3                        Erin A Nowell                         Precinct 2                                             01 
00540010003000015000000000008000007000000000000000000000000000000000000000000000000000000000000000000DEM       DEM Justice, Supreme Court, Pl 3                        Erin A Nowell                         Precinct 3                                             01 
00540010004000020000000000010000010000000000000000000000000000000000000000000000000000000000000000000DEM       DEM Justice, Supreme Court, Pl 3                        Erin A Nowell                         Precinct 4                                             01 
00550010001000022000002000009000011000000000000000000000000000000000000000000000000000000000000000000DEM       DEM Justice, Supreme Court, Pl 5                        Amanda Reichek                        Precinct 1                                             01 
00550010002000019000001000008000010000000000000000000000000000000000000000000000000000000000000000000DEM       DEM Justice, Supreme Court, Pl 5                        Amanda Reichek                        Precinct 2                                             01 
00550010003000013000000000007000006000000000000000000000000000000000000000000000000000000000000000000DEM       DEM Justice, Supreme Court, Pl 5                        Amanda Reichek                        Precinct 3                                             01 
00550010004000021000000000009000012000000000000000000000000000000000000000000000000000000000000000000DEM       DEM Justice, Supreme Court, Pl 5                        Amanda Reichek                        Precinct 4                                             01 
00560010001000023000002000009000012000000000000000000000000000000000000000000000000000000000000000000DEM       DEM Justice, Supreme Court, Pl 9                        Julia Maldonado                       Precinct 1                                             01 
00560010002000019000001000008000010000000000000000000000000000000000000000000000000000000000000000000DEM       DEM Justice, Supreme Court, Pl 9                        Julia Maldonado                       Precinct 2                                             01 
00560010003000017000000000009000008000000000000000000000000000000000000000000000000000000000000000000DEM       DEM Justice, Supreme Court, Pl 9                        Julia Maldonado                       Precinct 3                                             01 
00560010004000022000000000011000011000000000000000000000000000000000000000000000000000000000000000000DEM       DEM Justice, Supreme Court, Pl 9                        Julia Maldonado                       Precinct 4                                             01 
00570010001000022000002000009000011000000000000000000000000000000000000000000000000000000000000000000DEM       DEM Judge, Ct of Crim App, Pl 5                         Dana Huffman                          Precinct 1                                             01 
00570010002000019000001000008000010000000000000000000000000000000000000000000000000000000000000000000DEM       DEM Judge, Ct of Crim App, Pl 5                         Dana Huffman                          Precinct 2                                             01 
00570010003000016000000000009000007000000000000000000000000000000000000000000000000000000000000000000DEM       DEM Judge, Ct of Crim App, Pl 5                         Dana Huffman                          Precinct 3                                             01 
00570010004000021000000000011000010000000000000000000000000000000000000000000000000000000000000000000DEM       DEM Judge, Ct of Crim App, Pl 5                         Dana Huffman                          Precinct 4                                             01 
00580010001000021000002000009000010000000000000000000000000000000000000000000000000000000000000000000DEM       DEM Judge, Ct of Crim App, Pl 6                         Robert Johnson                        Precinct 1                                             01 
00580010002000019000001000008000010000000000000000000000000000000000000000000000000000000000000000000DEM       DEM Judge, Ct of Crim App, Pl 6                         Robert Johnson                        Precinct 2                                             01 
00580010003000014000000000007000007000000000000000000000000000000000000000000000000000000000000000000DEM       DEM Judge, Ct of Crim App, Pl 6                         Robert Johnson                        Precinct 3                                             01 
00580010004000021000000000010000011000000000000000000000000000000000000000000000000000000000000000000DEM       DEM Judge, Ct of Crim App, Pl 6                         Robert Johnson                        Precinct 4                                             01 
00590010001000019000002000007000010000000000000000000000000000000000000000000000000000000000000000000DEM       DEM Justice, 8th Ct of App Dist, Pl 2                   Lisa Soto                             Precinct 1                                             01 
00590010002000015000001000006000008000000000000000000000000000000000000000000000000000000000000000000DEM       DEM Justice, 8th Ct of App Dist, Pl 2                   Lisa Soto                             Precinct 2                                             01 
00590010003000008000000000002000006000000000000000000000000000000000000000000000000000000000000000000DEM       DEM Justice, 8th Ct of App Dist, Pl 2                   Lisa Soto                             Precinct 3                                             01 
00590010004000019000000000008000011000000000000000000000000000000000000000000000000000000000000000000DEM       DEM Justice, 8th Ct of App Dist, Pl 2                   Lisa Soto                             Precinct 4                                             01 
00590020001000005000000000002000003000000000000000000000000000000000000000000000000000000000000000000DEM       DEM Justice, 8th Ct of App Dist, Pl 2                   Veronica Teresa Lerma                 Precinct 1                                             01 
00590020002000005000000000002000003000000000000000000000000000000000000000000000000000000000000000000DEM       DEM Justice, 8th Ct of App Dist, Pl 2                   Veronica Teresa Lerma                 Precinct 2                                             01 
00590020003000007000000000007000000000000000000000000000000000000000000000000000000000000000000000000DEM       DEM Justice, 8th Ct of App Dist, Pl 2                   Veronica Teresa Lerma                 Precinct 3                                             01 
00590020004000005000000000003000002000000000000000000000000000000000000000000000000000000000000000000DEM       DEM Justice, 8th Ct of App Dist, Pl 2                   Veronica Teresa Lerma                 Precinct 4                                             01 
00600010001000023000002000010000011000000000000000000000000000000000000000000000000000000000000000000DEM       DEM County Chair                                        Deborah Wheeler                       Precinct 1                                             01 
00600010002000019000001000008000010000000000000000000000000000000000000000000000000000000000000000000DEM       DEM County Chair                                        Deborah Wheeler                       Precinct 2                                             01 
00600010003000016000000000009000007000000000000000000000000000000000000000000000000000000000000000000DEM       DEM County Chair                                        Deborah Wheeler                       Precinct 3                                             01 
00600010004000023000000000011000012000000000000000000000000000000000000000000000000000000000000000000DEM       DEM County Chair                                        Deborah Wheeler                       Precinct 4                                             01 
