00010010001000378000000000000000000000000000000000000000000000000000000000000000000000000000000000000          REGISTERED VOTERS - TOTAL                               REGISTERED VOTERS - TOTAL             Precinct 1001                                          00 
00010010002000687000000000000000000000000000000000000000000000000000000000000000000000000000000000000          REGISTERED VOTERS - TOTAL                               REGISTERED VOTERS - TOTAL             Precinct 1002                                          00 
00010010003002494000000000000000000000000000000000000000000000000000000000000000000000000000000000000          REGISTERED VOTERS - TOTAL                               REGISTERED VOTERS - TOTAL             Precinct 1003                                          00 
00010010004002131000000000000000000000000000000000000000000000000000000000000000000000000000000000000          REGISTERED VOTERS - TOTAL                               REGISTERED VOTERS - TOTAL             Precinct 1004                                          00 
00010010005001214000000000000000000000000000000000000000000000000000000000000000000000000000000000000          REGISTERED VOTERS - TOTAL                               REGISTERED VOTERS - TOTAL             Precinct 1005                                          00 
00010010006002651000000000000000000000000000000000000000000000000000000000000000000000000000000000000          REGISTERED VOTERS - TOTAL                               REGISTERED VOTERS - TOTAL             Precinct 1006                                          00 
00010010007001899000000000000000000000000000000000000000000000000000000000000000000000000000000000000          REGISTERED VOTERS - TOTAL                               REGISTERED VOTERS - TOTAL             Precinct 1007                                          00 
00010010008001344000000000000000000000000000000000000000000000000000000000000000000000000000000000000          REGISTERED VOTERS - TOTAL                               REGISTERED VOTERS - TOTAL             Precinct 1008                                          00 
00010010009002189000000000000000000000000000000000000000000000000000000000000000000000000000000000000          REGISTERED VOTERS - TOTAL                               REGISTERED VOTERS - TOTAL             Precinct 1009                                          00 
00010010010000687000000000000000000000000000000000000000000000000000000000000000000000000000000000000          REGISTERED VOTERS - TOTAL                               REGISTERED VOTERS - TOTAL             Precinct 2010                                          00 
00010010011001888000000000000000000000000000000000000000000000000000000000000000000000000000000000000          REGISTERED VOTERS - TOTAL                               REGISTERED VOTERS - TOTAL             Precinct 2011                                          00 
00010010012001534000000000000000000000000000000000000000000000000000000000000000000000000000000000000          REGISTERED VOTERS - TOTAL                               REGISTERED VOTERS - TOTAL             Precinct 2012                                          00 
00010010013003029000000000000000000000000000000000000000000000000000000000000000000000000000000000000          REGISTERED VOTERS - TOTAL                               REGISTERED VOTERS - TOTAL             Precinct 2013                                          00 
00010010014003020000000000000000000000000000000000000000000000000000000000000000000000000000000000000          REGISTERED VOTERS - TOTAL                               REGISTERED VOTERS - TOTAL             Precinct 2014                                          00 
00010010015002985000000000000000000000000000000000000000000000000000000000000000000000000000000000000          REGISTERED VOTERS - TOTAL                               REGISTERED VOTERS - TOTAL             Precinct 2015                                          00 
00010010016002636000000000000000000000000000000000000000000000000000000000000000000000000000000000000          REGISTERED VOTERS - TOTAL                               REGISTERED VOTERS - TOTAL             Precinct 2016                                          00 
00010010017002618000000000000000000000000000000000000000000000000000000000000000000000000000000000000          REGISTERED VOTERS - TOTAL                               REGISTERED VOTERS - TOTAL             Precinct 3017                                          00 
00010010018001594000000000000000000000000000000000000000000000000000000000000000000000000000000000000          REGISTERED VOTERS - TOTAL                               REGISTERED VOTERS - TOTAL             Precinct 3018                                          00 
00010010019002716000000000000000000000000000000000000000000000000000000000000000000000000000000000000          REGISTERED VOTERS - TOTAL                               REGISTERED VOTERS - TOTAL             Precinct 3019                                          00 
00010010020003101000000000000000000000000000000000000000000000000000000000000000000000000000000000000          REGISTERED VOTERS - TOTAL                               REGISTERED VOTERS - TOTAL             Precinct 3020                                          00 
00010010021002766000000000000000000000000000000000000000000000000000000000000000000000000000000000000          REGISTERED VOTERS - TOTAL                               REGISTERED VOTERS - TOTAL             Precinct 4021                                          00 
00010010022002309000000000000000000000000000000000000000000000000000000000000000000000000000000000000          REGISTERED VOTERS - TOTAL                               REGISTERED VOTERS - TOTAL             Precinct 4022                                          00 
00010010023001366000000000000000000000000000000000000000000000000000000000000000000000000000000000000          REGISTERED VOTERS - TOTAL                               REGISTERED VOTERS - TOTAL             Precinct 4023                                          00 
00010010024001648000000000000000000000000000000000000000000000000000000000000000000000000000000000000          REGISTERED VOTERS - TOTAL                               REGISTERED VOTERS - TOTAL             Precinct 4024                                          00 
00010010025002439000000000000000000000000000000000000000000000000000000000000000000000000000000000000          REGISTERED VOTERS - TOTAL                               REGISTERED VOTERS - TOTAL             Precinct 4025                                          00 
00010010026002084000000000000000000000000000000000000000000000000000000000000000000000000000000000000          REGISTERED VOTERS - TOTAL                               REGISTERED VOTERS - TOTAL             Precinct 4026                                          00 
00020010001000000000000000000000000000000000000000000000000000000000000000000000000000000000000000000REP       REGISTERED VOTERS - Republican Party                    REGISTERED VOTERS - Republican Party  Precinct 1001                                          00 
00020010002000000000000000000000000000000000000000000000000000000000000000000000000000000000000000000REP       REGISTERED VOTERS - Republican Party                    REGISTERED VOTERS - Republican Party  Precinct 1002                                          00 
00020010003000000000000000000000000000000000000000000000000000000000000000000000000000000000000000000REP       REGISTERED VOTERS - Republican Party                    REGISTERED VOTERS - Republican Party  Precinct 1003                                          00 
00020010004000000000000000000000000000000000000000000000000000000000000000000000000000000000000000000REP       REGISTERED VOTERS - Republican Party                    REGISTERED VOTERS - Republican Party  Precinct 1004                                          00 
00020010005000000000000000000000000000000000000000000000000000000000000000000000000000000000000000000REP       REGISTERED VOTERS - Republican Party                    REGISTERED VOTERS - Republican Party  Precinct 1005                                          00 
00020010006000000000000000000000000000000000000000000000000000000000000000000000000000000000000000000REP       REGISTERED VOTERS - Republican Party                    REGISTERED VOTERS - Republican Party  Precinct 1006                                          00 
00020010007000000000000000000000000000000000000000000000000000000000000000000000000000000000000000000REP       REGISTERED VOTERS - Republican Party                    REGISTERED VOTERS - Republican Party  Precinct 1007                                          00 
00020010008000000000000000000000000000000000000000000000000000000000000000000000000000000000000000000REP       REGISTERED VOTERS - Republican Party                    REGISTERED VOTERS - Republican Party  Precinct 1008                                          00 
00020010009000000000000000000000000000000000000000000000000000000000000000000000000000000000000000000REP       REGISTERED VOTERS - Republican Party                    REGISTERED VOTERS - Republican Party  Precinct 1009                                          00 
00020010010000000000000000000000000000000000000000000000000000000000000000000000000000000000000000000REP       REGISTERED VOTERS - Republican Party                    REGISTERED VOTERS - Republican Party  Precinct 2010                                          00 
00020010011000000000000000000000000000000000000000000000000000000000000000000000000000000000000000000REP       REGISTERED VOTERS - Republican Party                    REGISTERED VOTERS - Republican Party  Precinct 2011                                          00 
00020010012000000000000000000000000000000000000000000000000000000000000000000000000000000000000000000REP       REGISTERED VOTERS - Republican Party                    REGISTERED VOTERS - Republican Party  Precinct 2012                                          00 
00020010013000000000000000000000000000000000000000000000000000000000000000000000000000000000000000000REP       REGISTERED VOTERS - Republican Party                    REGISTERED VOTERS - Republican Party  Precinct 2013                                          00 
00020010014000000000000000000000000000000000000000000000000000000000000000000000000000000000000000000REP       REGISTERED VOTERS - Republican Party                    REGISTERED VOTERS - Republican Party  Precinct 2014                                          00 
00020010015000000000000000000000000000000000000000000000000000000000000000000000000000000000000000000REP       REGISTERED VOTERS - Republican Party                    REGISTERED VOTERS - Republican Party  Precinct 2015                                          00 
00020010016000000000000000000000000000000000000000000000000000000000000000000000000000000000000000000REP       REGISTERED VOTERS - Republican Party                    REGISTERED VOTERS - Republican Party  Precinct 2016                                          00 
00020010017000000000000000000000000000000000000000000000000000000000000000000000000000000000000000000REP       REGISTERED VOTERS - Republican Party                    REGISTERED VOTERS - Republican Party  Precinct 3017                                          00 
00020010018000000000000000000000000000000000000000000000000000000000000000000000000000000000000000000REP       REGISTERED VOTERS - Republican Party                    REGISTERED VOTERS - Republican Party  Precinct 3018                                          00 
00020010019000000000000000000000000000000000000000000000000000000000000000000000000000000000000000000REP       REGISTERED VOTERS - Republican Party                    REGISTERED VOTERS - Republican Party  Precinct 3019                                          00 
00020010020000000000000000000000000000000000000000000000000000000000000000000000000000000000000000000REP       REGISTERED VOTERS - Republican Party                    REGISTERED VOTERS - Republican Party  Precinct 3020                                          00 
00020010021000000000000000000000000000000000000000000000000000000000000000000000000000000000000000000REP       REGISTERED VOTERS - Republican Party                    REGISTERED VOTERS - Republican Party  Precinct 4021                                          00 
00020010022000000000000000000000000000000000000000000000000000000000000000000000000000000000000000000REP       REGISTERED VOTERS - Republican Party                    REGISTERED VOTERS - Republican Party  Precinct 4022                                          00 
00020010023000000000000000000000000000000000000000000000000000000000000000000000000000000000000000000REP       REGISTERED VOTERS - Republican Party                    REGISTERED VOTERS - Republican Party  Precinct 4023                                          00 
00020010024000000000000000000000000000000000000000000000000000000000000000000000000000000000000000000REP       REGISTERED VOTERS - Republican Party                    REGISTERED VOTERS - Republican Party  Precinct 4024                                          00 
00020010025000000000000000000000000000000000000000000000000000000000000000000000000000000000000000000REP       REGISTERED VOTERS - Republican Party                    REGISTERED VOTERS - Republican Party  Precinct 4025                                          00 
00020010026000000000000000000000000000000000000000000000000000000000000000000000000000000000000000000REP       REGISTERED VOTERS - Republican Party                    REGISTERED VOTERS - Republican Party  Precinct 4026                                          00 
00030010001000000000000000000000000000000000000000000000000000000000000000000000000000000000000000000DEM       REGISTERED VOTERS - Democratic Party                    REGISTERED VOTERS - Democratic Party  Precinct 1001                                          00 
00030010002000000000000000000000000000000000000000000000000000000000000000000000000000000000000000000DEM       REGISTERED VOTERS - Democratic Party                    REGISTERED VOTERS - Democratic Party  Precinct 1002                                          00 
00030010003000000000000000000000000000000000000000000000000000000000000000000000000000000000000000000DEM       REGISTERED VOTERS - Democratic Party                    REGISTERED VOTERS - Democratic Party  Precinct 1003                                          00 
00030010004000000000000000000000000000000000000000000000000000000000000000000000000000000000000000000DEM       REGISTERED VOTERS - Democratic Party                    REGISTERED VOTERS - Democratic Party  Precinct 1004                                          00 
00030010005000000000000000000000000000000000000000000000000000000000000000000000000000000000000000000DEM       REGISTERED VOTERS - Democratic Party                    REGISTERED VOTERS - Democratic Party  Precinct 1005                                          00 
00030010006000000000000000000000000000000000000000000000000000000000000000000000000000000000000000000DEM       REGISTERED VOTERS - Democratic Party                    REGISTERED VOTERS - Democratic Party  Precinct 1006                                          00 
00030010007000000000000000000000000000000000000000000000000000000000000000000000000000000000000000000DEM       REGISTERED VOTERS - Democratic Party                    REGISTERED VOTERS - Democratic Party  Precinct 1007                                          00 
00030010008000000000000000000000000000000000000000000000000000000000000000000000000000000000000000000DEM       REGISTERED VOTERS - Democratic Party                    REGISTERED VOTERS - Democratic Party  Precinct 1008                                          00 
00030010009000000000000000000000000000000000000000000000000000000000000000000000000000000000000000000DEM       REGISTERED VOTERS - Democratic Party                    REGISTERED VOTERS - Democratic Party  Precinct 1009                                          00 
00030010010000000000000000000000000000000000000000000000000000000000000000000000000000000000000000000DEM       REGISTERED VOTERS - Democratic Party                    REGISTERED VOTERS - Democratic Party  Precinct 2010                                          00 
00030010011000000000000000000000000000000000000000000000000000000000000000000000000000000000000000000DEM       REGISTERED VOTERS - Democratic Party                    REGISTERED VOTERS - Democratic Party  Precinct 2011                                          00 
00030010012000000000000000000000000000000000000000000000000000000000000000000000000000000000000000000DEM       REGISTERED VOTERS - Democratic Party                    REGISTERED VOTERS - Democratic Party  Precinct 2012                                          00 
00030010013000000000000000000000000000000000000000000000000000000000000000000000000000000000000000000DEM       REGISTERED VOTERS - Democratic Party                    REGISTERED VOTERS - Democratic Party  Precinct 2013                                          00 
00030010014000000000000000000000000000000000000000000000000000000000000000000000000000000000000000000DEM       REGISTERED VOTERS - Democratic Party                    REGISTERED VOTERS - Democratic Party  Precinct 2014                                          00 
00030010015000000000000000000000000000000000000000000000000000000000000000000000000000000000000000000DEM       REGISTERED VOTERS - Democratic Party                    REGISTERED VOTERS - Democratic Party  Precinct 2015                                          00 
00030010016000000000000000000000000000000000000000000000000000000000000000000000000000000000000000000DEM       REGISTERED VOTERS - Democratic Party                    REGISTERED VOTERS - Democratic Party  Precinct 2016                                          00 
00030010017000000000000000000000000000000000000000000000000000000000000000000000000000000000000000000DEM       REGISTERED VOTERS - Democratic Party                    REGISTERED VOTERS - Democratic Party  Precinct 3017                                          00 
00030010018000000000000000000000000000000000000000000000000000000000000000000000000000000000000000000DEM       REGISTERED VOTERS - Democratic Party                    REGISTERED VOTERS - Democratic Party  Precinct 3018                                          00 
00030010019000000000000000000000000000000000000000000000000000000000000000000000000000000000000000000DEM       REGISTERED VOTERS - Democratic Party                    REGISTERED VOTERS - Democratic Party  Precinct 3019                                          00 
00030010020000000000000000000000000000000000000000000000000000000000000000000000000000000000000000000DEM       REGISTERED VOTERS - Democratic Party                    REGISTERED VOTERS - Democratic Party  Precinct 3020                                          00 
00030010021000000000000000000000000000000000000000000000000000000000000000000000000000000000000000000DEM       REGISTERED VOTERS - Democratic Party                    REGISTERED VOTERS - Democratic Party  Precinct 4021                                          00 
00030010022000000000000000000000000000000000000000000000000000000000000000000000000000000000000000000DEM       REGISTERED VOTERS - Democratic Party                    REGISTERED VOTERS - Democratic Party  Precinct 4022                                          00 
00030010023000000000000000000000000000000000000000000000000000000000000000000000000000000000000000000DEM       REGISTERED VOTERS - Democratic Party                    REGISTERED VOTERS - Democratic Party  Precinct 4023                                          00 
00030010024000000000000000000000000000000000000000000000000000000000000000000000000000000000000000000DEM       REGISTERED VOTERS - Democratic Party                    REGISTERED VOTERS - Democratic Party  Precinct 4024                                          00 
00030010025000000000000000000000000000000000000000000000000000000000000000000000000000000000000000000DEM       REGISTERED VOTERS - Democratic Party                    REGISTERED VOTERS - Democratic Party  Precinct 4025                                          00 
00030010026000000000000000000000000000000000000000000000000000000000000000000000000000000000000000000DEM       REGISTERED VOTERS - Democratic Party                    REGISTERED VOTERS - Democratic Party  Precinct 4026                                          00 
00040010001000378000000000000000000000000000000000000000000000000000000000000000000000000000000000000NON       REGISTERED VOTERS - NONPARTISAN                         REGISTERED VOTERS - NONPARTISAN       Precinct 1001                                          00 
00040010002000687000000000000000000000000000000000000000000000000000000000000000000000000000000000000NON       REGISTERED VOTERS - NONPARTISAN                         REGISTERED VOTERS - NONPARTISAN       Precinct 1002                                          00 
00040010003002494000000000000000000000000000000000000000000000000000000000000000000000000000000000000NON       REGISTERED VOTERS - NONPARTISAN                         REGISTERED VOTERS - NONPARTISAN       Precinct 1003                                          00 
00040010004002131000000000000000000000000000000000000000000000000000000000000000000000000000000000000NON       REGISTERED VOTERS - NONPARTISAN                         REGISTERED VOTERS - NONPARTISAN       Precinct 1004                                          00 
00040010005001214000000000000000000000000000000000000000000000000000000000000000000000000000000000000NON       REGISTERED VOTERS - NONPARTISAN                         REGISTERED VOTERS - NONPARTISAN       Precinct 1005                                          00 
00040010006002651000000000000000000000000000000000000000000000000000000000000000000000000000000000000NON       REGISTERED VOTERS - NONPARTISAN                         REGISTERED VOTERS - NONPARTISAN       Precinct 1006                                          00 
00040010007001899000000000000000000000000000000000000000000000000000000000000000000000000000000000000NON       REGISTERED VOTERS - NONPARTISAN                         REGISTERED VOTERS - NONPARTISAN       Precinct 1007                                          00 
00040010008001344000000000000000000000000000000000000000000000000000000000000000000000000000000000000NON       REGISTERED VOTERS - NONPARTISAN                         REGISTERED VOTERS - NONPARTISAN       Precinct 1008                                          00 
00040010009002189000000000000000000000000000000000000000000000000000000000000000000000000000000000000NON       REGISTERED VOTERS - NONPARTISAN                         REGISTERED VOTERS - NONPARTISAN       Precinct 1009                                          00 
00040010010000687000000000000000000000000000000000000000000000000000000000000000000000000000000000000NON       REGISTERED VOTERS - NONPARTISAN                         REGISTERED VOTERS - NONPARTISAN       Precinct 2010                                          00 
00040010011001888000000000000000000000000000000000000000000000000000000000000000000000000000000000000NON       REGISTERED VOTERS - NONPARTISAN                         REGISTERED VOTERS - NONPARTISAN       Precinct 2011                                          00 
00040010012001534000000000000000000000000000000000000000000000000000000000000000000000000000000000000NON       REGISTERED VOTERS - NONPARTISAN                         REGISTERED VOTERS - NONPARTISAN       Precinct 2012                                          00 
00040010013003029000000000000000000000000000000000000000000000000000000000000000000000000000000000000NON       REGISTERED VOTERS - NONPARTISAN                         REGISTERED VOTERS - NONPARTISAN       Precinct 2013                                          00 
00040010014003020000000000000000000000000000000000000000000000000000000000000000000000000000000000000NON       REGISTERED VOTERS - NONPARTISAN                         REGISTERED VOTERS - NONPARTISAN       Precinct 2014                                          00 
00040010015002985000000000000000000000000000000000000000000000000000000000000000000000000000000000000NON       REGISTERED VOTERS - NONPARTISAN                         REGISTERED VOTERS - NONPARTISAN       Precinct 2015                                          00 
00040010016002636000000000000000000000000000000000000000000000000000000000000000000000000000000000000NON       REGISTERED VOTERS - NONPARTISAN                         REGISTERED VOTERS - NONPARTISAN       Precinct 2016                                          00 
00040010017002618000000000000000000000000000000000000000000000000000000000000000000000000000000000000NON       REGISTERED VOTERS - NONPARTISAN                         REGISTERED VOTERS - NONPARTISAN       Precinct 3017                                          00 
00040010018001594000000000000000000000000000000000000000000000000000000000000000000000000000000000000NON       REGISTERED VOTERS - NONPARTISAN                         REGISTERED VOTERS - NONPARTISAN       Precinct 3018                                          00 
00040010019002716000000000000000000000000000000000000000000000000000000000000000000000000000000000000NON       REGISTERED VOTERS - NONPARTISAN                         REGISTERED VOTERS - NONPARTISAN       Precinct 3019                                          00 
00040010020003101000000000000000000000000000000000000000000000000000000000000000000000000000000000000NON       REGISTERED VOTERS - NONPARTISAN                         REGISTERED VOTERS - NONPARTISAN       Precinct 3020                                          00 
00040010021002766000000000000000000000000000000000000000000000000000000000000000000000000000000000000NON       REGISTERED VOTERS - NONPARTISAN                         REGISTERED VOTERS - NONPARTISAN       Precinct 4021                                          00 
00040010022002309000000000000000000000000000000000000000000000000000000000000000000000000000000000000NON       REGISTERED VOTERS - NONPARTISAN                         REGISTERED VOTERS - NONPARTISAN       Precinct 4022                                          00 
00040010023001366000000000000000000000000000000000000000000000000000000000000000000000000000000000000NON       REGISTERED VOTERS - NONPARTISAN                         REGISTERED VOTERS - NONPARTISAN       Precinct 4023                                          00 
00040010024001648000000000000000000000000000000000000000000000000000000000000000000000000000000000000NON       REGISTERED VOTERS - NONPARTISAN                         REGISTERED VOTERS - NONPARTISAN       Precinct 4024                                          00 
00040010025002439000000000000000000000000000000000000000000000000000000000000000000000000000000000000NON       REGISTERED VOTERS - NONPARTISAN                         REGISTERED VOTERS - NONPARTISAN       Precinct 4025                                          00 
00040010026002084000000000000000000000000000000000000000000000000000000000000000000000000000000000000NON       REGISTERED VOTERS - NONPARTISAN                         REGISTERED VOTERS - NONPARTISAN       Precinct 4026                                          00 
00050010001000113000006000066000041000000000000000000000000000000000000000000000000000000000000000000          BALLOTS CAST - TOTAL                                    BALLOTS CAST - TOTAL                  Precinct 1001                                          00 
00050010002000210000016000112000082000000000000000000000000000000000000000000000000000000000000000000          BALLOTS CAST - TOTAL                                    BALLOTS CAST - TOTAL                  Precinct 1002                                          00 
00050010003000621000038000306000277000000000000000000000000000000000000000000000000000000000000000000          BALLOTS CAST - TOTAL                                    BALLOTS CAST - TOTAL                  Precinct 1003                                          00 
00050010004000558000048000288000222000000000000000000000000000000000000000000000000000000000000000000          BALLOTS CAST - TOTAL                                    BALLOTS CAST - TOTAL                  Precinct 1004                                          00 
00050010005000263000028000149000086000000000000000000000000000000000000000000000000000000000000000000          BALLOTS CAST - TOTAL                                    BALLOTS CAST - TOTAL                  Precinct 1005                                          00 
00050010006000380000027000165000188000000000000000000000000000000000000000000000000000000000000000000          BALLOTS CAST - TOTAL                                    BALLOTS CAST - TOTAL                  Precinct 1006                                          00 
00050010007000533000039000296000198000000000000000000000000000000000000000000000000000000000000000000          BALLOTS CAST - TOTAL                                    BALLOTS CAST - TOTAL                  Precinct 1007                                          00 
00050010008000322000023000163000136000000000000000000000000000000000000000000000000000000000000000000          BALLOTS CAST - TOTAL                                    BALLOTS CAST - TOTAL                  Precinct 1008                                          00 
00050010009000456000030000200000226000000000000000000000000000000000000000000000000000000000000000000          BALLOTS CAST - TOTAL                                    BALLOTS CAST - TOTAL                  Precinct 1009                                          00 
00050010010000132000013000057000062000000000000000000000000000000000000000000000000000000000000000000          BALLOTS CAST - TOTAL                                    BALLOTS CAST - TOTAL                  Precinct 2010                                          00 
00050010011000398000033000222000143000000000000000000000000000000000000000000000000000000000000000000          BALLOTS CAST - TOTAL                                    BALLOTS CAST - TOTAL                  Precinct 2011                                          00 
00050010012000517000028000271000218000000000000000000000000000000000000000000000000000000000000000000          BALLOTS CAST - TOTAL                                    BALLOTS CAST - TOTAL                  Precinct 2012                                          00 
00050010013000849000059000395000395000000000000000000000000000000000000000000000000000000000000000000          BALLOTS CAST - TOTAL                                    BALLOTS CAST - TOTAL                  Precinct 2013                                          00 
00050010014000809000053000316000440000000000000000000000000000000000000000000000000000000000000000000          BALLOTS CAST - TOTAL                                    BALLOTS CAST - TOTAL                  Precinct 2014                                          00 
00050010015000873000043000442000388000000000000000000000000000000000000000000000000000000000000000000          BALLOTS CAST - TOTAL                                    BALLOTS CAST - TOTAL                  Precinct 2015                                          00 
00050010016000899000031000422000446000000000000000000000000000000000000000000000000000000000000000000          BALLOTS CAST - TOTAL                                    BALLOTS CAST - TOTAL                  Precinct 2016                                          00 
00050010017000641000038000307000296000000000000000000000000000000000000000000000000000000000000000000          BALLOTS CAST - TOTAL                                    BALLOTS CAST - TOTAL                  Precinct 3017                                          00 
00050010018000491000013000151000327000000000000000000000000000000000000000000000000000000000000000000          BALLOTS CAST - TOTAL                                    BALLOTS CAST - TOTAL                  Precinct 3018                                          00 
00050010019000452000027000223000202000000000000000000000000000000000000000000000000000000000000000000          BALLOTS CAST - TOTAL                                    BALLOTS CAST - TOTAL                  Precinct 3019                                          00 
00050010020000403000032000191000180000000000000000000000000000000000000000000000000000000000000000000          BALLOTS CAST - TOTAL                                    BALLOTS CAST - TOTAL                  Precinct 3020                                          00 
00050010021000665000043000316000306000000000000000000000000000000000000000000000000000000000000000000          BALLOTS CAST - TOTAL                                    BALLOTS CAST - TOTAL                  Precinct 4021                                          00 
00050010022000663000036000369000258000000000000000000000000000000000000000000000000000000000000000000          BALLOTS CAST - TOTAL                                    BALLOTS CAST - TOTAL                  Precinct 4022                                          00 
00050010023000383000026000124000233000000000000000000000000000000000000000000000000000000000000000000          BALLOTS CAST - TOTAL                                    BALLOTS CAST - TOTAL                  Precinct 4023                                          00 
00050010024000403000025000217000161000000000000000000000000000000000000000000000000000000000000000000          BALLOTS CAST - TOTAL                                    BALLOTS CAST - TOTAL                  Precinct 4024                                          00 
00050010025000463000034000262000167000000000000000000000000000000000000000000000000000000000000000000          BALLOTS CAST - TOTAL                                    BALLOTS CAST - TOTAL                  Precinct 4025                                          00 
00050010026000450000023000256000171000000000000000000000000000000000000000000000000000000000000000000          BALLOTS CAST - TOTAL                                    BALLOTS CAST - TOTAL                  Precinct 4026                                          00 
00060010001000078000003000048000027000000000000000000000000000000000000000000000000000000000000000000REP       BALLOTS CAST - Republican Party                         BALLOTS CAST - Republican Party       Precinct 1001                                          00 
00060010002000145000004000078000063000000000000000000000000000000000000000000000000000000000000000000REP       BALLOTS CAST - Republican Party                         BALLOTS CAST - Republican Party       Precinct 1002                                          00 
00060010003000440000016000221000203000000000000000000000000000000000000000000000000000000000000000000REP       BALLOTS CAST - Republican Party                         BALLOTS CAST - Republican Party       Precinct 1003                                          00 
00060010004000314000012000170000132000000000000000000000000000000000000000000000000000000000000000000REP       BALLOTS CAST - Republican Party                         BALLOTS CAST - Republican Party       Precinct 1004                                          00 
00060010005000196000018000118000060000000000000000000000000000000000000000000000000000000000000000000REP       BALLOTS CAST - Republican Party                         BALLOTS CAST - Republican Party       Precinct 1005                                          00 
00060010006000249000011000116000122000000000000000000000000000000000000000000000000000000000000000000REP       BALLOTS CAST - Republican Party                         BALLOTS CAST - Republican Party       Precinct 1006                                          00 
00060010007000386000020000215000151000000000000000000000000000000000000000000000000000000000000000000REP       BALLOTS CAST - Republican Party                         BALLOTS CAST - Republican Party       Precinct 1007                                          00 
00060010008000210000007000113000090000000000000000000000000000000000000000000000000000000000000000000REP       BALLOTS CAST - Republican Party                         BALLOTS CAST - Republican Party       Precinct 1008                                          00 
00060010009000316000012000137000167000000000000000000000000000000000000000000000000000000000000000000REP       BALLOTS CAST - Republican Party                         BALLOTS CAST - Republican Party       Precinct 1009                                          00 
00060010010000088000005000040000043000000000000000000000000000000000000000000000000000000000000000000REP       BALLOTS CAST - Republican Party                         BALLOTS CAST - Republican Party       Precinct 2010                                          00 
00060010011000261000016000150000095000000000000000000000000000000000000000000000000000000000000000000REP       BALLOTS CAST - Republican Party                         BALLOTS CAST - Republican Party       Precinct 2011                                          00 
00060010012000414000022000218000174000000000000000000000000000000000000000000000000000000000000000000REP       BALLOTS CAST - Republican Party                         BALLOTS CAST - Republican Party       Precinct 2012                                          00 
00060010013000623000021000290000312000000000000000000000000000000000000000000000000000000000000000000REP       BALLOTS CAST - Republican Party                         BALLOTS CAST - Republican Party       Precinct 2013                                          00 
00060010014000641000021000245000375000000000000000000000000000000000000000000000000000000000000000000REP       BALLOTS CAST - Republican Party                         BALLOTS CAST - Republican Party       Precinct 2014                                          00 
00060010015000625000022000328000275000000000000000000000000000000000000000000000000000000000000000000REP       BALLOTS CAST - Republican Party                         BALLOTS CAST - Republican Party       Precinct 2015                                          00 
00060010016000767000016000362000389000000000000000000000000000000000000000000000000000000000000000000REP       BALLOTS CAST - Republican Party                         BALLOTS CAST - Republican Party       Precinct 2016                                          00 
00060010017000497000018000228000251000000000000000000000000000000000000000000000000000000000000000000REP       BALLOTS CAST - Republican Party                         BALLOTS CAST - Republican Party       Precinct 3017                                          00 
00060010018000391000006000121000264000000000000000000000000000000000000000000000000000000000000000000REP       BALLOTS CAST - Republican Party                         BALLOTS CAST - Republican Party       Precinct 3018                                          00 
00060010019000299000002000156000141000000000000000000000000000000000000000000000000000000000000000000REP       BALLOTS CAST - Republican Party                         BALLOTS CAST - Republican Party       Precinct 3019                                          00 
00060010020000230000007000107000116000000000000000000000000000000000000000000000000000000000000000000REP       BALLOTS CAST - Republican Party                         BALLOTS CAST - Republican Party       Precinct 3020                                          00 
00060010021000446000017000218000211000000000000000000000000000000000000000000000000000000000000000000REP       BALLOTS CAST - Republican Party                         BALLOTS CAST - Republican Party       Precinct 4021                                          00 
00060010022000477000018000272000187000000000000000000000000000000000000000000000000000000000000000000REP       BALLOTS CAST - Republican Party                         BALLOTS CAST - Republican Party       Precinct 4022                                          00 
00060010023000316000016000103000197000000000000000000000000000000000000000000000000000000000000000000REP       BALLOTS CAST - Republican Party                         BALLOTS CAST - Republican Party       Precinct 4023                                          00 
00060010024000301000010000177000114000000000000000000000000000000000000000000000000000000000000000000REP       BALLOTS CAST - Republican Party                         BALLOTS CAST - Republican Party       Precinct 4024                                          00 
00060010025000231000015000137000079000000000000000000000000000000000000000000000000000000000000000000REP       BALLOTS CAST - Republican Party                         BALLOTS CAST - Republican Party       Precinct 4025                                          00 
00060010026000247000011000143000093000000000000000000000000000000000000000000000000000000000000000000REP       BALLOTS CAST - Republican Party                         BALLOTS CAST - Republican Party       Precinct 4026                                          00 
00070010001000035000003000018000014000000000000000000000000000000000000000000000000000000000000000000DEM       BALLOTS CAST - Democratic Party                         BALLOTS CAST - Democratic Party       Precinct 1001                                          00 
00070010002000065000012000034000019000000000000000000000000000000000000000000000000000000000000000000DEM       BALLOTS CAST - Democratic Party                         BALLOTS CAST - Democratic Party       Precinct 1002                                          00 
00070010003000181000022000085000074000000000000000000000000000000000000000000000000000000000000000000DEM       BALLOTS CAST - Democratic Party                         BALLOTS CAST - Democratic Party       Precinct 1003                                          00 
00070010004000244000036000118000090000000000000000000000000000000000000000000000000000000000000000000DEM       BALLOTS CAST - Democratic Party                         BALLOTS CAST - Democratic Party       Precinct 1004                                          00 
00070010005000067000010000031000026000000000000000000000000000000000000000000000000000000000000000000DEM       BALLOTS CAST - Democratic Party                         BALLOTS CAST - Democratic Party       Precinct 1005                                          00 
00070010006000131000016000049000066000000000000000000000000000000000000000000000000000000000000000000DEM       BALLOTS CAST - Democratic Party                         BALLOTS CAST - Democratic Party       Precinct 1006                                          00 
00070010007000147000019000081000047000000000000000000000000000000000000000000000000000000000000000000DEM       BALLOTS CAST - Democratic Party                         BALLOTS CAST - Democratic Party       Precinct 1007                                          00 
00070010008000112000016000050000046000000000000000000000000000000000000000000000000000000000000000000DEM       BALLOTS CAST - Democratic Party                         BALLOTS CAST - Democratic Party       Precinct 1008                                          00 
00070010009000140000018000063000059000000000000000000000000000000000000000000000000000000000000000000DEM       BALLOTS CAST - Democratic Party                         BALLOTS CAST - Democratic Party       Precinct 1009                                          00 
00070010010000044000008000017000019000000000000000000000000000000000000000000000000000000000000000000DEM       BALLOTS CAST - Democratic Party                         BALLOTS CAST - Democratic Party       Precinct 2010                                          00 
00070010011000137000017000072000048000000000000000000000000000000000000000000000000000000000000000000DEM       BALLOTS CAST - Democratic Party                         BALLOTS CAST - Democratic Party       Precinct 2011                                          00 
00070010012000103000006000053000044000000000000000000000000000000000000000000000000000000000000000000DEM       BALLOTS CAST - Democratic Party                         BALLOTS CAST - Democratic Party       Precinct 2012                                          00 
00070010013000226000038000105000083000000000000000000000000000000000000000000000000000000000000000000DEM       BALLOTS CAST - Democratic Party                         BALLOTS CAST - Democratic Party       Precinct 2013                                          00 
00070010014000168000032000071000065000000000000000000000000000000000000000000000000000000000000000000DEM       BALLOTS CAST - Democratic Party                         BALLOTS CAST - Democratic Party       Precinct 2014                                          00 
00070010015000248000021000114000113000000000000000000000000000000000000000000000000000000000000000000DEM       BALLOTS CAST - Democratic Party                         BALLOTS CAST - Democratic Party       Precinct 2015                                          00 
00070010016000132000015000060000057000000000000000000000000000000000000000000000000000000000000000000DEM       BALLOTS CAST - Democratic Party                         BALLOTS CAST - Democratic Party       Precinct 2016                                          00 
00070010017000144000020000079000045000000000000000000000000000000000000000000000000000000000000000000DEM       BALLOTS CAST - Democratic Party                         BALLOTS CAST - Democratic Party       Precinct 3017                                          00 
00070010018000100000007000030000063000000000000000000000000000000000000000000000000000000000000000000DEM       BALLOTS CAST - Democratic Party                         BALLOTS CAST - Democratic Party       Precinct 3018                                          00 
00070010019000153000025000067000061000000000000000000000000000000000000000000000000000000000000000000DEM       BALLOTS CAST - Democratic Party                         BALLOTS CAST - Democratic Party       Precinct 3019                                          00 
00070010020000173000025000084000064000000000000000000000000000000000000000000000000000000000000000000DEM       BALLOTS CAST - Democratic Party                         BALLOTS CAST - Democratic Party       Precinct 3020                                          00 
00070010021000219000026000098000095000000000000000000000000000000000000000000000000000000000000000000DEM       BALLOTS CAST - Democratic Party                         BALLOTS CAST - Democratic Party       Precinct 4021                                          00 
00070010022000186000018000097000071000000000000000000000000000000000000000000000000000000000000000000DEM       BALLOTS CAST - Democratic Party                         BALLOTS CAST - Democratic Party       Precinct 4022                                          00 
00070010023000067000010000021000036000000000000000000000000000000000000000000000000000000000000000000DEM       BALLOTS CAST - Democratic Party                         BALLOTS CAST - Democratic Party       Precinct 4023                                          00 
00070010024000102000015000040000047000000000000000000000000000000000000000000000000000000000000000000DEM       BALLOTS CAST - Democratic Party                         BALLOTS CAST - Democratic Party       Precinct 4024                                          00 
00070010025000232000019000125000088000000000000000000000000000000000000000000000000000000000000000000DEM       BALLOTS CAST - Democratic Party                         BALLOTS CAST - Democratic Party       Precinct 4025                                          00 
00070010026000203000012000113000078000000000000000000000000000000000000000000000000000000000000000000DEM       BALLOTS CAST - Democratic Party                         BALLOTS CAST - Democratic Party       Precinct 4026                                          00 
00080010001000000000000000000000000000000000000000000000000000000000000000000000000000000000000000000NON       BALLOTS CAST - NONPARTISAN                              BALLOTS CAST - NONPARTISAN            Precinct 1001                                          00 
00080010002000000000000000000000000000000000000000000000000000000000000000000000000000000000000000000NON       BALLOTS CAST - NONPARTISAN                              BALLOTS CAST - NONPARTISAN            Precinct 1002                                          00 
00080010003000000000000000000000000000000000000000000000000000000000000000000000000000000000000000000NON       BALLOTS CAST - NONPARTISAN                              BALLOTS CAST - NONPARTISAN            Precinct 1003                                          00 
00080010004000000000000000000000000000000000000000000000000000000000000000000000000000000000000000000NON       BALLOTS CAST - NONPARTISAN                              BALLOTS CAST - NONPARTISAN            Precinct 1004                                          00 
00080010005000000000000000000000000000000000000000000000000000000000000000000000000000000000000000000NON       BALLOTS CAST - NONPARTISAN                              BALLOTS CAST - NONPARTISAN            Precinct 1005                                          00 
00080010006000000000000000000000000000000000000000000000000000000000000000000000000000000000000000000NON       BALLOTS CAST - NONPARTISAN                              BALLOTS CAST - NONPARTISAN            Precinct 1006                                          00 
00080010007000000000000000000000000000000000000000000000000000000000000000000000000000000000000000000NON       BALLOTS CAST - NONPARTISAN                              BALLOTS CAST - NONPARTISAN            Precinct 1007                                          00 
00080010008000000000000000000000000000000000000000000000000000000000000000000000000000000000000000000NON       BALLOTS CAST - NONPARTISAN                              BALLOTS CAST - NONPARTISAN            Precinct 1008                                          00 
00080010009000000000000000000000000000000000000000000000000000000000000000000000000000000000000000000NON       BALLOTS CAST - NONPARTISAN                              BALLOTS CAST - NONPARTISAN            Precinct 1009                                          00 
00080010010000000000000000000000000000000000000000000000000000000000000000000000000000000000000000000NON       BALLOTS CAST - NONPARTISAN                              BALLOTS CAST - NONPARTISAN            Precinct 2010                                          00 
00080010011000000000000000000000000000000000000000000000000000000000000000000000000000000000000000000NON       BALLOTS CAST - NONPARTISAN                              BALLOTS CAST - NONPARTISAN            Precinct 2011                                          00 
00080010012000000000000000000000000000000000000000000000000000000000000000000000000000000000000000000NON       BALLOTS CAST - NONPARTISAN                              BALLOTS CAST - NONPARTISAN            Precinct 2012                                          00 
00080010013000000000000000000000000000000000000000000000000000000000000000000000000000000000000000000NON       BALLOTS CAST - NONPARTISAN                              BALLOTS CAST - NONPARTISAN            Precinct 2013                                          00 
00080010014000000000000000000000000000000000000000000000000000000000000000000000000000000000000000000NON       BALLOTS CAST - NONPARTISAN                              BALLOTS CAST - NONPARTISAN            Precinct 2014                                          00 
00080010015000000000000000000000000000000000000000000000000000000000000000000000000000000000000000000NON       BALLOTS CAST - NONPARTISAN                              BALLOTS CAST - NONPARTISAN            Precinct 2015                                          00 
00080010016000000000000000000000000000000000000000000000000000000000000000000000000000000000000000000NON       BALLOTS CAST - NONPARTISAN                              BALLOTS CAST - NONPARTISAN            Precinct 2016                                          00 
00080010017000000000000000000000000000000000000000000000000000000000000000000000000000000000000000000NON       BALLOTS CAST - NONPARTISAN                              BALLOTS CAST - NONPARTISAN            Precinct 3017                                          00 
00080010018000000000000000000000000000000000000000000000000000000000000000000000000000000000000000000NON       BALLOTS CAST - NONPARTISAN                              BALLOTS CAST - NONPARTISAN            Precinct 3018                                          00 
00080010019000000000000000000000000000000000000000000000000000000000000000000000000000000000000000000NON       BALLOTS CAST - NONPARTISAN                              BALLOTS CAST - NONPARTISAN            Precinct 3019                                          00 
00080010020000000000000000000000000000000000000000000000000000000000000000000000000000000000000000000NON       BALLOTS CAST - NONPARTISAN                              BALLOTS CAST - NONPARTISAN            Precinct 3020                                          00 
00080010021000000000000000000000000000000000000000000000000000000000000000000000000000000000000000000NON       BALLOTS CAST - NONPARTISAN                              BALLOTS CAST - NONPARTISAN            Precinct 4021                                          00 
00080010022000000000000000000000000000000000000000000000000000000000000000000000000000000000000000000NON       BALLOTS CAST - NONPARTISAN                              BALLOTS CAST - NONPARTISAN            Precinct 4022                                          00 
00080010023000000000000000000000000000000000000000000000000000000000000000000000000000000000000000000NON       BALLOTS CAST - NONPARTISAN                              BALLOTS CAST - NONPARTISAN            Precinct 4023                                          00 
00080010024000000000000000000000000000000000000000000000000000000000000000000000000000000000000000000NON       BALLOTS CAST - NONPARTISAN                              BALLOTS CAST - NONPARTISAN            Precinct 4024                                          00 
00080010025000000000000000000000000000000000000000000000000000000000000000000000000000000000000000000NON       BALLOTS CAST - NONPARTISAN                              BALLOTS CAST - NONPARTISAN            Precinct 4025                                          00 
00080010026000000000000000000000000000000000000000000000000000000000000000000000000000000000000000000NON       BALLOTS CAST - NONPARTISAN                              BALLOTS CAST - NONPARTISAN            Precinct 4026                                          00 
00090010001000000000000000000000000000000000000000000000000000000000000000000000000000000000000000000          BALLOTS CAST - BLANK                                    BALLOTS CAST - BLANK                  Precinct 1001                                          00 
00090010002000000000000000000000000000000000000000000000000000000000000000000000000000000000000000000          BALLOTS CAST - BLANK                                    BALLOTS CAST - BLANK                  Precinct 1002                                          00 
00090010003000000000000000000000000000000000000000000000000000000000000000000000000000000000000000000          BALLOTS CAST - BLANK                                    BALLOTS CAST - BLANK                  Precinct 1003                                          00 
00090010004000000000000000000000000000000000000000000000000000000000000000000000000000000000000000000          BALLOTS CAST - BLANK                                    BALLOTS CAST - BLANK                  Precinct 1004                                          00 
00090010005000000000000000000000000000000000000000000000000000000000000000000000000000000000000000000          BALLOTS CAST - BLANK                                    BALLOTS CAST - BLANK                  Precinct 1005                                          00 
00090010006000000000000000000000000000000000000000000000000000000000000000000000000000000000000000000          BALLOTS CAST - BLANK                                    BALLOTS CAST - BLANK                  Precinct 1006                                          00 
00090010007000000000000000000000000000000000000000000000000000000000000000000000000000000000000000000          BALLOTS CAST - BLANK                                    BALLOTS CAST - BLANK                  Precinct 1007                                          00 
00090010008000001000000000001000000000000000000000000000000000000000000000000000000000000000000000000          BALLOTS CAST - BLANK                                    BALLOTS CAST - BLANK                  Precinct 1008                                          00 
00090010009000000000000000000000000000000000000000000000000000000000000000000000000000000000000000000          BALLOTS CAST - BLANK                                    BALLOTS CAST - BLANK                  Precinct 1009                                          00 
00090010010000000000000000000000000000000000000000000000000000000000000000000000000000000000000000000          BALLOTS CAST - BLANK                                    BALLOTS CAST - BLANK                  Precinct 2010                                          00 
00090010011000000000000000000000000000000000000000000000000000000000000000000000000000000000000000000          BALLOTS CAST - BLANK                                    BALLOTS CAST - BLANK                  Precinct 2011                                          00 
00090010012000000000000000000000000000000000000000000000000000000000000000000000000000000000000000000          BALLOTS CAST - BLANK                                    BALLOTS CAST - BLANK                  Precinct 2012                                          00 
00090010013000000000000000000000000000000000000000000000000000000000000000000000000000000000000000000          BALLOTS CAST - BLANK                                    BALLOTS CAST - BLANK                  Precinct 2013                                          00 
00090010014000000000000000000000000000000000000000000000000000000000000000000000000000000000000000000          BALLOTS CAST - BLANK                                    BALLOTS CAST - BLANK                  Precinct 2014                                          00 
00090010015000000000000000000000000000000000000000000000000000000000000000000000000000000000000000000          BALLOTS CAST - BLANK                                    BALLOTS CAST - BLANK                  Precinct 2015                                          00 
00090010016000001000000000000000001000000000000000000000000000000000000000000000000000000000000000000          BALLOTS CAST - BLANK                                    BALLOTS CAST - BLANK                  Precinct 2016                                          00 
00090010017000000000000000000000000000000000000000000000000000000000000000000000000000000000000000000          BALLOTS CAST - BLANK                                    BALLOTS CAST - BLANK                  Precinct 3017                                          00 
00090010018000000000000000000000000000000000000000000000000000000000000000000000000000000000000000000          BALLOTS CAST - BLANK                                    BALLOTS CAST - BLANK                  Precinct 3018                                          00 
00090010019000000000000000000000000000000000000000000000000000000000000000000000000000000000000000000          BALLOTS CAST - BLANK                                    BALLOTS CAST - BLANK                  Precinct 3019                                          00 
00090010020000000000000000000000000000000000000000000000000000000000000000000000000000000000000000000          BALLOTS CAST - BLANK                                    BALLOTS CAST - BLANK                  Precinct 3020                                          00 
00090010021000000000000000000000000000000000000000000000000000000000000000000000000000000000000000000          BALLOTS CAST - BLANK                                    BALLOTS CAST - BLANK                  Precinct 4021                                          00 
00090010022000000000000000000000000000000000000000000000000000000000000000000000000000000000000000000          BALLOTS CAST - BLANK                                    BALLOTS CAST - BLANK                  Precinct 4022                                          00 
00090010023000000000000000000000000000000000000000000000000000000000000000000000000000000000000000000          BALLOTS CAST - BLANK                                    BALLOTS CAST - BLANK                  Precinct 4023                                          00 
00090010024000000000000000000000000000000000000000000000000000000000000000000000000000000000000000000          BALLOTS CAST - BLANK                                    BALLOTS CAST - BLANK                  Precinct 4024                                          00 
00090010025000000000000000000000000000000000000000000000000000000000000000000000000000000000000000000          BALLOTS CAST - BLANK                                    BALLOTS CAST - BLANK                  Precinct 4025                                          00 
00090010026000000000000000000000000000000000000000000000000000000000000000000000000000000000000000000          BALLOTS CAST - BLANK                                    BALLOTS CAST - BLANK                  Precinct 4026                                          00 
00100010003000370000011000189000170000000000000000000000000000000000000000000000000000000000000000000REPUSR010 REP US Rep, District 10                                 Michael McCaul                        Precinct 1003                 District 10              01 
00100010004000249000011000131000107000000000000000000000000000000000000000000000000000000000000000000REPUSR010 REP US Rep, District 10                                 Michael McCaul                        Precinct 1004                 District 10              01 
00100010006000221000009000106000106000000000000000000000000000000000000000000000000000000000000000000REPUSR010 REP US Rep, District 10                                 Michael McCaul                        Precinct 1006                 District 10              01 
00100010010000062000002000033000027000000000000000000000000000000000000000000000000000000000000000000REPUSR010 REP US Rep, District 10                                 Michael McCaul                        Precinct 2010                 District 10              01 
00100010013000511000014000248000249000000000000000000000000000000000000000000000000000000000000000000REPUSR010 REP US Rep, District 10                                 Michael McCaul                        Precinct 2013                 District 10              01 
00100010014000536000020000204000312000000000000000000000000000000000000000000000000000000000000000000REPUSR010 REP US Rep, District 10                                 Michael McCaul                        Precinct 2014                 District 10              01 
00100010015000494000017000270000207000000000000000000000000000000000000000000000000000000000000000000REPUSR010 REP US Rep, District 10                                 Michael McCaul                        Precinct 2015                 District 10              01 
00100010021000390000014000186000190000000000000000000000000000000000000000000000000000000000000000000REPUSR010 REP US Rep, District 10                                 Michael McCaul                        Precinct 4021                 District 10              01 
00100010022000408000012000234000162000000000000000000000000000000000000000000000000000000000000000000REPUSR010 REP US Rep, District 10                                 Michael McCaul                        Precinct 4022                 District 10              01 
00100010023000281000016000093000172000000000000000000000000000000000000000000000000000000000000000000REPUSR010 REP US Rep, District 10                                 Michael McCaul                        Precinct 4023                 District 10              01 
00100010024000263000010000154000099000000000000000000000000000000000000000000000000000000000000000000REPUSR010 REP US Rep, District 10                                 Michael McCaul                        Precinct 4024                 District 10              01 
00100010025000188000011000111000066000000000000000000000000000000000000000000000000000000000000000000REPUSR010 REP US Rep, District 10                                 Michael McCaul                        Precinct 4025                 District 10              01 
00100010026000219000009000129000081000000000000000000000000000000000000000000000000000000000000000000REPUSR010 REP US Rep, District 10                                 Michael McCaul                        Precinct 4026                 District 10              01 
00100020003000000000000000000000000000000000000000000000000000000000000000000000000000000000000000000   USR010 REP US Rep, District 10                                 OVER VOTES                            Precinct 1003                 District 10              01 
00100020004000000000000000000000000000000000000000000000000000000000000000000000000000000000000000000   USR010 REP US Rep, District 10                                 OVER VOTES                            Precinct 1004                 District 10              01 
00100020006000000000000000000000000000000000000000000000000000000000000000000000000000000000000000000   USR010 REP US Rep, District 10                                 OVER VOTES                            Precinct 1006                 District 10              01 
00100020010000000000000000000000000000000000000000000000000000000000000000000000000000000000000000000   USR010 REP US Rep, District 10                                 OVER VOTES                            Precinct 2010                 District 10              01 
00100020013000000000000000000000000000000000000000000000000000000000000000000000000000000000000000000   USR010 REP US Rep, District 10                                 OVER VOTES                            Precinct 2013                 District 10              01 
00100020014000000000000000000000000000000000000000000000000000000000000000000000000000000000000000000   USR010 REP US Rep, District 10                                 OVER VOTES                            Precinct 2014                 District 10              01 
00100020015000000000000000000000000000000000000000000000000000000000000000000000000000000000000000000   USR010 REP US Rep, District 10                                 OVER VOTES                            Precinct 2015                 District 10              01 
00100020021000000000000000000000000000000000000000000000000000000000000000000000000000000000000000000   USR010 REP US Rep, District 10                                 OVER VOTES                            Precinct 4021                 District 10              01 
00100020022000000000000000000000000000000000000000000000000000000000000000000000000000000000000000000   USR010 REP US Rep, District 10                                 OVER VOTES                            Precinct 4022                 District 10              01 
00100020023000000000000000000000000000000000000000000000000000000000000000000000000000000000000000000   USR010 REP US Rep, District 10                                 OVER VOTES                            Precinct 4023                 District 10              01 
00100020024000000000000000000000000000000000000000000000000000000000000000000000000000000000000000000   USR010 REP US Rep, District 10                                 OVER VOTES                            Precinct 4024                 District 10              01 
00100020025000000000000000000000000000000000000000000000000000000000000000000000000000000000000000000   USR010 REP US Rep, District 10                                 OVER VOTES                            Precinct 4025                 District 10              01 
00100020026000000000000000000000000000000000000000000000000000000000000000000000000000000000000000000   USR010 REP US Rep, District 10                                 OVER VOTES                            Precinct 4026                 District 10              01 
00100030003000070000005000032000033000000000000000000000000000000000000000000000000000000000000000000   USR010 REP US Rep, District 10                                 UNDER VOTES                           Precinct 1003                 District 10              01 
00100030004000065000001000039000025000000000000000000000000000000000000000000000000000000000000000000   USR010 REP US Rep, District 10                                 UNDER VOTES                           Precinct 1004                 District 10              01 
00100030006000028000002000010000016000000000000000000000000000000000000000000000000000000000000000000   USR010 REP US Rep, District 10                                 UNDER VOTES                           Precinct 1006                 District 10              01 
00100030010000026000003000007000016000000000000000000000000000000000000000000000000000000000000000000   USR010 REP US Rep, District 10                                 UNDER VOTES                           Precinct 2010                 District 10              01 
00100030013000112000007000042000063000000000000000000000000000000000000000000000000000000000000000000   USR010 REP US Rep, District 10                                 UNDER VOTES                           Precinct 2013                 District 10              01 
00100030014000105000001000041000063000000000000000000000000000000000000000000000000000000000000000000   USR010 REP US Rep, District 10                                 UNDER VOTES                           Precinct 2014                 District 10              01 
00100030015000131000005000058000068000000000000000000000000000000000000000000000000000000000000000000   USR010 REP US Rep, District 10                                 UNDER VOTES                           Precinct 2015                 District 10              01 
00100030021000056000003000032000021000000000000000000000000000000000000000000000000000000000000000000   USR010 REP US Rep, District 10                                 UNDER VOTES                           Precinct 4021                 District 10              01 
00100030022000069000006000038000025000000000000000000000000000000000000000000000000000000000000000000   USR010 REP US Rep, District 10                                 UNDER VOTES                           Precinct 4022                 District 10              01 
00100030023000035000000000010000025000000000000000000000000000000000000000000000000000000000000000000   USR010 REP US Rep, District 10                                 UNDER VOTES                           Precinct 4023                 District 10              01 
00100030024000038000000000023000015000000000000000000000000000000000000000000000000000000000000000000   USR010 REP US Rep, District 10                                 UNDER VOTES                           Precinct 4024                 District 10              01 
00100030025000043000004000026000013000000000000000000000000000000000000000000000000000000000000000000   USR010 REP US Rep, District 10                                 UNDER VOTES                           Precinct 4025                 District 10              01 
00100030026000028000002000014000012000000000000000000000000000000000000000000000000000000000000000000   USR010 REP US Rep, District 10                                 UNDER VOTES                           Precinct 4026                 District 10              01 
00110010001000049000003000028000018000000000000000000000000000000000000000000000000000000000000000000REPUSR027 REP US Rep, District 27                                 Michael Cloud                         Precinct 1001                 District 27              01 
00110010002000083000002000047000034000000000000000000000000000000000000000000000000000000000000000000REPUSR027 REP US Rep, District 27                                 Michael Cloud                         Precinct 1002                 District 27              01 
00110010005000146000009000096000041000000000000000000000000000000000000000000000000000000000000000000REPUSR027 REP US Rep, District 27                                 Michael Cloud                         Precinct 1005                 District 27              01 
00110010007000271000012000161000098000000000000000000000000000000000000000000000000000000000000000000REPUSR027 REP US Rep, District 27                                 Michael Cloud                         Precinct 1007                 District 27              01 
00110010008000142000005000078000059000000000000000000000000000000000000000000000000000000000000000000REPUSR027 REP US Rep, District 27                                 Michael Cloud                         Precinct 1008                 District 27              01 
00110010009000211000011000093000107000000000000000000000000000000000000000000000000000000000000000000REPUSR027 REP US Rep, District 27                                 Michael Cloud                         Precinct 1009                 District 27              01 
00110010011000163000008000099000056000000000000000000000000000000000000000000000000000000000000000000REPUSR027 REP US Rep, District 27                                 Michael Cloud                         Precinct 2011                 District 27              01 
00110010012000276000014000150000112000000000000000000000000000000000000000000000000000000000000000000REPUSR027 REP US Rep, District 27                                 Michael Cloud                         Precinct 2012                 District 27              01 
00110010016000516000014000252000250000000000000000000000000000000000000000000000000000000000000000000REPUSR027 REP US Rep, District 27                                 Michael Cloud                         Precinct 2016                 District 27              01 
00110010017000350000014000160000176000000000000000000000000000000000000000000000000000000000000000000REPUSR027 REP US Rep, District 27                                 Michael Cloud                         Precinct 3017                 District 27              01 
00110010018000284000005000093000186000000000000000000000000000000000000000000000000000000000000000000REPUSR027 REP US Rep, District 27                                 Michael Cloud                         Precinct 3018                 District 27              01 
00110010019000220000001000116000103000000000000000000000000000000000000000000000000000000000000000000REPUSR027 REP US Rep, District 27                                 Michael Cloud                         Precinct 3019                 District 27              01 
00110010020000169000007000084000078000000000000000000000000000000000000000000000000000000000000000000REPUSR027 REP US Rep, District 27                                 Michael Cloud                         Precinct 3020                 District 27              01 
00110020001000006000000000004000002000000000000000000000000000000000000000000000000000000000000000000REPUSR027 REP US Rep, District 27                                 AJ Louderback                         Precinct 1001                 District 27              01 
00110020002000016000000000007000009000000000000000000000000000000000000000000000000000000000000000000REPUSR027 REP US Rep, District 27                                 AJ Louderback                         Precinct 1002                 District 27              01 
00110020005000009000002000004000003000000000000000000000000000000000000000000000000000000000000000000REPUSR027 REP US Rep, District 27                                 AJ Louderback                         Precinct 1005                 District 27              01 
00110020007000027000002000010000015000000000000000000000000000000000000000000000000000000000000000000REPUSR027 REP US Rep, District 27                                 AJ Louderback                         Precinct 1007                 District 27              01 
00110020008000019000001000009000009000000000000000000000000000000000000000000000000000000000000000000REPUSR027 REP US Rep, District 27                                 AJ Louderback                         Precinct 1008                 District 27              01 
00110020009000033000001000014000018000000000000000000000000000000000000000000000000000000000000000000REPUSR027 REP US Rep, District 27                                 AJ Louderback                         Precinct 1009                 District 27              01 
00110020011000022000003000010000009000000000000000000000000000000000000000000000000000000000000000000REPUSR027 REP US Rep, District 27                                 AJ Louderback                         Precinct 2011                 District 27              01 
00110020012000037000006000014000017000000000000000000000000000000000000000000000000000000000000000000REPUSR027 REP US Rep, District 27                                 AJ Louderback                         Precinct 2012                 District 27              01 
00110020016000059000000000028000031000000000000000000000000000000000000000000000000000000000000000000REPUSR027 REP US Rep, District 27                                 AJ Louderback                         Precinct 2016                 District 27              01 
00110020017000032000002000017000013000000000000000000000000000000000000000000000000000000000000000000REPUSR027 REP US Rep, District 27                                 AJ Louderback                         Precinct 3017                 District 27              01 
00110020018000028000000000007000021000000000000000000000000000000000000000000000000000000000000000000REPUSR027 REP US Rep, District 27                                 AJ Louderback                         Precinct 3018                 District 27              01 
00110020019000020000001000007000012000000000000000000000000000000000000000000000000000000000000000000REPUSR027 REP US Rep, District 27                                 AJ Louderback                         Precinct 3019                 District 27              01 
00110020020000014000000000007000007000000000000000000000000000000000000000000000000000000000000000000REPUSR027 REP US Rep, District 27                                 AJ Louderback                         Precinct 3020                 District 27              01 
00110030001000008000000000006000002000000000000000000000000000000000000000000000000000000000000000000REPUSR027 REP US Rep, District 27                                 Chris Mapp                            Precinct 1001                 District 27              01 
00110030002000013000002000005000006000000000000000000000000000000000000000000000000000000000000000000REPUSR027 REP US Rep, District 27                                 Chris Mapp                            Precinct 1002                 District 27              01 
00110030005000007000001000003000003000000000000000000000000000000000000000000000000000000000000000000REPUSR027 REP US Rep, District 27                                 Chris Mapp                            Precinct 1005                 District 27              01 
00110030007000024000000000013000011000000000000000000000000000000000000000000000000000000000000000000REPUSR027 REP US Rep, District 27                                 Chris Mapp                            Precinct 1007                 District 27              01 
00110030008000013000001000006000006000000000000000000000000000000000000000000000000000000000000000000REPUSR027 REP US Rep, District 27                                 Chris Mapp                            Precinct 1008                 District 27              01 
00110030009000017000000000008000009000000000000000000000000000000000000000000000000000000000000000000REPUSR027 REP US Rep, District 27                                 Chris Mapp                            Precinct 1009                 District 27              01 
00110030011000012000002000005000005000000000000000000000000000000000000000000000000000000000000000000REPUSR027 REP US Rep, District 27                                 Chris Mapp                            Precinct 2011                 District 27              01 
00110030012000030000000000018000012000000000000000000000000000000000000000000000000000000000000000000REPUSR027 REP US Rep, District 27                                 Chris Mapp                            Precinct 2012                 District 27              01 
00110030016000050000001000023000026000000000000000000000000000000000000000000000000000000000000000000REPUSR027 REP US Rep, District 27                                 Chris Mapp                            Precinct 2016                 District 27              01 
00110030017000021000000000013000008000000000000000000000000000000000000000000000000000000000000000000REPUSR027 REP US Rep, District 27                                 Chris Mapp                            Precinct 3017                 District 27              01 
00110030018000016000001000003000012000000000000000000000000000000000000000000000000000000000000000000REPUSR027 REP US Rep, District 27                                 Chris Mapp                            Precinct 3018                 District 27              01 
00110030019000019000000000014000005000000000000000000000000000000000000000000000000000000000000000000REPUSR027 REP US Rep, District 27                                 Chris Mapp                            Precinct 3019                 District 27              01 
00110030020000013000000000004000009000000000000000000000000000000000000000000000000000000000000000000REPUSR027 REP US Rep, District 27                                 Chris Mapp                            Precinct 3020                 District 27              01 
00110040001000002000000000002000000000000000000000000000000000000000000000000000000000000000000000000REPUSR027 REP US Rep, District 27                                 Eric Mireles                          Precinct 1001                 District 27              01 
00110040002000006000000000004000002000000000000000000000000000000000000000000000000000000000000000000REPUSR027 REP US Rep, District 27                                 Eric Mireles                          Precinct 1002                 District 27              01 
00110040005000006000000000003000003000000000000000000000000000000000000000000000000000000000000000000REPUSR027 REP US Rep, District 27                                 Eric Mireles                          Precinct 1005                 District 27              01 
00110040007000011000002000004000005000000000000000000000000000000000000000000000000000000000000000000REPUSR027 REP US Rep, District 27                                 Eric Mireles                          Precinct 1007                 District 27              01 
00110040008000003000000000001000002000000000000000000000000000000000000000000000000000000000000000000REPUSR027 REP US Rep, District 27                                 Eric Mireles                          Precinct 1008                 District 27              01 
00110040009000005000000000002000003000000000000000000000000000000000000000000000000000000000000000000REPUSR027 REP US Rep, District 27                                 Eric Mireles                          Precinct 1009                 District 27              01 
00110040011000009000000000006000003000000000000000000000000000000000000000000000000000000000000000000REPUSR027 REP US Rep, District 27                                 Eric Mireles                          Precinct 2011                 District 27              01 
00110040012000008000000000003000005000000000000000000000000000000000000000000000000000000000000000000REPUSR027 REP US Rep, District 27                                 Eric Mireles                          Precinct 2012                 District 27              01 
00110040016000009000000000003000006000000000000000000000000000000000000000000000000000000000000000000REPUSR027 REP US Rep, District 27                                 Eric Mireles                          Precinct 2016                 District 27              01 
00110040017000008000000000003000005000000000000000000000000000000000000000000000000000000000000000000REPUSR027 REP US Rep, District 27                                 Eric Mireles                          Precinct 3017                 District 27              01 
00110040018000004000000000001000003000000000000000000000000000000000000000000000000000000000000000000REPUSR027 REP US Rep, District 27                                 Eric Mireles                          Precinct 3018                 District 27              01 
00110040019000011000000000007000004000000000000000000000000000000000000000000000000000000000000000000REPUSR027 REP US Rep, District 27                                 Eric Mireles                          Precinct 3019                 District 27              01 
00110040020000004000000000001000003000000000000000000000000000000000000000000000000000000000000000000REPUSR027 REP US Rep, District 27                                 Eric Mireles                          Precinct 3020                 District 27              01 
00110050001000003000000000001000002000000000000000000000000000000000000000000000000000000000000000000REPUSR027 REP US Rep, District 27                                 Andrew Alvarez                        Precinct 1001                 District 27              01 
00110050002000012000000000008000004000000000000000000000000000000000000000000000000000000000000000000REPUSR027 REP US Rep, District 27                                 Andrew Alvarez                        Precinct 1002                 District 27              01 
00110050005000008000000000005000003000000000000000000000000000000000000000000000000000000000000000000REPUSR027 REP US Rep, District 27                                 Andrew Alvarez                        Precinct 1005                 District 27              01 
00110050007000022000001000010000011000000000000000000000000000000000000000000000000000000000000000000REPUSR027 REP US Rep, District 27                                 Andrew Alvarez                        Precinct 1007                 District 27              01 
00110050008000015000000000010000005000000000000000000000000000000000000000000000000000000000000000000REPUSR027 REP US Rep, District 27                                 Andrew Alvarez                        Precinct 1008                 District 27              01 
00110050009000015000000000008000007000000000000000000000000000000000000000000000000000000000000000000REPUSR027 REP US Rep, District 27                                 Andrew Alvarez                        Precinct 1009                 District 27              01 
00110050011000013000002000005000006000000000000000000000000000000000000000000000000000000000000000000REPUSR027 REP US Rep, District 27                                 Andrew Alvarez                        Precinct 2011                 District 27              01 
00110050012000012000001000003000008000000000000000000000000000000000000000000000000000000000000000000REPUSR027 REP US Rep, District 27                                 Andrew Alvarez                        Precinct 2012                 District 27              01 
00110050016000025000000000008000017000000000000000000000000000000000000000000000000000000000000000000REPUSR027 REP US Rep, District 27                                 Andrew Alvarez                        Precinct 2016                 District 27              01 
00110050017000018000002000008000008000000000000000000000000000000000000000000000000000000000000000000REPUSR027 REP US Rep, District 27                                 Andrew Alvarez                        Precinct 3017                 District 27              01 
00110050018000010000000000004000006000000000000000000000000000000000000000000000000000000000000000000REPUSR027 REP US Rep, District 27                                 Andrew Alvarez                        Precinct 3018                 District 27              01 
00110050019000018000000000007000011000000000000000000000000000000000000000000000000000000000000000000REPUSR027 REP US Rep, District 27                                 Andrew Alvarez                        Precinct 3019                 District 27              01 
00110050020000011000000000006000005000000000000000000000000000000000000000000000000000000000000000000REPUSR027 REP US Rep, District 27                                 Andrew Alvarez                        Precinct 3020                 District 27              01 
00110060001000000000000000000000000000000000000000000000000000000000000000000000000000000000000000000   USR027 REP US Rep, District 27                                 OVER VOTES                            Precinct 1001                 District 27              01 
00110060002000000000000000000000000000000000000000000000000000000000000000000000000000000000000000000   USR027 REP US Rep, District 27                                 OVER VOTES                            Precinct 1002                 District 27              01 
00110060005000000000000000000000000000000000000000000000000000000000000000000000000000000000000000000   USR027 REP US Rep, District 27                                 OVER VOTES                            Precinct 1005                 District 27              01 
00110060007000000000000000000000000000000000000000000000000000000000000000000000000000000000000000000   USR027 REP US Rep, District 27                                 OVER VOTES                            Precinct 1007                 District 27              01 
00110060008000000000000000000000000000000000000000000000000000000000000000000000000000000000000000000   USR027 REP US Rep, District 27                                 OVER VOTES                            Precinct 1008                 District 27              01 
00110060009000000000000000000000000000000000000000000000000000000000000000000000000000000000000000000   USR027 REP US Rep, District 27                                 OVER VOTES                            Precinct 1009                 District 27              01 
00110060011000000000000000000000000000000000000000000000000000000000000000000000000000000000000000000   USR027 REP US Rep, District 27                                 OVER VOTES                            Precinct 2011                 District 27              01 
00110060012000000000000000000000000000000000000000000000000000000000000000000000000000000000000000000   USR027 REP US Rep, District 27                                 OVER VOTES                            Precinct 2012                 District 27              01 
00110060016000000000000000000000000000000000000000000000000000000000000000000000000000000000000000000   USR027 REP US Rep, District 27                                 OVER VOTES                            Precinct 2016                 District 27              01 
00110060017000000000000000000000000000000000000000000000000000000000000000000000000000000000000000000   USR027 REP US Rep, District 27                                 OVER VOTES                            Precinct 3017                 District 27              01 
00110060018000000000000000000000000000000000000000000000000000000000000000000000000000000000000000000   USR027 REP US Rep, District 27                                 OVER VOTES                            Precinct 3018                 District 27              01 
00110060019000000000000000000000000000000000000000000000000000000000000000000000000000000000000000000   USR027 REP US Rep, District 27                                 OVER VOTES                            Precinct 3019                 District 27              01 
00110060020000000000000000000000000000000000000000000000000000000000000000000000000000000000000000000   USR027 REP US Rep, District 27                                 OVER VOTES                            Precinct 3020                 District 27              01 
00110070001000010000000000007000003000000000000000000000000000000000000000000000000000000000000000000   USR027 REP US Rep, District 27                                 UNDER VOTES                           Precinct 1001                 District 27              01 
00110070002000015000000000007000008000000000000000000000000000000000000000000000000000000000000000000   USR027 REP US Rep, District 27                                 UNDER VOTES                           Precinct 1002                 District 27              01 
00110070005000020000006000007000007000000000000000000000000000000000000000000000000000000000000000000   USR027 REP US Rep, District 27                                 UNDER VOTES                           Precinct 1005                 District 27              01 
00110070007000031000003000017000011000000000000000000000000000000000000000000000000000000000000000000   USR027 REP US Rep, District 27                                 UNDER VOTES                           Precinct 1007                 District 27              01 
00110070008000018000000000009000009000000000000000000000000000000000000000000000000000000000000000000   USR027 REP US Rep, District 27                                 UNDER VOTES                           Precinct 1008                 District 27              01 
00110070009000035000000000012000023000000000000000000000000000000000000000000000000000000000000000000   USR027 REP US Rep, District 27                                 UNDER VOTES                           Precinct 1009                 District 27              01 
00110070011000042000001000025000016000000000000000000000000000000000000000000000000000000000000000000   USR027 REP US Rep, District 27                                 UNDER VOTES                           Precinct 2011                 District 27              01 
00110070012000051000001000030000020000000000000000000000000000000000000000000000000000000000000000000   USR027 REP US Rep, District 27                                 UNDER VOTES                           Precinct 2012                 District 27              01 
00110070016000108000001000048000059000000000000000000000000000000000000000000000000000000000000000000   USR027 REP US Rep, District 27                                 UNDER VOTES                           Precinct 2016                 District 27              01 
00110070017000068000000000027000041000000000000000000000000000000000000000000000000000000000000000000   USR027 REP US Rep, District 27                                 UNDER VOTES                           Precinct 3017                 District 27              01 
00110070018000049000000000013000036000000000000000000000000000000000000000000000000000000000000000000   USR027 REP US Rep, District 27                                 UNDER VOTES                           Precinct 3018                 District 27              01 
00110070019000011000000000005000006000000000000000000000000000000000000000000000000000000000000000000   USR027 REP US Rep, District 27                                 UNDER VOTES                           Precinct 3019                 District 27              01 
00110070020000019000000000005000014000000000000000000000000000000000000000000000000000000000000000000   USR027 REP US Rep, District 27                                 UNDER VOTES                           Precinct 3020                 District 27              01 
00120010001000046000003000030000013000000000000000000000000000000000000000000000000000000000000000000REP       REP Governor                                            Greg Abbott                           Precinct 1001                                          01 
00120010002000088000002000042000044000000000000000000000000000000000000000000000000000000000000000000REP       REP Governor                                            Greg Abbott                           Precinct 1002                                          01 
00120010003000293000009000146000138000000000000000000000000000000000000000000000000000000000000000000REP       REP Governor                                            Greg Abbott                           Precinct 1003                                          01 
00120010004000198000008000112000078000000000000000000000000000000000000000000000000000000000000000000REP       REP Governor                                            Greg Abbott                           Precinct 1004                                          01 
00120010005000126000013000077000036000000000000000000000000000000000000000000000000000000000000000000REP       REP Governor                                            Greg Abbott                           Precinct 1005                                          01 
00120010006000163000008000085000070000000000000000000000000000000000000000000000000000000000000000000REP       REP Governor                                            Greg Abbott                           Precinct 1006                                          01 
00120010007000249000014000154000081000000000000000000000000000000000000000000000000000000000000000000REP       REP Governor                                            Greg Abbott                           Precinct 1007                                          01 
00120010008000134000006000070000058000000000000000000000000000000000000000000000000000000000000000000REP       REP Governor                                            Greg Abbott                           Precinct 1008                                          01 
00120010009000202000009000087000106000000000000000000000000000000000000000000000000000000000000000000REP       REP Governor                                            Greg Abbott                           Precinct 1009                                          01 
00120010010000060000003000032000025000000000000000000000000000000000000000000000000000000000000000000REP       REP Governor                                            Greg Abbott                           Precinct 2010                                          01 
00120010011000165000012000096000057000000000000000000000000000000000000000000000000000000000000000000REP       REP Governor                                            Greg Abbott                           Precinct 2011                                          01 
00120010012000298000017000163000118000000000000000000000000000000000000000000000000000000000000000000REP       REP Governor                                            Greg Abbott                           Precinct 2012                                          01 
00120010013000408000020000192000196000000000000000000000000000000000000000000000000000000000000000000REP       REP Governor                                            Greg Abbott                           Precinct 2013                                          01 
