00010010001001647000000000000000000000000000000000000000000000000000000000000000000000000000000000000          REGISTERED VOTERS - TOTAL                               REGISTERED VOTERS - TOTAL             Precinct 1                                             00 
00010010002000742000000000000000000000000000000000000000000000000000000000000000000000000000000000000          REGISTERED VOTERS - TOTAL                               REGISTERED VOTERS - TOTAL             Precinct 2                                             00 
00010010003000563000000000000000000000000000000000000000000000000000000000000000000000000000000000000          REGISTERED VOTERS - TOTAL                               REGISTERED VOTERS - TOTAL             Precinct 3                                             00 
00010010004001373000000000000000000000000000000000000000000000000000000000000000000000000000000000000          REGISTERED VOTERS - TOTAL                               REGISTERED VOTERS - TOTAL             Precinct 4                                             00 
00010010005001774000000000000000000000000000000000000000000000000000000000000000000000000000000000000          REGISTERED VOTERS - TOTAL                               REGISTERED VOTERS - TOTAL             Precinct 5                                             00 
00010010006000354000000000000000000000000000000000000000000000000000000000000000000000000000000000000          REGISTERED VOTERS - TOTAL                               REGISTERED VOTERS - TOTAL             Precinct 6                                             00 
00010010007002215000000000000000000000000000000000000000000000000000000000000000000000000000000000000          REGISTERED VOTERS - TOTAL                               REGISTERED VOTERS - TOTAL             Precinct 7                                             00 
00010010008000569000000000000000000000000000000000000000000000000000000000000000000000000000000000000          REGISTERED VOTERS - TOTAL                               REGISTERED VOTERS - TOTAL             Precinct 8                                             00 
00010010009001012000000000000000000000000000000000000000000000000000000000000000000000000000000000000          REGISTERED VOTERS - TOTAL                               REGISTERED VOTERS - TOTAL             Precinct 9                                             00 
00010010010001542000000000000000000000000000000000000000000000000000000000000000000000000000000000000          REGISTERED VOTERS - TOTAL                               REGISTERED VOTERS - TOTAL             Precinct 10                                            00 
00010010011000991000000000000000000000000000000000000000000000000000000000000000000000000000000000000          REGISTERED VOTERS - TOTAL                               REGISTERED VOTERS - TOTAL             Precinct 11                                            00 
00020010001000000000000000000000000000000000000000000000000000000000000000000000000000000000000000000REP       REGISTERED VOTERS - Republican Party                    REGISTERED VOTERS - Republican Party  Precinct 1                                             00 
00020010002000000000000000000000000000000000000000000000000000000000000000000000000000000000000000000REP       REGISTERED VOTERS - Republican Party                    REGISTERED VOTERS - Republican Party  Precinct 2                                             00 
00020010003000000000000000000000000000000000000000000000000000000000000000000000000000000000000000000REP       REGISTERED VOTERS - Republican Party                    REGISTERED VOTERS - Republican Party  Precinct 3                                             00 
00020010004000000000000000000000000000000000000000000000000000000000000000000000000000000000000000000REP       REGISTERED VOTERS - Republican Party                    REGISTERED VOTERS - Republican Party  Precinct 4                                             00 
00020010005000000000000000000000000000000000000000000000000000000000000000000000000000000000000000000REP       REGISTERED VOTERS - Republican Party                    REGISTERED VOTERS - Republican Party  Precinct 5                                             00 
00020010006000000000000000000000000000000000000000000000000000000000000000000000000000000000000000000REP       REGISTERED VOTERS - Republican Party                    REGISTERED VOTERS - Republican Party  Precinct 6                                             00 
00020010007000000000000000000000000000000000000000000000000000000000000000000000000000000000000000000REP       REGISTERED VOTERS - Republican Party                    REGISTERED VOTERS - Republican Party  Precinct 7                                             00 
00020010008000000000000000000000000000000000000000000000000000000000000000000000000000000000000000000REP       REGISTERED VOTERS - Republican Party                    REGISTERED VOTERS - Republican Party  Precinct 8                                             00 
00020010009000000000000000000000000000000000000000000000000000000000000000000000000000000000000000000REP       REGISTERED VOTERS - Republican Party                    REGISTERED VOTERS - Republican Party  Precinct 9                                             00 
00020010010000000000000000000000000000000000000000000000000000000000000000000000000000000000000000000REP       REGISTERED VOTERS - Republican Party                    REGISTERED VOTERS - Republican Party  Precinct 10                                            00 
00020010011000000000000000000000000000000000000000000000000000000000000000000000000000000000000000000REP       REGISTERED VOTERS - Republican Party                    REGISTERED VOTERS - Republican Party  Precinct 11                                            00 
00030010001000000000000000000000000000000000000000000000000000000000000000000000000000000000000000000DEM       REGISTERED VOTERS - Democratic Party                    REGISTERED VOTERS - Democratic Party  Precinct 1                                             00 
00030010002000000000000000000000000000000000000000000000000000000000000000000000000000000000000000000DEM       REGISTERED VOTERS - Democratic Party                    REGISTERED VOTERS - Democratic Party  Precinct 2                                             00 
00030010003000000000000000000000000000000000000000000000000000000000000000000000000000000000000000000DEM       REGISTERED VOTERS - Democratic Party                    REGISTERED VOTERS - Democratic Party  Precinct 3                                             00 
00030010004000000000000000000000000000000000000000000000000000000000000000000000000000000000000000000DEM       REGISTERED VOTERS - Democratic Party                    REGISTERED VOTERS - Democratic Party  Precinct 4                                             00 
00030010005000000000000000000000000000000000000000000000000000000000000000000000000000000000000000000DEM       REGISTERED VOTERS - Democratic Party                    REGISTERED VOTERS - Democratic Party  Precinct 5                                             00 
00030010006000000000000000000000000000000000000000000000000000000000000000000000000000000000000000000DEM       REGISTERED VOTERS - Democratic Party                    REGISTERED VOTERS - Democratic Party  Precinct 6                                             00 
00030010007000000000000000000000000000000000000000000000000000000000000000000000000000000000000000000DEM       REGISTERED VOTERS - Democratic Party                    REGISTERED VOTERS - Democratic Party  Precinct 7                                             00 
00030010008000000000000000000000000000000000000000000000000000000000000000000000000000000000000000000DEM       REGISTERED VOTERS - Democratic Party                    REGISTERED VOTERS - Democratic Party  Precinct 8                                             00 
00030010009000000000000000000000000000000000000000000000000000000000000000000000000000000000000000000DEM       REGISTERED VOTERS - Democratic Party                    REGISTERED VOTERS - Democratic Party  Precinct 9                                             00 
00030010010000000000000000000000000000000000000000000000000000000000000000000000000000000000000000000DEM       REGISTERED VOTERS - Democratic Party                    REGISTERED VOTERS - Democratic Party  Precinct 10                                            00 
00030010011000000000000000000000000000000000000000000000000000000000000000000000000000000000000000000DEM       REGISTERED VOTERS - Democratic Party                    REGISTERED VOTERS - Democratic Party  Precinct 11                                            00 
00040010001001647000000000000000000000000000000000000000000000000000000000000000000000000000000000000NON       REGISTERED VOTERS - NONPARTISAN                         REGISTERED VOTERS - NONPARTISAN       Precinct 1                                             00 
00040010002000742000000000000000000000000000000000000000000000000000000000000000000000000000000000000NON       REGISTERED VOTERS - NONPARTISAN                         REGISTERED VOTERS - NONPARTISAN       Precinct 2                                             00 
00040010003000563000000000000000000000000000000000000000000000000000000000000000000000000000000000000NON       REGISTERED VOTERS - NONPARTISAN                         REGISTERED VOTERS - NONPARTISAN       Precinct 3                                             00 
00040010004001373000000000000000000000000000000000000000000000000000000000000000000000000000000000000NON       REGISTERED VOTERS - NONPARTISAN                         REGISTERED VOTERS - NONPARTISAN       Precinct 4                                             00 
00040010005001774000000000000000000000000000000000000000000000000000000000000000000000000000000000000NON       REGISTERED VOTERS - NONPARTISAN                         REGISTERED VOTERS - NONPARTISAN       Precinct 5                                             00 
00040010006000354000000000000000000000000000000000000000000000000000000000000000000000000000000000000NON       REGISTERED VOTERS - NONPARTISAN                         REGISTERED VOTERS - NONPARTISAN       Precinct 6                                             00 
00040010007002215000000000000000000000000000000000000000000000000000000000000000000000000000000000000NON       REGISTERED VOTERS - NONPARTISAN                         REGISTERED VOTERS - NONPARTISAN       Precinct 7                                             00 
00040010008000569000000000000000000000000000000000000000000000000000000000000000000000000000000000000NON       REGISTERED VOTERS - NONPARTISAN                         REGISTERED VOTERS - NONPARTISAN       Precinct 8                                             00 
00040010009001012000000000000000000000000000000000000000000000000000000000000000000000000000000000000NON       REGISTERED VOTERS - NONPARTISAN                         REGISTERED VOTERS - NONPARTISAN       Precinct 9                                             00 
00040010010001542000000000000000000000000000000000000000000000000000000000000000000000000000000000000NON       REGISTERED VOTERS - NONPARTISAN                         REGISTERED VOTERS - NONPARTISAN       Precinct 10                                            00 
00040010011000991000000000000000000000000000000000000000000000000000000000000000000000000000000000000NON       REGISTERED VOTERS - NONPARTISAN                         REGISTERED VOTERS - NONPARTISAN       Precinct 11                                            00 
00050010001000150000007000077000066000000000000000000000000000000000000000000000000000000000000000000          BALLOTS CAST - TOTAL                                    BALLOTS CAST - TOTAL                  Precinct 1                                             00 
00050010002000137000005000074000058000000000000000000000000000000000000000000000000000000000000000000          BALLOTS CAST - TOTAL                                    BALLOTS CAST - TOTAL                  Precinct 2                                             00 
00050010003000142000004000064000074000000000000000000000000000000000000000000000000000000000000000000          BALLOTS CAST - TOTAL                                    BALLOTS CAST - TOTAL                  Precinct 3                                             00 
00050010004000185000013000100000072000000000000000000000000000000000000000000000000000000000000000000          BALLOTS CAST - TOTAL                                    BALLOTS CAST - TOTAL                  Precinct 4                                             00 
00050010005000621000021000307000293000000000000000000000000000000000000000000000000000000000000000000          BALLOTS CAST - TOTAL                                    BALLOTS CAST - TOTAL                  Precinct 5                                             00 
00050010006000063000005000034000024000000000000000000000000000000000000000000000000000000000000000000          BALLOTS CAST - TOTAL                                    BALLOTS CAST - TOTAL                  Precinct 6                                             00 
00050010007000411000022000218000171000000000000000000000000000000000000000000000000000000000000000000          BALLOTS CAST - TOTAL                                    BALLOTS CAST - TOTAL                  Precinct 7                                             00 
00050010008000187000007000062000118000000000000000000000000000000000000000000000000000000000000000000          BALLOTS CAST - TOTAL                                    BALLOTS CAST - TOTAL                  Precinct 8                                             00 
00050010009000202000013000097000092000000000000000000000000000000000000000000000000000000000000000000          BALLOTS CAST - TOTAL                                    BALLOTS CAST - TOTAL                  Precinct 9                                             00 
00050010010000355000009000083000263000000000000000000000000000000000000000000000000000000000000000000          BALLOTS CAST - TOTAL                                    BALLOTS CAST - TOTAL                  Precinct 10                                            00 
00050010011000302000004000048000250000000000000000000000000000000000000000000000000000000000000000000          BALLOTS CAST - TOTAL                                    BALLOTS CAST - TOTAL                  Precinct 11                                            00 
00060010001000074000000000036000038000000000000000000000000000000000000000000000000000000000000000000REP       BALLOTS CAST - Republican Party                         BALLOTS CAST - Republican Party       Precinct 1                                             00 
00060010002000103000001000053000049000000000000000000000000000000000000000000000000000000000000000000REP       BALLOTS CAST - Republican Party                         BALLOTS CAST - Republican Party       Precinct 2                                             00 
00060010003000128000002000060000066000000000000000000000000000000000000000000000000000000000000000000REP       BALLOTS CAST - Republican Party                         BALLOTS CAST - Republican Party       Precinct 3                                             00 
00060010004000123000001000073000049000000000000000000000000000000000000000000000000000000000000000000REP       BALLOTS CAST - Republican Party                         BALLOTS CAST - Republican Party       Precinct 4                                             00 
00060010005000580000011000280000289000000000000000000000000000000000000000000000000000000000000000000REP       BALLOTS CAST - Republican Party                         BALLOTS CAST - Republican Party       Precinct 5                                             00 
00060010006000043000001000025000017000000000000000000000000000000000000000000000000000000000000000000REP       BALLOTS CAST - Republican Party                         BALLOTS CAST - Republican Party       Precinct 6                                             00 
00060010007000332000005000180000147000000000000000000000000000000000000000000000000000000000000000000REP       BALLOTS CAST - Republican Party                         BALLOTS CAST - Republican Party       Precinct 7                                             00 
00060010008000167000000000056000111000000000000000000000000000000000000000000000000000000000000000000REP       BALLOTS CAST - Republican Party                         BALLOTS CAST - Republican Party       Precinct 8                                             00 
00060010009000170000004000084000082000000000000000000000000000000000000000000000000000000000000000000REP       BALLOTS CAST - Republican Party                         BALLOTS CAST - Republican Party       Precinct 9                                             00 
00060010010000331000005000075000251000000000000000000000000000000000000000000000000000000000000000000REP       BALLOTS CAST - Republican Party                         BALLOTS CAST - Republican Party       Precinct 10                                            00 
00060010011000276000000000042000234000000000000000000000000000000000000000000000000000000000000000000REP       BALLOTS CAST - Republican Party                         BALLOTS CAST - Republican Party       Precinct 11                                            00 
00070010001000076000007000041000028000000000000000000000000000000000000000000000000000000000000000000DEM       BALLOTS CAST - Democratic Party                         BALLOTS CAST - Democratic Party       Precinct 1                                             00 
00070010002000034000004000021000009000000000000000000000000000000000000000000000000000000000000000000DEM       BALLOTS CAST - Democratic Party                         BALLOTS CAST - Democratic Party       Precinct 2                                             00 
00070010003000014000002000004000008000000000000000000000000000000000000000000000000000000000000000000DEM       BALLOTS CAST - Democratic Party                         BALLOTS CAST - Democratic Party       Precinct 3                                             00 
00070010004000062000012000027000023000000000000000000000000000000000000000000000000000000000000000000DEM       BALLOTS CAST - Democratic Party                         BALLOTS CAST - Democratic Party       Precinct 4                                             00 
00070010005000041000010000027000004000000000000000000000000000000000000000000000000000000000000000000DEM       BALLOTS CAST - Democratic Party                         BALLOTS CAST - Democratic Party       Precinct 5                                             00 
00070010006000020000004000009000007000000000000000000000000000000000000000000000000000000000000000000DEM       BALLOTS CAST - Democratic Party                         BALLOTS CAST - Democratic Party       Precinct 6                                             00 
00070010007000079000017000038000024000000000000000000000000000000000000000000000000000000000000000000DEM       BALLOTS CAST - Democratic Party                         BALLOTS CAST - Democratic Party       Precinct 7                                             00 
00070010008000020000007000006000007000000000000000000000000000000000000000000000000000000000000000000DEM       BALLOTS CAST - Democratic Party                         BALLOTS CAST - Democratic Party       Precinct 8                                             00 
00070010009000032000009000013000010000000000000000000000000000000000000000000000000000000000000000000DEM       BALLOTS CAST - Democratic Party                         BALLOTS CAST - Democratic Party       Precinct 9                                             00 
00070010010000024000004000008000012000000000000000000000000000000000000000000000000000000000000000000DEM       BALLOTS CAST - Democratic Party                         BALLOTS CAST - Democratic Party       Precinct 10                                            00 
00070010011000026000004000006000016000000000000000000000000000000000000000000000000000000000000000000DEM       BALLOTS CAST - Democratic Party                         BALLOTS CAST - Democratic Party       Precinct 11                                            00 
00080010001000000000000000000000000000000000000000000000000000000000000000000000000000000000000000000NON       BALLOTS CAST - NONPARTISAN                              BALLOTS CAST - NONPARTISAN            Precinct 1                                             00 
00080010002000000000000000000000000000000000000000000000000000000000000000000000000000000000000000000NON       BALLOTS CAST - NONPARTISAN                              BALLOTS CAST - NONPARTISAN            Precinct 2                                             00 
00080010003000000000000000000000000000000000000000000000000000000000000000000000000000000000000000000NON       BALLOTS CAST - NONPARTISAN                              BALLOTS CAST - NONPARTISAN            Precinct 3                                             00 
00080010004000000000000000000000000000000000000000000000000000000000000000000000000000000000000000000NON       BALLOTS CAST - NONPARTISAN                              BALLOTS CAST - NONPARTISAN            Precinct 4                                             00 
00080010005000000000000000000000000000000000000000000000000000000000000000000000000000000000000000000NON       BALLOTS CAST - NONPARTISAN                              BALLOTS CAST - NONPARTISAN            Precinct 5                                             00 
00080010006000000000000000000000000000000000000000000000000000000000000000000000000000000000000000000NON       BALLOTS CAST - NONPARTISAN                              BALLOTS CAST - NONPARTISAN            Precinct 6                                             00 
00080010007000000000000000000000000000000000000000000000000000000000000000000000000000000000000000000NON       BALLOTS CAST - NONPARTISAN                              BALLOTS CAST - NONPARTISAN            Precinct 7                                             00 
00080010008000000000000000000000000000000000000000000000000000000000000000000000000000000000000000000NON       BALLOTS CAST - NONPARTISAN                              BALLOTS CAST - NONPARTISAN            Precinct 8                                             00 
00080010009000000000000000000000000000000000000000000000000000000000000000000000000000000000000000000NON       BALLOTS CAST - NONPARTISAN                              BALLOTS CAST - NONPARTISAN            Precinct 9                                             00 
00080010010000000000000000000000000000000000000000000000000000000000000000000000000000000000000000000NON       BALLOTS CAST - NONPARTISAN                              BALLOTS CAST - NONPARTISAN            Precinct 10                                            00 
00080010011000000000000000000000000000000000000000000000000000000000000000000000000000000000000000000NON       BALLOTS CAST - NONPARTISAN                              BALLOTS CAST - NONPARTISAN            Precinct 11                                            00 
00090010001000001000000000001000000000000000000000000000000000000000000000000000000000000000000000000          BALLOTS CAST - BLANK                                    BALLOTS CAST - BLANK                  Precinct 1                                             00 
00090010002000000000000000000000000000000000000000000000000000000000000000000000000000000000000000000          BALLOTS CAST - BLANK                                    BALLOTS CAST - BLANK                  Precinct 2                                             00 
00090010003000000000000000000000000000000000000000000000000000000000000000000000000000000000000000000          BALLOTS CAST - BLANK                                    BALLOTS CAST - BLANK                  Precinct 3                                             00 
00090010004000000000000000000000000000000000000000000000000000000000000000000000000000000000000000000          BALLOTS CAST - BLANK                                    BALLOTS CAST - BLANK                  Precinct 4                                             00 
00090010005000000000000000000000000000000000000000000000000000000000000000000000000000000000000000000          BALLOTS CAST - BLANK                                    BALLOTS CAST - BLANK                  Precinct 5                                             00 
00090010006000000000000000000000000000000000000000000000000000000000000000000000000000000000000000000          BALLOTS CAST - BLANK                                    BALLOTS CAST - BLANK                  Precinct 6                                             00 
00090010007000000000000000000000000000000000000000000000000000000000000000000000000000000000000000000          BALLOTS CAST - BLANK                                    BALLOTS CAST - BLANK                  Precinct 7                                             00 
00090010008000000000000000000000000000000000000000000000000000000000000000000000000000000000000000000          BALLOTS CAST - BLANK                                    BALLOTS CAST - BLANK                  Precinct 8                                             00 
00090010009000000000000000000000000000000000000000000000000000000000000000000000000000000000000000000          BALLOTS CAST - BLANK                                    BALLOTS CAST - BLANK                  Precinct 9                                             00 
00090010010000000000000000000000000000000000000000000000000000000000000000000000000000000000000000000          BALLOTS CAST - BLANK                                    BALLOTS CAST - BLANK                  Precinct 10                                            00 
00090010011000000000000000000000000000000000000000000000000000000000000000000000000000000000000000000          BALLOTS CAST - BLANK                                    BALLOTS CAST - BLANK                  Precinct 11                                            00 
00100010001000007000000000003000004000000000000000000000000000000000000000000000000000000000000000000REP       REP US Representative, District 27                      Andrew Alvarez                        Precinct 1                                             01 
00100010002000005000000000004000001000000000000000000000000000000000000000000000000000000000000000000REP       REP US Representative, District 27                      Andrew Alvarez                        Precinct 2                                             01 
00100010003000010000000000003000007000000000000000000000000000000000000000000000000000000000000000000REP       REP US Representative, District 27                      Andrew Alvarez                        Precinct 3                                             01 
00100010004000006000000000005000001000000000000000000000000000000000000000000000000000000000000000000REP       REP US Representative, District 27                      Andrew Alvarez                        Precinct 4                                             01 
00100010005000051000003000023000025000000000000000000000000000000000000000000000000000000000000000000REP       REP US Representative, District 27                      Andrew Alvarez                        Precinct 5                                             01 
00100010006000003000000000002000001000000000000000000000000000000000000000000000000000000000000000000REP       REP US Representative, District 27                      Andrew Alvarez                        Precinct 6                                             01 
00100010007000012000000000008000004000000000000000000000000000000000000000000000000000000000000000000REP       REP US Representative, District 27                      Andrew Alvarez                        Precinct 7                                             01 
00100010008000001000000000001000000000000000000000000000000000000000000000000000000000000000000000000REP       REP US Representative, District 27                      Andrew Alvarez                        Precinct 8                                             01 
00100010009000002000000000001000001000000000000000000000000000000000000000000000000000000000000000000REP       REP US Representative, District 27                      Andrew Alvarez                        Precinct 9                                             01 
00100010010000005000000000003000002000000000000000000000000000000000000000000000000000000000000000000REP       REP US Representative, District 27                      Andrew Alvarez                        Precinct 10                                            01 
00100010011000007000000000000000007000000000000000000000000000000000000000000000000000000000000000000REP       REP US Representative, District 27                      Andrew Alvarez                        Precinct 11                                            01 
00100020001000007000000000004000003000000000000000000000000000000000000000000000000000000000000000000REP       REP US Representative, District 27                      Eric Mireles                          Precinct 1                                             01 
00100020002000005000000000002000003000000000000000000000000000000000000000000000000000000000000000000REP       REP US Representative, District 27                      Eric Mireles                          Precinct 2                                             01 
00100020003000002000000000000000002000000000000000000000000000000000000000000000000000000000000000000REP       REP US Representative, District 27                      Eric Mireles                          Precinct 3                                             01 
00100020004000003000000000003000000000000000000000000000000000000000000000000000000000000000000000000REP       REP US Representative, District 27                      Eric Mireles                          Precinct 4                                             01 
00100020005000022000001000011000010000000000000000000000000000000000000000000000000000000000000000000REP       REP US Representative, District 27                      Eric Mireles                          Precinct 5                                             01 
00100020006000000000000000000000000000000000000000000000000000000000000000000000000000000000000000000REP       REP US Representative, District 27                      Eric Mireles                          Precinct 6                                             01 
00100020007000004000000000002000002000000000000000000000000000000000000000000000000000000000000000000REP       REP US Representative, District 27                      Eric Mireles                          Precinct 7                                             01 
00100020008000000000000000000000000000000000000000000000000000000000000000000000000000000000000000000REP       REP US Representative, District 27                      Eric Mireles                          Precinct 8                                             01 
00100020009000001000000000000000001000000000000000000000000000000000000000000000000000000000000000000REP       REP US Representative, District 27                      Eric Mireles                          Precinct 9                                             01 
00100020010000001000000000000000001000000000000000000000000000000000000000000000000000000000000000000REP       REP US Representative, District 27                      Eric Mireles                          Precinct 10                                            01 
00100020011000002000000000000000002000000000000000000000000000000000000000000000000000000000000000000REP       REP US Representative, District 27                      Eric Mireles                          Precinct 11                                            01 
00100030001000036000000000020000016000000000000000000000000000000000000000000000000000000000000000000REP       REP US Representative, District 27                      Michael Cloud                         Precinct 1                                             01 
00100030002000054000001000027000026000000000000000000000000000000000000000000000000000000000000000000REP       REP US Representative, District 27                      Michael Cloud                         Precinct 2                                             01 
00100030003000066000002000028000036000000000000000000000000000000000000000000000000000000000000000000REP       REP US Representative, District 27                      Michael Cloud                         Precinct 3                                             01 
00100030004000065000000000038000027000000000000000000000000000000000000000000000000000000000000000000REP       REP US Representative, District 27                      Michael Cloud                         Precinct 4                                             01 
00100030005000281000003000150000128000000000000000000000000000000000000000000000000000000000000000000REP       REP US Representative, District 27                      Michael Cloud                         Precinct 5                                             01 
00100030006000021000001000012000008000000000000000000000000000000000000000000000000000000000000000000REP       REP US Representative, District 27                      Michael Cloud                         Precinct 6                                             01 
00100030007000201000005000115000081000000000000000000000000000000000000000000000000000000000000000000REP       REP US Representative, District 27                      Michael Cloud                         Precinct 7                                             01 
00100030008000099000000000034000065000000000000000000000000000000000000000000000000000000000000000000REP       REP US Representative, District 27                      Michael Cloud                         Precinct 8                                             01 
00100030009000092000004000050000038000000000000000000000000000000000000000000000000000000000000000000REP       REP US Representative, District 27                      Michael Cloud                         Precinct 9                                             01 
00100030010000212000004000047000161000000000000000000000000000000000000000000000000000000000000000000REP       REP US Representative, District 27                      Michael Cloud                         Precinct 10                                            01 
00100030011000097000000000018000079000000000000000000000000000000000000000000000000000000000000000000REP       REP US Representative, District 27                      Michael Cloud                         Precinct 11                                            01 
00100040001000014000000000005000009000000000000000000000000000000000000000000000000000000000000000000REP       REP US Representative, District 27                      Chris Mapp                            Precinct 1                                             01 
00100040002000021000000000004000017000000000000000000000000000000000000000000000000000000000000000000REP       REP US Representative, District 27                      Chris Mapp                            Precinct 2                                             01 
00100040003000026000000000014000012000000000000000000000000000000000000000000000000000000000000000000REP       REP US Representative, District 27                      Chris Mapp                            Precinct 3                                             01 
00100040004000018000000000011000007000000000000000000000000000000000000000000000000000000000000000000REP       REP US Representative, District 27                      Chris Mapp                            Precinct 4                                             01 
00100040005000098000001000036000061000000000000000000000000000000000000000000000000000000000000000000REP       REP US Representative, District 27                      Chris Mapp                            Precinct 5                                             01 
00100040006000007000000000005000002000000000000000000000000000000000000000000000000000000000000000000REP       REP US Representative, District 27                      Chris Mapp                            Precinct 6                                             01 
00100040007000048000000000020000028000000000000000000000000000000000000000000000000000000000000000000REP       REP US Representative, District 27                      Chris Mapp                            Precinct 7                                             01 
00100040008000030000000000009000021000000000000000000000000000000000000000000000000000000000000000000REP       REP US Representative, District 27                      Chris Mapp                            Precinct 8                                             01 
00100040009000036000000000016000020000000000000000000000000000000000000000000000000000000000000000000REP       REP US Representative, District 27                      Chris Mapp                            Precinct 9                                             01 
00100040010000073000000000014000059000000000000000000000000000000000000000000000000000000000000000000REP       REP US Representative, District 27                      Chris Mapp                            Precinct 10                                            01 
00100040011000142000000000019000123000000000000000000000000000000000000000000000000000000000000000000REP       REP US Representative, District 27                      Chris Mapp                            Precinct 11                                            01 
00100050001000004000000000002000002000000000000000000000000000000000000000000000000000000000000000000REP       REP US Representative, District 27                      AJ Louderback                         Precinct 1                                             01 
00100050002000014000000000013000001000000000000000000000000000000000000000000000000000000000000000000REP       REP US Representative, District 27                      AJ Louderback                         Precinct 2                                             01 
00100050003000017000000000011000006000000000000000000000000000000000000000000000000000000000000000000REP       REP US Representative, District 27                      AJ Louderback                         Precinct 3                                             01 
00100050004000015000001000006000008000000000000000000000000000000000000000000000000000000000000000000REP       REP US Representative, District 27                      AJ Louderback                         Precinct 4                                             01 
00100050005000090000002000045000043000000000000000000000000000000000000000000000000000000000000000000REP       REP US Representative, District 27                      AJ Louderback                         Precinct 5                                             01 
00100050006000010000000000006000004000000000000000000000000000000000000000000000000000000000000000000REP       REP US Representative, District 27                      AJ Louderback                         Precinct 6                                             01 
00100050007000050000000000024000026000000000000000000000000000000000000000000000000000000000000000000REP       REP US Representative, District 27                      AJ Louderback                         Precinct 7                                             01 
00100050008000026000000000007000019000000000000000000000000000000000000000000000000000000000000000000REP       REP US Representative, District 27                      AJ Louderback                         Precinct 8                                             01 
00100050009000035000000000015000020000000000000000000000000000000000000000000000000000000000000000000REP       REP US Representative, District 27                      AJ Louderback                         Precinct 9                                             01 
00100050010000030000001000008000021000000000000000000000000000000000000000000000000000000000000000000REP       REP US Representative, District 27                      AJ Louderback                         Precinct 10                                            01 
00100050011000021000000000004000017000000000000000000000000000000000000000000000000000000000000000000REP       REP US Representative, District 27                      AJ Louderback                         Precinct 11                                            01 
00100060001000000000000000000000000000000000000000000000000000000000000000000000000000000000000000000          REP US Representative, District 27                      OVER VOTES                            Precinct 1                                             01 
00100060002000000000000000000000000000000000000000000000000000000000000000000000000000000000000000000          REP US Representative, District 27                      OVER VOTES                            Precinct 2                                             01 
00100060003000000000000000000000000000000000000000000000000000000000000000000000000000000000000000000          REP US Representative, District 27                      OVER VOTES                            Precinct 3                                             01 
00100060004000000000000000000000000000000000000000000000000000000000000000000000000000000000000000000          REP US Representative, District 27                      OVER VOTES                            Precinct 4                                             01 
00100060005000000000000000000000000000000000000000000000000000000000000000000000000000000000000000000          REP US Representative, District 27                      OVER VOTES                            Precinct 5                                             01 
00100060006000000000000000000000000000000000000000000000000000000000000000000000000000000000000000000          REP US Representative, District 27                      OVER VOTES                            Precinct 6                                             01 
00100060007000000000000000000000000000000000000000000000000000000000000000000000000000000000000000000          REP US Representative, District 27                      OVER VOTES                            Precinct 7                                             01 
00100060008000000000000000000000000000000000000000000000000000000000000000000000000000000000000000000          REP US Representative, District 27                      OVER VOTES                            Precinct 8                                             01 
00100060009000000000000000000000000000000000000000000000000000000000000000000000000000000000000000000          REP US Representative, District 27                      OVER VOTES                            Precinct 9                                             01 
00100060010000000000000000000000000000000000000000000000000000000000000000000000000000000000000000000          REP US Representative, District 27                      OVER VOTES                            Precinct 10                                            01 
00100060011000000000000000000000000000000000000000000000000000000000000000000000000000000000000000000          REP US Representative, District 27                      OVER VOTES                            Precinct 11                                            01 
00100070001000006000000000002000004000000000000000000000000000000000000000000000000000000000000000000          REP US Representative, District 27                      UNDER VOTES                           Precinct 1                                             01 
00100070002000004000000000003000001000000000000000000000000000000000000000000000000000000000000000000          REP US Representative, District 27                      UNDER VOTES                           Precinct 2                                             01 
00100070003000007000000000004000003000000000000000000000000000000000000000000000000000000000000000000          REP US Representative, District 27                      UNDER VOTES                           Precinct 3                                             01 
00100070004000016000000000010000006000000000000000000000000000000000000000000000000000000000000000000          REP US Representative, District 27                      UNDER VOTES                           Precinct 4                                             01 
00100070005000038000001000015000022000000000000000000000000000000000000000000000000000000000000000000          REP US Representative, District 27                      UNDER VOTES                           Precinct 5                                             01 
00100070006000002000000000000000002000000000000000000000000000000000000000000000000000000000000000000          REP US Representative, District 27                      UNDER VOTES                           Precinct 6                                             01 
00100070007000017000000000011000006000000000000000000000000000000000000000000000000000000000000000000          REP US Representative, District 27                      UNDER VOTES                           Precinct 7                                             01 
00100070008000011000000000005000006000000000000000000000000000000000000000000000000000000000000000000          REP US Representative, District 27                      UNDER VOTES                           Precinct 8                                             01 
00100070009000004000000000002000002000000000000000000000000000000000000000000000000000000000000000000          REP US Representative, District 27                      UNDER VOTES                           Precinct 9                                             01 
00100070010000010000000000003000007000000000000000000000000000000000000000000000000000000000000000000          REP US Representative, District 27                      UNDER VOTES                           Precinct 10                                            01 
00100070011000007000000000001000006000000000000000000000000000000000000000000000000000000000000000000          REP US Representative, District 27                      UNDER VOTES                           Precinct 11                                            01 
00110010001000054000000000025000029000000000000000000000000000000000000000000000000000000000000000000REP       REP Governor                                            Greg Abbott                           Precinct 1                                             01 
00110010002000064000001000036000027000000000000000000000000000000000000000000000000000000000000000000REP       REP Governor                                            Greg Abbott                           Precinct 2                                             01 
00110010003000103000002000055000046000000000000000000000000000000000000000000000000000000000000000000REP       REP Governor                                            Greg Abbott                           Precinct 3                                             01 
00110010004000079000001000051000027000000000000000000000000000000000000000000000000000000000000000000REP       REP Governor                                            Greg Abbott                           Precinct 4                                             01 
00110010005000396000008000199000189000000000000000000000000000000000000000000000000000000000000000000REP       REP Governor                                            Greg Abbott                           Precinct 5                                             01 
00110010006000024000001000012000011000000000000000000000000000000000000000000000000000000000000000000REP       REP Governor                                            Greg Abbott                           Precinct 6                                             01 
00110010007000226000005000134000087000000000000000000000000000000000000000000000000000000000000000000REP       REP Governor                                            Greg Abbott                           Precinct 7                                             01 
00110010008000104000000000038000066000000000000000000000000000000000000000000000000000000000000000000REP       REP Governor                                            Greg Abbott                           Precinct 8                                             01 
00110010009000119000004000064000051000000000000000000000000000000000000000000000000000000000000000000REP       REP Governor                                            Greg Abbott                           Precinct 9                                             01 
00110010010000237000004000045000188000000000000000000000000000000000000000000000000000000000000000000REP       REP Governor                                            Greg Abbott                           Precinct 10                                            01 
00110010011000181000000000029000152000000000000000000000000000000000000000000000000000000000000000000REP       REP Governor                                            Greg Abbott                           Precinct 11                                            01 
00110020001000000000000000000000000000000000000000000000000000000000000000000000000000000000000000000REP       REP Governor                                            Danny Harrison                        Precinct 1                                             01 
00110020002000001000000000000000001000000000000000000000000000000000000000000000000000000000000000000REP       REP Governor                                            Danny Harrison                        Precinct 2                                             01 
00110020003000002000000000000000002000000000000000000000000000000000000000000000000000000000000000000REP       REP Governor                                            Danny Harrison                        Precinct 3                                             01 
00110020004000003000000000003000000000000000000000000000000000000000000000000000000000000000000000000REP       REP Governor                                            Danny Harrison                        Precinct 4                                             01 
00110020005000010000000000006000004000000000000000000000000000000000000000000000000000000000000000000REP       REP Governor                                            Danny Harrison                        Precinct 5                                             01 
00110020006000003000000000001000002000000000000000000000000000000000000000000000000000000000000000000REP       REP Governor                                            Danny Harrison                        Precinct 6                                             01 
00110020007000003000000000001000002000000000000000000000000000000000000000000000000000000000000000000REP       REP Governor                                            Danny Harrison                        Precinct 7                                             01 
00110020008000000000000000000000000000000000000000000000000000000000000000000000000000000000000000000REP       REP Governor                                            Danny Harrison                        Precinct 8                                             01 
00110020009000002000000000001000001000000000000000000000000000000000000000000000000000000000000000000REP       REP Governor                                            Danny Harrison                        Precinct 9                                             01 
00110020010000004000000000001000003000000000000000000000000000000000000000000000000000000000000000000REP       REP Governor                                            Danny Harrison                        Precinct 10                                            01 
00110020011000003000000000001000002000000000000000000000000000000000000000000000000000000000000000000REP       REP Governor                                            Danny Harrison                        Precinct 11                                            01 
00110030001000005000000000003000002000000000000000000000000000000000000000000000000000000000000000000REP       REP Governor                                            Don Huffines                          Precinct 1                                             01 
00110030002000007000000000006000001000000000000000000000000000000000000000000000000000000000000000000REP       REP Governor                                            Don Huffines                          Precinct 2                                             01 
00110030003000010000000000001000009000000000000000000000000000000000000000000000000000000000000000000REP       REP Governor                                            Don Huffines                          Precinct 3                                             01 
00110030004000009000000000005000004000000000000000000000000000000000000000000000000000000000000000000REP       REP Governor                                            Don Huffines                          Precinct 4                                             01 
00110030005000051000000000026000025000000000000000000000000000000000000000000000000000000000000000000REP       REP Governor                                            Don Huffines                          Precinct 5                                             01 
00110030006000004000000000002000002000000000000000000000000000000000000000000000000000000000000000000REP       REP Governor                                            Don Huffines                          Precinct 6                                             01 
00110030007000027000000000010000017000000000000000000000000000000000000000000000000000000000000000000REP       REP Governor                                            Don Huffines                          Precinct 7                                             01 
00110030008000022000000000006000016000000000000000000000000000000000000000000000000000000000000000000REP       REP Governor                                            Don Huffines                          Precinct 8                                             01 
00110030009000022000000000005000017000000000000000000000000000000000000000000000000000000000000000000REP       REP Governor                                            Don Huffines                          Precinct 9                                             01 
00110030010000030000001000007000022000000000000000000000000000000000000000000000000000000000000000000REP       REP Governor                                            Don Huffines                          Precinct 10                                            01 
00110030011000023000000000002000021000000000000000000000000000000000000000000000000000000000000000000REP       REP Governor                                            Don Huffines                          Precinct 11                                            01 
00110040001000001000000000001000000000000000000000000000000000000000000000000000000000000000000000000REP       REP Governor                                            Kandy Kaye Horn                       Precinct 1                                             01 
00110040002000001000000000000000001000000000000000000000000000000000000000000000000000000000000000000REP       REP Governor                                            Kandy Kaye Horn                       Precinct 2                                             01 
00110040003000002000000000000000002000000000000000000000000000000000000000000000000000000000000000000REP       REP Governor                                            Kandy Kaye Horn                       Precinct 3                                             01 
00110040004000001000000000001000000000000000000000000000000000000000000000000000000000000000000000000REP       REP Governor                                            Kandy Kaye Horn                       Precinct 4                                             01 
00110040005000012000000000004000008000000000000000000000000000000000000000000000000000000000000000000REP       REP Governor                                            Kandy Kaye Horn                       Precinct 5                                             01 
00110040006000001000000000001000000000000000000000000000000000000000000000000000000000000000000000000REP       REP Governor                                            Kandy Kaye Horn                       Precinct 6                                             01 
00110040007000006000000000003000003000000000000000000000000000000000000000000000000000000000000000000REP       REP Governor                                            Kandy Kaye Horn                       Precinct 7                                             01 
00110040008000001000000000000000001000000000000000000000000000000000000000000000000000000000000000000REP       REP Governor                                            Kandy Kaye Horn                       Precinct 8                                             01 
00110040009000003000000000003000000000000000000000000000000000000000000000000000000000000000000000000REP       REP Governor                                            Kandy Kaye Horn                       Precinct 9                                             01 
00110040010000000000000000000000000000000000000000000000000000000000000000000000000000000000000000000REP       REP Governor                                            Kandy Kaye Horn                       Precinct 10                                            01 
00110040011000003000000000000000003000000000000000000000000000000000000000000000000000000000000000000REP       REP Governor                                            Kandy Kaye Horn                       Precinct 11                                            01 
00110050001000006000000000003000003000000000000000000000000000000000000000000000000000000000000000000REP       REP Governor                                            Allen B. West                         Precinct 1                                             01 
00110050002000011000000000006000005000000000000000000000000000000000000000000000000000000000000000000REP       REP Governor                                            Allen B. West                         Precinct 2                                             01 
00110050003000009000000000004000005000000000000000000000000000000000000000000000000000000000000000000REP       REP Governor                                            Allen B. West                         Precinct 3                                             01 
00110050004000007000000000002000005000000000000000000000000000000000000000000000000000000000000000000REP       REP Governor                                            Allen B. West                         Precinct 4                                             01 
00110050005000049000001000019000029000000000000000000000000000000000000000000000000000000000000000000REP       REP Governor                                            Allen B. West                         Precinct 5                                             01 
00110050006000008000000000007000001000000000000000000000000000000000000000000000000000000000000000000REP       REP Governor                                            Allen B. West                         Precinct 6                                             01 
00110050007000040000000000017000023000000000000000000000000000000000000000000000000000000000000000000REP       REP Governor                                            Allen B. West                         Precinct 7                                             01 
00110050008000027000000000009000018000000000000000000000000000000000000000000000000000000000000000000REP       REP Governor                                            Allen B. West                         Precinct 8                                             01 
00110050009000008000000000003000005000000000000000000000000000000000000000000000000000000000000000000REP       REP Governor                                            Allen B. West                         Precinct 9                                             01 
00110050010000038000000000016000022000000000000000000000000000000000000000000000000000000000000000000REP       REP Governor                                            Allen B. West                         Precinct 10                                            01 
00110050011000044000000000009000035000000000000000000000000000000000000000000000000000000000000000000REP       REP Governor                                            Allen B. West                         Precinct 11                                            01 
00110060001000001000000000000000001000000000000000000000000000000000000000000000000000000000000000000REP       REP Governor                                            Paul Belew                            Precinct 1                                             01 
00110060002000002000000000000000002000000000000000000000000000000000000000000000000000000000000000000REP       REP Governor                                            Paul Belew                            Precinct 2                                             01 
00110060003000000000000000000000000000000000000000000000000000000000000000000000000000000000000000000REP       REP Governor                                            Paul Belew                            Precinct 3                                             01 
00110060004000002000000000000000002000000000000000000000000000000000000000000000000000000000000000000REP       REP Governor                                            Paul Belew                            Precinct 4                                             01 
00110060005000001000000000000000001000000000000000000000000000000000000000000000000000000000000000000REP       REP Governor                                            Paul Belew                            Precinct 5                                             01 
00110060006000000000000000000000000000000000000000000000000000000000000000000000000000000000000000000REP       REP Governor                                            Paul Belew                            Precinct 6                                             01 
00110060007000001000000000001000000000000000000000000000000000000000000000000000000000000000000000000REP       REP Governor                                            Paul Belew                            Precinct 7                                             01 
00110060008000000000000000000000000000000000000000000000000000000000000000000000000000000000000000000REP       REP Governor                                            Paul Belew                            Precinct 8                                             01 
00110060009000000000000000000000000000000000000000000000000000000000000000000000000000000000000000000REP       REP Governor                                            Paul Belew                            Precinct 9                                             01 
00110060010000001000000000000000001000000000000000000000000000000000000000000000000000000000000000000REP       REP Governor                                            Paul Belew                            Precinct 10                                            01 
00110060011000000000000000000000000000000000000000000000000000000000000000000000000000000000000000000REP       REP Governor                                            Paul Belew                            Precinct 11                                            01 
00110070001000000000000000000000000000000000000000000000000000000000000000000000000000000000000000000REP       REP Governor                                            Chad Prather                          Precinct 1                                             01 
00110070002000011000000000003000008000000000000000000000000000000000000000000000000000000000000000000REP       REP Governor                                            Chad Prather                          Precinct 2                                             01 
00110070003000001000000000000000001000000000000000000000000000000000000000000000000000000000000000000REP       REP Governor                                            Chad Prather                          Precinct 3                                             01 
00110070004000005000000000001000004000000000000000000000000000000000000000000000000000000000000000000REP       REP Governor                                            Chad Prather                          Precinct 4                                             01 
00110070005000017000001000008000008000000000000000000000000000000000000000000000000000000000000000000REP       REP Governor                                            Chad Prather                          Precinct 5                                             01 
00110070006000000000000000000000000000000000000000000000000000000000000000000000000000000000000000000REP       REP Governor                                            Chad Prather                          Precinct 6                                             01 
00110070007000009000000000002000007000000000000000000000000000000000000000000000000000000000000000000REP       REP Governor                                            Chad Prather                          Precinct 7                                             01 
00110070008000006000000000001000005000000000000000000000000000000000000000000000000000000000000000000REP       REP Governor                                            Chad Prather                          Precinct 8                                             01 
00110070009000008000000000002000006000000000000000000000000000000000000000000000000000000000000000000REP       REP Governor                                            Chad Prather                          Precinct 9                                             01 
00110070010000015000000000004000011000000000000000000000000000000000000000000000000000000000000000000REP       REP Governor                                            Chad Prather                          Precinct 10                                            01 
00110070011000006000000000000000006000000000000000000000000000000000000000000000000000000000000000000REP       REP Governor                                            Chad Prather                          Precinct 11                                            01 
00110080001000002000000000001000001000000000000000000000000000000000000000000000000000000000000000000REP       REP Governor                                            Rick Perry                            Precinct 1                                             01 
00110080002000005000000000002000003000000000000000000000000000000000000000000000000000000000000000000REP       REP Governor                                            Rick Perry                            Precinct 2                                             01 
00110080003000001000000000000000001000000000000000000000000000000000000000000000000000000000000000000REP       REP Governor                                            Rick Perry                            Precinct 3                                             01 
00110080004000007000000000003000004000000000000000000000000000000000000000000000000000000000000000000REP       REP Governor                                            Rick Perry                            Precinct 4                                             01 
00110080005000022000001000009000012000000000000000000000000000000000000000000000000000000000000000000REP       REP Governor                                            Rick Perry                            Precinct 5                                             01 
00110080006000002000000000002000000000000000000000000000000000000000000000000000000000000000000000000REP       REP Governor                                            Rick Perry                            Precinct 6                                             01 
00110080007000011000000000008000003000000000000000000000000000000000000000000000000000000000000000000REP       REP Governor                                            Rick Perry                            Precinct 7                                             01 
00110080008000004000000000001000003000000000000000000000000000000000000000000000000000000000000000000REP       REP Governor                                            Rick Perry                            Precinct 8                                             01 
00110080009000005000000000005000000000000000000000000000000000000000000000000000000000000000000000000REP       REP Governor                                            Rick Perry                            Precinct 9                                             01 
00110080010000005000000000002000003000000000000000000000000000000000000000000000000000000000000000000REP       REP Governor                                            Rick Perry                            Precinct 10                                            01 
00110080011000016000000000001000015000000000000000000000000000000000000000000000000000000000000000000REP       REP Governor                                            Rick Perry                            Precinct 11                                            01 
00110090001000000000000000000000000000000000000000000000000000000000000000000000000000000000000000000          REP Governor                                            OVER VOTES                            Precinct 1                                             01 
00110090002000000000000000000000000000000000000000000000000000000000000000000000000000000000000000000          REP Governor                                            OVER VOTES                            Precinct 2                                             01 
00110090003000000000000000000000000000000000000000000000000000000000000000000000000000000000000000000          REP Governor                                            OVER VOTES                            Precinct 3                                             01 
00110090004000000000000000000000000000000000000000000000000000000000000000000000000000000000000000000          REP Governor                                            OVER VOTES                            Precinct 4                                             01 
00110090005000000000000000000000000000000000000000000000000000000000000000000000000000000000000000000          REP Governor                                            OVER VOTES                            Precinct 5                                             01 
00110090006000000000000000000000000000000000000000000000000000000000000000000000000000000000000000000          REP Governor                                            OVER VOTES                            Precinct 6                                             01 
00110090007000000000000000000000000000000000000000000000000000000000000000000000000000000000000000000          REP Governor                                            OVER VOTES                            Precinct 7                                             01 
00110090008000000000000000000000000000000000000000000000000000000000000000000000000000000000000000000          REP Governor                                            OVER VOTES                            Precinct 8                                             01 
00110090009000000000000000000000000000000000000000000000000000000000000000000000000000000000000000000          REP Governor                                            OVER VOTES                            Precinct 9                                             01 
00110090010000000000000000000000000000000000000000000000000000000000000000000000000000000000000000000          REP Governor                                            OVER VOTES                            Precinct 10                                            01 
00110090011000000000000000000000000000000000000000000000000000000000000000000000000000000000000000000          REP Governor                                            OVER VOTES                            Precinct 11                                            01 
00110100001000005000000000003000002000000000000000000000000000000000000000000000000000000000000000000          REP Governor                                            UNDER VOTES                           Precinct 1                                             01 
00110100002000001000000000000000001000000000000000000000000000000000000000000000000000000000000000000          REP Governor                                            UNDER VOTES                           Precinct 2                                             01 
00110100003000000000000000000000000000000000000000000000000000000000000000000000000000000000000000000          REP Governor                                            UNDER VOTES                           Precinct 3                                             01 
00110100004000010000000000007000003000000000000000000000000000000000000000000000000000000000000000000          REP Governor                                            UNDER VOTES                           Precinct 4                                             01 
00110100005000022000000000009000013000000000000000000000000000000000000000000000000000000000000000000          REP Governor                                            UNDER VOTES                           Precinct 5                                             01 
00110100006000001000000000000000001000000000000000000000000000000000000000000000000000000000000000000          REP Governor                                            UNDER VOTES                           Precinct 6                                             01 
00110100007000009000000000004000005000000000000000000000000000000000000000000000000000000000000000000          REP Governor                                            UNDER VOTES                           Precinct 7                                             01 
00110100008000003000000000001000002000000000000000000000000000000000000000000000000000000000000000000          REP Governor                                            UNDER VOTES                           Precinct 8                                             01 
00110100009000003000000000001000002000000000000000000000000000000000000000000000000000000000000000000          REP Governor                                            UNDER VOTES                           Precinct 9                                             01 
00110100010000001000000000000000001000000000000000000000000000000000000000000000000000000000000000000          REP Governor                                            UNDER VOTES                           Precinct 10                                            01 
00110100011000000000000000000000000000000000000000000000000000000000000000000000000000000000000000000          REP Governor                                            UNDER VOTES                           Precinct 11                                            01 
00120010001000013000000000008000005000000000000000000000000000000000000000000000000000000000000000000REP       REP Lieutenant Governor                                 Trayce Bradford                       Precinct 1                                             01 
00120010002000013000000000006000007000000000000000000000000000000000000000000000000000000000000000000REP       REP Lieutenant Governor                                 Trayce Bradford                       Precinct 2                                             01 
00120010003000008000000000003000005000000000000000000000000000000000000000000000000000000000000000000REP       REP Lieutenant Governor                                 Trayce Bradford                       Precinct 3                                             01 
00120010004000018000000000007000011000000000000000000000000000000000000000000000000000000000000000000REP       REP Lieutenant Governor                                 Trayce Bradford                       Precinct 4                                             01 
00120010005000060000000000027000033000000000000000000000000000000000000000000000000000000000000000000REP       REP Lieutenant Governor                                 Trayce Bradford                       Precinct 5                                             01 
00120010006000005000000000004000001000000000000000000000000000000000000000000000000000000000000000000REP       REP Lieutenant Governor                                 Trayce Bradford                       Precinct 6                                             01 
00120010007000042000000000022000020000000000000000000000000000000000000000000000000000000000000000000REP       REP Lieutenant Governor                                 Trayce Bradford                       Precinct 7                                             01 
00120010008000011000000000002000009000000000000000000000000000000000000000000000000000000000000000000REP       REP Lieutenant Governor                                 Trayce Bradford                       Precinct 8                                             01 
00120010009000017000000000009000008000000000000000000000000000000000000000000000000000000000000000000REP       REP Lieutenant Governor                                 Trayce Bradford                       Precinct 9                                             01 
00120010010000027000001000007000019000000000000000000000000000000000000000000000000000000000000000000REP       REP Lieutenant Governor                                 Trayce Bradford                       Precinct 10                                            01 
00120010011000016000000000001000015000000000000000000000000000000000000000000000000000000000000000000REP       REP Lieutenant Governor                                 Trayce Bradford                       Precinct 11                                            01 
00120020001000003000000000002000001000000000000000000000000000000000000000000000000000000000000000000REP       REP Lieutenant Governor                                 Zach Vance                            Precinct 1                                             01 
00120020002000006000000000002000004000000000000000000000000000000000000000000000000000000000000000000REP       REP Lieutenant Governor                                 Zach Vance                            Precinct 2                                             01 
00120020003000004000000000002000002000000000000000000000000000000000000000000000000000000000000000000REP       REP Lieutenant Governor                                 Zach Vance                            Precinct 3                                             01 
00120020004000003000000000001000002000000000000000000000000000000000000000000000000000000000000000000REP       REP Lieutenant Governor                                 Zach Vance                            Precinct 4                                             01 
00120020005000026000001000013000012000000000000000000000000000000000000000000000000000000000000000000REP       REP Lieutenant Governor                                 Zach Vance                            Precinct 5                                             01 
00120020006000002000000000001000001000000000000000000000000000000000000000000000000000000000000000000REP       REP Lieutenant Governor                                 Zach Vance                            Precinct 6                                             01 
00120020007000010000000000004000006000000000000000000000000000000000000000000000000000000000000000000REP       REP Lieutenant Governor                                 Zach Vance                            Precinct 7                                             01 
00120020008000003000000000000000003000000000000000000000000000000000000000000000000000000000000000000REP       REP Lieutenant Governor                                 Zach Vance                            Precinct 8                                             01 
00120020009000006000000000001000005000000000000000000000000000000000000000000000000000000000000000000REP       REP Lieutenant Governor                                 Zach Vance                            Precinct 9                                             01 
00120020010000006000000000003000003000000000000000000000000000000000000000000000000000000000000000000REP       REP Lieutenant Governor                                 Zach Vance                            Precinct 10                                            01 
00120020011000003000000000002000001000000000000000000000000000000000000000000000000000000000000000000REP       REP Lieutenant Governor                                 Zach Vance                            Precinct 11                                            01 
00120030001000040000000000017000023000000000000000000000000000000000000000000000000000000000000000000REP       REP Lieutenant Governor                                 Dan Patrick                           Precinct 1                                             01 
00120030002000067000001000036000030000000000000000000000000000000000000000000000000000000000000000000REP       REP Lieutenant Governor                                 Dan Patrick                           Precinct 2                                             01 
00120030003000094000002000048000044000000000000000000000000000000000000000000000000000000000000000000REP       REP Lieutenant Governor                                 Dan Patrick                           Precinct 3                                             01 
00120030004000065000001000041000023000000000000000000000000000000000000000000000000000000000000000000REP       REP Lieutenant Governor                                 Dan Patrick                           Precinct 4                                             01 
00120030005000351000006000178000167000000000000000000000000000000000000000000000000000000000000000000REP       REP Lieutenant Governor                                 Dan Patrick                           Precinct 5                                             01 
00120030006000028000001000015000012000000000000000000000000000000000000000000000000000000000000000000REP       REP Lieutenant Governor                                 Dan Patrick                           Precinct 6                                             01 
00120030007000219000005000123000091000000000000000000000000000000000000000000000000000000000000000000REP       REP Lieutenant Governor                                 Dan Patrick                           Precinct 7                                             01 
00120030008000124000000000045000079000000000000000000000000000000000000000000000000000000000000000000REP       REP Lieutenant Governor                                 Dan Patrick                           Precinct 8                                             01 
00120030009000126000004000064000058000000000000000000000000000000000000000000000000000000000000000000REP       REP Lieutenant Governor                                 Dan Patrick                           Precinct 9                                             01 
00120030010000247000004000056000187000000000000000000000000000000000000000000000000000000000000000000REP       REP Lieutenant Governor                                 Dan Patrick                           Precinct 10                                            01 
00120030011000220000000000037000183000000000000000000000000000000000000000000000000000000000000000000REP       REP Lieutenant Governor                                 Dan Patrick                           Precinct 11                                            01 
00120040001000003000000000002000001000000000000000000000000000000000000000000000000000000000000000000REP       REP Lieutenant Governor                                 Todd M. Bullis                        Precinct 1                                             01 
00120040002000002000000000000000002000000000000000000000000000000000000000000000000000000000000000000REP       REP Lieutenant Governor                                 Todd M. Bullis                        Precinct 2                                             01 
00120040003000003000000000001000002000000000000000000000000000000000000000000000000000000000000000000REP       REP Lieutenant Governor                                 Todd M. Bullis                        Precinct 3                                             01 
00120040004000004000000000002000002000000000000000000000000000000000000000000000000000000000000000000REP       REP Lieutenant Governor                                 Todd M. Bullis                        Precinct 4                                             01 
00120040005000015000000000004000011000000000000000000000000000000000000000000000000000000000000000000REP       REP Lieutenant Governor                                 Todd M. Bullis                        Precinct 5                                             01 
00120040006000000000000000000000000000000000000000000000000000000000000000000000000000000000000000000REP       REP Lieutenant Governor                                 Todd M. Bullis                        Precinct 6                                             01 
00120040007000007000000000002000005000000000000000000000000000000000000000000000000000000000000000000REP       REP Lieutenant Governor                                 Todd M. Bullis                        Precinct 7                                             01 
00120040008000003000000000002000001000000000000000000000000000000000000000000000000000000000000000000REP       REP Lieutenant Governor                                 Todd M. Bullis                        Precinct 8                                             01 
00120040009000003000000000001000002000000000000000000000000000000000000000000000000000000000000000000REP       REP Lieutenant Governor                                 Todd M. Bullis                        Precinct 9                                             01 
00120040010000006000000000001000005000000000000000000000000000000000000000000000000000000000000000000REP       REP Lieutenant Governor                                 Todd M. Bullis                        Precinct 10                                            01 
00120040011000005000000000000000005000000000000000000000000000000000000000000000000000000000000000000REP       REP Lieutenant Governor                                 Todd M. Bullis                        Precinct 11                                            01 
00120050001000001000000000001000000000000000000000000000000000000000000000000000000000000000000000000REP       REP Lieutenant Governor                                 Aaron Sorrells                        Precinct 1                                             01 
00120050002000002000000000002000000000000000000000000000000000000000000000000000000000000000000000000REP       REP Lieutenant Governor                                 Aaron Sorrells                        Precinct 2                                             01 
00120050003000005000000000002000003000000000000000000000000000000000000000000000000000000000000000000REP       REP Lieutenant Governor                                 Aaron Sorrells                        Precinct 3                                             01 
00120050004000001000000000000000001000000000000000000000000000000000000000000000000000000000000000000REP       REP Lieutenant Governor                                 Aaron Sorrells                        Precinct 4                                             01 
00120050005000012000000000005000007000000000000000000000000000000000000000000000000000000000000000000REP       REP Lieutenant Governor                                 Aaron Sorrells                        Precinct 5                                             01 
00120050006000001000000000000000001000000000000000000000000000000000000000000000000000000000000000000REP       REP Lieutenant Governor                                 Aaron Sorrells                        Precinct 6                                             01 
00120050007000011000000000004000007000000000000000000000000000000000000000000000000000000000000000000REP       REP Lieutenant Governor                                 Aaron Sorrells                        Precinct 7                                             01 
00120050008000003000000000000000003000000000000000000000000000000000000000000000000000000000000000000REP       REP Lieutenant Governor                                 Aaron Sorrells                        Precinct 8                                             01 
00120050009000002000000000002000000000000000000000000000000000000000000000000000000000000000000000000REP       REP Lieutenant Governor                                 Aaron Sorrells                        Precinct 9                                             01 
00120050010000006000000000000000006000000000000000000000000000000000000000000000000000000000000000000REP       REP Lieutenant Governor                                 Aaron Sorrells                        Precinct 10                                            01 
00120050011000010000000000000000010000000000000000000000000000000000000000000000000000000000000000000REP       REP Lieutenant Governor                                 Aaron Sorrells                        Precinct 11                                            01 
00120060001000002000000000000000002000000000000000000000000000000000000000000000000000000000000000000REP       REP Lieutenant Governor                                 Daniel Miller                         Precinct 1                                             01 
00120060002000004000000000002000002000000000000000000000000000000000000000000000000000000000000000000REP       REP Lieutenant Governor                                 Daniel Miller                         Precinct 2                                             01 
00120060003000007000000000002000005000000000000000000000000000000000000000000000000000000000000000000REP       REP Lieutenant Governor                                 Daniel Miller                         Precinct 3                                             01 
00120060004000007000000000005000002000000000000000000000000000000000000000000000000000000000000000000REP       REP Lieutenant Governor                                 Daniel Miller                         Precinct 4                                             01 
00120060005000044000004000024000016000000000000000000000000000000000000000000000000000000000000000000REP       REP Lieutenant Governor                                 Daniel Miller                         Precinct 5                                             01 
00120060006000005000000000005000000000000000000000000000000000000000000000000000000000000000000000000REP       REP Lieutenant Governor                                 Daniel Miller                         Precinct 6                                             01 
00120060007000025000000000015000010000000000000000000000000000000000000000000000000000000000000000000REP       REP Lieutenant Governor                                 Daniel Miller                         Precinct 7                                             01 
00120060008000007000000000002000005000000000000000000000000000000000000000000000000000000000000000000REP       REP Lieutenant Governor                                 Daniel Miller                         Precinct 8                                             01 
00120060009000007000000000003000004000000000000000000000000000000000000000000000000000000000000000000REP       REP Lieutenant Governor                                 Daniel Miller                         Precinct 9                                             01 
00120060010000017000000000004000013000000000000000000000000000000000000000000000000000000000000000000REP       REP Lieutenant Governor                                 Daniel Miller                         Precinct 10                                            01 
00120060011000012000000000001000011000000000000000000000000000000000000000000000000000000000000000000REP       REP Lieutenant Governor                                 Daniel Miller                         Precinct 11                                            01 
00120070001000000000000000000000000000000000000000000000000000000000000000000000000000000000000000000          REP Lieutenant Governor                                 OVER VOTES                            Precinct 1                                             01 
00120070002000000000000000000000000000000000000000000000000000000000000000000000000000000000000000000          REP Lieutenant Governor                                 OVER VOTES                            Precinct 2                                             01 
00120070003000000000000000000000000000000000000000000000000000000000000000000000000000000000000000000          REP Lieutenant Governor                                 OVER VOTES                            Precinct 3                                             01 
00120070004000000000000000000000000000000000000000000000000000000000000000000000000000000000000000000          REP Lieutenant Governor                                 OVER VOTES                            Precinct 4                                             01 
00120070005000000000000000000000000000000000000000000000000000000000000000000000000000000000000000000          REP Lieutenant Governor                                 OVER VOTES                            Precinct 5                                             01 
00120070006000000000000000000000000000000000000000000000000000000000000000000000000000000000000000000          REP Lieutenant Governor                                 OVER VOTES                            Precinct 6                                             01 
00120070007000000000000000000000000000000000000000000000000000000000000000000000000000000000000000000          REP Lieutenant Governor                                 OVER VOTES                            Precinct 7                                             01 
00120070008000000000000000000000000000000000000000000000000000000000000000000000000000000000000000000          REP Lieutenant Governor                                 OVER VOTES                            Precinct 8                                             01 
00120070009000000000000000000000000000000000000000000000000000000000000000000000000000000000000000000          REP Lieutenant Governor                                 OVER VOTES                            Precinct 9                                             01 
00120070010000000000000000000000000000000000000000000000000000000000000000000000000000000000000000000          REP Lieutenant Governor                                 OVER VOTES                            Precinct 10                                            01 
00120070011000000000000000000000000000000000000000000000000000000000000000000000000000000000000000000          REP Lieutenant Governor                                 OVER VOTES                            Precinct 11                                            01 
00120080001000012000000000006000006000000000000000000000000000000000000000000000000000000000000000000          REP Lieutenant Governor                                 UNDER VOTES                           Precinct 1                                             01 
00120080002000009000000000005000004000000000000000000000000000000000000000000000000000000000000000000          REP Lieutenant Governor                                 UNDER VOTES                           Precinct 2                                             01 
00120080003000007000000000002000005000000000000000000000000000000000000000000000000000000000000000000          REP Lieutenant Governor                                 UNDER VOTES                           Precinct 3                                             01 
00120080004000025000000000017000008000000000000000000000000000000000000000000000000000000000000000000          REP Lieutenant Governor                                 UNDER VOTES                           Precinct 4                                             01 
00120080005000072000000000029000043000000000000000000000000000000000000000000000000000000000000000000          REP Lieutenant Governor                                 UNDER VOTES                           Precinct 5                                             01 
00120080006000002000000000000000002000000000000000000000000000000000000000000000000000000000000000000          REP Lieutenant Governor                                 UNDER VOTES                           Precinct 6                                             01 
00120080007000018000000000010000008000000000000000000000000000000000000000000000000000000000000000000          REP Lieutenant Governor                                 UNDER VOTES                           Precinct 7                                             01 
00120080008000016000000000005000011000000000000000000000000000000000000000000000000000000000000000000          REP Lieutenant Governor                                 UNDER VOTES                           Precinct 8                                             01 
00120080009000009000000000004000005000000000000000000000000000000000000000000000000000000000000000000          REP Lieutenant Governor                                 UNDER VOTES                           Precinct 9                                             01 
00120080010000022000000000004000018000000000000000000000000000000000000000000000000000000000000000000          REP Lieutenant Governor                                 UNDER VOTES                           Precinct 10                                            01 
00120080011000010000000000001000009000000000000000000000000000000000000000000000000000000000000000000          REP Lieutenant Governor                                 UNDER VOTES                           Precinct 11                                            01 
00130010001000012000000000006000006000000000000000000000000000000000000000000000000000000000000000000REP       REP Attorney General                                    Eva Guzman                            Precinct 1                                             01 
00130010002000011000001000006000004000000000000000000000000000000000000000000000000000000000000000000REP       REP Attorney General                                    Eva Guzman                            Precinct 2                                             01 
00130010003000018000000000011000007000000000000000000000000000000000000000000000000000000000000000000REP       REP Attorney General                                    Eva Guzman                            Precinct 3                                             01 
