000000000040000000000400000000000000000PRECINCTS COUNTED - TOTAL                               PRECINCTS COUNTED - TOTAL                                      00 
00010010004000360400040003604          REGISTERED VOTERS - TOTAL                               REGISTERED VOTERS - TOTAL                                      00 
00020010004000000000040000000          REGISTERED VOTERS - Republican Party                    REGISTERED VOTERS - Republican Party                           00 
00030010004000000000040000000          REGISTERED VOTERS - Democratic Party                    REGISTERED VOTERS - Democratic Party                           00 
00040010004000360400040003604          REGISTERED VOTERS - NONPARTISAN                         REGISTERED VOTERS - NONPARTISAN                                00 
0005001000400008610004000000           BALLOTS CAST - TOTAL                                    BALLOTS CAST - TOTAL                                           00 
0006001000400008390004000000 REP       BALLOTS CAST - Republican Party                         BALLOTS CAST - Republican Party                                00 
0007001000400000220004000000 DEM       BALLOTS CAST - Democratic Party                         BALLOTS CAST - Democratic Party                                00 
0008001000400000000004000000 NON       BALLOTS CAST - NONPARTISAN                              BALLOTS CAST - NONPARTISAN                                     00 
0009001000400000000004000000           BALLOTS CAST - BLANK                                    BALLOTS CAST - BLANK                                           00 
0010001000400007670004000000 REP       REP US Representative, District 13                      Ronny Jackson                                                  01 
0011001000400000430004000000 REP       REP Governor                                            Don Huffines                                                   01 
0011002000400006230004000000 REP       REP Governor                                            Greg Abbott                                                    01 
0011003000400000060004000000 REP       REP Governor                                            Kandy Kaye Horn                                                01 
0011004000400000470004000000 REP       REP Governor                                            Allen B. West                                                  01 
0011005000400000620004000000 REP       REP Governor                                            Chad Prather                                                   01 
0011006000400000000004000000 REP       REP Governor                                            Danny Harrison                                                 01 
0011007000400000020004000000 REP       REP Governor                                            Paul Belew                                                     01 
0011008000400000420004000000 REP       REP Governor                                            Rick Perry                                                     01 
0012001000400000830004000000 REP       REP Lieutenant Governor                                 Trayce Bradford                                                01 
0012002000400000530004000000 REP       REP Lieutenant Governor                                 Daniel Miller                                                  01 
0012003000400000190004000000 REP       REP Lieutenant Governor                                 Aaron Sorrells                                                 01 
0012004000400000080004000000 REP       REP Lieutenant Governor                                 Zach Vance                                                     01 
0012005000400000080004000000 REP       REP Lieutenant Governor                                 Todd M. Bullis                                                 01 
0012006000400005720004000000 REP       REP Lieutenant Governor                                 Dan Patrick                                                    01 
0013001000400001760004000000 REP       REP Attorney General                                    Eva Guzman                                                     01 
0013002000400004090004000000 REP       REP Attorney General                                    Ken Paxton                                                     01 
0013003000400001610004000000 REP       REP Attorney General                                    George P. Bush                                                 01 
0013004000400000570004000000 REP       REP Attorney General                                    Louie Gohmert                                                  01 
0014001000400006320004000000 REP       REP Comptroller of Public Accounts                      Glenn Hegar                                                    01 
0014002000400000630004000000 REP       REP Comptroller of Public Accounts                      Mark V. Goloby                                                 01 
0015001000400002360004000000 REP       REP Comm General Land Office                            Dawn Buckingham                                                01 
0015002000400000820004000000 REP       REP Comm General Land Office                            Don W. Minton                                                  01 
0015003000400000290004000000 REP       REP Comm General Land Office                            Weston Martinez                                                01 
0015004000400000920004000000 REP       REP Comm General Land Office                            Jon Spiers                                                     01 
0015005000400000210004000000 REP       REP Comm General Land Office                            Victor Avila                                                   01 
0015006000400000040004000000 REP       REP Comm General Land Office                            Ben Armenta                                                    01 
0015007000400000140004000000 REP       REP Comm General Land Office                            Rufus Lopez                                                    01 
0015008000400001410004000000 REP       REP Comm General Land Office                            Tim Westley                                                    01 
0016001000400000910004000000 REP       REP Commissioner of Agriculture                         Carey A. Counsil                                               01 
0016002000400002380004000000 REP       REP Commissioner of Agriculture                         James White                                                    01 
0016003000400003850004000000 REP       REP Commissioner of Agriculture                         Sid Miller                                                     01 
0017001000400003130004000000 REP       REP Railroad Commissioner                               Wayne Christian                                                01 
0017002000400000990004000000 REP       REP Railroad Commissioner                               Dawayne Tipton                                                 01 
0017003000400000780004000000 REP       REP Railroad Commissioner                               Marvin "Sarge" Summers                                         01 
0017004000400000740004000000 REP       REP Railroad Commissioner                               Sarah Stogner                                                  01 
0017005000400000770004000000 REP       REP Railroad Commissioner                               Tom Slocum Jr                                                  01 
0018001000400007050004000000 REP       REP Justice, Supreme Court, Pl 3                        Debra Lehrmann                                                 01 
0019001000400007050004000000 REP       REP Justice, Supreme Court, Pl 5                        Rebeca Huddle                                                  01 
0020001000400003440004000000 REP       REP Justice, Supreme Court, Pl 9                        David J. Schenck                                               01 
0020002000400003090004000000 REP       REP Justice, Supreme Court, Pl 9                        Evan Young                                                     01 
0021001000400006950004000000 REP       REP Judge, Ct of Crim App, Pl 2                         Mary Lou Keel                                                  01 
0022001000400003330004000000 REP       REP Judge, Ct of Crim App, Pl 5                         Clint Morgan                                                   01 
0022002000400003210004000000 REP       REP Judge, Ct of Crim App, Pl 5                         Scott Walker                                                   01 
0023001000400006910004000000 REP       REP Judge, Ct of Crim App, Pl 6                         Jesse F. McClure, III                                          01 
0024001000400003970004000000 REP       REP Member, State BoE, Dist 15                          Aaron Kinsey                                                   01 
0024002000400002630004000000 REP       REP Member, State BoE, Dist 15                          Jay Johnson                                                    01 
0025001000400007560004000000 REP       REP State Senator, Dist 28                              Charles Perry                                                  01 
0026001000400005440004000000 REP       REP State Representative, Dist 88                       Ken King                                                       01 
0026002000400002230004000000 REP       REP State Representative, Dist 88                       Ted Hutto                                                      01 
0027001000400006970004000000 REP       REP Justice, 7th Ct of App Dist, Pl 4                   Larry Doss                                                     01 
0028001000400001660004000000 REP       REP County Judge                                        Ann Statham                                                    01 
0028002000400006540004000000 REP       REP County Judge                                        Kimberly R. Jones                                              01 
0029001000400005000004000000 REP       REP District and County Clerk                           Barbara Spitzer                                                01 
0029002000400003190004000000 REP       REP District and County Clerk                           Ruby Weese                                                     01 
0030001000400007690004000000 REP       REP County Treasurer                                    Brenda Overstreet                                              01 
0031001000400007610004000000 REP       REP Justice of the Peace                                Melissa K. Harper                                              01 
0032001000100002190001000000 REPCOM0002REP County Commissioner Pct 2                           Mark Ross                             Precinct No. 2           01 
0033001000100001920001000000 REPCOM0004REP County Commissioner Pct 4                           Rick Elliott                          Precinct No. 4           01 
0034001000400007830004000000 REP       REP County Chair                                        James Driver                                                   01 
0035001000400007900004000000 REP       REP Proposition 1                                       YES                                                            01Y
0035002000400000380004000000 REP       REP Proposition 1                                       NO                                                             01Y
0036001000400005940004000000 REP       REP Proposition 2                                       YES                                                            01Y
0036002000400002100004000000 REP       REP Proposition 2                                       NO                                                             01Y
0037001000400007370004000000 REP       REP Proposition 3                                       YES                                                            01Y
0037002000400000890004000000 REP       REP Proposition 3                                       NO                                                             01Y
0038001000400007490004000000 REP       REP Proposition 4                                       YES                                                            01Y
0038002000400000680004000000 REP       REP Proposition 4                                       NO                                                             01Y
0039001000400007440004000000 REP       REP Proposition 5                                       YES                                                            01Y
0039002000400000710004000000 REP       REP Proposition 5                                       NO                                                             01Y
0040001000400006950004000000 REP       REP Proposition 6                                       YES                                                            01Y
0040002000400001030004000000 REP       REP Proposition 6                                       NO                                                             01Y
0041001000400008090004000000 REP       REP Proposition 7                                       YES                                                            01Y
0041002000400000140004000000 REP       REP Proposition 7                                       NO                                                             01Y
0042001000400007680004000000 REP       REP Proposition 8                                       YES                                                            01Y
0042002000400000490004000000 REP       REP Proposition 8                                       NO                                                             01Y
0043001000400007240004000000 REP       REP Proposition 9                                       YES                                                            01Y
0043002000400000920004000000 REP       REP Proposition 9                                       NO                                                             01Y
0044001000400007720004000000 REP       REP Proposition 10                                      YES                                                            01Y
0044002000400000390004000000 REP       REP Proposition 10                                      NO                                                             01Y
0045001000400000170004000000 DEM       DEM US Representative, District 13                      Kathleen Brown                                                 01 
0046001000400000010004000000 DEM       DEM Governor                                            Joy Diaz                                                       01 
0046002000400000030004000000 DEM       DEM Governor                                            Michael Cooper                                                 01 
0046003000400000010004000000 DEM       DEM Governor                                            Rich Wakeland                                                  01 
0046004000400000160004000000 DEM       DEM Governor                                            Beto O'Rourke                                                  01 
0046005000400000010004000000 DEM       DEM Governor                                            Inocencio (Inno) Barrientez                                    01 
0047001000400000110004000000 DEM       DEM Lieutenant Governor                                 Mike Collier                                                   01 
0047002000400000070004000000 DEM       DEM Lieutenant Governor                                 Michelle Beckley                                               01 
0047003000400000020004000000 DEM       DEM Lieutenant Governor                                 Carla Brailey                                                  01 
0048001000400000030004000000 DEM       DEM Attorney General                                    S. "TBONE" Raynor                                              01 
0048002000400000040004000000 DEM       DEM Attorney General                                    Mike Fields                                                    01 
0048003000400000050004000000 DEM       DEM Attorney General                                    Lee Merritt                                                    01 
0048004000400000040004000000 DEM       DEM Attorney General                                    Joe Jaworski                                                   01 
0048005000400000030004000000 DEM       DEM Attorney General                                    Rochelle Mercedes Garza                                        01 
0049001000400000090004000000 DEM       DEM Comptroller of Public Accounts                      Janet T. Dudding                                               01 
0049002000400000050004000000 DEM       DEM Comptroller of Public Accounts                      Angel Luis Vega                                                01 
0049003000400000080004000000 DEM       DEM Comptroller of Public Accounts                      Tim Mahoney                                                    01 
0050001000400000060004000000 DEM       DEM Comm General Land Office                            Jay Kleberg                                                    01 
0050002000400000060004000000 DEM       DEM Comm General Land Office                            Michael Lange                                                  01 
0050003000400000040004000000 DEM       DEM Comm General Land Office                            Jinny Suh                                                      01 
0050004000400000060004000000 DEM       DEM Comm General Land Office                            Sandragrace Martinez                                           01 
0051001000400000060004000000 DEM       DEM Commissioner of Agriculture                         Ed Ireson                                                      01 
0051002000400000150004000000 DEM       DEM Commissioner of Agriculture                         Susan Hays                                                     01 
0052001000400000190004000000 DEM       DEM Railroad Commissioner                               Luke Warford                                                   01 
0053001000400000200004000000 DEM       DEM Justice, Supreme Court, Pl 3                        Erin A Nowell                                                  01 
0054001000400000210004000000 DEM       DEM Justice, Supreme Court, Pl 5                        Amanda Reichek                                                 01 
0055001000400000200004000000 DEM       DEM Justice, Supreme Court, Pl 9                        Julia Maldonado                                                01 
0056001000400000200004000000 DEM       DEM Judge, Ct of Crim App, Pl 5                         Dana Huffman                                                   01 
0057001000400000180004000000 DEM       DEM Judge, Ct of Crim App, Pl 6                         Robert Johnson                                                 01 
0058001000400000210004000000 DEM       DEM County Chair                                        Grace Holman                                                   01 
