00010010001000000000000000000000000000000000000000000000000000000000000000000000000000000000000000000          REGISTERED VOTERS - TOTAL                               REGISTERED VOTERS - TOTAL             Precinct 1                                             00 
00010010002000000000000000000000000000000000000000000000000000000000000000000000000000000000000000000          REGISTERED VOTERS - TOTAL                               REGISTERED VOTERS - TOTAL             Precinct 6                                             00 
00010010003000000000000000000000000000000000000000000000000000000000000000000000000000000000000000000          REGISTERED VOTERS - TOTAL                               REGISTERED VOTERS - TOTAL             Precinct 8                                             00 
00010010004000000000000000000000000000000000000000000000000000000000000000000000000000000000000000000          REGISTERED VOTERS - TOTAL                               REGISTERED VOTERS - TOTAL             Precinct 9                                             00 
00010010005000000000000000000000000000000000000000000000000000000000000000000000000000000000000000000          REGISTERED VOTERS - TOTAL                               REGISTERED VOTERS - TOTAL             Precinct 10                                            00 
00010010006000000000000000000000000000000000000000000000000000000000000000000000000000000000000000000          REGISTERED VOTERS - TOTAL                               REGISTERED VOTERS - TOTAL             Precinct 11                                            00 
00010010007000000000000000000000000000000000000000000000000000000000000000000000000000000000000000000          REGISTERED VOTERS - TOTAL                               REGISTERED VOTERS - TOTAL             Precinct 12                                            00 
00010010008000000000000000000000000000000000000000000000000000000000000000000000000000000000000000000          REGISTERED VOTERS - TOTAL                               REGISTERED VOTERS - TOTAL             Precinct 13                                            00 
00010010009000000000000000000000000000000000000000000000000000000000000000000000000000000000000000000          REGISTERED VOTERS - TOTAL                               REGISTERED VOTERS - TOTAL             Precinct 14                                            00 
00010010010000000000000000000000000000000000000000000000000000000000000000000000000000000000000000000          REGISTERED VOTERS - TOTAL                               REGISTERED VOTERS - TOTAL             Precinct 15                                            00 
00010010011000000000000000000000000000000000000000000000000000000000000000000000000000000000000000000          REGISTERED VOTERS - TOTAL                               REGISTERED VOTERS - TOTAL             Precinct 17                                            00 
00010010012000000000000000000000000000000000000000000000000000000000000000000000000000000000000000000          REGISTERED VOTERS - TOTAL                               REGISTERED VOTERS - TOTAL             Precinct 20                                            00 
00010010013000000000000000000000000000000000000000000000000000000000000000000000000000000000000000000          REGISTERED VOTERS - TOTAL                               REGISTERED VOTERS - TOTAL             Precinct 24                                            00 
00010010014000000000000000000000000000000000000000000000000000000000000000000000000000000000000000000          REGISTERED VOTERS - TOTAL                               REGISTERED VOTERS - TOTAL             Precinct 26                                            00 
00010010015000000000000000000000000000000000000000000000000000000000000000000000000000000000000000000          REGISTERED VOTERS - TOTAL                               REGISTERED VOTERS - TOTAL             Precinct 27                                            00 
00010010016000000000000000000000000000000000000000000000000000000000000000000000000000000000000000000          REGISTERED VOTERS - TOTAL                               REGISTERED VOTERS - TOTAL             Precinct 32                                            00 
00020010001000000000000000000000000000000000000000000000000000000000000000000000000000000000000000000REP       REGISTERED VOTERS - Republican Party                    REGISTERED VOTERS - Republican Party  Precinct 1                                             00 
00020010002000000000000000000000000000000000000000000000000000000000000000000000000000000000000000000REP       REGISTERED VOTERS - Republican Party                    REGISTERED VOTERS - Republican Party  Precinct 6                                             00 
00020010003000000000000000000000000000000000000000000000000000000000000000000000000000000000000000000REP       REGISTERED VOTERS - Republican Party                    REGISTERED VOTERS - Republican Party  Precinct 8                                             00 
00020010004000000000000000000000000000000000000000000000000000000000000000000000000000000000000000000REP       REGISTERED VOTERS - Republican Party                    REGISTERED VOTERS - Republican Party  Precinct 9                                             00 
00020010005000000000000000000000000000000000000000000000000000000000000000000000000000000000000000000REP       REGISTERED VOTERS - Republican Party                    REGISTERED VOTERS - Republican Party  Precinct 10                                            00 
00020010006000000000000000000000000000000000000000000000000000000000000000000000000000000000000000000REP       REGISTERED VOTERS - Republican Party                    REGISTERED VOTERS - Republican Party  Precinct 11                                            00 
00020010007000000000000000000000000000000000000000000000000000000000000000000000000000000000000000000REP       REGISTERED VOTERS - Republican Party                    REGISTERED VOTERS - Republican Party  Precinct 12                                            00 
00020010008000000000000000000000000000000000000000000000000000000000000000000000000000000000000000000REP       REGISTERED VOTERS - Republican Party                    REGISTERED VOTERS - Republican Party  Precinct 13                                            00 
00020010009000000000000000000000000000000000000000000000000000000000000000000000000000000000000000000REP       REGISTERED VOTERS - Republican Party                    REGISTERED VOTERS - Republican Party  Precinct 14                                            00 
00020010010000000000000000000000000000000000000000000000000000000000000000000000000000000000000000000REP       REGISTERED VOTERS - Republican Party                    REGISTERED VOTERS - Republican Party  Precinct 15                                            00 
00020010011000000000000000000000000000000000000000000000000000000000000000000000000000000000000000000REP       REGISTERED VOTERS - Republican Party                    REGISTERED VOTERS - Republican Party  Precinct 17                                            00 
00020010012000000000000000000000000000000000000000000000000000000000000000000000000000000000000000000REP       REGISTERED VOTERS - Republican Party                    REGISTERED VOTERS - Republican Party  Precinct 20                                            00 
00020010013000000000000000000000000000000000000000000000000000000000000000000000000000000000000000000REP       REGISTERED VOTERS - Republican Party                    REGISTERED VOTERS - Republican Party  Precinct 24                                            00 
00020010014000000000000000000000000000000000000000000000000000000000000000000000000000000000000000000REP       REGISTERED VOTERS - Republican Party                    REGISTERED VOTERS - Republican Party  Precinct 26                                            00 
00020010015000000000000000000000000000000000000000000000000000000000000000000000000000000000000000000REP       REGISTERED VOTERS - Republican Party                    REGISTERED VOTERS - Republican Party  Precinct 27                                            00 
00020010016000000000000000000000000000000000000000000000000000000000000000000000000000000000000000000REP       REGISTERED VOTERS - Republican Party                    REGISTERED VOTERS - Republican Party  Precinct 32                                            00 
00030010001000000000000000000000000000000000000000000000000000000000000000000000000000000000000000000DEM       REGISTERED VOTERS - Democratic Party                    REGISTERED VOTERS - Democratic Party  Precinct 1                                             00 
00030010002000000000000000000000000000000000000000000000000000000000000000000000000000000000000000000DEM       REGISTERED VOTERS - Democratic Party                    REGISTERED VOTERS - Democratic Party  Precinct 6                                             00 
00030010003000000000000000000000000000000000000000000000000000000000000000000000000000000000000000000DEM       REGISTERED VOTERS - Democratic Party                    REGISTERED VOTERS - Democratic Party  Precinct 8                                             00 
00030010004000000000000000000000000000000000000000000000000000000000000000000000000000000000000000000DEM       REGISTERED VOTERS - Democratic Party                    REGISTERED VOTERS - Democratic Party  Precinct 9                                             00 
00030010005000000000000000000000000000000000000000000000000000000000000000000000000000000000000000000DEM       REGISTERED VOTERS - Democratic Party                    REGISTERED VOTERS - Democratic Party  Precinct 10                                            00 
00030010006000000000000000000000000000000000000000000000000000000000000000000000000000000000000000000DEM       REGISTERED VOTERS - Democratic Party                    REGISTERED VOTERS - Democratic Party  Precinct 11                                            00 
00030010007000000000000000000000000000000000000000000000000000000000000000000000000000000000000000000DEM       REGISTERED VOTERS - Democratic Party                    REGISTERED VOTERS - Democratic Party  Precinct 12                                            00 
00030010008000000000000000000000000000000000000000000000000000000000000000000000000000000000000000000DEM       REGISTERED VOTERS - Democratic Party                    REGISTERED VOTERS - Democratic Party  Precinct 13                                            00 
00030010009000000000000000000000000000000000000000000000000000000000000000000000000000000000000000000DEM       REGISTERED VOTERS - Democratic Party                    REGISTERED VOTERS - Democratic Party  Precinct 14                                            00 
00030010010000000000000000000000000000000000000000000000000000000000000000000000000000000000000000000DEM       REGISTERED VOTERS - Democratic Party                    REGISTERED VOTERS - Democratic Party  Precinct 15                                            00 
00030010011000000000000000000000000000000000000000000000000000000000000000000000000000000000000000000DEM       REGISTERED VOTERS - Democratic Party                    REGISTERED VOTERS - Democratic Party  Precinct 17                                            00 
00030010012000000000000000000000000000000000000000000000000000000000000000000000000000000000000000000DEM       REGISTERED VOTERS - Democratic Party                    REGISTERED VOTERS - Democratic Party  Precinct 20                                            00 
00030010013000000000000000000000000000000000000000000000000000000000000000000000000000000000000000000DEM       REGISTERED VOTERS - Democratic Party                    REGISTERED VOTERS - Democratic Party  Precinct 24                                            00 
00030010014000000000000000000000000000000000000000000000000000000000000000000000000000000000000000000DEM       REGISTERED VOTERS - Democratic Party                    REGISTERED VOTERS - Democratic Party  Precinct 26                                            00 
00030010015000000000000000000000000000000000000000000000000000000000000000000000000000000000000000000DEM       REGISTERED VOTERS - Democratic Party                    REGISTERED VOTERS - Democratic Party  Precinct 27                                            00 
00030010016000000000000000000000000000000000000000000000000000000000000000000000000000000000000000000DEM       REGISTERED VOTERS - Democratic Party                    REGISTERED VOTERS - Democratic Party  Precinct 32                                            00 
00040010001000000000000000000000000000000000000000000000000000000000000000000000000000000000000000000NON       REGISTERED VOTERS - NONPARTISAN                         REGISTERED VOTERS - NONPARTISAN       Precinct 1                                             00 
00040010002000000000000000000000000000000000000000000000000000000000000000000000000000000000000000000NON       REGISTERED VOTERS - NONPARTISAN                         REGISTERED VOTERS - NONPARTISAN       Precinct 6                                             00 
00040010003000000000000000000000000000000000000000000000000000000000000000000000000000000000000000000NON       REGISTERED VOTERS - NONPARTISAN                         REGISTERED VOTERS - NONPARTISAN       Precinct 8                                             00 
00040010004000000000000000000000000000000000000000000000000000000000000000000000000000000000000000000NON       REGISTERED VOTERS - NONPARTISAN                         REGISTERED VOTERS - NONPARTISAN       Precinct 9                                             00 
00040010005000000000000000000000000000000000000000000000000000000000000000000000000000000000000000000NON       REGISTERED VOTERS - NONPARTISAN                         REGISTERED VOTERS - NONPARTISAN       Precinct 10                                            00 
00040010006000000000000000000000000000000000000000000000000000000000000000000000000000000000000000000NON       REGISTERED VOTERS - NONPARTISAN                         REGISTERED VOTERS - NONPARTISAN       Precinct 11                                            00 
00040010007000000000000000000000000000000000000000000000000000000000000000000000000000000000000000000NON       REGISTERED VOTERS - NONPARTISAN                         REGISTERED VOTERS - NONPARTISAN       Precinct 12                                            00 
00040010008000000000000000000000000000000000000000000000000000000000000000000000000000000000000000000NON       REGISTERED VOTERS - NONPARTISAN                         REGISTERED VOTERS - NONPARTISAN       Precinct 13                                            00 
00040010009000000000000000000000000000000000000000000000000000000000000000000000000000000000000000000NON       REGISTERED VOTERS - NONPARTISAN                         REGISTERED VOTERS - NONPARTISAN       Precinct 14                                            00 
00040010010000000000000000000000000000000000000000000000000000000000000000000000000000000000000000000NON       REGISTERED VOTERS - NONPARTISAN                         REGISTERED VOTERS - NONPARTISAN       Precinct 15                                            00 
00040010011000000000000000000000000000000000000000000000000000000000000000000000000000000000000000000NON       REGISTERED VOTERS - NONPARTISAN                         REGISTERED VOTERS - NONPARTISAN       Precinct 17                                            00 
00040010012000000000000000000000000000000000000000000000000000000000000000000000000000000000000000000NON       REGISTERED VOTERS - NONPARTISAN                         REGISTERED VOTERS - NONPARTISAN       Precinct 20                                            00 
00040010013000000000000000000000000000000000000000000000000000000000000000000000000000000000000000000NON       REGISTERED VOTERS - NONPARTISAN                         REGISTERED VOTERS - NONPARTISAN       Precinct 24                                            00 
00040010014000000000000000000000000000000000000000000000000000000000000000000000000000000000000000000NON       REGISTERED VOTERS - NONPARTISAN                         REGISTERED VOTERS - NONPARTISAN       Precinct 26                                            00 
00040010015000000000000000000000000000000000000000000000000000000000000000000000000000000000000000000NON       REGISTERED VOTERS - NONPARTISAN                         REGISTERED VOTERS - NONPARTISAN       Precinct 27                                            00 
00040010016000000000000000000000000000000000000000000000000000000000000000000000000000000000000000000NON       REGISTERED VOTERS - NONPARTISAN                         REGISTERED VOTERS - NONPARTISAN       Precinct 32                                            00 
00050010001000291000010000093000188000000000000000000000000000000000000000000000000000000000000000000          BALLOTS CAST - TOTAL                                    BALLOTS CAST - TOTAL                  Precinct 1                                             00 
00050010002000118000005000005000108000000000000000000000000000000000000000000000000000000000000000000          BALLOTS CAST - TOTAL                                    BALLOTS CAST - TOTAL                  Precinct 6                                             00 
00050010003000297000005000084000208000000000000000000000000000000000000000000000000000000000000000000          BALLOTS CAST - TOTAL                                    BALLOTS CAST - TOTAL                  Precinct 8                                             00 
00050010004000156000008000050000098000000000000000000000000000000000000000000000000000000000000000000          BALLOTS CAST - TOTAL                                    BALLOTS CAST - TOTAL                  Precinct 9                                             00 
00050010005000124000002000011000111000000000000000000000000000000000000000000000000000000000000000000          BALLOTS CAST - TOTAL                                    BALLOTS CAST - TOTAL                  Precinct 10                                            00 
00050010006000339000004000037000298000000000000000000000000000000000000000000000000000000000000000000          BALLOTS CAST - TOTAL                                    BALLOTS CAST - TOTAL                  Precinct 11                                            00 
00050010007000125000001000015000109000000000000000000000000000000000000000000000000000000000000000000          BALLOTS CAST - TOTAL                                    BALLOTS CAST - TOTAL                  Precinct 12                                            00 
00050010008000069000000000005000064000000000000000000000000000000000000000000000000000000000000000000          BALLOTS CAST - TOTAL                                    BALLOTS CAST - TOTAL                  Precinct 13                                            00 
00050010009000087000000000009000078000000000000000000000000000000000000000000000000000000000000000000          BALLOTS CAST - TOTAL                                    BALLOTS CAST - TOTAL                  Precinct 14                                            00 
00050010010000101000004000036000061000000000000000000000000000000000000000000000000000000000000000000          BALLOTS CAST - TOTAL                                    BALLOTS CAST - TOTAL                  Precinct 15                                            00 
00050010011000247000004000028000215000000000000000000000000000000000000000000000000000000000000000000          BALLOTS CAST - TOTAL                                    BALLOTS CAST - TOTAL                  Precinct 17                                            00 
00050010012000157000001000022000134000000000000000000000000000000000000000000000000000000000000000000          BALLOTS CAST - TOTAL                                    BALLOTS CAST - TOTAL                  Precinct 20                                            00 
00050010013000150000001000018000131000000000000000000000000000000000000000000000000000000000000000000          BALLOTS CAST - TOTAL                                    BALLOTS CAST - TOTAL                  Precinct 24                                            00 
00050010014000078000001000012000065000000000000000000000000000000000000000000000000000000000000000000          BALLOTS CAST - TOTAL                                    BALLOTS CAST - TOTAL                  Precinct 26                                            00 
00050010015000138000002000013000123000000000000000000000000000000000000000000000000000000000000000000          BALLOTS CAST - TOTAL                                    BALLOTS CAST - TOTAL                  Precinct 27                                            00 
00050010016000076000001000001000074000000000000000000000000000000000000000000000000000000000000000000          BALLOTS CAST - TOTAL                                    BALLOTS CAST - TOTAL                  Precinct 32                                            00 
00060010001000258000006000087000165000000000000000000000000000000000000000000000000000000000000000000REP       BALLOTS CAST - Republican Party                         BALLOTS CAST - Republican Party       Precinct 1                                             00 
00060010002000104000003000003000098000000000000000000000000000000000000000000000000000000000000000000REP       BALLOTS CAST - Republican Party                         BALLOTS CAST - Republican Party       Precinct 6                                             00 
00060010003000288000003000083000202000000000000000000000000000000000000000000000000000000000000000000REP       BALLOTS CAST - Republican Party                         BALLOTS CAST - Republican Party       Precinct 8                                             00 
00060010004000147000007000049000091000000000000000000000000000000000000000000000000000000000000000000REP       BALLOTS CAST - Republican Party                         BALLOTS CAST - Republican Party       Precinct 9                                             00 
00060010005000117000000000011000106000000000000000000000000000000000000000000000000000000000000000000REP       BALLOTS CAST - Republican Party                         BALLOTS CAST - Republican Party       Precinct 10                                            00 
00060010006000332000004000036000292000000000000000000000000000000000000000000000000000000000000000000REP       BALLOTS CAST - Republican Party                         BALLOTS CAST - Republican Party       Precinct 11                                            00 
00060010007000119000000000014000105000000000000000000000000000000000000000000000000000000000000000000REP       BALLOTS CAST - Republican Party                         BALLOTS CAST - Republican Party       Precinct 12                                            00 
00060010008000065000000000004000061000000000000000000000000000000000000000000000000000000000000000000REP       BALLOTS CAST - Republican Party                         BALLOTS CAST - Republican Party       Precinct 13                                            00 
00060010009000081000000000009000072000000000000000000000000000000000000000000000000000000000000000000REP       BALLOTS CAST - Republican Party                         BALLOTS CAST - Republican Party       Precinct 14                                            00 
00060010010000097000002000036000059000000000000000000000000000000000000000000000000000000000000000000REP       BALLOTS CAST - Republican Party                         BALLOTS CAST - Republican Party       Precinct 15                                            00 
00060010011000230000004000026000200000000000000000000000000000000000000000000000000000000000000000000REP       BALLOTS CAST - Republican Party                         BALLOTS CAST - Republican Party       Precinct 17                                            00 
00060010012000152000001000021000130000000000000000000000000000000000000000000000000000000000000000000REP       BALLOTS CAST - Republican Party                         BALLOTS CAST - Republican Party       Precinct 20                                            00 
00060010013000148000001000016000131000000000000000000000000000000000000000000000000000000000000000000REP       BALLOTS CAST - Republican Party                         BALLOTS CAST - Republican Party       Precinct 24                                            00 
00060010014000073000000000012000061000000000000000000000000000000000000000000000000000000000000000000REP       BALLOTS CAST - Republican Party                         BALLOTS CAST - Republican Party       Precinct 26                                            00 
00060010015000133000001000013000119000000000000000000000000000000000000000000000000000000000000000000REP       BALLOTS CAST - Republican Party                         BALLOTS CAST - Republican Party       Precinct 27                                            00 
00060010016000071000001000001000069000000000000000000000000000000000000000000000000000000000000000000REP       BALLOTS CAST - Republican Party                         BALLOTS CAST - Republican Party       Precinct 32                                            00 
00070010001000033000004000006000023000000000000000000000000000000000000000000000000000000000000000000DEM       BALLOTS CAST - Democratic Party                         BALLOTS CAST - Democratic Party       Precinct 1                                             00 
00070010002000014000002000002000010000000000000000000000000000000000000000000000000000000000000000000DEM       BALLOTS CAST - Democratic Party                         BALLOTS CAST - Democratic Party       Precinct 6                                             00 
00070010003000009000002000001000006000000000000000000000000000000000000000000000000000000000000000000DEM       BALLOTS CAST - Democratic Party                         BALLOTS CAST - Democratic Party       Precinct 8                                             00 
00070010004000009000001000001000007000000000000000000000000000000000000000000000000000000000000000000DEM       BALLOTS CAST - Democratic Party                         BALLOTS CAST - Democratic Party       Precinct 9                                             00 
00070010005000007000002000000000005000000000000000000000000000000000000000000000000000000000000000000DEM       BALLOTS CAST - Democratic Party                         BALLOTS CAST - Democratic Party       Precinct 10                                            00 
00070010006000007000000000001000006000000000000000000000000000000000000000000000000000000000000000000DEM       BALLOTS CAST - Democratic Party                         BALLOTS CAST - Democratic Party       Precinct 11                                            00 
00070010007000006000001000001000004000000000000000000000000000000000000000000000000000000000000000000DEM       BALLOTS CAST - Democratic Party                         BALLOTS CAST - Democratic Party       Precinct 12                                            00 
00070010008000004000000000001000003000000000000000000000000000000000000000000000000000000000000000000DEM       BALLOTS CAST - Democratic Party                         BALLOTS CAST - Democratic Party       Precinct 13                                            00 
00070010009000006000000000000000006000000000000000000000000000000000000000000000000000000000000000000DEM       BALLOTS CAST - Democratic Party                         BALLOTS CAST - Democratic Party       Precinct 14                                            00 
00070010010000004000002000000000002000000000000000000000000000000000000000000000000000000000000000000DEM       BALLOTS CAST - Democratic Party                         BALLOTS CAST - Democratic Party       Precinct 15                                            00 
00070010011000017000000000002000015000000000000000000000000000000000000000000000000000000000000000000DEM       BALLOTS CAST - Democratic Party                         BALLOTS CAST - Democratic Party       Precinct 17                                            00 
00070010012000005000000000001000004000000000000000000000000000000000000000000000000000000000000000000DEM       BALLOTS CAST - Democratic Party                         BALLOTS CAST - Democratic Party       Precinct 20                                            00 
00070010013000002000000000002000000000000000000000000000000000000000000000000000000000000000000000000DEM       BALLOTS CAST - Democratic Party                         BALLOTS CAST - Democratic Party       Precinct 24                                            00 
00070010014000005000001000000000004000000000000000000000000000000000000000000000000000000000000000000DEM       BALLOTS CAST - Democratic Party                         BALLOTS CAST - Democratic Party       Precinct 26                                            00 
00070010015000005000001000000000004000000000000000000000000000000000000000000000000000000000000000000DEM       BALLOTS CAST - Democratic Party                         BALLOTS CAST - Democratic Party       Precinct 27                                            00 
00070010016000005000000000000000005000000000000000000000000000000000000000000000000000000000000000000DEM       BALLOTS CAST - Democratic Party                         BALLOTS CAST - Democratic Party       Precinct 32                                            00 
00080010001000000000000000000000000000000000000000000000000000000000000000000000000000000000000000000NON       BALLOTS CAST - NONPARTISAN                              BALLOTS CAST - NONPARTISAN            Precinct 1                                             00 
00080010002000000000000000000000000000000000000000000000000000000000000000000000000000000000000000000NON       BALLOTS CAST - NONPARTISAN                              BALLOTS CAST - NONPARTISAN            Precinct 6                                             00 
00080010003000000000000000000000000000000000000000000000000000000000000000000000000000000000000000000NON       BALLOTS CAST - NONPARTISAN                              BALLOTS CAST - NONPARTISAN            Precinct 8                                             00 
00080010004000000000000000000000000000000000000000000000000000000000000000000000000000000000000000000NON       BALLOTS CAST - NONPARTISAN                              BALLOTS CAST - NONPARTISAN            Precinct 9                                             00 
00080010005000000000000000000000000000000000000000000000000000000000000000000000000000000000000000000NON       BALLOTS CAST - NONPARTISAN                              BALLOTS CAST - NONPARTISAN            Precinct 10                                            00 
00080010006000000000000000000000000000000000000000000000000000000000000000000000000000000000000000000NON       BALLOTS CAST - NONPARTISAN                              BALLOTS CAST - NONPARTISAN            Precinct 11                                            00 
00080010007000000000000000000000000000000000000000000000000000000000000000000000000000000000000000000NON       BALLOTS CAST - NONPARTISAN                              BALLOTS CAST - NONPARTISAN            Precinct 12                                            00 
00080010008000000000000000000000000000000000000000000000000000000000000000000000000000000000000000000NON       BALLOTS CAST - NONPARTISAN                              BALLOTS CAST - NONPARTISAN            Precinct 13                                            00 
00080010009000000000000000000000000000000000000000000000000000000000000000000000000000000000000000000NON       BALLOTS CAST - NONPARTISAN                              BALLOTS CAST - NONPARTISAN            Precinct 14                                            00 
00080010010000000000000000000000000000000000000000000000000000000000000000000000000000000000000000000NON       BALLOTS CAST - NONPARTISAN                              BALLOTS CAST - NONPARTISAN            Precinct 15                                            00 
00080010011000000000000000000000000000000000000000000000000000000000000000000000000000000000000000000NON       BALLOTS CAST - NONPARTISAN                              BALLOTS CAST - NONPARTISAN            Precinct 17                                            00 
00080010012000000000000000000000000000000000000000000000000000000000000000000000000000000000000000000NON       BALLOTS CAST - NONPARTISAN                              BALLOTS CAST - NONPARTISAN            Precinct 20                                            00 
00080010013000000000000000000000000000000000000000000000000000000000000000000000000000000000000000000NON       BALLOTS CAST - NONPARTISAN                              BALLOTS CAST - NONPARTISAN            Precinct 24                                            00 
00080010014000000000000000000000000000000000000000000000000000000000000000000000000000000000000000000NON       BALLOTS CAST - NONPARTISAN                              BALLOTS CAST - NONPARTISAN            Precinct 26                                            00 
00080010015000000000000000000000000000000000000000000000000000000000000000000000000000000000000000000NON       BALLOTS CAST - NONPARTISAN                              BALLOTS CAST - NONPARTISAN            Precinct 27                                            00 
00080010016000000000000000000000000000000000000000000000000000000000000000000000000000000000000000000NON       BALLOTS CAST - NONPARTISAN                              BALLOTS CAST - NONPARTISAN            Precinct 32                                            00 
00090010001000000000000000000000000000000000000000000000000000000000000000000000000000000000000000000          BALLOTS CAST - BLANK                                    BALLOTS CAST - BLANK                  Precinct 1                                             00 
00090010002000000000000000000000000000000000000000000000000000000000000000000000000000000000000000000          BALLOTS CAST - BLANK                                    BALLOTS CAST - BLANK                  Precinct 6                                             00 
00090010003000000000000000000000000000000000000000000000000000000000000000000000000000000000000000000          BALLOTS CAST - BLANK                                    BALLOTS CAST - BLANK                  Precinct 8                                             00 
00090010004000000000000000000000000000000000000000000000000000000000000000000000000000000000000000000          BALLOTS CAST - BLANK                                    BALLOTS CAST - BLANK                  Precinct 9                                             00 
00090010005000001000000000000000001000000000000000000000000000000000000000000000000000000000000000000          BALLOTS CAST - BLANK                                    BALLOTS CAST - BLANK                  Precinct 10                                            00 
00090010006000000000000000000000000000000000000000000000000000000000000000000000000000000000000000000          BALLOTS CAST - BLANK                                    BALLOTS CAST - BLANK                  Precinct 11                                            00 
00090010007000000000000000000000000000000000000000000000000000000000000000000000000000000000000000000          BALLOTS CAST - BLANK                                    BALLOTS CAST - BLANK                  Precinct 12                                            00 
00090010008000000000000000000000000000000000000000000000000000000000000000000000000000000000000000000          BALLOTS CAST - BLANK                                    BALLOTS CAST - BLANK                  Precinct 13                                            00 
00090010009000000000000000000000000000000000000000000000000000000000000000000000000000000000000000000          BALLOTS CAST - BLANK                                    BALLOTS CAST - BLANK                  Precinct 14                                            00 
00090010010000000000000000000000000000000000000000000000000000000000000000000000000000000000000000000          BALLOTS CAST - BLANK                                    BALLOTS CAST - BLANK                  Precinct 15                                            00 
00090010011000000000000000000000000000000000000000000000000000000000000000000000000000000000000000000          BALLOTS CAST - BLANK                                    BALLOTS CAST - BLANK                  Precinct 17                                            00 
00090010012000000000000000000000000000000000000000000000000000000000000000000000000000000000000000000          BALLOTS CAST - BLANK                                    BALLOTS CAST - BLANK                  Precinct 20                                            00 
00090010013000000000000000000000000000000000000000000000000000000000000000000000000000000000000000000          BALLOTS CAST - BLANK                                    BALLOTS CAST - BLANK                  Precinct 24                                            00 
00090010014000000000000000000000000000000000000000000000000000000000000000000000000000000000000000000          BALLOTS CAST - BLANK                                    BALLOTS CAST - BLANK                  Precinct 26                                            00 
00090010015000000000000000000000000000000000000000000000000000000000000000000000000000000000000000000          BALLOTS CAST - BLANK                                    BALLOTS CAST - BLANK                  Precinct 27                                            00 
00090010016000000000000000000000000000000000000000000000000000000000000000000000000000000000000000000          BALLOTS CAST - BLANK                                    BALLOTS CAST - BLANK                  Precinct 32                                            00 
00100010001000228000003000072000153000000000000000000000000000000000000000000000000000000000000000000REP       REP US Representative, District 13                      Ronny Jackson                         Precinct 1                                             01 
00100010002000093000001000003000089000000000000000000000000000000000000000000000000000000000000000000REP       REP US Representative, District 13                      Ronny Jackson                         Precinct 6                                             01 
00100010003000264000003000078000183000000000000000000000000000000000000000000000000000000000000000000REP       REP US Representative, District 13                      Ronny Jackson                         Precinct 8                                             01 
00100010004000122000006000038000078000000000000000000000000000000000000000000000000000000000000000000REP       REP US Representative, District 13                      Ronny Jackson                         Precinct 9                                             01 
00100010005000104000000000009000095000000000000000000000000000000000000000000000000000000000000000000REP       REP US Representative, District 13                      Ronny Jackson                         Precinct 10                                            01 
00100010006000303000003000035000265000000000000000000000000000000000000000000000000000000000000000000REP       REP US Representative, District 13                      Ronny Jackson                         Precinct 11                                            01 
00100010007000107000000000011000096000000000000000000000000000000000000000000000000000000000000000000REP       REP US Representative, District 13                      Ronny Jackson                         Precinct 12                                            01 
00100010008000059000000000002000057000000000000000000000000000000000000000000000000000000000000000000REP       REP US Representative, District 13                      Ronny Jackson                         Precinct 13                                            01 
00100010009000070000000000007000063000000000000000000000000000000000000000000000000000000000000000000REP       REP US Representative, District 13                      Ronny Jackson                         Precinct 14                                            01 
00100010010000093000002000034000057000000000000000000000000000000000000000000000000000000000000000000REP       REP US Representative, District 13                      Ronny Jackson                         Precinct 15                                            01 
00100010011000222000002000023000197000000000000000000000000000000000000000000000000000000000000000000REP       REP US Representative, District 13                      Ronny Jackson                         Precinct 17                                            01 
00100010012000142000001000018000123000000000000000000000000000000000000000000000000000000000000000000REP       REP US Representative, District 13                      Ronny Jackson                         Precinct 20                                            01 
00100010013000134000001000014000119000000000000000000000000000000000000000000000000000000000000000000REP       REP US Representative, District 13                      Ronny Jackson                         Precinct 24                                            01 
00100010014000067000000000011000056000000000000000000000000000000000000000000000000000000000000000000REP       REP US Representative, District 13                      Ronny Jackson                         Precinct 26                                            01 
00100010015000114000000000009000105000000000000000000000000000000000000000000000000000000000000000000REP       REP US Representative, District 13                      Ronny Jackson                         Precinct 27                                            01 
00100010016000062000000000000000062000000000000000000000000000000000000000000000000000000000000000000REP       REP US Representative, District 13                      Ronny Jackson                         Precinct 32                                            01 
00110010001000006000001000000000005000000000000000000000000000000000000000000000000000000000000000000REP       REP Governor                                            Don Huffines                          Precinct 1                                             01 
00110010002000010000000000000000010000000000000000000000000000000000000000000000000000000000000000000REP       REP Governor                                            Don Huffines                          Precinct 6                                             01 
00110010003000024000000000010000014000000000000000000000000000000000000000000000000000000000000000000REP       REP Governor                                            Don Huffines                          Precinct 8                                             01 
00110010004000010000001000004000005000000000000000000000000000000000000000000000000000000000000000000REP       REP Governor                                            Don Huffines                          Precinct 9                                             01 
00110010005000007000000000000000007000000000000000000000000000000000000000000000000000000000000000000REP       REP Governor                                            Don Huffines                          Precinct 10                                            01 
00110010006000028000000000003000025000000000000000000000000000000000000000000000000000000000000000000REP       REP Governor                                            Don Huffines                          Precinct 11                                            01 
00110010007000005000000000001000004000000000000000000000000000000000000000000000000000000000000000000REP       REP Governor                                            Don Huffines                          Precinct 12                                            01 
00110010008000011000000000000000011000000000000000000000000000000000000000000000000000000000000000000REP       REP Governor                                            Don Huffines                          Precinct 13                                            01 
00110010009000001000000000000000001000000000000000000000000000000000000000000000000000000000000000000REP       REP Governor                                            Don Huffines                          Precinct 14                                            01 
00110010010000005000000000003000002000000000000000000000000000000000000000000000000000000000000000000REP       REP Governor                                            Don Huffines                          Precinct 15                                            01 
00110010011000024000000000001000023000000000000000000000000000000000000000000000000000000000000000000REP       REP Governor                                            Don Huffines                          Precinct 17                                            01 
00110010012000008000000000000000008000000000000000000000000000000000000000000000000000000000000000000REP       REP Governor                                            Don Huffines                          Precinct 20                                            01 
00110010013000010000000000000000010000000000000000000000000000000000000000000000000000000000000000000REP       REP Governor                                            Don Huffines                          Precinct 24                                            01 
00110010014000010000000000001000009000000000000000000000000000000000000000000000000000000000000000000REP       REP Governor                                            Don Huffines                          Precinct 26                                            01 
00110010015000006000000000000000006000000000000000000000000000000000000000000000000000000000000000000REP       REP Governor                                            Don Huffines                          Precinct 27                                            01 
00110010016000002000000000000000002000000000000000000000000000000000000000000000000000000000000000000REP       REP Governor                                            Don Huffines                          Precinct 32                                            01 
00110020001000202000004000074000124000000000000000000000000000000000000000000000000000000000000000000REP       REP Governor                                            Greg Abbott                           Precinct 1                                             01 
00110020002000079000003000003000073000000000000000000000000000000000000000000000000000000000000000000REP       REP Governor                                            Greg Abbott                           Precinct 6                                             01 
00110020003000204000002000056000146000000000000000000000000000000000000000000000000000000000000000000REP       REP Governor                                            Greg Abbott                           Precinct 8                                             01 
00110020004000101000006000027000068000000000000000000000000000000000000000000000000000000000000000000REP       REP Governor                                            Greg Abbott                           Precinct 9                                             01 
00110020005000073000000000008000065000000000000000000000000000000000000000000000000000000000000000000REP       REP Governor                                            Greg Abbott                           Precinct 10                                            01 
00110020006000237000003000027000207000000000000000000000000000000000000000000000000000000000000000000REP       REP Governor                                            Greg Abbott                           Precinct 11                                            01 
00110020007000085000000000011000074000000000000000000000000000000000000000000000000000000000000000000REP       REP Governor                                            Greg Abbott                           Precinct 12                                            01 
00110020008000037000000000002000035000000000000000000000000000000000000000000000000000000000000000000REP       REP Governor                                            Greg Abbott                           Precinct 13                                            01 
00110020009000067000000000007000060000000000000000000000000000000000000000000000000000000000000000000REP       REP Governor                                            Greg Abbott                           Precinct 14                                            01 
00110020010000064000002000024000038000000000000000000000000000000000000000000000000000000000000000000REP       REP Governor                                            Greg Abbott                           Precinct 15                                            01 
00110020011000174000004000020000150000000000000000000000000000000000000000000000000000000000000000000REP       REP Governor                                            Greg Abbott                           Precinct 17                                            01 
00110020012000111000001000019000091000000000000000000000000000000000000000000000000000000000000000000REP       REP Governor                                            Greg Abbott                           Precinct 20                                            01 
00110020013000109000001000010000098000000000000000000000000000000000000000000000000000000000000000000REP       REP Governor                                            Greg Abbott                           Precinct 24                                            01 
00110020014000045000000000006000039000000000000000000000000000000000000000000000000000000000000000000REP       REP Governor                                            Greg Abbott                           Precinct 26                                            01 
00110020015000103000000000007000096000000000000000000000000000000000000000000000000000000000000000000REP       REP Governor                                            Greg Abbott                           Precinct 27                                            01 
00110020016000056000000000001000055000000000000000000000000000000000000000000000000000000000000000000REP       REP Governor                                            Greg Abbott                           Precinct 32                                            01 
00110030001000000000000000000000000000000000000000000000000000000000000000000000000000000000000000000REP       REP Governor                                            Paul Belew                            Precinct 1                                             01 
00110030002000002000000000000000002000000000000000000000000000000000000000000000000000000000000000000REP       REP Governor                                            Paul Belew                            Precinct 6                                             01 
00110030003000001000000000001000000000000000000000000000000000000000000000000000000000000000000000000REP       REP Governor                                            Paul Belew                            Precinct 8                                             01 
00110030004000000000000000000000000000000000000000000000000000000000000000000000000000000000000000000REP       REP Governor                                            Paul Belew                            Precinct 9                                             01 
00110030005000001000000000001000000000000000000000000000000000000000000000000000000000000000000000000REP       REP Governor                                            Paul Belew                            Precinct 10                                            01 
00110030006000002000000000000000002000000000000000000000000000000000000000000000000000000000000000000REP       REP Governor                                            Paul Belew                            Precinct 11                                            01 
00110030007000000000000000000000000000000000000000000000000000000000000000000000000000000000000000000REP       REP Governor                                            Paul Belew                            Precinct 12                                            01 
00110030008000000000000000000000000000000000000000000000000000000000000000000000000000000000000000000REP       REP Governor                                            Paul Belew                            Precinct 13                                            01 
00110030009000000000000000000000000000000000000000000000000000000000000000000000000000000000000000000REP       REP Governor                                            Paul Belew                            Precinct 14                                            01 
00110030010000002000000000000000002000000000000000000000000000000000000000000000000000000000000000000REP       REP Governor                                            Paul Belew                            Precinct 15                                            01 
00110030011000000000000000000000000000000000000000000000000000000000000000000000000000000000000000000REP       REP Governor                                            Paul Belew                            Precinct 17                                            01 
00110030012000000000000000000000000000000000000000000000000000000000000000000000000000000000000000000REP       REP Governor                                            Paul Belew                            Precinct 20                                            01 
00110030013000002000000000000000002000000000000000000000000000000000000000000000000000000000000000000REP       REP Governor                                            Paul Belew                            Precinct 24                                            01 
00110030014000000000000000000000000000000000000000000000000000000000000000000000000000000000000000000REP       REP Governor                                            Paul Belew                            Precinct 26                                            01 
00110030015000001000000000000000001000000000000000000000000000000000000000000000000000000000000000000REP       REP Governor                                            Paul Belew                            Precinct 27                                            01 
00110030016000000000000000000000000000000000000000000000000000000000000000000000000000000000000000000REP       REP Governor                                            Paul Belew                            Precinct 32                                            01 
00110040001000002000000000001000001000000000000000000000000000000000000000000000000000000000000000000REP       REP Governor                                            Kandy Kaye Horn                       Precinct 1                                             01 
00110040002000001000000000000000001000000000000000000000000000000000000000000000000000000000000000000REP       REP Governor                                            Kandy Kaye Horn                       Precinct 6                                             01 
00110040003000003000000000001000002000000000000000000000000000000000000000000000000000000000000000000REP       REP Governor                                            Kandy Kaye Horn                       Precinct 8                                             01 
00110040004000005000000000004000001000000000000000000000000000000000000000000000000000000000000000000REP       REP Governor                                            Kandy Kaye Horn                       Precinct 9                                             01 
00110040005000000000000000000000000000000000000000000000000000000000000000000000000000000000000000000REP       REP Governor                                            Kandy Kaye Horn                       Precinct 10                                            01 
00110040006000003000000000000000003000000000000000000000000000000000000000000000000000000000000000000REP       REP Governor                                            Kandy Kaye Horn                       Precinct 11                                            01 
00110040007000000000000000000000000000000000000000000000000000000000000000000000000000000000000000000REP       REP Governor                                            Kandy Kaye Horn                       Precinct 12                                            01 
00110040008000002000000000000000002000000000000000000000000000000000000000000000000000000000000000000REP       REP Governor                                            Kandy Kaye Horn                       Precinct 13                                            01 
00110040009000000000000000000000000000000000000000000000000000000000000000000000000000000000000000000REP       REP Governor                                            Kandy Kaye Horn                       Precinct 14                                            01 
00110040010000000000000000000000000000000000000000000000000000000000000000000000000000000000000000000REP       REP Governor                                            Kandy Kaye Horn                       Precinct 15                                            01 
00110040011000000000000000000000000000000000000000000000000000000000000000000000000000000000000000000REP       REP Governor                                            Kandy Kaye Horn                       Precinct 17                                            01 
00110040012000000000000000000000000000000000000000000000000000000000000000000000000000000000000000000REP       REP Governor                                            Kandy Kaye Horn                       Precinct 20                                            01 
00110040013000000000000000000000000000000000000000000000000000000000000000000000000000000000000000000REP       REP Governor                                            Kandy Kaye Horn                       Precinct 24                                            01 
00110040014000000000000000000000000000000000000000000000000000000000000000000000000000000000000000000REP       REP Governor                                            Kandy Kaye Horn                       Precinct 26                                            01 
00110040015000000000000000000000000000000000000000000000000000000000000000000000000000000000000000000REP       REP Governor                                            Kandy Kaye Horn                       Precinct 27                                            01 
00110040016000000000000000000000000000000000000000000000000000000000000000000000000000000000000000000REP       REP Governor                                            Kandy Kaye Horn                       Precinct 32                                            01 
00110050001000000000000000000000000000000000000000000000000000000000000000000000000000000000000000000REP       REP Governor                                            Danny Harrison                        Precinct 1                                             01 
00110050002000001000000000000000001000000000000000000000000000000000000000000000000000000000000000000REP       REP Governor                                            Danny Harrison                        Precinct 6                                             01 
00110050003000002000000000001000001000000000000000000000000000000000000000000000000000000000000000000REP       REP Governor                                            Danny Harrison                        Precinct 8                                             01 
00110050004000001000000000000000001000000000000000000000000000000000000000000000000000000000000000000REP       REP Governor                                            Danny Harrison                        Precinct 9                                             01 
00110050005000000000000000000000000000000000000000000000000000000000000000000000000000000000000000000REP       REP Governor                                            Danny Harrison                        Precinct 10                                            01 
00110050006000000000000000000000000000000000000000000000000000000000000000000000000000000000000000000REP       REP Governor                                            Danny Harrison                        Precinct 11                                            01 
00110050007000000000000000000000000000000000000000000000000000000000000000000000000000000000000000000REP       REP Governor                                            Danny Harrison                        Precinct 12                                            01 
00110050008000000000000000000000000000000000000000000000000000000000000000000000000000000000000000000REP       REP Governor                                            Danny Harrison                        Precinct 13                                            01 
00110050009000000000000000000000000000000000000000000000000000000000000000000000000000000000000000000REP       REP Governor                                            Danny Harrison                        Precinct 14                                            01 
00110050010000000000000000000000000000000000000000000000000000000000000000000000000000000000000000000REP       REP Governor                                            Danny Harrison                        Precinct 15                                            01 
00110050011000000000000000000000000000000000000000000000000000000000000000000000000000000000000000000REP       REP Governor                                            Danny Harrison                        Precinct 17                                            01 
00110050012000000000000000000000000000000000000000000000000000000000000000000000000000000000000000000REP       REP Governor                                            Danny Harrison                        Precinct 20                                            01 
00110050013000001000000000001000000000000000000000000000000000000000000000000000000000000000000000000REP       REP Governor                                            Danny Harrison                        Precinct 24                                            01 
00110050014000000000000000000000000000000000000000000000000000000000000000000000000000000000000000000REP       REP Governor                                            Danny Harrison                        Precinct 26                                            01 
00110050015000000000000000000000000000000000000000000000000000000000000000000000000000000000000000000REP       REP Governor                                            Danny Harrison                        Precinct 27                                            01 
00110050016000000000000000000000000000000000000000000000000000000000000000000000000000000000000000000REP       REP Governor                                            Danny Harrison                        Precinct 32                                            01 
00110060001000010000000000001000009000000000000000000000000000000000000000000000000000000000000000000REP       REP Governor                                            Chad Prather                          Precinct 1                                             01 
00110060002000003000000000000000003000000000000000000000000000000000000000000000000000000000000000000REP       REP Governor                                            Chad Prather                          Precinct 6                                             01 
00110060003000017000000000003000014000000000000000000000000000000000000000000000000000000000000000000REP       REP Governor                                            Chad Prather                          Precinct 8                                             01 
00110060004000008000000000002000006000000000000000000000000000000000000000000000000000000000000000000REP       REP Governor                                            Chad Prather                          Precinct 9                                             01 
00110060005000014000000000000000014000000000000000000000000000000000000000000000000000000000000000000REP       REP Governor                                            Chad Prather                          Precinct 10                                            01 
00110060006000034000000000002000032000000000000000000000000000000000000000000000000000000000000000000REP       REP Governor                                            Chad Prather                          Precinct 11                                            01 
00110060007000010000000000000000010000000000000000000000000000000000000000000000000000000000000000000REP       REP Governor                                            Chad Prather                          Precinct 12                                            01 
00110060008000004000000000000000004000000000000000000000000000000000000000000000000000000000000000000REP       REP Governor                                            Chad Prather                          Precinct 13                                            01 
00110060009000003000000000000000003000000000000000000000000000000000000000000000000000000000000000000REP       REP Governor                                            Chad Prather                          Precinct 14                                            01 
00110060010000007000000000001000006000000000000000000000000000000000000000000000000000000000000000000REP       REP Governor                                            Chad Prather                          Precinct 15                                            01 
00110060011000012000000000002000010000000000000000000000000000000000000000000000000000000000000000000REP       REP Governor                                            Chad Prather                          Precinct 17                                            01 
00110060012000019000000000001000018000000000000000000000000000000000000000000000000000000000000000000REP       REP Governor                                            Chad Prather                          Precinct 20                                            01 
00110060013000013000000000002000011000000000000000000000000000000000000000000000000000000000000000000REP       REP Governor                                            Chad Prather                          Precinct 24                                            01 
00110060014000005000000000000000005000000000000000000000000000000000000000000000000000000000000000000REP       REP Governor                                            Chad Prather                          Precinct 26                                            01 
00110060015000008000000000002000006000000000000000000000000000000000000000000000000000000000000000000REP       REP Governor                                            Chad Prather                          Precinct 27                                            01 
00110060016000006000000000000000006000000000000000000000000000000000000000000000000000000000000000000REP       REP Governor                                            Chad Prather                          Precinct 32                                            01 
00110070001000006000001000003000002000000000000000000000000000000000000000000000000000000000000000000REP       REP Governor                                            Rick Perry                            Precinct 1                                             01 
00110070002000004000000000000000004000000000000000000000000000000000000000000000000000000000000000000REP       REP Governor                                            Rick Perry                            Precinct 6                                             01 
00110070003000008000000000003000005000000000000000000000000000000000000000000000000000000000000000000REP       REP Governor                                            Rick Perry                            Precinct 8                                             01 
00110070004000004000000000000000004000000000000000000000000000000000000000000000000000000000000000000REP       REP Governor                                            Rick Perry                            Precinct 9                                             01 
00110070005000007000000000000000007000000000000000000000000000000000000000000000000000000000000000000REP       REP Governor                                            Rick Perry                            Precinct 10                                            01 
00110070006000005000000000001000004000000000000000000000000000000000000000000000000000000000000000000REP       REP Governor                                            Rick Perry                            Precinct 11                                            01 
00110070007000005000000000000000005000000000000000000000000000000000000000000000000000000000000000000REP       REP Governor                                            Rick Perry                            Precinct 12                                            01 
00110070008000000000000000000000000000000000000000000000000000000000000000000000000000000000000000000REP       REP Governor                                            Rick Perry                            Precinct 13                                            01 
00110070009000001000000000000000001000000000000000000000000000000000000000000000000000000000000000000REP       REP Governor                                            Rick Perry                            Precinct 14                                            01 
00110070010000002000000000001000001000000000000000000000000000000000000000000000000000000000000000000REP       REP Governor                                            Rick Perry                            Precinct 15                                            01 
00110070011000004000000000001000003000000000000000000000000000000000000000000000000000000000000000000REP       REP Governor                                            Rick Perry                            Precinct 17                                            01 
00110070012000004000000000000000004000000000000000000000000000000000000000000000000000000000000000000REP       REP Governor                                            Rick Perry                            Precinct 20                                            01 
00110070013000005000000000000000005000000000000000000000000000000000000000000000000000000000000000000REP       REP Governor                                            Rick Perry                            Precinct 24                                            01 
00110070014000001000000000000000001000000000000000000000000000000000000000000000000000000000000000000REP       REP Governor                                            Rick Perry                            Precinct 26                                            01 
00110070015000003000000000001000002000000000000000000000000000000000000000000000000000000000000000000REP       REP Governor                                            Rick Perry                            Precinct 27                                            01 
00110070016000005000001000000000004000000000000000000000000000000000000000000000000000000000000000000REP       REP Governor                                            Rick Perry                            Precinct 32                                            01 
00110080001000029000000000007000022000000000000000000000000000000000000000000000000000000000000000000REP       REP Governor                                            Allen B. West                         Precinct 1                                             01 
00110080002000004000000000000000004000000000000000000000000000000000000000000000000000000000000000000REP       REP Governor                                            Allen B. West                         Precinct 6                                             01 
00110080003000025000001000008000016000000000000000000000000000000000000000000000000000000000000000000REP       REP Governor                                            Allen B. West                         Precinct 8                                             01 
00110080004000011000000000008000003000000000000000000000000000000000000000000000000000000000000000000REP       REP Governor                                            Allen B. West                         Precinct 9                                             01 
00110080005000013000000000001000012000000000000000000000000000000000000000000000000000000000000000000REP       REP Governor                                            Allen B. West                         Precinct 10                                            01 
00110080006000020000000000003000017000000000000000000000000000000000000000000000000000000000000000000REP       REP Governor                                            Allen B. West                         Precinct 11                                            01 
00110080007000014000000000002000012000000000000000000000000000000000000000000000000000000000000000000REP       REP Governor                                            Allen B. West                         Precinct 12                                            01 
00110080008000009000000000000000009000000000000000000000000000000000000000000000000000000000000000000REP       REP Governor                                            Allen B. West                         Precinct 13                                            01 
00110080009000006000000000000000006000000000000000000000000000000000000000000000000000000000000000000REP       REP Governor                                            Allen B. West                         Precinct 14                                            01 
00110080010000017000000000007000010000000000000000000000000000000000000000000000000000000000000000000REP       REP Governor                                            Allen B. West                         Precinct 15                                            01 
00110080011000016000000000002000014000000000000000000000000000000000000000000000000000000000000000000REP       REP Governor                                            Allen B. West                         Precinct 17                                            01 
00110080012000008000000000001000007000000000000000000000000000000000000000000000000000000000000000000REP       REP Governor                                            Allen B. West                         Precinct 20                                            01 
00110080013000007000000000002000005000000000000000000000000000000000000000000000000000000000000000000REP       REP Governor                                            Allen B. West                         Precinct 24                                            01 
00110080014000011000000000005000006000000000000000000000000000000000000000000000000000000000000000000REP       REP Governor                                            Allen B. West                         Precinct 26                                            01 
00110080015000005000001000001000003000000000000000000000000000000000000000000000000000000000000000000REP       REP Governor                                            Allen B. West                         Precinct 27                                            01 
00110080016000002000000000000000002000000000000000000000000000000000000000000000000000000000000000000REP       REP Governor                                            Allen B. West                         Precinct 32                                            01 
00120010001000010000000000003000007000000000000000000000000000000000000000000000000000000000000000000REP       REP Lieutenant Governor                                 Todd M. Bullis                        Precinct 1                                             01 
00120010002000006000000000000000006000000000000000000000000000000000000000000000000000000000000000000REP       REP Lieutenant Governor                                 Todd M. Bullis                        Precinct 6                                             01 
00120010003000018000000000002000016000000000000000000000000000000000000000000000000000000000000000000REP       REP Lieutenant Governor                                 Todd M. Bullis                        Precinct 8                                             01 
00120010004000009000001000002000006000000000000000000000000000000000000000000000000000000000000000000REP       REP Lieutenant Governor                                 Todd M. Bullis                        Precinct 9                                             01 
00120010005000003000000000000000003000000000000000000000000000000000000000000000000000000000000000000REP       REP Lieutenant Governor                                 Todd M. Bullis                        Precinct 10                                            01 
00120010006000017000000000000000017000000000000000000000000000000000000000000000000000000000000000000REP       REP Lieutenant Governor                                 Todd M. Bullis                        Precinct 11                                            01 
00120010007000004000000000000000004000000000000000000000000000000000000000000000000000000000000000000REP       REP Lieutenant Governor                                 Todd M. Bullis                        Precinct 12                                            01 
00120010008000002000000000000000002000000000000000000000000000000000000000000000000000000000000000000REP       REP Lieutenant Governor                                 Todd M. Bullis                        Precinct 13                                            01 
00120010009000003000000000000000003000000000000000000000000000000000000000000000000000000000000000000REP       REP Lieutenant Governor                                 Todd M. Bullis                        Precinct 14                                            01 
00120010010000002000000000001000001000000000000000000000000000000000000000000000000000000000000000000REP       REP Lieutenant Governor                                 Todd M. Bullis                        Precinct 15                                            01 
00120010011000009000000000003000006000000000000000000000000000000000000000000000000000000000000000000REP       REP Lieutenant Governor                                 Todd M. Bullis                        Precinct 17                                            01 
00120010012000006000000000000000006000000000000000000000000000000000000000000000000000000000000000000REP       REP Lieutenant Governor                                 Todd M. Bullis                        Precinct 20                                            01 
00120010013000007000000000001000006000000000000000000000000000000000000000000000000000000000000000000REP       REP Lieutenant Governor                                 Todd M. Bullis                        Precinct 24                                            01 
00120010014000003000000000001000002000000000000000000000000000000000000000000000000000000000000000000REP       REP Lieutenant Governor                                 Todd M. Bullis                        Precinct 26                                            01 
00120010015000002000000000002000000000000000000000000000000000000000000000000000000000000000000000000REP       REP Lieutenant Governor                                 Todd M. Bullis                        Precinct 27                                            01 
00120010016000000000000000000000000000000000000000000000000000000000000000000000000000000000000000000REP       REP Lieutenant Governor                                 Todd M. Bullis                        Precinct 32                                            01 
00120020001000182000004000058000120000000000000000000000000000000000000000000000000000000000000000000REP       REP Lieutenant Governor                                 Dan Patrick                           Precinct 1                                             01 
00120020002000064000001000001000062000000000000000000000000000000000000000000000000000000000000000000REP       REP Lieutenant Governor                                 Dan Patrick                           Precinct 6                                             01 
00120020003000201000001000065000135000000000000000000000000000000000000000000000000000000000000000000REP       REP Lieutenant Governor                                 Dan Patrick                           Precinct 8                                             01 
00120020004000084000004000028000052000000000000000000000000000000000000000000000000000000000000000000REP       REP Lieutenant Governor                                 Dan Patrick                           Precinct 9                                             01 
00120020005000083000000000009000074000000000000000000000000000000000000000000000000000000000000000000REP       REP Lieutenant Governor                                 Dan Patrick                           Precinct 10                                            01 
00120020006000235000004000029000202000000000000000000000000000000000000000000000000000000000000000000REP       REP Lieutenant Governor                                 Dan Patrick                           Precinct 11                                            01 
00120020007000086000000000012000074000000000000000000000000000000000000000000000000000000000000000000REP       REP Lieutenant Governor                                 Dan Patrick                           Precinct 12                                            01 
00120020008000048000000000002000046000000000000000000000000000000000000000000000000000000000000000000REP       REP Lieutenant Governor                                 Dan Patrick                           Precinct 13                                            01 
00120020009000058000000000007000051000000000000000000000000000000000000000000000000000000000000000000REP       REP Lieutenant Governor                                 Dan Patrick                           Precinct 14                                            01 
00120020010000071000000000029000042000000000000000000000000000000000000000000000000000000000000000000REP       REP Lieutenant Governor                                 Dan Patrick                           Precinct 15                                            01 
00120020011000181000001000013000167000000000000000000000000000000000000000000000000000000000000000000REP       REP Lieutenant Governor                                 Dan Patrick                           Precinct 17                                            01 
00120020012000105000001000014000090000000000000000000000000000000000000000000000000000000000000000000REP       REP Lieutenant Governor                                 Dan Patrick                           Precinct 20                                            01 
00120020013000109000001000012000096000000000000000000000000000000000000000000000000000000000000000000REP       REP Lieutenant Governor                                 Dan Patrick                           Precinct 24                                            01 
00120020014000046000000000007000039000000000000000000000000000000000000000000000000000000000000000000REP       REP Lieutenant Governor                                 Dan Patrick                           Precinct 26                                            01 
00120020015000102000000000008000094000000000000000000000000000000000000000000000000000000000000000000REP       REP Lieutenant Governor                                 Dan Patrick                           Precinct 27                                            01 
00120020016000057000000000001000056000000000000000000000000000000000000000000000000000000000000000000REP       REP Lieutenant Governor                                 Dan Patrick                           Precinct 32                                            01 
00120030001000012000001000005000006000000000000000000000000000000000000000000000000000000000000000000REP       REP Lieutenant Governor                                 Zach Vance                            Precinct 1                                             01 
00120030002000003000000000000000003000000000000000000000000000000000000000000000000000000000000000000REP       REP Lieutenant Governor                                 Zach Vance                            Precinct 6                                             01 
00120030003000013000002000003000008000000000000000000000000000000000000000000000000000000000000000000REP       REP Lieutenant Governor                                 Zach Vance                            Precinct 8                                             01 
00120030004000006000000000001000005000000000000000000000000000000000000000000000000000000000000000000REP       REP Lieutenant Governor                                 Zach Vance                            Precinct 9                                             01 
00120030005000002000000000000000002000000000000000000000000000000000000000000000000000000000000000000REP       REP Lieutenant Governor                                 Zach Vance                            Precinct 10                                            01 
00120030006000011000000000000000011000000000000000000000000000000000000000000000000000000000000000000REP       REP Lieutenant Governor                                 Zach Vance                            Precinct 11                                            01 
00120030007000003000000000000000003000000000000000000000000000000000000000000000000000000000000000000REP       REP Lieutenant Governor                                 Zach Vance                            Precinct 12                                            01 
00120030008000002000000000000000002000000000000000000000000000000000000000000000000000000000000000000REP       REP Lieutenant Governor                                 Zach Vance                            Precinct 13                                            01 
00120030009000002000000000000000002000000000000000000000000000000000000000000000000000000000000000000REP       REP Lieutenant Governor                                 Zach Vance                            Precinct 14                                            01 
00120030010000008000002000001000005000000000000000000000000000000000000000000000000000000000000000000REP       REP Lieutenant Governor                                 Zach Vance                            Precinct 15                                            01 
00120030011000011000001000000000010000000000000000000000000000000000000000000000000000000000000000000REP       REP Lieutenant Governor                                 Zach Vance                            Precinct 17                                            01 
00120030012000009000000000003000006000000000000000000000000000000000000000000000000000000000000000000REP       REP Lieutenant Governor                                 Zach Vance                            Precinct 20                                            01 
00120030013000003000000000000000003000000000000000000000000000000000000000000000000000000000000000000REP       REP Lieutenant Governor                                 Zach Vance                            Precinct 24                                            01 
00120030014000005000000000001000004000000000000000000000000000000000000000000000000000000000000000000REP       REP Lieutenant Governor                                 Zach Vance                            Precinct 26                                            01 
00120030015000005000000000000000005000000000000000000000000000000000000000000000000000000000000000000REP       REP Lieutenant Governor                                 Zach Vance                            Precinct 27                                            01 
00120030016000002000000000000000002000000000000000000000000000000000000000000000000000000000000000000REP       REP Lieutenant Governor                                 Zach Vance                            Precinct 32                                            01 
00120040001000012000000000007000005000000000000000000000000000000000000000000000000000000000000000000REP       REP Lieutenant Governor                                 Daniel Miller                         Precinct 1                                             01 
00120040002000006000000000000000006000000000000000000000000000000000000000000000000000000000000000000REP       REP Lieutenant Governor                                 Daniel Miller                         Precinct 6                                             01 
00120040003000011000000000002000009000000000000000000000000000000000000000000000000000000000000000000REP       REP Lieutenant Governor                                 Daniel Miller                         Precinct 8                                             01 
00120040004000006000000000000000006000000000000000000000000000000000000000000000000000000000000000000REP       REP Lieutenant Governor                                 Daniel Miller                         Precinct 9                                             01 
00120040005000011000000000000000011000000000000000000000000000000000000000000000000000000000000000000REP       REP Lieutenant Governor                                 Daniel Miller                         Precinct 10                                            01 
00120040006000018000000000002000016000000000000000000000000000000000000000000000000000000000000000000REP       REP Lieutenant Governor                                 Daniel Miller                         Precinct 11                                            01 
00120040007000006000000000000000006000000000000000000000000000000000000000000000000000000000000000000REP       REP Lieutenant Governor                                 Daniel Miller                         Precinct 12                                            01 
00120040008000005000000000000000005000000000000000000000000000000000000000000000000000000000000000000REP       REP Lieutenant Governor                                 Daniel Miller                         Precinct 13                                            01 
00120040009000002000000000000000002000000000000000000000000000000000000000000000000000000000000000000REP       REP Lieutenant Governor                                 Daniel Miller                         Precinct 14                                            01 
00120040010000004000000000001000003000000000000000000000000000000000000000000000000000000000000000000REP       REP Lieutenant Governor                                 Daniel Miller                         Precinct 15                                            01 
00120040011000010000000000005000005000000000000000000000000000000000000000000000000000000000000000000REP       REP Lieutenant Governor                                 Daniel Miller                         Precinct 17                                            01 
00120040012000010000000000001000009000000000000000000000000000000000000000000000000000000000000000000REP       REP Lieutenant Governor                                 Daniel Miller                         Precinct 20                                            01 
00120040013000010000000000001000009000000000000000000000000000000000000000000000000000000000000000000REP       REP Lieutenant Governor                                 Daniel Miller                         Precinct 24                                            01 
00120040014000008000000000003000005000000000000000000000000000000000000000000000000000000000000000000REP       REP Lieutenant Governor                                 Daniel Miller                         Precinct 26                                            01 
00120040015000003000000000000000003000000000000000000000000000000000000000000000000000000000000000000REP       REP Lieutenant Governor                                 Daniel Miller                         Precinct 27                                            01 
00120040016000001000000000000000001000000000000000000000000000000000000000000000000000000000000000000REP       REP Lieutenant Governor                                 Daniel Miller                         Precinct 32                                            01 
00120050001000005000000000002000003000000000000000000000000000000000000000000000000000000000000000000REP       REP Lieutenant Governor                                 Trayce Bradford                       Precinct 1                                             01 
00120050002000005000000000000000005000000000000000000000000000000000000000000000000000000000000000000REP       REP Lieutenant Governor                                 Trayce Bradford                       Precinct 6                                             01 
00120050003000009000000000000000009000000000000000000000000000000000000000000000000000000000000000000REP       REP Lieutenant Governor                                 Trayce Bradford                       Precinct 8                                             01 
00120050004000008000000000004000004000000000000000000000000000000000000000000000000000000000000000000REP       REP Lieutenant Governor                                 Trayce Bradford                       Precinct 9                                             01 
00120050005000006000000000001000005000000000000000000000000000000000000000000000000000000000000000000REP       REP Lieutenant Governor                                 Trayce Bradford                       Precinct 10                                            01 
00120050006000010000000000003000007000000000000000000000000000000000000000000000000000000000000000000REP       REP Lieutenant Governor                                 Trayce Bradford                       Precinct 11                                            01 
00120050007000005000000000000000005000000000000000000000000000000000000000000000000000000000000000000REP       REP Lieutenant Governor                                 Trayce Bradford                       Precinct 12                                            01 
00120050008000002000000000000000002000000000000000000000000000000000000000000000000000000000000000000REP       REP Lieutenant Governor                                 Trayce Bradford                       Precinct 13                                            01 
00120050009000000000000000000000000000000000000000000000000000000000000000000000000000000000000000000REP       REP Lieutenant Governor                                 Trayce Bradford                       Precinct 14                                            01 
00120050010000000000000000000000000000000000000000000000000000000000000000000000000000000000000000000REP       REP Lieutenant Governor                                 Trayce Bradford                       Precinct 15                                            01 
00120050011000006000000000003000003000000000000000000000000000000000000000000000000000000000000000000REP       REP Lieutenant Governor                                 Trayce Bradford                       Precinct 17                                            01 
00120050012000005000000000001000004000000000000000000000000000000000000000000000000000000000000000000REP       REP Lieutenant Governor                                 Trayce Bradford                       Precinct 20                                            01 
00120050013000007000000000000000007000000000000000000000000000000000000000000000000000000000000000000REP       REP Lieutenant Governor                                 Trayce Bradford                       Precinct 24                                            01 
00120050014000002000000000000000002000000000000000000000000000000000000000000000000000000000000000000REP       REP Lieutenant Governor                                 Trayce Bradford                       Precinct 26                                            01 
00120050015000002000000000000000002000000000000000000000000000000000000000000000000000000000000000000REP       REP Lieutenant Governor                                 Trayce Bradford                       Precinct 27                                            01 
00120050016000002000000000000000002000000000000000000000000000000000000000000000000000000000000000000REP       REP Lieutenant Governor                                 Trayce Bradford                       Precinct 32                                            01 
00120060001000005000000000002000003000000000000000000000000000000000000000000000000000000000000000000REP       REP Lieutenant Governor                                 Aaron Sorrells                        Precinct 1                                             01 
00120060002000004000000000000000004000000000000000000000000000000000000000000000000000000000000000000REP       REP Lieutenant Governor                                 Aaron Sorrells                        Precinct 6                                             01 
00120060003000011000000000002000009000000000000000000000000000000000000000000000000000000000000000000REP       REP Lieutenant Governor                                 Aaron Sorrells                        Precinct 8                                             01 
00120060004000005000000000001000004000000000000000000000000000000000000000000000000000000000000000000REP       REP Lieutenant Governor                                 Aaron Sorrells                        Precinct 9                                             01 
00120060005000002000000000000000002000000000000000000000000000000000000000000000000000000000000000000REP       REP Lieutenant Governor                                 Aaron Sorrells                        Precinct 10                                            01 
00120060006000010000000000002000008000000000000000000000000000000000000000000000000000000000000000000REP       REP Lieutenant Governor                                 Aaron Sorrells                        Precinct 11                                            01 
00120060007000004000000000000000004000000000000000000000000000000000000000000000000000000000000000000REP       REP Lieutenant Governor                                 Aaron Sorrells                        Precinct 12                                            01 
00120060008000003000000000000000003000000000000000000000000000000000000000000000000000000000000000000REP       REP Lieutenant Governor                                 Aaron Sorrells                        Precinct 13                                            01 
00120060009000000000000000000000000000000000000000000000000000000000000000000000000000000000000000000REP       REP Lieutenant Governor                                 Aaron Sorrells                        Precinct 14                                            01 
