00010010001001535000000000000000000000000000000000000000000000000000000000000000000000000000000000000          REGISTERED VOTERS - TOTAL                               REGISTERED VOTERS - TOTAL             Precinct 1                                             00 
00010010002001141000000000000000000000000000000000000000000000000000000000000000000000000000000000000          REGISTERED VOTERS - TOTAL                               REGISTERED VOTERS - TOTAL             Precinct 2                                             00 
00010010003000416000000000000000000000000000000000000000000000000000000000000000000000000000000000000          REGISTERED VOTERS - TOTAL                               REGISTERED VOTERS - TOTAL             Precinct 2E                                            00 
00010010004001317000000000000000000000000000000000000000000000000000000000000000000000000000000000000          REGISTERED VOTERS - TOTAL                               REGISTERED VOTERS - TOTAL             Precinct 3                                             00 
00010010005001503000000000000000000000000000000000000000000000000000000000000000000000000000000000000          REGISTERED VOTERS - TOTAL                               REGISTERED VOTERS - TOTAL             Precinct 4                                             00 
00030010001000000000000000000000000000000000000000000000000000000000000000000000000000000000000000000DEM       REGISTERED VOTERS - Democratic Party                    REGISTERED VOTERS - Democratic Party  Precinct 1                                             00 
00030010002000000000000000000000000000000000000000000000000000000000000000000000000000000000000000000DEM       REGISTERED VOTERS - Democratic Party                    REGISTERED VOTERS - Democratic Party  Precinct 2                                             00 
00030010003000000000000000000000000000000000000000000000000000000000000000000000000000000000000000000DEM       REGISTERED VOTERS - Democratic Party                    REGISTERED VOTERS - Democratic Party  Precinct 2E                                            00 
00030010004000000000000000000000000000000000000000000000000000000000000000000000000000000000000000000DEM       REGISTERED VOTERS - Democratic Party                    REGISTERED VOTERS - Democratic Party  Precinct 3                                             00 
00030010005000000000000000000000000000000000000000000000000000000000000000000000000000000000000000000DEM       REGISTERED VOTERS - Democratic Party                    REGISTERED VOTERS - Democratic Party  Precinct 4                                             00 
00050010001000018000002000008000008000000000000000000000000000000000000000000000000000000000000000000DEM       BALLOTS CAST - Democratic Party                         BALLOTS CAST - Democratic Party       Precinct 1                                             00 
00050010002000008000000000004000004000000000000000000000000000000000000000000000000000000000000000000DEM       BALLOTS CAST - Democratic Party                         BALLOTS CAST - Democratic Party       Precinct 2                                             00 
00050010003000007000002000001000004000000000000000000000000000000000000000000000000000000000000000000DEM       BALLOTS CAST - Democratic Party                         BALLOTS CAST - Democratic Party       Precinct 2E                                            00 
00050010004000011000001000006000004000000000000000000000000000000000000000000000000000000000000000000DEM       BALLOTS CAST - Democratic Party                         BALLOTS CAST - Democratic Party       Precinct 3                                             00 
00050010005000022000002000011000009000000000000000000000000000000000000000000000000000000000000000000DEM       BALLOTS CAST - Democratic Party                         BALLOTS CAST - Democratic Party       Precinct 4                                             00 
00060010001000000000000000000000000000000000000000000000000000000000000000000000000000000000000000000          BALLOTS CAST - BLANK                                    BALLOTS CAST - BLANK                  Precinct 1                                             00 
00060010002000000000000000000000000000000000000000000000000000000000000000000000000000000000000000000          BALLOTS CAST - BLANK                                    BALLOTS CAST - BLANK                  Precinct 2                                             00 
00060010003000000000000000000000000000000000000000000000000000000000000000000000000000000000000000000          BALLOTS CAST - BLANK                                    BALLOTS CAST - BLANK                  Precinct 2E                                            00 
00060010004000000000000000000000000000000000000000000000000000000000000000000000000000000000000000000          BALLOTS CAST - BLANK                                    BALLOTS CAST - BLANK                  Precinct 3                                             00 
00060010005000000000000000000000000000000000000000000000000000000000000000000000000000000000000000000          BALLOTS CAST - BLANK                                    BALLOTS CAST - BLANK                  Precinct 4                                             00 
00070010001000001000000000001000000000000000000000000000000000000000000000000000000000000000000000000DEM       DEM Governor                                            Joy Diaz                              Precinct 1                                             01 
00070010002000000000000000000000000000000000000000000000000000000000000000000000000000000000000000000DEM       DEM Governor                                            Joy Diaz                              Precinct 2                                             01 
00070010003000000000000000000000000000000000000000000000000000000000000000000000000000000000000000000DEM       DEM Governor                                            Joy Diaz                              Precinct 2E                                            01 
00070010004000001000000000001000000000000000000000000000000000000000000000000000000000000000000000000DEM       DEM Governor                                            Joy Diaz                              Precinct 3                                             01 
00070010005000001000000000000000001000000000000000000000000000000000000000000000000000000000000000000DEM       DEM Governor                                            Joy Diaz                              Precinct 4                                             01 
00070020001000000000000000000000000000000000000000000000000000000000000000000000000000000000000000000DEM       DEM Governor                                            Michael Cooper                        Precinct 1                                             01 
00070020002000000000000000000000000000000000000000000000000000000000000000000000000000000000000000000DEM       DEM Governor                                            Michael Cooper                        Precinct 2                                             01 
00070020003000000000000000000000000000000000000000000000000000000000000000000000000000000000000000000DEM       DEM Governor                                            Michael Cooper                        Precinct 2E                                            01 
00070020004000000000000000000000000000000000000000000000000000000000000000000000000000000000000000000DEM       DEM Governor                                            Michael Cooper                        Precinct 3                                             01 
00070020005000001000000000000000001000000000000000000000000000000000000000000000000000000000000000000DEM       DEM Governor                                            Michael Cooper                        Precinct 4                                             01 
00070030001000001000000000001000000000000000000000000000000000000000000000000000000000000000000000000DEM       DEM Governor                                            Rich Wakeland                         Precinct 1                                             01 
00070030002000001000000000001000000000000000000000000000000000000000000000000000000000000000000000000DEM       DEM Governor                                            Rich Wakeland                         Precinct 2                                             01 
00070030003000000000000000000000000000000000000000000000000000000000000000000000000000000000000000000DEM       DEM Governor                                            Rich Wakeland                         Precinct 2E                                            01 
00070030004000000000000000000000000000000000000000000000000000000000000000000000000000000000000000000DEM       DEM Governor                                            Rich Wakeland                         Precinct 3                                             01 
00070030005000002000000000002000000000000000000000000000000000000000000000000000000000000000000000000DEM       DEM Governor                                            Rich Wakeland                         Precinct 4                                             01 
00070040001000016000002000006000008000000000000000000000000000000000000000000000000000000000000000000DEM       DEM Governor                                            Beto O'Rourke                         Precinct 1                                             01 
00070040002000007000000000003000004000000000000000000000000000000000000000000000000000000000000000000DEM       DEM Governor                                            Beto O'Rourke                         Precinct 2                                             01 
00070040003000007000002000001000004000000000000000000000000000000000000000000000000000000000000000000DEM       DEM Governor                                            Beto O'Rourke                         Precinct 2E                                            01 
00070040004000010000001000005000004000000000000000000000000000000000000000000000000000000000000000000DEM       DEM Governor                                            Beto O'Rourke                         Precinct 3                                             01 
00070040005000017000001000009000007000000000000000000000000000000000000000000000000000000000000000000DEM       DEM Governor                                            Beto O'Rourke                         Precinct 4                                             01 
00070050001000000000000000000000000000000000000000000000000000000000000000000000000000000000000000000DEM       DEM Governor                                            Inocencio (Inno) Barrientez           Precinct 1                                             01 
00070050002000000000000000000000000000000000000000000000000000000000000000000000000000000000000000000DEM       DEM Governor                                            Inocencio (Inno) Barrientez           Precinct 2                                             01 
00070050003000000000000000000000000000000000000000000000000000000000000000000000000000000000000000000DEM       DEM Governor                                            Inocencio (Inno) Barrientez           Precinct 2E                                            01 
00070050004000000000000000000000000000000000000000000000000000000000000000000000000000000000000000000DEM       DEM Governor                                            Inocencio (Inno) Barrientez           Precinct 3                                             01 
00070050005000000000000000000000000000000000000000000000000000000000000000000000000000000000000000000DEM       DEM Governor                                            Inocencio (Inno) Barrientez           Precinct 4                                             01 
00070060001000000000000000000000000000000000000000000000000000000000000000000000000000000000000000000          DEM Governor                                            OVER VOTES                            Precinct 1                                             01 
00070060002000000000000000000000000000000000000000000000000000000000000000000000000000000000000000000          DEM Governor                                            OVER VOTES                            Precinct 2                                             01 
00070060003000000000000000000000000000000000000000000000000000000000000000000000000000000000000000000          DEM Governor                                            OVER VOTES                            Precinct 2E                                            01 
00070060004000000000000000000000000000000000000000000000000000000000000000000000000000000000000000000          DEM Governor                                            OVER VOTES                            Precinct 3                                             01 
00070060005000000000000000000000000000000000000000000000000000000000000000000000000000000000000000000          DEM Governor                                            OVER VOTES                            Precinct 4                                             01 
00070070001000000000000000000000000000000000000000000000000000000000000000000000000000000000000000000          DEM Governor                                            UNDER VOTES                           Precinct 1                                             01 
00070070002000000000000000000000000000000000000000000000000000000000000000000000000000000000000000000          DEM Governor                                            UNDER VOTES                           Precinct 2                                             01 
00070070003000000000000000000000000000000000000000000000000000000000000000000000000000000000000000000          DEM Governor                                            UNDER VOTES                           Precinct 2E                                            01 
00070070004000000000000000000000000000000000000000000000000000000000000000000000000000000000000000000          DEM Governor                                            UNDER VOTES                           Precinct 3                                             01 
00070070005000001000001000000000000000000000000000000000000000000000000000000000000000000000000000000          DEM Governor                                            UNDER VOTES                           Precinct 4                                             01 
00080010001000005000000000003000002000000000000000000000000000000000000000000000000000000000000000000DEM       DEM Lieutenant Governor                                 Carla Brailey                         Precinct 1                                             01 
00080010002000004000000000004000000000000000000000000000000000000000000000000000000000000000000000000DEM       DEM Lieutenant Governor                                 Carla Brailey                         Precinct 2                                             01 
00080010003000001000000000000000001000000000000000000000000000000000000000000000000000000000000000000DEM       DEM Lieutenant Governor                                 Carla Brailey                         Precinct 2E                                            01 
00080010004000003000000000001000002000000000000000000000000000000000000000000000000000000000000000000DEM       DEM Lieutenant Governor                                 Carla Brailey                         Precinct 3                                             01 
00080010005000005000001000002000002000000000000000000000000000000000000000000000000000000000000000000DEM       DEM Lieutenant Governor                                 Carla Brailey                         Precinct 4                                             01 
00080020001000010000002000002000006000000000000000000000000000000000000000000000000000000000000000000DEM       DEM Lieutenant Governor                                 Mike Collier                          Precinct 1                                             01 
00080020002000001000000000000000001000000000000000000000000000000000000000000000000000000000000000000DEM       DEM Lieutenant Governor                                 Mike Collier                          Precinct 2                                             01 
00080020003000003000001000000000002000000000000000000000000000000000000000000000000000000000000000000DEM       DEM Lieutenant Governor                                 Mike Collier                          Precinct 2E                                            01 
00080020004000005000001000002000002000000000000000000000000000000000000000000000000000000000000000000DEM       DEM Lieutenant Governor                                 Mike Collier                          Precinct 3                                             01 
00080020005000007000001000003000003000000000000000000000000000000000000000000000000000000000000000000DEM       DEM Lieutenant Governor                                 Mike Collier                          Precinct 4                                             01 
00080030001000003000000000003000000000000000000000000000000000000000000000000000000000000000000000000DEM       DEM Lieutenant Governor                                 Michelle Beckley                      Precinct 1                                             01 
00080030002000002000000000000000002000000000000000000000000000000000000000000000000000000000000000000DEM       DEM Lieutenant Governor                                 Michelle Beckley                      Precinct 2                                             01 
00080030003000003000001000001000001000000000000000000000000000000000000000000000000000000000000000000DEM       DEM Lieutenant Governor                                 Michelle Beckley                      Precinct 2E                                            01 
00080030004000003000000000003000000000000000000000000000000000000000000000000000000000000000000000000DEM       DEM Lieutenant Governor                                 Michelle Beckley                      Precinct 3                                             01 
00080030005000008000000000005000003000000000000000000000000000000000000000000000000000000000000000000DEM       DEM Lieutenant Governor                                 Michelle Beckley                      Precinct 4                                             01 
00080040001000000000000000000000000000000000000000000000000000000000000000000000000000000000000000000          DEM Lieutenant Governor                                 OVER VOTES                            Precinct 1                                             01 
00080040002000000000000000000000000000000000000000000000000000000000000000000000000000000000000000000          DEM Lieutenant Governor                                 OVER VOTES                            Precinct 2                                             01 
00080040003000000000000000000000000000000000000000000000000000000000000000000000000000000000000000000          DEM Lieutenant Governor                                 OVER VOTES                            Precinct 2E                                            01 
00080040004000000000000000000000000000000000000000000000000000000000000000000000000000000000000000000          DEM Lieutenant Governor                                 OVER VOTES                            Precinct 3                                             01 
00080040005000000000000000000000000000000000000000000000000000000000000000000000000000000000000000000          DEM Lieutenant Governor                                 OVER VOTES                            Precinct 4                                             01 
00080050001000000000000000000000000000000000000000000000000000000000000000000000000000000000000000000          DEM Lieutenant Governor                                 UNDER VOTES                           Precinct 1                                             01 
00080050002000001000000000000000001000000000000000000000000000000000000000000000000000000000000000000          DEM Lieutenant Governor                                 UNDER VOTES                           Precinct 2                                             01 
00080050003000000000000000000000000000000000000000000000000000000000000000000000000000000000000000000          DEM Lieutenant Governor                                 UNDER VOTES                           Precinct 2E                                            01 
00080050004000000000000000000000000000000000000000000000000000000000000000000000000000000000000000000          DEM Lieutenant Governor                                 UNDER VOTES                           Precinct 3                                             01 
00080050005000002000000000001000001000000000000000000000000000000000000000000000000000000000000000000          DEM Lieutenant Governor                                 UNDER VOTES                           Precinct 4                                             01 
00090010001000004000000000002000002000000000000000000000000000000000000000000000000000000000000000000DEM       DEM Attorney General                                    Joe Jaworski                          Precinct 1                                             01 
00090010002000001000000000000000001000000000000000000000000000000000000000000000000000000000000000000DEM       DEM Attorney General                                    Joe Jaworski                          Precinct 2                                             01 
00090010003000002000001000000000001000000000000000000000000000000000000000000000000000000000000000000DEM       DEM Attorney General                                    Joe Jaworski                          Precinct 2E                                            01 
00090010004000002000001000001000000000000000000000000000000000000000000000000000000000000000000000000DEM       DEM Attorney General                                    Joe Jaworski                          Precinct 3                                             01 
00090010005000003000000000002000001000000000000000000000000000000000000000000000000000000000000000000DEM       DEM Attorney General                                    Joe Jaworski                          Precinct 4                                             01 
00090020001000002000000000002000000000000000000000000000000000000000000000000000000000000000000000000DEM       DEM Attorney General                                    Lee Merritt                           Precinct 1                                             01 
00090020002000002000000000002000000000000000000000000000000000000000000000000000000000000000000000000DEM       DEM Attorney General                                    Lee Merritt                           Precinct 2                                             01 
00090020003000002000000000000000002000000000000000000000000000000000000000000000000000000000000000000DEM       DEM Attorney General                                    Lee Merritt                           Precinct 2E                                            01 
00090020004000003000000000002000001000000000000000000000000000000000000000000000000000000000000000000DEM       DEM Attorney General                                    Lee Merritt                           Precinct 3                                             01 
00090020005000004000001000001000002000000000000000000000000000000000000000000000000000000000000000000DEM       DEM Attorney General                                    Lee Merritt                           Precinct 4                                             01 
00090030001000002000001000001000000000000000000000000000000000000000000000000000000000000000000000000DEM       DEM Attorney General                                    S. "TBONE" Raynor                     Precinct 1                                             01 
00090030002000000000000000000000000000000000000000000000000000000000000000000000000000000000000000000DEM       DEM Attorney General                                    S. "TBONE" Raynor                     Precinct 2                                             01 
00090030003000001000000000000000001000000000000000000000000000000000000000000000000000000000000000000DEM       DEM Attorney General                                    S. "TBONE" Raynor                     Precinct 2E                                            01 
00090030004000002000000000002000000000000000000000000000000000000000000000000000000000000000000000000DEM       DEM Attorney General                                    S. "TBONE" Raynor                     Precinct 3                                             01 
00090030005000000000000000000000000000000000000000000000000000000000000000000000000000000000000000000DEM       DEM Attorney General                                    S. "TBONE" Raynor                     Precinct 4                                             01 
00090040001000006000000000003000003000000000000000000000000000000000000000000000000000000000000000000DEM       DEM Attorney General                                    Rochelle Mercedes Garza               Precinct 1                                             01 
00090040002000002000000000000000002000000000000000000000000000000000000000000000000000000000000000000DEM       DEM Attorney General                                    Rochelle Mercedes Garza               Precinct 2                                             01 
00090040003000002000001000001000000000000000000000000000000000000000000000000000000000000000000000000DEM       DEM Attorney General                                    Rochelle Mercedes Garza               Precinct 2E                                            01 
00090040004000003000000000001000002000000000000000000000000000000000000000000000000000000000000000000DEM       DEM Attorney General                                    Rochelle Mercedes Garza               Precinct 3                                             01 
00090040005000008000000000004000004000000000000000000000000000000000000000000000000000000000000000000DEM       DEM Attorney General                                    Rochelle Mercedes Garza               Precinct 4                                             01 
00090050001000004000001000000000003000000000000000000000000000000000000000000000000000000000000000000DEM       DEM Attorney General                                    Mike Fields                           Precinct 1                                             01 
00090050002000002000000000002000000000000000000000000000000000000000000000000000000000000000000000000DEM       DEM Attorney General                                    Mike Fields                           Precinct 2                                             01 
00090050003000000000000000000000000000000000000000000000000000000000000000000000000000000000000000000DEM       DEM Attorney General                                    Mike Fields                           Precinct 2E                                            01 
00090050004000000000000000000000000000000000000000000000000000000000000000000000000000000000000000000DEM       DEM Attorney General                                    Mike Fields                           Precinct 3                                             01 
00090050005000005000001000003000001000000000000000000000000000000000000000000000000000000000000000000DEM       DEM Attorney General                                    Mike Fields                           Precinct 4                                             01 
00090060001000000000000000000000000000000000000000000000000000000000000000000000000000000000000000000          DEM Attorney General                                    OVER VOTES                            Precinct 1                                             01 
00090060002000000000000000000000000000000000000000000000000000000000000000000000000000000000000000000          DEM Attorney General                                    OVER VOTES                            Precinct 2                                             01 
00090060003000000000000000000000000000000000000000000000000000000000000000000000000000000000000000000          DEM Attorney General                                    OVER VOTES                            Precinct 2E                                            01 
00090060004000000000000000000000000000000000000000000000000000000000000000000000000000000000000000000          DEM Attorney General                                    OVER VOTES                            Precinct 3                                             01 
00090060005000000000000000000000000000000000000000000000000000000000000000000000000000000000000000000          DEM Attorney General                                    OVER VOTES                            Precinct 4                                             01 
00090070001000000000000000000000000000000000000000000000000000000000000000000000000000000000000000000          DEM Attorney General                                    UNDER VOTES                           Precinct 1                                             01 
00090070002000001000000000000000001000000000000000000000000000000000000000000000000000000000000000000          DEM Attorney General                                    UNDER VOTES                           Precinct 2                                             01 
00090070003000000000000000000000000000000000000000000000000000000000000000000000000000000000000000000          DEM Attorney General                                    UNDER VOTES                           Precinct 2E                                            01 
00090070004000001000000000000000001000000000000000000000000000000000000000000000000000000000000000000          DEM Attorney General                                    UNDER VOTES                           Precinct 3                                             01 
00090070005000002000000000001000001000000000000000000000000000000000000000000000000000000000000000000          DEM Attorney General                                    UNDER VOTES                           Precinct 4                                             01 
00100010001000011000002000006000003000000000000000000000000000000000000000000000000000000000000000000DEM       DEM Comptroller of Public Accounts                      Janet T. Dudding                      Precinct 1                                             01 
00100010002000004000000000002000002000000000000000000000000000000000000000000000000000000000000000000DEM       DEM Comptroller of Public Accounts                      Janet T. Dudding                      Precinct 2                                             01 
00100010003000005000002000001000002000000000000000000000000000000000000000000000000000000000000000000DEM       DEM Comptroller of Public Accounts                      Janet T. Dudding                      Precinct 2E                                            01 
00100010004000007000001000005000001000000000000000000000000000000000000000000000000000000000000000000DEM       DEM Comptroller of Public Accounts                      Janet T. Dudding                      Precinct 3                                             01 
00100010005000007000000000006000001000000000000000000000000000000000000000000000000000000000000000000DEM       DEM Comptroller of Public Accounts                      Janet T. Dudding                      Precinct 4                                             01 
00100020001000003000000000001000002000000000000000000000000000000000000000000000000000000000000000000DEM       DEM Comptroller of Public Accounts                      Tim Mahoney                           Precinct 1                                             01 
00100020002000001000000000001000000000000000000000000000000000000000000000000000000000000000000000000DEM       DEM Comptroller of Public Accounts                      Tim Mahoney                           Precinct 2                                             01 
00100020003000002000000000000000002000000000000000000000000000000000000000000000000000000000000000000DEM       DEM Comptroller of Public Accounts                      Tim Mahoney                           Precinct 2E                                            01 
00100020004000001000000000000000001000000000000000000000000000000000000000000000000000000000000000000DEM       DEM Comptroller of Public Accounts                      Tim Mahoney                           Precinct 3                                             01 
00100020005000010000002000002000006000000000000000000000000000000000000000000000000000000000000000000DEM       DEM Comptroller of Public Accounts                      Tim Mahoney                           Precinct 4                                             01 
00100030001000004000000000001000003000000000000000000000000000000000000000000000000000000000000000000DEM       DEM Comptroller of Public Accounts                      Angel Luis Vega                       Precinct 1                                             01 
00100030002000002000000000001000001000000000000000000000000000000000000000000000000000000000000000000DEM       DEM Comptroller of Public Accounts                      Angel Luis Vega                       Precinct 2                                             01 
00100030003000000000000000000000000000000000000000000000000000000000000000000000000000000000000000000DEM       DEM Comptroller of Public Accounts                      Angel Luis Vega                       Precinct 2E                                            01 
00100030004000003000000000001000002000000000000000000000000000000000000000000000000000000000000000000DEM       DEM Comptroller of Public Accounts                      Angel Luis Vega                       Precinct 3                                             01 
00100030005000005000000000003000002000000000000000000000000000000000000000000000000000000000000000000DEM       DEM Comptroller of Public Accounts                      Angel Luis Vega                       Precinct 4                                             01 
00100040001000000000000000000000000000000000000000000000000000000000000000000000000000000000000000000          DEM Comptroller of Public Accounts                      OVER VOTES                            Precinct 1                                             01 
00100040002000000000000000000000000000000000000000000000000000000000000000000000000000000000000000000          DEM Comptroller of Public Accounts                      OVER VOTES                            Precinct 2                                             01 
00100040003000000000000000000000000000000000000000000000000000000000000000000000000000000000000000000          DEM Comptroller of Public Accounts                      OVER VOTES                            Precinct 2E                                            01 
00100040004000000000000000000000000000000000000000000000000000000000000000000000000000000000000000000          DEM Comptroller of Public Accounts                      OVER VOTES                            Precinct 3                                             01 
00100040005000000000000000000000000000000000000000000000000000000000000000000000000000000000000000000          DEM Comptroller of Public Accounts                      OVER VOTES                            Precinct 4                                             01 
00100050001000000000000000000000000000000000000000000000000000000000000000000000000000000000000000000          DEM Comptroller of Public Accounts                      UNDER VOTES                           Precinct 1                                             01 
00100050002000001000000000000000001000000000000000000000000000000000000000000000000000000000000000000          DEM Comptroller of Public Accounts                      UNDER VOTES                           Precinct 2                                             01 
00100050003000000000000000000000000000000000000000000000000000000000000000000000000000000000000000000          DEM Comptroller of Public Accounts                      UNDER VOTES                           Precinct 2E                                            01 
00100050004000000000000000000000000000000000000000000000000000000000000000000000000000000000000000000          DEM Comptroller of Public Accounts                      UNDER VOTES                           Precinct 3                                             01 
00100050005000000000000000000000000000000000000000000000000000000000000000000000000000000000000000000          DEM Comptroller of Public Accounts                      UNDER VOTES                           Precinct 4                                             01 
00110010001000004000001000001000002000000000000000000000000000000000000000000000000000000000000000000DEM       DEM Comm General Land Office                            Sandragrace Martinez                  Precinct 1                                             01 
00110010002000003000000000001000002000000000000000000000000000000000000000000000000000000000000000000DEM       DEM Comm General Land Office                            Sandragrace Martinez                  Precinct 2                                             01 
00110010003000003000001000001000001000000000000000000000000000000000000000000000000000000000000000000DEM       DEM Comm General Land Office                            Sandragrace Martinez                  Precinct 2E                                            01 
00110010004000005000000000003000002000000000000000000000000000000000000000000000000000000000000000000DEM       DEM Comm General Land Office                            Sandragrace Martinez                  Precinct 3                                             01 
00110010005000004000000000002000002000000000000000000000000000000000000000000000000000000000000000000DEM       DEM Comm General Land Office                            Sandragrace Martinez                  Precinct 4                                             01 
00110020001000002000000000001000001000000000000000000000000000000000000000000000000000000000000000000DEM       DEM Comm General Land Office                            Jinny Suh                             Precinct 1                                             01 
00110020002000001000000000001000000000000000000000000000000000000000000000000000000000000000000000000DEM       DEM Comm General Land Office                            Jinny Suh                             Precinct 2                                             01 
00110020003000002000000000000000002000000000000000000000000000000000000000000000000000000000000000000DEM       DEM Comm General Land Office                            Jinny Suh                             Precinct 2E                                            01 
00110020004000001000000000000000001000000000000000000000000000000000000000000000000000000000000000000DEM       DEM Comm General Land Office                            Jinny Suh                             Precinct 3                                             01 
00110020005000004000000000002000002000000000000000000000000000000000000000000000000000000000000000000DEM       DEM Comm General Land Office                            Jinny Suh                             Precinct 4                                             01 
00110030001000005000000000002000003000000000000000000000000000000000000000000000000000000000000000000DEM       DEM Comm General Land Office                            Michael Lange                         Precinct 1                                             01 
00110030002000000000000000000000000000000000000000000000000000000000000000000000000000000000000000000DEM       DEM Comm General Land Office                            Michael Lange                         Precinct 2                                             01 
00110030003000001000001000000000000000000000000000000000000000000000000000000000000000000000000000000DEM       DEM Comm General Land Office                            Michael Lange                         Precinct 2E                                            01 
00110030004000002000001000001000000000000000000000000000000000000000000000000000000000000000000000000DEM       DEM Comm General Land Office                            Michael Lange                         Precinct 3                                             01 
00110030005000004000000000001000003000000000000000000000000000000000000000000000000000000000000000000DEM       DEM Comm General Land Office                            Michael Lange                         Precinct 4                                             01 
00110040001000007000001000004000002000000000000000000000000000000000000000000000000000000000000000000DEM       DEM Comm General Land Office                            Jay Kleberg                           Precinct 1                                             01 
00110040002000003000000000002000001000000000000000000000000000000000000000000000000000000000000000000DEM       DEM Comm General Land Office                            Jay Kleberg                           Precinct 2                                             01 
00110040003000001000000000000000001000000000000000000000000000000000000000000000000000000000000000000DEM       DEM Comm General Land Office                            Jay Kleberg                           Precinct 2E                                            01 
00110040004000003000000000002000001000000000000000000000000000000000000000000000000000000000000000000DEM       DEM Comm General Land Office                            Jay Kleberg                           Precinct 3                                             01 
00110040005000008000001000005000002000000000000000000000000000000000000000000000000000000000000000000DEM       DEM Comm General Land Office                            Jay Kleberg                           Precinct 4                                             01 
00110050001000000000000000000000000000000000000000000000000000000000000000000000000000000000000000000          DEM Comm General Land Office                            OVER VOTES                            Precinct 1                                             01 
00110050002000000000000000000000000000000000000000000000000000000000000000000000000000000000000000000          DEM Comm General Land Office                            OVER VOTES                            Precinct 2                                             01 
00110050003000000000000000000000000000000000000000000000000000000000000000000000000000000000000000000          DEM Comm General Land Office                            OVER VOTES                            Precinct 2E                                            01 
00110050004000000000000000000000000000000000000000000000000000000000000000000000000000000000000000000          DEM Comm General Land Office                            OVER VOTES                            Precinct 3                                             01 
00110050005000000000000000000000000000000000000000000000000000000000000000000000000000000000000000000          DEM Comm General Land Office                            OVER VOTES                            Precinct 4                                             01 
00110060001000000000000000000000000000000000000000000000000000000000000000000000000000000000000000000          DEM Comm General Land Office                            UNDER VOTES                           Precinct 1                                             01 
00110060002000001000000000000000001000000000000000000000000000000000000000000000000000000000000000000          DEM Comm General Land Office                            UNDER VOTES                           Precinct 2                                             01 
00110060003000000000000000000000000000000000000000000000000000000000000000000000000000000000000000000          DEM Comm General Land Office                            UNDER VOTES                           Precinct 2E                                            01 
00110060004000000000000000000000000000000000000000000000000000000000000000000000000000000000000000000          DEM Comm General Land Office                            UNDER VOTES                           Precinct 3                                             01 
00110060005000002000001000001000000000000000000000000000000000000000000000000000000000000000000000000          DEM Comm General Land Office                            UNDER VOTES                           Precinct 4                                             01 
00120010001000006000001000003000002000000000000000000000000000000000000000000000000000000000000000000DEM       DEM Commissioner of Agriculture                         Ed Ireson                             Precinct 1                                             01 
00120010002000001000000000001000000000000000000000000000000000000000000000000000000000000000000000000DEM       DEM Commissioner of Agriculture                         Ed Ireson                             Precinct 2                                             01 
00120010003000002000000000000000002000000000000000000000000000000000000000000000000000000000000000000DEM       DEM Commissioner of Agriculture                         Ed Ireson                             Precinct 2E                                            01 
00120010004000000000000000000000000000000000000000000000000000000000000000000000000000000000000000000DEM       DEM Commissioner of Agriculture                         Ed Ireson                             Precinct 3                                             01 
00120010005000005000000000003000002000000000000000000000000000000000000000000000000000000000000000000DEM       DEM Commissioner of Agriculture                         Ed Ireson                             Precinct 4                                             01 
00120020001000012000001000005000006000000000000000000000000000000000000000000000000000000000000000000DEM       DEM Commissioner of Agriculture                         Susan Hays                            Precinct 1                                             01 
00120020002000006000000000003000003000000000000000000000000000000000000000000000000000000000000000000DEM       DEM Commissioner of Agriculture                         Susan Hays                            Precinct 2                                             01 
00120020003000005000002000001000002000000000000000000000000000000000000000000000000000000000000000000DEM       DEM Commissioner of Agriculture                         Susan Hays                            Precinct 2E                                            01 
00120020004000011000001000006000004000000000000000000000000000000000000000000000000000000000000000000DEM       DEM Commissioner of Agriculture                         Susan Hays                            Precinct 3                                             01 
00120020005000015000001000007000007000000000000000000000000000000000000000000000000000000000000000000DEM       DEM Commissioner of Agriculture                         Susan Hays                            Precinct 4                                             01 
00120030001000000000000000000000000000000000000000000000000000000000000000000000000000000000000000000          DEM Commissioner of Agriculture                         OVER VOTES                            Precinct 1                                             01 
00120030002000000000000000000000000000000000000000000000000000000000000000000000000000000000000000000          DEM Commissioner of Agriculture                         OVER VOTES                            Precinct 2                                             01 
00120030003000000000000000000000000000000000000000000000000000000000000000000000000000000000000000000          DEM Commissioner of Agriculture                         OVER VOTES                            Precinct 2E                                            01 
00120030004000000000000000000000000000000000000000000000000000000000000000000000000000000000000000000          DEM Commissioner of Agriculture                         OVER VOTES                            Precinct 3                                             01 
00120030005000000000000000000000000000000000000000000000000000000000000000000000000000000000000000000          DEM Commissioner of Agriculture                         OVER VOTES                            Precinct 4                                             01 
00120040001000000000000000000000000000000000000000000000000000000000000000000000000000000000000000000          DEM Commissioner of Agriculture                         UNDER VOTES                           Precinct 1                                             01 
00120040002000001000000000000000001000000000000000000000000000000000000000000000000000000000000000000          DEM Commissioner of Agriculture                         UNDER VOTES                           Precinct 2                                             01 
00120040003000000000000000000000000000000000000000000000000000000000000000000000000000000000000000000          DEM Commissioner of Agriculture                         UNDER VOTES                           Precinct 2E                                            01 
00120040004000000000000000000000000000000000000000000000000000000000000000000000000000000000000000000          DEM Commissioner of Agriculture                         UNDER VOTES                           Precinct 3                                             01 
00120040005000002000001000001000000000000000000000000000000000000000000000000000000000000000000000000          DEM Commissioner of Agriculture                         UNDER VOTES                           Precinct 4                                             01 
00130010001000018000002000008000008000000000000000000000000000000000000000000000000000000000000000000DEM       DEM Railroad Commissioner                               Luke Warford                          Precinct 1                                             01 
00130010002000007000000000004000003000000000000000000000000000000000000000000000000000000000000000000DEM       DEM Railroad Commissioner                               Luke Warford                          Precinct 2                                             01 
00130010003000006000002000001000003000000000000000000000000000000000000000000000000000000000000000000DEM       DEM Railroad Commissioner                               Luke Warford                          Precinct 2E                                            01 
00130010004000010000001000005000004000000000000000000000000000000000000000000000000000000000000000000DEM       DEM Railroad Commissioner                               Luke Warford                          Precinct 3                                             01 
00130010005000019000002000010000007000000000000000000000000000000000000000000000000000000000000000000DEM       DEM Railroad Commissioner                               Luke Warford                          Precinct 4                                             01 
00130020001000000000000000000000000000000000000000000000000000000000000000000000000000000000000000000          DEM Railroad Commissioner                               OVER VOTES                            Precinct 1                                             01 
00130020002000000000000000000000000000000000000000000000000000000000000000000000000000000000000000000          DEM Railroad Commissioner                               OVER VOTES                            Precinct 2                                             01 
00130020003000000000000000000000000000000000000000000000000000000000000000000000000000000000000000000          DEM Railroad Commissioner                               OVER VOTES                            Precinct 2E                                            01 
00130020004000000000000000000000000000000000000000000000000000000000000000000000000000000000000000000          DEM Railroad Commissioner                               OVER VOTES                            Precinct 3                                             01 
00130020005000000000000000000000000000000000000000000000000000000000000000000000000000000000000000000          DEM Railroad Commissioner                               OVER VOTES                            Precinct 4                                             01 
00130030001000000000000000000000000000000000000000000000000000000000000000000000000000000000000000000          DEM Railroad Commissioner                               UNDER VOTES                           Precinct 1                                             01 
00130030002000001000000000000000001000000000000000000000000000000000000000000000000000000000000000000          DEM Railroad Commissioner                               UNDER VOTES                           Precinct 2                                             01 
00130030003000001000000000000000001000000000000000000000000000000000000000000000000000000000000000000          DEM Railroad Commissioner                               UNDER VOTES                           Precinct 2E                                            01 
00130030004000001000000000001000000000000000000000000000000000000000000000000000000000000000000000000          DEM Railroad Commissioner                               UNDER VOTES                           Precinct 3                                             01 
00130030005000003000000000001000002000000000000000000000000000000000000000000000000000000000000000000          DEM Railroad Commissioner                               UNDER VOTES                           Precinct 4                                             01 
00140010001000018000002000008000008000000000000000000000000000000000000000000000000000000000000000000DEM       DEM Justice, Supreme Court, Pl 3                        Erin A Nowell                         Precinct 1                                             01 
00140010002000007000000000004000003000000000000000000000000000000000000000000000000000000000000000000DEM       DEM Justice, Supreme Court, Pl 3                        Erin A Nowell                         Precinct 2                                             01 
00140010003000006000002000001000003000000000000000000000000000000000000000000000000000000000000000000DEM       DEM Justice, Supreme Court, Pl 3                        Erin A Nowell                         Precinct 2E                                            01 
00140010004000009000001000005000003000000000000000000000000000000000000000000000000000000000000000000DEM       DEM Justice, Supreme Court, Pl 3                        Erin A Nowell                         Precinct 3                                             01 
00140010005000018000002000010000006000000000000000000000000000000000000000000000000000000000000000000DEM       DEM Justice, Supreme Court, Pl 3                        Erin A Nowell                         Precinct 4                                             01 
00140020001000000000000000000000000000000000000000000000000000000000000000000000000000000000000000000          DEM Justice, Supreme Court, Pl 3                        OVER VOTES                            Precinct 1                                             01 
00140020002000000000000000000000000000000000000000000000000000000000000000000000000000000000000000000          DEM Justice, Supreme Court, Pl 3                        OVER VOTES                            Precinct 2                                             01 
00140020003000000000000000000000000000000000000000000000000000000000000000000000000000000000000000000          DEM Justice, Supreme Court, Pl 3                        OVER VOTES                            Precinct 2E                                            01 
00140020004000000000000000000000000000000000000000000000000000000000000000000000000000000000000000000          DEM Justice, Supreme Court, Pl 3                        OVER VOTES                            Precinct 3                                             01 
00140020005000000000000000000000000000000000000000000000000000000000000000000000000000000000000000000          DEM Justice, Supreme Court, Pl 3                        OVER VOTES                            Precinct 4                                             01 
00140030001000000000000000000000000000000000000000000000000000000000000000000000000000000000000000000          DEM Justice, Supreme Court, Pl 3                        UNDER VOTES                           Precinct 1                                             01 
00140030002000001000000000000000001000000000000000000000000000000000000000000000000000000000000000000          DEM Justice, Supreme Court, Pl 3                        UNDER VOTES                           Precinct 2                                             01 
00140030003000001000000000000000001000000000000000000000000000000000000000000000000000000000000000000          DEM Justice, Supreme Court, Pl 3                        UNDER VOTES                           Precinct 2E                                            01 
00140030004000002000000000001000001000000000000000000000000000000000000000000000000000000000000000000          DEM Justice, Supreme Court, Pl 3                        UNDER VOTES                           Precinct 3                                             01 
00140030005000004000000000001000003000000000000000000000000000000000000000000000000000000000000000000          DEM Justice, Supreme Court, Pl 3                        UNDER VOTES                           Precinct 4                                             01 
00150010001000017000002000008000007000000000000000000000000000000000000000000000000000000000000000000DEM       DEM Justice, Supreme Court, Pl 5                        Amanda Reichek                        Precinct 1                                             01 
00150010002000007000000000004000003000000000000000000000000000000000000000000000000000000000000000000DEM       DEM Justice, Supreme Court, Pl 5                        Amanda Reichek                        Precinct 2                                             01 
00150010003000006000002000001000003000000000000000000000000000000000000000000000000000000000000000000DEM       DEM Justice, Supreme Court, Pl 5                        Amanda Reichek                        Precinct 2E                                            01 
00150010004000009000001000004000004000000000000000000000000000000000000000000000000000000000000000000DEM       DEM Justice, Supreme Court, Pl 5                        Amanda Reichek                        Precinct 3                                             01 
00150010005000020000002000010000008000000000000000000000000000000000000000000000000000000000000000000DEM       DEM Justice, Supreme Court, Pl 5                        Amanda Reichek                        Precinct 4                                             01 
00150020001000000000000000000000000000000000000000000000000000000000000000000000000000000000000000000          DEM Justice, Supreme Court, Pl 5                        OVER VOTES                            Precinct 1                                             01 
00150020002000000000000000000000000000000000000000000000000000000000000000000000000000000000000000000          DEM Justice, Supreme Court, Pl 5                        OVER VOTES                            Precinct 2                                             01 
00150020003000000000000000000000000000000000000000000000000000000000000000000000000000000000000000000          DEM Justice, Supreme Court, Pl 5                        OVER VOTES                            Precinct 2E                                            01 
00150020004000000000000000000000000000000000000000000000000000000000000000000000000000000000000000000          DEM Justice, Supreme Court, Pl 5                        OVER VOTES                            Precinct 3                                             01 
00150020005000000000000000000000000000000000000000000000000000000000000000000000000000000000000000000          DEM Justice, Supreme Court, Pl 5                        OVER VOTES                            Precinct 4                                             01 
00150030001000001000000000000000001000000000000000000000000000000000000000000000000000000000000000000          DEM Justice, Supreme Court, Pl 5                        UNDER VOTES                           Precinct 1                                             01 
00150030002000001000000000000000001000000000000000000000000000000000000000000000000000000000000000000          DEM Justice, Supreme Court, Pl 5                        UNDER VOTES                           Precinct 2                                             01 
00150030003000001000000000000000001000000000000000000000000000000000000000000000000000000000000000000          DEM Justice, Supreme Court, Pl 5                        UNDER VOTES                           Precinct 2E                                            01 
00150030004000002000000000002000000000000000000000000000000000000000000000000000000000000000000000000          DEM Justice, Supreme Court, Pl 5                        UNDER VOTES                           Precinct 3                                             01 
00150030005000002000000000001000001000000000000000000000000000000000000000000000000000000000000000000          DEM Justice, Supreme Court, Pl 5                        UNDER VOTES                           Precinct 4                                             01 
00160010001000018000002000008000008000000000000000000000000000000000000000000000000000000000000000000DEM       DEM Justice, Supreme Court, Pl 9                        Julia Maldonado                       Precinct 1                                             01 
00160010002000007000000000004000003000000000000000000000000000000000000000000000000000000000000000000DEM       DEM Justice, Supreme Court, Pl 9                        Julia Maldonado                       Precinct 2                                             01 
00160010003000006000002000001000003000000000000000000000000000000000000000000000000000000000000000000DEM       DEM Justice, Supreme Court, Pl 9                        Julia Maldonado                       Precinct 2E                                            01 
00160010004000010000001000005000004000000000000000000000000000000000000000000000000000000000000000000DEM       DEM Justice, Supreme Court, Pl 9                        Julia Maldonado                       Precinct 3                                             01 
00160010005000018000002000010000006000000000000000000000000000000000000000000000000000000000000000000DEM       DEM Justice, Supreme Court, Pl 9                        Julia Maldonado                       Precinct 4                                             01 
00160020001000000000000000000000000000000000000000000000000000000000000000000000000000000000000000000          DEM Justice, Supreme Court, Pl 9                        OVER VOTES                            Precinct 1                                             01 
00160020002000000000000000000000000000000000000000000000000000000000000000000000000000000000000000000          DEM Justice, Supreme Court, Pl 9                        OVER VOTES                            Precinct 2                                             01 
00160020003000000000000000000000000000000000000000000000000000000000000000000000000000000000000000000          DEM Justice, Supreme Court, Pl 9                        OVER VOTES                            Precinct 2E                                            01 
00160020004000000000000000000000000000000000000000000000000000000000000000000000000000000000000000000          DEM Justice, Supreme Court, Pl 9                        OVER VOTES                            Precinct 3                                             01 
00160020005000000000000000000000000000000000000000000000000000000000000000000000000000000000000000000          DEM Justice, Supreme Court, Pl 9                        OVER VOTES                            Precinct 4                                             01 
00160030001000000000000000000000000000000000000000000000000000000000000000000000000000000000000000000          DEM Justice, Supreme Court, Pl 9                        UNDER VOTES                           Precinct 1                                             01 
00160030002000001000000000000000001000000000000000000000000000000000000000000000000000000000000000000          DEM Justice, Supreme Court, Pl 9                        UNDER VOTES                           Precinct 2                                             01 
00160030003000001000000000000000001000000000000000000000000000000000000000000000000000000000000000000          DEM Justice, Supreme Court, Pl 9                        UNDER VOTES                           Precinct 2E                                            01 
00160030004000001000000000001000000000000000000000000000000000000000000000000000000000000000000000000          DEM Justice, Supreme Court, Pl 9                        UNDER VOTES                           Precinct 3                                             01 
00160030005000004000000000001000003000000000000000000000000000000000000000000000000000000000000000000          DEM Justice, Supreme Court, Pl 9                        UNDER VOTES                           Precinct 4                                             01 
00170010001000018000002000008000008000000000000000000000000000000000000000000000000000000000000000000DEM       DEM Judge, Ct of Crim App, Pl 5                         Dana Huffman                          Precinct 1                                             01 
00170010002000007000000000004000003000000000000000000000000000000000000000000000000000000000000000000DEM       DEM Judge, Ct of Crim App, Pl 5                         Dana Huffman                          Precinct 2                                             01 
00170010003000006000002000001000003000000000000000000000000000000000000000000000000000000000000000000DEM       DEM Judge, Ct of Crim App, Pl 5                         Dana Huffman                          Precinct 2E                                            01 
00170010004000010000001000005000004000000000000000000000000000000000000000000000000000000000000000000DEM       DEM Judge, Ct of Crim App, Pl 5                         Dana Huffman                          Precinct 3                                             01 
00170010005000019000002000010000007000000000000000000000000000000000000000000000000000000000000000000DEM       DEM Judge, Ct of Crim App, Pl 5                         Dana Huffman                          Precinct 4                                             01 
00170020001000000000000000000000000000000000000000000000000000000000000000000000000000000000000000000          DEM Judge, Ct of Crim App, Pl 5                         OVER VOTES                            Precinct 1                                             01 
00170020002000000000000000000000000000000000000000000000000000000000000000000000000000000000000000000          DEM Judge, Ct of Crim App, Pl 5                         OVER VOTES                            Precinct 2                                             01 
00170020003000000000000000000000000000000000000000000000000000000000000000000000000000000000000000000          DEM Judge, Ct of Crim App, Pl 5                         OVER VOTES                            Precinct 2E                                            01 
00170020004000000000000000000000000000000000000000000000000000000000000000000000000000000000000000000          DEM Judge, Ct of Crim App, Pl 5                         OVER VOTES                            Precinct 3                                             01 
00170020005000000000000000000000000000000000000000000000000000000000000000000000000000000000000000000          DEM Judge, Ct of Crim App, Pl 5                         OVER VOTES                            Precinct 4                                             01 
00170030001000000000000000000000000000000000000000000000000000000000000000000000000000000000000000000          DEM Judge, Ct of Crim App, Pl 5                         UNDER VOTES                           Precinct 1                                             01 
00170030002000001000000000000000001000000000000000000000000000000000000000000000000000000000000000000          DEM Judge, Ct of Crim App, Pl 5                         UNDER VOTES                           Precinct 2                                             01 
00170030003000001000000000000000001000000000000000000000000000000000000000000000000000000000000000000          DEM Judge, Ct of Crim App, Pl 5                         UNDER VOTES                           Precinct 2E                                            01 
00170030004000001000000000001000000000000000000000000000000000000000000000000000000000000000000000000          DEM Judge, Ct of Crim App, Pl 5                         UNDER VOTES                           Precinct 3                                             01 
00170030005000003000000000001000002000000000000000000000000000000000000000000000000000000000000000000          DEM Judge, Ct of Crim App, Pl 5                         UNDER VOTES                           Precinct 4                                             01 
00180010001000017000002000008000007000000000000000000000000000000000000000000000000000000000000000000DEM       DEM Judge, Ct of Crim App, Pl 6                         Robert Johnson                        Precinct 1                                             01 
00180010002000007000000000004000003000000000000000000000000000000000000000000000000000000000000000000DEM       DEM Judge, Ct of Crim App, Pl 6                         Robert Johnson                        Precinct 2                                             01 
00180010003000006000002000001000003000000000000000000000000000000000000000000000000000000000000000000DEM       DEM Judge, Ct of Crim App, Pl 6                         Robert Johnson                        Precinct 2E                                            01 
00180010004000009000001000004000004000000000000000000000000000000000000000000000000000000000000000000DEM       DEM Judge, Ct of Crim App, Pl 6                         Robert Johnson                        Precinct 3                                             01 
00180010005000017000002000010000005000000000000000000000000000000000000000000000000000000000000000000DEM       DEM Judge, Ct of Crim App, Pl 6                         Robert Johnson                        Precinct 4                                             01 
00180020001000000000000000000000000000000000000000000000000000000000000000000000000000000000000000000          DEM Judge, Ct of Crim App, Pl 6                         OVER VOTES                            Precinct 1                                             01 
00180020002000000000000000000000000000000000000000000000000000000000000000000000000000000000000000000          DEM Judge, Ct of Crim App, Pl 6                         OVER VOTES                            Precinct 2                                             01 
00180020003000000000000000000000000000000000000000000000000000000000000000000000000000000000000000000          DEM Judge, Ct of Crim App, Pl 6                         OVER VOTES                            Precinct 2E                                            01 
00180020004000000000000000000000000000000000000000000000000000000000000000000000000000000000000000000          DEM Judge, Ct of Crim App, Pl 6                         OVER VOTES                            Precinct 3                                             01 
00180020005000000000000000000000000000000000000000000000000000000000000000000000000000000000000000000          DEM Judge, Ct of Crim App, Pl 6                         OVER VOTES                            Precinct 4                                             01 
00180030001000001000000000000000001000000000000000000000000000000000000000000000000000000000000000000          DEM Judge, Ct of Crim App, Pl 6                         UNDER VOTES                           Precinct 1                                             01 
00180030002000001000000000000000001000000000000000000000000000000000000000000000000000000000000000000          DEM Judge, Ct of Crim App, Pl 6                         UNDER VOTES                           Precinct 2                                             01 
00180030003000001000000000000000001000000000000000000000000000000000000000000000000000000000000000000          DEM Judge, Ct of Crim App, Pl 6                         UNDER VOTES                           Precinct 2E                                            01 
00180030004000002000000000002000000000000000000000000000000000000000000000000000000000000000000000000          DEM Judge, Ct of Crim App, Pl 6                         UNDER VOTES                           Precinct 3                                             01 
00180030005000005000000000001000004000000000000000000000000000000000000000000000000000000000000000000          DEM Judge, Ct of Crim App, Pl 6                         UNDER VOTES                           Precinct 4                                             01 
