00010010001001535000000000000000000000000000000000000000000000000000000000000000000000000000000000000          REGISTERED VOTERS - TOTAL                               REGISTERED VOTERS - TOTAL             Precinct 1                                             00 
00010010002001141000000000000000000000000000000000000000000000000000000000000000000000000000000000000          REGISTERED VOTERS - TOTAL                               REGISTERED VOTERS - TOTAL             Precinct 2                                             00 
00010010003000416000000000000000000000000000000000000000000000000000000000000000000000000000000000000          REGISTERED VOTERS - TOTAL                               REGISTERED VOTERS - TOTAL             Precinct 2E                                            00 
00010010004001317000000000000000000000000000000000000000000000000000000000000000000000000000000000000          REGISTERED VOTERS - TOTAL                               REGISTERED VOTERS - TOTAL             Precinct 3                                             00 
00010010005001503000000000000000000000000000000000000000000000000000000000000000000000000000000000000          REGISTERED VOTERS - TOTAL                               REGISTERED VOTERS - TOTAL             Precinct 4                                             00 
00020010001000000000000000000000000000000000000000000000000000000000000000000000000000000000000000000REP       REGISTERED VOTERS - Republican Party                    REGISTERED VOTERS - Republican Party  Precinct 1                                             00 
00020010002000000000000000000000000000000000000000000000000000000000000000000000000000000000000000000REP       REGISTERED VOTERS - Republican Party                    REGISTERED VOTERS - Republican Party  Precinct 2                                             00 
00020010003000000000000000000000000000000000000000000000000000000000000000000000000000000000000000000REP       REGISTERED VOTERS - Republican Party                    REGISTERED VOTERS - Republican Party  Precinct 2E                                            00 
00020010004000000000000000000000000000000000000000000000000000000000000000000000000000000000000000000REP       REGISTERED VOTERS - Republican Party                    REGISTERED VOTERS - Republican Party  Precinct 3                                             00 
00020010005000000000000000000000000000000000000000000000000000000000000000000000000000000000000000000REP       REGISTERED VOTERS - Republican Party                    REGISTERED VOTERS - Republican Party  Precinct 4                                             00 
00050010001000370000010000176000184000000000000000000000000000000000000000000000000000000000000000000          BALLOTS CAST - TOTAL                                    BALLOTS CAST - TOTAL                  Precinct 1                                             00 
00050010002000238000005000099000134000000000000000000000000000000000000000000000000000000000000000000          BALLOTS CAST - TOTAL                                    BALLOTS CAST - TOTAL                  Precinct 2                                             00 
00050010003000108000008000042000058000000000000000000000000000000000000000000000000000000000000000000          BALLOTS CAST - TOTAL                                    BALLOTS CAST - TOTAL                  Precinct 2E                                            00 
00050010004000274000007000133000134000000000000000000000000000000000000000000000000000000000000000000          BALLOTS CAST - TOTAL                                    BALLOTS CAST - TOTAL                  Precinct 3                                             00 
00050010005000431000013000253000165000000000000000000000000000000000000000000000000000000000000000000          BALLOTS CAST - TOTAL                                    BALLOTS CAST - TOTAL                  Precinct 4                                             00 
00060010001000352000008000168000176000000000000000000000000000000000000000000000000000000000000000000REP       BALLOTS CAST - Republican Party                         BALLOTS CAST - Republican Party       Precinct 1                                             00 
00060010002000230000005000095000130000000000000000000000000000000000000000000000000000000000000000000REP       BALLOTS CAST - Republican Party                         BALLOTS CAST - Republican Party       Precinct 2                                             00 
00060010003000101000006000041000054000000000000000000000000000000000000000000000000000000000000000000REP       BALLOTS CAST - Republican Party                         BALLOTS CAST - Republican Party       Precinct 2E                                            00 
00060010004000263000006000127000130000000000000000000000000000000000000000000000000000000000000000000REP       BALLOTS CAST - Republican Party                         BALLOTS CAST - Republican Party       Precinct 3                                             00 
00060010005000409000011000242000156000000000000000000000000000000000000000000000000000000000000000000REP       BALLOTS CAST - Republican Party                         BALLOTS CAST - Republican Party       Precinct 4                                             00 
00070010001000000000000000000000000000000000000000000000000000000000000000000000000000000000000000000          BALLOTS CAST - BLANK                                    BALLOTS CAST - BLANK                  Precinct 1                                             00 
00070010002000000000000000000000000000000000000000000000000000000000000000000000000000000000000000000          BALLOTS CAST - BLANK                                    BALLOTS CAST - BLANK                  Precinct 2                                             00 
00070010003000000000000000000000000000000000000000000000000000000000000000000000000000000000000000000          BALLOTS CAST - BLANK                                    BALLOTS CAST - BLANK                  Precinct 2E                                            00 
00070010004000000000000000000000000000000000000000000000000000000000000000000000000000000000000000000          BALLOTS CAST - BLANK                                    BALLOTS CAST - BLANK                  Precinct 3                                             00 
00070010005000000000000000000000000000000000000000000000000000000000000000000000000000000000000000000          BALLOTS CAST - BLANK                                    BALLOTS CAST - BLANK                  Precinct 4                                             00 
00080010001000319000004000154000161000000000000000000000000000000000000000000000000000000000000000000REP       REP US Representative, District 11                      August Pfluger                        Precinct 1                                             01 
00080010002000209000004000087000118000000000000000000000000000000000000000000000000000000000000000000REP       REP US Representative, District 11                      August Pfluger                        Precinct 2                                             01 
00080010003000099000006000039000054000000000000000000000000000000000000000000000000000000000000000000REP       REP US Representative, District 11                      August Pfluger                        Precinct 2E                                            01 
00080010004000239000005000119000115000000000000000000000000000000000000000000000000000000000000000000REP       REP US Representative, District 11                      August Pfluger                        Precinct 3                                             01 
00080010005000371000009000219000143000000000000000000000000000000000000000000000000000000000000000000REP       REP US Representative, District 11                      August Pfluger                        Precinct 4                                             01 
00080020001000000000000000000000000000000000000000000000000000000000000000000000000000000000000000000          REP US Representative, District 11                      OVER VOTES                            Precinct 1                                             01 
00080020002000000000000000000000000000000000000000000000000000000000000000000000000000000000000000000          REP US Representative, District 11                      OVER VOTES                            Precinct 2                                             01 
00080020003000000000000000000000000000000000000000000000000000000000000000000000000000000000000000000          REP US Representative, District 11                      OVER VOTES                            Precinct 2E                                            01 
00080020004000000000000000000000000000000000000000000000000000000000000000000000000000000000000000000          REP US Representative, District 11                      OVER VOTES                            Precinct 3                                             01 
00080020005000000000000000000000000000000000000000000000000000000000000000000000000000000000000000000          REP US Representative, District 11                      OVER VOTES                            Precinct 4                                             01 
00080030001000033000004000014000015000000000000000000000000000000000000000000000000000000000000000000          REP US Representative, District 11                      UNDER VOTES                           Precinct 1                                             01 
00080030002000021000001000008000012000000000000000000000000000000000000000000000000000000000000000000          REP US Representative, District 11                      UNDER VOTES                           Precinct 2                                             01 
00080030003000002000000000002000000000000000000000000000000000000000000000000000000000000000000000000          REP US Representative, District 11                      UNDER VOTES                           Precinct 2E                                            01 
00080030004000024000001000008000015000000000000000000000000000000000000000000000000000000000000000000          REP US Representative, District 11                      UNDER VOTES                           Precinct 3                                             01 
00080030005000038000002000023000013000000000000000000000000000000000000000000000000000000000000000000          REP US Representative, District 11                      UNDER VOTES                           Precinct 4                                             01 
00090010001000041000000000019000022000000000000000000000000000000000000000000000000000000000000000000REP       REP Governor                                            Allen B. West                         Precinct 1                                             01 
00090010002000027000000000013000014000000000000000000000000000000000000000000000000000000000000000000REP       REP Governor                                            Allen B. West                         Precinct 2                                             01 
00090010003000011000000000003000008000000000000000000000000000000000000000000000000000000000000000000REP       REP Governor                                            Allen B. West                         Precinct 2E                                            01 
00090010004000026000001000010000015000000000000000000000000000000000000000000000000000000000000000000REP       REP Governor                                            Allen B. West                         Precinct 3                                             01 
00090010005000045000000000029000016000000000000000000000000000000000000000000000000000000000000000000REP       REP Governor                                            Allen B. West                         Precinct 4                                             01 
00090020001000002000000000001000001000000000000000000000000000000000000000000000000000000000000000000REP       REP Governor                                            Danny Harrison                        Precinct 1                                             01 
00090020002000001000000000000000001000000000000000000000000000000000000000000000000000000000000000000REP       REP Governor                                            Danny Harrison                        Precinct 2                                             01 
00090020003000000000000000000000000000000000000000000000000000000000000000000000000000000000000000000REP       REP Governor                                            Danny Harrison                        Precinct 2E                                            01 
00090020004000001000000000001000000000000000000000000000000000000000000000000000000000000000000000000REP       REP Governor                                            Danny Harrison                        Precinct 3                                             01 
00090020005000000000000000000000000000000000000000000000000000000000000000000000000000000000000000000REP       REP Governor                                            Danny Harrison                        Precinct 4                                             01 
00090030001000000000000000000000000000000000000000000000000000000000000000000000000000000000000000000REP       REP Governor                                            Paul Belew                            Precinct 1                                             01 
00090030002000000000000000000000000000000000000000000000000000000000000000000000000000000000000000000REP       REP Governor                                            Paul Belew                            Precinct 2                                             01 
00090030003000001000000000000000001000000000000000000000000000000000000000000000000000000000000000000REP       REP Governor                                            Paul Belew                            Precinct 2E                                            01 
00090030004000000000000000000000000000000000000000000000000000000000000000000000000000000000000000000REP       REP Governor                                            Paul Belew                            Precinct 3                                             01 
00090030005000000000000000000000000000000000000000000000000000000000000000000000000000000000000000000REP       REP Governor                                            Paul Belew                            Precinct 4                                             01 
00090040001000023000002000012000009000000000000000000000000000000000000000000000000000000000000000000REP       REP Governor                                            Don Huffines                          Precinct 1                                             01 
00090040002000018000000000003000015000000000000000000000000000000000000000000000000000000000000000000REP       REP Governor                                            Don Huffines                          Precinct 2                                             01 
00090040003000005000000000002000003000000000000000000000000000000000000000000000000000000000000000000REP       REP Governor                                            Don Huffines                          Precinct 2E                                            01 
00090040004000012000000000006000006000000000000000000000000000000000000000000000000000000000000000000REP       REP Governor                                            Don Huffines                          Precinct 3                                             01 
00090040005000033000000000014000019000000000000000000000000000000000000000000000000000000000000000000REP       REP Governor                                            Don Huffines                          Precinct 4                                             01 
00090050001000026000000000006000020000000000000000000000000000000000000000000000000000000000000000000REP       REP Governor                                            Chad Prather                          Precinct 1                                             01 
00090050002000011000000000005000006000000000000000000000000000000000000000000000000000000000000000000REP       REP Governor                                            Chad Prather                          Precinct 2                                             01 
00090050003000005000000000002000003000000000000000000000000000000000000000000000000000000000000000000REP       REP Governor                                            Chad Prather                          Precinct 2E                                            01 
00090050004000010000000000003000007000000000000000000000000000000000000000000000000000000000000000000REP       REP Governor                                            Chad Prather                          Precinct 3                                             01 
00090050005000010000000000003000007000000000000000000000000000000000000000000000000000000000000000000REP       REP Governor                                            Chad Prather                          Precinct 4                                             01 
00090060001000244000006000124000114000000000000000000000000000000000000000000000000000000000000000000REP       REP Governor                                            Greg Abbott                           Precinct 1                                             01 
00090060002000156000005000068000083000000000000000000000000000000000000000000000000000000000000000000REP       REP Governor                                            Greg Abbott                           Precinct 2                                             01 
00090060003000072000005000032000035000000000000000000000000000000000000000000000000000000000000000000REP       REP Governor                                            Greg Abbott                           Precinct 2E                                            01 
00090060004000196000004000098000094000000000000000000000000000000000000000000000000000000000000000000REP       REP Governor                                            Greg Abbott                           Precinct 3                                             01 
00090060005000305000011000183000111000000000000000000000000000000000000000000000000000000000000000000REP       REP Governor                                            Greg Abbott                           Precinct 4                                             01 
00090070001000002000000000001000001000000000000000000000000000000000000000000000000000000000000000000REP       REP Governor                                            Kandy Kaye Horn                       Precinct 1                                             01 
00090070002000002000000000000000002000000000000000000000000000000000000000000000000000000000000000000REP       REP Governor                                            Kandy Kaye Horn                       Precinct 2                                             01 
00090070003000000000000000000000000000000000000000000000000000000000000000000000000000000000000000000REP       REP Governor                                            Kandy Kaye Horn                       Precinct 2E                                            01 
00090070004000003000000000002000001000000000000000000000000000000000000000000000000000000000000000000REP       REP Governor                                            Kandy Kaye Horn                       Precinct 3                                             01 
00090070005000002000000000001000001000000000000000000000000000000000000000000000000000000000000000000REP       REP Governor                                            Kandy Kaye Horn                       Precinct 4                                             01 
00090080001000014000000000005000009000000000000000000000000000000000000000000000000000000000000000000REP       REP Governor                                            Rick Perry                            Precinct 1                                             01 
00090080002000015000000000006000009000000000000000000000000000000000000000000000000000000000000000000REP       REP Governor                                            Rick Perry                            Precinct 2                                             01 
00090080003000007000001000002000004000000000000000000000000000000000000000000000000000000000000000000REP       REP Governor                                            Rick Perry                            Precinct 2E                                            01 
00090080004000011000000000007000004000000000000000000000000000000000000000000000000000000000000000000REP       REP Governor                                            Rick Perry                            Precinct 3                                             01 
00090080005000012000000000010000002000000000000000000000000000000000000000000000000000000000000000000REP       REP Governor                                            Rick Perry                            Precinct 4                                             01 
00090090001000000000000000000000000000000000000000000000000000000000000000000000000000000000000000000          REP Governor                                            OVER VOTES                            Precinct 1                                             01 
00090090002000000000000000000000000000000000000000000000000000000000000000000000000000000000000000000          REP Governor                                            OVER VOTES                            Precinct 2                                             01 
00090090003000000000000000000000000000000000000000000000000000000000000000000000000000000000000000000          REP Governor                                            OVER VOTES                            Precinct 2E                                            01 
00090090004000000000000000000000000000000000000000000000000000000000000000000000000000000000000000000          REP Governor                                            OVER VOTES                            Precinct 3                                             01 
00090090005000000000000000000000000000000000000000000000000000000000000000000000000000000000000000000          REP Governor                                            OVER VOTES                            Precinct 4                                             01 
00090100001000000000000000000000000000000000000000000000000000000000000000000000000000000000000000000          REP Governor                                            UNDER VOTES                           Precinct 1                                             01 
00090100002000000000000000000000000000000000000000000000000000000000000000000000000000000000000000000          REP Governor                                            UNDER VOTES                           Precinct 2                                             01 
00090100003000000000000000000000000000000000000000000000000000000000000000000000000000000000000000000          REP Governor                                            UNDER VOTES                           Precinct 2E                                            01 
00090100004000004000001000000000003000000000000000000000000000000000000000000000000000000000000000000          REP Governor                                            UNDER VOTES                           Precinct 3                                             01 
00090100005000002000000000002000000000000000000000000000000000000000000000000000000000000000000000000          REP Governor                                            UNDER VOTES                           Precinct 4                                             01 
00100010001000291000006000142000143000000000000000000000000000000000000000000000000000000000000000000REP       REP Lieutenant Governor                                 Dan Patrick                           Precinct 1                                             01 
00100010002000180000005000073000102000000000000000000000000000000000000000000000000000000000000000000REP       REP Lieutenant Governor                                 Dan Patrick                           Precinct 2                                             01 
00100010003000074000005000031000038000000000000000000000000000000000000000000000000000000000000000000REP       REP Lieutenant Governor                                 Dan Patrick                           Precinct 2E                                            01 
00100010004000215000005000107000103000000000000000000000000000000000000000000000000000000000000000000REP       REP Lieutenant Governor                                 Dan Patrick                           Precinct 3                                             01 
00100010005000330000009000206000115000000000000000000000000000000000000000000000000000000000000000000REP       REP Lieutenant Governor                                 Dan Patrick                           Precinct 4                                             01 
00100020001000009000002000003000004000000000000000000000000000000000000000000000000000000000000000000REP       REP Lieutenant Governor                                 Trayce Bradford                       Precinct 1                                             01 
00100020002000010000000000005000005000000000000000000000000000000000000000000000000000000000000000000REP       REP Lieutenant Governor                                 Trayce Bradford                       Precinct 2                                             01 
00100020003000006000000000002000004000000000000000000000000000000000000000000000000000000000000000000REP       REP Lieutenant Governor                                 Trayce Bradford                       Precinct 2E                                            01 
00100020004000012000000000006000006000000000000000000000000000000000000000000000000000000000000000000REP       REP Lieutenant Governor                                 Trayce Bradford                       Precinct 3                                             01 
00100020005000018000000000011000007000000000000000000000000000000000000000000000000000000000000000000REP       REP Lieutenant Governor                                 Trayce Bradford                       Precinct 4                                             01 
00100030001000007000000000001000006000000000000000000000000000000000000000000000000000000000000000000REP       REP Lieutenant Governor                                 Zach Vance                            Precinct 1                                             01 
00100030002000007000000000003000004000000000000000000000000000000000000000000000000000000000000000000REP       REP Lieutenant Governor                                 Zach Vance                            Precinct 2                                             01 
00100030003000003000000000001000002000000000000000000000000000000000000000000000000000000000000000000REP       REP Lieutenant Governor                                 Zach Vance                            Precinct 2E                                            01 
00100030004000006000000000000000006000000000000000000000000000000000000000000000000000000000000000000REP       REP Lieutenant Governor                                 Zach Vance                            Precinct 3                                             01 
00100030005000011000000000005000006000000000000000000000000000000000000000000000000000000000000000000REP       REP Lieutenant Governor                                 Zach Vance                            Precinct 4                                             01 
00100040001000004000000000001000003000000000000000000000000000000000000000000000000000000000000000000REP       REP Lieutenant Governor                                 Todd M. Bullis                        Precinct 1                                             01 
00100040002000005000000000003000002000000000000000000000000000000000000000000000000000000000000000000REP       REP Lieutenant Governor                                 Todd M. Bullis                        Precinct 2                                             01 
00100040003000002000000000001000001000000000000000000000000000000000000000000000000000000000000000000REP       REP Lieutenant Governor                                 Todd M. Bullis                        Precinct 2E                                            01 
00100040004000003000000000001000002000000000000000000000000000000000000000000000000000000000000000000REP       REP Lieutenant Governor                                 Todd M. Bullis                        Precinct 3                                             01 
00100040005000004000000000001000003000000000000000000000000000000000000000000000000000000000000000000REP       REP Lieutenant Governor                                 Todd M. Bullis                        Precinct 4                                             01 
00100050001000014000000000006000008000000000000000000000000000000000000000000000000000000000000000000REP       REP Lieutenant Governor                                 Aaron Sorrells                        Precinct 1                                             01 
00100050002000005000000000001000004000000000000000000000000000000000000000000000000000000000000000000REP       REP Lieutenant Governor                                 Aaron Sorrells                        Precinct 2                                             01 
00100050003000002000000000001000001000000000000000000000000000000000000000000000000000000000000000000REP       REP Lieutenant Governor                                 Aaron Sorrells                        Precinct 2E                                            01 
00100050004000005000000000004000001000000000000000000000000000000000000000000000000000000000000000000REP       REP Lieutenant Governor                                 Aaron Sorrells                        Precinct 3                                             01 
00100050005000008000000000000000008000000000000000000000000000000000000000000000000000000000000000000REP       REP Lieutenant Governor                                 Aaron Sorrells                        Precinct 4                                             01 
00100060001000013000000000007000006000000000000000000000000000000000000000000000000000000000000000000REP       REP Lieutenant Governor                                 Daniel Miller                         Precinct 1                                             01 
00100060002000012000000000006000006000000000000000000000000000000000000000000000000000000000000000000REP       REP Lieutenant Governor                                 Daniel Miller                         Precinct 2                                             01 
00100060003000007000001000002000004000000000000000000000000000000000000000000000000000000000000000000REP       REP Lieutenant Governor                                 Daniel Miller                         Precinct 2E                                            01 
00100060004000010000000000005000005000000000000000000000000000000000000000000000000000000000000000000REP       REP Lieutenant Governor                                 Daniel Miller                         Precinct 3                                             01 
00100060005000025000002000013000010000000000000000000000000000000000000000000000000000000000000000000REP       REP Lieutenant Governor                                 Daniel Miller                         Precinct 4                                             01 
00100070001000000000000000000000000000000000000000000000000000000000000000000000000000000000000000000          REP Lieutenant Governor                                 OVER VOTES                            Precinct 1                                             01 
00100070002000000000000000000000000000000000000000000000000000000000000000000000000000000000000000000          REP Lieutenant Governor                                 OVER VOTES                            Precinct 2                                             01 
00100070003000000000000000000000000000000000000000000000000000000000000000000000000000000000000000000          REP Lieutenant Governor                                 OVER VOTES                            Precinct 2E                                            01 
00100070004000000000000000000000000000000000000000000000000000000000000000000000000000000000000000000          REP Lieutenant Governor                                 OVER VOTES                            Precinct 3                                             01 
00100070005000000000000000000000000000000000000000000000000000000000000000000000000000000000000000000          REP Lieutenant Governor                                 OVER VOTES                            Precinct 4                                             01 
00100080001000014000000000008000006000000000000000000000000000000000000000000000000000000000000000000          REP Lieutenant Governor                                 UNDER VOTES                           Precinct 1                                             01 
00100080002000011000000000004000007000000000000000000000000000000000000000000000000000000000000000000          REP Lieutenant Governor                                 UNDER VOTES                           Precinct 2                                             01 
00100080003000007000000000003000004000000000000000000000000000000000000000000000000000000000000000000          REP Lieutenant Governor                                 UNDER VOTES                           Precinct 2E                                            01 
00100080004000012000001000004000007000000000000000000000000000000000000000000000000000000000000000000          REP Lieutenant Governor                                 UNDER VOTES                           Precinct 3                                             01 
00100080005000013000000000006000007000000000000000000000000000000000000000000000000000000000000000000          REP Lieutenant Governor                                 UNDER VOTES                           Precinct 4                                             01 
00110010001000067000002000029000036000000000000000000000000000000000000000000000000000000000000000000REP       REP Attorney General                                    George P. Bush                        Precinct 1                                             01 
00110010002000045000002000018000025000000000000000000000000000000000000000000000000000000000000000000REP       REP Attorney General                                    George P. Bush                        Precinct 2                                             01 
00110010003000018000000000008000010000000000000000000000000000000000000000000000000000000000000000000REP       REP Attorney General                                    George P. Bush                        Precinct 2E                                            01 
00110010004000061000001000034000026000000000000000000000000000000000000000000000000000000000000000000REP       REP Attorney General                                    George P. Bush                        Precinct 3                                             01 
00110010005000073000002000038000033000000000000000000000000000000000000000000000000000000000000000000REP       REP Attorney General                                    George P. Bush                        Precinct 4                                             01 
00110020001000177000006000089000082000000000000000000000000000000000000000000000000000000000000000000REP       REP Attorney General                                    Ken Paxton                            Precinct 1                                             01 
00110020002000111000003000052000056000000000000000000000000000000000000000000000000000000000000000000REP       REP Attorney General                                    Ken Paxton                            Precinct 2                                             01 
00110020003000048000002000020000026000000000000000000000000000000000000000000000000000000000000000000REP       REP Attorney General                                    Ken Paxton                            Precinct 2E                                            01 
00110020004000124000003000057000064000000000000000000000000000000000000000000000000000000000000000000REP       REP Attorney General                                    Ken Paxton                            Precinct 3                                             01 
00110020005000219000003000139000077000000000000000000000000000000000000000000000000000000000000000000REP       REP Attorney General                                    Ken Paxton                            Precinct 4                                             01 
00110030001000042000000000021000021000000000000000000000000000000000000000000000000000000000000000000REP       REP Attorney General                                    Louie Gohmert                         Precinct 1                                             01 
00110030002000033000000000008000025000000000000000000000000000000000000000000000000000000000000000000REP       REP Attorney General                                    Louie Gohmert                         Precinct 2                                             01 
00110030003000009000002000005000002000000000000000000000000000000000000000000000000000000000000000000REP       REP Attorney General                                    Louie Gohmert                         Precinct 2E                                            01 
00110030004000024000001000008000015000000000000000000000000000000000000000000000000000000000000000000REP       REP Attorney General                                    Louie Gohmert                         Precinct 3                                             01 
00110030005000039000003000023000013000000000000000000000000000000000000000000000000000000000000000000REP       REP Attorney General                                    Louie Gohmert                         Precinct 4                                             01 
00110040001000060000000000027000033000000000000000000000000000000000000000000000000000000000000000000REP       REP Attorney General                                    Eva Guzman                            Precinct 1                                             01 
00110040002000037000000000016000021000000000000000000000000000000000000000000000000000000000000000000REP       REP Attorney General                                    Eva Guzman                            Precinct 2                                             01 
00110040003000026000002000008000016000000000000000000000000000000000000000000000000000000000000000000REP       REP Attorney General                                    Eva Guzman                            Precinct 2E                                            01 
00110040004000043000000000026000017000000000000000000000000000000000000000000000000000000000000000000REP       REP Attorney General                                    Eva Guzman                            Precinct 3                                             01 
00110040005000069000003000036000030000000000000000000000000000000000000000000000000000000000000000000REP       REP Attorney General                                    Eva Guzman                            Precinct 4                                             01 
00110050001000000000000000000000000000000000000000000000000000000000000000000000000000000000000000000          REP Attorney General                                    OVER VOTES                            Precinct 1                                             01 
00110050002000000000000000000000000000000000000000000000000000000000000000000000000000000000000000000          REP Attorney General                                    OVER VOTES                            Precinct 2                                             01 
00110050003000000000000000000000000000000000000000000000000000000000000000000000000000000000000000000          REP Attorney General                                    OVER VOTES                            Precinct 2E                                            01 
00110050004000001000001000000000000000000000000000000000000000000000000000000000000000000000000000000          REP Attorney General                                    OVER VOTES                            Precinct 3                                             01 
00110050005000000000000000000000000000000000000000000000000000000000000000000000000000000000000000000          REP Attorney General                                    OVER VOTES                            Precinct 4                                             01 
00110060001000006000000000002000004000000000000000000000000000000000000000000000000000000000000000000          REP Attorney General                                    UNDER VOTES                           Precinct 1                                             01 
00110060002000004000000000001000003000000000000000000000000000000000000000000000000000000000000000000          REP Attorney General                                    UNDER VOTES                           Precinct 2                                             01 
00110060003000000000000000000000000000000000000000000000000000000000000000000000000000000000000000000          REP Attorney General                                    UNDER VOTES                           Precinct 2E                                            01 
00110060004000010000000000002000008000000000000000000000000000000000000000000000000000000000000000000          REP Attorney General                                    UNDER VOTES                           Precinct 3                                             01 
00110060005000009000000000006000003000000000000000000000000000000000000000000000000000000000000000000          REP Attorney General                                    UNDER VOTES                           Precinct 4                                             01 
00120010001000293000005000145000143000000000000000000000000000000000000000000000000000000000000000000REP       REP Comptroller of Public Accounts                      Glenn Hegar                           Precinct 1                                             01 
00120010002000192000004000081000107000000000000000000000000000000000000000000000000000000000000000000REP       REP Comptroller of Public Accounts                      Glenn Hegar                           Precinct 2                                             01 
00120010003000078000004000032000042000000000000000000000000000000000000000000000000000000000000000000REP       REP Comptroller of Public Accounts                      Glenn Hegar                           Precinct 2E                                            01 
00120010004000211000003000109000099000000000000000000000000000000000000000000000000000000000000000000REP       REP Comptroller of Public Accounts                      Glenn Hegar                           Precinct 3                                             01 
00120010005000327000009000196000122000000000000000000000000000000000000000000000000000000000000000000REP       REP Comptroller of Public Accounts                      Glenn Hegar                           Precinct 4                                             01 
00120020001000025000000000010000015000000000000000000000000000000000000000000000000000000000000000000REP       REP Comptroller of Public Accounts                      Mark V. Goloby                        Precinct 1                                             01 
00120020002000018000001000008000009000000000000000000000000000000000000000000000000000000000000000000REP       REP Comptroller of Public Accounts                      Mark V. Goloby                        Precinct 2                                             01 
00120020003000010000000000003000007000000000000000000000000000000000000000000000000000000000000000000REP       REP Comptroller of Public Accounts                      Mark V. Goloby                        Precinct 2E                                            01 
00120020004000021000001000008000012000000000000000000000000000000000000000000000000000000000000000000REP       REP Comptroller of Public Accounts                      Mark V. Goloby                        Precinct 3                                             01 
00120020005000025000002000014000009000000000000000000000000000000000000000000000000000000000000000000REP       REP Comptroller of Public Accounts                      Mark V. Goloby                        Precinct 4                                             01 
00120030001000000000000000000000000000000000000000000000000000000000000000000000000000000000000000000          REP Comptroller of Public Accounts                      OVER VOTES                            Precinct 1                                             01 
00120030002000000000000000000000000000000000000000000000000000000000000000000000000000000000000000000          REP Comptroller of Public Accounts                      OVER VOTES                            Precinct 2                                             01 
00120030003000000000000000000000000000000000000000000000000000000000000000000000000000000000000000000          REP Comptroller of Public Accounts                      OVER VOTES                            Precinct 2E                                            01 
00120030004000000000000000000000000000000000000000000000000000000000000000000000000000000000000000000          REP Comptroller of Public Accounts                      OVER VOTES                            Precinct 3                                             01 
00120030005000000000000000000000000000000000000000000000000000000000000000000000000000000000000000000          REP Comptroller of Public Accounts                      OVER VOTES                            Precinct 4                                             01 
00120040001000034000003000013000018000000000000000000000000000000000000000000000000000000000000000000          REP Comptroller of Public Accounts                      UNDER VOTES                           Precinct 1                                             01 
00120040002000020000000000006000014000000000000000000000000000000000000000000000000000000000000000000          REP Comptroller of Public Accounts                      UNDER VOTES                           Precinct 2                                             01 
00120040003000013000002000006000005000000000000000000000000000000000000000000000000000000000000000000          REP Comptroller of Public Accounts                      UNDER VOTES                           Precinct 2E                                            01 
00120040004000031000002000010000019000000000000000000000000000000000000000000000000000000000000000000          REP Comptroller of Public Accounts                      UNDER VOTES                           Precinct 3                                             01 
00120040005000057000000000032000025000000000000000000000000000000000000000000000000000000000000000000          REP Comptroller of Public Accounts                      UNDER VOTES                           Precinct 4                                             01 
00130010001000182000005000095000082000000000000000000000000000000000000000000000000000000000000000000REP       REP Comm General Land Office                            Dawn Buckingham                       Precinct 1                                             01 
00130010002000115000005000055000055000000000000000000000000000000000000000000000000000000000000000000REP       REP Comm General Land Office                            Dawn Buckingham                       Precinct 2                                             01 
00130010003000048000000000023000025000000000000000000000000000000000000000000000000000000000000000000REP       REP Comm General Land Office                            Dawn Buckingham                       Precinct 2E                                            01 
00130010004000132000003000068000061000000000000000000000000000000000000000000000000000000000000000000REP       REP Comm General Land Office                            Dawn Buckingham                       Precinct 3                                             01 
00130010005000212000008000134000070000000000000000000000000000000000000000000000000000000000000000000REP       REP Comm General Land Office                            Dawn Buckingham                       Precinct 4                                             01 
00130020001000014000001000006000007000000000000000000000000000000000000000000000000000000000000000000REP       REP Comm General Land Office                            Rufus Lopez                           Precinct 1                                             01 
00130020002000008000000000002000006000000000000000000000000000000000000000000000000000000000000000000REP       REP Comm General Land Office                            Rufus Lopez                           Precinct 2                                             01 
00130020003000003000000000001000002000000000000000000000000000000000000000000000000000000000000000000REP       REP Comm General Land Office                            Rufus Lopez                           Precinct 2E                                            01 
00130020004000005000000000002000003000000000000000000000000000000000000000000000000000000000000000000REP       REP Comm General Land Office                            Rufus Lopez                           Precinct 3                                             01 
00130020005000009000000000005000004000000000000000000000000000000000000000000000000000000000000000000REP       REP Comm General Land Office                            Rufus Lopez                           Precinct 4                                             01 
00130030001000013000000000005000008000000000000000000000000000000000000000000000000000000000000000000REP       REP Comm General Land Office                            Weston Martinez                       Precinct 1                                             01 
00130030002000003000000000001000002000000000000000000000000000000000000000000000000000000000000000000REP       REP Comm General Land Office                            Weston Martinez                       Precinct 2                                             01 
00130030003000002000000000002000000000000000000000000000000000000000000000000000000000000000000000000REP       REP Comm General Land Office                            Weston Martinez                       Precinct 2E                                            01 
00130030004000008000000000004000004000000000000000000000000000000000000000000000000000000000000000000REP       REP Comm General Land Office                            Weston Martinez                       Precinct 3                                             01 
00130030005000008000000000005000003000000000000000000000000000000000000000000000000000000000000000000REP       REP Comm General Land Office                            Weston Martinez                       Precinct 4                                             01 
00130040001000008000000000004000004000000000000000000000000000000000000000000000000000000000000000000REP       REP Comm General Land Office                            Ben Armenta                           Precinct 1                                             01 
00130040002000005000000000001000004000000000000000000000000000000000000000000000000000000000000000000REP       REP Comm General Land Office                            Ben Armenta                           Precinct 2                                             01 
00130040003000003000001000000000002000000000000000000000000000000000000000000000000000000000000000000REP       REP Comm General Land Office                            Ben Armenta                           Precinct 2E                                            01 
00130040004000005000000000004000001000000000000000000000000000000000000000000000000000000000000000000REP       REP Comm General Land Office                            Ben Armenta                           Precinct 3                                             01 
00130040005000001000000000000000001000000000000000000000000000000000000000000000000000000000000000000REP       REP Comm General Land Office                            Ben Armenta                           Precinct 4                                             01 
00130050001000031000000000014000017000000000000000000000000000000000000000000000000000000000000000000REP       REP Comm General Land Office                            Jon Spiers                            Precinct 1                                             01 
00130050002000005000000000004000001000000000000000000000000000000000000000000000000000000000000000000REP       REP Comm General Land Office                            Jon Spiers                            Precinct 2                                             01 
00130050003000005000002000000000003000000000000000000000000000000000000000000000000000000000000000000REP       REP Comm General Land Office                            Jon Spiers                            Precinct 2E                                            01 
00130050004000015000001000003000011000000000000000000000000000000000000000000000000000000000000000000REP       REP Comm General Land Office                            Jon Spiers                            Precinct 3                                             01 
00130050005000031000000000018000013000000000000000000000000000000000000000000000000000000000000000000REP       REP Comm General Land Office                            Jon Spiers                            Precinct 4                                             01 
00130060001000019000000000004000015000000000000000000000000000000000000000000000000000000000000000000REP       REP Comm General Land Office                            Don W. Minton                         Precinct 1                                             01 
00130060002000014000000000006000008000000000000000000000000000000000000000000000000000000000000000000REP       REP Comm General Land Office                            Don W. Minton                         Precinct 2                                             01 
00130060003000007000000000001000006000000000000000000000000000000000000000000000000000000000000000000REP       REP Comm General Land Office                            Don W. Minton                         Precinct 2E                                            01 
00130060004000012000000000007000005000000000000000000000000000000000000000000000000000000000000000000REP       REP Comm General Land Office                            Don W. Minton                         Precinct 3                                             01 
00130060005000030000002000013000015000000000000000000000000000000000000000000000000000000000000000000REP       REP Comm General Land Office                            Don W. Minton                         Precinct 4                                             01 
00130070001000010000000000005000005000000000000000000000000000000000000000000000000000000000000000000REP       REP Comm General Land Office                            Victor Avila                          Precinct 1                                             01 
00130070002000010000000000004000006000000000000000000000000000000000000000000000000000000000000000000REP       REP Comm General Land Office                            Victor Avila                          Precinct 2                                             01 
00130070003000004000000000000000004000000000000000000000000000000000000000000000000000000000000000000REP       REP Comm General Land Office                            Victor Avila                          Precinct 2E                                            01 
00130070004000009000000000003000006000000000000000000000000000000000000000000000000000000000000000000REP       REP Comm General Land Office                            Victor Avila                          Precinct 3                                             01 
00130070005000002000000000002000000000000000000000000000000000000000000000000000000000000000000000000REP       REP Comm General Land Office                            Victor Avila                          Precinct 4                                             01 
00130080001000022000000000011000011000000000000000000000000000000000000000000000000000000000000000000REP       REP Comm General Land Office                            Tim Westley                           Precinct 1                                             01 
00130080002000036000000000012000024000000000000000000000000000000000000000000000000000000000000000000REP       REP Comm General Land Office                            Tim Westley                           Precinct 2                                             01 
00130080003000012000000000005000007000000000000000000000000000000000000000000000000000000000000000000REP       REP Comm General Land Office                            Tim Westley                           Precinct 2E                                            01 
00130080004000034000000000016000018000000000000000000000000000000000000000000000000000000000000000000REP       REP Comm General Land Office                            Tim Westley                           Precinct 3                                             01 
00130080005000036000001000022000013000000000000000000000000000000000000000000000000000000000000000000REP       REP Comm General Land Office                            Tim Westley                           Precinct 4                                             01 
00130090001000000000000000000000000000000000000000000000000000000000000000000000000000000000000000000          REP Comm General Land Office                            OVER VOTES                            Precinct 1                                             01 
00130090002000000000000000000000000000000000000000000000000000000000000000000000000000000000000000000          REP Comm General Land Office                            OVER VOTES                            Precinct 2                                             01 
00130090003000000000000000000000000000000000000000000000000000000000000000000000000000000000000000000          REP Comm General Land Office                            OVER VOTES                            Precinct 2E                                            01 
00130090004000000000000000000000000000000000000000000000000000000000000000000000000000000000000000000          REP Comm General Land Office                            OVER VOTES                            Precinct 3                                             01 
00130090005000000000000000000000000000000000000000000000000000000000000000000000000000000000000000000          REP Comm General Land Office                            OVER VOTES                            Precinct 4                                             01 
00130100001000053000002000024000027000000000000000000000000000000000000000000000000000000000000000000          REP Comm General Land Office                            UNDER VOTES                           Precinct 1                                             01 
00130100002000034000000000010000024000000000000000000000000000000000000000000000000000000000000000000          REP Comm General Land Office                            UNDER VOTES                           Precinct 2                                             01 
00130100003000017000003000009000005000000000000000000000000000000000000000000000000000000000000000000          REP Comm General Land Office                            UNDER VOTES                           Precinct 2E                                            01 
00130100004000043000002000020000021000000000000000000000000000000000000000000000000000000000000000000          REP Comm General Land Office                            UNDER VOTES                           Precinct 3                                             01 
00130100005000080000000000043000037000000000000000000000000000000000000000000000000000000000000000000          REP Comm General Land Office                            UNDER VOTES                           Precinct 4                                             01 
00140010001000017000000000007000010000000000000000000000000000000000000000000000000000000000000000000REP       REP Commissioner of Agriculture                         Carey A. Counsil                      Precinct 1                                             01 
00140010002000022000001000004000017000000000000000000000000000000000000000000000000000000000000000000REP       REP Commissioner of Agriculture                         Carey A. Counsil                      Precinct 2                                             01 
00140010003000010000001000004000005000000000000000000000000000000000000000000000000000000000000000000REP       REP Commissioner of Agriculture                         Carey A. Counsil                      Precinct 2E                                            01 
00140010004000028000000000012000016000000000000000000000000000000000000000000000000000000000000000000REP       REP Commissioner of Agriculture                         Carey A. Counsil                      Precinct 3                                             01 
00140010005000020000001000012000007000000000000000000000000000000000000000000000000000000000000000000REP       REP Commissioner of Agriculture                         Carey A. Counsil                      Precinct 4                                             01 
00140020001000063000000000032000031000000000000000000000000000000000000000000000000000000000000000000REP       REP Commissioner of Agriculture                         James White                           Precinct 1                                             01 
00140020002000055000002000023000030000000000000000000000000000000000000000000000000000000000000000000REP       REP Commissioner of Agriculture                         James White                           Precinct 2                                             01 
00140020003000023000001000009000013000000000000000000000000000000000000000000000000000000000000000000REP       REP Commissioner of Agriculture                         James White                           Precinct 2E                                            01 
00140020004000065000001000041000023000000000000000000000000000000000000000000000000000000000000000000REP       REP Commissioner of Agriculture                         James White                           Precinct 3                                             01 
00140020005000072000000000046000026000000000000000000000000000000000000000000000000000000000000000000REP       REP Commissioner of Agriculture                         James White                           Precinct 4                                             01 
00140030001000240000006000115000119000000000000000000000000000000000000000000000000000000000000000000REP       REP Commissioner of Agriculture                         Sid Miller                            Precinct 1                                             01 
00140030002000133000002000056000075000000000000000000000000000000000000000000000000000000000000000000REP       REP Commissioner of Agriculture                         Sid Miller                            Precinct 2                                             01 
00140030003000057000004000023000030000000000000000000000000000000000000000000000000000000000000000000REP       REP Commissioner of Agriculture                         Sid Miller                            Precinct 2E                                            01 
00140030004000141000004000062000075000000000000000000000000000000000000000000000000000000000000000000REP       REP Commissioner of Agriculture                         Sid Miller                            Precinct 3                                             01 
00140030005000265000010000151000104000000000000000000000000000000000000000000000000000000000000000000REP       REP Commissioner of Agriculture                         Sid Miller                            Precinct 4                                             01 
00140040001000000000000000000000000000000000000000000000000000000000000000000000000000000000000000000          REP Commissioner of Agriculture                         OVER VOTES                            Precinct 1                                             01 
00140040002000000000000000000000000000000000000000000000000000000000000000000000000000000000000000000          REP Commissioner of Agriculture                         OVER VOTES                            Precinct 2                                             01 
00140040003000000000000000000000000000000000000000000000000000000000000000000000000000000000000000000          REP Commissioner of Agriculture                         OVER VOTES                            Precinct 2E                                            01 
00140040004000000000000000000000000000000000000000000000000000000000000000000000000000000000000000000          REP Commissioner of Agriculture                         OVER VOTES                            Precinct 3                                             01 
00140040005000000000000000000000000000000000000000000000000000000000000000000000000000000000000000000          REP Commissioner of Agriculture                         OVER VOTES                            Precinct 4                                             01 
00140050001000032000002000014000016000000000000000000000000000000000000000000000000000000000000000000          REP Commissioner of Agriculture                         UNDER VOTES                           Precinct 1                                             01 
00140050002000020000000000012000008000000000000000000000000000000000000000000000000000000000000000000          REP Commissioner of Agriculture                         UNDER VOTES                           Precinct 2                                             01 
00140050003000011000000000005000006000000000000000000000000000000000000000000000000000000000000000000          REP Commissioner of Agriculture                         UNDER VOTES                           Precinct 2E                                            01 
00140050004000029000001000012000016000000000000000000000000000000000000000000000000000000000000000000          REP Commissioner of Agriculture                         UNDER VOTES                           Precinct 3                                             01 
00140050005000052000000000033000019000000000000000000000000000000000000000000000000000000000000000000          REP Commissioner of Agriculture                         UNDER VOTES                           Precinct 4                                             01 
00150010001000071000000000030000041000000000000000000000000000000000000000000000000000000000000000000REP       REP Railroad Commissioner                               Marvin "Sarge" Summers                Precinct 1                                             01 
00150010002000042000001000014000027000000000000000000000000000000000000000000000000000000000000000000REP       REP Railroad Commissioner                               Marvin "Sarge" Summers                Precinct 2                                             01 
00150010003000021000001000010000010000000000000000000000000000000000000000000000000000000000000000000REP       REP Railroad Commissioner                               Marvin "Sarge" Summers                Precinct 2E                                            01 
00150010004000051000000000022000029000000000000000000000000000000000000000000000000000000000000000000REP       REP Railroad Commissioner                               Marvin "Sarge" Summers                Precinct 3                                             01 
00150010005000064000003000041000020000000000000000000000000000000000000000000000000000000000000000000REP       REP Railroad Commissioner                               Marvin "Sarge" Summers                Precinct 4                                             01 
00150020001000122000003000066000053000000000000000000000000000000000000000000000000000000000000000000REP       REP Railroad Commissioner                               Wayne Christian                       Precinct 1                                             01 
00150020002000079000004000033000042000000000000000000000000000000000000000000000000000000000000000000REP       REP Railroad Commissioner                               Wayne Christian                       Precinct 2                                             01 
00150020003000030000000000009000021000000000000000000000000000000000000000000000000000000000000000000REP       REP Railroad Commissioner                               Wayne Christian                       Precinct 2E                                            01 
00150020004000080000003000043000034000000000000000000000000000000000000000000000000000000000000000000REP       REP Railroad Commissioner                               Wayne Christian                       Precinct 3                                             01 
00150020005000141000003000084000054000000000000000000000000000000000000000000000000000000000000000000REP       REP Railroad Commissioner                               Wayne Christian                       Precinct 4                                             01 
00150030001000030000000000019000011000000000000000000000000000000000000000000000000000000000000000000REP       REP Railroad Commissioner                               Sarah Stogner                         Precinct 1                                             01 
00150030002000028000000000013000015000000000000000000000000000000000000000000000000000000000000000000REP       REP Railroad Commissioner                               Sarah Stogner                         Precinct 2                                             01 
00150030003000009000001000003000005000000000000000000000000000000000000000000000000000000000000000000REP       REP Railroad Commissioner                               Sarah Stogner                         Precinct 2E                                            01 
00150030004000032000000000015000017000000000000000000000000000000000000000000000000000000000000000000REP       REP Railroad Commissioner                               Sarah Stogner                         Precinct 3                                             01 
00150030005000030000000000017000013000000000000000000000000000000000000000000000000000000000000000000REP       REP Railroad Commissioner                               Sarah Stogner                         Precinct 4                                             01 
00150040001000019000001000006000012000000000000000000000000000000000000000000000000000000000000000000REP       REP Railroad Commissioner                               Dawayne Tipton                        Precinct 1                                             01 
00150040002000018000000000007000011000000000000000000000000000000000000000000000000000000000000000000REP       REP Railroad Commissioner                               Dawayne Tipton                        Precinct 2                                             01 
00150040003000007000000000004000003000000000000000000000000000000000000000000000000000000000000000000REP       REP Railroad Commissioner                               Dawayne Tipton                        Precinct 2E                                            01 
00150040004000020000000000011000009000000000000000000000000000000000000000000000000000000000000000000REP       REP Railroad Commissioner                               Dawayne Tipton                        Precinct 3                                             01 
00150040005000033000003000019000011000000000000000000000000000000000000000000000000000000000000000000REP       REP Railroad Commissioner                               Dawayne Tipton                        Precinct 4                                             01 
00150050001000042000000000021000021000000000000000000000000000000000000000000000000000000000000000000REP       REP Railroad Commissioner                               Tom Slocum Jr                         Precinct 1                                             01 
00150050002000024000000000013000011000000000000000000000000000000000000000000000000000000000000000000REP       REP Railroad Commissioner                               Tom Slocum Jr                         Precinct 2                                             01 
00150050003000015000002000006000007000000000000000000000000000000000000000000000000000000000000000000REP       REP Railroad Commissioner                               Tom Slocum Jr                         Precinct 2E                                            01 
00150050004000028000000000013000015000000000000000000000000000000000000000000000000000000000000000000REP       REP Railroad Commissioner                               Tom Slocum Jr                         Precinct 3                                             01 
00150050005000045000001000024000020000000000000000000000000000000000000000000000000000000000000000000REP       REP Railroad Commissioner                               Tom Slocum Jr                         Precinct 4                                             01 
00150060001000000000000000000000000000000000000000000000000000000000000000000000000000000000000000000          REP Railroad Commissioner                               OVER VOTES                            Precinct 1                                             01 
00150060002000000000000000000000000000000000000000000000000000000000000000000000000000000000000000000          REP Railroad Commissioner                               OVER VOTES                            Precinct 2                                             01 
00150060003000000000000000000000000000000000000000000000000000000000000000000000000000000000000000000          REP Railroad Commissioner                               OVER VOTES                            Precinct 2E                                            01 
00150060004000000000000000000000000000000000000000000000000000000000000000000000000000000000000000000          REP Railroad Commissioner                               OVER VOTES                            Precinct 3                                             01 
00150060005000000000000000000000000000000000000000000000000000000000000000000000000000000000000000000          REP Railroad Commissioner                               OVER VOTES                            Precinct 4                                             01 
00150070001000068000004000026000038000000000000000000000000000000000000000000000000000000000000000000          REP Railroad Commissioner                               UNDER VOTES                           Precinct 1                                             01 
00150070002000039000000000015000024000000000000000000000000000000000000000000000000000000000000000000          REP Railroad Commissioner                               UNDER VOTES                           Precinct 2                                             01 
00150070003000019000002000009000008000000000000000000000000000000000000000000000000000000000000000000          REP Railroad Commissioner                               UNDER VOTES                           Precinct 2E                                            01 
00150070004000052000003000023000026000000000000000000000000000000000000000000000000000000000000000000          REP Railroad Commissioner                               UNDER VOTES                           Precinct 3                                             01 
00150070005000096000001000057000038000000000000000000000000000000000000000000000000000000000000000000          REP Railroad Commissioner                               UNDER VOTES                           Precinct 4                                             01 
00160010001000295000006000144000145000000000000000000000000000000000000000000000000000000000000000000REP       REP Justice, Supreme Court, Pl 3                        Debra Lehrmann                        Precinct 1                                             01 
00160010002000203000004000084000115000000000000000000000000000000000000000000000000000000000000000000REP       REP Justice, Supreme Court, Pl 3                        Debra Lehrmann                        Precinct 2                                             01 
00160010003000091000006000035000050000000000000000000000000000000000000000000000000000000000000000000REP       REP Justice, Supreme Court, Pl 3                        Debra Lehrmann                        Precinct 2E                                            01 
00160010004000219000002000108000109000000000000000000000000000000000000000000000000000000000000000000REP       REP Justice, Supreme Court, Pl 3                        Debra Lehrmann                        Precinct 3                                             01 
00160010005000344000010000208000126000000000000000000000000000000000000000000000000000000000000000000REP       REP Justice, Supreme Court, Pl 3                        Debra Lehrmann                        Precinct 4                                             01 
00160020001000000000000000000000000000000000000000000000000000000000000000000000000000000000000000000          REP Justice, Supreme Court, Pl 3                        OVER VOTES                            Precinct 1                                             01 
00160020002000000000000000000000000000000000000000000000000000000000000000000000000000000000000000000          REP Justice, Supreme Court, Pl 3                        OVER VOTES                            Precinct 2                                             01 
00160020003000000000000000000000000000000000000000000000000000000000000000000000000000000000000000000          REP Justice, Supreme Court, Pl 3                        OVER VOTES                            Precinct 2E                                            01 
00160020004000000000000000000000000000000000000000000000000000000000000000000000000000000000000000000          REP Justice, Supreme Court, Pl 3                        OVER VOTES                            Precinct 3                                             01 
00160020005000000000000000000000000000000000000000000000000000000000000000000000000000000000000000000          REP Justice, Supreme Court, Pl 3                        OVER VOTES                            Precinct 4                                             01 
00160030001000057000002000024000031000000000000000000000000000000000000000000000000000000000000000000          REP Justice, Supreme Court, Pl 3                        UNDER VOTES                           Precinct 1                                             01 
00160030002000027000001000011000015000000000000000000000000000000000000000000000000000000000000000000          REP Justice, Supreme Court, Pl 3                        UNDER VOTES                           Precinct 2                                             01 
00160030003000010000000000006000004000000000000000000000000000000000000000000000000000000000000000000          REP Justice, Supreme Court, Pl 3                        UNDER VOTES                           Precinct 2E                                            01 
00160030004000044000004000019000021000000000000000000000000000000000000000000000000000000000000000000          REP Justice, Supreme Court, Pl 3                        UNDER VOTES                           Precinct 3                                             01 
00160030005000065000001000034000030000000000000000000000000000000000000000000000000000000000000000000          REP Justice, Supreme Court, Pl 3                        UNDER VOTES                           Precinct 4                                             01 
00170010001000305000006000150000149000000000000000000000000000000000000000000000000000000000000000000REP       REP Justice, Supreme Court, Pl 5                        Rebeca Huddle                         Precinct 1                                             01 
00170010002000202000004000080000118000000000000000000000000000000000000000000000000000000000000000000REP       REP Justice, Supreme Court, Pl 5                        Rebeca Huddle                         Precinct 2                                             01 
00170010003000089000006000035000048000000000000000000000000000000000000000000000000000000000000000000REP       REP Justice, Supreme Court, Pl 5                        Rebeca Huddle                         Precinct 2E                                            01 
00170010004000216000003000104000109000000000000000000000000000000000000000000000000000000000000000000REP       REP Justice, Supreme Court, Pl 5                        Rebeca Huddle                         Precinct 3                                             01 
00170010005000344000010000208000126000000000000000000000000000000000000000000000000000000000000000000REP       REP Justice, Supreme Court, Pl 5                        Rebeca Huddle                         Precinct 4                                             01 
00170020001000000000000000000000000000000000000000000000000000000000000000000000000000000000000000000          REP Justice, Supreme Court, Pl 5                        OVER VOTES                            Precinct 1                                             01 
00170020002000000000000000000000000000000000000000000000000000000000000000000000000000000000000000000          REP Justice, Supreme Court, Pl 5                        OVER VOTES                            Precinct 2                                             01 
00170020003000000000000000000000000000000000000000000000000000000000000000000000000000000000000000000          REP Justice, Supreme Court, Pl 5                        OVER VOTES                            Precinct 2E                                            01 
00170020004000000000000000000000000000000000000000000000000000000000000000000000000000000000000000000          REP Justice, Supreme Court, Pl 5                        OVER VOTES                            Precinct 3                                             01 
00170020005000000000000000000000000000000000000000000000000000000000000000000000000000000000000000000          REP Justice, Supreme Court, Pl 5                        OVER VOTES                            Precinct 4                                             01 
00170030001000047000002000018000027000000000000000000000000000000000000000000000000000000000000000000          REP Justice, Supreme Court, Pl 5                        UNDER VOTES                           Precinct 1                                             01 
00170030002000028000001000015000012000000000000000000000000000000000000000000000000000000000000000000          REP Justice, Supreme Court, Pl 5                        UNDER VOTES                           Precinct 2                                             01 
00170030003000012000000000006000006000000000000000000000000000000000000000000000000000000000000000000          REP Justice, Supreme Court, Pl 5                        UNDER VOTES                           Precinct 2E                                            01 
00170030004000047000003000023000021000000000000000000000000000000000000000000000000000000000000000000          REP Justice, Supreme Court, Pl 5                        UNDER VOTES                           Precinct 3                                             01 
00170030005000065000001000034000030000000000000000000000000000000000000000000000000000000000000000000          REP Justice, Supreme Court, Pl 5                        UNDER VOTES                           Precinct 4                                             01 
00180010001000142000000000070000072000000000000000000000000000000000000000000000000000000000000000000REP       REP Justice, Supreme Court, Pl 9                        David J. Schenck                      Precinct 1                                             01 
00180010002000098000004000037000057000000000000000000000000000000000000000000000000000000000000000000REP       REP Justice, Supreme Court, Pl 9                        David J. Schenck                      Precinct 2                                             01 
00180010003000029000000000006000023000000000000000000000000000000000000000000000000000000000000000000REP       REP Justice, Supreme Court, Pl 9                        David J. Schenck                      Precinct 2E                                            01 
00180010004000110000001000054000055000000000000000000000000000000000000000000000000000000000000000000REP       REP Justice, Supreme Court, Pl 9                        David J. Schenck                      Precinct 3                                             01 
00180010005000159000003000098000058000000000000000000000000000000000000000000000000000000000000000000REP       REP Justice, Supreme Court, Pl 9                        David J. Schenck                      Precinct 4                                             01 
00180020001000143000004000071000068000000000000000000000000000000000000000000000000000000000000000000REP       REP Justice, Supreme Court, Pl 9                        Evan Young                            Precinct 1                                             01 
00180020002000097000001000045000051000000000000000000000000000000000000000000000000000000000000000000REP       REP Justice, Supreme Court, Pl 9                        Evan Young                            Precinct 2                                             01 
00180020003000055000004000026000025000000000000000000000000000000000000000000000000000000000000000000REP       REP Justice, Supreme Court, Pl 9                        Evan Young                            Precinct 2E                                            01 
00180020004000103000002000052000049000000000000000000000000000000000000000000000000000000000000000000REP       REP Justice, Supreme Court, Pl 9                        Evan Young                            Precinct 3                                             01 
00180020005000155000007000088000060000000000000000000000000000000000000000000000000000000000000000000REP       REP Justice, Supreme Court, Pl 9                        Evan Young                            Precinct 4                                             01 
00180030001000000000000000000000000000000000000000000000000000000000000000000000000000000000000000000          REP Justice, Supreme Court, Pl 9                        OVER VOTES                            Precinct 1                                             01 
00180030002000000000000000000000000000000000000000000000000000000000000000000000000000000000000000000          REP Justice, Supreme Court, Pl 9                        OVER VOTES                            Precinct 2                                             01 
00180030003000000000000000000000000000000000000000000000000000000000000000000000000000000000000000000          REP Justice, Supreme Court, Pl 9                        OVER VOTES                            Precinct 2E                                            01 
00180030004000000000000000000000000000000000000000000000000000000000000000000000000000000000000000000          REP Justice, Supreme Court, Pl 9                        OVER VOTES                            Precinct 3                                             01 
00180030005000000000000000000000000000000000000000000000000000000000000000000000000000000000000000000          REP Justice, Supreme Court, Pl 9                        OVER VOTES                            Precinct 4                                             01 
00180040001000067000004000027000036000000000000000000000000000000000000000000000000000000000000000000          REP Justice, Supreme Court, Pl 9                        UNDER VOTES                           Precinct 1                                             01 
00180040002000035000000000013000022000000000000000000000000000000000000000000000000000000000000000000          REP Justice, Supreme Court, Pl 9                        UNDER VOTES                           Precinct 2                                             01 
00180040003000017000002000009000006000000000000000000000000000000000000000000000000000000000000000000          REP Justice, Supreme Court, Pl 9                        UNDER VOTES                           Precinct 2E                                            01 
00180040004000050000003000021000026000000000000000000000000000000000000000000000000000000000000000000          REP Justice, Supreme Court, Pl 9                        UNDER VOTES                           Precinct 3                                             01 
00180040005000095000001000056000038000000000000000000000000000000000000000000000000000000000000000000          REP Justice, Supreme Court, Pl 9                        UNDER VOTES                           Precinct 4                                             01 
00190010001000300000006000147000147000000000000000000000000000000000000000000000000000000000000000000REP       REP Judge, Ct of Crim App, Pl 2                         Mary Lou Keel                         Precinct 1                                             01 
00190010002000201000004000083000114000000000000000000000000000000000000000000000000000000000000000000REP       REP Judge, Ct of Crim App, Pl 2                         Mary Lou Keel                         Precinct 2                                             01 
00190010003000089000006000035000048000000000000000000000000000000000000000000000000000000000000000000REP       REP Judge, Ct of Crim App, Pl 2                         Mary Lou Keel                         Precinct 2E                                            01 
00190010004000216000004000106000106000000000000000000000000000000000000000000000000000000000000000000REP       REP Judge, Ct of Crim App, Pl 2                         Mary Lou Keel                         Precinct 3                                             01 
00190010005000341000008000208000125000000000000000000000000000000000000000000000000000000000000000000REP       REP Judge, Ct of Crim App, Pl 2                         Mary Lou Keel                         Precinct 4                                             01 
00190020001000000000000000000000000000000000000000000000000000000000000000000000000000000000000000000          REP Judge, Ct of Crim App, Pl 2                         OVER VOTES                            Precinct 1                                             01 
00190020002000000000000000000000000000000000000000000000000000000000000000000000000000000000000000000          REP Judge, Ct of Crim App, Pl 2                         OVER VOTES                            Precinct 2                                             01 
00190020003000000000000000000000000000000000000000000000000000000000000000000000000000000000000000000          REP Judge, Ct of Crim App, Pl 2                         OVER VOTES                            Precinct 2E                                            01 
00190020004000000000000000000000000000000000000000000000000000000000000000000000000000000000000000000          REP Judge, Ct of Crim App, Pl 2                         OVER VOTES                            Precinct 3                                             01 
00190020005000000000000000000000000000000000000000000000000000000000000000000000000000000000000000000          REP Judge, Ct of Crim App, Pl 2                         OVER VOTES                            Precinct 4                                             01 
00190030001000052000002000021000029000000000000000000000000000000000000000000000000000000000000000000          REP Judge, Ct of Crim App, Pl 2                         UNDER VOTES                           Precinct 1                                             01 
00190030002000029000001000012000016000000000000000000000000000000000000000000000000000000000000000000          REP Judge, Ct of Crim App, Pl 2                         UNDER VOTES                           Precinct 2                                             01 
00190030003000012000000000006000006000000000000000000000000000000000000000000000000000000000000000000          REP Judge, Ct of Crim App, Pl 2                         UNDER VOTES                           Precinct 2E                                            01 
00190030004000047000002000021000024000000000000000000000000000000000000000000000000000000000000000000          REP Judge, Ct of Crim App, Pl 2                         UNDER VOTES                           Precinct 3                                             01 
00190030005000068000003000034000031000000000000000000000000000000000000000000000000000000000000000000          REP Judge, Ct of Crim App, Pl 2                         UNDER VOTES                           Precinct 4                                             01 
00200010001000117000002000061000054000000000000000000000000000000000000000000000000000000000000000000REP       REP Judge, Ct of Crim App, Pl 5                         Clint Morgan                          Precinct 1                                             01 
00200010002000084000003000039000042000000000000000000000000000000000000000000000000000000000000000000REP       REP Judge, Ct of Crim App, Pl 5                         Clint Morgan                          Precinct 2                                             01 
00200010003000033000000000011000022000000000000000000000000000000000000000000000000000000000000000000REP       REP Judge, Ct of Crim App, Pl 5                         Clint Morgan                          Precinct 2E                                            01 
00200010004000083000001000044000038000000000000000000000000000000000000000000000000000000000000000000REP       REP Judge, Ct of Crim App, Pl 5                         Clint Morgan                          Precinct 3                                             01 
00200010005000133000003000084000046000000000000000000000000000000000000000000000000000000000000000000REP       REP Judge, Ct of Crim App, Pl 5                         Clint Morgan                          Precinct 4                                             01 
00200020001000165000002000078000085000000000000000000000000000000000000000000000000000000000000000000REP       REP Judge, Ct of Crim App, Pl 5                         Scott Walker                          Precinct 1                                             01 
00200020002000111000002000045000064000000000000000000000000000000000000000000000000000000000000000000REP       REP Judge, Ct of Crim App, Pl 5                         Scott Walker                          Precinct 2                                             01 
00200020003000053000004000024000025000000000000000000000000000000000000000000000000000000000000000000REP       REP Judge, Ct of Crim App, Pl 5                         Scott Walker                          Precinct 2E                                            01 
00200020004000139000003000067000069000000000000000000000000000000000000000000000000000000000000000000REP       REP Judge, Ct of Crim App, Pl 5                         Scott Walker                          Precinct 3                                             01 
00200020005000183000007000105000071000000000000000000000000000000000000000000000000000000000000000000REP       REP Judge, Ct of Crim App, Pl 5                         Scott Walker                          Precinct 4                                             01 
00200030001000000000000000000000000000000000000000000000000000000000000000000000000000000000000000000          REP Judge, Ct of Crim App, Pl 5                         OVER VOTES                            Precinct 1                                             01 
00200030002000000000000000000000000000000000000000000000000000000000000000000000000000000000000000000          REP Judge, Ct of Crim App, Pl 5                         OVER VOTES                            Precinct 2                                             01 
00200030003000000000000000000000000000000000000000000000000000000000000000000000000000000000000000000          REP Judge, Ct of Crim App, Pl 5                         OVER VOTES                            Precinct 2E                                            01 
00200030004000000000000000000000000000000000000000000000000000000000000000000000000000000000000000000          REP Judge, Ct of Crim App, Pl 5                         OVER VOTES                            Precinct 3                                             01 
00200030005000000000000000000000000000000000000000000000000000000000000000000000000000000000000000000          REP Judge, Ct of Crim App, Pl 5                         OVER VOTES                            Precinct 4                                             01 
00200040001000070000004000029000037000000000000000000000000000000000000000000000000000000000000000000          REP Judge, Ct of Crim App, Pl 5                         UNDER VOTES                           Precinct 1                                             01 
00200040002000035000000000011000024000000000000000000000000000000000000000000000000000000000000000000          REP Judge, Ct of Crim App, Pl 5                         UNDER VOTES                           Precinct 2                                             01 
00200040003000015000002000006000007000000000000000000000000000000000000000000000000000000000000000000          REP Judge, Ct of Crim App, Pl 5                         UNDER VOTES                           Precinct 2E                                            01 
00200040004000041000002000016000023000000000000000000000000000000000000000000000000000000000000000000          REP Judge, Ct of Crim App, Pl 5                         UNDER VOTES                           Precinct 3                                             01 
00200040005000093000001000053000039000000000000000000000000000000000000000000000000000000000000000000          REP Judge, Ct of Crim App, Pl 5                         UNDER VOTES                           Precinct 4                                             01 
00210010001000299000005000147000147000000000000000000000000000000000000000000000000000000000000000000REP       REP Judge, Ct of Crim App, Pl 6                         Jesse F. McClure, III                 Precinct 1                                             01 
00210010002000198000004000083000111000000000000000000000000000000000000000000000000000000000000000000REP       REP Judge, Ct of Crim App, Pl 6                         Jesse F. McClure, III                 Precinct 2                                             01 
