00010010001000359000000000000000000000000000000000000000000000000000000000000000000000000000000000000          REGISTERED VOTERS - TOTAL                               REGISTERED VOTERS - TOTAL             Precinct 1                                             00 
00010010002000086000000000000000000000000000000000000000000000000000000000000000000000000000000000000          REGISTERED VOTERS - TOTAL                               REGISTERED VOTERS - TOTAL             Precinct 2                                             00 
00010010003000026000000000000000000000000000000000000000000000000000000000000000000000000000000000000          REGISTERED VOTERS - TOTAL                               REGISTERED VOTERS - TOTAL             Precinct 3                                             00 
00010010004000041000000000000000000000000000000000000000000000000000000000000000000000000000000000000          REGISTERED VOTERS - TOTAL                               REGISTERED VOTERS - TOTAL             Precinct 4                                             00 
00010010005000030000000000000000000000000000000000000000000000000000000000000000000000000000000000000          REGISTERED VOTERS - TOTAL                               REGISTERED VOTERS - TOTAL             Precinct 5                                             00 
00010010006000382000000000000000000000000000000000000000000000000000000000000000000000000000000000000          REGISTERED VOTERS - TOTAL                               REGISTERED VOTERS - TOTAL             Precinct 6                                             00 
00010010007000668000000000000000000000000000000000000000000000000000000000000000000000000000000000000          REGISTERED VOTERS - TOTAL                               REGISTERED VOTERS - TOTAL             Precinct 7                                             00 
00010010008000729000000000000000000000000000000000000000000000000000000000000000000000000000000000000          REGISTERED VOTERS - TOTAL                               REGISTERED VOTERS - TOTAL             Precinct 8                                             00 
00010010009000589000000000000000000000000000000000000000000000000000000000000000000000000000000000000          REGISTERED VOTERS - TOTAL                               REGISTERED VOTERS - TOTAL             Precinct 9                                             00 
00040010001000359000000000000000000000000000000000000000000000000000000000000000000000000000000000000NON       REGISTERED VOTERS - NONPARTISAN                         REGISTERED VOTERS - NONPARTISAN       Precinct 1                                             00 
00040010002000086000000000000000000000000000000000000000000000000000000000000000000000000000000000000NON       REGISTERED VOTERS - NONPARTISAN                         REGISTERED VOTERS - NONPARTISAN       Precinct 2                                             00 
00040010003000026000000000000000000000000000000000000000000000000000000000000000000000000000000000000NON       REGISTERED VOTERS - NONPARTISAN                         REGISTERED VOTERS - NONPARTISAN       Precinct 3                                             00 
00040010004000041000000000000000000000000000000000000000000000000000000000000000000000000000000000000NON       REGISTERED VOTERS - NONPARTISAN                         REGISTERED VOTERS - NONPARTISAN       Precinct 4                                             00 
00040010005000030000000000000000000000000000000000000000000000000000000000000000000000000000000000000NON       REGISTERED VOTERS - NONPARTISAN                         REGISTERED VOTERS - NONPARTISAN       Precinct 5                                             00 
00040010006000382000000000000000000000000000000000000000000000000000000000000000000000000000000000000NON       REGISTERED VOTERS - NONPARTISAN                         REGISTERED VOTERS - NONPARTISAN       Precinct 6                                             00 
00040010007000668000000000000000000000000000000000000000000000000000000000000000000000000000000000000NON       REGISTERED VOTERS - NONPARTISAN                         REGISTERED VOTERS - NONPARTISAN       Precinct 7                                             00 
00040010008000729000000000000000000000000000000000000000000000000000000000000000000000000000000000000NON       REGISTERED VOTERS - NONPARTISAN                         REGISTERED VOTERS - NONPARTISAN       Precinct 8                                             00 
00040010009000589000000000000000000000000000000000000000000000000000000000000000000000000000000000000NON       REGISTERED VOTERS - NONPARTISAN                         REGISTERED VOTERS - NONPARTISAN       Precinct 9                                             00 
00050010001000085000013000009000063000000000000000000000000000000000000000000000000000000000000000000          BALLOTS CAST - TOTAL                                    BALLOTS CAST - TOTAL                  Precinct 1                                             00 
00050010002000019000001000005000013000000000000000000000000000000000000000000000000000000000000000000          BALLOTS CAST - TOTAL                                    BALLOTS CAST - TOTAL                  Precinct 2                                             00 
00050010003000009000000000005000004000000000000000000000000000000000000000000000000000000000000000000          BALLOTS CAST - TOTAL                                    BALLOTS CAST - TOTAL                  Precinct 3                                             00 
00050010004000007000001000004000002000000000000000000000000000000000000000000000000000000000000000000          BALLOTS CAST - TOTAL                                    BALLOTS CAST - TOTAL                  Precinct 4                                             00 
00050010005000004000002000000000002000000000000000000000000000000000000000000000000000000000000000000          BALLOTS CAST - TOTAL                                    BALLOTS CAST - TOTAL                  Precinct 5                                             00 
00050010006000053000007000022000024000000000000000000000000000000000000000000000000000000000000000000          BALLOTS CAST - TOTAL                                    BALLOTS CAST - TOTAL                  Precinct 6                                             00 
00050010007000086000007000013000066000000000000000000000000000000000000000000000000000000000000000000          BALLOTS CAST - TOTAL                                    BALLOTS CAST - TOTAL                  Precinct 7                                             00 
00050010008000121000019000041000061000000000000000000000000000000000000000000000000000000000000000000          BALLOTS CAST - TOTAL                                    BALLOTS CAST - TOTAL                  Precinct 8                                             00 
00050010009000076000008000020000048000000000000000000000000000000000000000000000000000000000000000000          BALLOTS CAST - TOTAL                                    BALLOTS CAST - TOTAL                  Precinct 9                                             00 
00060010001000003000002000000000001000000000000000000000000000000000000000000000000000000000000000000DEM       BALLOTS CAST - Democratic Party                         BALLOTS CAST - Democratic Party       Precinct 1                                             00 
00060010002000000000000000000000000000000000000000000000000000000000000000000000000000000000000000000DEM       BALLOTS CAST - Democratic Party                         BALLOTS CAST - Democratic Party       Precinct 2                                             00 
00060010003000000000000000000000000000000000000000000000000000000000000000000000000000000000000000000DEM       BALLOTS CAST - Democratic Party                         BALLOTS CAST - Democratic Party       Precinct 3                                             00 
00060010004000000000000000000000000000000000000000000000000000000000000000000000000000000000000000000DEM       BALLOTS CAST - Democratic Party                         BALLOTS CAST - Democratic Party       Precinct 4                                             00 
00060010005000000000000000000000000000000000000000000000000000000000000000000000000000000000000000000DEM       BALLOTS CAST - Democratic Party                         BALLOTS CAST - Democratic Party       Precinct 5                                             00 
00060010006000002000000000001000001000000000000000000000000000000000000000000000000000000000000000000DEM       BALLOTS CAST - Democratic Party                         BALLOTS CAST - Democratic Party       Precinct 6                                             00 
00060010007000008000003000001000004000000000000000000000000000000000000000000000000000000000000000000DEM       BALLOTS CAST - Democratic Party                         BALLOTS CAST - Democratic Party       Precinct 7                                             00 
00060010008000005000002000002000001000000000000000000000000000000000000000000000000000000000000000000DEM       BALLOTS CAST - Democratic Party                         BALLOTS CAST - Democratic Party       Precinct 8                                             00 
00060010009000002000000000000000002000000000000000000000000000000000000000000000000000000000000000000DEM       BALLOTS CAST - Democratic Party                         BALLOTS CAST - Democratic Party       Precinct 9                                             00 
00070010001000002000001000000000001000000000000000000000000000000000000000000000000000000000000000000DEM       DEM US Representative, District 13                      Kathleen Brown                        Precinct 1                                             01 
00070010002000000000000000000000000000000000000000000000000000000000000000000000000000000000000000000DEM       DEM US Representative, District 13                      Kathleen Brown                        Precinct 2                                             01 
00070010003000000000000000000000000000000000000000000000000000000000000000000000000000000000000000000DEM       DEM US Representative, District 13                      Kathleen Brown                        Precinct 3                                             01 
00070010004000000000000000000000000000000000000000000000000000000000000000000000000000000000000000000DEM       DEM US Representative, District 13                      Kathleen Brown                        Precinct 4                                             01 
00070010005000000000000000000000000000000000000000000000000000000000000000000000000000000000000000000DEM       DEM US Representative, District 13                      Kathleen Brown                        Precinct 5                                             01 
00070010006000002000000000001000001000000000000000000000000000000000000000000000000000000000000000000DEM       DEM US Representative, District 13                      Kathleen Brown                        Precinct 6                                             01 
00070010007000006000002000001000003000000000000000000000000000000000000000000000000000000000000000000DEM       DEM US Representative, District 13                      Kathleen Brown                        Precinct 7                                             01 
00070010008000005000002000002000001000000000000000000000000000000000000000000000000000000000000000000DEM       DEM US Representative, District 13                      Kathleen Brown                        Precinct 8                                             01 
00070010009000002000000000000000002000000000000000000000000000000000000000000000000000000000000000000DEM       DEM US Representative, District 13                      Kathleen Brown                        Precinct 9                                             01 
00080010001000000000000000000000000000000000000000000000000000000000000000000000000000000000000000000DEM       DEM Governor                                            Rich Wakeland                         Precinct 1                                             01 
00080010002000000000000000000000000000000000000000000000000000000000000000000000000000000000000000000DEM       DEM Governor                                            Rich Wakeland                         Precinct 2                                             01 
00080010003000000000000000000000000000000000000000000000000000000000000000000000000000000000000000000DEM       DEM Governor                                            Rich Wakeland                         Precinct 3                                             01 
00080010004000000000000000000000000000000000000000000000000000000000000000000000000000000000000000000DEM       DEM Governor                                            Rich Wakeland                         Precinct 4                                             01 
00080010005000000000000000000000000000000000000000000000000000000000000000000000000000000000000000000DEM       DEM Governor                                            Rich Wakeland                         Precinct 5                                             01 
00080010006000000000000000000000000000000000000000000000000000000000000000000000000000000000000000000DEM       DEM Governor                                            Rich Wakeland                         Precinct 6                                             01 
00080010007000002000000000000000002000000000000000000000000000000000000000000000000000000000000000000DEM       DEM Governor                                            Rich Wakeland                         Precinct 7                                             01 
00080010008000000000000000000000000000000000000000000000000000000000000000000000000000000000000000000DEM       DEM Governor                                            Rich Wakeland                         Precinct 8                                             01 
00080010009000000000000000000000000000000000000000000000000000000000000000000000000000000000000000000DEM       DEM Governor                                            Rich Wakeland                         Precinct 9                                             01 
00080020001000000000000000000000000000000000000000000000000000000000000000000000000000000000000000000DEM       DEM Governor                                            Joy Diaz                              Precinct 1                                             01 
00080020002000000000000000000000000000000000000000000000000000000000000000000000000000000000000000000DEM       DEM Governor                                            Joy Diaz                              Precinct 2                                             01 
00080020003000000000000000000000000000000000000000000000000000000000000000000000000000000000000000000DEM       DEM Governor                                            Joy Diaz                              Precinct 3                                             01 
00080020004000000000000000000000000000000000000000000000000000000000000000000000000000000000000000000DEM       DEM Governor                                            Joy Diaz                              Precinct 4                                             01 
00080020005000000000000000000000000000000000000000000000000000000000000000000000000000000000000000000DEM       DEM Governor                                            Joy Diaz                              Precinct 5                                             01 
00080020006000001000000000000000001000000000000000000000000000000000000000000000000000000000000000000DEM       DEM Governor                                            Joy Diaz                              Precinct 6                                             01 
00080020007000001000000000000000001000000000000000000000000000000000000000000000000000000000000000000DEM       DEM Governor                                            Joy Diaz                              Precinct 7                                             01 
00080020008000000000000000000000000000000000000000000000000000000000000000000000000000000000000000000DEM       DEM Governor                                            Joy Diaz                              Precinct 8                                             01 
00080020009000000000000000000000000000000000000000000000000000000000000000000000000000000000000000000DEM       DEM Governor                                            Joy Diaz                              Precinct 9                                             01 
00080030001000003000002000000000001000000000000000000000000000000000000000000000000000000000000000000DEM       DEM Governor                                            Beto O'Rourke                         Precinct 1                                             01 
00080030002000000000000000000000000000000000000000000000000000000000000000000000000000000000000000000DEM       DEM Governor                                            Beto O'Rourke                         Precinct 2                                             01 
00080030003000000000000000000000000000000000000000000000000000000000000000000000000000000000000000000DEM       DEM Governor                                            Beto O'Rourke                         Precinct 3                                             01 
00080030004000000000000000000000000000000000000000000000000000000000000000000000000000000000000000000DEM       DEM Governor                                            Beto O'Rourke                         Precinct 4                                             01 
00080030005000000000000000000000000000000000000000000000000000000000000000000000000000000000000000000DEM       DEM Governor                                            Beto O'Rourke                         Precinct 5                                             01 
00080030006000001000000000001000000000000000000000000000000000000000000000000000000000000000000000000DEM       DEM Governor                                            Beto O'Rourke                         Precinct 6                                             01 
00080030007000004000002000001000001000000000000000000000000000000000000000000000000000000000000000000DEM       DEM Governor                                            Beto O'Rourke                         Precinct 7                                             01 
00080030008000004000002000001000001000000000000000000000000000000000000000000000000000000000000000000DEM       DEM Governor                                            Beto O'Rourke                         Precinct 8                                             01 
00080030009000002000000000000000002000000000000000000000000000000000000000000000000000000000000000000DEM       DEM Governor                                            Beto O'Rourke                         Precinct 9                                             01 
00080040001000000000000000000000000000000000000000000000000000000000000000000000000000000000000000000DEM       DEM Governor                                            Michael Cooper                        Precinct 1                                             01 
00080040002000000000000000000000000000000000000000000000000000000000000000000000000000000000000000000DEM       DEM Governor                                            Michael Cooper                        Precinct 2                                             01 
00080040003000000000000000000000000000000000000000000000000000000000000000000000000000000000000000000DEM       DEM Governor                                            Michael Cooper                        Precinct 3                                             01 
00080040004000000000000000000000000000000000000000000000000000000000000000000000000000000000000000000DEM       DEM Governor                                            Michael Cooper                        Precinct 4                                             01 
00080040005000000000000000000000000000000000000000000000000000000000000000000000000000000000000000000DEM       DEM Governor                                            Michael Cooper                        Precinct 5                                             01 
00080040006000000000000000000000000000000000000000000000000000000000000000000000000000000000000000000DEM       DEM Governor                                            Michael Cooper                        Precinct 6                                             01 
00080040007000001000001000000000000000000000000000000000000000000000000000000000000000000000000000000DEM       DEM Governor                                            Michael Cooper                        Precinct 7                                             01 
00080040008000001000000000001000000000000000000000000000000000000000000000000000000000000000000000000DEM       DEM Governor                                            Michael Cooper                        Precinct 8                                             01 
00080040009000000000000000000000000000000000000000000000000000000000000000000000000000000000000000000DEM       DEM Governor                                            Michael Cooper                        Precinct 9                                             01 
00080050001000000000000000000000000000000000000000000000000000000000000000000000000000000000000000000DEM       DEM Governor                                            Inocencio (Inno) Barrientez           Precinct 1                                             01 
00080050002000000000000000000000000000000000000000000000000000000000000000000000000000000000000000000DEM       DEM Governor                                            Inocencio (Inno) Barrientez           Precinct 2                                             01 
00080050003000000000000000000000000000000000000000000000000000000000000000000000000000000000000000000DEM       DEM Governor                                            Inocencio (Inno) Barrientez           Precinct 3                                             01 
00080050004000000000000000000000000000000000000000000000000000000000000000000000000000000000000000000DEM       DEM Governor                                            Inocencio (Inno) Barrientez           Precinct 4                                             01 
00080050005000000000000000000000000000000000000000000000000000000000000000000000000000000000000000000DEM       DEM Governor                                            Inocencio (Inno) Barrientez           Precinct 5                                             01 
00080050006000000000000000000000000000000000000000000000000000000000000000000000000000000000000000000DEM       DEM Governor                                            Inocencio (Inno) Barrientez           Precinct 6                                             01 
00080050007000000000000000000000000000000000000000000000000000000000000000000000000000000000000000000DEM       DEM Governor                                            Inocencio (Inno) Barrientez           Precinct 7                                             01 
00080050008000000000000000000000000000000000000000000000000000000000000000000000000000000000000000000DEM       DEM Governor                                            Inocencio (Inno) Barrientez           Precinct 8                                             01 
00080050009000000000000000000000000000000000000000000000000000000000000000000000000000000000000000000DEM       DEM Governor                                            Inocencio (Inno) Barrientez           Precinct 9                                             01 
00090010001000001000001000000000000000000000000000000000000000000000000000000000000000000000000000000DEM       DEM Lieutenant Governor                                 Mike Collier                          Precinct 1                                             01 
00090010002000000000000000000000000000000000000000000000000000000000000000000000000000000000000000000DEM       DEM Lieutenant Governor                                 Mike Collier                          Precinct 2                                             01 
00090010003000000000000000000000000000000000000000000000000000000000000000000000000000000000000000000DEM       DEM Lieutenant Governor                                 Mike Collier                          Precinct 3                                             01 
00090010004000000000000000000000000000000000000000000000000000000000000000000000000000000000000000000DEM       DEM Lieutenant Governor                                 Mike Collier                          Precinct 4                                             01 
00090010005000000000000000000000000000000000000000000000000000000000000000000000000000000000000000000DEM       DEM Lieutenant Governor                                 Mike Collier                          Precinct 5                                             01 
00090010006000001000000000001000000000000000000000000000000000000000000000000000000000000000000000000DEM       DEM Lieutenant Governor                                 Mike Collier                          Precinct 6                                             01 
00090010007000003000001000000000002000000000000000000000000000000000000000000000000000000000000000000DEM       DEM Lieutenant Governor                                 Mike Collier                          Precinct 7                                             01 
00090010008000002000002000000000000000000000000000000000000000000000000000000000000000000000000000000DEM       DEM Lieutenant Governor                                 Mike Collier                          Precinct 8                                             01 
00090010009000000000000000000000000000000000000000000000000000000000000000000000000000000000000000000DEM       DEM Lieutenant Governor                                 Mike Collier                          Precinct 9                                             01 
00090020001000002000001000000000001000000000000000000000000000000000000000000000000000000000000000000DEM       DEM Lieutenant Governor                                 Michelle Beckley                      Precinct 1                                             01 
00090020002000000000000000000000000000000000000000000000000000000000000000000000000000000000000000000DEM       DEM Lieutenant Governor                                 Michelle Beckley                      Precinct 2                                             01 
00090020003000000000000000000000000000000000000000000000000000000000000000000000000000000000000000000DEM       DEM Lieutenant Governor                                 Michelle Beckley                      Precinct 3                                             01 
00090020004000000000000000000000000000000000000000000000000000000000000000000000000000000000000000000DEM       DEM Lieutenant Governor                                 Michelle Beckley                      Precinct 4                                             01 
00090020005000000000000000000000000000000000000000000000000000000000000000000000000000000000000000000DEM       DEM Lieutenant Governor                                 Michelle Beckley                      Precinct 5                                             01 
00090020006000000000000000000000000000000000000000000000000000000000000000000000000000000000000000000DEM       DEM Lieutenant Governor                                 Michelle Beckley                      Precinct 6                                             01 
00090020007000004000002000000000002000000000000000000000000000000000000000000000000000000000000000000DEM       DEM Lieutenant Governor                                 Michelle Beckley                      Precinct 7                                             01 
00090020008000001000000000001000000000000000000000000000000000000000000000000000000000000000000000000DEM       DEM Lieutenant Governor                                 Michelle Beckley                      Precinct 8                                             01 
00090020009000001000000000000000001000000000000000000000000000000000000000000000000000000000000000000DEM       DEM Lieutenant Governor                                 Michelle Beckley                      Precinct 9                                             01 
00090030001000000000000000000000000000000000000000000000000000000000000000000000000000000000000000000DEM       DEM Lieutenant Governor                                 Carla Brailey                         Precinct 1                                             01 
00090030002000000000000000000000000000000000000000000000000000000000000000000000000000000000000000000DEM       DEM Lieutenant Governor                                 Carla Brailey                         Precinct 2                                             01 
00090030003000000000000000000000000000000000000000000000000000000000000000000000000000000000000000000DEM       DEM Lieutenant Governor                                 Carla Brailey                         Precinct 3                                             01 
00090030004000000000000000000000000000000000000000000000000000000000000000000000000000000000000000000DEM       DEM Lieutenant Governor                                 Carla Brailey                         Precinct 4                                             01 
00090030005000000000000000000000000000000000000000000000000000000000000000000000000000000000000000000DEM       DEM Lieutenant Governor                                 Carla Brailey                         Precinct 5                                             01 
00090030006000001000000000000000001000000000000000000000000000000000000000000000000000000000000000000DEM       DEM Lieutenant Governor                                 Carla Brailey                         Precinct 6                                             01 
00090030007000001000000000001000000000000000000000000000000000000000000000000000000000000000000000000DEM       DEM Lieutenant Governor                                 Carla Brailey                         Precinct 7                                             01 
00090030008000002000000000001000001000000000000000000000000000000000000000000000000000000000000000000DEM       DEM Lieutenant Governor                                 Carla Brailey                         Precinct 8                                             01 
00090030009000001000000000000000001000000000000000000000000000000000000000000000000000000000000000000DEM       DEM Lieutenant Governor                                 Carla Brailey                         Precinct 9                                             01 
00100010001000002000001000000000001000000000000000000000000000000000000000000000000000000000000000000DEM       DEM Attorney General                                    Rochelle Mercedes Garza               Precinct 1                                             01 
00100010002000000000000000000000000000000000000000000000000000000000000000000000000000000000000000000DEM       DEM Attorney General                                    Rochelle Mercedes Garza               Precinct 2                                             01 
00100010003000000000000000000000000000000000000000000000000000000000000000000000000000000000000000000DEM       DEM Attorney General                                    Rochelle Mercedes Garza               Precinct 3                                             01 
00100010004000000000000000000000000000000000000000000000000000000000000000000000000000000000000000000DEM       DEM Attorney General                                    Rochelle Mercedes Garza               Precinct 4                                             01 
00100010005000000000000000000000000000000000000000000000000000000000000000000000000000000000000000000DEM       DEM Attorney General                                    Rochelle Mercedes Garza               Precinct 5                                             01 
00100010006000002000000000001000001000000000000000000000000000000000000000000000000000000000000000000DEM       DEM Attorney General                                    Rochelle Mercedes Garza               Precinct 6                                             01 
00100010007000002000000000001000001000000000000000000000000000000000000000000000000000000000000000000DEM       DEM Attorney General                                    Rochelle Mercedes Garza               Precinct 7                                             01 
00100010008000000000000000000000000000000000000000000000000000000000000000000000000000000000000000000DEM       DEM Attorney General                                    Rochelle Mercedes Garza               Precinct 8                                             01 
00100010009000001000000000000000001000000000000000000000000000000000000000000000000000000000000000000DEM       DEM Attorney General                                    Rochelle Mercedes Garza               Precinct 9                                             01 
00100020001000001000001000000000000000000000000000000000000000000000000000000000000000000000000000000DEM       DEM Attorney General                                    Lee Merritt                           Precinct 1                                             01 
00100020002000000000000000000000000000000000000000000000000000000000000000000000000000000000000000000DEM       DEM Attorney General                                    Lee Merritt                           Precinct 2                                             01 
00100020003000000000000000000000000000000000000000000000000000000000000000000000000000000000000000000DEM       DEM Attorney General                                    Lee Merritt                           Precinct 3                                             01 
00100020004000000000000000000000000000000000000000000000000000000000000000000000000000000000000000000DEM       DEM Attorney General                                    Lee Merritt                           Precinct 4                                             01 
00100020005000000000000000000000000000000000000000000000000000000000000000000000000000000000000000000DEM       DEM Attorney General                                    Lee Merritt                           Precinct 5                                             01 
00100020006000000000000000000000000000000000000000000000000000000000000000000000000000000000000000000DEM       DEM Attorney General                                    Lee Merritt                           Precinct 6                                             01 
00100020007000003000001000000000002000000000000000000000000000000000000000000000000000000000000000000DEM       DEM Attorney General                                    Lee Merritt                           Precinct 7                                             01 
00100020008000002000000000001000001000000000000000000000000000000000000000000000000000000000000000000DEM       DEM Attorney General                                    Lee Merritt                           Precinct 8                                             01 
00100020009000000000000000000000000000000000000000000000000000000000000000000000000000000000000000000DEM       DEM Attorney General                                    Lee Merritt                           Precinct 9                                             01 
00100030001000000000000000000000000000000000000000000000000000000000000000000000000000000000000000000DEM       DEM Attorney General                                    Joe Jaworski                          Precinct 1                                             01 
00100030002000000000000000000000000000000000000000000000000000000000000000000000000000000000000000000DEM       DEM Attorney General                                    Joe Jaworski                          Precinct 2                                             01 
00100030003000000000000000000000000000000000000000000000000000000000000000000000000000000000000000000DEM       DEM Attorney General                                    Joe Jaworski                          Precinct 3                                             01 
00100030004000000000000000000000000000000000000000000000000000000000000000000000000000000000000000000DEM       DEM Attorney General                                    Joe Jaworski                          Precinct 4                                             01 
00100030005000000000000000000000000000000000000000000000000000000000000000000000000000000000000000000DEM       DEM Attorney General                                    Joe Jaworski                          Precinct 5                                             01 
00100030006000000000000000000000000000000000000000000000000000000000000000000000000000000000000000000DEM       DEM Attorney General                                    Joe Jaworski                          Precinct 6                                             01 
00100030007000001000001000000000000000000000000000000000000000000000000000000000000000000000000000000DEM       DEM Attorney General                                    Joe Jaworski                          Precinct 7                                             01 
00100030008000001000000000001000000000000000000000000000000000000000000000000000000000000000000000000DEM       DEM Attorney General                                    Joe Jaworski                          Precinct 8                                             01 
00100030009000001000000000000000001000000000000000000000000000000000000000000000000000000000000000000DEM       DEM Attorney General                                    Joe Jaworski                          Precinct 9                                             01 
00100040001000000000000000000000000000000000000000000000000000000000000000000000000000000000000000000DEM       DEM Attorney General                                    Mike Fields                           Precinct 1                                             01 
00100040002000000000000000000000000000000000000000000000000000000000000000000000000000000000000000000DEM       DEM Attorney General                                    Mike Fields                           Precinct 2                                             01 
00100040003000000000000000000000000000000000000000000000000000000000000000000000000000000000000000000DEM       DEM Attorney General                                    Mike Fields                           Precinct 3                                             01 
00100040004000000000000000000000000000000000000000000000000000000000000000000000000000000000000000000DEM       DEM Attorney General                                    Mike Fields                           Precinct 4                                             01 
00100040005000000000000000000000000000000000000000000000000000000000000000000000000000000000000000000DEM       DEM Attorney General                                    Mike Fields                           Precinct 5                                             01 
00100040006000000000000000000000000000000000000000000000000000000000000000000000000000000000000000000DEM       DEM Attorney General                                    Mike Fields                           Precinct 6                                             01 
00100040007000001000001000000000000000000000000000000000000000000000000000000000000000000000000000000DEM       DEM Attorney General                                    Mike Fields                           Precinct 7                                             01 
00100040008000002000002000000000000000000000000000000000000000000000000000000000000000000000000000000DEM       DEM Attorney General                                    Mike Fields                           Precinct 8                                             01 
00100040009000000000000000000000000000000000000000000000000000000000000000000000000000000000000000000DEM       DEM Attorney General                                    Mike Fields                           Precinct 9                                             01 
00100050001000000000000000000000000000000000000000000000000000000000000000000000000000000000000000000DEM       DEM Attorney General                                    S. "TBONE" Raynor                     Precinct 1                                             01 
00100050002000000000000000000000000000000000000000000000000000000000000000000000000000000000000000000DEM       DEM Attorney General                                    S. "TBONE" Raynor                     Precinct 2                                             01 
00100050003000000000000000000000000000000000000000000000000000000000000000000000000000000000000000000DEM       DEM Attorney General                                    S. "TBONE" Raynor                     Precinct 3                                             01 
00100050004000000000000000000000000000000000000000000000000000000000000000000000000000000000000000000DEM       DEM Attorney General                                    S. "TBONE" Raynor                     Precinct 4                                             01 
00100050005000000000000000000000000000000000000000000000000000000000000000000000000000000000000000000DEM       DEM Attorney General                                    S. "TBONE" Raynor                     Precinct 5                                             01 
00100050006000000000000000000000000000000000000000000000000000000000000000000000000000000000000000000DEM       DEM Attorney General                                    S. "TBONE" Raynor                     Precinct 6                                             01 
00100050007000001000000000000000001000000000000000000000000000000000000000000000000000000000000000000DEM       DEM Attorney General                                    S. "TBONE" Raynor                     Precinct 7                                             01 
00100050008000000000000000000000000000000000000000000000000000000000000000000000000000000000000000000DEM       DEM Attorney General                                    S. "TBONE" Raynor                     Precinct 8                                             01 
00100050009000000000000000000000000000000000000000000000000000000000000000000000000000000000000000000DEM       DEM Attorney General                                    S. "TBONE" Raynor                     Precinct 9                                             01 
00110010001000000000000000000000000000000000000000000000000000000000000000000000000000000000000000000DEM       DEM Comptroller of Public Accounts                      Tim Mahoney                           Precinct 1                                             01 
00110010002000000000000000000000000000000000000000000000000000000000000000000000000000000000000000000DEM       DEM Comptroller of Public Accounts                      Tim Mahoney                           Precinct 2                                             01 
00110010003000000000000000000000000000000000000000000000000000000000000000000000000000000000000000000DEM       DEM Comptroller of Public Accounts                      Tim Mahoney                           Precinct 3                                             01 
00110010004000000000000000000000000000000000000000000000000000000000000000000000000000000000000000000DEM       DEM Comptroller of Public Accounts                      Tim Mahoney                           Precinct 4                                             01 
00110010005000000000000000000000000000000000000000000000000000000000000000000000000000000000000000000DEM       DEM Comptroller of Public Accounts                      Tim Mahoney                           Precinct 5                                             01 
00110010006000001000000000001000000000000000000000000000000000000000000000000000000000000000000000000DEM       DEM Comptroller of Public Accounts                      Tim Mahoney                           Precinct 6                                             01 
00110010007000004000002000000000002000000000000000000000000000000000000000000000000000000000000000000DEM       DEM Comptroller of Public Accounts                      Tim Mahoney                           Precinct 7                                             01 
00110010008000002000000000002000000000000000000000000000000000000000000000000000000000000000000000000DEM       DEM Comptroller of Public Accounts                      Tim Mahoney                           Precinct 8                                             01 
00110010009000000000000000000000000000000000000000000000000000000000000000000000000000000000000000000DEM       DEM Comptroller of Public Accounts                      Tim Mahoney                           Precinct 9                                             01 
00110020001000001000000000000000001000000000000000000000000000000000000000000000000000000000000000000DEM       DEM Comptroller of Public Accounts                      Angel Luis Vega                       Precinct 1                                             01 
00110020002000000000000000000000000000000000000000000000000000000000000000000000000000000000000000000DEM       DEM Comptroller of Public Accounts                      Angel Luis Vega                       Precinct 2                                             01 
00110020003000000000000000000000000000000000000000000000000000000000000000000000000000000000000000000DEM       DEM Comptroller of Public Accounts                      Angel Luis Vega                       Precinct 3                                             01 
00110020004000000000000000000000000000000000000000000000000000000000000000000000000000000000000000000DEM       DEM Comptroller of Public Accounts                      Angel Luis Vega                       Precinct 4                                             01 
00110020005000000000000000000000000000000000000000000000000000000000000000000000000000000000000000000DEM       DEM Comptroller of Public Accounts                      Angel Luis Vega                       Precinct 5                                             01 
00110020006000000000000000000000000000000000000000000000000000000000000000000000000000000000000000000DEM       DEM Comptroller of Public Accounts                      Angel Luis Vega                       Precinct 6                                             01 
00110020007000002000000000001000001000000000000000000000000000000000000000000000000000000000000000000DEM       DEM Comptroller of Public Accounts                      Angel Luis Vega                       Precinct 7                                             01 
00110020008000000000000000000000000000000000000000000000000000000000000000000000000000000000000000000DEM       DEM Comptroller of Public Accounts                      Angel Luis Vega                       Precinct 8                                             01 
00110020009000002000000000000000002000000000000000000000000000000000000000000000000000000000000000000DEM       DEM Comptroller of Public Accounts                      Angel Luis Vega                       Precinct 9                                             01 
00110030001000002000002000000000000000000000000000000000000000000000000000000000000000000000000000000DEM       DEM Comptroller of Public Accounts                      Janet T. Dudding                      Precinct 1                                             01 
00110030002000000000000000000000000000000000000000000000000000000000000000000000000000000000000000000DEM       DEM Comptroller of Public Accounts                      Janet T. Dudding                      Precinct 2                                             01 
00110030003000000000000000000000000000000000000000000000000000000000000000000000000000000000000000000DEM       DEM Comptroller of Public Accounts                      Janet T. Dudding                      Precinct 3                                             01 
00110030004000000000000000000000000000000000000000000000000000000000000000000000000000000000000000000DEM       DEM Comptroller of Public Accounts                      Janet T. Dudding                      Precinct 4                                             01 
00110030005000000000000000000000000000000000000000000000000000000000000000000000000000000000000000000DEM       DEM Comptroller of Public Accounts                      Janet T. Dudding                      Precinct 5                                             01 
00110030006000001000000000000000001000000000000000000000000000000000000000000000000000000000000000000DEM       DEM Comptroller of Public Accounts                      Janet T. Dudding                      Precinct 6                                             01 
00110030007000002000001000000000001000000000000000000000000000000000000000000000000000000000000000000DEM       DEM Comptroller of Public Accounts                      Janet T. Dudding                      Precinct 7                                             01 
00110030008000003000002000000000001000000000000000000000000000000000000000000000000000000000000000000DEM       DEM Comptroller of Public Accounts                      Janet T. Dudding                      Precinct 8                                             01 
00110030009000000000000000000000000000000000000000000000000000000000000000000000000000000000000000000DEM       DEM Comptroller of Public Accounts                      Janet T. Dudding                      Precinct 9                                             01 
00120010001000001000001000000000000000000000000000000000000000000000000000000000000000000000000000000DEM       DEM Comm General Land Office                            Jay Kleberg                           Precinct 1                                             01 
00120010002000000000000000000000000000000000000000000000000000000000000000000000000000000000000000000DEM       DEM Comm General Land Office                            Jay Kleberg                           Precinct 2                                             01 
00120010003000000000000000000000000000000000000000000000000000000000000000000000000000000000000000000DEM       DEM Comm General Land Office                            Jay Kleberg                           Precinct 3                                             01 
00120010004000000000000000000000000000000000000000000000000000000000000000000000000000000000000000000DEM       DEM Comm General Land Office                            Jay Kleberg                           Precinct 4                                             01 
00120010005000000000000000000000000000000000000000000000000000000000000000000000000000000000000000000DEM       DEM Comm General Land Office                            Jay Kleberg                           Precinct 5                                             01 
00120010006000001000000000001000000000000000000000000000000000000000000000000000000000000000000000000DEM       DEM Comm General Land Office                            Jay Kleberg                           Precinct 6                                             01 
00120010007000004000001000000000003000000000000000000000000000000000000000000000000000000000000000000DEM       DEM Comm General Land Office                            Jay Kleberg                           Precinct 7                                             01 
00120010008000002000002000000000000000000000000000000000000000000000000000000000000000000000000000000DEM       DEM Comm General Land Office                            Jay Kleberg                           Precinct 8                                             01 
00120010009000000000000000000000000000000000000000000000000000000000000000000000000000000000000000000DEM       DEM Comm General Land Office                            Jay Kleberg                           Precinct 9                                             01 
00120020001000001000001000000000000000000000000000000000000000000000000000000000000000000000000000000DEM       DEM Comm General Land Office                            Michael Lange                         Precinct 1                                             01 
00120020002000000000000000000000000000000000000000000000000000000000000000000000000000000000000000000DEM       DEM Comm General Land Office                            Michael Lange                         Precinct 2                                             01 
00120020003000000000000000000000000000000000000000000000000000000000000000000000000000000000000000000DEM       DEM Comm General Land Office                            Michael Lange                         Precinct 3                                             01 
00120020004000000000000000000000000000000000000000000000000000000000000000000000000000000000000000000DEM       DEM Comm General Land Office                            Michael Lange                         Precinct 4                                             01 
00120020005000000000000000000000000000000000000000000000000000000000000000000000000000000000000000000DEM       DEM Comm General Land Office                            Michael Lange                         Precinct 5                                             01 
00120020006000000000000000000000000000000000000000000000000000000000000000000000000000000000000000000DEM       DEM Comm General Land Office                            Michael Lange                         Precinct 6                                             01 
00120020007000002000002000000000000000000000000000000000000000000000000000000000000000000000000000000DEM       DEM Comm General Land Office                            Michael Lange                         Precinct 7                                             01 
00120020008000001000000000001000000000000000000000000000000000000000000000000000000000000000000000000DEM       DEM Comm General Land Office                            Michael Lange                         Precinct 8                                             01 
00120020009000000000000000000000000000000000000000000000000000000000000000000000000000000000000000000DEM       DEM Comm General Land Office                            Michael Lange                         Precinct 9                                             01 
00120030001000001000000000000000001000000000000000000000000000000000000000000000000000000000000000000DEM       DEM Comm General Land Office                            Sandragrace Martinez                  Precinct 1                                             01 
00120030002000000000000000000000000000000000000000000000000000000000000000000000000000000000000000000DEM       DEM Comm General Land Office                            Sandragrace Martinez                  Precinct 2                                             01 
00120030003000000000000000000000000000000000000000000000000000000000000000000000000000000000000000000DEM       DEM Comm General Land Office                            Sandragrace Martinez                  Precinct 3                                             01 
00120030004000000000000000000000000000000000000000000000000000000000000000000000000000000000000000000DEM       DEM Comm General Land Office                            Sandragrace Martinez                  Precinct 4                                             01 
00120030005000000000000000000000000000000000000000000000000000000000000000000000000000000000000000000DEM       DEM Comm General Land Office                            Sandragrace Martinez                  Precinct 5                                             01 
00120030006000001000000000000000001000000000000000000000000000000000000000000000000000000000000000000DEM       DEM Comm General Land Office                            Sandragrace Martinez                  Precinct 6                                             01 
00120030007000002000000000001000001000000000000000000000000000000000000000000000000000000000000000000DEM       DEM Comm General Land Office                            Sandragrace Martinez                  Precinct 7                                             01 
00120030008000002000000000001000001000000000000000000000000000000000000000000000000000000000000000000DEM       DEM Comm General Land Office                            Sandragrace Martinez                  Precinct 8                                             01 
00120030009000001000000000000000001000000000000000000000000000000000000000000000000000000000000000000DEM       DEM Comm General Land Office                            Sandragrace Martinez                  Precinct 9                                             01 
00120040001000000000000000000000000000000000000000000000000000000000000000000000000000000000000000000DEM       DEM Comm General Land Office                            Jinny Suh                             Precinct 1                                             01 
00120040002000000000000000000000000000000000000000000000000000000000000000000000000000000000000000000DEM       DEM Comm General Land Office                            Jinny Suh                             Precinct 2                                             01 
00120040003000000000000000000000000000000000000000000000000000000000000000000000000000000000000000000DEM       DEM Comm General Land Office                            Jinny Suh                             Precinct 3                                             01 
00120040004000000000000000000000000000000000000000000000000000000000000000000000000000000000000000000DEM       DEM Comm General Land Office                            Jinny Suh                             Precinct 4                                             01 
00120040005000000000000000000000000000000000000000000000000000000000000000000000000000000000000000000DEM       DEM Comm General Land Office                            Jinny Suh                             Precinct 5                                             01 
00120040006000000000000000000000000000000000000000000000000000000000000000000000000000000000000000000DEM       DEM Comm General Land Office                            Jinny Suh                             Precinct 6                                             01 
00120040007000000000000000000000000000000000000000000000000000000000000000000000000000000000000000000DEM       DEM Comm General Land Office                            Jinny Suh                             Precinct 7                                             01 
00120040008000000000000000000000000000000000000000000000000000000000000000000000000000000000000000000DEM       DEM Comm General Land Office                            Jinny Suh                             Precinct 8                                             01 
00120040009000001000000000000000001000000000000000000000000000000000000000000000000000000000000000000DEM       DEM Comm General Land Office                            Jinny Suh                             Precinct 9                                             01 
00130010001000002000001000000000001000000000000000000000000000000000000000000000000000000000000000000DEM       DEM Commissioner of Agriculture                         Ed Ireson                             Precinct 1                                             01 
00130010002000000000000000000000000000000000000000000000000000000000000000000000000000000000000000000DEM       DEM Commissioner of Agriculture                         Ed Ireson                             Precinct 2                                             01 
00130010003000000000000000000000000000000000000000000000000000000000000000000000000000000000000000000DEM       DEM Commissioner of Agriculture                         Ed Ireson                             Precinct 3                                             01 
00130010004000000000000000000000000000000000000000000000000000000000000000000000000000000000000000000DEM       DEM Commissioner of Agriculture                         Ed Ireson                             Precinct 4                                             01 
00130010005000000000000000000000000000000000000000000000000000000000000000000000000000000000000000000DEM       DEM Commissioner of Agriculture                         Ed Ireson                             Precinct 5                                             01 
00130010006000000000000000000000000000000000000000000000000000000000000000000000000000000000000000000DEM       DEM Commissioner of Agriculture                         Ed Ireson                             Precinct 6                                             01 
00130010007000002000001000000000001000000000000000000000000000000000000000000000000000000000000000000DEM       DEM Commissioner of Agriculture                         Ed Ireson                             Precinct 7                                             01 
00130010008000001000000000001000000000000000000000000000000000000000000000000000000000000000000000000DEM       DEM Commissioner of Agriculture                         Ed Ireson                             Precinct 8                                             01 
00130010009000000000000000000000000000000000000000000000000000000000000000000000000000000000000000000DEM       DEM Commissioner of Agriculture                         Ed Ireson                             Precinct 9                                             01 
00130020001000001000001000000000000000000000000000000000000000000000000000000000000000000000000000000DEM       DEM Commissioner of Agriculture                         Susan Hays                            Precinct 1                                             01 
00130020002000000000000000000000000000000000000000000000000000000000000000000000000000000000000000000DEM       DEM Commissioner of Agriculture                         Susan Hays                            Precinct 2                                             01 
00130020003000000000000000000000000000000000000000000000000000000000000000000000000000000000000000000DEM       DEM Commissioner of Agriculture                         Susan Hays                            Precinct 3                                             01 
00130020004000000000000000000000000000000000000000000000000000000000000000000000000000000000000000000DEM       DEM Commissioner of Agriculture                         Susan Hays                            Precinct 4                                             01 
00130020005000000000000000000000000000000000000000000000000000000000000000000000000000000000000000000DEM       DEM Commissioner of Agriculture                         Susan Hays                            Precinct 5                                             01 
00130020006000002000000000001000001000000000000000000000000000000000000000000000000000000000000000000DEM       DEM Commissioner of Agriculture                         Susan Hays                            Precinct 6                                             01 
00130020007000006000002000001000003000000000000000000000000000000000000000000000000000000000000000000DEM       DEM Commissioner of Agriculture                         Susan Hays                            Precinct 7                                             01 
00130020008000004000002000001000001000000000000000000000000000000000000000000000000000000000000000000DEM       DEM Commissioner of Agriculture                         Susan Hays                            Precinct 8                                             01 
00130020009000002000000000000000002000000000000000000000000000000000000000000000000000000000000000000DEM       DEM Commissioner of Agriculture                         Susan Hays                            Precinct 9                                             01 
00140010001000002000001000000000001000000000000000000000000000000000000000000000000000000000000000000DEM       DEM Railroad Commissioner                               Luke Warford                          Precinct 1                                             01 
00140010002000000000000000000000000000000000000000000000000000000000000000000000000000000000000000000DEM       DEM Railroad Commissioner                               Luke Warford                          Precinct 2                                             01 
00140010003000000000000000000000000000000000000000000000000000000000000000000000000000000000000000000DEM       DEM Railroad Commissioner                               Luke Warford                          Precinct 3                                             01 
00140010004000000000000000000000000000000000000000000000000000000000000000000000000000000000000000000DEM       DEM Railroad Commissioner                               Luke Warford                          Precinct 4                                             01 
00140010005000000000000000000000000000000000000000000000000000000000000000000000000000000000000000000DEM       DEM Railroad Commissioner                               Luke Warford                          Precinct 5                                             01 
00140010006000001000000000001000000000000000000000000000000000000000000000000000000000000000000000000DEM       DEM Railroad Commissioner                               Luke Warford                          Precinct 6                                             01 
00140010007000007000002000001000004000000000000000000000000000000000000000000000000000000000000000000DEM       DEM Railroad Commissioner                               Luke Warford                          Precinct 7                                             01 
00140010008000005000002000002000001000000000000000000000000000000000000000000000000000000000000000000DEM       DEM Railroad Commissioner                               Luke Warford                          Precinct 8                                             01 
00140010009000002000000000000000002000000000000000000000000000000000000000000000000000000000000000000DEM       DEM Railroad Commissioner                               Luke Warford                          Precinct 9                                             01 
00150010001000002000001000000000001000000000000000000000000000000000000000000000000000000000000000000DEM       DEM Justice, Supreme Court, Pl 3                        Erin A Nowell                         Precinct 1                                             01 
00150010002000000000000000000000000000000000000000000000000000000000000000000000000000000000000000000DEM       DEM Justice, Supreme Court, Pl 3                        Erin A Nowell                         Precinct 2                                             01 
00150010003000000000000000000000000000000000000000000000000000000000000000000000000000000000000000000DEM       DEM Justice, Supreme Court, Pl 3                        Erin A Nowell                         Precinct 3                                             01 
00150010004000000000000000000000000000000000000000000000000000000000000000000000000000000000000000000DEM       DEM Justice, Supreme Court, Pl 3                        Erin A Nowell                         Precinct 4                                             01 
00150010005000000000000000000000000000000000000000000000000000000000000000000000000000000000000000000DEM       DEM Justice, Supreme Court, Pl 3                        Erin A Nowell                         Precinct 5                                             01 
00150010006000002000000000001000001000000000000000000000000000000000000000000000000000000000000000000DEM       DEM Justice, Supreme Court, Pl 3                        Erin A Nowell                         Precinct 6                                             01 
00150010007000007000002000001000004000000000000000000000000000000000000000000000000000000000000000000DEM       DEM Justice, Supreme Court, Pl 3                        Erin A Nowell                         Precinct 7                                             01 
00150010008000005000002000002000001000000000000000000000000000000000000000000000000000000000000000000DEM       DEM Justice, Supreme Court, Pl 3                        Erin A Nowell                         Precinct 8                                             01 
00150010009000002000000000000000002000000000000000000000000000000000000000000000000000000000000000000DEM       DEM Justice, Supreme Court, Pl 3                        Erin A Nowell                         Precinct 9                                             01 
00160010001000002000001000000000001000000000000000000000000000000000000000000000000000000000000000000DEM       DEM Justice, Supreme Court, Pl 5                        Amanda Reichek                        Precinct 1                                             01 
00160010002000000000000000000000000000000000000000000000000000000000000000000000000000000000000000000DEM       DEM Justice, Supreme Court, Pl 5                        Amanda Reichek                        Precinct 2                                             01 
00160010003000000000000000000000000000000000000000000000000000000000000000000000000000000000000000000DEM       DEM Justice, Supreme Court, Pl 5                        Amanda Reichek                        Precinct 3                                             01 
00160010004000000000000000000000000000000000000000000000000000000000000000000000000000000000000000000DEM       DEM Justice, Supreme Court, Pl 5                        Amanda Reichek                        Precinct 4                                             01 
00160010005000000000000000000000000000000000000000000000000000000000000000000000000000000000000000000DEM       DEM Justice, Supreme Court, Pl 5                        Amanda Reichek                        Precinct 5                                             01 
00160010006000002000000000001000001000000000000000000000000000000000000000000000000000000000000000000DEM       DEM Justice, Supreme Court, Pl 5                        Amanda Reichek                        Precinct 6                                             01 
00160010007000007000002000001000004000000000000000000000000000000000000000000000000000000000000000000DEM       DEM Justice, Supreme Court, Pl 5                        Amanda Reichek                        Precinct 7                                             01 
00160010008000005000002000002000001000000000000000000000000000000000000000000000000000000000000000000DEM       DEM Justice, Supreme Court, Pl 5                        Amanda Reichek                        Precinct 8                                             01 
00160010009000002000000000000000002000000000000000000000000000000000000000000000000000000000000000000DEM       DEM Justice, Supreme Court, Pl 5                        Amanda Reichek                        Precinct 9                                             01 
00170010001000002000001000000000001000000000000000000000000000000000000000000000000000000000000000000DEM       DEM Justice, Supreme Court, Pl 9                        Julia Maldonado                       Precinct 1                                             01 
00170010002000000000000000000000000000000000000000000000000000000000000000000000000000000000000000000DEM       DEM Justice, Supreme Court, Pl 9                        Julia Maldonado                       Precinct 2                                             01 
00170010003000000000000000000000000000000000000000000000000000000000000000000000000000000000000000000DEM       DEM Justice, Supreme Court, Pl 9                        Julia Maldonado                       Precinct 3                                             01 
00170010004000000000000000000000000000000000000000000000000000000000000000000000000000000000000000000DEM       DEM Justice, Supreme Court, Pl 9                        Julia Maldonado                       Precinct 4                                             01 
00170010005000000000000000000000000000000000000000000000000000000000000000000000000000000000000000000DEM       DEM Justice, Supreme Court, Pl 9                        Julia Maldonado                       Precinct 5                                             01 
00170010006000002000000000001000001000000000000000000000000000000000000000000000000000000000000000000DEM       DEM Justice, Supreme Court, Pl 9                        Julia Maldonado                       Precinct 6                                             01 
00170010007000007000002000001000004000000000000000000000000000000000000000000000000000000000000000000DEM       DEM Justice, Supreme Court, Pl 9                        Julia Maldonado                       Precinct 7                                             01 
00170010008000005000002000002000001000000000000000000000000000000000000000000000000000000000000000000DEM       DEM Justice, Supreme Court, Pl 9                        Julia Maldonado                       Precinct 8                                             01 
00170010009000002000000000000000002000000000000000000000000000000000000000000000000000000000000000000DEM       DEM Justice, Supreme Court, Pl 9                        Julia Maldonado                       Precinct 9                                             01 
00180010001000002000001000000000001000000000000000000000000000000000000000000000000000000000000000000DEM       DEM Judge, Ct of Crim App, Pl 5                         Dana Huffman                          Precinct 1                                             01 
00180010002000000000000000000000000000000000000000000000000000000000000000000000000000000000000000000DEM       DEM Judge, Ct of Crim App, Pl 5                         Dana Huffman                          Precinct 2                                             01 
00180010003000000000000000000000000000000000000000000000000000000000000000000000000000000000000000000DEM       DEM Judge, Ct of Crim App, Pl 5                         Dana Huffman                          Precinct 3                                             01 
00180010004000000000000000000000000000000000000000000000000000000000000000000000000000000000000000000DEM       DEM Judge, Ct of Crim App, Pl 5                         Dana Huffman                          Precinct 4                                             01 
00180010005000000000000000000000000000000000000000000000000000000000000000000000000000000000000000000DEM       DEM Judge, Ct of Crim App, Pl 5                         Dana Huffman                          Precinct 5                                             01 
00180010006000002000000000001000001000000000000000000000000000000000000000000000000000000000000000000DEM       DEM Judge, Ct of Crim App, Pl 5                         Dana Huffman                          Precinct 6                                             01 
00180010007000007000002000001000004000000000000000000000000000000000000000000000000000000000000000000DEM       DEM Judge, Ct of Crim App, Pl 5                         Dana Huffman                          Precinct 7                                             01 
00180010008000005000002000002000001000000000000000000000000000000000000000000000000000000000000000000DEM       DEM Judge, Ct of Crim App, Pl 5                         Dana Huffman                          Precinct 8                                             01 
00180010009000002000000000000000002000000000000000000000000000000000000000000000000000000000000000000DEM       DEM Judge, Ct of Crim App, Pl 5                         Dana Huffman                          Precinct 9                                             01 
00190010001000002000001000000000001000000000000000000000000000000000000000000000000000000000000000000DEM       DEM Judge, Ct of Crim App, Pl 6                         Robert Johnson                        Precinct 1                                             01 
00190010002000000000000000000000000000000000000000000000000000000000000000000000000000000000000000000DEM       DEM Judge, Ct of Crim App, Pl 6                         Robert Johnson                        Precinct 2                                             01 
00190010003000000000000000000000000000000000000000000000000000000000000000000000000000000000000000000DEM       DEM Judge, Ct of Crim App, Pl 6                         Robert Johnson                        Precinct 3                                             01 
00190010004000000000000000000000000000000000000000000000000000000000000000000000000000000000000000000DEM       DEM Judge, Ct of Crim App, Pl 6                         Robert Johnson                        Precinct 4                                             01 
00190010005000000000000000000000000000000000000000000000000000000000000000000000000000000000000000000DEM       DEM Judge, Ct of Crim App, Pl 6                         Robert Johnson                        Precinct 5                                             01 
00190010006000002000000000001000001000000000000000000000000000000000000000000000000000000000000000000DEM       DEM Judge, Ct of Crim App, Pl 6                         Robert Johnson                        Precinct 6                                             01 
00190010007000007000002000001000004000000000000000000000000000000000000000000000000000000000000000000DEM       DEM Judge, Ct of Crim App, Pl 6                         Robert Johnson                        Precinct 7                                             01 
00190010008000005000002000002000001000000000000000000000000000000000000000000000000000000000000000000DEM       DEM Judge, Ct of Crim App, Pl 6                         Robert Johnson                        Precinct 8                                             01 
00190010009000002000000000000000002000000000000000000000000000000000000000000000000000000000000000000DEM       DEM Judge, Ct of Crim App, Pl 6                         Robert Johnson                        Precinct 9                                             01 
