00010010001000359000000000000000000000000000000000000000000000000000000000000000000000000000000000000          REGISTERED VOTERS - TOTAL                               REGISTERED VOTERS - TOTAL             Precinct 1                                             00 
00010010002000086000000000000000000000000000000000000000000000000000000000000000000000000000000000000          REGISTERED VOTERS - TOTAL                               REGISTERED VOTERS - TOTAL             Precinct 2                                             00 
00010010003000026000000000000000000000000000000000000000000000000000000000000000000000000000000000000          REGISTERED VOTERS - TOTAL                               REGISTERED VOTERS - TOTAL             Precinct 3                                             00 
00010010004000041000000000000000000000000000000000000000000000000000000000000000000000000000000000000          REGISTERED VOTERS - TOTAL                               REGISTERED VOTERS - TOTAL             Precinct 4                                             00 
00010010005000030000000000000000000000000000000000000000000000000000000000000000000000000000000000000          REGISTERED VOTERS - TOTAL                               REGISTERED VOTERS - TOTAL             Precinct 5                                             00 
00010010006000382000000000000000000000000000000000000000000000000000000000000000000000000000000000000          REGISTERED VOTERS - TOTAL                               REGISTERED VOTERS - TOTAL             Precinct 6                                             00 
00010010007000668000000000000000000000000000000000000000000000000000000000000000000000000000000000000          REGISTERED VOTERS - TOTAL                               REGISTERED VOTERS - TOTAL             Precinct 7                                             00 
00010010008000729000000000000000000000000000000000000000000000000000000000000000000000000000000000000          REGISTERED VOTERS - TOTAL                               REGISTERED VOTERS - TOTAL             Precinct 8                                             00 
00010010009000589000000000000000000000000000000000000000000000000000000000000000000000000000000000000          REGISTERED VOTERS - TOTAL                               REGISTERED VOTERS - TOTAL             Precinct 9                                             00 
00040010001000359000000000000000000000000000000000000000000000000000000000000000000000000000000000000NON       REGISTERED VOTERS - NONPARTISAN                         REGISTERED VOTERS - NONPARTISAN       Precinct 1                                             00 
00040010002000086000000000000000000000000000000000000000000000000000000000000000000000000000000000000NON       REGISTERED VOTERS - NONPARTISAN                         REGISTERED VOTERS - NONPARTISAN       Precinct 2                                             00 
00040010003000026000000000000000000000000000000000000000000000000000000000000000000000000000000000000NON       REGISTERED VOTERS - NONPARTISAN                         REGISTERED VOTERS - NONPARTISAN       Precinct 3                                             00 
00040010004000041000000000000000000000000000000000000000000000000000000000000000000000000000000000000NON       REGISTERED VOTERS - NONPARTISAN                         REGISTERED VOTERS - NONPARTISAN       Precinct 4                                             00 
00040010005000030000000000000000000000000000000000000000000000000000000000000000000000000000000000000NON       REGISTERED VOTERS - NONPARTISAN                         REGISTERED VOTERS - NONPARTISAN       Precinct 5                                             00 
00040010006000382000000000000000000000000000000000000000000000000000000000000000000000000000000000000NON       REGISTERED VOTERS - NONPARTISAN                         REGISTERED VOTERS - NONPARTISAN       Precinct 6                                             00 
00040010007000668000000000000000000000000000000000000000000000000000000000000000000000000000000000000NON       REGISTERED VOTERS - NONPARTISAN                         REGISTERED VOTERS - NONPARTISAN       Precinct 7                                             00 
00040010008000729000000000000000000000000000000000000000000000000000000000000000000000000000000000000NON       REGISTERED VOTERS - NONPARTISAN                         REGISTERED VOTERS - NONPARTISAN       Precinct 8                                             00 
00040010009000589000000000000000000000000000000000000000000000000000000000000000000000000000000000000NON       REGISTERED VOTERS - NONPARTISAN                         REGISTERED VOTERS - NONPARTISAN       Precinct 9                                             00 
00050010001000085000013000009000063000000000000000000000000000000000000000000000000000000000000000000          BALLOTS CAST - TOTAL                                    BALLOTS CAST - TOTAL                  Precinct 1                                             00 
00050010002000019000001000005000013000000000000000000000000000000000000000000000000000000000000000000          BALLOTS CAST - TOTAL                                    BALLOTS CAST - TOTAL                  Precinct 2                                             00 
00050010003000009000000000005000004000000000000000000000000000000000000000000000000000000000000000000          BALLOTS CAST - TOTAL                                    BALLOTS CAST - TOTAL                  Precinct 3                                             00 
00050010004000007000001000004000002000000000000000000000000000000000000000000000000000000000000000000          BALLOTS CAST - TOTAL                                    BALLOTS CAST - TOTAL                  Precinct 4                                             00 
00050010005000004000002000000000002000000000000000000000000000000000000000000000000000000000000000000          BALLOTS CAST - TOTAL                                    BALLOTS CAST - TOTAL                  Precinct 5                                             00 
00050010006000053000007000022000024000000000000000000000000000000000000000000000000000000000000000000          BALLOTS CAST - TOTAL                                    BALLOTS CAST - TOTAL                  Precinct 6                                             00 
00050010007000086000007000013000066000000000000000000000000000000000000000000000000000000000000000000          BALLOTS CAST - TOTAL                                    BALLOTS CAST - TOTAL                  Precinct 7                                             00 
00050010008000121000019000041000061000000000000000000000000000000000000000000000000000000000000000000          BALLOTS CAST - TOTAL                                    BALLOTS CAST - TOTAL                  Precinct 8                                             00 
00050010009000076000008000020000048000000000000000000000000000000000000000000000000000000000000000000          BALLOTS CAST - TOTAL                                    BALLOTS CAST - TOTAL                  Precinct 9                                             00 
00060010001000082000011000009000062000000000000000000000000000000000000000000000000000000000000000000REP       BALLOTS CAST - Republican Party                         BALLOTS CAST - Republican Party       Precinct 1                                             00 
00060010002000019000001000005000013000000000000000000000000000000000000000000000000000000000000000000REP       BALLOTS CAST - Republican Party                         BALLOTS CAST - Republican Party       Precinct 2                                             00 
00060010003000009000000000005000004000000000000000000000000000000000000000000000000000000000000000000REP       BALLOTS CAST - Republican Party                         BALLOTS CAST - Republican Party       Precinct 3                                             00 
00060010004000007000001000004000002000000000000000000000000000000000000000000000000000000000000000000REP       BALLOTS CAST - Republican Party                         BALLOTS CAST - Republican Party       Precinct 4                                             00 
00060010005000004000002000000000002000000000000000000000000000000000000000000000000000000000000000000REP       BALLOTS CAST - Republican Party                         BALLOTS CAST - Republican Party       Precinct 5                                             00 
00060010006000051000007000021000023000000000000000000000000000000000000000000000000000000000000000000REP       BALLOTS CAST - Republican Party                         BALLOTS CAST - Republican Party       Precinct 6                                             00 
00060010007000078000004000012000062000000000000000000000000000000000000000000000000000000000000000000REP       BALLOTS CAST - Republican Party                         BALLOTS CAST - Republican Party       Precinct 7                                             00 
00060010008000116000017000039000060000000000000000000000000000000000000000000000000000000000000000000REP       BALLOTS CAST - Republican Party                         BALLOTS CAST - Republican Party       Precinct 8                                             00 
00060010009000074000008000020000046000000000000000000000000000000000000000000000000000000000000000000REP       BALLOTS CAST - Republican Party                         BALLOTS CAST - Republican Party       Precinct 9                                             00 
00070010001000073000008000006000059000000000000000000000000000000000000000000000000000000000000000000REP       REP US Representative, District 13                      Ronny Jackson                         Precinct 1                                             01 
00070010002000017000000000004000013000000000000000000000000000000000000000000000000000000000000000000REP       REP US Representative, District 13                      Ronny Jackson                         Precinct 2                                             01 
00070010003000009000000000005000004000000000000000000000000000000000000000000000000000000000000000000REP       REP US Representative, District 13                      Ronny Jackson                         Precinct 3                                             01 
00070010004000005000000000004000001000000000000000000000000000000000000000000000000000000000000000000REP       REP US Representative, District 13                      Ronny Jackson                         Precinct 4                                             01 
00070010005000002000001000000000001000000000000000000000000000000000000000000000000000000000000000000REP       REP US Representative, District 13                      Ronny Jackson                         Precinct 5                                             01 
00070010006000050000007000020000023000000000000000000000000000000000000000000000000000000000000000000REP       REP US Representative, District 13                      Ronny Jackson                         Precinct 6                                             01 
00070010007000073000004000009000060000000000000000000000000000000000000000000000000000000000000000000REP       REP US Representative, District 13                      Ronny Jackson                         Precinct 7                                             01 
00070010008000105000013000036000056000000000000000000000000000000000000000000000000000000000000000000REP       REP US Representative, District 13                      Ronny Jackson                         Precinct 8                                             01 
00070010009000070000007000019000044000000000000000000000000000000000000000000000000000000000000000000REP       REP US Representative, District 13                      Ronny Jackson                         Precinct 9                                             01 
00080010001000043000009000001000033000000000000000000000000000000000000000000000000000000000000000000REP       REP Governor                                            Greg Abbott                           Precinct 1                                             01 
00080010002000014000000000005000009000000000000000000000000000000000000000000000000000000000000000000REP       REP Governor                                            Greg Abbott                           Precinct 2                                             01 
00080010003000004000000000003000001000000000000000000000000000000000000000000000000000000000000000000REP       REP Governor                                            Greg Abbott                           Precinct 3                                             01 
00080010004000003000001000000000002000000000000000000000000000000000000000000000000000000000000000000REP       REP Governor                                            Greg Abbott                           Precinct 4                                             01 
00080010005000004000002000000000002000000000000000000000000000000000000000000000000000000000000000000REP       REP Governor                                            Greg Abbott                           Precinct 5                                             01 
00080010006000037000005000017000015000000000000000000000000000000000000000000000000000000000000000000REP       REP Governor                                            Greg Abbott                           Precinct 6                                             01 
00080010007000055000003000006000046000000000000000000000000000000000000000000000000000000000000000000REP       REP Governor                                            Greg Abbott                           Precinct 7                                             01 
00080010008000080000016000024000040000000000000000000000000000000000000000000000000000000000000000000REP       REP Governor                                            Greg Abbott                           Precinct 8                                             01 
00080010009000056000005000016000035000000000000000000000000000000000000000000000000000000000000000000REP       REP Governor                                            Greg Abbott                           Precinct 9                                             01 
00080020001000001000000000000000001000000000000000000000000000000000000000000000000000000000000000000REP       REP Governor                                            Danny Harrison                        Precinct 1                                             01 
00080020002000000000000000000000000000000000000000000000000000000000000000000000000000000000000000000REP       REP Governor                                            Danny Harrison                        Precinct 2                                             01 
00080020003000000000000000000000000000000000000000000000000000000000000000000000000000000000000000000REP       REP Governor                                            Danny Harrison                        Precinct 3                                             01 
00080020004000000000000000000000000000000000000000000000000000000000000000000000000000000000000000000REP       REP Governor                                            Danny Harrison                        Precinct 4                                             01 
00080020005000000000000000000000000000000000000000000000000000000000000000000000000000000000000000000REP       REP Governor                                            Danny Harrison                        Precinct 5                                             01 
00080020006000000000000000000000000000000000000000000000000000000000000000000000000000000000000000000REP       REP Governor                                            Danny Harrison                        Precinct 6                                             01 
00080020007000001000000000000000001000000000000000000000000000000000000000000000000000000000000000000REP       REP Governor                                            Danny Harrison                        Precinct 7                                             01 
00080020008000000000000000000000000000000000000000000000000000000000000000000000000000000000000000000REP       REP Governor                                            Danny Harrison                        Precinct 8                                             01 
00080020009000000000000000000000000000000000000000000000000000000000000000000000000000000000000000000REP       REP Governor                                            Danny Harrison                        Precinct 9                                             01 
00080030001000000000000000000000000000000000000000000000000000000000000000000000000000000000000000000REP       REP Governor                                            Rick Perry                            Precinct 1                                             01 
00080030002000000000000000000000000000000000000000000000000000000000000000000000000000000000000000000REP       REP Governor                                            Rick Perry                            Precinct 2                                             01 
00080030003000001000000000000000001000000000000000000000000000000000000000000000000000000000000000000REP       REP Governor                                            Rick Perry                            Precinct 3                                             01 
00080030004000000000000000000000000000000000000000000000000000000000000000000000000000000000000000000REP       REP Governor                                            Rick Perry                            Precinct 4                                             01 
00080030005000000000000000000000000000000000000000000000000000000000000000000000000000000000000000000REP       REP Governor                                            Rick Perry                            Precinct 5                                             01 
00080030006000005000000000000000005000000000000000000000000000000000000000000000000000000000000000000REP       REP Governor                                            Rick Perry                            Precinct 6                                             01 
00080030007000001000000000000000001000000000000000000000000000000000000000000000000000000000000000000REP       REP Governor                                            Rick Perry                            Precinct 7                                             01 
00080030008000001000000000000000001000000000000000000000000000000000000000000000000000000000000000000REP       REP Governor                                            Rick Perry                            Precinct 8                                             01 
00080030009000002000000000000000002000000000000000000000000000000000000000000000000000000000000000000REP       REP Governor                                            Rick Perry                            Precinct 9                                             01 
00080040001000002000002000000000000000000000000000000000000000000000000000000000000000000000000000000REP       REP Governor                                            Kandy Kaye Horn                       Precinct 1                                             01 
00080040002000000000000000000000000000000000000000000000000000000000000000000000000000000000000000000REP       REP Governor                                            Kandy Kaye Horn                       Precinct 2                                             01 
00080040003000000000000000000000000000000000000000000000000000000000000000000000000000000000000000000REP       REP Governor                                            Kandy Kaye Horn                       Precinct 3                                             01 
00080040004000000000000000000000000000000000000000000000000000000000000000000000000000000000000000000REP       REP Governor                                            Kandy Kaye Horn                       Precinct 4                                             01 
00080040005000000000000000000000000000000000000000000000000000000000000000000000000000000000000000000REP       REP Governor                                            Kandy Kaye Horn                       Precinct 5                                             01 
00080040006000000000000000000000000000000000000000000000000000000000000000000000000000000000000000000REP       REP Governor                                            Kandy Kaye Horn                       Precinct 6                                             01 
00080040007000001000000000001000000000000000000000000000000000000000000000000000000000000000000000000REP       REP Governor                                            Kandy Kaye Horn                       Precinct 7                                             01 
00080040008000001000000000001000000000000000000000000000000000000000000000000000000000000000000000000REP       REP Governor                                            Kandy Kaye Horn                       Precinct 8                                             01 
00080040009000000000000000000000000000000000000000000000000000000000000000000000000000000000000000000REP       REP Governor                                            Kandy Kaye Horn                       Precinct 9                                             01 
00080050001000006000000000001000005000000000000000000000000000000000000000000000000000000000000000000REP       REP Governor                                            Chad Prather                          Precinct 1                                             01 
00080050002000003000000000000000003000000000000000000000000000000000000000000000000000000000000000000REP       REP Governor                                            Chad Prather                          Precinct 2                                             01 
00080050003000001000000000000000001000000000000000000000000000000000000000000000000000000000000000000REP       REP Governor                                            Chad Prather                          Precinct 3                                             01 
00080050004000001000000000001000000000000000000000000000000000000000000000000000000000000000000000000REP       REP Governor                                            Chad Prather                          Precinct 4                                             01 
00080050005000000000000000000000000000000000000000000000000000000000000000000000000000000000000000000REP       REP Governor                                            Chad Prather                          Precinct 5                                             01 
00080050006000003000000000002000001000000000000000000000000000000000000000000000000000000000000000000REP       REP Governor                                            Chad Prather                          Precinct 6                                             01 
00080050007000004000000000001000003000000000000000000000000000000000000000000000000000000000000000000REP       REP Governor                                            Chad Prather                          Precinct 7                                             01 
00080050008000015000000000007000008000000000000000000000000000000000000000000000000000000000000000000REP       REP Governor                                            Chad Prather                          Precinct 8                                             01 
00080050009000006000000000002000004000000000000000000000000000000000000000000000000000000000000000000REP       REP Governor                                            Chad Prather                          Precinct 9                                             01 
00080060001000017000000000003000014000000000000000000000000000000000000000000000000000000000000000000REP       REP Governor                                            Don Huffines                          Precinct 1                                             01 
00080060002000000000000000000000000000000000000000000000000000000000000000000000000000000000000000000REP       REP Governor                                            Don Huffines                          Precinct 2                                             01 
00080060003000001000000000000000001000000000000000000000000000000000000000000000000000000000000000000REP       REP Governor                                            Don Huffines                          Precinct 3                                             01 
00080060004000000000000000000000000000000000000000000000000000000000000000000000000000000000000000000REP       REP Governor                                            Don Huffines                          Precinct 4                                             01 
00080060005000000000000000000000000000000000000000000000000000000000000000000000000000000000000000000REP       REP Governor                                            Don Huffines                          Precinct 5                                             01 
00080060006000003000002000001000000000000000000000000000000000000000000000000000000000000000000000000REP       REP Governor                                            Don Huffines                          Precinct 6                                             01 
00080060007000008000001000003000004000000000000000000000000000000000000000000000000000000000000000000REP       REP Governor                                            Don Huffines                          Precinct 7                                             01 
00080060008000008000000000004000004000000000000000000000000000000000000000000000000000000000000000000REP       REP Governor                                            Don Huffines                          Precinct 8                                             01 
00080060009000004000002000000000002000000000000000000000000000000000000000000000000000000000000000000REP       REP Governor                                            Don Huffines                          Precinct 9                                             01 
00080070001000012000000000004000008000000000000000000000000000000000000000000000000000000000000000000REP       REP Governor                                            Allen B. West                         Precinct 1                                             01 
00080070002000002000001000000000001000000000000000000000000000000000000000000000000000000000000000000REP       REP Governor                                            Allen B. West                         Precinct 2                                             01 
00080070003000002000000000002000000000000000000000000000000000000000000000000000000000000000000000000REP       REP Governor                                            Allen B. West                         Precinct 3                                             01 
00080070004000003000000000003000000000000000000000000000000000000000000000000000000000000000000000000REP       REP Governor                                            Allen B. West                         Precinct 4                                             01 
00080070005000000000000000000000000000000000000000000000000000000000000000000000000000000000000000000REP       REP Governor                                            Allen B. West                         Precinct 5                                             01 
00080070006000003000000000001000002000000000000000000000000000000000000000000000000000000000000000000REP       REP Governor                                            Allen B. West                         Precinct 6                                             01 
00080070007000006000000000000000006000000000000000000000000000000000000000000000000000000000000000000REP       REP Governor                                            Allen B. West                         Precinct 7                                             01 
00080070008000010000000000003000007000000000000000000000000000000000000000000000000000000000000000000REP       REP Governor                                            Allen B. West                         Precinct 8                                             01 
00080070009000005000000000002000003000000000000000000000000000000000000000000000000000000000000000000REP       REP Governor                                            Allen B. West                         Precinct 9                                             01 
00080080001000000000000000000000000000000000000000000000000000000000000000000000000000000000000000000REP       REP Governor                                            Paul Belew                            Precinct 1                                             01 
00080080002000000000000000000000000000000000000000000000000000000000000000000000000000000000000000000REP       REP Governor                                            Paul Belew                            Precinct 2                                             01 
00080080003000000000000000000000000000000000000000000000000000000000000000000000000000000000000000000REP       REP Governor                                            Paul Belew                            Precinct 3                                             01 
00080080004000000000000000000000000000000000000000000000000000000000000000000000000000000000000000000REP       REP Governor                                            Paul Belew                            Precinct 4                                             01 
00080080005000000000000000000000000000000000000000000000000000000000000000000000000000000000000000000REP       REP Governor                                            Paul Belew                            Precinct 5                                             01 
00080080006000000000000000000000000000000000000000000000000000000000000000000000000000000000000000000REP       REP Governor                                            Paul Belew                            Precinct 6                                             01 
00080080007000001000000000000000001000000000000000000000000000000000000000000000000000000000000000000REP       REP Governor                                            Paul Belew                            Precinct 7                                             01 
00080080008000000000000000000000000000000000000000000000000000000000000000000000000000000000000000000REP       REP Governor                                            Paul Belew                            Precinct 8                                             01 
00080080009000000000000000000000000000000000000000000000000000000000000000000000000000000000000000000REP       REP Governor                                            Paul Belew                            Precinct 9                                             01 
00090010001000062000009000003000050000000000000000000000000000000000000000000000000000000000000000000REP       REP Lieutenant Governor                                 Dan Patrick                           Precinct 1                                             01 
00090010002000017000001000004000012000000000000000000000000000000000000000000000000000000000000000000REP       REP Lieutenant Governor                                 Dan Patrick                           Precinct 2                                             01 
00090010003000005000000000003000002000000000000000000000000000000000000000000000000000000000000000000REP       REP Lieutenant Governor                                 Dan Patrick                           Precinct 3                                             01 
00090010004000005000001000003000001000000000000000000000000000000000000000000000000000000000000000000REP       REP Lieutenant Governor                                 Dan Patrick                           Precinct 4                                             01 
00090010005000004000002000000000002000000000000000000000000000000000000000000000000000000000000000000REP       REP Lieutenant Governor                                 Dan Patrick                           Precinct 5                                             01 
00090010006000040000005000017000018000000000000000000000000000000000000000000000000000000000000000000REP       REP Lieutenant Governor                                 Dan Patrick                           Precinct 6                                             01 
00090010007000059000004000008000047000000000000000000000000000000000000000000000000000000000000000000REP       REP Lieutenant Governor                                 Dan Patrick                           Precinct 7                                             01 
00090010008000087000014000028000045000000000000000000000000000000000000000000000000000000000000000000REP       REP Lieutenant Governor                                 Dan Patrick                           Precinct 8                                             01 
00090010009000058000007000016000035000000000000000000000000000000000000000000000000000000000000000000REP       REP Lieutenant Governor                                 Dan Patrick                           Precinct 9                                             01 
00090020001000002000000000000000002000000000000000000000000000000000000000000000000000000000000000000REP       REP Lieutenant Governor                                 Todd M. Bullis                        Precinct 1                                             01 
00090020002000001000000000001000000000000000000000000000000000000000000000000000000000000000000000000REP       REP Lieutenant Governor                                 Todd M. Bullis                        Precinct 2                                             01 
00090020003000000000000000000000000000000000000000000000000000000000000000000000000000000000000000000REP       REP Lieutenant Governor                                 Todd M. Bullis                        Precinct 3                                             01 
00090020004000000000000000000000000000000000000000000000000000000000000000000000000000000000000000000REP       REP Lieutenant Governor                                 Todd M. Bullis                        Precinct 4                                             01 
00090020005000000000000000000000000000000000000000000000000000000000000000000000000000000000000000000REP       REP Lieutenant Governor                                 Todd M. Bullis                        Precinct 5                                             01 
00090020006000001000000000001000000000000000000000000000000000000000000000000000000000000000000000000REP       REP Lieutenant Governor                                 Todd M. Bullis                        Precinct 6                                             01 
00090020007000002000000000000000002000000000000000000000000000000000000000000000000000000000000000000REP       REP Lieutenant Governor                                 Todd M. Bullis                        Precinct 7                                             01 
00090020008000002000000000000000002000000000000000000000000000000000000000000000000000000000000000000REP       REP Lieutenant Governor                                 Todd M. Bullis                        Precinct 8                                             01 
00090020009000001000000000000000001000000000000000000000000000000000000000000000000000000000000000000REP       REP Lieutenant Governor                                 Todd M. Bullis                        Precinct 9                                             01 
00090030001000003000000000003000000000000000000000000000000000000000000000000000000000000000000000000REP       REP Lieutenant Governor                                 Aaron Sorrells                        Precinct 1                                             01 
00090030002000001000000000000000001000000000000000000000000000000000000000000000000000000000000000000REP       REP Lieutenant Governor                                 Aaron Sorrells                        Precinct 2                                             01 
00090030003000000000000000000000000000000000000000000000000000000000000000000000000000000000000000000REP       REP Lieutenant Governor                                 Aaron Sorrells                        Precinct 3                                             01 
00090030004000000000000000000000000000000000000000000000000000000000000000000000000000000000000000000REP       REP Lieutenant Governor                                 Aaron Sorrells                        Precinct 4                                             01 
00090030005000000000000000000000000000000000000000000000000000000000000000000000000000000000000000000REP       REP Lieutenant Governor                                 Aaron Sorrells                        Precinct 5                                             01 
00090030006000000000000000000000000000000000000000000000000000000000000000000000000000000000000000000REP       REP Lieutenant Governor                                 Aaron Sorrells                        Precinct 6                                             01 
00090030007000003000000000000000003000000000000000000000000000000000000000000000000000000000000000000REP       REP Lieutenant Governor                                 Aaron Sorrells                        Precinct 7                                             01 
00090030008000007000000000003000004000000000000000000000000000000000000000000000000000000000000000000REP       REP Lieutenant Governor                                 Aaron Sorrells                        Precinct 8                                             01 
00090030009000002000000000001000001000000000000000000000000000000000000000000000000000000000000000000REP       REP Lieutenant Governor                                 Aaron Sorrells                        Precinct 9                                             01 
00090040001000003000001000001000001000000000000000000000000000000000000000000000000000000000000000000REP       REP Lieutenant Governor                                 Zach Vance                            Precinct 1                                             01 
00090040002000000000000000000000000000000000000000000000000000000000000000000000000000000000000000000REP       REP Lieutenant Governor                                 Zach Vance                            Precinct 2                                             01 
00090040003000000000000000000000000000000000000000000000000000000000000000000000000000000000000000000REP       REP Lieutenant Governor                                 Zach Vance                            Precinct 3                                             01 
00090040004000000000000000000000000000000000000000000000000000000000000000000000000000000000000000000REP       REP Lieutenant Governor                                 Zach Vance                            Precinct 4                                             01 
00090040005000000000000000000000000000000000000000000000000000000000000000000000000000000000000000000REP       REP Lieutenant Governor                                 Zach Vance                            Precinct 5                                             01 
00090040006000002000001000000000001000000000000000000000000000000000000000000000000000000000000000000REP       REP Lieutenant Governor                                 Zach Vance                            Precinct 6                                             01 
00090040007000003000000000001000002000000000000000000000000000000000000000000000000000000000000000000REP       REP Lieutenant Governor                                 Zach Vance                            Precinct 7                                             01 
00090040008000005000000000002000003000000000000000000000000000000000000000000000000000000000000000000REP       REP Lieutenant Governor                                 Zach Vance                            Precinct 8                                             01 
00090040009000002000000000001000001000000000000000000000000000000000000000000000000000000000000000000REP       REP Lieutenant Governor                                 Zach Vance                            Precinct 9                                             01 
00090050001000004000000000000000004000000000000000000000000000000000000000000000000000000000000000000REP       REP Lieutenant Governor                                 Daniel Miller                         Precinct 1                                             01 
00090050002000000000000000000000000000000000000000000000000000000000000000000000000000000000000000000REP       REP Lieutenant Governor                                 Daniel Miller                         Precinct 2                                             01 
00090050003000002000000000000000002000000000000000000000000000000000000000000000000000000000000000000REP       REP Lieutenant Governor                                 Daniel Miller                         Precinct 3                                             01 
00090050004000002000000000001000001000000000000000000000000000000000000000000000000000000000000000000REP       REP Lieutenant Governor                                 Daniel Miller                         Precinct 4                                             01 
00090050005000000000000000000000000000000000000000000000000000000000000000000000000000000000000000000REP       REP Lieutenant Governor                                 Daniel Miller                         Precinct 5                                             01 
00090050006000001000000000000000001000000000000000000000000000000000000000000000000000000000000000000REP       REP Lieutenant Governor                                 Daniel Miller                         Precinct 6                                             01 
00090050007000002000000000000000002000000000000000000000000000000000000000000000000000000000000000000REP       REP Lieutenant Governor                                 Daniel Miller                         Precinct 7                                             01 
00090050008000006000000000004000002000000000000000000000000000000000000000000000000000000000000000000REP       REP Lieutenant Governor                                 Daniel Miller                         Precinct 8                                             01 
00090050009000004000000000000000004000000000000000000000000000000000000000000000000000000000000000000REP       REP Lieutenant Governor                                 Daniel Miller                         Precinct 9                                             01 
00090060001000003000000000002000001000000000000000000000000000000000000000000000000000000000000000000REP       REP Lieutenant Governor                                 Trayce Bradford                       Precinct 1                                             01 
00090060002000000000000000000000000000000000000000000000000000000000000000000000000000000000000000000REP       REP Lieutenant Governor                                 Trayce Bradford                       Precinct 2                                             01 
00090060003000002000000000002000000000000000000000000000000000000000000000000000000000000000000000000REP       REP Lieutenant Governor                                 Trayce Bradford                       Precinct 3                                             01 
00090060004000000000000000000000000000000000000000000000000000000000000000000000000000000000000000000REP       REP Lieutenant Governor                                 Trayce Bradford                       Precinct 4                                             01 
00090060005000000000000000000000000000000000000000000000000000000000000000000000000000000000000000000REP       REP Lieutenant Governor                                 Trayce Bradford                       Precinct 5                                             01 
00090060006000004000001000002000001000000000000000000000000000000000000000000000000000000000000000000REP       REP Lieutenant Governor                                 Trayce Bradford                       Precinct 6                                             01 
00090060007000003000000000000000003000000000000000000000000000000000000000000000000000000000000000000REP       REP Lieutenant Governor                                 Trayce Bradford                       Precinct 7                                             01 
00090060008000003000000000001000002000000000000000000000000000000000000000000000000000000000000000000REP       REP Lieutenant Governor                                 Trayce Bradford                       Precinct 8                                             01 
00090060009000004000000000001000003000000000000000000000000000000000000000000000000000000000000000000REP       REP Lieutenant Governor                                 Trayce Bradford                       Precinct 9                                             01 
00100010001000021000003000004000014000000000000000000000000000000000000000000000000000000000000000000REP       REP Attorney General                                    Eva Guzman                            Precinct 1                                             01 
00100010002000001000000000000000001000000000000000000000000000000000000000000000000000000000000000000REP       REP Attorney General                                    Eva Guzman                            Precinct 2                                             01 
00100010003000000000000000000000000000000000000000000000000000000000000000000000000000000000000000000REP       REP Attorney General                                    Eva Guzman                            Precinct 3                                             01 
00100010004000002000000000001000001000000000000000000000000000000000000000000000000000000000000000000REP       REP Attorney General                                    Eva Guzman                            Precinct 4                                             01 
00100010005000003000002000000000001000000000000000000000000000000000000000000000000000000000000000000REP       REP Attorney General                                    Eva Guzman                            Precinct 5                                             01 
00100010006000011000002000008000001000000000000000000000000000000000000000000000000000000000000000000REP       REP Attorney General                                    Eva Guzman                            Precinct 6                                             01 
00100010007000019000000000001000018000000000000000000000000000000000000000000000000000000000000000000REP       REP Attorney General                                    Eva Guzman                            Precinct 7                                             01 
00100010008000029000008000008000013000000000000000000000000000000000000000000000000000000000000000000REP       REP Attorney General                                    Eva Guzman                            Precinct 8                                             01 
00100010009000014000000000003000011000000000000000000000000000000000000000000000000000000000000000000REP       REP Attorney General                                    Eva Guzman                            Precinct 9                                             01 
00100020001000045000005000005000035000000000000000000000000000000000000000000000000000000000000000000REP       REP Attorney General                                    Ken Paxton                            Precinct 1                                             01 
00100020002000013000001000004000008000000000000000000000000000000000000000000000000000000000000000000REP       REP Attorney General                                    Ken Paxton                            Precinct 2                                             01 
00100020003000003000000000002000001000000000000000000000000000000000000000000000000000000000000000000REP       REP Attorney General                                    Ken Paxton                            Precinct 3                                             01 
00100020004000004000001000003000000000000000000000000000000000000000000000000000000000000000000000000REP       REP Attorney General                                    Ken Paxton                            Precinct 4                                             01 
00100020005000001000000000000000001000000000000000000000000000000000000000000000000000000000000000000REP       REP Attorney General                                    Ken Paxton                            Precinct 5                                             01 
00100020006000027000005000009000013000000000000000000000000000000000000000000000000000000000000000000REP       REP Attorney General                                    Ken Paxton                            Precinct 6                                             01 
00100020007000037000004000007000026000000000000000000000000000000000000000000000000000000000000000000REP       REP Attorney General                                    Ken Paxton                            Precinct 7                                             01 
00100020008000054000009000021000024000000000000000000000000000000000000000000000000000000000000000000REP       REP Attorney General                                    Ken Paxton                            Precinct 8                                             01 
00100020009000047000006000015000026000000000000000000000000000000000000000000000000000000000000000000REP       REP Attorney General                                    Ken Paxton                            Precinct 9                                             01 
00100030001000008000000000000000008000000000000000000000000000000000000000000000000000000000000000000REP       REP Attorney General                                    George P. Bush                        Precinct 1                                             01 
00100030002000002000000000001000001000000000000000000000000000000000000000000000000000000000000000000REP       REP Attorney General                                    George P. Bush                        Precinct 2                                             01 
00100030003000002000000000001000001000000000000000000000000000000000000000000000000000000000000000000REP       REP Attorney General                                    George P. Bush                        Precinct 3                                             01 
00100030004000001000000000000000001000000000000000000000000000000000000000000000000000000000000000000REP       REP Attorney General                                    George P. Bush                        Precinct 4                                             01 
00100030005000000000000000000000000000000000000000000000000000000000000000000000000000000000000000000REP       REP Attorney General                                    George P. Bush                        Precinct 5                                             01 
00100030006000007000000000000000007000000000000000000000000000000000000000000000000000000000000000000REP       REP Attorney General                                    George P. Bush                        Precinct 6                                             01 
00100030007000019000000000003000016000000000000000000000000000000000000000000000000000000000000000000REP       REP Attorney General                                    George P. Bush                        Precinct 7                                             01 
00100030008000023000000000008000015000000000000000000000000000000000000000000000000000000000000000000REP       REP Attorney General                                    George P. Bush                        Precinct 8                                             01 
00100030009000006000001000001000004000000000000000000000000000000000000000000000000000000000000000000REP       REP Attorney General                                    George P. Bush                        Precinct 9                                             01 
00100040001000006000003000000000003000000000000000000000000000000000000000000000000000000000000000000REP       REP Attorney General                                    Louie Gohmert                         Precinct 1                                             01 
00100040002000003000000000000000003000000000000000000000000000000000000000000000000000000000000000000REP       REP Attorney General                                    Louie Gohmert                         Precinct 2                                             01 
00100040003000004000000000002000002000000000000000000000000000000000000000000000000000000000000000000REP       REP Attorney General                                    Louie Gohmert                         Precinct 3                                             01 
00100040004000000000000000000000000000000000000000000000000000000000000000000000000000000000000000000REP       REP Attorney General                                    Louie Gohmert                         Precinct 4                                             01 
00100040005000000000000000000000000000000000000000000000000000000000000000000000000000000000000000000REP       REP Attorney General                                    Louie Gohmert                         Precinct 5                                             01 
00100040006000006000000000004000002000000000000000000000000000000000000000000000000000000000000000000REP       REP Attorney General                                    Louie Gohmert                         Precinct 6                                             01 
00100040007000002000000000000000002000000000000000000000000000000000000000000000000000000000000000000REP       REP Attorney General                                    Louie Gohmert                         Precinct 7                                             01 
00100040008000008000000000002000006000000000000000000000000000000000000000000000000000000000000000000REP       REP Attorney General                                    Louie Gohmert                         Precinct 8                                             01 
00100040009000004000000000000000004000000000000000000000000000000000000000000000000000000000000000000REP       REP Attorney General                                    Louie Gohmert                         Precinct 9                                             01 
00110010001000061000005000005000051000000000000000000000000000000000000000000000000000000000000000000REP       REP Comptroller of Public Accounts                      Glenn Hegar                           Precinct 1                                             01 
00110010002000012000000000003000009000000000000000000000000000000000000000000000000000000000000000000REP       REP Comptroller of Public Accounts                      Glenn Hegar                           Precinct 2                                             01 
00110010003000008000000000005000003000000000000000000000000000000000000000000000000000000000000000000REP       REP Comptroller of Public Accounts                      Glenn Hegar                           Precinct 3                                             01 
00110010004000006000000000004000002000000000000000000000000000000000000000000000000000000000000000000REP       REP Comptroller of Public Accounts                      Glenn Hegar                           Precinct 4                                             01 
00110010005000004000002000000000002000000000000000000000000000000000000000000000000000000000000000000REP       REP Comptroller of Public Accounts                      Glenn Hegar                           Precinct 5                                             01 
00110010006000040000006000016000018000000000000000000000000000000000000000000000000000000000000000000REP       REP Comptroller of Public Accounts                      Glenn Hegar                           Precinct 6                                             01 
00110010007000066000002000006000058000000000000000000000000000000000000000000000000000000000000000000REP       REP Comptroller of Public Accounts                      Glenn Hegar                           Precinct 7                                             01 
00110010008000101000013000035000053000000000000000000000000000000000000000000000000000000000000000000REP       REP Comptroller of Public Accounts                      Glenn Hegar                           Precinct 8                                             01 
00110010009000061000007000017000037000000000000000000000000000000000000000000000000000000000000000000REP       REP Comptroller of Public Accounts                      Glenn Hegar                           Precinct 9                                             01 
00110020001000010000003000002000005000000000000000000000000000000000000000000000000000000000000000000REP       REP Comptroller of Public Accounts                      Mark V. Goloby                        Precinct 1                                             01 
00110020002000002000000000001000001000000000000000000000000000000000000000000000000000000000000000000REP       REP Comptroller of Public Accounts                      Mark V. Goloby                        Precinct 2                                             01 
00110020003000001000000000000000001000000000000000000000000000000000000000000000000000000000000000000REP       REP Comptroller of Public Accounts                      Mark V. Goloby                        Precinct 3                                             01 
00110020004000000000000000000000000000000000000000000000000000000000000000000000000000000000000000000REP       REP Comptroller of Public Accounts                      Mark V. Goloby                        Precinct 4                                             01 
00110020005000000000000000000000000000000000000000000000000000000000000000000000000000000000000000000REP       REP Comptroller of Public Accounts                      Mark V. Goloby                        Precinct 5                                             01 
00110020006000004000001000001000002000000000000000000000000000000000000000000000000000000000000000000REP       REP Comptroller of Public Accounts                      Mark V. Goloby                        Precinct 6                                             01 
00110020007000005000001000001000003000000000000000000000000000000000000000000000000000000000000000000REP       REP Comptroller of Public Accounts                      Mark V. Goloby                        Precinct 7                                             01 
00110020008000007000000000003000004000000000000000000000000000000000000000000000000000000000000000000REP       REP Comptroller of Public Accounts                      Mark V. Goloby                        Precinct 8                                             01 
00110020009000007000000000001000006000000000000000000000000000000000000000000000000000000000000000000REP       REP Comptroller of Public Accounts                      Mark V. Goloby                        Precinct 9                                             01 
00120010001000015000001000003000011000000000000000000000000000000000000000000000000000000000000000000REP       REP Comm General Land Office                            Don W. Minton                         Precinct 1                                             01 
00120010002000002000000000001000001000000000000000000000000000000000000000000000000000000000000000000REP       REP Comm General Land Office                            Don W. Minton                         Precinct 2                                             01 
00120010003000000000000000000000000000000000000000000000000000000000000000000000000000000000000000000REP       REP Comm General Land Office                            Don W. Minton                         Precinct 3                                             01 
00120010004000003000000000001000002000000000000000000000000000000000000000000000000000000000000000000REP       REP Comm General Land Office                            Don W. Minton                         Precinct 4                                             01 
00120010005000001000001000000000000000000000000000000000000000000000000000000000000000000000000000000REP       REP Comm General Land Office                            Don W. Minton                         Precinct 5                                             01 
00120010006000017000000000010000007000000000000000000000000000000000000000000000000000000000000000000REP       REP Comm General Land Office                            Don W. Minton                         Precinct 6                                             01 
00120010007000026000001000001000024000000000000000000000000000000000000000000000000000000000000000000REP       REP Comm General Land Office                            Don W. Minton                         Precinct 7                                             01 
00120010008000030000004000010000016000000000000000000000000000000000000000000000000000000000000000000REP       REP Comm General Land Office                            Don W. Minton                         Precinct 8                                             01 
00120010009000023000004000005000014000000000000000000000000000000000000000000000000000000000000000000REP       REP Comm General Land Office                            Don W. Minton                         Precinct 9                                             01 
00120020001000000000000000000000000000000000000000000000000000000000000000000000000000000000000000000REP       REP Comm General Land Office                            Rufus Lopez                           Precinct 1                                             01 
00120020002000002000000000000000002000000000000000000000000000000000000000000000000000000000000000000REP       REP Comm General Land Office                            Rufus Lopez                           Precinct 2                                             01 
00120020003000000000000000000000000000000000000000000000000000000000000000000000000000000000000000000REP       REP Comm General Land Office                            Rufus Lopez                           Precinct 3                                             01 
00120020004000000000000000000000000000000000000000000000000000000000000000000000000000000000000000000REP       REP Comm General Land Office                            Rufus Lopez                           Precinct 4                                             01 
00120020005000000000000000000000000000000000000000000000000000000000000000000000000000000000000000000REP       REP Comm General Land Office                            Rufus Lopez                           Precinct 5                                             01 
00120020006000001000000000000000001000000000000000000000000000000000000000000000000000000000000000000REP       REP Comm General Land Office                            Rufus Lopez                           Precinct 6                                             01 
00120020007000001000000000000000001000000000000000000000000000000000000000000000000000000000000000000REP       REP Comm General Land Office                            Rufus Lopez                           Precinct 7                                             01 
00120020008000003000000000001000002000000000000000000000000000000000000000000000000000000000000000000REP       REP Comm General Land Office                            Rufus Lopez                           Precinct 8                                             01 
00120020009000003000000000000000003000000000000000000000000000000000000000000000000000000000000000000REP       REP Comm General Land Office                            Rufus Lopez                           Precinct 9                                             01 
00120030001000001000000000000000001000000000000000000000000000000000000000000000000000000000000000000REP       REP Comm General Land Office                            Ben Armenta                           Precinct 1                                             01 
00120030002000000000000000000000000000000000000000000000000000000000000000000000000000000000000000000REP       REP Comm General Land Office                            Ben Armenta                           Precinct 2                                             01 
00120030003000002000000000002000000000000000000000000000000000000000000000000000000000000000000000000REP       REP Comm General Land Office                            Ben Armenta                           Precinct 3                                             01 
00120030004000000000000000000000000000000000000000000000000000000000000000000000000000000000000000000REP       REP Comm General Land Office                            Ben Armenta                           Precinct 4                                             01 
00120030005000000000000000000000000000000000000000000000000000000000000000000000000000000000000000000REP       REP Comm General Land Office                            Ben Armenta                           Precinct 5                                             01 
00120030006000000000000000000000000000000000000000000000000000000000000000000000000000000000000000000REP       REP Comm General Land Office                            Ben Armenta                           Precinct 6                                             01 
00120030007000001000000000000000001000000000000000000000000000000000000000000000000000000000000000000REP       REP Comm General Land Office                            Ben Armenta                           Precinct 7                                             01 
00120030008000002000000000000000002000000000000000000000000000000000000000000000000000000000000000000REP       REP Comm General Land Office                            Ben Armenta                           Precinct 8                                             01 
00120030009000001000000000000000001000000000000000000000000000000000000000000000000000000000000000000REP       REP Comm General Land Office                            Ben Armenta                           Precinct 9                                             01 
00120040001000007000001000001000005000000000000000000000000000000000000000000000000000000000000000000REP       REP Comm General Land Office                            Victor Avila                          Precinct 1                                             01 
00120040002000001000001000000000000000000000000000000000000000000000000000000000000000000000000000000REP       REP Comm General Land Office                            Victor Avila                          Precinct 2                                             01 
00120040003000002000000000000000002000000000000000000000000000000000000000000000000000000000000000000REP       REP Comm General Land Office                            Victor Avila                          Precinct 3                                             01 
00120040004000000000000000000000000000000000000000000000000000000000000000000000000000000000000000000REP       REP Comm General Land Office                            Victor Avila                          Precinct 4                                             01 
00120040005000000000000000000000000000000000000000000000000000000000000000000000000000000000000000000REP       REP Comm General Land Office                            Victor Avila                          Precinct 5                                             01 
00120040006000001000001000000000000000000000000000000000000000000000000000000000000000000000000000000REP       REP Comm General Land Office                            Victor Avila                          Precinct 6                                             01 
00120040007000005000000000000000005000000000000000000000000000000000000000000000000000000000000000000REP       REP Comm General Land Office                            Victor Avila                          Precinct 7                                             01 
00120040008000012000003000002000007000000000000000000000000000000000000000000000000000000000000000000REP       REP Comm General Land Office                            Victor Avila                          Precinct 8                                             01 
00120040009000003000000000001000002000000000000000000000000000000000000000000000000000000000000000000REP       REP Comm General Land Office                            Victor Avila                          Precinct 9                                             01 
00120050001000006000000000000000006000000000000000000000000000000000000000000000000000000000000000000REP       REP Comm General Land Office                            Tim Westley                           Precinct 1                                             01 
00120050002000000000000000000000000000000000000000000000000000000000000000000000000000000000000000000REP       REP Comm General Land Office                            Tim Westley                           Precinct 2                                             01 
00120050003000002000000000001000001000000000000000000000000000000000000000000000000000000000000000000REP       REP Comm General Land Office                            Tim Westley                           Precinct 3                                             01 
00120050004000002000000000002000000000000000000000000000000000000000000000000000000000000000000000000REP       REP Comm General Land Office                            Tim Westley                           Precinct 4                                             01 
00120050005000001000000000000000001000000000000000000000000000000000000000000000000000000000000000000REP       REP Comm General Land Office                            Tim Westley                           Precinct 5                                             01 
00120050006000005000002000000000003000000000000000000000000000000000000000000000000000000000000000000REP       REP Comm General Land Office                            Tim Westley                           Precinct 6                                             01 
00120050007000006000000000002000004000000000000000000000000000000000000000000000000000000000000000000REP       REP Comm General Land Office                            Tim Westley                           Precinct 7                                             01 
00120050008000007000000000002000005000000000000000000000000000000000000000000000000000000000000000000REP       REP Comm General Land Office                            Tim Westley                           Precinct 8                                             01 
00120050009000005000000000000000005000000000000000000000000000000000000000000000000000000000000000000REP       REP Comm General Land Office                            Tim Westley                           Precinct 9                                             01 
00120060001000002000002000000000000000000000000000000000000000000000000000000000000000000000000000000REP       REP Comm General Land Office                            Weston Martinez                       Precinct 1                                             01 
00120060002000000000000000000000000000000000000000000000000000000000000000000000000000000000000000000REP       REP Comm General Land Office                            Weston Martinez                       Precinct 2                                             01 
00120060003000000000000000000000000000000000000000000000000000000000000000000000000000000000000000000REP       REP Comm General Land Office                            Weston Martinez                       Precinct 3                                             01 
00120060004000000000000000000000000000000000000000000000000000000000000000000000000000000000000000000REP       REP Comm General Land Office                            Weston Martinez                       Precinct 4                                             01 
00120060005000000000000000000000000000000000000000000000000000000000000000000000000000000000000000000REP       REP Comm General Land Office                            Weston Martinez                       Precinct 5                                             01 
00120060006000002000000000000000002000000000000000000000000000000000000000000000000000000000000000000REP       REP Comm General Land Office                            Weston Martinez                       Precinct 6                                             01 
00120060007000001000000000001000000000000000000000000000000000000000000000000000000000000000000000000REP       REP Comm General Land Office                            Weston Martinez                       Precinct 7                                             01 
00120060008000000000000000000000000000000000000000000000000000000000000000000000000000000000000000000REP       REP Comm General Land Office                            Weston Martinez                       Precinct 8                                             01 
00120060009000000000000000000000000000000000000000000000000000000000000000000000000000000000000000000REP       REP Comm General Land Office                            Weston Martinez                       Precinct 9                                             01 
00120070001000029000004000005000020000000000000000000000000000000000000000000000000000000000000000000REP       REP Comm General Land Office                            Dawn Buckingham                       Precinct 1                                             01 
00120070002000007000000000000000007000000000000000000000000000000000000000000000000000000000000000000REP       REP Comm General Land Office                            Dawn Buckingham                       Precinct 2                                             01 
00120070003000001000000000000000001000000000000000000000000000000000000000000000000000000000000000000REP       REP Comm General Land Office                            Dawn Buckingham                       Precinct 3                                             01 
00120070004000002000001000001000000000000000000000000000000000000000000000000000000000000000000000000REP       REP Comm General Land Office                            Dawn Buckingham                       Precinct 4                                             01 
00120070005000001000000000000000001000000000000000000000000000000000000000000000000000000000000000000REP       REP Comm General Land Office                            Dawn Buckingham                       Precinct 5                                             01 
00120070006000013000003000005000005000000000000000000000000000000000000000000000000000000000000000000REP       REP Comm General Land Office                            Dawn Buckingham                       Precinct 6                                             01 
00120070007000024000002000006000016000000000000000000000000000000000000000000000000000000000000000000REP       REP Comm General Land Office                            Dawn Buckingham                       Precinct 7                                             01 
00120070008000043000005000017000021000000000000000000000000000000000000000000000000000000000000000000REP       REP Comm General Land Office                            Dawn Buckingham                       Precinct 8                                             01 
00120070009000027000002000011000014000000000000000000000000000000000000000000000000000000000000000000REP       REP Comm General Land Office                            Dawn Buckingham                       Precinct 9                                             01 
00120080001000006000000000000000006000000000000000000000000000000000000000000000000000000000000000000REP       REP Comm General Land Office                            Jon Spiers                            Precinct 1                                             01 
00120080002000001000000000001000000000000000000000000000000000000000000000000000000000000000000000000REP       REP Comm General Land Office                            Jon Spiers                            Precinct 2                                             01 
00120080003000000000000000000000000000000000000000000000000000000000000000000000000000000000000000000REP       REP Comm General Land Office                            Jon Spiers                            Precinct 3                                             01 
00120080004000000000000000000000000000000000000000000000000000000000000000000000000000000000000000000REP       REP Comm General Land Office                            Jon Spiers                            Precinct 4                                             01 
00120080005000000000000000000000000000000000000000000000000000000000000000000000000000000000000000000REP       REP Comm General Land Office                            Jon Spiers                            Precinct 5                                             01 
00120080006000001000000000001000000000000000000000000000000000000000000000000000000000000000000000000REP       REP Comm General Land Office                            Jon Spiers                            Precinct 6                                             01 
00120080007000007000000000001000006000000000000000000000000000000000000000000000000000000000000000000REP       REP Comm General Land Office                            Jon Spiers                            Precinct 7                                             01 
00120080008000007000003000001000003000000000000000000000000000000000000000000000000000000000000000000REP       REP Comm General Land Office                            Jon Spiers                            Precinct 8                                             01 
00120080009000005000001000000000004000000000000000000000000000000000000000000000000000000000000000000REP       REP Comm General Land Office                            Jon Spiers                            Precinct 9                                             01 
00130010001000014000000000004000010000000000000000000000000000000000000000000000000000000000000000000REP       REP Commissioner of Agriculture                         James White                           Precinct 1                                             01 
00130010002000003000000000002000001000000000000000000000000000000000000000000000000000000000000000000REP       REP Commissioner of Agriculture                         James White                           Precinct 2                                             01 
00130010003000002000000000002000000000000000000000000000000000000000000000000000000000000000000000000REP       REP Commissioner of Agriculture                         James White                           Precinct 3                                             01 
00130010004000002000000000001000001000000000000000000000000000000000000000000000000000000000000000000REP       REP Commissioner of Agriculture                         James White                           Precinct 4                                             01 
00130010005000001000001000000000000000000000000000000000000000000000000000000000000000000000000000000REP       REP Commissioner of Agriculture                         James White                           Precinct 5                                             01 
00130010006000019000003000006000010000000000000000000000000000000000000000000000000000000000000000000REP       REP Commissioner of Agriculture                         James White                           Precinct 6                                             01 
00130010007000033000001000005000027000000000000000000000000000000000000000000000000000000000000000000REP       REP Commissioner of Agriculture                         James White                           Precinct 7                                             01 
00130010008000035000006000016000013000000000000000000000000000000000000000000000000000000000000000000REP       REP Commissioner of Agriculture                         James White                           Precinct 8                                             01 
00130010009000030000002000010000018000000000000000000000000000000000000000000000000000000000000000000REP       REP Commissioner of Agriculture                         James White                           Precinct 9                                             01 
00130020001000050000004000004000042000000000000000000000000000000000000000000000000000000000000000000REP       REP Commissioner of Agriculture                         Sid Miller                            Precinct 1                                             01 
00130020002000016000001000003000012000000000000000000000000000000000000000000000000000000000000000000REP       REP Commissioner of Agriculture                         Sid Miller                            Precinct 2                                             01 
00130020003000005000000000001000004000000000000000000000000000000000000000000000000000000000000000000REP       REP Commissioner of Agriculture                         Sid Miller                            Precinct 3                                             01 
00130020004000005000001000003000001000000000000000000000000000000000000000000000000000000000000000000REP       REP Commissioner of Agriculture                         Sid Miller                            Precinct 4                                             01 
00130020005000002000001000000000001000000000000000000000000000000000000000000000000000000000000000000REP       REP Commissioner of Agriculture                         Sid Miller                            Precinct 5                                             01 
00130020006000028000004000013000011000000000000000000000000000000000000000000000000000000000000000000REP       REP Commissioner of Agriculture                         Sid Miller                            Precinct 6                                             01 
00130020007000033000003000003000027000000000000000000000000000000000000000000000000000000000000000000REP       REP Commissioner of Agriculture                         Sid Miller                            Precinct 7                                             01 
00130020008000068000008000020000040000000000000000000000000000000000000000000000000000000000000000000REP       REP Commissioner of Agriculture                         Sid Miller                            Precinct 8                                             01 
00130020009000032000005000009000018000000000000000000000000000000000000000000000000000000000000000000REP       REP Commissioner of Agriculture                         Sid Miller                            Precinct 9                                             01 
00130030001000012000005000001000006000000000000000000000000000000000000000000000000000000000000000000REP       REP Commissioner of Agriculture                         Carey A. Counsil                      Precinct 1                                             01 
00130030002000000000000000000000000000000000000000000000000000000000000000000000000000000000000000000REP       REP Commissioner of Agriculture                         Carey A. Counsil                      Precinct 2                                             01 
00130030003000000000000000000000000000000000000000000000000000000000000000000000000000000000000000000REP       REP Commissioner of Agriculture                         Carey A. Counsil                      Precinct 3                                             01 
00130030004000000000000000000000000000000000000000000000000000000000000000000000000000000000000000000REP       REP Commissioner of Agriculture                         Carey A. Counsil                      Precinct 4                                             01 
00130030005000001000000000000000001000000000000000000000000000000000000000000000000000000000000000000REP       REP Commissioner of Agriculture                         Carey A. Counsil                      Precinct 5                                             01 
00130030006000000000000000000000000000000000000000000000000000000000000000000000000000000000000000000REP       REP Commissioner of Agriculture                         Carey A. Counsil                      Precinct 6                                             01 
00130030007000007000000000001000006000000000000000000000000000000000000000000000000000000000000000000REP       REP Commissioner of Agriculture                         Carey A. Counsil                      Precinct 7                                             01 
00130030008000005000000000003000002000000000000000000000000000000000000000000000000000000000000000000REP       REP Commissioner of Agriculture                         Carey A. Counsil                      Precinct 8                                             01 
00130030009000006000000000001000005000000000000000000000000000000000000000000000000000000000000000000REP       REP Commissioner of Agriculture                         Carey A. Counsil                      Precinct 9                                             01 
00140010001000014000000000001000013000000000000000000000000000000000000000000000000000000000000000000REP       REP Railroad Commissioner                               Dawayne Tipton                        Precinct 1                                             01 
00140010002000003000000000002000001000000000000000000000000000000000000000000000000000000000000000000REP       REP Railroad Commissioner                               Dawayne Tipton                        Precinct 2                                             01 
00140010003000000000000000000000000000000000000000000000000000000000000000000000000000000000000000000REP       REP Railroad Commissioner                               Dawayne Tipton                        Precinct 3                                             01 
00140010004000001000000000000000001000000000000000000000000000000000000000000000000000000000000000000REP       REP Railroad Commissioner                               Dawayne Tipton                        Precinct 4                                             01 
00140010005000000000000000000000000000000000000000000000000000000000000000000000000000000000000000000REP       REP Railroad Commissioner                               Dawayne Tipton                        Precinct 5                                             01 
00140010006000014000000000008000006000000000000000000000000000000000000000000000000000000000000000000REP       REP Railroad Commissioner                               Dawayne Tipton                        Precinct 6                                             01 
00140010007000022000000000000000022000000000000000000000000000000000000000000000000000000000000000000REP       REP Railroad Commissioner                               Dawayne Tipton                        Precinct 7                                             01 
00140010008000022000004000007000011000000000000000000000000000000000000000000000000000000000000000000REP       REP Railroad Commissioner                               Dawayne Tipton                        Precinct 8                                             01 
00140010009000017000000000008000009000000000000000000000000000000000000000000000000000000000000000000REP       REP Railroad Commissioner                               Dawayne Tipton                        Precinct 9                                             01 
00140020001000035000005000006000024000000000000000000000000000000000000000000000000000000000000000000REP       REP Railroad Commissioner                               Wayne Christian                       Precinct 1                                             01 
00140020002000007000000000001000006000000000000000000000000000000000000000000000000000000000000000000REP       REP Railroad Commissioner                               Wayne Christian                       Precinct 2                                             01 
00140020003000007000000000003000004000000000000000000000000000000000000000000000000000000000000000000REP       REP Railroad Commissioner                               Wayne Christian                       Precinct 3                                             01 
00140020004000005000001000004000000000000000000000000000000000000000000000000000000000000000000000000REP       REP Railroad Commissioner                               Wayne Christian                       Precinct 4                                             01 
00140020005000002000000000000000002000000000000000000000000000000000000000000000000000000000000000000REP       REP Railroad Commissioner                               Wayne Christian                       Precinct 5                                             01 
00140020006000020000005000007000008000000000000000000000000000000000000000000000000000000000000000000REP       REP Railroad Commissioner                               Wayne Christian                       Precinct 6                                             01 
00140020007000028000002000007000019000000000000000000000000000000000000000000000000000000000000000000REP       REP Railroad Commissioner                               Wayne Christian                       Precinct 7                                             01 
00140020008000051000007000017000027000000000000000000000000000000000000000000000000000000000000000000REP       REP Railroad Commissioner                               Wayne Christian                       Precinct 8                                             01 
00140020009000032000006000006000020000000000000000000000000000000000000000000000000000000000000000000REP       REP Railroad Commissioner                               Wayne Christian                       Precinct 9                                             01 
00140030001000005000001000000000004000000000000000000000000000000000000000000000000000000000000000000REP       REP Railroad Commissioner                               Tom Slocum Jr                         Precinct 1                                             01 
00140030002000000000000000000000000000000000000000000000000000000000000000000000000000000000000000000REP       REP Railroad Commissioner                               Tom Slocum Jr                         Precinct 2                                             01 
00140030003000000000000000000000000000000000000000000000000000000000000000000000000000000000000000000REP       REP Railroad Commissioner                               Tom Slocum Jr                         Precinct 3                                             01 
00140030004000000000000000000000000000000000000000000000000000000000000000000000000000000000000000000REP       REP Railroad Commissioner                               Tom Slocum Jr                         Precinct 4                                             01 
00140030005000000000000000000000000000000000000000000000000000000000000000000000000000000000000000000REP       REP Railroad Commissioner                               Tom Slocum Jr                         Precinct 5                                             01 
00140030006000000000000000000000000000000000000000000000000000000000000000000000000000000000000000000REP       REP Railroad Commissioner                               Tom Slocum Jr                         Precinct 6                                             01 
00140030007000006000000000000000006000000000000000000000000000000000000000000000000000000000000000000REP       REP Railroad Commissioner                               Tom Slocum Jr                         Precinct 7                                             01 
00140030008000009000001000003000005000000000000000000000000000000000000000000000000000000000000000000REP       REP Railroad Commissioner                               Tom Slocum Jr                         Precinct 8                                             01 
00140030009000007000001000002000004000000000000000000000000000000000000000000000000000000000000000000REP       REP Railroad Commissioner                               Tom Slocum Jr                         Precinct 9                                             01 
00140040001000004000000000002000002000000000000000000000000000000000000000000000000000000000000000000REP       REP Railroad Commissioner                               Sarah Stogner                         Precinct 1                                             01 
00140040002000002000000000001000001000000000000000000000000000000000000000000000000000000000000000000REP       REP Railroad Commissioner                               Sarah Stogner                         Precinct 2                                             01 
00140040003000000000000000000000000000000000000000000000000000000000000000000000000000000000000000000REP       REP Railroad Commissioner                               Sarah Stogner                         Precinct 3                                             01 
00140040004000000000000000000000000000000000000000000000000000000000000000000000000000000000000000000REP       REP Railroad Commissioner                               Sarah Stogner                         Precinct 4                                             01 
00140040005000000000000000000000000000000000000000000000000000000000000000000000000000000000000000000REP       REP Railroad Commissioner                               Sarah Stogner                         Precinct 5                                             01 
00140040006000003000000000001000002000000000000000000000000000000000000000000000000000000000000000000REP       REP Railroad Commissioner                               Sarah Stogner                         Precinct 6                                             01 
00140040007000008000000000002000006000000000000000000000000000000000000000000000000000000000000000000REP       REP Railroad Commissioner                               Sarah Stogner                         Precinct 7                                             01 
00140040008000012000000000005000007000000000000000000000000000000000000000000000000000000000000000000REP       REP Railroad Commissioner                               Sarah Stogner                         Precinct 8                                             01 
00140040009000011000000000003000008000000000000000000000000000000000000000000000000000000000000000000REP       REP Railroad Commissioner                               Sarah Stogner                         Precinct 9                                             01 
00140050001000009000003000000000006000000000000000000000000000000000000000000000000000000000000000000REP       REP Railroad Commissioner                               Marvin "Sarge" Summers                Precinct 1                                             01 
00140050002000002000000000000000002000000000000000000000000000000000000000000000000000000000000000000REP       REP Railroad Commissioner                               Marvin "Sarge" Summers                Precinct 2                                             01 
00140050003000000000000000000000000000000000000000000000000000000000000000000000000000000000000000000REP       REP Railroad Commissioner                               Marvin "Sarge" Summers                Precinct 3                                             01 
00140050004000001000000000000000001000000000000000000000000000000000000000000000000000000000000000000REP       REP Railroad Commissioner                               Marvin "Sarge" Summers                Precinct 4                                             01 
00140050005000002000002000000000000000000000000000000000000000000000000000000000000000000000000000000REP       REP Railroad Commissioner                               Marvin "Sarge" Summers                Precinct 5                                             01 
00140050006000004000001000000000003000000000000000000000000000000000000000000000000000000000000000000REP       REP Railroad Commissioner                               Marvin "Sarge" Summers                Precinct 6                                             01 
00140050007000009000000000002000007000000000000000000000000000000000000000000000000000000000000000000REP       REP Railroad Commissioner                               Marvin "Sarge" Summers                Precinct 7                                             01 
00140050008000008000001000003000004000000000000000000000000000000000000000000000000000000000000000000REP       REP Railroad Commissioner                               Marvin "Sarge" Summers                Precinct 8                                             01 
00140050009000003000000000000000003000000000000000000000000000000000000000000000000000000000000000000REP       REP Railroad Commissioner                               Marvin "Sarge" Summers                Precinct 9                                             01 
00150010001000069000006000008000055000000000000000000000000000000000000000000000000000000000000000000REP       REP Justice, Supreme Court, Pl 3                        Debra Lehrmann                        Precinct 1                                             01 
00150010002000016000001000003000012000000000000000000000000000000000000000000000000000000000000000000REP       REP Justice, Supreme Court, Pl 3                        Debra Lehrmann                        Precinct 2                                             01 
00150010003000007000000000003000004000000000000000000000000000000000000000000000000000000000000000000REP       REP Justice, Supreme Court, Pl 3                        Debra Lehrmann                        Precinct 3                                             01 
00150010004000005000000000004000001000000000000000000000000000000000000000000000000000000000000000000REP       REP Justice, Supreme Court, Pl 3                        Debra Lehrmann                        Precinct 4                                             01 
00150010005000004000002000000000002000000000000000000000000000000000000000000000000000000000000000000REP       REP Justice, Supreme Court, Pl 3                        Debra Lehrmann                        Precinct 5                                             01 
00150010006000045000007000019000019000000000000000000000000000000000000000000000000000000000000000000REP       REP Justice, Supreme Court, Pl 3                        Debra Lehrmann                        Precinct 6                                             01 
00150010007000071000003000008000060000000000000000000000000000000000000000000000000000000000000000000REP       REP Justice, Supreme Court, Pl 3                        Debra Lehrmann                        Precinct 7                                             01 
00150010008000102000013000034000055000000000000000000000000000000000000000000000000000000000000000000REP       REP Justice, Supreme Court, Pl 3                        Debra Lehrmann                        Precinct 8                                             01 
